{
  "contractName": "Character",
  "abi": [
    {
      "anonymous": false,
      "inputs": [
        {
          "indexed": true,
          "internalType": "address",
          "name": "owner",
          "type": "address"
        },
        {
          "indexed": true,
          "internalType": "address",
          "name": "approved",
          "type": "address"
        },
        {
          "indexed": true,
          "internalType": "uint256",
          "name": "tokenId",
          "type": "uint256"
        }
      ],
      "name": "Approval",
      "type": "event"
    },
    {
      "anonymous": false,
      "inputs": [
        {
          "indexed": true,
          "internalType": "address",
          "name": "owner",
          "type": "address"
        },
        {
          "indexed": true,
          "internalType": "address",
          "name": "operator",
          "type": "address"
        },
        {
          "indexed": false,
          "internalType": "bool",
          "name": "approved",
          "type": "bool"
        }
      ],
      "name": "ApprovalForAll",
      "type": "event"
    },
    {
      "anonymous": false,
      "inputs": [
        {
          "indexed": true,
          "internalType": "address",
          "name": "previousOwner",
          "type": "address"
        },
        {
          "indexed": true,
          "internalType": "address",
          "name": "newOwner",
          "type": "address"
        }
      ],
      "name": "OwnershipTransferred",
      "type": "event"
    },
    {
      "anonymous": false,
      "inputs": [
        {
          "indexed": false,
          "internalType": "address",
          "name": "account",
          "type": "address"
        }
      ],
      "name": "Paused",
      "type": "event"
    },
    {
      "anonymous": false,
      "inputs": [
        {
          "indexed": true,
          "internalType": "address",
          "name": "from",
          "type": "address"
        },
        {
          "indexed": true,
          "internalType": "address",
          "name": "to",
          "type": "address"
        },
        {
          "indexed": true,
          "internalType": "uint256",
          "name": "tokenId",
          "type": "uint256"
        }
      ],
      "name": "Transfer",
      "type": "event"
    },
    {
      "anonymous": false,
      "inputs": [
        {
          "indexed": false,
          "internalType": "address",
          "name": "account",
          "type": "address"
        }
      ],
      "name": "Unpaused",
      "type": "event"
    },
    {
      "inputs": [
        {
          "internalType": "address",
          "name": "to",
          "type": "address"
        },
        {
          "internalType": "uint256",
          "name": "tokenId",
          "type": "uint256"
        }
      ],
      "name": "approve",
      "outputs": [],
      "stateMutability": "nonpayable",
      "type": "function"
    },
    {
      "inputs": [
        {
          "internalType": "address",
          "name": "owner",
          "type": "address"
        }
      ],
      "name": "balanceOf",
      "outputs": [
        {
          "internalType": "uint256",
          "name": "",
          "type": "uint256"
        }
      ],
      "stateMutability": "view",
      "type": "function",
      "constant": true
    },
    {
      "inputs": [
        {
          "internalType": "uint256",
          "name": "",
          "type": "uint256"
        }
      ],
      "name": "existingCombinations",
      "outputs": [
        {
          "internalType": "uint256",
          "name": "",
          "type": "uint256"
        }
      ],
      "stateMutability": "view",
      "type": "function",
      "constant": true
    },
    {
      "inputs": [],
      "name": "gen0Tokens",
      "outputs": [
        {
          "internalType": "uint256",
          "name": "",
          "type": "uint256"
        }
      ],
      "stateMutability": "view",
      "type": "function",
      "constant": true
    },
    {
      "inputs": [
        {
          "internalType": "uint256",
          "name": "tokenId",
          "type": "uint256"
        }
      ],
      "name": "getApproved",
      "outputs": [
        {
          "internalType": "address",
          "name": "",
          "type": "address"
        }
      ],
      "stateMutability": "view",
      "type": "function",
      "constant": true
    },
    {
      "inputs": [
        {
          "internalType": "address",
          "name": "owner",
          "type": "address"
        },
        {
          "internalType": "address",
          "name": "operator",
          "type": "address"
        }
      ],
      "name": "isApprovedForAll",
      "outputs": [
        {
          "internalType": "bool",
          "name": "",
          "type": "bool"
        }
      ],
      "stateMutability": "view",
      "type": "function",
      "constant": true
    },
    {
      "inputs": [],
      "name": "kitchen",
      "outputs": [
        {
          "internalType": "contract IVenue",
          "name": "",
          "type": "address"
        }
      ],
      "stateMutability": "view",
      "type": "function",
      "constant": true
    },
    {
      "inputs": [],
      "name": "maxTokens",
      "outputs": [
        {
          "internalType": "uint256",
          "name": "",
          "type": "uint256"
        }
      ],
      "stateMutability": "view",
      "type": "function",
      "constant": true
    },
    {
      "inputs": [],
      "name": "mintPrice",
      "outputs": [
        {
          "internalType": "uint256",
          "name": "",
          "type": "uint256"
        }
      ],
      "stateMutability": "view",
      "type": "function",
      "constant": true
    },
    {
      "inputs": [
        {
          "internalType": "uint256",
          "name": "",
          "type": "uint256"
        },
        {
          "internalType": "uint256",
          "name": "",
          "type": "uint256"
        }
      ],
      "name": "mintRequests",
      "outputs": [
        {
          "internalType": "uint16",
          "name": "",
          "type": "uint16"
        }
      ],
      "stateMutability": "view",
      "type": "function",
      "constant": true
    },
    {
      "inputs": [],
      "name": "minted",
      "outputs": [
        {
          "internalType": "uint16",
          "name": "",
          "type": "uint16"
        }
      ],
      "stateMutability": "view",
      "type": "function",
      "constant": true
    },
    {
      "inputs": [],
      "name": "name",
      "outputs": [
        {
          "internalType": "string",
          "name": "",
          "type": "string"
        }
      ],
      "stateMutability": "view",
      "type": "function",
      "constant": true
    },
    {
      "inputs": [],
      "name": "numChefs",
      "outputs": [
        {
          "internalType": "uint16",
          "name": "",
          "type": "uint16"
        }
      ],
      "stateMutability": "view",
      "type": "function",
      "constant": true
    },
    {
      "inputs": [],
      "name": "numRats",
      "outputs": [
        {
          "internalType": "uint16",
          "name": "",
          "type": "uint16"
        }
      ],
      "stateMutability": "view",
      "type": "function",
      "constant": true
    },
    {
      "inputs": [],
      "name": "owner",
      "outputs": [
        {
          "internalType": "address",
          "name": "",
          "type": "address"
        }
      ],
      "stateMutability": "view",
      "type": "function",
      "constant": true
    },
    {
      "inputs": [
        {
          "internalType": "uint256",
          "name": "tokenId",
          "type": "uint256"
        }
      ],
      "name": "ownerOf",
      "outputs": [
        {
          "internalType": "address",
          "name": "",
          "type": "address"
        }
      ],
      "stateMutability": "view",
      "type": "function",
      "constant": true
    },
    {
      "inputs": [],
      "name": "paused",
      "outputs": [
        {
          "internalType": "bool",
          "name": "",
          "type": "bool"
        }
      ],
      "stateMutability": "view",
      "type": "function",
      "constant": true
    },
    {
      "inputs": [],
      "name": "properties",
      "outputs": [
        {
          "internalType": "contract IProperties",
          "name": "",
          "type": "address"
        }
      ],
      "stateMutability": "view",
      "type": "function",
      "constant": true
    },
    {
      "inputs": [],
      "name": "renounceOwnership",
      "outputs": [],
      "stateMutability": "nonpayable",
      "type": "function"
    },
    {
      "inputs": [
        {
          "internalType": "address",
          "name": "from",
          "type": "address"
        },
        {
          "internalType": "address",
          "name": "to",
          "type": "address"
        },
        {
          "internalType": "uint256",
          "name": "tokenId",
          "type": "uint256"
        }
      ],
      "name": "safeTransferFrom",
      "outputs": [],
      "stateMutability": "nonpayable",
      "type": "function"
    },
    {
      "inputs": [
        {
          "internalType": "address",
          "name": "from",
          "type": "address"
        },
        {
          "internalType": "address",
          "name": "to",
          "type": "address"
        },
        {
          "internalType": "uint256",
          "name": "tokenId",
          "type": "uint256"
        },
        {
          "internalType": "bytes",
          "name": "_data",
          "type": "bytes"
        }
      ],
      "name": "safeTransferFrom",
      "outputs": [],
      "stateMutability": "nonpayable",
      "type": "function"
    },
    {
      "inputs": [
        {
          "internalType": "address",
          "name": "operator",
          "type": "address"
        },
        {
          "internalType": "bool",
          "name": "approved",
          "type": "bool"
        }
      ],
      "name": "setApprovalForAll",
      "outputs": [],
      "stateMutability": "nonpayable",
      "type": "function"
    },
    {
      "inputs": [
        {
          "internalType": "bytes4",
          "name": "interfaceId",
          "type": "bytes4"
        }
      ],
      "name": "supportsInterface",
      "outputs": [
        {
          "internalType": "bool",
          "name": "",
          "type": "bool"
        }
      ],
      "stateMutability": "view",
      "type": "function",
      "constant": true
    },
    {
      "inputs": [],
      "name": "symbol",
      "outputs": [
        {
          "internalType": "string",
          "name": "",
          "type": "string"
        }
      ],
      "stateMutability": "view",
      "type": "function",
      "constant": true
    },
    {
      "inputs": [],
      "name": "theMint",
      "outputs": [
        {
          "internalType": "contract IMint",
          "name": "",
          "type": "address"
        }
      ],
      "stateMutability": "view",
      "type": "function",
      "constant": true
    },
    {
      "inputs": [
        {
          "internalType": "uint256",
          "name": "",
          "type": "uint256"
        }
      ],
      "name": "tokenTraits",
      "outputs": [
        {
          "internalType": "bool",
          "name": "isChef",
          "type": "bool"
        },
        {
          "internalType": "uint8",
          "name": "hat",
          "type": "uint8"
        },
        {
          "internalType": "uint8",
          "name": "eyes",
          "type": "uint8"
        },
        {
          "internalType": "uint8",
          "name": "piercing",
          "type": "uint8"
        },
        {
          "internalType": "uint8",
          "name": "mouth",
          "type": "uint8"
        },
        {
          "internalType": "uint8",
          "name": "neck",
          "type": "uint8"
        },
        {
          "internalType": "uint8",
          "name": "hand",
          "type": "uint8"
        },
        {
          "internalType": "uint8",
          "name": "tail",
          "type": "uint8"
        },
        {
          "internalType": "uint8",
          "name": "efficiency",
          "type": "uint8"
        },
        {
          "internalType": "uint8",
          "name": "tolerance",
          "type": "uint8"
        }
      ],
      "stateMutability": "view",
      "type": "function",
      "constant": true
    },
    {
      "inputs": [],
      "name": "traits",
      "outputs": [
        {
          "internalType": "contract ITraits",
          "name": "",
          "type": "address"
        }
      ],
      "stateMutability": "view",
      "type": "function",
      "constant": true
    },
    {
      "inputs": [
        {
          "internalType": "address",
          "name": "from",
          "type": "address"
        },
        {
          "internalType": "address",
          "name": "to",
          "type": "address"
        },
        {
          "internalType": "uint256",
          "name": "tokenId",
          "type": "uint256"
        }
      ],
      "name": "transferFrom",
      "outputs": [],
      "stateMutability": "nonpayable",
      "type": "function"
    },
    {
      "inputs": [
        {
          "internalType": "address",
          "name": "newOwner",
          "type": "address"
        }
      ],
      "name": "transferOwnership",
      "outputs": [],
      "stateMutability": "nonpayable",
      "type": "function"
    },
    {
      "inputs": [
        {
          "internalType": "address[]",
          "name": "_addresses",
          "type": "address[]"
        },
        {
          "internalType": "uint256",
          "name": "_maxTokens",
          "type": "uint256"
        },
        {
          "internalType": "uint256",
          "name": "_mintPrice",
          "type": "uint256"
        }
      ],
      "name": "initialize",
      "outputs": [],
      "stateMutability": "nonpayable",
      "type": "function"
    },
    {
      "inputs": [
        {
          "internalType": "uint8",
          "name": "amount",
          "type": "uint8"
        },
        {
          "internalType": "bool",
          "name": "stake",
          "type": "bool"
        }
      ],
      "name": "mint",
      "outputs": [],
      "stateMutability": "payable",
      "type": "function",
      "payable": true
    },
    {
      "inputs": [
        {
          "internalType": "uint256",
          "name": "tokenId",
          "type": "uint256"
        }
      ],
      "name": "mintCost",
      "outputs": [
        {
          "internalType": "uint256",
          "name": "",
          "type": "uint256"
        }
      ],
      "stateMutability": "view",
      "type": "function",
      "constant": true
    },
    {
      "inputs": [
        {
          "components": [
            {
              "internalType": "uint256",
              "name": "requestId",
              "type": "uint256"
            },
            {
              "internalType": "address",
              "name": "sender",
              "type": "address"
            },
            {
              "internalType": "uint8",
              "name": "amount",
              "type": "uint8"
            },
            {
              "internalType": "bool",
              "name": "stake",
              "type": "bool"
            }
          ],
          "internalType": "struct IMint.VRFStruct",
          "name": "v",
          "type": "tuple"
        },
        {
          "components": [
            {
              "internalType": "bool",
              "name": "isChef",
              "type": "bool"
            },
            {
              "internalType": "uint8",
              "name": "hat",
              "type": "uint8"
            },
            {
              "internalType": "uint8",
              "name": "eyes",
              "type": "uint8"
            },
            {
              "internalType": "uint8",
              "name": "piercing",
              "type": "uint8"
            },
            {
              "internalType": "uint8",
              "name": "mouth",
              "type": "uint8"
            },
            {
              "internalType": "uint8",
              "name": "neck",
              "type": "uint8"
            },
            {
              "internalType": "uint8",
              "name": "hand",
              "type": "uint8"
            },
            {
              "internalType": "uint8",
              "name": "tail",
              "type": "uint8"
            },
            {
              "internalType": "uint8",
              "name": "efficiency",
              "type": "uint8"
            },
            {
              "internalType": "uint8",
              "name": "tolerance",
              "type": "uint8"
            }
          ],
          "internalType": "struct ICharacter.CharacterStruct[]",
          "name": "tokens",
          "type": "tuple[]"
        }
      ],
      "name": "fulfillMint",
      "outputs": [],
      "stateMutability": "nonpayable",
      "type": "function"
    },
    {
      "inputs": [
        {
          "internalType": "uint256",
          "name": "tokenId",
          "type": "uint256"
        },
        {
          "internalType": "int8",
          "name": "efficiencyIncrement",
          "type": "int8"
        },
        {
          "internalType": "int8",
          "name": "toleranceIncrement",
          "type": "int8"
        }
      ],
      "name": "updateCharacter",
      "outputs": [
        {
          "internalType": "uint8",
          "name": "efficiencyValue",
          "type": "uint8"
        },
        {
          "internalType": "uint8",
          "name": "toleranceValue",
          "type": "uint8"
        },
        {
          "internalType": "string",
          "name": "eventName",
          "type": "string"
        }
      ],
      "stateMutability": "nonpayable",
      "type": "function"
    },
    {
      "inputs": [
        {
          "internalType": "uint256",
          "name": "tokenId",
          "type": "uint256"
        }
      ],
      "name": "tokenURI",
      "outputs": [
        {
          "internalType": "string",
          "name": "",
          "type": "string"
        }
      ],
      "stateMutability": "view",
      "type": "function",
      "constant": true
    },
    {
      "inputs": [
        {
          "internalType": "uint256",
          "name": "tokenId",
          "type": "uint256"
        }
      ],
      "name": "getTokenTraits",
      "outputs": [
        {
          "components": [
            {
              "internalType": "bool",
              "name": "isChef",
              "type": "bool"
            },
            {
              "internalType": "uint8",
              "name": "hat",
              "type": "uint8"
            },
            {
              "internalType": "uint8",
              "name": "eyes",
              "type": "uint8"
            },
            {
              "internalType": "uint8",
              "name": "piercing",
              "type": "uint8"
            },
            {
              "internalType": "uint8",
              "name": "mouth",
              "type": "uint8"
            },
            {
              "internalType": "uint8",
              "name": "neck",
              "type": "uint8"
            },
            {
              "internalType": "uint8",
              "name": "hand",
              "type": "uint8"
            },
            {
              "internalType": "uint8",
              "name": "tail",
              "type": "uint8"
            },
            {
              "internalType": "uint8",
              "name": "efficiency",
              "type": "uint8"
            },
            {
              "internalType": "uint8",
              "name": "tolerance",
              "type": "uint8"
            }
          ],
          "internalType": "struct ICharacter.CharacterStruct",
          "name": "",
          "type": "tuple"
        }
      ],
      "stateMutability": "view",
      "type": "function",
      "constant": true
    },
    {
      "inputs": [],
      "name": "getGen0Tokens",
      "outputs": [
        {
          "internalType": "uint256",
          "name": "",
          "type": "uint256"
        }
      ],
      "stateMutability": "view",
      "type": "function",
      "constant": true
    },
    {
      "inputs": [
        {
          "internalType": "address",
          "name": "controller",
          "type": "address"
        }
      ],
      "name": "getController",
      "outputs": [
        {
          "internalType": "bool",
          "name": "",
          "type": "bool"
        }
      ],
      "stateMutability": "view",
      "type": "function",
      "constant": true
    },
    {
      "inputs": [
        {
          "internalType": "address",
          "name": "controller",
          "type": "address"
        }
      ],
      "name": "addController",
      "outputs": [],
      "stateMutability": "nonpayable",
      "type": "function"
    },
    {
      "inputs": [
        {
          "internalType": "address",
          "name": "controller",
          "type": "address"
        }
      ],
      "name": "removeController",
      "outputs": [],
      "stateMutability": "nonpayable",
      "type": "function"
    },
    {
      "inputs": [
        {
          "internalType": "address",
          "name": "_kitchen",
          "type": "address"
        }
      ],
      "name": "setKitchen",
      "outputs": [],
      "stateMutability": "nonpayable",
      "type": "function"
    }
  ],
  "bytecode": "0x608060405234801561001057600080fd5b50615edd80620000216000396000f3fe6080604052600436106102465760003560e01c806388c662aa11610139578063ba0909dd116100b6578063e1fc334f1161007a578063e1fc334f146108da578063e831574214610905578063e985e9c514610930578063f2fde38b1461096d578063f6a74ed714610996578063fcd802b1146109bf57610246565b8063ba0909dd146107c2578063c87b56dd146107ed578063d39f8a4d1461082a578063d8ffcfcb14610855578063e05c57bf1461089457610246565b806395d89b41116100fd57806395d89b41146106df578063a1b8f3741461070a578063a22cb46514610747578063a7fc7a0714610770578063b88d4fde1461079957610246565b806388c662aa146105d25780638da5cb5b1461060f578063925282ea1461063a5780639284521c1461067757806394e56847146106a257610246565b80634988fcd9116101c75780636352211e1161018b5780636352211e146104eb5780636817c76c1461052857806370a0823114610553578063715018a6146105905780637856f945146105a757610246565b80634988fcd9146104275780634f02c420146104505780635c975abb1461047b5780635eae7959146104a6578063612bfba4146104cf57610246565b806323b872dd1161020e57806323b872dd1461034457806327de8f271461036d578063337f2847146103aa5780633511a529146103d357806342842e0e146103fe57610246565b806301ffc9a71461024b57806306fdde0314610288578063081812fc146102b35780630917e40d146102f0578063095ea7b31461031b575b600080fd5b34801561025757600080fd5b50610272600480360381019061026d9190613bc9565b6109ea565b60405161027f9190613c11565b60405180910390f35b34801561029457600080fd5b5061029d610acc565b6040516102aa9190613cc5565b60405180910390f35b3480156102bf57600080fd5b506102da60048036038101906102d59190613d1d565b610b5e565b6040516102e79190613d8b565b60405180910390f35b3480156102fc57600080fd5b50610305610be3565b6040516103129190613dc3565b60405180910390f35b34801561032757600080fd5b50610342600480360381019061033d9190613e0a565b610bf7565b005b34801561035057600080fd5b5061036b60048036038101906103669190613e4a565b610d0f565b005b34801561037957600080fd5b50610394600480360381019061038f9190613d1d565b610d6f565b6040516103a19190613eac565b60405180910390f35b3480156103b657600080fd5b506103d160048036038101906103cc9190613ec7565b610e2b565b005b3480156103df57600080fd5b506103e8610eec565b6040516103f59190613eac565b60405180910390f35b34801561040a57600080fd5b5061042560048036038101906104209190613e4a565b610ef2565b005b34801561043357600080fd5b5061044e60048036038101906104499190614216565b610f12565b005b34801561045c57600080fd5b50610465611413565b6040516104729190613dc3565b60405180910390f35b34801561048757600080fd5b50610490611427565b60405161049d9190613c11565b60405180910390f35b3480156104b257600080fd5b506104cd60048036038101906104c89190614335565b61143e565b005b6104e960048036038101906104e491906143a4565b611798565b005b3480156104f757600080fd5b50610512600480360381019061050d9190613d1d565b611d1a565b60405161051f9190613d8b565b60405180910390f35b34801561053457600080fd5b5061053d611dcc565b60405161054a9190613eac565b60405180910390f35b34801561055f57600080fd5b5061057a60048036038101906105759190613ec7565b611dd2565b6040516105879190613eac565b60405180910390f35b34801561059c57600080fd5b506105a5611e8a565b005b3480156105b357600080fd5b506105bc611f12565b6040516105c99190613eac565b60405180910390f35b3480156105de57600080fd5b506105f960048036038101906105f49190613ec7565b611f1c565b6040516106069190613c11565b60405180910390f35b34801561061b57600080fd5b50610624611fef565b6040516106319190613d8b565b60405180910390f35b34801561064657600080fd5b50610661600480360381019061065c91906143e4565b612019565b60405161066e9190613dc3565b60405180910390f35b34801561068357600080fd5b5061068c612061565b6040516106999190614483565b60405180910390f35b3480156106ae57600080fd5b506106c960048036038101906106c49190613d1d565b612088565b6040516106d69190614588565b60405180910390f35b3480156106eb57600080fd5b506106f461221e565b6040516107019190613cc5565b60405180910390f35b34801561071657600080fd5b50610731600480360381019061072c9190613d1d565b6122b0565b60405161073e9190613eac565b60405180910390f35b34801561075357600080fd5b5061076e600480360381019061076991906145a4565b6122c9565b005b34801561077c57600080fd5b5061079760048036038101906107929190613ec7565b6122df565b005b3480156107a557600080fd5b506107c060048036038101906107bb9190614699565b6123b7565b005b3480156107ce57600080fd5b506107d7612419565b6040516107e4919061473d565b60405180910390f35b3480156107f957600080fd5b50610814600480360381019061080f9190613d1d565b612440565b6040516108219190613cc5565b60405180910390f35b34801561083657600080fd5b5061083f612533565b60405161084c9190613dc3565b60405180910390f35b34801561086157600080fd5b5061087c60048036038101906108779190614791565b612547565b60405161088b939291906147f3565b60405180910390f35b3480156108a057600080fd5b506108bb60048036038101906108b69190613d1d565b612773565b6040516108d19a99989796959493929190614831565b60405180910390f35b3480156108e657600080fd5b506108ef612849565b6040516108fc91906148ee565b60405180910390f35b34801561091157600080fd5b5061091a612870565b6040516109279190613eac565b60405180910390f35b34801561093c57600080fd5b5061095760048036038101906109529190614909565b612876565b6040516109649190613c11565b60405180910390f35b34801561097957600080fd5b50610994600480360381019061098f9190613ec7565b61290a565b005b3480156109a257600080fd5b506109bd60048036038101906109b89190613ec7565b612a02565b005b3480156109cb57600080fd5b506109d4612ada565b6040516109e1919061496a565b60405180910390f35b60007f80ac58cd000000000000000000000000000000000000000000000000000000007bffffffffffffffffffffffffffffffffffffffffffffffffffffffff1916827bffffffffffffffffffffffffffffffffffffffffffffffffffffffff19161480610ab557507f5b5e139f000000000000000000000000000000000000000000000000000000007bffffffffffffffffffffffffffffffffffffffffffffffffffffffff1916827bffffffffffffffffffffffffffffffffffffffffffffffffffffffff1916145b80610ac55750610ac482612b01565b5b9050919050565b606060c98054610adb906149b4565b80601f0160208091040260200160405190810160405280929190818152602001828054610b07906149b4565b8015610b545780601f10610b2957610100808354040283529160200191610b54565b820191906000526020600020905b815481529060010190602001808311610b3757829003601f168201915b5050505050905090565b6000610b6982612b6b565b610ba8576040517f08c379a0000000000000000000000000000000000000000000000000000000008152600401610b9f90614a58565b60405180910390fd5b60cd600083815260200190815260200160002060009054906101000a900473ffffffffffffffffffffffffffffffffffffffff169050919050565b60fb60049054906101000a900461ffff1681565b6000610c0282611d1a565b90508073ffffffffffffffffffffffffffffffffffffffff168373ffffffffffffffffffffffffffffffffffffffff161415610c73576040517f08c379a0000000000000000000000000000000000000000000000000000000008152600401610c6a90614aea565b60405180910390fd5b8073ffffffffffffffffffffffffffffffffffffffff16610c92612bd7565b73ffffffffffffffffffffffffffffffffffffffff161480610cc15750610cc081610cbb612bd7565b612876565b5b610d00576040517f08c379a0000000000000000000000000000000000000000000000000000000008152600401610cf790614b7c565b60405180910390fd5b610d0a8383612bdf565b505050565b610d20610d1a612bd7565b82612c98565b610d5f576040517f08c379a0000000000000000000000000000000000000000000000000000000008152600401610d5690614c0e565b60405180910390fd5b610d6a838383612d76565b505050565b600060fe548211610d835760009050610e26565b6005600260fd54610d949190614c5d565b610d9e9190614ce6565b8211610db557683635c9adc5dea000009050610e26565b6005600360fd54610dc69190614c5d565b610dd09190614ce6565b8211610de757685150ae84a8cdf000009050610e26565b6005600460fd54610df89190614c5d565b610e029190614ce6565b8211610e1957686c6b935b8bbd4000009050610e26565b68a2a15d09519be0000090505b919050565b610e33612bd7565b73ffffffffffffffffffffffffffffffffffffffff16610e51611fef565b73ffffffffffffffffffffffffffffffffffffffff1614610ea7576040517f08c379a0000000000000000000000000000000000000000000000000000000008152600401610e9e90614d63565b60405180910390fd5b8061010760006101000a81548173ffffffffffffffffffffffffffffffffffffffff021916908373ffffffffffffffffffffffffffffffffffffffff16021790555050565b60fe5481565b610f0d838383604051806020016040528060008152506123b7565b505050565b61010460009054906101000a900473ffffffffffffffffffffffffffffffffffffffff1673ffffffffffffffffffffffffffffffffffffffff163373ffffffffffffffffffffffffffffffffffffffff1614610fa3576040517f08c379a0000000000000000000000000000000000000000000000000000000008152600401610f9a90614dcf565b60405180910390fd5b60006101026000846000015181526020019081526020016000208054905011611001576040517f08c379a0000000000000000000000000000000000000000000000000000000008152600401610ff890614e3b565b60405180910390fd5b600061010260008460000151815260200190815260200160002080548060200260200160405190810160405280929190818152602001828054801561108d57602002820191906000526020600020906000905b82829054906101000a900461ffff1661ffff16815260200190600201906020826001010492830192600103820291508084116110545790505b5050505050905061010260008460000151815260200190815260200160002060006110b89190613978565b60005b815181101561136e5761112384606001516110da5784602001516110ff565b61010760009054906101000a900473ffffffffffffffffffffffffffffffffffffffff165b83838151811061111257611111614e5b565b5b602002602001015161ffff16612fd2565b82818151811061113657611135614e5b565b5b602002602001015160ff600084848151811061115557611154614e5b565b5b602002602001015161ffff16815260200190815260200160002060008201518160000160006101000a81548160ff02191690831515021790555060208201518160000160016101000a81548160ff021916908360ff16021790555060408201518160000160026101000a81548160ff021916908360ff16021790555060608201518160000160036101000a81548160ff021916908360ff16021790555060808201518160000160046101000a81548160ff021916908360ff16021790555060a08201518160000160056101000a81548160ff021916908360ff16021790555060c08201518160000160066101000a81548160ff021916908360ff16021790555060e08201518160000160076101000a81548160ff021916908360ff1602179055506101008201518160000160086101000a81548160ff021916908360ff1602179055506101208201518160000160096101000a81548160ff021916908360ff1602179055509050508281815181106112d0576112cf614e5b565b5b60200260200101516000015161131f5760fb600481819054906101000a900461ffff168092919061130090614e8a565b91906101000a81548161ffff021916908361ffff16021790555061135a565b60fb600281819054906101000a900461ffff168092919061133f90614e8a565b91906101000a81548161ffff021916908361ffff1602179055505b50808061136690614eb5565b9150506110bb565b5082606001511561140e5761010760009054906101000a900473ffffffffffffffffffffffffffffffffffffffff1673ffffffffffffffffffffffffffffffffffffffff1663dbdc1f6b8460200151836040518363ffffffff1660e01b81526004016113db929190614fbc565b600060405180830381600087803b1580156113f557600080fd5b505af1158015611409573d6000803e3d6000fd5b505050505b505050565b60fb60009054906101000a900461ffff1681565b6000606560009054906101000a900460ff16905090565b600060019054906101000a900460ff166114665760008054906101000a900460ff161561146f565b61146e612ff0565b5b6114ae576040517f08c379a00000000000000000000000000000000000000000000000000000000081526004016114a59061505e565b60405180910390fd5b60008060019054906101000a900460ff1615905080156114fe576001600060016101000a81548160ff02191690831515021790555060016000806101000a81548160ff0219169083151502179055505b611506613001565b61150e613062565b6115826040518060400160405280601381526020017f526174416c6572742043686172616374657273000000000000000000000000008152506040518060400160405280600781526020017f52415443415354000000000000000000000000000000000000000000000000008152506130c3565b8360008151811061159657611595614e5b565b5b602002602001015161010360006101000a81548173ffffffffffffffffffffffffffffffffffffffff021916908373ffffffffffffffffffffffffffffffffffffffff160217905550836001815181106115f3576115f2614e5b565b5b602002602001015161010460006101000a81548173ffffffffffffffffffffffffffffffffffffffff021916908373ffffffffffffffffffffffffffffffffffffffff160217905550836002815181106116505761164f614e5b565b5b602002602001015161010560006101000a81548173ffffffffffffffffffffffffffffffffffffffff021916908373ffffffffffffffffffffffffffffffffffffffff160217905550836003815181106116ad576116ac614e5b565b5b602002602001015161010660006101000a81548173ffffffffffffffffffffffffffffffffffffffff021916908373ffffffffffffffffffffffffffffffffffffffff1602179055508260fd8190555060058361170a9190614ce6565b60fe819055508160fc81905550600060fb60006101000a81548161ffff021916908361ffff160217905550600060fb60026101000a81548161ffff021916908361ffff160217905550600060fb60046101000a81548161ffff021916908361ffff16021790555080156117925760008060016101000a81548160ff0219169083151502179055505b50505050565b6117a0611427565b156117e0576040517f08c379a00000000000000000000000000000000000000000000000000000000081526004016117d7906150ca565b60405180910390fd5b6117e8612bd7565b73ffffffffffffffffffffffffffffffffffffffff163273ffffffffffffffffffffffffffffffffffffffff1614611855576040517f08c379a000000000000000000000000000000000000000000000000000000000815260040161184c90615136565b60405180910390fd5b60008260ff1611801561186c5750600a8260ff1611155b6118ab576040517f08c379a00000000000000000000000000000000000000000000000000000000081526004016118a2906151a2565b60405180910390fd5b60fd548260ff1660fb60009054906101000a900461ffff166118cd91906151c2565b61ffff161115611912576040517f08c379a000000000000000000000000000000000000000000000000000000000815260040161190990615246565b60405180910390fd5b600060fe5460fb60009054906101000a900461ffff1661ffff1610156119f05760fe548360ff1660fb60009054906101000a900461ffff1661195491906151c2565b61ffff161115611999576040517f08c379a0000000000000000000000000000000000000000000000000000000008152600401611990906152d8565b60405180910390fd5b3460fc548460ff166119ab9190614c5d565b146119eb576040517f08c379a00000000000000000000000000000000000000000000000000000000081526004016119e290615344565b60405180910390fd5b611a8e565b60003414611a33576040517f08c379a0000000000000000000000000000000000000000000000000000000008152600401611a2a906153d6565b60405180910390fd5b6000600190505b8360ff168111611a8c57611a6c8160fb60009054906101000a900461ffff1661ffff16611a6791906153f6565b610d6f565b82611a7791906153f6565b91508080611a8490614eb5565b915050611a3a565b505b6000811115611b2f5761010360009054906101000a900473ffffffffffffffffffffffffffffffffffffffff1673ffffffffffffffffffffffffffffffffffffffff16639dc29fac611ade612bd7565b836040518363ffffffff1660e01b8152600401611afc92919061544c565b600060405180830381600087803b158015611b1657600080fd5b505af1158015611b2a573d6000803e3d6000fd5b505050505b600061010460009054906101000a900473ffffffffffffffffffffffffffffffffffffffff1673ffffffffffffffffffffffffffffffffffffffff1663d4c82c60611b78612bd7565b86866040518463ffffffff1660e01b8152600401611b9893929190615475565b6020604051808303816000875af1158015611bb7573d6000803e3d6000fd5b505050506040513d601f19601f82011682018060405250810190611bdb91906154c1565b90508360ff1667ffffffffffffffff811115611bfa57611bf9613ef9565b5b604051908082528060200260200182016040528015611c285781602001602082028036833780820191505090505b5061010260008381526020019081526020016000209080519060200190611c509291906139a0565b5060005b8460ff16811015611d135760fb600081819054906101000a900461ffff1680929190611c7f90614e8a565b91906101000a81548161ffff021916908361ffff1602179055505060fb60009054906101000a900461ffff1661010260008481526020019081526020016000208281548110611cd157611cd0614e5b565b5b90600052602060002090601091828204019190066002026101000a81548161ffff021916908361ffff1602179055508080611d0b90614eb5565b915050611c54565b5050505050565b60008060cb600084815260200190815260200160002060009054906101000a900473ffffffffffffffffffffffffffffffffffffffff169050600073ffffffffffffffffffffffffffffffffffffffff168173ffffffffffffffffffffffffffffffffffffffff161415611dc3576040517f08c379a0000000000000000000000000000000000000000000000000000000008152600401611dba90615560565b60405180910390fd5b80915050919050565b60fc5481565b60008073ffffffffffffffffffffffffffffffffffffffff168273ffffffffffffffffffffffffffffffffffffffff161415611e43576040517f08c379a0000000000000000000000000000000000000000000000000000000008152600401611e3a906155f2565b60405180910390fd5b60cc60008373ffffffffffffffffffffffffffffffffffffffff1673ffffffffffffffffffffffffffffffffffffffff168152602001908152602001600020549050919050565b611e92612bd7565b73ffffffffffffffffffffffffffffffffffffffff16611eb0611fef565b73ffffffffffffffffffffffffffffffffffffffff1614611f06576040517f08c379a0000000000000000000000000000000000000000000000000000000008152600401611efd90614d63565b60405180910390fd5b611f106000613130565b565b600060fe54905090565b6000611f26612bd7565b73ffffffffffffffffffffffffffffffffffffffff16611f44611fef565b73ffffffffffffffffffffffffffffffffffffffff1614611f9a576040517f08c379a0000000000000000000000000000000000000000000000000000000008152600401611f9190614d63565b60405180910390fd5b61010160008373ffffffffffffffffffffffffffffffffffffffff1673ffffffffffffffffffffffffffffffffffffffff16815260200190815260200160002060009054906101000a900460ff169050919050565b6000603360009054906101000a900473ffffffffffffffffffffffffffffffffffffffff16905090565b610102602052816000526040600020818154811061203657600080fd5b9060005260206000209060109182820401919006600202915091509054906101000a900461ffff1681565b61010460009054906101000a900473ffffffffffffffffffffffffffffffffffffffff1681565b612090613a4a565b61209982612b6b565b6120d8576040517f08c379a00000000000000000000000000000000000000000000000000000000081526004016120cf90615684565b60405180910390fd5b60ff6000838152602001908152602001600020604051806101400160405290816000820160009054906101000a900460ff161515151581526020016000820160019054906101000a900460ff1660ff1660ff1681526020016000820160029054906101000a900460ff1660ff1660ff1681526020016000820160039054906101000a900460ff1660ff1660ff1681526020016000820160049054906101000a900460ff1660ff1660ff1681526020016000820160059054906101000a900460ff1660ff1660ff1681526020016000820160069054906101000a900460ff1660ff1660ff1681526020016000820160079054906101000a900460ff1660ff1660ff1681526020016000820160089054906101000a900460ff1660ff1660ff1681526020016000820160099054906101000a900460ff1660ff1660ff16815250509050919050565b606060ca805461222d906149b4565b80601f0160208091040260200160405190810160405280929190818152602001828054612259906149b4565b80156122a65780601f1061227b576101008083540402835291602001916122a6565b820191906000526020600020905b81548152906001019060200180831161228957829003601f168201915b5050505050905090565b6101006020528060005260406000206000915090505481565b6122db6122d4612bd7565b83836131f6565b5050565b6122e7612bd7565b73ffffffffffffffffffffffffffffffffffffffff16612305611fef565b73ffffffffffffffffffffffffffffffffffffffff161461235b576040517f08c379a000000000000000000000000000000000000000000000000000000000815260040161235290614d63565b60405180910390fd5b600161010160008373ffffffffffffffffffffffffffffffffffffffff1673ffffffffffffffffffffffffffffffffffffffff16815260200190815260200160002060006101000a81548160ff02191690831515021790555050565b6123c86123c2612bd7565b83612c98565b612407576040517f08c379a00000000000000000000000000000000000000000000000000000000081526004016123fe90614c0e565b60405180910390fd5b61241384848484613363565b50505050565b61010760009054906101000a900473ffffffffffffffffffffffffffffffffffffffff1681565b606061244b82612b6b565b61248a576040517f08c379a000000000000000000000000000000000000000000000000000000000815260040161248190615684565b60405180910390fd5b61010560009054906101000a900473ffffffffffffffffffffffffffffffffffffffff1673ffffffffffffffffffffffffffffffffffffffff1663c87b56dd836040518263ffffffff1660e01b81526004016124e69190613eac565b600060405180830381865afa158015612503573d6000803e3d6000fd5b505050506040513d6000823e3d601f19601f8201168201806040525081019061252c9190615745565b9050919050565b60fb60029054906101000a900461ffff1681565b600080606061010160003373ffffffffffffffffffffffffffffffffffffffff1673ffffffffffffffffffffffffffffffffffffffff16815260200190815260200160002060009054906101000a900460ff166125d9576040517f08c379a00000000000000000000000000000000000000000000000000000000081526004016125d0906157da565b60405180910390fd5b600060ff600088815260200190815260200160002060000160009054906101000a900460ff169050600060ff600089815260200190815260200160002060000160089054906101000a900460ff169050600060ff60008a815260200190815260200160002060000160099054906101000a900460ff16905061010660009054906101000a900473ffffffffffffffffffffffffffffffffffffffff1673ffffffffffffffffffffffffffffffffffffffff1663e90bd2578484848c8c6040518663ffffffff1660e01b81526004016126b5959493929190615809565b6000604051808303816000875af11580156126d4573d6000803e3d6000fd5b505050506040513d6000823e3d601f19601f820116820180604052508101906126fd9190615871565b8096508197508298505050508560ff60008b815260200190815260200160002060000160086101000a81548160ff021916908360ff1602179055508460ff60008b815260200190815260200160002060000160096101000a81548160ff021916908360ff16021790555050505093509350939050565b60ff6020528060005260406000206000915090508060000160009054906101000a900460ff16908060000160019054906101000a900460ff16908060000160029054906101000a900460ff16908060000160039054906101000a900460ff16908060000160049054906101000a900460ff16908060000160059054906101000a900460ff16908060000160069054906101000a900460ff16908060000160079054906101000a900460ff16908060000160089054906101000a900460ff16908060000160099054906101000a900460ff1690508a565b61010560009054906101000a900473ffffffffffffffffffffffffffffffffffffffff1681565b60fd5481565b600060ce60008473ffffffffffffffffffffffffffffffffffffffff1673ffffffffffffffffffffffffffffffffffffffff16815260200190815260200160002060008373ffffffffffffffffffffffffffffffffffffffff1673ffffffffffffffffffffffffffffffffffffffff16815260200190815260200160002060009054906101000a900460ff16905092915050565b612912612bd7565b73ffffffffffffffffffffffffffffffffffffffff16612930611fef565b73ffffffffffffffffffffffffffffffffffffffff1614612986576040517f08c379a000000000000000000000000000000000000000000000000000000000815260040161297d90614d63565b60405180910390fd5b600073ffffffffffffffffffffffffffffffffffffffff168173ffffffffffffffffffffffffffffffffffffffff1614156129f6576040517f08c379a00000000000000000000000000000000000000000000000000000000081526004016129ed90615952565b60405180910390fd5b6129ff81613130565b50565b612a0a612bd7565b73ffffffffffffffffffffffffffffffffffffffff16612a28611fef565b73ffffffffffffffffffffffffffffffffffffffff1614612a7e576040517f08c379a0000000000000000000000000000000000000000000000000000000008152600401612a7590614d63565b60405180910390fd5b600061010160008373ffffffffffffffffffffffffffffffffffffffff1673ffffffffffffffffffffffffffffffffffffffff16815260200190815260200160002060006101000a81548160ff02191690831515021790555050565b61010660009054906101000a900473ffffffffffffffffffffffffffffffffffffffff1681565b60007f01ffc9a7000000000000000000000000000000000000000000000000000000007bffffffffffffffffffffffffffffffffffffffffffffffffffffffff1916827bffffffffffffffffffffffffffffffffffffffffffffffffffffffff1916149050919050565b60008073ffffffffffffffffffffffffffffffffffffffff1660cb600084815260200190815260200160002060009054906101000a900473ffffffffffffffffffffffffffffffffffffffff1673ffffffffffffffffffffffffffffffffffffffff1614159050919050565b600033905090565b8160cd600083815260200190815260200160002060006101000a81548173ffffffffffffffffffffffffffffffffffffffff021916908373ffffffffffffffffffffffffffffffffffffffff160217905550808273ffffffffffffffffffffffffffffffffffffffff16612c5283611d1a565b73ffffffffffffffffffffffffffffffffffffffff167f8c5be1e5ebec7d5bd14f71427d1e84f3dd0314c0f7b2291e5b200ac8c7c3b92560405160405180910390a45050565b6000612ca382612b6b565b612ce2576040517f08c379a0000000000000000000000000000000000000000000000000000000008152600401612cd9906159e4565b60405180910390fd5b6000612ced83611d1a565b90508073ffffffffffffffffffffffffffffffffffffffff168473ffffffffffffffffffffffffffffffffffffffff161480612d5c57508373ffffffffffffffffffffffffffffffffffffffff16612d4484610b5e565b73ffffffffffffffffffffffffffffffffffffffff16145b80612d6d5750612d6c8185612876565b5b91505092915050565b8273ffffffffffffffffffffffffffffffffffffffff16612d9682611d1a565b73ffffffffffffffffffffffffffffffffffffffff1614612dec576040517f08c379a0000000000000000000000000000000000000000000000000000000008152600401612de390615a76565b60405180910390fd5b600073ffffffffffffffffffffffffffffffffffffffff168273ffffffffffffffffffffffffffffffffffffffff161415612e5c576040517f08c379a0000000000000000000000000000000000000000000000000000000008152600401612e5390615b08565b60405180910390fd5b612e678383836133bf565b612e72600082612bdf565b600160cc60008573ffffffffffffffffffffffffffffffffffffffff1673ffffffffffffffffffffffffffffffffffffffff1681526020019081526020016000206000828254612ec29190615b28565b92505081905550600160cc60008473ffffffffffffffffffffffffffffffffffffffff1673ffffffffffffffffffffffffffffffffffffffff1681526020019081526020016000206000828254612f1991906153f6565b925050819055508160cb600083815260200190815260200160002060006101000a81548173ffffffffffffffffffffffffffffffffffffffff021916908373ffffffffffffffffffffffffffffffffffffffff160217905550808273ffffffffffffffffffffffffffffffffffffffff168473ffffffffffffffffffffffffffffffffffffffff167fddf252ad1be2c89b69c2b068fc378daa952ba7f163c4a11628f55a4df523b3ef60405160405180910390a4505050565b612fec8282604051806020016040528060008152506133c4565b5050565b6000612ffb3061341f565b15905090565b600060019054906101000a900460ff16613050576040517f08c379a000000000000000000000000000000000000000000000000000000000815260040161304790615bce565b60405180910390fd5b613058613432565b613060613483565b565b600060019054906101000a900460ff166130b1576040517f08c379a00000000000000000000000000000000000000000000000000000000081526004016130a890615bce565b60405180910390fd5b6130b9613432565b6130c16134e4565b565b600060019054906101000a900460ff16613112576040517f08c379a000000000000000000000000000000000000000000000000000000000815260040161310990615bce565b60405180910390fd5b61311a613432565b613122613550565b61312c82826135a1565b5050565b6000603360009054906101000a900473ffffffffffffffffffffffffffffffffffffffff16905081603360006101000a81548173ffffffffffffffffffffffffffffffffffffffff021916908373ffffffffffffffffffffffffffffffffffffffff1602179055508173ffffffffffffffffffffffffffffffffffffffff168173ffffffffffffffffffffffffffffffffffffffff167f8be0079c531659141344cd1fd0a4f28419497f9722a3daafe3b4186f6b6457e060405160405180910390a35050565b8173ffffffffffffffffffffffffffffffffffffffff168373ffffffffffffffffffffffffffffffffffffffff161415613265576040517f08c379a000000000000000000000000000000000000000000000000000000000815260040161325c90615c3a565b60405180910390fd5b8060ce60008573ffffffffffffffffffffffffffffffffffffffff1673ffffffffffffffffffffffffffffffffffffffff16815260200190815260200160002060008473ffffffffffffffffffffffffffffffffffffffff1673ffffffffffffffffffffffffffffffffffffffff16815260200190815260200160002060006101000a81548160ff0219169083151502179055508173ffffffffffffffffffffffffffffffffffffffff168373ffffffffffffffffffffffffffffffffffffffff167f17307eab39ab6107e8899845ad3d59bd9653f200f220920489ca2b5937696c31836040516133569190613c11565b60405180910390a3505050565b61336e848484612d76565b61337a84848484613622565b6133b9576040517f08c379a00000000000000000000000000000000000000000000000000000000081526004016133b090615ccc565b60405180910390fd5b50505050565b505050565b6133ce83836137aa565b6133db6000848484613622565b61341a576040517f08c379a000000000000000000000000000000000000000000000000000000000815260040161341190615ccc565b60405180910390fd5b505050565b600080823b905060008111915050919050565b600060019054906101000a900460ff16613481576040517f08c379a000000000000000000000000000000000000000000000000000000000815260040161347890615bce565b60405180910390fd5b565b600060019054906101000a900460ff166134d2576040517f08c379a00000000000000000000000000000000000000000000000000000000081526004016134c990615bce565b60405180910390fd5b6134e26134dd612bd7565b613130565b565b600060019054906101000a900460ff16613533576040517f08c379a000000000000000000000000000000000000000000000000000000000815260040161352a90615bce565b60405180910390fd5b6000606560006101000a81548160ff021916908315150217905550565b600060019054906101000a900460ff1661359f576040517f08c379a000000000000000000000000000000000000000000000000000000000815260040161359690615bce565b60405180910390fd5b565b600060019054906101000a900460ff166135f0576040517f08c379a00000000000000000000000000000000000000000000000000000000081526004016135e790615bce565b60405180910390fd5b8160c99080519060200190613606929190613aba565b508060ca908051906020019061361d929190613aba565b505050565b60006136438473ffffffffffffffffffffffffffffffffffffffff1661341f565b1561379d578373ffffffffffffffffffffffffffffffffffffffff1663150b7a0261366c612bd7565b8786866040518563ffffffff1660e01b815260040161368e9493929190615d41565b6020604051808303816000875af19250505080156136ca57506040513d601f19601f820116820180604052508101906136c79190615da2565b60015b61374d573d80600081146136fa576040519150601f19603f3d011682016040523d82523d6000602084013e6136ff565b606091505b50600081511415613745576040517f08c379a000000000000000000000000000000000000000000000000000000000815260040161373c90615ccc565b60405180910390fd5b805181602001fd5b63150b7a0260e01b7bffffffffffffffffffffffffffffffffffffffffffffffffffffffff1916817bffffffffffffffffffffffffffffffffffffffffffffffffffffffff1916149150506137a2565b600190505b949350505050565b600073ffffffffffffffffffffffffffffffffffffffff168273ffffffffffffffffffffffffffffffffffffffff16141561381a576040517f08c379a000000000000000000000000000000000000000000000000000000000815260040161381190615e1b565b60405180910390fd5b61382381612b6b565b15613863576040517f08c379a000000000000000000000000000000000000000000000000000000000815260040161385a90615e87565b60405180910390fd5b61386f600083836133bf565b600160cc60008473ffffffffffffffffffffffffffffffffffffffff1673ffffffffffffffffffffffffffffffffffffffff16815260200190815260200160002060008282546138bf91906153f6565b925050819055508160cb600083815260200190815260200160002060006101000a81548173ffffffffffffffffffffffffffffffffffffffff021916908373ffffffffffffffffffffffffffffffffffffffff160217905550808273ffffffffffffffffffffffffffffffffffffffff16600073ffffffffffffffffffffffffffffffffffffffff167fddf252ad1be2c89b69c2b068fc378daa952ba7f163c4a11628f55a4df523b3ef60405160405180910390a45050565b50805460008255600f01601090049060005260206000209081019061399d9190613b40565b50565b82805482825590600052602060002090600f01601090048101928215613a395791602002820160005b83821115613a0957835183826101000a81548161ffff021916908361ffff16021790555092602001926002016020816001010492830192600103026139c9565b8015613a375782816101000a81549061ffff0219169055600201602081600101049283019260010302613a09565b505b509050613a469190613b40565b5090565b604051806101400160405280600015158152602001600060ff168152602001600060ff168152602001600060ff168152602001600060ff168152602001600060ff168152602001600060ff168152602001600060ff168152602001600060ff168152602001600060ff1681525090565b828054613ac6906149b4565b90600052602060002090601f016020900481019282613ae85760008555613b2f565b82601f10613b0157805160ff1916838001178555613b2f565b82800160010185558215613b2f579182015b82811115613b2e578251825591602001919060010190613b13565b5b509050613b3c9190613b40565b5090565b5b80821115613b59576000816000905550600101613b41565b5090565b6000604051905090565b600080fd5b600080fd5b60007fffffffff0000000000000000000000000000000000000000000000000000000082169050919050565b613ba681613b71565b8114613bb157600080fd5b50565b600081359050613bc381613b9d565b92915050565b600060208284031215613bdf57613bde613b67565b5b6000613bed84828501613bb4565b91505092915050565b60008115159050919050565b613c0b81613bf6565b82525050565b6000602082019050613c266000830184613c02565b92915050565b600081519050919050565b600082825260208201905092915050565b60005b83811015613c66578082015181840152602081019050613c4b565b83811115613c75576000848401525b50505050565b6000601f19601f8301169050919050565b6000613c9782613c2c565b613ca18185613c37565b9350613cb1818560208601613c48565b613cba81613c7b565b840191505092915050565b60006020820190508181036000830152613cdf8184613c8c565b905092915050565b6000819050919050565b613cfa81613ce7565b8114613d0557600080fd5b50565b600081359050613d1781613cf1565b92915050565b600060208284031215613d3357613d32613b67565b5b6000613d4184828501613d08565b91505092915050565b600073ffffffffffffffffffffffffffffffffffffffff82169050919050565b6000613d7582613d4a565b9050919050565b613d8581613d6a565b82525050565b6000602082019050613da06000830184613d7c565b92915050565b600061ffff82169050919050565b613dbd81613da6565b82525050565b6000602082019050613dd86000830184613db4565b92915050565b613de781613d6a565b8114613df257600080fd5b50565b600081359050613e0481613dde565b92915050565b60008060408385031215613e2157613e20613b67565b5b6000613e2f85828601613df5565b9250506020613e4085828601613d08565b9150509250929050565b600080600060608486031215613e6357613e62613b67565b5b6000613e7186828701613df5565b9350506020613e8286828701613df5565b9250506040613e9386828701613d08565b9150509250925092565b613ea681613ce7565b82525050565b6000602082019050613ec16000830184613e9d565b92915050565b600060208284031215613edd57613edc613b67565b5b6000613eeb84828501613df5565b91505092915050565b600080fd5b7f4e487b7100000000000000000000000000000000000000000000000000000000600052604160045260246000fd5b613f3182613c7b565b810181811067ffffffffffffffff82111715613f5057613f4f613ef9565b5b80604052505050565b6000613f63613b5d565b9050613f6f8282613f28565b919050565b600060ff82169050919050565b613f8a81613f74565b8114613f9557600080fd5b50565b600081359050613fa781613f81565b92915050565b613fb681613bf6565b8114613fc157600080fd5b50565b600081359050613fd381613fad565b92915050565b600060808284031215613fef57613fee613ef4565b5b613ff96080613f59565b9050600061400984828501613d08565b600083015250602061401d84828501613df5565b602083015250604061403184828501613f98565b604083015250606061404584828501613fc4565b60608301525092915050565b600080fd5b600067ffffffffffffffff82111561407157614070613ef9565b5b602082029050602081019050919050565b600080fd5b6000610140828403121561409e5761409d613ef4565b5b6140a9610140613f59565b905060006140b984828501613fc4565b60008301525060206140cd84828501613f98565b60208301525060406140e184828501613f98565b60408301525060606140f584828501613f98565b606083015250608061410984828501613f98565b60808301525060a061411d84828501613f98565b60a08301525060c061413184828501613f98565b60c08301525060e061414584828501613f98565b60e08301525061010061415a84828501613f98565b6101008301525061012061417084828501613f98565b6101208301525092915050565b600061419061418b84614056565b613f59565b90508083825260208201905061014084028301858111156141b4576141b3614082565b5b835b818110156141de57806141c98882614087565b845260208401935050610140810190506141b6565b5050509392505050565b600082601f8301126141fd576141fc614051565b5b813561420d84826020860161417d565b91505092915050565b60008060a0838503121561422d5761422c613b67565b5b600061423b85828601613fd9565b925050608083013567ffffffffffffffff81111561425c5761425b613b6c565b5b614268858286016141e8565b9150509250929050565b600067ffffffffffffffff82111561428d5761428c613ef9565b5b602082029050602081019050919050565b60006142b16142ac84614272565b613f59565b905080838252602082019050602084028301858111156142d4576142d3614082565b5b835b818110156142fd57806142e98882613df5565b8452602084019350506020810190506142d6565b5050509392505050565b600082601f83011261431c5761431b614051565b5b813561432c84826020860161429e565b91505092915050565b60008060006060848603121561434e5761434d613b67565b5b600084013567ffffffffffffffff81111561436c5761436b613b6c565b5b61437886828701614307565b935050602061438986828701613d08565b925050604061439a86828701613d08565b9150509250925092565b600080604083850312156143bb576143ba613b67565b5b60006143c985828601613f98565b92505060206143da85828601613fc4565b9150509250929050565b600080604083850312156143fb576143fa613b67565b5b600061440985828601613d08565b925050602061441a85828601613d08565b9150509250929050565b6000819050919050565b600061444961444461443f84613d4a565b614424565b613d4a565b9050919050565b600061445b8261442e565b9050919050565b600061446d82614450565b9050919050565b61447d81614462565b82525050565b60006020820190506144986000830184614474565b92915050565b6144a781613bf6565b82525050565b6144b681613f74565b82525050565b610140820160008201516144d3600085018261449e565b5060208201516144e660208501826144ad565b5060408201516144f960408501826144ad565b50606082015161450c60608501826144ad565b50608082015161451f60808501826144ad565b5060a082015161453260a08501826144ad565b5060c082015161454560c08501826144ad565b5060e082015161455860e08501826144ad565b5061010082015161456d6101008501826144ad565b506101208201516145826101208501826144ad565b50505050565b60006101408201905061459e60008301846144bc565b92915050565b600080604083850312156145bb576145ba613b67565b5b60006145c985828601613df5565b92505060206145da85828601613fc4565b9150509250929050565b600080fd5b600067ffffffffffffffff82111561460457614603613ef9565b5b61460d82613c7b565b9050602081019050919050565b82818337600083830152505050565b600061463c614637846145e9565b613f59565b905082815260208101848484011115614658576146576145e4565b5b61466384828561461a565b509392505050565b600082601f8301126146805761467f614051565b5b8135614690848260208601614629565b91505092915050565b600080600080608085870312156146b3576146b2613b67565b5b60006146c187828801613df5565b94505060206146d287828801613df5565b93505060406146e387828801613d08565b925050606085013567ffffffffffffffff81111561470457614703613b6c565b5b6147108782880161466b565b91505092959194509250565b600061472782614450565b9050919050565b6147378161471c565b82525050565b6000602082019050614752600083018461472e565b92915050565b60008160000b9050919050565b61476e81614758565b811461477957600080fd5b50565b60008135905061478b81614765565b92915050565b6000806000606084860312156147aa576147a9613b67565b5b60006147b886828701613d08565b93505060206147c98682870161477c565b92505060406147da8682870161477c565b9150509250925092565b6147ed81613f74565b82525050565b600060608201905061480860008301866147e4565b61481560208301856147e4565b81810360408301526148278184613c8c565b9050949350505050565b600061014082019050614847600083018d613c02565b614854602083018c6147e4565b614861604083018b6147e4565b61486e606083018a6147e4565b61487b60808301896147e4565b61488860a08301886147e4565b61489560c08301876147e4565b6148a260e08301866147e4565b6148b06101008301856147e4565b6148be6101208301846147e4565b9b9a5050505050505050505050565b60006148d882614450565b9050919050565b6148e8816148cd565b82525050565b600060208201905061490360008301846148df565b92915050565b600080604083850312156149205761491f613b67565b5b600061492e85828601613df5565b925050602061493f85828601613df5565b9150509250929050565b600061495482614450565b9050919050565b61496481614949565b82525050565b600060208201905061497f600083018461495b565b92915050565b7f4e487b7100000000000000000000000000000000000000000000000000000000600052602260045260246000fd5b600060028204905060018216806149cc57607f821691505b602082108114156149e0576149df614985565b5b50919050565b7f4552433732313a20617070726f76656420717565727920666f72206e6f6e657860008201527f697374656e7420746f6b656e0000000000000000000000000000000000000000602082015250565b6000614a42602c83613c37565b9150614a4d826149e6565b604082019050919050565b60006020820190508181036000830152614a7181614a35565b9050919050565b7f4552433732313a20617070726f76616c20746f2063757272656e74206f776e6560008201527f7200000000000000000000000000000000000000000000000000000000000000602082015250565b6000614ad4602183613c37565b9150614adf82614a78565b604082019050919050565b60006020820190508181036000830152614b0381614ac7565b9050919050565b7f4552433732313a20617070726f76652063616c6c6572206973206e6f74206f7760008201527f6e6572206e6f7220617070726f76656420666f7220616c6c0000000000000000602082015250565b6000614b66603883613c37565b9150614b7182614b0a565b604082019050919050565b60006020820190508181036000830152614b9581614b59565b9050919050565b7f4552433732313a207472616e736665722063616c6c6572206973206e6f74206f60008201527f776e6572206e6f7220617070726f766564000000000000000000000000000000602082015250565b6000614bf8603183613c37565b9150614c0382614b9c565b604082019050919050565b60006020820190508181036000830152614c2781614beb565b9050919050565b7f4e487b7100000000000000000000000000000000000000000000000000000000600052601160045260246000fd5b6000614c6882613ce7565b9150614c7383613ce7565b9250817fffffffffffffffffffffffffffffffffffffffffffffffffffffffffffffffff0483118215151615614cac57614cab614c2e565b5b828202905092915050565b7f4e487b7100000000000000000000000000000000000000000000000000000000600052601260045260246000fd5b6000614cf182613ce7565b9150614cfc83613ce7565b925082614d0c57614d0b614cb7565b5b828204905092915050565b7f4f776e61626c653a2063616c6c6572206973206e6f7420746865206f776e6572600082015250565b6000614d4d602083613c37565b9150614d5882614d17565b602082019050919050565b60006020820190508181036000830152614d7c81614d40565b9050919050565b7f4f6e6c7920746865204d696e742063616e2066756c66696c6c00000000000000600082015250565b6000614db9601983613c37565b9150614dc482614d83565b602082019050919050565b60006020820190508181036000830152614de881614dac565b9050919050565b7f4d696e742072657175657374206e6f7420666f756e6400000000000000000000600082015250565b6000614e25601683613c37565b9150614e3082614def565b602082019050919050565b60006020820190508181036000830152614e5481614e18565b9050919050565b7f4e487b7100000000000000000000000000000000000000000000000000000000600052603260045260246000fd5b6000614e9582613da6565b915061ffff821415614eaa57614ea9614c2e565b5b600182019050919050565b6000614ec082613ce7565b91507fffffffffffffffffffffffffffffffffffffffffffffffffffffffffffffffff821415614ef357614ef2614c2e565b5b600182019050919050565b600081519050919050565b600082825260208201905092915050565b6000819050602082019050919050565b614f3381613da6565b82525050565b6000614f458383614f2a565b60208301905092915050565b6000602082019050919050565b6000614f6982614efe565b614f738185614f09565b9350614f7e83614f1a565b8060005b83811015614faf578151614f968882614f39565b9750614fa183614f51565b925050600181019050614f82565b5085935050505092915050565b6000604082019050614fd16000830185613d7c565b8181036020830152614fe38184614f5e565b90509392505050565b7f496e697469616c697a61626c653a20636f6e747261637420697320616c72656160008201527f647920696e697469616c697a6564000000000000000000000000000000000000602082015250565b6000615048602e83613c37565b915061505382614fec565b604082019050919050565b600060208201905081810360008301526150778161503b565b9050919050565b7f5061757361626c653a2070617573656400000000000000000000000000000000600082015250565b60006150b4601083613c37565b91506150bf8261507e565b602082019050919050565b600060208201905081810360008301526150e3816150a7565b9050919050565b7f454f41206f6e6c79000000000000000000000000000000000000000000000000600082015250565b6000615120600883613c37565b915061512b826150ea565b602082019050919050565b6000602082019050818103600083015261514f81615113565b9050919050565b7f496e76616c6964206d696e7420616d6f756e7400000000000000000000000000600082015250565b600061518c601383613c37565b915061519782615156565b602082019050919050565b600060208201905081810360008301526151bb8161517f565b9050919050565b60006151cd82613da6565b91506151d883613da6565b92508261ffff038211156151ef576151ee614c2e565b5b828201905092915050565b7f416c6c20746f6b656e73206d696e746564000000000000000000000000000000600082015250565b6000615230601183613c37565b915061523b826151fa565b602082019050919050565b6000602082019050818103600083015261525f81615223565b9050919050565b7f4e6f7420656e6f7567682047656e203020746f6b656e73206c6566742c20726560008201527f6475636520616d6f756e74000000000000000000000000000000000000000000602082015250565b60006152c2602b83613c37565b91506152cd82615266565b604082019050919050565b600060208201905081810360008301526152f1816152b5565b9050919050565b7f496e76616c6964207061796d656e7420616d6f756e7400000000000000000000600082015250565b600061532e601683613c37565b9150615339826152f8565b602082019050919050565b6000602082019050818103600083015261535d81615321565b9050919050565b7f496e76616c6964207061796d656e7420747970652c20616363657074696e672060008201527f666f6f6420746f6b656e73206f6e6c7900000000000000000000000000000000602082015250565b60006153c0603083613c37565b91506153cb82615364565b604082019050919050565b600060208201905081810360008301526153ef816153b3565b9050919050565b600061540182613ce7565b915061540c83613ce7565b9250827fffffffffffffffffffffffffffffffffffffffffffffffffffffffffffffffff0382111561544157615440614c2e565b5b828201905092915050565b60006040820190506154616000830185613d7c565b61546e6020830184613e9d565b9392505050565b600060608201905061548a6000830186613d7c565b61549760208301856147e4565b6154a46040830184613c02565b949350505050565b6000815190506154bb81613cf1565b92915050565b6000602082840312156154d7576154d6613b67565b5b60006154e5848285016154ac565b91505092915050565b7f4552433732313a206f776e657220717565727920666f72206e6f6e657869737460008201527f656e7420746f6b656e0000000000000000000000000000000000000000000000602082015250565b600061554a602983613c37565b9150615555826154ee565b604082019050919050565b600060208201905081810360008301526155798161553d565b9050919050565b7f4552433732313a2062616c616e636520717565727920666f7220746865207a6560008201527f726f206164647265737300000000000000000000000000000000000000000000602082015250565b60006155dc602a83613c37565b91506155e782615580565b604082019050919050565b6000602082019050818103600083015261560b816155cf565b9050919050565b7f4552433732314d657461646174613a2055524920717565727920666f72206e6f60008201527f6e2d6578697374656e7420746f6b656e00000000000000000000000000000000602082015250565b600061566e603083613c37565b915061567982615612565b604082019050919050565b6000602082019050818103600083015261569d81615661565b9050919050565b600067ffffffffffffffff8211156156bf576156be613ef9565b5b6156c882613c7b565b9050602081019050919050565b60006156e86156e3846156a4565b613f59565b905082815260208101848484011115615704576157036145e4565b5b61570f848285613c48565b509392505050565b600082601f83011261572c5761572b614051565b5b815161573c8482602086016156d5565b91505092915050565b60006020828403121561575b5761575a613b67565b5b600082015167ffffffffffffffff81111561577957615778613b6c565b5b61578584828501615717565b91505092915050565b7f4f6e6c7920636f6e74726f6c6c6572732063616e207570646174650000000000600082015250565b60006157c4601b83613c37565b91506157cf8261578e565b602082019050919050565b600060208201905081810360008301526157f3816157b7565b9050919050565b61580381614758565b82525050565b600060a08201905061581e6000830188613c02565b61582b60208301876147e4565b61583860408301866147e4565b61584560608301856157fa565b61585260808301846157fa565b9695505050505050565b60008151905061586b81613f81565b92915050565b60008060006060848603121561588a57615889613b67565b5b60006158988682870161585c565b93505060206158a98682870161585c565b925050604084015167ffffffffffffffff8111156158ca576158c9613b6c565b5b6158d686828701615717565b9150509250925092565b7f4f776e61626c653a206e6577206f776e657220697320746865207a65726f206160008201527f6464726573730000000000000000000000000000000000000000000000000000602082015250565b600061593c602683613c37565b9150615947826158e0565b604082019050919050565b6000602082019050818103600083015261596b8161592f565b9050919050565b7f4552433732313a206f70657261746f7220717565727920666f72206e6f6e657860008201527f697374656e7420746f6b656e0000000000000000000000000000000000000000602082015250565b60006159ce602c83613c37565b91506159d982615972565b604082019050919050565b600060208201905081810360008301526159fd816159c1565b9050919050565b7f4552433732313a207472616e73666572206f6620746f6b656e2074686174206960008201527f73206e6f74206f776e0000000000000000000000000000000000000000000000602082015250565b6000615a60602983613c37565b9150615a6b82615a04565b604082019050919050565b60006020820190508181036000830152615a8f81615a53565b9050919050565b7f4552433732313a207472616e7366657220746f20746865207a65726f2061646460008201527f7265737300000000000000000000000000000000000000000000000000000000602082015250565b6000615af2602483613c37565b9150615afd82615a96565b604082019050919050565b60006020820190508181036000830152615b2181615ae5565b9050919050565b6000615b3382613ce7565b9150615b3e83613ce7565b925082821015615b5157615b50614c2e565b5b828203905092915050565b7f496e697469616c697a61626c653a20636f6e7472616374206973206e6f74206960008201527f6e697469616c697a696e67000000000000000000000000000000000000000000602082015250565b6000615bb8602b83613c37565b9150615bc382615b5c565b604082019050919050565b60006020820190508181036000830152615be781615bab565b9050919050565b7f4552433732313a20617070726f766520746f2063616c6c657200000000000000600082015250565b6000615c24601983613c37565b9150615c2f82615bee565b602082019050919050565b60006020820190508181036000830152615c5381615c17565b9050919050565b7f4552433732313a207472616e7366657220746f206e6f6e20455243373231526560008201527f63656976657220696d706c656d656e7465720000000000000000000000000000602082015250565b6000615cb6603283613c37565b9150615cc182615c5a565b604082019050919050565b60006020820190508181036000830152615ce581615ca9565b9050919050565b600081519050919050565b600082825260208201905092915050565b6000615d1382615cec565b615d1d8185615cf7565b9350615d2d818560208601613c48565b615d3681613c7b565b840191505092915050565b6000608082019050615d566000830187613d7c565b615d636020830186613d7c565b615d706040830185613e9d565b8181036060830152615d828184615d08565b905095945050505050565b600081519050615d9c81613b9d565b92915050565b600060208284031215615db857615db7613b67565b5b6000615dc684828501615d8d565b91505092915050565b7f4552433732313a206d696e7420746f20746865207a65726f2061646472657373600082015250565b6000615e05602083613c37565b9150615e1082615dcf565b602082019050919050565b60006020820190508181036000830152615e3481615df8565b9050919050565b7f4552433732313a20746f6b656e20616c7265616479206d696e74656400000000600082015250565b6000615e71601c83613c37565b9150615e7c82615e3b565b602082019050919050565b60006020820190508181036000830152615ea081615e64565b905091905056fea26469706673582212208a53dc7e524e89f2eb7694f8e5eca1e6b9d169af82694f72df173a3096613b5964736f6c634300080a0033",
  "immutableReferences": {},
  "source": "// SPDX-License-Identifier: MIT\n\npragma solidity ^0.8.0;\n\nimport \"@openzeppelin/contracts-upgradeable/proxy/utils/Initializable.sol\";\nimport \"@openzeppelin/contracts-upgradeable/access/OwnableUpgradeable.sol\";\nimport \"@openzeppelin/contracts-upgradeable/security/PausableUpgradeable.sol\";\nimport \"@openzeppelin/contracts-upgradeable/token/ERC721/ERC721Upgradeable.sol\";\nimport \"./ICharacter.sol\";\nimport \"./FastFood.sol\";\nimport \"./IMint.sol\";\nimport \"./ITraits.sol\";\nimport \"./IProperties.sol\";\nimport \"./IVenue.sol\";\n\ncontract Character is ICharacter, Initializable, OwnableUpgradeable, PausableUpgradeable, ERC721Upgradeable {\n  uint16 public minted;\n  uint16 public numChefs;\n  uint16 public numRats;\n  uint256 public mintPrice;\n  uint256 public maxTokens; // Max number of tokens that can be minted - 50000 in production\n  uint256 public gen0Tokens; // Number of tokens that can be claimed for free - 20% of maxTokens\n\n  mapping(uint256 => CharacterStruct) public tokenTraits; // Mapping from tokenId to a struct containing the token's traits\n  mapping(uint256 => uint256) public existingCombinations; // Mapping from hashed(tokenTrait) to the tokenId it's associated with, used to ensure there are no duplicates\n  mapping(address => bool) controllers; // Mapping from an address to whether or not it can mint / burn\n  mapping(uint256 => uint16[]) public mintRequests;\n\n  FastFood fastFood; // Reference to the $FFOOD contract\n  IMint public theMint; // Reference to Mint\n  ITraits public traits; // Reference to Traits\n  IProperties public properties; // Reference to Properties\n  IVenue public kitchen;\n\n  function initialize(\n    address[] memory _addresses, // fastFood, mint, traits, properties\n    uint256 _maxTokens,\n    uint256 _mintPrice\n  ) external initializer {\n    __Ownable_init();\n    __Pausable_init();\n    __ERC721_init(\"RatAlert Characters\", \"RATCAST\");\n\n    fastFood = FastFood(_addresses[0]);\n    theMint = IMint(_addresses[1]);\n    traits = ITraits(_addresses[2]);\n    properties = IProperties(_addresses[3]);\n    maxTokens = _maxTokens;\n    gen0Tokens = _maxTokens / 5;\n    mintPrice = _mintPrice;\n    minted = 0;\n    numChefs = 0;\n    numRats = 0;\n  }\n\n  /**\n   * Mints a new ERC721 token: 90% chefs, 10% rats\n   * The first 20% are free to claim, the remaining cost $FFOOD\n   * @param amount Number of tokens to mint\n   */\n  function mint(uint8 amount, bool stake) external payable whenNotPaused {\n    require(tx.origin == _msgSender(), \"EOA only\");\n    require(amount > 0 && amount <= 10, \"Invalid mint amount\");\n    require(minted + amount <= maxTokens, \"All tokens minted\");\n    uint256 totalCost = 0;\n    if (minted < gen0Tokens) {\n      require(minted + amount <= gen0Tokens, \"Not enough Gen 0 tokens left, reduce amount\");\n      require(amount * mintPrice == msg.value, \"Invalid payment amount\");\n    } else {\n      require(msg.value == 0, \"Invalid payment type, accepting food tokens only\");\n      for (uint i = 1; i <= amount; i++) {\n        totalCost += mintCost(minted + i);\n      }\n    }\n    if (totalCost > 0) fastFood.burn(_msgSender(), totalCost);\n    uint256 requestId = theMint.requestRandomness(_msgSender(), amount, stake);\n    mintRequests[requestId] = new uint16[](amount);\n    for (uint i = 0; i < amount; i++) {\n      minted++;\n      mintRequests[requestId][i] = minted;\n    }\n  }\n\n  /**\n   *     1 - 10000: cost ETH\n   * 10001 - 20000: 1000 $FFOOD\n   * 20001 - 30000: 1500 $FFOOD\n   * 30001 - 40000: 2000 $FFOOD\n   * 40001 - 50000: 3000 $FFOOD\n   * @param tokenId - The token ID to check\n   * @return The minting cost of the given ID\n   */\n  function mintCost(uint256 tokenId) public view returns (uint256) {\n    if (tokenId <= gen0Tokens) return 0;\n    if (tokenId <= maxTokens * 2 / 5) return 1000 ether;\n    if (tokenId <= maxTokens * 3 / 5) return 1500 ether;\n    if (tokenId <= maxTokens * 4 / 5) return 2000 ether;\n    return 3000 ether;\n  }\n\n  function fulfillMint(IMint.VRFStruct memory v, CharacterStruct[] memory tokens) external {\n    require(msg.sender == address(theMint), \"Only the Mint can fulfill\");\n    require(mintRequests[v.requestId].length > 0, \"Mint request not found\");\n    uint16[] memory tokenIds = mintRequests[v.requestId];\n    delete mintRequests[v.requestId];\n    for (uint i = 0; i < tokenIds.length; i++) {\n      _safeMint(v.stake ? address(kitchen) : v.sender, tokenIds[i]);\n      tokenTraits[tokenIds[i]] = tokens[i];\n      tokens[i].isChef ? numChefs++ : numRats++;\n    }\n    if (v.stake) kitchen.stakeMany(v.sender, tokenIds);\n  }\n\n  function updateCharacter(uint256 tokenId, int8 efficiencyIncrement, int8 toleranceIncrement) public returns(uint8 efficiencyValue, uint8 toleranceValue, string memory eventName) {\n    require(controllers[msg.sender], \"Only controllers can update\");\n    bool isChef = tokenTraits[tokenId].isChef;\n    uint8 currentEfficiency = tokenTraits[tokenId].efficiency;\n    uint8 currentTolerance = tokenTraits[tokenId].tolerance;\n    (efficiencyValue, toleranceValue, eventName) = properties.getEventUpdates(isChef, currentEfficiency, currentTolerance, efficiencyIncrement, toleranceIncrement);\n    tokenTraits[tokenId].efficiency = efficiencyValue;\n    tokenTraits[tokenId].tolerance = toleranceValue;\n  }\n\n  function tokenURI(uint256 tokenId) public view override returns (string memory) {\n    require(_exists(tokenId), \"ERC721Metadata: URI query for non-existent token\");\n    return traits.tokenURI(tokenId);\n  }\n\n  function getTokenTraits(uint256 tokenId) external view override returns (CharacterStruct memory) {\n    require(_exists(tokenId), \"ERC721Metadata: URI query for non-existent token\");\n    return tokenTraits[tokenId];\n  }\n\n  function getGen0Tokens() external view override returns (uint256) {\n    return gen0Tokens;\n  }\n\n  /**\n   * Gets controller status by address\n   * @param controller the address to check\n   */\n  function getController(address controller) external view onlyOwner returns (bool) {\n    return controllers[controller];\n  }\n\n  /**\n   * Enables an address to mint / burn\n   * @param controller the address to enable\n   */\n  function addController(address controller) external onlyOwner {\n    controllers[controller] = true;\n  }\n\n  /**\n   * Disables an address from minting / burning\n   * @param controller the address to disable\n   */\n  function removeController(address controller) external onlyOwner {\n    controllers[controller] = false;\n  }\n\n  /**\n   * Sets the kitchen address to optionally stake newly minted characters in\n   * @param _kitchen - The address of the Kitchen\n   */\n  function setKitchen(address _kitchen) external onlyOwner {\n    kitchen = IVenue(_kitchen);\n  }\n}\n",
  "sourcePath": "/Users/chris/workspace/ratalert/ratalert-contracts/contracts/Character.sol",
  "compiler": {
    "name": "solc",
    "version": "0.8.10+commit.fc410830.Emscripten.clang"
  },
  "schemaVersion": "3.4.5",
  "updatedAt": "2022-02-28T14:42:23.177Z",
  "networkType": "ethereum",
  "devdoc": {
    "kind": "dev",
    "methods": {
      "addController(address)": {
        "params": {
          "controller": "the address to enable"
        }
      },
      "approve(address,uint256)": {
        "details": "See {IERC721-approve}."
      },
      "balanceOf(address)": {
        "details": "See {IERC721-balanceOf}."
      },
      "getApproved(uint256)": {
        "details": "See {IERC721-getApproved}."
      },
      "getController(address)": {
        "params": {
          "controller": "the address to check"
        }
      },
      "isApprovedForAll(address,address)": {
        "details": "See {IERC721-isApprovedForAll}."
      },
      "mint(uint8,bool)": {
        "params": {
          "amount": "Number of tokens to mint"
        }
      },
      "mintCost(uint256)": {
        "params": {
          "tokenId": "- The token ID to check"
        },
        "returns": {
          "_0": "The minting cost of the given ID"
        }
      },
      "name()": {
        "details": "See {IERC721Metadata-name}."
      },
      "owner()": {
        "details": "Returns the address of the current owner."
      },
      "ownerOf(uint256)": {
        "details": "See {IERC721-ownerOf}."
      },
      "paused()": {
        "details": "Returns true if the contract is paused, and false otherwise."
      },
      "removeController(address)": {
        "params": {
          "controller": "the address to disable"
        }
      },
      "renounceOwnership()": {
        "details": "Leaves the contract without owner. It will not be possible to call `onlyOwner` functions anymore. Can only be called by the current owner. NOTE: Renouncing ownership will leave the contract without an owner, thereby removing any functionality that is only available to the owner."
      },
      "safeTransferFrom(address,address,uint256)": {
        "details": "See {IERC721-safeTransferFrom}."
      },
      "safeTransferFrom(address,address,uint256,bytes)": {
        "details": "See {IERC721-safeTransferFrom}."
      },
      "setApprovalForAll(address,bool)": {
        "details": "See {IERC721-setApprovalForAll}."
      },
      "setKitchen(address)": {
        "params": {
          "_kitchen": "- The address of the Kitchen"
        }
      },
      "supportsInterface(bytes4)": {
        "details": "See {IERC165-supportsInterface}."
      },
      "symbol()": {
        "details": "See {IERC721Metadata-symbol}."
      },
      "tokenURI(uint256)": {
        "details": "See {IERC721Metadata-tokenURI}."
      },
      "transferFrom(address,address,uint256)": {
        "details": "See {IERC721-transferFrom}."
      },
      "transferOwnership(address)": {
        "details": "Transfers ownership of the contract to a new account (`newOwner`). Can only be called by the current owner."
      }
    },
    "version": 1
  },
  "userdoc": {
    "kind": "user",
    "methods": {
      "addController(address)": {
        "notice": "Enables an address to mint / burn"
      },
      "getController(address)": {
        "notice": "Gets controller status by address"
      },
      "mint(uint8,bool)": {
        "notice": "Mints a new ERC721 token: 90% chefs, 10% rats The first 20% are free to claim, the remaining cost $FFOOD"
      },
      "mintCost(uint256)": {
        "notice": "1 - 10000: cost ETH 10001 - 20000: 1000 $FFOOD 20001 - 30000: 1500 $FFOOD 30001 - 40000: 2000 $FFOOD 40001 - 50000: 3000 $FFOOD"
      },
      "removeController(address)": {
        "notice": "Disables an address from minting / burning"
      },
      "setKitchen(address)": {
        "notice": "Sets the kitchen address to optionally stake newly minted characters in"
      }
    },
    "version": 1
  }
}