{
  "contractName": "Character",
  "abi": [
    {
      "anonymous": false,
      "inputs": [
        {
          "indexed": true,
          "internalType": "address",
          "name": "owner",
          "type": "address"
        },
        {
          "indexed": true,
          "internalType": "address",
          "name": "approved",
          "type": "address"
        },
        {
          "indexed": true,
          "internalType": "uint256",
          "name": "tokenId",
          "type": "uint256"
        }
      ],
      "name": "Approval",
      "type": "event"
    },
    {
      "anonymous": false,
      "inputs": [
        {
          "indexed": true,
          "internalType": "address",
          "name": "owner",
          "type": "address"
        },
        {
          "indexed": true,
          "internalType": "address",
          "name": "operator",
          "type": "address"
        },
        {
          "indexed": false,
          "internalType": "bool",
          "name": "approved",
          "type": "bool"
        }
      ],
      "name": "ApprovalForAll",
      "type": "event"
    },
    {
      "anonymous": false,
      "inputs": [
        {
          "indexed": true,
          "internalType": "address",
          "name": "previousOwner",
          "type": "address"
        },
        {
          "indexed": true,
          "internalType": "address",
          "name": "newOwner",
          "type": "address"
        }
      ],
      "name": "OwnershipTransferred",
      "type": "event"
    },
    {
      "anonymous": false,
      "inputs": [
        {
          "indexed": false,
          "internalType": "address",
          "name": "account",
          "type": "address"
        }
      ],
      "name": "Paused",
      "type": "event"
    },
    {
      "anonymous": false,
      "inputs": [
        {
          "indexed": true,
          "internalType": "address",
          "name": "from",
          "type": "address"
        },
        {
          "indexed": true,
          "internalType": "address",
          "name": "to",
          "type": "address"
        },
        {
          "indexed": true,
          "internalType": "uint256",
          "name": "tokenId",
          "type": "uint256"
        }
      ],
      "name": "Transfer",
      "type": "event"
    },
    {
      "anonymous": false,
      "inputs": [
        {
          "indexed": false,
          "internalType": "address",
          "name": "account",
          "type": "address"
        }
      ],
      "name": "Unpaused",
      "type": "event"
    },
    {
      "inputs": [
        {
          "internalType": "address",
          "name": "to",
          "type": "address"
        },
        {
          "internalType": "uint256",
          "name": "tokenId",
          "type": "uint256"
        }
      ],
      "name": "approve",
      "outputs": [],
      "stateMutability": "nonpayable",
      "type": "function"
    },
    {
      "inputs": [
        {
          "internalType": "address",
          "name": "owner",
          "type": "address"
        }
      ],
      "name": "balanceOf",
      "outputs": [
        {
          "internalType": "uint256",
          "name": "",
          "type": "uint256"
        }
      ],
      "stateMutability": "view",
      "type": "function",
      "constant": true
    },
    {
      "inputs": [
        {
          "internalType": "uint256",
          "name": "",
          "type": "uint256"
        }
      ],
      "name": "existingCombinations",
      "outputs": [
        {
          "internalType": "uint256",
          "name": "",
          "type": "uint256"
        }
      ],
      "stateMutability": "view",
      "type": "function",
      "constant": true
    },
    {
      "inputs": [],
      "name": "gen0Tokens",
      "outputs": [
        {
          "internalType": "uint256",
          "name": "",
          "type": "uint256"
        }
      ],
      "stateMutability": "view",
      "type": "function",
      "constant": true
    },
    {
      "inputs": [
        {
          "internalType": "uint256",
          "name": "tokenId",
          "type": "uint256"
        }
      ],
      "name": "getApproved",
      "outputs": [
        {
          "internalType": "address",
          "name": "",
          "type": "address"
        }
      ],
      "stateMutability": "view",
      "type": "function",
      "constant": true
    },
    {
      "inputs": [
        {
          "internalType": "address",
          "name": "owner",
          "type": "address"
        },
        {
          "internalType": "address",
          "name": "operator",
          "type": "address"
        }
      ],
      "name": "isApprovedForAll",
      "outputs": [
        {
          "internalType": "bool",
          "name": "",
          "type": "bool"
        }
      ],
      "stateMutability": "view",
      "type": "function",
      "constant": true
    },
    {
      "inputs": [],
      "name": "kitchen",
      "outputs": [
        {
          "internalType": "contract IVenue",
          "name": "",
          "type": "address"
        }
      ],
      "stateMutability": "view",
      "type": "function",
      "constant": true
    },
    {
      "inputs": [],
      "name": "maxTokens",
      "outputs": [
        {
          "internalType": "uint256",
          "name": "",
          "type": "uint256"
        }
      ],
      "stateMutability": "view",
      "type": "function",
      "constant": true
    },
    {
      "inputs": [],
      "name": "mintPrice",
      "outputs": [
        {
          "internalType": "uint256",
          "name": "",
          "type": "uint256"
        }
      ],
      "stateMutability": "view",
      "type": "function",
      "constant": true
    },
    {
      "inputs": [
        {
          "internalType": "bytes32",
          "name": "",
          "type": "bytes32"
        },
        {
          "internalType": "uint256",
          "name": "",
          "type": "uint256"
        }
      ],
      "name": "mintRequests",
      "outputs": [
        {
          "internalType": "uint16",
          "name": "",
          "type": "uint16"
        }
      ],
      "stateMutability": "view",
      "type": "function",
      "constant": true
    },
    {
      "inputs": [],
      "name": "minted",
      "outputs": [
        {
          "internalType": "uint16",
          "name": "",
          "type": "uint16"
        }
      ],
      "stateMutability": "view",
      "type": "function",
      "constant": true
    },
    {
      "inputs": [],
      "name": "name",
      "outputs": [
        {
          "internalType": "string",
          "name": "",
          "type": "string"
        }
      ],
      "stateMutability": "view",
      "type": "function",
      "constant": true
    },
    {
      "inputs": [],
      "name": "numChefs",
      "outputs": [
        {
          "internalType": "uint16",
          "name": "",
          "type": "uint16"
        }
      ],
      "stateMutability": "view",
      "type": "function",
      "constant": true
    },
    {
      "inputs": [],
      "name": "numRats",
      "outputs": [
        {
          "internalType": "uint16",
          "name": "",
          "type": "uint16"
        }
      ],
      "stateMutability": "view",
      "type": "function",
      "constant": true
    },
    {
      "inputs": [],
      "name": "owner",
      "outputs": [
        {
          "internalType": "address",
          "name": "",
          "type": "address"
        }
      ],
      "stateMutability": "view",
      "type": "function",
      "constant": true
    },
    {
      "inputs": [
        {
          "internalType": "uint256",
          "name": "tokenId",
          "type": "uint256"
        }
      ],
      "name": "ownerOf",
      "outputs": [
        {
          "internalType": "address",
          "name": "",
          "type": "address"
        }
      ],
      "stateMutability": "view",
      "type": "function",
      "constant": true
    },
    {
      "inputs": [],
      "name": "paused",
      "outputs": [
        {
          "internalType": "bool",
          "name": "",
          "type": "bool"
        }
      ],
      "stateMutability": "view",
      "type": "function",
      "constant": true
    },
    {
      "inputs": [],
      "name": "properties",
      "outputs": [
        {
          "internalType": "contract IProperties",
          "name": "",
          "type": "address"
        }
      ],
      "stateMutability": "view",
      "type": "function",
      "constant": true
    },
    {
      "inputs": [],
      "name": "renounceOwnership",
      "outputs": [],
      "stateMutability": "nonpayable",
      "type": "function"
    },
    {
      "inputs": [
        {
          "internalType": "address",
          "name": "from",
          "type": "address"
        },
        {
          "internalType": "address",
          "name": "to",
          "type": "address"
        },
        {
          "internalType": "uint256",
          "name": "tokenId",
          "type": "uint256"
        }
      ],
      "name": "safeTransferFrom",
      "outputs": [],
      "stateMutability": "nonpayable",
      "type": "function"
    },
    {
      "inputs": [
        {
          "internalType": "address",
          "name": "from",
          "type": "address"
        },
        {
          "internalType": "address",
          "name": "to",
          "type": "address"
        },
        {
          "internalType": "uint256",
          "name": "tokenId",
          "type": "uint256"
        },
        {
          "internalType": "bytes",
          "name": "_data",
          "type": "bytes"
        }
      ],
      "name": "safeTransferFrom",
      "outputs": [],
      "stateMutability": "nonpayable",
      "type": "function"
    },
    {
      "inputs": [
        {
          "internalType": "address",
          "name": "operator",
          "type": "address"
        },
        {
          "internalType": "bool",
          "name": "approved",
          "type": "bool"
        }
      ],
      "name": "setApprovalForAll",
      "outputs": [],
      "stateMutability": "nonpayable",
      "type": "function"
    },
    {
      "inputs": [
        {
          "internalType": "bytes4",
          "name": "interfaceId",
          "type": "bytes4"
        }
      ],
      "name": "supportsInterface",
      "outputs": [
        {
          "internalType": "bool",
          "name": "",
          "type": "bool"
        }
      ],
      "stateMutability": "view",
      "type": "function",
      "constant": true
    },
    {
      "inputs": [],
      "name": "symbol",
      "outputs": [
        {
          "internalType": "string",
          "name": "",
          "type": "string"
        }
      ],
      "stateMutability": "view",
      "type": "function",
      "constant": true
    },
    {
      "inputs": [],
      "name": "theMint",
      "outputs": [
        {
          "internalType": "contract IMint",
          "name": "",
          "type": "address"
        }
      ],
      "stateMutability": "view",
      "type": "function",
      "constant": true
    },
    {
      "inputs": [
        {
          "internalType": "uint256",
          "name": "",
          "type": "uint256"
        }
      ],
      "name": "tokenTraits",
      "outputs": [
        {
          "internalType": "bool",
          "name": "isChef",
          "type": "bool"
        },
        {
          "internalType": "uint8",
          "name": "hat",
          "type": "uint8"
        },
        {
          "internalType": "uint8",
          "name": "eyes",
          "type": "uint8"
        },
        {
          "internalType": "uint8",
          "name": "piercing",
          "type": "uint8"
        },
        {
          "internalType": "uint8",
          "name": "mouth",
          "type": "uint8"
        },
        {
          "internalType": "uint8",
          "name": "neck",
          "type": "uint8"
        },
        {
          "internalType": "uint8",
          "name": "hand",
          "type": "uint8"
        },
        {
          "internalType": "uint8",
          "name": "tail",
          "type": "uint8"
        },
        {
          "internalType": "uint8",
          "name": "efficiency",
          "type": "uint8"
        },
        {
          "internalType": "uint8",
          "name": "tolerance",
          "type": "uint8"
        }
      ],
      "stateMutability": "view",
      "type": "function",
      "constant": true
    },
    {
      "inputs": [],
      "name": "traits",
      "outputs": [
        {
          "internalType": "contract ITraits",
          "name": "",
          "type": "address"
        }
      ],
      "stateMutability": "view",
      "type": "function",
      "constant": true
    },
    {
      "inputs": [
        {
          "internalType": "address",
          "name": "from",
          "type": "address"
        },
        {
          "internalType": "address",
          "name": "to",
          "type": "address"
        },
        {
          "internalType": "uint256",
          "name": "tokenId",
          "type": "uint256"
        }
      ],
      "name": "transferFrom",
      "outputs": [],
      "stateMutability": "nonpayable",
      "type": "function"
    },
    {
      "inputs": [
        {
          "internalType": "address",
          "name": "newOwner",
          "type": "address"
        }
      ],
      "name": "transferOwnership",
      "outputs": [],
      "stateMutability": "nonpayable",
      "type": "function"
    },
    {
      "inputs": [
        {
          "internalType": "address[]",
          "name": "_addresses",
          "type": "address[]"
        },
        {
          "internalType": "uint256",
          "name": "_maxTokens",
          "type": "uint256"
        },
        {
          "internalType": "uint256",
          "name": "_mintPrice",
          "type": "uint256"
        }
      ],
      "name": "initialize",
      "outputs": [],
      "stateMutability": "nonpayable",
      "type": "function"
    },
    {
      "inputs": [
        {
          "internalType": "uint8",
          "name": "amount",
          "type": "uint8"
        },
        {
          "internalType": "bool",
          "name": "stake",
          "type": "bool"
        }
      ],
      "name": "mint",
      "outputs": [],
      "stateMutability": "payable",
      "type": "function",
      "payable": true
    },
    {
      "inputs": [
        {
          "internalType": "uint256",
          "name": "tokenId",
          "type": "uint256"
        }
      ],
      "name": "mintCost",
      "outputs": [
        {
          "internalType": "uint256",
          "name": "",
          "type": "uint256"
        }
      ],
      "stateMutability": "view",
      "type": "function",
      "constant": true
    },
    {
      "inputs": [
        {
          "components": [
            {
              "internalType": "bytes32",
              "name": "requestId",
              "type": "bytes32"
            },
            {
              "internalType": "address",
              "name": "sender",
              "type": "address"
            },
            {
              "internalType": "uint8",
              "name": "amount",
              "type": "uint8"
            },
            {
              "internalType": "bool",
              "name": "stake",
              "type": "bool"
            }
          ],
          "internalType": "struct IMint.VRFStruct",
          "name": "v",
          "type": "tuple"
        },
        {
          "components": [
            {
              "internalType": "bool",
              "name": "isChef",
              "type": "bool"
            },
            {
              "internalType": "uint8",
              "name": "hat",
              "type": "uint8"
            },
            {
              "internalType": "uint8",
              "name": "eyes",
              "type": "uint8"
            },
            {
              "internalType": "uint8",
              "name": "piercing",
              "type": "uint8"
            },
            {
              "internalType": "uint8",
              "name": "mouth",
              "type": "uint8"
            },
            {
              "internalType": "uint8",
              "name": "neck",
              "type": "uint8"
            },
            {
              "internalType": "uint8",
              "name": "hand",
              "type": "uint8"
            },
            {
              "internalType": "uint8",
              "name": "tail",
              "type": "uint8"
            },
            {
              "internalType": "uint8",
              "name": "efficiency",
              "type": "uint8"
            },
            {
              "internalType": "uint8",
              "name": "tolerance",
              "type": "uint8"
            }
          ],
          "internalType": "struct ICharacter.CharacterStruct[]",
          "name": "tokens",
          "type": "tuple[]"
        }
      ],
      "name": "fulfillMint",
      "outputs": [],
      "stateMutability": "nonpayable",
      "type": "function"
    },
    {
      "inputs": [
        {
          "internalType": "uint256",
          "name": "tokenId",
          "type": "uint256"
        },
        {
          "internalType": "int8",
          "name": "efficiencyIncrement",
          "type": "int8"
        },
        {
          "internalType": "int8",
          "name": "toleranceIncrement",
          "type": "int8"
        },
        {
          "internalType": "uint256",
          "name": "randomVal",
          "type": "uint256"
        }
      ],
      "name": "updateCharacter",
      "outputs": [
        {
          "internalType": "uint8",
          "name": "efficiencyValue",
          "type": "uint8"
        },
        {
          "internalType": "uint8",
          "name": "toleranceValue",
          "type": "uint8"
        },
        {
          "internalType": "string",
          "name": "eventName",
          "type": "string"
        }
      ],
      "stateMutability": "nonpayable",
      "type": "function"
    },
    {
      "inputs": [
        {
          "internalType": "uint256",
          "name": "tokenId",
          "type": "uint256"
        }
      ],
      "name": "tokenURI",
      "outputs": [
        {
          "internalType": "string",
          "name": "",
          "type": "string"
        }
      ],
      "stateMutability": "view",
      "type": "function",
      "constant": true
    },
    {
      "inputs": [
        {
          "internalType": "uint256",
          "name": "tokenId",
          "type": "uint256"
        }
      ],
      "name": "getTokenTraits",
      "outputs": [
        {
          "components": [
            {
              "internalType": "bool",
              "name": "isChef",
              "type": "bool"
            },
            {
              "internalType": "uint8",
              "name": "hat",
              "type": "uint8"
            },
            {
              "internalType": "uint8",
              "name": "eyes",
              "type": "uint8"
            },
            {
              "internalType": "uint8",
              "name": "piercing",
              "type": "uint8"
            },
            {
              "internalType": "uint8",
              "name": "mouth",
              "type": "uint8"
            },
            {
              "internalType": "uint8",
              "name": "neck",
              "type": "uint8"
            },
            {
              "internalType": "uint8",
              "name": "hand",
              "type": "uint8"
            },
            {
              "internalType": "uint8",
              "name": "tail",
              "type": "uint8"
            },
            {
              "internalType": "uint8",
              "name": "efficiency",
              "type": "uint8"
            },
            {
              "internalType": "uint8",
              "name": "tolerance",
              "type": "uint8"
            }
          ],
          "internalType": "struct ICharacter.CharacterStruct",
          "name": "",
          "type": "tuple"
        }
      ],
      "stateMutability": "view",
      "type": "function",
      "constant": true
    },
    {
      "inputs": [],
      "name": "getGen0Tokens",
      "outputs": [
        {
          "internalType": "uint256",
          "name": "",
          "type": "uint256"
        }
      ],
      "stateMutability": "view",
      "type": "function",
      "constant": true
    },
    {
      "inputs": [
        {
          "internalType": "address",
          "name": "controller",
          "type": "address"
        }
      ],
      "name": "getController",
      "outputs": [
        {
          "internalType": "bool",
          "name": "",
          "type": "bool"
        }
      ],
      "stateMutability": "view",
      "type": "function",
      "constant": true
    },
    {
      "inputs": [
        {
          "internalType": "address",
          "name": "controller",
          "type": "address"
        }
      ],
      "name": "addController",
      "outputs": [],
      "stateMutability": "nonpayable",
      "type": "function"
    },
    {
      "inputs": [
        {
          "internalType": "address",
          "name": "controller",
          "type": "address"
        }
      ],
      "name": "removeController",
      "outputs": [],
      "stateMutability": "nonpayable",
      "type": "function"
    },
    {
      "inputs": [
        {
          "internalType": "address",
          "name": "_kitchen",
          "type": "address"
        }
      ],
      "name": "setKitchen",
      "outputs": [],
      "stateMutability": "nonpayable",
      "type": "function"
    }
  ],
  "bytecode": "0x608060405234801561001057600080fd5b50615f3880620000216000396000f3fe6080604052600436106102465760003560e01c8063715018a611610139578063b88d4fde116100b6578063e1fc334f1161007a578063e1fc334f146108da578063e831574214610905578063e985e9c514610930578063f2fde38b1461096d578063f6a74ed714610996578063fcd802b1146109bf57610246565b8063b88d4fde146107d8578063ba0909dd14610801578063c87b56dd1461082c578063d39f8a4d14610869578063e05c57bf1461089457610246565b806394e56847116100fd57806394e56847146106e157806395d89b411461071e578063a1b8f37414610749578063a22cb46514610786578063a7fc7a07146107af57610246565b8063715018a61461060c5780637856f9451461062357806388c662aa1461064e5780638da5cb5b1461068b5780639284521c146106b657610246565b806342842e0e116101c7578063612bfba41161018b578063612bfba41461050c5780636352211e1461052857806363dbfc77146105655780636817c76c146105a457806370a08231146105cf57610246565b806342842e0e1461043b5780634a43d1d3146104645780634f02c4201461048d5780635c975abb146104b85780635eae7959146104e357610246565b806323b872dd1161020e57806323b872dd1461034457806327de8f271461036d57806332de7209146103aa578063337f2847146103e75780633511a5291461041057610246565b806301ffc9a71461024b57806306fdde0314610288578063081812fc146102b35780630917e40d146102f0578063095ea7b31461031b575b600080fd5b34801561025757600080fd5b50610272600480360381019061026d9190613bcc565b6109ea565b60405161027f9190613c14565b60405180910390f35b34801561029457600080fd5b5061029d610acc565b6040516102aa9190613cc8565b60405180910390f35b3480156102bf57600080fd5b506102da60048036038101906102d59190613d20565b610b5e565b6040516102e79190613d8e565b60405180910390f35b3480156102fc57600080fd5b50610305610be3565b6040516103129190613dc6565b60405180910390f35b34801561032757600080fd5b50610342600480360381019061033d9190613e0d565b610bf7565b005b34801561035057600080fd5b5061036b60048036038101906103669190613e4d565b610d0f565b005b34801561037957600080fd5b50610394600480360381019061038f9190613d20565b610d6f565b6040516103a19190613eaf565b60405180910390f35b3480156103b657600080fd5b506103d160048036038101906103cc9190613f00565b610e2b565b6040516103de9190613dc6565b60405180910390f35b3480156103f357600080fd5b5061040e60048036038101906104099190613f40565b610e73565b005b34801561041c57600080fd5b50610425610f34565b6040516104329190613eaf565b60405180910390f35b34801561044757600080fd5b50610462600480360381019061045d9190613e4d565b610f3a565b005b34801561047057600080fd5b5061048b6004803603810190610486919061428f565b610f5a565b005b34801561049957600080fd5b506104a261145b565b6040516104af9190613dc6565b60405180910390f35b3480156104c457600080fd5b506104cd61146f565b6040516104da9190613c14565b60405180910390f35b3480156104ef57600080fd5b5061050a600480360381019061050591906143ae565b611486565b005b6105266004803603810190610521919061441d565b6117e0565b005b34801561053457600080fd5b5061054f600480360381019061054a9190613d20565b611d62565b60405161055c9190613d8e565b60405180910390f35b34801561057157600080fd5b5061058c60048036038101906105879190614496565b611e14565b60405161059b9392919061450c565b60405180910390f35b3480156105b057600080fd5b506105b9612043565b6040516105c69190613eaf565b60405180910390f35b3480156105db57600080fd5b506105f660048036038101906105f19190613f40565b612049565b6040516106039190613eaf565b60405180910390f35b34801561061857600080fd5b50610621612101565b005b34801561062f57600080fd5b50610638612189565b6040516106459190613eaf565b60405180910390f35b34801561065a57600080fd5b5061067560048036038101906106709190613f40565b612193565b6040516106829190613c14565b60405180910390f35b34801561069757600080fd5b506106a0612266565b6040516106ad9190613d8e565b60405180910390f35b3480156106c257600080fd5b506106cb612290565b6040516106d891906145a9565b60405180910390f35b3480156106ed57600080fd5b5061070860048036038101906107039190613d20565b6122b7565b60405161071591906146ae565b60405180910390f35b34801561072a57600080fd5b5061073361244d565b6040516107409190613cc8565b60405180910390f35b34801561075557600080fd5b50610770600480360381019061076b9190613d20565b6124df565b60405161077d9190613eaf565b60405180910390f35b34801561079257600080fd5b506107ad60048036038101906107a891906146ca565b6124f8565b005b3480156107bb57600080fd5b506107d660048036038101906107d19190613f40565b61250e565b005b3480156107e457600080fd5b506107ff60048036038101906107fa91906147bf565b6125e6565b005b34801561080d57600080fd5b50610816612648565b6040516108239190614863565b60405180910390f35b34801561083857600080fd5b50610853600480360381019061084e9190613d20565b61266f565b6040516108609190613cc8565b60405180910390f35b34801561087557600080fd5b5061087e612762565b60405161088b9190613dc6565b60405180910390f35b3480156108a057600080fd5b506108bb60048036038101906108b69190613d20565b612776565b6040516108d19a9998979695949392919061487e565b60405180910390f35b3480156108e657600080fd5b506108ef61284c565b6040516108fc919061493b565b60405180910390f35b34801561091157600080fd5b5061091a612873565b6040516109279190613eaf565b60405180910390f35b34801561093c57600080fd5b5061095760048036038101906109529190614956565b612879565b6040516109649190613c14565b60405180910390f35b34801561097957600080fd5b50610994600480360381019061098f9190613f40565b61290d565b005b3480156109a257600080fd5b506109bd60048036038101906109b89190613f40565b612a05565b005b3480156109cb57600080fd5b506109d4612add565b6040516109e191906149b7565b60405180910390f35b60007f80ac58cd000000000000000000000000000000000000000000000000000000007bffffffffffffffffffffffffffffffffffffffffffffffffffffffff1916827bffffffffffffffffffffffffffffffffffffffffffffffffffffffff19161480610ab557507f5b5e139f000000000000000000000000000000000000000000000000000000007bffffffffffffffffffffffffffffffffffffffffffffffffffffffff1916827bffffffffffffffffffffffffffffffffffffffffffffffffffffffff1916145b80610ac55750610ac482612b04565b5b9050919050565b606060c98054610adb90614a01565b80601f0160208091040260200160405190810160405280929190818152602001828054610b0790614a01565b8015610b545780601f10610b2957610100808354040283529160200191610b54565b820191906000526020600020905b815481529060010190602001808311610b3757829003601f168201915b5050505050905090565b6000610b6982612b6e565b610ba8576040517f08c379a0000000000000000000000000000000000000000000000000000000008152600401610b9f90614aa5565b60405180910390fd5b60cd600083815260200190815260200160002060009054906101000a900473ffffffffffffffffffffffffffffffffffffffff169050919050565b60fb60049054906101000a900461ffff1681565b6000610c0282611d62565b90508073ffffffffffffffffffffffffffffffffffffffff168373ffffffffffffffffffffffffffffffffffffffff161415610c73576040517f08c379a0000000000000000000000000000000000000000000000000000000008152600401610c6a90614b37565b60405180910390fd5b8073ffffffffffffffffffffffffffffffffffffffff16610c92612bda565b73ffffffffffffffffffffffffffffffffffffffff161480610cc15750610cc081610cbb612bda565b612879565b5b610d00576040517f08c379a0000000000000000000000000000000000000000000000000000000008152600401610cf790614bc9565b60405180910390fd5b610d0a8383612be2565b505050565b610d20610d1a612bda565b82612c9b565b610d5f576040517f08c379a0000000000000000000000000000000000000000000000000000000008152600401610d5690614c5b565b60405180910390fd5b610d6a838383612d79565b505050565b600060fe548211610d835760009050610e26565b6005600260fd54610d949190614caa565b610d9e9190614d33565b8211610db557683635c9adc5dea000009050610e26565b6005600360fd54610dc69190614caa565b610dd09190614d33565b8211610de757685150ae84a8cdf000009050610e26565b6005600460fd54610df89190614caa565b610e029190614d33565b8211610e1957686c6b935b8bbd4000009050610e26565b68a2a15d09519be0000090505b919050565b6101026020528160005260406000208181548110610e4857600080fd5b9060005260206000209060109182820401919006600202915091509054906101000a900461ffff1681565b610e7b612bda565b73ffffffffffffffffffffffffffffffffffffffff16610e99612266565b73ffffffffffffffffffffffffffffffffffffffff1614610eef576040517f08c379a0000000000000000000000000000000000000000000000000000000008152600401610ee690614db0565b60405180910390fd5b8061010760006101000a81548173ffffffffffffffffffffffffffffffffffffffff021916908373ffffffffffffffffffffffffffffffffffffffff16021790555050565b60fe5481565b610f55838383604051806020016040528060008152506125e6565b505050565b61010460009054906101000a900473ffffffffffffffffffffffffffffffffffffffff1673ffffffffffffffffffffffffffffffffffffffff163373ffffffffffffffffffffffffffffffffffffffff1614610feb576040517f08c379a0000000000000000000000000000000000000000000000000000000008152600401610fe290614e1c565b60405180910390fd5b60006101026000846000015181526020019081526020016000208054905011611049576040517f08c379a000000000000000000000000000000000000000000000000000000000815260040161104090614e88565b60405180910390fd5b60006101026000846000015181526020019081526020016000208054806020026020016040519081016040528092919081815260200182805480156110d557602002820191906000526020600020906000905b82829054906101000a900461ffff1661ffff168152602001906002019060208260010104928301926001038202915080841161109c5790505b505050505090506101026000846000015181526020019081526020016000206000611100919061397b565b60005b81518110156113b65761116b8460600151611122578460200151611147565b61010760009054906101000a900473ffffffffffffffffffffffffffffffffffffffff165b83838151811061115a57611159614ea8565b5b602002602001015161ffff16612fd5565b82818151811061117e5761117d614ea8565b5b602002602001015160ff600084848151811061119d5761119c614ea8565b5b602002602001015161ffff16815260200190815260200160002060008201518160000160006101000a81548160ff02191690831515021790555060208201518160000160016101000a81548160ff021916908360ff16021790555060408201518160000160026101000a81548160ff021916908360ff16021790555060608201518160000160036101000a81548160ff021916908360ff16021790555060808201518160000160046101000a81548160ff021916908360ff16021790555060a08201518160000160056101000a81548160ff021916908360ff16021790555060c08201518160000160066101000a81548160ff021916908360ff16021790555060e08201518160000160076101000a81548160ff021916908360ff1602179055506101008201518160000160086101000a81548160ff021916908360ff1602179055506101208201518160000160096101000a81548160ff021916908360ff16021790555090505082818151811061131857611317614ea8565b5b6020026020010151600001516113675760fb600481819054906101000a900461ffff168092919061134890614ed7565b91906101000a81548161ffff021916908361ffff1602179055506113a2565b60fb600281819054906101000a900461ffff168092919061138790614ed7565b91906101000a81548161ffff021916908361ffff1602179055505b5080806113ae90614f02565b915050611103565b508260600151156114565761010760009054906101000a900473ffffffffffffffffffffffffffffffffffffffff1673ffffffffffffffffffffffffffffffffffffffff1663dbdc1f6b8460200151836040518363ffffffff1660e01b8152600401611423929190615009565b600060405180830381600087803b15801561143d57600080fd5b505af1158015611451573d6000803e3d6000fd5b505050505b505050565b60fb60009054906101000a900461ffff1681565b6000606560009054906101000a900460ff16905090565b600060019054906101000a900460ff166114ae5760008054906101000a900460ff16156114b7565b6114b6612ff3565b5b6114f6576040517f08c379a00000000000000000000000000000000000000000000000000000000081526004016114ed906150ab565b60405180910390fd5b60008060019054906101000a900460ff161590508015611546576001600060016101000a81548160ff02191690831515021790555060016000806101000a81548160ff0219169083151502179055505b61154e613004565b611556613065565b6115ca6040518060400160405280601381526020017f526174416c6572742043686172616374657273000000000000000000000000008152506040518060400160405280600781526020017f52415443415354000000000000000000000000000000000000000000000000008152506130c6565b836000815181106115de576115dd614ea8565b5b602002602001015161010360006101000a81548173ffffffffffffffffffffffffffffffffffffffff021916908373ffffffffffffffffffffffffffffffffffffffff1602179055508360018151811061163b5761163a614ea8565b5b602002602001015161010460006101000a81548173ffffffffffffffffffffffffffffffffffffffff021916908373ffffffffffffffffffffffffffffffffffffffff1602179055508360028151811061169857611697614ea8565b5b602002602001015161010560006101000a81548173ffffffffffffffffffffffffffffffffffffffff021916908373ffffffffffffffffffffffffffffffffffffffff160217905550836003815181106116f5576116f4614ea8565b5b602002602001015161010660006101000a81548173ffffffffffffffffffffffffffffffffffffffff021916908373ffffffffffffffffffffffffffffffffffffffff1602179055508260fd819055506005836117529190614d33565b60fe819055508160fc81905550600060fb60006101000a81548161ffff021916908361ffff160217905550600060fb60026101000a81548161ffff021916908361ffff160217905550600060fb60046101000a81548161ffff021916908361ffff16021790555080156117da5760008060016101000a81548160ff0219169083151502179055505b50505050565b6117e861146f565b15611828576040517f08c379a000000000000000000000000000000000000000000000000000000000815260040161181f90615117565b60405180910390fd5b611830612bda565b73ffffffffffffffffffffffffffffffffffffffff163273ffffffffffffffffffffffffffffffffffffffff161461189d576040517f08c379a000000000000000000000000000000000000000000000000000000000815260040161189490615183565b60405180910390fd5b60008260ff161180156118b45750600a8260ff1611155b6118f3576040517f08c379a00000000000000000000000000000000000000000000000000000000081526004016118ea906151ef565b60405180910390fd5b60fd548260ff1660fb60009054906101000a900461ffff16611915919061520f565b61ffff16111561195a576040517f08c379a000000000000000000000000000000000000000000000000000000000815260040161195190615293565b60405180910390fd5b600060fe5460fb60009054906101000a900461ffff1661ffff161015611a385760fe548360ff1660fb60009054906101000a900461ffff1661199c919061520f565b61ffff1611156119e1576040517f08c379a00000000000000000000000000000000000000000000000000000000081526004016119d890615325565b60405180910390fd5b3460fc548460ff166119f39190614caa565b14611a33576040517f08c379a0000000000000000000000000000000000000000000000000000000008152600401611a2a90615391565b60405180910390fd5b611ad6565b60003414611a7b576040517f08c379a0000000000000000000000000000000000000000000000000000000008152600401611a7290615423565b60405180910390fd5b6000600190505b8360ff168111611ad457611ab48160fb60009054906101000a900461ffff1661ffff16611aaf9190615443565b610d6f565b82611abf9190615443565b91508080611acc90614f02565b915050611a82565b505b6000811115611b775761010360009054906101000a900473ffffffffffffffffffffffffffffffffffffffff1673ffffffffffffffffffffffffffffffffffffffff16639dc29fac611b26612bda565b836040518363ffffffff1660e01b8152600401611b44929190615499565b600060405180830381600087803b158015611b5e57600080fd5b505af1158015611b72573d6000803e3d6000fd5b505050505b600061010460009054906101000a900473ffffffffffffffffffffffffffffffffffffffff1673ffffffffffffffffffffffffffffffffffffffff1663de864bf9611bc0612bda565b86866040518463ffffffff1660e01b8152600401611be0939291906154c2565b6020604051808303816000875af1158015611bff573d6000803e3d6000fd5b505050506040513d601f19601f82011682018060405250810190611c23919061550e565b90508360ff1667ffffffffffffffff811115611c4257611c41613f72565b5b604051908082528060200260200182016040528015611c705781602001602082028036833780820191505090505b5061010260008381526020019081526020016000209080519060200190611c989291906139a3565b5060005b8460ff16811015611d5b5760fb600081819054906101000a900461ffff1680929190611cc790614ed7565b91906101000a81548161ffff021916908361ffff1602179055505060fb60009054906101000a900461ffff1661010260008481526020019081526020016000208281548110611d1957611d18614ea8565b5b90600052602060002090601091828204019190066002026101000a81548161ffff021916908361ffff1602179055508080611d5390614f02565b915050611c9c565b5050505050565b60008060cb600084815260200190815260200160002060009054906101000a900473ffffffffffffffffffffffffffffffffffffffff169050600073ffffffffffffffffffffffffffffffffffffffff168173ffffffffffffffffffffffffffffffffffffffff161415611e0b576040517f08c379a0000000000000000000000000000000000000000000000000000000008152600401611e02906155ad565b60405180910390fd5b80915050919050565b600080606061010160003373ffffffffffffffffffffffffffffffffffffffff1673ffffffffffffffffffffffffffffffffffffffff16815260200190815260200160002060009054906101000a900460ff16611ea6576040517f08c379a0000000000000000000000000000000000000000000000000000000008152600401611e9d90615619565b60405180910390fd5b600060ff600089815260200190815260200160002060000160009054906101000a900460ff169050600060ff60008a815260200190815260200160002060000160089054906101000a900460ff169050600060ff60008b815260200190815260200160002060000160099054906101000a900460ff16905061010660009054906101000a900473ffffffffffffffffffffffffffffffffffffffff1673ffffffffffffffffffffffffffffffffffffffff16634718e3088484848d8d8d6040518763ffffffff1660e01b8152600401611f8496959493929190615648565b6000604051808303816000875af1158015611fa3573d6000803e3d6000fd5b505050506040513d6000823e3d601f19601f82011682018060405250810190611fcc919061575f565b8096508197508298505050508560ff60008c815260200190815260200160002060000160086101000a81548160ff021916908360ff1602179055508460ff60008c815260200190815260200160002060000160096101000a81548160ff021916908360ff1602179055505050509450945094915050565b60fc5481565b60008073ffffffffffffffffffffffffffffffffffffffff168273ffffffffffffffffffffffffffffffffffffffff1614156120ba576040517f08c379a00000000000000000000000000000000000000000000000000000000081526004016120b190615840565b60405180910390fd5b60cc60008373ffffffffffffffffffffffffffffffffffffffff1673ffffffffffffffffffffffffffffffffffffffff168152602001908152602001600020549050919050565b612109612bda565b73ffffffffffffffffffffffffffffffffffffffff16612127612266565b73ffffffffffffffffffffffffffffffffffffffff161461217d576040517f08c379a000000000000000000000000000000000000000000000000000000000815260040161217490614db0565b60405180910390fd5b6121876000613133565b565b600060fe54905090565b600061219d612bda565b73ffffffffffffffffffffffffffffffffffffffff166121bb612266565b73ffffffffffffffffffffffffffffffffffffffff1614612211576040517f08c379a000000000000000000000000000000000000000000000000000000000815260040161220890614db0565b60405180910390fd5b61010160008373ffffffffffffffffffffffffffffffffffffffff1673ffffffffffffffffffffffffffffffffffffffff16815260200190815260200160002060009054906101000a900460ff169050919050565b6000603360009054906101000a900473ffffffffffffffffffffffffffffffffffffffff16905090565b61010460009054906101000a900473ffffffffffffffffffffffffffffffffffffffff1681565b6122bf613a4d565b6122c882612b6e565b612307576040517f08c379a00000000000000000000000000000000000000000000000000000000081526004016122fe906158d2565b60405180910390fd5b60ff6000838152602001908152602001600020604051806101400160405290816000820160009054906101000a900460ff161515151581526020016000820160019054906101000a900460ff1660ff1660ff1681526020016000820160029054906101000a900460ff1660ff1660ff1681526020016000820160039054906101000a900460ff1660ff1660ff1681526020016000820160049054906101000a900460ff1660ff1660ff1681526020016000820160059054906101000a900460ff1660ff1660ff1681526020016000820160069054906101000a900460ff1660ff1660ff1681526020016000820160079054906101000a900460ff1660ff1660ff1681526020016000820160089054906101000a900460ff1660ff1660ff1681526020016000820160099054906101000a900460ff1660ff1660ff16815250509050919050565b606060ca805461245c90614a01565b80601f016020809104026020016040519081016040528092919081815260200182805461248890614a01565b80156124d55780601f106124aa576101008083540402835291602001916124d5565b820191906000526020600020905b8154815290600101906020018083116124b857829003601f168201915b5050505050905090565b6101006020528060005260406000206000915090505481565b61250a612503612bda565b83836131f9565b5050565b612516612bda565b73ffffffffffffffffffffffffffffffffffffffff16612534612266565b73ffffffffffffffffffffffffffffffffffffffff161461258a576040517f08c379a000000000000000000000000000000000000000000000000000000000815260040161258190614db0565b60405180910390fd5b600161010160008373ffffffffffffffffffffffffffffffffffffffff1673ffffffffffffffffffffffffffffffffffffffff16815260200190815260200160002060006101000a81548160ff02191690831515021790555050565b6125f76125f1612bda565b83612c9b565b612636576040517f08c379a000000000000000000000000000000000000000000000000000000000815260040161262d90614c5b565b60405180910390fd5b61264284848484613366565b50505050565b61010760009054906101000a900473ffffffffffffffffffffffffffffffffffffffff1681565b606061267a82612b6e565b6126b9576040517f08c379a00000000000000000000000000000000000000000000000000000000081526004016126b0906158d2565b60405180910390fd5b61010560009054906101000a900473ffffffffffffffffffffffffffffffffffffffff1673ffffffffffffffffffffffffffffffffffffffff1663c87b56dd836040518263ffffffff1660e01b81526004016127159190613eaf565b600060405180830381865afa158015612732573d6000803e3d6000fd5b505050506040513d6000823e3d601f19601f8201168201806040525081019061275b91906158f2565b9050919050565b60fb60029054906101000a900461ffff1681565b60ff6020528060005260406000206000915090508060000160009054906101000a900460ff16908060000160019054906101000a900460ff16908060000160029054906101000a900460ff16908060000160039054906101000a900460ff16908060000160049054906101000a900460ff16908060000160059054906101000a900460ff16908060000160069054906101000a900460ff16908060000160079054906101000a900460ff16908060000160089054906101000a900460ff16908060000160099054906101000a900460ff1690508a565b61010560009054906101000a900473ffffffffffffffffffffffffffffffffffffffff1681565b60fd5481565b600060ce60008473ffffffffffffffffffffffffffffffffffffffff1673ffffffffffffffffffffffffffffffffffffffff16815260200190815260200160002060008373ffffffffffffffffffffffffffffffffffffffff1673ffffffffffffffffffffffffffffffffffffffff16815260200190815260200160002060009054906101000a900460ff16905092915050565b612915612bda565b73ffffffffffffffffffffffffffffffffffffffff16612933612266565b73ffffffffffffffffffffffffffffffffffffffff1614612989576040517f08c379a000000000000000000000000000000000000000000000000000000000815260040161298090614db0565b60405180910390fd5b600073ffffffffffffffffffffffffffffffffffffffff168173ffffffffffffffffffffffffffffffffffffffff1614156129f9576040517f08c379a00000000000000000000000000000000000000000000000000000000081526004016129f0906159ad565b60405180910390fd5b612a0281613133565b50565b612a0d612bda565b73ffffffffffffffffffffffffffffffffffffffff16612a2b612266565b73ffffffffffffffffffffffffffffffffffffffff1614612a81576040517f08c379a0000000000000000000000000000000000000000000000000000000008152600401612a7890614db0565b60405180910390fd5b600061010160008373ffffffffffffffffffffffffffffffffffffffff1673ffffffffffffffffffffffffffffffffffffffff16815260200190815260200160002060006101000a81548160ff02191690831515021790555050565b61010660009054906101000a900473ffffffffffffffffffffffffffffffffffffffff1681565b60007f01ffc9a7000000000000000000000000000000000000000000000000000000007bffffffffffffffffffffffffffffffffffffffffffffffffffffffff1916827bffffffffffffffffffffffffffffffffffffffffffffffffffffffff1916149050919050565b60008073ffffffffffffffffffffffffffffffffffffffff1660cb600084815260200190815260200160002060009054906101000a900473ffffffffffffffffffffffffffffffffffffffff1673ffffffffffffffffffffffffffffffffffffffff1614159050919050565b600033905090565b8160cd600083815260200190815260200160002060006101000a81548173ffffffffffffffffffffffffffffffffffffffff021916908373ffffffffffffffffffffffffffffffffffffffff160217905550808273ffffffffffffffffffffffffffffffffffffffff16612c5583611d62565b73ffffffffffffffffffffffffffffffffffffffff167f8c5be1e5ebec7d5bd14f71427d1e84f3dd0314c0f7b2291e5b200ac8c7c3b92560405160405180910390a45050565b6000612ca682612b6e565b612ce5576040517f08c379a0000000000000000000000000000000000000000000000000000000008152600401612cdc90615a3f565b60405180910390fd5b6000612cf083611d62565b90508073ffffffffffffffffffffffffffffffffffffffff168473ffffffffffffffffffffffffffffffffffffffff161480612d5f57508373ffffffffffffffffffffffffffffffffffffffff16612d4784610b5e565b73ffffffffffffffffffffffffffffffffffffffff16145b80612d705750612d6f8185612879565b5b91505092915050565b8273ffffffffffffffffffffffffffffffffffffffff16612d9982611d62565b73ffffffffffffffffffffffffffffffffffffffff1614612def576040517f08c379a0000000000000000000000000000000000000000000000000000000008152600401612de690615ad1565b60405180910390fd5b600073ffffffffffffffffffffffffffffffffffffffff168273ffffffffffffffffffffffffffffffffffffffff161415612e5f576040517f08c379a0000000000000000000000000000000000000000000000000000000008152600401612e5690615b63565b60405180910390fd5b612e6a8383836133c2565b612e75600082612be2565b600160cc60008573ffffffffffffffffffffffffffffffffffffffff1673ffffffffffffffffffffffffffffffffffffffff1681526020019081526020016000206000828254612ec59190615b83565b92505081905550600160cc60008473ffffffffffffffffffffffffffffffffffffffff1673ffffffffffffffffffffffffffffffffffffffff1681526020019081526020016000206000828254612f1c9190615443565b925050819055508160cb600083815260200190815260200160002060006101000a81548173ffffffffffffffffffffffffffffffffffffffff021916908373ffffffffffffffffffffffffffffffffffffffff160217905550808273ffffffffffffffffffffffffffffffffffffffff168473ffffffffffffffffffffffffffffffffffffffff167fddf252ad1be2c89b69c2b068fc378daa952ba7f163c4a11628f55a4df523b3ef60405160405180910390a4505050565b612fef8282604051806020016040528060008152506133c7565b5050565b6000612ffe30613422565b15905090565b600060019054906101000a900460ff16613053576040517f08c379a000000000000000000000000000000000000000000000000000000000815260040161304a90615c29565b60405180910390fd5b61305b613435565b613063613486565b565b600060019054906101000a900460ff166130b4576040517f08c379a00000000000000000000000000000000000000000000000000000000081526004016130ab90615c29565b60405180910390fd5b6130bc613435565b6130c46134e7565b565b600060019054906101000a900460ff16613115576040517f08c379a000000000000000000000000000000000000000000000000000000000815260040161310c90615c29565b60405180910390fd5b61311d613435565b613125613553565b61312f82826135a4565b5050565b6000603360009054906101000a900473ffffffffffffffffffffffffffffffffffffffff16905081603360006101000a81548173ffffffffffffffffffffffffffffffffffffffff021916908373ffffffffffffffffffffffffffffffffffffffff1602179055508173ffffffffffffffffffffffffffffffffffffffff168173ffffffffffffffffffffffffffffffffffffffff167f8be0079c531659141344cd1fd0a4f28419497f9722a3daafe3b4186f6b6457e060405160405180910390a35050565b8173ffffffffffffffffffffffffffffffffffffffff168373ffffffffffffffffffffffffffffffffffffffff161415613268576040517f08c379a000000000000000000000000000000000000000000000000000000000815260040161325f90615c95565b60405180910390fd5b8060ce60008573ffffffffffffffffffffffffffffffffffffffff1673ffffffffffffffffffffffffffffffffffffffff16815260200190815260200160002060008473ffffffffffffffffffffffffffffffffffffffff1673ffffffffffffffffffffffffffffffffffffffff16815260200190815260200160002060006101000a81548160ff0219169083151502179055508173ffffffffffffffffffffffffffffffffffffffff168373ffffffffffffffffffffffffffffffffffffffff167f17307eab39ab6107e8899845ad3d59bd9653f200f220920489ca2b5937696c31836040516133599190613c14565b60405180910390a3505050565b613371848484612d79565b61337d84848484613625565b6133bc576040517f08c379a00000000000000000000000000000000000000000000000000000000081526004016133b390615d27565b60405180910390fd5b50505050565b505050565b6133d183836137ad565b6133de6000848484613625565b61341d576040517f08c379a000000000000000000000000000000000000000000000000000000000815260040161341490615d27565b60405180910390fd5b505050565b600080823b905060008111915050919050565b600060019054906101000a900460ff16613484576040517f08c379a000000000000000000000000000000000000000000000000000000000815260040161347b90615c29565b60405180910390fd5b565b600060019054906101000a900460ff166134d5576040517f08c379a00000000000000000000000000000000000000000000000000000000081526004016134cc90615c29565b60405180910390fd5b6134e56134e0612bda565b613133565b565b600060019054906101000a900460ff16613536576040517f08c379a000000000000000000000000000000000000000000000000000000000815260040161352d90615c29565b60405180910390fd5b6000606560006101000a81548160ff021916908315150217905550565b600060019054906101000a900460ff166135a2576040517f08c379a000000000000000000000000000000000000000000000000000000000815260040161359990615c29565b60405180910390fd5b565b600060019054906101000a900460ff166135f3576040517f08c379a00000000000000000000000000000000000000000000000000000000081526004016135ea90615c29565b60405180910390fd5b8160c99080519060200190613609929190613abd565b508060ca9080519060200190613620929190613abd565b505050565b60006136468473ffffffffffffffffffffffffffffffffffffffff16613422565b156137a0578373ffffffffffffffffffffffffffffffffffffffff1663150b7a0261366f612bda565b8786866040518563ffffffff1660e01b81526004016136919493929190615d9c565b6020604051808303816000875af19250505080156136cd57506040513d601f19601f820116820180604052508101906136ca9190615dfd565b60015b613750573d80600081146136fd576040519150601f19603f3d011682016040523d82523d6000602084013e613702565b606091505b50600081511415613748576040517f08c379a000000000000000000000000000000000000000000000000000000000815260040161373f90615d27565b60405180910390fd5b805181602001fd5b63150b7a0260e01b7bffffffffffffffffffffffffffffffffffffffffffffffffffffffff1916817bffffffffffffffffffffffffffffffffffffffffffffffffffffffff1916149150506137a5565b600190505b949350505050565b600073ffffffffffffffffffffffffffffffffffffffff168273ffffffffffffffffffffffffffffffffffffffff16141561381d576040517f08c379a000000000000000000000000000000000000000000000000000000000815260040161381490615e76565b60405180910390fd5b61382681612b6e565b15613866576040517f08c379a000000000000000000000000000000000000000000000000000000000815260040161385d90615ee2565b60405180910390fd5b613872600083836133c2565b600160cc60008473ffffffffffffffffffffffffffffffffffffffff1673ffffffffffffffffffffffffffffffffffffffff16815260200190815260200160002060008282546138c29190615443565b925050819055508160cb600083815260200190815260200160002060006101000a81548173ffffffffffffffffffffffffffffffffffffffff021916908373ffffffffffffffffffffffffffffffffffffffff160217905550808273ffffffffffffffffffffffffffffffffffffffff16600073ffffffffffffffffffffffffffffffffffffffff167fddf252ad1be2c89b69c2b068fc378daa952ba7f163c4a11628f55a4df523b3ef60405160405180910390a45050565b50805460008255600f0160109004906000526020600020908101906139a09190613b43565b50565b82805482825590600052602060002090600f01601090048101928215613a3c5791602002820160005b83821115613a0c57835183826101000a81548161ffff021916908361ffff16021790555092602001926002016020816001010492830192600103026139cc565b8015613a3a5782816101000a81549061ffff0219169055600201602081600101049283019260010302613a0c565b505b509050613a499190613b43565b5090565b604051806101400160405280600015158152602001600060ff168152602001600060ff168152602001600060ff168152602001600060ff168152602001600060ff168152602001600060ff168152602001600060ff168152602001600060ff168152602001600060ff1681525090565b828054613ac990614a01565b90600052602060002090601f016020900481019282613aeb5760008555613b32565b82601f10613b0457805160ff1916838001178555613b32565b82800160010185558215613b32579182015b82811115613b31578251825591602001919060010190613b16565b5b509050613b3f9190613b43565b5090565b5b80821115613b5c576000816000905550600101613b44565b5090565b6000604051905090565b600080fd5b600080fd5b60007fffffffff0000000000000000000000000000000000000000000000000000000082169050919050565b613ba981613b74565b8114613bb457600080fd5b50565b600081359050613bc681613ba0565b92915050565b600060208284031215613be257613be1613b6a565b5b6000613bf084828501613bb7565b91505092915050565b60008115159050919050565b613c0e81613bf9565b82525050565b6000602082019050613c296000830184613c05565b92915050565b600081519050919050565b600082825260208201905092915050565b60005b83811015613c69578082015181840152602081019050613c4e565b83811115613c78576000848401525b50505050565b6000601f19601f8301169050919050565b6000613c9a82613c2f565b613ca48185613c3a565b9350613cb4818560208601613c4b565b613cbd81613c7e565b840191505092915050565b60006020820190508181036000830152613ce28184613c8f565b905092915050565b6000819050919050565b613cfd81613cea565b8114613d0857600080fd5b50565b600081359050613d1a81613cf4565b92915050565b600060208284031215613d3657613d35613b6a565b5b6000613d4484828501613d0b565b91505092915050565b600073ffffffffffffffffffffffffffffffffffffffff82169050919050565b6000613d7882613d4d565b9050919050565b613d8881613d6d565b82525050565b6000602082019050613da36000830184613d7f565b92915050565b600061ffff82169050919050565b613dc081613da9565b82525050565b6000602082019050613ddb6000830184613db7565b92915050565b613dea81613d6d565b8114613df557600080fd5b50565b600081359050613e0781613de1565b92915050565b60008060408385031215613e2457613e23613b6a565b5b6000613e3285828601613df8565b9250506020613e4385828601613d0b565b9150509250929050565b600080600060608486031215613e6657613e65613b6a565b5b6000613e7486828701613df8565b9350506020613e8586828701613df8565b9250506040613e9686828701613d0b565b9150509250925092565b613ea981613cea565b82525050565b6000602082019050613ec46000830184613ea0565b92915050565b6000819050919050565b613edd81613eca565b8114613ee857600080fd5b50565b600081359050613efa81613ed4565b92915050565b60008060408385031215613f1757613f16613b6a565b5b6000613f2585828601613eeb565b9250506020613f3685828601613d0b565b9150509250929050565b600060208284031215613f5657613f55613b6a565b5b6000613f6484828501613df8565b91505092915050565b600080fd5b7f4e487b7100000000000000000000000000000000000000000000000000000000600052604160045260246000fd5b613faa82613c7e565b810181811067ffffffffffffffff82111715613fc957613fc8613f72565b5b80604052505050565b6000613fdc613b60565b9050613fe88282613fa1565b919050565b600060ff82169050919050565b61400381613fed565b811461400e57600080fd5b50565b60008135905061402081613ffa565b92915050565b61402f81613bf9565b811461403a57600080fd5b50565b60008135905061404c81614026565b92915050565b60006080828403121561406857614067613f6d565b5b6140726080613fd2565b9050600061408284828501613eeb565b600083015250602061409684828501613df8565b60208301525060406140aa84828501614011565b60408301525060606140be8482850161403d565b60608301525092915050565b600080fd5b600067ffffffffffffffff8211156140ea576140e9613f72565b5b602082029050602081019050919050565b600080fd5b6000610140828403121561411757614116613f6d565b5b614122610140613fd2565b905060006141328482850161403d565b600083015250602061414684828501614011565b602083015250604061415a84828501614011565b604083015250606061416e84828501614011565b606083015250608061418284828501614011565b60808301525060a061419684828501614011565b60a08301525060c06141aa84828501614011565b60c08301525060e06141be84828501614011565b60e0830152506101006141d384828501614011565b610100830152506101206141e984828501614011565b6101208301525092915050565b6000614209614204846140cf565b613fd2565b905080838252602082019050610140840283018581111561422d5761422c6140fb565b5b835b8181101561425757806142428882614100565b8452602084019350506101408101905061422f565b5050509392505050565b600082601f830112614276576142756140ca565b5b81356142868482602086016141f6565b91505092915050565b60008060a083850312156142a6576142a5613b6a565b5b60006142b485828601614052565b925050608083013567ffffffffffffffff8111156142d5576142d4613b6f565b5b6142e185828601614261565b9150509250929050565b600067ffffffffffffffff82111561430657614305613f72565b5b602082029050602081019050919050565b600061432a614325846142eb565b613fd2565b9050808382526020820190506020840283018581111561434d5761434c6140fb565b5b835b8181101561437657806143628882613df8565b84526020840193505060208101905061434f565b5050509392505050565b600082601f830112614395576143946140ca565b5b81356143a5848260208601614317565b91505092915050565b6000806000606084860312156143c7576143c6613b6a565b5b600084013567ffffffffffffffff8111156143e5576143e4613b6f565b5b6143f186828701614380565b935050602061440286828701613d0b565b925050604061441386828701613d0b565b9150509250925092565b6000806040838503121561443457614433613b6a565b5b600061444285828601614011565b92505060206144538582860161403d565b9150509250929050565b60008160000b9050919050565b6144738161445d565b811461447e57600080fd5b50565b6000813590506144908161446a565b92915050565b600080600080608085870312156144b0576144af613b6a565b5b60006144be87828801613d0b565b94505060206144cf87828801614481565b93505060406144e087828801614481565b92505060606144f187828801613d0b565b91505092959194509250565b61450681613fed565b82525050565b600060608201905061452160008301866144fd565b61452e60208301856144fd565b81810360408301526145408184613c8f565b9050949350505050565b6000819050919050565b600061456f61456a61456584613d4d565b61454a565b613d4d565b9050919050565b600061458182614554565b9050919050565b600061459382614576565b9050919050565b6145a381614588565b82525050565b60006020820190506145be600083018461459a565b92915050565b6145cd81613bf9565b82525050565b6145dc81613fed565b82525050565b610140820160008201516145f960008501826145c4565b50602082015161460c60208501826145d3565b50604082015161461f60408501826145d3565b50606082015161463260608501826145d3565b50608082015161464560808501826145d3565b5060a082015161465860a08501826145d3565b5060c082015161466b60c08501826145d3565b5060e082015161467e60e08501826145d3565b506101008201516146936101008501826145d3565b506101208201516146a86101208501826145d3565b50505050565b6000610140820190506146c460008301846145e2565b92915050565b600080604083850312156146e1576146e0613b6a565b5b60006146ef85828601613df8565b92505060206147008582860161403d565b9150509250929050565b600080fd5b600067ffffffffffffffff82111561472a57614729613f72565b5b61473382613c7e565b9050602081019050919050565b82818337600083830152505050565b600061476261475d8461470f565b613fd2565b90508281526020810184848401111561477e5761477d61470a565b5b614789848285614740565b509392505050565b600082601f8301126147a6576147a56140ca565b5b81356147b684826020860161474f565b91505092915050565b600080600080608085870312156147d9576147d8613b6a565b5b60006147e787828801613df8565b94505060206147f887828801613df8565b935050604061480987828801613d0b565b925050606085013567ffffffffffffffff81111561482a57614829613b6f565b5b61483687828801614791565b91505092959194509250565b600061484d82614576565b9050919050565b61485d81614842565b82525050565b60006020820190506148786000830184614854565b92915050565b600061014082019050614894600083018d613c05565b6148a1602083018c6144fd565b6148ae604083018b6144fd565b6148bb606083018a6144fd565b6148c860808301896144fd565b6148d560a08301886144fd565b6148e260c08301876144fd565b6148ef60e08301866144fd565b6148fd6101008301856144fd565b61490b6101208301846144fd565b9b9a5050505050505050505050565b600061492582614576565b9050919050565b6149358161491a565b82525050565b6000602082019050614950600083018461492c565b92915050565b6000806040838503121561496d5761496c613b6a565b5b600061497b85828601613df8565b925050602061498c85828601613df8565b9150509250929050565b60006149a182614576565b9050919050565b6149b181614996565b82525050565b60006020820190506149cc60008301846149a8565b92915050565b7f4e487b7100000000000000000000000000000000000000000000000000000000600052602260045260246000fd5b60006002820490506001821680614a1957607f821691505b60208210811415614a2d57614a2c6149d2565b5b50919050565b7f4552433732313a20617070726f76656420717565727920666f72206e6f6e657860008201527f697374656e7420746f6b656e0000000000000000000000000000000000000000602082015250565b6000614a8f602c83613c3a565b9150614a9a82614a33565b604082019050919050565b60006020820190508181036000830152614abe81614a82565b9050919050565b7f4552433732313a20617070726f76616c20746f2063757272656e74206f776e6560008201527f7200000000000000000000000000000000000000000000000000000000000000602082015250565b6000614b21602183613c3a565b9150614b2c82614ac5565b604082019050919050565b60006020820190508181036000830152614b5081614b14565b9050919050565b7f4552433732313a20617070726f76652063616c6c6572206973206e6f74206f7760008201527f6e6572206e6f7220617070726f76656420666f7220616c6c0000000000000000602082015250565b6000614bb3603883613c3a565b9150614bbe82614b57565b604082019050919050565b60006020820190508181036000830152614be281614ba6565b9050919050565b7f4552433732313a207472616e736665722063616c6c6572206973206e6f74206f60008201527f776e6572206e6f7220617070726f766564000000000000000000000000000000602082015250565b6000614c45603183613c3a565b9150614c5082614be9565b604082019050919050565b60006020820190508181036000830152614c7481614c38565b9050919050565b7f4e487b7100000000000000000000000000000000000000000000000000000000600052601160045260246000fd5b6000614cb582613cea565b9150614cc083613cea565b9250817fffffffffffffffffffffffffffffffffffffffffffffffffffffffffffffffff0483118215151615614cf957614cf8614c7b565b5b828202905092915050565b7f4e487b7100000000000000000000000000000000000000000000000000000000600052601260045260246000fd5b6000614d3e82613cea565b9150614d4983613cea565b925082614d5957614d58614d04565b5b828204905092915050565b7f4f776e61626c653a2063616c6c6572206973206e6f7420746865206f776e6572600082015250565b6000614d9a602083613c3a565b9150614da582614d64565b602082019050919050565b60006020820190508181036000830152614dc981614d8d565b9050919050565b7f4f6e6c7920746865204d696e742063616e2066756c66696c6c00000000000000600082015250565b6000614e06601983613c3a565b9150614e1182614dd0565b602082019050919050565b60006020820190508181036000830152614e3581614df9565b9050919050565b7f4d696e742072657175657374206e6f7420666f756e6400000000000000000000600082015250565b6000614e72601683613c3a565b9150614e7d82614e3c565b602082019050919050565b60006020820190508181036000830152614ea181614e65565b9050919050565b7f4e487b7100000000000000000000000000000000000000000000000000000000600052603260045260246000fd5b6000614ee282613da9565b915061ffff821415614ef757614ef6614c7b565b5b600182019050919050565b6000614f0d82613cea565b91507fffffffffffffffffffffffffffffffffffffffffffffffffffffffffffffffff821415614f4057614f3f614c7b565b5b600182019050919050565b600081519050919050565b600082825260208201905092915050565b6000819050602082019050919050565b614f8081613da9565b82525050565b6000614f928383614f77565b60208301905092915050565b6000602082019050919050565b6000614fb682614f4b565b614fc08185614f56565b9350614fcb83614f67565b8060005b83811015614ffc578151614fe38882614f86565b9750614fee83614f9e565b925050600181019050614fcf565b5085935050505092915050565b600060408201905061501e6000830185613d7f565b81810360208301526150308184614fab565b90509392505050565b7f496e697469616c697a61626c653a20636f6e747261637420697320616c72656160008201527f647920696e697469616c697a6564000000000000000000000000000000000000602082015250565b6000615095602e83613c3a565b91506150a082615039565b604082019050919050565b600060208201905081810360008301526150c481615088565b9050919050565b7f5061757361626c653a2070617573656400000000000000000000000000000000600082015250565b6000615101601083613c3a565b915061510c826150cb565b602082019050919050565b60006020820190508181036000830152615130816150f4565b9050919050565b7f454f41206f6e6c79000000000000000000000000000000000000000000000000600082015250565b600061516d600883613c3a565b915061517882615137565b602082019050919050565b6000602082019050818103600083015261519c81615160565b9050919050565b7f496e76616c6964206d696e7420616d6f756e7400000000000000000000000000600082015250565b60006151d9601383613c3a565b91506151e4826151a3565b602082019050919050565b60006020820190508181036000830152615208816151cc565b9050919050565b600061521a82613da9565b915061522583613da9565b92508261ffff0382111561523c5761523b614c7b565b5b828201905092915050565b7f416c6c20746f6b656e73206d696e746564000000000000000000000000000000600082015250565b600061527d601183613c3a565b915061528882615247565b602082019050919050565b600060208201905081810360008301526152ac81615270565b9050919050565b7f4e6f7420656e6f7567682047656e203020746f6b656e73206c6566742c20726560008201527f6475636520616d6f756e74000000000000000000000000000000000000000000602082015250565b600061530f602b83613c3a565b915061531a826152b3565b604082019050919050565b6000602082019050818103600083015261533e81615302565b9050919050565b7f496e76616c6964207061796d656e7420616d6f756e7400000000000000000000600082015250565b600061537b601683613c3a565b915061538682615345565b602082019050919050565b600060208201905081810360008301526153aa8161536e565b9050919050565b7f496e76616c6964207061796d656e7420747970652c20616363657074696e672060008201527f666f6f6420746f6b656e73206f6e6c7900000000000000000000000000000000602082015250565b600061540d603083613c3a565b9150615418826153b1565b604082019050919050565b6000602082019050818103600083015261543c81615400565b9050919050565b600061544e82613cea565b915061545983613cea565b9250827fffffffffffffffffffffffffffffffffffffffffffffffffffffffffffffffff0382111561548e5761548d614c7b565b5b828201905092915050565b60006040820190506154ae6000830185613d7f565b6154bb6020830184613ea0565b9392505050565b60006060820190506154d76000830186613d7f565b6154e460208301856144fd565b6154f16040830184613c05565b949350505050565b60008151905061550881613ed4565b92915050565b60006020828403121561552457615523613b6a565b5b6000615532848285016154f9565b91505092915050565b7f4552433732313a206f776e657220717565727920666f72206e6f6e657869737460008201527f656e7420746f6b656e0000000000000000000000000000000000000000000000602082015250565b6000615597602983613c3a565b91506155a28261553b565b604082019050919050565b600060208201905081810360008301526155c68161558a565b9050919050565b7f4f6e6c7920636f6e74726f6c6c6572732063616e207570646174650000000000600082015250565b6000615603601b83613c3a565b915061560e826155cd565b602082019050919050565b60006020820190508181036000830152615632816155f6565b9050919050565b6156428161445d565b82525050565b600060c08201905061565d6000830189613c05565b61566a60208301886144fd565b61567760408301876144fd565b6156846060830186615639565b6156916080830185615639565b61569e60a0830184613ea0565b979650505050505050565b6000815190506156b881613ffa565b92915050565b600067ffffffffffffffff8211156156d9576156d8613f72565b5b6156e282613c7e565b9050602081019050919050565b60006157026156fd846156be565b613fd2565b90508281526020810184848401111561571e5761571d61470a565b5b615729848285613c4b565b509392505050565b600082601f830112615746576157456140ca565b5b81516157568482602086016156ef565b91505092915050565b60008060006060848603121561577857615777613b6a565b5b6000615786868287016156a9565b9350506020615797868287016156a9565b925050604084015167ffffffffffffffff8111156157b8576157b7613b6f565b5b6157c486828701615731565b9150509250925092565b7f4552433732313a2062616c616e636520717565727920666f7220746865207a6560008201527f726f206164647265737300000000000000000000000000000000000000000000602082015250565b600061582a602a83613c3a565b9150615835826157ce565b604082019050919050565b600060208201905081810360008301526158598161581d565b9050919050565b7f4552433732314d657461646174613a2055524920717565727920666f72206e6f60008201527f6e2d6578697374656e7420746f6b656e00000000000000000000000000000000602082015250565b60006158bc603083613c3a565b91506158c782615860565b604082019050919050565b600060208201905081810360008301526158eb816158af565b9050919050565b60006020828403121561590857615907613b6a565b5b600082015167ffffffffffffffff81111561592657615925613b6f565b5b61593284828501615731565b91505092915050565b7f4f776e61626c653a206e6577206f776e657220697320746865207a65726f206160008201527f6464726573730000000000000000000000000000000000000000000000000000602082015250565b6000615997602683613c3a565b91506159a28261593b565b604082019050919050565b600060208201905081810360008301526159c68161598a565b9050919050565b7f4552433732313a206f70657261746f7220717565727920666f72206e6f6e657860008201527f697374656e7420746f6b656e0000000000000000000000000000000000000000602082015250565b6000615a29602c83613c3a565b9150615a34826159cd565b604082019050919050565b60006020820190508181036000830152615a5881615a1c565b9050919050565b7f4552433732313a207472616e73666572206f6620746f6b656e2074686174206960008201527f73206e6f74206f776e0000000000000000000000000000000000000000000000602082015250565b6000615abb602983613c3a565b9150615ac682615a5f565b604082019050919050565b60006020820190508181036000830152615aea81615aae565b9050919050565b7f4552433732313a207472616e7366657220746f20746865207a65726f2061646460008201527f7265737300000000000000000000000000000000000000000000000000000000602082015250565b6000615b4d602483613c3a565b9150615b5882615af1565b604082019050919050565b60006020820190508181036000830152615b7c81615b40565b9050919050565b6000615b8e82613cea565b9150615b9983613cea565b925082821015615bac57615bab614c7b565b5b828203905092915050565b7f496e697469616c697a61626c653a20636f6e7472616374206973206e6f74206960008201527f6e697469616c697a696e67000000000000000000000000000000000000000000602082015250565b6000615c13602b83613c3a565b9150615c1e82615bb7565b604082019050919050565b60006020820190508181036000830152615c4281615c06565b9050919050565b7f4552433732313a20617070726f766520746f2063616c6c657200000000000000600082015250565b6000615c7f601983613c3a565b9150615c8a82615c49565b602082019050919050565b60006020820190508181036000830152615cae81615c72565b9050919050565b7f4552433732313a207472616e7366657220746f206e6f6e20455243373231526560008201527f63656976657220696d706c656d656e7465720000000000000000000000000000602082015250565b6000615d11603283613c3a565b9150615d1c82615cb5565b604082019050919050565b60006020820190508181036000830152615d4081615d04565b9050919050565b600081519050919050565b600082825260208201905092915050565b6000615d6e82615d47565b615d788185615d52565b9350615d88818560208601613c4b565b615d9181613c7e565b840191505092915050565b6000608082019050615db16000830187613d7f565b615dbe6020830186613d7f565b615dcb6040830185613ea0565b8181036060830152615ddd8184615d63565b905095945050505050565b600081519050615df781613ba0565b92915050565b600060208284031215615e1357615e12613b6a565b5b6000615e2184828501615de8565b91505092915050565b7f4552433732313a206d696e7420746f20746865207a65726f2061646472657373600082015250565b6000615e60602083613c3a565b9150615e6b82615e2a565b602082019050919050565b60006020820190508181036000830152615e8f81615e53565b9050919050565b7f4552433732313a20746f6b656e20616c7265616479206d696e74656400000000600082015250565b6000615ecc601c83613c3a565b9150615ed782615e96565b602082019050919050565b60006020820190508181036000830152615efb81615ebf565b905091905056fea2646970667358221220bd34b1e28c30dfb90b1dd3982509930622a6cdc85a65a29045bce4aa1e5cf4e264736f6c634300080a0033",
  "immutableReferences": {},
  "source": "// SPDX-License-Identifier: MIT\n\npragma solidity ^0.8.0;\n\nimport \"@openzeppelin/contracts-upgradeable/proxy/utils/Initializable.sol\";\nimport \"@openzeppelin/contracts-upgradeable/access/OwnableUpgradeable.sol\";\nimport \"@openzeppelin/contracts-upgradeable/security/PausableUpgradeable.sol\";\nimport \"@openzeppelin/contracts-upgradeable/token/ERC721/ERC721Upgradeable.sol\";\nimport \"./ICharacter.sol\";\nimport \"./FastFood.sol\";\nimport \"./IMint.sol\";\nimport \"./ITraits.sol\";\nimport \"./IProperties.sol\";\nimport \"./IVenue.sol\";\n\ncontract Character is ICharacter, Initializable, OwnableUpgradeable, PausableUpgradeable, ERC721Upgradeable {\n  uint16 public minted;\n  uint16 public numChefs;\n  uint16 public numRats;\n  uint256 public mintPrice;\n  uint256 public maxTokens; // Max number of tokens that can be minted - 50000 in production\n  uint256 public gen0Tokens; // Number of tokens that can be claimed for free - 20% of maxTokens\n\n  mapping(uint256 => CharacterStruct) public tokenTraits; // Mapping from tokenId to a struct containing the token's traits\n  mapping(uint256 => uint256) public existingCombinations; // Mapping from hashed(tokenTrait) to the tokenId it's associated with, used to ensure there are no duplicates\n  mapping(address => bool) controllers; // Mapping from an address to whether or not it can mint / burn\n  mapping(bytes32 => uint16[]) public mintRequests;\n\n  FastFood fastFood; // Reference to the $FFOOD contract\n  IMint public theMint; // Reference to Mint\n  ITraits public traits; // Reference to Traits\n  IProperties public properties; // Reference to Properties\n  IVenue public kitchen;\n\n  function initialize(\n    address[] memory _addresses, // fastFood, mint, traits, properties\n    uint256 _maxTokens,\n    uint256 _mintPrice\n  ) external initializer {\n    __Ownable_init();\n    __Pausable_init();\n    __ERC721_init(\"RatAlert Characters\", \"RATCAST\");\n\n    fastFood = FastFood(_addresses[0]);\n    theMint = IMint(_addresses[1]);\n    traits = ITraits(_addresses[2]);\n    properties = IProperties(_addresses[3]);\n    maxTokens = _maxTokens;\n    gen0Tokens = _maxTokens / 5;\n    mintPrice = _mintPrice;\n    minted = 0;\n    numChefs = 0;\n    numRats = 0;\n  }\n\n  /**\n   * ChainLink VRF request: Mints a new ERC721 token: 90% chefs, 10% rats\n   * The first 20% are free to claim, the remaining cost $FFOOD\n   * @param amount Number of tokens to mint\n   * @param stake Number of tokens to mint\n   */\n  function mint(uint8 amount, bool stake) external payable whenNotPaused {\n    require(tx.origin == _msgSender(), \"EOA only\");\n    require(amount > 0 && amount <= 10, \"Invalid mint amount\");\n    require(minted + amount <= maxTokens, \"All tokens minted\");\n    uint256 totalCost = 0;\n    if (minted < gen0Tokens) {\n      require(minted + amount <= gen0Tokens, \"Not enough Gen 0 tokens left, reduce amount\");\n      require(amount * mintPrice == msg.value, \"Invalid payment amount\");\n    } else {\n      require(msg.value == 0, \"Invalid payment type, accepting food tokens only\");\n      for (uint i = 1; i <= amount; i++) {\n        totalCost += mintCost(minted + i);\n      }\n    }\n    if (totalCost > 0) fastFood.burn(_msgSender(), totalCost);\n    bytes32 requestId = theMint.requestRandomNumber(_msgSender(), amount, stake);\n    mintRequests[requestId] = new uint16[](amount);\n    for (uint i = 0; i < amount; i++) {\n      minted++;\n      mintRequests[requestId][i] = minted;\n    }\n  }\n\n  /**\n   *     1 - 10000: cost ETH\n   * 10001 - 20000: 1000 $FFOOD\n   * 20001 - 30000: 1500 $FFOOD\n   * 30001 - 40000: 2000 $FFOOD\n   * 40001 - 50000: 3000 $FFOOD\n   * @param tokenId - The token ID to check\n   * @return The minting cost of the given ID\n   */\n  function mintCost(uint256 tokenId) public view returns (uint256) {\n    if (tokenId <= gen0Tokens) return 0;\n    if (tokenId <= maxTokens * 2 / 5) return 1000 ether;\n    if (tokenId <= maxTokens * 3 / 5) return 1500 ether;\n    if (tokenId <= maxTokens * 4 / 5) return 2000 ether;\n    return 3000 ether;\n  }\n\n  /**\n   * ChainLink VRF callback for mint()\n   * @param v - VRF struct for the corresponding request\n   * @param tokens - List of characters created by the Mint\n   */\n  function fulfillMint(IMint.VRFStruct memory v, CharacterStruct[] memory tokens) external {\n    require(msg.sender == address(theMint), \"Only the Mint can fulfill\");\n    require(mintRequests[v.requestId].length > 0, \"Mint request not found\");\n    uint16[] memory tokenIds = mintRequests[v.requestId];\n    delete mintRequests[v.requestId];\n    for (uint i = 0; i < tokenIds.length; i++) {\n      _safeMint(v.stake ? address(kitchen) : v.sender, tokenIds[i]);\n      tokenTraits[tokenIds[i]] = tokens[i];\n      tokens[i].isChef ? numChefs++ : numRats++;\n    }\n    if (v.stake) kitchen.stakeMany(v.sender, tokenIds);\n  }\n\n  function updateCharacter(uint256 tokenId, int8 efficiencyIncrement, int8 toleranceIncrement, uint256 randomVal) public returns(uint8 efficiencyValue, uint8 toleranceValue, string memory eventName) {\n    require(controllers[msg.sender], \"Only controllers can update\");\n    bool isChef = tokenTraits[tokenId].isChef;\n    uint8 currentEfficiency = tokenTraits[tokenId].efficiency;\n    uint8 currentTolerance = tokenTraits[tokenId].tolerance;\n    (efficiencyValue, toleranceValue, eventName) = properties.getEventUpdates(isChef, currentEfficiency, currentTolerance, efficiencyIncrement, toleranceIncrement, randomVal);\n    tokenTraits[tokenId].efficiency = efficiencyValue;\n    tokenTraits[tokenId].tolerance = toleranceValue;\n  }\n\n  function tokenURI(uint256 tokenId) public view override returns (string memory) {\n    require(_exists(tokenId), \"ERC721Metadata: URI query for non-existent token\");\n    return traits.tokenURI(tokenId);\n  }\n\n  function getTokenTraits(uint256 tokenId) external view override returns (CharacterStruct memory) {\n    require(_exists(tokenId), \"ERC721Metadata: URI query for non-existent token\");\n    return tokenTraits[tokenId];\n  }\n\n  function getGen0Tokens() external view override returns (uint256) {\n    return gen0Tokens;\n  }\n\n  /**\n   * Gets controller status by address\n   * @param controller the address to check\n   */\n  function getController(address controller) external view onlyOwner returns (bool) {\n    return controllers[controller];\n  }\n\n  /**\n   * Enables an address to mint / burn\n   * @param controller the address to enable\n   */\n  function addController(address controller) external onlyOwner {\n    controllers[controller] = true;\n  }\n\n  /**\n   * Disables an address from minting / burning\n   * @param controller the address to disable\n   */\n  function removeController(address controller) external onlyOwner {\n    controllers[controller] = false;\n  }\n\n  /**\n   * Sets the kitchen address to optionally stake newly minted characters in\n   * @param _kitchen - The address of the Kitchen\n   */\n  function setKitchen(address _kitchen) external onlyOwner {\n    kitchen = IVenue(_kitchen);\n  }\n}\n",
  "sourcePath": "/Users/chris/workspace/ratalert/ratalert-contracts/contracts/Character.sol",
  "compiler": {
    "name": "solc",
    "version": "0.8.10+commit.fc410830.Emscripten.clang"
  },
  "schemaVersion": "3.4.5",
  "updatedAt": "2022-03-11T07:53:03.175Z",
  "networkType": "ethereum",
  "devdoc": {
    "kind": "dev",
    "methods": {
      "addController(address)": {
        "params": {
          "controller": "the address to enable"
        }
      },
      "approve(address,uint256)": {
        "details": "See {IERC721-approve}."
      },
      "balanceOf(address)": {
        "details": "See {IERC721-balanceOf}."
      },
      "fulfillMint((bytes32,address,uint8,bool),(bool,uint8,uint8,uint8,uint8,uint8,uint8,uint8,uint8,uint8)[])": {
        "params": {
          "tokens": "- List of characters created by the Mint",
          "v": "- VRF struct for the corresponding request"
        }
      },
      "getApproved(uint256)": {
        "details": "See {IERC721-getApproved}."
      },
      "getController(address)": {
        "params": {
          "controller": "the address to check"
        }
      },
      "isApprovedForAll(address,address)": {
        "details": "See {IERC721-isApprovedForAll}."
      },
      "mint(uint8,bool)": {
        "params": {
          "amount": "Number of tokens to mint",
          "stake": "Number of tokens to mint"
        }
      },
      "mintCost(uint256)": {
        "params": {
          "tokenId": "- The token ID to check"
        },
        "returns": {
          "_0": "The minting cost of the given ID"
        }
      },
      "name()": {
        "details": "See {IERC721Metadata-name}."
      },
      "owner()": {
        "details": "Returns the address of the current owner."
      },
      "ownerOf(uint256)": {
        "details": "See {IERC721-ownerOf}."
      },
      "paused()": {
        "details": "Returns true if the contract is paused, and false otherwise."
      },
      "removeController(address)": {
        "params": {
          "controller": "the address to disable"
        }
      },
      "renounceOwnership()": {
        "details": "Leaves the contract without owner. It will not be possible to call `onlyOwner` functions anymore. Can only be called by the current owner. NOTE: Renouncing ownership will leave the contract without an owner, thereby removing any functionality that is only available to the owner."
      },
      "safeTransferFrom(address,address,uint256)": {
        "details": "See {IERC721-safeTransferFrom}."
      },
      "safeTransferFrom(address,address,uint256,bytes)": {
        "details": "See {IERC721-safeTransferFrom}."
      },
      "setApprovalForAll(address,bool)": {
        "details": "See {IERC721-setApprovalForAll}."
      },
      "setKitchen(address)": {
        "params": {
          "_kitchen": "- The address of the Kitchen"
        }
      },
      "supportsInterface(bytes4)": {
        "details": "See {IERC165-supportsInterface}."
      },
      "symbol()": {
        "details": "See {IERC721Metadata-symbol}."
      },
      "tokenURI(uint256)": {
        "details": "See {IERC721Metadata-tokenURI}."
      },
      "transferFrom(address,address,uint256)": {
        "details": "See {IERC721-transferFrom}."
      },
      "transferOwnership(address)": {
        "details": "Transfers ownership of the contract to a new account (`newOwner`). Can only be called by the current owner."
      }
    },
    "version": 1
  },
  "userdoc": {
    "kind": "user",
    "methods": {
      "addController(address)": {
        "notice": "Enables an address to mint / burn"
      },
      "fulfillMint((bytes32,address,uint8,bool),(bool,uint8,uint8,uint8,uint8,uint8,uint8,uint8,uint8,uint8)[])": {
        "notice": "ChainLink VRF callback for mint()"
      },
      "getController(address)": {
        "notice": "Gets controller status by address"
      },
      "mint(uint8,bool)": {
        "notice": "ChainLink VRF request: Mints a new ERC721 token: 90% chefs, 10% rats The first 20% are free to claim, the remaining cost $FFOOD"
      },
      "mintCost(uint256)": {
        "notice": "1 - 10000: cost ETH 10001 - 20000: 1000 $FFOOD 20001 - 30000: 1500 $FFOOD 30001 - 40000: 2000 $FFOOD 40001 - 50000: 3000 $FFOOD"
      },
      "removeController(address)": {
        "notice": "Disables an address from minting / burning"
      },
      "setKitchen(address)": {
        "notice": "Sets the kitchen address to optionally stake newly minted characters in"
      }
    },
    "version": 1
  }
}