{
  "contractName": "Character",
  "abi": [
    {
      "anonymous": false,
      "inputs": [
        {
          "indexed": true,
          "internalType": "address",
          "name": "owner",
          "type": "address"
        },
        {
          "indexed": true,
          "internalType": "address",
          "name": "approved",
          "type": "address"
        },
        {
          "indexed": true,
          "internalType": "uint256",
          "name": "tokenId",
          "type": "uint256"
        }
      ],
      "name": "Approval",
      "type": "event"
    },
    {
      "anonymous": false,
      "inputs": [
        {
          "indexed": true,
          "internalType": "address",
          "name": "owner",
          "type": "address"
        },
        {
          "indexed": true,
          "internalType": "address",
          "name": "operator",
          "type": "address"
        },
        {
          "indexed": false,
          "internalType": "bool",
          "name": "approved",
          "type": "bool"
        }
      ],
      "name": "ApprovalForAll",
      "type": "event"
    },
    {
      "anonymous": false,
      "inputs": [
        {
          "indexed": true,
          "internalType": "address",
          "name": "previousOwner",
          "type": "address"
        },
        {
          "indexed": true,
          "internalType": "address",
          "name": "newOwner",
          "type": "address"
        }
      ],
      "name": "OwnershipTransferred",
      "type": "event"
    },
    {
      "anonymous": false,
      "inputs": [
        {
          "indexed": false,
          "internalType": "address",
          "name": "account",
          "type": "address"
        }
      ],
      "name": "Paused",
      "type": "event"
    },
    {
      "anonymous": false,
      "inputs": [
        {
          "indexed": true,
          "internalType": "address",
          "name": "from",
          "type": "address"
        },
        {
          "indexed": true,
          "internalType": "address",
          "name": "to",
          "type": "address"
        },
        {
          "indexed": true,
          "internalType": "uint256",
          "name": "tokenId",
          "type": "uint256"
        }
      ],
      "name": "Transfer",
      "type": "event"
    },
    {
      "anonymous": false,
      "inputs": [
        {
          "indexed": false,
          "internalType": "address",
          "name": "account",
          "type": "address"
        }
      ],
      "name": "Unpaused",
      "type": "event"
    },
    {
      "inputs": [
        {
          "internalType": "address",
          "name": "_controller",
          "type": "address"
        }
      ],
      "name": "addController",
      "outputs": [],
      "stateMutability": "nonpayable",
      "type": "function"
    },
    {
      "inputs": [
        {
          "internalType": "address",
          "name": "to",
          "type": "address"
        },
        {
          "internalType": "uint256",
          "name": "tokenId",
          "type": "uint256"
        }
      ],
      "name": "approve",
      "outputs": [],
      "stateMutability": "nonpayable",
      "type": "function"
    },
    {
      "inputs": [
        {
          "internalType": "address",
          "name": "owner",
          "type": "address"
        }
      ],
      "name": "balanceOf",
      "outputs": [
        {
          "internalType": "uint256",
          "name": "",
          "type": "uint256"
        }
      ],
      "stateMutability": "view",
      "type": "function",
      "constant": true
    },
    {
      "inputs": [
        {
          "internalType": "address",
          "name": "_controller",
          "type": "address"
        }
      ],
      "name": "controller",
      "outputs": [
        {
          "internalType": "bool",
          "name": "",
          "type": "bool"
        }
      ],
      "stateMutability": "view",
      "type": "function",
      "constant": true
    },
    {
      "inputs": [
        {
          "internalType": "uint256",
          "name": "tokenId",
          "type": "uint256"
        }
      ],
      "name": "getApproved",
      "outputs": [
        {
          "internalType": "address",
          "name": "",
          "type": "address"
        }
      ],
      "stateMutability": "view",
      "type": "function",
      "constant": true
    },
    {
      "inputs": [
        {
          "internalType": "address",
          "name": "owner",
          "type": "address"
        },
        {
          "internalType": "address",
          "name": "operator",
          "type": "address"
        }
      ],
      "name": "isApprovedForAll",
      "outputs": [
        {
          "internalType": "bool",
          "name": "",
          "type": "bool"
        }
      ],
      "stateMutability": "view",
      "type": "function",
      "constant": true
    },
    {
      "inputs": [],
      "name": "kitchen",
      "outputs": [
        {
          "internalType": "contract IVenue",
          "name": "",
          "type": "address"
        }
      ],
      "stateMutability": "view",
      "type": "function",
      "constant": true
    },
    {
      "inputs": [],
      "name": "maxTokens",
      "outputs": [
        {
          "internalType": "uint256",
          "name": "",
          "type": "uint256"
        }
      ],
      "stateMutability": "view",
      "type": "function",
      "constant": true
    },
    {
      "inputs": [
        {
          "internalType": "bytes32",
          "name": "",
          "type": "bytes32"
        },
        {
          "internalType": "uint256",
          "name": "",
          "type": "uint256"
        }
      ],
      "name": "mintRequests",
      "outputs": [
        {
          "internalType": "uint16",
          "name": "",
          "type": "uint16"
        }
      ],
      "stateMutability": "view",
      "type": "function",
      "constant": true
    },
    {
      "inputs": [],
      "name": "minted",
      "outputs": [
        {
          "internalType": "uint16",
          "name": "",
          "type": "uint16"
        }
      ],
      "stateMutability": "view",
      "type": "function",
      "constant": true
    },
    {
      "inputs": [],
      "name": "name",
      "outputs": [
        {
          "internalType": "string",
          "name": "",
          "type": "string"
        }
      ],
      "stateMutability": "view",
      "type": "function",
      "constant": true
    },
    {
      "inputs": [],
      "name": "numChefs",
      "outputs": [
        {
          "internalType": "uint16",
          "name": "",
          "type": "uint16"
        }
      ],
      "stateMutability": "view",
      "type": "function",
      "constant": true
    },
    {
      "inputs": [],
      "name": "numRats",
      "outputs": [
        {
          "internalType": "uint16",
          "name": "",
          "type": "uint16"
        }
      ],
      "stateMutability": "view",
      "type": "function",
      "constant": true
    },
    {
      "inputs": [],
      "name": "owner",
      "outputs": [
        {
          "internalType": "address",
          "name": "",
          "type": "address"
        }
      ],
      "stateMutability": "view",
      "type": "function",
      "constant": true
    },
    {
      "inputs": [
        {
          "internalType": "uint256",
          "name": "tokenId",
          "type": "uint256"
        }
      ],
      "name": "ownerOf",
      "outputs": [
        {
          "internalType": "address",
          "name": "",
          "type": "address"
        }
      ],
      "stateMutability": "view",
      "type": "function",
      "constant": true
    },
    {
      "inputs": [],
      "name": "pause",
      "outputs": [],
      "stateMutability": "nonpayable",
      "type": "function"
    },
    {
      "inputs": [],
      "name": "paused",
      "outputs": [
        {
          "internalType": "bool",
          "name": "",
          "type": "bool"
        }
      ],
      "stateMutability": "view",
      "type": "function",
      "constant": true
    },
    {
      "inputs": [],
      "name": "paywall",
      "outputs": [
        {
          "internalType": "contract IPaywall",
          "name": "",
          "type": "address"
        }
      ],
      "stateMutability": "view",
      "type": "function",
      "constant": true
    },
    {
      "inputs": [],
      "name": "properties",
      "outputs": [
        {
          "internalType": "contract IProperties",
          "name": "",
          "type": "address"
        }
      ],
      "stateMutability": "view",
      "type": "function",
      "constant": true
    },
    {
      "inputs": [
        {
          "internalType": "address",
          "name": "_controller",
          "type": "address"
        }
      ],
      "name": "removeController",
      "outputs": [],
      "stateMutability": "nonpayable",
      "type": "function"
    },
    {
      "inputs": [],
      "name": "renounceOwnership",
      "outputs": [],
      "stateMutability": "nonpayable",
      "type": "function"
    },
    {
      "inputs": [
        {
          "internalType": "address",
          "name": "from",
          "type": "address"
        },
        {
          "internalType": "address",
          "name": "to",
          "type": "address"
        },
        {
          "internalType": "uint256",
          "name": "tokenId",
          "type": "uint256"
        }
      ],
      "name": "safeTransferFrom",
      "outputs": [],
      "stateMutability": "nonpayable",
      "type": "function"
    },
    {
      "inputs": [
        {
          "internalType": "address",
          "name": "from",
          "type": "address"
        },
        {
          "internalType": "address",
          "name": "to",
          "type": "address"
        },
        {
          "internalType": "uint256",
          "name": "tokenId",
          "type": "uint256"
        },
        {
          "internalType": "bytes",
          "name": "_data",
          "type": "bytes"
        }
      ],
      "name": "safeTransferFrom",
      "outputs": [],
      "stateMutability": "nonpayable",
      "type": "function"
    },
    {
      "inputs": [
        {
          "internalType": "address",
          "name": "operator",
          "type": "address"
        },
        {
          "internalType": "bool",
          "name": "approved",
          "type": "bool"
        }
      ],
      "name": "setApprovalForAll",
      "outputs": [],
      "stateMutability": "nonpayable",
      "type": "function"
    },
    {
      "inputs": [
        {
          "internalType": "bytes4",
          "name": "interfaceId",
          "type": "bytes4"
        }
      ],
      "name": "supportsInterface",
      "outputs": [
        {
          "internalType": "bool",
          "name": "",
          "type": "bool"
        }
      ],
      "stateMutability": "view",
      "type": "function",
      "constant": true
    },
    {
      "inputs": [],
      "name": "symbol",
      "outputs": [
        {
          "internalType": "string",
          "name": "",
          "type": "string"
        }
      ],
      "stateMutability": "view",
      "type": "function",
      "constant": true
    },
    {
      "inputs": [],
      "name": "theMint",
      "outputs": [
        {
          "internalType": "contract IMint",
          "name": "",
          "type": "address"
        }
      ],
      "stateMutability": "view",
      "type": "function",
      "constant": true
    },
    {
      "inputs": [
        {
          "internalType": "uint256",
          "name": "",
          "type": "uint256"
        }
      ],
      "name": "tokenTraits",
      "outputs": [
        {
          "internalType": "bool",
          "name": "isChef",
          "type": "bool"
        },
        {
          "internalType": "uint8",
          "name": "hat",
          "type": "uint8"
        },
        {
          "internalType": "uint8",
          "name": "eyes",
          "type": "uint8"
        },
        {
          "internalType": "uint8",
          "name": "piercing",
          "type": "uint8"
        },
        {
          "internalType": "uint8",
          "name": "mouth",
          "type": "uint8"
        },
        {
          "internalType": "uint8",
          "name": "neck",
          "type": "uint8"
        },
        {
          "internalType": "uint8",
          "name": "hand",
          "type": "uint8"
        },
        {
          "internalType": "uint8",
          "name": "tail",
          "type": "uint8"
        },
        {
          "internalType": "uint8",
          "name": "efficiency",
          "type": "uint8"
        },
        {
          "internalType": "uint8",
          "name": "tolerance",
          "type": "uint8"
        }
      ],
      "stateMutability": "view",
      "type": "function",
      "constant": true
    },
    {
      "inputs": [],
      "name": "traits",
      "outputs": [
        {
          "internalType": "contract ITraits",
          "name": "",
          "type": "address"
        }
      ],
      "stateMutability": "view",
      "type": "function",
      "constant": true
    },
    {
      "inputs": [
        {
          "internalType": "address",
          "name": "from",
          "type": "address"
        },
        {
          "internalType": "address",
          "name": "to",
          "type": "address"
        },
        {
          "internalType": "uint256",
          "name": "tokenId",
          "type": "uint256"
        }
      ],
      "name": "transferFrom",
      "outputs": [],
      "stateMutability": "nonpayable",
      "type": "function"
    },
    {
      "inputs": [
        {
          "internalType": "address",
          "name": "newOwner",
          "type": "address"
        }
      ],
      "name": "transferOwnership",
      "outputs": [],
      "stateMutability": "nonpayable",
      "type": "function"
    },
    {
      "inputs": [],
      "name": "unpause",
      "outputs": [],
      "stateMutability": "nonpayable",
      "type": "function"
    },
    {
      "inputs": [
        {
          "internalType": "address[]",
          "name": "_addresses",
          "type": "address[]"
        },
        {
          "internalType": "uint256",
          "name": "_maxTokens",
          "type": "uint256"
        }
      ],
      "name": "initialize",
      "outputs": [],
      "stateMutability": "nonpayable",
      "type": "function"
    },
    {
      "inputs": [
        {
          "internalType": "uint8",
          "name": "amount",
          "type": "uint8"
        },
        {
          "internalType": "bool",
          "name": "stake",
          "type": "bool"
        }
      ],
      "name": "mint",
      "outputs": [],
      "stateMutability": "payable",
      "type": "function",
      "payable": true
    },
    {
      "inputs": [
        {
          "components": [
            {
              "internalType": "bytes32",
              "name": "requestId",
              "type": "bytes32"
            },
            {
              "internalType": "address",
              "name": "sender",
              "type": "address"
            },
            {
              "internalType": "uint8",
              "name": "amount",
              "type": "uint8"
            },
            {
              "internalType": "bool",
              "name": "stake",
              "type": "bool"
            }
          ],
          "internalType": "struct IMint.VRFStruct",
          "name": "v",
          "type": "tuple"
        },
        {
          "components": [
            {
              "internalType": "bool",
              "name": "isChef",
              "type": "bool"
            },
            {
              "internalType": "uint8",
              "name": "hat",
              "type": "uint8"
            },
            {
              "internalType": "uint8",
              "name": "eyes",
              "type": "uint8"
            },
            {
              "internalType": "uint8",
              "name": "piercing",
              "type": "uint8"
            },
            {
              "internalType": "uint8",
              "name": "mouth",
              "type": "uint8"
            },
            {
              "internalType": "uint8",
              "name": "neck",
              "type": "uint8"
            },
            {
              "internalType": "uint8",
              "name": "hand",
              "type": "uint8"
            },
            {
              "internalType": "uint8",
              "name": "tail",
              "type": "uint8"
            },
            {
              "internalType": "uint8",
              "name": "efficiency",
              "type": "uint8"
            },
            {
              "internalType": "uint8",
              "name": "tolerance",
              "type": "uint8"
            }
          ],
          "internalType": "struct ICharacter.CharacterStruct[]",
          "name": "tokens",
          "type": "tuple[]"
        }
      ],
      "name": "fulfillMint",
      "outputs": [],
      "stateMutability": "nonpayable",
      "type": "function"
    },
    {
      "inputs": [
        {
          "internalType": "uint256",
          "name": "tokenId",
          "type": "uint256"
        },
        {
          "internalType": "int8",
          "name": "efficiencyIncrement",
          "type": "int8"
        },
        {
          "internalType": "int8",
          "name": "toleranceIncrement",
          "type": "int8"
        },
        {
          "internalType": "uint256",
          "name": "randomVal",
          "type": "uint256"
        }
      ],
      "name": "updateCharacter",
      "outputs": [
        {
          "internalType": "uint8",
          "name": "efficiencyValue",
          "type": "uint8"
        },
        {
          "internalType": "uint8",
          "name": "toleranceValue",
          "type": "uint8"
        },
        {
          "internalType": "string",
          "name": "eventName",
          "type": "string"
        }
      ],
      "stateMutability": "nonpayable",
      "type": "function"
    },
    {
      "inputs": [
        {
          "internalType": "uint256",
          "name": "tokenId",
          "type": "uint256"
        }
      ],
      "name": "tokenURI",
      "outputs": [
        {
          "internalType": "string",
          "name": "",
          "type": "string"
        }
      ],
      "stateMutability": "view",
      "type": "function",
      "constant": true
    },
    {
      "inputs": [
        {
          "internalType": "uint256",
          "name": "tokenId",
          "type": "uint256"
        }
      ],
      "name": "getTokenTraits",
      "outputs": [
        {
          "components": [
            {
              "internalType": "bool",
              "name": "isChef",
              "type": "bool"
            },
            {
              "internalType": "uint8",
              "name": "hat",
              "type": "uint8"
            },
            {
              "internalType": "uint8",
              "name": "eyes",
              "type": "uint8"
            },
            {
              "internalType": "uint8",
              "name": "piercing",
              "type": "uint8"
            },
            {
              "internalType": "uint8",
              "name": "mouth",
              "type": "uint8"
            },
            {
              "internalType": "uint8",
              "name": "neck",
              "type": "uint8"
            },
            {
              "internalType": "uint8",
              "name": "hand",
              "type": "uint8"
            },
            {
              "internalType": "uint8",
              "name": "tail",
              "type": "uint8"
            },
            {
              "internalType": "uint8",
              "name": "efficiency",
              "type": "uint8"
            },
            {
              "internalType": "uint8",
              "name": "tolerance",
              "type": "uint8"
            }
          ],
          "internalType": "struct ICharacter.CharacterStruct",
          "name": "",
          "type": "tuple"
        }
      ],
      "stateMutability": "view",
      "type": "function",
      "constant": true
    },
    {
      "inputs": [],
      "name": "getGen0Tokens",
      "outputs": [
        {
          "internalType": "uint256",
          "name": "",
          "type": "uint256"
        }
      ],
      "stateMutability": "view",
      "type": "function",
      "constant": true
    },
    {
      "inputs": [
        {
          "internalType": "address",
          "name": "_kitchen",
          "type": "address"
        }
      ],
      "name": "setKitchen",
      "outputs": [],
      "stateMutability": "nonpayable",
      "type": "function"
    }
  ],
  "bytecode": "0x608060405234801561001057600080fd5b50615d0580620000216000396000f3fe60806040526004361061023b5760003560e01c80637856f9451161012e578063c13aa7b5116100ab578063e83157421161006f578063e831574214610883578063e985e9c5146108ae578063f2fde38b146108eb578063f6a74ed714610914578063fcd802b11461093d5761023b565b8063c13aa7b51461076d578063c87b56dd146107aa578063d39f8a4d146107e7578063e05c57bf14610812578063e1fc334f146108585761023b565b806395d89b41116100f257806395d89b411461069c578063a22cb465146106c7578063a7fc7a07146106f0578063b88d4fde14610719578063ba0909dd146107425761023b565b80637856f945146105c75780638456cb59146105f25780638da5cb5b146106095780639284521c1461063457806394e568471461065f5761023b565b80634a43d1d3116101bc578063612bfba411610180578063612bfba4146104db5780636352211e146104f757806363dbfc771461053457806370a0823114610573578063715018a6146105b05761023b565b80634a43d1d3146104085780634f02c42014610431578063506b17611461045c5780635c975abb1461048757806360b5bb3f146104b25761023b565b806323b872dd1161020357806323b872dd1461033957806332de720914610362578063337f28471461039f5780633f4ba83a146103c857806342842e0e146103df5761023b565b806301ffc9a71461024057806306fdde031461027d578063081812fc146102a85780630917e40d146102e5578063095ea7b314610310575b600080fd5b34801561024c57600080fd5b5061026760048036038101906102629190613bc6565b610968565b6040516102749190613c0e565b60405180910390f35b34801561028957600080fd5b50610292610a4a565b60405161029f9190613cc2565b60405180910390f35b3480156102b457600080fd5b506102cf60048036038101906102ca9190613d1a565b610adc565b6040516102dc9190613d88565b60405180910390f35b3480156102f157600080fd5b506102fa610b61565b6040516103079190613dc0565b60405180910390f35b34801561031c57600080fd5b5061033760048036038101906103329190613e07565b610b75565b005b34801561034557600080fd5b50610360600480360381019061035b9190613e47565b610c8d565b005b34801561036e57600080fd5b5061038960048036038101906103849190613ed0565b610ced565b6040516103969190613dc0565b60405180910390f35b3480156103ab57600080fd5b506103c660048036038101906103c19190613f10565b610d35565b005b3480156103d457600080fd5b506103dd610df6565b005b3480156103eb57600080fd5b5061040660048036038101906104019190613e47565b610e7c565b005b34801561041457600080fd5b5061042f600480360381019061042a919061425f565b610e9c565b005b34801561043d57600080fd5b506104466113e5565b6040516104539190613dc0565b60405180910390f35b34801561046857600080fd5b506104716113f9565b60405161047e919061431a565b60405180910390f35b34801561049357600080fd5b5061049c611420565b6040516104a99190613c0e565b60405180910390f35b3480156104be57600080fd5b506104d960048036038101906104d491906143f8565b611437565b005b6104f560048036038101906104f09190614454565b6117e6565b005b34801561050357600080fd5b5061051e60048036038101906105199190613d1a565b611bb4565b60405161052b9190613d88565b60405180910390f35b34801561054057600080fd5b5061055b600480360381019061055691906144cd565b611c66565b60405161056a93929190614543565b60405180910390f35b34801561057f57600080fd5b5061059a60048036038101906105959190613f10565b611e94565b6040516105a79190614590565b60405180910390f35b3480156105bc57600080fd5b506105c5611f4c565b005b3480156105d357600080fd5b506105dc611fd4565b6040516105e99190614590565b60405180910390f35b3480156105fe57600080fd5b50610607611fde565b005b34801561061557600080fd5b5061061e612064565b60405161062b9190613d88565b60405180910390f35b34801561064057600080fd5b5061064961208e565b60405161065691906145cc565b60405180910390f35b34801561066b57600080fd5b5061068660048036038101906106819190613d1a565b6120b5565b60405161069391906146d1565b60405180910390f35b3480156106a857600080fd5b506106b161224b565b6040516106be9190613cc2565b60405180910390f35b3480156106d357600080fd5b506106ee60048036038101906106e991906146ed565b6122dd565b005b3480156106fc57600080fd5b5061071760048036038101906107129190613f10565b6122f3565b005b34801561072557600080fd5b50610740600480360381019061073b91906147e2565b6123ca565b005b34801561074e57600080fd5b5061075761242c565b6040516107649190614886565b60405180910390f35b34801561077957600080fd5b50610794600480360381019061078f9190613f10565b612453565b6040516107a19190613c0e565b60405180910390f35b3480156107b657600080fd5b506107d160048036038101906107cc9190613d1a565b612525565b6040516107de9190613cc2565b60405180910390f35b3480156107f357600080fd5b506107fc612618565b6040516108099190613dc0565b60405180910390f35b34801561081e57600080fd5b5061083960048036038101906108349190613d1a565b61262c565b60405161084f9a999897969594939291906148a1565b60405180910390f35b34801561086457600080fd5b5061086d612702565b60405161087a919061495e565b60405180910390f35b34801561088f57600080fd5b50610898612729565b6040516108a59190614590565b60405180910390f35b3480156108ba57600080fd5b506108d560048036038101906108d09190614979565b61272f565b6040516108e29190613c0e565b60405180910390f35b3480156108f757600080fd5b50610912600480360381019061090d9190613f10565b6127c3565b005b34801561092057600080fd5b5061093b60048036038101906109369190613f10565b6128bb565b005b34801561094957600080fd5b50610952612992565b60405161095f91906149da565b60405180910390f35b60007f80ac58cd000000000000000000000000000000000000000000000000000000007bffffffffffffffffffffffffffffffffffffffffffffffffffffffff1916827bffffffffffffffffffffffffffffffffffffffffffffffffffffffff19161480610a3357507f5b5e139f000000000000000000000000000000000000000000000000000000007bffffffffffffffffffffffffffffffffffffffffffffffffffffffff1916827bffffffffffffffffffffffffffffffffffffffffffffffffffffffff1916145b80610a435750610a42826129b9565b5b9050919050565b606060c98054610a5990614a24565b80601f0160208091040260200160405190810160405280929190818152602001828054610a8590614a24565b8015610ad25780601f10610aa757610100808354040283529160200191610ad2565b820191906000526020600020905b815481529060010190602001808311610ab557829003601f168201915b5050505050905090565b6000610ae782612a23565b610b26576040517f08c379a0000000000000000000000000000000000000000000000000000000008152600401610b1d90614ac8565b60405180910390fd5b60cd600083815260200190815260200160002060009054906101000a900473ffffffffffffffffffffffffffffffffffffffff169050919050565b60fc60049054906101000a900461ffff1681565b6000610b8082611bb4565b90508073ffffffffffffffffffffffffffffffffffffffff168373ffffffffffffffffffffffffffffffffffffffff161415610bf1576040517f08c379a0000000000000000000000000000000000000000000000000000000008152600401610be890614b5a565b60405180910390fd5b8073ffffffffffffffffffffffffffffffffffffffff16610c10612a8f565b73ffffffffffffffffffffffffffffffffffffffff161480610c3f5750610c3e81610c39612a8f565b61272f565b5b610c7e576040517f08c379a0000000000000000000000000000000000000000000000000000000008152600401610c7590614bec565b60405180910390fd5b610c888383612a97565b505050565b610c9e610c98612a8f565b82612b50565b610cdd576040517f08c379a0000000000000000000000000000000000000000000000000000000008152600401610cd490614c7e565b60405180910390fd5b610ce8838383612c2e565b505050565b6101006020528160005260406000208181548110610d0a57600080fd5b9060005260206000209060109182820401919006600202915091509054906101000a900461ffff1681565b610d3d612a8f565b73ffffffffffffffffffffffffffffffffffffffff16610d5b612064565b73ffffffffffffffffffffffffffffffffffffffff1614610db1576040517f08c379a0000000000000000000000000000000000000000000000000000000008152600401610da890614cea565b60405180910390fd5b8061010460006101000a81548173ffffffffffffffffffffffffffffffffffffffff021916908373ffffffffffffffffffffffffffffffffffffffff16021790555050565b610dfe612a8f565b73ffffffffffffffffffffffffffffffffffffffff16610e1c612064565b73ffffffffffffffffffffffffffffffffffffffff1614610e72576040517f08c379a0000000000000000000000000000000000000000000000000000000008152600401610e6990614cea565b60405180910390fd5b610e7a612e8a565b565b610e97838383604051806020016040528060008152506123ca565b505050565b610ea4611420565b15610ee4576040517f08c379a0000000000000000000000000000000000000000000000000000000008152600401610edb90614d56565b60405180910390fd5b61010160009054906101000a900473ffffffffffffffffffffffffffffffffffffffff1673ffffffffffffffffffffffffffffffffffffffff163373ffffffffffffffffffffffffffffffffffffffff1614610f75576040517f08c379a0000000000000000000000000000000000000000000000000000000008152600401610f6c90614dc2565b60405180910390fd5b60006101006000846000015181526020019081526020016000208054905011610fd3576040517f08c379a0000000000000000000000000000000000000000000000000000000008152600401610fca90614e2e565b60405180910390fd5b600061010060008460000151815260200190815260200160002080548060200260200160405190810160405280929190818152602001828054801561105f57602002820191906000526020600020906000905b82829054906101000a900461ffff1661ffff16815260200190600201906020826001010492830192600103820291508084116110265790505b50505050509050610100600084600001518152602001908152602001600020600061108a9190613975565b60005b8151811015611340576110f584606001516110ac5784602001516110d1565b61010460009054906101000a900473ffffffffffffffffffffffffffffffffffffffff165b8383815181106110e4576110e3614e4e565b5b602002602001015161ffff16612f2c565b82818151811061110857611107614e4e565b5b602002602001015160ff600084848151811061112757611126614e4e565b5b602002602001015161ffff16815260200190815260200160002060008201518160000160006101000a81548160ff02191690831515021790555060208201518160000160016101000a81548160ff021916908360ff16021790555060408201518160000160026101000a81548160ff021916908360ff16021790555060608201518160000160036101000a81548160ff021916908360ff16021790555060808201518160000160046101000a81548160ff021916908360ff16021790555060a08201518160000160056101000a81548160ff021916908360ff16021790555060c08201518160000160066101000a81548160ff021916908360ff16021790555060e08201518160000160076101000a81548160ff021916908360ff1602179055506101008201518160000160086101000a81548160ff021916908360ff1602179055506101208201518160000160096101000a81548160ff021916908360ff1602179055509050508281815181106112a2576112a1614e4e565b5b6020026020010151600001516112f15760fc600481819054906101000a900461ffff16809291906112d290614eac565b91906101000a81548161ffff021916908361ffff16021790555061132c565b60fc600281819054906101000a900461ffff168092919061131190614eac565b91906101000a81548161ffff021916908361ffff1602179055505b50808061133890614ed7565b91505061108d565b508260600151156113e05761010460009054906101000a900473ffffffffffffffffffffffffffffffffffffffff1673ffffffffffffffffffffffffffffffffffffffff1663dbdc1f6b8460200151836040518363ffffffff1660e01b81526004016113ad929190614fde565b600060405180830381600087803b1580156113c757600080fd5b505af11580156113db573d6000803e3d6000fd5b505050505b505050565b60fc60009054906101000a900461ffff1681565b61010560009054906101000a900473ffffffffffffffffffffffffffffffffffffffff1681565b6000606560009054906101000a900460ff16905090565b600060019054906101000a900460ff1661145f5760008054906101000a900460ff1615611468565b611467612f4a565b5b6114a7576040517f08c379a000000000000000000000000000000000000000000000000000000000815260040161149e90615080565b60405180910390fd5b60008060019054906101000a900460ff1615905080156114f7576001600060016101000a81548160ff02191690831515021790555060016000806101000a81548160ff0219169083151502179055505b6114ff612f5b565b611507612fbc565b61157b6040518060400160405280601381526020017f526174416c6572742043686172616374657273000000000000000000000000008152506040518060400160405280600781526020017f524154434153540000000000000000000000000000000000000000000000000081525061301d565b8260008151811061158f5761158e614e4e565b5b602002602001015161010560006101000a81548173ffffffffffffffffffffffffffffffffffffffff021916908373ffffffffffffffffffffffffffffffffffffffff160217905550826001815181106115ec576115eb614e4e565b5b602002602001015161010160006101000a81548173ffffffffffffffffffffffffffffffffffffffff021916908373ffffffffffffffffffffffffffffffffffffffff1602179055508260028151811061164957611648614e4e565b5b602002602001015161010260006101000a81548173ffffffffffffffffffffffffffffffffffffffff021916908373ffffffffffffffffffffffffffffffffffffffff160217905550826003815181106116a6576116a5614e4e565b5b602002602001015161010360006101000a81548173ffffffffffffffffffffffffffffffffffffffff021916908373ffffffffffffffffffffffffffffffffffffffff1602179055508260048151811061170357611702614e4e565b5b602002602001015161010660006101000a81548173ffffffffffffffffffffffffffffffffffffffff021916908373ffffffffffffffffffffffffffffffffffffffff1602179055508160fd8190555060058261176091906150cf565b60fe81905550600060fc60006101000a81548161ffff021916908361ffff160217905550600060fc60026101000a81548161ffff021916908361ffff160217905550600060fc60046101000a81548161ffff021916908361ffff16021790555080156117e15760008060016101000a81548160ff0219169083151502179055505b505050565b6117ee611420565b1561182e576040517f08c379a000000000000000000000000000000000000000000000000000000000815260040161182590614d56565b60405180910390fd5b611836612a8f565b73ffffffffffffffffffffffffffffffffffffffff163273ffffffffffffffffffffffffffffffffffffffff16146118a3576040517f08c379a000000000000000000000000000000000000000000000000000000000815260040161189a9061514c565b60405180910390fd5b61010560009054906101000a900473ffffffffffffffffffffffffffffffffffffffff1673ffffffffffffffffffffffffffffffffffffffff1663abc26c606118ea612a8f565b843460fc60009054906101000a900461ffff1660fd5460fe546040518763ffffffff1660e01b81526004016119249695949392919061516c565b600060405180830381600087803b15801561193e57600080fd5b505af1158015611952573d6000803e3d6000fd5b5050505060003411156119ca5761010660009054906101000a900473ffffffffffffffffffffffffffffffffffffffff1673ffffffffffffffffffffffffffffffffffffffff166108fc349081150290604051600060405180830381858888f193505050501580156119c8573d6000803e3d6000fd5b505b600061010160009054906101000a900473ffffffffffffffffffffffffffffffffffffffff1673ffffffffffffffffffffffffffffffffffffffff1663de864bf9611a13612a8f565b85856040518463ffffffff1660e01b8152600401611a33939291906151cd565b6020604051808303816000875af1158015611a52573d6000803e3d6000fd5b505050506040513d601f19601f82011682018060405250810190611a769190615219565b90508260ff1667ffffffffffffffff811115611a9557611a94613f42565b5b604051908082528060200260200182016040528015611ac35781602001602082028036833780820191505090505b5061010060008381526020019081526020016000209080519060200190611aeb92919061399d565b5060005b8360ff16811015611bae5760fc600081819054906101000a900461ffff1680929190611b1a90614eac565b91906101000a81548161ffff021916908361ffff1602179055505060fc60009054906101000a900461ffff1661010060008481526020019081526020016000208281548110611b6c57611b6b614e4e565b5b90600052602060002090601091828204019190066002026101000a81548161ffff021916908361ffff1602179055508080611ba690614ed7565b915050611aef565b50505050565b60008060cb600084815260200190815260200160002060009054906101000a900473ffffffffffffffffffffffffffffffffffffffff169050600073ffffffffffffffffffffffffffffffffffffffff168173ffffffffffffffffffffffffffffffffffffffff161415611c5d576040517f08c379a0000000000000000000000000000000000000000000000000000000008152600401611c54906152b8565b60405180910390fd5b80915050919050565b600080606060fb60003373ffffffffffffffffffffffffffffffffffffffff1673ffffffffffffffffffffffffffffffffffffffff16815260200190815260200160002060009054906101000a900460ff16611cf7576040517f08c379a0000000000000000000000000000000000000000000000000000000008152600401611cee90615324565b60405180910390fd5b600060ff600089815260200190815260200160002060000160009054906101000a900460ff169050600060ff60008a815260200190815260200160002060000160089054906101000a900460ff169050600060ff60008b815260200190815260200160002060000160099054906101000a900460ff16905061010360009054906101000a900473ffffffffffffffffffffffffffffffffffffffff1673ffffffffffffffffffffffffffffffffffffffff16634718e3088484848d8d8d6040518763ffffffff1660e01b8152600401611dd596959493929190615353565b6000604051808303816000875af1158015611df4573d6000803e3d6000fd5b505050506040513d6000823e3d601f19601f82011682018060405250810190611e1d919061546a565b8096508197508298505050508560ff60008c815260200190815260200160002060000160086101000a81548160ff021916908360ff1602179055508460ff60008c815260200190815260200160002060000160096101000a81548160ff021916908360ff1602179055505050509450945094915050565b60008073ffffffffffffffffffffffffffffffffffffffff168273ffffffffffffffffffffffffffffffffffffffff161415611f05576040517f08c379a0000000000000000000000000000000000000000000000000000000008152600401611efc9061554b565b60405180910390fd5b60cc60008373ffffffffffffffffffffffffffffffffffffffff1673ffffffffffffffffffffffffffffffffffffffff168152602001908152602001600020549050919050565b611f54612a8f565b73ffffffffffffffffffffffffffffffffffffffff16611f72612064565b73ffffffffffffffffffffffffffffffffffffffff1614611fc8576040517f08c379a0000000000000000000000000000000000000000000000000000000008152600401611fbf90614cea565b60405180910390fd5b611fd2600061308a565b565b600060fe54905090565b611fe6612a8f565b73ffffffffffffffffffffffffffffffffffffffff16612004612064565b73ffffffffffffffffffffffffffffffffffffffff161461205a576040517f08c379a000000000000000000000000000000000000000000000000000000000815260040161205190614cea565b60405180910390fd5b612062613150565b565b6000603360009054906101000a900473ffffffffffffffffffffffffffffffffffffffff16905090565b61010160009054906101000a900473ffffffffffffffffffffffffffffffffffffffff1681565b6120bd613a47565b6120c682612a23565b612105576040517f08c379a00000000000000000000000000000000000000000000000000000000081526004016120fc906155dd565b60405180910390fd5b60ff6000838152602001908152602001600020604051806101400160405290816000820160009054906101000a900460ff161515151581526020016000820160019054906101000a900460ff1660ff1660ff1681526020016000820160029054906101000a900460ff1660ff1660ff1681526020016000820160039054906101000a900460ff1660ff1660ff1681526020016000820160049054906101000a900460ff1660ff1660ff1681526020016000820160059054906101000a900460ff1660ff1660ff1681526020016000820160069054906101000a900460ff1660ff1660ff1681526020016000820160079054906101000a900460ff1660ff1660ff1681526020016000820160089054906101000a900460ff1660ff1660ff1681526020016000820160099054906101000a900460ff1660ff1660ff16815250509050919050565b606060ca805461225a90614a24565b80601f016020809104026020016040519081016040528092919081815260200182805461228690614a24565b80156122d35780601f106122a8576101008083540402835291602001916122d3565b820191906000526020600020905b8154815290600101906020018083116122b657829003601f168201915b5050505050905090565b6122ef6122e8612a8f565b83836131f3565b5050565b6122fb612a8f565b73ffffffffffffffffffffffffffffffffffffffff16612319612064565b73ffffffffffffffffffffffffffffffffffffffff161461236f576040517f08c379a000000000000000000000000000000000000000000000000000000000815260040161236690614cea565b60405180910390fd5b600160fb60008373ffffffffffffffffffffffffffffffffffffffff1673ffffffffffffffffffffffffffffffffffffffff16815260200190815260200160002060006101000a81548160ff02191690831515021790555050565b6123db6123d5612a8f565b83612b50565b61241a576040517f08c379a000000000000000000000000000000000000000000000000000000000815260040161241190614c7e565b60405180910390fd5b61242684848484613360565b50505050565b61010460009054906101000a900473ffffffffffffffffffffffffffffffffffffffff1681565b600061245d612a8f565b73ffffffffffffffffffffffffffffffffffffffff1661247b612064565b73ffffffffffffffffffffffffffffffffffffffff16146124d1576040517f08c379a00000000000000000000000000000000000000000000000000000000081526004016124c890614cea565b60405180910390fd5b60fb60008373ffffffffffffffffffffffffffffffffffffffff1673ffffffffffffffffffffffffffffffffffffffff16815260200190815260200160002060009054906101000a900460ff169050919050565b606061253082612a23565b61256f576040517f08c379a0000000000000000000000000000000000000000000000000000000008152600401612566906155dd565b60405180910390fd5b61010260009054906101000a900473ffffffffffffffffffffffffffffffffffffffff1673ffffffffffffffffffffffffffffffffffffffff1663c87b56dd836040518263ffffffff1660e01b81526004016125cb9190614590565b600060405180830381865afa1580156125e8573d6000803e3d6000fd5b505050506040513d6000823e3d601f19601f8201168201806040525081019061261191906155fd565b9050919050565b60fc60029054906101000a900461ffff1681565b60ff6020528060005260406000206000915090508060000160009054906101000a900460ff16908060000160019054906101000a900460ff16908060000160029054906101000a900460ff16908060000160039054906101000a900460ff16908060000160049054906101000a900460ff16908060000160059054906101000a900460ff16908060000160069054906101000a900460ff16908060000160079054906101000a900460ff16908060000160089054906101000a900460ff16908060000160099054906101000a900460ff1690508a565b61010260009054906101000a900473ffffffffffffffffffffffffffffffffffffffff1681565b60fd5481565b600060ce60008473ffffffffffffffffffffffffffffffffffffffff1673ffffffffffffffffffffffffffffffffffffffff16815260200190815260200160002060008373ffffffffffffffffffffffffffffffffffffffff1673ffffffffffffffffffffffffffffffffffffffff16815260200190815260200160002060009054906101000a900460ff16905092915050565b6127cb612a8f565b73ffffffffffffffffffffffffffffffffffffffff166127e9612064565b73ffffffffffffffffffffffffffffffffffffffff161461283f576040517f08c379a000000000000000000000000000000000000000000000000000000000815260040161283690614cea565b60405180910390fd5b600073ffffffffffffffffffffffffffffffffffffffff168173ffffffffffffffffffffffffffffffffffffffff1614156128af576040517f08c379a00000000000000000000000000000000000000000000000000000000081526004016128a6906156b8565b60405180910390fd5b6128b88161308a565b50565b6128c3612a8f565b73ffffffffffffffffffffffffffffffffffffffff166128e1612064565b73ffffffffffffffffffffffffffffffffffffffff1614612937576040517f08c379a000000000000000000000000000000000000000000000000000000000815260040161292e90614cea565b60405180910390fd5b600060fb60008373ffffffffffffffffffffffffffffffffffffffff1673ffffffffffffffffffffffffffffffffffffffff16815260200190815260200160002060006101000a81548160ff02191690831515021790555050565b61010360009054906101000a900473ffffffffffffffffffffffffffffffffffffffff1681565b60007f01ffc9a7000000000000000000000000000000000000000000000000000000007bffffffffffffffffffffffffffffffffffffffffffffffffffffffff1916827bffffffffffffffffffffffffffffffffffffffffffffffffffffffff1916149050919050565b60008073ffffffffffffffffffffffffffffffffffffffff1660cb600084815260200190815260200160002060009054906101000a900473ffffffffffffffffffffffffffffffffffffffff1673ffffffffffffffffffffffffffffffffffffffff1614159050919050565b600033905090565b8160cd600083815260200190815260200160002060006101000a81548173ffffffffffffffffffffffffffffffffffffffff021916908373ffffffffffffffffffffffffffffffffffffffff160217905550808273ffffffffffffffffffffffffffffffffffffffff16612b0a83611bb4565b73ffffffffffffffffffffffffffffffffffffffff167f8c5be1e5ebec7d5bd14f71427d1e84f3dd0314c0f7b2291e5b200ac8c7c3b92560405160405180910390a45050565b6000612b5b82612a23565b612b9a576040517f08c379a0000000000000000000000000000000000000000000000000000000008152600401612b919061574a565b60405180910390fd5b6000612ba583611bb4565b90508073ffffffffffffffffffffffffffffffffffffffff168473ffffffffffffffffffffffffffffffffffffffff161480612c1457508373ffffffffffffffffffffffffffffffffffffffff16612bfc84610adc565b73ffffffffffffffffffffffffffffffffffffffff16145b80612c255750612c24818561272f565b5b91505092915050565b8273ffffffffffffffffffffffffffffffffffffffff16612c4e82611bb4565b73ffffffffffffffffffffffffffffffffffffffff1614612ca4576040517f08c379a0000000000000000000000000000000000000000000000000000000008152600401612c9b906157dc565b60405180910390fd5b600073ffffffffffffffffffffffffffffffffffffffff168273ffffffffffffffffffffffffffffffffffffffff161415612d14576040517f08c379a0000000000000000000000000000000000000000000000000000000008152600401612d0b9061586e565b60405180910390fd5b612d1f8383836133bc565b612d2a600082612a97565b600160cc60008573ffffffffffffffffffffffffffffffffffffffff1673ffffffffffffffffffffffffffffffffffffffff1681526020019081526020016000206000828254612d7a919061588e565b92505081905550600160cc60008473ffffffffffffffffffffffffffffffffffffffff1673ffffffffffffffffffffffffffffffffffffffff1681526020019081526020016000206000828254612dd191906158c2565b925050819055508160cb600083815260200190815260200160002060006101000a81548173ffffffffffffffffffffffffffffffffffffffff021916908373ffffffffffffffffffffffffffffffffffffffff160217905550808273ffffffffffffffffffffffffffffffffffffffff168473ffffffffffffffffffffffffffffffffffffffff167fddf252ad1be2c89b69c2b068fc378daa952ba7f163c4a11628f55a4df523b3ef60405160405180910390a4505050565b612e92611420565b612ed1576040517f08c379a0000000000000000000000000000000000000000000000000000000008152600401612ec890615964565b60405180910390fd5b6000606560006101000a81548160ff0219169083151502179055507f5db9ee0a495bf2e6ff9c91a7834c1ba4fdd244a5e8aa4e537bd38aeae4b073aa612f15612a8f565b604051612f229190613d88565b60405180910390a1565b612f468282604051806020016040528060008152506133c1565b5050565b6000612f553061341c565b15905090565b600060019054906101000a900460ff16612faa576040517f08c379a0000000000000000000000000000000000000000000000000000000008152600401612fa1906159f6565b60405180910390fd5b612fb261342f565b612fba613480565b565b600060019054906101000a900460ff1661300b576040517f08c379a0000000000000000000000000000000000000000000000000000000008152600401613002906159f6565b60405180910390fd5b61301361342f565b61301b6134e1565b565b600060019054906101000a900460ff1661306c576040517f08c379a0000000000000000000000000000000000000000000000000000000008152600401613063906159f6565b60405180910390fd5b61307461342f565b61307c61354d565b613086828261359e565b5050565b6000603360009054906101000a900473ffffffffffffffffffffffffffffffffffffffff16905081603360006101000a81548173ffffffffffffffffffffffffffffffffffffffff021916908373ffffffffffffffffffffffffffffffffffffffff1602179055508173ffffffffffffffffffffffffffffffffffffffff168173ffffffffffffffffffffffffffffffffffffffff167f8be0079c531659141344cd1fd0a4f28419497f9722a3daafe3b4186f6b6457e060405160405180910390a35050565b613158611420565b15613198576040517f08c379a000000000000000000000000000000000000000000000000000000000815260040161318f90614d56565b60405180910390fd5b6001606560006101000a81548160ff0219169083151502179055507f62e78cea01bee320cd4e420270b5ea74000d11b0c9f74754ebdbfc544b05a2586131dc612a8f565b6040516131e99190613d88565b60405180910390a1565b8173ffffffffffffffffffffffffffffffffffffffff168373ffffffffffffffffffffffffffffffffffffffff161415613262576040517f08c379a000000000000000000000000000000000000000000000000000000000815260040161325990615a62565b60405180910390fd5b8060ce60008573ffffffffffffffffffffffffffffffffffffffff1673ffffffffffffffffffffffffffffffffffffffff16815260200190815260200160002060008473ffffffffffffffffffffffffffffffffffffffff1673ffffffffffffffffffffffffffffffffffffffff16815260200190815260200160002060006101000a81548160ff0219169083151502179055508173ffffffffffffffffffffffffffffffffffffffff168373ffffffffffffffffffffffffffffffffffffffff167f17307eab39ab6107e8899845ad3d59bd9653f200f220920489ca2b5937696c31836040516133539190613c0e565b60405180910390a3505050565b61336b848484612c2e565b6133778484848461361f565b6133b6576040517f08c379a00000000000000000000000000000000000000000000000000000000081526004016133ad90615af4565b60405180910390fd5b50505050565b505050565b6133cb83836137a7565b6133d8600084848461361f565b613417576040517f08c379a000000000000000000000000000000000000000000000000000000000815260040161340e90615af4565b60405180910390fd5b505050565b600080823b905060008111915050919050565b600060019054906101000a900460ff1661347e576040517f08c379a0000000000000000000000000000000000000000000000000000000008152600401613475906159f6565b60405180910390fd5b565b600060019054906101000a900460ff166134cf576040517f08c379a00000000000000000000000000000000000000000000000000000000081526004016134c6906159f6565b60405180910390fd5b6134df6134da612a8f565b61308a565b565b600060019054906101000a900460ff16613530576040517f08c379a0000000000000000000000000000000000000000000000000000000008152600401613527906159f6565b60405180910390fd5b6000606560006101000a81548160ff021916908315150217905550565b600060019054906101000a900460ff1661359c576040517f08c379a0000000000000000000000000000000000000000000000000000000008152600401613593906159f6565b60405180910390fd5b565b600060019054906101000a900460ff166135ed576040517f08c379a00000000000000000000000000000000000000000000000000000000081526004016135e4906159f6565b60405180910390fd5b8160c99080519060200190613603929190613ab7565b508060ca908051906020019061361a929190613ab7565b505050565b60006136408473ffffffffffffffffffffffffffffffffffffffff1661341c565b1561379a578373ffffffffffffffffffffffffffffffffffffffff1663150b7a02613669612a8f565b8786866040518563ffffffff1660e01b815260040161368b9493929190615b69565b6020604051808303816000875af19250505080156136c757506040513d601f19601f820116820180604052508101906136c49190615bca565b60015b61374a573d80600081146136f7576040519150601f19603f3d011682016040523d82523d6000602084013e6136fc565b606091505b50600081511415613742576040517f08c379a000000000000000000000000000000000000000000000000000000000815260040161373990615af4565b60405180910390fd5b805181602001fd5b63150b7a0260e01b7bffffffffffffffffffffffffffffffffffffffffffffffffffffffff1916817bffffffffffffffffffffffffffffffffffffffffffffffffffffffff19161491505061379f565b600190505b949350505050565b600073ffffffffffffffffffffffffffffffffffffffff168273ffffffffffffffffffffffffffffffffffffffff161415613817576040517f08c379a000000000000000000000000000000000000000000000000000000000815260040161380e90615c43565b60405180910390fd5b61382081612a23565b15613860576040517f08c379a000000000000000000000000000000000000000000000000000000000815260040161385790615caf565b60405180910390fd5b61386c600083836133bc565b600160cc60008473ffffffffffffffffffffffffffffffffffffffff1673ffffffffffffffffffffffffffffffffffffffff16815260200190815260200160002060008282546138bc91906158c2565b925050819055508160cb600083815260200190815260200160002060006101000a81548173ffffffffffffffffffffffffffffffffffffffff021916908373ffffffffffffffffffffffffffffffffffffffff160217905550808273ffffffffffffffffffffffffffffffffffffffff16600073ffffffffffffffffffffffffffffffffffffffff167fddf252ad1be2c89b69c2b068fc378daa952ba7f163c4a11628f55a4df523b3ef60405160405180910390a45050565b50805460008255600f01601090049060005260206000209081019061399a9190613b3d565b50565b82805482825590600052602060002090600f01601090048101928215613a365791602002820160005b83821115613a0657835183826101000a81548161ffff021916908361ffff16021790555092602001926002016020816001010492830192600103026139c6565b8015613a345782816101000a81549061ffff0219169055600201602081600101049283019260010302613a06565b505b509050613a439190613b3d565b5090565b604051806101400160405280600015158152602001600060ff168152602001600060ff168152602001600060ff168152602001600060ff168152602001600060ff168152602001600060ff168152602001600060ff168152602001600060ff168152602001600060ff1681525090565b828054613ac390614a24565b90600052602060002090601f016020900481019282613ae55760008555613b2c565b82601f10613afe57805160ff1916838001178555613b2c565b82800160010185558215613b2c579182015b82811115613b2b578251825591602001919060010190613b10565b5b509050613b399190613b3d565b5090565b5b80821115613b56576000816000905550600101613b3e565b5090565b6000604051905090565b600080fd5b600080fd5b60007fffffffff0000000000000000000000000000000000000000000000000000000082169050919050565b613ba381613b6e565b8114613bae57600080fd5b50565b600081359050613bc081613b9a565b92915050565b600060208284031215613bdc57613bdb613b64565b5b6000613bea84828501613bb1565b91505092915050565b60008115159050919050565b613c0881613bf3565b82525050565b6000602082019050613c236000830184613bff565b92915050565b600081519050919050565b600082825260208201905092915050565b60005b83811015613c63578082015181840152602081019050613c48565b83811115613c72576000848401525b50505050565b6000601f19601f8301169050919050565b6000613c9482613c29565b613c9e8185613c34565b9350613cae818560208601613c45565b613cb781613c78565b840191505092915050565b60006020820190508181036000830152613cdc8184613c89565b905092915050565b6000819050919050565b613cf781613ce4565b8114613d0257600080fd5b50565b600081359050613d1481613cee565b92915050565b600060208284031215613d3057613d2f613b64565b5b6000613d3e84828501613d05565b91505092915050565b600073ffffffffffffffffffffffffffffffffffffffff82169050919050565b6000613d7282613d47565b9050919050565b613d8281613d67565b82525050565b6000602082019050613d9d6000830184613d79565b92915050565b600061ffff82169050919050565b613dba81613da3565b82525050565b6000602082019050613dd56000830184613db1565b92915050565b613de481613d67565b8114613def57600080fd5b50565b600081359050613e0181613ddb565b92915050565b60008060408385031215613e1e57613e1d613b64565b5b6000613e2c85828601613df2565b9250506020613e3d85828601613d05565b9150509250929050565b600080600060608486031215613e6057613e5f613b64565b5b6000613e6e86828701613df2565b9350506020613e7f86828701613df2565b9250506040613e9086828701613d05565b9150509250925092565b6000819050919050565b613ead81613e9a565b8114613eb857600080fd5b50565b600081359050613eca81613ea4565b92915050565b60008060408385031215613ee757613ee6613b64565b5b6000613ef585828601613ebb565b9250506020613f0685828601613d05565b9150509250929050565b600060208284031215613f2657613f25613b64565b5b6000613f3484828501613df2565b91505092915050565b600080fd5b7f4e487b7100000000000000000000000000000000000000000000000000000000600052604160045260246000fd5b613f7a82613c78565b810181811067ffffffffffffffff82111715613f9957613f98613f42565b5b80604052505050565b6000613fac613b5a565b9050613fb88282613f71565b919050565b600060ff82169050919050565b613fd381613fbd565b8114613fde57600080fd5b50565b600081359050613ff081613fca565b92915050565b613fff81613bf3565b811461400a57600080fd5b50565b60008135905061401c81613ff6565b92915050565b60006080828403121561403857614037613f3d565b5b6140426080613fa2565b9050600061405284828501613ebb565b600083015250602061406684828501613df2565b602083015250604061407a84828501613fe1565b604083015250606061408e8482850161400d565b60608301525092915050565b600080fd5b600067ffffffffffffffff8211156140ba576140b9613f42565b5b602082029050602081019050919050565b600080fd5b600061014082840312156140e7576140e6613f3d565b5b6140f2610140613fa2565b905060006141028482850161400d565b600083015250602061411684828501613fe1565b602083015250604061412a84828501613fe1565b604083015250606061413e84828501613fe1565b606083015250608061415284828501613fe1565b60808301525060a061416684828501613fe1565b60a08301525060c061417a84828501613fe1565b60c08301525060e061418e84828501613fe1565b60e0830152506101006141a384828501613fe1565b610100830152506101206141b984828501613fe1565b6101208301525092915050565b60006141d96141d48461409f565b613fa2565b90508083825260208201905061014084028301858111156141fd576141fc6140cb565b5b835b81811015614227578061421288826140d0565b845260208401935050610140810190506141ff565b5050509392505050565b600082601f8301126142465761424561409a565b5b81356142568482602086016141c6565b91505092915050565b60008060a0838503121561427657614275613b64565b5b600061428485828601614022565b925050608083013567ffffffffffffffff8111156142a5576142a4613b69565b5b6142b185828601614231565b9150509250929050565b6000819050919050565b60006142e06142db6142d684613d47565b6142bb565b613d47565b9050919050565b60006142f2826142c5565b9050919050565b6000614304826142e7565b9050919050565b614314816142f9565b82525050565b600060208201905061432f600083018461430b565b92915050565b600067ffffffffffffffff8211156143505761434f613f42565b5b602082029050602081019050919050565b600061437461436f84614335565b613fa2565b90508083825260208201905060208402830185811115614397576143966140cb565b5b835b818110156143c057806143ac8882613df2565b845260208401935050602081019050614399565b5050509392505050565b600082601f8301126143df576143de61409a565b5b81356143ef848260208601614361565b91505092915050565b6000806040838503121561440f5761440e613b64565b5b600083013567ffffffffffffffff81111561442d5761442c613b69565b5b614439858286016143ca565b925050602061444a85828601613d05565b9150509250929050565b6000806040838503121561446b5761446a613b64565b5b600061447985828601613fe1565b925050602061448a8582860161400d565b9150509250929050565b60008160000b9050919050565b6144aa81614494565b81146144b557600080fd5b50565b6000813590506144c7816144a1565b92915050565b600080600080608085870312156144e7576144e6613b64565b5b60006144f587828801613d05565b9450506020614506878288016144b8565b9350506040614517878288016144b8565b925050606061452887828801613d05565b91505092959194509250565b61453d81613fbd565b82525050565b60006060820190506145586000830186614534565b6145656020830185614534565b81810360408301526145778184613c89565b9050949350505050565b61458a81613ce4565b82525050565b60006020820190506145a56000830184614581565b92915050565b60006145b6826142e7565b9050919050565b6145c6816145ab565b82525050565b60006020820190506145e160008301846145bd565b92915050565b6145f081613bf3565b82525050565b6145ff81613fbd565b82525050565b6101408201600082015161461c60008501826145e7565b50602082015161462f60208501826145f6565b50604082015161464260408501826145f6565b50606082015161465560608501826145f6565b50608082015161466860808501826145f6565b5060a082015161467b60a08501826145f6565b5060c082015161468e60c08501826145f6565b5060e08201516146a160e08501826145f6565b506101008201516146b66101008501826145f6565b506101208201516146cb6101208501826145f6565b50505050565b6000610140820190506146e76000830184614605565b92915050565b6000806040838503121561470457614703613b64565b5b600061471285828601613df2565b92505060206147238582860161400d565b9150509250929050565b600080fd5b600067ffffffffffffffff82111561474d5761474c613f42565b5b61475682613c78565b9050602081019050919050565b82818337600083830152505050565b600061478561478084614732565b613fa2565b9050828152602081018484840111156147a1576147a061472d565b5b6147ac848285614763565b509392505050565b600082601f8301126147c9576147c861409a565b5b81356147d9848260208601614772565b91505092915050565b600080600080608085870312156147fc576147fb613b64565b5b600061480a87828801613df2565b945050602061481b87828801613df2565b935050604061482c87828801613d05565b925050606085013567ffffffffffffffff81111561484d5761484c613b69565b5b614859878288016147b4565b91505092959194509250565b6000614870826142e7565b9050919050565b61488081614865565b82525050565b600060208201905061489b6000830184614877565b92915050565b6000610140820190506148b7600083018d613bff565b6148c4602083018c614534565b6148d1604083018b614534565b6148de606083018a614534565b6148eb6080830189614534565b6148f860a0830188614534565b61490560c0830187614534565b61491260e0830186614534565b614920610100830185614534565b61492e610120830184614534565b9b9a5050505050505050505050565b6000614948826142e7565b9050919050565b6149588161493d565b82525050565b6000602082019050614973600083018461494f565b92915050565b600080604083850312156149905761498f613b64565b5b600061499e85828601613df2565b92505060206149af85828601613df2565b9150509250929050565b60006149c4826142e7565b9050919050565b6149d4816149b9565b82525050565b60006020820190506149ef60008301846149cb565b92915050565b7f4e487b7100000000000000000000000000000000000000000000000000000000600052602260045260246000fd5b60006002820490506001821680614a3c57607f821691505b60208210811415614a5057614a4f6149f5565b5b50919050565b7f4552433732313a20617070726f76656420717565727920666f72206e6f6e657860008201527f697374656e7420746f6b656e0000000000000000000000000000000000000000602082015250565b6000614ab2602c83613c34565b9150614abd82614a56565b604082019050919050565b60006020820190508181036000830152614ae181614aa5565b9050919050565b7f4552433732313a20617070726f76616c20746f2063757272656e74206f776e6560008201527f7200000000000000000000000000000000000000000000000000000000000000602082015250565b6000614b44602183613c34565b9150614b4f82614ae8565b604082019050919050565b60006020820190508181036000830152614b7381614b37565b9050919050565b7f4552433732313a20617070726f76652063616c6c6572206973206e6f74206f7760008201527f6e6572206e6f7220617070726f76656420666f7220616c6c0000000000000000602082015250565b6000614bd6603883613c34565b9150614be182614b7a565b604082019050919050565b60006020820190508181036000830152614c0581614bc9565b9050919050565b7f4552433732313a207472616e736665722063616c6c6572206973206e6f74206f60008201527f776e6572206e6f7220617070726f766564000000000000000000000000000000602082015250565b6000614c68603183613c34565b9150614c7382614c0c565b604082019050919050565b60006020820190508181036000830152614c9781614c5b565b9050919050565b7f4f776e61626c653a2063616c6c6572206973206e6f7420746865206f776e6572600082015250565b6000614cd4602083613c34565b9150614cdf82614c9e565b602082019050919050565b60006020820190508181036000830152614d0381614cc7565b9050919050565b7f5061757361626c653a2070617573656400000000000000000000000000000000600082015250565b6000614d40601083613c34565b9150614d4b82614d0a565b602082019050919050565b60006020820190508181036000830152614d6f81614d33565b9050919050565b7f4f6e6c7920746865204d696e742063616e2066756c66696c6c00000000000000600082015250565b6000614dac601983613c34565b9150614db782614d76565b602082019050919050565b60006020820190508181036000830152614ddb81614d9f565b9050919050565b7f4d696e742072657175657374206e6f7420666f756e6400000000000000000000600082015250565b6000614e18601683613c34565b9150614e2382614de2565b602082019050919050565b60006020820190508181036000830152614e4781614e0b565b9050919050565b7f4e487b7100000000000000000000000000000000000000000000000000000000600052603260045260246000fd5b7f4e487b7100000000000000000000000000000000000000000000000000000000600052601160045260246000fd5b6000614eb782613da3565b915061ffff821415614ecc57614ecb614e7d565b5b600182019050919050565b6000614ee282613ce4565b91507fffffffffffffffffffffffffffffffffffffffffffffffffffffffffffffffff821415614f1557614f14614e7d565b5b600182019050919050565b600081519050919050565b600082825260208201905092915050565b6000819050602082019050919050565b614f5581613da3565b82525050565b6000614f678383614f4c565b60208301905092915050565b6000602082019050919050565b6000614f8b82614f20565b614f958185614f2b565b9350614fa083614f3c565b8060005b83811015614fd1578151614fb88882614f5b565b9750614fc383614f73565b925050600181019050614fa4565b5085935050505092915050565b6000604082019050614ff36000830185613d79565b81810360208301526150058184614f80565b90509392505050565b7f496e697469616c697a61626c653a20636f6e747261637420697320616c72656160008201527f647920696e697469616c697a6564000000000000000000000000000000000000602082015250565b600061506a602e83613c34565b91506150758261500e565b604082019050919050565b600060208201905081810360008301526150998161505d565b9050919050565b7f4e487b7100000000000000000000000000000000000000000000000000000000600052601260045260246000fd5b60006150da82613ce4565b91506150e583613ce4565b9250826150f5576150f46150a0565b5b828204905092915050565b7f454f41206f6e6c79000000000000000000000000000000000000000000000000600082015250565b6000615136600883613c34565b915061514182615100565b602082019050919050565b6000602082019050818103600083015261516581615129565b9050919050565b600060c0820190506151816000830189613d79565b61518e6020830188614534565b61519b6040830187614581565b6151a86060830186613db1565b6151b56080830185614581565b6151c260a0830184614581565b979650505050505050565b60006060820190506151e26000830186613d79565b6151ef6020830185614534565b6151fc6040830184613bff565b949350505050565b60008151905061521381613ea4565b92915050565b60006020828403121561522f5761522e613b64565b5b600061523d84828501615204565b91505092915050565b7f4552433732313a206f776e657220717565727920666f72206e6f6e657869737460008201527f656e7420746f6b656e0000000000000000000000000000000000000000000000602082015250565b60006152a2602983613c34565b91506152ad82615246565b604082019050919050565b600060208201905081810360008301526152d181615295565b9050919050565b7f4f6e6c7920636f6e74726f6c6c6572732063616e206578656375746500000000600082015250565b600061530e601c83613c34565b9150615319826152d8565b602082019050919050565b6000602082019050818103600083015261533d81615301565b9050919050565b61534d81614494565b82525050565b600060c0820190506153686000830189613bff565b6153756020830188614534565b6153826040830187614534565b61538f6060830186615344565b61539c6080830185615344565b6153a960a0830184614581565b979650505050505050565b6000815190506153c381613fca565b92915050565b600067ffffffffffffffff8211156153e4576153e3613f42565b5b6153ed82613c78565b9050602081019050919050565b600061540d615408846153c9565b613fa2565b9050828152602081018484840111156154295761542861472d565b5b615434848285613c45565b509392505050565b600082601f8301126154515761545061409a565b5b81516154618482602086016153fa565b91505092915050565b60008060006060848603121561548357615482613b64565b5b6000615491868287016153b4565b93505060206154a2868287016153b4565b925050604084015167ffffffffffffffff8111156154c3576154c2613b69565b5b6154cf8682870161543c565b9150509250925092565b7f4552433732313a2062616c616e636520717565727920666f7220746865207a6560008201527f726f206164647265737300000000000000000000000000000000000000000000602082015250565b6000615535602a83613c34565b9150615540826154d9565b604082019050919050565b6000602082019050818103600083015261556481615528565b9050919050565b7f4552433732314d657461646174613a2055524920717565727920666f72206e6f60008201527f6e2d6578697374656e7420746f6b656e00000000000000000000000000000000602082015250565b60006155c7603083613c34565b91506155d28261556b565b604082019050919050565b600060208201905081810360008301526155f6816155ba565b9050919050565b60006020828403121561561357615612613b64565b5b600082015167ffffffffffffffff81111561563157615630613b69565b5b61563d8482850161543c565b91505092915050565b7f4f776e61626c653a206e6577206f776e657220697320746865207a65726f206160008201527f6464726573730000000000000000000000000000000000000000000000000000602082015250565b60006156a2602683613c34565b91506156ad82615646565b604082019050919050565b600060208201905081810360008301526156d181615695565b9050919050565b7f4552433732313a206f70657261746f7220717565727920666f72206e6f6e657860008201527f697374656e7420746f6b656e0000000000000000000000000000000000000000602082015250565b6000615734602c83613c34565b915061573f826156d8565b604082019050919050565b6000602082019050818103600083015261576381615727565b9050919050565b7f4552433732313a207472616e73666572206f6620746f6b656e2074686174206960008201527f73206e6f74206f776e0000000000000000000000000000000000000000000000602082015250565b60006157c6602983613c34565b91506157d18261576a565b604082019050919050565b600060208201905081810360008301526157f5816157b9565b9050919050565b7f4552433732313a207472616e7366657220746f20746865207a65726f2061646460008201527f7265737300000000000000000000000000000000000000000000000000000000602082015250565b6000615858602483613c34565b9150615863826157fc565b604082019050919050565b600060208201905081810360008301526158878161584b565b9050919050565b600061589982613ce4565b91506158a483613ce4565b9250828210156158b7576158b6614e7d565b5b828203905092915050565b60006158cd82613ce4565b91506158d883613ce4565b9250827fffffffffffffffffffffffffffffffffffffffffffffffffffffffffffffffff0382111561590d5761590c614e7d565b5b828201905092915050565b7f5061757361626c653a206e6f7420706175736564000000000000000000000000600082015250565b600061594e601483613c34565b915061595982615918565b602082019050919050565b6000602082019050818103600083015261597d81615941565b9050919050565b7f496e697469616c697a61626c653a20636f6e7472616374206973206e6f74206960008201527f6e697469616c697a696e67000000000000000000000000000000000000000000602082015250565b60006159e0602b83613c34565b91506159eb82615984565b604082019050919050565b60006020820190508181036000830152615a0f816159d3565b9050919050565b7f4552433732313a20617070726f766520746f2063616c6c657200000000000000600082015250565b6000615a4c601983613c34565b9150615a5782615a16565b602082019050919050565b60006020820190508181036000830152615a7b81615a3f565b9050919050565b7f4552433732313a207472616e7366657220746f206e6f6e20455243373231526560008201527f63656976657220696d706c656d656e7465720000000000000000000000000000602082015250565b6000615ade603283613c34565b9150615ae982615a82565b604082019050919050565b60006020820190508181036000830152615b0d81615ad1565b9050919050565b600081519050919050565b600082825260208201905092915050565b6000615b3b82615b14565b615b458185615b1f565b9350615b55818560208601613c45565b615b5e81613c78565b840191505092915050565b6000608082019050615b7e6000830187613d79565b615b8b6020830186613d79565b615b986040830185614581565b8181036060830152615baa8184615b30565b905095945050505050565b600081519050615bc481613b9a565b92915050565b600060208284031215615be057615bdf613b64565b5b6000615bee84828501615bb5565b91505092915050565b7f4552433732313a206d696e7420746f20746865207a65726f2061646472657373600082015250565b6000615c2d602083613c34565b9150615c3882615bf7565b602082019050919050565b60006020820190508181036000830152615c5c81615c20565b9050919050565b7f4552433732313a20746f6b656e20616c7265616479206d696e74656400000000600082015250565b6000615c99601c83613c34565b9150615ca482615c63565b602082019050919050565b60006020820190508181036000830152615cc881615c8c565b905091905056fea2646970667358221220b36932d3c9d52cfc892cde0866cd6b88d5939ccaca3dd9c0c3ffe1327d301ff764736f6c634300080a0033",
  "immutableReferences": {},
  "source": "// SPDX-License-Identifier: MIT\n\npragma solidity ^0.8.0;\n\nimport \"@openzeppelin/contracts-upgradeable/proxy/utils/Initializable.sol\";\nimport \"@openzeppelin/contracts-upgradeable/token/ERC721/ERC721Upgradeable.sol\";\nimport \"./GenericPausable.sol\";\nimport \"./ControllableUpgradeable.sol\";\nimport \"./ICharacter.sol\";\nimport \"./IMint.sol\";\nimport \"./ITraits.sol\";\nimport \"./IProperties.sol\";\nimport \"./IVenue.sol\";\nimport \"./IPaywall.sol\";\n\ncontract Character is ICharacter, Initializable, OwnableUpgradeable, GenericPausable, ERC721Upgradeable, ControllableUpgradeable {\n  uint16 public minted;\n  uint16 public numChefs;\n  uint16 public numRats;\n  uint256 public maxTokens; // Max number of tokens that can be minted\n  uint256 gen0Tokens; // Number of tokens that are purchased with native token\n\n  mapping(uint256 => CharacterStruct) public tokenTraits; // Mapping from tokenId to a struct containing the token's traits\n  mapping(bytes32 => uint16[]) public mintRequests;\n\n  IMint public theMint; // Reference to Mint\n  ITraits public traits; // Reference to Traits\n  IProperties public properties; // Reference to Properties\n  IVenue public kitchen;\n  IPaywall public paywall;\n  address payable dao;\n\n  function initialize(\n    address[] memory _addresses, // paywall, mint, traits, properties, dao\n    uint256 _maxTokens\n  ) external initializer {\n    __Ownable_init();\n    __Pausable_init();\n    __ERC721_init(\"RatAlert Characters\", \"RATCAST\");\n\n    paywall = IPaywall(_addresses[0]);\n    theMint = IMint(_addresses[1]);\n    traits = ITraits(_addresses[2]);\n    properties = IProperties(_addresses[3]);\n    dao = payable(_addresses[4]);\n    maxTokens = _maxTokens;\n    gen0Tokens = _maxTokens / 5;\n    minted = 0;\n    numChefs = 0;\n    numRats = 0;\n  }\n\n  /**\n   * ChainLink VRF request: Mints a new ERC721 token: 90% chefs, 10% rats\n   * The first 20% are purchased with native token, the remaining cost $FFOOD\n   * @param amount Number of tokens to mint\n   * @param stake Number of tokens to mint\n   */\n  function mint(uint8 amount, bool stake) external payable whenNotPaused {\n    require(tx.origin == _msgSender(), \"EOA only\");\n    paywall.handle(_msgSender(), amount, msg.value, minted, maxTokens, gen0Tokens);\n    if (msg.value > 0) {\n      dao.transfer(msg.value); // Transfer to Gnosis Safe\n    }\n    bytes32 requestId = theMint.requestRandomNumber(_msgSender(), amount, stake);\n    mintRequests[requestId] = new uint16[](amount);\n    for (uint i = 0; i < amount; i++) {\n      minted++;\n      mintRequests[requestId][i] = minted;\n    }\n  }\n\n  /**\n   * ChainLink VRF callback for mint()\n   * @param v - VRF struct for the corresponding request\n   * @param tokens - List of characters created by the Mint\n   */\n  function fulfillMint(IMint.VRFStruct memory v, CharacterStruct[] memory tokens) external whenNotPaused {\n    require(msg.sender == address(theMint), \"Only the Mint can fulfill\");\n    require(mintRequests[v.requestId].length > 0, \"Mint request not found\");\n    uint16[] memory tokenIds = mintRequests[v.requestId];\n    delete mintRequests[v.requestId];\n    for (uint i = 0; i < tokenIds.length; i++) {\n      _safeMint(v.stake ? address(kitchen) : v.sender, tokenIds[i]);\n      tokenTraits[tokenIds[i]] = tokens[i];\n      tokens[i].isChef ? numChefs++ : numRats++;\n    }\n    if (v.stake) kitchen.stakeMany(v.sender, tokenIds);\n  }\n\n  function updateCharacter(uint256 tokenId, int8 efficiencyIncrement, int8 toleranceIncrement, uint256 randomVal) public onlyController returns(uint8 efficiencyValue, uint8 toleranceValue, string memory eventName) {\n    bool isChef = tokenTraits[tokenId].isChef;\n    uint8 currentEfficiency = tokenTraits[tokenId].efficiency;\n    uint8 currentTolerance = tokenTraits[tokenId].tolerance;\n    (efficiencyValue, toleranceValue, eventName) = properties.getEventUpdates(isChef, currentEfficiency, currentTolerance, efficiencyIncrement, toleranceIncrement, randomVal);\n    tokenTraits[tokenId].efficiency = efficiencyValue;\n    tokenTraits[tokenId].tolerance = toleranceValue;\n  }\n\n  function tokenURI(uint256 tokenId) public view override returns (string memory) {\n    require(_exists(tokenId), \"ERC721Metadata: URI query for non-existent token\");\n    return traits.tokenURI(tokenId);\n  }\n\n  function getTokenTraits(uint256 tokenId) external view override returns (CharacterStruct memory) {\n    require(_exists(tokenId), \"ERC721Metadata: URI query for non-existent token\");\n    return tokenTraits[tokenId];\n  }\n\n  function getGen0Tokens() external view override returns (uint256) {\n    return gen0Tokens;\n  }\n\n  /**\n   * Sets the kitchen address to optionally stake newly minted characters in\n   * @param _kitchen - The address of the Kitchen\n   */\n  function setKitchen(address _kitchen) external onlyOwner {\n    kitchen = IVenue(_kitchen);\n  }\n}\n",
  "sourcePath": "/Users/chris/workspace/ratalert/ratalert-contracts/contracts/Character.sol",
  "compiler": {
    "name": "solc",
    "version": "0.8.10+commit.fc410830.Emscripten.clang"
  },
  "schemaVersion": "3.4.5",
  "updatedAt": "2022-03-13T08:25:23.957Z",
  "networkType": "ethereum",
  "devdoc": {
    "kind": "dev",
    "methods": {
      "addController(address)": {
        "params": {
          "_controller": "- The address to enable"
        }
      },
      "approve(address,uint256)": {
        "details": "See {IERC721-approve}."
      },
      "balanceOf(address)": {
        "details": "See {IERC721-balanceOf}."
      },
      "controller(address)": {
        "params": {
          "_controller": "- The address to check"
        }
      },
      "fulfillMint((bytes32,address,uint8,bool),(bool,uint8,uint8,uint8,uint8,uint8,uint8,uint8,uint8,uint8)[])": {
        "params": {
          "tokens": "- List of characters created by the Mint",
          "v": "- VRF struct for the corresponding request"
        }
      },
      "getApproved(uint256)": {
        "details": "See {IERC721-getApproved}."
      },
      "isApprovedForAll(address,address)": {
        "details": "See {IERC721-isApprovedForAll}."
      },
      "mint(uint8,bool)": {
        "params": {
          "amount": "Number of tokens to mint",
          "stake": "Number of tokens to mint"
        }
      },
      "name()": {
        "details": "See {IERC721Metadata-name}."
      },
      "owner()": {
        "details": "Returns the address of the current owner."
      },
      "ownerOf(uint256)": {
        "details": "See {IERC721-ownerOf}."
      },
      "paused()": {
        "details": "Returns true if the contract is paused, and false otherwise."
      },
      "removeController(address)": {
        "params": {
          "_controller": "- The address to disable"
        }
      },
      "renounceOwnership()": {
        "details": "Leaves the contract without owner. It will not be possible to call `onlyOwner` functions anymore. Can only be called by the current owner. NOTE: Renouncing ownership will leave the contract without an owner, thereby removing any functionality that is only available to the owner."
      },
      "safeTransferFrom(address,address,uint256)": {
        "details": "See {IERC721-safeTransferFrom}."
      },
      "safeTransferFrom(address,address,uint256,bytes)": {
        "details": "See {IERC721-safeTransferFrom}."
      },
      "setApprovalForAll(address,bool)": {
        "details": "See {IERC721-setApprovalForAll}."
      },
      "setKitchen(address)": {
        "params": {
          "_kitchen": "- The address of the Kitchen"
        }
      },
      "supportsInterface(bytes4)": {
        "details": "See {IERC165-supportsInterface}."
      },
      "symbol()": {
        "details": "See {IERC721Metadata-symbol}."
      },
      "tokenURI(uint256)": {
        "details": "See {IERC721Metadata-tokenURI}."
      },
      "transferFrom(address,address,uint256)": {
        "details": "See {IERC721-transferFrom}."
      },
      "transferOwnership(address)": {
        "details": "Transfers ownership of the contract to a new account (`newOwner`). Can only be called by the current owner."
      }
    },
    "version": 1
  },
  "userdoc": {
    "kind": "user",
    "methods": {
      "addController(address)": {
        "notice": "Enables an address to mint / burn"
      },
      "controller(address)": {
        "notice": "Gets controller status by address"
      },
      "fulfillMint((bytes32,address,uint8,bool),(bool,uint8,uint8,uint8,uint8,uint8,uint8,uint8,uint8,uint8)[])": {
        "notice": "ChainLink VRF callback for mint()"
      },
      "mint(uint8,bool)": {
        "notice": "ChainLink VRF request: Mints a new ERC721 token: 90% chefs, 10% rats The first 20% are purchased with native token, the remaining cost $FFOOD"
      },
      "removeController(address)": {
        "notice": "Disables an address from minting / burning"
      },
      "setKitchen(address)": {
        "notice": "Sets the kitchen address to optionally stake newly minted characters in"
      }
    },
    "version": 1
  }
}