{
  "contractName": "Character",
  "abi": [
    {
      "anonymous": false,
      "inputs": [
        {
          "indexed": true,
          "internalType": "address",
          "name": "owner",
          "type": "address"
        },
        {
          "indexed": true,
          "internalType": "address",
          "name": "approved",
          "type": "address"
        },
        {
          "indexed": true,
          "internalType": "uint256",
          "name": "tokenId",
          "type": "uint256"
        }
      ],
      "name": "Approval",
      "type": "event"
    },
    {
      "anonymous": false,
      "inputs": [
        {
          "indexed": true,
          "internalType": "address",
          "name": "owner",
          "type": "address"
        },
        {
          "indexed": true,
          "internalType": "address",
          "name": "operator",
          "type": "address"
        },
        {
          "indexed": false,
          "internalType": "bool",
          "name": "approved",
          "type": "bool"
        }
      ],
      "name": "ApprovalForAll",
      "type": "event"
    },
    {
      "anonymous": false,
      "inputs": [
        {
          "indexed": true,
          "internalType": "address",
          "name": "previousOwner",
          "type": "address"
        },
        {
          "indexed": true,
          "internalType": "address",
          "name": "newOwner",
          "type": "address"
        }
      ],
      "name": "OwnershipTransferred",
      "type": "event"
    },
    {
      "anonymous": false,
      "inputs": [
        {
          "indexed": false,
          "internalType": "address",
          "name": "account",
          "type": "address"
        }
      ],
      "name": "Paused",
      "type": "event"
    },
    {
      "anonymous": false,
      "inputs": [
        {
          "indexed": true,
          "internalType": "address",
          "name": "from",
          "type": "address"
        },
        {
          "indexed": true,
          "internalType": "address",
          "name": "to",
          "type": "address"
        },
        {
          "indexed": true,
          "internalType": "uint256",
          "name": "tokenId",
          "type": "uint256"
        }
      ],
      "name": "Transfer",
      "type": "event"
    },
    {
      "anonymous": false,
      "inputs": [
        {
          "indexed": false,
          "internalType": "address",
          "name": "account",
          "type": "address"
        }
      ],
      "name": "Unpaused",
      "type": "event"
    },
    {
      "inputs": [],
      "name": "MAX_TOKENS",
      "outputs": [
        {
          "internalType": "uint256",
          "name": "",
          "type": "uint256"
        }
      ],
      "stateMutability": "view",
      "type": "function",
      "constant": true
    },
    {
      "inputs": [],
      "name": "PAID_TOKENS",
      "outputs": [
        {
          "internalType": "uint256",
          "name": "",
          "type": "uint256"
        }
      ],
      "stateMutability": "view",
      "type": "function",
      "constant": true
    },
    {
      "inputs": [
        {
          "internalType": "address",
          "name": "to",
          "type": "address"
        },
        {
          "internalType": "uint256",
          "name": "tokenId",
          "type": "uint256"
        }
      ],
      "name": "approve",
      "outputs": [],
      "stateMutability": "nonpayable",
      "type": "function"
    },
    {
      "inputs": [
        {
          "internalType": "address",
          "name": "owner",
          "type": "address"
        }
      ],
      "name": "balanceOf",
      "outputs": [
        {
          "internalType": "uint256",
          "name": "",
          "type": "uint256"
        }
      ],
      "stateMutability": "view",
      "type": "function",
      "constant": true
    },
    {
      "inputs": [
        {
          "internalType": "uint256",
          "name": "",
          "type": "uint256"
        }
      ],
      "name": "existingCombinations",
      "outputs": [
        {
          "internalType": "uint256",
          "name": "",
          "type": "uint256"
        }
      ],
      "stateMutability": "view",
      "type": "function",
      "constant": true
    },
    {
      "inputs": [
        {
          "internalType": "uint256",
          "name": "tokenId",
          "type": "uint256"
        }
      ],
      "name": "getApproved",
      "outputs": [
        {
          "internalType": "address",
          "name": "",
          "type": "address"
        }
      ],
      "stateMutability": "view",
      "type": "function",
      "constant": true
    },
    {
      "inputs": [
        {
          "internalType": "address",
          "name": "owner",
          "type": "address"
        },
        {
          "internalType": "address",
          "name": "operator",
          "type": "address"
        }
      ],
      "name": "isApprovedForAll",
      "outputs": [
        {
          "internalType": "bool",
          "name": "",
          "type": "bool"
        }
      ],
      "stateMutability": "view",
      "type": "function",
      "constant": true
    },
    {
      "inputs": [],
      "name": "kitchen",
      "outputs": [
        {
          "internalType": "contract IVenue",
          "name": "",
          "type": "address"
        }
      ],
      "stateMutability": "view",
      "type": "function",
      "constant": true
    },
    {
      "inputs": [],
      "name": "mintPrice",
      "outputs": [
        {
          "internalType": "uint256",
          "name": "",
          "type": "uint256"
        }
      ],
      "stateMutability": "view",
      "type": "function",
      "constant": true
    },
    {
      "inputs": [],
      "name": "minted",
      "outputs": [
        {
          "internalType": "uint16",
          "name": "",
          "type": "uint16"
        }
      ],
      "stateMutability": "view",
      "type": "function",
      "constant": true
    },
    {
      "inputs": [],
      "name": "name",
      "outputs": [
        {
          "internalType": "string",
          "name": "",
          "type": "string"
        }
      ],
      "stateMutability": "view",
      "type": "function",
      "constant": true
    },
    {
      "inputs": [],
      "name": "numChefs",
      "outputs": [
        {
          "internalType": "uint16",
          "name": "",
          "type": "uint16"
        }
      ],
      "stateMutability": "view",
      "type": "function",
      "constant": true
    },
    {
      "inputs": [],
      "name": "numRats",
      "outputs": [
        {
          "internalType": "uint16",
          "name": "",
          "type": "uint16"
        }
      ],
      "stateMutability": "view",
      "type": "function",
      "constant": true
    },
    {
      "inputs": [],
      "name": "owner",
      "outputs": [
        {
          "internalType": "address",
          "name": "",
          "type": "address"
        }
      ],
      "stateMutability": "view",
      "type": "function",
      "constant": true
    },
    {
      "inputs": [
        {
          "internalType": "uint256",
          "name": "tokenId",
          "type": "uint256"
        }
      ],
      "name": "ownerOf",
      "outputs": [
        {
          "internalType": "address",
          "name": "",
          "type": "address"
        }
      ],
      "stateMutability": "view",
      "type": "function",
      "constant": true
    },
    {
      "inputs": [],
      "name": "paused",
      "outputs": [
        {
          "internalType": "bool",
          "name": "",
          "type": "bool"
        }
      ],
      "stateMutability": "view",
      "type": "function",
      "constant": true
    },
    {
      "inputs": [],
      "name": "properties",
      "outputs": [
        {
          "internalType": "contract IProperties",
          "name": "",
          "type": "address"
        }
      ],
      "stateMutability": "view",
      "type": "function",
      "constant": true
    },
    {
      "inputs": [
        {
          "internalType": "uint256",
          "name": "",
          "type": "uint256"
        },
        {
          "internalType": "uint256",
          "name": "",
          "type": "uint256"
        }
      ],
      "name": "rarities",
      "outputs": [
        {
          "internalType": "uint8",
          "name": "",
          "type": "uint8"
        }
      ],
      "stateMutability": "view",
      "type": "function",
      "constant": true
    },
    {
      "inputs": [],
      "name": "renounceOwnership",
      "outputs": [],
      "stateMutability": "nonpayable",
      "type": "function"
    },
    {
      "inputs": [
        {
          "internalType": "address",
          "name": "from",
          "type": "address"
        },
        {
          "internalType": "address",
          "name": "to",
          "type": "address"
        },
        {
          "internalType": "uint256",
          "name": "tokenId",
          "type": "uint256"
        }
      ],
      "name": "safeTransferFrom",
      "outputs": [],
      "stateMutability": "nonpayable",
      "type": "function"
    },
    {
      "inputs": [
        {
          "internalType": "address",
          "name": "from",
          "type": "address"
        },
        {
          "internalType": "address",
          "name": "to",
          "type": "address"
        },
        {
          "internalType": "uint256",
          "name": "tokenId",
          "type": "uint256"
        },
        {
          "internalType": "bytes",
          "name": "_data",
          "type": "bytes"
        }
      ],
      "name": "safeTransferFrom",
      "outputs": [],
      "stateMutability": "nonpayable",
      "type": "function"
    },
    {
      "inputs": [
        {
          "internalType": "address",
          "name": "operator",
          "type": "address"
        },
        {
          "internalType": "bool",
          "name": "approved",
          "type": "bool"
        }
      ],
      "name": "setApprovalForAll",
      "outputs": [],
      "stateMutability": "nonpayable",
      "type": "function"
    },
    {
      "inputs": [
        {
          "internalType": "bytes4",
          "name": "interfaceId",
          "type": "bytes4"
        }
      ],
      "name": "supportsInterface",
      "outputs": [
        {
          "internalType": "bool",
          "name": "",
          "type": "bool"
        }
      ],
      "stateMutability": "view",
      "type": "function",
      "constant": true
    },
    {
      "inputs": [],
      "name": "symbol",
      "outputs": [
        {
          "internalType": "string",
          "name": "",
          "type": "string"
        }
      ],
      "stateMutability": "view",
      "type": "function",
      "constant": true
    },
    {
      "inputs": [
        {
          "internalType": "uint256",
          "name": "",
          "type": "uint256"
        }
      ],
      "name": "tokenTraits",
      "outputs": [
        {
          "internalType": "bool",
          "name": "isChef",
          "type": "bool"
        },
        {
          "internalType": "uint8",
          "name": "hat",
          "type": "uint8"
        },
        {
          "internalType": "uint8",
          "name": "eyes",
          "type": "uint8"
        },
        {
          "internalType": "uint8",
          "name": "piercing",
          "type": "uint8"
        },
        {
          "internalType": "uint8",
          "name": "mouth",
          "type": "uint8"
        },
        {
          "internalType": "uint8",
          "name": "neck",
          "type": "uint8"
        },
        {
          "internalType": "uint8",
          "name": "hand",
          "type": "uint8"
        },
        {
          "internalType": "uint8",
          "name": "tail",
          "type": "uint8"
        },
        {
          "internalType": "uint8",
          "name": "efficiency",
          "type": "uint8"
        },
        {
          "internalType": "uint8",
          "name": "tolerance",
          "type": "uint8"
        }
      ],
      "stateMutability": "view",
      "type": "function",
      "constant": true
    },
    {
      "inputs": [],
      "name": "traits",
      "outputs": [
        {
          "internalType": "contract ITraits",
          "name": "",
          "type": "address"
        }
      ],
      "stateMutability": "view",
      "type": "function",
      "constant": true
    },
    {
      "inputs": [
        {
          "internalType": "address",
          "name": "from",
          "type": "address"
        },
        {
          "internalType": "address",
          "name": "to",
          "type": "address"
        },
        {
          "internalType": "uint256",
          "name": "tokenId",
          "type": "uint256"
        }
      ],
      "name": "transferFrom",
      "outputs": [],
      "stateMutability": "nonpayable",
      "type": "function"
    },
    {
      "inputs": [
        {
          "internalType": "address",
          "name": "newOwner",
          "type": "address"
        }
      ],
      "name": "transferOwnership",
      "outputs": [],
      "stateMutability": "nonpayable",
      "type": "function"
    },
    {
      "inputs": [
        {
          "internalType": "address",
          "name": "_traits",
          "type": "address"
        },
        {
          "internalType": "address",
          "name": "_properties",
          "type": "address"
        },
        {
          "internalType": "uint256",
          "name": "_maxTokens",
          "type": "uint256"
        },
        {
          "internalType": "uint256",
          "name": "_mintPrice",
          "type": "uint256"
        }
      ],
      "name": "initialize",
      "outputs": [],
      "stateMutability": "nonpayable",
      "type": "function"
    },
    {
      "inputs": [
        {
          "internalType": "uint8",
          "name": "amount",
          "type": "uint8"
        },
        {
          "internalType": "bool",
          "name": "stake",
          "type": "bool"
        }
      ],
      "name": "mint",
      "outputs": [],
      "stateMutability": "payable",
      "type": "function",
      "payable": true
    },
    {
      "inputs": [
        {
          "internalType": "uint256",
          "name": "tokenId",
          "type": "uint256"
        },
        {
          "internalType": "int8",
          "name": "efficiencyIncrement",
          "type": "int8"
        },
        {
          "internalType": "int8",
          "name": "toleranceIncrement",
          "type": "int8"
        }
      ],
      "name": "updateCharacter",
      "outputs": [
        {
          "internalType": "uint8",
          "name": "efficiencyValue",
          "type": "uint8"
        },
        {
          "internalType": "uint8",
          "name": "toleranceValue",
          "type": "uint8"
        },
        {
          "internalType": "string",
          "name": "eventName",
          "type": "string"
        }
      ],
      "stateMutability": "nonpayable",
      "type": "function"
    },
    {
      "inputs": [
        {
          "internalType": "uint256",
          "name": "tokenId",
          "type": "uint256"
        }
      ],
      "name": "tokenURI",
      "outputs": [
        {
          "internalType": "string",
          "name": "",
          "type": "string"
        }
      ],
      "stateMutability": "view",
      "type": "function",
      "constant": true
    },
    {
      "inputs": [
        {
          "internalType": "uint256",
          "name": "tokenId",
          "type": "uint256"
        }
      ],
      "name": "getTokenTraits",
      "outputs": [
        {
          "components": [
            {
              "internalType": "bool",
              "name": "isChef",
              "type": "bool"
            },
            {
              "internalType": "uint8",
              "name": "hat",
              "type": "uint8"
            },
            {
              "internalType": "uint8",
              "name": "eyes",
              "type": "uint8"
            },
            {
              "internalType": "uint8",
              "name": "piercing",
              "type": "uint8"
            },
            {
              "internalType": "uint8",
              "name": "mouth",
              "type": "uint8"
            },
            {
              "internalType": "uint8",
              "name": "neck",
              "type": "uint8"
            },
            {
              "internalType": "uint8",
              "name": "hand",
              "type": "uint8"
            },
            {
              "internalType": "uint8",
              "name": "tail",
              "type": "uint8"
            },
            {
              "internalType": "uint8",
              "name": "efficiency",
              "type": "uint8"
            },
            {
              "internalType": "uint8",
              "name": "tolerance",
              "type": "uint8"
            }
          ],
          "internalType": "struct ICharacter.CharacterStruct",
          "name": "",
          "type": "tuple"
        }
      ],
      "stateMutability": "view",
      "type": "function",
      "constant": true
    },
    {
      "inputs": [],
      "name": "getPaidTokens",
      "outputs": [
        {
          "internalType": "uint256",
          "name": "",
          "type": "uint256"
        }
      ],
      "stateMutability": "view",
      "type": "function",
      "constant": true
    },
    {
      "inputs": [
        {
          "internalType": "address",
          "name": "controller",
          "type": "address"
        }
      ],
      "name": "getController",
      "outputs": [
        {
          "internalType": "bool",
          "name": "",
          "type": "bool"
        }
      ],
      "stateMutability": "view",
      "type": "function",
      "constant": true
    },
    {
      "inputs": [
        {
          "internalType": "address",
          "name": "controller",
          "type": "address"
        }
      ],
      "name": "addController",
      "outputs": [],
      "stateMutability": "nonpayable",
      "type": "function"
    },
    {
      "inputs": [
        {
          "internalType": "address",
          "name": "controller",
          "type": "address"
        }
      ],
      "name": "removeController",
      "outputs": [],
      "stateMutability": "nonpayable",
      "type": "function"
    },
    {
      "inputs": [
        {
          "internalType": "address",
          "name": "_kitchen",
          "type": "address"
        }
      ],
      "name": "setKitchen",
      "outputs": [],
      "stateMutability": "nonpayable",
      "type": "function"
    }
  ],
  "bytecode": "0x608060405234801561001057600080fd5b50615b2980620000216000396000f3fe6080604052600436106102255760003560e01c806394e5684711610123578063d39f8a4d116100ab578063eb990c591161006f578063eb990c5914610867578063f2fde38b14610890578063f47c84c5146108b9578063f6a74ed7146108e4578063fcd802b11461090d57610225565b8063d39f8a4d1461074f578063d8ffcfcb1461077a578063e05c57bf146107b9578063e1fc334f146107ff578063e985e9c51461082a57610225565b8063a7fc7a07116100f2578063a7fc7a071461066a578063b88d4fde14610693578063ba0909dd146106bc578063c084f540146106e7578063c87b56dd1461071257610225565b806394e568471461059c57806395d89b41146105d9578063a1b8f37414610604578063a22cb4651461064157610225565b806342842e0e116101b15780636817c76c116101755780636817c76c146104b557806370a08231146104e0578063715018a61461051d57806388c662aa146105345780638da5cb5b1461057157610225565b806342842e0e146103dd5780634f02c420146104065780635c975abb14610431578063612bfba41461045c5780636352211e1461047857610225565b8063095ea7b3116101f8578063095ea7b3146102fa57806323b872dd14610323578063337f28471461034c57806333df4b2c146103755780634018b1f8146103b257610225565b806301ffc9a71461022a57806306fdde0314610267578063081812fc146102925780630917e40d146102cf575b600080fd5b34801561023657600080fd5b50610251600480360381019061024c9190613c3f565b610938565b60405161025e9190613c87565b60405180910390f35b34801561027357600080fd5b5061027c610a1a565b6040516102899190613d3b565b60405180910390f35b34801561029e57600080fd5b506102b960048036038101906102b49190613d93565b610aac565b6040516102c69190613e01565b60405180910390f35b3480156102db57600080fd5b506102e4610b31565b6040516102f19190613e39565b60405180910390f35b34801561030657600080fd5b50610321600480360381019061031c9190613e80565b610b45565b005b34801561032f57600080fd5b5061034a60048036038101906103459190613ec0565b610c5d565b005b34801561035857600080fd5b50610373600480360381019061036e9190613f13565b610cbd565b005b34801561038157600080fd5b5061039c60048036038101906103979190613f40565b610d7e565b6040516103a99190613f9c565b60405180910390f35b3480156103be57600080fd5b506103c7610dc5565b6040516103d49190613fc6565b60405180910390f35b3480156103e957600080fd5b5061040460048036038101906103ff9190613ec0565b610dcf565b005b34801561041257600080fd5b5061041b610def565b6040516104289190613e39565b60405180910390f35b34801561043d57600080fd5b50610446610e03565b6040516104539190613c87565b60405180910390f35b61047660048036038101906104719190614039565b610e1a565b005b34801561048457600080fd5b5061049f600480360381019061049a9190613d93565b61122a565b6040516104ac9190613e01565b60405180910390f35b3480156104c157600080fd5b506104ca6112dc565b6040516104d79190613fc6565b60405180910390f35b3480156104ec57600080fd5b5061050760048036038101906105029190613f13565b6112e2565b6040516105149190613fc6565b60405180910390f35b34801561052957600080fd5b5061053261139a565b005b34801561054057600080fd5b5061055b60048036038101906105569190613f13565b611422565b6040516105689190613c87565b60405180910390f35b34801561057d57600080fd5b506105866114f5565b6040516105939190613e01565b60405180910390f35b3480156105a857600080fd5b506105c360048036038101906105be9190613d93565b61151f565b6040516105d09190614163565b60405180910390f35b3480156105e557600080fd5b506105ee6116b5565b6040516105fb9190613d3b565b60405180910390f35b34801561061057600080fd5b5061062b60048036038101906106269190613d93565b611747565b6040516106389190613fc6565b60405180910390f35b34801561064d57600080fd5b506106686004803603810190610663919061417f565b611760565b005b34801561067657600080fd5b50610691600480360381019061068c9190613f13565b611776565b005b34801561069f57600080fd5b506106ba60048036038101906106b591906142f4565b61184e565b005b3480156106c857600080fd5b506106d16118b0565b6040516106de91906143d6565b60405180910390f35b3480156106f357600080fd5b506106fc6118d7565b6040516107099190613fc6565b60405180910390f35b34801561071e57600080fd5b5061073960048036038101906107349190613d93565b6118dd565b6040516107469190613d3b565b60405180910390f35b34801561075b57600080fd5b506107646119d0565b6040516107719190613e39565b60405180910390f35b34801561078657600080fd5b506107a1600480360381019061079c919061442a565b6119e4565b6040516107b09392919061447d565b60405180910390f35b3480156107c557600080fd5b506107e060048036038101906107db9190613d93565b611c10565b6040516107f69a999897969594939291906144bb565b60405180910390f35b34801561080b57600080fd5b50610814611ce6565b6040516108219190614578565b60405180910390f35b34801561083657600080fd5b50610851600480360381019061084c9190614593565b611d0d565b60405161085e9190613c87565b60405180910390f35b34801561087357600080fd5b5061088e600480360381019061088991906145d3565b611da1565b005b34801561089c57600080fd5b506108b760048036038101906108b29190613f13565b61245a565b005b3480156108c557600080fd5b506108ce612552565b6040516108db9190613fc6565b60405180910390f35b3480156108f057600080fd5b5061090b60048036038101906109069190613f13565b612558565b005b34801561091957600080fd5b50610922612630565b60405161092f919061465b565b60405180910390f35b60007f80ac58cd000000000000000000000000000000000000000000000000000000007bffffffffffffffffffffffffffffffffffffffffffffffffffffffff1916827bffffffffffffffffffffffffffffffffffffffffffffffffffffffff19161480610a0357507f5b5e139f000000000000000000000000000000000000000000000000000000007bffffffffffffffffffffffffffffffffffffffffffffffffffffffff1916827bffffffffffffffffffffffffffffffffffffffffffffffffffffffff1916145b80610a135750610a1282612657565b5b9050919050565b606060c98054610a29906146a5565b80601f0160208091040260200160405190810160405280929190818152602001828054610a55906146a5565b8015610aa25780601f10610a7757610100808354040283529160200191610aa2565b820191906000526020600020905b815481529060010190602001808311610a8557829003601f168201915b5050505050905090565b6000610ab7826126c1565b610af6576040517f08c379a0000000000000000000000000000000000000000000000000000000008152600401610aed90614749565b60405180910390fd5b60cd600083815260200190815260200160002060009054906101000a900473ffffffffffffffffffffffffffffffffffffffff169050919050565b60fb60049054906101000a900461ffff1681565b6000610b508261122a565b90508073ffffffffffffffffffffffffffffffffffffffff168373ffffffffffffffffffffffffffffffffffffffff161415610bc1576040517f08c379a0000000000000000000000000000000000000000000000000000000008152600401610bb8906147db565b60405180910390fd5b8073ffffffffffffffffffffffffffffffffffffffff16610be061272d565b73ffffffffffffffffffffffffffffffffffffffff161480610c0f5750610c0e81610c0961272d565b611d0d565b5b610c4e576040517f08c379a0000000000000000000000000000000000000000000000000000000008152600401610c459061486d565b60405180910390fd5b610c588383612735565b505050565b610c6e610c6861272d565b826127ee565b610cad576040517f08c379a0000000000000000000000000000000000000000000000000000000008152600401610ca4906148ff565b60405180910390fd5b610cb88383836128cc565b505050565b610cc561272d565b73ffffffffffffffffffffffffffffffffffffffff16610ce36114f5565b73ffffffffffffffffffffffffffffffffffffffff1614610d39576040517f08c379a0000000000000000000000000000000000000000000000000000000008152600401610d309061496b565b60405180910390fd5b8061011660006101000a81548173ffffffffffffffffffffffffffffffffffffffff021916908373ffffffffffffffffffffffffffffffffffffffff16021790555050565b6101028260128110610d8f57600080fd5b018181548110610d9e57600080fd5b9060005260206000209060209182820401919006915091509054906101000a900460ff1681565b600060fe54905090565b610dea8383836040518060200160405280600081525061184e565b505050565b60fb60009054906101000a900461ffff1681565b6000606560009054906101000a900460ff16905090565b610e22610e03565b15610e62576040517f08c379a0000000000000000000000000000000000000000000000000000000008152600401610e59906149d7565b60405180910390fd5b60008260ff16118015610e795750600a8260ff1611155b610eb8576040517f08c379a0000000000000000000000000000000000000000000000000000000008152600401610eaf90614a43565b60405180910390fd5b3460fc548360ff16610eca9190614a92565b14610f0a576040517f08c379a0000000000000000000000000000000000000000000000000000000008152600401610f0190614b38565b60405180910390fd5b600081610f6057600067ffffffffffffffff811115610f2c57610f2b6141c9565b5b604051908082528060200260200182016040528015610f5a5781602001602082028036833780820191505090505b50610fad565b8260ff1667ffffffffffffffff811115610f7d57610f7c6141c9565b5b604051908082528060200260200182016040528015610fab5781602001602082028036833780820191505090505b505b90506000610fb9613972565b60005b8560ff168110156111845760fb600081819054906101000a900461ffff1680929190610fe790614b58565b91906101000a81548161ffff021916908361ffff1602179055505061101f60fb60009054906101000a900461ffff1661ffff16612b28565b925061103f60fb60009054906101000a900461ffff1661ffff1684612b6e565b915084156110c75761108861011660009054906101000a900473ffffffffffffffffffffffffffffffffffffffff1660fb60009054906101000a900461ffff1661ffff16612d48565b60fb60009054906101000a900461ffff168482815181106110ac576110ab614b83565b5b602002602001019061ffff16908161ffff16815250506110ed565b6110ec6110d261272d565b60fb60009054906101000a900461ffff1661ffff16612d48565b5b81600001516111355760fb600481819054906101000a900461ffff168092919061111690614b58565b91906101000a81548161ffff021916908361ffff160217905550611170565b60fb600281819054906101000a900461ffff168092919061115590614b58565b91906101000a81548161ffff021916908361ffff1602179055505b50808061117c90614bb2565b915050610fbc565b5083156112235761011660009054906101000a900473ffffffffffffffffffffffffffffffffffffffff1673ffffffffffffffffffffffffffffffffffffffff1663dbdc1f6b6111d261272d565b856040518363ffffffff1660e01b81526004016111f0929190614cb9565b600060405180830381600087803b15801561120a57600080fd5b505af115801561121e573d6000803e3d6000fd5b505050505b5050505050565b60008060cb600084815260200190815260200160002060009054906101000a900473ffffffffffffffffffffffffffffffffffffffff169050600073ffffffffffffffffffffffffffffffffffffffff168173ffffffffffffffffffffffffffffffffffffffff1614156112d3576040517f08c379a00000000000000000000000000000000000000000000000000000000081526004016112ca90614d5b565b60405180910390fd5b80915050919050565b60fc5481565b60008073ffffffffffffffffffffffffffffffffffffffff168273ffffffffffffffffffffffffffffffffffffffff161415611353576040517f08c379a000000000000000000000000000000000000000000000000000000000815260040161134a90614ded565b60405180910390fd5b60cc60008373ffffffffffffffffffffffffffffffffffffffff1673ffffffffffffffffffffffffffffffffffffffff168152602001908152602001600020549050919050565b6113a261272d565b73ffffffffffffffffffffffffffffffffffffffff166113c06114f5565b73ffffffffffffffffffffffffffffffffffffffff1614611416576040517f08c379a000000000000000000000000000000000000000000000000000000000815260040161140d9061496b565b60405180910390fd5b6114206000612d66565b565b600061142c61272d565b73ffffffffffffffffffffffffffffffffffffffff1661144a6114f5565b73ffffffffffffffffffffffffffffffffffffffff16146114a0576040517f08c379a00000000000000000000000000000000000000000000000000000000081526004016114979061496b565b60405180910390fd5b61010160008373ffffffffffffffffffffffffffffffffffffffff1673ffffffffffffffffffffffffffffffffffffffff16815260200190815260200160002060009054906101000a900460ff169050919050565b6000603360009054906101000a900473ffffffffffffffffffffffffffffffffffffffff16905090565b611527613972565b611530826126c1565b61156f576040517f08c379a000000000000000000000000000000000000000000000000000000000815260040161156690614e7f565b60405180910390fd5b60ff6000838152602001908152602001600020604051806101400160405290816000820160009054906101000a900460ff161515151581526020016000820160019054906101000a900460ff1660ff1660ff1681526020016000820160029054906101000a900460ff1660ff1660ff1681526020016000820160039054906101000a900460ff1660ff1660ff1681526020016000820160049054906101000a900460ff1660ff1660ff1681526020016000820160059054906101000a900460ff1660ff1660ff1681526020016000820160069054906101000a900460ff1660ff1660ff1681526020016000820160079054906101000a900460ff1660ff1660ff1681526020016000820160089054906101000a900460ff1660ff1660ff1681526020016000820160099054906101000a900460ff1660ff1660ff16815250509050919050565b606060ca80546116c4906146a5565b80601f01602080910402602001604051908101604052809291908181526020018280546116f0906146a5565b801561173d5780601f106117125761010080835404028352916020019161173d565b820191906000526020600020905b81548152906001019060200180831161172057829003601f168201915b5050505050905090565b6101006020528060005260406000206000915090505481565b61177261176b61272d565b8383612e2c565b5050565b61177e61272d565b73ffffffffffffffffffffffffffffffffffffffff1661179c6114f5565b73ffffffffffffffffffffffffffffffffffffffff16146117f2576040517f08c379a00000000000000000000000000000000000000000000000000000000081526004016117e99061496b565b60405180910390fd5b600161010160008373ffffffffffffffffffffffffffffffffffffffff1673ffffffffffffffffffffffffffffffffffffffff16815260200190815260200160002060006101000a81548160ff02191690831515021790555050565b61185f61185961272d565b836127ee565b61189e576040517f08c379a0000000000000000000000000000000000000000000000000000000008152600401611895906148ff565b60405180910390fd5b6118aa84848484612f99565b50505050565b61011660009054906101000a900473ffffffffffffffffffffffffffffffffffffffff1681565b60fe5481565b60606118e8826126c1565b611927576040517f08c379a000000000000000000000000000000000000000000000000000000000815260040161191e90614e7f565b60405180910390fd5b61011460009054906101000a900473ffffffffffffffffffffffffffffffffffffffff1673ffffffffffffffffffffffffffffffffffffffff1663c87b56dd836040518263ffffffff1660e01b81526004016119839190613fc6565b600060405180830381865afa1580156119a0573d6000803e3d6000fd5b505050506040513d6000823e3d601f19601f820116820180604052508101906119c99190614f40565b9050919050565b60fb60029054906101000a900461ffff1681565b600080606061010160003373ffffffffffffffffffffffffffffffffffffffff1673ffffffffffffffffffffffffffffffffffffffff16815260200190815260200160002060009054906101000a900460ff16611a76576040517f08c379a0000000000000000000000000000000000000000000000000000000008152600401611a6d90614fd5565b60405180910390fd5b600060ff600088815260200190815260200160002060000160009054906101000a900460ff169050600060ff600089815260200190815260200160002060000160089054906101000a900460ff169050600060ff60008a815260200190815260200160002060000160099054906101000a900460ff16905061011560009054906101000a900473ffffffffffffffffffffffffffffffffffffffff1673ffffffffffffffffffffffffffffffffffffffff1663e90bd2578484848c8c6040518663ffffffff1660e01b8152600401611b52959493929190615004565b6000604051808303816000875af1158015611b71573d6000803e3d6000fd5b505050506040513d6000823e3d601f19601f82011682018060405250810190611b9a919061506c565b8096508197508298505050508560ff60008b815260200190815260200160002060000160086101000a81548160ff021916908360ff1602179055508460ff60008b815260200190815260200160002060000160096101000a81548160ff021916908360ff16021790555050505093509350939050565b60ff6020528060005260406000206000915090508060000160009054906101000a900460ff16908060000160019054906101000a900460ff16908060000160029054906101000a900460ff16908060000160039054906101000a900460ff16908060000160049054906101000a900460ff16908060000160059054906101000a900460ff16908060000160069054906101000a900460ff16908060000160079054906101000a900460ff16908060000160089054906101000a900460ff16908060000160099054906101000a900460ff1690508a565b61011460009054906101000a900473ffffffffffffffffffffffffffffffffffffffff1681565b600060ce60008473ffffffffffffffffffffffffffffffffffffffff1673ffffffffffffffffffffffffffffffffffffffff16815260200190815260200160002060008373ffffffffffffffffffffffffffffffffffffffff1673ffffffffffffffffffffffffffffffffffffffff16815260200190815260200160002060009054906101000a900460ff16905092915050565b600060019054906101000a900460ff16611dc95760008054906101000a900460ff1615611dd2565b611dd1612ff5565b5b611e11576040517f08c379a0000000000000000000000000000000000000000000000000000000008152600401611e089061514d565b60405180910390fd5b60008060019054906101000a900460ff161590508015611e61576001600060016101000a81548160ff02191690831515021790555060016000806101000a81548160ff0219169083151502179055505b611e69613006565b611e71613067565b611ee56040518060400160405280601381526020017f526174416c6572742043686172616374657273000000000000000000000000008152506040518060400160405280600781526020017f52415443484152000000000000000000000000000000000000000000000000008152506130c8565b600060fb60006101000a81548161ffff021916908361ffff160217905550600060fb60026101000a81548161ffff021916908361ffff160217905550600060fb60046101000a81548161ffff021916908361ffff1602179055508461011460006101000a81548173ffffffffffffffffffffffffffffffffffffffff021916908373ffffffffffffffffffffffffffffffffffffffff1602179055508361011560006101000a81548173ffffffffffffffffffffffffffffffffffffffff021916908373ffffffffffffffffffffffffffffffffffffffff1602179055508260fd81905550600583611fd7919061519c565b60fe819055508160fc819055506040518060c0016040528060ff8016815260200160df60ff16815260200160bf60ff168152602001609f60ff168152602001607f60ff168152602001605f60ff1681525061010260026012811061203e5761203d614b83565b5b0190600661204d9291906139e2565b5060405180610100016040528060ff8016815260200160df60ff16815260200160bf60ff168152602001609f60ff168152602001607f60ff168152602001605f60ff168152602001603f60ff168152602001601f60ff168152506101026003601281106120bd576120bc614b83565b5b019060086120cc929190613a89565b506040518060c0016040528060ff8016815260200160df60ff16815260200160bf60ff168152602001609f60ff168152602001607f60ff168152602001605f60ff1681525061010260046012811061212757612126614b83565b5b019060066121369291906139e2565b506040518060c0016040528060ff8016815260200160cf60ff168152602001609f60ff168152602001606f60ff168152602001603f60ff168152602001600f60ff1681525061010260056012811061219157612190614b83565b5b019060066121a09291906139e2565b506040518060c0016040528060ff8016815260200160df60ff16815260200160bf60ff168152602001609f60ff168152602001607f60ff168152602001605f60ff168152506101026006601281106121fb576121fa614b83565b5b0190600661220a9291906139e2565b506040518060c0016040528060ff8016815260200160df60ff16815260200160bf60ff168152602001609f60ff168152602001607f60ff168152602001605f60ff16815250610102600c6012811061226557612264614b83565b5b019060066122749291906139e2565b5060405180610100016040528060ff8016815260200160df60ff16815260200160bf60ff168152602001609f60ff168152602001607f60ff168152602001605f60ff168152602001603f60ff168152602001601f60ff16815250610102600d601281106122e4576122e3614b83565b5b019060086122f3929190613a89565b506040518060c0016040528060ff8016815260200160df60ff16815260200160bf60ff168152602001609f60ff168152602001607f60ff168152602001605f60ff16815250610102600e6012811061234e5761234d614b83565b5b0190600661235d9291906139e2565b506040518060c0016040528060ff8016815260200160cf60ff168152602001609f60ff168152602001606f60ff168152602001603f60ff168152602001600f60ff16815250610102600f601281106123b8576123b7614b83565b5b019060066123c79291906139e2565b506040518060c0016040528060ff8016815260200160df60ff16815260200160bf60ff168152602001609f60ff168152602001607f60ff168152602001605f60ff1681525061010260106012811061242257612421614b83565b5b019060066124319291906139e2565b5080156124535760008060016101000a81548160ff0219169083151502179055505b5050505050565b61246261272d565b73ffffffffffffffffffffffffffffffffffffffff166124806114f5565b73ffffffffffffffffffffffffffffffffffffffff16146124d6576040517f08c379a00000000000000000000000000000000000000000000000000000000081526004016124cd9061496b565b60405180910390fd5b600073ffffffffffffffffffffffffffffffffffffffff168173ffffffffffffffffffffffffffffffffffffffff161415612546576040517f08c379a000000000000000000000000000000000000000000000000000000000815260040161253d9061523f565b60405180910390fd5b61254f81612d66565b50565b60fd5481565b61256061272d565b73ffffffffffffffffffffffffffffffffffffffff1661257e6114f5565b73ffffffffffffffffffffffffffffffffffffffff16146125d4576040517f08c379a00000000000000000000000000000000000000000000000000000000081526004016125cb9061496b565b60405180910390fd5b600061010160008373ffffffffffffffffffffffffffffffffffffffff1673ffffffffffffffffffffffffffffffffffffffff16815260200190815260200160002060006101000a81548160ff02191690831515021790555050565b61011560009054906101000a900473ffffffffffffffffffffffffffffffffffffffff1681565b60007f01ffc9a7000000000000000000000000000000000000000000000000000000007bffffffffffffffffffffffffffffffffffffffffffffffffffffffff1916827bffffffffffffffffffffffffffffffffffffffffffffffffffffffff1916149050919050565b60008073ffffffffffffffffffffffffffffffffffffffff1660cb600084815260200190815260200160002060009054906101000a900473ffffffffffffffffffffffffffffffffffffffff1673ffffffffffffffffffffffffffffffffffffffff1614159050919050565b600033905090565b8160cd600083815260200190815260200160002060006101000a81548173ffffffffffffffffffffffffffffffffffffffff021916908373ffffffffffffffffffffffffffffffffffffffff160217905550808273ffffffffffffffffffffffffffffffffffffffff166127a88361122a565b73ffffffffffffffffffffffffffffffffffffffff167f8c5be1e5ebec7d5bd14f71427d1e84f3dd0314c0f7b2291e5b200ac8c7c3b92560405160405180910390a45050565b60006127f9826126c1565b612838576040517f08c379a000000000000000000000000000000000000000000000000000000000815260040161282f906152d1565b60405180910390fd5b60006128438361122a565b90508073ffffffffffffffffffffffffffffffffffffffff168473ffffffffffffffffffffffffffffffffffffffff1614806128b257508373ffffffffffffffffffffffffffffffffffffffff1661289a84610aac565b73ffffffffffffffffffffffffffffffffffffffff16145b806128c357506128c28185611d0d565b5b91505092915050565b8273ffffffffffffffffffffffffffffffffffffffff166128ec8261122a565b73ffffffffffffffffffffffffffffffffffffffff1614612942576040517f08c379a000000000000000000000000000000000000000000000000000000000815260040161293990615363565b60405180910390fd5b600073ffffffffffffffffffffffffffffffffffffffff168273ffffffffffffffffffffffffffffffffffffffff1614156129b2576040517f08c379a00000000000000000000000000000000000000000000000000000000081526004016129a9906153f5565b60405180910390fd5b6129bd838383613135565b6129c8600082612735565b600160cc60008573ffffffffffffffffffffffffffffffffffffffff1673ffffffffffffffffffffffffffffffffffffffff1681526020019081526020016000206000828254612a189190615415565b92505081905550600160cc60008473ffffffffffffffffffffffffffffffffffffffff1673ffffffffffffffffffffffffffffffffffffffff1681526020019081526020016000206000828254612a6f9190615449565b925050819055508160cb600083815260200190815260200160002060006101000a81548173ffffffffffffffffffffffffffffffffffffffff021916908373ffffffffffffffffffffffffffffffffffffffff160217905550808273ffffffffffffffffffffffffffffffffffffffff168473ffffffffffffffffffffffffffffffffffffffff167fddf252ad1be2c89b69c2b068fc378daa952ba7f163c4a11628f55a4df523b3ef60405160405180910390a4505050565b600032600143612b389190615415565b404284604051602001612b4e9493929190615533565b6040516020818303038152906040528051906020012060001c9050919050565b612b76613972565b612b7f8261313a565b90506000612b8c82613293565b905060006101006000838152602001908152602001600020541415612d2c578160ff600086815260200190815260200160002060008201518160000160006101000a81548160ff02191690831515021790555060208201518160000160016101000a81548160ff021916908360ff16021790555060408201518160000160026101000a81548160ff021916908360ff16021790555060608201518160000160036101000a81548160ff021916908360ff16021790555060808201518160000160046101000a81548160ff021916908360ff16021790555060a08201518160000160056101000a81548160ff021916908360ff16021790555060c08201518160000160066101000a81548160ff021916908360ff16021790555060e08201518160000160076101000a81548160ff021916908360ff1602179055506101008201518160000160086101000a81548160ff021916908360ff1602179055506101208201518160000160096101000a81548160ff021916908360ff1602179055509050508361010060008381526020019081526020016000208190555050612d42565b612d3e84612d3985612b28565b612b6e565b9150505b92915050565b612d628282604051806020016040528060008152506132f6565b5050565b6000603360009054906101000a900473ffffffffffffffffffffffffffffffffffffffff16905081603360006101000a81548173ffffffffffffffffffffffffffffffffffffffff021916908373ffffffffffffffffffffffffffffffffffffffff1602179055508173ffffffffffffffffffffffffffffffffffffffff168173ffffffffffffffffffffffffffffffffffffffff167f8be0079c531659141344cd1fd0a4f28419497f9722a3daafe3b4186f6b6457e060405160405180910390a35050565b8173ffffffffffffffffffffffffffffffffffffffff168373ffffffffffffffffffffffffffffffffffffffff161415612e9b576040517f08c379a0000000000000000000000000000000000000000000000000000000008152600401612e92906155cd565b60405180910390fd5b8060ce60008573ffffffffffffffffffffffffffffffffffffffff1673ffffffffffffffffffffffffffffffffffffffff16815260200190815260200160002060008473ffffffffffffffffffffffffffffffffffffffff1673ffffffffffffffffffffffffffffffffffffffff16815260200190815260200160002060006101000a81548160ff0219169083151502179055508173ffffffffffffffffffffffffffffffffffffffff168373ffffffffffffffffffffffffffffffffffffffff167f17307eab39ab6107e8899845ad3d59bd9653f200f220920489ca2b5937696c3183604051612f8c9190613c87565b60405180910390a3505050565b612fa48484846128cc565b612fb084848484613351565b612fef576040517f08c379a0000000000000000000000000000000000000000000000000000000008152600401612fe69061565f565b60405180910390fd5b50505050565b6000613000306134d9565b15905090565b600060019054906101000a900460ff16613055576040517f08c379a000000000000000000000000000000000000000000000000000000000815260040161304c906156f1565b60405180910390fd5b61305d6134ec565b61306561353d565b565b600060019054906101000a900460ff166130b6576040517f08c379a00000000000000000000000000000000000000000000000000000000081526004016130ad906156f1565b60405180910390fd5b6130be6134ec565b6130c661359e565b565b600060019054906101000a900460ff16613117576040517f08c379a000000000000000000000000000000000000000000000000000000000815260040161310e906156f1565b60405180910390fd5b61311f6134ec565b61312761360a565b613131828261365b565b5050565b505050565b613142613972565b6000600a61ffff84166131559190615711565b14158160000190151590811515815250508060000151156132015761317b8260026136dc565b816020019060ff16908160ff16815250506131978260036136dc565b816040019060ff16908160ff16815250506131b38260046136dc565b816080019060ff16908160ff16815250506131cf8260056136dc565b8160a0019060ff16908160ff16815250506131eb8260066136dc565b8160c0019060ff16908160ff168152505061328e565b61320c82600c6136dc565b816020019060ff16908160ff168152505061322882600d6136dc565b816040019060ff16908160ff168152505061324482600e6136dc565b816060019060ff16908160ff168152505061326082600f6136dc565b8160a0019060ff16908160ff168152505061327c8260106136dc565b8160e0019060ff16908160ff16815250505b919050565b6000816000015182602001518360400151846060015185608001518660a001518760c001518860e001516040516020016132d49897969594939291906157a1565b6040516020818303038152906040526132ec90615870565b60001c9050919050565b61330083836137a4565b61330d6000848484613351565b61334c576040517f08c379a00000000000000000000000000000000000000000000000000000000081526004016133439061565f565b60405180910390fd5b505050565b60006133728473ffffffffffffffffffffffffffffffffffffffff166134d9565b156134cc578373ffffffffffffffffffffffffffffffffffffffff1663150b7a0261339b61272d565b8786866040518563ffffffff1660e01b81526004016133bd9493929190615921565b6020604051808303816000875af19250505080156133f957506040513d601f19601f820116820180604052508101906133f69190615982565b60015b61347c573d8060008114613429576040519150601f19603f3d011682016040523d82523d6000602084013e61342e565b606091505b50600081511415613474576040517f08c379a000000000000000000000000000000000000000000000000000000000815260040161346b9061565f565b60405180910390fd5b805181602001fd5b63150b7a0260e01b7bffffffffffffffffffffffffffffffffffffffffffffffffffffffff1916817bffffffffffffffffffffffffffffffffffffffffffffffffffffffff1916149150506134d1565b600190505b949350505050565b600080823b905060008111915050919050565b600060019054906101000a900460ff1661353b576040517f08c379a0000000000000000000000000000000000000000000000000000000008152600401613532906156f1565b60405180910390fd5b565b600060019054906101000a900460ff1661358c576040517f08c379a0000000000000000000000000000000000000000000000000000000008152600401613583906156f1565b60405180910390fd5b61359c61359761272d565b612d66565b565b600060019054906101000a900460ff166135ed576040517f08c379a00000000000000000000000000000000000000000000000000000000081526004016135e4906156f1565b60405180910390fd5b6000606560006101000a81548160ff021916908315150217905550565b600060019054906101000a900460ff16613659576040517f08c379a0000000000000000000000000000000000000000000000000000000008152600401613650906156f1565b60405180910390fd5b565b600060019054906101000a900460ff166136aa576040517f08c379a00000000000000000000000000000000000000000000000000000000081526004016136a1906156f1565b60405180910390fd5b8160c990805190602001906136c0929190613b30565b508060ca90805190602001906136d7929190613b30565b505050565b60006010600a836136ed91906159af565b6136f791906159e0565b60ff1683901c925060006101028360ff166012811061371957613718614b83565b5b01805490508461372991906159af565b9050600060ff851690506101028460ff166012811061374b5761374a614b83565b5b018260ff168154811061376157613760614b83565b5b90600052602060002090602091828204019190069054906101000a900460ff1660ff168160ff161161379757819250505061379e565b6000925050505b92915050565b600073ffffffffffffffffffffffffffffffffffffffff168273ffffffffffffffffffffffffffffffffffffffff161415613814576040517f08c379a000000000000000000000000000000000000000000000000000000000815260040161380b90615a67565b60405180910390fd5b61381d816126c1565b1561385d576040517f08c379a000000000000000000000000000000000000000000000000000000000815260040161385490615ad3565b60405180910390fd5b61386960008383613135565b600160cc60008473ffffffffffffffffffffffffffffffffffffffff1673ffffffffffffffffffffffffffffffffffffffff16815260200190815260200160002060008282546138b99190615449565b925050819055508160cb600083815260200190815260200160002060006101000a81548173ffffffffffffffffffffffffffffffffffffffff021916908373ffffffffffffffffffffffffffffffffffffffff160217905550808273ffffffffffffffffffffffffffffffffffffffff16600073ffffffffffffffffffffffffffffffffffffffff167fddf252ad1be2c89b69c2b068fc378daa952ba7f163c4a11628f55a4df523b3ef60405160405180910390a45050565b604051806101400160405280600015158152602001600060ff168152602001600060ff168152602001600060ff168152602001600060ff168152602001600060ff168152602001600060ff168152602001600060ff168152602001600060ff168152602001600060ff1681525090565b82805482825590600052602060002090601f01602090048101928215613a785791602002820160005b83821115613a4957835183826101000a81548160ff021916908360ff1602179055509260200192600101602081600001049283019260010302613a0b565b8015613a765782816101000a81549060ff0219169055600101602081600001049283019260010302613a49565b505b509050613a859190613bb6565b5090565b82805482825590600052602060002090601f01602090048101928215613b1f5791602002820160005b83821115613af057835183826101000a81548160ff021916908360ff1602179055509260200192600101602081600001049283019260010302613ab2565b8015613b1d5782816101000a81549060ff0219169055600101602081600001049283019260010302613af0565b505b509050613b2c9190613bb6565b5090565b828054613b3c906146a5565b90600052602060002090601f016020900481019282613b5e5760008555613ba5565b82601f10613b7757805160ff1916838001178555613ba5565b82800160010185558215613ba5579182015b82811115613ba4578251825591602001919060010190613b89565b5b509050613bb29190613bb6565b5090565b5b80821115613bcf576000816000905550600101613bb7565b5090565b6000604051905090565b600080fd5b600080fd5b60007fffffffff0000000000000000000000000000000000000000000000000000000082169050919050565b613c1c81613be7565b8114613c2757600080fd5b50565b600081359050613c3981613c13565b92915050565b600060208284031215613c5557613c54613bdd565b5b6000613c6384828501613c2a565b91505092915050565b60008115159050919050565b613c8181613c6c565b82525050565b6000602082019050613c9c6000830184613c78565b92915050565b600081519050919050565b600082825260208201905092915050565b60005b83811015613cdc578082015181840152602081019050613cc1565b83811115613ceb576000848401525b50505050565b6000601f19601f8301169050919050565b6000613d0d82613ca2565b613d178185613cad565b9350613d27818560208601613cbe565b613d3081613cf1565b840191505092915050565b60006020820190508181036000830152613d558184613d02565b905092915050565b6000819050919050565b613d7081613d5d565b8114613d7b57600080fd5b50565b600081359050613d8d81613d67565b92915050565b600060208284031215613da957613da8613bdd565b5b6000613db784828501613d7e565b91505092915050565b600073ffffffffffffffffffffffffffffffffffffffff82169050919050565b6000613deb82613dc0565b9050919050565b613dfb81613de0565b82525050565b6000602082019050613e166000830184613df2565b92915050565b600061ffff82169050919050565b613e3381613e1c565b82525050565b6000602082019050613e4e6000830184613e2a565b92915050565b613e5d81613de0565b8114613e6857600080fd5b50565b600081359050613e7a81613e54565b92915050565b60008060408385031215613e9757613e96613bdd565b5b6000613ea585828601613e6b565b9250506020613eb685828601613d7e565b9150509250929050565b600080600060608486031215613ed957613ed8613bdd565b5b6000613ee786828701613e6b565b9350506020613ef886828701613e6b565b9250506040613f0986828701613d7e565b9150509250925092565b600060208284031215613f2957613f28613bdd565b5b6000613f3784828501613e6b565b91505092915050565b60008060408385031215613f5757613f56613bdd565b5b6000613f6585828601613d7e565b9250506020613f7685828601613d7e565b9150509250929050565b600060ff82169050919050565b613f9681613f80565b82525050565b6000602082019050613fb16000830184613f8d565b92915050565b613fc081613d5d565b82525050565b6000602082019050613fdb6000830184613fb7565b92915050565b613fea81613f80565b8114613ff557600080fd5b50565b60008135905061400781613fe1565b92915050565b61401681613c6c565b811461402157600080fd5b50565b6000813590506140338161400d565b92915050565b600080604083850312156140505761404f613bdd565b5b600061405e85828601613ff8565b925050602061406f85828601614024565b9150509250929050565b61408281613c6c565b82525050565b61409181613f80565b82525050565b610140820160008201516140ae6000850182614079565b5060208201516140c16020850182614088565b5060408201516140d46040850182614088565b5060608201516140e76060850182614088565b5060808201516140fa6080850182614088565b5060a082015161410d60a0850182614088565b5060c082015161412060c0850182614088565b5060e082015161413360e0850182614088565b50610100820151614148610100850182614088565b5061012082015161415d610120850182614088565b50505050565b6000610140820190506141796000830184614097565b92915050565b6000806040838503121561419657614195613bdd565b5b60006141a485828601613e6b565b92505060206141b585828601614024565b9150509250929050565b600080fd5b600080fd5b7f4e487b7100000000000000000000000000000000000000000000000000000000600052604160045260246000fd5b61420182613cf1565b810181811067ffffffffffffffff821117156142205761421f6141c9565b5b80604052505050565b6000614233613bd3565b905061423f82826141f8565b919050565b600067ffffffffffffffff82111561425f5761425e6141c9565b5b61426882613cf1565b9050602081019050919050565b82818337600083830152505050565b600061429761429284614244565b614229565b9050828152602081018484840111156142b3576142b26141c4565b5b6142be848285614275565b509392505050565b600082601f8301126142db576142da6141bf565b5b81356142eb848260208601614284565b91505092915050565b6000806000806080858703121561430e5761430d613bdd565b5b600061431c87828801613e6b565b945050602061432d87828801613e6b565b935050604061433e87828801613d7e565b925050606085013567ffffffffffffffff81111561435f5761435e613be2565b5b61436b878288016142c6565b91505092959194509250565b6000819050919050565b600061439c61439761439284613dc0565b614377565b613dc0565b9050919050565b60006143ae82614381565b9050919050565b60006143c0826143a3565b9050919050565b6143d0816143b5565b82525050565b60006020820190506143eb60008301846143c7565b92915050565b60008160000b9050919050565b614407816143f1565b811461441257600080fd5b50565b600081359050614424816143fe565b92915050565b60008060006060848603121561444357614442613bdd565b5b600061445186828701613d7e565b935050602061446286828701614415565b925050604061447386828701614415565b9150509250925092565b60006060820190506144926000830186613f8d565b61449f6020830185613f8d565b81810360408301526144b18184613d02565b9050949350505050565b6000610140820190506144d1600083018d613c78565b6144de602083018c613f8d565b6144eb604083018b613f8d565b6144f8606083018a613f8d565b6145056080830189613f8d565b61451260a0830188613f8d565b61451f60c0830187613f8d565b61452c60e0830186613f8d565b61453a610100830185613f8d565b614548610120830184613f8d565b9b9a5050505050505050505050565b6000614562826143a3565b9050919050565b61457281614557565b82525050565b600060208201905061458d6000830184614569565b92915050565b600080604083850312156145aa576145a9613bdd565b5b60006145b885828601613e6b565b92505060206145c985828601613e6b565b9150509250929050565b600080600080608085870312156145ed576145ec613bdd565b5b60006145fb87828801613e6b565b945050602061460c87828801613e6b565b935050604061461d87828801613d7e565b925050606061462e87828801613d7e565b91505092959194509250565b6000614645826143a3565b9050919050565b6146558161463a565b82525050565b6000602082019050614670600083018461464c565b92915050565b7f4e487b7100000000000000000000000000000000000000000000000000000000600052602260045260246000fd5b600060028204905060018216806146bd57607f821691505b602082108114156146d1576146d0614676565b5b50919050565b7f4552433732313a20617070726f76656420717565727920666f72206e6f6e657860008201527f697374656e7420746f6b656e0000000000000000000000000000000000000000602082015250565b6000614733602c83613cad565b915061473e826146d7565b604082019050919050565b6000602082019050818103600083015261476281614726565b9050919050565b7f4552433732313a20617070726f76616c20746f2063757272656e74206f776e6560008201527f7200000000000000000000000000000000000000000000000000000000000000602082015250565b60006147c5602183613cad565b91506147d082614769565b604082019050919050565b600060208201905081810360008301526147f4816147b8565b9050919050565b7f4552433732313a20617070726f76652063616c6c6572206973206e6f74206f7760008201527f6e6572206e6f7220617070726f76656420666f7220616c6c0000000000000000602082015250565b6000614857603883613cad565b9150614862826147fb565b604082019050919050565b600060208201905081810360008301526148868161484a565b9050919050565b7f4552433732313a207472616e736665722063616c6c6572206973206e6f74206f60008201527f776e6572206e6f7220617070726f766564000000000000000000000000000000602082015250565b60006148e9603183613cad565b91506148f48261488d565b604082019050919050565b60006020820190508181036000830152614918816148dc565b9050919050565b7f4f776e61626c653a2063616c6c6572206973206e6f7420746865206f776e6572600082015250565b6000614955602083613cad565b91506149608261491f565b602082019050919050565b6000602082019050818103600083015261498481614948565b9050919050565b7f5061757361626c653a2070617573656400000000000000000000000000000000600082015250565b60006149c1601083613cad565b91506149cc8261498b565b602082019050919050565b600060208201905081810360008301526149f0816149b4565b9050919050565b7f496e76616c6964206d696e7420616d6f756e7400000000000000000000000000600082015250565b6000614a2d601383613cad565b9150614a38826149f7565b602082019050919050565b60006020820190508181036000830152614a5c81614a20565b9050919050565b7f4e487b7100000000000000000000000000000000000000000000000000000000600052601160045260246000fd5b6000614a9d82613d5d565b9150614aa883613d5d565b9250817fffffffffffffffffffffffffffffffffffffffffffffffffffffffffffffffff0483118215151615614ae157614ae0614a63565b5b828202905092915050565b7f496e76616c6964207061796d656e7420616d6f756e7400000000000000000000600082015250565b6000614b22601683613cad565b9150614b2d82614aec565b602082019050919050565b60006020820190508181036000830152614b5181614b15565b9050919050565b6000614b6382613e1c565b915061ffff821415614b7857614b77614a63565b5b600182019050919050565b7f4e487b7100000000000000000000000000000000000000000000000000000000600052603260045260246000fd5b6000614bbd82613d5d565b91507fffffffffffffffffffffffffffffffffffffffffffffffffffffffffffffffff821415614bf057614bef614a63565b5b600182019050919050565b600081519050919050565b600082825260208201905092915050565b6000819050602082019050919050565b614c3081613e1c565b82525050565b6000614c428383614c27565b60208301905092915050565b6000602082019050919050565b6000614c6682614bfb565b614c708185614c06565b9350614c7b83614c17565b8060005b83811015614cac578151614c938882614c36565b9750614c9e83614c4e565b925050600181019050614c7f565b5085935050505092915050565b6000604082019050614cce6000830185613df2565b8181036020830152614ce08184614c5b565b90509392505050565b7f4552433732313a206f776e657220717565727920666f72206e6f6e657869737460008201527f656e7420746f6b656e0000000000000000000000000000000000000000000000602082015250565b6000614d45602983613cad565b9150614d5082614ce9565b604082019050919050565b60006020820190508181036000830152614d7481614d38565b9050919050565b7f4552433732313a2062616c616e636520717565727920666f7220746865207a6560008201527f726f206164647265737300000000000000000000000000000000000000000000602082015250565b6000614dd7602a83613cad565b9150614de282614d7b565b604082019050919050565b60006020820190508181036000830152614e0681614dca565b9050919050565b7f4552433732314d657461646174613a2055524920717565727920666f72206e6f60008201527f6e2d6578697374656e7420746f6b656e00000000000000000000000000000000602082015250565b6000614e69603083613cad565b9150614e7482614e0d565b604082019050919050565b60006020820190508181036000830152614e9881614e5c565b9050919050565b600067ffffffffffffffff821115614eba57614eb96141c9565b5b614ec382613cf1565b9050602081019050919050565b6000614ee3614ede84614e9f565b614229565b905082815260208101848484011115614eff57614efe6141c4565b5b614f0a848285613cbe565b509392505050565b600082601f830112614f2757614f266141bf565b5b8151614f37848260208601614ed0565b91505092915050565b600060208284031215614f5657614f55613bdd565b5b600082015167ffffffffffffffff811115614f7457614f73613be2565b5b614f8084828501614f12565b91505092915050565b7f4f6e6c7920636f6e74726f6c6c6572732063616e207570646174650000000000600082015250565b6000614fbf601b83613cad565b9150614fca82614f89565b602082019050919050565b60006020820190508181036000830152614fee81614fb2565b9050919050565b614ffe816143f1565b82525050565b600060a0820190506150196000830188613c78565b6150266020830187613f8d565b6150336040830186613f8d565b6150406060830185614ff5565b61504d6080830184614ff5565b9695505050505050565b60008151905061506681613fe1565b92915050565b60008060006060848603121561508557615084613bdd565b5b600061509386828701615057565b93505060206150a486828701615057565b925050604084015167ffffffffffffffff8111156150c5576150c4613be2565b5b6150d186828701614f12565b9150509250925092565b7f496e697469616c697a61626c653a20636f6e747261637420697320616c72656160008201527f647920696e697469616c697a6564000000000000000000000000000000000000602082015250565b6000615137602e83613cad565b9150615142826150db565b604082019050919050565b600060208201905081810360008301526151668161512a565b9050919050565b7f4e487b7100000000000000000000000000000000000000000000000000000000600052601260045260246000fd5b60006151a782613d5d565b91506151b283613d5d565b9250826151c2576151c161516d565b5b828204905092915050565b7f4f776e61626c653a206e6577206f776e657220697320746865207a65726f206160008201527f6464726573730000000000000000000000000000000000000000000000000000602082015250565b6000615229602683613cad565b9150615234826151cd565b604082019050919050565b600060208201905081810360008301526152588161521c565b9050919050565b7f4552433732313a206f70657261746f7220717565727920666f72206e6f6e657860008201527f697374656e7420746f6b656e0000000000000000000000000000000000000000602082015250565b60006152bb602c83613cad565b91506152c68261525f565b604082019050919050565b600060208201905081810360008301526152ea816152ae565b9050919050565b7f4552433732313a207472616e73666572206f6620746f6b656e2074686174206960008201527f73206e6f74206f776e0000000000000000000000000000000000000000000000602082015250565b600061534d602983613cad565b9150615358826152f1565b604082019050919050565b6000602082019050818103600083015261537c81615340565b9050919050565b7f4552433732313a207472616e7366657220746f20746865207a65726f2061646460008201527f7265737300000000000000000000000000000000000000000000000000000000602082015250565b60006153df602483613cad565b91506153ea82615383565b604082019050919050565b6000602082019050818103600083015261540e816153d2565b9050919050565b600061542082613d5d565b915061542b83613d5d565b92508282101561543e5761543d614a63565b5b828203905092915050565b600061545482613d5d565b915061545f83613d5d565b9250827fffffffffffffffffffffffffffffffffffffffffffffffffffffffffffffffff0382111561549457615493614a63565b5b828201905092915050565b60008160601b9050919050565b60006154b78261549f565b9050919050565b60006154c9826154ac565b9050919050565b6154e16154dc82613de0565b6154be565b82525050565b6000819050919050565b6000819050919050565b61550c615507826154e7565b6154f1565b82525050565b6000819050919050565b61552d61552882613d5d565b615512565b82525050565b600061553f82876154d0565b60148201915061554f82866154fb565b60208201915061555f828561551c565b60208201915061556f828461551c565b60208201915081905095945050505050565b7f4552433732313a20617070726f766520746f2063616c6c657200000000000000600082015250565b60006155b7601983613cad565b91506155c282615581565b602082019050919050565b600060208201905081810360008301526155e6816155aa565b9050919050565b7f4552433732313a207472616e7366657220746f206e6f6e20455243373231526560008201527f63656976657220696d706c656d656e7465720000000000000000000000000000602082015250565b6000615649603283613cad565b9150615654826155ed565b604082019050919050565b600060208201905081810360008301526156788161563c565b9050919050565b7f496e697469616c697a61626c653a20636f6e7472616374206973206e6f74206960008201527f6e697469616c697a696e67000000000000000000000000000000000000000000602082015250565b60006156db602b83613cad565b91506156e68261567f565b604082019050919050565b6000602082019050818103600083015261570a816156ce565b9050919050565b600061571c82613d5d565b915061572783613d5d565b9250826157375761573661516d565b5b828206905092915050565b60008160f81b9050919050565b600061575a82615742565b9050919050565b600061576c8261574f565b9050919050565b61578461577f82613c6c565b615761565b82525050565b61579b61579682613f80565b61574f565b82525050565b60006157ad828b615773565b6001820191506157bd828a61578a565b6001820191506157cd828961578a565b6001820191506157dd828861578a565b6001820191506157ed828761578a565b6001820191506157fd828661578a565b60018201915061580d828561578a565b60018201915061581d828461578a565b6001820191508190509998505050505050505050565b600081519050919050565b6000819050602082019050919050565b600061585a82516154e7565b80915050919050565b600082821b905092915050565b600061587b82615833565b826158858461583e565b90506158908161584e565b925060208210156158d0576158cb7fffffffffffffffffffffffffffffffffffffffffffffffffffffffffffffffff83602003600802615863565b831692505b5050919050565b600082825260208201905092915050565b60006158f382615833565b6158fd81856158d7565b935061590d818560208601613cbe565b61591681613cf1565b840191505092915050565b60006080820190506159366000830187613df2565b6159436020830186613df2565b6159506040830185613fb7565b818103606083015261596281846158e8565b905095945050505050565b60008151905061597c81613c13565b92915050565b60006020828403121561599857615997613bdd565b5b60006159a68482850161596d565b91505092915050565b60006159ba82613f80565b91506159c583613f80565b9250826159d5576159d461516d565b5b828206905092915050565b60006159eb82613f80565b91506159f683613f80565b92508160ff0483118215151615615a1057615a0f614a63565b5b828202905092915050565b7f4552433732313a206d696e7420746f20746865207a65726f2061646472657373600082015250565b6000615a51602083613cad565b9150615a5c82615a1b565b602082019050919050565b60006020820190508181036000830152615a8081615a44565b9050919050565b7f4552433732313a20746f6b656e20616c7265616479206d696e74656400000000600082015250565b6000615abd601c83613cad565b9150615ac882615a87565b602082019050919050565b60006020820190508181036000830152615aec81615ab0565b905091905056fea26469706673582212208339741d93526df7b8f57d459910349209941e8849fc97a0eea7f12c81d447e264736f6c634300080a0033",
  "immutableReferences": {},
  "source": "// SPDX-License-Identifier: MIT\n\npragma solidity ^0.8.0;\n\nimport \"@openzeppelin/contracts-upgradeable/proxy/utils/Initializable.sol\";\nimport \"@openzeppelin/contracts-upgradeable/access/OwnableUpgradeable.sol\";\nimport \"@openzeppelin/contracts-upgradeable/security/PausableUpgradeable.sol\";\nimport \"@openzeppelin/contracts-upgradeable/token/ERC721/ERC721Upgradeable.sol\";\nimport \"./ICharacter.sol\";\nimport \"./IVenue.sol\";\nimport \"./ITraits.sol\";\nimport \"./IProperties.sol\";\n\ncontract Character is ICharacter, Initializable, OwnableUpgradeable, PausableUpgradeable, ERC721Upgradeable {\n  uint16 public minted;\n  uint16 public numChefs;\n  uint16 public numRats;\n  uint256 public mintPrice;\n  uint256 public MAX_TOKENS; // Max number of tokens that can be minted - 50000 in production\n  uint256 public PAID_TOKENS; // Number of tokens that can be claimed for free - 20% of MAX_TOKENS\n\n  mapping(uint256 => CharacterStruct) public tokenTraits; // Mapping from tokenId to a struct containing the token's traits\n  mapping(uint256 => uint256) public existingCombinations; // Mapping from hashed(tokenTrait) to the tokenId it's associated with, used to ensure there are no duplicates\n  mapping(address => bool) controllers; // a mapping from an address to whether or not it can mint / burn\n  uint8[][18] public rarities; // List of probabilities for each trait type, 0 - 9 are associated with Chefs, 10 - 18 are associated with Rats\n\n  ITraits public traits; // Reference to Traits\n  IProperties public properties; // Reference to Properties\n  IVenue public kitchen;\n\n  function initialize(address _traits, address _properties, uint256 _maxTokens, uint256 _mintPrice) external initializer {\n    __Ownable_init();\n    __Pausable_init();\n    __ERC721_init(\"RatAlert Characters\", \"RATCHAR\");\n\n    minted = 0;\n    numChefs = 0;\n    numRats = 0;\n    traits = ITraits(_traits);\n    properties = IProperties(_properties);\n    MAX_TOKENS = _maxTokens;\n    PAID_TOKENS = _maxTokens / 5;\n    mintPrice = _mintPrice;\n\n    // Chefs\n    rarities[2] = [255, 223, 191, 159, 127, 95]; // hat\n    rarities[3] = [255, 223, 191, 159, 127, 95, 63, 31]; // eyes\n    rarities[4] = [255, 223, 191, 159, 127, 95]; // mouth\n    rarities[5] = [255, 207, 159, 111, 63, 15]; // neck\n    rarities[6] = [255, 223, 191, 159, 127, 95]; // hand\n    // Rats\n    rarities[12] = [255, 223, 191, 159, 127, 95]; // hat\n    rarities[13] = [255, 223, 191, 159, 127, 95, 63, 31]; // eyes\n    rarities[14] = [255, 223, 191, 159, 127, 95]; // piercing\n    rarities[15] = [255, 207, 159, 111, 63, 15]; // neck\n    rarities[16] = [255, 223, 191, 159, 127, 95]; // tail\n  }\n\n  /**\n   * Mints a new ERC721 token: 90% chefs, 10% rats\n   * The first 20% are free to claim, the remaining cost $FFOOD\n   * @param amount Number of tokens to mint\n   */\n  function mint(uint8 amount, bool stake) external payable whenNotPaused {\n    require(amount > 0 && amount <= 10, \"Invalid mint amount\");\n    require(amount * mintPrice == msg.value, \"Invalid payment amount\");\n\n    uint16[] memory tokenIds = stake ? new uint16[](amount) : new uint16[](0);\n    uint256 seed;\n    CharacterStruct memory s;\n    for (uint i = 0; i < amount; i++) {\n      minted++;\n      seed = random(minted);\n      s = generate(minted, seed);\n      if (stake) {\n        _safeMint(address(kitchen), minted);\n        tokenIds[i] = minted;\n      } else {\n        _safeMint(_msgSender(), minted);\n      }\n      s.isChef ? numChefs++ : numRats++;\n    }\n    if (stake) kitchen.stakeMany(_msgSender(), tokenIds);\n  }\n\n  /**\n   * Generates traits for a specific token, checking to make sure it's unique\n   * @param tokenId - The id of the token to generate traits for\n   * @param seed - A pseudorandom 256 bit number to derive traits from\n   * @return t - A struct of traits for the given token ID\n   */\n  function generate(uint256 tokenId, uint256 seed) internal returns (CharacterStruct memory t) {\n    t = selectTraits(seed);\n    uint256 hash = structToHash(t);\n    if (existingCombinations[hash] == 0) {\n      tokenTraits[tokenId] = t;\n      existingCombinations[hash] = tokenId;\n      return t;\n    }\n    return generate(tokenId, random(seed));\n  }\n\n  /**\n   * Selects the species and all of its traits based on the seed value\n   * @param seed - A pseudorandom 256 bit number to derive traits from\n   * @return t -  A struct of randomly selected traits\n   */\n  function selectTraits(uint256 seed) internal view returns (CharacterStruct memory t) {\n    t.isChef = (seed & 0xFFFF) % 10 != 0;\n    if (t.isChef) {\n      t.hat = selectTrait(seed, 2);\n      t.eyes = selectTrait(seed, 3);\n      t.mouth = selectTrait(seed, 4);\n      t.neck = selectTrait(seed, 5);\n      t.hand = selectTrait(seed, 6);\n    } else {\n      t.hat = selectTrait(seed, 12);\n      t.eyes = selectTrait(seed, 13);\n      t.piercing = selectTrait(seed, 14);\n      t.neck = selectTrait(seed, 15);\n      t.tail = selectTrait(seed, 16);\n    }\n    return t;\n  }\n\n  /**\n   * Uses A.J. Walker's Alias algorithm for O(1) rarity table lookup\n   * ensuring O(1) instead of O(n) reduces mint cost by more than 50%\n   * probability & alias tables are generated off-chain beforehand\n   * @param seed - Portion of the 256 bit seed to remove trait correlation\n   * @param traitIndex - The trait index to select a trait for\n   * @return The ID of the randomly selected trait\n   */\n  function selectTrait(uint256 seed, uint8 traitIndex) internal view returns (uint8) {\n    seed = seed >>= (traitIndex % 10 * 16);\n    uint8 trait = uint8(seed) % uint8(rarities[traitIndex].length); // Selected trait index\n    uint8 rand = uint8(seed & 0xFFFF >> 8); // Random integer from 0 to 255\n    if (rand <= rarities[traitIndex][trait]) return trait;\n    return 0;\n  }\n\n  /**\n   * Converts a struct to a 256 bit hash to check for uniqueness\n   * @param s - The struct to pack into a hash\n   * @return The 256 bit hash of the struct\n   */\n  function structToHash(CharacterStruct memory s) internal pure returns (uint256) {\n    return uint256(bytes32(\n      abi.encodePacked(\n        s.isChef,\n        s.hat,\n        s.eyes,\n        s.piercing,\n        s.mouth,\n        s.neck,\n        s.hand,\n        s.tail\n      )\n    ));\n  }\n\n  function updateCharacter(uint256 tokenId, int8 efficiencyIncrement, int8 toleranceIncrement) public returns(uint8 efficiencyValue, uint8 toleranceValue, string memory eventName) {\n    require(controllers[msg.sender], \"Only controllers can update\");\n    bool isChef = tokenTraits[tokenId].isChef;\n    uint8 currentEfficiency = tokenTraits[tokenId].efficiency;\n    uint8 currentTolerance = tokenTraits[tokenId].tolerance;\n    (efficiencyValue, toleranceValue, eventName) = properties.getEventUpdates(isChef, currentEfficiency, currentTolerance, efficiencyIncrement, toleranceIncrement);\n    tokenTraits[tokenId].efficiency = efficiencyValue;\n    tokenTraits[tokenId].tolerance = toleranceValue;\n  }\n\n  function tokenURI(uint256 tokenId) public view override returns (string memory) {\n    require(_exists(tokenId), \"ERC721Metadata: URI query for non-existent token\");\n    return traits.tokenURI(tokenId);\n  }\n\n  function getTokenTraits(uint256 tokenId) external view override returns (CharacterStruct memory) {\n    require(_exists(tokenId), \"ERC721Metadata: URI query for non-existent token\");\n    return tokenTraits[tokenId];\n  }\n\n  function getPaidTokens() external view override returns (uint256) {\n    return PAID_TOKENS;\n  }\n\n  /**\n   * Gets controller status by address\n   * @param controller the address to check\n   */\n  function getController(address controller) external view onlyOwner returns (bool) {\n    return controllers[controller];\n  }\n\n  /**\n   * Enables an address to mint / burn\n   * @param controller the address to enable\n   */\n  function addController(address controller) external onlyOwner {\n    controllers[controller] = true;\n  }\n\n  /**\n   * Disables an address from minting / burning\n   * @param controller the address to disable\n   */\n  function removeController(address controller) external onlyOwner {\n    controllers[controller] = false;\n  }\n\n  /**\n   * Sets the kitchen address to optionally stake newly minted characters in\n   * @param _kitchen - The address of the Kitchen\n   */\n  function setKitchen(address _kitchen) external onlyOwner {\n    kitchen = IVenue(_kitchen);\n  }\n\n  /**\n   * Generates a pseudorandom number\n   * @param seed - A value to ensure different outcomes for different sources in the same block\n   * @return A pseudorandom value\n   */\n  function random(uint256 seed) internal view returns (uint256) {\n    return uint256(keccak256(abi.encodePacked(\n      tx.origin,\n      blockhash(block.number - 1),\n      block.timestamp,\n      seed\n    )));\n  }\n}\n",
  "sourcePath": "/Users/chris/workspace/ratalert/ratalert-contracts/contracts/Character.sol",
  "compiler": {
    "name": "solc",
    "version": "0.8.10+commit.fc410830.Emscripten.clang"
  },
  "schemaVersion": "3.4.4",
  "updatedAt": "2022-02-09T16:27:26.103Z",
  "networkType": "ethereum",
  "devdoc": {
    "kind": "dev",
    "methods": {
      "addController(address)": {
        "params": {
          "controller": "the address to enable"
        }
      },
      "approve(address,uint256)": {
        "details": "See {IERC721-approve}."
      },
      "balanceOf(address)": {
        "details": "See {IERC721-balanceOf}."
      },
      "getApproved(uint256)": {
        "details": "See {IERC721-getApproved}."
      },
      "getController(address)": {
        "params": {
          "controller": "the address to check"
        }
      },
      "isApprovedForAll(address,address)": {
        "details": "See {IERC721-isApprovedForAll}."
      },
      "mint(uint8,bool)": {
        "params": {
          "amount": "Number of tokens to mint"
        }
      },
      "name()": {
        "details": "See {IERC721Metadata-name}."
      },
      "owner()": {
        "details": "Returns the address of the current owner."
      },
      "ownerOf(uint256)": {
        "details": "See {IERC721-ownerOf}."
      },
      "paused()": {
        "details": "Returns true if the contract is paused, and false otherwise."
      },
      "removeController(address)": {
        "params": {
          "controller": "the address to disable"
        }
      },
      "renounceOwnership()": {
        "details": "Leaves the contract without owner. It will not be possible to call `onlyOwner` functions anymore. Can only be called by the current owner. NOTE: Renouncing ownership will leave the contract without an owner, thereby removing any functionality that is only available to the owner."
      },
      "safeTransferFrom(address,address,uint256)": {
        "details": "See {IERC721-safeTransferFrom}."
      },
      "safeTransferFrom(address,address,uint256,bytes)": {
        "details": "See {IERC721-safeTransferFrom}."
      },
      "setApprovalForAll(address,bool)": {
        "details": "See {IERC721-setApprovalForAll}."
      },
      "setKitchen(address)": {
        "params": {
          "_kitchen": "- The address of the Kitchen"
        }
      },
      "supportsInterface(bytes4)": {
        "details": "See {IERC165-supportsInterface}."
      },
      "symbol()": {
        "details": "See {IERC721Metadata-symbol}."
      },
      "tokenURI(uint256)": {
        "details": "See {IERC721Metadata-tokenURI}."
      },
      "transferFrom(address,address,uint256)": {
        "details": "See {IERC721-transferFrom}."
      },
      "transferOwnership(address)": {
        "details": "Transfers ownership of the contract to a new account (`newOwner`). Can only be called by the current owner."
      }
    },
    "version": 1
  },
  "userdoc": {
    "kind": "user",
    "methods": {
      "addController(address)": {
        "notice": "Enables an address to mint / burn"
      },
      "getController(address)": {
        "notice": "Gets controller status by address"
      },
      "mint(uint8,bool)": {
        "notice": "Mints a new ERC721 token: 90% chefs, 10% rats The first 20% are free to claim, the remaining cost $FFOOD"
      },
      "removeController(address)": {
        "notice": "Disables an address from minting / burning"
      },
      "setKitchen(address)": {
        "notice": "Sets the kitchen address to optionally stake newly minted characters in"
      }
    },
    "version": 1
  }
}