{
  "contractName": "Character",
  "abi": [
    {
      "anonymous": false,
      "inputs": [
        {
          "indexed": true,
          "internalType": "address",
          "name": "owner",
          "type": "address"
        },
        {
          "indexed": true,
          "internalType": "address",
          "name": "approved",
          "type": "address"
        },
        {
          "indexed": true,
          "internalType": "uint256",
          "name": "tokenId",
          "type": "uint256"
        }
      ],
      "name": "Approval",
      "type": "event"
    },
    {
      "anonymous": false,
      "inputs": [
        {
          "indexed": true,
          "internalType": "address",
          "name": "owner",
          "type": "address"
        },
        {
          "indexed": true,
          "internalType": "address",
          "name": "operator",
          "type": "address"
        },
        {
          "indexed": false,
          "internalType": "bool",
          "name": "approved",
          "type": "bool"
        }
      ],
      "name": "ApprovalForAll",
      "type": "event"
    },
    {
      "anonymous": false,
      "inputs": [
        {
          "indexed": true,
          "internalType": "address",
          "name": "previousOwner",
          "type": "address"
        },
        {
          "indexed": true,
          "internalType": "address",
          "name": "newOwner",
          "type": "address"
        }
      ],
      "name": "OwnershipTransferred",
      "type": "event"
    },
    {
      "anonymous": false,
      "inputs": [
        {
          "indexed": false,
          "internalType": "address",
          "name": "account",
          "type": "address"
        }
      ],
      "name": "Paused",
      "type": "event"
    },
    {
      "anonymous": false,
      "inputs": [
        {
          "indexed": true,
          "internalType": "address",
          "name": "from",
          "type": "address"
        },
        {
          "indexed": true,
          "internalType": "address",
          "name": "to",
          "type": "address"
        },
        {
          "indexed": true,
          "internalType": "uint256",
          "name": "tokenId",
          "type": "uint256"
        }
      ],
      "name": "Transfer",
      "type": "event"
    },
    {
      "anonymous": false,
      "inputs": [
        {
          "indexed": false,
          "internalType": "address",
          "name": "account",
          "type": "address"
        }
      ],
      "name": "Unpaused",
      "type": "event"
    },
    {
      "inputs": [
        {
          "internalType": "address[]",
          "name": "_controllers",
          "type": "address[]"
        }
      ],
      "name": "addController",
      "outputs": [],
      "stateMutability": "nonpayable",
      "type": "function"
    },
    {
      "inputs": [
        {
          "internalType": "address",
          "name": "to",
          "type": "address"
        },
        {
          "internalType": "uint256",
          "name": "tokenId",
          "type": "uint256"
        }
      ],
      "name": "approve",
      "outputs": [],
      "stateMutability": "nonpayable",
      "type": "function"
    },
    {
      "inputs": [
        {
          "internalType": "address",
          "name": "owner",
          "type": "address"
        }
      ],
      "name": "balanceOf",
      "outputs": [
        {
          "internalType": "uint256",
          "name": "",
          "type": "uint256"
        }
      ],
      "stateMutability": "view",
      "type": "function",
      "constant": true
    },
    {
      "inputs": [
        {
          "internalType": "address",
          "name": "_controller",
          "type": "address"
        }
      ],
      "name": "controller",
      "outputs": [
        {
          "internalType": "bool",
          "name": "",
          "type": "bool"
        }
      ],
      "stateMutability": "view",
      "type": "function",
      "constant": true
    },
    {
      "inputs": [
        {
          "internalType": "uint256",
          "name": "tokenId",
          "type": "uint256"
        }
      ],
      "name": "getApproved",
      "outputs": [
        {
          "internalType": "address",
          "name": "",
          "type": "address"
        }
      ],
      "stateMutability": "view",
      "type": "function",
      "constant": true
    },
    {
      "inputs": [
        {
          "internalType": "address",
          "name": "owner",
          "type": "address"
        },
        {
          "internalType": "address",
          "name": "operator",
          "type": "address"
        }
      ],
      "name": "isApprovedForAll",
      "outputs": [
        {
          "internalType": "bool",
          "name": "",
          "type": "bool"
        }
      ],
      "stateMutability": "view",
      "type": "function",
      "constant": true
    },
    {
      "inputs": [],
      "name": "maxTokens",
      "outputs": [
        {
          "internalType": "uint256",
          "name": "",
          "type": "uint256"
        }
      ],
      "stateMutability": "view",
      "type": "function",
      "constant": true
    },
    {
      "inputs": [],
      "name": "minted",
      "outputs": [
        {
          "internalType": "uint16",
          "name": "",
          "type": "uint16"
        }
      ],
      "stateMutability": "view",
      "type": "function",
      "constant": true
    },
    {
      "inputs": [],
      "name": "name",
      "outputs": [
        {
          "internalType": "string",
          "name": "",
          "type": "string"
        }
      ],
      "stateMutability": "view",
      "type": "function",
      "constant": true
    },
    {
      "inputs": [],
      "name": "numChefs",
      "outputs": [
        {
          "internalType": "uint16",
          "name": "",
          "type": "uint16"
        }
      ],
      "stateMutability": "view",
      "type": "function",
      "constant": true
    },
    {
      "inputs": [],
      "name": "numRats",
      "outputs": [
        {
          "internalType": "uint16",
          "name": "",
          "type": "uint16"
        }
      ],
      "stateMutability": "view",
      "type": "function",
      "constant": true
    },
    {
      "inputs": [],
      "name": "owner",
      "outputs": [
        {
          "internalType": "address",
          "name": "",
          "type": "address"
        }
      ],
      "stateMutability": "view",
      "type": "function",
      "constant": true
    },
    {
      "inputs": [
        {
          "internalType": "uint256",
          "name": "tokenId",
          "type": "uint256"
        }
      ],
      "name": "ownerOf",
      "outputs": [
        {
          "internalType": "address",
          "name": "",
          "type": "address"
        }
      ],
      "stateMutability": "view",
      "type": "function",
      "constant": true
    },
    {
      "inputs": [],
      "name": "paid",
      "outputs": [
        {
          "internalType": "uint16",
          "name": "",
          "type": "uint16"
        }
      ],
      "stateMutability": "view",
      "type": "function",
      "constant": true
    },
    {
      "inputs": [],
      "name": "pause",
      "outputs": [],
      "stateMutability": "nonpayable",
      "type": "function"
    },
    {
      "inputs": [],
      "name": "paused",
      "outputs": [
        {
          "internalType": "bool",
          "name": "",
          "type": "bool"
        }
      ],
      "stateMutability": "view",
      "type": "function",
      "constant": true
    },
    {
      "inputs": [],
      "name": "properties",
      "outputs": [
        {
          "internalType": "contract IProperties",
          "name": "",
          "type": "address"
        }
      ],
      "stateMutability": "view",
      "type": "function",
      "constant": true
    },
    {
      "inputs": [
        {
          "internalType": "address[]",
          "name": "_controllers",
          "type": "address[]"
        }
      ],
      "name": "removeController",
      "outputs": [],
      "stateMutability": "nonpayable",
      "type": "function"
    },
    {
      "inputs": [],
      "name": "renounceOwnership",
      "outputs": [],
      "stateMutability": "nonpayable",
      "type": "function"
    },
    {
      "inputs": [
        {
          "internalType": "address",
          "name": "from",
          "type": "address"
        },
        {
          "internalType": "address",
          "name": "to",
          "type": "address"
        },
        {
          "internalType": "uint256",
          "name": "tokenId",
          "type": "uint256"
        }
      ],
      "name": "safeTransferFrom",
      "outputs": [],
      "stateMutability": "nonpayable",
      "type": "function"
    },
    {
      "inputs": [
        {
          "internalType": "address",
          "name": "from",
          "type": "address"
        },
        {
          "internalType": "address",
          "name": "to",
          "type": "address"
        },
        {
          "internalType": "uint256",
          "name": "tokenId",
          "type": "uint256"
        },
        {
          "internalType": "bytes",
          "name": "_data",
          "type": "bytes"
        }
      ],
      "name": "safeTransferFrom",
      "outputs": [],
      "stateMutability": "nonpayable",
      "type": "function"
    },
    {
      "inputs": [
        {
          "internalType": "address",
          "name": "operator",
          "type": "address"
        },
        {
          "internalType": "bool",
          "name": "approved",
          "type": "bool"
        }
      ],
      "name": "setApprovalForAll",
      "outputs": [],
      "stateMutability": "nonpayable",
      "type": "function"
    },
    {
      "inputs": [
        {
          "internalType": "address",
          "name": "_dao",
          "type": "address"
        }
      ],
      "name": "setDao",
      "outputs": [],
      "stateMutability": "nonpayable",
      "type": "function"
    },
    {
      "inputs": [
        {
          "internalType": "bytes4",
          "name": "interfaceId",
          "type": "bytes4"
        }
      ],
      "name": "supportsInterface",
      "outputs": [
        {
          "internalType": "bool",
          "name": "",
          "type": "bool"
        }
      ],
      "stateMutability": "view",
      "type": "function",
      "constant": true
    },
    {
      "inputs": [],
      "name": "symbol",
      "outputs": [
        {
          "internalType": "string",
          "name": "",
          "type": "string"
        }
      ],
      "stateMutability": "view",
      "type": "function",
      "constant": true
    },
    {
      "inputs": [],
      "name": "theMint",
      "outputs": [
        {
          "internalType": "contract IMint",
          "name": "",
          "type": "address"
        }
      ],
      "stateMutability": "view",
      "type": "function",
      "constant": true
    },
    {
      "inputs": [
        {
          "internalType": "uint256",
          "name": "",
          "type": "uint256"
        }
      ],
      "name": "tokenTraits",
      "outputs": [
        {
          "internalType": "bool",
          "name": "isChef",
          "type": "bool"
        },
        {
          "internalType": "uint8",
          "name": "hat",
          "type": "uint8"
        },
        {
          "internalType": "uint8",
          "name": "eyes",
          "type": "uint8"
        },
        {
          "internalType": "uint8",
          "name": "piercing",
          "type": "uint8"
        },
        {
          "internalType": "uint8",
          "name": "mouth",
          "type": "uint8"
        },
        {
          "internalType": "uint8",
          "name": "neck",
          "type": "uint8"
        },
        {
          "internalType": "uint8",
          "name": "hand",
          "type": "uint8"
        },
        {
          "internalType": "uint8",
          "name": "tail",
          "type": "uint8"
        },
        {
          "internalType": "uint8",
          "name": "efficiency",
          "type": "uint8"
        },
        {
          "internalType": "uint8",
          "name": "tolerance",
          "type": "uint8"
        },
        {
          "internalType": "int8",
          "name": "boost",
          "type": "int8"
        }
      ],
      "stateMutability": "view",
      "type": "function",
      "constant": true
    },
    {
      "inputs": [],
      "name": "traits",
      "outputs": [
        {
          "internalType": "contract ITraits",
          "name": "",
          "type": "address"
        }
      ],
      "stateMutability": "view",
      "type": "function",
      "constant": true
    },
    {
      "inputs": [
        {
          "internalType": "address",
          "name": "from",
          "type": "address"
        },
        {
          "internalType": "address",
          "name": "to",
          "type": "address"
        },
        {
          "internalType": "uint256",
          "name": "tokenId",
          "type": "uint256"
        }
      ],
      "name": "transferFrom",
      "outputs": [],
      "stateMutability": "nonpayable",
      "type": "function"
    },
    {
      "inputs": [
        {
          "internalType": "address",
          "name": "newOwner",
          "type": "address"
        }
      ],
      "name": "transferOwnership",
      "outputs": [],
      "stateMutability": "nonpayable",
      "type": "function"
    },
    {
      "inputs": [],
      "name": "unpause",
      "outputs": [],
      "stateMutability": "nonpayable",
      "type": "function"
    },
    {
      "inputs": [
        {
          "internalType": "address",
          "name": "_paywall",
          "type": "address"
        },
        {
          "internalType": "address",
          "name": "_mint",
          "type": "address"
        },
        {
          "internalType": "address",
          "name": "_traits",
          "type": "address"
        },
        {
          "internalType": "address",
          "name": "_properties",
          "type": "address"
        }
      ],
      "name": "initialize",
      "outputs": [],
      "stateMutability": "nonpayable",
      "type": "function"
    },
    {
      "inputs": [
        {
          "internalType": "uint256",
          "name": "_maxTokens",
          "type": "uint256"
        },
        {
          "internalType": "uint256",
          "name": "_gen0Tokens",
          "type": "uint256"
        }
      ],
      "name": "configure",
      "outputs": [],
      "stateMutability": "nonpayable",
      "type": "function"
    },
    {
      "inputs": [
        {
          "internalType": "uint8",
          "name": "amount",
          "type": "uint8"
        },
        {
          "internalType": "bool",
          "name": "stake",
          "type": "bool"
        }
      ],
      "name": "mint",
      "outputs": [],
      "stateMutability": "payable",
      "type": "function",
      "payable": true
    },
    {
      "inputs": [
        {
          "components": [
            {
              "internalType": "bytes32",
              "name": "requestId",
              "type": "bytes32"
            },
            {
              "internalType": "address",
              "name": "sender",
              "type": "address"
            },
            {
              "internalType": "uint8",
              "name": "amount",
              "type": "uint8"
            },
            {
              "internalType": "bool",
              "name": "stake",
              "type": "bool"
            },
            {
              "internalType": "int8",
              "name": "boost",
              "type": "int8"
            }
          ],
          "internalType": "struct IMint.VRFStruct",
          "name": "v",
          "type": "tuple"
        },
        {
          "components": [
            {
              "internalType": "bool",
              "name": "isChef",
              "type": "bool"
            },
            {
              "internalType": "uint8",
              "name": "hat",
              "type": "uint8"
            },
            {
              "internalType": "uint8",
              "name": "eyes",
              "type": "uint8"
            },
            {
              "internalType": "uint8",
              "name": "piercing",
              "type": "uint8"
            },
            {
              "internalType": "uint8",
              "name": "mouth",
              "type": "uint8"
            },
            {
              "internalType": "uint8",
              "name": "neck",
              "type": "uint8"
            },
            {
              "internalType": "uint8",
              "name": "hand",
              "type": "uint8"
            },
            {
              "internalType": "uint8",
              "name": "tail",
              "type": "uint8"
            },
            {
              "internalType": "uint8",
              "name": "efficiency",
              "type": "uint8"
            },
            {
              "internalType": "uint8",
              "name": "tolerance",
              "type": "uint8"
            },
            {
              "internalType": "int8",
              "name": "boost",
              "type": "int8"
            }
          ],
          "internalType": "struct ICharacter.CharacterStruct[]",
          "name": "tokens",
          "type": "tuple[]"
        }
      ],
      "name": "fulfillMint",
      "outputs": [],
      "stateMutability": "nonpayable",
      "type": "function"
    },
    {
      "inputs": [
        {
          "internalType": "uint256",
          "name": "tokenId",
          "type": "uint256"
        },
        {
          "internalType": "int8",
          "name": "efficiencyIncrement",
          "type": "int8"
        },
        {
          "internalType": "int8",
          "name": "toleranceIncrement",
          "type": "int8"
        },
        {
          "internalType": "uint256",
          "name": "randomVal",
          "type": "uint256"
        }
      ],
      "name": "updateCharacter",
      "outputs": [
        {
          "internalType": "uint8",
          "name": "efficiencyValue",
          "type": "uint8"
        },
        {
          "internalType": "uint8",
          "name": "toleranceValue",
          "type": "uint8"
        },
        {
          "internalType": "string",
          "name": "eventName",
          "type": "string"
        }
      ],
      "stateMutability": "nonpayable",
      "type": "function"
    },
    {
      "inputs": [
        {
          "internalType": "uint256",
          "name": "tokenId",
          "type": "uint256"
        }
      ],
      "name": "tokenURI",
      "outputs": [
        {
          "internalType": "string",
          "name": "",
          "type": "string"
        }
      ],
      "stateMutability": "view",
      "type": "function",
      "constant": true
    },
    {
      "inputs": [
        {
          "internalType": "uint256",
          "name": "tokenId",
          "type": "uint256"
        }
      ],
      "name": "getTokenTraits",
      "outputs": [
        {
          "components": [
            {
              "internalType": "bool",
              "name": "isChef",
              "type": "bool"
            },
            {
              "internalType": "uint8",
              "name": "hat",
              "type": "uint8"
            },
            {
              "internalType": "uint8",
              "name": "eyes",
              "type": "uint8"
            },
            {
              "internalType": "uint8",
              "name": "piercing",
              "type": "uint8"
            },
            {
              "internalType": "uint8",
              "name": "mouth",
              "type": "uint8"
            },
            {
              "internalType": "uint8",
              "name": "neck",
              "type": "uint8"
            },
            {
              "internalType": "uint8",
              "name": "hand",
              "type": "uint8"
            },
            {
              "internalType": "uint8",
              "name": "tail",
              "type": "uint8"
            },
            {
              "internalType": "uint8",
              "name": "efficiency",
              "type": "uint8"
            },
            {
              "internalType": "uint8",
              "name": "tolerance",
              "type": "uint8"
            },
            {
              "internalType": "int8",
              "name": "boost",
              "type": "int8"
            }
          ],
          "internalType": "struct ICharacter.CharacterStruct",
          "name": "",
          "type": "tuple"
        }
      ],
      "stateMutability": "view",
      "type": "function",
      "constant": true
    },
    {
      "inputs": [],
      "name": "getGen0Tokens",
      "outputs": [
        {
          "internalType": "uint256",
          "name": "",
          "type": "uint256"
        }
      ],
      "stateMutability": "view",
      "type": "function",
      "constant": true
    },
    {
      "inputs": [],
      "name": "withdrawPayments",
      "outputs": [],
      "stateMutability": "nonpayable",
      "type": "function"
    },
    {
      "inputs": [
        {
          "internalType": "address",
          "name": "_kitchen",
          "type": "address"
        }
      ],
      "name": "setKitchen",
      "outputs": [],
      "stateMutability": "nonpayable",
      "type": "function"
    }
  ],
  "bytecode": "0x608060405234801561001057600080fd5b50615b4880620000216000396000f3fe6080604052600436106102465760003560e01c8063715018a611610139578063b88d4fde116100b6578063e1fc334f1161007a578063e1fc334f14610865578063e831574214610890578063e985e9c5146108bb578063f2fde38b146108f8578063f8c8765e14610921578063fcd802b11461094a57610246565b8063b88d4fde14610750578063c13aa7b514610779578063c87b56dd146107b6578063d39f8a4d146107f3578063e05c57bf1461081e57610246565b806392c405b6116100fd57806392c405b61461066d57806394e568471461069657806395d89b41146106d3578063a22cb465146106fe578063a83a72021461072757610246565b8063715018a6146105be5780637856f945146105d55780638456cb59146106005780638da5cb5b146106175780639284521c1461064257610246565b806342842e0e116101c75780636352211e1161018b5780636352211e146104b357806363dbfc77146104f05780636637b8821461052f5780636931a2ba1461055857806370a082311461058157610246565b806342842e0e146104015780634f02c4201461042a5780635c975abb146104555780636103d70b14610480578063612bfba41461049757610246565b806323b872dd1161020e57806323b872dd14610344578063295b4e171461036d578063337f2847146103985780633e32747a146103c15780633f4ba83a146103ea57610246565b806301ffc9a71461024b57806306fdde0314610288578063081812fc146102b35780630917e40d146102f0578063095ea7b31461031b575b600080fd5b34801561025757600080fd5b50610272600480360381019061026d919061393c565b610975565b60405161027f9190613984565b60405180910390f35b34801561029457600080fd5b5061029d610a57565b6040516102aa9190613a38565b60405180910390f35b3480156102bf57600080fd5b506102da60048036038101906102d59190613a90565b610ae9565b6040516102e79190613afe565b60405180910390f35b3480156102fc57600080fd5b50610305610b6f565b6040516103129190613b36565b60405180910390f35b34801561032757600080fd5b50610342600480360381019061033d9190613b7d565b610b84565b005b34801561035057600080fd5b5061036b60048036038101906103669190613bbd565b610c9c565b005b34801561037957600080fd5b50610382610cfc565b60405161038f9190613b36565b60405180910390f35b3480156103a457600080fd5b506103bf60048036038101906103ba9190613c10565b610d11565b005b3480156103cd57600080fd5b506103e860048036038101906103e39190613c3d565b610dd2565b005b3480156103f657600080fd5b506103ff610e62565b005b34801561040d57600080fd5b5061042860048036038101906104239190613bbd565b610e74565b005b34801561043657600080fd5b5061043f610e94565b60405161044c9190613b36565b60405180910390f35b34801561046157600080fd5b5061046a610ea9565b6040516104779190613984565b60405180910390f35b34801561048c57600080fd5b50610495610ec0565b005b6104b160048036038101906104ac9190613ce2565b610f33565b005b3480156104bf57600080fd5b506104da60048036038101906104d59190613a90565b6111aa565b6040516104e79190613afe565b60405180910390f35b3480156104fc57600080fd5b5061051760048036038101906105129190613d5b565b61125c565b60405161052693929190613dd1565b60405180910390f35b34801561053b57600080fd5b5061055660048036038101906105519190613c10565b61140b565b005b34801561056457600080fd5b5061057f600480360381019061057a919061412c565b6114cb565b005b34801561058d57600080fd5b506105a860048036038101906105a39190613c10565b611a3c565b6040516105b59190614197565b60405180910390f35b3480156105ca57600080fd5b506105d3611af4565b005b3480156105e157600080fd5b506105ea611b7c565b6040516105f79190614197565b60405180910390f35b34801561060c57600080fd5b50610615611b87565b005b34801561062357600080fd5b5061062c611b99565b6040516106399190613afe565b60405180910390f35b34801561064e57600080fd5b50610657611bc3565b6040516106649190614211565b60405180910390f35b34801561067957600080fd5b50610694600480360381019061068f91906142ef565b611bea565b005b3480156106a257600080fd5b506106bd60048036038101906106b89190613a90565b611cfc565b6040516106ca9190614446565b60405180910390f35b3480156106df57600080fd5b506106e8611eb0565b6040516106f59190613a38565b60405180910390f35b34801561070a57600080fd5b5061072560048036038101906107209190614462565b611f42565b005b34801561073357600080fd5b5061074e600480360381019061074991906142ef565b611f58565b005b34801561075c57600080fd5b5061077760048036038101906107729190614557565b61206a565b005b34801561078557600080fd5b506107a0600480360381019061079b9190613c10565b6120cc565b6040516107ad9190613984565b60405180910390f35b3480156107c257600080fd5b506107dd60048036038101906107d89190613a90565b612123565b6040516107ea9190613a38565b60405180910390f35b3480156107ff57600080fd5b50610808612216565b6040516108159190613b36565b60405180910390f35b34801561082a57600080fd5b5061084560048036038101906108409190613a90565b61222b565b60405161085c9b9a999897969594939291906145e9565b60405180910390f35b34801561087157600080fd5b5061087a612315565b60405161088791906146b5565b60405180910390f35b34801561089c57600080fd5b506108a561233c565b6040516108b29190614197565b60405180910390f35b3480156108c757600080fd5b506108e260048036038101906108dd91906146d0565b612343565b6040516108ef9190613984565b60405180910390f35b34801561090457600080fd5b5061091f600480360381019061091a9190613c10565b6123d8565b005b34801561092d57600080fd5b5061094860048036038101906109439190614710565b6124d0565b005b34801561095657600080fd5b5061095f612744565b60405161096c9190614798565b60405180910390f35b60007f80ac58cd000000000000000000000000000000000000000000000000000000007bffffffffffffffffffffffffffffffffffffffffffffffffffffffff1916827bffffffffffffffffffffffffffffffffffffffffffffffffffffffff19161480610a4057507f5b5e139f000000000000000000000000000000000000000000000000000000007bffffffffffffffffffffffffffffffffffffffffffffffffffffffff1916827bffffffffffffffffffffffffffffffffffffffffffffffffffffffff1916145b80610a505750610a4f8261276b565b5b9050919050565b606060fc8054610a66906147e2565b80601f0160208091040260200160405190810160405280929190818152602001828054610a92906147e2565b8015610adf5780601f10610ab457610100808354040283529160200191610adf565b820191906000526020600020905b815481529060010190602001808311610ac257829003601f168201915b5050505050905090565b6000610af4826127d5565b610b33576040517f08c379a0000000000000000000000000000000000000000000000000000000008152600401610b2a90614886565b60405180910390fd5b610100600083815260200190815260200160002060009054906101000a900473ffffffffffffffffffffffffffffffffffffffff169050919050565b61012f60069054906101000a900461ffff1681565b6000610b8f826111aa565b90508073ffffffffffffffffffffffffffffffffffffffff168373ffffffffffffffffffffffffffffffffffffffff161415610c00576040517f08c379a0000000000000000000000000000000000000000000000000000000008152600401610bf790614918565b60405180910390fd5b8073ffffffffffffffffffffffffffffffffffffffff16610c1f612841565b73ffffffffffffffffffffffffffffffffffffffff161480610c4e5750610c4d81610c48612841565b612343565b5b610c8d576040517f08c379a0000000000000000000000000000000000000000000000000000000008152600401610c84906149aa565b60405180910390fd5b610c978383612849565b505050565b610cad610ca7612841565b82612903565b610cec576040517f08c379a0000000000000000000000000000000000000000000000000000000008152600401610ce390614a3c565b60405180910390fd5b610cf78383836129e1565b505050565b61012f60009054906101000a900461ffff1681565b610d19612841565b73ffffffffffffffffffffffffffffffffffffffff16610d37611b99565b73ffffffffffffffffffffffffffffffffffffffff1614610d8d576040517f08c379a0000000000000000000000000000000000000000000000000000000008152600401610d8490614aa8565b60405180910390fd5b8061013660006101000a81548173ffffffffffffffffffffffffffffffffffffffff021916908373ffffffffffffffffffffffffffffffffffffffff16021790555050565b610dda612841565b73ffffffffffffffffffffffffffffffffffffffff16610df8611b99565b73ffffffffffffffffffffffffffffffffffffffff1614610e4e576040517f08c379a0000000000000000000000000000000000000000000000000000000008152600401610e4590614aa8565b60405180910390fd5b816101308190555080610131819055505050565b610e6a612c48565b610e72612cda565b565b610e8f8383836040518060200160405280600081525061206a565b505050565b61012f60029054906101000a900461ffff1681565b6000603360009054906101000a900460ff16905090565b610ec8612c48565b60c960009054906101000a900473ffffffffffffffffffffffffffffffffffffffff1673ffffffffffffffffffffffffffffffffffffffff166108fc479081150290604051600060405180830381858888f19350505050158015610f30573d6000803e3d6000fd5b50565b610f3b610ea9565b15610f7b576040517f08c379a0000000000000000000000000000000000000000000000000000000008152600401610f7290614b14565b60405180910390fd5b610f83612841565b73ffffffffffffffffffffffffffffffffffffffff163273ffffffffffffffffffffffffffffffffffffffff1614610ff0576040517f08c379a0000000000000000000000000000000000000000000000000000000008152600401610fe790614b80565b60405180910390fd5b600061013760009054906101000a900473ffffffffffffffffffffffffffffffffffffffff1673ffffffffffffffffffffffffffffffffffffffff1663abc26c60611039612841565b853461012f60009054906101000a900461ffff1661013054610131546040518763ffffffff1660e01b815260040161107696959493929190614ba0565b6020604051808303816000875af1158015611095573d6000803e3d6000fd5b505050506040513d601f19601f820116820180604052508101906110b99190614c16565b90508260ff1661012f60008282829054906101000a900461ffff166110de9190614c72565b92506101000a81548161ffff021916908361ffff16021790555061013360009054906101000a900473ffffffffffffffffffffffffffffffffffffffff1673ffffffffffffffffffffffffffffffffffffffff1663e8ff04a161113f612841565b8585856040518563ffffffff1660e01b81526004016111619493929190614caa565b6020604051808303816000875af1158015611180573d6000803e3d6000fd5b505050506040513d601f19601f820116820180604052508101906111a49190614d04565b50505050565b60008060fe600084815260200190815260200160002060009054906101000a900473ffffffffffffffffffffffffffffffffffffffff169050600073ffffffffffffffffffffffffffffffffffffffff168173ffffffffffffffffffffffffffffffffffffffff161415611253576040517f08c379a000000000000000000000000000000000000000000000000000000000815260040161124a90614da3565b60405180910390fd5b80915050919050565b6000806060611269612d7c565b6000610132600089815260200190815260200160002060000160009054906101000a900460ff169050600061013260008a815260200190815260200160002060000160089054906101000a900460ff169050600061013260008b815260200190815260200160002060000160099054906101000a900460ff16905061013560009054906101000a900473ffffffffffffffffffffffffffffffffffffffff1673ffffffffffffffffffffffffffffffffffffffff16634718e3088484848d8d8d6040518763ffffffff1660e01b815260040161134a96959493929190614dc3565b6000604051808303816000875af1158015611369573d6000803e3d6000fd5b505050506040513d6000823e3d601f19601f820116820180604052508101906113929190614eda565b8096508197508298505050508561013260008c815260200190815260200160002060000160086101000a81548160ff021916908360ff1602179055508461013260008c815260200190815260200160002060000160096101000a81548160ff021916908360ff1602179055505050509450945094915050565b611413612841565b73ffffffffffffffffffffffffffffffffffffffff16611431611b99565b73ffffffffffffffffffffffffffffffffffffffff1614611487576040517f08c379a000000000000000000000000000000000000000000000000000000000815260040161147e90614aa8565b60405180910390fd5b8060c960006101000a81548173ffffffffffffffffffffffffffffffffffffffff021916908373ffffffffffffffffffffffffffffffffffffffff16021790555050565b60026097541415611511576040517f08c379a000000000000000000000000000000000000000000000000000000000815260040161150890614f95565b60405180910390fd5b6002609781905550611521610ea9565b15611561576040517f08c379a000000000000000000000000000000000000000000000000000000000815260040161155890614b14565b60405180910390fd5b61013360009054906101000a900473ffffffffffffffffffffffffffffffffffffffff1673ffffffffffffffffffffffffffffffffffffffff163373ffffffffffffffffffffffffffffffffffffffff16146115f2576040517f08c379a00000000000000000000000000000000000000000000000000000000081526004016115e990615001565b60405180910390fd5b6000826040015160ff1667ffffffffffffffff81111561161557611614613e14565b5b6040519080825280602002602001820160405280156116435781602001602082028036833780820191505090505b50905060005b836040015160ff1681101561198f5761012f600281819054906101000a900461ffff168092919061167990615021565b91906101000a81548161ffff021916908361ffff1602179055505061012f60029054906101000a900461ffff168282815181106116b9576116b861504c565b5b602002602001019061ffff16908161ffff16815250508281815181106116e2576116e161504c565b5b6020026020010151610132600061012f60029054906101000a900461ffff1661ffff16815260200190815260200160002060008201518160000160006101000a81548160ff02191690831515021790555060208201518160000160016101000a81548160ff021916908360ff16021790555060408201518160000160026101000a81548160ff021916908360ff16021790555060608201518160000160036101000a81548160ff021916908360ff16021790555060808201518160000160046101000a81548160ff021916908360ff16021790555060a08201518160000160056101000a81548160ff021916908360ff16021790555060c08201518160000160066101000a81548160ff021916908360ff16021790555060e08201518160000160076101000a81548160ff021916908360ff1602179055506101008201518160000160086101000a81548160ff021916908360ff1602179055506101208201518160000160096101000a81548160ff021916908360ff16021790555061014082015181600001600a6101000a81548160ff021916908360000b60ff1602179055509050508281815181106118995761189861504c565b5b6020026020010151600001516118e95761012f600681819054906101000a900461ffff16809291906118ca90615021565b91906101000a81548161ffff021916908361ffff160217905550611925565b61012f600481819054906101000a900461ffff168092919061190a90615021565b91906101000a81548161ffff021916908361ffff1602179055505b5061197c846060015161193c578460200151611961565b61013660009054906101000a900473ffffffffffffffffffffffffffffffffffffffff165b61012f60029054906101000a900461ffff1661ffff16612e0b565b80806119879061507b565b915050611649565b50826060015115611a2f5761013660009054906101000a900473ffffffffffffffffffffffffffffffffffffffff1673ffffffffffffffffffffffffffffffffffffffff1663dbdc1f6b8460200151836040518363ffffffff1660e01b81526004016119fc929190615182565b600060405180830381600087803b158015611a1657600080fd5b505af1158015611a2a573d6000803e3d6000fd5b505050505b5060016097819055505050565b60008073ffffffffffffffffffffffffffffffffffffffff168273ffffffffffffffffffffffffffffffffffffffff161415611aad576040517f08c379a0000000000000000000000000000000000000000000000000000000008152600401611aa490615224565b60405180910390fd5b60ff60008373ffffffffffffffffffffffffffffffffffffffff1673ffffffffffffffffffffffffffffffffffffffff168152602001908152602001600020549050919050565b611afc612841565b73ffffffffffffffffffffffffffffffffffffffff16611b1a611b99565b73ffffffffffffffffffffffffffffffffffffffff1614611b70576040517f08c379a0000000000000000000000000000000000000000000000000000000008152600401611b6790614aa8565b60405180910390fd5b611b7a6000612e29565b565b600061013154905090565b611b8f612c48565b611b97612eef565b565b6000606560009054906101000a900473ffffffffffffffffffffffffffffffffffffffff16905090565b61013360009054906101000a900473ffffffffffffffffffffffffffffffffffffffff1681565b611bf2612841565b73ffffffffffffffffffffffffffffffffffffffff16611c10611b99565b73ffffffffffffffffffffffffffffffffffffffff1614611c66576040517f08c379a0000000000000000000000000000000000000000000000000000000008152600401611c5d90614aa8565b60405180910390fd5b60005b8151811015611cf857600061012e6000848481518110611c8c57611c8b61504c565b5b602002602001015173ffffffffffffffffffffffffffffffffffffffff1673ffffffffffffffffffffffffffffffffffffffff16815260200190815260200160002060006101000a81548160ff0219169083151502179055508080611cf09061507b565b915050611c69565b5050565b611d046137b4565b611d0d826127d5565b611d4c576040517f08c379a0000000000000000000000000000000000000000000000000000000008152600401611d43906152b6565b60405180910390fd5b6101326000838152602001908152602001600020604051806101600160405290816000820160009054906101000a900460ff161515151581526020016000820160019054906101000a900460ff1660ff1660ff1681526020016000820160029054906101000a900460ff1660ff1660ff1681526020016000820160039054906101000a900460ff1660ff1660ff1681526020016000820160049054906101000a900460ff1660ff1660ff1681526020016000820160059054906101000a900460ff1660ff1660ff1681526020016000820160069054906101000a900460ff1660ff1660ff1681526020016000820160079054906101000a900460ff1660ff1660ff1681526020016000820160089054906101000a900460ff1660ff1660ff1681526020016000820160099054906101000a900460ff1660ff1660ff16815260200160008201600a9054906101000a900460000b60000b60000b815250509050919050565b606060fd8054611ebf906147e2565b80601f0160208091040260200160405190810160405280929190818152602001828054611eeb906147e2565b8015611f385780601f10611f0d57610100808354040283529160200191611f38565b820191906000526020600020905b815481529060010190602001808311611f1b57829003601f168201915b5050505050905090565b611f54611f4d612841565b8383612f92565b5050565b611f60612841565b73ffffffffffffffffffffffffffffffffffffffff16611f7e611b99565b73ffffffffffffffffffffffffffffffffffffffff1614611fd4576040517f08c379a0000000000000000000000000000000000000000000000000000000008152600401611fcb90614aa8565b60405180910390fd5b60005b815181101561206657600161012e6000848481518110611ffa57611ff961504c565b5b602002602001015173ffffffffffffffffffffffffffffffffffffffff1673ffffffffffffffffffffffffffffffffffffffff16815260200190815260200160002060006101000a81548160ff021916908315150217905550808061205e9061507b565b915050611fd7565b5050565b61207b612075612841565b83612903565b6120ba576040517f08c379a00000000000000000000000000000000000000000000000000000000081526004016120b190614a3c565b60405180910390fd5b6120c684848484613100565b50505050565b600061012e60008373ffffffffffffffffffffffffffffffffffffffff1673ffffffffffffffffffffffffffffffffffffffff16815260200190815260200160002060009054906101000a900460ff169050919050565b606061212e826127d5565b61216d576040517f08c379a0000000000000000000000000000000000000000000000000000000008152600401612164906152b6565b60405180910390fd5b61013460009054906101000a900473ffffffffffffffffffffffffffffffffffffffff1673ffffffffffffffffffffffffffffffffffffffff1663c87b56dd836040518263ffffffff1660e01b81526004016121c99190614197565b600060405180830381865afa1580156121e6573d6000803e3d6000fd5b505050506040513d6000823e3d601f19601f8201168201806040525081019061220f91906152d6565b9050919050565b61012f60049054906101000a900461ffff1681565b6101326020528060005260406000206000915090508060000160009054906101000a900460ff16908060000160019054906101000a900460ff16908060000160029054906101000a900460ff16908060000160039054906101000a900460ff16908060000160049054906101000a900460ff16908060000160059054906101000a900460ff16908060000160069054906101000a900460ff16908060000160079054906101000a900460ff16908060000160089054906101000a900460ff16908060000160099054906101000a900460ff169080600001600a9054906101000a900460000b90508b565b61013460009054906101000a900473ffffffffffffffffffffffffffffffffffffffff1681565b6101305481565b600061010160008473ffffffffffffffffffffffffffffffffffffffff1673ffffffffffffffffffffffffffffffffffffffff16815260200190815260200160002060008373ffffffffffffffffffffffffffffffffffffffff1673ffffffffffffffffffffffffffffffffffffffff16815260200190815260200160002060009054906101000a900460ff16905092915050565b6123e0612841565b73ffffffffffffffffffffffffffffffffffffffff166123fe611b99565b73ffffffffffffffffffffffffffffffffffffffff1614612454576040517f08c379a000000000000000000000000000000000000000000000000000000000815260040161244b90614aa8565b60405180910390fd5b600073ffffffffffffffffffffffffffffffffffffffff168173ffffffffffffffffffffffffffffffffffffffff1614156124c4576040517f08c379a00000000000000000000000000000000000000000000000000000000081526004016124bb90615391565b60405180910390fd5b6124cd81612e29565b50565b600060019054906101000a900460ff166124f85760008054906101000a900460ff1615612501565b61250061315c565b5b612540576040517f08c379a000000000000000000000000000000000000000000000000000000000815260040161253790615423565b60405180910390fd5b60008060019054906101000a900460ff161590508015612590576001600060016101000a81548160ff02191690831515021790555060016000806101000a81548160ff0219169083151502179055505b61259861316d565b6125a06131c6565b6126146040518060400160405280601381526020017f526174416c6572742043686172616374657273000000000000000000000000008152506040518060400160405280600781526020017f524154434153540000000000000000000000000000000000000000000000000081525061321f565b8461013760006101000a81548173ffffffffffffffffffffffffffffffffffffffff021916908373ffffffffffffffffffffffffffffffffffffffff1602179055508361013360006101000a81548173ffffffffffffffffffffffffffffffffffffffff021916908373ffffffffffffffffffffffffffffffffffffffff1602179055508261013460006101000a81548173ffffffffffffffffffffffffffffffffffffffff021916908373ffffffffffffffffffffffffffffffffffffffff1602179055508161013560006101000a81548173ffffffffffffffffffffffffffffffffffffffff021916908373ffffffffffffffffffffffffffffffffffffffff160217905550801561273d5760008060016101000a81548160ff0219169083151502179055505b5050505050565b61013560009054906101000a900473ffffffffffffffffffffffffffffffffffffffff1681565b60007f01ffc9a7000000000000000000000000000000000000000000000000000000007bffffffffffffffffffffffffffffffffffffffffffffffffffffffff1916827bffffffffffffffffffffffffffffffffffffffffffffffffffffffff1916149050919050565b60008073ffffffffffffffffffffffffffffffffffffffff1660fe600084815260200190815260200160002060009054906101000a900473ffffffffffffffffffffffffffffffffffffffff1673ffffffffffffffffffffffffffffffffffffffff1614159050919050565b600033905090565b81610100600083815260200190815260200160002060006101000a81548173ffffffffffffffffffffffffffffffffffffffff021916908373ffffffffffffffffffffffffffffffffffffffff160217905550808273ffffffffffffffffffffffffffffffffffffffff166128bd836111aa565b73ffffffffffffffffffffffffffffffffffffffff167f8c5be1e5ebec7d5bd14f71427d1e84f3dd0314c0f7b2291e5b200ac8c7c3b92560405160405180910390a45050565b600061290e826127d5565b61294d576040517f08c379a0000000000000000000000000000000000000000000000000000000008152600401612944906154b5565b60405180910390fd5b6000612958836111aa565b90508073ffffffffffffffffffffffffffffffffffffffff168473ffffffffffffffffffffffffffffffffffffffff1614806129c757508373ffffffffffffffffffffffffffffffffffffffff166129af84610ae9565b73ffffffffffffffffffffffffffffffffffffffff16145b806129d857506129d78185612343565b5b91505092915050565b8273ffffffffffffffffffffffffffffffffffffffff16612a01826111aa565b73ffffffffffffffffffffffffffffffffffffffff1614612a57576040517f08c379a0000000000000000000000000000000000000000000000000000000008152600401612a4e90615547565b60405180910390fd5b600073ffffffffffffffffffffffffffffffffffffffff168273ffffffffffffffffffffffffffffffffffffffff161415612ac7576040517f08c379a0000000000000000000000000000000000000000000000000000000008152600401612abe906155d9565b60405180910390fd5b612ad283838361327c565b612add600082612849565b600160ff60008573ffffffffffffffffffffffffffffffffffffffff1673ffffffffffffffffffffffffffffffffffffffff1681526020019081526020016000206000828254612b2d91906155f9565b92505081905550600160ff60008473ffffffffffffffffffffffffffffffffffffffff1673ffffffffffffffffffffffffffffffffffffffff1681526020019081526020016000206000828254612b84919061562d565b925050819055508160fe600083815260200190815260200160002060006101000a81548173ffffffffffffffffffffffffffffffffffffffff021916908373ffffffffffffffffffffffffffffffffffffffff160217905550808273ffffffffffffffffffffffffffffffffffffffff168473ffffffffffffffffffffffffffffffffffffffff167fddf252ad1be2c89b69c2b068fc378daa952ba7f163c4a11628f55a4df523b3ef60405160405180910390a4612c43838383613281565b505050565b60c960009054906101000a900473ffffffffffffffffffffffffffffffffffffffff1673ffffffffffffffffffffffffffffffffffffffff163373ffffffffffffffffffffffffffffffffffffffff1614612cd8576040517f08c379a0000000000000000000000000000000000000000000000000000000008152600401612ccf906156cf565b60405180910390fd5b565b612ce2610ea9565b612d21576040517f08c379a0000000000000000000000000000000000000000000000000000000008152600401612d189061573b565b60405180910390fd5b6000603360006101000a81548160ff0219169083151502179055507f5db9ee0a495bf2e6ff9c91a7834c1ba4fdd244a5e8aa4e537bd38aeae4b073aa612d65612841565b604051612d729190613afe565b60405180910390a1565b61012e60003373ffffffffffffffffffffffffffffffffffffffff1673ffffffffffffffffffffffffffffffffffffffff16815260200190815260200160002060009054906101000a900460ff16612e09576040517f08c379a0000000000000000000000000000000000000000000000000000000008152600401612e00906157a7565b60405180910390fd5b565b612e25828260405180602001604052806000815250613286565b5050565b6000606560009054906101000a900473ffffffffffffffffffffffffffffffffffffffff16905081606560006101000a81548173ffffffffffffffffffffffffffffffffffffffff021916908373ffffffffffffffffffffffffffffffffffffffff1602179055508173ffffffffffffffffffffffffffffffffffffffff168173ffffffffffffffffffffffffffffffffffffffff167f8be0079c531659141344cd1fd0a4f28419497f9722a3daafe3b4186f6b6457e060405160405180910390a35050565b612ef7610ea9565b15612f37576040517f08c379a0000000000000000000000000000000000000000000000000000000008152600401612f2e90614b14565b60405180910390fd5b6001603360006101000a81548160ff0219169083151502179055507f62e78cea01bee320cd4e420270b5ea74000d11b0c9f74754ebdbfc544b05a258612f7b612841565b604051612f889190613afe565b60405180910390a1565b8173ffffffffffffffffffffffffffffffffffffffff168373ffffffffffffffffffffffffffffffffffffffff161415613001576040517f08c379a0000000000000000000000000000000000000000000000000000000008152600401612ff890615813565b60405180910390fd5b8061010160008573ffffffffffffffffffffffffffffffffffffffff1673ffffffffffffffffffffffffffffffffffffffff16815260200190815260200160002060008473ffffffffffffffffffffffffffffffffffffffff1673ffffffffffffffffffffffffffffffffffffffff16815260200190815260200160002060006101000a81548160ff0219169083151502179055508173ffffffffffffffffffffffffffffffffffffffff168373ffffffffffffffffffffffffffffffffffffffff167f17307eab39ab6107e8899845ad3d59bd9653f200f220920489ca2b5937696c31836040516130f39190613984565b60405180910390a3505050565b61310b8484846129e1565b613117848484846132e1565b613156576040517f08c379a000000000000000000000000000000000000000000000000000000000815260040161314d906158a5565b60405180910390fd5b50505050565b600061316730613469565b15905090565b600060019054906101000a900460ff166131bc576040517f08c379a00000000000000000000000000000000000000000000000000000000081526004016131b390615937565b60405180910390fd5b6131c461348c565b565b600060019054906101000a900460ff16613215576040517f08c379a000000000000000000000000000000000000000000000000000000000815260040161320c90615937565b60405180910390fd5b61321d6134ed565b565b600060019054906101000a900460ff1661326e576040517f08c379a000000000000000000000000000000000000000000000000000000000815260040161326590615937565b60405180910390fd5b6132788282613559565b5050565b505050565b505050565b61329083836135da565b61329d60008484846132e1565b6132dc576040517f08c379a00000000000000000000000000000000000000000000000000000000081526004016132d3906158a5565b60405180910390fd5b505050565b60006133028473ffffffffffffffffffffffffffffffffffffffff16613469565b1561345c578373ffffffffffffffffffffffffffffffffffffffff1663150b7a0261332b612841565b8786866040518563ffffffff1660e01b815260040161334d94939291906159ac565b6020604051808303816000875af192505050801561338957506040513d601f19601f820116820180604052508101906133869190615a0d565b60015b61340c573d80600081146133b9576040519150601f19603f3d011682016040523d82523d6000602084013e6133be565b606091505b50600081511415613404576040517f08c379a00000000000000000000000000000000000000000000000000000000081526004016133fb906158a5565b60405180910390fd5b805181602001fd5b63150b7a0260e01b7bffffffffffffffffffffffffffffffffffffffffffffffffffffffff1916817bffffffffffffffffffffffffffffffffffffffffffffffffffffffff191614915050613461565b600190505b949350505050565b6000808273ffffffffffffffffffffffffffffffffffffffff163b119050919050565b600060019054906101000a900460ff166134db576040517f08c379a00000000000000000000000000000000000000000000000000000000081526004016134d290615937565b60405180910390fd5b6134eb6134e6612841565b612e29565b565b600060019054906101000a900460ff1661353c576040517f08c379a000000000000000000000000000000000000000000000000000000000815260040161353390615937565b60405180910390fd5b6000603360006101000a81548160ff021916908315150217905550565b600060019054906101000a900460ff166135a8576040517f08c379a000000000000000000000000000000000000000000000000000000000815260040161359f90615937565b60405180910390fd5b8160fc90805190602001906135be92919061382d565b508060fd90805190602001906135d592919061382d565b505050565b600073ffffffffffffffffffffffffffffffffffffffff168273ffffffffffffffffffffffffffffffffffffffff16141561364a576040517f08c379a000000000000000000000000000000000000000000000000000000000815260040161364190615a86565b60405180910390fd5b613653816127d5565b15613693576040517f08c379a000000000000000000000000000000000000000000000000000000000815260040161368a90615af2565b60405180910390fd5b61369f6000838361327c565b600160ff60008473ffffffffffffffffffffffffffffffffffffffff1673ffffffffffffffffffffffffffffffffffffffff16815260200190815260200160002060008282546136ef919061562d565b925050819055508160fe600083815260200190815260200160002060006101000a81548173ffffffffffffffffffffffffffffffffffffffff021916908373ffffffffffffffffffffffffffffffffffffffff160217905550808273ffffffffffffffffffffffffffffffffffffffff16600073ffffffffffffffffffffffffffffffffffffffff167fddf252ad1be2c89b69c2b068fc378daa952ba7f163c4a11628f55a4df523b3ef60405160405180910390a46137b060008383613281565b5050565b604051806101600160405280600015158152602001600060ff168152602001600060ff168152602001600060ff168152602001600060ff168152602001600060ff168152602001600060ff168152602001600060ff168152602001600060ff168152602001600060ff1681526020016000800b81525090565b828054613839906147e2565b90600052602060002090601f01602090048101928261385b57600085556138a2565b82601f1061387457805160ff19168380011785556138a2565b828001600101855582156138a2579182015b828111156138a1578251825591602001919060010190613886565b5b5090506138af91906138b3565b5090565b5b808211156138cc5760008160009055506001016138b4565b5090565b6000604051905090565b600080fd5b600080fd5b60007fffffffff0000000000000000000000000000000000000000000000000000000082169050919050565b613919816138e4565b811461392457600080fd5b50565b60008135905061393681613910565b92915050565b600060208284031215613952576139516138da565b5b600061396084828501613927565b91505092915050565b60008115159050919050565b61397e81613969565b82525050565b60006020820190506139996000830184613975565b92915050565b600081519050919050565b600082825260208201905092915050565b60005b838110156139d95780820151818401526020810190506139be565b838111156139e8576000848401525b50505050565b6000601f19601f8301169050919050565b6000613a0a8261399f565b613a1481856139aa565b9350613a248185602086016139bb565b613a2d816139ee565b840191505092915050565b60006020820190508181036000830152613a5281846139ff565b905092915050565b6000819050919050565b613a6d81613a5a565b8114613a7857600080fd5b50565b600081359050613a8a81613a64565b92915050565b600060208284031215613aa657613aa56138da565b5b6000613ab484828501613a7b565b91505092915050565b600073ffffffffffffffffffffffffffffffffffffffff82169050919050565b6000613ae882613abd565b9050919050565b613af881613add565b82525050565b6000602082019050613b136000830184613aef565b92915050565b600061ffff82169050919050565b613b3081613b19565b82525050565b6000602082019050613b4b6000830184613b27565b92915050565b613b5a81613add565b8114613b6557600080fd5b50565b600081359050613b7781613b51565b92915050565b60008060408385031215613b9457613b936138da565b5b6000613ba285828601613b68565b9250506020613bb385828601613a7b565b9150509250929050565b600080600060608486031215613bd657613bd56138da565b5b6000613be486828701613b68565b9350506020613bf586828701613b68565b9250506040613c0686828701613a7b565b9150509250925092565b600060208284031215613c2657613c256138da565b5b6000613c3484828501613b68565b91505092915050565b60008060408385031215613c5457613c536138da565b5b6000613c6285828601613a7b565b9250506020613c7385828601613a7b565b9150509250929050565b600060ff82169050919050565b613c9381613c7d565b8114613c9e57600080fd5b50565b600081359050613cb081613c8a565b92915050565b613cbf81613969565b8114613cca57600080fd5b50565b600081359050613cdc81613cb6565b92915050565b60008060408385031215613cf957613cf86138da565b5b6000613d0785828601613ca1565b9250506020613d1885828601613ccd565b9150509250929050565b60008160000b9050919050565b613d3881613d22565b8114613d4357600080fd5b50565b600081359050613d5581613d2f565b92915050565b60008060008060808587031215613d7557613d746138da565b5b6000613d8387828801613a7b565b9450506020613d9487828801613d46565b9350506040613da587828801613d46565b9250506060613db687828801613a7b565b91505092959194509250565b613dcb81613c7d565b82525050565b6000606082019050613de66000830186613dc2565b613df36020830185613dc2565b8181036040830152613e0581846139ff565b9050949350505050565b600080fd5b7f4e487b7100000000000000000000000000000000000000000000000000000000600052604160045260246000fd5b613e4c826139ee565b810181811067ffffffffffffffff82111715613e6b57613e6a613e14565b5b80604052505050565b6000613e7e6138d0565b9050613e8a8282613e43565b919050565b6000819050919050565b613ea281613e8f565b8114613ead57600080fd5b50565b600081359050613ebf81613e99565b92915050565b600060a08284031215613edb57613eda613e0f565b5b613ee560a0613e74565b90506000613ef584828501613eb0565b6000830152506020613f0984828501613b68565b6020830152506040613f1d84828501613ca1565b6040830152506060613f3184828501613ccd565b6060830152506080613f4584828501613d46565b60808301525092915050565b600080fd5b600067ffffffffffffffff821115613f7157613f70613e14565b5b602082029050602081019050919050565b600080fd5b60006101608284031215613f9e57613f9d613e0f565b5b613fa9610160613e74565b90506000613fb984828501613ccd565b6000830152506020613fcd84828501613ca1565b6020830152506040613fe184828501613ca1565b6040830152506060613ff584828501613ca1565b606083015250608061400984828501613ca1565b60808301525060a061401d84828501613ca1565b60a08301525060c061403184828501613ca1565b60c08301525060e061404584828501613ca1565b60e08301525061010061405a84828501613ca1565b6101008301525061012061407084828501613ca1565b6101208301525061014061408684828501613d46565b6101408301525092915050565b60006140a66140a184613f56565b613e74565b90508083825260208201905061016084028301858111156140ca576140c9613f82565b5b835b818110156140f457806140df8882613f87565b845260208401935050610160810190506140cc565b5050509392505050565b600082601f83011261411357614112613f51565b5b8135614123848260208601614093565b91505092915050565b60008060c08385031215614143576141426138da565b5b600061415185828601613ec5565b92505060a083013567ffffffffffffffff811115614172576141716138df565b5b61417e858286016140fe565b9150509250929050565b61419181613a5a565b82525050565b60006020820190506141ac6000830184614188565b92915050565b6000819050919050565b60006141d76141d26141cd84613abd565b6141b2565b613abd565b9050919050565b60006141e9826141bc565b9050919050565b60006141fb826141de565b9050919050565b61420b816141f0565b82525050565b60006020820190506142266000830184614202565b92915050565b600067ffffffffffffffff82111561424757614246613e14565b5b602082029050602081019050919050565b600061426b6142668461422c565b613e74565b9050808382526020820190506020840283018581111561428e5761428d613f82565b5b835b818110156142b757806142a38882613b68565b845260208401935050602081019050614290565b5050509392505050565b600082601f8301126142d6576142d5613f51565b5b81356142e6848260208601614258565b91505092915050565b600060208284031215614305576143046138da565b5b600082013567ffffffffffffffff811115614323576143226138df565b5b61432f848285016142c1565b91505092915050565b61434181613969565b82525050565b61435081613c7d565b82525050565b61435f81613d22565b82525050565b6101608201600082015161437c6000850182614338565b50602082015161438f6020850182614347565b5060408201516143a26040850182614347565b5060608201516143b56060850182614347565b5060808201516143c86080850182614347565b5060a08201516143db60a0850182614347565b5060c08201516143ee60c0850182614347565b5060e082015161440160e0850182614347565b50610100820151614416610100850182614347565b5061012082015161442b610120850182614347565b50610140820151614440610140850182614356565b50505050565b60006101608201905061445c6000830184614365565b92915050565b60008060408385031215614479576144786138da565b5b600061448785828601613b68565b925050602061449885828601613ccd565b9150509250929050565b600080fd5b600067ffffffffffffffff8211156144c2576144c1613e14565b5b6144cb826139ee565b9050602081019050919050565b82818337600083830152505050565b60006144fa6144f5846144a7565b613e74565b905082815260208101848484011115614516576145156144a2565b5b6145218482856144d8565b509392505050565b600082601f83011261453e5761453d613f51565b5b813561454e8482602086016144e7565b91505092915050565b60008060008060808587031215614571576145706138da565b5b600061457f87828801613b68565b945050602061459087828801613b68565b93505060406145a187828801613a7b565b925050606085013567ffffffffffffffff8111156145c2576145c16138df565b5b6145ce87828801614529565b91505092959194509250565b6145e381613d22565b82525050565b6000610160820190506145ff600083018e613975565b61460c602083018d613dc2565b614619604083018c613dc2565b614626606083018b613dc2565b614633608083018a613dc2565b61464060a0830189613dc2565b61464d60c0830188613dc2565b61465a60e0830187613dc2565b614668610100830186613dc2565b614676610120830185613dc2565b6146846101408301846145da565b9c9b505050505050505050505050565b600061469f826141de565b9050919050565b6146af81614694565b82525050565b60006020820190506146ca60008301846146a6565b92915050565b600080604083850312156146e7576146e66138da565b5b60006146f585828601613b68565b925050602061470685828601613b68565b9150509250929050565b6000806000806080858703121561472a576147296138da565b5b600061473887828801613b68565b945050602061474987828801613b68565b935050604061475a87828801613b68565b925050606061476b87828801613b68565b91505092959194509250565b6000614782826141de565b9050919050565b61479281614777565b82525050565b60006020820190506147ad6000830184614789565b92915050565b7f4e487b7100000000000000000000000000000000000000000000000000000000600052602260045260246000fd5b600060028204905060018216806147fa57607f821691505b6020821081141561480e5761480d6147b3565b5b50919050565b7f4552433732313a20617070726f76656420717565727920666f72206e6f6e657860008201527f697374656e7420746f6b656e0000000000000000000000000000000000000000602082015250565b6000614870602c836139aa565b915061487b82614814565b604082019050919050565b6000602082019050818103600083015261489f81614863565b9050919050565b7f4552433732313a20617070726f76616c20746f2063757272656e74206f776e6560008201527f7200000000000000000000000000000000000000000000000000000000000000602082015250565b60006149026021836139aa565b915061490d826148a6565b604082019050919050565b60006020820190508181036000830152614931816148f5565b9050919050565b7f4552433732313a20617070726f76652063616c6c6572206973206e6f74206f7760008201527f6e6572206e6f7220617070726f76656420666f7220616c6c0000000000000000602082015250565b60006149946038836139aa565b915061499f82614938565b604082019050919050565b600060208201905081810360008301526149c381614987565b9050919050565b7f4552433732313a207472616e736665722063616c6c6572206973206e6f74206f60008201527f776e6572206e6f7220617070726f766564000000000000000000000000000000602082015250565b6000614a266031836139aa565b9150614a31826149ca565b604082019050919050565b60006020820190508181036000830152614a5581614a19565b9050919050565b7f4f776e61626c653a2063616c6c6572206973206e6f7420746865206f776e6572600082015250565b6000614a926020836139aa565b9150614a9d82614a5c565b602082019050919050565b60006020820190508181036000830152614ac181614a85565b9050919050565b7f5061757361626c653a2070617573656400000000000000000000000000000000600082015250565b6000614afe6010836139aa565b9150614b0982614ac8565b602082019050919050565b60006020820190508181036000830152614b2d81614af1565b9050919050565b7f454f41206f6e6c79000000000000000000000000000000000000000000000000600082015250565b6000614b6a6008836139aa565b9150614b7582614b34565b602082019050919050565b60006020820190508181036000830152614b9981614b5d565b9050919050565b600060c082019050614bb56000830189613aef565b614bc26020830188613dc2565b614bcf6040830187614188565b614bdc6060830186613b27565b614be96080830185614188565b614bf660a0830184614188565b979650505050505050565b600081519050614c1081613d2f565b92915050565b600060208284031215614c2c57614c2b6138da565b5b6000614c3a84828501614c01565b91505092915050565b7f4e487b7100000000000000000000000000000000000000000000000000000000600052601160045260246000fd5b6000614c7d82613b19565b9150614c8883613b19565b92508261ffff03821115614c9f57614c9e614c43565b5b828201905092915050565b6000608082019050614cbf6000830187613aef565b614ccc6020830186613dc2565b614cd96040830185613975565b614ce660608301846145da565b95945050505050565b600081519050614cfe81613e99565b92915050565b600060208284031215614d1a57614d196138da565b5b6000614d2884828501614cef565b91505092915050565b7f4552433732313a206f776e657220717565727920666f72206e6f6e657869737460008201527f656e7420746f6b656e0000000000000000000000000000000000000000000000602082015250565b6000614d8d6029836139aa565b9150614d9882614d31565b604082019050919050565b60006020820190508181036000830152614dbc81614d80565b9050919050565b600060c082019050614dd86000830189613975565b614de56020830188613dc2565b614df26040830187613dc2565b614dff60608301866145da565b614e0c60808301856145da565b614e1960a0830184614188565b979650505050505050565b600081519050614e3381613c8a565b92915050565b600067ffffffffffffffff821115614e5457614e53613e14565b5b614e5d826139ee565b9050602081019050919050565b6000614e7d614e7884614e39565b613e74565b905082815260208101848484011115614e9957614e986144a2565b5b614ea48482856139bb565b509392505050565b600082601f830112614ec157614ec0613f51565b5b8151614ed1848260208601614e6a565b91505092915050565b600080600060608486031215614ef357614ef26138da565b5b6000614f0186828701614e24565b9350506020614f1286828701614e24565b925050604084015167ffffffffffffffff811115614f3357614f326138df565b5b614f3f86828701614eac565b9150509250925092565b7f5265656e7472616e637947756172643a207265656e7472616e742063616c6c00600082015250565b6000614f7f601f836139aa565b9150614f8a82614f49565b602082019050919050565b60006020820190508181036000830152614fae81614f72565b9050919050565b7f4f6e6c7920746865204d696e742063616e2066756c66696c6c00000000000000600082015250565b6000614feb6019836139aa565b9150614ff682614fb5565b602082019050919050565b6000602082019050818103600083015261501a81614fde565b9050919050565b600061502c82613b19565b915061ffff82141561504157615040614c43565b5b600182019050919050565b7f4e487b7100000000000000000000000000000000000000000000000000000000600052603260045260246000fd5b600061508682613a5a565b91507fffffffffffffffffffffffffffffffffffffffffffffffffffffffffffffffff8214156150b9576150b8614c43565b5b600182019050919050565b600081519050919050565b600082825260208201905092915050565b6000819050602082019050919050565b6150f981613b19565b82525050565b600061510b83836150f0565b60208301905092915050565b6000602082019050919050565b600061512f826150c4565b61513981856150cf565b9350615144836150e0565b8060005b8381101561517557815161515c88826150ff565b975061516783615117565b925050600181019050615148565b5085935050505092915050565b60006040820190506151976000830185613aef565b81810360208301526151a98184615124565b90509392505050565b7f4552433732313a2062616c616e636520717565727920666f7220746865207a6560008201527f726f206164647265737300000000000000000000000000000000000000000000602082015250565b600061520e602a836139aa565b9150615219826151b2565b604082019050919050565b6000602082019050818103600083015261523d81615201565b9050919050565b7f4552433732314d657461646174613a2055524920717565727920666f72206e6f60008201527f6e2d6578697374656e7420746f6b656e00000000000000000000000000000000602082015250565b60006152a06030836139aa565b91506152ab82615244565b604082019050919050565b600060208201905081810360008301526152cf81615293565b9050919050565b6000602082840312156152ec576152eb6138da565b5b600082015167ffffffffffffffff81111561530a576153096138df565b5b61531684828501614eac565b91505092915050565b7f4f776e61626c653a206e6577206f776e657220697320746865207a65726f206160008201527f6464726573730000000000000000000000000000000000000000000000000000602082015250565b600061537b6026836139aa565b91506153868261531f565b604082019050919050565b600060208201905081810360008301526153aa8161536e565b9050919050565b7f496e697469616c697a61626c653a20636f6e747261637420697320616c72656160008201527f647920696e697469616c697a6564000000000000000000000000000000000000602082015250565b600061540d602e836139aa565b9150615418826153b1565b604082019050919050565b6000602082019050818103600083015261543c81615400565b9050919050565b7f4552433732313a206f70657261746f7220717565727920666f72206e6f6e657860008201527f697374656e7420746f6b656e0000000000000000000000000000000000000000602082015250565b600061549f602c836139aa565b91506154aa82615443565b604082019050919050565b600060208201905081810360008301526154ce81615492565b9050919050565b7f4552433732313a207472616e736665722066726f6d20696e636f72726563742060008201527f6f776e6572000000000000000000000000000000000000000000000000000000602082015250565b60006155316025836139aa565b915061553c826154d5565b604082019050919050565b6000602082019050818103600083015261556081615524565b9050919050565b7f4552433732313a207472616e7366657220746f20746865207a65726f2061646460008201527f7265737300000000000000000000000000000000000000000000000000000000602082015250565b60006155c36024836139aa565b91506155ce82615567565b604082019050919050565b600060208201905081810360008301526155f2816155b6565b9050919050565b600061560482613a5a565b915061560f83613a5a565b92508282101561562257615621614c43565b5b828203905092915050565b600061563882613a5a565b915061564383613a5a565b9250827fffffffffffffffffffffffffffffffffffffffffffffffffffffffffffffffff0382111561567857615677614c43565b5b828201905092915050565b7f4f6e6c792044414f2063616e2065786563757465000000000000000000000000600082015250565b60006156b96014836139aa565b91506156c482615683565b602082019050919050565b600060208201905081810360008301526156e8816156ac565b9050919050565b7f5061757361626c653a206e6f7420706175736564000000000000000000000000600082015250565b60006157256014836139aa565b9150615730826156ef565b602082019050919050565b6000602082019050818103600083015261575481615718565b9050919050565b7f4f6e6c7920636f6e74726f6c6c6572732063616e206578656375746500000000600082015250565b6000615791601c836139aa565b915061579c8261575b565b602082019050919050565b600060208201905081810360008301526157c081615784565b9050919050565b7f4552433732313a20617070726f766520746f2063616c6c657200000000000000600082015250565b60006157fd6019836139aa565b9150615808826157c7565b602082019050919050565b6000602082019050818103600083015261582c816157f0565b9050919050565b7f4552433732313a207472616e7366657220746f206e6f6e20455243373231526560008201527f63656976657220696d706c656d656e7465720000000000000000000000000000602082015250565b600061588f6032836139aa565b915061589a82615833565b604082019050919050565b600060208201905081810360008301526158be81615882565b9050919050565b7f496e697469616c697a61626c653a20636f6e7472616374206973206e6f74206960008201527f6e697469616c697a696e67000000000000000000000000000000000000000000602082015250565b6000615921602b836139aa565b915061592c826158c5565b604082019050919050565b6000602082019050818103600083015261595081615914565b9050919050565b600081519050919050565b600082825260208201905092915050565b600061597e82615957565b6159888185615962565b93506159988185602086016139bb565b6159a1816139ee565b840191505092915050565b60006080820190506159c16000830187613aef565b6159ce6020830186613aef565b6159db6040830185614188565b81810360608301526159ed8184615973565b905095945050505050565b600081519050615a0781613910565b92915050565b600060208284031215615a2357615a226138da565b5b6000615a31848285016159f8565b91505092915050565b7f4552433732313a206d696e7420746f20746865207a65726f2061646472657373600082015250565b6000615a706020836139aa565b9150615a7b82615a3a565b602082019050919050565b60006020820190508181036000830152615a9f81615a63565b9050919050565b7f4552433732313a20746f6b656e20616c7265616479206d696e74656400000000600082015250565b6000615adc601c836139aa565b9150615ae782615aa6565b602082019050919050565b60006020820190508181036000830152615b0b81615acf565b905091905056fea2646970667358221220fe2f10223ae99d87c3218e594537e9697aa2094e9073c9f471bc1d0f1218c43b64736f6c634300080a0033",
  "immutableReferences": {},
  "source": "// SPDX-License-Identifier: MIT\n\npragma solidity ^0.8.0;\n\nimport \"@openzeppelin/contracts-upgradeable/proxy/utils/Initializable.sol\";\nimport \"@openzeppelin/contracts-upgradeable/security/ReentrancyGuardUpgradeable.sol\";\nimport \"@openzeppelin/contracts-upgradeable/token/ERC721/ERC721Upgradeable.sol\";\nimport \"./GenericPausable.sol\";\nimport \"./ControllableUpgradeable.sol\";\nimport \"./ICharacter.sol\";\nimport \"./IMint.sol\";\nimport \"./ITraits.sol\";\nimport \"./IProperties.sol\";\nimport \"./IVenue.sol\";\nimport \"./IPaywall.sol\";\n\ncontract Character is Initializable, OwnableUpgradeable, ReentrancyGuardUpgradeable, GenericPausable, ICharacter, ERC721Upgradeable, ControllableUpgradeable {\n  uint16 public paid;\n  uint16 public minted;\n  uint16 public numChefs;\n  uint16 public numRats;\n  uint256 public maxTokens; // Max number of tokens that can be minted\n  uint256 gen0Tokens; // Number of tokens that are purchased with native token\n\n  mapping(uint256 => CharacterStruct) public tokenTraits; // Mapping from tokenId to a struct containing the token's traits\n\n  IMint public theMint; // Reference to Mint\n  ITraits public traits; // Reference to Traits\n  IProperties public properties; // Reference to Properties\n  IVenue kitchen;\n  IPaywall paywall;\n\n  function initialize(\n    address _paywall,\n    address _mint,\n    address _traits,\n    address _properties\n  ) external initializer {\n    __Ownable_init();\n    __Pausable_init();\n    __ERC721_init(\"RatAlert Characters\", \"RATCAST\");\n\n    paywall = IPaywall(_paywall);\n    theMint = IMint(_mint);\n    traits = ITraits(_traits);\n    properties = IProperties(_properties);\n  }\n\n  /**\n   * Allows DAO to update game parameters\n   */\n  function configure(uint256 _maxTokens, uint256 _gen0Tokens) external onlyOwner {\n    maxTokens = _maxTokens;\n    gen0Tokens = _gen0Tokens;\n  }\n\n  /**\n   * ChainLink VRF request: Mints a new ERC721 token: 90% chefs, 10% rats\n   * The first 20% are purchased with native token, the remaining cost $FFOOD\n   * @param amount Number of tokens to mint\n   * @param stake Number of tokens to mint\n   */\n  function mint(uint8 amount, bool stake) external payable whenNotPaused {\n    require(tx.origin == _msgSender(), \"EOA only\");\n    int8 boost = paywall.handle(_msgSender(), amount, msg.value, paid, maxTokens, gen0Tokens);\n    paid += amount;\n    theMint.requestRandomNumber(_msgSender(), amount, stake, boost);\n  }\n\n  /**\n   * Callback for mint(), called by Mint.fulfillRandomness()\n   * @param v - VRF struct for the corresponding request\n   * @param tokens - List of characters created by the Mint\n   */\n  function fulfillMint(IMint.VRFStruct memory v, CharacterStruct[] memory tokens) external nonReentrant whenNotPaused {\n    require(msg.sender == address(theMint), \"Only the Mint can fulfill\");\n\n    uint16[] memory tokenIds = new uint16[](v.amount);\n    for (uint i = 0; i < v.amount; i++) {\n      minted ++;\n      tokenIds[i] = minted;\n      tokenTraits[minted] = tokens[i];\n      tokens[i].isChef ? numChefs++ : numRats++;\n      _safeMint(v.stake ? address(kitchen) : v.sender, minted);\n    }\n    if (v.stake) kitchen.stakeMany(v.sender, tokenIds);\n  }\n\n  /**\n   * Allows the venues to update the character's efficiency & tolerance values when claiming\n   * @param tokenId - The ID of the Character\n   * @param efficiencyIncrement - The value to add/subtract to the current value\n   * @param toleranceIncrement - The value to add/subtract to the current value\n   * @param randomVal - A ChainLink VRF random number\n   */\n  function updateCharacter(uint256 tokenId, int8 efficiencyIncrement, int8 toleranceIncrement, uint256 randomVal) external onlyController returns(uint8 efficiencyValue, uint8 toleranceValue, string memory eventName) {\n    bool isChef = tokenTraits[tokenId].isChef;\n    uint8 currentEfficiency = tokenTraits[tokenId].efficiency;\n    uint8 currentTolerance = tokenTraits[tokenId].tolerance;\n    (efficiencyValue, toleranceValue, eventName) = properties.getEventUpdates(isChef, currentEfficiency, currentTolerance, efficiencyIncrement, toleranceIncrement, randomVal);\n    tokenTraits[tokenId].efficiency = efficiencyValue;\n    tokenTraits[tokenId].tolerance = toleranceValue;\n  }\n\n  /**\n   * Returns the base64 encoded ERC721 metadata\n   * @param tokenId - The ID of the Character\n   * @return base64 encoded JSON string\n   */\n  function tokenURI(uint256 tokenId) public view override returns (string memory) {\n    require(_exists(tokenId), \"ERC721Metadata: URI query for non-existent token\");\n    return traits.tokenURI(tokenId);\n  }\n\n  /**\n   * Returns the Character's struct\n   * @param tokenId - The ID of the Character\n   * @return Current CharacterStruct\n   */\n  function getTokenTraits(uint256 tokenId) external view override returns (CharacterStruct memory) {\n    require(_exists(tokenId), \"ERC721Metadata: URI query for non-existent token\");\n    return tokenTraits[tokenId];\n  }\n\n  /**\n   * Custom getter required for Traits contract\n   */\n  function getGen0Tokens() external view override returns (uint256) {\n    return gen0Tokens;\n  }\n\n  /**\n   * Allows DAO to withdraw funds\n   */\n  function withdrawPayments() external {\n    isDao();\n    payable(dao).transfer(address(this).balance); // Transfer to DAO wallet\n  }\n\n  /**\n   * Sets the kitchen address to optionally stake newly minted characters in\n   * @param _kitchen - The address of the Kitchen\n   */\n  function setKitchen(address _kitchen) external onlyOwner {\n    kitchen = IVenue(_kitchen);\n  }\n}\n",
  "sourcePath": "/Users/chris/workspace/ratalert/ratalert-contracts/contracts/Character.sol",
  "compiler": {
    "name": "solc",
    "version": "0.8.10+commit.fc410830.Emscripten.clang"
  },
  "schemaVersion": "3.4.7",
  "updatedAt": "2022-04-28T12:54:44.797Z",
  "networkType": "ethereum",
  "devdoc": {
    "kind": "dev",
    "methods": {
      "addController(address[])": {
        "params": {
          "_controllers": "- The addresses to enable"
        }
      },
      "approve(address,uint256)": {
        "details": "See {IERC721-approve}."
      },
      "balanceOf(address)": {
        "details": "See {IERC721-balanceOf}."
      },
      "controller(address)": {
        "params": {
          "_controller": "- The address to check"
        }
      },
      "fulfillMint((bytes32,address,uint8,bool,int8),(bool,uint8,uint8,uint8,uint8,uint8,uint8,uint8,uint8,uint8,int8)[])": {
        "params": {
          "tokens": "- List of characters created by the Mint",
          "v": "- VRF struct for the corresponding request"
        }
      },
      "getApproved(uint256)": {
        "details": "See {IERC721-getApproved}."
      },
      "getTokenTraits(uint256)": {
        "params": {
          "tokenId": "- The ID of the Character"
        },
        "returns": {
          "_0": "Current CharacterStruct"
        }
      },
      "isApprovedForAll(address,address)": {
        "details": "See {IERC721-isApprovedForAll}."
      },
      "mint(uint8,bool)": {
        "params": {
          "amount": "Number of tokens to mint",
          "stake": "Number of tokens to mint"
        }
      },
      "name()": {
        "details": "See {IERC721Metadata-name}."
      },
      "owner()": {
        "details": "Returns the address of the current owner."
      },
      "ownerOf(uint256)": {
        "details": "See {IERC721-ownerOf}."
      },
      "paused()": {
        "details": "Returns true if the contract is paused, and false otherwise."
      },
      "removeController(address[])": {
        "params": {
          "_controllers": "- The addresses to disable"
        }
      },
      "renounceOwnership()": {
        "details": "Leaves the contract without owner. It will not be possible to call `onlyOwner` functions anymore. Can only be called by the current owner. NOTE: Renouncing ownership will leave the contract without an owner, thereby removing any functionality that is only available to the owner."
      },
      "safeTransferFrom(address,address,uint256)": {
        "details": "See {IERC721-safeTransferFrom}."
      },
      "safeTransferFrom(address,address,uint256,bytes)": {
        "details": "See {IERC721-safeTransferFrom}."
      },
      "setApprovalForAll(address,bool)": {
        "details": "See {IERC721-setApprovalForAll}."
      },
      "setKitchen(address)": {
        "params": {
          "_kitchen": "- The address of the Kitchen"
        }
      },
      "supportsInterface(bytes4)": {
        "details": "See {IERC165-supportsInterface}."
      },
      "symbol()": {
        "details": "See {IERC721Metadata-symbol}."
      },
      "tokenURI(uint256)": {
        "params": {
          "tokenId": "- The ID of the Character"
        },
        "returns": {
          "_0": "base64 encoded JSON string"
        }
      },
      "transferFrom(address,address,uint256)": {
        "details": "See {IERC721-transferFrom}."
      },
      "transferOwnership(address)": {
        "details": "Transfers ownership of the contract to a new account (`newOwner`). Can only be called by the current owner."
      },
      "updateCharacter(uint256,int8,int8,uint256)": {
        "params": {
          "efficiencyIncrement": "- The value to add/subtract to the current value",
          "randomVal": "- A ChainLink VRF random number",
          "tokenId": "- The ID of the Character",
          "toleranceIncrement": "- The value to add/subtract to the current value"
        }
      }
    },
    "version": 1
  },
  "userdoc": {
    "kind": "user",
    "methods": {
      "addController(address[])": {
        "notice": "Enables multiple addresses to execute"
      },
      "configure(uint256,uint256)": {
        "notice": "Allows DAO to update game parameters"
      },
      "controller(address)": {
        "notice": "Gets controller status by address"
      },
      "fulfillMint((bytes32,address,uint8,bool,int8),(bool,uint8,uint8,uint8,uint8,uint8,uint8,uint8,uint8,uint8,int8)[])": {
        "notice": "Callback for mint(), called by Mint.fulfillRandomness()"
      },
      "getGen0Tokens()": {
        "notice": "Custom getter required for Traits contract"
      },
      "getTokenTraits(uint256)": {
        "notice": "Returns the Character's struct"
      },
      "mint(uint8,bool)": {
        "notice": "ChainLink VRF request: Mints a new ERC721 token: 90% chefs, 10% rats The first 20% are purchased with native token, the remaining cost $FFOOD"
      },
      "removeController(address[])": {
        "notice": "Prevents multiple addresses from executing"
      },
      "setKitchen(address)": {
        "notice": "Sets the kitchen address to optionally stake newly minted characters in"
      },
      "tokenURI(uint256)": {
        "notice": "Returns the base64 encoded ERC721 metadata"
      },
      "updateCharacter(uint256,int8,int8,uint256)": {
        "notice": "Allows the venues to update the character's efficiency & tolerance values when claiming"
      },
      "withdrawPayments()": {
        "notice": "Allows DAO to withdraw funds"
      }
    },
    "version": 1
  }
}