{
  "contractName": "Character",
  "abi": [
    {
      "anonymous": false,
      "inputs": [
        {
          "indexed": true,
          "internalType": "address",
          "name": "owner",
          "type": "address"
        },
        {
          "indexed": true,
          "internalType": "address",
          "name": "approved",
          "type": "address"
        },
        {
          "indexed": true,
          "internalType": "uint256",
          "name": "tokenId",
          "type": "uint256"
        }
      ],
      "name": "Approval",
      "type": "event"
    },
    {
      "anonymous": false,
      "inputs": [
        {
          "indexed": true,
          "internalType": "address",
          "name": "owner",
          "type": "address"
        },
        {
          "indexed": true,
          "internalType": "address",
          "name": "operator",
          "type": "address"
        },
        {
          "indexed": false,
          "internalType": "bool",
          "name": "approved",
          "type": "bool"
        }
      ],
      "name": "ApprovalForAll",
      "type": "event"
    },
    {
      "anonymous": false,
      "inputs": [
        {
          "indexed": true,
          "internalType": "address",
          "name": "previousOwner",
          "type": "address"
        },
        {
          "indexed": true,
          "internalType": "address",
          "name": "newOwner",
          "type": "address"
        }
      ],
      "name": "OwnershipTransferred",
      "type": "event"
    },
    {
      "anonymous": false,
      "inputs": [
        {
          "indexed": false,
          "internalType": "address",
          "name": "account",
          "type": "address"
        }
      ],
      "name": "Paused",
      "type": "event"
    },
    {
      "anonymous": false,
      "inputs": [
        {
          "indexed": true,
          "internalType": "address",
          "name": "from",
          "type": "address"
        },
        {
          "indexed": true,
          "internalType": "address",
          "name": "to",
          "type": "address"
        },
        {
          "indexed": true,
          "internalType": "uint256",
          "name": "tokenId",
          "type": "uint256"
        }
      ],
      "name": "Transfer",
      "type": "event"
    },
    {
      "anonymous": false,
      "inputs": [
        {
          "indexed": false,
          "internalType": "address",
          "name": "account",
          "type": "address"
        }
      ],
      "name": "Unpaused",
      "type": "event"
    },
    {
      "inputs": [],
      "name": "MAX_TOKENS",
      "outputs": [
        {
          "internalType": "uint256",
          "name": "",
          "type": "uint256"
        }
      ],
      "stateMutability": "view",
      "type": "function",
      "constant": true
    },
    {
      "inputs": [],
      "name": "PAID_TOKENS",
      "outputs": [
        {
          "internalType": "uint256",
          "name": "",
          "type": "uint256"
        }
      ],
      "stateMutability": "view",
      "type": "function",
      "constant": true
    },
    {
      "inputs": [
        {
          "internalType": "address",
          "name": "to",
          "type": "address"
        },
        {
          "internalType": "uint256",
          "name": "tokenId",
          "type": "uint256"
        }
      ],
      "name": "approve",
      "outputs": [],
      "stateMutability": "nonpayable",
      "type": "function"
    },
    {
      "inputs": [
        {
          "internalType": "address",
          "name": "owner",
          "type": "address"
        }
      ],
      "name": "balanceOf",
      "outputs": [
        {
          "internalType": "uint256",
          "name": "",
          "type": "uint256"
        }
      ],
      "stateMutability": "view",
      "type": "function",
      "constant": true
    },
    {
      "inputs": [
        {
          "internalType": "uint256",
          "name": "",
          "type": "uint256"
        }
      ],
      "name": "existingCombinations",
      "outputs": [
        {
          "internalType": "uint256",
          "name": "",
          "type": "uint256"
        }
      ],
      "stateMutability": "view",
      "type": "function",
      "constant": true
    },
    {
      "inputs": [
        {
          "internalType": "uint256",
          "name": "tokenId",
          "type": "uint256"
        }
      ],
      "name": "getApproved",
      "outputs": [
        {
          "internalType": "address",
          "name": "",
          "type": "address"
        }
      ],
      "stateMutability": "view",
      "type": "function",
      "constant": true
    },
    {
      "inputs": [
        {
          "internalType": "address",
          "name": "owner",
          "type": "address"
        },
        {
          "internalType": "address",
          "name": "operator",
          "type": "address"
        }
      ],
      "name": "isApprovedForAll",
      "outputs": [
        {
          "internalType": "bool",
          "name": "",
          "type": "bool"
        }
      ],
      "stateMutability": "view",
      "type": "function",
      "constant": true
    },
    {
      "inputs": [],
      "name": "kitchen",
      "outputs": [
        {
          "internalType": "contract IVenue",
          "name": "",
          "type": "address"
        }
      ],
      "stateMutability": "view",
      "type": "function",
      "constant": true
    },
    {
      "inputs": [],
      "name": "mintPrice",
      "outputs": [
        {
          "internalType": "uint256",
          "name": "",
          "type": "uint256"
        }
      ],
      "stateMutability": "view",
      "type": "function",
      "constant": true
    },
    {
      "inputs": [],
      "name": "minted",
      "outputs": [
        {
          "internalType": "uint16",
          "name": "",
          "type": "uint16"
        }
      ],
      "stateMutability": "view",
      "type": "function",
      "constant": true
    },
    {
      "inputs": [],
      "name": "name",
      "outputs": [
        {
          "internalType": "string",
          "name": "",
          "type": "string"
        }
      ],
      "stateMutability": "view",
      "type": "function",
      "constant": true
    },
    {
      "inputs": [],
      "name": "numChefs",
      "outputs": [
        {
          "internalType": "uint16",
          "name": "",
          "type": "uint16"
        }
      ],
      "stateMutability": "view",
      "type": "function",
      "constant": true
    },
    {
      "inputs": [],
      "name": "numRats",
      "outputs": [
        {
          "internalType": "uint16",
          "name": "",
          "type": "uint16"
        }
      ],
      "stateMutability": "view",
      "type": "function",
      "constant": true
    },
    {
      "inputs": [],
      "name": "owner",
      "outputs": [
        {
          "internalType": "address",
          "name": "",
          "type": "address"
        }
      ],
      "stateMutability": "view",
      "type": "function",
      "constant": true
    },
    {
      "inputs": [
        {
          "internalType": "uint256",
          "name": "tokenId",
          "type": "uint256"
        }
      ],
      "name": "ownerOf",
      "outputs": [
        {
          "internalType": "address",
          "name": "",
          "type": "address"
        }
      ],
      "stateMutability": "view",
      "type": "function",
      "constant": true
    },
    {
      "inputs": [],
      "name": "paused",
      "outputs": [
        {
          "internalType": "bool",
          "name": "",
          "type": "bool"
        }
      ],
      "stateMutability": "view",
      "type": "function",
      "constant": true
    },
    {
      "inputs": [],
      "name": "properties",
      "outputs": [
        {
          "internalType": "contract IProperties",
          "name": "",
          "type": "address"
        }
      ],
      "stateMutability": "view",
      "type": "function",
      "constant": true
    },
    {
      "inputs": [
        {
          "internalType": "uint256",
          "name": "",
          "type": "uint256"
        },
        {
          "internalType": "uint256",
          "name": "",
          "type": "uint256"
        }
      ],
      "name": "rarities",
      "outputs": [
        {
          "internalType": "uint8",
          "name": "",
          "type": "uint8"
        }
      ],
      "stateMutability": "view",
      "type": "function",
      "constant": true
    },
    {
      "inputs": [],
      "name": "renounceOwnership",
      "outputs": [],
      "stateMutability": "nonpayable",
      "type": "function"
    },
    {
      "inputs": [
        {
          "internalType": "address",
          "name": "from",
          "type": "address"
        },
        {
          "internalType": "address",
          "name": "to",
          "type": "address"
        },
        {
          "internalType": "uint256",
          "name": "tokenId",
          "type": "uint256"
        }
      ],
      "name": "safeTransferFrom",
      "outputs": [],
      "stateMutability": "nonpayable",
      "type": "function"
    },
    {
      "inputs": [
        {
          "internalType": "address",
          "name": "from",
          "type": "address"
        },
        {
          "internalType": "address",
          "name": "to",
          "type": "address"
        },
        {
          "internalType": "uint256",
          "name": "tokenId",
          "type": "uint256"
        },
        {
          "internalType": "bytes",
          "name": "_data",
          "type": "bytes"
        }
      ],
      "name": "safeTransferFrom",
      "outputs": [],
      "stateMutability": "nonpayable",
      "type": "function"
    },
    {
      "inputs": [
        {
          "internalType": "address",
          "name": "operator",
          "type": "address"
        },
        {
          "internalType": "bool",
          "name": "approved",
          "type": "bool"
        }
      ],
      "name": "setApprovalForAll",
      "outputs": [],
      "stateMutability": "nonpayable",
      "type": "function"
    },
    {
      "inputs": [
        {
          "internalType": "bytes4",
          "name": "interfaceId",
          "type": "bytes4"
        }
      ],
      "name": "supportsInterface",
      "outputs": [
        {
          "internalType": "bool",
          "name": "",
          "type": "bool"
        }
      ],
      "stateMutability": "view",
      "type": "function",
      "constant": true
    },
    {
      "inputs": [],
      "name": "symbol",
      "outputs": [
        {
          "internalType": "string",
          "name": "",
          "type": "string"
        }
      ],
      "stateMutability": "view",
      "type": "function",
      "constant": true
    },
    {
      "inputs": [
        {
          "internalType": "uint256",
          "name": "",
          "type": "uint256"
        }
      ],
      "name": "tokenTraits",
      "outputs": [
        {
          "internalType": "bool",
          "name": "isChef",
          "type": "bool"
        },
        {
          "internalType": "uint8",
          "name": "hat",
          "type": "uint8"
        },
        {
          "internalType": "uint8",
          "name": "eyes",
          "type": "uint8"
        },
        {
          "internalType": "uint8",
          "name": "piercing",
          "type": "uint8"
        },
        {
          "internalType": "uint8",
          "name": "mouth",
          "type": "uint8"
        },
        {
          "internalType": "uint8",
          "name": "neck",
          "type": "uint8"
        },
        {
          "internalType": "uint8",
          "name": "hand",
          "type": "uint8"
        },
        {
          "internalType": "uint8",
          "name": "tail",
          "type": "uint8"
        },
        {
          "internalType": "uint8",
          "name": "efficiency",
          "type": "uint8"
        },
        {
          "internalType": "uint8",
          "name": "tolerance",
          "type": "uint8"
        }
      ],
      "stateMutability": "view",
      "type": "function",
      "constant": true
    },
    {
      "inputs": [],
      "name": "traits",
      "outputs": [
        {
          "internalType": "contract ITraits",
          "name": "",
          "type": "address"
        }
      ],
      "stateMutability": "view",
      "type": "function",
      "constant": true
    },
    {
      "inputs": [
        {
          "internalType": "address",
          "name": "from",
          "type": "address"
        },
        {
          "internalType": "address",
          "name": "to",
          "type": "address"
        },
        {
          "internalType": "uint256",
          "name": "tokenId",
          "type": "uint256"
        }
      ],
      "name": "transferFrom",
      "outputs": [],
      "stateMutability": "nonpayable",
      "type": "function"
    },
    {
      "inputs": [
        {
          "internalType": "address",
          "name": "newOwner",
          "type": "address"
        }
      ],
      "name": "transferOwnership",
      "outputs": [],
      "stateMutability": "nonpayable",
      "type": "function"
    },
    {
      "inputs": [
        {
          "internalType": "address",
          "name": "_traits",
          "type": "address"
        },
        {
          "internalType": "address",
          "name": "_properties",
          "type": "address"
        },
        {
          "internalType": "uint256",
          "name": "_maxTokens",
          "type": "uint256"
        },
        {
          "internalType": "uint256",
          "name": "_mintPrice",
          "type": "uint256"
        }
      ],
      "name": "initialize",
      "outputs": [],
      "stateMutability": "nonpayable",
      "type": "function"
    },
    {
      "inputs": [
        {
          "internalType": "uint8",
          "name": "amount",
          "type": "uint8"
        },
        {
          "internalType": "bool",
          "name": "stake",
          "type": "bool"
        }
      ],
      "name": "mint",
      "outputs": [],
      "stateMutability": "payable",
      "type": "function",
      "payable": true
    },
    {
      "inputs": [
        {
          "internalType": "uint256",
          "name": "tokenId",
          "type": "uint256"
        },
        {
          "internalType": "int8",
          "name": "efficiencyIncrement",
          "type": "int8"
        },
        {
          "internalType": "int8",
          "name": "toleranceIncrement",
          "type": "int8"
        }
      ],
      "name": "updateCharacter",
      "outputs": [
        {
          "internalType": "uint8",
          "name": "efficiencyValue",
          "type": "uint8"
        },
        {
          "internalType": "uint8",
          "name": "toleranceValue",
          "type": "uint8"
        },
        {
          "internalType": "string",
          "name": "eventName",
          "type": "string"
        }
      ],
      "stateMutability": "nonpayable",
      "type": "function"
    },
    {
      "inputs": [
        {
          "internalType": "uint256",
          "name": "tokenId",
          "type": "uint256"
        }
      ],
      "name": "tokenURI",
      "outputs": [
        {
          "internalType": "string",
          "name": "",
          "type": "string"
        }
      ],
      "stateMutability": "view",
      "type": "function",
      "constant": true
    },
    {
      "inputs": [
        {
          "internalType": "uint256",
          "name": "tokenId",
          "type": "uint256"
        }
      ],
      "name": "getTokenTraits",
      "outputs": [
        {
          "components": [
            {
              "internalType": "bool",
              "name": "isChef",
              "type": "bool"
            },
            {
              "internalType": "uint8",
              "name": "hat",
              "type": "uint8"
            },
            {
              "internalType": "uint8",
              "name": "eyes",
              "type": "uint8"
            },
            {
              "internalType": "uint8",
              "name": "piercing",
              "type": "uint8"
            },
            {
              "internalType": "uint8",
              "name": "mouth",
              "type": "uint8"
            },
            {
              "internalType": "uint8",
              "name": "neck",
              "type": "uint8"
            },
            {
              "internalType": "uint8",
              "name": "hand",
              "type": "uint8"
            },
            {
              "internalType": "uint8",
              "name": "tail",
              "type": "uint8"
            },
            {
              "internalType": "uint8",
              "name": "efficiency",
              "type": "uint8"
            },
            {
              "internalType": "uint8",
              "name": "tolerance",
              "type": "uint8"
            }
          ],
          "internalType": "struct ICharacter.CharacterStruct",
          "name": "",
          "type": "tuple"
        }
      ],
      "stateMutability": "view",
      "type": "function",
      "constant": true
    },
    {
      "inputs": [],
      "name": "getPaidTokens",
      "outputs": [
        {
          "internalType": "uint256",
          "name": "",
          "type": "uint256"
        }
      ],
      "stateMutability": "view",
      "type": "function",
      "constant": true
    },
    {
      "inputs": [
        {
          "internalType": "address",
          "name": "controller",
          "type": "address"
        }
      ],
      "name": "getController",
      "outputs": [
        {
          "internalType": "bool",
          "name": "",
          "type": "bool"
        }
      ],
      "stateMutability": "view",
      "type": "function",
      "constant": true
    },
    {
      "inputs": [
        {
          "internalType": "address",
          "name": "controller",
          "type": "address"
        }
      ],
      "name": "addController",
      "outputs": [],
      "stateMutability": "nonpayable",
      "type": "function"
    },
    {
      "inputs": [
        {
          "internalType": "address",
          "name": "controller",
          "type": "address"
        }
      ],
      "name": "removeController",
      "outputs": [],
      "stateMutability": "nonpayable",
      "type": "function"
    },
    {
      "inputs": [
        {
          "internalType": "address",
          "name": "_kitchen",
          "type": "address"
        }
      ],
      "name": "setKitchen",
      "outputs": [],
      "stateMutability": "nonpayable",
      "type": "function"
    }
  ],
  "bytecode": "0x608060405234801561001057600080fd5b50615c0a80620000216000396000f3fe6080604052600436106102255760003560e01c806394e5684711610123578063d39f8a4d116100ab578063eb990c591161006f578063eb990c5914610867578063f2fde38b14610890578063f47c84c5146108b9578063f6a74ed7146108e4578063fcd802b11461090d57610225565b8063d39f8a4d1461074f578063d8ffcfcb1461077a578063e05c57bf146107b9578063e1fc334f146107ff578063e985e9c51461082a57610225565b8063a7fc7a07116100f2578063a7fc7a071461066a578063b88d4fde14610693578063ba0909dd146106bc578063c084f540146106e7578063c87b56dd1461071257610225565b806394e568471461059c57806395d89b41146105d9578063a1b8f37414610604578063a22cb4651461064157610225565b806342842e0e116101b15780636817c76c116101755780636817c76c146104b557806370a08231146104e0578063715018a61461051d57806388c662aa146105345780638da5cb5b1461057157610225565b806342842e0e146103dd5780634f02c420146104065780635c975abb14610431578063612bfba41461045c5780636352211e1461047857610225565b8063095ea7b3116101f8578063095ea7b3146102fa57806323b872dd14610323578063337f28471461034c57806333df4b2c146103755780634018b1f8146103b257610225565b806301ffc9a71461022a57806306fdde0314610267578063081812fc146102925780630917e40d146102cf575b600080fd5b34801561023657600080fd5b50610251600480360381019061024c9190613cb4565b610938565b60405161025e9190613cfc565b60405180910390f35b34801561027357600080fd5b5061027c610a1a565b6040516102899190613db0565b60405180910390f35b34801561029e57600080fd5b506102b960048036038101906102b49190613e08565b610aac565b6040516102c69190613e76565b60405180910390f35b3480156102db57600080fd5b506102e4610b31565b6040516102f19190613eae565b60405180910390f35b34801561030657600080fd5b50610321600480360381019061031c9190613ef5565b610b45565b005b34801561032f57600080fd5b5061034a60048036038101906103459190613f35565b610c5d565b005b34801561035857600080fd5b50610373600480360381019061036e9190613f88565b610cbd565b005b34801561038157600080fd5b5061039c60048036038101906103979190613fb5565b610d7e565b6040516103a99190614011565b60405180910390f35b3480156103be57600080fd5b506103c7610dc5565b6040516103d4919061403b565b60405180910390f35b3480156103e957600080fd5b5061040460048036038101906103ff9190613f35565b610dcf565b005b34801561041257600080fd5b5061041b610def565b6040516104289190613eae565b60405180910390f35b34801561043d57600080fd5b50610446610e03565b6040516104539190613cfc565b60405180910390f35b610476600480360381019061047191906140ae565b610e1a565b005b34801561048457600080fd5b5061049f600480360381019061049a9190613e08565b61129f565b6040516104ac9190613e76565b60405180910390f35b3480156104c157600080fd5b506104ca611351565b6040516104d7919061403b565b60405180910390f35b3480156104ec57600080fd5b5061050760048036038101906105029190613f88565b611357565b604051610514919061403b565b60405180910390f35b34801561052957600080fd5b5061053261140f565b005b34801561054057600080fd5b5061055b60048036038101906105569190613f88565b611497565b6040516105689190613cfc565b60405180910390f35b34801561057d57600080fd5b5061058661156a565b6040516105939190613e76565b60405180910390f35b3480156105a857600080fd5b506105c360048036038101906105be9190613e08565b611594565b6040516105d091906141d8565b60405180910390f35b3480156105e557600080fd5b506105ee61172a565b6040516105fb9190613db0565b60405180910390f35b34801561061057600080fd5b5061062b60048036038101906106269190613e08565b6117bc565b604051610638919061403b565b60405180910390f35b34801561064d57600080fd5b50610668600480360381019061066391906141f4565b6117d5565b005b34801561067657600080fd5b50610691600480360381019061068c9190613f88565b6117eb565b005b34801561069f57600080fd5b506106ba60048036038101906106b59190614369565b6118c3565b005b3480156106c857600080fd5b506106d1611925565b6040516106de919061444b565b60405180910390f35b3480156106f357600080fd5b506106fc61194c565b604051610709919061403b565b60405180910390f35b34801561071e57600080fd5b5061073960048036038101906107349190613e08565b611952565b6040516107469190613db0565b60405180910390f35b34801561075b57600080fd5b50610764611a45565b6040516107719190613eae565b60405180910390f35b34801561078657600080fd5b506107a1600480360381019061079c919061449f565b611a59565b6040516107b0939291906144f2565b60405180910390f35b3480156107c557600080fd5b506107e060048036038101906107db9190613e08565b611c85565b6040516107f69a99989796959493929190614530565b60405180910390f35b34801561080b57600080fd5b50610814611d5b565b60405161082191906145ed565b60405180910390f35b34801561083657600080fd5b50610851600480360381019061084c9190614608565b611d82565b60405161085e9190613cfc565b60405180910390f35b34801561087357600080fd5b5061088e60048036038101906108899190614648565b611e16565b005b34801561089c57600080fd5b506108b760048036038101906108b29190613f88565b6124cf565b005b3480156108c557600080fd5b506108ce6125c7565b6040516108db919061403b565b60405180910390f35b3480156108f057600080fd5b5061090b60048036038101906109069190613f88565b6125cd565b005b34801561091957600080fd5b506109226126a5565b60405161092f91906146d0565b60405180910390f35b60007f80ac58cd000000000000000000000000000000000000000000000000000000007bffffffffffffffffffffffffffffffffffffffffffffffffffffffff1916827bffffffffffffffffffffffffffffffffffffffffffffffffffffffff19161480610a0357507f5b5e139f000000000000000000000000000000000000000000000000000000007bffffffffffffffffffffffffffffffffffffffffffffffffffffffff1916827bffffffffffffffffffffffffffffffffffffffffffffffffffffffff1916145b80610a135750610a12826126cc565b5b9050919050565b606060c98054610a299061471a565b80601f0160208091040260200160405190810160405280929190818152602001828054610a559061471a565b8015610aa25780601f10610a7757610100808354040283529160200191610aa2565b820191906000526020600020905b815481529060010190602001808311610a8557829003601f168201915b5050505050905090565b6000610ab782612736565b610af6576040517f08c379a0000000000000000000000000000000000000000000000000000000008152600401610aed906147be565b60405180910390fd5b60cd600083815260200190815260200160002060009054906101000a900473ffffffffffffffffffffffffffffffffffffffff169050919050565b60fb60049054906101000a900461ffff1681565b6000610b508261129f565b90508073ffffffffffffffffffffffffffffffffffffffff168373ffffffffffffffffffffffffffffffffffffffff161415610bc1576040517f08c379a0000000000000000000000000000000000000000000000000000000008152600401610bb890614850565b60405180910390fd5b8073ffffffffffffffffffffffffffffffffffffffff16610be06127a2565b73ffffffffffffffffffffffffffffffffffffffff161480610c0f5750610c0e81610c096127a2565b611d82565b5b610c4e576040517f08c379a0000000000000000000000000000000000000000000000000000000008152600401610c45906148e2565b60405180910390fd5b610c5883836127aa565b505050565b610c6e610c686127a2565b82612863565b610cad576040517f08c379a0000000000000000000000000000000000000000000000000000000008152600401610ca490614974565b60405180910390fd5b610cb8838383612941565b505050565b610cc56127a2565b73ffffffffffffffffffffffffffffffffffffffff16610ce361156a565b73ffffffffffffffffffffffffffffffffffffffff1614610d39576040517f08c379a0000000000000000000000000000000000000000000000000000000008152600401610d30906149e0565b60405180910390fd5b8061011660006101000a81548173ffffffffffffffffffffffffffffffffffffffff021916908373ffffffffffffffffffffffffffffffffffffffff16021790555050565b6101028260128110610d8f57600080fd5b018181548110610d9e57600080fd5b9060005260206000209060209182820401919006915091509054906101000a900460ff1681565b600060fe54905090565b610dea838383604051806020016040528060008152506118c3565b505050565b60fb60009054906101000a900461ffff1681565b6000606560009054906101000a900460ff16905090565b610e22610e03565b15610e62576040517f08c379a0000000000000000000000000000000000000000000000000000000008152600401610e5990614a4c565b60405180910390fd5b610e6a6127a2565b73ffffffffffffffffffffffffffffffffffffffff163273ffffffffffffffffffffffffffffffffffffffff1614610ed7576040517f08c379a0000000000000000000000000000000000000000000000000000000008152600401610ece90614ab8565b60405180910390fd5b60008260ff16118015610eee5750600a8260ff1611155b610f2d576040517f08c379a0000000000000000000000000000000000000000000000000000000008152600401610f2490614b24565b60405180910390fd5b3460fc548360ff16610f3f9190614b73565b14610f7f576040517f08c379a0000000000000000000000000000000000000000000000000000000008152600401610f7690614c19565b60405180910390fd5b600081610fd557600067ffffffffffffffff811115610fa157610fa061423e565b5b604051908082528060200260200182016040528015610fcf5781602001602082028036833780820191505090505b50611022565b8260ff1667ffffffffffffffff811115610ff257610ff161423e565b5b6040519080825280602002602001820160405280156110205781602001602082028036833780820191505090505b505b9050600061102e6139e7565b60005b8560ff168110156111f95760fb600081819054906101000a900461ffff168092919061105c90614c39565b91906101000a81548161ffff021916908361ffff1602179055505061109460fb60009054906101000a900461ffff1661ffff16612b9d565b92506110b460fb60009054906101000a900461ffff1661ffff1684612be3565b9150841561113c576110fd61011660009054906101000a900473ffffffffffffffffffffffffffffffffffffffff1660fb60009054906101000a900461ffff1661ffff16612dbd565b60fb60009054906101000a900461ffff1684828151811061112157611120614c64565b5b602002602001019061ffff16908161ffff1681525050611162565b6111616111476127a2565b60fb60009054906101000a900461ffff1661ffff16612dbd565b5b81600001516111aa5760fb600481819054906101000a900461ffff168092919061118b90614c39565b91906101000a81548161ffff021916908361ffff1602179055506111e5565b60fb600281819054906101000a900461ffff16809291906111ca90614c39565b91906101000a81548161ffff021916908361ffff1602179055505b5080806111f190614c93565b915050611031565b5083156112985761011660009054906101000a900473ffffffffffffffffffffffffffffffffffffffff1673ffffffffffffffffffffffffffffffffffffffff1663dbdc1f6b6112476127a2565b856040518363ffffffff1660e01b8152600401611265929190614d9a565b600060405180830381600087803b15801561127f57600080fd5b505af1158015611293573d6000803e3d6000fd5b505050505b5050505050565b60008060cb600084815260200190815260200160002060009054906101000a900473ffffffffffffffffffffffffffffffffffffffff169050600073ffffffffffffffffffffffffffffffffffffffff168173ffffffffffffffffffffffffffffffffffffffff161415611348576040517f08c379a000000000000000000000000000000000000000000000000000000000815260040161133f90614e3c565b60405180910390fd5b80915050919050565b60fc5481565b60008073ffffffffffffffffffffffffffffffffffffffff168273ffffffffffffffffffffffffffffffffffffffff1614156113c8576040517f08c379a00000000000000000000000000000000000000000000000000000000081526004016113bf90614ece565b60405180910390fd5b60cc60008373ffffffffffffffffffffffffffffffffffffffff1673ffffffffffffffffffffffffffffffffffffffff168152602001908152602001600020549050919050565b6114176127a2565b73ffffffffffffffffffffffffffffffffffffffff1661143561156a565b73ffffffffffffffffffffffffffffffffffffffff161461148b576040517f08c379a0000000000000000000000000000000000000000000000000000000008152600401611482906149e0565b60405180910390fd5b6114956000612ddb565b565b60006114a16127a2565b73ffffffffffffffffffffffffffffffffffffffff166114bf61156a565b73ffffffffffffffffffffffffffffffffffffffff1614611515576040517f08c379a000000000000000000000000000000000000000000000000000000000815260040161150c906149e0565b60405180910390fd5b61010160008373ffffffffffffffffffffffffffffffffffffffff1673ffffffffffffffffffffffffffffffffffffffff16815260200190815260200160002060009054906101000a900460ff169050919050565b6000603360009054906101000a900473ffffffffffffffffffffffffffffffffffffffff16905090565b61159c6139e7565b6115a582612736565b6115e4576040517f08c379a00000000000000000000000000000000000000000000000000000000081526004016115db90614f60565b60405180910390fd5b60ff6000838152602001908152602001600020604051806101400160405290816000820160009054906101000a900460ff161515151581526020016000820160019054906101000a900460ff1660ff1660ff1681526020016000820160029054906101000a900460ff1660ff1660ff1681526020016000820160039054906101000a900460ff1660ff1660ff1681526020016000820160049054906101000a900460ff1660ff1660ff1681526020016000820160059054906101000a900460ff1660ff1660ff1681526020016000820160069054906101000a900460ff1660ff1660ff1681526020016000820160079054906101000a900460ff1660ff1660ff1681526020016000820160089054906101000a900460ff1660ff1660ff1681526020016000820160099054906101000a900460ff1660ff1660ff16815250509050919050565b606060ca80546117399061471a565b80601f01602080910402602001604051908101604052809291908181526020018280546117659061471a565b80156117b25780601f10611787576101008083540402835291602001916117b2565b820191906000526020600020905b81548152906001019060200180831161179557829003601f168201915b5050505050905090565b6101006020528060005260406000206000915090505481565b6117e76117e06127a2565b8383612ea1565b5050565b6117f36127a2565b73ffffffffffffffffffffffffffffffffffffffff1661181161156a565b73ffffffffffffffffffffffffffffffffffffffff1614611867576040517f08c379a000000000000000000000000000000000000000000000000000000000815260040161185e906149e0565b60405180910390fd5b600161010160008373ffffffffffffffffffffffffffffffffffffffff1673ffffffffffffffffffffffffffffffffffffffff16815260200190815260200160002060006101000a81548160ff02191690831515021790555050565b6118d46118ce6127a2565b83612863565b611913576040517f08c379a000000000000000000000000000000000000000000000000000000000815260040161190a90614974565b60405180910390fd5b61191f8484848461300e565b50505050565b61011660009054906101000a900473ffffffffffffffffffffffffffffffffffffffff1681565b60fe5481565b606061195d82612736565b61199c576040517f08c379a000000000000000000000000000000000000000000000000000000000815260040161199390614f60565b60405180910390fd5b61011460009054906101000a900473ffffffffffffffffffffffffffffffffffffffff1673ffffffffffffffffffffffffffffffffffffffff1663c87b56dd836040518263ffffffff1660e01b81526004016119f8919061403b565b600060405180830381865afa158015611a15573d6000803e3d6000fd5b505050506040513d6000823e3d601f19601f82011682018060405250810190611a3e9190615021565b9050919050565b60fb60029054906101000a900461ffff1681565b600080606061010160003373ffffffffffffffffffffffffffffffffffffffff1673ffffffffffffffffffffffffffffffffffffffff16815260200190815260200160002060009054906101000a900460ff16611aeb576040517f08c379a0000000000000000000000000000000000000000000000000000000008152600401611ae2906150b6565b60405180910390fd5b600060ff600088815260200190815260200160002060000160009054906101000a900460ff169050600060ff600089815260200190815260200160002060000160089054906101000a900460ff169050600060ff60008a815260200190815260200160002060000160099054906101000a900460ff16905061011560009054906101000a900473ffffffffffffffffffffffffffffffffffffffff1673ffffffffffffffffffffffffffffffffffffffff1663e90bd2578484848c8c6040518663ffffffff1660e01b8152600401611bc79594939291906150e5565b6000604051808303816000875af1158015611be6573d6000803e3d6000fd5b505050506040513d6000823e3d601f19601f82011682018060405250810190611c0f919061514d565b8096508197508298505050508560ff60008b815260200190815260200160002060000160086101000a81548160ff021916908360ff1602179055508460ff60008b815260200190815260200160002060000160096101000a81548160ff021916908360ff16021790555050505093509350939050565b60ff6020528060005260406000206000915090508060000160009054906101000a900460ff16908060000160019054906101000a900460ff16908060000160029054906101000a900460ff16908060000160039054906101000a900460ff16908060000160049054906101000a900460ff16908060000160059054906101000a900460ff16908060000160069054906101000a900460ff16908060000160079054906101000a900460ff16908060000160089054906101000a900460ff16908060000160099054906101000a900460ff1690508a565b61011460009054906101000a900473ffffffffffffffffffffffffffffffffffffffff1681565b600060ce60008473ffffffffffffffffffffffffffffffffffffffff1673ffffffffffffffffffffffffffffffffffffffff16815260200190815260200160002060008373ffffffffffffffffffffffffffffffffffffffff1673ffffffffffffffffffffffffffffffffffffffff16815260200190815260200160002060009054906101000a900460ff16905092915050565b600060019054906101000a900460ff16611e3e5760008054906101000a900460ff1615611e47565b611e4661306a565b5b611e86576040517f08c379a0000000000000000000000000000000000000000000000000000000008152600401611e7d9061522e565b60405180910390fd5b60008060019054906101000a900460ff161590508015611ed6576001600060016101000a81548160ff02191690831515021790555060016000806101000a81548160ff0219169083151502179055505b611ede61307b565b611ee66130dc565b611f5a6040518060400160405280601381526020017f526174416c6572742043686172616374657273000000000000000000000000008152506040518060400160405280600781526020017f524154434841520000000000000000000000000000000000000000000000000081525061313d565b600060fb60006101000a81548161ffff021916908361ffff160217905550600060fb60026101000a81548161ffff021916908361ffff160217905550600060fb60046101000a81548161ffff021916908361ffff1602179055508461011460006101000a81548173ffffffffffffffffffffffffffffffffffffffff021916908373ffffffffffffffffffffffffffffffffffffffff1602179055508361011560006101000a81548173ffffffffffffffffffffffffffffffffffffffff021916908373ffffffffffffffffffffffffffffffffffffffff1602179055508260fd8190555060058361204c919061527d565b60fe819055508160fc819055506040518060c0016040528060ff8016815260200160df60ff16815260200160bf60ff168152602001609f60ff168152602001607f60ff168152602001605f60ff168152506101026002601281106120b3576120b2614c64565b5b019060066120c2929190613a57565b5060405180610100016040528060ff8016815260200160df60ff16815260200160bf60ff168152602001609f60ff168152602001607f60ff168152602001605f60ff168152602001603f60ff168152602001601f60ff1681525061010260036012811061213257612131614c64565b5b01906008612141929190613afe565b506040518060c0016040528060ff8016815260200160df60ff16815260200160bf60ff168152602001609f60ff168152602001607f60ff168152602001605f60ff1681525061010260046012811061219c5761219b614c64565b5b019060066121ab929190613a57565b506040518060c0016040528060ff8016815260200160cf60ff168152602001609f60ff168152602001606f60ff168152602001603f60ff168152602001600f60ff1681525061010260056012811061220657612205614c64565b5b01906006612215929190613a57565b506040518060c0016040528060ff8016815260200160df60ff16815260200160bf60ff168152602001609f60ff168152602001607f60ff168152602001605f60ff168152506101026006601281106122705761226f614c64565b5b0190600661227f929190613a57565b506040518060c0016040528060ff8016815260200160df60ff16815260200160bf60ff168152602001609f60ff168152602001607f60ff168152602001605f60ff16815250610102600c601281106122da576122d9614c64565b5b019060066122e9929190613a57565b5060405180610100016040528060ff8016815260200160df60ff16815260200160bf60ff168152602001609f60ff168152602001607f60ff168152602001605f60ff168152602001603f60ff168152602001601f60ff16815250610102600d6012811061235957612358614c64565b5b01906008612368929190613afe565b506040518060c0016040528060ff8016815260200160df60ff16815260200160bf60ff168152602001609f60ff168152602001607f60ff168152602001605f60ff16815250610102600e601281106123c3576123c2614c64565b5b019060066123d2929190613a57565b506040518060c0016040528060ff8016815260200160cf60ff168152602001609f60ff168152602001606f60ff168152602001603f60ff168152602001600f60ff16815250610102600f6012811061242d5761242c614c64565b5b0190600661243c929190613a57565b506040518060c0016040528060ff8016815260200160df60ff16815260200160bf60ff168152602001609f60ff168152602001607f60ff168152602001605f60ff1681525061010260106012811061249757612496614c64565b5b019060066124a6929190613a57565b5080156124c85760008060016101000a81548160ff0219169083151502179055505b5050505050565b6124d76127a2565b73ffffffffffffffffffffffffffffffffffffffff166124f561156a565b73ffffffffffffffffffffffffffffffffffffffff161461254b576040517f08c379a0000000000000000000000000000000000000000000000000000000008152600401612542906149e0565b60405180910390fd5b600073ffffffffffffffffffffffffffffffffffffffff168173ffffffffffffffffffffffffffffffffffffffff1614156125bb576040517f08c379a00000000000000000000000000000000000000000000000000000000081526004016125b290615320565b60405180910390fd5b6125c481612ddb565b50565b60fd5481565b6125d56127a2565b73ffffffffffffffffffffffffffffffffffffffff166125f361156a565b73ffffffffffffffffffffffffffffffffffffffff1614612649576040517f08c379a0000000000000000000000000000000000000000000000000000000008152600401612640906149e0565b60405180910390fd5b600061010160008373ffffffffffffffffffffffffffffffffffffffff1673ffffffffffffffffffffffffffffffffffffffff16815260200190815260200160002060006101000a81548160ff02191690831515021790555050565b61011560009054906101000a900473ffffffffffffffffffffffffffffffffffffffff1681565b60007f01ffc9a7000000000000000000000000000000000000000000000000000000007bffffffffffffffffffffffffffffffffffffffffffffffffffffffff1916827bffffffffffffffffffffffffffffffffffffffffffffffffffffffff1916149050919050565b60008073ffffffffffffffffffffffffffffffffffffffff1660cb600084815260200190815260200160002060009054906101000a900473ffffffffffffffffffffffffffffffffffffffff1673ffffffffffffffffffffffffffffffffffffffff1614159050919050565b600033905090565b8160cd600083815260200190815260200160002060006101000a81548173ffffffffffffffffffffffffffffffffffffffff021916908373ffffffffffffffffffffffffffffffffffffffff160217905550808273ffffffffffffffffffffffffffffffffffffffff1661281d8361129f565b73ffffffffffffffffffffffffffffffffffffffff167f8c5be1e5ebec7d5bd14f71427d1e84f3dd0314c0f7b2291e5b200ac8c7c3b92560405160405180910390a45050565b600061286e82612736565b6128ad576040517f08c379a00000000000000000000000000000000000000000000000000000000081526004016128a4906153b2565b60405180910390fd5b60006128b88361129f565b90508073ffffffffffffffffffffffffffffffffffffffff168473ffffffffffffffffffffffffffffffffffffffff16148061292757508373ffffffffffffffffffffffffffffffffffffffff1661290f84610aac565b73ffffffffffffffffffffffffffffffffffffffff16145b8061293857506129378185611d82565b5b91505092915050565b8273ffffffffffffffffffffffffffffffffffffffff166129618261129f565b73ffffffffffffffffffffffffffffffffffffffff16146129b7576040517f08c379a00000000000000000000000000000000000000000000000000000000081526004016129ae90615444565b60405180910390fd5b600073ffffffffffffffffffffffffffffffffffffffff168273ffffffffffffffffffffffffffffffffffffffff161415612a27576040517f08c379a0000000000000000000000000000000000000000000000000000000008152600401612a1e906154d6565b60405180910390fd5b612a328383836131aa565b612a3d6000826127aa565b600160cc60008573ffffffffffffffffffffffffffffffffffffffff1673ffffffffffffffffffffffffffffffffffffffff1681526020019081526020016000206000828254612a8d91906154f6565b92505081905550600160cc60008473ffffffffffffffffffffffffffffffffffffffff1673ffffffffffffffffffffffffffffffffffffffff1681526020019081526020016000206000828254612ae4919061552a565b925050819055508160cb600083815260200190815260200160002060006101000a81548173ffffffffffffffffffffffffffffffffffffffff021916908373ffffffffffffffffffffffffffffffffffffffff160217905550808273ffffffffffffffffffffffffffffffffffffffff168473ffffffffffffffffffffffffffffffffffffffff167fddf252ad1be2c89b69c2b068fc378daa952ba7f163c4a11628f55a4df523b3ef60405160405180910390a4505050565b600032600143612bad91906154f6565b404284604051602001612bc39493929190615614565b6040516020818303038152906040528051906020012060001c9050919050565b612beb6139e7565b612bf4826131af565b90506000612c0182613308565b905060006101006000838152602001908152602001600020541415612da1578160ff600086815260200190815260200160002060008201518160000160006101000a81548160ff02191690831515021790555060208201518160000160016101000a81548160ff021916908360ff16021790555060408201518160000160026101000a81548160ff021916908360ff16021790555060608201518160000160036101000a81548160ff021916908360ff16021790555060808201518160000160046101000a81548160ff021916908360ff16021790555060a08201518160000160056101000a81548160ff021916908360ff16021790555060c08201518160000160066101000a81548160ff021916908360ff16021790555060e08201518160000160076101000a81548160ff021916908360ff1602179055506101008201518160000160086101000a81548160ff021916908360ff1602179055506101208201518160000160096101000a81548160ff021916908360ff1602179055509050508361010060008381526020019081526020016000208190555050612db7565b612db384612dae85612b9d565b612be3565b9150505b92915050565b612dd782826040518060200160405280600081525061336b565b5050565b6000603360009054906101000a900473ffffffffffffffffffffffffffffffffffffffff16905081603360006101000a81548173ffffffffffffffffffffffffffffffffffffffff021916908373ffffffffffffffffffffffffffffffffffffffff1602179055508173ffffffffffffffffffffffffffffffffffffffff168173ffffffffffffffffffffffffffffffffffffffff167f8be0079c531659141344cd1fd0a4f28419497f9722a3daafe3b4186f6b6457e060405160405180910390a35050565b8173ffffffffffffffffffffffffffffffffffffffff168373ffffffffffffffffffffffffffffffffffffffff161415612f10576040517f08c379a0000000000000000000000000000000000000000000000000000000008152600401612f07906156ae565b60405180910390fd5b8060ce60008573ffffffffffffffffffffffffffffffffffffffff1673ffffffffffffffffffffffffffffffffffffffff16815260200190815260200160002060008473ffffffffffffffffffffffffffffffffffffffff1673ffffffffffffffffffffffffffffffffffffffff16815260200190815260200160002060006101000a81548160ff0219169083151502179055508173ffffffffffffffffffffffffffffffffffffffff168373ffffffffffffffffffffffffffffffffffffffff167f17307eab39ab6107e8899845ad3d59bd9653f200f220920489ca2b5937696c31836040516130019190613cfc565b60405180910390a3505050565b613019848484612941565b613025848484846133c6565b613064576040517f08c379a000000000000000000000000000000000000000000000000000000000815260040161305b90615740565b60405180910390fd5b50505050565b60006130753061354e565b15905090565b600060019054906101000a900460ff166130ca576040517f08c379a00000000000000000000000000000000000000000000000000000000081526004016130c1906157d2565b60405180910390fd5b6130d2613561565b6130da6135b2565b565b600060019054906101000a900460ff1661312b576040517f08c379a0000000000000000000000000000000000000000000000000000000008152600401613122906157d2565b60405180910390fd5b613133613561565b61313b613613565b565b600060019054906101000a900460ff1661318c576040517f08c379a0000000000000000000000000000000000000000000000000000000008152600401613183906157d2565b60405180910390fd5b613194613561565b61319c61367f565b6131a682826136d0565b5050565b505050565b6131b76139e7565b6000600a61ffff84166131ca91906157f2565b1415816000019015159081151581525050806000015115613276576131f0826002613751565b816020019060ff16908160ff168152505061320c826003613751565b816040019060ff16908160ff1681525050613228826004613751565b816080019060ff16908160ff1681525050613244826005613751565b8160a0019060ff16908160ff1681525050613260826006613751565b8160c0019060ff16908160ff1681525050613303565b61328182600c613751565b816020019060ff16908160ff168152505061329d82600d613751565b816040019060ff16908160ff16815250506132b982600e613751565b816060019060ff16908160ff16815250506132d582600f613751565b8160a0019060ff16908160ff16815250506132f1826010613751565b8160e0019060ff16908160ff16815250505b919050565b6000816000015182602001518360400151846060015185608001518660a001518760c001518860e00151604051602001613349989796959493929190615882565b60405160208183030381529060405261336190615951565b60001c9050919050565b6133758383613819565b61338260008484846133c6565b6133c1576040517f08c379a00000000000000000000000000000000000000000000000000000000081526004016133b890615740565b60405180910390fd5b505050565b60006133e78473ffffffffffffffffffffffffffffffffffffffff1661354e565b15613541578373ffffffffffffffffffffffffffffffffffffffff1663150b7a026134106127a2565b8786866040518563ffffffff1660e01b81526004016134329493929190615a02565b6020604051808303816000875af192505050801561346e57506040513d601f19601f8201168201806040525081019061346b9190615a63565b60015b6134f1573d806000811461349e576040519150601f19603f3d011682016040523d82523d6000602084013e6134a3565b606091505b506000815114156134e9576040517f08c379a00000000000000000000000000000000000000000000000000000000081526004016134e090615740565b60405180910390fd5b805181602001fd5b63150b7a0260e01b7bffffffffffffffffffffffffffffffffffffffffffffffffffffffff1916817bffffffffffffffffffffffffffffffffffffffffffffffffffffffff191614915050613546565b600190505b949350505050565b600080823b905060008111915050919050565b600060019054906101000a900460ff166135b0576040517f08c379a00000000000000000000000000000000000000000000000000000000081526004016135a7906157d2565b60405180910390fd5b565b600060019054906101000a900460ff16613601576040517f08c379a00000000000000000000000000000000000000000000000000000000081526004016135f8906157d2565b60405180910390fd5b61361161360c6127a2565b612ddb565b565b600060019054906101000a900460ff16613662576040517f08c379a0000000000000000000000000000000000000000000000000000000008152600401613659906157d2565b60405180910390fd5b6000606560006101000a81548160ff021916908315150217905550565b600060019054906101000a900460ff166136ce576040517f08c379a00000000000000000000000000000000000000000000000000000000081526004016136c5906157d2565b60405180910390fd5b565b600060019054906101000a900460ff1661371f576040517f08c379a0000000000000000000000000000000000000000000000000000000008152600401613716906157d2565b60405180910390fd5b8160c99080519060200190613735929190613ba5565b508060ca908051906020019061374c929190613ba5565b505050565b60006010600a836137629190615a90565b61376c9190615ac1565b60ff1683901c925060006101028360ff166012811061378e5761378d614c64565b5b01805490508461379e9190615a90565b9050600060ff851690506101028460ff16601281106137c0576137bf614c64565b5b018260ff16815481106137d6576137d5614c64565b5b90600052602060002090602091828204019190069054906101000a900460ff1660ff168160ff161161380c578192505050613813565b6000925050505b92915050565b600073ffffffffffffffffffffffffffffffffffffffff168273ffffffffffffffffffffffffffffffffffffffff161415613889576040517f08c379a000000000000000000000000000000000000000000000000000000000815260040161388090615b48565b60405180910390fd5b61389281612736565b156138d2576040517f08c379a00000000000000000000000000000000000000000000000000000000081526004016138c990615bb4565b60405180910390fd5b6138de600083836131aa565b600160cc60008473ffffffffffffffffffffffffffffffffffffffff1673ffffffffffffffffffffffffffffffffffffffff168152602001908152602001600020600082825461392e919061552a565b925050819055508160cb600083815260200190815260200160002060006101000a81548173ffffffffffffffffffffffffffffffffffffffff021916908373ffffffffffffffffffffffffffffffffffffffff160217905550808273ffffffffffffffffffffffffffffffffffffffff16600073ffffffffffffffffffffffffffffffffffffffff167fddf252ad1be2c89b69c2b068fc378daa952ba7f163c4a11628f55a4df523b3ef60405160405180910390a45050565b604051806101400160405280600015158152602001600060ff168152602001600060ff168152602001600060ff168152602001600060ff168152602001600060ff168152602001600060ff168152602001600060ff168152602001600060ff168152602001600060ff1681525090565b82805482825590600052602060002090601f01602090048101928215613aed5791602002820160005b83821115613abe57835183826101000a81548160ff021916908360ff1602179055509260200192600101602081600001049283019260010302613a80565b8015613aeb5782816101000a81549060ff0219169055600101602081600001049283019260010302613abe565b505b509050613afa9190613c2b565b5090565b82805482825590600052602060002090601f01602090048101928215613b945791602002820160005b83821115613b6557835183826101000a81548160ff021916908360ff1602179055509260200192600101602081600001049283019260010302613b27565b8015613b925782816101000a81549060ff0219169055600101602081600001049283019260010302613b65565b505b509050613ba19190613c2b565b5090565b828054613bb19061471a565b90600052602060002090601f016020900481019282613bd35760008555613c1a565b82601f10613bec57805160ff1916838001178555613c1a565b82800160010185558215613c1a579182015b82811115613c19578251825591602001919060010190613bfe565b5b509050613c279190613c2b565b5090565b5b80821115613c44576000816000905550600101613c2c565b5090565b6000604051905090565b600080fd5b600080fd5b60007fffffffff0000000000000000000000000000000000000000000000000000000082169050919050565b613c9181613c5c565b8114613c9c57600080fd5b50565b600081359050613cae81613c88565b92915050565b600060208284031215613cca57613cc9613c52565b5b6000613cd884828501613c9f565b91505092915050565b60008115159050919050565b613cf681613ce1565b82525050565b6000602082019050613d116000830184613ced565b92915050565b600081519050919050565b600082825260208201905092915050565b60005b83811015613d51578082015181840152602081019050613d36565b83811115613d60576000848401525b50505050565b6000601f19601f8301169050919050565b6000613d8282613d17565b613d8c8185613d22565b9350613d9c818560208601613d33565b613da581613d66565b840191505092915050565b60006020820190508181036000830152613dca8184613d77565b905092915050565b6000819050919050565b613de581613dd2565b8114613df057600080fd5b50565b600081359050613e0281613ddc565b92915050565b600060208284031215613e1e57613e1d613c52565b5b6000613e2c84828501613df3565b91505092915050565b600073ffffffffffffffffffffffffffffffffffffffff82169050919050565b6000613e6082613e35565b9050919050565b613e7081613e55565b82525050565b6000602082019050613e8b6000830184613e67565b92915050565b600061ffff82169050919050565b613ea881613e91565b82525050565b6000602082019050613ec36000830184613e9f565b92915050565b613ed281613e55565b8114613edd57600080fd5b50565b600081359050613eef81613ec9565b92915050565b60008060408385031215613f0c57613f0b613c52565b5b6000613f1a85828601613ee0565b9250506020613f2b85828601613df3565b9150509250929050565b600080600060608486031215613f4e57613f4d613c52565b5b6000613f5c86828701613ee0565b9350506020613f6d86828701613ee0565b9250506040613f7e86828701613df3565b9150509250925092565b600060208284031215613f9e57613f9d613c52565b5b6000613fac84828501613ee0565b91505092915050565b60008060408385031215613fcc57613fcb613c52565b5b6000613fda85828601613df3565b9250506020613feb85828601613df3565b9150509250929050565b600060ff82169050919050565b61400b81613ff5565b82525050565b60006020820190506140266000830184614002565b92915050565b61403581613dd2565b82525050565b6000602082019050614050600083018461402c565b92915050565b61405f81613ff5565b811461406a57600080fd5b50565b60008135905061407c81614056565b92915050565b61408b81613ce1565b811461409657600080fd5b50565b6000813590506140a881614082565b92915050565b600080604083850312156140c5576140c4613c52565b5b60006140d38582860161406d565b92505060206140e485828601614099565b9150509250929050565b6140f781613ce1565b82525050565b61410681613ff5565b82525050565b6101408201600082015161412360008501826140ee565b50602082015161413660208501826140fd565b50604082015161414960408501826140fd565b50606082015161415c60608501826140fd565b50608082015161416f60808501826140fd565b5060a082015161418260a08501826140fd565b5060c082015161419560c08501826140fd565b5060e08201516141a860e08501826140fd565b506101008201516141bd6101008501826140fd565b506101208201516141d26101208501826140fd565b50505050565b6000610140820190506141ee600083018461410c565b92915050565b6000806040838503121561420b5761420a613c52565b5b600061421985828601613ee0565b925050602061422a85828601614099565b9150509250929050565b600080fd5b600080fd5b7f4e487b7100000000000000000000000000000000000000000000000000000000600052604160045260246000fd5b61427682613d66565b810181811067ffffffffffffffff821117156142955761429461423e565b5b80604052505050565b60006142a8613c48565b90506142b4828261426d565b919050565b600067ffffffffffffffff8211156142d4576142d361423e565b5b6142dd82613d66565b9050602081019050919050565b82818337600083830152505050565b600061430c614307846142b9565b61429e565b90508281526020810184848401111561432857614327614239565b5b6143338482856142ea565b509392505050565b600082601f8301126143505761434f614234565b5b81356143608482602086016142f9565b91505092915050565b6000806000806080858703121561438357614382613c52565b5b600061439187828801613ee0565b94505060206143a287828801613ee0565b93505060406143b387828801613df3565b925050606085013567ffffffffffffffff8111156143d4576143d3613c57565b5b6143e08782880161433b565b91505092959194509250565b6000819050919050565b600061441161440c61440784613e35565b6143ec565b613e35565b9050919050565b6000614423826143f6565b9050919050565b600061443582614418565b9050919050565b6144458161442a565b82525050565b6000602082019050614460600083018461443c565b92915050565b60008160000b9050919050565b61447c81614466565b811461448757600080fd5b50565b60008135905061449981614473565b92915050565b6000806000606084860312156144b8576144b7613c52565b5b60006144c686828701613df3565b93505060206144d78682870161448a565b92505060406144e88682870161448a565b9150509250925092565b60006060820190506145076000830186614002565b6145146020830185614002565b81810360408301526145268184613d77565b9050949350505050565b600061014082019050614546600083018d613ced565b614553602083018c614002565b614560604083018b614002565b61456d606083018a614002565b61457a6080830189614002565b61458760a0830188614002565b61459460c0830187614002565b6145a160e0830186614002565b6145af610100830185614002565b6145bd610120830184614002565b9b9a5050505050505050505050565b60006145d782614418565b9050919050565b6145e7816145cc565b82525050565b600060208201905061460260008301846145de565b92915050565b6000806040838503121561461f5761461e613c52565b5b600061462d85828601613ee0565b925050602061463e85828601613ee0565b9150509250929050565b6000806000806080858703121561466257614661613c52565b5b600061467087828801613ee0565b945050602061468187828801613ee0565b935050604061469287828801613df3565b92505060606146a387828801613df3565b91505092959194509250565b60006146ba82614418565b9050919050565b6146ca816146af565b82525050565b60006020820190506146e560008301846146c1565b92915050565b7f4e487b7100000000000000000000000000000000000000000000000000000000600052602260045260246000fd5b6000600282049050600182168061473257607f821691505b60208210811415614746576147456146eb565b5b50919050565b7f4552433732313a20617070726f76656420717565727920666f72206e6f6e657860008201527f697374656e7420746f6b656e0000000000000000000000000000000000000000602082015250565b60006147a8602c83613d22565b91506147b38261474c565b604082019050919050565b600060208201905081810360008301526147d78161479b565b9050919050565b7f4552433732313a20617070726f76616c20746f2063757272656e74206f776e6560008201527f7200000000000000000000000000000000000000000000000000000000000000602082015250565b600061483a602183613d22565b9150614845826147de565b604082019050919050565b600060208201905081810360008301526148698161482d565b9050919050565b7f4552433732313a20617070726f76652063616c6c6572206973206e6f74206f7760008201527f6e6572206e6f7220617070726f76656420666f7220616c6c0000000000000000602082015250565b60006148cc603883613d22565b91506148d782614870565b604082019050919050565b600060208201905081810360008301526148fb816148bf565b9050919050565b7f4552433732313a207472616e736665722063616c6c6572206973206e6f74206f60008201527f776e6572206e6f7220617070726f766564000000000000000000000000000000602082015250565b600061495e603183613d22565b915061496982614902565b604082019050919050565b6000602082019050818103600083015261498d81614951565b9050919050565b7f4f776e61626c653a2063616c6c6572206973206e6f7420746865206f776e6572600082015250565b60006149ca602083613d22565b91506149d582614994565b602082019050919050565b600060208201905081810360008301526149f9816149bd565b9050919050565b7f5061757361626c653a2070617573656400000000000000000000000000000000600082015250565b6000614a36601083613d22565b9150614a4182614a00565b602082019050919050565b60006020820190508181036000830152614a6581614a29565b9050919050565b7f454f41206f6e6c79000000000000000000000000000000000000000000000000600082015250565b6000614aa2600883613d22565b9150614aad82614a6c565b602082019050919050565b60006020820190508181036000830152614ad181614a95565b9050919050565b7f496e76616c6964206d696e7420616d6f756e7400000000000000000000000000600082015250565b6000614b0e601383613d22565b9150614b1982614ad8565b602082019050919050565b60006020820190508181036000830152614b3d81614b01565b9050919050565b7f4e487b7100000000000000000000000000000000000000000000000000000000600052601160045260246000fd5b6000614b7e82613dd2565b9150614b8983613dd2565b9250817fffffffffffffffffffffffffffffffffffffffffffffffffffffffffffffffff0483118215151615614bc257614bc1614b44565b5b828202905092915050565b7f496e76616c6964207061796d656e7420616d6f756e7400000000000000000000600082015250565b6000614c03601683613d22565b9150614c0e82614bcd565b602082019050919050565b60006020820190508181036000830152614c3281614bf6565b9050919050565b6000614c4482613e91565b915061ffff821415614c5957614c58614b44565b5b600182019050919050565b7f4e487b7100000000000000000000000000000000000000000000000000000000600052603260045260246000fd5b6000614c9e82613dd2565b91507fffffffffffffffffffffffffffffffffffffffffffffffffffffffffffffffff821415614cd157614cd0614b44565b5b600182019050919050565b600081519050919050565b600082825260208201905092915050565b6000819050602082019050919050565b614d1181613e91565b82525050565b6000614d238383614d08565b60208301905092915050565b6000602082019050919050565b6000614d4782614cdc565b614d518185614ce7565b9350614d5c83614cf8565b8060005b83811015614d8d578151614d748882614d17565b9750614d7f83614d2f565b925050600181019050614d60565b5085935050505092915050565b6000604082019050614daf6000830185613e67565b8181036020830152614dc18184614d3c565b90509392505050565b7f4552433732313a206f776e657220717565727920666f72206e6f6e657869737460008201527f656e7420746f6b656e0000000000000000000000000000000000000000000000602082015250565b6000614e26602983613d22565b9150614e3182614dca565b604082019050919050565b60006020820190508181036000830152614e5581614e19565b9050919050565b7f4552433732313a2062616c616e636520717565727920666f7220746865207a6560008201527f726f206164647265737300000000000000000000000000000000000000000000602082015250565b6000614eb8602a83613d22565b9150614ec382614e5c565b604082019050919050565b60006020820190508181036000830152614ee781614eab565b9050919050565b7f4552433732314d657461646174613a2055524920717565727920666f72206e6f60008201527f6e2d6578697374656e7420746f6b656e00000000000000000000000000000000602082015250565b6000614f4a603083613d22565b9150614f5582614eee565b604082019050919050565b60006020820190508181036000830152614f7981614f3d565b9050919050565b600067ffffffffffffffff821115614f9b57614f9a61423e565b5b614fa482613d66565b9050602081019050919050565b6000614fc4614fbf84614f80565b61429e565b905082815260208101848484011115614fe057614fdf614239565b5b614feb848285613d33565b509392505050565b600082601f83011261500857615007614234565b5b8151615018848260208601614fb1565b91505092915050565b60006020828403121561503757615036613c52565b5b600082015167ffffffffffffffff81111561505557615054613c57565b5b61506184828501614ff3565b91505092915050565b7f4f6e6c7920636f6e74726f6c6c6572732063616e207570646174650000000000600082015250565b60006150a0601b83613d22565b91506150ab8261506a565b602082019050919050565b600060208201905081810360008301526150cf81615093565b9050919050565b6150df81614466565b82525050565b600060a0820190506150fa6000830188613ced565b6151076020830187614002565b6151146040830186614002565b61512160608301856150d6565b61512e60808301846150d6565b9695505050505050565b60008151905061514781614056565b92915050565b60008060006060848603121561516657615165613c52565b5b600061517486828701615138565b935050602061518586828701615138565b925050604084015167ffffffffffffffff8111156151a6576151a5613c57565b5b6151b286828701614ff3565b9150509250925092565b7f496e697469616c697a61626c653a20636f6e747261637420697320616c72656160008201527f647920696e697469616c697a6564000000000000000000000000000000000000602082015250565b6000615218602e83613d22565b9150615223826151bc565b604082019050919050565b600060208201905081810360008301526152478161520b565b9050919050565b7f4e487b7100000000000000000000000000000000000000000000000000000000600052601260045260246000fd5b600061528882613dd2565b915061529383613dd2565b9250826152a3576152a261524e565b5b828204905092915050565b7f4f776e61626c653a206e6577206f776e657220697320746865207a65726f206160008201527f6464726573730000000000000000000000000000000000000000000000000000602082015250565b600061530a602683613d22565b9150615315826152ae565b604082019050919050565b60006020820190508181036000830152615339816152fd565b9050919050565b7f4552433732313a206f70657261746f7220717565727920666f72206e6f6e657860008201527f697374656e7420746f6b656e0000000000000000000000000000000000000000602082015250565b600061539c602c83613d22565b91506153a782615340565b604082019050919050565b600060208201905081810360008301526153cb8161538f565b9050919050565b7f4552433732313a207472616e73666572206f6620746f6b656e2074686174206960008201527f73206e6f74206f776e0000000000000000000000000000000000000000000000602082015250565b600061542e602983613d22565b9150615439826153d2565b604082019050919050565b6000602082019050818103600083015261545d81615421565b9050919050565b7f4552433732313a207472616e7366657220746f20746865207a65726f2061646460008201527f7265737300000000000000000000000000000000000000000000000000000000602082015250565b60006154c0602483613d22565b91506154cb82615464565b604082019050919050565b600060208201905081810360008301526154ef816154b3565b9050919050565b600061550182613dd2565b915061550c83613dd2565b92508282101561551f5761551e614b44565b5b828203905092915050565b600061553582613dd2565b915061554083613dd2565b9250827fffffffffffffffffffffffffffffffffffffffffffffffffffffffffffffffff0382111561557557615574614b44565b5b828201905092915050565b60008160601b9050919050565b600061559882615580565b9050919050565b60006155aa8261558d565b9050919050565b6155c26155bd82613e55565b61559f565b82525050565b6000819050919050565b6000819050919050565b6155ed6155e8826155c8565b6155d2565b82525050565b6000819050919050565b61560e61560982613dd2565b6155f3565b82525050565b600061562082876155b1565b60148201915061563082866155dc565b60208201915061564082856155fd565b60208201915061565082846155fd565b60208201915081905095945050505050565b7f4552433732313a20617070726f766520746f2063616c6c657200000000000000600082015250565b6000615698601983613d22565b91506156a382615662565b602082019050919050565b600060208201905081810360008301526156c78161568b565b9050919050565b7f4552433732313a207472616e7366657220746f206e6f6e20455243373231526560008201527f63656976657220696d706c656d656e7465720000000000000000000000000000602082015250565b600061572a603283613d22565b9150615735826156ce565b604082019050919050565b600060208201905081810360008301526157598161571d565b9050919050565b7f496e697469616c697a61626c653a20636f6e7472616374206973206e6f74206960008201527f6e697469616c697a696e67000000000000000000000000000000000000000000602082015250565b60006157bc602b83613d22565b91506157c782615760565b604082019050919050565b600060208201905081810360008301526157eb816157af565b9050919050565b60006157fd82613dd2565b915061580883613dd2565b9250826158185761581761524e565b5b828206905092915050565b60008160f81b9050919050565b600061583b82615823565b9050919050565b600061584d82615830565b9050919050565b61586561586082613ce1565b615842565b82525050565b61587c61587782613ff5565b615830565b82525050565b600061588e828b615854565b60018201915061589e828a61586b565b6001820191506158ae828961586b565b6001820191506158be828861586b565b6001820191506158ce828761586b565b6001820191506158de828661586b565b6001820191506158ee828561586b565b6001820191506158fe828461586b565b6001820191508190509998505050505050505050565b600081519050919050565b6000819050602082019050919050565b600061593b82516155c8565b80915050919050565b600082821b905092915050565b600061595c82615914565b826159668461591f565b90506159718161592f565b925060208210156159b1576159ac7fffffffffffffffffffffffffffffffffffffffffffffffffffffffffffffffff83602003600802615944565b831692505b5050919050565b600082825260208201905092915050565b60006159d482615914565b6159de81856159b8565b93506159ee818560208601613d33565b6159f781613d66565b840191505092915050565b6000608082019050615a176000830187613e67565b615a246020830186613e67565b615a31604083018561402c565b8181036060830152615a4381846159c9565b905095945050505050565b600081519050615a5d81613c88565b92915050565b600060208284031215615a7957615a78613c52565b5b6000615a8784828501615a4e565b91505092915050565b6000615a9b82613ff5565b9150615aa683613ff5565b925082615ab657615ab561524e565b5b828206905092915050565b6000615acc82613ff5565b9150615ad783613ff5565b92508160ff0483118215151615615af157615af0614b44565b5b828202905092915050565b7f4552433732313a206d696e7420746f20746865207a65726f2061646472657373600082015250565b6000615b32602083613d22565b9150615b3d82615afc565b602082019050919050565b60006020820190508181036000830152615b6181615b25565b9050919050565b7f4552433732313a20746f6b656e20616c7265616479206d696e74656400000000600082015250565b6000615b9e601c83613d22565b9150615ba982615b68565b602082019050919050565b60006020820190508181036000830152615bcd81615b91565b905091905056fea26469706673582212208ff088c83a4f76eb4a84f47225c6dbe1c76a16fdc23a624339ac42e80adb3e3d64736f6c634300080a0033",
  "immutableReferences": {},
  "source": "// SPDX-License-Identifier: MIT\n\npragma solidity ^0.8.0;\n\nimport \"@openzeppelin/contracts-upgradeable/proxy/utils/Initializable.sol\";\nimport \"@openzeppelin/contracts-upgradeable/access/OwnableUpgradeable.sol\";\nimport \"@openzeppelin/contracts-upgradeable/security/PausableUpgradeable.sol\";\nimport \"@openzeppelin/contracts-upgradeable/token/ERC721/ERC721Upgradeable.sol\";\nimport \"./ICharacter.sol\";\nimport \"./IVenue.sol\";\nimport \"./ITraits.sol\";\nimport \"./IProperties.sol\";\n\ncontract Character is ICharacter, Initializable, OwnableUpgradeable, PausableUpgradeable, ERC721Upgradeable {\n  uint16 public minted;\n  uint16 public numChefs;\n  uint16 public numRats;\n  uint256 public mintPrice;\n  uint256 public MAX_TOKENS; // Max number of tokens that can be minted - 50000 in production\n  uint256 public PAID_TOKENS; // Number of tokens that can be claimed for free - 20% of MAX_TOKENS\n\n  mapping(uint256 => CharacterStruct) public tokenTraits; // Mapping from tokenId to a struct containing the token's traits\n  mapping(uint256 => uint256) public existingCombinations; // Mapping from hashed(tokenTrait) to the tokenId it's associated with, used to ensure there are no duplicates\n  mapping(address => bool) controllers; // a mapping from an address to whether or not it can mint / burn\n  uint8[][18] public rarities; // List of probabilities for each trait type, 0 - 9 are associated with Chefs, 10 - 18 are associated with Rats\n\n  ITraits public traits; // Reference to Traits\n  IProperties public properties; // Reference to Properties\n  IVenue public kitchen;\n\n  function initialize(address _traits, address _properties, uint256 _maxTokens, uint256 _mintPrice) external initializer {\n    __Ownable_init();\n    __Pausable_init();\n    __ERC721_init(\"RatAlert Characters\", \"RATCHAR\");\n\n    minted = 0;\n    numChefs = 0;\n    numRats = 0;\n    traits = ITraits(_traits);\n    properties = IProperties(_properties);\n    MAX_TOKENS = _maxTokens;\n    PAID_TOKENS = _maxTokens / 5;\n    mintPrice = _mintPrice;\n\n    // Chefs\n    rarities[2] = [255, 223, 191, 159, 127, 95]; // hat\n    rarities[3] = [255, 223, 191, 159, 127, 95, 63, 31]; // eyes\n    rarities[4] = [255, 223, 191, 159, 127, 95]; // mouth\n    rarities[5] = [255, 207, 159, 111, 63, 15]; // neck\n    rarities[6] = [255, 223, 191, 159, 127, 95]; // hand\n    // Rats\n    rarities[12] = [255, 223, 191, 159, 127, 95]; // hat\n    rarities[13] = [255, 223, 191, 159, 127, 95, 63, 31]; // eyes\n    rarities[14] = [255, 223, 191, 159, 127, 95]; // piercing\n    rarities[15] = [255, 207, 159, 111, 63, 15]; // neck\n    rarities[16] = [255, 223, 191, 159, 127, 95]; // tail\n  }\n\n  /**\n   * Mints a new ERC721 token: 90% chefs, 10% rats\n   * The first 20% are free to claim, the remaining cost $FFOOD\n   * @param amount Number of tokens to mint\n   */\n  function mint(uint8 amount, bool stake) external payable whenNotPaused {\n    require(tx.origin == _msgSender(), \"EOA only\");\n    require(amount > 0 && amount <= 10, \"Invalid mint amount\");\n    require(amount * mintPrice == msg.value, \"Invalid payment amount\");\n    // TODO require(minted + amount <= maxTokens, \"All tokens minted\"); // TODO\n\n    uint16[] memory tokenIds = stake ? new uint16[](amount) : new uint16[](0);\n    uint256 seed;\n    CharacterStruct memory s;\n    for (uint i = 0; i < amount; i++) {\n      minted++;\n      seed = random(minted);\n      s = generate(minted, seed);\n      if (stake) {\n        _safeMint(address(kitchen), minted);\n        tokenIds[i] = minted;\n      } else {\n        _safeMint(_msgSender(), minted);\n      }\n      s.isChef ? numChefs++ : numRats++;\n    }\n    if (stake) kitchen.stakeMany(_msgSender(), tokenIds);\n  }\n\n  /**\n   * Generates traits for a specific token, checking to make sure it's unique\n   * @param tokenId - The id of the token to generate traits for\n   * @param seed - A pseudorandom 256 bit number to derive traits from\n   * @return t - A struct of traits for the given token ID\n   */\n  function generate(uint256 tokenId, uint256 seed) internal returns (CharacterStruct memory t) {\n    t = selectTraits(seed);\n    uint256 hash = structToHash(t);\n    if (existingCombinations[hash] == 0) {\n      tokenTraits[tokenId] = t;\n      existingCombinations[hash] = tokenId;\n      return t;\n    }\n    return generate(tokenId, random(seed));\n  }\n\n  /**\n   * Selects the species and all of its traits based on the seed value\n   * @param seed - A pseudorandom 256 bit number to derive traits from\n   * @return t -  A struct of randomly selected traits\n   */\n  function selectTraits(uint256 seed) internal view returns (CharacterStruct memory t) {\n    t.isChef = (seed & 0xFFFF) % 10 != 0;\n    if (t.isChef) {\n      t.hat = selectTrait(seed, 2);\n      t.eyes = selectTrait(seed, 3);\n      t.mouth = selectTrait(seed, 4);\n      t.neck = selectTrait(seed, 5);\n      t.hand = selectTrait(seed, 6);\n    } else {\n      t.hat = selectTrait(seed, 12);\n      t.eyes = selectTrait(seed, 13);\n      t.piercing = selectTrait(seed, 14);\n      t.neck = selectTrait(seed, 15);\n      t.tail = selectTrait(seed, 16);\n    }\n    return t;\n  }\n\n  /**\n   * Uses A.J. Walker's Alias algorithm for O(1) rarity table lookup\n   * ensuring O(1) instead of O(n) reduces mint cost by more than 50%\n   * probability & alias tables are generated off-chain beforehand\n   * @param seed - Portion of the 256 bit seed to remove trait correlation\n   * @param traitIndex - The trait index to select a trait for\n   * @return The ID of the randomly selected trait\n   */\n  function selectTrait(uint256 seed, uint8 traitIndex) internal view returns (uint8) {\n    seed = seed >>= (traitIndex % 10 * 16);\n    uint8 trait = uint8(seed) % uint8(rarities[traitIndex].length); // Selected trait index\n    uint8 rand = uint8(seed & 0xFFFF >> 8); // Random integer from 0 to 255\n    if (rand <= rarities[traitIndex][trait]) return trait;\n    return 0;\n  }\n\n  /**\n   * Converts a struct to a 256 bit hash to check for uniqueness\n   * @param s - The struct to pack into a hash\n   * @return The 256 bit hash of the struct\n   */\n  function structToHash(CharacterStruct memory s) internal pure returns (uint256) {\n    return uint256(bytes32(\n      abi.encodePacked(\n        s.isChef,\n        s.hat,\n        s.eyes,\n        s.piercing,\n        s.mouth,\n        s.neck,\n        s.hand,\n        s.tail\n      )\n    ));\n  }\n\n  function updateCharacter(uint256 tokenId, int8 efficiencyIncrement, int8 toleranceIncrement) public returns(uint8 efficiencyValue, uint8 toleranceValue, string memory eventName) {\n    require(controllers[msg.sender], \"Only controllers can update\");\n    bool isChef = tokenTraits[tokenId].isChef;\n    uint8 currentEfficiency = tokenTraits[tokenId].efficiency;\n    uint8 currentTolerance = tokenTraits[tokenId].tolerance;\n    (efficiencyValue, toleranceValue, eventName) = properties.getEventUpdates(isChef, currentEfficiency, currentTolerance, efficiencyIncrement, toleranceIncrement);\n    tokenTraits[tokenId].efficiency = efficiencyValue;\n    tokenTraits[tokenId].tolerance = toleranceValue;\n  }\n\n  function tokenURI(uint256 tokenId) public view override returns (string memory) {\n    require(_exists(tokenId), \"ERC721Metadata: URI query for non-existent token\");\n    return traits.tokenURI(tokenId);\n  }\n\n  function getTokenTraits(uint256 tokenId) external view override returns (CharacterStruct memory) {\n    require(_exists(tokenId), \"ERC721Metadata: URI query for non-existent token\");\n    return tokenTraits[tokenId];\n  }\n\n  function getPaidTokens() external view override returns (uint256) {\n    return PAID_TOKENS;\n  }\n\n  /**\n   * Gets controller status by address\n   * @param controller the address to check\n   */\n  function getController(address controller) external view onlyOwner returns (bool) {\n    return controllers[controller];\n  }\n\n  /**\n   * Enables an address to mint / burn\n   * @param controller the address to enable\n   */\n  function addController(address controller) external onlyOwner {\n    controllers[controller] = true;\n  }\n\n  /**\n   * Disables an address from minting / burning\n   * @param controller the address to disable\n   */\n  function removeController(address controller) external onlyOwner {\n    controllers[controller] = false;\n  }\n\n  /**\n   * Sets the kitchen address to optionally stake newly minted characters in\n   * @param _kitchen - The address of the Kitchen\n   */\n  function setKitchen(address _kitchen) external onlyOwner {\n    kitchen = IVenue(_kitchen);\n  }\n\n  /**\n   * Generates a pseudorandom number\n   * @param seed - A value to ensure different outcomes for different sources in the same block\n   * @return A pseudorandom value\n   */\n  function random(uint256 seed) internal view returns (uint256) {\n    return uint256(keccak256(abi.encodePacked(\n      tx.origin,\n      blockhash(block.number - 1),\n      block.timestamp,\n      seed\n    )));\n  }\n}\n",
  "sourcePath": "/Users/chris/workspace/ratalert/ratalert-contracts/contracts/Character.sol",
  "compiler": {
    "name": "solc",
    "version": "0.8.10+commit.fc410830.Emscripten.clang"
  },
  "schemaVersion": "3.4.4",
  "updatedAt": "2022-02-18T12:35:14.736Z",
  "networkType": "ethereum",
  "devdoc": {
    "kind": "dev",
    "methods": {
      "addController(address)": {
        "params": {
          "controller": "the address to enable"
        }
      },
      "approve(address,uint256)": {
        "details": "See {IERC721-approve}."
      },
      "balanceOf(address)": {
        "details": "See {IERC721-balanceOf}."
      },
      "getApproved(uint256)": {
        "details": "See {IERC721-getApproved}."
      },
      "getController(address)": {
        "params": {
          "controller": "the address to check"
        }
      },
      "isApprovedForAll(address,address)": {
        "details": "See {IERC721-isApprovedForAll}."
      },
      "mint(uint8,bool)": {
        "params": {
          "amount": "Number of tokens to mint"
        }
      },
      "name()": {
        "details": "See {IERC721Metadata-name}."
      },
      "owner()": {
        "details": "Returns the address of the current owner."
      },
      "ownerOf(uint256)": {
        "details": "See {IERC721-ownerOf}."
      },
      "paused()": {
        "details": "Returns true if the contract is paused, and false otherwise."
      },
      "removeController(address)": {
        "params": {
          "controller": "the address to disable"
        }
      },
      "renounceOwnership()": {
        "details": "Leaves the contract without owner. It will not be possible to call `onlyOwner` functions anymore. Can only be called by the current owner. NOTE: Renouncing ownership will leave the contract without an owner, thereby removing any functionality that is only available to the owner."
      },
      "safeTransferFrom(address,address,uint256)": {
        "details": "See {IERC721-safeTransferFrom}."
      },
      "safeTransferFrom(address,address,uint256,bytes)": {
        "details": "See {IERC721-safeTransferFrom}."
      },
      "setApprovalForAll(address,bool)": {
        "details": "See {IERC721-setApprovalForAll}."
      },
      "setKitchen(address)": {
        "params": {
          "_kitchen": "- The address of the Kitchen"
        }
      },
      "supportsInterface(bytes4)": {
        "details": "See {IERC165-supportsInterface}."
      },
      "symbol()": {
        "details": "See {IERC721Metadata-symbol}."
      },
      "tokenURI(uint256)": {
        "details": "See {IERC721Metadata-tokenURI}."
      },
      "transferFrom(address,address,uint256)": {
        "details": "See {IERC721-transferFrom}."
      },
      "transferOwnership(address)": {
        "details": "Transfers ownership of the contract to a new account (`newOwner`). Can only be called by the current owner."
      }
    },
    "version": 1
  },
  "userdoc": {
    "kind": "user",
    "methods": {
      "addController(address)": {
        "notice": "Enables an address to mint / burn"
      },
      "getController(address)": {
        "notice": "Gets controller status by address"
      },
      "mint(uint8,bool)": {
        "notice": "Mints a new ERC721 token: 90% chefs, 10% rats The first 20% are free to claim, the remaining cost $FFOOD"
      },
      "removeController(address)": {
        "notice": "Disables an address from minting / burning"
      },
      "setKitchen(address)": {
        "notice": "Sets the kitchen address to optionally stake newly minted characters in"
      }
    },
    "version": 1
  }
}