{
  "contractName": "Character",
  "abi": [
    {
      "anonymous": false,
      "inputs": [
        {
          "indexed": true,
          "internalType": "address",
          "name": "owner",
          "type": "address"
        },
        {
          "indexed": true,
          "internalType": "address",
          "name": "approved",
          "type": "address"
        },
        {
          "indexed": true,
          "internalType": "uint256",
          "name": "tokenId",
          "type": "uint256"
        }
      ],
      "name": "Approval",
      "type": "event"
    },
    {
      "anonymous": false,
      "inputs": [
        {
          "indexed": true,
          "internalType": "address",
          "name": "owner",
          "type": "address"
        },
        {
          "indexed": true,
          "internalType": "address",
          "name": "operator",
          "type": "address"
        },
        {
          "indexed": false,
          "internalType": "bool",
          "name": "approved",
          "type": "bool"
        }
      ],
      "name": "ApprovalForAll",
      "type": "event"
    },
    {
      "anonymous": false,
      "inputs": [
        {
          "indexed": true,
          "internalType": "address",
          "name": "previousOwner",
          "type": "address"
        },
        {
          "indexed": true,
          "internalType": "address",
          "name": "newOwner",
          "type": "address"
        }
      ],
      "name": "OwnershipTransferred",
      "type": "event"
    },
    {
      "anonymous": false,
      "inputs": [
        {
          "indexed": false,
          "internalType": "address",
          "name": "account",
          "type": "address"
        }
      ],
      "name": "Paused",
      "type": "event"
    },
    {
      "anonymous": false,
      "inputs": [
        {
          "indexed": true,
          "internalType": "address",
          "name": "from",
          "type": "address"
        },
        {
          "indexed": true,
          "internalType": "address",
          "name": "to",
          "type": "address"
        },
        {
          "indexed": true,
          "internalType": "uint256",
          "name": "tokenId",
          "type": "uint256"
        }
      ],
      "name": "Transfer",
      "type": "event"
    },
    {
      "anonymous": false,
      "inputs": [
        {
          "indexed": false,
          "internalType": "address",
          "name": "account",
          "type": "address"
        }
      ],
      "name": "Unpaused",
      "type": "event"
    },
    {
      "inputs": [
        {
          "internalType": "address",
          "name": "_controller",
          "type": "address"
        }
      ],
      "name": "addController",
      "outputs": [],
      "stateMutability": "nonpayable",
      "type": "function"
    },
    {
      "inputs": [
        {
          "internalType": "address",
          "name": "to",
          "type": "address"
        },
        {
          "internalType": "uint256",
          "name": "tokenId",
          "type": "uint256"
        }
      ],
      "name": "approve",
      "outputs": [],
      "stateMutability": "nonpayable",
      "type": "function"
    },
    {
      "inputs": [
        {
          "internalType": "address",
          "name": "owner",
          "type": "address"
        }
      ],
      "name": "balanceOf",
      "outputs": [
        {
          "internalType": "uint256",
          "name": "",
          "type": "uint256"
        }
      ],
      "stateMutability": "view",
      "type": "function",
      "constant": true
    },
    {
      "inputs": [
        {
          "internalType": "address",
          "name": "_controller",
          "type": "address"
        }
      ],
      "name": "controller",
      "outputs": [
        {
          "internalType": "bool",
          "name": "",
          "type": "bool"
        }
      ],
      "stateMutability": "view",
      "type": "function",
      "constant": true
    },
    {
      "inputs": [],
      "name": "dao",
      "outputs": [
        {
          "internalType": "address payable",
          "name": "",
          "type": "address"
        }
      ],
      "stateMutability": "view",
      "type": "function",
      "constant": true
    },
    {
      "inputs": [
        {
          "internalType": "uint256",
          "name": "tokenId",
          "type": "uint256"
        }
      ],
      "name": "getApproved",
      "outputs": [
        {
          "internalType": "address",
          "name": "",
          "type": "address"
        }
      ],
      "stateMutability": "view",
      "type": "function",
      "constant": true
    },
    {
      "inputs": [
        {
          "internalType": "address",
          "name": "owner",
          "type": "address"
        },
        {
          "internalType": "address",
          "name": "operator",
          "type": "address"
        }
      ],
      "name": "isApprovedForAll",
      "outputs": [
        {
          "internalType": "bool",
          "name": "",
          "type": "bool"
        }
      ],
      "stateMutability": "view",
      "type": "function",
      "constant": true
    },
    {
      "inputs": [],
      "name": "kitchen",
      "outputs": [
        {
          "internalType": "contract IVenue",
          "name": "",
          "type": "address"
        }
      ],
      "stateMutability": "view",
      "type": "function",
      "constant": true
    },
    {
      "inputs": [],
      "name": "maxTokens",
      "outputs": [
        {
          "internalType": "uint256",
          "name": "",
          "type": "uint256"
        }
      ],
      "stateMutability": "view",
      "type": "function",
      "constant": true
    },
    {
      "inputs": [
        {
          "internalType": "bytes32",
          "name": "",
          "type": "bytes32"
        },
        {
          "internalType": "uint256",
          "name": "",
          "type": "uint256"
        }
      ],
      "name": "mintRequests",
      "outputs": [
        {
          "internalType": "uint16",
          "name": "",
          "type": "uint16"
        }
      ],
      "stateMutability": "view",
      "type": "function",
      "constant": true
    },
    {
      "inputs": [],
      "name": "minted",
      "outputs": [
        {
          "internalType": "uint16",
          "name": "",
          "type": "uint16"
        }
      ],
      "stateMutability": "view",
      "type": "function",
      "constant": true
    },
    {
      "inputs": [],
      "name": "name",
      "outputs": [
        {
          "internalType": "string",
          "name": "",
          "type": "string"
        }
      ],
      "stateMutability": "view",
      "type": "function",
      "constant": true
    },
    {
      "inputs": [],
      "name": "numChefs",
      "outputs": [
        {
          "internalType": "uint16",
          "name": "",
          "type": "uint16"
        }
      ],
      "stateMutability": "view",
      "type": "function",
      "constant": true
    },
    {
      "inputs": [],
      "name": "numRats",
      "outputs": [
        {
          "internalType": "uint16",
          "name": "",
          "type": "uint16"
        }
      ],
      "stateMutability": "view",
      "type": "function",
      "constant": true
    },
    {
      "inputs": [],
      "name": "owner",
      "outputs": [
        {
          "internalType": "address",
          "name": "",
          "type": "address"
        }
      ],
      "stateMutability": "view",
      "type": "function",
      "constant": true
    },
    {
      "inputs": [
        {
          "internalType": "uint256",
          "name": "tokenId",
          "type": "uint256"
        }
      ],
      "name": "ownerOf",
      "outputs": [
        {
          "internalType": "address",
          "name": "",
          "type": "address"
        }
      ],
      "stateMutability": "view",
      "type": "function",
      "constant": true
    },
    {
      "inputs": [],
      "name": "pause",
      "outputs": [],
      "stateMutability": "nonpayable",
      "type": "function"
    },
    {
      "inputs": [],
      "name": "paused",
      "outputs": [
        {
          "internalType": "bool",
          "name": "",
          "type": "bool"
        }
      ],
      "stateMutability": "view",
      "type": "function",
      "constant": true
    },
    {
      "inputs": [],
      "name": "paywall",
      "outputs": [
        {
          "internalType": "contract IPaywall",
          "name": "",
          "type": "address"
        }
      ],
      "stateMutability": "view",
      "type": "function",
      "constant": true
    },
    {
      "inputs": [],
      "name": "properties",
      "outputs": [
        {
          "internalType": "contract IProperties",
          "name": "",
          "type": "address"
        }
      ],
      "stateMutability": "view",
      "type": "function",
      "constant": true
    },
    {
      "inputs": [
        {
          "internalType": "address",
          "name": "_controller",
          "type": "address"
        }
      ],
      "name": "removeController",
      "outputs": [],
      "stateMutability": "nonpayable",
      "type": "function"
    },
    {
      "inputs": [],
      "name": "renounceOwnership",
      "outputs": [],
      "stateMutability": "nonpayable",
      "type": "function"
    },
    {
      "inputs": [
        {
          "internalType": "address",
          "name": "from",
          "type": "address"
        },
        {
          "internalType": "address",
          "name": "to",
          "type": "address"
        },
        {
          "internalType": "uint256",
          "name": "tokenId",
          "type": "uint256"
        }
      ],
      "name": "safeTransferFrom",
      "outputs": [],
      "stateMutability": "nonpayable",
      "type": "function"
    },
    {
      "inputs": [
        {
          "internalType": "address",
          "name": "from",
          "type": "address"
        },
        {
          "internalType": "address",
          "name": "to",
          "type": "address"
        },
        {
          "internalType": "uint256",
          "name": "tokenId",
          "type": "uint256"
        },
        {
          "internalType": "bytes",
          "name": "_data",
          "type": "bytes"
        }
      ],
      "name": "safeTransferFrom",
      "outputs": [],
      "stateMutability": "nonpayable",
      "type": "function"
    },
    {
      "inputs": [
        {
          "internalType": "address",
          "name": "operator",
          "type": "address"
        },
        {
          "internalType": "bool",
          "name": "approved",
          "type": "bool"
        }
      ],
      "name": "setApprovalForAll",
      "outputs": [],
      "stateMutability": "nonpayable",
      "type": "function"
    },
    {
      "inputs": [
        {
          "internalType": "bytes4",
          "name": "interfaceId",
          "type": "bytes4"
        }
      ],
      "name": "supportsInterface",
      "outputs": [
        {
          "internalType": "bool",
          "name": "",
          "type": "bool"
        }
      ],
      "stateMutability": "view",
      "type": "function",
      "constant": true
    },
    {
      "inputs": [],
      "name": "symbol",
      "outputs": [
        {
          "internalType": "string",
          "name": "",
          "type": "string"
        }
      ],
      "stateMutability": "view",
      "type": "function",
      "constant": true
    },
    {
      "inputs": [],
      "name": "theMint",
      "outputs": [
        {
          "internalType": "contract IMint",
          "name": "",
          "type": "address"
        }
      ],
      "stateMutability": "view",
      "type": "function",
      "constant": true
    },
    {
      "inputs": [
        {
          "internalType": "uint256",
          "name": "",
          "type": "uint256"
        }
      ],
      "name": "tokenTraits",
      "outputs": [
        {
          "internalType": "bool",
          "name": "isChef",
          "type": "bool"
        },
        {
          "internalType": "uint8",
          "name": "hat",
          "type": "uint8"
        },
        {
          "internalType": "uint8",
          "name": "eyes",
          "type": "uint8"
        },
        {
          "internalType": "uint8",
          "name": "piercing",
          "type": "uint8"
        },
        {
          "internalType": "uint8",
          "name": "mouth",
          "type": "uint8"
        },
        {
          "internalType": "uint8",
          "name": "neck",
          "type": "uint8"
        },
        {
          "internalType": "uint8",
          "name": "hand",
          "type": "uint8"
        },
        {
          "internalType": "uint8",
          "name": "tail",
          "type": "uint8"
        },
        {
          "internalType": "uint8",
          "name": "efficiency",
          "type": "uint8"
        },
        {
          "internalType": "uint8",
          "name": "tolerance",
          "type": "uint8"
        }
      ],
      "stateMutability": "view",
      "type": "function",
      "constant": true
    },
    {
      "inputs": [],
      "name": "traits",
      "outputs": [
        {
          "internalType": "contract ITraits",
          "name": "",
          "type": "address"
        }
      ],
      "stateMutability": "view",
      "type": "function",
      "constant": true
    },
    {
      "inputs": [
        {
          "internalType": "address",
          "name": "from",
          "type": "address"
        },
        {
          "internalType": "address",
          "name": "to",
          "type": "address"
        },
        {
          "internalType": "uint256",
          "name": "tokenId",
          "type": "uint256"
        }
      ],
      "name": "transferFrom",
      "outputs": [],
      "stateMutability": "nonpayable",
      "type": "function"
    },
    {
      "inputs": [
        {
          "internalType": "address",
          "name": "newOwner",
          "type": "address"
        }
      ],
      "name": "transferOwnership",
      "outputs": [],
      "stateMutability": "nonpayable",
      "type": "function"
    },
    {
      "inputs": [],
      "name": "unpause",
      "outputs": [],
      "stateMutability": "nonpayable",
      "type": "function"
    },
    {
      "inputs": [
        {
          "internalType": "address",
          "name": "_paywall",
          "type": "address"
        },
        {
          "internalType": "address",
          "name": "_mint",
          "type": "address"
        },
        {
          "internalType": "address",
          "name": "_traits",
          "type": "address"
        },
        {
          "internalType": "address",
          "name": "_properties",
          "type": "address"
        },
        {
          "internalType": "address",
          "name": "_dao",
          "type": "address"
        }
      ],
      "name": "initialize",
      "outputs": [],
      "stateMutability": "nonpayable",
      "type": "function"
    },
    {
      "inputs": [
        {
          "internalType": "uint256",
          "name": "_maxTokens",
          "type": "uint256"
        }
      ],
      "name": "configure",
      "outputs": [],
      "stateMutability": "nonpayable",
      "type": "function"
    },
    {
      "inputs": [
        {
          "internalType": "uint8",
          "name": "amount",
          "type": "uint8"
        },
        {
          "internalType": "bool",
          "name": "stake",
          "type": "bool"
        }
      ],
      "name": "mint",
      "outputs": [],
      "stateMutability": "payable",
      "type": "function",
      "payable": true
    },
    {
      "inputs": [
        {
          "components": [
            {
              "internalType": "bytes32",
              "name": "requestId",
              "type": "bytes32"
            },
            {
              "internalType": "address",
              "name": "sender",
              "type": "address"
            },
            {
              "internalType": "uint8",
              "name": "amount",
              "type": "uint8"
            },
            {
              "internalType": "bool",
              "name": "stake",
              "type": "bool"
            }
          ],
          "internalType": "struct IMint.VRFStruct",
          "name": "v",
          "type": "tuple"
        },
        {
          "components": [
            {
              "internalType": "bool",
              "name": "isChef",
              "type": "bool"
            },
            {
              "internalType": "uint8",
              "name": "hat",
              "type": "uint8"
            },
            {
              "internalType": "uint8",
              "name": "eyes",
              "type": "uint8"
            },
            {
              "internalType": "uint8",
              "name": "piercing",
              "type": "uint8"
            },
            {
              "internalType": "uint8",
              "name": "mouth",
              "type": "uint8"
            },
            {
              "internalType": "uint8",
              "name": "neck",
              "type": "uint8"
            },
            {
              "internalType": "uint8",
              "name": "hand",
              "type": "uint8"
            },
            {
              "internalType": "uint8",
              "name": "tail",
              "type": "uint8"
            },
            {
              "internalType": "uint8",
              "name": "efficiency",
              "type": "uint8"
            },
            {
              "internalType": "uint8",
              "name": "tolerance",
              "type": "uint8"
            }
          ],
          "internalType": "struct ICharacter.CharacterStruct[]",
          "name": "tokens",
          "type": "tuple[]"
        }
      ],
      "name": "fulfillMint",
      "outputs": [],
      "stateMutability": "nonpayable",
      "type": "function"
    },
    {
      "inputs": [
        {
          "internalType": "uint256",
          "name": "tokenId",
          "type": "uint256"
        },
        {
          "internalType": "int8",
          "name": "efficiencyIncrement",
          "type": "int8"
        },
        {
          "internalType": "int8",
          "name": "toleranceIncrement",
          "type": "int8"
        },
        {
          "internalType": "uint256",
          "name": "randomVal",
          "type": "uint256"
        }
      ],
      "name": "updateCharacter",
      "outputs": [
        {
          "internalType": "uint8",
          "name": "efficiencyValue",
          "type": "uint8"
        },
        {
          "internalType": "uint8",
          "name": "toleranceValue",
          "type": "uint8"
        },
        {
          "internalType": "string",
          "name": "eventName",
          "type": "string"
        }
      ],
      "stateMutability": "nonpayable",
      "type": "function"
    },
    {
      "inputs": [
        {
          "internalType": "uint256",
          "name": "tokenId",
          "type": "uint256"
        }
      ],
      "name": "tokenURI",
      "outputs": [
        {
          "internalType": "string",
          "name": "",
          "type": "string"
        }
      ],
      "stateMutability": "view",
      "type": "function",
      "constant": true
    },
    {
      "inputs": [
        {
          "internalType": "uint256",
          "name": "tokenId",
          "type": "uint256"
        }
      ],
      "name": "getTokenTraits",
      "outputs": [
        {
          "components": [
            {
              "internalType": "bool",
              "name": "isChef",
              "type": "bool"
            },
            {
              "internalType": "uint8",
              "name": "hat",
              "type": "uint8"
            },
            {
              "internalType": "uint8",
              "name": "eyes",
              "type": "uint8"
            },
            {
              "internalType": "uint8",
              "name": "piercing",
              "type": "uint8"
            },
            {
              "internalType": "uint8",
              "name": "mouth",
              "type": "uint8"
            },
            {
              "internalType": "uint8",
              "name": "neck",
              "type": "uint8"
            },
            {
              "internalType": "uint8",
              "name": "hand",
              "type": "uint8"
            },
            {
              "internalType": "uint8",
              "name": "tail",
              "type": "uint8"
            },
            {
              "internalType": "uint8",
              "name": "efficiency",
              "type": "uint8"
            },
            {
              "internalType": "uint8",
              "name": "tolerance",
              "type": "uint8"
            }
          ],
          "internalType": "struct ICharacter.CharacterStruct",
          "name": "",
          "type": "tuple"
        }
      ],
      "stateMutability": "view",
      "type": "function",
      "constant": true
    },
    {
      "inputs": [],
      "name": "getGen0Tokens",
      "outputs": [
        {
          "internalType": "uint256",
          "name": "",
          "type": "uint256"
        }
      ],
      "stateMutability": "view",
      "type": "function",
      "constant": true
    },
    {
      "inputs": [
        {
          "internalType": "address",
          "name": "_kitchen",
          "type": "address"
        }
      ],
      "name": "setKitchen",
      "outputs": [],
      "stateMutability": "nonpayable",
      "type": "function"
    }
  ],
  "bytecode": "0x608060405234801561001057600080fd5b50615d2980620000216000396000f3fe6080604052600436106102515760003560e01c8063715018a611610139578063ba0909dd116100b6578063e1fc334f1161007a578063e1fc334f146108c2578063e8315742146108ed578063e985e9c514610918578063f2fde38b14610955578063f6a74ed71461097e578063fcd802b1146109a757610251565b8063ba0909dd146107ac578063c13aa7b5146107d7578063c87b56dd14610814578063d39f8a4d14610851578063e05c57bf1461087c57610251565b806394e56847116100fd57806394e56847146106c957806395d89b4114610706578063a22cb46514610731578063a7fc7a071461075a578063b88d4fde1461078357610251565b8063715018a61461061a5780637856f945146106315780638456cb591461065c5780638da5cb5b146106735780639284521c1461069e57610251565b80633f4ba83a116101d2578063506b176111610196578063506b1761146104ef5780635c975abb1461051a578063612bfba4146105455780636352211e1461056157806363dbfc771461059e57806370a08231146105dd57610251565b80633f4ba83a146104305780634162169f1461044757806342842e0e146104725780634a43d1d31461049b5780634f02c420146104c457610251565b80631459457a116102195780631459457a1461034f5780631eb25e0a1461037857806323b872dd146103a157806332de7209146103ca578063337f28471461040757610251565b806301ffc9a71461025657806306fdde0314610293578063081812fc146102be5780630917e40d146102fb578063095ea7b314610326575b600080fd5b34801561026257600080fd5b5061027d60048036038101906102789190613c52565b6109d2565b60405161028a9190613c9a565b60405180910390f35b34801561029f57600080fd5b506102a8610ab4565b6040516102b59190613d4e565b60405180910390f35b3480156102ca57600080fd5b506102e560048036038101906102e09190613da6565b610b46565b6040516102f29190613e14565b60405180910390f35b34801561030757600080fd5b50610310610bcb565b60405161031d9190613e4c565b60405180910390f35b34801561033257600080fd5b5061034d60048036038101906103489190613e93565b610bdf565b005b34801561035b57600080fd5b5061037660048036038101906103719190613ed3565b610cf7565b005b34801561038457600080fd5b5061039f600480360381019061039a9190613da6565b611008565b005b3480156103ad57600080fd5b506103c860048036038101906103c39190613f4e565b6110a1565b005b3480156103d657600080fd5b506103f160048036038101906103ec9190613fd7565b611101565b6040516103fe9190613e4c565b60405180910390f35b34801561041357600080fd5b5061042e60048036038101906104299190614017565b611149565b005b34801561043c57600080fd5b5061044561120a565b005b34801561045357600080fd5b5061045c611290565b6040516104699190614065565b60405180910390f35b34801561047e57600080fd5b5061049960048036038101906104949190613f4e565b6112b7565b005b3480156104a757600080fd5b506104c260048036038101906104bd91906143a2565b6112d7565b005b3480156104d057600080fd5b506104d9611820565b6040516104e69190613e4c565b60405180910390f35b3480156104fb57600080fd5b50610504611834565b604051610511919061445d565b60405180910390f35b34801561052657600080fd5b5061052f61185b565b60405161053c9190613c9a565b60405180910390f35b61055f600480360381019061055a9190614478565b611872565b005b34801561056d57600080fd5b5061058860048036038101906105839190613da6565b611c40565b6040516105959190613e14565b60405180910390f35b3480156105aa57600080fd5b506105c560048036038101906105c091906144f1565b611cf2565b6040516105d493929190614567565b60405180910390f35b3480156105e957600080fd5b5061060460048036038101906105ff9190614017565b611f20565b60405161061191906145b4565b60405180910390f35b34801561062657600080fd5b5061062f611fd8565b005b34801561063d57600080fd5b50610646612060565b60405161065391906145b4565b60405180910390f35b34801561066857600080fd5b5061067161206a565b005b34801561067f57600080fd5b506106886120f0565b6040516106959190613e14565b60405180910390f35b3480156106aa57600080fd5b506106b361211a565b6040516106c091906145f0565b60405180910390f35b3480156106d557600080fd5b506106f060048036038101906106eb9190613da6565b612141565b6040516106fd91906146f5565b60405180910390f35b34801561071257600080fd5b5061071b6122d7565b6040516107289190613d4e565b60405180910390f35b34801561073d57600080fd5b5061075860048036038101906107539190614711565b612369565b005b34801561076657600080fd5b50610781600480360381019061077c9190614017565b61237f565b005b34801561078f57600080fd5b506107aa60048036038101906107a59190614806565b612456565b005b3480156107b857600080fd5b506107c16124b8565b6040516107ce91906148aa565b60405180910390f35b3480156107e357600080fd5b506107fe60048036038101906107f99190614017565b6124df565b60405161080b9190613c9a565b60405180910390f35b34801561082057600080fd5b5061083b60048036038101906108369190613da6565b6125b1565b6040516108489190613d4e565b60405180910390f35b34801561085d57600080fd5b506108666126a4565b6040516108739190613e4c565b60405180910390f35b34801561088857600080fd5b506108a3600480360381019061089e9190613da6565b6126b8565b6040516108b99a999897969594939291906148c5565b60405180910390f35b3480156108ce57600080fd5b506108d761278e565b6040516108e49190614982565b60405180910390f35b3480156108f957600080fd5b506109026127b5565b60405161090f91906145b4565b60405180910390f35b34801561092457600080fd5b5061093f600480360381019061093a919061499d565b6127bb565b60405161094c9190613c9a565b60405180910390f35b34801561096157600080fd5b5061097c60048036038101906109779190614017565b61284f565b005b34801561098a57600080fd5b506109a560048036038101906109a09190614017565b612947565b005b3480156109b357600080fd5b506109bc612a1e565b6040516109c991906149fe565b60405180910390f35b60007f80ac58cd000000000000000000000000000000000000000000000000000000007bffffffffffffffffffffffffffffffffffffffffffffffffffffffff1916827bffffffffffffffffffffffffffffffffffffffffffffffffffffffff19161480610a9d57507f5b5e139f000000000000000000000000000000000000000000000000000000007bffffffffffffffffffffffffffffffffffffffffffffffffffffffff1916827bffffffffffffffffffffffffffffffffffffffffffffffffffffffff1916145b80610aad5750610aac82612a45565b5b9050919050565b606060c98054610ac390614a48565b80601f0160208091040260200160405190810160405280929190818152602001828054610aef90614a48565b8015610b3c5780601f10610b1157610100808354040283529160200191610b3c565b820191906000526020600020905b815481529060010190602001808311610b1f57829003601f168201915b5050505050905090565b6000610b5182612aaf565b610b90576040517f08c379a0000000000000000000000000000000000000000000000000000000008152600401610b8790614aec565b60405180910390fd5b60cd600083815260200190815260200160002060009054906101000a900473ffffffffffffffffffffffffffffffffffffffff169050919050565b60fc60049054906101000a900461ffff1681565b6000610bea82611c40565b90508073ffffffffffffffffffffffffffffffffffffffff168373ffffffffffffffffffffffffffffffffffffffff161415610c5b576040517f08c379a0000000000000000000000000000000000000000000000000000000008152600401610c5290614b7e565b60405180910390fd5b8073ffffffffffffffffffffffffffffffffffffffff16610c7a612b1b565b73ffffffffffffffffffffffffffffffffffffffff161480610ca95750610ca881610ca3612b1b565b6127bb565b5b610ce8576040517f08c379a0000000000000000000000000000000000000000000000000000000008152600401610cdf90614c10565b60405180910390fd5b610cf28383612b23565b505050565b600060019054906101000a900460ff16610d1f5760008054906101000a900460ff1615610d28565b610d27612bdc565b5b610d67576040517f08c379a0000000000000000000000000000000000000000000000000000000008152600401610d5e90614ca2565b60405180910390fd5b60008060019054906101000a900460ff161590508015610db7576001600060016101000a81548160ff02191690831515021790555060016000806101000a81548160ff0219169083151502179055505b610dbf612bed565b610dc7612c4e565b610e3b6040518060400160405280601381526020017f526174416c6572742043686172616374657273000000000000000000000000008152506040518060400160405280600781526020017f5241544341535400000000000000000000000000000000000000000000000000815250612caf565b8561010560006101000a81548173ffffffffffffffffffffffffffffffffffffffff021916908373ffffffffffffffffffffffffffffffffffffffff1602179055508461010160006101000a81548173ffffffffffffffffffffffffffffffffffffffff021916908373ffffffffffffffffffffffffffffffffffffffff1602179055508361010260006101000a81548173ffffffffffffffffffffffffffffffffffffffff021916908373ffffffffffffffffffffffffffffffffffffffff1602179055508261010360006101000a81548173ffffffffffffffffffffffffffffffffffffffff021916908373ffffffffffffffffffffffffffffffffffffffff1602179055508161010660006101000a81548173ffffffffffffffffffffffffffffffffffffffff021916908373ffffffffffffffffffffffffffffffffffffffff160217905550600060fc60006101000a81548161ffff021916908361ffff160217905550600060fc60026101000a81548161ffff021916908361ffff160217905550600060fc60046101000a81548161ffff021916908361ffff16021790555080156110005760008060016101000a81548160ff0219169083151502179055505b505050505050565b611010612b1b565b73ffffffffffffffffffffffffffffffffffffffff1661102e6120f0565b73ffffffffffffffffffffffffffffffffffffffff1614611084576040517f08c379a000000000000000000000000000000000000000000000000000000000815260040161107b90614d0e565b60405180910390fd5b8060fd819055506005816110989190614d8c565b60fe8190555050565b6110b26110ac612b1b565b82612d1c565b6110f1576040517f08c379a00000000000000000000000000000000000000000000000000000000081526004016110e890614e2f565b60405180910390fd5b6110fc838383612dfa565b505050565b610100602052816000526040600020818154811061111e57600080fd5b9060005260206000209060109182820401919006600202915091509054906101000a900461ffff1681565b611151612b1b565b73ffffffffffffffffffffffffffffffffffffffff1661116f6120f0565b73ffffffffffffffffffffffffffffffffffffffff16146111c5576040517f08c379a00000000000000000000000000000000000000000000000000000000081526004016111bc90614d0e565b60405180910390fd5b8061010460006101000a81548173ffffffffffffffffffffffffffffffffffffffff021916908373ffffffffffffffffffffffffffffffffffffffff16021790555050565b611212612b1b565b73ffffffffffffffffffffffffffffffffffffffff166112306120f0565b73ffffffffffffffffffffffffffffffffffffffff1614611286576040517f08c379a000000000000000000000000000000000000000000000000000000000815260040161127d90614d0e565b60405180910390fd5b61128e613056565b565b61010660009054906101000a900473ffffffffffffffffffffffffffffffffffffffff1681565b6112d283838360405180602001604052806000815250612456565b505050565b6112df61185b565b1561131f576040517f08c379a000000000000000000000000000000000000000000000000000000000815260040161131690614e9b565b60405180910390fd5b61010160009054906101000a900473ffffffffffffffffffffffffffffffffffffffff1673ffffffffffffffffffffffffffffffffffffffff163373ffffffffffffffffffffffffffffffffffffffff16146113b0576040517f08c379a00000000000000000000000000000000000000000000000000000000081526004016113a790614f07565b60405180910390fd5b6000610100600084600001518152602001908152602001600020805490501161140e576040517f08c379a000000000000000000000000000000000000000000000000000000000815260040161140590614f73565b60405180910390fd5b600061010060008460000151815260200190815260200160002080548060200260200160405190810160405280929190818152602001828054801561149a57602002820191906000526020600020906000905b82829054906101000a900461ffff1661ffff16815260200190600201906020826001010492830192600103820291508084116114615790505b5050505050905061010060008460000151815260200190815260200160002060006114c59190613a01565b60005b815181101561177b5761153084606001516114e757846020015161150c565b61010460009054906101000a900473ffffffffffffffffffffffffffffffffffffffff165b83838151811061151f5761151e614f93565b5b602002602001015161ffff166130f8565b82818151811061154357611542614f93565b5b602002602001015160ff600084848151811061156257611561614f93565b5b602002602001015161ffff16815260200190815260200160002060008201518160000160006101000a81548160ff02191690831515021790555060208201518160000160016101000a81548160ff021916908360ff16021790555060408201518160000160026101000a81548160ff021916908360ff16021790555060608201518160000160036101000a81548160ff021916908360ff16021790555060808201518160000160046101000a81548160ff021916908360ff16021790555060a08201518160000160056101000a81548160ff021916908360ff16021790555060c08201518160000160066101000a81548160ff021916908360ff16021790555060e08201518160000160076101000a81548160ff021916908360ff1602179055506101008201518160000160086101000a81548160ff021916908360ff1602179055506101208201518160000160096101000a81548160ff021916908360ff1602179055509050508281815181106116dd576116dc614f93565b5b60200260200101516000015161172c5760fc600481819054906101000a900461ffff168092919061170d90614fc2565b91906101000a81548161ffff021916908361ffff160217905550611767565b60fc600281819054906101000a900461ffff168092919061174c90614fc2565b91906101000a81548161ffff021916908361ffff1602179055505b50808061177390614fed565b9150506114c8565b5082606001511561181b5761010460009054906101000a900473ffffffffffffffffffffffffffffffffffffffff1673ffffffffffffffffffffffffffffffffffffffff1663dbdc1f6b8460200151836040518363ffffffff1660e01b81526004016117e89291906150f4565b600060405180830381600087803b15801561180257600080fd5b505af1158015611816573d6000803e3d6000fd5b505050505b505050565b60fc60009054906101000a900461ffff1681565b61010560009054906101000a900473ffffffffffffffffffffffffffffffffffffffff1681565b6000606560009054906101000a900460ff16905090565b61187a61185b565b156118ba576040517f08c379a00000000000000000000000000000000000000000000000000000000081526004016118b190614e9b565b60405180910390fd5b6118c2612b1b565b73ffffffffffffffffffffffffffffffffffffffff163273ffffffffffffffffffffffffffffffffffffffff161461192f576040517f08c379a000000000000000000000000000000000000000000000000000000000815260040161192690615170565b60405180910390fd5b61010560009054906101000a900473ffffffffffffffffffffffffffffffffffffffff1673ffffffffffffffffffffffffffffffffffffffff1663abc26c60611976612b1b565b843460fc60009054906101000a900461ffff1660fd5460fe546040518763ffffffff1660e01b81526004016119b096959493929190615190565b600060405180830381600087803b1580156119ca57600080fd5b505af11580156119de573d6000803e3d6000fd5b505050506000341115611a565761010660009054906101000a900473ffffffffffffffffffffffffffffffffffffffff1673ffffffffffffffffffffffffffffffffffffffff166108fc349081150290604051600060405180830381858888f19350505050158015611a54573d6000803e3d6000fd5b505b600061010160009054906101000a900473ffffffffffffffffffffffffffffffffffffffff1673ffffffffffffffffffffffffffffffffffffffff1663de864bf9611a9f612b1b565b85856040518463ffffffff1660e01b8152600401611abf939291906151f1565b6020604051808303816000875af1158015611ade573d6000803e3d6000fd5b505050506040513d601f19601f82011682018060405250810190611b02919061523d565b90508260ff1667ffffffffffffffff811115611b2157611b20614085565b5b604051908082528060200260200182016040528015611b4f5781602001602082028036833780820191505090505b5061010060008381526020019081526020016000209080519060200190611b77929190613a29565b5060005b8360ff16811015611c3a5760fc600081819054906101000a900461ffff1680929190611ba690614fc2565b91906101000a81548161ffff021916908361ffff1602179055505060fc60009054906101000a900461ffff1661010060008481526020019081526020016000208281548110611bf857611bf7614f93565b5b90600052602060002090601091828204019190066002026101000a81548161ffff021916908361ffff1602179055508080611c3290614fed565b915050611b7b565b50505050565b60008060cb600084815260200190815260200160002060009054906101000a900473ffffffffffffffffffffffffffffffffffffffff169050600073ffffffffffffffffffffffffffffffffffffffff168173ffffffffffffffffffffffffffffffffffffffff161415611ce9576040517f08c379a0000000000000000000000000000000000000000000000000000000008152600401611ce0906152dc565b60405180910390fd5b80915050919050565b600080606060fb60003373ffffffffffffffffffffffffffffffffffffffff1673ffffffffffffffffffffffffffffffffffffffff16815260200190815260200160002060009054906101000a900460ff16611d83576040517f08c379a0000000000000000000000000000000000000000000000000000000008152600401611d7a90615348565b60405180910390fd5b600060ff600089815260200190815260200160002060000160009054906101000a900460ff169050600060ff60008a815260200190815260200160002060000160089054906101000a900460ff169050600060ff60008b815260200190815260200160002060000160099054906101000a900460ff16905061010360009054906101000a900473ffffffffffffffffffffffffffffffffffffffff1673ffffffffffffffffffffffffffffffffffffffff16634718e3088484848d8d8d6040518763ffffffff1660e01b8152600401611e6196959493929190615377565b6000604051808303816000875af1158015611e80573d6000803e3d6000fd5b505050506040513d6000823e3d601f19601f82011682018060405250810190611ea9919061548e565b8096508197508298505050508560ff60008c815260200190815260200160002060000160086101000a81548160ff021916908360ff1602179055508460ff60008c815260200190815260200160002060000160096101000a81548160ff021916908360ff1602179055505050509450945094915050565b60008073ffffffffffffffffffffffffffffffffffffffff168273ffffffffffffffffffffffffffffffffffffffff161415611f91576040517f08c379a0000000000000000000000000000000000000000000000000000000008152600401611f889061556f565b60405180910390fd5b60cc60008373ffffffffffffffffffffffffffffffffffffffff1673ffffffffffffffffffffffffffffffffffffffff168152602001908152602001600020549050919050565b611fe0612b1b565b73ffffffffffffffffffffffffffffffffffffffff16611ffe6120f0565b73ffffffffffffffffffffffffffffffffffffffff1614612054576040517f08c379a000000000000000000000000000000000000000000000000000000000815260040161204b90614d0e565b60405180910390fd5b61205e6000613116565b565b600060fe54905090565b612072612b1b565b73ffffffffffffffffffffffffffffffffffffffff166120906120f0565b73ffffffffffffffffffffffffffffffffffffffff16146120e6576040517f08c379a00000000000000000000000000000000000000000000000000000000081526004016120dd90614d0e565b60405180910390fd5b6120ee6131dc565b565b6000603360009054906101000a900473ffffffffffffffffffffffffffffffffffffffff16905090565b61010160009054906101000a900473ffffffffffffffffffffffffffffffffffffffff1681565b612149613ad3565b61215282612aaf565b612191576040517f08c379a000000000000000000000000000000000000000000000000000000000815260040161218890615601565b60405180910390fd5b60ff6000838152602001908152602001600020604051806101400160405290816000820160009054906101000a900460ff161515151581526020016000820160019054906101000a900460ff1660ff1660ff1681526020016000820160029054906101000a900460ff1660ff1660ff1681526020016000820160039054906101000a900460ff1660ff1660ff1681526020016000820160049054906101000a900460ff1660ff1660ff1681526020016000820160059054906101000a900460ff1660ff1660ff1681526020016000820160069054906101000a900460ff1660ff1660ff1681526020016000820160079054906101000a900460ff1660ff1660ff1681526020016000820160089054906101000a900460ff1660ff1660ff1681526020016000820160099054906101000a900460ff1660ff1660ff16815250509050919050565b606060ca80546122e690614a48565b80601f016020809104026020016040519081016040528092919081815260200182805461231290614a48565b801561235f5780601f106123345761010080835404028352916020019161235f565b820191906000526020600020905b81548152906001019060200180831161234257829003601f168201915b5050505050905090565b61237b612374612b1b565b838361327f565b5050565b612387612b1b565b73ffffffffffffffffffffffffffffffffffffffff166123a56120f0565b73ffffffffffffffffffffffffffffffffffffffff16146123fb576040517f08c379a00000000000000000000000000000000000000000000000000000000081526004016123f290614d0e565b60405180910390fd5b600160fb60008373ffffffffffffffffffffffffffffffffffffffff1673ffffffffffffffffffffffffffffffffffffffff16815260200190815260200160002060006101000a81548160ff02191690831515021790555050565b612467612461612b1b565b83612d1c565b6124a6576040517f08c379a000000000000000000000000000000000000000000000000000000000815260040161249d90614e2f565b60405180910390fd5b6124b2848484846133ec565b50505050565b61010460009054906101000a900473ffffffffffffffffffffffffffffffffffffffff1681565b60006124e9612b1b565b73ffffffffffffffffffffffffffffffffffffffff166125076120f0565b73ffffffffffffffffffffffffffffffffffffffff161461255d576040517f08c379a000000000000000000000000000000000000000000000000000000000815260040161255490614d0e565b60405180910390fd5b60fb60008373ffffffffffffffffffffffffffffffffffffffff1673ffffffffffffffffffffffffffffffffffffffff16815260200190815260200160002060009054906101000a900460ff169050919050565b60606125bc82612aaf565b6125fb576040517f08c379a00000000000000000000000000000000000000000000000000000000081526004016125f290615601565b60405180910390fd5b61010260009054906101000a900473ffffffffffffffffffffffffffffffffffffffff1673ffffffffffffffffffffffffffffffffffffffff1663c87b56dd836040518263ffffffff1660e01b815260040161265791906145b4565b600060405180830381865afa158015612674573d6000803e3d6000fd5b505050506040513d6000823e3d601f19601f8201168201806040525081019061269d9190615621565b9050919050565b60fc60029054906101000a900461ffff1681565b60ff6020528060005260406000206000915090508060000160009054906101000a900460ff16908060000160019054906101000a900460ff16908060000160029054906101000a900460ff16908060000160039054906101000a900460ff16908060000160049054906101000a900460ff16908060000160059054906101000a900460ff16908060000160069054906101000a900460ff16908060000160079054906101000a900460ff16908060000160089054906101000a900460ff16908060000160099054906101000a900460ff1690508a565b61010260009054906101000a900473ffffffffffffffffffffffffffffffffffffffff1681565b60fd5481565b600060ce60008473ffffffffffffffffffffffffffffffffffffffff1673ffffffffffffffffffffffffffffffffffffffff16815260200190815260200160002060008373ffffffffffffffffffffffffffffffffffffffff1673ffffffffffffffffffffffffffffffffffffffff16815260200190815260200160002060009054906101000a900460ff16905092915050565b612857612b1b565b73ffffffffffffffffffffffffffffffffffffffff166128756120f0565b73ffffffffffffffffffffffffffffffffffffffff16146128cb576040517f08c379a00000000000000000000000000000000000000000000000000000000081526004016128c290614d0e565b60405180910390fd5b600073ffffffffffffffffffffffffffffffffffffffff168173ffffffffffffffffffffffffffffffffffffffff16141561293b576040517f08c379a0000000000000000000000000000000000000000000000000000000008152600401612932906156dc565b60405180910390fd5b61294481613116565b50565b61294f612b1b565b73ffffffffffffffffffffffffffffffffffffffff1661296d6120f0565b73ffffffffffffffffffffffffffffffffffffffff16146129c3576040517f08c379a00000000000000000000000000000000000000000000000000000000081526004016129ba90614d0e565b60405180910390fd5b600060fb60008373ffffffffffffffffffffffffffffffffffffffff1673ffffffffffffffffffffffffffffffffffffffff16815260200190815260200160002060006101000a81548160ff02191690831515021790555050565b61010360009054906101000a900473ffffffffffffffffffffffffffffffffffffffff1681565b60007f01ffc9a7000000000000000000000000000000000000000000000000000000007bffffffffffffffffffffffffffffffffffffffffffffffffffffffff1916827bffffffffffffffffffffffffffffffffffffffffffffffffffffffff1916149050919050565b60008073ffffffffffffffffffffffffffffffffffffffff1660cb600084815260200190815260200160002060009054906101000a900473ffffffffffffffffffffffffffffffffffffffff1673ffffffffffffffffffffffffffffffffffffffff1614159050919050565b600033905090565b8160cd600083815260200190815260200160002060006101000a81548173ffffffffffffffffffffffffffffffffffffffff021916908373ffffffffffffffffffffffffffffffffffffffff160217905550808273ffffffffffffffffffffffffffffffffffffffff16612b9683611c40565b73ffffffffffffffffffffffffffffffffffffffff167f8c5be1e5ebec7d5bd14f71427d1e84f3dd0314c0f7b2291e5b200ac8c7c3b92560405160405180910390a45050565b6000612be730613448565b15905090565b600060019054906101000a900460ff16612c3c576040517f08c379a0000000000000000000000000000000000000000000000000000000008152600401612c339061576e565b60405180910390fd5b612c4461345b565b612c4c6134ac565b565b600060019054906101000a900460ff16612c9d576040517f08c379a0000000000000000000000000000000000000000000000000000000008152600401612c949061576e565b60405180910390fd5b612ca561345b565b612cad61350d565b565b600060019054906101000a900460ff16612cfe576040517f08c379a0000000000000000000000000000000000000000000000000000000008152600401612cf59061576e565b60405180910390fd5b612d0661345b565b612d0e613579565b612d1882826135ca565b5050565b6000612d2782612aaf565b612d66576040517f08c379a0000000000000000000000000000000000000000000000000000000008152600401612d5d90615800565b60405180910390fd5b6000612d7183611c40565b90508073ffffffffffffffffffffffffffffffffffffffff168473ffffffffffffffffffffffffffffffffffffffff161480612de057508373ffffffffffffffffffffffffffffffffffffffff16612dc884610b46565b73ffffffffffffffffffffffffffffffffffffffff16145b80612df15750612df081856127bb565b5b91505092915050565b8273ffffffffffffffffffffffffffffffffffffffff16612e1a82611c40565b73ffffffffffffffffffffffffffffffffffffffff1614612e70576040517f08c379a0000000000000000000000000000000000000000000000000000000008152600401612e6790615892565b60405180910390fd5b600073ffffffffffffffffffffffffffffffffffffffff168273ffffffffffffffffffffffffffffffffffffffff161415612ee0576040517f08c379a0000000000000000000000000000000000000000000000000000000008152600401612ed790615924565b60405180910390fd5b612eeb83838361364b565b612ef6600082612b23565b600160cc60008573ffffffffffffffffffffffffffffffffffffffff1673ffffffffffffffffffffffffffffffffffffffff1681526020019081526020016000206000828254612f469190615944565b92505081905550600160cc60008473ffffffffffffffffffffffffffffffffffffffff1673ffffffffffffffffffffffffffffffffffffffff1681526020019081526020016000206000828254612f9d9190615978565b925050819055508160cb600083815260200190815260200160002060006101000a81548173ffffffffffffffffffffffffffffffffffffffff021916908373ffffffffffffffffffffffffffffffffffffffff160217905550808273ffffffffffffffffffffffffffffffffffffffff168473ffffffffffffffffffffffffffffffffffffffff167fddf252ad1be2c89b69c2b068fc378daa952ba7f163c4a11628f55a4df523b3ef60405160405180910390a4505050565b61305e61185b565b61309d576040517f08c379a000000000000000000000000000000000000000000000000000000000815260040161309490615a1a565b60405180910390fd5b6000606560006101000a81548160ff0219169083151502179055507f5db9ee0a495bf2e6ff9c91a7834c1ba4fdd244a5e8aa4e537bd38aeae4b073aa6130e1612b1b565b6040516130ee9190613e14565b60405180910390a1565b613112828260405180602001604052806000815250613650565b5050565b6000603360009054906101000a900473ffffffffffffffffffffffffffffffffffffffff16905081603360006101000a81548173ffffffffffffffffffffffffffffffffffffffff021916908373ffffffffffffffffffffffffffffffffffffffff1602179055508173ffffffffffffffffffffffffffffffffffffffff168173ffffffffffffffffffffffffffffffffffffffff167f8be0079c531659141344cd1fd0a4f28419497f9722a3daafe3b4186f6b6457e060405160405180910390a35050565b6131e461185b565b15613224576040517f08c379a000000000000000000000000000000000000000000000000000000000815260040161321b90614e9b565b60405180910390fd5b6001606560006101000a81548160ff0219169083151502179055507f62e78cea01bee320cd4e420270b5ea74000d11b0c9f74754ebdbfc544b05a258613268612b1b565b6040516132759190613e14565b60405180910390a1565b8173ffffffffffffffffffffffffffffffffffffffff168373ffffffffffffffffffffffffffffffffffffffff1614156132ee576040517f08c379a00000000000000000000000000000000000000000000000000000000081526004016132e590615a86565b60405180910390fd5b8060ce60008573ffffffffffffffffffffffffffffffffffffffff1673ffffffffffffffffffffffffffffffffffffffff16815260200190815260200160002060008473ffffffffffffffffffffffffffffffffffffffff1673ffffffffffffffffffffffffffffffffffffffff16815260200190815260200160002060006101000a81548160ff0219169083151502179055508173ffffffffffffffffffffffffffffffffffffffff168373ffffffffffffffffffffffffffffffffffffffff167f17307eab39ab6107e8899845ad3d59bd9653f200f220920489ca2b5937696c31836040516133df9190613c9a565b60405180910390a3505050565b6133f7848484612dfa565b613403848484846136ab565b613442576040517f08c379a000000000000000000000000000000000000000000000000000000000815260040161343990615b18565b60405180910390fd5b50505050565b600080823b905060008111915050919050565b600060019054906101000a900460ff166134aa576040517f08c379a00000000000000000000000000000000000000000000000000000000081526004016134a19061576e565b60405180910390fd5b565b600060019054906101000a900460ff166134fb576040517f08c379a00000000000000000000000000000000000000000000000000000000081526004016134f29061576e565b60405180910390fd5b61350b613506612b1b565b613116565b565b600060019054906101000a900460ff1661355c576040517f08c379a00000000000000000000000000000000000000000000000000000000081526004016135539061576e565b60405180910390fd5b6000606560006101000a81548160ff021916908315150217905550565b600060019054906101000a900460ff166135c8576040517f08c379a00000000000000000000000000000000000000000000000000000000081526004016135bf9061576e565b60405180910390fd5b565b600060019054906101000a900460ff16613619576040517f08c379a00000000000000000000000000000000000000000000000000000000081526004016136109061576e565b60405180910390fd5b8160c9908051906020019061362f929190613b43565b508060ca9080519060200190613646929190613b43565b505050565b505050565b61365a8383613833565b61366760008484846136ab565b6136a6576040517f08c379a000000000000000000000000000000000000000000000000000000000815260040161369d90615b18565b60405180910390fd5b505050565b60006136cc8473ffffffffffffffffffffffffffffffffffffffff16613448565b15613826578373ffffffffffffffffffffffffffffffffffffffff1663150b7a026136f5612b1b565b8786866040518563ffffffff1660e01b81526004016137179493929190615b8d565b6020604051808303816000875af192505050801561375357506040513d601f19601f820116820180604052508101906137509190615bee565b60015b6137d6573d8060008114613783576040519150601f19603f3d011682016040523d82523d6000602084013e613788565b606091505b506000815114156137ce576040517f08c379a00000000000000000000000000000000000000000000000000000000081526004016137c590615b18565b60405180910390fd5b805181602001fd5b63150b7a0260e01b7bffffffffffffffffffffffffffffffffffffffffffffffffffffffff1916817bffffffffffffffffffffffffffffffffffffffffffffffffffffffff19161491505061382b565b600190505b949350505050565b600073ffffffffffffffffffffffffffffffffffffffff168273ffffffffffffffffffffffffffffffffffffffff1614156138a3576040517f08c379a000000000000000000000000000000000000000000000000000000000815260040161389a90615c67565b60405180910390fd5b6138ac81612aaf565b156138ec576040517f08c379a00000000000000000000000000000000000000000000000000000000081526004016138e390615cd3565b60405180910390fd5b6138f86000838361364b565b600160cc60008473ffffffffffffffffffffffffffffffffffffffff1673ffffffffffffffffffffffffffffffffffffffff16815260200190815260200160002060008282546139489190615978565b925050819055508160cb600083815260200190815260200160002060006101000a81548173ffffffffffffffffffffffffffffffffffffffff021916908373ffffffffffffffffffffffffffffffffffffffff160217905550808273ffffffffffffffffffffffffffffffffffffffff16600073ffffffffffffffffffffffffffffffffffffffff167fddf252ad1be2c89b69c2b068fc378daa952ba7f163c4a11628f55a4df523b3ef60405160405180910390a45050565b50805460008255600f016010900490600052602060002090810190613a269190613bc9565b50565b82805482825590600052602060002090600f01601090048101928215613ac25791602002820160005b83821115613a9257835183826101000a81548161ffff021916908361ffff1602179055509260200192600201602081600101049283019260010302613a52565b8015613ac05782816101000a81549061ffff0219169055600201602081600101049283019260010302613a92565b505b509050613acf9190613bc9565b5090565b604051806101400160405280600015158152602001600060ff168152602001600060ff168152602001600060ff168152602001600060ff168152602001600060ff168152602001600060ff168152602001600060ff168152602001600060ff168152602001600060ff1681525090565b828054613b4f90614a48565b90600052602060002090601f016020900481019282613b715760008555613bb8565b82601f10613b8a57805160ff1916838001178555613bb8565b82800160010185558215613bb8579182015b82811115613bb7578251825591602001919060010190613b9c565b5b509050613bc59190613bc9565b5090565b5b80821115613be2576000816000905550600101613bca565b5090565b6000604051905090565b600080fd5b600080fd5b60007fffffffff0000000000000000000000000000000000000000000000000000000082169050919050565b613c2f81613bfa565b8114613c3a57600080fd5b50565b600081359050613c4c81613c26565b92915050565b600060208284031215613c6857613c67613bf0565b5b6000613c7684828501613c3d565b91505092915050565b60008115159050919050565b613c9481613c7f565b82525050565b6000602082019050613caf6000830184613c8b565b92915050565b600081519050919050565b600082825260208201905092915050565b60005b83811015613cef578082015181840152602081019050613cd4565b83811115613cfe576000848401525b50505050565b6000601f19601f8301169050919050565b6000613d2082613cb5565b613d2a8185613cc0565b9350613d3a818560208601613cd1565b613d4381613d04565b840191505092915050565b60006020820190508181036000830152613d688184613d15565b905092915050565b6000819050919050565b613d8381613d70565b8114613d8e57600080fd5b50565b600081359050613da081613d7a565b92915050565b600060208284031215613dbc57613dbb613bf0565b5b6000613dca84828501613d91565b91505092915050565b600073ffffffffffffffffffffffffffffffffffffffff82169050919050565b6000613dfe82613dd3565b9050919050565b613e0e81613df3565b82525050565b6000602082019050613e296000830184613e05565b92915050565b600061ffff82169050919050565b613e4681613e2f565b82525050565b6000602082019050613e616000830184613e3d565b92915050565b613e7081613df3565b8114613e7b57600080fd5b50565b600081359050613e8d81613e67565b92915050565b60008060408385031215613eaa57613ea9613bf0565b5b6000613eb885828601613e7e565b9250506020613ec985828601613d91565b9150509250929050565b600080600080600060a08688031215613eef57613eee613bf0565b5b6000613efd88828901613e7e565b9550506020613f0e88828901613e7e565b9450506040613f1f88828901613e7e565b9350506060613f3088828901613e7e565b9250506080613f4188828901613e7e565b9150509295509295909350565b600080600060608486031215613f6757613f66613bf0565b5b6000613f7586828701613e7e565b9350506020613f8686828701613e7e565b9250506040613f9786828701613d91565b9150509250925092565b6000819050919050565b613fb481613fa1565b8114613fbf57600080fd5b50565b600081359050613fd181613fab565b92915050565b60008060408385031215613fee57613fed613bf0565b5b6000613ffc85828601613fc2565b925050602061400d85828601613d91565b9150509250929050565b60006020828403121561402d5761402c613bf0565b5b600061403b84828501613e7e565b91505092915050565b600061404f82613dd3565b9050919050565b61405f81614044565b82525050565b600060208201905061407a6000830184614056565b92915050565b600080fd5b7f4e487b7100000000000000000000000000000000000000000000000000000000600052604160045260246000fd5b6140bd82613d04565b810181811067ffffffffffffffff821117156140dc576140db614085565b5b80604052505050565b60006140ef613be6565b90506140fb82826140b4565b919050565b600060ff82169050919050565b61411681614100565b811461412157600080fd5b50565b6000813590506141338161410d565b92915050565b61414281613c7f565b811461414d57600080fd5b50565b60008135905061415f81614139565b92915050565b60006080828403121561417b5761417a614080565b5b61418560806140e5565b9050600061419584828501613fc2565b60008301525060206141a984828501613e7e565b60208301525060406141bd84828501614124565b60408301525060606141d184828501614150565b60608301525092915050565b600080fd5b600067ffffffffffffffff8211156141fd576141fc614085565b5b602082029050602081019050919050565b600080fd5b6000610140828403121561422a57614229614080565b5b6142356101406140e5565b9050600061424584828501614150565b600083015250602061425984828501614124565b602083015250604061426d84828501614124565b604083015250606061428184828501614124565b606083015250608061429584828501614124565b60808301525060a06142a984828501614124565b60a08301525060c06142bd84828501614124565b60c08301525060e06142d184828501614124565b60e0830152506101006142e684828501614124565b610100830152506101206142fc84828501614124565b6101208301525092915050565b600061431c614317846141e2565b6140e5565b90508083825260208201905061014084028301858111156143405761433f61420e565b5b835b8181101561436a57806143558882614213565b84526020840193505061014081019050614342565b5050509392505050565b600082601f830112614389576143886141dd565b5b8135614399848260208601614309565b91505092915050565b60008060a083850312156143b9576143b8613bf0565b5b60006143c785828601614165565b925050608083013567ffffffffffffffff8111156143e8576143e7613bf5565b5b6143f485828601614374565b9150509250929050565b6000819050919050565b600061442361441e61441984613dd3565b6143fe565b613dd3565b9050919050565b600061443582614408565b9050919050565b60006144478261442a565b9050919050565b6144578161443c565b82525050565b6000602082019050614472600083018461444e565b92915050565b6000806040838503121561448f5761448e613bf0565b5b600061449d85828601614124565b92505060206144ae85828601614150565b9150509250929050565b60008160000b9050919050565b6144ce816144b8565b81146144d957600080fd5b50565b6000813590506144eb816144c5565b92915050565b6000806000806080858703121561450b5761450a613bf0565b5b600061451987828801613d91565b945050602061452a878288016144dc565b935050604061453b878288016144dc565b925050606061454c87828801613d91565b91505092959194509250565b61456181614100565b82525050565b600060608201905061457c6000830186614558565b6145896020830185614558565b818103604083015261459b8184613d15565b9050949350505050565b6145ae81613d70565b82525050565b60006020820190506145c960008301846145a5565b92915050565b60006145da8261442a565b9050919050565b6145ea816145cf565b82525050565b600060208201905061460560008301846145e1565b92915050565b61461481613c7f565b82525050565b61462381614100565b82525050565b61014082016000820151614640600085018261460b565b506020820151614653602085018261461a565b506040820151614666604085018261461a565b506060820151614679606085018261461a565b50608082015161468c608085018261461a565b5060a082015161469f60a085018261461a565b5060c08201516146b260c085018261461a565b5060e08201516146c560e085018261461a565b506101008201516146da61010085018261461a565b506101208201516146ef61012085018261461a565b50505050565b60006101408201905061470b6000830184614629565b92915050565b6000806040838503121561472857614727613bf0565b5b600061473685828601613e7e565b925050602061474785828601614150565b9150509250929050565b600080fd5b600067ffffffffffffffff82111561477157614770614085565b5b61477a82613d04565b9050602081019050919050565b82818337600083830152505050565b60006147a96147a484614756565b6140e5565b9050828152602081018484840111156147c5576147c4614751565b5b6147d0848285614787565b509392505050565b600082601f8301126147ed576147ec6141dd565b5b81356147fd848260208601614796565b91505092915050565b600080600080608085870312156148205761481f613bf0565b5b600061482e87828801613e7e565b945050602061483f87828801613e7e565b935050604061485087828801613d91565b925050606085013567ffffffffffffffff81111561487157614870613bf5565b5b61487d878288016147d8565b91505092959194509250565b60006148948261442a565b9050919050565b6148a481614889565b82525050565b60006020820190506148bf600083018461489b565b92915050565b6000610140820190506148db600083018d613c8b565b6148e8602083018c614558565b6148f5604083018b614558565b614902606083018a614558565b61490f6080830189614558565b61491c60a0830188614558565b61492960c0830187614558565b61493660e0830186614558565b614944610100830185614558565b614952610120830184614558565b9b9a5050505050505050505050565b600061496c8261442a565b9050919050565b61497c81614961565b82525050565b60006020820190506149976000830184614973565b92915050565b600080604083850312156149b4576149b3613bf0565b5b60006149c285828601613e7e565b92505060206149d385828601613e7e565b9150509250929050565b60006149e88261442a565b9050919050565b6149f8816149dd565b82525050565b6000602082019050614a1360008301846149ef565b92915050565b7f4e487b7100000000000000000000000000000000000000000000000000000000600052602260045260246000fd5b60006002820490506001821680614a6057607f821691505b60208210811415614a7457614a73614a19565b5b50919050565b7f4552433732313a20617070726f76656420717565727920666f72206e6f6e657860008201527f697374656e7420746f6b656e0000000000000000000000000000000000000000602082015250565b6000614ad6602c83613cc0565b9150614ae182614a7a565b604082019050919050565b60006020820190508181036000830152614b0581614ac9565b9050919050565b7f4552433732313a20617070726f76616c20746f2063757272656e74206f776e6560008201527f7200000000000000000000000000000000000000000000000000000000000000602082015250565b6000614b68602183613cc0565b9150614b7382614b0c565b604082019050919050565b60006020820190508181036000830152614b9781614b5b565b9050919050565b7f4552433732313a20617070726f76652063616c6c6572206973206e6f74206f7760008201527f6e6572206e6f7220617070726f76656420666f7220616c6c0000000000000000602082015250565b6000614bfa603883613cc0565b9150614c0582614b9e565b604082019050919050565b60006020820190508181036000830152614c2981614bed565b9050919050565b7f496e697469616c697a61626c653a20636f6e747261637420697320616c72656160008201527f647920696e697469616c697a6564000000000000000000000000000000000000602082015250565b6000614c8c602e83613cc0565b9150614c9782614c30565b604082019050919050565b60006020820190508181036000830152614cbb81614c7f565b9050919050565b7f4f776e61626c653a2063616c6c6572206973206e6f7420746865206f776e6572600082015250565b6000614cf8602083613cc0565b9150614d0382614cc2565b602082019050919050565b60006020820190508181036000830152614d2781614ceb565b9050919050565b7f4e487b7100000000000000000000000000000000000000000000000000000000600052601260045260246000fd5b7f4e487b7100000000000000000000000000000000000000000000000000000000600052601160045260246000fd5b6000614d9782613d70565b9150614da283613d70565b925082614db257614db1614d2e565b5b828204905092915050565b7f4552433732313a207472616e736665722063616c6c6572206973206e6f74206f60008201527f776e6572206e6f7220617070726f766564000000000000000000000000000000602082015250565b6000614e19603183613cc0565b9150614e2482614dbd565b604082019050919050565b60006020820190508181036000830152614e4881614e0c565b9050919050565b7f5061757361626c653a2070617573656400000000000000000000000000000000600082015250565b6000614e85601083613cc0565b9150614e9082614e4f565b602082019050919050565b60006020820190508181036000830152614eb481614e78565b9050919050565b7f4f6e6c7920746865204d696e742063616e2066756c66696c6c00000000000000600082015250565b6000614ef1601983613cc0565b9150614efc82614ebb565b602082019050919050565b60006020820190508181036000830152614f2081614ee4565b9050919050565b7f4d696e742072657175657374206e6f7420666f756e6400000000000000000000600082015250565b6000614f5d601683613cc0565b9150614f6882614f27565b602082019050919050565b60006020820190508181036000830152614f8c81614f50565b9050919050565b7f4e487b7100000000000000000000000000000000000000000000000000000000600052603260045260246000fd5b6000614fcd82613e2f565b915061ffff821415614fe257614fe1614d5d565b5b600182019050919050565b6000614ff882613d70565b91507fffffffffffffffffffffffffffffffffffffffffffffffffffffffffffffffff82141561502b5761502a614d5d565b5b600182019050919050565b600081519050919050565b600082825260208201905092915050565b6000819050602082019050919050565b61506b81613e2f565b82525050565b600061507d8383615062565b60208301905092915050565b6000602082019050919050565b60006150a182615036565b6150ab8185615041565b93506150b683615052565b8060005b838110156150e75781516150ce8882615071565b97506150d983615089565b9250506001810190506150ba565b5085935050505092915050565b60006040820190506151096000830185613e05565b818103602083015261511b8184615096565b90509392505050565b7f454f41206f6e6c79000000000000000000000000000000000000000000000000600082015250565b600061515a600883613cc0565b915061516582615124565b602082019050919050565b600060208201905081810360008301526151898161514d565b9050919050565b600060c0820190506151a56000830189613e05565b6151b26020830188614558565b6151bf60408301876145a5565b6151cc6060830186613e3d565b6151d960808301856145a5565b6151e660a08301846145a5565b979650505050505050565b60006060820190506152066000830186613e05565b6152136020830185614558565b6152206040830184613c8b565b949350505050565b60008151905061523781613fab565b92915050565b60006020828403121561525357615252613bf0565b5b600061526184828501615228565b91505092915050565b7f4552433732313a206f776e657220717565727920666f72206e6f6e657869737460008201527f656e7420746f6b656e0000000000000000000000000000000000000000000000602082015250565b60006152c6602983613cc0565b91506152d18261526a565b604082019050919050565b600060208201905081810360008301526152f5816152b9565b9050919050565b7f4f6e6c7920636f6e74726f6c6c6572732063616e206578656375746500000000600082015250565b6000615332601c83613cc0565b915061533d826152fc565b602082019050919050565b6000602082019050818103600083015261536181615325565b9050919050565b615371816144b8565b82525050565b600060c08201905061538c6000830189613c8b565b6153996020830188614558565b6153a66040830187614558565b6153b36060830186615368565b6153c06080830185615368565b6153cd60a08301846145a5565b979650505050505050565b6000815190506153e78161410d565b92915050565b600067ffffffffffffffff82111561540857615407614085565b5b61541182613d04565b9050602081019050919050565b600061543161542c846153ed565b6140e5565b90508281526020810184848401111561544d5761544c614751565b5b615458848285613cd1565b509392505050565b600082601f830112615475576154746141dd565b5b815161548584826020860161541e565b91505092915050565b6000806000606084860312156154a7576154a6613bf0565b5b60006154b5868287016153d8565b93505060206154c6868287016153d8565b925050604084015167ffffffffffffffff8111156154e7576154e6613bf5565b5b6154f386828701615460565b9150509250925092565b7f4552433732313a2062616c616e636520717565727920666f7220746865207a6560008201527f726f206164647265737300000000000000000000000000000000000000000000602082015250565b6000615559602a83613cc0565b9150615564826154fd565b604082019050919050565b600060208201905081810360008301526155888161554c565b9050919050565b7f4552433732314d657461646174613a2055524920717565727920666f72206e6f60008201527f6e2d6578697374656e7420746f6b656e00000000000000000000000000000000602082015250565b60006155eb603083613cc0565b91506155f68261558f565b604082019050919050565b6000602082019050818103600083015261561a816155de565b9050919050565b60006020828403121561563757615636613bf0565b5b600082015167ffffffffffffffff81111561565557615654613bf5565b5b61566184828501615460565b91505092915050565b7f4f776e61626c653a206e6577206f776e657220697320746865207a65726f206160008201527f6464726573730000000000000000000000000000000000000000000000000000602082015250565b60006156c6602683613cc0565b91506156d18261566a565b604082019050919050565b600060208201905081810360008301526156f5816156b9565b9050919050565b7f496e697469616c697a61626c653a20636f6e7472616374206973206e6f74206960008201527f6e697469616c697a696e67000000000000000000000000000000000000000000602082015250565b6000615758602b83613cc0565b9150615763826156fc565b604082019050919050565b600060208201905081810360008301526157878161574b565b9050919050565b7f4552433732313a206f70657261746f7220717565727920666f72206e6f6e657860008201527f697374656e7420746f6b656e0000000000000000000000000000000000000000602082015250565b60006157ea602c83613cc0565b91506157f58261578e565b604082019050919050565b60006020820190508181036000830152615819816157dd565b9050919050565b7f4552433732313a207472616e73666572206f6620746f6b656e2074686174206960008201527f73206e6f74206f776e0000000000000000000000000000000000000000000000602082015250565b600061587c602983613cc0565b915061588782615820565b604082019050919050565b600060208201905081810360008301526158ab8161586f565b9050919050565b7f4552433732313a207472616e7366657220746f20746865207a65726f2061646460008201527f7265737300000000000000000000000000000000000000000000000000000000602082015250565b600061590e602483613cc0565b9150615919826158b2565b604082019050919050565b6000602082019050818103600083015261593d81615901565b9050919050565b600061594f82613d70565b915061595a83613d70565b92508282101561596d5761596c614d5d565b5b828203905092915050565b600061598382613d70565b915061598e83613d70565b9250827fffffffffffffffffffffffffffffffffffffffffffffffffffffffffffffffff038211156159c3576159c2614d5d565b5b828201905092915050565b7f5061757361626c653a206e6f7420706175736564000000000000000000000000600082015250565b6000615a04601483613cc0565b9150615a0f826159ce565b602082019050919050565b60006020820190508181036000830152615a33816159f7565b9050919050565b7f4552433732313a20617070726f766520746f2063616c6c657200000000000000600082015250565b6000615a70601983613cc0565b9150615a7b82615a3a565b602082019050919050565b60006020820190508181036000830152615a9f81615a63565b9050919050565b7f4552433732313a207472616e7366657220746f206e6f6e20455243373231526560008201527f63656976657220696d706c656d656e7465720000000000000000000000000000602082015250565b6000615b02603283613cc0565b9150615b0d82615aa6565b604082019050919050565b60006020820190508181036000830152615b3181615af5565b9050919050565b600081519050919050565b600082825260208201905092915050565b6000615b5f82615b38565b615b698185615b43565b9350615b79818560208601613cd1565b615b8281613d04565b840191505092915050565b6000608082019050615ba26000830187613e05565b615baf6020830186613e05565b615bbc60408301856145a5565b8181036060830152615bce8184615b54565b905095945050505050565b600081519050615be881613c26565b92915050565b600060208284031215615c0457615c03613bf0565b5b6000615c1284828501615bd9565b91505092915050565b7f4552433732313a206d696e7420746f20746865207a65726f2061646472657373600082015250565b6000615c51602083613cc0565b9150615c5c82615c1b565b602082019050919050565b60006020820190508181036000830152615c8081615c44565b9050919050565b7f4552433732313a20746f6b656e20616c7265616479206d696e74656400000000600082015250565b6000615cbd601c83613cc0565b9150615cc882615c87565b602082019050919050565b60006020820190508181036000830152615cec81615cb0565b905091905056fea264697066735822122073b6414aa5dbd00fe94bed642aba32cf0367f6b955138400e44a48f004c7c1ac64736f6c634300080a0033",
  "immutableReferences": {},
  "source": "// SPDX-License-Identifier: MIT\n\npragma solidity ^0.8.0;\n\nimport \"@openzeppelin/contracts-upgradeable/proxy/utils/Initializable.sol\";\nimport \"@openzeppelin/contracts-upgradeable/token/ERC721/ERC721Upgradeable.sol\";\nimport \"./GenericPausable.sol\";\nimport \"./ControllableUpgradeable.sol\";\nimport \"./ICharacter.sol\";\nimport \"./IMint.sol\";\nimport \"./ITraits.sol\";\nimport \"./IProperties.sol\";\nimport \"./IVenue.sol\";\nimport \"./IPaywall.sol\";\n\ncontract Character is ICharacter, Initializable, OwnableUpgradeable, GenericPausable, ERC721Upgradeable, ControllableUpgradeable {\n  uint16 public minted;\n  uint16 public numChefs;\n  uint16 public numRats;\n  uint256 public maxTokens; // Max number of tokens that can be minted\n  uint256 gen0Tokens; // Number of tokens that are purchased with native token\n\n  mapping(uint256 => CharacterStruct) public tokenTraits; // Mapping from tokenId to a struct containing the token's traits\n  mapping(bytes32 => uint16[]) public mintRequests;\n\n  IMint public theMint; // Reference to Mint\n  ITraits public traits; // Reference to Traits\n  IProperties public properties; // Reference to Properties\n  IVenue public kitchen;\n  IPaywall public paywall;\n  address payable public dao;\n\n  function initialize(\n    address _paywall,\n    address _mint,\n    address _traits,\n    address _properties,\n    address _dao\n  ) external initializer {\n    __Ownable_init();\n    __Pausable_init();\n    __ERC721_init(\"RatAlert Characters\", \"RATCAST\");\n\n    paywall = IPaywall(_paywall);\n    theMint = IMint(_mint);\n    traits = ITraits(_traits);\n    properties = IProperties(_properties);\n    dao = payable(_dao);\n    minted = 0;\n    numChefs = 0;\n    numRats = 0;\n  }\n\n  /**\n   * Allows DAO to update game parameters\n   */\n  function configure(uint256 _maxTokens) external onlyOwner {\n    maxTokens = _maxTokens;\n    gen0Tokens = _maxTokens / 5;\n  }\n\n  /**\n   * ChainLink VRF request: Mints a new ERC721 token: 90% chefs, 10% rats\n   * The first 20% are purchased with native token, the remaining cost $FFOOD\n   * @param amount Number of tokens to mint\n   * @param stake Number of tokens to mint\n   */\n  function mint(uint8 amount, bool stake) external payable whenNotPaused {\n    require(tx.origin == _msgSender(), \"EOA only\");\n    paywall.handle(_msgSender(), amount, msg.value, minted, maxTokens, gen0Tokens);\n    if (msg.value > 0) {\n      dao.transfer(msg.value); // Transfer to Gnosis Safe\n    }\n    bytes32 requestId = theMint.requestRandomNumber(_msgSender(), amount, stake);\n    mintRequests[requestId] = new uint16[](amount);\n    for (uint i = 0; i < amount; i++) {\n      minted++;\n      mintRequests[requestId][i] = minted;\n    }\n  }\n\n  /**\n   * ChainLink VRF callback for mint()\n   * @param v - VRF struct for the corresponding request\n   * @param tokens - List of characters created by the Mint\n   */\n  function fulfillMint(IMint.VRFStruct memory v, CharacterStruct[] memory tokens) external whenNotPaused {\n    require(msg.sender == address(theMint), \"Only the Mint can fulfill\");\n    require(mintRequests[v.requestId].length > 0, \"Mint request not found\");\n    uint16[] memory tokenIds = mintRequests[v.requestId];\n    delete mintRequests[v.requestId];\n    for (uint i = 0; i < tokenIds.length; i++) {\n      _safeMint(v.stake ? address(kitchen) : v.sender, tokenIds[i]);\n      tokenTraits[tokenIds[i]] = tokens[i];\n      tokens[i].isChef ? numChefs++ : numRats++;\n    }\n    if (v.stake) kitchen.stakeMany(v.sender, tokenIds);\n  }\n\n  function updateCharacter(uint256 tokenId, int8 efficiencyIncrement, int8 toleranceIncrement, uint256 randomVal) public onlyController returns(uint8 efficiencyValue, uint8 toleranceValue, string memory eventName) {\n    bool isChef = tokenTraits[tokenId].isChef;\n    uint8 currentEfficiency = tokenTraits[tokenId].efficiency;\n    uint8 currentTolerance = tokenTraits[tokenId].tolerance;\n    (efficiencyValue, toleranceValue, eventName) = properties.getEventUpdates(isChef, currentEfficiency, currentTolerance, efficiencyIncrement, toleranceIncrement, randomVal);\n    tokenTraits[tokenId].efficiency = efficiencyValue;\n    tokenTraits[tokenId].tolerance = toleranceValue;\n  }\n\n  function tokenURI(uint256 tokenId) public view override returns (string memory) {\n    require(_exists(tokenId), \"ERC721Metadata: URI query for non-existent token\");\n    return traits.tokenURI(tokenId);\n  }\n\n  function getTokenTraits(uint256 tokenId) external view override returns (CharacterStruct memory) {\n    require(_exists(tokenId), \"ERC721Metadata: URI query for non-existent token\");\n    return tokenTraits[tokenId];\n  }\n\n  function getGen0Tokens() external view override returns (uint256) {\n    return gen0Tokens;\n  }\n\n  /**\n   * Sets the kitchen address to optionally stake newly minted characters in\n   * @param _kitchen - The address of the Kitchen\n   */\n  function setKitchen(address _kitchen) external onlyOwner {\n    kitchen = IVenue(_kitchen);\n  }\n}\n",
  "sourcePath": "/Users/chris/workspace/ratalert/ratalert-contracts/contracts/Character.sol",
  "compiler": {
    "name": "solc",
    "version": "0.8.10+commit.fc410830.Emscripten.clang"
  },
  "schemaVersion": "3.4.5",
  "updatedAt": "2022-03-16T22:37:18.148Z",
  "networkType": "ethereum",
  "devdoc": {
    "kind": "dev",
    "methods": {
      "addController(address)": {
        "params": {
          "_controller": "- The address to enable"
        }
      },
      "approve(address,uint256)": {
        "details": "See {IERC721-approve}."
      },
      "balanceOf(address)": {
        "details": "See {IERC721-balanceOf}."
      },
      "controller(address)": {
        "params": {
          "_controller": "- The address to check"
        }
      },
      "fulfillMint((bytes32,address,uint8,bool),(bool,uint8,uint8,uint8,uint8,uint8,uint8,uint8,uint8,uint8)[])": {
        "params": {
          "tokens": "- List of characters created by the Mint",
          "v": "- VRF struct for the corresponding request"
        }
      },
      "getApproved(uint256)": {
        "details": "See {IERC721-getApproved}."
      },
      "isApprovedForAll(address,address)": {
        "details": "See {IERC721-isApprovedForAll}."
      },
      "mint(uint8,bool)": {
        "params": {
          "amount": "Number of tokens to mint",
          "stake": "Number of tokens to mint"
        }
      },
      "name()": {
        "details": "See {IERC721Metadata-name}."
      },
      "owner()": {
        "details": "Returns the address of the current owner."
      },
      "ownerOf(uint256)": {
        "details": "See {IERC721-ownerOf}."
      },
      "paused()": {
        "details": "Returns true if the contract is paused, and false otherwise."
      },
      "removeController(address)": {
        "params": {
          "_controller": "- The address to disable"
        }
      },
      "renounceOwnership()": {
        "details": "Leaves the contract without owner. It will not be possible to call `onlyOwner` functions anymore. Can only be called by the current owner. NOTE: Renouncing ownership will leave the contract without an owner, thereby removing any functionality that is only available to the owner."
      },
      "safeTransferFrom(address,address,uint256)": {
        "details": "See {IERC721-safeTransferFrom}."
      },
      "safeTransferFrom(address,address,uint256,bytes)": {
        "details": "See {IERC721-safeTransferFrom}."
      },
      "setApprovalForAll(address,bool)": {
        "details": "See {IERC721-setApprovalForAll}."
      },
      "setKitchen(address)": {
        "params": {
          "_kitchen": "- The address of the Kitchen"
        }
      },
      "supportsInterface(bytes4)": {
        "details": "See {IERC165-supportsInterface}."
      },
      "symbol()": {
        "details": "See {IERC721Metadata-symbol}."
      },
      "tokenURI(uint256)": {
        "details": "See {IERC721Metadata-tokenURI}."
      },
      "transferFrom(address,address,uint256)": {
        "details": "See {IERC721-transferFrom}."
      },
      "transferOwnership(address)": {
        "details": "Transfers ownership of the contract to a new account (`newOwner`). Can only be called by the current owner."
      }
    },
    "version": 1
  },
  "userdoc": {
    "kind": "user",
    "methods": {
      "addController(address)": {
        "notice": "Enables an address to mint / burn"
      },
      "configure(uint256)": {
        "notice": "Allows DAO to update game parameters"
      },
      "controller(address)": {
        "notice": "Gets controller status by address"
      },
      "fulfillMint((bytes32,address,uint8,bool),(bool,uint8,uint8,uint8,uint8,uint8,uint8,uint8,uint8,uint8)[])": {
        "notice": "ChainLink VRF callback for mint()"
      },
      "mint(uint8,bool)": {
        "notice": "ChainLink VRF request: Mints a new ERC721 token: 90% chefs, 10% rats The first 20% are purchased with native token, the remaining cost $FFOOD"
      },
      "removeController(address)": {
        "notice": "Disables an address from minting / burning"
      },
      "setKitchen(address)": {
        "notice": "Sets the kitchen address to optionally stake newly minted characters in"
      }
    },
    "version": 1
  }
}