{
  "contractName": "Character",
  "abi": [
    {
      "anonymous": false,
      "inputs": [
        {
          "indexed": true,
          "internalType": "address",
          "name": "owner",
          "type": "address"
        },
        {
          "indexed": true,
          "internalType": "address",
          "name": "approved",
          "type": "address"
        },
        {
          "indexed": true,
          "internalType": "uint256",
          "name": "tokenId",
          "type": "uint256"
        }
      ],
      "name": "Approval",
      "type": "event"
    },
    {
      "anonymous": false,
      "inputs": [
        {
          "indexed": true,
          "internalType": "address",
          "name": "owner",
          "type": "address"
        },
        {
          "indexed": true,
          "internalType": "address",
          "name": "operator",
          "type": "address"
        },
        {
          "indexed": false,
          "internalType": "bool",
          "name": "approved",
          "type": "bool"
        }
      ],
      "name": "ApprovalForAll",
      "type": "event"
    },
    {
      "anonymous": false,
      "inputs": [
        {
          "indexed": true,
          "internalType": "address",
          "name": "previousOwner",
          "type": "address"
        },
        {
          "indexed": true,
          "internalType": "address",
          "name": "newOwner",
          "type": "address"
        }
      ],
      "name": "OwnershipTransferred",
      "type": "event"
    },
    {
      "anonymous": false,
      "inputs": [
        {
          "indexed": false,
          "internalType": "address",
          "name": "account",
          "type": "address"
        }
      ],
      "name": "Paused",
      "type": "event"
    },
    {
      "anonymous": false,
      "inputs": [
        {
          "indexed": true,
          "internalType": "address",
          "name": "from",
          "type": "address"
        },
        {
          "indexed": true,
          "internalType": "address",
          "name": "to",
          "type": "address"
        },
        {
          "indexed": true,
          "internalType": "uint256",
          "name": "tokenId",
          "type": "uint256"
        }
      ],
      "name": "Transfer",
      "type": "event"
    },
    {
      "anonymous": false,
      "inputs": [
        {
          "indexed": false,
          "internalType": "address",
          "name": "account",
          "type": "address"
        }
      ],
      "name": "Unpaused",
      "type": "event"
    },
    {
      "inputs": [
        {
          "internalType": "address[]",
          "name": "_controllers",
          "type": "address[]"
        }
      ],
      "name": "addController",
      "outputs": [],
      "stateMutability": "nonpayable",
      "type": "function"
    },
    {
      "inputs": [
        {
          "internalType": "address",
          "name": "to",
          "type": "address"
        },
        {
          "internalType": "uint256",
          "name": "tokenId",
          "type": "uint256"
        }
      ],
      "name": "approve",
      "outputs": [],
      "stateMutability": "nonpayable",
      "type": "function"
    },
    {
      "inputs": [
        {
          "internalType": "address",
          "name": "owner",
          "type": "address"
        }
      ],
      "name": "balanceOf",
      "outputs": [
        {
          "internalType": "uint256",
          "name": "",
          "type": "uint256"
        }
      ],
      "stateMutability": "view",
      "type": "function",
      "constant": true
    },
    {
      "inputs": [
        {
          "internalType": "address",
          "name": "_controller",
          "type": "address"
        }
      ],
      "name": "controller",
      "outputs": [
        {
          "internalType": "bool",
          "name": "",
          "type": "bool"
        }
      ],
      "stateMutability": "view",
      "type": "function",
      "constant": true
    },
    {
      "inputs": [],
      "name": "dao",
      "outputs": [
        {
          "internalType": "address payable",
          "name": "",
          "type": "address"
        }
      ],
      "stateMutability": "view",
      "type": "function",
      "constant": true
    },
    {
      "inputs": [
        {
          "internalType": "uint256",
          "name": "tokenId",
          "type": "uint256"
        }
      ],
      "name": "getApproved",
      "outputs": [
        {
          "internalType": "address",
          "name": "",
          "type": "address"
        }
      ],
      "stateMutability": "view",
      "type": "function",
      "constant": true
    },
    {
      "inputs": [
        {
          "internalType": "address",
          "name": "owner",
          "type": "address"
        },
        {
          "internalType": "address",
          "name": "operator",
          "type": "address"
        }
      ],
      "name": "isApprovedForAll",
      "outputs": [
        {
          "internalType": "bool",
          "name": "",
          "type": "bool"
        }
      ],
      "stateMutability": "view",
      "type": "function",
      "constant": true
    },
    {
      "inputs": [],
      "name": "kitchen",
      "outputs": [
        {
          "internalType": "contract IVenue",
          "name": "",
          "type": "address"
        }
      ],
      "stateMutability": "view",
      "type": "function",
      "constant": true
    },
    {
      "inputs": [],
      "name": "maxTokens",
      "outputs": [
        {
          "internalType": "uint256",
          "name": "",
          "type": "uint256"
        }
      ],
      "stateMutability": "view",
      "type": "function",
      "constant": true
    },
    {
      "inputs": [],
      "name": "minted",
      "outputs": [
        {
          "internalType": "uint16",
          "name": "",
          "type": "uint16"
        }
      ],
      "stateMutability": "view",
      "type": "function",
      "constant": true
    },
    {
      "inputs": [],
      "name": "name",
      "outputs": [
        {
          "internalType": "string",
          "name": "",
          "type": "string"
        }
      ],
      "stateMutability": "view",
      "type": "function",
      "constant": true
    },
    {
      "inputs": [],
      "name": "numChefs",
      "outputs": [
        {
          "internalType": "uint16",
          "name": "",
          "type": "uint16"
        }
      ],
      "stateMutability": "view",
      "type": "function",
      "constant": true
    },
    {
      "inputs": [],
      "name": "numRats",
      "outputs": [
        {
          "internalType": "uint16",
          "name": "",
          "type": "uint16"
        }
      ],
      "stateMutability": "view",
      "type": "function",
      "constant": true
    },
    {
      "inputs": [],
      "name": "owner",
      "outputs": [
        {
          "internalType": "address",
          "name": "",
          "type": "address"
        }
      ],
      "stateMutability": "view",
      "type": "function",
      "constant": true
    },
    {
      "inputs": [
        {
          "internalType": "uint256",
          "name": "tokenId",
          "type": "uint256"
        }
      ],
      "name": "ownerOf",
      "outputs": [
        {
          "internalType": "address",
          "name": "",
          "type": "address"
        }
      ],
      "stateMutability": "view",
      "type": "function",
      "constant": true
    },
    {
      "inputs": [],
      "name": "paid",
      "outputs": [
        {
          "internalType": "uint16",
          "name": "",
          "type": "uint16"
        }
      ],
      "stateMutability": "view",
      "type": "function",
      "constant": true
    },
    {
      "inputs": [],
      "name": "pause",
      "outputs": [],
      "stateMutability": "nonpayable",
      "type": "function"
    },
    {
      "inputs": [],
      "name": "paused",
      "outputs": [
        {
          "internalType": "bool",
          "name": "",
          "type": "bool"
        }
      ],
      "stateMutability": "view",
      "type": "function",
      "constant": true
    },
    {
      "inputs": [],
      "name": "paywall",
      "outputs": [
        {
          "internalType": "contract IPaywall",
          "name": "",
          "type": "address"
        }
      ],
      "stateMutability": "view",
      "type": "function",
      "constant": true
    },
    {
      "inputs": [],
      "name": "properties",
      "outputs": [
        {
          "internalType": "contract IProperties",
          "name": "",
          "type": "address"
        }
      ],
      "stateMutability": "view",
      "type": "function",
      "constant": true
    },
    {
      "inputs": [
        {
          "internalType": "address[]",
          "name": "_controllers",
          "type": "address[]"
        }
      ],
      "name": "removeController",
      "outputs": [],
      "stateMutability": "nonpayable",
      "type": "function"
    },
    {
      "inputs": [],
      "name": "renounceOwnership",
      "outputs": [],
      "stateMutability": "nonpayable",
      "type": "function"
    },
    {
      "inputs": [
        {
          "internalType": "address",
          "name": "from",
          "type": "address"
        },
        {
          "internalType": "address",
          "name": "to",
          "type": "address"
        },
        {
          "internalType": "uint256",
          "name": "tokenId",
          "type": "uint256"
        }
      ],
      "name": "safeTransferFrom",
      "outputs": [],
      "stateMutability": "nonpayable",
      "type": "function"
    },
    {
      "inputs": [
        {
          "internalType": "address",
          "name": "from",
          "type": "address"
        },
        {
          "internalType": "address",
          "name": "to",
          "type": "address"
        },
        {
          "internalType": "uint256",
          "name": "tokenId",
          "type": "uint256"
        },
        {
          "internalType": "bytes",
          "name": "_data",
          "type": "bytes"
        }
      ],
      "name": "safeTransferFrom",
      "outputs": [],
      "stateMutability": "nonpayable",
      "type": "function"
    },
    {
      "inputs": [
        {
          "internalType": "address",
          "name": "operator",
          "type": "address"
        },
        {
          "internalType": "bool",
          "name": "approved",
          "type": "bool"
        }
      ],
      "name": "setApprovalForAll",
      "outputs": [],
      "stateMutability": "nonpayable",
      "type": "function"
    },
    {
      "inputs": [
        {
          "internalType": "bytes4",
          "name": "interfaceId",
          "type": "bytes4"
        }
      ],
      "name": "supportsInterface",
      "outputs": [
        {
          "internalType": "bool",
          "name": "",
          "type": "bool"
        }
      ],
      "stateMutability": "view",
      "type": "function",
      "constant": true
    },
    {
      "inputs": [],
      "name": "symbol",
      "outputs": [
        {
          "internalType": "string",
          "name": "",
          "type": "string"
        }
      ],
      "stateMutability": "view",
      "type": "function",
      "constant": true
    },
    {
      "inputs": [],
      "name": "theMint",
      "outputs": [
        {
          "internalType": "contract IMint",
          "name": "",
          "type": "address"
        }
      ],
      "stateMutability": "view",
      "type": "function",
      "constant": true
    },
    {
      "inputs": [
        {
          "internalType": "uint256",
          "name": "",
          "type": "uint256"
        }
      ],
      "name": "tokenTraits",
      "outputs": [
        {
          "internalType": "bool",
          "name": "isChef",
          "type": "bool"
        },
        {
          "internalType": "uint8",
          "name": "hat",
          "type": "uint8"
        },
        {
          "internalType": "uint8",
          "name": "eyes",
          "type": "uint8"
        },
        {
          "internalType": "uint8",
          "name": "piercing",
          "type": "uint8"
        },
        {
          "internalType": "uint8",
          "name": "mouth",
          "type": "uint8"
        },
        {
          "internalType": "uint8",
          "name": "neck",
          "type": "uint8"
        },
        {
          "internalType": "uint8",
          "name": "hand",
          "type": "uint8"
        },
        {
          "internalType": "uint8",
          "name": "tail",
          "type": "uint8"
        },
        {
          "internalType": "uint8",
          "name": "efficiency",
          "type": "uint8"
        },
        {
          "internalType": "uint8",
          "name": "tolerance",
          "type": "uint8"
        },
        {
          "internalType": "int8",
          "name": "boost",
          "type": "int8"
        }
      ],
      "stateMutability": "view",
      "type": "function",
      "constant": true
    },
    {
      "inputs": [],
      "name": "traits",
      "outputs": [
        {
          "internalType": "contract ITraits",
          "name": "",
          "type": "address"
        }
      ],
      "stateMutability": "view",
      "type": "function",
      "constant": true
    },
    {
      "inputs": [
        {
          "internalType": "address",
          "name": "from",
          "type": "address"
        },
        {
          "internalType": "address",
          "name": "to",
          "type": "address"
        },
        {
          "internalType": "uint256",
          "name": "tokenId",
          "type": "uint256"
        }
      ],
      "name": "transferFrom",
      "outputs": [],
      "stateMutability": "nonpayable",
      "type": "function"
    },
    {
      "inputs": [
        {
          "internalType": "address",
          "name": "newOwner",
          "type": "address"
        }
      ],
      "name": "transferOwnership",
      "outputs": [],
      "stateMutability": "nonpayable",
      "type": "function"
    },
    {
      "inputs": [],
      "name": "unpause",
      "outputs": [],
      "stateMutability": "nonpayable",
      "type": "function"
    },
    {
      "inputs": [
        {
          "internalType": "address",
          "name": "_paywall",
          "type": "address"
        },
        {
          "internalType": "address",
          "name": "_mint",
          "type": "address"
        },
        {
          "internalType": "address",
          "name": "_traits",
          "type": "address"
        },
        {
          "internalType": "address",
          "name": "_properties",
          "type": "address"
        },
        {
          "internalType": "address",
          "name": "_dao",
          "type": "address"
        }
      ],
      "name": "initialize",
      "outputs": [],
      "stateMutability": "nonpayable",
      "type": "function"
    },
    {
      "inputs": [
        {
          "internalType": "uint256",
          "name": "_maxTokens",
          "type": "uint256"
        }
      ],
      "name": "configure",
      "outputs": [],
      "stateMutability": "nonpayable",
      "type": "function"
    },
    {
      "inputs": [
        {
          "internalType": "uint8",
          "name": "amount",
          "type": "uint8"
        },
        {
          "internalType": "bool",
          "name": "stake",
          "type": "bool"
        }
      ],
      "name": "mint",
      "outputs": [],
      "stateMutability": "payable",
      "type": "function",
      "payable": true
    },
    {
      "inputs": [
        {
          "internalType": "bytes32",
          "name": "requestId",
          "type": "bytes32"
        },
        {
          "components": [
            {
              "internalType": "bool",
              "name": "isChef",
              "type": "bool"
            },
            {
              "internalType": "uint8",
              "name": "hat",
              "type": "uint8"
            },
            {
              "internalType": "uint8",
              "name": "eyes",
              "type": "uint8"
            },
            {
              "internalType": "uint8",
              "name": "piercing",
              "type": "uint8"
            },
            {
              "internalType": "uint8",
              "name": "mouth",
              "type": "uint8"
            },
            {
              "internalType": "uint8",
              "name": "neck",
              "type": "uint8"
            },
            {
              "internalType": "uint8",
              "name": "hand",
              "type": "uint8"
            },
            {
              "internalType": "uint8",
              "name": "tail",
              "type": "uint8"
            },
            {
              "internalType": "uint8",
              "name": "efficiency",
              "type": "uint8"
            },
            {
              "internalType": "uint8",
              "name": "tolerance",
              "type": "uint8"
            },
            {
              "internalType": "int8",
              "name": "boost",
              "type": "int8"
            }
          ],
          "internalType": "struct ICharacter.CharacterStruct[]",
          "name": "tokens",
          "type": "tuple[]"
        }
      ],
      "name": "fulfillMint",
      "outputs": [],
      "stateMutability": "nonpayable",
      "type": "function"
    },
    {
      "inputs": [
        {
          "internalType": "uint256",
          "name": "tokenId",
          "type": "uint256"
        },
        {
          "internalType": "int8",
          "name": "efficiencyIncrement",
          "type": "int8"
        },
        {
          "internalType": "int8",
          "name": "toleranceIncrement",
          "type": "int8"
        },
        {
          "internalType": "uint256",
          "name": "randomVal",
          "type": "uint256"
        }
      ],
      "name": "updateCharacter",
      "outputs": [
        {
          "internalType": "uint8",
          "name": "efficiencyValue",
          "type": "uint8"
        },
        {
          "internalType": "uint8",
          "name": "toleranceValue",
          "type": "uint8"
        },
        {
          "internalType": "string",
          "name": "eventName",
          "type": "string"
        }
      ],
      "stateMutability": "nonpayable",
      "type": "function"
    },
    {
      "inputs": [
        {
          "internalType": "uint256",
          "name": "tokenId",
          "type": "uint256"
        }
      ],
      "name": "tokenURI",
      "outputs": [
        {
          "internalType": "string",
          "name": "",
          "type": "string"
        }
      ],
      "stateMutability": "view",
      "type": "function",
      "constant": true
    },
    {
      "inputs": [
        {
          "internalType": "uint256",
          "name": "tokenId",
          "type": "uint256"
        }
      ],
      "name": "getTokenTraits",
      "outputs": [
        {
          "components": [
            {
              "internalType": "bool",
              "name": "isChef",
              "type": "bool"
            },
            {
              "internalType": "uint8",
              "name": "hat",
              "type": "uint8"
            },
            {
              "internalType": "uint8",
              "name": "eyes",
              "type": "uint8"
            },
            {
              "internalType": "uint8",
              "name": "piercing",
              "type": "uint8"
            },
            {
              "internalType": "uint8",
              "name": "mouth",
              "type": "uint8"
            },
            {
              "internalType": "uint8",
              "name": "neck",
              "type": "uint8"
            },
            {
              "internalType": "uint8",
              "name": "hand",
              "type": "uint8"
            },
            {
              "internalType": "uint8",
              "name": "tail",
              "type": "uint8"
            },
            {
              "internalType": "uint8",
              "name": "efficiency",
              "type": "uint8"
            },
            {
              "internalType": "uint8",
              "name": "tolerance",
              "type": "uint8"
            },
            {
              "internalType": "int8",
              "name": "boost",
              "type": "int8"
            }
          ],
          "internalType": "struct ICharacter.CharacterStruct",
          "name": "",
          "type": "tuple"
        }
      ],
      "stateMutability": "view",
      "type": "function",
      "constant": true
    },
    {
      "inputs": [],
      "name": "getGen0Tokens",
      "outputs": [
        {
          "internalType": "uint256",
          "name": "",
          "type": "uint256"
        }
      ],
      "stateMutability": "view",
      "type": "function",
      "constant": true
    },
    {
      "inputs": [
        {
          "internalType": "address",
          "name": "_kitchen",
          "type": "address"
        }
      ],
      "name": "setKitchen",
      "outputs": [],
      "stateMutability": "nonpayable",
      "type": "function"
    }
  ],
  "bytecode": "0x608060405234801561001057600080fd5b50615f1580620000216000396000f3fe6080604052600436106102515760003560e01c8063715018a611610139578063b88d4fde116100b6578063e05c57bf1161007a578063e05c57bf14610893578063e1fc334f146108da578063e831574214610905578063e985e9c514610930578063f2fde38b1461096d578063fcd802b11461099657610251565b8063b88d4fde1461079a578063ba0909dd146107c3578063c13aa7b5146107ee578063c87b56dd1461082b578063d39f8a4d1461086857610251565b806392c405b6116100fd57806392c405b6146106b757806394e56847146106e057806395d89b411461071d578063a22cb46514610748578063a83a72021461077157610251565b8063715018a6146106085780637856f9451461061f5780638456cb591461064a5780638da5cb5b146106615780639284521c1461068c57610251565b80633f4ba83a116101d2578063506b176111610196578063506b1761146104dd5780635c975abb14610508578063612bfba4146105335780636352211e1461054f57806363dbfc771461058c57806370a08231146105cb57610251565b80633f4ba83a1461041e5780634162169f1461043557806342842e0e1461046057806344936bce146104895780634f02c420146104b257610251565b80631459457a116102195780631459457a1461034f5780631eb25e0a1461037857806323b872dd146103a1578063295b4e17146103ca578063337f2847146103f557610251565b806301ffc9a71461025657806306fdde0314610293578063081812fc146102be5780630917e40d146102fb578063095ea7b314610326575b600080fd5b34801561026257600080fd5b5061027d60048036038101906102789190613ba0565b6109c1565b60405161028a9190613be8565b60405180910390f35b34801561029f57600080fd5b506102a8610aa3565b6040516102b59190613c9c565b60405180910390f35b3480156102ca57600080fd5b506102e560048036038101906102e09190613cf4565b610b35565b6040516102f29190613d62565b60405180910390f35b34801561030757600080fd5b50610310610bba565b60405161031d9190613d9a565b60405180910390f35b34801561033257600080fd5b5061034d60048036038101906103489190613de1565b610bce565b005b34801561035b57600080fd5b5061037660048036038101906103719190613e21565b610ce6565b005b34801561038457600080fd5b5061039f600480360381019061039a9190613cf4565b610f9d565b005b3480156103ad57600080fd5b506103c860048036038101906103c39190613e9c565b611036565b005b3480156103d657600080fd5b506103df611096565b6040516103ec9190613d9a565b60405180910390f35b34801561040157600080fd5b5061041c60048036038101906104179190613eef565b6110aa565b005b34801561042a57600080fd5b5061043361116b565b005b34801561044157600080fd5b5061044a6111f1565b6040516104579190613f3d565b60405180910390f35b34801561046c57600080fd5b5061048760048036038101906104829190613e9c565b611218565b005b34801561049557600080fd5b506104b060048036038101906104ab9190614287565b611238565b005b3480156104be57600080fd5b506104c761187a565b6040516104d49190613d9a565b60405180910390f35b3480156104e957600080fd5b506104f261188e565b6040516104ff9190614342565b60405180910390f35b34801561051457600080fd5b5061051d6118b5565b60405161052a9190613be8565b60405180910390f35b61054d6004803603810190610548919061435d565b6118cc565b005b34801561055b57600080fd5b5061057660048036038101906105719190613cf4565b611bb3565b6040516105839190613d62565b60405180910390f35b34801561059857600080fd5b506105b360048036038101906105ae919061439d565b611c65565b6040516105c293929190614413565b60405180910390f35b3480156105d757600080fd5b506105f260048036038101906105ed9190613eef565b611e93565b6040516105ff9190614460565b60405180910390f35b34801561061457600080fd5b5061061d611f4b565b005b34801561062b57600080fd5b50610634611fd3565b6040516106419190614460565b60405180910390f35b34801561065657600080fd5b5061065f611fdd565b005b34801561066d57600080fd5b50610676612063565b6040516106839190613d62565b60405180910390f35b34801561069857600080fd5b506106a161208d565b6040516106ae919061449c565b60405180910390f35b3480156106c357600080fd5b506106de60048036038101906106d9919061457a565b6120b4565b005b3480156106ec57600080fd5b5061070760048036038101906107029190613cf4565b6121c5565b60405161071491906146d1565b60405180910390f35b34801561072957600080fd5b50610732612378565b60405161073f9190613c9c565b60405180910390f35b34801561075457600080fd5b5061076f600480360381019061076a91906146ed565b61240a565b005b34801561077d57600080fd5b506107986004803603810190610793919061457a565b612420565b005b3480156107a657600080fd5b506107c160048036038101906107bc91906147e2565b612531565b005b3480156107cf57600080fd5b506107d8612593565b6040516107e59190614886565b60405180910390f35b3480156107fa57600080fd5b5061081560048036038101906108109190613eef565b6125ba565b6040516108229190613be8565b60405180910390f35b34801561083757600080fd5b50610852600480360381019061084d9190613cf4565b61268c565b60405161085f9190613c9c565b60405180910390f35b34801561087457600080fd5b5061087d61277f565b60405161088a9190613d9a565b60405180910390f35b34801561089f57600080fd5b506108ba60048036038101906108b59190613cf4565b612793565b6040516108d19b9a999897969594939291906148b0565b60405180910390f35b3480156108e657600080fd5b506108ef61287c565b6040516108fc919061497c565b60405180910390f35b34801561091157600080fd5b5061091a6128a3565b6040516109279190614460565b60405180910390f35b34801561093c57600080fd5b5061095760048036038101906109529190614997565b6128a9565b6040516109649190613be8565b60405180910390f35b34801561097957600080fd5b50610994600480360381019061098f9190613eef565b61293d565b005b3480156109a257600080fd5b506109ab612a35565b6040516109b891906149f8565b60405180910390f35b60007f80ac58cd000000000000000000000000000000000000000000000000000000007bffffffffffffffffffffffffffffffffffffffffffffffffffffffff1916827bffffffffffffffffffffffffffffffffffffffffffffffffffffffff19161480610a8c57507f5b5e139f000000000000000000000000000000000000000000000000000000007bffffffffffffffffffffffffffffffffffffffffffffffffffffffff1916827bffffffffffffffffffffffffffffffffffffffffffffffffffffffff1916145b80610a9c5750610a9b82612a5c565b5b9050919050565b606060c98054610ab290614a42565b80601f0160208091040260200160405190810160405280929190818152602001828054610ade90614a42565b8015610b2b5780601f10610b0057610100808354040283529160200191610b2b565b820191906000526020600020905b815481529060010190602001808311610b0e57829003601f168201915b5050505050905090565b6000610b4082612ac6565b610b7f576040517f08c379a0000000000000000000000000000000000000000000000000000000008152600401610b7690614ae6565b60405180910390fd5b60cd600083815260200190815260200160002060009054906101000a900473ffffffffffffffffffffffffffffffffffffffff169050919050565b60fc60069054906101000a900461ffff1681565b6000610bd982611bb3565b90508073ffffffffffffffffffffffffffffffffffffffff168373ffffffffffffffffffffffffffffffffffffffff161415610c4a576040517f08c379a0000000000000000000000000000000000000000000000000000000008152600401610c4190614b78565b60405180910390fd5b8073ffffffffffffffffffffffffffffffffffffffff16610c69612b32565b73ffffffffffffffffffffffffffffffffffffffff161480610c985750610c9781610c92612b32565b6128a9565b5b610cd7576040517f08c379a0000000000000000000000000000000000000000000000000000000008152600401610cce90614c0a565b60405180910390fd5b610ce18383612b3a565b505050565b600060019054906101000a900460ff16610d0e5760008054906101000a900460ff1615610d17565b610d16612bf3565b5b610d56576040517f08c379a0000000000000000000000000000000000000000000000000000000008152600401610d4d90614c9c565b60405180910390fd5b60008060019054906101000a900460ff161590508015610da6576001600060016101000a81548160ff02191690831515021790555060016000806101000a81548160ff0219169083151502179055505b610dae612c04565b610db6612c65565b610e2a6040518060400160405280601381526020017f526174416c6572742043686172616374657273000000000000000000000000008152506040518060400160405280600781526020017f5241544341535400000000000000000000000000000000000000000000000000815250612cc6565b8561010460006101000a81548173ffffffffffffffffffffffffffffffffffffffff021916908373ffffffffffffffffffffffffffffffffffffffff1602179055508461010060006101000a81548173ffffffffffffffffffffffffffffffffffffffff021916908373ffffffffffffffffffffffffffffffffffffffff1602179055508361010160006101000a81548173ffffffffffffffffffffffffffffffffffffffff021916908373ffffffffffffffffffffffffffffffffffffffff1602179055508261010260006101000a81548173ffffffffffffffffffffffffffffffffffffffff021916908373ffffffffffffffffffffffffffffffffffffffff1602179055508161010560006101000a81548173ffffffffffffffffffffffffffffffffffffffff021916908373ffffffffffffffffffffffffffffffffffffffff1602179055508015610f955760008060016101000a81548160ff0219169083151502179055505b505050505050565b610fa5612b32565b73ffffffffffffffffffffffffffffffffffffffff16610fc3612063565b73ffffffffffffffffffffffffffffffffffffffff1614611019576040517f08c379a000000000000000000000000000000000000000000000000000000000815260040161101090614d08565b60405180910390fd5b8060fd8190555060058161102d9190614d86565b60fe8190555050565b611047611041612b32565b82612d33565b611086576040517f08c379a000000000000000000000000000000000000000000000000000000000815260040161107d90614e29565b60405180910390fd5b611091838383612e11565b505050565b60fc60009054906101000a900461ffff1681565b6110b2612b32565b73ffffffffffffffffffffffffffffffffffffffff166110d0612063565b73ffffffffffffffffffffffffffffffffffffffff1614611126576040517f08c379a000000000000000000000000000000000000000000000000000000000815260040161111d90614d08565b60405180910390fd5b8061010360006101000a81548173ffffffffffffffffffffffffffffffffffffffff021916908373ffffffffffffffffffffffffffffffffffffffff16021790555050565b611173612b32565b73ffffffffffffffffffffffffffffffffffffffff16611191612063565b73ffffffffffffffffffffffffffffffffffffffff16146111e7576040517f08c379a00000000000000000000000000000000000000000000000000000000081526004016111de90614d08565b60405180910390fd5b6111ef61306d565b565b61010560009054906101000a900473ffffffffffffffffffffffffffffffffffffffff1681565b61123383838360405180602001604052806000815250612531565b505050565b6112406118b5565b15611280576040517f08c379a000000000000000000000000000000000000000000000000000000000815260040161127790614e95565b60405180910390fd5b6000801b8214156112c6576040517f08c379a00000000000000000000000000000000000000000000000000000000081526004016112bd90614f01565b60405180910390fd5b600061010060009054906101000a900473ffffffffffffffffffffffffffffffffffffffff1673ffffffffffffffffffffffffffffffffffffffff16637f10b5ab846040518263ffffffff1660e01b81526004016113249190614f30565b60a060405180830381865afa158015611341573d6000803e3d6000fd5b505050506040513d601f19601f820116820180604052508101906113659190615040565b9050806000015183146113ad576040517f08c379a00000000000000000000000000000000000000000000000000000000081526004016113a4906150b9565b60405180910390fd5b61010060009054906101000a900473ffffffffffffffffffffffffffffffffffffffff1673ffffffffffffffffffffffffffffffffffffffff163373ffffffffffffffffffffffffffffffffffffffff161461143e576040517f08c379a000000000000000000000000000000000000000000000000000000000815260040161143590615125565b60405180910390fd5b6000816040015160ff1667ffffffffffffffff81111561146157611460613f93565b5b60405190808252806020026020018201604052801561148f5781602001602082028036833780820191505090505b50905060005b826040015160ff168110156117d45760fc600281819054906101000a900461ffff16809291906114c490615145565b91906101000a81548161ffff021916908361ffff1602179055505061153483606001516114f557836020015161151a565b61010360009054906101000a900473ffffffffffffffffffffffffffffffffffffffff165b60fc60029054906101000a900461ffff1661ffff1661310f565b60fc60029054906101000a900461ffff1682828151811061155857611557615170565b5b602002602001019061ffff16908161ffff168152505083818151811061158157611580615170565b5b602002602001015160ff600060fc60029054906101000a900461ffff1661ffff16815260200190815260200160002060008201518160000160006101000a81548160ff02191690831515021790555060208201518160000160016101000a81548160ff021916908360ff16021790555060408201518160000160026101000a81548160ff021916908360ff16021790555060608201518160000160036101000a81548160ff021916908360ff16021790555060808201518160000160046101000a81548160ff021916908360ff16021790555060a08201518160000160056101000a81548160ff021916908360ff16021790555060c08201518160000160066101000a81548160ff021916908360ff16021790555060e08201518160000160076101000a81548160ff021916908360ff1602179055506101008201518160000160086101000a81548160ff021916908360ff1602179055506101208201518160000160096101000a81548160ff021916908360ff16021790555061014082015181600001600a6101000a81548160ff021916908360000b60ff16021790555090505083818151811061173657611735615170565b5b6020026020010151600001516117855760fc600681819054906101000a900461ffff168092919061176690615145565b91906101000a81548161ffff021916908361ffff1602179055506117c0565b60fc600481819054906101000a900461ffff16809291906117a590615145565b91906101000a81548161ffff021916908361ffff1602179055505b5080806117cc9061519f565b915050611495565b508160600151156118745761010360009054906101000a900473ffffffffffffffffffffffffffffffffffffffff1673ffffffffffffffffffffffffffffffffffffffff1663dbdc1f6b8360200151836040518363ffffffff1660e01b81526004016118419291906152a6565b600060405180830381600087803b15801561185b57600080fd5b505af115801561186f573d6000803e3d6000fd5b505050505b50505050565b60fc60029054906101000a900461ffff1681565b61010460009054906101000a900473ffffffffffffffffffffffffffffffffffffffff1681565b6000606560009054906101000a900460ff16905090565b6118d46118b5565b15611914576040517f08c379a000000000000000000000000000000000000000000000000000000000815260040161190b90614e95565b60405180910390fd5b61191c612b32565b73ffffffffffffffffffffffffffffffffffffffff163273ffffffffffffffffffffffffffffffffffffffff1614611989576040517f08c379a000000000000000000000000000000000000000000000000000000000815260040161198090615322565b60405180910390fd5b600061010460009054906101000a900473ffffffffffffffffffffffffffffffffffffffff1673ffffffffffffffffffffffffffffffffffffffff1663abc26c606119d2612b32565b853460fc60009054906101000a900461ffff1660fd5460fe546040518763ffffffff1660e01b8152600401611a0c96959493929190615342565b6020604051808303816000875af1158015611a2b573d6000803e3d6000fd5b505050506040513d601f19601f82011682018060405250810190611a4f91906153a3565b90506000341115611ac55761010560009054906101000a900473ffffffffffffffffffffffffffffffffffffffff1673ffffffffffffffffffffffffffffffffffffffff166108fc349081150290604051600060405180830381858888f19350505050158015611ac3573d6000803e3d6000fd5b505b61010060009054906101000a900473ffffffffffffffffffffffffffffffffffffffff1673ffffffffffffffffffffffffffffffffffffffff1663e8ff04a1611b0c612b32565b8585856040518563ffffffff1660e01b8152600401611b2e94939291906153d0565b6020604051808303816000875af1158015611b4d573d6000803e3d6000fd5b505050506040513d601f19601f82011682018060405250810190611b719190615415565b508260ff1660fc60008282829054906101000a900461ffff16611b949190615442565b92506101000a81548161ffff021916908361ffff160217905550505050565b60008060cb600084815260200190815260200160002060009054906101000a900473ffffffffffffffffffffffffffffffffffffffff169050600073ffffffffffffffffffffffffffffffffffffffff168173ffffffffffffffffffffffffffffffffffffffff161415611c5c576040517f08c379a0000000000000000000000000000000000000000000000000000000008152600401611c53906154ec565b60405180910390fd5b80915050919050565b600080606060fb60003373ffffffffffffffffffffffffffffffffffffffff1673ffffffffffffffffffffffffffffffffffffffff16815260200190815260200160002060009054906101000a900460ff16611cf6576040517f08c379a0000000000000000000000000000000000000000000000000000000008152600401611ced90615558565b60405180910390fd5b600060ff600089815260200190815260200160002060000160009054906101000a900460ff169050600060ff60008a815260200190815260200160002060000160089054906101000a900460ff169050600060ff60008b815260200190815260200160002060000160099054906101000a900460ff16905061010260009054906101000a900473ffffffffffffffffffffffffffffffffffffffff1673ffffffffffffffffffffffffffffffffffffffff16634718e3088484848d8d8d6040518763ffffffff1660e01b8152600401611dd496959493929190615578565b6000604051808303816000875af1158015611df3573d6000803e3d6000fd5b505050506040513d6000823e3d601f19601f82011682018060405250810190611e1c919061567a565b8096508197508298505050508560ff60008c815260200190815260200160002060000160086101000a81548160ff021916908360ff1602179055508460ff60008c815260200190815260200160002060000160096101000a81548160ff021916908360ff1602179055505050509450945094915050565b60008073ffffffffffffffffffffffffffffffffffffffff168273ffffffffffffffffffffffffffffffffffffffff161415611f04576040517f08c379a0000000000000000000000000000000000000000000000000000000008152600401611efb9061575b565b60405180910390fd5b60cc60008373ffffffffffffffffffffffffffffffffffffffff1673ffffffffffffffffffffffffffffffffffffffff168152602001908152602001600020549050919050565b611f53612b32565b73ffffffffffffffffffffffffffffffffffffffff16611f71612063565b73ffffffffffffffffffffffffffffffffffffffff1614611fc7576040517f08c379a0000000000000000000000000000000000000000000000000000000008152600401611fbe90614d08565b60405180910390fd5b611fd1600061312d565b565b600060fe54905090565b611fe5612b32565b73ffffffffffffffffffffffffffffffffffffffff16612003612063565b73ffffffffffffffffffffffffffffffffffffffff1614612059576040517f08c379a000000000000000000000000000000000000000000000000000000000815260040161205090614d08565b60405180910390fd5b6120616131f3565b565b6000603360009054906101000a900473ffffffffffffffffffffffffffffffffffffffff16905090565b61010060009054906101000a900473ffffffffffffffffffffffffffffffffffffffff1681565b6120bc612b32565b73ffffffffffffffffffffffffffffffffffffffff166120da612063565b73ffffffffffffffffffffffffffffffffffffffff1614612130576040517f08c379a000000000000000000000000000000000000000000000000000000000815260040161212790614d08565b60405180910390fd5b60005b81518110156121c157600060fb600084848151811061215557612154615170565b5b602002602001015173ffffffffffffffffffffffffffffffffffffffff1673ffffffffffffffffffffffffffffffffffffffff16815260200190815260200160002060006101000a81548160ff02191690831515021790555080806121b99061519f565b915050612133565b5050565b6121cd613a18565b6121d682612ac6565b612215576040517f08c379a000000000000000000000000000000000000000000000000000000000815260040161220c906157ed565b60405180910390fd5b60ff6000838152602001908152602001600020604051806101600160405290816000820160009054906101000a900460ff161515151581526020016000820160019054906101000a900460ff1660ff1660ff1681526020016000820160029054906101000a900460ff1660ff1660ff1681526020016000820160039054906101000a900460ff1660ff1660ff1681526020016000820160049054906101000a900460ff1660ff1660ff1681526020016000820160059054906101000a900460ff1660ff1660ff1681526020016000820160069054906101000a900460ff1660ff1660ff1681526020016000820160079054906101000a900460ff1660ff1660ff1681526020016000820160089054906101000a900460ff1660ff1660ff1681526020016000820160099054906101000a900460ff1660ff1660ff16815260200160008201600a9054906101000a900460000b60000b60000b815250509050919050565b606060ca805461238790614a42565b80601f01602080910402602001604051908101604052809291908181526020018280546123b390614a42565b80156124005780601f106123d557610100808354040283529160200191612400565b820191906000526020600020905b8154815290600101906020018083116123e357829003601f168201915b5050505050905090565b61241c612415612b32565b8383613296565b5050565b612428612b32565b73ffffffffffffffffffffffffffffffffffffffff16612446612063565b73ffffffffffffffffffffffffffffffffffffffff161461249c576040517f08c379a000000000000000000000000000000000000000000000000000000000815260040161249390614d08565b60405180910390fd5b60005b815181101561252d57600160fb60008484815181106124c1576124c0615170565b5b602002602001015173ffffffffffffffffffffffffffffffffffffffff1673ffffffffffffffffffffffffffffffffffffffff16815260200190815260200160002060006101000a81548160ff02191690831515021790555080806125259061519f565b91505061249f565b5050565b61254261253c612b32565b83612d33565b612581576040517f08c379a000000000000000000000000000000000000000000000000000000000815260040161257890614e29565b60405180910390fd5b61258d84848484613403565b50505050565b61010360009054906101000a900473ffffffffffffffffffffffffffffffffffffffff1681565b60006125c4612b32565b73ffffffffffffffffffffffffffffffffffffffff166125e2612063565b73ffffffffffffffffffffffffffffffffffffffff1614612638576040517f08c379a000000000000000000000000000000000000000000000000000000000815260040161262f90614d08565b60405180910390fd5b60fb60008373ffffffffffffffffffffffffffffffffffffffff1673ffffffffffffffffffffffffffffffffffffffff16815260200190815260200160002060009054906101000a900460ff169050919050565b606061269782612ac6565b6126d6576040517f08c379a00000000000000000000000000000000000000000000000000000000081526004016126cd906157ed565b60405180910390fd5b61010160009054906101000a900473ffffffffffffffffffffffffffffffffffffffff1673ffffffffffffffffffffffffffffffffffffffff1663c87b56dd836040518263ffffffff1660e01b81526004016127329190614460565b600060405180830381865afa15801561274f573d6000803e3d6000fd5b505050506040513d6000823e3d601f19601f82011682018060405250810190612778919061580d565b9050919050565b60fc60049054906101000a900461ffff1681565b60ff6020528060005260406000206000915090508060000160009054906101000a900460ff16908060000160019054906101000a900460ff16908060000160029054906101000a900460ff16908060000160039054906101000a900460ff16908060000160049054906101000a900460ff16908060000160059054906101000a900460ff16908060000160069054906101000a900460ff16908060000160079054906101000a900460ff16908060000160089054906101000a900460ff16908060000160099054906101000a900460ff169080600001600a9054906101000a900460000b90508b565b61010160009054906101000a900473ffffffffffffffffffffffffffffffffffffffff1681565b60fd5481565b600060ce60008473ffffffffffffffffffffffffffffffffffffffff1673ffffffffffffffffffffffffffffffffffffffff16815260200190815260200160002060008373ffffffffffffffffffffffffffffffffffffffff1673ffffffffffffffffffffffffffffffffffffffff16815260200190815260200160002060009054906101000a900460ff16905092915050565b612945612b32565b73ffffffffffffffffffffffffffffffffffffffff16612963612063565b73ffffffffffffffffffffffffffffffffffffffff16146129b9576040517f08c379a00000000000000000000000000000000000000000000000000000000081526004016129b090614d08565b60405180910390fd5b600073ffffffffffffffffffffffffffffffffffffffff168173ffffffffffffffffffffffffffffffffffffffff161415612a29576040517f08c379a0000000000000000000000000000000000000000000000000000000008152600401612a20906158c8565b60405180910390fd5b612a328161312d565b50565b61010260009054906101000a900473ffffffffffffffffffffffffffffffffffffffff1681565b60007f01ffc9a7000000000000000000000000000000000000000000000000000000007bffffffffffffffffffffffffffffffffffffffffffffffffffffffff1916827bffffffffffffffffffffffffffffffffffffffffffffffffffffffff1916149050919050565b60008073ffffffffffffffffffffffffffffffffffffffff1660cb600084815260200190815260200160002060009054906101000a900473ffffffffffffffffffffffffffffffffffffffff1673ffffffffffffffffffffffffffffffffffffffff1614159050919050565b600033905090565b8160cd600083815260200190815260200160002060006101000a81548173ffffffffffffffffffffffffffffffffffffffff021916908373ffffffffffffffffffffffffffffffffffffffff160217905550808273ffffffffffffffffffffffffffffffffffffffff16612bad83611bb3565b73ffffffffffffffffffffffffffffffffffffffff167f8c5be1e5ebec7d5bd14f71427d1e84f3dd0314c0f7b2291e5b200ac8c7c3b92560405160405180910390a45050565b6000612bfe3061345f565b15905090565b600060019054906101000a900460ff16612c53576040517f08c379a0000000000000000000000000000000000000000000000000000000008152600401612c4a9061595a565b60405180910390fd5b612c5b613472565b612c636134c3565b565b600060019054906101000a900460ff16612cb4576040517f08c379a0000000000000000000000000000000000000000000000000000000008152600401612cab9061595a565b60405180910390fd5b612cbc613472565b612cc4613524565b565b600060019054906101000a900460ff16612d15576040517f08c379a0000000000000000000000000000000000000000000000000000000008152600401612d0c9061595a565b60405180910390fd5b612d1d613472565b612d25613590565b612d2f82826135e1565b5050565b6000612d3e82612ac6565b612d7d576040517f08c379a0000000000000000000000000000000000000000000000000000000008152600401612d74906159ec565b60405180910390fd5b6000612d8883611bb3565b90508073ffffffffffffffffffffffffffffffffffffffff168473ffffffffffffffffffffffffffffffffffffffff161480612df757508373ffffffffffffffffffffffffffffffffffffffff16612ddf84610b35565b73ffffffffffffffffffffffffffffffffffffffff16145b80612e085750612e0781856128a9565b5b91505092915050565b8273ffffffffffffffffffffffffffffffffffffffff16612e3182611bb3565b73ffffffffffffffffffffffffffffffffffffffff1614612e87576040517f08c379a0000000000000000000000000000000000000000000000000000000008152600401612e7e90615a7e565b60405180910390fd5b600073ffffffffffffffffffffffffffffffffffffffff168273ffffffffffffffffffffffffffffffffffffffff161415612ef7576040517f08c379a0000000000000000000000000000000000000000000000000000000008152600401612eee90615b10565b60405180910390fd5b612f02838383613662565b612f0d600082612b3a565b600160cc60008573ffffffffffffffffffffffffffffffffffffffff1673ffffffffffffffffffffffffffffffffffffffff1681526020019081526020016000206000828254612f5d9190615b30565b92505081905550600160cc60008473ffffffffffffffffffffffffffffffffffffffff1673ffffffffffffffffffffffffffffffffffffffff1681526020019081526020016000206000828254612fb49190615b64565b925050819055508160cb600083815260200190815260200160002060006101000a81548173ffffffffffffffffffffffffffffffffffffffff021916908373ffffffffffffffffffffffffffffffffffffffff160217905550808273ffffffffffffffffffffffffffffffffffffffff168473ffffffffffffffffffffffffffffffffffffffff167fddf252ad1be2c89b69c2b068fc378daa952ba7f163c4a11628f55a4df523b3ef60405160405180910390a4505050565b6130756118b5565b6130b4576040517f08c379a00000000000000000000000000000000000000000000000000000000081526004016130ab90615c06565b60405180910390fd5b6000606560006101000a81548160ff0219169083151502179055507f5db9ee0a495bf2e6ff9c91a7834c1ba4fdd244a5e8aa4e537bd38aeae4b073aa6130f8612b32565b6040516131059190613d62565b60405180910390a1565b613129828260405180602001604052806000815250613667565b5050565b6000603360009054906101000a900473ffffffffffffffffffffffffffffffffffffffff16905081603360006101000a81548173ffffffffffffffffffffffffffffffffffffffff021916908373ffffffffffffffffffffffffffffffffffffffff1602179055508173ffffffffffffffffffffffffffffffffffffffff168173ffffffffffffffffffffffffffffffffffffffff167f8be0079c531659141344cd1fd0a4f28419497f9722a3daafe3b4186f6b6457e060405160405180910390a35050565b6131fb6118b5565b1561323b576040517f08c379a000000000000000000000000000000000000000000000000000000000815260040161323290614e95565b60405180910390fd5b6001606560006101000a81548160ff0219169083151502179055507f62e78cea01bee320cd4e420270b5ea74000d11b0c9f74754ebdbfc544b05a25861327f612b32565b60405161328c9190613d62565b60405180910390a1565b8173ffffffffffffffffffffffffffffffffffffffff168373ffffffffffffffffffffffffffffffffffffffff161415613305576040517f08c379a00000000000000000000000000000000000000000000000000000000081526004016132fc90615c72565b60405180910390fd5b8060ce60008573ffffffffffffffffffffffffffffffffffffffff1673ffffffffffffffffffffffffffffffffffffffff16815260200190815260200160002060008473ffffffffffffffffffffffffffffffffffffffff1673ffffffffffffffffffffffffffffffffffffffff16815260200190815260200160002060006101000a81548160ff0219169083151502179055508173ffffffffffffffffffffffffffffffffffffffff168373ffffffffffffffffffffffffffffffffffffffff167f17307eab39ab6107e8899845ad3d59bd9653f200f220920489ca2b5937696c31836040516133f69190613be8565b60405180910390a3505050565b61340e848484612e11565b61341a848484846136c2565b613459576040517f08c379a000000000000000000000000000000000000000000000000000000000815260040161345090615d04565b60405180910390fd5b50505050565b600080823b905060008111915050919050565b600060019054906101000a900460ff166134c1576040517f08c379a00000000000000000000000000000000000000000000000000000000081526004016134b89061595a565b60405180910390fd5b565b600060019054906101000a900460ff16613512576040517f08c379a00000000000000000000000000000000000000000000000000000000081526004016135099061595a565b60405180910390fd5b61352261351d612b32565b61312d565b565b600060019054906101000a900460ff16613573576040517f08c379a000000000000000000000000000000000000000000000000000000000815260040161356a9061595a565b60405180910390fd5b6000606560006101000a81548160ff021916908315150217905550565b600060019054906101000a900460ff166135df576040517f08c379a00000000000000000000000000000000000000000000000000000000081526004016135d69061595a565b60405180910390fd5b565b600060019054906101000a900460ff16613630576040517f08c379a00000000000000000000000000000000000000000000000000000000081526004016136279061595a565b60405180910390fd5b8160c99080519060200190613646929190613a91565b508060ca908051906020019061365d929190613a91565b505050565b505050565b613671838361384a565b61367e60008484846136c2565b6136bd576040517f08c379a00000000000000000000000000000000000000000000000000000000081526004016136b490615d04565b60405180910390fd5b505050565b60006136e38473ffffffffffffffffffffffffffffffffffffffff1661345f565b1561383d578373ffffffffffffffffffffffffffffffffffffffff1663150b7a0261370c612b32565b8786866040518563ffffffff1660e01b815260040161372e9493929190615d79565b6020604051808303816000875af192505050801561376a57506040513d601f19601f820116820180604052508101906137679190615dda565b60015b6137ed573d806000811461379a576040519150601f19603f3d011682016040523d82523d6000602084013e61379f565b606091505b506000815114156137e5576040517f08c379a00000000000000000000000000000000000000000000000000000000081526004016137dc90615d04565b60405180910390fd5b805181602001fd5b63150b7a0260e01b7bffffffffffffffffffffffffffffffffffffffffffffffffffffffff1916817bffffffffffffffffffffffffffffffffffffffffffffffffffffffff191614915050613842565b600190505b949350505050565b600073ffffffffffffffffffffffffffffffffffffffff168273ffffffffffffffffffffffffffffffffffffffff1614156138ba576040517f08c379a00000000000000000000000000000000000000000000000000000000081526004016138b190615e53565b60405180910390fd5b6138c381612ac6565b15613903576040517f08c379a00000000000000000000000000000000000000000000000000000000081526004016138fa90615ebf565b60405180910390fd5b61390f60008383613662565b600160cc60008473ffffffffffffffffffffffffffffffffffffffff1673ffffffffffffffffffffffffffffffffffffffff168152602001908152602001600020600082825461395f9190615b64565b925050819055508160cb600083815260200190815260200160002060006101000a81548173ffffffffffffffffffffffffffffffffffffffff021916908373ffffffffffffffffffffffffffffffffffffffff160217905550808273ffffffffffffffffffffffffffffffffffffffff16600073ffffffffffffffffffffffffffffffffffffffff167fddf252ad1be2c89b69c2b068fc378daa952ba7f163c4a11628f55a4df523b3ef60405160405180910390a45050565b604051806101600160405280600015158152602001600060ff168152602001600060ff168152602001600060ff168152602001600060ff168152602001600060ff168152602001600060ff168152602001600060ff168152602001600060ff168152602001600060ff1681526020016000800b81525090565b828054613a9d90614a42565b90600052602060002090601f016020900481019282613abf5760008555613b06565b82601f10613ad857805160ff1916838001178555613b06565b82800160010185558215613b06579182015b82811115613b05578251825591602001919060010190613aea565b5b509050613b139190613b17565b5090565b5b80821115613b30576000816000905550600101613b18565b5090565b6000604051905090565b600080fd5b600080fd5b60007fffffffff0000000000000000000000000000000000000000000000000000000082169050919050565b613b7d81613b48565b8114613b8857600080fd5b50565b600081359050613b9a81613b74565b92915050565b600060208284031215613bb657613bb5613b3e565b5b6000613bc484828501613b8b565b91505092915050565b60008115159050919050565b613be281613bcd565b82525050565b6000602082019050613bfd6000830184613bd9565b92915050565b600081519050919050565b600082825260208201905092915050565b60005b83811015613c3d578082015181840152602081019050613c22565b83811115613c4c576000848401525b50505050565b6000601f19601f8301169050919050565b6000613c6e82613c03565b613c788185613c0e565b9350613c88818560208601613c1f565b613c9181613c52565b840191505092915050565b60006020820190508181036000830152613cb68184613c63565b905092915050565b6000819050919050565b613cd181613cbe565b8114613cdc57600080fd5b50565b600081359050613cee81613cc8565b92915050565b600060208284031215613d0a57613d09613b3e565b5b6000613d1884828501613cdf565b91505092915050565b600073ffffffffffffffffffffffffffffffffffffffff82169050919050565b6000613d4c82613d21565b9050919050565b613d5c81613d41565b82525050565b6000602082019050613d776000830184613d53565b92915050565b600061ffff82169050919050565b613d9481613d7d565b82525050565b6000602082019050613daf6000830184613d8b565b92915050565b613dbe81613d41565b8114613dc957600080fd5b50565b600081359050613ddb81613db5565b92915050565b60008060408385031215613df857613df7613b3e565b5b6000613e0685828601613dcc565b9250506020613e1785828601613cdf565b9150509250929050565b600080600080600060a08688031215613e3d57613e3c613b3e565b5b6000613e4b88828901613dcc565b9550506020613e5c88828901613dcc565b9450506040613e6d88828901613dcc565b9350506060613e7e88828901613dcc565b9250506080613e8f88828901613dcc565b9150509295509295909350565b600080600060608486031215613eb557613eb4613b3e565b5b6000613ec386828701613dcc565b9350506020613ed486828701613dcc565b9250506040613ee586828701613cdf565b9150509250925092565b600060208284031215613f0557613f04613b3e565b5b6000613f1384828501613dcc565b91505092915050565b6000613f2782613d21565b9050919050565b613f3781613f1c565b82525050565b6000602082019050613f526000830184613f2e565b92915050565b6000819050919050565b613f6b81613f58565b8114613f7657600080fd5b50565b600081359050613f8881613f62565b92915050565b600080fd5b7f4e487b7100000000000000000000000000000000000000000000000000000000600052604160045260246000fd5b613fcb82613c52565b810181811067ffffffffffffffff82111715613fea57613fe9613f93565b5b80604052505050565b6000613ffd613b34565b90506140098282613fc2565b919050565b600067ffffffffffffffff82111561402957614028613f93565b5b602082029050602081019050919050565b600080fd5b600080fd5b61404d81613bcd565b811461405857600080fd5b50565b60008135905061406a81614044565b92915050565b600060ff82169050919050565b61408681614070565b811461409157600080fd5b50565b6000813590506140a38161407d565b92915050565b60008160000b9050919050565b6140bf816140a9565b81146140ca57600080fd5b50565b6000813590506140dc816140b6565b92915050565b600061016082840312156140f9576140f861403f565b5b614104610160613ff3565b905060006141148482850161405b565b600083015250602061412884828501614094565b602083015250604061413c84828501614094565b604083015250606061415084828501614094565b606083015250608061416484828501614094565b60808301525060a061417884828501614094565b60a08301525060c061418c84828501614094565b60c08301525060e06141a084828501614094565b60e0830152506101006141b584828501614094565b610100830152506101206141cb84828501614094565b610120830152506101406141e1848285016140cd565b6101408301525092915050565b60006142016141fc8461400e565b613ff3565b90508083825260208201905061016084028301858111156142255761422461403a565b5b835b8181101561424f578061423a88826140e2565b84526020840193505061016081019050614227565b5050509392505050565b600082601f83011261426e5761426d613f8e565b5b813561427e8482602086016141ee565b91505092915050565b6000806040838503121561429e5761429d613b3e565b5b60006142ac85828601613f79565b925050602083013567ffffffffffffffff8111156142cd576142cc613b43565b5b6142d985828601614259565b9150509250929050565b6000819050919050565b60006143086143036142fe84613d21565b6142e3565b613d21565b9050919050565b600061431a826142ed565b9050919050565b600061432c8261430f565b9050919050565b61433c81614321565b82525050565b60006020820190506143576000830184614333565b92915050565b6000806040838503121561437457614373613b3e565b5b600061438285828601614094565b92505060206143938582860161405b565b9150509250929050565b600080600080608085870312156143b7576143b6613b3e565b5b60006143c587828801613cdf565b94505060206143d6878288016140cd565b93505060406143e7878288016140cd565b92505060606143f887828801613cdf565b91505092959194509250565b61440d81614070565b82525050565b60006060820190506144286000830186614404565b6144356020830185614404565b81810360408301526144478184613c63565b9050949350505050565b61445a81613cbe565b82525050565b60006020820190506144756000830184614451565b92915050565b60006144868261430f565b9050919050565b6144968161447b565b82525050565b60006020820190506144b1600083018461448d565b92915050565b600067ffffffffffffffff8211156144d2576144d1613f93565b5b602082029050602081019050919050565b60006144f66144f1846144b7565b613ff3565b905080838252602082019050602084028301858111156145195761451861403a565b5b835b81811015614542578061452e8882613dcc565b84526020840193505060208101905061451b565b5050509392505050565b600082601f83011261456157614560613f8e565b5b81356145718482602086016144e3565b91505092915050565b6000602082840312156145905761458f613b3e565b5b600082013567ffffffffffffffff8111156145ae576145ad613b43565b5b6145ba8482850161454c565b91505092915050565b6145cc81613bcd565b82525050565b6145db81614070565b82525050565b6145ea816140a9565b82525050565b6101608201600082015161460760008501826145c3565b50602082015161461a60208501826145d2565b50604082015161462d60408501826145d2565b50606082015161464060608501826145d2565b50608082015161465360808501826145d2565b5060a082015161466660a08501826145d2565b5060c082015161467960c08501826145d2565b5060e082015161468c60e08501826145d2565b506101008201516146a16101008501826145d2565b506101208201516146b66101208501826145d2565b506101408201516146cb6101408501826145e1565b50505050565b6000610160820190506146e760008301846145f0565b92915050565b6000806040838503121561470457614703613b3e565b5b600061471285828601613dcc565b92505060206147238582860161405b565b9150509250929050565b600080fd5b600067ffffffffffffffff82111561474d5761474c613f93565b5b61475682613c52565b9050602081019050919050565b82818337600083830152505050565b600061478561478084614732565b613ff3565b9050828152602081018484840111156147a1576147a061472d565b5b6147ac848285614763565b509392505050565b600082601f8301126147c9576147c8613f8e565b5b81356147d9848260208601614772565b91505092915050565b600080600080608085870312156147fc576147fb613b3e565b5b600061480a87828801613dcc565b945050602061481b87828801613dcc565b935050604061482c87828801613cdf565b925050606085013567ffffffffffffffff81111561484d5761484c613b43565b5b614859878288016147b4565b91505092959194509250565b60006148708261430f565b9050919050565b61488081614865565b82525050565b600060208201905061489b6000830184614877565b92915050565b6148aa816140a9565b82525050565b6000610160820190506148c6600083018e613bd9565b6148d3602083018d614404565b6148e0604083018c614404565b6148ed606083018b614404565b6148fa608083018a614404565b61490760a0830189614404565b61491460c0830188614404565b61492160e0830187614404565b61492f610100830186614404565b61493d610120830185614404565b61494b6101408301846148a1565b9c9b505050505050505050505050565b60006149668261430f565b9050919050565b6149768161495b565b82525050565b6000602082019050614991600083018461496d565b92915050565b600080604083850312156149ae576149ad613b3e565b5b60006149bc85828601613dcc565b92505060206149cd85828601613dcc565b9150509250929050565b60006149e28261430f565b9050919050565b6149f2816149d7565b82525050565b6000602082019050614a0d60008301846149e9565b92915050565b7f4e487b7100000000000000000000000000000000000000000000000000000000600052602260045260246000fd5b60006002820490506001821680614a5a57607f821691505b60208210811415614a6e57614a6d614a13565b5b50919050565b7f4552433732313a20617070726f76656420717565727920666f72206e6f6e657860008201527f697374656e7420746f6b656e0000000000000000000000000000000000000000602082015250565b6000614ad0602c83613c0e565b9150614adb82614a74565b604082019050919050565b60006020820190508181036000830152614aff81614ac3565b9050919050565b7f4552433732313a20617070726f76616c20746f2063757272656e74206f776e6560008201527f7200000000000000000000000000000000000000000000000000000000000000602082015250565b6000614b62602183613c0e565b9150614b6d82614b06565b604082019050919050565b60006020820190508181036000830152614b9181614b55565b9050919050565b7f4552433732313a20617070726f76652063616c6c6572206973206e6f74206f7760008201527f6e6572206e6f7220617070726f76656420666f7220616c6c0000000000000000602082015250565b6000614bf4603883613c0e565b9150614bff82614b98565b604082019050919050565b60006020820190508181036000830152614c2381614be7565b9050919050565b7f496e697469616c697a61626c653a20636f6e747261637420697320616c72656160008201527f647920696e697469616c697a6564000000000000000000000000000000000000602082015250565b6000614c86602e83613c0e565b9150614c9182614c2a565b604082019050919050565b60006020820190508181036000830152614cb581614c79565b9050919050565b7f4f776e61626c653a2063616c6c6572206973206e6f7420746865206f776e6572600082015250565b6000614cf2602083613c0e565b9150614cfd82614cbc565b602082019050919050565b60006020820190508181036000830152614d2181614ce5565b9050919050565b7f4e487b7100000000000000000000000000000000000000000000000000000000600052601260045260246000fd5b7f4e487b7100000000000000000000000000000000000000000000000000000000600052601160045260246000fd5b6000614d9182613cbe565b9150614d9c83613cbe565b925082614dac57614dab614d28565b5b828204905092915050565b7f4552433732313a207472616e736665722063616c6c6572206973206e6f74206f60008201527f776e6572206e6f7220617070726f766564000000000000000000000000000000602082015250565b6000614e13603183613c0e565b9150614e1e82614db7565b604082019050919050565b60006020820190508181036000830152614e4281614e06565b9050919050565b7f5061757361626c653a2070617573656400000000000000000000000000000000600082015250565b6000614e7f601083613c0e565b9150614e8a82614e49565b602082019050919050565b60006020820190508181036000830152614eae81614e72565b9050919050565b7f496e76616c696420767266526571756573740000000000000000000000000000600082015250565b6000614eeb601283613c0e565b9150614ef682614eb5565b602082019050919050565b60006020820190508181036000830152614f1a81614ede565b9050919050565b614f2a81613f58565b82525050565b6000602082019050614f456000830184614f21565b92915050565b600081519050614f5a81613f62565b92915050565b600081519050614f6f81613db5565b92915050565b600081519050614f848161407d565b92915050565b600081519050614f9981614044565b92915050565b600081519050614fae816140b6565b92915050565b600060a08284031215614fca57614fc961403f565b5b614fd460a0613ff3565b90506000614fe484828501614f4b565b6000830152506020614ff884828501614f60565b602083015250604061500c84828501614f75565b604083015250606061502084828501614f8a565b606083015250608061503484828501614f9f565b60808301525092915050565b600060a0828403121561505657615055613b3e565b5b600061506484828501614fb4565b91505092915050565b7f76726652657175657374206e6f7420666f756e64000000000000000000000000600082015250565b60006150a3601483613c0e565b91506150ae8261506d565b602082019050919050565b600060208201905081810360008301526150d281615096565b9050919050565b7f4f6e6c7920746865204d696e742063616e2066756c66696c6c00000000000000600082015250565b600061510f601983613c0e565b915061511a826150d9565b602082019050919050565b6000602082019050818103600083015261513e81615102565b9050919050565b600061515082613d7d565b915061ffff82141561516557615164614d57565b5b600182019050919050565b7f4e487b7100000000000000000000000000000000000000000000000000000000600052603260045260246000fd5b60006151aa82613cbe565b91507fffffffffffffffffffffffffffffffffffffffffffffffffffffffffffffffff8214156151dd576151dc614d57565b5b600182019050919050565b600081519050919050565b600082825260208201905092915050565b6000819050602082019050919050565b61521d81613d7d565b82525050565b600061522f8383615214565b60208301905092915050565b6000602082019050919050565b6000615253826151e8565b61525d81856151f3565b935061526883615204565b8060005b838110156152995781516152808882615223565b975061528b8361523b565b92505060018101905061526c565b5085935050505092915050565b60006040820190506152bb6000830185613d53565b81810360208301526152cd8184615248565b90509392505050565b7f454f41206f6e6c79000000000000000000000000000000000000000000000000600082015250565b600061530c600883613c0e565b9150615317826152d6565b602082019050919050565b6000602082019050818103600083015261533b816152ff565b9050919050565b600060c0820190506153576000830189613d53565b6153646020830188614404565b6153716040830187614451565b61537e6060830186613d8b565b61538b6080830185614451565b61539860a0830184614451565b979650505050505050565b6000602082840312156153b9576153b8613b3e565b5b60006153c784828501614f9f565b91505092915050565b60006080820190506153e56000830187613d53565b6153f26020830186614404565b6153ff6040830185613bd9565b61540c60608301846148a1565b95945050505050565b60006020828403121561542b5761542a613b3e565b5b600061543984828501614f4b565b91505092915050565b600061544d82613d7d565b915061545883613d7d565b92508261ffff0382111561546f5761546e614d57565b5b828201905092915050565b7f4552433732313a206f776e657220717565727920666f72206e6f6e657869737460008201527f656e7420746f6b656e0000000000000000000000000000000000000000000000602082015250565b60006154d6602983613c0e565b91506154e18261547a565b604082019050919050565b60006020820190508181036000830152615505816154c9565b9050919050565b7f4f6e6c7920636f6e74726f6c6c6572732063616e206578656375746500000000600082015250565b6000615542601c83613c0e565b915061554d8261550c565b602082019050919050565b6000602082019050818103600083015261557181615535565b9050919050565b600060c08201905061558d6000830189613bd9565b61559a6020830188614404565b6155a76040830187614404565b6155b460608301866148a1565b6155c160808301856148a1565b6155ce60a0830184614451565b979650505050505050565b600067ffffffffffffffff8211156155f4576155f3613f93565b5b6155fd82613c52565b9050602081019050919050565b600061561d615618846155d9565b613ff3565b9050828152602081018484840111156156395761563861472d565b5b615644848285613c1f565b509392505050565b600082601f83011261566157615660613f8e565b5b815161567184826020860161560a565b91505092915050565b60008060006060848603121561569357615692613b3e565b5b60006156a186828701614f75565b93505060206156b286828701614f75565b925050604084015167ffffffffffffffff8111156156d3576156d2613b43565b5b6156df8682870161564c565b9150509250925092565b7f4552433732313a2062616c616e636520717565727920666f7220746865207a6560008201527f726f206164647265737300000000000000000000000000000000000000000000602082015250565b6000615745602a83613c0e565b9150615750826156e9565b604082019050919050565b6000602082019050818103600083015261577481615738565b9050919050565b7f4552433732314d657461646174613a2055524920717565727920666f72206e6f60008201527f6e2d6578697374656e7420746f6b656e00000000000000000000000000000000602082015250565b60006157d7603083613c0e565b91506157e28261577b565b604082019050919050565b60006020820190508181036000830152615806816157ca565b9050919050565b60006020828403121561582357615822613b3e565b5b600082015167ffffffffffffffff81111561584157615840613b43565b5b61584d8482850161564c565b91505092915050565b7f4f776e61626c653a206e6577206f776e657220697320746865207a65726f206160008201527f6464726573730000000000000000000000000000000000000000000000000000602082015250565b60006158b2602683613c0e565b91506158bd82615856565b604082019050919050565b600060208201905081810360008301526158e1816158a5565b9050919050565b7f496e697469616c697a61626c653a20636f6e7472616374206973206e6f74206960008201527f6e697469616c697a696e67000000000000000000000000000000000000000000602082015250565b6000615944602b83613c0e565b915061594f826158e8565b604082019050919050565b6000602082019050818103600083015261597381615937565b9050919050565b7f4552433732313a206f70657261746f7220717565727920666f72206e6f6e657860008201527f697374656e7420746f6b656e0000000000000000000000000000000000000000602082015250565b60006159d6602c83613c0e565b91506159e18261597a565b604082019050919050565b60006020820190508181036000830152615a05816159c9565b9050919050565b7f4552433732313a207472616e73666572206f6620746f6b656e2074686174206960008201527f73206e6f74206f776e0000000000000000000000000000000000000000000000602082015250565b6000615a68602983613c0e565b9150615a7382615a0c565b604082019050919050565b60006020820190508181036000830152615a9781615a5b565b9050919050565b7f4552433732313a207472616e7366657220746f20746865207a65726f2061646460008201527f7265737300000000000000000000000000000000000000000000000000000000602082015250565b6000615afa602483613c0e565b9150615b0582615a9e565b604082019050919050565b60006020820190508181036000830152615b2981615aed565b9050919050565b6000615b3b82613cbe565b9150615b4683613cbe565b925082821015615b5957615b58614d57565b5b828203905092915050565b6000615b6f82613cbe565b9150615b7a83613cbe565b9250827fffffffffffffffffffffffffffffffffffffffffffffffffffffffffffffffff03821115615baf57615bae614d57565b5b828201905092915050565b7f5061757361626c653a206e6f7420706175736564000000000000000000000000600082015250565b6000615bf0601483613c0e565b9150615bfb82615bba565b602082019050919050565b60006020820190508181036000830152615c1f81615be3565b9050919050565b7f4552433732313a20617070726f766520746f2063616c6c657200000000000000600082015250565b6000615c5c601983613c0e565b9150615c6782615c26565b602082019050919050565b60006020820190508181036000830152615c8b81615c4f565b9050919050565b7f4552433732313a207472616e7366657220746f206e6f6e20455243373231526560008201527f63656976657220696d706c656d656e7465720000000000000000000000000000602082015250565b6000615cee603283613c0e565b9150615cf982615c92565b604082019050919050565b60006020820190508181036000830152615d1d81615ce1565b9050919050565b600081519050919050565b600082825260208201905092915050565b6000615d4b82615d24565b615d558185615d2f565b9350615d65818560208601613c1f565b615d6e81613c52565b840191505092915050565b6000608082019050615d8e6000830187613d53565b615d9b6020830186613d53565b615da86040830185614451565b8181036060830152615dba8184615d40565b905095945050505050565b600081519050615dd481613b74565b92915050565b600060208284031215615df057615def613b3e565b5b6000615dfe84828501615dc5565b91505092915050565b7f4552433732313a206d696e7420746f20746865207a65726f2061646472657373600082015250565b6000615e3d602083613c0e565b9150615e4882615e07565b602082019050919050565b60006020820190508181036000830152615e6c81615e30565b9050919050565b7f4552433732313a20746f6b656e20616c7265616479206d696e74656400000000600082015250565b6000615ea9601c83613c0e565b9150615eb482615e73565b602082019050919050565b60006020820190508181036000830152615ed881615e9c565b905091905056fea2646970667358221220fef2160d4b45af1742c04316e66ae3d7b7512102166528ef781d00dc81410f5564736f6c634300080a0033",
  "immutableReferences": {},
  "source": "// SPDX-License-Identifier: MIT\n\npragma solidity ^0.8.0;\n\nimport \"@openzeppelin/contracts-upgradeable/proxy/utils/Initializable.sol\";\nimport \"@openzeppelin/contracts-upgradeable/token/ERC721/ERC721Upgradeable.sol\";\nimport \"./GenericPausable.sol\";\nimport \"./ControllableUpgradeable.sol\";\nimport \"./ICharacter.sol\";\nimport \"./IMint.sol\";\nimport \"./ITraits.sol\";\nimport \"./IProperties.sol\";\nimport \"./IVenue.sol\";\nimport \"./IPaywall.sol\";\n\ncontract Character is ICharacter, Initializable, OwnableUpgradeable, GenericPausable, ERC721Upgradeable, ControllableUpgradeable {\n  uint16 public paid;\n  uint16 public minted;\n  uint16 public numChefs;\n  uint16 public numRats;\n  uint256 public maxTokens; // Max number of tokens that can be minted\n  uint256 gen0Tokens; // Number of tokens that are purchased with native token\n\n  mapping(uint256 => CharacterStruct) public tokenTraits; // Mapping from tokenId to a struct containing the token's traits\n\n  IMint public theMint; // Reference to Mint\n  ITraits public traits; // Reference to Traits\n  IProperties public properties; // Reference to Properties\n  IVenue public kitchen;\n  IPaywall public paywall;\n  address payable public dao;\n\n  function initialize(\n    address _paywall,\n    address _mint,\n    address _traits,\n    address _properties,\n    address _dao\n  ) external initializer {\n    __Ownable_init();\n    __Pausable_init();\n    __ERC721_init(\"RatAlert Characters\", \"RATCAST\");\n\n    paywall = IPaywall(_paywall);\n    theMint = IMint(_mint);\n    traits = ITraits(_traits);\n    properties = IProperties(_properties);\n    dao = payable(_dao);\n  }\n\n  /**\n   * Allows DAO to update game parameters\n   */\n  function configure(uint256 _maxTokens) external onlyOwner {\n    maxTokens = _maxTokens;\n    gen0Tokens = _maxTokens / 5;\n  }\n\n  /**\n   * ChainLink VRF request: Mints a new ERC721 token: 90% chefs, 10% rats\n   * The first 20% are purchased with native token, the remaining cost $FFOOD\n   * @param amount Number of tokens to mint\n   * @param stake Number of tokens to mint\n   */\n  function mint(uint8 amount, bool stake) external payable whenNotPaused {\n    require(tx.origin == _msgSender(), \"EOA only\");\n    int8 boost = paywall.handle(_msgSender(), amount, msg.value, paid, maxTokens, gen0Tokens);\n    if (msg.value > 0) {\n      dao.transfer(msg.value); // Transfer to Gnosis Safe\n    }\n    theMint.requestRandomNumber(_msgSender(), amount, stake, boost);\n    paid += amount;\n  }\n\n  /**\n   * Callback for mint(), called by Mint.fulfillRandomness()\n   * @param requestId - The VRF request ID\n   * @param tokens - List of characters created by the Mint\n   */\n  function fulfillMint(bytes32 requestId, CharacterStruct[] memory tokens) external whenNotPaused {\n    require(requestId != 0, \"Invalid vrfRequest\");\n    IMint.VRFStruct memory v = theMint.getVrfRequest(requestId);\n    require(requestId == v.requestId, \"vrfRequest not found\");\n    require(msg.sender == address(theMint), \"Only the Mint can fulfill\");\n    uint16[] memory tokenIds = new uint16[](v.amount);\n    for (uint i = 0; i < v.amount; i++) {\n      minted ++;\n      _safeMint(v.stake ? address(kitchen) : v.sender, minted);\n      tokenIds[i] = minted;\n      tokenTraits[minted] = tokens[i];\n      tokens[i].isChef ? numChefs++ : numRats++;\n    }\n    if (v.stake) kitchen.stakeMany(v.sender, tokenIds);\n  }\n\n  function updateCharacter(uint256 tokenId, int8 efficiencyIncrement, int8 toleranceIncrement, uint256 randomVal) public onlyController returns(uint8 efficiencyValue, uint8 toleranceValue, string memory eventName) {\n    bool isChef = tokenTraits[tokenId].isChef;\n    uint8 currentEfficiency = tokenTraits[tokenId].efficiency;\n    uint8 currentTolerance = tokenTraits[tokenId].tolerance;\n    (efficiencyValue, toleranceValue, eventName) = properties.getEventUpdates(isChef, currentEfficiency, currentTolerance, efficiencyIncrement, toleranceIncrement, randomVal);\n    tokenTraits[tokenId].efficiency = efficiencyValue;\n    tokenTraits[tokenId].tolerance = toleranceValue;\n  }\n\n  function tokenURI(uint256 tokenId) public view override returns (string memory) {\n    require(_exists(tokenId), \"ERC721Metadata: URI query for non-existent token\");\n    return traits.tokenURI(tokenId);\n  }\n\n  function getTokenTraits(uint256 tokenId) external view override returns (CharacterStruct memory) {\n    require(_exists(tokenId), \"ERC721Metadata: URI query for non-existent token\");\n    return tokenTraits[tokenId];\n  }\n\n  function getGen0Tokens() external view override returns (uint256) {\n    return gen0Tokens;\n  }\n\n  /**\n   * Sets the kitchen address to optionally stake newly minted characters in\n   * @param _kitchen - The address of the Kitchen\n   */\n  function setKitchen(address _kitchen) external onlyOwner {\n    kitchen = IVenue(_kitchen);\n  }\n}\n",
  "sourcePath": "/Users/chris/workspace/ratalert/ratalert-contracts/contracts/Character.sol",
  "compiler": {
    "name": "solc",
    "version": "0.8.10+commit.fc410830.Emscripten.clang"
  },
  "schemaVersion": "3.4.6",
  "updatedAt": "2022-03-20T17:25:40.353Z",
  "networkType": "ethereum",
  "devdoc": {
    "kind": "dev",
    "methods": {
      "addController(address[])": {
        "params": {
          "_controllers": "- The addresses to enable"
        }
      },
      "approve(address,uint256)": {
        "details": "See {IERC721-approve}."
      },
      "balanceOf(address)": {
        "details": "See {IERC721-balanceOf}."
      },
      "controller(address)": {
        "params": {
          "_controller": "- The address to check"
        }
      },
      "fulfillMint(bytes32,(bool,uint8,uint8,uint8,uint8,uint8,uint8,uint8,uint8,uint8,int8)[])": {
        "params": {
          "requestId": "- The VRF request ID",
          "tokens": "- List of characters created by the Mint"
        }
      },
      "getApproved(uint256)": {
        "details": "See {IERC721-getApproved}."
      },
      "isApprovedForAll(address,address)": {
        "details": "See {IERC721-isApprovedForAll}."
      },
      "mint(uint8,bool)": {
        "params": {
          "amount": "Number of tokens to mint",
          "stake": "Number of tokens to mint"
        }
      },
      "name()": {
        "details": "See {IERC721Metadata-name}."
      },
      "owner()": {
        "details": "Returns the address of the current owner."
      },
      "ownerOf(uint256)": {
        "details": "See {IERC721-ownerOf}."
      },
      "paused()": {
        "details": "Returns true if the contract is paused, and false otherwise."
      },
      "removeController(address[])": {
        "params": {
          "_controllers": "- The addresses to disable"
        }
      },
      "renounceOwnership()": {
        "details": "Leaves the contract without owner. It will not be possible to call `onlyOwner` functions anymore. Can only be called by the current owner. NOTE: Renouncing ownership will leave the contract without an owner, thereby removing any functionality that is only available to the owner."
      },
      "safeTransferFrom(address,address,uint256)": {
        "details": "See {IERC721-safeTransferFrom}."
      },
      "safeTransferFrom(address,address,uint256,bytes)": {
        "details": "See {IERC721-safeTransferFrom}."
      },
      "setApprovalForAll(address,bool)": {
        "details": "See {IERC721-setApprovalForAll}."
      },
      "setKitchen(address)": {
        "params": {
          "_kitchen": "- The address of the Kitchen"
        }
      },
      "supportsInterface(bytes4)": {
        "details": "See {IERC165-supportsInterface}."
      },
      "symbol()": {
        "details": "See {IERC721Metadata-symbol}."
      },
      "tokenURI(uint256)": {
        "details": "See {IERC721Metadata-tokenURI}."
      },
      "transferFrom(address,address,uint256)": {
        "details": "See {IERC721-transferFrom}."
      },
      "transferOwnership(address)": {
        "details": "Transfers ownership of the contract to a new account (`newOwner`). Can only be called by the current owner."
      }
    },
    "version": 1
  },
  "userdoc": {
    "kind": "user",
    "methods": {
      "addController(address[])": {
        "notice": "Enables multiple addresses to execute"
      },
      "configure(uint256)": {
        "notice": "Allows DAO to update game parameters"
      },
      "controller(address)": {
        "notice": "Gets controller status by address"
      },
      "fulfillMint(bytes32,(bool,uint8,uint8,uint8,uint8,uint8,uint8,uint8,uint8,uint8,int8)[])": {
        "notice": "Callback for mint(), called by Mint.fulfillRandomness()"
      },
      "mint(uint8,bool)": {
        "notice": "ChainLink VRF request: Mints a new ERC721 token: 90% chefs, 10% rats The first 20% are purchased with native token, the remaining cost $FFOOD"
      },
      "removeController(address[])": {
        "notice": "Prevents multiple addresses from executing"
      },
      "setKitchen(address)": {
        "notice": "Sets the kitchen address to optionally stake newly minted characters in"
      }
    },
    "version": 1
  }
}