{
  "contractName": "Character",
  "abi": [
    {
      "anonymous": false,
      "inputs": [
        {
          "indexed": true,
          "internalType": "address",
          "name": "owner",
          "type": "address"
        },
        {
          "indexed": true,
          "internalType": "address",
          "name": "approved",
          "type": "address"
        },
        {
          "indexed": true,
          "internalType": "uint256",
          "name": "tokenId",
          "type": "uint256"
        }
      ],
      "name": "Approval",
      "type": "event"
    },
    {
      "anonymous": false,
      "inputs": [
        {
          "indexed": true,
          "internalType": "address",
          "name": "owner",
          "type": "address"
        },
        {
          "indexed": true,
          "internalType": "address",
          "name": "operator",
          "type": "address"
        },
        {
          "indexed": false,
          "internalType": "bool",
          "name": "approved",
          "type": "bool"
        }
      ],
      "name": "ApprovalForAll",
      "type": "event"
    },
    {
      "anonymous": false,
      "inputs": [
        {
          "indexed": true,
          "internalType": "address",
          "name": "previousOwner",
          "type": "address"
        },
        {
          "indexed": true,
          "internalType": "address",
          "name": "newOwner",
          "type": "address"
        }
      ],
      "name": "OwnershipTransferred",
      "type": "event"
    },
    {
      "anonymous": false,
      "inputs": [
        {
          "indexed": false,
          "internalType": "address",
          "name": "account",
          "type": "address"
        }
      ],
      "name": "Paused",
      "type": "event"
    },
    {
      "anonymous": false,
      "inputs": [
        {
          "indexed": true,
          "internalType": "address",
          "name": "from",
          "type": "address"
        },
        {
          "indexed": true,
          "internalType": "address",
          "name": "to",
          "type": "address"
        },
        {
          "indexed": true,
          "internalType": "uint256",
          "name": "tokenId",
          "type": "uint256"
        }
      ],
      "name": "Transfer",
      "type": "event"
    },
    {
      "anonymous": false,
      "inputs": [
        {
          "indexed": false,
          "internalType": "address",
          "name": "account",
          "type": "address"
        }
      ],
      "name": "Unpaused",
      "type": "event"
    },
    {
      "inputs": [
        {
          "internalType": "address[]",
          "name": "_controllers",
          "type": "address[]"
        }
      ],
      "name": "addController",
      "outputs": [],
      "stateMutability": "nonpayable",
      "type": "function"
    },
    {
      "inputs": [
        {
          "internalType": "address",
          "name": "to",
          "type": "address"
        },
        {
          "internalType": "uint256",
          "name": "tokenId",
          "type": "uint256"
        }
      ],
      "name": "approve",
      "outputs": [],
      "stateMutability": "nonpayable",
      "type": "function"
    },
    {
      "inputs": [
        {
          "internalType": "address",
          "name": "owner",
          "type": "address"
        }
      ],
      "name": "balanceOf",
      "outputs": [
        {
          "internalType": "uint256",
          "name": "",
          "type": "uint256"
        }
      ],
      "stateMutability": "view",
      "type": "function",
      "constant": true
    },
    {
      "inputs": [
        {
          "internalType": "address",
          "name": "_controller",
          "type": "address"
        }
      ],
      "name": "controller",
      "outputs": [
        {
          "internalType": "bool",
          "name": "",
          "type": "bool"
        }
      ],
      "stateMutability": "view",
      "type": "function",
      "constant": true
    },
    {
      "inputs": [
        {
          "internalType": "uint256",
          "name": "tokenId",
          "type": "uint256"
        }
      ],
      "name": "getApproved",
      "outputs": [
        {
          "internalType": "address",
          "name": "",
          "type": "address"
        }
      ],
      "stateMutability": "view",
      "type": "function",
      "constant": true
    },
    {
      "inputs": [
        {
          "internalType": "address",
          "name": "owner",
          "type": "address"
        },
        {
          "internalType": "address",
          "name": "operator",
          "type": "address"
        }
      ],
      "name": "isApprovedForAll",
      "outputs": [
        {
          "internalType": "bool",
          "name": "",
          "type": "bool"
        }
      ],
      "stateMutability": "view",
      "type": "function",
      "constant": true
    },
    {
      "inputs": [],
      "name": "maxTokens",
      "outputs": [
        {
          "internalType": "uint256",
          "name": "",
          "type": "uint256"
        }
      ],
      "stateMutability": "view",
      "type": "function",
      "constant": true
    },
    {
      "inputs": [],
      "name": "minted",
      "outputs": [
        {
          "internalType": "uint16",
          "name": "",
          "type": "uint16"
        }
      ],
      "stateMutability": "view",
      "type": "function",
      "constant": true
    },
    {
      "inputs": [],
      "name": "name",
      "outputs": [
        {
          "internalType": "string",
          "name": "",
          "type": "string"
        }
      ],
      "stateMutability": "view",
      "type": "function",
      "constant": true
    },
    {
      "inputs": [],
      "name": "numChefs",
      "outputs": [
        {
          "internalType": "uint16",
          "name": "",
          "type": "uint16"
        }
      ],
      "stateMutability": "view",
      "type": "function",
      "constant": true
    },
    {
      "inputs": [],
      "name": "numRats",
      "outputs": [
        {
          "internalType": "uint16",
          "name": "",
          "type": "uint16"
        }
      ],
      "stateMutability": "view",
      "type": "function",
      "constant": true
    },
    {
      "inputs": [],
      "name": "owner",
      "outputs": [
        {
          "internalType": "address",
          "name": "",
          "type": "address"
        }
      ],
      "stateMutability": "view",
      "type": "function",
      "constant": true
    },
    {
      "inputs": [
        {
          "internalType": "uint256",
          "name": "tokenId",
          "type": "uint256"
        }
      ],
      "name": "ownerOf",
      "outputs": [
        {
          "internalType": "address",
          "name": "",
          "type": "address"
        }
      ],
      "stateMutability": "view",
      "type": "function",
      "constant": true
    },
    {
      "inputs": [],
      "name": "paid",
      "outputs": [
        {
          "internalType": "uint16",
          "name": "",
          "type": "uint16"
        }
      ],
      "stateMutability": "view",
      "type": "function",
      "constant": true
    },
    {
      "inputs": [],
      "name": "pause",
      "outputs": [],
      "stateMutability": "nonpayable",
      "type": "function"
    },
    {
      "inputs": [],
      "name": "paused",
      "outputs": [
        {
          "internalType": "bool",
          "name": "",
          "type": "bool"
        }
      ],
      "stateMutability": "view",
      "type": "function",
      "constant": true
    },
    {
      "inputs": [],
      "name": "properties",
      "outputs": [
        {
          "internalType": "contract IProperties",
          "name": "",
          "type": "address"
        }
      ],
      "stateMutability": "view",
      "type": "function",
      "constant": true
    },
    {
      "inputs": [
        {
          "internalType": "address[]",
          "name": "_controllers",
          "type": "address[]"
        }
      ],
      "name": "removeController",
      "outputs": [],
      "stateMutability": "nonpayable",
      "type": "function"
    },
    {
      "inputs": [],
      "name": "renounceOwnership",
      "outputs": [],
      "stateMutability": "nonpayable",
      "type": "function"
    },
    {
      "inputs": [
        {
          "internalType": "address",
          "name": "from",
          "type": "address"
        },
        {
          "internalType": "address",
          "name": "to",
          "type": "address"
        },
        {
          "internalType": "uint256",
          "name": "tokenId",
          "type": "uint256"
        }
      ],
      "name": "safeTransferFrom",
      "outputs": [],
      "stateMutability": "nonpayable",
      "type": "function"
    },
    {
      "inputs": [
        {
          "internalType": "address",
          "name": "from",
          "type": "address"
        },
        {
          "internalType": "address",
          "name": "to",
          "type": "address"
        },
        {
          "internalType": "uint256",
          "name": "tokenId",
          "type": "uint256"
        },
        {
          "internalType": "bytes",
          "name": "_data",
          "type": "bytes"
        }
      ],
      "name": "safeTransferFrom",
      "outputs": [],
      "stateMutability": "nonpayable",
      "type": "function"
    },
    {
      "inputs": [
        {
          "internalType": "address",
          "name": "operator",
          "type": "address"
        },
        {
          "internalType": "bool",
          "name": "approved",
          "type": "bool"
        }
      ],
      "name": "setApprovalForAll",
      "outputs": [],
      "stateMutability": "nonpayable",
      "type": "function"
    },
    {
      "inputs": [
        {
          "internalType": "address",
          "name": "_dao",
          "type": "address"
        }
      ],
      "name": "setDao",
      "outputs": [],
      "stateMutability": "nonpayable",
      "type": "function"
    },
    {
      "inputs": [
        {
          "internalType": "bytes4",
          "name": "interfaceId",
          "type": "bytes4"
        }
      ],
      "name": "supportsInterface",
      "outputs": [
        {
          "internalType": "bool",
          "name": "",
          "type": "bool"
        }
      ],
      "stateMutability": "view",
      "type": "function",
      "constant": true
    },
    {
      "inputs": [],
      "name": "symbol",
      "outputs": [
        {
          "internalType": "string",
          "name": "",
          "type": "string"
        }
      ],
      "stateMutability": "view",
      "type": "function",
      "constant": true
    },
    {
      "inputs": [],
      "name": "theMint",
      "outputs": [
        {
          "internalType": "contract IMint",
          "name": "",
          "type": "address"
        }
      ],
      "stateMutability": "view",
      "type": "function",
      "constant": true
    },
    {
      "inputs": [
        {
          "internalType": "uint256",
          "name": "",
          "type": "uint256"
        }
      ],
      "name": "tokenTraits",
      "outputs": [
        {
          "internalType": "bool",
          "name": "isChef",
          "type": "bool"
        },
        {
          "internalType": "uint8",
          "name": "hat",
          "type": "uint8"
        },
        {
          "internalType": "uint8",
          "name": "eyes",
          "type": "uint8"
        },
        {
          "internalType": "uint8",
          "name": "piercing",
          "type": "uint8"
        },
        {
          "internalType": "uint8",
          "name": "mouth",
          "type": "uint8"
        },
        {
          "internalType": "uint8",
          "name": "neck",
          "type": "uint8"
        },
        {
          "internalType": "uint8",
          "name": "hand",
          "type": "uint8"
        },
        {
          "internalType": "uint8",
          "name": "tail",
          "type": "uint8"
        },
        {
          "internalType": "uint8",
          "name": "efficiency",
          "type": "uint8"
        },
        {
          "internalType": "uint8",
          "name": "tolerance",
          "type": "uint8"
        },
        {
          "internalType": "int8",
          "name": "boost",
          "type": "int8"
        }
      ],
      "stateMutability": "view",
      "type": "function",
      "constant": true
    },
    {
      "inputs": [],
      "name": "traits",
      "outputs": [
        {
          "internalType": "contract ITraits",
          "name": "",
          "type": "address"
        }
      ],
      "stateMutability": "view",
      "type": "function",
      "constant": true
    },
    {
      "inputs": [
        {
          "internalType": "address",
          "name": "from",
          "type": "address"
        },
        {
          "internalType": "address",
          "name": "to",
          "type": "address"
        },
        {
          "internalType": "uint256",
          "name": "tokenId",
          "type": "uint256"
        }
      ],
      "name": "transferFrom",
      "outputs": [],
      "stateMutability": "nonpayable",
      "type": "function"
    },
    {
      "inputs": [
        {
          "internalType": "address",
          "name": "newOwner",
          "type": "address"
        }
      ],
      "name": "transferOwnership",
      "outputs": [],
      "stateMutability": "nonpayable",
      "type": "function"
    },
    {
      "inputs": [],
      "name": "unpause",
      "outputs": [],
      "stateMutability": "nonpayable",
      "type": "function"
    },
    {
      "inputs": [
        {
          "internalType": "address",
          "name": "_paywall",
          "type": "address"
        },
        {
          "internalType": "address",
          "name": "_mint",
          "type": "address"
        },
        {
          "internalType": "address",
          "name": "_traits",
          "type": "address"
        }
      ],
      "name": "initialize",
      "outputs": [],
      "stateMutability": "nonpayable",
      "type": "function"
    },
    {
      "inputs": [
        {
          "internalType": "uint256",
          "name": "_maxTokens",
          "type": "uint256"
        },
        {
          "internalType": "uint256",
          "name": "_gen0Tokens",
          "type": "uint256"
        },
        {
          "internalType": "address",
          "name": "_properties",
          "type": "address"
        }
      ],
      "name": "configure",
      "outputs": [],
      "stateMutability": "nonpayable",
      "type": "function"
    },
    {
      "inputs": [
        {
          "internalType": "uint8",
          "name": "amount",
          "type": "uint8"
        },
        {
          "internalType": "bool",
          "name": "stake",
          "type": "bool"
        }
      ],
      "name": "mint",
      "outputs": [],
      "stateMutability": "payable",
      "type": "function",
      "payable": true
    },
    {
      "inputs": [
        {
          "components": [
            {
              "internalType": "bytes32",
              "name": "requestId",
              "type": "bytes32"
            },
            {
              "internalType": "address",
              "name": "sender",
              "type": "address"
            },
            {
              "internalType": "uint8",
              "name": "amount",
              "type": "uint8"
            },
            {
              "internalType": "bool",
              "name": "stake",
              "type": "bool"
            },
            {
              "internalType": "int8",
              "name": "boost",
              "type": "int8"
            }
          ],
          "internalType": "struct IMint.VRFStruct",
          "name": "v",
          "type": "tuple"
        },
        {
          "components": [
            {
              "internalType": "bool",
              "name": "isChef",
              "type": "bool"
            },
            {
              "internalType": "uint8",
              "name": "hat",
              "type": "uint8"
            },
            {
              "internalType": "uint8",
              "name": "eyes",
              "type": "uint8"
            },
            {
              "internalType": "uint8",
              "name": "piercing",
              "type": "uint8"
            },
            {
              "internalType": "uint8",
              "name": "mouth",
              "type": "uint8"
            },
            {
              "internalType": "uint8",
              "name": "neck",
              "type": "uint8"
            },
            {
              "internalType": "uint8",
              "name": "hand",
              "type": "uint8"
            },
            {
              "internalType": "uint8",
              "name": "tail",
              "type": "uint8"
            },
            {
              "internalType": "uint8",
              "name": "efficiency",
              "type": "uint8"
            },
            {
              "internalType": "uint8",
              "name": "tolerance",
              "type": "uint8"
            },
            {
              "internalType": "int8",
              "name": "boost",
              "type": "int8"
            }
          ],
          "internalType": "struct ICharacter.CharacterStruct[]",
          "name": "tokens",
          "type": "tuple[]"
        }
      ],
      "name": "fulfillMint",
      "outputs": [],
      "stateMutability": "nonpayable",
      "type": "function"
    },
    {
      "inputs": [
        {
          "internalType": "uint256",
          "name": "tokenId",
          "type": "uint256"
        },
        {
          "internalType": "int8",
          "name": "efficiencyIncrement",
          "type": "int8"
        },
        {
          "internalType": "int8",
          "name": "toleranceIncrement",
          "type": "int8"
        },
        {
          "internalType": "uint256",
          "name": "randomVal",
          "type": "uint256"
        }
      ],
      "name": "updateCharacter",
      "outputs": [
        {
          "internalType": "uint8",
          "name": "efficiencyValue",
          "type": "uint8"
        },
        {
          "internalType": "uint8",
          "name": "toleranceValue",
          "type": "uint8"
        },
        {
          "internalType": "string",
          "name": "eventName",
          "type": "string"
        }
      ],
      "stateMutability": "nonpayable",
      "type": "function"
    },
    {
      "inputs": [
        {
          "internalType": "uint256",
          "name": "tokenId",
          "type": "uint256"
        }
      ],
      "name": "tokenURI",
      "outputs": [
        {
          "internalType": "string",
          "name": "",
          "type": "string"
        }
      ],
      "stateMutability": "view",
      "type": "function",
      "constant": true
    },
    {
      "inputs": [
        {
          "internalType": "uint256",
          "name": "tokenId",
          "type": "uint256"
        }
      ],
      "name": "getTokenTraits",
      "outputs": [
        {
          "components": [
            {
              "internalType": "bool",
              "name": "isChef",
              "type": "bool"
            },
            {
              "internalType": "uint8",
              "name": "hat",
              "type": "uint8"
            },
            {
              "internalType": "uint8",
              "name": "eyes",
              "type": "uint8"
            },
            {
              "internalType": "uint8",
              "name": "piercing",
              "type": "uint8"
            },
            {
              "internalType": "uint8",
              "name": "mouth",
              "type": "uint8"
            },
            {
              "internalType": "uint8",
              "name": "neck",
              "type": "uint8"
            },
            {
              "internalType": "uint8",
              "name": "hand",
              "type": "uint8"
            },
            {
              "internalType": "uint8",
              "name": "tail",
              "type": "uint8"
            },
            {
              "internalType": "uint8",
              "name": "efficiency",
              "type": "uint8"
            },
            {
              "internalType": "uint8",
              "name": "tolerance",
              "type": "uint8"
            },
            {
              "internalType": "int8",
              "name": "boost",
              "type": "int8"
            }
          ],
          "internalType": "struct ICharacter.CharacterStruct",
          "name": "",
          "type": "tuple"
        }
      ],
      "stateMutability": "view",
      "type": "function",
      "constant": true
    },
    {
      "inputs": [],
      "name": "getGen0Tokens",
      "outputs": [
        {
          "internalType": "uint256",
          "name": "",
          "type": "uint256"
        }
      ],
      "stateMutability": "view",
      "type": "function",
      "constant": true
    },
    {
      "inputs": [],
      "name": "withdrawPayments",
      "outputs": [],
      "stateMutability": "nonpayable",
      "type": "function"
    },
    {
      "inputs": [
        {
          "internalType": "address",
          "name": "_kitchen",
          "type": "address"
        }
      ],
      "name": "setKitchen",
      "outputs": [],
      "stateMutability": "nonpayable",
      "type": "function"
    }
  ],
  "bytecode": "0x608060405234801561001057600080fd5b50615b4780620000216000396000f3fe6080604052600436106102465760003560e01c8063715018a611610139578063b88d4fde116100b6578063e05c57bf1161007a578063e05c57bf14610847578063e1fc334f1461088e578063e8315742146108b9578063e985e9c5146108e4578063f2fde38b14610921578063fcd802b11461094a57610246565b8063b88d4fde14610750578063c0c53b8b14610779578063c13aa7b5146107a2578063c87b56dd146107df578063d39f8a4d1461081c57610246565b806392c405b6116100fd57806392c405b61461066d57806394e568471461069657806395d89b41146106d3578063a22cb465146106fe578063a83a72021461072757610246565b8063715018a6146105be5780637856f945146105d55780638456cb59146106005780638da5cb5b146106175780639284521c1461064257610246565b806342842e0e116101c75780636352211e1161018b5780636352211e146104b357806363dbfc77146104f05780636637b8821461052f5780636931a2ba1461055857806370a082311461058157610246565b806342842e0e146104015780634f02c4201461042a5780635c975abb146104555780636103d70b14610480578063612bfba41461049757610246565b80631ca52eb91161020e5780631ca52eb91461034457806323b872dd1461036d578063295b4e1714610396578063337f2847146103c15780633f4ba83a146103ea57610246565b806301ffc9a71461024b57806306fdde0314610288578063081812fc146102b35780630917e40d146102f0578063095ea7b31461031b575b600080fd5b34801561025757600080fd5b50610272600480360381019061026d919061393c565b610975565b60405161027f9190613984565b60405180910390f35b34801561029457600080fd5b5061029d610a57565b6040516102aa9190613a38565b60405180910390f35b3480156102bf57600080fd5b506102da60048036038101906102d59190613a90565b610ae9565b6040516102e79190613afe565b60405180910390f35b3480156102fc57600080fd5b50610305610b6f565b6040516103129190613b36565b60405180910390f35b34801561032757600080fd5b50610342600480360381019061033d9190613b7d565b610b84565b005b34801561035057600080fd5b5061036b60048036038101906103669190613bbd565b610c9c565b005b34801561037957600080fd5b50610394600480360381019061038f9190613c10565b610d6f565b005b3480156103a257600080fd5b506103ab610dcf565b6040516103b89190613b36565b60405180910390f35b3480156103cd57600080fd5b506103e860048036038101906103e39190613c63565b610de4565b005b3480156103f657600080fd5b506103ff610ea5565b005b34801561040d57600080fd5b5061042860048036038101906104239190613c10565b610eb7565b005b34801561043657600080fd5b5061043f610ed7565b60405161044c9190613b36565b60405180910390f35b34801561046157600080fd5b5061046a610eec565b6040516104779190613984565b60405180910390f35b34801561048c57600080fd5b50610495610f03565b005b6104b160048036038101906104ac9190613cf5565b610f76565b005b3480156104bf57600080fd5b506104da60048036038101906104d59190613a90565b6111ed565b6040516104e79190613afe565b60405180910390f35b3480156104fc57600080fd5b5061051760048036038101906105129190613d6e565b61129f565b60405161052693929190613de4565b60405180910390f35b34801561053b57600080fd5b5061055660048036038101906105519190613c63565b61144e565b005b34801561056457600080fd5b5061057f600480360381019061057a919061413f565b61150e565b005b34801561058d57600080fd5b506105a860048036038101906105a39190613c63565b611a7f565b6040516105b591906141aa565b60405180910390f35b3480156105ca57600080fd5b506105d3611b37565b005b3480156105e157600080fd5b506105ea611bbf565b6040516105f791906141aa565b60405180910390f35b34801561060c57600080fd5b50610615611bca565b005b34801561062357600080fd5b5061062c611bdc565b6040516106399190613afe565b60405180910390f35b34801561064e57600080fd5b50610657611c06565b6040516106649190614224565b60405180910390f35b34801561067957600080fd5b50610694600480360381019061068f9190614302565b611c2d565b005b3480156106a257600080fd5b506106bd60048036038101906106b89190613a90565b611d3f565b6040516106ca9190614459565b60405180910390f35b3480156106df57600080fd5b506106e8611ef3565b6040516106f59190613a38565b60405180910390f35b34801561070a57600080fd5b5061072560048036038101906107209190614475565b611f85565b005b34801561073357600080fd5b5061074e60048036038101906107499190614302565b611f9b565b005b34801561075c57600080fd5b506107776004803603810190610772919061456a565b6120ad565b005b34801561078557600080fd5b506107a0600480360381019061079b91906145ed565b61210f565b005b3480156107ae57600080fd5b506107c960048036038101906107c49190613c63565b612340565b6040516107d69190613984565b60405180910390f35b3480156107eb57600080fd5b5061080660048036038101906108019190613a90565b612397565b6040516108139190613a38565b60405180910390f35b34801561082857600080fd5b5061083161248a565b60405161083e9190613b36565b60405180910390f35b34801561085357600080fd5b5061086e60048036038101906108699190613a90565b61249f565b6040516108859b9a9998979695949392919061464f565b60405180910390f35b34801561089a57600080fd5b506108a3612589565b6040516108b0919061471b565b60405180910390f35b3480156108c557600080fd5b506108ce6125b0565b6040516108db91906141aa565b60405180910390f35b3480156108f057600080fd5b5061090b60048036038101906109069190614736565b6125b7565b6040516109189190613984565b60405180910390f35b34801561092d57600080fd5b5061094860048036038101906109439190613c63565b61264c565b005b34801561095657600080fd5b5061095f612744565b60405161096c9190614797565b60405180910390f35b60007f80ac58cd000000000000000000000000000000000000000000000000000000007bffffffffffffffffffffffffffffffffffffffffffffffffffffffff1916827bffffffffffffffffffffffffffffffffffffffffffffffffffffffff19161480610a4057507f5b5e139f000000000000000000000000000000000000000000000000000000007bffffffffffffffffffffffffffffffffffffffffffffffffffffffff1916827bffffffffffffffffffffffffffffffffffffffffffffffffffffffff1916145b80610a505750610a4f8261276b565b5b9050919050565b606060fc8054610a66906147e1565b80601f0160208091040260200160405190810160405280929190818152602001828054610a92906147e1565b8015610adf5780601f10610ab457610100808354040283529160200191610adf565b820191906000526020600020905b815481529060010190602001808311610ac257829003601f168201915b5050505050905090565b6000610af4826127d5565b610b33576040517f08c379a0000000000000000000000000000000000000000000000000000000008152600401610b2a90614885565b60405180910390fd5b610100600083815260200190815260200160002060009054906101000a900473ffffffffffffffffffffffffffffffffffffffff169050919050565b61012f60069054906101000a900461ffff1681565b6000610b8f826111ed565b90508073ffffffffffffffffffffffffffffffffffffffff168373ffffffffffffffffffffffffffffffffffffffff161415610c00576040517f08c379a0000000000000000000000000000000000000000000000000000000008152600401610bf790614917565b60405180910390fd5b8073ffffffffffffffffffffffffffffffffffffffff16610c1f612841565b73ffffffffffffffffffffffffffffffffffffffff161480610c4e5750610c4d81610c48612841565b6125b7565b5b610c8d576040517f08c379a0000000000000000000000000000000000000000000000000000000008152600401610c84906149a9565b60405180910390fd5b610c978383612849565b505050565b610ca4612841565b73ffffffffffffffffffffffffffffffffffffffff16610cc2611bdc565b73ffffffffffffffffffffffffffffffffffffffff1614610d18576040517f08c379a0000000000000000000000000000000000000000000000000000000008152600401610d0f90614a15565b60405180910390fd5b826101308190555081610131819055508061013560006101000a81548173ffffffffffffffffffffffffffffffffffffffff021916908373ffffffffffffffffffffffffffffffffffffffff160217905550505050565b610d80610d7a612841565b82612903565b610dbf576040517f08c379a0000000000000000000000000000000000000000000000000000000008152600401610db690614aa7565b60405180910390fd5b610dca8383836129e1565b505050565b61012f60009054906101000a900461ffff1681565b610dec612841565b73ffffffffffffffffffffffffffffffffffffffff16610e0a611bdc565b73ffffffffffffffffffffffffffffffffffffffff1614610e60576040517f08c379a0000000000000000000000000000000000000000000000000000000008152600401610e5790614a15565b60405180910390fd5b8061013660006101000a81548173ffffffffffffffffffffffffffffffffffffffff021916908373ffffffffffffffffffffffffffffffffffffffff16021790555050565b610ead612c48565b610eb5612cda565b565b610ed2838383604051806020016040528060008152506120ad565b505050565b61012f60029054906101000a900461ffff1681565b6000603360009054906101000a900460ff16905090565b610f0b612c48565b60c960009054906101000a900473ffffffffffffffffffffffffffffffffffffffff1673ffffffffffffffffffffffffffffffffffffffff166108fc479081150290604051600060405180830381858888f19350505050158015610f73573d6000803e3d6000fd5b50565b610f7e610eec565b15610fbe576040517f08c379a0000000000000000000000000000000000000000000000000000000008152600401610fb590614b13565b60405180910390fd5b610fc6612841565b73ffffffffffffffffffffffffffffffffffffffff163273ffffffffffffffffffffffffffffffffffffffff1614611033576040517f08c379a000000000000000000000000000000000000000000000000000000000815260040161102a90614b7f565b60405180910390fd5b600061013760009054906101000a900473ffffffffffffffffffffffffffffffffffffffff1673ffffffffffffffffffffffffffffffffffffffff1663abc26c6061107c612841565b853461012f60009054906101000a900461ffff1661013054610131546040518763ffffffff1660e01b81526004016110b996959493929190614b9f565b6020604051808303816000875af11580156110d8573d6000803e3d6000fd5b505050506040513d601f19601f820116820180604052508101906110fc9190614c15565b90508260ff1661012f60008282829054906101000a900461ffff166111219190614c71565b92506101000a81548161ffff021916908361ffff16021790555061013360009054906101000a900473ffffffffffffffffffffffffffffffffffffffff1673ffffffffffffffffffffffffffffffffffffffff1663e8ff04a1611182612841565b8585856040518563ffffffff1660e01b81526004016111a49493929190614ca9565b6020604051808303816000875af11580156111c3573d6000803e3d6000fd5b505050506040513d601f19601f820116820180604052508101906111e79190614d03565b50505050565b60008060fe600084815260200190815260200160002060009054906101000a900473ffffffffffffffffffffffffffffffffffffffff169050600073ffffffffffffffffffffffffffffffffffffffff168173ffffffffffffffffffffffffffffffffffffffff161415611296576040517f08c379a000000000000000000000000000000000000000000000000000000000815260040161128d90614da2565b60405180910390fd5b80915050919050565b60008060606112ac612d7c565b6000610132600089815260200190815260200160002060000160009054906101000a900460ff169050600061013260008a815260200190815260200160002060000160089054906101000a900460ff169050600061013260008b815260200190815260200160002060000160099054906101000a900460ff16905061013560009054906101000a900473ffffffffffffffffffffffffffffffffffffffff1673ffffffffffffffffffffffffffffffffffffffff16634718e3088484848d8d8d6040518763ffffffff1660e01b815260040161138d96959493929190614dc2565b6000604051808303816000875af11580156113ac573d6000803e3d6000fd5b505050506040513d6000823e3d601f19601f820116820180604052508101906113d59190614ed9565b8096508197508298505050508561013260008c815260200190815260200160002060000160086101000a81548160ff021916908360ff1602179055508461013260008c815260200190815260200160002060000160096101000a81548160ff021916908360ff1602179055505050509450945094915050565b611456612841565b73ffffffffffffffffffffffffffffffffffffffff16611474611bdc565b73ffffffffffffffffffffffffffffffffffffffff16146114ca576040517f08c379a00000000000000000000000000000000000000000000000000000000081526004016114c190614a15565b60405180910390fd5b8060c960006101000a81548173ffffffffffffffffffffffffffffffffffffffff021916908373ffffffffffffffffffffffffffffffffffffffff16021790555050565b60026097541415611554576040517f08c379a000000000000000000000000000000000000000000000000000000000815260040161154b90614f94565b60405180910390fd5b6002609781905550611564610eec565b156115a4576040517f08c379a000000000000000000000000000000000000000000000000000000000815260040161159b90614b13565b60405180910390fd5b61013360009054906101000a900473ffffffffffffffffffffffffffffffffffffffff1673ffffffffffffffffffffffffffffffffffffffff163373ffffffffffffffffffffffffffffffffffffffff1614611635576040517f08c379a000000000000000000000000000000000000000000000000000000000815260040161162c90615000565b60405180910390fd5b6000826040015160ff1667ffffffffffffffff81111561165857611657613e27565b5b6040519080825280602002602001820160405280156116865781602001602082028036833780820191505090505b50905060005b836040015160ff168110156119d25761012f600281819054906101000a900461ffff16809291906116bc90615020565b91906101000a81548161ffff021916908361ffff1602179055505061012f60029054906101000a900461ffff168282815181106116fc576116fb61504b565b5b602002602001019061ffff16908161ffff16815250508281815181106117255761172461504b565b5b6020026020010151610132600061012f60029054906101000a900461ffff1661ffff16815260200190815260200160002060008201518160000160006101000a81548160ff02191690831515021790555060208201518160000160016101000a81548160ff021916908360ff16021790555060408201518160000160026101000a81548160ff021916908360ff16021790555060608201518160000160036101000a81548160ff021916908360ff16021790555060808201518160000160046101000a81548160ff021916908360ff16021790555060a08201518160000160056101000a81548160ff021916908360ff16021790555060c08201518160000160066101000a81548160ff021916908360ff16021790555060e08201518160000160076101000a81548160ff021916908360ff1602179055506101008201518160000160086101000a81548160ff021916908360ff1602179055506101208201518160000160096101000a81548160ff021916908360ff16021790555061014082015181600001600a6101000a81548160ff021916908360000b60ff1602179055509050508281815181106118dc576118db61504b565b5b60200260200101516000015161192c5761012f600681819054906101000a900461ffff168092919061190d90615020565b91906101000a81548161ffff021916908361ffff160217905550611968565b61012f600481819054906101000a900461ffff168092919061194d90615020565b91906101000a81548161ffff021916908361ffff1602179055505b506119bf846060015161197f5784602001516119a4565b61013660009054906101000a900473ffffffffffffffffffffffffffffffffffffffff165b61012f60029054906101000a900461ffff1661ffff16612e0b565b80806119ca9061507a565b91505061168c565b50826060015115611a725761013660009054906101000a900473ffffffffffffffffffffffffffffffffffffffff1673ffffffffffffffffffffffffffffffffffffffff1663dbdc1f6b8460200151836040518363ffffffff1660e01b8152600401611a3f929190615181565b600060405180830381600087803b158015611a5957600080fd5b505af1158015611a6d573d6000803e3d6000fd5b505050505b5060016097819055505050565b60008073ffffffffffffffffffffffffffffffffffffffff168273ffffffffffffffffffffffffffffffffffffffff161415611af0576040517f08c379a0000000000000000000000000000000000000000000000000000000008152600401611ae790615223565b60405180910390fd5b60ff60008373ffffffffffffffffffffffffffffffffffffffff1673ffffffffffffffffffffffffffffffffffffffff168152602001908152602001600020549050919050565b611b3f612841565b73ffffffffffffffffffffffffffffffffffffffff16611b5d611bdc565b73ffffffffffffffffffffffffffffffffffffffff1614611bb3576040517f08c379a0000000000000000000000000000000000000000000000000000000008152600401611baa90614a15565b60405180910390fd5b611bbd6000612e29565b565b600061013154905090565b611bd2612c48565b611bda612eef565b565b6000606560009054906101000a900473ffffffffffffffffffffffffffffffffffffffff16905090565b61013360009054906101000a900473ffffffffffffffffffffffffffffffffffffffff1681565b611c35612841565b73ffffffffffffffffffffffffffffffffffffffff16611c53611bdc565b73ffffffffffffffffffffffffffffffffffffffff1614611ca9576040517f08c379a0000000000000000000000000000000000000000000000000000000008152600401611ca090614a15565b60405180910390fd5b60005b8151811015611d3b57600061012e6000848481518110611ccf57611cce61504b565b5b602002602001015173ffffffffffffffffffffffffffffffffffffffff1673ffffffffffffffffffffffffffffffffffffffff16815260200190815260200160002060006101000a81548160ff0219169083151502179055508080611d339061507a565b915050611cac565b5050565b611d476137b4565b611d50826127d5565b611d8f576040517f08c379a0000000000000000000000000000000000000000000000000000000008152600401611d86906152b5565b60405180910390fd5b6101326000838152602001908152602001600020604051806101600160405290816000820160009054906101000a900460ff161515151581526020016000820160019054906101000a900460ff1660ff1660ff1681526020016000820160029054906101000a900460ff1660ff1660ff1681526020016000820160039054906101000a900460ff1660ff1660ff1681526020016000820160049054906101000a900460ff1660ff1660ff1681526020016000820160059054906101000a900460ff1660ff1660ff1681526020016000820160069054906101000a900460ff1660ff1660ff1681526020016000820160079054906101000a900460ff1660ff1660ff1681526020016000820160089054906101000a900460ff1660ff1660ff1681526020016000820160099054906101000a900460ff1660ff1660ff16815260200160008201600a9054906101000a900460000b60000b60000b815250509050919050565b606060fd8054611f02906147e1565b80601f0160208091040260200160405190810160405280929190818152602001828054611f2e906147e1565b8015611f7b5780601f10611f5057610100808354040283529160200191611f7b565b820191906000526020600020905b815481529060010190602001808311611f5e57829003601f168201915b5050505050905090565b611f97611f90612841565b8383612f92565b5050565b611fa3612841565b73ffffffffffffffffffffffffffffffffffffffff16611fc1611bdc565b73ffffffffffffffffffffffffffffffffffffffff1614612017576040517f08c379a000000000000000000000000000000000000000000000000000000000815260040161200e90614a15565b60405180910390fd5b60005b81518110156120a957600161012e600084848151811061203d5761203c61504b565b5b602002602001015173ffffffffffffffffffffffffffffffffffffffff1673ffffffffffffffffffffffffffffffffffffffff16815260200190815260200160002060006101000a81548160ff02191690831515021790555080806120a19061507a565b91505061201a565b5050565b6120be6120b8612841565b83612903565b6120fd576040517f08c379a00000000000000000000000000000000000000000000000000000000081526004016120f490614aa7565b60405180910390fd5b61210984848484613100565b50505050565b600060019054906101000a900460ff166121375760008054906101000a900460ff1615612140565b61213f61315c565b5b61217f576040517f08c379a000000000000000000000000000000000000000000000000000000000815260040161217690615347565b60405180910390fd5b60008060019054906101000a900460ff1615905080156121cf576001600060016101000a81548160ff02191690831515021790555060016000806101000a81548160ff0219169083151502179055505b6121d761316d565b6121df6131c6565b6122536040518060400160405280601381526020017f526174416c6572742043686172616374657273000000000000000000000000008152506040518060400160405280600781526020017f524154434153540000000000000000000000000000000000000000000000000081525061321f565b8361013760006101000a81548173ffffffffffffffffffffffffffffffffffffffff021916908373ffffffffffffffffffffffffffffffffffffffff1602179055508261013360006101000a81548173ffffffffffffffffffffffffffffffffffffffff021916908373ffffffffffffffffffffffffffffffffffffffff1602179055508161013460006101000a81548173ffffffffffffffffffffffffffffffffffffffff021916908373ffffffffffffffffffffffffffffffffffffffff160217905550801561233a5760008060016101000a81548160ff0219169083151502179055505b50505050565b600061012e60008373ffffffffffffffffffffffffffffffffffffffff1673ffffffffffffffffffffffffffffffffffffffff16815260200190815260200160002060009054906101000a900460ff169050919050565b60606123a2826127d5565b6123e1576040517f08c379a00000000000000000000000000000000000000000000000000000000081526004016123d8906152b5565b60405180910390fd5b61013460009054906101000a900473ffffffffffffffffffffffffffffffffffffffff1673ffffffffffffffffffffffffffffffffffffffff1663c87b56dd836040518263ffffffff1660e01b815260040161243d91906141aa565b600060405180830381865afa15801561245a573d6000803e3d6000fd5b505050506040513d6000823e3d601f19601f820116820180604052508101906124839190615367565b9050919050565b61012f60049054906101000a900461ffff1681565b6101326020528060005260406000206000915090508060000160009054906101000a900460ff16908060000160019054906101000a900460ff16908060000160029054906101000a900460ff16908060000160039054906101000a900460ff16908060000160049054906101000a900460ff16908060000160059054906101000a900460ff16908060000160069054906101000a900460ff16908060000160079054906101000a900460ff16908060000160089054906101000a900460ff16908060000160099054906101000a900460ff169080600001600a9054906101000a900460000b90508b565b61013460009054906101000a900473ffffffffffffffffffffffffffffffffffffffff1681565b6101305481565b600061010160008473ffffffffffffffffffffffffffffffffffffffff1673ffffffffffffffffffffffffffffffffffffffff16815260200190815260200160002060008373ffffffffffffffffffffffffffffffffffffffff1673ffffffffffffffffffffffffffffffffffffffff16815260200190815260200160002060009054906101000a900460ff16905092915050565b612654612841565b73ffffffffffffffffffffffffffffffffffffffff16612672611bdc565b73ffffffffffffffffffffffffffffffffffffffff16146126c8576040517f08c379a00000000000000000000000000000000000000000000000000000000081526004016126bf90614a15565b60405180910390fd5b600073ffffffffffffffffffffffffffffffffffffffff168173ffffffffffffffffffffffffffffffffffffffff161415612738576040517f08c379a000000000000000000000000000000000000000000000000000000000815260040161272f90615422565b60405180910390fd5b61274181612e29565b50565b61013560009054906101000a900473ffffffffffffffffffffffffffffffffffffffff1681565b60007f01ffc9a7000000000000000000000000000000000000000000000000000000007bffffffffffffffffffffffffffffffffffffffffffffffffffffffff1916827bffffffffffffffffffffffffffffffffffffffffffffffffffffffff1916149050919050565b60008073ffffffffffffffffffffffffffffffffffffffff1660fe600084815260200190815260200160002060009054906101000a900473ffffffffffffffffffffffffffffffffffffffff1673ffffffffffffffffffffffffffffffffffffffff1614159050919050565b600033905090565b81610100600083815260200190815260200160002060006101000a81548173ffffffffffffffffffffffffffffffffffffffff021916908373ffffffffffffffffffffffffffffffffffffffff160217905550808273ffffffffffffffffffffffffffffffffffffffff166128bd836111ed565b73ffffffffffffffffffffffffffffffffffffffff167f8c5be1e5ebec7d5bd14f71427d1e84f3dd0314c0f7b2291e5b200ac8c7c3b92560405160405180910390a45050565b600061290e826127d5565b61294d576040517f08c379a0000000000000000000000000000000000000000000000000000000008152600401612944906154b4565b60405180910390fd5b6000612958836111ed565b90508073ffffffffffffffffffffffffffffffffffffffff168473ffffffffffffffffffffffffffffffffffffffff1614806129c757508373ffffffffffffffffffffffffffffffffffffffff166129af84610ae9565b73ffffffffffffffffffffffffffffffffffffffff16145b806129d857506129d781856125b7565b5b91505092915050565b8273ffffffffffffffffffffffffffffffffffffffff16612a01826111ed565b73ffffffffffffffffffffffffffffffffffffffff1614612a57576040517f08c379a0000000000000000000000000000000000000000000000000000000008152600401612a4e90615546565b60405180910390fd5b600073ffffffffffffffffffffffffffffffffffffffff168273ffffffffffffffffffffffffffffffffffffffff161415612ac7576040517f08c379a0000000000000000000000000000000000000000000000000000000008152600401612abe906155d8565b60405180910390fd5b612ad283838361327c565b612add600082612849565b600160ff60008573ffffffffffffffffffffffffffffffffffffffff1673ffffffffffffffffffffffffffffffffffffffff1681526020019081526020016000206000828254612b2d91906155f8565b92505081905550600160ff60008473ffffffffffffffffffffffffffffffffffffffff1673ffffffffffffffffffffffffffffffffffffffff1681526020019081526020016000206000828254612b84919061562c565b925050819055508160fe600083815260200190815260200160002060006101000a81548173ffffffffffffffffffffffffffffffffffffffff021916908373ffffffffffffffffffffffffffffffffffffffff160217905550808273ffffffffffffffffffffffffffffffffffffffff168473ffffffffffffffffffffffffffffffffffffffff167fddf252ad1be2c89b69c2b068fc378daa952ba7f163c4a11628f55a4df523b3ef60405160405180910390a4612c43838383613281565b505050565b60c960009054906101000a900473ffffffffffffffffffffffffffffffffffffffff1673ffffffffffffffffffffffffffffffffffffffff163373ffffffffffffffffffffffffffffffffffffffff1614612cd8576040517f08c379a0000000000000000000000000000000000000000000000000000000008152600401612ccf906156ce565b60405180910390fd5b565b612ce2610eec565b612d21576040517f08c379a0000000000000000000000000000000000000000000000000000000008152600401612d189061573a565b60405180910390fd5b6000603360006101000a81548160ff0219169083151502179055507f5db9ee0a495bf2e6ff9c91a7834c1ba4fdd244a5e8aa4e537bd38aeae4b073aa612d65612841565b604051612d729190613afe565b60405180910390a1565b61012e60003373ffffffffffffffffffffffffffffffffffffffff1673ffffffffffffffffffffffffffffffffffffffff16815260200190815260200160002060009054906101000a900460ff16612e09576040517f08c379a0000000000000000000000000000000000000000000000000000000008152600401612e00906157a6565b60405180910390fd5b565b612e25828260405180602001604052806000815250613286565b5050565b6000606560009054906101000a900473ffffffffffffffffffffffffffffffffffffffff16905081606560006101000a81548173ffffffffffffffffffffffffffffffffffffffff021916908373ffffffffffffffffffffffffffffffffffffffff1602179055508173ffffffffffffffffffffffffffffffffffffffff168173ffffffffffffffffffffffffffffffffffffffff167f8be0079c531659141344cd1fd0a4f28419497f9722a3daafe3b4186f6b6457e060405160405180910390a35050565b612ef7610eec565b15612f37576040517f08c379a0000000000000000000000000000000000000000000000000000000008152600401612f2e90614b13565b60405180910390fd5b6001603360006101000a81548160ff0219169083151502179055507f62e78cea01bee320cd4e420270b5ea74000d11b0c9f74754ebdbfc544b05a258612f7b612841565b604051612f889190613afe565b60405180910390a1565b8173ffffffffffffffffffffffffffffffffffffffff168373ffffffffffffffffffffffffffffffffffffffff161415613001576040517f08c379a0000000000000000000000000000000000000000000000000000000008152600401612ff890615812565b60405180910390fd5b8061010160008573ffffffffffffffffffffffffffffffffffffffff1673ffffffffffffffffffffffffffffffffffffffff16815260200190815260200160002060008473ffffffffffffffffffffffffffffffffffffffff1673ffffffffffffffffffffffffffffffffffffffff16815260200190815260200160002060006101000a81548160ff0219169083151502179055508173ffffffffffffffffffffffffffffffffffffffff168373ffffffffffffffffffffffffffffffffffffffff167f17307eab39ab6107e8899845ad3d59bd9653f200f220920489ca2b5937696c31836040516130f39190613984565b60405180910390a3505050565b61310b8484846129e1565b613117848484846132e1565b613156576040517f08c379a000000000000000000000000000000000000000000000000000000000815260040161314d906158a4565b60405180910390fd5b50505050565b600061316730613469565b15905090565b600060019054906101000a900460ff166131bc576040517f08c379a00000000000000000000000000000000000000000000000000000000081526004016131b390615936565b60405180910390fd5b6131c461348c565b565b600060019054906101000a900460ff16613215576040517f08c379a000000000000000000000000000000000000000000000000000000000815260040161320c90615936565b60405180910390fd5b61321d6134ed565b565b600060019054906101000a900460ff1661326e576040517f08c379a000000000000000000000000000000000000000000000000000000000815260040161326590615936565b60405180910390fd5b6132788282613559565b5050565b505050565b505050565b61329083836135da565b61329d60008484846132e1565b6132dc576040517f08c379a00000000000000000000000000000000000000000000000000000000081526004016132d3906158a4565b60405180910390fd5b505050565b60006133028473ffffffffffffffffffffffffffffffffffffffff16613469565b1561345c578373ffffffffffffffffffffffffffffffffffffffff1663150b7a0261332b612841565b8786866040518563ffffffff1660e01b815260040161334d94939291906159ab565b6020604051808303816000875af192505050801561338957506040513d601f19601f820116820180604052508101906133869190615a0c565b60015b61340c573d80600081146133b9576040519150601f19603f3d011682016040523d82523d6000602084013e6133be565b606091505b50600081511415613404576040517f08c379a00000000000000000000000000000000000000000000000000000000081526004016133fb906158a4565b60405180910390fd5b805181602001fd5b63150b7a0260e01b7bffffffffffffffffffffffffffffffffffffffffffffffffffffffff1916817bffffffffffffffffffffffffffffffffffffffffffffffffffffffff191614915050613461565b600190505b949350505050565b6000808273ffffffffffffffffffffffffffffffffffffffff163b119050919050565b600060019054906101000a900460ff166134db576040517f08c379a00000000000000000000000000000000000000000000000000000000081526004016134d290615936565b60405180910390fd5b6134eb6134e6612841565b612e29565b565b600060019054906101000a900460ff1661353c576040517f08c379a000000000000000000000000000000000000000000000000000000000815260040161353390615936565b60405180910390fd5b6000603360006101000a81548160ff021916908315150217905550565b600060019054906101000a900460ff166135a8576040517f08c379a000000000000000000000000000000000000000000000000000000000815260040161359f90615936565b60405180910390fd5b8160fc90805190602001906135be92919061382d565b508060fd90805190602001906135d592919061382d565b505050565b600073ffffffffffffffffffffffffffffffffffffffff168273ffffffffffffffffffffffffffffffffffffffff16141561364a576040517f08c379a000000000000000000000000000000000000000000000000000000000815260040161364190615a85565b60405180910390fd5b613653816127d5565b15613693576040517f08c379a000000000000000000000000000000000000000000000000000000000815260040161368a90615af1565b60405180910390fd5b61369f6000838361327c565b600160ff60008473ffffffffffffffffffffffffffffffffffffffff1673ffffffffffffffffffffffffffffffffffffffff16815260200190815260200160002060008282546136ef919061562c565b925050819055508160fe600083815260200190815260200160002060006101000a81548173ffffffffffffffffffffffffffffffffffffffff021916908373ffffffffffffffffffffffffffffffffffffffff160217905550808273ffffffffffffffffffffffffffffffffffffffff16600073ffffffffffffffffffffffffffffffffffffffff167fddf252ad1be2c89b69c2b068fc378daa952ba7f163c4a11628f55a4df523b3ef60405160405180910390a46137b060008383613281565b5050565b604051806101600160405280600015158152602001600060ff168152602001600060ff168152602001600060ff168152602001600060ff168152602001600060ff168152602001600060ff168152602001600060ff168152602001600060ff168152602001600060ff1681526020016000800b81525090565b828054613839906147e1565b90600052602060002090601f01602090048101928261385b57600085556138a2565b82601f1061387457805160ff19168380011785556138a2565b828001600101855582156138a2579182015b828111156138a1578251825591602001919060010190613886565b5b5090506138af91906138b3565b5090565b5b808211156138cc5760008160009055506001016138b4565b5090565b6000604051905090565b600080fd5b600080fd5b60007fffffffff0000000000000000000000000000000000000000000000000000000082169050919050565b613919816138e4565b811461392457600080fd5b50565b60008135905061393681613910565b92915050565b600060208284031215613952576139516138da565b5b600061396084828501613927565b91505092915050565b60008115159050919050565b61397e81613969565b82525050565b60006020820190506139996000830184613975565b92915050565b600081519050919050565b600082825260208201905092915050565b60005b838110156139d95780820151818401526020810190506139be565b838111156139e8576000848401525b50505050565b6000601f19601f8301169050919050565b6000613a0a8261399f565b613a1481856139aa565b9350613a248185602086016139bb565b613a2d816139ee565b840191505092915050565b60006020820190508181036000830152613a5281846139ff565b905092915050565b6000819050919050565b613a6d81613a5a565b8114613a7857600080fd5b50565b600081359050613a8a81613a64565b92915050565b600060208284031215613aa657613aa56138da565b5b6000613ab484828501613a7b565b91505092915050565b600073ffffffffffffffffffffffffffffffffffffffff82169050919050565b6000613ae882613abd565b9050919050565b613af881613add565b82525050565b6000602082019050613b136000830184613aef565b92915050565b600061ffff82169050919050565b613b3081613b19565b82525050565b6000602082019050613b4b6000830184613b27565b92915050565b613b5a81613add565b8114613b6557600080fd5b50565b600081359050613b7781613b51565b92915050565b60008060408385031215613b9457613b936138da565b5b6000613ba285828601613b68565b9250506020613bb385828601613a7b565b9150509250929050565b600080600060608486031215613bd657613bd56138da565b5b6000613be486828701613a7b565b9350506020613bf586828701613a7b565b9250506040613c0686828701613b68565b9150509250925092565b600080600060608486031215613c2957613c286138da565b5b6000613c3786828701613b68565b9350506020613c4886828701613b68565b9250506040613c5986828701613a7b565b9150509250925092565b600060208284031215613c7957613c786138da565b5b6000613c8784828501613b68565b91505092915050565b600060ff82169050919050565b613ca681613c90565b8114613cb157600080fd5b50565b600081359050613cc381613c9d565b92915050565b613cd281613969565b8114613cdd57600080fd5b50565b600081359050613cef81613cc9565b92915050565b60008060408385031215613d0c57613d0b6138da565b5b6000613d1a85828601613cb4565b9250506020613d2b85828601613ce0565b9150509250929050565b60008160000b9050919050565b613d4b81613d35565b8114613d5657600080fd5b50565b600081359050613d6881613d42565b92915050565b60008060008060808587031215613d8857613d876138da565b5b6000613d9687828801613a7b565b9450506020613da787828801613d59565b9350506040613db887828801613d59565b9250506060613dc987828801613a7b565b91505092959194509250565b613dde81613c90565b82525050565b6000606082019050613df96000830186613dd5565b613e066020830185613dd5565b8181036040830152613e1881846139ff565b9050949350505050565b600080fd5b7f4e487b7100000000000000000000000000000000000000000000000000000000600052604160045260246000fd5b613e5f826139ee565b810181811067ffffffffffffffff82111715613e7e57613e7d613e27565b5b80604052505050565b6000613e916138d0565b9050613e9d8282613e56565b919050565b6000819050919050565b613eb581613ea2565b8114613ec057600080fd5b50565b600081359050613ed281613eac565b92915050565b600060a08284031215613eee57613eed613e22565b5b613ef860a0613e87565b90506000613f0884828501613ec3565b6000830152506020613f1c84828501613b68565b6020830152506040613f3084828501613cb4565b6040830152506060613f4484828501613ce0565b6060830152506080613f5884828501613d59565b60808301525092915050565b600080fd5b600067ffffffffffffffff821115613f8457613f83613e27565b5b602082029050602081019050919050565b600080fd5b60006101608284031215613fb157613fb0613e22565b5b613fbc610160613e87565b90506000613fcc84828501613ce0565b6000830152506020613fe084828501613cb4565b6020830152506040613ff484828501613cb4565b604083015250606061400884828501613cb4565b606083015250608061401c84828501613cb4565b60808301525060a061403084828501613cb4565b60a08301525060c061404484828501613cb4565b60c08301525060e061405884828501613cb4565b60e08301525061010061406d84828501613cb4565b6101008301525061012061408384828501613cb4565b6101208301525061014061409984828501613d59565b6101408301525092915050565b60006140b96140b484613f69565b613e87565b90508083825260208201905061016084028301858111156140dd576140dc613f95565b5b835b8181101561410757806140f28882613f9a565b845260208401935050610160810190506140df565b5050509392505050565b600082601f83011261412657614125613f64565b5b81356141368482602086016140a6565b91505092915050565b60008060c08385031215614156576141556138da565b5b600061416485828601613ed8565b92505060a083013567ffffffffffffffff811115614185576141846138df565b5b61419185828601614111565b9150509250929050565b6141a481613a5a565b82525050565b60006020820190506141bf600083018461419b565b92915050565b6000819050919050565b60006141ea6141e56141e084613abd565b6141c5565b613abd565b9050919050565b60006141fc826141cf565b9050919050565b600061420e826141f1565b9050919050565b61421e81614203565b82525050565b60006020820190506142396000830184614215565b92915050565b600067ffffffffffffffff82111561425a57614259613e27565b5b602082029050602081019050919050565b600061427e6142798461423f565b613e87565b905080838252602082019050602084028301858111156142a1576142a0613f95565b5b835b818110156142ca57806142b68882613b68565b8452602084019350506020810190506142a3565b5050509392505050565b600082601f8301126142e9576142e8613f64565b5b81356142f984826020860161426b565b91505092915050565b600060208284031215614318576143176138da565b5b600082013567ffffffffffffffff811115614336576143356138df565b5b614342848285016142d4565b91505092915050565b61435481613969565b82525050565b61436381613c90565b82525050565b61437281613d35565b82525050565b6101608201600082015161438f600085018261434b565b5060208201516143a2602085018261435a565b5060408201516143b5604085018261435a565b5060608201516143c8606085018261435a565b5060808201516143db608085018261435a565b5060a08201516143ee60a085018261435a565b5060c082015161440160c085018261435a565b5060e082015161441460e085018261435a565b5061010082015161442961010085018261435a565b5061012082015161443e61012085018261435a565b50610140820151614453610140850182614369565b50505050565b60006101608201905061446f6000830184614378565b92915050565b6000806040838503121561448c5761448b6138da565b5b600061449a85828601613b68565b92505060206144ab85828601613ce0565b9150509250929050565b600080fd5b600067ffffffffffffffff8211156144d5576144d4613e27565b5b6144de826139ee565b9050602081019050919050565b82818337600083830152505050565b600061450d614508846144ba565b613e87565b905082815260208101848484011115614529576145286144b5565b5b6145348482856144eb565b509392505050565b600082601f83011261455157614550613f64565b5b81356145618482602086016144fa565b91505092915050565b60008060008060808587031215614584576145836138da565b5b600061459287828801613b68565b94505060206145a387828801613b68565b93505060406145b487828801613a7b565b925050606085013567ffffffffffffffff8111156145d5576145d46138df565b5b6145e18782880161453c565b91505092959194509250565b600080600060608486031215614606576146056138da565b5b600061461486828701613b68565b935050602061462586828701613b68565b925050604061463686828701613b68565b9150509250925092565b61464981613d35565b82525050565b600061016082019050614665600083018e613975565b614672602083018d613dd5565b61467f604083018c613dd5565b61468c606083018b613dd5565b614699608083018a613dd5565b6146a660a0830189613dd5565b6146b360c0830188613dd5565b6146c060e0830187613dd5565b6146ce610100830186613dd5565b6146dc610120830185613dd5565b6146ea610140830184614640565b9c9b505050505050505050505050565b6000614705826141f1565b9050919050565b614715816146fa565b82525050565b6000602082019050614730600083018461470c565b92915050565b6000806040838503121561474d5761474c6138da565b5b600061475b85828601613b68565b925050602061476c85828601613b68565b9150509250929050565b6000614781826141f1565b9050919050565b61479181614776565b82525050565b60006020820190506147ac6000830184614788565b92915050565b7f4e487b7100000000000000000000000000000000000000000000000000000000600052602260045260246000fd5b600060028204905060018216806147f957607f821691505b6020821081141561480d5761480c6147b2565b5b50919050565b7f4552433732313a20617070726f76656420717565727920666f72206e6f6e657860008201527f697374656e7420746f6b656e0000000000000000000000000000000000000000602082015250565b600061486f602c836139aa565b915061487a82614813565b604082019050919050565b6000602082019050818103600083015261489e81614862565b9050919050565b7f4552433732313a20617070726f76616c20746f2063757272656e74206f776e6560008201527f7200000000000000000000000000000000000000000000000000000000000000602082015250565b60006149016021836139aa565b915061490c826148a5565b604082019050919050565b60006020820190508181036000830152614930816148f4565b9050919050565b7f4552433732313a20617070726f76652063616c6c6572206973206e6f74206f7760008201527f6e6572206e6f7220617070726f76656420666f7220616c6c0000000000000000602082015250565b60006149936038836139aa565b915061499e82614937565b604082019050919050565b600060208201905081810360008301526149c281614986565b9050919050565b7f4f776e61626c653a2063616c6c6572206973206e6f7420746865206f776e6572600082015250565b60006149ff6020836139aa565b9150614a0a826149c9565b602082019050919050565b60006020820190508181036000830152614a2e816149f2565b9050919050565b7f4552433732313a207472616e736665722063616c6c6572206973206e6f74206f60008201527f776e6572206e6f7220617070726f766564000000000000000000000000000000602082015250565b6000614a916031836139aa565b9150614a9c82614a35565b604082019050919050565b60006020820190508181036000830152614ac081614a84565b9050919050565b7f5061757361626c653a2070617573656400000000000000000000000000000000600082015250565b6000614afd6010836139aa565b9150614b0882614ac7565b602082019050919050565b60006020820190508181036000830152614b2c81614af0565b9050919050565b7f454f41206f6e6c79000000000000000000000000000000000000000000000000600082015250565b6000614b696008836139aa565b9150614b7482614b33565b602082019050919050565b60006020820190508181036000830152614b9881614b5c565b9050919050565b600060c082019050614bb46000830189613aef565b614bc16020830188613dd5565b614bce604083018761419b565b614bdb6060830186613b27565b614be8608083018561419b565b614bf560a083018461419b565b979650505050505050565b600081519050614c0f81613d42565b92915050565b600060208284031215614c2b57614c2a6138da565b5b6000614c3984828501614c00565b91505092915050565b7f4e487b7100000000000000000000000000000000000000000000000000000000600052601160045260246000fd5b6000614c7c82613b19565b9150614c8783613b19565b92508261ffff03821115614c9e57614c9d614c42565b5b828201905092915050565b6000608082019050614cbe6000830187613aef565b614ccb6020830186613dd5565b614cd86040830185613975565b614ce56060830184614640565b95945050505050565b600081519050614cfd81613eac565b92915050565b600060208284031215614d1957614d186138da565b5b6000614d2784828501614cee565b91505092915050565b7f4552433732313a206f776e657220717565727920666f72206e6f6e657869737460008201527f656e7420746f6b656e0000000000000000000000000000000000000000000000602082015250565b6000614d8c6029836139aa565b9150614d9782614d30565b604082019050919050565b60006020820190508181036000830152614dbb81614d7f565b9050919050565b600060c082019050614dd76000830189613975565b614de46020830188613dd5565b614df16040830187613dd5565b614dfe6060830186614640565b614e0b6080830185614640565b614e1860a083018461419b565b979650505050505050565b600081519050614e3281613c9d565b92915050565b600067ffffffffffffffff821115614e5357614e52613e27565b5b614e5c826139ee565b9050602081019050919050565b6000614e7c614e7784614e38565b613e87565b905082815260208101848484011115614e9857614e976144b5565b5b614ea38482856139bb565b509392505050565b600082601f830112614ec057614ebf613f64565b5b8151614ed0848260208601614e69565b91505092915050565b600080600060608486031215614ef257614ef16138da565b5b6000614f0086828701614e23565b9350506020614f1186828701614e23565b925050604084015167ffffffffffffffff811115614f3257614f316138df565b5b614f3e86828701614eab565b9150509250925092565b7f5265656e7472616e637947756172643a207265656e7472616e742063616c6c00600082015250565b6000614f7e601f836139aa565b9150614f8982614f48565b602082019050919050565b60006020820190508181036000830152614fad81614f71565b9050919050565b7f4f6e6c7920746865204d696e742063616e2066756c66696c6c00000000000000600082015250565b6000614fea6019836139aa565b9150614ff582614fb4565b602082019050919050565b6000602082019050818103600083015261501981614fdd565b9050919050565b600061502b82613b19565b915061ffff8214156150405761503f614c42565b5b600182019050919050565b7f4e487b7100000000000000000000000000000000000000000000000000000000600052603260045260246000fd5b600061508582613a5a565b91507fffffffffffffffffffffffffffffffffffffffffffffffffffffffffffffffff8214156150b8576150b7614c42565b5b600182019050919050565b600081519050919050565b600082825260208201905092915050565b6000819050602082019050919050565b6150f881613b19565b82525050565b600061510a83836150ef565b60208301905092915050565b6000602082019050919050565b600061512e826150c3565b61513881856150ce565b9350615143836150df565b8060005b8381101561517457815161515b88826150fe565b975061516683615116565b925050600181019050615147565b5085935050505092915050565b60006040820190506151966000830185613aef565b81810360208301526151a88184615123565b90509392505050565b7f4552433732313a2062616c616e636520717565727920666f7220746865207a6560008201527f726f206164647265737300000000000000000000000000000000000000000000602082015250565b600061520d602a836139aa565b9150615218826151b1565b604082019050919050565b6000602082019050818103600083015261523c81615200565b9050919050565b7f4552433732314d657461646174613a2055524920717565727920666f72206e6f60008201527f6e2d6578697374656e7420746f6b656e00000000000000000000000000000000602082015250565b600061529f6030836139aa565b91506152aa82615243565b604082019050919050565b600060208201905081810360008301526152ce81615292565b9050919050565b7f496e697469616c697a61626c653a20636f6e747261637420697320616c72656160008201527f647920696e697469616c697a6564000000000000000000000000000000000000602082015250565b6000615331602e836139aa565b915061533c826152d5565b604082019050919050565b6000602082019050818103600083015261536081615324565b9050919050565b60006020828403121561537d5761537c6138da565b5b600082015167ffffffffffffffff81111561539b5761539a6138df565b5b6153a784828501614eab565b91505092915050565b7f4f776e61626c653a206e6577206f776e657220697320746865207a65726f206160008201527f6464726573730000000000000000000000000000000000000000000000000000602082015250565b600061540c6026836139aa565b9150615417826153b0565b604082019050919050565b6000602082019050818103600083015261543b816153ff565b9050919050565b7f4552433732313a206f70657261746f7220717565727920666f72206e6f6e657860008201527f697374656e7420746f6b656e0000000000000000000000000000000000000000602082015250565b600061549e602c836139aa565b91506154a982615442565b604082019050919050565b600060208201905081810360008301526154cd81615491565b9050919050565b7f4552433732313a207472616e736665722066726f6d20696e636f72726563742060008201527f6f776e6572000000000000000000000000000000000000000000000000000000602082015250565b60006155306025836139aa565b915061553b826154d4565b604082019050919050565b6000602082019050818103600083015261555f81615523565b9050919050565b7f4552433732313a207472616e7366657220746f20746865207a65726f2061646460008201527f7265737300000000000000000000000000000000000000000000000000000000602082015250565b60006155c26024836139aa565b91506155cd82615566565b604082019050919050565b600060208201905081810360008301526155f1816155b5565b9050919050565b600061560382613a5a565b915061560e83613a5a565b92508282101561562157615620614c42565b5b828203905092915050565b600061563782613a5a565b915061564283613a5a565b9250827fffffffffffffffffffffffffffffffffffffffffffffffffffffffffffffffff0382111561567757615676614c42565b5b828201905092915050565b7f4f6e6c792044414f2063616e2065786563757465000000000000000000000000600082015250565b60006156b86014836139aa565b91506156c382615682565b602082019050919050565b600060208201905081810360008301526156e7816156ab565b9050919050565b7f5061757361626c653a206e6f7420706175736564000000000000000000000000600082015250565b60006157246014836139aa565b915061572f826156ee565b602082019050919050565b6000602082019050818103600083015261575381615717565b9050919050565b7f4f6e6c7920636f6e74726f6c6c6572732063616e206578656375746500000000600082015250565b6000615790601c836139aa565b915061579b8261575a565b602082019050919050565b600060208201905081810360008301526157bf81615783565b9050919050565b7f4552433732313a20617070726f766520746f2063616c6c657200000000000000600082015250565b60006157fc6019836139aa565b9150615807826157c6565b602082019050919050565b6000602082019050818103600083015261582b816157ef565b9050919050565b7f4552433732313a207472616e7366657220746f206e6f6e20455243373231526560008201527f63656976657220696d706c656d656e7465720000000000000000000000000000602082015250565b600061588e6032836139aa565b915061589982615832565b604082019050919050565b600060208201905081810360008301526158bd81615881565b9050919050565b7f496e697469616c697a61626c653a20636f6e7472616374206973206e6f74206960008201527f6e697469616c697a696e67000000000000000000000000000000000000000000602082015250565b6000615920602b836139aa565b915061592b826158c4565b604082019050919050565b6000602082019050818103600083015261594f81615913565b9050919050565b600081519050919050565b600082825260208201905092915050565b600061597d82615956565b6159878185615961565b93506159978185602086016139bb565b6159a0816139ee565b840191505092915050565b60006080820190506159c06000830187613aef565b6159cd6020830186613aef565b6159da604083018561419b565b81810360608301526159ec8184615972565b905095945050505050565b600081519050615a0681613910565b92915050565b600060208284031215615a2257615a216138da565b5b6000615a30848285016159f7565b91505092915050565b7f4552433732313a206d696e7420746f20746865207a65726f2061646472657373600082015250565b6000615a6f6020836139aa565b9150615a7a82615a39565b602082019050919050565b60006020820190508181036000830152615a9e81615a62565b9050919050565b7f4552433732313a20746f6b656e20616c7265616479206d696e74656400000000600082015250565b6000615adb601c836139aa565b9150615ae682615aa5565b602082019050919050565b60006020820190508181036000830152615b0a81615ace565b905091905056fea264697066735822122062ed6e1ceed81003cc4221dc644e927a87184d63f673a1413ca3527bc0ea8ac764736f6c634300080a0033",
  "immutableReferences": {},
  "source": "// SPDX-License-Identifier: MIT\n\npragma solidity ^0.8.0;\n\nimport \"@openzeppelin/contracts-upgradeable/proxy/utils/Initializable.sol\";\nimport \"@openzeppelin/contracts-upgradeable/security/ReentrancyGuardUpgradeable.sol\";\nimport \"@openzeppelin/contracts-upgradeable/token/ERC721/ERC721Upgradeable.sol\";\nimport \"./GenericPausable.sol\";\nimport \"./ControllableUpgradeable.sol\";\nimport \"./ICharacter.sol\";\nimport \"./IMint.sol\";\nimport \"./ITraits.sol\";\nimport \"./IProperties.sol\";\nimport \"./IVenue.sol\";\nimport \"./IPaywall.sol\";\n\ncontract Character is Initializable, OwnableUpgradeable, ReentrancyGuardUpgradeable, GenericPausable, ICharacter, ERC721Upgradeable, ControllableUpgradeable {\n  uint16 public paid;\n  uint16 public minted;\n  uint16 public numChefs;\n  uint16 public numRats;\n  uint256 public maxTokens; // Max number of tokens that can be minted\n  uint256 gen0Tokens; // Number of tokens that are purchased with native token\n\n  mapping(uint256 => CharacterStruct) public tokenTraits; // Mapping from tokenId to a struct containing the token's traits\n\n  IMint public theMint; // Reference to Mint\n  ITraits public traits; // Reference to Traits\n  IProperties public properties; // Reference to Properties\n  IVenue kitchen;\n  IPaywall paywall;\n\n  function initialize(\n    address _paywall,\n    address _mint,\n    address _traits\n  ) external initializer {\n    __Ownable_init();\n    __Pausable_init();\n    __ERC721_init(\"RatAlert Characters\", \"RATCAST\");\n\n    paywall = IPaywall(_paywall);\n    theMint = IMint(_mint);\n    traits = ITraits(_traits);\n  }\n\n  /**\n   * Allows DAO to update game parameters\n   */\n  function configure(uint256 _maxTokens, uint256 _gen0Tokens, address _properties) external onlyOwner {\n    maxTokens = _maxTokens;\n    gen0Tokens = _gen0Tokens;\n    properties = IProperties(_properties);\n  }\n\n  /**\n   * ChainLink VRF request: Mints a new ERC721 token: 90% chefs, 10% rats\n   * The first 20% are purchased with native token, the remaining cost $FFOOD\n   * @param amount Number of tokens to mint\n   * @param stake Number of tokens to mint\n   */\n  function mint(uint8 amount, bool stake) external payable whenNotPaused {\n    require(tx.origin == _msgSender(), \"EOA only\");\n    int8 boost = paywall.handle(_msgSender(), amount, msg.value, paid, maxTokens, gen0Tokens);\n    paid += amount;\n    theMint.requestRandomNumber(_msgSender(), amount, stake, boost);\n  }\n\n  /**\n   * Callback for mint(), called by Mint.fulfillRandomness()\n   * @param v - VRF struct for the corresponding request\n   * @param tokens - List of characters created by the Mint\n   */\n  function fulfillMint(IMint.VRFStruct memory v, CharacterStruct[] memory tokens) external nonReentrant whenNotPaused {\n    require(msg.sender == address(theMint), \"Only the Mint can fulfill\");\n\n    uint16[] memory tokenIds = new uint16[](v.amount);\n    for (uint i = 0; i < v.amount; i++) {\n      minted ++;\n      tokenIds[i] = minted;\n      tokenTraits[minted] = tokens[i];\n      tokens[i].isChef ? numChefs++ : numRats++;\n      _safeMint(v.stake ? address(kitchen) : v.sender, minted);\n    }\n    if (v.stake) kitchen.stakeMany(v.sender, tokenIds);\n  }\n\n  /**\n   * Allows the venues to update the character's efficiency & tolerance values when claiming\n   * @param tokenId - The ID of the Character\n   * @param efficiencyIncrement - The value to add/subtract to the current value\n   * @param toleranceIncrement - The value to add/subtract to the current value\n   * @param randomVal - A ChainLink VRF random number\n   */\n  function updateCharacter(uint256 tokenId, int8 efficiencyIncrement, int8 toleranceIncrement, uint256 randomVal) external onlyController returns(uint8 efficiencyValue, uint8 toleranceValue, string memory eventName) {\n    bool isChef = tokenTraits[tokenId].isChef;\n    uint8 currentEfficiency = tokenTraits[tokenId].efficiency;\n    uint8 currentTolerance = tokenTraits[tokenId].tolerance;\n    (efficiencyValue, toleranceValue, eventName) = properties.getEventUpdates(isChef, currentEfficiency, currentTolerance, efficiencyIncrement, toleranceIncrement, randomVal);\n    tokenTraits[tokenId].efficiency = efficiencyValue;\n    tokenTraits[tokenId].tolerance = toleranceValue;\n  }\n\n  /**\n   * Returns the base64 encoded ERC721 metadata\n   * @param tokenId - The ID of the Character\n   * @return base64 encoded JSON string\n   */\n  function tokenURI(uint256 tokenId) public view override returns (string memory) {\n    require(_exists(tokenId), \"ERC721Metadata: URI query for non-existent token\");\n    return traits.tokenURI(tokenId);\n  }\n\n  /**\n   * Returns the Character's struct\n   * @param tokenId - The ID of the Character\n   * @return Current CharacterStruct\n   */\n  function getTokenTraits(uint256 tokenId) external view override returns (CharacterStruct memory) {\n    require(_exists(tokenId), \"ERC721Metadata: URI query for non-existent token\");\n    return tokenTraits[tokenId];\n  }\n\n  /**\n   * Custom getter required for Traits contract\n   */\n  function getGen0Tokens() external view override returns (uint256) {\n    return gen0Tokens;\n  }\n\n  /**\n   * Allows DAO to withdraw funds\n   */\n  function withdrawPayments() external {\n    isDao();\n    payable(dao).transfer(address(this).balance); // Transfer to DAO wallet\n  }\n\n  /**\n   * Sets the kitchen address to optionally stake newly minted characters in\n   * @param _kitchen - The address of the Kitchen\n   */\n  function setKitchen(address _kitchen) external onlyOwner {\n    kitchen = IVenue(_kitchen);\n  }\n}\n",
  "sourcePath": "/Users/chris/workspace/ratalert/ratalert-contracts/contracts/Character.sol",
  "compiler": {
    "name": "solc",
    "version": "0.8.10+commit.fc410830.Emscripten.clang"
  },
  "schemaVersion": "3.4.7",
  "updatedAt": "2022-05-11T09:13:31.954Z",
  "networkType": "ethereum",
  "devdoc": {
    "kind": "dev",
    "methods": {
      "addController(address[])": {
        "params": {
          "_controllers": "- The addresses to enable"
        }
      },
      "approve(address,uint256)": {
        "details": "See {IERC721-approve}."
      },
      "balanceOf(address)": {
        "details": "See {IERC721-balanceOf}."
      },
      "controller(address)": {
        "params": {
          "_controller": "- The address to check"
        }
      },
      "fulfillMint((bytes32,address,uint8,bool,int8),(bool,uint8,uint8,uint8,uint8,uint8,uint8,uint8,uint8,uint8,int8)[])": {
        "params": {
          "tokens": "- List of characters created by the Mint",
          "v": "- VRF struct for the corresponding request"
        }
      },
      "getApproved(uint256)": {
        "details": "See {IERC721-getApproved}."
      },
      "getTokenTraits(uint256)": {
        "params": {
          "tokenId": "- The ID of the Character"
        },
        "returns": {
          "_0": "Current CharacterStruct"
        }
      },
      "isApprovedForAll(address,address)": {
        "details": "See {IERC721-isApprovedForAll}."
      },
      "mint(uint8,bool)": {
        "params": {
          "amount": "Number of tokens to mint",
          "stake": "Number of tokens to mint"
        }
      },
      "name()": {
        "details": "See {IERC721Metadata-name}."
      },
      "owner()": {
        "details": "Returns the address of the current owner."
      },
      "ownerOf(uint256)": {
        "details": "See {IERC721-ownerOf}."
      },
      "paused()": {
        "details": "Returns true if the contract is paused, and false otherwise."
      },
      "removeController(address[])": {
        "params": {
          "_controllers": "- The addresses to disable"
        }
      },
      "renounceOwnership()": {
        "details": "Leaves the contract without owner. It will not be possible to call `onlyOwner` functions anymore. Can only be called by the current owner. NOTE: Renouncing ownership will leave the contract without an owner, thereby removing any functionality that is only available to the owner."
      },
      "safeTransferFrom(address,address,uint256)": {
        "details": "See {IERC721-safeTransferFrom}."
      },
      "safeTransferFrom(address,address,uint256,bytes)": {
        "details": "See {IERC721-safeTransferFrom}."
      },
      "setApprovalForAll(address,bool)": {
        "details": "See {IERC721-setApprovalForAll}."
      },
      "setKitchen(address)": {
        "params": {
          "_kitchen": "- The address of the Kitchen"
        }
      },
      "supportsInterface(bytes4)": {
        "details": "See {IERC165-supportsInterface}."
      },
      "symbol()": {
        "details": "See {IERC721Metadata-symbol}."
      },
      "tokenURI(uint256)": {
        "params": {
          "tokenId": "- The ID of the Character"
        },
        "returns": {
          "_0": "base64 encoded JSON string"
        }
      },
      "transferFrom(address,address,uint256)": {
        "details": "See {IERC721-transferFrom}."
      },
      "transferOwnership(address)": {
        "details": "Transfers ownership of the contract to a new account (`newOwner`). Can only be called by the current owner."
      },
      "updateCharacter(uint256,int8,int8,uint256)": {
        "params": {
          "efficiencyIncrement": "- The value to add/subtract to the current value",
          "randomVal": "- A ChainLink VRF random number",
          "tokenId": "- The ID of the Character",
          "toleranceIncrement": "- The value to add/subtract to the current value"
        }
      }
    },
    "version": 1
  },
  "userdoc": {
    "kind": "user",
    "methods": {
      "addController(address[])": {
        "notice": "Enables multiple addresses to execute"
      },
      "configure(uint256,uint256,address)": {
        "notice": "Allows DAO to update game parameters"
      },
      "controller(address)": {
        "notice": "Gets controller status by address"
      },
      "fulfillMint((bytes32,address,uint8,bool,int8),(bool,uint8,uint8,uint8,uint8,uint8,uint8,uint8,uint8,uint8,int8)[])": {
        "notice": "Callback for mint(), called by Mint.fulfillRandomness()"
      },
      "getGen0Tokens()": {
        "notice": "Custom getter required for Traits contract"
      },
      "getTokenTraits(uint256)": {
        "notice": "Returns the Character's struct"
      },
      "mint(uint8,bool)": {
        "notice": "ChainLink VRF request: Mints a new ERC721 token: 90% chefs, 10% rats The first 20% are purchased with native token, the remaining cost $FFOOD"
      },
      "removeController(address[])": {
        "notice": "Prevents multiple addresses from executing"
      },
      "setKitchen(address)": {
        "notice": "Sets the kitchen address to optionally stake newly minted characters in"
      },
      "tokenURI(uint256)": {
        "notice": "Returns the base64 encoded ERC721 metadata"
      },
      "updateCharacter(uint256,int8,int8,uint256)": {
        "notice": "Allows the venues to update the character's efficiency & tolerance values when claiming"
      },
      "withdrawPayments()": {
        "notice": "Allows DAO to withdraw funds"
      }
    },
    "version": 1
  }
}