{
  "contractName": "CharacterV2",
  "abi": [
    {
      "anonymous": false,
      "inputs": [
        {
          "indexed": true,
          "internalType": "address",
          "name": "owner",
          "type": "address"
        },
        {
          "indexed": true,
          "internalType": "address",
          "name": "approved",
          "type": "address"
        },
        {
          "indexed": true,
          "internalType": "uint256",
          "name": "tokenId",
          "type": "uint256"
        }
      ],
      "name": "Approval",
      "type": "event"
    },
    {
      "anonymous": false,
      "inputs": [
        {
          "indexed": true,
          "internalType": "address",
          "name": "owner",
          "type": "address"
        },
        {
          "indexed": true,
          "internalType": "address",
          "name": "operator",
          "type": "address"
        },
        {
          "indexed": false,
          "internalType": "bool",
          "name": "approved",
          "type": "bool"
        }
      ],
      "name": "ApprovalForAll",
      "type": "event"
    },
    {
      "anonymous": false,
      "inputs": [
        {
          "indexed": true,
          "internalType": "address",
          "name": "previousOwner",
          "type": "address"
        },
        {
          "indexed": true,
          "internalType": "address",
          "name": "newOwner",
          "type": "address"
        }
      ],
      "name": "OwnershipTransferred",
      "type": "event"
    },
    {
      "anonymous": false,
      "inputs": [
        {
          "indexed": false,
          "internalType": "address",
          "name": "account",
          "type": "address"
        }
      ],
      "name": "Paused",
      "type": "event"
    },
    {
      "anonymous": false,
      "inputs": [
        {
          "indexed": true,
          "internalType": "address",
          "name": "from",
          "type": "address"
        },
        {
          "indexed": true,
          "internalType": "address",
          "name": "to",
          "type": "address"
        },
        {
          "indexed": true,
          "internalType": "uint256",
          "name": "tokenId",
          "type": "uint256"
        }
      ],
      "name": "Transfer",
      "type": "event"
    },
    {
      "anonymous": false,
      "inputs": [
        {
          "indexed": false,
          "internalType": "address",
          "name": "account",
          "type": "address"
        }
      ],
      "name": "Unpaused",
      "type": "event"
    },
    {
      "inputs": [
        {
          "internalType": "address[]",
          "name": "_controllers",
          "type": "address[]"
        }
      ],
      "name": "addController",
      "outputs": [],
      "stateMutability": "nonpayable",
      "type": "function"
    },
    {
      "inputs": [
        {
          "internalType": "address",
          "name": "to",
          "type": "address"
        },
        {
          "internalType": "uint256",
          "name": "tokenId",
          "type": "uint256"
        }
      ],
      "name": "approve",
      "outputs": [],
      "stateMutability": "nonpayable",
      "type": "function"
    },
    {
      "inputs": [
        {
          "internalType": "address",
          "name": "owner",
          "type": "address"
        }
      ],
      "name": "balanceOf",
      "outputs": [
        {
          "internalType": "uint256",
          "name": "",
          "type": "uint256"
        }
      ],
      "stateMutability": "view",
      "type": "function"
    },
    {
      "inputs": [
        {
          "internalType": "address",
          "name": "_controller",
          "type": "address"
        }
      ],
      "name": "controller",
      "outputs": [
        {
          "internalType": "bool",
          "name": "",
          "type": "bool"
        }
      ],
      "stateMutability": "view",
      "type": "function"
    },
    {
      "inputs": [
        {
          "internalType": "uint256",
          "name": "tokenId",
          "type": "uint256"
        }
      ],
      "name": "getApproved",
      "outputs": [
        {
          "internalType": "address",
          "name": "",
          "type": "address"
        }
      ],
      "stateMutability": "view",
      "type": "function"
    },
    {
      "inputs": [
        {
          "internalType": "address",
          "name": "owner",
          "type": "address"
        },
        {
          "internalType": "address",
          "name": "operator",
          "type": "address"
        }
      ],
      "name": "isApprovedForAll",
      "outputs": [
        {
          "internalType": "bool",
          "name": "",
          "type": "bool"
        }
      ],
      "stateMutability": "view",
      "type": "function"
    },
    {
      "inputs": [],
      "name": "maxTokens",
      "outputs": [
        {
          "internalType": "uint256",
          "name": "",
          "type": "uint256"
        }
      ],
      "stateMutability": "view",
      "type": "function"
    },
    {
      "inputs": [],
      "name": "minted",
      "outputs": [
        {
          "internalType": "uint16",
          "name": "",
          "type": "uint16"
        }
      ],
      "stateMutability": "view",
      "type": "function"
    },
    {
      "inputs": [],
      "name": "name",
      "outputs": [
        {
          "internalType": "string",
          "name": "",
          "type": "string"
        }
      ],
      "stateMutability": "view",
      "type": "function"
    },
    {
      "inputs": [],
      "name": "numChefs",
      "outputs": [
        {
          "internalType": "uint16",
          "name": "",
          "type": "uint16"
        }
      ],
      "stateMutability": "view",
      "type": "function"
    },
    {
      "inputs": [],
      "name": "numRats",
      "outputs": [
        {
          "internalType": "uint16",
          "name": "",
          "type": "uint16"
        }
      ],
      "stateMutability": "view",
      "type": "function"
    },
    {
      "inputs": [],
      "name": "owner",
      "outputs": [
        {
          "internalType": "address",
          "name": "",
          "type": "address"
        }
      ],
      "stateMutability": "view",
      "type": "function"
    },
    {
      "inputs": [
        {
          "internalType": "uint256",
          "name": "tokenId",
          "type": "uint256"
        }
      ],
      "name": "ownerOf",
      "outputs": [
        {
          "internalType": "address",
          "name": "",
          "type": "address"
        }
      ],
      "stateMutability": "view",
      "type": "function"
    },
    {
      "inputs": [],
      "name": "paid",
      "outputs": [
        {
          "internalType": "uint16",
          "name": "",
          "type": "uint16"
        }
      ],
      "stateMutability": "view",
      "type": "function"
    },
    {
      "inputs": [],
      "name": "pause",
      "outputs": [],
      "stateMutability": "nonpayable",
      "type": "function"
    },
    {
      "inputs": [],
      "name": "paused",
      "outputs": [
        {
          "internalType": "bool",
          "name": "",
          "type": "bool"
        }
      ],
      "stateMutability": "view",
      "type": "function"
    },
    {
      "inputs": [],
      "name": "properties",
      "outputs": [
        {
          "internalType": "contract IProperties",
          "name": "",
          "type": "address"
        }
      ],
      "stateMutability": "view",
      "type": "function"
    },
    {
      "inputs": [
        {
          "internalType": "address[]",
          "name": "_controllers",
          "type": "address[]"
        }
      ],
      "name": "removeController",
      "outputs": [],
      "stateMutability": "nonpayable",
      "type": "function"
    },
    {
      "inputs": [],
      "name": "renounceOwnership",
      "outputs": [],
      "stateMutability": "nonpayable",
      "type": "function"
    },
    {
      "inputs": [
        {
          "internalType": "address",
          "name": "from",
          "type": "address"
        },
        {
          "internalType": "address",
          "name": "to",
          "type": "address"
        },
        {
          "internalType": "uint256",
          "name": "tokenId",
          "type": "uint256"
        }
      ],
      "name": "safeTransferFrom",
      "outputs": [],
      "stateMutability": "nonpayable",
      "type": "function"
    },
    {
      "inputs": [
        {
          "internalType": "address",
          "name": "from",
          "type": "address"
        },
        {
          "internalType": "address",
          "name": "to",
          "type": "address"
        },
        {
          "internalType": "uint256",
          "name": "tokenId",
          "type": "uint256"
        },
        {
          "internalType": "bytes",
          "name": "_data",
          "type": "bytes"
        }
      ],
      "name": "safeTransferFrom",
      "outputs": [],
      "stateMutability": "nonpayable",
      "type": "function"
    },
    {
      "inputs": [
        {
          "internalType": "address",
          "name": "operator",
          "type": "address"
        },
        {
          "internalType": "bool",
          "name": "approved",
          "type": "bool"
        }
      ],
      "name": "setApprovalForAll",
      "outputs": [],
      "stateMutability": "nonpayable",
      "type": "function"
    },
    {
      "inputs": [
        {
          "internalType": "address",
          "name": "_dao",
          "type": "address"
        }
      ],
      "name": "setDao",
      "outputs": [],
      "stateMutability": "nonpayable",
      "type": "function"
    },
    {
      "inputs": [
        {
          "internalType": "bytes4",
          "name": "interfaceId",
          "type": "bytes4"
        }
      ],
      "name": "supportsInterface",
      "outputs": [
        {
          "internalType": "bool",
          "name": "",
          "type": "bool"
        }
      ],
      "stateMutability": "view",
      "type": "function"
    },
    {
      "inputs": [],
      "name": "symbol",
      "outputs": [
        {
          "internalType": "string",
          "name": "",
          "type": "string"
        }
      ],
      "stateMutability": "view",
      "type": "function"
    },
    {
      "inputs": [],
      "name": "theMint",
      "outputs": [
        {
          "internalType": "contract IMint",
          "name": "",
          "type": "address"
        }
      ],
      "stateMutability": "view",
      "type": "function"
    },
    {
      "inputs": [
        {
          "internalType": "uint256",
          "name": "",
          "type": "uint256"
        }
      ],
      "name": "tokenTraits",
      "outputs": [
        {
          "internalType": "bool",
          "name": "isChef",
          "type": "bool"
        },
        {
          "internalType": "uint8",
          "name": "hat",
          "type": "uint8"
        },
        {
          "internalType": "uint8",
          "name": "eyes",
          "type": "uint8"
        },
        {
          "internalType": "uint8",
          "name": "piercing",
          "type": "uint8"
        },
        {
          "internalType": "uint8",
          "name": "mouth",
          "type": "uint8"
        },
        {
          "internalType": "uint8",
          "name": "neck",
          "type": "uint8"
        },
        {
          "internalType": "uint8",
          "name": "hand",
          "type": "uint8"
        },
        {
          "internalType": "uint8",
          "name": "tail",
          "type": "uint8"
        },
        {
          "internalType": "uint8",
          "name": "efficiency",
          "type": "uint8"
        },
        {
          "internalType": "uint8",
          "name": "tolerance",
          "type": "uint8"
        },
        {
          "internalType": "int8",
          "name": "boost",
          "type": "int8"
        }
      ],
      "stateMutability": "view",
      "type": "function"
    },
    {
      "inputs": [],
      "name": "traits",
      "outputs": [
        {
          "internalType": "contract ITraits",
          "name": "",
          "type": "address"
        }
      ],
      "stateMutability": "view",
      "type": "function"
    },
    {
      "inputs": [
        {
          "internalType": "address",
          "name": "from",
          "type": "address"
        },
        {
          "internalType": "address",
          "name": "to",
          "type": "address"
        },
        {
          "internalType": "uint256",
          "name": "tokenId",
          "type": "uint256"
        }
      ],
      "name": "transferFrom",
      "outputs": [],
      "stateMutability": "nonpayable",
      "type": "function"
    },
    {
      "inputs": [
        {
          "internalType": "address",
          "name": "newOwner",
          "type": "address"
        }
      ],
      "name": "transferOwnership",
      "outputs": [],
      "stateMutability": "nonpayable",
      "type": "function"
    },
    {
      "inputs": [],
      "name": "unpause",
      "outputs": [],
      "stateMutability": "nonpayable",
      "type": "function"
    },
    {
      "inputs": [
        {
          "internalType": "address",
          "name": "_paywall",
          "type": "address"
        },
        {
          "internalType": "address",
          "name": "_mint",
          "type": "address"
        },
        {
          "internalType": "address",
          "name": "_traits",
          "type": "address"
        }
      ],
      "name": "initialize",
      "outputs": [],
      "stateMutability": "nonpayable",
      "type": "function"
    },
    {
      "inputs": [
        {
          "internalType": "uint256",
          "name": "_maxTokens",
          "type": "uint256"
        },
        {
          "internalType": "uint256",
          "name": "_gen0Tokens",
          "type": "uint256"
        },
        {
          "internalType": "address",
          "name": "_properties",
          "type": "address"
        }
      ],
      "name": "configure",
      "outputs": [],
      "stateMutability": "nonpayable",
      "type": "function"
    },
    {
      "inputs": [
        {
          "internalType": "uint8",
          "name": "amount",
          "type": "uint8"
        },
        {
          "internalType": "bool",
          "name": "stake",
          "type": "bool"
        }
      ],
      "name": "mint",
      "outputs": [],
      "stateMutability": "payable",
      "type": "function"
    },
    {
      "inputs": [
        {
          "components": [
            {
              "internalType": "bytes32",
              "name": "requestId",
              "type": "bytes32"
            },
            {
              "internalType": "address",
              "name": "sender",
              "type": "address"
            },
            {
              "internalType": "uint8",
              "name": "amount",
              "type": "uint8"
            },
            {
              "internalType": "bool",
              "name": "stake",
              "type": "bool"
            },
            {
              "internalType": "int8",
              "name": "boost",
              "type": "int8"
            }
          ],
          "internalType": "struct IMint.VRFStruct",
          "name": "v",
          "type": "tuple"
        },
        {
          "components": [
            {
              "internalType": "bool",
              "name": "isChef",
              "type": "bool"
            },
            {
              "internalType": "uint8",
              "name": "hat",
              "type": "uint8"
            },
            {
              "internalType": "uint8",
              "name": "eyes",
              "type": "uint8"
            },
            {
              "internalType": "uint8",
              "name": "piercing",
              "type": "uint8"
            },
            {
              "internalType": "uint8",
              "name": "mouth",
              "type": "uint8"
            },
            {
              "internalType": "uint8",
              "name": "neck",
              "type": "uint8"
            },
            {
              "internalType": "uint8",
              "name": "hand",
              "type": "uint8"
            },
            {
              "internalType": "uint8",
              "name": "tail",
              "type": "uint8"
            },
            {
              "internalType": "uint8",
              "name": "efficiency",
              "type": "uint8"
            },
            {
              "internalType": "uint8",
              "name": "tolerance",
              "type": "uint8"
            },
            {
              "internalType": "int8",
              "name": "boost",
              "type": "int8"
            }
          ],
          "internalType": "struct ICharacter.CharacterStruct[]",
          "name": "tokens",
          "type": "tuple[]"
        }
      ],
      "name": "fulfillMint",
      "outputs": [],
      "stateMutability": "nonpayable",
      "type": "function"
    },
    {
      "inputs": [
        {
          "internalType": "uint256",
          "name": "tokenId",
          "type": "uint256"
        },
        {
          "internalType": "int8",
          "name": "efficiencyIncrement",
          "type": "int8"
        },
        {
          "internalType": "int8",
          "name": "toleranceIncrement",
          "type": "int8"
        },
        {
          "internalType": "uint256",
          "name": "randomVal",
          "type": "uint256"
        }
      ],
      "name": "updateCharacter",
      "outputs": [
        {
          "internalType": "uint8",
          "name": "efficiencyValue",
          "type": "uint8"
        },
        {
          "internalType": "uint8",
          "name": "toleranceValue",
          "type": "uint8"
        },
        {
          "internalType": "string",
          "name": "eventName",
          "type": "string"
        }
      ],
      "stateMutability": "nonpayable",
      "type": "function"
    },
    {
      "inputs": [
        {
          "internalType": "uint256",
          "name": "tokenId",
          "type": "uint256"
        },
        {
          "internalType": "int8",
          "name": "boost",
          "type": "int8"
        }
      ],
      "name": "updateBoost",
      "outputs": [],
      "stateMutability": "nonpayable",
      "type": "function"
    },
    {
      "inputs": [
        {
          "internalType": "uint256",
          "name": "tokenId",
          "type": "uint256"
        }
      ],
      "name": "tokenURI",
      "outputs": [
        {
          "internalType": "string",
          "name": "",
          "type": "string"
        }
      ],
      "stateMutability": "view",
      "type": "function"
    },
    {
      "inputs": [
        {
          "internalType": "uint256",
          "name": "tokenId",
          "type": "uint256"
        }
      ],
      "name": "getTokenTraits",
      "outputs": [
        {
          "components": [
            {
              "internalType": "bool",
              "name": "isChef",
              "type": "bool"
            },
            {
              "internalType": "uint8",
              "name": "hat",
              "type": "uint8"
            },
            {
              "internalType": "uint8",
              "name": "eyes",
              "type": "uint8"
            },
            {
              "internalType": "uint8",
              "name": "piercing",
              "type": "uint8"
            },
            {
              "internalType": "uint8",
              "name": "mouth",
              "type": "uint8"
            },
            {
              "internalType": "uint8",
              "name": "neck",
              "type": "uint8"
            },
            {
              "internalType": "uint8",
              "name": "hand",
              "type": "uint8"
            },
            {
              "internalType": "uint8",
              "name": "tail",
              "type": "uint8"
            },
            {
              "internalType": "uint8",
              "name": "efficiency",
              "type": "uint8"
            },
            {
              "internalType": "uint8",
              "name": "tolerance",
              "type": "uint8"
            },
            {
              "internalType": "int8",
              "name": "boost",
              "type": "int8"
            }
          ],
          "internalType": "struct ICharacter.CharacterStruct",
          "name": "",
          "type": "tuple"
        }
      ],
      "stateMutability": "view",
      "type": "function"
    },
    {
      "inputs": [],
      "name": "getGen0Tokens",
      "outputs": [
        {
          "internalType": "uint256",
          "name": "",
          "type": "uint256"
        }
      ],
      "stateMutability": "view",
      "type": "function"
    },
    {
      "inputs": [],
      "name": "withdrawPayments",
      "outputs": [],
      "stateMutability": "nonpayable",
      "type": "function"
    },
    {
      "inputs": [
        {
          "internalType": "address",
          "name": "_kitchen",
          "type": "address"
        }
      ],
      "name": "setKitchen",
      "outputs": [],
      "stateMutability": "nonpayable",
      "type": "function"
    }
  ],
  "bytecode": "0x608060405234801561001057600080fd5b50615bfa80620000216000396000f3fe6080604052600436106102515760003560e01c80637856f94511610139578063bfec98aa116100b6578063e05c57bf1161007a578063e05c57bf1461087b578063e1fc334f146108c2578063e8315742146108ed578063e985e9c514610918578063f2fde38b14610955578063fcd802b11461097e57610251565b8063bfec98aa14610784578063c0c53b8b146107ad578063c13aa7b5146107d6578063c87b56dd14610813578063d39f8a4d1461085057610251565b806394e56847116100fd57806394e56847146106a157806395d89b41146106de578063a22cb46514610709578063a83a720214610732578063b88d4fde1461075b57610251565b80637856f945146105e05780638456cb591461060b5780638da5cb5b146106225780639284521c1461064d57806392c405b61461067857610251565b806342842e0e116101d25780636352211e116101965780636352211e146104be57806363dbfc77146104fb5780636637b8821461053a5780636931a2ba1461056357806370a082311461058c578063715018a6146105c957610251565b806342842e0e1461040c5780634f02c420146104355780635c975abb146104605780636103d70b1461048b578063612bfba4146104a257610251565b80631ca52eb9116102195780631ca52eb91461034f57806323b872dd14610378578063295b4e17146103a1578063337f2847146103cc5780633f4ba83a146103f557610251565b806301ffc9a71461025657806306fdde0314610293578063081812fc146102be5780630917e40d146102fb578063095ea7b314610326575b600080fd5b34801561026257600080fd5b5061027d600480360381019061027891906139af565b6109a9565b60405161028a91906139f7565b60405180910390f35b34801561029f57600080fd5b506102a8610a8b565b6040516102b59190613aab565b60405180910390f35b3480156102ca57600080fd5b506102e560048036038101906102e09190613b03565b610b1d565b6040516102f29190613b71565b60405180910390f35b34801561030757600080fd5b50610310610ba3565b60405161031d9190613ba9565b60405180910390f35b34801561033257600080fd5b5061034d60048036038101906103489190613bf0565b610bb8565b005b34801561035b57600080fd5b5061037660048036038101906103719190613c30565b610cd0565b005b34801561038457600080fd5b5061039f600480360381019061039a9190613c83565b610da3565b005b3480156103ad57600080fd5b506103b6610e03565b6040516103c39190613ba9565b60405180910390f35b3480156103d857600080fd5b506103f360048036038101906103ee9190613cd6565b610e18565b005b34801561040157600080fd5b5061040a610ed9565b005b34801561041857600080fd5b50610433600480360381019061042e9190613c83565b610eeb565b005b34801561044157600080fd5b5061044a610f0b565b6040516104579190613ba9565b60405180910390f35b34801561046c57600080fd5b50610475610f20565b60405161048291906139f7565b60405180910390f35b34801561049757600080fd5b506104a0610f37565b005b6104bc60048036038101906104b79190613d68565b610faa565b005b3480156104ca57600080fd5b506104e560048036038101906104e09190613b03565b611221565b6040516104f29190613b71565b60405180910390f35b34801561050757600080fd5b50610522600480360381019061051d9190613de1565b6112d3565b60405161053193929190613e57565b60405180910390f35b34801561054657600080fd5b50610561600480360381019061055c9190613cd6565b611482565b005b34801561056f57600080fd5b5061058a600480360381019061058591906141b2565b611542565b005b34801561059857600080fd5b506105b360048036038101906105ae9190613cd6565b611ab3565b6040516105c0919061421d565b60405180910390f35b3480156105d557600080fd5b506105de611b6b565b005b3480156105ec57600080fd5b506105f5611bf3565b604051610602919061421d565b60405180910390f35b34801561061757600080fd5b50610620611bfe565b005b34801561062e57600080fd5b50610637611c10565b6040516106449190613b71565b60405180910390f35b34801561065957600080fd5b50610662611c3a565b60405161066f9190614297565b60405180910390f35b34801561068457600080fd5b5061069f600480360381019061069a9190614375565b611c61565b005b3480156106ad57600080fd5b506106c860048036038101906106c39190613b03565b611d73565b6040516106d591906144cc565b60405180910390f35b3480156106ea57600080fd5b506106f3611f27565b6040516107009190613aab565b60405180910390f35b34801561071557600080fd5b50610730600480360381019061072b91906144e8565b611fb9565b005b34801561073e57600080fd5b5061075960048036038101906107549190614375565b611fcf565b005b34801561076757600080fd5b50610782600480360381019061077d91906145dd565b6120e1565b005b34801561079057600080fd5b506107ab60048036038101906107a69190614660565b612143565b005b3480156107b957600080fd5b506107d460048036038101906107cf91906146a0565b612182565b005b3480156107e257600080fd5b506107fd60048036038101906107f89190613cd6565b6123b3565b60405161080a91906139f7565b60405180910390f35b34801561081f57600080fd5b5061083a60048036038101906108359190613b03565b61240a565b6040516108479190613aab565b60405180910390f35b34801561085c57600080fd5b506108656124fd565b6040516108729190613ba9565b60405180910390f35b34801561088757600080fd5b506108a2600480360381019061089d9190613b03565b612512565b6040516108b99b9a99989796959493929190614702565b60405180910390f35b3480156108ce57600080fd5b506108d76125fc565b6040516108e491906147ce565b60405180910390f35b3480156108f957600080fd5b50610902612623565b60405161090f919061421d565b60405180910390f35b34801561092457600080fd5b5061093f600480360381019061093a91906147e9565b61262a565b60405161094c91906139f7565b60405180910390f35b34801561096157600080fd5b5061097c60048036038101906109779190613cd6565b6126bf565b005b34801561098a57600080fd5b506109936127b7565b6040516109a0919061484a565b60405180910390f35b60007f80ac58cd000000000000000000000000000000000000000000000000000000007bffffffffffffffffffffffffffffffffffffffffffffffffffffffff1916827bffffffffffffffffffffffffffffffffffffffffffffffffffffffff19161480610a7457507f5b5e139f000000000000000000000000000000000000000000000000000000007bffffffffffffffffffffffffffffffffffffffffffffffffffffffff1916827bffffffffffffffffffffffffffffffffffffffffffffffffffffffff1916145b80610a845750610a83826127de565b5b9050919050565b606060fc8054610a9a90614894565b80601f0160208091040260200160405190810160405280929190818152602001828054610ac690614894565b8015610b135780601f10610ae857610100808354040283529160200191610b13565b820191906000526020600020905b815481529060010190602001808311610af657829003601f168201915b5050505050905090565b6000610b2882612848565b610b67576040517f08c379a0000000000000000000000000000000000000000000000000000000008152600401610b5e90614938565b60405180910390fd5b610100600083815260200190815260200160002060009054906101000a900473ffffffffffffffffffffffffffffffffffffffff169050919050565b61012f60069054906101000a900461ffff1681565b6000610bc382611221565b90508073ffffffffffffffffffffffffffffffffffffffff168373ffffffffffffffffffffffffffffffffffffffff161415610c34576040517f08c379a0000000000000000000000000000000000000000000000000000000008152600401610c2b906149ca565b60405180910390fd5b8073ffffffffffffffffffffffffffffffffffffffff16610c536128b4565b73ffffffffffffffffffffffffffffffffffffffff161480610c825750610c8181610c7c6128b4565b61262a565b5b610cc1576040517f08c379a0000000000000000000000000000000000000000000000000000000008152600401610cb890614a5c565b60405180910390fd5b610ccb83836128bc565b505050565b610cd86128b4565b73ffffffffffffffffffffffffffffffffffffffff16610cf6611c10565b73ffffffffffffffffffffffffffffffffffffffff1614610d4c576040517f08c379a0000000000000000000000000000000000000000000000000000000008152600401610d4390614ac8565b60405180910390fd5b826101308190555081610131819055508061013560006101000a81548173ffffffffffffffffffffffffffffffffffffffff021916908373ffffffffffffffffffffffffffffffffffffffff160217905550505050565b610db4610dae6128b4565b82612976565b610df3576040517f08c379a0000000000000000000000000000000000000000000000000000000008152600401610dea90614b5a565b60405180910390fd5b610dfe838383612a54565b505050565b61012f60009054906101000a900461ffff1681565b610e206128b4565b73ffffffffffffffffffffffffffffffffffffffff16610e3e611c10565b73ffffffffffffffffffffffffffffffffffffffff1614610e94576040517f08c379a0000000000000000000000000000000000000000000000000000000008152600401610e8b90614ac8565b60405180910390fd5b8061013660006101000a81548173ffffffffffffffffffffffffffffffffffffffff021916908373ffffffffffffffffffffffffffffffffffffffff16021790555050565b610ee1612cbb565b610ee9612d4d565b565b610f06838383604051806020016040528060008152506120e1565b505050565b61012f60029054906101000a900461ffff1681565b6000603360009054906101000a900460ff16905090565b610f3f612cbb565b60c960009054906101000a900473ffffffffffffffffffffffffffffffffffffffff1673ffffffffffffffffffffffffffffffffffffffff166108fc479081150290604051600060405180830381858888f19350505050158015610fa7573d6000803e3d6000fd5b50565b610fb2610f20565b15610ff2576040517f08c379a0000000000000000000000000000000000000000000000000000000008152600401610fe990614bc6565b60405180910390fd5b610ffa6128b4565b73ffffffffffffffffffffffffffffffffffffffff163273ffffffffffffffffffffffffffffffffffffffff1614611067576040517f08c379a000000000000000000000000000000000000000000000000000000000815260040161105e90614c32565b60405180910390fd5b600061013760009054906101000a900473ffffffffffffffffffffffffffffffffffffffff1673ffffffffffffffffffffffffffffffffffffffff1663abc26c606110b06128b4565b853461012f60009054906101000a900461ffff1661013054610131546040518763ffffffff1660e01b81526004016110ed96959493929190614c52565b6020604051808303816000875af115801561110c573d6000803e3d6000fd5b505050506040513d601f19601f820116820180604052508101906111309190614cc8565b90508260ff1661012f60008282829054906101000a900461ffff166111559190614d24565b92506101000a81548161ffff021916908361ffff16021790555061013360009054906101000a900473ffffffffffffffffffffffffffffffffffffffff1673ffffffffffffffffffffffffffffffffffffffff1663e8ff04a16111b66128b4565b8585856040518563ffffffff1660e01b81526004016111d89493929190614d5c565b6020604051808303816000875af11580156111f7573d6000803e3d6000fd5b505050506040513d601f19601f8201168201806040525081019061121b9190614db6565b50505050565b60008060fe600084815260200190815260200160002060009054906101000a900473ffffffffffffffffffffffffffffffffffffffff169050600073ffffffffffffffffffffffffffffffffffffffff168173ffffffffffffffffffffffffffffffffffffffff1614156112ca576040517f08c379a00000000000000000000000000000000000000000000000000000000081526004016112c190614e55565b60405180910390fd5b80915050919050565b60008060606112e0612def565b6000610132600089815260200190815260200160002060000160009054906101000a900460ff169050600061013260008a815260200190815260200160002060000160089054906101000a900460ff169050600061013260008b815260200190815260200160002060000160099054906101000a900460ff16905061013560009054906101000a900473ffffffffffffffffffffffffffffffffffffffff1673ffffffffffffffffffffffffffffffffffffffff16634718e3088484848d8d8d6040518763ffffffff1660e01b81526004016113c196959493929190614e75565b6000604051808303816000875af11580156113e0573d6000803e3d6000fd5b505050506040513d6000823e3d601f19601f820116820180604052508101906114099190614f8c565b8096508197508298505050508561013260008c815260200190815260200160002060000160086101000a81548160ff021916908360ff1602179055508461013260008c815260200190815260200160002060000160096101000a81548160ff021916908360ff1602179055505050509450945094915050565b61148a6128b4565b73ffffffffffffffffffffffffffffffffffffffff166114a8611c10565b73ffffffffffffffffffffffffffffffffffffffff16146114fe576040517f08c379a00000000000000000000000000000000000000000000000000000000081526004016114f590614ac8565b60405180910390fd5b8060c960006101000a81548173ffffffffffffffffffffffffffffffffffffffff021916908373ffffffffffffffffffffffffffffffffffffffff16021790555050565b60026097541415611588576040517f08c379a000000000000000000000000000000000000000000000000000000000815260040161157f90615047565b60405180910390fd5b6002609781905550611598610f20565b156115d8576040517f08c379a00000000000000000000000000000000000000000000000000000000081526004016115cf90614bc6565b60405180910390fd5b61013360009054906101000a900473ffffffffffffffffffffffffffffffffffffffff1673ffffffffffffffffffffffffffffffffffffffff163373ffffffffffffffffffffffffffffffffffffffff1614611669576040517f08c379a0000000000000000000000000000000000000000000000000000000008152600401611660906150b3565b60405180910390fd5b6000826040015160ff1667ffffffffffffffff81111561168c5761168b613e9a565b5b6040519080825280602002602001820160405280156116ba5781602001602082028036833780820191505090505b50905060005b836040015160ff16811015611a065761012f600281819054906101000a900461ffff16809291906116f0906150d3565b91906101000a81548161ffff021916908361ffff1602179055505061012f60029054906101000a900461ffff168282815181106117305761172f6150fe565b5b602002602001019061ffff16908161ffff1681525050828181518110611759576117586150fe565b5b6020026020010151610132600061012f60029054906101000a900461ffff1661ffff16815260200190815260200160002060008201518160000160006101000a81548160ff02191690831515021790555060208201518160000160016101000a81548160ff021916908360ff16021790555060408201518160000160026101000a81548160ff021916908360ff16021790555060608201518160000160036101000a81548160ff021916908360ff16021790555060808201518160000160046101000a81548160ff021916908360ff16021790555060a08201518160000160056101000a81548160ff021916908360ff16021790555060c08201518160000160066101000a81548160ff021916908360ff16021790555060e08201518160000160076101000a81548160ff021916908360ff1602179055506101008201518160000160086101000a81548160ff021916908360ff1602179055506101208201518160000160096101000a81548160ff021916908360ff16021790555061014082015181600001600a6101000a81548160ff021916908360000b60ff1602179055509050508281815181106119105761190f6150fe565b5b6020026020010151600001516119605761012f600681819054906101000a900461ffff1680929190611941906150d3565b91906101000a81548161ffff021916908361ffff16021790555061199c565b61012f600481819054906101000a900461ffff1680929190611981906150d3565b91906101000a81548161ffff021916908361ffff1602179055505b506119f384606001516119b35784602001516119d8565b61013660009054906101000a900473ffffffffffffffffffffffffffffffffffffffff165b61012f60029054906101000a900461ffff1661ffff16612e7e565b80806119fe9061512d565b9150506116c0565b50826060015115611aa65761013660009054906101000a900473ffffffffffffffffffffffffffffffffffffffff1673ffffffffffffffffffffffffffffffffffffffff1663dbdc1f6b8460200151836040518363ffffffff1660e01b8152600401611a73929190615234565b600060405180830381600087803b158015611a8d57600080fd5b505af1158015611aa1573d6000803e3d6000fd5b505050505b5060016097819055505050565b60008073ffffffffffffffffffffffffffffffffffffffff168273ffffffffffffffffffffffffffffffffffffffff161415611b24576040517f08c379a0000000000000000000000000000000000000000000000000000000008152600401611b1b906152d6565b60405180910390fd5b60ff60008373ffffffffffffffffffffffffffffffffffffffff1673ffffffffffffffffffffffffffffffffffffffff168152602001908152602001600020549050919050565b611b736128b4565b73ffffffffffffffffffffffffffffffffffffffff16611b91611c10565b73ffffffffffffffffffffffffffffffffffffffff1614611be7576040517f08c379a0000000000000000000000000000000000000000000000000000000008152600401611bde90614ac8565b60405180910390fd5b611bf16000612e9c565b565b600061013154905090565b611c06612cbb565b611c0e612f62565b565b6000606560009054906101000a900473ffffffffffffffffffffffffffffffffffffffff16905090565b61013360009054906101000a900473ffffffffffffffffffffffffffffffffffffffff1681565b611c696128b4565b73ffffffffffffffffffffffffffffffffffffffff16611c87611c10565b73ffffffffffffffffffffffffffffffffffffffff1614611cdd576040517f08c379a0000000000000000000000000000000000000000000000000000000008152600401611cd490614ac8565b60405180910390fd5b60005b8151811015611d6f57600061012e6000848481518110611d0357611d026150fe565b5b602002602001015173ffffffffffffffffffffffffffffffffffffffff1673ffffffffffffffffffffffffffffffffffffffff16815260200190815260200160002060006101000a81548160ff0219169083151502179055508080611d679061512d565b915050611ce0565b5050565b611d7b613827565b611d8482612848565b611dc3576040517f08c379a0000000000000000000000000000000000000000000000000000000008152600401611dba90615368565b60405180910390fd5b6101326000838152602001908152602001600020604051806101600160405290816000820160009054906101000a900460ff161515151581526020016000820160019054906101000a900460ff1660ff1660ff1681526020016000820160029054906101000a900460ff1660ff1660ff1681526020016000820160039054906101000a900460ff1660ff1660ff1681526020016000820160049054906101000a900460ff1660ff1660ff1681526020016000820160059054906101000a900460ff1660ff1660ff1681526020016000820160069054906101000a900460ff1660ff1660ff1681526020016000820160079054906101000a900460ff1660ff1660ff1681526020016000820160089054906101000a900460ff1660ff1660ff1681526020016000820160099054906101000a900460ff1660ff1660ff16815260200160008201600a9054906101000a900460000b60000b60000b815250509050919050565b606060fd8054611f3690614894565b80601f0160208091040260200160405190810160405280929190818152602001828054611f6290614894565b8015611faf5780601f10611f8457610100808354040283529160200191611faf565b820191906000526020600020905b815481529060010190602001808311611f9257829003601f168201915b5050505050905090565b611fcb611fc46128b4565b8383613005565b5050565b611fd76128b4565b73ffffffffffffffffffffffffffffffffffffffff16611ff5611c10565b73ffffffffffffffffffffffffffffffffffffffff161461204b576040517f08c379a000000000000000000000000000000000000000000000000000000000815260040161204290614ac8565b60405180910390fd5b60005b81518110156120dd57600161012e6000848481518110612071576120706150fe565b5b602002602001015173ffffffffffffffffffffffffffffffffffffffff1673ffffffffffffffffffffffffffffffffffffffff16815260200190815260200160002060006101000a81548160ff02191690831515021790555080806120d59061512d565b91505061204e565b5050565b6120f26120ec6128b4565b83612976565b612131576040517f08c379a000000000000000000000000000000000000000000000000000000000815260040161212890614b5a565b60405180910390fd5b61213d84848484613173565b50505050565b61214b612def565b806101326000848152602001908152602001600020600001600a6101000a81548160ff021916908360000b60ff1602179055505050565b600060019054906101000a900460ff166121aa5760008054906101000a900460ff16156121b3565b6121b26131cf565b5b6121f2576040517f08c379a00000000000000000000000000000000000000000000000000000000081526004016121e9906153fa565b60405180910390fd5b60008060019054906101000a900460ff161590508015612242576001600060016101000a81548160ff02191690831515021790555060016000806101000a81548160ff0219169083151502179055505b61224a6131e0565b612252613239565b6122c66040518060400160405280601381526020017f526174416c6572742043686172616374657273000000000000000000000000008152506040518060400160405280600781526020017f5241544341535400000000000000000000000000000000000000000000000000815250613292565b8361013760006101000a81548173ffffffffffffffffffffffffffffffffffffffff021916908373ffffffffffffffffffffffffffffffffffffffff1602179055508261013360006101000a81548173ffffffffffffffffffffffffffffffffffffffff021916908373ffffffffffffffffffffffffffffffffffffffff1602179055508161013460006101000a81548173ffffffffffffffffffffffffffffffffffffffff021916908373ffffffffffffffffffffffffffffffffffffffff16021790555080156123ad5760008060016101000a81548160ff0219169083151502179055505b50505050565b600061012e60008373ffffffffffffffffffffffffffffffffffffffff1673ffffffffffffffffffffffffffffffffffffffff16815260200190815260200160002060009054906101000a900460ff169050919050565b606061241582612848565b612454576040517f08c379a000000000000000000000000000000000000000000000000000000000815260040161244b90615368565b60405180910390fd5b61013460009054906101000a900473ffffffffffffffffffffffffffffffffffffffff1673ffffffffffffffffffffffffffffffffffffffff1663c87b56dd836040518263ffffffff1660e01b81526004016124b0919061421d565b600060405180830381865afa1580156124cd573d6000803e3d6000fd5b505050506040513d6000823e3d601f19601f820116820180604052508101906124f6919061541a565b9050919050565b61012f60049054906101000a900461ffff1681565b6101326020528060005260406000206000915090508060000160009054906101000a900460ff16908060000160019054906101000a900460ff16908060000160029054906101000a900460ff16908060000160039054906101000a900460ff16908060000160049054906101000a900460ff16908060000160059054906101000a900460ff16908060000160069054906101000a900460ff16908060000160079054906101000a900460ff16908060000160089054906101000a900460ff16908060000160099054906101000a900460ff169080600001600a9054906101000a900460000b90508b565b61013460009054906101000a900473ffffffffffffffffffffffffffffffffffffffff1681565b6101305481565b600061010160008473ffffffffffffffffffffffffffffffffffffffff1673ffffffffffffffffffffffffffffffffffffffff16815260200190815260200160002060008373ffffffffffffffffffffffffffffffffffffffff1673ffffffffffffffffffffffffffffffffffffffff16815260200190815260200160002060009054906101000a900460ff16905092915050565b6126c76128b4565b73ffffffffffffffffffffffffffffffffffffffff166126e5611c10565b73ffffffffffffffffffffffffffffffffffffffff161461273b576040517f08c379a000000000000000000000000000000000000000000000000000000000815260040161273290614ac8565b60405180910390fd5b600073ffffffffffffffffffffffffffffffffffffffff168173ffffffffffffffffffffffffffffffffffffffff1614156127ab576040517f08c379a00000000000000000000000000000000000000000000000000000000081526004016127a2906154d5565b60405180910390fd5b6127b481612e9c565b50565b61013560009054906101000a900473ffffffffffffffffffffffffffffffffffffffff1681565b60007f01ffc9a7000000000000000000000000000000000000000000000000000000007bffffffffffffffffffffffffffffffffffffffffffffffffffffffff1916827bffffffffffffffffffffffffffffffffffffffffffffffffffffffff1916149050919050565b60008073ffffffffffffffffffffffffffffffffffffffff1660fe600084815260200190815260200160002060009054906101000a900473ffffffffffffffffffffffffffffffffffffffff1673ffffffffffffffffffffffffffffffffffffffff1614159050919050565b600033905090565b81610100600083815260200190815260200160002060006101000a81548173ffffffffffffffffffffffffffffffffffffffff021916908373ffffffffffffffffffffffffffffffffffffffff160217905550808273ffffffffffffffffffffffffffffffffffffffff1661293083611221565b73ffffffffffffffffffffffffffffffffffffffff167f8c5be1e5ebec7d5bd14f71427d1e84f3dd0314c0f7b2291e5b200ac8c7c3b92560405160405180910390a45050565b600061298182612848565b6129c0576040517f08c379a00000000000000000000000000000000000000000000000000000000081526004016129b790615567565b60405180910390fd5b60006129cb83611221565b90508073ffffffffffffffffffffffffffffffffffffffff168473ffffffffffffffffffffffffffffffffffffffff161480612a3a57508373ffffffffffffffffffffffffffffffffffffffff16612a2284610b1d565b73ffffffffffffffffffffffffffffffffffffffff16145b80612a4b5750612a4a818561262a565b5b91505092915050565b8273ffffffffffffffffffffffffffffffffffffffff16612a7482611221565b73ffffffffffffffffffffffffffffffffffffffff1614612aca576040517f08c379a0000000000000000000000000000000000000000000000000000000008152600401612ac1906155f9565b60405180910390fd5b600073ffffffffffffffffffffffffffffffffffffffff168273ffffffffffffffffffffffffffffffffffffffff161415612b3a576040517f08c379a0000000000000000000000000000000000000000000000000000000008152600401612b319061568b565b60405180910390fd5b612b458383836132ef565b612b506000826128bc565b600160ff60008573ffffffffffffffffffffffffffffffffffffffff1673ffffffffffffffffffffffffffffffffffffffff1681526020019081526020016000206000828254612ba091906156ab565b92505081905550600160ff60008473ffffffffffffffffffffffffffffffffffffffff1673ffffffffffffffffffffffffffffffffffffffff1681526020019081526020016000206000828254612bf791906156df565b925050819055508160fe600083815260200190815260200160002060006101000a81548173ffffffffffffffffffffffffffffffffffffffff021916908373ffffffffffffffffffffffffffffffffffffffff160217905550808273ffffffffffffffffffffffffffffffffffffffff168473ffffffffffffffffffffffffffffffffffffffff167fddf252ad1be2c89b69c2b068fc378daa952ba7f163c4a11628f55a4df523b3ef60405160405180910390a4612cb68383836132f4565b505050565b60c960009054906101000a900473ffffffffffffffffffffffffffffffffffffffff1673ffffffffffffffffffffffffffffffffffffffff163373ffffffffffffffffffffffffffffffffffffffff1614612d4b576040517f08c379a0000000000000000000000000000000000000000000000000000000008152600401612d4290615781565b60405180910390fd5b565b612d55610f20565b612d94576040517f08c379a0000000000000000000000000000000000000000000000000000000008152600401612d8b906157ed565b60405180910390fd5b6000603360006101000a81548160ff0219169083151502179055507f5db9ee0a495bf2e6ff9c91a7834c1ba4fdd244a5e8aa4e537bd38aeae4b073aa612dd86128b4565b604051612de59190613b71565b60405180910390a1565b61012e60003373ffffffffffffffffffffffffffffffffffffffff1673ffffffffffffffffffffffffffffffffffffffff16815260200190815260200160002060009054906101000a900460ff16612e7c576040517f08c379a0000000000000000000000000000000000000000000000000000000008152600401612e7390615859565b60405180910390fd5b565b612e988282604051806020016040528060008152506132f9565b5050565b6000606560009054906101000a900473ffffffffffffffffffffffffffffffffffffffff16905081606560006101000a81548173ffffffffffffffffffffffffffffffffffffffff021916908373ffffffffffffffffffffffffffffffffffffffff1602179055508173ffffffffffffffffffffffffffffffffffffffff168173ffffffffffffffffffffffffffffffffffffffff167f8be0079c531659141344cd1fd0a4f28419497f9722a3daafe3b4186f6b6457e060405160405180910390a35050565b612f6a610f20565b15612faa576040517f08c379a0000000000000000000000000000000000000000000000000000000008152600401612fa190614bc6565b60405180910390fd5b6001603360006101000a81548160ff0219169083151502179055507f62e78cea01bee320cd4e420270b5ea74000d11b0c9f74754ebdbfc544b05a258612fee6128b4565b604051612ffb9190613b71565b60405180910390a1565b8173ffffffffffffffffffffffffffffffffffffffff168373ffffffffffffffffffffffffffffffffffffffff161415613074576040517f08c379a000000000000000000000000000000000000000000000000000000000815260040161306b906158c5565b60405180910390fd5b8061010160008573ffffffffffffffffffffffffffffffffffffffff1673ffffffffffffffffffffffffffffffffffffffff16815260200190815260200160002060008473ffffffffffffffffffffffffffffffffffffffff1673ffffffffffffffffffffffffffffffffffffffff16815260200190815260200160002060006101000a81548160ff0219169083151502179055508173ffffffffffffffffffffffffffffffffffffffff168373ffffffffffffffffffffffffffffffffffffffff167f17307eab39ab6107e8899845ad3d59bd9653f200f220920489ca2b5937696c318360405161316691906139f7565b60405180910390a3505050565b61317e848484612a54565b61318a84848484613354565b6131c9576040517f08c379a00000000000000000000000000000000000000000000000000000000081526004016131c090615957565b60405180910390fd5b50505050565b60006131da306134dc565b15905090565b600060019054906101000a900460ff1661322f576040517f08c379a0000000000000000000000000000000000000000000000000000000008152600401613226906159e9565b60405180910390fd5b6132376134ff565b565b600060019054906101000a900460ff16613288576040517f08c379a000000000000000000000000000000000000000000000000000000000815260040161327f906159e9565b60405180910390fd5b613290613560565b565b600060019054906101000a900460ff166132e1576040517f08c379a00000000000000000000000000000000000000000000000000000000081526004016132d8906159e9565b60405180910390fd5b6132eb82826135cc565b5050565b505050565b505050565b613303838361364d565b6133106000848484613354565b61334f576040517f08c379a000000000000000000000000000000000000000000000000000000000815260040161334690615957565b60405180910390fd5b505050565b60006133758473ffffffffffffffffffffffffffffffffffffffff166134dc565b156134cf578373ffffffffffffffffffffffffffffffffffffffff1663150b7a0261339e6128b4565b8786866040518563ffffffff1660e01b81526004016133c09493929190615a5e565b6020604051808303816000875af19250505080156133fc57506040513d601f19601f820116820180604052508101906133f99190615abf565b60015b61347f573d806000811461342c576040519150601f19603f3d011682016040523d82523d6000602084013e613431565b606091505b50600081511415613477576040517f08c379a000000000000000000000000000000000000000000000000000000000815260040161346e90615957565b60405180910390fd5b805181602001fd5b63150b7a0260e01b7bffffffffffffffffffffffffffffffffffffffffffffffffffffffff1916817bffffffffffffffffffffffffffffffffffffffffffffffffffffffff1916149150506134d4565b600190505b949350505050565b6000808273ffffffffffffffffffffffffffffffffffffffff163b119050919050565b600060019054906101000a900460ff1661354e576040517f08c379a0000000000000000000000000000000000000000000000000000000008152600401613545906159e9565b60405180910390fd5b61355e6135596128b4565b612e9c565b565b600060019054906101000a900460ff166135af576040517f08c379a00000000000000000000000000000000000000000000000000000000081526004016135a6906159e9565b60405180910390fd5b6000603360006101000a81548160ff021916908315150217905550565b600060019054906101000a900460ff1661361b576040517f08c379a0000000000000000000000000000000000000000000000000000000008152600401613612906159e9565b60405180910390fd5b8160fc90805190602001906136319291906138a0565b508060fd90805190602001906136489291906138a0565b505050565b600073ffffffffffffffffffffffffffffffffffffffff168273ffffffffffffffffffffffffffffffffffffffff1614156136bd576040517f08c379a00000000000000000000000000000000000000000000000000000000081526004016136b490615b38565b60405180910390fd5b6136c681612848565b15613706576040517f08c379a00000000000000000000000000000000000000000000000000000000081526004016136fd90615ba4565b60405180910390fd5b613712600083836132ef565b600160ff60008473ffffffffffffffffffffffffffffffffffffffff1673ffffffffffffffffffffffffffffffffffffffff168152602001908152602001600020600082825461376291906156df565b925050819055508160fe600083815260200190815260200160002060006101000a81548173ffffffffffffffffffffffffffffffffffffffff021916908373ffffffffffffffffffffffffffffffffffffffff160217905550808273ffffffffffffffffffffffffffffffffffffffff16600073ffffffffffffffffffffffffffffffffffffffff167fddf252ad1be2c89b69c2b068fc378daa952ba7f163c4a11628f55a4df523b3ef60405160405180910390a4613823600083836132f4565b5050565b604051806101600160405280600015158152602001600060ff168152602001600060ff168152602001600060ff168152602001600060ff168152602001600060ff168152602001600060ff168152602001600060ff168152602001600060ff168152602001600060ff1681526020016000800b81525090565b8280546138ac90614894565b90600052602060002090601f0160209004810192826138ce5760008555613915565b82601f106138e757805160ff1916838001178555613915565b82800160010185558215613915579182015b828111156139145782518255916020019190600101906138f9565b5b5090506139229190613926565b5090565b5b8082111561393f576000816000905550600101613927565b5090565b6000604051905090565b600080fd5b600080fd5b60007fffffffff0000000000000000000000000000000000000000000000000000000082169050919050565b61398c81613957565b811461399757600080fd5b50565b6000813590506139a981613983565b92915050565b6000602082840312156139c5576139c461394d565b5b60006139d38482850161399a565b91505092915050565b60008115159050919050565b6139f1816139dc565b82525050565b6000602082019050613a0c60008301846139e8565b92915050565b600081519050919050565b600082825260208201905092915050565b60005b83811015613a4c578082015181840152602081019050613a31565b83811115613a5b576000848401525b50505050565b6000601f19601f8301169050919050565b6000613a7d82613a12565b613a878185613a1d565b9350613a97818560208601613a2e565b613aa081613a61565b840191505092915050565b60006020820190508181036000830152613ac58184613a72565b905092915050565b6000819050919050565b613ae081613acd565b8114613aeb57600080fd5b50565b600081359050613afd81613ad7565b92915050565b600060208284031215613b1957613b1861394d565b5b6000613b2784828501613aee565b91505092915050565b600073ffffffffffffffffffffffffffffffffffffffff82169050919050565b6000613b5b82613b30565b9050919050565b613b6b81613b50565b82525050565b6000602082019050613b866000830184613b62565b92915050565b600061ffff82169050919050565b613ba381613b8c565b82525050565b6000602082019050613bbe6000830184613b9a565b92915050565b613bcd81613b50565b8114613bd857600080fd5b50565b600081359050613bea81613bc4565b92915050565b60008060408385031215613c0757613c0661394d565b5b6000613c1585828601613bdb565b9250506020613c2685828601613aee565b9150509250929050565b600080600060608486031215613c4957613c4861394d565b5b6000613c5786828701613aee565b9350506020613c6886828701613aee565b9250506040613c7986828701613bdb565b9150509250925092565b600080600060608486031215613c9c57613c9b61394d565b5b6000613caa86828701613bdb565b9350506020613cbb86828701613bdb565b9250506040613ccc86828701613aee565b9150509250925092565b600060208284031215613cec57613ceb61394d565b5b6000613cfa84828501613bdb565b91505092915050565b600060ff82169050919050565b613d1981613d03565b8114613d2457600080fd5b50565b600081359050613d3681613d10565b92915050565b613d45816139dc565b8114613d5057600080fd5b50565b600081359050613d6281613d3c565b92915050565b60008060408385031215613d7f57613d7e61394d565b5b6000613d8d85828601613d27565b9250506020613d9e85828601613d53565b9150509250929050565b60008160000b9050919050565b613dbe81613da8565b8114613dc957600080fd5b50565b600081359050613ddb81613db5565b92915050565b60008060008060808587031215613dfb57613dfa61394d565b5b6000613e0987828801613aee565b9450506020613e1a87828801613dcc565b9350506040613e2b87828801613dcc565b9250506060613e3c87828801613aee565b91505092959194509250565b613e5181613d03565b82525050565b6000606082019050613e6c6000830186613e48565b613e796020830185613e48565b8181036040830152613e8b8184613a72565b9050949350505050565b600080fd5b7f4e487b7100000000000000000000000000000000000000000000000000000000600052604160045260246000fd5b613ed282613a61565b810181811067ffffffffffffffff82111715613ef157613ef0613e9a565b5b80604052505050565b6000613f04613943565b9050613f108282613ec9565b919050565b6000819050919050565b613f2881613f15565b8114613f3357600080fd5b50565b600081359050613f4581613f1f565b92915050565b600060a08284031215613f6157613f60613e95565b5b613f6b60a0613efa565b90506000613f7b84828501613f36565b6000830152506020613f8f84828501613bdb565b6020830152506040613fa384828501613d27565b6040830152506060613fb784828501613d53565b6060830152506080613fcb84828501613dcc565b60808301525092915050565b600080fd5b600067ffffffffffffffff821115613ff757613ff6613e9a565b5b602082029050602081019050919050565b600080fd5b6000610160828403121561402457614023613e95565b5b61402f610160613efa565b9050600061403f84828501613d53565b600083015250602061405384828501613d27565b602083015250604061406784828501613d27565b604083015250606061407b84828501613d27565b606083015250608061408f84828501613d27565b60808301525060a06140a384828501613d27565b60a08301525060c06140b784828501613d27565b60c08301525060e06140cb84828501613d27565b60e0830152506101006140e084828501613d27565b610100830152506101206140f684828501613d27565b6101208301525061014061410c84828501613dcc565b6101408301525092915050565b600061412c61412784613fdc565b613efa565b90508083825260208201905061016084028301858111156141505761414f614008565b5b835b8181101561417a5780614165888261400d565b84526020840193505061016081019050614152565b5050509392505050565b600082601f83011261419957614198613fd7565b5b81356141a9848260208601614119565b91505092915050565b60008060c083850312156141c9576141c861394d565b5b60006141d785828601613f4b565b92505060a083013567ffffffffffffffff8111156141f8576141f7613952565b5b61420485828601614184565b9150509250929050565b61421781613acd565b82525050565b6000602082019050614232600083018461420e565b92915050565b6000819050919050565b600061425d61425861425384613b30565b614238565b613b30565b9050919050565b600061426f82614242565b9050919050565b600061428182614264565b9050919050565b61429181614276565b82525050565b60006020820190506142ac6000830184614288565b92915050565b600067ffffffffffffffff8211156142cd576142cc613e9a565b5b602082029050602081019050919050565b60006142f16142ec846142b2565b613efa565b9050808382526020820190506020840283018581111561431457614313614008565b5b835b8181101561433d57806143298882613bdb565b845260208401935050602081019050614316565b5050509392505050565b600082601f83011261435c5761435b613fd7565b5b813561436c8482602086016142de565b91505092915050565b60006020828403121561438b5761438a61394d565b5b600082013567ffffffffffffffff8111156143a9576143a8613952565b5b6143b584828501614347565b91505092915050565b6143c7816139dc565b82525050565b6143d681613d03565b82525050565b6143e581613da8565b82525050565b6101608201600082015161440260008501826143be565b50602082015161441560208501826143cd565b50604082015161442860408501826143cd565b50606082015161443b60608501826143cd565b50608082015161444e60808501826143cd565b5060a082015161446160a08501826143cd565b5060c082015161447460c08501826143cd565b5060e082015161448760e08501826143cd565b5061010082015161449c6101008501826143cd565b506101208201516144b16101208501826143cd565b506101408201516144c66101408501826143dc565b50505050565b6000610160820190506144e260008301846143eb565b92915050565b600080604083850312156144ff576144fe61394d565b5b600061450d85828601613bdb565b925050602061451e85828601613d53565b9150509250929050565b600080fd5b600067ffffffffffffffff82111561454857614547613e9a565b5b61455182613a61565b9050602081019050919050565b82818337600083830152505050565b600061458061457b8461452d565b613efa565b90508281526020810184848401111561459c5761459b614528565b5b6145a784828561455e565b509392505050565b600082601f8301126145c4576145c3613fd7565b5b81356145d484826020860161456d565b91505092915050565b600080600080608085870312156145f7576145f661394d565b5b600061460587828801613bdb565b945050602061461687828801613bdb565b935050604061462787828801613aee565b925050606085013567ffffffffffffffff81111561464857614647613952565b5b614654878288016145af565b91505092959194509250565b600080604083850312156146775761467661394d565b5b600061468585828601613aee565b925050602061469685828601613dcc565b9150509250929050565b6000806000606084860312156146b9576146b861394d565b5b60006146c786828701613bdb565b93505060206146d886828701613bdb565b92505060406146e986828701613bdb565b9150509250925092565b6146fc81613da8565b82525050565b600061016082019050614718600083018e6139e8565b614725602083018d613e48565b614732604083018c613e48565b61473f606083018b613e48565b61474c608083018a613e48565b61475960a0830189613e48565b61476660c0830188613e48565b61477360e0830187613e48565b614781610100830186613e48565b61478f610120830185613e48565b61479d6101408301846146f3565b9c9b505050505050505050505050565b60006147b882614264565b9050919050565b6147c8816147ad565b82525050565b60006020820190506147e360008301846147bf565b92915050565b60008060408385031215614800576147ff61394d565b5b600061480e85828601613bdb565b925050602061481f85828601613bdb565b9150509250929050565b600061483482614264565b9050919050565b61484481614829565b82525050565b600060208201905061485f600083018461483b565b92915050565b7f4e487b7100000000000000000000000000000000000000000000000000000000600052602260045260246000fd5b600060028204905060018216806148ac57607f821691505b602082108114156148c0576148bf614865565b5b50919050565b7f4552433732313a20617070726f76656420717565727920666f72206e6f6e657860008201527f697374656e7420746f6b656e0000000000000000000000000000000000000000602082015250565b6000614922602c83613a1d565b915061492d826148c6565b604082019050919050565b6000602082019050818103600083015261495181614915565b9050919050565b7f4552433732313a20617070726f76616c20746f2063757272656e74206f776e6560008201527f7200000000000000000000000000000000000000000000000000000000000000602082015250565b60006149b4602183613a1d565b91506149bf82614958565b604082019050919050565b600060208201905081810360008301526149e3816149a7565b9050919050565b7f4552433732313a20617070726f76652063616c6c6572206973206e6f74206f7760008201527f6e6572206e6f7220617070726f76656420666f7220616c6c0000000000000000602082015250565b6000614a46603883613a1d565b9150614a51826149ea565b604082019050919050565b60006020820190508181036000830152614a7581614a39565b9050919050565b7f4f776e61626c653a2063616c6c6572206973206e6f7420746865206f776e6572600082015250565b6000614ab2602083613a1d565b9150614abd82614a7c565b602082019050919050565b60006020820190508181036000830152614ae181614aa5565b9050919050565b7f4552433732313a207472616e736665722063616c6c6572206973206e6f74206f60008201527f776e6572206e6f7220617070726f766564000000000000000000000000000000602082015250565b6000614b44603183613a1d565b9150614b4f82614ae8565b604082019050919050565b60006020820190508181036000830152614b7381614b37565b9050919050565b7f5061757361626c653a2070617573656400000000000000000000000000000000600082015250565b6000614bb0601083613a1d565b9150614bbb82614b7a565b602082019050919050565b60006020820190508181036000830152614bdf81614ba3565b9050919050565b7f454f41206f6e6c79000000000000000000000000000000000000000000000000600082015250565b6000614c1c600883613a1d565b9150614c2782614be6565b602082019050919050565b60006020820190508181036000830152614c4b81614c0f565b9050919050565b600060c082019050614c676000830189613b62565b614c746020830188613e48565b614c81604083018761420e565b614c8e6060830186613b9a565b614c9b608083018561420e565b614ca860a083018461420e565b979650505050505050565b600081519050614cc281613db5565b92915050565b600060208284031215614cde57614cdd61394d565b5b6000614cec84828501614cb3565b91505092915050565b7f4e487b7100000000000000000000000000000000000000000000000000000000600052601160045260246000fd5b6000614d2f82613b8c565b9150614d3a83613b8c565b92508261ffff03821115614d5157614d50614cf5565b5b828201905092915050565b6000608082019050614d716000830187613b62565b614d7e6020830186613e48565b614d8b60408301856139e8565b614d9860608301846146f3565b95945050505050565b600081519050614db081613f1f565b92915050565b600060208284031215614dcc57614dcb61394d565b5b6000614dda84828501614da1565b91505092915050565b7f4552433732313a206f776e657220717565727920666f72206e6f6e657869737460008201527f656e7420746f6b656e0000000000000000000000000000000000000000000000602082015250565b6000614e3f602983613a1d565b9150614e4a82614de3565b604082019050919050565b60006020820190508181036000830152614e6e81614e32565b9050919050565b600060c082019050614e8a60008301896139e8565b614e976020830188613e48565b614ea46040830187613e48565b614eb160608301866146f3565b614ebe60808301856146f3565b614ecb60a083018461420e565b979650505050505050565b600081519050614ee581613d10565b92915050565b600067ffffffffffffffff821115614f0657614f05613e9a565b5b614f0f82613a61565b9050602081019050919050565b6000614f2f614f2a84614eeb565b613efa565b905082815260208101848484011115614f4b57614f4a614528565b5b614f56848285613a2e565b509392505050565b600082601f830112614f7357614f72613fd7565b5b8151614f83848260208601614f1c565b91505092915050565b600080600060608486031215614fa557614fa461394d565b5b6000614fb386828701614ed6565b9350506020614fc486828701614ed6565b925050604084015167ffffffffffffffff811115614fe557614fe4613952565b5b614ff186828701614f5e565b9150509250925092565b7f5265656e7472616e637947756172643a207265656e7472616e742063616c6c00600082015250565b6000615031601f83613a1d565b915061503c82614ffb565b602082019050919050565b6000602082019050818103600083015261506081615024565b9050919050565b7f4f6e6c7920746865204d696e742063616e2066756c66696c6c00000000000000600082015250565b600061509d601983613a1d565b91506150a882615067565b602082019050919050565b600060208201905081810360008301526150cc81615090565b9050919050565b60006150de82613b8c565b915061ffff8214156150f3576150f2614cf5565b5b600182019050919050565b7f4e487b7100000000000000000000000000000000000000000000000000000000600052603260045260246000fd5b600061513882613acd565b91507fffffffffffffffffffffffffffffffffffffffffffffffffffffffffffffffff82141561516b5761516a614cf5565b5b600182019050919050565b600081519050919050565b600082825260208201905092915050565b6000819050602082019050919050565b6151ab81613b8c565b82525050565b60006151bd83836151a2565b60208301905092915050565b6000602082019050919050565b60006151e182615176565b6151eb8185615181565b93506151f683615192565b8060005b8381101561522757815161520e88826151b1565b9750615219836151c9565b9250506001810190506151fa565b5085935050505092915050565b60006040820190506152496000830185613b62565b818103602083015261525b81846151d6565b90509392505050565b7f4552433732313a2062616c616e636520717565727920666f7220746865207a6560008201527f726f206164647265737300000000000000000000000000000000000000000000602082015250565b60006152c0602a83613a1d565b91506152cb82615264565b604082019050919050565b600060208201905081810360008301526152ef816152b3565b9050919050565b7f4552433732314d657461646174613a2055524920717565727920666f72206e6f60008201527f6e2d6578697374656e7420746f6b656e00000000000000000000000000000000602082015250565b6000615352603083613a1d565b915061535d826152f6565b604082019050919050565b6000602082019050818103600083015261538181615345565b9050919050565b7f496e697469616c697a61626c653a20636f6e747261637420697320616c72656160008201527f647920696e697469616c697a6564000000000000000000000000000000000000602082015250565b60006153e4602e83613a1d565b91506153ef82615388565b604082019050919050565b60006020820190508181036000830152615413816153d7565b9050919050565b6000602082840312156154305761542f61394d565b5b600082015167ffffffffffffffff81111561544e5761544d613952565b5b61545a84828501614f5e565b91505092915050565b7f4f776e61626c653a206e6577206f776e657220697320746865207a65726f206160008201527f6464726573730000000000000000000000000000000000000000000000000000602082015250565b60006154bf602683613a1d565b91506154ca82615463565b604082019050919050565b600060208201905081810360008301526154ee816154b2565b9050919050565b7f4552433732313a206f70657261746f7220717565727920666f72206e6f6e657860008201527f697374656e7420746f6b656e0000000000000000000000000000000000000000602082015250565b6000615551602c83613a1d565b915061555c826154f5565b604082019050919050565b6000602082019050818103600083015261558081615544565b9050919050565b7f4552433732313a207472616e736665722066726f6d20696e636f72726563742060008201527f6f776e6572000000000000000000000000000000000000000000000000000000602082015250565b60006155e3602583613a1d565b91506155ee82615587565b604082019050919050565b60006020820190508181036000830152615612816155d6565b9050919050565b7f4552433732313a207472616e7366657220746f20746865207a65726f2061646460008201527f7265737300000000000000000000000000000000000000000000000000000000602082015250565b6000615675602483613a1d565b915061568082615619565b604082019050919050565b600060208201905081810360008301526156a481615668565b9050919050565b60006156b682613acd565b91506156c183613acd565b9250828210156156d4576156d3614cf5565b5b828203905092915050565b60006156ea82613acd565b91506156f583613acd565b9250827fffffffffffffffffffffffffffffffffffffffffffffffffffffffffffffffff0382111561572a57615729614cf5565b5b828201905092915050565b7f4f6e6c792044414f2063616e2065786563757465000000000000000000000000600082015250565b600061576b601483613a1d565b915061577682615735565b602082019050919050565b6000602082019050818103600083015261579a8161575e565b9050919050565b7f5061757361626c653a206e6f7420706175736564000000000000000000000000600082015250565b60006157d7601483613a1d565b91506157e2826157a1565b602082019050919050565b60006020820190508181036000830152615806816157ca565b9050919050565b7f4f6e6c7920636f6e74726f6c6c6572732063616e206578656375746500000000600082015250565b6000615843601c83613a1d565b915061584e8261580d565b602082019050919050565b6000602082019050818103600083015261587281615836565b9050919050565b7f4552433732313a20617070726f766520746f2063616c6c657200000000000000600082015250565b60006158af601983613a1d565b91506158ba82615879565b602082019050919050565b600060208201905081810360008301526158de816158a2565b9050919050565b7f4552433732313a207472616e7366657220746f206e6f6e20455243373231526560008201527f63656976657220696d706c656d656e7465720000000000000000000000000000602082015250565b6000615941603283613a1d565b915061594c826158e5565b604082019050919050565b6000602082019050818103600083015261597081615934565b9050919050565b7f496e697469616c697a61626c653a20636f6e7472616374206973206e6f74206960008201527f6e697469616c697a696e67000000000000000000000000000000000000000000602082015250565b60006159d3602b83613a1d565b91506159de82615977565b604082019050919050565b60006020820190508181036000830152615a02816159c6565b9050919050565b600081519050919050565b600082825260208201905092915050565b6000615a3082615a09565b615a3a8185615a14565b9350615a4a818560208601613a2e565b615a5381613a61565b840191505092915050565b6000608082019050615a736000830187613b62565b615a806020830186613b62565b615a8d604083018561420e565b8181036060830152615a9f8184615a25565b905095945050505050565b600081519050615ab981613983565b92915050565b600060208284031215615ad557615ad461394d565b5b6000615ae384828501615aaa565b91505092915050565b7f4552433732313a206d696e7420746f20746865207a65726f2061646472657373600082015250565b6000615b22602083613a1d565b9150615b2d82615aec565b602082019050919050565b60006020820190508181036000830152615b5181615b15565b9050919050565b7f4552433732313a20746f6b656e20616c7265616479206d696e74656400000000600082015250565b6000615b8e601c83613a1d565b9150615b9982615b58565b602082019050919050565b60006020820190508181036000830152615bbd81615b81565b905091905056fea26469706673582212201b91433fa41228ffe58d9d87040eac4ffed3a99358edd5e1ad2c8343bf2c295264736f6c634300080a0033",
  "immutableReferences": {},
  "source": "// SPDX-License-Identifier: MIT\n\npragma solidity ^0.8.0;\n\nimport \"@openzeppelin/contracts-upgradeable/proxy/utils/Initializable.sol\";\nimport \"@openzeppelin/contracts-upgradeable/security/ReentrancyGuardUpgradeable.sol\";\nimport \"@openzeppelin/contracts-upgradeable/token/ERC721/ERC721Upgradeable.sol\";\nimport \"./GenericPausable.sol\";\nimport \"./ControllableUpgradeable.sol\";\nimport \"./ICharacter.sol\";\nimport \"./IMint.sol\";\nimport \"./ITraits.sol\";\nimport \"./IProperties.sol\";\nimport \"./IVenue.sol\";\nimport \"./IPaywall.sol\";\n\ncontract CharacterV2 is Initializable, OwnableUpgradeable, ReentrancyGuardUpgradeable, GenericPausable, ICharacter, ERC721Upgradeable, ControllableUpgradeable {\n  uint16 public paid;\n  uint16 public minted;\n  uint16 public numChefs;\n  uint16 public numRats;\n  uint256 public maxTokens; // Max number of tokens that can be minted\n  uint256 gen0Tokens; // Number of tokens that are purchased with native token\n\n  mapping(uint256 => CharacterStruct) public tokenTraits; // Mapping from tokenId to a struct containing the token's traits\n\n  IMint public theMint; // Reference to Mint\n  ITraits public traits; // Reference to Traits\n  IProperties public properties; // Reference to Properties\n  IVenue kitchen;\n  IPaywall paywall;\n\n  function initialize(\n    address _paywall,\n    address _mint,\n    address _traits\n  ) external initializer {\n    __Ownable_init();\n    __Pausable_init();\n    __ERC721_init(\"RatAlert Characters\", \"RATCAST\");\n\n    paywall = IPaywall(_paywall);\n    theMint = IMint(_mint);\n    traits = ITraits(_traits);\n  }\n\n  /**\n   * Allows DAO to update game parameters\n   */\n  function configure(uint256 _maxTokens, uint256 _gen0Tokens, address _properties) external onlyOwner {\n    maxTokens = _maxTokens;\n    gen0Tokens = _gen0Tokens;\n    properties = IProperties(_properties);\n  }\n\n  /**\n   * ChainLink VRF request: Mints a new ERC721 token: 90% chefs, 10% rats\n   * The first 20% are purchased with native token, the remaining cost $FFOOD\n   * @param amount Number of tokens to mint\n   * @param stake Number of tokens to mint\n   */\n  function mint(uint8 amount, bool stake) external payable whenNotPaused {\n    require(tx.origin == _msgSender(), \"EOA only\");\n    int8 boost = paywall.handle(_msgSender(), amount, msg.value, paid, maxTokens, gen0Tokens);\n    paid += amount;\n    theMint.requestRandomNumber(_msgSender(), amount, stake, boost);\n  }\n\n  /**\n   * Callback for mint(), called by Mint.fulfillRandomness()\n   * @param v - VRF struct for the corresponding request\n   * @param tokens - List of characters created by the Mint\n   */\n  function fulfillMint(IMint.VRFStruct memory v, CharacterStruct[] memory tokens) external nonReentrant whenNotPaused {\n    require(msg.sender == address(theMint), \"Only the Mint can fulfill\");\n\n    uint16[] memory tokenIds = new uint16[](v.amount);\n    for (uint i = 0; i < v.amount; i++) {\n      minted ++;\n      tokenIds[i] = minted;\n      tokenTraits[minted] = tokens[i];\n      tokens[i].isChef ? numChefs++ : numRats++;\n      _safeMint(v.stake ? address(kitchen) : v.sender, minted);\n    }\n    if (v.stake) kitchen.stakeMany(v.sender, tokenIds);\n  }\n\n  /**\n   * Allows the venues to update the character's efficiency & tolerance values when claiming\n   * @param tokenId - The ID of the Character\n   * @param efficiencyIncrement - The value to add/subtract to the current value\n   * @param toleranceIncrement - The value to add/subtract to the current value\n   * @param randomVal - A ChainLink VRF random number\n   */\n  function updateCharacter(uint256 tokenId, int8 efficiencyIncrement, int8 toleranceIncrement, uint256 randomVal) external onlyController returns(uint8 efficiencyValue, uint8 toleranceValue, string memory eventName) {\n    bool isChef = tokenTraits[tokenId].isChef;\n    uint8 currentEfficiency = tokenTraits[tokenId].efficiency;\n    uint8 currentTolerance = tokenTraits[tokenId].tolerance;\n    (efficiencyValue, toleranceValue, eventName) = properties.getEventUpdates(isChef, currentEfficiency, currentTolerance, efficiencyIncrement, toleranceIncrement, randomVal);\n    tokenTraits[tokenId].efficiency = efficiencyValue;\n    tokenTraits[tokenId].tolerance = toleranceValue;\n  }\n\n  /**\n   * Allows the venues to update the character's boost value when claiming\n   * @param tokenId - The ID of the Character\n   * @param boost - The value to set\n   */\n  function updateBoost(uint256 tokenId, int8 boost) external onlyController {\n    tokenTraits[tokenId].boost = boost;\n  }\n\n  /**\n   * Returns the base64 encoded ERC721 metadata\n   * @param tokenId - The ID of the Character\n   * @return base64 encoded JSON string\n   */\n  function tokenURI(uint256 tokenId) public view override returns (string memory) {\n    require(_exists(tokenId), \"ERC721Metadata: URI query for non-existent token\");\n    return traits.tokenURI(tokenId);\n  }\n\n  /**\n   * Returns the Character's struct\n   * @param tokenId - The ID of the Character\n   * @return Current CharacterStruct\n   */\n  function getTokenTraits(uint256 tokenId) external view override returns (CharacterStruct memory) {\n    require(_exists(tokenId), \"ERC721Metadata: URI query for non-existent token\");\n    return tokenTraits[tokenId];\n  }\n\n  /**\n   * Custom getter required for Traits contract\n   */\n  function getGen0Tokens() external view override returns (uint256) {\n    return gen0Tokens;\n  }\n\n  /**\n   * Allows DAO to withdraw funds\n   */\n  function withdrawPayments() external {\n    isDao();\n    payable(dao).transfer(address(this).balance); // Transfer to DAO wallet\n  }\n\n  /**\n   * Sets the kitchen address to optionally stake newly minted characters in\n   * @param _kitchen - The address of the Kitchen\n   */\n  function setKitchen(address _kitchen) external onlyOwner {\n    kitchen = IVenue(_kitchen);\n  }\n}\n",
  "sourcePath": "/Users/chris/workspace/ratalert/ratalert-contracts/contracts/CharacterV2.sol",
  "compiler": {
    "name": "solc",
    "version": "0.8.10+commit.fc410830.Emscripten.clang"
  },
  "schemaVersion": "3.4.7",
  "updatedAt": "2022-07-01T10:11:12.241Z",
  "devdoc": {
    "kind": "dev",
    "methods": {
      "addController(address[])": {
        "params": {
          "_controllers": "- The addresses to enable"
        }
      },
      "approve(address,uint256)": {
        "details": "See {IERC721-approve}."
      },
      "balanceOf(address)": {
        "details": "See {IERC721-balanceOf}."
      },
      "controller(address)": {
        "params": {
          "_controller": "- The address to check"
        }
      },
      "fulfillMint((bytes32,address,uint8,bool,int8),(bool,uint8,uint8,uint8,uint8,uint8,uint8,uint8,uint8,uint8,int8)[])": {
        "params": {
          "tokens": "- List of characters created by the Mint",
          "v": "- VRF struct for the corresponding request"
        }
      },
      "getApproved(uint256)": {
        "details": "See {IERC721-getApproved}."
      },
      "getTokenTraits(uint256)": {
        "params": {
          "tokenId": "- The ID of the Character"
        },
        "returns": {
          "_0": "Current CharacterStruct"
        }
      },
      "isApprovedForAll(address,address)": {
        "details": "See {IERC721-isApprovedForAll}."
      },
      "mint(uint8,bool)": {
        "params": {
          "amount": "Number of tokens to mint",
          "stake": "Number of tokens to mint"
        }
      },
      "name()": {
        "details": "See {IERC721Metadata-name}."
      },
      "owner()": {
        "details": "Returns the address of the current owner."
      },
      "ownerOf(uint256)": {
        "details": "See {IERC721-ownerOf}."
      },
      "paused()": {
        "details": "Returns true if the contract is paused, and false otherwise."
      },
      "removeController(address[])": {
        "params": {
          "_controllers": "- The addresses to disable"
        }
      },
      "renounceOwnership()": {
        "details": "Leaves the contract without owner. It will not be possible to call `onlyOwner` functions anymore. Can only be called by the current owner. NOTE: Renouncing ownership will leave the contract without an owner, thereby removing any functionality that is only available to the owner."
      },
      "safeTransferFrom(address,address,uint256)": {
        "details": "See {IERC721-safeTransferFrom}."
      },
      "safeTransferFrom(address,address,uint256,bytes)": {
        "details": "See {IERC721-safeTransferFrom}."
      },
      "setApprovalForAll(address,bool)": {
        "details": "See {IERC721-setApprovalForAll}."
      },
      "setKitchen(address)": {
        "params": {
          "_kitchen": "- The address of the Kitchen"
        }
      },
      "supportsInterface(bytes4)": {
        "details": "See {IERC165-supportsInterface}."
      },
      "symbol()": {
        "details": "See {IERC721Metadata-symbol}."
      },
      "tokenURI(uint256)": {
        "params": {
          "tokenId": "- The ID of the Character"
        },
        "returns": {
          "_0": "base64 encoded JSON string"
        }
      },
      "transferFrom(address,address,uint256)": {
        "details": "See {IERC721-transferFrom}."
      },
      "transferOwnership(address)": {
        "details": "Transfers ownership of the contract to a new account (`newOwner`). Can only be called by the current owner."
      },
      "updateBoost(uint256,int8)": {
        "params": {
          "boost": "- The value to set",
          "tokenId": "- The ID of the Character"
        }
      },
      "updateCharacter(uint256,int8,int8,uint256)": {
        "params": {
          "efficiencyIncrement": "- The value to add/subtract to the current value",
          "randomVal": "- A ChainLink VRF random number",
          "tokenId": "- The ID of the Character",
          "toleranceIncrement": "- The value to add/subtract to the current value"
        }
      }
    },
    "version": 1
  },
  "userdoc": {
    "kind": "user",
    "methods": {
      "addController(address[])": {
        "notice": "Enables multiple addresses to execute"
      },
      "configure(uint256,uint256,address)": {
        "notice": "Allows DAO to update game parameters"
      },
      "controller(address)": {
        "notice": "Gets controller status by address"
      },
      "fulfillMint((bytes32,address,uint8,bool,int8),(bool,uint8,uint8,uint8,uint8,uint8,uint8,uint8,uint8,uint8,int8)[])": {
        "notice": "Callback for mint(), called by Mint.fulfillRandomness()"
      },
      "getGen0Tokens()": {
        "notice": "Custom getter required for Traits contract"
      },
      "getTokenTraits(uint256)": {
        "notice": "Returns the Character's struct"
      },
      "mint(uint8,bool)": {
        "notice": "ChainLink VRF request: Mints a new ERC721 token: 90% chefs, 10% rats The first 20% are purchased with native token, the remaining cost $FFOOD"
      },
      "removeController(address[])": {
        "notice": "Prevents multiple addresses from executing"
      },
      "setKitchen(address)": {
        "notice": "Sets the kitchen address to optionally stake newly minted characters in"
      },
      "tokenURI(uint256)": {
        "notice": "Returns the base64 encoded ERC721 metadata"
      },
      "updateBoost(uint256,int8)": {
        "notice": "Allows the venues to update the character's boost value when claiming"
      },
      "updateCharacter(uint256,int8,int8,uint256)": {
        "notice": "Allows the venues to update the character's efficiency & tolerance values when claiming"
      },
      "withdrawPayments()": {
        "notice": "Allows DAO to withdraw funds"
      }
    },
    "version": 1
  }
}