{
  "contractName": "Character",
  "abi": [
    {
      "anonymous": false,
      "inputs": [
        {
          "indexed": true,
          "internalType": "address",
          "name": "owner",
          "type": "address"
        },
        {
          "indexed": true,
          "internalType": "address",
          "name": "approved",
          "type": "address"
        },
        {
          "indexed": true,
          "internalType": "uint256",
          "name": "tokenId",
          "type": "uint256"
        }
      ],
      "name": "Approval",
      "type": "event"
    },
    {
      "anonymous": false,
      "inputs": [
        {
          "indexed": true,
          "internalType": "address",
          "name": "owner",
          "type": "address"
        },
        {
          "indexed": true,
          "internalType": "address",
          "name": "operator",
          "type": "address"
        },
        {
          "indexed": false,
          "internalType": "bool",
          "name": "approved",
          "type": "bool"
        }
      ],
      "name": "ApprovalForAll",
      "type": "event"
    },
    {
      "anonymous": false,
      "inputs": [
        {
          "indexed": true,
          "internalType": "address",
          "name": "previousOwner",
          "type": "address"
        },
        {
          "indexed": true,
          "internalType": "address",
          "name": "newOwner",
          "type": "address"
        }
      ],
      "name": "OwnershipTransferred",
      "type": "event"
    },
    {
      "anonymous": false,
      "inputs": [
        {
          "indexed": false,
          "internalType": "address",
          "name": "account",
          "type": "address"
        }
      ],
      "name": "Paused",
      "type": "event"
    },
    {
      "anonymous": false,
      "inputs": [
        {
          "indexed": true,
          "internalType": "address",
          "name": "from",
          "type": "address"
        },
        {
          "indexed": true,
          "internalType": "address",
          "name": "to",
          "type": "address"
        },
        {
          "indexed": true,
          "internalType": "uint256",
          "name": "tokenId",
          "type": "uint256"
        }
      ],
      "name": "Transfer",
      "type": "event"
    },
    {
      "anonymous": false,
      "inputs": [
        {
          "indexed": false,
          "internalType": "address",
          "name": "account",
          "type": "address"
        }
      ],
      "name": "Unpaused",
      "type": "event"
    },
    {
      "inputs": [
        {
          "internalType": "address[]",
          "name": "_controllers",
          "type": "address[]"
        }
      ],
      "name": "addController",
      "outputs": [],
      "stateMutability": "nonpayable",
      "type": "function"
    },
    {
      "inputs": [
        {
          "internalType": "address",
          "name": "to",
          "type": "address"
        },
        {
          "internalType": "uint256",
          "name": "tokenId",
          "type": "uint256"
        }
      ],
      "name": "approve",
      "outputs": [],
      "stateMutability": "nonpayable",
      "type": "function"
    },
    {
      "inputs": [
        {
          "internalType": "address",
          "name": "owner",
          "type": "address"
        }
      ],
      "name": "balanceOf",
      "outputs": [
        {
          "internalType": "uint256",
          "name": "",
          "type": "uint256"
        }
      ],
      "stateMutability": "view",
      "type": "function",
      "constant": true
    },
    {
      "inputs": [
        {
          "internalType": "address",
          "name": "_controller",
          "type": "address"
        }
      ],
      "name": "controller",
      "outputs": [
        {
          "internalType": "bool",
          "name": "",
          "type": "bool"
        }
      ],
      "stateMutability": "view",
      "type": "function",
      "constant": true
    },
    {
      "inputs": [],
      "name": "dao",
      "outputs": [
        {
          "internalType": "address payable",
          "name": "",
          "type": "address"
        }
      ],
      "stateMutability": "view",
      "type": "function",
      "constant": true
    },
    {
      "inputs": [
        {
          "internalType": "uint256",
          "name": "tokenId",
          "type": "uint256"
        }
      ],
      "name": "getApproved",
      "outputs": [
        {
          "internalType": "address",
          "name": "",
          "type": "address"
        }
      ],
      "stateMutability": "view",
      "type": "function",
      "constant": true
    },
    {
      "inputs": [
        {
          "internalType": "address",
          "name": "owner",
          "type": "address"
        },
        {
          "internalType": "address",
          "name": "operator",
          "type": "address"
        }
      ],
      "name": "isApprovedForAll",
      "outputs": [
        {
          "internalType": "bool",
          "name": "",
          "type": "bool"
        }
      ],
      "stateMutability": "view",
      "type": "function",
      "constant": true
    },
    {
      "inputs": [],
      "name": "maxTokens",
      "outputs": [
        {
          "internalType": "uint256",
          "name": "",
          "type": "uint256"
        }
      ],
      "stateMutability": "view",
      "type": "function",
      "constant": true
    },
    {
      "inputs": [],
      "name": "minted",
      "outputs": [
        {
          "internalType": "uint16",
          "name": "",
          "type": "uint16"
        }
      ],
      "stateMutability": "view",
      "type": "function",
      "constant": true
    },
    {
      "inputs": [],
      "name": "name",
      "outputs": [
        {
          "internalType": "string",
          "name": "",
          "type": "string"
        }
      ],
      "stateMutability": "view",
      "type": "function",
      "constant": true
    },
    {
      "inputs": [],
      "name": "numChefs",
      "outputs": [
        {
          "internalType": "uint16",
          "name": "",
          "type": "uint16"
        }
      ],
      "stateMutability": "view",
      "type": "function",
      "constant": true
    },
    {
      "inputs": [],
      "name": "numRats",
      "outputs": [
        {
          "internalType": "uint16",
          "name": "",
          "type": "uint16"
        }
      ],
      "stateMutability": "view",
      "type": "function",
      "constant": true
    },
    {
      "inputs": [],
      "name": "owner",
      "outputs": [
        {
          "internalType": "address",
          "name": "",
          "type": "address"
        }
      ],
      "stateMutability": "view",
      "type": "function",
      "constant": true
    },
    {
      "inputs": [
        {
          "internalType": "uint256",
          "name": "tokenId",
          "type": "uint256"
        }
      ],
      "name": "ownerOf",
      "outputs": [
        {
          "internalType": "address",
          "name": "",
          "type": "address"
        }
      ],
      "stateMutability": "view",
      "type": "function",
      "constant": true
    },
    {
      "inputs": [],
      "name": "paid",
      "outputs": [
        {
          "internalType": "uint16",
          "name": "",
          "type": "uint16"
        }
      ],
      "stateMutability": "view",
      "type": "function",
      "constant": true
    },
    {
      "inputs": [],
      "name": "pause",
      "outputs": [],
      "stateMutability": "nonpayable",
      "type": "function"
    },
    {
      "inputs": [],
      "name": "paused",
      "outputs": [
        {
          "internalType": "bool",
          "name": "",
          "type": "bool"
        }
      ],
      "stateMutability": "view",
      "type": "function",
      "constant": true
    },
    {
      "inputs": [],
      "name": "paywall",
      "outputs": [
        {
          "internalType": "contract IPaywall",
          "name": "",
          "type": "address"
        }
      ],
      "stateMutability": "view",
      "type": "function",
      "constant": true
    },
    {
      "inputs": [],
      "name": "properties",
      "outputs": [
        {
          "internalType": "contract IProperties",
          "name": "",
          "type": "address"
        }
      ],
      "stateMutability": "view",
      "type": "function",
      "constant": true
    },
    {
      "inputs": [
        {
          "internalType": "address[]",
          "name": "_controllers",
          "type": "address[]"
        }
      ],
      "name": "removeController",
      "outputs": [],
      "stateMutability": "nonpayable",
      "type": "function"
    },
    {
      "inputs": [],
      "name": "renounceOwnership",
      "outputs": [],
      "stateMutability": "nonpayable",
      "type": "function"
    },
    {
      "inputs": [
        {
          "internalType": "address",
          "name": "from",
          "type": "address"
        },
        {
          "internalType": "address",
          "name": "to",
          "type": "address"
        },
        {
          "internalType": "uint256",
          "name": "tokenId",
          "type": "uint256"
        }
      ],
      "name": "safeTransferFrom",
      "outputs": [],
      "stateMutability": "nonpayable",
      "type": "function"
    },
    {
      "inputs": [
        {
          "internalType": "address",
          "name": "from",
          "type": "address"
        },
        {
          "internalType": "address",
          "name": "to",
          "type": "address"
        },
        {
          "internalType": "uint256",
          "name": "tokenId",
          "type": "uint256"
        },
        {
          "internalType": "bytes",
          "name": "_data",
          "type": "bytes"
        }
      ],
      "name": "safeTransferFrom",
      "outputs": [],
      "stateMutability": "nonpayable",
      "type": "function"
    },
    {
      "inputs": [
        {
          "internalType": "address",
          "name": "operator",
          "type": "address"
        },
        {
          "internalType": "bool",
          "name": "approved",
          "type": "bool"
        }
      ],
      "name": "setApprovalForAll",
      "outputs": [],
      "stateMutability": "nonpayable",
      "type": "function"
    },
    {
      "inputs": [
        {
          "internalType": "bytes4",
          "name": "interfaceId",
          "type": "bytes4"
        }
      ],
      "name": "supportsInterface",
      "outputs": [
        {
          "internalType": "bool",
          "name": "",
          "type": "bool"
        }
      ],
      "stateMutability": "view",
      "type": "function",
      "constant": true
    },
    {
      "inputs": [],
      "name": "symbol",
      "outputs": [
        {
          "internalType": "string",
          "name": "",
          "type": "string"
        }
      ],
      "stateMutability": "view",
      "type": "function",
      "constant": true
    },
    {
      "inputs": [],
      "name": "theMint",
      "outputs": [
        {
          "internalType": "contract IMint",
          "name": "",
          "type": "address"
        }
      ],
      "stateMutability": "view",
      "type": "function",
      "constant": true
    },
    {
      "inputs": [
        {
          "internalType": "uint256",
          "name": "",
          "type": "uint256"
        }
      ],
      "name": "tokenTraits",
      "outputs": [
        {
          "internalType": "bool",
          "name": "isChef",
          "type": "bool"
        },
        {
          "internalType": "uint8",
          "name": "hat",
          "type": "uint8"
        },
        {
          "internalType": "uint8",
          "name": "eyes",
          "type": "uint8"
        },
        {
          "internalType": "uint8",
          "name": "piercing",
          "type": "uint8"
        },
        {
          "internalType": "uint8",
          "name": "mouth",
          "type": "uint8"
        },
        {
          "internalType": "uint8",
          "name": "neck",
          "type": "uint8"
        },
        {
          "internalType": "uint8",
          "name": "hand",
          "type": "uint8"
        },
        {
          "internalType": "uint8",
          "name": "tail",
          "type": "uint8"
        },
        {
          "internalType": "uint8",
          "name": "efficiency",
          "type": "uint8"
        },
        {
          "internalType": "uint8",
          "name": "tolerance",
          "type": "uint8"
        },
        {
          "internalType": "int8",
          "name": "boost",
          "type": "int8"
        }
      ],
      "stateMutability": "view",
      "type": "function",
      "constant": true
    },
    {
      "inputs": [],
      "name": "traits",
      "outputs": [
        {
          "internalType": "contract ITraits",
          "name": "",
          "type": "address"
        }
      ],
      "stateMutability": "view",
      "type": "function",
      "constant": true
    },
    {
      "inputs": [
        {
          "internalType": "address",
          "name": "newOwner",
          "type": "address"
        }
      ],
      "name": "transferOwnership",
      "outputs": [],
      "stateMutability": "nonpayable",
      "type": "function"
    },
    {
      "inputs": [],
      "name": "unpause",
      "outputs": [],
      "stateMutability": "nonpayable",
      "type": "function"
    },
    {
      "inputs": [
        {
          "internalType": "address",
          "name": "_paywall",
          "type": "address"
        },
        {
          "internalType": "address",
          "name": "_mint",
          "type": "address"
        },
        {
          "internalType": "address",
          "name": "_traits",
          "type": "address"
        },
        {
          "internalType": "address",
          "name": "_properties",
          "type": "address"
        },
        {
          "internalType": "address",
          "name": "_dao",
          "type": "address"
        }
      ],
      "name": "initialize",
      "outputs": [],
      "stateMutability": "nonpayable",
      "type": "function"
    },
    {
      "inputs": [
        {
          "internalType": "uint256",
          "name": "_maxTokens",
          "type": "uint256"
        }
      ],
      "name": "configure",
      "outputs": [],
      "stateMutability": "nonpayable",
      "type": "function"
    },
    {
      "inputs": [
        {
          "internalType": "uint8",
          "name": "amount",
          "type": "uint8"
        },
        {
          "internalType": "bool",
          "name": "stake",
          "type": "bool"
        }
      ],
      "name": "mint",
      "outputs": [],
      "stateMutability": "payable",
      "type": "function",
      "payable": true
    },
    {
      "inputs": [
        {
          "internalType": "bytes32",
          "name": "requestId",
          "type": "bytes32"
        },
        {
          "components": [
            {
              "internalType": "bool",
              "name": "isChef",
              "type": "bool"
            },
            {
              "internalType": "uint8",
              "name": "hat",
              "type": "uint8"
            },
            {
              "internalType": "uint8",
              "name": "eyes",
              "type": "uint8"
            },
            {
              "internalType": "uint8",
              "name": "piercing",
              "type": "uint8"
            },
            {
              "internalType": "uint8",
              "name": "mouth",
              "type": "uint8"
            },
            {
              "internalType": "uint8",
              "name": "neck",
              "type": "uint8"
            },
            {
              "internalType": "uint8",
              "name": "hand",
              "type": "uint8"
            },
            {
              "internalType": "uint8",
              "name": "tail",
              "type": "uint8"
            },
            {
              "internalType": "uint8",
              "name": "efficiency",
              "type": "uint8"
            },
            {
              "internalType": "uint8",
              "name": "tolerance",
              "type": "uint8"
            },
            {
              "internalType": "int8",
              "name": "boost",
              "type": "int8"
            }
          ],
          "internalType": "struct ICharacter.CharacterStruct[]",
          "name": "tokens",
          "type": "tuple[]"
        }
      ],
      "name": "fulfillMint",
      "outputs": [],
      "stateMutability": "nonpayable",
      "type": "function"
    },
    {
      "inputs": [
        {
          "internalType": "uint256",
          "name": "tokenId",
          "type": "uint256"
        },
        {
          "internalType": "int8",
          "name": "efficiencyIncrement",
          "type": "int8"
        },
        {
          "internalType": "int8",
          "name": "toleranceIncrement",
          "type": "int8"
        },
        {
          "internalType": "uint256",
          "name": "randomVal",
          "type": "uint256"
        }
      ],
      "name": "updateCharacter",
      "outputs": [
        {
          "internalType": "uint8",
          "name": "efficiencyValue",
          "type": "uint8"
        },
        {
          "internalType": "uint8",
          "name": "toleranceValue",
          "type": "uint8"
        },
        {
          "internalType": "string",
          "name": "eventName",
          "type": "string"
        }
      ],
      "stateMutability": "nonpayable",
      "type": "function"
    },
    {
      "inputs": [
        {
          "internalType": "uint256",
          "name": "tokenId",
          "type": "uint256"
        }
      ],
      "name": "tokenURI",
      "outputs": [
        {
          "internalType": "string",
          "name": "",
          "type": "string"
        }
      ],
      "stateMutability": "view",
      "type": "function",
      "constant": true
    },
    {
      "inputs": [
        {
          "internalType": "uint256",
          "name": "tokenId",
          "type": "uint256"
        }
      ],
      "name": "getTokenTraits",
      "outputs": [
        {
          "components": [
            {
              "internalType": "bool",
              "name": "isChef",
              "type": "bool"
            },
            {
              "internalType": "uint8",
              "name": "hat",
              "type": "uint8"
            },
            {
              "internalType": "uint8",
              "name": "eyes",
              "type": "uint8"
            },
            {
              "internalType": "uint8",
              "name": "piercing",
              "type": "uint8"
            },
            {
              "internalType": "uint8",
              "name": "mouth",
              "type": "uint8"
            },
            {
              "internalType": "uint8",
              "name": "neck",
              "type": "uint8"
            },
            {
              "internalType": "uint8",
              "name": "hand",
              "type": "uint8"
            },
            {
              "internalType": "uint8",
              "name": "tail",
              "type": "uint8"
            },
            {
              "internalType": "uint8",
              "name": "efficiency",
              "type": "uint8"
            },
            {
              "internalType": "uint8",
              "name": "tolerance",
              "type": "uint8"
            },
            {
              "internalType": "int8",
              "name": "boost",
              "type": "int8"
            }
          ],
          "internalType": "struct ICharacter.CharacterStruct",
          "name": "",
          "type": "tuple"
        }
      ],
      "stateMutability": "view",
      "type": "function",
      "constant": true
    },
    {
      "inputs": [],
      "name": "getGen0Tokens",
      "outputs": [
        {
          "internalType": "uint256",
          "name": "",
          "type": "uint256"
        }
      ],
      "stateMutability": "view",
      "type": "function",
      "constant": true
    },
    {
      "inputs": [
        {
          "internalType": "address",
          "name": "from",
          "type": "address"
        },
        {
          "internalType": "address",
          "name": "to",
          "type": "address"
        },
        {
          "internalType": "uint256",
          "name": "tokenId",
          "type": "uint256"
        }
      ],
      "name": "transferFrom",
      "outputs": [],
      "stateMutability": "nonpayable",
      "type": "function"
    },
    {
      "inputs": [
        {
          "internalType": "address[]",
          "name": "_venues",
          "type": "address[]"
        }
      ],
      "name": "setVenues",
      "outputs": [],
      "stateMutability": "nonpayable",
      "type": "function"
    }
  ],
  "bytecode": "0x608060405234801561001057600080fd5b50615fee80620000216000396000f3fe6080604052600436106102465760003560e01c8063715018a611610139578063a83a7202116100b6578063e05c57bf1161007a578063e05c57bf1461085d578063e1fc334f146108a4578063e8315742146108cf578063e985e9c5146108fa578063f2fde38b14610937578063fcd802b11461096057610246565b8063a83a720214610766578063b88d4fde1461078f578063c13aa7b5146107b8578063c87b56dd146107f5578063d39f8a4d1461083257610246565b80639284521c116100fd5780639284521c1461068157806392c405b6146106ac57806394e56847146106d557806395d89b4114610712578063a22cb4651461073d57610246565b8063715018a6146105d45780637856f945146105eb5780638456cb591461061657806387fcac2f1461062d5780638da5cb5b1461065657610246565b80634162169f116101c75780635c975abb1161018b5780635c975abb146104d4578063612bfba4146104ff5780636352211e1461051b57806363dbfc771461055857806370a082311461059757610246565b80634162169f1461040157806342842e0e1461042c57806344936bce146104555780634f02c4201461047e578063506b1761146104a957610246565b80631459457a1161020e5780631459457a146103445780631eb25e0a1461036d57806323b872dd14610396578063295b4e17146103bf5780633f4ba83a146103ea57610246565b806301ffc9a71461024b57806306fdde0314610288578063081812fc146102b35780630917e40d146102f0578063095ea7b31461031b575b600080fd5b34801561025757600080fd5b50610272600480360381019061026d9190613cb5565b61098b565b60405161027f9190613cfd565b60405180910390f35b34801561029457600080fd5b5061029d610a6d565b6040516102aa9190613db1565b60405180910390f35b3480156102bf57600080fd5b506102da60048036038101906102d59190613e09565b610aff565b6040516102e79190613e77565b60405180910390f35b3480156102fc57600080fd5b50610305610b84565b6040516103129190613eaf565b60405180910390f35b34801561032757600080fd5b50610342600480360381019061033d9190613ef6565b610b98565b005b34801561035057600080fd5b5061036b60048036038101906103669190613f36565b610cb0565b005b34801561037957600080fd5b50610394600480360381019061038f9190613e09565b610f67565b005b3480156103a257600080fd5b506103bd60048036038101906103b89190613fb1565b611000565b005b3480156103cb57600080fd5b506103d461110c565b6040516103e19190613eaf565b60405180910390f35b3480156103f657600080fd5b506103ff611120565b005b34801561040d57600080fd5b506104166111a6565b6040516104239190614025565b60405180910390f35b34801561043857600080fd5b50610453600480360381019061044e9190613fb1565b6111cd565b005b34801561046157600080fd5b5061047c6004803603810190610477919061436f565b6111ed565b005b34801561048a57600080fd5b50610493611869565b6040516104a09190613eaf565b60405180910390f35b3480156104b557600080fd5b506104be61187d565b6040516104cb919061442a565b60405180910390f35b3480156104e057600080fd5b506104e96118a4565b6040516104f69190613cfd565b60405180910390f35b61051960048036038101906105149190614445565b6118bb565b005b34801561052757600080fd5b50610542600480360381019061053d9190613e09565b611ba2565b60405161054f9190613e77565b60405180910390f35b34801561056457600080fd5b5061057f600480360381019061057a9190614485565b611c54565b60405161058e939291906144fb565b60405180910390f35b3480156105a357600080fd5b506105be60048036038101906105b99190614539565b611e82565b6040516105cb9190614575565b60405180910390f35b3480156105e057600080fd5b506105e9611f3a565b005b3480156105f757600080fd5b50610600611fc2565b60405161060d9190614575565b60405180910390f35b34801561062257600080fd5b5061062b611fcc565b005b34801561063957600080fd5b50610654600480360381019061064f9190614653565b612052565b005b34801561066257600080fd5b5061066b61217e565b6040516106789190613e77565b60405180910390f35b34801561068d57600080fd5b506106966121a8565b6040516106a391906146bd565b60405180910390f35b3480156106b857600080fd5b506106d360048036038101906106ce9190614653565b6121cf565b005b3480156106e157600080fd5b506106fc60048036038101906106f79190613e09565b6122e0565b60405161070991906147e6565b60405180910390f35b34801561071e57600080fd5b50610727612493565b6040516107349190613db1565b60405180910390f35b34801561074957600080fd5b50610764600480360381019061075f9190614802565b612525565b005b34801561077257600080fd5b5061078d60048036038101906107889190614653565b61253b565b005b34801561079b57600080fd5b506107b660048036038101906107b191906148f7565b61264c565b005b3480156107c457600080fd5b506107df60048036038101906107da9190614539565b6126ae565b6040516107ec9190613cfd565b60405180910390f35b34801561080157600080fd5b5061081c60048036038101906108179190613e09565b612780565b6040516108299190613db1565b60405180910390f35b34801561083e57600080fd5b50610847612873565b6040516108549190613eaf565b60405180910390f35b34801561086957600080fd5b50610884600480360381019061087f9190613e09565b612887565b60405161089b9b9a99989796959493929190614989565b60405180910390f35b3480156108b057600080fd5b506108b9612970565b6040516108c69190614a55565b60405180910390f35b3480156108db57600080fd5b506108e4612997565b6040516108f19190614575565b60405180910390f35b34801561090657600080fd5b50610921600480360381019061091c9190614a70565b61299d565b60405161092e9190613cfd565b60405180910390f35b34801561094357600080fd5b5061095e60048036038101906109599190614539565b612a31565b005b34801561096c57600080fd5b50610975612b29565b6040516109829190614ad1565b60405180910390f35b60007f80ac58cd000000000000000000000000000000000000000000000000000000007bffffffffffffffffffffffffffffffffffffffffffffffffffffffff1916827bffffffffffffffffffffffffffffffffffffffffffffffffffffffff19161480610a5657507f5b5e139f000000000000000000000000000000000000000000000000000000007bffffffffffffffffffffffffffffffffffffffffffffffffffffffff1916827bffffffffffffffffffffffffffffffffffffffffffffffffffffffff1916145b80610a665750610a6582612b50565b5b9050919050565b606060c98054610a7c90614b1b565b80601f0160208091040260200160405190810160405280929190818152602001828054610aa890614b1b565b8015610af55780601f10610aca57610100808354040283529160200191610af5565b820191906000526020600020905b815481529060010190602001808311610ad857829003601f168201915b5050505050905090565b6000610b0a82612bba565b610b49576040517f08c379a0000000000000000000000000000000000000000000000000000000008152600401610b4090614bbf565b60405180910390fd5b60cd600083815260200190815260200160002060009054906101000a900473ffffffffffffffffffffffffffffffffffffffff169050919050565b60fc60069054906101000a900461ffff1681565b6000610ba382611ba2565b90508073ffffffffffffffffffffffffffffffffffffffff168373ffffffffffffffffffffffffffffffffffffffff161415610c14576040517f08c379a0000000000000000000000000000000000000000000000000000000008152600401610c0b90614c51565b60405180910390fd5b8073ffffffffffffffffffffffffffffffffffffffff16610c33612c26565b73ffffffffffffffffffffffffffffffffffffffff161480610c625750610c6181610c5c612c26565b61299d565b5b610ca1576040517f08c379a0000000000000000000000000000000000000000000000000000000008152600401610c9890614ce3565b60405180910390fd5b610cab8383612c2e565b505050565b600060019054906101000a900460ff16610cd85760008054906101000a900460ff1615610ce1565b610ce0612ce7565b5b610d20576040517f08c379a0000000000000000000000000000000000000000000000000000000008152600401610d1790614d75565b60405180910390fd5b60008060019054906101000a900460ff161590508015610d70576001600060016101000a81548160ff02191690831515021790555060016000806101000a81548160ff0219169083151502179055505b610d78612cf8565b610d80612d59565b610df46040518060400160405280601381526020017f526174416c6572742043686172616374657273000000000000000000000000008152506040518060400160405280600781526020017f5241544341535400000000000000000000000000000000000000000000000000815250612dba565b8561010460006101000a81548173ffffffffffffffffffffffffffffffffffffffff021916908373ffffffffffffffffffffffffffffffffffffffff1602179055508461010060006101000a81548173ffffffffffffffffffffffffffffffffffffffff021916908373ffffffffffffffffffffffffffffffffffffffff1602179055508361010160006101000a81548173ffffffffffffffffffffffffffffffffffffffff021916908373ffffffffffffffffffffffffffffffffffffffff1602179055508261010260006101000a81548173ffffffffffffffffffffffffffffffffffffffff021916908373ffffffffffffffffffffffffffffffffffffffff1602179055508161010560006101000a81548173ffffffffffffffffffffffffffffffffffffffff021916908373ffffffffffffffffffffffffffffffffffffffff1602179055508015610f5f5760008060016101000a81548160ff0219169083151502179055505b505050505050565b610f6f612c26565b73ffffffffffffffffffffffffffffffffffffffff16610f8d61217e565b73ffffffffffffffffffffffffffffffffffffffff1614610fe3576040517f08c379a0000000000000000000000000000000000000000000000000000000008152600401610fda90614de1565b60405180910390fd5b8060fd81905550600581610ff79190614e5f565b60fe8190555050565b6000805b610103805490508110156110a457818061108f5750610103818154811061102e5761102d614e90565b5b9060005260206000200160009054906101000a900473ffffffffffffffffffffffffffffffffffffffff1673ffffffffffffffffffffffffffffffffffffffff16611077612c26565b73ffffffffffffffffffffffffffffffffffffffff16145b9150808061109c90614ebf565b915050611004565b50806110fb576110bb6110b5612c26565b83612e27565b6110fa576040517f08c379a00000000000000000000000000000000000000000000000000000000081526004016110f190614f7a565b60405180910390fd5b5b611106848484612f05565b50505050565b60fc60009054906101000a900461ffff1681565b611128612c26565b73ffffffffffffffffffffffffffffffffffffffff1661114661217e565b73ffffffffffffffffffffffffffffffffffffffff161461119c576040517f08c379a000000000000000000000000000000000000000000000000000000000815260040161119390614de1565b60405180910390fd5b6111a4613161565b565b61010560009054906101000a900473ffffffffffffffffffffffffffffffffffffffff1681565b6111e88383836040518060200160405280600081525061264c565b505050565b6111f56118a4565b15611235576040517f08c379a000000000000000000000000000000000000000000000000000000000815260040161122c90614fe6565b60405180910390fd5b6000801b82141561127b576040517f08c379a000000000000000000000000000000000000000000000000000000000815260040161127290615052565b60405180910390fd5b600061010060009054906101000a900473ffffffffffffffffffffffffffffffffffffffff1673ffffffffffffffffffffffffffffffffffffffff16637f10b5ab846040518263ffffffff1660e01b81526004016112d99190615081565b60a060405180830381865afa1580156112f6573d6000803e3d6000fd5b505050506040513d601f19601f8201168201806040525081019061131a9190615191565b905080600001518314611362576040517f08c379a00000000000000000000000000000000000000000000000000000000081526004016113599061520a565b60405180910390fd5b61010060009054906101000a900473ffffffffffffffffffffffffffffffffffffffff1673ffffffffffffffffffffffffffffffffffffffff163373ffffffffffffffffffffffffffffffffffffffff16146113f3576040517f08c379a00000000000000000000000000000000000000000000000000000000081526004016113ea90615276565b60405180910390fd5b6000816040015160ff1667ffffffffffffffff8111156114165761141561407b565b5b6040519080825280602002602001820160405280156114445781602001602082028036833780820191505090505b50905060005b826040015160ff168110156117a65760fc600281819054906101000a900461ffff168092919061147990615296565b91906101000a81548161ffff021916908361ffff1602179055505061150683606001516114aa5783602001516114ec565b6101036000815481106114c0576114bf614e90565b5b9060005260206000200160009054906101000a900473ffffffffffffffffffffffffffffffffffffffff165b60fc60029054906101000a900461ffff1661ffff16613203565b60fc60029054906101000a900461ffff1682828151811061152a57611529614e90565b5b602002602001019061ffff16908161ffff168152505083818151811061155357611552614e90565b5b602002602001015160ff600060fc60029054906101000a900461ffff1661ffff16815260200190815260200160002060008201518160000160006101000a81548160ff02191690831515021790555060208201518160000160016101000a81548160ff021916908360ff16021790555060408201518160000160026101000a81548160ff021916908360ff16021790555060608201518160000160036101000a81548160ff021916908360ff16021790555060808201518160000160046101000a81548160ff021916908360ff16021790555060a08201518160000160056101000a81548160ff021916908360ff16021790555060c08201518160000160066101000a81548160ff021916908360ff16021790555060e08201518160000160076101000a81548160ff021916908360ff1602179055506101008201518160000160086101000a81548160ff021916908360ff1602179055506101208201518160000160096101000a81548160ff021916908360ff16021790555061014082015181600001600a6101000a81548160ff021916908360000b60ff16021790555090505083818151811061170857611707614e90565b5b6020026020010151600001516117575760fc600681819054906101000a900461ffff168092919061173890615296565b91906101000a81548161ffff021916908361ffff160217905550611792565b60fc600481819054906101000a900461ffff168092919061177790615296565b91906101000a81548161ffff021916908361ffff1602179055505b50808061179e90614ebf565b91505061144a565b50816060015115611863576101036000815481106117c7576117c6614e90565b5b9060005260206000200160009054906101000a900473ffffffffffffffffffffffffffffffffffffffff1673ffffffffffffffffffffffffffffffffffffffff1663dbdc1f6b8360200151836040518363ffffffff1660e01b815260040161183092919061537f565b600060405180830381600087803b15801561184a57600080fd5b505af115801561185e573d6000803e3d6000fd5b505050505b50505050565b60fc60029054906101000a900461ffff1681565b61010460009054906101000a900473ffffffffffffffffffffffffffffffffffffffff1681565b6000606560009054906101000a900460ff16905090565b6118c36118a4565b15611903576040517f08c379a00000000000000000000000000000000000000000000000000000000081526004016118fa90614fe6565b60405180910390fd5b61190b612c26565b73ffffffffffffffffffffffffffffffffffffffff163273ffffffffffffffffffffffffffffffffffffffff1614611978576040517f08c379a000000000000000000000000000000000000000000000000000000000815260040161196f906153fb565b60405180910390fd5b600061010460009054906101000a900473ffffffffffffffffffffffffffffffffffffffff1673ffffffffffffffffffffffffffffffffffffffff1663abc26c606119c1612c26565b853460fc60009054906101000a900461ffff1660fd5460fe546040518763ffffffff1660e01b81526004016119fb9695949392919061541b565b6020604051808303816000875af1158015611a1a573d6000803e3d6000fd5b505050506040513d601f19601f82011682018060405250810190611a3e919061547c565b90506000341115611ab45761010560009054906101000a900473ffffffffffffffffffffffffffffffffffffffff1673ffffffffffffffffffffffffffffffffffffffff166108fc349081150290604051600060405180830381858888f19350505050158015611ab2573d6000803e3d6000fd5b505b61010060009054906101000a900473ffffffffffffffffffffffffffffffffffffffff1673ffffffffffffffffffffffffffffffffffffffff1663e8ff04a1611afb612c26565b8585856040518563ffffffff1660e01b8152600401611b1d94939291906154a9565b6020604051808303816000875af1158015611b3c573d6000803e3d6000fd5b505050506040513d601f19601f82011682018060405250810190611b6091906154ee565b508260ff1660fc60008282829054906101000a900461ffff16611b83919061551b565b92506101000a81548161ffff021916908361ffff160217905550505050565b60008060cb600084815260200190815260200160002060009054906101000a900473ffffffffffffffffffffffffffffffffffffffff169050600073ffffffffffffffffffffffffffffffffffffffff168173ffffffffffffffffffffffffffffffffffffffff161415611c4b576040517f08c379a0000000000000000000000000000000000000000000000000000000008152600401611c42906155c5565b60405180910390fd5b80915050919050565b600080606060fb60003373ffffffffffffffffffffffffffffffffffffffff1673ffffffffffffffffffffffffffffffffffffffff16815260200190815260200160002060009054906101000a900460ff16611ce5576040517f08c379a0000000000000000000000000000000000000000000000000000000008152600401611cdc90615631565b60405180910390fd5b600060ff600089815260200190815260200160002060000160009054906101000a900460ff169050600060ff60008a815260200190815260200160002060000160089054906101000a900460ff169050600060ff60008b815260200190815260200160002060000160099054906101000a900460ff16905061010260009054906101000a900473ffffffffffffffffffffffffffffffffffffffff1673ffffffffffffffffffffffffffffffffffffffff16634718e3088484848d8d8d6040518763ffffffff1660e01b8152600401611dc396959493929190615651565b6000604051808303816000875af1158015611de2573d6000803e3d6000fd5b505050506040513d6000823e3d601f19601f82011682018060405250810190611e0b9190615753565b8096508197508298505050508560ff60008c815260200190815260200160002060000160086101000a81548160ff021916908360ff1602179055508460ff60008c815260200190815260200160002060000160096101000a81548160ff021916908360ff1602179055505050509450945094915050565b60008073ffffffffffffffffffffffffffffffffffffffff168273ffffffffffffffffffffffffffffffffffffffff161415611ef3576040517f08c379a0000000000000000000000000000000000000000000000000000000008152600401611eea90615834565b60405180910390fd5b60cc60008373ffffffffffffffffffffffffffffffffffffffff1673ffffffffffffffffffffffffffffffffffffffff168152602001908152602001600020549050919050565b611f42612c26565b73ffffffffffffffffffffffffffffffffffffffff16611f6061217e565b73ffffffffffffffffffffffffffffffffffffffff1614611fb6576040517f08c379a0000000000000000000000000000000000000000000000000000000008152600401611fad90614de1565b60405180910390fd5b611fc06000613221565b565b600060fe54905090565b611fd4612c26565b73ffffffffffffffffffffffffffffffffffffffff16611ff261217e565b73ffffffffffffffffffffffffffffffffffffffff1614612048576040517f08c379a000000000000000000000000000000000000000000000000000000000815260040161203f90614de1565b60405180910390fd5b6120506132e7565b565b61205a612c26565b73ffffffffffffffffffffffffffffffffffffffff1661207861217e565b73ffffffffffffffffffffffffffffffffffffffff16146120ce576040517f08c379a00000000000000000000000000000000000000000000000000000000081526004016120c590614de1565b60405180910390fd5b61010360006120dd9190613b0c565b60005b815181101561217a576101038282815181106120ff576120fe614e90565b5b60200260200101519080600181540180825580915050600190039060005260206000200160009091909190916101000a81548173ffffffffffffffffffffffffffffffffffffffff021916908373ffffffffffffffffffffffffffffffffffffffff160217905550808061217290614ebf565b9150506120e0565b5050565b6000603360009054906101000a900473ffffffffffffffffffffffffffffffffffffffff16905090565b61010060009054906101000a900473ffffffffffffffffffffffffffffffffffffffff1681565b6121d7612c26565b73ffffffffffffffffffffffffffffffffffffffff166121f561217e565b73ffffffffffffffffffffffffffffffffffffffff161461224b576040517f08c379a000000000000000000000000000000000000000000000000000000000815260040161224290614de1565b60405180910390fd5b60005b81518110156122dc57600060fb60008484815181106122705761226f614e90565b5b602002602001015173ffffffffffffffffffffffffffffffffffffffff1673ffffffffffffffffffffffffffffffffffffffff16815260200190815260200160002060006101000a81548160ff02191690831515021790555080806122d490614ebf565b91505061224e565b5050565b6122e8613b2d565b6122f182612bba565b612330576040517f08c379a0000000000000000000000000000000000000000000000000000000008152600401612327906158c6565b60405180910390fd5b60ff6000838152602001908152602001600020604051806101600160405290816000820160009054906101000a900460ff161515151581526020016000820160019054906101000a900460ff1660ff1660ff1681526020016000820160029054906101000a900460ff1660ff1660ff1681526020016000820160039054906101000a900460ff1660ff1660ff1681526020016000820160049054906101000a900460ff1660ff1660ff1681526020016000820160059054906101000a900460ff1660ff1660ff1681526020016000820160069054906101000a900460ff1660ff1660ff1681526020016000820160079054906101000a900460ff1660ff1660ff1681526020016000820160089054906101000a900460ff1660ff1660ff1681526020016000820160099054906101000a900460ff1660ff1660ff16815260200160008201600a9054906101000a900460000b60000b60000b815250509050919050565b606060ca80546124a290614b1b565b80601f01602080910402602001604051908101604052809291908181526020018280546124ce90614b1b565b801561251b5780601f106124f05761010080835404028352916020019161251b565b820191906000526020600020905b8154815290600101906020018083116124fe57829003601f168201915b5050505050905090565b612537612530612c26565b838361338a565b5050565b612543612c26565b73ffffffffffffffffffffffffffffffffffffffff1661256161217e565b73ffffffffffffffffffffffffffffffffffffffff16146125b7576040517f08c379a00000000000000000000000000000000000000000000000000000000081526004016125ae90614de1565b60405180910390fd5b60005b815181101561264857600160fb60008484815181106125dc576125db614e90565b5b602002602001015173ffffffffffffffffffffffffffffffffffffffff1673ffffffffffffffffffffffffffffffffffffffff16815260200190815260200160002060006101000a81548160ff021916908315150217905550808061264090614ebf565b9150506125ba565b5050565b61265d612657612c26565b83612e27565b61269c576040517f08c379a000000000000000000000000000000000000000000000000000000000815260040161269390614f7a565b60405180910390fd5b6126a8848484846134f7565b50505050565b60006126b8612c26565b73ffffffffffffffffffffffffffffffffffffffff166126d661217e565b73ffffffffffffffffffffffffffffffffffffffff161461272c576040517f08c379a000000000000000000000000000000000000000000000000000000000815260040161272390614de1565b60405180910390fd5b60fb60008373ffffffffffffffffffffffffffffffffffffffff1673ffffffffffffffffffffffffffffffffffffffff16815260200190815260200160002060009054906101000a900460ff169050919050565b606061278b82612bba565b6127ca576040517f08c379a00000000000000000000000000000000000000000000000000000000081526004016127c1906158c6565b60405180910390fd5b61010160009054906101000a900473ffffffffffffffffffffffffffffffffffffffff1673ffffffffffffffffffffffffffffffffffffffff1663c87b56dd836040518263ffffffff1660e01b81526004016128269190614575565b600060405180830381865afa158015612843573d6000803e3d6000fd5b505050506040513d6000823e3d601f19601f8201168201806040525081019061286c91906158e6565b9050919050565b60fc60049054906101000a900461ffff1681565b60ff6020528060005260406000206000915090508060000160009054906101000a900460ff16908060000160019054906101000a900460ff16908060000160029054906101000a900460ff16908060000160039054906101000a900460ff16908060000160049054906101000a900460ff16908060000160059054906101000a900460ff16908060000160069054906101000a900460ff16908060000160079054906101000a900460ff16908060000160089054906101000a900460ff16908060000160099054906101000a900460ff169080600001600a9054906101000a900460000b90508b565b61010160009054906101000a900473ffffffffffffffffffffffffffffffffffffffff1681565b60fd5481565b600060ce60008473ffffffffffffffffffffffffffffffffffffffff1673ffffffffffffffffffffffffffffffffffffffff16815260200190815260200160002060008373ffffffffffffffffffffffffffffffffffffffff1673ffffffffffffffffffffffffffffffffffffffff16815260200190815260200160002060009054906101000a900460ff16905092915050565b612a39612c26565b73ffffffffffffffffffffffffffffffffffffffff16612a5761217e565b73ffffffffffffffffffffffffffffffffffffffff1614612aad576040517f08c379a0000000000000000000000000000000000000000000000000000000008152600401612aa490614de1565b60405180910390fd5b600073ffffffffffffffffffffffffffffffffffffffff168173ffffffffffffffffffffffffffffffffffffffff161415612b1d576040517f08c379a0000000000000000000000000000000000000000000000000000000008152600401612b14906159a1565b60405180910390fd5b612b2681613221565b50565b61010260009054906101000a900473ffffffffffffffffffffffffffffffffffffffff1681565b60007f01ffc9a7000000000000000000000000000000000000000000000000000000007bffffffffffffffffffffffffffffffffffffffffffffffffffffffff1916827bffffffffffffffffffffffffffffffffffffffffffffffffffffffff1916149050919050565b60008073ffffffffffffffffffffffffffffffffffffffff1660cb600084815260200190815260200160002060009054906101000a900473ffffffffffffffffffffffffffffffffffffffff1673ffffffffffffffffffffffffffffffffffffffff1614159050919050565b600033905090565b8160cd600083815260200190815260200160002060006101000a81548173ffffffffffffffffffffffffffffffffffffffff021916908373ffffffffffffffffffffffffffffffffffffffff160217905550808273ffffffffffffffffffffffffffffffffffffffff16612ca183611ba2565b73ffffffffffffffffffffffffffffffffffffffff167f8c5be1e5ebec7d5bd14f71427d1e84f3dd0314c0f7b2291e5b200ac8c7c3b92560405160405180910390a45050565b6000612cf230613553565b15905090565b600060019054906101000a900460ff16612d47576040517f08c379a0000000000000000000000000000000000000000000000000000000008152600401612d3e90615a33565b60405180910390fd5b612d4f613566565b612d576135b7565b565b600060019054906101000a900460ff16612da8576040517f08c379a0000000000000000000000000000000000000000000000000000000008152600401612d9f90615a33565b60405180910390fd5b612db0613566565b612db8613618565b565b600060019054906101000a900460ff16612e09576040517f08c379a0000000000000000000000000000000000000000000000000000000008152600401612e0090615a33565b60405180910390fd5b612e11613566565b612e19613684565b612e2382826136d5565b5050565b6000612e3282612bba565b612e71576040517f08c379a0000000000000000000000000000000000000000000000000000000008152600401612e6890615ac5565b60405180910390fd5b6000612e7c83611ba2565b90508073ffffffffffffffffffffffffffffffffffffffff168473ffffffffffffffffffffffffffffffffffffffff161480612eeb57508373ffffffffffffffffffffffffffffffffffffffff16612ed384610aff565b73ffffffffffffffffffffffffffffffffffffffff16145b80612efc5750612efb818561299d565b5b91505092915050565b8273ffffffffffffffffffffffffffffffffffffffff16612f2582611ba2565b73ffffffffffffffffffffffffffffffffffffffff1614612f7b576040517f08c379a0000000000000000000000000000000000000000000000000000000008152600401612f7290615b57565b60405180910390fd5b600073ffffffffffffffffffffffffffffffffffffffff168273ffffffffffffffffffffffffffffffffffffffff161415612feb576040517f08c379a0000000000000000000000000000000000000000000000000000000008152600401612fe290615be9565b60405180910390fd5b612ff6838383613756565b613001600082612c2e565b600160cc60008573ffffffffffffffffffffffffffffffffffffffff1673ffffffffffffffffffffffffffffffffffffffff16815260200190815260200160002060008282546130519190615c09565b92505081905550600160cc60008473ffffffffffffffffffffffffffffffffffffffff1673ffffffffffffffffffffffffffffffffffffffff16815260200190815260200160002060008282546130a89190615c3d565b925050819055508160cb600083815260200190815260200160002060006101000a81548173ffffffffffffffffffffffffffffffffffffffff021916908373ffffffffffffffffffffffffffffffffffffffff160217905550808273ffffffffffffffffffffffffffffffffffffffff168473ffffffffffffffffffffffffffffffffffffffff167fddf252ad1be2c89b69c2b068fc378daa952ba7f163c4a11628f55a4df523b3ef60405160405180910390a4505050565b6131696118a4565b6131a8576040517f08c379a000000000000000000000000000000000000000000000000000000000815260040161319f90615cdf565b60405180910390fd5b6000606560006101000a81548160ff0219169083151502179055507f5db9ee0a495bf2e6ff9c91a7834c1ba4fdd244a5e8aa4e537bd38aeae4b073aa6131ec612c26565b6040516131f99190613e77565b60405180910390a1565b61321d82826040518060200160405280600081525061375b565b5050565b6000603360009054906101000a900473ffffffffffffffffffffffffffffffffffffffff16905081603360006101000a81548173ffffffffffffffffffffffffffffffffffffffff021916908373ffffffffffffffffffffffffffffffffffffffff1602179055508173ffffffffffffffffffffffffffffffffffffffff168173ffffffffffffffffffffffffffffffffffffffff167f8be0079c531659141344cd1fd0a4f28419497f9722a3daafe3b4186f6b6457e060405160405180910390a35050565b6132ef6118a4565b1561332f576040517f08c379a000000000000000000000000000000000000000000000000000000000815260040161332690614fe6565b60405180910390fd5b6001606560006101000a81548160ff0219169083151502179055507f62e78cea01bee320cd4e420270b5ea74000d11b0c9f74754ebdbfc544b05a258613373612c26565b6040516133809190613e77565b60405180910390a1565b8173ffffffffffffffffffffffffffffffffffffffff168373ffffffffffffffffffffffffffffffffffffffff1614156133f9576040517f08c379a00000000000000000000000000000000000000000000000000000000081526004016133f090615d4b565b60405180910390fd5b8060ce60008573ffffffffffffffffffffffffffffffffffffffff1673ffffffffffffffffffffffffffffffffffffffff16815260200190815260200160002060008473ffffffffffffffffffffffffffffffffffffffff1673ffffffffffffffffffffffffffffffffffffffff16815260200190815260200160002060006101000a81548160ff0219169083151502179055508173ffffffffffffffffffffffffffffffffffffffff168373ffffffffffffffffffffffffffffffffffffffff167f17307eab39ab6107e8899845ad3d59bd9653f200f220920489ca2b5937696c31836040516134ea9190613cfd565b60405180910390a3505050565b613502848484612f05565b61350e848484846137b6565b61354d576040517f08c379a000000000000000000000000000000000000000000000000000000000815260040161354490615ddd565b60405180910390fd5b50505050565b600080823b905060008111915050919050565b600060019054906101000a900460ff166135b5576040517f08c379a00000000000000000000000000000000000000000000000000000000081526004016135ac90615a33565b60405180910390fd5b565b600060019054906101000a900460ff16613606576040517f08c379a00000000000000000000000000000000000000000000000000000000081526004016135fd90615a33565b60405180910390fd5b613616613611612c26565b613221565b565b600060019054906101000a900460ff16613667576040517f08c379a000000000000000000000000000000000000000000000000000000000815260040161365e90615a33565b60405180910390fd5b6000606560006101000a81548160ff021916908315150217905550565b600060019054906101000a900460ff166136d3576040517f08c379a00000000000000000000000000000000000000000000000000000000081526004016136ca90615a33565b60405180910390fd5b565b600060019054906101000a900460ff16613724576040517f08c379a000000000000000000000000000000000000000000000000000000000815260040161371b90615a33565b60405180910390fd5b8160c9908051906020019061373a929190613ba6565b508060ca9080519060200190613751929190613ba6565b505050565b505050565b613765838361393e565b61377260008484846137b6565b6137b1576040517f08c379a00000000000000000000000000000000000000000000000000000000081526004016137a890615ddd565b60405180910390fd5b505050565b60006137d78473ffffffffffffffffffffffffffffffffffffffff16613553565b15613931578373ffffffffffffffffffffffffffffffffffffffff1663150b7a02613800612c26565b8786866040518563ffffffff1660e01b81526004016138229493929190615e52565b6020604051808303816000875af192505050801561385e57506040513d601f19601f8201168201806040525081019061385b9190615eb3565b60015b6138e1573d806000811461388e576040519150601f19603f3d011682016040523d82523d6000602084013e613893565b606091505b506000815114156138d9576040517f08c379a00000000000000000000000000000000000000000000000000000000081526004016138d090615ddd565b60405180910390fd5b805181602001fd5b63150b7a0260e01b7bffffffffffffffffffffffffffffffffffffffffffffffffffffffff1916817bffffffffffffffffffffffffffffffffffffffffffffffffffffffff191614915050613936565b600190505b949350505050565b600073ffffffffffffffffffffffffffffffffffffffff168273ffffffffffffffffffffffffffffffffffffffff1614156139ae576040517f08c379a00000000000000000000000000000000000000000000000000000000081526004016139a590615f2c565b60405180910390fd5b6139b781612bba565b156139f7576040517f08c379a00000000000000000000000000000000000000000000000000000000081526004016139ee90615f98565b60405180910390fd5b613a0360008383613756565b600160cc60008473ffffffffffffffffffffffffffffffffffffffff1673ffffffffffffffffffffffffffffffffffffffff1681526020019081526020016000206000828254613a539190615c3d565b925050819055508160cb600083815260200190815260200160002060006101000a81548173ffffffffffffffffffffffffffffffffffffffff021916908373ffffffffffffffffffffffffffffffffffffffff160217905550808273ffffffffffffffffffffffffffffffffffffffff16600073ffffffffffffffffffffffffffffffffffffffff167fddf252ad1be2c89b69c2b068fc378daa952ba7f163c4a11628f55a4df523b3ef60405160405180910390a45050565b5080546000825590600052602060002090810190613b2a9190613c2c565b50565b604051806101600160405280600015158152602001600060ff168152602001600060ff168152602001600060ff168152602001600060ff168152602001600060ff168152602001600060ff168152602001600060ff168152602001600060ff168152602001600060ff1681526020016000800b81525090565b828054613bb290614b1b565b90600052602060002090601f016020900481019282613bd45760008555613c1b565b82601f10613bed57805160ff1916838001178555613c1b565b82800160010185558215613c1b579182015b82811115613c1a578251825591602001919060010190613bff565b5b509050613c289190613c2c565b5090565b5b80821115613c45576000816000905550600101613c2d565b5090565b6000604051905090565b600080fd5b600080fd5b60007fffffffff0000000000000000000000000000000000000000000000000000000082169050919050565b613c9281613c5d565b8114613c9d57600080fd5b50565b600081359050613caf81613c89565b92915050565b600060208284031215613ccb57613cca613c53565b5b6000613cd984828501613ca0565b91505092915050565b60008115159050919050565b613cf781613ce2565b82525050565b6000602082019050613d126000830184613cee565b92915050565b600081519050919050565b600082825260208201905092915050565b60005b83811015613d52578082015181840152602081019050613d37565b83811115613d61576000848401525b50505050565b6000601f19601f8301169050919050565b6000613d8382613d18565b613d8d8185613d23565b9350613d9d818560208601613d34565b613da681613d67565b840191505092915050565b60006020820190508181036000830152613dcb8184613d78565b905092915050565b6000819050919050565b613de681613dd3565b8114613df157600080fd5b50565b600081359050613e0381613ddd565b92915050565b600060208284031215613e1f57613e1e613c53565b5b6000613e2d84828501613df4565b91505092915050565b600073ffffffffffffffffffffffffffffffffffffffff82169050919050565b6000613e6182613e36565b9050919050565b613e7181613e56565b82525050565b6000602082019050613e8c6000830184613e68565b92915050565b600061ffff82169050919050565b613ea981613e92565b82525050565b6000602082019050613ec46000830184613ea0565b92915050565b613ed381613e56565b8114613ede57600080fd5b50565b600081359050613ef081613eca565b92915050565b60008060408385031215613f0d57613f0c613c53565b5b6000613f1b85828601613ee1565b9250506020613f2c85828601613df4565b9150509250929050565b600080600080600060a08688031215613f5257613f51613c53565b5b6000613f6088828901613ee1565b9550506020613f7188828901613ee1565b9450506040613f8288828901613ee1565b9350506060613f9388828901613ee1565b9250506080613fa488828901613ee1565b9150509295509295909350565b600080600060608486031215613fca57613fc9613c53565b5b6000613fd886828701613ee1565b9350506020613fe986828701613ee1565b9250506040613ffa86828701613df4565b9150509250925092565b600061400f82613e36565b9050919050565b61401f81614004565b82525050565b600060208201905061403a6000830184614016565b92915050565b6000819050919050565b61405381614040565b811461405e57600080fd5b50565b6000813590506140708161404a565b92915050565b600080fd5b7f4e487b7100000000000000000000000000000000000000000000000000000000600052604160045260246000fd5b6140b382613d67565b810181811067ffffffffffffffff821117156140d2576140d161407b565b5b80604052505050565b60006140e5613c49565b90506140f182826140aa565b919050565b600067ffffffffffffffff8211156141115761411061407b565b5b602082029050602081019050919050565b600080fd5b600080fd5b61413581613ce2565b811461414057600080fd5b50565b6000813590506141528161412c565b92915050565b600060ff82169050919050565b61416e81614158565b811461417957600080fd5b50565b60008135905061418b81614165565b92915050565b60008160000b9050919050565b6141a781614191565b81146141b257600080fd5b50565b6000813590506141c48161419e565b92915050565b600061016082840312156141e1576141e0614127565b5b6141ec6101606140db565b905060006141fc84828501614143565b60008301525060206142108482850161417c565b60208301525060406142248482850161417c565b60408301525060606142388482850161417c565b606083015250608061424c8482850161417c565b60808301525060a06142608482850161417c565b60a08301525060c06142748482850161417c565b60c08301525060e06142888482850161417c565b60e08301525061010061429d8482850161417c565b610100830152506101206142b38482850161417c565b610120830152506101406142c9848285016141b5565b6101408301525092915050565b60006142e96142e4846140f6565b6140db565b905080838252602082019050610160840283018581111561430d5761430c614122565b5b835b81811015614337578061432288826141ca565b8452602084019350506101608101905061430f565b5050509392505050565b600082601f83011261435657614355614076565b5b81356143668482602086016142d6565b91505092915050565b6000806040838503121561438657614385613c53565b5b600061439485828601614061565b925050602083013567ffffffffffffffff8111156143b5576143b4613c58565b5b6143c185828601614341565b9150509250929050565b6000819050919050565b60006143f06143eb6143e684613e36565b6143cb565b613e36565b9050919050565b6000614402826143d5565b9050919050565b6000614414826143f7565b9050919050565b61442481614409565b82525050565b600060208201905061443f600083018461441b565b92915050565b6000806040838503121561445c5761445b613c53565b5b600061446a8582860161417c565b925050602061447b85828601614143565b9150509250929050565b6000806000806080858703121561449f5761449e613c53565b5b60006144ad87828801613df4565b94505060206144be878288016141b5565b93505060406144cf878288016141b5565b92505060606144e087828801613df4565b91505092959194509250565b6144f581614158565b82525050565b600060608201905061451060008301866144ec565b61451d60208301856144ec565b818103604083015261452f8184613d78565b9050949350505050565b60006020828403121561454f5761454e613c53565b5b600061455d84828501613ee1565b91505092915050565b61456f81613dd3565b82525050565b600060208201905061458a6000830184614566565b92915050565b600067ffffffffffffffff8211156145ab576145aa61407b565b5b602082029050602081019050919050565b60006145cf6145ca84614590565b6140db565b905080838252602082019050602084028301858111156145f2576145f1614122565b5b835b8181101561461b57806146078882613ee1565b8452602084019350506020810190506145f4565b5050509392505050565b600082601f83011261463a57614639614076565b5b813561464a8482602086016145bc565b91505092915050565b60006020828403121561466957614668613c53565b5b600082013567ffffffffffffffff81111561468757614686613c58565b5b61469384828501614625565b91505092915050565b60006146a7826143f7565b9050919050565b6146b78161469c565b82525050565b60006020820190506146d260008301846146ae565b92915050565b6146e181613ce2565b82525050565b6146f081614158565b82525050565b6146ff81614191565b82525050565b6101608201600082015161471c60008501826146d8565b50602082015161472f60208501826146e7565b50604082015161474260408501826146e7565b50606082015161475560608501826146e7565b50608082015161476860808501826146e7565b5060a082015161477b60a08501826146e7565b5060c082015161478e60c08501826146e7565b5060e08201516147a160e08501826146e7565b506101008201516147b66101008501826146e7565b506101208201516147cb6101208501826146e7565b506101408201516147e06101408501826146f6565b50505050565b6000610160820190506147fc6000830184614705565b92915050565b6000806040838503121561481957614818613c53565b5b600061482785828601613ee1565b925050602061483885828601614143565b9150509250929050565b600080fd5b600067ffffffffffffffff8211156148625761486161407b565b5b61486b82613d67565b9050602081019050919050565b82818337600083830152505050565b600061489a61489584614847565b6140db565b9050828152602081018484840111156148b6576148b5614842565b5b6148c1848285614878565b509392505050565b600082601f8301126148de576148dd614076565b5b81356148ee848260208601614887565b91505092915050565b6000806000806080858703121561491157614910613c53565b5b600061491f87828801613ee1565b945050602061493087828801613ee1565b935050604061494187828801613df4565b925050606085013567ffffffffffffffff81111561496257614961613c58565b5b61496e878288016148c9565b91505092959194509250565b61498381614191565b82525050565b60006101608201905061499f600083018e613cee565b6149ac602083018d6144ec565b6149b9604083018c6144ec565b6149c6606083018b6144ec565b6149d3608083018a6144ec565b6149e060a08301896144ec565b6149ed60c08301886144ec565b6149fa60e08301876144ec565b614a086101008301866144ec565b614a166101208301856144ec565b614a2461014083018461497a565b9c9b505050505050505050505050565b6000614a3f826143f7565b9050919050565b614a4f81614a34565b82525050565b6000602082019050614a6a6000830184614a46565b92915050565b60008060408385031215614a8757614a86613c53565b5b6000614a9585828601613ee1565b9250506020614aa685828601613ee1565b9150509250929050565b6000614abb826143f7565b9050919050565b614acb81614ab0565b82525050565b6000602082019050614ae66000830184614ac2565b92915050565b7f4e487b7100000000000000000000000000000000000000000000000000000000600052602260045260246000fd5b60006002820490506001821680614b3357607f821691505b60208210811415614b4757614b46614aec565b5b50919050565b7f4552433732313a20617070726f76656420717565727920666f72206e6f6e657860008201527f697374656e7420746f6b656e0000000000000000000000000000000000000000602082015250565b6000614ba9602c83613d23565b9150614bb482614b4d565b604082019050919050565b60006020820190508181036000830152614bd881614b9c565b9050919050565b7f4552433732313a20617070726f76616c20746f2063757272656e74206f776e6560008201527f7200000000000000000000000000000000000000000000000000000000000000602082015250565b6000614c3b602183613d23565b9150614c4682614bdf565b604082019050919050565b60006020820190508181036000830152614c6a81614c2e565b9050919050565b7f4552433732313a20617070726f76652063616c6c6572206973206e6f74206f7760008201527f6e6572206e6f7220617070726f76656420666f7220616c6c0000000000000000602082015250565b6000614ccd603883613d23565b9150614cd882614c71565b604082019050919050565b60006020820190508181036000830152614cfc81614cc0565b9050919050565b7f496e697469616c697a61626c653a20636f6e747261637420697320616c72656160008201527f647920696e697469616c697a6564000000000000000000000000000000000000602082015250565b6000614d5f602e83613d23565b9150614d6a82614d03565b604082019050919050565b60006020820190508181036000830152614d8e81614d52565b9050919050565b7f4f776e61626c653a2063616c6c6572206973206e6f7420746865206f776e6572600082015250565b6000614dcb602083613d23565b9150614dd682614d95565b602082019050919050565b60006020820190508181036000830152614dfa81614dbe565b9050919050565b7f4e487b7100000000000000000000000000000000000000000000000000000000600052601260045260246000fd5b7f4e487b7100000000000000000000000000000000000000000000000000000000600052601160045260246000fd5b6000614e6a82613dd3565b9150614e7583613dd3565b925082614e8557614e84614e01565b5b828204905092915050565b7f4e487b7100000000000000000000000000000000000000000000000000000000600052603260045260246000fd5b6000614eca82613dd3565b91507fffffffffffffffffffffffffffffffffffffffffffffffffffffffffffffffff821415614efd57614efc614e30565b5b600182019050919050565b7f4552433732313a207472616e736665722063616c6c6572206973206e6f74206f60008201527f776e6572206e6f7220617070726f766564000000000000000000000000000000602082015250565b6000614f64603183613d23565b9150614f6f82614f08565b604082019050919050565b60006020820190508181036000830152614f9381614f57565b9050919050565b7f5061757361626c653a2070617573656400000000000000000000000000000000600082015250565b6000614fd0601083613d23565b9150614fdb82614f9a565b602082019050919050565b60006020820190508181036000830152614fff81614fc3565b9050919050565b7f496e76616c696420767266526571756573740000000000000000000000000000600082015250565b600061503c601283613d23565b915061504782615006565b602082019050919050565b6000602082019050818103600083015261506b8161502f565b9050919050565b61507b81614040565b82525050565b60006020820190506150966000830184615072565b92915050565b6000815190506150ab8161404a565b92915050565b6000815190506150c081613eca565b92915050565b6000815190506150d581614165565b92915050565b6000815190506150ea8161412c565b92915050565b6000815190506150ff8161419e565b92915050565b600060a0828403121561511b5761511a614127565b5b61512560a06140db565b905060006151358482850161509c565b6000830152506020615149848285016150b1565b602083015250604061515d848285016150c6565b6040830152506060615171848285016150db565b6060830152506080615185848285016150f0565b60808301525092915050565b600060a082840312156151a7576151a6613c53565b5b60006151b584828501615105565b91505092915050565b7f76726652657175657374206e6f7420666f756e64000000000000000000000000600082015250565b60006151f4601483613d23565b91506151ff826151be565b602082019050919050565b60006020820190508181036000830152615223816151e7565b9050919050565b7f4f6e6c7920746865204d696e742063616e2066756c66696c6c00000000000000600082015250565b6000615260601983613d23565b915061526b8261522a565b602082019050919050565b6000602082019050818103600083015261528f81615253565b9050919050565b60006152a182613e92565b915061ffff8214156152b6576152b5614e30565b5b600182019050919050565b600081519050919050565b600082825260208201905092915050565b6000819050602082019050919050565b6152f681613e92565b82525050565b600061530883836152ed565b60208301905092915050565b6000602082019050919050565b600061532c826152c1565b61533681856152cc565b9350615341836152dd565b8060005b8381101561537257815161535988826152fc565b975061536483615314565b925050600181019050615345565b5085935050505092915050565b60006040820190506153946000830185613e68565b81810360208301526153a68184615321565b90509392505050565b7f454f41206f6e6c79000000000000000000000000000000000000000000000000600082015250565b60006153e5600883613d23565b91506153f0826153af565b602082019050919050565b60006020820190508181036000830152615414816153d8565b9050919050565b600060c0820190506154306000830189613e68565b61543d60208301886144ec565b61544a6040830187614566565b6154576060830186613ea0565b6154646080830185614566565b61547160a0830184614566565b979650505050505050565b60006020828403121561549257615491613c53565b5b60006154a0848285016150f0565b91505092915050565b60006080820190506154be6000830187613e68565b6154cb60208301866144ec565b6154d86040830185613cee565b6154e5606083018461497a565b95945050505050565b60006020828403121561550457615503613c53565b5b60006155128482850161509c565b91505092915050565b600061552682613e92565b915061553183613e92565b92508261ffff0382111561554857615547614e30565b5b828201905092915050565b7f4552433732313a206f776e657220717565727920666f72206e6f6e657869737460008201527f656e7420746f6b656e0000000000000000000000000000000000000000000000602082015250565b60006155af602983613d23565b91506155ba82615553565b604082019050919050565b600060208201905081810360008301526155de816155a2565b9050919050565b7f4f6e6c7920636f6e74726f6c6c6572732063616e206578656375746500000000600082015250565b600061561b601c83613d23565b9150615626826155e5565b602082019050919050565b6000602082019050818103600083015261564a8161560e565b9050919050565b600060c0820190506156666000830189613cee565b61567360208301886144ec565b61568060408301876144ec565b61568d606083018661497a565b61569a608083018561497a565b6156a760a0830184614566565b979650505050505050565b600067ffffffffffffffff8211156156cd576156cc61407b565b5b6156d682613d67565b9050602081019050919050565b60006156f66156f1846156b2565b6140db565b90508281526020810184848401111561571257615711614842565b5b61571d848285613d34565b509392505050565b600082601f83011261573a57615739614076565b5b815161574a8482602086016156e3565b91505092915050565b60008060006060848603121561576c5761576b613c53565b5b600061577a868287016150c6565b935050602061578b868287016150c6565b925050604084015167ffffffffffffffff8111156157ac576157ab613c58565b5b6157b886828701615725565b9150509250925092565b7f4552433732313a2062616c616e636520717565727920666f7220746865207a6560008201527f726f206164647265737300000000000000000000000000000000000000000000602082015250565b600061581e602a83613d23565b9150615829826157c2565b604082019050919050565b6000602082019050818103600083015261584d81615811565b9050919050565b7f4552433732314d657461646174613a2055524920717565727920666f72206e6f60008201527f6e2d6578697374656e7420746f6b656e00000000000000000000000000000000602082015250565b60006158b0603083613d23565b91506158bb82615854565b604082019050919050565b600060208201905081810360008301526158df816158a3565b9050919050565b6000602082840312156158fc576158fb613c53565b5b600082015167ffffffffffffffff81111561591a57615919613c58565b5b61592684828501615725565b91505092915050565b7f4f776e61626c653a206e6577206f776e657220697320746865207a65726f206160008201527f6464726573730000000000000000000000000000000000000000000000000000602082015250565b600061598b602683613d23565b91506159968261592f565b604082019050919050565b600060208201905081810360008301526159ba8161597e565b9050919050565b7f496e697469616c697a61626c653a20636f6e7472616374206973206e6f74206960008201527f6e697469616c697a696e67000000000000000000000000000000000000000000602082015250565b6000615a1d602b83613d23565b9150615a28826159c1565b604082019050919050565b60006020820190508181036000830152615a4c81615a10565b9050919050565b7f4552433732313a206f70657261746f7220717565727920666f72206e6f6e657860008201527f697374656e7420746f6b656e0000000000000000000000000000000000000000602082015250565b6000615aaf602c83613d23565b9150615aba82615a53565b604082019050919050565b60006020820190508181036000830152615ade81615aa2565b9050919050565b7f4552433732313a207472616e73666572206f6620746f6b656e2074686174206960008201527f73206e6f74206f776e0000000000000000000000000000000000000000000000602082015250565b6000615b41602983613d23565b9150615b4c82615ae5565b604082019050919050565b60006020820190508181036000830152615b7081615b34565b9050919050565b7f4552433732313a207472616e7366657220746f20746865207a65726f2061646460008201527f7265737300000000000000000000000000000000000000000000000000000000602082015250565b6000615bd3602483613d23565b9150615bde82615b77565b604082019050919050565b60006020820190508181036000830152615c0281615bc6565b9050919050565b6000615c1482613dd3565b9150615c1f83613dd3565b925082821015615c3257615c31614e30565b5b828203905092915050565b6000615c4882613dd3565b9150615c5383613dd3565b9250827fffffffffffffffffffffffffffffffffffffffffffffffffffffffffffffffff03821115615c8857615c87614e30565b5b828201905092915050565b7f5061757361626c653a206e6f7420706175736564000000000000000000000000600082015250565b6000615cc9601483613d23565b9150615cd482615c93565b602082019050919050565b60006020820190508181036000830152615cf881615cbc565b9050919050565b7f4552433732313a20617070726f766520746f2063616c6c657200000000000000600082015250565b6000615d35601983613d23565b9150615d4082615cff565b602082019050919050565b60006020820190508181036000830152615d6481615d28565b9050919050565b7f4552433732313a207472616e7366657220746f206e6f6e20455243373231526560008201527f63656976657220696d706c656d656e7465720000000000000000000000000000602082015250565b6000615dc7603283613d23565b9150615dd282615d6b565b604082019050919050565b60006020820190508181036000830152615df681615dba565b9050919050565b600081519050919050565b600082825260208201905092915050565b6000615e2482615dfd565b615e2e8185615e08565b9350615e3e818560208601613d34565b615e4781613d67565b840191505092915050565b6000608082019050615e676000830187613e68565b615e746020830186613e68565b615e816040830185614566565b8181036060830152615e938184615e19565b905095945050505050565b600081519050615ead81613c89565b92915050565b600060208284031215615ec957615ec8613c53565b5b6000615ed784828501615e9e565b91505092915050565b7f4552433732313a206d696e7420746f20746865207a65726f2061646472657373600082015250565b6000615f16602083613d23565b9150615f2182615ee0565b602082019050919050565b60006020820190508181036000830152615f4581615f09565b9050919050565b7f4552433732313a20746f6b656e20616c7265616479206d696e74656400000000600082015250565b6000615f82601c83613d23565b9150615f8d82615f4c565b602082019050919050565b60006020820190508181036000830152615fb181615f75565b905091905056fea26469706673582212207f83fbd6ecb40061641df3f528f24eeb61273f7e8aafcd31038ed72c2e83978d64736f6c634300080a0033",
  "immutableReferences": {},
  "source": "// SPDX-License-Identifier: MIT\n\npragma solidity ^0.8.0;\n\nimport \"@openzeppelin/contracts-upgradeable/proxy/utils/Initializable.sol\";\nimport \"@openzeppelin/contracts-upgradeable/token/ERC721/ERC721Upgradeable.sol\";\nimport \"./GenericPausable.sol\";\nimport \"./ControllableUpgradeable.sol\";\nimport \"./ICharacter.sol\";\nimport \"./IMint.sol\";\nimport \"./ITraits.sol\";\nimport \"./IProperties.sol\";\nimport \"./IVenue.sol\";\nimport \"./IPaywall.sol\";\n\ncontract Character is ICharacter, Initializable, OwnableUpgradeable, GenericPausable, ERC721Upgradeable, ControllableUpgradeable {\n  uint16 public paid;\n  uint16 public minted;\n  uint16 public numChefs;\n  uint16 public numRats;\n  uint256 public maxTokens; // Max number of tokens that can be minted\n  uint256 gen0Tokens; // Number of tokens that are purchased with native token\n\n  mapping(uint256 => CharacterStruct) public tokenTraits; // Mapping from tokenId to a struct containing the token's traits\n\n  IMint public theMint; // Reference to Mint\n  ITraits public traits; // Reference to Traits\n  IProperties public properties; // Reference to Properties\n  address[] venues;\n  IPaywall public paywall;\n  address payable public dao;\n\n  function initialize(\n    address _paywall,\n    address _mint,\n    address _traits,\n    address _properties,\n    address _dao\n  ) external initializer {\n    __Ownable_init();\n    __Pausable_init();\n    __ERC721_init(\"RatAlert Characters\", \"RATCAST\");\n\n    paywall = IPaywall(_paywall);\n    theMint = IMint(_mint);\n    traits = ITraits(_traits);\n    properties = IProperties(_properties);\n    dao = payable(_dao);\n  }\n\n  /**\n   * Allows DAO to update game parameters\n   */\n  function configure(uint256 _maxTokens) external onlyOwner {\n    maxTokens = _maxTokens;\n    gen0Tokens = _maxTokens / 5;\n  }\n\n  /**\n   * ChainLink VRF request: Mints a new ERC721 token: 90% chefs, 10% rats\n   * The first 20% are purchased with native token, the remaining cost $FFOOD\n   * @param amount Number of tokens to mint\n   * @param stake Number of tokens to mint\n   */\n  function mint(uint8 amount, bool stake) external payable whenNotPaused {\n    require(tx.origin == _msgSender(), \"EOA only\");\n    int8 boost = paywall.handle(_msgSender(), amount, msg.value, paid, maxTokens, gen0Tokens);\n    if (msg.value > 0) {\n      dao.transfer(msg.value); // Transfer to Gnosis Safe\n    }\n    theMint.requestRandomNumber(_msgSender(), amount, stake, boost);\n    paid += amount;\n  }\n\n  /**\n   * Callback for mint(), called by Mint.fulfillRandomness()\n   * @param requestId - The VRF request ID\n   * @param tokens - List of characters created by the Mint\n   */\n  function fulfillMint(bytes32 requestId, CharacterStruct[] memory tokens) external whenNotPaused {\n    require(requestId != 0, \"Invalid vrfRequest\");\n    IMint.VRFStruct memory v = theMint.getVrfRequest(requestId);\n    require(requestId == v.requestId, \"vrfRequest not found\");\n    require(msg.sender == address(theMint), \"Only the Mint can fulfill\");\n    uint16[] memory tokenIds = new uint16[](v.amount);\n    for (uint i = 0; i < v.amount; i++) {\n      minted ++;\n      _safeMint(v.stake ? venues[0] : v.sender, minted);\n      tokenIds[i] = minted;\n      tokenTraits[minted] = tokens[i];\n      tokens[i].isChef ? numChefs++ : numRats++;\n    }\n    if (v.stake) IVenue(venues[0]).stakeMany(v.sender, tokenIds);\n  }\n\n  /**\n   * Allows the venues to update the character's efficiency & tolerance values when claiming\n   * @param tokenId - The ID of the Character\n   * @param efficiencyIncrement - The value to add/subtract to the current value\n   * @param toleranceIncrement - The value to add/subtract to the current value\n   * @param randomVal - A ChainLink VRF random number\n   */\n  function updateCharacter(uint256 tokenId, int8 efficiencyIncrement, int8 toleranceIncrement, uint256 randomVal) public onlyController returns(uint8 efficiencyValue, uint8 toleranceValue, string memory eventName) {\n    bool isChef = tokenTraits[tokenId].isChef;\n    uint8 currentEfficiency = tokenTraits[tokenId].efficiency;\n    uint8 currentTolerance = tokenTraits[tokenId].tolerance;\n    (efficiencyValue, toleranceValue, eventName) = properties.getEventUpdates(isChef, currentEfficiency, currentTolerance, efficiencyIncrement, toleranceIncrement, randomVal);\n    tokenTraits[tokenId].efficiency = efficiencyValue;\n    tokenTraits[tokenId].tolerance = toleranceValue;\n  }\n\n  /**\n   * Returns the base64 encoded ERC721 metadata\n   * @param tokenId - The ID of the Character\n   * @return base64 encoded JSON string\n   */\n  function tokenURI(uint256 tokenId) public view override returns (string memory) {\n    require(_exists(tokenId), \"ERC721Metadata: URI query for non-existent token\");\n    return traits.tokenURI(tokenId);\n  }\n\n  /**\n   * Returns the Character's struct\n   * @param tokenId - The ID of the Character\n   * @return Current CharacterStruct\n   */\n  function getTokenTraits(uint256 tokenId) external view override returns (CharacterStruct memory) {\n    require(_exists(tokenId), \"ERC721Metadata: URI query for non-existent token\");\n    return tokenTraits[tokenId];\n  }\n\n  /**\n   * Custom getter required for Traits contract\n   */\n  function getGen0Tokens() external view override returns (uint256) {\n    return gen0Tokens;\n  }\n\n  /**\n   * ERC721 transfer override to avoid venue approvals so that users don't have to waste gas\n   */\n  function transferFrom(address from, address to, uint256 tokenId) public virtual override {\n    bool wl = false;\n    for (uint i = 0; i < venues.length; i++) {\n      wl = wl || _msgSender() == venues[i];\n    }\n    if (!wl)\n      require(_isApprovedOrOwner(_msgSender(), tokenId), \"ERC721: transfer caller is not owner nor approved\");\n    _transfer(from, to, tokenId);\n  }\n\n  /**\n   * Sets the venue addresses to optionally stake newly minted characters and avoid approvals\n   * @param _venues - A list of venue addresses\n   */\n  function setVenues(address[] memory _venues) external onlyOwner {\n    delete venues;\n    for (uint i = 0; i < _venues.length; i++) {\n      venues.push(_venues[i]);\n    }\n  }\n}\n",
  "sourcePath": "/Users/chris/workspace/ratalert/ratalert-contracts/contracts/Character.sol",
  "compiler": {
    "name": "solc",
    "version": "0.8.10+commit.fc410830.Emscripten.clang"
  },
  "schemaVersion": "3.4.6",
  "updatedAt": "2022-03-29T21:46:41.929Z",
  "networkType": "ethereum",
  "devdoc": {
    "kind": "dev",
    "methods": {
      "addController(address[])": {
        "params": {
          "_controllers": "- The addresses to enable"
        }
      },
      "approve(address,uint256)": {
        "details": "See {IERC721-approve}."
      },
      "balanceOf(address)": {
        "details": "See {IERC721-balanceOf}."
      },
      "controller(address)": {
        "params": {
          "_controller": "- The address to check"
        }
      },
      "fulfillMint(bytes32,(bool,uint8,uint8,uint8,uint8,uint8,uint8,uint8,uint8,uint8,int8)[])": {
        "params": {
          "requestId": "- The VRF request ID",
          "tokens": "- List of characters created by the Mint"
        }
      },
      "getApproved(uint256)": {
        "details": "See {IERC721-getApproved}."
      },
      "getTokenTraits(uint256)": {
        "params": {
          "tokenId": "- The ID of the Character"
        },
        "returns": {
          "_0": "Current CharacterStruct"
        }
      },
      "isApprovedForAll(address,address)": {
        "details": "See {IERC721-isApprovedForAll}."
      },
      "mint(uint8,bool)": {
        "params": {
          "amount": "Number of tokens to mint",
          "stake": "Number of tokens to mint"
        }
      },
      "name()": {
        "details": "See {IERC721Metadata-name}."
      },
      "owner()": {
        "details": "Returns the address of the current owner."
      },
      "ownerOf(uint256)": {
        "details": "See {IERC721-ownerOf}."
      },
      "paused()": {
        "details": "Returns true if the contract is paused, and false otherwise."
      },
      "removeController(address[])": {
        "params": {
          "_controllers": "- The addresses to disable"
        }
      },
      "renounceOwnership()": {
        "details": "Leaves the contract without owner. It will not be possible to call `onlyOwner` functions anymore. Can only be called by the current owner. NOTE: Renouncing ownership will leave the contract without an owner, thereby removing any functionality that is only available to the owner."
      },
      "safeTransferFrom(address,address,uint256)": {
        "details": "See {IERC721-safeTransferFrom}."
      },
      "safeTransferFrom(address,address,uint256,bytes)": {
        "details": "See {IERC721-safeTransferFrom}."
      },
      "setApprovalForAll(address,bool)": {
        "details": "See {IERC721-setApprovalForAll}."
      },
      "setVenues(address[])": {
        "params": {
          "_venues": "- A list of venue addresses"
        }
      },
      "supportsInterface(bytes4)": {
        "details": "See {IERC165-supportsInterface}."
      },
      "symbol()": {
        "details": "See {IERC721Metadata-symbol}."
      },
      "tokenURI(uint256)": {
        "params": {
          "tokenId": "- The ID of the Character"
        },
        "returns": {
          "_0": "base64 encoded JSON string"
        }
      },
      "transferOwnership(address)": {
        "details": "Transfers ownership of the contract to a new account (`newOwner`). Can only be called by the current owner."
      },
      "updateCharacter(uint256,int8,int8,uint256)": {
        "params": {
          "efficiencyIncrement": "- The value to add/subtract to the current value",
          "randomVal": "- A ChainLink VRF random number",
          "tokenId": "- The ID of the Character",
          "toleranceIncrement": "- The value to add/subtract to the current value"
        }
      }
    },
    "version": 1
  },
  "userdoc": {
    "kind": "user",
    "methods": {
      "addController(address[])": {
        "notice": "Enables multiple addresses to execute"
      },
      "configure(uint256)": {
        "notice": "Allows DAO to update game parameters"
      },
      "controller(address)": {
        "notice": "Gets controller status by address"
      },
      "fulfillMint(bytes32,(bool,uint8,uint8,uint8,uint8,uint8,uint8,uint8,uint8,uint8,int8)[])": {
        "notice": "Callback for mint(), called by Mint.fulfillRandomness()"
      },
      "getGen0Tokens()": {
        "notice": "Custom getter required for Traits contract"
      },
      "getTokenTraits(uint256)": {
        "notice": "Returns the Character's struct"
      },
      "mint(uint8,bool)": {
        "notice": "ChainLink VRF request: Mints a new ERC721 token: 90% chefs, 10% rats The first 20% are purchased with native token, the remaining cost $FFOOD"
      },
      "removeController(address[])": {
        "notice": "Prevents multiple addresses from executing"
      },
      "setVenues(address[])": {
        "notice": "Sets the venue addresses to optionally stake newly minted characters and avoid approvals"
      },
      "tokenURI(uint256)": {
        "notice": "Returns the base64 encoded ERC721 metadata"
      },
      "transferFrom(address,address,uint256)": {
        "notice": "ERC721 transfer override to avoid venue approvals so that users don't have to waste gas"
      },
      "updateCharacter(uint256,int8,int8,uint256)": {
        "notice": "Allows the venues to update the character's efficiency & tolerance values when claiming"
      }
    },
    "version": 1
  }
}