{
  "contractName": "Character",
  "abi": [
    {
      "anonymous": false,
      "inputs": [
        {
          "indexed": true,
          "internalType": "address",
          "name": "owner",
          "type": "address"
        },
        {
          "indexed": true,
          "internalType": "address",
          "name": "approved",
          "type": "address"
        },
        {
          "indexed": true,
          "internalType": "uint256",
          "name": "tokenId",
          "type": "uint256"
        }
      ],
      "name": "Approval",
      "type": "event"
    },
    {
      "anonymous": false,
      "inputs": [
        {
          "indexed": true,
          "internalType": "address",
          "name": "owner",
          "type": "address"
        },
        {
          "indexed": true,
          "internalType": "address",
          "name": "operator",
          "type": "address"
        },
        {
          "indexed": false,
          "internalType": "bool",
          "name": "approved",
          "type": "bool"
        }
      ],
      "name": "ApprovalForAll",
      "type": "event"
    },
    {
      "anonymous": false,
      "inputs": [
        {
          "indexed": true,
          "internalType": "address",
          "name": "previousOwner",
          "type": "address"
        },
        {
          "indexed": true,
          "internalType": "address",
          "name": "newOwner",
          "type": "address"
        }
      ],
      "name": "OwnershipTransferred",
      "type": "event"
    },
    {
      "anonymous": false,
      "inputs": [
        {
          "indexed": false,
          "internalType": "address",
          "name": "account",
          "type": "address"
        }
      ],
      "name": "Paused",
      "type": "event"
    },
    {
      "anonymous": false,
      "inputs": [
        {
          "indexed": true,
          "internalType": "address",
          "name": "from",
          "type": "address"
        },
        {
          "indexed": true,
          "internalType": "address",
          "name": "to",
          "type": "address"
        },
        {
          "indexed": true,
          "internalType": "uint256",
          "name": "tokenId",
          "type": "uint256"
        }
      ],
      "name": "Transfer",
      "type": "event"
    },
    {
      "anonymous": false,
      "inputs": [
        {
          "indexed": false,
          "internalType": "address",
          "name": "account",
          "type": "address"
        }
      ],
      "name": "Unpaused",
      "type": "event"
    },
    {
      "inputs": [
        {
          "internalType": "address",
          "name": "to",
          "type": "address"
        },
        {
          "internalType": "uint256",
          "name": "tokenId",
          "type": "uint256"
        }
      ],
      "name": "approve",
      "outputs": [],
      "stateMutability": "nonpayable",
      "type": "function"
    },
    {
      "inputs": [
        {
          "internalType": "address",
          "name": "owner",
          "type": "address"
        }
      ],
      "name": "balanceOf",
      "outputs": [
        {
          "internalType": "uint256",
          "name": "",
          "type": "uint256"
        }
      ],
      "stateMutability": "view",
      "type": "function",
      "constant": true
    },
    {
      "inputs": [
        {
          "internalType": "uint256",
          "name": "",
          "type": "uint256"
        }
      ],
      "name": "existingCombinations",
      "outputs": [
        {
          "internalType": "uint256",
          "name": "",
          "type": "uint256"
        }
      ],
      "stateMutability": "view",
      "type": "function",
      "constant": true
    },
    {
      "inputs": [],
      "name": "gen0Tokens",
      "outputs": [
        {
          "internalType": "uint256",
          "name": "",
          "type": "uint256"
        }
      ],
      "stateMutability": "view",
      "type": "function",
      "constant": true
    },
    {
      "inputs": [
        {
          "internalType": "uint256",
          "name": "tokenId",
          "type": "uint256"
        }
      ],
      "name": "getApproved",
      "outputs": [
        {
          "internalType": "address",
          "name": "",
          "type": "address"
        }
      ],
      "stateMutability": "view",
      "type": "function",
      "constant": true
    },
    {
      "inputs": [
        {
          "internalType": "address",
          "name": "owner",
          "type": "address"
        },
        {
          "internalType": "address",
          "name": "operator",
          "type": "address"
        }
      ],
      "name": "isApprovedForAll",
      "outputs": [
        {
          "internalType": "bool",
          "name": "",
          "type": "bool"
        }
      ],
      "stateMutability": "view",
      "type": "function",
      "constant": true
    },
    {
      "inputs": [],
      "name": "kitchen",
      "outputs": [
        {
          "internalType": "contract IVenue",
          "name": "",
          "type": "address"
        }
      ],
      "stateMutability": "view",
      "type": "function",
      "constant": true
    },
    {
      "inputs": [],
      "name": "maxTokens",
      "outputs": [
        {
          "internalType": "uint256",
          "name": "",
          "type": "uint256"
        }
      ],
      "stateMutability": "view",
      "type": "function",
      "constant": true
    },
    {
      "inputs": [],
      "name": "mintPrice",
      "outputs": [
        {
          "internalType": "uint256",
          "name": "",
          "type": "uint256"
        }
      ],
      "stateMutability": "view",
      "type": "function",
      "constant": true
    },
    {
      "inputs": [
        {
          "internalType": "bytes32",
          "name": "",
          "type": "bytes32"
        },
        {
          "internalType": "uint256",
          "name": "",
          "type": "uint256"
        }
      ],
      "name": "mintRequests",
      "outputs": [
        {
          "internalType": "uint16",
          "name": "",
          "type": "uint16"
        }
      ],
      "stateMutability": "view",
      "type": "function",
      "constant": true
    },
    {
      "inputs": [],
      "name": "minted",
      "outputs": [
        {
          "internalType": "uint16",
          "name": "",
          "type": "uint16"
        }
      ],
      "stateMutability": "view",
      "type": "function",
      "constant": true
    },
    {
      "inputs": [],
      "name": "name",
      "outputs": [
        {
          "internalType": "string",
          "name": "",
          "type": "string"
        }
      ],
      "stateMutability": "view",
      "type": "function",
      "constant": true
    },
    {
      "inputs": [],
      "name": "numChefs",
      "outputs": [
        {
          "internalType": "uint16",
          "name": "",
          "type": "uint16"
        }
      ],
      "stateMutability": "view",
      "type": "function",
      "constant": true
    },
    {
      "inputs": [],
      "name": "numRats",
      "outputs": [
        {
          "internalType": "uint16",
          "name": "",
          "type": "uint16"
        }
      ],
      "stateMutability": "view",
      "type": "function",
      "constant": true
    },
    {
      "inputs": [],
      "name": "owner",
      "outputs": [
        {
          "internalType": "address",
          "name": "",
          "type": "address"
        }
      ],
      "stateMutability": "view",
      "type": "function",
      "constant": true
    },
    {
      "inputs": [
        {
          "internalType": "uint256",
          "name": "tokenId",
          "type": "uint256"
        }
      ],
      "name": "ownerOf",
      "outputs": [
        {
          "internalType": "address",
          "name": "",
          "type": "address"
        }
      ],
      "stateMutability": "view",
      "type": "function",
      "constant": true
    },
    {
      "inputs": [],
      "name": "paused",
      "outputs": [
        {
          "internalType": "bool",
          "name": "",
          "type": "bool"
        }
      ],
      "stateMutability": "view",
      "type": "function",
      "constant": true
    },
    {
      "inputs": [],
      "name": "properties",
      "outputs": [
        {
          "internalType": "contract IProperties",
          "name": "",
          "type": "address"
        }
      ],
      "stateMutability": "view",
      "type": "function",
      "constant": true
    },
    {
      "inputs": [],
      "name": "renounceOwnership",
      "outputs": [],
      "stateMutability": "nonpayable",
      "type": "function"
    },
    {
      "inputs": [
        {
          "internalType": "address",
          "name": "from",
          "type": "address"
        },
        {
          "internalType": "address",
          "name": "to",
          "type": "address"
        },
        {
          "internalType": "uint256",
          "name": "tokenId",
          "type": "uint256"
        }
      ],
      "name": "safeTransferFrom",
      "outputs": [],
      "stateMutability": "nonpayable",
      "type": "function"
    },
    {
      "inputs": [
        {
          "internalType": "address",
          "name": "from",
          "type": "address"
        },
        {
          "internalType": "address",
          "name": "to",
          "type": "address"
        },
        {
          "internalType": "uint256",
          "name": "tokenId",
          "type": "uint256"
        },
        {
          "internalType": "bytes",
          "name": "_data",
          "type": "bytes"
        }
      ],
      "name": "safeTransferFrom",
      "outputs": [],
      "stateMutability": "nonpayable",
      "type": "function"
    },
    {
      "inputs": [
        {
          "internalType": "address",
          "name": "operator",
          "type": "address"
        },
        {
          "internalType": "bool",
          "name": "approved",
          "type": "bool"
        }
      ],
      "name": "setApprovalForAll",
      "outputs": [],
      "stateMutability": "nonpayable",
      "type": "function"
    },
    {
      "inputs": [
        {
          "internalType": "bytes4",
          "name": "interfaceId",
          "type": "bytes4"
        }
      ],
      "name": "supportsInterface",
      "outputs": [
        {
          "internalType": "bool",
          "name": "",
          "type": "bool"
        }
      ],
      "stateMutability": "view",
      "type": "function",
      "constant": true
    },
    {
      "inputs": [],
      "name": "symbol",
      "outputs": [
        {
          "internalType": "string",
          "name": "",
          "type": "string"
        }
      ],
      "stateMutability": "view",
      "type": "function",
      "constant": true
    },
    {
      "inputs": [],
      "name": "theMint",
      "outputs": [
        {
          "internalType": "contract IMint",
          "name": "",
          "type": "address"
        }
      ],
      "stateMutability": "view",
      "type": "function",
      "constant": true
    },
    {
      "inputs": [
        {
          "internalType": "uint256",
          "name": "",
          "type": "uint256"
        }
      ],
      "name": "tokenTraits",
      "outputs": [
        {
          "internalType": "bool",
          "name": "isChef",
          "type": "bool"
        },
        {
          "internalType": "uint8",
          "name": "hat",
          "type": "uint8"
        },
        {
          "internalType": "uint8",
          "name": "eyes",
          "type": "uint8"
        },
        {
          "internalType": "uint8",
          "name": "piercing",
          "type": "uint8"
        },
        {
          "internalType": "uint8",
          "name": "mouth",
          "type": "uint8"
        },
        {
          "internalType": "uint8",
          "name": "neck",
          "type": "uint8"
        },
        {
          "internalType": "uint8",
          "name": "hand",
          "type": "uint8"
        },
        {
          "internalType": "uint8",
          "name": "tail",
          "type": "uint8"
        },
        {
          "internalType": "uint8",
          "name": "efficiency",
          "type": "uint8"
        },
        {
          "internalType": "uint8",
          "name": "tolerance",
          "type": "uint8"
        }
      ],
      "stateMutability": "view",
      "type": "function",
      "constant": true
    },
    {
      "inputs": [],
      "name": "traits",
      "outputs": [
        {
          "internalType": "contract ITraits",
          "name": "",
          "type": "address"
        }
      ],
      "stateMutability": "view",
      "type": "function",
      "constant": true
    },
    {
      "inputs": [
        {
          "internalType": "address",
          "name": "from",
          "type": "address"
        },
        {
          "internalType": "address",
          "name": "to",
          "type": "address"
        },
        {
          "internalType": "uint256",
          "name": "tokenId",
          "type": "uint256"
        }
      ],
      "name": "transferFrom",
      "outputs": [],
      "stateMutability": "nonpayable",
      "type": "function"
    },
    {
      "inputs": [
        {
          "internalType": "address",
          "name": "newOwner",
          "type": "address"
        }
      ],
      "name": "transferOwnership",
      "outputs": [],
      "stateMutability": "nonpayable",
      "type": "function"
    },
    {
      "inputs": [
        {
          "internalType": "address[]",
          "name": "_addresses",
          "type": "address[]"
        },
        {
          "internalType": "uint256",
          "name": "_maxTokens",
          "type": "uint256"
        },
        {
          "internalType": "uint256",
          "name": "_mintPrice",
          "type": "uint256"
        }
      ],
      "name": "initialize",
      "outputs": [],
      "stateMutability": "nonpayable",
      "type": "function"
    },
    {
      "inputs": [
        {
          "internalType": "uint8",
          "name": "amount",
          "type": "uint8"
        },
        {
          "internalType": "bool",
          "name": "stake",
          "type": "bool"
        }
      ],
      "name": "mint",
      "outputs": [],
      "stateMutability": "payable",
      "type": "function",
      "payable": true
    },
    {
      "inputs": [
        {
          "internalType": "uint256",
          "name": "tokenId",
          "type": "uint256"
        }
      ],
      "name": "mintCost",
      "outputs": [
        {
          "internalType": "uint256",
          "name": "",
          "type": "uint256"
        }
      ],
      "stateMutability": "view",
      "type": "function",
      "constant": true
    },
    {
      "inputs": [
        {
          "components": [
            {
              "internalType": "bytes32",
              "name": "requestId",
              "type": "bytes32"
            },
            {
              "internalType": "address",
              "name": "sender",
              "type": "address"
            },
            {
              "internalType": "uint8",
              "name": "amount",
              "type": "uint8"
            },
            {
              "internalType": "bool",
              "name": "stake",
              "type": "bool"
            }
          ],
          "internalType": "struct IMint.VRFStruct",
          "name": "v",
          "type": "tuple"
        },
        {
          "components": [
            {
              "internalType": "bool",
              "name": "isChef",
              "type": "bool"
            },
            {
              "internalType": "uint8",
              "name": "hat",
              "type": "uint8"
            },
            {
              "internalType": "uint8",
              "name": "eyes",
              "type": "uint8"
            },
            {
              "internalType": "uint8",
              "name": "piercing",
              "type": "uint8"
            },
            {
              "internalType": "uint8",
              "name": "mouth",
              "type": "uint8"
            },
            {
              "internalType": "uint8",
              "name": "neck",
              "type": "uint8"
            },
            {
              "internalType": "uint8",
              "name": "hand",
              "type": "uint8"
            },
            {
              "internalType": "uint8",
              "name": "tail",
              "type": "uint8"
            },
            {
              "internalType": "uint8",
              "name": "efficiency",
              "type": "uint8"
            },
            {
              "internalType": "uint8",
              "name": "tolerance",
              "type": "uint8"
            }
          ],
          "internalType": "struct ICharacter.CharacterStruct[]",
          "name": "tokens",
          "type": "tuple[]"
        }
      ],
      "name": "fulfillMint",
      "outputs": [],
      "stateMutability": "nonpayable",
      "type": "function"
    },
    {
      "inputs": [
        {
          "internalType": "uint256",
          "name": "tokenId",
          "type": "uint256"
        },
        {
          "internalType": "int8",
          "name": "efficiencyIncrement",
          "type": "int8"
        },
        {
          "internalType": "int8",
          "name": "toleranceIncrement",
          "type": "int8"
        }
      ],
      "name": "updateCharacter",
      "outputs": [
        {
          "internalType": "uint8",
          "name": "efficiencyValue",
          "type": "uint8"
        },
        {
          "internalType": "uint8",
          "name": "toleranceValue",
          "type": "uint8"
        },
        {
          "internalType": "string",
          "name": "eventName",
          "type": "string"
        }
      ],
      "stateMutability": "nonpayable",
      "type": "function"
    },
    {
      "inputs": [
        {
          "internalType": "uint256",
          "name": "tokenId",
          "type": "uint256"
        }
      ],
      "name": "tokenURI",
      "outputs": [
        {
          "internalType": "string",
          "name": "",
          "type": "string"
        }
      ],
      "stateMutability": "view",
      "type": "function",
      "constant": true
    },
    {
      "inputs": [
        {
          "internalType": "uint256",
          "name": "tokenId",
          "type": "uint256"
        }
      ],
      "name": "getTokenTraits",
      "outputs": [
        {
          "components": [
            {
              "internalType": "bool",
              "name": "isChef",
              "type": "bool"
            },
            {
              "internalType": "uint8",
              "name": "hat",
              "type": "uint8"
            },
            {
              "internalType": "uint8",
              "name": "eyes",
              "type": "uint8"
            },
            {
              "internalType": "uint8",
              "name": "piercing",
              "type": "uint8"
            },
            {
              "internalType": "uint8",
              "name": "mouth",
              "type": "uint8"
            },
            {
              "internalType": "uint8",
              "name": "neck",
              "type": "uint8"
            },
            {
              "internalType": "uint8",
              "name": "hand",
              "type": "uint8"
            },
            {
              "internalType": "uint8",
              "name": "tail",
              "type": "uint8"
            },
            {
              "internalType": "uint8",
              "name": "efficiency",
              "type": "uint8"
            },
            {
              "internalType": "uint8",
              "name": "tolerance",
              "type": "uint8"
            }
          ],
          "internalType": "struct ICharacter.CharacterStruct",
          "name": "",
          "type": "tuple"
        }
      ],
      "stateMutability": "view",
      "type": "function",
      "constant": true
    },
    {
      "inputs": [],
      "name": "getGen0Tokens",
      "outputs": [
        {
          "internalType": "uint256",
          "name": "",
          "type": "uint256"
        }
      ],
      "stateMutability": "view",
      "type": "function",
      "constant": true
    },
    {
      "inputs": [
        {
          "internalType": "address",
          "name": "controller",
          "type": "address"
        }
      ],
      "name": "getController",
      "outputs": [
        {
          "internalType": "bool",
          "name": "",
          "type": "bool"
        }
      ],
      "stateMutability": "view",
      "type": "function",
      "constant": true
    },
    {
      "inputs": [
        {
          "internalType": "address",
          "name": "controller",
          "type": "address"
        }
      ],
      "name": "addController",
      "outputs": [],
      "stateMutability": "nonpayable",
      "type": "function"
    },
    {
      "inputs": [
        {
          "internalType": "address",
          "name": "controller",
          "type": "address"
        }
      ],
      "name": "removeController",
      "outputs": [],
      "stateMutability": "nonpayable",
      "type": "function"
    },
    {
      "inputs": [
        {
          "internalType": "address",
          "name": "_kitchen",
          "type": "address"
        }
      ],
      "name": "setKitchen",
      "outputs": [],
      "stateMutability": "nonpayable",
      "type": "function"
    }
  ],
  "bytecode": "0x608060405234801561001057600080fd5b50615f1380620000216000396000f3fe6080604052600436106102465760003560e01c80637856f94511610139578063ba0909dd116100b6578063e1fc334f1161007a578063e1fc334f146108da578063e831574214610905578063e985e9c514610930578063f2fde38b1461096d578063f6a74ed714610996578063fcd802b1146109bf57610246565b8063ba0909dd146107c2578063c87b56dd146107ed578063d39f8a4d1461082a578063d8ffcfcb14610855578063e05c57bf1461089457610246565b806395d89b41116100fd57806395d89b41146106df578063a1b8f3741461070a578063a22cb46514610747578063a7fc7a0714610770578063b88d4fde1461079957610246565b80637856f945146105e457806388c662aa1461060f5780638da5cb5b1461064c5780639284521c1461067757806394e56847146106a257610246565b806342842e0e116101c7578063612bfba41161018b578063612bfba41461050c5780636352211e146105285780636817c76c1461056557806370a0823114610590578063715018a6146105cd57610246565b806342842e0e1461043b5780634a43d1d3146104645780634f02c4201461048d5780635c975abb146104b85780635eae7959146104e357610246565b806323b872dd1161020e57806323b872dd1461034457806327de8f271461036d57806332de7209146103aa578063337f2847146103e75780633511a5291461041057610246565b806301ffc9a71461024b57806306fdde0314610288578063081812fc146102b35780630917e40d146102f0578063095ea7b31461031b575b600080fd5b34801561025757600080fd5b50610272600480360381019061026d9190613bc9565b6109ea565b60405161027f9190613c11565b60405180910390f35b34801561029457600080fd5b5061029d610acc565b6040516102aa9190613cc5565b60405180910390f35b3480156102bf57600080fd5b506102da60048036038101906102d59190613d1d565b610b5e565b6040516102e79190613d8b565b60405180910390f35b3480156102fc57600080fd5b50610305610be3565b6040516103129190613dc3565b60405180910390f35b34801561032757600080fd5b50610342600480360381019061033d9190613e0a565b610bf7565b005b34801561035057600080fd5b5061036b60048036038101906103669190613e4a565b610d0f565b005b34801561037957600080fd5b50610394600480360381019061038f9190613d1d565b610d6f565b6040516103a19190613eac565b60405180910390f35b3480156103b657600080fd5b506103d160048036038101906103cc9190613efd565b610e2b565b6040516103de9190613dc3565b60405180910390f35b3480156103f357600080fd5b5061040e60048036038101906104099190613f3d565b610e73565b005b34801561041c57600080fd5b50610425610f34565b6040516104329190613eac565b60405180910390f35b34801561044757600080fd5b50610462600480360381019061045d9190613e4a565b610f3a565b005b34801561047057600080fd5b5061048b6004803603810190610486919061428c565b610f5a565b005b34801561049957600080fd5b506104a261145b565b6040516104af9190613dc3565b60405180910390f35b3480156104c457600080fd5b506104cd61146f565b6040516104da9190613c11565b60405180910390f35b3480156104ef57600080fd5b5061050a600480360381019061050591906143ab565b611486565b005b6105266004803603810190610521919061441a565b6117e0565b005b34801561053457600080fd5b5061054f600480360381019061054a9190613d1d565b611d62565b60405161055c9190613d8b565b60405180910390f35b34801561057157600080fd5b5061057a611e14565b6040516105879190613eac565b60405180910390f35b34801561059c57600080fd5b506105b760048036038101906105b29190613f3d565b611e1a565b6040516105c49190613eac565b60405180910390f35b3480156105d957600080fd5b506105e2611ed2565b005b3480156105f057600080fd5b506105f9611f5a565b6040516106069190613eac565b60405180910390f35b34801561061b57600080fd5b5061063660048036038101906106319190613f3d565b611f64565b6040516106439190613c11565b60405180910390f35b34801561065857600080fd5b50610661612037565b60405161066e9190613d8b565b60405180910390f35b34801561068357600080fd5b5061068c612061565b60405161069991906144b9565b60405180910390f35b3480156106ae57600080fd5b506106c960048036038101906106c49190613d1d565b612088565b6040516106d691906145be565b60405180910390f35b3480156106eb57600080fd5b506106f461221e565b6040516107019190613cc5565b60405180910390f35b34801561071657600080fd5b50610731600480360381019061072c9190613d1d565b6122b0565b60405161073e9190613eac565b60405180910390f35b34801561075357600080fd5b5061076e600480360381019061076991906145da565b6122c9565b005b34801561077c57600080fd5b5061079760048036038101906107929190613f3d565b6122df565b005b3480156107a557600080fd5b506107c060048036038101906107bb91906146cf565b6123b7565b005b3480156107ce57600080fd5b506107d7612419565b6040516107e49190614773565b60405180910390f35b3480156107f957600080fd5b50610814600480360381019061080f9190613d1d565b612440565b6040516108219190613cc5565b60405180910390f35b34801561083657600080fd5b5061083f612533565b60405161084c9190613dc3565b60405180910390f35b34801561086157600080fd5b5061087c600480360381019061087791906147c7565b612547565b60405161088b93929190614829565b60405180910390f35b3480156108a057600080fd5b506108bb60048036038101906108b69190613d1d565b612773565b6040516108d19a99989796959493929190614867565b60405180910390f35b3480156108e657600080fd5b506108ef612849565b6040516108fc9190614924565b60405180910390f35b34801561091157600080fd5b5061091a612870565b6040516109279190613eac565b60405180910390f35b34801561093c57600080fd5b506109576004803603810190610952919061493f565b612876565b6040516109649190613c11565b60405180910390f35b34801561097957600080fd5b50610994600480360381019061098f9190613f3d565b61290a565b005b3480156109a257600080fd5b506109bd60048036038101906109b89190613f3d565b612a02565b005b3480156109cb57600080fd5b506109d4612ada565b6040516109e191906149a0565b60405180910390f35b60007f80ac58cd000000000000000000000000000000000000000000000000000000007bffffffffffffffffffffffffffffffffffffffffffffffffffffffff1916827bffffffffffffffffffffffffffffffffffffffffffffffffffffffff19161480610ab557507f5b5e139f000000000000000000000000000000000000000000000000000000007bffffffffffffffffffffffffffffffffffffffffffffffffffffffff1916827bffffffffffffffffffffffffffffffffffffffffffffffffffffffff1916145b80610ac55750610ac482612b01565b5b9050919050565b606060c98054610adb906149ea565b80601f0160208091040260200160405190810160405280929190818152602001828054610b07906149ea565b8015610b545780601f10610b2957610100808354040283529160200191610b54565b820191906000526020600020905b815481529060010190602001808311610b3757829003601f168201915b5050505050905090565b6000610b6982612b6b565b610ba8576040517f08c379a0000000000000000000000000000000000000000000000000000000008152600401610b9f90614a8e565b60405180910390fd5b60cd600083815260200190815260200160002060009054906101000a900473ffffffffffffffffffffffffffffffffffffffff169050919050565b60fb60049054906101000a900461ffff1681565b6000610c0282611d62565b90508073ffffffffffffffffffffffffffffffffffffffff168373ffffffffffffffffffffffffffffffffffffffff161415610c73576040517f08c379a0000000000000000000000000000000000000000000000000000000008152600401610c6a90614b20565b60405180910390fd5b8073ffffffffffffffffffffffffffffffffffffffff16610c92612bd7565b73ffffffffffffffffffffffffffffffffffffffff161480610cc15750610cc081610cbb612bd7565b612876565b5b610d00576040517f08c379a0000000000000000000000000000000000000000000000000000000008152600401610cf790614bb2565b60405180910390fd5b610d0a8383612bdf565b505050565b610d20610d1a612bd7565b82612c98565b610d5f576040517f08c379a0000000000000000000000000000000000000000000000000000000008152600401610d5690614c44565b60405180910390fd5b610d6a838383612d76565b505050565b600060fe548211610d835760009050610e26565b6005600260fd54610d949190614c93565b610d9e9190614d1c565b8211610db557683635c9adc5dea000009050610e26565b6005600360fd54610dc69190614c93565b610dd09190614d1c565b8211610de757685150ae84a8cdf000009050610e26565b6005600460fd54610df89190614c93565b610e029190614d1c565b8211610e1957686c6b935b8bbd4000009050610e26565b68a2a15d09519be0000090505b919050565b6101026020528160005260406000208181548110610e4857600080fd5b9060005260206000209060109182820401919006600202915091509054906101000a900461ffff1681565b610e7b612bd7565b73ffffffffffffffffffffffffffffffffffffffff16610e99612037565b73ffffffffffffffffffffffffffffffffffffffff1614610eef576040517f08c379a0000000000000000000000000000000000000000000000000000000008152600401610ee690614d99565b60405180910390fd5b8061010760006101000a81548173ffffffffffffffffffffffffffffffffffffffff021916908373ffffffffffffffffffffffffffffffffffffffff16021790555050565b60fe5481565b610f55838383604051806020016040528060008152506123b7565b505050565b61010460009054906101000a900473ffffffffffffffffffffffffffffffffffffffff1673ffffffffffffffffffffffffffffffffffffffff163373ffffffffffffffffffffffffffffffffffffffff1614610feb576040517f08c379a0000000000000000000000000000000000000000000000000000000008152600401610fe290614e05565b60405180910390fd5b60006101026000846000015181526020019081526020016000208054905011611049576040517f08c379a000000000000000000000000000000000000000000000000000000000815260040161104090614e71565b60405180910390fd5b60006101026000846000015181526020019081526020016000208054806020026020016040519081016040528092919081815260200182805480156110d557602002820191906000526020600020906000905b82829054906101000a900461ffff1661ffff168152602001906002019060208260010104928301926001038202915080841161109c5790505b5050505050905061010260008460000151815260200190815260200160002060006111009190613978565b60005b81518110156113b65761116b8460600151611122578460200151611147565b61010760009054906101000a900473ffffffffffffffffffffffffffffffffffffffff165b83838151811061115a57611159614e91565b5b602002602001015161ffff16612fd2565b82818151811061117e5761117d614e91565b5b602002602001015160ff600084848151811061119d5761119c614e91565b5b602002602001015161ffff16815260200190815260200160002060008201518160000160006101000a81548160ff02191690831515021790555060208201518160000160016101000a81548160ff021916908360ff16021790555060408201518160000160026101000a81548160ff021916908360ff16021790555060608201518160000160036101000a81548160ff021916908360ff16021790555060808201518160000160046101000a81548160ff021916908360ff16021790555060a08201518160000160056101000a81548160ff021916908360ff16021790555060c08201518160000160066101000a81548160ff021916908360ff16021790555060e08201518160000160076101000a81548160ff021916908360ff1602179055506101008201518160000160086101000a81548160ff021916908360ff1602179055506101208201518160000160096101000a81548160ff021916908360ff16021790555090505082818151811061131857611317614e91565b5b6020026020010151600001516113675760fb600481819054906101000a900461ffff168092919061134890614ec0565b91906101000a81548161ffff021916908361ffff1602179055506113a2565b60fb600281819054906101000a900461ffff168092919061138790614ec0565b91906101000a81548161ffff021916908361ffff1602179055505b5080806113ae90614eeb565b915050611103565b508260600151156114565761010760009054906101000a900473ffffffffffffffffffffffffffffffffffffffff1673ffffffffffffffffffffffffffffffffffffffff1663dbdc1f6b8460200151836040518363ffffffff1660e01b8152600401611423929190614ff2565b600060405180830381600087803b15801561143d57600080fd5b505af1158015611451573d6000803e3d6000fd5b505050505b505050565b60fb60009054906101000a900461ffff1681565b6000606560009054906101000a900460ff16905090565b600060019054906101000a900460ff166114ae5760008054906101000a900460ff16156114b7565b6114b6612ff0565b5b6114f6576040517f08c379a00000000000000000000000000000000000000000000000000000000081526004016114ed90615094565b60405180910390fd5b60008060019054906101000a900460ff161590508015611546576001600060016101000a81548160ff02191690831515021790555060016000806101000a81548160ff0219169083151502179055505b61154e613001565b611556613062565b6115ca6040518060400160405280601381526020017f526174416c6572742043686172616374657273000000000000000000000000008152506040518060400160405280600781526020017f52415443415354000000000000000000000000000000000000000000000000008152506130c3565b836000815181106115de576115dd614e91565b5b602002602001015161010360006101000a81548173ffffffffffffffffffffffffffffffffffffffff021916908373ffffffffffffffffffffffffffffffffffffffff1602179055508360018151811061163b5761163a614e91565b5b602002602001015161010460006101000a81548173ffffffffffffffffffffffffffffffffffffffff021916908373ffffffffffffffffffffffffffffffffffffffff1602179055508360028151811061169857611697614e91565b5b602002602001015161010560006101000a81548173ffffffffffffffffffffffffffffffffffffffff021916908373ffffffffffffffffffffffffffffffffffffffff160217905550836003815181106116f5576116f4614e91565b5b602002602001015161010660006101000a81548173ffffffffffffffffffffffffffffffffffffffff021916908373ffffffffffffffffffffffffffffffffffffffff1602179055508260fd819055506005836117529190614d1c565b60fe819055508160fc81905550600060fb60006101000a81548161ffff021916908361ffff160217905550600060fb60026101000a81548161ffff021916908361ffff160217905550600060fb60046101000a81548161ffff021916908361ffff16021790555080156117da5760008060016101000a81548160ff0219169083151502179055505b50505050565b6117e861146f565b15611828576040517f08c379a000000000000000000000000000000000000000000000000000000000815260040161181f90615100565b60405180910390fd5b611830612bd7565b73ffffffffffffffffffffffffffffffffffffffff163273ffffffffffffffffffffffffffffffffffffffff161461189d576040517f08c379a00000000000000000000000000000000000000000000000000000000081526004016118949061516c565b60405180910390fd5b60008260ff161180156118b45750600a8260ff1611155b6118f3576040517f08c379a00000000000000000000000000000000000000000000000000000000081526004016118ea906151d8565b60405180910390fd5b60fd548260ff1660fb60009054906101000a900461ffff1661191591906151f8565b61ffff16111561195a576040517f08c379a00000000000000000000000000000000000000000000000000000000081526004016119519061527c565b60405180910390fd5b600060fe5460fb60009054906101000a900461ffff1661ffff161015611a385760fe548360ff1660fb60009054906101000a900461ffff1661199c91906151f8565b61ffff1611156119e1576040517f08c379a00000000000000000000000000000000000000000000000000000000081526004016119d89061530e565b60405180910390fd5b3460fc548460ff166119f39190614c93565b14611a33576040517f08c379a0000000000000000000000000000000000000000000000000000000008152600401611a2a9061537a565b60405180910390fd5b611ad6565b60003414611a7b576040517f08c379a0000000000000000000000000000000000000000000000000000000008152600401611a729061540c565b60405180910390fd5b6000600190505b8360ff168111611ad457611ab48160fb60009054906101000a900461ffff1661ffff16611aaf919061542c565b610d6f565b82611abf919061542c565b91508080611acc90614eeb565b915050611a82565b505b6000811115611b775761010360009054906101000a900473ffffffffffffffffffffffffffffffffffffffff1673ffffffffffffffffffffffffffffffffffffffff16639dc29fac611b26612bd7565b836040518363ffffffff1660e01b8152600401611b44929190615482565b600060405180830381600087803b158015611b5e57600080fd5b505af1158015611b72573d6000803e3d6000fd5b505050505b600061010460009054906101000a900473ffffffffffffffffffffffffffffffffffffffff1673ffffffffffffffffffffffffffffffffffffffff1663de864bf9611bc0612bd7565b86866040518463ffffffff1660e01b8152600401611be0939291906154ab565b6020604051808303816000875af1158015611bff573d6000803e3d6000fd5b505050506040513d601f19601f82011682018060405250810190611c2391906154f7565b90508360ff1667ffffffffffffffff811115611c4257611c41613f6f565b5b604051908082528060200260200182016040528015611c705781602001602082028036833780820191505090505b5061010260008381526020019081526020016000209080519060200190611c989291906139a0565b5060005b8460ff16811015611d5b5760fb600081819054906101000a900461ffff1680929190611cc790614ec0565b91906101000a81548161ffff021916908361ffff1602179055505060fb60009054906101000a900461ffff1661010260008481526020019081526020016000208281548110611d1957611d18614e91565b5b90600052602060002090601091828204019190066002026101000a81548161ffff021916908361ffff1602179055508080611d5390614eeb565b915050611c9c565b5050505050565b60008060cb600084815260200190815260200160002060009054906101000a900473ffffffffffffffffffffffffffffffffffffffff169050600073ffffffffffffffffffffffffffffffffffffffff168173ffffffffffffffffffffffffffffffffffffffff161415611e0b576040517f08c379a0000000000000000000000000000000000000000000000000000000008152600401611e0290615596565b60405180910390fd5b80915050919050565b60fc5481565b60008073ffffffffffffffffffffffffffffffffffffffff168273ffffffffffffffffffffffffffffffffffffffff161415611e8b576040517f08c379a0000000000000000000000000000000000000000000000000000000008152600401611e8290615628565b60405180910390fd5b60cc60008373ffffffffffffffffffffffffffffffffffffffff1673ffffffffffffffffffffffffffffffffffffffff168152602001908152602001600020549050919050565b611eda612bd7565b73ffffffffffffffffffffffffffffffffffffffff16611ef8612037565b73ffffffffffffffffffffffffffffffffffffffff1614611f4e576040517f08c379a0000000000000000000000000000000000000000000000000000000008152600401611f4590614d99565b60405180910390fd5b611f586000613130565b565b600060fe54905090565b6000611f6e612bd7565b73ffffffffffffffffffffffffffffffffffffffff16611f8c612037565b73ffffffffffffffffffffffffffffffffffffffff1614611fe2576040517f08c379a0000000000000000000000000000000000000000000000000000000008152600401611fd990614d99565b60405180910390fd5b61010160008373ffffffffffffffffffffffffffffffffffffffff1673ffffffffffffffffffffffffffffffffffffffff16815260200190815260200160002060009054906101000a900460ff169050919050565b6000603360009054906101000a900473ffffffffffffffffffffffffffffffffffffffff16905090565b61010460009054906101000a900473ffffffffffffffffffffffffffffffffffffffff1681565b612090613a4a565b61209982612b6b565b6120d8576040517f08c379a00000000000000000000000000000000000000000000000000000000081526004016120cf906156ba565b60405180910390fd5b60ff6000838152602001908152602001600020604051806101400160405290816000820160009054906101000a900460ff161515151581526020016000820160019054906101000a900460ff1660ff1660ff1681526020016000820160029054906101000a900460ff1660ff1660ff1681526020016000820160039054906101000a900460ff1660ff1660ff1681526020016000820160049054906101000a900460ff1660ff1660ff1681526020016000820160059054906101000a900460ff1660ff1660ff1681526020016000820160069054906101000a900460ff1660ff1660ff1681526020016000820160079054906101000a900460ff1660ff1660ff1681526020016000820160089054906101000a900460ff1660ff1660ff1681526020016000820160099054906101000a900460ff1660ff1660ff16815250509050919050565b606060ca805461222d906149ea565b80601f0160208091040260200160405190810160405280929190818152602001828054612259906149ea565b80156122a65780601f1061227b576101008083540402835291602001916122a6565b820191906000526020600020905b81548152906001019060200180831161228957829003601f168201915b5050505050905090565b6101006020528060005260406000206000915090505481565b6122db6122d4612bd7565b83836131f6565b5050565b6122e7612bd7565b73ffffffffffffffffffffffffffffffffffffffff16612305612037565b73ffffffffffffffffffffffffffffffffffffffff161461235b576040517f08c379a000000000000000000000000000000000000000000000000000000000815260040161235290614d99565b60405180910390fd5b600161010160008373ffffffffffffffffffffffffffffffffffffffff1673ffffffffffffffffffffffffffffffffffffffff16815260200190815260200160002060006101000a81548160ff02191690831515021790555050565b6123c86123c2612bd7565b83612c98565b612407576040517f08c379a00000000000000000000000000000000000000000000000000000000081526004016123fe90614c44565b60405180910390fd5b61241384848484613363565b50505050565b61010760009054906101000a900473ffffffffffffffffffffffffffffffffffffffff1681565b606061244b82612b6b565b61248a576040517f08c379a0000000000000000000000000000000000000000000000000000000008152600401612481906156ba565b60405180910390fd5b61010560009054906101000a900473ffffffffffffffffffffffffffffffffffffffff1673ffffffffffffffffffffffffffffffffffffffff1663c87b56dd836040518263ffffffff1660e01b81526004016124e69190613eac565b600060405180830381865afa158015612503573d6000803e3d6000fd5b505050506040513d6000823e3d601f19601f8201168201806040525081019061252c919061577b565b9050919050565b60fb60029054906101000a900461ffff1681565b600080606061010160003373ffffffffffffffffffffffffffffffffffffffff1673ffffffffffffffffffffffffffffffffffffffff16815260200190815260200160002060009054906101000a900460ff166125d9576040517f08c379a00000000000000000000000000000000000000000000000000000000081526004016125d090615810565b60405180910390fd5b600060ff600088815260200190815260200160002060000160009054906101000a900460ff169050600060ff600089815260200190815260200160002060000160089054906101000a900460ff169050600060ff60008a815260200190815260200160002060000160099054906101000a900460ff16905061010660009054906101000a900473ffffffffffffffffffffffffffffffffffffffff1673ffffffffffffffffffffffffffffffffffffffff1663e90bd2578484848c8c6040518663ffffffff1660e01b81526004016126b595949392919061583f565b6000604051808303816000875af11580156126d4573d6000803e3d6000fd5b505050506040513d6000823e3d601f19601f820116820180604052508101906126fd91906158a7565b8096508197508298505050508560ff60008b815260200190815260200160002060000160086101000a81548160ff021916908360ff1602179055508460ff60008b815260200190815260200160002060000160096101000a81548160ff021916908360ff16021790555050505093509350939050565b60ff6020528060005260406000206000915090508060000160009054906101000a900460ff16908060000160019054906101000a900460ff16908060000160029054906101000a900460ff16908060000160039054906101000a900460ff16908060000160049054906101000a900460ff16908060000160059054906101000a900460ff16908060000160069054906101000a900460ff16908060000160079054906101000a900460ff16908060000160089054906101000a900460ff16908060000160099054906101000a900460ff1690508a565b61010560009054906101000a900473ffffffffffffffffffffffffffffffffffffffff1681565b60fd5481565b600060ce60008473ffffffffffffffffffffffffffffffffffffffff1673ffffffffffffffffffffffffffffffffffffffff16815260200190815260200160002060008373ffffffffffffffffffffffffffffffffffffffff1673ffffffffffffffffffffffffffffffffffffffff16815260200190815260200160002060009054906101000a900460ff16905092915050565b612912612bd7565b73ffffffffffffffffffffffffffffffffffffffff16612930612037565b73ffffffffffffffffffffffffffffffffffffffff1614612986576040517f08c379a000000000000000000000000000000000000000000000000000000000815260040161297d90614d99565b60405180910390fd5b600073ffffffffffffffffffffffffffffffffffffffff168173ffffffffffffffffffffffffffffffffffffffff1614156129f6576040517f08c379a00000000000000000000000000000000000000000000000000000000081526004016129ed90615988565b60405180910390fd5b6129ff81613130565b50565b612a0a612bd7565b73ffffffffffffffffffffffffffffffffffffffff16612a28612037565b73ffffffffffffffffffffffffffffffffffffffff1614612a7e576040517f08c379a0000000000000000000000000000000000000000000000000000000008152600401612a7590614d99565b60405180910390fd5b600061010160008373ffffffffffffffffffffffffffffffffffffffff1673ffffffffffffffffffffffffffffffffffffffff16815260200190815260200160002060006101000a81548160ff02191690831515021790555050565b61010660009054906101000a900473ffffffffffffffffffffffffffffffffffffffff1681565b60007f01ffc9a7000000000000000000000000000000000000000000000000000000007bffffffffffffffffffffffffffffffffffffffffffffffffffffffff1916827bffffffffffffffffffffffffffffffffffffffffffffffffffffffff1916149050919050565b60008073ffffffffffffffffffffffffffffffffffffffff1660cb600084815260200190815260200160002060009054906101000a900473ffffffffffffffffffffffffffffffffffffffff1673ffffffffffffffffffffffffffffffffffffffff1614159050919050565b600033905090565b8160cd600083815260200190815260200160002060006101000a81548173ffffffffffffffffffffffffffffffffffffffff021916908373ffffffffffffffffffffffffffffffffffffffff160217905550808273ffffffffffffffffffffffffffffffffffffffff16612c5283611d62565b73ffffffffffffffffffffffffffffffffffffffff167f8c5be1e5ebec7d5bd14f71427d1e84f3dd0314c0f7b2291e5b200ac8c7c3b92560405160405180910390a45050565b6000612ca382612b6b565b612ce2576040517f08c379a0000000000000000000000000000000000000000000000000000000008152600401612cd990615a1a565b60405180910390fd5b6000612ced83611d62565b90508073ffffffffffffffffffffffffffffffffffffffff168473ffffffffffffffffffffffffffffffffffffffff161480612d5c57508373ffffffffffffffffffffffffffffffffffffffff16612d4484610b5e565b73ffffffffffffffffffffffffffffffffffffffff16145b80612d6d5750612d6c8185612876565b5b91505092915050565b8273ffffffffffffffffffffffffffffffffffffffff16612d9682611d62565b73ffffffffffffffffffffffffffffffffffffffff1614612dec576040517f08c379a0000000000000000000000000000000000000000000000000000000008152600401612de390615aac565b60405180910390fd5b600073ffffffffffffffffffffffffffffffffffffffff168273ffffffffffffffffffffffffffffffffffffffff161415612e5c576040517f08c379a0000000000000000000000000000000000000000000000000000000008152600401612e5390615b3e565b60405180910390fd5b612e678383836133bf565b612e72600082612bdf565b600160cc60008573ffffffffffffffffffffffffffffffffffffffff1673ffffffffffffffffffffffffffffffffffffffff1681526020019081526020016000206000828254612ec29190615b5e565b92505081905550600160cc60008473ffffffffffffffffffffffffffffffffffffffff1673ffffffffffffffffffffffffffffffffffffffff1681526020019081526020016000206000828254612f19919061542c565b925050819055508160cb600083815260200190815260200160002060006101000a81548173ffffffffffffffffffffffffffffffffffffffff021916908373ffffffffffffffffffffffffffffffffffffffff160217905550808273ffffffffffffffffffffffffffffffffffffffff168473ffffffffffffffffffffffffffffffffffffffff167fddf252ad1be2c89b69c2b068fc378daa952ba7f163c4a11628f55a4df523b3ef60405160405180910390a4505050565b612fec8282604051806020016040528060008152506133c4565b5050565b6000612ffb3061341f565b15905090565b600060019054906101000a900460ff16613050576040517f08c379a000000000000000000000000000000000000000000000000000000000815260040161304790615c04565b60405180910390fd5b613058613432565b613060613483565b565b600060019054906101000a900460ff166130b1576040517f08c379a00000000000000000000000000000000000000000000000000000000081526004016130a890615c04565b60405180910390fd5b6130b9613432565b6130c16134e4565b565b600060019054906101000a900460ff16613112576040517f08c379a000000000000000000000000000000000000000000000000000000000815260040161310990615c04565b60405180910390fd5b61311a613432565b613122613550565b61312c82826135a1565b5050565b6000603360009054906101000a900473ffffffffffffffffffffffffffffffffffffffff16905081603360006101000a81548173ffffffffffffffffffffffffffffffffffffffff021916908373ffffffffffffffffffffffffffffffffffffffff1602179055508173ffffffffffffffffffffffffffffffffffffffff168173ffffffffffffffffffffffffffffffffffffffff167f8be0079c531659141344cd1fd0a4f28419497f9722a3daafe3b4186f6b6457e060405160405180910390a35050565b8173ffffffffffffffffffffffffffffffffffffffff168373ffffffffffffffffffffffffffffffffffffffff161415613265576040517f08c379a000000000000000000000000000000000000000000000000000000000815260040161325c90615c70565b60405180910390fd5b8060ce60008573ffffffffffffffffffffffffffffffffffffffff1673ffffffffffffffffffffffffffffffffffffffff16815260200190815260200160002060008473ffffffffffffffffffffffffffffffffffffffff1673ffffffffffffffffffffffffffffffffffffffff16815260200190815260200160002060006101000a81548160ff0219169083151502179055508173ffffffffffffffffffffffffffffffffffffffff168373ffffffffffffffffffffffffffffffffffffffff167f17307eab39ab6107e8899845ad3d59bd9653f200f220920489ca2b5937696c31836040516133569190613c11565b60405180910390a3505050565b61336e848484612d76565b61337a84848484613622565b6133b9576040517f08c379a00000000000000000000000000000000000000000000000000000000081526004016133b090615d02565b60405180910390fd5b50505050565b505050565b6133ce83836137aa565b6133db6000848484613622565b61341a576040517f08c379a000000000000000000000000000000000000000000000000000000000815260040161341190615d02565b60405180910390fd5b505050565b600080823b905060008111915050919050565b600060019054906101000a900460ff16613481576040517f08c379a000000000000000000000000000000000000000000000000000000000815260040161347890615c04565b60405180910390fd5b565b600060019054906101000a900460ff166134d2576040517f08c379a00000000000000000000000000000000000000000000000000000000081526004016134c990615c04565b60405180910390fd5b6134e26134dd612bd7565b613130565b565b600060019054906101000a900460ff16613533576040517f08c379a000000000000000000000000000000000000000000000000000000000815260040161352a90615c04565b60405180910390fd5b6000606560006101000a81548160ff021916908315150217905550565b600060019054906101000a900460ff1661359f576040517f08c379a000000000000000000000000000000000000000000000000000000000815260040161359690615c04565b60405180910390fd5b565b600060019054906101000a900460ff166135f0576040517f08c379a00000000000000000000000000000000000000000000000000000000081526004016135e790615c04565b60405180910390fd5b8160c99080519060200190613606929190613aba565b508060ca908051906020019061361d929190613aba565b505050565b60006136438473ffffffffffffffffffffffffffffffffffffffff1661341f565b1561379d578373ffffffffffffffffffffffffffffffffffffffff1663150b7a0261366c612bd7565b8786866040518563ffffffff1660e01b815260040161368e9493929190615d77565b6020604051808303816000875af19250505080156136ca57506040513d601f19601f820116820180604052508101906136c79190615dd8565b60015b61374d573d80600081146136fa576040519150601f19603f3d011682016040523d82523d6000602084013e6136ff565b606091505b50600081511415613745576040517f08c379a000000000000000000000000000000000000000000000000000000000815260040161373c90615d02565b60405180910390fd5b805181602001fd5b63150b7a0260e01b7bffffffffffffffffffffffffffffffffffffffffffffffffffffffff1916817bffffffffffffffffffffffffffffffffffffffffffffffffffffffff1916149150506137a2565b600190505b949350505050565b600073ffffffffffffffffffffffffffffffffffffffff168273ffffffffffffffffffffffffffffffffffffffff16141561381a576040517f08c379a000000000000000000000000000000000000000000000000000000000815260040161381190615e51565b60405180910390fd5b61382381612b6b565b15613863576040517f08c379a000000000000000000000000000000000000000000000000000000000815260040161385a90615ebd565b60405180910390fd5b61386f600083836133bf565b600160cc60008473ffffffffffffffffffffffffffffffffffffffff1673ffffffffffffffffffffffffffffffffffffffff16815260200190815260200160002060008282546138bf919061542c565b925050819055508160cb600083815260200190815260200160002060006101000a81548173ffffffffffffffffffffffffffffffffffffffff021916908373ffffffffffffffffffffffffffffffffffffffff160217905550808273ffffffffffffffffffffffffffffffffffffffff16600073ffffffffffffffffffffffffffffffffffffffff167fddf252ad1be2c89b69c2b068fc378daa952ba7f163c4a11628f55a4df523b3ef60405160405180910390a45050565b50805460008255600f01601090049060005260206000209081019061399d9190613b40565b50565b82805482825590600052602060002090600f01601090048101928215613a395791602002820160005b83821115613a0957835183826101000a81548161ffff021916908361ffff16021790555092602001926002016020816001010492830192600103026139c9565b8015613a375782816101000a81549061ffff0219169055600201602081600101049283019260010302613a09565b505b509050613a469190613b40565b5090565b604051806101400160405280600015158152602001600060ff168152602001600060ff168152602001600060ff168152602001600060ff168152602001600060ff168152602001600060ff168152602001600060ff168152602001600060ff168152602001600060ff1681525090565b828054613ac6906149ea565b90600052602060002090601f016020900481019282613ae85760008555613b2f565b82601f10613b0157805160ff1916838001178555613b2f565b82800160010185558215613b2f579182015b82811115613b2e578251825591602001919060010190613b13565b5b509050613b3c9190613b40565b5090565b5b80821115613b59576000816000905550600101613b41565b5090565b6000604051905090565b600080fd5b600080fd5b60007fffffffff0000000000000000000000000000000000000000000000000000000082169050919050565b613ba681613b71565b8114613bb157600080fd5b50565b600081359050613bc381613b9d565b92915050565b600060208284031215613bdf57613bde613b67565b5b6000613bed84828501613bb4565b91505092915050565b60008115159050919050565b613c0b81613bf6565b82525050565b6000602082019050613c266000830184613c02565b92915050565b600081519050919050565b600082825260208201905092915050565b60005b83811015613c66578082015181840152602081019050613c4b565b83811115613c75576000848401525b50505050565b6000601f19601f8301169050919050565b6000613c9782613c2c565b613ca18185613c37565b9350613cb1818560208601613c48565b613cba81613c7b565b840191505092915050565b60006020820190508181036000830152613cdf8184613c8c565b905092915050565b6000819050919050565b613cfa81613ce7565b8114613d0557600080fd5b50565b600081359050613d1781613cf1565b92915050565b600060208284031215613d3357613d32613b67565b5b6000613d4184828501613d08565b91505092915050565b600073ffffffffffffffffffffffffffffffffffffffff82169050919050565b6000613d7582613d4a565b9050919050565b613d8581613d6a565b82525050565b6000602082019050613da06000830184613d7c565b92915050565b600061ffff82169050919050565b613dbd81613da6565b82525050565b6000602082019050613dd86000830184613db4565b92915050565b613de781613d6a565b8114613df257600080fd5b50565b600081359050613e0481613dde565b92915050565b60008060408385031215613e2157613e20613b67565b5b6000613e2f85828601613df5565b9250506020613e4085828601613d08565b9150509250929050565b600080600060608486031215613e6357613e62613b67565b5b6000613e7186828701613df5565b9350506020613e8286828701613df5565b9250506040613e9386828701613d08565b9150509250925092565b613ea681613ce7565b82525050565b6000602082019050613ec16000830184613e9d565b92915050565b6000819050919050565b613eda81613ec7565b8114613ee557600080fd5b50565b600081359050613ef781613ed1565b92915050565b60008060408385031215613f1457613f13613b67565b5b6000613f2285828601613ee8565b9250506020613f3385828601613d08565b9150509250929050565b600060208284031215613f5357613f52613b67565b5b6000613f6184828501613df5565b91505092915050565b600080fd5b7f4e487b7100000000000000000000000000000000000000000000000000000000600052604160045260246000fd5b613fa782613c7b565b810181811067ffffffffffffffff82111715613fc657613fc5613f6f565b5b80604052505050565b6000613fd9613b5d565b9050613fe58282613f9e565b919050565b600060ff82169050919050565b61400081613fea565b811461400b57600080fd5b50565b60008135905061401d81613ff7565b92915050565b61402c81613bf6565b811461403757600080fd5b50565b60008135905061404981614023565b92915050565b60006080828403121561406557614064613f6a565b5b61406f6080613fcf565b9050600061407f84828501613ee8565b600083015250602061409384828501613df5565b60208301525060406140a78482850161400e565b60408301525060606140bb8482850161403a565b60608301525092915050565b600080fd5b600067ffffffffffffffff8211156140e7576140e6613f6f565b5b602082029050602081019050919050565b600080fd5b6000610140828403121561411457614113613f6a565b5b61411f610140613fcf565b9050600061412f8482850161403a565b60008301525060206141438482850161400e565b60208301525060406141578482850161400e565b604083015250606061416b8482850161400e565b606083015250608061417f8482850161400e565b60808301525060a06141938482850161400e565b60a08301525060c06141a78482850161400e565b60c08301525060e06141bb8482850161400e565b60e0830152506101006141d08482850161400e565b610100830152506101206141e68482850161400e565b6101208301525092915050565b6000614206614201846140cc565b613fcf565b905080838252602082019050610140840283018581111561422a576142296140f8565b5b835b81811015614254578061423f88826140fd565b8452602084019350506101408101905061422c565b5050509392505050565b600082601f830112614273576142726140c7565b5b81356142838482602086016141f3565b91505092915050565b60008060a083850312156142a3576142a2613b67565b5b60006142b18582860161404f565b925050608083013567ffffffffffffffff8111156142d2576142d1613b6c565b5b6142de8582860161425e565b9150509250929050565b600067ffffffffffffffff82111561430357614302613f6f565b5b602082029050602081019050919050565b6000614327614322846142e8565b613fcf565b9050808382526020820190506020840283018581111561434a576143496140f8565b5b835b81811015614373578061435f8882613df5565b84526020840193505060208101905061434c565b5050509392505050565b600082601f830112614392576143916140c7565b5b81356143a2848260208601614314565b91505092915050565b6000806000606084860312156143c4576143c3613b67565b5b600084013567ffffffffffffffff8111156143e2576143e1613b6c565b5b6143ee8682870161437d565b93505060206143ff86828701613d08565b925050604061441086828701613d08565b9150509250925092565b6000806040838503121561443157614430613b67565b5b600061443f8582860161400e565b92505060206144508582860161403a565b9150509250929050565b6000819050919050565b600061447f61447a61447584613d4a565b61445a565b613d4a565b9050919050565b600061449182614464565b9050919050565b60006144a382614486565b9050919050565b6144b381614498565b82525050565b60006020820190506144ce60008301846144aa565b92915050565b6144dd81613bf6565b82525050565b6144ec81613fea565b82525050565b6101408201600082015161450960008501826144d4565b50602082015161451c60208501826144e3565b50604082015161452f60408501826144e3565b50606082015161454260608501826144e3565b50608082015161455560808501826144e3565b5060a082015161456860a08501826144e3565b5060c082015161457b60c08501826144e3565b5060e082015161458e60e08501826144e3565b506101008201516145a36101008501826144e3565b506101208201516145b86101208501826144e3565b50505050565b6000610140820190506145d460008301846144f2565b92915050565b600080604083850312156145f1576145f0613b67565b5b60006145ff85828601613df5565b92505060206146108582860161403a565b9150509250929050565b600080fd5b600067ffffffffffffffff82111561463a57614639613f6f565b5b61464382613c7b565b9050602081019050919050565b82818337600083830152505050565b600061467261466d8461461f565b613fcf565b90508281526020810184848401111561468e5761468d61461a565b5b614699848285614650565b509392505050565b600082601f8301126146b6576146b56140c7565b5b81356146c684826020860161465f565b91505092915050565b600080600080608085870312156146e9576146e8613b67565b5b60006146f787828801613df5565b945050602061470887828801613df5565b935050604061471987828801613d08565b925050606085013567ffffffffffffffff81111561473a57614739613b6c565b5b614746878288016146a1565b91505092959194509250565b600061475d82614486565b9050919050565b61476d81614752565b82525050565b60006020820190506147886000830184614764565b92915050565b60008160000b9050919050565b6147a48161478e565b81146147af57600080fd5b50565b6000813590506147c18161479b565b92915050565b6000806000606084860312156147e0576147df613b67565b5b60006147ee86828701613d08565b93505060206147ff868287016147b2565b9250506040614810868287016147b2565b9150509250925092565b61482381613fea565b82525050565b600060608201905061483e600083018661481a565b61484b602083018561481a565b818103604083015261485d8184613c8c565b9050949350505050565b60006101408201905061487d600083018d613c02565b61488a602083018c61481a565b614897604083018b61481a565b6148a4606083018a61481a565b6148b1608083018961481a565b6148be60a083018861481a565b6148cb60c083018761481a565b6148d860e083018661481a565b6148e661010083018561481a565b6148f461012083018461481a565b9b9a5050505050505050505050565b600061490e82614486565b9050919050565b61491e81614903565b82525050565b60006020820190506149396000830184614915565b92915050565b6000806040838503121561495657614955613b67565b5b600061496485828601613df5565b925050602061497585828601613df5565b9150509250929050565b600061498a82614486565b9050919050565b61499a8161497f565b82525050565b60006020820190506149b56000830184614991565b92915050565b7f4e487b7100000000000000000000000000000000000000000000000000000000600052602260045260246000fd5b60006002820490506001821680614a0257607f821691505b60208210811415614a1657614a156149bb565b5b50919050565b7f4552433732313a20617070726f76656420717565727920666f72206e6f6e657860008201527f697374656e7420746f6b656e0000000000000000000000000000000000000000602082015250565b6000614a78602c83613c37565b9150614a8382614a1c565b604082019050919050565b60006020820190508181036000830152614aa781614a6b565b9050919050565b7f4552433732313a20617070726f76616c20746f2063757272656e74206f776e6560008201527f7200000000000000000000000000000000000000000000000000000000000000602082015250565b6000614b0a602183613c37565b9150614b1582614aae565b604082019050919050565b60006020820190508181036000830152614b3981614afd565b9050919050565b7f4552433732313a20617070726f76652063616c6c6572206973206e6f74206f7760008201527f6e6572206e6f7220617070726f76656420666f7220616c6c0000000000000000602082015250565b6000614b9c603883613c37565b9150614ba782614b40565b604082019050919050565b60006020820190508181036000830152614bcb81614b8f565b9050919050565b7f4552433732313a207472616e736665722063616c6c6572206973206e6f74206f60008201527f776e6572206e6f7220617070726f766564000000000000000000000000000000602082015250565b6000614c2e603183613c37565b9150614c3982614bd2565b604082019050919050565b60006020820190508181036000830152614c5d81614c21565b9050919050565b7f4e487b7100000000000000000000000000000000000000000000000000000000600052601160045260246000fd5b6000614c9e82613ce7565b9150614ca983613ce7565b9250817fffffffffffffffffffffffffffffffffffffffffffffffffffffffffffffffff0483118215151615614ce257614ce1614c64565b5b828202905092915050565b7f4e487b7100000000000000000000000000000000000000000000000000000000600052601260045260246000fd5b6000614d2782613ce7565b9150614d3283613ce7565b925082614d4257614d41614ced565b5b828204905092915050565b7f4f776e61626c653a2063616c6c6572206973206e6f7420746865206f776e6572600082015250565b6000614d83602083613c37565b9150614d8e82614d4d565b602082019050919050565b60006020820190508181036000830152614db281614d76565b9050919050565b7f4f6e6c7920746865204d696e742063616e2066756c66696c6c00000000000000600082015250565b6000614def601983613c37565b9150614dfa82614db9565b602082019050919050565b60006020820190508181036000830152614e1e81614de2565b9050919050565b7f4d696e742072657175657374206e6f7420666f756e6400000000000000000000600082015250565b6000614e5b601683613c37565b9150614e6682614e25565b602082019050919050565b60006020820190508181036000830152614e8a81614e4e565b9050919050565b7f4e487b7100000000000000000000000000000000000000000000000000000000600052603260045260246000fd5b6000614ecb82613da6565b915061ffff821415614ee057614edf614c64565b5b600182019050919050565b6000614ef682613ce7565b91507fffffffffffffffffffffffffffffffffffffffffffffffffffffffffffffffff821415614f2957614f28614c64565b5b600182019050919050565b600081519050919050565b600082825260208201905092915050565b6000819050602082019050919050565b614f6981613da6565b82525050565b6000614f7b8383614f60565b60208301905092915050565b6000602082019050919050565b6000614f9f82614f34565b614fa98185614f3f565b9350614fb483614f50565b8060005b83811015614fe5578151614fcc8882614f6f565b9750614fd783614f87565b925050600181019050614fb8565b5085935050505092915050565b60006040820190506150076000830185613d7c565b81810360208301526150198184614f94565b90509392505050565b7f496e697469616c697a61626c653a20636f6e747261637420697320616c72656160008201527f647920696e697469616c697a6564000000000000000000000000000000000000602082015250565b600061507e602e83613c37565b915061508982615022565b604082019050919050565b600060208201905081810360008301526150ad81615071565b9050919050565b7f5061757361626c653a2070617573656400000000000000000000000000000000600082015250565b60006150ea601083613c37565b91506150f5826150b4565b602082019050919050565b60006020820190508181036000830152615119816150dd565b9050919050565b7f454f41206f6e6c79000000000000000000000000000000000000000000000000600082015250565b6000615156600883613c37565b915061516182615120565b602082019050919050565b6000602082019050818103600083015261518581615149565b9050919050565b7f496e76616c6964206d696e7420616d6f756e7400000000000000000000000000600082015250565b60006151c2601383613c37565b91506151cd8261518c565b602082019050919050565b600060208201905081810360008301526151f1816151b5565b9050919050565b600061520382613da6565b915061520e83613da6565b92508261ffff0382111561522557615224614c64565b5b828201905092915050565b7f416c6c20746f6b656e73206d696e746564000000000000000000000000000000600082015250565b6000615266601183613c37565b915061527182615230565b602082019050919050565b6000602082019050818103600083015261529581615259565b9050919050565b7f4e6f7420656e6f7567682047656e203020746f6b656e73206c6566742c20726560008201527f6475636520616d6f756e74000000000000000000000000000000000000000000602082015250565b60006152f8602b83613c37565b91506153038261529c565b604082019050919050565b60006020820190508181036000830152615327816152eb565b9050919050565b7f496e76616c6964207061796d656e7420616d6f756e7400000000000000000000600082015250565b6000615364601683613c37565b915061536f8261532e565b602082019050919050565b6000602082019050818103600083015261539381615357565b9050919050565b7f496e76616c6964207061796d656e7420747970652c20616363657074696e672060008201527f666f6f6420746f6b656e73206f6e6c7900000000000000000000000000000000602082015250565b60006153f6603083613c37565b91506154018261539a565b604082019050919050565b60006020820190508181036000830152615425816153e9565b9050919050565b600061543782613ce7565b915061544283613ce7565b9250827fffffffffffffffffffffffffffffffffffffffffffffffffffffffffffffffff0382111561547757615476614c64565b5b828201905092915050565b60006040820190506154976000830185613d7c565b6154a46020830184613e9d565b9392505050565b60006060820190506154c06000830186613d7c565b6154cd602083018561481a565b6154da6040830184613c02565b949350505050565b6000815190506154f181613ed1565b92915050565b60006020828403121561550d5761550c613b67565b5b600061551b848285016154e2565b91505092915050565b7f4552433732313a206f776e657220717565727920666f72206e6f6e657869737460008201527f656e7420746f6b656e0000000000000000000000000000000000000000000000602082015250565b6000615580602983613c37565b915061558b82615524565b604082019050919050565b600060208201905081810360008301526155af81615573565b9050919050565b7f4552433732313a2062616c616e636520717565727920666f7220746865207a6560008201527f726f206164647265737300000000000000000000000000000000000000000000602082015250565b6000615612602a83613c37565b915061561d826155b6565b604082019050919050565b6000602082019050818103600083015261564181615605565b9050919050565b7f4552433732314d657461646174613a2055524920717565727920666f72206e6f60008201527f6e2d6578697374656e7420746f6b656e00000000000000000000000000000000602082015250565b60006156a4603083613c37565b91506156af82615648565b604082019050919050565b600060208201905081810360008301526156d381615697565b9050919050565b600067ffffffffffffffff8211156156f5576156f4613f6f565b5b6156fe82613c7b565b9050602081019050919050565b600061571e615719846156da565b613fcf565b90508281526020810184848401111561573a5761573961461a565b5b615745848285613c48565b509392505050565b600082601f830112615762576157616140c7565b5b815161577284826020860161570b565b91505092915050565b60006020828403121561579157615790613b67565b5b600082015167ffffffffffffffff8111156157af576157ae613b6c565b5b6157bb8482850161574d565b91505092915050565b7f4f6e6c7920636f6e74726f6c6c6572732063616e207570646174650000000000600082015250565b60006157fa601b83613c37565b9150615805826157c4565b602082019050919050565b60006020820190508181036000830152615829816157ed565b9050919050565b6158398161478e565b82525050565b600060a0820190506158546000830188613c02565b615861602083018761481a565b61586e604083018661481a565b61587b6060830185615830565b6158886080830184615830565b9695505050505050565b6000815190506158a181613ff7565b92915050565b6000806000606084860312156158c0576158bf613b67565b5b60006158ce86828701615892565b93505060206158df86828701615892565b925050604084015167ffffffffffffffff811115615900576158ff613b6c565b5b61590c8682870161574d565b9150509250925092565b7f4f776e61626c653a206e6577206f776e657220697320746865207a65726f206160008201527f6464726573730000000000000000000000000000000000000000000000000000602082015250565b6000615972602683613c37565b915061597d82615916565b604082019050919050565b600060208201905081810360008301526159a181615965565b9050919050565b7f4552433732313a206f70657261746f7220717565727920666f72206e6f6e657860008201527f697374656e7420746f6b656e0000000000000000000000000000000000000000602082015250565b6000615a04602c83613c37565b9150615a0f826159a8565b604082019050919050565b60006020820190508181036000830152615a33816159f7565b9050919050565b7f4552433732313a207472616e73666572206f6620746f6b656e2074686174206960008201527f73206e6f74206f776e0000000000000000000000000000000000000000000000602082015250565b6000615a96602983613c37565b9150615aa182615a3a565b604082019050919050565b60006020820190508181036000830152615ac581615a89565b9050919050565b7f4552433732313a207472616e7366657220746f20746865207a65726f2061646460008201527f7265737300000000000000000000000000000000000000000000000000000000602082015250565b6000615b28602483613c37565b9150615b3382615acc565b604082019050919050565b60006020820190508181036000830152615b5781615b1b565b9050919050565b6000615b6982613ce7565b9150615b7483613ce7565b925082821015615b8757615b86614c64565b5b828203905092915050565b7f496e697469616c697a61626c653a20636f6e7472616374206973206e6f74206960008201527f6e697469616c697a696e67000000000000000000000000000000000000000000602082015250565b6000615bee602b83613c37565b9150615bf982615b92565b604082019050919050565b60006020820190508181036000830152615c1d81615be1565b9050919050565b7f4552433732313a20617070726f766520746f2063616c6c657200000000000000600082015250565b6000615c5a601983613c37565b9150615c6582615c24565b602082019050919050565b60006020820190508181036000830152615c8981615c4d565b9050919050565b7f4552433732313a207472616e7366657220746f206e6f6e20455243373231526560008201527f63656976657220696d706c656d656e7465720000000000000000000000000000602082015250565b6000615cec603283613c37565b9150615cf782615c90565b604082019050919050565b60006020820190508181036000830152615d1b81615cdf565b9050919050565b600081519050919050565b600082825260208201905092915050565b6000615d4982615d22565b615d538185615d2d565b9350615d63818560208601613c48565b615d6c81613c7b565b840191505092915050565b6000608082019050615d8c6000830187613d7c565b615d996020830186613d7c565b615da66040830185613e9d565b8181036060830152615db88184615d3e565b905095945050505050565b600081519050615dd281613b9d565b92915050565b600060208284031215615dee57615ded613b67565b5b6000615dfc84828501615dc3565b91505092915050565b7f4552433732313a206d696e7420746f20746865207a65726f2061646472657373600082015250565b6000615e3b602083613c37565b9150615e4682615e05565b602082019050919050565b60006020820190508181036000830152615e6a81615e2e565b9050919050565b7f4552433732313a20746f6b656e20616c7265616479206d696e74656400000000600082015250565b6000615ea7601c83613c37565b9150615eb282615e71565b602082019050919050565b60006020820190508181036000830152615ed681615e9a565b905091905056fea2646970667358221220e2d4bd8b89fd9c751e87133b1a69d983e5fba6e480f6a097c2219c217dac48de64736f6c634300080a0033",
  "immutableReferences": {},
  "source": "// SPDX-License-Identifier: MIT\n\npragma solidity ^0.8.0;\n\nimport \"@openzeppelin/contracts-upgradeable/proxy/utils/Initializable.sol\";\nimport \"@openzeppelin/contracts-upgradeable/access/OwnableUpgradeable.sol\";\nimport \"@openzeppelin/contracts-upgradeable/security/PausableUpgradeable.sol\";\nimport \"@openzeppelin/contracts-upgradeable/token/ERC721/ERC721Upgradeable.sol\";\nimport \"./ICharacter.sol\";\nimport \"./FastFood.sol\";\nimport \"./IMint.sol\";\nimport \"./ITraits.sol\";\nimport \"./IProperties.sol\";\nimport \"./IVenue.sol\";\n\ncontract Character is ICharacter, Initializable, OwnableUpgradeable, PausableUpgradeable, ERC721Upgradeable {\n  uint16 public minted;\n  uint16 public numChefs;\n  uint16 public numRats;\n  uint256 public mintPrice;\n  uint256 public maxTokens; // Max number of tokens that can be minted - 50000 in production\n  uint256 public gen0Tokens; // Number of tokens that can be claimed for free - 20% of maxTokens\n\n  mapping(uint256 => CharacterStruct) public tokenTraits; // Mapping from tokenId to a struct containing the token's traits\n  mapping(uint256 => uint256) public existingCombinations; // Mapping from hashed(tokenTrait) to the tokenId it's associated with, used to ensure there are no duplicates\n  mapping(address => bool) controllers; // Mapping from an address to whether or not it can mint / burn\n  mapping(bytes32 => uint16[]) public mintRequests;\n\n  FastFood fastFood; // Reference to the $FFOOD contract\n  IMint public theMint; // Reference to Mint\n  ITraits public traits; // Reference to Traits\n  IProperties public properties; // Reference to Properties\n  IVenue public kitchen;\n\n  function initialize(\n    address[] memory _addresses, // fastFood, mint, traits, properties\n    uint256 _maxTokens,\n    uint256 _mintPrice\n  ) external initializer {\n    __Ownable_init();\n    __Pausable_init();\n    __ERC721_init(\"RatAlert Characters\", \"RATCAST\");\n\n    fastFood = FastFood(_addresses[0]);\n    theMint = IMint(_addresses[1]);\n    traits = ITraits(_addresses[2]);\n    properties = IProperties(_addresses[3]);\n    maxTokens = _maxTokens;\n    gen0Tokens = _maxTokens / 5;\n    mintPrice = _mintPrice;\n    minted = 0;\n    numChefs = 0;\n    numRats = 0;\n  }\n\n  /**\n   * Mints a new ERC721 token: 90% chefs, 10% rats\n   * The first 20% are free to claim, the remaining cost $FFOOD\n   * @param amount Number of tokens to mint\n   */\n  function mint(uint8 amount, bool stake) external payable whenNotPaused {\n    require(tx.origin == _msgSender(), \"EOA only\");\n    require(amount > 0 && amount <= 10, \"Invalid mint amount\");\n    require(minted + amount <= maxTokens, \"All tokens minted\");\n    uint256 totalCost = 0;\n    if (minted < gen0Tokens) {\n      require(minted + amount <= gen0Tokens, \"Not enough Gen 0 tokens left, reduce amount\");\n      require(amount * mintPrice == msg.value, \"Invalid payment amount\");\n    } else {\n      require(msg.value == 0, \"Invalid payment type, accepting food tokens only\");\n      for (uint i = 1; i <= amount; i++) {\n        totalCost += mintCost(minted + i);\n      }\n    }\n    if (totalCost > 0) fastFood.burn(_msgSender(), totalCost);\n    bytes32 requestId = theMint.requestRandomNumber(_msgSender(), amount, stake);\n    mintRequests[requestId] = new uint16[](amount);\n    for (uint i = 0; i < amount; i++) {\n      minted++;\n      mintRequests[requestId][i] = minted;\n    }\n  }\n\n  /**\n   *     1 - 10000: cost ETH\n   * 10001 - 20000: 1000 $FFOOD\n   * 20001 - 30000: 1500 $FFOOD\n   * 30001 - 40000: 2000 $FFOOD\n   * 40001 - 50000: 3000 $FFOOD\n   * @param tokenId - The token ID to check\n   * @return The minting cost of the given ID\n   */\n  function mintCost(uint256 tokenId) public view returns (uint256) {\n    if (tokenId <= gen0Tokens) return 0;\n    if (tokenId <= maxTokens * 2 / 5) return 1000 ether;\n    if (tokenId <= maxTokens * 3 / 5) return 1500 ether;\n    if (tokenId <= maxTokens * 4 / 5) return 2000 ether;\n    return 3000 ether;\n  }\n\n  function fulfillMint(IMint.VRFStruct memory v, CharacterStruct[] memory tokens) external {\n    require(msg.sender == address(theMint), \"Only the Mint can fulfill\");\n    require(mintRequests[v.requestId].length > 0, \"Mint request not found\");\n    uint16[] memory tokenIds = mintRequests[v.requestId];\n    delete mintRequests[v.requestId];\n    for (uint i = 0; i < tokenIds.length; i++) {\n      _safeMint(v.stake ? address(kitchen) : v.sender, tokenIds[i]);\n      tokenTraits[tokenIds[i]] = tokens[i];\n      tokens[i].isChef ? numChefs++ : numRats++;\n    }\n    if (v.stake) kitchen.stakeMany(v.sender, tokenIds);\n  }\n\n  function updateCharacter(uint256 tokenId, int8 efficiencyIncrement, int8 toleranceIncrement) public returns(uint8 efficiencyValue, uint8 toleranceValue, string memory eventName) {\n    require(controllers[msg.sender], \"Only controllers can update\");\n    bool isChef = tokenTraits[tokenId].isChef;\n    uint8 currentEfficiency = tokenTraits[tokenId].efficiency;\n    uint8 currentTolerance = tokenTraits[tokenId].tolerance;\n    (efficiencyValue, toleranceValue, eventName) = properties.getEventUpdates(isChef, currentEfficiency, currentTolerance, efficiencyIncrement, toleranceIncrement);\n    tokenTraits[tokenId].efficiency = efficiencyValue;\n    tokenTraits[tokenId].tolerance = toleranceValue;\n  }\n\n  function tokenURI(uint256 tokenId) public view override returns (string memory) {\n    require(_exists(tokenId), \"ERC721Metadata: URI query for non-existent token\");\n    return traits.tokenURI(tokenId);\n  }\n\n  function getTokenTraits(uint256 tokenId) external view override returns (CharacterStruct memory) {\n    require(_exists(tokenId), \"ERC721Metadata: URI query for non-existent token\");\n    return tokenTraits[tokenId];\n  }\n\n  function getGen0Tokens() external view override returns (uint256) {\n    return gen0Tokens;\n  }\n\n  /**\n   * Gets controller status by address\n   * @param controller the address to check\n   */\n  function getController(address controller) external view onlyOwner returns (bool) {\n    return controllers[controller];\n  }\n\n  /**\n   * Enables an address to mint / burn\n   * @param controller the address to enable\n   */\n  function addController(address controller) external onlyOwner {\n    controllers[controller] = true;\n  }\n\n  /**\n   * Disables an address from minting / burning\n   * @param controller the address to disable\n   */\n  function removeController(address controller) external onlyOwner {\n    controllers[controller] = false;\n  }\n\n  /**\n   * Sets the kitchen address to optionally stake newly minted characters in\n   * @param _kitchen - The address of the Kitchen\n   */\n  function setKitchen(address _kitchen) external onlyOwner {\n    kitchen = IVenue(_kitchen);\n  }\n}\n",
  "sourcePath": "/Users/chris/workspace/ratalert/ratalert-contracts/contracts/Character.sol",
  "compiler": {
    "name": "solc",
    "version": "0.8.10+commit.fc410830.Emscripten.clang"
  },
  "schemaVersion": "3.4.5",
  "updatedAt": "2022-03-02T16:22:59.625Z",
  "networkType": "ethereum",
  "devdoc": {
    "kind": "dev",
    "methods": {
      "addController(address)": {
        "params": {
          "controller": "the address to enable"
        }
      },
      "approve(address,uint256)": {
        "details": "See {IERC721-approve}."
      },
      "balanceOf(address)": {
        "details": "See {IERC721-balanceOf}."
      },
      "getApproved(uint256)": {
        "details": "See {IERC721-getApproved}."
      },
      "getController(address)": {
        "params": {
          "controller": "the address to check"
        }
      },
      "isApprovedForAll(address,address)": {
        "details": "See {IERC721-isApprovedForAll}."
      },
      "mint(uint8,bool)": {
        "params": {
          "amount": "Number of tokens to mint"
        }
      },
      "mintCost(uint256)": {
        "params": {
          "tokenId": "- The token ID to check"
        },
        "returns": {
          "_0": "The minting cost of the given ID"
        }
      },
      "name()": {
        "details": "See {IERC721Metadata-name}."
      },
      "owner()": {
        "details": "Returns the address of the current owner."
      },
      "ownerOf(uint256)": {
        "details": "See {IERC721-ownerOf}."
      },
      "paused()": {
        "details": "Returns true if the contract is paused, and false otherwise."
      },
      "removeController(address)": {
        "params": {
          "controller": "the address to disable"
        }
      },
      "renounceOwnership()": {
        "details": "Leaves the contract without owner. It will not be possible to call `onlyOwner` functions anymore. Can only be called by the current owner. NOTE: Renouncing ownership will leave the contract without an owner, thereby removing any functionality that is only available to the owner."
      },
      "safeTransferFrom(address,address,uint256)": {
        "details": "See {IERC721-safeTransferFrom}."
      },
      "safeTransferFrom(address,address,uint256,bytes)": {
        "details": "See {IERC721-safeTransferFrom}."
      },
      "setApprovalForAll(address,bool)": {
        "details": "See {IERC721-setApprovalForAll}."
      },
      "setKitchen(address)": {
        "params": {
          "_kitchen": "- The address of the Kitchen"
        }
      },
      "supportsInterface(bytes4)": {
        "details": "See {IERC165-supportsInterface}."
      },
      "symbol()": {
        "details": "See {IERC721Metadata-symbol}."
      },
      "tokenURI(uint256)": {
        "details": "See {IERC721Metadata-tokenURI}."
      },
      "transferFrom(address,address,uint256)": {
        "details": "See {IERC721-transferFrom}."
      },
      "transferOwnership(address)": {
        "details": "Transfers ownership of the contract to a new account (`newOwner`). Can only be called by the current owner."
      }
    },
    "version": 1
  },
  "userdoc": {
    "kind": "user",
    "methods": {
      "addController(address)": {
        "notice": "Enables an address to mint / burn"
      },
      "getController(address)": {
        "notice": "Gets controller status by address"
      },
      "mint(uint8,bool)": {
        "notice": "Mints a new ERC721 token: 90% chefs, 10% rats The first 20% are free to claim, the remaining cost $FFOOD"
      },
      "mintCost(uint256)": {
        "notice": "1 - 10000: cost ETH 10001 - 20000: 1000 $FFOOD 20001 - 30000: 1500 $FFOOD 30001 - 40000: 2000 $FFOOD 40001 - 50000: 3000 $FFOOD"
      },
      "removeController(address)": {
        "notice": "Disables an address from minting / burning"
      },
      "setKitchen(address)": {
        "notice": "Sets the kitchen address to optionally stake newly minted characters in"
      }
    },
    "version": 1
  }
}