{
  "contractName": "Character",
  "abi": [
    {
      "anonymous": false,
      "inputs": [
        {
          "indexed": true,
          "internalType": "address",
          "name": "owner",
          "type": "address"
        },
        {
          "indexed": true,
          "internalType": "address",
          "name": "approved",
          "type": "address"
        },
        {
          "indexed": true,
          "internalType": "uint256",
          "name": "tokenId",
          "type": "uint256"
        }
      ],
      "name": "Approval",
      "type": "event"
    },
    {
      "anonymous": false,
      "inputs": [
        {
          "indexed": true,
          "internalType": "address",
          "name": "owner",
          "type": "address"
        },
        {
          "indexed": true,
          "internalType": "address",
          "name": "operator",
          "type": "address"
        },
        {
          "indexed": false,
          "internalType": "bool",
          "name": "approved",
          "type": "bool"
        }
      ],
      "name": "ApprovalForAll",
      "type": "event"
    },
    {
      "anonymous": false,
      "inputs": [
        {
          "indexed": true,
          "internalType": "address",
          "name": "previousOwner",
          "type": "address"
        },
        {
          "indexed": true,
          "internalType": "address",
          "name": "newOwner",
          "type": "address"
        }
      ],
      "name": "OwnershipTransferred",
      "type": "event"
    },
    {
      "anonymous": false,
      "inputs": [
        {
          "indexed": false,
          "internalType": "address",
          "name": "account",
          "type": "address"
        }
      ],
      "name": "Paused",
      "type": "event"
    },
    {
      "anonymous": false,
      "inputs": [
        {
          "indexed": true,
          "internalType": "address",
          "name": "from",
          "type": "address"
        },
        {
          "indexed": true,
          "internalType": "address",
          "name": "to",
          "type": "address"
        },
        {
          "indexed": true,
          "internalType": "uint256",
          "name": "tokenId",
          "type": "uint256"
        }
      ],
      "name": "Transfer",
      "type": "event"
    },
    {
      "anonymous": false,
      "inputs": [
        {
          "indexed": false,
          "internalType": "address",
          "name": "account",
          "type": "address"
        }
      ],
      "name": "Unpaused",
      "type": "event"
    },
    {
      "inputs": [
        {
          "internalType": "address",
          "name": "_controller",
          "type": "address"
        }
      ],
      "name": "addController",
      "outputs": [],
      "stateMutability": "nonpayable",
      "type": "function"
    },
    {
      "inputs": [
        {
          "internalType": "address",
          "name": "to",
          "type": "address"
        },
        {
          "internalType": "uint256",
          "name": "tokenId",
          "type": "uint256"
        }
      ],
      "name": "approve",
      "outputs": [],
      "stateMutability": "nonpayable",
      "type": "function"
    },
    {
      "inputs": [
        {
          "internalType": "address",
          "name": "owner",
          "type": "address"
        }
      ],
      "name": "balanceOf",
      "outputs": [
        {
          "internalType": "uint256",
          "name": "",
          "type": "uint256"
        }
      ],
      "stateMutability": "view",
      "type": "function",
      "constant": true
    },
    {
      "inputs": [
        {
          "internalType": "address",
          "name": "_controller",
          "type": "address"
        }
      ],
      "name": "controller",
      "outputs": [
        {
          "internalType": "bool",
          "name": "",
          "type": "bool"
        }
      ],
      "stateMutability": "view",
      "type": "function",
      "constant": true
    },
    {
      "inputs": [
        {
          "internalType": "uint256",
          "name": "tokenId",
          "type": "uint256"
        }
      ],
      "name": "getApproved",
      "outputs": [
        {
          "internalType": "address",
          "name": "",
          "type": "address"
        }
      ],
      "stateMutability": "view",
      "type": "function",
      "constant": true
    },
    {
      "inputs": [
        {
          "internalType": "address",
          "name": "owner",
          "type": "address"
        },
        {
          "internalType": "address",
          "name": "operator",
          "type": "address"
        }
      ],
      "name": "isApprovedForAll",
      "outputs": [
        {
          "internalType": "bool",
          "name": "",
          "type": "bool"
        }
      ],
      "stateMutability": "view",
      "type": "function",
      "constant": true
    },
    {
      "inputs": [],
      "name": "kitchen",
      "outputs": [
        {
          "internalType": "contract IVenue",
          "name": "",
          "type": "address"
        }
      ],
      "stateMutability": "view",
      "type": "function",
      "constant": true
    },
    {
      "inputs": [],
      "name": "maxTokens",
      "outputs": [
        {
          "internalType": "uint256",
          "name": "",
          "type": "uint256"
        }
      ],
      "stateMutability": "view",
      "type": "function",
      "constant": true
    },
    {
      "inputs": [
        {
          "internalType": "bytes32",
          "name": "",
          "type": "bytes32"
        },
        {
          "internalType": "uint256",
          "name": "",
          "type": "uint256"
        }
      ],
      "name": "mintRequests",
      "outputs": [
        {
          "internalType": "uint16",
          "name": "",
          "type": "uint16"
        }
      ],
      "stateMutability": "view",
      "type": "function",
      "constant": true
    },
    {
      "inputs": [],
      "name": "minted",
      "outputs": [
        {
          "internalType": "uint16",
          "name": "",
          "type": "uint16"
        }
      ],
      "stateMutability": "view",
      "type": "function",
      "constant": true
    },
    {
      "inputs": [],
      "name": "name",
      "outputs": [
        {
          "internalType": "string",
          "name": "",
          "type": "string"
        }
      ],
      "stateMutability": "view",
      "type": "function",
      "constant": true
    },
    {
      "inputs": [],
      "name": "numChefs",
      "outputs": [
        {
          "internalType": "uint16",
          "name": "",
          "type": "uint16"
        }
      ],
      "stateMutability": "view",
      "type": "function",
      "constant": true
    },
    {
      "inputs": [],
      "name": "numRats",
      "outputs": [
        {
          "internalType": "uint16",
          "name": "",
          "type": "uint16"
        }
      ],
      "stateMutability": "view",
      "type": "function",
      "constant": true
    },
    {
      "inputs": [],
      "name": "owner",
      "outputs": [
        {
          "internalType": "address",
          "name": "",
          "type": "address"
        }
      ],
      "stateMutability": "view",
      "type": "function",
      "constant": true
    },
    {
      "inputs": [
        {
          "internalType": "uint256",
          "name": "tokenId",
          "type": "uint256"
        }
      ],
      "name": "ownerOf",
      "outputs": [
        {
          "internalType": "address",
          "name": "",
          "type": "address"
        }
      ],
      "stateMutability": "view",
      "type": "function",
      "constant": true
    },
    {
      "inputs": [],
      "name": "paused",
      "outputs": [
        {
          "internalType": "bool",
          "name": "",
          "type": "bool"
        }
      ],
      "stateMutability": "view",
      "type": "function",
      "constant": true
    },
    {
      "inputs": [],
      "name": "paywall",
      "outputs": [
        {
          "internalType": "contract IPaywall",
          "name": "",
          "type": "address"
        }
      ],
      "stateMutability": "view",
      "type": "function",
      "constant": true
    },
    {
      "inputs": [],
      "name": "properties",
      "outputs": [
        {
          "internalType": "contract IProperties",
          "name": "",
          "type": "address"
        }
      ],
      "stateMutability": "view",
      "type": "function",
      "constant": true
    },
    {
      "inputs": [
        {
          "internalType": "address",
          "name": "_controller",
          "type": "address"
        }
      ],
      "name": "removeController",
      "outputs": [],
      "stateMutability": "nonpayable",
      "type": "function"
    },
    {
      "inputs": [],
      "name": "renounceOwnership",
      "outputs": [],
      "stateMutability": "nonpayable",
      "type": "function"
    },
    {
      "inputs": [
        {
          "internalType": "address",
          "name": "from",
          "type": "address"
        },
        {
          "internalType": "address",
          "name": "to",
          "type": "address"
        },
        {
          "internalType": "uint256",
          "name": "tokenId",
          "type": "uint256"
        }
      ],
      "name": "safeTransferFrom",
      "outputs": [],
      "stateMutability": "nonpayable",
      "type": "function"
    },
    {
      "inputs": [
        {
          "internalType": "address",
          "name": "from",
          "type": "address"
        },
        {
          "internalType": "address",
          "name": "to",
          "type": "address"
        },
        {
          "internalType": "uint256",
          "name": "tokenId",
          "type": "uint256"
        },
        {
          "internalType": "bytes",
          "name": "_data",
          "type": "bytes"
        }
      ],
      "name": "safeTransferFrom",
      "outputs": [],
      "stateMutability": "nonpayable",
      "type": "function"
    },
    {
      "inputs": [
        {
          "internalType": "address",
          "name": "operator",
          "type": "address"
        },
        {
          "internalType": "bool",
          "name": "approved",
          "type": "bool"
        }
      ],
      "name": "setApprovalForAll",
      "outputs": [],
      "stateMutability": "nonpayable",
      "type": "function"
    },
    {
      "inputs": [
        {
          "internalType": "bytes4",
          "name": "interfaceId",
          "type": "bytes4"
        }
      ],
      "name": "supportsInterface",
      "outputs": [
        {
          "internalType": "bool",
          "name": "",
          "type": "bool"
        }
      ],
      "stateMutability": "view",
      "type": "function",
      "constant": true
    },
    {
      "inputs": [],
      "name": "symbol",
      "outputs": [
        {
          "internalType": "string",
          "name": "",
          "type": "string"
        }
      ],
      "stateMutability": "view",
      "type": "function",
      "constant": true
    },
    {
      "inputs": [],
      "name": "theMint",
      "outputs": [
        {
          "internalType": "contract IMint",
          "name": "",
          "type": "address"
        }
      ],
      "stateMutability": "view",
      "type": "function",
      "constant": true
    },
    {
      "inputs": [
        {
          "internalType": "uint256",
          "name": "",
          "type": "uint256"
        }
      ],
      "name": "tokenTraits",
      "outputs": [
        {
          "internalType": "bool",
          "name": "isChef",
          "type": "bool"
        },
        {
          "internalType": "uint8",
          "name": "hat",
          "type": "uint8"
        },
        {
          "internalType": "uint8",
          "name": "eyes",
          "type": "uint8"
        },
        {
          "internalType": "uint8",
          "name": "piercing",
          "type": "uint8"
        },
        {
          "internalType": "uint8",
          "name": "mouth",
          "type": "uint8"
        },
        {
          "internalType": "uint8",
          "name": "neck",
          "type": "uint8"
        },
        {
          "internalType": "uint8",
          "name": "hand",
          "type": "uint8"
        },
        {
          "internalType": "uint8",
          "name": "tail",
          "type": "uint8"
        },
        {
          "internalType": "uint8",
          "name": "efficiency",
          "type": "uint8"
        },
        {
          "internalType": "uint8",
          "name": "tolerance",
          "type": "uint8"
        }
      ],
      "stateMutability": "view",
      "type": "function",
      "constant": true
    },
    {
      "inputs": [],
      "name": "traits",
      "outputs": [
        {
          "internalType": "contract ITraits",
          "name": "",
          "type": "address"
        }
      ],
      "stateMutability": "view",
      "type": "function",
      "constant": true
    },
    {
      "inputs": [
        {
          "internalType": "address",
          "name": "from",
          "type": "address"
        },
        {
          "internalType": "address",
          "name": "to",
          "type": "address"
        },
        {
          "internalType": "uint256",
          "name": "tokenId",
          "type": "uint256"
        }
      ],
      "name": "transferFrom",
      "outputs": [],
      "stateMutability": "nonpayable",
      "type": "function"
    },
    {
      "inputs": [
        {
          "internalType": "address",
          "name": "newOwner",
          "type": "address"
        }
      ],
      "name": "transferOwnership",
      "outputs": [],
      "stateMutability": "nonpayable",
      "type": "function"
    },
    {
      "inputs": [
        {
          "internalType": "address[]",
          "name": "_addresses",
          "type": "address[]"
        },
        {
          "internalType": "uint256",
          "name": "_maxTokens",
          "type": "uint256"
        }
      ],
      "name": "initialize",
      "outputs": [],
      "stateMutability": "nonpayable",
      "type": "function"
    },
    {
      "inputs": [
        {
          "internalType": "uint8",
          "name": "amount",
          "type": "uint8"
        },
        {
          "internalType": "bool",
          "name": "stake",
          "type": "bool"
        }
      ],
      "name": "mint",
      "outputs": [],
      "stateMutability": "payable",
      "type": "function",
      "payable": true
    },
    {
      "inputs": [
        {
          "components": [
            {
              "internalType": "bytes32",
              "name": "requestId",
              "type": "bytes32"
            },
            {
              "internalType": "address",
              "name": "sender",
              "type": "address"
            },
            {
              "internalType": "uint8",
              "name": "amount",
              "type": "uint8"
            },
            {
              "internalType": "bool",
              "name": "stake",
              "type": "bool"
            }
          ],
          "internalType": "struct IMint.VRFStruct",
          "name": "v",
          "type": "tuple"
        },
        {
          "components": [
            {
              "internalType": "bool",
              "name": "isChef",
              "type": "bool"
            },
            {
              "internalType": "uint8",
              "name": "hat",
              "type": "uint8"
            },
            {
              "internalType": "uint8",
              "name": "eyes",
              "type": "uint8"
            },
            {
              "internalType": "uint8",
              "name": "piercing",
              "type": "uint8"
            },
            {
              "internalType": "uint8",
              "name": "mouth",
              "type": "uint8"
            },
            {
              "internalType": "uint8",
              "name": "neck",
              "type": "uint8"
            },
            {
              "internalType": "uint8",
              "name": "hand",
              "type": "uint8"
            },
            {
              "internalType": "uint8",
              "name": "tail",
              "type": "uint8"
            },
            {
              "internalType": "uint8",
              "name": "efficiency",
              "type": "uint8"
            },
            {
              "internalType": "uint8",
              "name": "tolerance",
              "type": "uint8"
            }
          ],
          "internalType": "struct ICharacter.CharacterStruct[]",
          "name": "tokens",
          "type": "tuple[]"
        }
      ],
      "name": "fulfillMint",
      "outputs": [],
      "stateMutability": "nonpayable",
      "type": "function"
    },
    {
      "inputs": [
        {
          "internalType": "uint256",
          "name": "tokenId",
          "type": "uint256"
        },
        {
          "internalType": "int8",
          "name": "efficiencyIncrement",
          "type": "int8"
        },
        {
          "internalType": "int8",
          "name": "toleranceIncrement",
          "type": "int8"
        },
        {
          "internalType": "uint256",
          "name": "randomVal",
          "type": "uint256"
        }
      ],
      "name": "updateCharacter",
      "outputs": [
        {
          "internalType": "uint8",
          "name": "efficiencyValue",
          "type": "uint8"
        },
        {
          "internalType": "uint8",
          "name": "toleranceValue",
          "type": "uint8"
        },
        {
          "internalType": "string",
          "name": "eventName",
          "type": "string"
        }
      ],
      "stateMutability": "nonpayable",
      "type": "function"
    },
    {
      "inputs": [
        {
          "internalType": "uint256",
          "name": "tokenId",
          "type": "uint256"
        }
      ],
      "name": "tokenURI",
      "outputs": [
        {
          "internalType": "string",
          "name": "",
          "type": "string"
        }
      ],
      "stateMutability": "view",
      "type": "function",
      "constant": true
    },
    {
      "inputs": [
        {
          "internalType": "uint256",
          "name": "tokenId",
          "type": "uint256"
        }
      ],
      "name": "getTokenTraits",
      "outputs": [
        {
          "components": [
            {
              "internalType": "bool",
              "name": "isChef",
              "type": "bool"
            },
            {
              "internalType": "uint8",
              "name": "hat",
              "type": "uint8"
            },
            {
              "internalType": "uint8",
              "name": "eyes",
              "type": "uint8"
            },
            {
              "internalType": "uint8",
              "name": "piercing",
              "type": "uint8"
            },
            {
              "internalType": "uint8",
              "name": "mouth",
              "type": "uint8"
            },
            {
              "internalType": "uint8",
              "name": "neck",
              "type": "uint8"
            },
            {
              "internalType": "uint8",
              "name": "hand",
              "type": "uint8"
            },
            {
              "internalType": "uint8",
              "name": "tail",
              "type": "uint8"
            },
            {
              "internalType": "uint8",
              "name": "efficiency",
              "type": "uint8"
            },
            {
              "internalType": "uint8",
              "name": "tolerance",
              "type": "uint8"
            }
          ],
          "internalType": "struct ICharacter.CharacterStruct",
          "name": "",
          "type": "tuple"
        }
      ],
      "stateMutability": "view",
      "type": "function",
      "constant": true
    },
    {
      "inputs": [],
      "name": "getGen0Tokens",
      "outputs": [
        {
          "internalType": "uint256",
          "name": "",
          "type": "uint256"
        }
      ],
      "stateMutability": "view",
      "type": "function",
      "constant": true
    },
    {
      "inputs": [
        {
          "internalType": "address",
          "name": "_kitchen",
          "type": "address"
        }
      ],
      "name": "setKitchen",
      "outputs": [],
      "stateMutability": "nonpayable",
      "type": "function"
    }
  ],
  "bytecode": "0x608060405234801561001057600080fd5b506158eb80620000216000396000f3fe6080604052600436106102255760003560e01c80637856f94511610123578063c13aa7b5116100ab578063e83157421161006f578063e83157421461083f578063e985e9c51461086a578063f2fde38b146108a7578063f6a74ed7146108d0578063fcd802b1146108f957610225565b8063c13aa7b514610729578063c87b56dd14610766578063d39f8a4d146107a3578063e05c57bf146107ce578063e1fc334f1461081457610225565b806395d89b41116100f257806395d89b4114610658578063a22cb46514610683578063a7fc7a07146106ac578063b88d4fde146106d5578063ba0909dd146106fe57610225565b80637856f9451461059a5780638da5cb5b146105c55780639284521c146105f057806394e568471461061b57610225565b80634a43d1d3116101b1578063612bfba411610175578063612bfba4146104ae5780636352211e146104ca57806363dbfc771461050757806370a0823114610546578063715018a61461058357610225565b80634a43d1d3146103db5780634f02c42014610404578063506b17611461042f5780635c975abb1461045a57806360b5bb3f1461048557610225565b8063095ea7b3116101f8578063095ea7b3146102fa57806323b872dd1461032357806332de72091461034c578063337f28471461038957806342842e0e146103b257610225565b806301ffc9a71461022a57806306fdde0314610267578063081812fc146102925780630917e40d146102cf575b600080fd5b34801561023657600080fd5b50610251600480360381019061024c9190613818565b610924565b60405161025e9190613860565b60405180910390f35b34801561027357600080fd5b5061027c610a06565b6040516102899190613914565b60405180910390f35b34801561029e57600080fd5b506102b960048036038101906102b4919061396c565b610a98565b6040516102c691906139da565b60405180910390f35b3480156102db57600080fd5b506102e4610b1d565b6040516102f19190613a12565b60405180910390f35b34801561030657600080fd5b50610321600480360381019061031c9190613a59565b610b31565b005b34801561032f57600080fd5b5061034a60048036038101906103459190613a99565b610c49565b005b34801561035857600080fd5b50610373600480360381019061036e9190613b22565b610ca9565b6040516103809190613a12565b60405180910390f35b34801561039557600080fd5b506103b060048036038101906103ab9190613b62565b610cf1565b005b3480156103be57600080fd5b506103d960048036038101906103d49190613a99565b610db2565b005b3480156103e757600080fd5b5061040260048036038101906103fd9190613eb1565b610dd2565b005b34801561041057600080fd5b506104196112d3565b6040516104269190613a12565b60405180910390f35b34801561043b57600080fd5b506104446112e7565b6040516104519190613f6c565b60405180910390f35b34801561046657600080fd5b5061046f61130e565b60405161047c9190613860565b60405180910390f35b34801561049157600080fd5b506104ac60048036038101906104a7919061404a565b611325565b005b6104c860048036038101906104c391906140a6565b611677565b005b3480156104d657600080fd5b506104f160048036038101906104ec919061396c565b6119d1565b6040516104fe91906139da565b60405180910390f35b34801561051357600080fd5b5061052e6004803603810190610529919061411f565b611a83565b60405161053d93929190614195565b60405180910390f35b34801561055257600080fd5b5061056d60048036038101906105689190613b62565b611cb1565b60405161057a91906141e2565b60405180910390f35b34801561058f57600080fd5b50610598611d69565b005b3480156105a657600080fd5b506105af611df1565b6040516105bc91906141e2565b60405180910390f35b3480156105d157600080fd5b506105da611dfb565b6040516105e791906139da565b60405180910390f35b3480156105fc57600080fd5b50610605611e25565b604051610612919061421e565b60405180910390f35b34801561062757600080fd5b50610642600480360381019061063d919061396c565b611e4c565b60405161064f9190614323565b60405180910390f35b34801561066457600080fd5b5061066d611fe2565b60405161067a9190613914565b60405180910390f35b34801561068f57600080fd5b506106aa60048036038101906106a5919061433f565b612074565b005b3480156106b857600080fd5b506106d360048036038101906106ce9190613b62565b61208a565b005b3480156106e157600080fd5b506106fc60048036038101906106f79190614434565b612161565b005b34801561070a57600080fd5b506107136121c3565b60405161072091906144d8565b60405180910390f35b34801561073557600080fd5b50610750600480360381019061074b9190613b62565b6121ea565b60405161075d9190613860565b60405180910390f35b34801561077257600080fd5b5061078d6004803603810190610788919061396c565b6122bc565b60405161079a9190613914565b60405180910390f35b3480156107af57600080fd5b506107b86123af565b6040516107c59190613a12565b60405180910390f35b3480156107da57600080fd5b506107f560048036038101906107f0919061396c565b6123c3565b60405161080b9a999897969594939291906144f3565b60405180910390f35b34801561082057600080fd5b50610829612499565b60405161083691906145b0565b60405180910390f35b34801561084b57600080fd5b506108546124c0565b60405161086191906141e2565b60405180910390f35b34801561087657600080fd5b50610891600480360381019061088c91906145cb565b6124c6565b60405161089e9190613860565b60405180910390f35b3480156108b357600080fd5b506108ce60048036038101906108c99190613b62565b61255a565b005b3480156108dc57600080fd5b506108f760048036038101906108f29190613b62565b612652565b005b34801561090557600080fd5b5061090e612729565b60405161091b919061462c565b60405180910390f35b60007f80ac58cd000000000000000000000000000000000000000000000000000000007bffffffffffffffffffffffffffffffffffffffffffffffffffffffff1916827bffffffffffffffffffffffffffffffffffffffffffffffffffffffff191614806109ef57507f5b5e139f000000000000000000000000000000000000000000000000000000007bffffffffffffffffffffffffffffffffffffffffffffffffffffffff1916827bffffffffffffffffffffffffffffffffffffffffffffffffffffffff1916145b806109ff57506109fe82612750565b5b9050919050565b606060c98054610a1590614676565b80601f0160208091040260200160405190810160405280929190818152602001828054610a4190614676565b8015610a8e5780601f10610a6357610100808354040283529160200191610a8e565b820191906000526020600020905b815481529060010190602001808311610a7157829003601f168201915b5050505050905090565b6000610aa3826127ba565b610ae2576040517f08c379a0000000000000000000000000000000000000000000000000000000008152600401610ad99061471a565b60405180910390fd5b60cd600083815260200190815260200160002060009054906101000a900473ffffffffffffffffffffffffffffffffffffffff169050919050565b60fc60049054906101000a900461ffff1681565b6000610b3c826119d1565b90508073ffffffffffffffffffffffffffffffffffffffff168373ffffffffffffffffffffffffffffffffffffffff161415610bad576040517f08c379a0000000000000000000000000000000000000000000000000000000008152600401610ba4906147ac565b60405180910390fd5b8073ffffffffffffffffffffffffffffffffffffffff16610bcc612826565b73ffffffffffffffffffffffffffffffffffffffff161480610bfb5750610bfa81610bf5612826565b6124c6565b5b610c3a576040517f08c379a0000000000000000000000000000000000000000000000000000000008152600401610c319061483e565b60405180910390fd5b610c44838361282e565b505050565b610c5a610c54612826565b826128e7565b610c99576040517f08c379a0000000000000000000000000000000000000000000000000000000008152600401610c90906148d0565b60405180910390fd5b610ca48383836129c5565b505050565b6101006020528160005260406000208181548110610cc657600080fd5b9060005260206000209060109182820401919006600202915091509054906101000a900461ffff1681565b610cf9612826565b73ffffffffffffffffffffffffffffffffffffffff16610d17611dfb565b73ffffffffffffffffffffffffffffffffffffffff1614610d6d576040517f08c379a0000000000000000000000000000000000000000000000000000000008152600401610d649061493c565b60405180910390fd5b8061010460006101000a81548173ffffffffffffffffffffffffffffffffffffffff021916908373ffffffffffffffffffffffffffffffffffffffff16021790555050565b610dcd83838360405180602001604052806000815250612161565b505050565b61010160009054906101000a900473ffffffffffffffffffffffffffffffffffffffff1673ffffffffffffffffffffffffffffffffffffffff163373ffffffffffffffffffffffffffffffffffffffff1614610e63576040517f08c379a0000000000000000000000000000000000000000000000000000000008152600401610e5a906149a8565b60405180910390fd5b60006101006000846000015181526020019081526020016000208054905011610ec1576040517f08c379a0000000000000000000000000000000000000000000000000000000008152600401610eb890614a14565b60405180910390fd5b6000610100600084600001518152602001908152602001600020805480602002602001604051908101604052809291908181526020018280548015610f4d57602002820191906000526020600020906000905b82829054906101000a900461ffff1661ffff1681526020019060020190602082600101049283019260010382029150808411610f145790505b505050505090506101006000846000015181526020019081526020016000206000610f7891906135c7565b60005b815181101561122e57610fe38460600151610f9a578460200151610fbf565b61010460009054906101000a900473ffffffffffffffffffffffffffffffffffffffff165b838381518110610fd257610fd1614a34565b5b602002602001015161ffff16612c21565b828181518110610ff657610ff5614a34565b5b602002602001015160ff600084848151811061101557611014614a34565b5b602002602001015161ffff16815260200190815260200160002060008201518160000160006101000a81548160ff02191690831515021790555060208201518160000160016101000a81548160ff021916908360ff16021790555060408201518160000160026101000a81548160ff021916908360ff16021790555060608201518160000160036101000a81548160ff021916908360ff16021790555060808201518160000160046101000a81548160ff021916908360ff16021790555060a08201518160000160056101000a81548160ff021916908360ff16021790555060c08201518160000160066101000a81548160ff021916908360ff16021790555060e08201518160000160076101000a81548160ff021916908360ff1602179055506101008201518160000160086101000a81548160ff021916908360ff1602179055506101208201518160000160096101000a81548160ff021916908360ff1602179055509050508281815181106111905761118f614a34565b5b6020026020010151600001516111df5760fc600481819054906101000a900461ffff16809291906111c090614a92565b91906101000a81548161ffff021916908361ffff16021790555061121a565b60fc600281819054906101000a900461ffff16809291906111ff90614a92565b91906101000a81548161ffff021916908361ffff1602179055505b50808061122690614abd565b915050610f7b565b508260600151156112ce5761010460009054906101000a900473ffffffffffffffffffffffffffffffffffffffff1673ffffffffffffffffffffffffffffffffffffffff1663dbdc1f6b8460200151836040518363ffffffff1660e01b815260040161129b929190614bc4565b600060405180830381600087803b1580156112b557600080fd5b505af11580156112c9573d6000803e3d6000fd5b505050505b505050565b60fc60009054906101000a900461ffff1681565b61010560009054906101000a900473ffffffffffffffffffffffffffffffffffffffff1681565b6000606560009054906101000a900460ff16905090565b600060019054906101000a900460ff1661134d5760008054906101000a900460ff1615611356565b611355612c3f565b5b611395576040517f08c379a000000000000000000000000000000000000000000000000000000000815260040161138c90614c66565b60405180910390fd5b60008060019054906101000a900460ff1615905080156113e5576001600060016101000a81548160ff02191690831515021790555060016000806101000a81548160ff0219169083151502179055505b6113ed612c50565b6113f5612cb1565b6114696040518060400160405280601381526020017f526174416c6572742043686172616374657273000000000000000000000000008152506040518060400160405280600781526020017f5241544341535400000000000000000000000000000000000000000000000000815250612d12565b8260008151811061147d5761147c614a34565b5b602002602001015161010560006101000a81548173ffffffffffffffffffffffffffffffffffffffff021916908373ffffffffffffffffffffffffffffffffffffffff160217905550826001815181106114da576114d9614a34565b5b602002602001015161010160006101000a81548173ffffffffffffffffffffffffffffffffffffffff021916908373ffffffffffffffffffffffffffffffffffffffff1602179055508260028151811061153757611536614a34565b5b602002602001015161010260006101000a81548173ffffffffffffffffffffffffffffffffffffffff021916908373ffffffffffffffffffffffffffffffffffffffff1602179055508260038151811061159457611593614a34565b5b602002602001015161010360006101000a81548173ffffffffffffffffffffffffffffffffffffffff021916908373ffffffffffffffffffffffffffffffffffffffff1602179055508160fd819055506005826115f19190614cb5565b60fe81905550600060fc60006101000a81548161ffff021916908361ffff160217905550600060fc60026101000a81548161ffff021916908361ffff160217905550600060fc60046101000a81548161ffff021916908361ffff16021790555080156116725760008060016101000a81548160ff0219169083151502179055505b505050565b61167f61130e565b156116bf576040517f08c379a00000000000000000000000000000000000000000000000000000000081526004016116b690614d32565b60405180910390fd5b6116c7612826565b73ffffffffffffffffffffffffffffffffffffffff163273ffffffffffffffffffffffffffffffffffffffff1614611734576040517f08c379a000000000000000000000000000000000000000000000000000000000815260040161172b90614d9e565b60405180910390fd5b61010560009054906101000a900473ffffffffffffffffffffffffffffffffffffffff1673ffffffffffffffffffffffffffffffffffffffff1663abc26c6061177b612826565b843460fc60009054906101000a900461ffff1660fd5460fe546040518763ffffffff1660e01b81526004016117b596959493929190614dbe565b600060405180830381600087803b1580156117cf57600080fd5b505af11580156117e3573d6000803e3d6000fd5b50505050600061010160009054906101000a900473ffffffffffffffffffffffffffffffffffffffff1673ffffffffffffffffffffffffffffffffffffffff1663de864bf9611830612826565b85856040518463ffffffff1660e01b815260040161185093929190614e1f565b6020604051808303816000875af115801561186f573d6000803e3d6000fd5b505050506040513d601f19601f820116820180604052508101906118939190614e6b565b90508260ff1667ffffffffffffffff8111156118b2576118b1613b94565b5b6040519080825280602002602001820160405280156118e05781602001602082028036833780820191505090505b50610100600083815260200190815260200160002090805190602001906119089291906135ef565b5060005b8360ff168110156119cb5760fc600081819054906101000a900461ffff168092919061193790614a92565b91906101000a81548161ffff021916908361ffff1602179055505060fc60009054906101000a900461ffff166101006000848152602001908152602001600020828154811061198957611988614a34565b5b90600052602060002090601091828204019190066002026101000a81548161ffff021916908361ffff16021790555080806119c390614abd565b91505061190c565b50505050565b60008060cb600084815260200190815260200160002060009054906101000a900473ffffffffffffffffffffffffffffffffffffffff169050600073ffffffffffffffffffffffffffffffffffffffff168173ffffffffffffffffffffffffffffffffffffffff161415611a7a576040517f08c379a0000000000000000000000000000000000000000000000000000000008152600401611a7190614f0a565b60405180910390fd5b80915050919050565b600080606060fb60003373ffffffffffffffffffffffffffffffffffffffff1673ffffffffffffffffffffffffffffffffffffffff16815260200190815260200160002060009054906101000a900460ff16611b14576040517f08c379a0000000000000000000000000000000000000000000000000000000008152600401611b0b90614f76565b60405180910390fd5b600060ff600089815260200190815260200160002060000160009054906101000a900460ff169050600060ff60008a815260200190815260200160002060000160089054906101000a900460ff169050600060ff60008b815260200190815260200160002060000160099054906101000a900460ff16905061010360009054906101000a900473ffffffffffffffffffffffffffffffffffffffff1673ffffffffffffffffffffffffffffffffffffffff16634718e3088484848d8d8d6040518763ffffffff1660e01b8152600401611bf296959493929190614fa5565b6000604051808303816000875af1158015611c11573d6000803e3d6000fd5b505050506040513d6000823e3d601f19601f82011682018060405250810190611c3a91906150bc565b8096508197508298505050508560ff60008c815260200190815260200160002060000160086101000a81548160ff021916908360ff1602179055508460ff60008c815260200190815260200160002060000160096101000a81548160ff021916908360ff1602179055505050509450945094915050565b60008073ffffffffffffffffffffffffffffffffffffffff168273ffffffffffffffffffffffffffffffffffffffff161415611d22576040517f08c379a0000000000000000000000000000000000000000000000000000000008152600401611d199061519d565b60405180910390fd5b60cc60008373ffffffffffffffffffffffffffffffffffffffff1673ffffffffffffffffffffffffffffffffffffffff168152602001908152602001600020549050919050565b611d71612826565b73ffffffffffffffffffffffffffffffffffffffff16611d8f611dfb565b73ffffffffffffffffffffffffffffffffffffffff1614611de5576040517f08c379a0000000000000000000000000000000000000000000000000000000008152600401611ddc9061493c565b60405180910390fd5b611def6000612d7f565b565b600060fe54905090565b6000603360009054906101000a900473ffffffffffffffffffffffffffffffffffffffff16905090565b61010160009054906101000a900473ffffffffffffffffffffffffffffffffffffffff1681565b611e54613699565b611e5d826127ba565b611e9c576040517f08c379a0000000000000000000000000000000000000000000000000000000008152600401611e939061522f565b60405180910390fd5b60ff6000838152602001908152602001600020604051806101400160405290816000820160009054906101000a900460ff161515151581526020016000820160019054906101000a900460ff1660ff1660ff1681526020016000820160029054906101000a900460ff1660ff1660ff1681526020016000820160039054906101000a900460ff1660ff1660ff1681526020016000820160049054906101000a900460ff1660ff1660ff1681526020016000820160059054906101000a900460ff1660ff1660ff1681526020016000820160069054906101000a900460ff1660ff1660ff1681526020016000820160079054906101000a900460ff1660ff1660ff1681526020016000820160089054906101000a900460ff1660ff1660ff1681526020016000820160099054906101000a900460ff1660ff1660ff16815250509050919050565b606060ca8054611ff190614676565b80601f016020809104026020016040519081016040528092919081815260200182805461201d90614676565b801561206a5780601f1061203f5761010080835404028352916020019161206a565b820191906000526020600020905b81548152906001019060200180831161204d57829003601f168201915b5050505050905090565b61208661207f612826565b8383612e45565b5050565b612092612826565b73ffffffffffffffffffffffffffffffffffffffff166120b0611dfb565b73ffffffffffffffffffffffffffffffffffffffff1614612106576040517f08c379a00000000000000000000000000000000000000000000000000000000081526004016120fd9061493c565b60405180910390fd5b600160fb60008373ffffffffffffffffffffffffffffffffffffffff1673ffffffffffffffffffffffffffffffffffffffff16815260200190815260200160002060006101000a81548160ff02191690831515021790555050565b61217261216c612826565b836128e7565b6121b1576040517f08c379a00000000000000000000000000000000000000000000000000000000081526004016121a8906148d0565b60405180910390fd5b6121bd84848484612fb2565b50505050565b61010460009054906101000a900473ffffffffffffffffffffffffffffffffffffffff1681565b60006121f4612826565b73ffffffffffffffffffffffffffffffffffffffff16612212611dfb565b73ffffffffffffffffffffffffffffffffffffffff1614612268576040517f08c379a000000000000000000000000000000000000000000000000000000000815260040161225f9061493c565b60405180910390fd5b60fb60008373ffffffffffffffffffffffffffffffffffffffff1673ffffffffffffffffffffffffffffffffffffffff16815260200190815260200160002060009054906101000a900460ff169050919050565b60606122c7826127ba565b612306576040517f08c379a00000000000000000000000000000000000000000000000000000000081526004016122fd9061522f565b60405180910390fd5b61010260009054906101000a900473ffffffffffffffffffffffffffffffffffffffff1673ffffffffffffffffffffffffffffffffffffffff1663c87b56dd836040518263ffffffff1660e01b815260040161236291906141e2565b600060405180830381865afa15801561237f573d6000803e3d6000fd5b505050506040513d6000823e3d601f19601f820116820180604052508101906123a8919061524f565b9050919050565b60fc60029054906101000a900461ffff1681565b60ff6020528060005260406000206000915090508060000160009054906101000a900460ff16908060000160019054906101000a900460ff16908060000160029054906101000a900460ff16908060000160039054906101000a900460ff16908060000160049054906101000a900460ff16908060000160059054906101000a900460ff16908060000160069054906101000a900460ff16908060000160079054906101000a900460ff16908060000160089054906101000a900460ff16908060000160099054906101000a900460ff1690508a565b61010260009054906101000a900473ffffffffffffffffffffffffffffffffffffffff1681565b60fd5481565b600060ce60008473ffffffffffffffffffffffffffffffffffffffff1673ffffffffffffffffffffffffffffffffffffffff16815260200190815260200160002060008373ffffffffffffffffffffffffffffffffffffffff1673ffffffffffffffffffffffffffffffffffffffff16815260200190815260200160002060009054906101000a900460ff16905092915050565b612562612826565b73ffffffffffffffffffffffffffffffffffffffff16612580611dfb565b73ffffffffffffffffffffffffffffffffffffffff16146125d6576040517f08c379a00000000000000000000000000000000000000000000000000000000081526004016125cd9061493c565b60405180910390fd5b600073ffffffffffffffffffffffffffffffffffffffff168173ffffffffffffffffffffffffffffffffffffffff161415612646576040517f08c379a000000000000000000000000000000000000000000000000000000000815260040161263d9061530a565b60405180910390fd5b61264f81612d7f565b50565b61265a612826565b73ffffffffffffffffffffffffffffffffffffffff16612678611dfb565b73ffffffffffffffffffffffffffffffffffffffff16146126ce576040517f08c379a00000000000000000000000000000000000000000000000000000000081526004016126c59061493c565b60405180910390fd5b600060fb60008373ffffffffffffffffffffffffffffffffffffffff1673ffffffffffffffffffffffffffffffffffffffff16815260200190815260200160002060006101000a81548160ff02191690831515021790555050565b61010360009054906101000a900473ffffffffffffffffffffffffffffffffffffffff1681565b60007f01ffc9a7000000000000000000000000000000000000000000000000000000007bffffffffffffffffffffffffffffffffffffffffffffffffffffffff1916827bffffffffffffffffffffffffffffffffffffffffffffffffffffffff1916149050919050565b60008073ffffffffffffffffffffffffffffffffffffffff1660cb600084815260200190815260200160002060009054906101000a900473ffffffffffffffffffffffffffffffffffffffff1673ffffffffffffffffffffffffffffffffffffffff1614159050919050565b600033905090565b8160cd600083815260200190815260200160002060006101000a81548173ffffffffffffffffffffffffffffffffffffffff021916908373ffffffffffffffffffffffffffffffffffffffff160217905550808273ffffffffffffffffffffffffffffffffffffffff166128a1836119d1565b73ffffffffffffffffffffffffffffffffffffffff167f8c5be1e5ebec7d5bd14f71427d1e84f3dd0314c0f7b2291e5b200ac8c7c3b92560405160405180910390a45050565b60006128f2826127ba565b612931576040517f08c379a00000000000000000000000000000000000000000000000000000000081526004016129289061539c565b60405180910390fd5b600061293c836119d1565b90508073ffffffffffffffffffffffffffffffffffffffff168473ffffffffffffffffffffffffffffffffffffffff1614806129ab57508373ffffffffffffffffffffffffffffffffffffffff1661299384610a98565b73ffffffffffffffffffffffffffffffffffffffff16145b806129bc57506129bb81856124c6565b5b91505092915050565b8273ffffffffffffffffffffffffffffffffffffffff166129e5826119d1565b73ffffffffffffffffffffffffffffffffffffffff1614612a3b576040517f08c379a0000000000000000000000000000000000000000000000000000000008152600401612a329061542e565b60405180910390fd5b600073ffffffffffffffffffffffffffffffffffffffff168273ffffffffffffffffffffffffffffffffffffffff161415612aab576040517f08c379a0000000000000000000000000000000000000000000000000000000008152600401612aa2906154c0565b60405180910390fd5b612ab683838361300e565b612ac160008261282e565b600160cc60008573ffffffffffffffffffffffffffffffffffffffff1673ffffffffffffffffffffffffffffffffffffffff1681526020019081526020016000206000828254612b1191906154e0565b92505081905550600160cc60008473ffffffffffffffffffffffffffffffffffffffff1673ffffffffffffffffffffffffffffffffffffffff1681526020019081526020016000206000828254612b689190615514565b925050819055508160cb600083815260200190815260200160002060006101000a81548173ffffffffffffffffffffffffffffffffffffffff021916908373ffffffffffffffffffffffffffffffffffffffff160217905550808273ffffffffffffffffffffffffffffffffffffffff168473ffffffffffffffffffffffffffffffffffffffff167fddf252ad1be2c89b69c2b068fc378daa952ba7f163c4a11628f55a4df523b3ef60405160405180910390a4505050565b612c3b828260405180602001604052806000815250613013565b5050565b6000612c4a3061306e565b15905090565b600060019054906101000a900460ff16612c9f576040517f08c379a0000000000000000000000000000000000000000000000000000000008152600401612c96906155dc565b60405180910390fd5b612ca7613081565b612caf6130d2565b565b600060019054906101000a900460ff16612d00576040517f08c379a0000000000000000000000000000000000000000000000000000000008152600401612cf7906155dc565b60405180910390fd5b612d08613081565b612d10613133565b565b600060019054906101000a900460ff16612d61576040517f08c379a0000000000000000000000000000000000000000000000000000000008152600401612d58906155dc565b60405180910390fd5b612d69613081565b612d7161319f565b612d7b82826131f0565b5050565b6000603360009054906101000a900473ffffffffffffffffffffffffffffffffffffffff16905081603360006101000a81548173ffffffffffffffffffffffffffffffffffffffff021916908373ffffffffffffffffffffffffffffffffffffffff1602179055508173ffffffffffffffffffffffffffffffffffffffff168173ffffffffffffffffffffffffffffffffffffffff167f8be0079c531659141344cd1fd0a4f28419497f9722a3daafe3b4186f6b6457e060405160405180910390a35050565b8173ffffffffffffffffffffffffffffffffffffffff168373ffffffffffffffffffffffffffffffffffffffff161415612eb4576040517f08c379a0000000000000000000000000000000000000000000000000000000008152600401612eab90615648565b60405180910390fd5b8060ce60008573ffffffffffffffffffffffffffffffffffffffff1673ffffffffffffffffffffffffffffffffffffffff16815260200190815260200160002060008473ffffffffffffffffffffffffffffffffffffffff1673ffffffffffffffffffffffffffffffffffffffff16815260200190815260200160002060006101000a81548160ff0219169083151502179055508173ffffffffffffffffffffffffffffffffffffffff168373ffffffffffffffffffffffffffffffffffffffff167f17307eab39ab6107e8899845ad3d59bd9653f200f220920489ca2b5937696c3183604051612fa59190613860565b60405180910390a3505050565b612fbd8484846129c5565b612fc984848484613271565b613008576040517f08c379a0000000000000000000000000000000000000000000000000000000008152600401612fff906156da565b60405180910390fd5b50505050565b505050565b61301d83836133f9565b61302a6000848484613271565b613069576040517f08c379a0000000000000000000000000000000000000000000000000000000008152600401613060906156da565b60405180910390fd5b505050565b600080823b905060008111915050919050565b600060019054906101000a900460ff166130d0576040517f08c379a00000000000000000000000000000000000000000000000000000000081526004016130c7906155dc565b60405180910390fd5b565b600060019054906101000a900460ff16613121576040517f08c379a0000000000000000000000000000000000000000000000000000000008152600401613118906155dc565b60405180910390fd5b61313161312c612826565b612d7f565b565b600060019054906101000a900460ff16613182576040517f08c379a0000000000000000000000000000000000000000000000000000000008152600401613179906155dc565b60405180910390fd5b6000606560006101000a81548160ff021916908315150217905550565b600060019054906101000a900460ff166131ee576040517f08c379a00000000000000000000000000000000000000000000000000000000081526004016131e5906155dc565b60405180910390fd5b565b600060019054906101000a900460ff1661323f576040517f08c379a0000000000000000000000000000000000000000000000000000000008152600401613236906155dc565b60405180910390fd5b8160c99080519060200190613255929190613709565b508060ca908051906020019061326c929190613709565b505050565b60006132928473ffffffffffffffffffffffffffffffffffffffff1661306e565b156133ec578373ffffffffffffffffffffffffffffffffffffffff1663150b7a026132bb612826565b8786866040518563ffffffff1660e01b81526004016132dd949392919061574f565b6020604051808303816000875af192505050801561331957506040513d601f19601f8201168201806040525081019061331691906157b0565b60015b61339c573d8060008114613349576040519150601f19603f3d011682016040523d82523d6000602084013e61334e565b606091505b50600081511415613394576040517f08c379a000000000000000000000000000000000000000000000000000000000815260040161338b906156da565b60405180910390fd5b805181602001fd5b63150b7a0260e01b7bffffffffffffffffffffffffffffffffffffffffffffffffffffffff1916817bffffffffffffffffffffffffffffffffffffffffffffffffffffffff1916149150506133f1565b600190505b949350505050565b600073ffffffffffffffffffffffffffffffffffffffff168273ffffffffffffffffffffffffffffffffffffffff161415613469576040517f08c379a000000000000000000000000000000000000000000000000000000000815260040161346090615829565b60405180910390fd5b613472816127ba565b156134b2576040517f08c379a00000000000000000000000000000000000000000000000000000000081526004016134a990615895565b60405180910390fd5b6134be6000838361300e565b600160cc60008473ffffffffffffffffffffffffffffffffffffffff1673ffffffffffffffffffffffffffffffffffffffff168152602001908152602001600020600082825461350e9190615514565b925050819055508160cb600083815260200190815260200160002060006101000a81548173ffffffffffffffffffffffffffffffffffffffff021916908373ffffffffffffffffffffffffffffffffffffffff160217905550808273ffffffffffffffffffffffffffffffffffffffff16600073ffffffffffffffffffffffffffffffffffffffff167fddf252ad1be2c89b69c2b068fc378daa952ba7f163c4a11628f55a4df523b3ef60405160405180910390a45050565b50805460008255600f0160109004906000526020600020908101906135ec919061378f565b50565b82805482825590600052602060002090600f016010900481019282156136885791602002820160005b8382111561365857835183826101000a81548161ffff021916908361ffff1602179055509260200192600201602081600101049283019260010302613618565b80156136865782816101000a81549061ffff0219169055600201602081600101049283019260010302613658565b505b509050613695919061378f565b5090565b604051806101400160405280600015158152602001600060ff168152602001600060ff168152602001600060ff168152602001600060ff168152602001600060ff168152602001600060ff168152602001600060ff168152602001600060ff168152602001600060ff1681525090565b82805461371590614676565b90600052602060002090601f016020900481019282613737576000855561377e565b82601f1061375057805160ff191683800117855561377e565b8280016001018555821561377e579182015b8281111561377d578251825591602001919060010190613762565b5b50905061378b919061378f565b5090565b5b808211156137a8576000816000905550600101613790565b5090565b6000604051905090565b600080fd5b600080fd5b60007fffffffff0000000000000000000000000000000000000000000000000000000082169050919050565b6137f5816137c0565b811461380057600080fd5b50565b600081359050613812816137ec565b92915050565b60006020828403121561382e5761382d6137b6565b5b600061383c84828501613803565b91505092915050565b60008115159050919050565b61385a81613845565b82525050565b60006020820190506138756000830184613851565b92915050565b600081519050919050565b600082825260208201905092915050565b60005b838110156138b557808201518184015260208101905061389a565b838111156138c4576000848401525b50505050565b6000601f19601f8301169050919050565b60006138e68261387b565b6138f08185613886565b9350613900818560208601613897565b613909816138ca565b840191505092915050565b6000602082019050818103600083015261392e81846138db565b905092915050565b6000819050919050565b61394981613936565b811461395457600080fd5b50565b60008135905061396681613940565b92915050565b600060208284031215613982576139816137b6565b5b600061399084828501613957565b91505092915050565b600073ffffffffffffffffffffffffffffffffffffffff82169050919050565b60006139c482613999565b9050919050565b6139d4816139b9565b82525050565b60006020820190506139ef60008301846139cb565b92915050565b600061ffff82169050919050565b613a0c816139f5565b82525050565b6000602082019050613a276000830184613a03565b92915050565b613a36816139b9565b8114613a4157600080fd5b50565b600081359050613a5381613a2d565b92915050565b60008060408385031215613a7057613a6f6137b6565b5b6000613a7e85828601613a44565b9250506020613a8f85828601613957565b9150509250929050565b600080600060608486031215613ab257613ab16137b6565b5b6000613ac086828701613a44565b9350506020613ad186828701613a44565b9250506040613ae286828701613957565b9150509250925092565b6000819050919050565b613aff81613aec565b8114613b0a57600080fd5b50565b600081359050613b1c81613af6565b92915050565b60008060408385031215613b3957613b386137b6565b5b6000613b4785828601613b0d565b9250506020613b5885828601613957565b9150509250929050565b600060208284031215613b7857613b776137b6565b5b6000613b8684828501613a44565b91505092915050565b600080fd5b7f4e487b7100000000000000000000000000000000000000000000000000000000600052604160045260246000fd5b613bcc826138ca565b810181811067ffffffffffffffff82111715613beb57613bea613b94565b5b80604052505050565b6000613bfe6137ac565b9050613c0a8282613bc3565b919050565b600060ff82169050919050565b613c2581613c0f565b8114613c3057600080fd5b50565b600081359050613c4281613c1c565b92915050565b613c5181613845565b8114613c5c57600080fd5b50565b600081359050613c6e81613c48565b92915050565b600060808284031215613c8a57613c89613b8f565b5b613c946080613bf4565b90506000613ca484828501613b0d565b6000830152506020613cb884828501613a44565b6020830152506040613ccc84828501613c33565b6040830152506060613ce084828501613c5f565b60608301525092915050565b600080fd5b600067ffffffffffffffff821115613d0c57613d0b613b94565b5b602082029050602081019050919050565b600080fd5b60006101408284031215613d3957613d38613b8f565b5b613d44610140613bf4565b90506000613d5484828501613c5f565b6000830152506020613d6884828501613c33565b6020830152506040613d7c84828501613c33565b6040830152506060613d9084828501613c33565b6060830152506080613da484828501613c33565b60808301525060a0613db884828501613c33565b60a08301525060c0613dcc84828501613c33565b60c08301525060e0613de084828501613c33565b60e083015250610100613df584828501613c33565b61010083015250610120613e0b84828501613c33565b6101208301525092915050565b6000613e2b613e2684613cf1565b613bf4565b9050808382526020820190506101408402830185811115613e4f57613e4e613d1d565b5b835b81811015613e795780613e648882613d22565b84526020840193505061014081019050613e51565b5050509392505050565b600082601f830112613e9857613e97613cec565b5b8135613ea8848260208601613e18565b91505092915050565b60008060a08385031215613ec857613ec76137b6565b5b6000613ed685828601613c74565b925050608083013567ffffffffffffffff811115613ef757613ef66137bb565b5b613f0385828601613e83565b9150509250929050565b6000819050919050565b6000613f32613f2d613f2884613999565b613f0d565b613999565b9050919050565b6000613f4482613f17565b9050919050565b6000613f5682613f39565b9050919050565b613f6681613f4b565b82525050565b6000602082019050613f816000830184613f5d565b92915050565b600067ffffffffffffffff821115613fa257613fa1613b94565b5b602082029050602081019050919050565b6000613fc6613fc184613f87565b613bf4565b90508083825260208201905060208402830185811115613fe957613fe8613d1d565b5b835b818110156140125780613ffe8882613a44565b845260208401935050602081019050613feb565b5050509392505050565b600082601f83011261403157614030613cec565b5b8135614041848260208601613fb3565b91505092915050565b60008060408385031215614061576140606137b6565b5b600083013567ffffffffffffffff81111561407f5761407e6137bb565b5b61408b8582860161401c565b925050602061409c85828601613957565b9150509250929050565b600080604083850312156140bd576140bc6137b6565b5b60006140cb85828601613c33565b92505060206140dc85828601613c5f565b9150509250929050565b60008160000b9050919050565b6140fc816140e6565b811461410757600080fd5b50565b600081359050614119816140f3565b92915050565b60008060008060808587031215614139576141386137b6565b5b600061414787828801613957565b94505060206141588782880161410a565b93505060406141698782880161410a565b925050606061417a87828801613957565b91505092959194509250565b61418f81613c0f565b82525050565b60006060820190506141aa6000830186614186565b6141b76020830185614186565b81810360408301526141c981846138db565b9050949350505050565b6141dc81613936565b82525050565b60006020820190506141f760008301846141d3565b92915050565b600061420882613f39565b9050919050565b614218816141fd565b82525050565b6000602082019050614233600083018461420f565b92915050565b61424281613845565b82525050565b61425181613c0f565b82525050565b6101408201600082015161426e6000850182614239565b5060208201516142816020850182614248565b5060408201516142946040850182614248565b5060608201516142a76060850182614248565b5060808201516142ba6080850182614248565b5060a08201516142cd60a0850182614248565b5060c08201516142e060c0850182614248565b5060e08201516142f360e0850182614248565b50610100820151614308610100850182614248565b5061012082015161431d610120850182614248565b50505050565b6000610140820190506143396000830184614257565b92915050565b60008060408385031215614356576143556137b6565b5b600061436485828601613a44565b925050602061437585828601613c5f565b9150509250929050565b600080fd5b600067ffffffffffffffff82111561439f5761439e613b94565b5b6143a8826138ca565b9050602081019050919050565b82818337600083830152505050565b60006143d76143d284614384565b613bf4565b9050828152602081018484840111156143f3576143f261437f565b5b6143fe8482856143b5565b509392505050565b600082601f83011261441b5761441a613cec565b5b813561442b8482602086016143c4565b91505092915050565b6000806000806080858703121561444e5761444d6137b6565b5b600061445c87828801613a44565b945050602061446d87828801613a44565b935050604061447e87828801613957565b925050606085013567ffffffffffffffff81111561449f5761449e6137bb565b5b6144ab87828801614406565b91505092959194509250565b60006144c282613f39565b9050919050565b6144d2816144b7565b82525050565b60006020820190506144ed60008301846144c9565b92915050565b600061014082019050614509600083018d613851565b614516602083018c614186565b614523604083018b614186565b614530606083018a614186565b61453d6080830189614186565b61454a60a0830188614186565b61455760c0830187614186565b61456460e0830186614186565b614572610100830185614186565b614580610120830184614186565b9b9a5050505050505050505050565b600061459a82613f39565b9050919050565b6145aa8161458f565b82525050565b60006020820190506145c560008301846145a1565b92915050565b600080604083850312156145e2576145e16137b6565b5b60006145f085828601613a44565b925050602061460185828601613a44565b9150509250929050565b600061461682613f39565b9050919050565b6146268161460b565b82525050565b6000602082019050614641600083018461461d565b92915050565b7f4e487b7100000000000000000000000000000000000000000000000000000000600052602260045260246000fd5b6000600282049050600182168061468e57607f821691505b602082108114156146a2576146a1614647565b5b50919050565b7f4552433732313a20617070726f76656420717565727920666f72206e6f6e657860008201527f697374656e7420746f6b656e0000000000000000000000000000000000000000602082015250565b6000614704602c83613886565b915061470f826146a8565b604082019050919050565b60006020820190508181036000830152614733816146f7565b9050919050565b7f4552433732313a20617070726f76616c20746f2063757272656e74206f776e6560008201527f7200000000000000000000000000000000000000000000000000000000000000602082015250565b6000614796602183613886565b91506147a18261473a565b604082019050919050565b600060208201905081810360008301526147c581614789565b9050919050565b7f4552433732313a20617070726f76652063616c6c6572206973206e6f74206f7760008201527f6e6572206e6f7220617070726f76656420666f7220616c6c0000000000000000602082015250565b6000614828603883613886565b9150614833826147cc565b604082019050919050565b600060208201905081810360008301526148578161481b565b9050919050565b7f4552433732313a207472616e736665722063616c6c6572206973206e6f74206f60008201527f776e6572206e6f7220617070726f766564000000000000000000000000000000602082015250565b60006148ba603183613886565b91506148c58261485e565b604082019050919050565b600060208201905081810360008301526148e9816148ad565b9050919050565b7f4f776e61626c653a2063616c6c6572206973206e6f7420746865206f776e6572600082015250565b6000614926602083613886565b9150614931826148f0565b602082019050919050565b6000602082019050818103600083015261495581614919565b9050919050565b7f4f6e6c7920746865204d696e742063616e2066756c66696c6c00000000000000600082015250565b6000614992601983613886565b915061499d8261495c565b602082019050919050565b600060208201905081810360008301526149c181614985565b9050919050565b7f4d696e742072657175657374206e6f7420666f756e6400000000000000000000600082015250565b60006149fe601683613886565b9150614a09826149c8565b602082019050919050565b60006020820190508181036000830152614a2d816149f1565b9050919050565b7f4e487b7100000000000000000000000000000000000000000000000000000000600052603260045260246000fd5b7f4e487b7100000000000000000000000000000000000000000000000000000000600052601160045260246000fd5b6000614a9d826139f5565b915061ffff821415614ab257614ab1614a63565b5b600182019050919050565b6000614ac882613936565b91507fffffffffffffffffffffffffffffffffffffffffffffffffffffffffffffffff821415614afb57614afa614a63565b5b600182019050919050565b600081519050919050565b600082825260208201905092915050565b6000819050602082019050919050565b614b3b816139f5565b82525050565b6000614b4d8383614b32565b60208301905092915050565b6000602082019050919050565b6000614b7182614b06565b614b7b8185614b11565b9350614b8683614b22565b8060005b83811015614bb7578151614b9e8882614b41565b9750614ba983614b59565b925050600181019050614b8a565b5085935050505092915050565b6000604082019050614bd960008301856139cb565b8181036020830152614beb8184614b66565b90509392505050565b7f496e697469616c697a61626c653a20636f6e747261637420697320616c72656160008201527f647920696e697469616c697a6564000000000000000000000000000000000000602082015250565b6000614c50602e83613886565b9150614c5b82614bf4565b604082019050919050565b60006020820190508181036000830152614c7f81614c43565b9050919050565b7f4e487b7100000000000000000000000000000000000000000000000000000000600052601260045260246000fd5b6000614cc082613936565b9150614ccb83613936565b925082614cdb57614cda614c86565b5b828204905092915050565b7f5061757361626c653a2070617573656400000000000000000000000000000000600082015250565b6000614d1c601083613886565b9150614d2782614ce6565b602082019050919050565b60006020820190508181036000830152614d4b81614d0f565b9050919050565b7f454f41206f6e6c79000000000000000000000000000000000000000000000000600082015250565b6000614d88600883613886565b9150614d9382614d52565b602082019050919050565b60006020820190508181036000830152614db781614d7b565b9050919050565b600060c082019050614dd360008301896139cb565b614de06020830188614186565b614ded60408301876141d3565b614dfa6060830186613a03565b614e0760808301856141d3565b614e1460a08301846141d3565b979650505050505050565b6000606082019050614e3460008301866139cb565b614e416020830185614186565b614e4e6040830184613851565b949350505050565b600081519050614e6581613af6565b92915050565b600060208284031215614e8157614e806137b6565b5b6000614e8f84828501614e56565b91505092915050565b7f4552433732313a206f776e657220717565727920666f72206e6f6e657869737460008201527f656e7420746f6b656e0000000000000000000000000000000000000000000000602082015250565b6000614ef4602983613886565b9150614eff82614e98565b604082019050919050565b60006020820190508181036000830152614f2381614ee7565b9050919050565b7f4f6e6c7920636f6e74726f6c6c6572732063616e206578656375746500000000600082015250565b6000614f60601c83613886565b9150614f6b82614f2a565b602082019050919050565b60006020820190508181036000830152614f8f81614f53565b9050919050565b614f9f816140e6565b82525050565b600060c082019050614fba6000830189613851565b614fc76020830188614186565b614fd46040830187614186565b614fe16060830186614f96565b614fee6080830185614f96565b614ffb60a08301846141d3565b979650505050505050565b60008151905061501581613c1c565b92915050565b600067ffffffffffffffff82111561503657615035613b94565b5b61503f826138ca565b9050602081019050919050565b600061505f61505a8461501b565b613bf4565b90508281526020810184848401111561507b5761507a61437f565b5b615086848285613897565b509392505050565b600082601f8301126150a3576150a2613cec565b5b81516150b384826020860161504c565b91505092915050565b6000806000606084860312156150d5576150d46137b6565b5b60006150e386828701615006565b93505060206150f486828701615006565b925050604084015167ffffffffffffffff811115615115576151146137bb565b5b6151218682870161508e565b9150509250925092565b7f4552433732313a2062616c616e636520717565727920666f7220746865207a6560008201527f726f206164647265737300000000000000000000000000000000000000000000602082015250565b6000615187602a83613886565b91506151928261512b565b604082019050919050565b600060208201905081810360008301526151b68161517a565b9050919050565b7f4552433732314d657461646174613a2055524920717565727920666f72206e6f60008201527f6e2d6578697374656e7420746f6b656e00000000000000000000000000000000602082015250565b6000615219603083613886565b9150615224826151bd565b604082019050919050565b600060208201905081810360008301526152488161520c565b9050919050565b600060208284031215615265576152646137b6565b5b600082015167ffffffffffffffff811115615283576152826137bb565b5b61528f8482850161508e565b91505092915050565b7f4f776e61626c653a206e6577206f776e657220697320746865207a65726f206160008201527f6464726573730000000000000000000000000000000000000000000000000000602082015250565b60006152f4602683613886565b91506152ff82615298565b604082019050919050565b60006020820190508181036000830152615323816152e7565b9050919050565b7f4552433732313a206f70657261746f7220717565727920666f72206e6f6e657860008201527f697374656e7420746f6b656e0000000000000000000000000000000000000000602082015250565b6000615386602c83613886565b91506153918261532a565b604082019050919050565b600060208201905081810360008301526153b581615379565b9050919050565b7f4552433732313a207472616e73666572206f6620746f6b656e2074686174206960008201527f73206e6f74206f776e0000000000000000000000000000000000000000000000602082015250565b6000615418602983613886565b9150615423826153bc565b604082019050919050565b600060208201905081810360008301526154478161540b565b9050919050565b7f4552433732313a207472616e7366657220746f20746865207a65726f2061646460008201527f7265737300000000000000000000000000000000000000000000000000000000602082015250565b60006154aa602483613886565b91506154b58261544e565b604082019050919050565b600060208201905081810360008301526154d98161549d565b9050919050565b60006154eb82613936565b91506154f683613936565b92508282101561550957615508614a63565b5b828203905092915050565b600061551f82613936565b915061552a83613936565b9250827fffffffffffffffffffffffffffffffffffffffffffffffffffffffffffffffff0382111561555f5761555e614a63565b5b828201905092915050565b7f496e697469616c697a61626c653a20636f6e7472616374206973206e6f74206960008201527f6e697469616c697a696e67000000000000000000000000000000000000000000602082015250565b60006155c6602b83613886565b91506155d18261556a565b604082019050919050565b600060208201905081810360008301526155f5816155b9565b9050919050565b7f4552433732313a20617070726f766520746f2063616c6c657200000000000000600082015250565b6000615632601983613886565b915061563d826155fc565b602082019050919050565b6000602082019050818103600083015261566181615625565b9050919050565b7f4552433732313a207472616e7366657220746f206e6f6e20455243373231526560008201527f63656976657220696d706c656d656e7465720000000000000000000000000000602082015250565b60006156c4603283613886565b91506156cf82615668565b604082019050919050565b600060208201905081810360008301526156f3816156b7565b9050919050565b600081519050919050565b600082825260208201905092915050565b6000615721826156fa565b61572b8185615705565b935061573b818560208601613897565b615744816138ca565b840191505092915050565b600060808201905061576460008301876139cb565b61577160208301866139cb565b61577e60408301856141d3565b81810360608301526157908184615716565b905095945050505050565b6000815190506157aa816137ec565b92915050565b6000602082840312156157c6576157c56137b6565b5b60006157d48482850161579b565b91505092915050565b7f4552433732313a206d696e7420746f20746865207a65726f2061646472657373600082015250565b6000615813602083613886565b915061581e826157dd565b602082019050919050565b6000602082019050818103600083015261584281615806565b9050919050565b7f4552433732313a20746f6b656e20616c7265616479206d696e74656400000000600082015250565b600061587f601c83613886565b915061588a82615849565b602082019050919050565b600060208201905081810360008301526158ae81615872565b905091905056fea2646970667358221220bb8f01d947bd6280a700f6023d717754c65a90292c620be684d906f69bcd70a564736f6c634300080a0033",
  "immutableReferences": {},
  "source": "// SPDX-License-Identifier: MIT\n\npragma solidity ^0.8.0;\n\nimport \"@openzeppelin/contracts-upgradeable/proxy/utils/Initializable.sol\";\nimport \"@openzeppelin/contracts-upgradeable/security/PausableUpgradeable.sol\";\nimport \"@openzeppelin/contracts-upgradeable/token/ERC721/ERC721Upgradeable.sol\";\nimport \"./ControllableUpgradeable.sol\";\nimport \"./ICharacter.sol\";\nimport \"./IMint.sol\";\nimport \"./ITraits.sol\";\nimport \"./IProperties.sol\";\nimport \"./IVenue.sol\";\nimport \"./IPaywall.sol\";\n\ncontract Character is ICharacter, Initializable, OwnableUpgradeable, PausableUpgradeable, ERC721Upgradeable, ControllableUpgradeable {\n  uint16 public minted;\n  uint16 public numChefs;\n  uint16 public numRats;\n  uint256 public maxTokens; // Max number of tokens that can be minted\n  uint256 gen0Tokens; // Number of tokens that are purchased with native token\n\n  mapping(uint256 => CharacterStruct) public tokenTraits; // Mapping from tokenId to a struct containing the token's traits\n  mapping(bytes32 => uint16[]) public mintRequests;\n\n  IMint public theMint; // Reference to Mint\n  ITraits public traits; // Reference to Traits\n  IProperties public properties; // Reference to Properties\n  IVenue public kitchen;\n  IPaywall public paywall;\n\n  function initialize(\n    address[] memory _addresses, // paywall, mint, traits, properties\n    uint256 _maxTokens\n  ) external initializer {\n    __Ownable_init();\n    __Pausable_init();\n    __ERC721_init(\"RatAlert Characters\", \"RATCAST\");\n\n    paywall = IPaywall(_addresses[0]);\n    theMint = IMint(_addresses[1]);\n    traits = ITraits(_addresses[2]);\n    properties = IProperties(_addresses[3]);\n    maxTokens = _maxTokens;\n    gen0Tokens = _maxTokens / 5;\n    minted = 0;\n    numChefs = 0;\n    numRats = 0;\n  }\n\n  /**\n   * ChainLink VRF request: Mints a new ERC721 token: 90% chefs, 10% rats\n   * The first 20% are purchased with native token, the remaining cost $FFOOD\n   * @param amount Number of tokens to mint\n   * @param stake Number of tokens to mint\n   */\n  function mint(uint8 amount, bool stake) external payable whenNotPaused {\n    require(tx.origin == _msgSender(), \"EOA only\");\n    paywall.handle(_msgSender(), amount, msg.value, minted, maxTokens, gen0Tokens);\n    bytes32 requestId = theMint.requestRandomNumber(_msgSender(), amount, stake);\n    mintRequests[requestId] = new uint16[](amount);\n    for (uint i = 0; i < amount; i++) {\n      minted++;\n      mintRequests[requestId][i] = minted;\n    }\n  }\n\n  /**\n   * ChainLink VRF callback for mint()\n   * @param v - VRF struct for the corresponding request\n   * @param tokens - List of characters created by the Mint\n   */\n  function fulfillMint(IMint.VRFStruct memory v, CharacterStruct[] memory tokens) external {\n    require(msg.sender == address(theMint), \"Only the Mint can fulfill\");\n    require(mintRequests[v.requestId].length > 0, \"Mint request not found\");\n    uint16[] memory tokenIds = mintRequests[v.requestId];\n    delete mintRequests[v.requestId];\n    for (uint i = 0; i < tokenIds.length; i++) {\n      _safeMint(v.stake ? address(kitchen) : v.sender, tokenIds[i]);\n      tokenTraits[tokenIds[i]] = tokens[i];\n      tokens[i].isChef ? numChefs++ : numRats++;\n    }\n    if (v.stake) kitchen.stakeMany(v.sender, tokenIds);\n  }\n\n  function updateCharacter(uint256 tokenId, int8 efficiencyIncrement, int8 toleranceIncrement, uint256 randomVal) public onlyController returns(uint8 efficiencyValue, uint8 toleranceValue, string memory eventName) {\n    bool isChef = tokenTraits[tokenId].isChef;\n    uint8 currentEfficiency = tokenTraits[tokenId].efficiency;\n    uint8 currentTolerance = tokenTraits[tokenId].tolerance;\n    (efficiencyValue, toleranceValue, eventName) = properties.getEventUpdates(isChef, currentEfficiency, currentTolerance, efficiencyIncrement, toleranceIncrement, randomVal);\n    tokenTraits[tokenId].efficiency = efficiencyValue;\n    tokenTraits[tokenId].tolerance = toleranceValue;\n  }\n\n  function tokenURI(uint256 tokenId) public view override returns (string memory) {\n    require(_exists(tokenId), \"ERC721Metadata: URI query for non-existent token\");\n    return traits.tokenURI(tokenId);\n  }\n\n  function getTokenTraits(uint256 tokenId) external view override returns (CharacterStruct memory) {\n    require(_exists(tokenId), \"ERC721Metadata: URI query for non-existent token\");\n    return tokenTraits[tokenId];\n  }\n\n  function getGen0Tokens() external view override returns (uint256) {\n    return gen0Tokens;\n  }\n\n  /**\n   * Sets the kitchen address to optionally stake newly minted characters in\n   * @param _kitchen - The address of the Kitchen\n   */\n  function setKitchen(address _kitchen) external onlyOwner {\n    kitchen = IVenue(_kitchen);\n  }\n}\n",
  "sourcePath": "/Users/chris/workspace/ratalert/ratalert-contracts/contracts/Character.sol",
  "compiler": {
    "name": "solc",
    "version": "0.8.10+commit.fc410830.Emscripten.clang"
  },
  "schemaVersion": "3.4.5",
  "updatedAt": "2022-03-12T10:31:31.743Z",
  "networkType": "ethereum",
  "devdoc": {
    "kind": "dev",
    "methods": {
      "addController(address)": {
        "params": {
          "_controller": "- The address to enable"
        }
      },
      "approve(address,uint256)": {
        "details": "See {IERC721-approve}."
      },
      "balanceOf(address)": {
        "details": "See {IERC721-balanceOf}."
      },
      "controller(address)": {
        "params": {
          "_controller": "- The address to check"
        }
      },
      "fulfillMint((bytes32,address,uint8,bool),(bool,uint8,uint8,uint8,uint8,uint8,uint8,uint8,uint8,uint8)[])": {
        "params": {
          "tokens": "- List of characters created by the Mint",
          "v": "- VRF struct for the corresponding request"
        }
      },
      "getApproved(uint256)": {
        "details": "See {IERC721-getApproved}."
      },
      "isApprovedForAll(address,address)": {
        "details": "See {IERC721-isApprovedForAll}."
      },
      "mint(uint8,bool)": {
        "params": {
          "amount": "Number of tokens to mint",
          "stake": "Number of tokens to mint"
        }
      },
      "name()": {
        "details": "See {IERC721Metadata-name}."
      },
      "owner()": {
        "details": "Returns the address of the current owner."
      },
      "ownerOf(uint256)": {
        "details": "See {IERC721-ownerOf}."
      },
      "paused()": {
        "details": "Returns true if the contract is paused, and false otherwise."
      },
      "removeController(address)": {
        "params": {
          "_controller": "- The address to disable"
        }
      },
      "renounceOwnership()": {
        "details": "Leaves the contract without owner. It will not be possible to call `onlyOwner` functions anymore. Can only be called by the current owner. NOTE: Renouncing ownership will leave the contract without an owner, thereby removing any functionality that is only available to the owner."
      },
      "safeTransferFrom(address,address,uint256)": {
        "details": "See {IERC721-safeTransferFrom}."
      },
      "safeTransferFrom(address,address,uint256,bytes)": {
        "details": "See {IERC721-safeTransferFrom}."
      },
      "setApprovalForAll(address,bool)": {
        "details": "See {IERC721-setApprovalForAll}."
      },
      "setKitchen(address)": {
        "params": {
          "_kitchen": "- The address of the Kitchen"
        }
      },
      "supportsInterface(bytes4)": {
        "details": "See {IERC165-supportsInterface}."
      },
      "symbol()": {
        "details": "See {IERC721Metadata-symbol}."
      },
      "tokenURI(uint256)": {
        "details": "See {IERC721Metadata-tokenURI}."
      },
      "transferFrom(address,address,uint256)": {
        "details": "See {IERC721-transferFrom}."
      },
      "transferOwnership(address)": {
        "details": "Transfers ownership of the contract to a new account (`newOwner`). Can only be called by the current owner."
      }
    },
    "version": 1
  },
  "userdoc": {
    "kind": "user",
    "methods": {
      "addController(address)": {
        "notice": "Enables an address to mint / burn"
      },
      "controller(address)": {
        "notice": "Gets controller status by address"
      },
      "fulfillMint((bytes32,address,uint8,bool),(bool,uint8,uint8,uint8,uint8,uint8,uint8,uint8,uint8,uint8)[])": {
        "notice": "ChainLink VRF callback for mint()"
      },
      "mint(uint8,bool)": {
        "notice": "ChainLink VRF request: Mints a new ERC721 token: 90% chefs, 10% rats The first 20% are purchased with native token, the remaining cost $FFOOD"
      },
      "removeController(address)": {
        "notice": "Disables an address from minting / burning"
      },
      "setKitchen(address)": {
        "notice": "Sets the kitchen address to optionally stake newly minted characters in"
      }
    },
    "version": 1
  }
}