{
  "contractName": "Character",
  "abi": [
    {
      "anonymous": false,
      "inputs": [
        {
          "indexed": true,
          "internalType": "address",
          "name": "owner",
          "type": "address"
        },
        {
          "indexed": true,
          "internalType": "address",
          "name": "approved",
          "type": "address"
        },
        {
          "indexed": true,
          "internalType": "uint256",
          "name": "tokenId",
          "type": "uint256"
        }
      ],
      "name": "Approval",
      "type": "event"
    },
    {
      "anonymous": false,
      "inputs": [
        {
          "indexed": true,
          "internalType": "address",
          "name": "owner",
          "type": "address"
        },
        {
          "indexed": true,
          "internalType": "address",
          "name": "operator",
          "type": "address"
        },
        {
          "indexed": false,
          "internalType": "bool",
          "name": "approved",
          "type": "bool"
        }
      ],
      "name": "ApprovalForAll",
      "type": "event"
    },
    {
      "anonymous": false,
      "inputs": [
        {
          "indexed": true,
          "internalType": "address",
          "name": "previousOwner",
          "type": "address"
        },
        {
          "indexed": true,
          "internalType": "address",
          "name": "newOwner",
          "type": "address"
        }
      ],
      "name": "OwnershipTransferred",
      "type": "event"
    },
    {
      "anonymous": false,
      "inputs": [
        {
          "indexed": false,
          "internalType": "address",
          "name": "account",
          "type": "address"
        }
      ],
      "name": "Paused",
      "type": "event"
    },
    {
      "anonymous": false,
      "inputs": [
        {
          "indexed": true,
          "internalType": "address",
          "name": "from",
          "type": "address"
        },
        {
          "indexed": true,
          "internalType": "address",
          "name": "to",
          "type": "address"
        },
        {
          "indexed": true,
          "internalType": "uint256",
          "name": "tokenId",
          "type": "uint256"
        }
      ],
      "name": "Transfer",
      "type": "event"
    },
    {
      "anonymous": false,
      "inputs": [
        {
          "indexed": false,
          "internalType": "address",
          "name": "account",
          "type": "address"
        }
      ],
      "name": "Unpaused",
      "type": "event"
    },
    {
      "inputs": [
        {
          "internalType": "address",
          "name": "_controller",
          "type": "address"
        }
      ],
      "name": "addController",
      "outputs": [],
      "stateMutability": "nonpayable",
      "type": "function"
    },
    {
      "inputs": [
        {
          "internalType": "address",
          "name": "to",
          "type": "address"
        },
        {
          "internalType": "uint256",
          "name": "tokenId",
          "type": "uint256"
        }
      ],
      "name": "approve",
      "outputs": [],
      "stateMutability": "nonpayable",
      "type": "function"
    },
    {
      "inputs": [
        {
          "internalType": "address",
          "name": "owner",
          "type": "address"
        }
      ],
      "name": "balanceOf",
      "outputs": [
        {
          "internalType": "uint256",
          "name": "",
          "type": "uint256"
        }
      ],
      "stateMutability": "view",
      "type": "function",
      "constant": true
    },
    {
      "inputs": [
        {
          "internalType": "address",
          "name": "_controller",
          "type": "address"
        }
      ],
      "name": "controller",
      "outputs": [
        {
          "internalType": "bool",
          "name": "",
          "type": "bool"
        }
      ],
      "stateMutability": "view",
      "type": "function",
      "constant": true
    },
    {
      "inputs": [],
      "name": "dao",
      "outputs": [
        {
          "internalType": "address payable",
          "name": "",
          "type": "address"
        }
      ],
      "stateMutability": "view",
      "type": "function",
      "constant": true
    },
    {
      "inputs": [
        {
          "internalType": "uint256",
          "name": "tokenId",
          "type": "uint256"
        }
      ],
      "name": "getApproved",
      "outputs": [
        {
          "internalType": "address",
          "name": "",
          "type": "address"
        }
      ],
      "stateMutability": "view",
      "type": "function",
      "constant": true
    },
    {
      "inputs": [
        {
          "internalType": "address",
          "name": "owner",
          "type": "address"
        },
        {
          "internalType": "address",
          "name": "operator",
          "type": "address"
        }
      ],
      "name": "isApprovedForAll",
      "outputs": [
        {
          "internalType": "bool",
          "name": "",
          "type": "bool"
        }
      ],
      "stateMutability": "view",
      "type": "function",
      "constant": true
    },
    {
      "inputs": [],
      "name": "kitchen",
      "outputs": [
        {
          "internalType": "contract IVenue",
          "name": "",
          "type": "address"
        }
      ],
      "stateMutability": "view",
      "type": "function",
      "constant": true
    },
    {
      "inputs": [],
      "name": "maxTokens",
      "outputs": [
        {
          "internalType": "uint256",
          "name": "",
          "type": "uint256"
        }
      ],
      "stateMutability": "view",
      "type": "function",
      "constant": true
    },
    {
      "inputs": [
        {
          "internalType": "bytes32",
          "name": "",
          "type": "bytes32"
        },
        {
          "internalType": "uint256",
          "name": "",
          "type": "uint256"
        }
      ],
      "name": "mintRequests",
      "outputs": [
        {
          "internalType": "uint16",
          "name": "",
          "type": "uint16"
        }
      ],
      "stateMutability": "view",
      "type": "function",
      "constant": true
    },
    {
      "inputs": [],
      "name": "minted",
      "outputs": [
        {
          "internalType": "uint16",
          "name": "",
          "type": "uint16"
        }
      ],
      "stateMutability": "view",
      "type": "function",
      "constant": true
    },
    {
      "inputs": [],
      "name": "name",
      "outputs": [
        {
          "internalType": "string",
          "name": "",
          "type": "string"
        }
      ],
      "stateMutability": "view",
      "type": "function",
      "constant": true
    },
    {
      "inputs": [],
      "name": "numChefs",
      "outputs": [
        {
          "internalType": "uint16",
          "name": "",
          "type": "uint16"
        }
      ],
      "stateMutability": "view",
      "type": "function",
      "constant": true
    },
    {
      "inputs": [],
      "name": "numRats",
      "outputs": [
        {
          "internalType": "uint16",
          "name": "",
          "type": "uint16"
        }
      ],
      "stateMutability": "view",
      "type": "function",
      "constant": true
    },
    {
      "inputs": [],
      "name": "owner",
      "outputs": [
        {
          "internalType": "address",
          "name": "",
          "type": "address"
        }
      ],
      "stateMutability": "view",
      "type": "function",
      "constant": true
    },
    {
      "inputs": [
        {
          "internalType": "uint256",
          "name": "tokenId",
          "type": "uint256"
        }
      ],
      "name": "ownerOf",
      "outputs": [
        {
          "internalType": "address",
          "name": "",
          "type": "address"
        }
      ],
      "stateMutability": "view",
      "type": "function",
      "constant": true
    },
    {
      "inputs": [],
      "name": "pause",
      "outputs": [],
      "stateMutability": "nonpayable",
      "type": "function"
    },
    {
      "inputs": [],
      "name": "paused",
      "outputs": [
        {
          "internalType": "bool",
          "name": "",
          "type": "bool"
        }
      ],
      "stateMutability": "view",
      "type": "function",
      "constant": true
    },
    {
      "inputs": [],
      "name": "paywall",
      "outputs": [
        {
          "internalType": "contract IPaywall",
          "name": "",
          "type": "address"
        }
      ],
      "stateMutability": "view",
      "type": "function",
      "constant": true
    },
    {
      "inputs": [],
      "name": "properties",
      "outputs": [
        {
          "internalType": "contract IProperties",
          "name": "",
          "type": "address"
        }
      ],
      "stateMutability": "view",
      "type": "function",
      "constant": true
    },
    {
      "inputs": [
        {
          "internalType": "address",
          "name": "_controller",
          "type": "address"
        }
      ],
      "name": "removeController",
      "outputs": [],
      "stateMutability": "nonpayable",
      "type": "function"
    },
    {
      "inputs": [],
      "name": "renounceOwnership",
      "outputs": [],
      "stateMutability": "nonpayable",
      "type": "function"
    },
    {
      "inputs": [
        {
          "internalType": "address",
          "name": "from",
          "type": "address"
        },
        {
          "internalType": "address",
          "name": "to",
          "type": "address"
        },
        {
          "internalType": "uint256",
          "name": "tokenId",
          "type": "uint256"
        }
      ],
      "name": "safeTransferFrom",
      "outputs": [],
      "stateMutability": "nonpayable",
      "type": "function"
    },
    {
      "inputs": [
        {
          "internalType": "address",
          "name": "from",
          "type": "address"
        },
        {
          "internalType": "address",
          "name": "to",
          "type": "address"
        },
        {
          "internalType": "uint256",
          "name": "tokenId",
          "type": "uint256"
        },
        {
          "internalType": "bytes",
          "name": "_data",
          "type": "bytes"
        }
      ],
      "name": "safeTransferFrom",
      "outputs": [],
      "stateMutability": "nonpayable",
      "type": "function"
    },
    {
      "inputs": [
        {
          "internalType": "address",
          "name": "operator",
          "type": "address"
        },
        {
          "internalType": "bool",
          "name": "approved",
          "type": "bool"
        }
      ],
      "name": "setApprovalForAll",
      "outputs": [],
      "stateMutability": "nonpayable",
      "type": "function"
    },
    {
      "inputs": [
        {
          "internalType": "bytes4",
          "name": "interfaceId",
          "type": "bytes4"
        }
      ],
      "name": "supportsInterface",
      "outputs": [
        {
          "internalType": "bool",
          "name": "",
          "type": "bool"
        }
      ],
      "stateMutability": "view",
      "type": "function",
      "constant": true
    },
    {
      "inputs": [],
      "name": "symbol",
      "outputs": [
        {
          "internalType": "string",
          "name": "",
          "type": "string"
        }
      ],
      "stateMutability": "view",
      "type": "function",
      "constant": true
    },
    {
      "inputs": [],
      "name": "theMint",
      "outputs": [
        {
          "internalType": "contract IMint",
          "name": "",
          "type": "address"
        }
      ],
      "stateMutability": "view",
      "type": "function",
      "constant": true
    },
    {
      "inputs": [
        {
          "internalType": "uint256",
          "name": "",
          "type": "uint256"
        }
      ],
      "name": "tokenTraits",
      "outputs": [
        {
          "internalType": "bool",
          "name": "isChef",
          "type": "bool"
        },
        {
          "internalType": "uint8",
          "name": "hat",
          "type": "uint8"
        },
        {
          "internalType": "uint8",
          "name": "eyes",
          "type": "uint8"
        },
        {
          "internalType": "uint8",
          "name": "piercing",
          "type": "uint8"
        },
        {
          "internalType": "uint8",
          "name": "mouth",
          "type": "uint8"
        },
        {
          "internalType": "uint8",
          "name": "neck",
          "type": "uint8"
        },
        {
          "internalType": "uint8",
          "name": "hand",
          "type": "uint8"
        },
        {
          "internalType": "uint8",
          "name": "tail",
          "type": "uint8"
        },
        {
          "internalType": "uint8",
          "name": "efficiency",
          "type": "uint8"
        },
        {
          "internalType": "uint8",
          "name": "tolerance",
          "type": "uint8"
        }
      ],
      "stateMutability": "view",
      "type": "function",
      "constant": true
    },
    {
      "inputs": [],
      "name": "traits",
      "outputs": [
        {
          "internalType": "contract ITraits",
          "name": "",
          "type": "address"
        }
      ],
      "stateMutability": "view",
      "type": "function",
      "constant": true
    },
    {
      "inputs": [
        {
          "internalType": "address",
          "name": "from",
          "type": "address"
        },
        {
          "internalType": "address",
          "name": "to",
          "type": "address"
        },
        {
          "internalType": "uint256",
          "name": "tokenId",
          "type": "uint256"
        }
      ],
      "name": "transferFrom",
      "outputs": [],
      "stateMutability": "nonpayable",
      "type": "function"
    },
    {
      "inputs": [
        {
          "internalType": "address",
          "name": "newOwner",
          "type": "address"
        }
      ],
      "name": "transferOwnership",
      "outputs": [],
      "stateMutability": "nonpayable",
      "type": "function"
    },
    {
      "inputs": [],
      "name": "unpause",
      "outputs": [],
      "stateMutability": "nonpayable",
      "type": "function"
    },
    {
      "inputs": [
        {
          "internalType": "address[]",
          "name": "_addresses",
          "type": "address[]"
        },
        {
          "internalType": "uint256",
          "name": "_maxTokens",
          "type": "uint256"
        }
      ],
      "name": "initialize",
      "outputs": [],
      "stateMutability": "nonpayable",
      "type": "function"
    },
    {
      "inputs": [
        {
          "internalType": "uint8",
          "name": "amount",
          "type": "uint8"
        },
        {
          "internalType": "bool",
          "name": "stake",
          "type": "bool"
        }
      ],
      "name": "mint",
      "outputs": [],
      "stateMutability": "payable",
      "type": "function",
      "payable": true
    },
    {
      "inputs": [
        {
          "components": [
            {
              "internalType": "bytes32",
              "name": "requestId",
              "type": "bytes32"
            },
            {
              "internalType": "address",
              "name": "sender",
              "type": "address"
            },
            {
              "internalType": "uint8",
              "name": "amount",
              "type": "uint8"
            },
            {
              "internalType": "bool",
              "name": "stake",
              "type": "bool"
            }
          ],
          "internalType": "struct IMint.VRFStruct",
          "name": "v",
          "type": "tuple"
        },
        {
          "components": [
            {
              "internalType": "bool",
              "name": "isChef",
              "type": "bool"
            },
            {
              "internalType": "uint8",
              "name": "hat",
              "type": "uint8"
            },
            {
              "internalType": "uint8",
              "name": "eyes",
              "type": "uint8"
            },
            {
              "internalType": "uint8",
              "name": "piercing",
              "type": "uint8"
            },
            {
              "internalType": "uint8",
              "name": "mouth",
              "type": "uint8"
            },
            {
              "internalType": "uint8",
              "name": "neck",
              "type": "uint8"
            },
            {
              "internalType": "uint8",
              "name": "hand",
              "type": "uint8"
            },
            {
              "internalType": "uint8",
              "name": "tail",
              "type": "uint8"
            },
            {
              "internalType": "uint8",
              "name": "efficiency",
              "type": "uint8"
            },
            {
              "internalType": "uint8",
              "name": "tolerance",
              "type": "uint8"
            }
          ],
          "internalType": "struct ICharacter.CharacterStruct[]",
          "name": "tokens",
          "type": "tuple[]"
        }
      ],
      "name": "fulfillMint",
      "outputs": [],
      "stateMutability": "nonpayable",
      "type": "function"
    },
    {
      "inputs": [
        {
          "internalType": "uint256",
          "name": "tokenId",
          "type": "uint256"
        },
        {
          "internalType": "int8",
          "name": "efficiencyIncrement",
          "type": "int8"
        },
        {
          "internalType": "int8",
          "name": "toleranceIncrement",
          "type": "int8"
        },
        {
          "internalType": "uint256",
          "name": "randomVal",
          "type": "uint256"
        }
      ],
      "name": "updateCharacter",
      "outputs": [
        {
          "internalType": "uint8",
          "name": "efficiencyValue",
          "type": "uint8"
        },
        {
          "internalType": "uint8",
          "name": "toleranceValue",
          "type": "uint8"
        },
        {
          "internalType": "string",
          "name": "eventName",
          "type": "string"
        }
      ],
      "stateMutability": "nonpayable",
      "type": "function"
    },
    {
      "inputs": [
        {
          "internalType": "uint256",
          "name": "tokenId",
          "type": "uint256"
        }
      ],
      "name": "tokenURI",
      "outputs": [
        {
          "internalType": "string",
          "name": "",
          "type": "string"
        }
      ],
      "stateMutability": "view",
      "type": "function",
      "constant": true
    },
    {
      "inputs": [
        {
          "internalType": "uint256",
          "name": "tokenId",
          "type": "uint256"
        }
      ],
      "name": "getTokenTraits",
      "outputs": [
        {
          "components": [
            {
              "internalType": "bool",
              "name": "isChef",
              "type": "bool"
            },
            {
              "internalType": "uint8",
              "name": "hat",
              "type": "uint8"
            },
            {
              "internalType": "uint8",
              "name": "eyes",
              "type": "uint8"
            },
            {
              "internalType": "uint8",
              "name": "piercing",
              "type": "uint8"
            },
            {
              "internalType": "uint8",
              "name": "mouth",
              "type": "uint8"
            },
            {
              "internalType": "uint8",
              "name": "neck",
              "type": "uint8"
            },
            {
              "internalType": "uint8",
              "name": "hand",
              "type": "uint8"
            },
            {
              "internalType": "uint8",
              "name": "tail",
              "type": "uint8"
            },
            {
              "internalType": "uint8",
              "name": "efficiency",
              "type": "uint8"
            },
            {
              "internalType": "uint8",
              "name": "tolerance",
              "type": "uint8"
            }
          ],
          "internalType": "struct ICharacter.CharacterStruct",
          "name": "",
          "type": "tuple"
        }
      ],
      "stateMutability": "view",
      "type": "function",
      "constant": true
    },
    {
      "inputs": [],
      "name": "getGen0Tokens",
      "outputs": [
        {
          "internalType": "uint256",
          "name": "",
          "type": "uint256"
        }
      ],
      "stateMutability": "view",
      "type": "function",
      "constant": true
    },
    {
      "inputs": [
        {
          "internalType": "address",
          "name": "_kitchen",
          "type": "address"
        }
      ],
      "name": "setKitchen",
      "outputs": [],
      "stateMutability": "nonpayable",
      "type": "function"
    }
  ],
  "bytecode": "0x608060405234801561001057600080fd5b50615d9e80620000216000396000f3fe6080604052600436106102465760003560e01c8063715018a611610139578063ba0909dd116100b6578063e1fc334f1161007a578063e1fc334f1461088e578063e8315742146108b9578063e985e9c5146108e4578063f2fde38b14610921578063f6a74ed71461094a578063fcd802b11461097357610246565b8063ba0909dd14610778578063c13aa7b5146107a3578063c87b56dd146107e0578063d39f8a4d1461081d578063e05c57bf1461084857610246565b806394e56847116100fd57806394e568471461069557806395d89b41146106d2578063a22cb465146106fd578063a7fc7a0714610726578063b88d4fde1461074f57610246565b8063715018a6146105e65780637856f945146105fd5780638456cb59146106285780638da5cb5b1461063f5780639284521c1461066a57610246565b806342842e0e116101c757806360b5bb3f1161018b57806360b5bb3f146104e8578063612bfba4146105115780636352211e1461052d57806363dbfc771461056a57806370a08231146105a957610246565b806342842e0e146104155780634a43d1d31461043e5780634f02c42014610467578063506b1761146104925780635c975abb146104bd57610246565b806323b872dd1161020e57806323b872dd1461034457806332de72091461036d578063337f2847146103aa5780633f4ba83a146103d35780634162169f146103ea57610246565b806301ffc9a71461024b57806306fdde0314610288578063081812fc146102b35780630917e40d146102f0578063095ea7b31461031b575b600080fd5b34801561025757600080fd5b50610272600480360381019061026d9190613c23565b61099e565b60405161027f9190613c6b565b60405180910390f35b34801561029457600080fd5b5061029d610a80565b6040516102aa9190613d1f565b60405180910390f35b3480156102bf57600080fd5b506102da60048036038101906102d59190613d77565b610b12565b6040516102e79190613de5565b60405180910390f35b3480156102fc57600080fd5b50610305610b97565b6040516103129190613e1d565b60405180910390f35b34801561032757600080fd5b50610342600480360381019061033d9190613e64565b610bab565b005b34801561035057600080fd5b5061036b60048036038101906103669190613ea4565b610cc3565b005b34801561037957600080fd5b50610394600480360381019061038f9190613f2d565b610d23565b6040516103a19190613e1d565b60405180910390f35b3480156103b657600080fd5b506103d160048036038101906103cc9190613f6d565b610d6b565b005b3480156103df57600080fd5b506103e8610e2c565b005b3480156103f657600080fd5b506103ff610eb2565b60405161040c9190613fbb565b60405180910390f35b34801561042157600080fd5b5061043c60048036038101906104379190613ea4565b610ed9565b005b34801561044a57600080fd5b50610465600480360381019061046091906142f8565b610ef9565b005b34801561047357600080fd5b5061047c611442565b6040516104899190613e1d565b60405180910390f35b34801561049e57600080fd5b506104a7611456565b6040516104b491906143b3565b60405180910390f35b3480156104c957600080fd5b506104d261147d565b6040516104df9190613c6b565b60405180910390f35b3480156104f457600080fd5b5061050f600480360381019061050a9190614491565b611494565b005b61052b600480360381019061052691906144ed565b611843565b005b34801561053957600080fd5b50610554600480360381019061054f9190613d77565b611c11565b6040516105619190613de5565b60405180910390f35b34801561057657600080fd5b50610591600480360381019061058c9190614566565b611cc3565b6040516105a0939291906145dc565b60405180910390f35b3480156105b557600080fd5b506105d060048036038101906105cb9190613f6d565b611ef1565b6040516105dd9190614629565b60405180910390f35b3480156105f257600080fd5b506105fb611fa9565b005b34801561060957600080fd5b50610612612031565b60405161061f9190614629565b60405180910390f35b34801561063457600080fd5b5061063d61203b565b005b34801561064b57600080fd5b506106546120c1565b6040516106619190613de5565b60405180910390f35b34801561067657600080fd5b5061067f6120eb565b60405161068c9190614665565b60405180910390f35b3480156106a157600080fd5b506106bc60048036038101906106b79190613d77565b612112565b6040516106c9919061476a565b60405180910390f35b3480156106de57600080fd5b506106e76122a8565b6040516106f49190613d1f565b60405180910390f35b34801561070957600080fd5b50610724600480360381019061071f9190614786565b61233a565b005b34801561073257600080fd5b5061074d60048036038101906107489190613f6d565b612350565b005b34801561075b57600080fd5b506107766004803603810190610771919061487b565b612427565b005b34801561078457600080fd5b5061078d612489565b60405161079a919061491f565b60405180910390f35b3480156107af57600080fd5b506107ca60048036038101906107c59190613f6d565b6124b0565b6040516107d79190613c6b565b60405180910390f35b3480156107ec57600080fd5b5061080760048036038101906108029190613d77565b612582565b6040516108149190613d1f565b60405180910390f35b34801561082957600080fd5b50610832612675565b60405161083f9190613e1d565b60405180910390f35b34801561085457600080fd5b5061086f600480360381019061086a9190613d77565b612689565b6040516108859a9998979695949392919061493a565b60405180910390f35b34801561089a57600080fd5b506108a361275f565b6040516108b091906149f7565b60405180910390f35b3480156108c557600080fd5b506108ce612786565b6040516108db9190614629565b60405180910390f35b3480156108f057600080fd5b5061090b60048036038101906109069190614a12565b61278c565b6040516109189190613c6b565b60405180910390f35b34801561092d57600080fd5b5061094860048036038101906109439190613f6d565b612820565b005b34801561095657600080fd5b50610971600480360381019061096c9190613f6d565b612918565b005b34801561097f57600080fd5b506109886129ef565b6040516109959190614a73565b60405180910390f35b60007f80ac58cd000000000000000000000000000000000000000000000000000000007bffffffffffffffffffffffffffffffffffffffffffffffffffffffff1916827bffffffffffffffffffffffffffffffffffffffffffffffffffffffff19161480610a6957507f5b5e139f000000000000000000000000000000000000000000000000000000007bffffffffffffffffffffffffffffffffffffffffffffffffffffffff1916827bffffffffffffffffffffffffffffffffffffffffffffffffffffffff1916145b80610a795750610a7882612a16565b5b9050919050565b606060c98054610a8f90614abd565b80601f0160208091040260200160405190810160405280929190818152602001828054610abb90614abd565b8015610b085780601f10610add57610100808354040283529160200191610b08565b820191906000526020600020905b815481529060010190602001808311610aeb57829003601f168201915b5050505050905090565b6000610b1d82612a80565b610b5c576040517f08c379a0000000000000000000000000000000000000000000000000000000008152600401610b5390614b61565b60405180910390fd5b60cd600083815260200190815260200160002060009054906101000a900473ffffffffffffffffffffffffffffffffffffffff169050919050565b60fc60049054906101000a900461ffff1681565b6000610bb682611c11565b90508073ffffffffffffffffffffffffffffffffffffffff168373ffffffffffffffffffffffffffffffffffffffff161415610c27576040517f08c379a0000000000000000000000000000000000000000000000000000000008152600401610c1e90614bf3565b60405180910390fd5b8073ffffffffffffffffffffffffffffffffffffffff16610c46612aec565b73ffffffffffffffffffffffffffffffffffffffff161480610c755750610c7481610c6f612aec565b61278c565b5b610cb4576040517f08c379a0000000000000000000000000000000000000000000000000000000008152600401610cab90614c85565b60405180910390fd5b610cbe8383612af4565b505050565b610cd4610cce612aec565b82612bad565b610d13576040517f08c379a0000000000000000000000000000000000000000000000000000000008152600401610d0a90614d17565b60405180910390fd5b610d1e838383612c8b565b505050565b6101006020528160005260406000208181548110610d4057600080fd5b9060005260206000209060109182820401919006600202915091509054906101000a900461ffff1681565b610d73612aec565b73ffffffffffffffffffffffffffffffffffffffff16610d916120c1565b73ffffffffffffffffffffffffffffffffffffffff1614610de7576040517f08c379a0000000000000000000000000000000000000000000000000000000008152600401610dde90614d83565b60405180910390fd5b8061010460006101000a81548173ffffffffffffffffffffffffffffffffffffffff021916908373ffffffffffffffffffffffffffffffffffffffff16021790555050565b610e34612aec565b73ffffffffffffffffffffffffffffffffffffffff16610e526120c1565b73ffffffffffffffffffffffffffffffffffffffff1614610ea8576040517f08c379a0000000000000000000000000000000000000000000000000000000008152600401610e9f90614d83565b60405180910390fd5b610eb0612ee7565b565b61010660009054906101000a900473ffffffffffffffffffffffffffffffffffffffff1681565b610ef483838360405180602001604052806000815250612427565b505050565b610f0161147d565b15610f41576040517f08c379a0000000000000000000000000000000000000000000000000000000008152600401610f3890614def565b60405180910390fd5b61010160009054906101000a900473ffffffffffffffffffffffffffffffffffffffff1673ffffffffffffffffffffffffffffffffffffffff163373ffffffffffffffffffffffffffffffffffffffff1614610fd2576040517f08c379a0000000000000000000000000000000000000000000000000000000008152600401610fc990614e5b565b60405180910390fd5b60006101006000846000015181526020019081526020016000208054905011611030576040517f08c379a000000000000000000000000000000000000000000000000000000000815260040161102790614ec7565b60405180910390fd5b60006101006000846000015181526020019081526020016000208054806020026020016040519081016040528092919081815260200182805480156110bc57602002820191906000526020600020906000905b82829054906101000a900461ffff1661ffff16815260200190600201906020826001010492830192600103820291508084116110835790505b5050505050905061010060008460000151815260200190815260200160002060006110e791906139d2565b60005b815181101561139d57611152846060015161110957846020015161112e565b61010460009054906101000a900473ffffffffffffffffffffffffffffffffffffffff165b83838151811061114157611140614ee7565b5b602002602001015161ffff16612f89565b82818151811061116557611164614ee7565b5b602002602001015160ff600084848151811061118457611183614ee7565b5b602002602001015161ffff16815260200190815260200160002060008201518160000160006101000a81548160ff02191690831515021790555060208201518160000160016101000a81548160ff021916908360ff16021790555060408201518160000160026101000a81548160ff021916908360ff16021790555060608201518160000160036101000a81548160ff021916908360ff16021790555060808201518160000160046101000a81548160ff021916908360ff16021790555060a08201518160000160056101000a81548160ff021916908360ff16021790555060c08201518160000160066101000a81548160ff021916908360ff16021790555060e08201518160000160076101000a81548160ff021916908360ff1602179055506101008201518160000160086101000a81548160ff021916908360ff1602179055506101208201518160000160096101000a81548160ff021916908360ff1602179055509050508281815181106112ff576112fe614ee7565b5b60200260200101516000015161134e5760fc600481819054906101000a900461ffff168092919061132f90614f45565b91906101000a81548161ffff021916908361ffff160217905550611389565b60fc600281819054906101000a900461ffff168092919061136e90614f45565b91906101000a81548161ffff021916908361ffff1602179055505b50808061139590614f70565b9150506110ea565b5082606001511561143d5761010460009054906101000a900473ffffffffffffffffffffffffffffffffffffffff1673ffffffffffffffffffffffffffffffffffffffff1663dbdc1f6b8460200151836040518363ffffffff1660e01b815260040161140a929190615077565b600060405180830381600087803b15801561142457600080fd5b505af1158015611438573d6000803e3d6000fd5b505050505b505050565b60fc60009054906101000a900461ffff1681565b61010560009054906101000a900473ffffffffffffffffffffffffffffffffffffffff1681565b6000606560009054906101000a900460ff16905090565b600060019054906101000a900460ff166114bc5760008054906101000a900460ff16156114c5565b6114c4612fa7565b5b611504576040517f08c379a00000000000000000000000000000000000000000000000000000000081526004016114fb90615119565b60405180910390fd5b60008060019054906101000a900460ff161590508015611554576001600060016101000a81548160ff02191690831515021790555060016000806101000a81548160ff0219169083151502179055505b61155c612fb8565b611564613019565b6115d86040518060400160405280601381526020017f526174416c6572742043686172616374657273000000000000000000000000008152506040518060400160405280600781526020017f524154434153540000000000000000000000000000000000000000000000000081525061307a565b826000815181106115ec576115eb614ee7565b5b602002602001015161010560006101000a81548173ffffffffffffffffffffffffffffffffffffffff021916908373ffffffffffffffffffffffffffffffffffffffff1602179055508260018151811061164957611648614ee7565b5b602002602001015161010160006101000a81548173ffffffffffffffffffffffffffffffffffffffff021916908373ffffffffffffffffffffffffffffffffffffffff160217905550826002815181106116a6576116a5614ee7565b5b602002602001015161010260006101000a81548173ffffffffffffffffffffffffffffffffffffffff021916908373ffffffffffffffffffffffffffffffffffffffff1602179055508260038151811061170357611702614ee7565b5b602002602001015161010360006101000a81548173ffffffffffffffffffffffffffffffffffffffff021916908373ffffffffffffffffffffffffffffffffffffffff160217905550826004815181106117605761175f614ee7565b5b602002602001015161010660006101000a81548173ffffffffffffffffffffffffffffffffffffffff021916908373ffffffffffffffffffffffffffffffffffffffff1602179055508160fd819055506005826117bd9190615168565b60fe81905550600060fc60006101000a81548161ffff021916908361ffff160217905550600060fc60026101000a81548161ffff021916908361ffff160217905550600060fc60046101000a81548161ffff021916908361ffff160217905550801561183e5760008060016101000a81548160ff0219169083151502179055505b505050565b61184b61147d565b1561188b576040517f08c379a000000000000000000000000000000000000000000000000000000000815260040161188290614def565b60405180910390fd5b611893612aec565b73ffffffffffffffffffffffffffffffffffffffff163273ffffffffffffffffffffffffffffffffffffffff1614611900576040517f08c379a00000000000000000000000000000000000000000000000000000000081526004016118f7906151e5565b60405180910390fd5b61010560009054906101000a900473ffffffffffffffffffffffffffffffffffffffff1673ffffffffffffffffffffffffffffffffffffffff1663abc26c60611947612aec565b843460fc60009054906101000a900461ffff1660fd5460fe546040518763ffffffff1660e01b815260040161198196959493929190615205565b600060405180830381600087803b15801561199b57600080fd5b505af11580156119af573d6000803e3d6000fd5b505050506000341115611a275761010660009054906101000a900473ffffffffffffffffffffffffffffffffffffffff1673ffffffffffffffffffffffffffffffffffffffff166108fc349081150290604051600060405180830381858888f19350505050158015611a25573d6000803e3d6000fd5b505b600061010160009054906101000a900473ffffffffffffffffffffffffffffffffffffffff1673ffffffffffffffffffffffffffffffffffffffff1663de864bf9611a70612aec565b85856040518463ffffffff1660e01b8152600401611a9093929190615266565b6020604051808303816000875af1158015611aaf573d6000803e3d6000fd5b505050506040513d601f19601f82011682018060405250810190611ad391906152b2565b90508260ff1667ffffffffffffffff811115611af257611af1613fdb565b5b604051908082528060200260200182016040528015611b205781602001602082028036833780820191505090505b5061010060008381526020019081526020016000209080519060200190611b489291906139fa565b5060005b8360ff16811015611c0b5760fc600081819054906101000a900461ffff1680929190611b7790614f45565b91906101000a81548161ffff021916908361ffff1602179055505060fc60009054906101000a900461ffff1661010060008481526020019081526020016000208281548110611bc957611bc8614ee7565b5b90600052602060002090601091828204019190066002026101000a81548161ffff021916908361ffff1602179055508080611c0390614f70565b915050611b4c565b50505050565b60008060cb600084815260200190815260200160002060009054906101000a900473ffffffffffffffffffffffffffffffffffffffff169050600073ffffffffffffffffffffffffffffffffffffffff168173ffffffffffffffffffffffffffffffffffffffff161415611cba576040517f08c379a0000000000000000000000000000000000000000000000000000000008152600401611cb190615351565b60405180910390fd5b80915050919050565b600080606060fb60003373ffffffffffffffffffffffffffffffffffffffff1673ffffffffffffffffffffffffffffffffffffffff16815260200190815260200160002060009054906101000a900460ff16611d54576040517f08c379a0000000000000000000000000000000000000000000000000000000008152600401611d4b906153bd565b60405180910390fd5b600060ff600089815260200190815260200160002060000160009054906101000a900460ff169050600060ff60008a815260200190815260200160002060000160089054906101000a900460ff169050600060ff60008b815260200190815260200160002060000160099054906101000a900460ff16905061010360009054906101000a900473ffffffffffffffffffffffffffffffffffffffff1673ffffffffffffffffffffffffffffffffffffffff16634718e3088484848d8d8d6040518763ffffffff1660e01b8152600401611e32969594939291906153ec565b6000604051808303816000875af1158015611e51573d6000803e3d6000fd5b505050506040513d6000823e3d601f19601f82011682018060405250810190611e7a9190615503565b8096508197508298505050508560ff60008c815260200190815260200160002060000160086101000a81548160ff021916908360ff1602179055508460ff60008c815260200190815260200160002060000160096101000a81548160ff021916908360ff1602179055505050509450945094915050565b60008073ffffffffffffffffffffffffffffffffffffffff168273ffffffffffffffffffffffffffffffffffffffff161415611f62576040517f08c379a0000000000000000000000000000000000000000000000000000000008152600401611f59906155e4565b60405180910390fd5b60cc60008373ffffffffffffffffffffffffffffffffffffffff1673ffffffffffffffffffffffffffffffffffffffff168152602001908152602001600020549050919050565b611fb1612aec565b73ffffffffffffffffffffffffffffffffffffffff16611fcf6120c1565b73ffffffffffffffffffffffffffffffffffffffff1614612025576040517f08c379a000000000000000000000000000000000000000000000000000000000815260040161201c90614d83565b60405180910390fd5b61202f60006130e7565b565b600060fe54905090565b612043612aec565b73ffffffffffffffffffffffffffffffffffffffff166120616120c1565b73ffffffffffffffffffffffffffffffffffffffff16146120b7576040517f08c379a00000000000000000000000000000000000000000000000000000000081526004016120ae90614d83565b60405180910390fd5b6120bf6131ad565b565b6000603360009054906101000a900473ffffffffffffffffffffffffffffffffffffffff16905090565b61010160009054906101000a900473ffffffffffffffffffffffffffffffffffffffff1681565b61211a613aa4565b61212382612a80565b612162576040517f08c379a000000000000000000000000000000000000000000000000000000000815260040161215990615676565b60405180910390fd5b60ff6000838152602001908152602001600020604051806101400160405290816000820160009054906101000a900460ff161515151581526020016000820160019054906101000a900460ff1660ff1660ff1681526020016000820160029054906101000a900460ff1660ff1660ff1681526020016000820160039054906101000a900460ff1660ff1660ff1681526020016000820160049054906101000a900460ff1660ff1660ff1681526020016000820160059054906101000a900460ff1660ff1660ff1681526020016000820160069054906101000a900460ff1660ff1660ff1681526020016000820160079054906101000a900460ff1660ff1660ff1681526020016000820160089054906101000a900460ff1660ff1660ff1681526020016000820160099054906101000a900460ff1660ff1660ff16815250509050919050565b606060ca80546122b790614abd565b80601f01602080910402602001604051908101604052809291908181526020018280546122e390614abd565b80156123305780601f1061230557610100808354040283529160200191612330565b820191906000526020600020905b81548152906001019060200180831161231357829003601f168201915b5050505050905090565b61234c612345612aec565b8383613250565b5050565b612358612aec565b73ffffffffffffffffffffffffffffffffffffffff166123766120c1565b73ffffffffffffffffffffffffffffffffffffffff16146123cc576040517f08c379a00000000000000000000000000000000000000000000000000000000081526004016123c390614d83565b60405180910390fd5b600160fb60008373ffffffffffffffffffffffffffffffffffffffff1673ffffffffffffffffffffffffffffffffffffffff16815260200190815260200160002060006101000a81548160ff02191690831515021790555050565b612438612432612aec565b83612bad565b612477576040517f08c379a000000000000000000000000000000000000000000000000000000000815260040161246e90614d17565b60405180910390fd5b612483848484846133bd565b50505050565b61010460009054906101000a900473ffffffffffffffffffffffffffffffffffffffff1681565b60006124ba612aec565b73ffffffffffffffffffffffffffffffffffffffff166124d86120c1565b73ffffffffffffffffffffffffffffffffffffffff161461252e576040517f08c379a000000000000000000000000000000000000000000000000000000000815260040161252590614d83565b60405180910390fd5b60fb60008373ffffffffffffffffffffffffffffffffffffffff1673ffffffffffffffffffffffffffffffffffffffff16815260200190815260200160002060009054906101000a900460ff169050919050565b606061258d82612a80565b6125cc576040517f08c379a00000000000000000000000000000000000000000000000000000000081526004016125c390615676565b60405180910390fd5b61010260009054906101000a900473ffffffffffffffffffffffffffffffffffffffff1673ffffffffffffffffffffffffffffffffffffffff1663c87b56dd836040518263ffffffff1660e01b81526004016126289190614629565b600060405180830381865afa158015612645573d6000803e3d6000fd5b505050506040513d6000823e3d601f19601f8201168201806040525081019061266e9190615696565b9050919050565b60fc60029054906101000a900461ffff1681565b60ff6020528060005260406000206000915090508060000160009054906101000a900460ff16908060000160019054906101000a900460ff16908060000160029054906101000a900460ff16908060000160039054906101000a900460ff16908060000160049054906101000a900460ff16908060000160059054906101000a900460ff16908060000160069054906101000a900460ff16908060000160079054906101000a900460ff16908060000160089054906101000a900460ff16908060000160099054906101000a900460ff1690508a565b61010260009054906101000a900473ffffffffffffffffffffffffffffffffffffffff1681565b60fd5481565b600060ce60008473ffffffffffffffffffffffffffffffffffffffff1673ffffffffffffffffffffffffffffffffffffffff16815260200190815260200160002060008373ffffffffffffffffffffffffffffffffffffffff1673ffffffffffffffffffffffffffffffffffffffff16815260200190815260200160002060009054906101000a900460ff16905092915050565b612828612aec565b73ffffffffffffffffffffffffffffffffffffffff166128466120c1565b73ffffffffffffffffffffffffffffffffffffffff161461289c576040517f08c379a000000000000000000000000000000000000000000000000000000000815260040161289390614d83565b60405180910390fd5b600073ffffffffffffffffffffffffffffffffffffffff168173ffffffffffffffffffffffffffffffffffffffff16141561290c576040517f08c379a000000000000000000000000000000000000000000000000000000000815260040161290390615751565b60405180910390fd5b612915816130e7565b50565b612920612aec565b73ffffffffffffffffffffffffffffffffffffffff1661293e6120c1565b73ffffffffffffffffffffffffffffffffffffffff1614612994576040517f08c379a000000000000000000000000000000000000000000000000000000000815260040161298b90614d83565b60405180910390fd5b600060fb60008373ffffffffffffffffffffffffffffffffffffffff1673ffffffffffffffffffffffffffffffffffffffff16815260200190815260200160002060006101000a81548160ff02191690831515021790555050565b61010360009054906101000a900473ffffffffffffffffffffffffffffffffffffffff1681565b60007f01ffc9a7000000000000000000000000000000000000000000000000000000007bffffffffffffffffffffffffffffffffffffffffffffffffffffffff1916827bffffffffffffffffffffffffffffffffffffffffffffffffffffffff1916149050919050565b60008073ffffffffffffffffffffffffffffffffffffffff1660cb600084815260200190815260200160002060009054906101000a900473ffffffffffffffffffffffffffffffffffffffff1673ffffffffffffffffffffffffffffffffffffffff1614159050919050565b600033905090565b8160cd600083815260200190815260200160002060006101000a81548173ffffffffffffffffffffffffffffffffffffffff021916908373ffffffffffffffffffffffffffffffffffffffff160217905550808273ffffffffffffffffffffffffffffffffffffffff16612b6783611c11565b73ffffffffffffffffffffffffffffffffffffffff167f8c5be1e5ebec7d5bd14f71427d1e84f3dd0314c0f7b2291e5b200ac8c7c3b92560405160405180910390a45050565b6000612bb882612a80565b612bf7576040517f08c379a0000000000000000000000000000000000000000000000000000000008152600401612bee906157e3565b60405180910390fd5b6000612c0283611c11565b90508073ffffffffffffffffffffffffffffffffffffffff168473ffffffffffffffffffffffffffffffffffffffff161480612c7157508373ffffffffffffffffffffffffffffffffffffffff16612c5984610b12565b73ffffffffffffffffffffffffffffffffffffffff16145b80612c825750612c81818561278c565b5b91505092915050565b8273ffffffffffffffffffffffffffffffffffffffff16612cab82611c11565b73ffffffffffffffffffffffffffffffffffffffff1614612d01576040517f08c379a0000000000000000000000000000000000000000000000000000000008152600401612cf890615875565b60405180910390fd5b600073ffffffffffffffffffffffffffffffffffffffff168273ffffffffffffffffffffffffffffffffffffffff161415612d71576040517f08c379a0000000000000000000000000000000000000000000000000000000008152600401612d6890615907565b60405180910390fd5b612d7c838383613419565b612d87600082612af4565b600160cc60008573ffffffffffffffffffffffffffffffffffffffff1673ffffffffffffffffffffffffffffffffffffffff1681526020019081526020016000206000828254612dd79190615927565b92505081905550600160cc60008473ffffffffffffffffffffffffffffffffffffffff1673ffffffffffffffffffffffffffffffffffffffff1681526020019081526020016000206000828254612e2e919061595b565b925050819055508160cb600083815260200190815260200160002060006101000a81548173ffffffffffffffffffffffffffffffffffffffff021916908373ffffffffffffffffffffffffffffffffffffffff160217905550808273ffffffffffffffffffffffffffffffffffffffff168473ffffffffffffffffffffffffffffffffffffffff167fddf252ad1be2c89b69c2b068fc378daa952ba7f163c4a11628f55a4df523b3ef60405160405180910390a4505050565b612eef61147d565b612f2e576040517f08c379a0000000000000000000000000000000000000000000000000000000008152600401612f25906159fd565b60405180910390fd5b6000606560006101000a81548160ff0219169083151502179055507f5db9ee0a495bf2e6ff9c91a7834c1ba4fdd244a5e8aa4e537bd38aeae4b073aa612f72612aec565b604051612f7f9190613de5565b60405180910390a1565b612fa382826040518060200160405280600081525061341e565b5050565b6000612fb230613479565b15905090565b600060019054906101000a900460ff16613007576040517f08c379a0000000000000000000000000000000000000000000000000000000008152600401612ffe90615a8f565b60405180910390fd5b61300f61348c565b6130176134dd565b565b600060019054906101000a900460ff16613068576040517f08c379a000000000000000000000000000000000000000000000000000000000815260040161305f90615a8f565b60405180910390fd5b61307061348c565b61307861353e565b565b600060019054906101000a900460ff166130c9576040517f08c379a00000000000000000000000000000000000000000000000000000000081526004016130c090615a8f565b60405180910390fd5b6130d161348c565b6130d96135aa565b6130e382826135fb565b5050565b6000603360009054906101000a900473ffffffffffffffffffffffffffffffffffffffff16905081603360006101000a81548173ffffffffffffffffffffffffffffffffffffffff021916908373ffffffffffffffffffffffffffffffffffffffff1602179055508173ffffffffffffffffffffffffffffffffffffffff168173ffffffffffffffffffffffffffffffffffffffff167f8be0079c531659141344cd1fd0a4f28419497f9722a3daafe3b4186f6b6457e060405160405180910390a35050565b6131b561147d565b156131f5576040517f08c379a00000000000000000000000000000000000000000000000000000000081526004016131ec90614def565b60405180910390fd5b6001606560006101000a81548160ff0219169083151502179055507f62e78cea01bee320cd4e420270b5ea74000d11b0c9f74754ebdbfc544b05a258613239612aec565b6040516132469190613de5565b60405180910390a1565b8173ffffffffffffffffffffffffffffffffffffffff168373ffffffffffffffffffffffffffffffffffffffff1614156132bf576040517f08c379a00000000000000000000000000000000000000000000000000000000081526004016132b690615afb565b60405180910390fd5b8060ce60008573ffffffffffffffffffffffffffffffffffffffff1673ffffffffffffffffffffffffffffffffffffffff16815260200190815260200160002060008473ffffffffffffffffffffffffffffffffffffffff1673ffffffffffffffffffffffffffffffffffffffff16815260200190815260200160002060006101000a81548160ff0219169083151502179055508173ffffffffffffffffffffffffffffffffffffffff168373ffffffffffffffffffffffffffffffffffffffff167f17307eab39ab6107e8899845ad3d59bd9653f200f220920489ca2b5937696c31836040516133b09190613c6b565b60405180910390a3505050565b6133c8848484612c8b565b6133d48484848461367c565b613413576040517f08c379a000000000000000000000000000000000000000000000000000000000815260040161340a90615b8d565b60405180910390fd5b50505050565b505050565b6134288383613804565b613435600084848461367c565b613474576040517f08c379a000000000000000000000000000000000000000000000000000000000815260040161346b90615b8d565b60405180910390fd5b505050565b600080823b905060008111915050919050565b600060019054906101000a900460ff166134db576040517f08c379a00000000000000000000000000000000000000000000000000000000081526004016134d290615a8f565b60405180910390fd5b565b600060019054906101000a900460ff1661352c576040517f08c379a000000000000000000000000000000000000000000000000000000000815260040161352390615a8f565b60405180910390fd5b61353c613537612aec565b6130e7565b565b600060019054906101000a900460ff1661358d576040517f08c379a000000000000000000000000000000000000000000000000000000000815260040161358490615a8f565b60405180910390fd5b6000606560006101000a81548160ff021916908315150217905550565b600060019054906101000a900460ff166135f9576040517f08c379a00000000000000000000000000000000000000000000000000000000081526004016135f090615a8f565b60405180910390fd5b565b600060019054906101000a900460ff1661364a576040517f08c379a000000000000000000000000000000000000000000000000000000000815260040161364190615a8f565b60405180910390fd5b8160c99080519060200190613660929190613b14565b508060ca9080519060200190613677929190613b14565b505050565b600061369d8473ffffffffffffffffffffffffffffffffffffffff16613479565b156137f7578373ffffffffffffffffffffffffffffffffffffffff1663150b7a026136c6612aec565b8786866040518563ffffffff1660e01b81526004016136e89493929190615c02565b6020604051808303816000875af192505050801561372457506040513d601f19601f820116820180604052508101906137219190615c63565b60015b6137a7573d8060008114613754576040519150601f19603f3d011682016040523d82523d6000602084013e613759565b606091505b5060008151141561379f576040517f08c379a000000000000000000000000000000000000000000000000000000000815260040161379690615b8d565b60405180910390fd5b805181602001fd5b63150b7a0260e01b7bffffffffffffffffffffffffffffffffffffffffffffffffffffffff1916817bffffffffffffffffffffffffffffffffffffffffffffffffffffffff1916149150506137fc565b600190505b949350505050565b600073ffffffffffffffffffffffffffffffffffffffff168273ffffffffffffffffffffffffffffffffffffffff161415613874576040517f08c379a000000000000000000000000000000000000000000000000000000000815260040161386b90615cdc565b60405180910390fd5b61387d81612a80565b156138bd576040517f08c379a00000000000000000000000000000000000000000000000000000000081526004016138b490615d48565b60405180910390fd5b6138c960008383613419565b600160cc60008473ffffffffffffffffffffffffffffffffffffffff1673ffffffffffffffffffffffffffffffffffffffff1681526020019081526020016000206000828254613919919061595b565b925050819055508160cb600083815260200190815260200160002060006101000a81548173ffffffffffffffffffffffffffffffffffffffff021916908373ffffffffffffffffffffffffffffffffffffffff160217905550808273ffffffffffffffffffffffffffffffffffffffff16600073ffffffffffffffffffffffffffffffffffffffff167fddf252ad1be2c89b69c2b068fc378daa952ba7f163c4a11628f55a4df523b3ef60405160405180910390a45050565b50805460008255600f0160109004906000526020600020908101906139f79190613b9a565b50565b82805482825590600052602060002090600f01601090048101928215613a935791602002820160005b83821115613a6357835183826101000a81548161ffff021916908361ffff1602179055509260200192600201602081600101049283019260010302613a23565b8015613a915782816101000a81549061ffff0219169055600201602081600101049283019260010302613a63565b505b509050613aa09190613b9a565b5090565b604051806101400160405280600015158152602001600060ff168152602001600060ff168152602001600060ff168152602001600060ff168152602001600060ff168152602001600060ff168152602001600060ff168152602001600060ff168152602001600060ff1681525090565b828054613b2090614abd565b90600052602060002090601f016020900481019282613b425760008555613b89565b82601f10613b5b57805160ff1916838001178555613b89565b82800160010185558215613b89579182015b82811115613b88578251825591602001919060010190613b6d565b5b509050613b969190613b9a565b5090565b5b80821115613bb3576000816000905550600101613b9b565b5090565b6000604051905090565b600080fd5b600080fd5b60007fffffffff0000000000000000000000000000000000000000000000000000000082169050919050565b613c0081613bcb565b8114613c0b57600080fd5b50565b600081359050613c1d81613bf7565b92915050565b600060208284031215613c3957613c38613bc1565b5b6000613c4784828501613c0e565b91505092915050565b60008115159050919050565b613c6581613c50565b82525050565b6000602082019050613c806000830184613c5c565b92915050565b600081519050919050565b600082825260208201905092915050565b60005b83811015613cc0578082015181840152602081019050613ca5565b83811115613ccf576000848401525b50505050565b6000601f19601f8301169050919050565b6000613cf182613c86565b613cfb8185613c91565b9350613d0b818560208601613ca2565b613d1481613cd5565b840191505092915050565b60006020820190508181036000830152613d398184613ce6565b905092915050565b6000819050919050565b613d5481613d41565b8114613d5f57600080fd5b50565b600081359050613d7181613d4b565b92915050565b600060208284031215613d8d57613d8c613bc1565b5b6000613d9b84828501613d62565b91505092915050565b600073ffffffffffffffffffffffffffffffffffffffff82169050919050565b6000613dcf82613da4565b9050919050565b613ddf81613dc4565b82525050565b6000602082019050613dfa6000830184613dd6565b92915050565b600061ffff82169050919050565b613e1781613e00565b82525050565b6000602082019050613e326000830184613e0e565b92915050565b613e4181613dc4565b8114613e4c57600080fd5b50565b600081359050613e5e81613e38565b92915050565b60008060408385031215613e7b57613e7a613bc1565b5b6000613e8985828601613e4f565b9250506020613e9a85828601613d62565b9150509250929050565b600080600060608486031215613ebd57613ebc613bc1565b5b6000613ecb86828701613e4f565b9350506020613edc86828701613e4f565b9250506040613eed86828701613d62565b9150509250925092565b6000819050919050565b613f0a81613ef7565b8114613f1557600080fd5b50565b600081359050613f2781613f01565b92915050565b60008060408385031215613f4457613f43613bc1565b5b6000613f5285828601613f18565b9250506020613f6385828601613d62565b9150509250929050565b600060208284031215613f8357613f82613bc1565b5b6000613f9184828501613e4f565b91505092915050565b6000613fa582613da4565b9050919050565b613fb581613f9a565b82525050565b6000602082019050613fd06000830184613fac565b92915050565b600080fd5b7f4e487b7100000000000000000000000000000000000000000000000000000000600052604160045260246000fd5b61401382613cd5565b810181811067ffffffffffffffff8211171561403257614031613fdb565b5b80604052505050565b6000614045613bb7565b9050614051828261400a565b919050565b600060ff82169050919050565b61406c81614056565b811461407757600080fd5b50565b60008135905061408981614063565b92915050565b61409881613c50565b81146140a357600080fd5b50565b6000813590506140b58161408f565b92915050565b6000608082840312156140d1576140d0613fd6565b5b6140db608061403b565b905060006140eb84828501613f18565b60008301525060206140ff84828501613e4f565b60208301525060406141138482850161407a565b6040830152506060614127848285016140a6565b60608301525092915050565b600080fd5b600067ffffffffffffffff82111561415357614152613fdb565b5b602082029050602081019050919050565b600080fd5b600061014082840312156141805761417f613fd6565b5b61418b61014061403b565b9050600061419b848285016140a6565b60008301525060206141af8482850161407a565b60208301525060406141c38482850161407a565b60408301525060606141d78482850161407a565b60608301525060806141eb8482850161407a565b60808301525060a06141ff8482850161407a565b60a08301525060c06142138482850161407a565b60c08301525060e06142278482850161407a565b60e08301525061010061423c8482850161407a565b610100830152506101206142528482850161407a565b6101208301525092915050565b600061427261426d84614138565b61403b565b905080838252602082019050610140840283018581111561429657614295614164565b5b835b818110156142c057806142ab8882614169565b84526020840193505061014081019050614298565b5050509392505050565b600082601f8301126142df576142de614133565b5b81356142ef84826020860161425f565b91505092915050565b60008060a0838503121561430f5761430e613bc1565b5b600061431d858286016140bb565b925050608083013567ffffffffffffffff81111561433e5761433d613bc6565b5b61434a858286016142ca565b9150509250929050565b6000819050919050565b600061437961437461436f84613da4565b614354565b613da4565b9050919050565b600061438b8261435e565b9050919050565b600061439d82614380565b9050919050565b6143ad81614392565b82525050565b60006020820190506143c860008301846143a4565b92915050565b600067ffffffffffffffff8211156143e9576143e8613fdb565b5b602082029050602081019050919050565b600061440d614408846143ce565b61403b565b905080838252602082019050602084028301858111156144305761442f614164565b5b835b8181101561445957806144458882613e4f565b845260208401935050602081019050614432565b5050509392505050565b600082601f83011261447857614477614133565b5b81356144888482602086016143fa565b91505092915050565b600080604083850312156144a8576144a7613bc1565b5b600083013567ffffffffffffffff8111156144c6576144c5613bc6565b5b6144d285828601614463565b92505060206144e385828601613d62565b9150509250929050565b6000806040838503121561450457614503613bc1565b5b60006145128582860161407a565b9250506020614523858286016140a6565b9150509250929050565b60008160000b9050919050565b6145438161452d565b811461454e57600080fd5b50565b6000813590506145608161453a565b92915050565b600080600080608085870312156145805761457f613bc1565b5b600061458e87828801613d62565b945050602061459f87828801614551565b93505060406145b087828801614551565b92505060606145c187828801613d62565b91505092959194509250565b6145d681614056565b82525050565b60006060820190506145f160008301866145cd565b6145fe60208301856145cd565b81810360408301526146108184613ce6565b9050949350505050565b61462381613d41565b82525050565b600060208201905061463e600083018461461a565b92915050565b600061464f82614380565b9050919050565b61465f81614644565b82525050565b600060208201905061467a6000830184614656565b92915050565b61468981613c50565b82525050565b61469881614056565b82525050565b610140820160008201516146b56000850182614680565b5060208201516146c8602085018261468f565b5060408201516146db604085018261468f565b5060608201516146ee606085018261468f565b506080820151614701608085018261468f565b5060a082015161471460a085018261468f565b5060c082015161472760c085018261468f565b5060e082015161473a60e085018261468f565b5061010082015161474f61010085018261468f565b5061012082015161476461012085018261468f565b50505050565b600061014082019050614780600083018461469e565b92915050565b6000806040838503121561479d5761479c613bc1565b5b60006147ab85828601613e4f565b92505060206147bc858286016140a6565b9150509250929050565b600080fd5b600067ffffffffffffffff8211156147e6576147e5613fdb565b5b6147ef82613cd5565b9050602081019050919050565b82818337600083830152505050565b600061481e614819846147cb565b61403b565b90508281526020810184848401111561483a576148396147c6565b5b6148458482856147fc565b509392505050565b600082601f83011261486257614861614133565b5b813561487284826020860161480b565b91505092915050565b6000806000806080858703121561489557614894613bc1565b5b60006148a387828801613e4f565b94505060206148b487828801613e4f565b93505060406148c587828801613d62565b925050606085013567ffffffffffffffff8111156148e6576148e5613bc6565b5b6148f28782880161484d565b91505092959194509250565b600061490982614380565b9050919050565b614919816148fe565b82525050565b60006020820190506149346000830184614910565b92915050565b600061014082019050614950600083018d613c5c565b61495d602083018c6145cd565b61496a604083018b6145cd565b614977606083018a6145cd565b61498460808301896145cd565b61499160a08301886145cd565b61499e60c08301876145cd565b6149ab60e08301866145cd565b6149b96101008301856145cd565b6149c76101208301846145cd565b9b9a5050505050505050505050565b60006149e182614380565b9050919050565b6149f1816149d6565b82525050565b6000602082019050614a0c60008301846149e8565b92915050565b60008060408385031215614a2957614a28613bc1565b5b6000614a3785828601613e4f565b9250506020614a4885828601613e4f565b9150509250929050565b6000614a5d82614380565b9050919050565b614a6d81614a52565b82525050565b6000602082019050614a886000830184614a64565b92915050565b7f4e487b7100000000000000000000000000000000000000000000000000000000600052602260045260246000fd5b60006002820490506001821680614ad557607f821691505b60208210811415614ae957614ae8614a8e565b5b50919050565b7f4552433732313a20617070726f76656420717565727920666f72206e6f6e657860008201527f697374656e7420746f6b656e0000000000000000000000000000000000000000602082015250565b6000614b4b602c83613c91565b9150614b5682614aef565b604082019050919050565b60006020820190508181036000830152614b7a81614b3e565b9050919050565b7f4552433732313a20617070726f76616c20746f2063757272656e74206f776e6560008201527f7200000000000000000000000000000000000000000000000000000000000000602082015250565b6000614bdd602183613c91565b9150614be882614b81565b604082019050919050565b60006020820190508181036000830152614c0c81614bd0565b9050919050565b7f4552433732313a20617070726f76652063616c6c6572206973206e6f74206f7760008201527f6e6572206e6f7220617070726f76656420666f7220616c6c0000000000000000602082015250565b6000614c6f603883613c91565b9150614c7a82614c13565b604082019050919050565b60006020820190508181036000830152614c9e81614c62565b9050919050565b7f4552433732313a207472616e736665722063616c6c6572206973206e6f74206f60008201527f776e6572206e6f7220617070726f766564000000000000000000000000000000602082015250565b6000614d01603183613c91565b9150614d0c82614ca5565b604082019050919050565b60006020820190508181036000830152614d3081614cf4565b9050919050565b7f4f776e61626c653a2063616c6c6572206973206e6f7420746865206f776e6572600082015250565b6000614d6d602083613c91565b9150614d7882614d37565b602082019050919050565b60006020820190508181036000830152614d9c81614d60565b9050919050565b7f5061757361626c653a2070617573656400000000000000000000000000000000600082015250565b6000614dd9601083613c91565b9150614de482614da3565b602082019050919050565b60006020820190508181036000830152614e0881614dcc565b9050919050565b7f4f6e6c7920746865204d696e742063616e2066756c66696c6c00000000000000600082015250565b6000614e45601983613c91565b9150614e5082614e0f565b602082019050919050565b60006020820190508181036000830152614e7481614e38565b9050919050565b7f4d696e742072657175657374206e6f7420666f756e6400000000000000000000600082015250565b6000614eb1601683613c91565b9150614ebc82614e7b565b602082019050919050565b60006020820190508181036000830152614ee081614ea4565b9050919050565b7f4e487b7100000000000000000000000000000000000000000000000000000000600052603260045260246000fd5b7f4e487b7100000000000000000000000000000000000000000000000000000000600052601160045260246000fd5b6000614f5082613e00565b915061ffff821415614f6557614f64614f16565b5b600182019050919050565b6000614f7b82613d41565b91507fffffffffffffffffffffffffffffffffffffffffffffffffffffffffffffffff821415614fae57614fad614f16565b5b600182019050919050565b600081519050919050565b600082825260208201905092915050565b6000819050602082019050919050565b614fee81613e00565b82525050565b60006150008383614fe5565b60208301905092915050565b6000602082019050919050565b600061502482614fb9565b61502e8185614fc4565b935061503983614fd5565b8060005b8381101561506a5781516150518882614ff4565b975061505c8361500c565b92505060018101905061503d565b5085935050505092915050565b600060408201905061508c6000830185613dd6565b818103602083015261509e8184615019565b90509392505050565b7f496e697469616c697a61626c653a20636f6e747261637420697320616c72656160008201527f647920696e697469616c697a6564000000000000000000000000000000000000602082015250565b6000615103602e83613c91565b915061510e826150a7565b604082019050919050565b60006020820190508181036000830152615132816150f6565b9050919050565b7f4e487b7100000000000000000000000000000000000000000000000000000000600052601260045260246000fd5b600061517382613d41565b915061517e83613d41565b92508261518e5761518d615139565b5b828204905092915050565b7f454f41206f6e6c79000000000000000000000000000000000000000000000000600082015250565b60006151cf600883613c91565b91506151da82615199565b602082019050919050565b600060208201905081810360008301526151fe816151c2565b9050919050565b600060c08201905061521a6000830189613dd6565b61522760208301886145cd565b615234604083018761461a565b6152416060830186613e0e565b61524e608083018561461a565b61525b60a083018461461a565b979650505050505050565b600060608201905061527b6000830186613dd6565b61528860208301856145cd565b6152956040830184613c5c565b949350505050565b6000815190506152ac81613f01565b92915050565b6000602082840312156152c8576152c7613bc1565b5b60006152d68482850161529d565b91505092915050565b7f4552433732313a206f776e657220717565727920666f72206e6f6e657869737460008201527f656e7420746f6b656e0000000000000000000000000000000000000000000000602082015250565b600061533b602983613c91565b9150615346826152df565b604082019050919050565b6000602082019050818103600083015261536a8161532e565b9050919050565b7f4f6e6c7920636f6e74726f6c6c6572732063616e206578656375746500000000600082015250565b60006153a7601c83613c91565b91506153b282615371565b602082019050919050565b600060208201905081810360008301526153d68161539a565b9050919050565b6153e68161452d565b82525050565b600060c0820190506154016000830189613c5c565b61540e60208301886145cd565b61541b60408301876145cd565b61542860608301866153dd565b61543560808301856153dd565b61544260a083018461461a565b979650505050505050565b60008151905061545c81614063565b92915050565b600067ffffffffffffffff82111561547d5761547c613fdb565b5b61548682613cd5565b9050602081019050919050565b60006154a66154a184615462565b61403b565b9050828152602081018484840111156154c2576154c16147c6565b5b6154cd848285613ca2565b509392505050565b600082601f8301126154ea576154e9614133565b5b81516154fa848260208601615493565b91505092915050565b60008060006060848603121561551c5761551b613bc1565b5b600061552a8682870161544d565b935050602061553b8682870161544d565b925050604084015167ffffffffffffffff81111561555c5761555b613bc6565b5b615568868287016154d5565b9150509250925092565b7f4552433732313a2062616c616e636520717565727920666f7220746865207a6560008201527f726f206164647265737300000000000000000000000000000000000000000000602082015250565b60006155ce602a83613c91565b91506155d982615572565b604082019050919050565b600060208201905081810360008301526155fd816155c1565b9050919050565b7f4552433732314d657461646174613a2055524920717565727920666f72206e6f60008201527f6e2d6578697374656e7420746f6b656e00000000000000000000000000000000602082015250565b6000615660603083613c91565b915061566b82615604565b604082019050919050565b6000602082019050818103600083015261568f81615653565b9050919050565b6000602082840312156156ac576156ab613bc1565b5b600082015167ffffffffffffffff8111156156ca576156c9613bc6565b5b6156d6848285016154d5565b91505092915050565b7f4f776e61626c653a206e6577206f776e657220697320746865207a65726f206160008201527f6464726573730000000000000000000000000000000000000000000000000000602082015250565b600061573b602683613c91565b9150615746826156df565b604082019050919050565b6000602082019050818103600083015261576a8161572e565b9050919050565b7f4552433732313a206f70657261746f7220717565727920666f72206e6f6e657860008201527f697374656e7420746f6b656e0000000000000000000000000000000000000000602082015250565b60006157cd602c83613c91565b91506157d882615771565b604082019050919050565b600060208201905081810360008301526157fc816157c0565b9050919050565b7f4552433732313a207472616e73666572206f6620746f6b656e2074686174206960008201527f73206e6f74206f776e0000000000000000000000000000000000000000000000602082015250565b600061585f602983613c91565b915061586a82615803565b604082019050919050565b6000602082019050818103600083015261588e81615852565b9050919050565b7f4552433732313a207472616e7366657220746f20746865207a65726f2061646460008201527f7265737300000000000000000000000000000000000000000000000000000000602082015250565b60006158f1602483613c91565b91506158fc82615895565b604082019050919050565b60006020820190508181036000830152615920816158e4565b9050919050565b600061593282613d41565b915061593d83613d41565b9250828210156159505761594f614f16565b5b828203905092915050565b600061596682613d41565b915061597183613d41565b9250827fffffffffffffffffffffffffffffffffffffffffffffffffffffffffffffffff038211156159a6576159a5614f16565b5b828201905092915050565b7f5061757361626c653a206e6f7420706175736564000000000000000000000000600082015250565b60006159e7601483613c91565b91506159f2826159b1565b602082019050919050565b60006020820190508181036000830152615a16816159da565b9050919050565b7f496e697469616c697a61626c653a20636f6e7472616374206973206e6f74206960008201527f6e697469616c697a696e67000000000000000000000000000000000000000000602082015250565b6000615a79602b83613c91565b9150615a8482615a1d565b604082019050919050565b60006020820190508181036000830152615aa881615a6c565b9050919050565b7f4552433732313a20617070726f766520746f2063616c6c657200000000000000600082015250565b6000615ae5601983613c91565b9150615af082615aaf565b602082019050919050565b60006020820190508181036000830152615b1481615ad8565b9050919050565b7f4552433732313a207472616e7366657220746f206e6f6e20455243373231526560008201527f63656976657220696d706c656d656e7465720000000000000000000000000000602082015250565b6000615b77603283613c91565b9150615b8282615b1b565b604082019050919050565b60006020820190508181036000830152615ba681615b6a565b9050919050565b600081519050919050565b600082825260208201905092915050565b6000615bd482615bad565b615bde8185615bb8565b9350615bee818560208601613ca2565b615bf781613cd5565b840191505092915050565b6000608082019050615c176000830187613dd6565b615c246020830186613dd6565b615c31604083018561461a565b8181036060830152615c438184615bc9565b905095945050505050565b600081519050615c5d81613bf7565b92915050565b600060208284031215615c7957615c78613bc1565b5b6000615c8784828501615c4e565b91505092915050565b7f4552433732313a206d696e7420746f20746865207a65726f2061646472657373600082015250565b6000615cc6602083613c91565b9150615cd182615c90565b602082019050919050565b60006020820190508181036000830152615cf581615cb9565b9050919050565b7f4552433732313a20746f6b656e20616c7265616479206d696e74656400000000600082015250565b6000615d32601c83613c91565b9150615d3d82615cfc565b602082019050919050565b60006020820190508181036000830152615d6181615d25565b905091905056fea2646970667358221220519f04669e3286bb0a03ca096d6add5a0de05c987154714d54c7f79cfaa96b1b64736f6c634300080a0033",
  "immutableReferences": {},
  "source": "// SPDX-License-Identifier: MIT\n\npragma solidity ^0.8.0;\n\nimport \"@openzeppelin/contracts-upgradeable/proxy/utils/Initializable.sol\";\nimport \"@openzeppelin/contracts-upgradeable/token/ERC721/ERC721Upgradeable.sol\";\nimport \"./GenericPausable.sol\";\nimport \"./ControllableUpgradeable.sol\";\nimport \"./ICharacter.sol\";\nimport \"./IMint.sol\";\nimport \"./ITraits.sol\";\nimport \"./IProperties.sol\";\nimport \"./IVenue.sol\";\nimport \"./IPaywall.sol\";\n\ncontract Character is ICharacter, Initializable, OwnableUpgradeable, GenericPausable, ERC721Upgradeable, ControllableUpgradeable {\n  uint16 public minted;\n  uint16 public numChefs;\n  uint16 public numRats;\n  uint256 public maxTokens; // Max number of tokens that can be minted\n  uint256 gen0Tokens; // Number of tokens that are purchased with native token\n\n  mapping(uint256 => CharacterStruct) public tokenTraits; // Mapping from tokenId to a struct containing the token's traits\n  mapping(bytes32 => uint16[]) public mintRequests;\n\n  IMint public theMint; // Reference to Mint\n  ITraits public traits; // Reference to Traits\n  IProperties public properties; // Reference to Properties\n  IVenue public kitchen;\n  IPaywall public paywall;\n  address payable public dao;\n\n  function initialize(\n    address[] memory _addresses, // paywall, mint, traits, properties, dao\n    uint256 _maxTokens\n  ) external initializer {\n    __Ownable_init();\n    __Pausable_init();\n    __ERC721_init(\"RatAlert Characters\", \"RATCAST\");\n\n    paywall = IPaywall(_addresses[0]);\n    theMint = IMint(_addresses[1]);\n    traits = ITraits(_addresses[2]);\n    properties = IProperties(_addresses[3]);\n    dao = payable(_addresses[4]);\n    maxTokens = _maxTokens;\n    gen0Tokens = _maxTokens / 5;\n    minted = 0;\n    numChefs = 0;\n    numRats = 0;\n  }\n\n  /**\n   * ChainLink VRF request: Mints a new ERC721 token: 90% chefs, 10% rats\n   * The first 20% are purchased with native token, the remaining cost $FFOOD\n   * @param amount Number of tokens to mint\n   * @param stake Number of tokens to mint\n   */\n  function mint(uint8 amount, bool stake) external payable whenNotPaused {\n    require(tx.origin == _msgSender(), \"EOA only\");\n    paywall.handle(_msgSender(), amount, msg.value, minted, maxTokens, gen0Tokens);\n    if (msg.value > 0) {\n      dao.transfer(msg.value); // Transfer to Gnosis Safe\n    }\n    bytes32 requestId = theMint.requestRandomNumber(_msgSender(), amount, stake);\n    mintRequests[requestId] = new uint16[](amount);\n    for (uint i = 0; i < amount; i++) {\n      minted++;\n      mintRequests[requestId][i] = minted;\n    }\n  }\n\n  /**\n   * ChainLink VRF callback for mint()\n   * @param v - VRF struct for the corresponding request\n   * @param tokens - List of characters created by the Mint\n   */\n  function fulfillMint(IMint.VRFStruct memory v, CharacterStruct[] memory tokens) external whenNotPaused {\n    require(msg.sender == address(theMint), \"Only the Mint can fulfill\");\n    require(mintRequests[v.requestId].length > 0, \"Mint request not found\");\n    uint16[] memory tokenIds = mintRequests[v.requestId];\n    delete mintRequests[v.requestId];\n    for (uint i = 0; i < tokenIds.length; i++) {\n      _safeMint(v.stake ? address(kitchen) : v.sender, tokenIds[i]);\n      tokenTraits[tokenIds[i]] = tokens[i];\n      tokens[i].isChef ? numChefs++ : numRats++;\n    }\n    if (v.stake) kitchen.stakeMany(v.sender, tokenIds);\n  }\n\n  function updateCharacter(uint256 tokenId, int8 efficiencyIncrement, int8 toleranceIncrement, uint256 randomVal) public onlyController returns(uint8 efficiencyValue, uint8 toleranceValue, string memory eventName) {\n    bool isChef = tokenTraits[tokenId].isChef;\n    uint8 currentEfficiency = tokenTraits[tokenId].efficiency;\n    uint8 currentTolerance = tokenTraits[tokenId].tolerance;\n    (efficiencyValue, toleranceValue, eventName) = properties.getEventUpdates(isChef, currentEfficiency, currentTolerance, efficiencyIncrement, toleranceIncrement, randomVal);\n    tokenTraits[tokenId].efficiency = efficiencyValue;\n    tokenTraits[tokenId].tolerance = toleranceValue;\n  }\n\n  function tokenURI(uint256 tokenId) public view override returns (string memory) {\n    require(_exists(tokenId), \"ERC721Metadata: URI query for non-existent token\");\n    return traits.tokenURI(tokenId);\n  }\n\n  function getTokenTraits(uint256 tokenId) external view override returns (CharacterStruct memory) {\n    require(_exists(tokenId), \"ERC721Metadata: URI query for non-existent token\");\n    return tokenTraits[tokenId];\n  }\n\n  function getGen0Tokens() external view override returns (uint256) {\n    return gen0Tokens;\n  }\n\n  /**\n   * Sets the kitchen address to optionally stake newly minted characters in\n   * @param _kitchen - The address of the Kitchen\n   */\n  function setKitchen(address _kitchen) external onlyOwner {\n    kitchen = IVenue(_kitchen);\n  }\n}\n",
  "sourcePath": "/Users/chris/workspace/ratalert/ratalert-contracts/contracts/Character.sol",
  "compiler": {
    "name": "solc",
    "version": "0.8.10+commit.fc410830.Emscripten.clang"
  },
  "schemaVersion": "3.4.5",
  "updatedAt": "2022-03-14T13:39:35.346Z",
  "networkType": "ethereum",
  "devdoc": {
    "kind": "dev",
    "methods": {
      "addController(address)": {
        "params": {
          "_controller": "- The address to enable"
        }
      },
      "approve(address,uint256)": {
        "details": "See {IERC721-approve}."
      },
      "balanceOf(address)": {
        "details": "See {IERC721-balanceOf}."
      },
      "controller(address)": {
        "params": {
          "_controller": "- The address to check"
        }
      },
      "fulfillMint((bytes32,address,uint8,bool),(bool,uint8,uint8,uint8,uint8,uint8,uint8,uint8,uint8,uint8)[])": {
        "params": {
          "tokens": "- List of characters created by the Mint",
          "v": "- VRF struct for the corresponding request"
        }
      },
      "getApproved(uint256)": {
        "details": "See {IERC721-getApproved}."
      },
      "isApprovedForAll(address,address)": {
        "details": "See {IERC721-isApprovedForAll}."
      },
      "mint(uint8,bool)": {
        "params": {
          "amount": "Number of tokens to mint",
          "stake": "Number of tokens to mint"
        }
      },
      "name()": {
        "details": "See {IERC721Metadata-name}."
      },
      "owner()": {
        "details": "Returns the address of the current owner."
      },
      "ownerOf(uint256)": {
        "details": "See {IERC721-ownerOf}."
      },
      "paused()": {
        "details": "Returns true if the contract is paused, and false otherwise."
      },
      "removeController(address)": {
        "params": {
          "_controller": "- The address to disable"
        }
      },
      "renounceOwnership()": {
        "details": "Leaves the contract without owner. It will not be possible to call `onlyOwner` functions anymore. Can only be called by the current owner. NOTE: Renouncing ownership will leave the contract without an owner, thereby removing any functionality that is only available to the owner."
      },
      "safeTransferFrom(address,address,uint256)": {
        "details": "See {IERC721-safeTransferFrom}."
      },
      "safeTransferFrom(address,address,uint256,bytes)": {
        "details": "See {IERC721-safeTransferFrom}."
      },
      "setApprovalForAll(address,bool)": {
        "details": "See {IERC721-setApprovalForAll}."
      },
      "setKitchen(address)": {
        "params": {
          "_kitchen": "- The address of the Kitchen"
        }
      },
      "supportsInterface(bytes4)": {
        "details": "See {IERC165-supportsInterface}."
      },
      "symbol()": {
        "details": "See {IERC721Metadata-symbol}."
      },
      "tokenURI(uint256)": {
        "details": "See {IERC721Metadata-tokenURI}."
      },
      "transferFrom(address,address,uint256)": {
        "details": "See {IERC721-transferFrom}."
      },
      "transferOwnership(address)": {
        "details": "Transfers ownership of the contract to a new account (`newOwner`). Can only be called by the current owner."
      }
    },
    "version": 1
  },
  "userdoc": {
    "kind": "user",
    "methods": {
      "addController(address)": {
        "notice": "Enables an address to mint / burn"
      },
      "controller(address)": {
        "notice": "Gets controller status by address"
      },
      "fulfillMint((bytes32,address,uint8,bool),(bool,uint8,uint8,uint8,uint8,uint8,uint8,uint8,uint8,uint8)[])": {
        "notice": "ChainLink VRF callback for mint()"
      },
      "mint(uint8,bool)": {
        "notice": "ChainLink VRF request: Mints a new ERC721 token: 90% chefs, 10% rats The first 20% are purchased with native token, the remaining cost $FFOOD"
      },
      "removeController(address)": {
        "notice": "Disables an address from minting / burning"
      },
      "setKitchen(address)": {
        "notice": "Sets the kitchen address to optionally stake newly minted characters in"
      }
    },
    "version": 1
  }
}