{
  "contractName": "ChefRat",
  "abi": [
    {
      "anonymous": false,
      "inputs": [
        {
          "indexed": true,
          "internalType": "address",
          "name": "owner",
          "type": "address"
        },
        {
          "indexed": true,
          "internalType": "address",
          "name": "approved",
          "type": "address"
        },
        {
          "indexed": true,
          "internalType": "uint256",
          "name": "tokenId",
          "type": "uint256"
        }
      ],
      "name": "Approval",
      "type": "event"
    },
    {
      "anonymous": false,
      "inputs": [
        {
          "indexed": true,
          "internalType": "address",
          "name": "owner",
          "type": "address"
        },
        {
          "indexed": true,
          "internalType": "address",
          "name": "operator",
          "type": "address"
        },
        {
          "indexed": false,
          "internalType": "bool",
          "name": "approved",
          "type": "bool"
        }
      ],
      "name": "ApprovalForAll",
      "type": "event"
    },
    {
      "anonymous": false,
      "inputs": [
        {
          "indexed": true,
          "internalType": "address",
          "name": "previousOwner",
          "type": "address"
        },
        {
          "indexed": true,
          "internalType": "address",
          "name": "newOwner",
          "type": "address"
        }
      ],
      "name": "OwnershipTransferred",
      "type": "event"
    },
    {
      "anonymous": false,
      "inputs": [
        {
          "indexed": false,
          "internalType": "address",
          "name": "account",
          "type": "address"
        }
      ],
      "name": "Paused",
      "type": "event"
    },
    {
      "anonymous": false,
      "inputs": [
        {
          "indexed": true,
          "internalType": "address",
          "name": "from",
          "type": "address"
        },
        {
          "indexed": true,
          "internalType": "address",
          "name": "to",
          "type": "address"
        },
        {
          "indexed": true,
          "internalType": "uint256",
          "name": "tokenId",
          "type": "uint256"
        }
      ],
      "name": "Transfer",
      "type": "event"
    },
    {
      "anonymous": false,
      "inputs": [
        {
          "indexed": false,
          "internalType": "address",
          "name": "account",
          "type": "address"
        }
      ],
      "name": "Unpaused",
      "type": "event"
    },
    {
      "inputs": [],
      "name": "MAX_TOKENS",
      "outputs": [
        {
          "internalType": "uint256",
          "name": "",
          "type": "uint256"
        }
      ],
      "stateMutability": "view",
      "type": "function"
    },
    {
      "inputs": [],
      "name": "MINT_PRICE",
      "outputs": [
        {
          "internalType": "uint256",
          "name": "",
          "type": "uint256"
        }
      ],
      "stateMutability": "view",
      "type": "function"
    },
    {
      "inputs": [],
      "name": "PAID_TOKENS",
      "outputs": [
        {
          "internalType": "uint256",
          "name": "",
          "type": "uint256"
        }
      ],
      "stateMutability": "view",
      "type": "function"
    },
    {
      "inputs": [
        {
          "internalType": "address",
          "name": "to",
          "type": "address"
        },
        {
          "internalType": "uint256",
          "name": "tokenId",
          "type": "uint256"
        }
      ],
      "name": "approve",
      "outputs": [],
      "stateMutability": "nonpayable",
      "type": "function"
    },
    {
      "inputs": [
        {
          "internalType": "address",
          "name": "owner",
          "type": "address"
        }
      ],
      "name": "balanceOf",
      "outputs": [
        {
          "internalType": "uint256",
          "name": "",
          "type": "uint256"
        }
      ],
      "stateMutability": "view",
      "type": "function"
    },
    {
      "inputs": [
        {
          "internalType": "uint256",
          "name": "",
          "type": "uint256"
        }
      ],
      "name": "existingCombinations",
      "outputs": [
        {
          "internalType": "uint256",
          "name": "",
          "type": "uint256"
        }
      ],
      "stateMutability": "view",
      "type": "function"
    },
    {
      "inputs": [
        {
          "internalType": "uint256",
          "name": "tokenId",
          "type": "uint256"
        }
      ],
      "name": "getApproved",
      "outputs": [
        {
          "internalType": "address",
          "name": "",
          "type": "address"
        }
      ],
      "stateMutability": "view",
      "type": "function"
    },
    {
      "inputs": [
        {
          "internalType": "address",
          "name": "owner",
          "type": "address"
        },
        {
          "internalType": "address",
          "name": "operator",
          "type": "address"
        }
      ],
      "name": "isApprovedForAll",
      "outputs": [
        {
          "internalType": "bool",
          "name": "",
          "type": "bool"
        }
      ],
      "stateMutability": "view",
      "type": "function"
    },
    {
      "inputs": [],
      "name": "minted",
      "outputs": [
        {
          "internalType": "uint16",
          "name": "",
          "type": "uint16"
        }
      ],
      "stateMutability": "view",
      "type": "function"
    },
    {
      "inputs": [],
      "name": "name",
      "outputs": [
        {
          "internalType": "string",
          "name": "",
          "type": "string"
        }
      ],
      "stateMutability": "view",
      "type": "function"
    },
    {
      "inputs": [],
      "name": "numChefs",
      "outputs": [
        {
          "internalType": "uint16",
          "name": "",
          "type": "uint16"
        }
      ],
      "stateMutability": "view",
      "type": "function"
    },
    {
      "inputs": [],
      "name": "numRats",
      "outputs": [
        {
          "internalType": "uint16",
          "name": "",
          "type": "uint16"
        }
      ],
      "stateMutability": "view",
      "type": "function"
    },
    {
      "inputs": [],
      "name": "owner",
      "outputs": [
        {
          "internalType": "address",
          "name": "",
          "type": "address"
        }
      ],
      "stateMutability": "view",
      "type": "function"
    },
    {
      "inputs": [
        {
          "internalType": "uint256",
          "name": "tokenId",
          "type": "uint256"
        }
      ],
      "name": "ownerOf",
      "outputs": [
        {
          "internalType": "address",
          "name": "",
          "type": "address"
        }
      ],
      "stateMutability": "view",
      "type": "function"
    },
    {
      "inputs": [],
      "name": "paused",
      "outputs": [
        {
          "internalType": "bool",
          "name": "",
          "type": "bool"
        }
      ],
      "stateMutability": "view",
      "type": "function"
    },
    {
      "inputs": [
        {
          "internalType": "uint256",
          "name": "",
          "type": "uint256"
        },
        {
          "internalType": "uint256",
          "name": "",
          "type": "uint256"
        }
      ],
      "name": "rarities",
      "outputs": [
        {
          "internalType": "uint8",
          "name": "",
          "type": "uint8"
        }
      ],
      "stateMutability": "view",
      "type": "function"
    },
    {
      "inputs": [],
      "name": "renounceOwnership",
      "outputs": [],
      "stateMutability": "nonpayable",
      "type": "function"
    },
    {
      "inputs": [
        {
          "internalType": "address",
          "name": "from",
          "type": "address"
        },
        {
          "internalType": "address",
          "name": "to",
          "type": "address"
        },
        {
          "internalType": "uint256",
          "name": "tokenId",
          "type": "uint256"
        }
      ],
      "name": "safeTransferFrom",
      "outputs": [],
      "stateMutability": "nonpayable",
      "type": "function"
    },
    {
      "inputs": [
        {
          "internalType": "address",
          "name": "from",
          "type": "address"
        },
        {
          "internalType": "address",
          "name": "to",
          "type": "address"
        },
        {
          "internalType": "uint256",
          "name": "tokenId",
          "type": "uint256"
        },
        {
          "internalType": "bytes",
          "name": "_data",
          "type": "bytes"
        }
      ],
      "name": "safeTransferFrom",
      "outputs": [],
      "stateMutability": "nonpayable",
      "type": "function"
    },
    {
      "inputs": [
        {
          "internalType": "address",
          "name": "operator",
          "type": "address"
        },
        {
          "internalType": "bool",
          "name": "approved",
          "type": "bool"
        }
      ],
      "name": "setApprovalForAll",
      "outputs": [],
      "stateMutability": "nonpayable",
      "type": "function"
    },
    {
      "inputs": [
        {
          "internalType": "bytes4",
          "name": "interfaceId",
          "type": "bytes4"
        }
      ],
      "name": "supportsInterface",
      "outputs": [
        {
          "internalType": "bool",
          "name": "",
          "type": "bool"
        }
      ],
      "stateMutability": "view",
      "type": "function"
    },
    {
      "inputs": [],
      "name": "symbol",
      "outputs": [
        {
          "internalType": "string",
          "name": "",
          "type": "string"
        }
      ],
      "stateMutability": "view",
      "type": "function"
    },
    {
      "inputs": [
        {
          "internalType": "uint256",
          "name": "",
          "type": "uint256"
        }
      ],
      "name": "tokenTraits",
      "outputs": [
        {
          "internalType": "bool",
          "name": "isChef",
          "type": "bool"
        },
        {
          "internalType": "uint8",
          "name": "hat",
          "type": "uint8"
        },
        {
          "internalType": "uint8",
          "name": "eyes",
          "type": "uint8"
        },
        {
          "internalType": "uint8",
          "name": "piercing",
          "type": "uint8"
        },
        {
          "internalType": "uint8",
          "name": "mouth",
          "type": "uint8"
        },
        {
          "internalType": "uint8",
          "name": "neck",
          "type": "uint8"
        },
        {
          "internalType": "uint8",
          "name": "hand",
          "type": "uint8"
        },
        {
          "internalType": "uint8",
          "name": "tail",
          "type": "uint8"
        },
        {
          "internalType": "uint8",
          "name": "efficiency",
          "type": "uint8"
        },
        {
          "internalType": "uint8",
          "name": "tolerance",
          "type": "uint8"
        }
      ],
      "stateMutability": "view",
      "type": "function"
    },
    {
      "inputs": [],
      "name": "traits",
      "outputs": [
        {
          "internalType": "contract ITraits",
          "name": "",
          "type": "address"
        }
      ],
      "stateMutability": "view",
      "type": "function"
    },
    {
      "inputs": [
        {
          "internalType": "address",
          "name": "from",
          "type": "address"
        },
        {
          "internalType": "address",
          "name": "to",
          "type": "address"
        },
        {
          "internalType": "uint256",
          "name": "tokenId",
          "type": "uint256"
        }
      ],
      "name": "transferFrom",
      "outputs": [],
      "stateMutability": "nonpayable",
      "type": "function"
    },
    {
      "inputs": [
        {
          "internalType": "address",
          "name": "newOwner",
          "type": "address"
        }
      ],
      "name": "transferOwnership",
      "outputs": [],
      "stateMutability": "nonpayable",
      "type": "function"
    },
    {
      "inputs": [
        {
          "internalType": "address",
          "name": "_traits",
          "type": "address"
        },
        {
          "internalType": "uint256",
          "name": "_maxTokens",
          "type": "uint256"
        }
      ],
      "name": "initialize",
      "outputs": [],
      "stateMutability": "nonpayable",
      "type": "function"
    },
    {
      "inputs": [
        {
          "internalType": "uint8",
          "name": "amount",
          "type": "uint8"
        }
      ],
      "name": "mint",
      "outputs": [],
      "stateMutability": "payable",
      "type": "function"
    },
    {
      "inputs": [
        {
          "internalType": "uint256",
          "name": "tokenId",
          "type": "uint256"
        },
        {
          "internalType": "int8",
          "name": "increment",
          "type": "int8"
        }
      ],
      "name": "updateEfficiency",
      "outputs": [
        {
          "internalType": "uint8",
          "name": "",
          "type": "uint8"
        }
      ],
      "stateMutability": "nonpayable",
      "type": "function"
    },
    {
      "inputs": [
        {
          "internalType": "uint256",
          "name": "tokenId",
          "type": "uint256"
        },
        {
          "internalType": "int8",
          "name": "increment",
          "type": "int8"
        }
      ],
      "name": "updateTolerance",
      "outputs": [
        {
          "internalType": "uint8",
          "name": "",
          "type": "uint8"
        }
      ],
      "stateMutability": "nonpayable",
      "type": "function"
    },
    {
      "inputs": [
        {
          "internalType": "uint256",
          "name": "tokenId",
          "type": "uint256"
        }
      ],
      "name": "tokenURI",
      "outputs": [
        {
          "internalType": "string",
          "name": "",
          "type": "string"
        }
      ],
      "stateMutability": "view",
      "type": "function"
    },
    {
      "inputs": [
        {
          "internalType": "uint256",
          "name": "tokenId",
          "type": "uint256"
        }
      ],
      "name": "getTokenTraits",
      "outputs": [
        {
          "components": [
            {
              "internalType": "bool",
              "name": "isChef",
              "type": "bool"
            },
            {
              "internalType": "uint8",
              "name": "hat",
              "type": "uint8"
            },
            {
              "internalType": "uint8",
              "name": "eyes",
              "type": "uint8"
            },
            {
              "internalType": "uint8",
              "name": "piercing",
              "type": "uint8"
            },
            {
              "internalType": "uint8",
              "name": "mouth",
              "type": "uint8"
            },
            {
              "internalType": "uint8",
              "name": "neck",
              "type": "uint8"
            },
            {
              "internalType": "uint8",
              "name": "hand",
              "type": "uint8"
            },
            {
              "internalType": "uint8",
              "name": "tail",
              "type": "uint8"
            },
            {
              "internalType": "uint8",
              "name": "efficiency",
              "type": "uint8"
            },
            {
              "internalType": "uint8",
              "name": "tolerance",
              "type": "uint8"
            }
          ],
          "internalType": "struct IChefRat.ChefRatStruct",
          "name": "",
          "type": "tuple"
        }
      ],
      "stateMutability": "view",
      "type": "function"
    },
    {
      "inputs": [],
      "name": "getPaidTokens",
      "outputs": [
        {
          "internalType": "uint256",
          "name": "",
          "type": "uint256"
        }
      ],
      "stateMutability": "view",
      "type": "function"
    },
    {
      "inputs": [
        {
          "internalType": "address",
          "name": "controller",
          "type": "address"
        }
      ],
      "name": "getController",
      "outputs": [
        {
          "internalType": "bool",
          "name": "",
          "type": "bool"
        }
      ],
      "stateMutability": "view",
      "type": "function"
    },
    {
      "inputs": [
        {
          "internalType": "address",
          "name": "controller",
          "type": "address"
        }
      ],
      "name": "addController",
      "outputs": [],
      "stateMutability": "nonpayable",
      "type": "function"
    },
    {
      "inputs": [
        {
          "internalType": "address",
          "name": "controller",
          "type": "address"
        }
      ],
      "name": "removeController",
      "outputs": [],
      "stateMutability": "nonpayable",
      "type": "function"
    }
  ],
  "bytecode": "0x608060405234801561001057600080fd5b5061561980620000216000396000f3fe60806040526004361061020f5760003560e01c80638da5cb5b11610118578063c87b56dd116100a0578063e1fc334f1161006f578063e1fc334f146107f9578063e985e9c514610824578063f2fde38b14610861578063f47c84c51461088a578063f6a74ed7146108b55761020f565b8063c87b56dd14610722578063cd6dc6871461075f578063d39f8a4d14610788578063e05c57bf146107b35761020f565b8063a22cb465116100e7578063a22cb46514610651578063a7fc7a071461067a578063b88d4fde146106a3578063c002d23d146106cc578063c084f540146106f75761020f565b80638da5cb5b1461058157806394e56847146105ac57806395d89b41146105e9578063a1b8f374146106145761020f565b806342842e0e1161019b57806366ffcf991161016a57806366ffcf99146104975780636ecd2306146104d457806370a08231146104f0578063715018a61461052d57806388c662aa146105445761020f565b806342842e0e146103db5780634f02c420146104045780635c975abb1461042f5780636352211e1461045a5761020f565b8063095ea7b3116101e2578063095ea7b3146102e45780632373e1271461030d57806323b872dd1461034a57806333df4b2c146103735780634018b1f8146103b05761020f565b806301ffc9a71461021457806306fdde0314610251578063081812fc1461027c5780630917e40d146102b9575b600080fd5b34801561022057600080fd5b5061023b60048036038101906102369190613992565b6108de565b60405161024891906139da565b60405180910390f35b34801561025d57600080fd5b506102666109c0565b6040516102739190613a8e565b60405180910390f35b34801561028857600080fd5b506102a3600480360381019061029e9190613ae6565b610a52565b6040516102b09190613b54565b60405180910390f35b3480156102c557600080fd5b506102ce610ad7565b6040516102db9190613b8c565b60405180910390f35b3480156102f057600080fd5b5061030b60048036038101906103069190613bd3565b610aeb565b005b34801561031957600080fd5b50610334600480360381019061032f9190613c4c565b610c03565b6040516103419190613ca8565b60405180910390f35b34801561035657600080fd5b50610371600480360381019061036c9190613cc3565b610cfc565b005b34801561037f57600080fd5b5061039a60048036038101906103959190613d16565b610d5c565b6040516103a79190613ca8565b60405180910390f35b3480156103bc57600080fd5b506103c5610da3565b6040516103d29190613d65565b60405180910390f35b3480156103e757600080fd5b5061040260048036038101906103fd9190613cc3565b610dad565b005b34801561041057600080fd5b50610419610dcd565b6040516104269190613b8c565b60405180910390f35b34801561043b57600080fd5b50610444610de1565b60405161045191906139da565b60405180910390f35b34801561046657600080fd5b50610481600480360381019061047c9190613ae6565b610df8565b60405161048e9190613b54565b60405180910390f35b3480156104a357600080fd5b506104be60048036038101906104b99190613c4c565b610eaa565b6040516104cb9190613ca8565b60405180910390f35b6104ee60048036038101906104e99190613dac565b610fa3565b005b3480156104fc57600080fd5b5061051760048036038101906105129190613dd9565b611278565b6040516105249190613d65565b60405180910390f35b34801561053957600080fd5b50610542611330565b005b34801561055057600080fd5b5061056b60048036038101906105669190613dd9565b6113b8565b60405161057891906139da565b60405180910390f35b34801561058d57600080fd5b5061059661148b565b6040516105a39190613b54565b60405180910390f35b3480156105b857600080fd5b506105d360048036038101906105ce9190613ae6565b6114b5565b6040516105e09190613ef0565b60405180910390f35b3480156105f557600080fd5b506105fe61164b565b60405161060b9190613a8e565b60405180910390f35b34801561062057600080fd5b5061063b60048036038101906106369190613ae6565b6116dd565b6040516106489190613d65565b60405180910390f35b34801561065d57600080fd5b5061067860048036038101906106739190613f38565b6116f5565b005b34801561068657600080fd5b506106a1600480360381019061069c9190613dd9565b61170b565b005b3480156106af57600080fd5b506106ca60048036038101906106c591906140ad565b6117e3565b005b3480156106d857600080fd5b506106e1611845565b6040516106ee9190613d65565b60405180910390f35b34801561070357600080fd5b5061070c611851565b6040516107199190613d65565b60405180910390f35b34801561072e57600080fd5b5061074960048036038101906107449190613ae6565b611857565b6040516107569190613a8e565b60405180910390f35b34801561076b57600080fd5b5061078660048036038101906107819190613bd3565b61194a565b005b34801561079457600080fd5b5061079d611fb8565b6040516107aa9190613b8c565b60405180910390f35b3480156107bf57600080fd5b506107da60048036038101906107d59190613ae6565b611fcc565b6040516107f09a99989796959493929190614130565b60405180910390f35b34801561080557600080fd5b5061080e6120a2565b60405161081b919061422b565b60405180910390f35b34801561083057600080fd5b5061084b60048036038101906108469190614246565b6120c9565b60405161085891906139da565b60405180910390f35b34801561086d57600080fd5b5061088860048036038101906108839190613dd9565b61215d565b005b34801561089657600080fd5b5061089f612255565b6040516108ac9190613d65565b60405180910390f35b3480156108c157600080fd5b506108dc60048036038101906108d79190613dd9565b61225b565b005b60007f80ac58cd000000000000000000000000000000000000000000000000000000007bffffffffffffffffffffffffffffffffffffffffffffffffffffffff1916827bffffffffffffffffffffffffffffffffffffffffffffffffffffffff191614806109a957507f5b5e139f000000000000000000000000000000000000000000000000000000007bffffffffffffffffffffffffffffffffffffffffffffffffffffffff1916827bffffffffffffffffffffffffffffffffffffffffffffffffffffffff1916145b806109b957506109b882612333565b5b9050919050565b606060c980546109cf906142b5565b80601f01602080910402602001604051908101604052809291908181526020018280546109fb906142b5565b8015610a485780601f10610a1d57610100808354040283529160200191610a48565b820191906000526020600020905b815481529060010190602001808311610a2b57829003601f168201915b5050505050905090565b6000610a5d8261239d565b610a9c576040517f08c379a0000000000000000000000000000000000000000000000000000000008152600401610a9390614359565b60405180910390fd5b60cd600083815260200190815260200160002060009054906101000a900473ffffffffffffffffffffffffffffffffffffffff169050919050565b60fb60049054906101000a900461ffff1681565b6000610af682610df8565b90508073ffffffffffffffffffffffffffffffffffffffff168373ffffffffffffffffffffffffffffffffffffffff161415610b67576040517f08c379a0000000000000000000000000000000000000000000000000000000008152600401610b5e906143eb565b60405180910390fd5b8073ffffffffffffffffffffffffffffffffffffffff16610b86612409565b73ffffffffffffffffffffffffffffffffffffffff161480610bb55750610bb481610baf612409565b6120c9565b5b610bf4576040517f08c379a0000000000000000000000000000000000000000000000000000000008152600401610beb9061447d565b60405180910390fd5b610bfe8383612411565b505050565b600061010060003373ffffffffffffffffffffffffffffffffffffffff1673ffffffffffffffffffffffffffffffffffffffff16815260200190815260200160002060009054906101000a900460ff16610c92576040517f08c379a0000000000000000000000000000000000000000000000000000000008152600401610c89906144e9565b60405180910390fd5b6000610cc160fe600086815260200190815260200160002060000160099054906101000a900460ff16846124ca565b90508060fe600086815260200190815260200160002060000160096101000a81548160ff021916908360ff1602179055508091505092915050565b610d0d610d07612409565b82612543565b610d4c576040517f08c379a0000000000000000000000000000000000000000000000000000000008152600401610d439061457b565b60405180910390fd5b610d57838383612621565b505050565b6101018260128110610d6d57600080fd5b018181548110610d7c57600080fd5b9060005260206000209060209182820401919006915091509054906101000a900460ff1681565b600060fd54905090565b610dc8838383604051806020016040528060008152506117e3565b505050565b60fb60009054906101000a900461ffff1681565b6000606560009054906101000a900460ff16905090565b60008060cb600084815260200190815260200160002060009054906101000a900473ffffffffffffffffffffffffffffffffffffffff169050600073ffffffffffffffffffffffffffffffffffffffff168173ffffffffffffffffffffffffffffffffffffffff161415610ea1576040517f08c379a0000000000000000000000000000000000000000000000000000000008152600401610e989061460d565b60405180910390fd5b80915050919050565b600061010060003373ffffffffffffffffffffffffffffffffffffffff1673ffffffffffffffffffffffffffffffffffffffff16815260200190815260200160002060009054906101000a900460ff16610f39576040517f08c379a0000000000000000000000000000000000000000000000000000000008152600401610f30906144e9565b60405180910390fd5b6000610f6860fe600086815260200190815260200160002060000160089054906101000a900460ff16846124ca565b90508060fe600086815260200190815260200160002060000160086101000a81548160ff021916908360ff1602179055508091505092915050565b610fab610de1565b15610feb576040517f08c379a0000000000000000000000000000000000000000000000000000000008152600401610fe290614679565b60405180910390fd5b60008160ff161180156110025750600a8160ff1611155b611041576040517f08c379a0000000000000000000000000000000000000000000000000000000008152600401611038906146e5565b60405180910390fd5b3467016345785d8a00008260ff166110599190614734565b14611099576040517f08c379a0000000000000000000000000000000000000000000000000000000008152600401611090906147da565b60405180910390fd5b60008160ff1667ffffffffffffffff8111156110b8576110b7613f82565b5b6040519080825280602002602001820160405280156110e65781602001602082028036833780820191505090505b50905060006110f36136c5565b60005b8460ff168110156112715760fb600081819054906101000a900461ffff1680929190611121906147fa565b91906101000a81548161ffff021916908361ffff1602179055505061115960fb60009054906101000a900461ffff1661ffff1661287d565b925061117960fb60009054906101000a900461ffff1661ffff16846128c3565b91506111a0611186612409565b60fb60009054906101000a900461ffff1661ffff16612a9b565b60fb60009054906101000a900461ffff168482815181106111c4576111c3614825565b5b602002602001019061ffff16908161ffff168152505081600001516112225760fb600481819054906101000a900461ffff1680929190611203906147fa565b91906101000a81548161ffff021916908361ffff16021790555061125d565b60fb600281819054906101000a900461ffff1680929190611242906147fa565b91906101000a81548161ffff021916908361ffff1602179055505b50808061126990614854565b9150506110f6565b5050505050565b60008073ffffffffffffffffffffffffffffffffffffffff168273ffffffffffffffffffffffffffffffffffffffff1614156112e9576040517f08c379a00000000000000000000000000000000000000000000000000000000081526004016112e09061490f565b60405180910390fd5b60cc60008373ffffffffffffffffffffffffffffffffffffffff1673ffffffffffffffffffffffffffffffffffffffff168152602001908152602001600020549050919050565b611338612409565b73ffffffffffffffffffffffffffffffffffffffff1661135661148b565b73ffffffffffffffffffffffffffffffffffffffff16146113ac576040517f08c379a00000000000000000000000000000000000000000000000000000000081526004016113a39061497b565b60405180910390fd5b6113b66000612ab9565b565b60006113c2612409565b73ffffffffffffffffffffffffffffffffffffffff166113e061148b565b73ffffffffffffffffffffffffffffffffffffffff1614611436576040517f08c379a000000000000000000000000000000000000000000000000000000000815260040161142d9061497b565b60405180910390fd5b61010060008373ffffffffffffffffffffffffffffffffffffffff1673ffffffffffffffffffffffffffffffffffffffff16815260200190815260200160002060009054906101000a900460ff169050919050565b6000603360009054906101000a900473ffffffffffffffffffffffffffffffffffffffff16905090565b6114bd6136c5565b6114c68261239d565b611505576040517f08c379a00000000000000000000000000000000000000000000000000000000081526004016114fc90614a0d565b60405180910390fd5b60fe6000838152602001908152602001600020604051806101400160405290816000820160009054906101000a900460ff161515151581526020016000820160019054906101000a900460ff1660ff1660ff1681526020016000820160029054906101000a900460ff1660ff1660ff1681526020016000820160039054906101000a900460ff1660ff1660ff1681526020016000820160049054906101000a900460ff1660ff1660ff1681526020016000820160059054906101000a900460ff1660ff1660ff1681526020016000820160069054906101000a900460ff1660ff1660ff1681526020016000820160079054906101000a900460ff1660ff1660ff1681526020016000820160089054906101000a900460ff1660ff1660ff1681526020016000820160099054906101000a900460ff1660ff1660ff16815250509050919050565b606060ca805461165a906142b5565b80601f0160208091040260200160405190810160405280929190818152602001828054611686906142b5565b80156116d35780601f106116a8576101008083540402835291602001916116d3565b820191906000526020600020905b8154815290600101906020018083116116b657829003601f168201915b5050505050905090565b60ff6020528060005260406000206000915090505481565b611707611700612409565b8383612b7f565b5050565b611713612409565b73ffffffffffffffffffffffffffffffffffffffff1661173161148b565b73ffffffffffffffffffffffffffffffffffffffff1614611787576040517f08c379a000000000000000000000000000000000000000000000000000000000815260040161177e9061497b565b60405180910390fd5b600161010060008373ffffffffffffffffffffffffffffffffffffffff1673ffffffffffffffffffffffffffffffffffffffff16815260200190815260200160002060006101000a81548160ff02191690831515021790555050565b6117f46117ee612409565b83612543565b611833576040517f08c379a000000000000000000000000000000000000000000000000000000000815260040161182a9061457b565b60405180910390fd5b61183f84848484612cec565b50505050565b67016345785d8a000081565b60fd5481565b60606118628261239d565b6118a1576040517f08c379a000000000000000000000000000000000000000000000000000000000815260040161189890614a0d565b60405180910390fd5b61011360009054906101000a900473ffffffffffffffffffffffffffffffffffffffff1673ffffffffffffffffffffffffffffffffffffffff1663c87b56dd836040518263ffffffff1660e01b81526004016118fd9190613d65565b600060405180830381865afa15801561191a573d6000803e3d6000fd5b505050506040513d6000823e3d601f19601f820116820180604052508101906119439190614ace565b9050919050565b600060019054906101000a900460ff166119725760008054906101000a900460ff161561197b565b61197a612d48565b5b6119ba576040517f08c379a00000000000000000000000000000000000000000000000000000000081526004016119b190614b89565b60405180910390fd5b60008060019054906101000a900460ff161590508015611a0a576001600060016101000a81548160ff02191690831515021790555060016000806101000a81548160ff0219169083151502179055505b611a12612d59565b611a1a612dba565b611a8e6040518060400160405280601581526020017f526174416c6572742043686566732026205261747300000000000000000000008152506040518060400160405280600781526020017f4348454652415400000000000000000000000000000000000000000000000000815250612e1b565b600060fb60006101000a81548161ffff021916908361ffff160217905550600060fb60026101000a81548161ffff021916908361ffff160217905550600060fb60046101000a81548161ffff021916908361ffff1602179055508261011360006101000a81548173ffffffffffffffffffffffffffffffffffffffff021916908373ffffffffffffffffffffffffffffffffffffffff1602179055508160fc81905550600582611b3e9190614bd8565b60fd819055506040518060c0016040528060ff8016815260200160df60ff16815260200160bf60ff168152602001609f60ff168152602001607f60ff168152602001605f60ff16815250610101600260128110611b9e57611b9d614825565b5b01906006611bad929190613735565b5060405180610100016040528060ff8016815260200160df60ff16815260200160bf60ff168152602001609f60ff168152602001607f60ff168152602001605f60ff168152602001603f60ff168152602001601f60ff16815250610101600360128110611c1d57611c1c614825565b5b01906008611c2c9291906137dc565b506040518060c0016040528060ff8016815260200160df60ff16815260200160bf60ff168152602001609f60ff168152602001607f60ff168152602001605f60ff16815250610101600460128110611c8757611c86614825565b5b01906006611c96929190613735565b506040518060c0016040528060ff8016815260200160cf60ff168152602001609f60ff168152602001606f60ff168152602001603f60ff168152602001600f60ff16815250610101600560128110611cf157611cf0614825565b5b01906006611d00929190613735565b506040518060c0016040528060ff8016815260200160df60ff16815260200160bf60ff168152602001609f60ff168152602001607f60ff168152602001605f60ff16815250610101600660128110611d5b57611d5a614825565b5b01906006611d6a929190613735565b506040518060c0016040528060ff8016815260200160df60ff16815260200160bf60ff168152602001609f60ff168152602001607f60ff168152602001605f60ff16815250610101600c60128110611dc557611dc4614825565b5b01906006611dd4929190613735565b5060405180610100016040528060ff8016815260200160df60ff16815260200160bf60ff168152602001609f60ff168152602001607f60ff168152602001605f60ff168152602001603f60ff168152602001601f60ff16815250610101600d60128110611e4457611e43614825565b5b01906008611e539291906137dc565b506040518060c0016040528060ff8016815260200160df60ff16815260200160bf60ff168152602001609f60ff168152602001607f60ff168152602001605f60ff16815250610101600e60128110611eae57611ead614825565b5b01906006611ebd929190613735565b506040518060c0016040528060ff8016815260200160cf60ff168152602001609f60ff168152602001606f60ff168152602001603f60ff168152602001600f60ff16815250610101600f60128110611f1857611f17614825565b5b01906006611f27929190613735565b506040518060c0016040528060ff8016815260200160df60ff16815260200160bf60ff168152602001609f60ff168152602001607f60ff168152602001605f60ff16815250610101601060128110611f8257611f81614825565b5b01906006611f91929190613735565b508015611fb35760008060016101000a81548160ff0219169083151502179055505b505050565b60fb60029054906101000a900461ffff1681565b60fe6020528060005260406000206000915090508060000160009054906101000a900460ff16908060000160019054906101000a900460ff16908060000160029054906101000a900460ff16908060000160039054906101000a900460ff16908060000160049054906101000a900460ff16908060000160059054906101000a900460ff16908060000160069054906101000a900460ff16908060000160079054906101000a900460ff16908060000160089054906101000a900460ff16908060000160099054906101000a900460ff1690508a565b61011360009054906101000a900473ffffffffffffffffffffffffffffffffffffffff1681565b600060ce60008473ffffffffffffffffffffffffffffffffffffffff1673ffffffffffffffffffffffffffffffffffffffff16815260200190815260200160002060008373ffffffffffffffffffffffffffffffffffffffff1673ffffffffffffffffffffffffffffffffffffffff16815260200190815260200160002060009054906101000a900460ff16905092915050565b612165612409565b73ffffffffffffffffffffffffffffffffffffffff1661218361148b565b73ffffffffffffffffffffffffffffffffffffffff16146121d9576040517f08c379a00000000000000000000000000000000000000000000000000000000081526004016121d09061497b565b60405180910390fd5b600073ffffffffffffffffffffffffffffffffffffffff168173ffffffffffffffffffffffffffffffffffffffff161415612249576040517f08c379a000000000000000000000000000000000000000000000000000000000815260040161224090614c7b565b60405180910390fd5b61225281612ab9565b50565b60fc5481565b612263612409565b73ffffffffffffffffffffffffffffffffffffffff1661228161148b565b73ffffffffffffffffffffffffffffffffffffffff16146122d7576040517f08c379a00000000000000000000000000000000000000000000000000000000081526004016122ce9061497b565b60405180910390fd5b600061010060008373ffffffffffffffffffffffffffffffffffffffff1673ffffffffffffffffffffffffffffffffffffffff16815260200190815260200160002060006101000a81548160ff02191690831515021790555050565b60007f01ffc9a7000000000000000000000000000000000000000000000000000000007bffffffffffffffffffffffffffffffffffffffffffffffffffffffff1916827bffffffffffffffffffffffffffffffffffffffffffffffffffffffff1916149050919050565b60008073ffffffffffffffffffffffffffffffffffffffff1660cb600084815260200190815260200160002060009054906101000a900473ffffffffffffffffffffffffffffffffffffffff1673ffffffffffffffffffffffffffffffffffffffff1614159050919050565b600033905090565b8160cd600083815260200190815260200160002060006101000a81548173ffffffffffffffffffffffffffffffffffffffff021916908373ffffffffffffffffffffffffffffffffffffffff160217905550808273ffffffffffffffffffffffffffffffffffffffff1661248483610df8565b73ffffffffffffffffffffffffffffffffffffffff167f8c5be1e5ebec7d5bd14f71427d1e84f3dd0314c0f7b2291e5b200ac8c7c3b92560405160405180910390a45050565b6000808260000b1261250757606483836124e49190614c9b565b60ff16116124fd5781836124f89190614c9b565b612500565b60645b905061253d565b8260ff168261251590614cd2565b60ff1611612537578161252790614cd2565b836125329190614d1b565b61253a565b60005b90505b92915050565b600061254e8261239d565b61258d576040517f08c379a000000000000000000000000000000000000000000000000000000000815260040161258490614dc1565b60405180910390fd5b600061259883610df8565b90508073ffffffffffffffffffffffffffffffffffffffff168473ffffffffffffffffffffffffffffffffffffffff16148061260757508373ffffffffffffffffffffffffffffffffffffffff166125ef84610a52565b73ffffffffffffffffffffffffffffffffffffffff16145b80612618575061261781856120c9565b5b91505092915050565b8273ffffffffffffffffffffffffffffffffffffffff1661264182610df8565b73ffffffffffffffffffffffffffffffffffffffff1614612697576040517f08c379a000000000000000000000000000000000000000000000000000000000815260040161268e90614e53565b60405180910390fd5b600073ffffffffffffffffffffffffffffffffffffffff168273ffffffffffffffffffffffffffffffffffffffff161415612707576040517f08c379a00000000000000000000000000000000000000000000000000000000081526004016126fe90614ee5565b60405180910390fd5b612712838383612e88565b61271d600082612411565b600160cc60008573ffffffffffffffffffffffffffffffffffffffff1673ffffffffffffffffffffffffffffffffffffffff168152602001908152602001600020600082825461276d9190614f05565b92505081905550600160cc60008473ffffffffffffffffffffffffffffffffffffffff1673ffffffffffffffffffffffffffffffffffffffff16815260200190815260200160002060008282546127c49190614f39565b925050819055508160cb600083815260200190815260200160002060006101000a81548173ffffffffffffffffffffffffffffffffffffffff021916908373ffffffffffffffffffffffffffffffffffffffff160217905550808273ffffffffffffffffffffffffffffffffffffffff168473ffffffffffffffffffffffffffffffffffffffff167fddf252ad1be2c89b69c2b068fc378daa952ba7f163c4a11628f55a4df523b3ef60405160405180910390a4505050565b60003260014361288d9190614f05565b4042846040516020016128a39493929190615023565b6040516020818303038152906040528051906020012060001c9050919050565b6128cb6136c5565b6128d482612e8d565b905060006128e182612fe6565b9050600060ff6000838152602001908152602001600020541415612a7f578160fe600086815260200190815260200160002060008201518160000160006101000a81548160ff02191690831515021790555060208201518160000160016101000a81548160ff021916908360ff16021790555060408201518160000160026101000a81548160ff021916908360ff16021790555060608201518160000160036101000a81548160ff021916908360ff16021790555060808201518160000160046101000a81548160ff021916908360ff16021790555060a08201518160000160056101000a81548160ff021916908360ff16021790555060c08201518160000160066101000a81548160ff021916908360ff16021790555060e08201518160000160076101000a81548160ff021916908360ff1602179055506101008201518160000160086101000a81548160ff021916908360ff1602179055506101208201518160000160096101000a81548160ff021916908360ff1602179055509050508360ff60008381526020019081526020016000208190555050612a95565b612a9184612a8c8561287d565b6128c3565b9150505b92915050565b612ab5828260405180602001604052806000815250613049565b5050565b6000603360009054906101000a900473ffffffffffffffffffffffffffffffffffffffff16905081603360006101000a81548173ffffffffffffffffffffffffffffffffffffffff021916908373ffffffffffffffffffffffffffffffffffffffff1602179055508173ffffffffffffffffffffffffffffffffffffffff168173ffffffffffffffffffffffffffffffffffffffff167f8be0079c531659141344cd1fd0a4f28419497f9722a3daafe3b4186f6b6457e060405160405180910390a35050565b8173ffffffffffffffffffffffffffffffffffffffff168373ffffffffffffffffffffffffffffffffffffffff161415612bee576040517f08c379a0000000000000000000000000000000000000000000000000000000008152600401612be5906150bd565b60405180910390fd5b8060ce60008573ffffffffffffffffffffffffffffffffffffffff1673ffffffffffffffffffffffffffffffffffffffff16815260200190815260200160002060008473ffffffffffffffffffffffffffffffffffffffff1673ffffffffffffffffffffffffffffffffffffffff16815260200190815260200160002060006101000a81548160ff0219169083151502179055508173ffffffffffffffffffffffffffffffffffffffff168373ffffffffffffffffffffffffffffffffffffffff167f17307eab39ab6107e8899845ad3d59bd9653f200f220920489ca2b5937696c3183604051612cdf91906139da565b60405180910390a3505050565b612cf7848484612621565b612d03848484846130a4565b612d42576040517f08c379a0000000000000000000000000000000000000000000000000000000008152600401612d399061514f565b60405180910390fd5b50505050565b6000612d533061322c565b15905090565b600060019054906101000a900460ff16612da8576040517f08c379a0000000000000000000000000000000000000000000000000000000008152600401612d9f906151e1565b60405180910390fd5b612db061323f565b612db8613290565b565b600060019054906101000a900460ff16612e09576040517f08c379a0000000000000000000000000000000000000000000000000000000008152600401612e00906151e1565b60405180910390fd5b612e1161323f565b612e196132f1565b565b600060019054906101000a900460ff16612e6a576040517f08c379a0000000000000000000000000000000000000000000000000000000008152600401612e61906151e1565b60405180910390fd5b612e7261323f565b612e7a61335d565b612e8482826133ae565b5050565b505050565b612e956136c5565b6000600a61ffff8416612ea89190615201565b1415816000019015159081151581525050806000015115612f5457612ece82600261342f565b816020019060ff16908160ff1681525050612eea82600361342f565b816040019060ff16908160ff1681525050612f0682600461342f565b816080019060ff16908160ff1681525050612f2282600561342f565b8160a0019060ff16908160ff1681525050612f3e82600661342f565b8160c0019060ff16908160ff1681525050612fe1565b612f5f82600c61342f565b816020019060ff16908160ff1681525050612f7b82600d61342f565b816040019060ff16908160ff1681525050612f9782600e61342f565b816060019060ff16908160ff1681525050612fb382600f61342f565b8160a0019060ff16908160ff1681525050612fcf82601061342f565b8160e0019060ff16908160ff16815250505b919050565b6000816000015182602001518360400151846060015185608001518660a001518760c001518860e00151604051602001613027989796959493929190615291565b60405160208183030381529060405261303f90615360565b60001c9050919050565b61305383836134f7565b61306060008484846130a4565b61309f576040517f08c379a00000000000000000000000000000000000000000000000000000000081526004016130969061514f565b60405180910390fd5b505050565b60006130c58473ffffffffffffffffffffffffffffffffffffffff1661322c565b1561321f578373ffffffffffffffffffffffffffffffffffffffff1663150b7a026130ee612409565b8786866040518563ffffffff1660e01b81526004016131109493929190615411565b6020604051808303816000875af192505050801561314c57506040513d601f19601f820116820180604052508101906131499190615472565b60015b6131cf573d806000811461317c576040519150601f19603f3d011682016040523d82523d6000602084013e613181565b606091505b506000815114156131c7576040517f08c379a00000000000000000000000000000000000000000000000000000000081526004016131be9061514f565b60405180910390fd5b805181602001fd5b63150b7a0260e01b7bffffffffffffffffffffffffffffffffffffffffffffffffffffffff1916817bffffffffffffffffffffffffffffffffffffffffffffffffffffffff191614915050613224565b600190505b949350505050565b600080823b905060008111915050919050565b600060019054906101000a900460ff1661328e576040517f08c379a0000000000000000000000000000000000000000000000000000000008152600401613285906151e1565b60405180910390fd5b565b600060019054906101000a900460ff166132df576040517f08c379a00000000000000000000000000000000000000000000000000000000081526004016132d6906151e1565b60405180910390fd5b6132ef6132ea612409565b612ab9565b565b600060019054906101000a900460ff16613340576040517f08c379a0000000000000000000000000000000000000000000000000000000008152600401613337906151e1565b60405180910390fd5b6000606560006101000a81548160ff021916908315150217905550565b600060019054906101000a900460ff166133ac576040517f08c379a00000000000000000000000000000000000000000000000000000000081526004016133a3906151e1565b60405180910390fd5b565b600060019054906101000a900460ff166133fd576040517f08c379a00000000000000000000000000000000000000000000000000000000081526004016133f4906151e1565b60405180910390fd5b8160c99080519060200190613413929190613883565b508060ca908051906020019061342a929190613883565b505050565b60006010600a83613440919061549f565b61344a91906154d0565b60ff1683901c925060006101018360ff166012811061346c5761346b614825565b5b01805490508461347c919061549f565b9050600060ff851690506101018460ff166012811061349e5761349d614825565b5b018260ff16815481106134b4576134b3614825565b5b90600052602060002090602091828204019190069054906101000a900460ff1660ff168160ff16116134ea5781925050506134f1565b6000925050505b92915050565b600073ffffffffffffffffffffffffffffffffffffffff168273ffffffffffffffffffffffffffffffffffffffff161415613567576040517f08c379a000000000000000000000000000000000000000000000000000000000815260040161355e90615557565b60405180910390fd5b6135708161239d565b156135b0576040517f08c379a00000000000000000000000000000000000000000000000000000000081526004016135a7906155c3565b60405180910390fd5b6135bc60008383612e88565b600160cc60008473ffffffffffffffffffffffffffffffffffffffff1673ffffffffffffffffffffffffffffffffffffffff168152602001908152602001600020600082825461360c9190614f39565b925050819055508160cb600083815260200190815260200160002060006101000a81548173ffffffffffffffffffffffffffffffffffffffff021916908373ffffffffffffffffffffffffffffffffffffffff160217905550808273ffffffffffffffffffffffffffffffffffffffff16600073ffffffffffffffffffffffffffffffffffffffff167fddf252ad1be2c89b69c2b068fc378daa952ba7f163c4a11628f55a4df523b3ef60405160405180910390a45050565b604051806101400160405280600015158152602001600060ff168152602001600060ff168152602001600060ff168152602001600060ff168152602001600060ff168152602001600060ff168152602001600060ff168152602001600060ff168152602001600060ff1681525090565b82805482825590600052602060002090601f016020900481019282156137cb5791602002820160005b8382111561379c57835183826101000a81548160ff021916908360ff160217905550926020019260010160208160000104928301926001030261375e565b80156137c95782816101000a81549060ff021916905560010160208160000104928301926001030261379c565b505b5090506137d89190613909565b5090565b82805482825590600052602060002090601f016020900481019282156138725791602002820160005b8382111561384357835183826101000a81548160ff021916908360ff1602179055509260200192600101602081600001049283019260010302613805565b80156138705782816101000a81549060ff0219169055600101602081600001049283019260010302613843565b505b50905061387f9190613909565b5090565b82805461388f906142b5565b90600052602060002090601f0160209004810192826138b157600085556138f8565b82601f106138ca57805160ff19168380011785556138f8565b828001600101855582156138f8579182015b828111156138f75782518255916020019190600101906138dc565b5b5090506139059190613909565b5090565b5b8082111561392257600081600090555060010161390a565b5090565b6000604051905090565b600080fd5b600080fd5b60007fffffffff0000000000000000000000000000000000000000000000000000000082169050919050565b61396f8161393a565b811461397a57600080fd5b50565b60008135905061398c81613966565b92915050565b6000602082840312156139a8576139a7613930565b5b60006139b68482850161397d565b91505092915050565b60008115159050919050565b6139d4816139bf565b82525050565b60006020820190506139ef60008301846139cb565b92915050565b600081519050919050565b600082825260208201905092915050565b60005b83811015613a2f578082015181840152602081019050613a14565b83811115613a3e576000848401525b50505050565b6000601f19601f8301169050919050565b6000613a60826139f5565b613a6a8185613a00565b9350613a7a818560208601613a11565b613a8381613a44565b840191505092915050565b60006020820190508181036000830152613aa88184613a55565b905092915050565b6000819050919050565b613ac381613ab0565b8114613ace57600080fd5b50565b600081359050613ae081613aba565b92915050565b600060208284031215613afc57613afb613930565b5b6000613b0a84828501613ad1565b91505092915050565b600073ffffffffffffffffffffffffffffffffffffffff82169050919050565b6000613b3e82613b13565b9050919050565b613b4e81613b33565b82525050565b6000602082019050613b696000830184613b45565b92915050565b600061ffff82169050919050565b613b8681613b6f565b82525050565b6000602082019050613ba16000830184613b7d565b92915050565b613bb081613b33565b8114613bbb57600080fd5b50565b600081359050613bcd81613ba7565b92915050565b60008060408385031215613bea57613be9613930565b5b6000613bf885828601613bbe565b9250506020613c0985828601613ad1565b9150509250929050565b60008160000b9050919050565b613c2981613c13565b8114613c3457600080fd5b50565b600081359050613c4681613c20565b92915050565b60008060408385031215613c6357613c62613930565b5b6000613c7185828601613ad1565b9250506020613c8285828601613c37565b9150509250929050565b600060ff82169050919050565b613ca281613c8c565b82525050565b6000602082019050613cbd6000830184613c99565b92915050565b600080600060608486031215613cdc57613cdb613930565b5b6000613cea86828701613bbe565b9350506020613cfb86828701613bbe565b9250506040613d0c86828701613ad1565b9150509250925092565b60008060408385031215613d2d57613d2c613930565b5b6000613d3b85828601613ad1565b9250506020613d4c85828601613ad1565b9150509250929050565b613d5f81613ab0565b82525050565b6000602082019050613d7a6000830184613d56565b92915050565b613d8981613c8c565b8114613d9457600080fd5b50565b600081359050613da681613d80565b92915050565b600060208284031215613dc257613dc1613930565b5b6000613dd084828501613d97565b91505092915050565b600060208284031215613def57613dee613930565b5b6000613dfd84828501613bbe565b91505092915050565b613e0f816139bf565b82525050565b613e1e81613c8c565b82525050565b61014082016000820151613e3b6000850182613e06565b506020820151613e4e6020850182613e15565b506040820151613e616040850182613e15565b506060820151613e746060850182613e15565b506080820151613e876080850182613e15565b5060a0820151613e9a60a0850182613e15565b5060c0820151613ead60c0850182613e15565b5060e0820151613ec060e0850182613e15565b50610100820151613ed5610100850182613e15565b50610120820151613eea610120850182613e15565b50505050565b600061014082019050613f066000830184613e24565b92915050565b613f15816139bf565b8114613f2057600080fd5b50565b600081359050613f3281613f0c565b92915050565b60008060408385031215613f4f57613f4e613930565b5b6000613f5d85828601613bbe565b9250506020613f6e85828601613f23565b9150509250929050565b600080fd5b600080fd5b7f4e487b7100000000000000000000000000000000000000000000000000000000600052604160045260246000fd5b613fba82613a44565b810181811067ffffffffffffffff82111715613fd957613fd8613f82565b5b80604052505050565b6000613fec613926565b9050613ff88282613fb1565b919050565b600067ffffffffffffffff82111561401857614017613f82565b5b61402182613a44565b9050602081019050919050565b82818337600083830152505050565b600061405061404b84613ffd565b613fe2565b90508281526020810184848401111561406c5761406b613f7d565b5b61407784828561402e565b509392505050565b600082601f83011261409457614093613f78565b5b81356140a484826020860161403d565b91505092915050565b600080600080608085870312156140c7576140c6613930565b5b60006140d587828801613bbe565b94505060206140e687828801613bbe565b93505060406140f787828801613ad1565b925050606085013567ffffffffffffffff81111561411857614117613935565b5b6141248782880161407f565b91505092959194509250565b600061014082019050614146600083018d6139cb565b614153602083018c613c99565b614160604083018b613c99565b61416d606083018a613c99565b61417a6080830189613c99565b61418760a0830188613c99565b61419460c0830187613c99565b6141a160e0830186613c99565b6141af610100830185613c99565b6141bd610120830184613c99565b9b9a5050505050505050505050565b6000819050919050565b60006141f16141ec6141e784613b13565b6141cc565b613b13565b9050919050565b6000614203826141d6565b9050919050565b6000614215826141f8565b9050919050565b6142258161420a565b82525050565b6000602082019050614240600083018461421c565b92915050565b6000806040838503121561425d5761425c613930565b5b600061426b85828601613bbe565b925050602061427c85828601613bbe565b9150509250929050565b7f4e487b7100000000000000000000000000000000000000000000000000000000600052602260045260246000fd5b600060028204905060018216806142cd57607f821691505b602082108114156142e1576142e0614286565b5b50919050565b7f4552433732313a20617070726f76656420717565727920666f72206e6f6e657860008201527f697374656e7420746f6b656e0000000000000000000000000000000000000000602082015250565b6000614343602c83613a00565b915061434e826142e7565b604082019050919050565b6000602082019050818103600083015261437281614336565b9050919050565b7f4552433732313a20617070726f76616c20746f2063757272656e74206f776e6560008201527f7200000000000000000000000000000000000000000000000000000000000000602082015250565b60006143d5602183613a00565b91506143e082614379565b604082019050919050565b60006020820190508181036000830152614404816143c8565b9050919050565b7f4552433732313a20617070726f76652063616c6c6572206973206e6f74206f7760008201527f6e6572206e6f7220617070726f76656420666f7220616c6c0000000000000000602082015250565b6000614467603883613a00565b91506144728261440b565b604082019050919050565b600060208201905081810360008301526144968161445a565b9050919050565b7f4f6e6c7920636f6e74726f6c6c6572732063616e207570646174650000000000600082015250565b60006144d3601b83613a00565b91506144de8261449d565b602082019050919050565b60006020820190508181036000830152614502816144c6565b9050919050565b7f4552433732313a207472616e736665722063616c6c6572206973206e6f74206f60008201527f776e6572206e6f7220617070726f766564000000000000000000000000000000602082015250565b6000614565603183613a00565b915061457082614509565b604082019050919050565b6000602082019050818103600083015261459481614558565b9050919050565b7f4552433732313a206f776e657220717565727920666f72206e6f6e657869737460008201527f656e7420746f6b656e0000000000000000000000000000000000000000000000602082015250565b60006145f7602983613a00565b91506146028261459b565b604082019050919050565b60006020820190508181036000830152614626816145ea565b9050919050565b7f5061757361626c653a2070617573656400000000000000000000000000000000600082015250565b6000614663601083613a00565b915061466e8261462d565b602082019050919050565b6000602082019050818103600083015261469281614656565b9050919050565b7f496e76616c6964206d696e7420616d6f756e7400000000000000000000000000600082015250565b60006146cf601383613a00565b91506146da82614699565b602082019050919050565b600060208201905081810360008301526146fe816146c2565b9050919050565b7f4e487b7100000000000000000000000000000000000000000000000000000000600052601160045260246000fd5b600061473f82613ab0565b915061474a83613ab0565b9250817fffffffffffffffffffffffffffffffffffffffffffffffffffffffffffffffff048311821515161561478357614782614705565b5b828202905092915050565b7f496e76616c6964207061796d656e7420616d6f756e7400000000000000000000600082015250565b60006147c4601683613a00565b91506147cf8261478e565b602082019050919050565b600060208201905081810360008301526147f3816147b7565b9050919050565b600061480582613b6f565b915061ffff82141561481a57614819614705565b5b600182019050919050565b7f4e487b7100000000000000000000000000000000000000000000000000000000600052603260045260246000fd5b600061485f82613ab0565b91507fffffffffffffffffffffffffffffffffffffffffffffffffffffffffffffffff82141561489257614891614705565b5b600182019050919050565b7f4552433732313a2062616c616e636520717565727920666f7220746865207a6560008201527f726f206164647265737300000000000000000000000000000000000000000000602082015250565b60006148f9602a83613a00565b91506149048261489d565b604082019050919050565b60006020820190508181036000830152614928816148ec565b9050919050565b7f4f776e61626c653a2063616c6c6572206973206e6f7420746865206f776e6572600082015250565b6000614965602083613a00565b91506149708261492f565b602082019050919050565b6000602082019050818103600083015261499481614958565b9050919050565b7f4552433732314d657461646174613a2055524920717565727920666f72206e6f60008201527f6e2d6578697374656e7420746f6b656e00000000000000000000000000000000602082015250565b60006149f7603083613a00565b9150614a028261499b565b604082019050919050565b60006020820190508181036000830152614a26816149ea565b9050919050565b600067ffffffffffffffff821115614a4857614a47613f82565b5b614a5182613a44565b9050602081019050919050565b6000614a71614a6c84614a2d565b613fe2565b905082815260208101848484011115614a8d57614a8c613f7d565b5b614a98848285613a11565b509392505050565b600082601f830112614ab557614ab4613f78565b5b8151614ac5848260208601614a5e565b91505092915050565b600060208284031215614ae457614ae3613930565b5b600082015167ffffffffffffffff811115614b0257614b01613935565b5b614b0e84828501614aa0565b91505092915050565b7f496e697469616c697a61626c653a20636f6e747261637420697320616c72656160008201527f647920696e697469616c697a6564000000000000000000000000000000000000602082015250565b6000614b73602e83613a00565b9150614b7e82614b17565b604082019050919050565b60006020820190508181036000830152614ba281614b66565b9050919050565b7f4e487b7100000000000000000000000000000000000000000000000000000000600052601260045260246000fd5b6000614be382613ab0565b9150614bee83613ab0565b925082614bfe57614bfd614ba9565b5b828204905092915050565b7f4f776e61626c653a206e6577206f776e657220697320746865207a65726f206160008201527f6464726573730000000000000000000000000000000000000000000000000000602082015250565b6000614c65602683613a00565b9150614c7082614c09565b604082019050919050565b60006020820190508181036000830152614c9481614c58565b9050919050565b6000614ca682613c8c565b9150614cb183613c8c565b92508260ff03821115614cc757614cc6614705565b5b828201905092915050565b6000614cdd82613c13565b91507fffffffffffffffffffffffffffffffffffffffffffffffffffffffffffffff80821415614d1057614d0f614705565b5b816000039050919050565b6000614d2682613c8c565b9150614d3183613c8c565b925082821015614d4457614d43614705565b5b828203905092915050565b7f4552433732313a206f70657261746f7220717565727920666f72206e6f6e657860008201527f697374656e7420746f6b656e0000000000000000000000000000000000000000602082015250565b6000614dab602c83613a00565b9150614db682614d4f565b604082019050919050565b60006020820190508181036000830152614dda81614d9e565b9050919050565b7f4552433732313a207472616e73666572206f6620746f6b656e2074686174206960008201527f73206e6f74206f776e0000000000000000000000000000000000000000000000602082015250565b6000614e3d602983613a00565b9150614e4882614de1565b604082019050919050565b60006020820190508181036000830152614e6c81614e30565b9050919050565b7f4552433732313a207472616e7366657220746f20746865207a65726f2061646460008201527f7265737300000000000000000000000000000000000000000000000000000000602082015250565b6000614ecf602483613a00565b9150614eda82614e73565b604082019050919050565b60006020820190508181036000830152614efe81614ec2565b9050919050565b6000614f1082613ab0565b9150614f1b83613ab0565b925082821015614f2e57614f2d614705565b5b828203905092915050565b6000614f4482613ab0565b9150614f4f83613ab0565b9250827fffffffffffffffffffffffffffffffffffffffffffffffffffffffffffffffff03821115614f8457614f83614705565b5b828201905092915050565b60008160601b9050919050565b6000614fa782614f8f565b9050919050565b6000614fb982614f9c565b9050919050565b614fd1614fcc82613b33565b614fae565b82525050565b6000819050919050565b6000819050919050565b614ffc614ff782614fd7565b614fe1565b82525050565b6000819050919050565b61501d61501882613ab0565b615002565b82525050565b600061502f8287614fc0565b60148201915061503f8286614feb565b60208201915061504f828561500c565b60208201915061505f828461500c565b60208201915081905095945050505050565b7f4552433732313a20617070726f766520746f2063616c6c657200000000000000600082015250565b60006150a7601983613a00565b91506150b282615071565b602082019050919050565b600060208201905081810360008301526150d68161509a565b9050919050565b7f4552433732313a207472616e7366657220746f206e6f6e20455243373231526560008201527f63656976657220696d706c656d656e7465720000000000000000000000000000602082015250565b6000615139603283613a00565b9150615144826150dd565b604082019050919050565b600060208201905081810360008301526151688161512c565b9050919050565b7f496e697469616c697a61626c653a20636f6e7472616374206973206e6f74206960008201527f6e697469616c697a696e67000000000000000000000000000000000000000000602082015250565b60006151cb602b83613a00565b91506151d68261516f565b604082019050919050565b600060208201905081810360008301526151fa816151be565b9050919050565b600061520c82613ab0565b915061521783613ab0565b92508261522757615226614ba9565b5b828206905092915050565b60008160f81b9050919050565b600061524a82615232565b9050919050565b600061525c8261523f565b9050919050565b61527461526f826139bf565b615251565b82525050565b61528b61528682613c8c565b61523f565b82525050565b600061529d828b615263565b6001820191506152ad828a61527a565b6001820191506152bd828961527a565b6001820191506152cd828861527a565b6001820191506152dd828761527a565b6001820191506152ed828661527a565b6001820191506152fd828561527a565b60018201915061530d828461527a565b6001820191508190509998505050505050505050565b600081519050919050565b6000819050602082019050919050565b600061534a8251614fd7565b80915050919050565b600082821b905092915050565b600061536b82615323565b826153758461532e565b90506153808161533e565b925060208210156153c0576153bb7fffffffffffffffffffffffffffffffffffffffffffffffffffffffffffffffff83602003600802615353565b831692505b5050919050565b600082825260208201905092915050565b60006153e382615323565b6153ed81856153c7565b93506153fd818560208601613a11565b61540681613a44565b840191505092915050565b60006080820190506154266000830187613b45565b6154336020830186613b45565b6154406040830185613d56565b818103606083015261545281846153d8565b905095945050505050565b60008151905061546c81613966565b92915050565b60006020828403121561548857615487613930565b5b60006154968482850161545d565b91505092915050565b60006154aa82613c8c565b91506154b583613c8c565b9250826154c5576154c4614ba9565b5b828206905092915050565b60006154db82613c8c565b91506154e683613c8c565b92508160ff0483118215151615615500576154ff614705565b5b828202905092915050565b7f4552433732313a206d696e7420746f20746865207a65726f2061646472657373600082015250565b6000615541602083613a00565b915061554c8261550b565b602082019050919050565b6000602082019050818103600083015261557081615534565b9050919050565b7f4552433732313a20746f6b656e20616c7265616479206d696e74656400000000600082015250565b60006155ad601c83613a00565b91506155b882615577565b602082019050919050565b600060208201905081810360008301526155dc816155a0565b905091905056fea2646970667358221220fd19e846e10346c40493e4deac0de64d48b0f58916d275edb0de77a4e46ea61064736f6c634300080a0033",
  "immutableReferences": {},
  "source": "// SPDX-License-Identifier: MIT\n\npragma solidity ^0.8.0;\n\nimport \"@openzeppelin/contracts-upgradeable/proxy/utils/Initializable.sol\";\nimport \"@openzeppelin/contracts-upgradeable/access/OwnableUpgradeable.sol\";\nimport \"@openzeppelin/contracts-upgradeable/security/PausableUpgradeable.sol\";\nimport \"@openzeppelin/contracts-upgradeable/token/ERC721/ERC721Upgradeable.sol\";\nimport \"./IChefRat.sol\";\nimport \"./ITraits.sol\";\n\ncontract ChefRat is IChefRat, Initializable, OwnableUpgradeable, PausableUpgradeable, ERC721Upgradeable {\n  uint16 public minted;\n  uint16 public numChefs;\n  uint16 public numRats;\n  uint256 public constant MINT_PRICE = .1 ether;\n  uint256 public MAX_TOKENS; // Max number of tokens that can be minted - 50000 in production\n  uint256 public PAID_TOKENS; // Number of tokens that can be claimed for free - 20% of MAX_TOKENS\n//  uint256 public constant CHEF = 0;\n//  uint256 public constant RAT = 1;\n\n  mapping(uint256 => ChefRatStruct) public tokenTraits; // Mapping from tokenId to a struct containing the token's traits\n  mapping(uint256 => uint256) public existingCombinations; // Mapping from hashed(tokenTrait) to the tokenId it's associated with, used to ensure there are no duplicates\n  mapping(address => bool) controllers; // a mapping from an address to whether or not it can mint / burn\n  uint8[][18] public rarities; // List of probabilities for each trait type, 0 - 9 are associated with Chefs, 10 - 18 are associated with Rats\n\n  ITraits public traits; // Reference to Traits\n\n  function initialize(address _traits, uint256 _maxTokens) external initializer {\n    __Ownable_init();\n    __Pausable_init();\n    __ERC721_init(\"RatAlert Chefs & Rats\", \"CHEFRAT\");\n\n    minted = 0;\n    numChefs = 0;\n    numRats = 0;\n    traits = ITraits(_traits);\n    MAX_TOKENS = _maxTokens;\n    PAID_TOKENS = _maxTokens / 5;\n\n    // Chefs\n    rarities[2] = [255, 223, 191, 159, 127, 95]; // hat\n    rarities[3] = [255, 223, 191, 159, 127, 95, 63, 31]; // eyes\n    rarities[4] = [255, 223, 191, 159, 127, 95]; // mouth\n    rarities[5] = [255, 207, 159, 111, 63, 15]; // neck\n    rarities[6] = [255, 223, 191, 159, 127, 95]; // hand\n    // Rats\n    rarities[12] = [255, 223, 191, 159, 127, 95]; // hat\n    rarities[13] = [255, 223, 191, 159, 127, 95, 63, 31]; // eyes\n    rarities[14] = [255, 223, 191, 159, 127, 95]; // piercing\n    rarities[15] = [255, 207, 159, 111, 63, 15]; // neck\n    rarities[16] = [255, 223, 191, 159, 127, 95]; // tail\n  }\n\n  /**\n   * Mints a new ERC721 token: 90% chefs, 10% rats\n   * The first 20% are free to claim, the remaining cost $FFOOD\n   * @param amount Number of tokens to mint\n   */\n  function mint(uint8 amount) external payable whenNotPaused {\n    require(amount > 0 && amount <= 10, \"Invalid mint amount\");\n    require(amount * MINT_PRICE == msg.value, \"Invalid payment amount\");\n\n    uint16[] memory tokenIds = new uint16[](amount);\n    uint256 seed;\n    ChefRatStruct memory s;\n    for (uint i = 0; i < amount; i++) {\n      minted++;\n      seed = random(minted);\n      s = generate(minted, seed);\n      _safeMint(_msgSender(), minted);\n      tokenIds[i] = minted;\n      s.isChef ? numChefs++ : numRats++;\n    }\n  }\n\n  /**\n   * Generates traits for a specific token, checking to make sure it's unique\n   * @param tokenId - The id of the token to generate traits for\n   * @param seed - A pseudorandom 256 bit number to derive traits from\n   * @return t - A struct of traits for the given token ID\n   */\n  function generate(uint256 tokenId, uint256 seed) internal returns (ChefRatStruct memory t) {\n    t = selectTraits(seed);\n    uint256 hash = structToHash(t);\n    if (existingCombinations[hash] == 0) {\n      tokenTraits[tokenId] = t;\n      existingCombinations[hash] = tokenId;\n      return t;\n    }\n    return generate(tokenId, random(seed));\n  }\n\n  /**\n   * Selects the species and all of its traits based on the seed value\n   * @param seed - A pseudorandom 256 bit number to derive traits from\n   * @return t -  A struct of randomly selected traits\n   */\n  function selectTraits(uint256 seed) internal view returns (ChefRatStruct memory t) {\n    t.isChef = (seed & 0xFFFF) % 10 != 0;\n    if (t.isChef) {\n      t.hat = selectTrait(seed, 2);\n      t.eyes = selectTrait(seed, 3);\n      t.mouth = selectTrait(seed, 4);\n      t.neck = selectTrait(seed, 5);\n      t.hand = selectTrait(seed, 6);\n    } else {\n      t.hat = selectTrait(seed, 12);\n      t.eyes = selectTrait(seed, 13);\n      t.piercing = selectTrait(seed, 14);\n      t.neck = selectTrait(seed, 15);\n      t.tail = selectTrait(seed, 16);\n    }\n    return t;\n  }\n\n  /**\n   * Uses A.J. Walker's Alias algorithm for O(1) rarity table lookup\n   * ensuring O(1) instead of O(n) reduces mint cost by more than 50%\n   * probability & alias tables are generated off-chain beforehand\n   * @param seed - Portion of the 256 bit seed to remove trait correlation\n   * @param traitIndex - The trait index to select a trait for\n   * @return The ID of the randomly selected trait\n   */\n  function selectTrait(uint256 seed, uint8 traitIndex) internal view returns (uint8) {\n    seed = seed >>= (traitIndex % 10 * 16);\n    uint8 trait = uint8(seed) % uint8(rarities[traitIndex].length); // Selected trait index\n    uint8 rand = uint8(seed & 0xFFFF >> 8); // Random integer from 0 to 255\n    if (rand <= rarities[traitIndex][trait]) return trait;\n    return 0;\n  }\n\n  /**\n   * Converts a struct to a 256 bit hash to check for uniqueness\n   * @param s - The struct to pack into a hash\n   * @return The 256 bit hash of the struct\n   */\n  function structToHash(ChefRatStruct memory s) internal pure returns (uint256) {\n    return uint256(bytes32(\n      abi.encodePacked(\n        s.isChef,\n        s.hat,\n        s.eyes,\n        s.piercing,\n        s.mouth,\n        s.neck,\n        s.hand,\n        s.tail\n      )\n    ));\n  }\n\n  function getUpdatedValue(uint8 old, int8 increment) internal pure returns(uint8) {\n    if (increment >= 0) {\n      return (uint8(increment) + old > 100) ? 100 : old + uint8(increment);\n    } else {\n      return (uint8(-increment) > old) ? 0 : old - uint8(-increment);\n    }\n  }\n\n  function updateEfficiency(uint256 tokenId, int8 increment) public returns(uint8) {\n    require(controllers[msg.sender], \"Only controllers can update\");\n    uint8 value = getUpdatedValue(tokenTraits[tokenId].efficiency, increment);\n    tokenTraits[tokenId].efficiency = value;\n    return value;\n  }\n\n  function updateTolerance(uint256 tokenId, int8 increment) public returns(uint8) {\n    require(controllers[msg.sender], \"Only controllers can update\");\n    uint8 value = getUpdatedValue(tokenTraits[tokenId].tolerance, increment);\n    tokenTraits[tokenId].tolerance = value;\n    return value;\n  }\n\n  function tokenURI(uint256 tokenId) public view override returns (string memory) {\n    require(_exists(tokenId), \"ERC721Metadata: URI query for non-existent token\");\n    return traits.tokenURI(tokenId);\n  }\n\n  function getTokenTraits(uint256 tokenId) external view override returns (ChefRatStruct memory) {\n    require(_exists(tokenId), \"ERC721Metadata: URI query for non-existent token\");\n    return tokenTraits[tokenId];\n  }\n\n  function getPaidTokens() external view override returns (uint256) {\n    return PAID_TOKENS;\n  }\n\n  /**\n   * Gets controller status by address\n   * @param controller the address to check\n   */\n  function getController(address controller) external view onlyOwner returns (bool) {\n    return controllers[controller];\n  }\n\n  /**\n   * Enables an address to mint / burn\n   * @param controller the address to enable\n   */\n  function addController(address controller) external onlyOwner {\n    controllers[controller] = true;\n  }\n\n  /**\n   * Disables an address from minting / burning\n   * @param controller the address to disable\n   */\n  function removeController(address controller) external onlyOwner {\n    controllers[controller] = false;\n  }\n\n  /**\n   * Generates a pseudorandom number\n   * @param seed A value ensure different outcomes for different sources in the same block\n   * @return A pseudorandom value\n   */\n  function random(uint256 seed) internal view returns (uint256) {\n    return uint256(keccak256(abi.encodePacked(\n      tx.origin,\n      blockhash(block.number - 1),\n      block.timestamp,\n      seed\n    )));\n  }\n}\n",
  "sourcePath": "/Users/chris/workspace/ratalert/ratalert-contracts/contracts/ChefRat.sol",
  "compiler": {
    "name": "solc",
    "version": "0.8.10+commit.fc410830.Emscripten.clang"
  },
  "schemaVersion": "3.4.4",
  "updatedAt": "2022-01-25T18:02:28.307Z",
  "devdoc": {
    "kind": "dev",
    "methods": {
      "addController(address)": {
        "params": {
          "controller": "the address to enable"
        }
      },
      "approve(address,uint256)": {
        "details": "See {IERC721-approve}."
      },
      "balanceOf(address)": {
        "details": "See {IERC721-balanceOf}."
      },
      "getApproved(uint256)": {
        "details": "See {IERC721-getApproved}."
      },
      "getController(address)": {
        "params": {
          "controller": "the address to check"
        }
      },
      "isApprovedForAll(address,address)": {
        "details": "See {IERC721-isApprovedForAll}."
      },
      "mint(uint8)": {
        "params": {
          "amount": "Number of tokens to mint"
        }
      },
      "name()": {
        "details": "See {IERC721Metadata-name}."
      },
      "owner()": {
        "details": "Returns the address of the current owner."
      },
      "ownerOf(uint256)": {
        "details": "See {IERC721-ownerOf}."
      },
      "paused()": {
        "details": "Returns true if the contract is paused, and false otherwise."
      },
      "removeController(address)": {
        "params": {
          "controller": "the address to disable"
        }
      },
      "renounceOwnership()": {
        "details": "Leaves the contract without owner. It will not be possible to call `onlyOwner` functions anymore. Can only be called by the current owner. NOTE: Renouncing ownership will leave the contract without an owner, thereby removing any functionality that is only available to the owner."
      },
      "safeTransferFrom(address,address,uint256)": {
        "details": "See {IERC721-safeTransferFrom}."
      },
      "safeTransferFrom(address,address,uint256,bytes)": {
        "details": "See {IERC721-safeTransferFrom}."
      },
      "setApprovalForAll(address,bool)": {
        "details": "See {IERC721-setApprovalForAll}."
      },
      "supportsInterface(bytes4)": {
        "details": "See {IERC165-supportsInterface}."
      },
      "symbol()": {
        "details": "See {IERC721Metadata-symbol}."
      },
      "tokenURI(uint256)": {
        "details": "See {IERC721Metadata-tokenURI}."
      },
      "transferFrom(address,address,uint256)": {
        "details": "See {IERC721-transferFrom}."
      },
      "transferOwnership(address)": {
        "details": "Transfers ownership of the contract to a new account (`newOwner`). Can only be called by the current owner."
      }
    },
    "version": 1
  },
  "userdoc": {
    "kind": "user",
    "methods": {
      "addController(address)": {
        "notice": "Enables an address to mint / burn"
      },
      "getController(address)": {
        "notice": "Gets controller status by address"
      },
      "mint(uint8)": {
        "notice": "Mints a new ERC721 token: 90% chefs, 10% rats The first 20% are free to claim, the remaining cost $FFOOD"
      },
      "removeController(address)": {
        "notice": "Disables an address from minting / burning"
      }
    },
    "version": 1
  }
}