{
  "contractName": "ChefRatTest",
  "abi": [
    {
      "anonymous": false,
      "inputs": [
        {
          "indexed": true,
          "internalType": "address",
          "name": "owner",
          "type": "address"
        },
        {
          "indexed": true,
          "internalType": "address",
          "name": "approved",
          "type": "address"
        },
        {
          "indexed": true,
          "internalType": "uint256",
          "name": "tokenId",
          "type": "uint256"
        }
      ],
      "name": "Approval",
      "type": "event"
    },
    {
      "anonymous": false,
      "inputs": [
        {
          "indexed": true,
          "internalType": "address",
          "name": "owner",
          "type": "address"
        },
        {
          "indexed": true,
          "internalType": "address",
          "name": "operator",
          "type": "address"
        },
        {
          "indexed": false,
          "internalType": "bool",
          "name": "approved",
          "type": "bool"
        }
      ],
      "name": "ApprovalForAll",
      "type": "event"
    },
    {
      "anonymous": false,
      "inputs": [
        {
          "indexed": true,
          "internalType": "address",
          "name": "previousOwner",
          "type": "address"
        },
        {
          "indexed": true,
          "internalType": "address",
          "name": "newOwner",
          "type": "address"
        }
      ],
      "name": "OwnershipTransferred",
      "type": "event"
    },
    {
      "anonymous": false,
      "inputs": [
        {
          "indexed": false,
          "internalType": "address",
          "name": "account",
          "type": "address"
        }
      ],
      "name": "Paused",
      "type": "event"
    },
    {
      "anonymous": false,
      "inputs": [
        {
          "indexed": true,
          "internalType": "address",
          "name": "from",
          "type": "address"
        },
        {
          "indexed": true,
          "internalType": "address",
          "name": "to",
          "type": "address"
        },
        {
          "indexed": true,
          "internalType": "uint256",
          "name": "tokenId",
          "type": "uint256"
        }
      ],
      "name": "Transfer",
      "type": "event"
    },
    {
      "anonymous": false,
      "inputs": [
        {
          "indexed": false,
          "internalType": "address",
          "name": "account",
          "type": "address"
        }
      ],
      "name": "Unpaused",
      "type": "event"
    },
    {
      "inputs": [],
      "name": "MAX_TOKENS",
      "outputs": [
        {
          "internalType": "uint256",
          "name": "",
          "type": "uint256"
        }
      ],
      "stateMutability": "view",
      "type": "function",
      "constant": true
    },
    {
      "inputs": [],
      "name": "MINT_PRICE",
      "outputs": [
        {
          "internalType": "uint256",
          "name": "",
          "type": "uint256"
        }
      ],
      "stateMutability": "view",
      "type": "function",
      "constant": true
    },
    {
      "inputs": [],
      "name": "PAID_TOKENS",
      "outputs": [
        {
          "internalType": "uint256",
          "name": "",
          "type": "uint256"
        }
      ],
      "stateMutability": "view",
      "type": "function",
      "constant": true
    },
    {
      "inputs": [
        {
          "internalType": "address",
          "name": "to",
          "type": "address"
        },
        {
          "internalType": "uint256",
          "name": "tokenId",
          "type": "uint256"
        }
      ],
      "name": "approve",
      "outputs": [],
      "stateMutability": "nonpayable",
      "type": "function"
    },
    {
      "inputs": [
        {
          "internalType": "address",
          "name": "owner",
          "type": "address"
        }
      ],
      "name": "balanceOf",
      "outputs": [
        {
          "internalType": "uint256",
          "name": "",
          "type": "uint256"
        }
      ],
      "stateMutability": "view",
      "type": "function",
      "constant": true
    },
    {
      "inputs": [
        {
          "internalType": "uint256",
          "name": "",
          "type": "uint256"
        }
      ],
      "name": "existingCombinations",
      "outputs": [
        {
          "internalType": "uint256",
          "name": "",
          "type": "uint256"
        }
      ],
      "stateMutability": "view",
      "type": "function",
      "constant": true
    },
    {
      "inputs": [
        {
          "internalType": "uint256",
          "name": "tokenId",
          "type": "uint256"
        }
      ],
      "name": "getApproved",
      "outputs": [
        {
          "internalType": "address",
          "name": "",
          "type": "address"
        }
      ],
      "stateMutability": "view",
      "type": "function",
      "constant": true
    },
    {
      "inputs": [
        {
          "internalType": "address",
          "name": "owner",
          "type": "address"
        },
        {
          "internalType": "address",
          "name": "operator",
          "type": "address"
        }
      ],
      "name": "isApprovedForAll",
      "outputs": [
        {
          "internalType": "bool",
          "name": "",
          "type": "bool"
        }
      ],
      "stateMutability": "view",
      "type": "function",
      "constant": true
    },
    {
      "inputs": [],
      "name": "minted",
      "outputs": [
        {
          "internalType": "uint16",
          "name": "",
          "type": "uint16"
        }
      ],
      "stateMutability": "view",
      "type": "function",
      "constant": true
    },
    {
      "inputs": [],
      "name": "name",
      "outputs": [
        {
          "internalType": "string",
          "name": "",
          "type": "string"
        }
      ],
      "stateMutability": "view",
      "type": "function",
      "constant": true
    },
    {
      "inputs": [],
      "name": "numChefs",
      "outputs": [
        {
          "internalType": "uint16",
          "name": "",
          "type": "uint16"
        }
      ],
      "stateMutability": "view",
      "type": "function",
      "constant": true
    },
    {
      "inputs": [],
      "name": "numRats",
      "outputs": [
        {
          "internalType": "uint16",
          "name": "",
          "type": "uint16"
        }
      ],
      "stateMutability": "view",
      "type": "function",
      "constant": true
    },
    {
      "inputs": [],
      "name": "owner",
      "outputs": [
        {
          "internalType": "address",
          "name": "",
          "type": "address"
        }
      ],
      "stateMutability": "view",
      "type": "function",
      "constant": true
    },
    {
      "inputs": [
        {
          "internalType": "uint256",
          "name": "tokenId",
          "type": "uint256"
        }
      ],
      "name": "ownerOf",
      "outputs": [
        {
          "internalType": "address",
          "name": "",
          "type": "address"
        }
      ],
      "stateMutability": "view",
      "type": "function",
      "constant": true
    },
    {
      "inputs": [],
      "name": "paused",
      "outputs": [
        {
          "internalType": "bool",
          "name": "",
          "type": "bool"
        }
      ],
      "stateMutability": "view",
      "type": "function",
      "constant": true
    },
    {
      "inputs": [
        {
          "internalType": "uint256",
          "name": "",
          "type": "uint256"
        },
        {
          "internalType": "uint256",
          "name": "",
          "type": "uint256"
        }
      ],
      "name": "rarities",
      "outputs": [
        {
          "internalType": "uint8",
          "name": "",
          "type": "uint8"
        }
      ],
      "stateMutability": "view",
      "type": "function",
      "constant": true
    },
    {
      "inputs": [],
      "name": "renounceOwnership",
      "outputs": [],
      "stateMutability": "nonpayable",
      "type": "function"
    },
    {
      "inputs": [
        {
          "internalType": "address",
          "name": "from",
          "type": "address"
        },
        {
          "internalType": "address",
          "name": "to",
          "type": "address"
        },
        {
          "internalType": "uint256",
          "name": "tokenId",
          "type": "uint256"
        }
      ],
      "name": "safeTransferFrom",
      "outputs": [],
      "stateMutability": "nonpayable",
      "type": "function"
    },
    {
      "inputs": [
        {
          "internalType": "address",
          "name": "from",
          "type": "address"
        },
        {
          "internalType": "address",
          "name": "to",
          "type": "address"
        },
        {
          "internalType": "uint256",
          "name": "tokenId",
          "type": "uint256"
        },
        {
          "internalType": "bytes",
          "name": "_data",
          "type": "bytes"
        }
      ],
      "name": "safeTransferFrom",
      "outputs": [],
      "stateMutability": "nonpayable",
      "type": "function"
    },
    {
      "inputs": [
        {
          "internalType": "address",
          "name": "operator",
          "type": "address"
        },
        {
          "internalType": "bool",
          "name": "approved",
          "type": "bool"
        }
      ],
      "name": "setApprovalForAll",
      "outputs": [],
      "stateMutability": "nonpayable",
      "type": "function"
    },
    {
      "inputs": [
        {
          "internalType": "bytes4",
          "name": "interfaceId",
          "type": "bytes4"
        }
      ],
      "name": "supportsInterface",
      "outputs": [
        {
          "internalType": "bool",
          "name": "",
          "type": "bool"
        }
      ],
      "stateMutability": "view",
      "type": "function",
      "constant": true
    },
    {
      "inputs": [],
      "name": "symbol",
      "outputs": [
        {
          "internalType": "string",
          "name": "",
          "type": "string"
        }
      ],
      "stateMutability": "view",
      "type": "function",
      "constant": true
    },
    {
      "inputs": [
        {
          "internalType": "uint256",
          "name": "",
          "type": "uint256"
        }
      ],
      "name": "tokenTraits",
      "outputs": [
        {
          "internalType": "bool",
          "name": "isChef",
          "type": "bool"
        },
        {
          "internalType": "uint8",
          "name": "hat",
          "type": "uint8"
        },
        {
          "internalType": "uint8",
          "name": "eyes",
          "type": "uint8"
        },
        {
          "internalType": "uint8",
          "name": "piercing",
          "type": "uint8"
        },
        {
          "internalType": "uint8",
          "name": "mouth",
          "type": "uint8"
        },
        {
          "internalType": "uint8",
          "name": "neck",
          "type": "uint8"
        },
        {
          "internalType": "uint8",
          "name": "hand",
          "type": "uint8"
        },
        {
          "internalType": "uint8",
          "name": "tail",
          "type": "uint8"
        },
        {
          "internalType": "uint8",
          "name": "insanity",
          "type": "uint8"
        },
        {
          "internalType": "uint8",
          "name": "skill",
          "type": "uint8"
        },
        {
          "internalType": "uint8",
          "name": "intelligence",
          "type": "uint8"
        },
        {
          "internalType": "uint8",
          "name": "fatness",
          "type": "uint8"
        }
      ],
      "stateMutability": "view",
      "type": "function",
      "constant": true
    },
    {
      "inputs": [],
      "name": "traits",
      "outputs": [
        {
          "internalType": "contract ITraits",
          "name": "",
          "type": "address"
        }
      ],
      "stateMutability": "view",
      "type": "function",
      "constant": true
    },
    {
      "inputs": [
        {
          "internalType": "address",
          "name": "from",
          "type": "address"
        },
        {
          "internalType": "address",
          "name": "to",
          "type": "address"
        },
        {
          "internalType": "uint256",
          "name": "tokenId",
          "type": "uint256"
        }
      ],
      "name": "transferFrom",
      "outputs": [],
      "stateMutability": "nonpayable",
      "type": "function"
    },
    {
      "inputs": [
        {
          "internalType": "address",
          "name": "newOwner",
          "type": "address"
        }
      ],
      "name": "transferOwnership",
      "outputs": [],
      "stateMutability": "nonpayable",
      "type": "function"
    },
    {
      "inputs": [
        {
          "internalType": "address",
          "name": "_traits",
          "type": "address"
        },
        {
          "internalType": "uint256",
          "name": "_maxTokens",
          "type": "uint256"
        }
      ],
      "name": "initialize",
      "outputs": [],
      "stateMutability": "nonpayable",
      "type": "function"
    },
    {
      "inputs": [
        {
          "internalType": "uint8",
          "name": "amount",
          "type": "uint8"
        }
      ],
      "name": "mint",
      "outputs": [],
      "stateMutability": "payable",
      "type": "function",
      "payable": true
    },
    {
      "inputs": [
        {
          "internalType": "uint256",
          "name": "tokenId",
          "type": "uint256"
        },
        {
          "internalType": "int8",
          "name": "increment",
          "type": "int8"
        }
      ],
      "name": "updateInsanity",
      "outputs": [],
      "stateMutability": "nonpayable",
      "type": "function"
    },
    {
      "inputs": [
        {
          "internalType": "uint256",
          "name": "tokenId",
          "type": "uint256"
        },
        {
          "internalType": "int8",
          "name": "increment",
          "type": "int8"
        }
      ],
      "name": "updateSkill",
      "outputs": [],
      "stateMutability": "nonpayable",
      "type": "function"
    },
    {
      "inputs": [
        {
          "internalType": "uint256",
          "name": "tokenId",
          "type": "uint256"
        },
        {
          "internalType": "int8",
          "name": "increment",
          "type": "int8"
        }
      ],
      "name": "updateIntelligence",
      "outputs": [],
      "stateMutability": "nonpayable",
      "type": "function"
    },
    {
      "inputs": [
        {
          "internalType": "uint256",
          "name": "tokenId",
          "type": "uint256"
        },
        {
          "internalType": "int8",
          "name": "increment",
          "type": "int8"
        }
      ],
      "name": "updateFatness",
      "outputs": [],
      "stateMutability": "nonpayable",
      "type": "function"
    },
    {
      "inputs": [
        {
          "internalType": "uint256",
          "name": "tokenId",
          "type": "uint256"
        }
      ],
      "name": "tokenURI",
      "outputs": [
        {
          "internalType": "string",
          "name": "",
          "type": "string"
        }
      ],
      "stateMutability": "view",
      "type": "function",
      "constant": true
    },
    {
      "inputs": [
        {
          "internalType": "uint256",
          "name": "tokenId",
          "type": "uint256"
        }
      ],
      "name": "getTokenTraits",
      "outputs": [
        {
          "components": [
            {
              "internalType": "bool",
              "name": "isChef",
              "type": "bool"
            },
            {
              "internalType": "uint8",
              "name": "hat",
              "type": "uint8"
            },
            {
              "internalType": "uint8",
              "name": "eyes",
              "type": "uint8"
            },
            {
              "internalType": "uint8",
              "name": "piercing",
              "type": "uint8"
            },
            {
              "internalType": "uint8",
              "name": "mouth",
              "type": "uint8"
            },
            {
              "internalType": "uint8",
              "name": "neck",
              "type": "uint8"
            },
            {
              "internalType": "uint8",
              "name": "hand",
              "type": "uint8"
            },
            {
              "internalType": "uint8",
              "name": "tail",
              "type": "uint8"
            },
            {
              "internalType": "uint8",
              "name": "insanity",
              "type": "uint8"
            },
            {
              "internalType": "uint8",
              "name": "skill",
              "type": "uint8"
            },
            {
              "internalType": "uint8",
              "name": "intelligence",
              "type": "uint8"
            },
            {
              "internalType": "uint8",
              "name": "fatness",
              "type": "uint8"
            }
          ],
          "internalType": "struct IChefRat.ChefRatStruct",
          "name": "",
          "type": "tuple"
        }
      ],
      "stateMutability": "view",
      "type": "function",
      "constant": true
    },
    {
      "inputs": [],
      "name": "getPaidTokens",
      "outputs": [
        {
          "internalType": "uint256",
          "name": "",
          "type": "uint256"
        }
      ],
      "stateMutability": "view",
      "type": "function",
      "constant": true
    },
    {
      "inputs": [
        {
          "internalType": "address",
          "name": "controller",
          "type": "address"
        }
      ],
      "name": "getController",
      "outputs": [
        {
          "internalType": "bool",
          "name": "",
          "type": "bool"
        }
      ],
      "stateMutability": "view",
      "type": "function",
      "constant": true
    },
    {
      "inputs": [
        {
          "internalType": "address",
          "name": "controller",
          "type": "address"
        }
      ],
      "name": "addController",
      "outputs": [],
      "stateMutability": "nonpayable",
      "type": "function"
    },
    {
      "inputs": [
        {
          "internalType": "address",
          "name": "controller",
          "type": "address"
        }
      ],
      "name": "removeController",
      "outputs": [],
      "stateMutability": "nonpayable",
      "type": "function"
    }
  ],
  "bytecode": "0x608060405234801561001057600080fd5b5061591780620000216000396000f3fe6080604052600436106102255760003560e01c80638da5cb5b11610123578063c084f540116100ab578063e1fc334f1161006f578063e1fc334f1461083b578063e985e9c514610866578063f2fde38b146108a3578063f47c84c5146108cc578063f6a74ed7146108f757610225565b8063c084f54014610737578063c87b56dd14610762578063cd6dc6871461079f578063d39f8a4d146107c8578063e05c57bf146107f357610225565b8063a1b8f374116100f2578063a1b8f37414610654578063a22cb46514610691578063a7fc7a07146106ba578063b88d4fde146106e3578063c002d23d1461070c57610225565b80638da5cb5b1461059857806394e56847146105c357806395d89b4114610600578063974d653c1461062b57610225565b806342842e0e116101b15780636352211e116101755780636352211e146104ae5780636ecd2306146104eb57806370a0823114610507578063715018a61461054457806388c662aa1461055b57610225565b806342842e0e146103dd57806342a05def1461040657806348fc749a1461042f5780634f02c420146104585780635c975abb1461048357610225565b8063095ea7b3116101f8578063095ea7b3146102fa57806310dd5d441461032357806323b872dd1461034c57806333df4b2c146103755780634018b1f8146103b257610225565b806301ffc9a71461022a57806306fdde0314610267578063081812fc146102925780630917e40d146102cf575b600080fd5b34801561023657600080fd5b50610251600480360381019061024c9190613c48565b610920565b60405161025e9190613c90565b60405180910390f35b34801561027357600080fd5b5061027c610a02565b6040516102899190613d44565b60405180910390f35b34801561029e57600080fd5b506102b960048036038101906102b49190613d9c565b610a94565b6040516102c69190613e0a565b60405180910390f35b3480156102db57600080fd5b506102e4610b19565b6040516102f19190613e42565b60405180910390f35b34801561030657600080fd5b50610321600480360381019061031c9190613e89565b610b2d565b005b34801561032f57600080fd5b5061034a60048036038101906103459190613f02565b610c45565b005b34801561035857600080fd5b50610373600480360381019061036e9190613f42565b610d31565b005b34801561038157600080fd5b5061039c60048036038101906103979190613f95565b610d91565b6040516103a99190613ff1565b60405180910390f35b3480156103be57600080fd5b506103c7610dd8565b6040516103d4919061401b565b60405180910390f35b3480156103e957600080fd5b5061040460048036038101906103ff9190613f42565b610de2565b005b34801561041257600080fd5b5061042d60048036038101906104289190613f02565b610e02565b005b34801561043b57600080fd5b5061045660048036038101906104519190613f02565b610eee565b005b34801561046457600080fd5b5061046d610fda565b60405161047a9190613e42565b60405180910390f35b34801561048f57600080fd5b50610498610fee565b6040516104a59190613c90565b60405180910390f35b3480156104ba57600080fd5b506104d560048036038101906104d09190613d9c565b611005565b6040516104e29190613e0a565b60405180910390f35b61050560048036038101906105009190614062565b6110b7565b005b34801561051357600080fd5b5061052e6004803603810190610529919061408f565b61138b565b60405161053b919061401b565b60405180910390f35b34801561055057600080fd5b50610559611443565b005b34801561056757600080fd5b50610582600480360381019061057d919061408f565b6114cb565b60405161058f9190613c90565b60405180910390f35b3480156105a457600080fd5b506105ad61159e565b6040516105ba9190613e0a565b60405180910390f35b3480156105cf57600080fd5b506105ea60048036038101906105e59190613d9c565b6115c8565b6040516105f791906141d0565b60405180910390f35b34801561060c57600080fd5b50610615611798565b6040516106229190613d44565b60405180910390f35b34801561063757600080fd5b50610652600480360381019061064d9190613f02565b61182a565b005b34801561066057600080fd5b5061067b60048036038101906106769190613d9c565b611916565b604051610688919061401b565b60405180910390f35b34801561069d57600080fd5b506106b860048036038101906106b39190614218565b61192e565b005b3480156106c657600080fd5b506106e160048036038101906106dc919061408f565b611944565b005b3480156106ef57600080fd5b5061070a6004803603810190610705919061438d565b611a1c565b005b34801561071857600080fd5b50610721611a7e565b60405161072e919061401b565b60405180910390f35b34801561074357600080fd5b5061074c611a89565b604051610759919061401b565b60405180910390f35b34801561076e57600080fd5b5061078960048036038101906107849190613d9c565b611a8f565b6040516107969190613d44565b60405180910390f35b3480156107ab57600080fd5b506107c660048036038101906107c19190613e89565b611b82565b005b3480156107d457600080fd5b506107dd6121f0565b6040516107ea9190613e42565b60405180910390f35b3480156107ff57600080fd5b5061081a60048036038101906108159190613d9c565b612204565b6040516108329c9b9a99989796959493929190614410565b60405180910390f35b34801561084757600080fd5b50610850612300565b60405161085d9190614529565b60405180910390f35b34801561087257600080fd5b5061088d60048036038101906108889190614544565b612327565b60405161089a9190613c90565b60405180910390f35b3480156108af57600080fd5b506108ca60048036038101906108c5919061408f565b6123bb565b005b3480156108d857600080fd5b506108e16124b3565b6040516108ee919061401b565b60405180910390f35b34801561090357600080fd5b5061091e6004803603810190610919919061408f565b6124b9565b005b60007f80ac58cd000000000000000000000000000000000000000000000000000000007bffffffffffffffffffffffffffffffffffffffffffffffffffffffff1916827bffffffffffffffffffffffffffffffffffffffffffffffffffffffff191614806109eb57507f5b5e139f000000000000000000000000000000000000000000000000000000007bffffffffffffffffffffffffffffffffffffffffffffffffffffffff1916827bffffffffffffffffffffffffffffffffffffffffffffffffffffffff1916145b806109fb57506109fa82612591565b5b9050919050565b606060c98054610a11906145b3565b80601f0160208091040260200160405190810160405280929190818152602001828054610a3d906145b3565b8015610a8a5780601f10610a5f57610100808354040283529160200191610a8a565b820191906000526020600020905b815481529060010190602001808311610a6d57829003601f168201915b5050505050905090565b6000610a9f826125fb565b610ade576040517f08c379a0000000000000000000000000000000000000000000000000000000008152600401610ad590614657565b60405180910390fd5b60cd600083815260200190815260200160002060009054906101000a900473ffffffffffffffffffffffffffffffffffffffff169050919050565b60fb60049054906101000a900461ffff1681565b6000610b3882611005565b90508073ffffffffffffffffffffffffffffffffffffffff168373ffffffffffffffffffffffffffffffffffffffff161415610ba9576040517f08c379a0000000000000000000000000000000000000000000000000000000008152600401610ba0906146e9565b60405180910390fd5b8073ffffffffffffffffffffffffffffffffffffffff16610bc8612667565b73ffffffffffffffffffffffffffffffffffffffff161480610bf75750610bf681610bf1612667565b612327565b5b610c36576040517f08c379a0000000000000000000000000000000000000000000000000000000008152600401610c2d9061477b565b60405180910390fd5b610c40838361266f565b505050565b61010060003373ffffffffffffffffffffffffffffffffffffffff1673ffffffffffffffffffffffffffffffffffffffff16815260200190815260200160002060009054906101000a900460ff16610cd2576040517f08c379a0000000000000000000000000000000000000000000000000000000008152600401610cc9906147e7565b60405180910390fd5b610cff60fe600084815260200190815260200160002060000160099054906101000a900460ff1682612728565b60fe600084815260200190815260200160002060000160096101000a81548160ff021916908360ff1602179055505050565b610d42610d3c612667565b826127a1565b610d81576040517f08c379a0000000000000000000000000000000000000000000000000000000008152600401610d7890614879565b60405180910390fd5b610d8c83838361287f565b505050565b6101018260128110610da257600080fd5b018181548110610db157600080fd5b9060005260206000209060209182820401919006915091509054906101000a900460ff1681565b600060fd54905090565b610dfd83838360405180602001604052806000815250611a1c565b505050565b61010060003373ffffffffffffffffffffffffffffffffffffffff1673ffffffffffffffffffffffffffffffffffffffff16815260200190815260200160002060009054906101000a900460ff16610e8f576040517f08c379a0000000000000000000000000000000000000000000000000000000008152600401610e86906147e7565b60405180910390fd5b610ebc60fe600084815260200190815260200160002060000160089054906101000a900460ff1682612728565b60fe600084815260200190815260200160002060000160086101000a81548160ff021916908360ff1602179055505050565b61010060003373ffffffffffffffffffffffffffffffffffffffff1673ffffffffffffffffffffffffffffffffffffffff16815260200190815260200160002060009054906101000a900460ff16610f7b576040517f08c379a0000000000000000000000000000000000000000000000000000000008152600401610f72906147e7565b60405180910390fd5b610fa860fe6000848152602001908152602001600020600001600b9054906101000a900460ff1682612728565b60fe6000848152602001908152602001600020600001600b6101000a81548160ff021916908360ff1602179055505050565b60fb60009054906101000a900461ffff1681565b6000606560009054906101000a900460ff16905090565b60008060cb600084815260200190815260200160002060009054906101000a900473ffffffffffffffffffffffffffffffffffffffff169050600073ffffffffffffffffffffffffffffffffffffffff168173ffffffffffffffffffffffffffffffffffffffff1614156110ae576040517f08c379a00000000000000000000000000000000000000000000000000000000081526004016110a59061490b565b60405180910390fd5b80915050919050565b6110bf610fee565b156110ff576040517f08c379a00000000000000000000000000000000000000000000000000000000081526004016110f690614977565b60405180910390fd5b60008160ff161180156111165750600a8160ff1611155b611155576040517f08c379a000000000000000000000000000000000000000000000000000000000815260040161114c906149e3565b60405180910390fd5b34662386f26fc100008260ff1661116c9190614a32565b146111ac576040517f08c379a00000000000000000000000000000000000000000000000000000000081526004016111a390614ad8565b60405180910390fd5b60008160ff1667ffffffffffffffff8111156111cb576111ca614262565b5b6040519080825280602002602001820160405280156111f95781602001602082028036833780820191505090505b5090506000611206613967565b60005b8460ff168110156113845760fb600081819054906101000a900461ffff168092919061123490614af8565b91906101000a81548161ffff021916908361ffff1602179055505061126c60fb60009054906101000a900461ffff1661ffff16612adb565b925061128c60fb60009054906101000a900461ffff1661ffff1684612b21565b91506112b3611299612667565b60fb60009054906101000a900461ffff1661ffff16612d3d565b60fb60009054906101000a900461ffff168482815181106112d7576112d6614b23565b5b602002602001019061ffff16908161ffff168152505081600001516113355760fb600481819054906101000a900461ffff168092919061131690614af8565b91906101000a81548161ffff021916908361ffff160217905550611370565b60fb600281819054906101000a900461ffff168092919061135590614af8565b91906101000a81548161ffff021916908361ffff1602179055505b50808061137c90614b52565b915050611209565b5050505050565b60008073ffffffffffffffffffffffffffffffffffffffff168273ffffffffffffffffffffffffffffffffffffffff1614156113fc576040517f08c379a00000000000000000000000000000000000000000000000000000000081526004016113f390614c0d565b60405180910390fd5b60cc60008373ffffffffffffffffffffffffffffffffffffffff1673ffffffffffffffffffffffffffffffffffffffff168152602001908152602001600020549050919050565b61144b612667565b73ffffffffffffffffffffffffffffffffffffffff1661146961159e565b73ffffffffffffffffffffffffffffffffffffffff16146114bf576040517f08c379a00000000000000000000000000000000000000000000000000000000081526004016114b690614c79565b60405180910390fd5b6114c96000612d5b565b565b60006114d5612667565b73ffffffffffffffffffffffffffffffffffffffff166114f361159e565b73ffffffffffffffffffffffffffffffffffffffff1614611549576040517f08c379a000000000000000000000000000000000000000000000000000000000815260040161154090614c79565b60405180910390fd5b61010060008373ffffffffffffffffffffffffffffffffffffffff1673ffffffffffffffffffffffffffffffffffffffff16815260200190815260200160002060009054906101000a900460ff169050919050565b6000603360009054906101000a900473ffffffffffffffffffffffffffffffffffffffff16905090565b6115d0613967565b6115d9826125fb565b611618576040517f08c379a000000000000000000000000000000000000000000000000000000000815260040161160f90614d0b565b60405180910390fd5b60fe6000838152602001908152602001600020604051806101800160405290816000820160009054906101000a900460ff161515151581526020016000820160019054906101000a900460ff1660ff1660ff1681526020016000820160029054906101000a900460ff1660ff1660ff1681526020016000820160039054906101000a900460ff1660ff1660ff1681526020016000820160049054906101000a900460ff1660ff1660ff1681526020016000820160059054906101000a900460ff1660ff1660ff1681526020016000820160069054906101000a900460ff1660ff1660ff1681526020016000820160079054906101000a900460ff1660ff1660ff1681526020016000820160089054906101000a900460ff1660ff1660ff1681526020016000820160099054906101000a900460ff1660ff1660ff16815260200160008201600a9054906101000a900460ff1660ff1660ff16815260200160008201600b9054906101000a900460ff1660ff1660ff16815250509050919050565b606060ca80546117a7906145b3565b80601f01602080910402602001604051908101604052809291908181526020018280546117d3906145b3565b80156118205780601f106117f557610100808354040283529160200191611820565b820191906000526020600020905b81548152906001019060200180831161180357829003601f168201915b5050505050905090565b61010060003373ffffffffffffffffffffffffffffffffffffffff1673ffffffffffffffffffffffffffffffffffffffff16815260200190815260200160002060009054906101000a900460ff166118b7576040517f08c379a00000000000000000000000000000000000000000000000000000000081526004016118ae906147e7565b60405180910390fd5b6118e460fe6000848152602001908152602001600020600001600a9054906101000a900460ff1682612728565b60fe6000848152602001908152602001600020600001600a6101000a81548160ff021916908360ff1602179055505050565b60ff6020528060005260406000206000915090505481565b611940611939612667565b8383612e21565b5050565b61194c612667565b73ffffffffffffffffffffffffffffffffffffffff1661196a61159e565b73ffffffffffffffffffffffffffffffffffffffff16146119c0576040517f08c379a00000000000000000000000000000000000000000000000000000000081526004016119b790614c79565b60405180910390fd5b600161010060008373ffffffffffffffffffffffffffffffffffffffff1673ffffffffffffffffffffffffffffffffffffffff16815260200190815260200160002060006101000a81548160ff02191690831515021790555050565b611a2d611a27612667565b836127a1565b611a6c576040517f08c379a0000000000000000000000000000000000000000000000000000000008152600401611a6390614879565b60405180910390fd5b611a7884848484612f8e565b50505050565b662386f26fc1000081565b60fd5481565b6060611a9a826125fb565b611ad9576040517f08c379a0000000000000000000000000000000000000000000000000000000008152600401611ad090614d0b565b60405180910390fd5b61011360009054906101000a900473ffffffffffffffffffffffffffffffffffffffff1673ffffffffffffffffffffffffffffffffffffffff1663c87b56dd836040518263ffffffff1660e01b8152600401611b35919061401b565b600060405180830381865afa158015611b52573d6000803e3d6000fd5b505050506040513d6000823e3d601f19601f82011682018060405250810190611b7b9190614dcc565b9050919050565b600060019054906101000a900460ff16611baa5760008054906101000a900460ff1615611bb3565b611bb2612fea565b5b611bf2576040517f08c379a0000000000000000000000000000000000000000000000000000000008152600401611be990614e87565b60405180910390fd5b60008060019054906101000a900460ff161590508015611c42576001600060016101000a81548160ff02191690831515021790555060016000806101000a81548160ff0219169083151502179055505b611c4a612ffb565b611c5261305c565b611cc66040518060400160405280601581526020017f526174416c6572742043686566732026205261747300000000000000000000008152506040518060400160405280600781526020017f43484546524154000000000000000000000000000000000000000000000000008152506130bd565b600060fb60006101000a81548161ffff021916908361ffff160217905550600060fb60026101000a81548161ffff021916908361ffff160217905550600060fb60046101000a81548161ffff021916908361ffff1602179055508261011360006101000a81548173ffffffffffffffffffffffffffffffffffffffff021916908373ffffffffffffffffffffffffffffffffffffffff1602179055508160fc81905550600582611d769190614ed6565b60fd819055506040518060c0016040528060ff8016815260200160df60ff16815260200160bf60ff168152602001609f60ff168152602001607f60ff168152602001605f60ff16815250610101600260128110611dd657611dd5614b23565b5b01906006611de59291906139eb565b5060405180610100016040528060ff8016815260200160df60ff16815260200160bf60ff168152602001609f60ff168152602001607f60ff168152602001605f60ff168152602001603f60ff168152602001601f60ff16815250610101600360128110611e5557611e54614b23565b5b01906008611e64929190613a92565b506040518060c0016040528060ff8016815260200160df60ff16815260200160bf60ff168152602001609f60ff168152602001607f60ff168152602001605f60ff16815250610101600460128110611ebf57611ebe614b23565b5b01906006611ece9291906139eb565b506040518060c0016040528060ff8016815260200160cf60ff168152602001609f60ff168152602001606f60ff168152602001603f60ff168152602001600f60ff16815250610101600560128110611f2957611f28614b23565b5b01906006611f389291906139eb565b506040518060c0016040528060ff8016815260200160df60ff16815260200160bf60ff168152602001609f60ff168152602001607f60ff168152602001605f60ff16815250610101600660128110611f9357611f92614b23565b5b01906006611fa29291906139eb565b506040518060c0016040528060ff8016815260200160df60ff16815260200160bf60ff168152602001609f60ff168152602001607f60ff168152602001605f60ff16815250610101600c60128110611ffd57611ffc614b23565b5b0190600661200c9291906139eb565b5060405180610100016040528060ff8016815260200160df60ff16815260200160bf60ff168152602001609f60ff168152602001607f60ff168152602001605f60ff168152602001603f60ff168152602001601f60ff16815250610101600d6012811061207c5761207b614b23565b5b0190600861208b929190613a92565b506040518060c0016040528060ff8016815260200160df60ff16815260200160bf60ff168152602001609f60ff168152602001607f60ff168152602001605f60ff16815250610101600e601281106120e6576120e5614b23565b5b019060066120f59291906139eb565b506040518060c0016040528060ff8016815260200160cf60ff168152602001609f60ff168152602001606f60ff168152602001603f60ff168152602001600f60ff16815250610101600f601281106121505761214f614b23565b5b0190600661215f9291906139eb565b506040518060c0016040528060ff8016815260200160df60ff16815260200160bf60ff168152602001609f60ff168152602001607f60ff168152602001605f60ff168152506101016010601281106121ba576121b9614b23565b5b019060066121c99291906139eb565b5080156121eb5760008060016101000a81548160ff0219169083151502179055505b505050565b60fb60029054906101000a900461ffff1681565b60fe6020528060005260406000206000915090508060000160009054906101000a900460ff16908060000160019054906101000a900460ff16908060000160029054906101000a900460ff16908060000160039054906101000a900460ff16908060000160049054906101000a900460ff16908060000160059054906101000a900460ff16908060000160069054906101000a900460ff16908060000160079054906101000a900460ff16908060000160089054906101000a900460ff16908060000160099054906101000a900460ff169080600001600a9054906101000a900460ff169080600001600b9054906101000a900460ff1690508c565b61011360009054906101000a900473ffffffffffffffffffffffffffffffffffffffff1681565b600060ce60008473ffffffffffffffffffffffffffffffffffffffff1673ffffffffffffffffffffffffffffffffffffffff16815260200190815260200160002060008373ffffffffffffffffffffffffffffffffffffffff1673ffffffffffffffffffffffffffffffffffffffff16815260200190815260200160002060009054906101000a900460ff16905092915050565b6123c3612667565b73ffffffffffffffffffffffffffffffffffffffff166123e161159e565b73ffffffffffffffffffffffffffffffffffffffff1614612437576040517f08c379a000000000000000000000000000000000000000000000000000000000815260040161242e90614c79565b60405180910390fd5b600073ffffffffffffffffffffffffffffffffffffffff168173ffffffffffffffffffffffffffffffffffffffff1614156124a7576040517f08c379a000000000000000000000000000000000000000000000000000000000815260040161249e90614f79565b60405180910390fd5b6124b081612d5b565b50565b60fc5481565b6124c1612667565b73ffffffffffffffffffffffffffffffffffffffff166124df61159e565b73ffffffffffffffffffffffffffffffffffffffff1614612535576040517f08c379a000000000000000000000000000000000000000000000000000000000815260040161252c90614c79565b60405180910390fd5b600061010060008373ffffffffffffffffffffffffffffffffffffffff1673ffffffffffffffffffffffffffffffffffffffff16815260200190815260200160002060006101000a81548160ff02191690831515021790555050565b60007f01ffc9a7000000000000000000000000000000000000000000000000000000007bffffffffffffffffffffffffffffffffffffffffffffffffffffffff1916827bffffffffffffffffffffffffffffffffffffffffffffffffffffffff1916149050919050565b60008073ffffffffffffffffffffffffffffffffffffffff1660cb600084815260200190815260200160002060009054906101000a900473ffffffffffffffffffffffffffffffffffffffff1673ffffffffffffffffffffffffffffffffffffffff1614159050919050565b600033905090565b8160cd600083815260200190815260200160002060006101000a81548173ffffffffffffffffffffffffffffffffffffffff021916908373ffffffffffffffffffffffffffffffffffffffff160217905550808273ffffffffffffffffffffffffffffffffffffffff166126e283611005565b73ffffffffffffffffffffffffffffffffffffffff167f8c5be1e5ebec7d5bd14f71427d1e84f3dd0314c0f7b2291e5b200ac8c7c3b92560405160405180910390a45050565b6000808260000b1261276557606483836127429190614f99565b60ff161161275b5781836127569190614f99565b61275e565b60645b905061279b565b8260ff168261277390614fd0565b60ff1611612795578161278590614fd0565b836127909190615019565b612798565b60005b90505b92915050565b60006127ac826125fb565b6127eb576040517f08c379a00000000000000000000000000000000000000000000000000000000081526004016127e2906150bf565b60405180910390fd5b60006127f683611005565b90508073ffffffffffffffffffffffffffffffffffffffff168473ffffffffffffffffffffffffffffffffffffffff16148061286557508373ffffffffffffffffffffffffffffffffffffffff1661284d84610a94565b73ffffffffffffffffffffffffffffffffffffffff16145b8061287657506128758185612327565b5b91505092915050565b8273ffffffffffffffffffffffffffffffffffffffff1661289f82611005565b73ffffffffffffffffffffffffffffffffffffffff16146128f5576040517f08c379a00000000000000000000000000000000000000000000000000000000081526004016128ec90615151565b60405180910390fd5b600073ffffffffffffffffffffffffffffffffffffffff168273ffffffffffffffffffffffffffffffffffffffff161415612965576040517f08c379a000000000000000000000000000000000000000000000000000000000815260040161295c906151e3565b60405180910390fd5b61297083838361312a565b61297b60008261266f565b600160cc60008573ffffffffffffffffffffffffffffffffffffffff1673ffffffffffffffffffffffffffffffffffffffff16815260200190815260200160002060008282546129cb9190615203565b92505081905550600160cc60008473ffffffffffffffffffffffffffffffffffffffff1673ffffffffffffffffffffffffffffffffffffffff1681526020019081526020016000206000828254612a229190615237565b925050819055508160cb600083815260200190815260200160002060006101000a81548173ffffffffffffffffffffffffffffffffffffffff021916908373ffffffffffffffffffffffffffffffffffffffff160217905550808273ffffffffffffffffffffffffffffffffffffffff168473ffffffffffffffffffffffffffffffffffffffff167fddf252ad1be2c89b69c2b068fc378daa952ba7f163c4a11628f55a4df523b3ef60405160405180910390a4505050565b600032600143612aeb9190615203565b404284604051602001612b019493929190615321565b6040516020818303038152906040528051906020012060001c9050919050565b612b29613967565b612b328261312f565b90506000612b3f82613288565b9050600060ff6000838152602001908152602001600020541415612d21578160fe600086815260200190815260200160002060008201518160000160006101000a81548160ff02191690831515021790555060208201518160000160016101000a81548160ff021916908360ff16021790555060408201518160000160026101000a81548160ff021916908360ff16021790555060608201518160000160036101000a81548160ff021916908360ff16021790555060808201518160000160046101000a81548160ff021916908360ff16021790555060a08201518160000160056101000a81548160ff021916908360ff16021790555060c08201518160000160066101000a81548160ff021916908360ff16021790555060e08201518160000160076101000a81548160ff021916908360ff1602179055506101008201518160000160086101000a81548160ff021916908360ff1602179055506101208201518160000160096101000a81548160ff021916908360ff16021790555061014082015181600001600a6101000a81548160ff021916908360ff16021790555061016082015181600001600b6101000a81548160ff021916908360ff1602179055509050508360ff60008381526020019081526020016000208190555050612d37565b612d3384612d2e85612adb565b612b21565b9150505b92915050565b612d578282604051806020016040528060008152506132eb565b5050565b6000603360009054906101000a900473ffffffffffffffffffffffffffffffffffffffff16905081603360006101000a81548173ffffffffffffffffffffffffffffffffffffffff021916908373ffffffffffffffffffffffffffffffffffffffff1602179055508173ffffffffffffffffffffffffffffffffffffffff168173ffffffffffffffffffffffffffffffffffffffff167f8be0079c531659141344cd1fd0a4f28419497f9722a3daafe3b4186f6b6457e060405160405180910390a35050565b8173ffffffffffffffffffffffffffffffffffffffff168373ffffffffffffffffffffffffffffffffffffffff161415612e90576040517f08c379a0000000000000000000000000000000000000000000000000000000008152600401612e87906153bb565b60405180910390fd5b8060ce60008573ffffffffffffffffffffffffffffffffffffffff1673ffffffffffffffffffffffffffffffffffffffff16815260200190815260200160002060008473ffffffffffffffffffffffffffffffffffffffff1673ffffffffffffffffffffffffffffffffffffffff16815260200190815260200160002060006101000a81548160ff0219169083151502179055508173ffffffffffffffffffffffffffffffffffffffff168373ffffffffffffffffffffffffffffffffffffffff167f17307eab39ab6107e8899845ad3d59bd9653f200f220920489ca2b5937696c3183604051612f819190613c90565b60405180910390a3505050565b612f9984848461287f565b612fa584848484613346565b612fe4576040517f08c379a0000000000000000000000000000000000000000000000000000000008152600401612fdb9061544d565b60405180910390fd5b50505050565b6000612ff5306134ce565b15905090565b600060019054906101000a900460ff1661304a576040517f08c379a0000000000000000000000000000000000000000000000000000000008152600401613041906154df565b60405180910390fd5b6130526134e1565b61305a613532565b565b600060019054906101000a900460ff166130ab576040517f08c379a00000000000000000000000000000000000000000000000000000000081526004016130a2906154df565b60405180910390fd5b6130b36134e1565b6130bb613593565b565b600060019054906101000a900460ff1661310c576040517f08c379a0000000000000000000000000000000000000000000000000000000008152600401613103906154df565b60405180910390fd5b6131146134e1565b61311c6135ff565b6131268282613650565b5050565b505050565b613137613967565b6000600a61ffff841661314a91906154ff565b14158160000190151590811515815250508060000151156131f6576131708260026136d1565b816020019060ff16908160ff168152505061318c8260036136d1565b816040019060ff16908160ff16815250506131a88260046136d1565b816080019060ff16908160ff16815250506131c48260056136d1565b8160a0019060ff16908160ff16815250506131e08260066136d1565b8160c0019060ff16908160ff1681525050613283565b61320182600c6136d1565b816020019060ff16908160ff168152505061321d82600d6136d1565b816040019060ff16908160ff168152505061323982600e6136d1565b816060019060ff16908160ff168152505061325582600f6136d1565b8160a0019060ff16908160ff16815250506132718260106136d1565b8160e0019060ff16908160ff16815250505b919050565b6000816000015182602001518360400151846060015185608001518660a001518760c001518860e001516040516020016132c998979695949392919061558f565b6040516020818303038152906040526132e19061565e565b60001c9050919050565b6132f58383613799565b6133026000848484613346565b613341576040517f08c379a00000000000000000000000000000000000000000000000000000000081526004016133389061544d565b60405180910390fd5b505050565b60006133678473ffffffffffffffffffffffffffffffffffffffff166134ce565b156134c1578373ffffffffffffffffffffffffffffffffffffffff1663150b7a02613390612667565b8786866040518563ffffffff1660e01b81526004016133b2949392919061570f565b6020604051808303816000875af19250505080156133ee57506040513d601f19601f820116820180604052508101906133eb9190615770565b60015b613471573d806000811461341e576040519150601f19603f3d011682016040523d82523d6000602084013e613423565b606091505b50600081511415613469576040517f08c379a00000000000000000000000000000000000000000000000000000000081526004016134609061544d565b60405180910390fd5b805181602001fd5b63150b7a0260e01b7bffffffffffffffffffffffffffffffffffffffffffffffffffffffff1916817bffffffffffffffffffffffffffffffffffffffffffffffffffffffff1916149150506134c6565b600190505b949350505050565b600080823b905060008111915050919050565b600060019054906101000a900460ff16613530576040517f08c379a0000000000000000000000000000000000000000000000000000000008152600401613527906154df565b60405180910390fd5b565b600060019054906101000a900460ff16613581576040517f08c379a0000000000000000000000000000000000000000000000000000000008152600401613578906154df565b60405180910390fd5b61359161358c612667565b612d5b565b565b600060019054906101000a900460ff166135e2576040517f08c379a00000000000000000000000000000000000000000000000000000000081526004016135d9906154df565b60405180910390fd5b6000606560006101000a81548160ff021916908315150217905550565b600060019054906101000a900460ff1661364e576040517f08c379a0000000000000000000000000000000000000000000000000000000008152600401613645906154df565b60405180910390fd5b565b600060019054906101000a900460ff1661369f576040517f08c379a0000000000000000000000000000000000000000000000000000000008152600401613696906154df565b60405180910390fd5b8160c990805190602001906136b5929190613b39565b508060ca90805190602001906136cc929190613b39565b505050565b60006010600a836136e2919061579d565b6136ec91906157ce565b60ff1683901c925060006101018360ff166012811061370e5761370d614b23565b5b01805490508461371e919061579d565b9050600060ff851690506101018460ff16601281106137405761373f614b23565b5b018260ff168154811061375657613755614b23565b5b90600052602060002090602091828204019190069054906101000a900460ff1660ff168160ff161161378c578192505050613793565b6000925050505b92915050565b600073ffffffffffffffffffffffffffffffffffffffff168273ffffffffffffffffffffffffffffffffffffffff161415613809576040517f08c379a000000000000000000000000000000000000000000000000000000000815260040161380090615855565b60405180910390fd5b613812816125fb565b15613852576040517f08c379a0000000000000000000000000000000000000000000000000000000008152600401613849906158c1565b60405180910390fd5b61385e6000838361312a565b600160cc60008473ffffffffffffffffffffffffffffffffffffffff1673ffffffffffffffffffffffffffffffffffffffff16815260200190815260200160002060008282546138ae9190615237565b925050819055508160cb600083815260200190815260200160002060006101000a81548173ffffffffffffffffffffffffffffffffffffffff021916908373ffffffffffffffffffffffffffffffffffffffff160217905550808273ffffffffffffffffffffffffffffffffffffffff16600073ffffffffffffffffffffffffffffffffffffffff167fddf252ad1be2c89b69c2b068fc378daa952ba7f163c4a11628f55a4df523b3ef60405160405180910390a45050565b604051806101800160405280600015158152602001600060ff168152602001600060ff168152602001600060ff168152602001600060ff168152602001600060ff168152602001600060ff168152602001600060ff168152602001600060ff168152602001600060ff168152602001600060ff168152602001600060ff1681525090565b82805482825590600052602060002090601f01602090048101928215613a815791602002820160005b83821115613a5257835183826101000a81548160ff021916908360ff1602179055509260200192600101602081600001049283019260010302613a14565b8015613a7f5782816101000a81549060ff0219169055600101602081600001049283019260010302613a52565b505b509050613a8e9190613bbf565b5090565b82805482825590600052602060002090601f01602090048101928215613b285791602002820160005b83821115613af957835183826101000a81548160ff021916908360ff1602179055509260200192600101602081600001049283019260010302613abb565b8015613b265782816101000a81549060ff0219169055600101602081600001049283019260010302613af9565b505b509050613b359190613bbf565b5090565b828054613b45906145b3565b90600052602060002090601f016020900481019282613b675760008555613bae565b82601f10613b8057805160ff1916838001178555613bae565b82800160010185558215613bae579182015b82811115613bad578251825591602001919060010190613b92565b5b509050613bbb9190613bbf565b5090565b5b80821115613bd8576000816000905550600101613bc0565b5090565b6000604051905090565b600080fd5b600080fd5b60007fffffffff0000000000000000000000000000000000000000000000000000000082169050919050565b613c2581613bf0565b8114613c3057600080fd5b50565b600081359050613c4281613c1c565b92915050565b600060208284031215613c5e57613c5d613be6565b5b6000613c6c84828501613c33565b91505092915050565b60008115159050919050565b613c8a81613c75565b82525050565b6000602082019050613ca56000830184613c81565b92915050565b600081519050919050565b600082825260208201905092915050565b60005b83811015613ce5578082015181840152602081019050613cca565b83811115613cf4576000848401525b50505050565b6000601f19601f8301169050919050565b6000613d1682613cab565b613d208185613cb6565b9350613d30818560208601613cc7565b613d3981613cfa565b840191505092915050565b60006020820190508181036000830152613d5e8184613d0b565b905092915050565b6000819050919050565b613d7981613d66565b8114613d8457600080fd5b50565b600081359050613d9681613d70565b92915050565b600060208284031215613db257613db1613be6565b5b6000613dc084828501613d87565b91505092915050565b600073ffffffffffffffffffffffffffffffffffffffff82169050919050565b6000613df482613dc9565b9050919050565b613e0481613de9565b82525050565b6000602082019050613e1f6000830184613dfb565b92915050565b600061ffff82169050919050565b613e3c81613e25565b82525050565b6000602082019050613e576000830184613e33565b92915050565b613e6681613de9565b8114613e7157600080fd5b50565b600081359050613e8381613e5d565b92915050565b60008060408385031215613ea057613e9f613be6565b5b6000613eae85828601613e74565b9250506020613ebf85828601613d87565b9150509250929050565b60008160000b9050919050565b613edf81613ec9565b8114613eea57600080fd5b50565b600081359050613efc81613ed6565b92915050565b60008060408385031215613f1957613f18613be6565b5b6000613f2785828601613d87565b9250506020613f3885828601613eed565b9150509250929050565b600080600060608486031215613f5b57613f5a613be6565b5b6000613f6986828701613e74565b9350506020613f7a86828701613e74565b9250506040613f8b86828701613d87565b9150509250925092565b60008060408385031215613fac57613fab613be6565b5b6000613fba85828601613d87565b9250506020613fcb85828601613d87565b9150509250929050565b600060ff82169050919050565b613feb81613fd5565b82525050565b60006020820190506140066000830184613fe2565b92915050565b61401581613d66565b82525050565b6000602082019050614030600083018461400c565b92915050565b61403f81613fd5565b811461404a57600080fd5b50565b60008135905061405c81614036565b92915050565b60006020828403121561407857614077613be6565b5b60006140868482850161404d565b91505092915050565b6000602082840312156140a5576140a4613be6565b5b60006140b384828501613e74565b91505092915050565b6140c581613c75565b82525050565b6140d481613fd5565b82525050565b610180820160008201516140f160008501826140bc565b50602082015161410460208501826140cb565b50604082015161411760408501826140cb565b50606082015161412a60608501826140cb565b50608082015161413d60808501826140cb565b5060a082015161415060a08501826140cb565b5060c082015161416360c08501826140cb565b5060e082015161417660e08501826140cb565b5061010082015161418b6101008501826140cb565b506101208201516141a06101208501826140cb565b506101408201516141b56101408501826140cb565b506101608201516141ca6101608501826140cb565b50505050565b6000610180820190506141e660008301846140da565b92915050565b6141f581613c75565b811461420057600080fd5b50565b600081359050614212816141ec565b92915050565b6000806040838503121561422f5761422e613be6565b5b600061423d85828601613e74565b925050602061424e85828601614203565b9150509250929050565b600080fd5b600080fd5b7f4e487b7100000000000000000000000000000000000000000000000000000000600052604160045260246000fd5b61429a82613cfa565b810181811067ffffffffffffffff821117156142b9576142b8614262565b5b80604052505050565b60006142cc613bdc565b90506142d88282614291565b919050565b600067ffffffffffffffff8211156142f8576142f7614262565b5b61430182613cfa565b9050602081019050919050565b82818337600083830152505050565b600061433061432b846142dd565b6142c2565b90508281526020810184848401111561434c5761434b61425d565b5b61435784828561430e565b509392505050565b600082601f83011261437457614373614258565b5b813561438484826020860161431d565b91505092915050565b600080600080608085870312156143a7576143a6613be6565b5b60006143b587828801613e74565b94505060206143c687828801613e74565b93505060406143d787828801613d87565b925050606085013567ffffffffffffffff8111156143f8576143f7613beb565b5b6144048782880161435f565b91505092959194509250565b600061018082019050614426600083018f613c81565b614433602083018e613fe2565b614440604083018d613fe2565b61444d606083018c613fe2565b61445a608083018b613fe2565b61446760a083018a613fe2565b61447460c0830189613fe2565b61448160e0830188613fe2565b61448f610100830187613fe2565b61449d610120830186613fe2565b6144ab610140830185613fe2565b6144b9610160830184613fe2565b9d9c50505050505050505050505050565b6000819050919050565b60006144ef6144ea6144e584613dc9565b6144ca565b613dc9565b9050919050565b6000614501826144d4565b9050919050565b6000614513826144f6565b9050919050565b61452381614508565b82525050565b600060208201905061453e600083018461451a565b92915050565b6000806040838503121561455b5761455a613be6565b5b600061456985828601613e74565b925050602061457a85828601613e74565b9150509250929050565b7f4e487b7100000000000000000000000000000000000000000000000000000000600052602260045260246000fd5b600060028204905060018216806145cb57607f821691505b602082108114156145df576145de614584565b5b50919050565b7f4552433732313a20617070726f76656420717565727920666f72206e6f6e657860008201527f697374656e7420746f6b656e0000000000000000000000000000000000000000602082015250565b6000614641602c83613cb6565b915061464c826145e5565b604082019050919050565b6000602082019050818103600083015261467081614634565b9050919050565b7f4552433732313a20617070726f76616c20746f2063757272656e74206f776e6560008201527f7200000000000000000000000000000000000000000000000000000000000000602082015250565b60006146d3602183613cb6565b91506146de82614677565b604082019050919050565b60006020820190508181036000830152614702816146c6565b9050919050565b7f4552433732313a20617070726f76652063616c6c6572206973206e6f74206f7760008201527f6e6572206e6f7220617070726f76656420666f7220616c6c0000000000000000602082015250565b6000614765603883613cb6565b915061477082614709565b604082019050919050565b6000602082019050818103600083015261479481614758565b9050919050565b7f4f6e6c7920636f6e74726f6c6c6572732063616e207570646174650000000000600082015250565b60006147d1601b83613cb6565b91506147dc8261479b565b602082019050919050565b60006020820190508181036000830152614800816147c4565b9050919050565b7f4552433732313a207472616e736665722063616c6c6572206973206e6f74206f60008201527f776e6572206e6f7220617070726f766564000000000000000000000000000000602082015250565b6000614863603183613cb6565b915061486e82614807565b604082019050919050565b6000602082019050818103600083015261489281614856565b9050919050565b7f4552433732313a206f776e657220717565727920666f72206e6f6e657869737460008201527f656e7420746f6b656e0000000000000000000000000000000000000000000000602082015250565b60006148f5602983613cb6565b915061490082614899565b604082019050919050565b60006020820190508181036000830152614924816148e8565b9050919050565b7f5061757361626c653a2070617573656400000000000000000000000000000000600082015250565b6000614961601083613cb6565b915061496c8261492b565b602082019050919050565b6000602082019050818103600083015261499081614954565b9050919050565b7f496e76616c6964206d696e7420616d6f756e7400000000000000000000000000600082015250565b60006149cd601383613cb6565b91506149d882614997565b602082019050919050565b600060208201905081810360008301526149fc816149c0565b9050919050565b7f4e487b7100000000000000000000000000000000000000000000000000000000600052601160045260246000fd5b6000614a3d82613d66565b9150614a4883613d66565b9250817fffffffffffffffffffffffffffffffffffffffffffffffffffffffffffffffff0483118215151615614a8157614a80614a03565b5b828202905092915050565b7f496e76616c6964207061796d656e7420616d6f756e7400000000000000000000600082015250565b6000614ac2601683613cb6565b9150614acd82614a8c565b602082019050919050565b60006020820190508181036000830152614af181614ab5565b9050919050565b6000614b0382613e25565b915061ffff821415614b1857614b17614a03565b5b600182019050919050565b7f4e487b7100000000000000000000000000000000000000000000000000000000600052603260045260246000fd5b6000614b5d82613d66565b91507fffffffffffffffffffffffffffffffffffffffffffffffffffffffffffffffff821415614b9057614b8f614a03565b5b600182019050919050565b7f4552433732313a2062616c616e636520717565727920666f7220746865207a6560008201527f726f206164647265737300000000000000000000000000000000000000000000602082015250565b6000614bf7602a83613cb6565b9150614c0282614b9b565b604082019050919050565b60006020820190508181036000830152614c2681614bea565b9050919050565b7f4f776e61626c653a2063616c6c6572206973206e6f7420746865206f776e6572600082015250565b6000614c63602083613cb6565b9150614c6e82614c2d565b602082019050919050565b60006020820190508181036000830152614c9281614c56565b9050919050565b7f4552433732314d657461646174613a2055524920717565727920666f72206e6f60008201527f6e2d6578697374656e7420746f6b656e00000000000000000000000000000000602082015250565b6000614cf5603083613cb6565b9150614d0082614c99565b604082019050919050565b60006020820190508181036000830152614d2481614ce8565b9050919050565b600067ffffffffffffffff821115614d4657614d45614262565b5b614d4f82613cfa565b9050602081019050919050565b6000614d6f614d6a84614d2b565b6142c2565b905082815260208101848484011115614d8b57614d8a61425d565b5b614d96848285613cc7565b509392505050565b600082601f830112614db357614db2614258565b5b8151614dc3848260208601614d5c565b91505092915050565b600060208284031215614de257614de1613be6565b5b600082015167ffffffffffffffff811115614e0057614dff613beb565b5b614e0c84828501614d9e565b91505092915050565b7f496e697469616c697a61626c653a20636f6e747261637420697320616c72656160008201527f647920696e697469616c697a6564000000000000000000000000000000000000602082015250565b6000614e71602e83613cb6565b9150614e7c82614e15565b604082019050919050565b60006020820190508181036000830152614ea081614e64565b9050919050565b7f4e487b7100000000000000000000000000000000000000000000000000000000600052601260045260246000fd5b6000614ee182613d66565b9150614eec83613d66565b925082614efc57614efb614ea7565b5b828204905092915050565b7f4f776e61626c653a206e6577206f776e657220697320746865207a65726f206160008201527f6464726573730000000000000000000000000000000000000000000000000000602082015250565b6000614f63602683613cb6565b9150614f6e82614f07565b604082019050919050565b60006020820190508181036000830152614f9281614f56565b9050919050565b6000614fa482613fd5565b9150614faf83613fd5565b92508260ff03821115614fc557614fc4614a03565b5b828201905092915050565b6000614fdb82613ec9565b91507fffffffffffffffffffffffffffffffffffffffffffffffffffffffffffffff8082141561500e5761500d614a03565b5b816000039050919050565b600061502482613fd5565b915061502f83613fd5565b92508282101561504257615041614a03565b5b828203905092915050565b7f4552433732313a206f70657261746f7220717565727920666f72206e6f6e657860008201527f697374656e7420746f6b656e0000000000000000000000000000000000000000602082015250565b60006150a9602c83613cb6565b91506150b48261504d565b604082019050919050565b600060208201905081810360008301526150d88161509c565b9050919050565b7f4552433732313a207472616e73666572206f6620746f6b656e2074686174206960008201527f73206e6f74206f776e0000000000000000000000000000000000000000000000602082015250565b600061513b602983613cb6565b9150615146826150df565b604082019050919050565b6000602082019050818103600083015261516a8161512e565b9050919050565b7f4552433732313a207472616e7366657220746f20746865207a65726f2061646460008201527f7265737300000000000000000000000000000000000000000000000000000000602082015250565b60006151cd602483613cb6565b91506151d882615171565b604082019050919050565b600060208201905081810360008301526151fc816151c0565b9050919050565b600061520e82613d66565b915061521983613d66565b92508282101561522c5761522b614a03565b5b828203905092915050565b600061524282613d66565b915061524d83613d66565b9250827fffffffffffffffffffffffffffffffffffffffffffffffffffffffffffffffff0382111561528257615281614a03565b5b828201905092915050565b60008160601b9050919050565b60006152a58261528d565b9050919050565b60006152b78261529a565b9050919050565b6152cf6152ca82613de9565b6152ac565b82525050565b6000819050919050565b6000819050919050565b6152fa6152f5826152d5565b6152df565b82525050565b6000819050919050565b61531b61531682613d66565b615300565b82525050565b600061532d82876152be565b60148201915061533d82866152e9565b60208201915061534d828561530a565b60208201915061535d828461530a565b60208201915081905095945050505050565b7f4552433732313a20617070726f766520746f2063616c6c657200000000000000600082015250565b60006153a5601983613cb6565b91506153b08261536f565b602082019050919050565b600060208201905081810360008301526153d481615398565b9050919050565b7f4552433732313a207472616e7366657220746f206e6f6e20455243373231526560008201527f63656976657220696d706c656d656e7465720000000000000000000000000000602082015250565b6000615437603283613cb6565b9150615442826153db565b604082019050919050565b600060208201905081810360008301526154668161542a565b9050919050565b7f496e697469616c697a61626c653a20636f6e7472616374206973206e6f74206960008201527f6e697469616c697a696e67000000000000000000000000000000000000000000602082015250565b60006154c9602b83613cb6565b91506154d48261546d565b604082019050919050565b600060208201905081810360008301526154f8816154bc565b9050919050565b600061550a82613d66565b915061551583613d66565b92508261552557615524614ea7565b5b828206905092915050565b60008160f81b9050919050565b600061554882615530565b9050919050565b600061555a8261553d565b9050919050565b61557261556d82613c75565b61554f565b82525050565b61558961558482613fd5565b61553d565b82525050565b600061559b828b615561565b6001820191506155ab828a615578565b6001820191506155bb8289615578565b6001820191506155cb8288615578565b6001820191506155db8287615578565b6001820191506155eb8286615578565b6001820191506155fb8285615578565b60018201915061560b8284615578565b6001820191508190509998505050505050505050565b600081519050919050565b6000819050602082019050919050565b600061564882516152d5565b80915050919050565b600082821b905092915050565b600061566982615621565b826156738461562c565b905061567e8161563c565b925060208210156156be576156b97fffffffffffffffffffffffffffffffffffffffffffffffffffffffffffffffff83602003600802615651565b831692505b5050919050565b600082825260208201905092915050565b60006156e182615621565b6156eb81856156c5565b93506156fb818560208601613cc7565b61570481613cfa565b840191505092915050565b60006080820190506157246000830187613dfb565b6157316020830186613dfb565b61573e604083018561400c565b818103606083015261575081846156d6565b905095945050505050565b60008151905061576a81613c1c565b92915050565b60006020828403121561578657615785613be6565b5b60006157948482850161575b565b91505092915050565b60006157a882613fd5565b91506157b383613fd5565b9250826157c3576157c2614ea7565b5b828206905092915050565b60006157d982613fd5565b91506157e483613fd5565b92508160ff04831182151516156157fe576157fd614a03565b5b828202905092915050565b7f4552433732313a206d696e7420746f20746865207a65726f2061646472657373600082015250565b600061583f602083613cb6565b915061584a82615809565b602082019050919050565b6000602082019050818103600083015261586e81615832565b9050919050565b7f4552433732313a20746f6b656e20616c7265616479206d696e74656400000000600082015250565b60006158ab601c83613cb6565b91506158b682615875565b602082019050919050565b600060208201905081810360008301526158da8161589e565b905091905056fea26469706673582212202d34a865f35aa8553d592d4185f680e07f2eb44d10a93376990f3547aeaf92ee64736f6c634300080a0033",
  "immutableReferences": {},
  "source": "// SPDX-License-Identifier: MIT\n\npragma solidity ^0.8.0;\n\nimport \"@openzeppelin/contracts-upgradeable/proxy/utils/Initializable.sol\";\nimport \"@openzeppelin/contracts-upgradeable/access/OwnableUpgradeable.sol\";\nimport \"@openzeppelin/contracts-upgradeable/security/PausableUpgradeable.sol\";\nimport \"@openzeppelin/contracts-upgradeable/token/ERC721/ERC721Upgradeable.sol\";\nimport \"./IChefRat.sol\";\nimport \"./ITraits.sol\";\n\ncontract ChefRatTest is IChefRat, Initializable, OwnableUpgradeable, PausableUpgradeable, ERC721Upgradeable {\n  uint16 public minted;\n  uint16 public numChefs;\n  uint16 public numRats;\n  uint256 public constant MINT_PRICE = .01 ether;\n  uint256 public MAX_TOKENS; // Max number of tokens that can be minted - 50000 in production\n  uint256 public PAID_TOKENS; // Number of tokens that can be claimed for free - 20% of MAX_TOKENS\n//  uint256 public constant CHEF = 0;\n//  uint256 public constant RAT = 1;\n\n  mapping(uint256 => ChefRatStruct) public tokenTraits; // Mapping from tokenId to a struct containing the token's traits\n  mapping(uint256 => uint256) public existingCombinations; // Mapping from hashed(tokenTrait) to the tokenId it's associated with, used to ensure there are no duplicates\n  mapping(address => bool) controllers; // a mapping from an address to whether or not it can mint / burn\n  uint8[][18] public rarities; // List of probabilities for each trait type, 0 - 9 are associated with Chefs, 10 - 18 are associated with Rats\n\n  ITraits public traits; // Reference to Traits\n\n  function initialize(address _traits, uint256 _maxTokens) external initializer {\n    __Ownable_init();\n    __Pausable_init();\n    __ERC721_init(\"RatAlert Chefs & Rats\", \"CHEFRAT\");\n\n    minted = 0;\n    numChefs = 0;\n    numRats = 0;\n    traits = ITraits(_traits);\n    MAX_TOKENS = _maxTokens;\n    PAID_TOKENS = _maxTokens / 5;\n\n    // Chefs\n    rarities[2] = [255, 223, 191, 159, 127, 95]; // hat\n    rarities[3] = [255, 223, 191, 159, 127, 95, 63, 31]; // eyes\n    rarities[4] = [255, 223, 191, 159, 127, 95]; // mouth\n    rarities[5] = [255, 207, 159, 111, 63, 15]; // neck\n    rarities[6] = [255, 223, 191, 159, 127, 95]; // hand\n    // Rats\n    rarities[12] = [255, 223, 191, 159, 127, 95]; // hat\n    rarities[13] = [255, 223, 191, 159, 127, 95, 63, 31]; // eyes\n    rarities[14] = [255, 223, 191, 159, 127, 95]; // piercing\n    rarities[15] = [255, 207, 159, 111, 63, 15]; // neck\n    rarities[16] = [255, 223, 191, 159, 127, 95]; // tail\n  }\n\n  /**\n   * Mints a new ERC721 token: 90% chefs, 10% rats\n   * The first 20% are free to claim, the remaining cost $FFOOD\n   * @param amount Number of tokens to mint\n   */\n  function mint(uint8 amount) external payable whenNotPaused {\n    require(amount > 0 && amount <= 10, \"Invalid mint amount\");\n    require(amount * MINT_PRICE == msg.value, \"Invalid payment amount\");\n\n    uint16[] memory tokenIds = new uint16[](amount);\n    uint256 seed;\n    ChefRatStruct memory s;\n    for (uint i = 0; i < amount; i++) {\n      minted++;\n      seed = random(minted);\n      s = generate(minted, seed);\n      _safeMint(_msgSender(), minted);\n      tokenIds[i] = minted;\n      s.isChef ? numChefs++ : numRats++;\n    }\n  }\n\n  /**\n   * Generates traits for a specific token, checking to make sure it's unique\n   * @param tokenId - The id of the token to generate traits for\n   * @param seed - A pseudorandom 256 bit number to derive traits from\n   * @return t - A struct of traits for the given token ID\n   */\n  function generate(uint256 tokenId, uint256 seed) internal returns (ChefRatStruct memory t) {\n    t = selectTraits(seed);\n    uint256 hash = structToHash(t);\n    if (existingCombinations[hash] == 0) {\n      tokenTraits[tokenId] = t;\n      existingCombinations[hash] = tokenId;\n      return t;\n    }\n    return generate(tokenId, random(seed));\n  }\n\n  /**\n   * Selects the species and all of its traits based on the seed value\n   * @param seed - A pseudorandom 256 bit number to derive traits from\n   * @return t -  A struct of randomly selected traits\n   */\n  function selectTraits(uint256 seed) internal view returns (ChefRatStruct memory t) {\n    t.isChef = (seed & 0xFFFF) % 10 != 0;\n    if (t.isChef) {\n      t.hat = selectTrait(seed, 2);\n      t.eyes = selectTrait(seed, 3);\n      t.mouth = selectTrait(seed, 4);\n      t.neck = selectTrait(seed, 5);\n      t.hand = selectTrait(seed, 6);\n    } else {\n      t.hat = selectTrait(seed, 12);\n      t.eyes = selectTrait(seed, 13);\n      t.piercing = selectTrait(seed, 14);\n      t.neck = selectTrait(seed, 15);\n      t.tail = selectTrait(seed, 16);\n    }\n    return t;\n  }\n\n  /**\n   * Uses A.J. Walker's Alias algorithm for O(1) rarity table lookup\n   * ensuring O(1) instead of O(n) reduces mint cost by more than 50%\n   * probability & alias tables are generated off-chain beforehand\n   * @param seed - Portion of the 256 bit seed to remove trait correlation\n   * @param traitIndex - The trait index to select a trait for\n   * @return The ID of the randomly selected trait\n   */\n  function selectTrait(uint256 seed, uint8 traitIndex) internal view returns (uint8) {\n    seed = seed >>= (traitIndex % 10 * 16);\n    uint8 trait = uint8(seed) % uint8(rarities[traitIndex].length); // Selected trait index\n    uint8 rand = uint8(seed & 0xFFFF >> 8); // Random integer from 0 to 255\n    if (rand <= rarities[traitIndex][trait]) return trait;\n    return 0;\n  }\n\n  /**\n   * Converts a struct to a 256 bit hash to check for uniqueness\n   * @param s - The struct to pack into a hash\n   * @return The 256 bit hash of the struct\n   */\n  function structToHash(ChefRatStruct memory s) internal pure returns (uint256) {\n    return uint256(bytes32(\n      abi.encodePacked(\n        s.isChef,\n        s.hat,\n        s.eyes,\n        s.piercing,\n        s.mouth,\n        s.neck,\n        s.hand,\n        s.tail\n      )\n    ));\n  }\n\n  function getUpdatedValue(uint8 old, int8 increment) internal pure returns(uint8) {\n    if (increment >= 0) {\n      return (uint8(increment) + old > 100) ? 100 : old + uint8(increment);\n    } else {\n      return (uint8(-increment) > old) ? 0 : old - uint8(-increment);\n    }\n  }\n\n  function updateInsanity(uint256 tokenId, int8 increment) public {\n    require(controllers[msg.sender], \"Only controllers can update\");\n    tokenTraits[tokenId].insanity = getUpdatedValue(tokenTraits[tokenId].insanity, increment);\n  }\n\n  function updateSkill(uint256 tokenId, int8 increment) public {\n    require(controllers[msg.sender], \"Only controllers can update\");\n    tokenTraits[tokenId].skill = getUpdatedValue(tokenTraits[tokenId].skill, increment);\n  }\n\n  function updateIntelligence(uint256 tokenId, int8 increment) public {\n    require(controllers[msg.sender], \"Only controllers can update\");\n    tokenTraits[tokenId].intelligence = getUpdatedValue(tokenTraits[tokenId].intelligence, increment);\n  }\n\n  function updateFatness(uint256 tokenId, int8 increment) public {\n    require(controllers[msg.sender], \"Only controllers can update\");\n    tokenTraits[tokenId].fatness = getUpdatedValue(tokenTraits[tokenId].fatness, increment);\n  }\n\n  function tokenURI(uint256 tokenId) public view override returns (string memory) {\n    require(_exists(tokenId), \"ERC721Metadata: URI query for non-existent token\");\n    return traits.tokenURI(tokenId);\n  }\n\n  function getTokenTraits(uint256 tokenId) external view override returns (ChefRatStruct memory) {\n    require(_exists(tokenId), \"ERC721Metadata: URI query for non-existent token\");\n    return tokenTraits[tokenId];\n  }\n\n  function getPaidTokens() external view override returns (uint256) {\n    return PAID_TOKENS;\n  }\n\n  /**\n   * Gets controller status by address\n   * @param controller the address to check\n   */\n  function getController(address controller) external view onlyOwner returns (bool) {\n    return controllers[controller];\n  }\n\n  /**\n   * Enables an address to mint / burn\n   * @param controller the address to enable\n   */\n  function addController(address controller) external onlyOwner {\n    controllers[controller] = true;\n  }\n\n  /**\n   * Disables an address from minting / burning\n   * @param controller the address to disable\n   */\n  function removeController(address controller) external onlyOwner {\n    controllers[controller] = false;\n  }\n\n  /**\n   * Generates a pseudorandom number\n   * @param seed A value ensure different outcomes for different sources in the same block\n   * @return A pseudorandom value\n   */\n  function random(uint256 seed) internal view returns (uint256) {\n    return uint256(keccak256(abi.encodePacked(\n      tx.origin,\n      blockhash(block.number - 1),\n      block.timestamp,\n      seed\n    )));\n  }\n}\n",
  "sourcePath": "/Users/chris/workspace/chainmatters/ratalert/contracts/ChefRatTest.sol",
  "compiler": {
    "name": "solc",
    "version": "0.8.10+commit.fc410830.Emscripten.clang"
  },
  "schemaVersion": "3.4.4",
  "updatedAt": "2022-01-04T17:31:28.219Z",
  "networkType": "ethereum",
  "devdoc": {
    "kind": "dev",
    "methods": {
      "addController(address)": {
        "params": {
          "controller": "the address to enable"
        }
      },
      "approve(address,uint256)": {
        "details": "See {IERC721-approve}."
      },
      "balanceOf(address)": {
        "details": "See {IERC721-balanceOf}."
      },
      "getApproved(uint256)": {
        "details": "See {IERC721-getApproved}."
      },
      "getController(address)": {
        "params": {
          "controller": "the address to check"
        }
      },
      "isApprovedForAll(address,address)": {
        "details": "See {IERC721-isApprovedForAll}."
      },
      "mint(uint8)": {
        "params": {
          "amount": "Number of tokens to mint"
        }
      },
      "name()": {
        "details": "See {IERC721Metadata-name}."
      },
      "owner()": {
        "details": "Returns the address of the current owner."
      },
      "ownerOf(uint256)": {
        "details": "See {IERC721-ownerOf}."
      },
      "paused()": {
        "details": "Returns true if the contract is paused, and false otherwise."
      },
      "removeController(address)": {
        "params": {
          "controller": "the address to disable"
        }
      },
      "renounceOwnership()": {
        "details": "Leaves the contract without owner. It will not be possible to call `onlyOwner` functions anymore. Can only be called by the current owner. NOTE: Renouncing ownership will leave the contract without an owner, thereby removing any functionality that is only available to the owner."
      },
      "safeTransferFrom(address,address,uint256)": {
        "details": "See {IERC721-safeTransferFrom}."
      },
      "safeTransferFrom(address,address,uint256,bytes)": {
        "details": "See {IERC721-safeTransferFrom}."
      },
      "setApprovalForAll(address,bool)": {
        "details": "See {IERC721-setApprovalForAll}."
      },
      "supportsInterface(bytes4)": {
        "details": "See {IERC165-supportsInterface}."
      },
      "symbol()": {
        "details": "See {IERC721Metadata-symbol}."
      },
      "tokenURI(uint256)": {
        "details": "See {IERC721Metadata-tokenURI}."
      },
      "transferFrom(address,address,uint256)": {
        "details": "See {IERC721-transferFrom}."
      },
      "transferOwnership(address)": {
        "details": "Transfers ownership of the contract to a new account (`newOwner`). Can only be called by the current owner."
      }
    },
    "version": 1
  },
  "userdoc": {
    "kind": "user",
    "methods": {
      "addController(address)": {
        "notice": "Enables an address to mint / burn"
      },
      "getController(address)": {
        "notice": "Gets controller status by address"
      },
      "mint(uint8)": {
        "notice": "Mints a new ERC721 token: 90% chefs, 10% rats The first 20% are free to claim, the remaining cost $FFOOD"
      },
      "removeController(address)": {
        "notice": "Disables an address from minting / burning"
      }
    },
    "version": 1
  }
}