{
  "contractName": "ChefRat",
  "abi": [
    {
      "anonymous": false,
      "inputs": [
        {
          "indexed": true,
          "internalType": "address",
          "name": "owner",
          "type": "address"
        },
        {
          "indexed": true,
          "internalType": "address",
          "name": "approved",
          "type": "address"
        },
        {
          "indexed": true,
          "internalType": "uint256",
          "name": "tokenId",
          "type": "uint256"
        }
      ],
      "name": "Approval",
      "type": "event"
    },
    {
      "anonymous": false,
      "inputs": [
        {
          "indexed": true,
          "internalType": "address",
          "name": "owner",
          "type": "address"
        },
        {
          "indexed": true,
          "internalType": "address",
          "name": "operator",
          "type": "address"
        },
        {
          "indexed": false,
          "internalType": "bool",
          "name": "approved",
          "type": "bool"
        }
      ],
      "name": "ApprovalForAll",
      "type": "event"
    },
    {
      "anonymous": false,
      "inputs": [
        {
          "indexed": true,
          "internalType": "address",
          "name": "previousOwner",
          "type": "address"
        },
        {
          "indexed": true,
          "internalType": "address",
          "name": "newOwner",
          "type": "address"
        }
      ],
      "name": "OwnershipTransferred",
      "type": "event"
    },
    {
      "anonymous": false,
      "inputs": [
        {
          "indexed": false,
          "internalType": "address",
          "name": "account",
          "type": "address"
        }
      ],
      "name": "Paused",
      "type": "event"
    },
    {
      "anonymous": false,
      "inputs": [
        {
          "indexed": true,
          "internalType": "address",
          "name": "from",
          "type": "address"
        },
        {
          "indexed": true,
          "internalType": "address",
          "name": "to",
          "type": "address"
        },
        {
          "indexed": true,
          "internalType": "uint256",
          "name": "tokenId",
          "type": "uint256"
        }
      ],
      "name": "Transfer",
      "type": "event"
    },
    {
      "anonymous": false,
      "inputs": [
        {
          "indexed": false,
          "internalType": "address",
          "name": "account",
          "type": "address"
        }
      ],
      "name": "Unpaused",
      "type": "event"
    },
    {
      "inputs": [],
      "name": "MAX_TOKENS",
      "outputs": [
        {
          "internalType": "uint256",
          "name": "",
          "type": "uint256"
        }
      ],
      "stateMutability": "view",
      "type": "function"
    },
    {
      "inputs": [],
      "name": "MINT_PRICE",
      "outputs": [
        {
          "internalType": "uint256",
          "name": "",
          "type": "uint256"
        }
      ],
      "stateMutability": "view",
      "type": "function"
    },
    {
      "inputs": [],
      "name": "PAID_TOKENS",
      "outputs": [
        {
          "internalType": "uint256",
          "name": "",
          "type": "uint256"
        }
      ],
      "stateMutability": "view",
      "type": "function"
    },
    {
      "inputs": [
        {
          "internalType": "address",
          "name": "to",
          "type": "address"
        },
        {
          "internalType": "uint256",
          "name": "tokenId",
          "type": "uint256"
        }
      ],
      "name": "approve",
      "outputs": [],
      "stateMutability": "nonpayable",
      "type": "function"
    },
    {
      "inputs": [
        {
          "internalType": "address",
          "name": "owner",
          "type": "address"
        }
      ],
      "name": "balanceOf",
      "outputs": [
        {
          "internalType": "uint256",
          "name": "",
          "type": "uint256"
        }
      ],
      "stateMutability": "view",
      "type": "function"
    },
    {
      "inputs": [
        {
          "internalType": "uint256",
          "name": "",
          "type": "uint256"
        }
      ],
      "name": "existingCombinations",
      "outputs": [
        {
          "internalType": "uint256",
          "name": "",
          "type": "uint256"
        }
      ],
      "stateMutability": "view",
      "type": "function"
    },
    {
      "inputs": [
        {
          "internalType": "uint256",
          "name": "tokenId",
          "type": "uint256"
        }
      ],
      "name": "getApproved",
      "outputs": [
        {
          "internalType": "address",
          "name": "",
          "type": "address"
        }
      ],
      "stateMutability": "view",
      "type": "function"
    },
    {
      "inputs": [
        {
          "internalType": "address",
          "name": "owner",
          "type": "address"
        },
        {
          "internalType": "address",
          "name": "operator",
          "type": "address"
        }
      ],
      "name": "isApprovedForAll",
      "outputs": [
        {
          "internalType": "bool",
          "name": "",
          "type": "bool"
        }
      ],
      "stateMutability": "view",
      "type": "function"
    },
    {
      "inputs": [],
      "name": "minted",
      "outputs": [
        {
          "internalType": "uint16",
          "name": "",
          "type": "uint16"
        }
      ],
      "stateMutability": "view",
      "type": "function"
    },
    {
      "inputs": [],
      "name": "name",
      "outputs": [
        {
          "internalType": "string",
          "name": "",
          "type": "string"
        }
      ],
      "stateMutability": "view",
      "type": "function"
    },
    {
      "inputs": [],
      "name": "numChefs",
      "outputs": [
        {
          "internalType": "uint16",
          "name": "",
          "type": "uint16"
        }
      ],
      "stateMutability": "view",
      "type": "function"
    },
    {
      "inputs": [],
      "name": "numRats",
      "outputs": [
        {
          "internalType": "uint16",
          "name": "",
          "type": "uint16"
        }
      ],
      "stateMutability": "view",
      "type": "function"
    },
    {
      "inputs": [],
      "name": "owner",
      "outputs": [
        {
          "internalType": "address",
          "name": "",
          "type": "address"
        }
      ],
      "stateMutability": "view",
      "type": "function"
    },
    {
      "inputs": [
        {
          "internalType": "uint256",
          "name": "tokenId",
          "type": "uint256"
        }
      ],
      "name": "ownerOf",
      "outputs": [
        {
          "internalType": "address",
          "name": "",
          "type": "address"
        }
      ],
      "stateMutability": "view",
      "type": "function"
    },
    {
      "inputs": [],
      "name": "paused",
      "outputs": [
        {
          "internalType": "bool",
          "name": "",
          "type": "bool"
        }
      ],
      "stateMutability": "view",
      "type": "function"
    },
    {
      "inputs": [
        {
          "internalType": "uint256",
          "name": "",
          "type": "uint256"
        },
        {
          "internalType": "uint256",
          "name": "",
          "type": "uint256"
        }
      ],
      "name": "rarities",
      "outputs": [
        {
          "internalType": "uint8",
          "name": "",
          "type": "uint8"
        }
      ],
      "stateMutability": "view",
      "type": "function"
    },
    {
      "inputs": [],
      "name": "renounceOwnership",
      "outputs": [],
      "stateMutability": "nonpayable",
      "type": "function"
    },
    {
      "inputs": [
        {
          "internalType": "address",
          "name": "from",
          "type": "address"
        },
        {
          "internalType": "address",
          "name": "to",
          "type": "address"
        },
        {
          "internalType": "uint256",
          "name": "tokenId",
          "type": "uint256"
        }
      ],
      "name": "safeTransferFrom",
      "outputs": [],
      "stateMutability": "nonpayable",
      "type": "function"
    },
    {
      "inputs": [
        {
          "internalType": "address",
          "name": "from",
          "type": "address"
        },
        {
          "internalType": "address",
          "name": "to",
          "type": "address"
        },
        {
          "internalType": "uint256",
          "name": "tokenId",
          "type": "uint256"
        },
        {
          "internalType": "bytes",
          "name": "_data",
          "type": "bytes"
        }
      ],
      "name": "safeTransferFrom",
      "outputs": [],
      "stateMutability": "nonpayable",
      "type": "function"
    },
    {
      "inputs": [
        {
          "internalType": "address",
          "name": "operator",
          "type": "address"
        },
        {
          "internalType": "bool",
          "name": "approved",
          "type": "bool"
        }
      ],
      "name": "setApprovalForAll",
      "outputs": [],
      "stateMutability": "nonpayable",
      "type": "function"
    },
    {
      "inputs": [
        {
          "internalType": "bytes4",
          "name": "interfaceId",
          "type": "bytes4"
        }
      ],
      "name": "supportsInterface",
      "outputs": [
        {
          "internalType": "bool",
          "name": "",
          "type": "bool"
        }
      ],
      "stateMutability": "view",
      "type": "function"
    },
    {
      "inputs": [],
      "name": "symbol",
      "outputs": [
        {
          "internalType": "string",
          "name": "",
          "type": "string"
        }
      ],
      "stateMutability": "view",
      "type": "function"
    },
    {
      "inputs": [
        {
          "internalType": "uint256",
          "name": "",
          "type": "uint256"
        }
      ],
      "name": "tokenTraits",
      "outputs": [
        {
          "internalType": "bool",
          "name": "isChef",
          "type": "bool"
        },
        {
          "internalType": "uint8",
          "name": "hat",
          "type": "uint8"
        },
        {
          "internalType": "uint8",
          "name": "eyes",
          "type": "uint8"
        },
        {
          "internalType": "uint8",
          "name": "piercing",
          "type": "uint8"
        },
        {
          "internalType": "uint8",
          "name": "mouth",
          "type": "uint8"
        },
        {
          "internalType": "uint8",
          "name": "neck",
          "type": "uint8"
        },
        {
          "internalType": "uint8",
          "name": "hand",
          "type": "uint8"
        },
        {
          "internalType": "uint8",
          "name": "tail",
          "type": "uint8"
        },
        {
          "internalType": "uint8",
          "name": "insanity",
          "type": "uint8"
        },
        {
          "internalType": "uint8",
          "name": "skill",
          "type": "uint8"
        },
        {
          "internalType": "uint8",
          "name": "intelligence",
          "type": "uint8"
        },
        {
          "internalType": "uint8",
          "name": "fatness",
          "type": "uint8"
        }
      ],
      "stateMutability": "view",
      "type": "function"
    },
    {
      "inputs": [],
      "name": "traits",
      "outputs": [
        {
          "internalType": "contract ITraits",
          "name": "",
          "type": "address"
        }
      ],
      "stateMutability": "view",
      "type": "function"
    },
    {
      "inputs": [
        {
          "internalType": "address",
          "name": "from",
          "type": "address"
        },
        {
          "internalType": "address",
          "name": "to",
          "type": "address"
        },
        {
          "internalType": "uint256",
          "name": "tokenId",
          "type": "uint256"
        }
      ],
      "name": "transferFrom",
      "outputs": [],
      "stateMutability": "nonpayable",
      "type": "function"
    },
    {
      "inputs": [
        {
          "internalType": "address",
          "name": "newOwner",
          "type": "address"
        }
      ],
      "name": "transferOwnership",
      "outputs": [],
      "stateMutability": "nonpayable",
      "type": "function"
    },
    {
      "inputs": [
        {
          "internalType": "address",
          "name": "_traits",
          "type": "address"
        },
        {
          "internalType": "uint256",
          "name": "_maxTokens",
          "type": "uint256"
        }
      ],
      "name": "initialize",
      "outputs": [],
      "stateMutability": "nonpayable",
      "type": "function"
    },
    {
      "inputs": [
        {
          "internalType": "uint8",
          "name": "amount",
          "type": "uint8"
        }
      ],
      "name": "mint",
      "outputs": [],
      "stateMutability": "payable",
      "type": "function"
    },
    {
      "inputs": [
        {
          "internalType": "uint256",
          "name": "tokenId",
          "type": "uint256"
        },
        {
          "internalType": "int8",
          "name": "increment",
          "type": "int8"
        }
      ],
      "name": "updateInsanity",
      "outputs": [],
      "stateMutability": "nonpayable",
      "type": "function"
    },
    {
      "inputs": [
        {
          "internalType": "uint256",
          "name": "tokenId",
          "type": "uint256"
        },
        {
          "internalType": "int8",
          "name": "increment",
          "type": "int8"
        }
      ],
      "name": "updateSkill",
      "outputs": [],
      "stateMutability": "nonpayable",
      "type": "function"
    },
    {
      "inputs": [
        {
          "internalType": "uint256",
          "name": "tokenId",
          "type": "uint256"
        },
        {
          "internalType": "int8",
          "name": "increment",
          "type": "int8"
        }
      ],
      "name": "updateIntelligence",
      "outputs": [],
      "stateMutability": "nonpayable",
      "type": "function"
    },
    {
      "inputs": [
        {
          "internalType": "uint256",
          "name": "tokenId",
          "type": "uint256"
        },
        {
          "internalType": "int8",
          "name": "increment",
          "type": "int8"
        }
      ],
      "name": "updateFatness",
      "outputs": [],
      "stateMutability": "nonpayable",
      "type": "function"
    },
    {
      "inputs": [
        {
          "internalType": "uint256",
          "name": "tokenId",
          "type": "uint256"
        }
      ],
      "name": "tokenURI",
      "outputs": [
        {
          "internalType": "string",
          "name": "",
          "type": "string"
        }
      ],
      "stateMutability": "view",
      "type": "function"
    },
    {
      "inputs": [
        {
          "internalType": "uint256",
          "name": "tokenId",
          "type": "uint256"
        }
      ],
      "name": "getTokenTraits",
      "outputs": [
        {
          "components": [
            {
              "internalType": "bool",
              "name": "isChef",
              "type": "bool"
            },
            {
              "internalType": "uint8",
              "name": "hat",
              "type": "uint8"
            },
            {
              "internalType": "uint8",
              "name": "eyes",
              "type": "uint8"
            },
            {
              "internalType": "uint8",
              "name": "piercing",
              "type": "uint8"
            },
            {
              "internalType": "uint8",
              "name": "mouth",
              "type": "uint8"
            },
            {
              "internalType": "uint8",
              "name": "neck",
              "type": "uint8"
            },
            {
              "internalType": "uint8",
              "name": "hand",
              "type": "uint8"
            },
            {
              "internalType": "uint8",
              "name": "tail",
              "type": "uint8"
            },
            {
              "internalType": "uint8",
              "name": "insanity",
              "type": "uint8"
            },
            {
              "internalType": "uint8",
              "name": "skill",
              "type": "uint8"
            },
            {
              "internalType": "uint8",
              "name": "intelligence",
              "type": "uint8"
            },
            {
              "internalType": "uint8",
              "name": "fatness",
              "type": "uint8"
            }
          ],
          "internalType": "struct IChefRat.ChefRatStruct",
          "name": "",
          "type": "tuple"
        }
      ],
      "stateMutability": "view",
      "type": "function"
    },
    {
      "inputs": [],
      "name": "getPaidTokens",
      "outputs": [
        {
          "internalType": "uint256",
          "name": "",
          "type": "uint256"
        }
      ],
      "stateMutability": "view",
      "type": "function"
    },
    {
      "inputs": [
        {
          "internalType": "address",
          "name": "controller",
          "type": "address"
        }
      ],
      "name": "getController",
      "outputs": [
        {
          "internalType": "bool",
          "name": "",
          "type": "bool"
        }
      ],
      "stateMutability": "view",
      "type": "function"
    },
    {
      "inputs": [
        {
          "internalType": "address",
          "name": "controller",
          "type": "address"
        }
      ],
      "name": "addController",
      "outputs": [],
      "stateMutability": "nonpayable",
      "type": "function"
    },
    {
      "inputs": [
        {
          "internalType": "address",
          "name": "controller",
          "type": "address"
        }
      ],
      "name": "removeController",
      "outputs": [],
      "stateMutability": "nonpayable",
      "type": "function"
    }
  ],
  "bytecode": "0x608060405234801561001057600080fd5b506158bf80620000216000396000f3fe6080604052600436106102255760003560e01c80638da5cb5b11610123578063c084f540116100ab578063e1fc334f1161006f578063e1fc334f1461083b578063e985e9c514610866578063f2fde38b146108a3578063f47c84c5146108cc578063f6a74ed7146108f757610225565b8063c084f54014610737578063c87b56dd14610762578063cd6dc6871461079f578063d39f8a4d146107c8578063e05c57bf146107f357610225565b8063a1b8f374116100f2578063a1b8f37414610654578063a22cb46514610691578063a7fc7a07146106ba578063b88d4fde146106e3578063c002d23d1461070c57610225565b80638da5cb5b1461059857806394e56847146105c357806395d89b4114610600578063974d653c1461062b57610225565b806342842e0e116101b15780636352211e116101755780636352211e146104ae5780636ecd2306146104eb57806370a0823114610507578063715018a61461054457806388c662aa1461055b57610225565b806342842e0e146103dd57806342a05def1461040657806348fc749a1461042f5780634f02c420146104585780635c975abb1461048357610225565b8063095ea7b3116101f8578063095ea7b3146102fa57806310dd5d441461032357806323b872dd1461034c57806333df4b2c146103755780634018b1f8146103b257610225565b806301ffc9a71461022a57806306fdde0314610267578063081812fc146102925780630917e40d146102cf575b600080fd5b34801561023657600080fd5b50610251600480360381019061024c9190613bf0565b610920565b60405161025e9190613c38565b60405180910390f35b34801561027357600080fd5b5061027c610a02565b6040516102899190613cec565b60405180910390f35b34801561029e57600080fd5b506102b960048036038101906102b49190613d44565b610a94565b6040516102c69190613db2565b60405180910390f35b3480156102db57600080fd5b506102e4610b19565b6040516102f19190613dea565b60405180910390f35b34801561030657600080fd5b50610321600480360381019061031c9190613e31565b610b2d565b005b34801561032f57600080fd5b5061034a60048036038101906103459190613eaa565b610c45565b005b34801561035857600080fd5b50610373600480360381019061036e9190613eea565b610d31565b005b34801561038157600080fd5b5061039c60048036038101906103979190613f3d565b610d91565b6040516103a99190613f99565b60405180910390f35b3480156103be57600080fd5b506103c7610dd8565b6040516103d49190613fc3565b60405180910390f35b3480156103e957600080fd5b5061040460048036038101906103ff9190613eea565b610de2565b005b34801561041257600080fd5b5061042d60048036038101906104289190613eaa565b610e02565b005b34801561043b57600080fd5b5061045660048036038101906104519190613eaa565b610eee565b005b34801561046457600080fd5b5061046d610fda565b60405161047a9190613dea565b60405180910390f35b34801561048f57600080fd5b50610498610fee565b6040516104a59190613c38565b60405180910390f35b3480156104ba57600080fd5b506104d560048036038101906104d09190613d44565b611005565b6040516104e29190613db2565b60405180910390f35b6105056004803603810190610500919061400a565b6110b7565b005b34801561051357600080fd5b5061052e60048036038101906105299190614037565b61138c565b60405161053b9190613fc3565b60405180910390f35b34801561055057600080fd5b50610559611444565b005b34801561056757600080fd5b50610582600480360381019061057d9190614037565b6114cc565b60405161058f9190613c38565b60405180910390f35b3480156105a457600080fd5b506105ad61159f565b6040516105ba9190613db2565b60405180910390f35b3480156105cf57600080fd5b506105ea60048036038101906105e59190613d44565b6115c9565b6040516105f79190614178565b60405180910390f35b34801561060c57600080fd5b50610615611799565b6040516106229190613cec565b60405180910390f35b34801561063757600080fd5b50610652600480360381019061064d9190613eaa565b61182b565b005b34801561066057600080fd5b5061067b60048036038101906106769190613d44565b611917565b6040516106889190613fc3565b60405180910390f35b34801561069d57600080fd5b506106b860048036038101906106b391906141c0565b61192f565b005b3480156106c657600080fd5b506106e160048036038101906106dc9190614037565b611945565b005b3480156106ef57600080fd5b5061070a60048036038101906107059190614335565b611a1d565b005b34801561071857600080fd5b50610721611a7f565b60405161072e9190613fc3565b60405180910390f35b34801561074357600080fd5b5061074c611a8b565b6040516107599190613fc3565b60405180910390f35b34801561076e57600080fd5b5061078960048036038101906107849190613d44565b611a91565b6040516107969190613cec565b60405180910390f35b3480156107ab57600080fd5b506107c660048036038101906107c19190613e31565b611b84565b005b3480156107d457600080fd5b506107dd61218c565b6040516107ea9190613dea565b60405180910390f35b3480156107ff57600080fd5b5061081a60048036038101906108159190613d44565b6121a0565b6040516108329c9b9a999897969594939291906143b8565b60405180910390f35b34801561084757600080fd5b5061085061229c565b60405161085d91906144d1565b60405180910390f35b34801561087257600080fd5b5061088d600480360381019061088891906144ec565b6122c3565b60405161089a9190613c38565b60405180910390f35b3480156108af57600080fd5b506108ca60048036038101906108c59190614037565b612357565b005b3480156108d857600080fd5b506108e161244f565b6040516108ee9190613fc3565b60405180910390f35b34801561090357600080fd5b5061091e60048036038101906109199190614037565b612455565b005b60007f80ac58cd000000000000000000000000000000000000000000000000000000007bffffffffffffffffffffffffffffffffffffffffffffffffffffffff1916827bffffffffffffffffffffffffffffffffffffffffffffffffffffffff191614806109eb57507f5b5e139f000000000000000000000000000000000000000000000000000000007bffffffffffffffffffffffffffffffffffffffffffffffffffffffff1916827bffffffffffffffffffffffffffffffffffffffffffffffffffffffff1916145b806109fb57506109fa8261252d565b5b9050919050565b606060c98054610a119061455b565b80601f0160208091040260200160405190810160405280929190818152602001828054610a3d9061455b565b8015610a8a5780601f10610a5f57610100808354040283529160200191610a8a565b820191906000526020600020905b815481529060010190602001808311610a6d57829003601f168201915b5050505050905090565b6000610a9f82612597565b610ade576040517f08c379a0000000000000000000000000000000000000000000000000000000008152600401610ad5906145ff565b60405180910390fd5b60cd600083815260200190815260200160002060009054906101000a900473ffffffffffffffffffffffffffffffffffffffff169050919050565b60fb60049054906101000a900461ffff1681565b6000610b3882611005565b90508073ffffffffffffffffffffffffffffffffffffffff168373ffffffffffffffffffffffffffffffffffffffff161415610ba9576040517f08c379a0000000000000000000000000000000000000000000000000000000008152600401610ba090614691565b60405180910390fd5b8073ffffffffffffffffffffffffffffffffffffffff16610bc8612603565b73ffffffffffffffffffffffffffffffffffffffff161480610bf75750610bf681610bf1612603565b6122c3565b5b610c36576040517f08c379a0000000000000000000000000000000000000000000000000000000008152600401610c2d90614723565b60405180910390fd5b610c40838361260b565b505050565b61010060003373ffffffffffffffffffffffffffffffffffffffff1673ffffffffffffffffffffffffffffffffffffffff16815260200190815260200160002060009054906101000a900460ff16610cd2576040517f08c379a0000000000000000000000000000000000000000000000000000000008152600401610cc99061478f565b60405180910390fd5b610cff60fe600084815260200190815260200160002060000160099054906101000a900460ff16826126c4565b60fe600084815260200190815260200160002060000160096101000a81548160ff021916908360ff1602179055505050565b610d42610d3c612603565b8261273d565b610d81576040517f08c379a0000000000000000000000000000000000000000000000000000000008152600401610d7890614821565b60405180910390fd5b610d8c83838361281b565b505050565b6101018260128110610da257600080fd5b018181548110610db157600080fd5b9060005260206000209060209182820401919006915091509054906101000a900460ff1681565b600060fd54905090565b610dfd83838360405180602001604052806000815250611a1d565b505050565b61010060003373ffffffffffffffffffffffffffffffffffffffff1673ffffffffffffffffffffffffffffffffffffffff16815260200190815260200160002060009054906101000a900460ff16610e8f576040517f08c379a0000000000000000000000000000000000000000000000000000000008152600401610e869061478f565b60405180910390fd5b610ebc60fe600084815260200190815260200160002060000160089054906101000a900460ff16826126c4565b60fe600084815260200190815260200160002060000160086101000a81548160ff021916908360ff1602179055505050565b61010060003373ffffffffffffffffffffffffffffffffffffffff1673ffffffffffffffffffffffffffffffffffffffff16815260200190815260200160002060009054906101000a900460ff16610f7b576040517f08c379a0000000000000000000000000000000000000000000000000000000008152600401610f729061478f565b60405180910390fd5b610fa860fe6000848152602001908152602001600020600001600b9054906101000a900460ff16826126c4565b60fe6000848152602001908152602001600020600001600b6101000a81548160ff021916908360ff1602179055505050565b60fb60009054906101000a900461ffff1681565b6000606560009054906101000a900460ff16905090565b60008060cb600084815260200190815260200160002060009054906101000a900473ffffffffffffffffffffffffffffffffffffffff169050600073ffffffffffffffffffffffffffffffffffffffff168173ffffffffffffffffffffffffffffffffffffffff1614156110ae576040517f08c379a00000000000000000000000000000000000000000000000000000000081526004016110a5906148b3565b60405180910390fd5b80915050919050565b6110bf610fee565b156110ff576040517f08c379a00000000000000000000000000000000000000000000000000000000081526004016110f69061491f565b60405180910390fd5b60008160ff161180156111165750600a8160ff1611155b611155576040517f08c379a000000000000000000000000000000000000000000000000000000000815260040161114c9061498b565b60405180910390fd5b3467016345785d8a00008260ff1661116d91906149da565b146111ad576040517f08c379a00000000000000000000000000000000000000000000000000000000081526004016111a490614a80565b60405180910390fd5b60008160ff1667ffffffffffffffff8111156111cc576111cb61420a565b5b6040519080825280602002602001820160405280156111fa5781602001602082028036833780820191505090505b509050600061120761390f565b60005b8460ff168110156113855760fb600081819054906101000a900461ffff168092919061123590614aa0565b91906101000a81548161ffff021916908361ffff1602179055505061126d60fb60009054906101000a900461ffff1661ffff16612a77565b925061128d60fb60009054906101000a900461ffff1661ffff1684612abd565b91506112b461129a612603565b60fb60009054906101000a900461ffff1661ffff16612cd9565b60fb60009054906101000a900461ffff168482815181106112d8576112d7614acb565b5b602002602001019061ffff16908161ffff168152505081600001516113365760fb600481819054906101000a900461ffff168092919061131790614aa0565b91906101000a81548161ffff021916908361ffff160217905550611371565b60fb600281819054906101000a900461ffff168092919061135690614aa0565b91906101000a81548161ffff021916908361ffff1602179055505b50808061137d90614afa565b91505061120a565b5050505050565b60008073ffffffffffffffffffffffffffffffffffffffff168273ffffffffffffffffffffffffffffffffffffffff1614156113fd576040517f08c379a00000000000000000000000000000000000000000000000000000000081526004016113f490614bb5565b60405180910390fd5b60cc60008373ffffffffffffffffffffffffffffffffffffffff1673ffffffffffffffffffffffffffffffffffffffff168152602001908152602001600020549050919050565b61144c612603565b73ffffffffffffffffffffffffffffffffffffffff1661146a61159f565b73ffffffffffffffffffffffffffffffffffffffff16146114c0576040517f08c379a00000000000000000000000000000000000000000000000000000000081526004016114b790614c21565b60405180910390fd5b6114ca6000612cf7565b565b60006114d6612603565b73ffffffffffffffffffffffffffffffffffffffff166114f461159f565b73ffffffffffffffffffffffffffffffffffffffff161461154a576040517f08c379a000000000000000000000000000000000000000000000000000000000815260040161154190614c21565b60405180910390fd5b61010060008373ffffffffffffffffffffffffffffffffffffffff1673ffffffffffffffffffffffffffffffffffffffff16815260200190815260200160002060009054906101000a900460ff169050919050565b6000603360009054906101000a900473ffffffffffffffffffffffffffffffffffffffff16905090565b6115d161390f565b6115da82612597565b611619576040517f08c379a000000000000000000000000000000000000000000000000000000000815260040161161090614cb3565b60405180910390fd5b60fe6000838152602001908152602001600020604051806101800160405290816000820160009054906101000a900460ff161515151581526020016000820160019054906101000a900460ff1660ff1660ff1681526020016000820160029054906101000a900460ff1660ff1660ff1681526020016000820160039054906101000a900460ff1660ff1660ff1681526020016000820160049054906101000a900460ff1660ff1660ff1681526020016000820160059054906101000a900460ff1660ff1660ff1681526020016000820160069054906101000a900460ff1660ff1660ff1681526020016000820160079054906101000a900460ff1660ff1660ff1681526020016000820160089054906101000a900460ff1660ff1660ff1681526020016000820160099054906101000a900460ff1660ff1660ff16815260200160008201600a9054906101000a900460ff1660ff1660ff16815260200160008201600b9054906101000a900460ff1660ff1660ff16815250509050919050565b606060ca80546117a89061455b565b80601f01602080910402602001604051908101604052809291908181526020018280546117d49061455b565b80156118215780601f106117f657610100808354040283529160200191611821565b820191906000526020600020905b81548152906001019060200180831161180457829003601f168201915b5050505050905090565b61010060003373ffffffffffffffffffffffffffffffffffffffff1673ffffffffffffffffffffffffffffffffffffffff16815260200190815260200160002060009054906101000a900460ff166118b8576040517f08c379a00000000000000000000000000000000000000000000000000000000081526004016118af9061478f565b60405180910390fd5b6118e560fe6000848152602001908152602001600020600001600a9054906101000a900460ff16826126c4565b60fe6000848152602001908152602001600020600001600a6101000a81548160ff021916908360ff1602179055505050565b60ff6020528060005260406000206000915090505481565b61194161193a612603565b8383612dbd565b5050565b61194d612603565b73ffffffffffffffffffffffffffffffffffffffff1661196b61159f565b73ffffffffffffffffffffffffffffffffffffffff16146119c1576040517f08c379a00000000000000000000000000000000000000000000000000000000081526004016119b890614c21565b60405180910390fd5b600161010060008373ffffffffffffffffffffffffffffffffffffffff1673ffffffffffffffffffffffffffffffffffffffff16815260200190815260200160002060006101000a81548160ff02191690831515021790555050565b611a2e611a28612603565b8361273d565b611a6d576040517f08c379a0000000000000000000000000000000000000000000000000000000008152600401611a6490614821565b60405180910390fd5b611a7984848484612f2a565b50505050565b67016345785d8a000081565b60fd5481565b6060611a9c82612597565b611adb576040517f08c379a0000000000000000000000000000000000000000000000000000000008152600401611ad290614cb3565b60405180910390fd5b61011360009054906101000a900473ffffffffffffffffffffffffffffffffffffffff1673ffffffffffffffffffffffffffffffffffffffff1663c87b56dd836040518263ffffffff1660e01b8152600401611b379190613fc3565b600060405180830381865afa158015611b54573d6000803e3d6000fd5b505050506040513d6000823e3d601f19601f82011682018060405250810190611b7d9190614d74565b9050919050565b600060019054906101000a900460ff16611bac5760008054906101000a900460ff1615611bb5565b611bb4612f86565b5b611bf4576040517f08c379a0000000000000000000000000000000000000000000000000000000008152600401611beb90614e2f565b60405180910390fd5b60008060019054906101000a900460ff161590508015611c44576001600060016101000a81548160ff02191690831515021790555060016000806101000a81548160ff0219169083151502179055505b611c4c612f97565b611c54612ff8565b611cc86040518060400160405280601581526020017f526174416c6572742043686566732026205261747300000000000000000000008152506040518060400160405280600781526020017f4348454652415400000000000000000000000000000000000000000000000000815250613059565b600060fb60006101000a81548161ffff021916908361ffff160217905550600060fb60026101000a81548161ffff021916908361ffff160217905550600060fb60046101000a81548161ffff021916908361ffff1602179055508261011360006101000a81548173ffffffffffffffffffffffffffffffffffffffff021916908373ffffffffffffffffffffffffffffffffffffffff1602179055508160fc81905550600582611d789190614e7e565b60fd819055506040518060a0016040528060ff8016815260200160df60ff16815260200160bf60ff168152602001609f60ff168152602001607f60ff16815250610101600260128110611dce57611dcd614acb565b5b01906005611ddd929190613993565b506040518060e0016040528060ff8016815260200160df60ff16815260200160bf60ff168152602001609f60ff168152602001607f60ff168152602001605f60ff168152602001603f60ff16815250610101600360128110611e4257611e41614acb565b5b01906007611e51929190613a3a565b506040518060a0016040528060ff8016815260200160df60ff16815260200160bf60ff168152602001609f60ff168152602001607f60ff16815250610101600460128110611ea257611ea1614acb565b5b01906005611eb1929190613993565b506040518060a0016040528060ff8016815260200160cf60ff168152602001609f60ff168152602001606f60ff168152602001603f60ff16815250610101600560128110611f0257611f01614acb565b5b01906005611f11929190613993565b506040518060a0016040528060ff8016815260200160df60ff16815260200160bf60ff168152602001609f60ff168152602001607f60ff16815250610101600660128110611f6257611f61614acb565b5b01906005611f71929190613993565b506040518060a0016040528060ff8016815260200160df60ff16815260200160bf60ff168152602001609f60ff168152602001607f60ff16815250610101600c60128110611fc257611fc1614acb565b5b01906005611fd1929190613993565b506040518060e0016040528060ff8016815260200160df60ff16815260200160bf60ff168152602001609f60ff168152602001607f60ff168152602001605f60ff168152602001603f60ff16815250610101600d6012811061203657612035614acb565b5b01906007612045929190613a3a565b506040518060a0016040528060ff8016815260200160df60ff16815260200160bf60ff168152602001609f60ff168152602001607f60ff16815250610101600e6012811061209657612095614acb565b5b019060056120a5929190613993565b506040518060a0016040528060ff8016815260200160cf60ff168152602001609f60ff168152602001606f60ff168152602001603f60ff16815250610101600f601281106120f6576120f5614acb565b5b01906005612105929190613993565b506040518060a0016040528060ff8016815260200160df60ff16815260200160bf60ff168152602001609f60ff168152602001607f60ff1681525061010160106012811061215657612155614acb565b5b01906005612165929190613993565b5080156121875760008060016101000a81548160ff0219169083151502179055505b505050565b60fb60029054906101000a900461ffff1681565b60fe6020528060005260406000206000915090508060000160009054906101000a900460ff16908060000160019054906101000a900460ff16908060000160029054906101000a900460ff16908060000160039054906101000a900460ff16908060000160049054906101000a900460ff16908060000160059054906101000a900460ff16908060000160069054906101000a900460ff16908060000160079054906101000a900460ff16908060000160089054906101000a900460ff16908060000160099054906101000a900460ff169080600001600a9054906101000a900460ff169080600001600b9054906101000a900460ff1690508c565b61011360009054906101000a900473ffffffffffffffffffffffffffffffffffffffff1681565b600060ce60008473ffffffffffffffffffffffffffffffffffffffff1673ffffffffffffffffffffffffffffffffffffffff16815260200190815260200160002060008373ffffffffffffffffffffffffffffffffffffffff1673ffffffffffffffffffffffffffffffffffffffff16815260200190815260200160002060009054906101000a900460ff16905092915050565b61235f612603565b73ffffffffffffffffffffffffffffffffffffffff1661237d61159f565b73ffffffffffffffffffffffffffffffffffffffff16146123d3576040517f08c379a00000000000000000000000000000000000000000000000000000000081526004016123ca90614c21565b60405180910390fd5b600073ffffffffffffffffffffffffffffffffffffffff168173ffffffffffffffffffffffffffffffffffffffff161415612443576040517f08c379a000000000000000000000000000000000000000000000000000000000815260040161243a90614f21565b60405180910390fd5b61244c81612cf7565b50565b60fc5481565b61245d612603565b73ffffffffffffffffffffffffffffffffffffffff1661247b61159f565b73ffffffffffffffffffffffffffffffffffffffff16146124d1576040517f08c379a00000000000000000000000000000000000000000000000000000000081526004016124c890614c21565b60405180910390fd5b600061010060008373ffffffffffffffffffffffffffffffffffffffff1673ffffffffffffffffffffffffffffffffffffffff16815260200190815260200160002060006101000a81548160ff02191690831515021790555050565b60007f01ffc9a7000000000000000000000000000000000000000000000000000000007bffffffffffffffffffffffffffffffffffffffffffffffffffffffff1916827bffffffffffffffffffffffffffffffffffffffffffffffffffffffff1916149050919050565b60008073ffffffffffffffffffffffffffffffffffffffff1660cb600084815260200190815260200160002060009054906101000a900473ffffffffffffffffffffffffffffffffffffffff1673ffffffffffffffffffffffffffffffffffffffff1614159050919050565b600033905090565b8160cd600083815260200190815260200160002060006101000a81548173ffffffffffffffffffffffffffffffffffffffff021916908373ffffffffffffffffffffffffffffffffffffffff160217905550808273ffffffffffffffffffffffffffffffffffffffff1661267e83611005565b73ffffffffffffffffffffffffffffffffffffffff167f8c5be1e5ebec7d5bd14f71427d1e84f3dd0314c0f7b2291e5b200ac8c7c3b92560405160405180910390a45050565b6000808260000b1261270157606483836126de9190614f41565b60ff16116126f75781836126f29190614f41565b6126fa565b60645b9050612737565b8260ff168261270f90614f78565b60ff1611612731578161272190614f78565b8361272c9190614fc1565b612734565b60005b90505b92915050565b600061274882612597565b612787576040517f08c379a000000000000000000000000000000000000000000000000000000000815260040161277e90615067565b60405180910390fd5b600061279283611005565b90508073ffffffffffffffffffffffffffffffffffffffff168473ffffffffffffffffffffffffffffffffffffffff16148061280157508373ffffffffffffffffffffffffffffffffffffffff166127e984610a94565b73ffffffffffffffffffffffffffffffffffffffff16145b80612812575061281181856122c3565b5b91505092915050565b8273ffffffffffffffffffffffffffffffffffffffff1661283b82611005565b73ffffffffffffffffffffffffffffffffffffffff1614612891576040517f08c379a0000000000000000000000000000000000000000000000000000000008152600401612888906150f9565b60405180910390fd5b600073ffffffffffffffffffffffffffffffffffffffff168273ffffffffffffffffffffffffffffffffffffffff161415612901576040517f08c379a00000000000000000000000000000000000000000000000000000000081526004016128f89061518b565b60405180910390fd5b61290c8383836130c6565b61291760008261260b565b600160cc60008573ffffffffffffffffffffffffffffffffffffffff1673ffffffffffffffffffffffffffffffffffffffff168152602001908152602001600020600082825461296791906151ab565b92505081905550600160cc60008473ffffffffffffffffffffffffffffffffffffffff1673ffffffffffffffffffffffffffffffffffffffff16815260200190815260200160002060008282546129be91906151df565b925050819055508160cb600083815260200190815260200160002060006101000a81548173ffffffffffffffffffffffffffffffffffffffff021916908373ffffffffffffffffffffffffffffffffffffffff160217905550808273ffffffffffffffffffffffffffffffffffffffff168473ffffffffffffffffffffffffffffffffffffffff167fddf252ad1be2c89b69c2b068fc378daa952ba7f163c4a11628f55a4df523b3ef60405160405180910390a4505050565b600032600143612a8791906151ab565b404284604051602001612a9d94939291906152c9565b6040516020818303038152906040528051906020012060001c9050919050565b612ac561390f565b612ace826130cb565b90506000612adb82613224565b9050600060ff6000838152602001908152602001600020541415612cbd578160fe600086815260200190815260200160002060008201518160000160006101000a81548160ff02191690831515021790555060208201518160000160016101000a81548160ff021916908360ff16021790555060408201518160000160026101000a81548160ff021916908360ff16021790555060608201518160000160036101000a81548160ff021916908360ff16021790555060808201518160000160046101000a81548160ff021916908360ff16021790555060a08201518160000160056101000a81548160ff021916908360ff16021790555060c08201518160000160066101000a81548160ff021916908360ff16021790555060e08201518160000160076101000a81548160ff021916908360ff1602179055506101008201518160000160086101000a81548160ff021916908360ff1602179055506101208201518160000160096101000a81548160ff021916908360ff16021790555061014082015181600001600a6101000a81548160ff021916908360ff16021790555061016082015181600001600b6101000a81548160ff021916908360ff1602179055509050508360ff60008381526020019081526020016000208190555050612cd3565b612ccf84612cca85612a77565b612abd565b9150505b92915050565b612cf3828260405180602001604052806000815250613287565b5050565b6000603360009054906101000a900473ffffffffffffffffffffffffffffffffffffffff16905081603360006101000a81548173ffffffffffffffffffffffffffffffffffffffff021916908373ffffffffffffffffffffffffffffffffffffffff1602179055508173ffffffffffffffffffffffffffffffffffffffff168173ffffffffffffffffffffffffffffffffffffffff167f8be0079c531659141344cd1fd0a4f28419497f9722a3daafe3b4186f6b6457e060405160405180910390a35050565b8173ffffffffffffffffffffffffffffffffffffffff168373ffffffffffffffffffffffffffffffffffffffff161415612e2c576040517f08c379a0000000000000000000000000000000000000000000000000000000008152600401612e2390615363565b60405180910390fd5b8060ce60008573ffffffffffffffffffffffffffffffffffffffff1673ffffffffffffffffffffffffffffffffffffffff16815260200190815260200160002060008473ffffffffffffffffffffffffffffffffffffffff1673ffffffffffffffffffffffffffffffffffffffff16815260200190815260200160002060006101000a81548160ff0219169083151502179055508173ffffffffffffffffffffffffffffffffffffffff168373ffffffffffffffffffffffffffffffffffffffff167f17307eab39ab6107e8899845ad3d59bd9653f200f220920489ca2b5937696c3183604051612f1d9190613c38565b60405180910390a3505050565b612f3584848461281b565b612f41848484846132e2565b612f80576040517f08c379a0000000000000000000000000000000000000000000000000000000008152600401612f77906153f5565b60405180910390fd5b50505050565b6000612f913061346a565b15905090565b600060019054906101000a900460ff16612fe6576040517f08c379a0000000000000000000000000000000000000000000000000000000008152600401612fdd90615487565b60405180910390fd5b612fee61347d565b612ff66134ce565b565b600060019054906101000a900460ff16613047576040517f08c379a000000000000000000000000000000000000000000000000000000000815260040161303e90615487565b60405180910390fd5b61304f61347d565b61305761352f565b565b600060019054906101000a900460ff166130a8576040517f08c379a000000000000000000000000000000000000000000000000000000000815260040161309f90615487565b60405180910390fd5b6130b061347d565b6130b861359b565b6130c282826135ec565b5050565b505050565b6130d361390f565b6000600a61ffff84166130e691906154a7565b14158160000190151590811515815250508060000151156131925761310c82600261366d565b816020019060ff16908160ff168152505061312882600361366d565b816040019060ff16908160ff168152505061314482600461366d565b816080019060ff16908160ff168152505061316082600561366d565b8160a0019060ff16908160ff168152505061317c82600661366d565b8160c0019060ff16908160ff168152505061321f565b61319d82600c61366d565b816020019060ff16908160ff16815250506131b982600d61366d565b816040019060ff16908160ff16815250506131d582600e61366d565b816060019060ff16908160ff16815250506131f182600f61366d565b8160a0019060ff16908160ff168152505061320d82601061366d565b8160e0019060ff16908160ff16815250505b919050565b6000816000015182602001518360400151846060015185608001518660a001518760c001518860e00151604051602001613265989796959493929190615537565b60405160208183030381529060405261327d90615606565b60001c9050919050565b6132918383613741565b61329e60008484846132e2565b6132dd576040517f08c379a00000000000000000000000000000000000000000000000000000000081526004016132d4906153f5565b60405180910390fd5b505050565b60006133038473ffffffffffffffffffffffffffffffffffffffff1661346a565b1561345d578373ffffffffffffffffffffffffffffffffffffffff1663150b7a0261332c612603565b8786866040518563ffffffff1660e01b815260040161334e94939291906156b7565b6020604051808303816000875af192505050801561338a57506040513d601f19601f820116820180604052508101906133879190615718565b60015b61340d573d80600081146133ba576040519150601f19603f3d011682016040523d82523d6000602084013e6133bf565b606091505b50600081511415613405576040517f08c379a00000000000000000000000000000000000000000000000000000000081526004016133fc906153f5565b60405180910390fd5b805181602001fd5b63150b7a0260e01b7bffffffffffffffffffffffffffffffffffffffffffffffffffffffff1916817bffffffffffffffffffffffffffffffffffffffffffffffffffffffff191614915050613462565b600190505b949350505050565b600080823b905060008111915050919050565b600060019054906101000a900460ff166134cc576040517f08c379a00000000000000000000000000000000000000000000000000000000081526004016134c390615487565b60405180910390fd5b565b600060019054906101000a900460ff1661351d576040517f08c379a000000000000000000000000000000000000000000000000000000000815260040161351490615487565b60405180910390fd5b61352d613528612603565b612cf7565b565b600060019054906101000a900460ff1661357e576040517f08c379a000000000000000000000000000000000000000000000000000000000815260040161357590615487565b60405180910390fd5b6000606560006101000a81548160ff021916908315150217905550565b600060019054906101000a900460ff166135ea576040517f08c379a00000000000000000000000000000000000000000000000000000000081526004016135e190615487565b60405180910390fd5b565b600060019054906101000a900460ff1661363b576040517f08c379a000000000000000000000000000000000000000000000000000000000815260040161363290615487565b60405180910390fd5b8160c99080519060200190613651929190613ae1565b508060ca9080519060200190613668929190613ae1565b505050565b60006010600a8361367e9190615745565b6136889190615776565b60ff1683901c925060006101018360ff16601281106136aa576136a9614acb565b5b0180549050846136ba9190615745565b9050600060ff851690506101018460ff16601281106136dc576136db614acb565b5b018260ff16815481106136f2576136f1614acb565b5b90600052602060002090602091828204019190069054906101000a900460ff1660ff168160ff16116137345760008261372b9190614f41565b9250505061373b565b6000925050505b92915050565b600073ffffffffffffffffffffffffffffffffffffffff168273ffffffffffffffffffffffffffffffffffffffff1614156137b1576040517f08c379a00000000000000000000000000000000000000000000000000000000081526004016137a8906157fd565b60405180910390fd5b6137ba81612597565b156137fa576040517f08c379a00000000000000000000000000000000000000000000000000000000081526004016137f190615869565b60405180910390fd5b613806600083836130c6565b600160cc60008473ffffffffffffffffffffffffffffffffffffffff1673ffffffffffffffffffffffffffffffffffffffff168152602001908152602001600020600082825461385691906151df565b925050819055508160cb600083815260200190815260200160002060006101000a81548173ffffffffffffffffffffffffffffffffffffffff021916908373ffffffffffffffffffffffffffffffffffffffff160217905550808273ffffffffffffffffffffffffffffffffffffffff16600073ffffffffffffffffffffffffffffffffffffffff167fddf252ad1be2c89b69c2b068fc378daa952ba7f163c4a11628f55a4df523b3ef60405160405180910390a45050565b604051806101800160405280600015158152602001600060ff168152602001600060ff168152602001600060ff168152602001600060ff168152602001600060ff168152602001600060ff168152602001600060ff168152602001600060ff168152602001600060ff168152602001600060ff168152602001600060ff1681525090565b82805482825590600052602060002090601f01602090048101928215613a295791602002820160005b838211156139fa57835183826101000a81548160ff021916908360ff16021790555092602001926001016020816000010492830192600103026139bc565b8015613a275782816101000a81549060ff02191690556001016020816000010492830192600103026139fa565b505b509050613a369190613b67565b5090565b82805482825590600052602060002090601f01602090048101928215613ad05791602002820160005b83821115613aa157835183826101000a81548160ff021916908360ff1602179055509260200192600101602081600001049283019260010302613a63565b8015613ace5782816101000a81549060ff0219169055600101602081600001049283019260010302613aa1565b505b509050613add9190613b67565b5090565b828054613aed9061455b565b90600052602060002090601f016020900481019282613b0f5760008555613b56565b82601f10613b2857805160ff1916838001178555613b56565b82800160010185558215613b56579182015b82811115613b55578251825591602001919060010190613b3a565b5b509050613b639190613b67565b5090565b5b80821115613b80576000816000905550600101613b68565b5090565b6000604051905090565b600080fd5b600080fd5b60007fffffffff0000000000000000000000000000000000000000000000000000000082169050919050565b613bcd81613b98565b8114613bd857600080fd5b50565b600081359050613bea81613bc4565b92915050565b600060208284031215613c0657613c05613b8e565b5b6000613c1484828501613bdb565b91505092915050565b60008115159050919050565b613c3281613c1d565b82525050565b6000602082019050613c4d6000830184613c29565b92915050565b600081519050919050565b600082825260208201905092915050565b60005b83811015613c8d578082015181840152602081019050613c72565b83811115613c9c576000848401525b50505050565b6000601f19601f8301169050919050565b6000613cbe82613c53565b613cc88185613c5e565b9350613cd8818560208601613c6f565b613ce181613ca2565b840191505092915050565b60006020820190508181036000830152613d068184613cb3565b905092915050565b6000819050919050565b613d2181613d0e565b8114613d2c57600080fd5b50565b600081359050613d3e81613d18565b92915050565b600060208284031215613d5a57613d59613b8e565b5b6000613d6884828501613d2f565b91505092915050565b600073ffffffffffffffffffffffffffffffffffffffff82169050919050565b6000613d9c82613d71565b9050919050565b613dac81613d91565b82525050565b6000602082019050613dc76000830184613da3565b92915050565b600061ffff82169050919050565b613de481613dcd565b82525050565b6000602082019050613dff6000830184613ddb565b92915050565b613e0e81613d91565b8114613e1957600080fd5b50565b600081359050613e2b81613e05565b92915050565b60008060408385031215613e4857613e47613b8e565b5b6000613e5685828601613e1c565b9250506020613e6785828601613d2f565b9150509250929050565b60008160000b9050919050565b613e8781613e71565b8114613e9257600080fd5b50565b600081359050613ea481613e7e565b92915050565b60008060408385031215613ec157613ec0613b8e565b5b6000613ecf85828601613d2f565b9250506020613ee085828601613e95565b9150509250929050565b600080600060608486031215613f0357613f02613b8e565b5b6000613f1186828701613e1c565b9350506020613f2286828701613e1c565b9250506040613f3386828701613d2f565b9150509250925092565b60008060408385031215613f5457613f53613b8e565b5b6000613f6285828601613d2f565b9250506020613f7385828601613d2f565b9150509250929050565b600060ff82169050919050565b613f9381613f7d565b82525050565b6000602082019050613fae6000830184613f8a565b92915050565b613fbd81613d0e565b82525050565b6000602082019050613fd86000830184613fb4565b92915050565b613fe781613f7d565b8114613ff257600080fd5b50565b60008135905061400481613fde565b92915050565b6000602082840312156140205761401f613b8e565b5b600061402e84828501613ff5565b91505092915050565b60006020828403121561404d5761404c613b8e565b5b600061405b84828501613e1c565b91505092915050565b61406d81613c1d565b82525050565b61407c81613f7d565b82525050565b610180820160008201516140996000850182614064565b5060208201516140ac6020850182614073565b5060408201516140bf6040850182614073565b5060608201516140d26060850182614073565b5060808201516140e56080850182614073565b5060a08201516140f860a0850182614073565b5060c082015161410b60c0850182614073565b5060e082015161411e60e0850182614073565b50610100820151614133610100850182614073565b50610120820151614148610120850182614073565b5061014082015161415d610140850182614073565b50610160820151614172610160850182614073565b50505050565b60006101808201905061418e6000830184614082565b92915050565b61419d81613c1d565b81146141a857600080fd5b50565b6000813590506141ba81614194565b92915050565b600080604083850312156141d7576141d6613b8e565b5b60006141e585828601613e1c565b92505060206141f6858286016141ab565b9150509250929050565b600080fd5b600080fd5b7f4e487b7100000000000000000000000000000000000000000000000000000000600052604160045260246000fd5b61424282613ca2565b810181811067ffffffffffffffff821117156142615761426061420a565b5b80604052505050565b6000614274613b84565b90506142808282614239565b919050565b600067ffffffffffffffff8211156142a05761429f61420a565b5b6142a982613ca2565b9050602081019050919050565b82818337600083830152505050565b60006142d86142d384614285565b61426a565b9050828152602081018484840111156142f4576142f3614205565b5b6142ff8482856142b6565b509392505050565b600082601f83011261431c5761431b614200565b5b813561432c8482602086016142c5565b91505092915050565b6000806000806080858703121561434f5761434e613b8e565b5b600061435d87828801613e1c565b945050602061436e87828801613e1c565b935050604061437f87828801613d2f565b925050606085013567ffffffffffffffff8111156143a05761439f613b93565b5b6143ac87828801614307565b91505092959194509250565b6000610180820190506143ce600083018f613c29565b6143db602083018e613f8a565b6143e8604083018d613f8a565b6143f5606083018c613f8a565b614402608083018b613f8a565b61440f60a083018a613f8a565b61441c60c0830189613f8a565b61442960e0830188613f8a565b614437610100830187613f8a565b614445610120830186613f8a565b614453610140830185613f8a565b614461610160830184613f8a565b9d9c50505050505050505050505050565b6000819050919050565b600061449761449261448d84613d71565b614472565b613d71565b9050919050565b60006144a98261447c565b9050919050565b60006144bb8261449e565b9050919050565b6144cb816144b0565b82525050565b60006020820190506144e660008301846144c2565b92915050565b6000806040838503121561450357614502613b8e565b5b600061451185828601613e1c565b925050602061452285828601613e1c565b9150509250929050565b7f4e487b7100000000000000000000000000000000000000000000000000000000600052602260045260246000fd5b6000600282049050600182168061457357607f821691505b602082108114156145875761458661452c565b5b50919050565b7f4552433732313a20617070726f76656420717565727920666f72206e6f6e657860008201527f697374656e7420746f6b656e0000000000000000000000000000000000000000602082015250565b60006145e9602c83613c5e565b91506145f48261458d565b604082019050919050565b60006020820190508181036000830152614618816145dc565b9050919050565b7f4552433732313a20617070726f76616c20746f2063757272656e74206f776e6560008201527f7200000000000000000000000000000000000000000000000000000000000000602082015250565b600061467b602183613c5e565b91506146868261461f565b604082019050919050565b600060208201905081810360008301526146aa8161466e565b9050919050565b7f4552433732313a20617070726f76652063616c6c6572206973206e6f74206f7760008201527f6e6572206e6f7220617070726f76656420666f7220616c6c0000000000000000602082015250565b600061470d603883613c5e565b9150614718826146b1565b604082019050919050565b6000602082019050818103600083015261473c81614700565b9050919050565b7f4f6e6c7920636f6e74726f6c6c6572732063616e207570646174650000000000600082015250565b6000614779601b83613c5e565b915061478482614743565b602082019050919050565b600060208201905081810360008301526147a88161476c565b9050919050565b7f4552433732313a207472616e736665722063616c6c6572206973206e6f74206f60008201527f776e6572206e6f7220617070726f766564000000000000000000000000000000602082015250565b600061480b603183613c5e565b9150614816826147af565b604082019050919050565b6000602082019050818103600083015261483a816147fe565b9050919050565b7f4552433732313a206f776e657220717565727920666f72206e6f6e657869737460008201527f656e7420746f6b656e0000000000000000000000000000000000000000000000602082015250565b600061489d602983613c5e565b91506148a882614841565b604082019050919050565b600060208201905081810360008301526148cc81614890565b9050919050565b7f5061757361626c653a2070617573656400000000000000000000000000000000600082015250565b6000614909601083613c5e565b9150614914826148d3565b602082019050919050565b60006020820190508181036000830152614938816148fc565b9050919050565b7f496e76616c6964206d696e7420616d6f756e7400000000000000000000000000600082015250565b6000614975601383613c5e565b91506149808261493f565b602082019050919050565b600060208201905081810360008301526149a481614968565b9050919050565b7f4e487b7100000000000000000000000000000000000000000000000000000000600052601160045260246000fd5b60006149e582613d0e565b91506149f083613d0e565b9250817fffffffffffffffffffffffffffffffffffffffffffffffffffffffffffffffff0483118215151615614a2957614a286149ab565b5b828202905092915050565b7f496e76616c6964207061796d656e7420616d6f756e7400000000000000000000600082015250565b6000614a6a601683613c5e565b9150614a7582614a34565b602082019050919050565b60006020820190508181036000830152614a9981614a5d565b9050919050565b6000614aab82613dcd565b915061ffff821415614ac057614abf6149ab565b5b600182019050919050565b7f4e487b7100000000000000000000000000000000000000000000000000000000600052603260045260246000fd5b6000614b0582613d0e565b91507fffffffffffffffffffffffffffffffffffffffffffffffffffffffffffffffff821415614b3857614b376149ab565b5b600182019050919050565b7f4552433732313a2062616c616e636520717565727920666f7220746865207a6560008201527f726f206164647265737300000000000000000000000000000000000000000000602082015250565b6000614b9f602a83613c5e565b9150614baa82614b43565b604082019050919050565b60006020820190508181036000830152614bce81614b92565b9050919050565b7f4f776e61626c653a2063616c6c6572206973206e6f7420746865206f776e6572600082015250565b6000614c0b602083613c5e565b9150614c1682614bd5565b602082019050919050565b60006020820190508181036000830152614c3a81614bfe565b9050919050565b7f4552433732314d657461646174613a2055524920717565727920666f72206e6f60008201527f6e2d6578697374656e7420746f6b656e00000000000000000000000000000000602082015250565b6000614c9d603083613c5e565b9150614ca882614c41565b604082019050919050565b60006020820190508181036000830152614ccc81614c90565b9050919050565b600067ffffffffffffffff821115614cee57614ced61420a565b5b614cf782613ca2565b9050602081019050919050565b6000614d17614d1284614cd3565b61426a565b905082815260208101848484011115614d3357614d32614205565b5b614d3e848285613c6f565b509392505050565b600082601f830112614d5b57614d5a614200565b5b8151614d6b848260208601614d04565b91505092915050565b600060208284031215614d8a57614d89613b8e565b5b600082015167ffffffffffffffff811115614da857614da7613b93565b5b614db484828501614d46565b91505092915050565b7f496e697469616c697a61626c653a20636f6e747261637420697320616c72656160008201527f647920696e697469616c697a6564000000000000000000000000000000000000602082015250565b6000614e19602e83613c5e565b9150614e2482614dbd565b604082019050919050565b60006020820190508181036000830152614e4881614e0c565b9050919050565b7f4e487b7100000000000000000000000000000000000000000000000000000000600052601260045260246000fd5b6000614e8982613d0e565b9150614e9483613d0e565b925082614ea457614ea3614e4f565b5b828204905092915050565b7f4f776e61626c653a206e6577206f776e657220697320746865207a65726f206160008201527f6464726573730000000000000000000000000000000000000000000000000000602082015250565b6000614f0b602683613c5e565b9150614f1682614eaf565b604082019050919050565b60006020820190508181036000830152614f3a81614efe565b9050919050565b6000614f4c82613f7d565b9150614f5783613f7d565b92508260ff03821115614f6d57614f6c6149ab565b5b828201905092915050565b6000614f8382613e71565b91507fffffffffffffffffffffffffffffffffffffffffffffffffffffffffffffff80821415614fb657614fb56149ab565b5b816000039050919050565b6000614fcc82613f7d565b9150614fd783613f7d565b925082821015614fea57614fe96149ab565b5b828203905092915050565b7f4552433732313a206f70657261746f7220717565727920666f72206e6f6e657860008201527f697374656e7420746f6b656e0000000000000000000000000000000000000000602082015250565b6000615051602c83613c5e565b915061505c82614ff5565b604082019050919050565b6000602082019050818103600083015261508081615044565b9050919050565b7f4552433732313a207472616e73666572206f6620746f6b656e2074686174206960008201527f73206e6f74206f776e0000000000000000000000000000000000000000000000602082015250565b60006150e3602983613c5e565b91506150ee82615087565b604082019050919050565b60006020820190508181036000830152615112816150d6565b9050919050565b7f4552433732313a207472616e7366657220746f20746865207a65726f2061646460008201527f7265737300000000000000000000000000000000000000000000000000000000602082015250565b6000615175602483613c5e565b915061518082615119565b604082019050919050565b600060208201905081810360008301526151a481615168565b9050919050565b60006151b682613d0e565b91506151c183613d0e565b9250828210156151d4576151d36149ab565b5b828203905092915050565b60006151ea82613d0e565b91506151f583613d0e565b9250827fffffffffffffffffffffffffffffffffffffffffffffffffffffffffffffffff0382111561522a576152296149ab565b5b828201905092915050565b60008160601b9050919050565b600061524d82615235565b9050919050565b600061525f82615242565b9050919050565b61527761527282613d91565b615254565b82525050565b6000819050919050565b6000819050919050565b6152a261529d8261527d565b615287565b82525050565b6000819050919050565b6152c36152be82613d0e565b6152a8565b82525050565b60006152d58287615266565b6014820191506152e58286615291565b6020820191506152f582856152b2565b60208201915061530582846152b2565b60208201915081905095945050505050565b7f4552433732313a20617070726f766520746f2063616c6c657200000000000000600082015250565b600061534d601983613c5e565b915061535882615317565b602082019050919050565b6000602082019050818103600083015261537c81615340565b9050919050565b7f4552433732313a207472616e7366657220746f206e6f6e20455243373231526560008201527f63656976657220696d706c656d656e7465720000000000000000000000000000602082015250565b60006153df603283613c5e565b91506153ea82615383565b604082019050919050565b6000602082019050818103600083015261540e816153d2565b9050919050565b7f496e697469616c697a61626c653a20636f6e7472616374206973206e6f74206960008201527f6e697469616c697a696e67000000000000000000000000000000000000000000602082015250565b6000615471602b83613c5e565b915061547c82615415565b604082019050919050565b600060208201905081810360008301526154a081615464565b9050919050565b60006154b282613d0e565b91506154bd83613d0e565b9250826154cd576154cc614e4f565b5b828206905092915050565b60008160f81b9050919050565b60006154f0826154d8565b9050919050565b6000615502826154e5565b9050919050565b61551a61551582613c1d565b6154f7565b82525050565b61553161552c82613f7d565b6154e5565b82525050565b6000615543828b615509565b600182019150615553828a615520565b6001820191506155638289615520565b6001820191506155738288615520565b6001820191506155838287615520565b6001820191506155938286615520565b6001820191506155a38285615520565b6001820191506155b38284615520565b6001820191508190509998505050505050505050565b600081519050919050565b6000819050602082019050919050565b60006155f0825161527d565b80915050919050565b600082821b905092915050565b6000615611826155c9565b8261561b846155d4565b9050615626816155e4565b92506020821015615666576156617fffffffffffffffffffffffffffffffffffffffffffffffffffffffffffffffff836020036008026155f9565b831692505b5050919050565b600082825260208201905092915050565b6000615689826155c9565b615693818561566d565b93506156a3818560208601613c6f565b6156ac81613ca2565b840191505092915050565b60006080820190506156cc6000830187613da3565b6156d96020830186613da3565b6156e66040830185613fb4565b81810360608301526156f8818461567e565b905095945050505050565b60008151905061571281613bc4565b92915050565b60006020828403121561572e5761572d613b8e565b5b600061573c84828501615703565b91505092915050565b600061575082613f7d565b915061575b83613f7d565b92508261576b5761576a614e4f565b5b828206905092915050565b600061578182613f7d565b915061578c83613f7d565b92508160ff04831182151516156157a6576157a56149ab565b5b828202905092915050565b7f4552433732313a206d696e7420746f20746865207a65726f2061646472657373600082015250565b60006157e7602083613c5e565b91506157f2826157b1565b602082019050919050565b60006020820190508181036000830152615816816157da565b9050919050565b7f4552433732313a20746f6b656e20616c7265616479206d696e74656400000000600082015250565b6000615853601c83613c5e565b915061585e8261581d565b602082019050919050565b6000602082019050818103600083015261588281615846565b905091905056fea2646970667358221220e1474e90ac9215713a3c6e712530e8aa7309c48205c83c7854b4c433936a624f64736f6c634300080a0033",
  "immutableReferences": {},
  "source": "// SPDX-License-Identifier: MIT\n\npragma solidity ^0.8.0;\n\nimport \"@openzeppelin/contracts-upgradeable/proxy/utils/Initializable.sol\";\nimport \"@openzeppelin/contracts-upgradeable/access/OwnableUpgradeable.sol\";\nimport \"@openzeppelin/contracts-upgradeable/security/PausableUpgradeable.sol\";\nimport \"@openzeppelin/contracts-upgradeable/token/ERC721/ERC721Upgradeable.sol\";\nimport \"./IChefRat.sol\";\nimport \"./ITraits.sol\";\n\ncontract ChefRat is IChefRat, Initializable, OwnableUpgradeable, PausableUpgradeable, ERC721Upgradeable {\n  uint16 public minted;\n  uint16 public numChefs;\n  uint16 public numRats;\n  uint256 public constant MINT_PRICE = .1 ether;\n  uint256 public MAX_TOKENS; // Max number of tokens that can be minted - 50000 in production\n  uint256 public PAID_TOKENS; // Number of tokens that can be claimed for free - 20% of MAX_TOKENS\n//  uint256 public constant CHEF = 0;\n//  uint256 public constant RAT = 1;\n\n  mapping(uint256 => ChefRatStruct) public tokenTraits; // Mapping from tokenId to a struct containing the token's traits\n  mapping(uint256 => uint256) public existingCombinations; // Mapping from hashed(tokenTrait) to the tokenId it's associated with, used to ensure there are no duplicates\n  mapping(address => bool) controllers; // a mapping from an address to whether or not it can mint / burn\n  uint8[][18] public rarities; // List of probabilities for each trait type, 0 - 9 are associated with Chefs, 10 - 18 are associated with Rats\n\n  ITraits public traits; // Reference to Traits\n\n  function initialize(address _traits, uint256 _maxTokens) external initializer {\n    __Ownable_init();\n    __Pausable_init();\n    __ERC721_init(\"RatAlert Chefs & Rats\", \"CHEFRAT\");\n\n    minted = 0;\n    numChefs = 0;\n    numRats = 0;\n    traits = ITraits(_traits);\n    MAX_TOKENS = _maxTokens;\n    PAID_TOKENS = _maxTokens / 5;\n\n    // Chefs\n    rarities[2] = [255, 223, 191, 159, 127]; // hat\n    rarities[3] = [255, 223, 191, 159, 127, 95, 63]; // eyes\n    rarities[4] = [255, 223, 191, 159, 127]; // mouth\n    rarities[5] = [255, 207, 159, 111, 63]; // neck\n    rarities[6] = [255, 223, 191, 159, 127]; // hand\n    // Rats\n    rarities[12] = [255, 223, 191, 159, 127]; // hat\n    rarities[13] = [255, 223, 191, 159, 127, 95, 63]; // eyes\n    rarities[14] = [255, 223, 191, 159, 127]; // piercing\n    rarities[15] = [255, 207, 159, 111, 63]; // neck\n    rarities[16] = [255, 223, 191, 159, 127]; // tail\n  }\n\n  /**\n   * Mints a new ERC721 token: 90% chefs, 10% rats\n   * The first 20% are free to claim, the remaining cost $FFOOD\n   * @param amount Number of tokens to mint\n   */\n  function mint(uint8 amount) external payable whenNotPaused {\n    require(amount > 0 && amount <= 10, \"Invalid mint amount\");\n    require(amount * MINT_PRICE == msg.value, \"Invalid payment amount\");\n\n    uint16[] memory tokenIds = new uint16[](amount);\n    uint256 seed;\n    ChefRatStruct memory s;\n    for (uint i = 0; i < amount; i++) {\n      minted++;\n      seed = random(minted);\n      s = generate(minted, seed);\n      _safeMint(_msgSender(), minted);\n      tokenIds[i] = minted;\n      s.isChef ? numChefs++ : numRats++;\n    }\n  }\n\n  /**\n   * Generates traits for a specific token, checking to make sure it's unique\n   * @param tokenId - The id of the token to generate traits for\n   * @param seed - A pseudorandom 256 bit number to derive traits from\n   * @return t - A struct of traits for the given token ID\n   */\n  function generate(uint256 tokenId, uint256 seed) internal returns (ChefRatStruct memory t) {\n    t = selectTraits(seed);\n    uint256 hash = structToHash(t);\n    if (existingCombinations[hash] == 0) {\n      tokenTraits[tokenId] = t;\n      existingCombinations[hash] = tokenId;\n      return t;\n    }\n    return generate(tokenId, random(seed));\n  }\n\n  /**\n   * Selects the species and all of its traits based on the seed value\n   * @param seed - A pseudorandom 256 bit number to derive traits from\n   * @return t -  A struct of randomly selected traits\n   */\n  function selectTraits(uint256 seed) internal view returns (ChefRatStruct memory t) {\n    t.isChef = (seed & 0xFFFF) % 10 != 0;\n    if (t.isChef) {\n      t.hat = selectTrait(seed, 2);\n      t.eyes = selectTrait(seed, 3);\n      t.mouth = selectTrait(seed, 4);\n      t.neck = selectTrait(seed, 5);\n      t.hand = selectTrait(seed, 6);\n    } else {\n      t.hat = selectTrait(seed, 12);\n      t.eyes = selectTrait(seed, 13);\n      t.piercing = selectTrait(seed, 14);\n      t.neck = selectTrait(seed, 15);\n      t.tail = selectTrait(seed, 16);\n    }\n    return t;\n  }\n\n  /**\n   * Uses A.J. Walker's Alias algorithm for O(1) rarity table lookup\n   * ensuring O(1) instead of O(n) reduces mint cost by more than 50%\n   * probability & alias tables are generated off-chain beforehand\n   * @param seed - Portion of the 256 bit seed to remove trait correlation\n   * @param traitIndex - The trait index to select a trait for\n   * @return The ID of the randomly selected trait\n   */\n  function selectTrait(uint256 seed, uint8 traitIndex) internal view returns (uint8) {\n    seed = seed >>= (traitIndex % 10 * 16);\n    uint8 trait = uint8(seed) % uint8(rarities[traitIndex].length); // Selected trait index\n    uint8 rand = uint8(seed & 0xFFFF >> 8); // Random integer from 0 to 255\n    if (rand <= rarities[traitIndex][trait]) return trait + 0;\n    return 0;\n  }\n\n  /**\n   * Converts a struct to a 256 bit hash to check for uniqueness\n   * @param s - The struct to pack into a hash\n   * @return The 256 bit hash of the struct\n   */\n  function structToHash(ChefRatStruct memory s) internal pure returns (uint256) {\n    return uint256(bytes32(\n      abi.encodePacked(\n        s.isChef,\n        s.hat,\n        s.eyes,\n        s.piercing,\n        s.mouth,\n        s.neck,\n        s.hand,\n        s.tail\n      )\n    ));\n  }\n\n  function getUpdatedValue(uint8 old, int8 increment) internal pure returns(uint8) {\n    if (increment >= 0) {\n      return (uint8(increment) + old > 100) ? 100 : old + uint8(increment);\n    } else {\n      return (uint8(-increment) > old) ? 0 : old - uint8(-increment);\n    }\n  }\n\n  function updateInsanity(uint256 tokenId, int8 increment) public {\n    require(controllers[msg.sender], \"Only controllers can update\");\n    tokenTraits[tokenId].insanity = getUpdatedValue(tokenTraits[tokenId].insanity, increment);\n  }\n\n  function updateSkill(uint256 tokenId, int8 increment) public {\n    require(controllers[msg.sender], \"Only controllers can update\");\n    tokenTraits[tokenId].skill = getUpdatedValue(tokenTraits[tokenId].skill, increment);\n  }\n\n  function updateIntelligence(uint256 tokenId, int8 increment) public {\n    require(controllers[msg.sender], \"Only controllers can update\");\n    tokenTraits[tokenId].intelligence = getUpdatedValue(tokenTraits[tokenId].intelligence, increment);\n  }\n\n  function updateFatness(uint256 tokenId, int8 increment) public {\n    require(controllers[msg.sender], \"Only controllers can update\");\n    tokenTraits[tokenId].fatness = getUpdatedValue(tokenTraits[tokenId].fatness, increment);\n  }\n\n  function tokenURI(uint256 tokenId) public view override returns (string memory) {\n    require(_exists(tokenId), \"ERC721Metadata: URI query for non-existent token\");\n    return traits.tokenURI(tokenId);\n  }\n\n  function getTokenTraits(uint256 tokenId) external view override returns (ChefRatStruct memory) {\n    require(_exists(tokenId), \"ERC721Metadata: URI query for non-existent token\");\n    return tokenTraits[tokenId];\n  }\n\n  function getPaidTokens() external view override returns (uint256) {\n    return PAID_TOKENS;\n  }\n\n  /**\n   * Gets controller status by address\n   * @param controller the address to check\n   */\n  function getController(address controller) external view onlyOwner returns (bool) {\n    return controllers[controller];\n  }\n\n  /**\n   * Enables an address to mint / burn\n   * @param controller the address to enable\n   */\n  function addController(address controller) external onlyOwner {\n    controllers[controller] = true;\n  }\n\n  /**\n   * Disables an address from minting / burning\n   * @param controller the address to disable\n   */\n  function removeController(address controller) external onlyOwner {\n    controllers[controller] = false;\n  }\n\n  /**\n   * Generates a pseudorandom number\n   * @param seed A value ensure different outcomes for different sources in the same block\n   * @return A pseudorandom value\n   */\n  function random(uint256 seed) internal view returns (uint256) {\n    return uint256(keccak256(abi.encodePacked(\n      tx.origin,\n      blockhash(block.number - 1),\n      block.timestamp,\n      seed\n    )));\n  }\n}\n",
  "sourcePath": "/Users/chris/workspace/chainmatters/ratalert/contracts/ChefRat.sol",
  "compiler": {
    "name": "solc",
    "version": "0.8.10+commit.fc410830.Emscripten.clang"
  },
  "schemaVersion": "3.4.4",
  "updatedAt": "2022-01-04T14:05:05.167Z",
  "devdoc": {
    "kind": "dev",
    "methods": {
      "addController(address)": {
        "params": {
          "controller": "the address to enable"
        }
      },
      "approve(address,uint256)": {
        "details": "See {IERC721-approve}."
      },
      "balanceOf(address)": {
        "details": "See {IERC721-balanceOf}."
      },
      "getApproved(uint256)": {
        "details": "See {IERC721-getApproved}."
      },
      "getController(address)": {
        "params": {
          "controller": "the address to check"
        }
      },
      "isApprovedForAll(address,address)": {
        "details": "See {IERC721-isApprovedForAll}."
      },
      "mint(uint8)": {
        "params": {
          "amount": "Number of tokens to mint"
        }
      },
      "name()": {
        "details": "See {IERC721Metadata-name}."
      },
      "owner()": {
        "details": "Returns the address of the current owner."
      },
      "ownerOf(uint256)": {
        "details": "See {IERC721-ownerOf}."
      },
      "paused()": {
        "details": "Returns true if the contract is paused, and false otherwise."
      },
      "removeController(address)": {
        "params": {
          "controller": "the address to disable"
        }
      },
      "renounceOwnership()": {
        "details": "Leaves the contract without owner. It will not be possible to call `onlyOwner` functions anymore. Can only be called by the current owner. NOTE: Renouncing ownership will leave the contract without an owner, thereby removing any functionality that is only available to the owner."
      },
      "safeTransferFrom(address,address,uint256)": {
        "details": "See {IERC721-safeTransferFrom}."
      },
      "safeTransferFrom(address,address,uint256,bytes)": {
        "details": "See {IERC721-safeTransferFrom}."
      },
      "setApprovalForAll(address,bool)": {
        "details": "See {IERC721-setApprovalForAll}."
      },
      "supportsInterface(bytes4)": {
        "details": "See {IERC165-supportsInterface}."
      },
      "symbol()": {
        "details": "See {IERC721Metadata-symbol}."
      },
      "tokenURI(uint256)": {
        "details": "See {IERC721Metadata-tokenURI}."
      },
      "transferFrom(address,address,uint256)": {
        "details": "See {IERC721-transferFrom}."
      },
      "transferOwnership(address)": {
        "details": "Transfers ownership of the contract to a new account (`newOwner`). Can only be called by the current owner."
      }
    },
    "version": 1
  },
  "userdoc": {
    "kind": "user",
    "methods": {
      "addController(address)": {
        "notice": "Enables an address to mint / burn"
      },
      "getController(address)": {
        "notice": "Gets controller status by address"
      },
      "mint(uint8)": {
        "notice": "Mints a new ERC721 token: 90% chefs, 10% rats The first 20% are free to claim, the remaining cost $FFOOD"
      },
      "removeController(address)": {
        "notice": "Disables an address from minting / burning"
      }
    },
    "version": 1
  }
}