{
  "contractName": "ChefRat",
  "abi": [
    {
      "anonymous": false,
      "inputs": [
        {
          "indexed": true,
          "internalType": "address",
          "name": "owner",
          "type": "address"
        },
        {
          "indexed": true,
          "internalType": "address",
          "name": "approved",
          "type": "address"
        },
        {
          "indexed": true,
          "internalType": "uint256",
          "name": "tokenId",
          "type": "uint256"
        }
      ],
      "name": "Approval",
      "type": "event"
    },
    {
      "anonymous": false,
      "inputs": [
        {
          "indexed": true,
          "internalType": "address",
          "name": "owner",
          "type": "address"
        },
        {
          "indexed": true,
          "internalType": "address",
          "name": "operator",
          "type": "address"
        },
        {
          "indexed": false,
          "internalType": "bool",
          "name": "approved",
          "type": "bool"
        }
      ],
      "name": "ApprovalForAll",
      "type": "event"
    },
    {
      "anonymous": false,
      "inputs": [
        {
          "indexed": true,
          "internalType": "address",
          "name": "previousOwner",
          "type": "address"
        },
        {
          "indexed": true,
          "internalType": "address",
          "name": "newOwner",
          "type": "address"
        }
      ],
      "name": "OwnershipTransferred",
      "type": "event"
    },
    {
      "anonymous": false,
      "inputs": [
        {
          "indexed": false,
          "internalType": "address",
          "name": "account",
          "type": "address"
        }
      ],
      "name": "Paused",
      "type": "event"
    },
    {
      "anonymous": false,
      "inputs": [
        {
          "indexed": true,
          "internalType": "address",
          "name": "from",
          "type": "address"
        },
        {
          "indexed": true,
          "internalType": "address",
          "name": "to",
          "type": "address"
        },
        {
          "indexed": true,
          "internalType": "uint256",
          "name": "tokenId",
          "type": "uint256"
        }
      ],
      "name": "Transfer",
      "type": "event"
    },
    {
      "anonymous": false,
      "inputs": [
        {
          "indexed": false,
          "internalType": "address",
          "name": "account",
          "type": "address"
        }
      ],
      "name": "Unpaused",
      "type": "event"
    },
    {
      "inputs": [],
      "name": "MAX_TOKENS",
      "outputs": [
        {
          "internalType": "uint256",
          "name": "",
          "type": "uint256"
        }
      ],
      "stateMutability": "view",
      "type": "function",
      "constant": true
    },
    {
      "inputs": [],
      "name": "PAID_TOKENS",
      "outputs": [
        {
          "internalType": "uint256",
          "name": "",
          "type": "uint256"
        }
      ],
      "stateMutability": "view",
      "type": "function",
      "constant": true
    },
    {
      "inputs": [
        {
          "internalType": "address",
          "name": "to",
          "type": "address"
        },
        {
          "internalType": "uint256",
          "name": "tokenId",
          "type": "uint256"
        }
      ],
      "name": "approve",
      "outputs": [],
      "stateMutability": "nonpayable",
      "type": "function"
    },
    {
      "inputs": [
        {
          "internalType": "address",
          "name": "owner",
          "type": "address"
        }
      ],
      "name": "balanceOf",
      "outputs": [
        {
          "internalType": "uint256",
          "name": "",
          "type": "uint256"
        }
      ],
      "stateMutability": "view",
      "type": "function",
      "constant": true
    },
    {
      "inputs": [
        {
          "internalType": "uint256",
          "name": "",
          "type": "uint256"
        }
      ],
      "name": "existingCombinations",
      "outputs": [
        {
          "internalType": "uint256",
          "name": "",
          "type": "uint256"
        }
      ],
      "stateMutability": "view",
      "type": "function",
      "constant": true
    },
    {
      "inputs": [
        {
          "internalType": "uint256",
          "name": "tokenId",
          "type": "uint256"
        }
      ],
      "name": "getApproved",
      "outputs": [
        {
          "internalType": "address",
          "name": "",
          "type": "address"
        }
      ],
      "stateMutability": "view",
      "type": "function",
      "constant": true
    },
    {
      "inputs": [
        {
          "internalType": "address",
          "name": "owner",
          "type": "address"
        },
        {
          "internalType": "address",
          "name": "operator",
          "type": "address"
        }
      ],
      "name": "isApprovedForAll",
      "outputs": [
        {
          "internalType": "bool",
          "name": "",
          "type": "bool"
        }
      ],
      "stateMutability": "view",
      "type": "function",
      "constant": true
    },
    {
      "inputs": [],
      "name": "kitchenPack",
      "outputs": [
        {
          "internalType": "contract IKitchenPack",
          "name": "",
          "type": "address"
        }
      ],
      "stateMutability": "view",
      "type": "function",
      "constant": true
    },
    {
      "inputs": [],
      "name": "mintPrice",
      "outputs": [
        {
          "internalType": "uint256",
          "name": "",
          "type": "uint256"
        }
      ],
      "stateMutability": "view",
      "type": "function",
      "constant": true
    },
    {
      "inputs": [],
      "name": "minted",
      "outputs": [
        {
          "internalType": "uint16",
          "name": "",
          "type": "uint16"
        }
      ],
      "stateMutability": "view",
      "type": "function",
      "constant": true
    },
    {
      "inputs": [],
      "name": "name",
      "outputs": [
        {
          "internalType": "string",
          "name": "",
          "type": "string"
        }
      ],
      "stateMutability": "view",
      "type": "function",
      "constant": true
    },
    {
      "inputs": [],
      "name": "numChefs",
      "outputs": [
        {
          "internalType": "uint16",
          "name": "",
          "type": "uint16"
        }
      ],
      "stateMutability": "view",
      "type": "function",
      "constant": true
    },
    {
      "inputs": [],
      "name": "numRats",
      "outputs": [
        {
          "internalType": "uint16",
          "name": "",
          "type": "uint16"
        }
      ],
      "stateMutability": "view",
      "type": "function",
      "constant": true
    },
    {
      "inputs": [],
      "name": "owner",
      "outputs": [
        {
          "internalType": "address",
          "name": "",
          "type": "address"
        }
      ],
      "stateMutability": "view",
      "type": "function",
      "constant": true
    },
    {
      "inputs": [
        {
          "internalType": "uint256",
          "name": "tokenId",
          "type": "uint256"
        }
      ],
      "name": "ownerOf",
      "outputs": [
        {
          "internalType": "address",
          "name": "",
          "type": "address"
        }
      ],
      "stateMutability": "view",
      "type": "function",
      "constant": true
    },
    {
      "inputs": [],
      "name": "paused",
      "outputs": [
        {
          "internalType": "bool",
          "name": "",
          "type": "bool"
        }
      ],
      "stateMutability": "view",
      "type": "function",
      "constant": true
    },
    {
      "inputs": [
        {
          "internalType": "uint256",
          "name": "",
          "type": "uint256"
        },
        {
          "internalType": "uint256",
          "name": "",
          "type": "uint256"
        }
      ],
      "name": "rarities",
      "outputs": [
        {
          "internalType": "uint8",
          "name": "",
          "type": "uint8"
        }
      ],
      "stateMutability": "view",
      "type": "function",
      "constant": true
    },
    {
      "inputs": [],
      "name": "renounceOwnership",
      "outputs": [],
      "stateMutability": "nonpayable",
      "type": "function"
    },
    {
      "inputs": [
        {
          "internalType": "address",
          "name": "from",
          "type": "address"
        },
        {
          "internalType": "address",
          "name": "to",
          "type": "address"
        },
        {
          "internalType": "uint256",
          "name": "tokenId",
          "type": "uint256"
        }
      ],
      "name": "safeTransferFrom",
      "outputs": [],
      "stateMutability": "nonpayable",
      "type": "function"
    },
    {
      "inputs": [
        {
          "internalType": "address",
          "name": "from",
          "type": "address"
        },
        {
          "internalType": "address",
          "name": "to",
          "type": "address"
        },
        {
          "internalType": "uint256",
          "name": "tokenId",
          "type": "uint256"
        },
        {
          "internalType": "bytes",
          "name": "_data",
          "type": "bytes"
        }
      ],
      "name": "safeTransferFrom",
      "outputs": [],
      "stateMutability": "nonpayable",
      "type": "function"
    },
    {
      "inputs": [
        {
          "internalType": "address",
          "name": "operator",
          "type": "address"
        },
        {
          "internalType": "bool",
          "name": "approved",
          "type": "bool"
        }
      ],
      "name": "setApprovalForAll",
      "outputs": [],
      "stateMutability": "nonpayable",
      "type": "function"
    },
    {
      "inputs": [
        {
          "internalType": "bytes4",
          "name": "interfaceId",
          "type": "bytes4"
        }
      ],
      "name": "supportsInterface",
      "outputs": [
        {
          "internalType": "bool",
          "name": "",
          "type": "bool"
        }
      ],
      "stateMutability": "view",
      "type": "function",
      "constant": true
    },
    {
      "inputs": [],
      "name": "symbol",
      "outputs": [
        {
          "internalType": "string",
          "name": "",
          "type": "string"
        }
      ],
      "stateMutability": "view",
      "type": "function",
      "constant": true
    },
    {
      "inputs": [
        {
          "internalType": "uint256",
          "name": "",
          "type": "uint256"
        }
      ],
      "name": "tokenTraits",
      "outputs": [
        {
          "internalType": "bool",
          "name": "isChef",
          "type": "bool"
        },
        {
          "internalType": "uint8",
          "name": "hat",
          "type": "uint8"
        },
        {
          "internalType": "uint8",
          "name": "eyes",
          "type": "uint8"
        },
        {
          "internalType": "uint8",
          "name": "piercing",
          "type": "uint8"
        },
        {
          "internalType": "uint8",
          "name": "mouth",
          "type": "uint8"
        },
        {
          "internalType": "uint8",
          "name": "neck",
          "type": "uint8"
        },
        {
          "internalType": "uint8",
          "name": "hand",
          "type": "uint8"
        },
        {
          "internalType": "uint8",
          "name": "tail",
          "type": "uint8"
        },
        {
          "internalType": "uint8",
          "name": "efficiency",
          "type": "uint8"
        },
        {
          "internalType": "uint8",
          "name": "tolerance",
          "type": "uint8"
        }
      ],
      "stateMutability": "view",
      "type": "function",
      "constant": true
    },
    {
      "inputs": [],
      "name": "traits",
      "outputs": [
        {
          "internalType": "contract ITraits",
          "name": "",
          "type": "address"
        }
      ],
      "stateMutability": "view",
      "type": "function",
      "constant": true
    },
    {
      "inputs": [
        {
          "internalType": "address",
          "name": "from",
          "type": "address"
        },
        {
          "internalType": "address",
          "name": "to",
          "type": "address"
        },
        {
          "internalType": "uint256",
          "name": "tokenId",
          "type": "uint256"
        }
      ],
      "name": "transferFrom",
      "outputs": [],
      "stateMutability": "nonpayable",
      "type": "function"
    },
    {
      "inputs": [
        {
          "internalType": "address",
          "name": "newOwner",
          "type": "address"
        }
      ],
      "name": "transferOwnership",
      "outputs": [],
      "stateMutability": "nonpayable",
      "type": "function"
    },
    {
      "inputs": [
        {
          "internalType": "address",
          "name": "_traits",
          "type": "address"
        },
        {
          "internalType": "uint256",
          "name": "_maxTokens",
          "type": "uint256"
        },
        {
          "internalType": "uint256",
          "name": "_mintPrice",
          "type": "uint256"
        }
      ],
      "name": "initialize",
      "outputs": [],
      "stateMutability": "nonpayable",
      "type": "function"
    },
    {
      "inputs": [
        {
          "internalType": "uint8",
          "name": "amount",
          "type": "uint8"
        },
        {
          "internalType": "bool",
          "name": "stake",
          "type": "bool"
        }
      ],
      "name": "mint",
      "outputs": [],
      "stateMutability": "payable",
      "type": "function",
      "payable": true
    },
    {
      "inputs": [
        {
          "internalType": "uint256",
          "name": "tokenId",
          "type": "uint256"
        },
        {
          "internalType": "int8",
          "name": "increment",
          "type": "int8"
        }
      ],
      "name": "updateEfficiency",
      "outputs": [
        {
          "internalType": "uint8",
          "name": "",
          "type": "uint8"
        }
      ],
      "stateMutability": "nonpayable",
      "type": "function"
    },
    {
      "inputs": [
        {
          "internalType": "uint256",
          "name": "tokenId",
          "type": "uint256"
        },
        {
          "internalType": "int8",
          "name": "increment",
          "type": "int8"
        }
      ],
      "name": "updateTolerance",
      "outputs": [
        {
          "internalType": "uint8",
          "name": "",
          "type": "uint8"
        }
      ],
      "stateMutability": "nonpayable",
      "type": "function"
    },
    {
      "inputs": [
        {
          "internalType": "uint256",
          "name": "tokenId",
          "type": "uint256"
        }
      ],
      "name": "tokenURI",
      "outputs": [
        {
          "internalType": "string",
          "name": "",
          "type": "string"
        }
      ],
      "stateMutability": "view",
      "type": "function",
      "constant": true
    },
    {
      "inputs": [
        {
          "internalType": "uint256",
          "name": "tokenId",
          "type": "uint256"
        }
      ],
      "name": "getTokenTraits",
      "outputs": [
        {
          "components": [
            {
              "internalType": "bool",
              "name": "isChef",
              "type": "bool"
            },
            {
              "internalType": "uint8",
              "name": "hat",
              "type": "uint8"
            },
            {
              "internalType": "uint8",
              "name": "eyes",
              "type": "uint8"
            },
            {
              "internalType": "uint8",
              "name": "piercing",
              "type": "uint8"
            },
            {
              "internalType": "uint8",
              "name": "mouth",
              "type": "uint8"
            },
            {
              "internalType": "uint8",
              "name": "neck",
              "type": "uint8"
            },
            {
              "internalType": "uint8",
              "name": "hand",
              "type": "uint8"
            },
            {
              "internalType": "uint8",
              "name": "tail",
              "type": "uint8"
            },
            {
              "internalType": "uint8",
              "name": "efficiency",
              "type": "uint8"
            },
            {
              "internalType": "uint8",
              "name": "tolerance",
              "type": "uint8"
            }
          ],
          "internalType": "struct IChefRat.ChefRatStruct",
          "name": "",
          "type": "tuple"
        }
      ],
      "stateMutability": "view",
      "type": "function",
      "constant": true
    },
    {
      "inputs": [],
      "name": "getPaidTokens",
      "outputs": [
        {
          "internalType": "uint256",
          "name": "",
          "type": "uint256"
        }
      ],
      "stateMutability": "view",
      "type": "function",
      "constant": true
    },
    {
      "inputs": [
        {
          "internalType": "address",
          "name": "controller",
          "type": "address"
        }
      ],
      "name": "getController",
      "outputs": [
        {
          "internalType": "bool",
          "name": "",
          "type": "bool"
        }
      ],
      "stateMutability": "view",
      "type": "function",
      "constant": true
    },
    {
      "inputs": [
        {
          "internalType": "address",
          "name": "controller",
          "type": "address"
        }
      ],
      "name": "addController",
      "outputs": [],
      "stateMutability": "nonpayable",
      "type": "function"
    },
    {
      "inputs": [
        {
          "internalType": "address",
          "name": "controller",
          "type": "address"
        }
      ],
      "name": "removeController",
      "outputs": [],
      "stateMutability": "nonpayable",
      "type": "function"
    },
    {
      "inputs": [
        {
          "internalType": "address",
          "name": "_kitchenPack",
          "type": "address"
        }
      ],
      "name": "setKitchenPack",
      "outputs": [],
      "stateMutability": "nonpayable",
      "type": "function"
    }
  ],
  "bytecode": "0x608060405234801561001057600080fd5b50615a3b80620000216000396000f3fe6080604052600436106102255760003560e01c80637a1ac61e11610123578063c084f540116100ab578063e1fc334f1161006f578063e1fc334f14610863578063e985e9c51461088e578063f2fde38b146108cb578063f47c84c5146108f4578063f6a74ed71461091f57610225565b8063c084f5401461075f578063c87b56dd1461078a578063d0f7c374146107c7578063d39f8a4d146107f2578063e05c57bf1461081d57610225565b806395d89b41116100f257806395d89b411461067c578063a1b8f374146106a7578063a22cb465146106e4578063a7fc7a071461070d578063b88d4fde1461073657610225565b80637a1ac61e146105ae57806388c662aa146105d75780638da5cb5b1461061457806394e568471461063f57610225565b80634018b1f8116101b15780636352211e116101755780636352211e146104b557806366ffcf99146104f25780636817c76c1461052f57806370a082311461055a578063715018a61461059757610225565b80634018b1f8146103ef57806342842e0e1461041a5780634f02c420146104435780635c975abb1461046e578063612bfba41461049957610225565b8063095ea7b3116101f8578063095ea7b3146102fa5780632373e1271461032357806323b872dd14610360578063256dfd541461038957806333df4b2c146103b257610225565b806301ffc9a71461022a57806306fdde0314610267578063081812fc146102925780630917e40d146102cf575b600080fd5b34801561023657600080fd5b50610251600480360381019061024c9190613c24565b610948565b60405161025e9190613c6c565b60405180910390f35b34801561027357600080fd5b5061027c610a2a565b6040516102899190613d20565b60405180910390f35b34801561029e57600080fd5b506102b960048036038101906102b49190613d78565b610abc565b6040516102c69190613de6565b60405180910390f35b3480156102db57600080fd5b506102e4610b41565b6040516102f19190613e1e565b60405180910390f35b34801561030657600080fd5b50610321600480360381019061031c9190613e65565b610b55565b005b34801561032f57600080fd5b5061034a60048036038101906103459190613ede565b610c6d565b6040516103579190613f3a565b60405180910390f35b34801561036c57600080fd5b5061038760048036038101906103829190613f55565b610d66565b005b34801561039557600080fd5b506103b060048036038101906103ab9190613fa8565b610dc6565b005b3480156103be57600080fd5b506103d960048036038101906103d49190613fd5565b610e87565b6040516103e69190613f3a565b60405180910390f35b3480156103fb57600080fd5b50610404610ece565b6040516104119190614024565b60405180910390f35b34801561042657600080fd5b50610441600480360381019061043c9190613f55565b610ed8565b005b34801561044f57600080fd5b50610458610ef8565b6040516104659190613e1e565b60405180910390f35b34801561047a57600080fd5b50610483610f0c565b6040516104909190613c6c565b60405180910390f35b6104b360048036038101906104ae9190614097565b610f23565b005b3480156104c157600080fd5b506104dc60048036038101906104d79190613d78565b611333565b6040516104e99190613de6565b60405180910390f35b3480156104fe57600080fd5b5061051960048036038101906105149190613ede565b6113e5565b6040516105269190613f3a565b60405180910390f35b34801561053b57600080fd5b506105446114de565b6040516105519190614024565b60405180910390f35b34801561056657600080fd5b50610581600480360381019061057c9190613fa8565b6114e4565b60405161058e9190614024565b60405180910390f35b3480156105a357600080fd5b506105ac61159c565b005b3480156105ba57600080fd5b506105d560048036038101906105d091906140d7565b611624565b005b3480156105e357600080fd5b506105fe60048036038101906105f99190613fa8565b611c9a565b60405161060b9190613c6c565b60405180910390f35b34801561062057600080fd5b50610629611d6d565b6040516106369190613de6565b60405180910390f35b34801561064b57600080fd5b5061066660048036038101906106619190613d78565b611d97565b6040516106739190614214565b60405180910390f35b34801561068857600080fd5b50610691611f2d565b60405161069e9190613d20565b60405180910390f35b3480156106b357600080fd5b506106ce60048036038101906106c99190613d78565b611fbf565b6040516106db9190614024565b60405180910390f35b3480156106f057600080fd5b5061070b60048036038101906107069190614230565b611fd8565b005b34801561071957600080fd5b50610734600480360381019061072f9190613fa8565b611fee565b005b34801561074257600080fd5b5061075d600480360381019061075891906143a5565b6120c6565b005b34801561076b57600080fd5b50610774612128565b6040516107819190614024565b60405180910390f35b34801561079657600080fd5b506107b160048036038101906107ac9190613d78565b61212e565b6040516107be9190613d20565b60405180910390f35b3480156107d357600080fd5b506107dc612221565b6040516107e99190614487565b60405180910390f35b3480156107fe57600080fd5b50610807612248565b6040516108149190613e1e565b60405180910390f35b34801561082957600080fd5b50610844600480360381019061083f9190613d78565b61225c565b60405161085a9a999897969594939291906144a2565b60405180910390f35b34801561086f57600080fd5b50610878612332565b604051610885919061455f565b60405180910390f35b34801561089a57600080fd5b506108b560048036038101906108b0919061457a565b612359565b6040516108c29190613c6c565b60405180910390f35b3480156108d757600080fd5b506108f260048036038101906108ed9190613fa8565b6123ed565b005b34801561090057600080fd5b506109096124e5565b6040516109169190614024565b60405180910390f35b34801561092b57600080fd5b5061094660048036038101906109419190613fa8565b6124eb565b005b60007f80ac58cd000000000000000000000000000000000000000000000000000000007bffffffffffffffffffffffffffffffffffffffffffffffffffffffff1916827bffffffffffffffffffffffffffffffffffffffffffffffffffffffff19161480610a1357507f5b5e139f000000000000000000000000000000000000000000000000000000007bffffffffffffffffffffffffffffffffffffffffffffffffffffffff1916827bffffffffffffffffffffffffffffffffffffffffffffffffffffffff1916145b80610a235750610a22826125c3565b5b9050919050565b606060c98054610a39906145e9565b80601f0160208091040260200160405190810160405280929190818152602001828054610a65906145e9565b8015610ab25780601f10610a8757610100808354040283529160200191610ab2565b820191906000526020600020905b815481529060010190602001808311610a9557829003601f168201915b5050505050905090565b6000610ac78261262d565b610b06576040517f08c379a0000000000000000000000000000000000000000000000000000000008152600401610afd9061468d565b60405180910390fd5b60cd600083815260200190815260200160002060009054906101000a900473ffffffffffffffffffffffffffffffffffffffff169050919050565b60fb60049054906101000a900461ffff1681565b6000610b6082611333565b90508073ffffffffffffffffffffffffffffffffffffffff168373ffffffffffffffffffffffffffffffffffffffff161415610bd1576040517f08c379a0000000000000000000000000000000000000000000000000000000008152600401610bc89061471f565b60405180910390fd5b8073ffffffffffffffffffffffffffffffffffffffff16610bf0612699565b73ffffffffffffffffffffffffffffffffffffffff161480610c1f5750610c1e81610c19612699565b612359565b5b610c5e576040517f08c379a0000000000000000000000000000000000000000000000000000000008152600401610c55906147b1565b60405180910390fd5b610c6883836126a1565b505050565b600061010160003373ffffffffffffffffffffffffffffffffffffffff1673ffffffffffffffffffffffffffffffffffffffff16815260200190815260200160002060009054906101000a900460ff16610cfc576040517f08c379a0000000000000000000000000000000000000000000000000000000008152600401610cf39061481d565b60405180910390fd5b6000610d2b60ff600086815260200190815260200160002060000160099054906101000a900460ff168461275a565b90508060ff600086815260200190815260200160002060000160096101000a81548160ff021916908360ff1602179055508091505092915050565b610d77610d71612699565b826127d3565b610db6576040517f08c379a0000000000000000000000000000000000000000000000000000000008152600401610dad906148af565b60405180910390fd5b610dc18383836128b1565b505050565b610dce612699565b73ffffffffffffffffffffffffffffffffffffffff16610dec611d6d565b73ffffffffffffffffffffffffffffffffffffffff1614610e42576040517f08c379a0000000000000000000000000000000000000000000000000000000008152600401610e399061491b565b60405180910390fd5b8061011560006101000a81548173ffffffffffffffffffffffffffffffffffffffff021916908373ffffffffffffffffffffffffffffffffffffffff16021790555050565b6101028260128110610e9857600080fd5b018181548110610ea757600080fd5b9060005260206000209060209182820401919006915091509054906101000a900460ff1681565b600060fe54905090565b610ef3838383604051806020016040528060008152506120c6565b505050565b60fb60009054906101000a900461ffff1681565b6000606560009054906101000a900460ff16905090565b610f2b610f0c565b15610f6b576040517f08c379a0000000000000000000000000000000000000000000000000000000008152600401610f6290614987565b60405180910390fd5b60008260ff16118015610f825750600a8260ff1611155b610fc1576040517f08c379a0000000000000000000000000000000000000000000000000000000008152600401610fb8906149f3565b60405180910390fd5b3460fc548360ff16610fd39190614a42565b14611013576040517f08c379a000000000000000000000000000000000000000000000000000000000815260040161100a90614ae8565b60405180910390fd5b60008161106957600067ffffffffffffffff8111156110355761103461427a565b5b6040519080825280602002602001820160405280156110635781602001602082028036833780820191505090505b506110b6565b8260ff1667ffffffffffffffff8111156110865761108561427a565b5b6040519080825280602002602001820160405280156110b45781602001602082028036833780820191505090505b505b905060006110c2613957565b60005b8560ff1681101561128d5760fb600081819054906101000a900461ffff16809291906110f090614b08565b91906101000a81548161ffff021916908361ffff1602179055505061112860fb60009054906101000a900461ffff1661ffff16612b0d565b925061114860fb60009054906101000a900461ffff1661ffff1684612b53565b915084156111d05761119161011560009054906101000a900473ffffffffffffffffffffffffffffffffffffffff1660fb60009054906101000a900461ffff1661ffff16612d2d565b60fb60009054906101000a900461ffff168482815181106111b5576111b4614b33565b5b602002602001019061ffff16908161ffff16815250506111f6565b6111f56111db612699565b60fb60009054906101000a900461ffff1661ffff16612d2d565b5b816000015161123e5760fb600481819054906101000a900461ffff168092919061121f90614b08565b91906101000a81548161ffff021916908361ffff160217905550611279565b60fb600281819054906101000a900461ffff168092919061125e90614b08565b91906101000a81548161ffff021916908361ffff1602179055505b50808061128590614b62565b9150506110c5565b50831561132c5761011560009054906101000a900473ffffffffffffffffffffffffffffffffffffffff1673ffffffffffffffffffffffffffffffffffffffff1663dbdc1f6b6112db612699565b856040518363ffffffff1660e01b81526004016112f9929190614c69565b600060405180830381600087803b15801561131357600080fd5b505af1158015611327573d6000803e3d6000fd5b505050505b5050505050565b60008060cb600084815260200190815260200160002060009054906101000a900473ffffffffffffffffffffffffffffffffffffffff169050600073ffffffffffffffffffffffffffffffffffffffff168173ffffffffffffffffffffffffffffffffffffffff1614156113dc576040517f08c379a00000000000000000000000000000000000000000000000000000000081526004016113d390614d0b565b60405180910390fd5b80915050919050565b600061010160003373ffffffffffffffffffffffffffffffffffffffff1673ffffffffffffffffffffffffffffffffffffffff16815260200190815260200160002060009054906101000a900460ff16611474576040517f08c379a000000000000000000000000000000000000000000000000000000000815260040161146b9061481d565b60405180910390fd5b60006114a360ff600086815260200190815260200160002060000160089054906101000a900460ff168461275a565b90508060ff600086815260200190815260200160002060000160086101000a81548160ff021916908360ff1602179055508091505092915050565b60fc5481565b60008073ffffffffffffffffffffffffffffffffffffffff168273ffffffffffffffffffffffffffffffffffffffff161415611555576040517f08c379a000000000000000000000000000000000000000000000000000000000815260040161154c90614d9d565b60405180910390fd5b60cc60008373ffffffffffffffffffffffffffffffffffffffff1673ffffffffffffffffffffffffffffffffffffffff168152602001908152602001600020549050919050565b6115a4612699565b73ffffffffffffffffffffffffffffffffffffffff166115c2611d6d565b73ffffffffffffffffffffffffffffffffffffffff1614611618576040517f08c379a000000000000000000000000000000000000000000000000000000000815260040161160f9061491b565b60405180910390fd5b6116226000612d4b565b565b600060019054906101000a900460ff1661164c5760008054906101000a900460ff1615611655565b611654612e11565b5b611694576040517f08c379a000000000000000000000000000000000000000000000000000000000815260040161168b90614e2f565b60405180910390fd5b60008060019054906101000a900460ff1615905080156116e4576001600060016101000a81548160ff02191690831515021790555060016000806101000a81548160ff0219169083151502179055505b6116ec612e22565b6116f4612e83565b6117686040518060400160405280601581526020017f526174416c6572742043686566732026205261747300000000000000000000008152506040518060400160405280600781526020017f4348454652415400000000000000000000000000000000000000000000000000815250612ee4565b600060fb60006101000a81548161ffff021916908361ffff160217905550600060fb60026101000a81548161ffff021916908361ffff160217905550600060fb60046101000a81548161ffff021916908361ffff1602179055508361011460006101000a81548173ffffffffffffffffffffffffffffffffffffffff021916908373ffffffffffffffffffffffffffffffffffffffff1602179055508260fd819055506005836118189190614e7e565b60fe819055508160fc819055506040518060c0016040528060ff8016815260200160df60ff16815260200160bf60ff168152602001609f60ff168152602001607f60ff168152602001605f60ff1681525061010260026012811061187f5761187e614b33565b5b0190600661188e9291906139c7565b5060405180610100016040528060ff8016815260200160df60ff16815260200160bf60ff168152602001609f60ff168152602001607f60ff168152602001605f60ff168152602001603f60ff168152602001601f60ff168152506101026003601281106118fe576118fd614b33565b5b0190600861190d929190613a6e565b506040518060c0016040528060ff8016815260200160df60ff16815260200160bf60ff168152602001609f60ff168152602001607f60ff168152602001605f60ff1681525061010260046012811061196857611967614b33565b5b019060066119779291906139c7565b506040518060c0016040528060ff8016815260200160cf60ff168152602001609f60ff168152602001606f60ff168152602001603f60ff168152602001600f60ff168152506101026005601281106119d2576119d1614b33565b5b019060066119e19291906139c7565b506040518060c0016040528060ff8016815260200160df60ff16815260200160bf60ff168152602001609f60ff168152602001607f60ff168152602001605f60ff16815250610102600660128110611a3c57611a3b614b33565b5b01906006611a4b9291906139c7565b506040518060c0016040528060ff8016815260200160df60ff16815260200160bf60ff168152602001609f60ff168152602001607f60ff168152602001605f60ff16815250610102600c60128110611aa657611aa5614b33565b5b01906006611ab59291906139c7565b5060405180610100016040528060ff8016815260200160df60ff16815260200160bf60ff168152602001609f60ff168152602001607f60ff168152602001605f60ff168152602001603f60ff168152602001601f60ff16815250610102600d60128110611b2557611b24614b33565b5b01906008611b34929190613a6e565b506040518060c0016040528060ff8016815260200160df60ff16815260200160bf60ff168152602001609f60ff168152602001607f60ff168152602001605f60ff16815250610102600e60128110611b8f57611b8e614b33565b5b01906006611b9e9291906139c7565b506040518060c0016040528060ff8016815260200160cf60ff168152602001609f60ff168152602001606f60ff168152602001603f60ff168152602001600f60ff16815250610102600f60128110611bf957611bf8614b33565b5b01906006611c089291906139c7565b506040518060c0016040528060ff8016815260200160df60ff16815260200160bf60ff168152602001609f60ff168152602001607f60ff168152602001605f60ff16815250610102601060128110611c6357611c62614b33565b5b01906006611c729291906139c7565b508015611c945760008060016101000a81548160ff0219169083151502179055505b50505050565b6000611ca4612699565b73ffffffffffffffffffffffffffffffffffffffff16611cc2611d6d565b73ffffffffffffffffffffffffffffffffffffffff1614611d18576040517f08c379a0000000000000000000000000000000000000000000000000000000008152600401611d0f9061491b565b60405180910390fd5b61010160008373ffffffffffffffffffffffffffffffffffffffff1673ffffffffffffffffffffffffffffffffffffffff16815260200190815260200160002060009054906101000a900460ff169050919050565b6000603360009054906101000a900473ffffffffffffffffffffffffffffffffffffffff16905090565b611d9f613957565b611da88261262d565b611de7576040517f08c379a0000000000000000000000000000000000000000000000000000000008152600401611dde90614f21565b60405180910390fd5b60ff6000838152602001908152602001600020604051806101400160405290816000820160009054906101000a900460ff161515151581526020016000820160019054906101000a900460ff1660ff1660ff1681526020016000820160029054906101000a900460ff1660ff1660ff1681526020016000820160039054906101000a900460ff1660ff1660ff1681526020016000820160049054906101000a900460ff1660ff1660ff1681526020016000820160059054906101000a900460ff1660ff1660ff1681526020016000820160069054906101000a900460ff1660ff1660ff1681526020016000820160079054906101000a900460ff1660ff1660ff1681526020016000820160089054906101000a900460ff1660ff1660ff1681526020016000820160099054906101000a900460ff1660ff1660ff16815250509050919050565b606060ca8054611f3c906145e9565b80601f0160208091040260200160405190810160405280929190818152602001828054611f68906145e9565b8015611fb55780601f10611f8a57610100808354040283529160200191611fb5565b820191906000526020600020905b815481529060010190602001808311611f9857829003601f168201915b5050505050905090565b6101006020528060005260406000206000915090505481565b611fea611fe3612699565b8383612f51565b5050565b611ff6612699565b73ffffffffffffffffffffffffffffffffffffffff16612014611d6d565b73ffffffffffffffffffffffffffffffffffffffff161461206a576040517f08c379a00000000000000000000000000000000000000000000000000000000081526004016120619061491b565b60405180910390fd5b600161010160008373ffffffffffffffffffffffffffffffffffffffff1673ffffffffffffffffffffffffffffffffffffffff16815260200190815260200160002060006101000a81548160ff02191690831515021790555050565b6120d76120d1612699565b836127d3565b612116576040517f08c379a000000000000000000000000000000000000000000000000000000000815260040161210d906148af565b60405180910390fd5b612122848484846130be565b50505050565b60fe5481565b60606121398261262d565b612178576040517f08c379a000000000000000000000000000000000000000000000000000000000815260040161216f90614f21565b60405180910390fd5b61011460009054906101000a900473ffffffffffffffffffffffffffffffffffffffff1673ffffffffffffffffffffffffffffffffffffffff1663c87b56dd836040518263ffffffff1660e01b81526004016121d49190614024565b600060405180830381865afa1580156121f1573d6000803e3d6000fd5b505050506040513d6000823e3d601f19601f8201168201806040525081019061221a9190614fe2565b9050919050565b61011560009054906101000a900473ffffffffffffffffffffffffffffffffffffffff1681565b60fb60029054906101000a900461ffff1681565b60ff6020528060005260406000206000915090508060000160009054906101000a900460ff16908060000160019054906101000a900460ff16908060000160029054906101000a900460ff16908060000160039054906101000a900460ff16908060000160049054906101000a900460ff16908060000160059054906101000a900460ff16908060000160069054906101000a900460ff16908060000160079054906101000a900460ff16908060000160089054906101000a900460ff16908060000160099054906101000a900460ff1690508a565b61011460009054906101000a900473ffffffffffffffffffffffffffffffffffffffff1681565b600060ce60008473ffffffffffffffffffffffffffffffffffffffff1673ffffffffffffffffffffffffffffffffffffffff16815260200190815260200160002060008373ffffffffffffffffffffffffffffffffffffffff1673ffffffffffffffffffffffffffffffffffffffff16815260200190815260200160002060009054906101000a900460ff16905092915050565b6123f5612699565b73ffffffffffffffffffffffffffffffffffffffff16612413611d6d565b73ffffffffffffffffffffffffffffffffffffffff1614612469576040517f08c379a00000000000000000000000000000000000000000000000000000000081526004016124609061491b565b60405180910390fd5b600073ffffffffffffffffffffffffffffffffffffffff168173ffffffffffffffffffffffffffffffffffffffff1614156124d9576040517f08c379a00000000000000000000000000000000000000000000000000000000081526004016124d09061509d565b60405180910390fd5b6124e281612d4b565b50565b60fd5481565b6124f3612699565b73ffffffffffffffffffffffffffffffffffffffff16612511611d6d565b73ffffffffffffffffffffffffffffffffffffffff1614612567576040517f08c379a000000000000000000000000000000000000000000000000000000000815260040161255e9061491b565b60405180910390fd5b600061010160008373ffffffffffffffffffffffffffffffffffffffff1673ffffffffffffffffffffffffffffffffffffffff16815260200190815260200160002060006101000a81548160ff02191690831515021790555050565b60007f01ffc9a7000000000000000000000000000000000000000000000000000000007bffffffffffffffffffffffffffffffffffffffffffffffffffffffff1916827bffffffffffffffffffffffffffffffffffffffffffffffffffffffff1916149050919050565b60008073ffffffffffffffffffffffffffffffffffffffff1660cb600084815260200190815260200160002060009054906101000a900473ffffffffffffffffffffffffffffffffffffffff1673ffffffffffffffffffffffffffffffffffffffff1614159050919050565b600033905090565b8160cd600083815260200190815260200160002060006101000a81548173ffffffffffffffffffffffffffffffffffffffff021916908373ffffffffffffffffffffffffffffffffffffffff160217905550808273ffffffffffffffffffffffffffffffffffffffff1661271483611333565b73ffffffffffffffffffffffffffffffffffffffff167f8c5be1e5ebec7d5bd14f71427d1e84f3dd0314c0f7b2291e5b200ac8c7c3b92560405160405180910390a45050565b6000808260000b12612797576064838361277491906150bd565b60ff161161278d57818361278891906150bd565b612790565b60645b90506127cd565b8260ff16826127a5906150f4565b60ff16116127c757816127b7906150f4565b836127c2919061513d565b6127ca565b60005b90505b92915050565b60006127de8261262d565b61281d576040517f08c379a0000000000000000000000000000000000000000000000000000000008152600401612814906151e3565b60405180910390fd5b600061282883611333565b90508073ffffffffffffffffffffffffffffffffffffffff168473ffffffffffffffffffffffffffffffffffffffff16148061289757508373ffffffffffffffffffffffffffffffffffffffff1661287f84610abc565b73ffffffffffffffffffffffffffffffffffffffff16145b806128a857506128a78185612359565b5b91505092915050565b8273ffffffffffffffffffffffffffffffffffffffff166128d182611333565b73ffffffffffffffffffffffffffffffffffffffff1614612927576040517f08c379a000000000000000000000000000000000000000000000000000000000815260040161291e90615275565b60405180910390fd5b600073ffffffffffffffffffffffffffffffffffffffff168273ffffffffffffffffffffffffffffffffffffffff161415612997576040517f08c379a000000000000000000000000000000000000000000000000000000000815260040161298e90615307565b60405180910390fd5b6129a283838361311a565b6129ad6000826126a1565b600160cc60008573ffffffffffffffffffffffffffffffffffffffff1673ffffffffffffffffffffffffffffffffffffffff16815260200190815260200160002060008282546129fd9190615327565b92505081905550600160cc60008473ffffffffffffffffffffffffffffffffffffffff1673ffffffffffffffffffffffffffffffffffffffff1681526020019081526020016000206000828254612a54919061535b565b925050819055508160cb600083815260200190815260200160002060006101000a81548173ffffffffffffffffffffffffffffffffffffffff021916908373ffffffffffffffffffffffffffffffffffffffff160217905550808273ffffffffffffffffffffffffffffffffffffffff168473ffffffffffffffffffffffffffffffffffffffff167fddf252ad1be2c89b69c2b068fc378daa952ba7f163c4a11628f55a4df523b3ef60405160405180910390a4505050565b600032600143612b1d9190615327565b404284604051602001612b339493929190615445565b6040516020818303038152906040528051906020012060001c9050919050565b612b5b613957565b612b648261311f565b90506000612b7182613278565b905060006101006000838152602001908152602001600020541415612d11578160ff600086815260200190815260200160002060008201518160000160006101000a81548160ff02191690831515021790555060208201518160000160016101000a81548160ff021916908360ff16021790555060408201518160000160026101000a81548160ff021916908360ff16021790555060608201518160000160036101000a81548160ff021916908360ff16021790555060808201518160000160046101000a81548160ff021916908360ff16021790555060a08201518160000160056101000a81548160ff021916908360ff16021790555060c08201518160000160066101000a81548160ff021916908360ff16021790555060e08201518160000160076101000a81548160ff021916908360ff1602179055506101008201518160000160086101000a81548160ff021916908360ff1602179055506101208201518160000160096101000a81548160ff021916908360ff1602179055509050508361010060008381526020019081526020016000208190555050612d27565b612d2384612d1e85612b0d565b612b53565b9150505b92915050565b612d478282604051806020016040528060008152506132db565b5050565b6000603360009054906101000a900473ffffffffffffffffffffffffffffffffffffffff16905081603360006101000a81548173ffffffffffffffffffffffffffffffffffffffff021916908373ffffffffffffffffffffffffffffffffffffffff1602179055508173ffffffffffffffffffffffffffffffffffffffff168173ffffffffffffffffffffffffffffffffffffffff167f8be0079c531659141344cd1fd0a4f28419497f9722a3daafe3b4186f6b6457e060405160405180910390a35050565b6000612e1c30613336565b15905090565b600060019054906101000a900460ff16612e71576040517f08c379a0000000000000000000000000000000000000000000000000000000008152600401612e6890615505565b60405180910390fd5b612e79613349565b612e8161339a565b565b600060019054906101000a900460ff16612ed2576040517f08c379a0000000000000000000000000000000000000000000000000000000008152600401612ec990615505565b60405180910390fd5b612eda613349565b612ee26133fb565b565b600060019054906101000a900460ff16612f33576040517f08c379a0000000000000000000000000000000000000000000000000000000008152600401612f2a90615505565b60405180910390fd5b612f3b613349565b612f43613467565b612f4d82826134b8565b5050565b8173ffffffffffffffffffffffffffffffffffffffff168373ffffffffffffffffffffffffffffffffffffffff161415612fc0576040517f08c379a0000000000000000000000000000000000000000000000000000000008152600401612fb790615571565b60405180910390fd5b8060ce60008573ffffffffffffffffffffffffffffffffffffffff1673ffffffffffffffffffffffffffffffffffffffff16815260200190815260200160002060008473ffffffffffffffffffffffffffffffffffffffff1673ffffffffffffffffffffffffffffffffffffffff16815260200190815260200160002060006101000a81548160ff0219169083151502179055508173ffffffffffffffffffffffffffffffffffffffff168373ffffffffffffffffffffffffffffffffffffffff167f17307eab39ab6107e8899845ad3d59bd9653f200f220920489ca2b5937696c31836040516130b19190613c6c565b60405180910390a3505050565b6130c98484846128b1565b6130d584848484613539565b613114576040517f08c379a000000000000000000000000000000000000000000000000000000000815260040161310b90615603565b60405180910390fd5b50505050565b505050565b613127613957565b6000600a61ffff841661313a9190615623565b14158160000190151590811515815250508060000151156131e6576131608260026136c1565b816020019060ff16908160ff168152505061317c8260036136c1565b816040019060ff16908160ff16815250506131988260046136c1565b816080019060ff16908160ff16815250506131b48260056136c1565b8160a0019060ff16908160ff16815250506131d08260066136c1565b8160c0019060ff16908160ff1681525050613273565b6131f182600c6136c1565b816020019060ff16908160ff168152505061320d82600d6136c1565b816040019060ff16908160ff168152505061322982600e6136c1565b816060019060ff16908160ff168152505061324582600f6136c1565b8160a0019060ff16908160ff16815250506132618260106136c1565b8160e0019060ff16908160ff16815250505b919050565b6000816000015182602001518360400151846060015185608001518660a001518760c001518860e001516040516020016132b99897969594939291906156b3565b6040516020818303038152906040526132d190615782565b60001c9050919050565b6132e58383613789565b6132f26000848484613539565b613331576040517f08c379a000000000000000000000000000000000000000000000000000000000815260040161332890615603565b60405180910390fd5b505050565b600080823b905060008111915050919050565b600060019054906101000a900460ff16613398576040517f08c379a000000000000000000000000000000000000000000000000000000000815260040161338f90615505565b60405180910390fd5b565b600060019054906101000a900460ff166133e9576040517f08c379a00000000000000000000000000000000000000000000000000000000081526004016133e090615505565b60405180910390fd5b6133f96133f4612699565b612d4b565b565b600060019054906101000a900460ff1661344a576040517f08c379a000000000000000000000000000000000000000000000000000000000815260040161344190615505565b60405180910390fd5b6000606560006101000a81548160ff021916908315150217905550565b600060019054906101000a900460ff166134b6576040517f08c379a00000000000000000000000000000000000000000000000000000000081526004016134ad90615505565b60405180910390fd5b565b600060019054906101000a900460ff16613507576040517f08c379a00000000000000000000000000000000000000000000000000000000081526004016134fe90615505565b60405180910390fd5b8160c9908051906020019061351d929190613b15565b508060ca9080519060200190613534929190613b15565b505050565b600061355a8473ffffffffffffffffffffffffffffffffffffffff16613336565b156136b4578373ffffffffffffffffffffffffffffffffffffffff1663150b7a02613583612699565b8786866040518563ffffffff1660e01b81526004016135a59493929190615833565b6020604051808303816000875af19250505080156135e157506040513d601f19601f820116820180604052508101906135de9190615894565b60015b613664573d8060008114613611576040519150601f19603f3d011682016040523d82523d6000602084013e613616565b606091505b5060008151141561365c576040517f08c379a000000000000000000000000000000000000000000000000000000000815260040161365390615603565b60405180910390fd5b805181602001fd5b63150b7a0260e01b7bffffffffffffffffffffffffffffffffffffffffffffffffffffffff1916817bffffffffffffffffffffffffffffffffffffffffffffffffffffffff1916149150506136b9565b600190505b949350505050565b60006010600a836136d291906158c1565b6136dc91906158f2565b60ff1683901c925060006101028360ff16601281106136fe576136fd614b33565b5b01805490508461370e91906158c1565b9050600060ff851690506101028460ff16601281106137305761372f614b33565b5b018260ff168154811061374657613745614b33565b5b90600052602060002090602091828204019190069054906101000a900460ff1660ff168160ff161161377c578192505050613783565b6000925050505b92915050565b600073ffffffffffffffffffffffffffffffffffffffff168273ffffffffffffffffffffffffffffffffffffffff1614156137f9576040517f08c379a00000000000000000000000000000000000000000000000000000000081526004016137f090615979565b60405180910390fd5b6138028161262d565b15613842576040517f08c379a0000000000000000000000000000000000000000000000000000000008152600401613839906159e5565b60405180910390fd5b61384e6000838361311a565b600160cc60008473ffffffffffffffffffffffffffffffffffffffff1673ffffffffffffffffffffffffffffffffffffffff168152602001908152602001600020600082825461389e919061535b565b925050819055508160cb600083815260200190815260200160002060006101000a81548173ffffffffffffffffffffffffffffffffffffffff021916908373ffffffffffffffffffffffffffffffffffffffff160217905550808273ffffffffffffffffffffffffffffffffffffffff16600073ffffffffffffffffffffffffffffffffffffffff167fddf252ad1be2c89b69c2b068fc378daa952ba7f163c4a11628f55a4df523b3ef60405160405180910390a45050565b604051806101400160405280600015158152602001600060ff168152602001600060ff168152602001600060ff168152602001600060ff168152602001600060ff168152602001600060ff168152602001600060ff168152602001600060ff168152602001600060ff1681525090565b82805482825590600052602060002090601f01602090048101928215613a5d5791602002820160005b83821115613a2e57835183826101000a81548160ff021916908360ff16021790555092602001926001016020816000010492830192600103026139f0565b8015613a5b5782816101000a81549060ff0219169055600101602081600001049283019260010302613a2e565b505b509050613a6a9190613b9b565b5090565b82805482825590600052602060002090601f01602090048101928215613b045791602002820160005b83821115613ad557835183826101000a81548160ff021916908360ff1602179055509260200192600101602081600001049283019260010302613a97565b8015613b025782816101000a81549060ff0219169055600101602081600001049283019260010302613ad5565b505b509050613b119190613b9b565b5090565b828054613b21906145e9565b90600052602060002090601f016020900481019282613b435760008555613b8a565b82601f10613b5c57805160ff1916838001178555613b8a565b82800160010185558215613b8a579182015b82811115613b89578251825591602001919060010190613b6e565b5b509050613b979190613b9b565b5090565b5b80821115613bb4576000816000905550600101613b9c565b5090565b6000604051905090565b600080fd5b600080fd5b60007fffffffff0000000000000000000000000000000000000000000000000000000082169050919050565b613c0181613bcc565b8114613c0c57600080fd5b50565b600081359050613c1e81613bf8565b92915050565b600060208284031215613c3a57613c39613bc2565b5b6000613c4884828501613c0f565b91505092915050565b60008115159050919050565b613c6681613c51565b82525050565b6000602082019050613c816000830184613c5d565b92915050565b600081519050919050565b600082825260208201905092915050565b60005b83811015613cc1578082015181840152602081019050613ca6565b83811115613cd0576000848401525b50505050565b6000601f19601f8301169050919050565b6000613cf282613c87565b613cfc8185613c92565b9350613d0c818560208601613ca3565b613d1581613cd6565b840191505092915050565b60006020820190508181036000830152613d3a8184613ce7565b905092915050565b6000819050919050565b613d5581613d42565b8114613d6057600080fd5b50565b600081359050613d7281613d4c565b92915050565b600060208284031215613d8e57613d8d613bc2565b5b6000613d9c84828501613d63565b91505092915050565b600073ffffffffffffffffffffffffffffffffffffffff82169050919050565b6000613dd082613da5565b9050919050565b613de081613dc5565b82525050565b6000602082019050613dfb6000830184613dd7565b92915050565b600061ffff82169050919050565b613e1881613e01565b82525050565b6000602082019050613e336000830184613e0f565b92915050565b613e4281613dc5565b8114613e4d57600080fd5b50565b600081359050613e5f81613e39565b92915050565b60008060408385031215613e7c57613e7b613bc2565b5b6000613e8a85828601613e50565b9250506020613e9b85828601613d63565b9150509250929050565b60008160000b9050919050565b613ebb81613ea5565b8114613ec657600080fd5b50565b600081359050613ed881613eb2565b92915050565b60008060408385031215613ef557613ef4613bc2565b5b6000613f0385828601613d63565b9250506020613f1485828601613ec9565b9150509250929050565b600060ff82169050919050565b613f3481613f1e565b82525050565b6000602082019050613f4f6000830184613f2b565b92915050565b600080600060608486031215613f6e57613f6d613bc2565b5b6000613f7c86828701613e50565b9350506020613f8d86828701613e50565b9250506040613f9e86828701613d63565b9150509250925092565b600060208284031215613fbe57613fbd613bc2565b5b6000613fcc84828501613e50565b91505092915050565b60008060408385031215613fec57613feb613bc2565b5b6000613ffa85828601613d63565b925050602061400b85828601613d63565b9150509250929050565b61401e81613d42565b82525050565b60006020820190506140396000830184614015565b92915050565b61404881613f1e565b811461405357600080fd5b50565b6000813590506140658161403f565b92915050565b61407481613c51565b811461407f57600080fd5b50565b6000813590506140918161406b565b92915050565b600080604083850312156140ae576140ad613bc2565b5b60006140bc85828601614056565b92505060206140cd85828601614082565b9150509250929050565b6000806000606084860312156140f0576140ef613bc2565b5b60006140fe86828701613e50565b935050602061410f86828701613d63565b925050604061412086828701613d63565b9150509250925092565b61413381613c51565b82525050565b61414281613f1e565b82525050565b6101408201600082015161415f600085018261412a565b5060208201516141726020850182614139565b5060408201516141856040850182614139565b5060608201516141986060850182614139565b5060808201516141ab6080850182614139565b5060a08201516141be60a0850182614139565b5060c08201516141d160c0850182614139565b5060e08201516141e460e0850182614139565b506101008201516141f9610100850182614139565b5061012082015161420e610120850182614139565b50505050565b60006101408201905061422a6000830184614148565b92915050565b6000806040838503121561424757614246613bc2565b5b600061425585828601613e50565b925050602061426685828601614082565b9150509250929050565b600080fd5b600080fd5b7f4e487b7100000000000000000000000000000000000000000000000000000000600052604160045260246000fd5b6142b282613cd6565b810181811067ffffffffffffffff821117156142d1576142d061427a565b5b80604052505050565b60006142e4613bb8565b90506142f082826142a9565b919050565b600067ffffffffffffffff8211156143105761430f61427a565b5b61431982613cd6565b9050602081019050919050565b82818337600083830152505050565b6000614348614343846142f5565b6142da565b90508281526020810184848401111561436457614363614275565b5b61436f848285614326565b509392505050565b600082601f83011261438c5761438b614270565b5b813561439c848260208601614335565b91505092915050565b600080600080608085870312156143bf576143be613bc2565b5b60006143cd87828801613e50565b94505060206143de87828801613e50565b93505060406143ef87828801613d63565b925050606085013567ffffffffffffffff8111156144105761440f613bc7565b5b61441c87828801614377565b91505092959194509250565b6000819050919050565b600061444d61444861444384613da5565b614428565b613da5565b9050919050565b600061445f82614432565b9050919050565b600061447182614454565b9050919050565b61448181614466565b82525050565b600060208201905061449c6000830184614478565b92915050565b6000610140820190506144b8600083018d613c5d565b6144c5602083018c613f2b565b6144d2604083018b613f2b565b6144df606083018a613f2b565b6144ec6080830189613f2b565b6144f960a0830188613f2b565b61450660c0830187613f2b565b61451360e0830186613f2b565b614521610100830185613f2b565b61452f610120830184613f2b565b9b9a5050505050505050505050565b600061454982614454565b9050919050565b6145598161453e565b82525050565b60006020820190506145746000830184614550565b92915050565b6000806040838503121561459157614590613bc2565b5b600061459f85828601613e50565b92505060206145b085828601613e50565b9150509250929050565b7f4e487b7100000000000000000000000000000000000000000000000000000000600052602260045260246000fd5b6000600282049050600182168061460157607f821691505b60208210811415614615576146146145ba565b5b50919050565b7f4552433732313a20617070726f76656420717565727920666f72206e6f6e657860008201527f697374656e7420746f6b656e0000000000000000000000000000000000000000602082015250565b6000614677602c83613c92565b91506146828261461b565b604082019050919050565b600060208201905081810360008301526146a68161466a565b9050919050565b7f4552433732313a20617070726f76616c20746f2063757272656e74206f776e6560008201527f7200000000000000000000000000000000000000000000000000000000000000602082015250565b6000614709602183613c92565b9150614714826146ad565b604082019050919050565b60006020820190508181036000830152614738816146fc565b9050919050565b7f4552433732313a20617070726f76652063616c6c6572206973206e6f74206f7760008201527f6e6572206e6f7220617070726f76656420666f7220616c6c0000000000000000602082015250565b600061479b603883613c92565b91506147a68261473f565b604082019050919050565b600060208201905081810360008301526147ca8161478e565b9050919050565b7f4f6e6c7920636f6e74726f6c6c6572732063616e207570646174650000000000600082015250565b6000614807601b83613c92565b9150614812826147d1565b602082019050919050565b60006020820190508181036000830152614836816147fa565b9050919050565b7f4552433732313a207472616e736665722063616c6c6572206973206e6f74206f60008201527f776e6572206e6f7220617070726f766564000000000000000000000000000000602082015250565b6000614899603183613c92565b91506148a48261483d565b604082019050919050565b600060208201905081810360008301526148c88161488c565b9050919050565b7f4f776e61626c653a2063616c6c6572206973206e6f7420746865206f776e6572600082015250565b6000614905602083613c92565b9150614910826148cf565b602082019050919050565b60006020820190508181036000830152614934816148f8565b9050919050565b7f5061757361626c653a2070617573656400000000000000000000000000000000600082015250565b6000614971601083613c92565b915061497c8261493b565b602082019050919050565b600060208201905081810360008301526149a081614964565b9050919050565b7f496e76616c6964206d696e7420616d6f756e7400000000000000000000000000600082015250565b60006149dd601383613c92565b91506149e8826149a7565b602082019050919050565b60006020820190508181036000830152614a0c816149d0565b9050919050565b7f4e487b7100000000000000000000000000000000000000000000000000000000600052601160045260246000fd5b6000614a4d82613d42565b9150614a5883613d42565b9250817fffffffffffffffffffffffffffffffffffffffffffffffffffffffffffffffff0483118215151615614a9157614a90614a13565b5b828202905092915050565b7f496e76616c6964207061796d656e7420616d6f756e7400000000000000000000600082015250565b6000614ad2601683613c92565b9150614add82614a9c565b602082019050919050565b60006020820190508181036000830152614b0181614ac5565b9050919050565b6000614b1382613e01565b915061ffff821415614b2857614b27614a13565b5b600182019050919050565b7f4e487b7100000000000000000000000000000000000000000000000000000000600052603260045260246000fd5b6000614b6d82613d42565b91507fffffffffffffffffffffffffffffffffffffffffffffffffffffffffffffffff821415614ba057614b9f614a13565b5b600182019050919050565b600081519050919050565b600082825260208201905092915050565b6000819050602082019050919050565b614be081613e01565b82525050565b6000614bf28383614bd7565b60208301905092915050565b6000602082019050919050565b6000614c1682614bab565b614c208185614bb6565b9350614c2b83614bc7565b8060005b83811015614c5c578151614c438882614be6565b9750614c4e83614bfe565b925050600181019050614c2f565b5085935050505092915050565b6000604082019050614c7e6000830185613dd7565b8181036020830152614c908184614c0b565b90509392505050565b7f4552433732313a206f776e657220717565727920666f72206e6f6e657869737460008201527f656e7420746f6b656e0000000000000000000000000000000000000000000000602082015250565b6000614cf5602983613c92565b9150614d0082614c99565b604082019050919050565b60006020820190508181036000830152614d2481614ce8565b9050919050565b7f4552433732313a2062616c616e636520717565727920666f7220746865207a6560008201527f726f206164647265737300000000000000000000000000000000000000000000602082015250565b6000614d87602a83613c92565b9150614d9282614d2b565b604082019050919050565b60006020820190508181036000830152614db681614d7a565b9050919050565b7f496e697469616c697a61626c653a20636f6e747261637420697320616c72656160008201527f647920696e697469616c697a6564000000000000000000000000000000000000602082015250565b6000614e19602e83613c92565b9150614e2482614dbd565b604082019050919050565b60006020820190508181036000830152614e4881614e0c565b9050919050565b7f4e487b7100000000000000000000000000000000000000000000000000000000600052601260045260246000fd5b6000614e8982613d42565b9150614e9483613d42565b925082614ea457614ea3614e4f565b5b828204905092915050565b7f4552433732314d657461646174613a2055524920717565727920666f72206e6f60008201527f6e2d6578697374656e7420746f6b656e00000000000000000000000000000000602082015250565b6000614f0b603083613c92565b9150614f1682614eaf565b604082019050919050565b60006020820190508181036000830152614f3a81614efe565b9050919050565b600067ffffffffffffffff821115614f5c57614f5b61427a565b5b614f6582613cd6565b9050602081019050919050565b6000614f85614f8084614f41565b6142da565b905082815260208101848484011115614fa157614fa0614275565b5b614fac848285613ca3565b509392505050565b600082601f830112614fc957614fc8614270565b5b8151614fd9848260208601614f72565b91505092915050565b600060208284031215614ff857614ff7613bc2565b5b600082015167ffffffffffffffff81111561501657615015613bc7565b5b61502284828501614fb4565b91505092915050565b7f4f776e61626c653a206e6577206f776e657220697320746865207a65726f206160008201527f6464726573730000000000000000000000000000000000000000000000000000602082015250565b6000615087602683613c92565b91506150928261502b565b604082019050919050565b600060208201905081810360008301526150b68161507a565b9050919050565b60006150c882613f1e565b91506150d383613f1e565b92508260ff038211156150e9576150e8614a13565b5b828201905092915050565b60006150ff82613ea5565b91507fffffffffffffffffffffffffffffffffffffffffffffffffffffffffffffff8082141561513257615131614a13565b5b816000039050919050565b600061514882613f1e565b915061515383613f1e565b92508282101561516657615165614a13565b5b828203905092915050565b7f4552433732313a206f70657261746f7220717565727920666f72206e6f6e657860008201527f697374656e7420746f6b656e0000000000000000000000000000000000000000602082015250565b60006151cd602c83613c92565b91506151d882615171565b604082019050919050565b600060208201905081810360008301526151fc816151c0565b9050919050565b7f4552433732313a207472616e73666572206f6620746f6b656e2074686174206960008201527f73206e6f74206f776e0000000000000000000000000000000000000000000000602082015250565b600061525f602983613c92565b915061526a82615203565b604082019050919050565b6000602082019050818103600083015261528e81615252565b9050919050565b7f4552433732313a207472616e7366657220746f20746865207a65726f2061646460008201527f7265737300000000000000000000000000000000000000000000000000000000602082015250565b60006152f1602483613c92565b91506152fc82615295565b604082019050919050565b60006020820190508181036000830152615320816152e4565b9050919050565b600061533282613d42565b915061533d83613d42565b9250828210156153505761534f614a13565b5b828203905092915050565b600061536682613d42565b915061537183613d42565b9250827fffffffffffffffffffffffffffffffffffffffffffffffffffffffffffffffff038211156153a6576153a5614a13565b5b828201905092915050565b60008160601b9050919050565b60006153c9826153b1565b9050919050565b60006153db826153be565b9050919050565b6153f36153ee82613dc5565b6153d0565b82525050565b6000819050919050565b6000819050919050565b61541e615419826153f9565b615403565b82525050565b6000819050919050565b61543f61543a82613d42565b615424565b82525050565b600061545182876153e2565b601482019150615461828661540d565b602082019150615471828561542e565b602082019150615481828461542e565b60208201915081905095945050505050565b7f496e697469616c697a61626c653a20636f6e7472616374206973206e6f74206960008201527f6e697469616c697a696e67000000000000000000000000000000000000000000602082015250565b60006154ef602b83613c92565b91506154fa82615493565b604082019050919050565b6000602082019050818103600083015261551e816154e2565b9050919050565b7f4552433732313a20617070726f766520746f2063616c6c657200000000000000600082015250565b600061555b601983613c92565b915061556682615525565b602082019050919050565b6000602082019050818103600083015261558a8161554e565b9050919050565b7f4552433732313a207472616e7366657220746f206e6f6e20455243373231526560008201527f63656976657220696d706c656d656e7465720000000000000000000000000000602082015250565b60006155ed603283613c92565b91506155f882615591565b604082019050919050565b6000602082019050818103600083015261561c816155e0565b9050919050565b600061562e82613d42565b915061563983613d42565b92508261564957615648614e4f565b5b828206905092915050565b60008160f81b9050919050565b600061566c82615654565b9050919050565b600061567e82615661565b9050919050565b61569661569182613c51565b615673565b82525050565b6156ad6156a882613f1e565b615661565b82525050565b60006156bf828b615685565b6001820191506156cf828a61569c565b6001820191506156df828961569c565b6001820191506156ef828861569c565b6001820191506156ff828761569c565b60018201915061570f828661569c565b60018201915061571f828561569c565b60018201915061572f828461569c565b6001820191508190509998505050505050505050565b600081519050919050565b6000819050602082019050919050565b600061576c82516153f9565b80915050919050565b600082821b905092915050565b600061578d82615745565b8261579784615750565b90506157a281615760565b925060208210156157e2576157dd7fffffffffffffffffffffffffffffffffffffffffffffffffffffffffffffffff83602003600802615775565b831692505b5050919050565b600082825260208201905092915050565b600061580582615745565b61580f81856157e9565b935061581f818560208601613ca3565b61582881613cd6565b840191505092915050565b60006080820190506158486000830187613dd7565b6158556020830186613dd7565b6158626040830185614015565b818103606083015261587481846157fa565b905095945050505050565b60008151905061588e81613bf8565b92915050565b6000602082840312156158aa576158a9613bc2565b5b60006158b88482850161587f565b91505092915050565b60006158cc82613f1e565b91506158d783613f1e565b9250826158e7576158e6614e4f565b5b828206905092915050565b60006158fd82613f1e565b915061590883613f1e565b92508160ff048311821515161561592257615921614a13565b5b828202905092915050565b7f4552433732313a206d696e7420746f20746865207a65726f2061646472657373600082015250565b6000615963602083613c92565b915061596e8261592d565b602082019050919050565b6000602082019050818103600083015261599281615956565b9050919050565b7f4552433732313a20746f6b656e20616c7265616479206d696e74656400000000600082015250565b60006159cf601c83613c92565b91506159da82615999565b602082019050919050565b600060208201905081810360008301526159fe816159c2565b905091905056fea2646970667358221220d87d8809921683c87777ba8f792a95684774fbf83e3c18a6e95bcfac490d344f64736f6c634300080a0033",
  "immutableReferences": {},
  "source": "// SPDX-License-Identifier: MIT\n\npragma solidity ^0.8.0;\n\nimport \"@openzeppelin/contracts-upgradeable/proxy/utils/Initializable.sol\";\nimport \"@openzeppelin/contracts-upgradeable/access/OwnableUpgradeable.sol\";\nimport \"@openzeppelin/contracts-upgradeable/security/PausableUpgradeable.sol\";\nimport \"@openzeppelin/contracts-upgradeable/token/ERC721/ERC721Upgradeable.sol\";\nimport \"./IChefRat.sol\";\nimport \"./IKitchenPack.sol\";\nimport \"./ITraits.sol\";\n\ncontract ChefRat is IChefRat, Initializable, OwnableUpgradeable, PausableUpgradeable, ERC721Upgradeable {\n  uint16 public minted;\n  uint16 public numChefs;\n  uint16 public numRats;\n  uint256 public mintPrice;\n  uint256 public MAX_TOKENS; // Max number of tokens that can be minted - 50000 in production\n  uint256 public PAID_TOKENS; // Number of tokens that can be claimed for free - 20% of MAX_TOKENS\n\n  mapping(uint256 => ChefRatStruct) public tokenTraits; // Mapping from tokenId to a struct containing the token's traits\n  mapping(uint256 => uint256) public existingCombinations; // Mapping from hashed(tokenTrait) to the tokenId it's associated with, used to ensure there are no duplicates\n  mapping(address => bool) controllers; // a mapping from an address to whether or not it can mint / burn\n  uint8[][18] public rarities; // List of probabilities for each trait type, 0 - 9 are associated with Chefs, 10 - 18 are associated with Rats\n\n  ITraits public traits; // Reference to Traits\n  IKitchenPack public kitchenPack;\n\n  function initialize(address _traits, uint256 _maxTokens, uint256 _mintPrice) external initializer {\n    __Ownable_init();\n    __Pausable_init();\n    __ERC721_init(\"RatAlert Chefs & Rats\", \"CHEFRAT\");\n\n    minted = 0;\n    numChefs = 0;\n    numRats = 0;\n    traits = ITraits(_traits);\n    MAX_TOKENS = _maxTokens;\n    PAID_TOKENS = _maxTokens / 5;\n    mintPrice = _mintPrice;\n\n    // Chefs\n    rarities[2] = [255, 223, 191, 159, 127, 95]; // hat\n    rarities[3] = [255, 223, 191, 159, 127, 95, 63, 31]; // eyes\n    rarities[4] = [255, 223, 191, 159, 127, 95]; // mouth\n    rarities[5] = [255, 207, 159, 111, 63, 15]; // neck\n    rarities[6] = [255, 223, 191, 159, 127, 95]; // hand\n    // Rats\n    rarities[12] = [255, 223, 191, 159, 127, 95]; // hat\n    rarities[13] = [255, 223, 191, 159, 127, 95, 63, 31]; // eyes\n    rarities[14] = [255, 223, 191, 159, 127, 95]; // piercing\n    rarities[15] = [255, 207, 159, 111, 63, 15]; // neck\n    rarities[16] = [255, 223, 191, 159, 127, 95]; // tail\n  }\n\n  /**\n   * Mints a new ERC721 token: 90% chefs, 10% rats\n   * The first 20% are free to claim, the remaining cost $FFOOD\n   * @param amount Number of tokens to mint\n   */\n  function mint(uint8 amount, bool stake) external payable whenNotPaused {\n    require(amount > 0 && amount <= 10, \"Invalid mint amount\");\n    require(amount * mintPrice == msg.value, \"Invalid payment amount\");\n\n    uint16[] memory tokenIds = stake ? new uint16[](amount) : new uint16[](0);\n    uint256 seed;\n    ChefRatStruct memory s;\n    for (uint i = 0; i < amount; i++) {\n      minted++;\n      seed = random(minted);\n      s = generate(minted, seed);\n      if (stake) {\n        _safeMint(address(kitchenPack), minted);\n        tokenIds[i] = minted;\n      } else {\n        _safeMint(_msgSender(), minted);\n      }\n      s.isChef ? numChefs++ : numRats++;\n    }\n    if (stake) kitchenPack.stakeMany(_msgSender(), tokenIds);\n  }\n\n  /**\n   * Generates traits for a specific token, checking to make sure it's unique\n   * @param tokenId - The id of the token to generate traits for\n   * @param seed - A pseudorandom 256 bit number to derive traits from\n   * @return t - A struct of traits for the given token ID\n   */\n  function generate(uint256 tokenId, uint256 seed) internal returns (ChefRatStruct memory t) {\n    t = selectTraits(seed);\n    uint256 hash = structToHash(t);\n    if (existingCombinations[hash] == 0) {\n      tokenTraits[tokenId] = t;\n      existingCombinations[hash] = tokenId;\n      return t;\n    }\n    return generate(tokenId, random(seed));\n  }\n\n  /**\n   * Selects the species and all of its traits based on the seed value\n   * @param seed - A pseudorandom 256 bit number to derive traits from\n   * @return t -  A struct of randomly selected traits\n   */\n  function selectTraits(uint256 seed) internal view returns (ChefRatStruct memory t) {\n    t.isChef = (seed & 0xFFFF) % 10 != 0;\n    if (t.isChef) {\n      t.hat = selectTrait(seed, 2);\n      t.eyes = selectTrait(seed, 3);\n      t.mouth = selectTrait(seed, 4);\n      t.neck = selectTrait(seed, 5);\n      t.hand = selectTrait(seed, 6);\n    } else {\n      t.hat = selectTrait(seed, 12);\n      t.eyes = selectTrait(seed, 13);\n      t.piercing = selectTrait(seed, 14);\n      t.neck = selectTrait(seed, 15);\n      t.tail = selectTrait(seed, 16);\n    }\n    return t;\n  }\n\n  /**\n   * Uses A.J. Walker's Alias algorithm for O(1) rarity table lookup\n   * ensuring O(1) instead of O(n) reduces mint cost by more than 50%\n   * probability & alias tables are generated off-chain beforehand\n   * @param seed - Portion of the 256 bit seed to remove trait correlation\n   * @param traitIndex - The trait index to select a trait for\n   * @return The ID of the randomly selected trait\n   */\n  function selectTrait(uint256 seed, uint8 traitIndex) internal view returns (uint8) {\n    seed = seed >>= (traitIndex % 10 * 16);\n    uint8 trait = uint8(seed) % uint8(rarities[traitIndex].length); // Selected trait index\n    uint8 rand = uint8(seed & 0xFFFF >> 8); // Random integer from 0 to 255\n    if (rand <= rarities[traitIndex][trait]) return trait;\n    return 0;\n  }\n\n  /**\n   * Converts a struct to a 256 bit hash to check for uniqueness\n   * @param s - The struct to pack into a hash\n   * @return The 256 bit hash of the struct\n   */\n  function structToHash(ChefRatStruct memory s) internal pure returns (uint256) {\n    return uint256(bytes32(\n      abi.encodePacked(\n        s.isChef,\n        s.hat,\n        s.eyes,\n        s.piercing,\n        s.mouth,\n        s.neck,\n        s.hand,\n        s.tail\n      )\n    ));\n  }\n\n  function getUpdatedValue(uint8 old, int8 increment) internal pure returns(uint8) {\n    if (increment >= 0) {\n      return (uint8(increment) + old > 100) ? 100 : old + uint8(increment);\n    } else {\n      return (uint8(-increment) > old) ? 0 : old - uint8(-increment);\n    }\n  }\n\n  function updateEfficiency(uint256 tokenId, int8 increment) public returns(uint8) {\n    require(controllers[msg.sender], \"Only controllers can update\");\n    uint8 value = getUpdatedValue(tokenTraits[tokenId].efficiency, increment);\n    tokenTraits[tokenId].efficiency = value;\n    return value;\n  }\n\n  function updateTolerance(uint256 tokenId, int8 increment) public returns(uint8) {\n    require(controllers[msg.sender], \"Only controllers can update\");\n    uint8 value = getUpdatedValue(tokenTraits[tokenId].tolerance, increment);\n    tokenTraits[tokenId].tolerance = value;\n    return value;\n  }\n\n  function tokenURI(uint256 tokenId) public view override returns (string memory) {\n    require(_exists(tokenId), \"ERC721Metadata: URI query for non-existent token\");\n    return traits.tokenURI(tokenId);\n  }\n\n  function getTokenTraits(uint256 tokenId) external view override returns (ChefRatStruct memory) {\n    require(_exists(tokenId), \"ERC721Metadata: URI query for non-existent token\");\n    return tokenTraits[tokenId];\n  }\n\n  function getPaidTokens() external view override returns (uint256) {\n    return PAID_TOKENS;\n  }\n\n  /**\n   * Gets controller status by address\n   * @param controller the address to check\n   */\n  function getController(address controller) external view onlyOwner returns (bool) {\n    return controllers[controller];\n  }\n\n  /**\n   * Enables an address to mint / burn\n   * @param controller the address to enable\n   */\n  function addController(address controller) external onlyOwner {\n    controllers[controller] = true;\n  }\n\n  /**\n   * Disables an address from minting / burning\n   * @param controller the address to disable\n   */\n  function removeController(address controller) external onlyOwner {\n    controllers[controller] = false;\n  }\n\n  /**\n   * called after deployment to avoid cyclical dependencies\n   * @param _kitchenPack the address of the KitchenPack\n   */\n  function setKitchenPack(address _kitchenPack) external onlyOwner {\n    kitchenPack = IKitchenPack(_kitchenPack);\n  }\n\n  /**\n   * Generates a pseudorandom number\n   * @param seed A value ensure different outcomes for different sources in the same block\n   * @return A pseudorandom value\n   */\n  function random(uint256 seed) internal view returns (uint256) {\n    return uint256(keccak256(abi.encodePacked(\n      tx.origin,\n      blockhash(block.number - 1),\n      block.timestamp,\n      seed\n    )));\n  }\n}\n",
  "sourcePath": "/Users/chris/workspace/ratalert/ratalert-contracts/contracts/ChefRat.sol",
  "compiler": {
    "name": "solc",
    "version": "0.8.10+commit.fc410830.Emscripten.clang"
  },
  "schemaVersion": "3.4.4",
  "updatedAt": "2022-01-30T00:10:06.929Z",
  "networkType": "ethereum",
  "devdoc": {
    "kind": "dev",
    "methods": {
      "addController(address)": {
        "params": {
          "controller": "the address to enable"
        }
      },
      "approve(address,uint256)": {
        "details": "See {IERC721-approve}."
      },
      "balanceOf(address)": {
        "details": "See {IERC721-balanceOf}."
      },
      "getApproved(uint256)": {
        "details": "See {IERC721-getApproved}."
      },
      "getController(address)": {
        "params": {
          "controller": "the address to check"
        }
      },
      "isApprovedForAll(address,address)": {
        "details": "See {IERC721-isApprovedForAll}."
      },
      "mint(uint8,bool)": {
        "params": {
          "amount": "Number of tokens to mint"
        }
      },
      "name()": {
        "details": "See {IERC721Metadata-name}."
      },
      "owner()": {
        "details": "Returns the address of the current owner."
      },
      "ownerOf(uint256)": {
        "details": "See {IERC721-ownerOf}."
      },
      "paused()": {
        "details": "Returns true if the contract is paused, and false otherwise."
      },
      "removeController(address)": {
        "params": {
          "controller": "the address to disable"
        }
      },
      "renounceOwnership()": {
        "details": "Leaves the contract without owner. It will not be possible to call `onlyOwner` functions anymore. Can only be called by the current owner. NOTE: Renouncing ownership will leave the contract without an owner, thereby removing any functionality that is only available to the owner."
      },
      "safeTransferFrom(address,address,uint256)": {
        "details": "See {IERC721-safeTransferFrom}."
      },
      "safeTransferFrom(address,address,uint256,bytes)": {
        "details": "See {IERC721-safeTransferFrom}."
      },
      "setApprovalForAll(address,bool)": {
        "details": "See {IERC721-setApprovalForAll}."
      },
      "setKitchenPack(address)": {
        "params": {
          "_kitchenPack": "the address of the KitchenPack"
        }
      },
      "supportsInterface(bytes4)": {
        "details": "See {IERC165-supportsInterface}."
      },
      "symbol()": {
        "details": "See {IERC721Metadata-symbol}."
      },
      "tokenURI(uint256)": {
        "details": "See {IERC721Metadata-tokenURI}."
      },
      "transferFrom(address,address,uint256)": {
        "details": "See {IERC721-transferFrom}."
      },
      "transferOwnership(address)": {
        "details": "Transfers ownership of the contract to a new account (`newOwner`). Can only be called by the current owner."
      }
    },
    "version": 1
  },
  "userdoc": {
    "kind": "user",
    "methods": {
      "addController(address)": {
        "notice": "Enables an address to mint / burn"
      },
      "getController(address)": {
        "notice": "Gets controller status by address"
      },
      "mint(uint8,bool)": {
        "notice": "Mints a new ERC721 token: 90% chefs, 10% rats The first 20% are free to claim, the remaining cost $FFOOD"
      },
      "removeController(address)": {
        "notice": "Disables an address from minting / burning"
      },
      "setKitchenPack(address)": {
        "notice": "called after deployment to avoid cyclical dependencies"
      }
    },
    "version": 1
  }
}