{
  "contractName": "ChefRat",
  "abi": [
    {
      "anonymous": false,
      "inputs": [
        {
          "indexed": true,
          "internalType": "address",
          "name": "owner",
          "type": "address"
        },
        {
          "indexed": true,
          "internalType": "address",
          "name": "approved",
          "type": "address"
        },
        {
          "indexed": true,
          "internalType": "uint256",
          "name": "tokenId",
          "type": "uint256"
        }
      ],
      "name": "Approval",
      "type": "event"
    },
    {
      "anonymous": false,
      "inputs": [
        {
          "indexed": true,
          "internalType": "address",
          "name": "owner",
          "type": "address"
        },
        {
          "indexed": true,
          "internalType": "address",
          "name": "operator",
          "type": "address"
        },
        {
          "indexed": false,
          "internalType": "bool",
          "name": "approved",
          "type": "bool"
        }
      ],
      "name": "ApprovalForAll",
      "type": "event"
    },
    {
      "anonymous": false,
      "inputs": [
        {
          "indexed": true,
          "internalType": "address",
          "name": "previousOwner",
          "type": "address"
        },
        {
          "indexed": true,
          "internalType": "address",
          "name": "newOwner",
          "type": "address"
        }
      ],
      "name": "OwnershipTransferred",
      "type": "event"
    },
    {
      "anonymous": false,
      "inputs": [
        {
          "indexed": false,
          "internalType": "address",
          "name": "account",
          "type": "address"
        }
      ],
      "name": "Paused",
      "type": "event"
    },
    {
      "anonymous": false,
      "inputs": [
        {
          "indexed": true,
          "internalType": "address",
          "name": "from",
          "type": "address"
        },
        {
          "indexed": true,
          "internalType": "address",
          "name": "to",
          "type": "address"
        },
        {
          "indexed": true,
          "internalType": "uint256",
          "name": "tokenId",
          "type": "uint256"
        }
      ],
      "name": "Transfer",
      "type": "event"
    },
    {
      "anonymous": false,
      "inputs": [
        {
          "indexed": false,
          "internalType": "address",
          "name": "account",
          "type": "address"
        }
      ],
      "name": "Unpaused",
      "type": "event"
    },
    {
      "inputs": [],
      "name": "MAX_TOKENS",
      "outputs": [
        {
          "internalType": "uint256",
          "name": "",
          "type": "uint256"
        }
      ],
      "stateMutability": "view",
      "type": "function",
      "constant": true
    },
    {
      "inputs": [],
      "name": "MINT_PRICE",
      "outputs": [
        {
          "internalType": "uint256",
          "name": "",
          "type": "uint256"
        }
      ],
      "stateMutability": "view",
      "type": "function",
      "constant": true
    },
    {
      "inputs": [],
      "name": "PAID_TOKENS",
      "outputs": [
        {
          "internalType": "uint256",
          "name": "",
          "type": "uint256"
        }
      ],
      "stateMutability": "view",
      "type": "function",
      "constant": true
    },
    {
      "inputs": [
        {
          "internalType": "address",
          "name": "to",
          "type": "address"
        },
        {
          "internalType": "uint256",
          "name": "tokenId",
          "type": "uint256"
        }
      ],
      "name": "approve",
      "outputs": [],
      "stateMutability": "nonpayable",
      "type": "function"
    },
    {
      "inputs": [
        {
          "internalType": "address",
          "name": "owner",
          "type": "address"
        }
      ],
      "name": "balanceOf",
      "outputs": [
        {
          "internalType": "uint256",
          "name": "",
          "type": "uint256"
        }
      ],
      "stateMutability": "view",
      "type": "function",
      "constant": true
    },
    {
      "inputs": [
        {
          "internalType": "uint256",
          "name": "",
          "type": "uint256"
        }
      ],
      "name": "existingCombinations",
      "outputs": [
        {
          "internalType": "uint256",
          "name": "",
          "type": "uint256"
        }
      ],
      "stateMutability": "view",
      "type": "function",
      "constant": true
    },
    {
      "inputs": [
        {
          "internalType": "uint256",
          "name": "tokenId",
          "type": "uint256"
        }
      ],
      "name": "getApproved",
      "outputs": [
        {
          "internalType": "address",
          "name": "",
          "type": "address"
        }
      ],
      "stateMutability": "view",
      "type": "function",
      "constant": true
    },
    {
      "inputs": [
        {
          "internalType": "address",
          "name": "owner",
          "type": "address"
        },
        {
          "internalType": "address",
          "name": "operator",
          "type": "address"
        }
      ],
      "name": "isApprovedForAll",
      "outputs": [
        {
          "internalType": "bool",
          "name": "",
          "type": "bool"
        }
      ],
      "stateMutability": "view",
      "type": "function",
      "constant": true
    },
    {
      "inputs": [],
      "name": "kitchenPack",
      "outputs": [
        {
          "internalType": "contract IKitchenPack",
          "name": "",
          "type": "address"
        }
      ],
      "stateMutability": "view",
      "type": "function",
      "constant": true
    },
    {
      "inputs": [],
      "name": "minted",
      "outputs": [
        {
          "internalType": "uint16",
          "name": "",
          "type": "uint16"
        }
      ],
      "stateMutability": "view",
      "type": "function",
      "constant": true
    },
    {
      "inputs": [],
      "name": "name",
      "outputs": [
        {
          "internalType": "string",
          "name": "",
          "type": "string"
        }
      ],
      "stateMutability": "view",
      "type": "function",
      "constant": true
    },
    {
      "inputs": [],
      "name": "numChefs",
      "outputs": [
        {
          "internalType": "uint16",
          "name": "",
          "type": "uint16"
        }
      ],
      "stateMutability": "view",
      "type": "function",
      "constant": true
    },
    {
      "inputs": [],
      "name": "numRats",
      "outputs": [
        {
          "internalType": "uint16",
          "name": "",
          "type": "uint16"
        }
      ],
      "stateMutability": "view",
      "type": "function",
      "constant": true
    },
    {
      "inputs": [],
      "name": "owner",
      "outputs": [
        {
          "internalType": "address",
          "name": "",
          "type": "address"
        }
      ],
      "stateMutability": "view",
      "type": "function",
      "constant": true
    },
    {
      "inputs": [
        {
          "internalType": "uint256",
          "name": "tokenId",
          "type": "uint256"
        }
      ],
      "name": "ownerOf",
      "outputs": [
        {
          "internalType": "address",
          "name": "",
          "type": "address"
        }
      ],
      "stateMutability": "view",
      "type": "function",
      "constant": true
    },
    {
      "inputs": [],
      "name": "paused",
      "outputs": [
        {
          "internalType": "bool",
          "name": "",
          "type": "bool"
        }
      ],
      "stateMutability": "view",
      "type": "function",
      "constant": true
    },
    {
      "inputs": [
        {
          "internalType": "uint256",
          "name": "",
          "type": "uint256"
        },
        {
          "internalType": "uint256",
          "name": "",
          "type": "uint256"
        }
      ],
      "name": "rarities",
      "outputs": [
        {
          "internalType": "uint8",
          "name": "",
          "type": "uint8"
        }
      ],
      "stateMutability": "view",
      "type": "function",
      "constant": true
    },
    {
      "inputs": [],
      "name": "renounceOwnership",
      "outputs": [],
      "stateMutability": "nonpayable",
      "type": "function"
    },
    {
      "inputs": [
        {
          "internalType": "address",
          "name": "from",
          "type": "address"
        },
        {
          "internalType": "address",
          "name": "to",
          "type": "address"
        },
        {
          "internalType": "uint256",
          "name": "tokenId",
          "type": "uint256"
        }
      ],
      "name": "safeTransferFrom",
      "outputs": [],
      "stateMutability": "nonpayable",
      "type": "function"
    },
    {
      "inputs": [
        {
          "internalType": "address",
          "name": "from",
          "type": "address"
        },
        {
          "internalType": "address",
          "name": "to",
          "type": "address"
        },
        {
          "internalType": "uint256",
          "name": "tokenId",
          "type": "uint256"
        },
        {
          "internalType": "bytes",
          "name": "_data",
          "type": "bytes"
        }
      ],
      "name": "safeTransferFrom",
      "outputs": [],
      "stateMutability": "nonpayable",
      "type": "function"
    },
    {
      "inputs": [
        {
          "internalType": "address",
          "name": "operator",
          "type": "address"
        },
        {
          "internalType": "bool",
          "name": "approved",
          "type": "bool"
        }
      ],
      "name": "setApprovalForAll",
      "outputs": [],
      "stateMutability": "nonpayable",
      "type": "function"
    },
    {
      "inputs": [
        {
          "internalType": "bytes4",
          "name": "interfaceId",
          "type": "bytes4"
        }
      ],
      "name": "supportsInterface",
      "outputs": [
        {
          "internalType": "bool",
          "name": "",
          "type": "bool"
        }
      ],
      "stateMutability": "view",
      "type": "function",
      "constant": true
    },
    {
      "inputs": [],
      "name": "symbol",
      "outputs": [
        {
          "internalType": "string",
          "name": "",
          "type": "string"
        }
      ],
      "stateMutability": "view",
      "type": "function",
      "constant": true
    },
    {
      "inputs": [
        {
          "internalType": "uint256",
          "name": "",
          "type": "uint256"
        }
      ],
      "name": "tokenTraits",
      "outputs": [
        {
          "internalType": "bool",
          "name": "isChef",
          "type": "bool"
        },
        {
          "internalType": "uint8",
          "name": "hat",
          "type": "uint8"
        },
        {
          "internalType": "uint8",
          "name": "eyes",
          "type": "uint8"
        },
        {
          "internalType": "uint8",
          "name": "piercing",
          "type": "uint8"
        },
        {
          "internalType": "uint8",
          "name": "mouth",
          "type": "uint8"
        },
        {
          "internalType": "uint8",
          "name": "neck",
          "type": "uint8"
        },
        {
          "internalType": "uint8",
          "name": "hand",
          "type": "uint8"
        },
        {
          "internalType": "uint8",
          "name": "tail",
          "type": "uint8"
        },
        {
          "internalType": "uint8",
          "name": "efficiency",
          "type": "uint8"
        },
        {
          "internalType": "uint8",
          "name": "tolerance",
          "type": "uint8"
        }
      ],
      "stateMutability": "view",
      "type": "function",
      "constant": true
    },
    {
      "inputs": [],
      "name": "traits",
      "outputs": [
        {
          "internalType": "contract ITraits",
          "name": "",
          "type": "address"
        }
      ],
      "stateMutability": "view",
      "type": "function",
      "constant": true
    },
    {
      "inputs": [
        {
          "internalType": "address",
          "name": "from",
          "type": "address"
        },
        {
          "internalType": "address",
          "name": "to",
          "type": "address"
        },
        {
          "internalType": "uint256",
          "name": "tokenId",
          "type": "uint256"
        }
      ],
      "name": "transferFrom",
      "outputs": [],
      "stateMutability": "nonpayable",
      "type": "function"
    },
    {
      "inputs": [
        {
          "internalType": "address",
          "name": "newOwner",
          "type": "address"
        }
      ],
      "name": "transferOwnership",
      "outputs": [],
      "stateMutability": "nonpayable",
      "type": "function"
    },
    {
      "inputs": [
        {
          "internalType": "address",
          "name": "_traits",
          "type": "address"
        },
        {
          "internalType": "uint256",
          "name": "_maxTokens",
          "type": "uint256"
        }
      ],
      "name": "initialize",
      "outputs": [],
      "stateMutability": "nonpayable",
      "type": "function"
    },
    {
      "inputs": [
        {
          "internalType": "uint8",
          "name": "amount",
          "type": "uint8"
        },
        {
          "internalType": "bool",
          "name": "stake",
          "type": "bool"
        }
      ],
      "name": "mint",
      "outputs": [],
      "stateMutability": "payable",
      "type": "function",
      "payable": true
    },
    {
      "inputs": [
        {
          "internalType": "uint256",
          "name": "tokenId",
          "type": "uint256"
        },
        {
          "internalType": "int8",
          "name": "increment",
          "type": "int8"
        }
      ],
      "name": "updateEfficiency",
      "outputs": [
        {
          "internalType": "uint8",
          "name": "",
          "type": "uint8"
        }
      ],
      "stateMutability": "nonpayable",
      "type": "function"
    },
    {
      "inputs": [
        {
          "internalType": "uint256",
          "name": "tokenId",
          "type": "uint256"
        },
        {
          "internalType": "int8",
          "name": "increment",
          "type": "int8"
        }
      ],
      "name": "updateTolerance",
      "outputs": [
        {
          "internalType": "uint8",
          "name": "",
          "type": "uint8"
        }
      ],
      "stateMutability": "nonpayable",
      "type": "function"
    },
    {
      "inputs": [
        {
          "internalType": "uint256",
          "name": "tokenId",
          "type": "uint256"
        }
      ],
      "name": "tokenURI",
      "outputs": [
        {
          "internalType": "string",
          "name": "",
          "type": "string"
        }
      ],
      "stateMutability": "view",
      "type": "function",
      "constant": true
    },
    {
      "inputs": [
        {
          "internalType": "uint256",
          "name": "tokenId",
          "type": "uint256"
        }
      ],
      "name": "getTokenTraits",
      "outputs": [
        {
          "components": [
            {
              "internalType": "bool",
              "name": "isChef",
              "type": "bool"
            },
            {
              "internalType": "uint8",
              "name": "hat",
              "type": "uint8"
            },
            {
              "internalType": "uint8",
              "name": "eyes",
              "type": "uint8"
            },
            {
              "internalType": "uint8",
              "name": "piercing",
              "type": "uint8"
            },
            {
              "internalType": "uint8",
              "name": "mouth",
              "type": "uint8"
            },
            {
              "internalType": "uint8",
              "name": "neck",
              "type": "uint8"
            },
            {
              "internalType": "uint8",
              "name": "hand",
              "type": "uint8"
            },
            {
              "internalType": "uint8",
              "name": "tail",
              "type": "uint8"
            },
            {
              "internalType": "uint8",
              "name": "efficiency",
              "type": "uint8"
            },
            {
              "internalType": "uint8",
              "name": "tolerance",
              "type": "uint8"
            }
          ],
          "internalType": "struct IChefRat.ChefRatStruct",
          "name": "",
          "type": "tuple"
        }
      ],
      "stateMutability": "view",
      "type": "function",
      "constant": true
    },
    {
      "inputs": [],
      "name": "getPaidTokens",
      "outputs": [
        {
          "internalType": "uint256",
          "name": "",
          "type": "uint256"
        }
      ],
      "stateMutability": "view",
      "type": "function",
      "constant": true
    },
    {
      "inputs": [
        {
          "internalType": "address",
          "name": "controller",
          "type": "address"
        }
      ],
      "name": "getController",
      "outputs": [
        {
          "internalType": "bool",
          "name": "",
          "type": "bool"
        }
      ],
      "stateMutability": "view",
      "type": "function",
      "constant": true
    },
    {
      "inputs": [
        {
          "internalType": "address",
          "name": "controller",
          "type": "address"
        }
      ],
      "name": "addController",
      "outputs": [],
      "stateMutability": "nonpayable",
      "type": "function"
    },
    {
      "inputs": [
        {
          "internalType": "address",
          "name": "controller",
          "type": "address"
        }
      ],
      "name": "removeController",
      "outputs": [],
      "stateMutability": "nonpayable",
      "type": "function"
    },
    {
      "inputs": [
        {
          "internalType": "address",
          "name": "_kitchenPack",
          "type": "address"
        }
      ],
      "name": "setKitchenPack",
      "outputs": [],
      "stateMutability": "nonpayable",
      "type": "function"
    }
  ],
  "bytecode": "0x608060405234801561001057600080fd5b506159e980620000216000396000f3fe6080604052600436106102255760003560e01c80638da5cb5b11610123578063c87b56dd116100ab578063e1fc334f1161006f578063e1fc334f14610863578063e985e9c51461088e578063f2fde38b146108cb578063f47c84c5146108f4578063f6a74ed71461091f57610225565b8063c87b56dd14610761578063cd6dc6871461079e578063d0f7c374146107c7578063d39f8a4d146107f2578063e05c57bf1461081d57610225565b8063a22cb465116100f2578063a22cb46514610690578063a7fc7a07146106b9578063b88d4fde146106e2578063c002d23d1461070b578063c084f5401461073657610225565b80638da5cb5b146105c057806394e56847146105eb57806395d89b4114610628578063a1b8f3741461065357610225565b80634018b1f8116101b15780636352211e116101755780636352211e146104b557806366ffcf99146104f257806370a082311461052f578063715018a61461056c57806388c662aa1461058357610225565b80634018b1f8146103ef57806342842e0e1461041a5780634f02c420146104435780635c975abb1461046e578063612bfba41461049957610225565b8063095ea7b3116101f8578063095ea7b3146102fa5780632373e1271461032357806323b872dd14610360578063256dfd541461038957806333df4b2c146103b257610225565b806301ffc9a71461022a57806306fdde0314610267578063081812fc146102925780630917e40d146102cf575b600080fd5b34801561023657600080fd5b50610251600480360381019061024c9190613c25565b610948565b60405161025e9190613c6d565b60405180910390f35b34801561027357600080fd5b5061027c610a2a565b6040516102899190613d21565b60405180910390f35b34801561029e57600080fd5b506102b960048036038101906102b49190613d79565b610abc565b6040516102c69190613de7565b60405180910390f35b3480156102db57600080fd5b506102e4610b41565b6040516102f19190613e1f565b60405180910390f35b34801561030657600080fd5b50610321600480360381019061031c9190613e66565b610b55565b005b34801561032f57600080fd5b5061034a60048036038101906103459190613edf565b610c6d565b6040516103579190613f3b565b60405180910390f35b34801561036c57600080fd5b5061038760048036038101906103829190613f56565b610d66565b005b34801561039557600080fd5b506103b060048036038101906103ab9190613fa9565b610dc6565b005b3480156103be57600080fd5b506103d960048036038101906103d49190613fd6565b610e87565b6040516103e69190613f3b565b60405180910390f35b3480156103fb57600080fd5b50610404610ece565b6040516104119190614025565b60405180910390f35b34801561042657600080fd5b50610441600480360381019061043c9190613f56565b610ed8565b005b34801561044f57600080fd5b50610458610ef8565b6040516104659190613e1f565b60405180910390f35b34801561047a57600080fd5b50610483610f0c565b6040516104909190613c6d565b60405180910390f35b6104b360048036038101906104ae9190614098565b610f23565b005b3480156104c157600080fd5b506104dc60048036038101906104d79190613d79565b611339565b6040516104e99190613de7565b60405180910390f35b3480156104fe57600080fd5b5061051960048036038101906105149190613edf565b6113eb565b6040516105269190613f3b565b60405180910390f35b34801561053b57600080fd5b5061055660048036038101906105519190613fa9565b6114e4565b6040516105639190614025565b60405180910390f35b34801561057857600080fd5b5061058161159c565b005b34801561058f57600080fd5b506105aa60048036038101906105a59190613fa9565b611624565b6040516105b79190613c6d565b60405180910390f35b3480156105cc57600080fd5b506105d56116f7565b6040516105e29190613de7565b60405180910390f35b3480156105f757600080fd5b50610612600480360381019061060d9190613d79565b611721565b60405161061f91906141c2565b60405180910390f35b34801561063457600080fd5b5061063d6118b7565b60405161064a9190613d21565b60405180910390f35b34801561065f57600080fd5b5061067a60048036038101906106759190613d79565b611949565b6040516106879190614025565b60405180910390f35b34801561069c57600080fd5b506106b760048036038101906106b291906141de565b611961565b005b3480156106c557600080fd5b506106e060048036038101906106db9190613fa9565b611977565b005b3480156106ee57600080fd5b5061070960048036038101906107049190614353565b611a4f565b005b34801561071757600080fd5b50610720611ab1565b60405161072d9190614025565b60405180910390f35b34801561074257600080fd5b5061074b611abd565b6040516107589190614025565b60405180910390f35b34801561076d57600080fd5b5061078860048036038101906107839190613d79565b611ac3565b6040516107959190613d21565b60405180910390f35b3480156107aa57600080fd5b506107c560048036038101906107c09190613e66565b611bb6565b005b3480156107d357600080fd5b506107dc612224565b6040516107e99190614435565b60405180910390f35b3480156107fe57600080fd5b5061080761224b565b6040516108149190613e1f565b60405180910390f35b34801561082957600080fd5b50610844600480360381019061083f9190613d79565b61225f565b60405161085a9a99989796959493929190614450565b60405180910390f35b34801561086f57600080fd5b50610878612335565b604051610885919061450d565b60405180910390f35b34801561089a57600080fd5b506108b560048036038101906108b09190614528565b61235c565b6040516108c29190613c6d565b60405180910390f35b3480156108d757600080fd5b506108f260048036038101906108ed9190613fa9565b6123f0565b005b34801561090057600080fd5b506109096124e8565b6040516109169190614025565b60405180910390f35b34801561092b57600080fd5b5061094660048036038101906109419190613fa9565b6124ee565b005b60007f80ac58cd000000000000000000000000000000000000000000000000000000007bffffffffffffffffffffffffffffffffffffffffffffffffffffffff1916827bffffffffffffffffffffffffffffffffffffffffffffffffffffffff19161480610a1357507f5b5e139f000000000000000000000000000000000000000000000000000000007bffffffffffffffffffffffffffffffffffffffffffffffffffffffff1916827bffffffffffffffffffffffffffffffffffffffffffffffffffffffff1916145b80610a235750610a22826125c6565b5b9050919050565b606060c98054610a3990614597565b80601f0160208091040260200160405190810160405280929190818152602001828054610a6590614597565b8015610ab25780601f10610a8757610100808354040283529160200191610ab2565b820191906000526020600020905b815481529060010190602001808311610a9557829003601f168201915b5050505050905090565b6000610ac782612630565b610b06576040517f08c379a0000000000000000000000000000000000000000000000000000000008152600401610afd9061463b565b60405180910390fd5b60cd600083815260200190815260200160002060009054906101000a900473ffffffffffffffffffffffffffffffffffffffff169050919050565b60fb60049054906101000a900461ffff1681565b6000610b6082611339565b90508073ffffffffffffffffffffffffffffffffffffffff168373ffffffffffffffffffffffffffffffffffffffff161415610bd1576040517f08c379a0000000000000000000000000000000000000000000000000000000008152600401610bc8906146cd565b60405180910390fd5b8073ffffffffffffffffffffffffffffffffffffffff16610bf061269c565b73ffffffffffffffffffffffffffffffffffffffff161480610c1f5750610c1e81610c1961269c565b61235c565b5b610c5e576040517f08c379a0000000000000000000000000000000000000000000000000000000008152600401610c559061475f565b60405180910390fd5b610c6883836126a4565b505050565b600061010060003373ffffffffffffffffffffffffffffffffffffffff1673ffffffffffffffffffffffffffffffffffffffff16815260200190815260200160002060009054906101000a900460ff16610cfc576040517f08c379a0000000000000000000000000000000000000000000000000000000008152600401610cf3906147cb565b60405180910390fd5b6000610d2b60fe600086815260200190815260200160002060000160099054906101000a900460ff168461275d565b90508060fe600086815260200190815260200160002060000160096101000a81548160ff021916908360ff1602179055508091505092915050565b610d77610d7161269c565b826127d6565b610db6576040517f08c379a0000000000000000000000000000000000000000000000000000000008152600401610dad9061485d565b60405180910390fd5b610dc18383836128b4565b505050565b610dce61269c565b73ffffffffffffffffffffffffffffffffffffffff16610dec6116f7565b73ffffffffffffffffffffffffffffffffffffffff1614610e42576040517f08c379a0000000000000000000000000000000000000000000000000000000008152600401610e39906148c9565b60405180910390fd5b8061011460006101000a81548173ffffffffffffffffffffffffffffffffffffffff021916908373ffffffffffffffffffffffffffffffffffffffff16021790555050565b6101018260128110610e9857600080fd5b018181548110610ea757600080fd5b9060005260206000209060209182820401919006915091509054906101000a900460ff1681565b600060fd54905090565b610ef383838360405180602001604052806000815250611a4f565b505050565b60fb60009054906101000a900461ffff1681565b6000606560009054906101000a900460ff16905090565b610f2b610f0c565b15610f6b576040517f08c379a0000000000000000000000000000000000000000000000000000000008152600401610f6290614935565b60405180910390fd5b60008260ff16118015610f825750600a8260ff1611155b610fc1576040517f08c379a0000000000000000000000000000000000000000000000000000000008152600401610fb8906149a1565b60405180910390fd5b3467016345785d8a00008360ff16610fd991906149f0565b14611019576040517f08c379a000000000000000000000000000000000000000000000000000000000815260040161101090614a96565b60405180910390fd5b60008161106f57600067ffffffffffffffff81111561103b5761103a614228565b5b6040519080825280602002602001820160405280156110695781602001602082028036833780820191505090505b506110bc565b8260ff1667ffffffffffffffff81111561108c5761108b614228565b5b6040519080825280602002602001820160405280156110ba5781602001602082028036833780820191505090505b505b905060006110c8613958565b60005b8560ff168110156112935760fb600081819054906101000a900461ffff16809291906110f690614ab6565b91906101000a81548161ffff021916908361ffff1602179055505061112e60fb60009054906101000a900461ffff1661ffff16612b10565b925061114e60fb60009054906101000a900461ffff1661ffff1684612b56565b915084156111d65761119761011460009054906101000a900473ffffffffffffffffffffffffffffffffffffffff1660fb60009054906101000a900461ffff1661ffff16612d2e565b60fb60009054906101000a900461ffff168482815181106111bb576111ba614ae1565b5b602002602001019061ffff16908161ffff16815250506111fc565b6111fb6111e161269c565b60fb60009054906101000a900461ffff1661ffff16612d2e565b5b81600001516112445760fb600481819054906101000a900461ffff168092919061122590614ab6565b91906101000a81548161ffff021916908361ffff16021790555061127f565b60fb600281819054906101000a900461ffff168092919061126490614ab6565b91906101000a81548161ffff021916908361ffff1602179055505b50808061128b90614b10565b9150506110cb565b5083156113325761011460009054906101000a900473ffffffffffffffffffffffffffffffffffffffff1673ffffffffffffffffffffffffffffffffffffffff1663dbdc1f6b6112e161269c565b856040518363ffffffff1660e01b81526004016112ff929190614c17565b600060405180830381600087803b15801561131957600080fd5b505af115801561132d573d6000803e3d6000fd5b505050505b5050505050565b60008060cb600084815260200190815260200160002060009054906101000a900473ffffffffffffffffffffffffffffffffffffffff169050600073ffffffffffffffffffffffffffffffffffffffff168173ffffffffffffffffffffffffffffffffffffffff1614156113e2576040517f08c379a00000000000000000000000000000000000000000000000000000000081526004016113d990614cb9565b60405180910390fd5b80915050919050565b600061010060003373ffffffffffffffffffffffffffffffffffffffff1673ffffffffffffffffffffffffffffffffffffffff16815260200190815260200160002060009054906101000a900460ff1661147a576040517f08c379a0000000000000000000000000000000000000000000000000000000008152600401611471906147cb565b60405180910390fd5b60006114a960fe600086815260200190815260200160002060000160089054906101000a900460ff168461275d565b90508060fe600086815260200190815260200160002060000160086101000a81548160ff021916908360ff1602179055508091505092915050565b60008073ffffffffffffffffffffffffffffffffffffffff168273ffffffffffffffffffffffffffffffffffffffff161415611555576040517f08c379a000000000000000000000000000000000000000000000000000000000815260040161154c90614d4b565b60405180910390fd5b60cc60008373ffffffffffffffffffffffffffffffffffffffff1673ffffffffffffffffffffffffffffffffffffffff168152602001908152602001600020549050919050565b6115a461269c565b73ffffffffffffffffffffffffffffffffffffffff166115c26116f7565b73ffffffffffffffffffffffffffffffffffffffff1614611618576040517f08c379a000000000000000000000000000000000000000000000000000000000815260040161160f906148c9565b60405180910390fd5b6116226000612d4c565b565b600061162e61269c565b73ffffffffffffffffffffffffffffffffffffffff1661164c6116f7565b73ffffffffffffffffffffffffffffffffffffffff16146116a2576040517f08c379a0000000000000000000000000000000000000000000000000000000008152600401611699906148c9565b60405180910390fd5b61010060008373ffffffffffffffffffffffffffffffffffffffff1673ffffffffffffffffffffffffffffffffffffffff16815260200190815260200160002060009054906101000a900460ff169050919050565b6000603360009054906101000a900473ffffffffffffffffffffffffffffffffffffffff16905090565b611729613958565b61173282612630565b611771576040517f08c379a000000000000000000000000000000000000000000000000000000000815260040161176890614ddd565b60405180910390fd5b60fe6000838152602001908152602001600020604051806101400160405290816000820160009054906101000a900460ff161515151581526020016000820160019054906101000a900460ff1660ff1660ff1681526020016000820160029054906101000a900460ff1660ff1660ff1681526020016000820160039054906101000a900460ff1660ff1660ff1681526020016000820160049054906101000a900460ff1660ff1660ff1681526020016000820160059054906101000a900460ff1660ff1660ff1681526020016000820160069054906101000a900460ff1660ff1660ff1681526020016000820160079054906101000a900460ff1660ff1660ff1681526020016000820160089054906101000a900460ff1660ff1660ff1681526020016000820160099054906101000a900460ff1660ff1660ff16815250509050919050565b606060ca80546118c690614597565b80601f01602080910402602001604051908101604052809291908181526020018280546118f290614597565b801561193f5780601f106119145761010080835404028352916020019161193f565b820191906000526020600020905b81548152906001019060200180831161192257829003601f168201915b5050505050905090565b60ff6020528060005260406000206000915090505481565b61197361196c61269c565b8383612e12565b5050565b61197f61269c565b73ffffffffffffffffffffffffffffffffffffffff1661199d6116f7565b73ffffffffffffffffffffffffffffffffffffffff16146119f3576040517f08c379a00000000000000000000000000000000000000000000000000000000081526004016119ea906148c9565b60405180910390fd5b600161010060008373ffffffffffffffffffffffffffffffffffffffff1673ffffffffffffffffffffffffffffffffffffffff16815260200190815260200160002060006101000a81548160ff02191690831515021790555050565b611a60611a5a61269c565b836127d6565b611a9f576040517f08c379a0000000000000000000000000000000000000000000000000000000008152600401611a969061485d565b60405180910390fd5b611aab84848484612f7f565b50505050565b67016345785d8a000081565b60fd5481565b6060611ace82612630565b611b0d576040517f08c379a0000000000000000000000000000000000000000000000000000000008152600401611b0490614ddd565b60405180910390fd5b61011360009054906101000a900473ffffffffffffffffffffffffffffffffffffffff1673ffffffffffffffffffffffffffffffffffffffff1663c87b56dd836040518263ffffffff1660e01b8152600401611b699190614025565b600060405180830381865afa158015611b86573d6000803e3d6000fd5b505050506040513d6000823e3d601f19601f82011682018060405250810190611baf9190614e9e565b9050919050565b600060019054906101000a900460ff16611bde5760008054906101000a900460ff1615611be7565b611be6612fdb565b5b611c26576040517f08c379a0000000000000000000000000000000000000000000000000000000008152600401611c1d90614f59565b60405180910390fd5b60008060019054906101000a900460ff161590508015611c76576001600060016101000a81548160ff02191690831515021790555060016000806101000a81548160ff0219169083151502179055505b611c7e612fec565b611c8661304d565b611cfa6040518060400160405280601581526020017f526174416c6572742043686566732026205261747300000000000000000000008152506040518060400160405280600781526020017f43484546524154000000000000000000000000000000000000000000000000008152506130ae565b600060fb60006101000a81548161ffff021916908361ffff160217905550600060fb60026101000a81548161ffff021916908361ffff160217905550600060fb60046101000a81548161ffff021916908361ffff1602179055508261011360006101000a81548173ffffffffffffffffffffffffffffffffffffffff021916908373ffffffffffffffffffffffffffffffffffffffff1602179055508160fc81905550600582611daa9190614fa8565b60fd819055506040518060c0016040528060ff8016815260200160df60ff16815260200160bf60ff168152602001609f60ff168152602001607f60ff168152602001605f60ff16815250610101600260128110611e0a57611e09614ae1565b5b01906006611e199291906139c8565b5060405180610100016040528060ff8016815260200160df60ff16815260200160bf60ff168152602001609f60ff168152602001607f60ff168152602001605f60ff168152602001603f60ff168152602001601f60ff16815250610101600360128110611e8957611e88614ae1565b5b01906008611e98929190613a6f565b506040518060c0016040528060ff8016815260200160df60ff16815260200160bf60ff168152602001609f60ff168152602001607f60ff168152602001605f60ff16815250610101600460128110611ef357611ef2614ae1565b5b01906006611f029291906139c8565b506040518060c0016040528060ff8016815260200160cf60ff168152602001609f60ff168152602001606f60ff168152602001603f60ff168152602001600f60ff16815250610101600560128110611f5d57611f5c614ae1565b5b01906006611f6c9291906139c8565b506040518060c0016040528060ff8016815260200160df60ff16815260200160bf60ff168152602001609f60ff168152602001607f60ff168152602001605f60ff16815250610101600660128110611fc757611fc6614ae1565b5b01906006611fd69291906139c8565b506040518060c0016040528060ff8016815260200160df60ff16815260200160bf60ff168152602001609f60ff168152602001607f60ff168152602001605f60ff16815250610101600c6012811061203157612030614ae1565b5b019060066120409291906139c8565b5060405180610100016040528060ff8016815260200160df60ff16815260200160bf60ff168152602001609f60ff168152602001607f60ff168152602001605f60ff168152602001603f60ff168152602001601f60ff16815250610101600d601281106120b0576120af614ae1565b5b019060086120bf929190613a6f565b506040518060c0016040528060ff8016815260200160df60ff16815260200160bf60ff168152602001609f60ff168152602001607f60ff168152602001605f60ff16815250610101600e6012811061211a57612119614ae1565b5b019060066121299291906139c8565b506040518060c0016040528060ff8016815260200160cf60ff168152602001609f60ff168152602001606f60ff168152602001603f60ff168152602001600f60ff16815250610101600f6012811061218457612183614ae1565b5b019060066121939291906139c8565b506040518060c0016040528060ff8016815260200160df60ff16815260200160bf60ff168152602001609f60ff168152602001607f60ff168152602001605f60ff168152506101016010601281106121ee576121ed614ae1565b5b019060066121fd9291906139c8565b50801561221f5760008060016101000a81548160ff0219169083151502179055505b505050565b61011460009054906101000a900473ffffffffffffffffffffffffffffffffffffffff1681565b60fb60029054906101000a900461ffff1681565b60fe6020528060005260406000206000915090508060000160009054906101000a900460ff16908060000160019054906101000a900460ff16908060000160029054906101000a900460ff16908060000160039054906101000a900460ff16908060000160049054906101000a900460ff16908060000160059054906101000a900460ff16908060000160069054906101000a900460ff16908060000160079054906101000a900460ff16908060000160089054906101000a900460ff16908060000160099054906101000a900460ff1690508a565b61011360009054906101000a900473ffffffffffffffffffffffffffffffffffffffff1681565b600060ce60008473ffffffffffffffffffffffffffffffffffffffff1673ffffffffffffffffffffffffffffffffffffffff16815260200190815260200160002060008373ffffffffffffffffffffffffffffffffffffffff1673ffffffffffffffffffffffffffffffffffffffff16815260200190815260200160002060009054906101000a900460ff16905092915050565b6123f861269c565b73ffffffffffffffffffffffffffffffffffffffff166124166116f7565b73ffffffffffffffffffffffffffffffffffffffff161461246c576040517f08c379a0000000000000000000000000000000000000000000000000000000008152600401612463906148c9565b60405180910390fd5b600073ffffffffffffffffffffffffffffffffffffffff168173ffffffffffffffffffffffffffffffffffffffff1614156124dc576040517f08c379a00000000000000000000000000000000000000000000000000000000081526004016124d39061504b565b60405180910390fd5b6124e581612d4c565b50565b60fc5481565b6124f661269c565b73ffffffffffffffffffffffffffffffffffffffff166125146116f7565b73ffffffffffffffffffffffffffffffffffffffff161461256a576040517f08c379a0000000000000000000000000000000000000000000000000000000008152600401612561906148c9565b60405180910390fd5b600061010060008373ffffffffffffffffffffffffffffffffffffffff1673ffffffffffffffffffffffffffffffffffffffff16815260200190815260200160002060006101000a81548160ff02191690831515021790555050565b60007f01ffc9a7000000000000000000000000000000000000000000000000000000007bffffffffffffffffffffffffffffffffffffffffffffffffffffffff1916827bffffffffffffffffffffffffffffffffffffffffffffffffffffffff1916149050919050565b60008073ffffffffffffffffffffffffffffffffffffffff1660cb600084815260200190815260200160002060009054906101000a900473ffffffffffffffffffffffffffffffffffffffff1673ffffffffffffffffffffffffffffffffffffffff1614159050919050565b600033905090565b8160cd600083815260200190815260200160002060006101000a81548173ffffffffffffffffffffffffffffffffffffffff021916908373ffffffffffffffffffffffffffffffffffffffff160217905550808273ffffffffffffffffffffffffffffffffffffffff1661271783611339565b73ffffffffffffffffffffffffffffffffffffffff167f8c5be1e5ebec7d5bd14f71427d1e84f3dd0314c0f7b2291e5b200ac8c7c3b92560405160405180910390a45050565b6000808260000b1261279a5760648383612777919061506b565b60ff161161279057818361278b919061506b565b612793565b60645b90506127d0565b8260ff16826127a8906150a2565b60ff16116127ca57816127ba906150a2565b836127c591906150eb565b6127cd565b60005b90505b92915050565b60006127e182612630565b612820576040517f08c379a000000000000000000000000000000000000000000000000000000000815260040161281790615191565b60405180910390fd5b600061282b83611339565b90508073ffffffffffffffffffffffffffffffffffffffff168473ffffffffffffffffffffffffffffffffffffffff16148061289a57508373ffffffffffffffffffffffffffffffffffffffff1661288284610abc565b73ffffffffffffffffffffffffffffffffffffffff16145b806128ab57506128aa818561235c565b5b91505092915050565b8273ffffffffffffffffffffffffffffffffffffffff166128d482611339565b73ffffffffffffffffffffffffffffffffffffffff161461292a576040517f08c379a000000000000000000000000000000000000000000000000000000000815260040161292190615223565b60405180910390fd5b600073ffffffffffffffffffffffffffffffffffffffff168273ffffffffffffffffffffffffffffffffffffffff16141561299a576040517f08c379a0000000000000000000000000000000000000000000000000000000008152600401612991906152b5565b60405180910390fd5b6129a583838361311b565b6129b06000826126a4565b600160cc60008573ffffffffffffffffffffffffffffffffffffffff1673ffffffffffffffffffffffffffffffffffffffff1681526020019081526020016000206000828254612a0091906152d5565b92505081905550600160cc60008473ffffffffffffffffffffffffffffffffffffffff1673ffffffffffffffffffffffffffffffffffffffff1681526020019081526020016000206000828254612a579190615309565b925050819055508160cb600083815260200190815260200160002060006101000a81548173ffffffffffffffffffffffffffffffffffffffff021916908373ffffffffffffffffffffffffffffffffffffffff160217905550808273ffffffffffffffffffffffffffffffffffffffff168473ffffffffffffffffffffffffffffffffffffffff167fddf252ad1be2c89b69c2b068fc378daa952ba7f163c4a11628f55a4df523b3ef60405160405180910390a4505050565b600032600143612b2091906152d5565b404284604051602001612b3694939291906153f3565b6040516020818303038152906040528051906020012060001c9050919050565b612b5e613958565b612b6782613120565b90506000612b7482613279565b9050600060ff6000838152602001908152602001600020541415612d12578160fe600086815260200190815260200160002060008201518160000160006101000a81548160ff02191690831515021790555060208201518160000160016101000a81548160ff021916908360ff16021790555060408201518160000160026101000a81548160ff021916908360ff16021790555060608201518160000160036101000a81548160ff021916908360ff16021790555060808201518160000160046101000a81548160ff021916908360ff16021790555060a08201518160000160056101000a81548160ff021916908360ff16021790555060c08201518160000160066101000a81548160ff021916908360ff16021790555060e08201518160000160076101000a81548160ff021916908360ff1602179055506101008201518160000160086101000a81548160ff021916908360ff1602179055506101208201518160000160096101000a81548160ff021916908360ff1602179055509050508360ff60008381526020019081526020016000208190555050612d28565b612d2484612d1f85612b10565b612b56565b9150505b92915050565b612d488282604051806020016040528060008152506132dc565b5050565b6000603360009054906101000a900473ffffffffffffffffffffffffffffffffffffffff16905081603360006101000a81548173ffffffffffffffffffffffffffffffffffffffff021916908373ffffffffffffffffffffffffffffffffffffffff1602179055508173ffffffffffffffffffffffffffffffffffffffff168173ffffffffffffffffffffffffffffffffffffffff167f8be0079c531659141344cd1fd0a4f28419497f9722a3daafe3b4186f6b6457e060405160405180910390a35050565b8173ffffffffffffffffffffffffffffffffffffffff168373ffffffffffffffffffffffffffffffffffffffff161415612e81576040517f08c379a0000000000000000000000000000000000000000000000000000000008152600401612e789061548d565b60405180910390fd5b8060ce60008573ffffffffffffffffffffffffffffffffffffffff1673ffffffffffffffffffffffffffffffffffffffff16815260200190815260200160002060008473ffffffffffffffffffffffffffffffffffffffff1673ffffffffffffffffffffffffffffffffffffffff16815260200190815260200160002060006101000a81548160ff0219169083151502179055508173ffffffffffffffffffffffffffffffffffffffff168373ffffffffffffffffffffffffffffffffffffffff167f17307eab39ab6107e8899845ad3d59bd9653f200f220920489ca2b5937696c3183604051612f729190613c6d565b60405180910390a3505050565b612f8a8484846128b4565b612f9684848484613337565b612fd5576040517f08c379a0000000000000000000000000000000000000000000000000000000008152600401612fcc9061551f565b60405180910390fd5b50505050565b6000612fe6306134bf565b15905090565b600060019054906101000a900460ff1661303b576040517f08c379a0000000000000000000000000000000000000000000000000000000008152600401613032906155b1565b60405180910390fd5b6130436134d2565b61304b613523565b565b600060019054906101000a900460ff1661309c576040517f08c379a0000000000000000000000000000000000000000000000000000000008152600401613093906155b1565b60405180910390fd5b6130a46134d2565b6130ac613584565b565b600060019054906101000a900460ff166130fd576040517f08c379a00000000000000000000000000000000000000000000000000000000081526004016130f4906155b1565b60405180910390fd5b6131056134d2565b61310d6135f0565b6131178282613641565b5050565b505050565b613128613958565b6000600a61ffff841661313b91906155d1565b14158160000190151590811515815250508060000151156131e7576131618260026136c2565b816020019060ff16908160ff168152505061317d8260036136c2565b816040019060ff16908160ff16815250506131998260046136c2565b816080019060ff16908160ff16815250506131b58260056136c2565b8160a0019060ff16908160ff16815250506131d18260066136c2565b8160c0019060ff16908160ff1681525050613274565b6131f282600c6136c2565b816020019060ff16908160ff168152505061320e82600d6136c2565b816040019060ff16908160ff168152505061322a82600e6136c2565b816060019060ff16908160ff168152505061324682600f6136c2565b8160a0019060ff16908160ff16815250506132628260106136c2565b8160e0019060ff16908160ff16815250505b919050565b6000816000015182602001518360400151846060015185608001518660a001518760c001518860e001516040516020016132ba989796959493929190615661565b6040516020818303038152906040526132d290615730565b60001c9050919050565b6132e6838361378a565b6132f36000848484613337565b613332576040517f08c379a00000000000000000000000000000000000000000000000000000000081526004016133299061551f565b60405180910390fd5b505050565b60006133588473ffffffffffffffffffffffffffffffffffffffff166134bf565b156134b2578373ffffffffffffffffffffffffffffffffffffffff1663150b7a0261338161269c565b8786866040518563ffffffff1660e01b81526004016133a394939291906157e1565b6020604051808303816000875af19250505080156133df57506040513d601f19601f820116820180604052508101906133dc9190615842565b60015b613462573d806000811461340f576040519150601f19603f3d011682016040523d82523d6000602084013e613414565b606091505b5060008151141561345a576040517f08c379a00000000000000000000000000000000000000000000000000000000081526004016134519061551f565b60405180910390fd5b805181602001fd5b63150b7a0260e01b7bffffffffffffffffffffffffffffffffffffffffffffffffffffffff1916817bffffffffffffffffffffffffffffffffffffffffffffffffffffffff1916149150506134b7565b600190505b949350505050565b600080823b905060008111915050919050565b600060019054906101000a900460ff16613521576040517f08c379a0000000000000000000000000000000000000000000000000000000008152600401613518906155b1565b60405180910390fd5b565b600060019054906101000a900460ff16613572576040517f08c379a0000000000000000000000000000000000000000000000000000000008152600401613569906155b1565b60405180910390fd5b61358261357d61269c565b612d4c565b565b600060019054906101000a900460ff166135d3576040517f08c379a00000000000000000000000000000000000000000000000000000000081526004016135ca906155b1565b60405180910390fd5b6000606560006101000a81548160ff021916908315150217905550565b600060019054906101000a900460ff1661363f576040517f08c379a0000000000000000000000000000000000000000000000000000000008152600401613636906155b1565b60405180910390fd5b565b600060019054906101000a900460ff16613690576040517f08c379a0000000000000000000000000000000000000000000000000000000008152600401613687906155b1565b60405180910390fd5b8160c990805190602001906136a6929190613b16565b508060ca90805190602001906136bd929190613b16565b505050565b60006010600a836136d3919061586f565b6136dd91906158a0565b60ff1683901c925060006101018360ff16601281106136ff576136fe614ae1565b5b01805490508461370f919061586f565b9050600060ff851690506101018460ff166012811061373157613730614ae1565b5b018260ff168154811061374757613746614ae1565b5b90600052602060002090602091828204019190069054906101000a900460ff1660ff168160ff161161377d578192505050613784565b6000925050505b92915050565b600073ffffffffffffffffffffffffffffffffffffffff168273ffffffffffffffffffffffffffffffffffffffff1614156137fa576040517f08c379a00000000000000000000000000000000000000000000000000000000081526004016137f190615927565b60405180910390fd5b61380381612630565b15613843576040517f08c379a000000000000000000000000000000000000000000000000000000000815260040161383a90615993565b60405180910390fd5b61384f6000838361311b565b600160cc60008473ffffffffffffffffffffffffffffffffffffffff1673ffffffffffffffffffffffffffffffffffffffff168152602001908152602001600020600082825461389f9190615309565b925050819055508160cb600083815260200190815260200160002060006101000a81548173ffffffffffffffffffffffffffffffffffffffff021916908373ffffffffffffffffffffffffffffffffffffffff160217905550808273ffffffffffffffffffffffffffffffffffffffff16600073ffffffffffffffffffffffffffffffffffffffff167fddf252ad1be2c89b69c2b068fc378daa952ba7f163c4a11628f55a4df523b3ef60405160405180910390a45050565b604051806101400160405280600015158152602001600060ff168152602001600060ff168152602001600060ff168152602001600060ff168152602001600060ff168152602001600060ff168152602001600060ff168152602001600060ff168152602001600060ff1681525090565b82805482825590600052602060002090601f01602090048101928215613a5e5791602002820160005b83821115613a2f57835183826101000a81548160ff021916908360ff16021790555092602001926001016020816000010492830192600103026139f1565b8015613a5c5782816101000a81549060ff0219169055600101602081600001049283019260010302613a2f565b505b509050613a6b9190613b9c565b5090565b82805482825590600052602060002090601f01602090048101928215613b055791602002820160005b83821115613ad657835183826101000a81548160ff021916908360ff1602179055509260200192600101602081600001049283019260010302613a98565b8015613b035782816101000a81549060ff0219169055600101602081600001049283019260010302613ad6565b505b509050613b129190613b9c565b5090565b828054613b2290614597565b90600052602060002090601f016020900481019282613b445760008555613b8b565b82601f10613b5d57805160ff1916838001178555613b8b565b82800160010185558215613b8b579182015b82811115613b8a578251825591602001919060010190613b6f565b5b509050613b989190613b9c565b5090565b5b80821115613bb5576000816000905550600101613b9d565b5090565b6000604051905090565b600080fd5b600080fd5b60007fffffffff0000000000000000000000000000000000000000000000000000000082169050919050565b613c0281613bcd565b8114613c0d57600080fd5b50565b600081359050613c1f81613bf9565b92915050565b600060208284031215613c3b57613c3a613bc3565b5b6000613c4984828501613c10565b91505092915050565b60008115159050919050565b613c6781613c52565b82525050565b6000602082019050613c826000830184613c5e565b92915050565b600081519050919050565b600082825260208201905092915050565b60005b83811015613cc2578082015181840152602081019050613ca7565b83811115613cd1576000848401525b50505050565b6000601f19601f8301169050919050565b6000613cf382613c88565b613cfd8185613c93565b9350613d0d818560208601613ca4565b613d1681613cd7565b840191505092915050565b60006020820190508181036000830152613d3b8184613ce8565b905092915050565b6000819050919050565b613d5681613d43565b8114613d6157600080fd5b50565b600081359050613d7381613d4d565b92915050565b600060208284031215613d8f57613d8e613bc3565b5b6000613d9d84828501613d64565b91505092915050565b600073ffffffffffffffffffffffffffffffffffffffff82169050919050565b6000613dd182613da6565b9050919050565b613de181613dc6565b82525050565b6000602082019050613dfc6000830184613dd8565b92915050565b600061ffff82169050919050565b613e1981613e02565b82525050565b6000602082019050613e346000830184613e10565b92915050565b613e4381613dc6565b8114613e4e57600080fd5b50565b600081359050613e6081613e3a565b92915050565b60008060408385031215613e7d57613e7c613bc3565b5b6000613e8b85828601613e51565b9250506020613e9c85828601613d64565b9150509250929050565b60008160000b9050919050565b613ebc81613ea6565b8114613ec757600080fd5b50565b600081359050613ed981613eb3565b92915050565b60008060408385031215613ef657613ef5613bc3565b5b6000613f0485828601613d64565b9250506020613f1585828601613eca565b9150509250929050565b600060ff82169050919050565b613f3581613f1f565b82525050565b6000602082019050613f506000830184613f2c565b92915050565b600080600060608486031215613f6f57613f6e613bc3565b5b6000613f7d86828701613e51565b9350506020613f8e86828701613e51565b9250506040613f9f86828701613d64565b9150509250925092565b600060208284031215613fbf57613fbe613bc3565b5b6000613fcd84828501613e51565b91505092915050565b60008060408385031215613fed57613fec613bc3565b5b6000613ffb85828601613d64565b925050602061400c85828601613d64565b9150509250929050565b61401f81613d43565b82525050565b600060208201905061403a6000830184614016565b92915050565b61404981613f1f565b811461405457600080fd5b50565b60008135905061406681614040565b92915050565b61407581613c52565b811461408057600080fd5b50565b6000813590506140928161406c565b92915050565b600080604083850312156140af576140ae613bc3565b5b60006140bd85828601614057565b92505060206140ce85828601614083565b9150509250929050565b6140e181613c52565b82525050565b6140f081613f1f565b82525050565b6101408201600082015161410d60008501826140d8565b50602082015161412060208501826140e7565b50604082015161413360408501826140e7565b50606082015161414660608501826140e7565b50608082015161415960808501826140e7565b5060a082015161416c60a08501826140e7565b5060c082015161417f60c08501826140e7565b5060e082015161419260e08501826140e7565b506101008201516141a76101008501826140e7565b506101208201516141bc6101208501826140e7565b50505050565b6000610140820190506141d860008301846140f6565b92915050565b600080604083850312156141f5576141f4613bc3565b5b600061420385828601613e51565b925050602061421485828601614083565b9150509250929050565b600080fd5b600080fd5b7f4e487b7100000000000000000000000000000000000000000000000000000000600052604160045260246000fd5b61426082613cd7565b810181811067ffffffffffffffff8211171561427f5761427e614228565b5b80604052505050565b6000614292613bb9565b905061429e8282614257565b919050565b600067ffffffffffffffff8211156142be576142bd614228565b5b6142c782613cd7565b9050602081019050919050565b82818337600083830152505050565b60006142f66142f1846142a3565b614288565b90508281526020810184848401111561431257614311614223565b5b61431d8482856142d4565b509392505050565b600082601f83011261433a5761433961421e565b5b813561434a8482602086016142e3565b91505092915050565b6000806000806080858703121561436d5761436c613bc3565b5b600061437b87828801613e51565b945050602061438c87828801613e51565b935050604061439d87828801613d64565b925050606085013567ffffffffffffffff8111156143be576143bd613bc8565b5b6143ca87828801614325565b91505092959194509250565b6000819050919050565b60006143fb6143f66143f184613da6565b6143d6565b613da6565b9050919050565b600061440d826143e0565b9050919050565b600061441f82614402565b9050919050565b61442f81614414565b82525050565b600060208201905061444a6000830184614426565b92915050565b600061014082019050614466600083018d613c5e565b614473602083018c613f2c565b614480604083018b613f2c565b61448d606083018a613f2c565b61449a6080830189613f2c565b6144a760a0830188613f2c565b6144b460c0830187613f2c565b6144c160e0830186613f2c565b6144cf610100830185613f2c565b6144dd610120830184613f2c565b9b9a5050505050505050505050565b60006144f782614402565b9050919050565b614507816144ec565b82525050565b600060208201905061452260008301846144fe565b92915050565b6000806040838503121561453f5761453e613bc3565b5b600061454d85828601613e51565b925050602061455e85828601613e51565b9150509250929050565b7f4e487b7100000000000000000000000000000000000000000000000000000000600052602260045260246000fd5b600060028204905060018216806145af57607f821691505b602082108114156145c3576145c2614568565b5b50919050565b7f4552433732313a20617070726f76656420717565727920666f72206e6f6e657860008201527f697374656e7420746f6b656e0000000000000000000000000000000000000000602082015250565b6000614625602c83613c93565b9150614630826145c9565b604082019050919050565b6000602082019050818103600083015261465481614618565b9050919050565b7f4552433732313a20617070726f76616c20746f2063757272656e74206f776e6560008201527f7200000000000000000000000000000000000000000000000000000000000000602082015250565b60006146b7602183613c93565b91506146c28261465b565b604082019050919050565b600060208201905081810360008301526146e6816146aa565b9050919050565b7f4552433732313a20617070726f76652063616c6c6572206973206e6f74206f7760008201527f6e6572206e6f7220617070726f76656420666f7220616c6c0000000000000000602082015250565b6000614749603883613c93565b9150614754826146ed565b604082019050919050565b600060208201905081810360008301526147788161473c565b9050919050565b7f4f6e6c7920636f6e74726f6c6c6572732063616e207570646174650000000000600082015250565b60006147b5601b83613c93565b91506147c08261477f565b602082019050919050565b600060208201905081810360008301526147e4816147a8565b9050919050565b7f4552433732313a207472616e736665722063616c6c6572206973206e6f74206f60008201527f776e6572206e6f7220617070726f766564000000000000000000000000000000602082015250565b6000614847603183613c93565b9150614852826147eb565b604082019050919050565b600060208201905081810360008301526148768161483a565b9050919050565b7f4f776e61626c653a2063616c6c6572206973206e6f7420746865206f776e6572600082015250565b60006148b3602083613c93565b91506148be8261487d565b602082019050919050565b600060208201905081810360008301526148e2816148a6565b9050919050565b7f5061757361626c653a2070617573656400000000000000000000000000000000600082015250565b600061491f601083613c93565b915061492a826148e9565b602082019050919050565b6000602082019050818103600083015261494e81614912565b9050919050565b7f496e76616c6964206d696e7420616d6f756e7400000000000000000000000000600082015250565b600061498b601383613c93565b915061499682614955565b602082019050919050565b600060208201905081810360008301526149ba8161497e565b9050919050565b7f4e487b7100000000000000000000000000000000000000000000000000000000600052601160045260246000fd5b60006149fb82613d43565b9150614a0683613d43565b9250817fffffffffffffffffffffffffffffffffffffffffffffffffffffffffffffffff0483118215151615614a3f57614a3e6149c1565b5b828202905092915050565b7f496e76616c6964207061796d656e7420616d6f756e7400000000000000000000600082015250565b6000614a80601683613c93565b9150614a8b82614a4a565b602082019050919050565b60006020820190508181036000830152614aaf81614a73565b9050919050565b6000614ac182613e02565b915061ffff821415614ad657614ad56149c1565b5b600182019050919050565b7f4e487b7100000000000000000000000000000000000000000000000000000000600052603260045260246000fd5b6000614b1b82613d43565b91507fffffffffffffffffffffffffffffffffffffffffffffffffffffffffffffffff821415614b4e57614b4d6149c1565b5b600182019050919050565b600081519050919050565b600082825260208201905092915050565b6000819050602082019050919050565b614b8e81613e02565b82525050565b6000614ba08383614b85565b60208301905092915050565b6000602082019050919050565b6000614bc482614b59565b614bce8185614b64565b9350614bd983614b75565b8060005b83811015614c0a578151614bf18882614b94565b9750614bfc83614bac565b925050600181019050614bdd565b5085935050505092915050565b6000604082019050614c2c6000830185613dd8565b8181036020830152614c3e8184614bb9565b90509392505050565b7f4552433732313a206f776e657220717565727920666f72206e6f6e657869737460008201527f656e7420746f6b656e0000000000000000000000000000000000000000000000602082015250565b6000614ca3602983613c93565b9150614cae82614c47565b604082019050919050565b60006020820190508181036000830152614cd281614c96565b9050919050565b7f4552433732313a2062616c616e636520717565727920666f7220746865207a6560008201527f726f206164647265737300000000000000000000000000000000000000000000602082015250565b6000614d35602a83613c93565b9150614d4082614cd9565b604082019050919050565b60006020820190508181036000830152614d6481614d28565b9050919050565b7f4552433732314d657461646174613a2055524920717565727920666f72206e6f60008201527f6e2d6578697374656e7420746f6b656e00000000000000000000000000000000602082015250565b6000614dc7603083613c93565b9150614dd282614d6b565b604082019050919050565b60006020820190508181036000830152614df681614dba565b9050919050565b600067ffffffffffffffff821115614e1857614e17614228565b5b614e2182613cd7565b9050602081019050919050565b6000614e41614e3c84614dfd565b614288565b905082815260208101848484011115614e5d57614e5c614223565b5b614e68848285613ca4565b509392505050565b600082601f830112614e8557614e8461421e565b5b8151614e95848260208601614e2e565b91505092915050565b600060208284031215614eb457614eb3613bc3565b5b600082015167ffffffffffffffff811115614ed257614ed1613bc8565b5b614ede84828501614e70565b91505092915050565b7f496e697469616c697a61626c653a20636f6e747261637420697320616c72656160008201527f647920696e697469616c697a6564000000000000000000000000000000000000602082015250565b6000614f43602e83613c93565b9150614f4e82614ee7565b604082019050919050565b60006020820190508181036000830152614f7281614f36565b9050919050565b7f4e487b7100000000000000000000000000000000000000000000000000000000600052601260045260246000fd5b6000614fb382613d43565b9150614fbe83613d43565b925082614fce57614fcd614f79565b5b828204905092915050565b7f4f776e61626c653a206e6577206f776e657220697320746865207a65726f206160008201527f6464726573730000000000000000000000000000000000000000000000000000602082015250565b6000615035602683613c93565b915061504082614fd9565b604082019050919050565b6000602082019050818103600083015261506481615028565b9050919050565b600061507682613f1f565b915061508183613f1f565b92508260ff03821115615097576150966149c1565b5b828201905092915050565b60006150ad82613ea6565b91507fffffffffffffffffffffffffffffffffffffffffffffffffffffffffffffff808214156150e0576150df6149c1565b5b816000039050919050565b60006150f682613f1f565b915061510183613f1f565b925082821015615114576151136149c1565b5b828203905092915050565b7f4552433732313a206f70657261746f7220717565727920666f72206e6f6e657860008201527f697374656e7420746f6b656e0000000000000000000000000000000000000000602082015250565b600061517b602c83613c93565b91506151868261511f565b604082019050919050565b600060208201905081810360008301526151aa8161516e565b9050919050565b7f4552433732313a207472616e73666572206f6620746f6b656e2074686174206960008201527f73206e6f74206f776e0000000000000000000000000000000000000000000000602082015250565b600061520d602983613c93565b9150615218826151b1565b604082019050919050565b6000602082019050818103600083015261523c81615200565b9050919050565b7f4552433732313a207472616e7366657220746f20746865207a65726f2061646460008201527f7265737300000000000000000000000000000000000000000000000000000000602082015250565b600061529f602483613c93565b91506152aa82615243565b604082019050919050565b600060208201905081810360008301526152ce81615292565b9050919050565b60006152e082613d43565b91506152eb83613d43565b9250828210156152fe576152fd6149c1565b5b828203905092915050565b600061531482613d43565b915061531f83613d43565b9250827fffffffffffffffffffffffffffffffffffffffffffffffffffffffffffffffff03821115615354576153536149c1565b5b828201905092915050565b60008160601b9050919050565b60006153778261535f565b9050919050565b60006153898261536c565b9050919050565b6153a161539c82613dc6565b61537e565b82525050565b6000819050919050565b6000819050919050565b6153cc6153c7826153a7565b6153b1565b82525050565b6000819050919050565b6153ed6153e882613d43565b6153d2565b82525050565b60006153ff8287615390565b60148201915061540f82866153bb565b60208201915061541f82856153dc565b60208201915061542f82846153dc565b60208201915081905095945050505050565b7f4552433732313a20617070726f766520746f2063616c6c657200000000000000600082015250565b6000615477601983613c93565b915061548282615441565b602082019050919050565b600060208201905081810360008301526154a68161546a565b9050919050565b7f4552433732313a207472616e7366657220746f206e6f6e20455243373231526560008201527f63656976657220696d706c656d656e7465720000000000000000000000000000602082015250565b6000615509603283613c93565b9150615514826154ad565b604082019050919050565b60006020820190508181036000830152615538816154fc565b9050919050565b7f496e697469616c697a61626c653a20636f6e7472616374206973206e6f74206960008201527f6e697469616c697a696e67000000000000000000000000000000000000000000602082015250565b600061559b602b83613c93565b91506155a68261553f565b604082019050919050565b600060208201905081810360008301526155ca8161558e565b9050919050565b60006155dc82613d43565b91506155e783613d43565b9250826155f7576155f6614f79565b5b828206905092915050565b60008160f81b9050919050565b600061561a82615602565b9050919050565b600061562c8261560f565b9050919050565b61564461563f82613c52565b615621565b82525050565b61565b61565682613f1f565b61560f565b82525050565b600061566d828b615633565b60018201915061567d828a61564a565b60018201915061568d828961564a565b60018201915061569d828861564a565b6001820191506156ad828761564a565b6001820191506156bd828661564a565b6001820191506156cd828561564a565b6001820191506156dd828461564a565b6001820191508190509998505050505050505050565b600081519050919050565b6000819050602082019050919050565b600061571a82516153a7565b80915050919050565b600082821b905092915050565b600061573b826156f3565b82615745846156fe565b90506157508161570e565b925060208210156157905761578b7fffffffffffffffffffffffffffffffffffffffffffffffffffffffffffffffff83602003600802615723565b831692505b5050919050565b600082825260208201905092915050565b60006157b3826156f3565b6157bd8185615797565b93506157cd818560208601613ca4565b6157d681613cd7565b840191505092915050565b60006080820190506157f66000830187613dd8565b6158036020830186613dd8565b6158106040830185614016565b818103606083015261582281846157a8565b905095945050505050565b60008151905061583c81613bf9565b92915050565b60006020828403121561585857615857613bc3565b5b60006158668482850161582d565b91505092915050565b600061587a82613f1f565b915061588583613f1f565b92508261589557615894614f79565b5b828206905092915050565b60006158ab82613f1f565b91506158b683613f1f565b92508160ff04831182151516156158d0576158cf6149c1565b5b828202905092915050565b7f4552433732313a206d696e7420746f20746865207a65726f2061646472657373600082015250565b6000615911602083613c93565b915061591c826158db565b602082019050919050565b6000602082019050818103600083015261594081615904565b9050919050565b7f4552433732313a20746f6b656e20616c7265616479206d696e74656400000000600082015250565b600061597d601c83613c93565b915061598882615947565b602082019050919050565b600060208201905081810360008301526159ac81615970565b905091905056fea264697066735822122053acff912144cbef15f84be2e2137043e64a1a4dd702d5d155b05c4626e6658864736f6c634300080a0033",
  "immutableReferences": {},
  "source": "// SPDX-License-Identifier: MIT\n\npragma solidity ^0.8.0;\n\nimport \"@openzeppelin/contracts-upgradeable/proxy/utils/Initializable.sol\";\nimport \"@openzeppelin/contracts-upgradeable/access/OwnableUpgradeable.sol\";\nimport \"@openzeppelin/contracts-upgradeable/security/PausableUpgradeable.sol\";\nimport \"@openzeppelin/contracts-upgradeable/token/ERC721/ERC721Upgradeable.sol\";\nimport \"./IChefRat.sol\";\nimport \"./IKitchenPack.sol\";\nimport \"./ITraits.sol\";\n\ncontract ChefRat is IChefRat, Initializable, OwnableUpgradeable, PausableUpgradeable, ERC721Upgradeable {\n  uint16 public minted;\n  uint16 public numChefs;\n  uint16 public numRats;\n  uint256 public constant MINT_PRICE = .1 ether;\n  uint256 public MAX_TOKENS; // Max number of tokens that can be minted - 50000 in production\n  uint256 public PAID_TOKENS; // Number of tokens that can be claimed for free - 20% of MAX_TOKENS\n//  uint256 public constant CHEF = 0;\n//  uint256 public constant RAT = 1;\n\n  mapping(uint256 => ChefRatStruct) public tokenTraits; // Mapping from tokenId to a struct containing the token's traits\n  mapping(uint256 => uint256) public existingCombinations; // Mapping from hashed(tokenTrait) to the tokenId it's associated with, used to ensure there are no duplicates\n  mapping(address => bool) controllers; // a mapping from an address to whether or not it can mint / burn\n  uint8[][18] public rarities; // List of probabilities for each trait type, 0 - 9 are associated with Chefs, 10 - 18 are associated with Rats\n\n  ITraits public traits; // Reference to Traits\n  IKitchenPack public kitchenPack;\n\n  function initialize(address _traits, uint256 _maxTokens) external initializer {\n    __Ownable_init();\n    __Pausable_init();\n    __ERC721_init(\"RatAlert Chefs & Rats\", \"CHEFRAT\");\n\n    minted = 0;\n    numChefs = 0;\n    numRats = 0;\n    traits = ITraits(_traits);\n    MAX_TOKENS = _maxTokens;\n    PAID_TOKENS = _maxTokens / 5;\n\n    // Chefs\n    rarities[2] = [255, 223, 191, 159, 127, 95]; // hat\n    rarities[3] = [255, 223, 191, 159, 127, 95, 63, 31]; // eyes\n    rarities[4] = [255, 223, 191, 159, 127, 95]; // mouth\n    rarities[5] = [255, 207, 159, 111, 63, 15]; // neck\n    rarities[6] = [255, 223, 191, 159, 127, 95]; // hand\n    // Rats\n    rarities[12] = [255, 223, 191, 159, 127, 95]; // hat\n    rarities[13] = [255, 223, 191, 159, 127, 95, 63, 31]; // eyes\n    rarities[14] = [255, 223, 191, 159, 127, 95]; // piercing\n    rarities[15] = [255, 207, 159, 111, 63, 15]; // neck\n    rarities[16] = [255, 223, 191, 159, 127, 95]; // tail\n  }\n\n  /**\n   * Mints a new ERC721 token: 90% chefs, 10% rats\n   * The first 20% are free to claim, the remaining cost $FFOOD\n   * @param amount Number of tokens to mint\n   */\n  function mint(uint8 amount, bool stake) external payable whenNotPaused {\n    require(amount > 0 && amount <= 10, \"Invalid mint amount\");\n    require(amount * MINT_PRICE == msg.value, \"Invalid payment amount\");\n\n    uint16[] memory tokenIds = stake ? new uint16[](amount) : new uint16[](0);\n    uint256 seed;\n    ChefRatStruct memory s;\n    for (uint i = 0; i < amount; i++) {\n      minted++;\n      seed = random(minted);\n      s = generate(minted, seed);\n      if (stake) {\n        _safeMint(address(kitchenPack), minted);\n        tokenIds[i] = minted;\n      } else {\n        _safeMint(_msgSender(), minted);\n      }\n      s.isChef ? numChefs++ : numRats++;\n    }\n    if (stake) kitchenPack.stakeMany(_msgSender(), tokenIds);\n  }\n\n  /**\n   * Generates traits for a specific token, checking to make sure it's unique\n   * @param tokenId - The id of the token to generate traits for\n   * @param seed - A pseudorandom 256 bit number to derive traits from\n   * @return t - A struct of traits for the given token ID\n   */\n  function generate(uint256 tokenId, uint256 seed) internal returns (ChefRatStruct memory t) {\n    t = selectTraits(seed);\n    uint256 hash = structToHash(t);\n    if (existingCombinations[hash] == 0) {\n      tokenTraits[tokenId] = t;\n      existingCombinations[hash] = tokenId;\n      return t;\n    }\n    return generate(tokenId, random(seed));\n  }\n\n  /**\n   * Selects the species and all of its traits based on the seed value\n   * @param seed - A pseudorandom 256 bit number to derive traits from\n   * @return t -  A struct of randomly selected traits\n   */\n  function selectTraits(uint256 seed) internal view returns (ChefRatStruct memory t) {\n    t.isChef = (seed & 0xFFFF) % 10 != 0;\n    if (t.isChef) {\n      t.hat = selectTrait(seed, 2);\n      t.eyes = selectTrait(seed, 3);\n      t.mouth = selectTrait(seed, 4);\n      t.neck = selectTrait(seed, 5);\n      t.hand = selectTrait(seed, 6);\n    } else {\n      t.hat = selectTrait(seed, 12);\n      t.eyes = selectTrait(seed, 13);\n      t.piercing = selectTrait(seed, 14);\n      t.neck = selectTrait(seed, 15);\n      t.tail = selectTrait(seed, 16);\n    }\n    return t;\n  }\n\n  /**\n   * Uses A.J. Walker's Alias algorithm for O(1) rarity table lookup\n   * ensuring O(1) instead of O(n) reduces mint cost by more than 50%\n   * probability & alias tables are generated off-chain beforehand\n   * @param seed - Portion of the 256 bit seed to remove trait correlation\n   * @param traitIndex - The trait index to select a trait for\n   * @return The ID of the randomly selected trait\n   */\n  function selectTrait(uint256 seed, uint8 traitIndex) internal view returns (uint8) {\n    seed = seed >>= (traitIndex % 10 * 16);\n    uint8 trait = uint8(seed) % uint8(rarities[traitIndex].length); // Selected trait index\n    uint8 rand = uint8(seed & 0xFFFF >> 8); // Random integer from 0 to 255\n    if (rand <= rarities[traitIndex][trait]) return trait;\n    return 0;\n  }\n\n  /**\n   * Converts a struct to a 256 bit hash to check for uniqueness\n   * @param s - The struct to pack into a hash\n   * @return The 256 bit hash of the struct\n   */\n  function structToHash(ChefRatStruct memory s) internal pure returns (uint256) {\n    return uint256(bytes32(\n      abi.encodePacked(\n        s.isChef,\n        s.hat,\n        s.eyes,\n        s.piercing,\n        s.mouth,\n        s.neck,\n        s.hand,\n        s.tail\n      )\n    ));\n  }\n\n  function getUpdatedValue(uint8 old, int8 increment) internal pure returns(uint8) {\n    if (increment >= 0) {\n      return (uint8(increment) + old > 100) ? 100 : old + uint8(increment);\n    } else {\n      return (uint8(-increment) > old) ? 0 : old - uint8(-increment);\n    }\n  }\n\n  function updateEfficiency(uint256 tokenId, int8 increment) public returns(uint8) {\n    require(controllers[msg.sender], \"Only controllers can update\");\n    uint8 value = getUpdatedValue(tokenTraits[tokenId].efficiency, increment);\n    tokenTraits[tokenId].efficiency = value;\n    return value;\n  }\n\n  function updateTolerance(uint256 tokenId, int8 increment) public returns(uint8) {\n    require(controllers[msg.sender], \"Only controllers can update\");\n    uint8 value = getUpdatedValue(tokenTraits[tokenId].tolerance, increment);\n    tokenTraits[tokenId].tolerance = value;\n    return value;\n  }\n\n  function tokenURI(uint256 tokenId) public view override returns (string memory) {\n    require(_exists(tokenId), \"ERC721Metadata: URI query for non-existent token\");\n    return traits.tokenURI(tokenId);\n  }\n\n  function getTokenTraits(uint256 tokenId) external view override returns (ChefRatStruct memory) {\n    require(_exists(tokenId), \"ERC721Metadata: URI query for non-existent token\");\n    return tokenTraits[tokenId];\n  }\n\n  function getPaidTokens() external view override returns (uint256) {\n    return PAID_TOKENS;\n  }\n\n  /**\n   * Gets controller status by address\n   * @param controller the address to check\n   */\n  function getController(address controller) external view onlyOwner returns (bool) {\n    return controllers[controller];\n  }\n\n  /**\n   * Enables an address to mint / burn\n   * @param controller the address to enable\n   */\n  function addController(address controller) external onlyOwner {\n    controllers[controller] = true;\n  }\n\n  /**\n   * Disables an address from minting / burning\n   * @param controller the address to disable\n   */\n  function removeController(address controller) external onlyOwner {\n    controllers[controller] = false;\n  }\n\n  /**\n   * called after deployment to avoid cyclical dependencies\n   * @param _kitchenPack the address of the KitchenPack\n   */\n  function setKitchenPack(address _kitchenPack) external onlyOwner {\n    kitchenPack = IKitchenPack(_kitchenPack);\n  }\n\n  /**\n   * Generates a pseudorandom number\n   * @param seed A value ensure different outcomes for different sources in the same block\n   * @return A pseudorandom value\n   */\n  function random(uint256 seed) internal view returns (uint256) {\n    return uint256(keccak256(abi.encodePacked(\n      tx.origin,\n      blockhash(block.number - 1),\n      block.timestamp,\n      seed\n    )));\n  }\n}\n",
  "sourcePath": "/Users/chris/workspace/ratalert/ratalert-contracts/contracts/ChefRat.sol",
  "compiler": {
    "name": "solc",
    "version": "0.8.10+commit.fc410830.Emscripten.clang"
  },
  "schemaVersion": "3.4.4",
  "updatedAt": "2022-01-28T16:00:42.958Z",
  "networkType": "ethereum",
  "devdoc": {
    "kind": "dev",
    "methods": {
      "addController(address)": {
        "params": {
          "controller": "the address to enable"
        }
      },
      "approve(address,uint256)": {
        "details": "See {IERC721-approve}."
      },
      "balanceOf(address)": {
        "details": "See {IERC721-balanceOf}."
      },
      "getApproved(uint256)": {
        "details": "See {IERC721-getApproved}."
      },
      "getController(address)": {
        "params": {
          "controller": "the address to check"
        }
      },
      "isApprovedForAll(address,address)": {
        "details": "See {IERC721-isApprovedForAll}."
      },
      "mint(uint8,bool)": {
        "params": {
          "amount": "Number of tokens to mint"
        }
      },
      "name()": {
        "details": "See {IERC721Metadata-name}."
      },
      "owner()": {
        "details": "Returns the address of the current owner."
      },
      "ownerOf(uint256)": {
        "details": "See {IERC721-ownerOf}."
      },
      "paused()": {
        "details": "Returns true if the contract is paused, and false otherwise."
      },
      "removeController(address)": {
        "params": {
          "controller": "the address to disable"
        }
      },
      "renounceOwnership()": {
        "details": "Leaves the contract without owner. It will not be possible to call `onlyOwner` functions anymore. Can only be called by the current owner. NOTE: Renouncing ownership will leave the contract without an owner, thereby removing any functionality that is only available to the owner."
      },
      "safeTransferFrom(address,address,uint256)": {
        "details": "See {IERC721-safeTransferFrom}."
      },
      "safeTransferFrom(address,address,uint256,bytes)": {
        "details": "See {IERC721-safeTransferFrom}."
      },
      "setApprovalForAll(address,bool)": {
        "details": "See {IERC721-setApprovalForAll}."
      },
      "setKitchenPack(address)": {
        "params": {
          "_kitchenPack": "the address of the KitchenPack"
        }
      },
      "supportsInterface(bytes4)": {
        "details": "See {IERC165-supportsInterface}."
      },
      "symbol()": {
        "details": "See {IERC721Metadata-symbol}."
      },
      "tokenURI(uint256)": {
        "details": "See {IERC721Metadata-tokenURI}."
      },
      "transferFrom(address,address,uint256)": {
        "details": "See {IERC721-transferFrom}."
      },
      "transferOwnership(address)": {
        "details": "Transfers ownership of the contract to a new account (`newOwner`). Can only be called by the current owner."
      }
    },
    "version": 1
  },
  "userdoc": {
    "kind": "user",
    "methods": {
      "addController(address)": {
        "notice": "Enables an address to mint / burn"
      },
      "getController(address)": {
        "notice": "Gets controller status by address"
      },
      "mint(uint8,bool)": {
        "notice": "Mints a new ERC721 token: 90% chefs, 10% rats The first 20% are free to claim, the remaining cost $FFOOD"
      },
      "removeController(address)": {
        "notice": "Disables an address from minting / burning"
      },
      "setKitchenPack(address)": {
        "notice": "called after deployment to avoid cyclical dependencies"
      }
    },
    "version": 1
  }
}