{
  "contractName": "ChefRatTest",
  "abi": [
    {
      "anonymous": false,
      "inputs": [
        {
          "indexed": true,
          "internalType": "address",
          "name": "owner",
          "type": "address"
        },
        {
          "indexed": true,
          "internalType": "address",
          "name": "approved",
          "type": "address"
        },
        {
          "indexed": true,
          "internalType": "uint256",
          "name": "tokenId",
          "type": "uint256"
        }
      ],
      "name": "Approval",
      "type": "event"
    },
    {
      "anonymous": false,
      "inputs": [
        {
          "indexed": true,
          "internalType": "address",
          "name": "owner",
          "type": "address"
        },
        {
          "indexed": true,
          "internalType": "address",
          "name": "operator",
          "type": "address"
        },
        {
          "indexed": false,
          "internalType": "bool",
          "name": "approved",
          "type": "bool"
        }
      ],
      "name": "ApprovalForAll",
      "type": "event"
    },
    {
      "anonymous": false,
      "inputs": [
        {
          "indexed": true,
          "internalType": "address",
          "name": "previousOwner",
          "type": "address"
        },
        {
          "indexed": true,
          "internalType": "address",
          "name": "newOwner",
          "type": "address"
        }
      ],
      "name": "OwnershipTransferred",
      "type": "event"
    },
    {
      "anonymous": false,
      "inputs": [
        {
          "indexed": false,
          "internalType": "address",
          "name": "account",
          "type": "address"
        }
      ],
      "name": "Paused",
      "type": "event"
    },
    {
      "anonymous": false,
      "inputs": [
        {
          "indexed": true,
          "internalType": "address",
          "name": "from",
          "type": "address"
        },
        {
          "indexed": true,
          "internalType": "address",
          "name": "to",
          "type": "address"
        },
        {
          "indexed": true,
          "internalType": "uint256",
          "name": "tokenId",
          "type": "uint256"
        }
      ],
      "name": "Transfer",
      "type": "event"
    },
    {
      "anonymous": false,
      "inputs": [
        {
          "indexed": false,
          "internalType": "address",
          "name": "account",
          "type": "address"
        }
      ],
      "name": "Unpaused",
      "type": "event"
    },
    {
      "inputs": [],
      "name": "MAX_TOKENS",
      "outputs": [
        {
          "internalType": "uint256",
          "name": "",
          "type": "uint256"
        }
      ],
      "stateMutability": "view",
      "type": "function",
      "constant": true
    },
    {
      "inputs": [],
      "name": "MINT_PRICE",
      "outputs": [
        {
          "internalType": "uint256",
          "name": "",
          "type": "uint256"
        }
      ],
      "stateMutability": "view",
      "type": "function",
      "constant": true
    },
    {
      "inputs": [],
      "name": "PAID_TOKENS",
      "outputs": [
        {
          "internalType": "uint256",
          "name": "",
          "type": "uint256"
        }
      ],
      "stateMutability": "view",
      "type": "function",
      "constant": true
    },
    {
      "inputs": [
        {
          "internalType": "address",
          "name": "to",
          "type": "address"
        },
        {
          "internalType": "uint256",
          "name": "tokenId",
          "type": "uint256"
        }
      ],
      "name": "approve",
      "outputs": [],
      "stateMutability": "nonpayable",
      "type": "function"
    },
    {
      "inputs": [
        {
          "internalType": "address",
          "name": "owner",
          "type": "address"
        }
      ],
      "name": "balanceOf",
      "outputs": [
        {
          "internalType": "uint256",
          "name": "",
          "type": "uint256"
        }
      ],
      "stateMutability": "view",
      "type": "function",
      "constant": true
    },
    {
      "inputs": [
        {
          "internalType": "uint256",
          "name": "",
          "type": "uint256"
        }
      ],
      "name": "existingCombinations",
      "outputs": [
        {
          "internalType": "uint256",
          "name": "",
          "type": "uint256"
        }
      ],
      "stateMutability": "view",
      "type": "function",
      "constant": true
    },
    {
      "inputs": [
        {
          "internalType": "uint256",
          "name": "tokenId",
          "type": "uint256"
        }
      ],
      "name": "getApproved",
      "outputs": [
        {
          "internalType": "address",
          "name": "",
          "type": "address"
        }
      ],
      "stateMutability": "view",
      "type": "function",
      "constant": true
    },
    {
      "inputs": [
        {
          "internalType": "address",
          "name": "owner",
          "type": "address"
        },
        {
          "internalType": "address",
          "name": "operator",
          "type": "address"
        }
      ],
      "name": "isApprovedForAll",
      "outputs": [
        {
          "internalType": "bool",
          "name": "",
          "type": "bool"
        }
      ],
      "stateMutability": "view",
      "type": "function",
      "constant": true
    },
    {
      "inputs": [],
      "name": "kitchenPack",
      "outputs": [
        {
          "internalType": "contract IKitchenPack",
          "name": "",
          "type": "address"
        }
      ],
      "stateMutability": "view",
      "type": "function",
      "constant": true
    },
    {
      "inputs": [],
      "name": "minted",
      "outputs": [
        {
          "internalType": "uint16",
          "name": "",
          "type": "uint16"
        }
      ],
      "stateMutability": "view",
      "type": "function",
      "constant": true
    },
    {
      "inputs": [],
      "name": "name",
      "outputs": [
        {
          "internalType": "string",
          "name": "",
          "type": "string"
        }
      ],
      "stateMutability": "view",
      "type": "function",
      "constant": true
    },
    {
      "inputs": [],
      "name": "numChefs",
      "outputs": [
        {
          "internalType": "uint16",
          "name": "",
          "type": "uint16"
        }
      ],
      "stateMutability": "view",
      "type": "function",
      "constant": true
    },
    {
      "inputs": [],
      "name": "numRats",
      "outputs": [
        {
          "internalType": "uint16",
          "name": "",
          "type": "uint16"
        }
      ],
      "stateMutability": "view",
      "type": "function",
      "constant": true
    },
    {
      "inputs": [],
      "name": "owner",
      "outputs": [
        {
          "internalType": "address",
          "name": "",
          "type": "address"
        }
      ],
      "stateMutability": "view",
      "type": "function",
      "constant": true
    },
    {
      "inputs": [
        {
          "internalType": "uint256",
          "name": "tokenId",
          "type": "uint256"
        }
      ],
      "name": "ownerOf",
      "outputs": [
        {
          "internalType": "address",
          "name": "",
          "type": "address"
        }
      ],
      "stateMutability": "view",
      "type": "function",
      "constant": true
    },
    {
      "inputs": [],
      "name": "paused",
      "outputs": [
        {
          "internalType": "bool",
          "name": "",
          "type": "bool"
        }
      ],
      "stateMutability": "view",
      "type": "function",
      "constant": true
    },
    {
      "inputs": [
        {
          "internalType": "uint256",
          "name": "",
          "type": "uint256"
        },
        {
          "internalType": "uint256",
          "name": "",
          "type": "uint256"
        }
      ],
      "name": "rarities",
      "outputs": [
        {
          "internalType": "uint8",
          "name": "",
          "type": "uint8"
        }
      ],
      "stateMutability": "view",
      "type": "function",
      "constant": true
    },
    {
      "inputs": [],
      "name": "renounceOwnership",
      "outputs": [],
      "stateMutability": "nonpayable",
      "type": "function"
    },
    {
      "inputs": [
        {
          "internalType": "address",
          "name": "from",
          "type": "address"
        },
        {
          "internalType": "address",
          "name": "to",
          "type": "address"
        },
        {
          "internalType": "uint256",
          "name": "tokenId",
          "type": "uint256"
        }
      ],
      "name": "safeTransferFrom",
      "outputs": [],
      "stateMutability": "nonpayable",
      "type": "function"
    },
    {
      "inputs": [
        {
          "internalType": "address",
          "name": "from",
          "type": "address"
        },
        {
          "internalType": "address",
          "name": "to",
          "type": "address"
        },
        {
          "internalType": "uint256",
          "name": "tokenId",
          "type": "uint256"
        },
        {
          "internalType": "bytes",
          "name": "_data",
          "type": "bytes"
        }
      ],
      "name": "safeTransferFrom",
      "outputs": [],
      "stateMutability": "nonpayable",
      "type": "function"
    },
    {
      "inputs": [
        {
          "internalType": "address",
          "name": "operator",
          "type": "address"
        },
        {
          "internalType": "bool",
          "name": "approved",
          "type": "bool"
        }
      ],
      "name": "setApprovalForAll",
      "outputs": [],
      "stateMutability": "nonpayable",
      "type": "function"
    },
    {
      "inputs": [
        {
          "internalType": "bytes4",
          "name": "interfaceId",
          "type": "bytes4"
        }
      ],
      "name": "supportsInterface",
      "outputs": [
        {
          "internalType": "bool",
          "name": "",
          "type": "bool"
        }
      ],
      "stateMutability": "view",
      "type": "function",
      "constant": true
    },
    {
      "inputs": [],
      "name": "symbol",
      "outputs": [
        {
          "internalType": "string",
          "name": "",
          "type": "string"
        }
      ],
      "stateMutability": "view",
      "type": "function",
      "constant": true
    },
    {
      "inputs": [
        {
          "internalType": "uint256",
          "name": "",
          "type": "uint256"
        }
      ],
      "name": "tokenTraits",
      "outputs": [
        {
          "internalType": "bool",
          "name": "isChef",
          "type": "bool"
        },
        {
          "internalType": "uint8",
          "name": "hat",
          "type": "uint8"
        },
        {
          "internalType": "uint8",
          "name": "eyes",
          "type": "uint8"
        },
        {
          "internalType": "uint8",
          "name": "piercing",
          "type": "uint8"
        },
        {
          "internalType": "uint8",
          "name": "mouth",
          "type": "uint8"
        },
        {
          "internalType": "uint8",
          "name": "neck",
          "type": "uint8"
        },
        {
          "internalType": "uint8",
          "name": "hand",
          "type": "uint8"
        },
        {
          "internalType": "uint8",
          "name": "tail",
          "type": "uint8"
        },
        {
          "internalType": "uint8",
          "name": "efficiency",
          "type": "uint8"
        },
        {
          "internalType": "uint8",
          "name": "tolerance",
          "type": "uint8"
        }
      ],
      "stateMutability": "view",
      "type": "function",
      "constant": true
    },
    {
      "inputs": [],
      "name": "traits",
      "outputs": [
        {
          "internalType": "contract ITraits",
          "name": "",
          "type": "address"
        }
      ],
      "stateMutability": "view",
      "type": "function",
      "constant": true
    },
    {
      "inputs": [
        {
          "internalType": "address",
          "name": "from",
          "type": "address"
        },
        {
          "internalType": "address",
          "name": "to",
          "type": "address"
        },
        {
          "internalType": "uint256",
          "name": "tokenId",
          "type": "uint256"
        }
      ],
      "name": "transferFrom",
      "outputs": [],
      "stateMutability": "nonpayable",
      "type": "function"
    },
    {
      "inputs": [
        {
          "internalType": "address",
          "name": "newOwner",
          "type": "address"
        }
      ],
      "name": "transferOwnership",
      "outputs": [],
      "stateMutability": "nonpayable",
      "type": "function"
    },
    {
      "inputs": [
        {
          "internalType": "address",
          "name": "_traits",
          "type": "address"
        },
        {
          "internalType": "uint256",
          "name": "_maxTokens",
          "type": "uint256"
        }
      ],
      "name": "initialize",
      "outputs": [],
      "stateMutability": "nonpayable",
      "type": "function"
    },
    {
      "inputs": [
        {
          "internalType": "uint8",
          "name": "amount",
          "type": "uint8"
        },
        {
          "internalType": "bool",
          "name": "stake",
          "type": "bool"
        }
      ],
      "name": "mint",
      "outputs": [],
      "stateMutability": "payable",
      "type": "function",
      "payable": true
    },
    {
      "inputs": [
        {
          "internalType": "uint256",
          "name": "tokenId",
          "type": "uint256"
        },
        {
          "internalType": "int8",
          "name": "increment",
          "type": "int8"
        }
      ],
      "name": "updateEfficiency",
      "outputs": [
        {
          "internalType": "uint8",
          "name": "",
          "type": "uint8"
        }
      ],
      "stateMutability": "nonpayable",
      "type": "function"
    },
    {
      "inputs": [
        {
          "internalType": "uint256",
          "name": "tokenId",
          "type": "uint256"
        },
        {
          "internalType": "int8",
          "name": "increment",
          "type": "int8"
        }
      ],
      "name": "updateTolerance",
      "outputs": [
        {
          "internalType": "uint8",
          "name": "",
          "type": "uint8"
        }
      ],
      "stateMutability": "nonpayable",
      "type": "function"
    },
    {
      "inputs": [
        {
          "internalType": "uint256",
          "name": "tokenId",
          "type": "uint256"
        }
      ],
      "name": "tokenURI",
      "outputs": [
        {
          "internalType": "string",
          "name": "",
          "type": "string"
        }
      ],
      "stateMutability": "view",
      "type": "function",
      "constant": true
    },
    {
      "inputs": [
        {
          "internalType": "uint256",
          "name": "tokenId",
          "type": "uint256"
        }
      ],
      "name": "getTokenTraits",
      "outputs": [
        {
          "components": [
            {
              "internalType": "bool",
              "name": "isChef",
              "type": "bool"
            },
            {
              "internalType": "uint8",
              "name": "hat",
              "type": "uint8"
            },
            {
              "internalType": "uint8",
              "name": "eyes",
              "type": "uint8"
            },
            {
              "internalType": "uint8",
              "name": "piercing",
              "type": "uint8"
            },
            {
              "internalType": "uint8",
              "name": "mouth",
              "type": "uint8"
            },
            {
              "internalType": "uint8",
              "name": "neck",
              "type": "uint8"
            },
            {
              "internalType": "uint8",
              "name": "hand",
              "type": "uint8"
            },
            {
              "internalType": "uint8",
              "name": "tail",
              "type": "uint8"
            },
            {
              "internalType": "uint8",
              "name": "efficiency",
              "type": "uint8"
            },
            {
              "internalType": "uint8",
              "name": "tolerance",
              "type": "uint8"
            }
          ],
          "internalType": "struct IChefRat.ChefRatStruct",
          "name": "",
          "type": "tuple"
        }
      ],
      "stateMutability": "view",
      "type": "function",
      "constant": true
    },
    {
      "inputs": [],
      "name": "getPaidTokens",
      "outputs": [
        {
          "internalType": "uint256",
          "name": "",
          "type": "uint256"
        }
      ],
      "stateMutability": "view",
      "type": "function",
      "constant": true
    },
    {
      "inputs": [
        {
          "internalType": "address",
          "name": "controller",
          "type": "address"
        }
      ],
      "name": "getController",
      "outputs": [
        {
          "internalType": "bool",
          "name": "",
          "type": "bool"
        }
      ],
      "stateMutability": "view",
      "type": "function",
      "constant": true
    },
    {
      "inputs": [
        {
          "internalType": "address",
          "name": "controller",
          "type": "address"
        }
      ],
      "name": "addController",
      "outputs": [],
      "stateMutability": "nonpayable",
      "type": "function"
    },
    {
      "inputs": [
        {
          "internalType": "address",
          "name": "controller",
          "type": "address"
        }
      ],
      "name": "removeController",
      "outputs": [],
      "stateMutability": "nonpayable",
      "type": "function"
    },
    {
      "inputs": [
        {
          "internalType": "address",
          "name": "_kitchenPack",
          "type": "address"
        }
      ],
      "name": "setKitchenPack",
      "outputs": [],
      "stateMutability": "nonpayable",
      "type": "function"
    }
  ],
  "bytecode": "0x608060405234801561001057600080fd5b506159e780620000216000396000f3fe6080604052600436106102255760003560e01c80638da5cb5b11610123578063c87b56dd116100ab578063e1fc334f1161006f578063e1fc334f14610863578063e985e9c51461088e578063f2fde38b146108cb578063f47c84c5146108f4578063f6a74ed71461091f57610225565b8063c87b56dd14610761578063cd6dc6871461079e578063d0f7c374146107c7578063d39f8a4d146107f2578063e05c57bf1461081d57610225565b8063a22cb465116100f2578063a22cb46514610690578063a7fc7a07146106b9578063b88d4fde146106e2578063c002d23d1461070b578063c084f5401461073657610225565b80638da5cb5b146105c057806394e56847146105eb57806395d89b4114610628578063a1b8f3741461065357610225565b80634018b1f8116101b15780636352211e116101755780636352211e146104b557806366ffcf99146104f257806370a082311461052f578063715018a61461056c57806388c662aa1461058357610225565b80634018b1f8146103ef57806342842e0e1461041a5780634f02c420146104435780635c975abb1461046e578063612bfba41461049957610225565b8063095ea7b3116101f8578063095ea7b3146102fa5780632373e1271461032357806323b872dd14610360578063256dfd541461038957806333df4b2c146103b257610225565b806301ffc9a71461022a57806306fdde0314610267578063081812fc146102925780630917e40d146102cf575b600080fd5b34801561023657600080fd5b50610251600480360381019061024c9190613c23565b610948565b60405161025e9190613c6b565b60405180910390f35b34801561027357600080fd5b5061027c610a2a565b6040516102899190613d1f565b60405180910390f35b34801561029e57600080fd5b506102b960048036038101906102b49190613d77565b610abc565b6040516102c69190613de5565b60405180910390f35b3480156102db57600080fd5b506102e4610b41565b6040516102f19190613e1d565b60405180910390f35b34801561030657600080fd5b50610321600480360381019061031c9190613e64565b610b55565b005b34801561032f57600080fd5b5061034a60048036038101906103459190613edd565b610c6d565b6040516103579190613f39565b60405180910390f35b34801561036c57600080fd5b5061038760048036038101906103829190613f54565b610d66565b005b34801561039557600080fd5b506103b060048036038101906103ab9190613fa7565b610dc6565b005b3480156103be57600080fd5b506103d960048036038101906103d49190613fd4565b610e87565b6040516103e69190613f39565b60405180910390f35b3480156103fb57600080fd5b50610404610ece565b6040516104119190614023565b60405180910390f35b34801561042657600080fd5b50610441600480360381019061043c9190613f54565b610ed8565b005b34801561044f57600080fd5b50610458610ef8565b6040516104659190613e1d565b60405180910390f35b34801561047a57600080fd5b50610483610f0c565b6040516104909190613c6b565b60405180910390f35b6104b360048036038101906104ae9190614096565b610f23565b005b3480156104c157600080fd5b506104dc60048036038101906104d79190613d77565b611338565b6040516104e99190613de5565b60405180910390f35b3480156104fe57600080fd5b5061051960048036038101906105149190613edd565b6113ea565b6040516105269190613f39565b60405180910390f35b34801561053b57600080fd5b5061055660048036038101906105519190613fa7565b6114e3565b6040516105639190614023565b60405180910390f35b34801561057857600080fd5b5061058161159b565b005b34801561058f57600080fd5b506105aa60048036038101906105a59190613fa7565b611623565b6040516105b79190613c6b565b60405180910390f35b3480156105cc57600080fd5b506105d56116f6565b6040516105e29190613de5565b60405180910390f35b3480156105f757600080fd5b50610612600480360381019061060d9190613d77565b611720565b60405161061f91906141c0565b60405180910390f35b34801561063457600080fd5b5061063d6118b6565b60405161064a9190613d1f565b60405180910390f35b34801561065f57600080fd5b5061067a60048036038101906106759190613d77565b611948565b6040516106879190614023565b60405180910390f35b34801561069c57600080fd5b506106b760048036038101906106b291906141dc565b611960565b005b3480156106c557600080fd5b506106e060048036038101906106db9190613fa7565b611976565b005b3480156106ee57600080fd5b5061070960048036038101906107049190614351565b611a4e565b005b34801561071757600080fd5b50610720611ab0565b60405161072d9190614023565b60405180910390f35b34801561074257600080fd5b5061074b611abb565b6040516107589190614023565b60405180910390f35b34801561076d57600080fd5b5061078860048036038101906107839190613d77565b611ac1565b6040516107959190613d1f565b60405180910390f35b3480156107aa57600080fd5b506107c560048036038101906107c09190613e64565b611bb4565b005b3480156107d357600080fd5b506107dc612222565b6040516107e99190614433565b60405180910390f35b3480156107fe57600080fd5b50610807612249565b6040516108149190613e1d565b60405180910390f35b34801561082957600080fd5b50610844600480360381019061083f9190613d77565b61225d565b60405161085a9a9998979695949392919061444e565b60405180910390f35b34801561086f57600080fd5b50610878612333565b604051610885919061450b565b60405180910390f35b34801561089a57600080fd5b506108b560048036038101906108b09190614526565b61235a565b6040516108c29190613c6b565b60405180910390f35b3480156108d757600080fd5b506108f260048036038101906108ed9190613fa7565b6123ee565b005b34801561090057600080fd5b506109096124e6565b6040516109169190614023565b60405180910390f35b34801561092b57600080fd5b5061094660048036038101906109419190613fa7565b6124ec565b005b60007f80ac58cd000000000000000000000000000000000000000000000000000000007bffffffffffffffffffffffffffffffffffffffffffffffffffffffff1916827bffffffffffffffffffffffffffffffffffffffffffffffffffffffff19161480610a1357507f5b5e139f000000000000000000000000000000000000000000000000000000007bffffffffffffffffffffffffffffffffffffffffffffffffffffffff1916827bffffffffffffffffffffffffffffffffffffffffffffffffffffffff1916145b80610a235750610a22826125c4565b5b9050919050565b606060c98054610a3990614595565b80601f0160208091040260200160405190810160405280929190818152602001828054610a6590614595565b8015610ab25780601f10610a8757610100808354040283529160200191610ab2565b820191906000526020600020905b815481529060010190602001808311610a9557829003601f168201915b5050505050905090565b6000610ac78261262e565b610b06576040517f08c379a0000000000000000000000000000000000000000000000000000000008152600401610afd90614639565b60405180910390fd5b60cd600083815260200190815260200160002060009054906101000a900473ffffffffffffffffffffffffffffffffffffffff169050919050565b60fb60049054906101000a900461ffff1681565b6000610b6082611338565b90508073ffffffffffffffffffffffffffffffffffffffff168373ffffffffffffffffffffffffffffffffffffffff161415610bd1576040517f08c379a0000000000000000000000000000000000000000000000000000000008152600401610bc8906146cb565b60405180910390fd5b8073ffffffffffffffffffffffffffffffffffffffff16610bf061269a565b73ffffffffffffffffffffffffffffffffffffffff161480610c1f5750610c1e81610c1961269a565b61235a565b5b610c5e576040517f08c379a0000000000000000000000000000000000000000000000000000000008152600401610c559061475d565b60405180910390fd5b610c6883836126a2565b505050565b600061010060003373ffffffffffffffffffffffffffffffffffffffff1673ffffffffffffffffffffffffffffffffffffffff16815260200190815260200160002060009054906101000a900460ff16610cfc576040517f08c379a0000000000000000000000000000000000000000000000000000000008152600401610cf3906147c9565b60405180910390fd5b6000610d2b60fe600086815260200190815260200160002060000160099054906101000a900460ff168461275b565b90508060fe600086815260200190815260200160002060000160096101000a81548160ff021916908360ff1602179055508091505092915050565b610d77610d7161269a565b826127d4565b610db6576040517f08c379a0000000000000000000000000000000000000000000000000000000008152600401610dad9061485b565b60405180910390fd5b610dc18383836128b2565b505050565b610dce61269a565b73ffffffffffffffffffffffffffffffffffffffff16610dec6116f6565b73ffffffffffffffffffffffffffffffffffffffff1614610e42576040517f08c379a0000000000000000000000000000000000000000000000000000000008152600401610e39906148c7565b60405180910390fd5b8061011460006101000a81548173ffffffffffffffffffffffffffffffffffffffff021916908373ffffffffffffffffffffffffffffffffffffffff16021790555050565b6101018260128110610e9857600080fd5b018181548110610ea757600080fd5b9060005260206000209060209182820401919006915091509054906101000a900460ff1681565b600060fd54905090565b610ef383838360405180602001604052806000815250611a4e565b505050565b60fb60009054906101000a900461ffff1681565b6000606560009054906101000a900460ff16905090565b610f2b610f0c565b15610f6b576040517f08c379a0000000000000000000000000000000000000000000000000000000008152600401610f6290614933565b60405180910390fd5b60008260ff16118015610f825750600a8260ff1611155b610fc1576040517f08c379a0000000000000000000000000000000000000000000000000000000008152600401610fb89061499f565b60405180910390fd5b34662386f26fc100008360ff16610fd891906149ee565b14611018576040517f08c379a000000000000000000000000000000000000000000000000000000000815260040161100f90614a94565b60405180910390fd5b60008161106e57600067ffffffffffffffff81111561103a57611039614226565b5b6040519080825280602002602001820160405280156110685781602001602082028036833780820191505090505b506110bb565b8260ff1667ffffffffffffffff81111561108b5761108a614226565b5b6040519080825280602002602001820160405280156110b95781602001602082028036833780820191505090505b505b905060006110c7613956565b60005b8560ff168110156112925760fb600081819054906101000a900461ffff16809291906110f590614ab4565b91906101000a81548161ffff021916908361ffff1602179055505061112d60fb60009054906101000a900461ffff1661ffff16612b0e565b925061114d60fb60009054906101000a900461ffff1661ffff1684612b54565b915084156111d55761119661011460009054906101000a900473ffffffffffffffffffffffffffffffffffffffff1660fb60009054906101000a900461ffff1661ffff16612d2c565b60fb60009054906101000a900461ffff168482815181106111ba576111b9614adf565b5b602002602001019061ffff16908161ffff16815250506111fb565b6111fa6111e061269a565b60fb60009054906101000a900461ffff1661ffff16612d2c565b5b81600001516112435760fb600481819054906101000a900461ffff168092919061122490614ab4565b91906101000a81548161ffff021916908361ffff16021790555061127e565b60fb600281819054906101000a900461ffff168092919061126390614ab4565b91906101000a81548161ffff021916908361ffff1602179055505b50808061128a90614b0e565b9150506110ca565b5083156113315761011460009054906101000a900473ffffffffffffffffffffffffffffffffffffffff1673ffffffffffffffffffffffffffffffffffffffff1663dbdc1f6b6112e061269a565b856040518363ffffffff1660e01b81526004016112fe929190614c15565b600060405180830381600087803b15801561131857600080fd5b505af115801561132c573d6000803e3d6000fd5b505050505b5050505050565b60008060cb600084815260200190815260200160002060009054906101000a900473ffffffffffffffffffffffffffffffffffffffff169050600073ffffffffffffffffffffffffffffffffffffffff168173ffffffffffffffffffffffffffffffffffffffff1614156113e1576040517f08c379a00000000000000000000000000000000000000000000000000000000081526004016113d890614cb7565b60405180910390fd5b80915050919050565b600061010060003373ffffffffffffffffffffffffffffffffffffffff1673ffffffffffffffffffffffffffffffffffffffff16815260200190815260200160002060009054906101000a900460ff16611479576040517f08c379a0000000000000000000000000000000000000000000000000000000008152600401611470906147c9565b60405180910390fd5b60006114a860fe600086815260200190815260200160002060000160089054906101000a900460ff168461275b565b90508060fe600086815260200190815260200160002060000160086101000a81548160ff021916908360ff1602179055508091505092915050565b60008073ffffffffffffffffffffffffffffffffffffffff168273ffffffffffffffffffffffffffffffffffffffff161415611554576040517f08c379a000000000000000000000000000000000000000000000000000000000815260040161154b90614d49565b60405180910390fd5b60cc60008373ffffffffffffffffffffffffffffffffffffffff1673ffffffffffffffffffffffffffffffffffffffff168152602001908152602001600020549050919050565b6115a361269a565b73ffffffffffffffffffffffffffffffffffffffff166115c16116f6565b73ffffffffffffffffffffffffffffffffffffffff1614611617576040517f08c379a000000000000000000000000000000000000000000000000000000000815260040161160e906148c7565b60405180910390fd5b6116216000612d4a565b565b600061162d61269a565b73ffffffffffffffffffffffffffffffffffffffff1661164b6116f6565b73ffffffffffffffffffffffffffffffffffffffff16146116a1576040517f08c379a0000000000000000000000000000000000000000000000000000000008152600401611698906148c7565b60405180910390fd5b61010060008373ffffffffffffffffffffffffffffffffffffffff1673ffffffffffffffffffffffffffffffffffffffff16815260200190815260200160002060009054906101000a900460ff169050919050565b6000603360009054906101000a900473ffffffffffffffffffffffffffffffffffffffff16905090565b611728613956565b6117318261262e565b611770576040517f08c379a000000000000000000000000000000000000000000000000000000000815260040161176790614ddb565b60405180910390fd5b60fe6000838152602001908152602001600020604051806101400160405290816000820160009054906101000a900460ff161515151581526020016000820160019054906101000a900460ff1660ff1660ff1681526020016000820160029054906101000a900460ff1660ff1660ff1681526020016000820160039054906101000a900460ff1660ff1660ff1681526020016000820160049054906101000a900460ff1660ff1660ff1681526020016000820160059054906101000a900460ff1660ff1660ff1681526020016000820160069054906101000a900460ff1660ff1660ff1681526020016000820160079054906101000a900460ff1660ff1660ff1681526020016000820160089054906101000a900460ff1660ff1660ff1681526020016000820160099054906101000a900460ff1660ff1660ff16815250509050919050565b606060ca80546118c590614595565b80601f01602080910402602001604051908101604052809291908181526020018280546118f190614595565b801561193e5780601f106119135761010080835404028352916020019161193e565b820191906000526020600020905b81548152906001019060200180831161192157829003601f168201915b5050505050905090565b60ff6020528060005260406000206000915090505481565b61197261196b61269a565b8383612e10565b5050565b61197e61269a565b73ffffffffffffffffffffffffffffffffffffffff1661199c6116f6565b73ffffffffffffffffffffffffffffffffffffffff16146119f2576040517f08c379a00000000000000000000000000000000000000000000000000000000081526004016119e9906148c7565b60405180910390fd5b600161010060008373ffffffffffffffffffffffffffffffffffffffff1673ffffffffffffffffffffffffffffffffffffffff16815260200190815260200160002060006101000a81548160ff02191690831515021790555050565b611a5f611a5961269a565b836127d4565b611a9e576040517f08c379a0000000000000000000000000000000000000000000000000000000008152600401611a959061485b565b60405180910390fd5b611aaa84848484612f7d565b50505050565b662386f26fc1000081565b60fd5481565b6060611acc8261262e565b611b0b576040517f08c379a0000000000000000000000000000000000000000000000000000000008152600401611b0290614ddb565b60405180910390fd5b61011360009054906101000a900473ffffffffffffffffffffffffffffffffffffffff1673ffffffffffffffffffffffffffffffffffffffff1663c87b56dd836040518263ffffffff1660e01b8152600401611b679190614023565b600060405180830381865afa158015611b84573d6000803e3d6000fd5b505050506040513d6000823e3d601f19601f82011682018060405250810190611bad9190614e9c565b9050919050565b600060019054906101000a900460ff16611bdc5760008054906101000a900460ff1615611be5565b611be4612fd9565b5b611c24576040517f08c379a0000000000000000000000000000000000000000000000000000000008152600401611c1b90614f57565b60405180910390fd5b60008060019054906101000a900460ff161590508015611c74576001600060016101000a81548160ff02191690831515021790555060016000806101000a81548160ff0219169083151502179055505b611c7c612fea565b611c8461304b565b611cf86040518060400160405280601581526020017f526174416c6572742043686566732026205261747300000000000000000000008152506040518060400160405280600781526020017f43484546524154000000000000000000000000000000000000000000000000008152506130ac565b600060fb60006101000a81548161ffff021916908361ffff160217905550600060fb60026101000a81548161ffff021916908361ffff160217905550600060fb60046101000a81548161ffff021916908361ffff1602179055508261011360006101000a81548173ffffffffffffffffffffffffffffffffffffffff021916908373ffffffffffffffffffffffffffffffffffffffff1602179055508160fc81905550600582611da89190614fa6565b60fd819055506040518060c0016040528060ff8016815260200160df60ff16815260200160bf60ff168152602001609f60ff168152602001607f60ff168152602001605f60ff16815250610101600260128110611e0857611e07614adf565b5b01906006611e179291906139c6565b5060405180610100016040528060ff8016815260200160df60ff16815260200160bf60ff168152602001609f60ff168152602001607f60ff168152602001605f60ff168152602001603f60ff168152602001601f60ff16815250610101600360128110611e8757611e86614adf565b5b01906008611e96929190613a6d565b506040518060c0016040528060ff8016815260200160df60ff16815260200160bf60ff168152602001609f60ff168152602001607f60ff168152602001605f60ff16815250610101600460128110611ef157611ef0614adf565b5b01906006611f009291906139c6565b506040518060c0016040528060ff8016815260200160cf60ff168152602001609f60ff168152602001606f60ff168152602001603f60ff168152602001600f60ff16815250610101600560128110611f5b57611f5a614adf565b5b01906006611f6a9291906139c6565b506040518060c0016040528060ff8016815260200160df60ff16815260200160bf60ff168152602001609f60ff168152602001607f60ff168152602001605f60ff16815250610101600660128110611fc557611fc4614adf565b5b01906006611fd49291906139c6565b506040518060c0016040528060ff8016815260200160df60ff16815260200160bf60ff168152602001609f60ff168152602001607f60ff168152602001605f60ff16815250610101600c6012811061202f5761202e614adf565b5b0190600661203e9291906139c6565b5060405180610100016040528060ff8016815260200160df60ff16815260200160bf60ff168152602001609f60ff168152602001607f60ff168152602001605f60ff168152602001603f60ff168152602001601f60ff16815250610101600d601281106120ae576120ad614adf565b5b019060086120bd929190613a6d565b506040518060c0016040528060ff8016815260200160df60ff16815260200160bf60ff168152602001609f60ff168152602001607f60ff168152602001605f60ff16815250610101600e6012811061211857612117614adf565b5b019060066121279291906139c6565b506040518060c0016040528060ff8016815260200160cf60ff168152602001609f60ff168152602001606f60ff168152602001603f60ff168152602001600f60ff16815250610101600f6012811061218257612181614adf565b5b019060066121919291906139c6565b506040518060c0016040528060ff8016815260200160df60ff16815260200160bf60ff168152602001609f60ff168152602001607f60ff168152602001605f60ff168152506101016010601281106121ec576121eb614adf565b5b019060066121fb9291906139c6565b50801561221d5760008060016101000a81548160ff0219169083151502179055505b505050565b61011460009054906101000a900473ffffffffffffffffffffffffffffffffffffffff1681565b60fb60029054906101000a900461ffff1681565b60fe6020528060005260406000206000915090508060000160009054906101000a900460ff16908060000160019054906101000a900460ff16908060000160029054906101000a900460ff16908060000160039054906101000a900460ff16908060000160049054906101000a900460ff16908060000160059054906101000a900460ff16908060000160069054906101000a900460ff16908060000160079054906101000a900460ff16908060000160089054906101000a900460ff16908060000160099054906101000a900460ff1690508a565b61011360009054906101000a900473ffffffffffffffffffffffffffffffffffffffff1681565b600060ce60008473ffffffffffffffffffffffffffffffffffffffff1673ffffffffffffffffffffffffffffffffffffffff16815260200190815260200160002060008373ffffffffffffffffffffffffffffffffffffffff1673ffffffffffffffffffffffffffffffffffffffff16815260200190815260200160002060009054906101000a900460ff16905092915050565b6123f661269a565b73ffffffffffffffffffffffffffffffffffffffff166124146116f6565b73ffffffffffffffffffffffffffffffffffffffff161461246a576040517f08c379a0000000000000000000000000000000000000000000000000000000008152600401612461906148c7565b60405180910390fd5b600073ffffffffffffffffffffffffffffffffffffffff168173ffffffffffffffffffffffffffffffffffffffff1614156124da576040517f08c379a00000000000000000000000000000000000000000000000000000000081526004016124d190615049565b60405180910390fd5b6124e381612d4a565b50565b60fc5481565b6124f461269a565b73ffffffffffffffffffffffffffffffffffffffff166125126116f6565b73ffffffffffffffffffffffffffffffffffffffff1614612568576040517f08c379a000000000000000000000000000000000000000000000000000000000815260040161255f906148c7565b60405180910390fd5b600061010060008373ffffffffffffffffffffffffffffffffffffffff1673ffffffffffffffffffffffffffffffffffffffff16815260200190815260200160002060006101000a81548160ff02191690831515021790555050565b60007f01ffc9a7000000000000000000000000000000000000000000000000000000007bffffffffffffffffffffffffffffffffffffffffffffffffffffffff1916827bffffffffffffffffffffffffffffffffffffffffffffffffffffffff1916149050919050565b60008073ffffffffffffffffffffffffffffffffffffffff1660cb600084815260200190815260200160002060009054906101000a900473ffffffffffffffffffffffffffffffffffffffff1673ffffffffffffffffffffffffffffffffffffffff1614159050919050565b600033905090565b8160cd600083815260200190815260200160002060006101000a81548173ffffffffffffffffffffffffffffffffffffffff021916908373ffffffffffffffffffffffffffffffffffffffff160217905550808273ffffffffffffffffffffffffffffffffffffffff1661271583611338565b73ffffffffffffffffffffffffffffffffffffffff167f8c5be1e5ebec7d5bd14f71427d1e84f3dd0314c0f7b2291e5b200ac8c7c3b92560405160405180910390a45050565b6000808260000b1261279857606483836127759190615069565b60ff161161278e5781836127899190615069565b612791565b60645b90506127ce565b8260ff16826127a6906150a0565b60ff16116127c857816127b8906150a0565b836127c391906150e9565b6127cb565b60005b90505b92915050565b60006127df8261262e565b61281e576040517f08c379a00000000000000000000000000000000000000000000000000000000081526004016128159061518f565b60405180910390fd5b600061282983611338565b90508073ffffffffffffffffffffffffffffffffffffffff168473ffffffffffffffffffffffffffffffffffffffff16148061289857508373ffffffffffffffffffffffffffffffffffffffff1661288084610abc565b73ffffffffffffffffffffffffffffffffffffffff16145b806128a957506128a8818561235a565b5b91505092915050565b8273ffffffffffffffffffffffffffffffffffffffff166128d282611338565b73ffffffffffffffffffffffffffffffffffffffff1614612928576040517f08c379a000000000000000000000000000000000000000000000000000000000815260040161291f90615221565b60405180910390fd5b600073ffffffffffffffffffffffffffffffffffffffff168273ffffffffffffffffffffffffffffffffffffffff161415612998576040517f08c379a000000000000000000000000000000000000000000000000000000000815260040161298f906152b3565b60405180910390fd5b6129a3838383613119565b6129ae6000826126a2565b600160cc60008573ffffffffffffffffffffffffffffffffffffffff1673ffffffffffffffffffffffffffffffffffffffff16815260200190815260200160002060008282546129fe91906152d3565b92505081905550600160cc60008473ffffffffffffffffffffffffffffffffffffffff1673ffffffffffffffffffffffffffffffffffffffff1681526020019081526020016000206000828254612a559190615307565b925050819055508160cb600083815260200190815260200160002060006101000a81548173ffffffffffffffffffffffffffffffffffffffff021916908373ffffffffffffffffffffffffffffffffffffffff160217905550808273ffffffffffffffffffffffffffffffffffffffff168473ffffffffffffffffffffffffffffffffffffffff167fddf252ad1be2c89b69c2b068fc378daa952ba7f163c4a11628f55a4df523b3ef60405160405180910390a4505050565b600032600143612b1e91906152d3565b404284604051602001612b3494939291906153f1565b6040516020818303038152906040528051906020012060001c9050919050565b612b5c613956565b612b658261311e565b90506000612b7282613277565b9050600060ff6000838152602001908152602001600020541415612d10578160fe600086815260200190815260200160002060008201518160000160006101000a81548160ff02191690831515021790555060208201518160000160016101000a81548160ff021916908360ff16021790555060408201518160000160026101000a81548160ff021916908360ff16021790555060608201518160000160036101000a81548160ff021916908360ff16021790555060808201518160000160046101000a81548160ff021916908360ff16021790555060a08201518160000160056101000a81548160ff021916908360ff16021790555060c08201518160000160066101000a81548160ff021916908360ff16021790555060e08201518160000160076101000a81548160ff021916908360ff1602179055506101008201518160000160086101000a81548160ff021916908360ff1602179055506101208201518160000160096101000a81548160ff021916908360ff1602179055509050508360ff60008381526020019081526020016000208190555050612d26565b612d2284612d1d85612b0e565b612b54565b9150505b92915050565b612d468282604051806020016040528060008152506132da565b5050565b6000603360009054906101000a900473ffffffffffffffffffffffffffffffffffffffff16905081603360006101000a81548173ffffffffffffffffffffffffffffffffffffffff021916908373ffffffffffffffffffffffffffffffffffffffff1602179055508173ffffffffffffffffffffffffffffffffffffffff168173ffffffffffffffffffffffffffffffffffffffff167f8be0079c531659141344cd1fd0a4f28419497f9722a3daafe3b4186f6b6457e060405160405180910390a35050565b8173ffffffffffffffffffffffffffffffffffffffff168373ffffffffffffffffffffffffffffffffffffffff161415612e7f576040517f08c379a0000000000000000000000000000000000000000000000000000000008152600401612e769061548b565b60405180910390fd5b8060ce60008573ffffffffffffffffffffffffffffffffffffffff1673ffffffffffffffffffffffffffffffffffffffff16815260200190815260200160002060008473ffffffffffffffffffffffffffffffffffffffff1673ffffffffffffffffffffffffffffffffffffffff16815260200190815260200160002060006101000a81548160ff0219169083151502179055508173ffffffffffffffffffffffffffffffffffffffff168373ffffffffffffffffffffffffffffffffffffffff167f17307eab39ab6107e8899845ad3d59bd9653f200f220920489ca2b5937696c3183604051612f709190613c6b565b60405180910390a3505050565b612f888484846128b2565b612f9484848484613335565b612fd3576040517f08c379a0000000000000000000000000000000000000000000000000000000008152600401612fca9061551d565b60405180910390fd5b50505050565b6000612fe4306134bd565b15905090565b600060019054906101000a900460ff16613039576040517f08c379a0000000000000000000000000000000000000000000000000000000008152600401613030906155af565b60405180910390fd5b6130416134d0565b613049613521565b565b600060019054906101000a900460ff1661309a576040517f08c379a0000000000000000000000000000000000000000000000000000000008152600401613091906155af565b60405180910390fd5b6130a26134d0565b6130aa613582565b565b600060019054906101000a900460ff166130fb576040517f08c379a00000000000000000000000000000000000000000000000000000000081526004016130f2906155af565b60405180910390fd5b6131036134d0565b61310b6135ee565b613115828261363f565b5050565b505050565b613126613956565b6000600a61ffff841661313991906155cf565b14158160000190151590811515815250508060000151156131e55761315f8260026136c0565b816020019060ff16908160ff168152505061317b8260036136c0565b816040019060ff16908160ff16815250506131978260046136c0565b816080019060ff16908160ff16815250506131b38260056136c0565b8160a0019060ff16908160ff16815250506131cf8260066136c0565b8160c0019060ff16908160ff1681525050613272565b6131f082600c6136c0565b816020019060ff16908160ff168152505061320c82600d6136c0565b816040019060ff16908160ff168152505061322882600e6136c0565b816060019060ff16908160ff168152505061324482600f6136c0565b8160a0019060ff16908160ff16815250506132608260106136c0565b8160e0019060ff16908160ff16815250505b919050565b6000816000015182602001518360400151846060015185608001518660a001518760c001518860e001516040516020016132b898979695949392919061565f565b6040516020818303038152906040526132d09061572e565b60001c9050919050565b6132e48383613788565b6132f16000848484613335565b613330576040517f08c379a00000000000000000000000000000000000000000000000000000000081526004016133279061551d565b60405180910390fd5b505050565b60006133568473ffffffffffffffffffffffffffffffffffffffff166134bd565b156134b0578373ffffffffffffffffffffffffffffffffffffffff1663150b7a0261337f61269a565b8786866040518563ffffffff1660e01b81526004016133a194939291906157df565b6020604051808303816000875af19250505080156133dd57506040513d601f19601f820116820180604052508101906133da9190615840565b60015b613460573d806000811461340d576040519150601f19603f3d011682016040523d82523d6000602084013e613412565b606091505b50600081511415613458576040517f08c379a000000000000000000000000000000000000000000000000000000000815260040161344f9061551d565b60405180910390fd5b805181602001fd5b63150b7a0260e01b7bffffffffffffffffffffffffffffffffffffffffffffffffffffffff1916817bffffffffffffffffffffffffffffffffffffffffffffffffffffffff1916149150506134b5565b600190505b949350505050565b600080823b905060008111915050919050565b600060019054906101000a900460ff1661351f576040517f08c379a0000000000000000000000000000000000000000000000000000000008152600401613516906155af565b60405180910390fd5b565b600060019054906101000a900460ff16613570576040517f08c379a0000000000000000000000000000000000000000000000000000000008152600401613567906155af565b60405180910390fd5b61358061357b61269a565b612d4a565b565b600060019054906101000a900460ff166135d1576040517f08c379a00000000000000000000000000000000000000000000000000000000081526004016135c8906155af565b60405180910390fd5b6000606560006101000a81548160ff021916908315150217905550565b600060019054906101000a900460ff1661363d576040517f08c379a0000000000000000000000000000000000000000000000000000000008152600401613634906155af565b60405180910390fd5b565b600060019054906101000a900460ff1661368e576040517f08c379a0000000000000000000000000000000000000000000000000000000008152600401613685906155af565b60405180910390fd5b8160c990805190602001906136a4929190613b14565b508060ca90805190602001906136bb929190613b14565b505050565b60006010600a836136d1919061586d565b6136db919061589e565b60ff1683901c925060006101018360ff16601281106136fd576136fc614adf565b5b01805490508461370d919061586d565b9050600060ff851690506101018460ff166012811061372f5761372e614adf565b5b018260ff168154811061374557613744614adf565b5b90600052602060002090602091828204019190069054906101000a900460ff1660ff168160ff161161377b578192505050613782565b6000925050505b92915050565b600073ffffffffffffffffffffffffffffffffffffffff168273ffffffffffffffffffffffffffffffffffffffff1614156137f8576040517f08c379a00000000000000000000000000000000000000000000000000000000081526004016137ef90615925565b60405180910390fd5b6138018161262e565b15613841576040517f08c379a000000000000000000000000000000000000000000000000000000000815260040161383890615991565b60405180910390fd5b61384d60008383613119565b600160cc60008473ffffffffffffffffffffffffffffffffffffffff1673ffffffffffffffffffffffffffffffffffffffff168152602001908152602001600020600082825461389d9190615307565b925050819055508160cb600083815260200190815260200160002060006101000a81548173ffffffffffffffffffffffffffffffffffffffff021916908373ffffffffffffffffffffffffffffffffffffffff160217905550808273ffffffffffffffffffffffffffffffffffffffff16600073ffffffffffffffffffffffffffffffffffffffff167fddf252ad1be2c89b69c2b068fc378daa952ba7f163c4a11628f55a4df523b3ef60405160405180910390a45050565b604051806101400160405280600015158152602001600060ff168152602001600060ff168152602001600060ff168152602001600060ff168152602001600060ff168152602001600060ff168152602001600060ff168152602001600060ff168152602001600060ff1681525090565b82805482825590600052602060002090601f01602090048101928215613a5c5791602002820160005b83821115613a2d57835183826101000a81548160ff021916908360ff16021790555092602001926001016020816000010492830192600103026139ef565b8015613a5a5782816101000a81549060ff0219169055600101602081600001049283019260010302613a2d565b505b509050613a699190613b9a565b5090565b82805482825590600052602060002090601f01602090048101928215613b035791602002820160005b83821115613ad457835183826101000a81548160ff021916908360ff1602179055509260200192600101602081600001049283019260010302613a96565b8015613b015782816101000a81549060ff0219169055600101602081600001049283019260010302613ad4565b505b509050613b109190613b9a565b5090565b828054613b2090614595565b90600052602060002090601f016020900481019282613b425760008555613b89565b82601f10613b5b57805160ff1916838001178555613b89565b82800160010185558215613b89579182015b82811115613b88578251825591602001919060010190613b6d565b5b509050613b969190613b9a565b5090565b5b80821115613bb3576000816000905550600101613b9b565b5090565b6000604051905090565b600080fd5b600080fd5b60007fffffffff0000000000000000000000000000000000000000000000000000000082169050919050565b613c0081613bcb565b8114613c0b57600080fd5b50565b600081359050613c1d81613bf7565b92915050565b600060208284031215613c3957613c38613bc1565b5b6000613c4784828501613c0e565b91505092915050565b60008115159050919050565b613c6581613c50565b82525050565b6000602082019050613c806000830184613c5c565b92915050565b600081519050919050565b600082825260208201905092915050565b60005b83811015613cc0578082015181840152602081019050613ca5565b83811115613ccf576000848401525b50505050565b6000601f19601f8301169050919050565b6000613cf182613c86565b613cfb8185613c91565b9350613d0b818560208601613ca2565b613d1481613cd5565b840191505092915050565b60006020820190508181036000830152613d398184613ce6565b905092915050565b6000819050919050565b613d5481613d41565b8114613d5f57600080fd5b50565b600081359050613d7181613d4b565b92915050565b600060208284031215613d8d57613d8c613bc1565b5b6000613d9b84828501613d62565b91505092915050565b600073ffffffffffffffffffffffffffffffffffffffff82169050919050565b6000613dcf82613da4565b9050919050565b613ddf81613dc4565b82525050565b6000602082019050613dfa6000830184613dd6565b92915050565b600061ffff82169050919050565b613e1781613e00565b82525050565b6000602082019050613e326000830184613e0e565b92915050565b613e4181613dc4565b8114613e4c57600080fd5b50565b600081359050613e5e81613e38565b92915050565b60008060408385031215613e7b57613e7a613bc1565b5b6000613e8985828601613e4f565b9250506020613e9a85828601613d62565b9150509250929050565b60008160000b9050919050565b613eba81613ea4565b8114613ec557600080fd5b50565b600081359050613ed781613eb1565b92915050565b60008060408385031215613ef457613ef3613bc1565b5b6000613f0285828601613d62565b9250506020613f1385828601613ec8565b9150509250929050565b600060ff82169050919050565b613f3381613f1d565b82525050565b6000602082019050613f4e6000830184613f2a565b92915050565b600080600060608486031215613f6d57613f6c613bc1565b5b6000613f7b86828701613e4f565b9350506020613f8c86828701613e4f565b9250506040613f9d86828701613d62565b9150509250925092565b600060208284031215613fbd57613fbc613bc1565b5b6000613fcb84828501613e4f565b91505092915050565b60008060408385031215613feb57613fea613bc1565b5b6000613ff985828601613d62565b925050602061400a85828601613d62565b9150509250929050565b61401d81613d41565b82525050565b60006020820190506140386000830184614014565b92915050565b61404781613f1d565b811461405257600080fd5b50565b6000813590506140648161403e565b92915050565b61407381613c50565b811461407e57600080fd5b50565b6000813590506140908161406a565b92915050565b600080604083850312156140ad576140ac613bc1565b5b60006140bb85828601614055565b92505060206140cc85828601614081565b9150509250929050565b6140df81613c50565b82525050565b6140ee81613f1d565b82525050565b6101408201600082015161410b60008501826140d6565b50602082015161411e60208501826140e5565b50604082015161413160408501826140e5565b50606082015161414460608501826140e5565b50608082015161415760808501826140e5565b5060a082015161416a60a08501826140e5565b5060c082015161417d60c08501826140e5565b5060e082015161419060e08501826140e5565b506101008201516141a56101008501826140e5565b506101208201516141ba6101208501826140e5565b50505050565b6000610140820190506141d660008301846140f4565b92915050565b600080604083850312156141f3576141f2613bc1565b5b600061420185828601613e4f565b925050602061421285828601614081565b9150509250929050565b600080fd5b600080fd5b7f4e487b7100000000000000000000000000000000000000000000000000000000600052604160045260246000fd5b61425e82613cd5565b810181811067ffffffffffffffff8211171561427d5761427c614226565b5b80604052505050565b6000614290613bb7565b905061429c8282614255565b919050565b600067ffffffffffffffff8211156142bc576142bb614226565b5b6142c582613cd5565b9050602081019050919050565b82818337600083830152505050565b60006142f46142ef846142a1565b614286565b9050828152602081018484840111156143105761430f614221565b5b61431b8482856142d2565b509392505050565b600082601f8301126143385761433761421c565b5b81356143488482602086016142e1565b91505092915050565b6000806000806080858703121561436b5761436a613bc1565b5b600061437987828801613e4f565b945050602061438a87828801613e4f565b935050604061439b87828801613d62565b925050606085013567ffffffffffffffff8111156143bc576143bb613bc6565b5b6143c887828801614323565b91505092959194509250565b6000819050919050565b60006143f96143f46143ef84613da4565b6143d4565b613da4565b9050919050565b600061440b826143de565b9050919050565b600061441d82614400565b9050919050565b61442d81614412565b82525050565b60006020820190506144486000830184614424565b92915050565b600061014082019050614464600083018d613c5c565b614471602083018c613f2a565b61447e604083018b613f2a565b61448b606083018a613f2a565b6144986080830189613f2a565b6144a560a0830188613f2a565b6144b260c0830187613f2a565b6144bf60e0830186613f2a565b6144cd610100830185613f2a565b6144db610120830184613f2a565b9b9a5050505050505050505050565b60006144f582614400565b9050919050565b614505816144ea565b82525050565b600060208201905061452060008301846144fc565b92915050565b6000806040838503121561453d5761453c613bc1565b5b600061454b85828601613e4f565b925050602061455c85828601613e4f565b9150509250929050565b7f4e487b7100000000000000000000000000000000000000000000000000000000600052602260045260246000fd5b600060028204905060018216806145ad57607f821691505b602082108114156145c1576145c0614566565b5b50919050565b7f4552433732313a20617070726f76656420717565727920666f72206e6f6e657860008201527f697374656e7420746f6b656e0000000000000000000000000000000000000000602082015250565b6000614623602c83613c91565b915061462e826145c7565b604082019050919050565b6000602082019050818103600083015261465281614616565b9050919050565b7f4552433732313a20617070726f76616c20746f2063757272656e74206f776e6560008201527f7200000000000000000000000000000000000000000000000000000000000000602082015250565b60006146b5602183613c91565b91506146c082614659565b604082019050919050565b600060208201905081810360008301526146e4816146a8565b9050919050565b7f4552433732313a20617070726f76652063616c6c6572206973206e6f74206f7760008201527f6e6572206e6f7220617070726f76656420666f7220616c6c0000000000000000602082015250565b6000614747603883613c91565b9150614752826146eb565b604082019050919050565b600060208201905081810360008301526147768161473a565b9050919050565b7f4f6e6c7920636f6e74726f6c6c6572732063616e207570646174650000000000600082015250565b60006147b3601b83613c91565b91506147be8261477d565b602082019050919050565b600060208201905081810360008301526147e2816147a6565b9050919050565b7f4552433732313a207472616e736665722063616c6c6572206973206e6f74206f60008201527f776e6572206e6f7220617070726f766564000000000000000000000000000000602082015250565b6000614845603183613c91565b9150614850826147e9565b604082019050919050565b6000602082019050818103600083015261487481614838565b9050919050565b7f4f776e61626c653a2063616c6c6572206973206e6f7420746865206f776e6572600082015250565b60006148b1602083613c91565b91506148bc8261487b565b602082019050919050565b600060208201905081810360008301526148e0816148a4565b9050919050565b7f5061757361626c653a2070617573656400000000000000000000000000000000600082015250565b600061491d601083613c91565b9150614928826148e7565b602082019050919050565b6000602082019050818103600083015261494c81614910565b9050919050565b7f496e76616c6964206d696e7420616d6f756e7400000000000000000000000000600082015250565b6000614989601383613c91565b915061499482614953565b602082019050919050565b600060208201905081810360008301526149b88161497c565b9050919050565b7f4e487b7100000000000000000000000000000000000000000000000000000000600052601160045260246000fd5b60006149f982613d41565b9150614a0483613d41565b9250817fffffffffffffffffffffffffffffffffffffffffffffffffffffffffffffffff0483118215151615614a3d57614a3c6149bf565b5b828202905092915050565b7f496e76616c6964207061796d656e7420616d6f756e7400000000000000000000600082015250565b6000614a7e601683613c91565b9150614a8982614a48565b602082019050919050565b60006020820190508181036000830152614aad81614a71565b9050919050565b6000614abf82613e00565b915061ffff821415614ad457614ad36149bf565b5b600182019050919050565b7f4e487b7100000000000000000000000000000000000000000000000000000000600052603260045260246000fd5b6000614b1982613d41565b91507fffffffffffffffffffffffffffffffffffffffffffffffffffffffffffffffff821415614b4c57614b4b6149bf565b5b600182019050919050565b600081519050919050565b600082825260208201905092915050565b6000819050602082019050919050565b614b8c81613e00565b82525050565b6000614b9e8383614b83565b60208301905092915050565b6000602082019050919050565b6000614bc282614b57565b614bcc8185614b62565b9350614bd783614b73565b8060005b83811015614c08578151614bef8882614b92565b9750614bfa83614baa565b925050600181019050614bdb565b5085935050505092915050565b6000604082019050614c2a6000830185613dd6565b8181036020830152614c3c8184614bb7565b90509392505050565b7f4552433732313a206f776e657220717565727920666f72206e6f6e657869737460008201527f656e7420746f6b656e0000000000000000000000000000000000000000000000602082015250565b6000614ca1602983613c91565b9150614cac82614c45565b604082019050919050565b60006020820190508181036000830152614cd081614c94565b9050919050565b7f4552433732313a2062616c616e636520717565727920666f7220746865207a6560008201527f726f206164647265737300000000000000000000000000000000000000000000602082015250565b6000614d33602a83613c91565b9150614d3e82614cd7565b604082019050919050565b60006020820190508181036000830152614d6281614d26565b9050919050565b7f4552433732314d657461646174613a2055524920717565727920666f72206e6f60008201527f6e2d6578697374656e7420746f6b656e00000000000000000000000000000000602082015250565b6000614dc5603083613c91565b9150614dd082614d69565b604082019050919050565b60006020820190508181036000830152614df481614db8565b9050919050565b600067ffffffffffffffff821115614e1657614e15614226565b5b614e1f82613cd5565b9050602081019050919050565b6000614e3f614e3a84614dfb565b614286565b905082815260208101848484011115614e5b57614e5a614221565b5b614e66848285613ca2565b509392505050565b600082601f830112614e8357614e8261421c565b5b8151614e93848260208601614e2c565b91505092915050565b600060208284031215614eb257614eb1613bc1565b5b600082015167ffffffffffffffff811115614ed057614ecf613bc6565b5b614edc84828501614e6e565b91505092915050565b7f496e697469616c697a61626c653a20636f6e747261637420697320616c72656160008201527f647920696e697469616c697a6564000000000000000000000000000000000000602082015250565b6000614f41602e83613c91565b9150614f4c82614ee5565b604082019050919050565b60006020820190508181036000830152614f7081614f34565b9050919050565b7f4e487b7100000000000000000000000000000000000000000000000000000000600052601260045260246000fd5b6000614fb182613d41565b9150614fbc83613d41565b925082614fcc57614fcb614f77565b5b828204905092915050565b7f4f776e61626c653a206e6577206f776e657220697320746865207a65726f206160008201527f6464726573730000000000000000000000000000000000000000000000000000602082015250565b6000615033602683613c91565b915061503e82614fd7565b604082019050919050565b6000602082019050818103600083015261506281615026565b9050919050565b600061507482613f1d565b915061507f83613f1d565b92508260ff03821115615095576150946149bf565b5b828201905092915050565b60006150ab82613ea4565b91507fffffffffffffffffffffffffffffffffffffffffffffffffffffffffffffff808214156150de576150dd6149bf565b5b816000039050919050565b60006150f482613f1d565b91506150ff83613f1d565b925082821015615112576151116149bf565b5b828203905092915050565b7f4552433732313a206f70657261746f7220717565727920666f72206e6f6e657860008201527f697374656e7420746f6b656e0000000000000000000000000000000000000000602082015250565b6000615179602c83613c91565b91506151848261511d565b604082019050919050565b600060208201905081810360008301526151a88161516c565b9050919050565b7f4552433732313a207472616e73666572206f6620746f6b656e2074686174206960008201527f73206e6f74206f776e0000000000000000000000000000000000000000000000602082015250565b600061520b602983613c91565b9150615216826151af565b604082019050919050565b6000602082019050818103600083015261523a816151fe565b9050919050565b7f4552433732313a207472616e7366657220746f20746865207a65726f2061646460008201527f7265737300000000000000000000000000000000000000000000000000000000602082015250565b600061529d602483613c91565b91506152a882615241565b604082019050919050565b600060208201905081810360008301526152cc81615290565b9050919050565b60006152de82613d41565b91506152e983613d41565b9250828210156152fc576152fb6149bf565b5b828203905092915050565b600061531282613d41565b915061531d83613d41565b9250827fffffffffffffffffffffffffffffffffffffffffffffffffffffffffffffffff03821115615352576153516149bf565b5b828201905092915050565b60008160601b9050919050565b60006153758261535d565b9050919050565b60006153878261536a565b9050919050565b61539f61539a82613dc4565b61537c565b82525050565b6000819050919050565b6000819050919050565b6153ca6153c5826153a5565b6153af565b82525050565b6000819050919050565b6153eb6153e682613d41565b6153d0565b82525050565b60006153fd828761538e565b60148201915061540d82866153b9565b60208201915061541d82856153da565b60208201915061542d82846153da565b60208201915081905095945050505050565b7f4552433732313a20617070726f766520746f2063616c6c657200000000000000600082015250565b6000615475601983613c91565b91506154808261543f565b602082019050919050565b600060208201905081810360008301526154a481615468565b9050919050565b7f4552433732313a207472616e7366657220746f206e6f6e20455243373231526560008201527f63656976657220696d706c656d656e7465720000000000000000000000000000602082015250565b6000615507603283613c91565b9150615512826154ab565b604082019050919050565b60006020820190508181036000830152615536816154fa565b9050919050565b7f496e697469616c697a61626c653a20636f6e7472616374206973206e6f74206960008201527f6e697469616c697a696e67000000000000000000000000000000000000000000602082015250565b6000615599602b83613c91565b91506155a48261553d565b604082019050919050565b600060208201905081810360008301526155c88161558c565b9050919050565b60006155da82613d41565b91506155e583613d41565b9250826155f5576155f4614f77565b5b828206905092915050565b60008160f81b9050919050565b600061561882615600565b9050919050565b600061562a8261560d565b9050919050565b61564261563d82613c50565b61561f565b82525050565b61565961565482613f1d565b61560d565b82525050565b600061566b828b615631565b60018201915061567b828a615648565b60018201915061568b8289615648565b60018201915061569b8288615648565b6001820191506156ab8287615648565b6001820191506156bb8286615648565b6001820191506156cb8285615648565b6001820191506156db8284615648565b6001820191508190509998505050505050505050565b600081519050919050565b6000819050602082019050919050565b600061571882516153a5565b80915050919050565b600082821b905092915050565b6000615739826156f1565b82615743846156fc565b905061574e8161570c565b9250602082101561578e576157897fffffffffffffffffffffffffffffffffffffffffffffffffffffffffffffffff83602003600802615721565b831692505b5050919050565b600082825260208201905092915050565b60006157b1826156f1565b6157bb8185615795565b93506157cb818560208601613ca2565b6157d481613cd5565b840191505092915050565b60006080820190506157f46000830187613dd6565b6158016020830186613dd6565b61580e6040830185614014565b818103606083015261582081846157a6565b905095945050505050565b60008151905061583a81613bf7565b92915050565b60006020828403121561585657615855613bc1565b5b60006158648482850161582b565b91505092915050565b600061587882613f1d565b915061588383613f1d565b92508261589357615892614f77565b5b828206905092915050565b60006158a982613f1d565b91506158b483613f1d565b92508160ff04831182151516156158ce576158cd6149bf565b5b828202905092915050565b7f4552433732313a206d696e7420746f20746865207a65726f2061646472657373600082015250565b600061590f602083613c91565b915061591a826158d9565b602082019050919050565b6000602082019050818103600083015261593e81615902565b9050919050565b7f4552433732313a20746f6b656e20616c7265616479206d696e74656400000000600082015250565b600061597b601c83613c91565b915061598682615945565b602082019050919050565b600060208201905081810360008301526159aa8161596e565b905091905056fea2646970667358221220662f9c23df9290f7cb9cd5ac4a134c26fa33ab2875561e7b3f046590fe462d2264736f6c634300080a0033",
  "immutableReferences": {},
  "source": "// SPDX-License-Identifier: MIT\n\npragma solidity ^0.8.0;\n\nimport \"@openzeppelin/contracts-upgradeable/proxy/utils/Initializable.sol\";\nimport \"@openzeppelin/contracts-upgradeable/access/OwnableUpgradeable.sol\";\nimport \"@openzeppelin/contracts-upgradeable/security/PausableUpgradeable.sol\";\nimport \"@openzeppelin/contracts-upgradeable/token/ERC721/ERC721Upgradeable.sol\";\nimport \"./IChefRat.sol\";\nimport \"./IKitchenPack.sol\";\nimport \"./ITraits.sol\";\n\ncontract ChefRatTest is IChefRat, Initializable, OwnableUpgradeable, PausableUpgradeable, ERC721Upgradeable {\n  uint16 public minted;\n  uint16 public numChefs;\n  uint16 public numRats;\n  uint256 public constant MINT_PRICE = .01 ether;\n  uint256 public MAX_TOKENS; // Max number of tokens that can be minted - 50000 in production\n  uint256 public PAID_TOKENS; // Number of tokens that can be claimed for free - 20% of MAX_TOKENS\n//  uint256 public constant CHEF = 0;\n//  uint256 public constant RAT = 1;\n\n  mapping(uint256 => ChefRatStruct) public tokenTraits; // Mapping from tokenId to a struct containing the token's traits\n  mapping(uint256 => uint256) public existingCombinations; // Mapping from hashed(tokenTrait) to the tokenId it's associated with, used to ensure there are no duplicates\n  mapping(address => bool) controllers; // a mapping from an address to whether or not it can mint / burn\n  uint8[][18] public rarities; // List of probabilities for each trait type, 0 - 9 are associated with Chefs, 10 - 18 are associated with Rats\n\n  ITraits public traits; // Reference to Traits\n  IKitchenPack public kitchenPack;\n\n  function initialize(address _traits, uint256 _maxTokens) external initializer {\n    __Ownable_init();\n    __Pausable_init();\n    __ERC721_init(\"RatAlert Chefs & Rats\", \"CHEFRAT\");\n\n    minted = 0;\n    numChefs = 0;\n    numRats = 0;\n    traits = ITraits(_traits);\n    MAX_TOKENS = _maxTokens;\n    PAID_TOKENS = _maxTokens / 5;\n\n    // Chefs\n    rarities[2] = [255, 223, 191, 159, 127, 95]; // hat\n    rarities[3] = [255, 223, 191, 159, 127, 95, 63, 31]; // eyes\n    rarities[4] = [255, 223, 191, 159, 127, 95]; // mouth\n    rarities[5] = [255, 207, 159, 111, 63, 15]; // neck\n    rarities[6] = [255, 223, 191, 159, 127, 95]; // hand\n    // Rats\n    rarities[12] = [255, 223, 191, 159, 127, 95]; // hat\n    rarities[13] = [255, 223, 191, 159, 127, 95, 63, 31]; // eyes\n    rarities[14] = [255, 223, 191, 159, 127, 95]; // piercing\n    rarities[15] = [255, 207, 159, 111, 63, 15]; // neck\n    rarities[16] = [255, 223, 191, 159, 127, 95]; // tail\n  }\n\n  /**\n   * Mints a new ERC721 token: 90% chefs, 10% rats\n   * The first 20% are free to claim, the remaining cost $FFOOD\n   * @param amount Number of tokens to mint\n   */\n  function mint(uint8 amount, bool stake) external payable whenNotPaused {\n    require(amount > 0 && amount <= 10, \"Invalid mint amount\");\n    require(amount * MINT_PRICE == msg.value, \"Invalid payment amount\");\n\n    uint16[] memory tokenIds = stake ? new uint16[](amount) : new uint16[](0);\n    uint256 seed;\n    ChefRatStruct memory s;\n    for (uint i = 0; i < amount; i++) {\n      minted++;\n      seed = random(minted);\n      s = generate(minted, seed);\n      if (stake) {\n        _safeMint(address(kitchenPack), minted);\n        tokenIds[i] = minted;\n      } else {\n        _safeMint(_msgSender(), minted);\n      }\n      s.isChef ? numChefs++ : numRats++;\n    }\n    if (stake) kitchenPack.stakeMany(_msgSender(), tokenIds);\n  }\n\n  /**\n   * Generates traits for a specific token, checking to make sure it's unique\n   * @param tokenId - The id of the token to generate traits for\n   * @param seed - A pseudorandom 256 bit number to derive traits from\n   * @return t - A struct of traits for the given token ID\n   */\n  function generate(uint256 tokenId, uint256 seed) internal returns (ChefRatStruct memory t) {\n    t = selectTraits(seed);\n    uint256 hash = structToHash(t);\n    if (existingCombinations[hash] == 0) {\n      tokenTraits[tokenId] = t;\n      existingCombinations[hash] = tokenId;\n      return t;\n    }\n    return generate(tokenId, random(seed));\n  }\n\n  /**\n   * Selects the species and all of its traits based on the seed value\n   * @param seed - A pseudorandom 256 bit number to derive traits from\n   * @return t -  A struct of randomly selected traits\n   */\n  function selectTraits(uint256 seed) internal view returns (ChefRatStruct memory t) {\n    t.isChef = (seed & 0xFFFF) % 10 != 0;\n    if (t.isChef) {\n      t.hat = selectTrait(seed, 2);\n      t.eyes = selectTrait(seed, 3);\n      t.mouth = selectTrait(seed, 4);\n      t.neck = selectTrait(seed, 5);\n      t.hand = selectTrait(seed, 6);\n    } else {\n      t.hat = selectTrait(seed, 12);\n      t.eyes = selectTrait(seed, 13);\n      t.piercing = selectTrait(seed, 14);\n      t.neck = selectTrait(seed, 15);\n      t.tail = selectTrait(seed, 16);\n    }\n    return t;\n  }\n\n  /**\n   * Uses A.J. Walker's Alias algorithm for O(1) rarity table lookup\n   * ensuring O(1) instead of O(n) reduces mint cost by more than 50%\n   * probability & alias tables are generated off-chain beforehand\n   * @param seed - Portion of the 256 bit seed to remove trait correlation\n   * @param traitIndex - The trait index to select a trait for\n   * @return The ID of the randomly selected trait\n   */\n  function selectTrait(uint256 seed, uint8 traitIndex) internal view returns (uint8) {\n    seed = seed >>= (traitIndex % 10 * 16);\n    uint8 trait = uint8(seed) % uint8(rarities[traitIndex].length); // Selected trait index\n    uint8 rand = uint8(seed & 0xFFFF >> 8); // Random integer from 0 to 255\n    if (rand <= rarities[traitIndex][trait]) return trait;\n    return 0;\n  }\n\n  /**\n   * Converts a struct to a 256 bit hash to check for uniqueness\n   * @param s - The struct to pack into a hash\n   * @return The 256 bit hash of the struct\n   */\n  function structToHash(ChefRatStruct memory s) internal pure returns (uint256) {\n    return uint256(bytes32(\n      abi.encodePacked(\n        s.isChef,\n        s.hat,\n        s.eyes,\n        s.piercing,\n        s.mouth,\n        s.neck,\n        s.hand,\n        s.tail\n      )\n    ));\n  }\n\n  function getUpdatedValue(uint8 old, int8 increment) internal pure returns(uint8) {\n    if (increment >= 0) {\n      return (uint8(increment) + old > 100) ? 100 : old + uint8(increment);\n    } else {\n      return (uint8(-increment) > old) ? 0 : old - uint8(-increment);\n    }\n  }\n\n  function updateEfficiency(uint256 tokenId, int8 increment) public returns(uint8) {\n    require(controllers[msg.sender], \"Only controllers can update\");\n    uint8 value = getUpdatedValue(tokenTraits[tokenId].efficiency, increment);\n    tokenTraits[tokenId].efficiency = value;\n    return value;\n  }\n\n  function updateTolerance(uint256 tokenId, int8 increment) public returns(uint8) {\n    require(controllers[msg.sender], \"Only controllers can update\");\n    uint8 value = getUpdatedValue(tokenTraits[tokenId].tolerance, increment);\n    tokenTraits[tokenId].tolerance = value;\n    return value;\n  }\n\n  function tokenURI(uint256 tokenId) public view override returns (string memory) {\n    require(_exists(tokenId), \"ERC721Metadata: URI query for non-existent token\");\n    return traits.tokenURI(tokenId);\n  }\n\n  function getTokenTraits(uint256 tokenId) external view override returns (ChefRatStruct memory) {\n    require(_exists(tokenId), \"ERC721Metadata: URI query for non-existent token\");\n    return tokenTraits[tokenId];\n  }\n\n  function getPaidTokens() external view override returns (uint256) {\n    return PAID_TOKENS;\n  }\n\n  /**\n   * Gets controller status by address\n   * @param controller the address to check\n   */\n  function getController(address controller) external view onlyOwner returns (bool) {\n    return controllers[controller];\n  }\n\n  /**\n   * Enables an address to mint / burn\n   * @param controller the address to enable\n   */\n  function addController(address controller) external onlyOwner {\n    controllers[controller] = true;\n  }\n\n  /**\n   * Disables an address from minting / burning\n   * @param controller the address to disable\n   */\n  function removeController(address controller) external onlyOwner {\n    controllers[controller] = false;\n  }\n\n  /**\n   * called after deployment to avoid cyclical dependencies\n   * @param _kitchenPack the address of the KitchenPack\n   */\n  function setKitchenPack(address _kitchenPack) external onlyOwner {\n    kitchenPack = IKitchenPack(_kitchenPack);\n  }\n\n  /**\n   * Generates a pseudorandom number\n   * @param seed A value ensure different outcomes for different sources in the same block\n   * @return A pseudorandom value\n   */\n  function random(uint256 seed) internal view returns (uint256) {\n    return uint256(keccak256(abi.encodePacked(\n      tx.origin,\n      blockhash(block.number - 1),\n      block.timestamp,\n      seed\n    )));\n  }\n}\n",
  "sourcePath": "/Users/chris/workspace/ratalert/ratalert-contracts/contracts/ChefRatTest.sol",
  "compiler": {
    "name": "solc",
    "version": "0.8.10+commit.fc410830.Emscripten.clang"
  },
  "schemaVersion": "3.4.4",
  "updatedAt": "2022-01-28T16:00:42.987Z",
  "networkType": "ethereum",
  "devdoc": {
    "kind": "dev",
    "methods": {
      "addController(address)": {
        "params": {
          "controller": "the address to enable"
        }
      },
      "approve(address,uint256)": {
        "details": "See {IERC721-approve}."
      },
      "balanceOf(address)": {
        "details": "See {IERC721-balanceOf}."
      },
      "getApproved(uint256)": {
        "details": "See {IERC721-getApproved}."
      },
      "getController(address)": {
        "params": {
          "controller": "the address to check"
        }
      },
      "isApprovedForAll(address,address)": {
        "details": "See {IERC721-isApprovedForAll}."
      },
      "mint(uint8,bool)": {
        "params": {
          "amount": "Number of tokens to mint"
        }
      },
      "name()": {
        "details": "See {IERC721Metadata-name}."
      },
      "owner()": {
        "details": "Returns the address of the current owner."
      },
      "ownerOf(uint256)": {
        "details": "See {IERC721-ownerOf}."
      },
      "paused()": {
        "details": "Returns true if the contract is paused, and false otherwise."
      },
      "removeController(address)": {
        "params": {
          "controller": "the address to disable"
        }
      },
      "renounceOwnership()": {
        "details": "Leaves the contract without owner. It will not be possible to call `onlyOwner` functions anymore. Can only be called by the current owner. NOTE: Renouncing ownership will leave the contract without an owner, thereby removing any functionality that is only available to the owner."
      },
      "safeTransferFrom(address,address,uint256)": {
        "details": "See {IERC721-safeTransferFrom}."
      },
      "safeTransferFrom(address,address,uint256,bytes)": {
        "details": "See {IERC721-safeTransferFrom}."
      },
      "setApprovalForAll(address,bool)": {
        "details": "See {IERC721-setApprovalForAll}."
      },
      "setKitchenPack(address)": {
        "params": {
          "_kitchenPack": "the address of the KitchenPack"
        }
      },
      "supportsInterface(bytes4)": {
        "details": "See {IERC165-supportsInterface}."
      },
      "symbol()": {
        "details": "See {IERC721Metadata-symbol}."
      },
      "tokenURI(uint256)": {
        "details": "See {IERC721Metadata-tokenURI}."
      },
      "transferFrom(address,address,uint256)": {
        "details": "See {IERC721-transferFrom}."
      },
      "transferOwnership(address)": {
        "details": "Transfers ownership of the contract to a new account (`newOwner`). Can only be called by the current owner."
      }
    },
    "version": 1
  },
  "userdoc": {
    "kind": "user",
    "methods": {
      "addController(address)": {
        "notice": "Enables an address to mint / burn"
      },
      "getController(address)": {
        "notice": "Gets controller status by address"
      },
      "mint(uint8,bool)": {
        "notice": "Mints a new ERC721 token: 90% chefs, 10% rats The first 20% are free to claim, the remaining cost $FFOOD"
      },
      "removeController(address)": {
        "notice": "Disables an address from minting / burning"
      },
      "setKitchenPack(address)": {
        "notice": "called after deployment to avoid cyclical dependencies"
      }
    },
    "version": 1
  }
}