{
  "contractName": "Claim",
  "abi": [
    {
      "anonymous": false,
      "inputs": [
        {
          "indexed": true,
          "internalType": "address",
          "name": "previousOwner",
          "type": "address"
        },
        {
          "indexed": true,
          "internalType": "address",
          "name": "newOwner",
          "type": "address"
        }
      ],
      "name": "OwnershipTransferred",
      "type": "event"
    },
    {
      "anonymous": false,
      "inputs": [
        {
          "indexed": false,
          "internalType": "bytes32",
          "name": "requestId",
          "type": "bytes32"
        },
        {
          "indexed": false,
          "internalType": "address",
          "name": "sender",
          "type": "address"
        }
      ],
      "name": "RandomNumberFulfilled",
      "type": "event"
    },
    {
      "anonymous": false,
      "inputs": [
        {
          "indexed": false,
          "internalType": "bytes32",
          "name": "requestId",
          "type": "bytes32"
        },
        {
          "indexed": false,
          "internalType": "address",
          "name": "sender",
          "type": "address"
        }
      ],
      "name": "RandomNumberRequested",
      "type": "event"
    },
    {
      "inputs": [
        {
          "internalType": "address[]",
          "name": "_controllers",
          "type": "address[]"
        }
      ],
      "name": "addController",
      "outputs": [],
      "stateMutability": "nonpayable",
      "type": "function"
    },
    {
      "inputs": [
        {
          "internalType": "address",
          "name": "_controller",
          "type": "address"
        }
      ],
      "name": "controller",
      "outputs": [
        {
          "internalType": "bool",
          "name": "",
          "type": "bool"
        }
      ],
      "stateMutability": "view",
      "type": "function",
      "constant": true
    },
    {
      "inputs": [],
      "name": "owner",
      "outputs": [
        {
          "internalType": "address",
          "name": "",
          "type": "address"
        }
      ],
      "stateMutability": "view",
      "type": "function",
      "constant": true
    },
    {
      "inputs": [
        {
          "internalType": "bytes32",
          "name": "requestId",
          "type": "bytes32"
        },
        {
          "internalType": "uint256",
          "name": "randomness",
          "type": "uint256"
        }
      ],
      "name": "rawFulfillRandomness",
      "outputs": [],
      "stateMutability": "nonpayable",
      "type": "function"
    },
    {
      "inputs": [
        {
          "internalType": "address[]",
          "name": "_controllers",
          "type": "address[]"
        }
      ],
      "name": "removeController",
      "outputs": [],
      "stateMutability": "nonpayable",
      "type": "function"
    },
    {
      "inputs": [],
      "name": "renounceOwnership",
      "outputs": [],
      "stateMutability": "nonpayable",
      "type": "function"
    },
    {
      "inputs": [
        {
          "internalType": "address",
          "name": "_dao",
          "type": "address"
        }
      ],
      "name": "setDao",
      "outputs": [],
      "stateMutability": "nonpayable",
      "type": "function"
    },
    {
      "inputs": [
        {
          "internalType": "address",
          "name": "newOwner",
          "type": "address"
        }
      ],
      "name": "transferOwnership",
      "outputs": [],
      "stateMutability": "nonpayable",
      "type": "function"
    },
    {
      "inputs": [
        {
          "internalType": "bytes32",
          "name": "",
          "type": "bytes32"
        }
      ],
      "name": "vrfRequests",
      "outputs": [
        {
          "internalType": "bytes32",
          "name": "requestId",
          "type": "bytes32"
        },
        {
          "internalType": "address",
          "name": "venue",
          "type": "address"
        },
        {
          "internalType": "address",
          "name": "sender",
          "type": "address"
        },
        {
          "internalType": "bool",
          "name": "unstake",
          "type": "bool"
        }
      ],
      "stateMutability": "view",
      "type": "function",
      "constant": true
    },
    {
      "inputs": [
        {
          "internalType": "uint256",
          "name": "amount",
          "type": "uint256"
        }
      ],
      "name": "withdrawLink",
      "outputs": [
        {
          "internalType": "bool",
          "name": "success",
          "type": "bool"
        }
      ],
      "stateMutability": "nonpayable",
      "type": "function"
    },
    {
      "inputs": [
        {
          "internalType": "address",
          "name": "_vrfCoordinator",
          "type": "address"
        },
        {
          "internalType": "address",
          "name": "_link",
          "type": "address"
        },
        {
          "internalType": "bytes32",
          "name": "_keyHash",
          "type": "bytes32"
        },
        {
          "internalType": "uint256",
          "name": "_fee",
          "type": "uint256"
        }
      ],
      "name": "initialize",
      "outputs": [],
      "stateMutability": "nonpayable",
      "type": "function"
    },
    {
      "inputs": [
        {
          "internalType": "address",
          "name": "_vrfCoordinator",
          "type": "address"
        },
        {
          "internalType": "address",
          "name": "_link",
          "type": "address"
        }
      ],
      "name": "initialize",
      "outputs": [],
      "stateMutability": "nonpayable",
      "type": "function"
    },
    {
      "inputs": [
        {
          "internalType": "address",
          "name": "_vrfCoordinator",
          "type": "address"
        },
        {
          "internalType": "address",
          "name": "_link",
          "type": "address"
        },
        {
          "internalType": "bytes32",
          "name": "_keyHash",
          "type": "bytes32"
        },
        {
          "internalType": "uint256",
          "name": "_fee",
          "type": "uint256"
        }
      ],
      "name": "setVrfParams",
      "outputs": [],
      "stateMutability": "nonpayable",
      "type": "function"
    },
    {
      "inputs": [
        {
          "internalType": "address",
          "name": "sender",
          "type": "address"
        },
        {
          "internalType": "uint16[]",
          "name": "tokenIds",
          "type": "uint16[]"
        },
        {
          "internalType": "bool",
          "name": "unstake",
          "type": "bool"
        }
      ],
      "name": "requestRandomNumber",
      "outputs": [
        {
          "internalType": "bytes32",
          "name": "requestId",
          "type": "bytes32"
        }
      ],
      "stateMutability": "nonpayable",
      "type": "function"
    },
    {
      "inputs": [
        {
          "internalType": "address[]",
          "name": "_venues",
          "type": "address[]"
        }
      ],
      "name": "addVenue",
      "outputs": [],
      "stateMutability": "nonpayable",
      "type": "function"
    },
    {
      "inputs": [
        {
          "internalType": "address[]",
          "name": "_venues",
          "type": "address[]"
        }
      ],
      "name": "removeVenue",
      "outputs": [],
      "stateMutability": "nonpayable",
      "type": "function"
    }
  ],
  "bytecode": "0x608060405234801561001057600080fd5b50612c03806100206000396000f3fe608060405234801561001057600080fd5b50600436106101005760003560e01c80638da5cb5b11610097578063a83a720211610066578063a83a72021461026d578063c13aa7b514610289578063dec04e5f146102b9578063f2fde38b146102ec57610100565b80638da5cb5b146101fb57806391c1bf231461021957806392c405b61461023557806394985ddd1461025157610100565b80636637b882116100d35780636637b88214610189578063715018a6146101a55780637a8042bd146101af57806382006e4a146101df57610100565b8063277a2389146101055780633d6b06cc14610121578063485cc9551461013d5780635bdf263c14610159575b600080fd5b61011f600480360381019061011a9190611c93565b610308565b005b61013b60048036038101906101369190611c93565b610488565b005b61015760048036038101906101529190611cfa565b61059a565b005b610173600480360381019061016e9190611f05565b610702565b6040516101809190611f83565b60405180910390f35b6101a3600480360381019061019e9190611f9e565b610989565b005b6101ad610a49565b005b6101c960048036038101906101c49190611fcb565b610ad1565b6040516101d69190612007565b60405180910390f35b6101f960048036038101906101f491906120e5565b610ba4565b005b610203610cf5565b604051610210919061213d565b60405180910390f35b610233600480360381019061022e91906120e5565b610d1f565b005b61024f600480360381019061024a91906120e5565b610e3a565b005b61026b60048036038101906102669190612158565b610f4b565b005b610287600480360381019061028291906120e5565b610fe9565b005b6102a3600480360381019061029e9190611f9e565b6110fa565b6040516102b09190612007565b60405180910390f35b6102d360048036038101906102ce9190612198565b611150565b6040516102e394939291906121c5565b60405180910390f35b61030660048036038101906103019190611f9e565b6111cd565b005b600060019054906101000a900460ff166103305760008054906101000a900460ff1615610339565b6103386112c5565b5b610378576040517f08c379a000000000000000000000000000000000000000000000000000000000815260040161036f9061228d565b60405180910390fd5b60008060019054906101000a900460ff1615905080156103c8576001600060016101000a81548160ff02191690831515021790555060016000806101000a81548160ff0219169083151502179055505b6103d06112d6565b84606760006101000a81548173ffffffffffffffffffffffffffffffffffffffff021916908373ffffffffffffffffffffffffffffffffffffffff16021790555083606660006101000a81548173ffffffffffffffffffffffffffffffffffffffff021916908373ffffffffffffffffffffffffffffffffffffffff16021790555082606b8190555081606c8190555080156104815760008060016101000a81548160ff0219169083151502179055505b5050505050565b61049061132f565b73ffffffffffffffffffffffffffffffffffffffff166104ae610cf5565b73ffffffffffffffffffffffffffffffffffffffff1614610504576040517f08c379a00000000000000000000000000000000000000000000000000000000081526004016104fb906122f9565b60405180910390fd5b83606760006101000a81548173ffffffffffffffffffffffffffffffffffffffff021916908373ffffffffffffffffffffffffffffffffffffffff16021790555082606660006101000a81548173ffffffffffffffffffffffffffffffffffffffff021916908373ffffffffffffffffffffffffffffffffffffffff16021790555081606b8190555080606c8190555050505050565b600060019054906101000a900460ff166105c25760008054906101000a900460ff16156105cb565b6105ca6112c5565b5b61060a576040517f08c379a00000000000000000000000000000000000000000000000000000000081526004016106019061228d565b60405180910390fd5b60008060019054906101000a900460ff16159050801561065a576001600060016101000a81548160ff02191690831515021790555060016000806101000a81548160ff0219169083151502179055505b82606760006101000a81548173ffffffffffffffffffffffffffffffffffffffff021916908373ffffffffffffffffffffffffffffffffffffffff16021790555081606660006101000a81548173ffffffffffffffffffffffffffffffffffffffff021916908373ffffffffffffffffffffffffffffffffffffffff16021790555080156106fd5760008060016101000a81548160ff0219169083151502179055505b505050565b600061070c611337565b606c54606660009054906101000a900473ffffffffffffffffffffffffffffffffffffffff1673ffffffffffffffffffffffffffffffffffffffff166370a08231306040518263ffffffff1660e01b815260040161076a919061213d565b602060405180830381865afa158015610787573d6000803e3d6000fd5b505050506040513d601f19601f820116820180604052508101906107ab919061232e565b10156107ec576040517f08c379a00000000000000000000000000000000000000000000000000000000081526004016107e3906123a7565b60405180910390fd5b6107fa606b54606c546113c5565b905060006040518060a0016040528083815260200161081761132f565b73ffffffffffffffffffffffffffffffffffffffff1681526020018673ffffffffffffffffffffffffffffffffffffffff168152602001858152602001841515815250905080606d60008481526020019081526020016000206000820151816000015560208201518160010160006101000a81548173ffffffffffffffffffffffffffffffffffffffff021916908373ffffffffffffffffffffffffffffffffffffffff16021790555060408201518160020160006101000a81548173ffffffffffffffffffffffffffffffffffffffff021916908373ffffffffffffffffffffffffffffffffffffffff1602179055506060820151816003019080519060200190610924929190611ac6565b5060808201518160040160006101000a81548160ff0219169083151502179055509050507fa604c1d75d1d5480c3a226f3b59c2be444c037ab3cbc22c688fa02ddcaedd13582866040516109799291906123c7565b60405180910390a1509392505050565b61099161132f565b73ffffffffffffffffffffffffffffffffffffffff166109af610cf5565b73ffffffffffffffffffffffffffffffffffffffff1614610a05576040517f08c379a00000000000000000000000000000000000000000000000000000000081526004016109fc906122f9565b60405180910390fd5b80606560006101000a81548173ffffffffffffffffffffffffffffffffffffffff021916908373ffffffffffffffffffffffffffffffffffffffff16021790555050565b610a5161132f565b73ffffffffffffffffffffffffffffffffffffffff16610a6f610cf5565b73ffffffffffffffffffffffffffffffffffffffff1614610ac5576040517f08c379a0000000000000000000000000000000000000000000000000000000008152600401610abc906122f9565b60405180910390fd5b610acf600061151c565b565b6000610adb6115e2565b606660009054906101000a900473ffffffffffffffffffffffffffffffffffffffff1673ffffffffffffffffffffffffffffffffffffffff1663a9059cbb606560009054906101000a900473ffffffffffffffffffffffffffffffffffffffff16846040518363ffffffff1660e01b8152600401610b5a92919061245e565b6020604051808303816000875af1158015610b79573d6000803e3d6000fd5b505050506040513d601f19601f82011682018060405250810190610b9d919061249c565b9050919050565b610bac61132f565b73ffffffffffffffffffffffffffffffffffffffff16610bca610cf5565b73ffffffffffffffffffffffffffffffffffffffff1614610c20576040517f08c379a0000000000000000000000000000000000000000000000000000000008152600401610c17906122f9565b60405180910390fd5b60005b8151811015610cf157818181518110610c3f57610c3e6124c9565b5b6020026020010151606a6000848481518110610c5e57610c5d6124c9565b5b602002602001015173ffffffffffffffffffffffffffffffffffffffff1673ffffffffffffffffffffffffffffffffffffffff16815260200190815260200160002060006101000a81548173ffffffffffffffffffffffffffffffffffffffff021916908373ffffffffffffffffffffffffffffffffffffffff1602179055508080610ce990612527565b915050610c23565b5050565b6000603360009054906101000a900473ffffffffffffffffffffffffffffffffffffffff16905090565b610d2761132f565b73ffffffffffffffffffffffffffffffffffffffff16610d45610cf5565b73ffffffffffffffffffffffffffffffffffffffff1614610d9b576040517f08c379a0000000000000000000000000000000000000000000000000000000008152600401610d92906122f9565b60405180910390fd5b60005b8151811015610e3657606a6000838381518110610dbe57610dbd6124c9565b5b602002602001015173ffffffffffffffffffffffffffffffffffffffff1673ffffffffffffffffffffffffffffffffffffffff16815260200190815260200160002060006101000a81549073ffffffffffffffffffffffffffffffffffffffff02191690558080610e2e90612527565b915050610d9e565b5050565b610e4261132f565b73ffffffffffffffffffffffffffffffffffffffff16610e60610cf5565b73ffffffffffffffffffffffffffffffffffffffff1614610eb6576040517f08c379a0000000000000000000000000000000000000000000000000000000008152600401610ead906122f9565b60405180910390fd5b60005b8151811015610f4757600060696000848481518110610edb57610eda6124c9565b5b602002602001015173ffffffffffffffffffffffffffffffffffffffff1673ffffffffffffffffffffffffffffffffffffffff16815260200190815260200160002060006101000a81548160ff0219169083151502179055508080610f3f90612527565b915050610eb9565b5050565b606760009054906101000a900473ffffffffffffffffffffffffffffffffffffffff1673ffffffffffffffffffffffffffffffffffffffff163373ffffffffffffffffffffffffffffffffffffffff1614610fdb576040517f08c379a0000000000000000000000000000000000000000000000000000000008152600401610fd2906125bc565b60405180910390fd5b610fe58282611674565b5050565b610ff161132f565b73ffffffffffffffffffffffffffffffffffffffff1661100f610cf5565b73ffffffffffffffffffffffffffffffffffffffff1614611065576040517f08c379a000000000000000000000000000000000000000000000000000000000815260040161105c906122f9565b60405180910390fd5b60005b81518110156110f65760016069600084848151811061108a576110896124c9565b5b602002602001015173ffffffffffffffffffffffffffffffffffffffff1673ffffffffffffffffffffffffffffffffffffffff16815260200190815260200160002060006101000a81548160ff02191690831515021790555080806110ee90612527565b915050611068565b5050565b6000606960008373ffffffffffffffffffffffffffffffffffffffff1673ffffffffffffffffffffffffffffffffffffffff16815260200190815260200160002060009054906101000a900460ff169050919050565b606d6020528060005260406000206000915090508060000154908060010160009054906101000a900473ffffffffffffffffffffffffffffffffffffffff16908060020160009054906101000a900473ffffffffffffffffffffffffffffffffffffffff16908060040160009054906101000a900460ff16905084565b6111d561132f565b73ffffffffffffffffffffffffffffffffffffffff166111f3610cf5565b73ffffffffffffffffffffffffffffffffffffffff1614611249576040517f08c379a0000000000000000000000000000000000000000000000000000000008152600401611240906122f9565b60405180910390fd5b600073ffffffffffffffffffffffffffffffffffffffff168173ffffffffffffffffffffffffffffffffffffffff1614156112b9576040517f08c379a00000000000000000000000000000000000000000000000000000000081526004016112b09061264e565b60405180910390fd5b6112c28161151c565b50565b60006112d0306119d3565b15905090565b600060019054906101000a900460ff16611325576040517f08c379a000000000000000000000000000000000000000000000000000000000815260040161131c906126e0565b60405180910390fd5b61132d6119f6565b565b600033905090565b606960003373ffffffffffffffffffffffffffffffffffffffff1673ffffffffffffffffffffffffffffffffffffffff16815260200190815260200160002060009054906101000a900460ff166113c3576040517f08c379a00000000000000000000000000000000000000000000000000000000081526004016113ba9061274c565b60405180910390fd5b565b6000606660009054906101000a900473ffffffffffffffffffffffffffffffffffffffff1673ffffffffffffffffffffffffffffffffffffffff16634000aea0606760009054906101000a900473ffffffffffffffffffffffffffffffffffffffff168486600060405160200161143d92919061276c565b6040516020818303038152906040526040518463ffffffff1660e01b815260040161146a9392919061281d565b6020604051808303816000875af1158015611489573d6000803e3d6000fd5b505050506040513d601f19601f820116820180604052508101906114ad919061249c565b5060006114d0846000306068600089815260200190815260200160002054611a57565b9050600160686000868152602001908152602001600020546114f2919061285b565b60686000868152602001908152602001600020819055506115138482611a93565b91505092915050565b6000603360009054906101000a900473ffffffffffffffffffffffffffffffffffffffff16905081603360006101000a81548173ffffffffffffffffffffffffffffffffffffffff021916908373ffffffffffffffffffffffffffffffffffffffff1602179055508173ffffffffffffffffffffffffffffffffffffffff168173ffffffffffffffffffffffffffffffffffffffff167f8be0079c531659141344cd1fd0a4f28419497f9722a3daafe3b4186f6b6457e060405160405180910390a35050565b606560009054906101000a900473ffffffffffffffffffffffffffffffffffffffff1673ffffffffffffffffffffffffffffffffffffffff163373ffffffffffffffffffffffffffffffffffffffff1614611672576040517f08c379a0000000000000000000000000000000000000000000000000000000008152600401611669906128fd565b60405180910390fd5b565b6000606d60008481526020019081526020016000206040518060a0016040529081600082015481526020016001820160009054906101000a900473ffffffffffffffffffffffffffffffffffffffff1673ffffffffffffffffffffffffffffffffffffffff1673ffffffffffffffffffffffffffffffffffffffff1681526020016002820160009054906101000a900473ffffffffffffffffffffffffffffffffffffffff1673ffffffffffffffffffffffffffffffffffffffff1673ffffffffffffffffffffffffffffffffffffffff168152602001600382018054806020026020016040519081016040528092919081815260200182805480156117c157602002820191906000526020600020906000905b82829054906101000a900461ffff1661ffff16815260200190600201906020826001010492830192600103820291508084116117885790505b505050505081526020016004820160009054906101000a900460ff16151515158152505090506000801b81600001511415611831576040517f08c379a000000000000000000000000000000000000000000000000000000000815260040161182890612969565b60405180910390fd5b606d60008481526020019081526020016000206000808201600090556001820160006101000a81549073ffffffffffffffffffffffffffffffffffffffff02191690556002820160006101000a81549073ffffffffffffffffffffffffffffffffffffffff02191690556003820160006118ab9190611b70565b6004820160006101000a81549060ff02191690555050606a6000826020015173ffffffffffffffffffffffffffffffffffffffff1673ffffffffffffffffffffffffffffffffffffffff16815260200190815260200160002060009054906101000a900473ffffffffffffffffffffffffffffffffffffffff1673ffffffffffffffffffffffffffffffffffffffff1663922a180282846040518363ffffffff1660e01b815260040161195f929190612aea565b600060405180830381600087803b15801561197957600080fd5b505af115801561198d573d6000803e3d6000fd5b505050507f697b04c8163be56dde69d35841ac4e03926065129a0340b2ef2199336f9039718382604001516040516119c69291906123c7565b60405180910390a1505050565b6000808273ffffffffffffffffffffffffffffffffffffffff163b119050919050565b600060019054906101000a900460ff16611a45576040517f08c379a0000000000000000000000000000000000000000000000000000000008152600401611a3c906126e0565b60405180910390fd5b611a55611a5061132f565b61151c565b565b600084848484604051602001611a709493929190612b1a565b6040516020818303038152906040528051906020012060001c9050949350505050565b60008282604051602001611aa8929190612ba1565b60405160208183030381529060405280519060200120905092915050565b82805482825590600052602060002090600f01601090048101928215611b5f5791602002820160005b83821115611b2f57835183826101000a81548161ffff021916908361ffff1602179055509260200192600201602081600101049283019260010302611aef565b8015611b5d5782816101000a81549061ffff0219169055600201602081600101049283019260010302611b2f565b505b509050611b6c9190611b98565b5090565b50805460008255600f016010900490600052602060002090810190611b959190611b98565b50565b5b80821115611bb1576000816000905550600101611b99565b5090565b6000604051905090565b600080fd5b600080fd5b600073ffffffffffffffffffffffffffffffffffffffff82169050919050565b6000611bf482611bc9565b9050919050565b611c0481611be9565b8114611c0f57600080fd5b50565b600081359050611c2181611bfb565b92915050565b6000819050919050565b611c3a81611c27565b8114611c4557600080fd5b50565b600081359050611c5781611c31565b92915050565b6000819050919050565b611c7081611c5d565b8114611c7b57600080fd5b50565b600081359050611c8d81611c67565b92915050565b60008060008060808587031215611cad57611cac611bbf565b5b6000611cbb87828801611c12565b9450506020611ccc87828801611c12565b9350506040611cdd87828801611c48565b9250506060611cee87828801611c7e565b91505092959194509250565b60008060408385031215611d1157611d10611bbf565b5b6000611d1f85828601611c12565b9250506020611d3085828601611c12565b9150509250929050565b600080fd5b6000601f19601f8301169050919050565b7f4e487b7100000000000000000000000000000000000000000000000000000000600052604160045260246000fd5b611d8882611d3f565b810181811067ffffffffffffffff82111715611da757611da6611d50565b5b80604052505050565b6000611dba611bb5565b9050611dc68282611d7f565b919050565b600067ffffffffffffffff821115611de657611de5611d50565b5b602082029050602081019050919050565b600080fd5b600061ffff82169050919050565b611e1381611dfc565b8114611e1e57600080fd5b50565b600081359050611e3081611e0a565b92915050565b6000611e49611e4484611dcb565b611db0565b90508083825260208201905060208402830185811115611e6c57611e6b611df7565b5b835b81811015611e955780611e818882611e21565b845260208401935050602081019050611e6e565b5050509392505050565b600082601f830112611eb457611eb3611d3a565b5b8135611ec4848260208601611e36565b91505092915050565b60008115159050919050565b611ee281611ecd565b8114611eed57600080fd5b50565b600081359050611eff81611ed9565b92915050565b600080600060608486031215611f1e57611f1d611bbf565b5b6000611f2c86828701611c12565b935050602084013567ffffffffffffffff811115611f4d57611f4c611bc4565b5b611f5986828701611e9f565b9250506040611f6a86828701611ef0565b9150509250925092565b611f7d81611c27565b82525050565b6000602082019050611f986000830184611f74565b92915050565b600060208284031215611fb457611fb3611bbf565b5b6000611fc284828501611c12565b91505092915050565b600060208284031215611fe157611fe0611bbf565b5b6000611fef84828501611c7e565b91505092915050565b61200181611ecd565b82525050565b600060208201905061201c6000830184611ff8565b92915050565b600067ffffffffffffffff82111561203d5761203c611d50565b5b602082029050602081019050919050565b600061206161205c84612022565b611db0565b9050808382526020820190506020840283018581111561208457612083611df7565b5b835b818110156120ad57806120998882611c12565b845260208401935050602081019050612086565b5050509392505050565b600082601f8301126120cc576120cb611d3a565b5b81356120dc84826020860161204e565b91505092915050565b6000602082840312156120fb576120fa611bbf565b5b600082013567ffffffffffffffff81111561211957612118611bc4565b5b612125848285016120b7565b91505092915050565b61213781611be9565b82525050565b6000602082019050612152600083018461212e565b92915050565b6000806040838503121561216f5761216e611bbf565b5b600061217d85828601611c48565b925050602061218e85828601611c7e565b9150509250929050565b6000602082840312156121ae576121ad611bbf565b5b60006121bc84828501611c48565b91505092915050565b60006080820190506121da6000830187611f74565b6121e7602083018661212e565b6121f4604083018561212e565b6122016060830184611ff8565b95945050505050565b600082825260208201905092915050565b7f496e697469616c697a61626c653a20636f6e747261637420697320616c72656160008201527f647920696e697469616c697a6564000000000000000000000000000000000000602082015250565b6000612277602e8361220a565b91506122828261221b565b604082019050919050565b600060208201905081810360008301526122a68161226a565b9050919050565b7f4f776e61626c653a2063616c6c6572206973206e6f7420746865206f776e6572600082015250565b60006122e360208361220a565b91506122ee826122ad565b602082019050919050565b60006020820190508181036000830152612312816122d6565b9050919050565b60008151905061232881611c67565b92915050565b60006020828403121561234457612343611bbf565b5b600061235284828501612319565b91505092915050565b7f496e73756666696369656e74204c494e4b000000000000000000000000000000600082015250565b600061239160118361220a565b915061239c8261235b565b602082019050919050565b600060208201905081810360008301526123c081612384565b9050919050565b60006040820190506123dc6000830185611f74565b6123e9602083018461212e565b9392505050565b6000819050919050565b600061241561241061240b84611bc9565b6123f0565b611bc9565b9050919050565b6000612427826123fa565b9050919050565b60006124398261241c565b9050919050565b6124498161242e565b82525050565b61245881611c5d565b82525050565b60006040820190506124736000830185612440565b612480602083018461244f565b9392505050565b60008151905061249681611ed9565b92915050565b6000602082840312156124b2576124b1611bbf565b5b60006124c084828501612487565b91505092915050565b7f4e487b7100000000000000000000000000000000000000000000000000000000600052603260045260246000fd5b7f4e487b7100000000000000000000000000000000000000000000000000000000600052601160045260246000fd5b600061253282611c5d565b91507fffffffffffffffffffffffffffffffffffffffffffffffffffffffffffffffff821415612565576125646124f8565b5b600182019050919050565b7f4f6e6c7920565246436f6f7264696e61746f722063616e2066756c66696c6c00600082015250565b60006125a6601f8361220a565b91506125b182612570565b602082019050919050565b600060208201905081810360008301526125d581612599565b9050919050565b7f4f776e61626c653a206e6577206f776e657220697320746865207a65726f206160008201527f6464726573730000000000000000000000000000000000000000000000000000602082015250565b600061263860268361220a565b9150612643826125dc565b604082019050919050565b600060208201905081810360008301526126678161262b565b9050919050565b7f496e697469616c697a61626c653a20636f6e7472616374206973206e6f74206960008201527f6e697469616c697a696e67000000000000000000000000000000000000000000602082015250565b60006126ca602b8361220a565b91506126d58261266e565b604082019050919050565b600060208201905081810360008301526126f9816126bd565b9050919050565b7f4f6e6c7920636f6e74726f6c6c6572732063616e206578656375746500000000600082015250565b6000612736601c8361220a565b915061274182612700565b602082019050919050565b6000602082019050818103600083015261276581612729565b9050919050565b60006040820190506127816000830185611f74565b61278e602083018461244f565b9392505050565b600081519050919050565b600082825260208201905092915050565b60005b838110156127cf5780820151818401526020810190506127b4565b838111156127de576000848401525b50505050565b60006127ef82612795565b6127f981856127a0565b93506128098185602086016127b1565b61281281611d3f565b840191505092915050565b6000606082019050612832600083018661212e565b61283f602083018561244f565b818103604083015261285181846127e4565b9050949350505050565b600061286682611c5d565b915061287183611c5d565b9250827fffffffffffffffffffffffffffffffffffffffffffffffffffffffffffffffff038211156128a6576128a56124f8565b5b828201905092915050565b7f4f6e6c792044414f2063616e2065786563757465000000000000000000000000600082015250565b60006128e760148361220a565b91506128f2826128b1565b602082019050919050565b60006020820190508181036000830152612916816128da565b9050919050565b7f5652462072657175657374204944206e6f7420666f756e640000000000000000600082015250565b600061295360188361220a565b915061295e8261291d565b602082019050919050565b6000602082019050818103600083015261298281612946565b9050919050565b61299281611c27565b82525050565b6129a181611be9565b82525050565b600081519050919050565b600082825260208201905092915050565b6000819050602082019050919050565b6129dc81611dfc565b82525050565b60006129ee83836129d3565b60208301905092915050565b6000602082019050919050565b6000612a12826129a7565b612a1c81856129b2565b9350612a27836129c3565b8060005b83811015612a58578151612a3f88826129e2565b9750612a4a836129fa565b925050600181019050612a2b565b5085935050505092915050565b612a6e81611ecd565b82525050565b600060a083016000830151612a8c6000860182612989565b506020830151612a9f6020860182612998565b506040830151612ab26040860182612998565b5060608301518482036060860152612aca8282612a07565b9150506080830151612adf6080860182612a65565b508091505092915050565b60006040820190508181036000830152612b048185612a74565b9050612b13602083018461244f565b9392505050565b6000608082019050612b2f6000830187611f74565b612b3c602083018661244f565b612b49604083018561212e565b612b56606083018461244f565b95945050505050565b6000819050919050565b612b7a612b7582611c27565b612b5f565b82525050565b6000819050919050565b612b9b612b9682611c5d565b612b80565b82525050565b6000612bad8285612b69565b602082019150612bbd8284612b8a565b602082019150819050939250505056fea264697066735822122091fb346ba6b2c631ed0dff142771add0a1adc3e940e8f9dd43165a9519cbccd964736f6c634300080a0033",
  "immutableReferences": {},
  "source": "// SPDX-License-Identifier: MIT\n\npragma solidity ^0.8.0;\n\nimport \"@openzeppelin/contracts-upgradeable/proxy/utils/Initializable.sol\";\nimport \"./ControllableUpgradeable.sol\";\nimport \"./VRFConsumer.sol\";\nimport \"./IClaim.sol\";\nimport \"./IVenue.sol\";\n\ncontract Claim is Initializable, OwnableUpgradeable, IClaim, VRFConsumer, ControllableUpgradeable {\n  mapping(address => IVenue) venues; // Mapping from an address to a reference to the Venue\n  bytes32 internal keyHash;\n  uint256 internal fee;\n  mapping(bytes32 => VRFStruct) public vrfRequests; // Mapping from tokenId to a struct containing the token's traits\n\n  event RandomNumberRequested(\n    bytes32 requestId,\n    address sender\n  );\n  event RandomNumberFulfilled(\n    bytes32 requestId,\n    address sender\n  );\n\n  function initialize(\n    address _vrfCoordinator,\n    address _link,\n    bytes32 _keyHash,\n    uint256 _fee\n  ) external initializer {\n    __Ownable_init();\n\n    vrfCoordinator = _vrfCoordinator;\n    link = LinkTokenInterface(_link);\n    keyHash = _keyHash;\n    fee = _fee;\n  }\n\n  /**\n   * Set ChainLink VRF params\n   * @param _vrfCoordinator - ChainLink's VRF coordinator contract address\n   * @param _link - ChinLink token contract address\n   * @param _keyHash - ChainLink env specific VRF key hash\n   * @param _fee - VRF env specific gas fee\n   */\n  function setVrfParams(address _vrfCoordinator, address _link, bytes32 _keyHash, uint256 _fee) external onlyOwner {\n    vrfCoordinator = _vrfCoordinator;\n    link = LinkTokenInterface(_link);\n    keyHash = _keyHash;\n    fee = _fee;\n  }\n\n  /**\n   * Requests a random number from ChainLink VRF and stores the request until it's fulfilled, called by Venue.claimMany().\n   * @param sender - User wallet address\n   * @param tokenIds - The ID of the Characters to claim\n   * @param unstake - Whether to unstake those Characters\n   * @return requestId - VRF request ID\n   */\n  function requestRandomNumber(address sender, uint16[] memory tokenIds, bool unstake) external onlyController returns (bytes32 requestId) {\n    require(link.balanceOf(address(this)) >= fee, \"Insufficient LINK\");\n    requestId = requestRandomness(keyHash, fee);\n    VRFStruct memory v = VRFStruct({ requestId: requestId, venue: _msgSender(), sender: sender, tokenIds: tokenIds, unstake: unstake });\n    vrfRequests[requestId] = v;\n    emit RandomNumberRequested(requestId, sender);\n  }\n\n  /**\n   * ChainLink VRF callback for requestRandomNumber()\n   * @param requestId - VRF request ID\n   * @param randomness - Random value created by VRF\n   */\n  function fulfillRandomness(bytes32 requestId, uint256 randomness) internal override {\n    VRFStruct memory v = vrfRequests[requestId];\n    require(v.requestId != 0, \"VRF request ID not found\");\n    delete vrfRequests[requestId];\n    venues[v.venue].fulfillClaimMany(v, randomness);\n    emit RandomNumberFulfilled(requestId, v.sender);\n  }\n\n  /**\n   * Enables a venue address to fulfill claims\n   * @param _venues - The address to enable\n   */\n  function addVenue(address[] memory _venues) external onlyOwner {\n    for (uint i = 0; i < _venues.length; i++) {\n      venues[_venues[i]] = IVenue(_venues[i]);\n    }\n  }\n\n  /**\n   * Disables a venue address from fulfilling claims\n   * @param _venues the address to disable\n   */\n  function removeVenue(address[] memory _venues) external onlyOwner {\n    for (uint i = 0; i < _venues.length; i++) {\n      delete venues[_venues[i]];\n    }\n  }\n}\n",
  "sourcePath": "/Users/chris/workspace/ratalert/ratalert-contracts/contracts/Claim.sol",
  "compiler": {
    "name": "solc",
    "version": "0.8.10+commit.fc410830.Emscripten.clang"
  },
  "schemaVersion": "3.4.7",
  "updatedAt": "2022-06-28T19:38:14.849Z",
  "networkType": "ethereum",
  "devdoc": {
    "kind": "dev",
    "methods": {
      "addController(address[])": {
        "params": {
          "_controllers": "- The addresses to enable"
        }
      },
      "addVenue(address[])": {
        "params": {
          "_venues": "- The address to enable"
        }
      },
      "controller(address)": {
        "params": {
          "_controller": "- The address to check"
        }
      },
      "initialize(address,address)": {
        "params": {
          "_vrfCoordinator": "- Address of VRFCoordinator contract"
        }
      },
      "owner()": {
        "details": "Returns the address of the current owner."
      },
      "rawFulfillRandomness(bytes32,uint256)": {
        "params": {
          "randomness": "- The VRF output",
          "requestId": "- Unique ID for this request"
        }
      },
      "removeController(address[])": {
        "params": {
          "_controllers": "- The addresses to disable"
        }
      },
      "removeVenue(address[])": {
        "params": {
          "_venues": "the address to disable"
        }
      },
      "renounceOwnership()": {
        "details": "Leaves the contract without owner. It will not be possible to call `onlyOwner` functions anymore. Can only be called by the current owner. NOTE: Renouncing ownership will leave the contract without an owner, thereby removing any functionality that is only available to the owner."
      },
      "requestRandomNumber(address,uint16[],bool)": {
        "params": {
          "sender": "- User wallet address",
          "tokenIds": "- The ID of the Characters to claim",
          "unstake": "- Whether to unstake those Characters"
        },
        "returns": {
          "requestId": "- VRF request ID"
        }
      },
      "setVrfParams(address,address,bytes32,uint256)": {
        "params": {
          "_fee": "- VRF env specific gas fee",
          "_keyHash": "- ChainLink env specific VRF key hash",
          "_link": "- ChinLink token contract address",
          "_vrfCoordinator": "- ChainLink's VRF coordinator contract address"
        }
      },
      "transferOwnership(address)": {
        "details": "Transfers ownership of the contract to a new account (`newOwner`). Can only be called by the current owner."
      },
      "withdrawLink(uint256)": {
        "params": {
          "amount": "- Amount of LINK to send"
        },
        "returns": {
          "success": "- Whether the transaction succeeded"
        }
      }
    },
    "version": 1
  },
  "userdoc": {
    "kind": "user",
    "methods": {
      "addController(address[])": {
        "notice": "Enables multiple addresses to execute"
      },
      "addVenue(address[])": {
        "notice": "Enables a venue address to fulfill claims"
      },
      "controller(address)": {
        "notice": "Gets controller status by address"
      },
      "rawFulfillRandomness(bytes32,uint256)": {
        "notice": "Callback function used by ChainLink"
      },
      "removeController(address[])": {
        "notice": "Prevents multiple addresses from executing"
      },
      "removeVenue(address[])": {
        "notice": "Disables a venue address from fulfilling claims"
      },
      "requestRandomNumber(address,uint16[],bool)": {
        "notice": "Requests a random number from ChainLink VRF and stores the request until it's fulfilled, called by Venue.claimMany()."
      },
      "setVrfParams(address,address,bytes32,uint256)": {
        "notice": "Set ChainLink VRF params"
      },
      "withdrawLink(uint256)": {
        "notice": "Sends the given LINK amount back to the owner"
      }
    },
    "version": 1
  }
}