{
  "contractName": "Claim",
  "abi": [
    {
      "anonymous": false,
      "inputs": [
        {
          "indexed": true,
          "internalType": "address",
          "name": "previousOwner",
          "type": "address"
        },
        {
          "indexed": true,
          "internalType": "address",
          "name": "newOwner",
          "type": "address"
        }
      ],
      "name": "OwnershipTransferred",
      "type": "event"
    },
    {
      "anonymous": false,
      "inputs": [
        {
          "indexed": false,
          "internalType": "bytes32",
          "name": "requestId",
          "type": "bytes32"
        },
        {
          "indexed": false,
          "internalType": "address",
          "name": "sender",
          "type": "address"
        }
      ],
      "name": "RandomNumberFulfilled",
      "type": "event"
    },
    {
      "anonymous": false,
      "inputs": [
        {
          "indexed": false,
          "internalType": "bytes32",
          "name": "requestId",
          "type": "bytes32"
        },
        {
          "indexed": false,
          "internalType": "address",
          "name": "sender",
          "type": "address"
        }
      ],
      "name": "RandomNumberRequested",
      "type": "event"
    },
    {
      "inputs": [
        {
          "internalType": "address[]",
          "name": "_controllers",
          "type": "address[]"
        }
      ],
      "name": "addController",
      "outputs": [],
      "stateMutability": "nonpayable",
      "type": "function"
    },
    {
      "inputs": [
        {
          "internalType": "address",
          "name": "_controller",
          "type": "address"
        }
      ],
      "name": "controller",
      "outputs": [
        {
          "internalType": "bool",
          "name": "",
          "type": "bool"
        }
      ],
      "stateMutability": "view",
      "type": "function",
      "constant": true
    },
    {
      "inputs": [],
      "name": "owner",
      "outputs": [
        {
          "internalType": "address",
          "name": "",
          "type": "address"
        }
      ],
      "stateMutability": "view",
      "type": "function",
      "constant": true
    },
    {
      "inputs": [
        {
          "internalType": "bytes32",
          "name": "requestId",
          "type": "bytes32"
        },
        {
          "internalType": "uint256",
          "name": "randomness",
          "type": "uint256"
        }
      ],
      "name": "rawFulfillRandomness",
      "outputs": [],
      "stateMutability": "nonpayable",
      "type": "function"
    },
    {
      "inputs": [
        {
          "internalType": "address[]",
          "name": "_controllers",
          "type": "address[]"
        }
      ],
      "name": "removeController",
      "outputs": [],
      "stateMutability": "nonpayable",
      "type": "function"
    },
    {
      "inputs": [],
      "name": "renounceOwnership",
      "outputs": [],
      "stateMutability": "nonpayable",
      "type": "function"
    },
    {
      "inputs": [
        {
          "internalType": "address",
          "name": "_dao",
          "type": "address"
        }
      ],
      "name": "setDao",
      "outputs": [],
      "stateMutability": "nonpayable",
      "type": "function"
    },
    {
      "inputs": [
        {
          "internalType": "address",
          "name": "newOwner",
          "type": "address"
        }
      ],
      "name": "transferOwnership",
      "outputs": [],
      "stateMutability": "nonpayable",
      "type": "function"
    },
    {
      "inputs": [
        {
          "internalType": "bytes32",
          "name": "",
          "type": "bytes32"
        }
      ],
      "name": "vrfRequests",
      "outputs": [
        {
          "internalType": "bytes32",
          "name": "requestId",
          "type": "bytes32"
        },
        {
          "internalType": "address",
          "name": "venue",
          "type": "address"
        },
        {
          "internalType": "address",
          "name": "sender",
          "type": "address"
        },
        {
          "internalType": "bool",
          "name": "unstake",
          "type": "bool"
        }
      ],
      "stateMutability": "view",
      "type": "function",
      "constant": true
    },
    {
      "inputs": [
        {
          "internalType": "uint256",
          "name": "amount",
          "type": "uint256"
        }
      ],
      "name": "withdrawLink",
      "outputs": [
        {
          "internalType": "bool",
          "name": "success",
          "type": "bool"
        }
      ],
      "stateMutability": "nonpayable",
      "type": "function"
    },
    {
      "inputs": [
        {
          "internalType": "address",
          "name": "_vrfCoordinator",
          "type": "address"
        },
        {
          "internalType": "address",
          "name": "_link",
          "type": "address"
        },
        {
          "internalType": "bytes32",
          "name": "_keyHash",
          "type": "bytes32"
        },
        {
          "internalType": "uint256",
          "name": "_fee",
          "type": "uint256"
        }
      ],
      "name": "initialize",
      "outputs": [],
      "stateMutability": "nonpayable",
      "type": "function"
    },
    {
      "inputs": [
        {
          "internalType": "address",
          "name": "_vrfCoordinator",
          "type": "address"
        },
        {
          "internalType": "address",
          "name": "_link",
          "type": "address"
        }
      ],
      "name": "initialize",
      "outputs": [],
      "stateMutability": "nonpayable",
      "type": "function"
    },
    {
      "inputs": [
        {
          "internalType": "address",
          "name": "_vrfCoordinator",
          "type": "address"
        },
        {
          "internalType": "address",
          "name": "_link",
          "type": "address"
        },
        {
          "internalType": "bytes32",
          "name": "_keyHash",
          "type": "bytes32"
        },
        {
          "internalType": "uint256",
          "name": "_fee",
          "type": "uint256"
        }
      ],
      "name": "setVrfParams",
      "outputs": [],
      "stateMutability": "nonpayable",
      "type": "function"
    },
    {
      "inputs": [
        {
          "internalType": "address",
          "name": "sender",
          "type": "address"
        },
        {
          "internalType": "uint16[]",
          "name": "tokenIds",
          "type": "uint16[]"
        },
        {
          "internalType": "bool",
          "name": "unstake",
          "type": "bool"
        }
      ],
      "name": "requestRandomNumber",
      "outputs": [
        {
          "internalType": "bytes32",
          "name": "requestId",
          "type": "bytes32"
        }
      ],
      "stateMutability": "nonpayable",
      "type": "function"
    },
    {
      "inputs": [
        {
          "internalType": "address[]",
          "name": "_venues",
          "type": "address[]"
        }
      ],
      "name": "addVenue",
      "outputs": [],
      "stateMutability": "nonpayable",
      "type": "function"
    },
    {
      "inputs": [
        {
          "internalType": "address[]",
          "name": "_venues",
          "type": "address[]"
        }
      ],
      "name": "removeVenue",
      "outputs": [],
      "stateMutability": "nonpayable",
      "type": "function"
    }
  ],
  "bytecode": "0x608060405234801561001057600080fd5b50612b82806100206000396000f3fe608060405234801561001057600080fd5b50600436106101005760003560e01c80638da5cb5b11610097578063a83a720211610066578063a83a72021461026d578063c13aa7b514610289578063dec04e5f146102b9578063f2fde38b146102ec57610100565b80638da5cb5b146101fb57806391c1bf231461021957806392c405b61461023557806394985ddd1461025157610100565b80636637b882116100d35780636637b88214610189578063715018a6146101a55780637a8042bd146101af57806382006e4a146101df57610100565b8063277a2389146101055780633d6b06cc14610121578063485cc9551461013d5780635bdf263c14610159575b600080fd5b61011f600480360381019061011a9190611c71565b610308565b005b61013b60048036038101906101369190611c71565b610488565b005b61015760048036038101906101529190611cd8565b61059a565b005b610173600480360381019061016e9190611ee3565b610702565b6040516101809190611f61565b60405180910390f35b6101a3600480360381019061019e9190611f7c565b610989565b005b6101ad610a49565b005b6101c960048036038101906101c49190611fa9565b610ad1565b6040516101d69190611fe5565b60405180910390f35b6101f960048036038101906101f491906120c3565b610b82565b005b610203610cd3565b604051610210919061211b565b60405180910390f35b610233600480360381019061022e91906120c3565b610cfd565b005b61024f600480360381019061024a91906120c3565b610e18565b005b61026b60048036038101906102669190612136565b610f29565b005b610287600480360381019061028291906120c3565b610fc7565b005b6102a3600480360381019061029e9190611f7c565b6110d8565b6040516102b09190611fe5565b60405180910390f35b6102d360048036038101906102ce9190612176565b61112e565b6040516102e394939291906121a3565b60405180910390f35b61030660048036038101906103019190611f7c565b6111ab565b005b600060019054906101000a900460ff166103305760008054906101000a900460ff1615610339565b6103386112a3565b5b610378576040517f08c379a000000000000000000000000000000000000000000000000000000000815260040161036f9061226b565b60405180910390fd5b60008060019054906101000a900460ff1615905080156103c8576001600060016101000a81548160ff02191690831515021790555060016000806101000a81548160ff0219169083151502179055505b6103d06112b4565b84606760006101000a81548173ffffffffffffffffffffffffffffffffffffffff021916908373ffffffffffffffffffffffffffffffffffffffff16021790555083606660006101000a81548173ffffffffffffffffffffffffffffffffffffffff021916908373ffffffffffffffffffffffffffffffffffffffff16021790555082606b8190555081606c8190555080156104815760008060016101000a81548160ff0219169083151502179055505b5050505050565b61049061130d565b73ffffffffffffffffffffffffffffffffffffffff166104ae610cd3565b73ffffffffffffffffffffffffffffffffffffffff1614610504576040517f08c379a00000000000000000000000000000000000000000000000000000000081526004016104fb906122d7565b60405180910390fd5b83606760006101000a81548173ffffffffffffffffffffffffffffffffffffffff021916908373ffffffffffffffffffffffffffffffffffffffff16021790555082606660006101000a81548173ffffffffffffffffffffffffffffffffffffffff021916908373ffffffffffffffffffffffffffffffffffffffff16021790555081606b8190555080606c8190555050505050565b600060019054906101000a900460ff166105c25760008054906101000a900460ff16156105cb565b6105ca6112a3565b5b61060a576040517f08c379a00000000000000000000000000000000000000000000000000000000081526004016106019061226b565b60405180910390fd5b60008060019054906101000a900460ff16159050801561065a576001600060016101000a81548160ff02191690831515021790555060016000806101000a81548160ff0219169083151502179055505b82606760006101000a81548173ffffffffffffffffffffffffffffffffffffffff021916908373ffffffffffffffffffffffffffffffffffffffff16021790555081606660006101000a81548173ffffffffffffffffffffffffffffffffffffffff021916908373ffffffffffffffffffffffffffffffffffffffff16021790555080156106fd5760008060016101000a81548160ff0219169083151502179055505b505050565b600061070c611315565b606c54606660009054906101000a900473ffffffffffffffffffffffffffffffffffffffff1673ffffffffffffffffffffffffffffffffffffffff166370a08231306040518263ffffffff1660e01b815260040161076a919061211b565b602060405180830381865afa158015610787573d6000803e3d6000fd5b505050506040513d601f19601f820116820180604052508101906107ab919061230c565b10156107ec576040517f08c379a00000000000000000000000000000000000000000000000000000000081526004016107e390612385565b60405180910390fd5b6107fa606b54606c546113a3565b905060006040518060a0016040528083815260200161081761130d565b73ffffffffffffffffffffffffffffffffffffffff1681526020018673ffffffffffffffffffffffffffffffffffffffff168152602001858152602001841515815250905080606d60008481526020019081526020016000206000820151816000015560208201518160010160006101000a81548173ffffffffffffffffffffffffffffffffffffffff021916908373ffffffffffffffffffffffffffffffffffffffff16021790555060408201518160020160006101000a81548173ffffffffffffffffffffffffffffffffffffffff021916908373ffffffffffffffffffffffffffffffffffffffff1602179055506060820151816003019080519060200190610924929190611aa4565b5060808201518160040160006101000a81548160ff0219169083151502179055509050507fa604c1d75d1d5480c3a226f3b59c2be444c037ab3cbc22c688fa02ddcaedd13582866040516109799291906123a5565b60405180910390a1509392505050565b61099161130d565b73ffffffffffffffffffffffffffffffffffffffff166109af610cd3565b73ffffffffffffffffffffffffffffffffffffffff1614610a05576040517f08c379a00000000000000000000000000000000000000000000000000000000081526004016109fc906122d7565b60405180910390fd5b80606560006101000a81548173ffffffffffffffffffffffffffffffffffffffff021916908373ffffffffffffffffffffffffffffffffffffffff16021790555050565b610a5161130d565b73ffffffffffffffffffffffffffffffffffffffff16610a6f610cd3565b73ffffffffffffffffffffffffffffffffffffffff1614610ac5576040517f08c379a0000000000000000000000000000000000000000000000000000000008152600401610abc906122d7565b60405180910390fd5b610acf60006114fa565b565b6000610adb6115c0565b606660009054906101000a900473ffffffffffffffffffffffffffffffffffffffff1673ffffffffffffffffffffffffffffffffffffffff1663a9059cbb32846040518363ffffffff1660e01b8152600401610b389291906123dd565b6020604051808303816000875af1158015610b57573d6000803e3d6000fd5b505050506040513d601f19601f82011682018060405250810190610b7b919061241b565b9050919050565b610b8a61130d565b73ffffffffffffffffffffffffffffffffffffffff16610ba8610cd3565b73ffffffffffffffffffffffffffffffffffffffff1614610bfe576040517f08c379a0000000000000000000000000000000000000000000000000000000008152600401610bf5906122d7565b60405180910390fd5b60005b8151811015610ccf57818181518110610c1d57610c1c612448565b5b6020026020010151606a6000848481518110610c3c57610c3b612448565b5b602002602001015173ffffffffffffffffffffffffffffffffffffffff1673ffffffffffffffffffffffffffffffffffffffff16815260200190815260200160002060006101000a81548173ffffffffffffffffffffffffffffffffffffffff021916908373ffffffffffffffffffffffffffffffffffffffff1602179055508080610cc7906124a6565b915050610c01565b5050565b6000603360009054906101000a900473ffffffffffffffffffffffffffffffffffffffff16905090565b610d0561130d565b73ffffffffffffffffffffffffffffffffffffffff16610d23610cd3565b73ffffffffffffffffffffffffffffffffffffffff1614610d79576040517f08c379a0000000000000000000000000000000000000000000000000000000008152600401610d70906122d7565b60405180910390fd5b60005b8151811015610e1457606a6000838381518110610d9c57610d9b612448565b5b602002602001015173ffffffffffffffffffffffffffffffffffffffff1673ffffffffffffffffffffffffffffffffffffffff16815260200190815260200160002060006101000a81549073ffffffffffffffffffffffffffffffffffffffff02191690558080610e0c906124a6565b915050610d7c565b5050565b610e2061130d565b73ffffffffffffffffffffffffffffffffffffffff16610e3e610cd3565b73ffffffffffffffffffffffffffffffffffffffff1614610e94576040517f08c379a0000000000000000000000000000000000000000000000000000000008152600401610e8b906122d7565b60405180910390fd5b60005b8151811015610f2557600060696000848481518110610eb957610eb8612448565b5b602002602001015173ffffffffffffffffffffffffffffffffffffffff1673ffffffffffffffffffffffffffffffffffffffff16815260200190815260200160002060006101000a81548160ff0219169083151502179055508080610f1d906124a6565b915050610e97565b5050565b606760009054906101000a900473ffffffffffffffffffffffffffffffffffffffff1673ffffffffffffffffffffffffffffffffffffffff163373ffffffffffffffffffffffffffffffffffffffff1614610fb9576040517f08c379a0000000000000000000000000000000000000000000000000000000008152600401610fb09061253b565b60405180910390fd5b610fc38282611652565b5050565b610fcf61130d565b73ffffffffffffffffffffffffffffffffffffffff16610fed610cd3565b73ffffffffffffffffffffffffffffffffffffffff1614611043576040517f08c379a000000000000000000000000000000000000000000000000000000000815260040161103a906122d7565b60405180910390fd5b60005b81518110156110d45760016069600084848151811061106857611067612448565b5b602002602001015173ffffffffffffffffffffffffffffffffffffffff1673ffffffffffffffffffffffffffffffffffffffff16815260200190815260200160002060006101000a81548160ff02191690831515021790555080806110cc906124a6565b915050611046565b5050565b6000606960008373ffffffffffffffffffffffffffffffffffffffff1673ffffffffffffffffffffffffffffffffffffffff16815260200190815260200160002060009054906101000a900460ff169050919050565b606d6020528060005260406000206000915090508060000154908060010160009054906101000a900473ffffffffffffffffffffffffffffffffffffffff16908060020160009054906101000a900473ffffffffffffffffffffffffffffffffffffffff16908060040160009054906101000a900460ff16905084565b6111b361130d565b73ffffffffffffffffffffffffffffffffffffffff166111d1610cd3565b73ffffffffffffffffffffffffffffffffffffffff1614611227576040517f08c379a000000000000000000000000000000000000000000000000000000000815260040161121e906122d7565b60405180910390fd5b600073ffffffffffffffffffffffffffffffffffffffff168173ffffffffffffffffffffffffffffffffffffffff161415611297576040517f08c379a000000000000000000000000000000000000000000000000000000000815260040161128e906125cd565b60405180910390fd5b6112a0816114fa565b50565b60006112ae306119b1565b15905090565b600060019054906101000a900460ff16611303576040517f08c379a00000000000000000000000000000000000000000000000000000000081526004016112fa9061265f565b60405180910390fd5b61130b6119d4565b565b600033905090565b606960003373ffffffffffffffffffffffffffffffffffffffff1673ffffffffffffffffffffffffffffffffffffffff16815260200190815260200160002060009054906101000a900460ff166113a1576040517f08c379a0000000000000000000000000000000000000000000000000000000008152600401611398906126cb565b60405180910390fd5b565b6000606660009054906101000a900473ffffffffffffffffffffffffffffffffffffffff1673ffffffffffffffffffffffffffffffffffffffff16634000aea0606760009054906101000a900473ffffffffffffffffffffffffffffffffffffffff168486600060405160200161141b9291906126eb565b6040516020818303038152906040526040518463ffffffff1660e01b81526004016114489392919061279c565b6020604051808303816000875af1158015611467573d6000803e3d6000fd5b505050506040513d601f19601f8201168201806040525081019061148b919061241b565b5060006114ae846000306068600089815260200190815260200160002054611a35565b9050600160686000868152602001908152602001600020546114d091906127da565b60686000868152602001908152602001600020819055506114f18482611a71565b91505092915050565b6000603360009054906101000a900473ffffffffffffffffffffffffffffffffffffffff16905081603360006101000a81548173ffffffffffffffffffffffffffffffffffffffff021916908373ffffffffffffffffffffffffffffffffffffffff1602179055508173ffffffffffffffffffffffffffffffffffffffff168173ffffffffffffffffffffffffffffffffffffffff167f8be0079c531659141344cd1fd0a4f28419497f9722a3daafe3b4186f6b6457e060405160405180910390a35050565b606560009054906101000a900473ffffffffffffffffffffffffffffffffffffffff1673ffffffffffffffffffffffffffffffffffffffff163373ffffffffffffffffffffffffffffffffffffffff1614611650576040517f08c379a00000000000000000000000000000000000000000000000000000000081526004016116479061287c565b60405180910390fd5b565b6000606d60008481526020019081526020016000206040518060a0016040529081600082015481526020016001820160009054906101000a900473ffffffffffffffffffffffffffffffffffffffff1673ffffffffffffffffffffffffffffffffffffffff1673ffffffffffffffffffffffffffffffffffffffff1681526020016002820160009054906101000a900473ffffffffffffffffffffffffffffffffffffffff1673ffffffffffffffffffffffffffffffffffffffff1673ffffffffffffffffffffffffffffffffffffffff1681526020016003820180548060200260200160405190810160405280929190818152602001828054801561179f57602002820191906000526020600020906000905b82829054906101000a900461ffff1661ffff16815260200190600201906020826001010492830192600103820291508084116117665790505b505050505081526020016004820160009054906101000a900460ff16151515158152505090506000801b8160000151141561180f576040517f08c379a0000000000000000000000000000000000000000000000000000000008152600401611806906128e8565b60405180910390fd5b606d60008481526020019081526020016000206000808201600090556001820160006101000a81549073ffffffffffffffffffffffffffffffffffffffff02191690556002820160006101000a81549073ffffffffffffffffffffffffffffffffffffffff02191690556003820160006118899190611b4e565b6004820160006101000a81549060ff02191690555050606a6000826020015173ffffffffffffffffffffffffffffffffffffffff1673ffffffffffffffffffffffffffffffffffffffff16815260200190815260200160002060009054906101000a900473ffffffffffffffffffffffffffffffffffffffff1673ffffffffffffffffffffffffffffffffffffffff1663922a180282846040518363ffffffff1660e01b815260040161193d929190612a69565b600060405180830381600087803b15801561195757600080fd5b505af115801561196b573d6000803e3d6000fd5b505050507f697b04c8163be56dde69d35841ac4e03926065129a0340b2ef2199336f9039718382604001516040516119a49291906123a5565b60405180910390a1505050565b6000808273ffffffffffffffffffffffffffffffffffffffff163b119050919050565b600060019054906101000a900460ff16611a23576040517f08c379a0000000000000000000000000000000000000000000000000000000008152600401611a1a9061265f565b60405180910390fd5b611a33611a2e61130d565b6114fa565b565b600084848484604051602001611a4e9493929190612a99565b6040516020818303038152906040528051906020012060001c9050949350505050565b60008282604051602001611a86929190612b20565b60405160208183030381529060405280519060200120905092915050565b82805482825590600052602060002090600f01601090048101928215611b3d5791602002820160005b83821115611b0d57835183826101000a81548161ffff021916908361ffff1602179055509260200192600201602081600101049283019260010302611acd565b8015611b3b5782816101000a81549061ffff0219169055600201602081600101049283019260010302611b0d565b505b509050611b4a9190611b76565b5090565b50805460008255600f016010900490600052602060002090810190611b739190611b76565b50565b5b80821115611b8f576000816000905550600101611b77565b5090565b6000604051905090565b600080fd5b600080fd5b600073ffffffffffffffffffffffffffffffffffffffff82169050919050565b6000611bd282611ba7565b9050919050565b611be281611bc7565b8114611bed57600080fd5b50565b600081359050611bff81611bd9565b92915050565b6000819050919050565b611c1881611c05565b8114611c2357600080fd5b50565b600081359050611c3581611c0f565b92915050565b6000819050919050565b611c4e81611c3b565b8114611c5957600080fd5b50565b600081359050611c6b81611c45565b92915050565b60008060008060808587031215611c8b57611c8a611b9d565b5b6000611c9987828801611bf0565b9450506020611caa87828801611bf0565b9350506040611cbb87828801611c26565b9250506060611ccc87828801611c5c565b91505092959194509250565b60008060408385031215611cef57611cee611b9d565b5b6000611cfd85828601611bf0565b9250506020611d0e85828601611bf0565b9150509250929050565b600080fd5b6000601f19601f8301169050919050565b7f4e487b7100000000000000000000000000000000000000000000000000000000600052604160045260246000fd5b611d6682611d1d565b810181811067ffffffffffffffff82111715611d8557611d84611d2e565b5b80604052505050565b6000611d98611b93565b9050611da48282611d5d565b919050565b600067ffffffffffffffff821115611dc457611dc3611d2e565b5b602082029050602081019050919050565b600080fd5b600061ffff82169050919050565b611df181611dda565b8114611dfc57600080fd5b50565b600081359050611e0e81611de8565b92915050565b6000611e27611e2284611da9565b611d8e565b90508083825260208201905060208402830185811115611e4a57611e49611dd5565b5b835b81811015611e735780611e5f8882611dff565b845260208401935050602081019050611e4c565b5050509392505050565b600082601f830112611e9257611e91611d18565b5b8135611ea2848260208601611e14565b91505092915050565b60008115159050919050565b611ec081611eab565b8114611ecb57600080fd5b50565b600081359050611edd81611eb7565b92915050565b600080600060608486031215611efc57611efb611b9d565b5b6000611f0a86828701611bf0565b935050602084013567ffffffffffffffff811115611f2b57611f2a611ba2565b5b611f3786828701611e7d565b9250506040611f4886828701611ece565b9150509250925092565b611f5b81611c05565b82525050565b6000602082019050611f766000830184611f52565b92915050565b600060208284031215611f9257611f91611b9d565b5b6000611fa084828501611bf0565b91505092915050565b600060208284031215611fbf57611fbe611b9d565b5b6000611fcd84828501611c5c565b91505092915050565b611fdf81611eab565b82525050565b6000602082019050611ffa6000830184611fd6565b92915050565b600067ffffffffffffffff82111561201b5761201a611d2e565b5b602082029050602081019050919050565b600061203f61203a84612000565b611d8e565b9050808382526020820190506020840283018581111561206257612061611dd5565b5b835b8181101561208b57806120778882611bf0565b845260208401935050602081019050612064565b5050509392505050565b600082601f8301126120aa576120a9611d18565b5b81356120ba84826020860161202c565b91505092915050565b6000602082840312156120d9576120d8611b9d565b5b600082013567ffffffffffffffff8111156120f7576120f6611ba2565b5b61210384828501612095565b91505092915050565b61211581611bc7565b82525050565b6000602082019050612130600083018461210c565b92915050565b6000806040838503121561214d5761214c611b9d565b5b600061215b85828601611c26565b925050602061216c85828601611c5c565b9150509250929050565b60006020828403121561218c5761218b611b9d565b5b600061219a84828501611c26565b91505092915050565b60006080820190506121b86000830187611f52565b6121c5602083018661210c565b6121d2604083018561210c565b6121df6060830184611fd6565b95945050505050565b600082825260208201905092915050565b7f496e697469616c697a61626c653a20636f6e747261637420697320616c72656160008201527f647920696e697469616c697a6564000000000000000000000000000000000000602082015250565b6000612255602e836121e8565b9150612260826121f9565b604082019050919050565b6000602082019050818103600083015261228481612248565b9050919050565b7f4f776e61626c653a2063616c6c6572206973206e6f7420746865206f776e6572600082015250565b60006122c16020836121e8565b91506122cc8261228b565b602082019050919050565b600060208201905081810360008301526122f0816122b4565b9050919050565b60008151905061230681611c45565b92915050565b60006020828403121561232257612321611b9d565b5b6000612330848285016122f7565b91505092915050565b7f496e73756666696369656e74204c494e4b000000000000000000000000000000600082015250565b600061236f6011836121e8565b915061237a82612339565b602082019050919050565b6000602082019050818103600083015261239e81612362565b9050919050565b60006040820190506123ba6000830185611f52565b6123c7602083018461210c565b9392505050565b6123d781611c3b565b82525050565b60006040820190506123f2600083018561210c565b6123ff60208301846123ce565b9392505050565b60008151905061241581611eb7565b92915050565b60006020828403121561243157612430611b9d565b5b600061243f84828501612406565b91505092915050565b7f4e487b7100000000000000000000000000000000000000000000000000000000600052603260045260246000fd5b7f4e487b7100000000000000000000000000000000000000000000000000000000600052601160045260246000fd5b60006124b182611c3b565b91507fffffffffffffffffffffffffffffffffffffffffffffffffffffffffffffffff8214156124e4576124e3612477565b5b600182019050919050565b7f4f6e6c7920565246436f6f7264696e61746f722063616e2066756c66696c6c00600082015250565b6000612525601f836121e8565b9150612530826124ef565b602082019050919050565b6000602082019050818103600083015261255481612518565b9050919050565b7f4f776e61626c653a206e6577206f776e657220697320746865207a65726f206160008201527f6464726573730000000000000000000000000000000000000000000000000000602082015250565b60006125b76026836121e8565b91506125c28261255b565b604082019050919050565b600060208201905081810360008301526125e6816125aa565b9050919050565b7f496e697469616c697a61626c653a20636f6e7472616374206973206e6f74206960008201527f6e697469616c697a696e67000000000000000000000000000000000000000000602082015250565b6000612649602b836121e8565b9150612654826125ed565b604082019050919050565b600060208201905081810360008301526126788161263c565b9050919050565b7f4f6e6c7920636f6e74726f6c6c6572732063616e206578656375746500000000600082015250565b60006126b5601c836121e8565b91506126c08261267f565b602082019050919050565b600060208201905081810360008301526126e4816126a8565b9050919050565b60006040820190506127006000830185611f52565b61270d60208301846123ce565b9392505050565b600081519050919050565b600082825260208201905092915050565b60005b8381101561274e578082015181840152602081019050612733565b8381111561275d576000848401525b50505050565b600061276e82612714565b612778818561271f565b9350612788818560208601612730565b61279181611d1d565b840191505092915050565b60006060820190506127b1600083018661210c565b6127be60208301856123ce565b81810360408301526127d08184612763565b9050949350505050565b60006127e582611c3b565b91506127f083611c3b565b9250827fffffffffffffffffffffffffffffffffffffffffffffffffffffffffffffffff0382111561282557612824612477565b5b828201905092915050565b7f4f6e6c792044414f2063616e2065786563757465000000000000000000000000600082015250565b60006128666014836121e8565b915061287182612830565b602082019050919050565b6000602082019050818103600083015261289581612859565b9050919050565b7f5652462072657175657374204944206e6f7420666f756e640000000000000000600082015250565b60006128d26018836121e8565b91506128dd8261289c565b602082019050919050565b60006020820190508181036000830152612901816128c5565b9050919050565b61291181611c05565b82525050565b61292081611bc7565b82525050565b600081519050919050565b600082825260208201905092915050565b6000819050602082019050919050565b61295b81611dda565b82525050565b600061296d8383612952565b60208301905092915050565b6000602082019050919050565b600061299182612926565b61299b8185612931565b93506129a683612942565b8060005b838110156129d75781516129be8882612961565b97506129c983612979565b9250506001810190506129aa565b5085935050505092915050565b6129ed81611eab565b82525050565b600060a083016000830151612a0b6000860182612908565b506020830151612a1e6020860182612917565b506040830151612a316040860182612917565b5060608301518482036060860152612a498282612986565b9150506080830151612a5e60808601826129e4565b508091505092915050565b60006040820190508181036000830152612a8381856129f3565b9050612a9260208301846123ce565b9392505050565b6000608082019050612aae6000830187611f52565b612abb60208301866123ce565b612ac8604083018561210c565b612ad560608301846123ce565b95945050505050565b6000819050919050565b612af9612af482611c05565b612ade565b82525050565b6000819050919050565b612b1a612b1582611c3b565b612aff565b82525050565b6000612b2c8285612ae8565b602082019150612b3c8284612b09565b602082019150819050939250505056fea26469706673582212209e4aa27ad0bf9c6986cf72658620c4748da158cf3100bfe3f7d6e8c96f952f1764736f6c634300080a0033",
  "immutableReferences": {},
  "source": "// SPDX-License-Identifier: MIT\n\npragma solidity ^0.8.0;\n\nimport \"@openzeppelin/contracts-upgradeable/proxy/utils/Initializable.sol\";\nimport \"./ControllableUpgradeable.sol\";\nimport \"./VRFConsumer.sol\";\nimport \"./IClaim.sol\";\nimport \"./IVenue.sol\";\n\ncontract Claim is Initializable, OwnableUpgradeable, IClaim, VRFConsumer, ControllableUpgradeable {\n  mapping(address => IVenue) venues; // Mapping from an address to a reference to the Venue\n  bytes32 internal keyHash;\n  uint256 internal fee;\n  mapping(bytes32 => VRFStruct) public vrfRequests; // Mapping from tokenId to a struct containing the token's traits\n\n  event RandomNumberRequested(\n    bytes32 requestId,\n    address sender\n  );\n  event RandomNumberFulfilled(\n    bytes32 requestId,\n    address sender\n  );\n\n  function initialize(\n    address _vrfCoordinator,\n    address _link,\n    bytes32 _keyHash,\n    uint256 _fee\n  ) external initializer {\n    __Ownable_init();\n\n    vrfCoordinator = _vrfCoordinator;\n    link = LinkTokenInterface(_link);\n    keyHash = _keyHash;\n    fee = _fee;\n  }\n\n  /**\n   * Set ChainLink VRF params\n   * @param _vrfCoordinator - ChainLink's VRF coordinator contract address\n   * @param _link - ChinLink token contract address\n   * @param _keyHash - ChainLink env specific VRF key hash\n   * @param _fee - VRF env specific gas fee\n   */\n  function setVrfParams(address _vrfCoordinator, address _link, bytes32 _keyHash, uint256 _fee) external onlyOwner {\n    vrfCoordinator = _vrfCoordinator;\n    link = LinkTokenInterface(_link);\n    keyHash = _keyHash;\n    fee = _fee;\n  }\n\n  /**\n   * Requests a random number from ChainLink VRF and stores the request until it's fulfilled, called by Venue.claimMany().\n   * @param sender - User wallet address\n   * @param tokenIds - The ID of the Characters to claim\n   * @param unstake - Whether to unstake those Characters\n   * @return requestId - VRF request ID\n   */\n  function requestRandomNumber(address sender, uint16[] memory tokenIds, bool unstake) external onlyController returns (bytes32 requestId) {\n    require(link.balanceOf(address(this)) >= fee, \"Insufficient LINK\");\n    requestId = requestRandomness(keyHash, fee);\n    VRFStruct memory v = VRFStruct({ requestId: requestId, venue: _msgSender(), sender: sender, tokenIds: tokenIds, unstake: unstake });\n    vrfRequests[requestId] = v;\n    emit RandomNumberRequested(requestId, sender);\n  }\n\n  /**\n   * ChainLink VRF callback for requestRandomNumber()\n   * @param requestId - VRF request ID\n   * @param randomness - Random value created by VRF\n   */\n  function fulfillRandomness(bytes32 requestId, uint256 randomness) internal override {\n    VRFStruct memory v = vrfRequests[requestId];\n    require(v.requestId != 0, \"VRF request ID not found\");\n    delete vrfRequests[requestId];\n    venues[v.venue].fulfillClaimMany(v, randomness);\n    emit RandomNumberFulfilled(requestId, v.sender);\n  }\n\n  /**\n   * Enables a venue address to fulfill claims\n   * @param _venues - The address to enable\n   */\n  function addVenue(address[] memory _venues) external onlyOwner {\n    for (uint i = 0; i < _venues.length; i++) {\n      venues[_venues[i]] = IVenue(_venues[i]);\n    }\n  }\n\n  /**\n   * Disables a venue address from fulfilling claims\n   * @param _venues the address to disable\n   */\n  function removeVenue(address[] memory _venues) external onlyOwner {\n    for (uint i = 0; i < _venues.length; i++) {\n      delete venues[_venues[i]];\n    }\n  }\n}\n",
  "sourcePath": "/Users/chris/workspace/ratalert/ratalert-contracts/contracts/Claim.sol",
  "compiler": {
    "name": "solc",
    "version": "0.8.10+commit.fc410830.Emscripten.clang"
  },
  "schemaVersion": "3.4.7",
  "updatedAt": "2022-04-28T12:54:44.805Z",
  "networkType": "ethereum",
  "devdoc": {
    "kind": "dev",
    "methods": {
      "addController(address[])": {
        "params": {
          "_controllers": "- The addresses to enable"
        }
      },
      "addVenue(address[])": {
        "params": {
          "_venues": "- The address to enable"
        }
      },
      "controller(address)": {
        "params": {
          "_controller": "- The address to check"
        }
      },
      "initialize(address,address)": {
        "params": {
          "_vrfCoordinator": "- Address of VRFCoordinator contract"
        }
      },
      "owner()": {
        "details": "Returns the address of the current owner."
      },
      "rawFulfillRandomness(bytes32,uint256)": {
        "params": {
          "randomness": "- The VRF output",
          "requestId": "- Unique ID for this request"
        }
      },
      "removeController(address[])": {
        "params": {
          "_controllers": "- The addresses to disable"
        }
      },
      "removeVenue(address[])": {
        "params": {
          "_venues": "the address to disable"
        }
      },
      "renounceOwnership()": {
        "details": "Leaves the contract without owner. It will not be possible to call `onlyOwner` functions anymore. Can only be called by the current owner. NOTE: Renouncing ownership will leave the contract without an owner, thereby removing any functionality that is only available to the owner."
      },
      "requestRandomNumber(address,uint16[],bool)": {
        "params": {
          "sender": "- User wallet address",
          "tokenIds": "- The ID of the Characters to claim",
          "unstake": "- Whether to unstake those Characters"
        },
        "returns": {
          "requestId": "- VRF request ID"
        }
      },
      "setVrfParams(address,address,bytes32,uint256)": {
        "params": {
          "_fee": "- VRF env specific gas fee",
          "_keyHash": "- ChainLink env specific VRF key hash",
          "_link": "- ChinLink token contract address",
          "_vrfCoordinator": "- ChainLink's VRF coordinator contract address"
        }
      },
      "transferOwnership(address)": {
        "details": "Transfers ownership of the contract to a new account (`newOwner`). Can only be called by the current owner."
      },
      "withdrawLink(uint256)": {
        "params": {
          "amount": "- Amount of LINK to send"
        },
        "returns": {
          "success": "- Whether the transaction succeeded"
        }
      }
    },
    "version": 1
  },
  "userdoc": {
    "kind": "user",
    "methods": {
      "addController(address[])": {
        "notice": "Enables multiple addresses to execute"
      },
      "addVenue(address[])": {
        "notice": "Enables a venue address to fulfill claims"
      },
      "controller(address)": {
        "notice": "Gets controller status by address"
      },
      "rawFulfillRandomness(bytes32,uint256)": {
        "notice": "Callback function used by ChainLink"
      },
      "removeController(address[])": {
        "notice": "Prevents multiple addresses from executing"
      },
      "removeVenue(address[])": {
        "notice": "Disables a venue address from fulfilling claims"
      },
      "requestRandomNumber(address,uint16[],bool)": {
        "notice": "Requests a random number from ChainLink VRF and stores the request until it's fulfilled, called by Venue.claimMany()."
      },
      "setVrfParams(address,address,bytes32,uint256)": {
        "notice": "Set ChainLink VRF params"
      },
      "withdrawLink(uint256)": {
        "notice": "Sends the given LINK amount back to the owner"
      }
    },
    "version": 1
  }
}