{
  "contractName": "Claim",
  "abi": [
    {
      "anonymous": false,
      "inputs": [
        {
          "indexed": true,
          "internalType": "address",
          "name": "previousOwner",
          "type": "address"
        },
        {
          "indexed": true,
          "internalType": "address",
          "name": "newOwner",
          "type": "address"
        }
      ],
      "name": "OwnershipTransferred",
      "type": "event"
    },
    {
      "anonymous": false,
      "inputs": [
        {
          "indexed": false,
          "internalType": "bytes32",
          "name": "requestId",
          "type": "bytes32"
        },
        {
          "indexed": false,
          "internalType": "address",
          "name": "sender",
          "type": "address"
        }
      ],
      "name": "RandomNumberRequested",
      "type": "event"
    },
    {
      "inputs": [],
      "name": "owner",
      "outputs": [
        {
          "internalType": "address",
          "name": "",
          "type": "address"
        }
      ],
      "stateMutability": "view",
      "type": "function",
      "constant": true
    },
    {
      "inputs": [
        {
          "internalType": "bytes32",
          "name": "requestId",
          "type": "bytes32"
        },
        {
          "internalType": "uint256",
          "name": "randomness",
          "type": "uint256"
        }
      ],
      "name": "rawFulfillRandomness",
      "outputs": [],
      "stateMutability": "nonpayable",
      "type": "function"
    },
    {
      "inputs": [],
      "name": "renounceOwnership",
      "outputs": [],
      "stateMutability": "nonpayable",
      "type": "function"
    },
    {
      "inputs": [
        {
          "internalType": "address",
          "name": "newOwner",
          "type": "address"
        }
      ],
      "name": "transferOwnership",
      "outputs": [],
      "stateMutability": "nonpayable",
      "type": "function"
    },
    {
      "inputs": [
        {
          "internalType": "bytes32",
          "name": "",
          "type": "bytes32"
        }
      ],
      "name": "vrfRequests",
      "outputs": [
        {
          "internalType": "bytes32",
          "name": "requestId",
          "type": "bytes32"
        },
        {
          "internalType": "address",
          "name": "venue",
          "type": "address"
        },
        {
          "internalType": "address",
          "name": "sender",
          "type": "address"
        },
        {
          "internalType": "bool",
          "name": "unstake",
          "type": "bool"
        }
      ],
      "stateMutability": "view",
      "type": "function",
      "constant": true
    },
    {
      "inputs": [
        {
          "internalType": "uint256",
          "name": "amount",
          "type": "uint256"
        }
      ],
      "name": "withdrawLink",
      "outputs": [
        {
          "internalType": "bool",
          "name": "success",
          "type": "bool"
        }
      ],
      "stateMutability": "nonpayable",
      "type": "function"
    },
    {
      "inputs": [
        {
          "internalType": "address",
          "name": "_vrfCoordinator",
          "type": "address"
        },
        {
          "internalType": "address",
          "name": "_link",
          "type": "address"
        },
        {
          "internalType": "bytes32",
          "name": "_keyHash",
          "type": "bytes32"
        },
        {
          "internalType": "uint256",
          "name": "_fee",
          "type": "uint256"
        }
      ],
      "name": "initialize",
      "outputs": [],
      "stateMutability": "nonpayable",
      "type": "function"
    },
    {
      "inputs": [
        {
          "internalType": "address",
          "name": "_vrfCoordinator",
          "type": "address"
        },
        {
          "internalType": "address",
          "name": "_link",
          "type": "address"
        }
      ],
      "name": "initialize",
      "outputs": [],
      "stateMutability": "nonpayable",
      "type": "function"
    },
    {
      "inputs": [
        {
          "internalType": "address",
          "name": "_vrfCoordinator",
          "type": "address"
        },
        {
          "internalType": "address",
          "name": "_link",
          "type": "address"
        },
        {
          "internalType": "bytes32",
          "name": "_keyHash",
          "type": "bytes32"
        },
        {
          "internalType": "uint256",
          "name": "_fee",
          "type": "uint256"
        }
      ],
      "name": "setVrfParams",
      "outputs": [],
      "stateMutability": "nonpayable",
      "type": "function"
    },
    {
      "inputs": [
        {
          "internalType": "address",
          "name": "sender",
          "type": "address"
        },
        {
          "internalType": "uint16[]",
          "name": "tokenIds",
          "type": "uint16[]"
        },
        {
          "internalType": "bool",
          "name": "unstake",
          "type": "bool"
        }
      ],
      "name": "requestRandomNumber",
      "outputs": [
        {
          "internalType": "bytes32",
          "name": "requestId",
          "type": "bytes32"
        }
      ],
      "stateMutability": "nonpayable",
      "type": "function"
    },
    {
      "inputs": [
        {
          "internalType": "address",
          "name": "_venue",
          "type": "address"
        }
      ],
      "name": "addVenue",
      "outputs": [],
      "stateMutability": "nonpayable",
      "type": "function"
    },
    {
      "inputs": [
        {
          "internalType": "address",
          "name": "_venue",
          "type": "address"
        }
      ],
      "name": "removeVenue",
      "outputs": [],
      "stateMutability": "nonpayable",
      "type": "function"
    },
    {
      "inputs": [
        {
          "internalType": "address",
          "name": "controller",
          "type": "address"
        }
      ],
      "name": "getController",
      "outputs": [
        {
          "internalType": "bool",
          "name": "",
          "type": "bool"
        }
      ],
      "stateMutability": "view",
      "type": "function",
      "constant": true
    },
    {
      "inputs": [
        {
          "internalType": "address",
          "name": "controller",
          "type": "address"
        }
      ],
      "name": "addController",
      "outputs": [],
      "stateMutability": "nonpayable",
      "type": "function"
    },
    {
      "inputs": [
        {
          "internalType": "address",
          "name": "controller",
          "type": "address"
        }
      ],
      "name": "removeController",
      "outputs": [],
      "stateMutability": "nonpayable",
      "type": "function"
    }
  ],
  "bytecode": "0x608060405234801561001057600080fd5b50612f5e806100206000396000f3fe608060405234801561001057600080fd5b50600436106100f55760003560e01c80637a8042bd11610097578063a7fc7a0711610066578063a7fc7a071461025a578063dec04e5f14610276578063f2fde38b146102a9578063f6a74ed7146102c5576100f5565b80637a8042bd146101c057806388c662aa146101f05780638da5cb5b1461022057806394985ddd1461023e576100f5565b80633d6b06cc116100d35780633d6b06cc1461014e578063485cc9551461016a5780635bdf263c14610186578063715018a6146101b6576100f5565b80632522ed6b146100fa578063277a23891461011657806336ab22ce14610132575b600080fd5b610114600480360381019061010f9190611aa3565b6102e1565b005b610130600480360381019061012b9190611b3c565b6103de565b005b61014c60048036038101906101479190611aa3565b61055e565b005b61016860048036038101906101639190611b3c565b61063f565b005b610184600480360381019061017f9190611ba3565b610751565b005b6101a0600480360381019061019b9190611dae565b6108b9565b6040516101ad9190611e2c565b60405180910390f35b6101be610bd2565b005b6101da60048036038101906101d59190611e47565b610c5a565b6040516101e79190611e83565b60405180910390f35b61020a60048036038101906102059190611aa3565b610d86565b6040516102179190611e83565b60405180910390f35b610228610e58565b6040516102359190611ead565b60405180910390f35b61025860048036038101906102539190611ec8565b610e82565b005b610274600480360381019061026f9190611aa3565b610f20565b005b610290600480360381019061028b9190611f08565b610ff7565b6040516102a09493929190611f35565b60405180910390f35b6102c360048036038101906102be9190611aa3565b611074565b005b6102df60048036038101906102da9190611aa3565b61116c565b005b6102e9611243565b73ffffffffffffffffffffffffffffffffffffffff16610307610e58565b73ffffffffffffffffffffffffffffffffffffffff161461035d576040517f08c379a000000000000000000000000000000000000000000000000000000000815260040161035490611fd7565b60405180910390fd5b80606960008373ffffffffffffffffffffffffffffffffffffffff1673ffffffffffffffffffffffffffffffffffffffff16815260200190815260200160002060006101000a81548173ffffffffffffffffffffffffffffffffffffffff021916908373ffffffffffffffffffffffffffffffffffffffff16021790555050565b600060019054906101000a900460ff166104065760008054906101000a900460ff161561040f565b61040e61124b565b5b61044e576040517f08c379a000000000000000000000000000000000000000000000000000000000815260040161044590612069565b60405180910390fd5b60008060019054906101000a900460ff16159050801561049e576001600060016101000a81548160ff02191690831515021790555060016000806101000a81548160ff0219169083151502179055505b6104a661125c565b84606660006101000a81548173ffffffffffffffffffffffffffffffffffffffff021916908373ffffffffffffffffffffffffffffffffffffffff16021790555083606560006101000a81548173ffffffffffffffffffffffffffffffffffffffff021916908373ffffffffffffffffffffffffffffffffffffffff16021790555082606a8190555081606b8190555080156105575760008060016101000a81548160ff0219169083151502179055505b5050505050565b610566611243565b73ffffffffffffffffffffffffffffffffffffffff16610584610e58565b73ffffffffffffffffffffffffffffffffffffffff16146105da576040517f08c379a00000000000000000000000000000000000000000000000000000000081526004016105d190611fd7565b60405180910390fd5b606960008273ffffffffffffffffffffffffffffffffffffffff1673ffffffffffffffffffffffffffffffffffffffff16815260200190815260200160002060006101000a81549073ffffffffffffffffffffffffffffffffffffffff021916905550565b610647611243565b73ffffffffffffffffffffffffffffffffffffffff16610665610e58565b73ffffffffffffffffffffffffffffffffffffffff16146106bb576040517f08c379a00000000000000000000000000000000000000000000000000000000081526004016106b290611fd7565b60405180910390fd5b83606660006101000a81548173ffffffffffffffffffffffffffffffffffffffff021916908373ffffffffffffffffffffffffffffffffffffffff16021790555082606560006101000a81548173ffffffffffffffffffffffffffffffffffffffff021916908373ffffffffffffffffffffffffffffffffffffffff16021790555081606a8190555080606b8190555050505050565b600060019054906101000a900460ff166107795760008054906101000a900460ff1615610782565b61078161124b565b5b6107c1576040517f08c379a00000000000000000000000000000000000000000000000000000000081526004016107b890612069565b60405180910390fd5b60008060019054906101000a900460ff161590508015610811576001600060016101000a81548160ff02191690831515021790555060016000806101000a81548160ff0219169083151502179055505b82606660006101000a81548173ffffffffffffffffffffffffffffffffffffffff021916908373ffffffffffffffffffffffffffffffffffffffff16021790555081606560006101000a81548173ffffffffffffffffffffffffffffffffffffffff021916908373ffffffffffffffffffffffffffffffffffffffff16021790555080156108b45760008060016101000a81548160ff0219169083151502179055505b505050565b6000606860006108c7611243565b73ffffffffffffffffffffffffffffffffffffffff1673ffffffffffffffffffffffffffffffffffffffff16815260200190815260200160002060009054906101000a900460ff1661094e576040517f08c379a0000000000000000000000000000000000000000000000000000000008152600401610945906120fb565b60405180910390fd5b606b54606560009054906101000a900473ffffffffffffffffffffffffffffffffffffffff1673ffffffffffffffffffffffffffffffffffffffff166370a08231306040518263ffffffff1660e01b81526004016109ac9190611ead565b602060405180830381865afa1580156109c9573d6000803e3d6000fd5b505050506040513d601f19601f820116820180604052508101906109ed9190612130565b1015610a2e576040517f08c379a0000000000000000000000000000000000000000000000000000000008152600401610a25906121a9565b60405180910390fd5b610a3c606a54606b546112bd565b905060006040518060a00160405280838152602001610a59611243565b73ffffffffffffffffffffffffffffffffffffffff1681526020018673ffffffffffffffffffffffffffffffffffffffff168152602001858152602001841515815250905080606c60008481526020019081526020016000206000820151816000015560208201518160010160006101000a81548173ffffffffffffffffffffffffffffffffffffffff021916908373ffffffffffffffffffffffffffffffffffffffff16021790555060408201518160020160006101000a81548173ffffffffffffffffffffffffffffffffffffffff021916908373ffffffffffffffffffffffffffffffffffffffff1602179055506060820151816003019080519060200190610b66929190611942565b5060808201518160040160006101000a81548160ff0219169083151502179055509050507fa604c1d75d1d5480c3a226f3b59c2be444c037ab3cbc22c688fa02ddcaedd13582610bb4611243565b604051610bc29291906121c9565b60405180910390a1509392505050565b610bda611243565b73ffffffffffffffffffffffffffffffffffffffff16610bf8610e58565b73ffffffffffffffffffffffffffffffffffffffff1614610c4e576040517f08c379a0000000000000000000000000000000000000000000000000000000008152600401610c4590611fd7565b60405180910390fd5b610c586000611414565b565b6000610c64611243565b73ffffffffffffffffffffffffffffffffffffffff16610c82610e58565b73ffffffffffffffffffffffffffffffffffffffff1614610cd8576040517f08c379a0000000000000000000000000000000000000000000000000000000008152600401610ccf90611fd7565b60405180910390fd5b606560009054906101000a900473ffffffffffffffffffffffffffffffffffffffff1673ffffffffffffffffffffffffffffffffffffffff1663a9059cbb610d1e611243565b846040518363ffffffff1660e01b8152600401610d3c929190612201565b6020604051808303816000875af1158015610d5b573d6000803e3d6000fd5b505050506040513d601f19601f82011682018060405250810190610d7f919061223f565b9050919050565b6000610d90611243565b73ffffffffffffffffffffffffffffffffffffffff16610dae610e58565b73ffffffffffffffffffffffffffffffffffffffff1614610e04576040517f08c379a0000000000000000000000000000000000000000000000000000000008152600401610dfb90611fd7565b60405180910390fd5b606860008373ffffffffffffffffffffffffffffffffffffffff1673ffffffffffffffffffffffffffffffffffffffff16815260200190815260200160002060009054906101000a900460ff169050919050565b6000603360009054906101000a900473ffffffffffffffffffffffffffffffffffffffff16905090565b606660009054906101000a900473ffffffffffffffffffffffffffffffffffffffff1673ffffffffffffffffffffffffffffffffffffffff163373ffffffffffffffffffffffffffffffffffffffff1614610f12576040517f08c379a0000000000000000000000000000000000000000000000000000000008152600401610f09906122b8565b60405180910390fd5b610f1c82826114da565b5050565b610f28611243565b73ffffffffffffffffffffffffffffffffffffffff16610f46610e58565b73ffffffffffffffffffffffffffffffffffffffff1614610f9c576040517f08c379a0000000000000000000000000000000000000000000000000000000008152600401610f9390611fd7565b60405180910390fd5b6001606860008373ffffffffffffffffffffffffffffffffffffffff1673ffffffffffffffffffffffffffffffffffffffff16815260200190815260200160002060006101000a81548160ff02191690831515021790555050565b606c6020528060005260406000206000915090508060000154908060010160009054906101000a900473ffffffffffffffffffffffffffffffffffffffff16908060020160009054906101000a900473ffffffffffffffffffffffffffffffffffffffff16908060040160009054906101000a900460ff16905084565b61107c611243565b73ffffffffffffffffffffffffffffffffffffffff1661109a610e58565b73ffffffffffffffffffffffffffffffffffffffff16146110f0576040517f08c379a00000000000000000000000000000000000000000000000000000000081526004016110e790611fd7565b60405180910390fd5b600073ffffffffffffffffffffffffffffffffffffffff168173ffffffffffffffffffffffffffffffffffffffff161415611160576040517f08c379a00000000000000000000000000000000000000000000000000000000081526004016111579061234a565b60405180910390fd5b61116981611414565b50565b611174611243565b73ffffffffffffffffffffffffffffffffffffffff16611192610e58565b73ffffffffffffffffffffffffffffffffffffffff16146111e8576040517f08c379a00000000000000000000000000000000000000000000000000000000081526004016111df90611fd7565b60405180910390fd5b6000606860008373ffffffffffffffffffffffffffffffffffffffff1673ffffffffffffffffffffffffffffffffffffffff16815260200190815260200160002060006101000a81548160ff02191690831515021790555050565b600033905090565b60006112563061180e565b15905090565b600060019054906101000a900460ff166112ab576040517f08c379a00000000000000000000000000000000000000000000000000000000081526004016112a2906123dc565b60405180910390fd5b6112b3611821565b6112bb611872565b565b6000606560009054906101000a900473ffffffffffffffffffffffffffffffffffffffff1673ffffffffffffffffffffffffffffffffffffffff16634000aea0606660009054906101000a900473ffffffffffffffffffffffffffffffffffffffff16848660006040516020016113359291906123fc565b6040516020818303038152906040526040518463ffffffff1660e01b8152600401611362939291906124ad565b6020604051808303816000875af1158015611381573d6000803e3d6000fd5b505050506040513d601f19601f820116820180604052508101906113a5919061223f565b5060006113c88460003060676000898152602001908152602001600020546118d3565b9050600160676000868152602001908152602001600020546113ea919061251a565b606760008681526020019081526020016000208190555061140b848261190f565b91505092915050565b6000603360009054906101000a900473ffffffffffffffffffffffffffffffffffffffff16905081603360006101000a81548173ffffffffffffffffffffffffffffffffffffffff021916908373ffffffffffffffffffffffffffffffffffffffff1602179055508173ffffffffffffffffffffffffffffffffffffffff168173ffffffffffffffffffffffffffffffffffffffff167f8be0079c531659141344cd1fd0a4f28419497f9722a3daafe3b4186f6b6457e060405160405180910390a35050565b6000606c60008481526020019081526020016000206040518060a0016040529081600082015481526020016001820160009054906101000a900473ffffffffffffffffffffffffffffffffffffffff1673ffffffffffffffffffffffffffffffffffffffff1673ffffffffffffffffffffffffffffffffffffffff1681526020016002820160009054906101000a900473ffffffffffffffffffffffffffffffffffffffff1673ffffffffffffffffffffffffffffffffffffffff1673ffffffffffffffffffffffffffffffffffffffff1681526020016003820180548060200260200160405190810160405280929190818152602001828054801561162757602002820191906000526020600020906000905b82829054906101000a900461ffff1661ffff16815260200190600201906020826001010492830192600103820291508084116115ee5790505b505050505081526020016004820160009054906101000a900460ff16151515158152505090506000801b81600001511415611697576040517f08c379a000000000000000000000000000000000000000000000000000000000815260040161168e906125bc565b60405180910390fd5b60696000826020015173ffffffffffffffffffffffffffffffffffffffff1673ffffffffffffffffffffffffffffffffffffffff16815260200190815260200160002060009054906101000a900473ffffffffffffffffffffffffffffffffffffffff1673ffffffffffffffffffffffffffffffffffffffff1663922a1802606c6000868152602001908152602001600020846040518363ffffffff1660e01b8152600401611747929190612e45565b600060405180830381600087803b15801561176157600080fd5b505af1158015611775573d6000803e3d6000fd5b50505050606c60008481526020019081526020016000206000808201600090556001820160006101000a81549073ffffffffffffffffffffffffffffffffffffffff02191690556002820160006101000a81549073ffffffffffffffffffffffffffffffffffffffff02191690556003820160006117f391906119ec565b6004820160006101000a81549060ff02191690555050505050565b600080823b905060008111915050919050565b600060019054906101000a900460ff16611870576040517f08c379a0000000000000000000000000000000000000000000000000000000008152600401611867906123dc565b60405180910390fd5b565b600060019054906101000a900460ff166118c1576040517f08c379a00000000000000000000000000000000000000000000000000000000081526004016118b8906123dc565b60405180910390fd5b6118d16118cc611243565b611414565b565b6000848484846040516020016118ec9493929190612e75565b6040516020818303038152906040528051906020012060001c9050949350505050565b60008282604051602001611924929190612efc565b60405160208183030381529060405280519060200120905092915050565b82805482825590600052602060002090600f016010900481019282156119db5791602002820160005b838211156119ab57835183826101000a81548161ffff021916908361ffff160217905550926020019260020160208160010104928301926001030261196b565b80156119d95782816101000a81549061ffff02191690556002016020816001010492830192600103026119ab565b505b5090506119e89190611a14565b5090565b50805460008255600f016010900490600052602060002090810190611a119190611a14565b50565b5b80821115611a2d576000816000905550600101611a15565b5090565b6000604051905090565b600080fd5b600080fd5b600073ffffffffffffffffffffffffffffffffffffffff82169050919050565b6000611a7082611a45565b9050919050565b611a8081611a65565b8114611a8b57600080fd5b50565b600081359050611a9d81611a77565b92915050565b600060208284031215611ab957611ab8611a3b565b5b6000611ac784828501611a8e565b91505092915050565b6000819050919050565b611ae381611ad0565b8114611aee57600080fd5b50565b600081359050611b0081611ada565b92915050565b6000819050919050565b611b1981611b06565b8114611b2457600080fd5b50565b600081359050611b3681611b10565b92915050565b60008060008060808587031215611b5657611b55611a3b565b5b6000611b6487828801611a8e565b9450506020611b7587828801611a8e565b9350506040611b8687828801611af1565b9250506060611b9787828801611b27565b91505092959194509250565b60008060408385031215611bba57611bb9611a3b565b5b6000611bc885828601611a8e565b9250506020611bd985828601611a8e565b9150509250929050565b600080fd5b6000601f19601f8301169050919050565b7f4e487b7100000000000000000000000000000000000000000000000000000000600052604160045260246000fd5b611c3182611be8565b810181811067ffffffffffffffff82111715611c5057611c4f611bf9565b5b80604052505050565b6000611c63611a31565b9050611c6f8282611c28565b919050565b600067ffffffffffffffff821115611c8f57611c8e611bf9565b5b602082029050602081019050919050565b600080fd5b600061ffff82169050919050565b611cbc81611ca5565b8114611cc757600080fd5b50565b600081359050611cd981611cb3565b92915050565b6000611cf2611ced84611c74565b611c59565b90508083825260208201905060208402830185811115611d1557611d14611ca0565b5b835b81811015611d3e5780611d2a8882611cca565b845260208401935050602081019050611d17565b5050509392505050565b600082601f830112611d5d57611d5c611be3565b5b8135611d6d848260208601611cdf565b91505092915050565b60008115159050919050565b611d8b81611d76565b8114611d9657600080fd5b50565b600081359050611da881611d82565b92915050565b600080600060608486031215611dc757611dc6611a3b565b5b6000611dd586828701611a8e565b935050602084013567ffffffffffffffff811115611df657611df5611a40565b5b611e0286828701611d48565b9250506040611e1386828701611d99565b9150509250925092565b611e2681611ad0565b82525050565b6000602082019050611e416000830184611e1d565b92915050565b600060208284031215611e5d57611e5c611a3b565b5b6000611e6b84828501611b27565b91505092915050565b611e7d81611d76565b82525050565b6000602082019050611e986000830184611e74565b92915050565b611ea781611a65565b82525050565b6000602082019050611ec26000830184611e9e565b92915050565b60008060408385031215611edf57611ede611a3b565b5b6000611eed85828601611af1565b9250506020611efe85828601611b27565b9150509250929050565b600060208284031215611f1e57611f1d611a3b565b5b6000611f2c84828501611af1565b91505092915050565b6000608082019050611f4a6000830187611e1d565b611f576020830186611e9e565b611f646040830185611e9e565b611f716060830184611e74565b95945050505050565b600082825260208201905092915050565b7f4f776e61626c653a2063616c6c6572206973206e6f7420746865206f776e6572600082015250565b6000611fc1602083611f7a565b9150611fcc82611f8b565b602082019050919050565b60006020820190508181036000830152611ff081611fb4565b9050919050565b7f496e697469616c697a61626c653a20636f6e747261637420697320616c72656160008201527f647920696e697469616c697a6564000000000000000000000000000000000000602082015250565b6000612053602e83611f7a565b915061205e82611ff7565b604082019050919050565b6000602082019050818103600083015261208281612046565b9050919050565b7f4f6e6c7920636f6e74726f6c6c6572732063616e20726571756573742072616e60008201527f646f6d6e65737300000000000000000000000000000000000000000000000000602082015250565b60006120e5602783611f7a565b91506120f082612089565b604082019050919050565b60006020820190508181036000830152612114816120d8565b9050919050565b60008151905061212a81611b10565b92915050565b60006020828403121561214657612145611a3b565b5b60006121548482850161211b565b91505092915050565b7f496e73756666696369656e74204c494e4b000000000000000000000000000000600082015250565b6000612193601183611f7a565b915061219e8261215d565b602082019050919050565b600060208201905081810360008301526121c281612186565b9050919050565b60006040820190506121de6000830185611e1d565b6121eb6020830184611e9e565b9392505050565b6121fb81611b06565b82525050565b60006040820190506122166000830185611e9e565b61222360208301846121f2565b9392505050565b60008151905061223981611d82565b92915050565b60006020828403121561225557612254611a3b565b5b60006122638482850161222a565b91505092915050565b7f4f6e6c7920565246436f6f7264696e61746f722063616e2066756c66696c6c00600082015250565b60006122a2601f83611f7a565b91506122ad8261226c565b602082019050919050565b600060208201905081810360008301526122d181612295565b9050919050565b7f4f776e61626c653a206e6577206f776e657220697320746865207a65726f206160008201527f6464726573730000000000000000000000000000000000000000000000000000602082015250565b6000612334602683611f7a565b915061233f826122d8565b604082019050919050565b6000602082019050818103600083015261236381612327565b9050919050565b7f496e697469616c697a61626c653a20636f6e7472616374206973206e6f74206960008201527f6e697469616c697a696e67000000000000000000000000000000000000000000602082015250565b60006123c6602b83611f7a565b91506123d18261236a565b604082019050919050565b600060208201905081810360008301526123f5816123b9565b9050919050565b60006040820190506124116000830185611e1d565b61241e60208301846121f2565b9392505050565b600081519050919050565b600082825260208201905092915050565b60005b8381101561245f578082015181840152602081019050612444565b8381111561246e576000848401525b50505050565b600061247f82612425565b6124898185612430565b9350612499818560208601612441565b6124a281611be8565b840191505092915050565b60006060820190506124c26000830186611e9e565b6124cf60208301856121f2565b81810360408301526124e18184612474565b9050949350505050565b7f4e487b7100000000000000000000000000000000000000000000000000000000600052601160045260246000fd5b600061252582611b06565b915061253083611b06565b9250827fffffffffffffffffffffffffffffffffffffffffffffffffffffffffffffffff03821115612565576125646124eb565b5b828201905092915050565b7f5652462072657175657374204944206e6f7420666f756e640000000000000000600082015250565b60006125a6601883611f7a565b91506125b182612570565b602082019050919050565b600060208201905081810360008301526125d581612599565b9050919050565b60008160001c9050919050565b6000819050919050565b6000612606612601836125dc565b6125e9565b9050919050565b61261681611ad0565b82525050565b600073ffffffffffffffffffffffffffffffffffffffff82169050919050565b600061264f61264a836125dc565b61261c565b9050919050565b61265f81611a65565b82525050565b600081549050919050565b600082825260208201905092915050565b60008190508160005260206000209050919050565b61269f81611ca5565b82525050565b600061ffff82169050919050565b60006126c66126c1836125dc565b6126a5565b9050919050565b60008160101c9050919050565b60006126ed6126e8836126cd565b6126a5565b9050919050565b60008160201c9050919050565b600061271461270f836126f4565b6126a5565b9050919050565b60008160301c9050919050565b600061273b6127368361271b565b6126a5565b9050919050565b60008160401c9050919050565b600061276261275d83612742565b6126a5565b9050919050565b60008160501c9050919050565b600061278961278483612769565b6126a5565b9050919050565b60008160601c9050919050565b60006127b06127ab83612790565b6126a5565b9050919050565b60008160701c9050919050565b60006127d76127d2836127b7565b6126a5565b9050919050565b60008160801c9050919050565b60006127fe6127f9836127de565b6126a5565b9050919050565b60008160901c9050919050565b600061282561282083612805565b6126a5565b9050919050565b60008160a01c9050919050565b600061284c6128478361282c565b6126a5565b9050919050565b60008160b01c9050919050565b600061287361286e83612853565b6126a5565b9050919050565b60008160c01c9050919050565b600061289a6128958361287a565b6126a5565b9050919050565b60008160d01c9050919050565b60006128c16128bc836128a1565b6126a5565b9050919050565b60008160e01c9050919050565b60006128e86128e3836128c8565b6126a5565b9050919050565b60008160f01c9050919050565b600061290f61290a836128ef565b6126a5565b9050919050565b600061292182612665565b61292b8185612670565b93508361293784612681565b6000600115612ae4575b83600160100382011015612ae35781546129638861295e836126b3565b612696565b60208801975061297b88612976836126da565b612696565b6020880197506129938861298e83612701565b612696565b6020880197506129ab886129a683612728565b612696565b6020880197506129c3886129be8361274f565b612696565b6020880197506129db886129d683612776565b612696565b6020880197506129f3886129ee8361279d565b612696565b602088019750612a0b88612a06836127c4565b612696565b602088019750612a2388612a1e836127eb565b612696565b602088019750612a3b88612a3683612812565b612696565b602088019750612a5388612a4e83612839565b612696565b602088019750612a6b88612a6683612860565b612696565b602088019750612a8388612a7e83612887565b612696565b602088019750612a9b88612a96836128ae565b612696565b602088019750612ab388612aae836128d5565b612696565b602088019750612acb88612ac6836128fc565b612696565b60208801975060018301925050601081019050612941565b5b600115612d5f57815484821015612b1457612b0788612b02836126b3565b612696565b6020880197506001820191505b84821015612b3b57612b2e88612b29836126da565b612696565b6020880197506001820191505b84821015612b6257612b5588612b5083612701565b612696565b6020880197506001820191505b84821015612b8957612b7c88612b7783612728565b612696565b6020880197506001820191505b84821015612bb057612ba388612b9e8361274f565b612696565b6020880197506001820191505b84821015612bd757612bca88612bc583612776565b612696565b6020880197506001820191505b84821015612bfe57612bf188612bec8361279d565b612696565b6020880197506001820191505b84821015612c2557612c1888612c13836127c4565b612696565b6020880197506001820191505b84821015612c4c57612c3f88612c3a836127eb565b612696565b6020880197506001820191505b84821015612c7357612c6688612c6183612812565b612696565b6020880197506001820191505b84821015612c9a57612c8d88612c8883612839565b612696565b6020880197506001820191505b84821015612cc157612cb488612caf83612860565b612696565b6020880197506001820191505b84821015612ce857612cdb88612cd683612887565b612696565b6020880197506001820191505b84821015612d0f57612d0288612cfd836128ae565b612696565b6020880197506001820191505b84821015612d3657612d2988612d24836128d5565b612696565b6020880197506001820191505b84821015612d5d57612d5088612d4b836128fc565b612696565b6020880197506001820191505b505b8694505050505092915050565b600060ff82169050919050565b6000612d8c612d87836125dc565b612d6c565b9050919050565b612d9c81611d76565b82525050565b600060a083016000808401549050612db9816125f3565b612dc6600087018261260d565b5060018401549050612dd78161263c565b612de46020870182612656565b5060028401549050612df58161263c565b612e026040870182612656565b50600384018583036060870152612e198382612916565b92505060048401549050612e2c81612d79565b612e396080870182612d93565b50819250505092915050565b60006040820190508181036000830152612e5f8185612da2565b9050612e6e60208301846121f2565b9392505050565b6000608082019050612e8a6000830187611e1d565b612e9760208301866121f2565b612ea46040830185611e9e565b612eb160608301846121f2565b95945050505050565b6000819050919050565b612ed5612ed082611ad0565b612eba565b82525050565b6000819050919050565b612ef6612ef182611b06565b612edb565b82525050565b6000612f088285612ec4565b602082019150612f188284612ee5565b602082019150819050939250505056fea26469706673582212202b407d762e9fca4f8010565c74cc1cef2ee2429aff36769082bf7ba1d653259564736f6c634300080a0033",
  "immutableReferences": {},
  "source": "// SPDX-License-Identifier: MIT\n\npragma solidity ^0.8.0;\n\nimport \"@openzeppelin/contracts-upgradeable/proxy/utils/Initializable.sol\";\nimport \"@openzeppelin/contracts-upgradeable/access/OwnableUpgradeable.sol\";\nimport \"./VRFConsumer.sol\";\nimport \"./IClaim.sol\";\nimport \"./IVenue.sol\";\n\ncontract Claim is Initializable, OwnableUpgradeable, IClaim, VRFConsumer {\n  mapping(address => bool) controllers; // Mapping from an address to whether or not it can mint / burn\n\n  mapping(address => IVenue) venues; // Mapping from an address to a reference to the Venue\n  bytes32 internal keyHash;\n  uint256 internal fee;\n  mapping(bytes32 => VRFStruct) public vrfRequests; // Mapping from tokenId to a struct containing the token's traits\n\n  event RandomNumberRequested(\n    bytes32 requestId,\n    address sender\n  );\n\n  function initialize(\n    address _vrfCoordinator,\n    address _link,\n    bytes32 _keyHash,\n    uint256 _fee\n  ) external initializer {\n    __Ownable_init();\n\n    vrfCoordinator = _vrfCoordinator;\n    link = LinkTokenInterface(_link);\n    keyHash = _keyHash;\n    fee = _fee;\n  }\n\n  /**\n   * Set ChainLink VRF params\n   */\n  function setVrfParams(\n    address _vrfCoordinator,\n    address _link,\n    bytes32 _keyHash,\n    uint256 _fee\n  ) external onlyOwner {\n    vrfCoordinator = _vrfCoordinator;\n    link = LinkTokenInterface(_link);\n    keyHash = _keyHash;\n    fee = _fee;\n  }\n\n  function requestRandomNumber(address sender, uint16[] memory tokenIds, bool unstake) external returns (bytes32 requestId) {\n    require(controllers[_msgSender()], \"Only controllers can request randomness\");\n    require(link.balanceOf(address(this)) >= fee, \"Insufficient LINK\");\n    requestId = requestRandomness(keyHash, fee);\n    VRFStruct memory v = VRFStruct({ requestId: requestId, venue: _msgSender(), sender: sender, tokenIds: tokenIds, unstake: unstake });\n    vrfRequests[requestId] = v;\n    emit RandomNumberRequested(\n      requestId,\n      _msgSender()\n    );\n  }\n\n  function fulfillRandomness(bytes32 requestId, uint256 randomness) internal override {\n    VRFStruct memory v = vrfRequests[requestId];\n    require(v.requestId != 0, \"VRF request ID not found\");\n    venues[v.venue].fulfillClaimMany(vrfRequests[requestId], randomness);\n    delete vrfRequests[requestId];\n  }\n\n  /**\n   * Enables a venue address to fulfill claims\n   * @param _venue - The address to enable\n   */\n  function addVenue(address _venue) external onlyOwner {\n    venues[_venue] = IVenue(_venue);\n  }\n\n  /**\n   * Disables a venue address from fulfilling claims\n   * @param _venue the address to disable\n   */\n  function removeVenue(address _venue) external onlyOwner {\n    delete venues[_venue];\n  }\n\n  /**\n   * Gets controller status by address\n   * @param controller the address to check\n   */\n  function getController(address controller) external view onlyOwner returns (bool) {\n    return controllers[controller];\n  }\n\n  /**\n   * Enables an address to mint / burn\n   * @param controller the address to enable\n   */\n  function addController(address controller) external onlyOwner {\n    controllers[controller] = true;\n  }\n\n  /**\n   * Disables an address from minting / burning\n   * @param controller the address to disable\n   */\n  function removeController(address controller) external onlyOwner {\n    controllers[controller] = false;\n  }\n}\n",
  "sourcePath": "/Users/chris/workspace/ratalert/ratalert-contracts/contracts/Claim.sol",
  "compiler": {
    "name": "solc",
    "version": "0.8.10+commit.fc410830.Emscripten.clang"
  },
  "schemaVersion": "3.4.5",
  "updatedAt": "2022-03-11T07:53:03.197Z",
  "networkType": "ethereum",
  "devdoc": {
    "kind": "dev",
    "methods": {
      "addController(address)": {
        "params": {
          "controller": "the address to enable"
        }
      },
      "addVenue(address)": {
        "params": {
          "_venue": "- The address to enable"
        }
      },
      "getController(address)": {
        "params": {
          "controller": "the address to check"
        }
      },
      "initialize(address,address)": {
        "params": {
          "_vrfCoordinator": "- Address of VRFCoordinator contract"
        }
      },
      "owner()": {
        "details": "Returns the address of the current owner."
      },
      "removeController(address)": {
        "params": {
          "controller": "the address to disable"
        }
      },
      "removeVenue(address)": {
        "params": {
          "_venue": "the address to disable"
        }
      },
      "renounceOwnership()": {
        "details": "Leaves the contract without owner. It will not be possible to call `onlyOwner` functions anymore. Can only be called by the current owner. NOTE: Renouncing ownership will leave the contract without an owner, thereby removing any functionality that is only available to the owner."
      },
      "transferOwnership(address)": {
        "details": "Transfers ownership of the contract to a new account (`newOwner`). Can only be called by the current owner."
      }
    },
    "version": 1
  },
  "userdoc": {
    "kind": "user",
    "methods": {
      "addController(address)": {
        "notice": "Enables an address to mint / burn"
      },
      "addVenue(address)": {
        "notice": "Enables a venue address to fulfill claims"
      },
      "getController(address)": {
        "notice": "Gets controller status by address"
      },
      "removeController(address)": {
        "notice": "Disables an address from minting / burning"
      },
      "removeVenue(address)": {
        "notice": "Disables a venue address from fulfilling claims"
      },
      "setVrfParams(address,address,bytes32,uint256)": {
        "notice": "Set ChainLink VRF params"
      }
    },
    "version": 1
  }
}