{
  "contractName": "Claim",
  "abi": [
    {
      "anonymous": false,
      "inputs": [
        {
          "indexed": true,
          "internalType": "address",
          "name": "previousOwner",
          "type": "address"
        },
        {
          "indexed": true,
          "internalType": "address",
          "name": "newOwner",
          "type": "address"
        }
      ],
      "name": "OwnershipTransferred",
      "type": "event"
    },
    {
      "anonymous": false,
      "inputs": [
        {
          "indexed": false,
          "internalType": "bytes32",
          "name": "requestId",
          "type": "bytes32"
        },
        {
          "indexed": false,
          "internalType": "address",
          "name": "sender",
          "type": "address"
        }
      ],
      "name": "RandomNumberFulfilled",
      "type": "event"
    },
    {
      "anonymous": false,
      "inputs": [
        {
          "indexed": false,
          "internalType": "bytes32",
          "name": "requestId",
          "type": "bytes32"
        },
        {
          "indexed": false,
          "internalType": "address",
          "name": "sender",
          "type": "address"
        }
      ],
      "name": "RandomNumberRequested",
      "type": "event"
    },
    {
      "inputs": [
        {
          "internalType": "address",
          "name": "_controller",
          "type": "address"
        }
      ],
      "name": "addController",
      "outputs": [],
      "stateMutability": "nonpayable",
      "type": "function"
    },
    {
      "inputs": [
        {
          "internalType": "address",
          "name": "_controller",
          "type": "address"
        }
      ],
      "name": "controller",
      "outputs": [
        {
          "internalType": "bool",
          "name": "",
          "type": "bool"
        }
      ],
      "stateMutability": "view",
      "type": "function",
      "constant": true
    },
    {
      "inputs": [],
      "name": "owner",
      "outputs": [
        {
          "internalType": "address",
          "name": "",
          "type": "address"
        }
      ],
      "stateMutability": "view",
      "type": "function",
      "constant": true
    },
    {
      "inputs": [
        {
          "internalType": "bytes32",
          "name": "requestId",
          "type": "bytes32"
        },
        {
          "internalType": "uint256",
          "name": "randomness",
          "type": "uint256"
        }
      ],
      "name": "rawFulfillRandomness",
      "outputs": [],
      "stateMutability": "nonpayable",
      "type": "function"
    },
    {
      "inputs": [
        {
          "internalType": "address",
          "name": "_controller",
          "type": "address"
        }
      ],
      "name": "removeController",
      "outputs": [],
      "stateMutability": "nonpayable",
      "type": "function"
    },
    {
      "inputs": [],
      "name": "renounceOwnership",
      "outputs": [],
      "stateMutability": "nonpayable",
      "type": "function"
    },
    {
      "inputs": [
        {
          "internalType": "address",
          "name": "newOwner",
          "type": "address"
        }
      ],
      "name": "transferOwnership",
      "outputs": [],
      "stateMutability": "nonpayable",
      "type": "function"
    },
    {
      "inputs": [
        {
          "internalType": "bytes32",
          "name": "",
          "type": "bytes32"
        }
      ],
      "name": "vrfRequests",
      "outputs": [
        {
          "internalType": "bytes32",
          "name": "requestId",
          "type": "bytes32"
        },
        {
          "internalType": "address",
          "name": "venue",
          "type": "address"
        },
        {
          "internalType": "address",
          "name": "sender",
          "type": "address"
        },
        {
          "internalType": "bool",
          "name": "unstake",
          "type": "bool"
        }
      ],
      "stateMutability": "view",
      "type": "function",
      "constant": true
    },
    {
      "inputs": [
        {
          "internalType": "uint256",
          "name": "amount",
          "type": "uint256"
        }
      ],
      "name": "withdrawLink",
      "outputs": [
        {
          "internalType": "bool",
          "name": "success",
          "type": "bool"
        }
      ],
      "stateMutability": "nonpayable",
      "type": "function"
    },
    {
      "inputs": [
        {
          "internalType": "address",
          "name": "_vrfCoordinator",
          "type": "address"
        },
        {
          "internalType": "address",
          "name": "_link",
          "type": "address"
        },
        {
          "internalType": "bytes32",
          "name": "_keyHash",
          "type": "bytes32"
        },
        {
          "internalType": "uint256",
          "name": "_fee",
          "type": "uint256"
        }
      ],
      "name": "initialize",
      "outputs": [],
      "stateMutability": "nonpayable",
      "type": "function"
    },
    {
      "inputs": [
        {
          "internalType": "address",
          "name": "_vrfCoordinator",
          "type": "address"
        },
        {
          "internalType": "address",
          "name": "_link",
          "type": "address"
        }
      ],
      "name": "initialize",
      "outputs": [],
      "stateMutability": "nonpayable",
      "type": "function"
    },
    {
      "inputs": [
        {
          "internalType": "address",
          "name": "_vrfCoordinator",
          "type": "address"
        },
        {
          "internalType": "address",
          "name": "_link",
          "type": "address"
        },
        {
          "internalType": "bytes32",
          "name": "_keyHash",
          "type": "bytes32"
        },
        {
          "internalType": "uint256",
          "name": "_fee",
          "type": "uint256"
        }
      ],
      "name": "setVrfParams",
      "outputs": [],
      "stateMutability": "nonpayable",
      "type": "function"
    },
    {
      "inputs": [
        {
          "internalType": "address",
          "name": "sender",
          "type": "address"
        },
        {
          "internalType": "uint16[]",
          "name": "tokenIds",
          "type": "uint16[]"
        },
        {
          "internalType": "bool",
          "name": "unstake",
          "type": "bool"
        }
      ],
      "name": "requestRandomNumber",
      "outputs": [
        {
          "internalType": "bytes32",
          "name": "requestId",
          "type": "bytes32"
        }
      ],
      "stateMutability": "nonpayable",
      "type": "function"
    },
    {
      "inputs": [
        {
          "internalType": "address",
          "name": "_venue",
          "type": "address"
        }
      ],
      "name": "addVenue",
      "outputs": [],
      "stateMutability": "nonpayable",
      "type": "function"
    },
    {
      "inputs": [
        {
          "internalType": "address",
          "name": "_venue",
          "type": "address"
        }
      ],
      "name": "removeVenue",
      "outputs": [],
      "stateMutability": "nonpayable",
      "type": "function"
    }
  ],
  "bytecode": "0x608060405234801561001057600080fd5b50612f71806100206000396000f3fe608060405234801561001057600080fd5b50600436106100f55760003560e01c80637a8042bd11610097578063c13aa7b511610066578063c13aa7b514610246578063dec04e5f14610276578063f2fde38b146102a9578063f6a74ed7146102c5576100f5565b80637a8042bd146101c05780638da5cb5b146101f057806394985ddd1461020e578063a7fc7a071461022a576100f5565b80633d6b06cc116100d35780633d6b06cc1461014e578063485cc9551461016a5780635bdf263c14610186578063715018a6146101b6576100f5565b80632522ed6b146100fa578063277a23891461011657806336ab22ce14610132575b600080fd5b610114600480360381019061010f9190611adc565b6102e1565b005b610130600480360381019061012b9190611b75565b6103de565b005b61014c60048036038101906101479190611adc565b61055e565b005b61016860048036038101906101639190611b75565b61063f565b005b610184600480360381019061017f9190611bdc565b610751565b005b6101a0600480360381019061019b9190611de7565b6108b9565b6040516101ad9190611e65565b60405180910390f35b6101be610bcb565b005b6101da60048036038101906101d59190611e80565b610c53565b6040516101e79190611ebc565b60405180910390f35b6101f8610d7f565b6040516102059190611ee6565b60405180910390f35b61022860048036038101906102239190611f01565b610da9565b005b610244600480360381019061023f9190611adc565b610e47565b005b610260600480360381019061025b9190611adc565b610f1e565b60405161026d9190611ebc565b60405180910390f35b610290600480360381019061028b9190611f41565b610ff0565b6040516102a09493929190611f6e565b60405180910390f35b6102c360048036038101906102be9190611adc565b61106d565b005b6102df60048036038101906102da9190611adc565b611165565b005b6102e961123c565b73ffffffffffffffffffffffffffffffffffffffff16610307610d7f565b73ffffffffffffffffffffffffffffffffffffffff161461035d576040517f08c379a000000000000000000000000000000000000000000000000000000000815260040161035490612010565b60405180910390fd5b80606960008373ffffffffffffffffffffffffffffffffffffffff1673ffffffffffffffffffffffffffffffffffffffff16815260200190815260200160002060006101000a81548173ffffffffffffffffffffffffffffffffffffffff021916908373ffffffffffffffffffffffffffffffffffffffff16021790555050565b600060019054906101000a900460ff166104065760008054906101000a900460ff161561040f565b61040e611244565b5b61044e576040517f08c379a0000000000000000000000000000000000000000000000000000000008152600401610445906120a2565b60405180910390fd5b60008060019054906101000a900460ff16159050801561049e576001600060016101000a81548160ff02191690831515021790555060016000806101000a81548160ff0219169083151502179055505b6104a6611255565b84606660006101000a81548173ffffffffffffffffffffffffffffffffffffffff021916908373ffffffffffffffffffffffffffffffffffffffff16021790555083606560006101000a81548173ffffffffffffffffffffffffffffffffffffffff021916908373ffffffffffffffffffffffffffffffffffffffff16021790555082606a8190555081606b8190555080156105575760008060016101000a81548160ff0219169083151502179055505b5050505050565b61056661123c565b73ffffffffffffffffffffffffffffffffffffffff16610584610d7f565b73ffffffffffffffffffffffffffffffffffffffff16146105da576040517f08c379a00000000000000000000000000000000000000000000000000000000081526004016105d190612010565b60405180910390fd5b606960008273ffffffffffffffffffffffffffffffffffffffff1673ffffffffffffffffffffffffffffffffffffffff16815260200190815260200160002060006101000a81549073ffffffffffffffffffffffffffffffffffffffff021916905550565b61064761123c565b73ffffffffffffffffffffffffffffffffffffffff16610665610d7f565b73ffffffffffffffffffffffffffffffffffffffff16146106bb576040517f08c379a00000000000000000000000000000000000000000000000000000000081526004016106b290612010565b60405180910390fd5b83606660006101000a81548173ffffffffffffffffffffffffffffffffffffffff021916908373ffffffffffffffffffffffffffffffffffffffff16021790555082606560006101000a81548173ffffffffffffffffffffffffffffffffffffffff021916908373ffffffffffffffffffffffffffffffffffffffff16021790555081606a8190555080606b8190555050505050565b600060019054906101000a900460ff166107795760008054906101000a900460ff1615610782565b610781611244565b5b6107c1576040517f08c379a00000000000000000000000000000000000000000000000000000000081526004016107b8906120a2565b60405180910390fd5b60008060019054906101000a900460ff161590508015610811576001600060016101000a81548160ff02191690831515021790555060016000806101000a81548160ff0219169083151502179055505b82606660006101000a81548173ffffffffffffffffffffffffffffffffffffffff021916908373ffffffffffffffffffffffffffffffffffffffff16021790555081606560006101000a81548173ffffffffffffffffffffffffffffffffffffffff021916908373ffffffffffffffffffffffffffffffffffffffff16021790555080156108b45760008060016101000a81548160ff0219169083151502179055505b505050565b6000606860003373ffffffffffffffffffffffffffffffffffffffff1673ffffffffffffffffffffffffffffffffffffffff16815260200190815260200160002060009054906101000a900460ff16610947576040517f08c379a000000000000000000000000000000000000000000000000000000000815260040161093e9061210e565b60405180910390fd5b606b54606560009054906101000a900473ffffffffffffffffffffffffffffffffffffffff1673ffffffffffffffffffffffffffffffffffffffff166370a08231306040518263ffffffff1660e01b81526004016109a59190611ee6565b602060405180830381865afa1580156109c2573d6000803e3d6000fd5b505050506040513d601f19601f820116820180604052508101906109e69190612143565b1015610a27576040517f08c379a0000000000000000000000000000000000000000000000000000000008152600401610a1e906121bc565b60405180910390fd5b610a35606a54606b546112b6565b905060006040518060a00160405280838152602001610a5261123c565b73ffffffffffffffffffffffffffffffffffffffff1681526020018673ffffffffffffffffffffffffffffffffffffffff168152602001858152602001841515815250905080606c60008481526020019081526020016000206000820151816000015560208201518160010160006101000a81548173ffffffffffffffffffffffffffffffffffffffff021916908373ffffffffffffffffffffffffffffffffffffffff16021790555060408201518160020160006101000a81548173ffffffffffffffffffffffffffffffffffffffff021916908373ffffffffffffffffffffffffffffffffffffffff1602179055506060820151816003019080519060200190610b5f92919061197b565b5060808201518160040160006101000a81548160ff0219169083151502179055509050507fa604c1d75d1d5480c3a226f3b59c2be444c037ab3cbc22c688fa02ddcaedd13582610bad61123c565b604051610bbb9291906121dc565b60405180910390a1509392505050565b610bd361123c565b73ffffffffffffffffffffffffffffffffffffffff16610bf1610d7f565b73ffffffffffffffffffffffffffffffffffffffff1614610c47576040517f08c379a0000000000000000000000000000000000000000000000000000000008152600401610c3e90612010565b60405180910390fd5b610c51600061140d565b565b6000610c5d61123c565b73ffffffffffffffffffffffffffffffffffffffff16610c7b610d7f565b73ffffffffffffffffffffffffffffffffffffffff1614610cd1576040517f08c379a0000000000000000000000000000000000000000000000000000000008152600401610cc890612010565b60405180910390fd5b606560009054906101000a900473ffffffffffffffffffffffffffffffffffffffff1673ffffffffffffffffffffffffffffffffffffffff1663a9059cbb610d1761123c565b846040518363ffffffff1660e01b8152600401610d35929190612214565b6020604051808303816000875af1158015610d54573d6000803e3d6000fd5b505050506040513d601f19601f82011682018060405250810190610d789190612252565b9050919050565b6000603360009054906101000a900473ffffffffffffffffffffffffffffffffffffffff16905090565b606660009054906101000a900473ffffffffffffffffffffffffffffffffffffffff1673ffffffffffffffffffffffffffffffffffffffff163373ffffffffffffffffffffffffffffffffffffffff1614610e39576040517f08c379a0000000000000000000000000000000000000000000000000000000008152600401610e30906122cb565b60405180910390fd5b610e4382826114d3565b5050565b610e4f61123c565b73ffffffffffffffffffffffffffffffffffffffff16610e6d610d7f565b73ffffffffffffffffffffffffffffffffffffffff1614610ec3576040517f08c379a0000000000000000000000000000000000000000000000000000000008152600401610eba90612010565b60405180910390fd5b6001606860008373ffffffffffffffffffffffffffffffffffffffff1673ffffffffffffffffffffffffffffffffffffffff16815260200190815260200160002060006101000a81548160ff02191690831515021790555050565b6000610f2861123c565b73ffffffffffffffffffffffffffffffffffffffff16610f46610d7f565b73ffffffffffffffffffffffffffffffffffffffff1614610f9c576040517f08c379a0000000000000000000000000000000000000000000000000000000008152600401610f9390612010565b60405180910390fd5b606860008373ffffffffffffffffffffffffffffffffffffffff1673ffffffffffffffffffffffffffffffffffffffff16815260200190815260200160002060009054906101000a900460ff169050919050565b606c6020528060005260406000206000915090508060000154908060010160009054906101000a900473ffffffffffffffffffffffffffffffffffffffff16908060020160009054906101000a900473ffffffffffffffffffffffffffffffffffffffff16908060040160009054906101000a900460ff16905084565b61107561123c565b73ffffffffffffffffffffffffffffffffffffffff16611093610d7f565b73ffffffffffffffffffffffffffffffffffffffff16146110e9576040517f08c379a00000000000000000000000000000000000000000000000000000000081526004016110e090612010565b60405180910390fd5b600073ffffffffffffffffffffffffffffffffffffffff168173ffffffffffffffffffffffffffffffffffffffff161415611159576040517f08c379a00000000000000000000000000000000000000000000000000000000081526004016111509061235d565b60405180910390fd5b6111628161140d565b50565b61116d61123c565b73ffffffffffffffffffffffffffffffffffffffff1661118b610d7f565b73ffffffffffffffffffffffffffffffffffffffff16146111e1576040517f08c379a00000000000000000000000000000000000000000000000000000000081526004016111d890612010565b60405180910390fd5b6000606860008373ffffffffffffffffffffffffffffffffffffffff1673ffffffffffffffffffffffffffffffffffffffff16815260200190815260200160002060006101000a81548160ff02191690831515021790555050565b600033905090565b600061124f30611847565b15905090565b600060019054906101000a900460ff166112a4576040517f08c379a000000000000000000000000000000000000000000000000000000000815260040161129b906123ef565b60405180910390fd5b6112ac61185a565b6112b46118ab565b565b6000606560009054906101000a900473ffffffffffffffffffffffffffffffffffffffff1673ffffffffffffffffffffffffffffffffffffffff16634000aea0606660009054906101000a900473ffffffffffffffffffffffffffffffffffffffff168486600060405160200161132e92919061240f565b6040516020818303038152906040526040518463ffffffff1660e01b815260040161135b939291906124c0565b6020604051808303816000875af115801561137a573d6000803e3d6000fd5b505050506040513d601f19601f8201168201806040525081019061139e9190612252565b5060006113c184600030606760008981526020019081526020016000205461190c565b9050600160676000868152602001908152602001600020546113e3919061252d565b60676000868152602001908152602001600020819055506114048482611948565b91505092915050565b6000603360009054906101000a900473ffffffffffffffffffffffffffffffffffffffff16905081603360006101000a81548173ffffffffffffffffffffffffffffffffffffffff021916908373ffffffffffffffffffffffffffffffffffffffff1602179055508173ffffffffffffffffffffffffffffffffffffffff168173ffffffffffffffffffffffffffffffffffffffff167f8be0079c531659141344cd1fd0a4f28419497f9722a3daafe3b4186f6b6457e060405160405180910390a35050565b6000606c60008481526020019081526020016000206040518060a0016040529081600082015481526020016001820160009054906101000a900473ffffffffffffffffffffffffffffffffffffffff1673ffffffffffffffffffffffffffffffffffffffff1673ffffffffffffffffffffffffffffffffffffffff1681526020016002820160009054906101000a900473ffffffffffffffffffffffffffffffffffffffff1673ffffffffffffffffffffffffffffffffffffffff1673ffffffffffffffffffffffffffffffffffffffff1681526020016003820180548060200260200160405190810160405280929190818152602001828054801561162057602002820191906000526020600020906000905b82829054906101000a900461ffff1661ffff16815260200190600201906020826001010492830192600103820291508084116115e75790505b505050505081526020016004820160009054906101000a900460ff16151515158152505090506000801b81600001511415611690576040517f08c379a0000000000000000000000000000000000000000000000000000000008152600401611687906125cf565b60405180910390fd5b60696000826020015173ffffffffffffffffffffffffffffffffffffffff1673ffffffffffffffffffffffffffffffffffffffff16815260200190815260200160002060009054906101000a900473ffffffffffffffffffffffffffffffffffffffff1673ffffffffffffffffffffffffffffffffffffffff1663922a1802606c6000868152602001908152602001600020846040518363ffffffff1660e01b8152600401611740929190612e58565b600060405180830381600087803b15801561175a57600080fd5b505af115801561176e573d6000803e3d6000fd5b50505050606c60008481526020019081526020016000206000808201600090556001820160006101000a81549073ffffffffffffffffffffffffffffffffffffffff02191690556002820160006101000a81549073ffffffffffffffffffffffffffffffffffffffff02191690556003820160006117ec9190611a25565b6004820160006101000a81549060ff021916905550507f697b04c8163be56dde69d35841ac4e03926065129a0340b2ef2199336f9039718361182c61123c565b60405161183a9291906121dc565b60405180910390a1505050565b600080823b905060008111915050919050565b600060019054906101000a900460ff166118a9576040517f08c379a00000000000000000000000000000000000000000000000000000000081526004016118a0906123ef565b60405180910390fd5b565b600060019054906101000a900460ff166118fa576040517f08c379a00000000000000000000000000000000000000000000000000000000081526004016118f1906123ef565b60405180910390fd5b61190a61190561123c565b61140d565b565b6000848484846040516020016119259493929190612e88565b6040516020818303038152906040528051906020012060001c9050949350505050565b6000828260405160200161195d929190612f0f565b60405160208183030381529060405280519060200120905092915050565b82805482825590600052602060002090600f01601090048101928215611a145791602002820160005b838211156119e457835183826101000a81548161ffff021916908361ffff16021790555092602001926002016020816001010492830192600103026119a4565b8015611a125782816101000a81549061ffff02191690556002016020816001010492830192600103026119e4565b505b509050611a219190611a4d565b5090565b50805460008255600f016010900490600052602060002090810190611a4a9190611a4d565b50565b5b80821115611a66576000816000905550600101611a4e565b5090565b6000604051905090565b600080fd5b600080fd5b600073ffffffffffffffffffffffffffffffffffffffff82169050919050565b6000611aa982611a7e565b9050919050565b611ab981611a9e565b8114611ac457600080fd5b50565b600081359050611ad681611ab0565b92915050565b600060208284031215611af257611af1611a74565b5b6000611b0084828501611ac7565b91505092915050565b6000819050919050565b611b1c81611b09565b8114611b2757600080fd5b50565b600081359050611b3981611b13565b92915050565b6000819050919050565b611b5281611b3f565b8114611b5d57600080fd5b50565b600081359050611b6f81611b49565b92915050565b60008060008060808587031215611b8f57611b8e611a74565b5b6000611b9d87828801611ac7565b9450506020611bae87828801611ac7565b9350506040611bbf87828801611b2a565b9250506060611bd087828801611b60565b91505092959194509250565b60008060408385031215611bf357611bf2611a74565b5b6000611c0185828601611ac7565b9250506020611c1285828601611ac7565b9150509250929050565b600080fd5b6000601f19601f8301169050919050565b7f4e487b7100000000000000000000000000000000000000000000000000000000600052604160045260246000fd5b611c6a82611c21565b810181811067ffffffffffffffff82111715611c8957611c88611c32565b5b80604052505050565b6000611c9c611a6a565b9050611ca88282611c61565b919050565b600067ffffffffffffffff821115611cc857611cc7611c32565b5b602082029050602081019050919050565b600080fd5b600061ffff82169050919050565b611cf581611cde565b8114611d0057600080fd5b50565b600081359050611d1281611cec565b92915050565b6000611d2b611d2684611cad565b611c92565b90508083825260208201905060208402830185811115611d4e57611d4d611cd9565b5b835b81811015611d775780611d638882611d03565b845260208401935050602081019050611d50565b5050509392505050565b600082601f830112611d9657611d95611c1c565b5b8135611da6848260208601611d18565b91505092915050565b60008115159050919050565b611dc481611daf565b8114611dcf57600080fd5b50565b600081359050611de181611dbb565b92915050565b600080600060608486031215611e0057611dff611a74565b5b6000611e0e86828701611ac7565b935050602084013567ffffffffffffffff811115611e2f57611e2e611a79565b5b611e3b86828701611d81565b9250506040611e4c86828701611dd2565b9150509250925092565b611e5f81611b09565b82525050565b6000602082019050611e7a6000830184611e56565b92915050565b600060208284031215611e9657611e95611a74565b5b6000611ea484828501611b60565b91505092915050565b611eb681611daf565b82525050565b6000602082019050611ed16000830184611ead565b92915050565b611ee081611a9e565b82525050565b6000602082019050611efb6000830184611ed7565b92915050565b60008060408385031215611f1857611f17611a74565b5b6000611f2685828601611b2a565b9250506020611f3785828601611b60565b9150509250929050565b600060208284031215611f5757611f56611a74565b5b6000611f6584828501611b2a565b91505092915050565b6000608082019050611f836000830187611e56565b611f906020830186611ed7565b611f9d6040830185611ed7565b611faa6060830184611ead565b95945050505050565b600082825260208201905092915050565b7f4f776e61626c653a2063616c6c6572206973206e6f7420746865206f776e6572600082015250565b6000611ffa602083611fb3565b915061200582611fc4565b602082019050919050565b6000602082019050818103600083015261202981611fed565b9050919050565b7f496e697469616c697a61626c653a20636f6e747261637420697320616c72656160008201527f647920696e697469616c697a6564000000000000000000000000000000000000602082015250565b600061208c602e83611fb3565b915061209782612030565b604082019050919050565b600060208201905081810360008301526120bb8161207f565b9050919050565b7f4f6e6c7920636f6e74726f6c6c6572732063616e206578656375746500000000600082015250565b60006120f8601c83611fb3565b9150612103826120c2565b602082019050919050565b60006020820190508181036000830152612127816120eb565b9050919050565b60008151905061213d81611b49565b92915050565b60006020828403121561215957612158611a74565b5b60006121678482850161212e565b91505092915050565b7f496e73756666696369656e74204c494e4b000000000000000000000000000000600082015250565b60006121a6601183611fb3565b91506121b182612170565b602082019050919050565b600060208201905081810360008301526121d581612199565b9050919050565b60006040820190506121f16000830185611e56565b6121fe6020830184611ed7565b9392505050565b61220e81611b3f565b82525050565b60006040820190506122296000830185611ed7565b6122366020830184612205565b9392505050565b60008151905061224c81611dbb565b92915050565b60006020828403121561226857612267611a74565b5b60006122768482850161223d565b91505092915050565b7f4f6e6c7920565246436f6f7264696e61746f722063616e2066756c66696c6c00600082015250565b60006122b5601f83611fb3565b91506122c08261227f565b602082019050919050565b600060208201905081810360008301526122e4816122a8565b9050919050565b7f4f776e61626c653a206e6577206f776e657220697320746865207a65726f206160008201527f6464726573730000000000000000000000000000000000000000000000000000602082015250565b6000612347602683611fb3565b9150612352826122eb565b604082019050919050565b600060208201905081810360008301526123768161233a565b9050919050565b7f496e697469616c697a61626c653a20636f6e7472616374206973206e6f74206960008201527f6e697469616c697a696e67000000000000000000000000000000000000000000602082015250565b60006123d9602b83611fb3565b91506123e48261237d565b604082019050919050565b60006020820190508181036000830152612408816123cc565b9050919050565b60006040820190506124246000830185611e56565b6124316020830184612205565b9392505050565b600081519050919050565b600082825260208201905092915050565b60005b83811015612472578082015181840152602081019050612457565b83811115612481576000848401525b50505050565b600061249282612438565b61249c8185612443565b93506124ac818560208601612454565b6124b581611c21565b840191505092915050565b60006060820190506124d56000830186611ed7565b6124e26020830185612205565b81810360408301526124f48184612487565b9050949350505050565b7f4e487b7100000000000000000000000000000000000000000000000000000000600052601160045260246000fd5b600061253882611b3f565b915061254383611b3f565b9250827fffffffffffffffffffffffffffffffffffffffffffffffffffffffffffffffff03821115612578576125776124fe565b5b828201905092915050565b7f5652462072657175657374204944206e6f7420666f756e640000000000000000600082015250565b60006125b9601883611fb3565b91506125c482612583565b602082019050919050565b600060208201905081810360008301526125e8816125ac565b9050919050565b60008160001c9050919050565b6000819050919050565b6000612619612614836125ef565b6125fc565b9050919050565b61262981611b09565b82525050565b600073ffffffffffffffffffffffffffffffffffffffff82169050919050565b600061266261265d836125ef565b61262f565b9050919050565b61267281611a9e565b82525050565b600081549050919050565b600082825260208201905092915050565b60008190508160005260206000209050919050565b6126b281611cde565b82525050565b600061ffff82169050919050565b60006126d96126d4836125ef565b6126b8565b9050919050565b60008160101c9050919050565b60006127006126fb836126e0565b6126b8565b9050919050565b60008160201c9050919050565b600061272761272283612707565b6126b8565b9050919050565b60008160301c9050919050565b600061274e6127498361272e565b6126b8565b9050919050565b60008160401c9050919050565b600061277561277083612755565b6126b8565b9050919050565b60008160501c9050919050565b600061279c6127978361277c565b6126b8565b9050919050565b60008160601c9050919050565b60006127c36127be836127a3565b6126b8565b9050919050565b60008160701c9050919050565b60006127ea6127e5836127ca565b6126b8565b9050919050565b60008160801c9050919050565b600061281161280c836127f1565b6126b8565b9050919050565b60008160901c9050919050565b600061283861283383612818565b6126b8565b9050919050565b60008160a01c9050919050565b600061285f61285a8361283f565b6126b8565b9050919050565b60008160b01c9050919050565b600061288661288183612866565b6126b8565b9050919050565b60008160c01c9050919050565b60006128ad6128a88361288d565b6126b8565b9050919050565b60008160d01c9050919050565b60006128d46128cf836128b4565b6126b8565b9050919050565b60008160e01c9050919050565b60006128fb6128f6836128db565b6126b8565b9050919050565b60008160f01c9050919050565b600061292261291d83612902565b6126b8565b9050919050565b600061293482612678565b61293e8185612683565b93508361294a84612694565b6000600115612af7575b83600160100382011015612af657815461297688612971836126c6565b6126a9565b60208801975061298e88612989836126ed565b6126a9565b6020880197506129a6886129a183612714565b6126a9565b6020880197506129be886129b98361273b565b6126a9565b6020880197506129d6886129d183612762565b6126a9565b6020880197506129ee886129e983612789565b6126a9565b602088019750612a0688612a01836127b0565b6126a9565b602088019750612a1e88612a19836127d7565b6126a9565b602088019750612a3688612a31836127fe565b6126a9565b602088019750612a4e88612a4983612825565b6126a9565b602088019750612a6688612a618361284c565b6126a9565b602088019750612a7e88612a7983612873565b6126a9565b602088019750612a9688612a918361289a565b6126a9565b602088019750612aae88612aa9836128c1565b6126a9565b602088019750612ac688612ac1836128e8565b6126a9565b602088019750612ade88612ad98361290f565b6126a9565b60208801975060018301925050601081019050612954565b5b600115612d7257815484821015612b2757612b1a88612b15836126c6565b6126a9565b6020880197506001820191505b84821015612b4e57612b4188612b3c836126ed565b6126a9565b6020880197506001820191505b84821015612b7557612b6888612b6383612714565b6126a9565b6020880197506001820191505b84821015612b9c57612b8f88612b8a8361273b565b6126a9565b6020880197506001820191505b84821015612bc357612bb688612bb183612762565b6126a9565b6020880197506001820191505b84821015612bea57612bdd88612bd883612789565b6126a9565b6020880197506001820191505b84821015612c1157612c0488612bff836127b0565b6126a9565b6020880197506001820191505b84821015612c3857612c2b88612c26836127d7565b6126a9565b6020880197506001820191505b84821015612c5f57612c5288612c4d836127fe565b6126a9565b6020880197506001820191505b84821015612c8657612c7988612c7483612825565b6126a9565b6020880197506001820191505b84821015612cad57612ca088612c9b8361284c565b6126a9565b6020880197506001820191505b84821015612cd457612cc788612cc283612873565b6126a9565b6020880197506001820191505b84821015612cfb57612cee88612ce98361289a565b6126a9565b6020880197506001820191505b84821015612d2257612d1588612d10836128c1565b6126a9565b6020880197506001820191505b84821015612d4957612d3c88612d37836128e8565b6126a9565b6020880197506001820191505b84821015612d7057612d6388612d5e8361290f565b6126a9565b6020880197506001820191505b505b8694505050505092915050565b600060ff82169050919050565b6000612d9f612d9a836125ef565b612d7f565b9050919050565b612daf81611daf565b82525050565b600060a083016000808401549050612dcc81612606565b612dd96000870182612620565b5060018401549050612dea8161264f565b612df76020870182612669565b5060028401549050612e088161264f565b612e156040870182612669565b50600384018583036060870152612e2c8382612929565b92505060048401549050612e3f81612d8c565b612e4c6080870182612da6565b50819250505092915050565b60006040820190508181036000830152612e728185612db5565b9050612e816020830184612205565b9392505050565b6000608082019050612e9d6000830187611e56565b612eaa6020830186612205565b612eb76040830185611ed7565b612ec46060830184612205565b95945050505050565b6000819050919050565b612ee8612ee382611b09565b612ecd565b82525050565b6000819050919050565b612f09612f0482611b3f565b612eee565b82525050565b6000612f1b8285612ed7565b602082019150612f2b8284612ef8565b602082019150819050939250505056fea2646970667358221220b3b2c751cb769e0ee556b0609b4ecada3c17b234c1ba09470f72c27fa047a58e64736f6c634300080a0033",
  "immutableReferences": {},
  "source": "// SPDX-License-Identifier: MIT\n\npragma solidity ^0.8.0;\n\nimport \"@openzeppelin/contracts-upgradeable/proxy/utils/Initializable.sol\";\nimport \"./ControllableUpgradeable.sol\";\nimport \"./VRFConsumer.sol\";\nimport \"./IClaim.sol\";\nimport \"./IVenue.sol\";\n\ncontract Claim is Initializable, OwnableUpgradeable, IClaim, VRFConsumer, ControllableUpgradeable {\n  mapping(address => IVenue) venues; // Mapping from an address to a reference to the Venue\n  bytes32 internal keyHash;\n  uint256 internal fee;\n  mapping(bytes32 => VRFStruct) public vrfRequests; // Mapping from tokenId to a struct containing the token's traits\n\n  event RandomNumberRequested(\n    bytes32 requestId,\n    address sender\n  );\n  event RandomNumberFulfilled(\n    bytes32 requestId,\n    address sender\n  );\n\n  function initialize(\n    address _vrfCoordinator,\n    address _link,\n    bytes32 _keyHash,\n    uint256 _fee\n  ) external initializer {\n    __Ownable_init();\n\n    vrfCoordinator = _vrfCoordinator;\n    link = LinkTokenInterface(_link);\n    keyHash = _keyHash;\n    fee = _fee;\n  }\n\n  /**\n   * Set ChainLink VRF params\n   */\n  function setVrfParams(\n    address _vrfCoordinator,\n    address _link,\n    bytes32 _keyHash,\n    uint256 _fee\n  ) external onlyOwner {\n    vrfCoordinator = _vrfCoordinator;\n    link = LinkTokenInterface(_link);\n    keyHash = _keyHash;\n    fee = _fee;\n  }\n\n  function requestRandomNumber(address sender, uint16[] memory tokenIds, bool unstake) external onlyController returns (bytes32 requestId) {\n    require(link.balanceOf(address(this)) >= fee, \"Insufficient LINK\");\n    requestId = requestRandomness(keyHash, fee);\n    VRFStruct memory v = VRFStruct({ requestId: requestId, venue: _msgSender(), sender: sender, tokenIds: tokenIds, unstake: unstake });\n    vrfRequests[requestId] = v;\n    emit RandomNumberRequested(requestId, _msgSender());\n  }\n\n  function fulfillRandomness(bytes32 requestId, uint256 randomness) internal override {\n    VRFStruct memory v = vrfRequests[requestId];\n    require(v.requestId != 0, \"VRF request ID not found\");\n    venues[v.venue].fulfillClaimMany(vrfRequests[requestId], randomness);\n    delete vrfRequests[requestId];\n    emit RandomNumberFulfilled(requestId, _msgSender());\n  }\n\n  /**\n   * Enables a venue address to fulfill claims\n   * @param _venue - The address to enable\n   */\n  function addVenue(address _venue) external onlyOwner {\n    venues[_venue] = IVenue(_venue);\n  }\n\n  /**\n   * Disables a venue address from fulfilling claims\n   * @param _venue the address to disable\n   */\n  function removeVenue(address _venue) external onlyOwner {\n    delete venues[_venue];\n  }\n}\n",
  "sourcePath": "/Users/chris/workspace/ratalert/ratalert-contracts/contracts/Claim.sol",
  "compiler": {
    "name": "solc",
    "version": "0.8.10+commit.fc410830.Emscripten.clang"
  },
  "schemaVersion": "3.4.5",
  "updatedAt": "2022-03-14T13:41:00.294Z",
  "networkType": "ethereum",
  "devdoc": {
    "kind": "dev",
    "methods": {
      "addController(address)": {
        "params": {
          "_controller": "- The address to enable"
        }
      },
      "addVenue(address)": {
        "params": {
          "_venue": "- The address to enable"
        }
      },
      "controller(address)": {
        "params": {
          "_controller": "- The address to check"
        }
      },
      "initialize(address,address)": {
        "params": {
          "_vrfCoordinator": "- Address of VRFCoordinator contract"
        }
      },
      "owner()": {
        "details": "Returns the address of the current owner."
      },
      "removeController(address)": {
        "params": {
          "_controller": "- The address to disable"
        }
      },
      "removeVenue(address)": {
        "params": {
          "_venue": "the address to disable"
        }
      },
      "renounceOwnership()": {
        "details": "Leaves the contract without owner. It will not be possible to call `onlyOwner` functions anymore. Can only be called by the current owner. NOTE: Renouncing ownership will leave the contract without an owner, thereby removing any functionality that is only available to the owner."
      },
      "transferOwnership(address)": {
        "details": "Transfers ownership of the contract to a new account (`newOwner`). Can only be called by the current owner."
      }
    },
    "version": 1
  },
  "userdoc": {
    "kind": "user",
    "methods": {
      "addController(address)": {
        "notice": "Enables an address to mint / burn"
      },
      "addVenue(address)": {
        "notice": "Enables a venue address to fulfill claims"
      },
      "controller(address)": {
        "notice": "Gets controller status by address"
      },
      "removeController(address)": {
        "notice": "Disables an address from minting / burning"
      },
      "removeVenue(address)": {
        "notice": "Disables a venue address from fulfilling claims"
      },
      "setVrfParams(address,address,bytes32,uint256)": {
        "notice": "Set ChainLink VRF params"
      }
    },
    "version": 1
  }
}