{
  "contractName": "Claim",
  "abi": [
    {
      "anonymous": false,
      "inputs": [
        {
          "indexed": true,
          "internalType": "address",
          "name": "previousOwner",
          "type": "address"
        },
        {
          "indexed": true,
          "internalType": "address",
          "name": "newOwner",
          "type": "address"
        }
      ],
      "name": "OwnershipTransferred",
      "type": "event"
    },
    {
      "anonymous": false,
      "inputs": [
        {
          "indexed": false,
          "internalType": "bytes32",
          "name": "requestId",
          "type": "bytes32"
        },
        {
          "indexed": false,
          "internalType": "address",
          "name": "sender",
          "type": "address"
        }
      ],
      "name": "RandomNumberRequested",
      "type": "event"
    },
    {
      "inputs": [
        {
          "internalType": "address",
          "name": "_controller",
          "type": "address"
        }
      ],
      "name": "addController",
      "outputs": [],
      "stateMutability": "nonpayable",
      "type": "function"
    },
    {
      "inputs": [
        {
          "internalType": "address",
          "name": "_controller",
          "type": "address"
        }
      ],
      "name": "controller",
      "outputs": [
        {
          "internalType": "bool",
          "name": "",
          "type": "bool"
        }
      ],
      "stateMutability": "view",
      "type": "function",
      "constant": true
    },
    {
      "inputs": [],
      "name": "owner",
      "outputs": [
        {
          "internalType": "address",
          "name": "",
          "type": "address"
        }
      ],
      "stateMutability": "view",
      "type": "function",
      "constant": true
    },
    {
      "inputs": [
        {
          "internalType": "bytes32",
          "name": "requestId",
          "type": "bytes32"
        },
        {
          "internalType": "uint256",
          "name": "randomness",
          "type": "uint256"
        }
      ],
      "name": "rawFulfillRandomness",
      "outputs": [],
      "stateMutability": "nonpayable",
      "type": "function"
    },
    {
      "inputs": [
        {
          "internalType": "address",
          "name": "_controller",
          "type": "address"
        }
      ],
      "name": "removeController",
      "outputs": [],
      "stateMutability": "nonpayable",
      "type": "function"
    },
    {
      "inputs": [],
      "name": "renounceOwnership",
      "outputs": [],
      "stateMutability": "nonpayable",
      "type": "function"
    },
    {
      "inputs": [
        {
          "internalType": "address",
          "name": "newOwner",
          "type": "address"
        }
      ],
      "name": "transferOwnership",
      "outputs": [],
      "stateMutability": "nonpayable",
      "type": "function"
    },
    {
      "inputs": [
        {
          "internalType": "bytes32",
          "name": "",
          "type": "bytes32"
        }
      ],
      "name": "vrfRequests",
      "outputs": [
        {
          "internalType": "bytes32",
          "name": "requestId",
          "type": "bytes32"
        },
        {
          "internalType": "address",
          "name": "venue",
          "type": "address"
        },
        {
          "internalType": "address",
          "name": "sender",
          "type": "address"
        },
        {
          "internalType": "bool",
          "name": "unstake",
          "type": "bool"
        }
      ],
      "stateMutability": "view",
      "type": "function",
      "constant": true
    },
    {
      "inputs": [
        {
          "internalType": "uint256",
          "name": "amount",
          "type": "uint256"
        }
      ],
      "name": "withdrawLink",
      "outputs": [
        {
          "internalType": "bool",
          "name": "success",
          "type": "bool"
        }
      ],
      "stateMutability": "nonpayable",
      "type": "function"
    },
    {
      "inputs": [
        {
          "internalType": "address",
          "name": "_vrfCoordinator",
          "type": "address"
        },
        {
          "internalType": "address",
          "name": "_link",
          "type": "address"
        },
        {
          "internalType": "bytes32",
          "name": "_keyHash",
          "type": "bytes32"
        },
        {
          "internalType": "uint256",
          "name": "_fee",
          "type": "uint256"
        }
      ],
      "name": "initialize",
      "outputs": [],
      "stateMutability": "nonpayable",
      "type": "function"
    },
    {
      "inputs": [
        {
          "internalType": "address",
          "name": "_vrfCoordinator",
          "type": "address"
        },
        {
          "internalType": "address",
          "name": "_link",
          "type": "address"
        }
      ],
      "name": "initialize",
      "outputs": [],
      "stateMutability": "nonpayable",
      "type": "function"
    },
    {
      "inputs": [
        {
          "internalType": "address",
          "name": "_vrfCoordinator",
          "type": "address"
        },
        {
          "internalType": "address",
          "name": "_link",
          "type": "address"
        },
        {
          "internalType": "bytes32",
          "name": "_keyHash",
          "type": "bytes32"
        },
        {
          "internalType": "uint256",
          "name": "_fee",
          "type": "uint256"
        }
      ],
      "name": "setVrfParams",
      "outputs": [],
      "stateMutability": "nonpayable",
      "type": "function"
    },
    {
      "inputs": [
        {
          "internalType": "address",
          "name": "sender",
          "type": "address"
        },
        {
          "internalType": "uint16[]",
          "name": "tokenIds",
          "type": "uint16[]"
        },
        {
          "internalType": "bool",
          "name": "unstake",
          "type": "bool"
        }
      ],
      "name": "requestRandomNumber",
      "outputs": [
        {
          "internalType": "bytes32",
          "name": "requestId",
          "type": "bytes32"
        }
      ],
      "stateMutability": "nonpayable",
      "type": "function"
    },
    {
      "inputs": [
        {
          "internalType": "address",
          "name": "_venue",
          "type": "address"
        }
      ],
      "name": "addVenue",
      "outputs": [],
      "stateMutability": "nonpayable",
      "type": "function"
    },
    {
      "inputs": [
        {
          "internalType": "address",
          "name": "_venue",
          "type": "address"
        }
      ],
      "name": "removeVenue",
      "outputs": [],
      "stateMutability": "nonpayable",
      "type": "function"
    }
  ],
  "bytecode": "0x608060405234801561001057600080fd5b50612f31806100206000396000f3fe608060405234801561001057600080fd5b50600436106100f55760003560e01c80637a8042bd11610097578063c13aa7b511610066578063c13aa7b514610246578063dec04e5f14610276578063f2fde38b146102a9578063f6a74ed7146102c5576100f5565b80637a8042bd146101c05780638da5cb5b146101f057806394985ddd1461020e578063a7fc7a071461022a576100f5565b80633d6b06cc116100d35780633d6b06cc1461014e578063485cc9551461016a5780635bdf263c14610186578063715018a6146101b6576100f5565b80632522ed6b146100fa578063277a23891461011657806336ab22ce14610132575b600080fd5b610114600480360381019061010f9190611a9c565b6102e1565b005b610130600480360381019061012b9190611b35565b6103de565b005b61014c60048036038101906101479190611a9c565b61055e565b005b61016860048036038101906101639190611b35565b61063f565b005b610184600480360381019061017f9190611b9c565b610751565b005b6101a0600480360381019061019b9190611da7565b6108b9565b6040516101ad9190611e25565b60405180910390f35b6101be610bcb565b005b6101da60048036038101906101d59190611e40565b610c53565b6040516101e79190611e7c565b60405180910390f35b6101f8610d7f565b6040516102059190611ea6565b60405180910390f35b61022860048036038101906102239190611ec1565b610da9565b005b610244600480360381019061023f9190611a9c565b610e47565b005b610260600480360381019061025b9190611a9c565b610f1e565b60405161026d9190611e7c565b60405180910390f35b610290600480360381019061028b9190611f01565b610ff0565b6040516102a09493929190611f2e565b60405180910390f35b6102c360048036038101906102be9190611a9c565b61106d565b005b6102df60048036038101906102da9190611a9c565b611165565b005b6102e961123c565b73ffffffffffffffffffffffffffffffffffffffff16610307610d7f565b73ffffffffffffffffffffffffffffffffffffffff161461035d576040517f08c379a000000000000000000000000000000000000000000000000000000000815260040161035490611fd0565b60405180910390fd5b80606960008373ffffffffffffffffffffffffffffffffffffffff1673ffffffffffffffffffffffffffffffffffffffff16815260200190815260200160002060006101000a81548173ffffffffffffffffffffffffffffffffffffffff021916908373ffffffffffffffffffffffffffffffffffffffff16021790555050565b600060019054906101000a900460ff166104065760008054906101000a900460ff161561040f565b61040e611244565b5b61044e576040517f08c379a000000000000000000000000000000000000000000000000000000000815260040161044590612062565b60405180910390fd5b60008060019054906101000a900460ff16159050801561049e576001600060016101000a81548160ff02191690831515021790555060016000806101000a81548160ff0219169083151502179055505b6104a6611255565b84606660006101000a81548173ffffffffffffffffffffffffffffffffffffffff021916908373ffffffffffffffffffffffffffffffffffffffff16021790555083606560006101000a81548173ffffffffffffffffffffffffffffffffffffffff021916908373ffffffffffffffffffffffffffffffffffffffff16021790555082606a8190555081606b8190555080156105575760008060016101000a81548160ff0219169083151502179055505b5050505050565b61056661123c565b73ffffffffffffffffffffffffffffffffffffffff16610584610d7f565b73ffffffffffffffffffffffffffffffffffffffff16146105da576040517f08c379a00000000000000000000000000000000000000000000000000000000081526004016105d190611fd0565b60405180910390fd5b606960008273ffffffffffffffffffffffffffffffffffffffff1673ffffffffffffffffffffffffffffffffffffffff16815260200190815260200160002060006101000a81549073ffffffffffffffffffffffffffffffffffffffff021916905550565b61064761123c565b73ffffffffffffffffffffffffffffffffffffffff16610665610d7f565b73ffffffffffffffffffffffffffffffffffffffff16146106bb576040517f08c379a00000000000000000000000000000000000000000000000000000000081526004016106b290611fd0565b60405180910390fd5b83606660006101000a81548173ffffffffffffffffffffffffffffffffffffffff021916908373ffffffffffffffffffffffffffffffffffffffff16021790555082606560006101000a81548173ffffffffffffffffffffffffffffffffffffffff021916908373ffffffffffffffffffffffffffffffffffffffff16021790555081606a8190555080606b8190555050505050565b600060019054906101000a900460ff166107795760008054906101000a900460ff1615610782565b610781611244565b5b6107c1576040517f08c379a00000000000000000000000000000000000000000000000000000000081526004016107b890612062565b60405180910390fd5b60008060019054906101000a900460ff161590508015610811576001600060016101000a81548160ff02191690831515021790555060016000806101000a81548160ff0219169083151502179055505b82606660006101000a81548173ffffffffffffffffffffffffffffffffffffffff021916908373ffffffffffffffffffffffffffffffffffffffff16021790555081606560006101000a81548173ffffffffffffffffffffffffffffffffffffffff021916908373ffffffffffffffffffffffffffffffffffffffff16021790555080156108b45760008060016101000a81548160ff0219169083151502179055505b505050565b6000606860003373ffffffffffffffffffffffffffffffffffffffff1673ffffffffffffffffffffffffffffffffffffffff16815260200190815260200160002060009054906101000a900460ff16610947576040517f08c379a000000000000000000000000000000000000000000000000000000000815260040161093e906120ce565b60405180910390fd5b606b54606560009054906101000a900473ffffffffffffffffffffffffffffffffffffffff1673ffffffffffffffffffffffffffffffffffffffff166370a08231306040518263ffffffff1660e01b81526004016109a59190611ea6565b602060405180830381865afa1580156109c2573d6000803e3d6000fd5b505050506040513d601f19601f820116820180604052508101906109e69190612103565b1015610a27576040517f08c379a0000000000000000000000000000000000000000000000000000000008152600401610a1e9061217c565b60405180910390fd5b610a35606a54606b546112b6565b905060006040518060a00160405280838152602001610a5261123c565b73ffffffffffffffffffffffffffffffffffffffff1681526020018673ffffffffffffffffffffffffffffffffffffffff168152602001858152602001841515815250905080606c60008481526020019081526020016000206000820151816000015560208201518160010160006101000a81548173ffffffffffffffffffffffffffffffffffffffff021916908373ffffffffffffffffffffffffffffffffffffffff16021790555060408201518160020160006101000a81548173ffffffffffffffffffffffffffffffffffffffff021916908373ffffffffffffffffffffffffffffffffffffffff1602179055506060820151816003019080519060200190610b5f92919061193b565b5060808201518160040160006101000a81548160ff0219169083151502179055509050507fa604c1d75d1d5480c3a226f3b59c2be444c037ab3cbc22c688fa02ddcaedd13582610bad61123c565b604051610bbb92919061219c565b60405180910390a1509392505050565b610bd361123c565b73ffffffffffffffffffffffffffffffffffffffff16610bf1610d7f565b73ffffffffffffffffffffffffffffffffffffffff1614610c47576040517f08c379a0000000000000000000000000000000000000000000000000000000008152600401610c3e90611fd0565b60405180910390fd5b610c51600061140d565b565b6000610c5d61123c565b73ffffffffffffffffffffffffffffffffffffffff16610c7b610d7f565b73ffffffffffffffffffffffffffffffffffffffff1614610cd1576040517f08c379a0000000000000000000000000000000000000000000000000000000008152600401610cc890611fd0565b60405180910390fd5b606560009054906101000a900473ffffffffffffffffffffffffffffffffffffffff1673ffffffffffffffffffffffffffffffffffffffff1663a9059cbb610d1761123c565b846040518363ffffffff1660e01b8152600401610d359291906121d4565b6020604051808303816000875af1158015610d54573d6000803e3d6000fd5b505050506040513d601f19601f82011682018060405250810190610d789190612212565b9050919050565b6000603360009054906101000a900473ffffffffffffffffffffffffffffffffffffffff16905090565b606660009054906101000a900473ffffffffffffffffffffffffffffffffffffffff1673ffffffffffffffffffffffffffffffffffffffff163373ffffffffffffffffffffffffffffffffffffffff1614610e39576040517f08c379a0000000000000000000000000000000000000000000000000000000008152600401610e309061228b565b60405180910390fd5b610e4382826114d3565b5050565b610e4f61123c565b73ffffffffffffffffffffffffffffffffffffffff16610e6d610d7f565b73ffffffffffffffffffffffffffffffffffffffff1614610ec3576040517f08c379a0000000000000000000000000000000000000000000000000000000008152600401610eba90611fd0565b60405180910390fd5b6001606860008373ffffffffffffffffffffffffffffffffffffffff1673ffffffffffffffffffffffffffffffffffffffff16815260200190815260200160002060006101000a81548160ff02191690831515021790555050565b6000610f2861123c565b73ffffffffffffffffffffffffffffffffffffffff16610f46610d7f565b73ffffffffffffffffffffffffffffffffffffffff1614610f9c576040517f08c379a0000000000000000000000000000000000000000000000000000000008152600401610f9390611fd0565b60405180910390fd5b606860008373ffffffffffffffffffffffffffffffffffffffff1673ffffffffffffffffffffffffffffffffffffffff16815260200190815260200160002060009054906101000a900460ff169050919050565b606c6020528060005260406000206000915090508060000154908060010160009054906101000a900473ffffffffffffffffffffffffffffffffffffffff16908060020160009054906101000a900473ffffffffffffffffffffffffffffffffffffffff16908060040160009054906101000a900460ff16905084565b61107561123c565b73ffffffffffffffffffffffffffffffffffffffff16611093610d7f565b73ffffffffffffffffffffffffffffffffffffffff16146110e9576040517f08c379a00000000000000000000000000000000000000000000000000000000081526004016110e090611fd0565b60405180910390fd5b600073ffffffffffffffffffffffffffffffffffffffff168173ffffffffffffffffffffffffffffffffffffffff161415611159576040517f08c379a00000000000000000000000000000000000000000000000000000000081526004016111509061231d565b60405180910390fd5b6111628161140d565b50565b61116d61123c565b73ffffffffffffffffffffffffffffffffffffffff1661118b610d7f565b73ffffffffffffffffffffffffffffffffffffffff16146111e1576040517f08c379a00000000000000000000000000000000000000000000000000000000081526004016111d890611fd0565b60405180910390fd5b6000606860008373ffffffffffffffffffffffffffffffffffffffff1673ffffffffffffffffffffffffffffffffffffffff16815260200190815260200160002060006101000a81548160ff02191690831515021790555050565b600033905090565b600061124f30611807565b15905090565b600060019054906101000a900460ff166112a4576040517f08c379a000000000000000000000000000000000000000000000000000000000815260040161129b906123af565b60405180910390fd5b6112ac61181a565b6112b461186b565b565b6000606560009054906101000a900473ffffffffffffffffffffffffffffffffffffffff1673ffffffffffffffffffffffffffffffffffffffff16634000aea0606660009054906101000a900473ffffffffffffffffffffffffffffffffffffffff168486600060405160200161132e9291906123cf565b6040516020818303038152906040526040518463ffffffff1660e01b815260040161135b93929190612480565b6020604051808303816000875af115801561137a573d6000803e3d6000fd5b505050506040513d601f19601f8201168201806040525081019061139e9190612212565b5060006113c18460003060676000898152602001908152602001600020546118cc565b9050600160676000868152602001908152602001600020546113e391906124ed565b60676000868152602001908152602001600020819055506114048482611908565b91505092915050565b6000603360009054906101000a900473ffffffffffffffffffffffffffffffffffffffff16905081603360006101000a81548173ffffffffffffffffffffffffffffffffffffffff021916908373ffffffffffffffffffffffffffffffffffffffff1602179055508173ffffffffffffffffffffffffffffffffffffffff168173ffffffffffffffffffffffffffffffffffffffff167f8be0079c531659141344cd1fd0a4f28419497f9722a3daafe3b4186f6b6457e060405160405180910390a35050565b6000606c60008481526020019081526020016000206040518060a0016040529081600082015481526020016001820160009054906101000a900473ffffffffffffffffffffffffffffffffffffffff1673ffffffffffffffffffffffffffffffffffffffff1673ffffffffffffffffffffffffffffffffffffffff1681526020016002820160009054906101000a900473ffffffffffffffffffffffffffffffffffffffff1673ffffffffffffffffffffffffffffffffffffffff1673ffffffffffffffffffffffffffffffffffffffff1681526020016003820180548060200260200160405190810160405280929190818152602001828054801561162057602002820191906000526020600020906000905b82829054906101000a900461ffff1661ffff16815260200190600201906020826001010492830192600103820291508084116115e75790505b505050505081526020016004820160009054906101000a900460ff16151515158152505090506000801b81600001511415611690576040517f08c379a00000000000000000000000000000000000000000000000000000000081526004016116879061258f565b60405180910390fd5b60696000826020015173ffffffffffffffffffffffffffffffffffffffff1673ffffffffffffffffffffffffffffffffffffffff16815260200190815260200160002060009054906101000a900473ffffffffffffffffffffffffffffffffffffffff1673ffffffffffffffffffffffffffffffffffffffff1663922a1802606c6000868152602001908152602001600020846040518363ffffffff1660e01b8152600401611740929190612e18565b600060405180830381600087803b15801561175a57600080fd5b505af115801561176e573d6000803e3d6000fd5b50505050606c60008481526020019081526020016000206000808201600090556001820160006101000a81549073ffffffffffffffffffffffffffffffffffffffff02191690556002820160006101000a81549073ffffffffffffffffffffffffffffffffffffffff02191690556003820160006117ec91906119e5565b6004820160006101000a81549060ff02191690555050505050565b600080823b905060008111915050919050565b600060019054906101000a900460ff16611869576040517f08c379a0000000000000000000000000000000000000000000000000000000008152600401611860906123af565b60405180910390fd5b565b600060019054906101000a900460ff166118ba576040517f08c379a00000000000000000000000000000000000000000000000000000000081526004016118b1906123af565b60405180910390fd5b6118ca6118c561123c565b61140d565b565b6000848484846040516020016118e59493929190612e48565b6040516020818303038152906040528051906020012060001c9050949350505050565b6000828260405160200161191d929190612ecf565b60405160208183030381529060405280519060200120905092915050565b82805482825590600052602060002090600f016010900481019282156119d45791602002820160005b838211156119a457835183826101000a81548161ffff021916908361ffff1602179055509260200192600201602081600101049283019260010302611964565b80156119d25782816101000a81549061ffff02191690556002016020816001010492830192600103026119a4565b505b5090506119e19190611a0d565b5090565b50805460008255600f016010900490600052602060002090810190611a0a9190611a0d565b50565b5b80821115611a26576000816000905550600101611a0e565b5090565b6000604051905090565b600080fd5b600080fd5b600073ffffffffffffffffffffffffffffffffffffffff82169050919050565b6000611a6982611a3e565b9050919050565b611a7981611a5e565b8114611a8457600080fd5b50565b600081359050611a9681611a70565b92915050565b600060208284031215611ab257611ab1611a34565b5b6000611ac084828501611a87565b91505092915050565b6000819050919050565b611adc81611ac9565b8114611ae757600080fd5b50565b600081359050611af981611ad3565b92915050565b6000819050919050565b611b1281611aff565b8114611b1d57600080fd5b50565b600081359050611b2f81611b09565b92915050565b60008060008060808587031215611b4f57611b4e611a34565b5b6000611b5d87828801611a87565b9450506020611b6e87828801611a87565b9350506040611b7f87828801611aea565b9250506060611b9087828801611b20565b91505092959194509250565b60008060408385031215611bb357611bb2611a34565b5b6000611bc185828601611a87565b9250506020611bd285828601611a87565b9150509250929050565b600080fd5b6000601f19601f8301169050919050565b7f4e487b7100000000000000000000000000000000000000000000000000000000600052604160045260246000fd5b611c2a82611be1565b810181811067ffffffffffffffff82111715611c4957611c48611bf2565b5b80604052505050565b6000611c5c611a2a565b9050611c688282611c21565b919050565b600067ffffffffffffffff821115611c8857611c87611bf2565b5b602082029050602081019050919050565b600080fd5b600061ffff82169050919050565b611cb581611c9e565b8114611cc057600080fd5b50565b600081359050611cd281611cac565b92915050565b6000611ceb611ce684611c6d565b611c52565b90508083825260208201905060208402830185811115611d0e57611d0d611c99565b5b835b81811015611d375780611d238882611cc3565b845260208401935050602081019050611d10565b5050509392505050565b600082601f830112611d5657611d55611bdc565b5b8135611d66848260208601611cd8565b91505092915050565b60008115159050919050565b611d8481611d6f565b8114611d8f57600080fd5b50565b600081359050611da181611d7b565b92915050565b600080600060608486031215611dc057611dbf611a34565b5b6000611dce86828701611a87565b935050602084013567ffffffffffffffff811115611def57611dee611a39565b5b611dfb86828701611d41565b9250506040611e0c86828701611d92565b9150509250925092565b611e1f81611ac9565b82525050565b6000602082019050611e3a6000830184611e16565b92915050565b600060208284031215611e5657611e55611a34565b5b6000611e6484828501611b20565b91505092915050565b611e7681611d6f565b82525050565b6000602082019050611e916000830184611e6d565b92915050565b611ea081611a5e565b82525050565b6000602082019050611ebb6000830184611e97565b92915050565b60008060408385031215611ed857611ed7611a34565b5b6000611ee685828601611aea565b9250506020611ef785828601611b20565b9150509250929050565b600060208284031215611f1757611f16611a34565b5b6000611f2584828501611aea565b91505092915050565b6000608082019050611f436000830187611e16565b611f506020830186611e97565b611f5d6040830185611e97565b611f6a6060830184611e6d565b95945050505050565b600082825260208201905092915050565b7f4f776e61626c653a2063616c6c6572206973206e6f7420746865206f776e6572600082015250565b6000611fba602083611f73565b9150611fc582611f84565b602082019050919050565b60006020820190508181036000830152611fe981611fad565b9050919050565b7f496e697469616c697a61626c653a20636f6e747261637420697320616c72656160008201527f647920696e697469616c697a6564000000000000000000000000000000000000602082015250565b600061204c602e83611f73565b915061205782611ff0565b604082019050919050565b6000602082019050818103600083015261207b8161203f565b9050919050565b7f4f6e6c7920636f6e74726f6c6c6572732063616e206578656375746500000000600082015250565b60006120b8601c83611f73565b91506120c382612082565b602082019050919050565b600060208201905081810360008301526120e7816120ab565b9050919050565b6000815190506120fd81611b09565b92915050565b60006020828403121561211957612118611a34565b5b6000612127848285016120ee565b91505092915050565b7f496e73756666696369656e74204c494e4b000000000000000000000000000000600082015250565b6000612166601183611f73565b915061217182612130565b602082019050919050565b6000602082019050818103600083015261219581612159565b9050919050565b60006040820190506121b16000830185611e16565b6121be6020830184611e97565b9392505050565b6121ce81611aff565b82525050565b60006040820190506121e96000830185611e97565b6121f660208301846121c5565b9392505050565b60008151905061220c81611d7b565b92915050565b60006020828403121561222857612227611a34565b5b6000612236848285016121fd565b91505092915050565b7f4f6e6c7920565246436f6f7264696e61746f722063616e2066756c66696c6c00600082015250565b6000612275601f83611f73565b91506122808261223f565b602082019050919050565b600060208201905081810360008301526122a481612268565b9050919050565b7f4f776e61626c653a206e6577206f776e657220697320746865207a65726f206160008201527f6464726573730000000000000000000000000000000000000000000000000000602082015250565b6000612307602683611f73565b9150612312826122ab565b604082019050919050565b60006020820190508181036000830152612336816122fa565b9050919050565b7f496e697469616c697a61626c653a20636f6e7472616374206973206e6f74206960008201527f6e697469616c697a696e67000000000000000000000000000000000000000000602082015250565b6000612399602b83611f73565b91506123a48261233d565b604082019050919050565b600060208201905081810360008301526123c88161238c565b9050919050565b60006040820190506123e46000830185611e16565b6123f160208301846121c5565b9392505050565b600081519050919050565b600082825260208201905092915050565b60005b83811015612432578082015181840152602081019050612417565b83811115612441576000848401525b50505050565b6000612452826123f8565b61245c8185612403565b935061246c818560208601612414565b61247581611be1565b840191505092915050565b60006060820190506124956000830186611e97565b6124a260208301856121c5565b81810360408301526124b48184612447565b9050949350505050565b7f4e487b7100000000000000000000000000000000000000000000000000000000600052601160045260246000fd5b60006124f882611aff565b915061250383611aff565b9250827fffffffffffffffffffffffffffffffffffffffffffffffffffffffffffffffff03821115612538576125376124be565b5b828201905092915050565b7f5652462072657175657374204944206e6f7420666f756e640000000000000000600082015250565b6000612579601883611f73565b915061258482612543565b602082019050919050565b600060208201905081810360008301526125a88161256c565b9050919050565b60008160001c9050919050565b6000819050919050565b60006125d96125d4836125af565b6125bc565b9050919050565b6125e981611ac9565b82525050565b600073ffffffffffffffffffffffffffffffffffffffff82169050919050565b600061262261261d836125af565b6125ef565b9050919050565b61263281611a5e565b82525050565b600081549050919050565b600082825260208201905092915050565b60008190508160005260206000209050919050565b61267281611c9e565b82525050565b600061ffff82169050919050565b6000612699612694836125af565b612678565b9050919050565b60008160101c9050919050565b60006126c06126bb836126a0565b612678565b9050919050565b60008160201c9050919050565b60006126e76126e2836126c7565b612678565b9050919050565b60008160301c9050919050565b600061270e612709836126ee565b612678565b9050919050565b60008160401c9050919050565b600061273561273083612715565b612678565b9050919050565b60008160501c9050919050565b600061275c6127578361273c565b612678565b9050919050565b60008160601c9050919050565b600061278361277e83612763565b612678565b9050919050565b60008160701c9050919050565b60006127aa6127a58361278a565b612678565b9050919050565b60008160801c9050919050565b60006127d16127cc836127b1565b612678565b9050919050565b60008160901c9050919050565b60006127f86127f3836127d8565b612678565b9050919050565b60008160a01c9050919050565b600061281f61281a836127ff565b612678565b9050919050565b60008160b01c9050919050565b600061284661284183612826565b612678565b9050919050565b60008160c01c9050919050565b600061286d6128688361284d565b612678565b9050919050565b60008160d01c9050919050565b600061289461288f83612874565b612678565b9050919050565b60008160e01c9050919050565b60006128bb6128b68361289b565b612678565b9050919050565b60008160f01c9050919050565b60006128e26128dd836128c2565b612678565b9050919050565b60006128f482612638565b6128fe8185612643565b93508361290a84612654565b6000600115612ab7575b83600160100382011015612ab65781546129368861293183612686565b612669565b60208801975061294e88612949836126ad565b612669565b60208801975061296688612961836126d4565b612669565b60208801975061297e88612979836126fb565b612669565b6020880197506129968861299183612722565b612669565b6020880197506129ae886129a983612749565b612669565b6020880197506129c6886129c183612770565b612669565b6020880197506129de886129d983612797565b612669565b6020880197506129f6886129f1836127be565b612669565b602088019750612a0e88612a09836127e5565b612669565b602088019750612a2688612a218361280c565b612669565b602088019750612a3e88612a3983612833565b612669565b602088019750612a5688612a518361285a565b612669565b602088019750612a6e88612a6983612881565b612669565b602088019750612a8688612a81836128a8565b612669565b602088019750612a9e88612a99836128cf565b612669565b60208801975060018301925050601081019050612914565b5b600115612d3257815484821015612ae757612ada88612ad583612686565b612669565b6020880197506001820191505b84821015612b0e57612b0188612afc836126ad565b612669565b6020880197506001820191505b84821015612b3557612b2888612b23836126d4565b612669565b6020880197506001820191505b84821015612b5c57612b4f88612b4a836126fb565b612669565b6020880197506001820191505b84821015612b8357612b7688612b7183612722565b612669565b6020880197506001820191505b84821015612baa57612b9d88612b9883612749565b612669565b6020880197506001820191505b84821015612bd157612bc488612bbf83612770565b612669565b6020880197506001820191505b84821015612bf857612beb88612be683612797565b612669565b6020880197506001820191505b84821015612c1f57612c1288612c0d836127be565b612669565b6020880197506001820191505b84821015612c4657612c3988612c34836127e5565b612669565b6020880197506001820191505b84821015612c6d57612c6088612c5b8361280c565b612669565b6020880197506001820191505b84821015612c9457612c8788612c8283612833565b612669565b6020880197506001820191505b84821015612cbb57612cae88612ca98361285a565b612669565b6020880197506001820191505b84821015612ce257612cd588612cd083612881565b612669565b6020880197506001820191505b84821015612d0957612cfc88612cf7836128a8565b612669565b6020880197506001820191505b84821015612d3057612d2388612d1e836128cf565b612669565b6020880197506001820191505b505b8694505050505092915050565b600060ff82169050919050565b6000612d5f612d5a836125af565b612d3f565b9050919050565b612d6f81611d6f565b82525050565b600060a083016000808401549050612d8c816125c6565b612d9960008701826125e0565b5060018401549050612daa8161260f565b612db76020870182612629565b5060028401549050612dc88161260f565b612dd56040870182612629565b50600384018583036060870152612dec83826128e9565b92505060048401549050612dff81612d4c565b612e0c6080870182612d66565b50819250505092915050565b60006040820190508181036000830152612e328185612d75565b9050612e4160208301846121c5565b9392505050565b6000608082019050612e5d6000830187611e16565b612e6a60208301866121c5565b612e776040830185611e97565b612e8460608301846121c5565b95945050505050565b6000819050919050565b612ea8612ea382611ac9565b612e8d565b82525050565b6000819050919050565b612ec9612ec482611aff565b612eae565b82525050565b6000612edb8285612e97565b602082019150612eeb8284612eb8565b602082019150819050939250505056fea26469706673582212206019ca054b7cc061d0bc0f38532d181c54a31fd6bce2f05b4a5de84262ecf37964736f6c634300080a0033",
  "immutableReferences": {},
  "source": "// SPDX-License-Identifier: MIT\n\npragma solidity ^0.8.0;\n\nimport \"@openzeppelin/contracts-upgradeable/proxy/utils/Initializable.sol\";\nimport \"./ControllableUpgradeable.sol\";\nimport \"./VRFConsumer.sol\";\nimport \"./IClaim.sol\";\nimport \"./IVenue.sol\";\n\ncontract Claim is Initializable, OwnableUpgradeable, IClaim, VRFConsumer, ControllableUpgradeable {\n  mapping(address => IVenue) venues; // Mapping from an address to a reference to the Venue\n  bytes32 internal keyHash;\n  uint256 internal fee;\n  mapping(bytes32 => VRFStruct) public vrfRequests; // Mapping from tokenId to a struct containing the token's traits\n\n  event RandomNumberRequested(\n    bytes32 requestId,\n    address sender\n  );\n\n  function initialize(\n    address _vrfCoordinator,\n    address _link,\n    bytes32 _keyHash,\n    uint256 _fee\n  ) external initializer {\n    __Ownable_init();\n\n    vrfCoordinator = _vrfCoordinator;\n    link = LinkTokenInterface(_link);\n    keyHash = _keyHash;\n    fee = _fee;\n  }\n\n  /**\n   * Set ChainLink VRF params\n   */\n  function setVrfParams(\n    address _vrfCoordinator,\n    address _link,\n    bytes32 _keyHash,\n    uint256 _fee\n  ) external onlyOwner {\n    vrfCoordinator = _vrfCoordinator;\n    link = LinkTokenInterface(_link);\n    keyHash = _keyHash;\n    fee = _fee;\n  }\n\n  function requestRandomNumber(address sender, uint16[] memory tokenIds, bool unstake) external onlyController returns (bytes32 requestId) {\n    require(link.balanceOf(address(this)) >= fee, \"Insufficient LINK\");\n    requestId = requestRandomness(keyHash, fee);\n    VRFStruct memory v = VRFStruct({ requestId: requestId, venue: _msgSender(), sender: sender, tokenIds: tokenIds, unstake: unstake });\n    vrfRequests[requestId] = v;\n    emit RandomNumberRequested(\n      requestId,\n      _msgSender()\n    );\n  }\n\n  function fulfillRandomness(bytes32 requestId, uint256 randomness) internal override {\n    VRFStruct memory v = vrfRequests[requestId];\n    require(v.requestId != 0, \"VRF request ID not found\");\n    venues[v.venue].fulfillClaimMany(vrfRequests[requestId], randomness);\n    delete vrfRequests[requestId];\n  }\n\n  /**\n   * Enables a venue address to fulfill claims\n   * @param _venue - The address to enable\n   */\n  function addVenue(address _venue) external onlyOwner {\n    venues[_venue] = IVenue(_venue);\n  }\n\n  /**\n   * Disables a venue address from fulfilling claims\n   * @param _venue the address to disable\n   */\n  function removeVenue(address _venue) external onlyOwner {\n    delete venues[_venue];\n  }\n}\n",
  "sourcePath": "/Users/chris/workspace/ratalert/ratalert-contracts/contracts/Claim.sol",
  "compiler": {
    "name": "solc",
    "version": "0.8.10+commit.fc410830.Emscripten.clang"
  },
  "schemaVersion": "3.4.5",
  "updatedAt": "2022-03-12T10:31:31.764Z",
  "networkType": "ethereum",
  "devdoc": {
    "kind": "dev",
    "methods": {
      "addController(address)": {
        "params": {
          "_controller": "- The address to enable"
        }
      },
      "addVenue(address)": {
        "params": {
          "_venue": "- The address to enable"
        }
      },
      "controller(address)": {
        "params": {
          "_controller": "- The address to check"
        }
      },
      "initialize(address,address)": {
        "params": {
          "_vrfCoordinator": "- Address of VRFCoordinator contract"
        }
      },
      "owner()": {
        "details": "Returns the address of the current owner."
      },
      "removeController(address)": {
        "params": {
          "_controller": "- The address to disable"
        }
      },
      "removeVenue(address)": {
        "params": {
          "_venue": "the address to disable"
        }
      },
      "renounceOwnership()": {
        "details": "Leaves the contract without owner. It will not be possible to call `onlyOwner` functions anymore. Can only be called by the current owner. NOTE: Renouncing ownership will leave the contract without an owner, thereby removing any functionality that is only available to the owner."
      },
      "transferOwnership(address)": {
        "details": "Transfers ownership of the contract to a new account (`newOwner`). Can only be called by the current owner."
      }
    },
    "version": 1
  },
  "userdoc": {
    "kind": "user",
    "methods": {
      "addController(address)": {
        "notice": "Enables an address to mint / burn"
      },
      "addVenue(address)": {
        "notice": "Enables a venue address to fulfill claims"
      },
      "controller(address)": {
        "notice": "Gets controller status by address"
      },
      "removeController(address)": {
        "notice": "Disables an address from minting / burning"
      },
      "removeVenue(address)": {
        "notice": "Disables a venue address from fulfilling claims"
      },
      "setVrfParams(address,address,bytes32,uint256)": {
        "notice": "Set ChainLink VRF params"
      }
    },
    "version": 1
  }
}