{
  "contractName": "Claim",
  "abi": [
    {
      "anonymous": false,
      "inputs": [
        {
          "indexed": true,
          "internalType": "address",
          "name": "previousOwner",
          "type": "address"
        },
        {
          "indexed": true,
          "internalType": "address",
          "name": "newOwner",
          "type": "address"
        }
      ],
      "name": "OwnershipTransferred",
      "type": "event"
    },
    {
      "anonymous": false,
      "inputs": [
        {
          "indexed": false,
          "internalType": "bytes32",
          "name": "requestId",
          "type": "bytes32"
        },
        {
          "indexed": false,
          "internalType": "address",
          "name": "sender",
          "type": "address"
        }
      ],
      "name": "RandomNumberFulfilled",
      "type": "event"
    },
    {
      "anonymous": false,
      "inputs": [
        {
          "indexed": false,
          "internalType": "bytes32",
          "name": "requestId",
          "type": "bytes32"
        },
        {
          "indexed": false,
          "internalType": "address",
          "name": "sender",
          "type": "address"
        }
      ],
      "name": "RandomNumberRequested",
      "type": "event"
    },
    {
      "inputs": [
        {
          "internalType": "address[]",
          "name": "_controllers",
          "type": "address[]"
        }
      ],
      "name": "addController",
      "outputs": [],
      "stateMutability": "nonpayable",
      "type": "function"
    },
    {
      "inputs": [
        {
          "internalType": "address",
          "name": "_controller",
          "type": "address"
        }
      ],
      "name": "controller",
      "outputs": [
        {
          "internalType": "bool",
          "name": "",
          "type": "bool"
        }
      ],
      "stateMutability": "view",
      "type": "function"
    },
    {
      "inputs": [],
      "name": "owner",
      "outputs": [
        {
          "internalType": "address",
          "name": "",
          "type": "address"
        }
      ],
      "stateMutability": "view",
      "type": "function"
    },
    {
      "inputs": [
        {
          "internalType": "bytes32",
          "name": "requestId",
          "type": "bytes32"
        },
        {
          "internalType": "uint256",
          "name": "randomness",
          "type": "uint256"
        }
      ],
      "name": "rawFulfillRandomness",
      "outputs": [],
      "stateMutability": "nonpayable",
      "type": "function"
    },
    {
      "inputs": [
        {
          "internalType": "address[]",
          "name": "_controllers",
          "type": "address[]"
        }
      ],
      "name": "removeController",
      "outputs": [],
      "stateMutability": "nonpayable",
      "type": "function"
    },
    {
      "inputs": [],
      "name": "renounceOwnership",
      "outputs": [],
      "stateMutability": "nonpayable",
      "type": "function"
    },
    {
      "inputs": [
        {
          "internalType": "address",
          "name": "newOwner",
          "type": "address"
        }
      ],
      "name": "transferOwnership",
      "outputs": [],
      "stateMutability": "nonpayable",
      "type": "function"
    },
    {
      "inputs": [
        {
          "internalType": "bytes32",
          "name": "",
          "type": "bytes32"
        }
      ],
      "name": "vrfRequests",
      "outputs": [
        {
          "internalType": "bytes32",
          "name": "requestId",
          "type": "bytes32"
        },
        {
          "internalType": "address",
          "name": "venue",
          "type": "address"
        },
        {
          "internalType": "address",
          "name": "sender",
          "type": "address"
        },
        {
          "internalType": "bool",
          "name": "unstake",
          "type": "bool"
        }
      ],
      "stateMutability": "view",
      "type": "function"
    },
    {
      "inputs": [
        {
          "internalType": "uint256",
          "name": "amount",
          "type": "uint256"
        }
      ],
      "name": "withdrawLink",
      "outputs": [
        {
          "internalType": "bool",
          "name": "success",
          "type": "bool"
        }
      ],
      "stateMutability": "nonpayable",
      "type": "function"
    },
    {
      "inputs": [
        {
          "internalType": "address",
          "name": "_vrfCoordinator",
          "type": "address"
        },
        {
          "internalType": "address",
          "name": "_link",
          "type": "address"
        },
        {
          "internalType": "bytes32",
          "name": "_keyHash",
          "type": "bytes32"
        },
        {
          "internalType": "uint256",
          "name": "_fee",
          "type": "uint256"
        }
      ],
      "name": "initialize",
      "outputs": [],
      "stateMutability": "nonpayable",
      "type": "function"
    },
    {
      "inputs": [
        {
          "internalType": "address",
          "name": "_vrfCoordinator",
          "type": "address"
        },
        {
          "internalType": "address",
          "name": "_link",
          "type": "address"
        }
      ],
      "name": "initialize",
      "outputs": [],
      "stateMutability": "nonpayable",
      "type": "function"
    },
    {
      "inputs": [
        {
          "internalType": "address",
          "name": "_vrfCoordinator",
          "type": "address"
        },
        {
          "internalType": "address",
          "name": "_link",
          "type": "address"
        },
        {
          "internalType": "bytes32",
          "name": "_keyHash",
          "type": "bytes32"
        },
        {
          "internalType": "uint256",
          "name": "_fee",
          "type": "uint256"
        }
      ],
      "name": "setVrfParams",
      "outputs": [],
      "stateMutability": "nonpayable",
      "type": "function"
    },
    {
      "inputs": [
        {
          "internalType": "address",
          "name": "sender",
          "type": "address"
        },
        {
          "internalType": "uint16[]",
          "name": "tokenIds",
          "type": "uint16[]"
        },
        {
          "internalType": "bool",
          "name": "unstake",
          "type": "bool"
        }
      ],
      "name": "requestRandomNumber",
      "outputs": [
        {
          "internalType": "bytes32",
          "name": "requestId",
          "type": "bytes32"
        }
      ],
      "stateMutability": "nonpayable",
      "type": "function"
    },
    {
      "inputs": [
        {
          "internalType": "address[]",
          "name": "_venues",
          "type": "address[]"
        }
      ],
      "name": "addVenue",
      "outputs": [],
      "stateMutability": "nonpayable",
      "type": "function"
    },
    {
      "inputs": [
        {
          "internalType": "address[]",
          "name": "_venues",
          "type": "address[]"
        }
      ],
      "name": "removeVenue",
      "outputs": [],
      "stateMutability": "nonpayable",
      "type": "function"
    }
  ],
  "bytecode": "0x608060405234801561001057600080fd5b506131ed806100206000396000f3fe608060405234801561001057600080fd5b50600436106100f55760003560e01c80638da5cb5b11610097578063a83a720211610066578063a83a720214610246578063c13aa7b514610262578063dec04e5f14610292578063f2fde38b146102c5576100f5565b80638da5cb5b146101d457806391c1bf23146101f257806392c405b61461020e57806394985ddd1461022a576100f5565b80635bdf263c116100d35780635bdf263c1461014e578063715018a61461017e5780637a8042bd1461018857806382006e4a146101b8576100f5565b8063277a2389146100fa5780633d6b06cc14610116578063485cc95514610132575b600080fd5b610114600480360381019061010f9190611c40565b6102e1565b005b610130600480360381019061012b9190611c40565b610461565b005b61014c60048036038101906101479190611ca7565b610573565b005b61016860048036038101906101639190611eb2565b6106db565b6040516101759190611f30565b60405180910390f35b6101866109e6565b005b6101a2600480360381019061019d9190611f4b565b610a6e565b6040516101af9190611f87565b60405180910390f35b6101d260048036038101906101cd9190612065565b610b9a565b005b6101dc610ceb565b6040516101e991906120bd565b60405180910390f35b61020c60048036038101906102079190612065565b610d15565b005b61022860048036038101906102239190612065565b610e30565b005b610244600480360381019061023f91906120d8565b610f41565b005b610260600480360381019061025b9190612065565b610fdf565b005b61027c60048036038101906102779190612118565b6110f0565b6040516102899190611f87565b60405180910390f35b6102ac60048036038101906102a79190612145565b6111c2565b6040516102bc9493929190612172565b60405180910390f35b6102df60048036038101906102da9190612118565b61123f565b005b600060019054906101000a900460ff166103095760008054906101000a900460ff1615610312565b610311611337565b5b610351576040517f08c379a00000000000000000000000000000000000000000000000000000000081526004016103489061223a565b60405180910390fd5b60008060019054906101000a900460ff1615905080156103a1576001600060016101000a81548160ff02191690831515021790555060016000806101000a81548160ff0219169083151502179055505b6103a9611348565b84606660006101000a81548173ffffffffffffffffffffffffffffffffffffffff021916908373ffffffffffffffffffffffffffffffffffffffff16021790555083606560006101000a81548173ffffffffffffffffffffffffffffffffffffffff021916908373ffffffffffffffffffffffffffffffffffffffff16021790555082606a8190555081606b81905550801561045a5760008060016101000a81548160ff0219169083151502179055505b5050505050565b6104696113a9565b73ffffffffffffffffffffffffffffffffffffffff16610487610ceb565b73ffffffffffffffffffffffffffffffffffffffff16146104dd576040517f08c379a00000000000000000000000000000000000000000000000000000000081526004016104d4906122a6565b60405180910390fd5b83606660006101000a81548173ffffffffffffffffffffffffffffffffffffffff021916908373ffffffffffffffffffffffffffffffffffffffff16021790555082606560006101000a81548173ffffffffffffffffffffffffffffffffffffffff021916908373ffffffffffffffffffffffffffffffffffffffff16021790555081606a8190555080606b8190555050505050565b600060019054906101000a900460ff1661059b5760008054906101000a900460ff16156105a4565b6105a3611337565b5b6105e3576040517f08c379a00000000000000000000000000000000000000000000000000000000081526004016105da9061223a565b60405180910390fd5b60008060019054906101000a900460ff161590508015610633576001600060016101000a81548160ff02191690831515021790555060016000806101000a81548160ff0219169083151502179055505b82606660006101000a81548173ffffffffffffffffffffffffffffffffffffffff021916908373ffffffffffffffffffffffffffffffffffffffff16021790555081606560006101000a81548173ffffffffffffffffffffffffffffffffffffffff021916908373ffffffffffffffffffffffffffffffffffffffff16021790555080156106d65760008060016101000a81548160ff0219169083151502179055505b505050565b6000606860003373ffffffffffffffffffffffffffffffffffffffff1673ffffffffffffffffffffffffffffffffffffffff16815260200190815260200160002060009054906101000a900460ff16610769576040517f08c379a000000000000000000000000000000000000000000000000000000000815260040161076090612312565b60405180910390fd5b606b54606560009054906101000a900473ffffffffffffffffffffffffffffffffffffffff1673ffffffffffffffffffffffffffffffffffffffff166370a08231306040518263ffffffff1660e01b81526004016107c791906120bd565b602060405180830381865afa1580156107e4573d6000803e3d6000fd5b505050506040513d601f19601f820116820180604052508101906108089190612347565b1015610849576040517f08c379a0000000000000000000000000000000000000000000000000000000008152600401610840906123c0565b60405180910390fd5b610857606a54606b546113b1565b905060006040518060a001604052808381526020016108746113a9565b73ffffffffffffffffffffffffffffffffffffffff1681526020018673ffffffffffffffffffffffffffffffffffffffff168152602001858152602001841515815250905080606c60008481526020019081526020016000206000820151816000015560208201518160010160006101000a81548173ffffffffffffffffffffffffffffffffffffffff021916908373ffffffffffffffffffffffffffffffffffffffff16021790555060408201518160020160006101000a81548173ffffffffffffffffffffffffffffffffffffffff021916908373ffffffffffffffffffffffffffffffffffffffff1602179055506060820151816003019080519060200190610981929190611a73565b5060808201518160040160006101000a81548160ff0219169083151502179055509050507fa604c1d75d1d5480c3a226f3b59c2be444c037ab3cbc22c688fa02ddcaedd13582866040516109d69291906123e0565b60405180910390a1509392505050565b6109ee6113a9565b73ffffffffffffffffffffffffffffffffffffffff16610a0c610ceb565b73ffffffffffffffffffffffffffffffffffffffff1614610a62576040517f08c379a0000000000000000000000000000000000000000000000000000000008152600401610a59906122a6565b60405180910390fd5b610a6c6000611508565b565b6000610a786113a9565b73ffffffffffffffffffffffffffffffffffffffff16610a96610ceb565b73ffffffffffffffffffffffffffffffffffffffff1614610aec576040517f08c379a0000000000000000000000000000000000000000000000000000000008152600401610ae3906122a6565b60405180910390fd5b606560009054906101000a900473ffffffffffffffffffffffffffffffffffffffff1673ffffffffffffffffffffffffffffffffffffffff1663a9059cbb610b326113a9565b846040518363ffffffff1660e01b8152600401610b50929190612418565b6020604051808303816000875af1158015610b6f573d6000803e3d6000fd5b505050506040513d601f19601f82011682018060405250810190610b939190612456565b9050919050565b610ba26113a9565b73ffffffffffffffffffffffffffffffffffffffff16610bc0610ceb565b73ffffffffffffffffffffffffffffffffffffffff1614610c16576040517f08c379a0000000000000000000000000000000000000000000000000000000008152600401610c0d906122a6565b60405180910390fd5b60005b8151811015610ce757818181518110610c3557610c34612483565b5b602002602001015160696000848481518110610c5457610c53612483565b5b602002602001015173ffffffffffffffffffffffffffffffffffffffff1673ffffffffffffffffffffffffffffffffffffffff16815260200190815260200160002060006101000a81548173ffffffffffffffffffffffffffffffffffffffff021916908373ffffffffffffffffffffffffffffffffffffffff1602179055508080610cdf906124e1565b915050610c19565b5050565b6000603360009054906101000a900473ffffffffffffffffffffffffffffffffffffffff16905090565b610d1d6113a9565b73ffffffffffffffffffffffffffffffffffffffff16610d3b610ceb565b73ffffffffffffffffffffffffffffffffffffffff1614610d91576040517f08c379a0000000000000000000000000000000000000000000000000000000008152600401610d88906122a6565b60405180910390fd5b60005b8151811015610e2c5760696000838381518110610db457610db3612483565b5b602002602001015173ffffffffffffffffffffffffffffffffffffffff1673ffffffffffffffffffffffffffffffffffffffff16815260200190815260200160002060006101000a81549073ffffffffffffffffffffffffffffffffffffffff02191690558080610e24906124e1565b915050610d94565b5050565b610e386113a9565b73ffffffffffffffffffffffffffffffffffffffff16610e56610ceb565b73ffffffffffffffffffffffffffffffffffffffff1614610eac576040517f08c379a0000000000000000000000000000000000000000000000000000000008152600401610ea3906122a6565b60405180910390fd5b60005b8151811015610f3d57600060686000848481518110610ed157610ed0612483565b5b602002602001015173ffffffffffffffffffffffffffffffffffffffff1673ffffffffffffffffffffffffffffffffffffffff16815260200190815260200160002060006101000a81548160ff0219169083151502179055508080610f35906124e1565b915050610eaf565b5050565b606660009054906101000a900473ffffffffffffffffffffffffffffffffffffffff1673ffffffffffffffffffffffffffffffffffffffff163373ffffffffffffffffffffffffffffffffffffffff1614610fd1576040517f08c379a0000000000000000000000000000000000000000000000000000000008152600401610fc890612576565b60405180910390fd5b610fdb82826115ce565b5050565b610fe76113a9565b73ffffffffffffffffffffffffffffffffffffffff16611005610ceb565b73ffffffffffffffffffffffffffffffffffffffff161461105b576040517f08c379a0000000000000000000000000000000000000000000000000000000008152600401611052906122a6565b60405180910390fd5b60005b81518110156110ec576001606860008484815181106110805761107f612483565b5b602002602001015173ffffffffffffffffffffffffffffffffffffffff1673ffffffffffffffffffffffffffffffffffffffff16815260200190815260200160002060006101000a81548160ff02191690831515021790555080806110e4906124e1565b91505061105e565b5050565b60006110fa6113a9565b73ffffffffffffffffffffffffffffffffffffffff16611118610ceb565b73ffffffffffffffffffffffffffffffffffffffff161461116e576040517f08c379a0000000000000000000000000000000000000000000000000000000008152600401611165906122a6565b60405180910390fd5b606860008373ffffffffffffffffffffffffffffffffffffffff1673ffffffffffffffffffffffffffffffffffffffff16815260200190815260200160002060009054906101000a900460ff169050919050565b606c6020528060005260406000206000915090508060000154908060010160009054906101000a900473ffffffffffffffffffffffffffffffffffffffff16908060020160009054906101000a900473ffffffffffffffffffffffffffffffffffffffff16908060040160009054906101000a900460ff16905084565b6112476113a9565b73ffffffffffffffffffffffffffffffffffffffff16611265610ceb565b73ffffffffffffffffffffffffffffffffffffffff16146112bb576040517f08c379a00000000000000000000000000000000000000000000000000000000081526004016112b2906122a6565b60405180910390fd5b600073ffffffffffffffffffffffffffffffffffffffff168173ffffffffffffffffffffffffffffffffffffffff16141561132b576040517f08c379a000000000000000000000000000000000000000000000000000000000815260040161132290612608565b60405180910390fd5b61133481611508565b50565b60006113423061193f565b15905090565b600060019054906101000a900460ff16611397576040517f08c379a000000000000000000000000000000000000000000000000000000000815260040161138e9061269a565b60405180910390fd5b61139f611952565b6113a76119a3565b565b600033905090565b6000606560009054906101000a900473ffffffffffffffffffffffffffffffffffffffff1673ffffffffffffffffffffffffffffffffffffffff16634000aea0606660009054906101000a900473ffffffffffffffffffffffffffffffffffffffff16848660006040516020016114299291906126ba565b6040516020818303038152906040526040518463ffffffff1660e01b81526004016114569392919061276b565b6020604051808303816000875af1158015611475573d6000803e3d6000fd5b505050506040513d601f19601f820116820180604052508101906114999190612456565b5060006114bc846000306067600089815260200190815260200160002054611a04565b9050600160676000868152602001908152602001600020546114de91906127a9565b60676000868152602001908152602001600020819055506114ff8482611a40565b91505092915050565b6000603360009054906101000a900473ffffffffffffffffffffffffffffffffffffffff16905081603360006101000a81548173ffffffffffffffffffffffffffffffffffffffff021916908373ffffffffffffffffffffffffffffffffffffffff1602179055508173ffffffffffffffffffffffffffffffffffffffff168173ffffffffffffffffffffffffffffffffffffffff167f8be0079c531659141344cd1fd0a4f28419497f9722a3daafe3b4186f6b6457e060405160405180910390a35050565b6000606c60008481526020019081526020016000206040518060a0016040529081600082015481526020016001820160009054906101000a900473ffffffffffffffffffffffffffffffffffffffff1673ffffffffffffffffffffffffffffffffffffffff1673ffffffffffffffffffffffffffffffffffffffff1681526020016002820160009054906101000a900473ffffffffffffffffffffffffffffffffffffffff1673ffffffffffffffffffffffffffffffffffffffff1673ffffffffffffffffffffffffffffffffffffffff1681526020016003820180548060200260200160405190810160405280929190818152602001828054801561171b57602002820191906000526020600020906000905b82829054906101000a900461ffff1661ffff16815260200190600201906020826001010492830192600103820291508084116116e25790505b505050505081526020016004820160009054906101000a900460ff16151515158152505090506000801b8160000151141561178b576040517f08c379a00000000000000000000000000000000000000000000000000000000081526004016117829061284b565b60405180910390fd5b60696000826020015173ffffffffffffffffffffffffffffffffffffffff1673ffffffffffffffffffffffffffffffffffffffff16815260200190815260200160002060009054906101000a900473ffffffffffffffffffffffffffffffffffffffff1673ffffffffffffffffffffffffffffffffffffffff1663922a1802606c6000868152602001908152602001600020846040518363ffffffff1660e01b815260040161183b9291906130d4565b600060405180830381600087803b15801561185557600080fd5b505af1158015611869573d6000803e3d6000fd5b50505050606c60008481526020019081526020016000206000808201600090556001820160006101000a81549073ffffffffffffffffffffffffffffffffffffffff02191690556002820160006101000a81549073ffffffffffffffffffffffffffffffffffffffff02191690556003820160006118e79190611b1d565b6004820160006101000a81549060ff021916905550507f697b04c8163be56dde69d35841ac4e03926065129a0340b2ef2199336f9039718382604001516040516119329291906123e0565b60405180910390a1505050565b600080823b905060008111915050919050565b600060019054906101000a900460ff166119a1576040517f08c379a00000000000000000000000000000000000000000000000000000000081526004016119989061269a565b60405180910390fd5b565b600060019054906101000a900460ff166119f2576040517f08c379a00000000000000000000000000000000000000000000000000000000081526004016119e99061269a565b60405180910390fd5b611a026119fd6113a9565b611508565b565b600084848484604051602001611a1d9493929190613104565b6040516020818303038152906040528051906020012060001c9050949350505050565b60008282604051602001611a5592919061318b565b60405160208183030381529060405280519060200120905092915050565b82805482825590600052602060002090600f01601090048101928215611b0c5791602002820160005b83821115611adc57835183826101000a81548161ffff021916908361ffff1602179055509260200192600201602081600101049283019260010302611a9c565b8015611b0a5782816101000a81549061ffff0219169055600201602081600101049283019260010302611adc565b505b509050611b199190611b45565b5090565b50805460008255600f016010900490600052602060002090810190611b429190611b45565b50565b5b80821115611b5e576000816000905550600101611b46565b5090565b6000604051905090565b600080fd5b600080fd5b600073ffffffffffffffffffffffffffffffffffffffff82169050919050565b6000611ba182611b76565b9050919050565b611bb181611b96565b8114611bbc57600080fd5b50565b600081359050611bce81611ba8565b92915050565b6000819050919050565b611be781611bd4565b8114611bf257600080fd5b50565b600081359050611c0481611bde565b92915050565b6000819050919050565b611c1d81611c0a565b8114611c2857600080fd5b50565b600081359050611c3a81611c14565b92915050565b60008060008060808587031215611c5a57611c59611b6c565b5b6000611c6887828801611bbf565b9450506020611c7987828801611bbf565b9350506040611c8a87828801611bf5565b9250506060611c9b87828801611c2b565b91505092959194509250565b60008060408385031215611cbe57611cbd611b6c565b5b6000611ccc85828601611bbf565b9250506020611cdd85828601611bbf565b9150509250929050565b600080fd5b6000601f19601f8301169050919050565b7f4e487b7100000000000000000000000000000000000000000000000000000000600052604160045260246000fd5b611d3582611cec565b810181811067ffffffffffffffff82111715611d5457611d53611cfd565b5b80604052505050565b6000611d67611b62565b9050611d738282611d2c565b919050565b600067ffffffffffffffff821115611d9357611d92611cfd565b5b602082029050602081019050919050565b600080fd5b600061ffff82169050919050565b611dc081611da9565b8114611dcb57600080fd5b50565b600081359050611ddd81611db7565b92915050565b6000611df6611df184611d78565b611d5d565b90508083825260208201905060208402830185811115611e1957611e18611da4565b5b835b81811015611e425780611e2e8882611dce565b845260208401935050602081019050611e1b565b5050509392505050565b600082601f830112611e6157611e60611ce7565b5b8135611e71848260208601611de3565b91505092915050565b60008115159050919050565b611e8f81611e7a565b8114611e9a57600080fd5b50565b600081359050611eac81611e86565b92915050565b600080600060608486031215611ecb57611eca611b6c565b5b6000611ed986828701611bbf565b935050602084013567ffffffffffffffff811115611efa57611ef9611b71565b5b611f0686828701611e4c565b9250506040611f1786828701611e9d565b9150509250925092565b611f2a81611bd4565b82525050565b6000602082019050611f456000830184611f21565b92915050565b600060208284031215611f6157611f60611b6c565b5b6000611f6f84828501611c2b565b91505092915050565b611f8181611e7a565b82525050565b6000602082019050611f9c6000830184611f78565b92915050565b600067ffffffffffffffff821115611fbd57611fbc611cfd565b5b602082029050602081019050919050565b6000611fe1611fdc84611fa2565b611d5d565b9050808382526020820190506020840283018581111561200457612003611da4565b5b835b8181101561202d57806120198882611bbf565b845260208401935050602081019050612006565b5050509392505050565b600082601f83011261204c5761204b611ce7565b5b813561205c848260208601611fce565b91505092915050565b60006020828403121561207b5761207a611b6c565b5b600082013567ffffffffffffffff81111561209957612098611b71565b5b6120a584828501612037565b91505092915050565b6120b781611b96565b82525050565b60006020820190506120d260008301846120ae565b92915050565b600080604083850312156120ef576120ee611b6c565b5b60006120fd85828601611bf5565b925050602061210e85828601611c2b565b9150509250929050565b60006020828403121561212e5761212d611b6c565b5b600061213c84828501611bbf565b91505092915050565b60006020828403121561215b5761215a611b6c565b5b600061216984828501611bf5565b91505092915050565b60006080820190506121876000830187611f21565b61219460208301866120ae565b6121a160408301856120ae565b6121ae6060830184611f78565b95945050505050565b600082825260208201905092915050565b7f496e697469616c697a61626c653a20636f6e747261637420697320616c72656160008201527f647920696e697469616c697a6564000000000000000000000000000000000000602082015250565b6000612224602e836121b7565b915061222f826121c8565b604082019050919050565b6000602082019050818103600083015261225381612217565b9050919050565b7f4f776e61626c653a2063616c6c6572206973206e6f7420746865206f776e6572600082015250565b60006122906020836121b7565b915061229b8261225a565b602082019050919050565b600060208201905081810360008301526122bf81612283565b9050919050565b7f4f6e6c7920636f6e74726f6c6c6572732063616e206578656375746500000000600082015250565b60006122fc601c836121b7565b9150612307826122c6565b602082019050919050565b6000602082019050818103600083015261232b816122ef565b9050919050565b60008151905061234181611c14565b92915050565b60006020828403121561235d5761235c611b6c565b5b600061236b84828501612332565b91505092915050565b7f496e73756666696369656e74204c494e4b000000000000000000000000000000600082015250565b60006123aa6011836121b7565b91506123b582612374565b602082019050919050565b600060208201905081810360008301526123d98161239d565b9050919050565b60006040820190506123f56000830185611f21565b61240260208301846120ae565b9392505050565b61241281611c0a565b82525050565b600060408201905061242d60008301856120ae565b61243a6020830184612409565b9392505050565b60008151905061245081611e86565b92915050565b60006020828403121561246c5761246b611b6c565b5b600061247a84828501612441565b91505092915050565b7f4e487b7100000000000000000000000000000000000000000000000000000000600052603260045260246000fd5b7f4e487b7100000000000000000000000000000000000000000000000000000000600052601160045260246000fd5b60006124ec82611c0a565b91507fffffffffffffffffffffffffffffffffffffffffffffffffffffffffffffffff82141561251f5761251e6124b2565b5b600182019050919050565b7f4f6e6c7920565246436f6f7264696e61746f722063616e2066756c66696c6c00600082015250565b6000612560601f836121b7565b915061256b8261252a565b602082019050919050565b6000602082019050818103600083015261258f81612553565b9050919050565b7f4f776e61626c653a206e6577206f776e657220697320746865207a65726f206160008201527f6464726573730000000000000000000000000000000000000000000000000000602082015250565b60006125f26026836121b7565b91506125fd82612596565b604082019050919050565b60006020820190508181036000830152612621816125e5565b9050919050565b7f496e697469616c697a61626c653a20636f6e7472616374206973206e6f74206960008201527f6e697469616c697a696e67000000000000000000000000000000000000000000602082015250565b6000612684602b836121b7565b915061268f82612628565b604082019050919050565b600060208201905081810360008301526126b381612677565b9050919050565b60006040820190506126cf6000830185611f21565b6126dc6020830184612409565b9392505050565b600081519050919050565b600082825260208201905092915050565b60005b8381101561271d578082015181840152602081019050612702565b8381111561272c576000848401525b50505050565b600061273d826126e3565b61274781856126ee565b93506127578185602086016126ff565b61276081611cec565b840191505092915050565b600060608201905061278060008301866120ae565b61278d6020830185612409565b818103604083015261279f8184612732565b9050949350505050565b60006127b482611c0a565b91506127bf83611c0a565b9250827fffffffffffffffffffffffffffffffffffffffffffffffffffffffffffffffff038211156127f4576127f36124b2565b5b828201905092915050565b7f5652462072657175657374204944206e6f7420666f756e640000000000000000600082015250565b60006128356018836121b7565b9150612840826127ff565b602082019050919050565b6000602082019050818103600083015261286481612828565b9050919050565b60008160001c9050919050565b6000819050919050565b60006128956128908361286b565b612878565b9050919050565b6128a581611bd4565b82525050565b600073ffffffffffffffffffffffffffffffffffffffff82169050919050565b60006128de6128d98361286b565b6128ab565b9050919050565b6128ee81611b96565b82525050565b600081549050919050565b600082825260208201905092915050565b60008190508160005260206000209050919050565b61292e81611da9565b82525050565b600061ffff82169050919050565b60006129556129508361286b565b612934565b9050919050565b60008160101c9050919050565b600061297c6129778361295c565b612934565b9050919050565b60008160201c9050919050565b60006129a361299e83612983565b612934565b9050919050565b60008160301c9050919050565b60006129ca6129c5836129aa565b612934565b9050919050565b60008160401c9050919050565b60006129f16129ec836129d1565b612934565b9050919050565b60008160501c9050919050565b6000612a18612a13836129f8565b612934565b9050919050565b60008160601c9050919050565b6000612a3f612a3a83612a1f565b612934565b9050919050565b60008160701c9050919050565b6000612a66612a6183612a46565b612934565b9050919050565b60008160801c9050919050565b6000612a8d612a8883612a6d565b612934565b9050919050565b60008160901c9050919050565b6000612ab4612aaf83612a94565b612934565b9050919050565b60008160a01c9050919050565b6000612adb612ad683612abb565b612934565b9050919050565b60008160b01c9050919050565b6000612b02612afd83612ae2565b612934565b9050919050565b60008160c01c9050919050565b6000612b29612b2483612b09565b612934565b9050919050565b60008160d01c9050919050565b6000612b50612b4b83612b30565b612934565b9050919050565b60008160e01c9050919050565b6000612b77612b7283612b57565b612934565b9050919050565b60008160f01c9050919050565b6000612b9e612b9983612b7e565b612934565b9050919050565b6000612bb0826128f4565b612bba81856128ff565b935083612bc684612910565b6000600115612d73575b83600160100382011015612d72578154612bf288612bed83612942565b612925565b602088019750612c0a88612c0583612969565b612925565b602088019750612c2288612c1d83612990565b612925565b602088019750612c3a88612c35836129b7565b612925565b602088019750612c5288612c4d836129de565b612925565b602088019750612c6a88612c6583612a05565b612925565b602088019750612c8288612c7d83612a2c565b612925565b602088019750612c9a88612c9583612a53565b612925565b602088019750612cb288612cad83612a7a565b612925565b602088019750612cca88612cc583612aa1565b612925565b602088019750612ce288612cdd83612ac8565b612925565b602088019750612cfa88612cf583612aef565b612925565b602088019750612d1288612d0d83612b16565b612925565b602088019750612d2a88612d2583612b3d565b612925565b602088019750612d4288612d3d83612b64565b612925565b602088019750612d5a88612d5583612b8b565b612925565b60208801975060018301925050601081019050612bd0565b5b600115612fee57815484821015612da357612d9688612d9183612942565b612925565b6020880197506001820191505b84821015612dca57612dbd88612db883612969565b612925565b6020880197506001820191505b84821015612df157612de488612ddf83612990565b612925565b6020880197506001820191505b84821015612e1857612e0b88612e06836129b7565b612925565b6020880197506001820191505b84821015612e3f57612e3288612e2d836129de565b612925565b6020880197506001820191505b84821015612e6657612e5988612e5483612a05565b612925565b6020880197506001820191505b84821015612e8d57612e8088612e7b83612a2c565b612925565b6020880197506001820191505b84821015612eb457612ea788612ea283612a53565b612925565b6020880197506001820191505b84821015612edb57612ece88612ec983612a7a565b612925565b6020880197506001820191505b84821015612f0257612ef588612ef083612aa1565b612925565b6020880197506001820191505b84821015612f2957612f1c88612f1783612ac8565b612925565b6020880197506001820191505b84821015612f5057612f4388612f3e83612aef565b612925565b6020880197506001820191505b84821015612f7757612f6a88612f6583612b16565b612925565b6020880197506001820191505b84821015612f9e57612f9188612f8c83612b3d565b612925565b6020880197506001820191505b84821015612fc557612fb888612fb383612b64565b612925565b6020880197506001820191505b84821015612fec57612fdf88612fda83612b8b565b612925565b6020880197506001820191505b505b8694505050505092915050565b600060ff82169050919050565b600061301b6130168361286b565b612ffb565b9050919050565b61302b81611e7a565b82525050565b600060a08301600080840154905061304881612882565b613055600087018261289c565b5060018401549050613066816128cb565b61307360208701826128e5565b5060028401549050613084816128cb565b61309160408701826128e5565b506003840185830360608701526130a88382612ba5565b925050600484015490506130bb81613008565b6130c86080870182613022565b50819250505092915050565b600060408201905081810360008301526130ee8185613031565b90506130fd6020830184612409565b9392505050565b60006080820190506131196000830187611f21565b6131266020830186612409565b61313360408301856120ae565b6131406060830184612409565b95945050505050565b6000819050919050565b61316461315f82611bd4565b613149565b82525050565b6000819050919050565b61318561318082611c0a565b61316a565b82525050565b60006131978285613153565b6020820191506131a78284613174565b602082019150819050939250505056fea26469706673582212204b8af6d75dc02b3d5a03a7975772cbde3ef4f3285c596a44cd1f4857f3ca6ffe64736f6c634300080a0033",
  "immutableReferences": {},
  "source": "// SPDX-License-Identifier: MIT\n\npragma solidity ^0.8.0;\n\nimport \"@openzeppelin/contracts-upgradeable/proxy/utils/Initializable.sol\";\nimport \"./ControllableUpgradeable.sol\";\nimport \"./VRFConsumer.sol\";\nimport \"./IClaim.sol\";\nimport \"./IVenue.sol\";\n\ncontract Claim is Initializable, OwnableUpgradeable, IClaim, VRFConsumer, ControllableUpgradeable {\n  mapping(address => IVenue) venues; // Mapping from an address to a reference to the Venue\n  bytes32 internal keyHash;\n  uint256 internal fee;\n  mapping(bytes32 => VRFStruct) public vrfRequests; // Mapping from tokenId to a struct containing the token's traits\n\n  event RandomNumberRequested(\n    bytes32 requestId,\n    address sender\n  );\n  event RandomNumberFulfilled(\n    bytes32 requestId,\n    address sender\n  );\n\n  function initialize(\n    address _vrfCoordinator,\n    address _link,\n    bytes32 _keyHash,\n    uint256 _fee\n  ) external initializer {\n    __Ownable_init();\n\n    vrfCoordinator = _vrfCoordinator;\n    link = LinkTokenInterface(_link);\n    keyHash = _keyHash;\n    fee = _fee;\n  }\n\n  /**\n   * Set ChainLink VRF params\n   * @param _vrfCoordinator - ChainLink's VRF coordinator contract address\n   * @param _link - ChinLink token contract address\n   * @param _keyHash - ChainLink env specific VRF key hash\n   * @param _fee - VRF env specific gas fee\n   */\n  function setVrfParams(address _vrfCoordinator, address _link, bytes32 _keyHash, uint256 _fee) external onlyOwner {\n    vrfCoordinator = _vrfCoordinator;\n    link = LinkTokenInterface(_link);\n    keyHash = _keyHash;\n    fee = _fee;\n  }\n\n  /**\n   * Requests a random number from ChainLink VRF and stores the request until it's fulfilled, called by Venue.claimMany().\n   * @param sender - User wallet address\n   * @param tokenIds - The ID of the Characters to claim\n   * @param unstake - Whether to unstake those Characters\n   * @return requestId - VRF request ID\n   */\n  function requestRandomNumber(address sender, uint16[] memory tokenIds, bool unstake) external onlyController returns (bytes32 requestId) {\n    require(link.balanceOf(address(this)) >= fee, \"Insufficient LINK\");\n    requestId = requestRandomness(keyHash, fee);\n    VRFStruct memory v = VRFStruct({ requestId: requestId, venue: _msgSender(), sender: sender, tokenIds: tokenIds, unstake: unstake });\n    vrfRequests[requestId] = v;\n    emit RandomNumberRequested(requestId, sender);\n  }\n\n  /**\n   * ChainLink VRF callback for requestRandomNumber()\n   * @param requestId - VRF request ID\n   * @param randomness - Random value created by VRF\n   */\n  function fulfillRandomness(bytes32 requestId, uint256 randomness) internal override {\n    VRFStruct memory v = vrfRequests[requestId];\n    require(v.requestId != 0, \"VRF request ID not found\");\n    venues[v.venue].fulfillClaimMany(vrfRequests[requestId], randomness);\n    delete vrfRequests[requestId];\n    emit RandomNumberFulfilled(requestId, v.sender);\n  }\n\n  /**\n   * Enables a venue address to fulfill claims\n   * @param _venues - The address to enable\n   */\n  function addVenue(address[] memory _venues) external onlyOwner {\n    for (uint i = 0; i < _venues.length; i++) {\n      venues[_venues[i]] = IVenue(_venues[i]);\n    }\n  }\n\n  /**\n   * Disables a venue address from fulfilling claims\n   * @param _venues the address to disable\n   */\n  function removeVenue(address[] memory _venues) external onlyOwner {\n    for (uint i = 0; i < _venues.length; i++) {\n      delete venues[_venues[i]];\n    }\n  }\n}\n",
  "sourcePath": "/Users/chris/workspace/ratalert/ratalert-contracts/contracts/Claim.sol",
  "compiler": {
    "name": "solc",
    "version": "0.8.10+commit.fc410830.Emscripten.clang"
  },
  "schemaVersion": "3.4.6",
  "updatedAt": "2022-03-30T12:21:32.862Z",
  "devdoc": {
    "kind": "dev",
    "methods": {
      "addController(address[])": {
        "params": {
          "_controllers": "- The addresses to enable"
        }
      },
      "addVenue(address[])": {
        "params": {
          "_venues": "- The address to enable"
        }
      },
      "controller(address)": {
        "params": {
          "_controller": "- The address to check"
        }
      },
      "initialize(address,address)": {
        "params": {
          "_vrfCoordinator": "- Address of VRFCoordinator contract"
        }
      },
      "owner()": {
        "details": "Returns the address of the current owner."
      },
      "rawFulfillRandomness(bytes32,uint256)": {
        "params": {
          "randomness": "- The VRF output",
          "requestId": "- Unique ID for this request"
        }
      },
      "removeController(address[])": {
        "params": {
          "_controllers": "- The addresses to disable"
        }
      },
      "removeVenue(address[])": {
        "params": {
          "_venues": "the address to disable"
        }
      },
      "renounceOwnership()": {
        "details": "Leaves the contract without owner. It will not be possible to call `onlyOwner` functions anymore. Can only be called by the current owner. NOTE: Renouncing ownership will leave the contract without an owner, thereby removing any functionality that is only available to the owner."
      },
      "requestRandomNumber(address,uint16[],bool)": {
        "params": {
          "sender": "- User wallet address",
          "tokenIds": "- The ID of the Characters to claim",
          "unstake": "- Whether to unstake those Characters"
        },
        "returns": {
          "requestId": "- VRF request ID"
        }
      },
      "setVrfParams(address,address,bytes32,uint256)": {
        "params": {
          "_fee": "- VRF env specific gas fee",
          "_keyHash": "- ChainLink env specific VRF key hash",
          "_link": "- ChinLink token contract address",
          "_vrfCoordinator": "- ChainLink's VRF coordinator contract address"
        }
      },
      "transferOwnership(address)": {
        "details": "Transfers ownership of the contract to a new account (`newOwner`). Can only be called by the current owner."
      },
      "withdrawLink(uint256)": {
        "params": {
          "amount": "- Amount of LINK to send"
        },
        "returns": {
          "success": "- Whether the transaction succeeded"
        }
      }
    },
    "version": 1
  },
  "userdoc": {
    "kind": "user",
    "methods": {
      "addController(address[])": {
        "notice": "Enables multiple addresses to execute"
      },
      "addVenue(address[])": {
        "notice": "Enables a venue address to fulfill claims"
      },
      "controller(address)": {
        "notice": "Gets controller status by address"
      },
      "rawFulfillRandomness(bytes32,uint256)": {
        "notice": "Callback function used by ChainLink"
      },
      "removeController(address[])": {
        "notice": "Prevents multiple addresses from executing"
      },
      "removeVenue(address[])": {
        "notice": "Disables a venue address from fulfilling claims"
      },
      "requestRandomNumber(address,uint16[],bool)": {
        "notice": "Requests a random number from ChainLink VRF and stores the request until it's fulfilled, called by Venue.claimMany()."
      },
      "setVrfParams(address,address,bytes32,uint256)": {
        "notice": "Set ChainLink VRF params"
      },
      "withdrawLink(uint256)": {
        "notice": "Sends the given LINK amount back to the owner"
      }
    },
    "version": 1
  }
}