{
  "contractName": "Config",
  "abi": [
    {
      "anonymous": false,
      "inputs": [
        {
          "indexed": true,
          "internalType": "address",
          "name": "previousOwner",
          "type": "address"
        },
        {
          "indexed": true,
          "internalType": "address",
          "name": "newOwner",
          "type": "address"
        }
      ],
      "name": "OwnershipTransferred",
      "type": "event"
    },
    {
      "inputs": [],
      "name": "owner",
      "outputs": [
        {
          "internalType": "address",
          "name": "",
          "type": "address"
        }
      ],
      "stateMutability": "view",
      "type": "function"
    },
    {
      "inputs": [],
      "name": "renounceOwnership",
      "outputs": [],
      "stateMutability": "nonpayable",
      "type": "function"
    },
    {
      "inputs": [
        {
          "internalType": "address",
          "name": "newOwner",
          "type": "address"
        }
      ],
      "name": "transferOwnership",
      "outputs": [],
      "stateMutability": "nonpayable",
      "type": "function"
    },
    {
      "inputs": [],
      "name": "initialize",
      "outputs": [],
      "stateMutability": "nonpayable",
      "type": "function"
    },
    {
      "inputs": [],
      "name": "get",
      "outputs": [
        {
          "internalType": "string",
          "name": "",
          "type": "string"
        }
      ],
      "stateMutability": "view",
      "type": "function"
    },
    {
      "inputs": [
        {
          "internalType": "string",
          "name": "_json",
          "type": "string"
        }
      ],
      "name": "set",
      "outputs": [],
      "stateMutability": "nonpayable",
      "type": "function"
    }
  ],
  "bytecode": "0x608060405234801561001057600080fd5b50610bed806100206000396000f3fe608060405234801561001057600080fd5b50600436106100625760003560e01c80634ed3885e146100675780636d4ce63c14610083578063715018a6146100a15780638129fc1c146100ab5780638da5cb5b146100b5578063f2fde38b146100d3575b600080fd5b610081600480360381019061007c9190610777565b6100ef565b005b61008b610181565b604051610098919061085d565b60405180910390f35b6100a9610213565b005b6100b361029b565b005b6100bd610387565b6040516100ca91906108c0565b60405180910390f35b6100ed60048036038101906100e89190610907565b6103b1565b005b6100f76104a9565b73ffffffffffffffffffffffffffffffffffffffff16610115610387565b73ffffffffffffffffffffffffffffffffffffffff161461016b576040517f08c379a000000000000000000000000000000000000000000000000000000000815260040161016290610980565b60405180910390fd5b81816065919061017c929190610665565b505050565b606060658054610190906109cf565b80601f01602080910402602001604051908101604052809291908181526020018280546101bc906109cf565b80156102095780601f106101de57610100808354040283529160200191610209565b820191906000526020600020905b8154815290600101906020018083116101ec57829003601f168201915b5050505050905090565b61021b6104a9565b73ffffffffffffffffffffffffffffffffffffffff16610239610387565b73ffffffffffffffffffffffffffffffffffffffff161461028f576040517f08c379a000000000000000000000000000000000000000000000000000000000815260040161028690610980565b60405180910390fd5b61029960006104b1565b565b600060019054906101000a900460ff166102c35760008054906101000a900460ff16156102cc565b6102cb610577565b5b61030b576040517f08c379a000000000000000000000000000000000000000000000000000000000815260040161030290610a73565b60405180910390fd5b60008060019054906101000a900460ff16159050801561035b576001600060016101000a81548160ff02191690831515021790555060016000806101000a81548160ff0219169083151502179055505b610363610588565b80156103845760008060016101000a81548160ff0219169083151502179055505b50565b6000603360009054906101000a900473ffffffffffffffffffffffffffffffffffffffff16905090565b6103b96104a9565b73ffffffffffffffffffffffffffffffffffffffff166103d7610387565b73ffffffffffffffffffffffffffffffffffffffff161461042d576040517f08c379a000000000000000000000000000000000000000000000000000000000815260040161042490610980565b60405180910390fd5b600073ffffffffffffffffffffffffffffffffffffffff168173ffffffffffffffffffffffffffffffffffffffff16141561049d576040517f08c379a000000000000000000000000000000000000000000000000000000000815260040161049490610b05565b60405180910390fd5b6104a6816104b1565b50565b600033905090565b6000603360009054906101000a900473ffffffffffffffffffffffffffffffffffffffff16905081603360006101000a81548173ffffffffffffffffffffffffffffffffffffffff021916908373ffffffffffffffffffffffffffffffffffffffff1602179055508173ffffffffffffffffffffffffffffffffffffffff168173ffffffffffffffffffffffffffffffffffffffff167f8be0079c531659141344cd1fd0a4f28419497f9722a3daafe3b4186f6b6457e060405160405180910390a35050565b6000610582306105e1565b15905090565b600060019054906101000a900460ff166105d7576040517f08c379a00000000000000000000000000000000000000000000000000000000081526004016105ce90610b97565b60405180910390fd5b6105df610604565b565b6000808273ffffffffffffffffffffffffffffffffffffffff163b119050919050565b600060019054906101000a900460ff16610653576040517f08c379a000000000000000000000000000000000000000000000000000000000815260040161064a90610b97565b60405180910390fd5b61066361065e6104a9565b6104b1565b565b828054610671906109cf565b90600052602060002090601f01602090048101928261069357600085556106da565b82601f106106ac57803560ff19168380011785556106da565b828001600101855582156106da579182015b828111156106d95782358255916020019190600101906106be565b5b5090506106e791906106eb565b5090565b5b808211156107045760008160009055506001016106ec565b5090565b600080fd5b600080fd5b600080fd5b600080fd5b600080fd5b60008083601f84011261073757610736610712565b5b8235905067ffffffffffffffff81111561075457610753610717565b5b6020830191508360018202830111156107705761076f61071c565b5b9250929050565b6000806020838503121561078e5761078d610708565b5b600083013567ffffffffffffffff8111156107ac576107ab61070d565b5b6107b885828601610721565b92509250509250929050565b600081519050919050565b600082825260208201905092915050565b60005b838110156107fe5780820151818401526020810190506107e3565b8381111561080d576000848401525b50505050565b6000601f19601f8301169050919050565b600061082f826107c4565b61083981856107cf565b93506108498185602086016107e0565b61085281610813565b840191505092915050565b600060208201905081810360008301526108778184610824565b905092915050565b600073ffffffffffffffffffffffffffffffffffffffff82169050919050565b60006108aa8261087f565b9050919050565b6108ba8161089f565b82525050565b60006020820190506108d560008301846108b1565b92915050565b6108e48161089f565b81146108ef57600080fd5b50565b600081359050610901816108db565b92915050565b60006020828403121561091d5761091c610708565b5b600061092b848285016108f2565b91505092915050565b7f4f776e61626c653a2063616c6c6572206973206e6f7420746865206f776e6572600082015250565b600061096a6020836107cf565b915061097582610934565b602082019050919050565b600060208201905081810360008301526109998161095d565b9050919050565b7f4e487b7100000000000000000000000000000000000000000000000000000000600052602260045260246000fd5b600060028204905060018216806109e757607f821691505b602082108114156109fb576109fa6109a0565b5b50919050565b7f496e697469616c697a61626c653a20636f6e747261637420697320616c72656160008201527f647920696e697469616c697a6564000000000000000000000000000000000000602082015250565b6000610a5d602e836107cf565b9150610a6882610a01565b604082019050919050565b60006020820190508181036000830152610a8c81610a50565b9050919050565b7f4f776e61626c653a206e6577206f776e657220697320746865207a65726f206160008201527f6464726573730000000000000000000000000000000000000000000000000000602082015250565b6000610aef6026836107cf565b9150610afa82610a93565b604082019050919050565b60006020820190508181036000830152610b1e81610ae2565b9050919050565b7f496e697469616c697a61626c653a20636f6e7472616374206973206e6f74206960008201527f6e697469616c697a696e67000000000000000000000000000000000000000000602082015250565b6000610b81602b836107cf565b9150610b8c82610b25565b604082019050919050565b60006020820190508181036000830152610bb081610b74565b905091905056fea26469706673582212209428b6043cdca906931c888ac5c69950555e47af477fb64e2e47b9bbe87de70364736f6c634300080a0033",
  "immutableReferences": {},
  "source": "// SPDX-License-Identifier: MIT\n\npragma solidity ^0.8.0;\n\nimport \"@openzeppelin/contracts-upgradeable/proxy/utils/Initializable.sol\";\nimport \"@openzeppelin/contracts-upgradeable/access/OwnableUpgradeable.sol\";\n\ncontract Config is Initializable, OwnableUpgradeable {\n  string json;\n\n  function initialize(\n  ) external initializer {\n    __Ownable_init();\n  }\n\n  function get() external view returns (string memory) {\n    return json;\n  }\n\n  function set(string calldata _json) external onlyOwner {\n    json = _json;\n  }\n}\n",
  "sourcePath": "/Users/chris/workspace/ratalert/ratalert-contracts/contracts/Config.sol",
  "compiler": {
    "name": "solc",
    "version": "0.8.10+commit.fc410830.Emscripten.clang"
  },
  "schemaVersion": "3.4.7",
  "updatedAt": "2022-06-28T19:37:35.541Z",
  "devdoc": {
    "kind": "dev",
    "methods": {
      "owner()": {
        "details": "Returns the address of the current owner."
      },
      "renounceOwnership()": {
        "details": "Leaves the contract without owner. It will not be possible to call `onlyOwner` functions anymore. Can only be called by the current owner. NOTE: Renouncing ownership will leave the contract without an owner, thereby removing any functionality that is only available to the owner."
      },
      "transferOwnership(address)": {
        "details": "Transfers ownership of the contract to a new account (`newOwner`). Can only be called by the current owner."
      }
    },
    "version": 1
  },
  "userdoc": {
    "kind": "user",
    "methods": {},
    "version": 1
  }
}