{
  "contractName": "DAOGourmetFood",
  "abi": [
    {
      "inputs": [
        {
          "internalType": "address",
          "name": "_dao",
          "type": "address"
        }
      ],
      "stateMutability": "nonpayable",
      "type": "constructor"
    },
    {
      "anonymous": false,
      "inputs": [
        {
          "indexed": true,
          "internalType": "address",
          "name": "owner",
          "type": "address"
        },
        {
          "indexed": true,
          "internalType": "address",
          "name": "spender",
          "type": "address"
        },
        {
          "indexed": false,
          "internalType": "uint256",
          "name": "value",
          "type": "uint256"
        }
      ],
      "name": "Approval",
      "type": "event"
    },
    {
      "anonymous": false,
      "inputs": [
        {
          "indexed": true,
          "internalType": "address",
          "name": "delegator",
          "type": "address"
        },
        {
          "indexed": true,
          "internalType": "address",
          "name": "fromDelegate",
          "type": "address"
        },
        {
          "indexed": true,
          "internalType": "address",
          "name": "toDelegate",
          "type": "address"
        }
      ],
      "name": "DelegateChanged",
      "type": "event"
    },
    {
      "anonymous": false,
      "inputs": [
        {
          "indexed": true,
          "internalType": "address",
          "name": "delegate",
          "type": "address"
        },
        {
          "indexed": false,
          "internalType": "uint256",
          "name": "previousBalance",
          "type": "uint256"
        },
        {
          "indexed": false,
          "internalType": "uint256",
          "name": "newBalance",
          "type": "uint256"
        }
      ],
      "name": "DelegateVotesChanged",
      "type": "event"
    },
    {
      "anonymous": false,
      "inputs": [
        {
          "indexed": true,
          "internalType": "address",
          "name": "previousOwner",
          "type": "address"
        },
        {
          "indexed": true,
          "internalType": "address",
          "name": "newOwner",
          "type": "address"
        }
      ],
      "name": "OwnershipTransferred",
      "type": "event"
    },
    {
      "anonymous": false,
      "inputs": [
        {
          "indexed": true,
          "internalType": "bytes32",
          "name": "role",
          "type": "bytes32"
        },
        {
          "indexed": true,
          "internalType": "bytes32",
          "name": "previousAdminRole",
          "type": "bytes32"
        },
        {
          "indexed": true,
          "internalType": "bytes32",
          "name": "newAdminRole",
          "type": "bytes32"
        }
      ],
      "name": "RoleAdminChanged",
      "type": "event"
    },
    {
      "anonymous": false,
      "inputs": [
        {
          "indexed": true,
          "internalType": "bytes32",
          "name": "role",
          "type": "bytes32"
        },
        {
          "indexed": true,
          "internalType": "address",
          "name": "account",
          "type": "address"
        },
        {
          "indexed": true,
          "internalType": "address",
          "name": "sender",
          "type": "address"
        }
      ],
      "name": "RoleGranted",
      "type": "event"
    },
    {
      "anonymous": false,
      "inputs": [
        {
          "indexed": true,
          "internalType": "bytes32",
          "name": "role",
          "type": "bytes32"
        },
        {
          "indexed": true,
          "internalType": "address",
          "name": "account",
          "type": "address"
        },
        {
          "indexed": true,
          "internalType": "address",
          "name": "sender",
          "type": "address"
        }
      ],
      "name": "RoleRevoked",
      "type": "event"
    },
    {
      "anonymous": false,
      "inputs": [
        {
          "indexed": true,
          "internalType": "address",
          "name": "from",
          "type": "address"
        },
        {
          "indexed": true,
          "internalType": "address",
          "name": "to",
          "type": "address"
        },
        {
          "indexed": false,
          "internalType": "uint256",
          "name": "value",
          "type": "uint256"
        }
      ],
      "name": "Transfer",
      "type": "event"
    },
    {
      "inputs": [],
      "name": "BURNER_ROLE",
      "outputs": [
        {
          "internalType": "bytes32",
          "name": "",
          "type": "bytes32"
        }
      ],
      "stateMutability": "view",
      "type": "function",
      "constant": true
    },
    {
      "inputs": [],
      "name": "DEFAULT_ADMIN_ROLE",
      "outputs": [
        {
          "internalType": "bytes32",
          "name": "",
          "type": "bytes32"
        }
      ],
      "stateMutability": "view",
      "type": "function",
      "constant": true
    },
    {
      "inputs": [],
      "name": "DOMAIN_SEPARATOR",
      "outputs": [
        {
          "internalType": "bytes32",
          "name": "",
          "type": "bytes32"
        }
      ],
      "stateMutability": "view",
      "type": "function",
      "constant": true
    },
    {
      "inputs": [],
      "name": "MINTER_ROLE",
      "outputs": [
        {
          "internalType": "bytes32",
          "name": "",
          "type": "bytes32"
        }
      ],
      "stateMutability": "view",
      "type": "function",
      "constant": true
    },
    {
      "inputs": [
        {
          "internalType": "address",
          "name": "owner",
          "type": "address"
        },
        {
          "internalType": "address",
          "name": "spender",
          "type": "address"
        }
      ],
      "name": "allowance",
      "outputs": [
        {
          "internalType": "uint256",
          "name": "",
          "type": "uint256"
        }
      ],
      "stateMutability": "view",
      "type": "function",
      "constant": true
    },
    {
      "inputs": [
        {
          "internalType": "address",
          "name": "spender",
          "type": "address"
        },
        {
          "internalType": "uint256",
          "name": "amount",
          "type": "uint256"
        }
      ],
      "name": "approve",
      "outputs": [
        {
          "internalType": "bool",
          "name": "",
          "type": "bool"
        }
      ],
      "stateMutability": "nonpayable",
      "type": "function"
    },
    {
      "inputs": [
        {
          "internalType": "address",
          "name": "account",
          "type": "address"
        }
      ],
      "name": "balanceOf",
      "outputs": [
        {
          "internalType": "uint256",
          "name": "",
          "type": "uint256"
        }
      ],
      "stateMutability": "view",
      "type": "function",
      "constant": true
    },
    {
      "inputs": [],
      "name": "cap",
      "outputs": [
        {
          "internalType": "uint256",
          "name": "",
          "type": "uint256"
        }
      ],
      "stateMutability": "view",
      "type": "function",
      "constant": true
    },
    {
      "inputs": [
        {
          "internalType": "address",
          "name": "account",
          "type": "address"
        },
        {
          "internalType": "uint32",
          "name": "pos",
          "type": "uint32"
        }
      ],
      "name": "checkpoints",
      "outputs": [
        {
          "components": [
            {
              "internalType": "uint32",
              "name": "fromBlock",
              "type": "uint32"
            },
            {
              "internalType": "uint224",
              "name": "votes",
              "type": "uint224"
            }
          ],
          "internalType": "struct ERC20Votes.Checkpoint",
          "name": "",
          "type": "tuple"
        }
      ],
      "stateMutability": "view",
      "type": "function",
      "constant": true
    },
    {
      "inputs": [],
      "name": "decimals",
      "outputs": [
        {
          "internalType": "uint8",
          "name": "",
          "type": "uint8"
        }
      ],
      "stateMutability": "view",
      "type": "function",
      "constant": true
    },
    {
      "inputs": [
        {
          "internalType": "address",
          "name": "spender",
          "type": "address"
        },
        {
          "internalType": "uint256",
          "name": "subtractedValue",
          "type": "uint256"
        }
      ],
      "name": "decreaseAllowance",
      "outputs": [
        {
          "internalType": "bool",
          "name": "",
          "type": "bool"
        }
      ],
      "stateMutability": "nonpayable",
      "type": "function"
    },
    {
      "inputs": [
        {
          "internalType": "address",
          "name": "delegatee",
          "type": "address"
        }
      ],
      "name": "delegate",
      "outputs": [],
      "stateMutability": "nonpayable",
      "type": "function"
    },
    {
      "inputs": [
        {
          "internalType": "address",
          "name": "delegatee",
          "type": "address"
        },
        {
          "internalType": "uint256",
          "name": "nonce",
          "type": "uint256"
        },
        {
          "internalType": "uint256",
          "name": "expiry",
          "type": "uint256"
        },
        {
          "internalType": "uint8",
          "name": "v",
          "type": "uint8"
        },
        {
          "internalType": "bytes32",
          "name": "r",
          "type": "bytes32"
        },
        {
          "internalType": "bytes32",
          "name": "s",
          "type": "bytes32"
        }
      ],
      "name": "delegateBySig",
      "outputs": [],
      "stateMutability": "nonpayable",
      "type": "function"
    },
    {
      "inputs": [
        {
          "internalType": "address",
          "name": "account",
          "type": "address"
        }
      ],
      "name": "delegates",
      "outputs": [
        {
          "internalType": "address",
          "name": "",
          "type": "address"
        }
      ],
      "stateMutability": "view",
      "type": "function",
      "constant": true
    },
    {
      "inputs": [
        {
          "internalType": "uint256",
          "name": "blockNumber",
          "type": "uint256"
        }
      ],
      "name": "getPastTotalSupply",
      "outputs": [
        {
          "internalType": "uint256",
          "name": "",
          "type": "uint256"
        }
      ],
      "stateMutability": "view",
      "type": "function",
      "constant": true
    },
    {
      "inputs": [
        {
          "internalType": "address",
          "name": "account",
          "type": "address"
        },
        {
          "internalType": "uint256",
          "name": "blockNumber",
          "type": "uint256"
        }
      ],
      "name": "getPastVotes",
      "outputs": [
        {
          "internalType": "uint256",
          "name": "",
          "type": "uint256"
        }
      ],
      "stateMutability": "view",
      "type": "function",
      "constant": true
    },
    {
      "inputs": [
        {
          "internalType": "bytes32",
          "name": "role",
          "type": "bytes32"
        }
      ],
      "name": "getRoleAdmin",
      "outputs": [
        {
          "internalType": "bytes32",
          "name": "",
          "type": "bytes32"
        }
      ],
      "stateMutability": "view",
      "type": "function",
      "constant": true
    },
    {
      "inputs": [
        {
          "internalType": "address",
          "name": "account",
          "type": "address"
        }
      ],
      "name": "getVotes",
      "outputs": [
        {
          "internalType": "uint256",
          "name": "",
          "type": "uint256"
        }
      ],
      "stateMutability": "view",
      "type": "function",
      "constant": true
    },
    {
      "inputs": [
        {
          "internalType": "bytes32",
          "name": "role",
          "type": "bytes32"
        },
        {
          "internalType": "address",
          "name": "account",
          "type": "address"
        }
      ],
      "name": "grantRole",
      "outputs": [],
      "stateMutability": "nonpayable",
      "type": "function"
    },
    {
      "inputs": [
        {
          "internalType": "bytes32",
          "name": "role",
          "type": "bytes32"
        },
        {
          "internalType": "address",
          "name": "account",
          "type": "address"
        }
      ],
      "name": "hasRole",
      "outputs": [
        {
          "internalType": "bool",
          "name": "",
          "type": "bool"
        }
      ],
      "stateMutability": "view",
      "type": "function",
      "constant": true
    },
    {
      "inputs": [
        {
          "internalType": "address",
          "name": "spender",
          "type": "address"
        },
        {
          "internalType": "uint256",
          "name": "addedValue",
          "type": "uint256"
        }
      ],
      "name": "increaseAllowance",
      "outputs": [
        {
          "internalType": "bool",
          "name": "",
          "type": "bool"
        }
      ],
      "stateMutability": "nonpayable",
      "type": "function"
    },
    {
      "inputs": [],
      "name": "name",
      "outputs": [
        {
          "internalType": "string",
          "name": "",
          "type": "string"
        }
      ],
      "stateMutability": "view",
      "type": "function",
      "constant": true
    },
    {
      "inputs": [
        {
          "internalType": "address",
          "name": "owner",
          "type": "address"
        }
      ],
      "name": "nonces",
      "outputs": [
        {
          "internalType": "uint256",
          "name": "",
          "type": "uint256"
        }
      ],
      "stateMutability": "view",
      "type": "function",
      "constant": true
    },
    {
      "inputs": [
        {
          "internalType": "address",
          "name": "account",
          "type": "address"
        }
      ],
      "name": "numCheckpoints",
      "outputs": [
        {
          "internalType": "uint32",
          "name": "",
          "type": "uint32"
        }
      ],
      "stateMutability": "view",
      "type": "function",
      "constant": true
    },
    {
      "inputs": [],
      "name": "owner",
      "outputs": [
        {
          "internalType": "address",
          "name": "",
          "type": "address"
        }
      ],
      "stateMutability": "view",
      "type": "function",
      "constant": true
    },
    {
      "inputs": [
        {
          "internalType": "address",
          "name": "owner",
          "type": "address"
        },
        {
          "internalType": "address",
          "name": "spender",
          "type": "address"
        },
        {
          "internalType": "uint256",
          "name": "value",
          "type": "uint256"
        },
        {
          "internalType": "uint256",
          "name": "deadline",
          "type": "uint256"
        },
        {
          "internalType": "uint8",
          "name": "v",
          "type": "uint8"
        },
        {
          "internalType": "bytes32",
          "name": "r",
          "type": "bytes32"
        },
        {
          "internalType": "bytes32",
          "name": "s",
          "type": "bytes32"
        }
      ],
      "name": "permit",
      "outputs": [],
      "stateMutability": "nonpayable",
      "type": "function"
    },
    {
      "inputs": [],
      "name": "renounceOwnership",
      "outputs": [],
      "stateMutability": "nonpayable",
      "type": "function"
    },
    {
      "inputs": [
        {
          "internalType": "bytes32",
          "name": "role",
          "type": "bytes32"
        },
        {
          "internalType": "address",
          "name": "account",
          "type": "address"
        }
      ],
      "name": "renounceRole",
      "outputs": [],
      "stateMutability": "nonpayable",
      "type": "function"
    },
    {
      "inputs": [
        {
          "internalType": "bytes32",
          "name": "role",
          "type": "bytes32"
        },
        {
          "internalType": "address",
          "name": "account",
          "type": "address"
        }
      ],
      "name": "revokeRole",
      "outputs": [],
      "stateMutability": "nonpayable",
      "type": "function"
    },
    {
      "inputs": [
        {
          "internalType": "bytes4",
          "name": "interfaceId",
          "type": "bytes4"
        }
      ],
      "name": "supportsInterface",
      "outputs": [
        {
          "internalType": "bool",
          "name": "",
          "type": "bool"
        }
      ],
      "stateMutability": "view",
      "type": "function",
      "constant": true
    },
    {
      "inputs": [],
      "name": "symbol",
      "outputs": [
        {
          "internalType": "string",
          "name": "",
          "type": "string"
        }
      ],
      "stateMutability": "view",
      "type": "function",
      "constant": true
    },
    {
      "inputs": [],
      "name": "totalSupply",
      "outputs": [
        {
          "internalType": "uint256",
          "name": "",
          "type": "uint256"
        }
      ],
      "stateMutability": "view",
      "type": "function",
      "constant": true
    },
    {
      "inputs": [
        {
          "internalType": "address",
          "name": "to",
          "type": "address"
        },
        {
          "internalType": "uint256",
          "name": "amount",
          "type": "uint256"
        }
      ],
      "name": "transfer",
      "outputs": [
        {
          "internalType": "bool",
          "name": "",
          "type": "bool"
        }
      ],
      "stateMutability": "nonpayable",
      "type": "function"
    },
    {
      "inputs": [
        {
          "internalType": "address",
          "name": "from",
          "type": "address"
        },
        {
          "internalType": "address",
          "name": "to",
          "type": "address"
        },
        {
          "internalType": "uint256",
          "name": "amount",
          "type": "uint256"
        }
      ],
      "name": "transferFrom",
      "outputs": [
        {
          "internalType": "bool",
          "name": "",
          "type": "bool"
        }
      ],
      "stateMutability": "nonpayable",
      "type": "function"
    },
    {
      "inputs": [
        {
          "internalType": "address",
          "name": "newOwner",
          "type": "address"
        }
      ],
      "name": "transferOwnership",
      "outputs": [],
      "stateMutability": "nonpayable",
      "type": "function"
    },
    {
      "inputs": [
        {
          "internalType": "address",
          "name": "to",
          "type": "address"
        },
        {
          "internalType": "uint256",
          "name": "amount",
          "type": "uint256"
        }
      ],
      "name": "mint",
      "outputs": [],
      "stateMutability": "nonpayable",
      "type": "function"
    },
    {
      "inputs": [
        {
          "internalType": "address",
          "name": "from",
          "type": "address"
        },
        {
          "internalType": "uint256",
          "name": "amount",
          "type": "uint256"
        }
      ],
      "name": "burn",
      "outputs": [],
      "stateMutability": "nonpayable",
      "type": "function"
    }
  ],
  "bytecode": "0x6101806040527f6e71edae12b1b97f4d1f60370fef10105fa2faae0126114a169c64845d6126c9610160908152503480156200003a57600080fd5b506040516200565138038062005651833981810160405281019062000060919062000663565b6040518060400160405280600b81526020017f476f75726d6574466f6f64000000000000000000000000000000000000000000815250806040518060400160405280600181526020017f310000000000000000000000000000000000000000000000000000000000000081525069d3c21bcecceda10000006040518060400160405280600b81526020017f476f75726d6574466f6f640000000000000000000000000000000000000000008152506040518060400160405280600581526020017f47464f4f4400000000000000000000000000000000000000000000000000000081525081600390805190602001906200015c92919062000549565b5080600490805190602001906200017592919062000549565b50505060008111620001be576040517f08c379a0000000000000000000000000000000000000000000000000000000008152600401620001b590620006f6565b60405180910390fd5b80608081815250505060008280519060200120905060008280519060200120905060007f8b73c3c69bb8fe3d512ecc4cf759cc79239f7b179b0ffacaa9a75d522b39400f90508261010081815250508161012081815250504660c0818152505062000231818484620002cc60201b60201c565b60a081815250503073ffffffffffffffffffffffffffffffffffffffff1660e08173ffffffffffffffffffffffffffffffffffffffff16815250508061014081815250505050505050506200029b6200028f6200030860201b60201c565b6200031060201b60201c565b620002b06000801b33620003d660201b60201c565b620002c56000801b82620003d660201b60201c565b5062000821565b60008383834630604051602001620002e99594939291906200075f565b6040516020818303038152906040528051906020012090509392505050565b600033905090565b6000600960009054906101000a900473ffffffffffffffffffffffffffffffffffffffff16905081600960006101000a81548173ffffffffffffffffffffffffffffffffffffffff021916908373ffffffffffffffffffffffffffffffffffffffff1602179055508173ffffffffffffffffffffffffffffffffffffffff168173ffffffffffffffffffffffffffffffffffffffff167f8be0079c531659141344cd1fd0a4f28419497f9722a3daafe3b4186f6b6457e060405160405180910390a35050565b620003e88282620003ec60201b60201c565b5050565b620003fe8282620004de60201b60201c565b620004da576001600a600084815260200190815260200160002060000160008373ffffffffffffffffffffffffffffffffffffffff1673ffffffffffffffffffffffffffffffffffffffff16815260200190815260200160002060006101000a81548160ff0219169083151502179055506200047f6200030860201b60201c565b73ffffffffffffffffffffffffffffffffffffffff168173ffffffffffffffffffffffffffffffffffffffff16837f2f8788117e7eff1d82e926ec794901d17c78024a50270940304540a733656f0d60405160405180910390a45b5050565b6000600a600084815260200190815260200160002060000160008373ffffffffffffffffffffffffffffffffffffffff1673ffffffffffffffffffffffffffffffffffffffff16815260200190815260200160002060009054906101000a900460ff16905092915050565b8280546200055790620007eb565b90600052602060002090601f0160209004810192826200057b5760008555620005c7565b82601f106200059657805160ff1916838001178555620005c7565b82800160010185558215620005c7579182015b82811115620005c6578251825591602001919060010190620005a9565b5b509050620005d69190620005da565b5090565b5b80821115620005f5576000816000905550600101620005db565b5090565b600080fd5b600073ffffffffffffffffffffffffffffffffffffffff82169050919050565b60006200062b82620005fe565b9050919050565b6200063d816200061e565b81146200064957600080fd5b50565b6000815190506200065d8162000632565b92915050565b6000602082840312156200067c576200067b620005f9565b5b60006200068c848285016200064c565b91505092915050565b600082825260208201905092915050565b7f45524332304361707065643a2063617020697320300000000000000000000000600082015250565b6000620006de60158362000695565b9150620006eb82620006a6565b602082019050919050565b600060208201905081810360008301526200071181620006cf565b9050919050565b6000819050919050565b6200072d8162000718565b82525050565b6000819050919050565b620007488162000733565b82525050565b62000759816200061e565b82525050565b600060a08201905062000776600083018862000722565b62000785602083018762000722565b62000794604083018662000722565b620007a360608301856200073d565b620007b260808301846200074e565b9695505050505050565b7f4e487b7100000000000000000000000000000000000000000000000000000000600052602260045260246000fd5b600060028204905060018216806200080457607f821691505b602082108114156200081b576200081a620007bc565b5b50919050565b60805160a05160c05160e05161010051610120516101405161016051614dca6200088760003960006112c401526000611e1101526000611e5301526000611e3201526000611d6701526000611dbd01526000611de6015260006109700152614dca6000f3fe608060405234801561001057600080fd5b50600436106102275760003560e01c806370a0823111610130578063a217fddf116100b8578063d53913931161007c578063d5391393146106d8578063d547741f146106f6578063dd62ed3e14610712578063f1127ed814610742578063f2fde38b1461077257610227565b8063a217fddf14610622578063a457c2d714610640578063a9059cbb14610670578063c3cda520146106a0578063d505accf146106bc57610227565b80638e539e8c116100ff5780638e539e8c1461055857806391d148541461058857806395d89b41146105b85780639ab24eb0146105d65780639dc29fac1461060657610227565b806370a08231146104d0578063715018a6146105005780637ecebe001461050a5780638da5cb5b1461053a57610227565b8063355274ea116101b35780633a46b1a8116101825780633a46b1a81461040857806340c10f1914610438578063587cde1e146104545780635c19a95c146104845780636fcfff45146104a057610227565b8063355274ea146103805780633644e5151461039e57806336568abe146103bc57806339509351146103d857610227565b806323b872dd116101fa57806323b872dd146102c8578063248a9ca3146102f8578063282c51f3146103285780632f2ff15d14610346578063313ce5671461036257610227565b806301ffc9a71461022c57806306fdde031461025c578063095ea7b31461027a57806318160ddd146102aa575b600080fd5b6102466004803603810190610241919061338a565b61078e565b60405161025391906133d2565b60405180910390f35b610264610808565b6040516102719190613486565b60405180910390f35b610294600480360381019061028f919061353c565b61089a565b6040516102a191906133d2565b60405180910390f35b6102b26108bd565b6040516102bf919061358b565b60405180910390f35b6102e260048036038101906102dd91906135a6565b6108c7565b6040516102ef91906133d2565b60405180910390f35b610312600480360381019061030d919061362f565b6108f6565b60405161031f919061366b565b60405180910390f35b610330610916565b60405161033d919061366b565b60405180910390f35b610360600480360381019061035b9190613686565b61093a565b005b61036a610963565b60405161037791906136e2565b60405180910390f35b61038861096c565b604051610395919061358b565b60405180910390f35b6103a6610994565b6040516103b3919061366b565b60405180910390f35b6103d660048036038101906103d19190613686565b6109a3565b005b6103f260048036038101906103ed919061353c565b610a26565b6040516103ff91906133d2565b60405180910390f35b610422600480360381019061041d919061353c565b610ad0565b60405161042f919061358b565b60405180910390f35b610452600480360381019061044d919061353c565b610b64565b005b61046e600480360381019061046991906136fd565b610ba5565b60405161047b9190613739565b60405180910390f35b61049e600480360381019061049991906136fd565b610c0e565b005b6104ba60048036038101906104b591906136fd565b610c22565b6040516104c79190613773565b60405180910390f35b6104ea60048036038101906104e591906136fd565b610c76565b6040516104f7919061358b565b60405180910390f35b610508610cbe565b005b610524600480360381019061051f91906136fd565b610d46565b604051610531919061358b565b60405180910390f35b610542610d96565b60405161054f9190613739565b60405180910390f35b610572600480360381019061056d919061378e565b610dc0565b60405161057f919061358b565b60405180910390f35b6105a2600480360381019061059d9190613686565b610e16565b6040516105af91906133d2565b60405180910390f35b6105c0610e81565b6040516105cd9190613486565b60405180910390f35b6105f060048036038101906105eb91906136fd565b610f13565b6040516105fd919061358b565b60405180910390f35b610620600480360381019061061b919061353c565b611024565b005b61062a611065565b604051610637919061366b565b60405180910390f35b61065a6004803603810190610655919061353c565b61106c565b60405161066791906133d2565b60405180910390f35b61068a6004803603810190610685919061353c565b611156565b60405161069791906133d2565b60405180910390f35b6106ba60048036038101906106b591906137e7565b611179565b005b6106d660048036038101906106d19190613874565b61127d565b005b6106e06113bf565b6040516106ed919061366b565b60405180910390f35b610710600480360381019061070b9190613686565b6113e3565b005b61072c60048036038101906107279190613916565b61140c565b604051610739919061358b565b60405180910390f35b61075c60048036038101906107579190613982565b611493565b6040516107699190613a37565b60405180910390f35b61078c600480360381019061078791906136fd565b6115a3565b005b60007f7965db0b000000000000000000000000000000000000000000000000000000007bffffffffffffffffffffffffffffffffffffffffffffffffffffffff1916827bffffffffffffffffffffffffffffffffffffffffffffffffffffffff1916148061080157506108008261169b565b5b9050919050565b60606003805461081790613a81565b80601f016020809104026020016040519081016040528092919081815260200182805461084390613a81565b80156108905780601f1061086557610100808354040283529160200191610890565b820191906000526020600020905b81548152906001019060200180831161087357829003601f168201915b5050505050905090565b6000806108a5611705565b90506108b281858561170d565b600191505092915050565b6000600254905090565b6000806108d2611705565b90506108df8582856118d8565b6108ea858585611964565b60019150509392505050565b6000600a6000838152602001908152602001600020600101549050919050565b7f3c11d16cbaffd01df69ce1c404f6340ee057498f5f00246190ea54220576a84881565b610943826108f6565b6109548161094f611705565b611be5565b61095e8383611c82565b505050565b60006012905090565b60007f0000000000000000000000000000000000000000000000000000000000000000905090565b600061099e611d63565b905090565b6109ab611705565b73ffffffffffffffffffffffffffffffffffffffff168173ffffffffffffffffffffffffffffffffffffffff1614610a18576040517f08c379a0000000000000000000000000000000000000000000000000000000008152600401610a0f90613b25565b60405180910390fd5b610a228282611e7d565b5050565b600080610a31611705565b9050610ac5818585600160008673ffffffffffffffffffffffffffffffffffffffff1673ffffffffffffffffffffffffffffffffffffffff16815260200190815260200160002060008973ffffffffffffffffffffffffffffffffffffffff1673ffffffffffffffffffffffffffffffffffffffff16815260200190815260200160002054610ac09190613b74565b61170d565b600191505092915050565b6000438210610b14576040517f08c379a0000000000000000000000000000000000000000000000000000000008152600401610b0b90613c16565b60405180910390fd5b610b5c600760008573ffffffffffffffffffffffffffffffffffffffff1673ffffffffffffffffffffffffffffffffffffffff16815260200190815260200160002083611f5f565b905092915050565b7f9f2df0fed2c77648de5860a4cc508cd0818c85b8b8a1ab4ceeef8d981c8956a6610b9681610b91611705565b611be5565b610ba0838361206b565b505050565b6000600660008373ffffffffffffffffffffffffffffffffffffffff1673ffffffffffffffffffffffffffffffffffffffff16815260200190815260200160002060009054906101000a900473ffffffffffffffffffffffffffffffffffffffff169050919050565b610c1f610c19611705565b82612079565b50565b6000610c6f600760008473ffffffffffffffffffffffffffffffffffffffff1673ffffffffffffffffffffffffffffffffffffffff16815260200190815260200160002080549050612193565b9050919050565b60008060008373ffffffffffffffffffffffffffffffffffffffff1673ffffffffffffffffffffffffffffffffffffffff168152602001908152602001600020549050919050565b610cc6611705565b73ffffffffffffffffffffffffffffffffffffffff16610ce4610d96565b73ffffffffffffffffffffffffffffffffffffffff1614610d3a576040517f08c379a0000000000000000000000000000000000000000000000000000000008152600401610d3190613c82565b60405180910390fd5b610d4460006121e6565b565b6000610d8f600560008473ffffffffffffffffffffffffffffffffffffffff1673ffffffffffffffffffffffffffffffffffffffff1681526020019081526020016000206122ac565b9050919050565b6000600960009054906101000a900473ffffffffffffffffffffffffffffffffffffffff16905090565b6000438210610e04576040517f08c379a0000000000000000000000000000000000000000000000000000000008152600401610dfb90613c16565b60405180910390fd5b610e0f600883611f5f565b9050919050565b6000600a600084815260200190815260200160002060000160008373ffffffffffffffffffffffffffffffffffffffff1673ffffffffffffffffffffffffffffffffffffffff16815260200190815260200160002060009054906101000a900460ff16905092915050565b606060048054610e9090613a81565b80601f0160208091040260200160405190810160405280929190818152602001828054610ebc90613a81565b8015610f095780601f10610ede57610100808354040283529160200191610f09565b820191906000526020600020905b815481529060010190602001808311610eec57829003601f168201915b5050505050905090565b600080600760008473ffffffffffffffffffffffffffffffffffffffff1673ffffffffffffffffffffffffffffffffffffffff16815260200190815260200160002080549050905060008114610ffb57600760008473ffffffffffffffffffffffffffffffffffffffff1673ffffffffffffffffffffffffffffffffffffffff168152602001908152602001600020600182610faf9190613ca2565b81548110610fc057610fbf613cd6565b5b9060005260206000200160000160049054906101000a90047bffffffffffffffffffffffffffffffffffffffffffffffffffffffff16610ffe565b60005b7bffffffffffffffffffffffffffffffffffffffffffffffffffffffff16915050919050565b7f3c11d16cbaffd01df69ce1c404f6340ee057498f5f00246190ea54220576a84861105681611051611705565b611be5565b61106083836122ba565b505050565b6000801b81565b600080611077611705565b90506000600160008373ffffffffffffffffffffffffffffffffffffffff1673ffffffffffffffffffffffffffffffffffffffff16815260200190815260200160002060008673ffffffffffffffffffffffffffffffffffffffff1673ffffffffffffffffffffffffffffffffffffffff1681526020019081526020016000205490508381101561113d576040517f08c379a000000000000000000000000000000000000000000000000000000000815260040161113490613d77565b60405180910390fd5b61114a828686840361170d565b60019250505092915050565b600080611161611705565b905061116e818585611964565b600191505092915050565b834211156111bc576040517f08c379a00000000000000000000000000000000000000000000000000000000081526004016111b390613de3565b60405180910390fd5b600061121e6112167fe48329057bfd03d55e49b547132e39cffd9c1820ad7b9d4c5307691425d15adf8989896040516020016111fb9493929190613e03565b604051602081830303815290604052805190602001206122c8565b8585856122e2565b90506112298161230d565b861461126a576040517f08c379a000000000000000000000000000000000000000000000000000000000815260040161126190613e94565b60405180910390fd5b6112748188612079565b50505050505050565b834211156112c0576040517f08c379a00000000000000000000000000000000000000000000000000000000081526004016112b790613f00565b60405180910390fd5b60007f00000000000000000000000000000000000000000000000000000000000000008888886112ef8c61230d565b8960405160200161130596959493929190613f20565b6040516020818303038152906040528051906020012090506000611328826122c8565b90506000611338828787876122e2565b90508973ffffffffffffffffffffffffffffffffffffffff168173ffffffffffffffffffffffffffffffffffffffff16146113a8576040517f08c379a000000000000000000000000000000000000000000000000000000000815260040161139f90613fcd565b60405180910390fd5b6113b38a8a8a61170d565b50505050505050505050565b7f9f2df0fed2c77648de5860a4cc508cd0818c85b8b8a1ab4ceeef8d981c8956a681565b6113ec826108f6565b6113fd816113f8611705565b611be5565b6114078383611e7d565b505050565b6000600160008473ffffffffffffffffffffffffffffffffffffffff1673ffffffffffffffffffffffffffffffffffffffff16815260200190815260200160002060008373ffffffffffffffffffffffffffffffffffffffff1673ffffffffffffffffffffffffffffffffffffffff16815260200190815260200160002054905092915050565b61149b6132ef565b600760008473ffffffffffffffffffffffffffffffffffffffff1673ffffffffffffffffffffffffffffffffffffffff1681526020019081526020016000208263ffffffff16815481106114f2576114f1613cd6565b5b906000526020600020016040518060400160405290816000820160009054906101000a900463ffffffff1663ffffffff1663ffffffff1681526020016000820160049054906101000a90047bffffffffffffffffffffffffffffffffffffffffffffffffffffffff167bffffffffffffffffffffffffffffffffffffffffffffffffffffffff167bffffffffffffffffffffffffffffffffffffffffffffffffffffffff1681525050905092915050565b6115ab611705565b73ffffffffffffffffffffffffffffffffffffffff166115c9610d96565b73ffffffffffffffffffffffffffffffffffffffff161461161f576040517f08c379a000000000000000000000000000000000000000000000000000000000815260040161161690613c82565b60405180910390fd5b600073ffffffffffffffffffffffffffffffffffffffff168173ffffffffffffffffffffffffffffffffffffffff16141561168f576040517f08c379a00000000000000000000000000000000000000000000000000000000081526004016116869061405f565b60405180910390fd5b611698816121e6565b50565b60007f01ffc9a7000000000000000000000000000000000000000000000000000000007bffffffffffffffffffffffffffffffffffffffffffffffffffffffff1916827bffffffffffffffffffffffffffffffffffffffffffffffffffffffff1916149050919050565b600033905090565b600073ffffffffffffffffffffffffffffffffffffffff168373ffffffffffffffffffffffffffffffffffffffff16141561177d576040517f08c379a0000000000000000000000000000000000000000000000000000000008152600401611774906140f1565b60405180910390fd5b600073ffffffffffffffffffffffffffffffffffffffff168273ffffffffffffffffffffffffffffffffffffffff1614156117ed576040517f08c379a00000000000000000000000000000000000000000000000000000000081526004016117e490614183565b60405180910390fd5b80600160008573ffffffffffffffffffffffffffffffffffffffff1673ffffffffffffffffffffffffffffffffffffffff16815260200190815260200160002060008473ffffffffffffffffffffffffffffffffffffffff1673ffffffffffffffffffffffffffffffffffffffff168152602001908152602001600020819055508173ffffffffffffffffffffffffffffffffffffffff168373ffffffffffffffffffffffffffffffffffffffff167f8c5be1e5ebec7d5bd14f71427d1e84f3dd0314c0f7b2291e5b200ac8c7c3b925836040516118cb919061358b565b60405180910390a3505050565b60006118e4848461140c565b90507fffffffffffffffffffffffffffffffffffffffffffffffffffffffffffffffff811461195e5781811015611950576040517f08c379a0000000000000000000000000000000000000000000000000000000008152600401611947906141ef565b60405180910390fd5b61195d848484840361170d565b5b50505050565b600073ffffffffffffffffffffffffffffffffffffffff168373ffffffffffffffffffffffffffffffffffffffff1614156119d4576040517f08c379a00000000000000000000000000000000000000000000000000000000081526004016119cb90614281565b60405180910390fd5b600073ffffffffffffffffffffffffffffffffffffffff168273ffffffffffffffffffffffffffffffffffffffff161415611a44576040517f08c379a0000000000000000000000000000000000000000000000000000000008152600401611a3b90614313565b60405180910390fd5b611a4f83838361236b565b60008060008573ffffffffffffffffffffffffffffffffffffffff1673ffffffffffffffffffffffffffffffffffffffff16815260200190815260200160002054905081811015611ad5576040517f08c379a0000000000000000000000000000000000000000000000000000000008152600401611acc906143a5565b60405180910390fd5b8181036000808673ffffffffffffffffffffffffffffffffffffffff1673ffffffffffffffffffffffffffffffffffffffff16815260200190815260200160002081905550816000808573ffffffffffffffffffffffffffffffffffffffff1673ffffffffffffffffffffffffffffffffffffffff1681526020019081526020016000206000828254611b689190613b74565b925050819055508273ffffffffffffffffffffffffffffffffffffffff168473ffffffffffffffffffffffffffffffffffffffff167fddf252ad1be2c89b69c2b068fc378daa952ba7f163c4a11628f55a4df523b3ef84604051611bcc919061358b565b60405180910390a3611bdf848484612370565b50505050565b611bef8282610e16565b611c7e57611c148173ffffffffffffffffffffffffffffffffffffffff166014612380565b611c228360001c6020612380565b604051602001611c33929190614499565b6040516020818303038152906040526040517f08c379a0000000000000000000000000000000000000000000000000000000008152600401611c759190613486565b60405180910390fd5b5050565b611c8c8282610e16565b611d5f576001600a600084815260200190815260200160002060000160008373ffffffffffffffffffffffffffffffffffffffff1673ffffffffffffffffffffffffffffffffffffffff16815260200190815260200160002060006101000a81548160ff021916908315150217905550611d04611705565b73ffffffffffffffffffffffffffffffffffffffff168173ffffffffffffffffffffffffffffffffffffffff16837f2f8788117e7eff1d82e926ec794901d17c78024a50270940304540a733656f0d60405160405180910390a45b5050565b60007f000000000000000000000000000000000000000000000000000000000000000073ffffffffffffffffffffffffffffffffffffffff163073ffffffffffffffffffffffffffffffffffffffff16148015611ddf57507f000000000000000000000000000000000000000000000000000000000000000046145b15611e0c577f00000000000000000000000000000000000000000000000000000000000000009050611e7a565b611e777f00000000000000000000000000000000000000000000000000000000000000007f00000000000000000000000000000000000000000000000000000000000000007f00000000000000000000000000000000000000000000000000000000000000006125bc565b90505b90565b611e878282610e16565b15611f5b576000600a600084815260200190815260200160002060000160008373ffffffffffffffffffffffffffffffffffffffff1673ffffffffffffffffffffffffffffffffffffffff16815260200190815260200160002060006101000a81548160ff021916908315150217905550611f00611705565b73ffffffffffffffffffffffffffffffffffffffff168173ffffffffffffffffffffffffffffffffffffffff16837ff6391f5c32d9c69d2a47ea670b442974b53935d1edc7fd64eb21e047a839171b60405160405180910390a45b5050565b6000808380549050905060005b81811015611fde576000611f8082846125f6565b905084868281548110611f9657611f95613cd6565b5b9060005260206000200160000160009054906101000a900463ffffffff1663ffffffff161115611fc857809250611fd8565b600181611fd59190613b74565b91505b50611f6c565b600082146120405784600183611ff49190613ca2565b8154811061200557612004613cd6565b5b9060005260206000200160000160049054906101000a90047bffffffffffffffffffffffffffffffffffffffffffffffffffffffff16612043565b60005b7bffffffffffffffffffffffffffffffffffffffffffffffffffffffff169250505092915050565b612075828261261c565b5050565b600061208483610ba5565b9050600061209184610c76565b905082600660008673ffffffffffffffffffffffffffffffffffffffff1673ffffffffffffffffffffffffffffffffffffffff16815260200190815260200160002060006101000a81548173ffffffffffffffffffffffffffffffffffffffff021916908373ffffffffffffffffffffffffffffffffffffffff1602179055508273ffffffffffffffffffffffffffffffffffffffff168273ffffffffffffffffffffffffffffffffffffffff168573ffffffffffffffffffffffffffffffffffffffff167f3134e8a2e6d97e929a7e54011ea5485d7d196dd5f0ba4d4ef95803e8e3fc257f60405160405180910390a461218d8284836126a9565b50505050565b600063ffffffff80168211156121de576040517f08c379a00000000000000000000000000000000000000000000000000000000081526004016121d590614545565b60405180910390fd5b819050919050565b6000600960009054906101000a900473ffffffffffffffffffffffffffffffffffffffff16905081600960006101000a81548173ffffffffffffffffffffffffffffffffffffffff021916908373ffffffffffffffffffffffffffffffffffffffff1602179055508173ffffffffffffffffffffffffffffffffffffffff168173ffffffffffffffffffffffffffffffffffffffff167f8be0079c531659141344cd1fd0a4f28419497f9722a3daafe3b4186f6b6457e060405160405180910390a35050565b600081600001549050919050565b6122c482826128a2565b5050565b60006122db6122d5611d63565b836128c0565b9050919050565b60008060006122f3878787876128f3565b9150915061230081612a00565b8192505050949350505050565b600080600560008473ffffffffffffffffffffffffffffffffffffffff1673ffffffffffffffffffffffffffffffffffffffff168152602001908152602001600020905061235a816122ac565b915061236581612bd5565b50919050565b505050565b61237b838383612beb565b505050565b6060600060028360026123939190614565565b61239d9190613b74565b67ffffffffffffffff8111156123b6576123b56145bf565b5b6040519080825280601f01601f1916602001820160405280156123e85781602001600182028036833780820191505090505b5090507f3000000000000000000000000000000000000000000000000000000000000000816000815181106124205761241f613cd6565b5b60200101907effffffffffffffffffffffffffffffffffffffffffffffffffffffffffffff1916908160001a9053507f78000000000000000000000000000000000000000000000000000000000000008160018151811061248457612483613cd6565b5b60200101907effffffffffffffffffffffffffffffffffffffffffffffffffffffffffffff1916908160001a905350600060018460026124c49190614565565b6124ce9190613b74565b90505b600181111561256e577f3031323334353637383961626364656600000000000000000000000000000000600f8616601081106125105761250f613cd6565b5b1a60f81b82828151811061252757612526613cd6565b5b60200101907effffffffffffffffffffffffffffffffffffffffffffffffffffffffffffff1916908160001a905350600485901c945080612567906145ee565b90506124d1565b50600084146125b2576040517f08c379a00000000000000000000000000000000000000000000000000000000081526004016125a990614664565b60405180910390fd5b8091505092915050565b600083838346306040516020016125d7959493929190614684565b6040516020818303038152906040528051906020012090509392505050565b600060028284186126079190614706565b8284166126149190613b74565b905092915050565b6126268282612c16565b61262e612c80565b7bffffffffffffffffffffffffffffffffffffffffffffffffffffffff166126546108bd565b1115612695576040517f08c379a000000000000000000000000000000000000000000000000000000000815260040161268c906147a9565b60405180910390fd5b6126a36008612ca483612cba565b50505050565b8173ffffffffffffffffffffffffffffffffffffffff168373ffffffffffffffffffffffffffffffffffffffff16141580156126e55750600081115b1561289d57600073ffffffffffffffffffffffffffffffffffffffff168373ffffffffffffffffffffffffffffffffffffffff16146127c35760008061276c600760008773ffffffffffffffffffffffffffffffffffffffff1673ffffffffffffffffffffffffffffffffffffffff168152602001908152602001600020612f3285612cba565b915091508473ffffffffffffffffffffffffffffffffffffffff167fdec2bacdd2f05b59de34da9b523dff8be42e5e38e818c82fdb0bae774387a72483836040516127b89291906147c9565b60405180910390a250505b600073ffffffffffffffffffffffffffffffffffffffff168273ffffffffffffffffffffffffffffffffffffffff161461289c57600080612845600760008673ffffffffffffffffffffffffffffffffffffffff1673ffffffffffffffffffffffffffffffffffffffff168152602001908152602001600020612ca485612cba565b915091508373ffffffffffffffffffffffffffffffffffffffff167fdec2bacdd2f05b59de34da9b523dff8be42e5e38e818c82fdb0bae774387a72483836040516128919291906147c9565b60405180910390a250505b5b505050565b6128ac8282612f48565b6128ba6008612f3283612cba565b50505050565b600082826040516020016128d592919061485f565b60405160208183030381529060405280519060200120905092915050565b6000807f7fffffffffffffffffffffffffffffff5d576e7357a4501ddfe92f46681b20a08360001c111561292e5760006003915091506129f7565b601b8560ff16141580156129465750601c8560ff1614155b156129585760006004915091506129f7565b60006001878787876040516000815260200160405260405161297d9493929190614896565b6020604051602081039080840390855afa15801561299f573d6000803e3d6000fd5b505050602060405103519050600073ffffffffffffffffffffffffffffffffffffffff168173ffffffffffffffffffffffffffffffffffffffff1614156129ee576000600192509250506129f7565b80600092509250505b94509492505050565b60006004811115612a1457612a136148db565b5b816004811115612a2757612a266148db565b5b1415612a3257612bd2565b60016004811115612a4657612a456148db565b5b816004811115612a5957612a586148db565b5b1415612a9a576040517f08c379a0000000000000000000000000000000000000000000000000000000008152600401612a9190614956565b60405180910390fd5b60026004811115612aae57612aad6148db565b5b816004811115612ac157612ac06148db565b5b1415612b02576040517f08c379a0000000000000000000000000000000000000000000000000000000008152600401612af9906149c2565b60405180910390fd5b60036004811115612b1657612b156148db565b5b816004811115612b2957612b286148db565b5b1415612b6a576040517f08c379a0000000000000000000000000000000000000000000000000000000008152600401612b6190614a54565b60405180910390fd5b600480811115612b7d57612b7c6148db565b5b816004811115612b9057612b8f6148db565b5b1415612bd1576040517f08c379a0000000000000000000000000000000000000000000000000000000008152600401612bc890614ae6565b60405180910390fd5b5b50565b6001816000016000828254019250508190555050565b612bf683838361311f565b612c11612c0284610ba5565b612c0b84610ba5565b836126a9565b505050565b612c1e61096c565b81612c276108bd565b612c319190613b74565b1115612c72576040517f08c379a0000000000000000000000000000000000000000000000000000000008152600401612c6990614b52565b60405180910390fd5b612c7c8282613124565b5050565b60007bffffffffffffffffffffffffffffffffffffffffffffffffffffffff905090565b60008183612cb29190613b74565b905092915050565b60008060008580549050905060008114612d285785600182612cdc9190613ca2565b81548110612ced57612cec613cd6565b5b9060005260206000200160000160049054906101000a90047bffffffffffffffffffffffffffffffffffffffffffffffffffffffff16612d2b565b60005b7bffffffffffffffffffffffffffffffffffffffffffffffffffffffff169250612d5983858763ffffffff16565b9150600081118015612dac57504386600183612d759190613ca2565b81548110612d8657612d85613cd6565b5b9060005260206000200160000160009054906101000a900463ffffffff1663ffffffff16145b15612e3957612dba82613284565b86600183612dc89190613ca2565b81548110612dd957612dd8613cd6565b5b9060005260206000200160000160046101000a8154817bffffffffffffffffffffffffffffffffffffffffffffffffffffffff02191690837bffffffffffffffffffffffffffffffffffffffffffffffffffffffff160217905550612f29565b856040518060400160405280612e4e43612193565b63ffffffff168152602001612e6285613284565b7bffffffffffffffffffffffffffffffffffffffffffffffffffffffff168152509080600181540180825580915050600190039060005260206000200160009091909190915060008201518160000160006101000a81548163ffffffff021916908363ffffffff16021790555060208201518160000160046101000a8154817bffffffffffffffffffffffffffffffffffffffffffffffffffffffff02191690837bffffffffffffffffffffffffffffffffffffffffffffffffffffffff16021790555050505b50935093915050565b60008183612f409190613ca2565b905092915050565b600073ffffffffffffffffffffffffffffffffffffffff168273ffffffffffffffffffffffffffffffffffffffff161415612fb8576040517f08c379a0000000000000000000000000000000000000000000000000000000008152600401612faf90614be4565b60405180910390fd5b612fc48260008361236b565b60008060008473ffffffffffffffffffffffffffffffffffffffff1673ffffffffffffffffffffffffffffffffffffffff1681526020019081526020016000205490508181101561304a576040517f08c379a000000000000000000000000000000000000000000000000000000000815260040161304190614c76565b60405180910390fd5b8181036000808573ffffffffffffffffffffffffffffffffffffffff1673ffffffffffffffffffffffffffffffffffffffff1681526020019081526020016000208190555081600260008282546130a19190613ca2565b92505081905550600073ffffffffffffffffffffffffffffffffffffffff168373ffffffffffffffffffffffffffffffffffffffff167fddf252ad1be2c89b69c2b068fc378daa952ba7f163c4a11628f55a4df523b3ef84604051613106919061358b565b60405180910390a361311a83600084612370565b505050565b505050565b600073ffffffffffffffffffffffffffffffffffffffff168273ffffffffffffffffffffffffffffffffffffffff161415613194576040517f08c379a000000000000000000000000000000000000000000000000000000000815260040161318b90614ce2565b60405180910390fd5b6131a06000838361236b565b80600260008282546131b29190613b74565b92505081905550806000808473ffffffffffffffffffffffffffffffffffffffff1673ffffffffffffffffffffffffffffffffffffffff16815260200190815260200160002060008282546132079190613b74565b925050819055508173ffffffffffffffffffffffffffffffffffffffff16600073ffffffffffffffffffffffffffffffffffffffff167fddf252ad1be2c89b69c2b068fc378daa952ba7f163c4a11628f55a4df523b3ef8360405161326c919061358b565b60405180910390a361328060008383612370565b5050565b60007bffffffffffffffffffffffffffffffffffffffffffffffffffffffff80168211156132e7576040517f08c379a00000000000000000000000000000000000000000000000000000000081526004016132de90614d74565b60405180910390fd5b819050919050565b6040518060400160405280600063ffffffff16815260200160007bffffffffffffffffffffffffffffffffffffffffffffffffffffffff1681525090565b600080fd5b60007fffffffff0000000000000000000000000000000000000000000000000000000082169050919050565b61336781613332565b811461337257600080fd5b50565b6000813590506133848161335e565b92915050565b6000602082840312156133a05761339f61332d565b5b60006133ae84828501613375565b91505092915050565b60008115159050919050565b6133cc816133b7565b82525050565b60006020820190506133e760008301846133c3565b92915050565b600081519050919050565b600082825260208201905092915050565b60005b8381101561342757808201518184015260208101905061340c565b83811115613436576000848401525b50505050565b6000601f19601f8301169050919050565b6000613458826133ed565b61346281856133f8565b9350613472818560208601613409565b61347b8161343c565b840191505092915050565b600060208201905081810360008301526134a0818461344d565b905092915050565b600073ffffffffffffffffffffffffffffffffffffffff82169050919050565b60006134d3826134a8565b9050919050565b6134e3816134c8565b81146134ee57600080fd5b50565b600081359050613500816134da565b92915050565b6000819050919050565b61351981613506565b811461352457600080fd5b50565b60008135905061353681613510565b92915050565b600080604083850312156135535761355261332d565b5b6000613561858286016134f1565b925050602061357285828601613527565b9150509250929050565b61358581613506565b82525050565b60006020820190506135a0600083018461357c565b92915050565b6000806000606084860312156135bf576135be61332d565b5b60006135cd868287016134f1565b93505060206135de868287016134f1565b92505060406135ef86828701613527565b9150509250925092565b6000819050919050565b61360c816135f9565b811461361757600080fd5b50565b60008135905061362981613603565b92915050565b6000602082840312156136455761364461332d565b5b60006136538482850161361a565b91505092915050565b613665816135f9565b82525050565b6000602082019050613680600083018461365c565b92915050565b6000806040838503121561369d5761369c61332d565b5b60006136ab8582860161361a565b92505060206136bc858286016134f1565b9150509250929050565b600060ff82169050919050565b6136dc816136c6565b82525050565b60006020820190506136f760008301846136d3565b92915050565b6000602082840312156137135761371261332d565b5b6000613721848285016134f1565b91505092915050565b613733816134c8565b82525050565b600060208201905061374e600083018461372a565b92915050565b600063ffffffff82169050919050565b61376d81613754565b82525050565b60006020820190506137886000830184613764565b92915050565b6000602082840312156137a4576137a361332d565b5b60006137b284828501613527565b91505092915050565b6137c4816136c6565b81146137cf57600080fd5b50565b6000813590506137e1816137bb565b92915050565b60008060008060008060c087890312156138045761380361332d565b5b600061381289828a016134f1565b965050602061382389828a01613527565b955050604061383489828a01613527565b945050606061384589828a016137d2565b935050608061385689828a0161361a565b92505060a061386789828a0161361a565b9150509295509295509295565b600080600080600080600060e0888a0312156138935761389261332d565b5b60006138a18a828b016134f1565b97505060206138b28a828b016134f1565b96505060406138c38a828b01613527565b95505060606138d48a828b01613527565b94505060806138e58a828b016137d2565b93505060a06138f68a828b0161361a565b92505060c06139078a828b0161361a565b91505092959891949750929550565b6000806040838503121561392d5761392c61332d565b5b600061393b858286016134f1565b925050602061394c858286016134f1565b9150509250929050565b61395f81613754565b811461396a57600080fd5b50565b60008135905061397c81613956565b92915050565b600080604083850312156139995761399861332d565b5b60006139a7858286016134f1565b92505060206139b88582860161396d565b9150509250929050565b6139cb81613754565b82525050565b60007bffffffffffffffffffffffffffffffffffffffffffffffffffffffff82169050919050565b613a02816139d1565b82525050565b604082016000820151613a1e60008501826139c2565b506020820151613a3160208501826139f9565b50505050565b6000604082019050613a4c6000830184613a08565b92915050565b7f4e487b7100000000000000000000000000000000000000000000000000000000600052602260045260246000fd5b60006002820490506001821680613a9957607f821691505b60208210811415613aad57613aac613a52565b5b50919050565b7f416363657373436f6e74726f6c3a2063616e206f6e6c792072656e6f756e636560008201527f20726f6c657320666f722073656c660000000000000000000000000000000000602082015250565b6000613b0f602f836133f8565b9150613b1a82613ab3565b604082019050919050565b60006020820190508181036000830152613b3e81613b02565b9050919050565b7f4e487b7100000000000000000000000000000000000000000000000000000000600052601160045260246000fd5b6000613b7f82613506565b9150613b8a83613506565b9250827fffffffffffffffffffffffffffffffffffffffffffffffffffffffffffffffff03821115613bbf57613bbe613b45565b5b828201905092915050565b7f4552433230566f7465733a20626c6f636b206e6f7420796574206d696e656400600082015250565b6000613c00601f836133f8565b9150613c0b82613bca565b602082019050919050565b60006020820190508181036000830152613c2f81613bf3565b9050919050565b7f4f776e61626c653a2063616c6c6572206973206e6f7420746865206f776e6572600082015250565b6000613c6c6020836133f8565b9150613c7782613c36565b602082019050919050565b60006020820190508181036000830152613c9b81613c5f565b9050919050565b6000613cad82613506565b9150613cb883613506565b925082821015613ccb57613cca613b45565b5b828203905092915050565b7f4e487b7100000000000000000000000000000000000000000000000000000000600052603260045260246000fd5b7f45524332303a2064656372656173656420616c6c6f77616e63652062656c6f7760008201527f207a65726f000000000000000000000000000000000000000000000000000000602082015250565b6000613d616025836133f8565b9150613d6c82613d05565b604082019050919050565b60006020820190508181036000830152613d9081613d54565b9050919050565b7f4552433230566f7465733a207369676e61747572652065787069726564000000600082015250565b6000613dcd601d836133f8565b9150613dd882613d97565b602082019050919050565b60006020820190508181036000830152613dfc81613dc0565b9050919050565b6000608082019050613e18600083018761365c565b613e25602083018661372a565b613e32604083018561357c565b613e3f606083018461357c565b95945050505050565b7f4552433230566f7465733a20696e76616c6964206e6f6e636500000000000000600082015250565b6000613e7e6019836133f8565b9150613e8982613e48565b602082019050919050565b60006020820190508181036000830152613ead81613e71565b9050919050565b7f45524332305065726d69743a206578706972656420646561646c696e65000000600082015250565b6000613eea601d836133f8565b9150613ef582613eb4565b602082019050919050565b60006020820190508181036000830152613f1981613edd565b9050919050565b600060c082019050613f35600083018961365c565b613f42602083018861372a565b613f4f604083018761372a565b613f5c606083018661357c565b613f69608083018561357c565b613f7660a083018461357c565b979650505050505050565b7f45524332305065726d69743a20696e76616c6964207369676e61747572650000600082015250565b6000613fb7601e836133f8565b9150613fc282613f81565b602082019050919050565b60006020820190508181036000830152613fe681613faa565b9050919050565b7f4f776e61626c653a206e6577206f776e657220697320746865207a65726f206160008201527f6464726573730000000000000000000000000000000000000000000000000000602082015250565b60006140496026836133f8565b915061405482613fed565b604082019050919050565b600060208201905081810360008301526140788161403c565b9050919050565b7f45524332303a20617070726f76652066726f6d20746865207a65726f2061646460008201527f7265737300000000000000000000000000000000000000000000000000000000602082015250565b60006140db6024836133f8565b91506140e68261407f565b604082019050919050565b6000602082019050818103600083015261410a816140ce565b9050919050565b7f45524332303a20617070726f766520746f20746865207a65726f20616464726560008201527f7373000000000000000000000000000000000000000000000000000000000000602082015250565b600061416d6022836133f8565b915061417882614111565b604082019050919050565b6000602082019050818103600083015261419c81614160565b9050919050565b7f45524332303a20696e73756666696369656e7420616c6c6f77616e6365000000600082015250565b60006141d9601d836133f8565b91506141e4826141a3565b602082019050919050565b60006020820190508181036000830152614208816141cc565b9050919050565b7f45524332303a207472616e736665722066726f6d20746865207a65726f20616460008201527f6472657373000000000000000000000000000000000000000000000000000000602082015250565b600061426b6025836133f8565b91506142768261420f565b604082019050919050565b6000602082019050818103600083015261429a8161425e565b9050919050565b7f45524332303a207472616e7366657220746f20746865207a65726f206164647260008201527f6573730000000000000000000000000000000000000000000000000000000000602082015250565b60006142fd6023836133f8565b9150614308826142a1565b604082019050919050565b6000602082019050818103600083015261432c816142f0565b9050919050565b7f45524332303a207472616e7366657220616d6f756e742065786365656473206260008201527f616c616e63650000000000000000000000000000000000000000000000000000602082015250565b600061438f6026836133f8565b915061439a82614333565b604082019050919050565b600060208201905081810360008301526143be81614382565b9050919050565b600081905092915050565b7f416363657373436f6e74726f6c3a206163636f756e7420000000000000000000600082015250565b60006144066017836143c5565b9150614411826143d0565b601782019050919050565b6000614427826133ed565b61443181856143c5565b9350614441818560208601613409565b80840191505092915050565b7f206973206d697373696e6720726f6c6520000000000000000000000000000000600082015250565b60006144836011836143c5565b915061448e8261444d565b601182019050919050565b60006144a4826143f9565b91506144b0828561441c565b91506144bb82614476565b91506144c7828461441c565b91508190509392505050565b7f53616665436173743a2076616c756520646f65736e27742066697420696e203360008201527f3220626974730000000000000000000000000000000000000000000000000000602082015250565b600061452f6026836133f8565b915061453a826144d3565b604082019050919050565b6000602082019050818103600083015261455e81614522565b9050919050565b600061457082613506565b915061457b83613506565b9250817fffffffffffffffffffffffffffffffffffffffffffffffffffffffffffffffff04831182151516156145b4576145b3613b45565b5b828202905092915050565b7f4e487b7100000000000000000000000000000000000000000000000000000000600052604160045260246000fd5b60006145f982613506565b9150600082141561460d5761460c613b45565b5b600182039050919050565b7f537472696e67733a20686578206c656e67746820696e73756666696369656e74600082015250565b600061464e6020836133f8565b915061465982614618565b602082019050919050565b6000602082019050818103600083015261467d81614641565b9050919050565b600060a082019050614699600083018861365c565b6146a6602083018761365c565b6146b3604083018661365c565b6146c0606083018561357c565b6146cd608083018461372a565b9695505050505050565b7f4e487b7100000000000000000000000000000000000000000000000000000000600052601260045260246000fd5b600061471182613506565b915061471c83613506565b92508261472c5761472b6146d7565b5b828204905092915050565b7f4552433230566f7465733a20746f74616c20737570706c79207269736b73206f60008201527f766572666c6f77696e6720766f74657300000000000000000000000000000000602082015250565b60006147936030836133f8565b915061479e82614737565b604082019050919050565b600060208201905081810360008301526147c281614786565b9050919050565b60006040820190506147de600083018561357c565b6147eb602083018461357c565b9392505050565b7f1901000000000000000000000000000000000000000000000000000000000000600082015250565b60006148286002836143c5565b9150614833826147f2565b600282019050919050565b6000819050919050565b614859614854826135f9565b61483e565b82525050565b600061486a8261481b565b91506148768285614848565b6020820191506148868284614848565b6020820191508190509392505050565b60006080820190506148ab600083018761365c565b6148b860208301866136d3565b6148c5604083018561365c565b6148d2606083018461365c565b95945050505050565b7f4e487b7100000000000000000000000000000000000000000000000000000000600052602160045260246000fd5b7f45434453413a20696e76616c6964207369676e61747572650000000000000000600082015250565b60006149406018836133f8565b915061494b8261490a565b602082019050919050565b6000602082019050818103600083015261496f81614933565b9050919050565b7f45434453413a20696e76616c6964207369676e6174757265206c656e67746800600082015250565b60006149ac601f836133f8565b91506149b782614976565b602082019050919050565b600060208201905081810360008301526149db8161499f565b9050919050565b7f45434453413a20696e76616c6964207369676e6174757265202773272076616c60008201527f7565000000000000000000000000000000000000000000000000000000000000602082015250565b6000614a3e6022836133f8565b9150614a49826149e2565b604082019050919050565b60006020820190508181036000830152614a6d81614a31565b9050919050565b7f45434453413a20696e76616c6964207369676e6174757265202776272076616c60008201527f7565000000000000000000000000000000000000000000000000000000000000602082015250565b6000614ad06022836133f8565b9150614adb82614a74565b604082019050919050565b60006020820190508181036000830152614aff81614ac3565b9050919050565b7f45524332304361707065643a2063617020657863656564656400000000000000600082015250565b6000614b3c6019836133f8565b9150614b4782614b06565b602082019050919050565b60006020820190508181036000830152614b6b81614b2f565b9050919050565b7f45524332303a206275726e2066726f6d20746865207a65726f2061646472657360008201527f7300000000000000000000000000000000000000000000000000000000000000602082015250565b6000614bce6021836133f8565b9150614bd982614b72565b604082019050919050565b60006020820190508181036000830152614bfd81614bc1565b9050919050565b7f45524332303a206275726e20616d6f756e7420657863656564732062616c616e60008201527f6365000000000000000000000000000000000000000000000000000000000000602082015250565b6000614c606022836133f8565b9150614c6b82614c04565b604082019050919050565b60006020820190508181036000830152614c8f81614c53565b9050919050565b7f45524332303a206d696e7420746f20746865207a65726f206164647265737300600082015250565b6000614ccc601f836133f8565b9150614cd782614c96565b602082019050919050565b60006020820190508181036000830152614cfb81614cbf565b9050919050565b7f53616665436173743a2076616c756520646f65736e27742066697420696e203260008201527f3234206269747300000000000000000000000000000000000000000000000000602082015250565b6000614d5e6027836133f8565b9150614d6982614d02565b604082019050919050565b60006020820190508181036000830152614d8d81614d51565b905091905056fea2646970667358221220ad972becfb90a65d569dbfdd7c98ae23c63c055b2bc5e980b42e1c650045071064736f6c634300080a0033",
  "immutableReferences": {
    "5662": [
      {
        "length": 32,
        "start": 2416
      }
    ],
    "6409": [
      {
        "length": 32,
        "start": 4804
      }
    ],
    "7345": [
      {
        "length": 32,
        "start": 7654
      }
    ],
    "7347": [
      {
        "length": 32,
        "start": 7613
      }
    ],
    "7349": [
      {
        "length": 32,
        "start": 7527
      }
    ],
    "7351": [
      {
        "length": 32,
        "start": 7730
      }
    ],
    "7353": [
      {
        "length": 32,
        "start": 7763
      }
    ],
    "7355": [
      {
        "length": 32,
        "start": 7697
      }
    ]
  },
  "source": "// SPDX-License-Identifier: MIT\npragma solidity ^0.8.0;\n\nimport \"@openzeppelin/contracts/token/ERC20/ERC20.sol\";\nimport \"@openzeppelin/contracts/token/ERC20/extensions/ERC20Capped.sol\";\nimport \"@openzeppelin/contracts/token/ERC20/extensions/draft-ERC20Permit.sol\";\nimport \"@openzeppelin/contracts/token/ERC20/extensions/ERC20Votes.sol\";\nimport \"@openzeppelin/contracts/access/Ownable.sol\";\nimport \"@openzeppelin/contracts/access/AccessControl.sol\";\n\ncontract DAOGourmetFood is ERC20, ERC20Capped, ERC20Permit, ERC20Votes, Ownable, AccessControl {\n  bytes32 public constant MINTER_ROLE = keccak256(\"MINTER_ROLE\");\n  bytes32 public constant BURNER_ROLE = keccak256(\"BURNER_ROLE\");\n\n  constructor(address _dao) ERC20(\"GourmetFood\", \"GFOOD\") ERC20Capped(1000000 * 10 ** 18) ERC20Permit(\"GourmetFood\") {\n    _setupRole(DEFAULT_ADMIN_ROLE, msg.sender);\n    _setupRole(DEFAULT_ADMIN_ROLE, _dao);\n  }\n\n  /**\n   * Override required for ERC20Votes\n   */\n  function _afterTokenTransfer(address from, address to, uint256 amount) internal override(ERC20, ERC20Votes) {\n    super._afterTokenTransfer(from, to, amount);\n  }\n\n  /**\n   * Override required for ERC20Capped\n   */\n  function _mint(address to, uint256 amount) internal override(ERC20, ERC20Votes, ERC20Capped) {\n    super._mint(to, amount);\n  }\n\n  /**\n   * Override required for ERC20Votes\n   */\n  function _burn(address account, uint256 amount) internal override(ERC20, ERC20Votes) {\n    super._burn(account, amount);\n  }\n\n  /**\n   * Mints the implementation food token to the recipient\n   * @param to - The recipient of the food token\n   * @param amount - The amount of food tokens to mint\n   */\n  function mint(address to, uint256 amount) external onlyRole(MINTER_ROLE) {\n    _mint(to, amount);\n  }\n\n  /**\n   * Burns food tokens from a holder\n   * @param from - The holder of the food token\n   * @param amount - The amount of food tokens to burn\n   */\n  function burn(address from, uint256 amount) external onlyRole(BURNER_ROLE) {\n    _burn(from, amount);\n  }\n}\n",
  "sourcePath": "/Users/chris/workspace/ratalert/ratalert-contracts/contracts/DAOGourmetFood.sol",
  "compiler": {
    "name": "solc",
    "version": "0.8.10+commit.fc410830.Emscripten.clang"
  },
  "schemaVersion": "3.4.7",
  "updatedAt": "2022-06-03T20:29:57.319Z",
  "networkType": "ethereum",
  "devdoc": {
    "kind": "dev",
    "methods": {
      "DOMAIN_SEPARATOR()": {
        "details": "See {IERC20Permit-DOMAIN_SEPARATOR}."
      },
      "allowance(address,address)": {
        "details": "See {IERC20-allowance}."
      },
      "approve(address,uint256)": {
        "details": "See {IERC20-approve}. NOTE: If `amount` is the maximum `uint256`, the allowance is not updated on `transferFrom`. This is semantically equivalent to an infinite approval. Requirements: - `spender` cannot be the zero address."
      },
      "balanceOf(address)": {
        "details": "See {IERC20-balanceOf}."
      },
      "burn(address,uint256)": {
        "params": {
          "amount": "- The amount of food tokens to burn",
          "from": "- The holder of the food token"
        }
      },
      "cap()": {
        "details": "Returns the cap on the token's total supply."
      },
      "checkpoints(address,uint32)": {
        "details": "Get the `pos`-th checkpoint for `account`."
      },
      "decimals()": {
        "details": "Returns the number of decimals used to get its user representation. For example, if `decimals` equals `2`, a balance of `505` tokens should be displayed to a user as `5.05` (`505 / 10 ** 2`). Tokens usually opt for a value of 18, imitating the relationship between Ether and Wei. This is the value {ERC20} uses, unless this function is overridden; NOTE: This information is only used for _display_ purposes: it in no way affects any of the arithmetic of the contract, including {IERC20-balanceOf} and {IERC20-transfer}."
      },
      "decreaseAllowance(address,uint256)": {
        "details": "Atomically decreases the allowance granted to `spender` by the caller. This is an alternative to {approve} that can be used as a mitigation for problems described in {IERC20-approve}. Emits an {Approval} event indicating the updated allowance. Requirements: - `spender` cannot be the zero address. - `spender` must have allowance for the caller of at least `subtractedValue`."
      },
      "delegate(address)": {
        "details": "Delegate votes from the sender to `delegatee`."
      },
      "delegateBySig(address,uint256,uint256,uint8,bytes32,bytes32)": {
        "details": "Delegates votes from signer to `delegatee`"
      },
      "delegates(address)": {
        "details": "Get the address `account` is currently delegating to."
      },
      "getPastTotalSupply(uint256)": {
        "details": "Retrieve the `totalSupply` at the end of `blockNumber`. Note, this value is the sum of all balances. It is but NOT the sum of all the delegated votes! Requirements: - `blockNumber` must have been already mined"
      },
      "getPastVotes(address,uint256)": {
        "details": "Retrieve the number of votes for `account` at the end of `blockNumber`. Requirements: - `blockNumber` must have been already mined"
      },
      "getRoleAdmin(bytes32)": {
        "details": "Returns the admin role that controls `role`. See {grantRole} and {revokeRole}. To change a role's admin, use {_setRoleAdmin}."
      },
      "getVotes(address)": {
        "details": "Gets the current votes balance for `account`"
      },
      "grantRole(bytes32,address)": {
        "details": "Grants `role` to `account`. If `account` had not been already granted `role`, emits a {RoleGranted} event. Requirements: - the caller must have ``role``'s admin role."
      },
      "hasRole(bytes32,address)": {
        "details": "Returns `true` if `account` has been granted `role`."
      },
      "increaseAllowance(address,uint256)": {
        "details": "Atomically increases the allowance granted to `spender` by the caller. This is an alternative to {approve} that can be used as a mitigation for problems described in {IERC20-approve}. Emits an {Approval} event indicating the updated allowance. Requirements: - `spender` cannot be the zero address."
      },
      "mint(address,uint256)": {
        "params": {
          "amount": "- The amount of food tokens to mint",
          "to": "- The recipient of the food token"
        }
      },
      "name()": {
        "details": "Returns the name of the token."
      },
      "nonces(address)": {
        "details": "See {IERC20Permit-nonces}."
      },
      "numCheckpoints(address)": {
        "details": "Get number of checkpoints for `account`."
      },
      "owner()": {
        "details": "Returns the address of the current owner."
      },
      "permit(address,address,uint256,uint256,uint8,bytes32,bytes32)": {
        "details": "See {IERC20Permit-permit}."
      },
      "renounceOwnership()": {
        "details": "Leaves the contract without owner. It will not be possible to call `onlyOwner` functions anymore. Can only be called by the current owner. NOTE: Renouncing ownership will leave the contract without an owner, thereby removing any functionality that is only available to the owner."
      },
      "renounceRole(bytes32,address)": {
        "details": "Revokes `role` from the calling account. Roles are often managed via {grantRole} and {revokeRole}: this function's purpose is to provide a mechanism for accounts to lose their privileges if they are compromised (such as when a trusted device is misplaced). If the calling account had been revoked `role`, emits a {RoleRevoked} event. Requirements: - the caller must be `account`."
      },
      "revokeRole(bytes32,address)": {
        "details": "Revokes `role` from `account`. If `account` had been granted `role`, emits a {RoleRevoked} event. Requirements: - the caller must have ``role``'s admin role."
      },
      "supportsInterface(bytes4)": {
        "details": "See {IERC165-supportsInterface}."
      },
      "symbol()": {
        "details": "Returns the symbol of the token, usually a shorter version of the name."
      },
      "totalSupply()": {
        "details": "See {IERC20-totalSupply}."
      },
      "transfer(address,uint256)": {
        "details": "See {IERC20-transfer}. Requirements: - `to` cannot be the zero address. - the caller must have a balance of at least `amount`."
      },
      "transferFrom(address,address,uint256)": {
        "details": "See {IERC20-transferFrom}. Emits an {Approval} event indicating the updated allowance. This is not required by the EIP. See the note at the beginning of {ERC20}. NOTE: Does not update the allowance if the current allowance is the maximum `uint256`. Requirements: - `from` and `to` cannot be the zero address. - `from` must have a balance of at least `amount`. - the caller must have allowance for ``from``'s tokens of at least `amount`."
      },
      "transferOwnership(address)": {
        "details": "Transfers ownership of the contract to a new account (`newOwner`). Can only be called by the current owner."
      }
    },
    "version": 1
  },
  "userdoc": {
    "kind": "user",
    "methods": {
      "burn(address,uint256)": {
        "notice": "Burns food tokens from a holder"
      },
      "mint(address,uint256)": {
        "notice": "Mints the implementation food token to the recipient"
      }
    },
    "version": 1
  }
}