{
  "contractName": "FastFood",
  "abi": [
    {
      "inputs": [],
      "stateMutability": "nonpayable",
      "type": "constructor"
    },
    {
      "anonymous": false,
      "inputs": [
        {
          "indexed": true,
          "internalType": "address",
          "name": "owner",
          "type": "address"
        },
        {
          "indexed": true,
          "internalType": "address",
          "name": "spender",
          "type": "address"
        },
        {
          "indexed": false,
          "internalType": "uint256",
          "name": "value",
          "type": "uint256"
        }
      ],
      "name": "Approval",
      "type": "event"
    },
    {
      "anonymous": false,
      "inputs": [
        {
          "indexed": true,
          "internalType": "address",
          "name": "previousOwner",
          "type": "address"
        },
        {
          "indexed": true,
          "internalType": "address",
          "name": "newOwner",
          "type": "address"
        }
      ],
      "name": "OwnershipTransferred",
      "type": "event"
    },
    {
      "anonymous": false,
      "inputs": [
        {
          "indexed": true,
          "internalType": "address",
          "name": "from",
          "type": "address"
        },
        {
          "indexed": true,
          "internalType": "address",
          "name": "to",
          "type": "address"
        },
        {
          "indexed": false,
          "internalType": "uint256",
          "name": "value",
          "type": "uint256"
        }
      ],
      "name": "Transfer",
      "type": "event"
    },
    {
      "inputs": [
        {
          "internalType": "address[]",
          "name": "_controllers",
          "type": "address[]"
        }
      ],
      "name": "addController",
      "outputs": [],
      "stateMutability": "nonpayable",
      "type": "function"
    },
    {
      "inputs": [
        {
          "internalType": "address",
          "name": "owner",
          "type": "address"
        },
        {
          "internalType": "address",
          "name": "spender",
          "type": "address"
        }
      ],
      "name": "allowance",
      "outputs": [
        {
          "internalType": "uint256",
          "name": "",
          "type": "uint256"
        }
      ],
      "stateMutability": "view",
      "type": "function",
      "constant": true
    },
    {
      "inputs": [
        {
          "internalType": "address",
          "name": "spender",
          "type": "address"
        },
        {
          "internalType": "uint256",
          "name": "amount",
          "type": "uint256"
        }
      ],
      "name": "approve",
      "outputs": [
        {
          "internalType": "bool",
          "name": "",
          "type": "bool"
        }
      ],
      "stateMutability": "nonpayable",
      "type": "function"
    },
    {
      "inputs": [
        {
          "internalType": "address",
          "name": "account",
          "type": "address"
        }
      ],
      "name": "balanceOf",
      "outputs": [
        {
          "internalType": "uint256",
          "name": "",
          "type": "uint256"
        }
      ],
      "stateMutability": "view",
      "type": "function",
      "constant": true
    },
    {
      "inputs": [
        {
          "internalType": "address",
          "name": "from",
          "type": "address"
        },
        {
          "internalType": "uint256",
          "name": "amount",
          "type": "uint256"
        }
      ],
      "name": "burn",
      "outputs": [],
      "stateMutability": "nonpayable",
      "type": "function"
    },
    {
      "inputs": [],
      "name": "cap",
      "outputs": [
        {
          "internalType": "uint256",
          "name": "",
          "type": "uint256"
        }
      ],
      "stateMutability": "view",
      "type": "function",
      "constant": true
    },
    {
      "inputs": [
        {
          "internalType": "address",
          "name": "_controller",
          "type": "address"
        }
      ],
      "name": "controller",
      "outputs": [
        {
          "internalType": "bool",
          "name": "",
          "type": "bool"
        }
      ],
      "stateMutability": "view",
      "type": "function",
      "constant": true
    },
    {
      "inputs": [],
      "name": "decimals",
      "outputs": [
        {
          "internalType": "uint8",
          "name": "",
          "type": "uint8"
        }
      ],
      "stateMutability": "view",
      "type": "function",
      "constant": true
    },
    {
      "inputs": [
        {
          "internalType": "address",
          "name": "spender",
          "type": "address"
        },
        {
          "internalType": "uint256",
          "name": "subtractedValue",
          "type": "uint256"
        }
      ],
      "name": "decreaseAllowance",
      "outputs": [
        {
          "internalType": "bool",
          "name": "",
          "type": "bool"
        }
      ],
      "stateMutability": "nonpayable",
      "type": "function"
    },
    {
      "inputs": [
        {
          "internalType": "address",
          "name": "spender",
          "type": "address"
        },
        {
          "internalType": "uint256",
          "name": "addedValue",
          "type": "uint256"
        }
      ],
      "name": "increaseAllowance",
      "outputs": [
        {
          "internalType": "bool",
          "name": "",
          "type": "bool"
        }
      ],
      "stateMutability": "nonpayable",
      "type": "function"
    },
    {
      "inputs": [
        {
          "internalType": "address",
          "name": "to",
          "type": "address"
        },
        {
          "internalType": "uint256",
          "name": "amount",
          "type": "uint256"
        }
      ],
      "name": "mint",
      "outputs": [],
      "stateMutability": "nonpayable",
      "type": "function"
    },
    {
      "inputs": [],
      "name": "name",
      "outputs": [
        {
          "internalType": "string",
          "name": "",
          "type": "string"
        }
      ],
      "stateMutability": "view",
      "type": "function",
      "constant": true
    },
    {
      "inputs": [],
      "name": "owner",
      "outputs": [
        {
          "internalType": "address",
          "name": "",
          "type": "address"
        }
      ],
      "stateMutability": "view",
      "type": "function",
      "constant": true
    },
    {
      "inputs": [
        {
          "internalType": "address[]",
          "name": "_controllers",
          "type": "address[]"
        }
      ],
      "name": "removeController",
      "outputs": [],
      "stateMutability": "nonpayable",
      "type": "function"
    },
    {
      "inputs": [],
      "name": "renounceOwnership",
      "outputs": [],
      "stateMutability": "nonpayable",
      "type": "function"
    },
    {
      "inputs": [],
      "name": "symbol",
      "outputs": [
        {
          "internalType": "string",
          "name": "",
          "type": "string"
        }
      ],
      "stateMutability": "view",
      "type": "function",
      "constant": true
    },
    {
      "inputs": [],
      "name": "totalSupply",
      "outputs": [
        {
          "internalType": "uint256",
          "name": "",
          "type": "uint256"
        }
      ],
      "stateMutability": "view",
      "type": "function",
      "constant": true
    },
    {
      "inputs": [
        {
          "internalType": "address",
          "name": "to",
          "type": "address"
        },
        {
          "internalType": "uint256",
          "name": "amount",
          "type": "uint256"
        }
      ],
      "name": "transfer",
      "outputs": [
        {
          "internalType": "bool",
          "name": "",
          "type": "bool"
        }
      ],
      "stateMutability": "nonpayable",
      "type": "function"
    },
    {
      "inputs": [
        {
          "internalType": "address",
          "name": "from",
          "type": "address"
        },
        {
          "internalType": "address",
          "name": "to",
          "type": "address"
        },
        {
          "internalType": "uint256",
          "name": "amount",
          "type": "uint256"
        }
      ],
      "name": "transferFrom",
      "outputs": [
        {
          "internalType": "bool",
          "name": "",
          "type": "bool"
        }
      ],
      "stateMutability": "nonpayable",
      "type": "function"
    },
    {
      "inputs": [
        {
          "internalType": "address",
          "name": "newOwner",
          "type": "address"
        }
      ],
      "name": "transferOwnership",
      "outputs": [],
      "stateMutability": "nonpayable",
      "type": "function"
    }
  ],
  "bytecode": "0x60a06040523480156200001157600080fd5b506040518060400160405280600881526020017f46617374466f6f640000000000000000000000000000000000000000000000008152506040518060400160405280600581526020017f46464f4f440000000000000000000000000000000000000000000000000000008152506a52b7d2dcc80cd2e40000008083838160039080519060200190620000a592919062000207565b508060049080519060200190620000be92919062000207565b5050506000811162000107576040517f08c379a0000000000000000000000000000000000000000000000000000000008152600401620000fe9062000318565b60405180910390fd5b80608081815250505062000130620001246200013960201b60201c565b6200014160201b60201c565b5050506200039f565b600033905090565b6000600560009054906101000a900473ffffffffffffffffffffffffffffffffffffffff16905081600560006101000a81548173ffffffffffffffffffffffffffffffffffffffff021916908373ffffffffffffffffffffffffffffffffffffffff1602179055508173ffffffffffffffffffffffffffffffffffffffff168173ffffffffffffffffffffffffffffffffffffffff167f8be0079c531659141344cd1fd0a4f28419497f9722a3daafe3b4186f6b6457e060405160405180910390a35050565b828054620002159062000369565b90600052602060002090601f01602090048101928262000239576000855562000285565b82601f106200025457805160ff191683800117855562000285565b8280016001018555821562000285579182015b828111156200028457825182559160200191906001019062000267565b5b50905062000294919062000298565b5090565b5b80821115620002b357600081600090555060010162000299565b5090565b600082825260208201905092915050565b7f45524332304361707065643a2063617020697320300000000000000000000000600082015250565b600062000300601583620002b7565b91506200030d82620002c8565b602082019050919050565b600060208201905081810360008301526200033381620002f1565b9050919050565b7f4e487b7100000000000000000000000000000000000000000000000000000000600052602260045260246000fd5b600060028204905060018216806200038257607f821691505b602082108114156200039957620003986200033a565b5b50919050565b608051612428620003bb60003960006104f601526124286000f3fe608060405234801561001057600080fd5b506004361061012c5760003560e01c80638da5cb5b116100ad578063a83a720211610071578063a83a720214610333578063a9059cbb1461034f578063c13aa7b51461037f578063dd62ed3e146103af578063f2fde38b146103df5761012c565b80638da5cb5b1461028f57806392c405b6146102ad57806395d89b41146102c95780639dc29fac146102e7578063a457c2d7146103035761012c565b8063355274ea116100f4578063355274ea146101eb578063395093511461020957806340c10f191461023957806370a0823114610255578063715018a6146102855761012c565b806306fdde0314610131578063095ea7b31461014f57806318160ddd1461017f57806323b872dd1461019d578063313ce567146101cd575b600080fd5b6101396103fb565b6040516101469190611706565b60405180910390f35b610169600480360381019061016491906117d0565b61048d565b604051610176919061182b565b60405180910390f35b6101876104b0565b6040516101949190611855565b60405180910390f35b6101b760048036038101906101b29190611870565b6104ba565b6040516101c4919061182b565b60405180910390f35b6101d56104e9565b6040516101e291906118df565b60405180910390f35b6101f36104f2565b6040516102009190611855565b60405180910390f35b610223600480360381019061021e91906117d0565b61051a565b604051610230919061182b565b60405180910390f35b610253600480360381019061024e91906117d0565b6105c4565b005b61026f600480360381019061026a91906118fa565b6105da565b60405161027c9190611855565b60405180910390f35b61028d610622565b005b6102976106aa565b6040516102a49190611936565b60405180910390f35b6102c760048036038101906102c29190611a99565b6106d4565b005b6102d16107e5565b6040516102de9190611706565b60405180910390f35b61030160048036038101906102fc91906117d0565b610877565b005b61031d600480360381019061031891906117d0565b61088d565b60405161032a919061182b565b60405180910390f35b61034d60048036038101906103489190611a99565b610977565b005b610369600480360381019061036491906117d0565b610a88565b604051610376919061182b565b60405180910390f35b610399600480360381019061039491906118fa565b610aab565b6040516103a6919061182b565b60405180910390f35b6103c960048036038101906103c49190611ae2565b610b01565b6040516103d69190611855565b60405180910390f35b6103f960048036038101906103f491906118fa565b610b88565b005b60606003805461040a90611b51565b80601f016020809104026020016040519081016040528092919081815260200182805461043690611b51565b80156104835780601f1061045857610100808354040283529160200191610483565b820191906000526020600020905b81548152906001019060200180831161046657829003601f168201915b5050505050905090565b600080610498610c80565b90506104a5818585610c88565b600191505092915050565b6000600254905090565b6000806104c5610c80565b90506104d2858285610e53565b6104dd858585610edf565b60019150509392505050565b60006012905090565b60007f0000000000000000000000000000000000000000000000000000000000000000905090565b600080610525610c80565b90506105b9818585600160008673ffffffffffffffffffffffffffffffffffffffff1673ffffffffffffffffffffffffffffffffffffffff16815260200190815260200160002060008973ffffffffffffffffffffffffffffffffffffffff1673ffffffffffffffffffffffffffffffffffffffff168152602001908152602001600020546105b49190611bb2565b610c88565b600191505092915050565b6105cc611160565b6105d682826111ee565b5050565b60008060008373ffffffffffffffffffffffffffffffffffffffff1673ffffffffffffffffffffffffffffffffffffffff168152602001908152602001600020549050919050565b61062a610c80565b73ffffffffffffffffffffffffffffffffffffffff166106486106aa565b73ffffffffffffffffffffffffffffffffffffffff161461069e576040517f08c379a000000000000000000000000000000000000000000000000000000000815260040161069590611c54565b60405180910390fd5b6106a860006111fc565b565b6000600560009054906101000a900473ffffffffffffffffffffffffffffffffffffffff16905090565b6106dc610c80565b73ffffffffffffffffffffffffffffffffffffffff166106fa6106aa565b73ffffffffffffffffffffffffffffffffffffffff1614610750576040517f08c379a000000000000000000000000000000000000000000000000000000000815260040161074790611c54565b60405180910390fd5b60005b81518110156107e15760006006600084848151811061077557610774611c74565b5b602002602001015173ffffffffffffffffffffffffffffffffffffffff1673ffffffffffffffffffffffffffffffffffffffff16815260200190815260200160002060006101000a81548160ff02191690831515021790555080806107d990611ca3565b915050610753565b5050565b6060600480546107f490611b51565b80601f016020809104026020016040519081016040528092919081815260200182805461082090611b51565b801561086d5780601f106108425761010080835404028352916020019161086d565b820191906000526020600020905b81548152906001019060200180831161085057829003601f168201915b5050505050905090565b61087f611160565b61088982826112c2565b5050565b600080610898610c80565b90506000600160008373ffffffffffffffffffffffffffffffffffffffff1673ffffffffffffffffffffffffffffffffffffffff16815260200190815260200160002060008673ffffffffffffffffffffffffffffffffffffffff1673ffffffffffffffffffffffffffffffffffffffff1681526020019081526020016000205490508381101561095e576040517f08c379a000000000000000000000000000000000000000000000000000000000815260040161095590611d5e565b60405180910390fd5b61096b8286868403610c88565b60019250505092915050565b61097f610c80565b73ffffffffffffffffffffffffffffffffffffffff1661099d6106aa565b73ffffffffffffffffffffffffffffffffffffffff16146109f3576040517f08c379a00000000000000000000000000000000000000000000000000000000081526004016109ea90611c54565b60405180910390fd5b60005b8151811015610a8457600160066000848481518110610a1857610a17611c74565b5b602002602001015173ffffffffffffffffffffffffffffffffffffffff1673ffffffffffffffffffffffffffffffffffffffff16815260200190815260200160002060006101000a81548160ff0219169083151502179055508080610a7c90611ca3565b9150506109f6565b5050565b600080610a93610c80565b9050610aa0818585610edf565b600191505092915050565b6000600660008373ffffffffffffffffffffffffffffffffffffffff1673ffffffffffffffffffffffffffffffffffffffff16815260200190815260200160002060009054906101000a900460ff169050919050565b6000600160008473ffffffffffffffffffffffffffffffffffffffff1673ffffffffffffffffffffffffffffffffffffffff16815260200190815260200160002060008373ffffffffffffffffffffffffffffffffffffffff1673ffffffffffffffffffffffffffffffffffffffff16815260200190815260200160002054905092915050565b610b90610c80565b73ffffffffffffffffffffffffffffffffffffffff16610bae6106aa565b73ffffffffffffffffffffffffffffffffffffffff1614610c04576040517f08c379a0000000000000000000000000000000000000000000000000000000008152600401610bfb90611c54565b60405180910390fd5b600073ffffffffffffffffffffffffffffffffffffffff168173ffffffffffffffffffffffffffffffffffffffff161415610c74576040517f08c379a0000000000000000000000000000000000000000000000000000000008152600401610c6b90611df0565b60405180910390fd5b610c7d816111fc565b50565b600033905090565b600073ffffffffffffffffffffffffffffffffffffffff168373ffffffffffffffffffffffffffffffffffffffff161415610cf8576040517f08c379a0000000000000000000000000000000000000000000000000000000008152600401610cef90611e82565b60405180910390fd5b600073ffffffffffffffffffffffffffffffffffffffff168273ffffffffffffffffffffffffffffffffffffffff161415610d68576040517f08c379a0000000000000000000000000000000000000000000000000000000008152600401610d5f90611f14565b60405180910390fd5b80600160008573ffffffffffffffffffffffffffffffffffffffff1673ffffffffffffffffffffffffffffffffffffffff16815260200190815260200160002060008473ffffffffffffffffffffffffffffffffffffffff1673ffffffffffffffffffffffffffffffffffffffff168152602001908152602001600020819055508173ffffffffffffffffffffffffffffffffffffffff168373ffffffffffffffffffffffffffffffffffffffff167f8c5be1e5ebec7d5bd14f71427d1e84f3dd0314c0f7b2291e5b200ac8c7c3b92583604051610e469190611855565b60405180910390a3505050565b6000610e5f8484610b01565b90507fffffffffffffffffffffffffffffffffffffffffffffffffffffffffffffffff8114610ed95781811015610ecb576040517f08c379a0000000000000000000000000000000000000000000000000000000008152600401610ec290611f80565b60405180910390fd5b610ed88484848403610c88565b5b50505050565b600073ffffffffffffffffffffffffffffffffffffffff168373ffffffffffffffffffffffffffffffffffffffff161415610f4f576040517f08c379a0000000000000000000000000000000000000000000000000000000008152600401610f4690612012565b60405180910390fd5b600073ffffffffffffffffffffffffffffffffffffffff168273ffffffffffffffffffffffffffffffffffffffff161415610fbf576040517f08c379a0000000000000000000000000000000000000000000000000000000008152600401610fb6906120a4565b60405180910390fd5b610fca838383611499565b60008060008573ffffffffffffffffffffffffffffffffffffffff1673ffffffffffffffffffffffffffffffffffffffff16815260200190815260200160002054905081811015611050576040517f08c379a000000000000000000000000000000000000000000000000000000000815260040161104790612136565b60405180910390fd5b8181036000808673ffffffffffffffffffffffffffffffffffffffff1673ffffffffffffffffffffffffffffffffffffffff16815260200190815260200160002081905550816000808573ffffffffffffffffffffffffffffffffffffffff1673ffffffffffffffffffffffffffffffffffffffff16815260200190815260200160002060008282546110e39190611bb2565b925050819055508273ffffffffffffffffffffffffffffffffffffffff168473ffffffffffffffffffffffffffffffffffffffff167fddf252ad1be2c89b69c2b068fc378daa952ba7f163c4a11628f55a4df523b3ef846040516111479190611855565b60405180910390a361115a84848461149e565b50505050565b600660003373ffffffffffffffffffffffffffffffffffffffff1673ffffffffffffffffffffffffffffffffffffffff16815260200190815260200160002060009054906101000a900460ff166111ec576040517f08c379a00000000000000000000000000000000000000000000000000000000081526004016111e3906121a2565b60405180910390fd5b565b6111f882826114a3565b5050565b6000600560009054906101000a900473ffffffffffffffffffffffffffffffffffffffff16905081600560006101000a81548173ffffffffffffffffffffffffffffffffffffffff021916908373ffffffffffffffffffffffffffffffffffffffff1602179055508173ffffffffffffffffffffffffffffffffffffffff168173ffffffffffffffffffffffffffffffffffffffff167f8be0079c531659141344cd1fd0a4f28419497f9722a3daafe3b4186f6b6457e060405160405180910390a35050565b600073ffffffffffffffffffffffffffffffffffffffff168273ffffffffffffffffffffffffffffffffffffffff161415611332576040517f08c379a000000000000000000000000000000000000000000000000000000000815260040161132990612234565b60405180910390fd5b61133e82600083611499565b60008060008473ffffffffffffffffffffffffffffffffffffffff1673ffffffffffffffffffffffffffffffffffffffff168152602001908152602001600020549050818110156113c4576040517f08c379a00000000000000000000000000000000000000000000000000000000081526004016113bb906122c6565b60405180910390fd5b8181036000808573ffffffffffffffffffffffffffffffffffffffff1673ffffffffffffffffffffffffffffffffffffffff16815260200190815260200160002081905550816002600082825461141b91906122e6565b92505081905550600073ffffffffffffffffffffffffffffffffffffffff168373ffffffffffffffffffffffffffffffffffffffff167fddf252ad1be2c89b69c2b068fc378daa952ba7f163c4a11628f55a4df523b3ef846040516114809190611855565b60405180910390a36114948360008461149e565b505050565b505050565b505050565b6114ab6104f2565b816114b46104b0565b6114be9190611bb2565b11156114ff576040517f08c379a00000000000000000000000000000000000000000000000000000000081526004016114f690612366565b60405180910390fd5b611509828261150d565b5050565b600073ffffffffffffffffffffffffffffffffffffffff168273ffffffffffffffffffffffffffffffffffffffff16141561157d576040517f08c379a0000000000000000000000000000000000000000000000000000000008152600401611574906123d2565b60405180910390fd5b61158960008383611499565b806002600082825461159b9190611bb2565b92505081905550806000808473ffffffffffffffffffffffffffffffffffffffff1673ffffffffffffffffffffffffffffffffffffffff16815260200190815260200160002060008282546115f09190611bb2565b925050819055508173ffffffffffffffffffffffffffffffffffffffff16600073ffffffffffffffffffffffffffffffffffffffff167fddf252ad1be2c89b69c2b068fc378daa952ba7f163c4a11628f55a4df523b3ef836040516116559190611855565b60405180910390a36116696000838361149e565b5050565b600081519050919050565b600082825260208201905092915050565b60005b838110156116a757808201518184015260208101905061168c565b838111156116b6576000848401525b50505050565b6000601f19601f8301169050919050565b60006116d88261166d565b6116e28185611678565b93506116f2818560208601611689565b6116fb816116bc565b840191505092915050565b6000602082019050818103600083015261172081846116cd565b905092915050565b6000604051905090565b600080fd5b600080fd5b600073ffffffffffffffffffffffffffffffffffffffff82169050919050565b60006117678261173c565b9050919050565b6117778161175c565b811461178257600080fd5b50565b6000813590506117948161176e565b92915050565b6000819050919050565b6117ad8161179a565b81146117b857600080fd5b50565b6000813590506117ca816117a4565b92915050565b600080604083850312156117e7576117e6611732565b5b60006117f585828601611785565b9250506020611806858286016117bb565b9150509250929050565b60008115159050919050565b61182581611810565b82525050565b6000602082019050611840600083018461181c565b92915050565b61184f8161179a565b82525050565b600060208201905061186a6000830184611846565b92915050565b60008060006060848603121561188957611888611732565b5b600061189786828701611785565b93505060206118a886828701611785565b92505060406118b9868287016117bb565b9150509250925092565b600060ff82169050919050565b6118d9816118c3565b82525050565b60006020820190506118f460008301846118d0565b92915050565b6000602082840312156119105761190f611732565b5b600061191e84828501611785565b91505092915050565b6119308161175c565b82525050565b600060208201905061194b6000830184611927565b92915050565b600080fd5b7f4e487b7100000000000000000000000000000000000000000000000000000000600052604160045260246000fd5b61198e826116bc565b810181811067ffffffffffffffff821117156119ad576119ac611956565b5b80604052505050565b60006119c0611728565b90506119cc8282611985565b919050565b600067ffffffffffffffff8211156119ec576119eb611956565b5b602082029050602081019050919050565b600080fd5b6000611a15611a10846119d1565b6119b6565b90508083825260208201905060208402830185811115611a3857611a376119fd565b5b835b81811015611a615780611a4d8882611785565b845260208401935050602081019050611a3a565b5050509392505050565b600082601f830112611a8057611a7f611951565b5b8135611a90848260208601611a02565b91505092915050565b600060208284031215611aaf57611aae611732565b5b600082013567ffffffffffffffff811115611acd57611acc611737565b5b611ad984828501611a6b565b91505092915050565b60008060408385031215611af957611af8611732565b5b6000611b0785828601611785565b9250506020611b1885828601611785565b9150509250929050565b7f4e487b7100000000000000000000000000000000000000000000000000000000600052602260045260246000fd5b60006002820490506001821680611b6957607f821691505b60208210811415611b7d57611b7c611b22565b5b50919050565b7f4e487b7100000000000000000000000000000000000000000000000000000000600052601160045260246000fd5b6000611bbd8261179a565b9150611bc88361179a565b9250827fffffffffffffffffffffffffffffffffffffffffffffffffffffffffffffffff03821115611bfd57611bfc611b83565b5b828201905092915050565b7f4f776e61626c653a2063616c6c6572206973206e6f7420746865206f776e6572600082015250565b6000611c3e602083611678565b9150611c4982611c08565b602082019050919050565b60006020820190508181036000830152611c6d81611c31565b9050919050565b7f4e487b7100000000000000000000000000000000000000000000000000000000600052603260045260246000fd5b6000611cae8261179a565b91507fffffffffffffffffffffffffffffffffffffffffffffffffffffffffffffffff821415611ce157611ce0611b83565b5b600182019050919050565b7f45524332303a2064656372656173656420616c6c6f77616e63652062656c6f7760008201527f207a65726f000000000000000000000000000000000000000000000000000000602082015250565b6000611d48602583611678565b9150611d5382611cec565b604082019050919050565b60006020820190508181036000830152611d7781611d3b565b9050919050565b7f4f776e61626c653a206e6577206f776e657220697320746865207a65726f206160008201527f6464726573730000000000000000000000000000000000000000000000000000602082015250565b6000611dda602683611678565b9150611de582611d7e565b604082019050919050565b60006020820190508181036000830152611e0981611dcd565b9050919050565b7f45524332303a20617070726f76652066726f6d20746865207a65726f2061646460008201527f7265737300000000000000000000000000000000000000000000000000000000602082015250565b6000611e6c602483611678565b9150611e7782611e10565b604082019050919050565b60006020820190508181036000830152611e9b81611e5f565b9050919050565b7f45524332303a20617070726f766520746f20746865207a65726f20616464726560008201527f7373000000000000000000000000000000000000000000000000000000000000602082015250565b6000611efe602283611678565b9150611f0982611ea2565b604082019050919050565b60006020820190508181036000830152611f2d81611ef1565b9050919050565b7f45524332303a20696e73756666696369656e7420616c6c6f77616e6365000000600082015250565b6000611f6a601d83611678565b9150611f7582611f34565b602082019050919050565b60006020820190508181036000830152611f9981611f5d565b9050919050565b7f45524332303a207472616e736665722066726f6d20746865207a65726f20616460008201527f6472657373000000000000000000000000000000000000000000000000000000602082015250565b6000611ffc602583611678565b915061200782611fa0565b604082019050919050565b6000602082019050818103600083015261202b81611fef565b9050919050565b7f45524332303a207472616e7366657220746f20746865207a65726f206164647260008201527f6573730000000000000000000000000000000000000000000000000000000000602082015250565b600061208e602383611678565b915061209982612032565b604082019050919050565b600060208201905081810360008301526120bd81612081565b9050919050565b7f45524332303a207472616e7366657220616d6f756e742065786365656473206260008201527f616c616e63650000000000000000000000000000000000000000000000000000602082015250565b6000612120602683611678565b915061212b826120c4565b604082019050919050565b6000602082019050818103600083015261214f81612113565b9050919050565b7f4f6e6c7920636f6e74726f6c6c6572732063616e206578656375746500000000600082015250565b600061218c601c83611678565b915061219782612156565b602082019050919050565b600060208201905081810360008301526121bb8161217f565b9050919050565b7f45524332303a206275726e2066726f6d20746865207a65726f2061646472657360008201527f7300000000000000000000000000000000000000000000000000000000000000602082015250565b600061221e602183611678565b9150612229826121c2565b604082019050919050565b6000602082019050818103600083015261224d81612211565b9050919050565b7f45524332303a206275726e20616d6f756e7420657863656564732062616c616e60008201527f6365000000000000000000000000000000000000000000000000000000000000602082015250565b60006122b0602283611678565b91506122bb82612254565b604082019050919050565b600060208201905081810360008301526122df816122a3565b9050919050565b60006122f18261179a565b91506122fc8361179a565b92508282101561230f5761230e611b83565b5b828203905092915050565b7f45524332304361707065643a2063617020657863656564656400000000000000600082015250565b6000612350601983611678565b915061235b8261231a565b602082019050919050565b6000602082019050818103600083015261237f81612343565b9050919050565b7f45524332303a206d696e7420746f20746865207a65726f206164647265737300600082015250565b60006123bc601f83611678565b91506123c782612386565b602082019050919050565b600060208201905081810360008301526123eb816123af565b905091905056fea26469706673582212202383d8586a08f1484c31ed1a4b23bb5208a8a82d1858106c8ba2b94ef5932a2964736f6c634300080a0033",
  "immutableReferences": {
    "5586": [
      {
        "length": 32,
        "start": 1270
      }
    ]
  },
  "source": "// SPDX-License-Identifier: MIT\npragma solidity ^0.8.0;\n\nimport \"./Food.sol\";\n\ncontract FastFood is Food {\n  constructor() Food(\"FastFood\", \"FFOOD\", 100000000 * 10 ** 18) {}\n}\n",
  "sourcePath": "/Users/chris/workspace/ratalert/ratalert-contracts/contracts/FastFood.sol",
  "compiler": {
    "name": "solc",
    "version": "0.8.10+commit.fc410830.Emscripten.clang"
  },
  "schemaVersion": "3.4.7",
  "updatedAt": "2022-04-28T12:54:44.811Z",
  "networkType": "ethereum",
  "devdoc": {
    "kind": "dev",
    "methods": {
      "addController(address[])": {
        "params": {
          "_controllers": "- The addresses to enable"
        }
      },
      "allowance(address,address)": {
        "details": "See {IERC20-allowance}."
      },
      "approve(address,uint256)": {
        "details": "See {IERC20-approve}. NOTE: If `amount` is the maximum `uint256`, the allowance is not updated on `transferFrom`. This is semantically equivalent to an infinite approval. Requirements: - `spender` cannot be the zero address."
      },
      "balanceOf(address)": {
        "details": "See {IERC20-balanceOf}."
      },
      "burn(address,uint256)": {
        "params": {
          "amount": "- The amount of food tokens to burn",
          "from": "- The holder of the food token"
        }
      },
      "cap()": {
        "details": "Returns the cap on the token's total supply."
      },
      "controller(address)": {
        "params": {
          "_controller": "- The address to check"
        }
      },
      "decimals()": {
        "details": "Returns the number of decimals used to get its user representation. For example, if `decimals` equals `2`, a balance of `505` tokens should be displayed to a user as `5.05` (`505 / 10 ** 2`). Tokens usually opt for a value of 18, imitating the relationship between Ether and Wei. This is the value {ERC20} uses, unless this function is overridden; NOTE: This information is only used for _display_ purposes: it in no way affects any of the arithmetic of the contract, including {IERC20-balanceOf} and {IERC20-transfer}."
      },
      "decreaseAllowance(address,uint256)": {
        "details": "Atomically decreases the allowance granted to `spender` by the caller. This is an alternative to {approve} that can be used as a mitigation for problems described in {IERC20-approve}. Emits an {Approval} event indicating the updated allowance. Requirements: - `spender` cannot be the zero address. - `spender` must have allowance for the caller of at least `subtractedValue`."
      },
      "increaseAllowance(address,uint256)": {
        "details": "Atomically increases the allowance granted to `spender` by the caller. This is an alternative to {approve} that can be used as a mitigation for problems described in {IERC20-approve}. Emits an {Approval} event indicating the updated allowance. Requirements: - `spender` cannot be the zero address."
      },
      "mint(address,uint256)": {
        "params": {
          "amount": "- The amount of food tokens to mint",
          "to": "- The recipient of the food token"
        }
      },
      "name()": {
        "details": "Returns the name of the token."
      },
      "owner()": {
        "details": "Returns the address of the current owner."
      },
      "removeController(address[])": {
        "params": {
          "_controllers": "- The addresses to disable"
        }
      },
      "renounceOwnership()": {
        "details": "Leaves the contract without owner. It will not be possible to call `onlyOwner` functions anymore. Can only be called by the current owner. NOTE: Renouncing ownership will leave the contract without an owner, thereby removing any functionality that is only available to the owner."
      },
      "symbol()": {
        "details": "Returns the symbol of the token, usually a shorter version of the name."
      },
      "totalSupply()": {
        "details": "See {IERC20-totalSupply}."
      },
      "transfer(address,uint256)": {
        "details": "See {IERC20-transfer}. Requirements: - `to` cannot be the zero address. - the caller must have a balance of at least `amount`."
      },
      "transferFrom(address,address,uint256)": {
        "details": "See {IERC20-transferFrom}. Emits an {Approval} event indicating the updated allowance. This is not required by the EIP. See the note at the beginning of {ERC20}. NOTE: Does not update the allowance if the current allowance is the maximum `uint256`. Requirements: - `from` and `to` cannot be the zero address. - `from` must have a balance of at least `amount`. - the caller must have allowance for ``from``'s tokens of at least `amount`."
      },
      "transferOwnership(address)": {
        "details": "Transfers ownership of the contract to a new account (`newOwner`). Can only be called by the current owner."
      }
    },
    "version": 1
  },
  "userdoc": {
    "kind": "user",
    "methods": {
      "addController(address[])": {
        "notice": "Enables multiple addresses to execute"
      },
      "burn(address,uint256)": {
        "notice": "Burns food tokens from a holder"
      },
      "controller(address)": {
        "notice": "Gets controller status by address"
      },
      "mint(address,uint256)": {
        "notice": "Mints the implementation food token to the recipient"
      },
      "removeController(address[])": {
        "notice": "Prevents multiple addresses from executing"
      }
    },
    "version": 1
  }
}