{
  "contractName": "Gym",
  "abi": [
    {
      "anonymous": false,
      "inputs": [
        {
          "indexed": false,
          "internalType": "uint256",
          "name": "tokenId",
          "type": "uint256"
        },
        {
          "indexed": false,
          "internalType": "uint256",
          "name": "earned",
          "type": "uint256"
        },
        {
          "indexed": false,
          "internalType": "bool",
          "name": "unstaked",
          "type": "bool"
        },
        {
          "indexed": false,
          "internalType": "uint8",
          "name": "skill",
          "type": "uint8"
        },
        {
          "indexed": false,
          "internalType": "uint8",
          "name": "insanity",
          "type": "uint8"
        },
        {
          "indexed": false,
          "internalType": "string",
          "name": "eventName",
          "type": "string"
        },
        {
          "indexed": false,
          "internalType": "uint256",
          "name": "foodTokensPerRat",
          "type": "uint256"
        }
      ],
      "name": "ChefClaimed",
      "type": "event"
    },
    {
      "anonymous": false,
      "inputs": [
        {
          "indexed": true,
          "internalType": "address",
          "name": "previousOwner",
          "type": "address"
        },
        {
          "indexed": true,
          "internalType": "address",
          "name": "newOwner",
          "type": "address"
        }
      ],
      "name": "OwnershipTransferred",
      "type": "event"
    },
    {
      "anonymous": false,
      "inputs": [
        {
          "indexed": false,
          "internalType": "address",
          "name": "account",
          "type": "address"
        }
      ],
      "name": "Paused",
      "type": "event"
    },
    {
      "anonymous": false,
      "inputs": [
        {
          "indexed": false,
          "internalType": "uint256",
          "name": "tokenId",
          "type": "uint256"
        },
        {
          "indexed": false,
          "internalType": "uint256",
          "name": "earned",
          "type": "uint256"
        },
        {
          "indexed": false,
          "internalType": "bool",
          "name": "unstaked",
          "type": "bool"
        },
        {
          "indexed": false,
          "internalType": "uint8",
          "name": "intelligence",
          "type": "uint8"
        },
        {
          "indexed": false,
          "internalType": "uint8",
          "name": "fatness",
          "type": "uint8"
        },
        {
          "indexed": false,
          "internalType": "string",
          "name": "eventName",
          "type": "string"
        }
      ],
      "name": "RatClaimed",
      "type": "event"
    },
    {
      "anonymous": false,
      "inputs": [
        {
          "indexed": false,
          "internalType": "uint256",
          "name": "tokenId",
          "type": "uint256"
        },
        {
          "indexed": false,
          "internalType": "address",
          "name": "owner",
          "type": "address"
        },
        {
          "indexed": false,
          "internalType": "uint256",
          "name": "value",
          "type": "uint256"
        }
      ],
      "name": "TokenStaked",
      "type": "event"
    },
    {
      "anonymous": false,
      "inputs": [
        {
          "indexed": false,
          "internalType": "address",
          "name": "account",
          "type": "address"
        }
      ],
      "name": "Unpaused",
      "type": "event"
    },
    {
      "inputs": [],
      "name": "accrualPeriod",
      "outputs": [
        {
          "internalType": "uint256",
          "name": "",
          "type": "uint256"
        }
      ],
      "stateMutability": "view",
      "type": "function",
      "constant": true
    },
    {
      "inputs": [
        {
          "internalType": "uint256",
          "name": "",
          "type": "uint256"
        }
      ],
      "name": "chefs",
      "outputs": [
        {
          "internalType": "uint256",
          "name": "tokenId",
          "type": "uint256"
        },
        {
          "internalType": "address",
          "name": "owner",
          "type": "address"
        },
        {
          "internalType": "uint80",
          "name": "value",
          "type": "uint80"
        },
        {
          "internalType": "uint80",
          "name": "timestamp",
          "type": "uint80"
        }
      ],
      "stateMutability": "view",
      "type": "function",
      "constant": true
    },
    {
      "inputs": [
        {
          "internalType": "uint16[]",
          "name": "tokenIds",
          "type": "uint16[]"
        },
        {
          "internalType": "bool",
          "name": "unstake",
          "type": "bool"
        }
      ],
      "name": "claimMany",
      "outputs": [],
      "stateMutability": "nonpayable",
      "type": "function"
    },
    {
      "inputs": [],
      "name": "dailyFatnessRate",
      "outputs": [
        {
          "internalType": "int8",
          "name": "",
          "type": "int8"
        }
      ],
      "stateMutability": "view",
      "type": "function",
      "constant": true
    },
    {
      "inputs": [],
      "name": "dailyInsanityRate",
      "outputs": [
        {
          "internalType": "int8",
          "name": "",
          "type": "int8"
        }
      ],
      "stateMutability": "view",
      "type": "function",
      "constant": true
    },
    {
      "inputs": [],
      "name": "dailyIntelligenceRate",
      "outputs": [
        {
          "internalType": "int8",
          "name": "",
          "type": "int8"
        }
      ],
      "stateMutability": "view",
      "type": "function",
      "constant": true
    },
    {
      "inputs": [],
      "name": "dailySkillRate",
      "outputs": [
        {
          "internalType": "int8",
          "name": "",
          "type": "int8"
        }
      ],
      "stateMutability": "view",
      "type": "function",
      "constant": true
    },
    {
      "inputs": [],
      "name": "foodTokensPerRat",
      "outputs": [
        {
          "internalType": "uint256",
          "name": "",
          "type": "uint256"
        }
      ],
      "stateMutability": "view",
      "type": "function",
      "constant": true
    },
    {
      "inputs": [
        {
          "internalType": "uint256",
          "name": "tokenId",
          "type": "uint256"
        }
      ],
      "name": "getProperties",
      "outputs": [
        {
          "internalType": "uint8",
          "name": "efficiency",
          "type": "uint8"
        },
        {
          "internalType": "uint8",
          "name": "tolerance",
          "type": "uint8"
        }
      ],
      "stateMutability": "view",
      "type": "function",
      "constant": true
    },
    {
      "inputs": [
        {
          "internalType": "uint256",
          "name": "tokenId",
          "type": "uint256"
        }
      ],
      "name": "isChef",
      "outputs": [
        {
          "internalType": "bool",
          "name": "chef",
          "type": "bool"
        }
      ],
      "stateMutability": "view",
      "type": "function",
      "constant": true
    },
    {
      "inputs": [
        {
          "internalType": "address",
          "name": "",
          "type": "address"
        },
        {
          "internalType": "address",
          "name": "from",
          "type": "address"
        },
        {
          "internalType": "uint256",
          "name": "",
          "type": "uint256"
        },
        {
          "internalType": "bytes",
          "name": "",
          "type": "bytes"
        }
      ],
      "name": "onERC721Received",
      "outputs": [
        {
          "internalType": "bytes4",
          "name": "",
          "type": "bytes4"
        }
      ],
      "stateMutability": "pure",
      "type": "function",
      "constant": true
    },
    {
      "inputs": [],
      "name": "owner",
      "outputs": [
        {
          "internalType": "address",
          "name": "",
          "type": "address"
        }
      ],
      "stateMutability": "view",
      "type": "function",
      "constant": true
    },
    {
      "inputs": [],
      "name": "paused",
      "outputs": [
        {
          "internalType": "bool",
          "name": "",
          "type": "bool"
        }
      ],
      "stateMutability": "view",
      "type": "function",
      "constant": true
    },
    {
      "inputs": [
        {
          "internalType": "uint256",
          "name": "",
          "type": "uint256"
        }
      ],
      "name": "rats",
      "outputs": [
        {
          "internalType": "uint256",
          "name": "tokenId",
          "type": "uint256"
        },
        {
          "internalType": "address",
          "name": "owner",
          "type": "address"
        },
        {
          "internalType": "uint80",
          "name": "value",
          "type": "uint80"
        },
        {
          "internalType": "uint80",
          "name": "timestamp",
          "type": "uint80"
        }
      ],
      "stateMutability": "view",
      "type": "function",
      "constant": true
    },
    {
      "inputs": [],
      "name": "renounceOwnership",
      "outputs": [],
      "stateMutability": "nonpayable",
      "type": "function"
    },
    {
      "inputs": [
        {
          "internalType": "address",
          "name": "account",
          "type": "address"
        },
        {
          "internalType": "uint16[]",
          "name": "tokenIds",
          "type": "uint16[]"
        }
      ],
      "name": "stakeMany",
      "outputs": [],
      "stateMutability": "nonpayable",
      "type": "function"
    },
    {
      "inputs": [
        {
          "internalType": "address",
          "name": "",
          "type": "address"
        },
        {
          "internalType": "uint256",
          "name": "",
          "type": "uint256"
        }
      ],
      "name": "stakers",
      "outputs": [
        {
          "internalType": "uint256",
          "name": "",
          "type": "uint256"
        }
      ],
      "stateMutability": "view",
      "type": "function",
      "constant": true
    },
    {
      "inputs": [],
      "name": "totalChefsStaked",
      "outputs": [
        {
          "internalType": "uint256",
          "name": "",
          "type": "uint256"
        }
      ],
      "stateMutability": "view",
      "type": "function",
      "constant": true
    },
    {
      "inputs": [],
      "name": "totalRatsStaked",
      "outputs": [
        {
          "internalType": "uint256",
          "name": "",
          "type": "uint256"
        }
      ],
      "stateMutability": "view",
      "type": "function",
      "constant": true
    },
    {
      "inputs": [
        {
          "internalType": "address",
          "name": "newOwner",
          "type": "address"
        }
      ],
      "name": "transferOwnership",
      "outputs": [],
      "stateMutability": "nonpayable",
      "type": "function"
    },
    {
      "inputs": [],
      "name": "vestingPeriod",
      "outputs": [
        {
          "internalType": "uint256",
          "name": "",
          "type": "uint256"
        }
      ],
      "stateMutability": "view",
      "type": "function",
      "constant": true
    },
    {
      "inputs": [
        {
          "internalType": "address",
          "name": "_character",
          "type": "address"
        },
        {
          "internalType": "uint256",
          "name": "_vestingPeriod",
          "type": "uint256"
        },
        {
          "internalType": "uint256",
          "name": "_accrualPeriod",
          "type": "uint256"
        },
        {
          "internalType": "int8",
          "name": "_dailyInsanityRate",
          "type": "int8"
        },
        {
          "internalType": "int8",
          "name": "_dailyFatnessRate",
          "type": "int8"
        }
      ],
      "name": "initialize",
      "outputs": [],
      "stateMutability": "nonpayable",
      "type": "function"
    },
    {
      "inputs": [
        {
          "internalType": "address",
          "name": "_character",
          "type": "address"
        },
        {
          "internalType": "uint256",
          "name": "_accrualPeriod",
          "type": "uint256"
        }
      ],
      "name": "initialize",
      "outputs": [],
      "stateMutability": "nonpayable",
      "type": "function"
    }
  ],
  "bytecode": "0x608060405234801561001057600080fd5b50613f54806100206000396000f3fe608060405234801561001057600080fd5b506004361061014d5760003560e01c80638da5cb5b116100c3578063cd6dc6871161007c578063cd6dc68714610399578063dbdc1f6b146103b5578063ef9f800f146103d1578063f266674614610401578063f2fde38b1461041f578063f66641551461043b5761014d565b80638da5cb5b146102d5578063a262c0ad146102f3578063a7a1029014610311578063bdb629411461032d578063c8b6cbf71461034b578063cba88af81461037b5761014d565b8063499f801011610115578063499f8010146102225780634d1c61af1461024057806356d4388e146102735780635c975abb1461028f578063715018a6146102ad5780637313ee5a146102b75761014d565b806310d53df114610152578063150b7a02146101705780631b8ca217146101a05780632535a77f146101d157806335ec066e146101ef575b600080fd5b61015a610459565b6040516101679190612a90565b60405180910390f35b61018a60048036038101906101859190612bb8565b61046c565b6040516101979190612c7b565b60405180910390f35b6101ba60048036038101906101b59190612c96565b6104ef565b6040516101c8929190612cdf565b60405180910390f35b6101d96105d0565b6040516101e69190612d17565b60405180910390f35b61020960048036038101906102049190612c96565b6105d6565b6040516102199493929190612d66565b60405180910390f35b61022a610652565b6040516102379190612d17565b60405180910390f35b61025a60048036038101906102559190612c96565b610658565b60405161026a9493929190612d66565b60405180910390f35b61028d60048036038101906102889190612dd7565b6106d4565b005b610297610858565b6040516102a49190612e6d565b60405180910390f35b6102b561086f565b005b6102bf6108f7565b6040516102cc9190612d17565b60405180910390f35b6102dd6108fd565b6040516102ea9190612e88565b60405180910390f35b6102fb610927565b6040516103089190612a90565b60405180910390f35b61032b60048036038101906103269190612f25565b61093a565b005b610335610d11565b6040516103429190612a90565b60405180910390f35b61036560048036038101906103609190612f85565b610d24565b6040516103729190612d17565b60405180910390f35b610383610d55565b6040516103909190612a90565b60405180910390f35b6103b360048036038101906103ae9190612f85565b610d68565b005b6103cf60048036038101906103ca9190612fc5565b610f22565b005b6103eb60048036038101906103e69190612c96565b6114a7565b6040516103f89190612e6d565b60405180910390f35b61040961157c565b6040516104169190612d17565b60405180910390f35b61043960048036038101906104349190613025565b611582565b005b61044361167a565b6040516104509190612d17565b60405180910390f35b609b60009054906101000a900460000b81565b60008073ffffffffffffffffffffffffffffffffffffffff168573ffffffffffffffffffffffffffffffffffffffff16146104dc576040517f08c379a00000000000000000000000000000000000000000000000000000000081526004016104d3906130d5565b60405180910390fd5b63150b7a0260e01b905095945050505050565b600080609760009054906101000a900473ffffffffffffffffffffffffffffffffffffffff1673ffffffffffffffffffffffffffffffffffffffff1663e05c57bf846040518263ffffffff1660e01b815260040161054d9190612d17565b61014060405180830381865afa15801561056b573d6000803e3d6000fd5b505050506040513d601f19601f8201168201806040525081019061058f9190613136565b909192939495969798509091929394959697509091929394959650909192939495509091929394509091929350909192509091508092508193505050915091565b609f5481565b60996020528060005260406000206000915090508060000154908060010160009054906101000a900473ffffffffffffffffffffffffffffffffffffffff16908060010160149054906101000a900469ffffffffffffffffffff16908060020160009054906101000a900469ffffffffffffffffffff16905084565b609d5481565b60986020528060005260406000206000915090508060000154908060010160009054906101000a900473ffffffffffffffffffffffffffffffffffffffff16908060010160149054906101000a900469ffffffffffffffffffff16908060020160009054906101000a900469ffffffffffffffffffff16905084565b600060019054906101000a900460ff166106fc5760008054906101000a900460ff1615610705565b610704611680565b5b610744576040517f08c379a000000000000000000000000000000000000000000000000000000000815260040161073b90613287565b60405180910390fd5b60008060019054906101000a900460ff161590508015610794576001600060016101000a81548160ff02191690831515021790555060016000806101000a81548160ff0219169083151502179055505b61079c611691565b6107a46116f2565b85609760006101000a81548173ffffffffffffffffffffffffffffffffffffffff021916908373ffffffffffffffffffffffffffffffffffffffff1602179055508460a08190555083609e8190555082609b60016101000a81548160ff021916908360000b60ff16021790555081609b60036101000a81548160ff021916908360000b60ff16021790555080156108505760008060016101000a81548160ff0219169083151502179055505b505050505050565b6000606560009054906101000a900460ff16905090565b610877611753565b73ffffffffffffffffffffffffffffffffffffffff166108956108fd565b73ffffffffffffffffffffffffffffffffffffffff16146108eb576040517f08c379a00000000000000000000000000000000000000000000000000000000081526004016108e2906132f3565b60405180910390fd5b6108f5600061175b565b565b60a05481565b6000603360009054906101000a900473ffffffffffffffffffffffffffffffffffffffff16905090565b609b60029054906101000a900460000b81565b610942610858565b15610982576040517f08c379a00000000000000000000000000000000000000000000000000000000081526004016109799061335f565b60405180910390fd5b600061098c611753565b90506000805b85859050811015610cf65760006109a96000611821565b90506109df8787848181106109c1576109c061337f565b5b90506020020160208101906109d691906133e8565b61ffff166114a7565b15610a3657610a248787848181106109fa576109f961337f565b5b9050602002016020810190610a0f91906133e8565b61ffff16821580610a1d5750865b831561182c565b83610a2f9190613444565b9250610a84565b610a76878784818110610a4c57610a4b61337f565b5b9050602002016020810190610a6191906133e8565b61ffff16821580610a6f5750865b8315611cf1565b83610a819190613444565b92505b60005b609a60008673ffffffffffffffffffffffffffffffffffffffff1673ffffffffffffffffffffffffffffffffffffffff16815260200190815260200160002080549050811015610ce157878784818110610ae457610ae361337f565b5b9050602002016020810190610af991906133e8565b61ffff16609a60008773ffffffffffffffffffffffffffffffffffffffff1673ffffffffffffffffffffffffffffffffffffffff1681526020019081526020016000208281548110610b4e57610b4d61337f565b5b90600052602060002001541415610cce57609a60008673ffffffffffffffffffffffffffffffffffffffff1673ffffffffffffffffffffffffffffffffffffffff1681526020019081526020016000206001609a60008873ffffffffffffffffffffffffffffffffffffffff1673ffffffffffffffffffffffffffffffffffffffff16815260200190815260200160002080549050610bed919061349a565b81548110610bfe57610bfd61337f565b5b9060005260206000200154609a60008773ffffffffffffffffffffffffffffffffffffffff1673ffffffffffffffffffffffffffffffffffffffff1681526020019081526020016000208281548110610c5a57610c5961337f565b5b9060005260206000200181905550609a60008673ffffffffffffffffffffffffffffffffffffffff1673ffffffffffffffffffffffffffffffffffffffff168152602001908152602001600020805480610cb757610cb66134ce565b5b600190038181906000526020600020016000905590555b8080610cd9906134fd565b915050610a87565b50508080610cee906134fd565b915050610992565b506000811115610d0a57610d09816121b9565b5b5050505050565b609b60019054906101000a900460000b81565b609a6020528160005260406000208181548110610d4057600080fd5b90600052602060002001600091509150505481565b609b60039054906101000a900460000b81565b600060019054906101000a900460ff16610d905760008054906101000a900460ff1615610d99565b610d98611680565b5b610dd8576040517f08c379a0000000000000000000000000000000000000000000000000000000008152600401610dcf90613287565b60405180910390fd5b60008060019054906101000a900460ff161590508015610e28576001600060016101000a81548160ff02191690831515021790555060016000806101000a81548160ff0219169083151502179055505b610e30611691565b610e386116f2565b82609760006101000a81548173ffffffffffffffffffffffffffffffffffffffff021916908373ffffffffffffffffffffffffffffffffffffffff16021790555081609e819055506000609b60006101000a81548160ff021916908360000b60ff1602179055506000609b60016101000a81548160ff021916908360000b60ff1602179055506000609b60026101000a81548160ff021916908360000b60ff1602179055506000609b60036101000a81548160ff021916908360000b60ff1602179055508015610f1d5760008060016101000a81548160ff0219169083151502179055505b505050565b610f2a611753565b73ffffffffffffffffffffffffffffffffffffffff168373ffffffffffffffffffffffffffffffffffffffff161480610fb75750609760009054906101000a900473ffffffffffffffffffffffffffffffffffffffff1673ffffffffffffffffffffffffffffffffffffffff16610f9f611753565b73ffffffffffffffffffffffffffffffffffffffff16145b610ff6576040517f08c379a0000000000000000000000000000000000000000000000000000000008152600401610fed90613592565b60405180910390fd5b61100282829050611821565b611041576040517f08c379a0000000000000000000000000000000000000000000000000000000008152600401611038906135fe565b60405180910390fd5b60005b828290508110156114a157609760009054906101000a900473ffffffffffffffffffffffffffffffffffffffff1673ffffffffffffffffffffffffffffffffffffffff16611090611753565b73ffffffffffffffffffffffffffffffffffffffff16146112a6576110b3611753565b73ffffffffffffffffffffffffffffffffffffffff16609760009054906101000a900473ffffffffffffffffffffffffffffffffffffffff1673ffffffffffffffffffffffffffffffffffffffff16636352211e85858581811061111a5761111961337f565b5b905060200201602081019061112f91906133e8565b6040518263ffffffff1660e01b815260040161114b9190613659565b602060405180830381865afa158015611168573d6000803e3d6000fd5b505050506040513d601f19601f8201168201806040525081019061118c9190613689565b73ffffffffffffffffffffffffffffffffffffffff16146111e2576040517f08c379a00000000000000000000000000000000000000000000000000000000081526004016111d990613702565b60405180910390fd5b609760009054906101000a900473ffffffffffffffffffffffffffffffffffffffff1673ffffffffffffffffffffffffffffffffffffffff166323b872dd611228611753565b3086868681811061123c5761123b61337f565b5b905060200201602081019061125191906133e8565b6040518463ffffffff1660e01b815260040161126f93929190613722565b600060405180830381600087803b15801561128957600080fd5b505af115801561129d573d6000803e3d6000fd5b505050506112e0565b60008383838181106112bb576112ba61337f565b5b90506020020160208101906112d091906133e8565b61ffff1614156112df5761148e565b5b6113148383838181106112f6576112f561337f565b5b905060200201602081019061130b91906133e8565b61ffff166121bc565b611353576040517f08c379a000000000000000000000000000000000000000000000000000000000815260040161134a906137a5565b60405180910390fd5b6113878383838181106113695761136861337f565b5b905060200201602081019061137e91906133e8565b61ffff166114a7565b156113c6576113c1848484848181106113a3576113a261337f565b5b90506020020160208101906113b891906133e8565b61ffff166121c7565b6113fc565b6113fb848484848181106113dd576113dc61337f565b5b90506020020160208101906113f291906133e8565b61ffff16612386565b5b609a60008573ffffffffffffffffffffffffffffffffffffffff1673ffffffffffffffffffffffffffffffffffffffff16815260200190815260200160002083838381811061144e5761144d61337f565b5b905060200201602081019061146391906133e8565b908060018154018082558091505060019003906000526020600020016000909161ffff169091909150555b8080611499906134fd565b915050611044565b50505050565b6000609760009054906101000a900473ffffffffffffffffffffffffffffffffffffffff1673ffffffffffffffffffffffffffffffffffffffff1663e05c57bf836040518263ffffffff1660e01b81526004016115049190612d17565b61014060405180830381865afa158015611522573d6000803e3d6000fd5b505050506040513d601f19601f820116820180604052508101906115469190613136565b90919293949596975090919293949596509091929394955090919293945090919293509091925090915090505080915050919050565b609c5481565b61158a611753565b73ffffffffffffffffffffffffffffffffffffffff166115a86108fd565b73ffffffffffffffffffffffffffffffffffffffff16146115fe576040517f08c379a00000000000000000000000000000000000000000000000000000000081526004016115f5906132f3565b60405180910390fd5b600073ffffffffffffffffffffffffffffffffffffffff168173ffffffffffffffffffffffffffffffffffffffff16141561166e576040517f08c379a000000000000000000000000000000000000000000000000000000000815260040161166590613837565b60405180910390fd5b6116778161175b565b50565b609e5481565b600061168b3061254e565b15905090565b600060019054906101000a900460ff166116e0576040517f08c379a00000000000000000000000000000000000000000000000000000000081526004016116d7906138c9565b60405180910390fd5b6116e8612561565b6116f06125b2565b565b600060019054906101000a900460ff16611741576040517f08c379a0000000000000000000000000000000000000000000000000000000008152600401611738906138c9565b60405180910390fd5b611749612561565b611751612613565b565b600033905090565b6000603360009054906101000a900473ffffffffffffffffffffffffffffffffffffffff16905081603360006101000a81548173ffffffffffffffffffffffffffffffffffffffff021916908373ffffffffffffffffffffffffffffffffffffffff1602179055508173ffffffffffffffffffffffffffffffffffffffff168173ffffffffffffffffffffffffffffffffffffffff167f8be0079c531659141344cd1fd0a4f28419497f9722a3daafe3b4186f6b6457e060405160405180910390a35050565b600060019050919050565b60008060986000868152602001908152602001600020604051806080016040529081600082015481526020016001820160009054906101000a900473ffffffffffffffffffffffffffffffffffffffff1673ffffffffffffffffffffffffffffffffffffffff1673ffffffffffffffffffffffffffffffffffffffff1681526020016001820160149054906101000a900469ffffffffffffffffffff1669ffffffffffffffffffff1669ffffffffffffffffffff1681526020016002820160009054906101000a900469ffffffffffffffffffff1669ffffffffffffffffffff1669ffffffffffffffffffff16815250509050611927611753565b73ffffffffffffffffffffffffffffffffffffffff16816020015173ffffffffffffffffffffffffffffffffffffffff1614611998576040517f08c379a000000000000000000000000000000000000000000000000000000000815260040161198f90613702565b60405180910390fd5b8380156119c1575060a054816060015169ffffffffffffffffffff16426119bf919061349a565b105b15611a01576040517f08c379a00000000000000000000000000000000000000000000000000000000081526004016119f890613935565b60405180910390fd5b82611a1457611a0f8161267f565b611a17565b60005b91506000806000611a2788612686565b925092509250611a36886121bc565b611a3f57600196505b8615611b7957609760009054906101000a900473ffffffffffffffffffffffffffffffffffffffff1673ffffffffffffffffffffffffffffffffffffffff1663b88d4fde30611a8c611753565b8b6040518463ffffffff1660e01b8152600401611aab9392919061398c565b600060405180830381600087803b158015611ac557600080fd5b505af1158015611ad9573d6000803e3d6000fd5b50505050609860008981526020019081526020016000206000808201600090556001820160006101000a81549073ffffffffffffffffffffffffffffffffffffffff02191690556001820160146101000a81549069ffffffffffffffffffff02191690556002820160006101000a81549069ffffffffffffffffffff02191690555050609c6000815480929190611b6f906139d6565b9190505550611ca1565b60405180608001604052808961ffff168152602001611b96611753565b73ffffffffffffffffffffffffffffffffffffffff1681526020014269ffffffffffffffffffff1681526020014269ffffffffffffffffffff16815250609860008a81526020019081526020016000206000820151816000015560208201518160010160006101000a81548173ffffffffffffffffffffffffffffffffffffffff021916908373ffffffffffffffffffffffffffffffffffffffff16021790555060408201518160010160146101000a81548169ffffffffffffffffffff021916908369ffffffffffffffffffff16021790555060608201518160020160006101000a81548169ffffffffffffffffffff021916908369ffffffffffffffffffff1602179055509050505b7f9b394c66bc4fdb2f56f5842a796076e6552d6f15eaacb6e63e3c53b474d872e9888689868686609f54604051611cde9796959493929190613a88565b60405180910390a1505050509392505050565b60008060996000868152602001908152602001600020604051806080016040529081600082015481526020016001820160009054906101000a900473ffffffffffffffffffffffffffffffffffffffff1673ffffffffffffffffffffffffffffffffffffffff1673ffffffffffffffffffffffffffffffffffffffff1681526020016001820160149054906101000a900469ffffffffffffffffffff1669ffffffffffffffffffff1669ffffffffffffffffffff1681526020016002820160009054906101000a900469ffffffffffffffffffff1669ffffffffffffffffffff1669ffffffffffffffffffff16815250509050611dec611753565b73ffffffffffffffffffffffffffffffffffffffff16816020015173ffffffffffffffffffffffffffffffffffffffff1614611e5d576040517f08c379a0000000000000000000000000000000000000000000000000000000008152600401611e5490613702565b60405180910390fd5b838015611e86575060a054816060015169ffffffffffffffffffff1642611e84919061349a565b105b15611ec6576040517f08c379a0000000000000000000000000000000000000000000000000000000008152600401611ebd90613935565b60405180910390fd5b82611ed957611ed4816129d8565b611edc565b60005b91506000806000611eec88612686565b925092509250611efb886121bc565b611f0457600196505b861561203e57609760009054906101000a900473ffffffffffffffffffffffffffffffffffffffff1673ffffffffffffffffffffffffffffffffffffffff1663b88d4fde30611f51611753565b8b6040518463ffffffff1660e01b8152600401611f709392919061398c565b600060405180830381600087803b158015611f8a57600080fd5b505af1158015611f9e573d6000803e3d6000fd5b50505050609960008981526020019081526020016000206000808201600090556001820160006101000a81549073ffffffffffffffffffffffffffffffffffffffff02191690556001820160146101000a81549069ffffffffffffffffffff02191690556002820160006101000a81549069ffffffffffffffffffff02191690555050609d6000815480929190612034906139d6565b919050555061216d565b60405180608001604052808961ffff16815260200161205b611753565b73ffffffffffffffffffffffffffffffffffffffff16815260200161207e6129df565b69ffffffffffffffffffff1681526020014269ffffffffffffffffffff16815250609960008a81526020019081526020016000206000820151816000015560208201518160010160006101000a81548173ffffffffffffffffffffffffffffffffffffffff021916908373ffffffffffffffffffffffffffffffffffffffff16021790555060408201518160010160146101000a81548169ffffffffffffffffffff021916908369ffffffffffffffffffff16021790555060608201518160020160006101000a81548169ffffffffffffffffffff021916908369ffffffffffffffffffff1602179055509050505b7f6e949c62565860afb9dd6295e998a1c40005fe9560aedf8d596717681cfc7a1f8886898686866040516121a696959493929190613afe565b60405180910390a1505050509392505050565b50565b600060019050919050565b6121cf610858565b1561220f576040517f08c379a00000000000000000000000000000000000000000000000000000000081526004016122069061335f565b60405180910390fd5b60405180608001604052808261ffff1681526020018373ffffffffffffffffffffffffffffffffffffffff1681526020014269ffffffffffffffffffff1681526020014269ffffffffffffffffffff16815250609860008381526020019081526020016000206000820151816000015560208201518160010160006101000a81548173ffffffffffffffffffffffffffffffffffffffff021916908373ffffffffffffffffffffffffffffffffffffffff16021790555060408201518160010160146101000a81548169ffffffffffffffffffff021916908369ffffffffffffffffffff16021790555060608201518160020160006101000a81548169ffffffffffffffffffff021916908369ffffffffffffffffffff160217905550905050609c6000815480929190612342906134fd565b91905055507f8af1bb49fb16c7835975aa59449ba4328dd54737dfb2ae9fa6c5eca71fda51f981834260405161237a93929190613b66565b60405180910390a15050565b61238e610858565b156123ce576040517f08c379a00000000000000000000000000000000000000000000000000000000081526004016123c59061335f565b60405180910390fd5b60405180608001604052808261ffff1681526020018373ffffffffffffffffffffffffffffffffffffffff1681526020016124076129df565b69ffffffffffffffffffff1681526020014269ffffffffffffffffffff16815250609960008381526020019081526020016000206000820151816000015560208201518160010160006101000a81548173ffffffffffffffffffffffffffffffffffffffff021916908373ffffffffffffffffffffffffffffffffffffffff16021790555060408201518160010160146101000a81548169ffffffffffffffffffff021916908369ffffffffffffffffffff16021790555060608201518160020160006101000a81548169ffffffffffffffffffff021916908369ffffffffffffffffffff160217905550905050609d6000815480929190612508906134fd565b91905055507f8af1bb49fb16c7835975aa59449ba4328dd54737dfb2ae9fa6c5eca71fda51f98183609f5460405161254293929190613b66565b60405180910390a15050565b600080823b905060008111915050919050565b600060019054906101000a900460ff166125b0576040517f08c379a00000000000000000000000000000000000000000000000000000000081526004016125a7906138c9565b60405180910390fd5b565b600060019054906101000a900460ff16612601576040517f08c379a00000000000000000000000000000000000000000000000000000000081526004016125f8906138c9565b60405180910390fd5b61261161260c611753565b61175b565b565b600060019054906101000a900460ff16612662576040517f08c379a0000000000000000000000000000000000000000000000000000000008152600401612659906138c9565b60405180910390fd5b6000606560006101000a81548160ff021916908315150217905550565b6000919050565b6000806060600060986000868152602001908152602001600020604051806080016040529081600082015481526020016001820160009054906101000a900473ffffffffffffffffffffffffffffffffffffffff1673ffffffffffffffffffffffffffffffffffffffff1673ffffffffffffffffffffffffffffffffffffffff1681526020016001820160149054906101000a900469ffffffffffffffffffff1669ffffffffffffffffffff1669ffffffffffffffffffff1681526020016002820160009054906101000a900469ffffffffffffffffffff1669ffffffffffffffffffff1669ffffffffffffffffffff16815250509050600060996000878152602001908152602001600020604051806080016040529081600082015481526020016001820160009054906101000a900473ffffffffffffffffffffffffffffffffffffffff1673ffffffffffffffffffffffffffffffffffffffff1673ffffffffffffffffffffffffffffffffffffffff1681526020016001820160149054906101000a900469ffffffffffffffffffff1669ffffffffffffffffffff1669ffffffffffffffffffff1681526020016002820160009054906101000a900469ffffffffffffffffffff1669ffffffffffffffffffff1669ffffffffffffffffffff16815250509050600061287a876114a7565b61288857816060015161288e565b82606001515b69ffffffffffffffffffff16426128a5919061349a565b905060006128b2886114a7565b9050609760009054906101000a900473ffffffffffffffffffffffffffffffffffffffff1673ffffffffffffffffffffffffffffffffffffffff1663d8ffcfcb896129278461291057609b60029054906101000a900460000b612921565b609b60009054906101000a900460000b5b866129e4565b61295b8561294457609b60039054906101000a900460000b612955565b609b60019054906101000a900460000b5b876129e4565b6040518463ffffffff1660e01b815260040161297993929190613b9d565b6000604051808303816000875af1158015612998573d6000803e3d6000fd5b505050506040513d6000823e3d601f19601f820116820180604052508101906129c19190613cf5565b809750819850829950505050505050509193909250565b6000919050565b600090565b600080609e548460000b846129f99190613d6e565b612a039190613eb4565b90506064811315612a18576064915050612a6e565b7fffffffffffffffffffffffffffffffffffffffffffffffffffffffffffffff9c811215612a69577fffffffffffffffffffffffffffffffffffffffffffffffffffffffffffffff9c915050612a6e565b809150505b92915050565b60008160000b9050919050565b612a8a81612a74565b82525050565b6000602082019050612aa56000830184612a81565b92915050565b6000604051905090565b600080fd5b600080fd5b600073ffffffffffffffffffffffffffffffffffffffff82169050919050565b6000612aea82612abf565b9050919050565b612afa81612adf565b8114612b0557600080fd5b50565b600081359050612b1781612af1565b92915050565b6000819050919050565b612b3081612b1d565b8114612b3b57600080fd5b50565b600081359050612b4d81612b27565b92915050565b600080fd5b600080fd5b600080fd5b60008083601f840112612b7857612b77612b53565b5b8235905067ffffffffffffffff811115612b9557612b94612b58565b5b602083019150836001820283011115612bb157612bb0612b5d565b5b9250929050565b600080600080600060808688031215612bd457612bd3612ab5565b5b6000612be288828901612b08565b9550506020612bf388828901612b08565b9450506040612c0488828901612b3e565b935050606086013567ffffffffffffffff811115612c2557612c24612aba565b5b612c3188828901612b62565b92509250509295509295909350565b60007fffffffff0000000000000000000000000000000000000000000000000000000082169050919050565b612c7581612c40565b82525050565b6000602082019050612c906000830184612c6c565b92915050565b600060208284031215612cac57612cab612ab5565b5b6000612cba84828501612b3e565b91505092915050565b600060ff82169050919050565b612cd981612cc3565b82525050565b6000604082019050612cf46000830185612cd0565b612d016020830184612cd0565b9392505050565b612d1181612b1d565b82525050565b6000602082019050612d2c6000830184612d08565b92915050565b612d3b81612adf565b82525050565b600069ffffffffffffffffffff82169050919050565b612d6081612d41565b82525050565b6000608082019050612d7b6000830187612d08565b612d886020830186612d32565b612d956040830185612d57565b612da26060830184612d57565b95945050505050565b612db481612a74565b8114612dbf57600080fd5b50565b600081359050612dd181612dab565b92915050565b600080600080600060a08688031215612df357612df2612ab5565b5b6000612e0188828901612b08565b9550506020612e1288828901612b3e565b9450506040612e2388828901612b3e565b9350506060612e3488828901612dc2565b9250506080612e4588828901612dc2565b9150509295509295909350565b60008115159050919050565b612e6781612e52565b82525050565b6000602082019050612e826000830184612e5e565b92915050565b6000602082019050612e9d6000830184612d32565b92915050565b60008083601f840112612eb957612eb8612b53565b5b8235905067ffffffffffffffff811115612ed657612ed5612b58565b5b602083019150836020820283011115612ef257612ef1612b5d565b5b9250929050565b612f0281612e52565b8114612f0d57600080fd5b50565b600081359050612f1f81612ef9565b92915050565b600080600060408486031215612f3e57612f3d612ab5565b5b600084013567ffffffffffffffff811115612f5c57612f5b612aba565b5b612f6886828701612ea3565b93509350506020612f7b86828701612f10565b9150509250925092565b60008060408385031215612f9c57612f9b612ab5565b5b6000612faa85828601612b08565b9250506020612fbb85828601612b3e565b9150509250929050565b600080600060408486031215612fde57612fdd612ab5565b5b6000612fec86828701612b08565b935050602084013567ffffffffffffffff81111561300d5761300c612aba565b5b61301986828701612ea3565b92509250509250925092565b60006020828403121561303b5761303a612ab5565b5b600061304984828501612b08565b91505092915050565b600082825260208201905092915050565b7f43616e6e6f742073656e6420746f6b656e7320746f2056656e7565206469726560008201527f63746c7900000000000000000000000000000000000000000000000000000000602082015250565b60006130bf602483613052565b91506130ca82613063565b604082019050919050565b600060208201905081810360008301526130ee816130b2565b9050919050565b60008151905061310481612ef9565b92915050565b61311381612cc3565b811461311e57600080fd5b50565b6000815190506131308161310a565b92915050565b6000806000806000806000806000806101408b8d03121561315a57613159612ab5565b5b60006131688d828e016130f5565b9a505060206131798d828e01613121565b995050604061318a8d828e01613121565b985050606061319b8d828e01613121565b97505060806131ac8d828e01613121565b96505060a06131bd8d828e01613121565b95505060c06131ce8d828e01613121565b94505060e06131df8d828e01613121565b9350506101006131f18d828e01613121565b9250506101206132038d828e01613121565b9150509295989b9194979a5092959850565b7f496e697469616c697a61626c653a20636f6e747261637420697320616c72656160008201527f647920696e697469616c697a6564000000000000000000000000000000000000602082015250565b6000613271602e83613052565b915061327c82613215565b604082019050919050565b600060208201905081810360008301526132a081613264565b9050919050565b7f4f776e61626c653a2063616c6c6572206973206e6f7420746865206f776e6572600082015250565b60006132dd602083613052565b91506132e8826132a7565b602082019050919050565b6000602082019050818103600083015261330c816132d0565b9050919050565b7f5061757361626c653a2070617573656400000000000000000000000000000000600082015250565b6000613349601083613052565b915061335482613313565b602082019050919050565b600060208201905081810360008301526133788161333c565b9050919050565b7f4e487b7100000000000000000000000000000000000000000000000000000000600052603260045260246000fd5b600061ffff82169050919050565b6133c5816133ae565b81146133d057600080fd5b50565b6000813590506133e2816133bc565b92915050565b6000602082840312156133fe576133fd612ab5565b5b600061340c848285016133d3565b91505092915050565b7f4e487b7100000000000000000000000000000000000000000000000000000000600052601160045260246000fd5b600061344f82612b1d565b915061345a83612b1d565b9250827fffffffffffffffffffffffffffffffffffffffffffffffffffffffffffffffff0382111561348f5761348e613415565b5b828201905092915050565b60006134a582612b1d565b91506134b083612b1d565b9250828210156134c3576134c2613415565b5b828203905092915050565b7f4e487b7100000000000000000000000000000000000000000000000000000000600052603160045260246000fd5b600061350882612b1d565b91507fffffffffffffffffffffffffffffffffffffffffffffffffffffffffffffffff82141561353b5761353a613415565b5b600182019050919050565b7f446f206e6f74206c6f736520796f757220746f6b656e73000000000000000000600082015250565b600061357c601783613052565b915061358782613546565b602082019050919050565b600060208201905081810360008301526135ab8161356f565b9050919050565b7f4b69746368656e20737061636520726571756972656400000000000000000000600082015250565b60006135e8601683613052565b91506135f3826135b2565b602082019050919050565b60006020820190508181036000830152613617816135db565b9050919050565b6000819050919050565b600061364361363e613639846133ae565b61361e565b612b1d565b9050919050565b61365381613628565b82525050565b600060208201905061366e600083018461364a565b92915050565b60008151905061368381612af1565b92915050565b60006020828403121561369f5761369e612ab5565b5b60006136ad84828501613674565b91505092915050565b7f4e6f7420796f757220746f6b656e000000000000000000000000000000000000600082015250565b60006136ec600e83613052565b91506136f7826136b6565b602082019050919050565b6000602082019050818103600083015261371b816136df565b9050919050565b60006060820190506137376000830186612d32565b6137446020830185612d32565b613751604083018461364a565b949350505050565b7f4e6f7420656c696769626c650000000000000000000000000000000000000000600082015250565b600061378f600c83613052565b915061379a82613759565b602082019050919050565b600060208201905081810360008301526137be81613782565b9050919050565b7f4f776e61626c653a206e6577206f776e657220697320746865207a65726f206160008201527f6464726573730000000000000000000000000000000000000000000000000000602082015250565b6000613821602683613052565b915061382c826137c5565b604082019050919050565b6000602082019050818103600083015261385081613814565b9050919050565b7f496e697469616c697a61626c653a20636f6e7472616374206973206e6f74206960008201527f6e697469616c697a696e67000000000000000000000000000000000000000000602082015250565b60006138b3602b83613052565b91506138be82613857565b604082019050919050565b600060208201905081810360008301526138e2816138a6565b9050919050565b7f43616e6e6f74206c65617665206265666f726520454f42000000000000000000600082015250565b600061391f601783613052565b915061392a826138e9565b602082019050919050565b6000602082019050818103600083015261394e81613912565b9050919050565b600082825260208201905092915050565b50565b6000613976600083613955565b915061398182613966565b600082019050919050565b60006080820190506139a16000830186612d32565b6139ae6020830185612d32565b6139bb6040830184612d08565b81810360608301526139cc81613969565b9050949350505050565b60006139e182612b1d565b915060008214156139f5576139f4613415565b5b600182039050919050565b600081519050919050565b60005b83811015613a29578082015181840152602081019050613a0e565b83811115613a38576000848401525b50505050565b6000601f19601f8301169050919050565b6000613a5a82613a00565b613a648185613052565b9350613a74818560208601613a0b565b613a7d81613a3e565b840191505092915050565b600060e082019050613a9d600083018a612d08565b613aaa6020830189612d08565b613ab76040830188612e5e565b613ac46060830187612cd0565b613ad16080830186612cd0565b81810360a0830152613ae38185613a4f565b9050613af260c0830184612d08565b98975050505050505050565b600060c082019050613b136000830189612d08565b613b206020830188612d08565b613b2d6040830187612e5e565b613b3a6060830186612cd0565b613b476080830185612cd0565b81810360a0830152613b598184613a4f565b9050979650505050505050565b6000606082019050613b7b6000830186612d08565b613b886020830185612d32565b613b956040830184612d08565b949350505050565b6000606082019050613bb26000830186612d08565b613bbf6020830185612a81565b613bcc6040830184612a81565b949350505050565b600080fd5b7f4e487b7100000000000000000000000000000000000000000000000000000000600052604160045260246000fd5b613c1182613a3e565b810181811067ffffffffffffffff82111715613c3057613c2f613bd9565b5b80604052505050565b6000613c43612aab565b9050613c4f8282613c08565b919050565b600067ffffffffffffffff821115613c6f57613c6e613bd9565b5b613c7882613a3e565b9050602081019050919050565b6000613c98613c9384613c54565b613c39565b905082815260208101848484011115613cb457613cb3613bd4565b5b613cbf848285613a0b565b509392505050565b600082601f830112613cdc57613cdb612b53565b5b8151613cec848260208601613c85565b91505092915050565b600080600060608486031215613d0e57613d0d612ab5565b5b6000613d1c86828701613121565b9350506020613d2d86828701613121565b925050604084015167ffffffffffffffff811115613d4e57613d4d612aba565b5b613d5a86828701613cc7565b9150509250925092565b6000819050919050565b6000613d7982613d64565b9150613d8483613d64565b9250827f7fffffffffffffffffffffffffffffffffffffffffffffffffffffffffffffff0482116000841360008413161615613dc357613dc2613415565b5b817f80000000000000000000000000000000000000000000000000000000000000000583126000841260008413161615613e0057613dff613415565b5b827f80000000000000000000000000000000000000000000000000000000000000000582126000841360008412161615613e3d57613e3c613415565b5b827f7fffffffffffffffffffffffffffffffffffffffffffffffffffffffffffffff0582126000841260008412161615613e7a57613e79613415565b5b828202905092915050565b7f4e487b7100000000000000000000000000000000000000000000000000000000600052601260045260246000fd5b6000613ebf82613d64565b9150613eca83613d64565b925082613eda57613ed9613e85565b5b600160000383147f800000000000000000000000000000000000000000000000000000000000000083141615613f1357613f12613415565b5b82820590509291505056fea2646970667358221220a52cbf7e83994cbd52db53ec8174fd0724624055142d6a1c0dbdf8e181d4935164736f6c634300080a0033",
  "immutableReferences": {},
  "source": "// SPDX-License-Identifier: MIT\n\npragma solidity ^0.8.0;\n\nimport \"./Venue.sol\";\n\ncontract Gym is Venue {\n  function initialize(address _character, uint256 _vestingPeriod, uint256 _accrualPeriod, int8 _dailyInsanityRate, int8 _dailyFatnessRate) external initializer {\n    __Ownable_init();\n    __Pausable_init();\n\n    character = Character(_character);\n    vestingPeriod = _vestingPeriod;\n    accrualPeriod = _accrualPeriod;\n    dailyInsanityRate = _dailyInsanityRate;\n    dailyFatnessRate = _dailyFatnessRate;\n  }\n}\n",
  "sourcePath": "/Users/chris/workspace/ratalert/ratalert-contracts/contracts/Gym.sol",
  "compiler": {
    "name": "solc",
    "version": "0.8.10+commit.fc410830.Emscripten.clang"
  },
  "schemaVersion": "3.4.4",
  "updatedAt": "2022-02-18T12:35:14.791Z",
  "networkType": "ethereum",
  "devdoc": {
    "kind": "dev",
    "methods": {
      "claimMany(uint16[],bool)": {
        "params": {
          "tokenIds": "- The IDs of the tokens in question",
          "unstake": "- Whether or not to unstake the given tokens"
        }
      },
      "getProperties(uint256)": {
        "params": {
          "tokenId": "- The ID of the token to check"
        },
        "returns": {
          "efficiency": "& tolerance values"
        }
      },
      "isChef(uint256)": {
        "params": {
          "tokenId": "- The ID of the token to check"
        },
        "returns": {
          "chef": "- Whether or not the token is a Chef"
        }
      },
      "owner()": {
        "details": "Returns the address of the current owner."
      },
      "paused()": {
        "details": "Returns true if the contract is paused, and false otherwise."
      },
      "renounceOwnership()": {
        "details": "Leaves the contract without owner. It will not be possible to call `onlyOwner` functions anymore. Can only be called by the current owner. NOTE: Renouncing ownership will leave the contract without an owner, thereby removing any functionality that is only available to the owner."
      },
      "stakeMany(address,uint16[])": {
        "params": {
          "account": "- The address of the staker",
          "tokenIds": "- The IDs of the Chefs & Rats to stake"
        }
      },
      "transferOwnership(address)": {
        "details": "Transfers ownership of the contract to a new account (`newOwner`). Can only be called by the current owner."
      }
    },
    "version": 1
  },
  "userdoc": {
    "kind": "user",
    "methods": {
      "claimMany(uint16[],bool)": {
        "notice": "Claim food token earnings, level-ups and optionally unstake characters"
      },
      "getProperties(uint256)": {
        "notice": "Get the character's properties"
      },
      "isChef(uint256)": {
        "notice": "Checks if the token is a Chef"
      },
      "stakeMany(address,uint16[])": {
        "notice": "Adds Chefs & Rats"
      }
    },
    "version": 1
  }
}