{
  "contractName": "Gym",
  "abi": [
    {
      "anonymous": false,
      "inputs": [
        {
          "indexed": false,
          "internalType": "uint256",
          "name": "tokenId",
          "type": "uint256"
        },
        {
          "indexed": false,
          "internalType": "uint256",
          "name": "earned",
          "type": "uint256"
        },
        {
          "indexed": false,
          "internalType": "bool",
          "name": "unstaked",
          "type": "bool"
        },
        {
          "indexed": false,
          "internalType": "uint8",
          "name": "skill",
          "type": "uint8"
        },
        {
          "indexed": false,
          "internalType": "uint8",
          "name": "insanity",
          "type": "uint8"
        },
        {
          "indexed": false,
          "internalType": "string",
          "name": "eventName",
          "type": "string"
        },
        {
          "indexed": false,
          "internalType": "uint256",
          "name": "foodTokensPerRat",
          "type": "uint256"
        }
      ],
      "name": "ChefClaimed",
      "type": "event"
    },
    {
      "anonymous": false,
      "inputs": [
        {
          "indexed": true,
          "internalType": "address",
          "name": "previousOwner",
          "type": "address"
        },
        {
          "indexed": true,
          "internalType": "address",
          "name": "newOwner",
          "type": "address"
        }
      ],
      "name": "OwnershipTransferred",
      "type": "event"
    },
    {
      "anonymous": false,
      "inputs": [
        {
          "indexed": false,
          "internalType": "address",
          "name": "account",
          "type": "address"
        }
      ],
      "name": "Paused",
      "type": "event"
    },
    {
      "anonymous": false,
      "inputs": [
        {
          "indexed": false,
          "internalType": "uint256",
          "name": "tokenId",
          "type": "uint256"
        },
        {
          "indexed": false,
          "internalType": "uint256",
          "name": "earned",
          "type": "uint256"
        },
        {
          "indexed": false,
          "internalType": "bool",
          "name": "unstaked",
          "type": "bool"
        },
        {
          "indexed": false,
          "internalType": "uint8",
          "name": "intelligence",
          "type": "uint8"
        },
        {
          "indexed": false,
          "internalType": "uint8",
          "name": "fatness",
          "type": "uint8"
        },
        {
          "indexed": false,
          "internalType": "string",
          "name": "eventName",
          "type": "string"
        }
      ],
      "name": "RatClaimed",
      "type": "event"
    },
    {
      "anonymous": false,
      "inputs": [
        {
          "indexed": false,
          "internalType": "uint256",
          "name": "tokenId",
          "type": "uint256"
        },
        {
          "indexed": false,
          "internalType": "address",
          "name": "owner",
          "type": "address"
        },
        {
          "indexed": false,
          "internalType": "uint256",
          "name": "value",
          "type": "uint256"
        }
      ],
      "name": "TokenStaked",
      "type": "event"
    },
    {
      "anonymous": false,
      "inputs": [
        {
          "indexed": false,
          "internalType": "address",
          "name": "account",
          "type": "address"
        }
      ],
      "name": "Unpaused",
      "type": "event"
    },
    {
      "inputs": [],
      "name": "accrualPeriod",
      "outputs": [
        {
          "internalType": "uint256",
          "name": "",
          "type": "uint256"
        }
      ],
      "stateMutability": "view",
      "type": "function",
      "constant": true
    },
    {
      "inputs": [
        {
          "internalType": "uint256",
          "name": "",
          "type": "uint256"
        }
      ],
      "name": "chefs",
      "outputs": [
        {
          "internalType": "uint256",
          "name": "tokenId",
          "type": "uint256"
        },
        {
          "internalType": "address",
          "name": "owner",
          "type": "address"
        },
        {
          "internalType": "uint80",
          "name": "value",
          "type": "uint80"
        },
        {
          "internalType": "uint80",
          "name": "timestamp",
          "type": "uint80"
        }
      ],
      "stateMutability": "view",
      "type": "function",
      "constant": true
    },
    {
      "inputs": [
        {
          "internalType": "uint16[]",
          "name": "tokenIds",
          "type": "uint16[]"
        },
        {
          "internalType": "bool",
          "name": "unstake",
          "type": "bool"
        }
      ],
      "name": "claimMany",
      "outputs": [],
      "stateMutability": "nonpayable",
      "type": "function"
    },
    {
      "inputs": [],
      "name": "dailyFatnessRate",
      "outputs": [
        {
          "internalType": "int8",
          "name": "",
          "type": "int8"
        }
      ],
      "stateMutability": "view",
      "type": "function",
      "constant": true
    },
    {
      "inputs": [],
      "name": "dailyInsanityRate",
      "outputs": [
        {
          "internalType": "int8",
          "name": "",
          "type": "int8"
        }
      ],
      "stateMutability": "view",
      "type": "function",
      "constant": true
    },
    {
      "inputs": [],
      "name": "dailyIntelligenceRate",
      "outputs": [
        {
          "internalType": "int8",
          "name": "",
          "type": "int8"
        }
      ],
      "stateMutability": "view",
      "type": "function",
      "constant": true
    },
    {
      "inputs": [],
      "name": "dailySkillRate",
      "outputs": [
        {
          "internalType": "int8",
          "name": "",
          "type": "int8"
        }
      ],
      "stateMutability": "view",
      "type": "function",
      "constant": true
    },
    {
      "inputs": [],
      "name": "foodTokensPerRat",
      "outputs": [
        {
          "internalType": "uint256",
          "name": "",
          "type": "uint256"
        }
      ],
      "stateMutability": "view",
      "type": "function",
      "constant": true
    },
    {
      "inputs": [
        {
          "internalType": "uint256",
          "name": "tokenId",
          "type": "uint256"
        }
      ],
      "name": "getProperties",
      "outputs": [
        {
          "internalType": "uint8",
          "name": "efficiency",
          "type": "uint8"
        },
        {
          "internalType": "uint8",
          "name": "tolerance",
          "type": "uint8"
        }
      ],
      "stateMutability": "view",
      "type": "function",
      "constant": true
    },
    {
      "inputs": [
        {
          "internalType": "uint256",
          "name": "tokenId",
          "type": "uint256"
        }
      ],
      "name": "isChef",
      "outputs": [
        {
          "internalType": "bool",
          "name": "chef",
          "type": "bool"
        }
      ],
      "stateMutability": "view",
      "type": "function",
      "constant": true
    },
    {
      "inputs": [
        {
          "internalType": "address",
          "name": "",
          "type": "address"
        },
        {
          "internalType": "address",
          "name": "from",
          "type": "address"
        },
        {
          "internalType": "uint256",
          "name": "",
          "type": "uint256"
        },
        {
          "internalType": "bytes",
          "name": "",
          "type": "bytes"
        }
      ],
      "name": "onERC721Received",
      "outputs": [
        {
          "internalType": "bytes4",
          "name": "",
          "type": "bytes4"
        }
      ],
      "stateMutability": "pure",
      "type": "function",
      "constant": true
    },
    {
      "inputs": [],
      "name": "owner",
      "outputs": [
        {
          "internalType": "address",
          "name": "",
          "type": "address"
        }
      ],
      "stateMutability": "view",
      "type": "function",
      "constant": true
    },
    {
      "inputs": [],
      "name": "paused",
      "outputs": [
        {
          "internalType": "bool",
          "name": "",
          "type": "bool"
        }
      ],
      "stateMutability": "view",
      "type": "function",
      "constant": true
    },
    {
      "inputs": [
        {
          "internalType": "uint256",
          "name": "",
          "type": "uint256"
        }
      ],
      "name": "rats",
      "outputs": [
        {
          "internalType": "uint256",
          "name": "tokenId",
          "type": "uint256"
        },
        {
          "internalType": "address",
          "name": "owner",
          "type": "address"
        },
        {
          "internalType": "uint80",
          "name": "value",
          "type": "uint80"
        },
        {
          "internalType": "uint80",
          "name": "timestamp",
          "type": "uint80"
        }
      ],
      "stateMutability": "view",
      "type": "function",
      "constant": true
    },
    {
      "inputs": [],
      "name": "renounceOwnership",
      "outputs": [],
      "stateMutability": "nonpayable",
      "type": "function"
    },
    {
      "inputs": [
        {
          "internalType": "address",
          "name": "account",
          "type": "address"
        },
        {
          "internalType": "uint16[]",
          "name": "tokenIds",
          "type": "uint16[]"
        }
      ],
      "name": "stakeMany",
      "outputs": [],
      "stateMutability": "nonpayable",
      "type": "function"
    },
    {
      "inputs": [],
      "name": "totalChefsStaked",
      "outputs": [
        {
          "internalType": "uint256",
          "name": "",
          "type": "uint256"
        }
      ],
      "stateMutability": "view",
      "type": "function",
      "constant": true
    },
    {
      "inputs": [],
      "name": "totalRatsStaked",
      "outputs": [
        {
          "internalType": "uint256",
          "name": "",
          "type": "uint256"
        }
      ],
      "stateMutability": "view",
      "type": "function",
      "constant": true
    },
    {
      "inputs": [
        {
          "internalType": "address",
          "name": "newOwner",
          "type": "address"
        }
      ],
      "name": "transferOwnership",
      "outputs": [],
      "stateMutability": "nonpayable",
      "type": "function"
    },
    {
      "inputs": [],
      "name": "vestingPeriod",
      "outputs": [
        {
          "internalType": "uint256",
          "name": "",
          "type": "uint256"
        }
      ],
      "stateMutability": "view",
      "type": "function",
      "constant": true
    },
    {
      "inputs": [
        {
          "internalType": "address",
          "name": "_character",
          "type": "address"
        },
        {
          "internalType": "uint256",
          "name": "_vestingPeriod",
          "type": "uint256"
        },
        {
          "internalType": "uint256",
          "name": "_accrualPeriod",
          "type": "uint256"
        },
        {
          "internalType": "int8",
          "name": "_dailyInsanityRate",
          "type": "int8"
        },
        {
          "internalType": "int8",
          "name": "_dailyFatnessRate",
          "type": "int8"
        }
      ],
      "name": "initialize",
      "outputs": [],
      "stateMutability": "nonpayable",
      "type": "function"
    },
    {
      "inputs": [
        {
          "internalType": "address",
          "name": "_character",
          "type": "address"
        },
        {
          "internalType": "uint256",
          "name": "_accrualPeriod",
          "type": "uint256"
        }
      ],
      "name": "initialize",
      "outputs": [],
      "stateMutability": "nonpayable",
      "type": "function"
    }
  ],
  "bytecode": "0x608060405234801561001057600080fd5b506139ac806100206000396000f3fe608060405234801561001057600080fd5b50600436106101425760003560e01c80638da5cb5b116100b8578063cd6dc6871161007c578063cd6dc6871461035e578063dbdc1f6b1461037a578063ef9f800f14610396578063f2666746146103c6578063f2fde38b146103e4578063f66641551461040057610142565b80638da5cb5b146102ca578063a262c0ad146102e8578063a7a1029014610306578063bdb6294114610322578063cba88af81461034057610142565b8063499f80101161010a578063499f8010146102175780634d1c61af1461023557806356d4388e146102685780635c975abb14610284578063715018a6146102a25780637313ee5a146102ac57610142565b806310d53df114610147578063150b7a02146101655780631b8ca217146101955780632535a77f146101c657806335ec066e146101e4575b600080fd5b61014f61041e565b60405161015c91906125ef565b60405180910390f35b61017f600480360381019061017a9190612717565b610431565b60405161018c91906127da565b60405180910390f35b6101af60048036038101906101aa91906127f5565b6104b4565b6040516101bd92919061283e565b60405180910390f35b6101ce610595565b6040516101db9190612876565b60405180910390f35b6101fe60048036038101906101f991906127f5565b61059b565b60405161020e94939291906128c5565b60405180910390f35b61021f610617565b60405161022c9190612876565b60405180910390f35b61024f600480360381019061024a91906127f5565b61061d565b60405161025f94939291906128c5565b60405180910390f35b610282600480360381019061027d9190612936565b610699565b005b61028c61081d565b60405161029991906129cc565b60405180910390f35b6102aa610834565b005b6102b46108bc565b6040516102c19190612876565b60405180910390f35b6102d26108c2565b6040516102df91906129e7565b60405180910390f35b6102f06108ec565b6040516102fd91906125ef565b60405180910390f35b610320600480360381019061031b9190612a84565b6108ff565b005b61032a610a46565b60405161033791906125ef565b60405180910390f35b610348610a59565b60405161035591906125ef565b60405180910390f35b61037860048036038101906103739190612ae4565b610a6c565b005b610394600480360381019061038f9190612b24565b610c26565b005b6103b060048036038101906103ab91906127f5565b61105c565b6040516103bd91906129cc565b60405180910390f35b6103ce611131565b6040516103db9190612876565b60405180910390f35b6103fe60048036038101906103f99190612b84565b611137565b005b61040861122f565b6040516104159190612876565b60405180910390f35b609a60009054906101000a900460000b81565b60008073ffffffffffffffffffffffffffffffffffffffff168573ffffffffffffffffffffffffffffffffffffffff16146104a1576040517f08c379a000000000000000000000000000000000000000000000000000000000815260040161049890612c34565b60405180910390fd5b63150b7a0260e01b905095945050505050565b600080609760009054906101000a900473ffffffffffffffffffffffffffffffffffffffff1673ffffffffffffffffffffffffffffffffffffffff1663e05c57bf846040518263ffffffff1660e01b81526004016105129190612876565b61014060405180830381865afa158015610530573d6000803e3d6000fd5b505050506040513d601f19601f820116820180604052508101906105549190612c95565b909192939495969798509091929394959697509091929394959650909192939495509091929394509091929350909192509091508092508193505050915091565b609e5481565b60996020528060005260406000206000915090508060000154908060010160009054906101000a900473ffffffffffffffffffffffffffffffffffffffff16908060010160149054906101000a900469ffffffffffffffffffff16908060020160009054906101000a900469ffffffffffffffffffff16905084565b609c5481565b60986020528060005260406000206000915090508060000154908060010160009054906101000a900473ffffffffffffffffffffffffffffffffffffffff16908060010160149054906101000a900469ffffffffffffffffffff16908060020160009054906101000a900469ffffffffffffffffffff16905084565b600060019054906101000a900460ff166106c15760008054906101000a900460ff16156106ca565b6106c9611235565b5b610709576040517f08c379a000000000000000000000000000000000000000000000000000000000815260040161070090612de6565b60405180910390fd5b60008060019054906101000a900460ff161590508015610759576001600060016101000a81548160ff02191690831515021790555060016000806101000a81548160ff0219169083151502179055505b610761611246565b6107696112a7565b85609760006101000a81548173ffffffffffffffffffffffffffffffffffffffff021916908373ffffffffffffffffffffffffffffffffffffffff16021790555084609f8190555083609d8190555082609a60016101000a81548160ff021916908360000b60ff16021790555081609a60036101000a81548160ff021916908360000b60ff16021790555080156108155760008060016101000a81548160ff0219169083151502179055505b505050505050565b6000606560009054906101000a900460ff16905090565b61083c611308565b73ffffffffffffffffffffffffffffffffffffffff1661085a6108c2565b73ffffffffffffffffffffffffffffffffffffffff16146108b0576040517f08c379a00000000000000000000000000000000000000000000000000000000081526004016108a790612e52565b60405180910390fd5b6108ba6000611310565b565b609f5481565b6000603360009054906101000a900473ffffffffffffffffffffffffffffffffffffffff16905090565b609a60029054906101000a900460000b81565b61090761081d565b15610947576040517f08c379a000000000000000000000000000000000000000000000000000000000815260040161093e90612ebe565b60405180910390fd5b6000805b84849050811015610a2c5761098a85858381811061096c5761096b612ede565b5b90506020020160208101906109819190612f47565b61ffff1661105c565b156109d6576109c48585838181106109a5576109a4612ede565b5b90506020020160208101906109ba9190612f47565b61ffff16846113d6565b826109cf9190612fa3565b9150610a19565b610a0b8585838181106109ec576109eb612ede565b5b9050602002016020810190610a019190612f47565b61ffff168461187b565b82610a169190612fa3565b91505b8080610a2490612ff9565b91505061094b565b506000811115610a4057610a3f81611d23565b5b50505050565b609a60019054906101000a900460000b81565b609a60039054906101000a900460000b81565b600060019054906101000a900460ff16610a945760008054906101000a900460ff1615610a9d565b610a9c611235565b5b610adc576040517f08c379a0000000000000000000000000000000000000000000000000000000008152600401610ad390612de6565b60405180910390fd5b60008060019054906101000a900460ff161590508015610b2c576001600060016101000a81548160ff02191690831515021790555060016000806101000a81548160ff0219169083151502179055505b610b34611246565b610b3c6112a7565b82609760006101000a81548173ffffffffffffffffffffffffffffffffffffffff021916908373ffffffffffffffffffffffffffffffffffffffff16021790555081609d819055506000609a60006101000a81548160ff021916908360000b60ff1602179055506000609a60016101000a81548160ff021916908360000b60ff1602179055506000609a60026101000a81548160ff021916908360000b60ff1602179055506000609a60036101000a81548160ff021916908360000b60ff1602179055508015610c215760008060016101000a81548160ff0219169083151502179055505b505050565b610c2e611308565b73ffffffffffffffffffffffffffffffffffffffff168373ffffffffffffffffffffffffffffffffffffffff161480610cbb5750609760009054906101000a900473ffffffffffffffffffffffffffffffffffffffff1673ffffffffffffffffffffffffffffffffffffffff16610ca3611308565b73ffffffffffffffffffffffffffffffffffffffff16145b610cfa576040517f08c379a0000000000000000000000000000000000000000000000000000000008152600401610cf19061308e565b60405180910390fd5b60005b8282905081101561105657609760009054906101000a900473ffffffffffffffffffffffffffffffffffffffff1673ffffffffffffffffffffffffffffffffffffffff16610d49611308565b73ffffffffffffffffffffffffffffffffffffffff1614610f5f57610d6c611308565b73ffffffffffffffffffffffffffffffffffffffff16609760009054906101000a900473ffffffffffffffffffffffffffffffffffffffff1673ffffffffffffffffffffffffffffffffffffffff16636352211e858585818110610dd357610dd2612ede565b5b9050602002016020810190610de89190612f47565b6040518263ffffffff1660e01b8152600401610e0491906130e9565b602060405180830381865afa158015610e21573d6000803e3d6000fd5b505050506040513d601f19601f82011682018060405250810190610e459190613119565b73ffffffffffffffffffffffffffffffffffffffff1614610e9b576040517f08c379a0000000000000000000000000000000000000000000000000000000008152600401610e9290613192565b60405180910390fd5b609760009054906101000a900473ffffffffffffffffffffffffffffffffffffffff1673ffffffffffffffffffffffffffffffffffffffff166323b872dd610ee1611308565b30868686818110610ef557610ef4612ede565b5b9050602002016020810190610f0a9190612f47565b6040518463ffffffff1660e01b8152600401610f28939291906131b2565b600060405180830381600087803b158015610f4257600080fd5b505af1158015610f56573d6000803e3d6000fd5b50505050610f99565b6000838383818110610f7457610f73612ede565b5b9050602002016020810190610f899190612f47565b61ffff161415610f9857611043565b5b610fcd838383818110610faf57610fae612ede565b5b9050602002016020810190610fc49190612f47565b61ffff1661105c565b1561100c5761100784848484818110610fe957610fe8612ede565b5b9050602002016020810190610ffe9190612f47565b61ffff16611d26565b611042565b6110418484848481811061102357611022612ede565b5b90506020020160208101906110389190612f47565b61ffff16611ee5565b5b5b808061104e90612ff9565b915050610cfd565b50505050565b6000609760009054906101000a900473ffffffffffffffffffffffffffffffffffffffff1673ffffffffffffffffffffffffffffffffffffffff1663e05c57bf836040518263ffffffff1660e01b81526004016110b99190612876565b61014060405180830381865afa1580156110d7573d6000803e3d6000fd5b505050506040513d601f19601f820116820180604052508101906110fb9190612c95565b90919293949596975090919293949596509091929394955090919293945090919293509091925090915090505080915050919050565b609b5481565b61113f611308565b73ffffffffffffffffffffffffffffffffffffffff1661115d6108c2565b73ffffffffffffffffffffffffffffffffffffffff16146111b3576040517f08c379a00000000000000000000000000000000000000000000000000000000081526004016111aa90612e52565b60405180910390fd5b600073ffffffffffffffffffffffffffffffffffffffff168173ffffffffffffffffffffffffffffffffffffffff161415611223576040517f08c379a000000000000000000000000000000000000000000000000000000000815260040161121a9061325b565b60405180910390fd5b61122c81611310565b50565b609d5481565b6000611240306120ad565b15905090565b600060019054906101000a900460ff16611295576040517f08c379a000000000000000000000000000000000000000000000000000000000815260040161128c906132ed565b60405180910390fd5b61129d6120c0565b6112a5612111565b565b600060019054906101000a900460ff166112f6576040517f08c379a00000000000000000000000000000000000000000000000000000000081526004016112ed906132ed565b60405180910390fd5b6112fe6120c0565b611306612172565b565b600033905090565b6000603360009054906101000a900473ffffffffffffffffffffffffffffffffffffffff16905081603360006101000a81548173ffffffffffffffffffffffffffffffffffffffff021916908373ffffffffffffffffffffffffffffffffffffffff1602179055508173ffffffffffffffffffffffffffffffffffffffff168173ffffffffffffffffffffffffffffffffffffffff167f8be0079c531659141344cd1fd0a4f28419497f9722a3daafe3b4186f6b6457e060405160405180910390a35050565b60008060986000858152602001908152602001600020604051806080016040529081600082015481526020016001820160009054906101000a900473ffffffffffffffffffffffffffffffffffffffff1673ffffffffffffffffffffffffffffffffffffffff1673ffffffffffffffffffffffffffffffffffffffff1681526020016001820160149054906101000a900469ffffffffffffffffffff1669ffffffffffffffffffff1669ffffffffffffffffffff1681526020016002820160009054906101000a900469ffffffffffffffffffff1669ffffffffffffffffffff1669ffffffffffffffffffff168152505090506114d1611308565b73ffffffffffffffffffffffffffffffffffffffff16816020015173ffffffffffffffffffffffffffffffffffffffff1614611542576040517f08c379a000000000000000000000000000000000000000000000000000000000815260040161153990613192565b60405180910390fd5b82801561156b5750609f54816060015169ffffffffffffffffffff1642611569919061330d565b105b156115ab576040517f08c379a00000000000000000000000000000000000000000000000000000000081526004016115a29061338d565b60405180910390fd5b6115b4816121de565b915060008060006115c4876121e5565b925092509250851561170457609760009054906101000a900473ffffffffffffffffffffffffffffffffffffffff1673ffffffffffffffffffffffffffffffffffffffff1663b88d4fde30611617611308565b8a6040518463ffffffff1660e01b8152600401611636939291906133e4565b600060405180830381600087803b15801561165057600080fd5b505af1158015611664573d6000803e3d6000fd5b50505050609860008881526020019081526020016000206000808201600090556001820160006101000a81549073ffffffffffffffffffffffffffffffffffffffff02191690556001820160146101000a81549069ffffffffffffffffffff02191690556002820160006101000a81549069ffffffffffffffffffff02191690555050609b60008154809291906116fa9061342e565b919050555061182c565b60405180608001604052808861ffff168152602001611721611308565b73ffffffffffffffffffffffffffffffffffffffff1681526020014269ffffffffffffffffffff1681526020014269ffffffffffffffffffff16815250609860008981526020019081526020016000206000820151816000015560208201518160010160006101000a81548173ffffffffffffffffffffffffffffffffffffffff021916908373ffffffffffffffffffffffffffffffffffffffff16021790555060408201518160010160146101000a81548169ffffffffffffffffffff021916908369ffffffffffffffffffff16021790555060608201518160020160006101000a81548169ffffffffffffffffffff021916908369ffffffffffffffffffff1602179055509050505b7f9b394c66bc4fdb2f56f5842a796076e6552d6f15eaacb6e63e3c53b474d872e9878688868686609e5460405161186997969594939291906134e0565b60405180910390a15050505092915050565b60008060996000858152602001908152602001600020604051806080016040529081600082015481526020016001820160009054906101000a900473ffffffffffffffffffffffffffffffffffffffff1673ffffffffffffffffffffffffffffffffffffffff1673ffffffffffffffffffffffffffffffffffffffff1681526020016001820160149054906101000a900469ffffffffffffffffffff1669ffffffffffffffffffff1669ffffffffffffffffffff1681526020016002820160009054906101000a900469ffffffffffffffffffff1669ffffffffffffffffffff1669ffffffffffffffffffff16815250509050611976611308565b73ffffffffffffffffffffffffffffffffffffffff16816020015173ffffffffffffffffffffffffffffffffffffffff16146119e7576040517f08c379a00000000000000000000000000000000000000000000000000000000081526004016119de90613192565b60405180910390fd5b828015611a105750609f54816060015169ffffffffffffffffffff1642611a0e919061330d565b105b15611a50576040517f08c379a0000000000000000000000000000000000000000000000000000000008152600401611a479061338d565b60405180910390fd5b611a5981612537565b91506000806000611a69876121e5565b9250925092508515611ba957609760009054906101000a900473ffffffffffffffffffffffffffffffffffffffff1673ffffffffffffffffffffffffffffffffffffffff1663b88d4fde30611abc611308565b8a6040518463ffffffff1660e01b8152600401611adb939291906133e4565b600060405180830381600087803b158015611af557600080fd5b505af1158015611b09573d6000803e3d6000fd5b50505050609960008881526020019081526020016000206000808201600090556001820160006101000a81549073ffffffffffffffffffffffffffffffffffffffff02191690556001820160146101000a81549069ffffffffffffffffffff02191690556002820160006101000a81549069ffffffffffffffffffff02191690555050609c6000815480929190611b9f9061342e565b9190505550611cd8565b60405180608001604052808861ffff168152602001611bc6611308565b73ffffffffffffffffffffffffffffffffffffffff168152602001611be961253e565b69ffffffffffffffffffff1681526020014269ffffffffffffffffffff16815250609960008981526020019081526020016000206000820151816000015560208201518160010160006101000a81548173ffffffffffffffffffffffffffffffffffffffff021916908373ffffffffffffffffffffffffffffffffffffffff16021790555060408201518160010160146101000a81548169ffffffffffffffffffff021916908369ffffffffffffffffffff16021790555060608201518160020160006101000a81548169ffffffffffffffffffff021916908369ffffffffffffffffffff1602179055509050505b7f6e949c62565860afb9dd6295e998a1c40005fe9560aedf8d596717681cfc7a1f878688868686604051611d1196959493929190613556565b60405180910390a15050505092915050565b50565b611d2e61081d565b15611d6e576040517f08c379a0000000000000000000000000000000000000000000000000000000008152600401611d6590612ebe565b60405180910390fd5b60405180608001604052808261ffff1681526020018373ffffffffffffffffffffffffffffffffffffffff1681526020014269ffffffffffffffffffff1681526020014269ffffffffffffffffffff16815250609860008381526020019081526020016000206000820151816000015560208201518160010160006101000a81548173ffffffffffffffffffffffffffffffffffffffff021916908373ffffffffffffffffffffffffffffffffffffffff16021790555060408201518160010160146101000a81548169ffffffffffffffffffff021916908369ffffffffffffffffffff16021790555060608201518160020160006101000a81548169ffffffffffffffffffff021916908369ffffffffffffffffffff160217905550905050609b6000815480929190611ea190612ff9565b91905055507f8af1bb49fb16c7835975aa59449ba4328dd54737dfb2ae9fa6c5eca71fda51f9818342604051611ed9939291906135be565b60405180910390a15050565b611eed61081d565b15611f2d576040517f08c379a0000000000000000000000000000000000000000000000000000000008152600401611f2490612ebe565b60405180910390fd5b60405180608001604052808261ffff1681526020018373ffffffffffffffffffffffffffffffffffffffff168152602001611f6661253e565b69ffffffffffffffffffff1681526020014269ffffffffffffffffffff16815250609960008381526020019081526020016000206000820151816000015560208201518160010160006101000a81548173ffffffffffffffffffffffffffffffffffffffff021916908373ffffffffffffffffffffffffffffffffffffffff16021790555060408201518160010160146101000a81548169ffffffffffffffffffff021916908369ffffffffffffffffffff16021790555060608201518160020160006101000a81548169ffffffffffffffffffff021916908369ffffffffffffffffffff160217905550905050609c600081548092919061206790612ff9565b91905055507f8af1bb49fb16c7835975aa59449ba4328dd54737dfb2ae9fa6c5eca71fda51f98183609e546040516120a1939291906135be565b60405180910390a15050565b600080823b905060008111915050919050565b600060019054906101000a900460ff1661210f576040517f08c379a0000000000000000000000000000000000000000000000000000000008152600401612106906132ed565b60405180910390fd5b565b600060019054906101000a900460ff16612160576040517f08c379a0000000000000000000000000000000000000000000000000000000008152600401612157906132ed565b60405180910390fd5b61217061216b611308565b611310565b565b600060019054906101000a900460ff166121c1576040517f08c379a00000000000000000000000000000000000000000000000000000000081526004016121b8906132ed565b60405180910390fd5b6000606560006101000a81548160ff021916908315150217905550565b6000919050565b6000806060600060986000868152602001908152602001600020604051806080016040529081600082015481526020016001820160009054906101000a900473ffffffffffffffffffffffffffffffffffffffff1673ffffffffffffffffffffffffffffffffffffffff1673ffffffffffffffffffffffffffffffffffffffff1681526020016001820160149054906101000a900469ffffffffffffffffffff1669ffffffffffffffffffff1669ffffffffffffffffffff1681526020016002820160009054906101000a900469ffffffffffffffffffff1669ffffffffffffffffffff1669ffffffffffffffffffff16815250509050600060996000878152602001908152602001600020604051806080016040529081600082015481526020016001820160009054906101000a900473ffffffffffffffffffffffffffffffffffffffff1673ffffffffffffffffffffffffffffffffffffffff1673ffffffffffffffffffffffffffffffffffffffff1681526020016001820160149054906101000a900469ffffffffffffffffffff1669ffffffffffffffffffff1669ffffffffffffffffffff1681526020016002820160009054906101000a900469ffffffffffffffffffff1669ffffffffffffffffffff1669ffffffffffffffffffff1681525050905060006123d98761105c565b6123e75781606001516123ed565b82606001515b69ffffffffffffffffffff1642612404919061330d565b905060006124118861105c565b9050609760009054906101000a900473ffffffffffffffffffffffffffffffffffffffff1673ffffffffffffffffffffffffffffffffffffffff1663d8ffcfcb896124868461246f57609a60029054906101000a900460000b612480565b609a60009054906101000a900460000b5b86612543565b6124ba856124a357609a60039054906101000a900460000b6124b4565b609a60019054906101000a900460000b5b87612543565b6040518463ffffffff1660e01b81526004016124d8939291906135f5565b6000604051808303816000875af11580156124f7573d6000803e3d6000fd5b505050506040513d6000823e3d601f19601f82011682018060405250810190612520919061374d565b809750819850829950505050505050509193909250565b6000919050565b600090565b600080609d548460000b8461255891906137c6565b612562919061390c565b905060648113156125775760649150506125cd565b7fffffffffffffffffffffffffffffffffffffffffffffffffffffffffffffff9c8112156125c8577fffffffffffffffffffffffffffffffffffffffffffffffffffffffffffffff9c9150506125cd565b809150505b92915050565b60008160000b9050919050565b6125e9816125d3565b82525050565b600060208201905061260460008301846125e0565b92915050565b6000604051905090565b600080fd5b600080fd5b600073ffffffffffffffffffffffffffffffffffffffff82169050919050565b60006126498261261e565b9050919050565b6126598161263e565b811461266457600080fd5b50565b60008135905061267681612650565b92915050565b6000819050919050565b61268f8161267c565b811461269a57600080fd5b50565b6000813590506126ac81612686565b92915050565b600080fd5b600080fd5b600080fd5b60008083601f8401126126d7576126d66126b2565b5b8235905067ffffffffffffffff8111156126f4576126f36126b7565b5b6020830191508360018202830111156127105761270f6126bc565b5b9250929050565b60008060008060006080868803121561273357612732612614565b5b600061274188828901612667565b955050602061275288828901612667565b94505060406127638882890161269d565b935050606086013567ffffffffffffffff81111561278457612783612619565b5b612790888289016126c1565b92509250509295509295909350565b60007fffffffff0000000000000000000000000000000000000000000000000000000082169050919050565b6127d48161279f565b82525050565b60006020820190506127ef60008301846127cb565b92915050565b60006020828403121561280b5761280a612614565b5b60006128198482850161269d565b91505092915050565b600060ff82169050919050565b61283881612822565b82525050565b6000604082019050612853600083018561282f565b612860602083018461282f565b9392505050565b6128708161267c565b82525050565b600060208201905061288b6000830184612867565b92915050565b61289a8161263e565b82525050565b600069ffffffffffffffffffff82169050919050565b6128bf816128a0565b82525050565b60006080820190506128da6000830187612867565b6128e76020830186612891565b6128f460408301856128b6565b61290160608301846128b6565b95945050505050565b612913816125d3565b811461291e57600080fd5b50565b6000813590506129308161290a565b92915050565b600080600080600060a0868803121561295257612951612614565b5b600061296088828901612667565b95505060206129718882890161269d565b94505060406129828882890161269d565b935050606061299388828901612921565b92505060806129a488828901612921565b9150509295509295909350565b60008115159050919050565b6129c6816129b1565b82525050565b60006020820190506129e160008301846129bd565b92915050565b60006020820190506129fc6000830184612891565b92915050565b60008083601f840112612a1857612a176126b2565b5b8235905067ffffffffffffffff811115612a3557612a346126b7565b5b602083019150836020820283011115612a5157612a506126bc565b5b9250929050565b612a61816129b1565b8114612a6c57600080fd5b50565b600081359050612a7e81612a58565b92915050565b600080600060408486031215612a9d57612a9c612614565b5b600084013567ffffffffffffffff811115612abb57612aba612619565b5b612ac786828701612a02565b93509350506020612ada86828701612a6f565b9150509250925092565b60008060408385031215612afb57612afa612614565b5b6000612b0985828601612667565b9250506020612b1a8582860161269d565b9150509250929050565b600080600060408486031215612b3d57612b3c612614565b5b6000612b4b86828701612667565b935050602084013567ffffffffffffffff811115612b6c57612b6b612619565b5b612b7886828701612a02565b92509250509250925092565b600060208284031215612b9a57612b99612614565b5b6000612ba884828501612667565b91505092915050565b600082825260208201905092915050565b7f43616e6e6f742073656e6420746f6b656e7320746f2056656e7565206469726560008201527f63746c7900000000000000000000000000000000000000000000000000000000602082015250565b6000612c1e602483612bb1565b9150612c2982612bc2565b604082019050919050565b60006020820190508181036000830152612c4d81612c11565b9050919050565b600081519050612c6381612a58565b92915050565b612c7281612822565b8114612c7d57600080fd5b50565b600081519050612c8f81612c69565b92915050565b6000806000806000806000806000806101408b8d031215612cb957612cb8612614565b5b6000612cc78d828e01612c54565b9a50506020612cd88d828e01612c80565b9950506040612ce98d828e01612c80565b9850506060612cfa8d828e01612c80565b9750506080612d0b8d828e01612c80565b96505060a0612d1c8d828e01612c80565b95505060c0612d2d8d828e01612c80565b94505060e0612d3e8d828e01612c80565b935050610100612d508d828e01612c80565b925050610120612d628d828e01612c80565b9150509295989b9194979a5092959850565b7f496e697469616c697a61626c653a20636f6e747261637420697320616c72656160008201527f647920696e697469616c697a6564000000000000000000000000000000000000602082015250565b6000612dd0602e83612bb1565b9150612ddb82612d74565b604082019050919050565b60006020820190508181036000830152612dff81612dc3565b9050919050565b7f4f776e61626c653a2063616c6c6572206973206e6f7420746865206f776e6572600082015250565b6000612e3c602083612bb1565b9150612e4782612e06565b602082019050919050565b60006020820190508181036000830152612e6b81612e2f565b9050919050565b7f5061757361626c653a2070617573656400000000000000000000000000000000600082015250565b6000612ea8601083612bb1565b9150612eb382612e72565b602082019050919050565b60006020820190508181036000830152612ed781612e9b565b9050919050565b7f4e487b7100000000000000000000000000000000000000000000000000000000600052603260045260246000fd5b600061ffff82169050919050565b612f2481612f0d565b8114612f2f57600080fd5b50565b600081359050612f4181612f1b565b92915050565b600060208284031215612f5d57612f5c612614565b5b6000612f6b84828501612f32565b91505092915050565b7f4e487b7100000000000000000000000000000000000000000000000000000000600052601160045260246000fd5b6000612fae8261267c565b9150612fb98361267c565b9250827fffffffffffffffffffffffffffffffffffffffffffffffffffffffffffffffff03821115612fee57612fed612f74565b5b828201905092915050565b60006130048261267c565b91507fffffffffffffffffffffffffffffffffffffffffffffffffffffffffffffffff82141561303757613036612f74565b5b600182019050919050565b7f446f206e6f74206c6f736520796f757220746f6b656e73000000000000000000600082015250565b6000613078601783612bb1565b915061308382613042565b602082019050919050565b600060208201905081810360008301526130a78161306b565b9050919050565b6000819050919050565b60006130d36130ce6130c984612f0d565b6130ae565b61267c565b9050919050565b6130e3816130b8565b82525050565b60006020820190506130fe60008301846130da565b92915050565b60008151905061311381612650565b92915050565b60006020828403121561312f5761312e612614565b5b600061313d84828501613104565b91505092915050565b7f4e6f7420796f757220746f6b656e000000000000000000000000000000000000600082015250565b600061317c600e83612bb1565b915061318782613146565b602082019050919050565b600060208201905081810360008301526131ab8161316f565b9050919050565b60006060820190506131c76000830186612891565b6131d46020830185612891565b6131e160408301846130da565b949350505050565b7f4f776e61626c653a206e6577206f776e657220697320746865207a65726f206160008201527f6464726573730000000000000000000000000000000000000000000000000000602082015250565b6000613245602683612bb1565b9150613250826131e9565b604082019050919050565b6000602082019050818103600083015261327481613238565b9050919050565b7f496e697469616c697a61626c653a20636f6e7472616374206973206e6f74206960008201527f6e697469616c697a696e67000000000000000000000000000000000000000000602082015250565b60006132d7602b83612bb1565b91506132e28261327b565b604082019050919050565b60006020820190508181036000830152613306816132ca565b9050919050565b60006133188261267c565b91506133238361267c565b92508282101561333657613335612f74565b5b828203905092915050565b7f43616e6e6f74206c65617665206265666f726520454f42000000000000000000600082015250565b6000613377601783612bb1565b915061338282613341565b602082019050919050565b600060208201905081810360008301526133a68161336a565b9050919050565b600082825260208201905092915050565b50565b60006133ce6000836133ad565b91506133d9826133be565b600082019050919050565b60006080820190506133f96000830186612891565b6134066020830185612891565b6134136040830184612867565b8181036060830152613424816133c1565b9050949350505050565b60006134398261267c565b9150600082141561344d5761344c612f74565b5b600182039050919050565b600081519050919050565b60005b83811015613481578082015181840152602081019050613466565b83811115613490576000848401525b50505050565b6000601f19601f8301169050919050565b60006134b282613458565b6134bc8185612bb1565b93506134cc818560208601613463565b6134d581613496565b840191505092915050565b600060e0820190506134f5600083018a612867565b6135026020830189612867565b61350f60408301886129bd565b61351c606083018761282f565b613529608083018661282f565b81810360a083015261353b81856134a7565b905061354a60c0830184612867565b98975050505050505050565b600060c08201905061356b6000830189612867565b6135786020830188612867565b61358560408301876129bd565b613592606083018661282f565b61359f608083018561282f565b81810360a08301526135b181846134a7565b9050979650505050505050565b60006060820190506135d36000830186612867565b6135e06020830185612891565b6135ed6040830184612867565b949350505050565b600060608201905061360a6000830186612867565b61361760208301856125e0565b61362460408301846125e0565b949350505050565b600080fd5b7f4e487b7100000000000000000000000000000000000000000000000000000000600052604160045260246000fd5b61366982613496565b810181811067ffffffffffffffff8211171561368857613687613631565b5b80604052505050565b600061369b61260a565b90506136a78282613660565b919050565b600067ffffffffffffffff8211156136c7576136c6613631565b5b6136d082613496565b9050602081019050919050565b60006136f06136eb846136ac565b613691565b90508281526020810184848401111561370c5761370b61362c565b5b613717848285613463565b509392505050565b600082601f830112613734576137336126b2565b5b81516137448482602086016136dd565b91505092915050565b60008060006060848603121561376657613765612614565b5b600061377486828701612c80565b935050602061378586828701612c80565b925050604084015167ffffffffffffffff8111156137a6576137a5612619565b5b6137b28682870161371f565b9150509250925092565b6000819050919050565b60006137d1826137bc565b91506137dc836137bc565b9250827f7fffffffffffffffffffffffffffffffffffffffffffffffffffffffffffffff048211600084136000841316161561381b5761381a612f74565b5b817f8000000000000000000000000000000000000000000000000000000000000000058312600084126000841316161561385857613857612f74565b5b827f8000000000000000000000000000000000000000000000000000000000000000058212600084136000841216161561389557613894612f74565b5b827f7fffffffffffffffffffffffffffffffffffffffffffffffffffffffffffffff05821260008412600084121616156138d2576138d1612f74565b5b828202905092915050565b7f4e487b7100000000000000000000000000000000000000000000000000000000600052601260045260246000fd5b6000613917826137bc565b9150613922836137bc565b925082613932576139316138dd565b5b600160000383147f80000000000000000000000000000000000000000000000000000000000000008314161561396b5761396a612f74565b5b82820590509291505056fea2646970667358221220ee4b4f25e5b29fea531e67a0f6d4ffe3c5d35045b2fbb5b30ac780bee761636a64736f6c634300080a0033",
  "immutableReferences": {},
  "source": "// SPDX-License-Identifier: MIT\n\npragma solidity ^0.8.0;\n\nimport \"./Venue.sol\";\n\ncontract Gym is Venue {\n  function initialize(address _character, uint256 _vestingPeriod, uint256 _accrualPeriod, int8 _dailyInsanityRate, int8 _dailyFatnessRate) external initializer {\n    __Ownable_init();\n    __Pausable_init();\n\n    character = Character(_character);\n    vestingPeriod = _vestingPeriod;\n    accrualPeriod = _accrualPeriod;\n    dailyInsanityRate = _dailyInsanityRate;\n    dailyFatnessRate = _dailyFatnessRate;\n  }\n}\n",
  "sourcePath": "/Users/chris/workspace/ratalert/ratalert-contracts/contracts/Gym.sol",
  "compiler": {
    "name": "solc",
    "version": "0.8.10+commit.fc410830.Emscripten.clang"
  },
  "schemaVersion": "3.4.4",
  "updatedAt": "2022-02-09T16:27:26.134Z",
  "networkType": "ethereum",
  "devdoc": {
    "kind": "dev",
    "methods": {
      "claimMany(uint16[],bool)": {
        "params": {
          "tokenIds": "- The IDs of the tokens in question",
          "unstake": "- Whether or not to unstake the given tokens"
        }
      },
      "getProperties(uint256)": {
        "params": {
          "tokenId": "- The ID of the token to check"
        },
        "returns": {
          "efficiency": "& tolerance values"
        }
      },
      "isChef(uint256)": {
        "params": {
          "tokenId": "- The ID of the token to check"
        },
        "returns": {
          "chef": "- Whether or not the token is a Chef"
        }
      },
      "owner()": {
        "details": "Returns the address of the current owner."
      },
      "paused()": {
        "details": "Returns true if the contract is paused, and false otherwise."
      },
      "renounceOwnership()": {
        "details": "Leaves the contract without owner. It will not be possible to call `onlyOwner` functions anymore. Can only be called by the current owner. NOTE: Renouncing ownership will leave the contract without an owner, thereby removing any functionality that is only available to the owner."
      },
      "stakeMany(address,uint16[])": {
        "params": {
          "account": "- The address of the staker",
          "tokenIds": "- The IDs of the Chefs & Rats to stake"
        }
      },
      "transferOwnership(address)": {
        "details": "Transfers ownership of the contract to a new account (`newOwner`). Can only be called by the current owner."
      }
    },
    "version": 1
  },
  "userdoc": {
    "kind": "user",
    "methods": {
      "claimMany(uint16[],bool)": {
        "notice": "Claim food token earnings, level-ups and optionally unstake characters"
      },
      "getProperties(uint256)": {
        "notice": "Get the character's properties"
      },
      "isChef(uint256)": {
        "notice": "Checks if the token is a Chef"
      },
      "stakeMany(address,uint16[])": {
        "notice": "Adds Chefs & Rats"
      }
    },
    "version": 1
  }
}