{
  "contractName": "Gym",
  "abi": [
    {
      "anonymous": false,
      "inputs": [
        {
          "indexed": false,
          "internalType": "uint256",
          "name": "tokenId",
          "type": "uint256"
        },
        {
          "indexed": false,
          "internalType": "uint256",
          "name": "earned",
          "type": "uint256"
        },
        {
          "indexed": false,
          "internalType": "bool",
          "name": "unstaked",
          "type": "bool"
        },
        {
          "indexed": false,
          "internalType": "uint8",
          "name": "skill",
          "type": "uint8"
        },
        {
          "indexed": false,
          "internalType": "uint8",
          "name": "insanity",
          "type": "uint8"
        },
        {
          "indexed": false,
          "internalType": "string",
          "name": "eventName",
          "type": "string"
        },
        {
          "indexed": false,
          "internalType": "uint256",
          "name": "foodTokensPerRat",
          "type": "uint256"
        }
      ],
      "name": "ChefClaimed",
      "type": "event"
    },
    {
      "anonymous": false,
      "inputs": [
        {
          "indexed": true,
          "internalType": "address",
          "name": "previousOwner",
          "type": "address"
        },
        {
          "indexed": true,
          "internalType": "address",
          "name": "newOwner",
          "type": "address"
        }
      ],
      "name": "OwnershipTransferred",
      "type": "event"
    },
    {
      "anonymous": false,
      "inputs": [
        {
          "indexed": false,
          "internalType": "address",
          "name": "account",
          "type": "address"
        }
      ],
      "name": "Paused",
      "type": "event"
    },
    {
      "anonymous": false,
      "inputs": [
        {
          "indexed": false,
          "internalType": "uint256",
          "name": "tokenId",
          "type": "uint256"
        },
        {
          "indexed": false,
          "internalType": "uint256",
          "name": "earned",
          "type": "uint256"
        },
        {
          "indexed": false,
          "internalType": "bool",
          "name": "unstaked",
          "type": "bool"
        },
        {
          "indexed": false,
          "internalType": "uint8",
          "name": "intelligence",
          "type": "uint8"
        },
        {
          "indexed": false,
          "internalType": "uint8",
          "name": "fatness",
          "type": "uint8"
        },
        {
          "indexed": false,
          "internalType": "string",
          "name": "eventName",
          "type": "string"
        }
      ],
      "name": "RatClaimed",
      "type": "event"
    },
    {
      "anonymous": false,
      "inputs": [
        {
          "indexed": false,
          "internalType": "uint256",
          "name": "tokenId",
          "type": "uint256"
        },
        {
          "indexed": false,
          "internalType": "address",
          "name": "owner",
          "type": "address"
        },
        {
          "indexed": false,
          "internalType": "uint256",
          "name": "value",
          "type": "uint256"
        }
      ],
      "name": "TokenStaked",
      "type": "event"
    },
    {
      "anonymous": false,
      "inputs": [
        {
          "indexed": false,
          "internalType": "address",
          "name": "account",
          "type": "address"
        }
      ],
      "name": "Unpaused",
      "type": "event"
    },
    {
      "inputs": [],
      "name": "accrualPeriod",
      "outputs": [
        {
          "internalType": "uint256",
          "name": "",
          "type": "uint256"
        }
      ],
      "stateMutability": "view",
      "type": "function",
      "constant": true
    },
    {
      "inputs": [
        {
          "internalType": "uint256",
          "name": "",
          "type": "uint256"
        }
      ],
      "name": "chefs",
      "outputs": [
        {
          "internalType": "uint256",
          "name": "tokenId",
          "type": "uint256"
        },
        {
          "internalType": "address",
          "name": "owner",
          "type": "address"
        },
        {
          "internalType": "uint80",
          "name": "value",
          "type": "uint80"
        },
        {
          "internalType": "uint80",
          "name": "timestamp",
          "type": "uint80"
        }
      ],
      "stateMutability": "view",
      "type": "function",
      "constant": true
    },
    {
      "inputs": [],
      "name": "claim",
      "outputs": [
        {
          "internalType": "contract IClaim",
          "name": "",
          "type": "address"
        }
      ],
      "stateMutability": "view",
      "type": "function",
      "constant": true
    },
    {
      "inputs": [
        {
          "internalType": "uint16[]",
          "name": "tokenIds",
          "type": "uint16[]"
        },
        {
          "internalType": "bool",
          "name": "unstake",
          "type": "bool"
        }
      ],
      "name": "claimMany",
      "outputs": [],
      "stateMutability": "nonpayable",
      "type": "function"
    },
    {
      "inputs": [
        {
          "internalType": "bytes32",
          "name": "",
          "type": "bytes32"
        },
        {
          "internalType": "uint256",
          "name": "",
          "type": "uint256"
        }
      ],
      "name": "claimRequests",
      "outputs": [
        {
          "internalType": "uint16",
          "name": "",
          "type": "uint16"
        }
      ],
      "stateMutability": "view",
      "type": "function",
      "constant": true
    },
    {
      "inputs": [],
      "name": "dailyFatnessRate",
      "outputs": [
        {
          "internalType": "int8",
          "name": "",
          "type": "int8"
        }
      ],
      "stateMutability": "view",
      "type": "function",
      "constant": true
    },
    {
      "inputs": [],
      "name": "dailyInsanityRate",
      "outputs": [
        {
          "internalType": "int8",
          "name": "",
          "type": "int8"
        }
      ],
      "stateMutability": "view",
      "type": "function",
      "constant": true
    },
    {
      "inputs": [],
      "name": "dailyIntelligenceRate",
      "outputs": [
        {
          "internalType": "int8",
          "name": "",
          "type": "int8"
        }
      ],
      "stateMutability": "view",
      "type": "function",
      "constant": true
    },
    {
      "inputs": [],
      "name": "dailySkillRate",
      "outputs": [
        {
          "internalType": "int8",
          "name": "",
          "type": "int8"
        }
      ],
      "stateMutability": "view",
      "type": "function",
      "constant": true
    },
    {
      "inputs": [],
      "name": "foodTokensPerRat",
      "outputs": [
        {
          "internalType": "uint256",
          "name": "",
          "type": "uint256"
        }
      ],
      "stateMutability": "view",
      "type": "function",
      "constant": true
    },
    {
      "inputs": [
        {
          "components": [
            {
              "internalType": "bytes32",
              "name": "requestId",
              "type": "bytes32"
            },
            {
              "internalType": "address",
              "name": "venue",
              "type": "address"
            },
            {
              "internalType": "address",
              "name": "sender",
              "type": "address"
            },
            {
              "internalType": "uint16[]",
              "name": "tokenIds",
              "type": "uint16[]"
            },
            {
              "internalType": "bool",
              "name": "unstake",
              "type": "bool"
            }
          ],
          "internalType": "struct IClaim.VRFStruct",
          "name": "v",
          "type": "tuple"
        },
        {
          "internalType": "uint256",
          "name": "randomVal",
          "type": "uint256"
        }
      ],
      "name": "fulfillClaimMany",
      "outputs": [],
      "stateMutability": "nonpayable",
      "type": "function"
    },
    {
      "inputs": [
        {
          "internalType": "uint256",
          "name": "tokenId",
          "type": "uint256"
        }
      ],
      "name": "getProperties",
      "outputs": [
        {
          "internalType": "uint8",
          "name": "efficiency",
          "type": "uint8"
        },
        {
          "internalType": "uint8",
          "name": "tolerance",
          "type": "uint8"
        }
      ],
      "stateMutability": "view",
      "type": "function",
      "constant": true
    },
    {
      "inputs": [
        {
          "internalType": "uint256",
          "name": "tokenId",
          "type": "uint256"
        }
      ],
      "name": "isChef",
      "outputs": [
        {
          "internalType": "bool",
          "name": "chef",
          "type": "bool"
        }
      ],
      "stateMutability": "view",
      "type": "function",
      "constant": true
    },
    {
      "inputs": [],
      "name": "maxClaimsPerTx",
      "outputs": [
        {
          "internalType": "uint8",
          "name": "",
          "type": "uint8"
        }
      ],
      "stateMutability": "view",
      "type": "function",
      "constant": true
    },
    {
      "inputs": [
        {
          "internalType": "address",
          "name": "",
          "type": "address"
        },
        {
          "internalType": "address",
          "name": "from",
          "type": "address"
        },
        {
          "internalType": "uint256",
          "name": "",
          "type": "uint256"
        },
        {
          "internalType": "bytes",
          "name": "",
          "type": "bytes"
        }
      ],
      "name": "onERC721Received",
      "outputs": [
        {
          "internalType": "bytes4",
          "name": "",
          "type": "bytes4"
        }
      ],
      "stateMutability": "pure",
      "type": "function",
      "constant": true
    },
    {
      "inputs": [],
      "name": "owner",
      "outputs": [
        {
          "internalType": "address",
          "name": "",
          "type": "address"
        }
      ],
      "stateMutability": "view",
      "type": "function",
      "constant": true
    },
    {
      "inputs": [],
      "name": "pause",
      "outputs": [],
      "stateMutability": "nonpayable",
      "type": "function"
    },
    {
      "inputs": [],
      "name": "paused",
      "outputs": [
        {
          "internalType": "bool",
          "name": "",
          "type": "bool"
        }
      ],
      "stateMutability": "view",
      "type": "function",
      "constant": true
    },
    {
      "inputs": [
        {
          "internalType": "uint256",
          "name": "",
          "type": "uint256"
        }
      ],
      "name": "rats",
      "outputs": [
        {
          "internalType": "uint256",
          "name": "tokenId",
          "type": "uint256"
        },
        {
          "internalType": "address",
          "name": "owner",
          "type": "address"
        },
        {
          "internalType": "uint80",
          "name": "value",
          "type": "uint80"
        },
        {
          "internalType": "uint80",
          "name": "timestamp",
          "type": "uint80"
        }
      ],
      "stateMutability": "view",
      "type": "function",
      "constant": true
    },
    {
      "inputs": [],
      "name": "renounceOwnership",
      "outputs": [],
      "stateMutability": "nonpayable",
      "type": "function"
    },
    {
      "inputs": [
        {
          "internalType": "address",
          "name": "account",
          "type": "address"
        },
        {
          "internalType": "uint16[]",
          "name": "tokenIds",
          "type": "uint16[]"
        }
      ],
      "name": "stakeMany",
      "outputs": [],
      "stateMutability": "nonpayable",
      "type": "function"
    },
    {
      "inputs": [
        {
          "internalType": "address",
          "name": "",
          "type": "address"
        },
        {
          "internalType": "uint256",
          "name": "",
          "type": "uint256"
        }
      ],
      "name": "stakers",
      "outputs": [
        {
          "internalType": "uint256",
          "name": "",
          "type": "uint256"
        }
      ],
      "stateMutability": "view",
      "type": "function",
      "constant": true
    },
    {
      "inputs": [],
      "name": "totalChefsStaked",
      "outputs": [
        {
          "internalType": "uint256",
          "name": "",
          "type": "uint256"
        }
      ],
      "stateMutability": "view",
      "type": "function",
      "constant": true
    },
    {
      "inputs": [],
      "name": "totalRatsStaked",
      "outputs": [
        {
          "internalType": "uint256",
          "name": "",
          "type": "uint256"
        }
      ],
      "stateMutability": "view",
      "type": "function",
      "constant": true
    },
    {
      "inputs": [
        {
          "internalType": "address",
          "name": "newOwner",
          "type": "address"
        }
      ],
      "name": "transferOwnership",
      "outputs": [],
      "stateMutability": "nonpayable",
      "type": "function"
    },
    {
      "inputs": [],
      "name": "unpause",
      "outputs": [],
      "stateMutability": "nonpayable",
      "type": "function"
    },
    {
      "inputs": [],
      "name": "vestingPeriod",
      "outputs": [
        {
          "internalType": "uint256",
          "name": "",
          "type": "uint256"
        }
      ],
      "stateMutability": "view",
      "type": "function",
      "constant": true
    },
    {
      "inputs": [
        {
          "internalType": "address",
          "name": "_character",
          "type": "address"
        },
        {
          "internalType": "address",
          "name": "_claim",
          "type": "address"
        },
        {
          "internalType": "uint256",
          "name": "_accrualPeriod",
          "type": "uint256"
        }
      ],
      "name": "initialize",
      "outputs": [],
      "stateMutability": "nonpayable",
      "type": "function"
    },
    {
      "inputs": [
        {
          "internalType": "address",
          "name": "_character",
          "type": "address"
        },
        {
          "internalType": "address",
          "name": "_claim",
          "type": "address"
        }
      ],
      "name": "initialize",
      "outputs": [],
      "stateMutability": "nonpayable",
      "type": "function"
    },
    {
      "inputs": [
        {
          "internalType": "uint256",
          "name": "_vestingPeriod",
          "type": "uint256"
        },
        {
          "internalType": "uint256",
          "name": "_accrualPeriod",
          "type": "uint256"
        },
        {
          "internalType": "int8",
          "name": "_dailyInsanityRate",
          "type": "int8"
        },
        {
          "internalType": "int8",
          "name": "_dailyFatnessRate",
          "type": "int8"
        },
        {
          "internalType": "uint8",
          "name": "_maxClaimsPerTx",
          "type": "uint8"
        }
      ],
      "name": "configure",
      "outputs": [],
      "stateMutability": "nonpayable",
      "type": "function"
    }
  ],
  "bytecode": "0x608060405234801561001057600080fd5b50615004806100206000396000f3fe608060405234801561001057600080fd5b50600436106101da5760003560e01c80637313ee5a11610104578063bdb62941116100a2578063ef9f800f11610071578063ef9f800f14610516578063f266674614610546578063f2fde38b14610564578063f666415514610580576101da565b8063bdb629411461048e578063c8b6cbf7146104ac578063cba88af8146104dc578063dbdc1f6b146104fa576101da565b8063922a1802116100de578063922a18021461041c578063943628b014610438578063a262c0ad14610454578063a7a1029014610472576101da565b80637313ee5a146103d65780638456cb59146103f45780638da5cb5b146103fe576101da565b8063485cc9551161017c578063525e915b1161014b578063525e915b146103605780635c975abb146103905780635f537db1146103ae578063715018a6146103cc576101da565b8063485cc955146102d5578063499f8010146102f15780634d1c61af1461030f5780634e71d92d14610342576101da565b80631b8ca217116101b85780631b8ca217146102495780632535a77f1461027a57806335ec066e146102985780633f4ba83a146102cb576101da565b806310d53df1146101df578063150b7a02146101fd5780631794bb3c1461022d575b600080fd5b6101e761059e565b6040516101f49190613499565b60405180910390f35b610217600480360381019061021291906135c1565b6105b1565b6040516102249190613684565b60405180910390f35b6102476004803603810190610242919061369f565b610634565b005b610263600480360381019061025e91906136f2565b610830565b60405161027192919061373b565b60405180910390f35b610282610911565b60405161028f9190613773565b60405180910390f35b6102b260048036038101906102ad91906136f2565b610917565b6040516102c294939291906137c2565b60405180910390f35b6102d3610993565b005b6102ef60048036038101906102ea9190613807565b610a19565b005b6102f9610b91565b6040516103069190613773565b60405180910390f35b610329600480360381019061032491906136f2565b610b97565b60405161033994939291906137c2565b60405180910390f35b61034a610c13565b60405161035791906138a6565b60405180910390f35b61037a600480360381019061037591906138f7565b610c39565b6040516103879190613954565b60405180910390f35b610398610c80565b6040516103a5919061398a565b60405180910390f35b6103b6610c97565b6040516103c391906139a5565b60405180910390f35b6103d4610caa565b005b6103de610d32565b6040516103eb9190613773565b60405180910390f35b6103fc610d38565b005b610406610dbe565b60405161041391906139c0565b60405180910390f35b61043660048036038101906104319190613c34565b610de8565b005b610452600480360381019061044d9190613ce8565b611354565b005b61045c61143c565b6040516104699190613499565b60405180910390f35b61048c60048036038101906104879190613db9565b61144f565b005b61049661185c565b6040516104a39190613499565b60405180910390f35b6104c660048036038101906104c19190613e19565b61186f565b6040516104d39190613773565b60405180910390f35b6104e46118a0565b6040516104f19190613499565b60405180910390f35b610514600480360381019061050f9190613e59565b6118b3565b005b610530600480360381019061052b91906136f2565b611e40565b60405161053d919061398a565b60405180910390f35b61054e611f15565b60405161055b9190613773565b60405180910390f35b61057e60048036038101906105799190613eb9565b611f1b565b005b610588612013565b6040516105959190613773565b60405180910390f35b609d60009054906101000a900460000b81565b60008073ffffffffffffffffffffffffffffffffffffffff168573ffffffffffffffffffffffffffffffffffffffff1614610621576040517f08c379a000000000000000000000000000000000000000000000000000000000815260040161061890613f69565b60405180910390fd5b63150b7a0260e01b905095945050505050565b600060019054906101000a900460ff1661065c5760008054906101000a900460ff1615610665565b610664612019565b5b6106a4576040517f08c379a000000000000000000000000000000000000000000000000000000000815260040161069b90613ffb565b60405180910390fd5b60008060019054906101000a900460ff1615905080156106f4576001600060016101000a81548160ff02191690831515021790555060016000806101000a81548160ff0219169083151502179055505b6106fc61202a565b61070461208b565b83609760006101000a81548173ffffffffffffffffffffffffffffffffffffffff021916908373ffffffffffffffffffffffffffffffffffffffff16021790555082609860006101000a81548173ffffffffffffffffffffffffffffffffffffffff021916908373ffffffffffffffffffffffffffffffffffffffff1602179055508160a0819055506000609d60006101000a81548160ff021916908360000b60ff1602179055506000609d60016101000a81548160ff021916908360000b60ff1602179055506000609d60026101000a81548160ff021916908360000b60ff1602179055506000609d60036101000a81548160ff021916908360000b60ff160217905550801561082a5760008060016101000a81548160ff0219169083151502179055505b50505050565b600080609760009054906101000a900473ffffffffffffffffffffffffffffffffffffffff1673ffffffffffffffffffffffffffffffffffffffff1663e05c57bf846040518263ffffffff1660e01b815260040161088e9190613773565b61014060405180830381865afa1580156108ac573d6000803e3d6000fd5b505050506040513d601f19601f820116820180604052508101906108d09190614045565b909192939495969798509091929394959697509091929394959650909192939495509091929394509091929350909192509091508092508193505050915091565b60a15481565b609a6020528060005260406000206000915090508060000154908060010160009054906101000a900473ffffffffffffffffffffffffffffffffffffffff16908060010160149054906101000a900469ffffffffffffffffffff16908060020160009054906101000a900469ffffffffffffffffffff16905084565b61099b6120ec565b73ffffffffffffffffffffffffffffffffffffffff166109b9610dbe565b73ffffffffffffffffffffffffffffffffffffffff1614610a0f576040517f08c379a0000000000000000000000000000000000000000000000000000000008152600401610a0690614170565b60405180910390fd5b610a176120f4565b565b600060019054906101000a900460ff16610a415760008054906101000a900460ff1615610a4a565b610a49612019565b5b610a89576040517f08c379a0000000000000000000000000000000000000000000000000000000008152600401610a8090613ffb565b60405180910390fd5b60008060019054906101000a900460ff161590508015610ad9576001600060016101000a81548160ff02191690831515021790555060016000806101000a81548160ff0219169083151502179055505b610ae161202a565b610ae961208b565b82609760006101000a81548173ffffffffffffffffffffffffffffffffffffffff021916908373ffffffffffffffffffffffffffffffffffffffff16021790555081609860006101000a81548173ffffffffffffffffffffffffffffffffffffffff021916908373ffffffffffffffffffffffffffffffffffffffff1602179055508015610b8c5760008060016101000a81548160ff0219169083151502179055505b505050565b609f5481565b60996020528060005260406000206000915090508060000154908060010160009054906101000a900473ffffffffffffffffffffffffffffffffffffffff16908060010160149054906101000a900469ffffffffffffffffffff16908060020160009054906101000a900469ffffffffffffffffffff16905084565b609860009054906101000a900473ffffffffffffffffffffffffffffffffffffffff1681565b609c6020528160005260406000208181548110610c5557600080fd5b9060005260206000209060109182820401919006600202915091509054906101000a900461ffff1681565b6000606560009054906101000a900460ff16905090565b60a360009054906101000a900460ff1681565b610cb26120ec565b73ffffffffffffffffffffffffffffffffffffffff16610cd0610dbe565b73ffffffffffffffffffffffffffffffffffffffff1614610d26576040517f08c379a0000000000000000000000000000000000000000000000000000000008152600401610d1d90614170565b60405180910390fd5b610d306000612196565b565b60a25481565b610d406120ec565b73ffffffffffffffffffffffffffffffffffffffff16610d5e610dbe565b73ffffffffffffffffffffffffffffffffffffffff1614610db4576040517f08c379a0000000000000000000000000000000000000000000000000000000008152600401610dab90614170565b60405180910390fd5b610dbc61225c565b565b6000603360009054906101000a900473ffffffffffffffffffffffffffffffffffffffff16905090565b610df0610c80565b15610e30576040517f08c379a0000000000000000000000000000000000000000000000000000000008152600401610e27906141dc565b60405180910390fd5b609860009054906101000a900473ffffffffffffffffffffffffffffffffffffffff1673ffffffffffffffffffffffffffffffffffffffff163373ffffffffffffffffffffffffffffffffffffffff1614610ec0576040517f08c379a0000000000000000000000000000000000000000000000000000000008152600401610eb790614248565b60405180910390fd5b6000609c6000846000015181526020019081526020016000208054905011610f1d576040517f08c379a0000000000000000000000000000000000000000000000000000000008152600401610f14906142b4565b60405180910390fd5b6000609c600084600001518152602001908152602001600020805480602002602001604051908101604052809291908181526020018280548015610fa857602002820191906000526020600020906000905b82829054906101000a900461ffff1661ffff1681526020019060020190602082600101049283019260010382029150808411610f6f5790505b50505050509050609c6000846000015181526020019081526020016000206000610fd2919061338a565b6000805b8251811015611335576000610ff0866040015160006122ff565b9050611019848381518110611008576110076142d4565b5b602002602001015161ffff16611e40565b1561106d5761105b848381518110611034576110336142d4565b5b602002602001015161ffff168760400151831580611053575088608001515b84158961230b565b836110669190614332565b92506110b8565b6110aa848381518110611083576110826142d4565b5b602002602001015161ffff1687604001518315806110a2575088608001515b8415896127b5565b836110b59190614332565b92505b60005b609b6000886040015173ffffffffffffffffffffffffffffffffffffffff1673ffffffffffffffffffffffffffffffffffffffff168152602001908152602001600020805490508110156113205784838151811061111c5761111b6142d4565b5b602002602001015161ffff16609b6000896040015173ffffffffffffffffffffffffffffffffffffffff1673ffffffffffffffffffffffffffffffffffffffff168152602001908152602001600020828154811061117d5761117c6142d4565b5b9060005260206000200154141561130d57609b6000886040015173ffffffffffffffffffffffffffffffffffffffff1673ffffffffffffffffffffffffffffffffffffffff1681526020019081526020016000206001609b60008a6040015173ffffffffffffffffffffffffffffffffffffffff1673ffffffffffffffffffffffffffffffffffffffff168152602001908152602001600020805490506112249190614388565b81548110611235576112346142d4565b5b9060005260206000200154609b6000896040015173ffffffffffffffffffffffffffffffffffffffff1673ffffffffffffffffffffffffffffffffffffffff1681526020019081526020016000208281548110611295576112946142d4565b5b9060005260206000200181905550609b6000886040015173ffffffffffffffffffffffffffffffffffffffff1673ffffffffffffffffffffffffffffffffffffffff1681526020019081526020016000208054806112f6576112f56143bc565b5b600190038181906000526020600020016000905590555b8080611318906143eb565b9150506110bb565b5050808061132d906143eb565b915050610fd6565b50600081111561134e5761134d846040015182612c62565b5b50505050565b61135c6120ec565b73ffffffffffffffffffffffffffffffffffffffff1661137a610dbe565b73ffffffffffffffffffffffffffffffffffffffff16146113d0576040517f08c379a00000000000000000000000000000000000000000000000000000000081526004016113c790614170565b60405180910390fd5b8460a2819055508360a08190555082609d60016101000a81548160ff021916908360000b60ff16021790555081609d60036101000a81548160ff021916908360000b60ff1602179055508060a360006101000a81548160ff021916908360ff1602179055505050505050565b609d60029054906101000a900460000b81565b611457610c80565b15611497576040517f08c379a000000000000000000000000000000000000000000000000000000000815260040161148e906141dc565b60405180910390fd5b60a360009054906101000a900460ff1660ff168383905011156114ef576040517f08c379a00000000000000000000000000000000000000000000000000000000081526004016114e690614480565b60405180910390fd5b60005b83839050811015611783576000611533858584818110611515576115146142d4565b5b905060200201602081019061152a91906144a0565b61ffff16611e40565b61157a57609a600086868581811061154e5761154d6142d4565b5b905060200201602081019061156391906144a0565b61ffff1681526020019081526020016000206115b9565b60996000868685818110611591576115906142d4565b5b90506020020160208101906115a691906144a0565b61ffff1681526020019081526020016000205b604051806080016040529081600082015481526020016001820160009054906101000a900473ffffffffffffffffffffffffffffffffffffffff1673ffffffffffffffffffffffffffffffffffffffff1673ffffffffffffffffffffffffffffffffffffffff1681526020016001820160149054906101000a900469ffffffffffffffffffff1669ffffffffffffffffffff1669ffffffffffffffffffff1681526020016002820160009054906101000a900469ffffffffffffffffffff1669ffffffffffffffffffff1669ffffffffffffffffffff1681525050905061169e6120ec565b73ffffffffffffffffffffffffffffffffffffffff16816020015173ffffffffffffffffffffffffffffffffffffffff161461170f576040517f08c379a000000000000000000000000000000000000000000000000000000000815260040161170690614519565b60405180910390fd5b60a254816060015169ffffffffffffffffffff164261172e9190614388565b101561176f576040517f08c379a000000000000000000000000000000000000000000000000000000000815260040161176690614585565b60405180910390fd5b50808061177b906143eb565b9150506114f2565b506000609860009054906101000a900473ffffffffffffffffffffffffffffffffffffffff1673ffffffffffffffffffffffffffffffffffffffff16635bdf263c6117cc6120ec565b8686866040518563ffffffff1660e01b81526004016117ee9493929190614668565b6020604051808303816000875af115801561180d573d6000803e3d6000fd5b505050506040513d601f19601f8201168201806040525081019061183191906146bd565b90508383609c600084815260200190815260200160002091906118559291906133b2565b5050505050565b609d60019054906101000a900460000b81565b609b602052816000526040600020818154811061188b57600080fd5b90600052602060002001600091509150505481565b609d60039054906101000a900460000b81565b6118bb6120ec565b73ffffffffffffffffffffffffffffffffffffffff168373ffffffffffffffffffffffffffffffffffffffff1614806119485750609760009054906101000a900473ffffffffffffffffffffffffffffffffffffffff1673ffffffffffffffffffffffffffffffffffffffff166119306120ec565b73ffffffffffffffffffffffffffffffffffffffff16145b611987576040517f08c379a000000000000000000000000000000000000000000000000000000000815260040161197e90614736565b60405180910390fd5b61199b6119926120ec565b838390506122ff565b6119da576040517f08c379a00000000000000000000000000000000000000000000000000000000081526004016119d1906147a2565b60405180910390fd5b60005b82829050811015611e3a57609760009054906101000a900473ffffffffffffffffffffffffffffffffffffffff1673ffffffffffffffffffffffffffffffffffffffff16611a296120ec565b73ffffffffffffffffffffffffffffffffffffffff1614611c3f57611a4c6120ec565b73ffffffffffffffffffffffffffffffffffffffff16609760009054906101000a900473ffffffffffffffffffffffffffffffffffffffff1673ffffffffffffffffffffffffffffffffffffffff16636352211e858585818110611ab357611ab26142d4565b5b9050602002016020810190611ac891906144a0565b6040518263ffffffff1660e01b8152600401611ae491906147f3565b602060405180830381865afa158015611b01573d6000803e3d6000fd5b505050506040513d601f19601f82011682018060405250810190611b259190614823565b73ffffffffffffffffffffffffffffffffffffffff1614611b7b576040517f08c379a0000000000000000000000000000000000000000000000000000000008152600401611b7290614519565b60405180910390fd5b609760009054906101000a900473ffffffffffffffffffffffffffffffffffffffff1673ffffffffffffffffffffffffffffffffffffffff166323b872dd611bc16120ec565b30868686818110611bd557611bd46142d4565b5b9050602002016020810190611bea91906144a0565b6040518463ffffffff1660e01b8152600401611c0893929190614850565b600060405180830381600087803b158015611c2257600080fd5b505af1158015611c36573d6000803e3d6000fd5b50505050611c79565b6000838383818110611c5457611c536142d4565b5b9050602002016020810190611c6991906144a0565b61ffff161415611c7857611e27565b5b611cad838383818110611c8f57611c8e6142d4565b5b9050602002016020810190611ca491906144a0565b61ffff16612c66565b611cec576040517f08c379a0000000000000000000000000000000000000000000000000000000008152600401611ce3906148d3565b60405180910390fd5b611d20838383818110611d0257611d016142d4565b5b9050602002016020810190611d1791906144a0565b61ffff16611e40565b15611d5f57611d5a84848484818110611d3c57611d3b6142d4565b5b9050602002016020810190611d5191906144a0565b61ffff16612c71565b611d95565b611d9484848484818110611d7657611d756142d4565b5b9050602002016020810190611d8b91906144a0565b61ffff16612e30565b5b609b60008573ffffffffffffffffffffffffffffffffffffffff1673ffffffffffffffffffffffffffffffffffffffff168152602001908152602001600020838383818110611de757611de66142d4565b5b9050602002016020810190611dfc91906144a0565b908060018154018082558091505060019003906000526020600020016000909161ffff169091909150555b8080611e32906143eb565b9150506119dd565b50505050565b6000609760009054906101000a900473ffffffffffffffffffffffffffffffffffffffff1673ffffffffffffffffffffffffffffffffffffffff1663e05c57bf836040518263ffffffff1660e01b8152600401611e9d9190613773565b61014060405180830381865afa158015611ebb573d6000803e3d6000fd5b505050506040513d601f19601f82011682018060405250810190611edf9190614045565b90919293949596975090919293949596509091929394955090919293945090919293509091925090915090505080915050919050565b609e5481565b611f236120ec565b73ffffffffffffffffffffffffffffffffffffffff16611f41610dbe565b73ffffffffffffffffffffffffffffffffffffffff1614611f97576040517f08c379a0000000000000000000000000000000000000000000000000000000008152600401611f8e90614170565b60405180910390fd5b600073ffffffffffffffffffffffffffffffffffffffff168173ffffffffffffffffffffffffffffffffffffffff161415612007576040517f08c379a0000000000000000000000000000000000000000000000000000000008152600401611ffe90614965565b60405180910390fd5b61201081612196565b50565b60a05481565b600061202430612ff8565b15905090565b600060019054906101000a900460ff16612079576040517f08c379a0000000000000000000000000000000000000000000000000000000008152600401612070906149f7565b60405180910390fd5b61208161300b565b61208961305c565b565b600060019054906101000a900460ff166120da576040517f08c379a00000000000000000000000000000000000000000000000000000000081526004016120d1906149f7565b60405180910390fd5b6120e261300b565b6120ea6130bd565b565b600033905090565b6120fc610c80565b61213b576040517f08c379a000000000000000000000000000000000000000000000000000000000815260040161213290614a63565b60405180910390fd5b6000606560006101000a81548160ff0219169083151502179055507f5db9ee0a495bf2e6ff9c91a7834c1ba4fdd244a5e8aa4e537bd38aeae4b073aa61217f6120ec565b60405161218c91906139c0565b60405180910390a1565b6000603360009054906101000a900473ffffffffffffffffffffffffffffffffffffffff16905081603360006101000a81548173ffffffffffffffffffffffffffffffffffffffff021916908373ffffffffffffffffffffffffffffffffffffffff1602179055508173ffffffffffffffffffffffffffffffffffffffff168173ffffffffffffffffffffffffffffffffffffffff167f8be0079c531659141344cd1fd0a4f28419497f9722a3daafe3b4186f6b6457e060405160405180910390a35050565b612264610c80565b156122a4576040517f08c379a000000000000000000000000000000000000000000000000000000000815260040161229b906141dc565b60405180910390fd5b6001606560006101000a81548160ff0219169083151502179055507f62e78cea01bee320cd4e420270b5ea74000d11b0c9f74754ebdbfc544b05a2586122e86120ec565b6040516122f591906139c0565b60405180910390a1565b60006001905092915050565b60008060996000888152602001908152602001600020604051806080016040529081600082015481526020016001820160009054906101000a900473ffffffffffffffffffffffffffffffffffffffff1673ffffffffffffffffffffffffffffffffffffffff1673ffffffffffffffffffffffffffffffffffffffff1681526020016001820160149054906101000a900469ffffffffffffffffffff1669ffffffffffffffffffff1669ffffffffffffffffffff1681526020016002820160009054906101000a900469ffffffffffffffffffff1669ffffffffffffffffffff1669ffffffffffffffffffff168152505090508573ffffffffffffffffffffffffffffffffffffffff16816020015173ffffffffffffffffffffffffffffffffffffffff1614612470576040517f08c379a000000000000000000000000000000000000000000000000000000000815260040161246790614519565b60405180910390fd5b60a254816060015169ffffffffffffffffffff164261248f9190614388565b10156124d0576040517f08c379a00000000000000000000000000000000000000000000000000000000081526004016124c790614585565b60405180910390fd5b836124e3576124de81613129565b6124e6565b60005b915060008060006124f78a87613130565b9250925092506125068a612c66565b61250f57600197505b871561264257609760009054906101000a900473ffffffffffffffffffffffffffffffffffffffff1673ffffffffffffffffffffffffffffffffffffffff1663b88d4fde308b8d6040518463ffffffff1660e01b815260040161257493929190614aba565b600060405180830381600087803b15801561258e57600080fd5b505af11580156125a2573d6000803e3d6000fd5b50505050609960008b81526020019081526020016000206000808201600090556001820160006101000a81549073ffffffffffffffffffffffffffffffffffffffff02191690556001820160146101000a81549069ffffffffffffffffffff02191690556002820160006101000a81549069ffffffffffffffffffff02191690555050609e600081548092919061263890614b04565b9190505550612763565b60405180608001604052808b61ffff1681526020018a73ffffffffffffffffffffffffffffffffffffffff1681526020014269ffffffffffffffffffff1681526020014269ffffffffffffffffffff16815250609960008c81526020019081526020016000206000820151816000015560208201518160010160006101000a81548173ffffffffffffffffffffffffffffffffffffffff021916908373ffffffffffffffffffffffffffffffffffffffff16021790555060408201518160010160146101000a81548169ffffffffffffffffffff021916908369ffffffffffffffffffff16021790555060608201518160020160006101000a81548169ffffffffffffffffffff021916908369ffffffffffffffffffff1602179055509050505b7f9b394c66bc4fdb2f56f5842a796076e6552d6f15eaacb6e63e3c53b474d872e98a868a86868660a1546040516127a09796959493929190614ba5565b60405180910390a15050505095945050505050565b600080609a6000888152602001908152602001600020604051806080016040529081600082015481526020016001820160009054906101000a900473ffffffffffffffffffffffffffffffffffffffff1673ffffffffffffffffffffffffffffffffffffffff1673ffffffffffffffffffffffffffffffffffffffff1681526020016001820160149054906101000a900469ffffffffffffffffffff1669ffffffffffffffffffff1669ffffffffffffffffffff1681526020016002820160009054906101000a900469ffffffffffffffffffff1669ffffffffffffffffffff1669ffffffffffffffffffff168152505090508573ffffffffffffffffffffffffffffffffffffffff16816020015173ffffffffffffffffffffffffffffffffffffffff161461291a576040517f08c379a000000000000000000000000000000000000000000000000000000000815260040161291190614519565b60405180910390fd5b60a254816060015169ffffffffffffffffffff16426129399190614388565b101561297a576040517f08c379a000000000000000000000000000000000000000000000000000000000815260040161297190614585565b60405180910390fd5b8361298d57612988816132ee565b612990565b60005b915060008060006129a18a87613130565b9250925092506129b08a612c66565b6129b957600197505b8715612aec57609760009054906101000a900473ffffffffffffffffffffffffffffffffffffffff1673ffffffffffffffffffffffffffffffffffffffff1663b88d4fde308b8d6040518463ffffffff1660e01b8152600401612a1e93929190614aba565b600060405180830381600087803b158015612a3857600080fd5b505af1158015612a4c573d6000803e3d6000fd5b50505050609a60008b81526020019081526020016000206000808201600090556001820160006101000a81549073ffffffffffffffffffffffffffffffffffffffff02191690556001820160146101000a81549069ffffffffffffffffffff02191690556002820160006101000a81549069ffffffffffffffffffff02191690555050609f6000815480929190612ae290614b04565b9190505550612c14565b60405180608001604052808b61ffff1681526020018a73ffffffffffffffffffffffffffffffffffffffff168152602001612b256132f5565b69ffffffffffffffffffff1681526020014269ffffffffffffffffffff16815250609a60008c81526020019081526020016000206000820151816000015560208201518160010160006101000a81548173ffffffffffffffffffffffffffffffffffffffff021916908373ffffffffffffffffffffffffffffffffffffffff16021790555060408201518160010160146101000a81548169ffffffffffffffffffff021916908369ffffffffffffffffffff16021790555060608201518160020160006101000a81548169ffffffffffffffffffff021916908369ffffffffffffffffffff1602179055509050505b7f6e949c62565860afb9dd6295e998a1c40005fe9560aedf8d596717681cfc7a1f8a868a868686604051612c4d96959493929190614c1b565b60405180910390a15050505095945050505050565b5050565b600060019050919050565b612c79610c80565b15612cb9576040517f08c379a0000000000000000000000000000000000000000000000000000000008152600401612cb0906141dc565b60405180910390fd5b60405180608001604052808261ffff1681526020018373ffffffffffffffffffffffffffffffffffffffff1681526020014269ffffffffffffffffffff1681526020014269ffffffffffffffffffff16815250609960008381526020019081526020016000206000820151816000015560208201518160010160006101000a81548173ffffffffffffffffffffffffffffffffffffffff021916908373ffffffffffffffffffffffffffffffffffffffff16021790555060408201518160010160146101000a81548169ffffffffffffffffffff021916908369ffffffffffffffffffff16021790555060608201518160020160006101000a81548169ffffffffffffffffffff021916908369ffffffffffffffffffff160217905550905050609e6000815480929190612dec906143eb565b91905055507f8af1bb49fb16c7835975aa59449ba4328dd54737dfb2ae9fa6c5eca71fda51f9818342604051612e2493929190614c83565b60405180910390a15050565b612e38610c80565b15612e78576040517f08c379a0000000000000000000000000000000000000000000000000000000008152600401612e6f906141dc565b60405180910390fd5b60405180608001604052808261ffff1681526020018373ffffffffffffffffffffffffffffffffffffffff168152602001612eb16132f5565b69ffffffffffffffffffff1681526020014269ffffffffffffffffffff16815250609a60008381526020019081526020016000206000820151816000015560208201518160010160006101000a81548173ffffffffffffffffffffffffffffffffffffffff021916908373ffffffffffffffffffffffffffffffffffffffff16021790555060408201518160010160146101000a81548169ffffffffffffffffffff021916908369ffffffffffffffffffff16021790555060608201518160020160006101000a81548169ffffffffffffffffffff021916908369ffffffffffffffffffff160217905550905050609f6000815480929190612fb2906143eb565b91905055507f8af1bb49fb16c7835975aa59449ba4328dd54737dfb2ae9fa6c5eca71fda51f9818360a154604051612fec93929190614c83565b60405180910390a15050565b600080823b905060008111915050919050565b600060019054906101000a900460ff1661305a576040517f08c379a0000000000000000000000000000000000000000000000000000000008152600401613051906149f7565b60405180910390fd5b565b600060019054906101000a900460ff166130ab576040517f08c379a00000000000000000000000000000000000000000000000000000000081526004016130a2906149f7565b60405180910390fd5b6130bb6130b66120ec565b612196565b565b600060019054906101000a900460ff1661310c576040517f08c379a0000000000000000000000000000000000000000000000000000000008152600401613103906149f7565b60405180910390fd5b6000606560006101000a81548160ff021916908315150217905550565b6000919050565b6000806060600061314086611e40565b61317657609a600087815260200190815260200160002060020160009054906101000a900469ffffffffffffffffffff166131a4565b6099600087815260200190815260200160002060020160009054906101000a900469ffffffffffffffffffff165b69ffffffffffffffffffff16426131bb9190614388565b905060006131c887611e40565b9050609760009054906101000a900473ffffffffffffffffffffffffffffffffffffffff1673ffffffffffffffffffffffffffffffffffffffff166363dbfc778861323d8461322657609d60029054906101000a900460000b613237565b609d60009054906101000a900460000b5b866132fa565b6132718561325a57609d60039054906101000a900460000b61326b565b609d60019054906101000a900460000b5b876132fa565b8a6040518563ffffffff1660e01b81526004016132919493929190614cba565b6000604051808303816000875af11580156132b0573d6000803e3d6000fd5b505050506040513d6000823e3d601f19601f820116820180604052508101906132d99190614da5565b80955081965082975050505050509250925092565b6000919050565b600090565b60008060a0548460000b8461330f9190614e1e565b6133199190614f64565b9050606481131561332e576064915050613384565b7fffffffffffffffffffffffffffffffffffffffffffffffffffffffffffffff9c81121561337f577fffffffffffffffffffffffffffffffffffffffffffffffffffffffffffffff9c915050613384565b809150505b92915050565b50805460008255600f0160109004906000526020600020908101906133af9190613460565b50565b82805482825590600052602060002090600f0160109004810192821561344f5791602002820160005b8382111561341f57833561ffff1683826101000a81548161ffff021916908361ffff16021790555092602001926002016020816001010492830192600103026133db565b801561344d5782816101000a81549061ffff021916905560020160208160010104928301926001030261341f565b505b50905061345c9190613460565b5090565b5b80821115613479576000816000905550600101613461565b5090565b60008160000b9050919050565b6134938161347d565b82525050565b60006020820190506134ae600083018461348a565b92915050565b6000604051905090565b600080fd5b600080fd5b600073ffffffffffffffffffffffffffffffffffffffff82169050919050565b60006134f3826134c8565b9050919050565b613503816134e8565b811461350e57600080fd5b50565b600081359050613520816134fa565b92915050565b6000819050919050565b61353981613526565b811461354457600080fd5b50565b60008135905061355681613530565b92915050565b600080fd5b600080fd5b600080fd5b60008083601f8401126135815761358061355c565b5b8235905067ffffffffffffffff81111561359e5761359d613561565b5b6020830191508360018202830111156135ba576135b9613566565b5b9250929050565b6000806000806000608086880312156135dd576135dc6134be565b5b60006135eb88828901613511565b95505060206135fc88828901613511565b945050604061360d88828901613547565b935050606086013567ffffffffffffffff81111561362e5761362d6134c3565b5b61363a8882890161356b565b92509250509295509295909350565b60007fffffffff0000000000000000000000000000000000000000000000000000000082169050919050565b61367e81613649565b82525050565b60006020820190506136996000830184613675565b92915050565b6000806000606084860312156136b8576136b76134be565b5b60006136c686828701613511565b93505060206136d786828701613511565b92505060406136e886828701613547565b9150509250925092565b600060208284031215613708576137076134be565b5b600061371684828501613547565b91505092915050565b600060ff82169050919050565b6137358161371f565b82525050565b6000604082019050613750600083018561372c565b61375d602083018461372c565b9392505050565b61376d81613526565b82525050565b60006020820190506137886000830184613764565b92915050565b613797816134e8565b82525050565b600069ffffffffffffffffffff82169050919050565b6137bc8161379d565b82525050565b60006080820190506137d76000830187613764565b6137e4602083018661378e565b6137f160408301856137b3565b6137fe60608301846137b3565b95945050505050565b6000806040838503121561381e5761381d6134be565b5b600061382c85828601613511565b925050602061383d85828601613511565b9150509250929050565b6000819050919050565b600061386c613867613862846134c8565b613847565b6134c8565b9050919050565b600061387e82613851565b9050919050565b600061389082613873565b9050919050565b6138a081613885565b82525050565b60006020820190506138bb6000830184613897565b92915050565b6000819050919050565b6138d4816138c1565b81146138df57600080fd5b50565b6000813590506138f1816138cb565b92915050565b6000806040838503121561390e5761390d6134be565b5b600061391c858286016138e2565b925050602061392d85828601613547565b9150509250929050565b600061ffff82169050919050565b61394e81613937565b82525050565b60006020820190506139696000830184613945565b92915050565b60008115159050919050565b6139848161396f565b82525050565b600060208201905061399f600083018461397b565b92915050565b60006020820190506139ba600083018461372c565b92915050565b60006020820190506139d5600083018461378e565b92915050565b600080fd5b6000601f19601f8301169050919050565b7f4e487b7100000000000000000000000000000000000000000000000000000000600052604160045260246000fd5b613a29826139e0565b810181811067ffffffffffffffff82111715613a4857613a476139f1565b5b80604052505050565b6000613a5b6134b4565b9050613a678282613a20565b919050565b600080fd5b600067ffffffffffffffff821115613a8c57613a8b6139f1565b5b602082029050602081019050919050565b613aa681613937565b8114613ab157600080fd5b50565b600081359050613ac381613a9d565b92915050565b6000613adc613ad784613a71565b613a51565b90508083825260208201905060208402830185811115613aff57613afe613566565b5b835b81811015613b285780613b148882613ab4565b845260208401935050602081019050613b01565b5050509392505050565b600082601f830112613b4757613b4661355c565b5b8135613b57848260208601613ac9565b91505092915050565b613b698161396f565b8114613b7457600080fd5b50565b600081359050613b8681613b60565b92915050565b600060a08284031215613ba257613ba16139db565b5b613bac60a0613a51565b90506000613bbc848285016138e2565b6000830152506020613bd084828501613511565b6020830152506040613be484828501613511565b604083015250606082013567ffffffffffffffff811115613c0857613c07613a6c565b5b613c1484828501613b32565b6060830152506080613c2884828501613b77565b60808301525092915050565b60008060408385031215613c4b57613c4a6134be565b5b600083013567ffffffffffffffff811115613c6957613c686134c3565b5b613c7585828601613b8c565b9250506020613c8685828601613547565b9150509250929050565b613c998161347d565b8114613ca457600080fd5b50565b600081359050613cb681613c90565b92915050565b613cc58161371f565b8114613cd057600080fd5b50565b600081359050613ce281613cbc565b92915050565b600080600080600060a08688031215613d0457613d036134be565b5b6000613d1288828901613547565b9550506020613d2388828901613547565b9450506040613d3488828901613ca7565b9350506060613d4588828901613ca7565b9250506080613d5688828901613cd3565b9150509295509295909350565b60008083601f840112613d7957613d7861355c565b5b8235905067ffffffffffffffff811115613d9657613d95613561565b5b602083019150836020820283011115613db257613db1613566565b5b9250929050565b600080600060408486031215613dd257613dd16134be565b5b600084013567ffffffffffffffff811115613df057613def6134c3565b5b613dfc86828701613d63565b93509350506020613e0f86828701613b77565b9150509250925092565b60008060408385031215613e3057613e2f6134be565b5b6000613e3e85828601613511565b9250506020613e4f85828601613547565b9150509250929050565b600080600060408486031215613e7257613e716134be565b5b6000613e8086828701613511565b935050602084013567ffffffffffffffff811115613ea157613ea06134c3565b5b613ead86828701613d63565b92509250509250925092565b600060208284031215613ecf57613ece6134be565b5b6000613edd84828501613511565b91505092915050565b600082825260208201905092915050565b7f43616e6e6f742073656e6420746f6b656e7320746f2056656e7565206469726560008201527f63746c7900000000000000000000000000000000000000000000000000000000602082015250565b6000613f53602483613ee6565b9150613f5e82613ef7565b604082019050919050565b60006020820190508181036000830152613f8281613f46565b9050919050565b7f496e697469616c697a61626c653a20636f6e747261637420697320616c72656160008201527f647920696e697469616c697a6564000000000000000000000000000000000000602082015250565b6000613fe5602e83613ee6565b9150613ff082613f89565b604082019050919050565b6000602082019050818103600083015261401481613fd8565b9050919050565b60008151905061402a81613b60565b92915050565b60008151905061403f81613cbc565b92915050565b6000806000806000806000806000806101408b8d031215614069576140686134be565b5b60006140778d828e0161401b565b9a505060206140888d828e01614030565b99505060406140998d828e01614030565b98505060606140aa8d828e01614030565b97505060806140bb8d828e01614030565b96505060a06140cc8d828e01614030565b95505060c06140dd8d828e01614030565b94505060e06140ee8d828e01614030565b9350506101006141008d828e01614030565b9250506101206141128d828e01614030565b9150509295989b9194979a5092959850565b7f4f776e61626c653a2063616c6c6572206973206e6f7420746865206f776e6572600082015250565b600061415a602083613ee6565b915061416582614124565b602082019050919050565b600060208201905081810360008301526141898161414d565b9050919050565b7f5061757361626c653a2070617573656400000000000000000000000000000000600082015250565b60006141c6601083613ee6565b91506141d182614190565b602082019050919050565b600060208201905081810360008301526141f5816141b9565b9050919050565b7f4f6e6c7920436c61696d2063616e2066756c66696c6c00000000000000000000600082015250565b6000614232601683613ee6565b915061423d826141fc565b602082019050919050565b6000602082019050818103600083015261426181614225565b9050919050565b7f436c61696d2072657175657374206e6f7420666f756e64000000000000000000600082015250565b600061429e601783613ee6565b91506142a982614268565b602082019050919050565b600060208201905081810360008301526142cd81614291565b9050919050565b7f4e487b7100000000000000000000000000000000000000000000000000000000600052603260045260246000fd5b7f4e487b7100000000000000000000000000000000000000000000000000000000600052601160045260246000fd5b600061433d82613526565b915061434883613526565b9250827fffffffffffffffffffffffffffffffffffffffffffffffffffffffffffffffff0382111561437d5761437c614303565b5b828201905092915050565b600061439382613526565b915061439e83613526565b9250828210156143b1576143b0614303565b5b828203905092915050565b7f4e487b7100000000000000000000000000000000000000000000000000000000600052603160045260246000fd5b60006143f682613526565b91507fffffffffffffffffffffffffffffffffffffffffffffffffffffffffffffffff82141561442957614428614303565b5b600182019050919050565b7f496e76616c696420636c61696d20616d6f756e74000000000000000000000000600082015250565b600061446a601483613ee6565b915061447582614434565b602082019050919050565b600060208201905081810360008301526144998161445d565b9050919050565b6000602082840312156144b6576144b56134be565b5b60006144c484828501613ab4565b91505092915050565b7f4e6f7420796f757220746f6b656e000000000000000000000000000000000000600082015250565b6000614503600e83613ee6565b915061450e826144cd565b602082019050919050565b60006020820190508181036000830152614532816144f6565b9050919050565b7f43616e6e6f7420636c61696d206265666f726520454f42000000000000000000600082015250565b600061456f601783613ee6565b915061457a82614539565b602082019050919050565b6000602082019050818103600083015261459e81614562565b9050919050565b600082825260208201905092915050565b6000819050919050565b6145c981613937565b82525050565b60006145db83836145c0565b60208301905092915050565b60006145f66020840184613ab4565b905092915050565b6000602082019050919050565b600061461783856145a5565b9350614622826145b6565b8060005b8581101561465b5761463882846145e7565b61464288826145cf565b975061464d836145fe565b925050600181019050614626565b5085925050509392505050565b600060608201905061467d600083018761378e565b818103602083015261469081858761460b565b905061469f604083018461397b565b95945050505050565b6000815190506146b7816138cb565b92915050565b6000602082840312156146d3576146d26134be565b5b60006146e1848285016146a8565b91505092915050565b7f446f206e6f74206c6f736520796f757220746f6b656e73000000000000000000600082015250565b6000614720601783613ee6565b915061472b826146ea565b602082019050919050565b6000602082019050818103600083015261474f81614713565b9050919050565b7f4b69746368656e20737061636520726571756972656400000000000000000000600082015250565b600061478c601683613ee6565b915061479782614756565b602082019050919050565b600060208201905081810360008301526147bb8161477f565b9050919050565b60006147dd6147d86147d384613937565b613847565b613526565b9050919050565b6147ed816147c2565b82525050565b600060208201905061480860008301846147e4565b92915050565b60008151905061481d816134fa565b92915050565b600060208284031215614839576148386134be565b5b60006148478482850161480e565b91505092915050565b6000606082019050614865600083018661378e565b614872602083018561378e565b61487f60408301846147e4565b949350505050565b7f4e6f7420656c696769626c650000000000000000000000000000000000000000600082015250565b60006148bd600c83613ee6565b91506148c882614887565b602082019050919050565b600060208201905081810360008301526148ec816148b0565b9050919050565b7f4f776e61626c653a206e6577206f776e657220697320746865207a65726f206160008201527f6464726573730000000000000000000000000000000000000000000000000000602082015250565b600061494f602683613ee6565b915061495a826148f3565b604082019050919050565b6000602082019050818103600083015261497e81614942565b9050919050565b7f496e697469616c697a61626c653a20636f6e7472616374206973206e6f74206960008201527f6e697469616c697a696e67000000000000000000000000000000000000000000602082015250565b60006149e1602b83613ee6565b91506149ec82614985565b604082019050919050565b60006020820190508181036000830152614a10816149d4565b9050919050565b7f5061757361626c653a206e6f7420706175736564000000000000000000000000600082015250565b6000614a4d601483613ee6565b9150614a5882614a17565b602082019050919050565b60006020820190508181036000830152614a7c81614a40565b9050919050565b600082825260208201905092915050565b50565b6000614aa4600083614a83565b9150614aaf82614a94565b600082019050919050565b6000608082019050614acf600083018661378e565b614adc602083018561378e565b614ae96040830184613764565b8181036060830152614afa81614a97565b9050949350505050565b6000614b0f82613526565b91506000821415614b2357614b22614303565b5b600182039050919050565b600081519050919050565b60005b83811015614b57578082015181840152602081019050614b3c565b83811115614b66576000848401525b50505050565b6000614b7782614b2e565b614b818185613ee6565b9350614b91818560208601614b39565b614b9a816139e0565b840191505092915050565b600060e082019050614bba600083018a613764565b614bc76020830189613764565b614bd4604083018861397b565b614be1606083018761372c565b614bee608083018661372c565b81810360a0830152614c008185614b6c565b9050614c0f60c0830184613764565b98975050505050505050565b600060c082019050614c306000830189613764565b614c3d6020830188613764565b614c4a604083018761397b565b614c57606083018661372c565b614c64608083018561372c565b81810360a0830152614c768184614b6c565b9050979650505050505050565b6000606082019050614c986000830186613764565b614ca5602083018561378e565b614cb26040830184613764565b949350505050565b6000608082019050614ccf6000830187613764565b614cdc602083018661348a565b614ce9604083018561348a565b614cf66060830184613764565b95945050505050565b600080fd5b600067ffffffffffffffff821115614d1f57614d1e6139f1565b5b614d28826139e0565b9050602081019050919050565b6000614d48614d4384614d04565b613a51565b905082815260208101848484011115614d6457614d63614cff565b5b614d6f848285614b39565b509392505050565b600082601f830112614d8c57614d8b61355c565b5b8151614d9c848260208601614d35565b91505092915050565b600080600060608486031215614dbe57614dbd6134be565b5b6000614dcc86828701614030565b9350506020614ddd86828701614030565b925050604084015167ffffffffffffffff811115614dfe57614dfd6134c3565b5b614e0a86828701614d77565b9150509250925092565b6000819050919050565b6000614e2982614e14565b9150614e3483614e14565b9250827f7fffffffffffffffffffffffffffffffffffffffffffffffffffffffffffffff0482116000841360008413161615614e7357614e72614303565b5b817f80000000000000000000000000000000000000000000000000000000000000000583126000841260008413161615614eb057614eaf614303565b5b827f80000000000000000000000000000000000000000000000000000000000000000582126000841360008412161615614eed57614eec614303565b5b827f7fffffffffffffffffffffffffffffffffffffffffffffffffffffffffffffff0582126000841260008412161615614f2a57614f29614303565b5b828202905092915050565b7f4e487b7100000000000000000000000000000000000000000000000000000000600052601260045260246000fd5b6000614f6f82614e14565b9150614f7a83614e14565b925082614f8a57614f89614f35565b5b600160000383147f800000000000000000000000000000000000000000000000000000000000000083141615614fc357614fc2614303565b5b82820590509291505056fea2646970667358221220ba6ebe05a3b3838478624fb137d0a6d3a4f3f984515be426c1c303e76866149f64736f6c634300080a0033",
  "immutableReferences": {},
  "source": "// SPDX-License-Identifier: MIT\n\npragma solidity ^0.8.0;\n\nimport \"./Venue.sol\";\n\ncontract Gym is Venue {\n  function initialize(\n    address _character,\n    address _claim\n  ) external initializer {\n    __Ownable_init();\n    __Pausable_init();\n\n    character = Character(_character);\n    claim = IClaim(_claim);\n  }\n\n  /**\n   * Allows DAO to update game parameters\n   */\n  function configure(\n    uint256 _vestingPeriod,\n    uint256 _accrualPeriod,\n    int8 _dailyInsanityRate,\n    int8 _dailyFatnessRate,\n    uint8 _maxClaimsPerTx\n  ) external onlyOwner {\n    vestingPeriod = _vestingPeriod;\n    accrualPeriod = _accrualPeriod;\n    dailyInsanityRate = _dailyInsanityRate;\n    dailyFatnessRate = _dailyFatnessRate;\n    maxClaimsPerTx = _maxClaimsPerTx;\n  }\n}\n",
  "sourcePath": "/Users/chris/workspace/ratalert/ratalert-contracts/contracts/Gym.sol",
  "compiler": {
    "name": "solc",
    "version": "0.8.10+commit.fc410830.Emscripten.clang"
  },
  "schemaVersion": "3.4.5",
  "updatedAt": "2022-03-16T22:37:18.203Z",
  "networkType": "ethereum",
  "devdoc": {
    "kind": "dev",
    "methods": {
      "claimMany(uint16[],bool)": {
        "params": {
          "tokenIds": "- The IDs of the tokens in question",
          "unstake": "- Whether or not to unstake the given tokens"
        }
      },
      "fulfillClaimMany((bytes32,address,address,uint16[],bool),uint256)": {
        "params": {
          "randomVal": "- List of random values created by VRF",
          "v": "- VRF struct for the corresponding request"
        }
      },
      "getProperties(uint256)": {
        "params": {
          "tokenId": "- The ID of the token to check"
        },
        "returns": {
          "efficiency": "& tolerance values"
        }
      },
      "isChef(uint256)": {
        "params": {
          "tokenId": "- The ID of the token to check"
        },
        "returns": {
          "chef": "- Whether or not the token is a Chef"
        }
      },
      "owner()": {
        "details": "Returns the address of the current owner."
      },
      "paused()": {
        "details": "Returns true if the contract is paused, and false otherwise."
      },
      "renounceOwnership()": {
        "details": "Leaves the contract without owner. It will not be possible to call `onlyOwner` functions anymore. Can only be called by the current owner. NOTE: Renouncing ownership will leave the contract without an owner, thereby removing any functionality that is only available to the owner."
      },
      "stakeMany(address,uint16[])": {
        "params": {
          "account": "- The address of the staker",
          "tokenIds": "- The IDs of the Chefs & Rats to stake"
        }
      },
      "transferOwnership(address)": {
        "details": "Transfers ownership of the contract to a new account (`newOwner`). Can only be called by the current owner."
      }
    },
    "version": 1
  },
  "userdoc": {
    "kind": "user",
    "methods": {
      "claimMany(uint16[],bool)": {
        "notice": "ChainLink VRF request: Claims food token earnings, level-ups and optionally unstake characters"
      },
      "configure(uint256,uint256,int8,int8,uint8)": {
        "notice": "Allows DAO to update game parameters"
      },
      "fulfillClaimMany((bytes32,address,address,uint16[],bool),uint256)": {
        "notice": "ChainLink VRF callback for claimMany()"
      },
      "getProperties(uint256)": {
        "notice": "Get the character's properties"
      },
      "isChef(uint256)": {
        "notice": "Checks if the token is a Chef"
      },
      "stakeMany(address,uint16[])": {
        "notice": "Adds Chefs & Rats"
      }
    },
    "version": 1
  }
}