{
  "contractName": "Gym",
  "abi": [
    {
      "anonymous": false,
      "inputs": [
        {
          "indexed": false,
          "internalType": "uint256",
          "name": "tokenId",
          "type": "uint256"
        },
        {
          "indexed": false,
          "internalType": "uint256",
          "name": "earned",
          "type": "uint256"
        },
        {
          "indexed": false,
          "internalType": "bool",
          "name": "unstaked",
          "type": "bool"
        },
        {
          "indexed": false,
          "internalType": "uint8",
          "name": "skill",
          "type": "uint8"
        },
        {
          "indexed": false,
          "internalType": "uint8",
          "name": "insanity",
          "type": "uint8"
        },
        {
          "indexed": false,
          "internalType": "string",
          "name": "eventName",
          "type": "string"
        },
        {
          "indexed": false,
          "internalType": "uint256",
          "name": "foodTokensPerRat",
          "type": "uint256"
        }
      ],
      "name": "ChefClaimed",
      "type": "event"
    },
    {
      "anonymous": false,
      "inputs": [
        {
          "indexed": true,
          "internalType": "address",
          "name": "previousOwner",
          "type": "address"
        },
        {
          "indexed": true,
          "internalType": "address",
          "name": "newOwner",
          "type": "address"
        }
      ],
      "name": "OwnershipTransferred",
      "type": "event"
    },
    {
      "anonymous": false,
      "inputs": [
        {
          "indexed": false,
          "internalType": "address",
          "name": "account",
          "type": "address"
        }
      ],
      "name": "Paused",
      "type": "event"
    },
    {
      "anonymous": false,
      "inputs": [
        {
          "indexed": false,
          "internalType": "uint256",
          "name": "tokenId",
          "type": "uint256"
        },
        {
          "indexed": false,
          "internalType": "uint256",
          "name": "earned",
          "type": "uint256"
        },
        {
          "indexed": false,
          "internalType": "bool",
          "name": "unstaked",
          "type": "bool"
        },
        {
          "indexed": false,
          "internalType": "uint8",
          "name": "intelligence",
          "type": "uint8"
        },
        {
          "indexed": false,
          "internalType": "uint8",
          "name": "fatness",
          "type": "uint8"
        },
        {
          "indexed": false,
          "internalType": "string",
          "name": "eventName",
          "type": "string"
        }
      ],
      "name": "RatClaimed",
      "type": "event"
    },
    {
      "anonymous": false,
      "inputs": [
        {
          "indexed": false,
          "internalType": "uint256",
          "name": "tokenId",
          "type": "uint256"
        },
        {
          "indexed": false,
          "internalType": "address",
          "name": "owner",
          "type": "address"
        },
        {
          "indexed": false,
          "internalType": "uint256",
          "name": "value",
          "type": "uint256"
        }
      ],
      "name": "TokenStaked",
      "type": "event"
    },
    {
      "anonymous": false,
      "inputs": [
        {
          "indexed": false,
          "internalType": "address",
          "name": "account",
          "type": "address"
        }
      ],
      "name": "Unpaused",
      "type": "event"
    },
    {
      "inputs": [],
      "name": "accrualPeriod",
      "outputs": [
        {
          "internalType": "uint256",
          "name": "",
          "type": "uint256"
        }
      ],
      "stateMutability": "view",
      "type": "function",
      "constant": true
    },
    {
      "inputs": [
        {
          "internalType": "uint256",
          "name": "",
          "type": "uint256"
        }
      ],
      "name": "chefs",
      "outputs": [
        {
          "internalType": "uint256",
          "name": "tokenId",
          "type": "uint256"
        },
        {
          "internalType": "address",
          "name": "owner",
          "type": "address"
        },
        {
          "internalType": "uint80",
          "name": "value",
          "type": "uint80"
        },
        {
          "internalType": "uint80",
          "name": "timestamp",
          "type": "uint80"
        }
      ],
      "stateMutability": "view",
      "type": "function",
      "constant": true
    },
    {
      "inputs": [],
      "name": "claim",
      "outputs": [
        {
          "internalType": "contract IClaim",
          "name": "",
          "type": "address"
        }
      ],
      "stateMutability": "view",
      "type": "function",
      "constant": true
    },
    {
      "inputs": [
        {
          "internalType": "uint16[]",
          "name": "tokenIds",
          "type": "uint16[]"
        },
        {
          "internalType": "bool",
          "name": "unstake",
          "type": "bool"
        }
      ],
      "name": "claimMany",
      "outputs": [],
      "stateMutability": "nonpayable",
      "type": "function"
    },
    {
      "inputs": [
        {
          "internalType": "bytes32",
          "name": "",
          "type": "bytes32"
        },
        {
          "internalType": "uint256",
          "name": "",
          "type": "uint256"
        }
      ],
      "name": "claimRequests",
      "outputs": [
        {
          "internalType": "uint16",
          "name": "",
          "type": "uint16"
        }
      ],
      "stateMutability": "view",
      "type": "function",
      "constant": true
    },
    {
      "inputs": [],
      "name": "dailyFatnessRate",
      "outputs": [
        {
          "internalType": "int8",
          "name": "",
          "type": "int8"
        }
      ],
      "stateMutability": "view",
      "type": "function",
      "constant": true
    },
    {
      "inputs": [],
      "name": "dailyInsanityRate",
      "outputs": [
        {
          "internalType": "int8",
          "name": "",
          "type": "int8"
        }
      ],
      "stateMutability": "view",
      "type": "function",
      "constant": true
    },
    {
      "inputs": [],
      "name": "dailyIntelligenceRate",
      "outputs": [
        {
          "internalType": "int8",
          "name": "",
          "type": "int8"
        }
      ],
      "stateMutability": "view",
      "type": "function",
      "constant": true
    },
    {
      "inputs": [],
      "name": "dailySkillRate",
      "outputs": [
        {
          "internalType": "int8",
          "name": "",
          "type": "int8"
        }
      ],
      "stateMutability": "view",
      "type": "function",
      "constant": true
    },
    {
      "inputs": [],
      "name": "foodTokensPerRat",
      "outputs": [
        {
          "internalType": "uint256",
          "name": "",
          "type": "uint256"
        }
      ],
      "stateMutability": "view",
      "type": "function",
      "constant": true
    },
    {
      "inputs": [
        {
          "components": [
            {
              "internalType": "bytes32",
              "name": "requestId",
              "type": "bytes32"
            },
            {
              "internalType": "address",
              "name": "venue",
              "type": "address"
            },
            {
              "internalType": "address",
              "name": "sender",
              "type": "address"
            },
            {
              "internalType": "uint16[]",
              "name": "tokenIds",
              "type": "uint16[]"
            },
            {
              "internalType": "bool",
              "name": "unstake",
              "type": "bool"
            }
          ],
          "internalType": "struct IClaim.VRFStruct",
          "name": "v",
          "type": "tuple"
        },
        {
          "internalType": "uint256",
          "name": "randomVal",
          "type": "uint256"
        }
      ],
      "name": "fulfillClaimMany",
      "outputs": [],
      "stateMutability": "nonpayable",
      "type": "function"
    },
    {
      "inputs": [
        {
          "internalType": "uint256",
          "name": "tokenId",
          "type": "uint256"
        }
      ],
      "name": "getProperties",
      "outputs": [
        {
          "internalType": "uint8",
          "name": "efficiency",
          "type": "uint8"
        },
        {
          "internalType": "uint8",
          "name": "tolerance",
          "type": "uint8"
        }
      ],
      "stateMutability": "view",
      "type": "function",
      "constant": true
    },
    {
      "inputs": [
        {
          "internalType": "uint256",
          "name": "tokenId",
          "type": "uint256"
        }
      ],
      "name": "isChef",
      "outputs": [
        {
          "internalType": "bool",
          "name": "chef",
          "type": "bool"
        }
      ],
      "stateMutability": "view",
      "type": "function",
      "constant": true
    },
    {
      "inputs": [
        {
          "internalType": "address",
          "name": "",
          "type": "address"
        },
        {
          "internalType": "address",
          "name": "from",
          "type": "address"
        },
        {
          "internalType": "uint256",
          "name": "",
          "type": "uint256"
        },
        {
          "internalType": "bytes",
          "name": "",
          "type": "bytes"
        }
      ],
      "name": "onERC721Received",
      "outputs": [
        {
          "internalType": "bytes4",
          "name": "",
          "type": "bytes4"
        }
      ],
      "stateMutability": "pure",
      "type": "function",
      "constant": true
    },
    {
      "inputs": [],
      "name": "owner",
      "outputs": [
        {
          "internalType": "address",
          "name": "",
          "type": "address"
        }
      ],
      "stateMutability": "view",
      "type": "function",
      "constant": true
    },
    {
      "inputs": [],
      "name": "pause",
      "outputs": [],
      "stateMutability": "nonpayable",
      "type": "function"
    },
    {
      "inputs": [],
      "name": "paused",
      "outputs": [
        {
          "internalType": "bool",
          "name": "",
          "type": "bool"
        }
      ],
      "stateMutability": "view",
      "type": "function",
      "constant": true
    },
    {
      "inputs": [
        {
          "internalType": "uint256",
          "name": "",
          "type": "uint256"
        }
      ],
      "name": "rats",
      "outputs": [
        {
          "internalType": "uint256",
          "name": "tokenId",
          "type": "uint256"
        },
        {
          "internalType": "address",
          "name": "owner",
          "type": "address"
        },
        {
          "internalType": "uint80",
          "name": "value",
          "type": "uint80"
        },
        {
          "internalType": "uint80",
          "name": "timestamp",
          "type": "uint80"
        }
      ],
      "stateMutability": "view",
      "type": "function",
      "constant": true
    },
    {
      "inputs": [],
      "name": "renounceOwnership",
      "outputs": [],
      "stateMutability": "nonpayable",
      "type": "function"
    },
    {
      "inputs": [
        {
          "internalType": "address",
          "name": "account",
          "type": "address"
        },
        {
          "internalType": "uint16[]",
          "name": "tokenIds",
          "type": "uint16[]"
        }
      ],
      "name": "stakeMany",
      "outputs": [],
      "stateMutability": "nonpayable",
      "type": "function"
    },
    {
      "inputs": [
        {
          "internalType": "address",
          "name": "",
          "type": "address"
        },
        {
          "internalType": "uint256",
          "name": "",
          "type": "uint256"
        }
      ],
      "name": "stakers",
      "outputs": [
        {
          "internalType": "uint256",
          "name": "",
          "type": "uint256"
        }
      ],
      "stateMutability": "view",
      "type": "function",
      "constant": true
    },
    {
      "inputs": [],
      "name": "totalChefsStaked",
      "outputs": [
        {
          "internalType": "uint256",
          "name": "",
          "type": "uint256"
        }
      ],
      "stateMutability": "view",
      "type": "function",
      "constant": true
    },
    {
      "inputs": [],
      "name": "totalRatsStaked",
      "outputs": [
        {
          "internalType": "uint256",
          "name": "",
          "type": "uint256"
        }
      ],
      "stateMutability": "view",
      "type": "function",
      "constant": true
    },
    {
      "inputs": [
        {
          "internalType": "address",
          "name": "newOwner",
          "type": "address"
        }
      ],
      "name": "transferOwnership",
      "outputs": [],
      "stateMutability": "nonpayable",
      "type": "function"
    },
    {
      "inputs": [],
      "name": "unpause",
      "outputs": [],
      "stateMutability": "nonpayable",
      "type": "function"
    },
    {
      "inputs": [],
      "name": "vestingPeriod",
      "outputs": [
        {
          "internalType": "uint256",
          "name": "",
          "type": "uint256"
        }
      ],
      "stateMutability": "view",
      "type": "function",
      "constant": true
    },
    {
      "inputs": [
        {
          "internalType": "address",
          "name": "_character",
          "type": "address"
        },
        {
          "internalType": "address",
          "name": "_claim",
          "type": "address"
        },
        {
          "internalType": "uint256",
          "name": "_accrualPeriod",
          "type": "uint256"
        }
      ],
      "name": "initialize",
      "outputs": [],
      "stateMutability": "nonpayable",
      "type": "function"
    },
    {
      "inputs": [
        {
          "internalType": "address",
          "name": "_character",
          "type": "address"
        },
        {
          "internalType": "address",
          "name": "_claim",
          "type": "address"
        }
      ],
      "name": "initialize",
      "outputs": [],
      "stateMutability": "nonpayable",
      "type": "function"
    },
    {
      "inputs": [
        {
          "internalType": "uint256",
          "name": "_vestingPeriod",
          "type": "uint256"
        },
        {
          "internalType": "uint256",
          "name": "_accrualPeriod",
          "type": "uint256"
        },
        {
          "internalType": "int8",
          "name": "_dailyInsanityRate",
          "type": "int8"
        },
        {
          "internalType": "int8",
          "name": "_dailyFatnessRate",
          "type": "int8"
        }
      ],
      "name": "configure",
      "outputs": [],
      "stateMutability": "nonpayable",
      "type": "function"
    }
  ],
  "bytecode": "0x608060405234801561001057600080fd5b50614ea4806100206000396000f3fe608060405234801561001057600080fd5b50600436106101cf5760003560e01c8063715018a611610104578063bdb62941116100a2578063ef9f800f11610071578063ef9f800f146104ed578063f26667461461051d578063f2fde38b1461053b578063f666415514610557576101cf565b8063bdb6294114610465578063c8b6cbf714610483578063cba88af8146104b3578063dbdc1f6b146104d1576101cf565b80638da5cb5b116100de5780638da5cb5b146103f1578063922a18021461040f578063a262c0ad1461042b578063a7a1029014610449576101cf565b8063715018a6146103bf5780637313ee5a146103c95780638456cb59146103e7576101cf565b806342433ed0116101715780634d1c61af1161014b5780634d1c61af146103205780634e71d92d14610353578063525e915b146103715780635c975abb146103a1576101cf565b806342433ed0146102ca578063485cc955146102e6578063499f801014610302576101cf565b80631b8ca217116101ad5780631b8ca2171461023e5780632535a77f1461026f57806335ec066e1461028d5780633f4ba83a146102c0576101cf565b806310d53df1146101d4578063150b7a02146101f25780631794bb3c14610222575b600080fd5b6101dc610575565b6040516101e991906133e9565b60405180910390f35b61020c60048036038101906102079190613511565b610588565b60405161021991906135d4565b60405180910390f35b61023c600480360381019061023791906135ef565b61060b565b005b61025860048036038101906102539190613642565b610807565b60405161026692919061368b565b60405180910390f35b6102776108e8565b60405161028491906136c3565b60405180910390f35b6102a760048036038101906102a29190613642565b6108ee565b6040516102b79493929190613712565b60405180910390f35b6102c861096a565b005b6102e460048036038101906102df9190613783565b6109f0565b005b61030060048036038101906102fb91906137ea565b610abc565b005b61030a610c34565b60405161031791906136c3565b60405180910390f35b61033a60048036038101906103359190613642565b610c3a565b60405161034a9493929190613712565b60405180910390f35b61035b610cb6565b6040516103689190613889565b60405180910390f35b61038b600480360381019061038691906138da565b610cdc565b6040516103989190613937565b60405180910390f35b6103a9610d23565b6040516103b6919061396d565b60405180910390f35b6103c7610d3a565b005b6103d1610dc2565b6040516103de91906136c3565b60405180910390f35b6103ef610dc8565b005b6103f9610e4e565b6040516104069190613988565b60405180910390f35b61042960048036038101906104249190613bfc565b610e78565b005b6104336113e4565b60405161044091906133e9565b60405180910390f35b610463600480360381019061045e9190613cae565b6113f7565b005b61046d6117ac565b60405161047a91906133e9565b60405180910390f35b61049d60048036038101906104989190613d0e565b6117bf565b6040516104aa91906136c3565b60405180910390f35b6104bb6117f0565b6040516104c891906133e9565b60405180910390f35b6104eb60048036038101906104e69190613d4e565b611803565b005b61050760048036038101906105029190613642565b611d90565b604051610514919061396d565b60405180910390f35b610525611e65565b60405161053291906136c3565b60405180910390f35b61055560048036038101906105509190613dae565b611e6b565b005b61055f611f63565b60405161056c91906136c3565b60405180910390f35b609d60009054906101000a900460000b81565b60008073ffffffffffffffffffffffffffffffffffffffff168573ffffffffffffffffffffffffffffffffffffffff16146105f8576040517f08c379a00000000000000000000000000000000000000000000000000000000081526004016105ef90613e5e565b60405180910390fd5b63150b7a0260e01b905095945050505050565b600060019054906101000a900460ff166106335760008054906101000a900460ff161561063c565b61063b611f69565b5b61067b576040517f08c379a000000000000000000000000000000000000000000000000000000000815260040161067290613ef0565b60405180910390fd5b60008060019054906101000a900460ff1615905080156106cb576001600060016101000a81548160ff02191690831515021790555060016000806101000a81548160ff0219169083151502179055505b6106d3611f7a565b6106db611fdb565b83609760006101000a81548173ffffffffffffffffffffffffffffffffffffffff021916908373ffffffffffffffffffffffffffffffffffffffff16021790555082609860006101000a81548173ffffffffffffffffffffffffffffffffffffffff021916908373ffffffffffffffffffffffffffffffffffffffff1602179055508160a0819055506000609d60006101000a81548160ff021916908360000b60ff1602179055506000609d60016101000a81548160ff021916908360000b60ff1602179055506000609d60026101000a81548160ff021916908360000b60ff1602179055506000609d60036101000a81548160ff021916908360000b60ff16021790555080156108015760008060016101000a81548160ff0219169083151502179055505b50505050565b600080609760009054906101000a900473ffffffffffffffffffffffffffffffffffffffff1673ffffffffffffffffffffffffffffffffffffffff1663e05c57bf846040518263ffffffff1660e01b815260040161086591906136c3565b61014060405180830381865afa158015610883573d6000803e3d6000fd5b505050506040513d601f19601f820116820180604052508101906108a79190613f51565b909192939495969798509091929394959697509091929394959650909192939495509091929394509091929350909192509091508092508193505050915091565b60a15481565b609a6020528060005260406000206000915090508060000154908060010160009054906101000a900473ffffffffffffffffffffffffffffffffffffffff16908060010160149054906101000a900469ffffffffffffffffffff16908060020160009054906101000a900469ffffffffffffffffffff16905084565b61097261203c565b73ffffffffffffffffffffffffffffffffffffffff16610990610e4e565b73ffffffffffffffffffffffffffffffffffffffff16146109e6576040517f08c379a00000000000000000000000000000000000000000000000000000000081526004016109dd9061407c565b60405180910390fd5b6109ee612044565b565b6109f861203c565b73ffffffffffffffffffffffffffffffffffffffff16610a16610e4e565b73ffffffffffffffffffffffffffffffffffffffff1614610a6c576040517f08c379a0000000000000000000000000000000000000000000000000000000008152600401610a639061407c565b60405180910390fd5b8360a2819055508260a08190555081609d60016101000a81548160ff021916908360000b60ff16021790555080609d60036101000a81548160ff021916908360000b60ff16021790555050505050565b600060019054906101000a900460ff16610ae45760008054906101000a900460ff1615610aed565b610aec611f69565b5b610b2c576040517f08c379a0000000000000000000000000000000000000000000000000000000008152600401610b2390613ef0565b60405180910390fd5b60008060019054906101000a900460ff161590508015610b7c576001600060016101000a81548160ff02191690831515021790555060016000806101000a81548160ff0219169083151502179055505b610b84611f7a565b610b8c611fdb565b82609760006101000a81548173ffffffffffffffffffffffffffffffffffffffff021916908373ffffffffffffffffffffffffffffffffffffffff16021790555081609860006101000a81548173ffffffffffffffffffffffffffffffffffffffff021916908373ffffffffffffffffffffffffffffffffffffffff1602179055508015610c2f5760008060016101000a81548160ff0219169083151502179055505b505050565b609f5481565b60996020528060005260406000206000915090508060000154908060010160009054906101000a900473ffffffffffffffffffffffffffffffffffffffff16908060010160149054906101000a900469ffffffffffffffffffff16908060020160009054906101000a900469ffffffffffffffffffff16905084565b609860009054906101000a900473ffffffffffffffffffffffffffffffffffffffff1681565b609c6020528160005260406000208181548110610cf857600080fd5b9060005260206000209060109182820401919006600202915091509054906101000a900461ffff1681565b6000606560009054906101000a900460ff16905090565b610d4261203c565b73ffffffffffffffffffffffffffffffffffffffff16610d60610e4e565b73ffffffffffffffffffffffffffffffffffffffff1614610db6576040517f08c379a0000000000000000000000000000000000000000000000000000000008152600401610dad9061407c565b60405180910390fd5b610dc060006120e6565b565b60a25481565b610dd061203c565b73ffffffffffffffffffffffffffffffffffffffff16610dee610e4e565b73ffffffffffffffffffffffffffffffffffffffff1614610e44576040517f08c379a0000000000000000000000000000000000000000000000000000000008152600401610e3b9061407c565b60405180910390fd5b610e4c6121ac565b565b6000603360009054906101000a900473ffffffffffffffffffffffffffffffffffffffff16905090565b610e80610d23565b15610ec0576040517f08c379a0000000000000000000000000000000000000000000000000000000008152600401610eb7906140e8565b60405180910390fd5b609860009054906101000a900473ffffffffffffffffffffffffffffffffffffffff1673ffffffffffffffffffffffffffffffffffffffff163373ffffffffffffffffffffffffffffffffffffffff1614610f50576040517f08c379a0000000000000000000000000000000000000000000000000000000008152600401610f4790614154565b60405180910390fd5b6000609c6000846000015181526020019081526020016000208054905011610fad576040517f08c379a0000000000000000000000000000000000000000000000000000000008152600401610fa4906141c0565b60405180910390fd5b6000609c60008460000151815260200190815260200160002080548060200260200160405190810160405280929190818152602001828054801561103857602002820191906000526020600020906000905b82829054906101000a900461ffff1661ffff1681526020019060020190602082600101049283019260010382029150808411610fff5790505b50505050509050609c600084600001518152602001908152602001600020600061106291906132da565b6000805b82518110156113c55760006110808660400151600061224f565b90506110a9848381518110611098576110976141e0565b5b602002602001015161ffff16611d90565b156110fd576110eb8483815181106110c4576110c36141e0565b5b602002602001015161ffff1687604001518315806110e3575088608001515b84158961225b565b836110f6919061423e565b9250611148565b61113a848381518110611113576111126141e0565b5b602002602001015161ffff168760400151831580611132575088608001515b841589612705565b83611145919061423e565b92505b60005b609b6000886040015173ffffffffffffffffffffffffffffffffffffffff1673ffffffffffffffffffffffffffffffffffffffff168152602001908152602001600020805490508110156113b0578483815181106111ac576111ab6141e0565b5b602002602001015161ffff16609b6000896040015173ffffffffffffffffffffffffffffffffffffffff1673ffffffffffffffffffffffffffffffffffffffff168152602001908152602001600020828154811061120d5761120c6141e0565b5b9060005260206000200154141561139d57609b6000886040015173ffffffffffffffffffffffffffffffffffffffff1673ffffffffffffffffffffffffffffffffffffffff1681526020019081526020016000206001609b60008a6040015173ffffffffffffffffffffffffffffffffffffffff1673ffffffffffffffffffffffffffffffffffffffff168152602001908152602001600020805490506112b49190614294565b815481106112c5576112c46141e0565b5b9060005260206000200154609b6000896040015173ffffffffffffffffffffffffffffffffffffffff1673ffffffffffffffffffffffffffffffffffffffff1681526020019081526020016000208281548110611325576113246141e0565b5b9060005260206000200181905550609b6000886040015173ffffffffffffffffffffffffffffffffffffffff1673ffffffffffffffffffffffffffffffffffffffff168152602001908152602001600020805480611386576113856142c8565b5b600190038181906000526020600020016000905590555b80806113a8906142f7565b91505061114b565b505080806113bd906142f7565b915050611066565b5060008111156113de576113dd846040015182612bb2565b5b50505050565b609d60029054906101000a900460000b81565b6113ff610d23565b1561143f576040517f08c379a0000000000000000000000000000000000000000000000000000000008152600401611436906140e8565b60405180910390fd5b60005b838390508110156116d3576000611483858584818110611465576114646141e0565b5b905060200201602081019061147a9190614340565b61ffff16611d90565b6114ca57609a600086868581811061149e5761149d6141e0565b5b90506020020160208101906114b39190614340565b61ffff168152602001908152602001600020611509565b609960008686858181106114e1576114e06141e0565b5b90506020020160208101906114f69190614340565b61ffff1681526020019081526020016000205b604051806080016040529081600082015481526020016001820160009054906101000a900473ffffffffffffffffffffffffffffffffffffffff1673ffffffffffffffffffffffffffffffffffffffff1673ffffffffffffffffffffffffffffffffffffffff1681526020016001820160149054906101000a900469ffffffffffffffffffff1669ffffffffffffffffffff1669ffffffffffffffffffff1681526020016002820160009054906101000a900469ffffffffffffffffffff1669ffffffffffffffffffff1669ffffffffffffffffffff168152505090506115ee61203c565b73ffffffffffffffffffffffffffffffffffffffff16816020015173ffffffffffffffffffffffffffffffffffffffff161461165f576040517f08c379a0000000000000000000000000000000000000000000000000000000008152600401611656906143b9565b60405180910390fd5b60a254816060015169ffffffffffffffffffff164261167e9190614294565b10156116bf576040517f08c379a00000000000000000000000000000000000000000000000000000000081526004016116b690614425565b60405180910390fd5b5080806116cb906142f7565b915050611442565b506000609860009054906101000a900473ffffffffffffffffffffffffffffffffffffffff1673ffffffffffffffffffffffffffffffffffffffff16635bdf263c61171c61203c565b8686866040518563ffffffff1660e01b815260040161173e9493929190614508565b6020604051808303816000875af115801561175d573d6000803e3d6000fd5b505050506040513d601f19601f82011682018060405250810190611781919061455d565b90508383609c600084815260200190815260200160002091906117a5929190613302565b5050505050565b609d60019054906101000a900460000b81565b609b60205281600052604060002081815481106117db57600080fd5b90600052602060002001600091509150505481565b609d60039054906101000a900460000b81565b61180b61203c565b73ffffffffffffffffffffffffffffffffffffffff168373ffffffffffffffffffffffffffffffffffffffff1614806118985750609760009054906101000a900473ffffffffffffffffffffffffffffffffffffffff1673ffffffffffffffffffffffffffffffffffffffff1661188061203c565b73ffffffffffffffffffffffffffffffffffffffff16145b6118d7576040517f08c379a00000000000000000000000000000000000000000000000000000000081526004016118ce906145d6565b60405180910390fd5b6118eb6118e261203c565b8383905061224f565b61192a576040517f08c379a000000000000000000000000000000000000000000000000000000000815260040161192190614642565b60405180910390fd5b60005b82829050811015611d8a57609760009054906101000a900473ffffffffffffffffffffffffffffffffffffffff1673ffffffffffffffffffffffffffffffffffffffff1661197961203c565b73ffffffffffffffffffffffffffffffffffffffff1614611b8f5761199c61203c565b73ffffffffffffffffffffffffffffffffffffffff16609760009054906101000a900473ffffffffffffffffffffffffffffffffffffffff1673ffffffffffffffffffffffffffffffffffffffff16636352211e858585818110611a0357611a026141e0565b5b9050602002016020810190611a189190614340565b6040518263ffffffff1660e01b8152600401611a349190614693565b602060405180830381865afa158015611a51573d6000803e3d6000fd5b505050506040513d601f19601f82011682018060405250810190611a7591906146c3565b73ffffffffffffffffffffffffffffffffffffffff1614611acb576040517f08c379a0000000000000000000000000000000000000000000000000000000008152600401611ac2906143b9565b60405180910390fd5b609760009054906101000a900473ffffffffffffffffffffffffffffffffffffffff1673ffffffffffffffffffffffffffffffffffffffff166323b872dd611b1161203c565b30868686818110611b2557611b246141e0565b5b9050602002016020810190611b3a9190614340565b6040518463ffffffff1660e01b8152600401611b58939291906146f0565b600060405180830381600087803b158015611b7257600080fd5b505af1158015611b86573d6000803e3d6000fd5b50505050611bc9565b6000838383818110611ba457611ba36141e0565b5b9050602002016020810190611bb99190614340565b61ffff161415611bc857611d77565b5b611bfd838383818110611bdf57611bde6141e0565b5b9050602002016020810190611bf49190614340565b61ffff16612bb6565b611c3c576040517f08c379a0000000000000000000000000000000000000000000000000000000008152600401611c3390614773565b60405180910390fd5b611c70838383818110611c5257611c516141e0565b5b9050602002016020810190611c679190614340565b61ffff16611d90565b15611caf57611caa84848484818110611c8c57611c8b6141e0565b5b9050602002016020810190611ca19190614340565b61ffff16612bc1565b611ce5565b611ce484848484818110611cc657611cc56141e0565b5b9050602002016020810190611cdb9190614340565b61ffff16612d80565b5b609b60008573ffffffffffffffffffffffffffffffffffffffff1673ffffffffffffffffffffffffffffffffffffffff168152602001908152602001600020838383818110611d3757611d366141e0565b5b9050602002016020810190611d4c9190614340565b908060018154018082558091505060019003906000526020600020016000909161ffff169091909150555b8080611d82906142f7565b91505061192d565b50505050565b6000609760009054906101000a900473ffffffffffffffffffffffffffffffffffffffff1673ffffffffffffffffffffffffffffffffffffffff1663e05c57bf836040518263ffffffff1660e01b8152600401611ded91906136c3565b61014060405180830381865afa158015611e0b573d6000803e3d6000fd5b505050506040513d601f19601f82011682018060405250810190611e2f9190613f51565b90919293949596975090919293949596509091929394955090919293945090919293509091925090915090505080915050919050565b609e5481565b611e7361203c565b73ffffffffffffffffffffffffffffffffffffffff16611e91610e4e565b73ffffffffffffffffffffffffffffffffffffffff1614611ee7576040517f08c379a0000000000000000000000000000000000000000000000000000000008152600401611ede9061407c565b60405180910390fd5b600073ffffffffffffffffffffffffffffffffffffffff168173ffffffffffffffffffffffffffffffffffffffff161415611f57576040517f08c379a0000000000000000000000000000000000000000000000000000000008152600401611f4e90614805565b60405180910390fd5b611f60816120e6565b50565b60a05481565b6000611f7430612f48565b15905090565b600060019054906101000a900460ff16611fc9576040517f08c379a0000000000000000000000000000000000000000000000000000000008152600401611fc090614897565b60405180910390fd5b611fd1612f5b565b611fd9612fac565b565b600060019054906101000a900460ff1661202a576040517f08c379a000000000000000000000000000000000000000000000000000000000815260040161202190614897565b60405180910390fd5b612032612f5b565b61203a61300d565b565b600033905090565b61204c610d23565b61208b576040517f08c379a000000000000000000000000000000000000000000000000000000000815260040161208290614903565b60405180910390fd5b6000606560006101000a81548160ff0219169083151502179055507f5db9ee0a495bf2e6ff9c91a7834c1ba4fdd244a5e8aa4e537bd38aeae4b073aa6120cf61203c565b6040516120dc9190613988565b60405180910390a1565b6000603360009054906101000a900473ffffffffffffffffffffffffffffffffffffffff16905081603360006101000a81548173ffffffffffffffffffffffffffffffffffffffff021916908373ffffffffffffffffffffffffffffffffffffffff1602179055508173ffffffffffffffffffffffffffffffffffffffff168173ffffffffffffffffffffffffffffffffffffffff167f8be0079c531659141344cd1fd0a4f28419497f9722a3daafe3b4186f6b6457e060405160405180910390a35050565b6121b4610d23565b156121f4576040517f08c379a00000000000000000000000000000000000000000000000000000000081526004016121eb906140e8565b60405180910390fd5b6001606560006101000a81548160ff0219169083151502179055507f62e78cea01bee320cd4e420270b5ea74000d11b0c9f74754ebdbfc544b05a25861223861203c565b6040516122459190613988565b60405180910390a1565b60006001905092915050565b60008060996000888152602001908152602001600020604051806080016040529081600082015481526020016001820160009054906101000a900473ffffffffffffffffffffffffffffffffffffffff1673ffffffffffffffffffffffffffffffffffffffff1673ffffffffffffffffffffffffffffffffffffffff1681526020016001820160149054906101000a900469ffffffffffffffffffff1669ffffffffffffffffffff1669ffffffffffffffffffff1681526020016002820160009054906101000a900469ffffffffffffffffffff1669ffffffffffffffffffff1669ffffffffffffffffffff168152505090508573ffffffffffffffffffffffffffffffffffffffff16816020015173ffffffffffffffffffffffffffffffffffffffff16146123c0576040517f08c379a00000000000000000000000000000000000000000000000000000000081526004016123b7906143b9565b60405180910390fd5b60a254816060015169ffffffffffffffffffff16426123df9190614294565b1015612420576040517f08c379a000000000000000000000000000000000000000000000000000000000815260040161241790614425565b60405180910390fd5b836124335761242e81613079565b612436565b60005b915060008060006124478a87613080565b9250925092506124568a612bb6565b61245f57600197505b871561259257609760009054906101000a900473ffffffffffffffffffffffffffffffffffffffff1673ffffffffffffffffffffffffffffffffffffffff1663b88d4fde308b8d6040518463ffffffff1660e01b81526004016124c49392919061495a565b600060405180830381600087803b1580156124de57600080fd5b505af11580156124f2573d6000803e3d6000fd5b50505050609960008b81526020019081526020016000206000808201600090556001820160006101000a81549073ffffffffffffffffffffffffffffffffffffffff02191690556001820160146101000a81549069ffffffffffffffffffff02191690556002820160006101000a81549069ffffffffffffffffffff02191690555050609e6000815480929190612588906149a4565b91905055506126b3565b60405180608001604052808b61ffff1681526020018a73ffffffffffffffffffffffffffffffffffffffff1681526020014269ffffffffffffffffffff1681526020014269ffffffffffffffffffff16815250609960008c81526020019081526020016000206000820151816000015560208201518160010160006101000a81548173ffffffffffffffffffffffffffffffffffffffff021916908373ffffffffffffffffffffffffffffffffffffffff16021790555060408201518160010160146101000a81548169ffffffffffffffffffff021916908369ffffffffffffffffffff16021790555060608201518160020160006101000a81548169ffffffffffffffffffff021916908369ffffffffffffffffffff1602179055509050505b7f9b394c66bc4fdb2f56f5842a796076e6552d6f15eaacb6e63e3c53b474d872e98a868a86868660a1546040516126f09796959493929190614a45565b60405180910390a15050505095945050505050565b600080609a6000888152602001908152602001600020604051806080016040529081600082015481526020016001820160009054906101000a900473ffffffffffffffffffffffffffffffffffffffff1673ffffffffffffffffffffffffffffffffffffffff1673ffffffffffffffffffffffffffffffffffffffff1681526020016001820160149054906101000a900469ffffffffffffffffffff1669ffffffffffffffffffff1669ffffffffffffffffffff1681526020016002820160009054906101000a900469ffffffffffffffffffff1669ffffffffffffffffffff1669ffffffffffffffffffff168152505090508573ffffffffffffffffffffffffffffffffffffffff16816020015173ffffffffffffffffffffffffffffffffffffffff161461286a576040517f08c379a0000000000000000000000000000000000000000000000000000000008152600401612861906143b9565b60405180910390fd5b60a254816060015169ffffffffffffffffffff16426128899190614294565b10156128ca576040517f08c379a00000000000000000000000000000000000000000000000000000000081526004016128c190614425565b60405180910390fd5b836128dd576128d88161323e565b6128e0565b60005b915060008060006128f18a87613080565b9250925092506129008a612bb6565b61290957600197505b8715612a3c57609760009054906101000a900473ffffffffffffffffffffffffffffffffffffffff1673ffffffffffffffffffffffffffffffffffffffff1663b88d4fde308b8d6040518463ffffffff1660e01b815260040161296e9392919061495a565b600060405180830381600087803b15801561298857600080fd5b505af115801561299c573d6000803e3d6000fd5b50505050609a60008b81526020019081526020016000206000808201600090556001820160006101000a81549073ffffffffffffffffffffffffffffffffffffffff02191690556001820160146101000a81549069ffffffffffffffffffff02191690556002820160006101000a81549069ffffffffffffffffffff02191690555050609f6000815480929190612a32906149a4565b9190505550612b64565b60405180608001604052808b61ffff1681526020018a73ffffffffffffffffffffffffffffffffffffffff168152602001612a75613245565b69ffffffffffffffffffff1681526020014269ffffffffffffffffffff16815250609a60008c81526020019081526020016000206000820151816000015560208201518160010160006101000a81548173ffffffffffffffffffffffffffffffffffffffff021916908373ffffffffffffffffffffffffffffffffffffffff16021790555060408201518160010160146101000a81548169ffffffffffffffffffff021916908369ffffffffffffffffffff16021790555060608201518160020160006101000a81548169ffffffffffffffffffff021916908369ffffffffffffffffffff1602179055509050505b7f6e949c62565860afb9dd6295e998a1c40005fe9560aedf8d596717681cfc7a1f8a868a868686604051612b9d96959493929190614abb565b60405180910390a15050505095945050505050565b5050565b600060019050919050565b612bc9610d23565b15612c09576040517f08c379a0000000000000000000000000000000000000000000000000000000008152600401612c00906140e8565b60405180910390fd5b60405180608001604052808261ffff1681526020018373ffffffffffffffffffffffffffffffffffffffff1681526020014269ffffffffffffffffffff1681526020014269ffffffffffffffffffff16815250609960008381526020019081526020016000206000820151816000015560208201518160010160006101000a81548173ffffffffffffffffffffffffffffffffffffffff021916908373ffffffffffffffffffffffffffffffffffffffff16021790555060408201518160010160146101000a81548169ffffffffffffffffffff021916908369ffffffffffffffffffff16021790555060608201518160020160006101000a81548169ffffffffffffffffffff021916908369ffffffffffffffffffff160217905550905050609e6000815480929190612d3c906142f7565b91905055507f8af1bb49fb16c7835975aa59449ba4328dd54737dfb2ae9fa6c5eca71fda51f9818342604051612d7493929190614b23565b60405180910390a15050565b612d88610d23565b15612dc8576040517f08c379a0000000000000000000000000000000000000000000000000000000008152600401612dbf906140e8565b60405180910390fd5b60405180608001604052808261ffff1681526020018373ffffffffffffffffffffffffffffffffffffffff168152602001612e01613245565b69ffffffffffffffffffff1681526020014269ffffffffffffffffffff16815250609a60008381526020019081526020016000206000820151816000015560208201518160010160006101000a81548173ffffffffffffffffffffffffffffffffffffffff021916908373ffffffffffffffffffffffffffffffffffffffff16021790555060408201518160010160146101000a81548169ffffffffffffffffffff021916908369ffffffffffffffffffff16021790555060608201518160020160006101000a81548169ffffffffffffffffffff021916908369ffffffffffffffffffff160217905550905050609f6000815480929190612f02906142f7565b91905055507f8af1bb49fb16c7835975aa59449ba4328dd54737dfb2ae9fa6c5eca71fda51f9818360a154604051612f3c93929190614b23565b60405180910390a15050565b600080823b905060008111915050919050565b600060019054906101000a900460ff16612faa576040517f08c379a0000000000000000000000000000000000000000000000000000000008152600401612fa190614897565b60405180910390fd5b565b600060019054906101000a900460ff16612ffb576040517f08c379a0000000000000000000000000000000000000000000000000000000008152600401612ff290614897565b60405180910390fd5b61300b61300661203c565b6120e6565b565b600060019054906101000a900460ff1661305c576040517f08c379a000000000000000000000000000000000000000000000000000000000815260040161305390614897565b60405180910390fd5b6000606560006101000a81548160ff021916908315150217905550565b6000919050565b6000806060600061309086611d90565b6130c657609a600087815260200190815260200160002060020160009054906101000a900469ffffffffffffffffffff166130f4565b6099600087815260200190815260200160002060020160009054906101000a900469ffffffffffffffffffff165b69ffffffffffffffffffff164261310b9190614294565b9050600061311887611d90565b9050609760009054906101000a900473ffffffffffffffffffffffffffffffffffffffff1673ffffffffffffffffffffffffffffffffffffffff166363dbfc778861318d8461317657609d60029054906101000a900460000b613187565b609d60009054906101000a900460000b5b8661324a565b6131c1856131aa57609d60039054906101000a900460000b6131bb565b609d60019054906101000a900460000b5b8761324a565b8a6040518563ffffffff1660e01b81526004016131e19493929190614b5a565b6000604051808303816000875af1158015613200573d6000803e3d6000fd5b505050506040513d6000823e3d601f19601f820116820180604052508101906132299190614c45565b80955081965082975050505050509250925092565b6000919050565b600090565b60008060a0548460000b8461325f9190614cbe565b6132699190614e04565b9050606481131561327e5760649150506132d4565b7fffffffffffffffffffffffffffffffffffffffffffffffffffffffffffffff9c8112156132cf577fffffffffffffffffffffffffffffffffffffffffffffffffffffffffffffff9c9150506132d4565b809150505b92915050565b50805460008255600f0160109004906000526020600020908101906132ff91906133b0565b50565b82805482825590600052602060002090600f0160109004810192821561339f5791602002820160005b8382111561336f57833561ffff1683826101000a81548161ffff021916908361ffff160217905550926020019260020160208160010104928301926001030261332b565b801561339d5782816101000a81549061ffff021916905560020160208160010104928301926001030261336f565b505b5090506133ac91906133b0565b5090565b5b808211156133c95760008160009055506001016133b1565b5090565b60008160000b9050919050565b6133e3816133cd565b82525050565b60006020820190506133fe60008301846133da565b92915050565b6000604051905090565b600080fd5b600080fd5b600073ffffffffffffffffffffffffffffffffffffffff82169050919050565b600061344382613418565b9050919050565b61345381613438565b811461345e57600080fd5b50565b6000813590506134708161344a565b92915050565b6000819050919050565b61348981613476565b811461349457600080fd5b50565b6000813590506134a681613480565b92915050565b600080fd5b600080fd5b600080fd5b60008083601f8401126134d1576134d06134ac565b5b8235905067ffffffffffffffff8111156134ee576134ed6134b1565b5b60208301915083600182028301111561350a576135096134b6565b5b9250929050565b60008060008060006080868803121561352d5761352c61340e565b5b600061353b88828901613461565b955050602061354c88828901613461565b945050604061355d88828901613497565b935050606086013567ffffffffffffffff81111561357e5761357d613413565b5b61358a888289016134bb565b92509250509295509295909350565b60007fffffffff0000000000000000000000000000000000000000000000000000000082169050919050565b6135ce81613599565b82525050565b60006020820190506135e960008301846135c5565b92915050565b6000806000606084860312156136085761360761340e565b5b600061361686828701613461565b935050602061362786828701613461565b925050604061363886828701613497565b9150509250925092565b6000602082840312156136585761365761340e565b5b600061366684828501613497565b91505092915050565b600060ff82169050919050565b6136858161366f565b82525050565b60006040820190506136a0600083018561367c565b6136ad602083018461367c565b9392505050565b6136bd81613476565b82525050565b60006020820190506136d860008301846136b4565b92915050565b6136e781613438565b82525050565b600069ffffffffffffffffffff82169050919050565b61370c816136ed565b82525050565b600060808201905061372760008301876136b4565b61373460208301866136de565b6137416040830185613703565b61374e6060830184613703565b95945050505050565b613760816133cd565b811461376b57600080fd5b50565b60008135905061377d81613757565b92915050565b6000806000806080858703121561379d5761379c61340e565b5b60006137ab87828801613497565b94505060206137bc87828801613497565b93505060406137cd8782880161376e565b92505060606137de8782880161376e565b91505092959194509250565b600080604083850312156138015761380061340e565b5b600061380f85828601613461565b925050602061382085828601613461565b9150509250929050565b6000819050919050565b600061384f61384a61384584613418565b61382a565b613418565b9050919050565b600061386182613834565b9050919050565b600061387382613856565b9050919050565b61388381613868565b82525050565b600060208201905061389e600083018461387a565b92915050565b6000819050919050565b6138b7816138a4565b81146138c257600080fd5b50565b6000813590506138d4816138ae565b92915050565b600080604083850312156138f1576138f061340e565b5b60006138ff858286016138c5565b925050602061391085828601613497565b9150509250929050565b600061ffff82169050919050565b6139318161391a565b82525050565b600060208201905061394c6000830184613928565b92915050565b60008115159050919050565b61396781613952565b82525050565b6000602082019050613982600083018461395e565b92915050565b600060208201905061399d60008301846136de565b92915050565b600080fd5b6000601f19601f8301169050919050565b7f4e487b7100000000000000000000000000000000000000000000000000000000600052604160045260246000fd5b6139f1826139a8565b810181811067ffffffffffffffff82111715613a1057613a0f6139b9565b5b80604052505050565b6000613a23613404565b9050613a2f82826139e8565b919050565b600080fd5b600067ffffffffffffffff821115613a5457613a536139b9565b5b602082029050602081019050919050565b613a6e8161391a565b8114613a7957600080fd5b50565b600081359050613a8b81613a65565b92915050565b6000613aa4613a9f84613a39565b613a19565b90508083825260208201905060208402830185811115613ac757613ac66134b6565b5b835b81811015613af05780613adc8882613a7c565b845260208401935050602081019050613ac9565b5050509392505050565b600082601f830112613b0f57613b0e6134ac565b5b8135613b1f848260208601613a91565b91505092915050565b613b3181613952565b8114613b3c57600080fd5b50565b600081359050613b4e81613b28565b92915050565b600060a08284031215613b6a57613b696139a3565b5b613b7460a0613a19565b90506000613b84848285016138c5565b6000830152506020613b9884828501613461565b6020830152506040613bac84828501613461565b604083015250606082013567ffffffffffffffff811115613bd057613bcf613a34565b5b613bdc84828501613afa565b6060830152506080613bf084828501613b3f565b60808301525092915050565b60008060408385031215613c1357613c1261340e565b5b600083013567ffffffffffffffff811115613c3157613c30613413565b5b613c3d85828601613b54565b9250506020613c4e85828601613497565b9150509250929050565b60008083601f840112613c6e57613c6d6134ac565b5b8235905067ffffffffffffffff811115613c8b57613c8a6134b1565b5b602083019150836020820283011115613ca757613ca66134b6565b5b9250929050565b600080600060408486031215613cc757613cc661340e565b5b600084013567ffffffffffffffff811115613ce557613ce4613413565b5b613cf186828701613c58565b93509350506020613d0486828701613b3f565b9150509250925092565b60008060408385031215613d2557613d2461340e565b5b6000613d3385828601613461565b9250506020613d4485828601613497565b9150509250929050565b600080600060408486031215613d6757613d6661340e565b5b6000613d7586828701613461565b935050602084013567ffffffffffffffff811115613d9657613d95613413565b5b613da286828701613c58565b92509250509250925092565b600060208284031215613dc457613dc361340e565b5b6000613dd284828501613461565b91505092915050565b600082825260208201905092915050565b7f43616e6e6f742073656e6420746f6b656e7320746f2056656e7565206469726560008201527f63746c7900000000000000000000000000000000000000000000000000000000602082015250565b6000613e48602483613ddb565b9150613e5382613dec565b604082019050919050565b60006020820190508181036000830152613e7781613e3b565b9050919050565b7f496e697469616c697a61626c653a20636f6e747261637420697320616c72656160008201527f647920696e697469616c697a6564000000000000000000000000000000000000602082015250565b6000613eda602e83613ddb565b9150613ee582613e7e565b604082019050919050565b60006020820190508181036000830152613f0981613ecd565b9050919050565b600081519050613f1f81613b28565b92915050565b613f2e8161366f565b8114613f3957600080fd5b50565b600081519050613f4b81613f25565b92915050565b6000806000806000806000806000806101408b8d031215613f7557613f7461340e565b5b6000613f838d828e01613f10565b9a50506020613f948d828e01613f3c565b9950506040613fa58d828e01613f3c565b9850506060613fb68d828e01613f3c565b9750506080613fc78d828e01613f3c565b96505060a0613fd88d828e01613f3c565b95505060c0613fe98d828e01613f3c565b94505060e0613ffa8d828e01613f3c565b93505061010061400c8d828e01613f3c565b92505061012061401e8d828e01613f3c565b9150509295989b9194979a5092959850565b7f4f776e61626c653a2063616c6c6572206973206e6f7420746865206f776e6572600082015250565b6000614066602083613ddb565b915061407182614030565b602082019050919050565b6000602082019050818103600083015261409581614059565b9050919050565b7f5061757361626c653a2070617573656400000000000000000000000000000000600082015250565b60006140d2601083613ddb565b91506140dd8261409c565b602082019050919050565b60006020820190508181036000830152614101816140c5565b9050919050565b7f4f6e6c7920436c61696d2063616e2066756c66696c6c00000000000000000000600082015250565b600061413e601683613ddb565b915061414982614108565b602082019050919050565b6000602082019050818103600083015261416d81614131565b9050919050565b7f436c61696d2072657175657374206e6f7420666f756e64000000000000000000600082015250565b60006141aa601783613ddb565b91506141b582614174565b602082019050919050565b600060208201905081810360008301526141d98161419d565b9050919050565b7f4e487b7100000000000000000000000000000000000000000000000000000000600052603260045260246000fd5b7f4e487b7100000000000000000000000000000000000000000000000000000000600052601160045260246000fd5b600061424982613476565b915061425483613476565b9250827fffffffffffffffffffffffffffffffffffffffffffffffffffffffffffffffff038211156142895761428861420f565b5b828201905092915050565b600061429f82613476565b91506142aa83613476565b9250828210156142bd576142bc61420f565b5b828203905092915050565b7f4e487b7100000000000000000000000000000000000000000000000000000000600052603160045260246000fd5b600061430282613476565b91507fffffffffffffffffffffffffffffffffffffffffffffffffffffffffffffffff8214156143355761433461420f565b5b600182019050919050565b6000602082840312156143565761435561340e565b5b600061436484828501613a7c565b91505092915050565b7f4e6f7420796f757220746f6b656e000000000000000000000000000000000000600082015250565b60006143a3600e83613ddb565b91506143ae8261436d565b602082019050919050565b600060208201905081810360008301526143d281614396565b9050919050565b7f43616e6e6f7420636c61696d206265666f726520454f42000000000000000000600082015250565b600061440f601783613ddb565b915061441a826143d9565b602082019050919050565b6000602082019050818103600083015261443e81614402565b9050919050565b600082825260208201905092915050565b6000819050919050565b6144698161391a565b82525050565b600061447b8383614460565b60208301905092915050565b60006144966020840184613a7c565b905092915050565b6000602082019050919050565b60006144b78385614445565b93506144c282614456565b8060005b858110156144fb576144d88284614487565b6144e2888261446f565b97506144ed8361449e565b9250506001810190506144c6565b5085925050509392505050565b600060608201905061451d60008301876136de565b81810360208301526145308185876144ab565b905061453f604083018461395e565b95945050505050565b600081519050614557816138ae565b92915050565b6000602082840312156145735761457261340e565b5b600061458184828501614548565b91505092915050565b7f446f206e6f74206c6f736520796f757220746f6b656e73000000000000000000600082015250565b60006145c0601783613ddb565b91506145cb8261458a565b602082019050919050565b600060208201905081810360008301526145ef816145b3565b9050919050565b7f4b69746368656e20737061636520726571756972656400000000000000000000600082015250565b600061462c601683613ddb565b9150614637826145f6565b602082019050919050565b6000602082019050818103600083015261465b8161461f565b9050919050565b600061467d6146786146738461391a565b61382a565b613476565b9050919050565b61468d81614662565b82525050565b60006020820190506146a86000830184614684565b92915050565b6000815190506146bd8161344a565b92915050565b6000602082840312156146d9576146d861340e565b5b60006146e7848285016146ae565b91505092915050565b600060608201905061470560008301866136de565b61471260208301856136de565b61471f6040830184614684565b949350505050565b7f4e6f7420656c696769626c650000000000000000000000000000000000000000600082015250565b600061475d600c83613ddb565b915061476882614727565b602082019050919050565b6000602082019050818103600083015261478c81614750565b9050919050565b7f4f776e61626c653a206e6577206f776e657220697320746865207a65726f206160008201527f6464726573730000000000000000000000000000000000000000000000000000602082015250565b60006147ef602683613ddb565b91506147fa82614793565b604082019050919050565b6000602082019050818103600083015261481e816147e2565b9050919050565b7f496e697469616c697a61626c653a20636f6e7472616374206973206e6f74206960008201527f6e697469616c697a696e67000000000000000000000000000000000000000000602082015250565b6000614881602b83613ddb565b915061488c82614825565b604082019050919050565b600060208201905081810360008301526148b081614874565b9050919050565b7f5061757361626c653a206e6f7420706175736564000000000000000000000000600082015250565b60006148ed601483613ddb565b91506148f8826148b7565b602082019050919050565b6000602082019050818103600083015261491c816148e0565b9050919050565b600082825260208201905092915050565b50565b6000614944600083614923565b915061494f82614934565b600082019050919050565b600060808201905061496f60008301866136de565b61497c60208301856136de565b61498960408301846136b4565b818103606083015261499a81614937565b9050949350505050565b60006149af82613476565b915060008214156149c3576149c261420f565b5b600182039050919050565b600081519050919050565b60005b838110156149f75780820151818401526020810190506149dc565b83811115614a06576000848401525b50505050565b6000614a17826149ce565b614a218185613ddb565b9350614a318185602086016149d9565b614a3a816139a8565b840191505092915050565b600060e082019050614a5a600083018a6136b4565b614a6760208301896136b4565b614a74604083018861395e565b614a81606083018761367c565b614a8e608083018661367c565b81810360a0830152614aa08185614a0c565b9050614aaf60c08301846136b4565b98975050505050505050565b600060c082019050614ad060008301896136b4565b614add60208301886136b4565b614aea604083018761395e565b614af7606083018661367c565b614b04608083018561367c565b81810360a0830152614b168184614a0c565b9050979650505050505050565b6000606082019050614b3860008301866136b4565b614b4560208301856136de565b614b5260408301846136b4565b949350505050565b6000608082019050614b6f60008301876136b4565b614b7c60208301866133da565b614b8960408301856133da565b614b9660608301846136b4565b95945050505050565b600080fd5b600067ffffffffffffffff821115614bbf57614bbe6139b9565b5b614bc8826139a8565b9050602081019050919050565b6000614be8614be384614ba4565b613a19565b905082815260208101848484011115614c0457614c03614b9f565b5b614c0f8482856149d9565b509392505050565b600082601f830112614c2c57614c2b6134ac565b5b8151614c3c848260208601614bd5565b91505092915050565b600080600060608486031215614c5e57614c5d61340e565b5b6000614c6c86828701613f3c565b9350506020614c7d86828701613f3c565b925050604084015167ffffffffffffffff811115614c9e57614c9d613413565b5b614caa86828701614c17565b9150509250925092565b6000819050919050565b6000614cc982614cb4565b9150614cd483614cb4565b9250827f7fffffffffffffffffffffffffffffffffffffffffffffffffffffffffffffff0482116000841360008413161615614d1357614d1261420f565b5b817f80000000000000000000000000000000000000000000000000000000000000000583126000841260008413161615614d5057614d4f61420f565b5b827f80000000000000000000000000000000000000000000000000000000000000000582126000841360008412161615614d8d57614d8c61420f565b5b827f7fffffffffffffffffffffffffffffffffffffffffffffffffffffffffffffff0582126000841260008412161615614dca57614dc961420f565b5b828202905092915050565b7f4e487b7100000000000000000000000000000000000000000000000000000000600052601260045260246000fd5b6000614e0f82614cb4565b9150614e1a83614cb4565b925082614e2a57614e29614dd5565b5b600160000383147f800000000000000000000000000000000000000000000000000000000000000083141615614e6357614e6261420f565b5b82820590509291505056fea26469706673582212203f3397404752f13e5322175ca90e862d455176927e0f7bd725afd8122b9eb7fa64736f6c634300080a0033",
  "immutableReferences": {},
  "source": "// SPDX-License-Identifier: MIT\n\npragma solidity ^0.8.0;\n\nimport \"./Venue.sol\";\n\ncontract Gym is Venue {\n  function initialize(\n    address _character,\n    address _claim\n  ) external initializer {\n    __Ownable_init();\n    __Pausable_init();\n\n    character = Character(_character);\n    claim = IClaim(_claim);\n  }\n\n  /**\n   * Allows DAO to update game parameters\n   */\n  function configure(\n    uint256 _vestingPeriod,\n    uint256 _accrualPeriod,\n    int8 _dailyInsanityRate,\n    int8 _dailyFatnessRate\n  ) external onlyOwner {\n    vestingPeriod = _vestingPeriod;\n    accrualPeriod = _accrualPeriod;\n    dailyInsanityRate = _dailyInsanityRate;\n    dailyFatnessRate = _dailyFatnessRate;\n  }\n}\n",
  "sourcePath": "/Users/chris/workspace/ratalert/ratalert-contracts/contracts/Gym.sol",
  "compiler": {
    "name": "solc",
    "version": "0.8.10+commit.fc410830.Emscripten.clang"
  },
  "schemaVersion": "3.4.5",
  "updatedAt": "2022-03-14T18:23:02.872Z",
  "networkType": "ethereum",
  "devdoc": {
    "kind": "dev",
    "methods": {
      "claimMany(uint16[],bool)": {
        "params": {
          "tokenIds": "- The IDs of the tokens in question",
          "unstake": "- Whether or not to unstake the given tokens"
        }
      },
      "fulfillClaimMany((bytes32,address,address,uint16[],bool),uint256)": {
        "params": {
          "randomVal": "- List of random values created by VRF",
          "v": "- VRF struct for the corresponding request"
        }
      },
      "getProperties(uint256)": {
        "params": {
          "tokenId": "- The ID of the token to check"
        },
        "returns": {
          "efficiency": "& tolerance values"
        }
      },
      "isChef(uint256)": {
        "params": {
          "tokenId": "- The ID of the token to check"
        },
        "returns": {
          "chef": "- Whether or not the token is a Chef"
        }
      },
      "owner()": {
        "details": "Returns the address of the current owner."
      },
      "paused()": {
        "details": "Returns true if the contract is paused, and false otherwise."
      },
      "renounceOwnership()": {
        "details": "Leaves the contract without owner. It will not be possible to call `onlyOwner` functions anymore. Can only be called by the current owner. NOTE: Renouncing ownership will leave the contract without an owner, thereby removing any functionality that is only available to the owner."
      },
      "stakeMany(address,uint16[])": {
        "params": {
          "account": "- The address of the staker",
          "tokenIds": "- The IDs of the Chefs & Rats to stake"
        }
      },
      "transferOwnership(address)": {
        "details": "Transfers ownership of the contract to a new account (`newOwner`). Can only be called by the current owner."
      }
    },
    "version": 1
  },
  "userdoc": {
    "kind": "user",
    "methods": {
      "claimMany(uint16[],bool)": {
        "notice": "ChainLink VRF request: Claims food token earnings, level-ups and optionally unstake characters"
      },
      "configure(uint256,uint256,int8,int8)": {
        "notice": "Allows DAO to update game parameters"
      },
      "fulfillClaimMany((bytes32,address,address,uint16[],bool),uint256)": {
        "notice": "ChainLink VRF callback for claimMany()"
      },
      "getProperties(uint256)": {
        "notice": "Get the character's properties"
      },
      "isChef(uint256)": {
        "notice": "Checks if the token is a Chef"
      },
      "stakeMany(address,uint16[])": {
        "notice": "Adds Chefs & Rats"
      }
    },
    "version": 1
  }
}