{
  "contractName": "Gym",
  "abi": [
    {
      "anonymous": false,
      "inputs": [
        {
          "indexed": false,
          "internalType": "uint256",
          "name": "tokenId",
          "type": "uint256"
        },
        {
          "indexed": false,
          "internalType": "uint256",
          "name": "earned",
          "type": "uint256"
        },
        {
          "indexed": false,
          "internalType": "bool",
          "name": "unstaked",
          "type": "bool"
        },
        {
          "indexed": false,
          "internalType": "uint8",
          "name": "skill",
          "type": "uint8"
        },
        {
          "indexed": false,
          "internalType": "uint8",
          "name": "insanity",
          "type": "uint8"
        },
        {
          "indexed": false,
          "internalType": "string",
          "name": "eventName",
          "type": "string"
        },
        {
          "indexed": false,
          "internalType": "uint256",
          "name": "foodTokensPerRat",
          "type": "uint256"
        }
      ],
      "name": "ChefClaimed",
      "type": "event"
    },
    {
      "anonymous": false,
      "inputs": [
        {
          "indexed": true,
          "internalType": "address",
          "name": "previousOwner",
          "type": "address"
        },
        {
          "indexed": true,
          "internalType": "address",
          "name": "newOwner",
          "type": "address"
        }
      ],
      "name": "OwnershipTransferred",
      "type": "event"
    },
    {
      "anonymous": false,
      "inputs": [
        {
          "indexed": false,
          "internalType": "address",
          "name": "account",
          "type": "address"
        }
      ],
      "name": "Paused",
      "type": "event"
    },
    {
      "anonymous": false,
      "inputs": [
        {
          "indexed": false,
          "internalType": "uint256",
          "name": "tokenId",
          "type": "uint256"
        },
        {
          "indexed": false,
          "internalType": "uint256",
          "name": "earned",
          "type": "uint256"
        },
        {
          "indexed": false,
          "internalType": "bool",
          "name": "unstaked",
          "type": "bool"
        },
        {
          "indexed": false,
          "internalType": "uint8",
          "name": "intelligence",
          "type": "uint8"
        },
        {
          "indexed": false,
          "internalType": "uint8",
          "name": "fatness",
          "type": "uint8"
        },
        {
          "indexed": false,
          "internalType": "string",
          "name": "eventName",
          "type": "string"
        }
      ],
      "name": "RatClaimed",
      "type": "event"
    },
    {
      "anonymous": false,
      "inputs": [
        {
          "indexed": false,
          "internalType": "uint256",
          "name": "tokenId",
          "type": "uint256"
        },
        {
          "indexed": false,
          "internalType": "address",
          "name": "owner",
          "type": "address"
        },
        {
          "indexed": false,
          "internalType": "uint256",
          "name": "value",
          "type": "uint256"
        }
      ],
      "name": "TokenStaked",
      "type": "event"
    },
    {
      "anonymous": false,
      "inputs": [
        {
          "indexed": false,
          "internalType": "address",
          "name": "account",
          "type": "address"
        }
      ],
      "name": "Unpaused",
      "type": "event"
    },
    {
      "inputs": [],
      "name": "accrualPeriod",
      "outputs": [
        {
          "internalType": "uint256",
          "name": "",
          "type": "uint256"
        }
      ],
      "stateMutability": "view",
      "type": "function",
      "constant": true
    },
    {
      "inputs": [
        {
          "internalType": "uint256",
          "name": "",
          "type": "uint256"
        }
      ],
      "name": "chefs",
      "outputs": [
        {
          "internalType": "uint256",
          "name": "tokenId",
          "type": "uint256"
        },
        {
          "internalType": "address",
          "name": "owner",
          "type": "address"
        },
        {
          "internalType": "uint80",
          "name": "value",
          "type": "uint80"
        },
        {
          "internalType": "uint80",
          "name": "timestamp",
          "type": "uint80"
        }
      ],
      "stateMutability": "view",
      "type": "function",
      "constant": true
    },
    {
      "inputs": [],
      "name": "claim",
      "outputs": [
        {
          "internalType": "contract IClaim",
          "name": "",
          "type": "address"
        }
      ],
      "stateMutability": "view",
      "type": "function",
      "constant": true
    },
    {
      "inputs": [
        {
          "internalType": "uint16[]",
          "name": "tokenIds",
          "type": "uint16[]"
        },
        {
          "internalType": "bool",
          "name": "unstake",
          "type": "bool"
        }
      ],
      "name": "claimMany",
      "outputs": [],
      "stateMutability": "nonpayable",
      "type": "function"
    },
    {
      "inputs": [
        {
          "internalType": "bytes32",
          "name": "",
          "type": "bytes32"
        },
        {
          "internalType": "uint256",
          "name": "",
          "type": "uint256"
        }
      ],
      "name": "claimRequests",
      "outputs": [
        {
          "internalType": "uint16",
          "name": "",
          "type": "uint16"
        }
      ],
      "stateMutability": "view",
      "type": "function",
      "constant": true
    },
    {
      "inputs": [],
      "name": "dailyFatnessRate",
      "outputs": [
        {
          "internalType": "int8",
          "name": "",
          "type": "int8"
        }
      ],
      "stateMutability": "view",
      "type": "function",
      "constant": true
    },
    {
      "inputs": [],
      "name": "dailyInsanityRate",
      "outputs": [
        {
          "internalType": "int8",
          "name": "",
          "type": "int8"
        }
      ],
      "stateMutability": "view",
      "type": "function",
      "constant": true
    },
    {
      "inputs": [],
      "name": "dailyIntelligenceRate",
      "outputs": [
        {
          "internalType": "int8",
          "name": "",
          "type": "int8"
        }
      ],
      "stateMutability": "view",
      "type": "function",
      "constant": true
    },
    {
      "inputs": [],
      "name": "dailySkillRate",
      "outputs": [
        {
          "internalType": "int8",
          "name": "",
          "type": "int8"
        }
      ],
      "stateMutability": "view",
      "type": "function",
      "constant": true
    },
    {
      "inputs": [],
      "name": "foodTokensPerRat",
      "outputs": [
        {
          "internalType": "uint256",
          "name": "",
          "type": "uint256"
        }
      ],
      "stateMutability": "view",
      "type": "function",
      "constant": true
    },
    {
      "inputs": [
        {
          "components": [
            {
              "internalType": "bytes32",
              "name": "requestId",
              "type": "bytes32"
            },
            {
              "internalType": "address",
              "name": "venue",
              "type": "address"
            },
            {
              "internalType": "address",
              "name": "sender",
              "type": "address"
            },
            {
              "internalType": "uint16[]",
              "name": "tokenIds",
              "type": "uint16[]"
            },
            {
              "internalType": "bool",
              "name": "unstake",
              "type": "bool"
            }
          ],
          "internalType": "struct IClaim.VRFStruct",
          "name": "v",
          "type": "tuple"
        },
        {
          "internalType": "uint256",
          "name": "randomVal",
          "type": "uint256"
        }
      ],
      "name": "fulfillClaimMany",
      "outputs": [],
      "stateMutability": "nonpayable",
      "type": "function"
    },
    {
      "inputs": [
        {
          "internalType": "uint256",
          "name": "tokenId",
          "type": "uint256"
        }
      ],
      "name": "getProperties",
      "outputs": [
        {
          "internalType": "uint8",
          "name": "efficiency",
          "type": "uint8"
        },
        {
          "internalType": "uint8",
          "name": "tolerance",
          "type": "uint8"
        }
      ],
      "stateMutability": "view",
      "type": "function",
      "constant": true
    },
    {
      "inputs": [
        {
          "internalType": "uint256",
          "name": "tokenId",
          "type": "uint256"
        }
      ],
      "name": "isChef",
      "outputs": [
        {
          "internalType": "bool",
          "name": "chef",
          "type": "bool"
        }
      ],
      "stateMutability": "view",
      "type": "function",
      "constant": true
    },
    {
      "inputs": [
        {
          "internalType": "address",
          "name": "",
          "type": "address"
        },
        {
          "internalType": "address",
          "name": "from",
          "type": "address"
        },
        {
          "internalType": "uint256",
          "name": "",
          "type": "uint256"
        },
        {
          "internalType": "bytes",
          "name": "",
          "type": "bytes"
        }
      ],
      "name": "onERC721Received",
      "outputs": [
        {
          "internalType": "bytes4",
          "name": "",
          "type": "bytes4"
        }
      ],
      "stateMutability": "pure",
      "type": "function",
      "constant": true
    },
    {
      "inputs": [],
      "name": "owner",
      "outputs": [
        {
          "internalType": "address",
          "name": "",
          "type": "address"
        }
      ],
      "stateMutability": "view",
      "type": "function",
      "constant": true
    },
    {
      "inputs": [],
      "name": "pause",
      "outputs": [],
      "stateMutability": "nonpayable",
      "type": "function"
    },
    {
      "inputs": [],
      "name": "paused",
      "outputs": [
        {
          "internalType": "bool",
          "name": "",
          "type": "bool"
        }
      ],
      "stateMutability": "view",
      "type": "function",
      "constant": true
    },
    {
      "inputs": [
        {
          "internalType": "uint256",
          "name": "",
          "type": "uint256"
        }
      ],
      "name": "rats",
      "outputs": [
        {
          "internalType": "uint256",
          "name": "tokenId",
          "type": "uint256"
        },
        {
          "internalType": "address",
          "name": "owner",
          "type": "address"
        },
        {
          "internalType": "uint80",
          "name": "value",
          "type": "uint80"
        },
        {
          "internalType": "uint80",
          "name": "timestamp",
          "type": "uint80"
        }
      ],
      "stateMutability": "view",
      "type": "function",
      "constant": true
    },
    {
      "inputs": [],
      "name": "renounceOwnership",
      "outputs": [],
      "stateMutability": "nonpayable",
      "type": "function"
    },
    {
      "inputs": [
        {
          "internalType": "address",
          "name": "account",
          "type": "address"
        },
        {
          "internalType": "uint16[]",
          "name": "tokenIds",
          "type": "uint16[]"
        }
      ],
      "name": "stakeMany",
      "outputs": [],
      "stateMutability": "nonpayable",
      "type": "function"
    },
    {
      "inputs": [
        {
          "internalType": "address",
          "name": "",
          "type": "address"
        },
        {
          "internalType": "uint256",
          "name": "",
          "type": "uint256"
        }
      ],
      "name": "stakers",
      "outputs": [
        {
          "internalType": "uint256",
          "name": "",
          "type": "uint256"
        }
      ],
      "stateMutability": "view",
      "type": "function",
      "constant": true
    },
    {
      "inputs": [],
      "name": "totalChefsStaked",
      "outputs": [
        {
          "internalType": "uint256",
          "name": "",
          "type": "uint256"
        }
      ],
      "stateMutability": "view",
      "type": "function",
      "constant": true
    },
    {
      "inputs": [],
      "name": "totalRatsStaked",
      "outputs": [
        {
          "internalType": "uint256",
          "name": "",
          "type": "uint256"
        }
      ],
      "stateMutability": "view",
      "type": "function",
      "constant": true
    },
    {
      "inputs": [
        {
          "internalType": "address",
          "name": "newOwner",
          "type": "address"
        }
      ],
      "name": "transferOwnership",
      "outputs": [],
      "stateMutability": "nonpayable",
      "type": "function"
    },
    {
      "inputs": [],
      "name": "unpause",
      "outputs": [],
      "stateMutability": "nonpayable",
      "type": "function"
    },
    {
      "inputs": [],
      "name": "vestingPeriod",
      "outputs": [
        {
          "internalType": "uint256",
          "name": "",
          "type": "uint256"
        }
      ],
      "stateMutability": "view",
      "type": "function",
      "constant": true
    },
    {
      "inputs": [
        {
          "internalType": "address[]",
          "name": "_addresses",
          "type": "address[]"
        },
        {
          "internalType": "uint256",
          "name": "_accrualPeriod",
          "type": "uint256"
        }
      ],
      "name": "initialize",
      "outputs": [],
      "stateMutability": "nonpayable",
      "type": "function"
    },
    {
      "inputs": [
        {
          "internalType": "address[]",
          "name": "_addresses",
          "type": "address[]"
        },
        {
          "internalType": "uint256",
          "name": "_vestingPeriod",
          "type": "uint256"
        },
        {
          "internalType": "uint256",
          "name": "_accrualPeriod",
          "type": "uint256"
        },
        {
          "internalType": "int8",
          "name": "_dailyInsanityRate",
          "type": "int8"
        },
        {
          "internalType": "int8",
          "name": "_dailyFatnessRate",
          "type": "int8"
        }
      ],
      "name": "initialize",
      "outputs": [],
      "stateMutability": "nonpayable",
      "type": "function"
    }
  ],
  "bytecode": "0x608060405234801561001057600080fd5b50614f25806100206000396000f3fe608060405234801561001057600080fd5b50600436106101c45760003560e01c80638456cb59116100f9578063c8b6cbf711610097578063ef9f800f11610071578063ef9f800f146104c6578063f2666746146104f6578063f2fde38b14610514578063f666415514610530576101c4565b8063c8b6cbf71461045c578063cba88af81461048c578063dbdc1f6b146104aa576101c4565b8063a262c0ad116100d3578063a262c0ad146103e8578063a789ebd614610406578063a7a1029014610422578063bdb629411461043e576101c4565b80638456cb59146103a45780638da5cb5b146103ae578063922a1802146103cc576101c4565b80634d1c61af116101665780635c975abb116101405780635c975abb1461034257806360b5bb3f14610360578063715018a61461037c5780637313ee5a14610386576101c4565b80634d1c61af146102c15780634e71d92d146102f4578063525e915b14610312576101c4565b80632535a77f116101a25780632535a77f1461024857806335ec066e146102665780633f4ba83a14610299578063499f8010146102a3576101c4565b806310d53df1146101c9578063150b7a02146101e75780631b8ca21714610217575b600080fd5b6101d161054e565b6040516101de91906133ae565b60405180910390f35b61020160048036038101906101fc91906134d6565b610561565b60405161020e9190613599565b60405180910390f35b610231600480360381019061022c91906135b4565b6105e4565b60405161023f9291906135fd565b60405180910390f35b6102506106c5565b60405161025d9190613635565b60405180910390f35b610280600480360381019061027b91906135b4565b6106cb565b6040516102909493929190613684565b60405180910390f35b6102a1610747565b005b6102ab6107cd565b6040516102b89190613635565b60405180910390f35b6102db60048036038101906102d691906135b4565b6107d3565b6040516102eb9493929190613684565b60405180910390f35b6102fc61084f565b6040516103099190613728565b60405180910390f35b61032c60048036038101906103279190613779565b610875565b60405161033991906137d6565b60405180910390f35b61034a6108bc565b604051610357919061380c565b60405180910390f35b61037a60048036038101906103759190613976565b6108d3565b005b610384610b04565b005b61038e610b8c565b60405161039b9190613635565b60405180910390f35b6103ac610b92565b005b6103b6610c18565b6040516103c391906139d2565b60405180910390f35b6103e660048036038101906103e19190613bba565b610c42565b005b6103f06111ae565b6040516103fd91906133ae565b60405180910390f35b610420600480360381019061041b9190613c42565b6111c1565b005b61043c60048036038101906104379190613d2f565b6113bc565b005b610446611771565b60405161045391906133ae565b60405180910390f35b61047660048036038101906104719190613d8f565b611784565b6040516104839190613635565b60405180910390f35b6104946117b5565b6040516104a191906133ae565b60405180910390f35b6104c460048036038101906104bf9190613dcf565b6117c8565b005b6104e060048036038101906104db91906135b4565b611d55565b6040516104ed919061380c565b60405180910390f35b6104fe611e2a565b60405161050b9190613635565b60405180910390f35b61052e60048036038101906105299190613e2f565b611e30565b005b610538611f28565b6040516105459190613635565b60405180910390f35b609d60009054906101000a900460000b81565b60008073ffffffffffffffffffffffffffffffffffffffff168573ffffffffffffffffffffffffffffffffffffffff16146105d1576040517f08c379a00000000000000000000000000000000000000000000000000000000081526004016105c890613edf565b60405180910390fd5b63150b7a0260e01b905095945050505050565b600080609760009054906101000a900473ffffffffffffffffffffffffffffffffffffffff1673ffffffffffffffffffffffffffffffffffffffff1663e05c57bf846040518263ffffffff1660e01b81526004016106429190613635565b61014060405180830381865afa158015610660573d6000803e3d6000fd5b505050506040513d601f19601f820116820180604052508101906106849190613f40565b909192939495969798509091929394959697509091929394959650909192939495509091929394509091929350909192509091508092508193505050915091565b60a15481565b609a6020528060005260406000206000915090508060000154908060010160009054906101000a900473ffffffffffffffffffffffffffffffffffffffff16908060010160149054906101000a900469ffffffffffffffffffff16908060020160009054906101000a900469ffffffffffffffffffff16905084565b61074f611f2e565b73ffffffffffffffffffffffffffffffffffffffff1661076d610c18565b73ffffffffffffffffffffffffffffffffffffffff16146107c3576040517f08c379a00000000000000000000000000000000000000000000000000000000081526004016107ba9061406b565b60405180910390fd5b6107cb611f36565b565b609f5481565b60996020528060005260406000206000915090508060000154908060010160009054906101000a900473ffffffffffffffffffffffffffffffffffffffff16908060010160149054906101000a900469ffffffffffffffffffff16908060020160009054906101000a900469ffffffffffffffffffff16905084565b609860009054906101000a900473ffffffffffffffffffffffffffffffffffffffff1681565b609c602052816000526040600020818154811061089157600080fd5b9060005260206000209060109182820401919006600202915091509054906101000a900461ffff1681565b6000606560009054906101000a900460ff16905090565b600060019054906101000a900460ff166108fb5760008054906101000a900460ff1615610904565b610903611fd8565b5b610943576040517f08c379a000000000000000000000000000000000000000000000000000000000815260040161093a906140fd565b60405180910390fd5b60008060019054906101000a900460ff161590508015610993576001600060016101000a81548160ff02191690831515021790555060016000806101000a81548160ff0219169083151502179055505b61099b611fe9565b6109a361204a565b826000815181106109b7576109b661411d565b5b6020026020010151609760006101000a81548173ffffffffffffffffffffffffffffffffffffffff021916908373ffffffffffffffffffffffffffffffffffffffff16021790555082600181518110610a1357610a1261411d565b5b6020026020010151609860006101000a81548173ffffffffffffffffffffffffffffffffffffffff021916908373ffffffffffffffffffffffffffffffffffffffff1602179055508160a0819055506000609d60006101000a81548160ff021916908360000b60ff1602179055506000609d60016101000a81548160ff021916908360000b60ff1602179055506000609d60026101000a81548160ff021916908360000b60ff1602179055506000609d60036101000a81548160ff021916908360000b60ff1602179055508015610aff5760008060016101000a81548160ff0219169083151502179055505b505050565b610b0c611f2e565b73ffffffffffffffffffffffffffffffffffffffff16610b2a610c18565b73ffffffffffffffffffffffffffffffffffffffff1614610b80576040517f08c379a0000000000000000000000000000000000000000000000000000000008152600401610b779061406b565b60405180910390fd5b610b8a60006120ab565b565b60a25481565b610b9a611f2e565b73ffffffffffffffffffffffffffffffffffffffff16610bb8610c18565b73ffffffffffffffffffffffffffffffffffffffff1614610c0e576040517f08c379a0000000000000000000000000000000000000000000000000000000008152600401610c059061406b565b60405180910390fd5b610c16612171565b565b6000603360009054906101000a900473ffffffffffffffffffffffffffffffffffffffff16905090565b610c4a6108bc565b15610c8a576040517f08c379a0000000000000000000000000000000000000000000000000000000008152600401610c8190614198565b60405180910390fd5b609860009054906101000a900473ffffffffffffffffffffffffffffffffffffffff1673ffffffffffffffffffffffffffffffffffffffff163373ffffffffffffffffffffffffffffffffffffffff1614610d1a576040517f08c379a0000000000000000000000000000000000000000000000000000000008152600401610d1190614204565b60405180910390fd5b6000609c6000846000015181526020019081526020016000208054905011610d77576040517f08c379a0000000000000000000000000000000000000000000000000000000008152600401610d6e90614270565b60405180910390fd5b6000609c600084600001518152602001908152602001600020805480602002602001604051908101604052809291908181526020018280548015610e0257602002820191906000526020600020906000905b82829054906101000a900461ffff1661ffff1681526020019060020190602082600101049283019260010382029150808411610dc95790505b50505050509050609c6000846000015181526020019081526020016000206000610e2c919061329f565b6000805b825181101561118f576000610e4a86604001516000612214565b9050610e73848381518110610e6257610e6161411d565b5b602002602001015161ffff16611d55565b15610ec757610eb5848381518110610e8e57610e8d61411d565b5b602002602001015161ffff168760400151831580610ead575088608001515b841589612220565b83610ec091906142bf565b9250610f12565b610f04848381518110610edd57610edc61411d565b5b602002602001015161ffff168760400151831580610efc575088608001515b8415896126ca565b83610f0f91906142bf565b92505b60005b609b6000886040015173ffffffffffffffffffffffffffffffffffffffff1673ffffffffffffffffffffffffffffffffffffffff1681526020019081526020016000208054905081101561117a57848381518110610f7657610f7561411d565b5b602002602001015161ffff16609b6000896040015173ffffffffffffffffffffffffffffffffffffffff1673ffffffffffffffffffffffffffffffffffffffff1681526020019081526020016000208281548110610fd757610fd661411d565b5b9060005260206000200154141561116757609b6000886040015173ffffffffffffffffffffffffffffffffffffffff1673ffffffffffffffffffffffffffffffffffffffff1681526020019081526020016000206001609b60008a6040015173ffffffffffffffffffffffffffffffffffffffff1673ffffffffffffffffffffffffffffffffffffffff1681526020019081526020016000208054905061107e9190614315565b8154811061108f5761108e61411d565b5b9060005260206000200154609b6000896040015173ffffffffffffffffffffffffffffffffffffffff1673ffffffffffffffffffffffffffffffffffffffff16815260200190815260200160002082815481106110ef576110ee61411d565b5b9060005260206000200181905550609b6000886040015173ffffffffffffffffffffffffffffffffffffffff1673ffffffffffffffffffffffffffffffffffffffff1681526020019081526020016000208054806111505761114f614349565b5b600190038181906000526020600020016000905590555b808061117290614378565b915050610f15565b5050808061118790614378565b915050610e30565b5060008111156111a8576111a7846040015182612b77565b5b50505050565b609d60029054906101000a900460000b81565b600060019054906101000a900460ff166111e95760008054906101000a900460ff16156111f2565b6111f1611fd8565b5b611231576040517f08c379a0000000000000000000000000000000000000000000000000000000008152600401611228906140fd565b60405180910390fd5b60008060019054906101000a900460ff161590508015611281576001600060016101000a81548160ff02191690831515021790555060016000806101000a81548160ff0219169083151502179055505b611289611fe9565b61129161204a565b856000815181106112a5576112a461411d565b5b6020026020010151609760006101000a81548173ffffffffffffffffffffffffffffffffffffffff021916908373ffffffffffffffffffffffffffffffffffffffff160217905550856001815181106113015761130061411d565b5b6020026020010151609860006101000a81548173ffffffffffffffffffffffffffffffffffffffff021916908373ffffffffffffffffffffffffffffffffffffffff1602179055508460a2819055508360a08190555082609d60016101000a81548160ff021916908360000b60ff16021790555081609d60036101000a81548160ff021916908360000b60ff16021790555080156113b45760008060016101000a81548160ff0219169083151502179055505b505050505050565b6113c46108bc565b15611404576040517f08c379a00000000000000000000000000000000000000000000000000000000081526004016113fb90614198565b60405180910390fd5b60005b8383905081101561169857600061144885858481811061142a5761142961411d565b5b905060200201602081019061143f91906143c1565b61ffff16611d55565b61148f57609a60008686858181106114635761146261411d565b5b905060200201602081019061147891906143c1565b61ffff1681526020019081526020016000206114ce565b609960008686858181106114a6576114a561411d565b5b90506020020160208101906114bb91906143c1565b61ffff1681526020019081526020016000205b604051806080016040529081600082015481526020016001820160009054906101000a900473ffffffffffffffffffffffffffffffffffffffff1673ffffffffffffffffffffffffffffffffffffffff1673ffffffffffffffffffffffffffffffffffffffff1681526020016001820160149054906101000a900469ffffffffffffffffffff1669ffffffffffffffffffff1669ffffffffffffffffffff1681526020016002820160009054906101000a900469ffffffffffffffffffff1669ffffffffffffffffffff1669ffffffffffffffffffff168152505090506115b3611f2e565b73ffffffffffffffffffffffffffffffffffffffff16816020015173ffffffffffffffffffffffffffffffffffffffff1614611624576040517f08c379a000000000000000000000000000000000000000000000000000000000815260040161161b9061443a565b60405180910390fd5b60a254816060015169ffffffffffffffffffff16426116439190614315565b1015611684576040517f08c379a000000000000000000000000000000000000000000000000000000000815260040161167b906144a6565b60405180910390fd5b50808061169090614378565b915050611407565b506000609860009054906101000a900473ffffffffffffffffffffffffffffffffffffffff1673ffffffffffffffffffffffffffffffffffffffff16635bdf263c6116e1611f2e565b8686866040518563ffffffff1660e01b81526004016117039493929190614589565b6020604051808303816000875af1158015611722573d6000803e3d6000fd5b505050506040513d601f19601f8201168201806040525081019061174691906145de565b90508383609c6000848152602001908152602001600020919061176a9291906132c7565b5050505050565b609d60019054906101000a900460000b81565b609b60205281600052604060002081815481106117a057600080fd5b90600052602060002001600091509150505481565b609d60039054906101000a900460000b81565b6117d0611f2e565b73ffffffffffffffffffffffffffffffffffffffff168373ffffffffffffffffffffffffffffffffffffffff16148061185d5750609760009054906101000a900473ffffffffffffffffffffffffffffffffffffffff1673ffffffffffffffffffffffffffffffffffffffff16611845611f2e565b73ffffffffffffffffffffffffffffffffffffffff16145b61189c576040517f08c379a000000000000000000000000000000000000000000000000000000000815260040161189390614657565b60405180910390fd5b6118b06118a7611f2e565b83839050612214565b6118ef576040517f08c379a00000000000000000000000000000000000000000000000000000000081526004016118e6906146c3565b60405180910390fd5b60005b82829050811015611d4f57609760009054906101000a900473ffffffffffffffffffffffffffffffffffffffff1673ffffffffffffffffffffffffffffffffffffffff1661193e611f2e565b73ffffffffffffffffffffffffffffffffffffffff1614611b5457611961611f2e565b73ffffffffffffffffffffffffffffffffffffffff16609760009054906101000a900473ffffffffffffffffffffffffffffffffffffffff1673ffffffffffffffffffffffffffffffffffffffff16636352211e8585858181106119c8576119c761411d565b5b90506020020160208101906119dd91906143c1565b6040518263ffffffff1660e01b81526004016119f99190614714565b602060405180830381865afa158015611a16573d6000803e3d6000fd5b505050506040513d601f19601f82011682018060405250810190611a3a9190614744565b73ffffffffffffffffffffffffffffffffffffffff1614611a90576040517f08c379a0000000000000000000000000000000000000000000000000000000008152600401611a879061443a565b60405180910390fd5b609760009054906101000a900473ffffffffffffffffffffffffffffffffffffffff1673ffffffffffffffffffffffffffffffffffffffff166323b872dd611ad6611f2e565b30868686818110611aea57611ae961411d565b5b9050602002016020810190611aff91906143c1565b6040518463ffffffff1660e01b8152600401611b1d93929190614771565b600060405180830381600087803b158015611b3757600080fd5b505af1158015611b4b573d6000803e3d6000fd5b50505050611b8e565b6000838383818110611b6957611b6861411d565b5b9050602002016020810190611b7e91906143c1565b61ffff161415611b8d57611d3c565b5b611bc2838383818110611ba457611ba361411d565b5b9050602002016020810190611bb991906143c1565b61ffff16612b7b565b611c01576040517f08c379a0000000000000000000000000000000000000000000000000000000008152600401611bf8906147f4565b60405180910390fd5b611c35838383818110611c1757611c1661411d565b5b9050602002016020810190611c2c91906143c1565b61ffff16611d55565b15611c7457611c6f84848484818110611c5157611c5061411d565b5b9050602002016020810190611c6691906143c1565b61ffff16612b86565b611caa565b611ca984848484818110611c8b57611c8a61411d565b5b9050602002016020810190611ca091906143c1565b61ffff16612d45565b5b609b60008573ffffffffffffffffffffffffffffffffffffffff1673ffffffffffffffffffffffffffffffffffffffff168152602001908152602001600020838383818110611cfc57611cfb61411d565b5b9050602002016020810190611d1191906143c1565b908060018154018082558091505060019003906000526020600020016000909161ffff169091909150555b8080611d4790614378565b9150506118f2565b50505050565b6000609760009054906101000a900473ffffffffffffffffffffffffffffffffffffffff1673ffffffffffffffffffffffffffffffffffffffff1663e05c57bf836040518263ffffffff1660e01b8152600401611db29190613635565b61014060405180830381865afa158015611dd0573d6000803e3d6000fd5b505050506040513d601f19601f82011682018060405250810190611df49190613f40565b90919293949596975090919293949596509091929394955090919293945090919293509091925090915090505080915050919050565b609e5481565b611e38611f2e565b73ffffffffffffffffffffffffffffffffffffffff16611e56610c18565b73ffffffffffffffffffffffffffffffffffffffff1614611eac576040517f08c379a0000000000000000000000000000000000000000000000000000000008152600401611ea39061406b565b60405180910390fd5b600073ffffffffffffffffffffffffffffffffffffffff168173ffffffffffffffffffffffffffffffffffffffff161415611f1c576040517f08c379a0000000000000000000000000000000000000000000000000000000008152600401611f1390614886565b60405180910390fd5b611f25816120ab565b50565b60a05481565b600033905090565b611f3e6108bc565b611f7d576040517f08c379a0000000000000000000000000000000000000000000000000000000008152600401611f74906148f2565b60405180910390fd5b6000606560006101000a81548160ff0219169083151502179055507f5db9ee0a495bf2e6ff9c91a7834c1ba4fdd244a5e8aa4e537bd38aeae4b073aa611fc1611f2e565b604051611fce91906139d2565b60405180910390a1565b6000611fe330612f0d565b15905090565b600060019054906101000a900460ff16612038576040517f08c379a000000000000000000000000000000000000000000000000000000000815260040161202f90614984565b60405180910390fd5b612040612f20565b612048612f71565b565b600060019054906101000a900460ff16612099576040517f08c379a000000000000000000000000000000000000000000000000000000000815260040161209090614984565b60405180910390fd5b6120a1612f20565b6120a9612fd2565b565b6000603360009054906101000a900473ffffffffffffffffffffffffffffffffffffffff16905081603360006101000a81548173ffffffffffffffffffffffffffffffffffffffff021916908373ffffffffffffffffffffffffffffffffffffffff1602179055508173ffffffffffffffffffffffffffffffffffffffff168173ffffffffffffffffffffffffffffffffffffffff167f8be0079c531659141344cd1fd0a4f28419497f9722a3daafe3b4186f6b6457e060405160405180910390a35050565b6121796108bc565b156121b9576040517f08c379a00000000000000000000000000000000000000000000000000000000081526004016121b090614198565b60405180910390fd5b6001606560006101000a81548160ff0219169083151502179055507f62e78cea01bee320cd4e420270b5ea74000d11b0c9f74754ebdbfc544b05a2586121fd611f2e565b60405161220a91906139d2565b60405180910390a1565b60006001905092915050565b60008060996000888152602001908152602001600020604051806080016040529081600082015481526020016001820160009054906101000a900473ffffffffffffffffffffffffffffffffffffffff1673ffffffffffffffffffffffffffffffffffffffff1673ffffffffffffffffffffffffffffffffffffffff1681526020016001820160149054906101000a900469ffffffffffffffffffff1669ffffffffffffffffffff1669ffffffffffffffffffff1681526020016002820160009054906101000a900469ffffffffffffffffffff1669ffffffffffffffffffff1669ffffffffffffffffffff168152505090508573ffffffffffffffffffffffffffffffffffffffff16816020015173ffffffffffffffffffffffffffffffffffffffff1614612385576040517f08c379a000000000000000000000000000000000000000000000000000000000815260040161237c9061443a565b60405180910390fd5b60a254816060015169ffffffffffffffffffff16426123a49190614315565b10156123e5576040517f08c379a00000000000000000000000000000000000000000000000000000000081526004016123dc906144a6565b60405180910390fd5b836123f8576123f38161303e565b6123fb565b60005b9150600080600061240c8a87613045565b92509250925061241b8a612b7b565b61242457600197505b871561255757609760009054906101000a900473ffffffffffffffffffffffffffffffffffffffff1673ffffffffffffffffffffffffffffffffffffffff1663b88d4fde308b8d6040518463ffffffff1660e01b8152600401612489939291906149db565b600060405180830381600087803b1580156124a357600080fd5b505af11580156124b7573d6000803e3d6000fd5b50505050609960008b81526020019081526020016000206000808201600090556001820160006101000a81549073ffffffffffffffffffffffffffffffffffffffff02191690556001820160146101000a81549069ffffffffffffffffffff02191690556002820160006101000a81549069ffffffffffffffffffff02191690555050609e600081548092919061254d90614a25565b9190505550612678565b60405180608001604052808b61ffff1681526020018a73ffffffffffffffffffffffffffffffffffffffff1681526020014269ffffffffffffffffffff1681526020014269ffffffffffffffffffff16815250609960008c81526020019081526020016000206000820151816000015560208201518160010160006101000a81548173ffffffffffffffffffffffffffffffffffffffff021916908373ffffffffffffffffffffffffffffffffffffffff16021790555060408201518160010160146101000a81548169ffffffffffffffffffff021916908369ffffffffffffffffffff16021790555060608201518160020160006101000a81548169ffffffffffffffffffff021916908369ffffffffffffffffffff1602179055509050505b7f9b394c66bc4fdb2f56f5842a796076e6552d6f15eaacb6e63e3c53b474d872e98a868a86868660a1546040516126b59796959493929190614ac6565b60405180910390a15050505095945050505050565b600080609a6000888152602001908152602001600020604051806080016040529081600082015481526020016001820160009054906101000a900473ffffffffffffffffffffffffffffffffffffffff1673ffffffffffffffffffffffffffffffffffffffff1673ffffffffffffffffffffffffffffffffffffffff1681526020016001820160149054906101000a900469ffffffffffffffffffff1669ffffffffffffffffffff1669ffffffffffffffffffff1681526020016002820160009054906101000a900469ffffffffffffffffffff1669ffffffffffffffffffff1669ffffffffffffffffffff168152505090508573ffffffffffffffffffffffffffffffffffffffff16816020015173ffffffffffffffffffffffffffffffffffffffff161461282f576040517f08c379a00000000000000000000000000000000000000000000000000000000081526004016128269061443a565b60405180910390fd5b60a254816060015169ffffffffffffffffffff164261284e9190614315565b101561288f576040517f08c379a0000000000000000000000000000000000000000000000000000000008152600401612886906144a6565b60405180910390fd5b836128a25761289d81613203565b6128a5565b60005b915060008060006128b68a87613045565b9250925092506128c58a612b7b565b6128ce57600197505b8715612a0157609760009054906101000a900473ffffffffffffffffffffffffffffffffffffffff1673ffffffffffffffffffffffffffffffffffffffff1663b88d4fde308b8d6040518463ffffffff1660e01b8152600401612933939291906149db565b600060405180830381600087803b15801561294d57600080fd5b505af1158015612961573d6000803e3d6000fd5b50505050609a60008b81526020019081526020016000206000808201600090556001820160006101000a81549073ffffffffffffffffffffffffffffffffffffffff02191690556001820160146101000a81549069ffffffffffffffffffff02191690556002820160006101000a81549069ffffffffffffffffffff02191690555050609f60008154809291906129f790614a25565b9190505550612b29565b60405180608001604052808b61ffff1681526020018a73ffffffffffffffffffffffffffffffffffffffff168152602001612a3a61320a565b69ffffffffffffffffffff1681526020014269ffffffffffffffffffff16815250609a60008c81526020019081526020016000206000820151816000015560208201518160010160006101000a81548173ffffffffffffffffffffffffffffffffffffffff021916908373ffffffffffffffffffffffffffffffffffffffff16021790555060408201518160010160146101000a81548169ffffffffffffffffffff021916908369ffffffffffffffffffff16021790555060608201518160020160006101000a81548169ffffffffffffffffffff021916908369ffffffffffffffffffff1602179055509050505b7f6e949c62565860afb9dd6295e998a1c40005fe9560aedf8d596717681cfc7a1f8a868a868686604051612b6296959493929190614b3c565b60405180910390a15050505095945050505050565b5050565b600060019050919050565b612b8e6108bc565b15612bce576040517f08c379a0000000000000000000000000000000000000000000000000000000008152600401612bc590614198565b60405180910390fd5b60405180608001604052808261ffff1681526020018373ffffffffffffffffffffffffffffffffffffffff1681526020014269ffffffffffffffffffff1681526020014269ffffffffffffffffffff16815250609960008381526020019081526020016000206000820151816000015560208201518160010160006101000a81548173ffffffffffffffffffffffffffffffffffffffff021916908373ffffffffffffffffffffffffffffffffffffffff16021790555060408201518160010160146101000a81548169ffffffffffffffffffff021916908369ffffffffffffffffffff16021790555060608201518160020160006101000a81548169ffffffffffffffffffff021916908369ffffffffffffffffffff160217905550905050609e6000815480929190612d0190614378565b91905055507f8af1bb49fb16c7835975aa59449ba4328dd54737dfb2ae9fa6c5eca71fda51f9818342604051612d3993929190614ba4565b60405180910390a15050565b612d4d6108bc565b15612d8d576040517f08c379a0000000000000000000000000000000000000000000000000000000008152600401612d8490614198565b60405180910390fd5b60405180608001604052808261ffff1681526020018373ffffffffffffffffffffffffffffffffffffffff168152602001612dc661320a565b69ffffffffffffffffffff1681526020014269ffffffffffffffffffff16815250609a60008381526020019081526020016000206000820151816000015560208201518160010160006101000a81548173ffffffffffffffffffffffffffffffffffffffff021916908373ffffffffffffffffffffffffffffffffffffffff16021790555060408201518160010160146101000a81548169ffffffffffffffffffff021916908369ffffffffffffffffffff16021790555060608201518160020160006101000a81548169ffffffffffffffffffff021916908369ffffffffffffffffffff160217905550905050609f6000815480929190612ec790614378565b91905055507f8af1bb49fb16c7835975aa59449ba4328dd54737dfb2ae9fa6c5eca71fda51f9818360a154604051612f0193929190614ba4565b60405180910390a15050565b600080823b905060008111915050919050565b600060019054906101000a900460ff16612f6f576040517f08c379a0000000000000000000000000000000000000000000000000000000008152600401612f6690614984565b60405180910390fd5b565b600060019054906101000a900460ff16612fc0576040517f08c379a0000000000000000000000000000000000000000000000000000000008152600401612fb790614984565b60405180910390fd5b612fd0612fcb611f2e565b6120ab565b565b600060019054906101000a900460ff16613021576040517f08c379a000000000000000000000000000000000000000000000000000000000815260040161301890614984565b60405180910390fd5b6000606560006101000a81548160ff021916908315150217905550565b6000919050565b6000806060600061305586611d55565b61308b57609a600087815260200190815260200160002060020160009054906101000a900469ffffffffffffffffffff166130b9565b6099600087815260200190815260200160002060020160009054906101000a900469ffffffffffffffffffff165b69ffffffffffffffffffff16426130d09190614315565b905060006130dd87611d55565b9050609760009054906101000a900473ffffffffffffffffffffffffffffffffffffffff1673ffffffffffffffffffffffffffffffffffffffff166363dbfc77886131528461313b57609d60029054906101000a900460000b61314c565b609d60009054906101000a900460000b5b8661320f565b6131868561316f57609d60039054906101000a900460000b613180565b609d60019054906101000a900460000b5b8761320f565b8a6040518563ffffffff1660e01b81526004016131a69493929190614bdb565b6000604051808303816000875af11580156131c5573d6000803e3d6000fd5b505050506040513d6000823e3d601f19601f820116820180604052508101906131ee9190614cc6565b80955081965082975050505050509250925092565b6000919050565b600090565b60008060a0548460000b846132249190614d3f565b61322e9190614e85565b90506064811315613243576064915050613299565b7fffffffffffffffffffffffffffffffffffffffffffffffffffffffffffffff9c811215613294577fffffffffffffffffffffffffffffffffffffffffffffffffffffffffffffff9c915050613299565b809150505b92915050565b50805460008255600f0160109004906000526020600020908101906132c49190613375565b50565b82805482825590600052602060002090600f016010900481019282156133645791602002820160005b8382111561333457833561ffff1683826101000a81548161ffff021916908361ffff16021790555092602001926002016020816001010492830192600103026132f0565b80156133625782816101000a81549061ffff0219169055600201602081600101049283019260010302613334565b505b5090506133719190613375565b5090565b5b8082111561338e576000816000905550600101613376565b5090565b60008160000b9050919050565b6133a881613392565b82525050565b60006020820190506133c3600083018461339f565b92915050565b6000604051905090565b600080fd5b600080fd5b600073ffffffffffffffffffffffffffffffffffffffff82169050919050565b6000613408826133dd565b9050919050565b613418816133fd565b811461342357600080fd5b50565b6000813590506134358161340f565b92915050565b6000819050919050565b61344e8161343b565b811461345957600080fd5b50565b60008135905061346b81613445565b92915050565b600080fd5b600080fd5b600080fd5b60008083601f84011261349657613495613471565b5b8235905067ffffffffffffffff8111156134b3576134b2613476565b5b6020830191508360018202830111156134cf576134ce61347b565b5b9250929050565b6000806000806000608086880312156134f2576134f16133d3565b5b600061350088828901613426565b955050602061351188828901613426565b94505060406135228882890161345c565b935050606086013567ffffffffffffffff811115613543576135426133d8565b5b61354f88828901613480565b92509250509295509295909350565b60007fffffffff0000000000000000000000000000000000000000000000000000000082169050919050565b6135938161355e565b82525050565b60006020820190506135ae600083018461358a565b92915050565b6000602082840312156135ca576135c96133d3565b5b60006135d88482850161345c565b91505092915050565b600060ff82169050919050565b6135f7816135e1565b82525050565b600060408201905061361260008301856135ee565b61361f60208301846135ee565b9392505050565b61362f8161343b565b82525050565b600060208201905061364a6000830184613626565b92915050565b613659816133fd565b82525050565b600069ffffffffffffffffffff82169050919050565b61367e8161365f565b82525050565b60006080820190506136996000830187613626565b6136a66020830186613650565b6136b36040830185613675565b6136c06060830184613675565b95945050505050565b6000819050919050565b60006136ee6136e96136e4846133dd565b6136c9565b6133dd565b9050919050565b6000613700826136d3565b9050919050565b6000613712826136f5565b9050919050565b61372281613707565b82525050565b600060208201905061373d6000830184613719565b92915050565b6000819050919050565b61375681613743565b811461376157600080fd5b50565b6000813590506137738161374d565b92915050565b600080604083850312156137905761378f6133d3565b5b600061379e85828601613764565b92505060206137af8582860161345c565b9150509250929050565b600061ffff82169050919050565b6137d0816137b9565b82525050565b60006020820190506137eb60008301846137c7565b92915050565b60008115159050919050565b613806816137f1565b82525050565b600060208201905061382160008301846137fd565b92915050565b6000601f19601f8301169050919050565b7f4e487b7100000000000000000000000000000000000000000000000000000000600052604160045260246000fd5b61387082613827565b810181811067ffffffffffffffff8211171561388f5761388e613838565b5b80604052505050565b60006138a26133c9565b90506138ae8282613867565b919050565b600067ffffffffffffffff8211156138ce576138cd613838565b5b602082029050602081019050919050565b60006138f26138ed846138b3565b613898565b905080838252602082019050602084028301858111156139155761391461347b565b5b835b8181101561393e578061392a8882613426565b845260208401935050602081019050613917565b5050509392505050565b600082601f83011261395d5761395c613471565b5b813561396d8482602086016138df565b91505092915050565b6000806040838503121561398d5761398c6133d3565b5b600083013567ffffffffffffffff8111156139ab576139aa6133d8565b5b6139b785828601613948565b92505060206139c88582860161345c565b9150509250929050565b60006020820190506139e76000830184613650565b92915050565b600080fd5b600080fd5b600067ffffffffffffffff821115613a1257613a11613838565b5b602082029050602081019050919050565b613a2c816137b9565b8114613a3757600080fd5b50565b600081359050613a4981613a23565b92915050565b6000613a62613a5d846139f7565b613898565b90508083825260208201905060208402830185811115613a8557613a8461347b565b5b835b81811015613aae5780613a9a8882613a3a565b845260208401935050602081019050613a87565b5050509392505050565b600082601f830112613acd57613acc613471565b5b8135613add848260208601613a4f565b91505092915050565b613aef816137f1565b8114613afa57600080fd5b50565b600081359050613b0c81613ae6565b92915050565b600060a08284031215613b2857613b276139ed565b5b613b3260a0613898565b90506000613b4284828501613764565b6000830152506020613b5684828501613426565b6020830152506040613b6a84828501613426565b604083015250606082013567ffffffffffffffff811115613b8e57613b8d6139f2565b5b613b9a84828501613ab8565b6060830152506080613bae84828501613afd565b60808301525092915050565b60008060408385031215613bd157613bd06133d3565b5b600083013567ffffffffffffffff811115613bef57613bee6133d8565b5b613bfb85828601613b12565b9250506020613c0c8582860161345c565b9150509250929050565b613c1f81613392565b8114613c2a57600080fd5b50565b600081359050613c3c81613c16565b92915050565b600080600080600060a08688031215613c5e57613c5d6133d3565b5b600086013567ffffffffffffffff811115613c7c57613c7b6133d8565b5b613c8888828901613948565b9550506020613c998882890161345c565b9450506040613caa8882890161345c565b9350506060613cbb88828901613c2d565b9250506080613ccc88828901613c2d565b9150509295509295909350565b60008083601f840112613cef57613cee613471565b5b8235905067ffffffffffffffff811115613d0c57613d0b613476565b5b602083019150836020820283011115613d2857613d2761347b565b5b9250929050565b600080600060408486031215613d4857613d476133d3565b5b600084013567ffffffffffffffff811115613d6657613d656133d8565b5b613d7286828701613cd9565b93509350506020613d8586828701613afd565b9150509250925092565b60008060408385031215613da657613da56133d3565b5b6000613db485828601613426565b9250506020613dc58582860161345c565b9150509250929050565b600080600060408486031215613de857613de76133d3565b5b6000613df686828701613426565b935050602084013567ffffffffffffffff811115613e1757613e166133d8565b5b613e2386828701613cd9565b92509250509250925092565b600060208284031215613e4557613e446133d3565b5b6000613e5384828501613426565b91505092915050565b600082825260208201905092915050565b7f43616e6e6f742073656e6420746f6b656e7320746f2056656e7565206469726560008201527f63746c7900000000000000000000000000000000000000000000000000000000602082015250565b6000613ec9602483613e5c565b9150613ed482613e6d565b604082019050919050565b60006020820190508181036000830152613ef881613ebc565b9050919050565b600081519050613f0e81613ae6565b92915050565b613f1d816135e1565b8114613f2857600080fd5b50565b600081519050613f3a81613f14565b92915050565b6000806000806000806000806000806101408b8d031215613f6457613f636133d3565b5b6000613f728d828e01613eff565b9a50506020613f838d828e01613f2b565b9950506040613f948d828e01613f2b565b9850506060613fa58d828e01613f2b565b9750506080613fb68d828e01613f2b565b96505060a0613fc78d828e01613f2b565b95505060c0613fd88d828e01613f2b565b94505060e0613fe98d828e01613f2b565b935050610100613ffb8d828e01613f2b565b92505061012061400d8d828e01613f2b565b9150509295989b9194979a5092959850565b7f4f776e61626c653a2063616c6c6572206973206e6f7420746865206f776e6572600082015250565b6000614055602083613e5c565b91506140608261401f565b602082019050919050565b6000602082019050818103600083015261408481614048565b9050919050565b7f496e697469616c697a61626c653a20636f6e747261637420697320616c72656160008201527f647920696e697469616c697a6564000000000000000000000000000000000000602082015250565b60006140e7602e83613e5c565b91506140f28261408b565b604082019050919050565b60006020820190508181036000830152614116816140da565b9050919050565b7f4e487b7100000000000000000000000000000000000000000000000000000000600052603260045260246000fd5b7f5061757361626c653a2070617573656400000000000000000000000000000000600082015250565b6000614182601083613e5c565b915061418d8261414c565b602082019050919050565b600060208201905081810360008301526141b181614175565b9050919050565b7f4f6e6c7920436c61696d2063616e2066756c66696c6c00000000000000000000600082015250565b60006141ee601683613e5c565b91506141f9826141b8565b602082019050919050565b6000602082019050818103600083015261421d816141e1565b9050919050565b7f436c61696d2072657175657374206e6f7420666f756e64000000000000000000600082015250565b600061425a601783613e5c565b915061426582614224565b602082019050919050565b600060208201905081810360008301526142898161424d565b9050919050565b7f4e487b7100000000000000000000000000000000000000000000000000000000600052601160045260246000fd5b60006142ca8261343b565b91506142d58361343b565b9250827fffffffffffffffffffffffffffffffffffffffffffffffffffffffffffffffff0382111561430a57614309614290565b5b828201905092915050565b60006143208261343b565b915061432b8361343b565b92508282101561433e5761433d614290565b5b828203905092915050565b7f4e487b7100000000000000000000000000000000000000000000000000000000600052603160045260246000fd5b60006143838261343b565b91507fffffffffffffffffffffffffffffffffffffffffffffffffffffffffffffffff8214156143b6576143b5614290565b5b600182019050919050565b6000602082840312156143d7576143d66133d3565b5b60006143e584828501613a3a565b91505092915050565b7f4e6f7420796f757220746f6b656e000000000000000000000000000000000000600082015250565b6000614424600e83613e5c565b915061442f826143ee565b602082019050919050565b6000602082019050818103600083015261445381614417565b9050919050565b7f43616e6e6f7420636c61696d206265666f726520454f42000000000000000000600082015250565b6000614490601783613e5c565b915061449b8261445a565b602082019050919050565b600060208201905081810360008301526144bf81614483565b9050919050565b600082825260208201905092915050565b6000819050919050565b6144ea816137b9565b82525050565b60006144fc83836144e1565b60208301905092915050565b60006145176020840184613a3a565b905092915050565b6000602082019050919050565b600061453883856144c6565b9350614543826144d7565b8060005b8581101561457c576145598284614508565b61456388826144f0565b975061456e8361451f565b925050600181019050614547565b5085925050509392505050565b600060608201905061459e6000830187613650565b81810360208301526145b181858761452c565b90506145c060408301846137fd565b95945050505050565b6000815190506145d88161374d565b92915050565b6000602082840312156145f4576145f36133d3565b5b6000614602848285016145c9565b91505092915050565b7f446f206e6f74206c6f736520796f757220746f6b656e73000000000000000000600082015250565b6000614641601783613e5c565b915061464c8261460b565b602082019050919050565b6000602082019050818103600083015261467081614634565b9050919050565b7f4b69746368656e20737061636520726571756972656400000000000000000000600082015250565b60006146ad601683613e5c565b91506146b882614677565b602082019050919050565b600060208201905081810360008301526146dc816146a0565b9050919050565b60006146fe6146f96146f4846137b9565b6136c9565b61343b565b9050919050565b61470e816146e3565b82525050565b60006020820190506147296000830184614705565b92915050565b60008151905061473e8161340f565b92915050565b60006020828403121561475a576147596133d3565b5b60006147688482850161472f565b91505092915050565b60006060820190506147866000830186613650565b6147936020830185613650565b6147a06040830184614705565b949350505050565b7f4e6f7420656c696769626c650000000000000000000000000000000000000000600082015250565b60006147de600c83613e5c565b91506147e9826147a8565b602082019050919050565b6000602082019050818103600083015261480d816147d1565b9050919050565b7f4f776e61626c653a206e6577206f776e657220697320746865207a65726f206160008201527f6464726573730000000000000000000000000000000000000000000000000000602082015250565b6000614870602683613e5c565b915061487b82614814565b604082019050919050565b6000602082019050818103600083015261489f81614863565b9050919050565b7f5061757361626c653a206e6f7420706175736564000000000000000000000000600082015250565b60006148dc601483613e5c565b91506148e7826148a6565b602082019050919050565b6000602082019050818103600083015261490b816148cf565b9050919050565b7f496e697469616c697a61626c653a20636f6e7472616374206973206e6f74206960008201527f6e697469616c697a696e67000000000000000000000000000000000000000000602082015250565b600061496e602b83613e5c565b915061497982614912565b604082019050919050565b6000602082019050818103600083015261499d81614961565b9050919050565b600082825260208201905092915050565b50565b60006149c56000836149a4565b91506149d0826149b5565b600082019050919050565b60006080820190506149f06000830186613650565b6149fd6020830185613650565b614a0a6040830184613626565b8181036060830152614a1b816149b8565b9050949350505050565b6000614a308261343b565b91506000821415614a4457614a43614290565b5b600182039050919050565b600081519050919050565b60005b83811015614a78578082015181840152602081019050614a5d565b83811115614a87576000848401525b50505050565b6000614a9882614a4f565b614aa28185613e5c565b9350614ab2818560208601614a5a565b614abb81613827565b840191505092915050565b600060e082019050614adb600083018a613626565b614ae86020830189613626565b614af560408301886137fd565b614b0260608301876135ee565b614b0f60808301866135ee565b81810360a0830152614b218185614a8d565b9050614b3060c0830184613626565b98975050505050505050565b600060c082019050614b516000830189613626565b614b5e6020830188613626565b614b6b60408301876137fd565b614b7860608301866135ee565b614b8560808301856135ee565b81810360a0830152614b978184614a8d565b9050979650505050505050565b6000606082019050614bb96000830186613626565b614bc66020830185613650565b614bd36040830184613626565b949350505050565b6000608082019050614bf06000830187613626565b614bfd602083018661339f565b614c0a604083018561339f565b614c176060830184613626565b95945050505050565b600080fd5b600067ffffffffffffffff821115614c4057614c3f613838565b5b614c4982613827565b9050602081019050919050565b6000614c69614c6484614c25565b613898565b905082815260208101848484011115614c8557614c84614c20565b5b614c90848285614a5a565b509392505050565b600082601f830112614cad57614cac613471565b5b8151614cbd848260208601614c56565b91505092915050565b600080600060608486031215614cdf57614cde6133d3565b5b6000614ced86828701613f2b565b9350506020614cfe86828701613f2b565b925050604084015167ffffffffffffffff811115614d1f57614d1e6133d8565b5b614d2b86828701614c98565b9150509250925092565b6000819050919050565b6000614d4a82614d35565b9150614d5583614d35565b9250827f7fffffffffffffffffffffffffffffffffffffffffffffffffffffffffffffff0482116000841360008413161615614d9457614d93614290565b5b817f80000000000000000000000000000000000000000000000000000000000000000583126000841260008413161615614dd157614dd0614290565b5b827f80000000000000000000000000000000000000000000000000000000000000000582126000841360008412161615614e0e57614e0d614290565b5b827f7fffffffffffffffffffffffffffffffffffffffffffffffffffffffffffffff0582126000841260008412161615614e4b57614e4a614290565b5b828202905092915050565b7f4e487b7100000000000000000000000000000000000000000000000000000000600052601260045260246000fd5b6000614e9082614d35565b9150614e9b83614d35565b925082614eab57614eaa614e56565b5b600160000383147f800000000000000000000000000000000000000000000000000000000000000083141615614ee457614ee3614290565b5b82820590509291505056fea2646970667358221220456a37e0fbfc9c730903f9036efc94dda215587910dce62a393d4a4814ade2de64736f6c634300080a0033",
  "immutableReferences": {},
  "source": "// SPDX-License-Identifier: MIT\n\npragma solidity ^0.8.0;\n\nimport \"./Venue.sol\";\n\ncontract Gym is Venue {\n  function initialize(\n    address[] memory _addresses, // character, claim\n    uint256 _vestingPeriod,\n    uint256 _accrualPeriod,\n    int8 _dailyInsanityRate,\n    int8 _dailyFatnessRate\n  ) external initializer {\n    __Ownable_init();\n    __Pausable_init();\n\n    character = Character(_addresses[0]);\n    claim = IClaim(_addresses[1]);\n    vestingPeriod = _vestingPeriod;\n    accrualPeriod = _accrualPeriod;\n    dailyInsanityRate = _dailyInsanityRate;\n    dailyFatnessRate = _dailyFatnessRate;\n  }\n}\n",
  "sourcePath": "/Users/chris/workspace/ratalert/ratalert-contracts/contracts/Gym.sol",
  "compiler": {
    "name": "solc",
    "version": "0.8.10+commit.fc410830.Emscripten.clang"
  },
  "schemaVersion": "3.4.5",
  "updatedAt": "2022-03-14T13:39:35.414Z",
  "networkType": "ethereum",
  "devdoc": {
    "kind": "dev",
    "methods": {
      "claimMany(uint16[],bool)": {
        "params": {
          "tokenIds": "- The IDs of the tokens in question",
          "unstake": "- Whether or not to unstake the given tokens"
        }
      },
      "fulfillClaimMany((bytes32,address,address,uint16[],bool),uint256)": {
        "params": {
          "randomVal": "- List of random values created by VRF",
          "v": "- VRF struct for the corresponding request"
        }
      },
      "getProperties(uint256)": {
        "params": {
          "tokenId": "- The ID of the token to check"
        },
        "returns": {
          "efficiency": "& tolerance values"
        }
      },
      "isChef(uint256)": {
        "params": {
          "tokenId": "- The ID of the token to check"
        },
        "returns": {
          "chef": "- Whether or not the token is a Chef"
        }
      },
      "owner()": {
        "details": "Returns the address of the current owner."
      },
      "paused()": {
        "details": "Returns true if the contract is paused, and false otherwise."
      },
      "renounceOwnership()": {
        "details": "Leaves the contract without owner. It will not be possible to call `onlyOwner` functions anymore. Can only be called by the current owner. NOTE: Renouncing ownership will leave the contract without an owner, thereby removing any functionality that is only available to the owner."
      },
      "stakeMany(address,uint16[])": {
        "params": {
          "account": "- The address of the staker",
          "tokenIds": "- The IDs of the Chefs & Rats to stake"
        }
      },
      "transferOwnership(address)": {
        "details": "Transfers ownership of the contract to a new account (`newOwner`). Can only be called by the current owner."
      }
    },
    "version": 1
  },
  "userdoc": {
    "kind": "user",
    "methods": {
      "claimMany(uint16[],bool)": {
        "notice": "ChainLink VRF request: Claims food token earnings, level-ups and optionally unstake characters"
      },
      "fulfillClaimMany((bytes32,address,address,uint16[],bool),uint256)": {
        "notice": "ChainLink VRF callback for claimMany()"
      },
      "getProperties(uint256)": {
        "notice": "Get the character's properties"
      },
      "isChef(uint256)": {
        "notice": "Checks if the token is a Chef"
      },
      "stakeMany(address,uint16[])": {
        "notice": "Adds Chefs & Rats"
      }
    },
    "version": 1
  }
}