{
  "contractName": "Gym",
  "abi": [
    {
      "anonymous": false,
      "inputs": [
        {
          "indexed": false,
          "internalType": "uint256",
          "name": "tokenId",
          "type": "uint256"
        },
        {
          "indexed": false,
          "internalType": "uint256",
          "name": "earned",
          "type": "uint256"
        },
        {
          "indexed": false,
          "internalType": "bool",
          "name": "unstaked",
          "type": "bool"
        },
        {
          "indexed": false,
          "internalType": "uint8",
          "name": "skill",
          "type": "uint8"
        },
        {
          "indexed": false,
          "internalType": "uint8",
          "name": "freak",
          "type": "uint8"
        },
        {
          "indexed": false,
          "internalType": "string",
          "name": "eventName",
          "type": "string"
        },
        {
          "indexed": false,
          "internalType": "uint256",
          "name": "foodTokensPerRat",
          "type": "uint256"
        }
      ],
      "name": "ChefClaimed",
      "type": "event"
    },
    {
      "anonymous": false,
      "inputs": [
        {
          "indexed": true,
          "internalType": "address",
          "name": "previousOwner",
          "type": "address"
        },
        {
          "indexed": true,
          "internalType": "address",
          "name": "newOwner",
          "type": "address"
        }
      ],
      "name": "OwnershipTransferred",
      "type": "event"
    },
    {
      "anonymous": false,
      "inputs": [
        {
          "indexed": false,
          "internalType": "address",
          "name": "account",
          "type": "address"
        }
      ],
      "name": "Paused",
      "type": "event"
    },
    {
      "anonymous": false,
      "inputs": [
        {
          "indexed": false,
          "internalType": "uint256",
          "name": "tokenId",
          "type": "uint256"
        },
        {
          "indexed": false,
          "internalType": "uint256",
          "name": "earned",
          "type": "uint256"
        },
        {
          "indexed": false,
          "internalType": "bool",
          "name": "unstaked",
          "type": "bool"
        },
        {
          "indexed": false,
          "internalType": "uint8",
          "name": "intelligence",
          "type": "uint8"
        },
        {
          "indexed": false,
          "internalType": "uint8",
          "name": "bodyMass",
          "type": "uint8"
        },
        {
          "indexed": false,
          "internalType": "string",
          "name": "eventName",
          "type": "string"
        },
        {
          "indexed": false,
          "internalType": "uint256",
          "name": "foodTokensPerRat",
          "type": "uint256"
        }
      ],
      "name": "RatClaimed",
      "type": "event"
    },
    {
      "anonymous": false,
      "inputs": [
        {
          "indexed": false,
          "internalType": "uint256",
          "name": "tokenId",
          "type": "uint256"
        },
        {
          "indexed": false,
          "internalType": "address",
          "name": "owner",
          "type": "address"
        },
        {
          "indexed": false,
          "internalType": "uint256",
          "name": "value",
          "type": "uint256"
        }
      ],
      "name": "TokenStaked",
      "type": "event"
    },
    {
      "anonymous": false,
      "inputs": [
        {
          "indexed": false,
          "internalType": "address",
          "name": "account",
          "type": "address"
        }
      ],
      "name": "Unpaused",
      "type": "event"
    },
    {
      "inputs": [],
      "name": "accrualPeriod",
      "outputs": [
        {
          "internalType": "uint256",
          "name": "",
          "type": "uint256"
        }
      ],
      "stateMutability": "view",
      "type": "function",
      "constant": true
    },
    {
      "inputs": [
        {
          "internalType": "uint256",
          "name": "",
          "type": "uint256"
        }
      ],
      "name": "chefs",
      "outputs": [
        {
          "internalType": "uint256",
          "name": "tokenId",
          "type": "uint256"
        },
        {
          "internalType": "address",
          "name": "owner",
          "type": "address"
        },
        {
          "internalType": "uint80",
          "name": "value",
          "type": "uint80"
        },
        {
          "internalType": "uint80",
          "name": "timestamp",
          "type": "uint80"
        }
      ],
      "stateMutability": "view",
      "type": "function",
      "constant": true
    },
    {
      "inputs": [],
      "name": "claim",
      "outputs": [
        {
          "internalType": "contract IClaim",
          "name": "",
          "type": "address"
        }
      ],
      "stateMutability": "view",
      "type": "function",
      "constant": true
    },
    {
      "inputs": [
        {
          "internalType": "uint16[]",
          "name": "tokenIds",
          "type": "uint16[]"
        },
        {
          "internalType": "bool",
          "name": "unstake",
          "type": "bool"
        }
      ],
      "name": "claimMany",
      "outputs": [],
      "stateMutability": "nonpayable",
      "type": "function"
    },
    {
      "inputs": [
        {
          "internalType": "bytes32",
          "name": "",
          "type": "bytes32"
        },
        {
          "internalType": "uint256",
          "name": "",
          "type": "uint256"
        }
      ],
      "name": "claimRequests",
      "outputs": [
        {
          "internalType": "uint16",
          "name": "",
          "type": "uint16"
        }
      ],
      "stateMutability": "view",
      "type": "function",
      "constant": true
    },
    {
      "inputs": [],
      "name": "dailyBodyMassRate",
      "outputs": [
        {
          "internalType": "int8",
          "name": "",
          "type": "int8"
        }
      ],
      "stateMutability": "view",
      "type": "function",
      "constant": true
    },
    {
      "inputs": [],
      "name": "dailyFreakRate",
      "outputs": [
        {
          "internalType": "int8",
          "name": "",
          "type": "int8"
        }
      ],
      "stateMutability": "view",
      "type": "function",
      "constant": true
    },
    {
      "inputs": [],
      "name": "dailyIntelligenceRate",
      "outputs": [
        {
          "internalType": "int8",
          "name": "",
          "type": "int8"
        }
      ],
      "stateMutability": "view",
      "type": "function",
      "constant": true
    },
    {
      "inputs": [],
      "name": "dailySkillRate",
      "outputs": [
        {
          "internalType": "int8",
          "name": "",
          "type": "int8"
        }
      ],
      "stateMutability": "view",
      "type": "function",
      "constant": true
    },
    {
      "inputs": [],
      "name": "foodTokensPerRat",
      "outputs": [
        {
          "internalType": "uint256",
          "name": "",
          "type": "uint256"
        }
      ],
      "stateMutability": "view",
      "type": "function",
      "constant": true
    },
    {
      "inputs": [
        {
          "components": [
            {
              "internalType": "bytes32",
              "name": "requestId",
              "type": "bytes32"
            },
            {
              "internalType": "address",
              "name": "venue",
              "type": "address"
            },
            {
              "internalType": "address",
              "name": "sender",
              "type": "address"
            },
            {
              "internalType": "uint16[]",
              "name": "tokenIds",
              "type": "uint16[]"
            },
            {
              "internalType": "bool",
              "name": "unstake",
              "type": "bool"
            }
          ],
          "internalType": "struct IClaim.VRFStruct",
          "name": "v",
          "type": "tuple"
        },
        {
          "internalType": "uint256",
          "name": "randomness",
          "type": "uint256"
        }
      ],
      "name": "fulfillClaimMany",
      "outputs": [],
      "stateMutability": "nonpayable",
      "type": "function"
    },
    {
      "inputs": [
        {
          "internalType": "uint256",
          "name": "tokenId",
          "type": "uint256"
        }
      ],
      "name": "getProperties",
      "outputs": [
        {
          "internalType": "uint8",
          "name": "efficiency",
          "type": "uint8"
        },
        {
          "internalType": "uint8",
          "name": "tolerance",
          "type": "uint8"
        }
      ],
      "stateMutability": "view",
      "type": "function",
      "constant": true
    },
    {
      "inputs": [
        {
          "internalType": "uint256",
          "name": "tokenId",
          "type": "uint256"
        }
      ],
      "name": "isChef",
      "outputs": [
        {
          "internalType": "bool",
          "name": "chef",
          "type": "bool"
        }
      ],
      "stateMutability": "view",
      "type": "function",
      "constant": true
    },
    {
      "inputs": [
        {
          "internalType": "address",
          "name": "",
          "type": "address"
        },
        {
          "internalType": "address",
          "name": "from",
          "type": "address"
        },
        {
          "internalType": "uint256",
          "name": "",
          "type": "uint256"
        },
        {
          "internalType": "bytes",
          "name": "",
          "type": "bytes"
        }
      ],
      "name": "onERC721Received",
      "outputs": [
        {
          "internalType": "bytes4",
          "name": "",
          "type": "bytes4"
        }
      ],
      "stateMutability": "pure",
      "type": "function",
      "constant": true
    },
    {
      "inputs": [],
      "name": "owner",
      "outputs": [
        {
          "internalType": "address",
          "name": "",
          "type": "address"
        }
      ],
      "stateMutability": "view",
      "type": "function",
      "constant": true
    },
    {
      "inputs": [],
      "name": "pause",
      "outputs": [],
      "stateMutability": "nonpayable",
      "type": "function"
    },
    {
      "inputs": [],
      "name": "paused",
      "outputs": [
        {
          "internalType": "bool",
          "name": "",
          "type": "bool"
        }
      ],
      "stateMutability": "view",
      "type": "function",
      "constant": true
    },
    {
      "inputs": [
        {
          "internalType": "uint256",
          "name": "",
          "type": "uint256"
        }
      ],
      "name": "rats",
      "outputs": [
        {
          "internalType": "uint256",
          "name": "tokenId",
          "type": "uint256"
        },
        {
          "internalType": "address",
          "name": "owner",
          "type": "address"
        },
        {
          "internalType": "uint80",
          "name": "value",
          "type": "uint80"
        },
        {
          "internalType": "uint80",
          "name": "timestamp",
          "type": "uint80"
        }
      ],
      "stateMutability": "view",
      "type": "function",
      "constant": true
    },
    {
      "inputs": [],
      "name": "renounceOwnership",
      "outputs": [],
      "stateMutability": "nonpayable",
      "type": "function"
    },
    {
      "inputs": [
        {
          "internalType": "address",
          "name": "account",
          "type": "address"
        },
        {
          "internalType": "uint16[]",
          "name": "tokenIds",
          "type": "uint16[]"
        }
      ],
      "name": "stakeMany",
      "outputs": [],
      "stateMutability": "nonpayable",
      "type": "function"
    },
    {
      "inputs": [
        {
          "internalType": "address",
          "name": "",
          "type": "address"
        },
        {
          "internalType": "uint256",
          "name": "",
          "type": "uint256"
        }
      ],
      "name": "stakers",
      "outputs": [
        {
          "internalType": "uint256",
          "name": "",
          "type": "uint256"
        }
      ],
      "stateMutability": "view",
      "type": "function",
      "constant": true
    },
    {
      "inputs": [],
      "name": "totalChefsStaked",
      "outputs": [
        {
          "internalType": "uint256",
          "name": "",
          "type": "uint256"
        }
      ],
      "stateMutability": "view",
      "type": "function",
      "constant": true
    },
    {
      "inputs": [],
      "name": "totalRatsStaked",
      "outputs": [
        {
          "internalType": "uint256",
          "name": "",
          "type": "uint256"
        }
      ],
      "stateMutability": "view",
      "type": "function",
      "constant": true
    },
    {
      "inputs": [
        {
          "internalType": "address",
          "name": "newOwner",
          "type": "address"
        }
      ],
      "name": "transferOwnership",
      "outputs": [],
      "stateMutability": "nonpayable",
      "type": "function"
    },
    {
      "inputs": [],
      "name": "unpause",
      "outputs": [],
      "stateMutability": "nonpayable",
      "type": "function"
    },
    {
      "inputs": [],
      "name": "vestingPeriod",
      "outputs": [
        {
          "internalType": "uint256",
          "name": "",
          "type": "uint256"
        }
      ],
      "stateMutability": "view",
      "type": "function",
      "constant": true
    },
    {
      "inputs": [
        {
          "internalType": "address",
          "name": "_character",
          "type": "address"
        },
        {
          "internalType": "address",
          "name": "_claim",
          "type": "address"
        },
        {
          "internalType": "uint256",
          "name": "_accrualPeriod",
          "type": "uint256"
        }
      ],
      "name": "initialize",
      "outputs": [],
      "stateMutability": "nonpayable",
      "type": "function"
    },
    {
      "inputs": [
        {
          "internalType": "address",
          "name": "_character",
          "type": "address"
        },
        {
          "internalType": "address",
          "name": "_claim",
          "type": "address"
        }
      ],
      "name": "initialize",
      "outputs": [],
      "stateMutability": "nonpayable",
      "type": "function"
    },
    {
      "inputs": [
        {
          "internalType": "uint256",
          "name": "_vestingPeriod",
          "type": "uint256"
        },
        {
          "internalType": "uint256",
          "name": "_accrualPeriod",
          "type": "uint256"
        },
        {
          "internalType": "int8",
          "name": "_dailyFreakRate",
          "type": "int8"
        },
        {
          "internalType": "int8",
          "name": "_dailyBodyMassRate",
          "type": "int8"
        },
        {
          "internalType": "uint8",
          "name": "_maxClaimsPerTx",
          "type": "uint8"
        }
      ],
      "name": "configure",
      "outputs": [],
      "stateMutability": "nonpayable",
      "type": "function"
    }
  ],
  "bytecode": "0x608060405234801561001057600080fd5b50615072806100206000396000f3fe608060405234801561001057600080fd5b50600436106101cf5760003560e01c80635c975abb11610104578063a262c0ad116100a2578063ef9f800f11610071578063ef9f800f146104ed578063f26667461461051d578063f2fde38b1461053b578063f666415514610557576101cf565b8063a262c0ad14610467578063a7a1029014610485578063c8b6cbf7146104a1578063dbdc1f6b146104d1576101cf565b80638456cb59116100de5780638456cb59146104075780638da5cb5b14610411578063922a18021461042f578063943628b01461044b576101cf565b80635c975abb146103c1578063715018a6146103df5780637313ee5a146103e9576101cf565b806335ec066e11610171578063499f80101161014b578063499f8010146103225780634d1c61af146103405780634e71d92d14610373578063525e915b14610391576101cf565b806335ec066e146102c95780633f4ba83a146102fc578063485cc95514610306576101cf565b80631b8ca217116101ad5780631b8ca2171461023e5780631e828add1461026f5780632535a77f1461028d578063351c67c1146102ab576101cf565b806310d53df1146101d4578063150b7a02146101f25780631794bb3c14610222575b600080fd5b6101dc610575565b6040516101e991906134a3565b60405180910390f35b61020c600480360381019061020791906135cb565b610588565b604051610219919061368e565b60405180910390f35b61023c600480360381019061023791906136a9565b61060b565b005b610258600480360381019061025391906136fc565b610807565b604051610266929190613745565b60405180910390f35b6102776108f1565b60405161028491906134a3565b60405180910390f35b610295610904565b6040516102a2919061377d565b60405180910390f35b6102b361090a565b6040516102c091906134a3565b60405180910390f35b6102e360048036038101906102de91906136fc565b61091d565b6040516102f394939291906137cc565b60405180910390f35b610304610999565b005b610320600480360381019061031b9190613811565b610a1f565b005b61032a610b97565b604051610337919061377d565b60405180910390f35b61035a600480360381019061035591906136fc565b610b9d565b60405161036a94939291906137cc565b60405180910390f35b61037b610c19565b60405161038891906138b0565b60405180910390f35b6103ab60048036038101906103a69190613901565b610c3f565b6040516103b8919061395e565b60405180910390f35b6103c9610c86565b6040516103d69190613994565b60405180910390f35b6103e7610c9d565b005b6103f1610d25565b6040516103fe919061377d565b60405180910390f35b61040f610d2b565b005b610419610db1565b60405161042691906139af565b60405180910390f35b61044960048036038101906104449190613c23565b610ddb565b005b61046560048036038101906104609190613cd7565b61136f565b005b61046f611457565b60405161047c91906134a3565b60405180910390f35b61049f600480360381019061049a9190613da8565b61146a565b005b6104bb60048036038101906104b69190613e08565b611877565b6040516104c8919061377d565b60405180910390f35b6104eb60048036038101906104e69190613e48565b6118a8565b005b610507600480360381019061050291906136fc565b611e33565b6040516105149190613994565b60405180910390f35b610525611f12565b604051610532919061377d565b60405180910390f35b61055560048036038101906105509190613ea8565b611f18565b005b61055f612010565b60405161056c919061377d565b60405180910390f35b609d60009054906101000a900460000b81565b60008073ffffffffffffffffffffffffffffffffffffffff168573ffffffffffffffffffffffffffffffffffffffff16146105f8576040517f08c379a00000000000000000000000000000000000000000000000000000000081526004016105ef90613f58565b60405180910390fd5b63150b7a0260e01b905095945050505050565b600060019054906101000a900460ff166106335760008054906101000a900460ff161561063c565b61063b612016565b5b61067b576040517f08c379a000000000000000000000000000000000000000000000000000000000815260040161067290613fea565b60405180910390fd5b60008060019054906101000a900460ff1615905080156106cb576001600060016101000a81548160ff02191690831515021790555060016000806101000a81548160ff0219169083151502179055505b6106d3612027565b6106db612088565b83609760006101000a81548173ffffffffffffffffffffffffffffffffffffffff021916908373ffffffffffffffffffffffffffffffffffffffff16021790555082609860006101000a81548173ffffffffffffffffffffffffffffffffffffffff021916908373ffffffffffffffffffffffffffffffffffffffff1602179055508160a0819055506000609d60006101000a81548160ff021916908360000b60ff1602179055506000609d60016101000a81548160ff021916908360000b60ff1602179055506000609d60026101000a81548160ff021916908360000b60ff1602179055506000609d60036101000a81548160ff021916908360000b60ff16021790555080156108015760008060016101000a81548160ff0219169083151502179055505b50505050565b600080609760009054906101000a900473ffffffffffffffffffffffffffffffffffffffff1673ffffffffffffffffffffffffffffffffffffffff1663e05c57bf846040518263ffffffff1660e01b8152600401610865919061377d565b61016060405180830381865afa158015610883573d6000803e3d6000fd5b505050506040513d601f19601f820116820180604052508101906108a79190614049565b909192939495969798995090919293949596979850909192939495969750909192939495965090919293949550909192939450909192935090919250508092508193505050915091565b609d60019054906101000a900460000b81565b60a15481565b609d60039054906101000a900460000b81565b609a6020528060005260406000206000915090508060000154908060010160009054906101000a900473ffffffffffffffffffffffffffffffffffffffff16908060010160149054906101000a900469ffffffffffffffffffff16908060020160009054906101000a900469ffffffffffffffffffff16905084565b6109a16120e9565b73ffffffffffffffffffffffffffffffffffffffff166109bf610db1565b73ffffffffffffffffffffffffffffffffffffffff1614610a15576040517f08c379a0000000000000000000000000000000000000000000000000000000008152600401610a0c90614189565b60405180910390fd5b610a1d6120f1565b565b600060019054906101000a900460ff16610a475760008054906101000a900460ff1615610a50565b610a4f612016565b5b610a8f576040517f08c379a0000000000000000000000000000000000000000000000000000000008152600401610a8690613fea565b60405180910390fd5b60008060019054906101000a900460ff161590508015610adf576001600060016101000a81548160ff02191690831515021790555060016000806101000a81548160ff0219169083151502179055505b610ae7612027565b610aef612088565b82609760006101000a81548173ffffffffffffffffffffffffffffffffffffffff021916908373ffffffffffffffffffffffffffffffffffffffff16021790555081609860006101000a81548173ffffffffffffffffffffffffffffffffffffffff021916908373ffffffffffffffffffffffffffffffffffffffff1602179055508015610b925760008060016101000a81548160ff0219169083151502179055505b505050565b609f5481565b60996020528060005260406000206000915090508060000154908060010160009054906101000a900473ffffffffffffffffffffffffffffffffffffffff16908060010160149054906101000a900469ffffffffffffffffffff16908060020160009054906101000a900469ffffffffffffffffffff16905084565b609860009054906101000a900473ffffffffffffffffffffffffffffffffffffffff1681565b609c6020528160005260406000208181548110610c5b57600080fd5b9060005260206000209060109182820401919006600202915091509054906101000a900461ffff1681565b6000606560009054906101000a900460ff16905090565b610ca56120e9565b73ffffffffffffffffffffffffffffffffffffffff16610cc3610db1565b73ffffffffffffffffffffffffffffffffffffffff1614610d19576040517f08c379a0000000000000000000000000000000000000000000000000000000008152600401610d1090614189565b60405180910390fd5b610d236000612193565b565b60a25481565b610d336120e9565b73ffffffffffffffffffffffffffffffffffffffff16610d51610db1565b73ffffffffffffffffffffffffffffffffffffffff1614610da7576040517f08c379a0000000000000000000000000000000000000000000000000000000008152600401610d9e90614189565b60405180910390fd5b610daf612259565b565b6000603360009054906101000a900473ffffffffffffffffffffffffffffffffffffffff16905090565b610de3610c86565b15610e23576040517f08c379a0000000000000000000000000000000000000000000000000000000008152600401610e1a906141f5565b60405180910390fd5b609860009054906101000a900473ffffffffffffffffffffffffffffffffffffffff1673ffffffffffffffffffffffffffffffffffffffff163373ffffffffffffffffffffffffffffffffffffffff1614610eb3576040517f08c379a0000000000000000000000000000000000000000000000000000000008152600401610eaa90614261565b60405180910390fd5b6000609c6000846000015181526020019081526020016000208054905011610f10576040517f08c379a0000000000000000000000000000000000000000000000000000000008152600401610f07906142cd565b60405180910390fd5b6000609c600084600001518152602001908152602001600020805480602002602001604051908101604052809291908181526020018280548015610f9b57602002820191906000526020600020906000905b82829054906101000a900461ffff1661ffff1681526020019060020190602082600101049283019260010382029150808411610f625790505b50505050509050609c6000846000015181526020019081526020016000206000610fc59190613394565b6000805b82518110156113505760008482604051602001610fe79291906142ed565b6040516020818303038152906040528051906020012060001c90506000611013876040015160006122fc565b905061103c85848151811061102b5761102a614316565b5b602002602001015161ffff16611e33565b156110905761107e85848151811061105757611056614316565b5b602002602001015161ffff168860400151831580611076575089608001515b841586612308565b846110899190614374565b93506110d2565b6110c48584815181106110a6576110a5614316565b5b602002602001015161ffff1688604001518960800151841586612752565b846110cf9190614374565b93505b60005b609b6000896040015173ffffffffffffffffffffffffffffffffffffffff1673ffffffffffffffffffffffffffffffffffffffff1681526020019081526020016000208054905081101561133a5785848151811061113657611135614316565b5b602002602001015161ffff16609b60008a6040015173ffffffffffffffffffffffffffffffffffffffff1673ffffffffffffffffffffffffffffffffffffffff168152602001908152602001600020828154811061119757611196614316565b5b9060005260206000200154141561132757609b6000896040015173ffffffffffffffffffffffffffffffffffffffff1673ffffffffffffffffffffffffffffffffffffffff1681526020019081526020016000206001609b60008b6040015173ffffffffffffffffffffffffffffffffffffffff1673ffffffffffffffffffffffffffffffffffffffff1681526020019081526020016000208054905061123e91906143ca565b8154811061124f5761124e614316565b5b9060005260206000200154609b60008a6040015173ffffffffffffffffffffffffffffffffffffffff1673ffffffffffffffffffffffffffffffffffffffff16815260200190815260200160002082815481106112af576112ae614316565b5b9060005260206000200181905550609b6000896040015173ffffffffffffffffffffffffffffffffffffffff1673ffffffffffffffffffffffffffffffffffffffff1681526020019081526020016000208054806113105761130f6143fe565b5b600190038181906000526020600020016000905590555b80806113329061442d565b9150506110d5565b50505080806113489061442d565b915050610fc9565b50600081111561136957611368846040015182612ba3565b5b50505050565b6113776120e9565b73ffffffffffffffffffffffffffffffffffffffff16611395610db1565b73ffffffffffffffffffffffffffffffffffffffff16146113eb576040517f08c379a00000000000000000000000000000000000000000000000000000000081526004016113e290614189565b60405180910390fd5b8460a2819055508360a08190555082609d60016101000a81548160ff021916908360000b60ff16021790555081609d60036101000a81548160ff021916908360000b60ff1602179055508060a360006101000a81548160ff021916908360ff1602179055505050505050565b609d60029054906101000a900460000b81565b611472610c86565b156114b2576040517f08c379a00000000000000000000000000000000000000000000000000000000081526004016114a9906141f5565b60405180910390fd5b60a360009054906101000a900460ff1660ff1683839050111561150a576040517f08c379a0000000000000000000000000000000000000000000000000000000008152600401611501906144c2565b60405180910390fd5b60005b8383905081101561179e57600061154e8585848181106115305761152f614316565b5b905060200201602081019061154591906144e2565b61ffff16611e33565b61159557609a600086868581811061156957611568614316565b5b905060200201602081019061157e91906144e2565b61ffff1681526020019081526020016000206115d4565b609960008686858181106115ac576115ab614316565b5b90506020020160208101906115c191906144e2565b61ffff1681526020019081526020016000205b604051806080016040529081600082015481526020016001820160009054906101000a900473ffffffffffffffffffffffffffffffffffffffff1673ffffffffffffffffffffffffffffffffffffffff1673ffffffffffffffffffffffffffffffffffffffff1681526020016001820160149054906101000a900469ffffffffffffffffffff1669ffffffffffffffffffff1669ffffffffffffffffffff1681526020016002820160009054906101000a900469ffffffffffffffffffff1669ffffffffffffffffffff1669ffffffffffffffffffff168152505090506116b96120e9565b73ffffffffffffffffffffffffffffffffffffffff16816020015173ffffffffffffffffffffffffffffffffffffffff161461172a576040517f08c379a00000000000000000000000000000000000000000000000000000000081526004016117219061455b565b60405180910390fd5b60a254816060015169ffffffffffffffffffff164261174991906143ca565b101561178a576040517f08c379a0000000000000000000000000000000000000000000000000000000008152600401611781906145c7565b60405180910390fd5b5080806117969061442d565b91505061150d565b506000609860009054906101000a900473ffffffffffffffffffffffffffffffffffffffff1673ffffffffffffffffffffffffffffffffffffffff16635bdf263c6117e76120e9565b8686866040518563ffffffff1660e01b815260040161180994939291906146aa565b6020604051808303816000875af1158015611828573d6000803e3d6000fd5b505050506040513d601f19601f8201168201806040525081019061184c91906146ff565b90508383609c600084815260200190815260200160002091906118709291906133bc565b5050505050565b609b602052816000526040600020818154811061189357600080fd5b90600052602060002001600091509150505481565b6118b06120e9565b73ffffffffffffffffffffffffffffffffffffffff168373ffffffffffffffffffffffffffffffffffffffff16148061193d5750609760009054906101000a900473ffffffffffffffffffffffffffffffffffffffff1673ffffffffffffffffffffffffffffffffffffffff166119256120e9565b73ffffffffffffffffffffffffffffffffffffffff16145b61197c576040517f08c379a000000000000000000000000000000000000000000000000000000000815260040161197390614778565b60405180910390fd5b60005b82829050811015611e2d57609760009054906101000a900473ffffffffffffffffffffffffffffffffffffffff1673ffffffffffffffffffffffffffffffffffffffff166119cb6120e9565b73ffffffffffffffffffffffffffffffffffffffff1614611be1576119ee6120e9565b73ffffffffffffffffffffffffffffffffffffffff16609760009054906101000a900473ffffffffffffffffffffffffffffffffffffffff1673ffffffffffffffffffffffffffffffffffffffff16636352211e858585818110611a5557611a54614316565b5b9050602002016020810190611a6a91906144e2565b6040518263ffffffff1660e01b8152600401611a8691906147c9565b602060405180830381865afa158015611aa3573d6000803e3d6000fd5b505050506040513d601f19601f82011682018060405250810190611ac791906147f9565b73ffffffffffffffffffffffffffffffffffffffff1614611b1d576040517f08c379a0000000000000000000000000000000000000000000000000000000008152600401611b149061455b565b60405180910390fd5b609760009054906101000a900473ffffffffffffffffffffffffffffffffffffffff1673ffffffffffffffffffffffffffffffffffffffff166323b872dd611b636120e9565b30868686818110611b7757611b76614316565b5b9050602002016020810190611b8c91906144e2565b6040518463ffffffff1660e01b8152600401611baa93929190614826565b600060405180830381600087803b158015611bc457600080fd5b505af1158015611bd8573d6000803e3d6000fd5b50505050611c1b565b6000838383818110611bf657611bf5614316565b5b9050602002016020810190611c0b91906144e2565b61ffff161415611c1a57611e1a565b5b611c4f838383818110611c3157611c30614316565b5b9050602002016020810190611c4691906144e2565b61ffff16612ba7565b611c8e576040517f08c379a0000000000000000000000000000000000000000000000000000000008152600401611c85906148a9565b60405180910390fd5b611cc2838383818110611ca457611ca3614316565b5b9050602002016020810190611cb991906144e2565b61ffff16611e33565b15611de357611cfc84848484818110611cde57611cdd614316565b5b9050602002016020810190611cf391906144e2565b61ffff16612bb2565b611d0e611d076120e9565b60016122fc565b611d4d576040517f08c379a0000000000000000000000000000000000000000000000000000000008152600401611d4490614915565b60405180910390fd5b609b60008573ffffffffffffffffffffffffffffffffffffffff1673ffffffffffffffffffffffffffffffffffffffff168152602001908152602001600020838383818110611d9f57611d9e614316565b5b9050602002016020810190611db491906144e2565b908060018154018082558091505060019003906000526020600020016000909161ffff16909190915055611e19565b611e1884848484818110611dfa57611df9614316565b5b9050602002016020810190611e0f91906144e2565b61ffff16612d71565b5b5b8080611e259061442d565b91505061197f565b50505050565b6000609760009054906101000a900473ffffffffffffffffffffffffffffffffffffffff1673ffffffffffffffffffffffffffffffffffffffff1663e05c57bf836040518263ffffffff1660e01b8152600401611e90919061377d565b61016060405180830381865afa158015611eae573d6000803e3d6000fd5b505050506040513d601f19601f82011682018060405250810190611ed29190614049565b9091929394959697985090919293949596975090919293949596509091929394955090919293945090919293509091925090915090505080915050919050565b609e5481565b611f206120e9565b73ffffffffffffffffffffffffffffffffffffffff16611f3e610db1565b73ffffffffffffffffffffffffffffffffffffffff1614611f94576040517f08c379a0000000000000000000000000000000000000000000000000000000008152600401611f8b90614189565b60405180910390fd5b600073ffffffffffffffffffffffffffffffffffffffff168173ffffffffffffffffffffffffffffffffffffffff161415612004576040517f08c379a0000000000000000000000000000000000000000000000000000000008152600401611ffb906149a7565b60405180910390fd5b61200d81612193565b50565b60a05481565b600061202130612f39565b15905090565b600060019054906101000a900460ff16612076576040517f08c379a000000000000000000000000000000000000000000000000000000000815260040161206d90614a39565b60405180910390fd5b61207e612f4c565b612086612f9d565b565b600060019054906101000a900460ff166120d7576040517f08c379a00000000000000000000000000000000000000000000000000000000081526004016120ce90614a39565b60405180910390fd5b6120df612f4c565b6120e7612ffe565b565b600033905090565b6120f9610c86565b612138576040517f08c379a000000000000000000000000000000000000000000000000000000000815260040161212f90614aa5565b60405180910390fd5b6000606560006101000a81548160ff0219169083151502179055507f5db9ee0a495bf2e6ff9c91a7834c1ba4fdd244a5e8aa4e537bd38aeae4b073aa61217c6120e9565b60405161218991906139af565b60405180910390a1565b6000603360009054906101000a900473ffffffffffffffffffffffffffffffffffffffff16905081603360006101000a81548173ffffffffffffffffffffffffffffffffffffffff021916908373ffffffffffffffffffffffffffffffffffffffff1602179055508173ffffffffffffffffffffffffffffffffffffffff168173ffffffffffffffffffffffffffffffffffffffff167f8be0079c531659141344cd1fd0a4f28419497f9722a3daafe3b4186f6b6457e060405160405180910390a35050565b612261610c86565b156122a1576040517f08c379a0000000000000000000000000000000000000000000000000000000008152600401612298906141f5565b60405180910390fd5b6001606560006101000a81548160ff0219169083151502179055507f62e78cea01bee320cd4e420270b5ea74000d11b0c9f74754ebdbfc544b05a2586122e56120e9565b6040516122f291906139af565b60405180910390a1565b60006001905092915050565b60008060996000888152602001908152602001600020604051806080016040529081600082015481526020016001820160009054906101000a900473ffffffffffffffffffffffffffffffffffffffff1673ffffffffffffffffffffffffffffffffffffffff1673ffffffffffffffffffffffffffffffffffffffff1681526020016001820160149054906101000a900469ffffffffffffffffffff1669ffffffffffffffffffff1669ffffffffffffffffffff1681526020016002820160009054906101000a900469ffffffffffffffffffff1669ffffffffffffffffffff1669ffffffffffffffffffff168152505090508573ffffffffffffffffffffffffffffffffffffffff16816020015173ffffffffffffffffffffffffffffffffffffffff161461246d576040517f08c379a00000000000000000000000000000000000000000000000000000000081526004016124649061455b565b60405180910390fd5b836124805761247b8161306a565b612483565b60005b915060008060006124948a87613071565b9250925092506124a38a612ba7565b6124ac57600197505b87156125df57609760009054906101000a900473ffffffffffffffffffffffffffffffffffffffff1673ffffffffffffffffffffffffffffffffffffffff1663b88d4fde308b8d6040518463ffffffff1660e01b815260040161251193929190614afc565b600060405180830381600087803b15801561252b57600080fd5b505af115801561253f573d6000803e3d6000fd5b50505050609960008b81526020019081526020016000206000808201600090556001820160006101000a81549073ffffffffffffffffffffffffffffffffffffffff02191690556001820160146101000a81549069ffffffffffffffffffff02191690556002820160006101000a81549069ffffffffffffffffffff02191690555050609e60008154809291906125d590614b46565b9190505550612700565b60405180608001604052808b61ffff1681526020018a73ffffffffffffffffffffffffffffffffffffffff1681526020014269ffffffffffffffffffff1681526020014269ffffffffffffffffffff16815250609960008c81526020019081526020016000206000820151816000015560208201518160010160006101000a81548173ffffffffffffffffffffffffffffffffffffffff021916908373ffffffffffffffffffffffffffffffffffffffff16021790555060408201518160010160146101000a81548169ffffffffffffffffffff021916908369ffffffffffffffffffff16021790555060608201518160020160006101000a81548169ffffffffffffffffffff021916908369ffffffffffffffffffff1602179055509050505b7f9b394c66bc4fdb2f56f5842a796076e6552d6f15eaacb6e63e3c53b474d872e98a868a86868660a15460405161273d9796959493929190614be7565b60405180910390a15050505095945050505050565b600080609a6000888152602001908152602001600020604051806080016040529081600082015481526020016001820160009054906101000a900473ffffffffffffffffffffffffffffffffffffffff1673ffffffffffffffffffffffffffffffffffffffff1673ffffffffffffffffffffffffffffffffffffffff1681526020016001820160149054906101000a900469ffffffffffffffffffff1669ffffffffffffffffffff1669ffffffffffffffffffff1681526020016002820160009054906101000a900469ffffffffffffffffffff1669ffffffffffffffffffff1669ffffffffffffffffffff168152505090508573ffffffffffffffffffffffffffffffffffffffff16816020015173ffffffffffffffffffffffffffffffffffffffff16146128b7576040517f08c379a00000000000000000000000000000000000000000000000000000000081526004016128ae9061455b565b60405180910390fd5b836128ca576128c5816132cb565b6128cd565b60005b915060008060006128de8a87613071565b9250925092506128ed8a612ba7565b6128f657600197505b8715612a2957609760009054906101000a900473ffffffffffffffffffffffffffffffffffffffff1673ffffffffffffffffffffffffffffffffffffffff1663b88d4fde308b8d6040518463ffffffff1660e01b815260040161295b93929190614afc565b600060405180830381600087803b15801561297557600080fd5b505af1158015612989573d6000803e3d6000fd5b50505050609a60008b81526020019081526020016000206000808201600090556001820160006101000a81549073ffffffffffffffffffffffffffffffffffffffff02191690556001820160146101000a81549069ffffffffffffffffffff02191690556002820160006101000a81549069ffffffffffffffffffff02191690555050609f6000815480929190612a1f90614b46565b9190505550612b51565b60405180608001604052808b61ffff1681526020018a73ffffffffffffffffffffffffffffffffffffffff168152602001612a626132d2565b69ffffffffffffffffffff1681526020014269ffffffffffffffffffff16815250609a60008c81526020019081526020016000206000820151816000015560208201518160010160006101000a81548173ffffffffffffffffffffffffffffffffffffffff021916908373ffffffffffffffffffffffffffffffffffffffff16021790555060408201518160010160146101000a81548169ffffffffffffffffffff021916908369ffffffffffffffffffff16021790555060608201518160020160006101000a81548169ffffffffffffffffffff021916908369ffffffffffffffffffff1602179055509050505b7f9be2cb7a62ca4aefdc81da57f848805cc67c86675da32b5a7be58bb615ba4f328a868a86868660a154604051612b8e9796959493929190614be7565b60405180910390a15050505095945050505050565b5050565b600060019050919050565b612bba610c86565b15612bfa576040517f08c379a0000000000000000000000000000000000000000000000000000000008152600401612bf1906141f5565b60405180910390fd5b60405180608001604052808261ffff1681526020018373ffffffffffffffffffffffffffffffffffffffff1681526020014269ffffffffffffffffffff1681526020014269ffffffffffffffffffff16815250609960008381526020019081526020016000206000820151816000015560208201518160010160006101000a81548173ffffffffffffffffffffffffffffffffffffffff021916908373ffffffffffffffffffffffffffffffffffffffff16021790555060408201518160010160146101000a81548169ffffffffffffffffffff021916908369ffffffffffffffffffff16021790555060608201518160020160006101000a81548169ffffffffffffffffffff021916908369ffffffffffffffffffff160217905550905050609e6000815480929190612d2d9061442d565b91905055507f8af1bb49fb16c7835975aa59449ba4328dd54737dfb2ae9fa6c5eca71fda51f9818342604051612d6593929190614c5d565b60405180910390a15050565b612d79610c86565b15612db9576040517f08c379a0000000000000000000000000000000000000000000000000000000008152600401612db0906141f5565b60405180910390fd5b60405180608001604052808261ffff1681526020018373ffffffffffffffffffffffffffffffffffffffff168152602001612df26132d2565b69ffffffffffffffffffff1681526020014269ffffffffffffffffffff16815250609a60008381526020019081526020016000206000820151816000015560208201518160010160006101000a81548173ffffffffffffffffffffffffffffffffffffffff021916908373ffffffffffffffffffffffffffffffffffffffff16021790555060408201518160010160146101000a81548169ffffffffffffffffffff021916908369ffffffffffffffffffff16021790555060608201518160020160006101000a81548169ffffffffffffffffffff021916908369ffffffffffffffffffff160217905550905050609f6000815480929190612ef39061442d565b91905055507f8af1bb49fb16c7835975aa59449ba4328dd54737dfb2ae9fa6c5eca71fda51f9818360a154604051612f2d93929190614c5d565b60405180910390a15050565b600080823b905060008111915050919050565b600060019054906101000a900460ff16612f9b576040517f08c379a0000000000000000000000000000000000000000000000000000000008152600401612f9290614a39565b60405180910390fd5b565b600060019054906101000a900460ff16612fec576040517f08c379a0000000000000000000000000000000000000000000000000000000008152600401612fe390614a39565b60405180910390fd5b612ffc612ff76120e9565b612193565b565b600060019054906101000a900460ff1661304d576040517f08c379a000000000000000000000000000000000000000000000000000000000815260040161304490614a39565b60405180910390fd5b6000606560006101000a81548160ff021916908315150217905550565b6000919050565b6000806060600080609760009054906101000a900473ffffffffffffffffffffffffffffffffffffffff1673ffffffffffffffffffffffffffffffffffffffff1663e05c57bf886040518263ffffffff1660e01b81526004016130d4919061377d565b61016060405180830381865afa1580156130f2573d6000803e3d6000fd5b505050506040513d601f19601f820116820180604052508101906131169190614049565b9a50505050505050505050915060008261315c57609a600089815260200190815260200160002060020160009054906101000a900469ffffffffffffffffffff1661318a565b6099600089815260200190815260200160002060020160009054906101000a900469ffffffffffffffffffff165b69ffffffffffffffffffff16426131a191906143ca565b9050609760009054906101000a900473ffffffffffffffffffffffffffffffffffffffff1673ffffffffffffffffffffffffffffffffffffffff166363dbfc7789613217866131ff57609d60029054906101000a900460000b613210565b609d60009054906101000a900460000b5b85876132d7565b61324d8761323457609d60039054906101000a900460000b613245565b609d60019054906101000a900460000b5b8660006132d7565b8b6040518563ffffffff1660e01b815260040161326d9493929190614c94565b6000604051808303816000875af115801561328c573d6000803e3d6000fd5b505050506040513d6000823e3d601f19601f820116820180604052508101906132b59190614d7f565b8096508197508298505050505050509250925092565b6000919050565b600090565b600060a0548311156132e95760a05492505b600060a0548560000b856132fd9190614df8565b6133079190614f3e565b905060a0548410613324578260000b816133219190614fa8565b90505b606481131561333757606491505061338d565b7fffffffffffffffffffffffffffffffffffffffffffffffffffffffffffffff9c811215613388577fffffffffffffffffffffffffffffffffffffffffffffffffffffffffffffff9c91505061338d565b809150505b9392505050565b50805460008255600f0160109004906000526020600020908101906133b9919061346a565b50565b82805482825590600052602060002090600f016010900481019282156134595791602002820160005b8382111561342957833561ffff1683826101000a81548161ffff021916908361ffff16021790555092602001926002016020816001010492830192600103026133e5565b80156134575782816101000a81549061ffff0219169055600201602081600101049283019260010302613429565b505b509050613466919061346a565b5090565b5b8082111561348357600081600090555060010161346b565b5090565b60008160000b9050919050565b61349d81613487565b82525050565b60006020820190506134b86000830184613494565b92915050565b6000604051905090565b600080fd5b600080fd5b600073ffffffffffffffffffffffffffffffffffffffff82169050919050565b60006134fd826134d2565b9050919050565b61350d816134f2565b811461351857600080fd5b50565b60008135905061352a81613504565b92915050565b6000819050919050565b61354381613530565b811461354e57600080fd5b50565b6000813590506135608161353a565b92915050565b600080fd5b600080fd5b600080fd5b60008083601f84011261358b5761358a613566565b5b8235905067ffffffffffffffff8111156135a8576135a761356b565b5b6020830191508360018202830111156135c4576135c3613570565b5b9250929050565b6000806000806000608086880312156135e7576135e66134c8565b5b60006135f58882890161351b565b95505060206136068882890161351b565b945050604061361788828901613551565b935050606086013567ffffffffffffffff811115613638576136376134cd565b5b61364488828901613575565b92509250509295509295909350565b60007fffffffff0000000000000000000000000000000000000000000000000000000082169050919050565b61368881613653565b82525050565b60006020820190506136a3600083018461367f565b92915050565b6000806000606084860312156136c2576136c16134c8565b5b60006136d08682870161351b565b93505060206136e18682870161351b565b92505060406136f286828701613551565b9150509250925092565b600060208284031215613712576137116134c8565b5b600061372084828501613551565b91505092915050565b600060ff82169050919050565b61373f81613729565b82525050565b600060408201905061375a6000830185613736565b6137676020830184613736565b9392505050565b61377781613530565b82525050565b6000602082019050613792600083018461376e565b92915050565b6137a1816134f2565b82525050565b600069ffffffffffffffffffff82169050919050565b6137c6816137a7565b82525050565b60006080820190506137e1600083018761376e565b6137ee6020830186613798565b6137fb60408301856137bd565b61380860608301846137bd565b95945050505050565b60008060408385031215613828576138276134c8565b5b60006138368582860161351b565b92505060206138478582860161351b565b9150509250929050565b6000819050919050565b600061387661387161386c846134d2565b613851565b6134d2565b9050919050565b60006138888261385b565b9050919050565b600061389a8261387d565b9050919050565b6138aa8161388f565b82525050565b60006020820190506138c560008301846138a1565b92915050565b6000819050919050565b6138de816138cb565b81146138e957600080fd5b50565b6000813590506138fb816138d5565b92915050565b60008060408385031215613918576139176134c8565b5b6000613926858286016138ec565b925050602061393785828601613551565b9150509250929050565b600061ffff82169050919050565b61395881613941565b82525050565b6000602082019050613973600083018461394f565b92915050565b60008115159050919050565b61398e81613979565b82525050565b60006020820190506139a96000830184613985565b92915050565b60006020820190506139c46000830184613798565b92915050565b600080fd5b6000601f19601f8301169050919050565b7f4e487b7100000000000000000000000000000000000000000000000000000000600052604160045260246000fd5b613a18826139cf565b810181811067ffffffffffffffff82111715613a3757613a366139e0565b5b80604052505050565b6000613a4a6134be565b9050613a568282613a0f565b919050565b600080fd5b600067ffffffffffffffff821115613a7b57613a7a6139e0565b5b602082029050602081019050919050565b613a9581613941565b8114613aa057600080fd5b50565b600081359050613ab281613a8c565b92915050565b6000613acb613ac684613a60565b613a40565b90508083825260208201905060208402830185811115613aee57613aed613570565b5b835b81811015613b175780613b038882613aa3565b845260208401935050602081019050613af0565b5050509392505050565b600082601f830112613b3657613b35613566565b5b8135613b46848260208601613ab8565b91505092915050565b613b5881613979565b8114613b6357600080fd5b50565b600081359050613b7581613b4f565b92915050565b600060a08284031215613b9157613b906139ca565b5b613b9b60a0613a40565b90506000613bab848285016138ec565b6000830152506020613bbf8482850161351b565b6020830152506040613bd38482850161351b565b604083015250606082013567ffffffffffffffff811115613bf757613bf6613a5b565b5b613c0384828501613b21565b6060830152506080613c1784828501613b66565b60808301525092915050565b60008060408385031215613c3a57613c396134c8565b5b600083013567ffffffffffffffff811115613c5857613c576134cd565b5b613c6485828601613b7b565b9250506020613c7585828601613551565b9150509250929050565b613c8881613487565b8114613c9357600080fd5b50565b600081359050613ca581613c7f565b92915050565b613cb481613729565b8114613cbf57600080fd5b50565b600081359050613cd181613cab565b92915050565b600080600080600060a08688031215613cf357613cf26134c8565b5b6000613d0188828901613551565b9550506020613d1288828901613551565b9450506040613d2388828901613c96565b9350506060613d3488828901613c96565b9250506080613d4588828901613cc2565b9150509295509295909350565b60008083601f840112613d6857613d67613566565b5b8235905067ffffffffffffffff811115613d8557613d8461356b565b5b602083019150836020820283011115613da157613da0613570565b5b9250929050565b600080600060408486031215613dc157613dc06134c8565b5b600084013567ffffffffffffffff811115613ddf57613dde6134cd565b5b613deb86828701613d52565b93509350506020613dfe86828701613b66565b9150509250925092565b60008060408385031215613e1f57613e1e6134c8565b5b6000613e2d8582860161351b565b9250506020613e3e85828601613551565b9150509250929050565b600080600060408486031215613e6157613e606134c8565b5b6000613e6f8682870161351b565b935050602084013567ffffffffffffffff811115613e9057613e8f6134cd565b5b613e9c86828701613d52565b92509250509250925092565b600060208284031215613ebe57613ebd6134c8565b5b6000613ecc8482850161351b565b91505092915050565b600082825260208201905092915050565b7f43616e6e6f742073656e6420746f6b656e7320746f2056656e7565206469726560008201527f63746c7900000000000000000000000000000000000000000000000000000000602082015250565b6000613f42602483613ed5565b9150613f4d82613ee6565b604082019050919050565b60006020820190508181036000830152613f7181613f35565b9050919050565b7f496e697469616c697a61626c653a20636f6e747261637420697320616c72656160008201527f647920696e697469616c697a6564000000000000000000000000000000000000602082015250565b6000613fd4602e83613ed5565b9150613fdf82613f78565b604082019050919050565b6000602082019050818103600083015261400381613fc7565b9050919050565b60008151905061401981613b4f565b92915050565b60008151905061402e81613cab565b92915050565b60008151905061404381613c7f565b92915050565b60008060008060008060008060008060006101608c8e03121561406f5761406e6134c8565b5b600061407d8e828f0161400a565b9b5050602061408e8e828f0161401f565b9a5050604061409f8e828f0161401f565b99505060606140b08e828f0161401f565b98505060806140c18e828f0161401f565b97505060a06140d28e828f0161401f565b96505060c06140e38e828f0161401f565b95505060e06140f48e828f0161401f565b9450506101006141068e828f0161401f565b9350506101206141188e828f0161401f565b92505061014061412a8e828f01614034565b9150509295989b509295989b9093969950565b7f4f776e61626c653a2063616c6c6572206973206e6f7420746865206f776e6572600082015250565b6000614173602083613ed5565b915061417e8261413d565b602082019050919050565b600060208201905081810360008301526141a281614166565b9050919050565b7f5061757361626c653a2070617573656400000000000000000000000000000000600082015250565b60006141df601083613ed5565b91506141ea826141a9565b602082019050919050565b6000602082019050818103600083015261420e816141d2565b9050919050565b7f4f6e6c7920436c61696d2063616e2066756c66696c6c00000000000000000000600082015250565b600061424b601683613ed5565b915061425682614215565b602082019050919050565b6000602082019050818103600083015261427a8161423e565b9050919050565b7f436c61696d2072657175657374206e6f7420666f756e64000000000000000000600082015250565b60006142b7601783613ed5565b91506142c282614281565b602082019050919050565b600060208201905081810360008301526142e6816142aa565b9050919050565b6000604082019050614302600083018561376e565b61430f602083018461376e565b9392505050565b7f4e487b7100000000000000000000000000000000000000000000000000000000600052603260045260246000fd5b7f4e487b7100000000000000000000000000000000000000000000000000000000600052601160045260246000fd5b600061437f82613530565b915061438a83613530565b9250827fffffffffffffffffffffffffffffffffffffffffffffffffffffffffffffffff038211156143bf576143be614345565b5b828201905092915050565b60006143d582613530565b91506143e083613530565b9250828210156143f3576143f2614345565b5b828203905092915050565b7f4e487b7100000000000000000000000000000000000000000000000000000000600052603160045260246000fd5b600061443882613530565b91507fffffffffffffffffffffffffffffffffffffffffffffffffffffffffffffffff82141561446b5761446a614345565b5b600182019050919050565b7f496e76616c696420636c61696d20616d6f756e74000000000000000000000000600082015250565b60006144ac601483613ed5565b91506144b782614476565b602082019050919050565b600060208201905081810360008301526144db8161449f565b9050919050565b6000602082840312156144f8576144f76134c8565b5b600061450684828501613aa3565b91505092915050565b7f4e6f7420796f757220746f6b656e000000000000000000000000000000000000600082015250565b6000614545600e83613ed5565b91506145508261450f565b602082019050919050565b6000602082019050818103600083015261457481614538565b9050919050565b7f43616e6e6f7420636c61696d206265666f726520454f42000000000000000000600082015250565b60006145b1601783613ed5565b91506145bc8261457b565b602082019050919050565b600060208201905081810360008301526145e0816145a4565b9050919050565b600082825260208201905092915050565b6000819050919050565b61460b81613941565b82525050565b600061461d8383614602565b60208301905092915050565b60006146386020840184613aa3565b905092915050565b6000602082019050919050565b600061465983856145e7565b9350614664826145f8565b8060005b8581101561469d5761467a8284614629565b6146848882614611565b975061468f83614640565b925050600181019050614668565b5085925050509392505050565b60006060820190506146bf6000830187613798565b81810360208301526146d281858761464d565b90506146e16040830184613985565b95945050505050565b6000815190506146f9816138d5565b92915050565b600060208284031215614715576147146134c8565b5b6000614723848285016146ea565b91505092915050565b7f446f206e6f74206c6f736520796f757220746f6b656e73000000000000000000600082015250565b6000614762601783613ed5565b915061476d8261472c565b602082019050919050565b6000602082019050818103600083015261479181614755565b9050919050565b60006147b36147ae6147a984613941565b613851565b613530565b9050919050565b6147c381614798565b82525050565b60006020820190506147de60008301846147ba565b92915050565b6000815190506147f381613504565b92915050565b60006020828403121561480f5761480e6134c8565b5b600061481d848285016147e4565b91505092915050565b600060608201905061483b6000830186613798565b6148486020830185613798565b61485560408301846147ba565b949350505050565b7f4e6f7420656c696769626c650000000000000000000000000000000000000000600082015250565b6000614893600c83613ed5565b915061489e8261485d565b602082019050919050565b600060208201905081810360008301526148c281614886565b9050919050565b7f4b69746368656e20737061636520726571756972656400000000000000000000600082015250565b60006148ff601683613ed5565b915061490a826148c9565b602082019050919050565b6000602082019050818103600083015261492e816148f2565b9050919050565b7f4f776e61626c653a206e6577206f776e657220697320746865207a65726f206160008201527f6464726573730000000000000000000000000000000000000000000000000000602082015250565b6000614991602683613ed5565b915061499c82614935565b604082019050919050565b600060208201905081810360008301526149c081614984565b9050919050565b7f496e697469616c697a61626c653a20636f6e7472616374206973206e6f74206960008201527f6e697469616c697a696e67000000000000000000000000000000000000000000602082015250565b6000614a23602b83613ed5565b9150614a2e826149c7565b604082019050919050565b60006020820190508181036000830152614a5281614a16565b9050919050565b7f5061757361626c653a206e6f7420706175736564000000000000000000000000600082015250565b6000614a8f601483613ed5565b9150614a9a82614a59565b602082019050919050565b60006020820190508181036000830152614abe81614a82565b9050919050565b600082825260208201905092915050565b50565b6000614ae6600083614ac5565b9150614af182614ad6565b600082019050919050565b6000608082019050614b116000830186613798565b614b1e6020830185613798565b614b2b604083018461376e565b8181036060830152614b3c81614ad9565b9050949350505050565b6000614b5182613530565b91506000821415614b6557614b64614345565b5b600182039050919050565b600081519050919050565b60005b83811015614b99578082015181840152602081019050614b7e565b83811115614ba8576000848401525b50505050565b6000614bb982614b70565b614bc38185613ed5565b9350614bd3818560208601614b7b565b614bdc816139cf565b840191505092915050565b600060e082019050614bfc600083018a61376e565b614c09602083018961376e565b614c166040830188613985565b614c236060830187613736565b614c306080830186613736565b81810360a0830152614c428185614bae565b9050614c5160c083018461376e565b98975050505050505050565b6000606082019050614c72600083018661376e565b614c7f6020830185613798565b614c8c604083018461376e565b949350505050565b6000608082019050614ca9600083018761376e565b614cb66020830186613494565b614cc36040830185613494565b614cd0606083018461376e565b95945050505050565b600080fd5b600067ffffffffffffffff821115614cf957614cf86139e0565b5b614d02826139cf565b9050602081019050919050565b6000614d22614d1d84614cde565b613a40565b905082815260208101848484011115614d3e57614d3d614cd9565b5b614d49848285614b7b565b509392505050565b600082601f830112614d6657614d65613566565b5b8151614d76848260208601614d0f565b91505092915050565b600080600060608486031215614d9857614d976134c8565b5b6000614da68682870161401f565b9350506020614db78682870161401f565b925050604084015167ffffffffffffffff811115614dd857614dd76134cd565b5b614de486828701614d51565b9150509250925092565b6000819050919050565b6000614e0382614dee565b9150614e0e83614dee565b9250827f7fffffffffffffffffffffffffffffffffffffffffffffffffffffffffffffff0482116000841360008413161615614e4d57614e4c614345565b5b817f80000000000000000000000000000000000000000000000000000000000000000583126000841260008413161615614e8a57614e89614345565b5b827f80000000000000000000000000000000000000000000000000000000000000000582126000841360008412161615614ec757614ec6614345565b5b827f7fffffffffffffffffffffffffffffffffffffffffffffffffffffffffffffff0582126000841260008412161615614f0457614f03614345565b5b828202905092915050565b7f4e487b7100000000000000000000000000000000000000000000000000000000600052601260045260246000fd5b6000614f4982614dee565b9150614f5483614dee565b925082614f6457614f63614f0f565b5b600160000383147f800000000000000000000000000000000000000000000000000000000000000083141615614f9d57614f9c614345565b5b828205905092915050565b6000614fb382614dee565b9150614fbe83614dee565b9250817f7fffffffffffffffffffffffffffffffffffffffffffffffffffffffffffffff03831360008312151615614ff957614ff8614345565b5b817f800000000000000000000000000000000000000000000000000000000000000003831260008312161561503157615030614345565b5b82820190509291505056fea264697066735822122015a3bd8ec83014eef062267e4d65f7379dffa81c1910728b50856f11caddebc064736f6c634300080a0033",
  "immutableReferences": {},
  "source": "// SPDX-License-Identifier: MIT\n\npragma solidity ^0.8.0;\n\nimport \"./Venue.sol\";\n\ncontract Gym is Venue {\n  function initialize(\n    address _character,\n    address _claim\n  ) external initializer {\n    __Ownable_init();\n    __Pausable_init();\n\n    character = Character(_character);\n    claim = IClaim(_claim);\n  }\n\n  /**\n   * Allows DAO to update game parameters\n   */\n  function configure(\n    uint256 _vestingPeriod,\n    uint256 _accrualPeriod,\n    int8 _dailyFreakRate,\n    int8 _dailyBodyMassRate,\n    uint8 _maxClaimsPerTx\n  ) external onlyOwner {\n    vestingPeriod = _vestingPeriod;\n    accrualPeriod = _accrualPeriod;\n    dailyFreakRate = _dailyFreakRate;\n    dailyBodyMassRate = _dailyBodyMassRate;\n    maxClaimsPerTx = _maxClaimsPerTx;\n  }\n}\n",
  "sourcePath": "/Users/chris/workspace/ratalert/ratalert-contracts/contracts/Gym.sol",
  "compiler": {
    "name": "solc",
    "version": "0.8.10+commit.fc410830.Emscripten.clang"
  },
  "schemaVersion": "3.4.6",
  "updatedAt": "2022-03-29T21:46:41.978Z",
  "networkType": "ethereum",
  "devdoc": {
    "kind": "dev",
    "methods": {
      "claimMany(uint16[],bool)": {
        "params": {
          "tokenIds": "- The IDs of the tokens in question",
          "unstake": "- Whether or not to unstake the given tokens"
        }
      },
      "fulfillClaimMany((bytes32,address,address,uint16[],bool),uint256)": {
        "params": {
          "randomness": "- Random value created by VRF",
          "v": "- VRF struct for the corresponding request"
        }
      },
      "getProperties(uint256)": {
        "params": {
          "tokenId": "- The ID of the token to check"
        },
        "returns": {
          "efficiency": "& tolerance values"
        }
      },
      "isChef(uint256)": {
        "params": {
          "tokenId": "- The ID of the token to check"
        },
        "returns": {
          "chef": "- Whether or not the token is a Chef"
        }
      },
      "owner()": {
        "details": "Returns the address of the current owner."
      },
      "paused()": {
        "details": "Returns true if the contract is paused, and false otherwise."
      },
      "renounceOwnership()": {
        "details": "Leaves the contract without owner. It will not be possible to call `onlyOwner` functions anymore. Can only be called by the current owner. NOTE: Renouncing ownership will leave the contract without an owner, thereby removing any functionality that is only available to the owner."
      },
      "stakeMany(address,uint16[])": {
        "params": {
          "account": "- The address of the staker",
          "tokenIds": "- The IDs of the Chefs & Rats to stake"
        }
      },
      "transferOwnership(address)": {
        "details": "Transfers ownership of the contract to a new account (`newOwner`). Can only be called by the current owner."
      }
    },
    "version": 1
  },
  "userdoc": {
    "kind": "user",
    "methods": {
      "claimMany(uint16[],bool)": {
        "notice": "ChainLink VRF request: Claims food token earnings, level-ups and optionally unstake characters"
      },
      "configure(uint256,uint256,int8,int8,uint8)": {
        "notice": "Allows DAO to update game parameters"
      },
      "fulfillClaimMany((bytes32,address,address,uint16[],bool),uint256)": {
        "notice": "Callback for claimMany(), called by Claim.fulfillRandomness()"
      },
      "getProperties(uint256)": {
        "notice": "Get the character's properties"
      },
      "isChef(uint256)": {
        "notice": "Checks if the token is a Chef"
      },
      "stakeMany(address,uint16[])": {
        "notice": "Adds Characters to staking"
      }
    },
    "version": 1
  }
}