{
  "contractName": "Gym",
  "abi": [
    {
      "anonymous": false,
      "inputs": [
        {
          "indexed": false,
          "internalType": "uint256",
          "name": "tokenId",
          "type": "uint256"
        },
        {
          "indexed": false,
          "internalType": "uint256",
          "name": "earned",
          "type": "uint256"
        },
        {
          "indexed": false,
          "internalType": "bool",
          "name": "unstaked",
          "type": "bool"
        },
        {
          "indexed": false,
          "internalType": "uint8",
          "name": "skill",
          "type": "uint8"
        },
        {
          "indexed": false,
          "internalType": "uint8",
          "name": "freak",
          "type": "uint8"
        },
        {
          "indexed": false,
          "internalType": "string",
          "name": "eventName",
          "type": "string"
        },
        {
          "indexed": false,
          "internalType": "uint256",
          "name": "foodTokensPerRat",
          "type": "uint256"
        }
      ],
      "name": "ChefClaimed",
      "type": "event"
    },
    {
      "anonymous": false,
      "inputs": [
        {
          "indexed": true,
          "internalType": "address",
          "name": "previousOwner",
          "type": "address"
        },
        {
          "indexed": true,
          "internalType": "address",
          "name": "newOwner",
          "type": "address"
        }
      ],
      "name": "OwnershipTransferred",
      "type": "event"
    },
    {
      "anonymous": false,
      "inputs": [
        {
          "indexed": false,
          "internalType": "address",
          "name": "account",
          "type": "address"
        }
      ],
      "name": "Paused",
      "type": "event"
    },
    {
      "anonymous": false,
      "inputs": [
        {
          "indexed": false,
          "internalType": "uint256",
          "name": "tokenId",
          "type": "uint256"
        },
        {
          "indexed": false,
          "internalType": "uint256",
          "name": "earned",
          "type": "uint256"
        },
        {
          "indexed": false,
          "internalType": "bool",
          "name": "unstaked",
          "type": "bool"
        },
        {
          "indexed": false,
          "internalType": "uint8",
          "name": "intelligence",
          "type": "uint8"
        },
        {
          "indexed": false,
          "internalType": "uint8",
          "name": "bodyMass",
          "type": "uint8"
        },
        {
          "indexed": false,
          "internalType": "string",
          "name": "eventName",
          "type": "string"
        },
        {
          "indexed": false,
          "internalType": "uint256",
          "name": "foodTokensPerRat",
          "type": "uint256"
        }
      ],
      "name": "RatClaimed",
      "type": "event"
    },
    {
      "anonymous": false,
      "inputs": [
        {
          "indexed": false,
          "internalType": "uint256",
          "name": "tokenId",
          "type": "uint256"
        },
        {
          "indexed": false,
          "internalType": "address",
          "name": "owner",
          "type": "address"
        },
        {
          "indexed": false,
          "internalType": "uint256",
          "name": "value",
          "type": "uint256"
        }
      ],
      "name": "TokenStaked",
      "type": "event"
    },
    {
      "anonymous": false,
      "inputs": [
        {
          "indexed": false,
          "internalType": "address",
          "name": "account",
          "type": "address"
        }
      ],
      "name": "Unpaused",
      "type": "event"
    },
    {
      "inputs": [
        {
          "internalType": "uint256",
          "name": "",
          "type": "uint256"
        }
      ],
      "name": "chefs",
      "outputs": [
        {
          "internalType": "uint256",
          "name": "tokenId",
          "type": "uint256"
        },
        {
          "internalType": "address",
          "name": "owner",
          "type": "address"
        },
        {
          "internalType": "uint80",
          "name": "value",
          "type": "uint80"
        },
        {
          "internalType": "uint80",
          "name": "timestamp",
          "type": "uint80"
        }
      ],
      "stateMutability": "view",
      "type": "function"
    },
    {
      "inputs": [
        {
          "internalType": "uint16[]",
          "name": "tokenIds",
          "type": "uint16[]"
        },
        {
          "internalType": "bool",
          "name": "unstake",
          "type": "bool"
        }
      ],
      "name": "claimMany",
      "outputs": [],
      "stateMutability": "payable",
      "type": "function"
    },
    {
      "inputs": [],
      "name": "foodTokensPerRat",
      "outputs": [
        {
          "internalType": "uint256",
          "name": "",
          "type": "uint256"
        }
      ],
      "stateMutability": "view",
      "type": "function"
    },
    {
      "inputs": [
        {
          "components": [
            {
              "internalType": "bytes32",
              "name": "requestId",
              "type": "bytes32"
            },
            {
              "internalType": "address",
              "name": "venue",
              "type": "address"
            },
            {
              "internalType": "address",
              "name": "sender",
              "type": "address"
            },
            {
              "internalType": "uint16[]",
              "name": "tokenIds",
              "type": "uint16[]"
            },
            {
              "internalType": "bool",
              "name": "unstake",
              "type": "bool"
            }
          ],
          "internalType": "struct IClaim.VRFStruct",
          "name": "v",
          "type": "tuple"
        },
        {
          "internalType": "uint256",
          "name": "randomness",
          "type": "uint256"
        }
      ],
      "name": "fulfillClaimMany",
      "outputs": [],
      "stateMutability": "nonpayable",
      "type": "function"
    },
    {
      "inputs": [
        {
          "internalType": "address",
          "name": "account",
          "type": "address"
        }
      ],
      "name": "getChefsStaked",
      "outputs": [
        {
          "internalType": "uint256",
          "name": "",
          "type": "uint256"
        }
      ],
      "stateMutability": "view",
      "type": "function"
    },
    {
      "inputs": [
        {
          "internalType": "address",
          "name": "",
          "type": "address"
        },
        {
          "internalType": "address",
          "name": "from",
          "type": "address"
        },
        {
          "internalType": "uint256",
          "name": "",
          "type": "uint256"
        },
        {
          "internalType": "bytes",
          "name": "",
          "type": "bytes"
        }
      ],
      "name": "onERC721Received",
      "outputs": [
        {
          "internalType": "bytes4",
          "name": "",
          "type": "bytes4"
        }
      ],
      "stateMutability": "pure",
      "type": "function"
    },
    {
      "inputs": [],
      "name": "owner",
      "outputs": [
        {
          "internalType": "address",
          "name": "",
          "type": "address"
        }
      ],
      "stateMutability": "view",
      "type": "function"
    },
    {
      "inputs": [],
      "name": "pause",
      "outputs": [],
      "stateMutability": "nonpayable",
      "type": "function"
    },
    {
      "inputs": [],
      "name": "paused",
      "outputs": [
        {
          "internalType": "bool",
          "name": "",
          "type": "bool"
        }
      ],
      "stateMutability": "view",
      "type": "function"
    },
    {
      "inputs": [
        {
          "internalType": "uint256",
          "name": "",
          "type": "uint256"
        }
      ],
      "name": "rats",
      "outputs": [
        {
          "internalType": "uint256",
          "name": "tokenId",
          "type": "uint256"
        },
        {
          "internalType": "address",
          "name": "owner",
          "type": "address"
        },
        {
          "internalType": "uint80",
          "name": "value",
          "type": "uint80"
        },
        {
          "internalType": "uint80",
          "name": "timestamp",
          "type": "uint80"
        }
      ],
      "stateMutability": "view",
      "type": "function"
    },
    {
      "inputs": [],
      "name": "renounceOwnership",
      "outputs": [],
      "stateMutability": "nonpayable",
      "type": "function"
    },
    {
      "inputs": [
        {
          "internalType": "address",
          "name": "_dao",
          "type": "address"
        }
      ],
      "name": "setDao",
      "outputs": [],
      "stateMutability": "nonpayable",
      "type": "function"
    },
    {
      "inputs": [
        {
          "internalType": "address",
          "name": "account",
          "type": "address"
        },
        {
          "internalType": "uint16[]",
          "name": "tokenIds",
          "type": "uint16[]"
        }
      ],
      "name": "stakeMany",
      "outputs": [],
      "stateMutability": "nonpayable",
      "type": "function"
    },
    {
      "inputs": [
        {
          "internalType": "address",
          "name": "",
          "type": "address"
        },
        {
          "internalType": "uint256",
          "name": "",
          "type": "uint256"
        }
      ],
      "name": "stakers",
      "outputs": [
        {
          "internalType": "uint256",
          "name": "",
          "type": "uint256"
        }
      ],
      "stateMutability": "view",
      "type": "function"
    },
    {
      "inputs": [],
      "name": "totalChefsStaked",
      "outputs": [
        {
          "internalType": "uint256",
          "name": "",
          "type": "uint256"
        }
      ],
      "stateMutability": "view",
      "type": "function"
    },
    {
      "inputs": [],
      "name": "totalRatsStaked",
      "outputs": [
        {
          "internalType": "uint256",
          "name": "",
          "type": "uint256"
        }
      ],
      "stateMutability": "view",
      "type": "function"
    },
    {
      "inputs": [
        {
          "internalType": "address",
          "name": "newOwner",
          "type": "address"
        }
      ],
      "name": "transferOwnership",
      "outputs": [],
      "stateMutability": "nonpayable",
      "type": "function"
    },
    {
      "inputs": [],
      "name": "unpause",
      "outputs": [],
      "stateMutability": "nonpayable",
      "type": "function"
    },
    {
      "inputs": [],
      "name": "withdrawPayments",
      "outputs": [],
      "stateMutability": "nonpayable",
      "type": "function"
    },
    {
      "inputs": [
        {
          "internalType": "address",
          "name": "_character",
          "type": "address"
        },
        {
          "internalType": "address",
          "name": "_claim",
          "type": "address"
        },
        {
          "internalType": "uint256",
          "name": "_accrualPeriod",
          "type": "uint256"
        }
      ],
      "name": "initialize",
      "outputs": [],
      "stateMutability": "nonpayable",
      "type": "function"
    },
    {
      "inputs": [
        {
          "internalType": "address",
          "name": "_character",
          "type": "address"
        },
        {
          "internalType": "address",
          "name": "_claim",
          "type": "address"
        }
      ],
      "name": "initialize",
      "outputs": [],
      "stateMutability": "nonpayable",
      "type": "function"
    },
    {
      "inputs": [
        {
          "internalType": "uint256",
          "name": "_vestingPeriod",
          "type": "uint256"
        },
        {
          "internalType": "uint256",
          "name": "_accrualPeriod",
          "type": "uint256"
        },
        {
          "internalType": "int8",
          "name": "_dailyFreakRate",
          "type": "int8"
        },
        {
          "internalType": "int8",
          "name": "_dailyBodyMassRate",
          "type": "int8"
        },
        {
          "internalType": "uint8",
          "name": "_maxClaimsPerTx",
          "type": "uint8"
        },
        {
          "internalType": "uint256",
          "name": "_claimFee",
          "type": "uint256"
        }
      ],
      "name": "configure",
      "outputs": [],
      "stateMutability": "nonpayable",
      "type": "function"
    }
  ],
  "bytecode": "0x608060405234801561001057600080fd5b506150e9806100206000396000f3fe6080604052600436106101355760003560e01c80636637b882116100ab578063a7a102901161006f578063a7a10290146103e0578063c8b6cbf7146103fc578063dbdc1f6b14610439578063e7e3bbbe14610462578063f26667461461048b578063f2fde38b146104b657610135565b80636637b88214610335578063715018a61461035e5780638456cb59146103755780638da5cb5b1461038c578063922a1802146103b757610135565b8063485cc955116100fd578063485cc95514610222578063499f80101461024b5780634c4913ec146102765780634d1c61af146102b35780635c975abb146102f35780636103d70b1461031e57610135565b8063150b7a021461013a5780631794bb3c146101775780632535a77f146101a057806335ec066e146101cb5780633f4ba83a1461020b575b600080fd5b34801561014657600080fd5b50610161600480360381019061015c919061363f565b6104df565b60405161016e9190613702565b60405180910390f35b34801561018357600080fd5b5061019e6004803603810190610199919061371d565b610562565b005b3480156101ac57600080fd5b506101b561075e565b6040516101c2919061377f565b60405180910390f35b3480156101d757600080fd5b506101f260048036038101906101ed919061379a565b610764565b60405161020294939291906137fb565b60405180910390f35b34801561021757600080fd5b506102206107e0565b005b34801561022e57600080fd5b5061024960048036038101906102449190613840565b6107f2565b005b34801561025757600080fd5b5061026061096a565b60405161026d919061377f565b60405180910390f35b34801561028257600080fd5b5061029d60048036038101906102989190613880565b610970565b6040516102aa919061377f565b60405180910390f35b3480156102bf57600080fd5b506102da60048036038101906102d5919061379a565b6109bc565b6040516102ea94939291906137fb565b60405180910390f35b3480156102ff57600080fd5b50610308610a38565b60405161031591906138c8565b60405180910390f35b34801561032a57600080fd5b50610333610a4f565b005b34801561034157600080fd5b5061035c60048036038101906103579190613880565b610ac2565b005b34801561036a57600080fd5b50610373610b82565b005b34801561038157600080fd5b5061038a610c0a565b005b34801561039857600080fd5b506103a1610c1c565b6040516103ae91906138e3565b60405180910390f35b3480156103c357600080fd5b506103de60048036038101906103d99190613b9b565b610c46565b005b6103fa60048036038101906103f59190613c4d565b61122d565b005b34801561040857600080fd5b50610423600480360381019061041e9190613cad565b6116f3565b604051610430919061377f565b60405180910390f35b34801561044557600080fd5b50610460600480360381019061045b9190613ced565b611724565b005b34801561046e57600080fd5b5061048960048036038101906104849190613dbf565b611da3565b005b34801561049757600080fd5b506104a0611e93565b6040516104ad919061377f565b60405180910390f35b3480156104c257600080fd5b506104dd60048036038101906104d89190613880565b611e99565b005b60008073ffffffffffffffffffffffffffffffffffffffff168573ffffffffffffffffffffffffffffffffffffffff161461054f576040517f08c379a000000000000000000000000000000000000000000000000000000000815260040161054690613ecf565b60405180910390fd5b63150b7a0260e01b905095945050505050565b600060019054906101000a900460ff1661058a5760008054906101000a900460ff1615610593565b610592611f91565b5b6105d2576040517f08c379a00000000000000000000000000000000000000000000000000000000081526004016105c990613f61565b60405180910390fd5b60008060019054906101000a900460ff161590508015610622576001600060016101000a81548160ff02191690831515021790555060016000806101000a81548160ff0219169083151502179055505b61062a611fa2565b610632611ffb565b83609860006101000a81548173ffffffffffffffffffffffffffffffffffffffff021916908373ffffffffffffffffffffffffffffffffffffffff16021790555082609960006101000a81548173ffffffffffffffffffffffffffffffffffffffff021916908373ffffffffffffffffffffffffffffffffffffffff1602179055508160a2819055506000609e60006101000a81548160ff021916908360000b60ff1602179055506000609e60016101000a81548160ff021916908360000b60ff1602179055506000609e60026101000a81548160ff021916908360000b60ff1602179055506000609e60036101000a81548160ff021916908360000b60ff16021790555080156107585760008060016101000a81548160ff0219169083151502179055505b50505050565b60a35481565b609b6020528060005260406000206000915090508060000154908060010160009054906101000a900473ffffffffffffffffffffffffffffffffffffffff16908060010160149054906101000a900469ffffffffffffffffffff16908060020160009054906101000a900469ffffffffffffffffffff16905084565b6107e8612054565b6107f06120e6565b565b600060019054906101000a900460ff1661081a5760008054906101000a900460ff1615610823565b610822611f91565b5b610862576040517f08c379a000000000000000000000000000000000000000000000000000000000815260040161085990613f61565b60405180910390fd5b60008060019054906101000a900460ff1615905080156108b2576001600060016101000a81548160ff02191690831515021790555060016000806101000a81548160ff0219169083151502179055505b6108ba611fa2565b6108c2611ffb565b82609860006101000a81548173ffffffffffffffffffffffffffffffffffffffff021916908373ffffffffffffffffffffffffffffffffffffffff16021790555081609960006101000a81548173ffffffffffffffffffffffffffffffffffffffff021916908373ffffffffffffffffffffffffffffffffffffffff16021790555080156109655760008060016101000a81548160ff0219169083151502179055505b505050565b60a05481565b6000609c60008373ffffffffffffffffffffffffffffffffffffffff1673ffffffffffffffffffffffffffffffffffffffff168152602001908152602001600020805490509050919050565b609a6020528060005260406000206000915090508060000154908060010160009054906101000a900473ffffffffffffffffffffffffffffffffffffffff16908060010160149054906101000a900469ffffffffffffffffffff16908060020160009054906101000a900469ffffffffffffffffffff16905084565b6000603360009054906101000a900460ff16905090565b610a57612054565b609760009054906101000a900473ffffffffffffffffffffffffffffffffffffffff1673ffffffffffffffffffffffffffffffffffffffff166108fc479081150290604051600060405180830381858888f19350505050158015610abf573d6000803e3d6000fd5b50565b610aca612188565b73ffffffffffffffffffffffffffffffffffffffff16610ae8610c1c565b73ffffffffffffffffffffffffffffffffffffffff1614610b3e576040517f08c379a0000000000000000000000000000000000000000000000000000000008152600401610b3590613fcd565b60405180910390fd5b80609760006101000a81548173ffffffffffffffffffffffffffffffffffffffff021916908373ffffffffffffffffffffffffffffffffffffffff16021790555050565b610b8a612188565b73ffffffffffffffffffffffffffffffffffffffff16610ba8610c1c565b73ffffffffffffffffffffffffffffffffffffffff1614610bfe576040517f08c379a0000000000000000000000000000000000000000000000000000000008152600401610bf590613fcd565b60405180910390fd5b610c086000612190565b565b610c12612054565b610c1a612256565b565b6000606560009054906101000a900473ffffffffffffffffffffffffffffffffffffffff16905090565b610c4e610a38565b15610c8e576040517f08c379a0000000000000000000000000000000000000000000000000000000008152600401610c8590614039565b60405180910390fd5b609960009054906101000a900473ffffffffffffffffffffffffffffffffffffffff1673ffffffffffffffffffffffffffffffffffffffff163373ffffffffffffffffffffffffffffffffffffffff1614610d1e576040517f08c379a0000000000000000000000000000000000000000000000000000000008152600401610d15906140a5565b60405180910390fd5b6000609d6000846000015181526020019081526020016000208054905011610d7b576040517f08c379a0000000000000000000000000000000000000000000000000000000008152600401610d7290614111565b60405180910390fd5b6000609d600084600001518152602001908152602001600020805480602002602001604051908101604052809291908181526020018280548015610e0657602002820191906000526020600020906000905b82829054906101000a900461ffff1661ffff1681526020019060020190602082600101049283019260010382029150808411610dcd5790505b50505050509050609d6000846000015181526020019081526020016000206000610e30919061343f565b6000805b825181101561120e5760008482604051602001610e52929190614131565b6040516020818303038152906040528051906020012060001c9050610e94848381518110610e8357610e8261415a565b5b602002602001015161ffff166122f9565b156111b85760005b609c6000886040015173ffffffffffffffffffffffffffffffffffffffff1673ffffffffffffffffffffffffffffffffffffffff1681526020019081526020016000208054905081101561110157848381518110610efd57610efc61415a565b5b602002602001015161ffff16609c6000896040015173ffffffffffffffffffffffffffffffffffffffff1673ffffffffffffffffffffffffffffffffffffffff1681526020019081526020016000208281548110610f5e57610f5d61415a565b5b906000526020600020015414156110ee57609c6000886040015173ffffffffffffffffffffffffffffffffffffffff1673ffffffffffffffffffffffffffffffffffffffff1681526020019081526020016000206001609c60008a6040015173ffffffffffffffffffffffffffffffffffffffff1673ffffffffffffffffffffffffffffffffffffffff1681526020019081526020016000208054905061100591906141b8565b815481106110165761101561415a565b5b9060005260206000200154609c6000896040015173ffffffffffffffffffffffffffffffffffffffff1673ffffffffffffffffffffffffffffffffffffffff16815260200190815260200160002082815481106110765761107561415a565b5b9060005260206000200181905550609c6000886040015173ffffffffffffffffffffffffffffffffffffffff1673ffffffffffffffffffffffffffffffffffffffff1681526020019081526020016000208054806110d7576110d66141ec565b5b600190038181906000526020600020016000905590555b80806110f99061421b565b915050610e9c565b5060006111588760400151609c60008a6040015173ffffffffffffffffffffffffffffffffffffffff1673ffffffffffffffffffffffffffffffffffffffff168152602001908152602001600020805490506123d8565b905060028114156111715761117087604001516123e4565b5b6111a58584815181106111875761118661415a565b5b602002602001015161ffff16886040015189608001516000866123e7565b846111b09190614264565b9350506111fa565b6111ec8483815181106111ce576111cd61415a565b5b602002602001015161ffff1687604001518860800151600085612831565b836111f79190614264565b92505b5080806112069061421b565b915050610e34565b50600081111561122757611226846040015182612c7d565b5b50505050565b611235610a38565b15611275576040517f08c379a000000000000000000000000000000000000000000000000000000000815260040161126c90614039565b60405180910390fd5b61127d612188565b73ffffffffffffffffffffffffffffffffffffffff163273ffffffffffffffffffffffffffffffffffffffff16146112ea576040517f08c379a00000000000000000000000000000000000000000000000000000000081526004016112e190614306565b60405180910390fd5b60a460009054906101000a900460ff1660ff16838390501115611342576040517f08c379a000000000000000000000000000000000000000000000000000000000815260040161133990614372565b60405180910390fd5b60a5543414611386576040517f08c379a000000000000000000000000000000000000000000000000000000000815260040161137d906143de565b60405180910390fd5b60005b8383905081101561161a5760006113ca8585848181106113ac576113ab61415a565b5b90506020020160208101906113c191906143fe565b61ffff166122f9565b61141157609b60008686858181106113e5576113e461415a565b5b90506020020160208101906113fa91906143fe565b61ffff168152602001908152602001600020611450565b609a60008686858181106114285761142761415a565b5b905060200201602081019061143d91906143fe565b61ffff1681526020019081526020016000205b604051806080016040529081600082015481526020016001820160009054906101000a900473ffffffffffffffffffffffffffffffffffffffff1673ffffffffffffffffffffffffffffffffffffffff1673ffffffffffffffffffffffffffffffffffffffff1681526020016001820160149054906101000a900469ffffffffffffffffffff1669ffffffffffffffffffff1669ffffffffffffffffffff1681526020016002820160009054906101000a900469ffffffffffffffffffff1669ffffffffffffffffffff1669ffffffffffffffffffff16815250509050611535612188565b73ffffffffffffffffffffffffffffffffffffffff16816020015173ffffffffffffffffffffffffffffffffffffffff16146115a6576040517f08c379a000000000000000000000000000000000000000000000000000000000815260040161159d90614477565b60405180910390fd5b60a154816060015169ffffffffffffffffffff16426115c591906141b8565b1015611606576040517f08c379a00000000000000000000000000000000000000000000000000000000081526004016115fd906144e3565b60405180910390fd5b5080806116129061421b565b915050611389565b506000609960009054906101000a900473ffffffffffffffffffffffffffffffffffffffff1673ffffffffffffffffffffffffffffffffffffffff16635bdf263c611663612188565b8686866040518563ffffffff1660e01b815260040161168594939291906145c6565b6020604051808303816000875af11580156116a4573d6000803e3d6000fd5b505050506040513d601f19601f820116820180604052508101906116c8919061461b565b90508383609d600084815260200190815260200160002091906116ec929190613467565b5050505050565b609c602052816000526040600020818154811061170f57600080fd5b90600052602060002001600091509150505481565b61172c612188565b73ffffffffffffffffffffffffffffffffffffffff163273ffffffffffffffffffffffffffffffffffffffff161480156117985750611769612188565b73ffffffffffffffffffffffffffffffffffffffff168373ffffffffffffffffffffffffffffffffffffffff16145b806117f75750609860009054906101000a900473ffffffffffffffffffffffffffffffffffffffff1673ffffffffffffffffffffffffffffffffffffffff166117df612188565b73ffffffffffffffffffffffffffffffffffffffff16145b611836576040517f08c379a000000000000000000000000000000000000000000000000000000000815260040161182d90614306565b60405180910390fd5b60005b82829050811015611d9d5760008383838181106118595761185861415a565b5b905060200201602081019061186e91906143fe565b61ffff16141561187d57611d8a565b609860009054906101000a900473ffffffffffffffffffffffffffffffffffffffff1673ffffffffffffffffffffffffffffffffffffffff166118be612188565b73ffffffffffffffffffffffffffffffffffffffff1614611a11576118e1612188565b73ffffffffffffffffffffffffffffffffffffffff16609860009054906101000a900473ffffffffffffffffffffffffffffffffffffffff1673ffffffffffffffffffffffffffffffffffffffff16636352211e8585858181106119485761194761415a565b5b905060200201602081019061195d91906143fe565b6040518263ffffffff1660e01b81526004016119799190614683565b602060405180830381865afa158015611996573d6000803e3d6000fd5b505050506040513d601f19601f820116820180604052508101906119ba91906146b3565b73ffffffffffffffffffffffffffffffffffffffff1614611a10576040517f08c379a0000000000000000000000000000000000000000000000000000000008152600401611a0790614477565b60405180910390fd5b5b611a45838383818110611a2757611a2661415a565b5b9050602002016020810190611a3c91906143fe565b61ffff16612c81565b611a84576040517f08c379a0000000000000000000000000000000000000000000000000000000008152600401611a7b9061472c565b60405180910390fd5b611ab8838383818110611a9a57611a9961415a565b5b9050602002016020810190611aaf91906143fe565b61ffff166122f9565b15611c3757609c60008573ffffffffffffffffffffffffffffffffffffffff1673ffffffffffffffffffffffffffffffffffffffff168152602001908152602001600020838383818110611b0f57611b0e61415a565b5b9050602002016020810190611b2491906143fe565b908060018154018082558091505060019003906000526020600020016000909161ffff169091909150556000611ba3611b5b612188565b609c60008873ffffffffffffffffffffffffffffffffffffffff1673ffffffffffffffffffffffffffffffffffffffff168152602001908152602001600020805490506123d8565b90506000811215611be9576040517f08c379a0000000000000000000000000000000000000000000000000000000008152600401611be090614798565b60405180910390fd5b6000811415611bfc57611bfb85612c8c565b5b611c3185858585818110611c1357611c1261415a565b5b9050602002016020810190611c2891906143fe565b61ffff16612c8f565b50611c6d565b611c6c84848484818110611c4e57611c4d61415a565b5b9050602002016020810190611c6391906143fe565b61ffff16612e4e565b5b609860009054906101000a900473ffffffffffffffffffffffffffffffffffffffff1673ffffffffffffffffffffffffffffffffffffffff16611cae612188565b73ffffffffffffffffffffffffffffffffffffffff1614611d8957609860009054906101000a900473ffffffffffffffffffffffffffffffffffffffff1673ffffffffffffffffffffffffffffffffffffffff166323b872dd611d0f612188565b30868686818110611d2357611d2261415a565b5b9050602002016020810190611d3891906143fe565b6040518463ffffffff1660e01b8152600401611d56939291906147b8565b600060405180830381600087803b158015611d7057600080fd5b505af1158015611d84573d6000803e3d6000fd5b505050505b5b8080611d959061421b565b915050611839565b50505050565b611dab612188565b73ffffffffffffffffffffffffffffffffffffffff16611dc9610c1c565b73ffffffffffffffffffffffffffffffffffffffff1614611e1f576040517f08c379a0000000000000000000000000000000000000000000000000000000008152600401611e1690613fcd565b60405180910390fd5b8560a1819055508460a28190555083609e60016101000a81548160ff021916908360000b60ff16021790555082609e60036101000a81548160ff021916908360000b60ff1602179055508160a460006101000a81548160ff021916908360ff1602179055508060a581905550505050505050565b609f5481565b611ea1612188565b73ffffffffffffffffffffffffffffffffffffffff16611ebf610c1c565b73ffffffffffffffffffffffffffffffffffffffff1614611f15576040517f08c379a0000000000000000000000000000000000000000000000000000000008152600401611f0c90613fcd565b60405180910390fd5b600073ffffffffffffffffffffffffffffffffffffffff168173ffffffffffffffffffffffffffffffffffffffff161415611f85576040517f08c379a0000000000000000000000000000000000000000000000000000000008152600401611f7c90614861565b60405180910390fd5b611f8e81612190565b50565b6000611f9c30613011565b15905090565b600060019054906101000a900460ff16611ff1576040517f08c379a0000000000000000000000000000000000000000000000000000000008152600401611fe8906148f3565b60405180910390fd5b611ff9613034565b565b600060019054906101000a900460ff1661204a576040517f08c379a0000000000000000000000000000000000000000000000000000000008152600401612041906148f3565b60405180910390fd5b612052613095565b565b609760009054906101000a900473ffffffffffffffffffffffffffffffffffffffff1673ffffffffffffffffffffffffffffffffffffffff163373ffffffffffffffffffffffffffffffffffffffff16146120e4576040517f08c379a00000000000000000000000000000000000000000000000000000000081526004016120db9061495f565b60405180910390fd5b565b6120ee610a38565b61212d576040517f08c379a0000000000000000000000000000000000000000000000000000000008152600401612124906149cb565b60405180910390fd5b6000603360006101000a81548160ff0219169083151502179055507f5db9ee0a495bf2e6ff9c91a7834c1ba4fdd244a5e8aa4e537bd38aeae4b073aa612171612188565b60405161217e91906138e3565b60405180910390a1565b600033905090565b6000606560009054906101000a900473ffffffffffffffffffffffffffffffffffffffff16905081606560006101000a81548173ffffffffffffffffffffffffffffffffffffffff021916908373ffffffffffffffffffffffffffffffffffffffff1602179055508173ffffffffffffffffffffffffffffffffffffffff168173ffffffffffffffffffffffffffffffffffffffff167f8be0079c531659141344cd1fd0a4f28419497f9722a3daafe3b4186f6b6457e060405160405180910390a35050565b61225e610a38565b1561229e576040517f08c379a000000000000000000000000000000000000000000000000000000000815260040161229590614039565b60405180910390fd5b6001603360006101000a81548160ff0219169083151502179055507f62e78cea01bee320cd4e420270b5ea74000d11b0c9f74754ebdbfc544b05a2586122e2612188565b6040516122ef91906138e3565b60405180910390a1565b6000609860009054906101000a900473ffffffffffffffffffffffffffffffffffffffff1673ffffffffffffffffffffffffffffffffffffffff1663e05c57bf836040518263ffffffff1660e01b8152600401612356919061377f565b61016060405180830381865afa158015612374573d6000803e3d6000fd5b505050506040513d601f19601f820116820180604052508101906123989190614a2a565b9091929394959697985090919293949596975090919293949596509091929394955090919293945090919293509091925090915090505080915050919050565b60006002905092915050565b50565b600080609a6000888152602001908152602001600020604051806080016040529081600082015481526020016001820160009054906101000a900473ffffffffffffffffffffffffffffffffffffffff1673ffffffffffffffffffffffffffffffffffffffff1673ffffffffffffffffffffffffffffffffffffffff1681526020016001820160149054906101000a900469ffffffffffffffffffff1669ffffffffffffffffffff1669ffffffffffffffffffff1681526020016002820160009054906101000a900469ffffffffffffffffffff1669ffffffffffffffffffff1669ffffffffffffffffffff168152505090508573ffffffffffffffffffffffffffffffffffffffff16816020015173ffffffffffffffffffffffffffffffffffffffff161461254c576040517f08c379a000000000000000000000000000000000000000000000000000000000815260040161254390614477565b60405180910390fd5b8361255f5761255a81613101565b612562565b60005b915060008060006125738a87613108565b9250925092506125828a612c81565b61258b57600197505b87156126be57609a60008b81526020019081526020016000206000808201600090556001820160006101000a81549073ffffffffffffffffffffffffffffffffffffffff02191690556001820160146101000a81549069ffffffffffffffffffff02191690556002820160006101000a81549069ffffffffffffffffffff02191690555050609f600081548092919061262390614b1e565b9190505550609860009054906101000a900473ffffffffffffffffffffffffffffffffffffffff1673ffffffffffffffffffffffffffffffffffffffff1663b88d4fde308b8d6040518463ffffffff1660e01b815260040161268793929190614b7f565b600060405180830381600087803b1580156126a157600080fd5b505af11580156126b5573d6000803e3d6000fd5b505050506127df565b60405180608001604052808b61ffff1681526020018a73ffffffffffffffffffffffffffffffffffffffff1681526020014269ffffffffffffffffffff1681526020014269ffffffffffffffffffff16815250609a60008c81526020019081526020016000206000820151816000015560208201518160010160006101000a81548173ffffffffffffffffffffffffffffffffffffffff021916908373ffffffffffffffffffffffffffffffffffffffff16021790555060408201518160010160146101000a81548169ffffffffffffffffffff021916908369ffffffffffffffffffff16021790555060608201518160020160006101000a81548169ffffffffffffffffffff021916908369ffffffffffffffffffff1602179055509050505b7f9b394c66bc4fdb2f56f5842a796076e6552d6f15eaacb6e63e3c53b474d872e98a868a86868660a35460405161281c9796959493929190614c4f565b60405180910390a15050505095945050505050565b600080609b6000888152602001908152602001600020604051806080016040529081600082015481526020016001820160009054906101000a900473ffffffffffffffffffffffffffffffffffffffff1673ffffffffffffffffffffffffffffffffffffffff1673ffffffffffffffffffffffffffffffffffffffff1681526020016001820160149054906101000a900469ffffffffffffffffffff1669ffffffffffffffffffff1669ffffffffffffffffffff1681526020016002820160009054906101000a900469ffffffffffffffffffff1669ffffffffffffffffffff1669ffffffffffffffffffff168152505090508573ffffffffffffffffffffffffffffffffffffffff16816020015173ffffffffffffffffffffffffffffffffffffffff1614612996576040517f08c379a000000000000000000000000000000000000000000000000000000000815260040161298d90614477565b60405180910390fd5b836129a9576129a481613376565b6129ac565b60005b915060008060006129bd8a87613108565b9250925092506129cc8a612c81565b6129d557600197505b8715612b0857609b60008b81526020019081526020016000206000808201600090556001820160006101000a81549073ffffffffffffffffffffffffffffffffffffffff02191690556001820160146101000a81549069ffffffffffffffffffff02191690556002820160006101000a81549069ffffffffffffffffffff0219169055505060a06000815480929190612a6d90614b1e565b9190505550609860009054906101000a900473ffffffffffffffffffffffffffffffffffffffff1673ffffffffffffffffffffffffffffffffffffffff1663b88d4fde308b8d6040518463ffffffff1660e01b8152600401612ad193929190614b7f565b600060405180830381600087803b158015612aeb57600080fd5b505af1158015612aff573d6000803e3d6000fd5b50505050612c2b565b60405180608001604052808b61ffff1681526020018a73ffffffffffffffffffffffffffffffffffffffff16815260200160a35469ffffffffffffffffffff1681526020014269ffffffffffffffffffff16815250609b60008c81526020019081526020016000206000820151816000015560208201518160010160006101000a81548173ffffffffffffffffffffffffffffffffffffffff021916908373ffffffffffffffffffffffffffffffffffffffff16021790555060408201518160010160146101000a81548169ffffffffffffffffffff021916908369ffffffffffffffffffff16021790555060608201518160020160006101000a81548169ffffffffffffffffffff021916908369ffffffffffffffffffff1602179055509050505b7f9be2cb7a62ca4aefdc81da57f848805cc67c86675da32b5a7be58bb615ba4f328a868a86868660a354604051612c689796959493929190614c4f565b60405180910390a15050505095945050505050565b5050565b600060019050919050565b50565b612c97610a38565b15612cd7576040517f08c379a0000000000000000000000000000000000000000000000000000000008152600401612cce90614039565b60405180910390fd5b60405180608001604052808261ffff1681526020018373ffffffffffffffffffffffffffffffffffffffff1681526020014269ffffffffffffffffffff1681526020014269ffffffffffffffffffff16815250609a60008381526020019081526020016000206000820151816000015560208201518160010160006101000a81548173ffffffffffffffffffffffffffffffffffffffff021916908373ffffffffffffffffffffffffffffffffffffffff16021790555060408201518160010160146101000a81548169ffffffffffffffffffff021916908369ffffffffffffffffffff16021790555060608201518160020160006101000a81548169ffffffffffffffffffff021916908369ffffffffffffffffffff160217905550905050609f6000815480929190612e0a9061421b565b91905055507f8af1bb49fb16c7835975aa59449ba4328dd54737dfb2ae9fa6c5eca71fda51f9818342604051612e4293929190614cc5565b60405180910390a15050565b612e56610a38565b15612e96576040517f08c379a0000000000000000000000000000000000000000000000000000000008152600401612e8d90614039565b60405180910390fd5b60405180608001604052808261ffff1681526020018373ffffffffffffffffffffffffffffffffffffffff16815260200160a35469ffffffffffffffffffff1681526020014269ffffffffffffffffffff16815250609b60008381526020019081526020016000206000820151816000015560208201518160010160006101000a81548173ffffffffffffffffffffffffffffffffffffffff021916908373ffffffffffffffffffffffffffffffffffffffff16021790555060408201518160010160146101000a81548169ffffffffffffffffffff021916908369ffffffffffffffffffff16021790555060608201518160020160006101000a81548169ffffffffffffffffffff021916908369ffffffffffffffffffff16021790555090505060a06000815480929190612fcb9061421b565b91905055507f8af1bb49fb16c7835975aa59449ba4328dd54737dfb2ae9fa6c5eca71fda51f9818360a35460405161300593929190614cc5565b60405180910390a15050565b6000808273ffffffffffffffffffffffffffffffffffffffff163b119050919050565b600060019054906101000a900460ff16613083576040517f08c379a000000000000000000000000000000000000000000000000000000000815260040161307a906148f3565b60405180910390fd5b61309361308e612188565b612190565b565b600060019054906101000a900460ff166130e4576040517f08c379a00000000000000000000000000000000000000000000000000000000081526004016130db906148f3565b60405180910390fd5b6000603360006101000a81548160ff021916908315150217905550565b6000919050565b6000806060600080609860009054906101000a900473ffffffffffffffffffffffffffffffffffffffff1673ffffffffffffffffffffffffffffffffffffffff1663e05c57bf886040518263ffffffff1660e01b815260040161316b919061377f565b61016060405180830381865afa158015613189573d6000803e3d6000fd5b505050506040513d601f19601f820116820180604052508101906131ad9190614a2a565b9a5050505050505050505091506000826131f357609b600089815260200190815260200160002060020160009054906101000a900469ffffffffffffffffffff16613221565b609a600089815260200190815260200160002060020160009054906101000a900469ffffffffffffffffffff165b69ffffffffffffffffffff164261323891906141b8565b9050609860009054906101000a900473ffffffffffffffffffffffffffffffffffffffff1673ffffffffffffffffffffffffffffffffffffffff166363dbfc77896132ae8661329657609e60029054906101000a900460000b6132a7565b609e60009054906101000a900460000b5b858761337d565b6132e4876132cb57609e60039054906101000a900460000b6132dc565b609e60019054906101000a900460000b5b86600061337d565b6132ec61343a565b6132f75760006132f9565b8b5b6040518563ffffffff1660e01b81526004016133189493929190614d0b565b6000604051808303816000875af1158015613337573d6000803e3d6000fd5b505050506040513d6000823e3d601f19601f820116820180604052508101906133609190614df6565b8096508197508298505050505050509250925092565b6000919050565b600060a25483111561338f5760a25492505b600060a2548560000b856133a39190614e6f565b6133ad9190614fb5565b905060a25484106133ca578260000b816133c7919061501f565b90505b60648113156133dd576064915050613433565b7fffffffffffffffffffffffffffffffffffffffffffffffffffffffffffffff9c81121561342e577fffffffffffffffffffffffffffffffffffffffffffffffffffffffffffffff9c915050613433565b809150505b9392505050565b600090565b50805460008255600f0160109004906000526020600020908101906134649190613515565b50565b82805482825590600052602060002090600f016010900481019282156135045791602002820160005b838211156134d457833561ffff1683826101000a81548161ffff021916908361ffff1602179055509260200192600201602081600101049283019260010302613490565b80156135025782816101000a81549061ffff02191690556002016020816001010492830192600103026134d4565b505b5090506135119190613515565b5090565b5b8082111561352e576000816000905550600101613516565b5090565b6000604051905090565b600080fd5b600080fd5b600073ffffffffffffffffffffffffffffffffffffffff82169050919050565b600061357182613546565b9050919050565b61358181613566565b811461358c57600080fd5b50565b60008135905061359e81613578565b92915050565b6000819050919050565b6135b7816135a4565b81146135c257600080fd5b50565b6000813590506135d4816135ae565b92915050565b600080fd5b600080fd5b600080fd5b60008083601f8401126135ff576135fe6135da565b5b8235905067ffffffffffffffff81111561361c5761361b6135df565b5b602083019150836001820283011115613638576136376135e4565b5b9250929050565b60008060008060006080868803121561365b5761365a61353c565b5b60006136698882890161358f565b955050602061367a8882890161358f565b945050604061368b888289016135c5565b935050606086013567ffffffffffffffff8111156136ac576136ab613541565b5b6136b8888289016135e9565b92509250509295509295909350565b60007fffffffff0000000000000000000000000000000000000000000000000000000082169050919050565b6136fc816136c7565b82525050565b600060208201905061371760008301846136f3565b92915050565b6000806000606084860312156137365761373561353c565b5b60006137448682870161358f565b93505060206137558682870161358f565b9250506040613766868287016135c5565b9150509250925092565b613779816135a4565b82525050565b60006020820190506137946000830184613770565b92915050565b6000602082840312156137b0576137af61353c565b5b60006137be848285016135c5565b91505092915050565b6137d081613566565b82525050565b600069ffffffffffffffffffff82169050919050565b6137f5816137d6565b82525050565b60006080820190506138106000830187613770565b61381d60208301866137c7565b61382a60408301856137ec565b61383760608301846137ec565b95945050505050565b600080604083850312156138575761385661353c565b5b60006138658582860161358f565b92505060206138768582860161358f565b9150509250929050565b6000602082840312156138965761389561353c565b5b60006138a48482850161358f565b91505092915050565b60008115159050919050565b6138c2816138ad565b82525050565b60006020820190506138dd60008301846138b9565b92915050565b60006020820190506138f860008301846137c7565b92915050565b600080fd5b6000601f19601f8301169050919050565b7f4e487b7100000000000000000000000000000000000000000000000000000000600052604160045260246000fd5b61394c82613903565b810181811067ffffffffffffffff8211171561396b5761396a613914565b5b80604052505050565b600061397e613532565b905061398a8282613943565b919050565b600080fd5b6000819050919050565b6139a781613994565b81146139b257600080fd5b50565b6000813590506139c48161399e565b92915050565b600067ffffffffffffffff8211156139e5576139e4613914565b5b602082029050602081019050919050565b600061ffff82169050919050565b613a0d816139f6565b8114613a1857600080fd5b50565b600081359050613a2a81613a04565b92915050565b6000613a43613a3e846139ca565b613974565b90508083825260208201905060208402830185811115613a6657613a656135e4565b5b835b81811015613a8f5780613a7b8882613a1b565b845260208401935050602081019050613a68565b5050509392505050565b600082601f830112613aae57613aad6135da565b5b8135613abe848260208601613a30565b91505092915050565b613ad0816138ad565b8114613adb57600080fd5b50565b600081359050613aed81613ac7565b92915050565b600060a08284031215613b0957613b086138fe565b5b613b1360a0613974565b90506000613b23848285016139b5565b6000830152506020613b378482850161358f565b6020830152506040613b4b8482850161358f565b604083015250606082013567ffffffffffffffff811115613b6f57613b6e61398f565b5b613b7b84828501613a99565b6060830152506080613b8f84828501613ade565b60808301525092915050565b60008060408385031215613bb257613bb161353c565b5b600083013567ffffffffffffffff811115613bd057613bcf613541565b5b613bdc85828601613af3565b9250506020613bed858286016135c5565b9150509250929050565b60008083601f840112613c0d57613c0c6135da565b5b8235905067ffffffffffffffff811115613c2a57613c296135df565b5b602083019150836020820283011115613c4657613c456135e4565b5b9250929050565b600080600060408486031215613c6657613c6561353c565b5b600084013567ffffffffffffffff811115613c8457613c83613541565b5b613c9086828701613bf7565b93509350506020613ca386828701613ade565b9150509250925092565b60008060408385031215613cc457613cc361353c565b5b6000613cd28582860161358f565b9250506020613ce3858286016135c5565b9150509250929050565b600080600060408486031215613d0657613d0561353c565b5b6000613d148682870161358f565b935050602084013567ffffffffffffffff811115613d3557613d34613541565b5b613d4186828701613bf7565b92509250509250925092565b60008160000b9050919050565b613d6381613d4d565b8114613d6e57600080fd5b50565b600081359050613d8081613d5a565b92915050565b600060ff82169050919050565b613d9c81613d86565b8114613da757600080fd5b50565b600081359050613db981613d93565b92915050565b60008060008060008060c08789031215613ddc57613ddb61353c565b5b6000613dea89828a016135c5565b9650506020613dfb89828a016135c5565b9550506040613e0c89828a01613d71565b9450506060613e1d89828a01613d71565b9350506080613e2e89828a01613daa565b92505060a0613e3f89828a016135c5565b9150509295509295509295565b600082825260208201905092915050565b7f43616e6e6f742073656e6420746f6b656e7320746f2056656e7565206469726560008201527f63746c7900000000000000000000000000000000000000000000000000000000602082015250565b6000613eb9602483613e4c565b9150613ec482613e5d565b604082019050919050565b60006020820190508181036000830152613ee881613eac565b9050919050565b7f496e697469616c697a61626c653a20636f6e747261637420697320616c72656160008201527f647920696e697469616c697a6564000000000000000000000000000000000000602082015250565b6000613f4b602e83613e4c565b9150613f5682613eef565b604082019050919050565b60006020820190508181036000830152613f7a81613f3e565b9050919050565b7f4f776e61626c653a2063616c6c6572206973206e6f7420746865206f776e6572600082015250565b6000613fb7602083613e4c565b9150613fc282613f81565b602082019050919050565b60006020820190508181036000830152613fe681613faa565b9050919050565b7f5061757361626c653a2070617573656400000000000000000000000000000000600082015250565b6000614023601083613e4c565b915061402e82613fed565b602082019050919050565b6000602082019050818103600083015261405281614016565b9050919050565b7f4f6e6c7920436c61696d2063616e2066756c66696c6c00000000000000000000600082015250565b600061408f601683613e4c565b915061409a82614059565b602082019050919050565b600060208201905081810360008301526140be81614082565b9050919050565b7f436c61696d2072657175657374206e6f7420666f756e64000000000000000000600082015250565b60006140fb601783613e4c565b9150614106826140c5565b602082019050919050565b6000602082019050818103600083015261412a816140ee565b9050919050565b60006040820190506141466000830185613770565b6141536020830184613770565b9392505050565b7f4e487b7100000000000000000000000000000000000000000000000000000000600052603260045260246000fd5b7f4e487b7100000000000000000000000000000000000000000000000000000000600052601160045260246000fd5b60006141c3826135a4565b91506141ce836135a4565b9250828210156141e1576141e0614189565b5b828203905092915050565b7f4e487b7100000000000000000000000000000000000000000000000000000000600052603160045260246000fd5b6000614226826135a4565b91507fffffffffffffffffffffffffffffffffffffffffffffffffffffffffffffffff82141561425957614258614189565b5b600182019050919050565b600061426f826135a4565b915061427a836135a4565b9250827fffffffffffffffffffffffffffffffffffffffffffffffffffffffffffffffff038211156142af576142ae614189565b5b828201905092915050565b7f454f41206f6e6c79000000000000000000000000000000000000000000000000600082015250565b60006142f0600883613e4c565b91506142fb826142ba565b602082019050919050565b6000602082019050818103600083015261431f816142e3565b9050919050565b7f496e76616c696420636c61696d20616d6f756e74000000000000000000000000600082015250565b600061435c601483613e4c565b915061436782614326565b602082019050919050565b6000602082019050818103600083015261438b8161434f565b9050919050565b7f496e76616c696420636c61696d20666565000000000000000000000000000000600082015250565b60006143c8601183613e4c565b91506143d382614392565b602082019050919050565b600060208201905081810360008301526143f7816143bb565b9050919050565b6000602082840312156144145761441361353c565b5b600061442284828501613a1b565b91505092915050565b7f4e6f7420796f757220746f6b656e000000000000000000000000000000000000600082015250565b6000614461600e83613e4c565b915061446c8261442b565b602082019050919050565b6000602082019050818103600083015261449081614454565b9050919050565b7f43616e6e6f7420636c61696d206265666f726520454f42000000000000000000600082015250565b60006144cd601783613e4c565b91506144d882614497565b602082019050919050565b600060208201905081810360008301526144fc816144c0565b9050919050565b600082825260208201905092915050565b6000819050919050565b614527816139f6565b82525050565b6000614539838361451e565b60208301905092915050565b60006145546020840184613a1b565b905092915050565b6000602082019050919050565b60006145758385614503565b935061458082614514565b8060005b858110156145b9576145968284614545565b6145a0888261452d565b97506145ab8361455c565b925050600181019050614584565b5085925050509392505050565b60006060820190506145db60008301876137c7565b81810360208301526145ee818587614569565b90506145fd60408301846138b9565b95945050505050565b6000815190506146158161399e565b92915050565b6000602082840312156146315761463061353c565b5b600061463f84828501614606565b91505092915050565b6000819050919050565b600061466d614668614663846139f6565b614648565b6135a4565b9050919050565b61467d81614652565b82525050565b60006020820190506146986000830184614674565b92915050565b6000815190506146ad81613578565b92915050565b6000602082840312156146c9576146c861353c565b5b60006146d78482850161469e565b91505092915050565b7f4e6f7420656c696769626c650000000000000000000000000000000000000000600082015250565b6000614716600c83613e4c565b9150614721826146e0565b602082019050919050565b6000602082019050818103600083015261474581614709565b9050919050565b7f4b69746368656e20737061636520726571756972656400000000000000000000600082015250565b6000614782601683613e4c565b915061478d8261474c565b602082019050919050565b600060208201905081810360008301526147b181614775565b9050919050565b60006060820190506147cd60008301866137c7565b6147da60208301856137c7565b6147e76040830184614674565b949350505050565b7f4f776e61626c653a206e6577206f776e657220697320746865207a65726f206160008201527f6464726573730000000000000000000000000000000000000000000000000000602082015250565b600061484b602683613e4c565b9150614856826147ef565b604082019050919050565b6000602082019050818103600083015261487a8161483e565b9050919050565b7f496e697469616c697a61626c653a20636f6e7472616374206973206e6f74206960008201527f6e697469616c697a696e67000000000000000000000000000000000000000000602082015250565b60006148dd602b83613e4c565b91506148e882614881565b604082019050919050565b6000602082019050818103600083015261490c816148d0565b9050919050565b7f4f6e6c792044414f2063616e2065786563757465000000000000000000000000600082015250565b6000614949601483613e4c565b915061495482614913565b602082019050919050565b600060208201905081810360008301526149788161493c565b9050919050565b7f5061757361626c653a206e6f7420706175736564000000000000000000000000600082015250565b60006149b5601483613e4c565b91506149c08261497f565b602082019050919050565b600060208201905081810360008301526149e4816149a8565b9050919050565b6000815190506149fa81613ac7565b92915050565b600081519050614a0f81613d93565b92915050565b600081519050614a2481613d5a565b92915050565b60008060008060008060008060008060006101608c8e031215614a5057614a4f61353c565b5b6000614a5e8e828f016149eb565b9b50506020614a6f8e828f01614a00565b9a50506040614a808e828f01614a00565b9950506060614a918e828f01614a00565b9850506080614aa28e828f01614a00565b97505060a0614ab38e828f01614a00565b96505060c0614ac48e828f01614a00565b95505060e0614ad58e828f01614a00565b945050610100614ae78e828f01614a00565b935050610120614af98e828f01614a00565b925050610140614b0b8e828f01614a15565b9150509295989b509295989b9093969950565b6000614b29826135a4565b91506000821415614b3d57614b3c614189565b5b600182039050919050565b600082825260208201905092915050565b50565b6000614b69600083614b48565b9150614b7482614b59565b600082019050919050565b6000608082019050614b9460008301866137c7565b614ba160208301856137c7565b614bae6040830184613770565b8181036060830152614bbf81614b5c565b9050949350505050565b614bd281613d86565b82525050565b600081519050919050565b60005b83811015614c01578082015181840152602081019050614be6565b83811115614c10576000848401525b50505050565b6000614c2182614bd8565b614c2b8185613e4c565b9350614c3b818560208601614be3565b614c4481613903565b840191505092915050565b600060e082019050614c64600083018a613770565b614c716020830189613770565b614c7e60408301886138b9565b614c8b6060830187614bc9565b614c986080830186614bc9565b81810360a0830152614caa8185614c16565b9050614cb960c0830184613770565b98975050505050505050565b6000606082019050614cda6000830186613770565b614ce760208301856137c7565b614cf46040830184613770565b949350505050565b614d0581613d4d565b82525050565b6000608082019050614d206000830187613770565b614d2d6020830186614cfc565b614d3a6040830185614cfc565b614d476060830184613770565b95945050505050565b600080fd5b600067ffffffffffffffff821115614d7057614d6f613914565b5b614d7982613903565b9050602081019050919050565b6000614d99614d9484614d55565b613974565b905082815260208101848484011115614db557614db4614d50565b5b614dc0848285614be3565b509392505050565b600082601f830112614ddd57614ddc6135da565b5b8151614ded848260208601614d86565b91505092915050565b600080600060608486031215614e0f57614e0e61353c565b5b6000614e1d86828701614a00565b9350506020614e2e86828701614a00565b925050604084015167ffffffffffffffff811115614e4f57614e4e613541565b5b614e5b86828701614dc8565b9150509250925092565b6000819050919050565b6000614e7a82614e65565b9150614e8583614e65565b9250827f7fffffffffffffffffffffffffffffffffffffffffffffffffffffffffffffff0482116000841360008413161615614ec457614ec3614189565b5b817f80000000000000000000000000000000000000000000000000000000000000000583126000841260008413161615614f0157614f00614189565b5b827f80000000000000000000000000000000000000000000000000000000000000000582126000841360008412161615614f3e57614f3d614189565b5b827f7fffffffffffffffffffffffffffffffffffffffffffffffffffffffffffffff0582126000841260008412161615614f7b57614f7a614189565b5b828202905092915050565b7f4e487b7100000000000000000000000000000000000000000000000000000000600052601260045260246000fd5b6000614fc082614e65565b9150614fcb83614e65565b925082614fdb57614fda614f86565b5b600160000383147f80000000000000000000000000000000000000000000000000000000000000008314161561501457615013614189565b5b828205905092915050565b600061502a82614e65565b915061503583614e65565b9250817f7fffffffffffffffffffffffffffffffffffffffffffffffffffffffffffffff038313600083121516156150705761506f614189565b5b817f80000000000000000000000000000000000000000000000000000000000000000383126000831216156150a8576150a7614189565b5b82820190509291505056fea264697066735822122014d77b731791e4973b389a8da999cafbfa9fe7d51a58227fcfb5fcc69ee2c4b464736f6c634300080a0033",
  "immutableReferences": {},
  "source": "// SPDX-License-Identifier: MIT\n\npragma solidity ^0.8.0;\n\nimport \"./Venue.sol\";\n\ncontract Gym is Venue {\n  function initialize(\n    address _character,\n    address _claim\n  ) external initializer {\n    __Ownable_init();\n    __Pausable_init();\n\n    character = Character(_character);\n    claim = IClaim(_claim);\n  }\n\n  /**\n   * Allows DAO to update game parameters\n   */\n  function configure(\n    uint256 _vestingPeriod,\n    uint256 _accrualPeriod,\n    int8 _dailyFreakRate,\n    int8 _dailyBodyMassRate,\n    uint8 _maxClaimsPerTx,\n    uint256 _claimFee\n  ) external onlyOwner {\n    vestingPeriod = _vestingPeriod;\n    accrualPeriod = _accrualPeriod;\n    dailyFreakRate = _dailyFreakRate;\n    dailyBodyMassRate = _dailyBodyMassRate;\n    maxClaimsPerTx = _maxClaimsPerTx;\n    claimFee = _claimFee;\n  }\n}\n",
  "sourcePath": "/Users/chris/workspace/ratalert/ratalert-contracts/contracts/Gym.sol",
  "compiler": {
    "name": "solc",
    "version": "0.8.10+commit.fc410830.Emscripten.clang"
  },
  "schemaVersion": "3.4.7",
  "updatedAt": "2022-08-07T04:51:44.494Z",
  "devdoc": {
    "kind": "dev",
    "methods": {
      "claimMany(uint16[],bool)": {
        "params": {
          "tokenIds": "- The IDs of the tokens in question",
          "unstake": "- Whether or not to unstake the given tokens"
        }
      },
      "fulfillClaimMany((bytes32,address,address,uint16[],bool),uint256)": {
        "params": {
          "randomness": "- Random value created by VRF",
          "v": "- VRF struct for the corresponding request"
        }
      },
      "getChefsStaked(address)": {
        "params": {
          "account": "- User wallet address"
        },
        "returns": {
          "_0": "Number of chefs in staking"
        }
      },
      "owner()": {
        "details": "Returns the address of the current owner."
      },
      "paused()": {
        "details": "Returns true if the contract is paused, and false otherwise."
      },
      "renounceOwnership()": {
        "details": "Leaves the contract without owner. It will not be possible to call `onlyOwner` functions anymore. Can only be called by the current owner. NOTE: Renouncing ownership will leave the contract without an owner, thereby removing any functionality that is only available to the owner."
      },
      "stakeMany(address,uint16[])": {
        "params": {
          "account": "- User wallet address",
          "tokenIds": "- The IDs of the Chefs & Rats to stake"
        }
      },
      "transferOwnership(address)": {
        "details": "Transfers ownership of the contract to a new account (`newOwner`). Can only be called by the current owner."
      }
    },
    "version": 1
  },
  "userdoc": {
    "kind": "user",
    "methods": {
      "claimMany(uint16[],bool)": {
        "notice": "ChainLink VRF request: Claims food token earnings, level-ups and optionally unstake characters"
      },
      "configure(uint256,uint256,int8,int8,uint8,uint256)": {
        "notice": "Allows DAO to update game parameters"
      },
      "fulfillClaimMany((bytes32,address,address,uint16[],bool),uint256)": {
        "notice": "Callback for claimMany(), called by Claim.fulfillRandomness()"
      },
      "getChefsStaked(address)": {
        "notice": "Get the amount of chefs the given account has in staking"
      },
      "onERC721Received(address,address,uint256,bytes)": {
        "notice": "IERC721ReceiverUpgradeable interface: We do not accept tokens sent directly"
      },
      "stakeMany(address,uint16[])": {
        "notice": "Adds Characters to staking"
      },
      "withdrawPayments()": {
        "notice": "Allows DAO to withdraw funds"
      }
    },
    "version": 1
  }
}