{
  "contractName": "Gym",
  "abi": [
    {
      "anonymous": false,
      "inputs": [
        {
          "indexed": false,
          "internalType": "uint256",
          "name": "tokenId",
          "type": "uint256"
        },
        {
          "indexed": false,
          "internalType": "uint256",
          "name": "earned",
          "type": "uint256"
        },
        {
          "indexed": false,
          "internalType": "bool",
          "name": "unstaked",
          "type": "bool"
        },
        {
          "indexed": false,
          "internalType": "uint8",
          "name": "skill",
          "type": "uint8"
        },
        {
          "indexed": false,
          "internalType": "uint8",
          "name": "insanity",
          "type": "uint8"
        },
        {
          "indexed": false,
          "internalType": "string",
          "name": "eventName",
          "type": "string"
        },
        {
          "indexed": false,
          "internalType": "uint256",
          "name": "foodTokensPerRat",
          "type": "uint256"
        }
      ],
      "name": "ChefClaimed",
      "type": "event"
    },
    {
      "anonymous": false,
      "inputs": [
        {
          "indexed": true,
          "internalType": "address",
          "name": "previousOwner",
          "type": "address"
        },
        {
          "indexed": true,
          "internalType": "address",
          "name": "newOwner",
          "type": "address"
        }
      ],
      "name": "OwnershipTransferred",
      "type": "event"
    },
    {
      "anonymous": false,
      "inputs": [
        {
          "indexed": false,
          "internalType": "address",
          "name": "account",
          "type": "address"
        }
      ],
      "name": "Paused",
      "type": "event"
    },
    {
      "anonymous": false,
      "inputs": [
        {
          "indexed": false,
          "internalType": "uint256",
          "name": "tokenId",
          "type": "uint256"
        },
        {
          "indexed": false,
          "internalType": "uint256",
          "name": "earned",
          "type": "uint256"
        },
        {
          "indexed": false,
          "internalType": "bool",
          "name": "unstaked",
          "type": "bool"
        },
        {
          "indexed": false,
          "internalType": "uint8",
          "name": "intelligence",
          "type": "uint8"
        },
        {
          "indexed": false,
          "internalType": "uint8",
          "name": "fatness",
          "type": "uint8"
        },
        {
          "indexed": false,
          "internalType": "string",
          "name": "eventName",
          "type": "string"
        }
      ],
      "name": "RatClaimed",
      "type": "event"
    },
    {
      "anonymous": false,
      "inputs": [
        {
          "indexed": false,
          "internalType": "uint256",
          "name": "tokenId",
          "type": "uint256"
        },
        {
          "indexed": false,
          "internalType": "address",
          "name": "owner",
          "type": "address"
        },
        {
          "indexed": false,
          "internalType": "uint256",
          "name": "value",
          "type": "uint256"
        }
      ],
      "name": "TokenStaked",
      "type": "event"
    },
    {
      "anonymous": false,
      "inputs": [
        {
          "indexed": false,
          "internalType": "address",
          "name": "account",
          "type": "address"
        }
      ],
      "name": "Unpaused",
      "type": "event"
    },
    {
      "inputs": [],
      "name": "accrualPeriod",
      "outputs": [
        {
          "internalType": "uint256",
          "name": "",
          "type": "uint256"
        }
      ],
      "stateMutability": "view",
      "type": "function",
      "constant": true
    },
    {
      "inputs": [
        {
          "internalType": "uint256",
          "name": "",
          "type": "uint256"
        }
      ],
      "name": "chefs",
      "outputs": [
        {
          "internalType": "uint256",
          "name": "tokenId",
          "type": "uint256"
        },
        {
          "internalType": "address",
          "name": "owner",
          "type": "address"
        },
        {
          "internalType": "uint80",
          "name": "value",
          "type": "uint80"
        },
        {
          "internalType": "uint80",
          "name": "timestamp",
          "type": "uint80"
        }
      ],
      "stateMutability": "view",
      "type": "function",
      "constant": true
    },
    {
      "inputs": [],
      "name": "claim",
      "outputs": [
        {
          "internalType": "contract IClaim",
          "name": "",
          "type": "address"
        }
      ],
      "stateMutability": "view",
      "type": "function",
      "constant": true
    },
    {
      "inputs": [
        {
          "internalType": "uint16[]",
          "name": "tokenIds",
          "type": "uint16[]"
        },
        {
          "internalType": "bool",
          "name": "unstake",
          "type": "bool"
        }
      ],
      "name": "claimMany",
      "outputs": [],
      "stateMutability": "nonpayable",
      "type": "function"
    },
    {
      "inputs": [
        {
          "internalType": "bytes32",
          "name": "",
          "type": "bytes32"
        },
        {
          "internalType": "uint256",
          "name": "",
          "type": "uint256"
        }
      ],
      "name": "claimRequests",
      "outputs": [
        {
          "internalType": "uint16",
          "name": "",
          "type": "uint16"
        }
      ],
      "stateMutability": "view",
      "type": "function",
      "constant": true
    },
    {
      "inputs": [],
      "name": "dailyFatnessRate",
      "outputs": [
        {
          "internalType": "int8",
          "name": "",
          "type": "int8"
        }
      ],
      "stateMutability": "view",
      "type": "function",
      "constant": true
    },
    {
      "inputs": [],
      "name": "dailyInsanityRate",
      "outputs": [
        {
          "internalType": "int8",
          "name": "",
          "type": "int8"
        }
      ],
      "stateMutability": "view",
      "type": "function",
      "constant": true
    },
    {
      "inputs": [],
      "name": "dailyIntelligenceRate",
      "outputs": [
        {
          "internalType": "int8",
          "name": "",
          "type": "int8"
        }
      ],
      "stateMutability": "view",
      "type": "function",
      "constant": true
    },
    {
      "inputs": [],
      "name": "dailySkillRate",
      "outputs": [
        {
          "internalType": "int8",
          "name": "",
          "type": "int8"
        }
      ],
      "stateMutability": "view",
      "type": "function",
      "constant": true
    },
    {
      "inputs": [],
      "name": "foodTokensPerRat",
      "outputs": [
        {
          "internalType": "uint256",
          "name": "",
          "type": "uint256"
        }
      ],
      "stateMutability": "view",
      "type": "function",
      "constant": true
    },
    {
      "inputs": [
        {
          "components": [
            {
              "internalType": "bytes32",
              "name": "requestId",
              "type": "bytes32"
            },
            {
              "internalType": "address",
              "name": "venue",
              "type": "address"
            },
            {
              "internalType": "address",
              "name": "sender",
              "type": "address"
            },
            {
              "internalType": "uint16[]",
              "name": "tokenIds",
              "type": "uint16[]"
            },
            {
              "internalType": "bool",
              "name": "unstake",
              "type": "bool"
            }
          ],
          "internalType": "struct IClaim.VRFStruct",
          "name": "v",
          "type": "tuple"
        },
        {
          "internalType": "uint256",
          "name": "randomVal",
          "type": "uint256"
        }
      ],
      "name": "fulfillClaimMany",
      "outputs": [],
      "stateMutability": "nonpayable",
      "type": "function"
    },
    {
      "inputs": [
        {
          "internalType": "uint256",
          "name": "tokenId",
          "type": "uint256"
        }
      ],
      "name": "getProperties",
      "outputs": [
        {
          "internalType": "uint8",
          "name": "efficiency",
          "type": "uint8"
        },
        {
          "internalType": "uint8",
          "name": "tolerance",
          "type": "uint8"
        }
      ],
      "stateMutability": "view",
      "type": "function",
      "constant": true
    },
    {
      "inputs": [
        {
          "internalType": "uint256",
          "name": "tokenId",
          "type": "uint256"
        }
      ],
      "name": "isChef",
      "outputs": [
        {
          "internalType": "bool",
          "name": "chef",
          "type": "bool"
        }
      ],
      "stateMutability": "view",
      "type": "function",
      "constant": true
    },
    {
      "inputs": [
        {
          "internalType": "address",
          "name": "",
          "type": "address"
        },
        {
          "internalType": "address",
          "name": "from",
          "type": "address"
        },
        {
          "internalType": "uint256",
          "name": "",
          "type": "uint256"
        },
        {
          "internalType": "bytes",
          "name": "",
          "type": "bytes"
        }
      ],
      "name": "onERC721Received",
      "outputs": [
        {
          "internalType": "bytes4",
          "name": "",
          "type": "bytes4"
        }
      ],
      "stateMutability": "pure",
      "type": "function",
      "constant": true
    },
    {
      "inputs": [],
      "name": "owner",
      "outputs": [
        {
          "internalType": "address",
          "name": "",
          "type": "address"
        }
      ],
      "stateMutability": "view",
      "type": "function",
      "constant": true
    },
    {
      "inputs": [],
      "name": "paused",
      "outputs": [
        {
          "internalType": "bool",
          "name": "",
          "type": "bool"
        }
      ],
      "stateMutability": "view",
      "type": "function",
      "constant": true
    },
    {
      "inputs": [
        {
          "internalType": "uint256",
          "name": "",
          "type": "uint256"
        }
      ],
      "name": "rats",
      "outputs": [
        {
          "internalType": "uint256",
          "name": "tokenId",
          "type": "uint256"
        },
        {
          "internalType": "address",
          "name": "owner",
          "type": "address"
        },
        {
          "internalType": "uint80",
          "name": "value",
          "type": "uint80"
        },
        {
          "internalType": "uint80",
          "name": "timestamp",
          "type": "uint80"
        }
      ],
      "stateMutability": "view",
      "type": "function",
      "constant": true
    },
    {
      "inputs": [],
      "name": "renounceOwnership",
      "outputs": [],
      "stateMutability": "nonpayable",
      "type": "function"
    },
    {
      "inputs": [
        {
          "internalType": "address",
          "name": "account",
          "type": "address"
        },
        {
          "internalType": "uint16[]",
          "name": "tokenIds",
          "type": "uint16[]"
        }
      ],
      "name": "stakeMany",
      "outputs": [],
      "stateMutability": "nonpayable",
      "type": "function"
    },
    {
      "inputs": [
        {
          "internalType": "address",
          "name": "",
          "type": "address"
        },
        {
          "internalType": "uint256",
          "name": "",
          "type": "uint256"
        }
      ],
      "name": "stakers",
      "outputs": [
        {
          "internalType": "uint256",
          "name": "",
          "type": "uint256"
        }
      ],
      "stateMutability": "view",
      "type": "function",
      "constant": true
    },
    {
      "inputs": [],
      "name": "totalChefsStaked",
      "outputs": [
        {
          "internalType": "uint256",
          "name": "",
          "type": "uint256"
        }
      ],
      "stateMutability": "view",
      "type": "function",
      "constant": true
    },
    {
      "inputs": [],
      "name": "totalRatsStaked",
      "outputs": [
        {
          "internalType": "uint256",
          "name": "",
          "type": "uint256"
        }
      ],
      "stateMutability": "view",
      "type": "function",
      "constant": true
    },
    {
      "inputs": [
        {
          "internalType": "address",
          "name": "newOwner",
          "type": "address"
        }
      ],
      "name": "transferOwnership",
      "outputs": [],
      "stateMutability": "nonpayable",
      "type": "function"
    },
    {
      "inputs": [],
      "name": "vestingPeriod",
      "outputs": [
        {
          "internalType": "uint256",
          "name": "",
          "type": "uint256"
        }
      ],
      "stateMutability": "view",
      "type": "function",
      "constant": true
    },
    {
      "inputs": [
        {
          "internalType": "address[]",
          "name": "_addresses",
          "type": "address[]"
        },
        {
          "internalType": "uint256",
          "name": "_accrualPeriod",
          "type": "uint256"
        }
      ],
      "name": "initialize",
      "outputs": [],
      "stateMutability": "nonpayable",
      "type": "function"
    },
    {
      "inputs": [
        {
          "internalType": "address[]",
          "name": "_addresses",
          "type": "address[]"
        },
        {
          "internalType": "uint256",
          "name": "_vestingPeriod",
          "type": "uint256"
        },
        {
          "internalType": "uint256",
          "name": "_accrualPeriod",
          "type": "uint256"
        },
        {
          "internalType": "int8",
          "name": "_dailyInsanityRate",
          "type": "int8"
        },
        {
          "internalType": "int8",
          "name": "_dailyFatnessRate",
          "type": "int8"
        }
      ],
      "name": "initialize",
      "outputs": [],
      "stateMutability": "nonpayable",
      "type": "function"
    }
  ],
  "bytecode": "0x608060405234801561001057600080fd5b50614c1e806100206000396000f3fe608060405234801561001057600080fd5b506004361061018e5760003560e01c80638da5cb5b116100de578063c8b6cbf711610097578063ef9f800f11610071578063ef9f800f1461047c578063f2666746146104ac578063f2fde38b146104ca578063f6664155146104e65761018e565b8063c8b6cbf714610412578063cba88af814610442578063dbdc1f6b146104605761018e565b80638da5cb5b14610364578063922a180214610382578063a262c0ad1461039e578063a789ebd6146103bc578063a7a10290146103d8578063bdb62941146103f45761018e565b80634d1c61af1161014b5780635c975abb116101255780635c975abb1461030257806360b5bb3f14610320578063715018a61461033c5780637313ee5a146103465761018e565b80634d1c61af146102815780634e71d92d146102b4578063525e915b146102d25761018e565b806310d53df114610193578063150b7a02146101b15780631b8ca217146101e15780632535a77f1461021257806335ec066e14610230578063499f801014610263575b600080fd5b61019b610504565b6040516101a89190613113565b60405180910390f35b6101cb60048036038101906101c6919061323b565b610517565b6040516101d891906132fe565b60405180910390f35b6101fb60048036038101906101f69190613319565b61059a565b604051610209929190613362565b60405180910390f35b61021a61067b565b604051610227919061339a565b60405180910390f35b61024a60048036038101906102459190613319565b610681565b60405161025a94939291906133e9565b60405180910390f35b61026b6106fd565b604051610278919061339a565b60405180910390f35b61029b60048036038101906102969190613319565b610703565b6040516102ab94939291906133e9565b60405180910390f35b6102bc61077f565b6040516102c9919061348d565b60405180910390f35b6102ec60048036038101906102e791906134de565b6107a5565b6040516102f9919061353b565b60405180910390f35b61030a6107ec565b6040516103179190613571565b60405180910390f35b61033a600480360381019061033591906136db565b610803565b005b610344610a34565b005b61034e610abc565b60405161035b919061339a565b60405180910390f35b61036c610ac2565b6040516103799190613737565b60405180910390f35b61039c6004803603810190610397919061391f565b610aec565b005b6103a6611058565b6040516103b39190613113565b60405180910390f35b6103d660048036038101906103d191906139a7565b61106b565b005b6103f260048036038101906103ed9190613a94565b611266565b005b6103fc61161b565b6040516104099190613113565b60405180910390f35b61042c60048036038101906104279190613af4565b61162e565b604051610439919061339a565b60405180910390f35b61044a61165f565b6040516104579190613113565b60405180910390f35b61047a60048036038101906104759190613b34565b611672565b005b61049660048036038101906104919190613319565b611bff565b6040516104a39190613571565b60405180910390f35b6104b4611cd4565b6040516104c1919061339a565b60405180910390f35b6104e460048036038101906104df9190613b94565b611cda565b005b6104ee611dd2565b6040516104fb919061339a565b60405180910390f35b609d60009054906101000a900460000b81565b60008073ffffffffffffffffffffffffffffffffffffffff168573ffffffffffffffffffffffffffffffffffffffff1614610587576040517f08c379a000000000000000000000000000000000000000000000000000000000815260040161057e90613c44565b60405180910390fd5b63150b7a0260e01b905095945050505050565b600080609760009054906101000a900473ffffffffffffffffffffffffffffffffffffffff1673ffffffffffffffffffffffffffffffffffffffff1663e05c57bf846040518263ffffffff1660e01b81526004016105f8919061339a565b61014060405180830381865afa158015610616573d6000803e3d6000fd5b505050506040513d601f19601f8201168201806040525081019061063a9190613ca5565b909192939495969798509091929394959697509091929394959650909192939495509091929394509091929350909192509091508092508193505050915091565b60a15481565b609a6020528060005260406000206000915090508060000154908060010160009054906101000a900473ffffffffffffffffffffffffffffffffffffffff16908060010160149054906101000a900469ffffffffffffffffffff16908060020160009054906101000a900469ffffffffffffffffffff16905084565b609f5481565b60996020528060005260406000206000915090508060000154908060010160009054906101000a900473ffffffffffffffffffffffffffffffffffffffff16908060010160149054906101000a900469ffffffffffffffffffff16908060020160009054906101000a900469ffffffffffffffffffff16905084565b609860009054906101000a900473ffffffffffffffffffffffffffffffffffffffff1681565b609c60205281600052604060002081815481106107c157600080fd5b9060005260206000209060109182820401919006600202915091509054906101000a900461ffff1681565b6000606560009054906101000a900460ff16905090565b600060019054906101000a900460ff1661082b5760008054906101000a900460ff1615610834565b610833611dd8565b5b610873576040517f08c379a000000000000000000000000000000000000000000000000000000000815260040161086a90613df6565b60405180910390fd5b60008060019054906101000a900460ff1615905080156108c3576001600060016101000a81548160ff02191690831515021790555060016000806101000a81548160ff0219169083151502179055505b6108cb611de9565b6108d3611e4a565b826000815181106108e7576108e6613e16565b5b6020026020010151609760006101000a81548173ffffffffffffffffffffffffffffffffffffffff021916908373ffffffffffffffffffffffffffffffffffffffff1602179055508260018151811061094357610942613e16565b5b6020026020010151609860006101000a81548173ffffffffffffffffffffffffffffffffffffffff021916908373ffffffffffffffffffffffffffffffffffffffff1602179055508160a0819055506000609d60006101000a81548160ff021916908360000b60ff1602179055506000609d60016101000a81548160ff021916908360000b60ff1602179055506000609d60026101000a81548160ff021916908360000b60ff1602179055506000609d60036101000a81548160ff021916908360000b60ff1602179055508015610a2f5760008060016101000a81548160ff0219169083151502179055505b505050565b610a3c611eab565b73ffffffffffffffffffffffffffffffffffffffff16610a5a610ac2565b73ffffffffffffffffffffffffffffffffffffffff1614610ab0576040517f08c379a0000000000000000000000000000000000000000000000000000000008152600401610aa790613e91565b60405180910390fd5b610aba6000611eb3565b565b60a25481565b6000603360009054906101000a900473ffffffffffffffffffffffffffffffffffffffff16905090565b610af46107ec565b15610b34576040517f08c379a0000000000000000000000000000000000000000000000000000000008152600401610b2b90613efd565b60405180910390fd5b609860009054906101000a900473ffffffffffffffffffffffffffffffffffffffff1673ffffffffffffffffffffffffffffffffffffffff163373ffffffffffffffffffffffffffffffffffffffff1614610bc4576040517f08c379a0000000000000000000000000000000000000000000000000000000008152600401610bbb90613f69565b60405180910390fd5b6000609c6000846000015181526020019081526020016000208054905011610c21576040517f08c379a0000000000000000000000000000000000000000000000000000000008152600401610c1890613fd5565b60405180910390fd5b6000609c600084600001518152602001908152602001600020805480602002602001604051908101604052809291908181526020018280548015610cac57602002820191906000526020600020906000905b82829054906101000a900461ffff1661ffff1681526020019060020190602082600101049283019260010382029150808411610c735790505b50505050509050609c6000846000015181526020019081526020016000206000610cd69190613004565b6000805b8251811015611039576000610cf486604001516000611f79565b9050610d1d848381518110610d0c57610d0b613e16565b5b602002602001015161ffff16611bff565b15610d7157610d5f848381518110610d3857610d37613e16565b5b602002602001015161ffff168760400151831580610d57575088608001515b841589611f85565b83610d6a9190614024565b9250610dbc565b610dae848381518110610d8757610d86613e16565b5b602002602001015161ffff168760400151831580610da6575088608001515b84158961242f565b83610db99190614024565b92505b60005b609b6000886040015173ffffffffffffffffffffffffffffffffffffffff1673ffffffffffffffffffffffffffffffffffffffff1681526020019081526020016000208054905081101561102457848381518110610e2057610e1f613e16565b5b602002602001015161ffff16609b6000896040015173ffffffffffffffffffffffffffffffffffffffff1673ffffffffffffffffffffffffffffffffffffffff1681526020019081526020016000208281548110610e8157610e80613e16565b5b9060005260206000200154141561101157609b6000886040015173ffffffffffffffffffffffffffffffffffffffff1673ffffffffffffffffffffffffffffffffffffffff1681526020019081526020016000206001609b60008a6040015173ffffffffffffffffffffffffffffffffffffffff1673ffffffffffffffffffffffffffffffffffffffff16815260200190815260200160002080549050610f28919061407a565b81548110610f3957610f38613e16565b5b9060005260206000200154609b6000896040015173ffffffffffffffffffffffffffffffffffffffff1673ffffffffffffffffffffffffffffffffffffffff1681526020019081526020016000208281548110610f9957610f98613e16565b5b9060005260206000200181905550609b6000886040015173ffffffffffffffffffffffffffffffffffffffff1673ffffffffffffffffffffffffffffffffffffffff168152602001908152602001600020805480610ffa57610ff96140ae565b5b600190038181906000526020600020016000905590555b808061101c906140dd565b915050610dbf565b50508080611031906140dd565b915050610cda565b506000811115611052576110518460400151826128dc565b5b50505050565b609d60029054906101000a900460000b81565b600060019054906101000a900460ff166110935760008054906101000a900460ff161561109c565b61109b611dd8565b5b6110db576040517f08c379a00000000000000000000000000000000000000000000000000000000081526004016110d290613df6565b60405180910390fd5b60008060019054906101000a900460ff16159050801561112b576001600060016101000a81548160ff02191690831515021790555060016000806101000a81548160ff0219169083151502179055505b611133611de9565b61113b611e4a565b8560008151811061114f5761114e613e16565b5b6020026020010151609760006101000a81548173ffffffffffffffffffffffffffffffffffffffff021916908373ffffffffffffffffffffffffffffffffffffffff160217905550856001815181106111ab576111aa613e16565b5b6020026020010151609860006101000a81548173ffffffffffffffffffffffffffffffffffffffff021916908373ffffffffffffffffffffffffffffffffffffffff1602179055508460a2819055508360a08190555082609d60016101000a81548160ff021916908360000b60ff16021790555081609d60036101000a81548160ff021916908360000b60ff160217905550801561125e5760008060016101000a81548160ff0219169083151502179055505b505050505050565b61126e6107ec565b156112ae576040517f08c379a00000000000000000000000000000000000000000000000000000000081526004016112a590613efd565b60405180910390fd5b60005b838390508110156115425760006112f28585848181106112d4576112d3613e16565b5b90506020020160208101906112e99190614126565b61ffff16611bff565b61133957609a600086868581811061130d5761130c613e16565b5b90506020020160208101906113229190614126565b61ffff168152602001908152602001600020611378565b609960008686858181106113505761134f613e16565b5b90506020020160208101906113659190614126565b61ffff1681526020019081526020016000205b604051806080016040529081600082015481526020016001820160009054906101000a900473ffffffffffffffffffffffffffffffffffffffff1673ffffffffffffffffffffffffffffffffffffffff1673ffffffffffffffffffffffffffffffffffffffff1681526020016001820160149054906101000a900469ffffffffffffffffffff1669ffffffffffffffffffff1669ffffffffffffffffffff1681526020016002820160009054906101000a900469ffffffffffffffffffff1669ffffffffffffffffffff1669ffffffffffffffffffff1681525050905061145d611eab565b73ffffffffffffffffffffffffffffffffffffffff16816020015173ffffffffffffffffffffffffffffffffffffffff16146114ce576040517f08c379a00000000000000000000000000000000000000000000000000000000081526004016114c59061419f565b60405180910390fd5b60a254816060015169ffffffffffffffffffff16426114ed919061407a565b101561152e576040517f08c379a00000000000000000000000000000000000000000000000000000000081526004016115259061420b565b60405180910390fd5b50808061153a906140dd565b9150506112b1565b506000609860009054906101000a900473ffffffffffffffffffffffffffffffffffffffff1673ffffffffffffffffffffffffffffffffffffffff16635bdf263c61158b611eab565b8686866040518563ffffffff1660e01b81526004016115ad94939291906142ee565b6020604051808303816000875af11580156115cc573d6000803e3d6000fd5b505050506040513d601f19601f820116820180604052508101906115f09190614343565b90508383609c6000848152602001908152602001600020919061161492919061302c565b5050505050565b609d60019054906101000a900460000b81565b609b602052816000526040600020818154811061164a57600080fd5b90600052602060002001600091509150505481565b609d60039054906101000a900460000b81565b61167a611eab565b73ffffffffffffffffffffffffffffffffffffffff168373ffffffffffffffffffffffffffffffffffffffff1614806117075750609760009054906101000a900473ffffffffffffffffffffffffffffffffffffffff1673ffffffffffffffffffffffffffffffffffffffff166116ef611eab565b73ffffffffffffffffffffffffffffffffffffffff16145b611746576040517f08c379a000000000000000000000000000000000000000000000000000000000815260040161173d906143bc565b60405180910390fd5b61175a611751611eab565b83839050611f79565b611799576040517f08c379a000000000000000000000000000000000000000000000000000000000815260040161179090614428565b60405180910390fd5b60005b82829050811015611bf957609760009054906101000a900473ffffffffffffffffffffffffffffffffffffffff1673ffffffffffffffffffffffffffffffffffffffff166117e8611eab565b73ffffffffffffffffffffffffffffffffffffffff16146119fe5761180b611eab565b73ffffffffffffffffffffffffffffffffffffffff16609760009054906101000a900473ffffffffffffffffffffffffffffffffffffffff1673ffffffffffffffffffffffffffffffffffffffff16636352211e85858581811061187257611871613e16565b5b90506020020160208101906118879190614126565b6040518263ffffffff1660e01b81526004016118a39190614479565b602060405180830381865afa1580156118c0573d6000803e3d6000fd5b505050506040513d601f19601f820116820180604052508101906118e491906144a9565b73ffffffffffffffffffffffffffffffffffffffff161461193a576040517f08c379a00000000000000000000000000000000000000000000000000000000081526004016119319061419f565b60405180910390fd5b609760009054906101000a900473ffffffffffffffffffffffffffffffffffffffff1673ffffffffffffffffffffffffffffffffffffffff166323b872dd611980611eab565b3086868681811061199457611993613e16565b5b90506020020160208101906119a99190614126565b6040518463ffffffff1660e01b81526004016119c7939291906144d6565b600060405180830381600087803b1580156119e157600080fd5b505af11580156119f5573d6000803e3d6000fd5b50505050611a38565b6000838383818110611a1357611a12613e16565b5b9050602002016020810190611a289190614126565b61ffff161415611a3757611be6565b5b611a6c838383818110611a4e57611a4d613e16565b5b9050602002016020810190611a639190614126565b61ffff166128e0565b611aab576040517f08c379a0000000000000000000000000000000000000000000000000000000008152600401611aa290614559565b60405180910390fd5b611adf838383818110611ac157611ac0613e16565b5b9050602002016020810190611ad69190614126565b61ffff16611bff565b15611b1e57611b1984848484818110611afb57611afa613e16565b5b9050602002016020810190611b109190614126565b61ffff166128eb565b611b54565b611b5384848484818110611b3557611b34613e16565b5b9050602002016020810190611b4a9190614126565b61ffff16612aaa565b5b609b60008573ffffffffffffffffffffffffffffffffffffffff1673ffffffffffffffffffffffffffffffffffffffff168152602001908152602001600020838383818110611ba657611ba5613e16565b5b9050602002016020810190611bbb9190614126565b908060018154018082558091505060019003906000526020600020016000909161ffff169091909150555b8080611bf1906140dd565b91505061179c565b50505050565b6000609760009054906101000a900473ffffffffffffffffffffffffffffffffffffffff1673ffffffffffffffffffffffffffffffffffffffff1663e05c57bf836040518263ffffffff1660e01b8152600401611c5c919061339a565b61014060405180830381865afa158015611c7a573d6000803e3d6000fd5b505050506040513d601f19601f82011682018060405250810190611c9e9190613ca5565b90919293949596975090919293949596509091929394955090919293945090919293509091925090915090505080915050919050565b609e5481565b611ce2611eab565b73ffffffffffffffffffffffffffffffffffffffff16611d00610ac2565b73ffffffffffffffffffffffffffffffffffffffff1614611d56576040517f08c379a0000000000000000000000000000000000000000000000000000000008152600401611d4d90613e91565b60405180910390fd5b600073ffffffffffffffffffffffffffffffffffffffff168173ffffffffffffffffffffffffffffffffffffffff161415611dc6576040517f08c379a0000000000000000000000000000000000000000000000000000000008152600401611dbd906145eb565b60405180910390fd5b611dcf81611eb3565b50565b60a05481565b6000611de330612c72565b15905090565b600060019054906101000a900460ff16611e38576040517f08c379a0000000000000000000000000000000000000000000000000000000008152600401611e2f9061467d565b60405180910390fd5b611e40612c85565b611e48612cd6565b565b600060019054906101000a900460ff16611e99576040517f08c379a0000000000000000000000000000000000000000000000000000000008152600401611e909061467d565b60405180910390fd5b611ea1612c85565b611ea9612d37565b565b600033905090565b6000603360009054906101000a900473ffffffffffffffffffffffffffffffffffffffff16905081603360006101000a81548173ffffffffffffffffffffffffffffffffffffffff021916908373ffffffffffffffffffffffffffffffffffffffff1602179055508173ffffffffffffffffffffffffffffffffffffffff168173ffffffffffffffffffffffffffffffffffffffff167f8be0079c531659141344cd1fd0a4f28419497f9722a3daafe3b4186f6b6457e060405160405180910390a35050565b60006001905092915050565b60008060996000888152602001908152602001600020604051806080016040529081600082015481526020016001820160009054906101000a900473ffffffffffffffffffffffffffffffffffffffff1673ffffffffffffffffffffffffffffffffffffffff1673ffffffffffffffffffffffffffffffffffffffff1681526020016001820160149054906101000a900469ffffffffffffffffffff1669ffffffffffffffffffff1669ffffffffffffffffffff1681526020016002820160009054906101000a900469ffffffffffffffffffff1669ffffffffffffffffffff1669ffffffffffffffffffff168152505090508573ffffffffffffffffffffffffffffffffffffffff16816020015173ffffffffffffffffffffffffffffffffffffffff16146120ea576040517f08c379a00000000000000000000000000000000000000000000000000000000081526004016120e19061419f565b60405180910390fd5b60a254816060015169ffffffffffffffffffff1642612109919061407a565b101561214a576040517f08c379a00000000000000000000000000000000000000000000000000000000081526004016121419061420b565b60405180910390fd5b8361215d5761215881612da3565b612160565b60005b915060008060006121718a87612daa565b9250925092506121808a6128e0565b61218957600197505b87156122bc57609760009054906101000a900473ffffffffffffffffffffffffffffffffffffffff1673ffffffffffffffffffffffffffffffffffffffff1663b88d4fde308b8d6040518463ffffffff1660e01b81526004016121ee939291906146d4565b600060405180830381600087803b15801561220857600080fd5b505af115801561221c573d6000803e3d6000fd5b50505050609960008b81526020019081526020016000206000808201600090556001820160006101000a81549073ffffffffffffffffffffffffffffffffffffffff02191690556001820160146101000a81549069ffffffffffffffffffff02191690556002820160006101000a81549069ffffffffffffffffffff02191690555050609e60008154809291906122b29061471e565b91905055506123dd565b60405180608001604052808b61ffff1681526020018a73ffffffffffffffffffffffffffffffffffffffff1681526020014269ffffffffffffffffffff1681526020014269ffffffffffffffffffff16815250609960008c81526020019081526020016000206000820151816000015560208201518160010160006101000a81548173ffffffffffffffffffffffffffffffffffffffff021916908373ffffffffffffffffffffffffffffffffffffffff16021790555060408201518160010160146101000a81548169ffffffffffffffffffff021916908369ffffffffffffffffffff16021790555060608201518160020160006101000a81548169ffffffffffffffffffff021916908369ffffffffffffffffffff1602179055509050505b7f9b394c66bc4fdb2f56f5842a796076e6552d6f15eaacb6e63e3c53b474d872e98a868a86868660a15460405161241a97969594939291906147bf565b60405180910390a15050505095945050505050565b600080609a6000888152602001908152602001600020604051806080016040529081600082015481526020016001820160009054906101000a900473ffffffffffffffffffffffffffffffffffffffff1673ffffffffffffffffffffffffffffffffffffffff1673ffffffffffffffffffffffffffffffffffffffff1681526020016001820160149054906101000a900469ffffffffffffffffffff1669ffffffffffffffffffff1669ffffffffffffffffffff1681526020016002820160009054906101000a900469ffffffffffffffffffff1669ffffffffffffffffffff1669ffffffffffffffffffff168152505090508573ffffffffffffffffffffffffffffffffffffffff16816020015173ffffffffffffffffffffffffffffffffffffffff1614612594576040517f08c379a000000000000000000000000000000000000000000000000000000000815260040161258b9061419f565b60405180910390fd5b60a254816060015169ffffffffffffffffffff16426125b3919061407a565b10156125f4576040517f08c379a00000000000000000000000000000000000000000000000000000000081526004016125eb9061420b565b60405180910390fd5b836126075761260281612f68565b61260a565b60005b9150600080600061261b8a87612daa565b92509250925061262a8a6128e0565b61263357600197505b871561276657609760009054906101000a900473ffffffffffffffffffffffffffffffffffffffff1673ffffffffffffffffffffffffffffffffffffffff1663b88d4fde308b8d6040518463ffffffff1660e01b8152600401612698939291906146d4565b600060405180830381600087803b1580156126b257600080fd5b505af11580156126c6573d6000803e3d6000fd5b50505050609a60008b81526020019081526020016000206000808201600090556001820160006101000a81549073ffffffffffffffffffffffffffffffffffffffff02191690556001820160146101000a81549069ffffffffffffffffffff02191690556002820160006101000a81549069ffffffffffffffffffff02191690555050609f600081548092919061275c9061471e565b919050555061288e565b60405180608001604052808b61ffff1681526020018a73ffffffffffffffffffffffffffffffffffffffff16815260200161279f612f6f565b69ffffffffffffffffffff1681526020014269ffffffffffffffffffff16815250609a60008c81526020019081526020016000206000820151816000015560208201518160010160006101000a81548173ffffffffffffffffffffffffffffffffffffffff021916908373ffffffffffffffffffffffffffffffffffffffff16021790555060408201518160010160146101000a81548169ffffffffffffffffffff021916908369ffffffffffffffffffff16021790555060608201518160020160006101000a81548169ffffffffffffffffffff021916908369ffffffffffffffffffff1602179055509050505b7f6e949c62565860afb9dd6295e998a1c40005fe9560aedf8d596717681cfc7a1f8a868a8686866040516128c796959493929190614835565b60405180910390a15050505095945050505050565b5050565b600060019050919050565b6128f36107ec565b15612933576040517f08c379a000000000000000000000000000000000000000000000000000000000815260040161292a90613efd565b60405180910390fd5b60405180608001604052808261ffff1681526020018373ffffffffffffffffffffffffffffffffffffffff1681526020014269ffffffffffffffffffff1681526020014269ffffffffffffffffffff16815250609960008381526020019081526020016000206000820151816000015560208201518160010160006101000a81548173ffffffffffffffffffffffffffffffffffffffff021916908373ffffffffffffffffffffffffffffffffffffffff16021790555060408201518160010160146101000a81548169ffffffffffffffffffff021916908369ffffffffffffffffffff16021790555060608201518160020160006101000a81548169ffffffffffffffffffff021916908369ffffffffffffffffffff160217905550905050609e6000815480929190612a66906140dd565b91905055507f8af1bb49fb16c7835975aa59449ba4328dd54737dfb2ae9fa6c5eca71fda51f9818342604051612a9e9392919061489d565b60405180910390a15050565b612ab26107ec565b15612af2576040517f08c379a0000000000000000000000000000000000000000000000000000000008152600401612ae990613efd565b60405180910390fd5b60405180608001604052808261ffff1681526020018373ffffffffffffffffffffffffffffffffffffffff168152602001612b2b612f6f565b69ffffffffffffffffffff1681526020014269ffffffffffffffffffff16815250609a60008381526020019081526020016000206000820151816000015560208201518160010160006101000a81548173ffffffffffffffffffffffffffffffffffffffff021916908373ffffffffffffffffffffffffffffffffffffffff16021790555060408201518160010160146101000a81548169ffffffffffffffffffff021916908369ffffffffffffffffffff16021790555060608201518160020160006101000a81548169ffffffffffffffffffff021916908369ffffffffffffffffffff160217905550905050609f6000815480929190612c2c906140dd565b91905055507f8af1bb49fb16c7835975aa59449ba4328dd54737dfb2ae9fa6c5eca71fda51f9818360a154604051612c669392919061489d565b60405180910390a15050565b600080823b905060008111915050919050565b600060019054906101000a900460ff16612cd4576040517f08c379a0000000000000000000000000000000000000000000000000000000008152600401612ccb9061467d565b60405180910390fd5b565b600060019054906101000a900460ff16612d25576040517f08c379a0000000000000000000000000000000000000000000000000000000008152600401612d1c9061467d565b60405180910390fd5b612d35612d30611eab565b611eb3565b565b600060019054906101000a900460ff16612d86576040517f08c379a0000000000000000000000000000000000000000000000000000000008152600401612d7d9061467d565b60405180910390fd5b6000606560006101000a81548160ff021916908315150217905550565b6000919050565b60008060606000612dba86611bff565b612df057609a600087815260200190815260200160002060020160009054906101000a900469ffffffffffffffffffff16612e1e565b6099600087815260200190815260200160002060020160009054906101000a900469ffffffffffffffffffff165b69ffffffffffffffffffff1642612e35919061407a565b90506000612e4287611bff565b9050609760009054906101000a900473ffffffffffffffffffffffffffffffffffffffff1673ffffffffffffffffffffffffffffffffffffffff166363dbfc7788612eb784612ea057609d60029054906101000a900460000b612eb1565b609d60009054906101000a900460000b5b86612f74565b612eeb85612ed457609d60039054906101000a900460000b612ee5565b609d60019054906101000a900460000b5b87612f74565b8a6040518563ffffffff1660e01b8152600401612f0b94939291906148d4565b6000604051808303816000875af1158015612f2a573d6000803e3d6000fd5b505050506040513d6000823e3d601f19601f82011682018060405250810190612f5391906149bf565b80955081965082975050505050509250925092565b6000919050565b600090565b60008060a0548460000b84612f899190614a38565b612f939190614b7e565b90506064811315612fa8576064915050612ffe565b7fffffffffffffffffffffffffffffffffffffffffffffffffffffffffffffff9c811215612ff9577fffffffffffffffffffffffffffffffffffffffffffffffffffffffffffffff9c915050612ffe565b809150505b92915050565b50805460008255600f01601090049060005260206000209081019061302991906130da565b50565b82805482825590600052602060002090600f016010900481019282156130c95791602002820160005b8382111561309957833561ffff1683826101000a81548161ffff021916908361ffff1602179055509260200192600201602081600101049283019260010302613055565b80156130c75782816101000a81549061ffff0219169055600201602081600101049283019260010302613099565b505b5090506130d691906130da565b5090565b5b808211156130f35760008160009055506001016130db565b5090565b60008160000b9050919050565b61310d816130f7565b82525050565b60006020820190506131286000830184613104565b92915050565b6000604051905090565b600080fd5b600080fd5b600073ffffffffffffffffffffffffffffffffffffffff82169050919050565b600061316d82613142565b9050919050565b61317d81613162565b811461318857600080fd5b50565b60008135905061319a81613174565b92915050565b6000819050919050565b6131b3816131a0565b81146131be57600080fd5b50565b6000813590506131d0816131aa565b92915050565b600080fd5b600080fd5b600080fd5b60008083601f8401126131fb576131fa6131d6565b5b8235905067ffffffffffffffff811115613218576132176131db565b5b602083019150836001820283011115613234576132336131e0565b5b9250929050565b60008060008060006080868803121561325757613256613138565b5b60006132658882890161318b565b95505060206132768882890161318b565b9450506040613287888289016131c1565b935050606086013567ffffffffffffffff8111156132a8576132a761313d565b5b6132b4888289016131e5565b92509250509295509295909350565b60007fffffffff0000000000000000000000000000000000000000000000000000000082169050919050565b6132f8816132c3565b82525050565b600060208201905061331360008301846132ef565b92915050565b60006020828403121561332f5761332e613138565b5b600061333d848285016131c1565b91505092915050565b600060ff82169050919050565b61335c81613346565b82525050565b60006040820190506133776000830185613353565b6133846020830184613353565b9392505050565b613394816131a0565b82525050565b60006020820190506133af600083018461338b565b92915050565b6133be81613162565b82525050565b600069ffffffffffffffffffff82169050919050565b6133e3816133c4565b82525050565b60006080820190506133fe600083018761338b565b61340b60208301866133b5565b61341860408301856133da565b61342560608301846133da565b95945050505050565b6000819050919050565b600061345361344e61344984613142565b61342e565b613142565b9050919050565b600061346582613438565b9050919050565b60006134778261345a565b9050919050565b6134878161346c565b82525050565b60006020820190506134a2600083018461347e565b92915050565b6000819050919050565b6134bb816134a8565b81146134c657600080fd5b50565b6000813590506134d8816134b2565b92915050565b600080604083850312156134f5576134f4613138565b5b6000613503858286016134c9565b9250506020613514858286016131c1565b9150509250929050565b600061ffff82169050919050565b6135358161351e565b82525050565b6000602082019050613550600083018461352c565b92915050565b60008115159050919050565b61356b81613556565b82525050565b60006020820190506135866000830184613562565b92915050565b6000601f19601f8301169050919050565b7f4e487b7100000000000000000000000000000000000000000000000000000000600052604160045260246000fd5b6135d58261358c565b810181811067ffffffffffffffff821117156135f4576135f361359d565b5b80604052505050565b600061360761312e565b905061361382826135cc565b919050565b600067ffffffffffffffff8211156136335761363261359d565b5b602082029050602081019050919050565b600061365761365284613618565b6135fd565b9050808382526020820190506020840283018581111561367a576136796131e0565b5b835b818110156136a3578061368f888261318b565b84526020840193505060208101905061367c565b5050509392505050565b600082601f8301126136c2576136c16131d6565b5b81356136d2848260208601613644565b91505092915050565b600080604083850312156136f2576136f1613138565b5b600083013567ffffffffffffffff8111156137105761370f61313d565b5b61371c858286016136ad565b925050602061372d858286016131c1565b9150509250929050565b600060208201905061374c60008301846133b5565b92915050565b600080fd5b600080fd5b600067ffffffffffffffff8211156137775761377661359d565b5b602082029050602081019050919050565b6137918161351e565b811461379c57600080fd5b50565b6000813590506137ae81613788565b92915050565b60006137c76137c28461375c565b6135fd565b905080838252602082019050602084028301858111156137ea576137e96131e0565b5b835b8181101561381357806137ff888261379f565b8452602084019350506020810190506137ec565b5050509392505050565b600082601f830112613832576138316131d6565b5b81356138428482602086016137b4565b91505092915050565b61385481613556565b811461385f57600080fd5b50565b6000813590506138718161384b565b92915050565b600060a0828403121561388d5761388c613752565b5b61389760a06135fd565b905060006138a7848285016134c9565b60008301525060206138bb8482850161318b565b60208301525060406138cf8482850161318b565b604083015250606082013567ffffffffffffffff8111156138f3576138f2613757565b5b6138ff8482850161381d565b606083015250608061391384828501613862565b60808301525092915050565b6000806040838503121561393657613935613138565b5b600083013567ffffffffffffffff8111156139545761395361313d565b5b61396085828601613877565b9250506020613971858286016131c1565b9150509250929050565b613984816130f7565b811461398f57600080fd5b50565b6000813590506139a18161397b565b92915050565b600080600080600060a086880312156139c3576139c2613138565b5b600086013567ffffffffffffffff8111156139e1576139e061313d565b5b6139ed888289016136ad565b95505060206139fe888289016131c1565b9450506040613a0f888289016131c1565b9350506060613a2088828901613992565b9250506080613a3188828901613992565b9150509295509295909350565b60008083601f840112613a5457613a536131d6565b5b8235905067ffffffffffffffff811115613a7157613a706131db565b5b602083019150836020820283011115613a8d57613a8c6131e0565b5b9250929050565b600080600060408486031215613aad57613aac613138565b5b600084013567ffffffffffffffff811115613acb57613aca61313d565b5b613ad786828701613a3e565b93509350506020613aea86828701613862565b9150509250925092565b60008060408385031215613b0b57613b0a613138565b5b6000613b198582860161318b565b9250506020613b2a858286016131c1565b9150509250929050565b600080600060408486031215613b4d57613b4c613138565b5b6000613b5b8682870161318b565b935050602084013567ffffffffffffffff811115613b7c57613b7b61313d565b5b613b8886828701613a3e565b92509250509250925092565b600060208284031215613baa57613ba9613138565b5b6000613bb88482850161318b565b91505092915050565b600082825260208201905092915050565b7f43616e6e6f742073656e6420746f6b656e7320746f2056656e7565206469726560008201527f63746c7900000000000000000000000000000000000000000000000000000000602082015250565b6000613c2e602483613bc1565b9150613c3982613bd2565b604082019050919050565b60006020820190508181036000830152613c5d81613c21565b9050919050565b600081519050613c738161384b565b92915050565b613c8281613346565b8114613c8d57600080fd5b50565b600081519050613c9f81613c79565b92915050565b6000806000806000806000806000806101408b8d031215613cc957613cc8613138565b5b6000613cd78d828e01613c64565b9a50506020613ce88d828e01613c90565b9950506040613cf98d828e01613c90565b9850506060613d0a8d828e01613c90565b9750506080613d1b8d828e01613c90565b96505060a0613d2c8d828e01613c90565b95505060c0613d3d8d828e01613c90565b94505060e0613d4e8d828e01613c90565b935050610100613d608d828e01613c90565b925050610120613d728d828e01613c90565b9150509295989b9194979a5092959850565b7f496e697469616c697a61626c653a20636f6e747261637420697320616c72656160008201527f647920696e697469616c697a6564000000000000000000000000000000000000602082015250565b6000613de0602e83613bc1565b9150613deb82613d84565b604082019050919050565b60006020820190508181036000830152613e0f81613dd3565b9050919050565b7f4e487b7100000000000000000000000000000000000000000000000000000000600052603260045260246000fd5b7f4f776e61626c653a2063616c6c6572206973206e6f7420746865206f776e6572600082015250565b6000613e7b602083613bc1565b9150613e8682613e45565b602082019050919050565b60006020820190508181036000830152613eaa81613e6e565b9050919050565b7f5061757361626c653a2070617573656400000000000000000000000000000000600082015250565b6000613ee7601083613bc1565b9150613ef282613eb1565b602082019050919050565b60006020820190508181036000830152613f1681613eda565b9050919050565b7f4f6e6c7920436c61696d2063616e2066756c66696c6c00000000000000000000600082015250565b6000613f53601683613bc1565b9150613f5e82613f1d565b602082019050919050565b60006020820190508181036000830152613f8281613f46565b9050919050565b7f436c61696d2072657175657374206e6f7420666f756e64000000000000000000600082015250565b6000613fbf601783613bc1565b9150613fca82613f89565b602082019050919050565b60006020820190508181036000830152613fee81613fb2565b9050919050565b7f4e487b7100000000000000000000000000000000000000000000000000000000600052601160045260246000fd5b600061402f826131a0565b915061403a836131a0565b9250827fffffffffffffffffffffffffffffffffffffffffffffffffffffffffffffffff0382111561406f5761406e613ff5565b5b828201905092915050565b6000614085826131a0565b9150614090836131a0565b9250828210156140a3576140a2613ff5565b5b828203905092915050565b7f4e487b7100000000000000000000000000000000000000000000000000000000600052603160045260246000fd5b60006140e8826131a0565b91507fffffffffffffffffffffffffffffffffffffffffffffffffffffffffffffffff82141561411b5761411a613ff5565b5b600182019050919050565b60006020828403121561413c5761413b613138565b5b600061414a8482850161379f565b91505092915050565b7f4e6f7420796f757220746f6b656e000000000000000000000000000000000000600082015250565b6000614189600e83613bc1565b915061419482614153565b602082019050919050565b600060208201905081810360008301526141b88161417c565b9050919050565b7f43616e6e6f7420636c61696d206265666f726520454f42000000000000000000600082015250565b60006141f5601783613bc1565b9150614200826141bf565b602082019050919050565b60006020820190508181036000830152614224816141e8565b9050919050565b600082825260208201905092915050565b6000819050919050565b61424f8161351e565b82525050565b60006142618383614246565b60208301905092915050565b600061427c602084018461379f565b905092915050565b6000602082019050919050565b600061429d838561422b565b93506142a88261423c565b8060005b858110156142e1576142be828461426d565b6142c88882614255565b97506142d383614284565b9250506001810190506142ac565b5085925050509392505050565b600060608201905061430360008301876133b5565b8181036020830152614316818587614291565b90506143256040830184613562565b95945050505050565b60008151905061433d816134b2565b92915050565b60006020828403121561435957614358613138565b5b60006143678482850161432e565b91505092915050565b7f446f206e6f74206c6f736520796f757220746f6b656e73000000000000000000600082015250565b60006143a6601783613bc1565b91506143b182614370565b602082019050919050565b600060208201905081810360008301526143d581614399565b9050919050565b7f4b69746368656e20737061636520726571756972656400000000000000000000600082015250565b6000614412601683613bc1565b915061441d826143dc565b602082019050919050565b6000602082019050818103600083015261444181614405565b9050919050565b600061446361445e6144598461351e565b61342e565b6131a0565b9050919050565b61447381614448565b82525050565b600060208201905061448e600083018461446a565b92915050565b6000815190506144a381613174565b92915050565b6000602082840312156144bf576144be613138565b5b60006144cd84828501614494565b91505092915050565b60006060820190506144eb60008301866133b5565b6144f860208301856133b5565b614505604083018461446a565b949350505050565b7f4e6f7420656c696769626c650000000000000000000000000000000000000000600082015250565b6000614543600c83613bc1565b915061454e8261450d565b602082019050919050565b6000602082019050818103600083015261457281614536565b9050919050565b7f4f776e61626c653a206e6577206f776e657220697320746865207a65726f206160008201527f6464726573730000000000000000000000000000000000000000000000000000602082015250565b60006145d5602683613bc1565b91506145e082614579565b604082019050919050565b60006020820190508181036000830152614604816145c8565b9050919050565b7f496e697469616c697a61626c653a20636f6e7472616374206973206e6f74206960008201527f6e697469616c697a696e67000000000000000000000000000000000000000000602082015250565b6000614667602b83613bc1565b91506146728261460b565b604082019050919050565b600060208201905081810360008301526146968161465a565b9050919050565b600082825260208201905092915050565b50565b60006146be60008361469d565b91506146c9826146ae565b600082019050919050565b60006080820190506146e960008301866133b5565b6146f660208301856133b5565b614703604083018461338b565b8181036060830152614714816146b1565b9050949350505050565b6000614729826131a0565b9150600082141561473d5761473c613ff5565b5b600182039050919050565b600081519050919050565b60005b83811015614771578082015181840152602081019050614756565b83811115614780576000848401525b50505050565b600061479182614748565b61479b8185613bc1565b93506147ab818560208601614753565b6147b48161358c565b840191505092915050565b600060e0820190506147d4600083018a61338b565b6147e1602083018961338b565b6147ee6040830188613562565b6147fb6060830187613353565b6148086080830186613353565b81810360a083015261481a8185614786565b905061482960c083018461338b565b98975050505050505050565b600060c08201905061484a600083018961338b565b614857602083018861338b565b6148646040830187613562565b6148716060830186613353565b61487e6080830185613353565b81810360a08301526148908184614786565b9050979650505050505050565b60006060820190506148b2600083018661338b565b6148bf60208301856133b5565b6148cc604083018461338b565b949350505050565b60006080820190506148e9600083018761338b565b6148f66020830186613104565b6149036040830185613104565b614910606083018461338b565b95945050505050565b600080fd5b600067ffffffffffffffff8211156149395761493861359d565b5b6149428261358c565b9050602081019050919050565b600061496261495d8461491e565b6135fd565b90508281526020810184848401111561497e5761497d614919565b5b614989848285614753565b509392505050565b600082601f8301126149a6576149a56131d6565b5b81516149b684826020860161494f565b91505092915050565b6000806000606084860312156149d8576149d7613138565b5b60006149e686828701613c90565b93505060206149f786828701613c90565b925050604084015167ffffffffffffffff811115614a1857614a1761313d565b5b614a2486828701614991565b9150509250925092565b6000819050919050565b6000614a4382614a2e565b9150614a4e83614a2e565b9250827f7fffffffffffffffffffffffffffffffffffffffffffffffffffffffffffffff0482116000841360008413161615614a8d57614a8c613ff5565b5b817f80000000000000000000000000000000000000000000000000000000000000000583126000841260008413161615614aca57614ac9613ff5565b5b827f80000000000000000000000000000000000000000000000000000000000000000582126000841360008412161615614b0757614b06613ff5565b5b827f7fffffffffffffffffffffffffffffffffffffffffffffffffffffffffffffff0582126000841260008412161615614b4457614b43613ff5565b5b828202905092915050565b7f4e487b7100000000000000000000000000000000000000000000000000000000600052601260045260246000fd5b6000614b8982614a2e565b9150614b9483614a2e565b925082614ba457614ba3614b4f565b5b600160000383147f800000000000000000000000000000000000000000000000000000000000000083141615614bdd57614bdc613ff5565b5b82820590509291505056fea2646970667358221220a7c0f825dff408b7149c37d171b3302232f01e3a4d9999876b0dd8c3fd79181664736f6c634300080a0033",
  "immutableReferences": {},
  "source": "// SPDX-License-Identifier: MIT\n\npragma solidity ^0.8.0;\n\nimport \"./Venue.sol\";\n\ncontract Gym is Venue {\n  function initialize(\n    address[] memory _addresses, // character, claim\n    uint256 _vestingPeriod,\n    uint256 _accrualPeriod,\n    int8 _dailyInsanityRate,\n    int8 _dailyFatnessRate\n  ) external initializer {\n    __Ownable_init();\n    __Pausable_init();\n\n    character = Character(_addresses[0]);\n    claim = IClaim(_addresses[1]);\n    vestingPeriod = _vestingPeriod;\n    accrualPeriod = _accrualPeriod;\n    dailyInsanityRate = _dailyInsanityRate;\n    dailyFatnessRate = _dailyFatnessRate;\n  }\n}\n",
  "sourcePath": "/Users/chris/workspace/ratalert/ratalert-contracts/contracts/Gym.sol",
  "compiler": {
    "name": "solc",
    "version": "0.8.10+commit.fc410830.Emscripten.clang"
  },
  "schemaVersion": "3.4.5",
  "updatedAt": "2022-03-11T07:53:03.230Z",
  "networkType": "ethereum",
  "devdoc": {
    "kind": "dev",
    "methods": {
      "claimMany(uint16[],bool)": {
        "params": {
          "tokenIds": "- The IDs of the tokens in question",
          "unstake": "- Whether or not to unstake the given tokens"
        }
      },
      "fulfillClaimMany((bytes32,address,address,uint16[],bool),uint256)": {
        "params": {
          "randomVal": "- List of random values created by VRF",
          "v": "- VRF struct for the corresponding request"
        }
      },
      "getProperties(uint256)": {
        "params": {
          "tokenId": "- The ID of the token to check"
        },
        "returns": {
          "efficiency": "& tolerance values"
        }
      },
      "isChef(uint256)": {
        "params": {
          "tokenId": "- The ID of the token to check"
        },
        "returns": {
          "chef": "- Whether or not the token is a Chef"
        }
      },
      "owner()": {
        "details": "Returns the address of the current owner."
      },
      "paused()": {
        "details": "Returns true if the contract is paused, and false otherwise."
      },
      "renounceOwnership()": {
        "details": "Leaves the contract without owner. It will not be possible to call `onlyOwner` functions anymore. Can only be called by the current owner. NOTE: Renouncing ownership will leave the contract without an owner, thereby removing any functionality that is only available to the owner."
      },
      "stakeMany(address,uint16[])": {
        "params": {
          "account": "- The address of the staker",
          "tokenIds": "- The IDs of the Chefs & Rats to stake"
        }
      },
      "transferOwnership(address)": {
        "details": "Transfers ownership of the contract to a new account (`newOwner`). Can only be called by the current owner."
      }
    },
    "version": 1
  },
  "userdoc": {
    "kind": "user",
    "methods": {
      "claimMany(uint16[],bool)": {
        "notice": "ChainLink VRF request: Claims food token earnings, level-ups and optionally unstake characters"
      },
      "fulfillClaimMany((bytes32,address,address,uint16[],bool),uint256)": {
        "notice": "ChainLink VRF callback for claimMany()"
      },
      "getProperties(uint256)": {
        "notice": "Get the character's properties"
      },
      "isChef(uint256)": {
        "notice": "Checks if the token is a Chef"
      },
      "stakeMany(address,uint16[])": {
        "notice": "Adds Chefs & Rats"
      }
    },
    "version": 1
  }
}