{
  "contractName": "Gym",
  "abi": [
    {
      "anonymous": false,
      "inputs": [
        {
          "indexed": false,
          "internalType": "uint256",
          "name": "tokenId",
          "type": "uint256"
        },
        {
          "indexed": false,
          "internalType": "uint256",
          "name": "earned",
          "type": "uint256"
        },
        {
          "indexed": false,
          "internalType": "bool",
          "name": "unstaked",
          "type": "bool"
        },
        {
          "indexed": false,
          "internalType": "uint8",
          "name": "skill",
          "type": "uint8"
        },
        {
          "indexed": false,
          "internalType": "uint8",
          "name": "insanity",
          "type": "uint8"
        },
        {
          "indexed": false,
          "internalType": "string",
          "name": "eventName",
          "type": "string"
        },
        {
          "indexed": false,
          "internalType": "uint256",
          "name": "foodTokensPerRat",
          "type": "uint256"
        }
      ],
      "name": "ChefClaimed",
      "type": "event"
    },
    {
      "anonymous": false,
      "inputs": [
        {
          "indexed": true,
          "internalType": "address",
          "name": "previousOwner",
          "type": "address"
        },
        {
          "indexed": true,
          "internalType": "address",
          "name": "newOwner",
          "type": "address"
        }
      ],
      "name": "OwnershipTransferred",
      "type": "event"
    },
    {
      "anonymous": false,
      "inputs": [
        {
          "indexed": false,
          "internalType": "address",
          "name": "account",
          "type": "address"
        }
      ],
      "name": "Paused",
      "type": "event"
    },
    {
      "anonymous": false,
      "inputs": [
        {
          "indexed": false,
          "internalType": "uint256",
          "name": "tokenId",
          "type": "uint256"
        },
        {
          "indexed": false,
          "internalType": "uint256",
          "name": "earned",
          "type": "uint256"
        },
        {
          "indexed": false,
          "internalType": "bool",
          "name": "unstaked",
          "type": "bool"
        },
        {
          "indexed": false,
          "internalType": "uint8",
          "name": "intelligence",
          "type": "uint8"
        },
        {
          "indexed": false,
          "internalType": "uint8",
          "name": "fatness",
          "type": "uint8"
        },
        {
          "indexed": false,
          "internalType": "string",
          "name": "eventName",
          "type": "string"
        }
      ],
      "name": "RatClaimed",
      "type": "event"
    },
    {
      "anonymous": false,
      "inputs": [
        {
          "indexed": false,
          "internalType": "uint256",
          "name": "tokenId",
          "type": "uint256"
        },
        {
          "indexed": false,
          "internalType": "address",
          "name": "owner",
          "type": "address"
        },
        {
          "indexed": false,
          "internalType": "uint256",
          "name": "value",
          "type": "uint256"
        }
      ],
      "name": "TokenStaked",
      "type": "event"
    },
    {
      "anonymous": false,
      "inputs": [
        {
          "indexed": false,
          "internalType": "address",
          "name": "account",
          "type": "address"
        }
      ],
      "name": "Unpaused",
      "type": "event"
    },
    {
      "inputs": [],
      "name": "accrualPeriod",
      "outputs": [
        {
          "internalType": "uint256",
          "name": "",
          "type": "uint256"
        }
      ],
      "stateMutability": "view",
      "type": "function",
      "constant": true
    },
    {
      "inputs": [
        {
          "internalType": "uint256",
          "name": "",
          "type": "uint256"
        }
      ],
      "name": "chefs",
      "outputs": [
        {
          "internalType": "uint256",
          "name": "tokenId",
          "type": "uint256"
        },
        {
          "internalType": "address",
          "name": "owner",
          "type": "address"
        },
        {
          "internalType": "uint80",
          "name": "value",
          "type": "uint80"
        },
        {
          "internalType": "uint80",
          "name": "timestamp",
          "type": "uint80"
        }
      ],
      "stateMutability": "view",
      "type": "function",
      "constant": true
    },
    {
      "inputs": [],
      "name": "claim",
      "outputs": [
        {
          "internalType": "contract IClaim",
          "name": "",
          "type": "address"
        }
      ],
      "stateMutability": "view",
      "type": "function",
      "constant": true
    },
    {
      "inputs": [
        {
          "internalType": "uint16[]",
          "name": "tokenIds",
          "type": "uint16[]"
        },
        {
          "internalType": "bool",
          "name": "unstake",
          "type": "bool"
        }
      ],
      "name": "claimMany",
      "outputs": [],
      "stateMutability": "nonpayable",
      "type": "function"
    },
    {
      "inputs": [
        {
          "internalType": "bytes32",
          "name": "",
          "type": "bytes32"
        },
        {
          "internalType": "uint256",
          "name": "",
          "type": "uint256"
        }
      ],
      "name": "claimRequests",
      "outputs": [
        {
          "internalType": "uint16",
          "name": "",
          "type": "uint16"
        }
      ],
      "stateMutability": "view",
      "type": "function",
      "constant": true
    },
    {
      "inputs": [],
      "name": "dailyFatnessRate",
      "outputs": [
        {
          "internalType": "int8",
          "name": "",
          "type": "int8"
        }
      ],
      "stateMutability": "view",
      "type": "function",
      "constant": true
    },
    {
      "inputs": [],
      "name": "dailyInsanityRate",
      "outputs": [
        {
          "internalType": "int8",
          "name": "",
          "type": "int8"
        }
      ],
      "stateMutability": "view",
      "type": "function",
      "constant": true
    },
    {
      "inputs": [],
      "name": "dailyIntelligenceRate",
      "outputs": [
        {
          "internalType": "int8",
          "name": "",
          "type": "int8"
        }
      ],
      "stateMutability": "view",
      "type": "function",
      "constant": true
    },
    {
      "inputs": [],
      "name": "dailySkillRate",
      "outputs": [
        {
          "internalType": "int8",
          "name": "",
          "type": "int8"
        }
      ],
      "stateMutability": "view",
      "type": "function",
      "constant": true
    },
    {
      "inputs": [],
      "name": "foodTokensPerRat",
      "outputs": [
        {
          "internalType": "uint256",
          "name": "",
          "type": "uint256"
        }
      ],
      "stateMutability": "view",
      "type": "function",
      "constant": true
    },
    {
      "inputs": [
        {
          "components": [
            {
              "internalType": "bytes32",
              "name": "requestId",
              "type": "bytes32"
            },
            {
              "internalType": "address",
              "name": "venue",
              "type": "address"
            },
            {
              "internalType": "address",
              "name": "sender",
              "type": "address"
            },
            {
              "internalType": "uint16[]",
              "name": "tokenIds",
              "type": "uint16[]"
            },
            {
              "internalType": "bool",
              "name": "unstake",
              "type": "bool"
            }
          ],
          "internalType": "struct IClaim.VRFStruct",
          "name": "v",
          "type": "tuple"
        },
        {
          "internalType": "uint256",
          "name": "randomness",
          "type": "uint256"
        }
      ],
      "name": "fulfillClaimMany",
      "outputs": [],
      "stateMutability": "nonpayable",
      "type": "function"
    },
    {
      "inputs": [
        {
          "internalType": "uint256",
          "name": "tokenId",
          "type": "uint256"
        }
      ],
      "name": "getProperties",
      "outputs": [
        {
          "internalType": "uint8",
          "name": "efficiency",
          "type": "uint8"
        },
        {
          "internalType": "uint8",
          "name": "tolerance",
          "type": "uint8"
        }
      ],
      "stateMutability": "view",
      "type": "function",
      "constant": true
    },
    {
      "inputs": [
        {
          "internalType": "uint256",
          "name": "tokenId",
          "type": "uint256"
        }
      ],
      "name": "isChef",
      "outputs": [
        {
          "internalType": "bool",
          "name": "chef",
          "type": "bool"
        }
      ],
      "stateMutability": "view",
      "type": "function",
      "constant": true
    },
    {
      "inputs": [
        {
          "internalType": "address",
          "name": "",
          "type": "address"
        },
        {
          "internalType": "address",
          "name": "from",
          "type": "address"
        },
        {
          "internalType": "uint256",
          "name": "",
          "type": "uint256"
        },
        {
          "internalType": "bytes",
          "name": "",
          "type": "bytes"
        }
      ],
      "name": "onERC721Received",
      "outputs": [
        {
          "internalType": "bytes4",
          "name": "",
          "type": "bytes4"
        }
      ],
      "stateMutability": "pure",
      "type": "function",
      "constant": true
    },
    {
      "inputs": [],
      "name": "owner",
      "outputs": [
        {
          "internalType": "address",
          "name": "",
          "type": "address"
        }
      ],
      "stateMutability": "view",
      "type": "function",
      "constant": true
    },
    {
      "inputs": [],
      "name": "pause",
      "outputs": [],
      "stateMutability": "nonpayable",
      "type": "function"
    },
    {
      "inputs": [],
      "name": "paused",
      "outputs": [
        {
          "internalType": "bool",
          "name": "",
          "type": "bool"
        }
      ],
      "stateMutability": "view",
      "type": "function",
      "constant": true
    },
    {
      "inputs": [
        {
          "internalType": "uint256",
          "name": "",
          "type": "uint256"
        }
      ],
      "name": "rats",
      "outputs": [
        {
          "internalType": "uint256",
          "name": "tokenId",
          "type": "uint256"
        },
        {
          "internalType": "address",
          "name": "owner",
          "type": "address"
        },
        {
          "internalType": "uint80",
          "name": "value",
          "type": "uint80"
        },
        {
          "internalType": "uint80",
          "name": "timestamp",
          "type": "uint80"
        }
      ],
      "stateMutability": "view",
      "type": "function",
      "constant": true
    },
    {
      "inputs": [],
      "name": "renounceOwnership",
      "outputs": [],
      "stateMutability": "nonpayable",
      "type": "function"
    },
    {
      "inputs": [
        {
          "internalType": "address",
          "name": "account",
          "type": "address"
        },
        {
          "internalType": "uint16[]",
          "name": "tokenIds",
          "type": "uint16[]"
        }
      ],
      "name": "stakeMany",
      "outputs": [],
      "stateMutability": "nonpayable",
      "type": "function"
    },
    {
      "inputs": [
        {
          "internalType": "address",
          "name": "",
          "type": "address"
        },
        {
          "internalType": "uint256",
          "name": "",
          "type": "uint256"
        }
      ],
      "name": "stakers",
      "outputs": [
        {
          "internalType": "uint256",
          "name": "",
          "type": "uint256"
        }
      ],
      "stateMutability": "view",
      "type": "function",
      "constant": true
    },
    {
      "inputs": [],
      "name": "totalChefsStaked",
      "outputs": [
        {
          "internalType": "uint256",
          "name": "",
          "type": "uint256"
        }
      ],
      "stateMutability": "view",
      "type": "function",
      "constant": true
    },
    {
      "inputs": [],
      "name": "totalRatsStaked",
      "outputs": [
        {
          "internalType": "uint256",
          "name": "",
          "type": "uint256"
        }
      ],
      "stateMutability": "view",
      "type": "function",
      "constant": true
    },
    {
      "inputs": [
        {
          "internalType": "address",
          "name": "newOwner",
          "type": "address"
        }
      ],
      "name": "transferOwnership",
      "outputs": [],
      "stateMutability": "nonpayable",
      "type": "function"
    },
    {
      "inputs": [],
      "name": "unpause",
      "outputs": [],
      "stateMutability": "nonpayable",
      "type": "function"
    },
    {
      "inputs": [],
      "name": "vestingPeriod",
      "outputs": [
        {
          "internalType": "uint256",
          "name": "",
          "type": "uint256"
        }
      ],
      "stateMutability": "view",
      "type": "function",
      "constant": true
    },
    {
      "inputs": [
        {
          "internalType": "address",
          "name": "_character",
          "type": "address"
        },
        {
          "internalType": "address",
          "name": "_claim",
          "type": "address"
        },
        {
          "internalType": "uint256",
          "name": "_accrualPeriod",
          "type": "uint256"
        }
      ],
      "name": "initialize",
      "outputs": [],
      "stateMutability": "nonpayable",
      "type": "function"
    },
    {
      "inputs": [
        {
          "internalType": "address",
          "name": "_character",
          "type": "address"
        },
        {
          "internalType": "address",
          "name": "_claim",
          "type": "address"
        }
      ],
      "name": "initialize",
      "outputs": [],
      "stateMutability": "nonpayable",
      "type": "function"
    },
    {
      "inputs": [
        {
          "internalType": "uint256",
          "name": "_vestingPeriod",
          "type": "uint256"
        },
        {
          "internalType": "uint256",
          "name": "_accrualPeriod",
          "type": "uint256"
        },
        {
          "internalType": "int8",
          "name": "_dailyInsanityRate",
          "type": "int8"
        },
        {
          "internalType": "int8",
          "name": "_dailyFatnessRate",
          "type": "int8"
        },
        {
          "internalType": "uint8",
          "name": "_maxClaimsPerTx",
          "type": "uint8"
        }
      ],
      "name": "configure",
      "outputs": [],
      "stateMutability": "nonpayable",
      "type": "function"
    }
  ],
  "bytecode": "0x608060405234801561001057600080fd5b506150d6806100206000396000f3fe608060405234801561001057600080fd5b50600436106101cf5760003560e01c80637313ee5a11610104578063bdb62941116100a2578063ef9f800f11610071578063ef9f800f146104ed578063f26667461461051d578063f2fde38b1461053b578063f666415514610557576101cf565b8063bdb6294114610465578063c8b6cbf714610483578063cba88af8146104b3578063dbdc1f6b146104d1576101cf565b8063922a1802116100de578063922a1802146103f3578063943628b01461040f578063a262c0ad1461042b578063a7a1029014610449576101cf565b80637313ee5a146103ad5780638456cb59146103cb5780638da5cb5b146103d5576101cf565b8063485cc955116101715780634e71d92d1161014b5780634e71d92d14610337578063525e915b146103555780635c975abb14610385578063715018a6146103a3576101cf565b8063485cc955146102ca578063499f8010146102e65780634d1c61af14610304576101cf565b80631b8ca217116101ad5780631b8ca2171461023e5780632535a77f1461026f57806335ec066e1461028d5780633f4ba83a146102c0576101cf565b806310d53df1146101d4578063150b7a02146101f25780631794bb3c14610222575b600080fd5b6101dc610575565b6040516101e9919061349f565b60405180910390f35b61020c600480360381019061020791906135c7565b610588565b604051610219919061368a565b60405180910390f35b61023c600480360381019061023791906136a5565b61060b565b005b610258600480360381019061025391906136f8565b610807565b604051610266929190613741565b60405180910390f35b6102776108f1565b6040516102849190613779565b60405180910390f35b6102a760048036038101906102a291906136f8565b6108f7565b6040516102b794939291906137c8565b60405180910390f35b6102c8610973565b005b6102e460048036038101906102df919061380d565b6109f9565b005b6102ee610b71565b6040516102fb9190613779565b60405180910390f35b61031e600480360381019061031991906136f8565b610b77565b60405161032e94939291906137c8565b60405180910390f35b61033f610bf3565b60405161034c91906138ac565b60405180910390f35b61036f600480360381019061036a91906138fd565b610c19565b60405161037c919061395a565b60405180910390f35b61038d610c60565b60405161039a9190613990565b60405180910390f35b6103ab610c77565b005b6103b5610cff565b6040516103c29190613779565b60405180910390f35b6103d3610d05565b005b6103dd610d8b565b6040516103ea91906139ab565b60405180910390f35b61040d60048036038101906104089190613c1f565b610db5565b005b61042960048036038101906104249190613cd3565b611349565b005b610433611431565b604051610440919061349f565b60405180910390f35b610463600480360381019061045e9190613da4565b611444565b005b61046d611851565b60405161047a919061349f565b60405180910390f35b61049d60048036038101906104989190613e04565b611864565b6040516104aa9190613779565b60405180910390f35b6104bb611895565b6040516104c8919061349f565b60405180910390f35b6104eb60048036038101906104e69190613e44565b6118a8565b005b610507600480360381019061050291906136f8565b611e33565b6040516105149190613990565b60405180910390f35b610525611f12565b6040516105329190613779565b60405180910390f35b61055560048036038101906105509190613ea4565b611f18565b005b61055f612010565b60405161056c9190613779565b60405180910390f35b609d60009054906101000a900460000b81565b60008073ffffffffffffffffffffffffffffffffffffffff168573ffffffffffffffffffffffffffffffffffffffff16146105f8576040517f08c379a00000000000000000000000000000000000000000000000000000000081526004016105ef90613f54565b60405180910390fd5b63150b7a0260e01b905095945050505050565b600060019054906101000a900460ff166106335760008054906101000a900460ff161561063c565b61063b612016565b5b61067b576040517f08c379a000000000000000000000000000000000000000000000000000000000815260040161067290613fe6565b60405180910390fd5b60008060019054906101000a900460ff1615905080156106cb576001600060016101000a81548160ff02191690831515021790555060016000806101000a81548160ff0219169083151502179055505b6106d3612027565b6106db612088565b83609760006101000a81548173ffffffffffffffffffffffffffffffffffffffff021916908373ffffffffffffffffffffffffffffffffffffffff16021790555082609860006101000a81548173ffffffffffffffffffffffffffffffffffffffff021916908373ffffffffffffffffffffffffffffffffffffffff1602179055508160a0819055506000609d60006101000a81548160ff021916908360000b60ff1602179055506000609d60016101000a81548160ff021916908360000b60ff1602179055506000609d60026101000a81548160ff021916908360000b60ff1602179055506000609d60036101000a81548160ff021916908360000b60ff16021790555080156108015760008060016101000a81548160ff0219169083151502179055505b50505050565b600080609760009054906101000a900473ffffffffffffffffffffffffffffffffffffffff1673ffffffffffffffffffffffffffffffffffffffff1663e05c57bf846040518263ffffffff1660e01b81526004016108659190613779565b61016060405180830381865afa158015610883573d6000803e3d6000fd5b505050506040513d601f19601f820116820180604052508101906108a79190614045565b909192939495969798995090919293949596979850909192939495969750909192939495965090919293949550909192939450909192935090919250508092508193505050915091565b60a15481565b609a6020528060005260406000206000915090508060000154908060010160009054906101000a900473ffffffffffffffffffffffffffffffffffffffff16908060010160149054906101000a900469ffffffffffffffffffff16908060020160009054906101000a900469ffffffffffffffffffff16905084565b61097b6120e9565b73ffffffffffffffffffffffffffffffffffffffff16610999610d8b565b73ffffffffffffffffffffffffffffffffffffffff16146109ef576040517f08c379a00000000000000000000000000000000000000000000000000000000081526004016109e690614185565b60405180910390fd5b6109f76120f1565b565b600060019054906101000a900460ff16610a215760008054906101000a900460ff1615610a2a565b610a29612016565b5b610a69576040517f08c379a0000000000000000000000000000000000000000000000000000000008152600401610a6090613fe6565b60405180910390fd5b60008060019054906101000a900460ff161590508015610ab9576001600060016101000a81548160ff02191690831515021790555060016000806101000a81548160ff0219169083151502179055505b610ac1612027565b610ac9612088565b82609760006101000a81548173ffffffffffffffffffffffffffffffffffffffff021916908373ffffffffffffffffffffffffffffffffffffffff16021790555081609860006101000a81548173ffffffffffffffffffffffffffffffffffffffff021916908373ffffffffffffffffffffffffffffffffffffffff1602179055508015610b6c5760008060016101000a81548160ff0219169083151502179055505b505050565b609f5481565b60996020528060005260406000206000915090508060000154908060010160009054906101000a900473ffffffffffffffffffffffffffffffffffffffff16908060010160149054906101000a900469ffffffffffffffffffff16908060020160009054906101000a900469ffffffffffffffffffff16905084565b609860009054906101000a900473ffffffffffffffffffffffffffffffffffffffff1681565b609c6020528160005260406000208181548110610c3557600080fd5b9060005260206000209060109182820401919006600202915091509054906101000a900461ffff1681565b6000606560009054906101000a900460ff16905090565b610c7f6120e9565b73ffffffffffffffffffffffffffffffffffffffff16610c9d610d8b565b73ffffffffffffffffffffffffffffffffffffffff1614610cf3576040517f08c379a0000000000000000000000000000000000000000000000000000000008152600401610cea90614185565b60405180910390fd5b610cfd6000612193565b565b60a25481565b610d0d6120e9565b73ffffffffffffffffffffffffffffffffffffffff16610d2b610d8b565b73ffffffffffffffffffffffffffffffffffffffff1614610d81576040517f08c379a0000000000000000000000000000000000000000000000000000000008152600401610d7890614185565b60405180910390fd5b610d89612259565b565b6000603360009054906101000a900473ffffffffffffffffffffffffffffffffffffffff16905090565b610dbd610c60565b15610dfd576040517f08c379a0000000000000000000000000000000000000000000000000000000008152600401610df4906141f1565b60405180910390fd5b609860009054906101000a900473ffffffffffffffffffffffffffffffffffffffff1673ffffffffffffffffffffffffffffffffffffffff163373ffffffffffffffffffffffffffffffffffffffff1614610e8d576040517f08c379a0000000000000000000000000000000000000000000000000000000008152600401610e849061425d565b60405180910390fd5b6000609c6000846000015181526020019081526020016000208054905011610eea576040517f08c379a0000000000000000000000000000000000000000000000000000000008152600401610ee1906142c9565b60405180910390fd5b6000609c600084600001518152602001908152602001600020805480602002602001604051908101604052809291908181526020018280548015610f7557602002820191906000526020600020906000905b82829054906101000a900461ffff1661ffff1681526020019060020190602082600101049283019260010382029150808411610f3c5790505b50505050509050609c6000846000015181526020019081526020016000206000610f9f9190613390565b6000805b825181101561132a5760008482604051602001610fc19291906142e9565b6040516020818303038152906040528051906020012060001c90506000610fed876040015160006122fc565b905061101685848151811061100557611004614312565b5b602002602001015161ffff16611e33565b1561106a5761105885848151811061103157611030614312565b5b602002602001015161ffff168860400151831580611050575089608001515b841586612308565b846110639190614370565b93506110ac565b61109e8584815181106110805761107f614312565b5b602002602001015161ffff1688604001518960800151841586612752565b846110a99190614370565b93505b60005b609b6000896040015173ffffffffffffffffffffffffffffffffffffffff1673ffffffffffffffffffffffffffffffffffffffff16815260200190815260200160002080549050811015611314578584815181106111105761110f614312565b5b602002602001015161ffff16609b60008a6040015173ffffffffffffffffffffffffffffffffffffffff1673ffffffffffffffffffffffffffffffffffffffff168152602001908152602001600020828154811061117157611170614312565b5b9060005260206000200154141561130157609b6000896040015173ffffffffffffffffffffffffffffffffffffffff1673ffffffffffffffffffffffffffffffffffffffff1681526020019081526020016000206001609b60008b6040015173ffffffffffffffffffffffffffffffffffffffff1673ffffffffffffffffffffffffffffffffffffffff1681526020019081526020016000208054905061121891906143c6565b8154811061122957611228614312565b5b9060005260206000200154609b60008a6040015173ffffffffffffffffffffffffffffffffffffffff1673ffffffffffffffffffffffffffffffffffffffff168152602001908152602001600020828154811061128957611288614312565b5b9060005260206000200181905550609b6000896040015173ffffffffffffffffffffffffffffffffffffffff1673ffffffffffffffffffffffffffffffffffffffff1681526020019081526020016000208054806112ea576112e96143fa565b5b600190038181906000526020600020016000905590555b808061130c90614429565b9150506110af565b505050808061132290614429565b915050610fa3565b50600081111561134357611342846040015182612b9f565b5b50505050565b6113516120e9565b73ffffffffffffffffffffffffffffffffffffffff1661136f610d8b565b73ffffffffffffffffffffffffffffffffffffffff16146113c5576040517f08c379a00000000000000000000000000000000000000000000000000000000081526004016113bc90614185565b60405180910390fd5b8460a2819055508360a08190555082609d60016101000a81548160ff021916908360000b60ff16021790555081609d60036101000a81548160ff021916908360000b60ff1602179055508060a360006101000a81548160ff021916908360ff1602179055505050505050565b609d60029054906101000a900460000b81565b61144c610c60565b1561148c576040517f08c379a0000000000000000000000000000000000000000000000000000000008152600401611483906141f1565b60405180910390fd5b60a360009054906101000a900460ff1660ff168383905011156114e4576040517f08c379a00000000000000000000000000000000000000000000000000000000081526004016114db906144be565b60405180910390fd5b60005b8383905081101561177857600061152885858481811061150a57611509614312565b5b905060200201602081019061151f91906144de565b61ffff16611e33565b61156f57609a600086868581811061154357611542614312565b5b905060200201602081019061155891906144de565b61ffff1681526020019081526020016000206115ae565b6099600086868581811061158657611585614312565b5b905060200201602081019061159b91906144de565b61ffff1681526020019081526020016000205b604051806080016040529081600082015481526020016001820160009054906101000a900473ffffffffffffffffffffffffffffffffffffffff1673ffffffffffffffffffffffffffffffffffffffff1673ffffffffffffffffffffffffffffffffffffffff1681526020016001820160149054906101000a900469ffffffffffffffffffff1669ffffffffffffffffffff1669ffffffffffffffffffff1681526020016002820160009054906101000a900469ffffffffffffffffffff1669ffffffffffffffffffff1669ffffffffffffffffffff168152505090506116936120e9565b73ffffffffffffffffffffffffffffffffffffffff16816020015173ffffffffffffffffffffffffffffffffffffffff1614611704576040517f08c379a00000000000000000000000000000000000000000000000000000000081526004016116fb90614557565b60405180910390fd5b60a254816060015169ffffffffffffffffffff164261172391906143c6565b1015611764576040517f08c379a000000000000000000000000000000000000000000000000000000000815260040161175b906145c3565b60405180910390fd5b50808061177090614429565b9150506114e7565b506000609860009054906101000a900473ffffffffffffffffffffffffffffffffffffffff1673ffffffffffffffffffffffffffffffffffffffff16635bdf263c6117c16120e9565b8686866040518563ffffffff1660e01b81526004016117e394939291906146a6565b6020604051808303816000875af1158015611802573d6000803e3d6000fd5b505050506040513d601f19601f8201168201806040525081019061182691906146fb565b90508383609c6000848152602001908152602001600020919061184a9291906133b8565b5050505050565b609d60019054906101000a900460000b81565b609b602052816000526040600020818154811061188057600080fd5b90600052602060002001600091509150505481565b609d60039054906101000a900460000b81565b6118b06120e9565b73ffffffffffffffffffffffffffffffffffffffff168373ffffffffffffffffffffffffffffffffffffffff16148061193d5750609760009054906101000a900473ffffffffffffffffffffffffffffffffffffffff1673ffffffffffffffffffffffffffffffffffffffff166119256120e9565b73ffffffffffffffffffffffffffffffffffffffff16145b61197c576040517f08c379a000000000000000000000000000000000000000000000000000000000815260040161197390614774565b60405180910390fd5b60005b82829050811015611e2d57609760009054906101000a900473ffffffffffffffffffffffffffffffffffffffff1673ffffffffffffffffffffffffffffffffffffffff166119cb6120e9565b73ffffffffffffffffffffffffffffffffffffffff1614611be1576119ee6120e9565b73ffffffffffffffffffffffffffffffffffffffff16609760009054906101000a900473ffffffffffffffffffffffffffffffffffffffff1673ffffffffffffffffffffffffffffffffffffffff16636352211e858585818110611a5557611a54614312565b5b9050602002016020810190611a6a91906144de565b6040518263ffffffff1660e01b8152600401611a8691906147c5565b602060405180830381865afa158015611aa3573d6000803e3d6000fd5b505050506040513d601f19601f82011682018060405250810190611ac791906147f5565b73ffffffffffffffffffffffffffffffffffffffff1614611b1d576040517f08c379a0000000000000000000000000000000000000000000000000000000008152600401611b1490614557565b60405180910390fd5b609760009054906101000a900473ffffffffffffffffffffffffffffffffffffffff1673ffffffffffffffffffffffffffffffffffffffff166323b872dd611b636120e9565b30868686818110611b7757611b76614312565b5b9050602002016020810190611b8c91906144de565b6040518463ffffffff1660e01b8152600401611baa93929190614822565b600060405180830381600087803b158015611bc457600080fd5b505af1158015611bd8573d6000803e3d6000fd5b50505050611c1b565b6000838383818110611bf657611bf5614312565b5b9050602002016020810190611c0b91906144de565b61ffff161415611c1a57611e1a565b5b611c4f838383818110611c3157611c30614312565b5b9050602002016020810190611c4691906144de565b61ffff16612ba3565b611c8e576040517f08c379a0000000000000000000000000000000000000000000000000000000008152600401611c85906148a5565b60405180910390fd5b611cc2838383818110611ca457611ca3614312565b5b9050602002016020810190611cb991906144de565b61ffff16611e33565b15611de357611cfc84848484818110611cde57611cdd614312565b5b9050602002016020810190611cf391906144de565b61ffff16612bae565b611d0e611d076120e9565b60016122fc565b611d4d576040517f08c379a0000000000000000000000000000000000000000000000000000000008152600401611d4490614911565b60405180910390fd5b609b60008573ffffffffffffffffffffffffffffffffffffffff1673ffffffffffffffffffffffffffffffffffffffff168152602001908152602001600020838383818110611d9f57611d9e614312565b5b9050602002016020810190611db491906144de565b908060018154018082558091505060019003906000526020600020016000909161ffff16909190915055611e19565b611e1884848484818110611dfa57611df9614312565b5b9050602002016020810190611e0f91906144de565b61ffff16612d6d565b5b5b8080611e2590614429565b91505061197f565b50505050565b6000609760009054906101000a900473ffffffffffffffffffffffffffffffffffffffff1673ffffffffffffffffffffffffffffffffffffffff1663e05c57bf836040518263ffffffff1660e01b8152600401611e909190613779565b61016060405180830381865afa158015611eae573d6000803e3d6000fd5b505050506040513d601f19601f82011682018060405250810190611ed29190614045565b9091929394959697985090919293949596975090919293949596509091929394955090919293945090919293509091925090915090505080915050919050565b609e5481565b611f206120e9565b73ffffffffffffffffffffffffffffffffffffffff16611f3e610d8b565b73ffffffffffffffffffffffffffffffffffffffff1614611f94576040517f08c379a0000000000000000000000000000000000000000000000000000000008152600401611f8b90614185565b60405180910390fd5b600073ffffffffffffffffffffffffffffffffffffffff168173ffffffffffffffffffffffffffffffffffffffff161415612004576040517f08c379a0000000000000000000000000000000000000000000000000000000008152600401611ffb906149a3565b60405180910390fd5b61200d81612193565b50565b60a05481565b600061202130612f35565b15905090565b600060019054906101000a900460ff16612076576040517f08c379a000000000000000000000000000000000000000000000000000000000815260040161206d90614a35565b60405180910390fd5b61207e612f48565b612086612f99565b565b600060019054906101000a900460ff166120d7576040517f08c379a00000000000000000000000000000000000000000000000000000000081526004016120ce90614a35565b60405180910390fd5b6120df612f48565b6120e7612ffa565b565b600033905090565b6120f9610c60565b612138576040517f08c379a000000000000000000000000000000000000000000000000000000000815260040161212f90614aa1565b60405180910390fd5b6000606560006101000a81548160ff0219169083151502179055507f5db9ee0a495bf2e6ff9c91a7834c1ba4fdd244a5e8aa4e537bd38aeae4b073aa61217c6120e9565b60405161218991906139ab565b60405180910390a1565b6000603360009054906101000a900473ffffffffffffffffffffffffffffffffffffffff16905081603360006101000a81548173ffffffffffffffffffffffffffffffffffffffff021916908373ffffffffffffffffffffffffffffffffffffffff1602179055508173ffffffffffffffffffffffffffffffffffffffff168173ffffffffffffffffffffffffffffffffffffffff167f8be0079c531659141344cd1fd0a4f28419497f9722a3daafe3b4186f6b6457e060405160405180910390a35050565b612261610c60565b156122a1576040517f08c379a0000000000000000000000000000000000000000000000000000000008152600401612298906141f1565b60405180910390fd5b6001606560006101000a81548160ff0219169083151502179055507f62e78cea01bee320cd4e420270b5ea74000d11b0c9f74754ebdbfc544b05a2586122e56120e9565b6040516122f291906139ab565b60405180910390a1565b60006001905092915050565b60008060996000888152602001908152602001600020604051806080016040529081600082015481526020016001820160009054906101000a900473ffffffffffffffffffffffffffffffffffffffff1673ffffffffffffffffffffffffffffffffffffffff1673ffffffffffffffffffffffffffffffffffffffff1681526020016001820160149054906101000a900469ffffffffffffffffffff1669ffffffffffffffffffff1669ffffffffffffffffffff1681526020016002820160009054906101000a900469ffffffffffffffffffff1669ffffffffffffffffffff1669ffffffffffffffffffff168152505090508573ffffffffffffffffffffffffffffffffffffffff16816020015173ffffffffffffffffffffffffffffffffffffffff161461246d576040517f08c379a000000000000000000000000000000000000000000000000000000000815260040161246490614557565b60405180910390fd5b836124805761247b81613066565b612483565b60005b915060008060006124948a8761306d565b9250925092506124a38a612ba3565b6124ac57600197505b87156125df57609760009054906101000a900473ffffffffffffffffffffffffffffffffffffffff1673ffffffffffffffffffffffffffffffffffffffff1663b88d4fde308b8d6040518463ffffffff1660e01b815260040161251193929190614af8565b600060405180830381600087803b15801561252b57600080fd5b505af115801561253f573d6000803e3d6000fd5b50505050609960008b81526020019081526020016000206000808201600090556001820160006101000a81549073ffffffffffffffffffffffffffffffffffffffff02191690556001820160146101000a81549069ffffffffffffffffffff02191690556002820160006101000a81549069ffffffffffffffffffff02191690555050609e60008154809291906125d590614b42565b9190505550612700565b60405180608001604052808b61ffff1681526020018a73ffffffffffffffffffffffffffffffffffffffff1681526020014269ffffffffffffffffffff1681526020014269ffffffffffffffffffff16815250609960008c81526020019081526020016000206000820151816000015560208201518160010160006101000a81548173ffffffffffffffffffffffffffffffffffffffff021916908373ffffffffffffffffffffffffffffffffffffffff16021790555060408201518160010160146101000a81548169ffffffffffffffffffff021916908369ffffffffffffffffffff16021790555060608201518160020160006101000a81548169ffffffffffffffffffff021916908369ffffffffffffffffffff1602179055509050505b7f9b394c66bc4fdb2f56f5842a796076e6552d6f15eaacb6e63e3c53b474d872e98a868a86868660a15460405161273d9796959493929190614be3565b60405180910390a15050505095945050505050565b600080609a6000888152602001908152602001600020604051806080016040529081600082015481526020016001820160009054906101000a900473ffffffffffffffffffffffffffffffffffffffff1673ffffffffffffffffffffffffffffffffffffffff1673ffffffffffffffffffffffffffffffffffffffff1681526020016001820160149054906101000a900469ffffffffffffffffffff1669ffffffffffffffffffff1669ffffffffffffffffffff1681526020016002820160009054906101000a900469ffffffffffffffffffff1669ffffffffffffffffffff1669ffffffffffffffffffff168152505090508573ffffffffffffffffffffffffffffffffffffffff16816020015173ffffffffffffffffffffffffffffffffffffffff16146128b7576040517f08c379a00000000000000000000000000000000000000000000000000000000081526004016128ae90614557565b60405180910390fd5b836128ca576128c5816132c7565b6128cd565b60005b915060008060006128de8a8761306d565b9250925092506128ed8a612ba3565b6128f657600197505b8715612a2957609760009054906101000a900473ffffffffffffffffffffffffffffffffffffffff1673ffffffffffffffffffffffffffffffffffffffff1663b88d4fde308b8d6040518463ffffffff1660e01b815260040161295b93929190614af8565b600060405180830381600087803b15801561297557600080fd5b505af1158015612989573d6000803e3d6000fd5b50505050609a60008b81526020019081526020016000206000808201600090556001820160006101000a81549073ffffffffffffffffffffffffffffffffffffffff02191690556001820160146101000a81549069ffffffffffffffffffff02191690556002820160006101000a81549069ffffffffffffffffffff02191690555050609f6000815480929190612a1f90614b42565b9190505550612b51565b60405180608001604052808b61ffff1681526020018a73ffffffffffffffffffffffffffffffffffffffff168152602001612a626132ce565b69ffffffffffffffffffff1681526020014269ffffffffffffffffffff16815250609a60008c81526020019081526020016000206000820151816000015560208201518160010160006101000a81548173ffffffffffffffffffffffffffffffffffffffff021916908373ffffffffffffffffffffffffffffffffffffffff16021790555060408201518160010160146101000a81548169ffffffffffffffffffff021916908369ffffffffffffffffffff16021790555060608201518160020160006101000a81548169ffffffffffffffffffff021916908369ffffffffffffffffffff1602179055509050505b7f6e949c62565860afb9dd6295e998a1c40005fe9560aedf8d596717681cfc7a1f8a868a868686604051612b8a96959493929190614c59565b60405180910390a15050505095945050505050565b5050565b600060019050919050565b612bb6610c60565b15612bf6576040517f08c379a0000000000000000000000000000000000000000000000000000000008152600401612bed906141f1565b60405180910390fd5b60405180608001604052808261ffff1681526020018373ffffffffffffffffffffffffffffffffffffffff1681526020014269ffffffffffffffffffff1681526020014269ffffffffffffffffffff16815250609960008381526020019081526020016000206000820151816000015560208201518160010160006101000a81548173ffffffffffffffffffffffffffffffffffffffff021916908373ffffffffffffffffffffffffffffffffffffffff16021790555060408201518160010160146101000a81548169ffffffffffffffffffff021916908369ffffffffffffffffffff16021790555060608201518160020160006101000a81548169ffffffffffffffffffff021916908369ffffffffffffffffffff160217905550905050609e6000815480929190612d2990614429565b91905055507f8af1bb49fb16c7835975aa59449ba4328dd54737dfb2ae9fa6c5eca71fda51f9818342604051612d6193929190614cc1565b60405180910390a15050565b612d75610c60565b15612db5576040517f08c379a0000000000000000000000000000000000000000000000000000000008152600401612dac906141f1565b60405180910390fd5b60405180608001604052808261ffff1681526020018373ffffffffffffffffffffffffffffffffffffffff168152602001612dee6132ce565b69ffffffffffffffffffff1681526020014269ffffffffffffffffffff16815250609a60008381526020019081526020016000206000820151816000015560208201518160010160006101000a81548173ffffffffffffffffffffffffffffffffffffffff021916908373ffffffffffffffffffffffffffffffffffffffff16021790555060408201518160010160146101000a81548169ffffffffffffffffffff021916908369ffffffffffffffffffff16021790555060608201518160020160006101000a81548169ffffffffffffffffffff021916908369ffffffffffffffffffff160217905550905050609f6000815480929190612eef90614429565b91905055507f8af1bb49fb16c7835975aa59449ba4328dd54737dfb2ae9fa6c5eca71fda51f9818360a154604051612f2993929190614cc1565b60405180910390a15050565b600080823b905060008111915050919050565b600060019054906101000a900460ff16612f97576040517f08c379a0000000000000000000000000000000000000000000000000000000008152600401612f8e90614a35565b60405180910390fd5b565b600060019054906101000a900460ff16612fe8576040517f08c379a0000000000000000000000000000000000000000000000000000000008152600401612fdf90614a35565b60405180910390fd5b612ff8612ff36120e9565b612193565b565b600060019054906101000a900460ff16613049576040517f08c379a000000000000000000000000000000000000000000000000000000000815260040161304090614a35565b60405180910390fd5b6000606560006101000a81548160ff021916908315150217905550565b6000919050565b6000806060600080609760009054906101000a900473ffffffffffffffffffffffffffffffffffffffff1673ffffffffffffffffffffffffffffffffffffffff1663e05c57bf886040518263ffffffff1660e01b81526004016130d09190613779565b61016060405180830381865afa1580156130ee573d6000803e3d6000fd5b505050506040513d601f19601f820116820180604052508101906131129190614045565b9a50505050505050505050915060008261315857609a600089815260200190815260200160002060020160009054906101000a900469ffffffffffffffffffff16613186565b6099600089815260200190815260200160002060020160009054906101000a900469ffffffffffffffffffff165b69ffffffffffffffffffff164261319d91906143c6565b9050609760009054906101000a900473ffffffffffffffffffffffffffffffffffffffff1673ffffffffffffffffffffffffffffffffffffffff166363dbfc7789613213866131fb57609d60029054906101000a900460000b61320c565b609d60009054906101000a900460000b5b85876132d3565b6132498761323057609d60039054906101000a900460000b613241565b609d60019054906101000a900460000b5b8660006132d3565b8b6040518563ffffffff1660e01b81526004016132699493929190614cf8565b6000604051808303816000875af1158015613288573d6000803e3d6000fd5b505050506040513d6000823e3d601f19601f820116820180604052508101906132b19190614de3565b8096508197508298505050505050509250925092565b6000919050565b600090565b600060a0548311156132e55760a05492505b600060a0548560000b856132f99190614e5c565b6133039190614fa2565b905060a0548410613320578260000b8161331d919061500c565b90505b6064811315613333576064915050613389565b7fffffffffffffffffffffffffffffffffffffffffffffffffffffffffffffff9c811215613384577fffffffffffffffffffffffffffffffffffffffffffffffffffffffffffffff9c915050613389565b809150505b9392505050565b50805460008255600f0160109004906000526020600020908101906133b59190613466565b50565b82805482825590600052602060002090600f016010900481019282156134555791602002820160005b8382111561342557833561ffff1683826101000a81548161ffff021916908361ffff16021790555092602001926002016020816001010492830192600103026133e1565b80156134535782816101000a81549061ffff0219169055600201602081600101049283019260010302613425565b505b5090506134629190613466565b5090565b5b8082111561347f576000816000905550600101613467565b5090565b60008160000b9050919050565b61349981613483565b82525050565b60006020820190506134b46000830184613490565b92915050565b6000604051905090565b600080fd5b600080fd5b600073ffffffffffffffffffffffffffffffffffffffff82169050919050565b60006134f9826134ce565b9050919050565b613509816134ee565b811461351457600080fd5b50565b60008135905061352681613500565b92915050565b6000819050919050565b61353f8161352c565b811461354a57600080fd5b50565b60008135905061355c81613536565b92915050565b600080fd5b600080fd5b600080fd5b60008083601f84011261358757613586613562565b5b8235905067ffffffffffffffff8111156135a4576135a3613567565b5b6020830191508360018202830111156135c0576135bf61356c565b5b9250929050565b6000806000806000608086880312156135e3576135e26134c4565b5b60006135f188828901613517565b955050602061360288828901613517565b94505060406136138882890161354d565b935050606086013567ffffffffffffffff811115613634576136336134c9565b5b61364088828901613571565b92509250509295509295909350565b60007fffffffff0000000000000000000000000000000000000000000000000000000082169050919050565b6136848161364f565b82525050565b600060208201905061369f600083018461367b565b92915050565b6000806000606084860312156136be576136bd6134c4565b5b60006136cc86828701613517565b93505060206136dd86828701613517565b92505060406136ee8682870161354d565b9150509250925092565b60006020828403121561370e5761370d6134c4565b5b600061371c8482850161354d565b91505092915050565b600060ff82169050919050565b61373b81613725565b82525050565b60006040820190506137566000830185613732565b6137636020830184613732565b9392505050565b6137738161352c565b82525050565b600060208201905061378e600083018461376a565b92915050565b61379d816134ee565b82525050565b600069ffffffffffffffffffff82169050919050565b6137c2816137a3565b82525050565b60006080820190506137dd600083018761376a565b6137ea6020830186613794565b6137f760408301856137b9565b61380460608301846137b9565b95945050505050565b60008060408385031215613824576138236134c4565b5b600061383285828601613517565b925050602061384385828601613517565b9150509250929050565b6000819050919050565b600061387261386d613868846134ce565b61384d565b6134ce565b9050919050565b600061388482613857565b9050919050565b600061389682613879565b9050919050565b6138a68161388b565b82525050565b60006020820190506138c1600083018461389d565b92915050565b6000819050919050565b6138da816138c7565b81146138e557600080fd5b50565b6000813590506138f7816138d1565b92915050565b60008060408385031215613914576139136134c4565b5b6000613922858286016138e8565b92505060206139338582860161354d565b9150509250929050565b600061ffff82169050919050565b6139548161393d565b82525050565b600060208201905061396f600083018461394b565b92915050565b60008115159050919050565b61398a81613975565b82525050565b60006020820190506139a56000830184613981565b92915050565b60006020820190506139c06000830184613794565b92915050565b600080fd5b6000601f19601f8301169050919050565b7f4e487b7100000000000000000000000000000000000000000000000000000000600052604160045260246000fd5b613a14826139cb565b810181811067ffffffffffffffff82111715613a3357613a326139dc565b5b80604052505050565b6000613a466134ba565b9050613a528282613a0b565b919050565b600080fd5b600067ffffffffffffffff821115613a7757613a766139dc565b5b602082029050602081019050919050565b613a918161393d565b8114613a9c57600080fd5b50565b600081359050613aae81613a88565b92915050565b6000613ac7613ac284613a5c565b613a3c565b90508083825260208201905060208402830185811115613aea57613ae961356c565b5b835b81811015613b135780613aff8882613a9f565b845260208401935050602081019050613aec565b5050509392505050565b600082601f830112613b3257613b31613562565b5b8135613b42848260208601613ab4565b91505092915050565b613b5481613975565b8114613b5f57600080fd5b50565b600081359050613b7181613b4b565b92915050565b600060a08284031215613b8d57613b8c6139c6565b5b613b9760a0613a3c565b90506000613ba7848285016138e8565b6000830152506020613bbb84828501613517565b6020830152506040613bcf84828501613517565b604083015250606082013567ffffffffffffffff811115613bf357613bf2613a57565b5b613bff84828501613b1d565b6060830152506080613c1384828501613b62565b60808301525092915050565b60008060408385031215613c3657613c356134c4565b5b600083013567ffffffffffffffff811115613c5457613c536134c9565b5b613c6085828601613b77565b9250506020613c718582860161354d565b9150509250929050565b613c8481613483565b8114613c8f57600080fd5b50565b600081359050613ca181613c7b565b92915050565b613cb081613725565b8114613cbb57600080fd5b50565b600081359050613ccd81613ca7565b92915050565b600080600080600060a08688031215613cef57613cee6134c4565b5b6000613cfd8882890161354d565b9550506020613d0e8882890161354d565b9450506040613d1f88828901613c92565b9350506060613d3088828901613c92565b9250506080613d4188828901613cbe565b9150509295509295909350565b60008083601f840112613d6457613d63613562565b5b8235905067ffffffffffffffff811115613d8157613d80613567565b5b602083019150836020820283011115613d9d57613d9c61356c565b5b9250929050565b600080600060408486031215613dbd57613dbc6134c4565b5b600084013567ffffffffffffffff811115613ddb57613dda6134c9565b5b613de786828701613d4e565b93509350506020613dfa86828701613b62565b9150509250925092565b60008060408385031215613e1b57613e1a6134c4565b5b6000613e2985828601613517565b9250506020613e3a8582860161354d565b9150509250929050565b600080600060408486031215613e5d57613e5c6134c4565b5b6000613e6b86828701613517565b935050602084013567ffffffffffffffff811115613e8c57613e8b6134c9565b5b613e9886828701613d4e565b92509250509250925092565b600060208284031215613eba57613eb96134c4565b5b6000613ec884828501613517565b91505092915050565b600082825260208201905092915050565b7f43616e6e6f742073656e6420746f6b656e7320746f2056656e7565206469726560008201527f63746c7900000000000000000000000000000000000000000000000000000000602082015250565b6000613f3e602483613ed1565b9150613f4982613ee2565b604082019050919050565b60006020820190508181036000830152613f6d81613f31565b9050919050565b7f496e697469616c697a61626c653a20636f6e747261637420697320616c72656160008201527f647920696e697469616c697a6564000000000000000000000000000000000000602082015250565b6000613fd0602e83613ed1565b9150613fdb82613f74565b604082019050919050565b60006020820190508181036000830152613fff81613fc3565b9050919050565b60008151905061401581613b4b565b92915050565b60008151905061402a81613ca7565b92915050565b60008151905061403f81613c7b565b92915050565b60008060008060008060008060008060006101608c8e03121561406b5761406a6134c4565b5b60006140798e828f01614006565b9b5050602061408a8e828f0161401b565b9a5050604061409b8e828f0161401b565b99505060606140ac8e828f0161401b565b98505060806140bd8e828f0161401b565b97505060a06140ce8e828f0161401b565b96505060c06140df8e828f0161401b565b95505060e06140f08e828f0161401b565b9450506101006141028e828f0161401b565b9350506101206141148e828f0161401b565b9250506101406141268e828f01614030565b9150509295989b509295989b9093969950565b7f4f776e61626c653a2063616c6c6572206973206e6f7420746865206f776e6572600082015250565b600061416f602083613ed1565b915061417a82614139565b602082019050919050565b6000602082019050818103600083015261419e81614162565b9050919050565b7f5061757361626c653a2070617573656400000000000000000000000000000000600082015250565b60006141db601083613ed1565b91506141e6826141a5565b602082019050919050565b6000602082019050818103600083015261420a816141ce565b9050919050565b7f4f6e6c7920436c61696d2063616e2066756c66696c6c00000000000000000000600082015250565b6000614247601683613ed1565b915061425282614211565b602082019050919050565b600060208201905081810360008301526142768161423a565b9050919050565b7f436c61696d2072657175657374206e6f7420666f756e64000000000000000000600082015250565b60006142b3601783613ed1565b91506142be8261427d565b602082019050919050565b600060208201905081810360008301526142e2816142a6565b9050919050565b60006040820190506142fe600083018561376a565b61430b602083018461376a565b9392505050565b7f4e487b7100000000000000000000000000000000000000000000000000000000600052603260045260246000fd5b7f4e487b7100000000000000000000000000000000000000000000000000000000600052601160045260246000fd5b600061437b8261352c565b91506143868361352c565b9250827fffffffffffffffffffffffffffffffffffffffffffffffffffffffffffffffff038211156143bb576143ba614341565b5b828201905092915050565b60006143d18261352c565b91506143dc8361352c565b9250828210156143ef576143ee614341565b5b828203905092915050565b7f4e487b7100000000000000000000000000000000000000000000000000000000600052603160045260246000fd5b60006144348261352c565b91507fffffffffffffffffffffffffffffffffffffffffffffffffffffffffffffffff82141561446757614466614341565b5b600182019050919050565b7f496e76616c696420636c61696d20616d6f756e74000000000000000000000000600082015250565b60006144a8601483613ed1565b91506144b382614472565b602082019050919050565b600060208201905081810360008301526144d78161449b565b9050919050565b6000602082840312156144f4576144f36134c4565b5b600061450284828501613a9f565b91505092915050565b7f4e6f7420796f757220746f6b656e000000000000000000000000000000000000600082015250565b6000614541600e83613ed1565b915061454c8261450b565b602082019050919050565b6000602082019050818103600083015261457081614534565b9050919050565b7f43616e6e6f7420636c61696d206265666f726520454f42000000000000000000600082015250565b60006145ad601783613ed1565b91506145b882614577565b602082019050919050565b600060208201905081810360008301526145dc816145a0565b9050919050565b600082825260208201905092915050565b6000819050919050565b6146078161393d565b82525050565b600061461983836145fe565b60208301905092915050565b60006146346020840184613a9f565b905092915050565b6000602082019050919050565b600061465583856145e3565b9350614660826145f4565b8060005b85811015614699576146768284614625565b614680888261460d565b975061468b8361463c565b925050600181019050614664565b5085925050509392505050565b60006060820190506146bb6000830187613794565b81810360208301526146ce818587614649565b90506146dd6040830184613981565b95945050505050565b6000815190506146f5816138d1565b92915050565b600060208284031215614711576147106134c4565b5b600061471f848285016146e6565b91505092915050565b7f446f206e6f74206c6f736520796f757220746f6b656e73000000000000000000600082015250565b600061475e601783613ed1565b915061476982614728565b602082019050919050565b6000602082019050818103600083015261478d81614751565b9050919050565b60006147af6147aa6147a58461393d565b61384d565b61352c565b9050919050565b6147bf81614794565b82525050565b60006020820190506147da60008301846147b6565b92915050565b6000815190506147ef81613500565b92915050565b60006020828403121561480b5761480a6134c4565b5b6000614819848285016147e0565b91505092915050565b60006060820190506148376000830186613794565b6148446020830185613794565b61485160408301846147b6565b949350505050565b7f4e6f7420656c696769626c650000000000000000000000000000000000000000600082015250565b600061488f600c83613ed1565b915061489a82614859565b602082019050919050565b600060208201905081810360008301526148be81614882565b9050919050565b7f4b69746368656e20737061636520726571756972656400000000000000000000600082015250565b60006148fb601683613ed1565b9150614906826148c5565b602082019050919050565b6000602082019050818103600083015261492a816148ee565b9050919050565b7f4f776e61626c653a206e6577206f776e657220697320746865207a65726f206160008201527f6464726573730000000000000000000000000000000000000000000000000000602082015250565b600061498d602683613ed1565b915061499882614931565b604082019050919050565b600060208201905081810360008301526149bc81614980565b9050919050565b7f496e697469616c697a61626c653a20636f6e7472616374206973206e6f74206960008201527f6e697469616c697a696e67000000000000000000000000000000000000000000602082015250565b6000614a1f602b83613ed1565b9150614a2a826149c3565b604082019050919050565b60006020820190508181036000830152614a4e81614a12565b9050919050565b7f5061757361626c653a206e6f7420706175736564000000000000000000000000600082015250565b6000614a8b601483613ed1565b9150614a9682614a55565b602082019050919050565b60006020820190508181036000830152614aba81614a7e565b9050919050565b600082825260208201905092915050565b50565b6000614ae2600083614ac1565b9150614aed82614ad2565b600082019050919050565b6000608082019050614b0d6000830186613794565b614b1a6020830185613794565b614b27604083018461376a565b8181036060830152614b3881614ad5565b9050949350505050565b6000614b4d8261352c565b91506000821415614b6157614b60614341565b5b600182039050919050565b600081519050919050565b60005b83811015614b95578082015181840152602081019050614b7a565b83811115614ba4576000848401525b50505050565b6000614bb582614b6c565b614bbf8185613ed1565b9350614bcf818560208601614b77565b614bd8816139cb565b840191505092915050565b600060e082019050614bf8600083018a61376a565b614c05602083018961376a565b614c126040830188613981565b614c1f6060830187613732565b614c2c6080830186613732565b81810360a0830152614c3e8185614baa565b9050614c4d60c083018461376a565b98975050505050505050565b600060c082019050614c6e600083018961376a565b614c7b602083018861376a565b614c886040830187613981565b614c956060830186613732565b614ca26080830185613732565b81810360a0830152614cb48184614baa565b9050979650505050505050565b6000606082019050614cd6600083018661376a565b614ce36020830185613794565b614cf0604083018461376a565b949350505050565b6000608082019050614d0d600083018761376a565b614d1a6020830186613490565b614d276040830185613490565b614d34606083018461376a565b95945050505050565b600080fd5b600067ffffffffffffffff821115614d5d57614d5c6139dc565b5b614d66826139cb565b9050602081019050919050565b6000614d86614d8184614d42565b613a3c565b905082815260208101848484011115614da257614da1614d3d565b5b614dad848285614b77565b509392505050565b600082601f830112614dca57614dc9613562565b5b8151614dda848260208601614d73565b91505092915050565b600080600060608486031215614dfc57614dfb6134c4565b5b6000614e0a8682870161401b565b9350506020614e1b8682870161401b565b925050604084015167ffffffffffffffff811115614e3c57614e3b6134c9565b5b614e4886828701614db5565b9150509250925092565b6000819050919050565b6000614e6782614e52565b9150614e7283614e52565b9250827f7fffffffffffffffffffffffffffffffffffffffffffffffffffffffffffffff0482116000841360008413161615614eb157614eb0614341565b5b817f80000000000000000000000000000000000000000000000000000000000000000583126000841260008413161615614eee57614eed614341565b5b827f80000000000000000000000000000000000000000000000000000000000000000582126000841360008412161615614f2b57614f2a614341565b5b827f7fffffffffffffffffffffffffffffffffffffffffffffffffffffffffffffff0582126000841260008412161615614f6857614f67614341565b5b828202905092915050565b7f4e487b7100000000000000000000000000000000000000000000000000000000600052601260045260246000fd5b6000614fad82614e52565b9150614fb883614e52565b925082614fc857614fc7614f73565b5b600160000383147f80000000000000000000000000000000000000000000000000000000000000008314161561500157615000614341565b5b828205905092915050565b600061501782614e52565b915061502283614e52565b9250817f7fffffffffffffffffffffffffffffffffffffffffffffffffffffffffffffff0383136000831215161561505d5761505c614341565b5b817f800000000000000000000000000000000000000000000000000000000000000003831260008312161561509557615094614341565b5b82820190509291505056fea2646970667358221220b30aa8aed54495c31fa701138909c3d4c0ba280ffed085ba9524826bf905eaf064736f6c634300080a0033",
  "immutableReferences": {},
  "source": "// SPDX-License-Identifier: MIT\n\npragma solidity ^0.8.0;\n\nimport \"./Venue.sol\";\n\ncontract Gym is Venue {\n  function initialize(\n    address _character,\n    address _claim\n  ) external initializer {\n    __Ownable_init();\n    __Pausable_init();\n\n    character = Character(_character);\n    claim = IClaim(_claim);\n  }\n\n  /**\n   * Allows DAO to update game parameters\n   */\n  function configure(\n    uint256 _vestingPeriod,\n    uint256 _accrualPeriod,\n    int8 _dailyInsanityRate,\n    int8 _dailyFatnessRate,\n    uint8 _maxClaimsPerTx\n  ) external onlyOwner {\n    vestingPeriod = _vestingPeriod;\n    accrualPeriod = _accrualPeriod;\n    dailyInsanityRate = _dailyInsanityRate;\n    dailyFatnessRate = _dailyFatnessRate;\n    maxClaimsPerTx = _maxClaimsPerTx;\n  }\n}\n",
  "sourcePath": "/Users/chris/workspace/ratalert/ratalert-contracts/contracts/Gym.sol",
  "compiler": {
    "name": "solc",
    "version": "0.8.10+commit.fc410830.Emscripten.clang"
  },
  "schemaVersion": "3.4.6",
  "updatedAt": "2022-03-20T17:25:40.523Z",
  "networkType": "ethereum",
  "devdoc": {
    "kind": "dev",
    "methods": {
      "claimMany(uint16[],bool)": {
        "params": {
          "tokenIds": "- The IDs of the tokens in question",
          "unstake": "- Whether or not to unstake the given tokens"
        }
      },
      "fulfillClaimMany((bytes32,address,address,uint16[],bool),uint256)": {
        "params": {
          "randomness": "- Random value created by VRF",
          "v": "- VRF struct for the corresponding request"
        }
      },
      "getProperties(uint256)": {
        "params": {
          "tokenId": "- The ID of the token to check"
        },
        "returns": {
          "efficiency": "& tolerance values"
        }
      },
      "isChef(uint256)": {
        "params": {
          "tokenId": "- The ID of the token to check"
        },
        "returns": {
          "chef": "- Whether or not the token is a Chef"
        }
      },
      "owner()": {
        "details": "Returns the address of the current owner."
      },
      "paused()": {
        "details": "Returns true if the contract is paused, and false otherwise."
      },
      "renounceOwnership()": {
        "details": "Leaves the contract without owner. It will not be possible to call `onlyOwner` functions anymore. Can only be called by the current owner. NOTE: Renouncing ownership will leave the contract without an owner, thereby removing any functionality that is only available to the owner."
      },
      "stakeMany(address,uint16[])": {
        "params": {
          "account": "- The address of the staker",
          "tokenIds": "- The IDs of the Chefs & Rats to stake"
        }
      },
      "transferOwnership(address)": {
        "details": "Transfers ownership of the contract to a new account (`newOwner`). Can only be called by the current owner."
      }
    },
    "version": 1
  },
  "userdoc": {
    "kind": "user",
    "methods": {
      "claimMany(uint16[],bool)": {
        "notice": "ChainLink VRF request: Claims food token earnings, level-ups and optionally unstake characters"
      },
      "configure(uint256,uint256,int8,int8,uint8)": {
        "notice": "Allows DAO to update game parameters"
      },
      "fulfillClaimMany((bytes32,address,address,uint16[],bool),uint256)": {
        "notice": "Callback for claimMany(), called by Claim.fulfillRandomness()"
      },
      "getProperties(uint256)": {
        "notice": "Get the character's properties"
      },
      "isChef(uint256)": {
        "notice": "Checks if the token is a Chef"
      },
      "stakeMany(address,uint16[])": {
        "notice": "Adds Chefs & Rats"
      }
    },
    "version": 1
  }
}