{
  "contractName": "GymV2",
  "abi": [
    {
      "anonymous": false,
      "inputs": [
        {
          "indexed": false,
          "internalType": "uint256",
          "name": "tokenId",
          "type": "uint256"
        },
        {
          "indexed": false,
          "internalType": "uint256",
          "name": "earned",
          "type": "uint256"
        },
        {
          "indexed": false,
          "internalType": "bool",
          "name": "unstaked",
          "type": "bool"
        },
        {
          "indexed": false,
          "internalType": "uint8",
          "name": "skill",
          "type": "uint8"
        },
        {
          "indexed": false,
          "internalType": "uint8",
          "name": "freak",
          "type": "uint8"
        },
        {
          "indexed": false,
          "internalType": "string",
          "name": "eventName",
          "type": "string"
        },
        {
          "indexed": false,
          "internalType": "uint256",
          "name": "foodTokensPerRat",
          "type": "uint256"
        }
      ],
      "name": "ChefClaimed",
      "type": "event"
    },
    {
      "anonymous": false,
      "inputs": [
        {
          "indexed": true,
          "internalType": "address",
          "name": "previousOwner",
          "type": "address"
        },
        {
          "indexed": true,
          "internalType": "address",
          "name": "newOwner",
          "type": "address"
        }
      ],
      "name": "OwnershipTransferred",
      "type": "event"
    },
    {
      "anonymous": false,
      "inputs": [
        {
          "indexed": false,
          "internalType": "address",
          "name": "account",
          "type": "address"
        }
      ],
      "name": "Paused",
      "type": "event"
    },
    {
      "anonymous": false,
      "inputs": [
        {
          "indexed": false,
          "internalType": "uint256",
          "name": "tokenId",
          "type": "uint256"
        },
        {
          "indexed": false,
          "internalType": "uint256",
          "name": "earned",
          "type": "uint256"
        },
        {
          "indexed": false,
          "internalType": "bool",
          "name": "unstaked",
          "type": "bool"
        },
        {
          "indexed": false,
          "internalType": "uint8",
          "name": "intelligence",
          "type": "uint8"
        },
        {
          "indexed": false,
          "internalType": "uint8",
          "name": "bodyMass",
          "type": "uint8"
        },
        {
          "indexed": false,
          "internalType": "string",
          "name": "eventName",
          "type": "string"
        },
        {
          "indexed": false,
          "internalType": "uint256",
          "name": "foodTokensPerRat",
          "type": "uint256"
        }
      ],
      "name": "RatClaimed",
      "type": "event"
    },
    {
      "anonymous": false,
      "inputs": [
        {
          "indexed": false,
          "internalType": "uint256",
          "name": "tokenId",
          "type": "uint256"
        },
        {
          "indexed": false,
          "internalType": "address",
          "name": "owner",
          "type": "address"
        },
        {
          "indexed": false,
          "internalType": "uint256",
          "name": "value",
          "type": "uint256"
        }
      ],
      "name": "TokenStaked",
      "type": "event"
    },
    {
      "anonymous": false,
      "inputs": [
        {
          "indexed": false,
          "internalType": "address",
          "name": "account",
          "type": "address"
        }
      ],
      "name": "Unpaused",
      "type": "event"
    },
    {
      "inputs": [],
      "name": "accrualPeriod",
      "outputs": [
        {
          "internalType": "uint256",
          "name": "",
          "type": "uint256"
        }
      ],
      "stateMutability": "view",
      "type": "function",
      "constant": true
    },
    {
      "inputs": [
        {
          "internalType": "uint256",
          "name": "",
          "type": "uint256"
        }
      ],
      "name": "chefs",
      "outputs": [
        {
          "internalType": "uint256",
          "name": "tokenId",
          "type": "uint256"
        },
        {
          "internalType": "address",
          "name": "owner",
          "type": "address"
        },
        {
          "internalType": "uint80",
          "name": "value",
          "type": "uint80"
        },
        {
          "internalType": "uint80",
          "name": "timestamp",
          "type": "uint80"
        }
      ],
      "stateMutability": "view",
      "type": "function",
      "constant": true
    },
    {
      "inputs": [],
      "name": "claim",
      "outputs": [
        {
          "internalType": "contract IClaim",
          "name": "",
          "type": "address"
        }
      ],
      "stateMutability": "view",
      "type": "function",
      "constant": true
    },
    {
      "inputs": [
        {
          "internalType": "uint16[]",
          "name": "tokenIds",
          "type": "uint16[]"
        },
        {
          "internalType": "bool",
          "name": "unstake",
          "type": "bool"
        }
      ],
      "name": "claimMany",
      "outputs": [],
      "stateMutability": "nonpayable",
      "type": "function"
    },
    {
      "inputs": [
        {
          "internalType": "bytes32",
          "name": "",
          "type": "bytes32"
        },
        {
          "internalType": "uint256",
          "name": "",
          "type": "uint256"
        }
      ],
      "name": "claimRequests",
      "outputs": [
        {
          "internalType": "uint16",
          "name": "",
          "type": "uint16"
        }
      ],
      "stateMutability": "view",
      "type": "function",
      "constant": true
    },
    {
      "inputs": [],
      "name": "dailyBodyMassRate",
      "outputs": [
        {
          "internalType": "int8",
          "name": "",
          "type": "int8"
        }
      ],
      "stateMutability": "view",
      "type": "function",
      "constant": true
    },
    {
      "inputs": [],
      "name": "dailyFreakRate",
      "outputs": [
        {
          "internalType": "int8",
          "name": "",
          "type": "int8"
        }
      ],
      "stateMutability": "view",
      "type": "function",
      "constant": true
    },
    {
      "inputs": [],
      "name": "dailyIntelligenceRate",
      "outputs": [
        {
          "internalType": "int8",
          "name": "",
          "type": "int8"
        }
      ],
      "stateMutability": "view",
      "type": "function",
      "constant": true
    },
    {
      "inputs": [],
      "name": "dailySkillRate",
      "outputs": [
        {
          "internalType": "int8",
          "name": "",
          "type": "int8"
        }
      ],
      "stateMutability": "view",
      "type": "function",
      "constant": true
    },
    {
      "inputs": [],
      "name": "foodTokensPerRat",
      "outputs": [
        {
          "internalType": "uint256",
          "name": "",
          "type": "uint256"
        }
      ],
      "stateMutability": "view",
      "type": "function",
      "constant": true
    },
    {
      "inputs": [
        {
          "components": [
            {
              "internalType": "bytes32",
              "name": "requestId",
              "type": "bytes32"
            },
            {
              "internalType": "address",
              "name": "venue",
              "type": "address"
            },
            {
              "internalType": "address",
              "name": "sender",
              "type": "address"
            },
            {
              "internalType": "uint16[]",
              "name": "tokenIds",
              "type": "uint16[]"
            },
            {
              "internalType": "bool",
              "name": "unstake",
              "type": "bool"
            }
          ],
          "internalType": "struct IClaim.VRFStruct",
          "name": "v",
          "type": "tuple"
        },
        {
          "internalType": "uint256",
          "name": "randomness",
          "type": "uint256"
        }
      ],
      "name": "fulfillClaimMany",
      "outputs": [],
      "stateMutability": "nonpayable",
      "type": "function"
    },
    {
      "inputs": [
        {
          "internalType": "uint256",
          "name": "tokenId",
          "type": "uint256"
        }
      ],
      "name": "getProperties",
      "outputs": [
        {
          "internalType": "uint8",
          "name": "efficiency",
          "type": "uint8"
        },
        {
          "internalType": "uint8",
          "name": "tolerance",
          "type": "uint8"
        }
      ],
      "stateMutability": "view",
      "type": "function",
      "constant": true
    },
    {
      "inputs": [
        {
          "internalType": "uint256",
          "name": "tokenId",
          "type": "uint256"
        }
      ],
      "name": "isChef",
      "outputs": [
        {
          "internalType": "bool",
          "name": "chef",
          "type": "bool"
        }
      ],
      "stateMutability": "view",
      "type": "function",
      "constant": true
    },
    {
      "inputs": [
        {
          "internalType": "address",
          "name": "",
          "type": "address"
        },
        {
          "internalType": "address",
          "name": "from",
          "type": "address"
        },
        {
          "internalType": "uint256",
          "name": "",
          "type": "uint256"
        },
        {
          "internalType": "bytes",
          "name": "",
          "type": "bytes"
        }
      ],
      "name": "onERC721Received",
      "outputs": [
        {
          "internalType": "bytes4",
          "name": "",
          "type": "bytes4"
        }
      ],
      "stateMutability": "pure",
      "type": "function",
      "constant": true
    },
    {
      "inputs": [],
      "name": "owner",
      "outputs": [
        {
          "internalType": "address",
          "name": "",
          "type": "address"
        }
      ],
      "stateMutability": "view",
      "type": "function",
      "constant": true
    },
    {
      "inputs": [],
      "name": "pause",
      "outputs": [],
      "stateMutability": "nonpayable",
      "type": "function"
    },
    {
      "inputs": [],
      "name": "paused",
      "outputs": [
        {
          "internalType": "bool",
          "name": "",
          "type": "bool"
        }
      ],
      "stateMutability": "view",
      "type": "function",
      "constant": true
    },
    {
      "inputs": [
        {
          "internalType": "uint256",
          "name": "",
          "type": "uint256"
        }
      ],
      "name": "rats",
      "outputs": [
        {
          "internalType": "uint256",
          "name": "tokenId",
          "type": "uint256"
        },
        {
          "internalType": "address",
          "name": "owner",
          "type": "address"
        },
        {
          "internalType": "uint80",
          "name": "value",
          "type": "uint80"
        },
        {
          "internalType": "uint80",
          "name": "timestamp",
          "type": "uint80"
        }
      ],
      "stateMutability": "view",
      "type": "function",
      "constant": true
    },
    {
      "inputs": [],
      "name": "renounceOwnership",
      "outputs": [],
      "stateMutability": "nonpayable",
      "type": "function"
    },
    {
      "inputs": [
        {
          "internalType": "address",
          "name": "account",
          "type": "address"
        },
        {
          "internalType": "uint16[]",
          "name": "tokenIds",
          "type": "uint16[]"
        }
      ],
      "name": "stakeMany",
      "outputs": [],
      "stateMutability": "nonpayable",
      "type": "function"
    },
    {
      "inputs": [
        {
          "internalType": "address",
          "name": "",
          "type": "address"
        },
        {
          "internalType": "uint256",
          "name": "",
          "type": "uint256"
        }
      ],
      "name": "stakers",
      "outputs": [
        {
          "internalType": "uint256",
          "name": "",
          "type": "uint256"
        }
      ],
      "stateMutability": "view",
      "type": "function",
      "constant": true
    },
    {
      "inputs": [],
      "name": "totalChefsStaked",
      "outputs": [
        {
          "internalType": "uint256",
          "name": "",
          "type": "uint256"
        }
      ],
      "stateMutability": "view",
      "type": "function",
      "constant": true
    },
    {
      "inputs": [],
      "name": "totalRatsStaked",
      "outputs": [
        {
          "internalType": "uint256",
          "name": "",
          "type": "uint256"
        }
      ],
      "stateMutability": "view",
      "type": "function",
      "constant": true
    },
    {
      "inputs": [
        {
          "internalType": "address",
          "name": "newOwner",
          "type": "address"
        }
      ],
      "name": "transferOwnership",
      "outputs": [],
      "stateMutability": "nonpayable",
      "type": "function"
    },
    {
      "inputs": [],
      "name": "unpause",
      "outputs": [],
      "stateMutability": "nonpayable",
      "type": "function"
    },
    {
      "inputs": [],
      "name": "vestingPeriod",
      "outputs": [
        {
          "internalType": "uint256",
          "name": "",
          "type": "uint256"
        }
      ],
      "stateMutability": "view",
      "type": "function",
      "constant": true
    },
    {
      "inputs": [
        {
          "internalType": "address",
          "name": "_character",
          "type": "address"
        },
        {
          "internalType": "address",
          "name": "_claim",
          "type": "address"
        },
        {
          "internalType": "uint256",
          "name": "_accrualPeriod",
          "type": "uint256"
        }
      ],
      "name": "initialize",
      "outputs": [],
      "stateMutability": "nonpayable",
      "type": "function"
    },
    {
      "inputs": [
        {
          "internalType": "address",
          "name": "_character",
          "type": "address"
        },
        {
          "internalType": "address",
          "name": "_claim",
          "type": "address"
        }
      ],
      "name": "initialize",
      "outputs": [],
      "stateMutability": "nonpayable",
      "type": "function"
    },
    {
      "inputs": [
        {
          "internalType": "uint256",
          "name": "_vestingPeriod",
          "type": "uint256"
        },
        {
          "internalType": "uint256",
          "name": "_accrualPeriod",
          "type": "uint256"
        },
        {
          "internalType": "int8",
          "name": "_dailyFreakRate",
          "type": "int8"
        },
        {
          "internalType": "int8",
          "name": "_dailyBodyMassRate",
          "type": "int8"
        },
        {
          "internalType": "uint8",
          "name": "_maxClaimsPerTx",
          "type": "uint8"
        }
      ],
      "name": "configure",
      "outputs": [],
      "stateMutability": "nonpayable",
      "type": "function"
    },
    {
      "inputs": [],
      "name": "foo",
      "outputs": [
        {
          "internalType": "uint8",
          "name": "",
          "type": "uint8"
        }
      ],
      "stateMutability": "pure",
      "type": "function",
      "constant": true
    }
  ],
  "bytecode": "0x608060405234801561001057600080fd5b506150d8806100206000396000f3fe608060405234801561001057600080fd5b50600436106101da5760003560e01c8063715018a611610104578063a7a10290116100a2578063ef9f800f11610071578063ef9f800f14610516578063f266674614610546578063f2fde38b14610564578063f666415514610580576101da565b8063a7a1029014610490578063c2985578146104ac578063c8b6cbf7146104ca578063dbdc1f6b146104fa576101da565b80638da5cb5b116100de5780638da5cb5b1461041c578063922a18021461043a578063943628b014610456578063a262c0ad14610472576101da565b8063715018a6146103ea5780637313ee5a146103f45780638456cb5914610412576101da565b806335ec066e1161017c5780634d1c61af1161014b5780634d1c61af1461034b5780634e71d92d1461037e578063525e915b1461039c5780635c975abb146103cc576101da565b806335ec066e146102d45780633f4ba83a14610307578063485cc95514610311578063499f80101461032d576101da565b80631b8ca217116101b85780631b8ca217146102495780631e828add1461027a5780632535a77f14610298578063351c67c1146102b6576101da565b806310d53df1146101df578063150b7a02146101fd5780631794bb3c1461022d575b600080fd5b6101e761059e565b6040516101f491906134ee565b60405180910390f35b61021760048036038101906102129190613616565b6105b1565b60405161022491906136d9565b60405180910390f35b610247600480360381019061024291906136f4565b610634565b005b610263600480360381019061025e9190613747565b610830565b604051610271929190613790565b60405180910390f35b61028261091a565b60405161028f91906134ee565b60405180910390f35b6102a061092d565b6040516102ad91906137c8565b60405180910390f35b6102be610933565b6040516102cb91906134ee565b60405180910390f35b6102ee60048036038101906102e99190613747565b610946565b6040516102fe9493929190613817565b60405180910390f35b61030f6109c2565b005b61032b6004803603810190610326919061385c565b610a48565b005b610335610bc0565b60405161034291906137c8565b60405180910390f35b61036560048036038101906103609190613747565b610bc6565b6040516103759493929190613817565b60405180910390f35b610386610c42565b60405161039391906138fb565b60405180910390f35b6103b660048036038101906103b1919061394c565b610c68565b6040516103c391906139a9565b60405180910390f35b6103d4610caf565b6040516103e191906139df565b60405180910390f35b6103f2610cc6565b005b6103fc610d4e565b60405161040991906137c8565b60405180910390f35b61041a610d54565b005b610424610dda565b60405161043191906139fa565b60405180910390f35b610454600480360381019061044f9190613c6e565b610e04565b005b610470600480360381019061046b9190613d22565b611398565b005b61047a611480565b60405161048791906134ee565b60405180910390f35b6104aa60048036038101906104a59190613df3565b611493565b005b6104b46118a0565b6040516104c19190613e53565b60405180910390f35b6104e460048036038101906104df9190613e6e565b6118a9565b6040516104f191906137c8565b60405180910390f35b610514600480360381019061050f9190613eae565b6118da565b005b610530600480360381019061052b9190613747565b611e65565b60405161053d91906139df565b60405180910390f35b61054e611f44565b60405161055b91906137c8565b60405180910390f35b61057e60048036038101906105799190613f0e565b611f4a565b005b610588612042565b60405161059591906137c8565b60405180910390f35b609d60009054906101000a900460000b81565b60008073ffffffffffffffffffffffffffffffffffffffff168573ffffffffffffffffffffffffffffffffffffffff1614610621576040517f08c379a000000000000000000000000000000000000000000000000000000000815260040161061890613fbe565b60405180910390fd5b63150b7a0260e01b905095945050505050565b600060019054906101000a900460ff1661065c5760008054906101000a900460ff1615610665565b610664612048565b5b6106a4576040517f08c379a000000000000000000000000000000000000000000000000000000000815260040161069b90614050565b60405180910390fd5b60008060019054906101000a900460ff1615905080156106f4576001600060016101000a81548160ff02191690831515021790555060016000806101000a81548160ff0219169083151502179055505b6106fc612059565b6107046120ba565b83609760006101000a81548173ffffffffffffffffffffffffffffffffffffffff021916908373ffffffffffffffffffffffffffffffffffffffff16021790555082609860006101000a81548173ffffffffffffffffffffffffffffffffffffffff021916908373ffffffffffffffffffffffffffffffffffffffff1602179055508160a0819055506000609d60006101000a81548160ff021916908360000b60ff1602179055506000609d60016101000a81548160ff021916908360000b60ff1602179055506000609d60026101000a81548160ff021916908360000b60ff1602179055506000609d60036101000a81548160ff021916908360000b60ff160217905550801561082a5760008060016101000a81548160ff0219169083151502179055505b50505050565b600080609760009054906101000a900473ffffffffffffffffffffffffffffffffffffffff1673ffffffffffffffffffffffffffffffffffffffff1663e05c57bf846040518263ffffffff1660e01b815260040161088e91906137c8565b61016060405180830381865afa1580156108ac573d6000803e3d6000fd5b505050506040513d601f19601f820116820180604052508101906108d091906140af565b909192939495969798995090919293949596979850909192939495969750909192939495965090919293949550909192939450909192935090919250508092508193505050915091565b609d60019054906101000a900460000b81565b60a15481565b609d60039054906101000a900460000b81565b609a6020528060005260406000206000915090508060000154908060010160009054906101000a900473ffffffffffffffffffffffffffffffffffffffff16908060010160149054906101000a900469ffffffffffffffffffff16908060020160009054906101000a900469ffffffffffffffffffff16905084565b6109ca61211b565b73ffffffffffffffffffffffffffffffffffffffff166109e8610dda565b73ffffffffffffffffffffffffffffffffffffffff1614610a3e576040517f08c379a0000000000000000000000000000000000000000000000000000000008152600401610a35906141ef565b60405180910390fd5b610a46612123565b565b600060019054906101000a900460ff16610a705760008054906101000a900460ff1615610a79565b610a78612048565b5b610ab8576040517f08c379a0000000000000000000000000000000000000000000000000000000008152600401610aaf90614050565b60405180910390fd5b60008060019054906101000a900460ff161590508015610b08576001600060016101000a81548160ff02191690831515021790555060016000806101000a81548160ff0219169083151502179055505b610b10612059565b610b186120ba565b82609760006101000a81548173ffffffffffffffffffffffffffffffffffffffff021916908373ffffffffffffffffffffffffffffffffffffffff16021790555081609860006101000a81548173ffffffffffffffffffffffffffffffffffffffff021916908373ffffffffffffffffffffffffffffffffffffffff1602179055508015610bbb5760008060016101000a81548160ff0219169083151502179055505b505050565b609f5481565b60996020528060005260406000206000915090508060000154908060010160009054906101000a900473ffffffffffffffffffffffffffffffffffffffff16908060010160149054906101000a900469ffffffffffffffffffff16908060020160009054906101000a900469ffffffffffffffffffff16905084565b609860009054906101000a900473ffffffffffffffffffffffffffffffffffffffff1681565b609c6020528160005260406000208181548110610c8457600080fd5b9060005260206000209060109182820401919006600202915091509054906101000a900461ffff1681565b6000606560009054906101000a900460ff16905090565b610cce61211b565b73ffffffffffffffffffffffffffffffffffffffff16610cec610dda565b73ffffffffffffffffffffffffffffffffffffffff1614610d42576040517f08c379a0000000000000000000000000000000000000000000000000000000008152600401610d39906141ef565b60405180910390fd5b610d4c60006121c5565b565b60a25481565b610d5c61211b565b73ffffffffffffffffffffffffffffffffffffffff16610d7a610dda565b73ffffffffffffffffffffffffffffffffffffffff1614610dd0576040517f08c379a0000000000000000000000000000000000000000000000000000000008152600401610dc7906141ef565b60405180910390fd5b610dd861228b565b565b6000603360009054906101000a900473ffffffffffffffffffffffffffffffffffffffff16905090565b610e0c610caf565b15610e4c576040517f08c379a0000000000000000000000000000000000000000000000000000000008152600401610e439061425b565b60405180910390fd5b609860009054906101000a900473ffffffffffffffffffffffffffffffffffffffff1673ffffffffffffffffffffffffffffffffffffffff163373ffffffffffffffffffffffffffffffffffffffff1614610edc576040517f08c379a0000000000000000000000000000000000000000000000000000000008152600401610ed3906142c7565b60405180910390fd5b6000609c6000846000015181526020019081526020016000208054905011610f39576040517f08c379a0000000000000000000000000000000000000000000000000000000008152600401610f3090614333565b60405180910390fd5b6000609c600084600001518152602001908152602001600020805480602002602001604051908101604052809291908181526020018280548015610fc457602002820191906000526020600020906000905b82829054906101000a900461ffff1661ffff1681526020019060020190602082600101049283019260010382029150808411610f8b5790505b50505050509050609c6000846000015181526020019081526020016000206000610fee91906133df565b6000805b82518110156113795760008482604051602001611010929190614353565b6040516020818303038152906040528051906020012060001c9050600061103c8760400151600061232e565b90506110658584815181106110545761105361437c565b5b602002602001015161ffff16611e65565b156110b9576110a78584815181106110805761107f61437c565b5b602002602001015161ffff16886040015183158061109f575089608001515b84158661233a565b846110b291906143da565b93506110fb565b6110ed8584815181106110cf576110ce61437c565b5b602002602001015161ffff1688604001518960800151841586612784565b846110f891906143da565b93505b60005b609b6000896040015173ffffffffffffffffffffffffffffffffffffffff1673ffffffffffffffffffffffffffffffffffffffff168152602001908152602001600020805490508110156113635785848151811061115f5761115e61437c565b5b602002602001015161ffff16609b60008a6040015173ffffffffffffffffffffffffffffffffffffffff1673ffffffffffffffffffffffffffffffffffffffff16815260200190815260200160002082815481106111c0576111bf61437c565b5b9060005260206000200154141561135057609b6000896040015173ffffffffffffffffffffffffffffffffffffffff1673ffffffffffffffffffffffffffffffffffffffff1681526020019081526020016000206001609b60008b6040015173ffffffffffffffffffffffffffffffffffffffff1673ffffffffffffffffffffffffffffffffffffffff168152602001908152602001600020805490506112679190614430565b815481106112785761127761437c565b5b9060005260206000200154609b60008a6040015173ffffffffffffffffffffffffffffffffffffffff1673ffffffffffffffffffffffffffffffffffffffff16815260200190815260200160002082815481106112d8576112d761437c565b5b9060005260206000200181905550609b6000896040015173ffffffffffffffffffffffffffffffffffffffff1673ffffffffffffffffffffffffffffffffffffffff16815260200190815260200160002080548061133957611338614464565b5b600190038181906000526020600020016000905590555b808061135b90614493565b9150506110fe565b505050808061137190614493565b915050610ff2565b50600081111561139257611391846040015182612bd5565b5b50505050565b6113a061211b565b73ffffffffffffffffffffffffffffffffffffffff166113be610dda565b73ffffffffffffffffffffffffffffffffffffffff1614611414576040517f08c379a000000000000000000000000000000000000000000000000000000000815260040161140b906141ef565b60405180910390fd5b8460a2819055508360a08190555082609d60016101000a81548160ff021916908360000b60ff16021790555081609d60036101000a81548160ff021916908360000b60ff1602179055508060a360006101000a81548160ff021916908360ff1602179055505050505050565b609d60029054906101000a900460000b81565b61149b610caf565b156114db576040517f08c379a00000000000000000000000000000000000000000000000000000000081526004016114d29061425b565b60405180910390fd5b60a360009054906101000a900460ff1660ff16838390501115611533576040517f08c379a000000000000000000000000000000000000000000000000000000000815260040161152a90614528565b60405180910390fd5b60005b838390508110156117c75760006115778585848181106115595761155861437c565b5b905060200201602081019061156e9190614548565b61ffff16611e65565b6115be57609a60008686858181106115925761159161437c565b5b90506020020160208101906115a79190614548565b61ffff1681526020019081526020016000206115fd565b609960008686858181106115d5576115d461437c565b5b90506020020160208101906115ea9190614548565b61ffff1681526020019081526020016000205b604051806080016040529081600082015481526020016001820160009054906101000a900473ffffffffffffffffffffffffffffffffffffffff1673ffffffffffffffffffffffffffffffffffffffff1673ffffffffffffffffffffffffffffffffffffffff1681526020016001820160149054906101000a900469ffffffffffffffffffff1669ffffffffffffffffffff1669ffffffffffffffffffff1681526020016002820160009054906101000a900469ffffffffffffffffffff1669ffffffffffffffffffff1669ffffffffffffffffffff168152505090506116e261211b565b73ffffffffffffffffffffffffffffffffffffffff16816020015173ffffffffffffffffffffffffffffffffffffffff1614611753576040517f08c379a000000000000000000000000000000000000000000000000000000000815260040161174a906145c1565b60405180910390fd5b60a254816060015169ffffffffffffffffffff16426117729190614430565b10156117b3576040517f08c379a00000000000000000000000000000000000000000000000000000000081526004016117aa9061462d565b60405180910390fd5b5080806117bf90614493565b915050611536565b506000609860009054906101000a900473ffffffffffffffffffffffffffffffffffffffff1673ffffffffffffffffffffffffffffffffffffffff16635bdf263c61181061211b565b8686866040518563ffffffff1660e01b81526004016118329493929190614710565b6020604051808303816000875af1158015611851573d6000803e3d6000fd5b505050506040513d601f19601f820116820180604052508101906118759190614765565b90508383609c60008481526020019081526020016000209190611899929190613407565b5050505050565b6000602a905090565b609b60205281600052604060002081815481106118c557600080fd5b90600052602060002001600091509150505481565b6118e261211b565b73ffffffffffffffffffffffffffffffffffffffff168373ffffffffffffffffffffffffffffffffffffffff16148061196f5750609760009054906101000a900473ffffffffffffffffffffffffffffffffffffffff1673ffffffffffffffffffffffffffffffffffffffff1661195761211b565b73ffffffffffffffffffffffffffffffffffffffff16145b6119ae576040517f08c379a00000000000000000000000000000000000000000000000000000000081526004016119a5906147de565b60405180910390fd5b60005b82829050811015611e5f57609760009054906101000a900473ffffffffffffffffffffffffffffffffffffffff1673ffffffffffffffffffffffffffffffffffffffff166119fd61211b565b73ffffffffffffffffffffffffffffffffffffffff1614611c1357611a2061211b565b73ffffffffffffffffffffffffffffffffffffffff16609760009054906101000a900473ffffffffffffffffffffffffffffffffffffffff1673ffffffffffffffffffffffffffffffffffffffff16636352211e858585818110611a8757611a8661437c565b5b9050602002016020810190611a9c9190614548565b6040518263ffffffff1660e01b8152600401611ab8919061482f565b602060405180830381865afa158015611ad5573d6000803e3d6000fd5b505050506040513d601f19601f82011682018060405250810190611af9919061485f565b73ffffffffffffffffffffffffffffffffffffffff1614611b4f576040517f08c379a0000000000000000000000000000000000000000000000000000000008152600401611b46906145c1565b60405180910390fd5b609760009054906101000a900473ffffffffffffffffffffffffffffffffffffffff1673ffffffffffffffffffffffffffffffffffffffff166323b872dd611b9561211b565b30868686818110611ba957611ba861437c565b5b9050602002016020810190611bbe9190614548565b6040518463ffffffff1660e01b8152600401611bdc9392919061488c565b600060405180830381600087803b158015611bf657600080fd5b505af1158015611c0a573d6000803e3d6000fd5b50505050611c4d565b6000838383818110611c2857611c2761437c565b5b9050602002016020810190611c3d9190614548565b61ffff161415611c4c57611e4c565b5b611c81838383818110611c6357611c6261437c565b5b9050602002016020810190611c789190614548565b61ffff16612bd9565b611cc0576040517f08c379a0000000000000000000000000000000000000000000000000000000008152600401611cb79061490f565b60405180910390fd5b611cf4838383818110611cd657611cd561437c565b5b9050602002016020810190611ceb9190614548565b61ffff16611e65565b15611e1557611d2e84848484818110611d1057611d0f61437c565b5b9050602002016020810190611d259190614548565b61ffff16612be4565b611d40611d3961211b565b600161232e565b611d7f576040517f08c379a0000000000000000000000000000000000000000000000000000000008152600401611d769061497b565b60405180910390fd5b609b60008573ffffffffffffffffffffffffffffffffffffffff1673ffffffffffffffffffffffffffffffffffffffff168152602001908152602001600020838383818110611dd157611dd061437c565b5b9050602002016020810190611de69190614548565b908060018154018082558091505060019003906000526020600020016000909161ffff16909190915055611e4b565b611e4a84848484818110611e2c57611e2b61437c565b5b9050602002016020810190611e419190614548565b61ffff16612da3565b5b5b8080611e5790614493565b9150506119b1565b50505050565b6000609760009054906101000a900473ffffffffffffffffffffffffffffffffffffffff1673ffffffffffffffffffffffffffffffffffffffff1663e05c57bf836040518263ffffffff1660e01b8152600401611ec291906137c8565b61016060405180830381865afa158015611ee0573d6000803e3d6000fd5b505050506040513d601f19601f82011682018060405250810190611f0491906140af565b9091929394959697985090919293949596975090919293949596509091929394955090919293945090919293509091925090915090505080915050919050565b609e5481565b611f5261211b565b73ffffffffffffffffffffffffffffffffffffffff16611f70610dda565b73ffffffffffffffffffffffffffffffffffffffff1614611fc6576040517f08c379a0000000000000000000000000000000000000000000000000000000008152600401611fbd906141ef565b60405180910390fd5b600073ffffffffffffffffffffffffffffffffffffffff168173ffffffffffffffffffffffffffffffffffffffff161415612036576040517f08c379a000000000000000000000000000000000000000000000000000000000815260040161202d90614a0d565b60405180910390fd5b61203f816121c5565b50565b60a05481565b600061205330612f6b565b15905090565b600060019054906101000a900460ff166120a8576040517f08c379a000000000000000000000000000000000000000000000000000000000815260040161209f90614a9f565b60405180910390fd5b6120b0612f7e565b6120b8612fcf565b565b600060019054906101000a900460ff16612109576040517f08c379a000000000000000000000000000000000000000000000000000000000815260040161210090614a9f565b60405180910390fd5b612111612f7e565b612119613030565b565b600033905090565b61212b610caf565b61216a576040517f08c379a000000000000000000000000000000000000000000000000000000000815260040161216190614b0b565b60405180910390fd5b6000606560006101000a81548160ff0219169083151502179055507f5db9ee0a495bf2e6ff9c91a7834c1ba4fdd244a5e8aa4e537bd38aeae4b073aa6121ae61211b565b6040516121bb91906139fa565b60405180910390a1565b6000603360009054906101000a900473ffffffffffffffffffffffffffffffffffffffff16905081603360006101000a81548173ffffffffffffffffffffffffffffffffffffffff021916908373ffffffffffffffffffffffffffffffffffffffff1602179055508173ffffffffffffffffffffffffffffffffffffffff168173ffffffffffffffffffffffffffffffffffffffff167f8be0079c531659141344cd1fd0a4f28419497f9722a3daafe3b4186f6b6457e060405160405180910390a35050565b612293610caf565b156122d3576040517f08c379a00000000000000000000000000000000000000000000000000000000081526004016122ca9061425b565b60405180910390fd5b6001606560006101000a81548160ff0219169083151502179055507f62e78cea01bee320cd4e420270b5ea74000d11b0c9f74754ebdbfc544b05a25861231761211b565b60405161232491906139fa565b60405180910390a1565b60006001905092915050565b60008060996000888152602001908152602001600020604051806080016040529081600082015481526020016001820160009054906101000a900473ffffffffffffffffffffffffffffffffffffffff1673ffffffffffffffffffffffffffffffffffffffff1673ffffffffffffffffffffffffffffffffffffffff1681526020016001820160149054906101000a900469ffffffffffffffffffff1669ffffffffffffffffffff1669ffffffffffffffffffff1681526020016002820160009054906101000a900469ffffffffffffffffffff1669ffffffffffffffffffff1669ffffffffffffffffffff168152505090508573ffffffffffffffffffffffffffffffffffffffff16816020015173ffffffffffffffffffffffffffffffffffffffff161461249f576040517f08c379a0000000000000000000000000000000000000000000000000000000008152600401612496906145c1565b60405180910390fd5b836124b2576124ad8161309c565b6124b5565b60005b915060008060006124c68a876130a3565b9250925092506124d58a612bd9565b6124de57600197505b871561261157609760009054906101000a900473ffffffffffffffffffffffffffffffffffffffff1673ffffffffffffffffffffffffffffffffffffffff1663b88d4fde308b8d6040518463ffffffff1660e01b815260040161254393929190614b62565b600060405180830381600087803b15801561255d57600080fd5b505af1158015612571573d6000803e3d6000fd5b50505050609960008b81526020019081526020016000206000808201600090556001820160006101000a81549073ffffffffffffffffffffffffffffffffffffffff02191690556001820160146101000a81549069ffffffffffffffffffff02191690556002820160006101000a81549069ffffffffffffffffffff02191690555050609e600081548092919061260790614bac565b9190505550612732565b60405180608001604052808b61ffff1681526020018a73ffffffffffffffffffffffffffffffffffffffff1681526020014269ffffffffffffffffffff1681526020014269ffffffffffffffffffff16815250609960008c81526020019081526020016000206000820151816000015560208201518160010160006101000a81548173ffffffffffffffffffffffffffffffffffffffff021916908373ffffffffffffffffffffffffffffffffffffffff16021790555060408201518160010160146101000a81548169ffffffffffffffffffff021916908369ffffffffffffffffffff16021790555060608201518160020160006101000a81548169ffffffffffffffffffff021916908369ffffffffffffffffffff1602179055509050505b7f9b394c66bc4fdb2f56f5842a796076e6552d6f15eaacb6e63e3c53b474d872e98a868a86868660a15460405161276f9796959493929190614c4d565b60405180910390a15050505095945050505050565b600080609a6000888152602001908152602001600020604051806080016040529081600082015481526020016001820160009054906101000a900473ffffffffffffffffffffffffffffffffffffffff1673ffffffffffffffffffffffffffffffffffffffff1673ffffffffffffffffffffffffffffffffffffffff1681526020016001820160149054906101000a900469ffffffffffffffffffff1669ffffffffffffffffffff1669ffffffffffffffffffff1681526020016002820160009054906101000a900469ffffffffffffffffffff1669ffffffffffffffffffff1669ffffffffffffffffffff168152505090508573ffffffffffffffffffffffffffffffffffffffff16816020015173ffffffffffffffffffffffffffffffffffffffff16146128e9576040517f08c379a00000000000000000000000000000000000000000000000000000000081526004016128e0906145c1565b60405180910390fd5b836128fc576128f781613311565b6128ff565b60005b915060008060006129108a876130a3565b92509250925061291f8a612bd9565b61292857600197505b8715612a5b57609760009054906101000a900473ffffffffffffffffffffffffffffffffffffffff1673ffffffffffffffffffffffffffffffffffffffff1663b88d4fde308b8d6040518463ffffffff1660e01b815260040161298d93929190614b62565b600060405180830381600087803b1580156129a757600080fd5b505af11580156129bb573d6000803e3d6000fd5b50505050609a60008b81526020019081526020016000206000808201600090556001820160006101000a81549073ffffffffffffffffffffffffffffffffffffffff02191690556001820160146101000a81549069ffffffffffffffffffff02191690556002820160006101000a81549069ffffffffffffffffffff02191690555050609f6000815480929190612a5190614bac565b9190505550612b83565b60405180608001604052808b61ffff1681526020018a73ffffffffffffffffffffffffffffffffffffffff168152602001612a94613318565b69ffffffffffffffffffff1681526020014269ffffffffffffffffffff16815250609a60008c81526020019081526020016000206000820151816000015560208201518160010160006101000a81548173ffffffffffffffffffffffffffffffffffffffff021916908373ffffffffffffffffffffffffffffffffffffffff16021790555060408201518160010160146101000a81548169ffffffffffffffffffff021916908369ffffffffffffffffffff16021790555060608201518160020160006101000a81548169ffffffffffffffffffff021916908369ffffffffffffffffffff1602179055509050505b7f9be2cb7a62ca4aefdc81da57f848805cc67c86675da32b5a7be58bb615ba4f328a868a86868660a154604051612bc09796959493929190614c4d565b60405180910390a15050505095945050505050565b5050565b600060019050919050565b612bec610caf565b15612c2c576040517f08c379a0000000000000000000000000000000000000000000000000000000008152600401612c239061425b565b60405180910390fd5b60405180608001604052808261ffff1681526020018373ffffffffffffffffffffffffffffffffffffffff1681526020014269ffffffffffffffffffff1681526020014269ffffffffffffffffffff16815250609960008381526020019081526020016000206000820151816000015560208201518160010160006101000a81548173ffffffffffffffffffffffffffffffffffffffff021916908373ffffffffffffffffffffffffffffffffffffffff16021790555060408201518160010160146101000a81548169ffffffffffffffffffff021916908369ffffffffffffffffffff16021790555060608201518160020160006101000a81548169ffffffffffffffffffff021916908369ffffffffffffffffffff160217905550905050609e6000815480929190612d5f90614493565b91905055507f8af1bb49fb16c7835975aa59449ba4328dd54737dfb2ae9fa6c5eca71fda51f9818342604051612d9793929190614cc3565b60405180910390a15050565b612dab610caf565b15612deb576040517f08c379a0000000000000000000000000000000000000000000000000000000008152600401612de29061425b565b60405180910390fd5b60405180608001604052808261ffff1681526020018373ffffffffffffffffffffffffffffffffffffffff168152602001612e24613318565b69ffffffffffffffffffff1681526020014269ffffffffffffffffffff16815250609a60008381526020019081526020016000206000820151816000015560208201518160010160006101000a81548173ffffffffffffffffffffffffffffffffffffffff021916908373ffffffffffffffffffffffffffffffffffffffff16021790555060408201518160010160146101000a81548169ffffffffffffffffffff021916908369ffffffffffffffffffff16021790555060608201518160020160006101000a81548169ffffffffffffffffffff021916908369ffffffffffffffffffff160217905550905050609f6000815480929190612f2590614493565b91905055507f8af1bb49fb16c7835975aa59449ba4328dd54737dfb2ae9fa6c5eca71fda51f9818360a154604051612f5f93929190614cc3565b60405180910390a15050565b600080823b905060008111915050919050565b600060019054906101000a900460ff16612fcd576040517f08c379a0000000000000000000000000000000000000000000000000000000008152600401612fc490614a9f565b60405180910390fd5b565b600060019054906101000a900460ff1661301e576040517f08c379a000000000000000000000000000000000000000000000000000000000815260040161301590614a9f565b60405180910390fd5b61302e61302961211b565b6121c5565b565b600060019054906101000a900460ff1661307f576040517f08c379a000000000000000000000000000000000000000000000000000000000815260040161307690614a9f565b60405180910390fd5b6000606560006101000a81548160ff021916908315150217905550565b6000919050565b6000806060600080609760009054906101000a900473ffffffffffffffffffffffffffffffffffffffff1673ffffffffffffffffffffffffffffffffffffffff1663e05c57bf886040518263ffffffff1660e01b815260040161310691906137c8565b61016060405180830381865afa158015613124573d6000803e3d6000fd5b505050506040513d601f19601f8201168201806040525081019061314891906140af565b9a50505050505050505050915060008261318e57609a600089815260200190815260200160002060020160009054906101000a900469ffffffffffffffffffff166131bc565b6099600089815260200190815260200160002060020160009054906101000a900469ffffffffffffffffffff165b69ffffffffffffffffffff16426131d39190614430565b9050609760009054906101000a900473ffffffffffffffffffffffffffffffffffffffff1673ffffffffffffffffffffffffffffffffffffffff166363dbfc77896132498661323157609d60029054906101000a900460000b613242565b609d60009054906101000a900460000b5b858761331d565b61327f8761326657609d60039054906101000a900460000b613277565b609d60019054906101000a900460000b5b86600061331d565b6132876133da565b613292576000613294565b8b5b6040518563ffffffff1660e01b81526004016132b39493929190614cfa565b6000604051808303816000875af11580156132d2573d6000803e3d6000fd5b505050506040513d6000823e3d601f19601f820116820180604052508101906132fb9190614de5565b8096508197508298505050505050509250925092565b6000919050565b600090565b600060a05483111561332f5760a05492505b600060a0548560000b856133439190614e5e565b61334d9190614fa4565b905060a054841061336a578260000b81613367919061500e565b90505b606481131561337d5760649150506133d3565b7fffffffffffffffffffffffffffffffffffffffffffffffffffffffffffffff9c8112156133ce577fffffffffffffffffffffffffffffffffffffffffffffffffffffffffffffff9c9150506133d3565b809150505b9392505050565b600090565b50805460008255600f01601090049060005260206000209081019061340491906134b5565b50565b82805482825590600052602060002090600f016010900481019282156134a45791602002820160005b8382111561347457833561ffff1683826101000a81548161ffff021916908361ffff1602179055509260200192600201602081600101049283019260010302613430565b80156134a25782816101000a81549061ffff0219169055600201602081600101049283019260010302613474565b505b5090506134b191906134b5565b5090565b5b808211156134ce5760008160009055506001016134b6565b5090565b60008160000b9050919050565b6134e8816134d2565b82525050565b600060208201905061350360008301846134df565b92915050565b6000604051905090565b600080fd5b600080fd5b600073ffffffffffffffffffffffffffffffffffffffff82169050919050565b60006135488261351d565b9050919050565b6135588161353d565b811461356357600080fd5b50565b6000813590506135758161354f565b92915050565b6000819050919050565b61358e8161357b565b811461359957600080fd5b50565b6000813590506135ab81613585565b92915050565b600080fd5b600080fd5b600080fd5b60008083601f8401126135d6576135d56135b1565b5b8235905067ffffffffffffffff8111156135f3576135f26135b6565b5b60208301915083600182028301111561360f5761360e6135bb565b5b9250929050565b60008060008060006080868803121561363257613631613513565b5b600061364088828901613566565b955050602061365188828901613566565b94505060406136628882890161359c565b935050606086013567ffffffffffffffff81111561368357613682613518565b5b61368f888289016135c0565b92509250509295509295909350565b60007fffffffff0000000000000000000000000000000000000000000000000000000082169050919050565b6136d38161369e565b82525050565b60006020820190506136ee60008301846136ca565b92915050565b60008060006060848603121561370d5761370c613513565b5b600061371b86828701613566565b935050602061372c86828701613566565b925050604061373d8682870161359c565b9150509250925092565b60006020828403121561375d5761375c613513565b5b600061376b8482850161359c565b91505092915050565b600060ff82169050919050565b61378a81613774565b82525050565b60006040820190506137a56000830185613781565b6137b26020830184613781565b9392505050565b6137c28161357b565b82525050565b60006020820190506137dd60008301846137b9565b92915050565b6137ec8161353d565b82525050565b600069ffffffffffffffffffff82169050919050565b613811816137f2565b82525050565b600060808201905061382c60008301876137b9565b61383960208301866137e3565b6138466040830185613808565b6138536060830184613808565b95945050505050565b6000806040838503121561387357613872613513565b5b600061388185828601613566565b925050602061389285828601613566565b9150509250929050565b6000819050919050565b60006138c16138bc6138b78461351d565b61389c565b61351d565b9050919050565b60006138d3826138a6565b9050919050565b60006138e5826138c8565b9050919050565b6138f5816138da565b82525050565b600060208201905061391060008301846138ec565b92915050565b6000819050919050565b61392981613916565b811461393457600080fd5b50565b60008135905061394681613920565b92915050565b6000806040838503121561396357613962613513565b5b600061397185828601613937565b92505060206139828582860161359c565b9150509250929050565b600061ffff82169050919050565b6139a38161398c565b82525050565b60006020820190506139be600083018461399a565b92915050565b60008115159050919050565b6139d9816139c4565b82525050565b60006020820190506139f460008301846139d0565b92915050565b6000602082019050613a0f60008301846137e3565b92915050565b600080fd5b6000601f19601f8301169050919050565b7f4e487b7100000000000000000000000000000000000000000000000000000000600052604160045260246000fd5b613a6382613a1a565b810181811067ffffffffffffffff82111715613a8257613a81613a2b565b5b80604052505050565b6000613a95613509565b9050613aa18282613a5a565b919050565b600080fd5b600067ffffffffffffffff821115613ac657613ac5613a2b565b5b602082029050602081019050919050565b613ae08161398c565b8114613aeb57600080fd5b50565b600081359050613afd81613ad7565b92915050565b6000613b16613b1184613aab565b613a8b565b90508083825260208201905060208402830185811115613b3957613b386135bb565b5b835b81811015613b625780613b4e8882613aee565b845260208401935050602081019050613b3b565b5050509392505050565b600082601f830112613b8157613b806135b1565b5b8135613b91848260208601613b03565b91505092915050565b613ba3816139c4565b8114613bae57600080fd5b50565b600081359050613bc081613b9a565b92915050565b600060a08284031215613bdc57613bdb613a15565b5b613be660a0613a8b565b90506000613bf684828501613937565b6000830152506020613c0a84828501613566565b6020830152506040613c1e84828501613566565b604083015250606082013567ffffffffffffffff811115613c4257613c41613aa6565b5b613c4e84828501613b6c565b6060830152506080613c6284828501613bb1565b60808301525092915050565b60008060408385031215613c8557613c84613513565b5b600083013567ffffffffffffffff811115613ca357613ca2613518565b5b613caf85828601613bc6565b9250506020613cc08582860161359c565b9150509250929050565b613cd3816134d2565b8114613cde57600080fd5b50565b600081359050613cf081613cca565b92915050565b613cff81613774565b8114613d0a57600080fd5b50565b600081359050613d1c81613cf6565b92915050565b600080600080600060a08688031215613d3e57613d3d613513565b5b6000613d4c8882890161359c565b9550506020613d5d8882890161359c565b9450506040613d6e88828901613ce1565b9350506060613d7f88828901613ce1565b9250506080613d9088828901613d0d565b9150509295509295909350565b60008083601f840112613db357613db26135b1565b5b8235905067ffffffffffffffff811115613dd057613dcf6135b6565b5b602083019150836020820283011115613dec57613deb6135bb565b5b9250929050565b600080600060408486031215613e0c57613e0b613513565b5b600084013567ffffffffffffffff811115613e2a57613e29613518565b5b613e3686828701613d9d565b93509350506020613e4986828701613bb1565b9150509250925092565b6000602082019050613e686000830184613781565b92915050565b60008060408385031215613e8557613e84613513565b5b6000613e9385828601613566565b9250506020613ea48582860161359c565b9150509250929050565b600080600060408486031215613ec757613ec6613513565b5b6000613ed586828701613566565b935050602084013567ffffffffffffffff811115613ef657613ef5613518565b5b613f0286828701613d9d565b92509250509250925092565b600060208284031215613f2457613f23613513565b5b6000613f3284828501613566565b91505092915050565b600082825260208201905092915050565b7f43616e6e6f742073656e6420746f6b656e7320746f2056656e7565206469726560008201527f63746c7900000000000000000000000000000000000000000000000000000000602082015250565b6000613fa8602483613f3b565b9150613fb382613f4c565b604082019050919050565b60006020820190508181036000830152613fd781613f9b565b9050919050565b7f496e697469616c697a61626c653a20636f6e747261637420697320616c72656160008201527f647920696e697469616c697a6564000000000000000000000000000000000000602082015250565b600061403a602e83613f3b565b915061404582613fde565b604082019050919050565b600060208201905081810360008301526140698161402d565b9050919050565b60008151905061407f81613b9a565b92915050565b60008151905061409481613cf6565b92915050565b6000815190506140a981613cca565b92915050565b60008060008060008060008060008060006101608c8e0312156140d5576140d4613513565b5b60006140e38e828f01614070565b9b505060206140f48e828f01614085565b9a505060406141058e828f01614085565b99505060606141168e828f01614085565b98505060806141278e828f01614085565b97505060a06141388e828f01614085565b96505060c06141498e828f01614085565b95505060e061415a8e828f01614085565b94505061010061416c8e828f01614085565b93505061012061417e8e828f01614085565b9250506101406141908e828f0161409a565b9150509295989b509295989b9093969950565b7f4f776e61626c653a2063616c6c6572206973206e6f7420746865206f776e6572600082015250565b60006141d9602083613f3b565b91506141e4826141a3565b602082019050919050565b60006020820190508181036000830152614208816141cc565b9050919050565b7f5061757361626c653a2070617573656400000000000000000000000000000000600082015250565b6000614245601083613f3b565b91506142508261420f565b602082019050919050565b6000602082019050818103600083015261427481614238565b9050919050565b7f4f6e6c7920436c61696d2063616e2066756c66696c6c00000000000000000000600082015250565b60006142b1601683613f3b565b91506142bc8261427b565b602082019050919050565b600060208201905081810360008301526142e0816142a4565b9050919050565b7f436c61696d2072657175657374206e6f7420666f756e64000000000000000000600082015250565b600061431d601783613f3b565b9150614328826142e7565b602082019050919050565b6000602082019050818103600083015261434c81614310565b9050919050565b600060408201905061436860008301856137b9565b61437560208301846137b9565b9392505050565b7f4e487b7100000000000000000000000000000000000000000000000000000000600052603260045260246000fd5b7f4e487b7100000000000000000000000000000000000000000000000000000000600052601160045260246000fd5b60006143e58261357b565b91506143f08361357b565b9250827fffffffffffffffffffffffffffffffffffffffffffffffffffffffffffffffff03821115614425576144246143ab565b5b828201905092915050565b600061443b8261357b565b91506144468361357b565b925082821015614459576144586143ab565b5b828203905092915050565b7f4e487b7100000000000000000000000000000000000000000000000000000000600052603160045260246000fd5b600061449e8261357b565b91507fffffffffffffffffffffffffffffffffffffffffffffffffffffffffffffffff8214156144d1576144d06143ab565b5b600182019050919050565b7f496e76616c696420636c61696d20616d6f756e74000000000000000000000000600082015250565b6000614512601483613f3b565b915061451d826144dc565b602082019050919050565b6000602082019050818103600083015261454181614505565b9050919050565b60006020828403121561455e5761455d613513565b5b600061456c84828501613aee565b91505092915050565b7f4e6f7420796f757220746f6b656e000000000000000000000000000000000000600082015250565b60006145ab600e83613f3b565b91506145b682614575565b602082019050919050565b600060208201905081810360008301526145da8161459e565b9050919050565b7f43616e6e6f7420636c61696d206265666f726520454f42000000000000000000600082015250565b6000614617601783613f3b565b9150614622826145e1565b602082019050919050565b600060208201905081810360008301526146468161460a565b9050919050565b600082825260208201905092915050565b6000819050919050565b6146718161398c565b82525050565b60006146838383614668565b60208301905092915050565b600061469e6020840184613aee565b905092915050565b6000602082019050919050565b60006146bf838561464d565b93506146ca8261465e565b8060005b85811015614703576146e0828461468f565b6146ea8882614677565b97506146f5836146a6565b9250506001810190506146ce565b5085925050509392505050565b600060608201905061472560008301876137e3565b81810360208301526147388185876146b3565b905061474760408301846139d0565b95945050505050565b60008151905061475f81613920565b92915050565b60006020828403121561477b5761477a613513565b5b600061478984828501614750565b91505092915050565b7f446f206e6f74206c6f736520796f757220746f6b656e73000000000000000000600082015250565b60006147c8601783613f3b565b91506147d382614792565b602082019050919050565b600060208201905081810360008301526147f7816147bb565b9050919050565b600061481961481461480f8461398c565b61389c565b61357b565b9050919050565b614829816147fe565b82525050565b60006020820190506148446000830184614820565b92915050565b6000815190506148598161354f565b92915050565b60006020828403121561487557614874613513565b5b60006148838482850161484a565b91505092915050565b60006060820190506148a160008301866137e3565b6148ae60208301856137e3565b6148bb6040830184614820565b949350505050565b7f4e6f7420656c696769626c650000000000000000000000000000000000000000600082015250565b60006148f9600c83613f3b565b9150614904826148c3565b602082019050919050565b60006020820190508181036000830152614928816148ec565b9050919050565b7f4b69746368656e20737061636520726571756972656400000000000000000000600082015250565b6000614965601683613f3b565b91506149708261492f565b602082019050919050565b6000602082019050818103600083015261499481614958565b9050919050565b7f4f776e61626c653a206e6577206f776e657220697320746865207a65726f206160008201527f6464726573730000000000000000000000000000000000000000000000000000602082015250565b60006149f7602683613f3b565b9150614a028261499b565b604082019050919050565b60006020820190508181036000830152614a26816149ea565b9050919050565b7f496e697469616c697a61626c653a20636f6e7472616374206973206e6f74206960008201527f6e697469616c697a696e67000000000000000000000000000000000000000000602082015250565b6000614a89602b83613f3b565b9150614a9482614a2d565b604082019050919050565b60006020820190508181036000830152614ab881614a7c565b9050919050565b7f5061757361626c653a206e6f7420706175736564000000000000000000000000600082015250565b6000614af5601483613f3b565b9150614b0082614abf565b602082019050919050565b60006020820190508181036000830152614b2481614ae8565b9050919050565b600082825260208201905092915050565b50565b6000614b4c600083614b2b565b9150614b5782614b3c565b600082019050919050565b6000608082019050614b7760008301866137e3565b614b8460208301856137e3565b614b9160408301846137b9565b8181036060830152614ba281614b3f565b9050949350505050565b6000614bb78261357b565b91506000821415614bcb57614bca6143ab565b5b600182039050919050565b600081519050919050565b60005b83811015614bff578082015181840152602081019050614be4565b83811115614c0e576000848401525b50505050565b6000614c1f82614bd6565b614c298185613f3b565b9350614c39818560208601614be1565b614c4281613a1a565b840191505092915050565b600060e082019050614c62600083018a6137b9565b614c6f60208301896137b9565b614c7c60408301886139d0565b614c896060830187613781565b614c966080830186613781565b81810360a0830152614ca88185614c14565b9050614cb760c08301846137b9565b98975050505050505050565b6000606082019050614cd860008301866137b9565b614ce560208301856137e3565b614cf260408301846137b9565b949350505050565b6000608082019050614d0f60008301876137b9565b614d1c60208301866134df565b614d2960408301856134df565b614d3660608301846137b9565b95945050505050565b600080fd5b600067ffffffffffffffff821115614d5f57614d5e613a2b565b5b614d6882613a1a565b9050602081019050919050565b6000614d88614d8384614d44565b613a8b565b905082815260208101848484011115614da457614da3614d3f565b5b614daf848285614be1565b509392505050565b600082601f830112614dcc57614dcb6135b1565b5b8151614ddc848260208601614d75565b91505092915050565b600080600060608486031215614dfe57614dfd613513565b5b6000614e0c86828701614085565b9350506020614e1d86828701614085565b925050604084015167ffffffffffffffff811115614e3e57614e3d613518565b5b614e4a86828701614db7565b9150509250925092565b6000819050919050565b6000614e6982614e54565b9150614e7483614e54565b9250827f7fffffffffffffffffffffffffffffffffffffffffffffffffffffffffffffff0482116000841360008413161615614eb357614eb26143ab565b5b817f80000000000000000000000000000000000000000000000000000000000000000583126000841260008413161615614ef057614eef6143ab565b5b827f80000000000000000000000000000000000000000000000000000000000000000582126000841360008412161615614f2d57614f2c6143ab565b5b827f7fffffffffffffffffffffffffffffffffffffffffffffffffffffffffffffff0582126000841260008412161615614f6a57614f696143ab565b5b828202905092915050565b7f4e487b7100000000000000000000000000000000000000000000000000000000600052601260045260246000fd5b6000614faf82614e54565b9150614fba83614e54565b925082614fca57614fc9614f75565b5b600160000383147f800000000000000000000000000000000000000000000000000000000000000083141615615003576150026143ab565b5b828205905092915050565b600061501982614e54565b915061502483614e54565b9250817f7fffffffffffffffffffffffffffffffffffffffffffffffffffffffffffffff0383136000831215161561505f5761505e6143ab565b5b817f8000000000000000000000000000000000000000000000000000000000000000038312600083121615615097576150966143ab565b5b82820190509291505056fea2646970667358221220d0d261a17c098d4e0166a1cabd126545847fbff436db3d9e9e871d353e9c2ff364736f6c634300080a0033",
  "immutableReferences": {},
  "source": "// SPDX-License-Identifier: MIT\n\npragma solidity ^0.8.0;\n\nimport \"./VenueV2.sol\";\n\ncontract GymV2 is VenueV2 {\n  function initialize(\n    address _character,\n    address _claim\n  ) external initializer {\n    __Ownable_init();\n    __Pausable_init();\n\n    character = Character(_character);\n    claim = IClaim(_claim);\n  }\n\n  /**\n   * Allows DAO to update game parameters\n   */\n  function configure(\n    uint256 _vestingPeriod,\n    uint256 _accrualPeriod,\n    int8 _dailyFreakRate,\n    int8 _dailyBodyMassRate,\n    uint8 _maxClaimsPerTx\n  ) external onlyOwner {\n    vestingPeriod = _vestingPeriod;\n    accrualPeriod = _accrualPeriod;\n    dailyFreakRate = _dailyFreakRate;\n    dailyBodyMassRate = _dailyBodyMassRate;\n    maxClaimsPerTx = _maxClaimsPerTx;\n  }\n\n  function foo() public pure returns (uint8) {\n    return 42;\n  }\n}\n",
  "sourcePath": "/Users/chris/workspace/ratalert/ratalert-contracts/contracts/GymV2.sol",
  "compiler": {
    "name": "solc",
    "version": "0.8.10+commit.fc410830.Emscripten.clang"
  },
  "schemaVersion": "3.4.6",
  "updatedAt": "2022-03-30T12:22:55.281Z",
  "networkType": "ethereum",
  "devdoc": {
    "kind": "dev",
    "methods": {
      "claimMany(uint16[],bool)": {
        "params": {
          "tokenIds": "- The IDs of the tokens in question",
          "unstake": "- Whether or not to unstake the given tokens"
        }
      },
      "fulfillClaimMany((bytes32,address,address,uint16[],bool),uint256)": {
        "params": {
          "randomness": "- Random value created by VRF",
          "v": "- VRF struct for the corresponding request"
        }
      },
      "getProperties(uint256)": {
        "params": {
          "tokenId": "- The ID of the token to check"
        },
        "returns": {
          "efficiency": "& tolerance values"
        }
      },
      "isChef(uint256)": {
        "params": {
          "tokenId": "- The ID of the token to check"
        },
        "returns": {
          "chef": "- Whether or not the token is a Chef"
        }
      },
      "owner()": {
        "details": "Returns the address of the current owner."
      },
      "paused()": {
        "details": "Returns true if the contract is paused, and false otherwise."
      },
      "renounceOwnership()": {
        "details": "Leaves the contract without owner. It will not be possible to call `onlyOwner` functions anymore. Can only be called by the current owner. NOTE: Renouncing ownership will leave the contract without an owner, thereby removing any functionality that is only available to the owner."
      },
      "stakeMany(address,uint16[])": {
        "params": {
          "account": "- The address of the staker",
          "tokenIds": "- The IDs of the Chefs & Rats to stake"
        }
      },
      "transferOwnership(address)": {
        "details": "Transfers ownership of the contract to a new account (`newOwner`). Can only be called by the current owner."
      }
    },
    "version": 1
  },
  "userdoc": {
    "kind": "user",
    "methods": {
      "claimMany(uint16[],bool)": {
        "notice": "ChainLink VRF request: Claims food token earnings, level-ups and optionally unstake characters"
      },
      "configure(uint256,uint256,int8,int8,uint8)": {
        "notice": "Allows DAO to update game parameters"
      },
      "fulfillClaimMany((bytes32,address,address,uint16[],bool),uint256)": {
        "notice": "Callback for claimMany(), called by Claim.fulfillRandomness()"
      },
      "getProperties(uint256)": {
        "notice": "Get the character's properties"
      },
      "isChef(uint256)": {
        "notice": "Checks if the token is a Chef"
      },
      "stakeMany(address,uint16[])": {
        "notice": "Adds Characters to staking"
      }
    },
    "version": 1
  }
}