{
  "contractName": "GymV2",
  "abi": [
    {
      "anonymous": false,
      "inputs": [
        {
          "indexed": false,
          "internalType": "uint256",
          "name": "tokenId",
          "type": "uint256"
        },
        {
          "indexed": false,
          "internalType": "uint256",
          "name": "earned",
          "type": "uint256"
        },
        {
          "indexed": false,
          "internalType": "bool",
          "name": "unstaked",
          "type": "bool"
        },
        {
          "indexed": false,
          "internalType": "uint8",
          "name": "skill",
          "type": "uint8"
        },
        {
          "indexed": false,
          "internalType": "uint8",
          "name": "freak",
          "type": "uint8"
        },
        {
          "indexed": false,
          "internalType": "string",
          "name": "eventName",
          "type": "string"
        },
        {
          "indexed": false,
          "internalType": "uint256",
          "name": "foodTokensPerRat",
          "type": "uint256"
        }
      ],
      "name": "ChefClaimed",
      "type": "event"
    },
    {
      "anonymous": false,
      "inputs": [
        {
          "indexed": true,
          "internalType": "address",
          "name": "previousOwner",
          "type": "address"
        },
        {
          "indexed": true,
          "internalType": "address",
          "name": "newOwner",
          "type": "address"
        }
      ],
      "name": "OwnershipTransferred",
      "type": "event"
    },
    {
      "anonymous": false,
      "inputs": [
        {
          "indexed": false,
          "internalType": "address",
          "name": "account",
          "type": "address"
        }
      ],
      "name": "Paused",
      "type": "event"
    },
    {
      "anonymous": false,
      "inputs": [
        {
          "indexed": false,
          "internalType": "uint256",
          "name": "tokenId",
          "type": "uint256"
        },
        {
          "indexed": false,
          "internalType": "uint256",
          "name": "earned",
          "type": "uint256"
        },
        {
          "indexed": false,
          "internalType": "bool",
          "name": "unstaked",
          "type": "bool"
        },
        {
          "indexed": false,
          "internalType": "uint8",
          "name": "intelligence",
          "type": "uint8"
        },
        {
          "indexed": false,
          "internalType": "uint8",
          "name": "bodyMass",
          "type": "uint8"
        },
        {
          "indexed": false,
          "internalType": "string",
          "name": "eventName",
          "type": "string"
        },
        {
          "indexed": false,
          "internalType": "uint256",
          "name": "foodTokensPerRat",
          "type": "uint256"
        }
      ],
      "name": "RatClaimed",
      "type": "event"
    },
    {
      "anonymous": false,
      "inputs": [
        {
          "indexed": false,
          "internalType": "uint256",
          "name": "tokenId",
          "type": "uint256"
        },
        {
          "indexed": false,
          "internalType": "address",
          "name": "owner",
          "type": "address"
        },
        {
          "indexed": false,
          "internalType": "uint256",
          "name": "value",
          "type": "uint256"
        }
      ],
      "name": "TokenStaked",
      "type": "event"
    },
    {
      "anonymous": false,
      "inputs": [
        {
          "indexed": false,
          "internalType": "address",
          "name": "account",
          "type": "address"
        }
      ],
      "name": "Unpaused",
      "type": "event"
    },
    {
      "inputs": [
        {
          "internalType": "uint256",
          "name": "",
          "type": "uint256"
        }
      ],
      "name": "chefs",
      "outputs": [
        {
          "internalType": "uint256",
          "name": "tokenId",
          "type": "uint256"
        },
        {
          "internalType": "address",
          "name": "owner",
          "type": "address"
        },
        {
          "internalType": "uint80",
          "name": "value",
          "type": "uint80"
        },
        {
          "internalType": "uint80",
          "name": "timestamp",
          "type": "uint80"
        }
      ],
      "stateMutability": "view",
      "type": "function",
      "constant": true
    },
    {
      "inputs": [
        {
          "internalType": "uint16[]",
          "name": "tokenIds",
          "type": "uint16[]"
        },
        {
          "internalType": "bool",
          "name": "unstake",
          "type": "bool"
        }
      ],
      "name": "claimMany",
      "outputs": [],
      "stateMutability": "payable",
      "type": "function",
      "payable": true
    },
    {
      "inputs": [],
      "name": "foodTokensPerRat",
      "outputs": [
        {
          "internalType": "uint256",
          "name": "",
          "type": "uint256"
        }
      ],
      "stateMutability": "view",
      "type": "function",
      "constant": true
    },
    {
      "inputs": [
        {
          "components": [
            {
              "internalType": "bytes32",
              "name": "requestId",
              "type": "bytes32"
            },
            {
              "internalType": "address",
              "name": "venue",
              "type": "address"
            },
            {
              "internalType": "address",
              "name": "sender",
              "type": "address"
            },
            {
              "internalType": "uint16[]",
              "name": "tokenIds",
              "type": "uint16[]"
            },
            {
              "internalType": "bool",
              "name": "unstake",
              "type": "bool"
            }
          ],
          "internalType": "struct IClaim.VRFStruct",
          "name": "v",
          "type": "tuple"
        },
        {
          "internalType": "uint256",
          "name": "randomness",
          "type": "uint256"
        }
      ],
      "name": "fulfillClaimMany",
      "outputs": [],
      "stateMutability": "nonpayable",
      "type": "function"
    },
    {
      "inputs": [
        {
          "internalType": "address",
          "name": "account",
          "type": "address"
        }
      ],
      "name": "getChefsStaked",
      "outputs": [
        {
          "internalType": "uint256",
          "name": "",
          "type": "uint256"
        }
      ],
      "stateMutability": "view",
      "type": "function",
      "constant": true
    },
    {
      "inputs": [
        {
          "internalType": "address",
          "name": "",
          "type": "address"
        },
        {
          "internalType": "address",
          "name": "from",
          "type": "address"
        },
        {
          "internalType": "uint256",
          "name": "",
          "type": "uint256"
        },
        {
          "internalType": "bytes",
          "name": "",
          "type": "bytes"
        }
      ],
      "name": "onERC721Received",
      "outputs": [
        {
          "internalType": "bytes4",
          "name": "",
          "type": "bytes4"
        }
      ],
      "stateMutability": "pure",
      "type": "function",
      "constant": true
    },
    {
      "inputs": [],
      "name": "owner",
      "outputs": [
        {
          "internalType": "address",
          "name": "",
          "type": "address"
        }
      ],
      "stateMutability": "view",
      "type": "function",
      "constant": true
    },
    {
      "inputs": [],
      "name": "pause",
      "outputs": [],
      "stateMutability": "nonpayable",
      "type": "function"
    },
    {
      "inputs": [],
      "name": "paused",
      "outputs": [
        {
          "internalType": "bool",
          "name": "",
          "type": "bool"
        }
      ],
      "stateMutability": "view",
      "type": "function",
      "constant": true
    },
    {
      "inputs": [
        {
          "internalType": "uint256",
          "name": "",
          "type": "uint256"
        }
      ],
      "name": "rats",
      "outputs": [
        {
          "internalType": "uint256",
          "name": "tokenId",
          "type": "uint256"
        },
        {
          "internalType": "address",
          "name": "owner",
          "type": "address"
        },
        {
          "internalType": "uint80",
          "name": "value",
          "type": "uint80"
        },
        {
          "internalType": "uint80",
          "name": "timestamp",
          "type": "uint80"
        }
      ],
      "stateMutability": "view",
      "type": "function",
      "constant": true
    },
    {
      "inputs": [],
      "name": "renounceOwnership",
      "outputs": [],
      "stateMutability": "nonpayable",
      "type": "function"
    },
    {
      "inputs": [
        {
          "internalType": "address",
          "name": "_dao",
          "type": "address"
        }
      ],
      "name": "setDao",
      "outputs": [],
      "stateMutability": "nonpayable",
      "type": "function"
    },
    {
      "inputs": [
        {
          "internalType": "address",
          "name": "account",
          "type": "address"
        },
        {
          "internalType": "uint16[]",
          "name": "tokenIds",
          "type": "uint16[]"
        }
      ],
      "name": "stakeMany",
      "outputs": [],
      "stateMutability": "nonpayable",
      "type": "function"
    },
    {
      "inputs": [
        {
          "internalType": "address",
          "name": "",
          "type": "address"
        },
        {
          "internalType": "uint256",
          "name": "",
          "type": "uint256"
        }
      ],
      "name": "stakers",
      "outputs": [
        {
          "internalType": "uint256",
          "name": "",
          "type": "uint256"
        }
      ],
      "stateMutability": "view",
      "type": "function",
      "constant": true
    },
    {
      "inputs": [],
      "name": "totalChefsStaked",
      "outputs": [
        {
          "internalType": "uint256",
          "name": "",
          "type": "uint256"
        }
      ],
      "stateMutability": "view",
      "type": "function",
      "constant": true
    },
    {
      "inputs": [],
      "name": "totalRatsStaked",
      "outputs": [
        {
          "internalType": "uint256",
          "name": "",
          "type": "uint256"
        }
      ],
      "stateMutability": "view",
      "type": "function",
      "constant": true
    },
    {
      "inputs": [
        {
          "internalType": "address",
          "name": "newOwner",
          "type": "address"
        }
      ],
      "name": "transferOwnership",
      "outputs": [],
      "stateMutability": "nonpayable",
      "type": "function"
    },
    {
      "inputs": [],
      "name": "unpause",
      "outputs": [],
      "stateMutability": "nonpayable",
      "type": "function"
    },
    {
      "inputs": [],
      "name": "withdrawPayments",
      "outputs": [],
      "stateMutability": "nonpayable",
      "type": "function"
    },
    {
      "inputs": [
        {
          "internalType": "address",
          "name": "_character",
          "type": "address"
        },
        {
          "internalType": "address",
          "name": "_claim",
          "type": "address"
        },
        {
          "internalType": "uint256",
          "name": "_accrualPeriod",
          "type": "uint256"
        }
      ],
      "name": "initialize",
      "outputs": [],
      "stateMutability": "nonpayable",
      "type": "function"
    },
    {
      "inputs": [
        {
          "internalType": "address",
          "name": "_character",
          "type": "address"
        },
        {
          "internalType": "address",
          "name": "_claim",
          "type": "address"
        }
      ],
      "name": "initialize",
      "outputs": [],
      "stateMutability": "nonpayable",
      "type": "function"
    },
    {
      "inputs": [
        {
          "internalType": "uint256",
          "name": "_vestingPeriod",
          "type": "uint256"
        },
        {
          "internalType": "uint256",
          "name": "_accrualPeriod",
          "type": "uint256"
        },
        {
          "internalType": "int8",
          "name": "_dailyFreakRate",
          "type": "int8"
        },
        {
          "internalType": "int8",
          "name": "_dailyBodyMassRate",
          "type": "int8"
        },
        {
          "internalType": "uint8",
          "name": "_maxClaimsPerTx",
          "type": "uint8"
        },
        {
          "internalType": "uint256",
          "name": "_claimFee",
          "type": "uint256"
        }
      ],
      "name": "configure",
      "outputs": [],
      "stateMutability": "nonpayable",
      "type": "function"
    }
  ],
  "bytecode": "0x608060405234801561001057600080fd5b506150f7806100206000396000f3fe6080604052600436106101355760003560e01c80636637b882116100ab578063a7a102901161006f578063a7a10290146103e0578063c8b6cbf7146103fc578063dbdc1f6b14610439578063e7e3bbbe14610462578063f26667461461048b578063f2fde38b146104b657610135565b80636637b88214610335578063715018a61461035e5780638456cb59146103755780638da5cb5b1461038c578063922a1802146103b757610135565b8063485cc955116100fd578063485cc95514610222578063499f80101461024b5780634c4913ec146102765780634d1c61af146102b35780635c975abb146102f35780636103d70b1461031e57610135565b8063150b7a021461013a5780631794bb3c146101775780632535a77f146101a057806335ec066e146101cb5780633f4ba83a1461020b575b600080fd5b34801561014657600080fd5b50610161600480360381019061015c919061364d565b6104df565b60405161016e9190613710565b60405180910390f35b34801561018357600080fd5b5061019e6004803603810190610199919061372b565b610562565b005b3480156101ac57600080fd5b506101b561075e565b6040516101c2919061378d565b60405180910390f35b3480156101d757600080fd5b506101f260048036038101906101ed91906137a8565b610764565b6040516102029493929190613809565b60405180910390f35b34801561021757600080fd5b506102206107e0565b005b34801561022e57600080fd5b506102496004803603810190610244919061384e565b6107f2565b005b34801561025757600080fd5b5061026061096a565b60405161026d919061378d565b60405180910390f35b34801561028257600080fd5b5061029d6004803603810190610298919061388e565b610970565b6040516102aa919061378d565b60405180910390f35b3480156102bf57600080fd5b506102da60048036038101906102d591906137a8565b6109bc565b6040516102ea9493929190613809565b60405180910390f35b3480156102ff57600080fd5b50610308610a38565b60405161031591906138d6565b60405180910390f35b34801561032a57600080fd5b50610333610a4f565b005b34801561034157600080fd5b5061035c6004803603810190610357919061388e565b610ac2565b005b34801561036a57600080fd5b50610373610b82565b005b34801561038157600080fd5b5061038a610c0a565b005b34801561039857600080fd5b506103a1610c1c565b6040516103ae91906138f1565b60405180910390f35b3480156103c357600080fd5b506103de60048036038101906103d99190613ba9565b610c46565b005b6103fa60048036038101906103f59190613c5b565b61122d565b005b34801561040857600080fd5b50610423600480360381019061041e9190613cbb565b6116f3565b604051610430919061378d565b60405180910390f35b34801561044557600080fd5b50610460600480360381019061045b9190613cfb565b611724565b005b34801561046e57600080fd5b5061048960048036038101906104849190613dcd565b611da3565b005b34801561049757600080fd5b506104a0611e93565b6040516104ad919061378d565b60405180910390f35b3480156104c257600080fd5b506104dd60048036038101906104d8919061388e565b611e99565b005b60008073ffffffffffffffffffffffffffffffffffffffff168573ffffffffffffffffffffffffffffffffffffffff161461054f576040517f08c379a000000000000000000000000000000000000000000000000000000000815260040161054690613edd565b60405180910390fd5b63150b7a0260e01b905095945050505050565b600060019054906101000a900460ff1661058a5760008054906101000a900460ff1615610593565b610592611f91565b5b6105d2576040517f08c379a00000000000000000000000000000000000000000000000000000000081526004016105c990613f6f565b60405180910390fd5b60008060019054906101000a900460ff161590508015610622576001600060016101000a81548160ff02191690831515021790555060016000806101000a81548160ff0219169083151502179055505b61062a611fa2565b610632611ffb565b83609860006101000a81548173ffffffffffffffffffffffffffffffffffffffff021916908373ffffffffffffffffffffffffffffffffffffffff16021790555082609960006101000a81548173ffffffffffffffffffffffffffffffffffffffff021916908373ffffffffffffffffffffffffffffffffffffffff1602179055508160a2819055506000609e60006101000a81548160ff021916908360000b60ff1602179055506000609e60016101000a81548160ff021916908360000b60ff1602179055506000609e60026101000a81548160ff021916908360000b60ff1602179055506000609e60036101000a81548160ff021916908360000b60ff16021790555080156107585760008060016101000a81548160ff0219169083151502179055505b50505050565b60a35481565b609b6020528060005260406000206000915090508060000154908060010160009054906101000a900473ffffffffffffffffffffffffffffffffffffffff16908060010160149054906101000a900469ffffffffffffffffffff16908060020160009054906101000a900469ffffffffffffffffffff16905084565b6107e8612054565b6107f06120e6565b565b600060019054906101000a900460ff1661081a5760008054906101000a900460ff1615610823565b610822611f91565b5b610862576040517f08c379a000000000000000000000000000000000000000000000000000000000815260040161085990613f6f565b60405180910390fd5b60008060019054906101000a900460ff1615905080156108b2576001600060016101000a81548160ff02191690831515021790555060016000806101000a81548160ff0219169083151502179055505b6108ba611fa2565b6108c2611ffb565b82609860006101000a81548173ffffffffffffffffffffffffffffffffffffffff021916908373ffffffffffffffffffffffffffffffffffffffff16021790555081609960006101000a81548173ffffffffffffffffffffffffffffffffffffffff021916908373ffffffffffffffffffffffffffffffffffffffff16021790555080156109655760008060016101000a81548160ff0219169083151502179055505b505050565b60a05481565b6000609c60008373ffffffffffffffffffffffffffffffffffffffff1673ffffffffffffffffffffffffffffffffffffffff168152602001908152602001600020805490509050919050565b609a6020528060005260406000206000915090508060000154908060010160009054906101000a900473ffffffffffffffffffffffffffffffffffffffff16908060010160149054906101000a900469ffffffffffffffffffff16908060020160009054906101000a900469ffffffffffffffffffff16905084565b6000603360009054906101000a900460ff16905090565b610a57612054565b609760009054906101000a900473ffffffffffffffffffffffffffffffffffffffff1673ffffffffffffffffffffffffffffffffffffffff166108fc479081150290604051600060405180830381858888f19350505050158015610abf573d6000803e3d6000fd5b50565b610aca612188565b73ffffffffffffffffffffffffffffffffffffffff16610ae8610c1c565b73ffffffffffffffffffffffffffffffffffffffff1614610b3e576040517f08c379a0000000000000000000000000000000000000000000000000000000008152600401610b3590613fdb565b60405180910390fd5b80609760006101000a81548173ffffffffffffffffffffffffffffffffffffffff021916908373ffffffffffffffffffffffffffffffffffffffff16021790555050565b610b8a612188565b73ffffffffffffffffffffffffffffffffffffffff16610ba8610c1c565b73ffffffffffffffffffffffffffffffffffffffff1614610bfe576040517f08c379a0000000000000000000000000000000000000000000000000000000008152600401610bf590613fdb565b60405180910390fd5b610c086000612190565b565b610c12612054565b610c1a612256565b565b6000606560009054906101000a900473ffffffffffffffffffffffffffffffffffffffff16905090565b610c4e610a38565b15610c8e576040517f08c379a0000000000000000000000000000000000000000000000000000000008152600401610c8590614047565b60405180910390fd5b609960009054906101000a900473ffffffffffffffffffffffffffffffffffffffff1673ffffffffffffffffffffffffffffffffffffffff163373ffffffffffffffffffffffffffffffffffffffff1614610d1e576040517f08c379a0000000000000000000000000000000000000000000000000000000008152600401610d15906140b3565b60405180910390fd5b6000609d6000846000015181526020019081526020016000208054905011610d7b576040517f08c379a0000000000000000000000000000000000000000000000000000000008152600401610d729061411f565b60405180910390fd5b6000609d600084600001518152602001908152602001600020805480602002602001604051908101604052809291908181526020018280548015610e0657602002820191906000526020600020906000905b82829054906101000a900461ffff1661ffff1681526020019060020190602082600101049283019260010382029150808411610dcd5790505b50505050509050609d6000846000015181526020019081526020016000206000610e30919061344d565b6000805b825181101561120e5760008482604051602001610e5292919061413f565b6040516020818303038152906040528051906020012060001c9050610e94848381518110610e8357610e82614168565b5b602002602001015161ffff166122f9565b156111b85760005b609c6000886040015173ffffffffffffffffffffffffffffffffffffffff1673ffffffffffffffffffffffffffffffffffffffff1681526020019081526020016000208054905081101561110157848381518110610efd57610efc614168565b5b602002602001015161ffff16609c6000896040015173ffffffffffffffffffffffffffffffffffffffff1673ffffffffffffffffffffffffffffffffffffffff1681526020019081526020016000208281548110610f5e57610f5d614168565b5b906000526020600020015414156110ee57609c6000886040015173ffffffffffffffffffffffffffffffffffffffff1673ffffffffffffffffffffffffffffffffffffffff1681526020019081526020016000206001609c60008a6040015173ffffffffffffffffffffffffffffffffffffffff1673ffffffffffffffffffffffffffffffffffffffff1681526020019081526020016000208054905061100591906141c6565b8154811061101657611015614168565b5b9060005260206000200154609c6000896040015173ffffffffffffffffffffffffffffffffffffffff1673ffffffffffffffffffffffffffffffffffffffff168152602001908152602001600020828154811061107657611075614168565b5b9060005260206000200181905550609c6000886040015173ffffffffffffffffffffffffffffffffffffffff1673ffffffffffffffffffffffffffffffffffffffff1681526020019081526020016000208054806110d7576110d66141fa565b5b600190038181906000526020600020016000905590555b80806110f990614229565b915050610e9c565b5060006111588760400151609c60008a6040015173ffffffffffffffffffffffffffffffffffffffff1673ffffffffffffffffffffffffffffffffffffffff168152602001908152602001600020805490506123d8565b905060028114156111715761117087604001516123e4565b5b6111a585848151811061118757611186614168565b5b602002602001015161ffff16886040015189608001516000866123e7565b846111b09190614272565b9350506111fa565b6111ec8483815181106111ce576111cd614168565b5b602002602001015161ffff1687604001518860800151600085612831565b836111f79190614272565b92505b50808061120690614229565b915050610e34565b50600081111561122757611226846040015182612c7d565b5b50505050565b611235610a38565b15611275576040517f08c379a000000000000000000000000000000000000000000000000000000000815260040161126c90614047565b60405180910390fd5b61127d612188565b73ffffffffffffffffffffffffffffffffffffffff163273ffffffffffffffffffffffffffffffffffffffff16146112ea576040517f08c379a00000000000000000000000000000000000000000000000000000000081526004016112e190614314565b60405180910390fd5b60a460009054906101000a900460ff1660ff16838390501115611342576040517f08c379a000000000000000000000000000000000000000000000000000000000815260040161133990614380565b60405180910390fd5b60a5543414611386576040517f08c379a000000000000000000000000000000000000000000000000000000000815260040161137d906143ec565b60405180910390fd5b60005b8383905081101561161a5760006113ca8585848181106113ac576113ab614168565b5b90506020020160208101906113c1919061440c565b61ffff166122f9565b61141157609b60008686858181106113e5576113e4614168565b5b90506020020160208101906113fa919061440c565b61ffff168152602001908152602001600020611450565b609a600086868581811061142857611427614168565b5b905060200201602081019061143d919061440c565b61ffff1681526020019081526020016000205b604051806080016040529081600082015481526020016001820160009054906101000a900473ffffffffffffffffffffffffffffffffffffffff1673ffffffffffffffffffffffffffffffffffffffff1673ffffffffffffffffffffffffffffffffffffffff1681526020016001820160149054906101000a900469ffffffffffffffffffff1669ffffffffffffffffffff1669ffffffffffffffffffff1681526020016002820160009054906101000a900469ffffffffffffffffffff1669ffffffffffffffffffff1669ffffffffffffffffffff16815250509050611535612188565b73ffffffffffffffffffffffffffffffffffffffff16816020015173ffffffffffffffffffffffffffffffffffffffff16146115a6576040517f08c379a000000000000000000000000000000000000000000000000000000000815260040161159d90614485565b60405180910390fd5b60a154816060015169ffffffffffffffffffff16426115c591906141c6565b1015611606576040517f08c379a00000000000000000000000000000000000000000000000000000000081526004016115fd906144f1565b60405180910390fd5b50808061161290614229565b915050611389565b506000609960009054906101000a900473ffffffffffffffffffffffffffffffffffffffff1673ffffffffffffffffffffffffffffffffffffffff16635bdf263c611663612188565b8686866040518563ffffffff1660e01b815260040161168594939291906145d4565b6020604051808303816000875af11580156116a4573d6000803e3d6000fd5b505050506040513d601f19601f820116820180604052508101906116c89190614629565b90508383609d600084815260200190815260200160002091906116ec929190613475565b5050505050565b609c602052816000526040600020818154811061170f57600080fd5b90600052602060002001600091509150505481565b61172c612188565b73ffffffffffffffffffffffffffffffffffffffff163273ffffffffffffffffffffffffffffffffffffffff161480156117985750611769612188565b73ffffffffffffffffffffffffffffffffffffffff168373ffffffffffffffffffffffffffffffffffffffff16145b806117f75750609860009054906101000a900473ffffffffffffffffffffffffffffffffffffffff1673ffffffffffffffffffffffffffffffffffffffff166117df612188565b73ffffffffffffffffffffffffffffffffffffffff16145b611836576040517f08c379a000000000000000000000000000000000000000000000000000000000815260040161182d90614314565b60405180910390fd5b60005b82829050811015611d9d57600083838381811061185957611858614168565b5b905060200201602081019061186e919061440c565b61ffff16141561187d57611d8a565b609860009054906101000a900473ffffffffffffffffffffffffffffffffffffffff1673ffffffffffffffffffffffffffffffffffffffff166118be612188565b73ffffffffffffffffffffffffffffffffffffffff1614611a11576118e1612188565b73ffffffffffffffffffffffffffffffffffffffff16609860009054906101000a900473ffffffffffffffffffffffffffffffffffffffff1673ffffffffffffffffffffffffffffffffffffffff16636352211e85858581811061194857611947614168565b5b905060200201602081019061195d919061440c565b6040518263ffffffff1660e01b81526004016119799190614691565b602060405180830381865afa158015611996573d6000803e3d6000fd5b505050506040513d601f19601f820116820180604052508101906119ba91906146c1565b73ffffffffffffffffffffffffffffffffffffffff1614611a10576040517f08c379a0000000000000000000000000000000000000000000000000000000008152600401611a0790614485565b60405180910390fd5b5b611a45838383818110611a2757611a26614168565b5b9050602002016020810190611a3c919061440c565b61ffff16612c81565b611a84576040517f08c379a0000000000000000000000000000000000000000000000000000000008152600401611a7b9061473a565b60405180910390fd5b611ab8838383818110611a9a57611a99614168565b5b9050602002016020810190611aaf919061440c565b61ffff166122f9565b15611c3757609c60008573ffffffffffffffffffffffffffffffffffffffff1673ffffffffffffffffffffffffffffffffffffffff168152602001908152602001600020838383818110611b0f57611b0e614168565b5b9050602002016020810190611b24919061440c565b908060018154018082558091505060019003906000526020600020016000909161ffff169091909150556000611ba3611b5b612188565b609c60008873ffffffffffffffffffffffffffffffffffffffff1673ffffffffffffffffffffffffffffffffffffffff168152602001908152602001600020805490506123d8565b90506000811215611be9576040517f08c379a0000000000000000000000000000000000000000000000000000000008152600401611be0906147a6565b60405180910390fd5b6000811415611bfc57611bfb85612c8c565b5b611c3185858585818110611c1357611c12614168565b5b9050602002016020810190611c28919061440c565b61ffff16612c8f565b50611c6d565b611c6c84848484818110611c4e57611c4d614168565b5b9050602002016020810190611c63919061440c565b61ffff16612e4e565b5b609860009054906101000a900473ffffffffffffffffffffffffffffffffffffffff1673ffffffffffffffffffffffffffffffffffffffff16611cae612188565b73ffffffffffffffffffffffffffffffffffffffff1614611d8957609860009054906101000a900473ffffffffffffffffffffffffffffffffffffffff1673ffffffffffffffffffffffffffffffffffffffff166323b872dd611d0f612188565b30868686818110611d2357611d22614168565b5b9050602002016020810190611d38919061440c565b6040518463ffffffff1660e01b8152600401611d56939291906147c6565b600060405180830381600087803b158015611d7057600080fd5b505af1158015611d84573d6000803e3d6000fd5b505050505b5b8080611d9590614229565b915050611839565b50505050565b611dab612188565b73ffffffffffffffffffffffffffffffffffffffff16611dc9610c1c565b73ffffffffffffffffffffffffffffffffffffffff1614611e1f576040517f08c379a0000000000000000000000000000000000000000000000000000000008152600401611e1690613fdb565b60405180910390fd5b8560a1819055508460a28190555083609e60016101000a81548160ff021916908360000b60ff16021790555082609e60036101000a81548160ff021916908360000b60ff1602179055508160a460006101000a81548160ff021916908360ff1602179055508060a581905550505050505050565b609f5481565b611ea1612188565b73ffffffffffffffffffffffffffffffffffffffff16611ebf610c1c565b73ffffffffffffffffffffffffffffffffffffffff1614611f15576040517f08c379a0000000000000000000000000000000000000000000000000000000008152600401611f0c90613fdb565b60405180910390fd5b600073ffffffffffffffffffffffffffffffffffffffff168173ffffffffffffffffffffffffffffffffffffffff161415611f85576040517f08c379a0000000000000000000000000000000000000000000000000000000008152600401611f7c9061486f565b60405180910390fd5b611f8e81612190565b50565b6000611f9c30613011565b15905090565b600060019054906101000a900460ff16611ff1576040517f08c379a0000000000000000000000000000000000000000000000000000000008152600401611fe890614901565b60405180910390fd5b611ff9613034565b565b600060019054906101000a900460ff1661204a576040517f08c379a000000000000000000000000000000000000000000000000000000000815260040161204190614901565b60405180910390fd5b612052613095565b565b609760009054906101000a900473ffffffffffffffffffffffffffffffffffffffff1673ffffffffffffffffffffffffffffffffffffffff163373ffffffffffffffffffffffffffffffffffffffff16146120e4576040517f08c379a00000000000000000000000000000000000000000000000000000000081526004016120db9061496d565b60405180910390fd5b565b6120ee610a38565b61212d576040517f08c379a0000000000000000000000000000000000000000000000000000000008152600401612124906149d9565b60405180910390fd5b6000603360006101000a81548160ff0219169083151502179055507f5db9ee0a495bf2e6ff9c91a7834c1ba4fdd244a5e8aa4e537bd38aeae4b073aa612171612188565b60405161217e91906138f1565b60405180910390a1565b600033905090565b6000606560009054906101000a900473ffffffffffffffffffffffffffffffffffffffff16905081606560006101000a81548173ffffffffffffffffffffffffffffffffffffffff021916908373ffffffffffffffffffffffffffffffffffffffff1602179055508173ffffffffffffffffffffffffffffffffffffffff168173ffffffffffffffffffffffffffffffffffffffff167f8be0079c531659141344cd1fd0a4f28419497f9722a3daafe3b4186f6b6457e060405160405180910390a35050565b61225e610a38565b1561229e576040517f08c379a000000000000000000000000000000000000000000000000000000000815260040161229590614047565b60405180910390fd5b6001603360006101000a81548160ff0219169083151502179055507f62e78cea01bee320cd4e420270b5ea74000d11b0c9f74754ebdbfc544b05a2586122e2612188565b6040516122ef91906138f1565b60405180910390a1565b6000609860009054906101000a900473ffffffffffffffffffffffffffffffffffffffff1673ffffffffffffffffffffffffffffffffffffffff1663e05c57bf836040518263ffffffff1660e01b8152600401612356919061378d565b61016060405180830381865afa158015612374573d6000803e3d6000fd5b505050506040513d601f19601f820116820180604052508101906123989190614a38565b9091929394959697985090919293949596975090919293949596509091929394955090919293945090919293509091925090915090505080915050919050565b60006002905092915050565b50565b600080609a6000888152602001908152602001600020604051806080016040529081600082015481526020016001820160009054906101000a900473ffffffffffffffffffffffffffffffffffffffff1673ffffffffffffffffffffffffffffffffffffffff1673ffffffffffffffffffffffffffffffffffffffff1681526020016001820160149054906101000a900469ffffffffffffffffffff1669ffffffffffffffffffff1669ffffffffffffffffffff1681526020016002820160009054906101000a900469ffffffffffffffffffff1669ffffffffffffffffffff1669ffffffffffffffffffff168152505090508573ffffffffffffffffffffffffffffffffffffffff16816020015173ffffffffffffffffffffffffffffffffffffffff161461254c576040517f08c379a000000000000000000000000000000000000000000000000000000000815260040161254390614485565b60405180910390fd5b8361255f5761255a81613101565b612562565b60005b915060008060006125738a87613108565b9250925092506125828a612c81565b61258b57600197505b87156126be57609a60008b81526020019081526020016000206000808201600090556001820160006101000a81549073ffffffffffffffffffffffffffffffffffffffff02191690556001820160146101000a81549069ffffffffffffffffffff02191690556002820160006101000a81549069ffffffffffffffffffff02191690555050609f600081548092919061262390614b2c565b9190505550609860009054906101000a900473ffffffffffffffffffffffffffffffffffffffff1673ffffffffffffffffffffffffffffffffffffffff1663b88d4fde308b8d6040518463ffffffff1660e01b815260040161268793929190614b8d565b600060405180830381600087803b1580156126a157600080fd5b505af11580156126b5573d6000803e3d6000fd5b505050506127df565b60405180608001604052808b61ffff1681526020018a73ffffffffffffffffffffffffffffffffffffffff1681526020014269ffffffffffffffffffff1681526020014269ffffffffffffffffffff16815250609a60008c81526020019081526020016000206000820151816000015560208201518160010160006101000a81548173ffffffffffffffffffffffffffffffffffffffff021916908373ffffffffffffffffffffffffffffffffffffffff16021790555060408201518160010160146101000a81548169ffffffffffffffffffff021916908369ffffffffffffffffffff16021790555060608201518160020160006101000a81548169ffffffffffffffffffff021916908369ffffffffffffffffffff1602179055509050505b7f9b394c66bc4fdb2f56f5842a796076e6552d6f15eaacb6e63e3c53b474d872e98a868a86868660a35460405161281c9796959493929190614c5d565b60405180910390a15050505095945050505050565b600080609b6000888152602001908152602001600020604051806080016040529081600082015481526020016001820160009054906101000a900473ffffffffffffffffffffffffffffffffffffffff1673ffffffffffffffffffffffffffffffffffffffff1673ffffffffffffffffffffffffffffffffffffffff1681526020016001820160149054906101000a900469ffffffffffffffffffff1669ffffffffffffffffffff1669ffffffffffffffffffff1681526020016002820160009054906101000a900469ffffffffffffffffffff1669ffffffffffffffffffff1669ffffffffffffffffffff168152505090508573ffffffffffffffffffffffffffffffffffffffff16816020015173ffffffffffffffffffffffffffffffffffffffff1614612996576040517f08c379a000000000000000000000000000000000000000000000000000000000815260040161298d90614485565b60405180910390fd5b836129a9576129a481613376565b6129ac565b60005b915060008060006129bd8a87613108565b9250925092506129cc8a612c81565b6129d557600197505b8715612b0857609b60008b81526020019081526020016000206000808201600090556001820160006101000a81549073ffffffffffffffffffffffffffffffffffffffff02191690556001820160146101000a81549069ffffffffffffffffffff02191690556002820160006101000a81549069ffffffffffffffffffff0219169055505060a06000815480929190612a6d90614b2c565b9190505550609860009054906101000a900473ffffffffffffffffffffffffffffffffffffffff1673ffffffffffffffffffffffffffffffffffffffff1663b88d4fde308b8d6040518463ffffffff1660e01b8152600401612ad193929190614b8d565b600060405180830381600087803b158015612aeb57600080fd5b505af1158015612aff573d6000803e3d6000fd5b50505050612c2b565b60405180608001604052808b61ffff1681526020018a73ffffffffffffffffffffffffffffffffffffffff16815260200160a35469ffffffffffffffffffff1681526020014269ffffffffffffffffffff16815250609b60008c81526020019081526020016000206000820151816000015560208201518160010160006101000a81548173ffffffffffffffffffffffffffffffffffffffff021916908373ffffffffffffffffffffffffffffffffffffffff16021790555060408201518160010160146101000a81548169ffffffffffffffffffff021916908369ffffffffffffffffffff16021790555060608201518160020160006101000a81548169ffffffffffffffffffff021916908369ffffffffffffffffffff1602179055509050505b7f9be2cb7a62ca4aefdc81da57f848805cc67c86675da32b5a7be58bb615ba4f328a868a86868660a354604051612c689796959493929190614c5d565b60405180910390a15050505095945050505050565b5050565b600060019050919050565b50565b612c97610a38565b15612cd7576040517f08c379a0000000000000000000000000000000000000000000000000000000008152600401612cce90614047565b60405180910390fd5b60405180608001604052808261ffff1681526020018373ffffffffffffffffffffffffffffffffffffffff1681526020014269ffffffffffffffffffff1681526020014269ffffffffffffffffffff16815250609a60008381526020019081526020016000206000820151816000015560208201518160010160006101000a81548173ffffffffffffffffffffffffffffffffffffffff021916908373ffffffffffffffffffffffffffffffffffffffff16021790555060408201518160010160146101000a81548169ffffffffffffffffffff021916908369ffffffffffffffffffff16021790555060608201518160020160006101000a81548169ffffffffffffffffffff021916908369ffffffffffffffffffff160217905550905050609f6000815480929190612e0a90614229565b91905055507f8af1bb49fb16c7835975aa59449ba4328dd54737dfb2ae9fa6c5eca71fda51f9818342604051612e4293929190614cd3565b60405180910390a15050565b612e56610a38565b15612e96576040517f08c379a0000000000000000000000000000000000000000000000000000000008152600401612e8d90614047565b60405180910390fd5b60405180608001604052808261ffff1681526020018373ffffffffffffffffffffffffffffffffffffffff16815260200160a35469ffffffffffffffffffff1681526020014269ffffffffffffffffffff16815250609b60008381526020019081526020016000206000820151816000015560208201518160010160006101000a81548173ffffffffffffffffffffffffffffffffffffffff021916908373ffffffffffffffffffffffffffffffffffffffff16021790555060408201518160010160146101000a81548169ffffffffffffffffffff021916908369ffffffffffffffffffff16021790555060608201518160020160006101000a81548169ffffffffffffffffffff021916908369ffffffffffffffffffff16021790555090505060a06000815480929190612fcb90614229565b91905055507f8af1bb49fb16c7835975aa59449ba4328dd54737dfb2ae9fa6c5eca71fda51f9818360a35460405161300593929190614cd3565b60405180910390a15050565b6000808273ffffffffffffffffffffffffffffffffffffffff163b119050919050565b600060019054906101000a900460ff16613083576040517f08c379a000000000000000000000000000000000000000000000000000000000815260040161307a90614901565b60405180910390fd5b61309361308e612188565b612190565b565b600060019054906101000a900460ff166130e4576040517f08c379a00000000000000000000000000000000000000000000000000000000081526004016130db90614901565b60405180910390fd5b6000603360006101000a81548160ff021916908315150217905550565b6000919050565b6000806060600080609860009054906101000a900473ffffffffffffffffffffffffffffffffffffffff1673ffffffffffffffffffffffffffffffffffffffff1663e05c57bf886040518263ffffffff1660e01b815260040161316b919061378d565b61016060405180830381865afa158015613189573d6000803e3d6000fd5b505050506040513d601f19601f820116820180604052508101906131ad9190614a38565b9a5050505050505050505091506000826131f357609b600089815260200190815260200160002060020160009054906101000a900469ffffffffffffffffffff16613221565b609a600089815260200190815260200160002060020160009054906101000a900469ffffffffffffffffffff165b69ffffffffffffffffffff164261323891906141c6565b9050609860009054906101000a900473ffffffffffffffffffffffffffffffffffffffff1673ffffffffffffffffffffffffffffffffffffffff166363dbfc77896132ae8661329657609e60029054906101000a900460000b6132a7565b609e60009054906101000a900460000b5b858761337d565b6132e4876132cb57609e60039054906101000a900460000b6132dc565b609e60019054906101000a900460000b5b86600061337d565b6132ec613448565b6132f75760006132f9565b8b5b6040518563ffffffff1660e01b81526004016133189493929190614d19565b6000604051808303816000875af1158015613337573d6000803e3d6000fd5b505050506040513d6000823e3d601f19601f820116820180604052508101906133609190614e04565b8096508197508298505050505050509250925092565b6000919050565b600060a25483111561338f5760a25492505b600060a2548560000b856133a39190614e7d565b6133ad9190614fc3565b905060a25484101580156133c15750600081135b156133d8578260000b816133d5919061502d565b90505b60648113156133eb576064915050613441565b7fffffffffffffffffffffffffffffffffffffffffffffffffffffffffffffff9c81121561343c577fffffffffffffffffffffffffffffffffffffffffffffffffffffffffffffff9c915050613441565b809150505b9392505050565b600090565b50805460008255600f0160109004906000526020600020908101906134729190613523565b50565b82805482825590600052602060002090600f016010900481019282156135125791602002820160005b838211156134e257833561ffff1683826101000a81548161ffff021916908361ffff160217905550926020019260020160208160010104928301926001030261349e565b80156135105782816101000a81549061ffff02191690556002016020816001010492830192600103026134e2565b505b50905061351f9190613523565b5090565b5b8082111561353c576000816000905550600101613524565b5090565b6000604051905090565b600080fd5b600080fd5b600073ffffffffffffffffffffffffffffffffffffffff82169050919050565b600061357f82613554565b9050919050565b61358f81613574565b811461359a57600080fd5b50565b6000813590506135ac81613586565b92915050565b6000819050919050565b6135c5816135b2565b81146135d057600080fd5b50565b6000813590506135e2816135bc565b92915050565b600080fd5b600080fd5b600080fd5b60008083601f84011261360d5761360c6135e8565b5b8235905067ffffffffffffffff81111561362a576136296135ed565b5b602083019150836001820283011115613646576136456135f2565b5b9250929050565b6000806000806000608086880312156136695761366861354a565b5b60006136778882890161359d565b95505060206136888882890161359d565b9450506040613699888289016135d3565b935050606086013567ffffffffffffffff8111156136ba576136b961354f565b5b6136c6888289016135f7565b92509250509295509295909350565b60007fffffffff0000000000000000000000000000000000000000000000000000000082169050919050565b61370a816136d5565b82525050565b60006020820190506137256000830184613701565b92915050565b6000806000606084860312156137445761374361354a565b5b60006137528682870161359d565b93505060206137638682870161359d565b9250506040613774868287016135d3565b9150509250925092565b613787816135b2565b82525050565b60006020820190506137a2600083018461377e565b92915050565b6000602082840312156137be576137bd61354a565b5b60006137cc848285016135d3565b91505092915050565b6137de81613574565b82525050565b600069ffffffffffffffffffff82169050919050565b613803816137e4565b82525050565b600060808201905061381e600083018761377e565b61382b60208301866137d5565b61383860408301856137fa565b61384560608301846137fa565b95945050505050565b600080604083850312156138655761386461354a565b5b60006138738582860161359d565b92505060206138848582860161359d565b9150509250929050565b6000602082840312156138a4576138a361354a565b5b60006138b28482850161359d565b91505092915050565b60008115159050919050565b6138d0816138bb565b82525050565b60006020820190506138eb60008301846138c7565b92915050565b600060208201905061390660008301846137d5565b92915050565b600080fd5b6000601f19601f8301169050919050565b7f4e487b7100000000000000000000000000000000000000000000000000000000600052604160045260246000fd5b61395a82613911565b810181811067ffffffffffffffff8211171561397957613978613922565b5b80604052505050565b600061398c613540565b90506139988282613951565b919050565b600080fd5b6000819050919050565b6139b5816139a2565b81146139c057600080fd5b50565b6000813590506139d2816139ac565b92915050565b600067ffffffffffffffff8211156139f3576139f2613922565b5b602082029050602081019050919050565b600061ffff82169050919050565b613a1b81613a04565b8114613a2657600080fd5b50565b600081359050613a3881613a12565b92915050565b6000613a51613a4c846139d8565b613982565b90508083825260208201905060208402830185811115613a7457613a736135f2565b5b835b81811015613a9d5780613a898882613a29565b845260208401935050602081019050613a76565b5050509392505050565b600082601f830112613abc57613abb6135e8565b5b8135613acc848260208601613a3e565b91505092915050565b613ade816138bb565b8114613ae957600080fd5b50565b600081359050613afb81613ad5565b92915050565b600060a08284031215613b1757613b1661390c565b5b613b2160a0613982565b90506000613b31848285016139c3565b6000830152506020613b458482850161359d565b6020830152506040613b598482850161359d565b604083015250606082013567ffffffffffffffff811115613b7d57613b7c61399d565b5b613b8984828501613aa7565b6060830152506080613b9d84828501613aec565b60808301525092915050565b60008060408385031215613bc057613bbf61354a565b5b600083013567ffffffffffffffff811115613bde57613bdd61354f565b5b613bea85828601613b01565b9250506020613bfb858286016135d3565b9150509250929050565b60008083601f840112613c1b57613c1a6135e8565b5b8235905067ffffffffffffffff811115613c3857613c376135ed565b5b602083019150836020820283011115613c5457613c536135f2565b5b9250929050565b600080600060408486031215613c7457613c7361354a565b5b600084013567ffffffffffffffff811115613c9257613c9161354f565b5b613c9e86828701613c05565b93509350506020613cb186828701613aec565b9150509250925092565b60008060408385031215613cd257613cd161354a565b5b6000613ce08582860161359d565b9250506020613cf1858286016135d3565b9150509250929050565b600080600060408486031215613d1457613d1361354a565b5b6000613d228682870161359d565b935050602084013567ffffffffffffffff811115613d4357613d4261354f565b5b613d4f86828701613c05565b92509250509250925092565b60008160000b9050919050565b613d7181613d5b565b8114613d7c57600080fd5b50565b600081359050613d8e81613d68565b92915050565b600060ff82169050919050565b613daa81613d94565b8114613db557600080fd5b50565b600081359050613dc781613da1565b92915050565b60008060008060008060c08789031215613dea57613de961354a565b5b6000613df889828a016135d3565b9650506020613e0989828a016135d3565b9550506040613e1a89828a01613d7f565b9450506060613e2b89828a01613d7f565b9350506080613e3c89828a01613db8565b92505060a0613e4d89828a016135d3565b9150509295509295509295565b600082825260208201905092915050565b7f43616e6e6f742073656e6420746f6b656e7320746f2056656e7565206469726560008201527f63746c7900000000000000000000000000000000000000000000000000000000602082015250565b6000613ec7602483613e5a565b9150613ed282613e6b565b604082019050919050565b60006020820190508181036000830152613ef681613eba565b9050919050565b7f496e697469616c697a61626c653a20636f6e747261637420697320616c72656160008201527f647920696e697469616c697a6564000000000000000000000000000000000000602082015250565b6000613f59602e83613e5a565b9150613f6482613efd565b604082019050919050565b60006020820190508181036000830152613f8881613f4c565b9050919050565b7f4f776e61626c653a2063616c6c6572206973206e6f7420746865206f776e6572600082015250565b6000613fc5602083613e5a565b9150613fd082613f8f565b602082019050919050565b60006020820190508181036000830152613ff481613fb8565b9050919050565b7f5061757361626c653a2070617573656400000000000000000000000000000000600082015250565b6000614031601083613e5a565b915061403c82613ffb565b602082019050919050565b6000602082019050818103600083015261406081614024565b9050919050565b7f4f6e6c7920436c61696d2063616e2066756c66696c6c00000000000000000000600082015250565b600061409d601683613e5a565b91506140a882614067565b602082019050919050565b600060208201905081810360008301526140cc81614090565b9050919050565b7f436c61696d2072657175657374206e6f7420666f756e64000000000000000000600082015250565b6000614109601783613e5a565b9150614114826140d3565b602082019050919050565b60006020820190508181036000830152614138816140fc565b9050919050565b6000604082019050614154600083018561377e565b614161602083018461377e565b9392505050565b7f4e487b7100000000000000000000000000000000000000000000000000000000600052603260045260246000fd5b7f4e487b7100000000000000000000000000000000000000000000000000000000600052601160045260246000fd5b60006141d1826135b2565b91506141dc836135b2565b9250828210156141ef576141ee614197565b5b828203905092915050565b7f4e487b7100000000000000000000000000000000000000000000000000000000600052603160045260246000fd5b6000614234826135b2565b91507fffffffffffffffffffffffffffffffffffffffffffffffffffffffffffffffff82141561426757614266614197565b5b600182019050919050565b600061427d826135b2565b9150614288836135b2565b9250827fffffffffffffffffffffffffffffffffffffffffffffffffffffffffffffffff038211156142bd576142bc614197565b5b828201905092915050565b7f454f41206f6e6c79000000000000000000000000000000000000000000000000600082015250565b60006142fe600883613e5a565b9150614309826142c8565b602082019050919050565b6000602082019050818103600083015261432d816142f1565b9050919050565b7f496e76616c696420636c61696d20616d6f756e74000000000000000000000000600082015250565b600061436a601483613e5a565b915061437582614334565b602082019050919050565b600060208201905081810360008301526143998161435d565b9050919050565b7f496e76616c696420636c61696d20666565000000000000000000000000000000600082015250565b60006143d6601183613e5a565b91506143e1826143a0565b602082019050919050565b60006020820190508181036000830152614405816143c9565b9050919050565b6000602082840312156144225761442161354a565b5b600061443084828501613a29565b91505092915050565b7f4e6f7420796f757220746f6b656e000000000000000000000000000000000000600082015250565b600061446f600e83613e5a565b915061447a82614439565b602082019050919050565b6000602082019050818103600083015261449e81614462565b9050919050565b7f43616e6e6f7420636c61696d206265666f726520454f42000000000000000000600082015250565b60006144db601783613e5a565b91506144e6826144a5565b602082019050919050565b6000602082019050818103600083015261450a816144ce565b9050919050565b600082825260208201905092915050565b6000819050919050565b61453581613a04565b82525050565b6000614547838361452c565b60208301905092915050565b60006145626020840184613a29565b905092915050565b6000602082019050919050565b60006145838385614511565b935061458e82614522565b8060005b858110156145c7576145a48284614553565b6145ae888261453b565b97506145b98361456a565b925050600181019050614592565b5085925050509392505050565b60006060820190506145e960008301876137d5565b81810360208301526145fc818587614577565b905061460b60408301846138c7565b95945050505050565b600081519050614623816139ac565b92915050565b60006020828403121561463f5761463e61354a565b5b600061464d84828501614614565b91505092915050565b6000819050919050565b600061467b61467661467184613a04565b614656565b6135b2565b9050919050565b61468b81614660565b82525050565b60006020820190506146a66000830184614682565b92915050565b6000815190506146bb81613586565b92915050565b6000602082840312156146d7576146d661354a565b5b60006146e5848285016146ac565b91505092915050565b7f4e6f7420656c696769626c650000000000000000000000000000000000000000600082015250565b6000614724600c83613e5a565b915061472f826146ee565b602082019050919050565b6000602082019050818103600083015261475381614717565b9050919050565b7f4b69746368656e20737061636520726571756972656400000000000000000000600082015250565b6000614790601683613e5a565b915061479b8261475a565b602082019050919050565b600060208201905081810360008301526147bf81614783565b9050919050565b60006060820190506147db60008301866137d5565b6147e860208301856137d5565b6147f56040830184614682565b949350505050565b7f4f776e61626c653a206e6577206f776e657220697320746865207a65726f206160008201527f6464726573730000000000000000000000000000000000000000000000000000602082015250565b6000614859602683613e5a565b9150614864826147fd565b604082019050919050565b600060208201905081810360008301526148888161484c565b9050919050565b7f496e697469616c697a61626c653a20636f6e7472616374206973206e6f74206960008201527f6e697469616c697a696e67000000000000000000000000000000000000000000602082015250565b60006148eb602b83613e5a565b91506148f68261488f565b604082019050919050565b6000602082019050818103600083015261491a816148de565b9050919050565b7f4f6e6c792044414f2063616e2065786563757465000000000000000000000000600082015250565b6000614957601483613e5a565b915061496282614921565b602082019050919050565b600060208201905081810360008301526149868161494a565b9050919050565b7f5061757361626c653a206e6f7420706175736564000000000000000000000000600082015250565b60006149c3601483613e5a565b91506149ce8261498d565b602082019050919050565b600060208201905081810360008301526149f2816149b6565b9050919050565b600081519050614a0881613ad5565b92915050565b600081519050614a1d81613da1565b92915050565b600081519050614a3281613d68565b92915050565b60008060008060008060008060008060006101608c8e031215614a5e57614a5d61354a565b5b6000614a6c8e828f016149f9565b9b50506020614a7d8e828f01614a0e565b9a50506040614a8e8e828f01614a0e565b9950506060614a9f8e828f01614a0e565b9850506080614ab08e828f01614a0e565b97505060a0614ac18e828f01614a0e565b96505060c0614ad28e828f01614a0e565b95505060e0614ae38e828f01614a0e565b945050610100614af58e828f01614a0e565b935050610120614b078e828f01614a0e565b925050610140614b198e828f01614a23565b9150509295989b509295989b9093969950565b6000614b37826135b2565b91506000821415614b4b57614b4a614197565b5b600182039050919050565b600082825260208201905092915050565b50565b6000614b77600083614b56565b9150614b8282614b67565b600082019050919050565b6000608082019050614ba260008301866137d5565b614baf60208301856137d5565b614bbc604083018461377e565b8181036060830152614bcd81614b6a565b9050949350505050565b614be081613d94565b82525050565b600081519050919050565b60005b83811015614c0f578082015181840152602081019050614bf4565b83811115614c1e576000848401525b50505050565b6000614c2f82614be6565b614c398185613e5a565b9350614c49818560208601614bf1565b614c5281613911565b840191505092915050565b600060e082019050614c72600083018a61377e565b614c7f602083018961377e565b614c8c60408301886138c7565b614c996060830187614bd7565b614ca66080830186614bd7565b81810360a0830152614cb88185614c24565b9050614cc760c083018461377e565b98975050505050505050565b6000606082019050614ce8600083018661377e565b614cf560208301856137d5565b614d02604083018461377e565b949350505050565b614d1381613d5b565b82525050565b6000608082019050614d2e600083018761377e565b614d3b6020830186614d0a565b614d486040830185614d0a565b614d55606083018461377e565b95945050505050565b600080fd5b600067ffffffffffffffff821115614d7e57614d7d613922565b5b614d8782613911565b9050602081019050919050565b6000614da7614da284614d63565b613982565b905082815260208101848484011115614dc357614dc2614d5e565b5b614dce848285614bf1565b509392505050565b600082601f830112614deb57614dea6135e8565b5b8151614dfb848260208601614d94565b91505092915050565b600080600060608486031215614e1d57614e1c61354a565b5b6000614e2b86828701614a0e565b9350506020614e3c86828701614a0e565b925050604084015167ffffffffffffffff811115614e5d57614e5c61354f565b5b614e6986828701614dd6565b9150509250925092565b6000819050919050565b6000614e8882614e73565b9150614e9383614e73565b9250827f7fffffffffffffffffffffffffffffffffffffffffffffffffffffffffffffff0482116000841360008413161615614ed257614ed1614197565b5b817f80000000000000000000000000000000000000000000000000000000000000000583126000841260008413161615614f0f57614f0e614197565b5b827f80000000000000000000000000000000000000000000000000000000000000000582126000841360008412161615614f4c57614f4b614197565b5b827f7fffffffffffffffffffffffffffffffffffffffffffffffffffffffffffffff0582126000841260008412161615614f8957614f88614197565b5b828202905092915050565b7f4e487b7100000000000000000000000000000000000000000000000000000000600052601260045260246000fd5b6000614fce82614e73565b9150614fd983614e73565b925082614fe957614fe8614f94565b5b600160000383147f80000000000000000000000000000000000000000000000000000000000000008314161561502257615021614197565b5b828205905092915050565b600061503882614e73565b915061504383614e73565b9250817f7fffffffffffffffffffffffffffffffffffffffffffffffffffffffffffffff0383136000831215161561507e5761507d614197565b5b817f80000000000000000000000000000000000000000000000000000000000000000383126000831216156150b6576150b5614197565b5b82820190509291505056fea264697066735822122029a97e527a52c648bb880700b9a2fb2d907715bc30ba70fd6144bd3c761b103464736f6c634300080a0033",
  "immutableReferences": {},
  "source": "// SPDX-License-Identifier: MIT\n\npragma solidity ^0.8.0;\n\nimport \"./VenueV2.sol\";\n\ncontract GymV2 is VenueV2 {\n  function initialize(\n    address _character,\n    address _claim\n  ) external initializer {\n    __Ownable_init();\n    __Pausable_init();\n\n    character = CharacterV2(_character);\n    claim = IClaim(_claim);\n  }\n\n  /**\n   * Allows DAO to update game parameters\n   */\n  function configure(\n    uint256 _vestingPeriod,\n    uint256 _accrualPeriod,\n    int8 _dailyFreakRate,\n    int8 _dailyBodyMassRate,\n    uint8 _maxClaimsPerTx,\n    uint256 _claimFee\n  ) external onlyOwner {\n    vestingPeriod = _vestingPeriod;\n    accrualPeriod = _accrualPeriod;\n    dailyFreakRate = _dailyFreakRate;\n    dailyBodyMassRate = _dailyBodyMassRate;\n    maxClaimsPerTx = _maxClaimsPerTx;\n    claimFee = _claimFee;\n  }\n}\n",
  "sourcePath": "/Users/chris/workspace/ratalert/ratalert-contracts/contracts/GymV2.sol",
  "compiler": {
    "name": "solc",
    "version": "0.8.10+commit.fc410830.Emscripten.clang"
  },
  "schemaVersion": "3.4.7",
  "updatedAt": "2022-07-01T12:44:52.299Z",
  "networkType": "ethereum",
  "devdoc": {
    "kind": "dev",
    "methods": {
      "claimMany(uint16[],bool)": {
        "params": {
          "tokenIds": "- The IDs of the tokens in question",
          "unstake": "- Whether or not to unstake the given tokens"
        }
      },
      "fulfillClaimMany((bytes32,address,address,uint16[],bool),uint256)": {
        "params": {
          "randomness": "- Random value created by VRF",
          "v": "- VRF struct for the corresponding request"
        }
      },
      "getChefsStaked(address)": {
        "params": {
          "account": "- User wallet address"
        },
        "returns": {
          "_0": "Number of chefs in staking"
        }
      },
      "owner()": {
        "details": "Returns the address of the current owner."
      },
      "paused()": {
        "details": "Returns true if the contract is paused, and false otherwise."
      },
      "renounceOwnership()": {
        "details": "Leaves the contract without owner. It will not be possible to call `onlyOwner` functions anymore. Can only be called by the current owner. NOTE: Renouncing ownership will leave the contract without an owner, thereby removing any functionality that is only available to the owner."
      },
      "stakeMany(address,uint16[])": {
        "params": {
          "account": "- User wallet address",
          "tokenIds": "- The IDs of the Chefs & Rats to stake"
        }
      },
      "transferOwnership(address)": {
        "details": "Transfers ownership of the contract to a new account (`newOwner`). Can only be called by the current owner."
      }
    },
    "version": 1
  },
  "userdoc": {
    "kind": "user",
    "methods": {
      "claimMany(uint16[],bool)": {
        "notice": "ChainLink VRF request: Claims food token earnings, level-ups and optionally unstake characters"
      },
      "configure(uint256,uint256,int8,int8,uint8,uint256)": {
        "notice": "Allows DAO to update game parameters"
      },
      "fulfillClaimMany((bytes32,address,address,uint16[],bool),uint256)": {
        "notice": "Callback for claimMany(), called by Claim.fulfillRandomness()"
      },
      "getChefsStaked(address)": {
        "notice": "Get the amount of chefs the given account has in staking"
      },
      "onERC721Received(address,address,uint256,bytes)": {
        "notice": "IERC721ReceiverUpgradeable interface: We do not accept tokens sent directly"
      },
      "stakeMany(address,uint16[])": {
        "notice": "Adds Characters to staking"
      },
      "withdrawPayments()": {
        "notice": "Allows DAO to withdraw funds"
      }
    },
    "version": 1
  }
}