{
  "contractName": "KitchenShop",
  "abi": [
    {
      "anonymous": false,
      "inputs": [
        {
          "indexed": true,
          "internalType": "address",
          "name": "account",
          "type": "address"
        },
        {
          "indexed": true,
          "internalType": "address",
          "name": "operator",
          "type": "address"
        },
        {
          "indexed": false,
          "internalType": "bool",
          "name": "approved",
          "type": "bool"
        }
      ],
      "name": "ApprovalForAll",
      "type": "event"
    },
    {
      "anonymous": false,
      "inputs": [
        {
          "indexed": true,
          "internalType": "address",
          "name": "previousOwner",
          "type": "address"
        },
        {
          "indexed": true,
          "internalType": "address",
          "name": "newOwner",
          "type": "address"
        }
      ],
      "name": "OwnershipTransferred",
      "type": "event"
    },
    {
      "anonymous": false,
      "inputs": [
        {
          "indexed": false,
          "internalType": "address",
          "name": "account",
          "type": "address"
        }
      ],
      "name": "Paused",
      "type": "event"
    },
    {
      "anonymous": false,
      "inputs": [
        {
          "indexed": true,
          "internalType": "address",
          "name": "operator",
          "type": "address"
        },
        {
          "indexed": true,
          "internalType": "address",
          "name": "from",
          "type": "address"
        },
        {
          "indexed": true,
          "internalType": "address",
          "name": "to",
          "type": "address"
        },
        {
          "indexed": false,
          "internalType": "uint256[]",
          "name": "ids",
          "type": "uint256[]"
        },
        {
          "indexed": false,
          "internalType": "uint256[]",
          "name": "values",
          "type": "uint256[]"
        }
      ],
      "name": "TransferBatch",
      "type": "event"
    },
    {
      "anonymous": false,
      "inputs": [
        {
          "indexed": true,
          "internalType": "address",
          "name": "operator",
          "type": "address"
        },
        {
          "indexed": true,
          "internalType": "address",
          "name": "from",
          "type": "address"
        },
        {
          "indexed": true,
          "internalType": "address",
          "name": "to",
          "type": "address"
        },
        {
          "indexed": false,
          "internalType": "uint256",
          "name": "id",
          "type": "uint256"
        },
        {
          "indexed": false,
          "internalType": "uint256",
          "name": "value",
          "type": "uint256"
        }
      ],
      "name": "TransferSingle",
      "type": "event"
    },
    {
      "anonymous": false,
      "inputs": [
        {
          "indexed": false,
          "internalType": "string",
          "name": "value",
          "type": "string"
        },
        {
          "indexed": true,
          "internalType": "uint256",
          "name": "id",
          "type": "uint256"
        }
      ],
      "name": "URI",
      "type": "event"
    },
    {
      "anonymous": false,
      "inputs": [
        {
          "indexed": false,
          "internalType": "address",
          "name": "account",
          "type": "address"
        }
      ],
      "name": "Unpaused",
      "type": "event"
    },
    {
      "inputs": [
        {
          "internalType": "address",
          "name": "account",
          "type": "address"
        },
        {
          "internalType": "uint256",
          "name": "id",
          "type": "uint256"
        }
      ],
      "name": "balanceOf",
      "outputs": [
        {
          "internalType": "uint256",
          "name": "",
          "type": "uint256"
        }
      ],
      "stateMutability": "view",
      "type": "function",
      "constant": true
    },
    {
      "inputs": [
        {
          "internalType": "address[]",
          "name": "accounts",
          "type": "address[]"
        },
        {
          "internalType": "uint256[]",
          "name": "ids",
          "type": "uint256[]"
        }
      ],
      "name": "balanceOfBatch",
      "outputs": [
        {
          "internalType": "uint256[]",
          "name": "",
          "type": "uint256[]"
        }
      ],
      "stateMutability": "view",
      "type": "function",
      "constant": true
    },
    {
      "inputs": [
        {
          "internalType": "address",
          "name": "account",
          "type": "address"
        },
        {
          "internalType": "address",
          "name": "operator",
          "type": "address"
        }
      ],
      "name": "isApprovedForAll",
      "outputs": [
        {
          "internalType": "bool",
          "name": "",
          "type": "bool"
        }
      ],
      "stateMutability": "view",
      "type": "function",
      "constant": true
    },
    {
      "inputs": [
        {
          "internalType": "uint256",
          "name": "",
          "type": "uint256"
        }
      ],
      "name": "kitchenData",
      "outputs": [
        {
          "internalType": "string",
          "name": "name",
          "type": "string"
        },
        {
          "internalType": "string",
          "name": "png",
          "type": "string"
        }
      ],
      "stateMutability": "view",
      "type": "function",
      "constant": true
    },
    {
      "inputs": [
        {
          "internalType": "uint8",
          "name": "",
          "type": "uint8"
        }
      ],
      "name": "maxTokens",
      "outputs": [
        {
          "internalType": "uint256",
          "name": "",
          "type": "uint256"
        }
      ],
      "stateMutability": "view",
      "type": "function",
      "constant": true
    },
    {
      "inputs": [
        {
          "internalType": "uint8",
          "name": "",
          "type": "uint8"
        }
      ],
      "name": "minSkill",
      "outputs": [
        {
          "internalType": "uint256",
          "name": "",
          "type": "uint256"
        }
      ],
      "stateMutability": "view",
      "type": "function",
      "constant": true
    },
    {
      "inputs": [
        {
          "internalType": "uint8",
          "name": "",
          "type": "uint8"
        }
      ],
      "name": "minted",
      "outputs": [
        {
          "internalType": "uint256",
          "name": "",
          "type": "uint256"
        }
      ],
      "stateMutability": "view",
      "type": "function",
      "constant": true
    },
    {
      "inputs": [],
      "name": "owner",
      "outputs": [
        {
          "internalType": "address",
          "name": "",
          "type": "address"
        }
      ],
      "stateMutability": "view",
      "type": "function",
      "constant": true
    },
    {
      "inputs": [],
      "name": "pause",
      "outputs": [],
      "stateMutability": "nonpayable",
      "type": "function"
    },
    {
      "inputs": [],
      "name": "paused",
      "outputs": [
        {
          "internalType": "bool",
          "name": "",
          "type": "bool"
        }
      ],
      "stateMutability": "view",
      "type": "function",
      "constant": true
    },
    {
      "inputs": [],
      "name": "renounceOwnership",
      "outputs": [],
      "stateMutability": "nonpayable",
      "type": "function"
    },
    {
      "inputs": [
        {
          "internalType": "address",
          "name": "from",
          "type": "address"
        },
        {
          "internalType": "address",
          "name": "to",
          "type": "address"
        },
        {
          "internalType": "uint256[]",
          "name": "ids",
          "type": "uint256[]"
        },
        {
          "internalType": "uint256[]",
          "name": "amounts",
          "type": "uint256[]"
        },
        {
          "internalType": "bytes",
          "name": "data",
          "type": "bytes"
        }
      ],
      "name": "safeBatchTransferFrom",
      "outputs": [],
      "stateMutability": "nonpayable",
      "type": "function"
    },
    {
      "inputs": [
        {
          "internalType": "address",
          "name": "from",
          "type": "address"
        },
        {
          "internalType": "address",
          "name": "to",
          "type": "address"
        },
        {
          "internalType": "uint256",
          "name": "id",
          "type": "uint256"
        },
        {
          "internalType": "uint256",
          "name": "amount",
          "type": "uint256"
        },
        {
          "internalType": "bytes",
          "name": "data",
          "type": "bytes"
        }
      ],
      "name": "safeTransferFrom",
      "outputs": [],
      "stateMutability": "nonpayable",
      "type": "function"
    },
    {
      "inputs": [
        {
          "internalType": "address",
          "name": "operator",
          "type": "address"
        },
        {
          "internalType": "bool",
          "name": "approved",
          "type": "bool"
        }
      ],
      "name": "setApprovalForAll",
      "outputs": [],
      "stateMutability": "nonpayable",
      "type": "function"
    },
    {
      "inputs": [
        {
          "internalType": "bytes4",
          "name": "interfaceId",
          "type": "bytes4"
        }
      ],
      "name": "supportsInterface",
      "outputs": [
        {
          "internalType": "bool",
          "name": "",
          "type": "bool"
        }
      ],
      "stateMutability": "view",
      "type": "function",
      "constant": true
    },
    {
      "inputs": [
        {
          "internalType": "address",
          "name": "newOwner",
          "type": "address"
        }
      ],
      "name": "transferOwnership",
      "outputs": [],
      "stateMutability": "nonpayable",
      "type": "function"
    },
    {
      "inputs": [],
      "name": "unpause",
      "outputs": [],
      "stateMutability": "nonpayable",
      "type": "function"
    },
    {
      "inputs": [
        {
          "internalType": "address",
          "name": "_fastFood",
          "type": "address"
        },
        {
          "internalType": "address",
          "name": "_casualFood",
          "type": "address"
        },
        {
          "internalType": "address",
          "name": "_character",
          "type": "address"
        },
        {
          "internalType": "uint256[]",
          "name": "_maxTokens",
          "type": "uint256[]"
        },
        {
          "internalType": "uint8[]",
          "name": "_minSkill",
          "type": "uint8[]"
        }
      ],
      "name": "initialize",
      "outputs": [],
      "stateMutability": "nonpayable",
      "type": "function"
    },
    {
      "inputs": [
        {
          "internalType": "uint8",
          "name": "kitchen",
          "type": "uint8"
        },
        {
          "internalType": "uint8",
          "name": "amount",
          "type": "uint8"
        }
      ],
      "name": "mint",
      "outputs": [],
      "stateMutability": "payable",
      "type": "function",
      "payable": true
    },
    {
      "inputs": [
        {
          "internalType": "uint8",
          "name": "kitchen",
          "type": "uint8"
        },
        {
          "internalType": "uint256",
          "name": "tokenId",
          "type": "uint256"
        }
      ],
      "name": "mintCost",
      "outputs": [
        {
          "internalType": "uint256",
          "name": "",
          "type": "uint256"
        }
      ],
      "stateMutability": "view",
      "type": "function",
      "constant": true
    },
    {
      "inputs": [
        {
          "internalType": "uint256",
          "name": "tokenId",
          "type": "uint256"
        }
      ],
      "name": "uri",
      "outputs": [
        {
          "internalType": "string",
          "name": "",
          "type": "string"
        }
      ],
      "stateMutability": "view",
      "type": "function",
      "constant": true
    },
    {
      "inputs": [
        {
          "internalType": "uint256",
          "name": "imageIndex",
          "type": "uint256"
        },
        {
          "components": [
            {
              "internalType": "string",
              "name": "name",
              "type": "string"
            },
            {
              "internalType": "string",
              "name": "png",
              "type": "string"
            }
          ],
          "internalType": "struct KitchenShop.KitchenData",
          "name": "kitchen",
          "type": "tuple"
        }
      ],
      "name": "uploadImage",
      "outputs": [],
      "stateMutability": "nonpayable",
      "type": "function"
    }
  ],
  "bytecode": "0x608060405234801561001057600080fd5b506151d2806100206000396000f3fe6080604052600436106101345760003560e01c80635c975abb116100ab578063a22cb4651161006f578063a22cb46514610416578063cc5296411461043f578063e0683ab81461047c578063e985e9c5146104ba578063f242432a146104f7578063f2fde38b1461052057610134565b80635c975abb14610369578063715018a6146103945780637d26c78c146103ab5780638456cb59146103d45780638da5cb5b146103eb57610134565b806329a0eee8116100fd57806329a0eee8146102565780632eb2c2d6146102725780633e0987f71461029b5780633f4ba83a146102d857806346598ab8146102ef5780634e1273f41461032c57610134565b8062fdd58e1461013957806301ffc9a7146101765780630cabd0a6146101b35780630e89341c146101f057806320252e3f1461022d575b600080fd5b34801561014557600080fd5b50610160600480360381019061015b9190612f9f565b610549565b60405161016d9190612fee565b60405180910390f35b34801561018257600080fd5b5061019d60048036038101906101989190613061565b610613565b6040516101aa91906130a9565b60405180910390f35b3480156101bf57600080fd5b506101da60048036038101906101d591906130fd565b6106f5565b6040516101e79190612fee565b60405180910390f35b3480156101fc57600080fd5b506102176004803603810190610212919061312a565b61070e565b60405161022491906131f0565b60405180910390f35b34801561023957600080fd5b50610254600480360381019061024f919061341d565b61091c565b005b610270600480360381019061026b91906134d0565b610bf6565b005b34801561027e57600080fd5b50610299600480360381019061029491906135c5565b61101f565b005b3480156102a757600080fd5b506102c260048036038101906102bd91906130fd565b6110c0565b6040516102cf9190612fee565b60405180910390f35b3480156102e457600080fd5b506102ed6110d8565b005b3480156102fb57600080fd5b5061031660048036038101906103119190613694565b61115e565b6040516103239190612fee565b60405180910390f35b34801561033857600080fd5b50610353600480360381019061034e9190613797565b611299565b60405161036091906138cd565b60405180910390f35b34801561037557600080fd5b5061037e6113b2565b60405161038b91906130a9565b60405180910390f35b3480156103a057600080fd5b506103a96113c9565b005b3480156103b757600080fd5b506103d260048036038101906103cd9190613913565b611451565b005b3480156103e057600080fd5b506103e96115db565b005b3480156103f757600080fd5b50610400611661565b60405161040d919061397e565b60405180910390f35b34801561042257600080fd5b5061043d600480360381019061043891906139c5565b61168b565b005b34801561044b57600080fd5b50610466600480360381019061046191906130fd565b6116a1565b6040516104739190612fee565b60405180910390f35b34801561048857600080fd5b506104a3600480360381019061049e919061312a565b6116b9565b6040516104b1929190613a05565b60405180910390f35b3480156104c657600080fd5b506104e160048036038101906104dc9190613a3c565b6117ee565b6040516104ee91906130a9565b60405180910390f35b34801561050357600080fd5b5061051e60048036038101906105199190613a7c565b611882565b005b34801561052c57600080fd5b5061054760048036038101906105429190613b13565b611923565b005b60008073ffffffffffffffffffffffffffffffffffffffff168373ffffffffffffffffffffffffffffffffffffffff1614156105ba576040517f08c379a00000000000000000000000000000000000000000000000000000000081526004016105b190613bb2565b60405180910390fd5b60c9600083815260200190815260200160002060008473ffffffffffffffffffffffffffffffffffffffff1673ffffffffffffffffffffffffffffffffffffffff16815260200190815260200160002054905092915050565b60007fd9b67a26000000000000000000000000000000000000000000000000000000007bffffffffffffffffffffffffffffffffffffffffffffffffffffffff1916827bffffffffffffffffffffffffffffffffffffffffffffffffffffffff191614806106de57507f0e89341c000000000000000000000000000000000000000000000000000000007bffffffffffffffffffffffffffffffffffffffffffffffffffffffff1916827bffffffffffffffffffffffffffffffffffffffffffffffffffffffff1916145b806106ee57506106ed82611a1b565b5b9050919050565b6101006020528060005260406000206000915090505481565b6060600082118015610721575060028211155b610760576040517f08c379a000000000000000000000000000000000000000000000000000000000815260040161075790613c44565b60405180910390fd5b600061010160006001856107749190613c93565b815260200190815260200160002060405180604001604052908160008201805461079d90613cf6565b80601f01602080910402602001604051908101604052809291908181526020018280546107c990613cf6565b80156108165780601f106107eb57610100808354040283529160200191610816565b820191906000526020600020905b8154815290600101906020018083116107f957829003601f168201915b5050505050815260200160018201805461082f90613cf6565b80601f016020809104026020016040519081016040528092919081815260200182805461085b90613cf6565b80156108a85780601f1061087d576101008083540402835291602001916108a8565b820191906000526020600020905b81548152906001019060200180831161088b57829003601f168201915b5050505050815250509050600081600001516108c385611a85565b83602001516040516020016108da939291906140c9565b60405160208183030381529060405290506108f481611be6565b60405160200161090491906141a9565b60405160208183030381529060405292505050919050565b600060019054906101000a900460ff166109445760008054906101000a900460ff161561094d565b61094c611d6b565b5b61098c576040517f08c379a00000000000000000000000000000000000000000000000000000000081526004016109839061423d565b60405180910390fd5b60008060019054906101000a900460ff1615905080156109dc576001600060016101000a81548160ff02191690831515021790555060016000806101000a81548160ff0219169083151502179055505b6109e4611d7c565b6109ec611ddd565b8560fb60006101000a81548173ffffffffffffffffffffffffffffffffffffffff021916908373ffffffffffffffffffffffffffffffffffffffff1602179055508460fc60006101000a81548173ffffffffffffffffffffffffffffffffffffffff021916908373ffffffffffffffffffffffffffffffffffffffff1602179055508360fd60006101000a81548173ffffffffffffffffffffffffffffffffffffffff021916908373ffffffffffffffffffffffffffffffffffffffff16021790555082600081518110610ac357610ac261425d565b5b602002602001015160fe6000600160ff1681526020019081526020016000208190555082600181518110610afa57610af961425d565b5b602002602001015160fe6000600260ff1681526020019081526020016000208190555081600081518110610b3157610b3061425d565b5b602002602001015160ff1660ff6000600160ff1681526020019081526020016000208190555081600181518110610b6b57610b6a61425d565b5b602002602001015160ff1660ff6000600260ff1681526020019081526020016000208190555060006101006000600160ff1681526020019081526020016000208190555060006101006000600260ff168152602001908152602001600020819055508015610bee5760008060016101000a81548160ff0219169083151502179055505b505050505050565b610bfe6113b2565b15610c3e576040517f08c379a0000000000000000000000000000000000000000000000000000000008152600401610c35906142d8565b60405180910390fd5b610c46611e3e565b73ffffffffffffffffffffffffffffffffffffffff163273ffffffffffffffffffffffffffffffffffffffff1614610cb3576040517f08c379a0000000000000000000000000000000000000000000000000000000008152600401610caa90614344565b60405180910390fd5b60008260ff16118015610cca575060028260ff1611155b610d09576040517f08c379a0000000000000000000000000000000000000000000000000000000008152600401610d00906143b0565b60405180910390fd5b60008160ff16118015610d205750600a8160ff1611155b610d5f576040517f08c379a0000000000000000000000000000000000000000000000000000000008152600401610d569061441c565b60405180910390fd5b60fe60008360ff1660ff168152602001908152602001600020548160ff1661010060008560ff1660ff16815260200190815260200160002054610da2919061443c565b1115610de3576040517f08c379a0000000000000000000000000000000000000000000000000000000008152600401610dda906144de565b60405180910390fd5b60003414610e26576040517f08c379a0000000000000000000000000000000000000000000000000000000008152600401610e1d9061454a565b60405180910390fd5b6000805b8260ff16811015610ea95761010060008560ff1660ff1681526020019081526020016000206000815480929190610e609061456a565b9190505550610e898461010060008760ff1660ff1681526020019081526020016000205461115e565b82610e94919061443c565b91508080610ea19061456a565b915050610e2a565b50610ed2610eb5611e3e565b8460ff168460ff1660405180602001604052806000815250611e46565b600081111561101a5760028360ff161415610f825760fc60009054906101000a900473ffffffffffffffffffffffffffffffffffffffff1673ffffffffffffffffffffffffffffffffffffffff16639dc29fac610f2d611e3e565b836040518363ffffffff1660e01b8152600401610f4b9291906145b3565b600060405180830381600087803b158015610f6557600080fd5b505af1158015610f79573d6000803e3d6000fd5b50505050611019565b60fb60009054906101000a900473ffffffffffffffffffffffffffffffffffffffff1673ffffffffffffffffffffffffffffffffffffffff16639dc29fac610fc8611e3e565b836040518363ffffffff1660e01b8152600401610fe69291906145b3565b600060405180830381600087803b15801561100057600080fd5b505af1158015611014573d6000803e3d6000fd5b505050505b5b505050565b611027611e3e565b73ffffffffffffffffffffffffffffffffffffffff168573ffffffffffffffffffffffffffffffffffffffff16148061106d575061106c85611067611e3e565b6117ee565b5b6110ac576040517f08c379a00000000000000000000000000000000000000000000000000000000081526004016110a39061464e565b60405180910390fd5b6110b98585858585611fdd565b5050505050565b60fe6020528060005260406000206000915090505481565b6110e0611e3e565b73ffffffffffffffffffffffffffffffffffffffff166110fe611661565b73ffffffffffffffffffffffffffffffffffffffff1614611154576040517f08c379a000000000000000000000000000000000000000000000000000000000815260040161114b906146ba565b60405180910390fd5b61115c6122f4565b565b60006005600160fe60008660ff1660ff1681526020019081526020016000205461118891906146da565b6111929190614763565b82116111a957686c6b935b8bbd4000009050611293565b6005600260fe60008660ff1660ff168152602001908152602001600020546111d191906146da565b6111db9190614763565b82116111f25768a2a15d09519be000009050611293565b6005600360fe60008660ff1660ff1681526020019081526020016000205461121a91906146da565b6112249190614763565b821161123b5768d8d726b7177a8000009050611293565b6005600460fe60008660ff1660ff1681526020019081526020016000205461126391906146da565b61126d9190614763565b82116112855769010f0cf064dd592000009050611293565b69014542ba12a337c0000090505b92915050565b606081518351146112df576040517f08c379a00000000000000000000000000000000000000000000000000000000081526004016112d690614806565b60405180910390fd5b6000835167ffffffffffffffff8111156112fc576112fb613217565b5b60405190808252806020026020018201604052801561132a5781602001602082028036833780820191505090505b50905060005b84518110156113a75761137785828151811061134f5761134e61425d565b5b602002602001015185838151811061136a5761136961425d565b5b6020026020010151610549565b82828151811061138a5761138961425d565b5b602002602001018181525050806113a09061456a565b9050611330565b508091505092915050565b6000606560009054906101000a900460ff16905090565b6113d1611e3e565b73ffffffffffffffffffffffffffffffffffffffff166113ef611661565b73ffffffffffffffffffffffffffffffffffffffff1614611445576040517f08c379a000000000000000000000000000000000000000000000000000000000815260040161143c906146ba565b60405180910390fd5b61144f6000612396565b565b611459611e3e565b73ffffffffffffffffffffffffffffffffffffffff16611477611661565b73ffffffffffffffffffffffffffffffffffffffff16146114cd576040517f08c379a00000000000000000000000000000000000000000000000000000000081526004016114c4906146ba565b60405180910390fd5b60405180604001604052808280600001906114e89190614835565b8080601f016020809104026020016040519081016040528093929190818152602001838380828437600081840152601f19601f8201169050808301925050505050505081526020018280602001906115409190614835565b8080601f016020809104026020016040519081016040528093929190818152602001838380828437600081840152601f19601f82011690508083019250505050505050815250610101600084815260200190815260200160002060008201518160000190805190602001906115b6929190612e54565b5060208201518160010190805190602001906115d3929190612e54565b509050505050565b6115e3611e3e565b73ffffffffffffffffffffffffffffffffffffffff16611601611661565b73ffffffffffffffffffffffffffffffffffffffff1614611657576040517f08c379a000000000000000000000000000000000000000000000000000000000815260040161164e906146ba565b60405180910390fd5b61165f61245c565b565b6000603360009054906101000a900473ffffffffffffffffffffffffffffffffffffffff16905090565b61169d611696611e3e565b83836124ff565b5050565b60ff6020528060005260406000206000915090505481565b6101016020528060005260406000206000915090508060000180546116dd90613cf6565b80601f016020809104026020016040519081016040528092919081815260200182805461170990613cf6565b80156117565780601f1061172b57610100808354040283529160200191611756565b820191906000526020600020905b81548152906001019060200180831161173957829003601f168201915b50505050509080600101805461176b90613cf6565b80601f016020809104026020016040519081016040528092919081815260200182805461179790613cf6565b80156117e45780601f106117b9576101008083540402835291602001916117e4565b820191906000526020600020905b8154815290600101906020018083116117c757829003601f168201915b5050505050905082565b600060ca60008473ffffffffffffffffffffffffffffffffffffffff1673ffffffffffffffffffffffffffffffffffffffff16815260200190815260200160002060008373ffffffffffffffffffffffffffffffffffffffff1673ffffffffffffffffffffffffffffffffffffffff16815260200190815260200160002060009054906101000a900460ff16905092915050565b61188a611e3e565b73ffffffffffffffffffffffffffffffffffffffff168573ffffffffffffffffffffffffffffffffffffffff1614806118d057506118cf856118ca611e3e565b6117ee565b5b61190f576040517f08c379a00000000000000000000000000000000000000000000000000000000081526004016119069061490a565b60405180910390fd5b61191c858585858561266c565b5050505050565b61192b611e3e565b73ffffffffffffffffffffffffffffffffffffffff16611949611661565b73ffffffffffffffffffffffffffffffffffffffff161461199f576040517f08c379a0000000000000000000000000000000000000000000000000000000008152600401611996906146ba565b60405180910390fd5b600073ffffffffffffffffffffffffffffffffffffffff168173ffffffffffffffffffffffffffffffffffffffff161415611a0f576040517f08c379a0000000000000000000000000000000000000000000000000000000008152600401611a069061499c565b60405180910390fd5b611a1881612396565b50565b60007f01ffc9a7000000000000000000000000000000000000000000000000000000007bffffffffffffffffffffffffffffffffffffffffffffffffffffffff1916827bffffffffffffffffffffffffffffffffffffffffffffffffffffffff1916149050919050565b60606000821415611acd576040518060400160405280600181526020017f30000000000000000000000000000000000000000000000000000000000000008152509050611be1565b600082905060005b60008214611aff578080611ae89061456a565b915050600a82611af89190614763565b9150611ad5565b60008167ffffffffffffffff811115611b1b57611b1a613217565b5b6040519080825280601f01601f191660200182016040528015611b4d5781602001600182028036833780820191505090505b5090505b60008514611bda57600182611b669190613c93565b9150600a85611b7591906149bc565b6030611b81919061443c565b60f81b818381518110611b9757611b9661425d565b5b60200101907effffffffffffffffffffffffffffffffffffffffffffffffffffffffffffff1916908160001a905350600a85611bd39190614763565b9450611b51565b8093505050505b919050565b6060600082511415611c0957604051806020016040528060008152509050611d66565b600060405180606001604052806040815260200161515d6040913990506000600360028551611c38919061443c565b611c429190614763565b6004611c4e91906146da565b90506000602082611c5f919061443c565b67ffffffffffffffff811115611c7857611c77613217565b5b6040519080825280601f01601f191660200182016040528015611caa5781602001600182028036833780820191505090505b509050818152600183018586518101602084015b81831015611d25576003830192508251603f8160121c1685015160f81b8252600182019150603f81600c1c1685015160f81b8252600182019150603f8160061c1685015160f81b8252600182019150603f811685015160f81b825260018201915050611cbe565b600389510660018114611d3f5760028114611d4f57611d5a565b613d3d60f01b6002830352611d5a565b603d60f81b60018303525b50505050508093505050505b919050565b6000611d76306128f1565b15905090565b600060019054906101000a900460ff16611dcb576040517f08c379a0000000000000000000000000000000000000000000000000000000008152600401611dc290614a5f565b60405180910390fd5b611dd3612904565b611ddb612955565b565b600060019054906101000a900460ff16611e2c576040517f08c379a0000000000000000000000000000000000000000000000000000000008152600401611e2390614a5f565b60405180910390fd5b611e34612904565b611e3c6129b6565b565b600033905090565b600073ffffffffffffffffffffffffffffffffffffffff168473ffffffffffffffffffffffffffffffffffffffff161415611eb6576040517f08c379a0000000000000000000000000000000000000000000000000000000008152600401611ead90614af1565b60405180910390fd5b6000611ec0611e3e565b9050611ee181600087611ed288612a22565b611edb88612a22565b87612a9c565b8260c9600086815260200190815260200160002060008773ffffffffffffffffffffffffffffffffffffffff1673ffffffffffffffffffffffffffffffffffffffff1681526020019081526020016000206000828254611f41919061443c565b925050819055508473ffffffffffffffffffffffffffffffffffffffff16600073ffffffffffffffffffffffffffffffffffffffff168273ffffffffffffffffffffffffffffffffffffffff167fc3d58168c5ae7397731d063d5bbf3d657854427343f4c083240f7aacaa2d0f628787604051611fbf929190614b11565b60405180910390a4611fd681600087878787612aa4565b5050505050565b8151835114612021576040517f08c379a000000000000000000000000000000000000000000000000000000000815260040161201890614bac565b60405180910390fd5b600073ffffffffffffffffffffffffffffffffffffffff168473ffffffffffffffffffffffffffffffffffffffff161415612091576040517f08c379a000000000000000000000000000000000000000000000000000000000815260040161208890614c3e565b60405180910390fd5b600061209b611e3e565b90506120ab818787878787612a9c565b60005b845181101561225f5760008582815181106120cc576120cb61425d565b5b6020026020010151905060008583815181106120eb576120ea61425d565b5b60200260200101519050600060c9600084815260200190815260200160002060008b73ffffffffffffffffffffffffffffffffffffffff1673ffffffffffffffffffffffffffffffffffffffff1681526020019081526020016000205490508181101561218d576040517f08c379a000000000000000000000000000000000000000000000000000000000815260040161218490614cd0565b60405180910390fd5b81810360c9600085815260200190815260200160002060008c73ffffffffffffffffffffffffffffffffffffffff1673ffffffffffffffffffffffffffffffffffffffff168152602001908152602001600020819055508160c9600085815260200190815260200160002060008b73ffffffffffffffffffffffffffffffffffffffff1673ffffffffffffffffffffffffffffffffffffffff1681526020019081526020016000206000828254612244919061443c565b92505081905550505050806122589061456a565b90506120ae565b508473ffffffffffffffffffffffffffffffffffffffff168673ffffffffffffffffffffffffffffffffffffffff168273ffffffffffffffffffffffffffffffffffffffff167f4a39dc06d4c0dbc64b70af90fd698a233a518aa5d07e595d983b8c0526c8f7fb87876040516122d6929190614cf0565b60405180910390a46122ec818787878787612c7c565b505050505050565b6122fc6113b2565b61233b576040517f08c379a000000000000000000000000000000000000000000000000000000000815260040161233290614d73565b60405180910390fd5b6000606560006101000a81548160ff0219169083151502179055507f5db9ee0a495bf2e6ff9c91a7834c1ba4fdd244a5e8aa4e537bd38aeae4b073aa61237f611e3e565b60405161238c919061397e565b60405180910390a1565b6000603360009054906101000a900473ffffffffffffffffffffffffffffffffffffffff16905081603360006101000a81548173ffffffffffffffffffffffffffffffffffffffff021916908373ffffffffffffffffffffffffffffffffffffffff1602179055508173ffffffffffffffffffffffffffffffffffffffff168173ffffffffffffffffffffffffffffffffffffffff167f8be0079c531659141344cd1fd0a4f28419497f9722a3daafe3b4186f6b6457e060405160405180910390a35050565b6124646113b2565b156124a4576040517f08c379a000000000000000000000000000000000000000000000000000000000815260040161249b906142d8565b60405180910390fd5b6001606560006101000a81548160ff0219169083151502179055507f62e78cea01bee320cd4e420270b5ea74000d11b0c9f74754ebdbfc544b05a2586124e8611e3e565b6040516124f5919061397e565b60405180910390a1565b8173ffffffffffffffffffffffffffffffffffffffff168373ffffffffffffffffffffffffffffffffffffffff16141561256e576040517f08c379a000000000000000000000000000000000000000000000000000000000815260040161256590614e05565b60405180910390fd5b8060ca60008573ffffffffffffffffffffffffffffffffffffffff1673ffffffffffffffffffffffffffffffffffffffff16815260200190815260200160002060008473ffffffffffffffffffffffffffffffffffffffff1673ffffffffffffffffffffffffffffffffffffffff16815260200190815260200160002060006101000a81548160ff0219169083151502179055508173ffffffffffffffffffffffffffffffffffffffff168373ffffffffffffffffffffffffffffffffffffffff167f17307eab39ab6107e8899845ad3d59bd9653f200f220920489ca2b5937696c318360405161265f91906130a9565b60405180910390a3505050565b600073ffffffffffffffffffffffffffffffffffffffff168473ffffffffffffffffffffffffffffffffffffffff1614156126dc576040517f08c379a00000000000000000000000000000000000000000000000000000000081526004016126d390614c3e565b60405180910390fd5b60006126e6611e3e565b90506127068187876126f788612a22565b61270088612a22565b87612a9c565b600060c9600086815260200190815260200160002060008873ffffffffffffffffffffffffffffffffffffffff1673ffffffffffffffffffffffffffffffffffffffff1681526020019081526020016000205490508381101561279e576040517f08c379a000000000000000000000000000000000000000000000000000000000815260040161279590614cd0565b60405180910390fd5b83810360c9600087815260200190815260200160002060008973ffffffffffffffffffffffffffffffffffffffff1673ffffffffffffffffffffffffffffffffffffffff168152602001908152602001600020819055508360c9600087815260200190815260200160002060008873ffffffffffffffffffffffffffffffffffffffff1673ffffffffffffffffffffffffffffffffffffffff1681526020019081526020016000206000828254612855919061443c565b925050819055508573ffffffffffffffffffffffffffffffffffffffff168773ffffffffffffffffffffffffffffffffffffffff168373ffffffffffffffffffffffffffffffffffffffff167fc3d58168c5ae7397731d063d5bbf3d657854427343f4c083240f7aacaa2d0f6288886040516128d2929190614b11565b60405180910390a46128e8828888888888612aa4565b50505050505050565b600080823b905060008111915050919050565b600060019054906101000a900460ff16612953576040517f08c379a000000000000000000000000000000000000000000000000000000000815260040161294a90614a5f565b60405180910390fd5b565b600060019054906101000a900460ff166129a4576040517f08c379a000000000000000000000000000000000000000000000000000000000815260040161299b90614a5f565b60405180910390fd5b6129b46129af611e3e565b612396565b565b600060019054906101000a900460ff16612a05576040517f08c379a00000000000000000000000000000000000000000000000000000000081526004016129fc90614a5f565b60405180910390fd5b6000606560006101000a81548160ff021916908315150217905550565b60606000600167ffffffffffffffff811115612a4157612a40613217565b5b604051908082528060200260200182016040528015612a6f5781602001602082028036833780820191505090505b5090508281600081518110612a8757612a8661425d565b5b60200260200101818152505080915050919050565b505050505050565b612ac38473ffffffffffffffffffffffffffffffffffffffff166128f1565b15612c74578373ffffffffffffffffffffffffffffffffffffffff1663f23a6e6187878686866040518663ffffffff1660e01b8152600401612b09959493929190614e6f565b6020604051808303816000875af1925050508015612b4557506040513d601f19601f82011682018060405250810190612b429190614ede565b60015b612beb57612b51614f18565b806308c379a01415612bae5750612b66614f3a565b80612b715750612bb0565b806040517f08c379a0000000000000000000000000000000000000000000000000000000008152600401612ba591906131f0565b60405180910390fd5b505b6040517f08c379a0000000000000000000000000000000000000000000000000000000008152600401612be290615042565b60405180910390fd5b63f23a6e6160e01b7bffffffffffffffffffffffffffffffffffffffffffffffffffffffff1916817bffffffffffffffffffffffffffffffffffffffffffffffffffffffff191614612c72576040517f08c379a0000000000000000000000000000000000000000000000000000000008152600401612c69906150d4565b60405180910390fd5b505b505050505050565b612c9b8473ffffffffffffffffffffffffffffffffffffffff166128f1565b15612e4c578373ffffffffffffffffffffffffffffffffffffffff1663bc197c8187878686866040518663ffffffff1660e01b8152600401612ce19594939291906150f4565b6020604051808303816000875af1925050508015612d1d57506040513d601f19601f82011682018060405250810190612d1a9190614ede565b60015b612dc357612d29614f18565b806308c379a01415612d865750612d3e614f3a565b80612d495750612d88565b806040517f08c379a0000000000000000000000000000000000000000000000000000000008152600401612d7d91906131f0565b60405180910390fd5b505b6040517f08c379a0000000000000000000000000000000000000000000000000000000008152600401612dba90615042565b60405180910390fd5b63bc197c8160e01b7bffffffffffffffffffffffffffffffffffffffffffffffffffffffff1916817bffffffffffffffffffffffffffffffffffffffffffffffffffffffff191614612e4a576040517f08c379a0000000000000000000000000000000000000000000000000000000008152600401612e41906150d4565b60405180910390fd5b505b505050505050565b828054612e6090613cf6565b90600052602060002090601f016020900481019282612e825760008555612ec9565b82601f10612e9b57805160ff1916838001178555612ec9565b82800160010185558215612ec9579182015b82811115612ec8578251825591602001919060010190612ead565b5b509050612ed69190612eda565b5090565b5b80821115612ef3576000816000905550600101612edb565b5090565b6000604051905090565b600080fd5b600080fd5b600073ffffffffffffffffffffffffffffffffffffffff82169050919050565b6000612f3682612f0b565b9050919050565b612f4681612f2b565b8114612f5157600080fd5b50565b600081359050612f6381612f3d565b92915050565b6000819050919050565b612f7c81612f69565b8114612f8757600080fd5b50565b600081359050612f9981612f73565b92915050565b60008060408385031215612fb657612fb5612f01565b5b6000612fc485828601612f54565b9250506020612fd585828601612f8a565b9150509250929050565b612fe881612f69565b82525050565b60006020820190506130036000830184612fdf565b92915050565b60007fffffffff0000000000000000000000000000000000000000000000000000000082169050919050565b61303e81613009565b811461304957600080fd5b50565b60008135905061305b81613035565b92915050565b60006020828403121561307757613076612f01565b5b60006130858482850161304c565b91505092915050565b60008115159050919050565b6130a38161308e565b82525050565b60006020820190506130be600083018461309a565b92915050565b600060ff82169050919050565b6130da816130c4565b81146130e557600080fd5b50565b6000813590506130f7816130d1565b92915050565b60006020828403121561311357613112612f01565b5b6000613121848285016130e8565b91505092915050565b6000602082840312156131405761313f612f01565b5b600061314e84828501612f8a565b91505092915050565b600081519050919050565b600082825260208201905092915050565b60005b83811015613191578082015181840152602081019050613176565b838111156131a0576000848401525b50505050565b6000601f19601f8301169050919050565b60006131c282613157565b6131cc8185613162565b93506131dc818560208601613173565b6131e5816131a6565b840191505092915050565b6000602082019050818103600083015261320a81846131b7565b905092915050565b600080fd5b7f4e487b7100000000000000000000000000000000000000000000000000000000600052604160045260246000fd5b61324f826131a6565b810181811067ffffffffffffffff8211171561326e5761326d613217565b5b80604052505050565b6000613281612ef7565b905061328d8282613246565b919050565b600067ffffffffffffffff8211156132ad576132ac613217565b5b602082029050602081019050919050565b600080fd5b60006132d66132d184613292565b613277565b905080838252602082019050602084028301858111156132f9576132f86132be565b5b835b81811015613322578061330e8882612f8a565b8452602084019350506020810190506132fb565b5050509392505050565b600082601f83011261334157613340613212565b5b81356133518482602086016132c3565b91505092915050565b600067ffffffffffffffff82111561337557613374613217565b5b602082029050602081019050919050565b60006133996133948461335a565b613277565b905080838252602082019050602084028301858111156133bc576133bb6132be565b5b835b818110156133e557806133d188826130e8565b8452602084019350506020810190506133be565b5050509392505050565b600082601f83011261340457613403613212565b5b8135613414848260208601613386565b91505092915050565b600080600080600060a0868803121561343957613438612f01565b5b600061344788828901612f54565b955050602061345888828901612f54565b945050604061346988828901612f54565b935050606086013567ffffffffffffffff81111561348a57613489612f06565b5b6134968882890161332c565b925050608086013567ffffffffffffffff8111156134b7576134b6612f06565b5b6134c3888289016133ef565b9150509295509295909350565b600080604083850312156134e7576134e6612f01565b5b60006134f5858286016130e8565b9250506020613506858286016130e8565b9150509250929050565b600080fd5b600067ffffffffffffffff8211156135305761352f613217565b5b613539826131a6565b9050602081019050919050565b82818337600083830152505050565b600061356861356384613515565b613277565b90508281526020810184848401111561358457613583613510565b5b61358f848285613546565b509392505050565b600082601f8301126135ac576135ab613212565b5b81356135bc848260208601613555565b91505092915050565b600080600080600060a086880312156135e1576135e0612f01565b5b60006135ef88828901612f54565b955050602061360088828901612f54565b945050604086013567ffffffffffffffff81111561362157613620612f06565b5b61362d8882890161332c565b935050606086013567ffffffffffffffff81111561364e5761364d612f06565b5b61365a8882890161332c565b925050608086013567ffffffffffffffff81111561367b5761367a612f06565b5b61368788828901613597565b9150509295509295909350565b600080604083850312156136ab576136aa612f01565b5b60006136b9858286016130e8565b92505060206136ca85828601612f8a565b9150509250929050565b600067ffffffffffffffff8211156136ef576136ee613217565b5b602082029050602081019050919050565b600061371361370e846136d4565b613277565b90508083825260208201905060208402830185811115613736576137356132be565b5b835b8181101561375f578061374b8882612f54565b845260208401935050602081019050613738565b5050509392505050565b600082601f83011261377e5761377d613212565b5b813561378e848260208601613700565b91505092915050565b600080604083850312156137ae576137ad612f01565b5b600083013567ffffffffffffffff8111156137cc576137cb612f06565b5b6137d885828601613769565b925050602083013567ffffffffffffffff8111156137f9576137f8612f06565b5b6138058582860161332c565b9150509250929050565b600081519050919050565b600082825260208201905092915050565b6000819050602082019050919050565b61384481612f69565b82525050565b6000613856838361383b565b60208301905092915050565b6000602082019050919050565b600061387a8261380f565b613884818561381a565b935061388f8361382b565b8060005b838110156138c05781516138a7888261384a565b97506138b283613862565b925050600181019050613893565b5085935050505092915050565b600060208201905081810360008301526138e7818461386f565b905092915050565b600080fd5b60006040828403121561390a576139096138ef565b5b81905092915050565b6000806040838503121561392a57613929612f01565b5b600061393885828601612f8a565b925050602083013567ffffffffffffffff81111561395957613958612f06565b5b613965858286016138f4565b9150509250929050565b61397881612f2b565b82525050565b6000602082019050613993600083018461396f565b92915050565b6139a28161308e565b81146139ad57600080fd5b50565b6000813590506139bf81613999565b92915050565b600080604083850312156139dc576139db612f01565b5b60006139ea85828601612f54565b92505060206139fb858286016139b0565b9150509250929050565b60006040820190508181036000830152613a1f81856131b7565b90508181036020830152613a3381846131b7565b90509392505050565b60008060408385031215613a5357613a52612f01565b5b6000613a6185828601612f54565b9250506020613a7285828601612f54565b9150509250929050565b600080600080600060a08688031215613a9857613a97612f01565b5b6000613aa688828901612f54565b9550506020613ab788828901612f54565b9450506040613ac888828901612f8a565b9350506060613ad988828901612f8a565b925050608086013567ffffffffffffffff811115613afa57613af9612f06565b5b613b0688828901613597565b9150509295509295909350565b600060208284031215613b2957613b28612f01565b5b6000613b3784828501612f54565b91505092915050565b7f455243313135353a2062616c616e636520717565727920666f7220746865207a60008201527f65726f2061646472657373000000000000000000000000000000000000000000602082015250565b6000613b9c602b83613162565b9150613ba782613b40565b604082019050919050565b60006020820190508181036000830152613bcb81613b8f565b9050919050565b7f455243313135354d657461646174613a2055524920717565727920666f72206e60008201527f6f6e2d6578697374656e7420746f6b656e000000000000000000000000000000602082015250565b6000613c2e603183613162565b9150613c3982613bd2565b604082019050919050565b60006020820190508181036000830152613c5d81613c21565b9050919050565b7f4e487b7100000000000000000000000000000000000000000000000000000000600052601160045260246000fd5b6000613c9e82612f69565b9150613ca983612f69565b925082821015613cbc57613cbb613c64565b5b828203905092915050565b7f4e487b7100000000000000000000000000000000000000000000000000000000600052602260045260246000fd5b60006002820490506001821680613d0e57607f821691505b60208210811415613d2257613d21613cc7565b5b50919050565b600081905092915050565b7f7b00000000000000000000000000000000000000000000000000000000000000600082015250565b6000613d69600183613d28565b9150613d7482613d33565b600182019050919050565b7f226e616d65223a22000000000000000000000000000000000000000000000000600082015250565b6000613db5600883613d28565b9150613dc082613d7f565b600882019050919050565b6000613dd682613157565b613de08185613d28565b9350613df0818560208601613173565b80840191505092915050565b7f222c000000000000000000000000000000000000000000000000000000000000600082015250565b6000613e32600283613d28565b9150613e3d82613dfc565b600282019050919050565b7f226465736372697074696f6e223a22526174416c6572742c20746865204e465460008201527f2067616d652074686174206c65747320796f7520547261696e324561726e207960208201527f6f75722063686172616374657273206f6e2d636861696e20666f72206869676860408201527f65722072657761726473212068747470733a2f2f726174616c6572742e636f6d60608201527f2f222c0000000000000000000000000000000000000000000000000000000000608082015250565b6000613f16608383613d28565b9150613f2182613e48565b608382019050919050565b7f2265787465726e616c5f75726c223a2268747470733a2f2f726174616c65727460008201527f2e636f6d2f6b69746368656e732f000000000000000000000000000000000000602082015250565b6000613f88602e83613d28565b9150613f9382613f2c565b602e82019050919050565b7f22696d616765223a22646174613a696d6167652f706e673b6261736536342c00600082015250565b6000613fd4601f83613d28565b9150613fdf82613f9e565b601f82019050919050565b600081519050919050565b600081905092915050565b600061400b82613fea565b6140158185613ff5565b9350614025818560208601613173565b80840191505092915050565b7f2200000000000000000000000000000000000000000000000000000000000000600082015250565b6000614067600183613d28565b915061407282614031565b600182019050919050565b7f7d00000000000000000000000000000000000000000000000000000000000000600082015250565b60006140b3600183613d28565b91506140be8261407d565b600182019050919050565b60006140d482613d5c565b91506140df82613da8565b91506140eb8286613dcb565b91506140f682613e25565b915061410182613f09565b915061410c82613f7b565b91506141188285613dcb565b915061412382613e25565b915061412e82613fc7565b915061413a8284614000565b91506141458261405a565b9150614150826140a6565b9150819050949350505050565b7f646174613a6170706c69636174696f6e2f6a736f6e3b6261736536342c000000600082015250565b6000614193601d83613d28565b915061419e8261415d565b601d82019050919050565b60006141b482614186565b91506141c08284613dcb565b915081905092915050565b7f496e697469616c697a61626c653a20636f6e747261637420697320616c72656160008201527f647920696e697469616c697a6564000000000000000000000000000000000000602082015250565b6000614227602e83613162565b9150614232826141cb565b604082019050919050565b600060208201905081810360008301526142568161421a565b9050919050565b7f4e487b7100000000000000000000000000000000000000000000000000000000600052603260045260246000fd5b7f5061757361626c653a2070617573656400000000000000000000000000000000600082015250565b60006142c2601083613162565b91506142cd8261428c565b602082019050919050565b600060208201905081810360008301526142f1816142b5565b9050919050565b7f454f41206f6e6c79000000000000000000000000000000000000000000000000600082015250565b600061432e600883613162565b9150614339826142f8565b602082019050919050565b6000602082019050818103600083015261435d81614321565b9050919050565b7f496e76616c6964206b69746368656e0000000000000000000000000000000000600082015250565b600061439a600f83613162565b91506143a582614364565b602082019050919050565b600060208201905081810360008301526143c98161438d565b9050919050565b7f496e76616c6964206d696e7420616d6f756e7400000000000000000000000000600082015250565b6000614406601383613162565b9150614411826143d0565b602082019050919050565b60006020820190508181036000830152614435816143f9565b9050919050565b600061444782612f69565b915061445283612f69565b9250827fffffffffffffffffffffffffffffffffffffffffffffffffffffffffffffffff0382111561448757614486613c64565b5b828201905092915050565b7f416c6c20746f6b656e73206d696e746564000000000000000000000000000000600082015250565b60006144c8601183613162565b91506144d382614492565b602082019050919050565b600060208201905081810360008301526144f7816144bb565b9050919050565b7f496e76616c6964207061796d656e742074797065000000000000000000000000600082015250565b6000614534601483613162565b915061453f826144fe565b602082019050919050565b6000602082019050818103600083015261456381614527565b9050919050565b600061457582612f69565b91507fffffffffffffffffffffffffffffffffffffffffffffffffffffffffffffffff8214156145a8576145a7613c64565b5b600182019050919050565b60006040820190506145c8600083018561396f565b6145d56020830184612fdf565b9392505050565b7f455243313135353a207472616e736665722063616c6c6572206973206e6f742060008201527f6f776e6572206e6f7220617070726f7665640000000000000000000000000000602082015250565b6000614638603283613162565b9150614643826145dc565b604082019050919050565b600060208201905081810360008301526146678161462b565b9050919050565b7f4f776e61626c653a2063616c6c6572206973206e6f7420746865206f776e6572600082015250565b60006146a4602083613162565b91506146af8261466e565b602082019050919050565b600060208201905081810360008301526146d381614697565b9050919050565b60006146e582612f69565b91506146f083612f69565b9250817fffffffffffffffffffffffffffffffffffffffffffffffffffffffffffffffff048311821515161561472957614728613c64565b5b828202905092915050565b7f4e487b7100000000000000000000000000000000000000000000000000000000600052601260045260246000fd5b600061476e82612f69565b915061477983612f69565b92508261478957614788614734565b5b828204905092915050565b7f455243313135353a206163636f756e747320616e6420696473206c656e67746860008201527f206d69736d617463680000000000000000000000000000000000000000000000602082015250565b60006147f0602983613162565b91506147fb82614794565b604082019050919050565b6000602082019050818103600083015261481f816147e3565b9050919050565b600080fd5b600080fd5b600080fd5b6000808335600160200384360303811261485257614851614826565b5b80840192508235915067ffffffffffffffff8211156148745761487361482b565b5b6020830192506001820236038313156148905761488f614830565b5b509250929050565b7f455243313135353a2063616c6c6572206973206e6f74206f776e6572206e6f7260008201527f20617070726f7665640000000000000000000000000000000000000000000000602082015250565b60006148f4602983613162565b91506148ff82614898565b604082019050919050565b60006020820190508181036000830152614923816148e7565b9050919050565b7f4f776e61626c653a206e6577206f776e657220697320746865207a65726f206160008201527f6464726573730000000000000000000000000000000000000000000000000000602082015250565b6000614986602683613162565b91506149918261492a565b604082019050919050565b600060208201905081810360008301526149b581614979565b9050919050565b60006149c782612f69565b91506149d283612f69565b9250826149e2576149e1614734565b5b828206905092915050565b7f496e697469616c697a61626c653a20636f6e7472616374206973206e6f74206960008201527f6e697469616c697a696e67000000000000000000000000000000000000000000602082015250565b6000614a49602b83613162565b9150614a54826149ed565b604082019050919050565b60006020820190508181036000830152614a7881614a3c565b9050919050565b7f455243313135353a206d696e7420746f20746865207a65726f2061646472657360008201527f7300000000000000000000000000000000000000000000000000000000000000602082015250565b6000614adb602183613162565b9150614ae682614a7f565b604082019050919050565b60006020820190508181036000830152614b0a81614ace565b9050919050565b6000604082019050614b266000830185612fdf565b614b336020830184612fdf565b9392505050565b7f455243313135353a2069647320616e6420616d6f756e7473206c656e6774682060008201527f6d69736d61746368000000000000000000000000000000000000000000000000602082015250565b6000614b96602883613162565b9150614ba182614b3a565b604082019050919050565b60006020820190508181036000830152614bc581614b89565b9050919050565b7f455243313135353a207472616e7366657220746f20746865207a65726f20616460008201527f6472657373000000000000000000000000000000000000000000000000000000602082015250565b6000614c28602583613162565b9150614c3382614bcc565b604082019050919050565b60006020820190508181036000830152614c5781614c1b565b9050919050565b7f455243313135353a20696e73756666696369656e742062616c616e636520666f60008201527f72207472616e7366657200000000000000000000000000000000000000000000602082015250565b6000614cba602a83613162565b9150614cc582614c5e565b604082019050919050565b60006020820190508181036000830152614ce981614cad565b9050919050565b60006040820190508181036000830152614d0a818561386f565b90508181036020830152614d1e818461386f565b90509392505050565b7f5061757361626c653a206e6f7420706175736564000000000000000000000000600082015250565b6000614d5d601483613162565b9150614d6882614d27565b602082019050919050565b60006020820190508181036000830152614d8c81614d50565b9050919050565b7f455243313135353a2073657474696e6720617070726f76616c2073746174757360008201527f20666f722073656c660000000000000000000000000000000000000000000000602082015250565b6000614def602983613162565b9150614dfa82614d93565b604082019050919050565b60006020820190508181036000830152614e1e81614de2565b9050919050565b600082825260208201905092915050565b6000614e4182613fea565b614e4b8185614e25565b9350614e5b818560208601613173565b614e64816131a6565b840191505092915050565b600060a082019050614e84600083018861396f565b614e91602083018761396f565b614e9e6040830186612fdf565b614eab6060830185612fdf565b8181036080830152614ebd8184614e36565b90509695505050505050565b600081519050614ed881613035565b92915050565b600060208284031215614ef457614ef3612f01565b5b6000614f0284828501614ec9565b91505092915050565b60008160e01c9050919050565b600060033d1115614f375760046000803e614f34600051614f0b565b90505b90565b600060443d1015614f4a57614fcd565b614f52612ef7565b60043d036004823e80513d602482011167ffffffffffffffff82111715614f7a575050614fcd565b808201805167ffffffffffffffff811115614f985750505050614fcd565b80602083010160043d038501811115614fb5575050505050614fcd565b614fc482602001850186613246565b82955050505050505b90565b7f455243313135353a207472616e7366657220746f206e6f6e204552433131353560008201527f526563656976657220696d706c656d656e746572000000000000000000000000602082015250565b600061502c603483613162565b915061503782614fd0565b604082019050919050565b6000602082019050818103600083015261505b8161501f565b9050919050565b7f455243313135353a204552433131353552656365697665722072656a6563746560008201527f6420746f6b656e73000000000000000000000000000000000000000000000000602082015250565b60006150be602883613162565b91506150c982615062565b604082019050919050565b600060208201905081810360008301526150ed816150b1565b9050919050565b600060a082019050615109600083018861396f565b615116602083018761396f565b8181036040830152615128818661386f565b9050818103606083015261513c818561386f565b905081810360808301526151508184614e36565b9050969550505050505056fe4142434445464748494a4b4c4d4e4f505152535455565758595a6162636465666768696a6b6c6d6e6f707172737475767778797a303132333435363738392b2fa26469706673582212208220a3166e76ea661ce4ef98859bedc425b78f40d52c8797d6a56eb7d6f039d964736f6c634300080a0033",
  "immutableReferences": {},
  "source": "// SPDX-License-Identifier: MIT\n\npragma solidity ^0.8.0;\n\nimport \"@openzeppelin/contracts-upgradeable/proxy/utils/Initializable.sol\";\nimport \"@openzeppelin/contracts-upgradeable/access/OwnableUpgradeable.sol\";\nimport \"@openzeppelin/contracts-upgradeable/token/ERC1155/ERC1155Upgradeable.sol\";\nimport \"@openzeppelin/contracts/utils/Strings.sol\";\nimport \"./GenericPausable.sol\";\nimport \"./FastFood.sol\";\nimport \"./CasualFood.sol\";\nimport \"./Character.sol\";\n\ncontract KitchenShop is Initializable, OwnableUpgradeable, GenericPausable, ERC1155Upgradeable {\n  using Strings for uint256;\n\n  struct KitchenData { // Struct to store each kitchen's metadata\n    string name;\n    string png;\n  }\n\n  FastFood fastFood; // Reference to the $FFOOD contract\n  CasualFood casualFood; // Reference to the $CFOOD contract\n  Character character; // Reference to the Character contract\n\n  mapping (uint8 => uint256) public maxTokens;\n  mapping (uint8 => uint256) public minSkill;\n  mapping (uint8 => uint256) public minted;\n  mapping(uint256 => KitchenData) public kitchenData; // Storage of each kitchen's metadata\n\n  function initialize(address _fastFood, address _casualFood, address _character, uint256[] memory _maxTokens, uint8[] memory _minSkill) external initializer {\n    __Ownable_init();\n    __Pausable_init();\n    // TODO similar to __ERC721_init(\"RatAlert Characters\", \"RATCHAR\"); or _setURI(string newuri)?\n\n    fastFood = FastFood(_fastFood);\n    casualFood = CasualFood(_casualFood);\n    character = Character(_character);\n    maxTokens[1] = _maxTokens[0];\n    maxTokens[2] = _maxTokens[1];\n    minSkill[1] = _minSkill[0];\n    minSkill[2] = _minSkill[1];\n    minted[1] = 0;\n    minted[2] = 0;\n  }\n\n  /**\n   * Mints new ERC1155 token(s) of a kitchen\n   * @param amount Number of tokens to mint\n   */\n  function mint(uint8 kitchen, uint8 amount) external payable whenNotPaused {\n    require(tx.origin == _msgSender(), \"EOA only\");\n    require(kitchen > 0 && kitchen <= 2, \"Invalid kitchen\");\n    require(amount > 0 && amount <= 10, \"Invalid mint amount\");\n    require(minted[kitchen] + amount <= maxTokens[kitchen], \"All tokens minted\");\n    require(msg.value == 0, \"Invalid payment type\");\n\n    uint256 totalCost = 0;\n    for (uint i = 0; i < amount; i++) {\n      minted[kitchen] ++;\n      totalCost += mintCost(kitchen, minted[kitchen]);\n    }\n    _mint(_msgSender(), kitchen, amount, \"\");\n    if (totalCost > 0) {\n      if (kitchen == 2) {\n        casualFood.burn(_msgSender(), totalCost);\n      } else {\n        fastFood.burn(_msgSender(), totalCost);\n      }\n    }\n  }\n\n  /**\n   *    1 - 1000: 2000 $FFOOD\n   * 1001 - 2000: 3000 $FFOOD\n   * 2001 - 3000: 4000 $FFOOD\n   * 3001 - 4000: 5000 $FFOOD\n   * 4001 - 5000: 6000 $FFOOD\n   * @param tokenId - The token ID to check\n   * @return The minting cost of the given ID\n   */\n  function mintCost(uint8 kitchen, uint256 tokenId) public view returns (uint256) {\n    if (tokenId <= maxTokens[kitchen] * 1 / 5) return 2000 ether;\n    if (tokenId <= maxTokens[kitchen] * 2 / 5) return 3000 ether;\n    if (tokenId <= maxTokens[kitchen] * 3 / 5) return 4000 ether;\n    if (tokenId <= maxTokens[kitchen] * 4 / 5) return 5000 ether;\n    return 6000 ether;\n  }\n\n  function uri(uint256 tokenId) public view override returns (string memory) {\n    require(tokenId > 0 && tokenId <= 2, \"ERC1155Metadata: URI query for non-existent token\");\n    KitchenData memory kitchen = kitchenData[tokenId - 1];\n\n    string memory metadata = string(abi.encodePacked(\n      '{',\n        '\"name\":\"', kitchen.name, '\",',\n        '\"description\":\"RatAlert, the NFT game that lets you Train2Earn your characters on-chain for higher rewards! https://ratalert.com/\",',\n        '\"external_url\":\"https://ratalert.com/kitchens/', tokenId.toString(), '\",',\n        '\"image\":\"data:image/png;base64,', bytes(kitchen.png), '\"',\n      '}'\n    ));\n\n    return string(abi.encodePacked(\"data:application/json;base64,\", base64(bytes(metadata))));\n  }\n\n  /**\n   * Used by admin to upload the kitchen images\n   * @param imageIndex - The index at which to upload the image\n   * @param kitchen - The base64 encoded PNG for that kitchen\n   */\n  function uploadImage(uint256 imageIndex, KitchenData calldata kitchen) external onlyOwner {\n    kitchenData[imageIndex] = KitchenData(\n      kitchen.name,\n      kitchen.png\n    );\n  }\n\n  /** BASE 64 - Written by Brech Devos */\n  string internal constant TABLE = 'ABCDEFGHIJKLMNOPQRSTUVWXYZabcdefghijklmnopqrstuvwxyz0123456789+/';\n  function base64(bytes memory data) internal pure returns (string memory) {\n    if (data.length == 0) return '';\n    string memory table = TABLE; // load the table into memory\n    uint256 encodedLen = 4 * ((data.length + 2) / 3); // multiply by 4/3 rounded up\n    string memory result = new string(encodedLen + 32); // add some extra buffer at the end required for the writing\n    assembly {\n      mstore(result, encodedLen) // set the actual output length\n      let tablePtr := add(table, 1) // prepare the lookup table\n      let dataPtr := data // input ptr\n      let endPtr := add(dataPtr, mload(data))\n      let resultPtr := add(result, 32) // result ptr, jump over length\n      for {} lt(dataPtr, endPtr) {} // run over the input, 3 bytes at a time\n      {\n        dataPtr := add(dataPtr, 3)\n        let input := mload(dataPtr) // read 3 bytes\n        // write 4 characters\n        mstore(resultPtr, shl(248, mload(add(tablePtr, and(shr(18, input), 0x3F)))))\n        resultPtr := add(resultPtr, 1)\n        mstore(resultPtr, shl(248, mload(add(tablePtr, and(shr(12, input), 0x3F)))))\n        resultPtr := add(resultPtr, 1)\n        mstore(resultPtr, shl(248, mload(add(tablePtr, and(shr( 6, input), 0x3F)))))\n        resultPtr := add(resultPtr, 1)\n        mstore(resultPtr, shl(248, mload(add(tablePtr, and(        input,  0x3F)))))\n        resultPtr := add(resultPtr, 1)\n      }\n      // padding with '='\n      switch mod(mload(data), 3)\n      case 1 { mstore(sub(resultPtr, 2), shl(240, 0x3d3d)) }\n      case 2 { mstore(sub(resultPtr, 1), shl(248, 0x3d)) }\n    }\n    return result;\n  }\n}\n",
  "sourcePath": "/Users/chris/workspace/ratalert/ratalert-contracts/contracts/KitchenShop.sol",
  "compiler": {
    "name": "solc",
    "version": "0.8.10+commit.fc410830.Emscripten.clang"
  },
  "schemaVersion": "3.4.5",
  "updatedAt": "2022-03-14T13:40:50.697Z",
  "networkType": "ethereum",
  "devdoc": {
    "kind": "dev",
    "methods": {
      "balanceOf(address,uint256)": {
        "details": "See {IERC1155-balanceOf}. Requirements: - `account` cannot be the zero address."
      },
      "balanceOfBatch(address[],uint256[])": {
        "details": "See {IERC1155-balanceOfBatch}. Requirements: - `accounts` and `ids` must have the same length."
      },
      "isApprovedForAll(address,address)": {
        "details": "See {IERC1155-isApprovedForAll}."
      },
      "mint(uint8,uint8)": {
        "params": {
          "amount": "Number of tokens to mint"
        }
      },
      "mintCost(uint8,uint256)": {
        "params": {
          "tokenId": "- The token ID to check"
        },
        "returns": {
          "_0": "The minting cost of the given ID"
        }
      },
      "owner()": {
        "details": "Returns the address of the current owner."
      },
      "paused()": {
        "details": "Returns true if the contract is paused, and false otherwise."
      },
      "renounceOwnership()": {
        "details": "Leaves the contract without owner. It will not be possible to call `onlyOwner` functions anymore. Can only be called by the current owner. NOTE: Renouncing ownership will leave the contract without an owner, thereby removing any functionality that is only available to the owner."
      },
      "safeBatchTransferFrom(address,address,uint256[],uint256[],bytes)": {
        "details": "See {IERC1155-safeBatchTransferFrom}."
      },
      "safeTransferFrom(address,address,uint256,uint256,bytes)": {
        "details": "See {IERC1155-safeTransferFrom}."
      },
      "setApprovalForAll(address,bool)": {
        "details": "See {IERC1155-setApprovalForAll}."
      },
      "supportsInterface(bytes4)": {
        "details": "See {IERC165-supportsInterface}."
      },
      "transferOwnership(address)": {
        "details": "Transfers ownership of the contract to a new account (`newOwner`). Can only be called by the current owner."
      },
      "uploadImage(uint256,(string,string))": {
        "params": {
          "imageIndex": "- The index at which to upload the image",
          "kitchen": "- The base64 encoded PNG for that kitchen"
        }
      }
    },
    "version": 1
  },
  "userdoc": {
    "kind": "user",
    "methods": {
      "mint(uint8,uint8)": {
        "notice": "Mints new ERC1155 token(s) of a kitchen"
      },
      "mintCost(uint8,uint256)": {
        "notice": "1 - 1000: 2000 $FFOOD 1001 - 2000: 3000 $FFOOD 2001 - 3000: 4000 $FFOOD 3001 - 4000: 5000 $FFOOD 4001 - 5000: 6000 $FFOOD"
      },
      "uploadImage(uint256,(string,string))": {
        "notice": "Used by admin to upload the kitchen images"
      }
    },
    "version": 1
  }
}