{
  "contractName": "KitchenShop",
  "abi": [
    {
      "anonymous": false,
      "inputs": [
        {
          "indexed": true,
          "internalType": "address",
          "name": "account",
          "type": "address"
        },
        {
          "indexed": true,
          "internalType": "address",
          "name": "operator",
          "type": "address"
        },
        {
          "indexed": false,
          "internalType": "bool",
          "name": "approved",
          "type": "bool"
        }
      ],
      "name": "ApprovalForAll",
      "type": "event"
    },
    {
      "anonymous": false,
      "inputs": [
        {
          "indexed": true,
          "internalType": "address",
          "name": "previousOwner",
          "type": "address"
        },
        {
          "indexed": true,
          "internalType": "address",
          "name": "newOwner",
          "type": "address"
        }
      ],
      "name": "OwnershipTransferred",
      "type": "event"
    },
    {
      "anonymous": false,
      "inputs": [
        {
          "indexed": false,
          "internalType": "address",
          "name": "account",
          "type": "address"
        }
      ],
      "name": "Paused",
      "type": "event"
    },
    {
      "anonymous": false,
      "inputs": [
        {
          "indexed": true,
          "internalType": "address",
          "name": "operator",
          "type": "address"
        },
        {
          "indexed": true,
          "internalType": "address",
          "name": "from",
          "type": "address"
        },
        {
          "indexed": true,
          "internalType": "address",
          "name": "to",
          "type": "address"
        },
        {
          "indexed": false,
          "internalType": "uint256[]",
          "name": "ids",
          "type": "uint256[]"
        },
        {
          "indexed": false,
          "internalType": "uint256[]",
          "name": "values",
          "type": "uint256[]"
        }
      ],
      "name": "TransferBatch",
      "type": "event"
    },
    {
      "anonymous": false,
      "inputs": [
        {
          "indexed": true,
          "internalType": "address",
          "name": "operator",
          "type": "address"
        },
        {
          "indexed": true,
          "internalType": "address",
          "name": "from",
          "type": "address"
        },
        {
          "indexed": true,
          "internalType": "address",
          "name": "to",
          "type": "address"
        },
        {
          "indexed": false,
          "internalType": "uint256",
          "name": "id",
          "type": "uint256"
        },
        {
          "indexed": false,
          "internalType": "uint256",
          "name": "value",
          "type": "uint256"
        }
      ],
      "name": "TransferSingle",
      "type": "event"
    },
    {
      "anonymous": false,
      "inputs": [
        {
          "indexed": false,
          "internalType": "string",
          "name": "value",
          "type": "string"
        },
        {
          "indexed": true,
          "internalType": "uint256",
          "name": "id",
          "type": "uint256"
        }
      ],
      "name": "URI",
      "type": "event"
    },
    {
      "anonymous": false,
      "inputs": [
        {
          "indexed": false,
          "internalType": "address",
          "name": "account",
          "type": "address"
        }
      ],
      "name": "Unpaused",
      "type": "event"
    },
    {
      "inputs": [
        {
          "internalType": "address",
          "name": "account",
          "type": "address"
        },
        {
          "internalType": "uint256",
          "name": "id",
          "type": "uint256"
        }
      ],
      "name": "balanceOf",
      "outputs": [
        {
          "internalType": "uint256",
          "name": "",
          "type": "uint256"
        }
      ],
      "stateMutability": "view",
      "type": "function",
      "constant": true
    },
    {
      "inputs": [
        {
          "internalType": "address[]",
          "name": "accounts",
          "type": "address[]"
        },
        {
          "internalType": "uint256[]",
          "name": "ids",
          "type": "uint256[]"
        }
      ],
      "name": "balanceOfBatch",
      "outputs": [
        {
          "internalType": "uint256[]",
          "name": "",
          "type": "uint256[]"
        }
      ],
      "stateMutability": "view",
      "type": "function",
      "constant": true
    },
    {
      "inputs": [
        {
          "internalType": "address",
          "name": "account",
          "type": "address"
        },
        {
          "internalType": "address",
          "name": "operator",
          "type": "address"
        }
      ],
      "name": "isApprovedForAll",
      "outputs": [
        {
          "internalType": "bool",
          "name": "",
          "type": "bool"
        }
      ],
      "stateMutability": "view",
      "type": "function",
      "constant": true
    },
    {
      "inputs": [
        {
          "internalType": "uint256",
          "name": "",
          "type": "uint256"
        }
      ],
      "name": "kitchenData",
      "outputs": [
        {
          "internalType": "string",
          "name": "name",
          "type": "string"
        },
        {
          "internalType": "string",
          "name": "png",
          "type": "string"
        }
      ],
      "stateMutability": "view",
      "type": "function",
      "constant": true
    },
    {
      "inputs": [],
      "name": "maxMintsPerTx",
      "outputs": [
        {
          "internalType": "uint8",
          "name": "",
          "type": "uint8"
        }
      ],
      "stateMutability": "view",
      "type": "function",
      "constant": true
    },
    {
      "inputs": [
        {
          "internalType": "uint8",
          "name": "",
          "type": "uint8"
        }
      ],
      "name": "maxTokens",
      "outputs": [
        {
          "internalType": "uint256",
          "name": "",
          "type": "uint256"
        }
      ],
      "stateMutability": "view",
      "type": "function",
      "constant": true
    },
    {
      "inputs": [
        {
          "internalType": "uint8",
          "name": "",
          "type": "uint8"
        }
      ],
      "name": "minSkill",
      "outputs": [
        {
          "internalType": "uint256",
          "name": "",
          "type": "uint256"
        }
      ],
      "stateMutability": "view",
      "type": "function",
      "constant": true
    },
    {
      "inputs": [
        {
          "internalType": "uint8",
          "name": "",
          "type": "uint8"
        }
      ],
      "name": "minted",
      "outputs": [
        {
          "internalType": "uint256",
          "name": "",
          "type": "uint256"
        }
      ],
      "stateMutability": "view",
      "type": "function",
      "constant": true
    },
    {
      "inputs": [],
      "name": "name",
      "outputs": [
        {
          "internalType": "string",
          "name": "",
          "type": "string"
        }
      ],
      "stateMutability": "view",
      "type": "function",
      "constant": true
    },
    {
      "inputs": [],
      "name": "owner",
      "outputs": [
        {
          "internalType": "address",
          "name": "",
          "type": "address"
        }
      ],
      "stateMutability": "view",
      "type": "function",
      "constant": true
    },
    {
      "inputs": [],
      "name": "pause",
      "outputs": [],
      "stateMutability": "nonpayable",
      "type": "function"
    },
    {
      "inputs": [],
      "name": "paused",
      "outputs": [
        {
          "internalType": "bool",
          "name": "",
          "type": "bool"
        }
      ],
      "stateMutability": "view",
      "type": "function",
      "constant": true
    },
    {
      "inputs": [],
      "name": "priceTier0",
      "outputs": [
        {
          "internalType": "uint256",
          "name": "",
          "type": "uint256"
        }
      ],
      "stateMutability": "view",
      "type": "function",
      "constant": true
    },
    {
      "inputs": [],
      "name": "priceTier1",
      "outputs": [
        {
          "internalType": "uint256",
          "name": "",
          "type": "uint256"
        }
      ],
      "stateMutability": "view",
      "type": "function",
      "constant": true
    },
    {
      "inputs": [],
      "name": "priceTier2",
      "outputs": [
        {
          "internalType": "uint256",
          "name": "",
          "type": "uint256"
        }
      ],
      "stateMutability": "view",
      "type": "function",
      "constant": true
    },
    {
      "inputs": [],
      "name": "priceTier3",
      "outputs": [
        {
          "internalType": "uint256",
          "name": "",
          "type": "uint256"
        }
      ],
      "stateMutability": "view",
      "type": "function",
      "constant": true
    },
    {
      "inputs": [],
      "name": "priceTier4",
      "outputs": [
        {
          "internalType": "uint256",
          "name": "",
          "type": "uint256"
        }
      ],
      "stateMutability": "view",
      "type": "function",
      "constant": true
    },
    {
      "inputs": [],
      "name": "renounceOwnership",
      "outputs": [],
      "stateMutability": "nonpayable",
      "type": "function"
    },
    {
      "inputs": [
        {
          "internalType": "address",
          "name": "from",
          "type": "address"
        },
        {
          "internalType": "address",
          "name": "to",
          "type": "address"
        },
        {
          "internalType": "uint256[]",
          "name": "ids",
          "type": "uint256[]"
        },
        {
          "internalType": "uint256[]",
          "name": "amounts",
          "type": "uint256[]"
        },
        {
          "internalType": "bytes",
          "name": "data",
          "type": "bytes"
        }
      ],
      "name": "safeBatchTransferFrom",
      "outputs": [],
      "stateMutability": "nonpayable",
      "type": "function"
    },
    {
      "inputs": [
        {
          "internalType": "address",
          "name": "from",
          "type": "address"
        },
        {
          "internalType": "address",
          "name": "to",
          "type": "address"
        },
        {
          "internalType": "uint256",
          "name": "id",
          "type": "uint256"
        },
        {
          "internalType": "uint256",
          "name": "amount",
          "type": "uint256"
        },
        {
          "internalType": "bytes",
          "name": "data",
          "type": "bytes"
        }
      ],
      "name": "safeTransferFrom",
      "outputs": [],
      "stateMutability": "nonpayable",
      "type": "function"
    },
    {
      "inputs": [
        {
          "internalType": "address",
          "name": "operator",
          "type": "address"
        },
        {
          "internalType": "bool",
          "name": "approved",
          "type": "bool"
        }
      ],
      "name": "setApprovalForAll",
      "outputs": [],
      "stateMutability": "nonpayable",
      "type": "function"
    },
    {
      "inputs": [
        {
          "internalType": "address",
          "name": "_dao",
          "type": "address"
        }
      ],
      "name": "setDao",
      "outputs": [],
      "stateMutability": "nonpayable",
      "type": "function"
    },
    {
      "inputs": [
        {
          "internalType": "bytes4",
          "name": "interfaceId",
          "type": "bytes4"
        }
      ],
      "name": "supportsInterface",
      "outputs": [
        {
          "internalType": "bool",
          "name": "",
          "type": "bool"
        }
      ],
      "stateMutability": "view",
      "type": "function",
      "constant": true
    },
    {
      "inputs": [],
      "name": "symbol",
      "outputs": [
        {
          "internalType": "string",
          "name": "",
          "type": "string"
        }
      ],
      "stateMutability": "view",
      "type": "function",
      "constant": true
    },
    {
      "inputs": [],
      "name": "tokenSupply",
      "outputs": [
        {
          "internalType": "uint256",
          "name": "",
          "type": "uint256"
        }
      ],
      "stateMutability": "view",
      "type": "function",
      "constant": true
    },
    {
      "inputs": [
        {
          "internalType": "address",
          "name": "newOwner",
          "type": "address"
        }
      ],
      "name": "transferOwnership",
      "outputs": [],
      "stateMutability": "nonpayable",
      "type": "function"
    },
    {
      "inputs": [],
      "name": "unpause",
      "outputs": [],
      "stateMutability": "nonpayable",
      "type": "function"
    },
    {
      "inputs": [
        {
          "internalType": "address",
          "name": "_fastFood",
          "type": "address"
        },
        {
          "internalType": "address",
          "name": "_casualFood",
          "type": "address"
        },
        {
          "internalType": "address",
          "name": "_character",
          "type": "address"
        }
      ],
      "name": "initialize",
      "outputs": [],
      "stateMutability": "nonpayable",
      "type": "function"
    },
    {
      "inputs": [
        {
          "internalType": "uint256[]",
          "name": "_maxTokens",
          "type": "uint256[]"
        },
        {
          "internalType": "uint8",
          "name": "_maxMintsPerTx",
          "type": "uint8"
        },
        {
          "internalType": "uint8[]",
          "name": "_minSkill",
          "type": "uint8[]"
        },
        {
          "internalType": "uint256[]",
          "name": "_prices",
          "type": "uint256[]"
        }
      ],
      "name": "configure",
      "outputs": [],
      "stateMutability": "nonpayable",
      "type": "function"
    },
    {
      "inputs": [
        {
          "internalType": "uint8",
          "name": "kitchen",
          "type": "uint8"
        },
        {
          "internalType": "uint8",
          "name": "amount",
          "type": "uint8"
        }
      ],
      "name": "mint",
      "outputs": [],
      "stateMutability": "payable",
      "type": "function",
      "payable": true
    },
    {
      "inputs": [
        {
          "internalType": "uint8",
          "name": "kitchen",
          "type": "uint8"
        },
        {
          "internalType": "uint256",
          "name": "tokenId",
          "type": "uint256"
        }
      ],
      "name": "mintCost",
      "outputs": [
        {
          "internalType": "uint256",
          "name": "",
          "type": "uint256"
        }
      ],
      "stateMutability": "view",
      "type": "function",
      "constant": true
    },
    {
      "inputs": [
        {
          "internalType": "uint256",
          "name": "tokenId",
          "type": "uint256"
        }
      ],
      "name": "uri",
      "outputs": [
        {
          "internalType": "string",
          "name": "",
          "type": "string"
        }
      ],
      "stateMutability": "view",
      "type": "function",
      "constant": true
    },
    {
      "inputs": [
        {
          "internalType": "uint256",
          "name": "imageIndex",
          "type": "uint256"
        },
        {
          "components": [
            {
              "internalType": "string",
              "name": "name",
              "type": "string"
            },
            {
              "internalType": "string",
              "name": "png",
              "type": "string"
            }
          ],
          "internalType": "struct KitchenShop.KitchenData",
          "name": "kitchen",
          "type": "tuple"
        }
      ],
      "name": "uploadImage",
      "outputs": [],
      "stateMutability": "nonpayable",
      "type": "function"
    }
  ],
  "bytecode": "0x608060405234801561001057600080fd5b50615d5080620000216000396000f3fe6080604052600436106101ed5760003560e01c80637824407f1161010d578063d383d9bb116100a0578063e985e9c51161006f578063e985e9c5146106f2578063f1a837d01461072f578063f21ec01a1461075a578063f242432a14610785578063f2fde38b146107ae576101ed565b8063d383d9bb14610635578063dc30158b14610660578063ddeb1aec1461068b578063e0683ab8146106b4576101ed565b806395d89b41116100dc57806395d89b411461057b578063a22cb465146105a6578063c0c53b8b146105cf578063cc529641146105f8576101ed565b80637824407f146104e55780637d26c78c146105105780638456cb59146105395780638da5cb5b14610550576101ed565b80633e0987f7116101855780634e1273f4116101545780634e1273f41461043d5780635c975abb1461047a5780636637b882146104a5578063715018a6146104ce576101ed565b80633e0987f7146103815780633f4ba83a146103be57806346598ab8146103d55780634d39b65414610412576101ed565b80630e89341c116101c15780630e89341c146102d457806329a0eee8146103115780632e53d4741461032d5780632eb2c2d614610358576101ed565b8062fdd58e146101f257806301ffc9a71461022f57806306fdde031461026c5780630cabd0a614610297575b600080fd5b3480156101fe57600080fd5b50610219600480360381019061021491906136b2565b6107d7565b6040516102269190613701565b60405180910390f35b34801561023b57600080fd5b5061025660048036038101906102519190613774565b6108a1565b60405161026391906137bc565b60405180910390f35b34801561027857600080fd5b50610281610983565b60405161028e9190613870565b60405180910390f35b3480156102a357600080fd5b506102be60048036038101906102b991906138cb565b610a12565b6040516102cb9190613701565b60405180910390f35b3480156102e057600080fd5b506102fb60048036038101906102f691906138f8565b610a2b565b6040516103089190613870565b60405180910390f35b61032b60048036038101906103269190613925565b610c49565b005b34801561033957600080fd5b5061034261114f565b60405161034f9190613701565b60405180910390f35b34801561036457600080fd5b5061037f600480360381019061037a9190613b62565b611156565b005b34801561038d57600080fd5b506103a860048036038101906103a391906138cb565b6111f7565b6040516103b59190613701565b60405180910390f35b3480156103ca57600080fd5b506103d3611210565b005b3480156103e157600080fd5b506103fc60048036038101906103f79190613c31565b611222565b6040516104099190613701565b60405180910390f35b34801561041e57600080fd5b50610427611341565b6040516104349190613701565b60405180910390f35b34801561044957600080fd5b50610464600480360381019061045f9190613d34565b611348565b6040516104719190613e6a565b60405180910390f35b34801561048657600080fd5b5061048f611461565b60405161049c91906137bc565b60405180910390f35b3480156104b157600080fd5b506104cc60048036038101906104c79190613e8c565b611478565b005b3480156104da57600080fd5b506104e3611538565b005b3480156104f157600080fd5b506104fa6115c0565b6040516105079190613701565b60405180910390f35b34801561051c57600080fd5b5061053760048036038101906105329190613edd565b6115c7565b005b34801561054557600080fd5b5061054e611751565b005b34801561055c57600080fd5b50610565611763565b6040516105729190613f48565b60405180910390f35b34801561058757600080fd5b5061059061178d565b60405161059d9190613870565b60405180910390f35b3480156105b257600080fd5b506105cd60048036038101906105c89190613f8f565b61181c565b005b3480156105db57600080fd5b506105f660048036038101906105f19190613fcf565b611832565b005b34801561060457600080fd5b5061061f600480360381019061061a91906138cb565b611ac5565b60405161062c9190613701565b60405180910390f35b34801561064157600080fd5b5061064a611ade565b6040516106579190613701565b60405180910390f35b34801561066c57600080fd5b50610675611ae5565b6040516106829190614031565b60405180910390f35b34801561069757600080fd5b506106b260048036038101906106ad919061410f565b611af9565b005b3480156106c057600080fd5b506106db60048036038101906106d691906138f8565b611d75565b6040516106e99291906141ca565b60405180910390f35b3480156106fe57600080fd5b5061071960048036038101906107149190614201565b611eaa565b60405161072691906137bc565b60405180910390f35b34801561073b57600080fd5b50610744611f3e565b6040516107519190613701565b60405180910390f35b34801561076657600080fd5b5061076f611f45565b60405161077c9190613701565b60405180910390f35b34801561079157600080fd5b506107ac60048036038101906107a79190614241565b611f4c565b005b3480156107ba57600080fd5b506107d560048036038101906107d09190613e8c565b611fed565b005b60008073ffffffffffffffffffffffffffffffffffffffff168373ffffffffffffffffffffffffffffffffffffffff161415610848576040517f08c379a000000000000000000000000000000000000000000000000000000000815260040161083f9061434a565b60405180910390fd5b60fc600083815260200190815260200160002060008473ffffffffffffffffffffffffffffffffffffffff1673ffffffffffffffffffffffffffffffffffffffff16815260200190815260200160002054905092915050565b60007fd9b67a26000000000000000000000000000000000000000000000000000000007bffffffffffffffffffffffffffffffffffffffffffffffffffffffff1916827bffffffffffffffffffffffffffffffffffffffffffffffffffffffff1916148061096c57507f0e89341c000000000000000000000000000000000000000000000000000000007bffffffffffffffffffffffffffffffffffffffffffffffffffffffff1916827bffffffffffffffffffffffffffffffffffffffffffffffffffffffff1916145b8061097c575061097b826120e5565b5b9050919050565b610131805461099190614399565b80601f01602080910402602001604051908101604052809291908181526020018280546109bd90614399565b8015610a0a5780601f106109df57610100808354040283529160200191610a0a565b820191906000526020600020905b8154815290600101906020018083116109ed57829003601f168201915b505050505081565b61013c6020528060005260406000206000915090505481565b6060600082118015610a3e575060028211155b610a7d576040517f08c379a0000000000000000000000000000000000000000000000000000000008152600401610a749061443d565b60405180910390fd5b600061013d6000600185610a91919061448c565b8152602001908152602001600020604051806040016040529081600082018054610aba90614399565b80601f0160208091040260200160405190810160405280929190818152602001828054610ae690614399565b8015610b335780601f10610b0857610100808354040283529160200191610b33565b820191906000526020600020905b815481529060010190602001808311610b1657829003601f168201915b50505050508152602001600182018054610b4c90614399565b80601f0160208091040260200160405190810160405280929190818152602001828054610b7890614399565b8015610bc55780601f10610b9a57610100808354040283529160200191610bc5565b820191906000526020600020905b815481529060010190602001808311610ba857829003601f168201915b505050505081525050905060008160000151610be08561214f565b610bf5610bf085602001516122b0565b6122d9565b604051602001610c079392919061481a565b6040516020818303038152906040529050610c21816122d9565b604051602001610c3191906148fa565b60405160208183030381529060405292505050919050565b60026097541415610c8f576040517f08c379a0000000000000000000000000000000000000000000000000000000008152600401610c8690614968565b60405180910390fd5b6002609781905550610c9f611461565b15610cdf576040517f08c379a0000000000000000000000000000000000000000000000000000000008152600401610cd6906149d4565b60405180910390fd5b610ce761243d565b73ffffffffffffffffffffffffffffffffffffffff163273ffffffffffffffffffffffffffffffffffffffff1614610d54576040517f08c379a0000000000000000000000000000000000000000000000000000000008152600401610d4b90614a40565b60405180910390fd5b60008260ff16118015610d6b575060028260ff1611155b610daa576040517f08c379a0000000000000000000000000000000000000000000000000000000008152600401610da190614aac565b60405180910390fd5b60008160ff16118015610dd3575061013960009054906101000a900460ff1660ff168160ff1611155b610e12576040517f08c379a0000000000000000000000000000000000000000000000000000000008152600401610e0990614b18565b60405180910390fd5b61013a60008360ff1660ff168152602001908152602001600020548160ff1661013c60008560ff1660ff16815260200190815260200160002054610e569190614b38565b1115610e97576040517f08c379a0000000000000000000000000000000000000000000000000000000008152600401610e8e90614bda565b60405180910390fd5b60003414610eda576040517f08c379a0000000000000000000000000000000000000000000000000000000008152600401610ed190614c46565b60405180910390fd5b6000805b8260ff16811015610fcf5761013c60008560ff1660ff1681526020019081526020016000206000815480929190610f1490614c66565b91905055503073ffffffffffffffffffffffffffffffffffffffff166346598ab88561013c60008860ff1660ff168152602001908152602001600020546040518363ffffffff1660e01b8152600401610f6e929190614caf565b602060405180830381865afa158015610f8b573d6000803e3d6000fd5b505050506040513d601f19601f82011682018060405250810190610faf9190614ced565b82610fba9190614b38565b91508080610fc790614c66565b915050610ede565b50610ff8610fdb61243d565b8460ff168460ff1660405180602001604052806000815250612445565b60008111156111425760028360ff1614156110a95761012f60009054906101000a900473ffffffffffffffffffffffffffffffffffffffff1673ffffffffffffffffffffffffffffffffffffffff16639dc29fac61105461243d565b836040518363ffffffff1660e01b8152600401611072929190614d1a565b600060405180830381600087803b15801561108c57600080fd5b505af11580156110a0573d6000803e3d6000fd5b50505050611141565b61012e60009054906101000a900473ffffffffffffffffffffffffffffffffffffffff1673ffffffffffffffffffffffffffffffffffffffff16639dc29fac6110f061243d565b836040518363ffffffff1660e01b815260040161110e929190614d1a565b600060405180830381600087803b15801561112857600080fd5b505af115801561113c573d6000803e3d6000fd5b505050505b5b5060016097819055505050565b6101355481565b61115e61243d565b73ffffffffffffffffffffffffffffffffffffffff168573ffffffffffffffffffffffffffffffffffffffff1614806111a457506111a38561119e61243d565b611eaa565b5b6111e3576040517f08c379a00000000000000000000000000000000000000000000000000000000081526004016111da90614db5565b60405180910390fd5b6111f085858585856125dc565b5050505050565b61013a6020528060005260406000206000915090505481565b6112186128f3565b611220612985565b565b60006005600161013a60008660ff1660ff1681526020019081526020016000205461124d9190614dd5565b6112579190614e5e565b82116112685761013454905061133b565b6005600261013a60008660ff1660ff168152602001908152602001600020546112919190614dd5565b61129b9190614e5e565b82116112ac5761013554905061133b565b6005600361013a60008660ff1660ff168152602001908152602001600020546112d59190614dd5565b6112df9190614e5e565b82116112f05761013654905061133b565b6005600461013a60008660ff1660ff168152602001908152602001600020546113199190614dd5565b6113239190614e5e565b82116113345761013754905061133b565b6101385490505b92915050565b6101345481565b6060815183511461138e576040517f08c379a000000000000000000000000000000000000000000000000000000000815260040161138590614f01565b60405180910390fd5b6000835167ffffffffffffffff8111156113ab576113aa61396a565b5b6040519080825280602002602001820160405280156113d95781602001602082028036833780820191505090505b50905060005b8451811015611456576114268582815181106113fe576113fd614f21565b5b602002602001015185838151811061141957611418614f21565b5b60200260200101516107d7565b82828151811061143957611438614f21565b5b6020026020010181815250508061144f90614c66565b90506113df565b508091505092915050565b6000603360009054906101000a900460ff16905090565b61148061243d565b73ffffffffffffffffffffffffffffffffffffffff1661149e611763565b73ffffffffffffffffffffffffffffffffffffffff16146114f4576040517f08c379a00000000000000000000000000000000000000000000000000000000081526004016114eb90614f9c565b60405180910390fd5b8060c960006101000a81548173ffffffffffffffffffffffffffffffffffffffff021916908373ffffffffffffffffffffffffffffffffffffffff16021790555050565b61154061243d565b73ffffffffffffffffffffffffffffffffffffffff1661155e611763565b73ffffffffffffffffffffffffffffffffffffffff16146115b4576040517f08c379a00000000000000000000000000000000000000000000000000000000081526004016115ab90614f9c565b60405180910390fd5b6115be6000612a27565b565b6101335481565b6115cf61243d565b73ffffffffffffffffffffffffffffffffffffffff166115ed611763565b73ffffffffffffffffffffffffffffffffffffffff1614611643576040517f08c379a000000000000000000000000000000000000000000000000000000000815260040161163a90614f9c565b60405180910390fd5b604051806040016040528082806000019061165e9190614fcb565b8080601f016020809104026020016040519081016040528093929190818152602001838380828437600081840152601f19601f8201169050808301925050505050505081526020018280602001906116b69190614fcb565b8080601f016020809104026020016040519081016040528093929190818152602001838380828437600081840152601f19601f8201169050808301925050505050505081525061013d6000848152602001908152602001600020600082015181600001908051906020019061172c929190613567565b506020820151816001019080519060200190611749929190613567565b509050505050565b6117596128f3565b611761612aed565b565b6000606560009054906101000a900473ffffffffffffffffffffffffffffffffffffffff16905090565b610132805461179b90614399565b80601f01602080910402602001604051908101604052809291908181526020018280546117c790614399565b80156118145780601f106117e957610100808354040283529160200191611814565b820191906000526020600020905b8154815290600101906020018083116117f757829003601f168201915b505050505081565b61182e61182761243d565b8383612b90565b5050565b600060019054906101000a900460ff1661185a5760008054906101000a900460ff1615611863565b611862612cfd565b5b6118a2576040517f08c379a0000000000000000000000000000000000000000000000000000000008152600401611899906150a0565b60405180910390fd5b60008060019054906101000a900460ff1615905080156118f2576001600060016101000a81548160ff02191690831515021790555060016000806101000a81548160ff0219169083151502179055505b6118fa612d0e565b611902612d67565b8361012e60006101000a81548173ffffffffffffffffffffffffffffffffffffffff021916908373ffffffffffffffffffffffffffffffffffffffff1602179055508261012f60006101000a81548173ffffffffffffffffffffffffffffffffffffffff021916908373ffffffffffffffffffffffffffffffffffffffff1602179055508161013060006101000a81548173ffffffffffffffffffffffffffffffffffffffff021916908373ffffffffffffffffffffffffffffffffffffffff160217905550600061013c6000600160ff16815260200190815260200160002081905550600061013c6000600260ff168152602001908152602001600020819055506040518060400160405280601181526020017f526174416c657274204b69746368656e730000000000000000000000000000008152506101319080519060200190611a50929190613567565b506040518060400160405280600a81526020017f52415443554953494e45000000000000000000000000000000000000000000008152506101329080519060200190611a9d929190613567565b508015611abf5760008060016101000a81548160ff0219169083151502179055505b50505050565b61013b6020528060005260406000206000915090505481565b6101365481565b61013960009054906101000a900460ff1681565b611b0161243d565b73ffffffffffffffffffffffffffffffffffffffff16611b1f611763565b73ffffffffffffffffffffffffffffffffffffffff1614611b75576040517f08c379a0000000000000000000000000000000000000000000000000000000008152600401611b6c90614f9c565b60405180910390fd5b83600081518110611b8957611b88614f21565b5b602002602001015161013a6000600160ff1681526020019081526020016000208190555083600181518110611bc157611bc0614f21565b5b602002602001015161013a6000600260ff168152602001908152602001600020819055508261013960006101000a81548160ff021916908360ff16021790555081600081518110611c1557611c14614f21565b5b602002602001015160ff1661013b6000600160ff1681526020019081526020016000208190555081600181518110611c5057611c4f614f21565b5b602002602001015160ff1661013b6000600260ff1681526020019081526020016000208190555080600081518110611c8b57611c8a614f21565b5b60200260200101516101348190555080600181518110611cae57611cad614f21565b5b60200260200101516101358190555080600281518110611cd157611cd0614f21565b5b60200260200101516101368190555080600381518110611cf457611cf3614f21565b5b60200260200101516101378190555080600481518110611d1757611d16614f21565b5b60200260200101516101388190555083600181518110611d3a57611d39614f21565b5b602002602001015184600081518110611d5657611d55614f21565b5b6020026020010151611d689190614b38565b6101338190555050505050565b61013d602052806000526040600020600091509050806000018054611d9990614399565b80601f0160208091040260200160405190810160405280929190818152602001828054611dc590614399565b8015611e125780601f10611de757610100808354040283529160200191611e12565b820191906000526020600020905b815481529060010190602001808311611df557829003601f168201915b505050505090806001018054611e2790614399565b80601f0160208091040260200160405190810160405280929190818152602001828054611e5390614399565b8015611ea05780601f10611e7557610100808354040283529160200191611ea0565b820191906000526020600020905b815481529060010190602001808311611e8357829003601f168201915b5050505050905082565b600060fd60008473ffffffffffffffffffffffffffffffffffffffff1673ffffffffffffffffffffffffffffffffffffffff16815260200190815260200160002060008373ffffffffffffffffffffffffffffffffffffffff1673ffffffffffffffffffffffffffffffffffffffff16815260200190815260200160002060009054906101000a900460ff16905092915050565b6101375481565b6101385481565b611f5461243d565b73ffffffffffffffffffffffffffffffffffffffff168573ffffffffffffffffffffffffffffffffffffffff161480611f9a5750611f9985611f9461243d565b611eaa565b5b611fd9576040517f08c379a0000000000000000000000000000000000000000000000000000000008152600401611fd090615132565b60405180910390fd5b611fe68585858585612dc0565b5050505050565b611ff561243d565b73ffffffffffffffffffffffffffffffffffffffff16612013611763565b73ffffffffffffffffffffffffffffffffffffffff1614612069576040517f08c379a000000000000000000000000000000000000000000000000000000000815260040161206090614f9c565b60405180910390fd5b600073ffffffffffffffffffffffffffffffffffffffff168173ffffffffffffffffffffffffffffffffffffffff1614156120d9576040517f08c379a00000000000000000000000000000000000000000000000000000000081526004016120d0906151c4565b60405180910390fd5b6120e281612a27565b50565b60007f01ffc9a7000000000000000000000000000000000000000000000000000000007bffffffffffffffffffffffffffffffffffffffffffffffffffffffff1916827bffffffffffffffffffffffffffffffffffffffffffffffffffffffff1916149050919050565b60606000821415612197576040518060400160405280600181526020017f300000000000000000000000000000000000000000000000000000000000000081525090506122ab565b600082905060005b600082146121c95780806121b290614c66565b915050600a826121c29190614e5e565b915061219f565b60008167ffffffffffffffff8111156121e5576121e461396a565b5b6040519080825280601f01601f1916602001820160405280156122175781602001600182028036833780820191505090505b5090505b600085146122a457600182612230919061448c565b9150600a8561223f91906151e4565b603061224b9190614b38565b60f81b81838151811061226157612260614f21565b5b60200101907effffffffffffffffffffffffffffffffffffffffffffffffffffffffffffff1916908160001a905350600a8561229d9190614e5e565b945061221b565b8093505050505b919050565b6060816040516020016122c391906154bc565b6040516020818303038152906040529050919050565b60606000825114156122fc57604051806020016040528060008152509050612438565b6000604051806060016040528060408152602001615cdb604091399050600060036002855161232b9190614b38565b6123359190614e5e565b60046123419190614dd5565b67ffffffffffffffff81111561235a5761235961396a565b5b6040519080825280601f01601f19166020018201604052801561238c5781602001600182028036833780820191505090505b509050600182016020820185865187015b808210156123f8576003820191508151603f8160121c168501518453600184019350603f81600c1c168501518453600184019350603f8160061c168501518453600184019350603f811685015184536001840193505061239d565b505060038651066001811461241457600281146124275761242f565b603d6001830353603d600283035361242f565b603d60018303535b50505080925050505b919050565b600033905090565b600073ffffffffffffffffffffffffffffffffffffffff168473ffffffffffffffffffffffffffffffffffffffff1614156124b5576040517f08c379a00000000000000000000000000000000000000000000000000000000081526004016124ac90615571565b60405180910390fd5b60006124bf61243d565b90506124e0816000876124d188613045565b6124da88613045565b876130bf565b8260fc600086815260200190815260200160002060008773ffffffffffffffffffffffffffffffffffffffff1673ffffffffffffffffffffffffffffffffffffffff16815260200190815260200160002060008282546125409190614b38565b925050819055508473ffffffffffffffffffffffffffffffffffffffff16600073ffffffffffffffffffffffffffffffffffffffff168273ffffffffffffffffffffffffffffffffffffffff167fc3d58168c5ae7397731d063d5bbf3d657854427343f4c083240f7aacaa2d0f6287876040516125be929190615591565b60405180910390a46125d5816000878787876130c7565b5050505050565b8151835114612620576040517f08c379a00000000000000000000000000000000000000000000000000000000081526004016126179061562c565b60405180910390fd5b600073ffffffffffffffffffffffffffffffffffffffff168473ffffffffffffffffffffffffffffffffffffffff161415612690576040517f08c379a0000000000000000000000000000000000000000000000000000000008152600401612687906156be565b60405180910390fd5b600061269a61243d565b90506126aa8187878787876130bf565b60005b845181101561285e5760008582815181106126cb576126ca614f21565b5b6020026020010151905060008583815181106126ea576126e9614f21565b5b60200260200101519050600060fc600084815260200190815260200160002060008b73ffffffffffffffffffffffffffffffffffffffff1673ffffffffffffffffffffffffffffffffffffffff1681526020019081526020016000205490508181101561278c576040517f08c379a000000000000000000000000000000000000000000000000000000000815260040161278390615750565b60405180910390fd5b81810360fc600085815260200190815260200160002060008c73ffffffffffffffffffffffffffffffffffffffff1673ffffffffffffffffffffffffffffffffffffffff168152602001908152602001600020819055508160fc600085815260200190815260200160002060008b73ffffffffffffffffffffffffffffffffffffffff1673ffffffffffffffffffffffffffffffffffffffff16815260200190815260200160002060008282546128439190614b38565b925050819055505050508061285790614c66565b90506126ad565b508473ffffffffffffffffffffffffffffffffffffffff168673ffffffffffffffffffffffffffffffffffffffff168273ffffffffffffffffffffffffffffffffffffffff167f4a39dc06d4c0dbc64b70af90fd698a233a518aa5d07e595d983b8c0526c8f7fb87876040516128d5929190615770565b60405180910390a46128eb81878787878761329f565b505050505050565b60c960009054906101000a900473ffffffffffffffffffffffffffffffffffffffff1673ffffffffffffffffffffffffffffffffffffffff163373ffffffffffffffffffffffffffffffffffffffff1614612983576040517f08c379a000000000000000000000000000000000000000000000000000000000815260040161297a906157f3565b60405180910390fd5b565b61298d611461565b6129cc576040517f08c379a00000000000000000000000000000000000000000000000000000000081526004016129c39061585f565b60405180910390fd5b6000603360006101000a81548160ff0219169083151502179055507f5db9ee0a495bf2e6ff9c91a7834c1ba4fdd244a5e8aa4e537bd38aeae4b073aa612a1061243d565b604051612a1d9190613f48565b60405180910390a1565b6000606560009054906101000a900473ffffffffffffffffffffffffffffffffffffffff16905081606560006101000a81548173ffffffffffffffffffffffffffffffffffffffff021916908373ffffffffffffffffffffffffffffffffffffffff1602179055508173ffffffffffffffffffffffffffffffffffffffff168173ffffffffffffffffffffffffffffffffffffffff167f8be0079c531659141344cd1fd0a4f28419497f9722a3daafe3b4186f6b6457e060405160405180910390a35050565b612af5611461565b15612b35576040517f08c379a0000000000000000000000000000000000000000000000000000000008152600401612b2c906149d4565b60405180910390fd5b6001603360006101000a81548160ff0219169083151502179055507f62e78cea01bee320cd4e420270b5ea74000d11b0c9f74754ebdbfc544b05a258612b7961243d565b604051612b869190613f48565b60405180910390a1565b8173ffffffffffffffffffffffffffffffffffffffff168373ffffffffffffffffffffffffffffffffffffffff161415612bff576040517f08c379a0000000000000000000000000000000000000000000000000000000008152600401612bf6906158f1565b60405180910390fd5b8060fd60008573ffffffffffffffffffffffffffffffffffffffff1673ffffffffffffffffffffffffffffffffffffffff16815260200190815260200160002060008473ffffffffffffffffffffffffffffffffffffffff1673ffffffffffffffffffffffffffffffffffffffff16815260200190815260200160002060006101000a81548160ff0219169083151502179055508173ffffffffffffffffffffffffffffffffffffffff168373ffffffffffffffffffffffffffffffffffffffff167f17307eab39ab6107e8899845ad3d59bd9653f200f220920489ca2b5937696c3183604051612cf091906137bc565b60405180910390a3505050565b6000612d0830613477565b15905090565b600060019054906101000a900460ff16612d5d576040517f08c379a0000000000000000000000000000000000000000000000000000000008152600401612d5490615983565b60405180910390fd5b612d6561349a565b565b600060019054906101000a900460ff16612db6576040517f08c379a0000000000000000000000000000000000000000000000000000000008152600401612dad90615983565b60405180910390fd5b612dbe6134fb565b565b600073ffffffffffffffffffffffffffffffffffffffff168473ffffffffffffffffffffffffffffffffffffffff161415612e30576040517f08c379a0000000000000000000000000000000000000000000000000000000008152600401612e27906156be565b60405180910390fd5b6000612e3a61243d565b9050612e5a818787612e4b88613045565b612e5488613045565b876130bf565b600060fc600086815260200190815260200160002060008873ffffffffffffffffffffffffffffffffffffffff1673ffffffffffffffffffffffffffffffffffffffff16815260200190815260200160002054905083811015612ef2576040517f08c379a0000000000000000000000000000000000000000000000000000000008152600401612ee990615750565b60405180910390fd5b83810360fc600087815260200190815260200160002060008973ffffffffffffffffffffffffffffffffffffffff1673ffffffffffffffffffffffffffffffffffffffff168152602001908152602001600020819055508360fc600087815260200190815260200160002060008873ffffffffffffffffffffffffffffffffffffffff1673ffffffffffffffffffffffffffffffffffffffff1681526020019081526020016000206000828254612fa99190614b38565b925050819055508573ffffffffffffffffffffffffffffffffffffffff168773ffffffffffffffffffffffffffffffffffffffff168373ffffffffffffffffffffffffffffffffffffffff167fc3d58168c5ae7397731d063d5bbf3d657854427343f4c083240f7aacaa2d0f628888604051613026929190615591565b60405180910390a461303c8288888888886130c7565b50505050505050565b60606000600167ffffffffffffffff8111156130645761306361396a565b5b6040519080825280602002602001820160405280156130925781602001602082028036833780820191505090505b50905082816000815181106130aa576130a9614f21565b5b60200260200101818152505080915050919050565b505050505050565b6130e68473ffffffffffffffffffffffffffffffffffffffff16613477565b15613297578373ffffffffffffffffffffffffffffffffffffffff1663f23a6e6187878686866040518663ffffffff1660e01b815260040161312c9594939291906159ed565b6020604051808303816000875af192505050801561316857506040513d601f19601f820116820180604052508101906131659190615a5c565b60015b61320e57613174615a96565b806308c379a014156131d15750613189615ab8565b8061319457506131d3565b806040517f08c379a00000000000000000000000000000000000000000000000000000000081526004016131c89190613870565b60405180910390fd5b505b6040517f08c379a000000000000000000000000000000000000000000000000000000000815260040161320590615bc0565b60405180910390fd5b63f23a6e6160e01b7bffffffffffffffffffffffffffffffffffffffffffffffffffffffff1916817bffffffffffffffffffffffffffffffffffffffffffffffffffffffff191614613295576040517f08c379a000000000000000000000000000000000000000000000000000000000815260040161328c90615c52565b60405180910390fd5b505b505050505050565b6132be8473ffffffffffffffffffffffffffffffffffffffff16613477565b1561346f578373ffffffffffffffffffffffffffffffffffffffff1663bc197c8187878686866040518663ffffffff1660e01b8152600401613304959493929190615c72565b6020604051808303816000875af192505050801561334057506040513d601f19601f8201168201806040525081019061333d9190615a5c565b60015b6133e65761334c615a96565b806308c379a014156133a95750613361615ab8565b8061336c57506133ab565b806040517f08c379a00000000000000000000000000000000000000000000000000000000081526004016133a09190613870565b60405180910390fd5b505b6040517f08c379a00000000000000000000000000000000000000000000000000000000081526004016133dd90615bc0565b60405180910390fd5b63bc197c8160e01b7bffffffffffffffffffffffffffffffffffffffffffffffffffffffff1916817bffffffffffffffffffffffffffffffffffffffffffffffffffffffff19161461346d576040517f08c379a000000000000000000000000000000000000000000000000000000000815260040161346490615c52565b60405180910390fd5b505b505050505050565b6000808273ffffffffffffffffffffffffffffffffffffffff163b119050919050565b600060019054906101000a900460ff166134e9576040517f08c379a00000000000000000000000000000000000000000000000000000000081526004016134e090615983565b60405180910390fd5b6134f96134f461243d565b612a27565b565b600060019054906101000a900460ff1661354a576040517f08c379a000000000000000000000000000000000000000000000000000000000815260040161354190615983565b60405180910390fd5b6000603360006101000a81548160ff021916908315150217905550565b82805461357390614399565b90600052602060002090601f01602090048101928261359557600085556135dc565b82601f106135ae57805160ff19168380011785556135dc565b828001600101855582156135dc579182015b828111156135db5782518255916020019190600101906135c0565b5b5090506135e991906135ed565b5090565b5b808211156136065760008160009055506001016135ee565b5090565b6000604051905090565b600080fd5b600080fd5b600073ffffffffffffffffffffffffffffffffffffffff82169050919050565b60006136498261361e565b9050919050565b6136598161363e565b811461366457600080fd5b50565b60008135905061367681613650565b92915050565b6000819050919050565b61368f8161367c565b811461369a57600080fd5b50565b6000813590506136ac81613686565b92915050565b600080604083850312156136c9576136c8613614565b5b60006136d785828601613667565b92505060206136e88582860161369d565b9150509250929050565b6136fb8161367c565b82525050565b600060208201905061371660008301846136f2565b92915050565b60007fffffffff0000000000000000000000000000000000000000000000000000000082169050919050565b6137518161371c565b811461375c57600080fd5b50565b60008135905061376e81613748565b92915050565b60006020828403121561378a57613789613614565b5b60006137988482850161375f565b91505092915050565b60008115159050919050565b6137b6816137a1565b82525050565b60006020820190506137d160008301846137ad565b92915050565b600081519050919050565b600082825260208201905092915050565b60005b838110156138115780820151818401526020810190506137f6565b83811115613820576000848401525b50505050565b6000601f19601f8301169050919050565b6000613842826137d7565b61384c81856137e2565b935061385c8185602086016137f3565b61386581613826565b840191505092915050565b6000602082019050818103600083015261388a8184613837565b905092915050565b600060ff82169050919050565b6138a881613892565b81146138b357600080fd5b50565b6000813590506138c58161389f565b92915050565b6000602082840312156138e1576138e0613614565b5b60006138ef848285016138b6565b91505092915050565b60006020828403121561390e5761390d613614565b5b600061391c8482850161369d565b91505092915050565b6000806040838503121561393c5761393b613614565b5b600061394a858286016138b6565b925050602061395b858286016138b6565b9150509250929050565b600080fd5b7f4e487b7100000000000000000000000000000000000000000000000000000000600052604160045260246000fd5b6139a282613826565b810181811067ffffffffffffffff821117156139c1576139c061396a565b5b80604052505050565b60006139d461360a565b90506139e08282613999565b919050565b600067ffffffffffffffff821115613a00576139ff61396a565b5b602082029050602081019050919050565b600080fd5b6000613a29613a24846139e5565b6139ca565b90508083825260208201905060208402830185811115613a4c57613a4b613a11565b5b835b81811015613a755780613a61888261369d565b845260208401935050602081019050613a4e565b5050509392505050565b600082601f830112613a9457613a93613965565b5b8135613aa4848260208601613a16565b91505092915050565b600080fd5b600067ffffffffffffffff821115613acd57613acc61396a565b5b613ad682613826565b9050602081019050919050565b82818337600083830152505050565b6000613b05613b0084613ab2565b6139ca565b905082815260208101848484011115613b2157613b20613aad565b5b613b2c848285613ae3565b509392505050565b600082601f830112613b4957613b48613965565b5b8135613b59848260208601613af2565b91505092915050565b600080600080600060a08688031215613b7e57613b7d613614565b5b6000613b8c88828901613667565b9550506020613b9d88828901613667565b945050604086013567ffffffffffffffff811115613bbe57613bbd613619565b5b613bca88828901613a7f565b935050606086013567ffffffffffffffff811115613beb57613bea613619565b5b613bf788828901613a7f565b925050608086013567ffffffffffffffff811115613c1857613c17613619565b5b613c2488828901613b34565b9150509295509295909350565b60008060408385031215613c4857613c47613614565b5b6000613c56858286016138b6565b9250506020613c678582860161369d565b9150509250929050565b600067ffffffffffffffff821115613c8c57613c8b61396a565b5b602082029050602081019050919050565b6000613cb0613cab84613c71565b6139ca565b90508083825260208201905060208402830185811115613cd357613cd2613a11565b5b835b81811015613cfc5780613ce88882613667565b845260208401935050602081019050613cd5565b5050509392505050565b600082601f830112613d1b57613d1a613965565b5b8135613d2b848260208601613c9d565b91505092915050565b60008060408385031215613d4b57613d4a613614565b5b600083013567ffffffffffffffff811115613d6957613d68613619565b5b613d7585828601613d06565b925050602083013567ffffffffffffffff811115613d9657613d95613619565b5b613da285828601613a7f565b9150509250929050565b600081519050919050565b600082825260208201905092915050565b6000819050602082019050919050565b613de18161367c565b82525050565b6000613df38383613dd8565b60208301905092915050565b6000602082019050919050565b6000613e1782613dac565b613e218185613db7565b9350613e2c83613dc8565b8060005b83811015613e5d578151613e448882613de7565b9750613e4f83613dff565b925050600181019050613e30565b5085935050505092915050565b60006020820190508181036000830152613e848184613e0c565b905092915050565b600060208284031215613ea257613ea1613614565b5b6000613eb084828501613667565b91505092915050565b600080fd5b600060408284031215613ed457613ed3613eb9565b5b81905092915050565b60008060408385031215613ef457613ef3613614565b5b6000613f028582860161369d565b925050602083013567ffffffffffffffff811115613f2357613f22613619565b5b613f2f85828601613ebe565b9150509250929050565b613f428161363e565b82525050565b6000602082019050613f5d6000830184613f39565b92915050565b613f6c816137a1565b8114613f7757600080fd5b50565b600081359050613f8981613f63565b92915050565b60008060408385031215613fa657613fa5613614565b5b6000613fb485828601613667565b9250506020613fc585828601613f7a565b9150509250929050565b600080600060608486031215613fe857613fe7613614565b5b6000613ff686828701613667565b935050602061400786828701613667565b925050604061401886828701613667565b9150509250925092565b61402b81613892565b82525050565b60006020820190506140466000830184614022565b92915050565b600067ffffffffffffffff8211156140675761406661396a565b5b602082029050602081019050919050565b600061408b6140868461404c565b6139ca565b905080838252602082019050602084028301858111156140ae576140ad613a11565b5b835b818110156140d757806140c388826138b6565b8452602084019350506020810190506140b0565b5050509392505050565b600082601f8301126140f6576140f5613965565b5b8135614106848260208601614078565b91505092915050565b6000806000806080858703121561412957614128613614565b5b600085013567ffffffffffffffff81111561414757614146613619565b5b61415387828801613a7f565b9450506020614164878288016138b6565b935050604085013567ffffffffffffffff81111561418557614184613619565b5b614191878288016140e1565b925050606085013567ffffffffffffffff8111156141b2576141b1613619565b5b6141be87828801613a7f565b91505092959194509250565b600060408201905081810360008301526141e48185613837565b905081810360208301526141f88184613837565b90509392505050565b6000806040838503121561421857614217613614565b5b600061422685828601613667565b925050602061423785828601613667565b9150509250929050565b600080600080600060a0868803121561425d5761425c613614565b5b600061426b88828901613667565b955050602061427c88828901613667565b945050604061428d8882890161369d565b935050606061429e8882890161369d565b925050608086013567ffffffffffffffff8111156142bf576142be613619565b5b6142cb88828901613b34565b9150509295509295909350565b7f455243313135353a2062616c616e636520717565727920666f7220746865207a60008201527f65726f2061646472657373000000000000000000000000000000000000000000602082015250565b6000614334602b836137e2565b915061433f826142d8565b604082019050919050565b6000602082019050818103600083015261436381614327565b9050919050565b7f4e487b7100000000000000000000000000000000000000000000000000000000600052602260045260246000fd5b600060028204905060018216806143b157607f821691505b602082108114156143c5576143c461436a565b5b50919050565b7f455243313135354d657461646174613a2055524920717565727920666f72206e60008201527f6f6e2d6578697374656e7420746f6b656e000000000000000000000000000000602082015250565b60006144276031836137e2565b9150614432826143cb565b604082019050919050565b600060208201905081810360008301526144568161441a565b9050919050565b7f4e487b7100000000000000000000000000000000000000000000000000000000600052601160045260246000fd5b60006144978261367c565b91506144a28361367c565b9250828210156144b5576144b461445d565b5b828203905092915050565b600081905092915050565b7f7b00000000000000000000000000000000000000000000000000000000000000600082015250565b60006145016001836144c0565b915061450c826144cb565b600182019050919050565b7f226e616d65223a22000000000000000000000000000000000000000000000000600082015250565b600061454d6008836144c0565b915061455882614517565b600882019050919050565b600061456e826137d7565b61457881856144c0565b93506145888185602086016137f3565b80840191505092915050565b7f222c000000000000000000000000000000000000000000000000000000000000600082015250565b60006145ca6002836144c0565b91506145d582614594565b600282019050919050565b7f226465736372697074696f6e223a22526174416c6572742c20746865204e465460008201527f2067616d652074686174206c65747320796f7520547261696e324561726e207960208201527f6f75722063686172616374657273206f6e2d636861696e20666f72206869676860408201527f65722072657761726473212068747470733a2f2f726174616c6572742e636f6d60608201527f2f222c0000000000000000000000000000000000000000000000000000000000608082015250565b60006146ae6083836144c0565b91506146b9826145e0565b608382019050919050565b7f2265787465726e616c5f75726c223a2268747470733a2f2f726174616c65727460008201527f2e636f6d2f6b69746368656e732f000000000000000000000000000000000000602082015250565b6000614720602e836144c0565b915061472b826146c4565b602e82019050919050565b7f22696d616765223a22646174613a696d6167652f706e673b6261736536342c00600082015250565b600061476c601f836144c0565b915061477782614736565b601f82019050919050565b7f2200000000000000000000000000000000000000000000000000000000000000600082015250565b60006147b86001836144c0565b91506147c382614782565b600182019050919050565b7f7d00000000000000000000000000000000000000000000000000000000000000600082015250565b60006148046001836144c0565b915061480f826147ce565b600182019050919050565b6000614825826144f4565b915061483082614540565b915061483c8286614563565b9150614847826145bd565b9150614852826146a1565b915061485d82614713565b91506148698285614563565b9150614874826145bd565b915061487f8261475f565b915061488b8284614563565b9150614896826147ab565b91506148a1826147f7565b9150819050949350505050565b7f646174613a6170706c69636174696f6e2f6a736f6e3b6261736536342c000000600082015250565b60006148e4601d836144c0565b91506148ef826148ae565b601d82019050919050565b6000614905826148d7565b91506149118284614563565b915081905092915050565b7f5265656e7472616e637947756172643a207265656e7472616e742063616c6c00600082015250565b6000614952601f836137e2565b915061495d8261491c565b602082019050919050565b6000602082019050818103600083015261498181614945565b9050919050565b7f5061757361626c653a2070617573656400000000000000000000000000000000600082015250565b60006149be6010836137e2565b91506149c982614988565b602082019050919050565b600060208201905081810360008301526149ed816149b1565b9050919050565b7f454f41206f6e6c79000000000000000000000000000000000000000000000000600082015250565b6000614a2a6008836137e2565b9150614a35826149f4565b602082019050919050565b60006020820190508181036000830152614a5981614a1d565b9050919050565b7f496e76616c6964206b69746368656e0000000000000000000000000000000000600082015250565b6000614a96600f836137e2565b9150614aa182614a60565b602082019050919050565b60006020820190508181036000830152614ac581614a89565b9050919050565b7f496e76616c6964206d696e7420616d6f756e7400000000000000000000000000600082015250565b6000614b026013836137e2565b9150614b0d82614acc565b602082019050919050565b60006020820190508181036000830152614b3181614af5565b9050919050565b6000614b438261367c565b9150614b4e8361367c565b9250827fffffffffffffffffffffffffffffffffffffffffffffffffffffffffffffffff03821115614b8357614b8261445d565b5b828201905092915050565b7f416c6c20746f6b656e73206d696e746564000000000000000000000000000000600082015250565b6000614bc46011836137e2565b9150614bcf82614b8e565b602082019050919050565b60006020820190508181036000830152614bf381614bb7565b9050919050565b7f496e76616c6964207061796d656e742074797065000000000000000000000000600082015250565b6000614c306014836137e2565b9150614c3b82614bfa565b602082019050919050565b60006020820190508181036000830152614c5f81614c23565b9050919050565b6000614c718261367c565b91507fffffffffffffffffffffffffffffffffffffffffffffffffffffffffffffffff821415614ca457614ca361445d565b5b600182019050919050565b6000604082019050614cc46000830185614022565b614cd160208301846136f2565b9392505050565b600081519050614ce781613686565b92915050565b600060208284031215614d0357614d02613614565b5b6000614d1184828501614cd8565b91505092915050565b6000604082019050614d2f6000830185613f39565b614d3c60208301846136f2565b9392505050565b7f455243313135353a207472616e736665722063616c6c6572206973206e6f742060008201527f6f776e6572206e6f7220617070726f7665640000000000000000000000000000602082015250565b6000614d9f6032836137e2565b9150614daa82614d43565b604082019050919050565b60006020820190508181036000830152614dce81614d92565b9050919050565b6000614de08261367c565b9150614deb8361367c565b9250817fffffffffffffffffffffffffffffffffffffffffffffffffffffffffffffffff0483118215151615614e2457614e2361445d565b5b828202905092915050565b7f4e487b7100000000000000000000000000000000000000000000000000000000600052601260045260246000fd5b6000614e698261367c565b9150614e748361367c565b925082614e8457614e83614e2f565b5b828204905092915050565b7f455243313135353a206163636f756e747320616e6420696473206c656e67746860008201527f206d69736d617463680000000000000000000000000000000000000000000000602082015250565b6000614eeb6029836137e2565b9150614ef682614e8f565b604082019050919050565b60006020820190508181036000830152614f1a81614ede565b9050919050565b7f4e487b7100000000000000000000000000000000000000000000000000000000600052603260045260246000fd5b7f4f776e61626c653a2063616c6c6572206973206e6f7420746865206f776e6572600082015250565b6000614f866020836137e2565b9150614f9182614f50565b602082019050919050565b60006020820190508181036000830152614fb581614f79565b9050919050565b600080fd5b600080fd5b600080fd5b60008083356001602003843603038112614fe857614fe7614fbc565b5b80840192508235915067ffffffffffffffff82111561500a57615009614fc1565b5b60208301925060018202360383131561502657615025614fc6565b5b509250929050565b7f496e697469616c697a61626c653a20636f6e747261637420697320616c72656160008201527f647920696e697469616c697a6564000000000000000000000000000000000000602082015250565b600061508a602e836137e2565b91506150958261502e565b604082019050919050565b600060208201905081810360008301526150b98161507d565b9050919050565b7f455243313135353a2063616c6c6572206973206e6f74206f776e6572206e6f7260008201527f20617070726f7665640000000000000000000000000000000000000000000000602082015250565b600061511c6029836137e2565b9150615127826150c0565b604082019050919050565b6000602082019050818103600083015261514b8161510f565b9050919050565b7f4f776e61626c653a206e6577206f776e657220697320746865207a65726f206160008201527f6464726573730000000000000000000000000000000000000000000000000000602082015250565b60006151ae6026836137e2565b91506151b982615152565b604082019050919050565b600060208201905081810360008301526151dd816151a1565b9050919050565b60006151ef8261367c565b91506151fa8361367c565b92508261520a57615209614e2f565b5b828206905092915050565b7f3c7376672069643d226b69746368656e222077696474683d223130302522206860008201527f65696768743d2231303025222076657273696f6e3d22312e312220766965774260208201527f6f783d2230203020313030203130302220786d6c6e733d22687474703a2f2f7760408201527f77772e77332e6f72672f323030302f7376672220786d6c6e733a786c696e6b3d60608201527f22687474703a2f2f7777772e77332e6f72672f313939392f786c696e6b223e00608082015250565b60006152e3609f836144c0565b91506152ee82615215565b609f82019050919050565b7f3c696d61676520783d22302220793d2230222077696474683d2231303022206860008201527f65696768743d223130302220696d6167652d72656e646572696e673d2270697860208201527f656c6174656422207072657365727665417370656374526174696f3d22784d6960408201527f64594d69642220786c696e6b3a687265663d22646174613a696d6167652f706e60608201527f673b6261736536342c0000000000000000000000000000000000000000000000608082015250565b60006153c76089836144c0565b91506153d2826152f9565b608982019050919050565b600081519050919050565b600081905092915050565b60006153fe826153dd565b61540881856153e8565b93506154188185602086016137f3565b80840191505092915050565b7f222f3e0000000000000000000000000000000000000000000000000000000000600082015250565b600061545a6003836144c0565b915061546582615424565b600382019050919050565b7f3c2f7376673e0000000000000000000000000000000000000000000000000000600082015250565b60006154a66006836144c0565b91506154b182615470565b600682019050919050565b60006154c7826152d6565b91506154d2826153ba565b91506154de82846153f3565b91506154e98261544d565b91506154f482615499565b915081905092915050565b7f455243313135353a206d696e7420746f20746865207a65726f2061646472657360008201527f7300000000000000000000000000000000000000000000000000000000000000602082015250565b600061555b6021836137e2565b9150615566826154ff565b604082019050919050565b6000602082019050818103600083015261558a8161554e565b9050919050565b60006040820190506155a660008301856136f2565b6155b360208301846136f2565b9392505050565b7f455243313135353a2069647320616e6420616d6f756e7473206c656e6774682060008201527f6d69736d61746368000000000000000000000000000000000000000000000000602082015250565b60006156166028836137e2565b9150615621826155ba565b604082019050919050565b6000602082019050818103600083015261564581615609565b9050919050565b7f455243313135353a207472616e7366657220746f20746865207a65726f20616460008201527f6472657373000000000000000000000000000000000000000000000000000000602082015250565b60006156a86025836137e2565b91506156b38261564c565b604082019050919050565b600060208201905081810360008301526156d78161569b565b9050919050565b7f455243313135353a20696e73756666696369656e742062616c616e636520666f60008201527f72207472616e7366657200000000000000000000000000000000000000000000602082015250565b600061573a602a836137e2565b9150615745826156de565b604082019050919050565b600060208201905081810360008301526157698161572d565b9050919050565b6000604082019050818103600083015261578a8185613e0c565b9050818103602083015261579e8184613e0c565b90509392505050565b7f4f6e6c792044414f2063616e2065786563757465000000000000000000000000600082015250565b60006157dd6014836137e2565b91506157e8826157a7565b602082019050919050565b6000602082019050818103600083015261580c816157d0565b9050919050565b7f5061757361626c653a206e6f7420706175736564000000000000000000000000600082015250565b60006158496014836137e2565b915061585482615813565b602082019050919050565b600060208201905081810360008301526158788161583c565b9050919050565b7f455243313135353a2073657474696e6720617070726f76616c2073746174757360008201527f20666f722073656c660000000000000000000000000000000000000000000000602082015250565b60006158db6029836137e2565b91506158e68261587f565b604082019050919050565b6000602082019050818103600083015261590a816158ce565b9050919050565b7f496e697469616c697a61626c653a20636f6e7472616374206973206e6f74206960008201527f6e697469616c697a696e67000000000000000000000000000000000000000000602082015250565b600061596d602b836137e2565b915061597882615911565b604082019050919050565b6000602082019050818103600083015261599c81615960565b9050919050565b600082825260208201905092915050565b60006159bf826153dd565b6159c981856159a3565b93506159d98185602086016137f3565b6159e281613826565b840191505092915050565b600060a082019050615a026000830188613f39565b615a0f6020830187613f39565b615a1c60408301866136f2565b615a2960608301856136f2565b8181036080830152615a3b81846159b4565b90509695505050505050565b600081519050615a5681613748565b92915050565b600060208284031215615a7257615a71613614565b5b6000615a8084828501615a47565b91505092915050565b60008160e01c9050919050565b600060033d1115615ab55760046000803e615ab2600051615a89565b90505b90565b600060443d1015615ac857615b4b565b615ad061360a565b60043d036004823e80513d602482011167ffffffffffffffff82111715615af8575050615b4b565b808201805167ffffffffffffffff811115615b165750505050615b4b565b80602083010160043d038501811115615b33575050505050615b4b565b615b4282602001850186613999565b82955050505050505b90565b7f455243313135353a207472616e7366657220746f206e6f6e204552433131353560008201527f526563656976657220696d706c656d656e746572000000000000000000000000602082015250565b6000615baa6034836137e2565b9150615bb582615b4e565b604082019050919050565b60006020820190508181036000830152615bd981615b9d565b9050919050565b7f455243313135353a204552433131353552656365697665722072656a6563746560008201527f6420746f6b656e73000000000000000000000000000000000000000000000000602082015250565b6000615c3c6028836137e2565b9150615c4782615be0565b604082019050919050565b60006020820190508181036000830152615c6b81615c2f565b9050919050565b600060a082019050615c876000830188613f39565b615c946020830187613f39565b8181036040830152615ca68186613e0c565b90508181036060830152615cba8185613e0c565b90508181036080830152615cce81846159b4565b9050969550505050505056fe4142434445464748494a4b4c4d4e4f505152535455565758595a6162636465666768696a6b6c6d6e6f707172737475767778797a303132333435363738392b2fa2646970667358221220b72653c3cda53659965fe5baf5f59a1852ce7eadab9a92f1a75c1e149c2c280164736f6c634300080a0033",
  "immutableReferences": {},
  "source": "// SPDX-License-Identifier: MIT\n\npragma solidity ^0.8.0;\n\nimport \"@openzeppelin/contracts-upgradeable/proxy/utils/Initializable.sol\";\nimport \"@openzeppelin/contracts-upgradeable/access/OwnableUpgradeable.sol\";\nimport \"@openzeppelin/contracts-upgradeable/security/ReentrancyGuardUpgradeable.sol\";\nimport \"@openzeppelin/contracts-upgradeable/token/ERC1155/ERC1155Upgradeable.sol\";\nimport \"@openzeppelin/contracts/utils/Strings.sol\";\nimport \"@openzeppelin/contracts/utils/Base64.sol\";\nimport \"./GenericPausable.sol\";\nimport \"./FastFood.sol\";\nimport \"./CasualFood.sol\";\nimport \"./Character.sol\";\n\ncontract KitchenShop is Initializable, OwnableUpgradeable, ReentrancyGuardUpgradeable, GenericPausable, ERC1155Upgradeable {\n  using Strings for uint256;\n\n  struct KitchenData { // Struct to store each kitchen's metadata\n    string name;\n    string png;\n  }\n\n  FastFood fastFood; // Reference to the $FFOOD contract\n  CasualFood casualFood; // Reference to the $CFOOD contract\n  Character character; // Reference to the Character contract\n\n  string public name;\n  string public symbol;\n  uint256 public tokenSupply;\n  uint256 public priceTier0;\n  uint256 public priceTier1;\n  uint256 public priceTier2;\n  uint256 public priceTier3;\n  uint256 public priceTier4;\n  uint8 public maxMintsPerTx; // Maximum number of tokens that can be minted in a single tx\n  mapping (uint8 => uint256) public maxTokens;\n  mapping (uint8 => uint256) public minSkill;\n  mapping (uint8 => uint256) public minted;\n  mapping(uint256 => KitchenData) public kitchenData; // Storage of each kitchen's metadata\n\n  function initialize(address _fastFood, address _casualFood, address _character) external initializer {\n    __Ownable_init();\n    __Pausable_init();\n\n    fastFood = FastFood(_fastFood);\n    casualFood = CasualFood(_casualFood);\n    character = Character(_character);\n    minted[1] = 0;\n    minted[2] = 0;\n\n    name = \"RatAlert Kitchens\";\n    symbol = \"RATCUISINE\";\n  }\n\n  /**\n   * Allows DAO to update game parameters\n   */\n  function configure(\n    uint256[] memory _maxTokens,\n    uint8 _maxMintsPerTx,\n    uint8[] memory _minSkill,\n    uint256[] memory _prices\n  ) external onlyOwner {\n    maxTokens[1] = _maxTokens[0];\n    maxTokens[2] = _maxTokens[1];\n    maxMintsPerTx = _maxMintsPerTx;\n    minSkill[1] = _minSkill[0];\n    minSkill[2] = _minSkill[1];\n    priceTier0 = _prices[0];\n    priceTier1 = _prices[1];\n    priceTier2 = _prices[2];\n    priceTier3 = _prices[3];\n    priceTier4 = _prices[4];\n    tokenSupply = _maxTokens[0] + _maxTokens[1];\n  }\n\n  /**\n   * Mints new ERC1155 token(s) of the given kitchen type\n   * @param kitchen - The kitchen type\n   * @param amount - Number of tokens to mint\n   */\n  function mint(uint8 kitchen, uint8 amount) external payable nonReentrant whenNotPaused {\n    require(tx.origin == _msgSender(), \"EOA only\");\n    require(kitchen > 0 && kitchen <= 2, \"Invalid kitchen\");\n    require(amount > 0 && amount <= maxMintsPerTx, \"Invalid mint amount\");\n    require(minted[kitchen] + amount <= maxTokens[kitchen], \"All tokens minted\");\n    require(msg.value == 0, \"Invalid payment type\");\n\n    uint256 totalCost = 0;\n    for (uint i = 0; i < amount; i++) {\n      minted[kitchen] ++;\n      totalCost += this.mintCost(kitchen, minted[kitchen]);\n    }\n    _mint(_msgSender(), kitchen, amount, \"\");\n    if (totalCost > 0) {\n      if (kitchen == 2) {\n        casualFood.burn(_msgSender(), totalCost);\n      } else {\n        fastFood.burn(_msgSender(), totalCost);\n      }\n    }\n  }\n\n  /**\n   * Returns the latest mint price for the given token using 5 price breaks\n   * @param kitchen - The kitchen type\n   * @param tokenId - The token ID to check\n   * @return The minting cost of the given ID\n   */\n  function mintCost(uint8 kitchen, uint256 tokenId) external view returns (uint256) {\n    if (tokenId <= maxTokens[kitchen] * 1 / 5) return priceTier0;\n    if (tokenId <= maxTokens[kitchen] * 2 / 5) return priceTier1;\n    if (tokenId <= maxTokens[kitchen] * 3 / 5) return priceTier2;\n    if (tokenId <= maxTokens[kitchen] * 4 / 5) return priceTier3;\n    return priceTier4;\n  }\n\n  /**\n   * Returns the base64 encoded ERC1155 metadata\n   * @param tokenId - The ID of the Kitchen\n   * @return base64 encoded JSON string\n   */\n  function uri(uint256 tokenId) public view override returns (string memory) {\n    require(tokenId > 0 && tokenId <= 2, \"ERC1155Metadata: URI query for non-existent token\");\n    KitchenData memory kitchen = kitchenData[tokenId - 1];\n\n    string memory metadata = string(abi.encodePacked(\n      '{',\n        '\"name\":\"', kitchen.name, '\",',\n        '\"description\":\"RatAlert, the NFT game that lets you Train2Earn your characters on-chain for higher rewards! https://ratalert.com/\",',\n        '\"external_url\":\"https://ratalert.com/kitchens/', tokenId.toString(), '\",',\n        '\"image\":\"data:image/png;base64,', Base64.encode(bytes(drawSVG(bytes(kitchen.png)))), '\"',\n      '}'\n    ));\n\n    return string(abi.encodePacked(\"data:application/json;base64,\", Base64.encode(bytes(metadata))));\n  }\n\n  /**\n   * Generates an SVG by composing kitchen PNG, this has better OpenSea support\n   * @param png - The png to add\n   * @return A valid SVG string of the kitchen\n   */\n  function drawSVG(bytes memory png) private pure returns (string memory) {\n    return string(abi.encodePacked(\n        '<svg id=\"kitchen\" width=\"100%\" height=\"100%\" version=\"1.1\" viewBox=\"0 0 100 100\" xmlns=\"http://www.w3.org/2000/svg\" xmlns:xlink=\"http://www.w3.org/1999/xlink\">',\n          '<image x=\"0\" y=\"0\" width=\"100\" height=\"100\" image-rendering=\"pixelated\" preserveAspectRatio=\"xMidYMid\" xlink:href=\"data:image/png;base64,',\n            png,\n          '\"/>',\n        \"</svg>\"\n      ));\n  }\n\n  /**\n   * Used by admin to upload the kitchen images\n   * @param imageIndex - The index at which to upload the image\n   * @param kitchen - The base64 encoded PNG for that kitchen\n   */\n  function uploadImage(uint256 imageIndex, KitchenData calldata kitchen) external onlyOwner {\n    kitchenData[imageIndex] = KitchenData(\n      kitchen.name,\n      kitchen.png\n    );\n  }\n}\n",
  "sourcePath": "/Users/chris/workspace/ratalert/ratalert-contracts/contracts/KitchenShop.sol",
  "compiler": {
    "name": "solc",
    "version": "0.8.10+commit.fc410830.Emscripten.clang"
  },
  "schemaVersion": "3.4.7",
  "updatedAt": "2022-05-08T21:31:25.618Z",
  "networkType": "ethereum",
  "devdoc": {
    "kind": "dev",
    "methods": {
      "balanceOf(address,uint256)": {
        "details": "See {IERC1155-balanceOf}. Requirements: - `account` cannot be the zero address."
      },
      "balanceOfBatch(address[],uint256[])": {
        "details": "See {IERC1155-balanceOfBatch}. Requirements: - `accounts` and `ids` must have the same length."
      },
      "isApprovedForAll(address,address)": {
        "details": "See {IERC1155-isApprovedForAll}."
      },
      "mint(uint8,uint8)": {
        "params": {
          "amount": "- Number of tokens to mint",
          "kitchen": "- The kitchen type"
        }
      },
      "mintCost(uint8,uint256)": {
        "params": {
          "kitchen": "- The kitchen type",
          "tokenId": "- The token ID to check"
        },
        "returns": {
          "_0": "The minting cost of the given ID"
        }
      },
      "owner()": {
        "details": "Returns the address of the current owner."
      },
      "paused()": {
        "details": "Returns true if the contract is paused, and false otherwise."
      },
      "renounceOwnership()": {
        "details": "Leaves the contract without owner. It will not be possible to call `onlyOwner` functions anymore. Can only be called by the current owner. NOTE: Renouncing ownership will leave the contract without an owner, thereby removing any functionality that is only available to the owner."
      },
      "safeBatchTransferFrom(address,address,uint256[],uint256[],bytes)": {
        "details": "See {IERC1155-safeBatchTransferFrom}."
      },
      "safeTransferFrom(address,address,uint256,uint256,bytes)": {
        "details": "See {IERC1155-safeTransferFrom}."
      },
      "setApprovalForAll(address,bool)": {
        "details": "See {IERC1155-setApprovalForAll}."
      },
      "supportsInterface(bytes4)": {
        "details": "See {IERC165-supportsInterface}."
      },
      "transferOwnership(address)": {
        "details": "Transfers ownership of the contract to a new account (`newOwner`). Can only be called by the current owner."
      },
      "uploadImage(uint256,(string,string))": {
        "params": {
          "imageIndex": "- The index at which to upload the image",
          "kitchen": "- The base64 encoded PNG for that kitchen"
        }
      },
      "uri(uint256)": {
        "params": {
          "tokenId": "- The ID of the Kitchen"
        },
        "returns": {
          "_0": "base64 encoded JSON string"
        }
      }
    },
    "version": 1
  },
  "userdoc": {
    "kind": "user",
    "methods": {
      "configure(uint256[],uint8,uint8[],uint256[])": {
        "notice": "Allows DAO to update game parameters"
      },
      "mint(uint8,uint8)": {
        "notice": "Mints new ERC1155 token(s) of the given kitchen type"
      },
      "mintCost(uint8,uint256)": {
        "notice": "Returns the latest mint price for the given token using 5 price breaks"
      },
      "uploadImage(uint256,(string,string))": {
        "notice": "Used by admin to upload the kitchen images"
      },
      "uri(uint256)": {
        "notice": "Returns the base64 encoded ERC1155 metadata"
      }
    },
    "version": 1
  }
}