{
  "contractName": "KitchenShop",
  "abi": [
    {
      "anonymous": false,
      "inputs": [
        {
          "indexed": true,
          "internalType": "address",
          "name": "account",
          "type": "address"
        },
        {
          "indexed": true,
          "internalType": "address",
          "name": "operator",
          "type": "address"
        },
        {
          "indexed": false,
          "internalType": "bool",
          "name": "approved",
          "type": "bool"
        }
      ],
      "name": "ApprovalForAll",
      "type": "event"
    },
    {
      "anonymous": false,
      "inputs": [
        {
          "indexed": true,
          "internalType": "address",
          "name": "previousOwner",
          "type": "address"
        },
        {
          "indexed": true,
          "internalType": "address",
          "name": "newOwner",
          "type": "address"
        }
      ],
      "name": "OwnershipTransferred",
      "type": "event"
    },
    {
      "anonymous": false,
      "inputs": [
        {
          "indexed": false,
          "internalType": "address",
          "name": "account",
          "type": "address"
        }
      ],
      "name": "Paused",
      "type": "event"
    },
    {
      "anonymous": false,
      "inputs": [
        {
          "indexed": true,
          "internalType": "address",
          "name": "operator",
          "type": "address"
        },
        {
          "indexed": true,
          "internalType": "address",
          "name": "from",
          "type": "address"
        },
        {
          "indexed": true,
          "internalType": "address",
          "name": "to",
          "type": "address"
        },
        {
          "indexed": false,
          "internalType": "uint256[]",
          "name": "ids",
          "type": "uint256[]"
        },
        {
          "indexed": false,
          "internalType": "uint256[]",
          "name": "values",
          "type": "uint256[]"
        }
      ],
      "name": "TransferBatch",
      "type": "event"
    },
    {
      "anonymous": false,
      "inputs": [
        {
          "indexed": true,
          "internalType": "address",
          "name": "operator",
          "type": "address"
        },
        {
          "indexed": true,
          "internalType": "address",
          "name": "from",
          "type": "address"
        },
        {
          "indexed": true,
          "internalType": "address",
          "name": "to",
          "type": "address"
        },
        {
          "indexed": false,
          "internalType": "uint256",
          "name": "id",
          "type": "uint256"
        },
        {
          "indexed": false,
          "internalType": "uint256",
          "name": "value",
          "type": "uint256"
        }
      ],
      "name": "TransferSingle",
      "type": "event"
    },
    {
      "anonymous": false,
      "inputs": [
        {
          "indexed": false,
          "internalType": "string",
          "name": "value",
          "type": "string"
        },
        {
          "indexed": true,
          "internalType": "uint256",
          "name": "id",
          "type": "uint256"
        }
      ],
      "name": "URI",
      "type": "event"
    },
    {
      "anonymous": false,
      "inputs": [
        {
          "indexed": false,
          "internalType": "address",
          "name": "account",
          "type": "address"
        }
      ],
      "name": "Unpaused",
      "type": "event"
    },
    {
      "inputs": [
        {
          "internalType": "address",
          "name": "account",
          "type": "address"
        },
        {
          "internalType": "uint256",
          "name": "id",
          "type": "uint256"
        }
      ],
      "name": "balanceOf",
      "outputs": [
        {
          "internalType": "uint256",
          "name": "",
          "type": "uint256"
        }
      ],
      "stateMutability": "view",
      "type": "function",
      "constant": true
    },
    {
      "inputs": [
        {
          "internalType": "address[]",
          "name": "accounts",
          "type": "address[]"
        },
        {
          "internalType": "uint256[]",
          "name": "ids",
          "type": "uint256[]"
        }
      ],
      "name": "balanceOfBatch",
      "outputs": [
        {
          "internalType": "uint256[]",
          "name": "",
          "type": "uint256[]"
        }
      ],
      "stateMutability": "view",
      "type": "function",
      "constant": true
    },
    {
      "inputs": [
        {
          "internalType": "address",
          "name": "account",
          "type": "address"
        },
        {
          "internalType": "address",
          "name": "operator",
          "type": "address"
        }
      ],
      "name": "isApprovedForAll",
      "outputs": [
        {
          "internalType": "bool",
          "name": "",
          "type": "bool"
        }
      ],
      "stateMutability": "view",
      "type": "function",
      "constant": true
    },
    {
      "inputs": [
        {
          "internalType": "uint256",
          "name": "",
          "type": "uint256"
        }
      ],
      "name": "kitchenData",
      "outputs": [
        {
          "internalType": "string",
          "name": "name",
          "type": "string"
        },
        {
          "internalType": "string",
          "name": "png",
          "type": "string"
        }
      ],
      "stateMutability": "view",
      "type": "function",
      "constant": true
    },
    {
      "inputs": [],
      "name": "maxMintsPerTx",
      "outputs": [
        {
          "internalType": "uint8",
          "name": "",
          "type": "uint8"
        }
      ],
      "stateMutability": "view",
      "type": "function",
      "constant": true
    },
    {
      "inputs": [
        {
          "internalType": "uint8",
          "name": "",
          "type": "uint8"
        }
      ],
      "name": "maxTokens",
      "outputs": [
        {
          "internalType": "uint256",
          "name": "",
          "type": "uint256"
        }
      ],
      "stateMutability": "view",
      "type": "function",
      "constant": true
    },
    {
      "inputs": [
        {
          "internalType": "uint8",
          "name": "",
          "type": "uint8"
        }
      ],
      "name": "minSkill",
      "outputs": [
        {
          "internalType": "uint256",
          "name": "",
          "type": "uint256"
        }
      ],
      "stateMutability": "view",
      "type": "function",
      "constant": true
    },
    {
      "inputs": [
        {
          "internalType": "uint8",
          "name": "",
          "type": "uint8"
        }
      ],
      "name": "minted",
      "outputs": [
        {
          "internalType": "uint256",
          "name": "",
          "type": "uint256"
        }
      ],
      "stateMutability": "view",
      "type": "function",
      "constant": true
    },
    {
      "inputs": [],
      "name": "owner",
      "outputs": [
        {
          "internalType": "address",
          "name": "",
          "type": "address"
        }
      ],
      "stateMutability": "view",
      "type": "function",
      "constant": true
    },
    {
      "inputs": [],
      "name": "pause",
      "outputs": [],
      "stateMutability": "nonpayable",
      "type": "function"
    },
    {
      "inputs": [],
      "name": "paused",
      "outputs": [
        {
          "internalType": "bool",
          "name": "",
          "type": "bool"
        }
      ],
      "stateMutability": "view",
      "type": "function",
      "constant": true
    },
    {
      "inputs": [],
      "name": "priceTier0",
      "outputs": [
        {
          "internalType": "uint256",
          "name": "",
          "type": "uint256"
        }
      ],
      "stateMutability": "view",
      "type": "function",
      "constant": true
    },
    {
      "inputs": [],
      "name": "priceTier1",
      "outputs": [
        {
          "internalType": "uint256",
          "name": "",
          "type": "uint256"
        }
      ],
      "stateMutability": "view",
      "type": "function",
      "constant": true
    },
    {
      "inputs": [],
      "name": "priceTier2",
      "outputs": [
        {
          "internalType": "uint256",
          "name": "",
          "type": "uint256"
        }
      ],
      "stateMutability": "view",
      "type": "function",
      "constant": true
    },
    {
      "inputs": [],
      "name": "priceTier3",
      "outputs": [
        {
          "internalType": "uint256",
          "name": "",
          "type": "uint256"
        }
      ],
      "stateMutability": "view",
      "type": "function",
      "constant": true
    },
    {
      "inputs": [],
      "name": "priceTier4",
      "outputs": [
        {
          "internalType": "uint256",
          "name": "",
          "type": "uint256"
        }
      ],
      "stateMutability": "view",
      "type": "function",
      "constant": true
    },
    {
      "inputs": [],
      "name": "renounceOwnership",
      "outputs": [],
      "stateMutability": "nonpayable",
      "type": "function"
    },
    {
      "inputs": [
        {
          "internalType": "address",
          "name": "from",
          "type": "address"
        },
        {
          "internalType": "address",
          "name": "to",
          "type": "address"
        },
        {
          "internalType": "uint256[]",
          "name": "ids",
          "type": "uint256[]"
        },
        {
          "internalType": "uint256[]",
          "name": "amounts",
          "type": "uint256[]"
        },
        {
          "internalType": "bytes",
          "name": "data",
          "type": "bytes"
        }
      ],
      "name": "safeBatchTransferFrom",
      "outputs": [],
      "stateMutability": "nonpayable",
      "type": "function"
    },
    {
      "inputs": [
        {
          "internalType": "address",
          "name": "from",
          "type": "address"
        },
        {
          "internalType": "address",
          "name": "to",
          "type": "address"
        },
        {
          "internalType": "uint256",
          "name": "id",
          "type": "uint256"
        },
        {
          "internalType": "uint256",
          "name": "amount",
          "type": "uint256"
        },
        {
          "internalType": "bytes",
          "name": "data",
          "type": "bytes"
        }
      ],
      "name": "safeTransferFrom",
      "outputs": [],
      "stateMutability": "nonpayable",
      "type": "function"
    },
    {
      "inputs": [
        {
          "internalType": "address",
          "name": "operator",
          "type": "address"
        },
        {
          "internalType": "bool",
          "name": "approved",
          "type": "bool"
        }
      ],
      "name": "setApprovalForAll",
      "outputs": [],
      "stateMutability": "nonpayable",
      "type": "function"
    },
    {
      "inputs": [
        {
          "internalType": "bytes4",
          "name": "interfaceId",
          "type": "bytes4"
        }
      ],
      "name": "supportsInterface",
      "outputs": [
        {
          "internalType": "bool",
          "name": "",
          "type": "bool"
        }
      ],
      "stateMutability": "view",
      "type": "function",
      "constant": true
    },
    {
      "inputs": [
        {
          "internalType": "address",
          "name": "newOwner",
          "type": "address"
        }
      ],
      "name": "transferOwnership",
      "outputs": [],
      "stateMutability": "nonpayable",
      "type": "function"
    },
    {
      "inputs": [],
      "name": "unpause",
      "outputs": [],
      "stateMutability": "nonpayable",
      "type": "function"
    },
    {
      "inputs": [
        {
          "internalType": "address",
          "name": "_fastFood",
          "type": "address"
        },
        {
          "internalType": "address",
          "name": "_casualFood",
          "type": "address"
        },
        {
          "internalType": "address",
          "name": "_character",
          "type": "address"
        }
      ],
      "name": "initialize",
      "outputs": [],
      "stateMutability": "nonpayable",
      "type": "function"
    },
    {
      "inputs": [
        {
          "internalType": "uint256[]",
          "name": "_maxTokens",
          "type": "uint256[]"
        },
        {
          "internalType": "uint8",
          "name": "_maxMintsPerTx",
          "type": "uint8"
        },
        {
          "internalType": "uint8[]",
          "name": "_minSkill",
          "type": "uint8[]"
        },
        {
          "internalType": "uint256[]",
          "name": "_prices",
          "type": "uint256[]"
        }
      ],
      "name": "configure",
      "outputs": [],
      "stateMutability": "nonpayable",
      "type": "function"
    },
    {
      "inputs": [
        {
          "internalType": "uint8",
          "name": "kitchen",
          "type": "uint8"
        },
        {
          "internalType": "uint8",
          "name": "amount",
          "type": "uint8"
        }
      ],
      "name": "mint",
      "outputs": [],
      "stateMutability": "payable",
      "type": "function",
      "payable": true
    },
    {
      "inputs": [
        {
          "internalType": "uint8",
          "name": "kitchen",
          "type": "uint8"
        },
        {
          "internalType": "uint256",
          "name": "tokenId",
          "type": "uint256"
        }
      ],
      "name": "mintCost",
      "outputs": [
        {
          "internalType": "uint256",
          "name": "",
          "type": "uint256"
        }
      ],
      "stateMutability": "view",
      "type": "function",
      "constant": true
    },
    {
      "inputs": [
        {
          "internalType": "uint256",
          "name": "tokenId",
          "type": "uint256"
        }
      ],
      "name": "uri",
      "outputs": [
        {
          "internalType": "string",
          "name": "",
          "type": "string"
        }
      ],
      "stateMutability": "view",
      "type": "function",
      "constant": true
    },
    {
      "inputs": [
        {
          "internalType": "uint256",
          "name": "imageIndex",
          "type": "uint256"
        },
        {
          "components": [
            {
              "internalType": "string",
              "name": "name",
              "type": "string"
            },
            {
              "internalType": "string",
              "name": "png",
              "type": "string"
            }
          ],
          "internalType": "struct KitchenShop.KitchenData",
          "name": "kitchen",
          "type": "tuple"
        }
      ],
      "name": "uploadImage",
      "outputs": [],
      "stateMutability": "nonpayable",
      "type": "function"
    }
  ],
  "bytecode": "0x608060405234801561001057600080fd5b50615588806100206000396000f3fe6080604052600436106101c15760003560e01c80637d26c78c116100f7578063dc30158b11610095578063f1a837d011610064578063f1a837d014610659578063f21ec01a14610684578063f242432a146106af578063f2fde38b146106d8576101c1565b8063dc30158b1461058a578063ddeb1aec146105b5578063e0683ab8146105de578063e985e9c51461061c576101c1565b8063a22cb465116100d1578063a22cb465146104d0578063c0c53b8b146104f9578063cc52964114610522578063d383d9bb1461055f576101c1565b80637d26c78c146104655780638456cb591461048e5780638da5cb5b146104a5576101c1565b80633e0987f7116101645780634d39b6541161013e5780634d39b654146103bb5780634e1273f4146103e65780635c975abb14610423578063715018a61461044e576101c1565b80633e0987f71461032a5780633f4ba83a1461036757806346598ab81461037e576101c1565b80630e89341c116101a05780630e89341c1461027d57806329a0eee8146102ba5780632e53d474146102d65780632eb2c2d614610301576101c1565b8062fdd58e146101c657806301ffc9a7146102035780630cabd0a614610240575b600080fd5b3480156101d257600080fd5b506101ed60048036038101906101e891906132d0565b610701565b6040516101fa919061331f565b60405180910390f35b34801561020f57600080fd5b5061022a60048036038101906102259190613392565b6107cb565b60405161023791906133da565b60405180910390f35b34801561024c57600080fd5b506102676004803603810190610262919061342e565b6108ad565b604051610274919061331f565b60405180910390f35b34801561028957600080fd5b506102a4600480360381019061029f919061345b565b6108c6565b6040516102b19190613521565b60405180910390f35b6102d460048036038101906102cf9190613543565b610ad4565b005b3480156102e257600080fd5b506102eb610f10565b6040516102f8919061331f565b60405180910390f35b34801561030d57600080fd5b5061032860048036038101906103239190613780565b610f16565b005b34801561033657600080fd5b50610351600480360381019061034c919061342e565b610fb7565b60405161035e919061331f565b60405180910390f35b34801561037357600080fd5b5061037c610fd0565b005b34801561038a57600080fd5b506103a560048036038101906103a0919061384f565b611056565b6040516103b2919061331f565b60405180910390f35b3480156103c757600080fd5b506103d0611173565b6040516103dd919061331f565b60405180910390f35b3480156103f257600080fd5b5061040d60048036038101906104089190613952565b611179565b60405161041a9190613a88565b60405180910390f35b34801561042f57600080fd5b50610438611292565b60405161044591906133da565b60405180910390f35b34801561045a57600080fd5b506104636112a9565b005b34801561047157600080fd5b5061048c60048036038101906104879190613ace565b611331565b005b34801561049a57600080fd5b506104a36114bb565b005b3480156104b157600080fd5b506104ba611541565b6040516104c79190613b39565b60405180910390f35b3480156104dc57600080fd5b506104f760048036038101906104f29190613b80565b61156b565b005b34801561050557600080fd5b50610520600480360381019061051b9190613bc0565b611581565b005b34801561052e57600080fd5b506105496004803603810190610544919061342e565b611777565b604051610556919061331f565b60405180910390f35b34801561056b57600080fd5b50610574611790565b604051610581919061331f565b60405180910390f35b34801561059657600080fd5b5061059f611797565b6040516105ac9190613c22565b60405180910390f35b3480156105c157600080fd5b506105dc60048036038101906105d79190613d00565b6117ab565b005b3480156105ea57600080fd5b506106056004803603810190610600919061345b565b6119dc565b604051610613929190613dbb565b60405180910390f35b34801561062857600080fd5b50610643600480360381019061063e9190613df2565b611b11565b60405161065091906133da565b60405180910390f35b34801561066557600080fd5b5061066e611ba5565b60405161067b919061331f565b60405180910390f35b34801561069057600080fd5b50610699611bac565b6040516106a6919061331f565b60405180910390f35b3480156106bb57600080fd5b506106d660048036038101906106d19190613e32565b611bb3565b005b3480156106e457600080fd5b506106ff60048036038101906106fa9190613ec9565b611c54565b005b60008073ffffffffffffffffffffffffffffffffffffffff168373ffffffffffffffffffffffffffffffffffffffff161415610772576040517f08c379a000000000000000000000000000000000000000000000000000000000815260040161076990613f68565b60405180910390fd5b60c9600083815260200190815260200160002060008473ffffffffffffffffffffffffffffffffffffffff1673ffffffffffffffffffffffffffffffffffffffff16815260200190815260200160002054905092915050565b60007fd9b67a26000000000000000000000000000000000000000000000000000000007bffffffffffffffffffffffffffffffffffffffffffffffffffffffff1916827bffffffffffffffffffffffffffffffffffffffffffffffffffffffff1916148061089657507f0e89341c000000000000000000000000000000000000000000000000000000007bffffffffffffffffffffffffffffffffffffffffffffffffffffffff1916827bffffffffffffffffffffffffffffffffffffffffffffffffffffffff1916145b806108a657506108a582611d4c565b5b9050919050565b6101066020528060005260406000206000915090505481565b60606000821180156108d9575060028211155b610918576040517f08c379a000000000000000000000000000000000000000000000000000000000815260040161090f90613ffa565b60405180910390fd5b6000610107600060018561092c9190614049565b8152602001908152602001600020604051806040016040529081600082018054610955906140ac565b80601f0160208091040260200160405190810160405280929190818152602001828054610981906140ac565b80156109ce5780601f106109a3576101008083540402835291602001916109ce565b820191906000526020600020905b8154815290600101906020018083116109b157829003601f168201915b505050505081526020016001820180546109e7906140ac565b80601f0160208091040260200160405190810160405280929190818152602001828054610a13906140ac565b8015610a605780601f10610a3557610100808354040283529160200191610a60565b820191906000526020600020905b815481529060010190602001808311610a4357829003601f168201915b505050505081525050905060008160000151610a7b85611db6565b8360200151604051602001610a929392919061447f565b6040516020818303038152906040529050610aac81611f17565b604051602001610abc919061455f565b60405160208183030381529060405292505050919050565b610adc611292565b15610b1c576040517f08c379a0000000000000000000000000000000000000000000000000000000008152600401610b13906145cd565b60405180910390fd5b610b2461209c565b73ffffffffffffffffffffffffffffffffffffffff163273ffffffffffffffffffffffffffffffffffffffff1614610b91576040517f08c379a0000000000000000000000000000000000000000000000000000000008152600401610b8890614639565b60405180910390fd5b60008260ff16118015610ba8575060028260ff1611155b610be7576040517f08c379a0000000000000000000000000000000000000000000000000000000008152600401610bde906146a5565b60405180910390fd5b60008160ff16118015610c10575061010360009054906101000a900460ff1660ff168160ff1611155b610c4f576040517f08c379a0000000000000000000000000000000000000000000000000000000008152600401610c4690614711565b60405180910390fd5b61010460008360ff1660ff168152602001908152602001600020548160ff1661010660008560ff1660ff16815260200190815260200160002054610c939190614731565b1115610cd4576040517f08c379a0000000000000000000000000000000000000000000000000000000008152600401610ccb906147d3565b60405180910390fd5b60003414610d17576040517f08c379a0000000000000000000000000000000000000000000000000000000008152600401610d0e9061483f565b60405180910390fd5b6000805b8260ff16811015610d9a5761010660008560ff1660ff1681526020019081526020016000206000815480929190610d519061485f565b9190505550610d7a8461010660008760ff1660ff16815260200190815260200160002054611056565b82610d859190614731565b91508080610d929061485f565b915050610d1b565b50610dc3610da661209c565b8460ff168460ff16604051806020016040528060008152506120a4565b6000811115610f0b5760028360ff161415610e735760fc60009054906101000a900473ffffffffffffffffffffffffffffffffffffffff1673ffffffffffffffffffffffffffffffffffffffff16639dc29fac610e1e61209c565b836040518363ffffffff1660e01b8152600401610e3c9291906148a8565b600060405180830381600087803b158015610e5657600080fd5b505af1158015610e6a573d6000803e3d6000fd5b50505050610f0a565b60fb60009054906101000a900473ffffffffffffffffffffffffffffffffffffffff1673ffffffffffffffffffffffffffffffffffffffff16639dc29fac610eb961209c565b836040518363ffffffff1660e01b8152600401610ed79291906148a8565b600060405180830381600087803b158015610ef157600080fd5b505af1158015610f05573d6000803e3d6000fd5b505050505b5b505050565b60ff5481565b610f1e61209c565b73ffffffffffffffffffffffffffffffffffffffff168573ffffffffffffffffffffffffffffffffffffffff161480610f645750610f6385610f5e61209c565b611b11565b5b610fa3576040517f08c379a0000000000000000000000000000000000000000000000000000000008152600401610f9a90614943565b60405180910390fd5b610fb0858585858561223b565b5050505050565b6101046020528060005260406000206000915090505481565b610fd861209c565b73ffffffffffffffffffffffffffffffffffffffff16610ff6611541565b73ffffffffffffffffffffffffffffffffffffffff161461104c576040517f08c379a0000000000000000000000000000000000000000000000000000000008152600401611043906149af565b60405180910390fd5b611054612552565b565b60006005600161010460008660ff1660ff1681526020019081526020016000205461108191906149cf565b61108b9190614a58565b821161109b5760fe54905061116d565b6005600261010460008660ff1660ff168152602001908152602001600020546110c491906149cf565b6110ce9190614a58565b82116110de5760ff54905061116d565b6005600361010460008660ff1660ff1681526020019081526020016000205461110791906149cf565b6111119190614a58565b82116111225761010054905061116d565b6005600461010460008660ff1660ff1681526020019081526020016000205461114b91906149cf565b6111559190614a58565b82116111665761010154905061116d565b6101025490505b92915050565b60fe5481565b606081518351146111bf576040517f08c379a00000000000000000000000000000000000000000000000000000000081526004016111b690614afb565b60405180910390fd5b6000835167ffffffffffffffff8111156111dc576111db613588565b5b60405190808252806020026020018201604052801561120a5781602001602082028036833780820191505090505b50905060005b84518110156112875761125785828151811061122f5761122e614b1b565b5b602002602001015185838151811061124a57611249614b1b565b5b6020026020010151610701565b82828151811061126a57611269614b1b565b5b602002602001018181525050806112809061485f565b9050611210565b508091505092915050565b6000606560009054906101000a900460ff16905090565b6112b161209c565b73ffffffffffffffffffffffffffffffffffffffff166112cf611541565b73ffffffffffffffffffffffffffffffffffffffff1614611325576040517f08c379a000000000000000000000000000000000000000000000000000000000815260040161131c906149af565b60405180910390fd5b61132f60006125f4565b565b61133961209c565b73ffffffffffffffffffffffffffffffffffffffff16611357611541565b73ffffffffffffffffffffffffffffffffffffffff16146113ad576040517f08c379a00000000000000000000000000000000000000000000000000000000081526004016113a4906149af565b60405180910390fd5b60405180604001604052808280600001906113c89190614b59565b8080601f016020809104026020016040519081016040528093929190818152602001838380828437600081840152601f19601f8201169050808301925050505050505081526020018280602001906114209190614b59565b8080601f016020809104026020016040519081016040528093929190818152602001838380828437600081840152601f19601f8201169050808301925050505050505081525061010760008481526020019081526020016000206000820151816000019080519060200190611496929190613185565b5060208201518160010190805190602001906114b3929190613185565b509050505050565b6114c361209c565b73ffffffffffffffffffffffffffffffffffffffff166114e1611541565b73ffffffffffffffffffffffffffffffffffffffff1614611537576040517f08c379a000000000000000000000000000000000000000000000000000000000815260040161152e906149af565b60405180910390fd5b61153f6126ba565b565b6000603360009054906101000a900473ffffffffffffffffffffffffffffffffffffffff16905090565b61157d61157661209c565b838361275d565b5050565b600060019054906101000a900460ff166115a95760008054906101000a900460ff16156115b2565b6115b16128ca565b5b6115f1576040517f08c379a00000000000000000000000000000000000000000000000000000000081526004016115e890614c2e565b60405180910390fd5b60008060019054906101000a900460ff161590508015611641576001600060016101000a81548160ff02191690831515021790555060016000806101000a81548160ff0219169083151502179055505b6116496128db565b61165161293c565b8360fb60006101000a81548173ffffffffffffffffffffffffffffffffffffffff021916908373ffffffffffffffffffffffffffffffffffffffff1602179055508260fc60006101000a81548173ffffffffffffffffffffffffffffffffffffffff021916908373ffffffffffffffffffffffffffffffffffffffff1602179055508160fd60006101000a81548173ffffffffffffffffffffffffffffffffffffffff021916908373ffffffffffffffffffffffffffffffffffffffff16021790555060006101066000600160ff1681526020019081526020016000208190555060006101066000600260ff1681526020019081526020016000208190555080156117715760008060016101000a81548160ff0219169083151502179055505b50505050565b6101056020528060005260406000206000915090505481565b6101005481565b61010360009054906101000a900460ff1681565b6117b361209c565b73ffffffffffffffffffffffffffffffffffffffff166117d1611541565b73ffffffffffffffffffffffffffffffffffffffff1614611827576040517f08c379a000000000000000000000000000000000000000000000000000000000815260040161181e906149af565b60405180910390fd5b8360008151811061183b5761183a614b1b565b5b60200260200101516101046000600160ff168152602001908152602001600020819055508360018151811061187357611872614b1b565b5b60200260200101516101046000600260ff168152602001908152602001600020819055508261010360006101000a81548160ff021916908360ff160217905550816000815181106118c7576118c6614b1b565b5b602002602001015160ff166101056000600160ff168152602001908152602001600020819055508160018151811061190257611901614b1b565b5b602002602001015160ff166101056000600260ff168152602001908152602001600020819055508060008151811061193d5761193c614b1b565b5b602002602001015160fe819055508060018151811061195f5761195e614b1b565b5b602002602001015160ff819055508060028151811061198157611980614b1b565b5b602002602001015161010081905550806003815181106119a4576119a3614b1b565b5b602002602001015161010181905550806004815181106119c7576119c6614b1b565b5b60200260200101516101028190555050505050565b610107602052806000526040600020600091509050806000018054611a00906140ac565b80601f0160208091040260200160405190810160405280929190818152602001828054611a2c906140ac565b8015611a795780601f10611a4e57610100808354040283529160200191611a79565b820191906000526020600020905b815481529060010190602001808311611a5c57829003601f168201915b505050505090806001018054611a8e906140ac565b80601f0160208091040260200160405190810160405280929190818152602001828054611aba906140ac565b8015611b075780601f10611adc57610100808354040283529160200191611b07565b820191906000526020600020905b815481529060010190602001808311611aea57829003601f168201915b5050505050905082565b600060ca60008473ffffffffffffffffffffffffffffffffffffffff1673ffffffffffffffffffffffffffffffffffffffff16815260200190815260200160002060008373ffffffffffffffffffffffffffffffffffffffff1673ffffffffffffffffffffffffffffffffffffffff16815260200190815260200160002060009054906101000a900460ff16905092915050565b6101015481565b6101025481565b611bbb61209c565b73ffffffffffffffffffffffffffffffffffffffff168573ffffffffffffffffffffffffffffffffffffffff161480611c015750611c0085611bfb61209c565b611b11565b5b611c40576040517f08c379a0000000000000000000000000000000000000000000000000000000008152600401611c3790614cc0565b60405180910390fd5b611c4d858585858561299d565b5050505050565b611c5c61209c565b73ffffffffffffffffffffffffffffffffffffffff16611c7a611541565b73ffffffffffffffffffffffffffffffffffffffff1614611cd0576040517f08c379a0000000000000000000000000000000000000000000000000000000008152600401611cc7906149af565b60405180910390fd5b600073ffffffffffffffffffffffffffffffffffffffff168173ffffffffffffffffffffffffffffffffffffffff161415611d40576040517f08c379a0000000000000000000000000000000000000000000000000000000008152600401611d3790614d52565b60405180910390fd5b611d49816125f4565b50565b60007f01ffc9a7000000000000000000000000000000000000000000000000000000007bffffffffffffffffffffffffffffffffffffffffffffffffffffffff1916827bffffffffffffffffffffffffffffffffffffffffffffffffffffffff1916149050919050565b60606000821415611dfe576040518060400160405280600181526020017f30000000000000000000000000000000000000000000000000000000000000008152509050611f12565b600082905060005b60008214611e30578080611e199061485f565b915050600a82611e299190614a58565b9150611e06565b60008167ffffffffffffffff811115611e4c57611e4b613588565b5b6040519080825280601f01601f191660200182016040528015611e7e5781602001600182028036833780820191505090505b5090505b60008514611f0b57600182611e979190614049565b9150600a85611ea69190614d72565b6030611eb29190614731565b60f81b818381518110611ec857611ec7614b1b565b5b60200101907effffffffffffffffffffffffffffffffffffffffffffffffffffffffffffff1916908160001a905350600a85611f049190614a58565b9450611e82565b8093505050505b919050565b6060600082511415611f3a57604051806020016040528060008152509050612097565b60006040518060600160405280604081526020016155136040913990506000600360028551611f699190614731565b611f739190614a58565b6004611f7f91906149cf565b90506000602082611f909190614731565b67ffffffffffffffff811115611fa957611fa8613588565b5b6040519080825280601f01601f191660200182016040528015611fdb5781602001600182028036833780820191505090505b509050818152600183018586518101602084015b81831015612056576003830192508251603f8160121c1685015160f81b8252600182019150603f81600c1c1685015160f81b8252600182019150603f8160061c1685015160f81b8252600182019150603f811685015160f81b825260018201915050611fef565b60038951066001811461207057600281146120805761208b565b613d3d60f01b600283035261208b565b603d60f81b60018303525b50505050508093505050505b919050565b600033905090565b600073ffffffffffffffffffffffffffffffffffffffff168473ffffffffffffffffffffffffffffffffffffffff161415612114576040517f08c379a000000000000000000000000000000000000000000000000000000000815260040161210b90614e15565b60405180910390fd5b600061211e61209c565b905061213f8160008761213088612c22565b61213988612c22565b87612c9c565b8260c9600086815260200190815260200160002060008773ffffffffffffffffffffffffffffffffffffffff1673ffffffffffffffffffffffffffffffffffffffff168152602001908152602001600020600082825461219f9190614731565b925050819055508473ffffffffffffffffffffffffffffffffffffffff16600073ffffffffffffffffffffffffffffffffffffffff168273ffffffffffffffffffffffffffffffffffffffff167fc3d58168c5ae7397731d063d5bbf3d657854427343f4c083240f7aacaa2d0f62878760405161221d929190614e35565b60405180910390a461223481600087878787612ca4565b5050505050565b815183511461227f576040517f08c379a000000000000000000000000000000000000000000000000000000000815260040161227690614ed0565b60405180910390fd5b600073ffffffffffffffffffffffffffffffffffffffff168473ffffffffffffffffffffffffffffffffffffffff1614156122ef576040517f08c379a00000000000000000000000000000000000000000000000000000000081526004016122e690614f62565b60405180910390fd5b60006122f961209c565b9050612309818787878787612c9c565b60005b84518110156124bd57600085828151811061232a57612329614b1b565b5b60200260200101519050600085838151811061234957612348614b1b565b5b60200260200101519050600060c9600084815260200190815260200160002060008b73ffffffffffffffffffffffffffffffffffffffff1673ffffffffffffffffffffffffffffffffffffffff168152602001908152602001600020549050818110156123eb576040517f08c379a00000000000000000000000000000000000000000000000000000000081526004016123e290614ff4565b60405180910390fd5b81810360c9600085815260200190815260200160002060008c73ffffffffffffffffffffffffffffffffffffffff1673ffffffffffffffffffffffffffffffffffffffff168152602001908152602001600020819055508160c9600085815260200190815260200160002060008b73ffffffffffffffffffffffffffffffffffffffff1673ffffffffffffffffffffffffffffffffffffffff16815260200190815260200160002060008282546124a29190614731565b92505081905550505050806124b69061485f565b905061230c565b508473ffffffffffffffffffffffffffffffffffffffff168673ffffffffffffffffffffffffffffffffffffffff168273ffffffffffffffffffffffffffffffffffffffff167f4a39dc06d4c0dbc64b70af90fd698a233a518aa5d07e595d983b8c0526c8f7fb8787604051612534929190615014565b60405180910390a461254a818787878787612e7c565b505050505050565b61255a611292565b612599576040517f08c379a000000000000000000000000000000000000000000000000000000000815260040161259090615097565b60405180910390fd5b6000606560006101000a81548160ff0219169083151502179055507f5db9ee0a495bf2e6ff9c91a7834c1ba4fdd244a5e8aa4e537bd38aeae4b073aa6125dd61209c565b6040516125ea9190613b39565b60405180910390a1565b6000603360009054906101000a900473ffffffffffffffffffffffffffffffffffffffff16905081603360006101000a81548173ffffffffffffffffffffffffffffffffffffffff021916908373ffffffffffffffffffffffffffffffffffffffff1602179055508173ffffffffffffffffffffffffffffffffffffffff168173ffffffffffffffffffffffffffffffffffffffff167f8be0079c531659141344cd1fd0a4f28419497f9722a3daafe3b4186f6b6457e060405160405180910390a35050565b6126c2611292565b15612702576040517f08c379a00000000000000000000000000000000000000000000000000000000081526004016126f9906145cd565b60405180910390fd5b6001606560006101000a81548160ff0219169083151502179055507f62e78cea01bee320cd4e420270b5ea74000d11b0c9f74754ebdbfc544b05a25861274661209c565b6040516127539190613b39565b60405180910390a1565b8173ffffffffffffffffffffffffffffffffffffffff168373ffffffffffffffffffffffffffffffffffffffff1614156127cc576040517f08c379a00000000000000000000000000000000000000000000000000000000081526004016127c390615129565b60405180910390fd5b8060ca60008573ffffffffffffffffffffffffffffffffffffffff1673ffffffffffffffffffffffffffffffffffffffff16815260200190815260200160002060008473ffffffffffffffffffffffffffffffffffffffff1673ffffffffffffffffffffffffffffffffffffffff16815260200190815260200160002060006101000a81548160ff0219169083151502179055508173ffffffffffffffffffffffffffffffffffffffff168373ffffffffffffffffffffffffffffffffffffffff167f17307eab39ab6107e8899845ad3d59bd9653f200f220920489ca2b5937696c31836040516128bd91906133da565b60405180910390a3505050565b60006128d530613054565b15905090565b600060019054906101000a900460ff1661292a576040517f08c379a0000000000000000000000000000000000000000000000000000000008152600401612921906151bb565b60405180910390fd5b612932613067565b61293a6130b8565b565b600060019054906101000a900460ff1661298b576040517f08c379a0000000000000000000000000000000000000000000000000000000008152600401612982906151bb565b60405180910390fd5b612993613067565b61299b613119565b565b600073ffffffffffffffffffffffffffffffffffffffff168473ffffffffffffffffffffffffffffffffffffffff161415612a0d576040517f08c379a0000000000000000000000000000000000000000000000000000000008152600401612a0490614f62565b60405180910390fd5b6000612a1761209c565b9050612a37818787612a2888612c22565b612a3188612c22565b87612c9c565b600060c9600086815260200190815260200160002060008873ffffffffffffffffffffffffffffffffffffffff1673ffffffffffffffffffffffffffffffffffffffff16815260200190815260200160002054905083811015612acf576040517f08c379a0000000000000000000000000000000000000000000000000000000008152600401612ac690614ff4565b60405180910390fd5b83810360c9600087815260200190815260200160002060008973ffffffffffffffffffffffffffffffffffffffff1673ffffffffffffffffffffffffffffffffffffffff168152602001908152602001600020819055508360c9600087815260200190815260200160002060008873ffffffffffffffffffffffffffffffffffffffff1673ffffffffffffffffffffffffffffffffffffffff1681526020019081526020016000206000828254612b869190614731565b925050819055508573ffffffffffffffffffffffffffffffffffffffff168773ffffffffffffffffffffffffffffffffffffffff168373ffffffffffffffffffffffffffffffffffffffff167fc3d58168c5ae7397731d063d5bbf3d657854427343f4c083240f7aacaa2d0f628888604051612c03929190614e35565b60405180910390a4612c19828888888888612ca4565b50505050505050565b60606000600167ffffffffffffffff811115612c4157612c40613588565b5b604051908082528060200260200182016040528015612c6f5781602001602082028036833780820191505090505b5090508281600081518110612c8757612c86614b1b565b5b60200260200101818152505080915050919050565b505050505050565b612cc38473ffffffffffffffffffffffffffffffffffffffff16613054565b15612e74578373ffffffffffffffffffffffffffffffffffffffff1663f23a6e6187878686866040518663ffffffff1660e01b8152600401612d09959493929190615225565b6020604051808303816000875af1925050508015612d4557506040513d601f19601f82011682018060405250810190612d429190615294565b60015b612deb57612d516152ce565b806308c379a01415612dae5750612d666152f0565b80612d715750612db0565b806040517f08c379a0000000000000000000000000000000000000000000000000000000008152600401612da59190613521565b60405180910390fd5b505b6040517f08c379a0000000000000000000000000000000000000000000000000000000008152600401612de2906153f8565b60405180910390fd5b63f23a6e6160e01b7bffffffffffffffffffffffffffffffffffffffffffffffffffffffff1916817bffffffffffffffffffffffffffffffffffffffffffffffffffffffff191614612e72576040517f08c379a0000000000000000000000000000000000000000000000000000000008152600401612e699061548a565b60405180910390fd5b505b505050505050565b612e9b8473ffffffffffffffffffffffffffffffffffffffff16613054565b1561304c578373ffffffffffffffffffffffffffffffffffffffff1663bc197c8187878686866040518663ffffffff1660e01b8152600401612ee19594939291906154aa565b6020604051808303816000875af1925050508015612f1d57506040513d601f19601f82011682018060405250810190612f1a9190615294565b60015b612fc357612f296152ce565b806308c379a01415612f865750612f3e6152f0565b80612f495750612f88565b806040517f08c379a0000000000000000000000000000000000000000000000000000000008152600401612f7d9190613521565b60405180910390fd5b505b6040517f08c379a0000000000000000000000000000000000000000000000000000000008152600401612fba906153f8565b60405180910390fd5b63bc197c8160e01b7bffffffffffffffffffffffffffffffffffffffffffffffffffffffff1916817bffffffffffffffffffffffffffffffffffffffffffffffffffffffff19161461304a576040517f08c379a00000000000000000000000000000000000000000000000000000000081526004016130419061548a565b60405180910390fd5b505b505050505050565b600080823b905060008111915050919050565b600060019054906101000a900460ff166130b6576040517f08c379a00000000000000000000000000000000000000000000000000000000081526004016130ad906151bb565b60405180910390fd5b565b600060019054906101000a900460ff16613107576040517f08c379a00000000000000000000000000000000000000000000000000000000081526004016130fe906151bb565b60405180910390fd5b61311761311261209c565b6125f4565b565b600060019054906101000a900460ff16613168576040517f08c379a000000000000000000000000000000000000000000000000000000000815260040161315f906151bb565b60405180910390fd5b6000606560006101000a81548160ff021916908315150217905550565b828054613191906140ac565b90600052602060002090601f0160209004810192826131b357600085556131fa565b82601f106131cc57805160ff19168380011785556131fa565b828001600101855582156131fa579182015b828111156131f95782518255916020019190600101906131de565b5b509050613207919061320b565b5090565b5b8082111561322457600081600090555060010161320c565b5090565b6000604051905090565b600080fd5b600080fd5b600073ffffffffffffffffffffffffffffffffffffffff82169050919050565b60006132678261323c565b9050919050565b6132778161325c565b811461328257600080fd5b50565b6000813590506132948161326e565b92915050565b6000819050919050565b6132ad8161329a565b81146132b857600080fd5b50565b6000813590506132ca816132a4565b92915050565b600080604083850312156132e7576132e6613232565b5b60006132f585828601613285565b9250506020613306858286016132bb565b9150509250929050565b6133198161329a565b82525050565b60006020820190506133346000830184613310565b92915050565b60007fffffffff0000000000000000000000000000000000000000000000000000000082169050919050565b61336f8161333a565b811461337a57600080fd5b50565b60008135905061338c81613366565b92915050565b6000602082840312156133a8576133a7613232565b5b60006133b68482850161337d565b91505092915050565b60008115159050919050565b6133d4816133bf565b82525050565b60006020820190506133ef60008301846133cb565b92915050565b600060ff82169050919050565b61340b816133f5565b811461341657600080fd5b50565b60008135905061342881613402565b92915050565b60006020828403121561344457613443613232565b5b600061345284828501613419565b91505092915050565b60006020828403121561347157613470613232565b5b600061347f848285016132bb565b91505092915050565b600081519050919050565b600082825260208201905092915050565b60005b838110156134c25780820151818401526020810190506134a7565b838111156134d1576000848401525b50505050565b6000601f19601f8301169050919050565b60006134f382613488565b6134fd8185613493565b935061350d8185602086016134a4565b613516816134d7565b840191505092915050565b6000602082019050818103600083015261353b81846134e8565b905092915050565b6000806040838503121561355a57613559613232565b5b600061356885828601613419565b925050602061357985828601613419565b9150509250929050565b600080fd5b7f4e487b7100000000000000000000000000000000000000000000000000000000600052604160045260246000fd5b6135c0826134d7565b810181811067ffffffffffffffff821117156135df576135de613588565b5b80604052505050565b60006135f2613228565b90506135fe82826135b7565b919050565b600067ffffffffffffffff82111561361e5761361d613588565b5b602082029050602081019050919050565b600080fd5b600061364761364284613603565b6135e8565b9050808382526020820190506020840283018581111561366a5761366961362f565b5b835b81811015613693578061367f88826132bb565b84526020840193505060208101905061366c565b5050509392505050565b600082601f8301126136b2576136b1613583565b5b81356136c2848260208601613634565b91505092915050565b600080fd5b600067ffffffffffffffff8211156136eb576136ea613588565b5b6136f4826134d7565b9050602081019050919050565b82818337600083830152505050565b600061372361371e846136d0565b6135e8565b90508281526020810184848401111561373f5761373e6136cb565b5b61374a848285613701565b509392505050565b600082601f83011261376757613766613583565b5b8135613777848260208601613710565b91505092915050565b600080600080600060a0868803121561379c5761379b613232565b5b60006137aa88828901613285565b95505060206137bb88828901613285565b945050604086013567ffffffffffffffff8111156137dc576137db613237565b5b6137e88882890161369d565b935050606086013567ffffffffffffffff81111561380957613808613237565b5b6138158882890161369d565b925050608086013567ffffffffffffffff81111561383657613835613237565b5b61384288828901613752565b9150509295509295909350565b6000806040838503121561386657613865613232565b5b600061387485828601613419565b9250506020613885858286016132bb565b9150509250929050565b600067ffffffffffffffff8211156138aa576138a9613588565b5b602082029050602081019050919050565b60006138ce6138c98461388f565b6135e8565b905080838252602082019050602084028301858111156138f1576138f061362f565b5b835b8181101561391a57806139068882613285565b8452602084019350506020810190506138f3565b5050509392505050565b600082601f83011261393957613938613583565b5b81356139498482602086016138bb565b91505092915050565b6000806040838503121561396957613968613232565b5b600083013567ffffffffffffffff81111561398757613986613237565b5b61399385828601613924565b925050602083013567ffffffffffffffff8111156139b4576139b3613237565b5b6139c08582860161369d565b9150509250929050565b600081519050919050565b600082825260208201905092915050565b6000819050602082019050919050565b6139ff8161329a565b82525050565b6000613a1183836139f6565b60208301905092915050565b6000602082019050919050565b6000613a35826139ca565b613a3f81856139d5565b9350613a4a836139e6565b8060005b83811015613a7b578151613a628882613a05565b9750613a6d83613a1d565b925050600181019050613a4e565b5085935050505092915050565b60006020820190508181036000830152613aa28184613a2a565b905092915050565b600080fd5b600060408284031215613ac557613ac4613aaa565b5b81905092915050565b60008060408385031215613ae557613ae4613232565b5b6000613af3858286016132bb565b925050602083013567ffffffffffffffff811115613b1457613b13613237565b5b613b2085828601613aaf565b9150509250929050565b613b338161325c565b82525050565b6000602082019050613b4e6000830184613b2a565b92915050565b613b5d816133bf565b8114613b6857600080fd5b50565b600081359050613b7a81613b54565b92915050565b60008060408385031215613b9757613b96613232565b5b6000613ba585828601613285565b9250506020613bb685828601613b6b565b9150509250929050565b600080600060608486031215613bd957613bd8613232565b5b6000613be786828701613285565b9350506020613bf886828701613285565b9250506040613c0986828701613285565b9150509250925092565b613c1c816133f5565b82525050565b6000602082019050613c376000830184613c13565b92915050565b600067ffffffffffffffff821115613c5857613c57613588565b5b602082029050602081019050919050565b6000613c7c613c7784613c3d565b6135e8565b90508083825260208201905060208402830185811115613c9f57613c9e61362f565b5b835b81811015613cc85780613cb48882613419565b845260208401935050602081019050613ca1565b5050509392505050565b600082601f830112613ce757613ce6613583565b5b8135613cf7848260208601613c69565b91505092915050565b60008060008060808587031215613d1a57613d19613232565b5b600085013567ffffffffffffffff811115613d3857613d37613237565b5b613d448782880161369d565b9450506020613d5587828801613419565b935050604085013567ffffffffffffffff811115613d7657613d75613237565b5b613d8287828801613cd2565b925050606085013567ffffffffffffffff811115613da357613da2613237565b5b613daf8782880161369d565b91505092959194509250565b60006040820190508181036000830152613dd581856134e8565b90508181036020830152613de981846134e8565b90509392505050565b60008060408385031215613e0957613e08613232565b5b6000613e1785828601613285565b9250506020613e2885828601613285565b9150509250929050565b600080600080600060a08688031215613e4e57613e4d613232565b5b6000613e5c88828901613285565b9550506020613e6d88828901613285565b9450506040613e7e888289016132bb565b9350506060613e8f888289016132bb565b925050608086013567ffffffffffffffff811115613eb057613eaf613237565b5b613ebc88828901613752565b9150509295509295909350565b600060208284031215613edf57613ede613232565b5b6000613eed84828501613285565b91505092915050565b7f455243313135353a2062616c616e636520717565727920666f7220746865207a60008201527f65726f2061646472657373000000000000000000000000000000000000000000602082015250565b6000613f52602b83613493565b9150613f5d82613ef6565b604082019050919050565b60006020820190508181036000830152613f8181613f45565b9050919050565b7f455243313135354d657461646174613a2055524920717565727920666f72206e60008201527f6f6e2d6578697374656e7420746f6b656e000000000000000000000000000000602082015250565b6000613fe4603183613493565b9150613fef82613f88565b604082019050919050565b6000602082019050818103600083015261401381613fd7565b9050919050565b7f4e487b7100000000000000000000000000000000000000000000000000000000600052601160045260246000fd5b60006140548261329a565b915061405f8361329a565b9250828210156140725761407161401a565b5b828203905092915050565b7f4e487b7100000000000000000000000000000000000000000000000000000000600052602260045260246000fd5b600060028204905060018216806140c457607f821691505b602082108114156140d8576140d761407d565b5b50919050565b600081905092915050565b7f7b00000000000000000000000000000000000000000000000000000000000000600082015250565b600061411f6001836140de565b915061412a826140e9565b600182019050919050565b7f226e616d65223a22000000000000000000000000000000000000000000000000600082015250565b600061416b6008836140de565b915061417682614135565b600882019050919050565b600061418c82613488565b61419681856140de565b93506141a68185602086016134a4565b80840191505092915050565b7f222c000000000000000000000000000000000000000000000000000000000000600082015250565b60006141e86002836140de565b91506141f3826141b2565b600282019050919050565b7f226465736372697074696f6e223a22526174416c6572742c20746865204e465460008201527f2067616d652074686174206c65747320796f7520547261696e324561726e207960208201527f6f75722063686172616374657273206f6e2d636861696e20666f72206869676860408201527f65722072657761726473212068747470733a2f2f726174616c6572742e636f6d60608201527f2f222c0000000000000000000000000000000000000000000000000000000000608082015250565b60006142cc6083836140de565b91506142d7826141fe565b608382019050919050565b7f2265787465726e616c5f75726c223a2268747470733a2f2f726174616c65727460008201527f2e636f6d2f6b69746368656e732f000000000000000000000000000000000000602082015250565b600061433e602e836140de565b9150614349826142e2565b602e82019050919050565b7f22696d616765223a22646174613a696d6167652f706e673b6261736536342c00600082015250565b600061438a601f836140de565b915061439582614354565b601f82019050919050565b600081519050919050565b600081905092915050565b60006143c1826143a0565b6143cb81856143ab565b93506143db8185602086016134a4565b80840191505092915050565b7f2200000000000000000000000000000000000000000000000000000000000000600082015250565b600061441d6001836140de565b9150614428826143e7565b600182019050919050565b7f7d00000000000000000000000000000000000000000000000000000000000000600082015250565b60006144696001836140de565b915061447482614433565b600182019050919050565b600061448a82614112565b91506144958261415e565b91506144a18286614181565b91506144ac826141db565b91506144b7826142bf565b91506144c282614331565b91506144ce8285614181565b91506144d9826141db565b91506144e48261437d565b91506144f082846143b6565b91506144fb82614410565b91506145068261445c565b9150819050949350505050565b7f646174613a6170706c69636174696f6e2f6a736f6e3b6261736536342c000000600082015250565b6000614549601d836140de565b915061455482614513565b601d82019050919050565b600061456a8261453c565b91506145768284614181565b915081905092915050565b7f5061757361626c653a2070617573656400000000000000000000000000000000600082015250565b60006145b7601083613493565b91506145c282614581565b602082019050919050565b600060208201905081810360008301526145e6816145aa565b9050919050565b7f454f41206f6e6c79000000000000000000000000000000000000000000000000600082015250565b6000614623600883613493565b915061462e826145ed565b602082019050919050565b6000602082019050818103600083015261465281614616565b9050919050565b7f496e76616c6964206b69746368656e0000000000000000000000000000000000600082015250565b600061468f600f83613493565b915061469a82614659565b602082019050919050565b600060208201905081810360008301526146be81614682565b9050919050565b7f496e76616c6964206d696e7420616d6f756e7400000000000000000000000000600082015250565b60006146fb601383613493565b9150614706826146c5565b602082019050919050565b6000602082019050818103600083015261472a816146ee565b9050919050565b600061473c8261329a565b91506147478361329a565b9250827fffffffffffffffffffffffffffffffffffffffffffffffffffffffffffffffff0382111561477c5761477b61401a565b5b828201905092915050565b7f416c6c20746f6b656e73206d696e746564000000000000000000000000000000600082015250565b60006147bd601183613493565b91506147c882614787565b602082019050919050565b600060208201905081810360008301526147ec816147b0565b9050919050565b7f496e76616c6964207061796d656e742074797065000000000000000000000000600082015250565b6000614829601483613493565b9150614834826147f3565b602082019050919050565b600060208201905081810360008301526148588161481c565b9050919050565b600061486a8261329a565b91507fffffffffffffffffffffffffffffffffffffffffffffffffffffffffffffffff82141561489d5761489c61401a565b5b600182019050919050565b60006040820190506148bd6000830185613b2a565b6148ca6020830184613310565b9392505050565b7f455243313135353a207472616e736665722063616c6c6572206973206e6f742060008201527f6f776e6572206e6f7220617070726f7665640000000000000000000000000000602082015250565b600061492d603283613493565b9150614938826148d1565b604082019050919050565b6000602082019050818103600083015261495c81614920565b9050919050565b7f4f776e61626c653a2063616c6c6572206973206e6f7420746865206f776e6572600082015250565b6000614999602083613493565b91506149a482614963565b602082019050919050565b600060208201905081810360008301526149c88161498c565b9050919050565b60006149da8261329a565b91506149e58361329a565b9250817fffffffffffffffffffffffffffffffffffffffffffffffffffffffffffffffff0483118215151615614a1e57614a1d61401a565b5b828202905092915050565b7f4e487b7100000000000000000000000000000000000000000000000000000000600052601260045260246000fd5b6000614a638261329a565b9150614a6e8361329a565b925082614a7e57614a7d614a29565b5b828204905092915050565b7f455243313135353a206163636f756e747320616e6420696473206c656e67746860008201527f206d69736d617463680000000000000000000000000000000000000000000000602082015250565b6000614ae5602983613493565b9150614af082614a89565b604082019050919050565b60006020820190508181036000830152614b1481614ad8565b9050919050565b7f4e487b7100000000000000000000000000000000000000000000000000000000600052603260045260246000fd5b600080fd5b600080fd5b600080fd5b60008083356001602003843603038112614b7657614b75614b4a565b5b80840192508235915067ffffffffffffffff821115614b9857614b97614b4f565b5b602083019250600182023603831315614bb457614bb3614b54565b5b509250929050565b7f496e697469616c697a61626c653a20636f6e747261637420697320616c72656160008201527f647920696e697469616c697a6564000000000000000000000000000000000000602082015250565b6000614c18602e83613493565b9150614c2382614bbc565b604082019050919050565b60006020820190508181036000830152614c4781614c0b565b9050919050565b7f455243313135353a2063616c6c6572206973206e6f74206f776e6572206e6f7260008201527f20617070726f7665640000000000000000000000000000000000000000000000602082015250565b6000614caa602983613493565b9150614cb582614c4e565b604082019050919050565b60006020820190508181036000830152614cd981614c9d565b9050919050565b7f4f776e61626c653a206e6577206f776e657220697320746865207a65726f206160008201527f6464726573730000000000000000000000000000000000000000000000000000602082015250565b6000614d3c602683613493565b9150614d4782614ce0565b604082019050919050565b60006020820190508181036000830152614d6b81614d2f565b9050919050565b6000614d7d8261329a565b9150614d888361329a565b925082614d9857614d97614a29565b5b828206905092915050565b7f455243313135353a206d696e7420746f20746865207a65726f2061646472657360008201527f7300000000000000000000000000000000000000000000000000000000000000602082015250565b6000614dff602183613493565b9150614e0a82614da3565b604082019050919050565b60006020820190508181036000830152614e2e81614df2565b9050919050565b6000604082019050614e4a6000830185613310565b614e576020830184613310565b9392505050565b7f455243313135353a2069647320616e6420616d6f756e7473206c656e6774682060008201527f6d69736d61746368000000000000000000000000000000000000000000000000602082015250565b6000614eba602883613493565b9150614ec582614e5e565b604082019050919050565b60006020820190508181036000830152614ee981614ead565b9050919050565b7f455243313135353a207472616e7366657220746f20746865207a65726f20616460008201527f6472657373000000000000000000000000000000000000000000000000000000602082015250565b6000614f4c602583613493565b9150614f5782614ef0565b604082019050919050565b60006020820190508181036000830152614f7b81614f3f565b9050919050565b7f455243313135353a20696e73756666696369656e742062616c616e636520666f60008201527f72207472616e7366657200000000000000000000000000000000000000000000602082015250565b6000614fde602a83613493565b9150614fe982614f82565b604082019050919050565b6000602082019050818103600083015261500d81614fd1565b9050919050565b6000604082019050818103600083015261502e8185613a2a565b905081810360208301526150428184613a2a565b90509392505050565b7f5061757361626c653a206e6f7420706175736564000000000000000000000000600082015250565b6000615081601483613493565b915061508c8261504b565b602082019050919050565b600060208201905081810360008301526150b081615074565b9050919050565b7f455243313135353a2073657474696e6720617070726f76616c2073746174757360008201527f20666f722073656c660000000000000000000000000000000000000000000000602082015250565b6000615113602983613493565b915061511e826150b7565b604082019050919050565b6000602082019050818103600083015261514281615106565b9050919050565b7f496e697469616c697a61626c653a20636f6e7472616374206973206e6f74206960008201527f6e697469616c697a696e67000000000000000000000000000000000000000000602082015250565b60006151a5602b83613493565b91506151b082615149565b604082019050919050565b600060208201905081810360008301526151d481615198565b9050919050565b600082825260208201905092915050565b60006151f7826143a0565b61520181856151db565b93506152118185602086016134a4565b61521a816134d7565b840191505092915050565b600060a08201905061523a6000830188613b2a565b6152476020830187613b2a565b6152546040830186613310565b6152616060830185613310565b818103608083015261527381846151ec565b90509695505050505050565b60008151905061528e81613366565b92915050565b6000602082840312156152aa576152a9613232565b5b60006152b88482850161527f565b91505092915050565b60008160e01c9050919050565b600060033d11156152ed5760046000803e6152ea6000516152c1565b90505b90565b600060443d101561530057615383565b615308613228565b60043d036004823e80513d602482011167ffffffffffffffff82111715615330575050615383565b808201805167ffffffffffffffff81111561534e5750505050615383565b80602083010160043d03850181111561536b575050505050615383565b61537a826020018501866135b7565b82955050505050505b90565b7f455243313135353a207472616e7366657220746f206e6f6e204552433131353560008201527f526563656976657220696d706c656d656e746572000000000000000000000000602082015250565b60006153e2603483613493565b91506153ed82615386565b604082019050919050565b60006020820190508181036000830152615411816153d5565b9050919050565b7f455243313135353a204552433131353552656365697665722072656a6563746560008201527f6420746f6b656e73000000000000000000000000000000000000000000000000602082015250565b6000615474602883613493565b915061547f82615418565b604082019050919050565b600060208201905081810360008301526154a381615467565b9050919050565b600060a0820190506154bf6000830188613b2a565b6154cc6020830187613b2a565b81810360408301526154de8186613a2a565b905081810360608301526154f28185613a2a565b9050818103608083015261550681846151ec565b9050969550505050505056fe4142434445464748494a4b4c4d4e4f505152535455565758595a6162636465666768696a6b6c6d6e6f707172737475767778797a303132333435363738392b2fa26469706673582212209423a10ce6beddab0053fc19d5df3ac262fe244967a9fdb41a88a87d4a4a924f64736f6c634300080a0033",
  "immutableReferences": {},
  "source": "// SPDX-License-Identifier: MIT\n\npragma solidity ^0.8.0;\n\nimport \"@openzeppelin/contracts-upgradeable/proxy/utils/Initializable.sol\";\nimport \"@openzeppelin/contracts-upgradeable/access/OwnableUpgradeable.sol\";\nimport \"@openzeppelin/contracts-upgradeable/token/ERC1155/ERC1155Upgradeable.sol\";\nimport \"@openzeppelin/contracts/utils/Strings.sol\";\nimport \"./GenericPausable.sol\";\nimport \"./FastFood.sol\";\nimport \"./CasualFood.sol\";\nimport \"./Character.sol\";\n\ncontract KitchenShop is Initializable, OwnableUpgradeable, GenericPausable, ERC1155Upgradeable {\n  using Strings for uint256;\n\n  struct KitchenData { // Struct to store each kitchen's metadata\n    string name;\n    string png;\n  }\n\n  FastFood fastFood; // Reference to the $FFOOD contract\n  CasualFood casualFood; // Reference to the $CFOOD contract\n  Character character; // Reference to the Character contract\n\n  uint256 public priceTier0;\n  uint256 public priceTier1;\n  uint256 public priceTier2;\n  uint256 public priceTier3;\n  uint256 public priceTier4;\n  uint8 public maxMintsPerTx; // Maximum number of tokens that can be minted in a single tx\n  mapping (uint8 => uint256) public maxTokens;\n  mapping (uint8 => uint256) public minSkill;\n  mapping (uint8 => uint256) public minted;\n  mapping(uint256 => KitchenData) public kitchenData; // Storage of each kitchen's metadata\n\n  function initialize(address _fastFood, address _casualFood, address _character) external initializer {\n    __Ownable_init();\n    __Pausable_init();\n    // TODO similar to __ERC721_init(\"RatAlert Characters\", \"RATCHAR\"); or _setURI(string newuri)?\n\n    fastFood = FastFood(_fastFood);\n    casualFood = CasualFood(_casualFood);\n    character = Character(_character);\n    minted[1] = 0;\n    minted[2] = 0;\n  }\n\n  /**\n   * Allows DAO to update game parameters\n   */\n  function configure(\n    uint256[] memory _maxTokens,\n    uint8 _maxMintsPerTx,\n    uint8[] memory _minSkill,\n    uint256[] memory _prices\n  ) external onlyOwner {\n    maxTokens[1] = _maxTokens[0];\n    maxTokens[2] = _maxTokens[1];\n    maxMintsPerTx = _maxMintsPerTx;\n    minSkill[1] = _minSkill[0];\n    minSkill[2] = _minSkill[1];\n    priceTier0 = _prices[0];\n    priceTier1 = _prices[1];\n    priceTier2 = _prices[2];\n    priceTier3 = _prices[3];\n    priceTier4 = _prices[4];\n  }\n\n  /**\n   * Mints new ERC1155 token(s) of a kitchen\n   * @param amount Number of tokens to mint\n   */\n  function mint(uint8 kitchen, uint8 amount) external payable whenNotPaused {\n    require(tx.origin == _msgSender(), \"EOA only\");\n    require(kitchen > 0 && kitchen <= 2, \"Invalid kitchen\");\n    require(amount > 0 && amount <= maxMintsPerTx, \"Invalid mint amount\");\n    require(minted[kitchen] + amount <= maxTokens[kitchen], \"All tokens minted\");\n    require(msg.value == 0, \"Invalid payment type\");\n\n    uint256 totalCost = 0;\n    for (uint i = 0; i < amount; i++) {\n      minted[kitchen] ++;\n      totalCost += mintCost(kitchen, minted[kitchen]);\n    }\n    _mint(_msgSender(), kitchen, amount, \"\");\n    if (totalCost > 0) {\n      if (kitchen == 2) {\n        casualFood.burn(_msgSender(), totalCost);\n      } else {\n        fastFood.burn(_msgSender(), totalCost);\n      }\n    }\n  }\n\n  /**\n   *    1 - 1000: 2000 $FFOOD\n   * 1001 - 2000: 3000 $FFOOD\n   * 2001 - 3000: 4000 $FFOOD\n   * 3001 - 4000: 5000 $FFOOD\n   * 4001 - 5000: 6000 $FFOOD\n   * @param tokenId - The token ID to check\n   * @return The minting cost of the given ID\n   */\n  function mintCost(uint8 kitchen, uint256 tokenId) public view returns (uint256) {\n    if (tokenId <= maxTokens[kitchen] * 1 / 5) return priceTier0;\n    if (tokenId <= maxTokens[kitchen] * 2 / 5) return priceTier1;\n    if (tokenId <= maxTokens[kitchen] * 3 / 5) return priceTier2;\n    if (tokenId <= maxTokens[kitchen] * 4 / 5) return priceTier3;\n    return priceTier4;\n  }\n\n  function uri(uint256 tokenId) public view override returns (string memory) {\n    require(tokenId > 0 && tokenId <= 2, \"ERC1155Metadata: URI query for non-existent token\");\n    KitchenData memory kitchen = kitchenData[tokenId - 1];\n\n    string memory metadata = string(abi.encodePacked(\n      '{',\n        '\"name\":\"', kitchen.name, '\",',\n        '\"description\":\"RatAlert, the NFT game that lets you Train2Earn your characters on-chain for higher rewards! https://ratalert.com/\",',\n        '\"external_url\":\"https://ratalert.com/kitchens/', tokenId.toString(), '\",',\n        '\"image\":\"data:image/png;base64,', bytes(kitchen.png), '\"',\n      '}'\n    ));\n\n    return string(abi.encodePacked(\"data:application/json;base64,\", base64(bytes(metadata))));\n  }\n\n  /**\n   * Used by admin to upload the kitchen images\n   * @param imageIndex - The index at which to upload the image\n   * @param kitchen - The base64 encoded PNG for that kitchen\n   */\n  function uploadImage(uint256 imageIndex, KitchenData calldata kitchen) external onlyOwner {\n    kitchenData[imageIndex] = KitchenData(\n      kitchen.name,\n      kitchen.png\n    );\n  }\n\n  /** BASE 64 - Written by Brech Devos */\n  string internal constant TABLE = 'ABCDEFGHIJKLMNOPQRSTUVWXYZabcdefghijklmnopqrstuvwxyz0123456789+/';\n  function base64(bytes memory data) internal pure returns (string memory) {\n    if (data.length == 0) return '';\n    string memory table = TABLE; // load the table into memory\n    uint256 encodedLen = 4 * ((data.length + 2) / 3); // multiply by 4/3 rounded up\n    string memory result = new string(encodedLen + 32); // add some extra buffer at the end required for the writing\n    assembly {\n      mstore(result, encodedLen) // set the actual output length\n      let tablePtr := add(table, 1) // prepare the lookup table\n      let dataPtr := data // input ptr\n      let endPtr := add(dataPtr, mload(data))\n      let resultPtr := add(result, 32) // result ptr, jump over length\n      for {} lt(dataPtr, endPtr) {} // run over the input, 3 bytes at a time\n      {\n        dataPtr := add(dataPtr, 3)\n        let input := mload(dataPtr) // read 3 bytes\n        // write 4 characters\n        mstore(resultPtr, shl(248, mload(add(tablePtr, and(shr(18, input), 0x3F)))))\n        resultPtr := add(resultPtr, 1)\n        mstore(resultPtr, shl(248, mload(add(tablePtr, and(shr(12, input), 0x3F)))))\n        resultPtr := add(resultPtr, 1)\n        mstore(resultPtr, shl(248, mload(add(tablePtr, and(shr( 6, input), 0x3F)))))\n        resultPtr := add(resultPtr, 1)\n        mstore(resultPtr, shl(248, mload(add(tablePtr, and(        input,  0x3F)))))\n        resultPtr := add(resultPtr, 1)\n      }\n      // padding with '='\n      switch mod(mload(data), 3)\n      case 1 { mstore(sub(resultPtr, 2), shl(240, 0x3d3d)) }\n      case 2 { mstore(sub(resultPtr, 1), shl(248, 0x3d)) }\n    }\n    return result;\n  }\n}\n",
  "sourcePath": "/Users/chris/workspace/ratalert/ratalert-contracts/contracts/KitchenShop.sol",
  "compiler": {
    "name": "solc",
    "version": "0.8.10+commit.fc410830.Emscripten.clang"
  },
  "schemaVersion": "3.4.5",
  "updatedAt": "2022-03-16T22:38:22.470Z",
  "networkType": "ethereum",
  "devdoc": {
    "kind": "dev",
    "methods": {
      "balanceOf(address,uint256)": {
        "details": "See {IERC1155-balanceOf}. Requirements: - `account` cannot be the zero address."
      },
      "balanceOfBatch(address[],uint256[])": {
        "details": "See {IERC1155-balanceOfBatch}. Requirements: - `accounts` and `ids` must have the same length."
      },
      "isApprovedForAll(address,address)": {
        "details": "See {IERC1155-isApprovedForAll}."
      },
      "mint(uint8,uint8)": {
        "params": {
          "amount": "Number of tokens to mint"
        }
      },
      "mintCost(uint8,uint256)": {
        "params": {
          "tokenId": "- The token ID to check"
        },
        "returns": {
          "_0": "The minting cost of the given ID"
        }
      },
      "owner()": {
        "details": "Returns the address of the current owner."
      },
      "paused()": {
        "details": "Returns true if the contract is paused, and false otherwise."
      },
      "renounceOwnership()": {
        "details": "Leaves the contract without owner. It will not be possible to call `onlyOwner` functions anymore. Can only be called by the current owner. NOTE: Renouncing ownership will leave the contract without an owner, thereby removing any functionality that is only available to the owner."
      },
      "safeBatchTransferFrom(address,address,uint256[],uint256[],bytes)": {
        "details": "See {IERC1155-safeBatchTransferFrom}."
      },
      "safeTransferFrom(address,address,uint256,uint256,bytes)": {
        "details": "See {IERC1155-safeTransferFrom}."
      },
      "setApprovalForAll(address,bool)": {
        "details": "See {IERC1155-setApprovalForAll}."
      },
      "supportsInterface(bytes4)": {
        "details": "See {IERC165-supportsInterface}."
      },
      "transferOwnership(address)": {
        "details": "Transfers ownership of the contract to a new account (`newOwner`). Can only be called by the current owner."
      },
      "uploadImage(uint256,(string,string))": {
        "params": {
          "imageIndex": "- The index at which to upload the image",
          "kitchen": "- The base64 encoded PNG for that kitchen"
        }
      }
    },
    "version": 1
  },
  "userdoc": {
    "kind": "user",
    "methods": {
      "configure(uint256[],uint8,uint8[],uint256[])": {
        "notice": "Allows DAO to update game parameters"
      },
      "mint(uint8,uint8)": {
        "notice": "Mints new ERC1155 token(s) of a kitchen"
      },
      "mintCost(uint8,uint256)": {
        "notice": "1 - 1000: 2000 $FFOOD 1001 - 2000: 3000 $FFOOD 2001 - 3000: 4000 $FFOOD 3001 - 4000: 5000 $FFOOD 4001 - 5000: 6000 $FFOOD"
      },
      "uploadImage(uint256,(string,string))": {
        "notice": "Used by admin to upload the kitchen images"
      }
    },
    "version": 1
  }
}