{
  "contractName": "KitchenShop",
  "abi": [
    {
      "anonymous": false,
      "inputs": [
        {
          "indexed": true,
          "internalType": "address",
          "name": "account",
          "type": "address"
        },
        {
          "indexed": true,
          "internalType": "address",
          "name": "operator",
          "type": "address"
        },
        {
          "indexed": false,
          "internalType": "bool",
          "name": "approved",
          "type": "bool"
        }
      ],
      "name": "ApprovalForAll",
      "type": "event"
    },
    {
      "anonymous": false,
      "inputs": [
        {
          "indexed": true,
          "internalType": "address",
          "name": "previousOwner",
          "type": "address"
        },
        {
          "indexed": true,
          "internalType": "address",
          "name": "newOwner",
          "type": "address"
        }
      ],
      "name": "OwnershipTransferred",
      "type": "event"
    },
    {
      "anonymous": false,
      "inputs": [
        {
          "indexed": false,
          "internalType": "address",
          "name": "account",
          "type": "address"
        }
      ],
      "name": "Paused",
      "type": "event"
    },
    {
      "anonymous": false,
      "inputs": [
        {
          "indexed": true,
          "internalType": "address",
          "name": "operator",
          "type": "address"
        },
        {
          "indexed": true,
          "internalType": "address",
          "name": "from",
          "type": "address"
        },
        {
          "indexed": true,
          "internalType": "address",
          "name": "to",
          "type": "address"
        },
        {
          "indexed": false,
          "internalType": "uint256[]",
          "name": "ids",
          "type": "uint256[]"
        },
        {
          "indexed": false,
          "internalType": "uint256[]",
          "name": "values",
          "type": "uint256[]"
        }
      ],
      "name": "TransferBatch",
      "type": "event"
    },
    {
      "anonymous": false,
      "inputs": [
        {
          "indexed": true,
          "internalType": "address",
          "name": "operator",
          "type": "address"
        },
        {
          "indexed": true,
          "internalType": "address",
          "name": "from",
          "type": "address"
        },
        {
          "indexed": true,
          "internalType": "address",
          "name": "to",
          "type": "address"
        },
        {
          "indexed": false,
          "internalType": "uint256",
          "name": "id",
          "type": "uint256"
        },
        {
          "indexed": false,
          "internalType": "uint256",
          "name": "value",
          "type": "uint256"
        }
      ],
      "name": "TransferSingle",
      "type": "event"
    },
    {
      "anonymous": false,
      "inputs": [
        {
          "indexed": false,
          "internalType": "string",
          "name": "value",
          "type": "string"
        },
        {
          "indexed": true,
          "internalType": "uint256",
          "name": "id",
          "type": "uint256"
        }
      ],
      "name": "URI",
      "type": "event"
    },
    {
      "anonymous": false,
      "inputs": [
        {
          "indexed": false,
          "internalType": "address",
          "name": "account",
          "type": "address"
        }
      ],
      "name": "Unpaused",
      "type": "event"
    },
    {
      "inputs": [
        {
          "internalType": "address",
          "name": "account",
          "type": "address"
        },
        {
          "internalType": "uint256",
          "name": "id",
          "type": "uint256"
        }
      ],
      "name": "balanceOf",
      "outputs": [
        {
          "internalType": "uint256",
          "name": "",
          "type": "uint256"
        }
      ],
      "stateMutability": "view",
      "type": "function",
      "constant": true
    },
    {
      "inputs": [
        {
          "internalType": "address[]",
          "name": "accounts",
          "type": "address[]"
        },
        {
          "internalType": "uint256[]",
          "name": "ids",
          "type": "uint256[]"
        }
      ],
      "name": "balanceOfBatch",
      "outputs": [
        {
          "internalType": "uint256[]",
          "name": "",
          "type": "uint256[]"
        }
      ],
      "stateMutability": "view",
      "type": "function",
      "constant": true
    },
    {
      "inputs": [
        {
          "internalType": "address",
          "name": "account",
          "type": "address"
        },
        {
          "internalType": "address",
          "name": "operator",
          "type": "address"
        }
      ],
      "name": "isApprovedForAll",
      "outputs": [
        {
          "internalType": "bool",
          "name": "",
          "type": "bool"
        }
      ],
      "stateMutability": "view",
      "type": "function",
      "constant": true
    },
    {
      "inputs": [
        {
          "internalType": "uint256",
          "name": "",
          "type": "uint256"
        }
      ],
      "name": "kitchenData",
      "outputs": [
        {
          "internalType": "string",
          "name": "name",
          "type": "string"
        },
        {
          "internalType": "string",
          "name": "png",
          "type": "string"
        }
      ],
      "stateMutability": "view",
      "type": "function",
      "constant": true
    },
    {
      "inputs": [],
      "name": "maxMintsPerTx",
      "outputs": [
        {
          "internalType": "uint8",
          "name": "",
          "type": "uint8"
        }
      ],
      "stateMutability": "view",
      "type": "function",
      "constant": true
    },
    {
      "inputs": [
        {
          "internalType": "uint8",
          "name": "",
          "type": "uint8"
        }
      ],
      "name": "maxTokens",
      "outputs": [
        {
          "internalType": "uint256",
          "name": "",
          "type": "uint256"
        }
      ],
      "stateMutability": "view",
      "type": "function",
      "constant": true
    },
    {
      "inputs": [
        {
          "internalType": "uint8",
          "name": "",
          "type": "uint8"
        }
      ],
      "name": "minSkill",
      "outputs": [
        {
          "internalType": "uint256",
          "name": "",
          "type": "uint256"
        }
      ],
      "stateMutability": "view",
      "type": "function",
      "constant": true
    },
    {
      "inputs": [
        {
          "internalType": "uint8",
          "name": "",
          "type": "uint8"
        }
      ],
      "name": "minted",
      "outputs": [
        {
          "internalType": "uint256",
          "name": "",
          "type": "uint256"
        }
      ],
      "stateMutability": "view",
      "type": "function",
      "constant": true
    },
    {
      "inputs": [],
      "name": "name",
      "outputs": [
        {
          "internalType": "string",
          "name": "",
          "type": "string"
        }
      ],
      "stateMutability": "view",
      "type": "function",
      "constant": true
    },
    {
      "inputs": [],
      "name": "owner",
      "outputs": [
        {
          "internalType": "address",
          "name": "",
          "type": "address"
        }
      ],
      "stateMutability": "view",
      "type": "function",
      "constant": true
    },
    {
      "inputs": [],
      "name": "pause",
      "outputs": [],
      "stateMutability": "nonpayable",
      "type": "function"
    },
    {
      "inputs": [],
      "name": "paused",
      "outputs": [
        {
          "internalType": "bool",
          "name": "",
          "type": "bool"
        }
      ],
      "stateMutability": "view",
      "type": "function",
      "constant": true
    },
    {
      "inputs": [],
      "name": "priceTier0",
      "outputs": [
        {
          "internalType": "uint256",
          "name": "",
          "type": "uint256"
        }
      ],
      "stateMutability": "view",
      "type": "function",
      "constant": true
    },
    {
      "inputs": [],
      "name": "priceTier1",
      "outputs": [
        {
          "internalType": "uint256",
          "name": "",
          "type": "uint256"
        }
      ],
      "stateMutability": "view",
      "type": "function",
      "constant": true
    },
    {
      "inputs": [],
      "name": "priceTier2",
      "outputs": [
        {
          "internalType": "uint256",
          "name": "",
          "type": "uint256"
        }
      ],
      "stateMutability": "view",
      "type": "function",
      "constant": true
    },
    {
      "inputs": [],
      "name": "priceTier3",
      "outputs": [
        {
          "internalType": "uint256",
          "name": "",
          "type": "uint256"
        }
      ],
      "stateMutability": "view",
      "type": "function",
      "constant": true
    },
    {
      "inputs": [],
      "name": "priceTier4",
      "outputs": [
        {
          "internalType": "uint256",
          "name": "",
          "type": "uint256"
        }
      ],
      "stateMutability": "view",
      "type": "function",
      "constant": true
    },
    {
      "inputs": [],
      "name": "renounceOwnership",
      "outputs": [],
      "stateMutability": "nonpayable",
      "type": "function"
    },
    {
      "inputs": [
        {
          "internalType": "address",
          "name": "from",
          "type": "address"
        },
        {
          "internalType": "address",
          "name": "to",
          "type": "address"
        },
        {
          "internalType": "uint256[]",
          "name": "ids",
          "type": "uint256[]"
        },
        {
          "internalType": "uint256[]",
          "name": "amounts",
          "type": "uint256[]"
        },
        {
          "internalType": "bytes",
          "name": "data",
          "type": "bytes"
        }
      ],
      "name": "safeBatchTransferFrom",
      "outputs": [],
      "stateMutability": "nonpayable",
      "type": "function"
    },
    {
      "inputs": [
        {
          "internalType": "address",
          "name": "from",
          "type": "address"
        },
        {
          "internalType": "address",
          "name": "to",
          "type": "address"
        },
        {
          "internalType": "uint256",
          "name": "id",
          "type": "uint256"
        },
        {
          "internalType": "uint256",
          "name": "amount",
          "type": "uint256"
        },
        {
          "internalType": "bytes",
          "name": "data",
          "type": "bytes"
        }
      ],
      "name": "safeTransferFrom",
      "outputs": [],
      "stateMutability": "nonpayable",
      "type": "function"
    },
    {
      "inputs": [
        {
          "internalType": "address",
          "name": "operator",
          "type": "address"
        },
        {
          "internalType": "bool",
          "name": "approved",
          "type": "bool"
        }
      ],
      "name": "setApprovalForAll",
      "outputs": [],
      "stateMutability": "nonpayable",
      "type": "function"
    },
    {
      "inputs": [
        {
          "internalType": "bytes4",
          "name": "interfaceId",
          "type": "bytes4"
        }
      ],
      "name": "supportsInterface",
      "outputs": [
        {
          "internalType": "bool",
          "name": "",
          "type": "bool"
        }
      ],
      "stateMutability": "view",
      "type": "function",
      "constant": true
    },
    {
      "inputs": [],
      "name": "symbol",
      "outputs": [
        {
          "internalType": "string",
          "name": "",
          "type": "string"
        }
      ],
      "stateMutability": "view",
      "type": "function",
      "constant": true
    },
    {
      "inputs": [],
      "name": "tokenSupply",
      "outputs": [
        {
          "internalType": "uint256",
          "name": "",
          "type": "uint256"
        }
      ],
      "stateMutability": "view",
      "type": "function",
      "constant": true
    },
    {
      "inputs": [
        {
          "internalType": "address",
          "name": "newOwner",
          "type": "address"
        }
      ],
      "name": "transferOwnership",
      "outputs": [],
      "stateMutability": "nonpayable",
      "type": "function"
    },
    {
      "inputs": [],
      "name": "unpause",
      "outputs": [],
      "stateMutability": "nonpayable",
      "type": "function"
    },
    {
      "inputs": [
        {
          "internalType": "address",
          "name": "_fastFood",
          "type": "address"
        },
        {
          "internalType": "address",
          "name": "_casualFood",
          "type": "address"
        },
        {
          "internalType": "address",
          "name": "_character",
          "type": "address"
        }
      ],
      "name": "initialize",
      "outputs": [],
      "stateMutability": "nonpayable",
      "type": "function"
    },
    {
      "inputs": [
        {
          "internalType": "uint256[]",
          "name": "_maxTokens",
          "type": "uint256[]"
        },
        {
          "internalType": "uint8",
          "name": "_maxMintsPerTx",
          "type": "uint8"
        },
        {
          "internalType": "uint8[]",
          "name": "_minSkill",
          "type": "uint8[]"
        },
        {
          "internalType": "uint256[]",
          "name": "_prices",
          "type": "uint256[]"
        }
      ],
      "name": "configure",
      "outputs": [],
      "stateMutability": "nonpayable",
      "type": "function"
    },
    {
      "inputs": [
        {
          "internalType": "uint8",
          "name": "kitchen",
          "type": "uint8"
        },
        {
          "internalType": "uint8",
          "name": "amount",
          "type": "uint8"
        }
      ],
      "name": "mint",
      "outputs": [],
      "stateMutability": "payable",
      "type": "function",
      "payable": true
    },
    {
      "inputs": [
        {
          "internalType": "uint8",
          "name": "kitchen",
          "type": "uint8"
        },
        {
          "internalType": "uint256",
          "name": "tokenId",
          "type": "uint256"
        }
      ],
      "name": "mintCost",
      "outputs": [
        {
          "internalType": "uint256",
          "name": "",
          "type": "uint256"
        }
      ],
      "stateMutability": "view",
      "type": "function",
      "constant": true
    },
    {
      "inputs": [
        {
          "internalType": "uint256",
          "name": "tokenId",
          "type": "uint256"
        }
      ],
      "name": "uri",
      "outputs": [
        {
          "internalType": "string",
          "name": "",
          "type": "string"
        }
      ],
      "stateMutability": "view",
      "type": "function",
      "constant": true
    },
    {
      "inputs": [
        {
          "internalType": "uint256",
          "name": "imageIndex",
          "type": "uint256"
        },
        {
          "components": [
            {
              "internalType": "string",
              "name": "name",
              "type": "string"
            },
            {
              "internalType": "string",
              "name": "png",
              "type": "string"
            }
          ],
          "internalType": "struct KitchenShop.KitchenData",
          "name": "kitchen",
          "type": "tuple"
        }
      ],
      "name": "uploadImage",
      "outputs": [],
      "stateMutability": "nonpayable",
      "type": "function"
    }
  ],
  "bytecode": "0x608060405234801561001057600080fd5b50615b1080620000216000396000f3fe6080604052600436106101e25760003560e01c80637d26c78c11610102578063dc30158b11610095578063f1a837d011610064578063f1a837d0146106fb578063f21ec01a14610726578063f242432a14610751578063f2fde38b1461077a576101e2565b8063dc30158b1461062c578063ddeb1aec14610657578063e0683ab814610680578063e985e9c5146106be576101e2565b8063a22cb465116100d1578063a22cb46514610572578063c0c53b8b1461059b578063cc529641146105c4578063d383d9bb14610601576101e2565b80637d26c78c146104dc5780638456cb59146105055780638da5cb5b1461051c57806395d89b4114610547576101e2565b80633e0987f71161017a5780634e1273f4116101495780634e1273f4146104325780635c975abb1461046f578063715018a61461049a5780637824407f146104b1576101e2565b80633e0987f7146103765780633f4ba83a146103b357806346598ab8146103ca5780634d39b65414610407576101e2565b80630e89341c116101b65780630e89341c146102c957806329a0eee8146103065780632e53d474146103225780632eb2c2d61461034d576101e2565b8062fdd58e146101e757806301ffc9a71461022457806306fdde03146102615780630cabd0a61461028c575b600080fd5b3480156101f357600080fd5b5061020e600480360381019061020991906135b5565b6107a3565b60405161021b9190613604565b60405180910390f35b34801561023057600080fd5b5061024b60048036038101906102469190613677565b61086d565b60405161025891906136bf565b60405180910390f35b34801561026d57600080fd5b5061027661094f565b6040516102839190613773565b60405180910390f35b34801561029857600080fd5b506102b360048036038101906102ae91906137ce565b6109dd565b6040516102c09190613604565b60405180910390f35b3480156102d557600080fd5b506102f060048036038101906102eb91906137fb565b6109f6565b6040516102fd9190613773565b60405180910390f35b610320600480360381019061031b9190613828565b610c14565b005b34801561032e57600080fd5b50610337611050565b6040516103449190613604565b60405180910390f35b34801561035957600080fd5b50610374600480360381019061036f9190613a65565b611057565b005b34801561038257600080fd5b5061039d600480360381019061039891906137ce565b6110f8565b6040516103aa9190613604565b60405180910390f35b3480156103bf57600080fd5b506103c8611111565b005b3480156103d657600080fd5b506103f160048036038101906103ec9190613b34565b611197565b6040516103fe9190613604565b60405180910390f35b34801561041357600080fd5b5061041c6112b6565b6040516104299190613604565b60405180910390f35b34801561043e57600080fd5b5061045960048036038101906104549190613c37565b6112bd565b6040516104669190613d6d565b60405180910390f35b34801561047b57600080fd5b506104846113d6565b60405161049191906136bf565b60405180910390f35b3480156104a657600080fd5b506104af6113ed565b005b3480156104bd57600080fd5b506104c6611475565b6040516104d39190613604565b60405180910390f35b3480156104e857600080fd5b5061050360048036038101906104fe9190613db3565b61147c565b005b34801561051157600080fd5b5061051a611606565b005b34801561052857600080fd5b5061053161168c565b60405161053e9190613e1e565b60405180910390f35b34801561055357600080fd5b5061055c6116b6565b6040516105699190613773565b60405180910390f35b34801561057e57600080fd5b5061059960048036038101906105949190613e65565b611744565b005b3480156105a757600080fd5b506105c260048036038101906105bd9190613ea5565b61175a565b005b3480156105d057600080fd5b506105eb60048036038101906105e691906137ce565b6119e8565b6040516105f89190613604565b60405180910390f35b34801561060d57600080fd5b50610616611a01565b6040516106239190613604565b60405180910390f35b34801561063857600080fd5b50610641611a08565b60405161064e9190613f07565b60405180910390f35b34801561066357600080fd5b5061067e60048036038101906106799190613fe5565b611a1c565b005b34801561068c57600080fd5b506106a760048036038101906106a291906137fb565b611c98565b6040516106b59291906140a0565b60405180910390f35b3480156106ca57600080fd5b506106e560048036038101906106e091906140d7565b611dcd565b6040516106f291906136bf565b60405180910390f35b34801561070757600080fd5b50610710611e61565b60405161071d9190613604565b60405180910390f35b34801561073257600080fd5b5061073b611e68565b6040516107489190613604565b60405180910390f35b34801561075d57600080fd5b5061077860048036038101906107739190614117565b611e6f565b005b34801561078657600080fd5b506107a1600480360381019061079c91906141ae565b611f10565b005b60008073ffffffffffffffffffffffffffffffffffffffff168373ffffffffffffffffffffffffffffffffffffffff161415610814576040517f08c379a000000000000000000000000000000000000000000000000000000000815260040161080b9061424d565b60405180910390fd5b60c9600083815260200190815260200160002060008473ffffffffffffffffffffffffffffffffffffffff1673ffffffffffffffffffffffffffffffffffffffff16815260200190815260200160002054905092915050565b60007fd9b67a26000000000000000000000000000000000000000000000000000000007bffffffffffffffffffffffffffffffffffffffffffffffffffffffff1916827bffffffffffffffffffffffffffffffffffffffffffffffffffffffff1916148061093857507f0e89341c000000000000000000000000000000000000000000000000000000007bffffffffffffffffffffffffffffffffffffffffffffffffffffffff1916827bffffffffffffffffffffffffffffffffffffffffffffffffffffffff1916145b80610948575061094782612008565b5b9050919050565b60fe805461095c9061429c565b80601f01602080910402602001604051908101604052809291908181526020018280546109889061429c565b80156109d55780601f106109aa576101008083540402835291602001916109d5565b820191906000526020600020905b8154815290600101906020018083116109b857829003601f168201915b505050505081565b6101096020528060005260406000206000915090505481565b6060600082118015610a09575060028211155b610a48576040517f08c379a0000000000000000000000000000000000000000000000000000000008152600401610a3f90614340565b60405180910390fd5b600061010a6000600185610a5c919061438f565b8152602001908152602001600020604051806040016040529081600082018054610a859061429c565b80601f0160208091040260200160405190810160405280929190818152602001828054610ab19061429c565b8015610afe5780601f10610ad357610100808354040283529160200191610afe565b820191906000526020600020905b815481529060010190602001808311610ae157829003601f168201915b50505050508152602001600182018054610b179061429c565b80601f0160208091040260200160405190810160405280929190818152602001828054610b439061429c565b8015610b905780601f10610b6557610100808354040283529160200191610b90565b820191906000526020600020905b815481529060010190602001808311610b7357829003601f168201915b505050505081525050905060008160000151610bab85612072565b610bc0610bbb85602001516121d3565b6121fc565b604051602001610bd29392919061471d565b6040516020818303038152906040529050610bec816121fc565b604051602001610bfc91906147fd565b60405160208183030381529060405292505050919050565b610c1c6113d6565b15610c5c576040517f08c379a0000000000000000000000000000000000000000000000000000000008152600401610c539061486b565b60405180910390fd5b610c64612381565b73ffffffffffffffffffffffffffffffffffffffff163273ffffffffffffffffffffffffffffffffffffffff1614610cd1576040517f08c379a0000000000000000000000000000000000000000000000000000000008152600401610cc8906148d7565b60405180910390fd5b60008260ff16118015610ce8575060028260ff1611155b610d27576040517f08c379a0000000000000000000000000000000000000000000000000000000008152600401610d1e90614943565b60405180910390fd5b60008160ff16118015610d50575061010660009054906101000a900460ff1660ff168160ff1611155b610d8f576040517f08c379a0000000000000000000000000000000000000000000000000000000008152600401610d86906149af565b60405180910390fd5b61010760008360ff1660ff168152602001908152602001600020548160ff1661010960008560ff1660ff16815260200190815260200160002054610dd391906149cf565b1115610e14576040517f08c379a0000000000000000000000000000000000000000000000000000000008152600401610e0b90614a71565b60405180910390fd5b60003414610e57576040517f08c379a0000000000000000000000000000000000000000000000000000000008152600401610e4e90614add565b60405180910390fd5b6000805b8260ff16811015610eda5761010960008560ff1660ff1681526020019081526020016000206000815480929190610e9190614afd565b9190505550610eba8461010960008760ff1660ff16815260200190815260200160002054611197565b82610ec591906149cf565b91508080610ed290614afd565b915050610e5b565b50610f03610ee6612381565b8460ff168460ff1660405180602001604052806000815250612389565b600081111561104b5760028360ff161415610fb35760fc60009054906101000a900473ffffffffffffffffffffffffffffffffffffffff1673ffffffffffffffffffffffffffffffffffffffff16639dc29fac610f5e612381565b836040518363ffffffff1660e01b8152600401610f7c929190614b46565b600060405180830381600087803b158015610f9657600080fd5b505af1158015610faa573d6000803e3d6000fd5b5050505061104a565b60fb60009054906101000a900473ffffffffffffffffffffffffffffffffffffffff1673ffffffffffffffffffffffffffffffffffffffff16639dc29fac610ff9612381565b836040518363ffffffff1660e01b8152600401611017929190614b46565b600060405180830381600087803b15801561103157600080fd5b505af1158015611045573d6000803e3d6000fd5b505050505b5b505050565b6101025481565b61105f612381565b73ffffffffffffffffffffffffffffffffffffffff168573ffffffffffffffffffffffffffffffffffffffff1614806110a557506110a48561109f612381565b611dcd565b5b6110e4576040517f08c379a00000000000000000000000000000000000000000000000000000000081526004016110db90614be1565b60405180910390fd5b6110f18585858585612520565b5050505050565b6101076020528060005260406000206000915090505481565b611119612381565b73ffffffffffffffffffffffffffffffffffffffff1661113761168c565b73ffffffffffffffffffffffffffffffffffffffff161461118d576040517f08c379a000000000000000000000000000000000000000000000000000000000815260040161118490614c4d565b60405180910390fd5b611195612837565b565b60006005600161010760008660ff1660ff168152602001908152602001600020546111c29190614c6d565b6111cc9190614cf6565b82116111dd576101015490506112b0565b6005600261010760008660ff1660ff168152602001908152602001600020546112069190614c6d565b6112109190614cf6565b8211611221576101025490506112b0565b6005600361010760008660ff1660ff1681526020019081526020016000205461124a9190614c6d565b6112549190614cf6565b8211611265576101035490506112b0565b6005600461010760008660ff1660ff1681526020019081526020016000205461128e9190614c6d565b6112989190614cf6565b82116112a9576101045490506112b0565b6101055490505b92915050565b6101015481565b60608151835114611303576040517f08c379a00000000000000000000000000000000000000000000000000000000081526004016112fa90614d99565b60405180910390fd5b6000835167ffffffffffffffff8111156113205761131f61386d565b5b60405190808252806020026020018201604052801561134e5781602001602082028036833780820191505090505b50905060005b84518110156113cb5761139b85828151811061137357611372614db9565b5b602002602001015185838151811061138e5761138d614db9565b5b60200260200101516107a3565b8282815181106113ae576113ad614db9565b5b602002602001018181525050806113c490614afd565b9050611354565b508091505092915050565b6000606560009054906101000a900460ff16905090565b6113f5612381565b73ffffffffffffffffffffffffffffffffffffffff1661141361168c565b73ffffffffffffffffffffffffffffffffffffffff1614611469576040517f08c379a000000000000000000000000000000000000000000000000000000000815260040161146090614c4d565b60405180910390fd5b61147360006128d9565b565b6101005481565b611484612381565b73ffffffffffffffffffffffffffffffffffffffff166114a261168c565b73ffffffffffffffffffffffffffffffffffffffff16146114f8576040517f08c379a00000000000000000000000000000000000000000000000000000000081526004016114ef90614c4d565b60405180910390fd5b60405180604001604052808280600001906115139190614df7565b8080601f016020809104026020016040519081016040528093929190818152602001838380828437600081840152601f19601f82011690508083019250505050505050815260200182806020019061156b9190614df7565b8080601f016020809104026020016040519081016040528093929190818152602001838380828437600081840152601f19601f8201169050808301925050505050505081525061010a600084815260200190815260200160002060008201518160000190805190602001906115e192919061346a565b5060208201518160010190805190602001906115fe92919061346a565b509050505050565b61160e612381565b73ffffffffffffffffffffffffffffffffffffffff1661162c61168c565b73ffffffffffffffffffffffffffffffffffffffff1614611682576040517f08c379a000000000000000000000000000000000000000000000000000000000815260040161167990614c4d565b60405180910390fd5b61168a61299f565b565b6000603360009054906101000a900473ffffffffffffffffffffffffffffffffffffffff16905090565b60ff80546116c39061429c565b80601f01602080910402602001604051908101604052809291908181526020018280546116ef9061429c565b801561173c5780601f106117115761010080835404028352916020019161173c565b820191906000526020600020905b81548152906001019060200180831161171f57829003601f168201915b505050505081565b61175661174f612381565b8383612a42565b5050565b600060019054906101000a900460ff166117825760008054906101000a900460ff161561178b565b61178a612baf565b5b6117ca576040517f08c379a00000000000000000000000000000000000000000000000000000000081526004016117c190614ecc565b60405180910390fd5b60008060019054906101000a900460ff16159050801561181a576001600060016101000a81548160ff02191690831515021790555060016000806101000a81548160ff0219169083151502179055505b611822612bc0565b61182a612c21565b8360fb60006101000a81548173ffffffffffffffffffffffffffffffffffffffff021916908373ffffffffffffffffffffffffffffffffffffffff1602179055508260fc60006101000a81548173ffffffffffffffffffffffffffffffffffffffff021916908373ffffffffffffffffffffffffffffffffffffffff1602179055508160fd60006101000a81548173ffffffffffffffffffffffffffffffffffffffff021916908373ffffffffffffffffffffffffffffffffffffffff16021790555060006101096000600160ff1681526020019081526020016000208190555060006101096000600260ff168152602001908152602001600020819055506040518060400160405280601181526020017f526174416c657274204b69746368656e7300000000000000000000000000000081525060fe908051906020019061197492919061346a565b506040518060400160405280600a81526020017f52415443554953494e450000000000000000000000000000000000000000000081525060ff90805190602001906119c092919061346a565b5080156119e25760008060016101000a81548160ff0219169083151502179055505b50505050565b6101086020528060005260406000206000915090505481565b6101035481565b61010660009054906101000a900460ff1681565b611a24612381565b73ffffffffffffffffffffffffffffffffffffffff16611a4261168c565b73ffffffffffffffffffffffffffffffffffffffff1614611a98576040517f08c379a0000000000000000000000000000000000000000000000000000000008152600401611a8f90614c4d565b60405180910390fd5b83600081518110611aac57611aab614db9565b5b60200260200101516101076000600160ff1681526020019081526020016000208190555083600181518110611ae457611ae3614db9565b5b60200260200101516101076000600260ff168152602001908152602001600020819055508261010660006101000a81548160ff021916908360ff16021790555081600081518110611b3857611b37614db9565b5b602002602001015160ff166101086000600160ff1681526020019081526020016000208190555081600181518110611b7357611b72614db9565b5b602002602001015160ff166101086000600260ff1681526020019081526020016000208190555080600081518110611bae57611bad614db9565b5b60200260200101516101018190555080600181518110611bd157611bd0614db9565b5b60200260200101516101028190555080600281518110611bf457611bf3614db9565b5b60200260200101516101038190555080600381518110611c1757611c16614db9565b5b60200260200101516101048190555080600481518110611c3a57611c39614db9565b5b60200260200101516101058190555083600181518110611c5d57611c5c614db9565b5b602002602001015184600081518110611c7957611c78614db9565b5b6020026020010151611c8b91906149cf565b6101008190555050505050565b61010a602052806000526040600020600091509050806000018054611cbc9061429c565b80601f0160208091040260200160405190810160405280929190818152602001828054611ce89061429c565b8015611d355780601f10611d0a57610100808354040283529160200191611d35565b820191906000526020600020905b815481529060010190602001808311611d1857829003601f168201915b505050505090806001018054611d4a9061429c565b80601f0160208091040260200160405190810160405280929190818152602001828054611d769061429c565b8015611dc35780601f10611d9857610100808354040283529160200191611dc3565b820191906000526020600020905b815481529060010190602001808311611da657829003601f168201915b5050505050905082565b600060ca60008473ffffffffffffffffffffffffffffffffffffffff1673ffffffffffffffffffffffffffffffffffffffff16815260200190815260200160002060008373ffffffffffffffffffffffffffffffffffffffff1673ffffffffffffffffffffffffffffffffffffffff16815260200190815260200160002060009054906101000a900460ff16905092915050565b6101045481565b6101055481565b611e77612381565b73ffffffffffffffffffffffffffffffffffffffff168573ffffffffffffffffffffffffffffffffffffffff161480611ebd5750611ebc85611eb7612381565b611dcd565b5b611efc576040517f08c379a0000000000000000000000000000000000000000000000000000000008152600401611ef390614f5e565b60405180910390fd5b611f098585858585612c82565b5050505050565b611f18612381565b73ffffffffffffffffffffffffffffffffffffffff16611f3661168c565b73ffffffffffffffffffffffffffffffffffffffff1614611f8c576040517f08c379a0000000000000000000000000000000000000000000000000000000008152600401611f8390614c4d565b60405180910390fd5b600073ffffffffffffffffffffffffffffffffffffffff168173ffffffffffffffffffffffffffffffffffffffff161415611ffc576040517f08c379a0000000000000000000000000000000000000000000000000000000008152600401611ff390614ff0565b60405180910390fd5b612005816128d9565b50565b60007f01ffc9a7000000000000000000000000000000000000000000000000000000007bffffffffffffffffffffffffffffffffffffffffffffffffffffffff1916827bffffffffffffffffffffffffffffffffffffffffffffffffffffffff1916149050919050565b606060008214156120ba576040518060400160405280600181526020017f300000000000000000000000000000000000000000000000000000000000000081525090506121ce565b600082905060005b600082146120ec5780806120d590614afd565b915050600a826120e59190614cf6565b91506120c2565b60008167ffffffffffffffff8111156121085761210761386d565b5b6040519080825280601f01601f19166020018201604052801561213a5781602001600182028036833780820191505090505b5090505b600085146121c757600182612153919061438f565b9150600a856121629190615010565b603061216e91906149cf565b60f81b81838151811061218457612183614db9565b5b60200101907effffffffffffffffffffffffffffffffffffffffffffffffffffffffffffff1916908160001a905350600a856121c09190614cf6565b945061213e565b8093505050505b919050565b6060816040516020016121e691906152e8565b6040516020818303038152906040529050919050565b606060008251141561221f5760405180602001604052806000815250905061237c565b6000604051806060016040528060408152602001615a9b604091399050600060036002855161224e91906149cf565b6122589190614cf6565b60046122649190614c6d565b9050600060208261227591906149cf565b67ffffffffffffffff81111561228e5761228d61386d565b5b6040519080825280601f01601f1916602001820160405280156122c05781602001600182028036833780820191505090505b509050818152600183018586518101602084015b8183101561233b576003830192508251603f8160121c1685015160f81b8252600182019150603f81600c1c1685015160f81b8252600182019150603f8160061c1685015160f81b8252600182019150603f811685015160f81b8252600182019150506122d4565b600389510660018114612355576002811461236557612370565b613d3d60f01b6002830352612370565b603d60f81b60018303525b50505050508093505050505b919050565b600033905090565b600073ffffffffffffffffffffffffffffffffffffffff168473ffffffffffffffffffffffffffffffffffffffff1614156123f9576040517f08c379a00000000000000000000000000000000000000000000000000000000081526004016123f09061539d565b60405180910390fd5b6000612403612381565b90506124248160008761241588612f07565b61241e88612f07565b87612f81565b8260c9600086815260200190815260200160002060008773ffffffffffffffffffffffffffffffffffffffff1673ffffffffffffffffffffffffffffffffffffffff168152602001908152602001600020600082825461248491906149cf565b925050819055508473ffffffffffffffffffffffffffffffffffffffff16600073ffffffffffffffffffffffffffffffffffffffff168273ffffffffffffffffffffffffffffffffffffffff167fc3d58168c5ae7397731d063d5bbf3d657854427343f4c083240f7aacaa2d0f6287876040516125029291906153bd565b60405180910390a461251981600087878787612f89565b5050505050565b8151835114612564576040517f08c379a000000000000000000000000000000000000000000000000000000000815260040161255b90615458565b60405180910390fd5b600073ffffffffffffffffffffffffffffffffffffffff168473ffffffffffffffffffffffffffffffffffffffff1614156125d4576040517f08c379a00000000000000000000000000000000000000000000000000000000081526004016125cb906154ea565b60405180910390fd5b60006125de612381565b90506125ee818787878787612f81565b60005b84518110156127a257600085828151811061260f5761260e614db9565b5b60200260200101519050600085838151811061262e5761262d614db9565b5b60200260200101519050600060c9600084815260200190815260200160002060008b73ffffffffffffffffffffffffffffffffffffffff1673ffffffffffffffffffffffffffffffffffffffff168152602001908152602001600020549050818110156126d0576040517f08c379a00000000000000000000000000000000000000000000000000000000081526004016126c79061557c565b60405180910390fd5b81810360c9600085815260200190815260200160002060008c73ffffffffffffffffffffffffffffffffffffffff1673ffffffffffffffffffffffffffffffffffffffff168152602001908152602001600020819055508160c9600085815260200190815260200160002060008b73ffffffffffffffffffffffffffffffffffffffff1673ffffffffffffffffffffffffffffffffffffffff168152602001908152602001600020600082825461278791906149cf565b925050819055505050508061279b90614afd565b90506125f1565b508473ffffffffffffffffffffffffffffffffffffffff168673ffffffffffffffffffffffffffffffffffffffff168273ffffffffffffffffffffffffffffffffffffffff167f4a39dc06d4c0dbc64b70af90fd698a233a518aa5d07e595d983b8c0526c8f7fb878760405161281992919061559c565b60405180910390a461282f818787878787613161565b505050505050565b61283f6113d6565b61287e576040517f08c379a00000000000000000000000000000000000000000000000000000000081526004016128759061561f565b60405180910390fd5b6000606560006101000a81548160ff0219169083151502179055507f5db9ee0a495bf2e6ff9c91a7834c1ba4fdd244a5e8aa4e537bd38aeae4b073aa6128c2612381565b6040516128cf9190613e1e565b60405180910390a1565b6000603360009054906101000a900473ffffffffffffffffffffffffffffffffffffffff16905081603360006101000a81548173ffffffffffffffffffffffffffffffffffffffff021916908373ffffffffffffffffffffffffffffffffffffffff1602179055508173ffffffffffffffffffffffffffffffffffffffff168173ffffffffffffffffffffffffffffffffffffffff167f8be0079c531659141344cd1fd0a4f28419497f9722a3daafe3b4186f6b6457e060405160405180910390a35050565b6129a76113d6565b156129e7576040517f08c379a00000000000000000000000000000000000000000000000000000000081526004016129de9061486b565b60405180910390fd5b6001606560006101000a81548160ff0219169083151502179055507f62e78cea01bee320cd4e420270b5ea74000d11b0c9f74754ebdbfc544b05a258612a2b612381565b604051612a389190613e1e565b60405180910390a1565b8173ffffffffffffffffffffffffffffffffffffffff168373ffffffffffffffffffffffffffffffffffffffff161415612ab1576040517f08c379a0000000000000000000000000000000000000000000000000000000008152600401612aa8906156b1565b60405180910390fd5b8060ca60008573ffffffffffffffffffffffffffffffffffffffff1673ffffffffffffffffffffffffffffffffffffffff16815260200190815260200160002060008473ffffffffffffffffffffffffffffffffffffffff1673ffffffffffffffffffffffffffffffffffffffff16815260200190815260200160002060006101000a81548160ff0219169083151502179055508173ffffffffffffffffffffffffffffffffffffffff168373ffffffffffffffffffffffffffffffffffffffff167f17307eab39ab6107e8899845ad3d59bd9653f200f220920489ca2b5937696c3183604051612ba291906136bf565b60405180910390a3505050565b6000612bba30613339565b15905090565b600060019054906101000a900460ff16612c0f576040517f08c379a0000000000000000000000000000000000000000000000000000000008152600401612c0690615743565b60405180910390fd5b612c1761334c565b612c1f61339d565b565b600060019054906101000a900460ff16612c70576040517f08c379a0000000000000000000000000000000000000000000000000000000008152600401612c6790615743565b60405180910390fd5b612c7861334c565b612c806133fe565b565b600073ffffffffffffffffffffffffffffffffffffffff168473ffffffffffffffffffffffffffffffffffffffff161415612cf2576040517f08c379a0000000000000000000000000000000000000000000000000000000008152600401612ce9906154ea565b60405180910390fd5b6000612cfc612381565b9050612d1c818787612d0d88612f07565b612d1688612f07565b87612f81565b600060c9600086815260200190815260200160002060008873ffffffffffffffffffffffffffffffffffffffff1673ffffffffffffffffffffffffffffffffffffffff16815260200190815260200160002054905083811015612db4576040517f08c379a0000000000000000000000000000000000000000000000000000000008152600401612dab9061557c565b60405180910390fd5b83810360c9600087815260200190815260200160002060008973ffffffffffffffffffffffffffffffffffffffff1673ffffffffffffffffffffffffffffffffffffffff168152602001908152602001600020819055508360c9600087815260200190815260200160002060008873ffffffffffffffffffffffffffffffffffffffff1673ffffffffffffffffffffffffffffffffffffffff1681526020019081526020016000206000828254612e6b91906149cf565b925050819055508573ffffffffffffffffffffffffffffffffffffffff168773ffffffffffffffffffffffffffffffffffffffff168373ffffffffffffffffffffffffffffffffffffffff167fc3d58168c5ae7397731d063d5bbf3d657854427343f4c083240f7aacaa2d0f628888604051612ee89291906153bd565b60405180910390a4612efe828888888888612f89565b50505050505050565b60606000600167ffffffffffffffff811115612f2657612f2561386d565b5b604051908082528060200260200182016040528015612f545781602001602082028036833780820191505090505b5090508281600081518110612f6c57612f6b614db9565b5b60200260200101818152505080915050919050565b505050505050565b612fa88473ffffffffffffffffffffffffffffffffffffffff16613339565b15613159578373ffffffffffffffffffffffffffffffffffffffff1663f23a6e6187878686866040518663ffffffff1660e01b8152600401612fee9594939291906157ad565b6020604051808303816000875af192505050801561302a57506040513d601f19601f82011682018060405250810190613027919061581c565b60015b6130d057613036615856565b806308c379a01415613093575061304b615878565b806130565750613095565b806040517f08c379a000000000000000000000000000000000000000000000000000000000815260040161308a9190613773565b60405180910390fd5b505b6040517f08c379a00000000000000000000000000000000000000000000000000000000081526004016130c790615980565b60405180910390fd5b63f23a6e6160e01b7bffffffffffffffffffffffffffffffffffffffffffffffffffffffff1916817bffffffffffffffffffffffffffffffffffffffffffffffffffffffff191614613157576040517f08c379a000000000000000000000000000000000000000000000000000000000815260040161314e90615a12565b60405180910390fd5b505b505050505050565b6131808473ffffffffffffffffffffffffffffffffffffffff16613339565b15613331578373ffffffffffffffffffffffffffffffffffffffff1663bc197c8187878686866040518663ffffffff1660e01b81526004016131c6959493929190615a32565b6020604051808303816000875af192505050801561320257506040513d601f19601f820116820180604052508101906131ff919061581c565b60015b6132a85761320e615856565b806308c379a0141561326b5750613223615878565b8061322e575061326d565b806040517f08c379a00000000000000000000000000000000000000000000000000000000081526004016132629190613773565b60405180910390fd5b505b6040517f08c379a000000000000000000000000000000000000000000000000000000000815260040161329f90615980565b60405180910390fd5b63bc197c8160e01b7bffffffffffffffffffffffffffffffffffffffffffffffffffffffff1916817bffffffffffffffffffffffffffffffffffffffffffffffffffffffff19161461332f576040517f08c379a000000000000000000000000000000000000000000000000000000000815260040161332690615a12565b60405180910390fd5b505b505050505050565b600080823b905060008111915050919050565b600060019054906101000a900460ff1661339b576040517f08c379a000000000000000000000000000000000000000000000000000000000815260040161339290615743565b60405180910390fd5b565b600060019054906101000a900460ff166133ec576040517f08c379a00000000000000000000000000000000000000000000000000000000081526004016133e390615743565b60405180910390fd5b6133fc6133f7612381565b6128d9565b565b600060019054906101000a900460ff1661344d576040517f08c379a000000000000000000000000000000000000000000000000000000000815260040161344490615743565b60405180910390fd5b6000606560006101000a81548160ff021916908315150217905550565b8280546134769061429c565b90600052602060002090601f01602090048101928261349857600085556134df565b82601f106134b157805160ff19168380011785556134df565b828001600101855582156134df579182015b828111156134de5782518255916020019190600101906134c3565b5b5090506134ec91906134f0565b5090565b5b808211156135095760008160009055506001016134f1565b5090565b6000604051905090565b600080fd5b600080fd5b600073ffffffffffffffffffffffffffffffffffffffff82169050919050565b600061354c82613521565b9050919050565b61355c81613541565b811461356757600080fd5b50565b60008135905061357981613553565b92915050565b6000819050919050565b6135928161357f565b811461359d57600080fd5b50565b6000813590506135af81613589565b92915050565b600080604083850312156135cc576135cb613517565b5b60006135da8582860161356a565b92505060206135eb858286016135a0565b9150509250929050565b6135fe8161357f565b82525050565b600060208201905061361960008301846135f5565b92915050565b60007fffffffff0000000000000000000000000000000000000000000000000000000082169050919050565b6136548161361f565b811461365f57600080fd5b50565b6000813590506136718161364b565b92915050565b60006020828403121561368d5761368c613517565b5b600061369b84828501613662565b91505092915050565b60008115159050919050565b6136b9816136a4565b82525050565b60006020820190506136d460008301846136b0565b92915050565b600081519050919050565b600082825260208201905092915050565b60005b838110156137145780820151818401526020810190506136f9565b83811115613723576000848401525b50505050565b6000601f19601f8301169050919050565b6000613745826136da565b61374f81856136e5565b935061375f8185602086016136f6565b61376881613729565b840191505092915050565b6000602082019050818103600083015261378d818461373a565b905092915050565b600060ff82169050919050565b6137ab81613795565b81146137b657600080fd5b50565b6000813590506137c8816137a2565b92915050565b6000602082840312156137e4576137e3613517565b5b60006137f2848285016137b9565b91505092915050565b60006020828403121561381157613810613517565b5b600061381f848285016135a0565b91505092915050565b6000806040838503121561383f5761383e613517565b5b600061384d858286016137b9565b925050602061385e858286016137b9565b9150509250929050565b600080fd5b7f4e487b7100000000000000000000000000000000000000000000000000000000600052604160045260246000fd5b6138a582613729565b810181811067ffffffffffffffff821117156138c4576138c361386d565b5b80604052505050565b60006138d761350d565b90506138e3828261389c565b919050565b600067ffffffffffffffff8211156139035761390261386d565b5b602082029050602081019050919050565b600080fd5b600061392c613927846138e8565b6138cd565b9050808382526020820190506020840283018581111561394f5761394e613914565b5b835b81811015613978578061396488826135a0565b845260208401935050602081019050613951565b5050509392505050565b600082601f83011261399757613996613868565b5b81356139a7848260208601613919565b91505092915050565b600080fd5b600067ffffffffffffffff8211156139d0576139cf61386d565b5b6139d982613729565b9050602081019050919050565b82818337600083830152505050565b6000613a08613a03846139b5565b6138cd565b905082815260208101848484011115613a2457613a236139b0565b5b613a2f8482856139e6565b509392505050565b600082601f830112613a4c57613a4b613868565b5b8135613a5c8482602086016139f5565b91505092915050565b600080600080600060a08688031215613a8157613a80613517565b5b6000613a8f8882890161356a565b9550506020613aa08882890161356a565b945050604086013567ffffffffffffffff811115613ac157613ac061351c565b5b613acd88828901613982565b935050606086013567ffffffffffffffff811115613aee57613aed61351c565b5b613afa88828901613982565b925050608086013567ffffffffffffffff811115613b1b57613b1a61351c565b5b613b2788828901613a37565b9150509295509295909350565b60008060408385031215613b4b57613b4a613517565b5b6000613b59858286016137b9565b9250506020613b6a858286016135a0565b9150509250929050565b600067ffffffffffffffff821115613b8f57613b8e61386d565b5b602082029050602081019050919050565b6000613bb3613bae84613b74565b6138cd565b90508083825260208201905060208402830185811115613bd657613bd5613914565b5b835b81811015613bff5780613beb888261356a565b845260208401935050602081019050613bd8565b5050509392505050565b600082601f830112613c1e57613c1d613868565b5b8135613c2e848260208601613ba0565b91505092915050565b60008060408385031215613c4e57613c4d613517565b5b600083013567ffffffffffffffff811115613c6c57613c6b61351c565b5b613c7885828601613c09565b925050602083013567ffffffffffffffff811115613c9957613c9861351c565b5b613ca585828601613982565b9150509250929050565b600081519050919050565b600082825260208201905092915050565b6000819050602082019050919050565b613ce48161357f565b82525050565b6000613cf68383613cdb565b60208301905092915050565b6000602082019050919050565b6000613d1a82613caf565b613d248185613cba565b9350613d2f83613ccb565b8060005b83811015613d60578151613d478882613cea565b9750613d5283613d02565b925050600181019050613d33565b5085935050505092915050565b60006020820190508181036000830152613d878184613d0f565b905092915050565b600080fd5b600060408284031215613daa57613da9613d8f565b5b81905092915050565b60008060408385031215613dca57613dc9613517565b5b6000613dd8858286016135a0565b925050602083013567ffffffffffffffff811115613df957613df861351c565b5b613e0585828601613d94565b9150509250929050565b613e1881613541565b82525050565b6000602082019050613e336000830184613e0f565b92915050565b613e42816136a4565b8114613e4d57600080fd5b50565b600081359050613e5f81613e39565b92915050565b60008060408385031215613e7c57613e7b613517565b5b6000613e8a8582860161356a565b9250506020613e9b85828601613e50565b9150509250929050565b600080600060608486031215613ebe57613ebd613517565b5b6000613ecc8682870161356a565b9350506020613edd8682870161356a565b9250506040613eee8682870161356a565b9150509250925092565b613f0181613795565b82525050565b6000602082019050613f1c6000830184613ef8565b92915050565b600067ffffffffffffffff821115613f3d57613f3c61386d565b5b602082029050602081019050919050565b6000613f61613f5c84613f22565b6138cd565b90508083825260208201905060208402830185811115613f8457613f83613914565b5b835b81811015613fad5780613f9988826137b9565b845260208401935050602081019050613f86565b5050509392505050565b600082601f830112613fcc57613fcb613868565b5b8135613fdc848260208601613f4e565b91505092915050565b60008060008060808587031215613fff57613ffe613517565b5b600085013567ffffffffffffffff81111561401d5761401c61351c565b5b61402987828801613982565b945050602061403a878288016137b9565b935050604085013567ffffffffffffffff81111561405b5761405a61351c565b5b61406787828801613fb7565b925050606085013567ffffffffffffffff8111156140885761408761351c565b5b61409487828801613982565b91505092959194509250565b600060408201905081810360008301526140ba818561373a565b905081810360208301526140ce818461373a565b90509392505050565b600080604083850312156140ee576140ed613517565b5b60006140fc8582860161356a565b925050602061410d8582860161356a565b9150509250929050565b600080600080600060a0868803121561413357614132613517565b5b60006141418882890161356a565b95505060206141528882890161356a565b9450506040614163888289016135a0565b9350506060614174888289016135a0565b925050608086013567ffffffffffffffff8111156141955761419461351c565b5b6141a188828901613a37565b9150509295509295909350565b6000602082840312156141c4576141c3613517565b5b60006141d28482850161356a565b91505092915050565b7f455243313135353a2062616c616e636520717565727920666f7220746865207a60008201527f65726f2061646472657373000000000000000000000000000000000000000000602082015250565b6000614237602b836136e5565b9150614242826141db565b604082019050919050565b600060208201905081810360008301526142668161422a565b9050919050565b7f4e487b7100000000000000000000000000000000000000000000000000000000600052602260045260246000fd5b600060028204905060018216806142b457607f821691505b602082108114156142c8576142c761426d565b5b50919050565b7f455243313135354d657461646174613a2055524920717565727920666f72206e60008201527f6f6e2d6578697374656e7420746f6b656e000000000000000000000000000000602082015250565b600061432a6031836136e5565b9150614335826142ce565b604082019050919050565b600060208201905081810360008301526143598161431d565b9050919050565b7f4e487b7100000000000000000000000000000000000000000000000000000000600052601160045260246000fd5b600061439a8261357f565b91506143a58361357f565b9250828210156143b8576143b7614360565b5b828203905092915050565b600081905092915050565b7f7b00000000000000000000000000000000000000000000000000000000000000600082015250565b60006144046001836143c3565b915061440f826143ce565b600182019050919050565b7f226e616d65223a22000000000000000000000000000000000000000000000000600082015250565b60006144506008836143c3565b915061445b8261441a565b600882019050919050565b6000614471826136da565b61447b81856143c3565b935061448b8185602086016136f6565b80840191505092915050565b7f222c000000000000000000000000000000000000000000000000000000000000600082015250565b60006144cd6002836143c3565b91506144d882614497565b600282019050919050565b7f226465736372697074696f6e223a22526174416c6572742c20746865204e465460008201527f2067616d652074686174206c65747320796f7520547261696e324561726e207960208201527f6f75722063686172616374657273206f6e2d636861696e20666f72206869676860408201527f65722072657761726473212068747470733a2f2f726174616c6572742e636f6d60608201527f2f222c0000000000000000000000000000000000000000000000000000000000608082015250565b60006145b16083836143c3565b91506145bc826144e3565b608382019050919050565b7f2265787465726e616c5f75726c223a2268747470733a2f2f726174616c65727460008201527f2e636f6d2f6b69746368656e732f000000000000000000000000000000000000602082015250565b6000614623602e836143c3565b915061462e826145c7565b602e82019050919050565b7f22696d616765223a22646174613a696d6167652f706e673b6261736536342c00600082015250565b600061466f601f836143c3565b915061467a82614639565b601f82019050919050565b7f2200000000000000000000000000000000000000000000000000000000000000600082015250565b60006146bb6001836143c3565b91506146c682614685565b600182019050919050565b7f7d00000000000000000000000000000000000000000000000000000000000000600082015250565b60006147076001836143c3565b9150614712826146d1565b600182019050919050565b6000614728826143f7565b915061473382614443565b915061473f8286614466565b915061474a826144c0565b9150614755826145a4565b915061476082614616565b915061476c8285614466565b9150614777826144c0565b915061478282614662565b915061478e8284614466565b9150614799826146ae565b91506147a4826146fa565b9150819050949350505050565b7f646174613a6170706c69636174696f6e2f6a736f6e3b6261736536342c000000600082015250565b60006147e7601d836143c3565b91506147f2826147b1565b601d82019050919050565b6000614808826147da565b91506148148284614466565b915081905092915050565b7f5061757361626c653a2070617573656400000000000000000000000000000000600082015250565b60006148556010836136e5565b91506148608261481f565b602082019050919050565b6000602082019050818103600083015261488481614848565b9050919050565b7f454f41206f6e6c79000000000000000000000000000000000000000000000000600082015250565b60006148c16008836136e5565b91506148cc8261488b565b602082019050919050565b600060208201905081810360008301526148f0816148b4565b9050919050565b7f496e76616c6964206b69746368656e0000000000000000000000000000000000600082015250565b600061492d600f836136e5565b9150614938826148f7565b602082019050919050565b6000602082019050818103600083015261495c81614920565b9050919050565b7f496e76616c6964206d696e7420616d6f756e7400000000000000000000000000600082015250565b60006149996013836136e5565b91506149a482614963565b602082019050919050565b600060208201905081810360008301526149c88161498c565b9050919050565b60006149da8261357f565b91506149e58361357f565b9250827fffffffffffffffffffffffffffffffffffffffffffffffffffffffffffffffff03821115614a1a57614a19614360565b5b828201905092915050565b7f416c6c20746f6b656e73206d696e746564000000000000000000000000000000600082015250565b6000614a5b6011836136e5565b9150614a6682614a25565b602082019050919050565b60006020820190508181036000830152614a8a81614a4e565b9050919050565b7f496e76616c6964207061796d656e742074797065000000000000000000000000600082015250565b6000614ac76014836136e5565b9150614ad282614a91565b602082019050919050565b60006020820190508181036000830152614af681614aba565b9050919050565b6000614b088261357f565b91507fffffffffffffffffffffffffffffffffffffffffffffffffffffffffffffffff821415614b3b57614b3a614360565b5b600182019050919050565b6000604082019050614b5b6000830185613e0f565b614b6860208301846135f5565b9392505050565b7f455243313135353a207472616e736665722063616c6c6572206973206e6f742060008201527f6f776e6572206e6f7220617070726f7665640000000000000000000000000000602082015250565b6000614bcb6032836136e5565b9150614bd682614b6f565b604082019050919050565b60006020820190508181036000830152614bfa81614bbe565b9050919050565b7f4f776e61626c653a2063616c6c6572206973206e6f7420746865206f776e6572600082015250565b6000614c376020836136e5565b9150614c4282614c01565b602082019050919050565b60006020820190508181036000830152614c6681614c2a565b9050919050565b6000614c788261357f565b9150614c838361357f565b9250817fffffffffffffffffffffffffffffffffffffffffffffffffffffffffffffffff0483118215151615614cbc57614cbb614360565b5b828202905092915050565b7f4e487b7100000000000000000000000000000000000000000000000000000000600052601260045260246000fd5b6000614d018261357f565b9150614d0c8361357f565b925082614d1c57614d1b614cc7565b5b828204905092915050565b7f455243313135353a206163636f756e747320616e6420696473206c656e67746860008201527f206d69736d617463680000000000000000000000000000000000000000000000602082015250565b6000614d836029836136e5565b9150614d8e82614d27565b604082019050919050565b60006020820190508181036000830152614db281614d76565b9050919050565b7f4e487b7100000000000000000000000000000000000000000000000000000000600052603260045260246000fd5b600080fd5b600080fd5b600080fd5b60008083356001602003843603038112614e1457614e13614de8565b5b80840192508235915067ffffffffffffffff821115614e3657614e35614ded565b5b602083019250600182023603831315614e5257614e51614df2565b5b509250929050565b7f496e697469616c697a61626c653a20636f6e747261637420697320616c72656160008201527f647920696e697469616c697a6564000000000000000000000000000000000000602082015250565b6000614eb6602e836136e5565b9150614ec182614e5a565b604082019050919050565b60006020820190508181036000830152614ee581614ea9565b9050919050565b7f455243313135353a2063616c6c6572206973206e6f74206f776e6572206e6f7260008201527f20617070726f7665640000000000000000000000000000000000000000000000602082015250565b6000614f486029836136e5565b9150614f5382614eec565b604082019050919050565b60006020820190508181036000830152614f7781614f3b565b9050919050565b7f4f776e61626c653a206e6577206f776e657220697320746865207a65726f206160008201527f6464726573730000000000000000000000000000000000000000000000000000602082015250565b6000614fda6026836136e5565b9150614fe582614f7e565b604082019050919050565b6000602082019050818103600083015261500981614fcd565b9050919050565b600061501b8261357f565b91506150268361357f565b92508261503657615035614cc7565b5b828206905092915050565b7f3c7376672069643d226b69746368656e222077696474683d223130302522206860008201527f65696768743d2231303025222076657273696f6e3d22312e312220766965774260208201527f6f783d2230203020313030203130302220786d6c6e733d22687474703a2f2f7760408201527f77772e77332e6f72672f323030302f7376672220786d6c6e733a786c696e6b3d60608201527f22687474703a2f2f7777772e77332e6f72672f313939392f786c696e6b223e00608082015250565b600061510f609f836143c3565b915061511a82615041565b609f82019050919050565b7f3c696d61676520783d22302220793d2230222077696474683d2231303022206860008201527f65696768743d223130302220696d6167652d72656e646572696e673d2270697860208201527f656c6174656422207072657365727665417370656374526174696f3d22784d6960408201527f64594d69642220786c696e6b3a687265663d22646174613a696d6167652f706e60608201527f673b6261736536342c0000000000000000000000000000000000000000000000608082015250565b60006151f36089836143c3565b91506151fe82615125565b608982019050919050565b600081519050919050565b600081905092915050565b600061522a82615209565b6152348185615214565b93506152448185602086016136f6565b80840191505092915050565b7f222f3e0000000000000000000000000000000000000000000000000000000000600082015250565b60006152866003836143c3565b915061529182615250565b600382019050919050565b7f3c2f7376673e0000000000000000000000000000000000000000000000000000600082015250565b60006152d26006836143c3565b91506152dd8261529c565b600682019050919050565b60006152f382615102565b91506152fe826151e6565b915061530a828461521f565b915061531582615279565b9150615320826152c5565b915081905092915050565b7f455243313135353a206d696e7420746f20746865207a65726f2061646472657360008201527f7300000000000000000000000000000000000000000000000000000000000000602082015250565b60006153876021836136e5565b91506153928261532b565b604082019050919050565b600060208201905081810360008301526153b68161537a565b9050919050565b60006040820190506153d260008301856135f5565b6153df60208301846135f5565b9392505050565b7f455243313135353a2069647320616e6420616d6f756e7473206c656e6774682060008201527f6d69736d61746368000000000000000000000000000000000000000000000000602082015250565b60006154426028836136e5565b915061544d826153e6565b604082019050919050565b6000602082019050818103600083015261547181615435565b9050919050565b7f455243313135353a207472616e7366657220746f20746865207a65726f20616460008201527f6472657373000000000000000000000000000000000000000000000000000000602082015250565b60006154d46025836136e5565b91506154df82615478565b604082019050919050565b60006020820190508181036000830152615503816154c7565b9050919050565b7f455243313135353a20696e73756666696369656e742062616c616e636520666f60008201527f72207472616e7366657200000000000000000000000000000000000000000000602082015250565b6000615566602a836136e5565b91506155718261550a565b604082019050919050565b6000602082019050818103600083015261559581615559565b9050919050565b600060408201905081810360008301526155b68185613d0f565b905081810360208301526155ca8184613d0f565b90509392505050565b7f5061757361626c653a206e6f7420706175736564000000000000000000000000600082015250565b60006156096014836136e5565b9150615614826155d3565b602082019050919050565b60006020820190508181036000830152615638816155fc565b9050919050565b7f455243313135353a2073657474696e6720617070726f76616c2073746174757360008201527f20666f722073656c660000000000000000000000000000000000000000000000602082015250565b600061569b6029836136e5565b91506156a68261563f565b604082019050919050565b600060208201905081810360008301526156ca8161568e565b9050919050565b7f496e697469616c697a61626c653a20636f6e7472616374206973206e6f74206960008201527f6e697469616c697a696e67000000000000000000000000000000000000000000602082015250565b600061572d602b836136e5565b9150615738826156d1565b604082019050919050565b6000602082019050818103600083015261575c81615720565b9050919050565b600082825260208201905092915050565b600061577f82615209565b6157898185615763565b93506157998185602086016136f6565b6157a281613729565b840191505092915050565b600060a0820190506157c26000830188613e0f565b6157cf6020830187613e0f565b6157dc60408301866135f5565b6157e960608301856135f5565b81810360808301526157fb8184615774565b90509695505050505050565b6000815190506158168161364b565b92915050565b60006020828403121561583257615831613517565b5b600061584084828501615807565b91505092915050565b60008160e01c9050919050565b600060033d11156158755760046000803e615872600051615849565b90505b90565b600060443d10156158885761590b565b61589061350d565b60043d036004823e80513d602482011167ffffffffffffffff821117156158b857505061590b565b808201805167ffffffffffffffff8111156158d6575050505061590b565b80602083010160043d0385018111156158f357505050505061590b565b6159028260200185018661389c565b82955050505050505b90565b7f455243313135353a207472616e7366657220746f206e6f6e204552433131353560008201527f526563656976657220696d706c656d656e746572000000000000000000000000602082015250565b600061596a6034836136e5565b91506159758261590e565b604082019050919050565b600060208201905081810360008301526159998161595d565b9050919050565b7f455243313135353a204552433131353552656365697665722072656a6563746560008201527f6420746f6b656e73000000000000000000000000000000000000000000000000602082015250565b60006159fc6028836136e5565b9150615a07826159a0565b604082019050919050565b60006020820190508181036000830152615a2b816159ef565b9050919050565b600060a082019050615a476000830188613e0f565b615a546020830187613e0f565b8181036040830152615a668186613d0f565b90508181036060830152615a7a8185613d0f565b90508181036080830152615a8e8184615774565b9050969550505050505056fe4142434445464748494a4b4c4d4e4f505152535455565758595a6162636465666768696a6b6c6d6e6f707172737475767778797a303132333435363738392b2fa264697066735822122044ca56e25cda5178db51783d21cba7996f77be5edcc8db8841dbad52fdbad69464736f6c634300080a0033",
  "immutableReferences": {},
  "source": "// SPDX-License-Identifier: MIT\n\npragma solidity ^0.8.0;\n\nimport \"@openzeppelin/contracts-upgradeable/proxy/utils/Initializable.sol\";\nimport \"@openzeppelin/contracts-upgradeable/access/OwnableUpgradeable.sol\";\nimport \"@openzeppelin/contracts-upgradeable/token/ERC1155/ERC1155Upgradeable.sol\";\nimport \"@openzeppelin/contracts/utils/Strings.sol\";\nimport \"./GenericPausable.sol\";\nimport \"./FastFood.sol\";\nimport \"./CasualFood.sol\";\nimport \"./Character.sol\";\n\ncontract KitchenShop is Initializable, OwnableUpgradeable, GenericPausable, ERC1155Upgradeable {\n  using Strings for uint256;\n\n  struct KitchenData { // Struct to store each kitchen's metadata\n    string name;\n    string png;\n  }\n\n  FastFood fastFood; // Reference to the $FFOOD contract\n  CasualFood casualFood; // Reference to the $CFOOD contract\n  Character character; // Reference to the Character contract\n\n  string public name;\n  string public symbol;\n  uint256 public tokenSupply;\n  uint256 public priceTier0;\n  uint256 public priceTier1;\n  uint256 public priceTier2;\n  uint256 public priceTier3;\n  uint256 public priceTier4;\n  uint8 public maxMintsPerTx; // Maximum number of tokens that can be minted in a single tx\n  mapping (uint8 => uint256) public maxTokens;\n  mapping (uint8 => uint256) public minSkill;\n  mapping (uint8 => uint256) public minted;\n  mapping(uint256 => KitchenData) public kitchenData; // Storage of each kitchen's metadata\n\n  function initialize(address _fastFood, address _casualFood, address _character) external initializer {\n    __Ownable_init();\n    __Pausable_init();\n\n    fastFood = FastFood(_fastFood);\n    casualFood = CasualFood(_casualFood);\n    character = Character(_character);\n    minted[1] = 0;\n    minted[2] = 0;\n\n    name = \"RatAlert Kitchens\";\n    symbol = \"RATCUISINE\";\n  }\n\n  /**\n   * Allows DAO to update game parameters\n   */\n  function configure(\n    uint256[] memory _maxTokens,\n    uint8 _maxMintsPerTx,\n    uint8[] memory _minSkill,\n    uint256[] memory _prices\n  ) external onlyOwner {\n    maxTokens[1] = _maxTokens[0];\n    maxTokens[2] = _maxTokens[1];\n    maxMintsPerTx = _maxMintsPerTx;\n    minSkill[1] = _minSkill[0];\n    minSkill[2] = _minSkill[1];\n    priceTier0 = _prices[0];\n    priceTier1 = _prices[1];\n    priceTier2 = _prices[2];\n    priceTier3 = _prices[3];\n    priceTier4 = _prices[4];\n    tokenSupply = _maxTokens[0] + _maxTokens[1];\n  }\n\n  /**\n   * Mints new ERC1155 token(s) of the given kitchen type\n   * @param kitchen - The kitchen type\n   * @param amount - Number of tokens to mint\n   */\n  function mint(uint8 kitchen, uint8 amount) external payable whenNotPaused {\n    require(tx.origin == _msgSender(), \"EOA only\");\n    require(kitchen > 0 && kitchen <= 2, \"Invalid kitchen\");\n    require(amount > 0 && amount <= maxMintsPerTx, \"Invalid mint amount\");\n    require(minted[kitchen] + amount <= maxTokens[kitchen], \"All tokens minted\");\n    require(msg.value == 0, \"Invalid payment type\");\n\n    uint256 totalCost = 0;\n    for (uint i = 0; i < amount; i++) {\n      minted[kitchen] ++;\n      totalCost += mintCost(kitchen, minted[kitchen]);\n    }\n    _mint(_msgSender(), kitchen, amount, \"\");\n    if (totalCost > 0) {\n      if (kitchen == 2) {\n        casualFood.burn(_msgSender(), totalCost);\n      } else {\n        fastFood.burn(_msgSender(), totalCost);\n      }\n    }\n  }\n\n  /**\n   * Returns the latest mint price for the given token using 5 price breaks\n   * @param kitchen - The kitchen type\n   * @param tokenId - The token ID to check\n   * @return The minting cost of the given ID\n   */\n  function mintCost(uint8 kitchen, uint256 tokenId) public view returns (uint256) {\n    if (tokenId <= maxTokens[kitchen] * 1 / 5) return priceTier0;\n    if (tokenId <= maxTokens[kitchen] * 2 / 5) return priceTier1;\n    if (tokenId <= maxTokens[kitchen] * 3 / 5) return priceTier2;\n    if (tokenId <= maxTokens[kitchen] * 4 / 5) return priceTier3;\n    return priceTier4;\n  }\n\n  /**\n   * Returns the base64 encoded ERC1155 metadata\n   * @param tokenId - The ID of the Kitchen\n   * @return base64 encoded JSON string\n   */\n  function uri(uint256 tokenId) public view override returns (string memory) {\n    require(tokenId > 0 && tokenId <= 2, \"ERC1155Metadata: URI query for non-existent token\");\n    KitchenData memory kitchen = kitchenData[tokenId - 1];\n\n    string memory metadata = string(abi.encodePacked(\n      '{',\n        '\"name\":\"', kitchen.name, '\",',\n        '\"description\":\"RatAlert, the NFT game that lets you Train2Earn your characters on-chain for higher rewards! https://ratalert.com/\",',\n        '\"external_url\":\"https://ratalert.com/kitchens/', tokenId.toString(), '\",',\n        '\"image\":\"data:image/png;base64,', base64(bytes(drawSVG(bytes(kitchen.png)))), '\"',\n      '}'\n    ));\n\n    return string(abi.encodePacked(\"data:application/json;base64,\", base64(bytes(metadata))));\n  }\n\n  /**\n   * Generates an SVG by composing kitchen PNG, this has better OpenSea support\n   * @param png - The png to add\n   * @return A valid SVG string of the kitchen\n   */\n  function drawSVG(bytes memory png) private pure returns (string memory) {\n    return string(abi.encodePacked(\n        '<svg id=\"kitchen\" width=\"100%\" height=\"100%\" version=\"1.1\" viewBox=\"0 0 100 100\" xmlns=\"http://www.w3.org/2000/svg\" xmlns:xlink=\"http://www.w3.org/1999/xlink\">',\n          '<image x=\"0\" y=\"0\" width=\"100\" height=\"100\" image-rendering=\"pixelated\" preserveAspectRatio=\"xMidYMid\" xlink:href=\"data:image/png;base64,',\n            png,\n          '\"/>',\n        \"</svg>\"\n      ));\n  }\n\n  /**\n   * Used by admin to upload the kitchen images\n   * @param imageIndex - The index at which to upload the image\n   * @param kitchen - The base64 encoded PNG for that kitchen\n   */\n  function uploadImage(uint256 imageIndex, KitchenData calldata kitchen) external onlyOwner {\n    kitchenData[imageIndex] = KitchenData(\n      kitchen.name,\n      kitchen.png\n    );\n  }\n\n  /**\n   * base64 implementation - Written by Brech Devos\n   */\n  string internal constant TABLE = 'ABCDEFGHIJKLMNOPQRSTUVWXYZabcdefghijklmnopqrstuvwxyz0123456789+/';\n  function base64(bytes memory data) internal pure returns (string memory) {\n    if (data.length == 0) return '';\n    string memory table = TABLE; // load the table into memory\n    uint256 encodedLen = 4 * ((data.length + 2) / 3); // multiply by 4/3 rounded up\n    string memory result = new string(encodedLen + 32); // add some extra buffer at the end required for the writing\n    assembly {\n      mstore(result, encodedLen) // set the actual output length\n      let tablePtr := add(table, 1) // prepare the lookup table\n      let dataPtr := data // input ptr\n      let endPtr := add(dataPtr, mload(data))\n      let resultPtr := add(result, 32) // result ptr, jump over length\n      for {} lt(dataPtr, endPtr) {} // run over the input, 3 bytes at a time\n      {\n        dataPtr := add(dataPtr, 3)\n        let input := mload(dataPtr) // read 3 bytes\n        // write 4 characters\n        mstore(resultPtr, shl(248, mload(add(tablePtr, and(shr(18, input), 0x3F)))))\n        resultPtr := add(resultPtr, 1)\n        mstore(resultPtr, shl(248, mload(add(tablePtr, and(shr(12, input), 0x3F)))))\n        resultPtr := add(resultPtr, 1)\n        mstore(resultPtr, shl(248, mload(add(tablePtr, and(shr( 6, input), 0x3F)))))\n        resultPtr := add(resultPtr, 1)\n        mstore(resultPtr, shl(248, mload(add(tablePtr, and(        input,  0x3F)))))\n        resultPtr := add(resultPtr, 1)\n      }\n      // padding with '='\n      switch mod(mload(data), 3)\n      case 1 { mstore(sub(resultPtr, 2), shl(240, 0x3d3d)) }\n      case 2 { mstore(sub(resultPtr, 1), shl(248, 0x3d)) }\n    }\n    return result;\n  }\n}\n",
  "sourcePath": "/Users/chris/workspace/ratalert/ratalert-contracts/contracts/KitchenShop.sol",
  "compiler": {
    "name": "solc",
    "version": "0.8.10+commit.fc410830.Emscripten.clang"
  },
  "schemaVersion": "3.4.6",
  "updatedAt": "2022-03-29T21:46:41.941Z",
  "networkType": "ethereum",
  "devdoc": {
    "kind": "dev",
    "methods": {
      "balanceOf(address,uint256)": {
        "details": "See {IERC1155-balanceOf}. Requirements: - `account` cannot be the zero address."
      },
      "balanceOfBatch(address[],uint256[])": {
        "details": "See {IERC1155-balanceOfBatch}. Requirements: - `accounts` and `ids` must have the same length."
      },
      "isApprovedForAll(address,address)": {
        "details": "See {IERC1155-isApprovedForAll}."
      },
      "mint(uint8,uint8)": {
        "params": {
          "amount": "- Number of tokens to mint",
          "kitchen": "- The kitchen type"
        }
      },
      "mintCost(uint8,uint256)": {
        "params": {
          "kitchen": "- The kitchen type",
          "tokenId": "- The token ID to check"
        },
        "returns": {
          "_0": "The minting cost of the given ID"
        }
      },
      "owner()": {
        "details": "Returns the address of the current owner."
      },
      "paused()": {
        "details": "Returns true if the contract is paused, and false otherwise."
      },
      "renounceOwnership()": {
        "details": "Leaves the contract without owner. It will not be possible to call `onlyOwner` functions anymore. Can only be called by the current owner. NOTE: Renouncing ownership will leave the contract without an owner, thereby removing any functionality that is only available to the owner."
      },
      "safeBatchTransferFrom(address,address,uint256[],uint256[],bytes)": {
        "details": "See {IERC1155-safeBatchTransferFrom}."
      },
      "safeTransferFrom(address,address,uint256,uint256,bytes)": {
        "details": "See {IERC1155-safeTransferFrom}."
      },
      "setApprovalForAll(address,bool)": {
        "details": "See {IERC1155-setApprovalForAll}."
      },
      "supportsInterface(bytes4)": {
        "details": "See {IERC165-supportsInterface}."
      },
      "transferOwnership(address)": {
        "details": "Transfers ownership of the contract to a new account (`newOwner`). Can only be called by the current owner."
      },
      "uploadImage(uint256,(string,string))": {
        "params": {
          "imageIndex": "- The index at which to upload the image",
          "kitchen": "- The base64 encoded PNG for that kitchen"
        }
      },
      "uri(uint256)": {
        "params": {
          "tokenId": "- The ID of the Kitchen"
        },
        "returns": {
          "_0": "base64 encoded JSON string"
        }
      }
    },
    "version": 1
  },
  "userdoc": {
    "kind": "user",
    "methods": {
      "configure(uint256[],uint8,uint8[],uint256[])": {
        "notice": "Allows DAO to update game parameters"
      },
      "mint(uint8,uint8)": {
        "notice": "Mints new ERC1155 token(s) of the given kitchen type"
      },
      "mintCost(uint8,uint256)": {
        "notice": "Returns the latest mint price for the given token using 5 price breaks"
      },
      "uploadImage(uint256,(string,string))": {
        "notice": "Used by admin to upload the kitchen images"
      },
      "uri(uint256)": {
        "notice": "Returns the base64 encoded ERC1155 metadata"
      }
    },
    "version": 1
  }
}