{
  "contractName": "KitchenPackTest",
  "abi": [
    {
      "anonymous": false,
      "inputs": [
        {
          "indexed": false,
          "internalType": "uint256",
          "name": "tokenId",
          "type": "uint256"
        },
        {
          "indexed": false,
          "internalType": "uint256",
          "name": "earned",
          "type": "uint256"
        },
        {
          "indexed": false,
          "internalType": "bool",
          "name": "unstaked",
          "type": "bool"
        },
        {
          "indexed": false,
          "internalType": "uint8",
          "name": "skill",
          "type": "uint8"
        },
        {
          "indexed": false,
          "internalType": "uint8",
          "name": "insanity",
          "type": "uint8"
        }
      ],
      "name": "ChefClaimed",
      "type": "event"
    },
    {
      "anonymous": false,
      "inputs": [
        {
          "indexed": true,
          "internalType": "address",
          "name": "previousOwner",
          "type": "address"
        },
        {
          "indexed": true,
          "internalType": "address",
          "name": "newOwner",
          "type": "address"
        }
      ],
      "name": "OwnershipTransferred",
      "type": "event"
    },
    {
      "anonymous": false,
      "inputs": [
        {
          "indexed": false,
          "internalType": "address",
          "name": "account",
          "type": "address"
        }
      ],
      "name": "Paused",
      "type": "event"
    },
    {
      "anonymous": false,
      "inputs": [
        {
          "indexed": false,
          "internalType": "uint256",
          "name": "tokenId",
          "type": "uint256"
        },
        {
          "indexed": false,
          "internalType": "uint256",
          "name": "earned",
          "type": "uint256"
        },
        {
          "indexed": false,
          "internalType": "bool",
          "name": "unstaked",
          "type": "bool"
        },
        {
          "indexed": false,
          "internalType": "uint8",
          "name": "intelligence",
          "type": "uint8"
        },
        {
          "indexed": false,
          "internalType": "uint8",
          "name": "fatness",
          "type": "uint8"
        }
      ],
      "name": "RatClaimed",
      "type": "event"
    },
    {
      "anonymous": false,
      "inputs": [
        {
          "indexed": false,
          "internalType": "uint256",
          "name": "tokenId",
          "type": "uint256"
        },
        {
          "indexed": false,
          "internalType": "address",
          "name": "owner",
          "type": "address"
        },
        {
          "indexed": false,
          "internalType": "uint256",
          "name": "value",
          "type": "uint256"
        }
      ],
      "name": "TokenStaked",
      "type": "event"
    },
    {
      "anonymous": false,
      "inputs": [
        {
          "indexed": false,
          "internalType": "address",
          "name": "account",
          "type": "address"
        }
      ],
      "name": "Unpaused",
      "type": "event"
    },
    {
      "inputs": [],
      "name": "DAILY_FATNESS_RATE",
      "outputs": [
        {
          "internalType": "uint8",
          "name": "",
          "type": "uint8"
        }
      ],
      "stateMutability": "view",
      "type": "function",
      "constant": true
    },
    {
      "inputs": [],
      "name": "DAILY_FFOOD_RATE",
      "outputs": [
        {
          "internalType": "uint256",
          "name": "",
          "type": "uint256"
        }
      ],
      "stateMutability": "view",
      "type": "function",
      "constant": true
    },
    {
      "inputs": [],
      "name": "DAILY_INSANITY_RATE",
      "outputs": [
        {
          "internalType": "uint8",
          "name": "",
          "type": "uint8"
        }
      ],
      "stateMutability": "view",
      "type": "function",
      "constant": true
    },
    {
      "inputs": [],
      "name": "DAILY_INTELLIGENCE_RATE",
      "outputs": [
        {
          "internalType": "uint8",
          "name": "",
          "type": "uint8"
        }
      ],
      "stateMutability": "view",
      "type": "function",
      "constant": true
    },
    {
      "inputs": [],
      "name": "DAILY_SKILL_RATE",
      "outputs": [
        {
          "internalType": "uint8",
          "name": "",
          "type": "uint8"
        }
      ],
      "stateMutability": "view",
      "type": "function",
      "constant": true
    },
    {
      "inputs": [],
      "name": "FFOOD_CLAIM_TAX_PERCENTAGE",
      "outputs": [
        {
          "internalType": "uint256",
          "name": "",
          "type": "uint256"
        }
      ],
      "stateMutability": "view",
      "type": "function",
      "constant": true
    },
    {
      "inputs": [],
      "name": "FFOOD_MAX_SUPPLY",
      "outputs": [
        {
          "internalType": "uint256",
          "name": "",
          "type": "uint256"
        }
      ],
      "stateMutability": "view",
      "type": "function",
      "constant": true
    },
    {
      "inputs": [],
      "name": "MINIMUM_TO_EXIT",
      "outputs": [
        {
          "internalType": "uint256",
          "name": "",
          "type": "uint256"
        }
      ],
      "stateMutability": "view",
      "type": "function",
      "constant": true
    },
    {
      "inputs": [],
      "name": "fastFoodPerRat",
      "outputs": [
        {
          "internalType": "uint256",
          "name": "",
          "type": "uint256"
        }
      ],
      "stateMutability": "view",
      "type": "function",
      "constant": true
    },
    {
      "inputs": [
        {
          "internalType": "uint256",
          "name": "",
          "type": "uint256"
        }
      ],
      "name": "kitchen",
      "outputs": [
        {
          "internalType": "uint256",
          "name": "tokenId",
          "type": "uint256"
        },
        {
          "internalType": "address",
          "name": "owner",
          "type": "address"
        },
        {
          "internalType": "uint80",
          "name": "value",
          "type": "uint80"
        },
        {
          "internalType": "uint80",
          "name": "timestamp",
          "type": "uint80"
        }
      ],
      "stateMutability": "view",
      "type": "function",
      "constant": true
    },
    {
      "inputs": [],
      "name": "lastClaimTimestamp",
      "outputs": [
        {
          "internalType": "uint256",
          "name": "",
          "type": "uint256"
        }
      ],
      "stateMutability": "view",
      "type": "function",
      "constant": true
    },
    {
      "inputs": [],
      "name": "owner",
      "outputs": [
        {
          "internalType": "address",
          "name": "",
          "type": "address"
        }
      ],
      "stateMutability": "view",
      "type": "function",
      "constant": true
    },
    {
      "inputs": [
        {
          "internalType": "uint256",
          "name": "",
          "type": "uint256"
        }
      ],
      "name": "pack",
      "outputs": [
        {
          "internalType": "uint256",
          "name": "tokenId",
          "type": "uint256"
        },
        {
          "internalType": "address",
          "name": "owner",
          "type": "address"
        },
        {
          "internalType": "uint80",
          "name": "value",
          "type": "uint80"
        },
        {
          "internalType": "uint80",
          "name": "timestamp",
          "type": "uint80"
        }
      ],
      "stateMutability": "view",
      "type": "function",
      "constant": true
    },
    {
      "inputs": [],
      "name": "paused",
      "outputs": [
        {
          "internalType": "bool",
          "name": "",
          "type": "bool"
        }
      ],
      "stateMutability": "view",
      "type": "function",
      "constant": true
    },
    {
      "inputs": [],
      "name": "renounceOwnership",
      "outputs": [],
      "stateMutability": "nonpayable",
      "type": "function"
    },
    {
      "inputs": [],
      "name": "totalChefsStaked",
      "outputs": [
        {
          "internalType": "uint256",
          "name": "",
          "type": "uint256"
        }
      ],
      "stateMutability": "view",
      "type": "function",
      "constant": true
    },
    {
      "inputs": [],
      "name": "totalFastFoodEarned",
      "outputs": [
        {
          "internalType": "uint256",
          "name": "",
          "type": "uint256"
        }
      ],
      "stateMutability": "view",
      "type": "function",
      "constant": true
    },
    {
      "inputs": [],
      "name": "totalRatsStaked",
      "outputs": [
        {
          "internalType": "uint256",
          "name": "",
          "type": "uint256"
        }
      ],
      "stateMutability": "view",
      "type": "function",
      "constant": true
    },
    {
      "inputs": [
        {
          "internalType": "address",
          "name": "newOwner",
          "type": "address"
        }
      ],
      "name": "transferOwnership",
      "outputs": [],
      "stateMutability": "nonpayable",
      "type": "function"
    },
    {
      "inputs": [],
      "name": "unaccountedRewards",
      "outputs": [
        {
          "internalType": "uint256",
          "name": "",
          "type": "uint256"
        }
      ],
      "stateMutability": "view",
      "type": "function",
      "constant": true
    },
    {
      "inputs": [
        {
          "internalType": "address",
          "name": "_chefRat",
          "type": "address"
        },
        {
          "internalType": "address",
          "name": "_fastFood",
          "type": "address"
        }
      ],
      "name": "initialize",
      "outputs": [],
      "stateMutability": "nonpayable",
      "type": "function"
    },
    {
      "inputs": [
        {
          "internalType": "address",
          "name": "account",
          "type": "address"
        },
        {
          "internalType": "uint16[]",
          "name": "tokenIds",
          "type": "uint16[]"
        }
      ],
      "name": "stakeMany",
      "outputs": [],
      "stateMutability": "nonpayable",
      "type": "function"
    },
    {
      "inputs": [
        {
          "internalType": "uint16[]",
          "name": "tokenIds",
          "type": "uint16[]"
        },
        {
          "internalType": "bool",
          "name": "unstake",
          "type": "bool"
        }
      ],
      "name": "claimMany",
      "outputs": [],
      "stateMutability": "nonpayable",
      "type": "function"
    },
    {
      "inputs": [
        {
          "internalType": "uint256",
          "name": "tokenId",
          "type": "uint256"
        }
      ],
      "name": "isChef",
      "outputs": [
        {
          "internalType": "bool",
          "name": "chef",
          "type": "bool"
        }
      ],
      "stateMutability": "view",
      "type": "function",
      "constant": true
    },
    {
      "inputs": [
        {
          "internalType": "address",
          "name": "",
          "type": "address"
        },
        {
          "internalType": "address",
          "name": "from",
          "type": "address"
        },
        {
          "internalType": "uint256",
          "name": "",
          "type": "uint256"
        },
        {
          "internalType": "bytes",
          "name": "",
          "type": "bytes"
        }
      ],
      "name": "onERC721Received",
      "outputs": [
        {
          "internalType": "bytes4",
          "name": "",
          "type": "bytes4"
        }
      ],
      "stateMutability": "pure",
      "type": "function",
      "constant": true
    }
  ],
  "bytecode": "0x608060405234801561001057600080fd5b506133f0806100206000396000f3fe608060405234801561001057600080fd5b50600436106101735760003560e01c80639618d74a116100de578063c508d1c311610097578063e1a7c0a111610071578063e1a7c0a114610410578063ef9f800f1461042e578063f26667461461045e578063f2fde38b1461047c57610173565b8063c508d1c3146103b8578063d6732f9d146103d6578063dbdc1f6b146103f457610173565b80639618d74a14610306578063a104b8f214610324578063a7a1029014610342578063b6640c601461035e578063b9ace90a1461037c578063c0c472c01461039a57610173565b80635c975abb116101305780635c975abb14610251578063607af3971461026f5780636ea425551461028d578063715018a6146102c057806377488460146102ca5780638da5cb5b146102e857610173565b8063150b7a0214610178578063221453cf146101a8578063333e2de8146101c657806337a386b9146101f9578063485cc95514610217578063499f801014610233575b600080fd5b610192600480360381019061018d91906125bb565b610498565b60405161019f919061267e565b60405180910390f35b6101b061051b565b6040516101bd91906126a8565b60405180910390f35b6101e060048036038101906101db91906126c3565b61052b565b6040516101f09493929190612724565b60405180910390f35b6102016105a7565b60405161020e91906126a8565b60405180910390f35b610231600480360381019061022c9190612769565b6105ad565b005b61023b61073d565b60405161024891906126a8565b60405180910390f35b610259610743565b60405161026691906127c4565b60405180910390f35b61027761075a565b60405161028491906126a8565b60405180910390f35b6102a760048036038101906102a291906126c3565b610760565b6040516102b79493929190612724565b60405180910390f35b6102c86107dc565b005b6102d2610864565b6040516102df91906126a8565b60405180910390f35b6102f061086a565b6040516102fd91906127df565b60405180910390f35b61030e610894565b60405161031b9190612816565b60405180910390f35b61032c610899565b60405161033991906126a8565b60405180910390f35b61035c600480360381019061035791906128b3565b6108a6565b005b610366610a80565b6040516103739190612816565b60405180910390f35b610384610a85565b6040516103919190612816565b60405180910390f35b6103a2610a8a565b6040516103af91906126a8565b60405180910390f35b6103c0610a90565b6040516103cd9190612816565b60405180910390f35b6103de610a95565b6040516103eb91906126a8565b60405180910390f35b61040e60048036038101906104099190612913565b610a9a565b005b610418610ed0565b60405161042591906126a8565b60405180910390f35b610448600480360381019061044391906126c3565b610ed6565b60405161045591906127c4565b60405180910390f35b610466610fab565b60405161047391906126a8565b60405180910390f35b61049660048036038101906104919190612973565b610fb1565b005b60008073ffffffffffffffffffffffffffffffffffffffff168573ffffffffffffffffffffffffffffffffffffffff1614610508576040517f08c379a00000000000000000000000000000000000000000000000000000000081526004016104ff90612a23565b60405180910390fd5b63150b7a0260e01b905095945050505050565b6b033b2e3c9fd0803ce800000081565b60996020528060005260406000206000915090508060000154908060010160009054906101000a900473ffffffffffffffffffffffffffffffffffffffff16908060010160149054906101000a900469ffffffffffffffffffff16908060020160009054906101000a900469ffffffffffffffffffff16905084565b61708081565b600060019054906101000a900460ff166105d55760008054906101000a900460ff16156105de565b6105dd6110a9565b5b61061d576040517f08c379a000000000000000000000000000000000000000000000000000000000815260040161061490612ab5565b60405180910390fd5b60008060019054906101000a900460ff16159050801561066d576001600060016101000a81548160ff02191690831515021790555060016000806101000a81548160ff0219169083151502179055505b6106756110ba565b61067d61111b565b82609760006101000a81548173ffffffffffffffffffffffffffffffffffffffff021916908373ffffffffffffffffffffffffffffffffffffffff16021790555081609860006101000a81548173ffffffffffffffffffffffffffffffffffffffff021916908373ffffffffffffffffffffffffffffffffffffffff1602179055506000609d819055506000609e81905550600060a08190555080156107385760008060016101000a81548160ff0219169083151502179055505b505050565b609c5481565b6000606560009054906101000a900460ff16905090565b60a05481565b609a6020528060005260406000206000915090508060000154908060010160009054906101000a900473ffffffffffffffffffffffffffffffffffffffff16908060010160149054906101000a900469ffffffffffffffffffff16908060020160009054906101000a900469ffffffffffffffffffff16905084565b6107e461117c565b73ffffffffffffffffffffffffffffffffffffffff1661080261086a565b73ffffffffffffffffffffffffffffffffffffffff1614610858576040517f08c379a000000000000000000000000000000000000000000000000000000000815260040161084f90612b21565b60405180910390fd5b6108626000611184565b565b609f5481565b6000603360009054906101000a900473ffffffffffffffffffffffffffffffffffffffff16905090565b600281565b683635c9adc5dea0000081565b6108ae610743565b156108ee576040517f08c379a00000000000000000000000000000000000000000000000000000000081526004016108e590612b8d565b60405180910390fd5b6000805b848490508110156109d35761093185858381811061091357610912612bad565b5b90506020020160208101906109289190612c16565b61ffff16610ed6565b1561097d5761096b85858381811061094c5761094b612bad565b5b90506020020160208101906109619190612c16565b61ffff168461124a565b826109769190612c72565b91506109c0565b6109b285858381811061099357610992612bad565b5b90506020020160208101906109a89190612c16565b61ffff168461175f565b826109bd9190612c72565b91505b80806109cb90612cc8565b9150506108f2565b5060008114156109e35750610a7b565b609860009054906101000a900473ffffffffffffffffffffffffffffffffffffffff1673ffffffffffffffffffffffffffffffffffffffff166340c10f19610a2961117c565b836040518363ffffffff1660e01b8152600401610a47929190612d11565b600060405180830381600087803b158015610a6157600080fd5b505af1158015610a75573d6000803e3d6000fd5b50505050505b505050565b600481565b600881565b609d5481565b600281565b601481565b610aa261117c565b73ffffffffffffffffffffffffffffffffffffffff168373ffffffffffffffffffffffffffffffffffffffff161480610b2f5750609760009054906101000a900473ffffffffffffffffffffffffffffffffffffffff1673ffffffffffffffffffffffffffffffffffffffff16610b1761117c565b73ffffffffffffffffffffffffffffffffffffffff16145b610b6e576040517f08c379a0000000000000000000000000000000000000000000000000000000008152600401610b6590612d86565b60405180910390fd5b60005b82829050811015610eca57609760009054906101000a900473ffffffffffffffffffffffffffffffffffffffff1673ffffffffffffffffffffffffffffffffffffffff16610bbd61117c565b73ffffffffffffffffffffffffffffffffffffffff1614610dd357610be061117c565b73ffffffffffffffffffffffffffffffffffffffff16609760009054906101000a900473ffffffffffffffffffffffffffffffffffffffff1673ffffffffffffffffffffffffffffffffffffffff16636352211e858585818110610c4757610c46612bad565b5b9050602002016020810190610c5c9190612c16565b6040518263ffffffff1660e01b8152600401610c789190612de1565b602060405180830381865afa158015610c95573d6000803e3d6000fd5b505050506040513d601f19601f82011682018060405250810190610cb99190612e11565b73ffffffffffffffffffffffffffffffffffffffff1614610d0f576040517f08c379a0000000000000000000000000000000000000000000000000000000008152600401610d0690612e8a565b60405180910390fd5b609760009054906101000a900473ffffffffffffffffffffffffffffffffffffffff1673ffffffffffffffffffffffffffffffffffffffff166323b872dd610d5561117c565b30868686818110610d6957610d68612bad565b5b9050602002016020810190610d7e9190612c16565b6040518463ffffffff1660e01b8152600401610d9c93929190612eaa565b600060405180830381600087803b158015610db657600080fd5b505af1158015610dca573d6000803e3d6000fd5b50505050610e0d565b6000838383818110610de857610de7612bad565b5b9050602002016020810190610dfd9190612c16565b61ffff161415610e0c57610eb7565b5b610e41838383818110610e2357610e22612bad565b5b9050602002016020810190610e389190612c16565b61ffff16610ed6565b15610e8057610e7b84848484818110610e5d57610e5c612bad565b5b9050602002016020810190610e729190612c16565b61ffff16611bb3565b610eb6565b610eb584848484818110610e9757610e96612bad565b5b9050602002016020810190610eac9190612c16565b61ffff16611d72565b5b5b8080610ec290612cc8565b915050610b71565b50505050565b609e5481565b6000609760009054906101000a900473ffffffffffffffffffffffffffffffffffffffff1673ffffffffffffffffffffffffffffffffffffffff1663e05c57bf836040518263ffffffff1660e01b8152600401610f3391906126a8565b61014060405180830381865afa158015610f51573d6000803e3d6000fd5b505050506040513d601f19601f82011682018060405250810190610f759190612f22565b90919293949596975090919293949596509091929394955090919293945090919293509091925090915090505080915050919050565b609b5481565b610fb961117c565b73ffffffffffffffffffffffffffffffffffffffff16610fd761086a565b73ffffffffffffffffffffffffffffffffffffffff161461102d576040517f08c379a000000000000000000000000000000000000000000000000000000000815260040161102490612b21565b60405180910390fd5b600073ffffffffffffffffffffffffffffffffffffffff168173ffffffffffffffffffffffffffffffffffffffff16141561109d576040517f08c379a000000000000000000000000000000000000000000000000000000000815260040161109490613073565b60405180910390fd5b6110a681611184565b50565b60006110b430611f35565b15905090565b600060019054906101000a900460ff16611109576040517f08c379a000000000000000000000000000000000000000000000000000000000815260040161110090613105565b60405180910390fd5b611111611f48565b611119611f99565b565b600060019054906101000a900460ff1661116a576040517f08c379a000000000000000000000000000000000000000000000000000000000815260040161116190613105565b60405180910390fd5b611172611f48565b61117a611ffa565b565b600033905090565b6000603360009054906101000a900473ffffffffffffffffffffffffffffffffffffffff16905081603360006101000a81548173ffffffffffffffffffffffffffffffffffffffff021916908373ffffffffffffffffffffffffffffffffffffffff1602179055508173ffffffffffffffffffffffffffffffffffffffff168173ffffffffffffffffffffffffffffffffffffffff167f8be0079c531659141344cd1fd0a4f28419497f9722a3daafe3b4186f6b6457e060405160405180910390a35050565b60008060996000858152602001908152602001600020604051806080016040529081600082015481526020016001820160009054906101000a900473ffffffffffffffffffffffffffffffffffffffff1673ffffffffffffffffffffffffffffffffffffffff1673ffffffffffffffffffffffffffffffffffffffff1681526020016001820160149054906101000a900469ffffffffffffffffffff1669ffffffffffffffffffff1669ffffffffffffffffffff1681526020016002820160009054906101000a900469ffffffffffffffffffff1669ffffffffffffffffffff1669ffffffffffffffffffff1681525050905061134561117c565b73ffffffffffffffffffffffffffffffffffffffff16816020015173ffffffffffffffffffffffffffffffffffffffff16146113b6576040517f08c379a00000000000000000000000000000000000000000000000000000000081526004016113ad90612e8a565b60405180910390fd5b610e10683635c9adc5dea00000826040015169ffffffffffffffffffff16426113df9190613125565b6113e99190613159565b6113f391906131e2565b91506b033b2e3c9fd0803ce800000082609f546114109190612c72565b111561143357609f546b033b2e3c9fd0803ce80000006114309190613125565b91505b60008211156114a5574260a08190555081609f60008282546114559190612c72565b9250508190555061147d606460148461146e9190613159565b61147891906131e2565b612066565b60646014606461148d9190613125565b836114989190613159565b6114a291906131e2565b91505b6000806114b1866120ce565b9150915084156115ef57609760009054906101000a900473ffffffffffffffffffffffffffffffffffffffff1673ffffffffffffffffffffffffffffffffffffffff1663b88d4fde3061150261117c565b896040518463ffffffff1660e01b81526004016115219392919061324a565b600060405180830381600087803b15801561153b57600080fd5b505af115801561154f573d6000803e3d6000fd5b50505050609960008781526020019081526020016000206000808201600090556001820160006101000a81549073ffffffffffffffffffffffffffffffffffffffff02191690556001820160146101000a81549069ffffffffffffffffffff02191690556002820160006101000a81549069ffffffffffffffffffff02191690555050609b60008154809291906115e590613294565b9190505550611717565b60405180608001604052808761ffff16815260200161160c61117c565b73ffffffffffffffffffffffffffffffffffffffff1681526020014269ffffffffffffffffffff1681526020014269ffffffffffffffffffff16815250609960008881526020019081526020016000206000820151816000015560208201518160010160006101000a81548173ffffffffffffffffffffffffffffffffffffffff021916908373ffffffffffffffffffffffffffffffffffffffff16021790555060408201518160010160146101000a81548169ffffffffffffffffffff021916908369ffffffffffffffffffff16021790555060608201518160020160006101000a81548169ffffffffffffffffffff021916908369ffffffffffffffffffff1602179055509050505b7f9771e5b9000d1055432f4c8b145bffb9ebaf4af5a55ee9c3ea97770c4ff92abe868587858560405161174e9594939291906132be565b60405180910390a150505092915050565b600080609a6000858152602001908152602001600020604051806080016040529081600082015481526020016001820160009054906101000a900473ffffffffffffffffffffffffffffffffffffffff1673ffffffffffffffffffffffffffffffffffffffff1673ffffffffffffffffffffffffffffffffffffffff1681526020016001820160149054906101000a900469ffffffffffffffffffff1669ffffffffffffffffffff1669ffffffffffffffffffff1681526020016002820160009054906101000a900469ffffffffffffffffffff1669ffffffffffffffffffff1669ffffffffffffffffffff1681525050905061185a61117c565b73ffffffffffffffffffffffffffffffffffffffff16816020015173ffffffffffffffffffffffffffffffffffffffff16146118cb576040517f08c379a00000000000000000000000000000000000000000000000000000000081526004016118c290612e8a565b60405180910390fd5b806040015169ffffffffffffffffffff16609e546118e99190613125565b60016118f59190613159565b9150600080611903866120ce565b915091508415611a4157609760009054906101000a900473ffffffffffffffffffffffffffffffffffffffff1673ffffffffffffffffffffffffffffffffffffffff1663b88d4fde3061195461117c565b896040518463ffffffff1660e01b81526004016119739392919061324a565b600060405180830381600087803b15801561198d57600080fd5b505af11580156119a1573d6000803e3d6000fd5b50505050609a60008781526020019081526020016000206000808201600090556001820160006101000a81549073ffffffffffffffffffffffffffffffffffffffff02191690556001820160146101000a81549069ffffffffffffffffffff02191690556002820160006101000a81549069ffffffffffffffffffff02191690555050609c6000815480929190611a3790613294565b9190505550611b6b565b60405180608001604052808761ffff168152602001611a5e61117c565b73ffffffffffffffffffffffffffffffffffffffff168152602001609e5469ffffffffffffffffffff1681526020014269ffffffffffffffffffff16815250609a60008881526020019081526020016000206000820151816000015560208201518160010160006101000a81548173ffffffffffffffffffffffffffffffffffffffff021916908373ffffffffffffffffffffffffffffffffffffffff16021790555060408201518160010160146101000a81548169ffffffffffffffffffff021916908369ffffffffffffffffffff16021790555060608201518160020160006101000a81548169ffffffffffffffffffff021916908369ffffffffffffffffffff1602179055509050505b7feb7676386b5b93c6745af936ae965f8857ae71e0edd28fc6e5322e13bda64fe98685878585604051611ba29594939291906132be565b60405180910390a150505092915050565b611bbb610743565b15611bfb576040517f08c379a0000000000000000000000000000000000000000000000000000000008152600401611bf290612b8d565b60405180910390fd5b60405180608001604052808261ffff1681526020018373ffffffffffffffffffffffffffffffffffffffff1681526020014269ffffffffffffffffffff1681526020014269ffffffffffffffffffff16815250609960008381526020019081526020016000206000820151816000015560208201518160010160006101000a81548173ffffffffffffffffffffffffffffffffffffffff021916908373ffffffffffffffffffffffffffffffffffffffff16021790555060408201518160010160146101000a81548169ffffffffffffffffffff021916908369ffffffffffffffffffff16021790555060608201518160020160006101000a81548169ffffffffffffffffffff021916908369ffffffffffffffffffff160217905550905050609b6000815480929190611d2e90612cc8565b91905055507f8af1bb49fb16c7835975aa59449ba4328dd54737dfb2ae9fa6c5eca71fda51f9818342604051611d6693929190613311565b60405180910390a15050565b611d7a610743565b15611dba576040517f08c379a0000000000000000000000000000000000000000000000000000000008152600401611db190612b8d565b60405180910390fd5b60405180608001604052808261ffff1681526020018373ffffffffffffffffffffffffffffffffffffffff168152602001609e5469ffffffffffffffffffff1681526020014269ffffffffffffffffffff16815250609a60008381526020019081526020016000206000820151816000015560208201518160010160006101000a81548173ffffffffffffffffffffffffffffffffffffffff021916908373ffffffffffffffffffffffffffffffffffffffff16021790555060408201518160010160146101000a81548169ffffffffffffffffffff021916908369ffffffffffffffffffff16021790555060608201518160020160006101000a81548169ffffffffffffffffffff021916908369ffffffffffffffffffff160217905550905050609c6000815480929190611eef90612cc8565b91905055507f8af1bb49fb16c7835975aa59449ba4328dd54737dfb2ae9fa6c5eca71fda51f98183609e54604051611f2993929190613311565b60405180910390a15050565b600080823b905060008111915050919050565b600060019054906101000a900460ff16611f97576040517f08c379a0000000000000000000000000000000000000000000000000000000008152600401611f8e90613105565b60405180910390fd5b565b600060019054906101000a900460ff16611fe8576040517f08c379a0000000000000000000000000000000000000000000000000000000008152600401611fdf90613105565b60405180910390fd5b611ff8611ff361117c565b611184565b565b600060019054906101000a900460ff16612049576040517f08c379a000000000000000000000000000000000000000000000000000000000815260040161204090613105565b60405180910390fd5b6000606560006101000a81548160ff021916908315150217905550565b6000609c54141561208f5780609d60008282546120839190612c72565b925050819055506120cb565b609c54609d54826120a09190612c72565b6120aa91906131e2565b609e60008282546120bb9190612c72565b925050819055506000609d819055505b50565b600080600060996000858152602001908152602001600020604051806080016040529081600082015481526020016001820160009054906101000a900473ffffffffffffffffffffffffffffffffffffffff1673ffffffffffffffffffffffffffffffffffffffff1673ffffffffffffffffffffffffffffffffffffffff1681526020016001820160149054906101000a900469ffffffffffffffffffff1669ffffffffffffffffffff1669ffffffffffffffffffff1681526020016002820160009054906101000a900469ffffffffffffffffffff1669ffffffffffffffffffff1669ffffffffffffffffffff168152505090506000609a6000868152602001908152602001600020604051806080016040529081600082015481526020016001820160009054906101000a900473ffffffffffffffffffffffffffffffffffffffff1673ffffffffffffffffffffffffffffffffffffffff1673ffffffffffffffffffffffffffffffffffffffff1681526020016001820160149054906101000a900469ffffffffffffffffffff1669ffffffffffffffffffff1669ffffffffffffffffffff1681526020016002820160009054906101000a900469ffffffffffffffffffff1669ffffffffffffffffffff1669ffffffffffffffffffff1681525050905060006122c086610ed6565b6122ce5781606001516122d4565b82606001515b69ffffffffffffffffffff16426122eb9190613125565b9050609760009054906101000a900473ffffffffffffffffffffffffffffffffffffffff1673ffffffffffffffffffffffffffffffffffffffff166366ffcf998761234c846123398b610ed6565b612344576002612347565b60025b612477565b6040518363ffffffff1660e01b8152600401612369929190613364565b6020604051808303816000875af1158015612388573d6000803e3d6000fd5b505050506040513d601f19601f820116820180604052508101906123ac919061338d565b9450609760009054906101000a900473ffffffffffffffffffffffffffffffffffffffff1673ffffffffffffffffffffffffffffffffffffffff16632373e1278761240d846123fa8b610ed6565b612405576008612408565b60045b612477565b6040518363ffffffff1660e01b815260040161242a929190613364565b6020604051808303816000875af1158015612449573d6000803e3d6000fd5b505050506040513d601f19601f8201168201806040525081019061246d919061338d565b9350505050915091565b600080610e108360ff168561248c9190613159565b61249691906131e2565b90506000606482116124a857816124ab565b60645b9050809250505092915050565b600080fd5b600080fd5b600073ffffffffffffffffffffffffffffffffffffffff82169050919050565b60006124ed826124c2565b9050919050565b6124fd816124e2565b811461250857600080fd5b50565b60008135905061251a816124f4565b92915050565b6000819050919050565b61253381612520565b811461253e57600080fd5b50565b6000813590506125508161252a565b92915050565b600080fd5b600080fd5b600080fd5b60008083601f84011261257b5761257a612556565b5b8235905067ffffffffffffffff8111156125985761259761255b565b5b6020830191508360018202830111156125b4576125b3612560565b5b9250929050565b6000806000806000608086880312156125d7576125d66124b8565b5b60006125e58882890161250b565b95505060206125f68882890161250b565b945050604061260788828901612541565b935050606086013567ffffffffffffffff811115612628576126276124bd565b5b61263488828901612565565b92509250509295509295909350565b60007fffffffff0000000000000000000000000000000000000000000000000000000082169050919050565b61267881612643565b82525050565b6000602082019050612693600083018461266f565b92915050565b6126a281612520565b82525050565b60006020820190506126bd6000830184612699565b92915050565b6000602082840312156126d9576126d86124b8565b5b60006126e784828501612541565b91505092915050565b6126f9816124e2565b82525050565b600069ffffffffffffffffffff82169050919050565b61271e816126ff565b82525050565b60006080820190506127396000830187612699565b61274660208301866126f0565b6127536040830185612715565b6127606060830184612715565b95945050505050565b600080604083850312156127805761277f6124b8565b5b600061278e8582860161250b565b925050602061279f8582860161250b565b9150509250929050565b60008115159050919050565b6127be816127a9565b82525050565b60006020820190506127d960008301846127b5565b92915050565b60006020820190506127f460008301846126f0565b92915050565b600060ff82169050919050565b612810816127fa565b82525050565b600060208201905061282b6000830184612807565b92915050565b60008083601f84011261284757612846612556565b5b8235905067ffffffffffffffff8111156128645761286361255b565b5b6020830191508360208202830111156128805761287f612560565b5b9250929050565b612890816127a9565b811461289b57600080fd5b50565b6000813590506128ad81612887565b92915050565b6000806000604084860312156128cc576128cb6124b8565b5b600084013567ffffffffffffffff8111156128ea576128e96124bd565b5b6128f686828701612831565b935093505060206129098682870161289e565b9150509250925092565b60008060006040848603121561292c5761292b6124b8565b5b600061293a8682870161250b565b935050602084013567ffffffffffffffff81111561295b5761295a6124bd565b5b61296786828701612831565b92509250509250925092565b600060208284031215612989576129886124b8565b5b60006129978482850161250b565b91505092915050565b600082825260208201905092915050565b7f43616e6e6f742073656e6420746f6b656e7320746f204b69746368656e20646960008201527f726563746c790000000000000000000000000000000000000000000000000000602082015250565b6000612a0d6026836129a0565b9150612a18826129b1565b604082019050919050565b60006020820190508181036000830152612a3c81612a00565b9050919050565b7f496e697469616c697a61626c653a20636f6e747261637420697320616c72656160008201527f647920696e697469616c697a6564000000000000000000000000000000000000602082015250565b6000612a9f602e836129a0565b9150612aaa82612a43565b604082019050919050565b60006020820190508181036000830152612ace81612a92565b9050919050565b7f4f776e61626c653a2063616c6c6572206973206e6f7420746865206f776e6572600082015250565b6000612b0b6020836129a0565b9150612b1682612ad5565b602082019050919050565b60006020820190508181036000830152612b3a81612afe565b9050919050565b7f5061757361626c653a2070617573656400000000000000000000000000000000600082015250565b6000612b776010836129a0565b9150612b8282612b41565b602082019050919050565b60006020820190508181036000830152612ba681612b6a565b9050919050565b7f4e487b7100000000000000000000000000000000000000000000000000000000600052603260045260246000fd5b600061ffff82169050919050565b612bf381612bdc565b8114612bfe57600080fd5b50565b600081359050612c1081612bea565b92915050565b600060208284031215612c2c57612c2b6124b8565b5b6000612c3a84828501612c01565b91505092915050565b7f4e487b7100000000000000000000000000000000000000000000000000000000600052601160045260246000fd5b6000612c7d82612520565b9150612c8883612520565b9250827fffffffffffffffffffffffffffffffffffffffffffffffffffffffffffffffff03821115612cbd57612cbc612c43565b5b828201905092915050565b6000612cd382612520565b91507fffffffffffffffffffffffffffffffffffffffffffffffffffffffffffffffff821415612d0657612d05612c43565b5b600182019050919050565b6000604082019050612d2660008301856126f0565b612d336020830184612699565b9392505050565b7f446f206e6f74206c6f736520796f757220746f6b656e73000000000000000000600082015250565b6000612d706017836129a0565b9150612d7b82612d3a565b602082019050919050565b60006020820190508181036000830152612d9f81612d63565b9050919050565b6000819050919050565b6000612dcb612dc6612dc184612bdc565b612da6565b612520565b9050919050565b612ddb81612db0565b82525050565b6000602082019050612df66000830184612dd2565b92915050565b600081519050612e0b816124f4565b92915050565b600060208284031215612e2757612e266124b8565b5b6000612e3584828501612dfc565b91505092915050565b7f4e6f7420796f757220746f6b656e000000000000000000000000000000000000600082015250565b6000612e74600e836129a0565b9150612e7f82612e3e565b602082019050919050565b60006020820190508181036000830152612ea381612e67565b9050919050565b6000606082019050612ebf60008301866126f0565b612ecc60208301856126f0565b612ed96040830184612dd2565b949350505050565b600081519050612ef081612887565b92915050565b612eff816127fa565b8114612f0a57600080fd5b50565b600081519050612f1c81612ef6565b92915050565b6000806000806000806000806000806101408b8d031215612f4657612f456124b8565b5b6000612f548d828e01612ee1565b9a50506020612f658d828e01612f0d565b9950506040612f768d828e01612f0d565b9850506060612f878d828e01612f0d565b9750506080612f988d828e01612f0d565b96505060a0612fa98d828e01612f0d565b95505060c0612fba8d828e01612f0d565b94505060e0612fcb8d828e01612f0d565b935050610100612fdd8d828e01612f0d565b925050610120612fef8d828e01612f0d565b9150509295989b9194979a5092959850565b7f4f776e61626c653a206e6577206f776e657220697320746865207a65726f206160008201527f6464726573730000000000000000000000000000000000000000000000000000602082015250565b600061305d6026836129a0565b915061306882613001565b604082019050919050565b6000602082019050818103600083015261308c81613050565b9050919050565b7f496e697469616c697a61626c653a20636f6e7472616374206973206e6f74206960008201527f6e697469616c697a696e67000000000000000000000000000000000000000000602082015250565b60006130ef602b836129a0565b91506130fa82613093565b604082019050919050565b6000602082019050818103600083015261311e816130e2565b9050919050565b600061313082612520565b915061313b83612520565b92508282101561314e5761314d612c43565b5b828203905092915050565b600061316482612520565b915061316f83612520565b9250817fffffffffffffffffffffffffffffffffffffffffffffffffffffffffffffffff04831182151516156131a8576131a7612c43565b5b828202905092915050565b7f4e487b7100000000000000000000000000000000000000000000000000000000600052601260045260246000fd5b60006131ed82612520565b91506131f883612520565b925082613208576132076131b3565b5b828204905092915050565b600082825260208201905092915050565b50565b6000613234600083613213565b915061323f82613224565b600082019050919050565b600060808201905061325f60008301866126f0565b61326c60208301856126f0565b6132796040830184612699565b818103606083015261328a81613227565b9050949350505050565b600061329f82612520565b915060008214156132b3576132b2612c43565b5b600182039050919050565b600060a0820190506132d36000830188612699565b6132e06020830187612699565b6132ed60408301866127b5565b6132fa6060830185612807565b6133076080830184612807565b9695505050505050565b60006060820190506133266000830186612699565b61333360208301856126f0565b6133406040830184612699565b949350505050565b60008160000b9050919050565b61335e81613348565b82525050565b60006040820190506133796000830185612699565b6133866020830184613355565b9392505050565b6000602082840312156133a3576133a26124b8565b5b60006133b184828501612f0d565b9150509291505056fea26469706673582212206bb205db54ecab92d2d06e91e0966af9707688d38f158de27a62f9eb2fb50e9364736f6c634300080a0033",
  "immutableReferences": {},
  "source": "// SPDX-License-Identifier: MIT\n\npragma solidity ^0.8.0;\n\nimport \"@openzeppelin/contracts-upgradeable/proxy/utils/Initializable.sol\";\nimport \"@openzeppelin/contracts-upgradeable/access/OwnableUpgradeable.sol\";\nimport \"@openzeppelin/contracts-upgradeable/security/PausableUpgradeable.sol\";\nimport \"@openzeppelin/contracts-upgradeable/token/ERC721/IERC721ReceiverUpgradeable.sol\";\nimport \"./IKitchenPack.sol\";\nimport \"./IChefRat.sol\";\nimport \"./ChefRat.sol\";\nimport \"./FastFood.sol\";\n\ncontract KitchenPackTest is IKitchenPack, Initializable, OwnableUpgradeable, PausableUpgradeable, IERC721ReceiverUpgradeable {\n  struct Stake { // Store for a stake's token, owner, and earning values\n    uint256 tokenId;\n    address owner;\n    uint80 value;\n    uint80 timestamp;\n  }\n\n  event TokenStaked(uint256 tokenId, address owner, uint256 value);\n  event ChefClaimed(uint256 tokenId, uint256 earned, bool unstaked, uint8 skill, uint8 insanity);\n  event RatClaimed(uint256 tokenId, uint256 earned, bool unstaked, uint8 intelligence, uint8 fatness);\n\n  ChefRat chefRat; // Reference to the ChefRat NFT contract\n  FastFood fastFood; // Reference to the $FFOOD contract\n\n  mapping(uint256 => Stake) public kitchen; // Maps tokenId to stake\n  mapping(uint256 => Stake) public pack; // Maps tokenId to stake\n\n  uint256 public constant FFOOD_CLAIM_TAX_PERCENTAGE = 20; // Rats steal x% of all $FFOOD claimed\n  uint256 public constant MINIMUM_TO_EXIT = 8 hours; // Cannot unstake before EOB\n  uint256 public constant FFOOD_MAX_SUPPLY = 1000000000 ether; // There will only ever be x $FFOOD earned through staking\n  uint256 public constant DAILY_FFOOD_RATE = 1000 ether; // Chefs earn x $FFOOD per day\n  uint8 public constant DAILY_SKILL_RATE = 2;\n  uint8 public constant DAILY_INSANITY_RATE = 4;\n  uint8 public constant DAILY_INTELLIGENCE_RATE = 2;\n  uint8 public constant DAILY_FATNESS_RATE = 8;\n\n  uint256 public totalChefsStaked; // Number of Chefs staked in the Kitchen\n  uint256 public totalRatsStaked; // Number of Rats staked in the Pack\n  uint256 public unaccountedRewards; // any rewards distributed when no wolves are staked\n  uint256 public fastFoodPerRat; // amount of $WOOL due for each alpha point staked\n  uint256 public totalFastFoodEarned; // Amount of $FFOOD earned so far\n  uint256 public lastClaimTimestamp; // The last time $FFOOD was claimed\n\n  function initialize(address _chefRat, address _fastFood) external initializer {\n    __Ownable_init();\n    __Pausable_init();\n\n    chefRat = ChefRat(_chefRat);\n    fastFood = FastFood(_fastFood);\n    unaccountedRewards = 0;\n    fastFoodPerRat = 0;\n    lastClaimTimestamp = 0;\n  }\n\n  /**\n   * Adds Chefs to Kitchen & Rats to Pack\n   * @param account - The address of the staker\n   * @param tokenIds - The IDs of the Chefs & Rats to stake\n   */\n  function stakeMany(address account, uint16[] calldata tokenIds) external {\n    require(account == _msgSender() || _msgSender() == address(chefRat), \"Do not lose your tokens\");\n    for (uint i = 0; i < tokenIds.length; i++) {\n      if (_msgSender() != address(chefRat)) { // Not necessary if it's a mint & stake\n        require(chefRat.ownerOf(tokenIds[i]) == _msgSender(), \"Not your token\");\n        chefRat.transferFrom(_msgSender(), address(this), tokenIds[i]);\n      } else if (tokenIds[i] == 0) {\n        continue; // There may be gaps in the array for stolen tokens\n      }\n\n      if (isChef(tokenIds[i])) {\n        _stakeChefToKitchen(account, tokenIds[i]);\n      } else {\n        _stakeRatToPack(account, tokenIds[i]);\n      }\n    }\n  }\n\n  /**\n   * Adds a single Chef to the Kitchen\n   * @param account - The address of the staker\n   * @param tokenId - The ID of the Chef to add to the Kitchen\n   */\n  function _stakeChefToKitchen(address account, uint256 tokenId) internal whenNotPaused {\n    kitchen[tokenId] = Stake({\n      tokenId: uint16(tokenId),\n      owner: account,\n      value: uint80(block.timestamp),\n      timestamp: uint80(block.timestamp)\n    });\n    totalChefsStaked ++;\n    emit TokenStaked(tokenId, account, block.timestamp);\n  }\n\n  /**\n   * Adds a single Rat to the Pack\n   * @param account - The address of the staker\n   * @param tokenId - The ID of the Rat to add to the Pack\n   */\n  function _stakeRatToPack(address account, uint256 tokenId) internal whenNotPaused {\n    pack[tokenId] = Stake({\n      tokenId: uint16(tokenId),\n      owner: account,\n      value: uint80(fastFoodPerRat),\n      timestamp: uint80(block.timestamp)\n    });\n    totalRatsStaked ++;\n    emit TokenStaked(tokenId, account, fastFoodPerRat);\n  }\n\n  /**\n   * Claim $FFOOD earnings and optionally unstake tokens from the Kitchen / Pack\n   * @param tokenIds - The IDs of the tokens to claim earnings from\n   * @param unstake - Whether or not to unstake ALL of the tokens listed in tokenIds\n   */\n  function claimMany(uint16[] calldata tokenIds, bool unstake) external whenNotPaused {\n    uint256 owed = 0;\n    for (uint i = 0; i < tokenIds.length; i++) {\n      if (isChef(tokenIds[i]))\n        owed += _claimChefFromKitchen(tokenIds[i], unstake);\n      else\n        owed += _claimRatFromPack(tokenIds[i], unstake);\n    }\n    if (owed == 0) return;\n    fastFood.mint(_msgSender(), owed);\n  }\n\n  /**\n   * Claim $FFOOD earnings for a single Chef and optionally unstake him\n   * If not unstaking, pay a 20% tax to the staked Rats\n   * If unstaking, there's a 50% chance all $FFOOD is stolen\n   * @param tokenId - The ID of the Chef to claim earnings from\n   * @param unstake - Whether or not to unstake the Chef\n   * @return owed - The amount of $FFOOD earned\n   */\n  function _claimChefFromKitchen(uint256 tokenId, bool unstake) internal returns (uint256 owed) {\n    Stake memory stake = kitchen[tokenId];\n    require(stake.owner == _msgSender(), \"Not your token\");\n//    require(!(unstake && block.timestamp - stake.value < MINIMUM_TO_EXIT), \"Cannot leave before EOB\");\n\n    owed = (block.timestamp - stake.value) * DAILY_FFOOD_RATE / 1 hours;\n    if (totalFastFoodEarned + owed > FFOOD_MAX_SUPPLY) {\n      owed = FFOOD_MAX_SUPPLY - totalFastFoodEarned;\n    }\n\n    if (owed > 0) {\n      lastClaimTimestamp = block.timestamp;\n      totalFastFoodEarned += owed;\n      _carelesslyLeaveToRats(owed * FFOOD_CLAIM_TAX_PERCENTAGE / 100); // percentage tax to staked wolves\n      owed = owed * (100 - FFOOD_CLAIM_TAX_PERCENTAGE) / 100; // Remainder goes to Chef owner\n    }\n\n    (uint8 efficiency, uint8 tolerance) = updateCharacter(tokenId);\n\n    if (unstake) {\n      chefRat.safeTransferFrom(address(this), _msgSender(), tokenId, \"\"); // Send Chef back to owner\n      delete kitchen[tokenId];\n      totalChefsStaked --;\n    } else {\n      kitchen[tokenId] = Stake({ // Reset stake\n        tokenId: uint16(tokenId),\n        owner: _msgSender(),\n        value: uint80(block.timestamp),\n        timestamp: uint80(block.timestamp)\n      });\n    }\n    emit ChefClaimed(tokenId, owed, unstake, efficiency, tolerance);\n  }\n\n  function updateCharacter(uint256 tokenId) internal returns(uint8 efficiency, uint8 tolerance) {\n    Stake memory k = kitchen[tokenId];\n    Stake memory p = pack[tokenId];\n    uint256 diff = block.timestamp - (isChef(tokenId) ? k.timestamp : p.timestamp);\n    efficiency = chefRat.updateEfficiency(tokenId, getCharacterIncrement(diff, isChef(tokenId) ? DAILY_SKILL_RATE : DAILY_INTELLIGENCE_RATE));\n    tolerance = chefRat.updateTolerance(tokenId, getCharacterIncrement(diff, isChef(tokenId) ? DAILY_INSANITY_RATE : DAILY_FATNESS_RATE));\n  }\n\n  function getCharacterIncrement(uint256 diff, uint8 factor) internal pure returns(int8) {\n    uint256 owed = diff * factor / 1 hours;\n    uint8 increment = owed > 100 ? 100 : uint8(owed);\n    return int8(increment);\n  }\n\n  /**\n   * Claim $FFOOD earnings for a single Rat and optionally unstake it\n   * Rats steal $FFOOD proportional to their efficiency level\n   * @param tokenId - The ID of the Rat to claim earnings from\n   * @param unstake - Whether or not to unstake the Rat\n   * @return owed - The amount of $FFOOD earned\n   */\n  function _claimRatFromPack(uint256 tokenId, bool unstake) internal returns (uint256 owed) {\n    Stake memory stake = pack[tokenId];\n    require(stake.owner == _msgSender(), \"Not your token\");\n//    require(!(unstake && block.timestamp - stake.value < MINIMUM_TO_EXIT), \"Cannot leave your pack starving so early\");\n\n    owed = (1) * (fastFoodPerRat - stake.value); // Calculate individual share\n    (uint8 efficiency, uint8 tolerance) = updateCharacter(tokenId);\n\n    if (unstake) {\n      chefRat.safeTransferFrom(address(this), _msgSender(), tokenId, \"\"); // Send Rat back to owner\n      delete pack[tokenId];\n      totalRatsStaked --;\n    } else {\n      pack[tokenId] = Stake({ // Reset stake\n        tokenId: uint16(tokenId),\n        owner: _msgSender(),\n        value: uint80(fastFoodPerRat),\n        timestamp: uint80(block.timestamp)\n      });\n    }\n    emit RatClaimed(tokenId, owed, unstake, efficiency, tolerance);\n  }\n\n  /**\n   * Checks if the token is a Chef\n   * @param tokenId - The ID of the token to check\n   * @return chef - Whether or not the token is a Chef\n   */\n  function isChef(uint256 tokenId) public view returns (bool chef) {\n    (chef, , , , , , , , ,) = chefRat.tokenTraits(tokenId);\n  }\n\n  /**\n   * Add $FFOOD to claimable pot for the Pack\n   * @param amount - $FFOOD to add to the pot\n   */\n  function _carelesslyLeaveToRats(uint256 amount) internal {\n    if (totalRatsStaked == 0) { // if there's no staked wolves\n      unaccountedRewards += amount; // keep track of $WOOL due to wolves\n      return;\n    }\n    // makes sure to include any unaccounted $FFOOD\n    fastFoodPerRat += (amount + unaccountedRewards) / totalRatsStaked;\n    unaccountedRewards = 0;\n  }\n\n  function onERC721Received(address, address from, uint256, bytes calldata) external pure override returns (bytes4) {\n    require(from == address(0x0), \"Cannot send tokens to Kitchen directly\");\n    return IERC721ReceiverUpgradeable.onERC721Received.selector;\n  }\n\n  /**\n   * Generates a pseudorandom number\n   * @param seed - A value to ensure different outcomes for different sources in the same block\n   * @return A pseudorandom value\n   */\n  function random(uint256 seed) internal view returns (uint256) {\n    return uint256(keccak256(abi.encodePacked(\n      tx.origin,\n      blockhash(block.number - 1),\n      block.timestamp,\n      seed\n    )));\n  }\n}\n",
  "sourcePath": "/Users/chris/workspace/ratalert/ratalert-contracts/contracts/KitchenPackTest.sol",
  "compiler": {
    "name": "solc",
    "version": "0.8.10+commit.fc410830.Emscripten.clang"
  },
  "schemaVersion": "3.4.4",
  "updatedAt": "2022-01-28T16:00:43.000Z",
  "networkType": "ethereum",
  "devdoc": {
    "kind": "dev",
    "methods": {
      "claimMany(uint16[],bool)": {
        "params": {
          "tokenIds": "- The IDs of the tokens to claim earnings from",
          "unstake": "- Whether or not to unstake ALL of the tokens listed in tokenIds"
        }
      },
      "isChef(uint256)": {
        "params": {
          "tokenId": "- The ID of the token to check"
        },
        "returns": {
          "chef": "- Whether or not the token is a Chef"
        }
      },
      "owner()": {
        "details": "Returns the address of the current owner."
      },
      "paused()": {
        "details": "Returns true if the contract is paused, and false otherwise."
      },
      "renounceOwnership()": {
        "details": "Leaves the contract without owner. It will not be possible to call `onlyOwner` functions anymore. Can only be called by the current owner. NOTE: Renouncing ownership will leave the contract without an owner, thereby removing any functionality that is only available to the owner."
      },
      "stakeMany(address,uint16[])": {
        "params": {
          "account": "- The address of the staker",
          "tokenIds": "- The IDs of the Chefs & Rats to stake"
        }
      },
      "transferOwnership(address)": {
        "details": "Transfers ownership of the contract to a new account (`newOwner`). Can only be called by the current owner."
      }
    },
    "version": 1
  },
  "userdoc": {
    "kind": "user",
    "methods": {
      "claimMany(uint16[],bool)": {
        "notice": "Claim $FFOOD earnings and optionally unstake tokens from the Kitchen / Pack"
      },
      "isChef(uint256)": {
        "notice": "Checks if the token is a Chef"
      },
      "stakeMany(address,uint16[])": {
        "notice": "Adds Chefs to Kitchen & Rats to Pack"
      }
    },
    "version": 1
  }
}