{
  "contractName": "KitchenPack",
  "abi": [
    {
      "anonymous": false,
      "inputs": [
        {
          "indexed": false,
          "internalType": "uint256",
          "name": "tokenId",
          "type": "uint256"
        },
        {
          "indexed": false,
          "internalType": "uint256",
          "name": "earned",
          "type": "uint256"
        },
        {
          "indexed": false,
          "internalType": "bool",
          "name": "unstaked",
          "type": "bool"
        },
        {
          "indexed": false,
          "internalType": "uint8",
          "name": "skill",
          "type": "uint8"
        },
        {
          "indexed": false,
          "internalType": "uint8",
          "name": "insanity",
          "type": "uint8"
        }
      ],
      "name": "ChefClaimed",
      "type": "event"
    },
    {
      "anonymous": false,
      "inputs": [
        {
          "indexed": true,
          "internalType": "address",
          "name": "previousOwner",
          "type": "address"
        },
        {
          "indexed": true,
          "internalType": "address",
          "name": "newOwner",
          "type": "address"
        }
      ],
      "name": "OwnershipTransferred",
      "type": "event"
    },
    {
      "anonymous": false,
      "inputs": [
        {
          "indexed": false,
          "internalType": "address",
          "name": "account",
          "type": "address"
        }
      ],
      "name": "Paused",
      "type": "event"
    },
    {
      "anonymous": false,
      "inputs": [
        {
          "indexed": false,
          "internalType": "uint256",
          "name": "tokenId",
          "type": "uint256"
        },
        {
          "indexed": false,
          "internalType": "uint256",
          "name": "earned",
          "type": "uint256"
        },
        {
          "indexed": false,
          "internalType": "bool",
          "name": "unstaked",
          "type": "bool"
        },
        {
          "indexed": false,
          "internalType": "uint8",
          "name": "intelligence",
          "type": "uint8"
        },
        {
          "indexed": false,
          "internalType": "uint8",
          "name": "fatness",
          "type": "uint8"
        }
      ],
      "name": "RatClaimed",
      "type": "event"
    },
    {
      "anonymous": false,
      "inputs": [
        {
          "indexed": false,
          "internalType": "uint256",
          "name": "tokenId",
          "type": "uint256"
        },
        {
          "indexed": false,
          "internalType": "address",
          "name": "owner",
          "type": "address"
        },
        {
          "indexed": false,
          "internalType": "uint256",
          "name": "value",
          "type": "uint256"
        }
      ],
      "name": "TokenStaked",
      "type": "event"
    },
    {
      "anonymous": false,
      "inputs": [
        {
          "indexed": false,
          "internalType": "address",
          "name": "account",
          "type": "address"
        }
      ],
      "name": "Unpaused",
      "type": "event"
    },
    {
      "inputs": [],
      "name": "DAILY_FATNESS_RATE",
      "outputs": [
        {
          "internalType": "uint8",
          "name": "",
          "type": "uint8"
        }
      ],
      "stateMutability": "view",
      "type": "function"
    },
    {
      "inputs": [],
      "name": "DAILY_FFOOD_RATE",
      "outputs": [
        {
          "internalType": "uint256",
          "name": "",
          "type": "uint256"
        }
      ],
      "stateMutability": "view",
      "type": "function"
    },
    {
      "inputs": [],
      "name": "DAILY_INSANITY_RATE",
      "outputs": [
        {
          "internalType": "uint8",
          "name": "",
          "type": "uint8"
        }
      ],
      "stateMutability": "view",
      "type": "function"
    },
    {
      "inputs": [],
      "name": "DAILY_INTELLIGENCE_RATE",
      "outputs": [
        {
          "internalType": "uint8",
          "name": "",
          "type": "uint8"
        }
      ],
      "stateMutability": "view",
      "type": "function"
    },
    {
      "inputs": [],
      "name": "DAILY_SKILL_RATE",
      "outputs": [
        {
          "internalType": "uint8",
          "name": "",
          "type": "uint8"
        }
      ],
      "stateMutability": "view",
      "type": "function"
    },
    {
      "inputs": [],
      "name": "FFOOD_CLAIM_TAX_PERCENTAGE",
      "outputs": [
        {
          "internalType": "uint256",
          "name": "",
          "type": "uint256"
        }
      ],
      "stateMutability": "view",
      "type": "function"
    },
    {
      "inputs": [],
      "name": "FFOOD_MAX_SUPPLY",
      "outputs": [
        {
          "internalType": "uint256",
          "name": "",
          "type": "uint256"
        }
      ],
      "stateMutability": "view",
      "type": "function"
    },
    {
      "inputs": [],
      "name": "MINIMUM_TO_EXIT",
      "outputs": [
        {
          "internalType": "uint256",
          "name": "",
          "type": "uint256"
        }
      ],
      "stateMutability": "view",
      "type": "function"
    },
    {
      "inputs": [],
      "name": "fastFoodPerRat",
      "outputs": [
        {
          "internalType": "uint256",
          "name": "",
          "type": "uint256"
        }
      ],
      "stateMutability": "view",
      "type": "function"
    },
    {
      "inputs": [
        {
          "internalType": "uint256",
          "name": "",
          "type": "uint256"
        }
      ],
      "name": "kitchen",
      "outputs": [
        {
          "internalType": "uint256",
          "name": "tokenId",
          "type": "uint256"
        },
        {
          "internalType": "address",
          "name": "owner",
          "type": "address"
        },
        {
          "internalType": "uint80",
          "name": "value",
          "type": "uint80"
        },
        {
          "internalType": "uint80",
          "name": "timestamp",
          "type": "uint80"
        }
      ],
      "stateMutability": "view",
      "type": "function"
    },
    {
      "inputs": [],
      "name": "lastClaimTimestamp",
      "outputs": [
        {
          "internalType": "uint256",
          "name": "",
          "type": "uint256"
        }
      ],
      "stateMutability": "view",
      "type": "function"
    },
    {
      "inputs": [],
      "name": "owner",
      "outputs": [
        {
          "internalType": "address",
          "name": "",
          "type": "address"
        }
      ],
      "stateMutability": "view",
      "type": "function"
    },
    {
      "inputs": [
        {
          "internalType": "uint256",
          "name": "",
          "type": "uint256"
        }
      ],
      "name": "pack",
      "outputs": [
        {
          "internalType": "uint256",
          "name": "tokenId",
          "type": "uint256"
        },
        {
          "internalType": "address",
          "name": "owner",
          "type": "address"
        },
        {
          "internalType": "uint80",
          "name": "value",
          "type": "uint80"
        },
        {
          "internalType": "uint80",
          "name": "timestamp",
          "type": "uint80"
        }
      ],
      "stateMutability": "view",
      "type": "function"
    },
    {
      "inputs": [],
      "name": "paused",
      "outputs": [
        {
          "internalType": "bool",
          "name": "",
          "type": "bool"
        }
      ],
      "stateMutability": "view",
      "type": "function"
    },
    {
      "inputs": [],
      "name": "renounceOwnership",
      "outputs": [],
      "stateMutability": "nonpayable",
      "type": "function"
    },
    {
      "inputs": [],
      "name": "totalChefsStaked",
      "outputs": [
        {
          "internalType": "uint256",
          "name": "",
          "type": "uint256"
        }
      ],
      "stateMutability": "view",
      "type": "function"
    },
    {
      "inputs": [],
      "name": "totalFastFoodEarned",
      "outputs": [
        {
          "internalType": "uint256",
          "name": "",
          "type": "uint256"
        }
      ],
      "stateMutability": "view",
      "type": "function"
    },
    {
      "inputs": [],
      "name": "totalRatsStaked",
      "outputs": [
        {
          "internalType": "uint256",
          "name": "",
          "type": "uint256"
        }
      ],
      "stateMutability": "view",
      "type": "function"
    },
    {
      "inputs": [
        {
          "internalType": "address",
          "name": "newOwner",
          "type": "address"
        }
      ],
      "name": "transferOwnership",
      "outputs": [],
      "stateMutability": "nonpayable",
      "type": "function"
    },
    {
      "inputs": [],
      "name": "unaccountedRewards",
      "outputs": [
        {
          "internalType": "uint256",
          "name": "",
          "type": "uint256"
        }
      ],
      "stateMutability": "view",
      "type": "function"
    },
    {
      "inputs": [
        {
          "internalType": "address",
          "name": "_chefRat",
          "type": "address"
        },
        {
          "internalType": "address",
          "name": "_fastFood",
          "type": "address"
        }
      ],
      "name": "initialize",
      "outputs": [],
      "stateMutability": "nonpayable",
      "type": "function"
    },
    {
      "inputs": [
        {
          "internalType": "uint16[]",
          "name": "tokenIds",
          "type": "uint16[]"
        }
      ],
      "name": "stakeMany",
      "outputs": [],
      "stateMutability": "nonpayable",
      "type": "function"
    },
    {
      "inputs": [
        {
          "internalType": "uint16[]",
          "name": "tokenIds",
          "type": "uint16[]"
        },
        {
          "internalType": "bool",
          "name": "unstake",
          "type": "bool"
        }
      ],
      "name": "claimMany",
      "outputs": [],
      "stateMutability": "nonpayable",
      "type": "function"
    },
    {
      "inputs": [
        {
          "internalType": "uint256",
          "name": "tokenId",
          "type": "uint256"
        }
      ],
      "name": "isChef",
      "outputs": [
        {
          "internalType": "bool",
          "name": "chef",
          "type": "bool"
        }
      ],
      "stateMutability": "view",
      "type": "function"
    },
    {
      "inputs": [
        {
          "internalType": "address",
          "name": "",
          "type": "address"
        },
        {
          "internalType": "address",
          "name": "from",
          "type": "address"
        },
        {
          "internalType": "uint256",
          "name": "",
          "type": "uint256"
        },
        {
          "internalType": "bytes",
          "name": "",
          "type": "bytes"
        }
      ],
      "name": "onERC721Received",
      "outputs": [
        {
          "internalType": "bytes4",
          "name": "",
          "type": "bytes4"
        }
      ],
      "stateMutability": "pure",
      "type": "function"
    }
  ],
  "bytecode": "0x608060405234801561001057600080fd5b506132ab806100206000396000f3fe608060405234801561001057600080fd5b50600436106101735760003560e01c80639618d74a116100de578063c508d1c311610097578063e44a25a111610071578063e44a25a114610412578063ef9f800f1461042e578063f26667461461045e578063f2fde38b1461047c57610173565b8063c508d1c3146103b8578063d6732f9d146103d6578063e1a7c0a1146103f457610173565b80639618d74a14610306578063a104b8f214610324578063a7a1029014610342578063b6640c601461035e578063b9ace90a1461037c578063c0c472c01461039a57610173565b80635c975abb116101305780635c975abb14610251578063607af3971461026f5780636ea425551461028d578063715018a6146102c057806377488460146102ca5780638da5cb5b146102e857610173565b8063150b7a0214610178578063221453cf146101a8578063333e2de8146101c657806337a386b9146101f9578063485cc95514610217578063499f801014610233575b600080fd5b610192600480360381019061018d91906124f5565b610498565b60405161019f91906125b8565b60405180910390f35b6101b061051b565b6040516101bd91906125e2565b60405180910390f35b6101e060048036038101906101db91906125fd565b61052b565b6040516101f0949392919061265e565b60405180910390f35b6102016105a7565b60405161020e91906125e2565b60405180910390f35b610231600480360381019061022c91906126a3565b6105ad565b005b61023b61073d565b60405161024891906125e2565b60405180910390f35b610259610743565b60405161026691906126fe565b60405180910390f35b61027761075a565b60405161028491906125e2565b60405180910390f35b6102a760048036038101906102a291906125fd565b610760565b6040516102b7949392919061265e565b60405180910390f35b6102c86107dc565b005b6102d2610864565b6040516102df91906125e2565b60405180910390f35b6102f061086a565b6040516102fd9190612719565b60405180910390f35b61030e610894565b60405161031b9190612750565b60405180910390f35b61032c610899565b60405161033991906125e2565b60405180910390f35b61035c600480360381019061035791906127ed565b6108a6565b005b610366610a80565b6040516103739190612750565b60405180910390f35b610384610a85565b6040516103919190612750565b60405180910390f35b6103a2610a8a565b6040516103af91906125e2565b60405180910390f35b6103c0610a90565b6040516103cd9190612750565b60405180910390f35b6103de610a95565b6040516103eb91906125e2565b60405180910390f35b6103fc610a9a565b60405161040991906125e2565b60405180910390f35b61042c6004803603810190610427919061284d565b610aa0565b005b610448600480360381019061044391906125fd565b610e0e565b60405161045591906126fe565b60405180910390f35b610466610ee3565b60405161047391906125e2565b60405180910390f35b6104966004803603810190610491919061289a565b610ee9565b005b60008073ffffffffffffffffffffffffffffffffffffffff168573ffffffffffffffffffffffffffffffffffffffff1614610508576040517f08c379a00000000000000000000000000000000000000000000000000000000081526004016104ff9061294a565b60405180910390fd5b63150b7a0260e01b905095945050505050565b6b033b2e3c9fd0803ce800000081565b60996020528060005260406000206000915090508060000154908060010160009054906101000a900473ffffffffffffffffffffffffffffffffffffffff16908060010160149054906101000a900469ffffffffffffffffffff16908060020160009054906101000a900469ffffffffffffffffffff16905084565b61708081565b600060019054906101000a900460ff166105d55760008054906101000a900460ff16156105de565b6105dd610fe1565b5b61061d576040517f08c379a0000000000000000000000000000000000000000000000000000000008152600401610614906129dc565b60405180910390fd5b60008060019054906101000a900460ff16159050801561066d576001600060016101000a81548160ff02191690831515021790555060016000806101000a81548160ff0219169083151502179055505b610675610ff2565b61067d611053565b82609760006101000a81548173ffffffffffffffffffffffffffffffffffffffff021916908373ffffffffffffffffffffffffffffffffffffffff16021790555081609860006101000a81548173ffffffffffffffffffffffffffffffffffffffff021916908373ffffffffffffffffffffffffffffffffffffffff160217905550600060a0819055506000609d819055506000609e8190555080156107385760008060016101000a81548160ff0219169083151502179055505b505050565b609c5481565b6000606560009054906101000a900460ff16905090565b60a05481565b609a6020528060005260406000206000915090508060000154908060010160009054906101000a900473ffffffffffffffffffffffffffffffffffffffff16908060010160149054906101000a900469ffffffffffffffffffff16908060020160009054906101000a900469ffffffffffffffffffff16905084565b6107e46110b4565b73ffffffffffffffffffffffffffffffffffffffff1661080261086a565b73ffffffffffffffffffffffffffffffffffffffff1614610858576040517f08c379a000000000000000000000000000000000000000000000000000000000815260040161084f90612a48565b60405180910390fd5b61086260006110bc565b565b609f5481565b6000603360009054906101000a900473ffffffffffffffffffffffffffffffffffffffff16905090565b600281565b683635c9adc5dea0000081565b6108ae610743565b156108ee576040517f08c379a00000000000000000000000000000000000000000000000000000000081526004016108e590612ab4565b60405180910390fd5b6000805b848490508110156109d35761093185858381811061091357610912612ad4565b5b90506020020160208101906109289190612b3d565b61ffff16610e0e565b1561097d5761096b85858381811061094c5761094b612ad4565b5b90506020020160208101906109619190612b3d565b61ffff1684611182565b826109769190612b99565b91506109c0565b6109b285858381811061099357610992612ad4565b5b90506020020160208101906109a89190612b3d565b61ffff1684611698565b826109bd9190612b99565b91505b80806109cb90612bef565b9150506108f2565b5060008114156109e35750610a7b565b609860009054906101000a900473ffffffffffffffffffffffffffffffffffffffff1673ffffffffffffffffffffffffffffffffffffffff166340c10f19610a296110b4565b836040518363ffffffff1660e01b8152600401610a47929190612c38565b600060405180830381600087803b158015610a6157600080fd5b505af1158015610a75573d6000803e3d6000fd5b50505050505b505050565b600481565b600881565b609d5481565b600281565b601481565b609e5481565b6000610aaa6110b4565b905060005b83839050811015610e0857609760009054906101000a900473ffffffffffffffffffffffffffffffffffffffff1673ffffffffffffffffffffffffffffffffffffffff16610afb6110b4565b73ffffffffffffffffffffffffffffffffffffffff1614610d1157610b1e6110b4565b73ffffffffffffffffffffffffffffffffffffffff16609760009054906101000a900473ffffffffffffffffffffffffffffffffffffffff1673ffffffffffffffffffffffffffffffffffffffff16636352211e868685818110610b8557610b84612ad4565b5b9050602002016020810190610b9a9190612b3d565b6040518263ffffffff1660e01b8152600401610bb69190612c9c565b602060405180830381865afa158015610bd3573d6000803e3d6000fd5b505050506040513d601f19601f82011682018060405250810190610bf79190612ccc565b73ffffffffffffffffffffffffffffffffffffffff1614610c4d576040517f08c379a0000000000000000000000000000000000000000000000000000000008152600401610c4490612d45565b60405180910390fd5b609760009054906101000a900473ffffffffffffffffffffffffffffffffffffffff1673ffffffffffffffffffffffffffffffffffffffff166323b872dd610c936110b4565b30878786818110610ca757610ca6612ad4565b5b9050602002016020810190610cbc9190612b3d565b6040518463ffffffff1660e01b8152600401610cda93929190612d65565b600060405180830381600087803b158015610cf457600080fd5b505af1158015610d08573d6000803e3d6000fd5b50505050610d4b565b6000848483818110610d2657610d25612ad4565b5b9050602002016020810190610d3b9190612b3d565b61ffff161415610d4a57610df5565b5b610d7f848483818110610d6157610d60612ad4565b5b9050602002016020810190610d769190612b3d565b61ffff16610e0e565b15610dbe57610db982858584818110610d9b57610d9a612ad4565b5b9050602002016020810190610db09190612b3d565b61ffff16611aec565b610df4565b610df382858584818110610dd557610dd4612ad4565b5b9050602002016020810190610dea9190612b3d565b61ffff16611cab565b5b5b8080610e0090612bef565b915050610aaf565b50505050565b6000609760009054906101000a900473ffffffffffffffffffffffffffffffffffffffff1673ffffffffffffffffffffffffffffffffffffffff1663e05c57bf836040518263ffffffff1660e01b8152600401610e6b91906125e2565b61014060405180830381865afa158015610e89573d6000803e3d6000fd5b505050506040513d601f19601f82011682018060405250810190610ead9190612ddd565b90919293949596975090919293949596509091929394955090919293945090919293509091925090915090505080915050919050565b609b5481565b610ef16110b4565b73ffffffffffffffffffffffffffffffffffffffff16610f0f61086a565b73ffffffffffffffffffffffffffffffffffffffff1614610f65576040517f08c379a0000000000000000000000000000000000000000000000000000000008152600401610f5c90612a48565b60405180910390fd5b600073ffffffffffffffffffffffffffffffffffffffff168173ffffffffffffffffffffffffffffffffffffffff161415610fd5576040517f08c379a0000000000000000000000000000000000000000000000000000000008152600401610fcc90612f2e565b60405180910390fd5b610fde816110bc565b50565b6000610fec30611e6e565b15905090565b600060019054906101000a900460ff16611041576040517f08c379a000000000000000000000000000000000000000000000000000000000815260040161103890612fc0565b60405180910390fd5b611049611e81565b611051611ed2565b565b600060019054906101000a900460ff166110a2576040517f08c379a000000000000000000000000000000000000000000000000000000000815260040161109990612fc0565b60405180910390fd5b6110aa611e81565b6110b2611f33565b565b600033905090565b6000603360009054906101000a900473ffffffffffffffffffffffffffffffffffffffff16905081603360006101000a81548173ffffffffffffffffffffffffffffffffffffffff021916908373ffffffffffffffffffffffffffffffffffffffff1602179055508173ffffffffffffffffffffffffffffffffffffffff168173ffffffffffffffffffffffffffffffffffffffff167f8be0079c531659141344cd1fd0a4f28419497f9722a3daafe3b4186f6b6457e060405160405180910390a35050565b60008060996000858152602001908152602001600020604051806080016040529081600082015481526020016001820160009054906101000a900473ffffffffffffffffffffffffffffffffffffffff1673ffffffffffffffffffffffffffffffffffffffff1673ffffffffffffffffffffffffffffffffffffffff1681526020016001820160149054906101000a900469ffffffffffffffffffff1669ffffffffffffffffffff1669ffffffffffffffffffff1681526020016002820160009054906101000a900469ffffffffffffffffffff1669ffffffffffffffffffff1669ffffffffffffffffffff1681525050905061127d6110b4565b73ffffffffffffffffffffffffffffffffffffffff16816020015173ffffffffffffffffffffffffffffffffffffffff16146112ee576040517f08c379a00000000000000000000000000000000000000000000000000000000081526004016112e590612d45565b60405180910390fd5b62015180683635c9adc5dea00000826040015169ffffffffffffffffffff16426113189190612fe0565b6113229190613014565b61132c919061309d565b91506b033b2e3c9fd0803ce800000082609f546113499190612b99565b111561136c57609f546b033b2e3c9fd0803ce80000006113699190612fe0565b91505b60008211156113de574260a08190555081609f600082825461138e9190612b99565b925050819055506113b660646014846113a79190613014565b6113b1919061309d565b611f9f565b6064601460646113c69190612fe0565b836113d19190613014565b6113db919061309d565b91505b6000806113ea86612007565b91509150841561152857609760009054906101000a900473ffffffffffffffffffffffffffffffffffffffff1673ffffffffffffffffffffffffffffffffffffffff1663b88d4fde3061143b6110b4565b896040518463ffffffff1660e01b815260040161145a93929190613105565b600060405180830381600087803b15801561147457600080fd5b505af1158015611488573d6000803e3d6000fd5b50505050609960008781526020019081526020016000206000808201600090556001820160006101000a81549073ffffffffffffffffffffffffffffffffffffffff02191690556001820160146101000a81549069ffffffffffffffffffff02191690556002820160006101000a81549069ffffffffffffffffffff02191690555050609b600081548092919061151e9061314f565b9190505550611650565b60405180608001604052808761ffff1681526020016115456110b4565b73ffffffffffffffffffffffffffffffffffffffff1681526020014269ffffffffffffffffffff1681526020014269ffffffffffffffffffff16815250609960008881526020019081526020016000206000820151816000015560208201518160010160006101000a81548173ffffffffffffffffffffffffffffffffffffffff021916908373ffffffffffffffffffffffffffffffffffffffff16021790555060408201518160010160146101000a81548169ffffffffffffffffffff021916908369ffffffffffffffffffff16021790555060608201518160020160006101000a81548169ffffffffffffffffffff021916908369ffffffffffffffffffff1602179055509050505b7f9771e5b9000d1055432f4c8b145bffb9ebaf4af5a55ee9c3ea97770c4ff92abe8685878585604051611687959493929190613179565b60405180910390a150505092915050565b600080609a6000858152602001908152602001600020604051806080016040529081600082015481526020016001820160009054906101000a900473ffffffffffffffffffffffffffffffffffffffff1673ffffffffffffffffffffffffffffffffffffffff1673ffffffffffffffffffffffffffffffffffffffff1681526020016001820160149054906101000a900469ffffffffffffffffffff1669ffffffffffffffffffff1669ffffffffffffffffffff1681526020016002820160009054906101000a900469ffffffffffffffffffff1669ffffffffffffffffffff1669ffffffffffffffffffff168152505090506117936110b4565b73ffffffffffffffffffffffffffffffffffffffff16816020015173ffffffffffffffffffffffffffffffffffffffff1614611804576040517f08c379a00000000000000000000000000000000000000000000000000000000081526004016117fb90612d45565b60405180910390fd5b806040015169ffffffffffffffffffff16609e546118229190612fe0565b600161182e9190613014565b915060008061183c86612007565b91509150841561197a57609760009054906101000a900473ffffffffffffffffffffffffffffffffffffffff1673ffffffffffffffffffffffffffffffffffffffff1663b88d4fde3061188d6110b4565b896040518463ffffffff1660e01b81526004016118ac93929190613105565b600060405180830381600087803b1580156118c657600080fd5b505af11580156118da573d6000803e3d6000fd5b50505050609a60008781526020019081526020016000206000808201600090556001820160006101000a81549073ffffffffffffffffffffffffffffffffffffffff02191690556001820160146101000a81549069ffffffffffffffffffff02191690556002820160006101000a81549069ffffffffffffffffffff02191690555050609c60008154809291906119709061314f565b9190505550611aa4565b60405180608001604052808761ffff1681526020016119976110b4565b73ffffffffffffffffffffffffffffffffffffffff168152602001609e5469ffffffffffffffffffff1681526020014269ffffffffffffffffffff16815250609a60008881526020019081526020016000206000820151816000015560208201518160010160006101000a81548173ffffffffffffffffffffffffffffffffffffffff021916908373ffffffffffffffffffffffffffffffffffffffff16021790555060408201518160010160146101000a81548169ffffffffffffffffffff021916908369ffffffffffffffffffff16021790555060608201518160020160006101000a81548169ffffffffffffffffffff021916908369ffffffffffffffffffff1602179055509050505b7feb7676386b5b93c6745af936ae965f8857ae71e0edd28fc6e5322e13bda64fe98685878585604051611adb959493929190613179565b60405180910390a150505092915050565b611af4610743565b15611b34576040517f08c379a0000000000000000000000000000000000000000000000000000000008152600401611b2b90612ab4565b60405180910390fd5b60405180608001604052808261ffff1681526020018373ffffffffffffffffffffffffffffffffffffffff1681526020014269ffffffffffffffffffff1681526020014269ffffffffffffffffffff16815250609960008381526020019081526020016000206000820151816000015560208201518160010160006101000a81548173ffffffffffffffffffffffffffffffffffffffff021916908373ffffffffffffffffffffffffffffffffffffffff16021790555060408201518160010160146101000a81548169ffffffffffffffffffff021916908369ffffffffffffffffffff16021790555060608201518160020160006101000a81548169ffffffffffffffffffff021916908369ffffffffffffffffffff160217905550905050609b6000815480929190611c6790612bef565b91905055507f8af1bb49fb16c7835975aa59449ba4328dd54737dfb2ae9fa6c5eca71fda51f9818342604051611c9f939291906131cc565b60405180910390a15050565b611cb3610743565b15611cf3576040517f08c379a0000000000000000000000000000000000000000000000000000000008152600401611cea90612ab4565b60405180910390fd5b60405180608001604052808261ffff1681526020018373ffffffffffffffffffffffffffffffffffffffff168152602001609e5469ffffffffffffffffffff1681526020014269ffffffffffffffffffff16815250609a60008381526020019081526020016000206000820151816000015560208201518160010160006101000a81548173ffffffffffffffffffffffffffffffffffffffff021916908373ffffffffffffffffffffffffffffffffffffffff16021790555060408201518160010160146101000a81548169ffffffffffffffffffff021916908369ffffffffffffffffffff16021790555060608201518160020160006101000a81548169ffffffffffffffffffff021916908369ffffffffffffffffffff160217905550905050609c6000815480929190611e2890612bef565b91905055507f8af1bb49fb16c7835975aa59449ba4328dd54737dfb2ae9fa6c5eca71fda51f98183609e54604051611e62939291906131cc565b60405180910390a15050565b600080823b905060008111915050919050565b600060019054906101000a900460ff16611ed0576040517f08c379a0000000000000000000000000000000000000000000000000000000008152600401611ec790612fc0565b60405180910390fd5b565b600060019054906101000a900460ff16611f21576040517f08c379a0000000000000000000000000000000000000000000000000000000008152600401611f1890612fc0565b60405180910390fd5b611f31611f2c6110b4565b6110bc565b565b600060019054906101000a900460ff16611f82576040517f08c379a0000000000000000000000000000000000000000000000000000000008152600401611f7990612fc0565b60405180910390fd5b6000606560006101000a81548160ff021916908315150217905550565b6000609c541415611fc85780609d6000828254611fbc9190612b99565b92505081905550612004565b609c54609d5482611fd99190612b99565b611fe3919061309d565b609e6000828254611ff49190612b99565b925050819055506000609d819055505b50565b600080600060996000858152602001908152602001600020604051806080016040529081600082015481526020016001820160009054906101000a900473ffffffffffffffffffffffffffffffffffffffff1673ffffffffffffffffffffffffffffffffffffffff1673ffffffffffffffffffffffffffffffffffffffff1681526020016001820160149054906101000a900469ffffffffffffffffffff1669ffffffffffffffffffff1669ffffffffffffffffffff1681526020016002820160009054906101000a900469ffffffffffffffffffff1669ffffffffffffffffffff1669ffffffffffffffffffff168152505090506000609a6000868152602001908152602001600020604051806080016040529081600082015481526020016001820160009054906101000a900473ffffffffffffffffffffffffffffffffffffffff1673ffffffffffffffffffffffffffffffffffffffff1673ffffffffffffffffffffffffffffffffffffffff1681526020016001820160149054906101000a900469ffffffffffffffffffff1669ffffffffffffffffffff1669ffffffffffffffffffff1681526020016002820160009054906101000a900469ffffffffffffffffffff1669ffffffffffffffffffff1669ffffffffffffffffffff1681525050905060006121f986610e0e565b61220757816060015161220d565b82606001515b69ffffffffffffffffffff16426122249190612fe0565b9050609760009054906101000a900473ffffffffffffffffffffffffffffffffffffffff1673ffffffffffffffffffffffffffffffffffffffff166366ffcf9987612285846122728b610e0e565b61227d576002612280565b60025b6123b0565b6040518363ffffffff1660e01b81526004016122a292919061321f565b6020604051808303816000875af11580156122c1573d6000803e3d6000fd5b505050506040513d601f19601f820116820180604052508101906122e59190613248565b9450609760009054906101000a900473ffffffffffffffffffffffffffffffffffffffff1673ffffffffffffffffffffffffffffffffffffffff16632373e12787612346846123338b610e0e565b61233e576008612341565b60045b6123b0565b6040518363ffffffff1660e01b815260040161236392919061321f565b6020604051808303816000875af1158015612382573d6000803e3d6000fd5b505050506040513d601f19601f820116820180604052508101906123a69190613248565b9350505050915091565b600080620151808360ff16856123c69190613014565b6123d0919061309d565b90506000606482116123e257816123e5565b60645b9050809250505092915050565b600080fd5b600080fd5b600073ffffffffffffffffffffffffffffffffffffffff82169050919050565b6000612427826123fc565b9050919050565b6124378161241c565b811461244257600080fd5b50565b6000813590506124548161242e565b92915050565b6000819050919050565b61246d8161245a565b811461247857600080fd5b50565b60008135905061248a81612464565b92915050565b600080fd5b600080fd5b600080fd5b60008083601f8401126124b5576124b4612490565b5b8235905067ffffffffffffffff8111156124d2576124d1612495565b5b6020830191508360018202830111156124ee576124ed61249a565b5b9250929050565b600080600080600060808688031215612511576125106123f2565b5b600061251f88828901612445565b955050602061253088828901612445565b94505060406125418882890161247b565b935050606086013567ffffffffffffffff811115612562576125616123f7565b5b61256e8882890161249f565b92509250509295509295909350565b60007fffffffff0000000000000000000000000000000000000000000000000000000082169050919050565b6125b28161257d565b82525050565b60006020820190506125cd60008301846125a9565b92915050565b6125dc8161245a565b82525050565b60006020820190506125f760008301846125d3565b92915050565b600060208284031215612613576126126123f2565b5b60006126218482850161247b565b91505092915050565b6126338161241c565b82525050565b600069ffffffffffffffffffff82169050919050565b61265881612639565b82525050565b600060808201905061267360008301876125d3565b612680602083018661262a565b61268d604083018561264f565b61269a606083018461264f565b95945050505050565b600080604083850312156126ba576126b96123f2565b5b60006126c885828601612445565b92505060206126d985828601612445565b9150509250929050565b60008115159050919050565b6126f8816126e3565b82525050565b600060208201905061271360008301846126ef565b92915050565b600060208201905061272e600083018461262a565b92915050565b600060ff82169050919050565b61274a81612734565b82525050565b60006020820190506127656000830184612741565b92915050565b60008083601f84011261278157612780612490565b5b8235905067ffffffffffffffff81111561279e5761279d612495565b5b6020830191508360208202830111156127ba576127b961249a565b5b9250929050565b6127ca816126e3565b81146127d557600080fd5b50565b6000813590506127e7816127c1565b92915050565b600080600060408486031215612806576128056123f2565b5b600084013567ffffffffffffffff811115612824576128236123f7565b5b6128308682870161276b565b93509350506020612843868287016127d8565b9150509250925092565b60008060208385031215612864576128636123f2565b5b600083013567ffffffffffffffff811115612882576128816123f7565b5b61288e8582860161276b565b92509250509250929050565b6000602082840312156128b0576128af6123f2565b5b60006128be84828501612445565b91505092915050565b600082825260208201905092915050565b7f43616e6e6f742073656e6420746f6b656e7320746f204b69746368656e20646960008201527f726563746c790000000000000000000000000000000000000000000000000000602082015250565b60006129346026836128c7565b915061293f826128d8565b604082019050919050565b6000602082019050818103600083015261296381612927565b9050919050565b7f496e697469616c697a61626c653a20636f6e747261637420697320616c72656160008201527f647920696e697469616c697a6564000000000000000000000000000000000000602082015250565b60006129c6602e836128c7565b91506129d18261296a565b604082019050919050565b600060208201905081810360008301526129f5816129b9565b9050919050565b7f4f776e61626c653a2063616c6c6572206973206e6f7420746865206f776e6572600082015250565b6000612a326020836128c7565b9150612a3d826129fc565b602082019050919050565b60006020820190508181036000830152612a6181612a25565b9050919050565b7f5061757361626c653a2070617573656400000000000000000000000000000000600082015250565b6000612a9e6010836128c7565b9150612aa982612a68565b602082019050919050565b60006020820190508181036000830152612acd81612a91565b9050919050565b7f4e487b7100000000000000000000000000000000000000000000000000000000600052603260045260246000fd5b600061ffff82169050919050565b612b1a81612b03565b8114612b2557600080fd5b50565b600081359050612b3781612b11565b92915050565b600060208284031215612b5357612b526123f2565b5b6000612b6184828501612b28565b91505092915050565b7f4e487b7100000000000000000000000000000000000000000000000000000000600052601160045260246000fd5b6000612ba48261245a565b9150612baf8361245a565b9250827fffffffffffffffffffffffffffffffffffffffffffffffffffffffffffffffff03821115612be457612be3612b6a565b5b828201905092915050565b6000612bfa8261245a565b91507fffffffffffffffffffffffffffffffffffffffffffffffffffffffffffffffff821415612c2d57612c2c612b6a565b5b600182019050919050565b6000604082019050612c4d600083018561262a565b612c5a60208301846125d3565b9392505050565b6000819050919050565b6000612c86612c81612c7c84612b03565b612c61565b61245a565b9050919050565b612c9681612c6b565b82525050565b6000602082019050612cb16000830184612c8d565b92915050565b600081519050612cc68161242e565b92915050565b600060208284031215612ce257612ce16123f2565b5b6000612cf084828501612cb7565b91505092915050565b7f4e6f7420796f757220746f6b656e000000000000000000000000000000000000600082015250565b6000612d2f600e836128c7565b9150612d3a82612cf9565b602082019050919050565b60006020820190508181036000830152612d5e81612d22565b9050919050565b6000606082019050612d7a600083018661262a565b612d87602083018561262a565b612d946040830184612c8d565b949350505050565b600081519050612dab816127c1565b92915050565b612dba81612734565b8114612dc557600080fd5b50565b600081519050612dd781612db1565b92915050565b6000806000806000806000806000806101408b8d031215612e0157612e006123f2565b5b6000612e0f8d828e01612d9c565b9a50506020612e208d828e01612dc8565b9950506040612e318d828e01612dc8565b9850506060612e428d828e01612dc8565b9750506080612e538d828e01612dc8565b96505060a0612e648d828e01612dc8565b95505060c0612e758d828e01612dc8565b94505060e0612e868d828e01612dc8565b935050610100612e988d828e01612dc8565b925050610120612eaa8d828e01612dc8565b9150509295989b9194979a5092959850565b7f4f776e61626c653a206e6577206f776e657220697320746865207a65726f206160008201527f6464726573730000000000000000000000000000000000000000000000000000602082015250565b6000612f186026836128c7565b9150612f2382612ebc565b604082019050919050565b60006020820190508181036000830152612f4781612f0b565b9050919050565b7f496e697469616c697a61626c653a20636f6e7472616374206973206e6f74206960008201527f6e697469616c697a696e67000000000000000000000000000000000000000000602082015250565b6000612faa602b836128c7565b9150612fb582612f4e565b604082019050919050565b60006020820190508181036000830152612fd981612f9d565b9050919050565b6000612feb8261245a565b9150612ff68361245a565b92508282101561300957613008612b6a565b5b828203905092915050565b600061301f8261245a565b915061302a8361245a565b9250817fffffffffffffffffffffffffffffffffffffffffffffffffffffffffffffffff048311821515161561306357613062612b6a565b5b828202905092915050565b7f4e487b7100000000000000000000000000000000000000000000000000000000600052601260045260246000fd5b60006130a88261245a565b91506130b38361245a565b9250826130c3576130c261306e565b5b828204905092915050565b600082825260208201905092915050565b50565b60006130ef6000836130ce565b91506130fa826130df565b600082019050919050565b600060808201905061311a600083018661262a565b613127602083018561262a565b61313460408301846125d3565b8181036060830152613145816130e2565b9050949350505050565b600061315a8261245a565b9150600082141561316e5761316d612b6a565b5b600182039050919050565b600060a08201905061318e60008301886125d3565b61319b60208301876125d3565b6131a860408301866126ef565b6131b56060830185612741565b6131c26080830184612741565b9695505050505050565b60006060820190506131e160008301866125d3565b6131ee602083018561262a565b6131fb60408301846125d3565b949350505050565b60008160000b9050919050565b61321981613203565b82525050565b600060408201905061323460008301856125d3565b6132416020830184613210565b9392505050565b60006020828403121561325e5761325d6123f2565b5b600061326c84828501612dc8565b9150509291505056fea26469706673582212208529b12939fdcb3a0ad188a7857d1cdb18bc8fc7eac5b3da8f3a9f5efe85094c64736f6c634300080a0033",
  "immutableReferences": {},
  "source": "// SPDX-License-Identifier: MIT\n\npragma solidity ^0.8.0;\n\nimport \"@openzeppelin/contracts-upgradeable/proxy/utils/Initializable.sol\";\nimport \"@openzeppelin/contracts-upgradeable/access/OwnableUpgradeable.sol\";\nimport \"@openzeppelin/contracts-upgradeable/security/PausableUpgradeable.sol\";\nimport \"@openzeppelin/contracts-upgradeable/token/ERC721/IERC721ReceiverUpgradeable.sol\";\nimport \"./IKitchenPack.sol\";\nimport \"./IChefRat.sol\";\nimport \"./ChefRat.sol\";\nimport \"./FastFood.sol\";\n\ncontract KitchenPack is IKitchenPack, Initializable, OwnableUpgradeable, PausableUpgradeable, IERC721ReceiverUpgradeable {\n  struct Stake { // Store for a stake's token, owner, and earning values\n    uint256 tokenId;\n    address owner;\n    uint80 value;\n    uint80 timestamp;\n  }\n\n  event TokenStaked(uint256 tokenId, address owner, uint256 value);\n  event ChefClaimed(uint256 tokenId, uint256 earned, bool unstaked, uint8 skill, uint8 insanity);\n  event RatClaimed(uint256 tokenId, uint256 earned, bool unstaked, uint8 intelligence, uint8 fatness);\n\n  ChefRat chefRat; // Reference to the ChefRat NFT contract\n  FastFood fastFood; // Reference to the $FFOOD contract\n\n  mapping(uint256 => Stake) public kitchen; // Maps tokenId to stake\n  mapping(uint256 => Stake) public pack; // Maps tokenId to stake\n\n  uint256 public constant FFOOD_CLAIM_TAX_PERCENTAGE = 20; // Rats steal x% of all $FFOOD claimed\n  uint256 public constant MINIMUM_TO_EXIT = 8 hours; // Cannot unstake before EOB\n  uint256 public constant FFOOD_MAX_SUPPLY = 1000000000 ether; // There will only ever be x $FFOOD earned through staking\n  uint256 public constant DAILY_FFOOD_RATE = 1000 ether; // Chefs earn x $FFOOD per day\n  uint8 public constant DAILY_SKILL_RATE = 2;\n  uint8 public constant DAILY_INSANITY_RATE = 4;\n  uint8 public constant DAILY_INTELLIGENCE_RATE = 2;\n  uint8 public constant DAILY_FATNESS_RATE = 8;\n\n  uint256 public totalChefsStaked; // Number of Chefs staked in the Kitchen\n  uint256 public totalRatsStaked; // Number of Rats staked in the Pack\n  uint256 public unaccountedRewards; // any rewards distributed when no wolves are staked\n  uint256 public fastFoodPerRat; // amount of $WOOL due for each alpha point staked\n  uint256 public totalFastFoodEarned; // Amount of $FFOOD earned so far\n  uint256 public lastClaimTimestamp; // The last time $FFOOD was claimed\n\n  function initialize(address _chefRat, address _fastFood) external initializer {\n    __Ownable_init();\n    __Pausable_init();\n\n    chefRat = ChefRat(_chefRat);\n    fastFood = FastFood(_fastFood);\n    lastClaimTimestamp = 0;\n    unaccountedRewards = 0;\n    fastFoodPerRat = 0;\n  }\n\n  /**\n   * Adds Chefs to Kitchen & Rats to Pack\n   * @param tokenIds - The IDs of the Chefs & Rats to stake\n   */\n  function stakeMany(uint16[] calldata tokenIds) external {\n    address account = _msgSender();\n    for (uint i = 0; i < tokenIds.length; i++) {\n      if (_msgSender() != address(chefRat)) { // Not necessary if it's a mint & stake\n        require(chefRat.ownerOf(tokenIds[i]) == _msgSender(), \"Not your token\");\n        chefRat.transferFrom(_msgSender(), address(this), tokenIds[i]);\n      } else if (tokenIds[i] == 0) {\n        continue; // There may be gaps in the array for stolen tokens\n      }\n\n      if (isChef(tokenIds[i])) {\n        _stakeChefToKitchen(account, tokenIds[i]);\n      } else {\n        _stakeRatToPack(account, tokenIds[i]);\n      }\n    }\n  }\n\n  /**\n   * Adds a single Chef to the Kitchen\n   * @param account - The address of the staker\n   * @param tokenId - The ID of the Chef to add to the Kitchen\n   */\n  function _stakeChefToKitchen(address account, uint256 tokenId) internal whenNotPaused {\n    kitchen[tokenId] = Stake({\n      tokenId: uint16(tokenId),\n      owner: account,\n      value: uint80(block.timestamp),\n      timestamp: uint80(block.timestamp)\n    });\n    totalChefsStaked ++;\n    emit TokenStaked(tokenId, account, block.timestamp);\n  }\n\n  /**\n   * Adds a single Rat to the Pack\n   * @param account - The address of the staker\n   * @param tokenId - The ID of the Rat to add to the Pack\n   */\n  function _stakeRatToPack(address account, uint256 tokenId) internal whenNotPaused {\n    pack[tokenId] = Stake({\n      tokenId: uint16(tokenId),\n      owner: account,\n      value: uint80(fastFoodPerRat),\n      timestamp: uint80(block.timestamp)\n    });\n    totalRatsStaked ++;\n//    emit TokenStaked(tokenId, account, block.timestamp);\n    emit TokenStaked(tokenId, account, fastFoodPerRat);\n  }\n\n  /**\n   * Claim $FFOOD earnings and optionally unstake tokens from the Kitchen / Pack\n   * @param tokenIds - The IDs of the tokens to claim earnings from\n   * @param unstake - Whether or not to unstake ALL of the tokens listed in tokenIds\n   */\n  function claimMany(uint16[] calldata tokenIds, bool unstake) external whenNotPaused {\n    uint256 owed = 0;\n    for (uint i = 0; i < tokenIds.length; i++) {\n      if (isChef(tokenIds[i]))\n        owed += _claimChefFromKitchen(tokenIds[i], unstake);\n      else\n        owed += _claimRatFromPack(tokenIds[i], unstake);\n    }\n    if (owed == 0) return;\n    fastFood.mint(_msgSender(), owed);\n  }\n\n  /**\n   * Claim $FFOOD earnings for a single Chef and optionally unstake him\n   * If not unstaking, pay a 20% tax to the staked Rats\n   * If unstaking, there's a 50% chance all $FFOOD is stolen\n   * @param tokenId - The ID of the Chef to claim earnings from\n   * @param unstake - Whether or not to unstake the Chef\n   * @return owed - The amount of $FFOOD earned\n   */\n  function _claimChefFromKitchen(uint256 tokenId, bool unstake) internal returns (uint256 owed) {\n    Stake memory stake = kitchen[tokenId];\n    require(stake.owner == _msgSender(), \"Not your token\");\n//    require(!(unstake && block.timestamp - stake.value < MINIMUM_TO_EXIT), \"Cannot leave before EOB\");\n\n    owed = (block.timestamp - stake.value) * DAILY_FFOOD_RATE / 1 days;\n    if (totalFastFoodEarned + owed > FFOOD_MAX_SUPPLY) {\n      owed = FFOOD_MAX_SUPPLY - totalFastFoodEarned;\n    }\n\n    if (owed > 0) {\n      lastClaimTimestamp = block.timestamp;\n      totalFastFoodEarned += owed;\n      _payTax(owed * FFOOD_CLAIM_TAX_PERCENTAGE / 100); // percentage tax to staked wolves\n      owed = owed * (100 - FFOOD_CLAIM_TAX_PERCENTAGE) / 100; // Remainder goes to Chef owner\n    }\n\n    (uint8 efficiency, uint8 tolerance) = updateCharacter(tokenId);\n\n    if (unstake) {\n      chefRat.safeTransferFrom(address(this), _msgSender(), tokenId, \"\"); // Send Chef back to owner\n      delete kitchen[tokenId];\n      totalChefsStaked --;\n    } else {\n      kitchen[tokenId] = Stake({ // Reset stake\n        tokenId: uint16(tokenId),\n        owner: _msgSender(),\n        value: uint80(block.timestamp),\n        timestamp: uint80(block.timestamp)\n      });\n    }\n    emit ChefClaimed(tokenId, owed, unstake, efficiency, tolerance);\n  }\n\n  function _payTax(uint256 amount) internal {\n    if (totalRatsStaked == 0) { // if there's no staked wolves\n      unaccountedRewards += amount; // keep track of $WOOL due to wolves\n      return;\n    }\n    // makes sure to include any unaccounted $FFOOD\n    fastFoodPerRat += (amount + unaccountedRewards) / totalRatsStaked;\n    unaccountedRewards = 0;\n  }\n\n  function updateCharacter(uint256 tokenId) internal returns(uint8 efficiency, uint8 tolerance) {\n    Stake memory k = kitchen[tokenId];\n    Stake memory p = pack[tokenId];\n    uint256 diff = block.timestamp - (isChef(tokenId) ? k.timestamp : p.timestamp);\n    efficiency = chefRat.updateEfficiency(tokenId, getCharacterIncrement(diff, isChef(tokenId) ? DAILY_SKILL_RATE : DAILY_INTELLIGENCE_RATE));\n    tolerance = chefRat.updateTolerance(tokenId, getCharacterIncrement(diff, isChef(tokenId) ? DAILY_INSANITY_RATE : DAILY_FATNESS_RATE));\n  }\n\n  function getCharacterIncrement(uint256 diff, uint8 factor) internal pure returns(int8) {\n    uint256 owed = diff * factor / 1 days;\n    uint8 increment = owed > 100 ? 100 : uint8(owed);\n    return int8(increment);\n  }\n\n  /**\n   * Claim $FFOOD earnings for a single Rat and optionally unstake it\n   * Rats steal $FFOOD proportional to their efficiency level\n   * @param tokenId - The ID of the Rat to claim earnings from\n   * @param unstake - Whether or not to unstake the Rat\n   * @return owed - The amount of $FFOOD earned\n   */\n  function _claimRatFromPack(uint256 tokenId, bool unstake) internal returns (uint256 owed) {\n    Stake memory stake = pack[tokenId];\n    require(stake.owner == _msgSender(), \"Not your token\");\n//    require(!(unstake && block.timestamp - stake.value < MINIMUM_TO_EXIT), \"Cannot leave your pack starving so early\");\n\n    owed = (1) * (fastFoodPerRat - stake.value); // Calculate individual share\n    (uint8 efficiency, uint8 tolerance) = updateCharacter(tokenId);\n\n    if (unstake) {\n      chefRat.safeTransferFrom(address(this), _msgSender(), tokenId, \"\"); // Send Rat back to owner\n      delete pack[tokenId];\n      totalRatsStaked --;\n    } else {\n      pack[tokenId] = Stake({ // Reset stake\n        tokenId: uint16(tokenId),\n        owner: _msgSender(),\n        value: uint80(fastFoodPerRat),\n        timestamp: uint80(block.timestamp)\n      });\n    }\n    emit RatClaimed(tokenId, owed, unstake, efficiency, tolerance);\n  }\n\n  /**\n   * Checks if the token is a Chef\n   * @param tokenId - The ID of the token to check\n   * @return chef - Whether or not the token is a Chef\n   */\n  function isChef(uint256 tokenId) public view returns (bool chef) {\n    (chef, , , , , , , , ,) = chefRat.tokenTraits(tokenId);\n  }\n\n  function onERC721Received(address, address from, uint256, bytes calldata) external pure override returns (bytes4) {\n    require(from == address(0x0), \"Cannot send tokens to Kitchen directly\");\n    return IERC721ReceiverUpgradeable.onERC721Received.selector;\n  }\n\n  /**\n   * Generates a pseudorandom number\n   * @param seed - A value to ensure different outcomes for different sources in the same block\n   * @return A pseudorandom value\n   */\n  function random(uint256 seed) internal view returns (uint256) {\n    return uint256(keccak256(abi.encodePacked(\n      tx.origin,\n      blockhash(block.number - 1),\n      block.timestamp,\n      seed\n    )));\n  }\n}\n",
  "sourcePath": "/Users/chris/workspace/ratalert/ratalert-contracts/contracts/KitchenPack.sol",
  "compiler": {
    "name": "solc",
    "version": "0.8.10+commit.fc410830.Emscripten.clang"
  },
  "schemaVersion": "3.4.4",
  "updatedAt": "2022-01-25T18:02:28.329Z",
  "devdoc": {
    "kind": "dev",
    "methods": {
      "claimMany(uint16[],bool)": {
        "params": {
          "tokenIds": "- The IDs of the tokens to claim earnings from",
          "unstake": "- Whether or not to unstake ALL of the tokens listed in tokenIds"
        }
      },
      "isChef(uint256)": {
        "params": {
          "tokenId": "- The ID of the token to check"
        },
        "returns": {
          "chef": "- Whether or not the token is a Chef"
        }
      },
      "owner()": {
        "details": "Returns the address of the current owner."
      },
      "paused()": {
        "details": "Returns true if the contract is paused, and false otherwise."
      },
      "renounceOwnership()": {
        "details": "Leaves the contract without owner. It will not be possible to call `onlyOwner` functions anymore. Can only be called by the current owner. NOTE: Renouncing ownership will leave the contract without an owner, thereby removing any functionality that is only available to the owner."
      },
      "stakeMany(uint16[])": {
        "params": {
          "tokenIds": "- The IDs of the Chefs & Rats to stake"
        }
      },
      "transferOwnership(address)": {
        "details": "Transfers ownership of the contract to a new account (`newOwner`). Can only be called by the current owner."
      }
    },
    "version": 1
  },
  "userdoc": {
    "kind": "user",
    "methods": {
      "claimMany(uint16[],bool)": {
        "notice": "Claim $FFOOD earnings and optionally unstake tokens from the Kitchen / Pack"
      },
      "isChef(uint256)": {
        "notice": "Checks if the token is a Chef"
      },
      "stakeMany(uint16[])": {
        "notice": "Adds Chefs to Kitchen & Rats to Pack"
      }
    },
    "version": 1
  }
}