{
  "contractName": "KitchenPackTest",
  "abi": [
    {
      "anonymous": false,
      "inputs": [
        {
          "indexed": false,
          "internalType": "uint256",
          "name": "tokenId",
          "type": "uint256"
        },
        {
          "indexed": false,
          "internalType": "uint256",
          "name": "earned",
          "type": "uint256"
        },
        {
          "indexed": false,
          "internalType": "bool",
          "name": "unstaked",
          "type": "bool"
        }
      ],
      "name": "ChefClaimed",
      "type": "event"
    },
    {
      "anonymous": false,
      "inputs": [
        {
          "indexed": true,
          "internalType": "address",
          "name": "previousOwner",
          "type": "address"
        },
        {
          "indexed": true,
          "internalType": "address",
          "name": "newOwner",
          "type": "address"
        }
      ],
      "name": "OwnershipTransferred",
      "type": "event"
    },
    {
      "anonymous": false,
      "inputs": [
        {
          "indexed": false,
          "internalType": "address",
          "name": "account",
          "type": "address"
        }
      ],
      "name": "Paused",
      "type": "event"
    },
    {
      "anonymous": false,
      "inputs": [
        {
          "indexed": false,
          "internalType": "uint256",
          "name": "tokenId",
          "type": "uint256"
        },
        {
          "indexed": false,
          "internalType": "uint256",
          "name": "earned",
          "type": "uint256"
        },
        {
          "indexed": false,
          "internalType": "bool",
          "name": "unstaked",
          "type": "bool"
        }
      ],
      "name": "RatClaimed",
      "type": "event"
    },
    {
      "anonymous": false,
      "inputs": [
        {
          "indexed": false,
          "internalType": "uint256",
          "name": "tokenId",
          "type": "uint256"
        },
        {
          "indexed": false,
          "internalType": "address",
          "name": "owner",
          "type": "address"
        },
        {
          "indexed": false,
          "internalType": "uint256",
          "name": "timestamp",
          "type": "uint256"
        }
      ],
      "name": "TokenStaked",
      "type": "event"
    },
    {
      "anonymous": false,
      "inputs": [
        {
          "indexed": false,
          "internalType": "address",
          "name": "account",
          "type": "address"
        }
      ],
      "name": "Unpaused",
      "type": "event"
    },
    {
      "inputs": [],
      "name": "DAILY_FFOOD_RATE",
      "outputs": [
        {
          "internalType": "uint256",
          "name": "",
          "type": "uint256"
        }
      ],
      "stateMutability": "view",
      "type": "function"
    },
    {
      "inputs": [],
      "name": "DAILY_INSANITY_RATE",
      "outputs": [
        {
          "internalType": "uint8",
          "name": "",
          "type": "uint8"
        }
      ],
      "stateMutability": "view",
      "type": "function"
    },
    {
      "inputs": [],
      "name": "DAILY_SKILL_RATE",
      "outputs": [
        {
          "internalType": "uint8",
          "name": "",
          "type": "uint8"
        }
      ],
      "stateMutability": "view",
      "type": "function"
    },
    {
      "inputs": [],
      "name": "FFOOD_CLAIM_TAX_PERCENTAGE",
      "outputs": [
        {
          "internalType": "uint256",
          "name": "",
          "type": "uint256"
        }
      ],
      "stateMutability": "view",
      "type": "function"
    },
    {
      "inputs": [],
      "name": "FFOOD_MAX_SUPPLY",
      "outputs": [
        {
          "internalType": "uint256",
          "name": "",
          "type": "uint256"
        }
      ],
      "stateMutability": "view",
      "type": "function"
    },
    {
      "inputs": [],
      "name": "MINIMUM_TO_EXIT",
      "outputs": [
        {
          "internalType": "uint256",
          "name": "",
          "type": "uint256"
        }
      ],
      "stateMutability": "view",
      "type": "function"
    },
    {
      "inputs": [],
      "name": "fastFoodPerRat",
      "outputs": [
        {
          "internalType": "uint256",
          "name": "",
          "type": "uint256"
        }
      ],
      "stateMutability": "view",
      "type": "function"
    },
    {
      "inputs": [
        {
          "internalType": "uint256",
          "name": "",
          "type": "uint256"
        }
      ],
      "name": "kitchen",
      "outputs": [
        {
          "internalType": "uint256",
          "name": "tokenId",
          "type": "uint256"
        },
        {
          "internalType": "address",
          "name": "owner",
          "type": "address"
        },
        {
          "internalType": "uint80",
          "name": "timestamp",
          "type": "uint80"
        }
      ],
      "stateMutability": "view",
      "type": "function"
    },
    {
      "inputs": [],
      "name": "lastClaimTimestamp",
      "outputs": [
        {
          "internalType": "uint256",
          "name": "",
          "type": "uint256"
        }
      ],
      "stateMutability": "view",
      "type": "function"
    },
    {
      "inputs": [],
      "name": "owner",
      "outputs": [
        {
          "internalType": "address",
          "name": "",
          "type": "address"
        }
      ],
      "stateMutability": "view",
      "type": "function"
    },
    {
      "inputs": [
        {
          "internalType": "uint256",
          "name": "",
          "type": "uint256"
        }
      ],
      "name": "pack",
      "outputs": [
        {
          "internalType": "uint256",
          "name": "tokenId",
          "type": "uint256"
        },
        {
          "internalType": "address",
          "name": "owner",
          "type": "address"
        },
        {
          "internalType": "uint80",
          "name": "timestamp",
          "type": "uint80"
        }
      ],
      "stateMutability": "view",
      "type": "function"
    },
    {
      "inputs": [],
      "name": "paused",
      "outputs": [
        {
          "internalType": "bool",
          "name": "",
          "type": "bool"
        }
      ],
      "stateMutability": "view",
      "type": "function"
    },
    {
      "inputs": [],
      "name": "renounceOwnership",
      "outputs": [],
      "stateMutability": "nonpayable",
      "type": "function"
    },
    {
      "inputs": [],
      "name": "totalChefsStaked",
      "outputs": [
        {
          "internalType": "uint256",
          "name": "",
          "type": "uint256"
        }
      ],
      "stateMutability": "view",
      "type": "function"
    },
    {
      "inputs": [],
      "name": "totalFastFoodEarned",
      "outputs": [
        {
          "internalType": "uint256",
          "name": "",
          "type": "uint256"
        }
      ],
      "stateMutability": "view",
      "type": "function"
    },
    {
      "inputs": [],
      "name": "totalRatsStaked",
      "outputs": [
        {
          "internalType": "uint256",
          "name": "",
          "type": "uint256"
        }
      ],
      "stateMutability": "view",
      "type": "function"
    },
    {
      "inputs": [
        {
          "internalType": "address",
          "name": "newOwner",
          "type": "address"
        }
      ],
      "name": "transferOwnership",
      "outputs": [],
      "stateMutability": "nonpayable",
      "type": "function"
    },
    {
      "inputs": [],
      "name": "unaccountedRewards",
      "outputs": [
        {
          "internalType": "uint256",
          "name": "",
          "type": "uint256"
        }
      ],
      "stateMutability": "view",
      "type": "function"
    },
    {
      "inputs": [
        {
          "internalType": "address",
          "name": "_chefRat",
          "type": "address"
        },
        {
          "internalType": "address",
          "name": "_fastFood",
          "type": "address"
        }
      ],
      "name": "initialize",
      "outputs": [],
      "stateMutability": "nonpayable",
      "type": "function"
    },
    {
      "inputs": [
        {
          "internalType": "address",
          "name": "account",
          "type": "address"
        },
        {
          "internalType": "uint16[]",
          "name": "tokenIds",
          "type": "uint16[]"
        }
      ],
      "name": "stakeMany",
      "outputs": [],
      "stateMutability": "nonpayable",
      "type": "function"
    },
    {
      "inputs": [
        {
          "internalType": "uint16[]",
          "name": "tokenIds",
          "type": "uint16[]"
        },
        {
          "internalType": "bool",
          "name": "unstake",
          "type": "bool"
        }
      ],
      "name": "claimMany",
      "outputs": [],
      "stateMutability": "nonpayable",
      "type": "function"
    },
    {
      "inputs": [
        {
          "internalType": "uint256",
          "name": "tokenId",
          "type": "uint256"
        }
      ],
      "name": "isChef",
      "outputs": [
        {
          "internalType": "bool",
          "name": "chef",
          "type": "bool"
        }
      ],
      "stateMutability": "pure",
      "type": "function"
    },
    {
      "inputs": [
        {
          "internalType": "address",
          "name": "",
          "type": "address"
        },
        {
          "internalType": "address",
          "name": "from",
          "type": "address"
        },
        {
          "internalType": "uint256",
          "name": "",
          "type": "uint256"
        },
        {
          "internalType": "bytes",
          "name": "",
          "type": "bytes"
        }
      ],
      "name": "onERC721Received",
      "outputs": [
        {
          "internalType": "bytes4",
          "name": "",
          "type": "bytes4"
        }
      ],
      "stateMutability": "pure",
      "type": "function"
    }
  ],
  "bytecode": "0x608060405234801561001057600080fd5b50612aa5806100206000396000f3fe608060405234801561001057600080fd5b506004361061014d5760003560e01c80638da5cb5b116100c3578063d6732f9d1161007c578063d6732f9d14610372578063dbdc1f6b14610390578063e1a7c0a1146103ac578063ef9f800f146103ca578063f2666746146103fa578063f2fde38b146104185761014d565b80638da5cb5b146102c0578063a104b8f2146102de578063a7a10290146102fc578063b6640c6014610318578063c0c472c014610336578063c508d1c3146103545761014d565b8063499f801011610115578063499f80101461020c5780635c975abb1461022a578063607af397146102485780636ea4255514610266578063715018a61461029857806377488460146102a25761014d565b8063150b7a0214610152578063221453cf14610182578063333e2de8146101a057806337a386b9146101d2578063485cc955146101f0575b600080fd5b61016c60048036038101906101679190611de7565b610434565b6040516101799190611eaa565b60405180910390f35b61018a6104b7565b6040516101979190611ed4565b60405180910390f35b6101ba60048036038101906101b59190611eef565b6104c7565b6040516101c993929190611f50565b60405180910390f35b6101da610527565b6040516101e79190611ed4565b60405180910390f35b61020a60048036038101906102059190611f87565b61052d565b005b6102146106bd565b6040516102219190611ed4565b60405180910390f35b6102326106c3565b60405161023f9190611fe2565b60405180910390f35b6102506106da565b60405161025d9190611ed4565b60405180910390f35b610280600480360381019061027b9190611eef565b6106e0565b60405161028f93929190611f50565b60405180910390f35b6102a0610740565b005b6102aa6107c8565b6040516102b79190611ed4565b60405180910390f35b6102c86107ce565b6040516102d59190611ffd565b60405180910390f35b6102e66107f8565b6040516102f39190611ed4565b60405180910390f35b6103166004803603810190610311919061209a565b610805565b005b6103206109df565b60405161032d9190612116565b60405180910390f35b61033e6109e4565b60405161034b9190611ed4565b60405180910390f35b61035c6109ea565b6040516103699190612116565b60405180910390f35b61037a6109ef565b6040516103879190611ed4565b60405180910390f35b6103aa60048036038101906103a59190612131565b6109f4565b005b6103b4610e2a565b6040516103c19190611ed4565b60405180910390f35b6103e460048036038101906103df9190611eef565b610e30565b6040516103f19190611fe2565b60405180910390f35b610402610e3b565b60405161040f9190611ed4565b60405180910390f35b610432600480360381019061042d9190612191565b610e41565b005b60008073ffffffffffffffffffffffffffffffffffffffff168573ffffffffffffffffffffffffffffffffffffffff16146104a4576040517f08c379a000000000000000000000000000000000000000000000000000000000815260040161049b90612241565b60405180910390fd5b63150b7a0260e01b905095945050505050565b6b033b2e3c9fd0803ce800000081565b60996020528060005260406000206000915090508060000154908060010160009054906101000a900473ffffffffffffffffffffffffffffffffffffffff16908060010160149054906101000a900469ffffffffffffffffffff16905083565b61708081565b600060019054906101000a900460ff166105555760008054906101000a900460ff161561055e565b61055d610f39565b5b61059d576040517f08c379a0000000000000000000000000000000000000000000000000000000008152600401610594906122d3565b60405180910390fd5b60008060019054906101000a900460ff1615905080156105ed576001600060016101000a81548160ff02191690831515021790555060016000806101000a81548160ff0219169083151502179055505b6105f5610f4a565b6105fd610fab565b82609760006101000a81548173ffffffffffffffffffffffffffffffffffffffff021916908373ffffffffffffffffffffffffffffffffffffffff16021790555081609860006101000a81548173ffffffffffffffffffffffffffffffffffffffff021916908373ffffffffffffffffffffffffffffffffffffffff1602179055506000609e819055506000609f81905550600060a08190555080156106b85760008060016101000a81548160ff0219169083151502179055505b505050565b609c5481565b6000606560009054906101000a900460ff16905090565b60a05481565b609a6020528060005260406000206000915090508060000154908060010160009054906101000a900473ffffffffffffffffffffffffffffffffffffffff16908060010160149054906101000a900469ffffffffffffffffffff16905083565b61074861100c565b73ffffffffffffffffffffffffffffffffffffffff166107666107ce565b73ffffffffffffffffffffffffffffffffffffffff16146107bc576040517f08c379a00000000000000000000000000000000000000000000000000000000081526004016107b39061233f565b60405180910390fd5b6107c66000611014565b565b609d5481565b6000603360009054906101000a900473ffffffffffffffffffffffffffffffffffffffff16905090565b683635c9adc5dea0000081565b61080d6106c3565b1561084d576040517f08c379a0000000000000000000000000000000000000000000000000000000008152600401610844906123ab565b60405180910390fd5b6000805b8484905081101561093257610890858583818110610872576108716123cb565b5b90506020020160208101906108879190612434565b61ffff16610e30565b156108dc576108ca8585838181106108ab576108aa6123cb565b5b90506020020160208101906108c09190612434565b61ffff16846110da565b826108d59190612490565b915061091f565b6109118585838181106108f2576108f16123cb565b5b90506020020160208101906109079190612434565b61ffff1684611548565b8261091c9190612490565b91505b808061092a906124e6565b915050610851565b50600081141561094257506109da565b609860009054906101000a900473ffffffffffffffffffffffffffffffffffffffff1673ffffffffffffffffffffffffffffffffffffffff166340c10f1961098861100c565b836040518363ffffffff1660e01b81526004016109a692919061252f565b600060405180830381600087803b1580156109c057600080fd5b505af11580156109d4573d6000803e3d6000fd5b50505050505b505050565b600481565b609e5481565b600281565b601481565b6109fc61100c565b73ffffffffffffffffffffffffffffffffffffffff168373ffffffffffffffffffffffffffffffffffffffff161480610a895750609760009054906101000a900473ffffffffffffffffffffffffffffffffffffffff1673ffffffffffffffffffffffffffffffffffffffff16610a7161100c565b73ffffffffffffffffffffffffffffffffffffffff16145b610ac8576040517f08c379a0000000000000000000000000000000000000000000000000000000008152600401610abf906125a4565b60405180910390fd5b60005b82829050811015610e2457609760009054906101000a900473ffffffffffffffffffffffffffffffffffffffff1673ffffffffffffffffffffffffffffffffffffffff16610b1761100c565b73ffffffffffffffffffffffffffffffffffffffff1614610d2d57610b3a61100c565b73ffffffffffffffffffffffffffffffffffffffff16609760009054906101000a900473ffffffffffffffffffffffffffffffffffffffff1673ffffffffffffffffffffffffffffffffffffffff16636352211e858585818110610ba157610ba06123cb565b5b9050602002016020810190610bb69190612434565b6040518263ffffffff1660e01b8152600401610bd291906125ff565b602060405180830381865afa158015610bef573d6000803e3d6000fd5b505050506040513d601f19601f82011682018060405250810190610c13919061262f565b73ffffffffffffffffffffffffffffffffffffffff1614610c69576040517f08c379a0000000000000000000000000000000000000000000000000000000008152600401610c60906126a8565b60405180910390fd5b609760009054906101000a900473ffffffffffffffffffffffffffffffffffffffff1673ffffffffffffffffffffffffffffffffffffffff166323b872dd610caf61100c565b30868686818110610cc357610cc26123cb565b5b9050602002016020810190610cd89190612434565b6040518463ffffffff1660e01b8152600401610cf6939291906126c8565b600060405180830381600087803b158015610d1057600080fd5b505af1158015610d24573d6000803e3d6000fd5b50505050610d67565b6000838383818110610d4257610d416123cb565b5b9050602002016020810190610d579190612434565b61ffff161415610d6657610e11565b5b610d9b838383818110610d7d57610d7c6123cb565b5b9050602002016020810190610d929190612434565b61ffff16610e30565b15610dda57610dd584848484818110610db757610db66123cb565b5b9050602002016020810190610dcc9190612434565b61ffff16611605565b610e10565b610e0f84848484818110610df157610df06123cb565b5b9050602002016020810190610e069190612434565b61ffff1661177f565b5b5b8080610e1c906124e6565b915050610acb565b50505050565b609f5481565b600060019050919050565b609b5481565b610e4961100c565b73ffffffffffffffffffffffffffffffffffffffff16610e676107ce565b73ffffffffffffffffffffffffffffffffffffffff1614610ebd576040517f08c379a0000000000000000000000000000000000000000000000000000000008152600401610eb49061233f565b60405180910390fd5b600073ffffffffffffffffffffffffffffffffffffffff168173ffffffffffffffffffffffffffffffffffffffff161415610f2d576040517f08c379a0000000000000000000000000000000000000000000000000000000008152600401610f2490612771565b60405180910390fd5b610f3681611014565b50565b6000610f44306118f9565b15905090565b600060019054906101000a900460ff16610f99576040517f08c379a0000000000000000000000000000000000000000000000000000000008152600401610f9090612803565b60405180910390fd5b610fa161190c565b610fa961195d565b565b600060019054906101000a900460ff16610ffa576040517f08c379a0000000000000000000000000000000000000000000000000000000008152600401610ff190612803565b60405180910390fd5b61100261190c565b61100a6119be565b565b600033905090565b6000603360009054906101000a900473ffffffffffffffffffffffffffffffffffffffff16905081603360006101000a81548173ffffffffffffffffffffffffffffffffffffffff021916908373ffffffffffffffffffffffffffffffffffffffff1602179055508173ffffffffffffffffffffffffffffffffffffffff168173ffffffffffffffffffffffffffffffffffffffff167f8be0079c531659141344cd1fd0a4f28419497f9722a3daafe3b4186f6b6457e060405160405180910390a35050565b60008060996000858152602001908152602001600020604051806060016040529081600082015481526020016001820160009054906101000a900473ffffffffffffffffffffffffffffffffffffffff1673ffffffffffffffffffffffffffffffffffffffff1673ffffffffffffffffffffffffffffffffffffffff1681526020016001820160149054906101000a900469ffffffffffffffffffff1669ffffffffffffffffffff1669ffffffffffffffffffff1681525050905061119d61100c565b73ffffffffffffffffffffffffffffffffffffffff16816020015173ffffffffffffffffffffffffffffffffffffffff161461120e576040517f08c379a0000000000000000000000000000000000000000000000000000000008152600401611205906126a8565b60405180910390fd5b610e10683635c9adc5dea00000826040015169ffffffffffffffffffff16426112379190612823565b6112419190612857565b61124b91906128e0565b91506b033b2e3c9fd0803ce800000082609d546112689190612490565b111561128b57609d546b033b2e3c9fd0803ce80000006112889190612823565b91505b60008211156112fd574260a08190555081609d60008282546112ad9190612490565b925050819055506112d560646014846112c69190612857565b6112d091906128e0565b611a2a565b6064601460646112e59190612823565b836112f09190612857565b6112fa91906128e0565b91505b61130684611a92565b821561142357609760009054906101000a900473ffffffffffffffffffffffffffffffffffffffff1673ffffffffffffffffffffffffffffffffffffffff1663b88d4fde3061135361100c565b876040518463ffffffff1660e01b815260040161137293929190612948565b600060405180830381600087803b15801561138c57600080fd5b505af11580156113a0573d6000803e3d6000fd5b50505050609960008581526020019081526020016000206000808201600090556001820160006101000a81549073ffffffffffffffffffffffffffffffffffffffff02191690556001820160146101000a81549069ffffffffffffffffffff02191690555050609b600081548092919061141990612992565b9190505550611506565b60405180606001604052808561ffff16815260200161144061100c565b73ffffffffffffffffffffffffffffffffffffffff1681526020014269ffffffffffffffffffff16815250609960008681526020019081526020016000206000820151816000015560208201518160010160006101000a81548173ffffffffffffffffffffffffffffffffffffffff021916908373ffffffffffffffffffffffffffffffffffffffff16021790555060408201518160010160146101000a81548169ffffffffffffffffffff021916908369ffffffffffffffffffff1602179055509050505b7fce9b0abd3810aeab696eddab45a4cbebbaa63fd80b9f31caaf538bd076fb2793848385604051611539939291906129bc565b60405180910390a15092915050565b6000609a60008481526020019081526020016000206000808201600090556001820160006101000a81549073ffffffffffffffffffffffffffffffffffffffff02191690556001820160146101000a81549069ffffffffffffffffffff02191690555050609c60008154809291906115bf90612992565b91905055507f939f40cd88d28c1155cabb182936e96cbe28fa632dc98c0e7a07a772f03981ca8382846040516115f7939291906129bc565b60405180910390a192915050565b61160d6106c3565b1561164d576040517f08c379a0000000000000000000000000000000000000000000000000000000008152600401611644906123ab565b60405180910390fd5b60405180606001604052808261ffff1681526020018373ffffffffffffffffffffffffffffffffffffffff1681526020014269ffffffffffffffffffff16815250609960008381526020019081526020016000206000820151816000015560208201518160010160006101000a81548173ffffffffffffffffffffffffffffffffffffffff021916908373ffffffffffffffffffffffffffffffffffffffff16021790555060408201518160010160146101000a81548169ffffffffffffffffffff021916908369ffffffffffffffffffff160217905550905050609b600081548092919061173b906124e6565b91905055507f8af1bb49fb16c7835975aa59449ba4328dd54737dfb2ae9fa6c5eca71fda51f9818342604051611773939291906129f3565b60405180910390a15050565b6117876106c3565b156117c7576040517f08c379a00000000000000000000000000000000000000000000000000000000081526004016117be906123ab565b60405180910390fd5b60405180606001604052808261ffff1681526020018373ffffffffffffffffffffffffffffffffffffffff1681526020014269ffffffffffffffffffff16815250609a60008381526020019081526020016000206000820151816000015560208201518160010160006101000a81548173ffffffffffffffffffffffffffffffffffffffff021916908373ffffffffffffffffffffffffffffffffffffffff16021790555060408201518160010160146101000a81548169ffffffffffffffffffff021916908369ffffffffffffffffffff160217905550905050609c60008154809291906118b5906124e6565b91905055507f8af1bb49fb16c7835975aa59449ba4328dd54737dfb2ae9fa6c5eca71fda51f98183426040516118ed939291906129f3565b60405180910390a15050565b600080823b905060008111915050919050565b600060019054906101000a900460ff1661195b576040517f08c379a000000000000000000000000000000000000000000000000000000000815260040161195290612803565b60405180910390fd5b565b600060019054906101000a900460ff166119ac576040517f08c379a00000000000000000000000000000000000000000000000000000000081526004016119a390612803565b60405180910390fd5b6119bc6119b761100c565b611014565b565b600060019054906101000a900460ff16611a0d576040517f08c379a0000000000000000000000000000000000000000000000000000000008152600401611a0490612803565b60405180910390fd5b6000606560006101000a81548160ff021916908315150217905550565b6000609c541415611a535780609e6000828254611a479190612490565b92505081905550611a8f565b609c54609e5482611a649190612490565b611a6e91906128e0565b609f6000828254611a7f9190612490565b925050819055506000609e819055505b50565b600060996000838152602001908152602001600020604051806060016040529081600082015481526020016001820160009054906101000a900473ffffffffffffffffffffffffffffffffffffffff1673ffffffffffffffffffffffffffffffffffffffff1673ffffffffffffffffffffffffffffffffffffffff1681526020016001820160149054906101000a900469ffffffffffffffffffff1669ffffffffffffffffffff1669ffffffffffffffffffff168152505090506000816040015169ffffffffffffffffffff1642611b6a9190612823565b9050609760009054906101000a900473ffffffffffffffffffffffffffffffffffffffff1673ffffffffffffffffffffffffffffffffffffffff166342a05def84611bb6846004611ca3565b6040518363ffffffff1660e01b8152600401611bd3929190612a46565b600060405180830381600087803b158015611bed57600080fd5b505af1158015611c01573d6000803e3d6000fd5b50505050609760009054906101000a900473ffffffffffffffffffffffffffffffffffffffff1673ffffffffffffffffffffffffffffffffffffffff166310dd5d4484611c4f846002611ca3565b6040518363ffffffff1660e01b8152600401611c6c929190612a46565b600060405180830381600087803b158015611c8657600080fd5b505af1158015611c9a573d6000803e3d6000fd5b50505050505050565b600080610e108360ff1685611cb89190612857565b611cc291906128e0565b9050600060648211611cd45781611cd7565b60645b9050809250505092915050565b600080fd5b600080fd5b600073ffffffffffffffffffffffffffffffffffffffff82169050919050565b6000611d1982611cee565b9050919050565b611d2981611d0e565b8114611d3457600080fd5b50565b600081359050611d4681611d20565b92915050565b6000819050919050565b611d5f81611d4c565b8114611d6a57600080fd5b50565b600081359050611d7c81611d56565b92915050565b600080fd5b600080fd5b600080fd5b60008083601f840112611da757611da6611d82565b5b8235905067ffffffffffffffff811115611dc457611dc3611d87565b5b602083019150836001820283011115611de057611ddf611d8c565b5b9250929050565b600080600080600060808688031215611e0357611e02611ce4565b5b6000611e1188828901611d37565b9550506020611e2288828901611d37565b9450506040611e3388828901611d6d565b935050606086013567ffffffffffffffff811115611e5457611e53611ce9565b5b611e6088828901611d91565b92509250509295509295909350565b60007fffffffff0000000000000000000000000000000000000000000000000000000082169050919050565b611ea481611e6f565b82525050565b6000602082019050611ebf6000830184611e9b565b92915050565b611ece81611d4c565b82525050565b6000602082019050611ee96000830184611ec5565b92915050565b600060208284031215611f0557611f04611ce4565b5b6000611f1384828501611d6d565b91505092915050565b611f2581611d0e565b82525050565b600069ffffffffffffffffffff82169050919050565b611f4a81611f2b565b82525050565b6000606082019050611f656000830186611ec5565b611f726020830185611f1c565b611f7f6040830184611f41565b949350505050565b60008060408385031215611f9e57611f9d611ce4565b5b6000611fac85828601611d37565b9250506020611fbd85828601611d37565b9150509250929050565b60008115159050919050565b611fdc81611fc7565b82525050565b6000602082019050611ff76000830184611fd3565b92915050565b60006020820190506120126000830184611f1c565b92915050565b60008083601f84011261202e5761202d611d82565b5b8235905067ffffffffffffffff81111561204b5761204a611d87565b5b60208301915083602082028301111561206757612066611d8c565b5b9250929050565b61207781611fc7565b811461208257600080fd5b50565b6000813590506120948161206e565b92915050565b6000806000604084860312156120b3576120b2611ce4565b5b600084013567ffffffffffffffff8111156120d1576120d0611ce9565b5b6120dd86828701612018565b935093505060206120f086828701612085565b9150509250925092565b600060ff82169050919050565b612110816120fa565b82525050565b600060208201905061212b6000830184612107565b92915050565b60008060006040848603121561214a57612149611ce4565b5b600061215886828701611d37565b935050602084013567ffffffffffffffff81111561217957612178611ce9565b5b61218586828701612018565b92509250509250925092565b6000602082840312156121a7576121a6611ce4565b5b60006121b584828501611d37565b91505092915050565b600082825260208201905092915050565b7f43616e6e6f742073656e6420746f6b656e7320746f204b69746368656e20646960008201527f726563746c790000000000000000000000000000000000000000000000000000602082015250565b600061222b6026836121be565b9150612236826121cf565b604082019050919050565b6000602082019050818103600083015261225a8161221e565b9050919050565b7f496e697469616c697a61626c653a20636f6e747261637420697320616c72656160008201527f647920696e697469616c697a6564000000000000000000000000000000000000602082015250565b60006122bd602e836121be565b91506122c882612261565b604082019050919050565b600060208201905081810360008301526122ec816122b0565b9050919050565b7f4f776e61626c653a2063616c6c6572206973206e6f7420746865206f776e6572600082015250565b60006123296020836121be565b9150612334826122f3565b602082019050919050565b600060208201905081810360008301526123588161231c565b9050919050565b7f5061757361626c653a2070617573656400000000000000000000000000000000600082015250565b60006123956010836121be565b91506123a08261235f565b602082019050919050565b600060208201905081810360008301526123c481612388565b9050919050565b7f4e487b7100000000000000000000000000000000000000000000000000000000600052603260045260246000fd5b600061ffff82169050919050565b612411816123fa565b811461241c57600080fd5b50565b60008135905061242e81612408565b92915050565b60006020828403121561244a57612449611ce4565b5b60006124588482850161241f565b91505092915050565b7f4e487b7100000000000000000000000000000000000000000000000000000000600052601160045260246000fd5b600061249b82611d4c565b91506124a683611d4c565b9250827fffffffffffffffffffffffffffffffffffffffffffffffffffffffffffffffff038211156124db576124da612461565b5b828201905092915050565b60006124f182611d4c565b91507fffffffffffffffffffffffffffffffffffffffffffffffffffffffffffffffff82141561252457612523612461565b5b600182019050919050565b60006040820190506125446000830185611f1c565b6125516020830184611ec5565b9392505050565b7f446f206e6f74206c6f736520796f757220746f6b656e73000000000000000000600082015250565b600061258e6017836121be565b915061259982612558565b602082019050919050565b600060208201905081810360008301526125bd81612581565b9050919050565b6000819050919050565b60006125e96125e46125df846123fa565b6125c4565b611d4c565b9050919050565b6125f9816125ce565b82525050565b600060208201905061261460008301846125f0565b92915050565b60008151905061262981611d20565b92915050565b60006020828403121561264557612644611ce4565b5b60006126538482850161261a565b91505092915050565b7f4e6f7420796f757220746f6b656e000000000000000000000000000000000000600082015250565b6000612692600e836121be565b915061269d8261265c565b602082019050919050565b600060208201905081810360008301526126c181612685565b9050919050565b60006060820190506126dd6000830186611f1c565b6126ea6020830185611f1c565b6126f760408301846125f0565b949350505050565b7f4f776e61626c653a206e6577206f776e657220697320746865207a65726f206160008201527f6464726573730000000000000000000000000000000000000000000000000000602082015250565b600061275b6026836121be565b9150612766826126ff565b604082019050919050565b6000602082019050818103600083015261278a8161274e565b9050919050565b7f496e697469616c697a61626c653a20636f6e7472616374206973206e6f74206960008201527f6e697469616c697a696e67000000000000000000000000000000000000000000602082015250565b60006127ed602b836121be565b91506127f882612791565b604082019050919050565b6000602082019050818103600083015261281c816127e0565b9050919050565b600061282e82611d4c565b915061283983611d4c565b92508282101561284c5761284b612461565b5b828203905092915050565b600061286282611d4c565b915061286d83611d4c565b9250817fffffffffffffffffffffffffffffffffffffffffffffffffffffffffffffffff04831182151516156128a6576128a5612461565b5b828202905092915050565b7f4e487b7100000000000000000000000000000000000000000000000000000000600052601260045260246000fd5b60006128eb82611d4c565b91506128f683611d4c565b925082612906576129056128b1565b5b828204905092915050565b600082825260208201905092915050565b50565b6000612932600083612911565b915061293d82612922565b600082019050919050565b600060808201905061295d6000830186611f1c565b61296a6020830185611f1c565b6129776040830184611ec5565b818103606083015261298881612925565b9050949350505050565b600061299d82611d4c565b915060008214156129b1576129b0612461565b5b600182039050919050565b60006060820190506129d16000830186611ec5565b6129de6020830185611ec5565b6129eb6040830184611fd3565b949350505050565b6000606082019050612a086000830186611ec5565b612a156020830185611f1c565b612a226040830184611ec5565b949350505050565b60008160000b9050919050565b612a4081612a2a565b82525050565b6000604082019050612a5b6000830185611ec5565b612a686020830184612a37565b939250505056fea2646970667358221220a05644cf39aaa1a64b3e1941eb0318af707dd1508683a248ff10d7cbeba11acf64736f6c634300080a0033",
  "immutableReferences": {},
  "source": "// SPDX-License-Identifier: MIT\n\npragma solidity ^0.8.0;\n\nimport \"@openzeppelin/contracts-upgradeable/proxy/utils/Initializable.sol\";\nimport \"@openzeppelin/contracts-upgradeable/access/OwnableUpgradeable.sol\";\nimport \"@openzeppelin/contracts-upgradeable/security/PausableUpgradeable.sol\";\nimport \"@openzeppelin/contracts-upgradeable/token/ERC721/IERC721ReceiverUpgradeable.sol\";\nimport \"./IKitchenPack.sol\";\nimport \"./IChefRat.sol\";\nimport \"./ChefRat.sol\";\nimport \"./FastFood.sol\";\n\ncontract KitchenPackTest is IKitchenPack, Initializable, OwnableUpgradeable, PausableUpgradeable, IERC721ReceiverUpgradeable {\n  struct Stake { // Store for a stake's token, owner, and earning values\n    uint256 tokenId;\n    address owner;\n    uint80 timestamp;\n  }\n\n  event TokenStaked(uint256 tokenId, address owner, uint256 timestamp);\n  event ChefClaimed(uint256 tokenId, uint256 earned, bool unstaked);\n  event RatClaimed(uint256 tokenId, uint256 earned, bool unstaked);\n\n  ChefRat chefRat; // Reference to the ChefRat NFT contract\n  FastFood fastFood; // Reference to the $FFOOD contract\n\n  mapping(uint256 => Stake) public kitchen; // Maps tokenId to stake\n  mapping(uint256 => Stake) public pack; // Maps tokenId to stake\n\n  uint256 public constant FFOOD_CLAIM_TAX_PERCENTAGE = 20; // Rats steal x% of all $FFOOD claimed\n  uint256 public constant MINIMUM_TO_EXIT = 8 hours; // Cannot unstake before EOB\n  uint256 public constant FFOOD_MAX_SUPPLY = 1000000000 ether; // There will only ever be x $FFOOD earned through staking\n  uint256 public constant DAILY_FFOOD_RATE = 1000 ether; // Chefs earn x $FFOOD per day\n  uint8 public constant DAILY_INSANITY_RATE = 4;\n  uint8 public constant DAILY_SKILL_RATE = 2;\n\n  uint256 public totalChefsStaked; // Number of Chefs staked in the Kitchen\n  uint256 public totalRatsStaked; // Number of Rats staked in the Pack\n  uint256 public totalFastFoodEarned; // Amount of $FFOOD earned so far\n  uint256 public unaccountedRewards; // Any rewards distributed when no Rats are staked\n  uint256 public fastFoodPerRat; // Amount of $FFOOD due for each alpha point staked\n  uint256 public lastClaimTimestamp; // The last time $FFOOD was claimed\n\n  function initialize(address _chefRat, address _fastFood) external initializer {\n    __Ownable_init();\n    __Pausable_init();\n\n    chefRat = ChefRat(_chefRat);\n    fastFood = FastFood(_fastFood);\n    unaccountedRewards = 0;\n    fastFoodPerRat = 0;\n    lastClaimTimestamp = 0;\n  }\n\n  /**\n   * Adds Chefs to Kitchen & Rats to Pack\n   * @param account - The address of the staker\n   * @param tokenIds - The IDs of the Chefs & Rats to stake\n   */\n  function stakeMany(address account, uint16[] calldata tokenIds) external {\n    require(account == _msgSender() || _msgSender() == address(chefRat), \"Do not lose your tokens\");\n    for (uint i = 0; i < tokenIds.length; i++) {\n      if (_msgSender() != address(chefRat)) { // Not necessary if it's a mint & stake\n        require(chefRat.ownerOf(tokenIds[i]) == _msgSender(), \"Not your token\");\n        chefRat.transferFrom(_msgSender(), address(this), tokenIds[i]);\n      } else if (tokenIds[i] == 0) {\n        continue; // There may be gaps in the array for stolen tokens\n      }\n\n      if (isChef(tokenIds[i])) {\n        _stakeChefToKitchen(account, tokenIds[i]);\n      } else {\n        _stakeRatToPack(account, tokenIds[i]);\n      }\n    }\n  }\n\n  /**\n   * Adds a single Chef to the Kitchen\n   * @param account - The address of the staker\n   * @param tokenId - The ID of the Chef to add to the Kitchen\n   */\n  function _stakeChefToKitchen(address account, uint256 tokenId) internal whenNotPaused {\n    kitchen[tokenId] = Stake({\n      tokenId: uint16(tokenId),\n      owner: account,\n      timestamp: uint80(block.timestamp)\n    });\n    totalChefsStaked ++;\n    emit TokenStaked(tokenId, account, block.timestamp);\n  }\n\n  /**\n   * Adds a single Rat to the Pack\n   * @param account - The address of the staker\n   * @param tokenId - The ID of the Rat to add to the Pack\n   */\n  function _stakeRatToPack(address account, uint256 tokenId) internal whenNotPaused {\n    pack[tokenId] = Stake({\n      tokenId: uint16(tokenId),\n      owner: account,\n      timestamp: uint80(block.timestamp)\n    });\n    totalRatsStaked ++;\n    emit TokenStaked(tokenId, account, block.timestamp);\n  }\n\n  /**\n   * Claim $FFOOD earnings and optionally unstake tokens from the Kitchen / Pack\n   * @param tokenIds - The IDs of the tokens to claim earnings from\n   * @param unstake - Whether or not to unstake ALL of the tokens listed in tokenIds\n   */\n  function claimMany(uint16[] calldata tokenIds, bool unstake) external whenNotPaused {\n    uint256 owed = 0;\n    for (uint i = 0; i < tokenIds.length; i++) {\n      if (isChef(tokenIds[i]))\n        owed += _claimChefFromKitchen(tokenIds[i], unstake);\n      else\n        owed += _claimRatFromPack(tokenIds[i], unstake);\n    }\n    if (owed == 0) return;\n    fastFood.mint(_msgSender(), owed);\n  }\n\n  /**\n   * Claim $FFOOD earnings for a single Chef and optionally unstake him\n   * If not unstaking, pay a 20% tax to the staked Rats\n   * If unstaking, there's a 50% chance all $FFOOD is stolen\n   * @param tokenId - The ID of the Chef to claim earnings from\n   * @param unstake - Whether or not to unstake the Chef\n   * @return owed - The amount of $FFOOD earned\n   */\n  function _claimChefFromKitchen(uint256 tokenId, bool unstake) internal returns (uint256 owed) {\n    Stake memory stake = kitchen[tokenId];\n    require(stake.owner == _msgSender(), \"Not your token\");\n//    require(!(unstake && block.timestamp - stake.timestamp < MINIMUM_TO_EXIT), \"Cannot leave before EOB\");\n\n    owed = (block.timestamp - stake.timestamp) * DAILY_FFOOD_RATE / 1 hours;\n    if (totalFastFoodEarned + owed > FFOOD_MAX_SUPPLY) {\n      owed = FFOOD_MAX_SUPPLY - totalFastFoodEarned;\n    }\n\n    if (owed > 0) {\n      lastClaimTimestamp = block.timestamp;\n      totalFastFoodEarned += owed;\n      _carelesslyLeaveToRats(owed * FFOOD_CLAIM_TAX_PERCENTAGE / 100); // Percentage stolen by staked Rats\n      owed = owed * (100 - FFOOD_CLAIM_TAX_PERCENTAGE) / 100; // Remainder goes to Chef owner\n    }\n\n    updateCharacter(tokenId);\n\n    if (unstake) {\n      chefRat.safeTransferFrom(address(this), _msgSender(), tokenId, \"\"); // Send Chef back to owner\n      delete kitchen[tokenId];\n      totalChefsStaked --;\n    } else {\n      kitchen[tokenId] = Stake({ // Reset stake\n        tokenId: uint16(tokenId),\n        owner: _msgSender(),\n        timestamp: uint80(block.timestamp)\n      });\n    }\n    emit ChefClaimed(tokenId, owed, unstake);\n  }\n\n  function updateCharacter(uint256 tokenId) internal {\n    Stake memory stake = kitchen[tokenId];\n    uint256 diff = block.timestamp - stake.timestamp;\n    chefRat.updateInsanity(tokenId, getCharacterIncrement(diff, DAILY_INSANITY_RATE));\n    chefRat.updateSkill(tokenId, getCharacterIncrement(diff, DAILY_SKILL_RATE));\n  }\n\n  function getCharacterIncrement(uint256 diff, uint8 factor) internal pure returns(int8) {\n    uint256 owed = diff * factor / 1 hours;\n    uint8 increment = owed > 100 ? 100 : uint8(owed);\n    return int8(increment);\n  }\n\n  /**\n   * Claim $FFOOD earnings for a single Rat and optionally unstake it\n   * Rats steal $FFOOD proportional to their skill level\n   * @param tokenId - The ID of the Rat to claim earnings from\n   * @param unstake - Whether or not to unstake the Rat\n   * @return owed - The amount of $FFOOD earned\n   */\n  function _claimRatFromPack(uint256 tokenId, bool unstake) internal returns (uint256 owed) {\n    delete pack[tokenId];\n    totalRatsStaked --;\n    // TODO Implement $FFOOD distribution\n    emit RatClaimed(tokenId, owed, unstake);\n  }\n\n  /**\n   * Checks if the token is a Chef\n   * @param tokenId - The ID of the token to check\n   * @return chef - Whether or not the token is a Chef\n   */\n  function isChef(uint256 tokenId) public pure returns (bool chef) {\n    tokenId;\n    chef = true; // TODO Implement with (chef, , , , , , , , , ) = chefRat.tokenTraits(tokenId);\n  }\n\n  /**\n   * Add $FFOOD to claimable pot for the Pack\n   * @param amount - $FFOOD to add to the pot\n   */\n  function _carelesslyLeaveToRats(uint256 amount) internal {\n    if (totalRatsStaked == 0) {\n      unaccountedRewards += amount; // Keep track for Rats staked in the future\n      return;\n    }\n    // Makes sure to include any unaccounted $FFOOD\n    fastFoodPerRat += (amount + unaccountedRewards) / totalRatsStaked;\n    unaccountedRewards = 0;\n  }\n\n  function onERC721Received(address, address from, uint256, bytes calldata) external pure override returns (bytes4) {\n    require(from == address(0x0), \"Cannot send tokens to Kitchen directly\");\n    return IERC721ReceiverUpgradeable.onERC721Received.selector;\n  }\n\n  /**\n   * Generates a pseudorandom number\n   * @param seed - A value to ensure different outcomes for different sources in the same block\n   * @return A pseudorandom value\n   */\n  function random(uint256 seed) internal view returns (uint256) {\n    return uint256(keccak256(abi.encodePacked(\n      tx.origin,\n      blockhash(block.number - 1),\n      block.timestamp,\n      seed\n    )));\n  }\n}\n",
  "sourcePath": "/Users/chris/workspace/chainmatters/ratalert/contracts/KitchenPackTest.sol",
  "compiler": {
    "name": "solc",
    "version": "0.8.10+commit.fc410830.Emscripten.clang"
  },
  "schemaVersion": "3.4.4",
  "updatedAt": "2022-01-04T14:19:40.658Z",
  "devdoc": {
    "kind": "dev",
    "methods": {
      "claimMany(uint16[],bool)": {
        "params": {
          "tokenIds": "- The IDs of the tokens to claim earnings from",
          "unstake": "- Whether or not to unstake ALL of the tokens listed in tokenIds"
        }
      },
      "isChef(uint256)": {
        "params": {
          "tokenId": "- The ID of the token to check"
        },
        "returns": {
          "chef": "- Whether or not the token is a Chef"
        }
      },
      "owner()": {
        "details": "Returns the address of the current owner."
      },
      "paused()": {
        "details": "Returns true if the contract is paused, and false otherwise."
      },
      "renounceOwnership()": {
        "details": "Leaves the contract without owner. It will not be possible to call `onlyOwner` functions anymore. Can only be called by the current owner. NOTE: Renouncing ownership will leave the contract without an owner, thereby removing any functionality that is only available to the owner."
      },
      "stakeMany(address,uint16[])": {
        "params": {
          "account": "- The address of the staker",
          "tokenIds": "- The IDs of the Chefs & Rats to stake"
        }
      },
      "transferOwnership(address)": {
        "details": "Transfers ownership of the contract to a new account (`newOwner`). Can only be called by the current owner."
      }
    },
    "version": 1
  },
  "userdoc": {
    "kind": "user",
    "methods": {
      "claimMany(uint16[],bool)": {
        "notice": "Claim $FFOOD earnings and optionally unstake tokens from the Kitchen / Pack"
      },
      "isChef(uint256)": {
        "notice": "Checks if the token is a Chef"
      },
      "stakeMany(address,uint16[])": {
        "notice": "Adds Chefs to Kitchen & Rats to Pack"
      }
    },
    "version": 1
  }
}