{
  "contractName": "KitchenUsage",
  "abi": [
    {
      "anonymous": false,
      "inputs": [
        {
          "indexed": false,
          "internalType": "address",
          "name": "owner",
          "type": "address"
        },
        {
          "indexed": false,
          "internalType": "uint8",
          "name": "kitchenId",
          "type": "uint8"
        },
        {
          "indexed": false,
          "internalType": "uint256",
          "name": "amount",
          "type": "uint256"
        }
      ],
      "name": "KitchenClaimed",
      "type": "event"
    },
    {
      "anonymous": false,
      "inputs": [
        {
          "indexed": false,
          "internalType": "address",
          "name": "owner",
          "type": "address"
        },
        {
          "indexed": false,
          "internalType": "uint8",
          "name": "kitchenId",
          "type": "uint8"
        },
        {
          "indexed": false,
          "internalType": "uint256",
          "name": "amount",
          "type": "uint256"
        }
      ],
      "name": "KitchenStaked",
      "type": "event"
    },
    {
      "anonymous": false,
      "inputs": [
        {
          "indexed": true,
          "internalType": "address",
          "name": "previousOwner",
          "type": "address"
        },
        {
          "indexed": true,
          "internalType": "address",
          "name": "newOwner",
          "type": "address"
        }
      ],
      "name": "OwnershipTransferred",
      "type": "event"
    },
    {
      "anonymous": false,
      "inputs": [
        {
          "indexed": false,
          "internalType": "address",
          "name": "account",
          "type": "address"
        }
      ],
      "name": "Paused",
      "type": "event"
    },
    {
      "anonymous": false,
      "inputs": [
        {
          "indexed": false,
          "internalType": "address",
          "name": "account",
          "type": "address"
        }
      ],
      "name": "Unpaused",
      "type": "event"
    },
    {
      "inputs": [
        {
          "internalType": "address[]",
          "name": "_controllers",
          "type": "address[]"
        }
      ],
      "name": "addController",
      "outputs": [],
      "stateMutability": "nonpayable",
      "type": "function"
    },
    {
      "inputs": [],
      "name": "chefsPerKitchen",
      "outputs": [
        {
          "internalType": "uint8",
          "name": "",
          "type": "uint8"
        }
      ],
      "stateMutability": "view",
      "type": "function",
      "constant": true
    },
    {
      "inputs": [
        {
          "internalType": "address",
          "name": "_controller",
          "type": "address"
        }
      ],
      "name": "controller",
      "outputs": [
        {
          "internalType": "bool",
          "name": "",
          "type": "bool"
        }
      ],
      "stateMutability": "view",
      "type": "function",
      "constant": true
    },
    {
      "inputs": [],
      "name": "owner",
      "outputs": [
        {
          "internalType": "address",
          "name": "",
          "type": "address"
        }
      ],
      "stateMutability": "view",
      "type": "function",
      "constant": true
    },
    {
      "inputs": [],
      "name": "pause",
      "outputs": [],
      "stateMutability": "nonpayable",
      "type": "function"
    },
    {
      "inputs": [],
      "name": "paused",
      "outputs": [
        {
          "internalType": "bool",
          "name": "",
          "type": "bool"
        }
      ],
      "stateMutability": "view",
      "type": "function",
      "constant": true
    },
    {
      "inputs": [
        {
          "internalType": "address[]",
          "name": "_controllers",
          "type": "address[]"
        }
      ],
      "name": "removeController",
      "outputs": [],
      "stateMutability": "nonpayable",
      "type": "function"
    },
    {
      "inputs": [],
      "name": "renounceOwnership",
      "outputs": [],
      "stateMutability": "nonpayable",
      "type": "function"
    },
    {
      "inputs": [
        {
          "internalType": "address",
          "name": "_dao",
          "type": "address"
        }
      ],
      "name": "setDao",
      "outputs": [],
      "stateMutability": "nonpayable",
      "type": "function"
    },
    {
      "inputs": [
        {
          "internalType": "address",
          "name": "",
          "type": "address"
        },
        {
          "internalType": "uint8",
          "name": "",
          "type": "uint8"
        }
      ],
      "name": "stakers",
      "outputs": [
        {
          "internalType": "address",
          "name": "owner",
          "type": "address"
        },
        {
          "internalType": "uint8",
          "name": "kitchenId",
          "type": "uint8"
        },
        {
          "internalType": "uint256",
          "name": "amount",
          "type": "uint256"
        },
        {
          "internalType": "uint80",
          "name": "timestamp",
          "type": "uint80"
        }
      ],
      "stateMutability": "view",
      "type": "function",
      "constant": true
    },
    {
      "inputs": [
        {
          "internalType": "uint8",
          "name": "",
          "type": "uint8"
        }
      ],
      "name": "totalKitchensStaked",
      "outputs": [
        {
          "internalType": "uint256",
          "name": "",
          "type": "uint256"
        }
      ],
      "stateMutability": "view",
      "type": "function",
      "constant": true
    },
    {
      "inputs": [
        {
          "internalType": "address",
          "name": "newOwner",
          "type": "address"
        }
      ],
      "name": "transferOwnership",
      "outputs": [],
      "stateMutability": "nonpayable",
      "type": "function"
    },
    {
      "inputs": [],
      "name": "unpause",
      "outputs": [],
      "stateMutability": "nonpayable",
      "type": "function"
    },
    {
      "inputs": [
        {
          "internalType": "address",
          "name": "_kitchenShop",
          "type": "address"
        }
      ],
      "name": "initialize",
      "outputs": [],
      "stateMutability": "nonpayable",
      "type": "function"
    },
    {
      "inputs": [
        {
          "internalType": "uint8",
          "name": "_chefsPerKitchen",
          "type": "uint8"
        },
        {
          "internalType": "address[]",
          "name": "_venues",
          "type": "address[]"
        }
      ],
      "name": "configure",
      "outputs": [],
      "stateMutability": "nonpayable",
      "type": "function"
    },
    {
      "inputs": [
        {
          "internalType": "address",
          "name": "account",
          "type": "address"
        },
        {
          "internalType": "uint8",
          "name": "kitchenId",
          "type": "uint8"
        },
        {
          "internalType": "uint256",
          "name": "amount",
          "type": "uint256"
        }
      ],
      "name": "stake",
      "outputs": [],
      "stateMutability": "nonpayable",
      "type": "function"
    },
    {
      "inputs": [
        {
          "internalType": "address",
          "name": "account",
          "type": "address"
        },
        {
          "internalType": "uint8",
          "name": "kitchenId",
          "type": "uint8"
        },
        {
          "internalType": "uint256",
          "name": "amount",
          "type": "uint256"
        }
      ],
      "name": "claim",
      "outputs": [],
      "stateMutability": "nonpayable",
      "type": "function"
    },
    {
      "inputs": [
        {
          "internalType": "address",
          "name": "account",
          "type": "address"
        },
        {
          "internalType": "uint8",
          "name": "kitchenId",
          "type": "uint8"
        }
      ],
      "name": "spaceInWallet",
      "outputs": [
        {
          "internalType": "uint256",
          "name": "",
          "type": "uint256"
        }
      ],
      "stateMutability": "view",
      "type": "function",
      "constant": true
    },
    {
      "inputs": [
        {
          "internalType": "address",
          "name": "account",
          "type": "address"
        },
        {
          "internalType": "uint8",
          "name": "kitchenId",
          "type": "uint8"
        }
      ],
      "name": "spaceInStaking",
      "outputs": [
        {
          "internalType": "uint256",
          "name": "",
          "type": "uint256"
        }
      ],
      "stateMutability": "view",
      "type": "function",
      "constant": true
    },
    {
      "inputs": [
        {
          "internalType": "address",
          "name": "account",
          "type": "address"
        },
        {
          "internalType": "uint8",
          "name": "kitchenId",
          "type": "uint8"
        },
        {
          "internalType": "uint256",
          "name": "spaceUsed",
          "type": "uint256"
        }
      ],
      "name": "checkSpace",
      "outputs": [
        {
          "internalType": "int256",
          "name": "",
          "type": "int256"
        }
      ],
      "stateMutability": "view",
      "type": "function",
      "constant": true
    },
    {
      "inputs": [
        {
          "internalType": "address",
          "name": "account",
          "type": "address"
        },
        {
          "internalType": "uint8",
          "name": "kitchenId",
          "type": "uint8"
        },
        {
          "internalType": "uint256",
          "name": "amountToRemove",
          "type": "uint256"
        }
      ],
      "name": "checkUsage",
      "outputs": [
        {
          "internalType": "bool",
          "name": "",
          "type": "bool"
        }
      ],
      "stateMutability": "view",
      "type": "function",
      "constant": true
    },
    {
      "inputs": [
        {
          "internalType": "address",
          "name": "operator",
          "type": "address"
        },
        {
          "internalType": "address",
          "name": "",
          "type": "address"
        },
        {
          "internalType": "uint256",
          "name": "",
          "type": "uint256"
        },
        {
          "internalType": "uint256",
          "name": "",
          "type": "uint256"
        },
        {
          "internalType": "bytes",
          "name": "",
          "type": "bytes"
        }
      ],
      "name": "onERC1155Received",
      "outputs": [
        {
          "internalType": "bytes4",
          "name": "",
          "type": "bytes4"
        }
      ],
      "stateMutability": "view",
      "type": "function",
      "constant": true
    },
    {
      "inputs": [
        {
          "internalType": "address",
          "name": "operator",
          "type": "address"
        },
        {
          "internalType": "address",
          "name": "",
          "type": "address"
        },
        {
          "internalType": "uint256[]",
          "name": "",
          "type": "uint256[]"
        },
        {
          "internalType": "uint256[]",
          "name": "",
          "type": "uint256[]"
        },
        {
          "internalType": "bytes",
          "name": "",
          "type": "bytes"
        }
      ],
      "name": "onERC1155BatchReceived",
      "outputs": [
        {
          "internalType": "bytes4",
          "name": "",
          "type": "bytes4"
        }
      ],
      "stateMutability": "view",
      "type": "function",
      "constant": true
    },
    {
      "inputs": [
        {
          "internalType": "bytes4",
          "name": "",
          "type": "bytes4"
        }
      ],
      "name": "supportsInterface",
      "outputs": [
        {
          "internalType": "bool",
          "name": "",
          "type": "bool"
        }
      ],
      "stateMutability": "pure",
      "type": "function",
      "constant": true
    }
  ],
  "bytecode": "0x608060405234801561001057600080fd5b50613634806100206000396000f3fe608060405234801561001057600080fd5b50600436106101585760003560e01c80638da5cb5b116100c3578063c13aa7b51161007c578063c13aa7b5146103a0578063c4d66de8146103d0578063e76eed87146103ec578063f23a6e611461041c578063f2fde38b1461044c578063fce41b1a1461046857610158565b80638da5cb5b146102e057806392c405b6146102fe57806399fd1ddf1461031a5780639abcb22e14610338578063a83a720214610354578063bc197c811461037057610158565b8063715018a611610115578063715018a61461021d57806377021b20146102275780637befa74f1461025757806383919f6f146102735780638456cb59146102a6578063893313a2146102b057610158565b806301ffc9a71461015d5780633f4ba83a1461018d5780634a54cc46146101975780635b6ce692146101c75780635c975abb146101e35780636637b88214610201575b600080fd5b610177600480360381019061017291906124ab565b610498565b60405161018491906124f3565b60405180910390f35b61019561049f565b005b6101b160048036038101906101ac91906125db565b6104b1565b6040516101be9190612647565b60405180910390f35b6101e160048036038101906101dc91906127bb565b610633565b005b6101eb610766565b6040516101f891906124f3565b60405180910390f35b61021b60048036038101906102169190612817565b61077d565b005b61022561083d565b005b610241600480360381019061023c9190612844565b6108c5565b60405161024e9190612893565b60405180910390f35b610271600480360381019061026c91906125db565b610946565b005b61028d60048036038101906102889190612844565b611005565b60405161029d94939291906128f1565b60405180910390f35b6102ae611085565b005b6102ca60048036038101906102c591906125db565b611097565b6040516102d791906124f3565b60405180910390f35b6102e8611203565b6040516102f59190612936565b60405180910390f35b61031860048036038101906103139190612951565b61122d565b005b61032261133e565b60405161032f919061299a565b60405180910390f35b610352600480360381019061034d91906125db565b611351565b005b61036e60048036038101906103699190612951565b611a6c565b005b61038a60048036038101906103859190612a66565b611b7d565b6040516103979190612b51565b60405180910390f35b6103ba60048036038101906103b59190612817565b611c03565b6040516103c791906124f3565b60405180910390f35b6103ea60048036038101906103e59190612817565b611c59565b005b61040660048036038101906104019190612b6c565b611d8f565b6040516104139190612893565b60405180910390f35b61043660048036038101906104319190612b99565b611da7565b6040516104439190612b51565b60405180910390f35b61046660048036038101906104619190612817565b611e2b565b005b610482600480360381019061047d9190612844565b611f23565b60405161048f9190612893565b60405180910390f35b6000919050565b6104a7611fe7565b6104af612079565b565b6000803073ffffffffffffffffffffffffffffffffffffffff166377021b2086866040518363ffffffff1660e01b81526004016104ef929190612c33565b602060405180830381865afa15801561050c573d6000803e3d6000fd5b505050506040513d601f19601f820116820180604052508101906105309190612c71565b905060003073ffffffffffffffffffffffffffffffffffffffff1663fce41b1a87876040518363ffffffff1660e01b815260040161056f929190612c33565b602060405180830381865afa15801561058c573d6000803e3d6000fd5b505050506040513d601f19601f820116820180604052508101906105b09190612c71565b90508382106105eb57600b846001846105c99190612ccd565b6105d39190612d23565b146105df5760016105e2565b60025b9250505061062c565b81846105f79190612d23565b811015610624577fffffffffffffffffffffffffffffffffffffffffffffffffffffffffffffffff610627565b60005b925050505b9392505050565b61063b61211b565b73ffffffffffffffffffffffffffffffffffffffff16610659611203565b73ffffffffffffffffffffffffffffffffffffffff16146106af576040517f08c379a00000000000000000000000000000000000000000000000000000000081526004016106a690612db4565b60405180910390fd5b8160cf60006101000a81548160ff021916908360ff16021790555060005b8151811015610761578181815181106106e9576106e8612dd4565b5b602002602001015160ce60006001846107029190612ccd565b815260200190815260200160002060006101000a81548173ffffffffffffffffffffffffffffffffffffffff021916908373ffffffffffffffffffffffffffffffffffffffff160217905550808061075990612e03565b9150506106cd565b505050565b6000603360009054906101000a900460ff16905090565b61078561211b565b73ffffffffffffffffffffffffffffffffffffffff166107a3611203565b73ffffffffffffffffffffffffffffffffffffffff16146107f9576040517f08c379a00000000000000000000000000000000000000000000000000000000081526004016107f090612db4565b60405180910390fd5b8060c960006101000a81548173ffffffffffffffffffffffffffffffffffffffff021916908373ffffffffffffffffffffffffffffffffffffffff16021790555050565b61084561211b565b73ffffffffffffffffffffffffffffffffffffffff16610863611203565b73ffffffffffffffffffffffffffffffffffffffff16146108b9576040517f08c379a00000000000000000000000000000000000000000000000000000000081526004016108b090612db4565b60405180910390fd5b6108c36000612123565b565b600060cf60009054906101000a900460ff1660ff1660cc60008573ffffffffffffffffffffffffffffffffffffffff1673ffffffffffffffffffffffffffffffffffffffff16815260200190815260200160002060008460ff1660ff1681526020019081526020016000206001015461093e9190612e4c565b905092915050565b6002609754141561098c576040517f08c379a000000000000000000000000000000000000000000000000000000000815260040161098390612ef2565b60405180910390fd5b600260978190555061099c610766565b156109dc576040517f08c379a00000000000000000000000000000000000000000000000000000000081526004016109d390612f5e565b60405180910390fd5b6109e461211b565b73ffffffffffffffffffffffffffffffffffffffff163273ffffffffffffffffffffffffffffffffffffffff16148015610a505750610a2161211b565b73ffffffffffffffffffffffffffffffffffffffff168373ffffffffffffffffffffffffffffffffffffffff16145b80610aab575060ca6000610a6261211b565b73ffffffffffffffffffffffffffffffffffffffff1673ffffffffffffffffffffffffffffffffffffffff16815260200190815260200160002060009054906101000a900460ff165b610aea576040517f08c379a0000000000000000000000000000000000000000000000000000000008152600401610ae190612fca565b60405180910390fd5b8060cb60009054906101000a900473ffffffffffffffffffffffffffffffffffffffff1673ffffffffffffffffffffffffffffffffffffffff1662fdd58e85856040518363ffffffff1660e01b8152600401610b47929190613025565b602060405180830381865afa158015610b64573d6000803e3d6000fd5b505050506040513d601f19601f82011682018060405250810190610b889190612c71565b1015610bc9576040517f08c379a0000000000000000000000000000000000000000000000000000000008152600401610bc09061309a565b60405180910390fd5b600060cc60008573ffffffffffffffffffffffffffffffffffffffff1673ffffffffffffffffffffffffffffffffffffffff16815260200190815260200160002060008460ff1660ff1681526020019081526020016000206040518060800160405290816000820160009054906101000a900473ffffffffffffffffffffffffffffffffffffffff1673ffffffffffffffffffffffffffffffffffffffff1673ffffffffffffffffffffffffffffffffffffffff1681526020016000820160149054906101000a900460ff1660ff1660ff168152602001600182015481526020016002820160009054906101000a900469ffffffffffffffffffff1669ffffffffffffffffffff1669ffffffffffffffffffff16815250509050600081604001511115610d65578160cc60008673ffffffffffffffffffffffffffffffffffffffff1673ffffffffffffffffffffffffffffffffffffffff16815260200190815260200160002060008560ff1660ff1681526020019081526020016000206001016000828254610d599190612ccd565b92505081905550610eaa565b60405180608001604052808573ffffffffffffffffffffffffffffffffffffffff1681526020018460ff1681526020018381526020014269ffffffffffffffffffff1681525060cc60008673ffffffffffffffffffffffffffffffffffffffff1673ffffffffffffffffffffffffffffffffffffffff16815260200190815260200160002060008560ff1660ff16815260200190815260200160002060008201518160000160006101000a81548173ffffffffffffffffffffffffffffffffffffffff021916908373ffffffffffffffffffffffffffffffffffffffff16021790555060208201518160000160146101000a81548160ff021916908360ff1602179055506040820151816001015560608201518160020160006101000a81548169ffffffffffffffffffff021916908369ffffffffffffffffffff1602179055509050505b8160cd60008560ff1660ff1681526020019081526020016000206000828254610ed39190612ccd565b9250508190555060cb60009054906101000a900473ffffffffffffffffffffffffffffffffffffffff1673ffffffffffffffffffffffffffffffffffffffff1663f242432a85308686600067ffffffffffffffff811115610f3757610f36612678565b5b6040519080825280601f01601f191660200182016040528015610f695781602001600182028036833780820191505090505b506040518663ffffffff1660e01b8152600401610f8a959493929190613142565b600060405180830381600087803b158015610fa457600080fd5b505af1158015610fb8573d6000803e3d6000fd5b505050507faa90482dd1bf6ef947e4a1f8c7c6aeeb61dc4c12d8ef616bcf20cfa8e7078017848484604051610fef9392919061319c565b60405180910390a1506001609781905550505050565b60cc602052816000526040600020602052806000526040600020600091509150508060000160009054906101000a900473ffffffffffffffffffffffffffffffffffffffff16908060000160149054906101000a900460ff16908060010154908060020160009054906101000a900469ffffffffffffffffffff16905084565b61108d611fe7565b6110956121e9565b565b6000803073ffffffffffffffffffffffffffffffffffffffff166377021b2086866040518363ffffffff1660e01b81526004016110d5929190612c33565b602060405180830381865afa1580156110f2573d6000803e3d6000fd5b505050506040513d601f19601f820116820180604052508101906111169190612c71565b9050600060ce60008660ff16815260200190815260200160002060009054906101000a900473ffffffffffffffffffffffffffffffffffffffff1673ffffffffffffffffffffffffffffffffffffffff16634c4913ec876040518263ffffffff1660e01b81526004016111899190612936565b602060405180830381865afa1580156111a6573d6000803e3d6000fd5b505050506040513d601f19601f820116820180604052508101906111ca9190612c71565b90508060cf60009054906101000a900460ff1660ff16856111eb9190612e4c565b836111f69190612d23565b1015925050509392505050565b6000606560009054906101000a900473ffffffffffffffffffffffffffffffffffffffff16905090565b61123561211b565b73ffffffffffffffffffffffffffffffffffffffff16611253611203565b73ffffffffffffffffffffffffffffffffffffffff16146112a9576040517f08c379a00000000000000000000000000000000000000000000000000000000081526004016112a090612db4565b60405180910390fd5b60005b815181101561133a57600060ca60008484815181106112ce576112cd612dd4565b5b602002602001015173ffffffffffffffffffffffffffffffffffffffff1673ffffffffffffffffffffffffffffffffffffffff16815260200190815260200160002060006101000a81548160ff021916908315150217905550808061133290612e03565b9150506112ac565b5050565b60cf60009054906101000a900460ff1681565b60026097541415611397576040517f08c379a000000000000000000000000000000000000000000000000000000000815260040161138e90612ef2565b60405180910390fd5b60026097819055506113a7610766565b156113e7576040517f08c379a00000000000000000000000000000000000000000000000000000000081526004016113de90612f5e565b60405180910390fd5b6113ef61211b565b73ffffffffffffffffffffffffffffffffffffffff163273ffffffffffffffffffffffffffffffffffffffff1614801561145b575061142c61211b565b73ffffffffffffffffffffffffffffffffffffffff168373ffffffffffffffffffffffffffffffffffffffff16145b806114b6575060ca600061146d61211b565b73ffffffffffffffffffffffffffffffffffffffff1673ffffffffffffffffffffffffffffffffffffffff16815260200190815260200160002060009054906101000a900460ff165b6114f5576040517f08c379a00000000000000000000000000000000000000000000000000000000081526004016114ec90612fca565b60405180910390fd5b600060cc60008573ffffffffffffffffffffffffffffffffffffffff1673ffffffffffffffffffffffffffffffffffffffff16815260200190815260200160002060008460ff1660ff1681526020019081526020016000206040518060800160405290816000820160009054906101000a900473ffffffffffffffffffffffffffffffffffffffff1673ffffffffffffffffffffffffffffffffffffffff1673ffffffffffffffffffffffffffffffffffffffff1681526020016000820160149054906101000a900460ff1660ff1660ff168152602001600182015481526020016002820160009054906101000a900469ffffffffffffffffffff1669ffffffffffffffffffff1669ffffffffffffffffffff168152505090508373ffffffffffffffffffffffffffffffffffffffff16816000015173ffffffffffffffffffffffffffffffffffffffff1614611681576040517f08c379a00000000000000000000000000000000000000000000000000000000081526004016116789061321f565b60405180910390fd5b81816040015110156116c8576040517f08c379a00000000000000000000000000000000000000000000000000000000081526004016116bf9061309a565b60405180910390fd5b3073ffffffffffffffffffffffffffffffffffffffff1663893313a28585856040518463ffffffff1660e01b81526004016117059392919061319c565b602060405180830381865afa158015611722573d6000803e3d6000fd5b505050506040513d601f19601f82011682018060405250810190611746919061326b565b611785576040517f08c379a000000000000000000000000000000000000000000000000000000000815260040161177c906132e4565b60405180910390fd5b8160cd60008560ff1660ff16815260200190815260200160002060008282546117ae9190612d23565b925050819055508160cc60008673ffffffffffffffffffffffffffffffffffffffff1673ffffffffffffffffffffffffffffffffffffffff16815260200190815260200160002060008560ff1660ff168152602001908152602001600020600101600082825461181e9190612d23565b92505081905550600060cc60008673ffffffffffffffffffffffffffffffffffffffff1673ffffffffffffffffffffffffffffffffffffffff16815260200190815260200160002060008560ff1660ff1681526020019081526020016000206001015414156119415760cc60008573ffffffffffffffffffffffffffffffffffffffff1673ffffffffffffffffffffffffffffffffffffffff16815260200190815260200160002060008460ff1660ff168152602001908152602001600020600080820160006101000a81549073ffffffffffffffffffffffffffffffffffffffff02191690556000820160146101000a81549060ff021916905560018201600090556002820160006101000a81549069ffffffffffffffffffff021916905550505b60cb60009054906101000a900473ffffffffffffffffffffffffffffffffffffffff1673ffffffffffffffffffffffffffffffffffffffff1663f242432a30868686600067ffffffffffffffff81111561199e5761199d612678565b5b6040519080825280601f01601f1916602001820160405280156119d05781602001600182028036833780820191505090505b506040518663ffffffff1660e01b81526004016119f1959493929190613142565b600060405180830381600087803b158015611a0b57600080fd5b505af1158015611a1f573d6000803e3d6000fd5b505050507ffd7ca8eac3b06a6cfbb299fc5be43a3554c02af2568ac1c5fc11a5d8bec2da8e848484604051611a569392919061319c565b60405180910390a1506001609781905550505050565b611a7461211b565b73ffffffffffffffffffffffffffffffffffffffff16611a92611203565b73ffffffffffffffffffffffffffffffffffffffff1614611ae8576040517f08c379a0000000000000000000000000000000000000000000000000000000008152600401611adf90612db4565b60405180910390fd5b60005b8151811015611b7957600160ca6000848481518110611b0d57611b0c612dd4565b5b602002602001015173ffffffffffffffffffffffffffffffffffffffff1673ffffffffffffffffffffffffffffffffffffffff16815260200190815260200160002060006101000a81548160ff0219169083151502179055508080611b7190612e03565b915050611aeb565b5050565b60003073ffffffffffffffffffffffffffffffffffffffff168973ffffffffffffffffffffffffffffffffffffffff1614611bed576040517f08c379a0000000000000000000000000000000000000000000000000000000008152600401611be490613350565b60405180910390fd5b63bc197c8160e01b905098975050505050505050565b600060ca60008373ffffffffffffffffffffffffffffffffffffffff1673ffffffffffffffffffffffffffffffffffffffff16815260200190815260200160002060009054906101000a900460ff169050919050565b600060019054906101000a900460ff16611c815760008054906101000a900460ff1615611c8a565b611c8961228c565b5b611cc9576040517f08c379a0000000000000000000000000000000000000000000000000000000008152600401611cc0906133e2565b60405180910390fd5b60008060019054906101000a900460ff161590508015611d19576001600060016101000a81548160ff02191690831515021790555060016000806101000a81548160ff0219169083151502179055505b611d2161229d565b611d296122f6565b8160cb60006101000a81548173ffffffffffffffffffffffffffffffffffffffff021916908373ffffffffffffffffffffffffffffffffffffffff1602179055508015611d8b5760008060016101000a81548160ff0219169083151502179055505b5050565b60cd6020528060005260406000206000915090505481565b60003073ffffffffffffffffffffffffffffffffffffffff168773ffffffffffffffffffffffffffffffffffffffff1614611e17576040517f08c379a0000000000000000000000000000000000000000000000000000000008152600401611e0e90613350565b60405180910390fd5b63f23a6e6160e01b90509695505050505050565b611e3361211b565b73ffffffffffffffffffffffffffffffffffffffff16611e51611203565b73ffffffffffffffffffffffffffffffffffffffff1614611ea7576040517f08c379a0000000000000000000000000000000000000000000000000000000008152600401611e9e90612db4565b60405180910390fd5b600073ffffffffffffffffffffffffffffffffffffffff168173ffffffffffffffffffffffffffffffffffffffff161415611f17576040517f08c379a0000000000000000000000000000000000000000000000000000000008152600401611f0e90613474565b60405180910390fd5b611f2081612123565b50565b600060cf60009054906101000a900460ff1660ff1660cb60009054906101000a900473ffffffffffffffffffffffffffffffffffffffff1673ffffffffffffffffffffffffffffffffffffffff1662fdd58e85856040518363ffffffff1660e01b8152600401611f94929190613025565b602060405180830381865afa158015611fb1573d6000803e3d6000fd5b505050506040513d601f19601f82011682018060405250810190611fd59190612c71565b611fdf9190612e4c565b905092915050565b60c960009054906101000a900473ffffffffffffffffffffffffffffffffffffffff1673ffffffffffffffffffffffffffffffffffffffff163373ffffffffffffffffffffffffffffffffffffffff1614612077576040517f08c379a000000000000000000000000000000000000000000000000000000000815260040161206e906134e0565b60405180910390fd5b565b612081610766565b6120c0576040517f08c379a00000000000000000000000000000000000000000000000000000000081526004016120b79061354c565b60405180910390fd5b6000603360006101000a81548160ff0219169083151502179055507f5db9ee0a495bf2e6ff9c91a7834c1ba4fdd244a5e8aa4e537bd38aeae4b073aa61210461211b565b6040516121119190612936565b60405180910390a1565b600033905090565b6000606560009054906101000a900473ffffffffffffffffffffffffffffffffffffffff16905081606560006101000a81548173ffffffffffffffffffffffffffffffffffffffff021916908373ffffffffffffffffffffffffffffffffffffffff1602179055508173ffffffffffffffffffffffffffffffffffffffff168173ffffffffffffffffffffffffffffffffffffffff167f8be0079c531659141344cd1fd0a4f28419497f9722a3daafe3b4186f6b6457e060405160405180910390a35050565b6121f1610766565b15612231576040517f08c379a000000000000000000000000000000000000000000000000000000000815260040161222890612f5e565b60405180910390fd5b6001603360006101000a81548160ff0219169083151502179055507f62e78cea01bee320cd4e420270b5ea74000d11b0c9f74754ebdbfc544b05a25861227561211b565b6040516122829190612936565b60405180910390a1565b60006122973061234f565b15905090565b600060019054906101000a900460ff166122ec576040517f08c379a00000000000000000000000000000000000000000000000000000000081526004016122e3906135de565b60405180910390fd5b6122f4612372565b565b600060019054906101000a900460ff16612345576040517f08c379a000000000000000000000000000000000000000000000000000000000815260040161233c906135de565b60405180910390fd5b61234d6123d3565b565b6000808273ffffffffffffffffffffffffffffffffffffffff163b119050919050565b600060019054906101000a900460ff166123c1576040517f08c379a00000000000000000000000000000000000000000000000000000000081526004016123b8906135de565b60405180910390fd5b6123d16123cc61211b565b612123565b565b600060019054906101000a900460ff16612422576040517f08c379a0000000000000000000000000000000000000000000000000000000008152600401612419906135de565b60405180910390fd5b6000603360006101000a81548160ff021916908315150217905550565b6000604051905090565b600080fd5b600080fd5b60007fffffffff0000000000000000000000000000000000000000000000000000000082169050919050565b61248881612453565b811461249357600080fd5b50565b6000813590506124a58161247f565b92915050565b6000602082840312156124c1576124c0612449565b5b60006124cf84828501612496565b91505092915050565b60008115159050919050565b6124ed816124d8565b82525050565b600060208201905061250860008301846124e4565b92915050565b600073ffffffffffffffffffffffffffffffffffffffff82169050919050565b60006125398261250e565b9050919050565b6125498161252e565b811461255457600080fd5b50565b60008135905061256681612540565b92915050565b600060ff82169050919050565b6125828161256c565b811461258d57600080fd5b50565b60008135905061259f81612579565b92915050565b6000819050919050565b6125b8816125a5565b81146125c357600080fd5b50565b6000813590506125d5816125af565b92915050565b6000806000606084860312156125f4576125f3612449565b5b600061260286828701612557565b935050602061261386828701612590565b9250506040612624868287016125c6565b9150509250925092565b6000819050919050565b6126418161262e565b82525050565b600060208201905061265c6000830184612638565b92915050565b600080fd5b6000601f19601f8301169050919050565b7f4e487b7100000000000000000000000000000000000000000000000000000000600052604160045260246000fd5b6126b082612667565b810181811067ffffffffffffffff821117156126cf576126ce612678565b5b80604052505050565b60006126e261243f565b90506126ee82826126a7565b919050565b600067ffffffffffffffff82111561270e5761270d612678565b5b602082029050602081019050919050565b600080fd5b6000612737612732846126f3565b6126d8565b9050808382526020820190506020840283018581111561275a5761275961271f565b5b835b81811015612783578061276f8882612557565b84526020840193505060208101905061275c565b5050509392505050565b600082601f8301126127a2576127a1612662565b5b81356127b2848260208601612724565b91505092915050565b600080604083850312156127d2576127d1612449565b5b60006127e085828601612590565b925050602083013567ffffffffffffffff8111156128015761280061244e565b5b61280d8582860161278d565b9150509250929050565b60006020828403121561282d5761282c612449565b5b600061283b84828501612557565b91505092915050565b6000806040838503121561285b5761285a612449565b5b600061286985828601612557565b925050602061287a85828601612590565b9150509250929050565b61288d816125a5565b82525050565b60006020820190506128a86000830184612884565b92915050565b6128b78161252e565b82525050565b6128c68161256c565b82525050565b600069ffffffffffffffffffff82169050919050565b6128eb816128cc565b82525050565b600060808201905061290660008301876128ae565b61291360208301866128bd565b6129206040830185612884565b61292d60608301846128e2565b95945050505050565b600060208201905061294b60008301846128ae565b92915050565b60006020828403121561296757612966612449565b5b600082013567ffffffffffffffff8111156129855761298461244e565b5b6129918482850161278d565b91505092915050565b60006020820190506129af60008301846128bd565b92915050565b600080fd5b60008083601f8401126129d0576129cf612662565b5b8235905067ffffffffffffffff8111156129ed576129ec6129b5565b5b602083019150836020820283011115612a0957612a0861271f565b5b9250929050565b60008083601f840112612a2657612a25612662565b5b8235905067ffffffffffffffff811115612a4357612a426129b5565b5b602083019150836001820283011115612a5f57612a5e61271f565b5b9250929050565b60008060008060008060008060a0898b031215612a8657612a85612449565b5b6000612a948b828c01612557565b9850506020612aa58b828c01612557565b975050604089013567ffffffffffffffff811115612ac657612ac561244e565b5b612ad28b828c016129ba565b9650965050606089013567ffffffffffffffff811115612af557612af461244e565b5b612b018b828c016129ba565b9450945050608089013567ffffffffffffffff811115612b2457612b2361244e565b5b612b308b828c01612a10565b92509250509295985092959890939650565b612b4b81612453565b82525050565b6000602082019050612b666000830184612b42565b92915050565b600060208284031215612b8257612b81612449565b5b6000612b9084828501612590565b91505092915050565b60008060008060008060a08789031215612bb657612bb5612449565b5b6000612bc489828a01612557565b9650506020612bd589828a01612557565b9550506040612be689828a016125c6565b9450506060612bf789828a016125c6565b935050608087013567ffffffffffffffff811115612c1857612c1761244e565b5b612c2489828a01612a10565b92509250509295509295509295565b6000604082019050612c4860008301856128ae565b612c5560208301846128bd565b9392505050565b600081519050612c6b816125af565b92915050565b600060208284031215612c8757612c86612449565b5b6000612c9584828501612c5c565b91505092915050565b7f4e487b7100000000000000000000000000000000000000000000000000000000600052601160045260246000fd5b6000612cd8826125a5565b9150612ce3836125a5565b9250827fffffffffffffffffffffffffffffffffffffffffffffffffffffffffffffffff03821115612d1857612d17612c9e565b5b828201905092915050565b6000612d2e826125a5565b9150612d39836125a5565b925082821015612d4c57612d4b612c9e565b5b828203905092915050565b600082825260208201905092915050565b7f4f776e61626c653a2063616c6c6572206973206e6f7420746865206f776e6572600082015250565b6000612d9e602083612d57565b9150612da982612d68565b602082019050919050565b60006020820190508181036000830152612dcd81612d91565b9050919050565b7f4e487b7100000000000000000000000000000000000000000000000000000000600052603260045260246000fd5b6000612e0e826125a5565b91507fffffffffffffffffffffffffffffffffffffffffffffffffffffffffffffffff821415612e4157612e40612c9e565b5b600182019050919050565b6000612e57826125a5565b9150612e62836125a5565b9250817fffffffffffffffffffffffffffffffffffffffffffffffffffffffffffffffff0483118215151615612e9b57612e9a612c9e565b5b828202905092915050565b7f5265656e7472616e637947756172643a207265656e7472616e742063616c6c00600082015250565b6000612edc601f83612d57565b9150612ee782612ea6565b602082019050919050565b60006020820190508181036000830152612f0b81612ecf565b9050919050565b7f5061757361626c653a2070617573656400000000000000000000000000000000600082015250565b6000612f48601083612d57565b9150612f5382612f12565b602082019050919050565b60006020820190508181036000830152612f7781612f3b565b9050919050565b7f454f41206f6e6c79000000000000000000000000000000000000000000000000600082015250565b6000612fb4600883612d57565b9150612fbf82612f7e565b602082019050919050565b60006020820190508181036000830152612fe381612fa7565b9050919050565b6000819050919050565b600061300f61300a6130058461256c565b612fea565b6125a5565b9050919050565b61301f81612ff4565b82525050565b600060408201905061303a60008301856128ae565b6130476020830184613016565b9392505050565b7f496e73756666696369656e7420746f6b656e7300000000000000000000000000600082015250565b6000613084601383612d57565b915061308f8261304e565b602082019050919050565b600060208201905081810360008301526130b381613077565b9050919050565b600081519050919050565b600082825260208201905092915050565b60005b838110156130f45780820151818401526020810190506130d9565b83811115613103576000848401525b50505050565b6000613114826130ba565b61311e81856130c5565b935061312e8185602086016130d6565b61313781612667565b840191505092915050565b600060a08201905061315760008301886128ae565b61316460208301876128ae565b6131716040830186613016565b61317e6060830185612884565b81810360808301526131908184613109565b90509695505050505050565b60006060820190506131b160008301866128ae565b6131be60208301856128bd565b6131cb6040830184612884565b949350505050565b7f4e6f7420796f757220746f6b656e000000000000000000000000000000000000600082015250565b6000613209600e83612d57565b9150613214826131d3565b602082019050919050565b60006020820190508181036000830152613238816131fc565b9050919050565b613248816124d8565b811461325357600080fd5b50565b6000815190506132658161323f565b92915050565b60006020828403121561328157613280612449565b5b600061328f84828501613256565b91505092915050565b7f5374696c6c20696e207573650000000000000000000000000000000000000000600082015250565b60006132ce600c83612d57565b91506132d982613298565b602082019050919050565b600060208201905081810360008301526132fd816132c1565b9050919050565b7f43616e6e6f742073656e6420746f6b656e73206469726563746c790000000000600082015250565b600061333a601b83612d57565b915061334582613304565b602082019050919050565b600060208201905081810360008301526133698161332d565b9050919050565b7f496e697469616c697a61626c653a20636f6e747261637420697320616c72656160008201527f647920696e697469616c697a6564000000000000000000000000000000000000602082015250565b60006133cc602e83612d57565b91506133d782613370565b604082019050919050565b600060208201905081810360008301526133fb816133bf565b9050919050565b7f4f776e61626c653a206e6577206f776e657220697320746865207a65726f206160008201527f6464726573730000000000000000000000000000000000000000000000000000602082015250565b600061345e602683612d57565b915061346982613402565b604082019050919050565b6000602082019050818103600083015261348d81613451565b9050919050565b7f4f6e6c792044414f2063616e2065786563757465000000000000000000000000600082015250565b60006134ca601483612d57565b91506134d582613494565b602082019050919050565b600060208201905081810360008301526134f9816134bd565b9050919050565b7f5061757361626c653a206e6f7420706175736564000000000000000000000000600082015250565b6000613536601483612d57565b915061354182613500565b602082019050919050565b6000602082019050818103600083015261356581613529565b9050919050565b7f496e697469616c697a61626c653a20636f6e7472616374206973206e6f74206960008201527f6e697469616c697a696e67000000000000000000000000000000000000000000602082015250565b60006135c8602b83612d57565b91506135d38261356c565b604082019050919050565b600060208201905081810360008301526135f7816135bb565b905091905056fea2646970667358221220826b3e3d6fffc024c7a6af4e09786b4af81071ca34ce725133e5ab8d413780bc64736f6c634300080a0033",
  "immutableReferences": {},
  "source": "// SPDX-License-Identifier: MIT\n\npragma solidity ^0.8.0;\n\nimport \"@openzeppelin/contracts-upgradeable/proxy/utils/Initializable.sol\";\nimport \"@openzeppelin/contracts-upgradeable/access/OwnableUpgradeable.sol\";\nimport \"@openzeppelin/contracts-upgradeable/security/ReentrancyGuardUpgradeable.sol\";\nimport \"@openzeppelin/contracts-upgradeable/token/ERC1155/IERC1155ReceiverUpgradeable.sol\";\nimport \"./IKitchenUsage.sol\";\nimport \"./GenericPausable.sol\";\nimport \"./ControllableUpgradeable.sol\";\nimport \"./KitchenShop.sol\";\nimport \"./IVenue.sol\";\n\ncontract KitchenUsage is IKitchenUsage, Initializable, OwnableUpgradeable, ReentrancyGuardUpgradeable, GenericPausable, ControllableUpgradeable, IERC1155ReceiverUpgradeable {\n  KitchenShop kitchenShop;\n\n  event KitchenStaked(address owner, uint8 kitchenId, uint256 amount);\n  event KitchenClaimed(address owner, uint8 kitchenId, uint256 amount);\n\n  mapping(address => mapping(uint8 => Stake)) public stakers; // Maps address to a map of kitchenId to staking positions\n  mapping(uint8 => uint256) public totalKitchensStaked; // Maps kitchenId to amount of kitchens staked\n  mapping(uint256 => IVenue) venues; // Maps kitchenId to venue address\n  uint8 public chefsPerKitchen;\n\n  function initialize(\n    address _kitchenShop\n  ) external initializer {\n    __Ownable_init();\n    __Pausable_init();\n\n    kitchenShop = KitchenShop(_kitchenShop);\n  }\n\n  /**\n   * Allows DAO to update game parameters\n   */\n  function configure(uint8 _chefsPerKitchen, address[] memory _venues) external onlyOwner {\n    chefsPerKitchen = _chefsPerKitchen;\n    for (uint i = 0; i < _venues.length; i++) {\n      venues[i + 1] = IVenue(_venues[i]);\n    }\n  }\n\n  /**\n   * Adds Kitchens to staking\n   * @param account - User wallet address\n   * @param kitchenId - The ID of the kitchen\n   * @param amount - The amount of kitchens to stake\n   */\n  function stake(address account, uint8 kitchenId, uint256 amount) external nonReentrant whenNotPaused {\n    require((tx.origin == _msgSender() && account == _msgSender()) || controllers[_msgSender()], \"EOA only\");\n    require(kitchenShop.balanceOf(account, kitchenId) >= amount, \"Insufficient tokens\");\n    Stake memory position = stakers[account][kitchenId];\n    if (position.amount > 0) {\n      stakers[account][kitchenId].amount += amount;\n    } else {\n      stakers[account][kitchenId] = Stake({\n        owner: account,\n        kitchenId: kitchenId,\n        amount: amount,\n        timestamp: uint80(block.timestamp)\n      });\n    }\n    totalKitchensStaked[kitchenId] += amount;\n    kitchenShop.safeTransferFrom(account, address(this), kitchenId, amount, new bytes(0));\n    emit KitchenStaked(account, kitchenId, amount);\n  }\n\n  /**\n   * Claims a kitchen from staking\n   * @param account - User wallet address\n   * @param kitchenId - The ID of the kitchen\n   * @param amount - The amount of kitchens to stake\n   */\n  function claim(address account, uint8 kitchenId, uint256 amount) external nonReentrant whenNotPaused {\n    require((tx.origin == _msgSender() && account == _msgSender()) || controllers[_msgSender()], \"EOA only\");\n    Stake memory position = stakers[account][kitchenId];\n    require(position.owner == account, \"Not your token\");\n    require(position.amount >= amount, \"Insufficient tokens\");\n    require(this.checkUsage(account, kitchenId, amount), \"Still in use\");\n\n    totalKitchensStaked[kitchenId] -= amount;\n    stakers[account][kitchenId].amount -= amount;\n    if (stakers[account][kitchenId].amount == 0) {\n      delete stakers[account][kitchenId];\n    }\n\n    kitchenShop.safeTransferFrom(address(this), account, kitchenId, amount, new bytes(0));\n    emit KitchenClaimed(account, kitchenId, amount);\n  }\n\n  /**\n   * Returns the amount of available kitchen space in wallet\n   * @param account - User wallet address\n   * @param kitchenId - Kitchen type\n   * @return Amount of available kitchen space\n   */\n  function spaceInWallet(address account, uint8 kitchenId) external view returns (uint256) {\n    return kitchenShop.balanceOf(account, kitchenId) * chefsPerKitchen;\n  }\n\n  /**\n   * Returns the amount of available kitchen space in staking\n   * @param account - User wallet address\n   * @param kitchenId - Kitchen type\n   * @return Amount of available kitchen space\n   */\n  function spaceInStaking(address account, uint8 kitchenId) external view returns (uint256) {\n    return stakers[account][kitchenId].amount * chefsPerKitchen;\n  }\n\n  /**\n   * Checks if there is kitchen space for the given amount of chefs (rats have no limit)\n   * @param account - User wallet address\n   * @param kitchenId - Kitchen type\n   * @param spaceUsed - Amount of space in use by chefs\n   * @return Amount of kitchen space in staking, 0 if (all is in use but) available in wallet, -1 if out of kitchen space\n   */\n  function checkSpace(address account, uint8 kitchenId, uint256 spaceUsed) external view returns (int256) {\n    uint256 inStaking = this.spaceInStaking(account, kitchenId);\n    uint256 inWallet = this.spaceInWallet(account, kitchenId);\n    if (inStaking >= spaceUsed) {\n      return inStaking + 1 - spaceUsed == 11 ? int256(2) : int256(1); // 1 is the minimum, additional kitchen space does not need to be staked yet\n    }\n    return inWallet >= spaceUsed - inStaking ? int256(0) : int256(-1);\n  }\n\n  /**\n   * Checks if the staked kitchen space is sufficient for staked chefs and returns an identifier\n   * @param account - User wallet address\n   * @param kitchenId - Kitchen type\n   * @param amountToRemove - Amount of kitchen space to remove\n   * @return Whether the remaining kitchen space is sufficient\n   *   -  2: Space in staking is not used at all, in fact, a kitchen could be claimed\n   *   -  1: Space in staking is partially used, can not be claimed\n   *   -  0: No space in staking but available in wallet\n   *   - -1: No space available, neither in staking nor in wallet\n   */\n  function checkUsage(address account, uint8 kitchenId, uint256 amountToRemove) external view returns (bool) {\n    uint256 inStaking = this.spaceInStaking(account, kitchenId);\n    uint256 chefsStaked = venues[kitchenId].getChefsStaked(account);\n    return inStaking - (amountToRemove * chefsPerKitchen) >= chefsStaked;\n  }\n\n  /**\n   * IERC1155ReceiverUpgradeable interface: We do not accept tokens sent directly\n   */\n  function onERC1155Received(address operator, address, uint256, uint256, bytes calldata) external view override returns (bytes4) {\n    require(operator == address(this), \"Cannot send tokens directly\");\n    return this.onERC1155Received.selector;\n  }\n\n  /**\n   * IERC1155ReceiverUpgradeable interface: We do not accept tokens sent directly\n   */\n  function onERC1155BatchReceived(address operator, address, uint256[] calldata, uint256[] calldata, bytes calldata) external view override returns (bytes4) {\n    require(operator == address(this), \"Cannot send tokens directly\");\n    return this.onERC1155BatchReceived.selector;\n  }\n\n  /**\n   * IERC1155ReceiverUpgradeable interface: We do not support ERC165 interfaces\n   */\n  function supportsInterface(bytes4) external pure override returns (bool) {\n    return false;\n  }\n}\n",
  "sourcePath": "/Users/chris/workspace/ratalert/ratalert-contracts/contracts/KitchenUsage.sol",
  "compiler": {
    "name": "solc",
    "version": "0.8.10+commit.fc410830.Emscripten.clang"
  },
  "schemaVersion": "3.4.7",
  "updatedAt": "2022-05-25T15:21:24.406Z",
  "networkType": "ethereum",
  "devdoc": {
    "kind": "dev",
    "methods": {
      "addController(address[])": {
        "params": {
          "_controllers": "- The addresses to enable"
        }
      },
      "checkSpace(address,uint8,uint256)": {
        "params": {
          "account": "- User wallet address",
          "kitchenId": "- Kitchen type",
          "spaceUsed": "- Amount of space in use by chefs"
        },
        "returns": {
          "_0": "Amount of kitchen space in staking, 0 if (all is in use but) available in wallet, -1 if out of kitchen space"
        }
      },
      "checkUsage(address,uint8,uint256)": {
        "params": {
          "account": "- User wallet address",
          "amountToRemove": "- Amount of kitchen space to remove",
          "kitchenId": "- Kitchen type"
        },
        "returns": {
          "_0": "Whether the remaining kitchen space is sufficient   -  2: Space in staking is not used at all, in fact, a kitchen could be claimed   -  1: Space in staking is partially used, can not be claimed   -  0: No space in staking but available in wallet   - -1: No space available, neither in staking nor in wallet"
        }
      },
      "claim(address,uint8,uint256)": {
        "params": {
          "account": "- User wallet address",
          "amount": "- The amount of kitchens to stake",
          "kitchenId": "- The ID of the kitchen"
        }
      },
      "controller(address)": {
        "params": {
          "_controller": "- The address to check"
        }
      },
      "owner()": {
        "details": "Returns the address of the current owner."
      },
      "paused()": {
        "details": "Returns true if the contract is paused, and false otherwise."
      },
      "removeController(address[])": {
        "params": {
          "_controllers": "- The addresses to disable"
        }
      },
      "renounceOwnership()": {
        "details": "Leaves the contract without owner. It will not be possible to call `onlyOwner` functions anymore. Can only be called by the current owner. NOTE: Renouncing ownership will leave the contract without an owner, thereby removing any functionality that is only available to the owner."
      },
      "spaceInStaking(address,uint8)": {
        "params": {
          "account": "- User wallet address",
          "kitchenId": "- Kitchen type"
        },
        "returns": {
          "_0": "Amount of available kitchen space"
        }
      },
      "spaceInWallet(address,uint8)": {
        "params": {
          "account": "- User wallet address",
          "kitchenId": "- Kitchen type"
        },
        "returns": {
          "_0": "Amount of available kitchen space"
        }
      },
      "stake(address,uint8,uint256)": {
        "params": {
          "account": "- User wallet address",
          "amount": "- The amount of kitchens to stake",
          "kitchenId": "- The ID of the kitchen"
        }
      },
      "transferOwnership(address)": {
        "details": "Transfers ownership of the contract to a new account (`newOwner`). Can only be called by the current owner."
      }
    },
    "version": 1
  },
  "userdoc": {
    "kind": "user",
    "methods": {
      "addController(address[])": {
        "notice": "Enables multiple addresses to execute"
      },
      "checkSpace(address,uint8,uint256)": {
        "notice": "Checks if there is kitchen space for the given amount of chefs (rats have no limit)"
      },
      "checkUsage(address,uint8,uint256)": {
        "notice": "Checks if the staked kitchen space is sufficient for staked chefs and returns an identifier"
      },
      "claim(address,uint8,uint256)": {
        "notice": "Claims a kitchen from staking"
      },
      "configure(uint8,address[])": {
        "notice": "Allows DAO to update game parameters"
      },
      "controller(address)": {
        "notice": "Gets controller status by address"
      },
      "onERC1155BatchReceived(address,address,uint256[],uint256[],bytes)": {
        "notice": "IERC1155ReceiverUpgradeable interface: We do not accept tokens sent directly"
      },
      "onERC1155Received(address,address,uint256,uint256,bytes)": {
        "notice": "IERC1155ReceiverUpgradeable interface: We do not accept tokens sent directly"
      },
      "removeController(address[])": {
        "notice": "Prevents multiple addresses from executing"
      },
      "spaceInStaking(address,uint8)": {
        "notice": "Returns the amount of available kitchen space in staking"
      },
      "spaceInWallet(address,uint8)": {
        "notice": "Returns the amount of available kitchen space in wallet"
      },
      "stake(address,uint8,uint256)": {
        "notice": "Adds Kitchens to staking"
      },
      "supportsInterface(bytes4)": {
        "notice": "IERC1155ReceiverUpgradeable interface: We do not support ERC165 interfaces"
      }
    },
    "version": 1
  }
}