{
  "contractName": "KitchenShop",
  "abi": [
    {
      "anonymous": false,
      "inputs": [
        {
          "indexed": true,
          "internalType": "address",
          "name": "account",
          "type": "address"
        },
        {
          "indexed": true,
          "internalType": "address",
          "name": "operator",
          "type": "address"
        },
        {
          "indexed": false,
          "internalType": "bool",
          "name": "approved",
          "type": "bool"
        }
      ],
      "name": "ApprovalForAll",
      "type": "event"
    },
    {
      "anonymous": false,
      "inputs": [
        {
          "indexed": true,
          "internalType": "address",
          "name": "previousOwner",
          "type": "address"
        },
        {
          "indexed": true,
          "internalType": "address",
          "name": "newOwner",
          "type": "address"
        }
      ],
      "name": "OwnershipTransferred",
      "type": "event"
    },
    {
      "anonymous": false,
      "inputs": [
        {
          "indexed": false,
          "internalType": "address",
          "name": "account",
          "type": "address"
        }
      ],
      "name": "Paused",
      "type": "event"
    },
    {
      "anonymous": false,
      "inputs": [
        {
          "indexed": true,
          "internalType": "address",
          "name": "operator",
          "type": "address"
        },
        {
          "indexed": true,
          "internalType": "address",
          "name": "from",
          "type": "address"
        },
        {
          "indexed": true,
          "internalType": "address",
          "name": "to",
          "type": "address"
        },
        {
          "indexed": false,
          "internalType": "uint256[]",
          "name": "ids",
          "type": "uint256[]"
        },
        {
          "indexed": false,
          "internalType": "uint256[]",
          "name": "values",
          "type": "uint256[]"
        }
      ],
      "name": "TransferBatch",
      "type": "event"
    },
    {
      "anonymous": false,
      "inputs": [
        {
          "indexed": true,
          "internalType": "address",
          "name": "operator",
          "type": "address"
        },
        {
          "indexed": true,
          "internalType": "address",
          "name": "from",
          "type": "address"
        },
        {
          "indexed": true,
          "internalType": "address",
          "name": "to",
          "type": "address"
        },
        {
          "indexed": false,
          "internalType": "uint256",
          "name": "id",
          "type": "uint256"
        },
        {
          "indexed": false,
          "internalType": "uint256",
          "name": "value",
          "type": "uint256"
        }
      ],
      "name": "TransferSingle",
      "type": "event"
    },
    {
      "anonymous": false,
      "inputs": [
        {
          "indexed": false,
          "internalType": "string",
          "name": "value",
          "type": "string"
        },
        {
          "indexed": true,
          "internalType": "uint256",
          "name": "id",
          "type": "uint256"
        }
      ],
      "name": "URI",
      "type": "event"
    },
    {
      "anonymous": false,
      "inputs": [
        {
          "indexed": false,
          "internalType": "address",
          "name": "account",
          "type": "address"
        }
      ],
      "name": "Unpaused",
      "type": "event"
    },
    {
      "inputs": [
        {
          "internalType": "address",
          "name": "account",
          "type": "address"
        },
        {
          "internalType": "uint256",
          "name": "id",
          "type": "uint256"
        }
      ],
      "name": "balanceOf",
      "outputs": [
        {
          "internalType": "uint256",
          "name": "",
          "type": "uint256"
        }
      ],
      "stateMutability": "view",
      "type": "function",
      "constant": true
    },
    {
      "inputs": [
        {
          "internalType": "address[]",
          "name": "accounts",
          "type": "address[]"
        },
        {
          "internalType": "uint256[]",
          "name": "ids",
          "type": "uint256[]"
        }
      ],
      "name": "balanceOfBatch",
      "outputs": [
        {
          "internalType": "uint256[]",
          "name": "",
          "type": "uint256[]"
        }
      ],
      "stateMutability": "view",
      "type": "function",
      "constant": true
    },
    {
      "inputs": [
        {
          "internalType": "address",
          "name": "account",
          "type": "address"
        },
        {
          "internalType": "address",
          "name": "operator",
          "type": "address"
        }
      ],
      "name": "isApprovedForAll",
      "outputs": [
        {
          "internalType": "bool",
          "name": "",
          "type": "bool"
        }
      ],
      "stateMutability": "view",
      "type": "function",
      "constant": true
    },
    {
      "inputs": [
        {
          "internalType": "uint256",
          "name": "",
          "type": "uint256"
        }
      ],
      "name": "kitchenData",
      "outputs": [
        {
          "internalType": "string",
          "name": "name",
          "type": "string"
        },
        {
          "internalType": "string",
          "name": "png",
          "type": "string"
        }
      ],
      "stateMutability": "view",
      "type": "function",
      "constant": true
    },
    {
      "inputs": [
        {
          "internalType": "uint8",
          "name": "",
          "type": "uint8"
        }
      ],
      "name": "maxTokens",
      "outputs": [
        {
          "internalType": "uint256",
          "name": "",
          "type": "uint256"
        }
      ],
      "stateMutability": "view",
      "type": "function",
      "constant": true
    },
    {
      "inputs": [
        {
          "internalType": "uint8",
          "name": "",
          "type": "uint8"
        }
      ],
      "name": "minSkill",
      "outputs": [
        {
          "internalType": "uint256",
          "name": "",
          "type": "uint256"
        }
      ],
      "stateMutability": "view",
      "type": "function",
      "constant": true
    },
    {
      "inputs": [
        {
          "internalType": "uint8",
          "name": "",
          "type": "uint8"
        }
      ],
      "name": "minted",
      "outputs": [
        {
          "internalType": "uint256",
          "name": "",
          "type": "uint256"
        }
      ],
      "stateMutability": "view",
      "type": "function",
      "constant": true
    },
    {
      "inputs": [],
      "name": "owner",
      "outputs": [
        {
          "internalType": "address",
          "name": "",
          "type": "address"
        }
      ],
      "stateMutability": "view",
      "type": "function",
      "constant": true
    },
    {
      "inputs": [],
      "name": "pause",
      "outputs": [],
      "stateMutability": "nonpayable",
      "type": "function"
    },
    {
      "inputs": [],
      "name": "paused",
      "outputs": [
        {
          "internalType": "bool",
          "name": "",
          "type": "bool"
        }
      ],
      "stateMutability": "view",
      "type": "function",
      "constant": true
    },
    {
      "inputs": [],
      "name": "priceTier0",
      "outputs": [
        {
          "internalType": "uint256",
          "name": "",
          "type": "uint256"
        }
      ],
      "stateMutability": "view",
      "type": "function",
      "constant": true
    },
    {
      "inputs": [],
      "name": "priceTier1",
      "outputs": [
        {
          "internalType": "uint256",
          "name": "",
          "type": "uint256"
        }
      ],
      "stateMutability": "view",
      "type": "function",
      "constant": true
    },
    {
      "inputs": [],
      "name": "priceTier2",
      "outputs": [
        {
          "internalType": "uint256",
          "name": "",
          "type": "uint256"
        }
      ],
      "stateMutability": "view",
      "type": "function",
      "constant": true
    },
    {
      "inputs": [],
      "name": "priceTier3",
      "outputs": [
        {
          "internalType": "uint256",
          "name": "",
          "type": "uint256"
        }
      ],
      "stateMutability": "view",
      "type": "function",
      "constant": true
    },
    {
      "inputs": [],
      "name": "priceTier4",
      "outputs": [
        {
          "internalType": "uint256",
          "name": "",
          "type": "uint256"
        }
      ],
      "stateMutability": "view",
      "type": "function",
      "constant": true
    },
    {
      "inputs": [],
      "name": "renounceOwnership",
      "outputs": [],
      "stateMutability": "nonpayable",
      "type": "function"
    },
    {
      "inputs": [
        {
          "internalType": "address",
          "name": "from",
          "type": "address"
        },
        {
          "internalType": "address",
          "name": "to",
          "type": "address"
        },
        {
          "internalType": "uint256[]",
          "name": "ids",
          "type": "uint256[]"
        },
        {
          "internalType": "uint256[]",
          "name": "amounts",
          "type": "uint256[]"
        },
        {
          "internalType": "bytes",
          "name": "data",
          "type": "bytes"
        }
      ],
      "name": "safeBatchTransferFrom",
      "outputs": [],
      "stateMutability": "nonpayable",
      "type": "function"
    },
    {
      "inputs": [
        {
          "internalType": "address",
          "name": "from",
          "type": "address"
        },
        {
          "internalType": "address",
          "name": "to",
          "type": "address"
        },
        {
          "internalType": "uint256",
          "name": "id",
          "type": "uint256"
        },
        {
          "internalType": "uint256",
          "name": "amount",
          "type": "uint256"
        },
        {
          "internalType": "bytes",
          "name": "data",
          "type": "bytes"
        }
      ],
      "name": "safeTransferFrom",
      "outputs": [],
      "stateMutability": "nonpayable",
      "type": "function"
    },
    {
      "inputs": [
        {
          "internalType": "address",
          "name": "operator",
          "type": "address"
        },
        {
          "internalType": "bool",
          "name": "approved",
          "type": "bool"
        }
      ],
      "name": "setApprovalForAll",
      "outputs": [],
      "stateMutability": "nonpayable",
      "type": "function"
    },
    {
      "inputs": [
        {
          "internalType": "bytes4",
          "name": "interfaceId",
          "type": "bytes4"
        }
      ],
      "name": "supportsInterface",
      "outputs": [
        {
          "internalType": "bool",
          "name": "",
          "type": "bool"
        }
      ],
      "stateMutability": "view",
      "type": "function",
      "constant": true
    },
    {
      "inputs": [
        {
          "internalType": "address",
          "name": "newOwner",
          "type": "address"
        }
      ],
      "name": "transferOwnership",
      "outputs": [],
      "stateMutability": "nonpayable",
      "type": "function"
    },
    {
      "inputs": [],
      "name": "unpause",
      "outputs": [],
      "stateMutability": "nonpayable",
      "type": "function"
    },
    {
      "inputs": [
        {
          "internalType": "address",
          "name": "_fastFood",
          "type": "address"
        },
        {
          "internalType": "address",
          "name": "_casualFood",
          "type": "address"
        },
        {
          "internalType": "address",
          "name": "_character",
          "type": "address"
        }
      ],
      "name": "initialize",
      "outputs": [],
      "stateMutability": "nonpayable",
      "type": "function"
    },
    {
      "inputs": [
        {
          "internalType": "uint256[]",
          "name": "_maxTokens",
          "type": "uint256[]"
        },
        {
          "internalType": "uint8[]",
          "name": "_minSkill",
          "type": "uint8[]"
        },
        {
          "internalType": "uint256[]",
          "name": "_prices",
          "type": "uint256[]"
        }
      ],
      "name": "configure",
      "outputs": [],
      "stateMutability": "nonpayable",
      "type": "function"
    },
    {
      "inputs": [
        {
          "internalType": "uint8",
          "name": "kitchen",
          "type": "uint8"
        },
        {
          "internalType": "uint8",
          "name": "amount",
          "type": "uint8"
        }
      ],
      "name": "mint",
      "outputs": [],
      "stateMutability": "payable",
      "type": "function",
      "payable": true
    },
    {
      "inputs": [
        {
          "internalType": "uint8",
          "name": "kitchen",
          "type": "uint8"
        },
        {
          "internalType": "uint256",
          "name": "tokenId",
          "type": "uint256"
        }
      ],
      "name": "mintCost",
      "outputs": [
        {
          "internalType": "uint256",
          "name": "",
          "type": "uint256"
        }
      ],
      "stateMutability": "view",
      "type": "function",
      "constant": true
    },
    {
      "inputs": [
        {
          "internalType": "uint256",
          "name": "tokenId",
          "type": "uint256"
        }
      ],
      "name": "uri",
      "outputs": [
        {
          "internalType": "string",
          "name": "",
          "type": "string"
        }
      ],
      "stateMutability": "view",
      "type": "function",
      "constant": true
    },
    {
      "inputs": [
        {
          "internalType": "uint256",
          "name": "imageIndex",
          "type": "uint256"
        },
        {
          "components": [
            {
              "internalType": "string",
              "name": "name",
              "type": "string"
            },
            {
              "internalType": "string",
              "name": "png",
              "type": "string"
            }
          ],
          "internalType": "struct KitchenShop.KitchenData",
          "name": "kitchen",
          "type": "tuple"
        }
      ],
      "name": "uploadImage",
      "outputs": [],
      "stateMutability": "nonpayable",
      "type": "function"
    }
  ],
  "bytecode": "0x608060405234801561001057600080fd5b506154d1806100206000396000f3fe6080604052600436106101b65760003560e01c8063715018a6116100ec578063d383d9bb1161008a578063f1a837d011610064578063f1a837d014610623578063f21ec01a1461064e578063f242432a14610679578063f2fde38b146106a2576101b6565b8063d383d9bb1461057d578063e0683ab8146105a8578063e985e9c5146105e6576101b6565b80638da5cb5b116100c65780638da5cb5b146104c3578063a22cb465146104ee578063c0c53b8b14610517578063cc52964114610540576101b6565b8063715018a61461046c5780637d26c78c146104835780638456cb59146104ac576101b6565b80632eb2c2d61161015957806346598ab81161013357806346598ab81461039c5780634d39b654146103d95780634e1273f4146104045780635c975abb14610441576101b6565b80632eb2c2d61461031f5780633e0987f7146103485780633f4ba83a14610385576101b6565b80630e89341c116101955780630e89341c1461027257806329a0eee8146102af5780632aab3d30146102cb5780632e53d474146102f4576101b6565b8062fdd58e146101bb57806301ffc9a7146101f85780630cabd0a614610235575b600080fd5b3480156101c757600080fd5b506101e260048036038101906101dd9190613257565b6106cb565b6040516101ef91906132a6565b60405180910390f35b34801561020457600080fd5b5061021f600480360381019061021a9190613319565b610795565b60405161022c9190613361565b60405180910390f35b34801561024157600080fd5b5061025c600480360381019061025791906133b5565b610877565b60405161026991906132a6565b60405180910390f35b34801561027e57600080fd5b50610299600480360381019061029491906133e2565b610890565b6040516102a691906134a8565b60405180910390f35b6102c960048036038101906102c491906134ca565b610a9e565b005b3480156102d757600080fd5b506102f260048036038101906102ed9190613715565b610ec8565b005b34801561030057600080fd5b506103096110dc565b60405161031691906132a6565b60405180910390f35b34801561032b57600080fd5b5061034660048036038101906103419190613871565b6110e2565b005b34801561035457600080fd5b5061036f600480360381019061036a91906133b5565b611183565b60405161037c91906132a6565b60405180910390f35b34801561039157600080fd5b5061039a61119c565b005b3480156103a857600080fd5b506103c360048036038101906103be9190613940565b611222565b6040516103d091906132a6565b60405180910390f35b3480156103e557600080fd5b506103ee61133f565b6040516103fb91906132a6565b60405180910390f35b34801561041057600080fd5b5061042b60048036038101906104269190613a43565b611345565b6040516104389190613b79565b60405180910390f35b34801561044d57600080fd5b5061045661145e565b6040516104639190613361565b60405180910390f35b34801561047857600080fd5b50610481611475565b005b34801561048f57600080fd5b506104aa60048036038101906104a59190613bbf565b6114fd565b005b3480156104b857600080fd5b506104c1611687565b005b3480156104cf57600080fd5b506104d861170d565b6040516104e59190613c2a565b60405180910390f35b3480156104fa57600080fd5b5061051560048036038101906105109190613c71565b611737565b005b34801561052357600080fd5b5061053e60048036038101906105399190613cb1565b61174d565b005b34801561054c57600080fd5b50610567600480360381019061056291906133b5565b611943565b60405161057491906132a6565b60405180910390f35b34801561058957600080fd5b5061059261195c565b60405161059f91906132a6565b60405180910390f35b3480156105b457600080fd5b506105cf60048036038101906105ca91906133e2565b611963565b6040516105dd929190613d04565b60405180910390f35b3480156105f257600080fd5b5061060d60048036038101906106089190613d3b565b611a98565b60405161061a9190613361565b60405180910390f35b34801561062f57600080fd5b50610638611b2c565b60405161064591906132a6565b60405180910390f35b34801561065a57600080fd5b50610663611b33565b60405161067091906132a6565b60405180910390f35b34801561068557600080fd5b506106a0600480360381019061069b9190613d7b565b611b3a565b005b3480156106ae57600080fd5b506106c960048036038101906106c49190613e12565b611bdb565b005b60008073ffffffffffffffffffffffffffffffffffffffff168373ffffffffffffffffffffffffffffffffffffffff16141561073c576040517f08c379a000000000000000000000000000000000000000000000000000000000815260040161073390613eb1565b60405180910390fd5b60c9600083815260200190815260200160002060008473ffffffffffffffffffffffffffffffffffffffff1673ffffffffffffffffffffffffffffffffffffffff16815260200190815260200160002054905092915050565b60007fd9b67a26000000000000000000000000000000000000000000000000000000007bffffffffffffffffffffffffffffffffffffffffffffffffffffffff1916827bffffffffffffffffffffffffffffffffffffffffffffffffffffffff1916148061086057507f0e89341c000000000000000000000000000000000000000000000000000000007bffffffffffffffffffffffffffffffffffffffffffffffffffffffff1916827bffffffffffffffffffffffffffffffffffffffffffffffffffffffff1916145b80610870575061086f82611cd3565b5b9050919050565b6101056020528060005260406000206000915090505481565b60606000821180156108a3575060028211155b6108e2576040517f08c379a00000000000000000000000000000000000000000000000000000000081526004016108d990613f43565b60405180910390fd5b600061010660006001856108f69190613f92565b815260200190815260200160002060405180604001604052908160008201805461091f90613ff5565b80601f016020809104026020016040519081016040528092919081815260200182805461094b90613ff5565b80156109985780601f1061096d57610100808354040283529160200191610998565b820191906000526020600020905b81548152906001019060200180831161097b57829003601f168201915b505050505081526020016001820180546109b190613ff5565b80601f01602080910402602001604051908101604052809291908181526020018280546109dd90613ff5565b8015610a2a5780601f106109ff57610100808354040283529160200191610a2a565b820191906000526020600020905b815481529060010190602001808311610a0d57829003601f168201915b505050505081525050905060008160000151610a4585611d3d565b8360200151604051602001610a5c939291906143c8565b6040516020818303038152906040529050610a7681611e9e565b604051602001610a8691906144a8565b60405160208183030381529060405292505050919050565b610aa661145e565b15610ae6576040517f08c379a0000000000000000000000000000000000000000000000000000000008152600401610add90614516565b60405180910390fd5b610aee612023565b73ffffffffffffffffffffffffffffffffffffffff163273ffffffffffffffffffffffffffffffffffffffff1614610b5b576040517f08c379a0000000000000000000000000000000000000000000000000000000008152600401610b5290614582565b60405180910390fd5b60008260ff16118015610b72575060028260ff1611155b610bb1576040517f08c379a0000000000000000000000000000000000000000000000000000000008152600401610ba8906145ee565b60405180910390fd5b60008160ff16118015610bc85750600a8160ff1611155b610c07576040517f08c379a0000000000000000000000000000000000000000000000000000000008152600401610bfe9061465a565b60405180910390fd5b61010360008360ff1660ff168152602001908152602001600020548160ff1661010560008560ff1660ff16815260200190815260200160002054610c4b919061467a565b1115610c8c576040517f08c379a0000000000000000000000000000000000000000000000000000000008152600401610c839061471c565b60405180910390fd5b60003414610ccf576040517f08c379a0000000000000000000000000000000000000000000000000000000008152600401610cc690614788565b60405180910390fd5b6000805b8260ff16811015610d525761010560008560ff1660ff1681526020019081526020016000206000815480929190610d09906147a8565b9190505550610d328461010560008760ff1660ff16815260200190815260200160002054611222565b82610d3d919061467a565b91508080610d4a906147a8565b915050610cd3565b50610d7b610d5e612023565b8460ff168460ff166040518060200160405280600081525061202b565b6000811115610ec35760028360ff161415610e2b5760fc60009054906101000a900473ffffffffffffffffffffffffffffffffffffffff1673ffffffffffffffffffffffffffffffffffffffff16639dc29fac610dd6612023565b836040518363ffffffff1660e01b8152600401610df49291906147f1565b600060405180830381600087803b158015610e0e57600080fd5b505af1158015610e22573d6000803e3d6000fd5b50505050610ec2565b60fb60009054906101000a900473ffffffffffffffffffffffffffffffffffffffff1673ffffffffffffffffffffffffffffffffffffffff16639dc29fac610e71612023565b836040518363ffffffff1660e01b8152600401610e8f9291906147f1565b600060405180830381600087803b158015610ea957600080fd5b505af1158015610ebd573d6000803e3d6000fd5b505050505b5b505050565b610ed0612023565b73ffffffffffffffffffffffffffffffffffffffff16610eee61170d565b73ffffffffffffffffffffffffffffffffffffffff1614610f44576040517f08c379a0000000000000000000000000000000000000000000000000000000008152600401610f3b90614866565b60405180910390fd5b82600081518110610f5857610f57614886565b5b60200260200101516101036000600160ff1681526020019081526020016000208190555082600181518110610f9057610f8f614886565b5b60200260200101516101036000600260ff1681526020019081526020016000208190555081600081518110610fc857610fc7614886565b5b602002602001015160ff166101046000600160ff168152602001908152602001600020819055508160018151811061100357611002614886565b5b602002602001015160ff166101046000600260ff168152602001908152602001600020819055508060008151811061103e5761103d614886565b5b602002602001015160fe81905550806001815181106110605761105f614886565b5b602002602001015160ff819055508060028151811061108257611081614886565b5b602002602001015161010081905550806003815181106110a5576110a4614886565b5b602002602001015161010181905550806004815181106110c8576110c7614886565b5b602002602001015161010281905550505050565b60ff5481565b6110ea612023565b73ffffffffffffffffffffffffffffffffffffffff168573ffffffffffffffffffffffffffffffffffffffff161480611130575061112f8561112a612023565b611a98565b5b61116f576040517f08c379a000000000000000000000000000000000000000000000000000000000815260040161116690614927565b60405180910390fd5b61117c85858585856121c2565b5050505050565b6101036020528060005260406000206000915090505481565b6111a4612023565b73ffffffffffffffffffffffffffffffffffffffff166111c261170d565b73ffffffffffffffffffffffffffffffffffffffff1614611218576040517f08c379a000000000000000000000000000000000000000000000000000000000815260040161120f90614866565b60405180910390fd5b6112206124d9565b565b60006005600161010360008660ff1660ff1681526020019081526020016000205461124d9190614947565b61125791906149d0565b82116112675760fe549050611339565b6005600261010360008660ff1660ff168152602001908152602001600020546112909190614947565b61129a91906149d0565b82116112aa5760ff549050611339565b6005600361010360008660ff1660ff168152602001908152602001600020546112d39190614947565b6112dd91906149d0565b82116112ee57610100549050611339565b6005600461010360008660ff1660ff168152602001908152602001600020546113179190614947565b61132191906149d0565b821161133257610101549050611339565b6101025490505b92915050565b60fe5481565b6060815183511461138b576040517f08c379a000000000000000000000000000000000000000000000000000000000815260040161138290614a73565b60405180910390fd5b6000835167ffffffffffffffff8111156113a8576113a761350f565b5b6040519080825280602002602001820160405280156113d65781602001602082028036833780820191505090505b50905060005b8451811015611453576114238582815181106113fb576113fa614886565b5b602002602001015185838151811061141657611415614886565b5b60200260200101516106cb565b82828151811061143657611435614886565b5b6020026020010181815250508061144c906147a8565b90506113dc565b508091505092915050565b6000606560009054906101000a900460ff16905090565b61147d612023565b73ffffffffffffffffffffffffffffffffffffffff1661149b61170d565b73ffffffffffffffffffffffffffffffffffffffff16146114f1576040517f08c379a00000000000000000000000000000000000000000000000000000000081526004016114e890614866565b60405180910390fd5b6114fb600061257b565b565b611505612023565b73ffffffffffffffffffffffffffffffffffffffff1661152361170d565b73ffffffffffffffffffffffffffffffffffffffff1614611579576040517f08c379a000000000000000000000000000000000000000000000000000000000815260040161157090614866565b60405180910390fd5b60405180604001604052808280600001906115949190614aa2565b8080601f016020809104026020016040519081016040528093929190818152602001838380828437600081840152601f19601f8201169050808301925050505050505081526020018280602001906115ec9190614aa2565b8080601f016020809104026020016040519081016040528093929190818152602001838380828437600081840152601f19601f820116905080830192505050505050508152506101066000848152602001908152602001600020600082015181600001908051906020019061166292919061310c565b50602082015181600101908051906020019061167f92919061310c565b509050505050565b61168f612023565b73ffffffffffffffffffffffffffffffffffffffff166116ad61170d565b73ffffffffffffffffffffffffffffffffffffffff1614611703576040517f08c379a00000000000000000000000000000000000000000000000000000000081526004016116fa90614866565b60405180910390fd5b61170b612641565b565b6000603360009054906101000a900473ffffffffffffffffffffffffffffffffffffffff16905090565b611749611742612023565b83836126e4565b5050565b600060019054906101000a900460ff166117755760008054906101000a900460ff161561177e565b61177d612851565b5b6117bd576040517f08c379a00000000000000000000000000000000000000000000000000000000081526004016117b490614b77565b60405180910390fd5b60008060019054906101000a900460ff16159050801561180d576001600060016101000a81548160ff02191690831515021790555060016000806101000a81548160ff0219169083151502179055505b611815612862565b61181d6128c3565b8360fb60006101000a81548173ffffffffffffffffffffffffffffffffffffffff021916908373ffffffffffffffffffffffffffffffffffffffff1602179055508260fc60006101000a81548173ffffffffffffffffffffffffffffffffffffffff021916908373ffffffffffffffffffffffffffffffffffffffff1602179055508160fd60006101000a81548173ffffffffffffffffffffffffffffffffffffffff021916908373ffffffffffffffffffffffffffffffffffffffff16021790555060006101056000600160ff1681526020019081526020016000208190555060006101056000600260ff16815260200190815260200160002081905550801561193d5760008060016101000a81548160ff0219169083151502179055505b50505050565b6101046020528060005260406000206000915090505481565b6101005481565b61010660205280600052604060002060009150905080600001805461198790613ff5565b80601f01602080910402602001604051908101604052809291908181526020018280546119b390613ff5565b8015611a005780601f106119d557610100808354040283529160200191611a00565b820191906000526020600020905b8154815290600101906020018083116119e357829003601f168201915b505050505090806001018054611a1590613ff5565b80601f0160208091040260200160405190810160405280929190818152602001828054611a4190613ff5565b8015611a8e5780601f10611a6357610100808354040283529160200191611a8e565b820191906000526020600020905b815481529060010190602001808311611a7157829003601f168201915b5050505050905082565b600060ca60008473ffffffffffffffffffffffffffffffffffffffff1673ffffffffffffffffffffffffffffffffffffffff16815260200190815260200160002060008373ffffffffffffffffffffffffffffffffffffffff1673ffffffffffffffffffffffffffffffffffffffff16815260200190815260200160002060009054906101000a900460ff16905092915050565b6101015481565b6101025481565b611b42612023565b73ffffffffffffffffffffffffffffffffffffffff168573ffffffffffffffffffffffffffffffffffffffff161480611b885750611b8785611b82612023565b611a98565b5b611bc7576040517f08c379a0000000000000000000000000000000000000000000000000000000008152600401611bbe90614c09565b60405180910390fd5b611bd48585858585612924565b5050505050565b611be3612023565b73ffffffffffffffffffffffffffffffffffffffff16611c0161170d565b73ffffffffffffffffffffffffffffffffffffffff1614611c57576040517f08c379a0000000000000000000000000000000000000000000000000000000008152600401611c4e90614866565b60405180910390fd5b600073ffffffffffffffffffffffffffffffffffffffff168173ffffffffffffffffffffffffffffffffffffffff161415611cc7576040517f08c379a0000000000000000000000000000000000000000000000000000000008152600401611cbe90614c9b565b60405180910390fd5b611cd08161257b565b50565b60007f01ffc9a7000000000000000000000000000000000000000000000000000000007bffffffffffffffffffffffffffffffffffffffffffffffffffffffff1916827bffffffffffffffffffffffffffffffffffffffffffffffffffffffff1916149050919050565b60606000821415611d85576040518060400160405280600181526020017f30000000000000000000000000000000000000000000000000000000000000008152509050611e99565b600082905060005b60008214611db7578080611da0906147a8565b915050600a82611db091906149d0565b9150611d8d565b60008167ffffffffffffffff811115611dd357611dd261350f565b5b6040519080825280601f01601f191660200182016040528015611e055781602001600182028036833780820191505090505b5090505b60008514611e9257600182611e1e9190613f92565b9150600a85611e2d9190614cbb565b6030611e39919061467a565b60f81b818381518110611e4f57611e4e614886565b5b60200101907effffffffffffffffffffffffffffffffffffffffffffffffffffffffffffff1916908160001a905350600a85611e8b91906149d0565b9450611e09565b8093505050505b919050565b6060600082511415611ec15760405180602001604052806000815250905061201e565b600060405180606001604052806040815260200161545c6040913990506000600360028551611ef0919061467a565b611efa91906149d0565b6004611f069190614947565b90506000602082611f17919061467a565b67ffffffffffffffff811115611f3057611f2f61350f565b5b6040519080825280601f01601f191660200182016040528015611f625781602001600182028036833780820191505090505b509050818152600183018586518101602084015b81831015611fdd576003830192508251603f8160121c1685015160f81b8252600182019150603f81600c1c1685015160f81b8252600182019150603f8160061c1685015160f81b8252600182019150603f811685015160f81b825260018201915050611f76565b600389510660018114611ff7576002811461200757612012565b613d3d60f01b6002830352612012565b603d60f81b60018303525b50505050508093505050505b919050565b600033905090565b600073ffffffffffffffffffffffffffffffffffffffff168473ffffffffffffffffffffffffffffffffffffffff16141561209b576040517f08c379a000000000000000000000000000000000000000000000000000000000815260040161209290614d5e565b60405180910390fd5b60006120a5612023565b90506120c6816000876120b788612ba9565b6120c088612ba9565b87612c23565b8260c9600086815260200190815260200160002060008773ffffffffffffffffffffffffffffffffffffffff1673ffffffffffffffffffffffffffffffffffffffff1681526020019081526020016000206000828254612126919061467a565b925050819055508473ffffffffffffffffffffffffffffffffffffffff16600073ffffffffffffffffffffffffffffffffffffffff168273ffffffffffffffffffffffffffffffffffffffff167fc3d58168c5ae7397731d063d5bbf3d657854427343f4c083240f7aacaa2d0f6287876040516121a4929190614d7e565b60405180910390a46121bb81600087878787612c2b565b5050505050565b8151835114612206576040517f08c379a00000000000000000000000000000000000000000000000000000000081526004016121fd90614e19565b60405180910390fd5b600073ffffffffffffffffffffffffffffffffffffffff168473ffffffffffffffffffffffffffffffffffffffff161415612276576040517f08c379a000000000000000000000000000000000000000000000000000000000815260040161226d90614eab565b60405180910390fd5b6000612280612023565b9050612290818787878787612c23565b60005b84518110156124445760008582815181106122b1576122b0614886565b5b6020026020010151905060008583815181106122d0576122cf614886565b5b60200260200101519050600060c9600084815260200190815260200160002060008b73ffffffffffffffffffffffffffffffffffffffff1673ffffffffffffffffffffffffffffffffffffffff16815260200190815260200160002054905081811015612372576040517f08c379a000000000000000000000000000000000000000000000000000000000815260040161236990614f3d565b60405180910390fd5b81810360c9600085815260200190815260200160002060008c73ffffffffffffffffffffffffffffffffffffffff1673ffffffffffffffffffffffffffffffffffffffff168152602001908152602001600020819055508160c9600085815260200190815260200160002060008b73ffffffffffffffffffffffffffffffffffffffff1673ffffffffffffffffffffffffffffffffffffffff1681526020019081526020016000206000828254612429919061467a565b925050819055505050508061243d906147a8565b9050612293565b508473ffffffffffffffffffffffffffffffffffffffff168673ffffffffffffffffffffffffffffffffffffffff168273ffffffffffffffffffffffffffffffffffffffff167f4a39dc06d4c0dbc64b70af90fd698a233a518aa5d07e595d983b8c0526c8f7fb87876040516124bb929190614f5d565b60405180910390a46124d1818787878787612e03565b505050505050565b6124e161145e565b612520576040517f08c379a000000000000000000000000000000000000000000000000000000000815260040161251790614fe0565b60405180910390fd5b6000606560006101000a81548160ff0219169083151502179055507f5db9ee0a495bf2e6ff9c91a7834c1ba4fdd244a5e8aa4e537bd38aeae4b073aa612564612023565b6040516125719190613c2a565b60405180910390a1565b6000603360009054906101000a900473ffffffffffffffffffffffffffffffffffffffff16905081603360006101000a81548173ffffffffffffffffffffffffffffffffffffffff021916908373ffffffffffffffffffffffffffffffffffffffff1602179055508173ffffffffffffffffffffffffffffffffffffffff168173ffffffffffffffffffffffffffffffffffffffff167f8be0079c531659141344cd1fd0a4f28419497f9722a3daafe3b4186f6b6457e060405160405180910390a35050565b61264961145e565b15612689576040517f08c379a000000000000000000000000000000000000000000000000000000000815260040161268090614516565b60405180910390fd5b6001606560006101000a81548160ff0219169083151502179055507f62e78cea01bee320cd4e420270b5ea74000d11b0c9f74754ebdbfc544b05a2586126cd612023565b6040516126da9190613c2a565b60405180910390a1565b8173ffffffffffffffffffffffffffffffffffffffff168373ffffffffffffffffffffffffffffffffffffffff161415612753576040517f08c379a000000000000000000000000000000000000000000000000000000000815260040161274a90615072565b60405180910390fd5b8060ca60008573ffffffffffffffffffffffffffffffffffffffff1673ffffffffffffffffffffffffffffffffffffffff16815260200190815260200160002060008473ffffffffffffffffffffffffffffffffffffffff1673ffffffffffffffffffffffffffffffffffffffff16815260200190815260200160002060006101000a81548160ff0219169083151502179055508173ffffffffffffffffffffffffffffffffffffffff168373ffffffffffffffffffffffffffffffffffffffff167f17307eab39ab6107e8899845ad3d59bd9653f200f220920489ca2b5937696c31836040516128449190613361565b60405180910390a3505050565b600061285c30612fdb565b15905090565b600060019054906101000a900460ff166128b1576040517f08c379a00000000000000000000000000000000000000000000000000000000081526004016128a890615104565b60405180910390fd5b6128b9612fee565b6128c161303f565b565b600060019054906101000a900460ff16612912576040517f08c379a000000000000000000000000000000000000000000000000000000000815260040161290990615104565b60405180910390fd5b61291a612fee565b6129226130a0565b565b600073ffffffffffffffffffffffffffffffffffffffff168473ffffffffffffffffffffffffffffffffffffffff161415612994576040517f08c379a000000000000000000000000000000000000000000000000000000000815260040161298b90614eab565b60405180910390fd5b600061299e612023565b90506129be8187876129af88612ba9565b6129b888612ba9565b87612c23565b600060c9600086815260200190815260200160002060008873ffffffffffffffffffffffffffffffffffffffff1673ffffffffffffffffffffffffffffffffffffffff16815260200190815260200160002054905083811015612a56576040517f08c379a0000000000000000000000000000000000000000000000000000000008152600401612a4d90614f3d565b60405180910390fd5b83810360c9600087815260200190815260200160002060008973ffffffffffffffffffffffffffffffffffffffff1673ffffffffffffffffffffffffffffffffffffffff168152602001908152602001600020819055508360c9600087815260200190815260200160002060008873ffffffffffffffffffffffffffffffffffffffff1673ffffffffffffffffffffffffffffffffffffffff1681526020019081526020016000206000828254612b0d919061467a565b925050819055508573ffffffffffffffffffffffffffffffffffffffff168773ffffffffffffffffffffffffffffffffffffffff168373ffffffffffffffffffffffffffffffffffffffff167fc3d58168c5ae7397731d063d5bbf3d657854427343f4c083240f7aacaa2d0f628888604051612b8a929190614d7e565b60405180910390a4612ba0828888888888612c2b565b50505050505050565b60606000600167ffffffffffffffff811115612bc857612bc761350f565b5b604051908082528060200260200182016040528015612bf65781602001602082028036833780820191505090505b5090508281600081518110612c0e57612c0d614886565b5b60200260200101818152505080915050919050565b505050505050565b612c4a8473ffffffffffffffffffffffffffffffffffffffff16612fdb565b15612dfb578373ffffffffffffffffffffffffffffffffffffffff1663f23a6e6187878686866040518663ffffffff1660e01b8152600401612c9095949392919061516e565b6020604051808303816000875af1925050508015612ccc57506040513d601f19601f82011682018060405250810190612cc991906151dd565b60015b612d7257612cd8615217565b806308c379a01415612d355750612ced615239565b80612cf85750612d37565b806040517f08c379a0000000000000000000000000000000000000000000000000000000008152600401612d2c91906134a8565b60405180910390fd5b505b6040517f08c379a0000000000000000000000000000000000000000000000000000000008152600401612d6990615341565b60405180910390fd5b63f23a6e6160e01b7bffffffffffffffffffffffffffffffffffffffffffffffffffffffff1916817bffffffffffffffffffffffffffffffffffffffffffffffffffffffff191614612df9576040517f08c379a0000000000000000000000000000000000000000000000000000000008152600401612df0906153d3565b60405180910390fd5b505b505050505050565b612e228473ffffffffffffffffffffffffffffffffffffffff16612fdb565b15612fd3578373ffffffffffffffffffffffffffffffffffffffff1663bc197c8187878686866040518663ffffffff1660e01b8152600401612e689594939291906153f3565b6020604051808303816000875af1925050508015612ea457506040513d601f19601f82011682018060405250810190612ea191906151dd565b60015b612f4a57612eb0615217565b806308c379a01415612f0d5750612ec5615239565b80612ed05750612f0f565b806040517f08c379a0000000000000000000000000000000000000000000000000000000008152600401612f0491906134a8565b60405180910390fd5b505b6040517f08c379a0000000000000000000000000000000000000000000000000000000008152600401612f4190615341565b60405180910390fd5b63bc197c8160e01b7bffffffffffffffffffffffffffffffffffffffffffffffffffffffff1916817bffffffffffffffffffffffffffffffffffffffffffffffffffffffff191614612fd1576040517f08c379a0000000000000000000000000000000000000000000000000000000008152600401612fc8906153d3565b60405180910390fd5b505b505050505050565b600080823b905060008111915050919050565b600060019054906101000a900460ff1661303d576040517f08c379a000000000000000000000000000000000000000000000000000000000815260040161303490615104565b60405180910390fd5b565b600060019054906101000a900460ff1661308e576040517f08c379a000000000000000000000000000000000000000000000000000000000815260040161308590615104565b60405180910390fd5b61309e613099612023565b61257b565b565b600060019054906101000a900460ff166130ef576040517f08c379a00000000000000000000000000000000000000000000000000000000081526004016130e690615104565b60405180910390fd5b6000606560006101000a81548160ff021916908315150217905550565b82805461311890613ff5565b90600052602060002090601f01602090048101928261313a5760008555613181565b82601f1061315357805160ff1916838001178555613181565b82800160010185558215613181579182015b82811115613180578251825591602001919060010190613165565b5b50905061318e9190613192565b5090565b5b808211156131ab576000816000905550600101613193565b5090565b6000604051905090565b600080fd5b600080fd5b600073ffffffffffffffffffffffffffffffffffffffff82169050919050565b60006131ee826131c3565b9050919050565b6131fe816131e3565b811461320957600080fd5b50565b60008135905061321b816131f5565b92915050565b6000819050919050565b61323481613221565b811461323f57600080fd5b50565b6000813590506132518161322b565b92915050565b6000806040838503121561326e5761326d6131b9565b5b600061327c8582860161320c565b925050602061328d85828601613242565b9150509250929050565b6132a081613221565b82525050565b60006020820190506132bb6000830184613297565b92915050565b60007fffffffff0000000000000000000000000000000000000000000000000000000082169050919050565b6132f6816132c1565b811461330157600080fd5b50565b600081359050613313816132ed565b92915050565b60006020828403121561332f5761332e6131b9565b5b600061333d84828501613304565b91505092915050565b60008115159050919050565b61335b81613346565b82525050565b60006020820190506133766000830184613352565b92915050565b600060ff82169050919050565b6133928161337c565b811461339d57600080fd5b50565b6000813590506133af81613389565b92915050565b6000602082840312156133cb576133ca6131b9565b5b60006133d9848285016133a0565b91505092915050565b6000602082840312156133f8576133f76131b9565b5b600061340684828501613242565b91505092915050565b600081519050919050565b600082825260208201905092915050565b60005b8381101561344957808201518184015260208101905061342e565b83811115613458576000848401525b50505050565b6000601f19601f8301169050919050565b600061347a8261340f565b613484818561341a565b935061349481856020860161342b565b61349d8161345e565b840191505092915050565b600060208201905081810360008301526134c2818461346f565b905092915050565b600080604083850312156134e1576134e06131b9565b5b60006134ef858286016133a0565b9250506020613500858286016133a0565b9150509250929050565b600080fd5b7f4e487b7100000000000000000000000000000000000000000000000000000000600052604160045260246000fd5b6135478261345e565b810181811067ffffffffffffffff821117156135665761356561350f565b5b80604052505050565b60006135796131af565b9050613585828261353e565b919050565b600067ffffffffffffffff8211156135a5576135a461350f565b5b602082029050602081019050919050565b600080fd5b60006135ce6135c98461358a565b61356f565b905080838252602082019050602084028301858111156135f1576135f06135b6565b5b835b8181101561361a57806136068882613242565b8452602084019350506020810190506135f3565b5050509392505050565b600082601f8301126136395761363861350a565b5b81356136498482602086016135bb565b91505092915050565b600067ffffffffffffffff82111561366d5761366c61350f565b5b602082029050602081019050919050565b600061369161368c84613652565b61356f565b905080838252602082019050602084028301858111156136b4576136b36135b6565b5b835b818110156136dd57806136c988826133a0565b8452602084019350506020810190506136b6565b5050509392505050565b600082601f8301126136fc576136fb61350a565b5b813561370c84826020860161367e565b91505092915050565b60008060006060848603121561372e5761372d6131b9565b5b600084013567ffffffffffffffff81111561374c5761374b6131be565b5b61375886828701613624565b935050602084013567ffffffffffffffff811115613779576137786131be565b5b613785868287016136e7565b925050604084013567ffffffffffffffff8111156137a6576137a56131be565b5b6137b286828701613624565b9150509250925092565b600080fd5b600067ffffffffffffffff8211156137dc576137db61350f565b5b6137e58261345e565b9050602081019050919050565b82818337600083830152505050565b600061381461380f846137c1565b61356f565b9050828152602081018484840111156138305761382f6137bc565b5b61383b8482856137f2565b509392505050565b600082601f8301126138585761385761350a565b5b8135613868848260208601613801565b91505092915050565b600080600080600060a0868803121561388d5761388c6131b9565b5b600061389b8882890161320c565b95505060206138ac8882890161320c565b945050604086013567ffffffffffffffff8111156138cd576138cc6131be565b5b6138d988828901613624565b935050606086013567ffffffffffffffff8111156138fa576138f96131be565b5b61390688828901613624565b925050608086013567ffffffffffffffff811115613927576139266131be565b5b61393388828901613843565b9150509295509295909350565b60008060408385031215613957576139566131b9565b5b6000613965858286016133a0565b925050602061397685828601613242565b9150509250929050565b600067ffffffffffffffff82111561399b5761399a61350f565b5b602082029050602081019050919050565b60006139bf6139ba84613980565b61356f565b905080838252602082019050602084028301858111156139e2576139e16135b6565b5b835b81811015613a0b57806139f7888261320c565b8452602084019350506020810190506139e4565b5050509392505050565b600082601f830112613a2a57613a2961350a565b5b8135613a3a8482602086016139ac565b91505092915050565b60008060408385031215613a5a57613a596131b9565b5b600083013567ffffffffffffffff811115613a7857613a776131be565b5b613a8485828601613a15565b925050602083013567ffffffffffffffff811115613aa557613aa46131be565b5b613ab185828601613624565b9150509250929050565b600081519050919050565b600082825260208201905092915050565b6000819050602082019050919050565b613af081613221565b82525050565b6000613b028383613ae7565b60208301905092915050565b6000602082019050919050565b6000613b2682613abb565b613b308185613ac6565b9350613b3b83613ad7565b8060005b83811015613b6c578151613b538882613af6565b9750613b5e83613b0e565b925050600181019050613b3f565b5085935050505092915050565b60006020820190508181036000830152613b938184613b1b565b905092915050565b600080fd5b600060408284031215613bb657613bb5613b9b565b5b81905092915050565b60008060408385031215613bd657613bd56131b9565b5b6000613be485828601613242565b925050602083013567ffffffffffffffff811115613c0557613c046131be565b5b613c1185828601613ba0565b9150509250929050565b613c24816131e3565b82525050565b6000602082019050613c3f6000830184613c1b565b92915050565b613c4e81613346565b8114613c5957600080fd5b50565b600081359050613c6b81613c45565b92915050565b60008060408385031215613c8857613c876131b9565b5b6000613c968582860161320c565b9250506020613ca785828601613c5c565b9150509250929050565b600080600060608486031215613cca57613cc96131b9565b5b6000613cd88682870161320c565b9350506020613ce98682870161320c565b9250506040613cfa8682870161320c565b9150509250925092565b60006040820190508181036000830152613d1e818561346f565b90508181036020830152613d32818461346f565b90509392505050565b60008060408385031215613d5257613d516131b9565b5b6000613d608582860161320c565b9250506020613d718582860161320c565b9150509250929050565b600080600080600060a08688031215613d9757613d966131b9565b5b6000613da58882890161320c565b9550506020613db68882890161320c565b9450506040613dc788828901613242565b9350506060613dd888828901613242565b925050608086013567ffffffffffffffff811115613df957613df86131be565b5b613e0588828901613843565b9150509295509295909350565b600060208284031215613e2857613e276131b9565b5b6000613e368482850161320c565b91505092915050565b7f455243313135353a2062616c616e636520717565727920666f7220746865207a60008201527f65726f2061646472657373000000000000000000000000000000000000000000602082015250565b6000613e9b602b8361341a565b9150613ea682613e3f565b604082019050919050565b60006020820190508181036000830152613eca81613e8e565b9050919050565b7f455243313135354d657461646174613a2055524920717565727920666f72206e60008201527f6f6e2d6578697374656e7420746f6b656e000000000000000000000000000000602082015250565b6000613f2d60318361341a565b9150613f3882613ed1565b604082019050919050565b60006020820190508181036000830152613f5c81613f20565b9050919050565b7f4e487b7100000000000000000000000000000000000000000000000000000000600052601160045260246000fd5b6000613f9d82613221565b9150613fa883613221565b925082821015613fbb57613fba613f63565b5b828203905092915050565b7f4e487b7100000000000000000000000000000000000000000000000000000000600052602260045260246000fd5b6000600282049050600182168061400d57607f821691505b6020821081141561402157614020613fc6565b5b50919050565b600081905092915050565b7f7b00000000000000000000000000000000000000000000000000000000000000600082015250565b6000614068600183614027565b915061407382614032565b600182019050919050565b7f226e616d65223a22000000000000000000000000000000000000000000000000600082015250565b60006140b4600883614027565b91506140bf8261407e565b600882019050919050565b60006140d58261340f565b6140df8185614027565b93506140ef81856020860161342b565b80840191505092915050565b7f222c000000000000000000000000000000000000000000000000000000000000600082015250565b6000614131600283614027565b915061413c826140fb565b600282019050919050565b7f226465736372697074696f6e223a22526174416c6572742c20746865204e465460008201527f2067616d652074686174206c65747320796f7520547261696e324561726e207960208201527f6f75722063686172616374657273206f6e2d636861696e20666f72206869676860408201527f65722072657761726473212068747470733a2f2f726174616c6572742e636f6d60608201527f2f222c0000000000000000000000000000000000000000000000000000000000608082015250565b6000614215608383614027565b915061422082614147565b608382019050919050565b7f2265787465726e616c5f75726c223a2268747470733a2f2f726174616c65727460008201527f2e636f6d2f6b69746368656e732f000000000000000000000000000000000000602082015250565b6000614287602e83614027565b91506142928261422b565b602e82019050919050565b7f22696d616765223a22646174613a696d6167652f706e673b6261736536342c00600082015250565b60006142d3601f83614027565b91506142de8261429d565b601f82019050919050565b600081519050919050565b600081905092915050565b600061430a826142e9565b61431481856142f4565b935061432481856020860161342b565b80840191505092915050565b7f2200000000000000000000000000000000000000000000000000000000000000600082015250565b6000614366600183614027565b915061437182614330565b600182019050919050565b7f7d00000000000000000000000000000000000000000000000000000000000000600082015250565b60006143b2600183614027565b91506143bd8261437c565b600182019050919050565b60006143d38261405b565b91506143de826140a7565b91506143ea82866140ca565b91506143f582614124565b915061440082614208565b915061440b8261427a565b915061441782856140ca565b915061442282614124565b915061442d826142c6565b915061443982846142ff565b915061444482614359565b915061444f826143a5565b9150819050949350505050565b7f646174613a6170706c69636174696f6e2f6a736f6e3b6261736536342c000000600082015250565b6000614492601d83614027565b915061449d8261445c565b601d82019050919050565b60006144b382614485565b91506144bf82846140ca565b915081905092915050565b7f5061757361626c653a2070617573656400000000000000000000000000000000600082015250565b600061450060108361341a565b915061450b826144ca565b602082019050919050565b6000602082019050818103600083015261452f816144f3565b9050919050565b7f454f41206f6e6c79000000000000000000000000000000000000000000000000600082015250565b600061456c60088361341a565b915061457782614536565b602082019050919050565b6000602082019050818103600083015261459b8161455f565b9050919050565b7f496e76616c6964206b69746368656e0000000000000000000000000000000000600082015250565b60006145d8600f8361341a565b91506145e3826145a2565b602082019050919050565b60006020820190508181036000830152614607816145cb565b9050919050565b7f496e76616c6964206d696e7420616d6f756e7400000000000000000000000000600082015250565b600061464460138361341a565b915061464f8261460e565b602082019050919050565b6000602082019050818103600083015261467381614637565b9050919050565b600061468582613221565b915061469083613221565b9250827fffffffffffffffffffffffffffffffffffffffffffffffffffffffffffffffff038211156146c5576146c4613f63565b5b828201905092915050565b7f416c6c20746f6b656e73206d696e746564000000000000000000000000000000600082015250565b600061470660118361341a565b9150614711826146d0565b602082019050919050565b60006020820190508181036000830152614735816146f9565b9050919050565b7f496e76616c6964207061796d656e742074797065000000000000000000000000600082015250565b600061477260148361341a565b915061477d8261473c565b602082019050919050565b600060208201905081810360008301526147a181614765565b9050919050565b60006147b382613221565b91507fffffffffffffffffffffffffffffffffffffffffffffffffffffffffffffffff8214156147e6576147e5613f63565b5b600182019050919050565b60006040820190506148066000830185613c1b565b6148136020830184613297565b9392505050565b7f4f776e61626c653a2063616c6c6572206973206e6f7420746865206f776e6572600082015250565b600061485060208361341a565b915061485b8261481a565b602082019050919050565b6000602082019050818103600083015261487f81614843565b9050919050565b7f4e487b7100000000000000000000000000000000000000000000000000000000600052603260045260246000fd5b7f455243313135353a207472616e736665722063616c6c6572206973206e6f742060008201527f6f776e6572206e6f7220617070726f7665640000000000000000000000000000602082015250565b600061491160328361341a565b915061491c826148b5565b604082019050919050565b6000602082019050818103600083015261494081614904565b9050919050565b600061495282613221565b915061495d83613221565b9250817fffffffffffffffffffffffffffffffffffffffffffffffffffffffffffffffff048311821515161561499657614995613f63565b5b828202905092915050565b7f4e487b7100000000000000000000000000000000000000000000000000000000600052601260045260246000fd5b60006149db82613221565b91506149e683613221565b9250826149f6576149f56149a1565b5b828204905092915050565b7f455243313135353a206163636f756e747320616e6420696473206c656e67746860008201527f206d69736d617463680000000000000000000000000000000000000000000000602082015250565b6000614a5d60298361341a565b9150614a6882614a01565b604082019050919050565b60006020820190508181036000830152614a8c81614a50565b9050919050565b600080fd5b600080fd5b600080fd5b60008083356001602003843603038112614abf57614abe614a93565b5b80840192508235915067ffffffffffffffff821115614ae157614ae0614a98565b5b602083019250600182023603831315614afd57614afc614a9d565b5b509250929050565b7f496e697469616c697a61626c653a20636f6e747261637420697320616c72656160008201527f647920696e697469616c697a6564000000000000000000000000000000000000602082015250565b6000614b61602e8361341a565b9150614b6c82614b05565b604082019050919050565b60006020820190508181036000830152614b9081614b54565b9050919050565b7f455243313135353a2063616c6c6572206973206e6f74206f776e6572206e6f7260008201527f20617070726f7665640000000000000000000000000000000000000000000000602082015250565b6000614bf360298361341a565b9150614bfe82614b97565b604082019050919050565b60006020820190508181036000830152614c2281614be6565b9050919050565b7f4f776e61626c653a206e6577206f776e657220697320746865207a65726f206160008201527f6464726573730000000000000000000000000000000000000000000000000000602082015250565b6000614c8560268361341a565b9150614c9082614c29565b604082019050919050565b60006020820190508181036000830152614cb481614c78565b9050919050565b6000614cc682613221565b9150614cd183613221565b925082614ce157614ce06149a1565b5b828206905092915050565b7f455243313135353a206d696e7420746f20746865207a65726f2061646472657360008201527f7300000000000000000000000000000000000000000000000000000000000000602082015250565b6000614d4860218361341a565b9150614d5382614cec565b604082019050919050565b60006020820190508181036000830152614d7781614d3b565b9050919050565b6000604082019050614d936000830185613297565b614da06020830184613297565b9392505050565b7f455243313135353a2069647320616e6420616d6f756e7473206c656e6774682060008201527f6d69736d61746368000000000000000000000000000000000000000000000000602082015250565b6000614e0360288361341a565b9150614e0e82614da7565b604082019050919050565b60006020820190508181036000830152614e3281614df6565b9050919050565b7f455243313135353a207472616e7366657220746f20746865207a65726f20616460008201527f6472657373000000000000000000000000000000000000000000000000000000602082015250565b6000614e9560258361341a565b9150614ea082614e39565b604082019050919050565b60006020820190508181036000830152614ec481614e88565b9050919050565b7f455243313135353a20696e73756666696369656e742062616c616e636520666f60008201527f72207472616e7366657200000000000000000000000000000000000000000000602082015250565b6000614f27602a8361341a565b9150614f3282614ecb565b604082019050919050565b60006020820190508181036000830152614f5681614f1a565b9050919050565b60006040820190508181036000830152614f778185613b1b565b90508181036020830152614f8b8184613b1b565b90509392505050565b7f5061757361626c653a206e6f7420706175736564000000000000000000000000600082015250565b6000614fca60148361341a565b9150614fd582614f94565b602082019050919050565b60006020820190508181036000830152614ff981614fbd565b9050919050565b7f455243313135353a2073657474696e6720617070726f76616c2073746174757360008201527f20666f722073656c660000000000000000000000000000000000000000000000602082015250565b600061505c60298361341a565b915061506782615000565b604082019050919050565b6000602082019050818103600083015261508b8161504f565b9050919050565b7f496e697469616c697a61626c653a20636f6e7472616374206973206e6f74206960008201527f6e697469616c697a696e67000000000000000000000000000000000000000000602082015250565b60006150ee602b8361341a565b91506150f982615092565b604082019050919050565b6000602082019050818103600083015261511d816150e1565b9050919050565b600082825260208201905092915050565b6000615140826142e9565b61514a8185615124565b935061515a81856020860161342b565b6151638161345e565b840191505092915050565b600060a0820190506151836000830188613c1b565b6151906020830187613c1b565b61519d6040830186613297565b6151aa6060830185613297565b81810360808301526151bc8184615135565b90509695505050505050565b6000815190506151d7816132ed565b92915050565b6000602082840312156151f3576151f26131b9565b5b6000615201848285016151c8565b91505092915050565b60008160e01c9050919050565b600060033d11156152365760046000803e61523360005161520a565b90505b90565b600060443d1015615249576152cc565b6152516131af565b60043d036004823e80513d602482011167ffffffffffffffff821117156152795750506152cc565b808201805167ffffffffffffffff81111561529757505050506152cc565b80602083010160043d0385018111156152b45750505050506152cc565b6152c38260200185018661353e565b82955050505050505b90565b7f455243313135353a207472616e7366657220746f206e6f6e204552433131353560008201527f526563656976657220696d706c656d656e746572000000000000000000000000602082015250565b600061532b60348361341a565b9150615336826152cf565b604082019050919050565b6000602082019050818103600083015261535a8161531e565b9050919050565b7f455243313135353a204552433131353552656365697665722072656a6563746560008201527f6420746f6b656e73000000000000000000000000000000000000000000000000602082015250565b60006153bd60288361341a565b91506153c882615361565b604082019050919050565b600060208201905081810360008301526153ec816153b0565b9050919050565b600060a0820190506154086000830188613c1b565b6154156020830187613c1b565b81810360408301526154278186613b1b565b9050818103606083015261543b8185613b1b565b9050818103608083015261544f8184615135565b9050969550505050505056fe4142434445464748494a4b4c4d4e4f505152535455565758595a6162636465666768696a6b6c6d6e6f707172737475767778797a303132333435363738392b2fa26469706673582212208a7b136d2da369b62ef2bb06d03f22dc5618a6a22994cbbd928df31dd35f4bb364736f6c634300080a0033",
  "immutableReferences": {},
  "source": "// SPDX-License-Identifier: MIT\n\npragma solidity ^0.8.0;\n\nimport \"@openzeppelin/contracts-upgradeable/proxy/utils/Initializable.sol\";\nimport \"@openzeppelin/contracts-upgradeable/access/OwnableUpgradeable.sol\";\nimport \"@openzeppelin/contracts-upgradeable/token/ERC1155/ERC1155Upgradeable.sol\";\nimport \"@openzeppelin/contracts/utils/Strings.sol\";\nimport \"./GenericPausable.sol\";\nimport \"./FastFood.sol\";\nimport \"./CasualFood.sol\";\nimport \"./Character.sol\";\n\ncontract KitchenShop is Initializable, OwnableUpgradeable, GenericPausable, ERC1155Upgradeable {\n  using Strings for uint256;\n\n  struct KitchenData { // Struct to store each kitchen's metadata\n    string name;\n    string png;\n  }\n\n  FastFood fastFood; // Reference to the $FFOOD contract\n  CasualFood casualFood; // Reference to the $CFOOD contract\n  Character character; // Reference to the Character contract\n\n  uint256 public priceTier0;\n  uint256 public priceTier1;\n  uint256 public priceTier2;\n  uint256 public priceTier3;\n  uint256 public priceTier4;\n  mapping (uint8 => uint256) public maxTokens;\n  mapping (uint8 => uint256) public minSkill;\n  mapping (uint8 => uint256) public minted;\n  mapping(uint256 => KitchenData) public kitchenData; // Storage of each kitchen's metadata\n\n  function initialize(address _fastFood, address _casualFood, address _character) external initializer {\n    __Ownable_init();\n    __Pausable_init();\n    // TODO similar to __ERC721_init(\"RatAlert Characters\", \"RATCHAR\"); or _setURI(string newuri)?\n\n    fastFood = FastFood(_fastFood);\n    casualFood = CasualFood(_casualFood);\n    character = Character(_character);\n    minted[1] = 0;\n    minted[2] = 0;\n  }\n\n  /**\n   * Allows DAO to update game parameters\n   */\n  function configure(\n    uint256[] memory _maxTokens,\n    uint8[] memory _minSkill,\n    uint256[] memory _prices\n  ) external onlyOwner {\n    maxTokens[1] = _maxTokens[0];\n    maxTokens[2] = _maxTokens[1];\n    minSkill[1] = _minSkill[0];\n    minSkill[2] = _minSkill[1];\n    priceTier0 = _prices[0];\n    priceTier1 = _prices[1];\n    priceTier2 = _prices[2];\n    priceTier3 = _prices[3];\n    priceTier4 = _prices[4];\n  }\n\n  /**\n   * Mints new ERC1155 token(s) of a kitchen\n   * @param amount Number of tokens to mint\n   */\n  function mint(uint8 kitchen, uint8 amount) external payable whenNotPaused {\n    require(tx.origin == _msgSender(), \"EOA only\");\n    require(kitchen > 0 && kitchen <= 2, \"Invalid kitchen\");\n    require(amount > 0 && amount <= 10, \"Invalid mint amount\");\n    require(minted[kitchen] + amount <= maxTokens[kitchen], \"All tokens minted\");\n    require(msg.value == 0, \"Invalid payment type\");\n\n    uint256 totalCost = 0;\n    for (uint i = 0; i < amount; i++) {\n      minted[kitchen] ++;\n      totalCost += mintCost(kitchen, minted[kitchen]);\n    }\n    _mint(_msgSender(), kitchen, amount, \"\");\n    if (totalCost > 0) {\n      if (kitchen == 2) {\n        casualFood.burn(_msgSender(), totalCost);\n      } else {\n        fastFood.burn(_msgSender(), totalCost);\n      }\n    }\n  }\n\n  /**\n   *    1 - 1000: 2000 $FFOOD\n   * 1001 - 2000: 3000 $FFOOD\n   * 2001 - 3000: 4000 $FFOOD\n   * 3001 - 4000: 5000 $FFOOD\n   * 4001 - 5000: 6000 $FFOOD\n   * @param tokenId - The token ID to check\n   * @return The minting cost of the given ID\n   */\n  function mintCost(uint8 kitchen, uint256 tokenId) public view returns (uint256) {\n    if (tokenId <= maxTokens[kitchen] * 1 / 5) return priceTier0;\n    if (tokenId <= maxTokens[kitchen] * 2 / 5) return priceTier1;\n    if (tokenId <= maxTokens[kitchen] * 3 / 5) return priceTier2;\n    if (tokenId <= maxTokens[kitchen] * 4 / 5) return priceTier3;\n    return priceTier4;\n  }\n\n  function uri(uint256 tokenId) public view override returns (string memory) {\n    require(tokenId > 0 && tokenId <= 2, \"ERC1155Metadata: URI query for non-existent token\");\n    KitchenData memory kitchen = kitchenData[tokenId - 1];\n\n    string memory metadata = string(abi.encodePacked(\n      '{',\n        '\"name\":\"', kitchen.name, '\",',\n        '\"description\":\"RatAlert, the NFT game that lets you Train2Earn your characters on-chain for higher rewards! https://ratalert.com/\",',\n        '\"external_url\":\"https://ratalert.com/kitchens/', tokenId.toString(), '\",',\n        '\"image\":\"data:image/png;base64,', bytes(kitchen.png), '\"',\n      '}'\n    ));\n\n    return string(abi.encodePacked(\"data:application/json;base64,\", base64(bytes(metadata))));\n  }\n\n  /**\n   * Used by admin to upload the kitchen images\n   * @param imageIndex - The index at which to upload the image\n   * @param kitchen - The base64 encoded PNG for that kitchen\n   */\n  function uploadImage(uint256 imageIndex, KitchenData calldata kitchen) external onlyOwner {\n    kitchenData[imageIndex] = KitchenData(\n      kitchen.name,\n      kitchen.png\n    );\n  }\n\n  /** BASE 64 - Written by Brech Devos */\n  string internal constant TABLE = 'ABCDEFGHIJKLMNOPQRSTUVWXYZabcdefghijklmnopqrstuvwxyz0123456789+/';\n  function base64(bytes memory data) internal pure returns (string memory) {\n    if (data.length == 0) return '';\n    string memory table = TABLE; // load the table into memory\n    uint256 encodedLen = 4 * ((data.length + 2) / 3); // multiply by 4/3 rounded up\n    string memory result = new string(encodedLen + 32); // add some extra buffer at the end required for the writing\n    assembly {\n      mstore(result, encodedLen) // set the actual output length\n      let tablePtr := add(table, 1) // prepare the lookup table\n      let dataPtr := data // input ptr\n      let endPtr := add(dataPtr, mload(data))\n      let resultPtr := add(result, 32) // result ptr, jump over length\n      for {} lt(dataPtr, endPtr) {} // run over the input, 3 bytes at a time\n      {\n        dataPtr := add(dataPtr, 3)\n        let input := mload(dataPtr) // read 3 bytes\n        // write 4 characters\n        mstore(resultPtr, shl(248, mload(add(tablePtr, and(shr(18, input), 0x3F)))))\n        resultPtr := add(resultPtr, 1)\n        mstore(resultPtr, shl(248, mload(add(tablePtr, and(shr(12, input), 0x3F)))))\n        resultPtr := add(resultPtr, 1)\n        mstore(resultPtr, shl(248, mload(add(tablePtr, and(shr( 6, input), 0x3F)))))\n        resultPtr := add(resultPtr, 1)\n        mstore(resultPtr, shl(248, mload(add(tablePtr, and(        input,  0x3F)))))\n        resultPtr := add(resultPtr, 1)\n      }\n      // padding with '='\n      switch mod(mload(data), 3)\n      case 1 { mstore(sub(resultPtr, 2), shl(240, 0x3d3d)) }\n      case 2 { mstore(sub(resultPtr, 1), shl(248, 0x3d)) }\n    }\n    return result;\n  }\n}\n",
  "sourcePath": "/Users/chris/workspace/ratalert/ratalert-contracts/contracts/KitchenShop.sol",
  "compiler": {
    "name": "solc",
    "version": "0.8.10+commit.fc410830.Emscripten.clang"
  },
  "schemaVersion": "3.4.5",
  "updatedAt": "2022-03-14T18:24:14.925Z",
  "networkType": "ethereum",
  "devdoc": {
    "kind": "dev",
    "methods": {
      "balanceOf(address,uint256)": {
        "details": "See {IERC1155-balanceOf}. Requirements: - `account` cannot be the zero address."
      },
      "balanceOfBatch(address[],uint256[])": {
        "details": "See {IERC1155-balanceOfBatch}. Requirements: - `accounts` and `ids` must have the same length."
      },
      "isApprovedForAll(address,address)": {
        "details": "See {IERC1155-isApprovedForAll}."
      },
      "mint(uint8,uint8)": {
        "params": {
          "amount": "Number of tokens to mint"
        }
      },
      "mintCost(uint8,uint256)": {
        "params": {
          "tokenId": "- The token ID to check"
        },
        "returns": {
          "_0": "The minting cost of the given ID"
        }
      },
      "owner()": {
        "details": "Returns the address of the current owner."
      },
      "paused()": {
        "details": "Returns true if the contract is paused, and false otherwise."
      },
      "renounceOwnership()": {
        "details": "Leaves the contract without owner. It will not be possible to call `onlyOwner` functions anymore. Can only be called by the current owner. NOTE: Renouncing ownership will leave the contract without an owner, thereby removing any functionality that is only available to the owner."
      },
      "safeBatchTransferFrom(address,address,uint256[],uint256[],bytes)": {
        "details": "See {IERC1155-safeBatchTransferFrom}."
      },
      "safeTransferFrom(address,address,uint256,uint256,bytes)": {
        "details": "See {IERC1155-safeTransferFrom}."
      },
      "setApprovalForAll(address,bool)": {
        "details": "See {IERC1155-setApprovalForAll}."
      },
      "supportsInterface(bytes4)": {
        "details": "See {IERC165-supportsInterface}."
      },
      "transferOwnership(address)": {
        "details": "Transfers ownership of the contract to a new account (`newOwner`). Can only be called by the current owner."
      },
      "uploadImage(uint256,(string,string))": {
        "params": {
          "imageIndex": "- The index at which to upload the image",
          "kitchen": "- The base64 encoded PNG for that kitchen"
        }
      }
    },
    "version": 1
  },
  "userdoc": {
    "kind": "user",
    "methods": {
      "configure(uint256[],uint8[],uint256[])": {
        "notice": "Allows DAO to update game parameters"
      },
      "mint(uint8,uint8)": {
        "notice": "Mints new ERC1155 token(s) of a kitchen"
      },
      "mintCost(uint8,uint256)": {
        "notice": "1 - 1000: 2000 $FFOOD 1001 - 2000: 3000 $FFOOD 2001 - 3000: 4000 $FFOOD 3001 - 4000: 5000 $FFOOD 4001 - 5000: 6000 $FFOOD"
      },
      "uploadImage(uint256,(string,string))": {
        "notice": "Used by admin to upload the kitchen images"
      }
    },
    "version": 1
  }
}