{
  "contractName": "KitchenShop",
  "abi": [
    {
      "anonymous": false,
      "inputs": [
        {
          "indexed": true,
          "internalType": "address",
          "name": "account",
          "type": "address"
        },
        {
          "indexed": true,
          "internalType": "address",
          "name": "operator",
          "type": "address"
        },
        {
          "indexed": false,
          "internalType": "bool",
          "name": "approved",
          "type": "bool"
        }
      ],
      "name": "ApprovalForAll",
      "type": "event"
    },
    {
      "anonymous": false,
      "inputs": [
        {
          "indexed": true,
          "internalType": "address",
          "name": "previousOwner",
          "type": "address"
        },
        {
          "indexed": true,
          "internalType": "address",
          "name": "newOwner",
          "type": "address"
        }
      ],
      "name": "OwnershipTransferred",
      "type": "event"
    },
    {
      "anonymous": false,
      "inputs": [
        {
          "indexed": false,
          "internalType": "address",
          "name": "account",
          "type": "address"
        }
      ],
      "name": "Paused",
      "type": "event"
    },
    {
      "anonymous": false,
      "inputs": [
        {
          "indexed": true,
          "internalType": "address",
          "name": "operator",
          "type": "address"
        },
        {
          "indexed": true,
          "internalType": "address",
          "name": "from",
          "type": "address"
        },
        {
          "indexed": true,
          "internalType": "address",
          "name": "to",
          "type": "address"
        },
        {
          "indexed": false,
          "internalType": "uint256[]",
          "name": "ids",
          "type": "uint256[]"
        },
        {
          "indexed": false,
          "internalType": "uint256[]",
          "name": "values",
          "type": "uint256[]"
        }
      ],
      "name": "TransferBatch",
      "type": "event"
    },
    {
      "anonymous": false,
      "inputs": [
        {
          "indexed": true,
          "internalType": "address",
          "name": "operator",
          "type": "address"
        },
        {
          "indexed": true,
          "internalType": "address",
          "name": "from",
          "type": "address"
        },
        {
          "indexed": true,
          "internalType": "address",
          "name": "to",
          "type": "address"
        },
        {
          "indexed": false,
          "internalType": "uint256",
          "name": "id",
          "type": "uint256"
        },
        {
          "indexed": false,
          "internalType": "uint256",
          "name": "value",
          "type": "uint256"
        }
      ],
      "name": "TransferSingle",
      "type": "event"
    },
    {
      "anonymous": false,
      "inputs": [
        {
          "indexed": false,
          "internalType": "string",
          "name": "value",
          "type": "string"
        },
        {
          "indexed": true,
          "internalType": "uint256",
          "name": "id",
          "type": "uint256"
        }
      ],
      "name": "URI",
      "type": "event"
    },
    {
      "anonymous": false,
      "inputs": [
        {
          "indexed": false,
          "internalType": "address",
          "name": "account",
          "type": "address"
        }
      ],
      "name": "Unpaused",
      "type": "event"
    },
    {
      "inputs": [
        {
          "internalType": "address",
          "name": "account",
          "type": "address"
        },
        {
          "internalType": "uint256",
          "name": "id",
          "type": "uint256"
        }
      ],
      "name": "balanceOf",
      "outputs": [
        {
          "internalType": "uint256",
          "name": "",
          "type": "uint256"
        }
      ],
      "stateMutability": "view",
      "type": "function",
      "constant": true
    },
    {
      "inputs": [
        {
          "internalType": "address[]",
          "name": "accounts",
          "type": "address[]"
        },
        {
          "internalType": "uint256[]",
          "name": "ids",
          "type": "uint256[]"
        }
      ],
      "name": "balanceOfBatch",
      "outputs": [
        {
          "internalType": "uint256[]",
          "name": "",
          "type": "uint256[]"
        }
      ],
      "stateMutability": "view",
      "type": "function",
      "constant": true
    },
    {
      "inputs": [
        {
          "internalType": "address",
          "name": "account",
          "type": "address"
        },
        {
          "internalType": "address",
          "name": "operator",
          "type": "address"
        }
      ],
      "name": "isApprovedForAll",
      "outputs": [
        {
          "internalType": "bool",
          "name": "",
          "type": "bool"
        }
      ],
      "stateMutability": "view",
      "type": "function",
      "constant": true
    },
    {
      "inputs": [
        {
          "internalType": "uint256",
          "name": "",
          "type": "uint256"
        }
      ],
      "name": "kitchenData",
      "outputs": [
        {
          "internalType": "string",
          "name": "name",
          "type": "string"
        },
        {
          "internalType": "string",
          "name": "png",
          "type": "string"
        }
      ],
      "stateMutability": "view",
      "type": "function",
      "constant": true
    },
    {
      "inputs": [
        {
          "internalType": "uint8",
          "name": "",
          "type": "uint8"
        }
      ],
      "name": "maxTokens",
      "outputs": [
        {
          "internalType": "uint256",
          "name": "",
          "type": "uint256"
        }
      ],
      "stateMutability": "view",
      "type": "function",
      "constant": true
    },
    {
      "inputs": [
        {
          "internalType": "uint8",
          "name": "",
          "type": "uint8"
        }
      ],
      "name": "minSkill",
      "outputs": [
        {
          "internalType": "uint256",
          "name": "",
          "type": "uint256"
        }
      ],
      "stateMutability": "view",
      "type": "function",
      "constant": true
    },
    {
      "inputs": [
        {
          "internalType": "uint8",
          "name": "",
          "type": "uint8"
        }
      ],
      "name": "minted",
      "outputs": [
        {
          "internalType": "uint256",
          "name": "",
          "type": "uint256"
        }
      ],
      "stateMutability": "view",
      "type": "function",
      "constant": true
    },
    {
      "inputs": [],
      "name": "owner",
      "outputs": [
        {
          "internalType": "address",
          "name": "",
          "type": "address"
        }
      ],
      "stateMutability": "view",
      "type": "function",
      "constant": true
    },
    {
      "inputs": [],
      "name": "paused",
      "outputs": [
        {
          "internalType": "bool",
          "name": "",
          "type": "bool"
        }
      ],
      "stateMutability": "view",
      "type": "function",
      "constant": true
    },
    {
      "inputs": [],
      "name": "renounceOwnership",
      "outputs": [],
      "stateMutability": "nonpayable",
      "type": "function"
    },
    {
      "inputs": [
        {
          "internalType": "address",
          "name": "from",
          "type": "address"
        },
        {
          "internalType": "address",
          "name": "to",
          "type": "address"
        },
        {
          "internalType": "uint256[]",
          "name": "ids",
          "type": "uint256[]"
        },
        {
          "internalType": "uint256[]",
          "name": "amounts",
          "type": "uint256[]"
        },
        {
          "internalType": "bytes",
          "name": "data",
          "type": "bytes"
        }
      ],
      "name": "safeBatchTransferFrom",
      "outputs": [],
      "stateMutability": "nonpayable",
      "type": "function"
    },
    {
      "inputs": [
        {
          "internalType": "address",
          "name": "from",
          "type": "address"
        },
        {
          "internalType": "address",
          "name": "to",
          "type": "address"
        },
        {
          "internalType": "uint256",
          "name": "id",
          "type": "uint256"
        },
        {
          "internalType": "uint256",
          "name": "amount",
          "type": "uint256"
        },
        {
          "internalType": "bytes",
          "name": "data",
          "type": "bytes"
        }
      ],
      "name": "safeTransferFrom",
      "outputs": [],
      "stateMutability": "nonpayable",
      "type": "function"
    },
    {
      "inputs": [
        {
          "internalType": "address",
          "name": "operator",
          "type": "address"
        },
        {
          "internalType": "bool",
          "name": "approved",
          "type": "bool"
        }
      ],
      "name": "setApprovalForAll",
      "outputs": [],
      "stateMutability": "nonpayable",
      "type": "function"
    },
    {
      "inputs": [
        {
          "internalType": "bytes4",
          "name": "interfaceId",
          "type": "bytes4"
        }
      ],
      "name": "supportsInterface",
      "outputs": [
        {
          "internalType": "bool",
          "name": "",
          "type": "bool"
        }
      ],
      "stateMutability": "view",
      "type": "function",
      "constant": true
    },
    {
      "inputs": [
        {
          "internalType": "address",
          "name": "newOwner",
          "type": "address"
        }
      ],
      "name": "transferOwnership",
      "outputs": [],
      "stateMutability": "nonpayable",
      "type": "function"
    },
    {
      "inputs": [
        {
          "internalType": "address",
          "name": "_fastFood",
          "type": "address"
        },
        {
          "internalType": "address",
          "name": "_casualFood",
          "type": "address"
        },
        {
          "internalType": "address",
          "name": "_character",
          "type": "address"
        },
        {
          "internalType": "uint256[]",
          "name": "_maxTokens",
          "type": "uint256[]"
        },
        {
          "internalType": "uint8[]",
          "name": "_minSkill",
          "type": "uint8[]"
        }
      ],
      "name": "initialize",
      "outputs": [],
      "stateMutability": "nonpayable",
      "type": "function"
    },
    {
      "inputs": [
        {
          "internalType": "uint8",
          "name": "kitchen",
          "type": "uint8"
        },
        {
          "internalType": "uint8",
          "name": "amount",
          "type": "uint8"
        }
      ],
      "name": "mint",
      "outputs": [],
      "stateMutability": "payable",
      "type": "function",
      "payable": true
    },
    {
      "inputs": [
        {
          "internalType": "uint8",
          "name": "kitchen",
          "type": "uint8"
        },
        {
          "internalType": "uint256",
          "name": "tokenId",
          "type": "uint256"
        }
      ],
      "name": "mintCost",
      "outputs": [
        {
          "internalType": "uint256",
          "name": "",
          "type": "uint256"
        }
      ],
      "stateMutability": "view",
      "type": "function",
      "constant": true
    },
    {
      "inputs": [
        {
          "internalType": "uint256",
          "name": "tokenId",
          "type": "uint256"
        }
      ],
      "name": "uri",
      "outputs": [
        {
          "internalType": "string",
          "name": "",
          "type": "string"
        }
      ],
      "stateMutability": "view",
      "type": "function",
      "constant": true
    },
    {
      "inputs": [
        {
          "internalType": "uint256",
          "name": "imageIndex",
          "type": "uint256"
        },
        {
          "components": [
            {
              "internalType": "string",
              "name": "name",
              "type": "string"
            },
            {
              "internalType": "string",
              "name": "png",
              "type": "string"
            }
          ],
          "internalType": "struct KitchenShop.KitchenData",
          "name": "kitchen",
          "type": "tuple"
        }
      ],
      "name": "uploadImage",
      "outputs": [],
      "stateMutability": "nonpayable",
      "type": "function"
    }
  ],
  "bytecode": "0x608060405234801561001057600080fd5b50614ed1806100206000396000f3fe60806040526004361061011e5760003560e01c80635c975abb116100a0578063cc52964111610064578063cc529641146103fb578063e0683ab814610438578063e985e9c514610476578063f242432a146104b3578063f2fde38b146104dc5761011e565b80635c975abb1461033c578063715018a6146103675780637d26c78c1461037e5780638da5cb5b146103a7578063a22cb465146103d25761011e565b806329a0eee8116100e757806329a0eee8146102405780632eb2c2d61461025c5780633e0987f71461028557806346598ab8146102c25780634e1273f4146102ff5761011e565b8062fdd58e1461012357806301ffc9a7146101605780630cabd0a61461019d5780630e89341c146101da57806320252e3f14610217575b600080fd5b34801561012f57600080fd5b5061014a60048036038101906101459190612d0a565b610505565b6040516101579190612d59565b60405180910390f35b34801561016c57600080fd5b5061018760048036038101906101829190612dcc565b6105cf565b6040516101949190612e14565b60405180910390f35b3480156101a957600080fd5b506101c460048036038101906101bf9190612e68565b6106b1565b6040516101d19190612d59565b60405180910390f35b3480156101e657600080fd5b5061020160048036038101906101fc9190612e95565b6106ca565b60405161020e9190612f5b565b60405180910390f35b34801561022357600080fd5b5061023e60048036038101906102399190613188565b6108d8565b005b61025a6004803603810190610255919061323b565b610bb2565b005b34801561026857600080fd5b50610283600480360381019061027e9190613330565b610fdb565b005b34801561029157600080fd5b506102ac60048036038101906102a79190612e68565b61107c565b6040516102b99190612d59565b60405180910390f35b3480156102ce57600080fd5b506102e960048036038101906102e491906133ff565b611094565b6040516102f69190612d59565b60405180910390f35b34801561030b57600080fd5b5061032660048036038101906103219190613502565b6111cf565b6040516103339190613638565b60405180910390f35b34801561034857600080fd5b506103516112e8565b60405161035e9190612e14565b60405180910390f35b34801561037357600080fd5b5061037c6112ff565b005b34801561038a57600080fd5b506103a560048036038101906103a0919061367e565b611387565b005b3480156103b357600080fd5b506103bc611511565b6040516103c991906136e9565b60405180910390f35b3480156103de57600080fd5b506103f960048036038101906103f49190613730565b61153b565b005b34801561040757600080fd5b50610422600480360381019061041d9190612e68565b611551565b60405161042f9190612d59565b60405180910390f35b34801561044457600080fd5b5061045f600480360381019061045a9190612e95565b611569565b60405161046d929190613770565b60405180910390f35b34801561048257600080fd5b5061049d600480360381019061049891906137a7565b61169e565b6040516104aa9190612e14565b60405180910390f35b3480156104bf57600080fd5b506104da60048036038101906104d591906137e7565b611732565b005b3480156104e857600080fd5b5061050360048036038101906104fe919061387e565b6117d3565b005b60008073ffffffffffffffffffffffffffffffffffffffff168373ffffffffffffffffffffffffffffffffffffffff161415610576576040517f08c379a000000000000000000000000000000000000000000000000000000000815260040161056d9061391d565b60405180910390fd5b60c9600083815260200190815260200160002060008473ffffffffffffffffffffffffffffffffffffffff1673ffffffffffffffffffffffffffffffffffffffff16815260200190815260200160002054905092915050565b60007fd9b67a26000000000000000000000000000000000000000000000000000000007bffffffffffffffffffffffffffffffffffffffffffffffffffffffff1916827bffffffffffffffffffffffffffffffffffffffffffffffffffffffff1916148061069a57507f0e89341c000000000000000000000000000000000000000000000000000000007bffffffffffffffffffffffffffffffffffffffffffffffffffffffff1916827bffffffffffffffffffffffffffffffffffffffffffffffffffffffff1916145b806106aa57506106a9826118cb565b5b9050919050565b6101006020528060005260406000206000915090505481565b60606000821180156106dd575060028211155b61071c576040517f08c379a0000000000000000000000000000000000000000000000000000000008152600401610713906139af565b60405180910390fd5b6000610101600060018561073091906139fe565b815260200190815260200160002060405180604001604052908160008201805461075990613a61565b80601f016020809104026020016040519081016040528092919081815260200182805461078590613a61565b80156107d25780601f106107a7576101008083540402835291602001916107d2565b820191906000526020600020905b8154815290600101906020018083116107b557829003601f168201915b505050505081526020016001820180546107eb90613a61565b80601f016020809104026020016040519081016040528092919081815260200182805461081790613a61565b80156108645780601f1061083957610100808354040283529160200191610864565b820191906000526020600020905b81548152906001019060200180831161084757829003601f168201915b50505050508152505090506000816000015161087f85611935565b836020015160405160200161089693929190613e34565b60405160208183030381529060405290506108b081611a96565b6040516020016108c09190613f14565b60405160208183030381529060405292505050919050565b600060019054906101000a900460ff166109005760008054906101000a900460ff1615610909565b610908611c1b565b5b610948576040517f08c379a000000000000000000000000000000000000000000000000000000000815260040161093f90613fa8565b60405180910390fd5b60008060019054906101000a900460ff161590508015610998576001600060016101000a81548160ff02191690831515021790555060016000806101000a81548160ff0219169083151502179055505b6109a0611c2c565b6109a8611c8d565b8560fb60006101000a81548173ffffffffffffffffffffffffffffffffffffffff021916908373ffffffffffffffffffffffffffffffffffffffff1602179055508460fc60006101000a81548173ffffffffffffffffffffffffffffffffffffffff021916908373ffffffffffffffffffffffffffffffffffffffff1602179055508360fd60006101000a81548173ffffffffffffffffffffffffffffffffffffffff021916908373ffffffffffffffffffffffffffffffffffffffff16021790555082600081518110610a7f57610a7e613fc8565b5b602002602001015160fe6000600160ff1681526020019081526020016000208190555082600181518110610ab657610ab5613fc8565b5b602002602001015160fe6000600260ff1681526020019081526020016000208190555081600081518110610aed57610aec613fc8565b5b602002602001015160ff1660ff6000600160ff1681526020019081526020016000208190555081600181518110610b2757610b26613fc8565b5b602002602001015160ff1660ff6000600260ff1681526020019081526020016000208190555060006101006000600160ff1681526020019081526020016000208190555060006101006000600260ff168152602001908152602001600020819055508015610baa5760008060016101000a81548160ff0219169083151502179055505b505050505050565b610bba6112e8565b15610bfa576040517f08c379a0000000000000000000000000000000000000000000000000000000008152600401610bf190614043565b60405180910390fd5b610c02611cee565b73ffffffffffffffffffffffffffffffffffffffff163273ffffffffffffffffffffffffffffffffffffffff1614610c6f576040517f08c379a0000000000000000000000000000000000000000000000000000000008152600401610c66906140af565b60405180910390fd5b60008260ff16118015610c86575060028260ff1611155b610cc5576040517f08c379a0000000000000000000000000000000000000000000000000000000008152600401610cbc9061411b565b60405180910390fd5b60008160ff16118015610cdc5750600a8160ff1611155b610d1b576040517f08c379a0000000000000000000000000000000000000000000000000000000008152600401610d1290614187565b60405180910390fd5b60fe60008360ff1660ff168152602001908152602001600020548160ff1661010060008560ff1660ff16815260200190815260200160002054610d5e91906141a7565b1115610d9f576040517f08c379a0000000000000000000000000000000000000000000000000000000008152600401610d9690614249565b60405180910390fd5b60003414610de2576040517f08c379a0000000000000000000000000000000000000000000000000000000008152600401610dd9906142b5565b60405180910390fd5b6000805b8260ff16811015610e655761010060008560ff1660ff1681526020019081526020016000206000815480929190610e1c906142d5565b9190505550610e458461010060008760ff1660ff16815260200190815260200160002054611094565b82610e5091906141a7565b91508080610e5d906142d5565b915050610de6565b50610e8e610e71611cee565b8460ff168460ff1660405180602001604052806000815250611cf6565b6000811115610fd65760028360ff161415610f3e5760fc60009054906101000a900473ffffffffffffffffffffffffffffffffffffffff1673ffffffffffffffffffffffffffffffffffffffff16639dc29fac610ee9611cee565b836040518363ffffffff1660e01b8152600401610f0792919061431e565b600060405180830381600087803b158015610f2157600080fd5b505af1158015610f35573d6000803e3d6000fd5b50505050610fd5565b60fb60009054906101000a900473ffffffffffffffffffffffffffffffffffffffff1673ffffffffffffffffffffffffffffffffffffffff16639dc29fac610f84611cee565b836040518363ffffffff1660e01b8152600401610fa292919061431e565b600060405180830381600087803b158015610fbc57600080fd5b505af1158015610fd0573d6000803e3d6000fd5b505050505b5b505050565b610fe3611cee565b73ffffffffffffffffffffffffffffffffffffffff168573ffffffffffffffffffffffffffffffffffffffff161480611029575061102885611023611cee565b61169e565b5b611068576040517f08c379a000000000000000000000000000000000000000000000000000000000815260040161105f906143b9565b60405180910390fd5b6110758585858585611e8d565b5050505050565b60fe6020528060005260406000206000915090505481565b60006005600160fe60008660ff1660ff168152602001908152602001600020546110be91906143d9565b6110c89190614462565b82116110df57686c6b935b8bbd40000090506111c9565b6005600260fe60008660ff1660ff1681526020019081526020016000205461110791906143d9565b6111119190614462565b82116111285768a2a15d09519be0000090506111c9565b6005600360fe60008660ff1660ff1681526020019081526020016000205461115091906143d9565b61115a9190614462565b82116111715768d8d726b7177a80000090506111c9565b6005600460fe60008660ff1660ff1681526020019081526020016000205461119991906143d9565b6111a39190614462565b82116111bb5769010f0cf064dd5920000090506111c9565b69014542ba12a337c0000090505b92915050565b60608151835114611215576040517f08c379a000000000000000000000000000000000000000000000000000000000815260040161120c90614505565b60405180910390fd5b6000835167ffffffffffffffff81111561123257611231612f82565b5b6040519080825280602002602001820160405280156112605781602001602082028036833780820191505090505b50905060005b84518110156112dd576112ad85828151811061128557611284613fc8565b5b60200260200101518583815181106112a05761129f613fc8565b5b6020026020010151610505565b8282815181106112c0576112bf613fc8565b5b602002602001018181525050806112d6906142d5565b9050611266565b508091505092915050565b6000606560009054906101000a900460ff16905090565b611307611cee565b73ffffffffffffffffffffffffffffffffffffffff16611325611511565b73ffffffffffffffffffffffffffffffffffffffff161461137b576040517f08c379a000000000000000000000000000000000000000000000000000000000815260040161137290614571565b60405180910390fd5b61138560006121a4565b565b61138f611cee565b73ffffffffffffffffffffffffffffffffffffffff166113ad611511565b73ffffffffffffffffffffffffffffffffffffffff1614611403576040517f08c379a00000000000000000000000000000000000000000000000000000000081526004016113fa90614571565b60405180910390fd5b604051806040016040528082806000019061141e91906145a0565b8080601f016020809104026020016040519081016040528093929190818152602001838380828437600081840152601f19601f82011690508083019250505050505050815260200182806020019061147691906145a0565b8080601f016020809104026020016040519081016040528093929190818152602001838380828437600081840152601f19601f82011690508083019250505050505050815250610101600084815260200190815260200160002060008201518160000190805190602001906114ec929190612bbf565b506020820151816001019080519060200190611509929190612bbf565b509050505050565b6000603360009054906101000a900473ffffffffffffffffffffffffffffffffffffffff16905090565b61154d611546611cee565b838361226a565b5050565b60ff6020528060005260406000206000915090505481565b61010160205280600052604060002060009150905080600001805461158d90613a61565b80601f01602080910402602001604051908101604052809291908181526020018280546115b990613a61565b80156116065780601f106115db57610100808354040283529160200191611606565b820191906000526020600020905b8154815290600101906020018083116115e957829003601f168201915b50505050509080600101805461161b90613a61565b80601f016020809104026020016040519081016040528092919081815260200182805461164790613a61565b80156116945780601f1061166957610100808354040283529160200191611694565b820191906000526020600020905b81548152906001019060200180831161167757829003601f168201915b5050505050905082565b600060ca60008473ffffffffffffffffffffffffffffffffffffffff1673ffffffffffffffffffffffffffffffffffffffff16815260200190815260200160002060008373ffffffffffffffffffffffffffffffffffffffff1673ffffffffffffffffffffffffffffffffffffffff16815260200190815260200160002060009054906101000a900460ff16905092915050565b61173a611cee565b73ffffffffffffffffffffffffffffffffffffffff168573ffffffffffffffffffffffffffffffffffffffff161480611780575061177f8561177a611cee565b61169e565b5b6117bf576040517f08c379a00000000000000000000000000000000000000000000000000000000081526004016117b690614675565b60405180910390fd5b6117cc85858585856123d7565b5050505050565b6117db611cee565b73ffffffffffffffffffffffffffffffffffffffff166117f9611511565b73ffffffffffffffffffffffffffffffffffffffff161461184f576040517f08c379a000000000000000000000000000000000000000000000000000000000815260040161184690614571565b60405180910390fd5b600073ffffffffffffffffffffffffffffffffffffffff168173ffffffffffffffffffffffffffffffffffffffff1614156118bf576040517f08c379a00000000000000000000000000000000000000000000000000000000081526004016118b690614707565b60405180910390fd5b6118c8816121a4565b50565b60007f01ffc9a7000000000000000000000000000000000000000000000000000000007bffffffffffffffffffffffffffffffffffffffffffffffffffffffff1916827bffffffffffffffffffffffffffffffffffffffffffffffffffffffff1916149050919050565b6060600082141561197d576040518060400160405280600181526020017f30000000000000000000000000000000000000000000000000000000000000008152509050611a91565b600082905060005b600082146119af578080611998906142d5565b915050600a826119a89190614462565b9150611985565b60008167ffffffffffffffff8111156119cb576119ca612f82565b5b6040519080825280601f01601f1916602001820160405280156119fd5781602001600182028036833780820191505090505b5090505b60008514611a8a57600182611a1691906139fe565b9150600a85611a259190614727565b6030611a3191906141a7565b60f81b818381518110611a4757611a46613fc8565b5b60200101907effffffffffffffffffffffffffffffffffffffffffffffffffffffffffffff1916908160001a905350600a85611a839190614462565b9450611a01565b8093505050505b919050565b6060600082511415611ab957604051806020016040528060008152509050611c16565b6000604051806060016040528060408152602001614e5c6040913990506000600360028551611ae891906141a7565b611af29190614462565b6004611afe91906143d9565b90506000602082611b0f91906141a7565b67ffffffffffffffff811115611b2857611b27612f82565b5b6040519080825280601f01601f191660200182016040528015611b5a5781602001600182028036833780820191505090505b509050818152600183018586518101602084015b81831015611bd5576003830192508251603f8160121c1685015160f81b8252600182019150603f81600c1c1685015160f81b8252600182019150603f8160061c1685015160f81b8252600182019150603f811685015160f81b825260018201915050611b6e565b600389510660018114611bef5760028114611bff57611c0a565b613d3d60f01b6002830352611c0a565b603d60f81b60018303525b50505050508093505050505b919050565b6000611c263061265c565b15905090565b600060019054906101000a900460ff16611c7b576040517f08c379a0000000000000000000000000000000000000000000000000000000008152600401611c72906147ca565b60405180910390fd5b611c8361266f565b611c8b6126c0565b565b600060019054906101000a900460ff16611cdc576040517f08c379a0000000000000000000000000000000000000000000000000000000008152600401611cd3906147ca565b60405180910390fd5b611ce461266f565b611cec612721565b565b600033905090565b600073ffffffffffffffffffffffffffffffffffffffff168473ffffffffffffffffffffffffffffffffffffffff161415611d66576040517f08c379a0000000000000000000000000000000000000000000000000000000008152600401611d5d9061485c565b60405180910390fd5b6000611d70611cee565b9050611d9181600087611d828861278d565b611d8b8861278d565b87612807565b8260c9600086815260200190815260200160002060008773ffffffffffffffffffffffffffffffffffffffff1673ffffffffffffffffffffffffffffffffffffffff1681526020019081526020016000206000828254611df191906141a7565b925050819055508473ffffffffffffffffffffffffffffffffffffffff16600073ffffffffffffffffffffffffffffffffffffffff168273ffffffffffffffffffffffffffffffffffffffff167fc3d58168c5ae7397731d063d5bbf3d657854427343f4c083240f7aacaa2d0f628787604051611e6f92919061487c565b60405180910390a4611e868160008787878761280f565b5050505050565b8151835114611ed1576040517f08c379a0000000000000000000000000000000000000000000000000000000008152600401611ec890614917565b60405180910390fd5b600073ffffffffffffffffffffffffffffffffffffffff168473ffffffffffffffffffffffffffffffffffffffff161415611f41576040517f08c379a0000000000000000000000000000000000000000000000000000000008152600401611f38906149a9565b60405180910390fd5b6000611f4b611cee565b9050611f5b818787878787612807565b60005b845181101561210f576000858281518110611f7c57611f7b613fc8565b5b602002602001015190506000858381518110611f9b57611f9a613fc8565b5b60200260200101519050600060c9600084815260200190815260200160002060008b73ffffffffffffffffffffffffffffffffffffffff1673ffffffffffffffffffffffffffffffffffffffff1681526020019081526020016000205490508181101561203d576040517f08c379a000000000000000000000000000000000000000000000000000000000815260040161203490614a3b565b60405180910390fd5b81810360c9600085815260200190815260200160002060008c73ffffffffffffffffffffffffffffffffffffffff1673ffffffffffffffffffffffffffffffffffffffff168152602001908152602001600020819055508160c9600085815260200190815260200160002060008b73ffffffffffffffffffffffffffffffffffffffff1673ffffffffffffffffffffffffffffffffffffffff16815260200190815260200160002060008282546120f491906141a7565b9250508190555050505080612108906142d5565b9050611f5e565b508473ffffffffffffffffffffffffffffffffffffffff168673ffffffffffffffffffffffffffffffffffffffff168273ffffffffffffffffffffffffffffffffffffffff167f4a39dc06d4c0dbc64b70af90fd698a233a518aa5d07e595d983b8c0526c8f7fb8787604051612186929190614a5b565b60405180910390a461219c8187878787876129e7565b505050505050565b6000603360009054906101000a900473ffffffffffffffffffffffffffffffffffffffff16905081603360006101000a81548173ffffffffffffffffffffffffffffffffffffffff021916908373ffffffffffffffffffffffffffffffffffffffff1602179055508173ffffffffffffffffffffffffffffffffffffffff168173ffffffffffffffffffffffffffffffffffffffff167f8be0079c531659141344cd1fd0a4f28419497f9722a3daafe3b4186f6b6457e060405160405180910390a35050565b8173ffffffffffffffffffffffffffffffffffffffff168373ffffffffffffffffffffffffffffffffffffffff1614156122d9576040517f08c379a00000000000000000000000000000000000000000000000000000000081526004016122d090614b04565b60405180910390fd5b8060ca60008573ffffffffffffffffffffffffffffffffffffffff1673ffffffffffffffffffffffffffffffffffffffff16815260200190815260200160002060008473ffffffffffffffffffffffffffffffffffffffff1673ffffffffffffffffffffffffffffffffffffffff16815260200190815260200160002060006101000a81548160ff0219169083151502179055508173ffffffffffffffffffffffffffffffffffffffff168373ffffffffffffffffffffffffffffffffffffffff167f17307eab39ab6107e8899845ad3d59bd9653f200f220920489ca2b5937696c31836040516123ca9190612e14565b60405180910390a3505050565b600073ffffffffffffffffffffffffffffffffffffffff168473ffffffffffffffffffffffffffffffffffffffff161415612447576040517f08c379a000000000000000000000000000000000000000000000000000000000815260040161243e906149a9565b60405180910390fd5b6000612451611cee565b90506124718187876124628861278d565b61246b8861278d565b87612807565b600060c9600086815260200190815260200160002060008873ffffffffffffffffffffffffffffffffffffffff1673ffffffffffffffffffffffffffffffffffffffff16815260200190815260200160002054905083811015612509576040517f08c379a000000000000000000000000000000000000000000000000000000000815260040161250090614a3b565b60405180910390fd5b83810360c9600087815260200190815260200160002060008973ffffffffffffffffffffffffffffffffffffffff1673ffffffffffffffffffffffffffffffffffffffff168152602001908152602001600020819055508360c9600087815260200190815260200160002060008873ffffffffffffffffffffffffffffffffffffffff1673ffffffffffffffffffffffffffffffffffffffff16815260200190815260200160002060008282546125c091906141a7565b925050819055508573ffffffffffffffffffffffffffffffffffffffff168773ffffffffffffffffffffffffffffffffffffffff168373ffffffffffffffffffffffffffffffffffffffff167fc3d58168c5ae7397731d063d5bbf3d657854427343f4c083240f7aacaa2d0f62888860405161263d92919061487c565b60405180910390a461265382888888888861280f565b50505050505050565b600080823b905060008111915050919050565b600060019054906101000a900460ff166126be576040517f08c379a00000000000000000000000000000000000000000000000000000000081526004016126b5906147ca565b60405180910390fd5b565b600060019054906101000a900460ff1661270f576040517f08c379a0000000000000000000000000000000000000000000000000000000008152600401612706906147ca565b60405180910390fd5b61271f61271a611cee565b6121a4565b565b600060019054906101000a900460ff16612770576040517f08c379a0000000000000000000000000000000000000000000000000000000008152600401612767906147ca565b60405180910390fd5b6000606560006101000a81548160ff021916908315150217905550565b60606000600167ffffffffffffffff8111156127ac576127ab612f82565b5b6040519080825280602002602001820160405280156127da5781602001602082028036833780820191505090505b50905082816000815181106127f2576127f1613fc8565b5b60200260200101818152505080915050919050565b505050505050565b61282e8473ffffffffffffffffffffffffffffffffffffffff1661265c565b156129df578373ffffffffffffffffffffffffffffffffffffffff1663f23a6e6187878686866040518663ffffffff1660e01b8152600401612874959493929190614b6e565b6020604051808303816000875af19250505080156128b057506040513d601f19601f820116820180604052508101906128ad9190614bdd565b60015b612956576128bc614c17565b806308c379a0141561291957506128d1614c39565b806128dc575061291b565b806040517f08c379a00000000000000000000000000000000000000000000000000000000081526004016129109190612f5b565b60405180910390fd5b505b6040517f08c379a000000000000000000000000000000000000000000000000000000000815260040161294d90614d41565b60405180910390fd5b63f23a6e6160e01b7bffffffffffffffffffffffffffffffffffffffffffffffffffffffff1916817bffffffffffffffffffffffffffffffffffffffffffffffffffffffff1916146129dd576040517f08c379a00000000000000000000000000000000000000000000000000000000081526004016129d490614dd3565b60405180910390fd5b505b505050505050565b612a068473ffffffffffffffffffffffffffffffffffffffff1661265c565b15612bb7578373ffffffffffffffffffffffffffffffffffffffff1663bc197c8187878686866040518663ffffffff1660e01b8152600401612a4c959493929190614df3565b6020604051808303816000875af1925050508015612a8857506040513d601f19601f82011682018060405250810190612a859190614bdd565b60015b612b2e57612a94614c17565b806308c379a01415612af15750612aa9614c39565b80612ab45750612af3565b806040517f08c379a0000000000000000000000000000000000000000000000000000000008152600401612ae89190612f5b565b60405180910390fd5b505b6040517f08c379a0000000000000000000000000000000000000000000000000000000008152600401612b2590614d41565b60405180910390fd5b63bc197c8160e01b7bffffffffffffffffffffffffffffffffffffffffffffffffffffffff1916817bffffffffffffffffffffffffffffffffffffffffffffffffffffffff191614612bb5576040517f08c379a0000000000000000000000000000000000000000000000000000000008152600401612bac90614dd3565b60405180910390fd5b505b505050505050565b828054612bcb90613a61565b90600052602060002090601f016020900481019282612bed5760008555612c34565b82601f10612c0657805160ff1916838001178555612c34565b82800160010185558215612c34579182015b82811115612c33578251825591602001919060010190612c18565b5b509050612c419190612c45565b5090565b5b80821115612c5e576000816000905550600101612c46565b5090565b6000604051905090565b600080fd5b600080fd5b600073ffffffffffffffffffffffffffffffffffffffff82169050919050565b6000612ca182612c76565b9050919050565b612cb181612c96565b8114612cbc57600080fd5b50565b600081359050612cce81612ca8565b92915050565b6000819050919050565b612ce781612cd4565b8114612cf257600080fd5b50565b600081359050612d0481612cde565b92915050565b60008060408385031215612d2157612d20612c6c565b5b6000612d2f85828601612cbf565b9250506020612d4085828601612cf5565b9150509250929050565b612d5381612cd4565b82525050565b6000602082019050612d6e6000830184612d4a565b92915050565b60007fffffffff0000000000000000000000000000000000000000000000000000000082169050919050565b612da981612d74565b8114612db457600080fd5b50565b600081359050612dc681612da0565b92915050565b600060208284031215612de257612de1612c6c565b5b6000612df084828501612db7565b91505092915050565b60008115159050919050565b612e0e81612df9565b82525050565b6000602082019050612e296000830184612e05565b92915050565b600060ff82169050919050565b612e4581612e2f565b8114612e5057600080fd5b50565b600081359050612e6281612e3c565b92915050565b600060208284031215612e7e57612e7d612c6c565b5b6000612e8c84828501612e53565b91505092915050565b600060208284031215612eab57612eaa612c6c565b5b6000612eb984828501612cf5565b91505092915050565b600081519050919050565b600082825260208201905092915050565b60005b83811015612efc578082015181840152602081019050612ee1565b83811115612f0b576000848401525b50505050565b6000601f19601f8301169050919050565b6000612f2d82612ec2565b612f378185612ecd565b9350612f47818560208601612ede565b612f5081612f11565b840191505092915050565b60006020820190508181036000830152612f758184612f22565b905092915050565b600080fd5b7f4e487b7100000000000000000000000000000000000000000000000000000000600052604160045260246000fd5b612fba82612f11565b810181811067ffffffffffffffff82111715612fd957612fd8612f82565b5b80604052505050565b6000612fec612c62565b9050612ff88282612fb1565b919050565b600067ffffffffffffffff82111561301857613017612f82565b5b602082029050602081019050919050565b600080fd5b600061304161303c84612ffd565b612fe2565b9050808382526020820190506020840283018581111561306457613063613029565b5b835b8181101561308d57806130798882612cf5565b845260208401935050602081019050613066565b5050509392505050565b600082601f8301126130ac576130ab612f7d565b5b81356130bc84826020860161302e565b91505092915050565b600067ffffffffffffffff8211156130e0576130df612f82565b5b602082029050602081019050919050565b60006131046130ff846130c5565b612fe2565b9050808382526020820190506020840283018581111561312757613126613029565b5b835b81811015613150578061313c8882612e53565b845260208401935050602081019050613129565b5050509392505050565b600082601f83011261316f5761316e612f7d565b5b813561317f8482602086016130f1565b91505092915050565b600080600080600060a086880312156131a4576131a3612c6c565b5b60006131b288828901612cbf565b95505060206131c388828901612cbf565b94505060406131d488828901612cbf565b935050606086013567ffffffffffffffff8111156131f5576131f4612c71565b5b61320188828901613097565b925050608086013567ffffffffffffffff81111561322257613221612c71565b5b61322e8882890161315a565b9150509295509295909350565b6000806040838503121561325257613251612c6c565b5b600061326085828601612e53565b925050602061327185828601612e53565b9150509250929050565b600080fd5b600067ffffffffffffffff82111561329b5761329a612f82565b5b6132a482612f11565b9050602081019050919050565b82818337600083830152505050565b60006132d36132ce84613280565b612fe2565b9050828152602081018484840111156132ef576132ee61327b565b5b6132fa8482856132b1565b509392505050565b600082601f83011261331757613316612f7d565b5b81356133278482602086016132c0565b91505092915050565b600080600080600060a0868803121561334c5761334b612c6c565b5b600061335a88828901612cbf565b955050602061336b88828901612cbf565b945050604086013567ffffffffffffffff81111561338c5761338b612c71565b5b61339888828901613097565b935050606086013567ffffffffffffffff8111156133b9576133b8612c71565b5b6133c588828901613097565b925050608086013567ffffffffffffffff8111156133e6576133e5612c71565b5b6133f288828901613302565b9150509295509295909350565b6000806040838503121561341657613415612c6c565b5b600061342485828601612e53565b925050602061343585828601612cf5565b9150509250929050565b600067ffffffffffffffff82111561345a57613459612f82565b5b602082029050602081019050919050565b600061347e6134798461343f565b612fe2565b905080838252602082019050602084028301858111156134a1576134a0613029565b5b835b818110156134ca57806134b68882612cbf565b8452602084019350506020810190506134a3565b5050509392505050565b600082601f8301126134e9576134e8612f7d565b5b81356134f984826020860161346b565b91505092915050565b6000806040838503121561351957613518612c6c565b5b600083013567ffffffffffffffff81111561353757613536612c71565b5b613543858286016134d4565b925050602083013567ffffffffffffffff81111561356457613563612c71565b5b61357085828601613097565b9150509250929050565b600081519050919050565b600082825260208201905092915050565b6000819050602082019050919050565b6135af81612cd4565b82525050565b60006135c183836135a6565b60208301905092915050565b6000602082019050919050565b60006135e58261357a565b6135ef8185613585565b93506135fa83613596565b8060005b8381101561362b57815161361288826135b5565b975061361d836135cd565b9250506001810190506135fe565b5085935050505092915050565b6000602082019050818103600083015261365281846135da565b905092915050565b600080fd5b6000604082840312156136755761367461365a565b5b81905092915050565b6000806040838503121561369557613694612c6c565b5b60006136a385828601612cf5565b925050602083013567ffffffffffffffff8111156136c4576136c3612c71565b5b6136d08582860161365f565b9150509250929050565b6136e381612c96565b82525050565b60006020820190506136fe60008301846136da565b92915050565b61370d81612df9565b811461371857600080fd5b50565b60008135905061372a81613704565b92915050565b6000806040838503121561374757613746612c6c565b5b600061375585828601612cbf565b92505060206137668582860161371b565b9150509250929050565b6000604082019050818103600083015261378a8185612f22565b9050818103602083015261379e8184612f22565b90509392505050565b600080604083850312156137be576137bd612c6c565b5b60006137cc85828601612cbf565b92505060206137dd85828601612cbf565b9150509250929050565b600080600080600060a0868803121561380357613802612c6c565b5b600061381188828901612cbf565b955050602061382288828901612cbf565b945050604061383388828901612cf5565b935050606061384488828901612cf5565b925050608086013567ffffffffffffffff81111561386557613864612c71565b5b61387188828901613302565b9150509295509295909350565b60006020828403121561389457613893612c6c565b5b60006138a284828501612cbf565b91505092915050565b7f455243313135353a2062616c616e636520717565727920666f7220746865207a60008201527f65726f2061646472657373000000000000000000000000000000000000000000602082015250565b6000613907602b83612ecd565b9150613912826138ab565b604082019050919050565b60006020820190508181036000830152613936816138fa565b9050919050565b7f455243313135354d657461646174613a2055524920717565727920666f72206e60008201527f6f6e2d6578697374656e7420746f6b656e000000000000000000000000000000602082015250565b6000613999603183612ecd565b91506139a48261393d565b604082019050919050565b600060208201905081810360008301526139c88161398c565b9050919050565b7f4e487b7100000000000000000000000000000000000000000000000000000000600052601160045260246000fd5b6000613a0982612cd4565b9150613a1483612cd4565b925082821015613a2757613a266139cf565b5b828203905092915050565b7f4e487b7100000000000000000000000000000000000000000000000000000000600052602260045260246000fd5b60006002820490506001821680613a7957607f821691505b60208210811415613a8d57613a8c613a32565b5b50919050565b600081905092915050565b7f7b00000000000000000000000000000000000000000000000000000000000000600082015250565b6000613ad4600183613a93565b9150613adf82613a9e565b600182019050919050565b7f226e616d65223a22000000000000000000000000000000000000000000000000600082015250565b6000613b20600883613a93565b9150613b2b82613aea565b600882019050919050565b6000613b4182612ec2565b613b4b8185613a93565b9350613b5b818560208601612ede565b80840191505092915050565b7f222c000000000000000000000000000000000000000000000000000000000000600082015250565b6000613b9d600283613a93565b9150613ba882613b67565b600282019050919050565b7f226465736372697074696f6e223a22526174416c6572742c20746865204e465460008201527f2067616d652074686174206c65747320796f7520547261696e324561726e207960208201527f6f75722063686172616374657273206f6e2d636861696e20666f72206869676860408201527f65722072657761726473212068747470733a2f2f726174616c6572742e636f6d60608201527f2f222c0000000000000000000000000000000000000000000000000000000000608082015250565b6000613c81608383613a93565b9150613c8c82613bb3565b608382019050919050565b7f2265787465726e616c5f75726c223a2268747470733a2f2f726174616c65727460008201527f2e636f6d2f6b69746368656e732f000000000000000000000000000000000000602082015250565b6000613cf3602e83613a93565b9150613cfe82613c97565b602e82019050919050565b7f22696d616765223a22646174613a696d6167652f706e673b6261736536342c00600082015250565b6000613d3f601f83613a93565b9150613d4a82613d09565b601f82019050919050565b600081519050919050565b600081905092915050565b6000613d7682613d55565b613d808185613d60565b9350613d90818560208601612ede565b80840191505092915050565b7f2200000000000000000000000000000000000000000000000000000000000000600082015250565b6000613dd2600183613a93565b9150613ddd82613d9c565b600182019050919050565b7f7d00000000000000000000000000000000000000000000000000000000000000600082015250565b6000613e1e600183613a93565b9150613e2982613de8565b600182019050919050565b6000613e3f82613ac7565b9150613e4a82613b13565b9150613e568286613b36565b9150613e6182613b90565b9150613e6c82613c74565b9150613e7782613ce6565b9150613e838285613b36565b9150613e8e82613b90565b9150613e9982613d32565b9150613ea58284613d6b565b9150613eb082613dc5565b9150613ebb82613e11565b9150819050949350505050565b7f646174613a6170706c69636174696f6e2f6a736f6e3b6261736536342c000000600082015250565b6000613efe601d83613a93565b9150613f0982613ec8565b601d82019050919050565b6000613f1f82613ef1565b9150613f2b8284613b36565b915081905092915050565b7f496e697469616c697a61626c653a20636f6e747261637420697320616c72656160008201527f647920696e697469616c697a6564000000000000000000000000000000000000602082015250565b6000613f92602e83612ecd565b9150613f9d82613f36565b604082019050919050565b60006020820190508181036000830152613fc181613f85565b9050919050565b7f4e487b7100000000000000000000000000000000000000000000000000000000600052603260045260246000fd5b7f5061757361626c653a2070617573656400000000000000000000000000000000600082015250565b600061402d601083612ecd565b915061403882613ff7565b602082019050919050565b6000602082019050818103600083015261405c81614020565b9050919050565b7f454f41206f6e6c79000000000000000000000000000000000000000000000000600082015250565b6000614099600883612ecd565b91506140a482614063565b602082019050919050565b600060208201905081810360008301526140c88161408c565b9050919050565b7f496e76616c6964206b69746368656e0000000000000000000000000000000000600082015250565b6000614105600f83612ecd565b9150614110826140cf565b602082019050919050565b60006020820190508181036000830152614134816140f8565b9050919050565b7f496e76616c6964206d696e7420616d6f756e7400000000000000000000000000600082015250565b6000614171601383612ecd565b915061417c8261413b565b602082019050919050565b600060208201905081810360008301526141a081614164565b9050919050565b60006141b282612cd4565b91506141bd83612cd4565b9250827fffffffffffffffffffffffffffffffffffffffffffffffffffffffffffffffff038211156141f2576141f16139cf565b5b828201905092915050565b7f416c6c20746f6b656e73206d696e746564000000000000000000000000000000600082015250565b6000614233601183612ecd565b915061423e826141fd565b602082019050919050565b6000602082019050818103600083015261426281614226565b9050919050565b7f496e76616c6964207061796d656e742074797065000000000000000000000000600082015250565b600061429f601483612ecd565b91506142aa82614269565b602082019050919050565b600060208201905081810360008301526142ce81614292565b9050919050565b60006142e082612cd4565b91507fffffffffffffffffffffffffffffffffffffffffffffffffffffffffffffffff821415614313576143126139cf565b5b600182019050919050565b600060408201905061433360008301856136da565b6143406020830184612d4a565b9392505050565b7f455243313135353a207472616e736665722063616c6c6572206973206e6f742060008201527f6f776e6572206e6f7220617070726f7665640000000000000000000000000000602082015250565b60006143a3603283612ecd565b91506143ae82614347565b604082019050919050565b600060208201905081810360008301526143d281614396565b9050919050565b60006143e482612cd4565b91506143ef83612cd4565b9250817fffffffffffffffffffffffffffffffffffffffffffffffffffffffffffffffff0483118215151615614428576144276139cf565b5b828202905092915050565b7f4e487b7100000000000000000000000000000000000000000000000000000000600052601260045260246000fd5b600061446d82612cd4565b915061447883612cd4565b92508261448857614487614433565b5b828204905092915050565b7f455243313135353a206163636f756e747320616e6420696473206c656e67746860008201527f206d69736d617463680000000000000000000000000000000000000000000000602082015250565b60006144ef602983612ecd565b91506144fa82614493565b604082019050919050565b6000602082019050818103600083015261451e816144e2565b9050919050565b7f4f776e61626c653a2063616c6c6572206973206e6f7420746865206f776e6572600082015250565b600061455b602083612ecd565b915061456682614525565b602082019050919050565b6000602082019050818103600083015261458a8161454e565b9050919050565b600080fd5b600080fd5b600080fd5b600080833560016020038436030381126145bd576145bc614591565b5b80840192508235915067ffffffffffffffff8211156145df576145de614596565b5b6020830192506001820236038313156145fb576145fa61459b565b5b509250929050565b7f455243313135353a2063616c6c6572206973206e6f74206f776e6572206e6f7260008201527f20617070726f7665640000000000000000000000000000000000000000000000602082015250565b600061465f602983612ecd565b915061466a82614603565b604082019050919050565b6000602082019050818103600083015261468e81614652565b9050919050565b7f4f776e61626c653a206e6577206f776e657220697320746865207a65726f206160008201527f6464726573730000000000000000000000000000000000000000000000000000602082015250565b60006146f1602683612ecd565b91506146fc82614695565b604082019050919050565b60006020820190508181036000830152614720816146e4565b9050919050565b600061473282612cd4565b915061473d83612cd4565b92508261474d5761474c614433565b5b828206905092915050565b7f496e697469616c697a61626c653a20636f6e7472616374206973206e6f74206960008201527f6e697469616c697a696e67000000000000000000000000000000000000000000602082015250565b60006147b4602b83612ecd565b91506147bf82614758565b604082019050919050565b600060208201905081810360008301526147e3816147a7565b9050919050565b7f455243313135353a206d696e7420746f20746865207a65726f2061646472657360008201527f7300000000000000000000000000000000000000000000000000000000000000602082015250565b6000614846602183612ecd565b9150614851826147ea565b604082019050919050565b6000602082019050818103600083015261487581614839565b9050919050565b60006040820190506148916000830185612d4a565b61489e6020830184612d4a565b9392505050565b7f455243313135353a2069647320616e6420616d6f756e7473206c656e6774682060008201527f6d69736d61746368000000000000000000000000000000000000000000000000602082015250565b6000614901602883612ecd565b915061490c826148a5565b604082019050919050565b60006020820190508181036000830152614930816148f4565b9050919050565b7f455243313135353a207472616e7366657220746f20746865207a65726f20616460008201527f6472657373000000000000000000000000000000000000000000000000000000602082015250565b6000614993602583612ecd565b915061499e82614937565b604082019050919050565b600060208201905081810360008301526149c281614986565b9050919050565b7f455243313135353a20696e73756666696369656e742062616c616e636520666f60008201527f72207472616e7366657200000000000000000000000000000000000000000000602082015250565b6000614a25602a83612ecd565b9150614a30826149c9565b604082019050919050565b60006020820190508181036000830152614a5481614a18565b9050919050565b60006040820190508181036000830152614a7581856135da565b90508181036020830152614a8981846135da565b90509392505050565b7f455243313135353a2073657474696e6720617070726f76616c2073746174757360008201527f20666f722073656c660000000000000000000000000000000000000000000000602082015250565b6000614aee602983612ecd565b9150614af982614a92565b604082019050919050565b60006020820190508181036000830152614b1d81614ae1565b9050919050565b600082825260208201905092915050565b6000614b4082613d55565b614b4a8185614b24565b9350614b5a818560208601612ede565b614b6381612f11565b840191505092915050565b600060a082019050614b8360008301886136da565b614b9060208301876136da565b614b9d6040830186612d4a565b614baa6060830185612d4a565b8181036080830152614bbc8184614b35565b90509695505050505050565b600081519050614bd781612da0565b92915050565b600060208284031215614bf357614bf2612c6c565b5b6000614c0184828501614bc8565b91505092915050565b60008160e01c9050919050565b600060033d1115614c365760046000803e614c33600051614c0a565b90505b90565b600060443d1015614c4957614ccc565b614c51612c62565b60043d036004823e80513d602482011167ffffffffffffffff82111715614c79575050614ccc565b808201805167ffffffffffffffff811115614c975750505050614ccc565b80602083010160043d038501811115614cb4575050505050614ccc565b614cc382602001850186612fb1565b82955050505050505b90565b7f455243313135353a207472616e7366657220746f206e6f6e204552433131353560008201527f526563656976657220696d706c656d656e746572000000000000000000000000602082015250565b6000614d2b603483612ecd565b9150614d3682614ccf565b604082019050919050565b60006020820190508181036000830152614d5a81614d1e565b9050919050565b7f455243313135353a204552433131353552656365697665722072656a6563746560008201527f6420746f6b656e73000000000000000000000000000000000000000000000000602082015250565b6000614dbd602883612ecd565b9150614dc882614d61565b604082019050919050565b60006020820190508181036000830152614dec81614db0565b9050919050565b600060a082019050614e0860008301886136da565b614e1560208301876136da565b8181036040830152614e2781866135da565b90508181036060830152614e3b81856135da565b90508181036080830152614e4f8184614b35565b9050969550505050505056fe4142434445464748494a4b4c4d4e4f505152535455565758595a6162636465666768696a6b6c6d6e6f707172737475767778797a303132333435363738392b2fa2646970667358221220ced57bff245d05abc0cbe6f3d9115979b5f38cd30fd3e2e514d1e1a15140965964736f6c634300080a0033",
  "immutableReferences": {},
  "source": "// SPDX-License-Identifier: MIT\n\npragma solidity ^0.8.0;\n\nimport \"@openzeppelin/contracts-upgradeable/proxy/utils/Initializable.sol\";\nimport \"@openzeppelin/contracts-upgradeable/access/OwnableUpgradeable.sol\";\nimport \"@openzeppelin/contracts-upgradeable/security/PausableUpgradeable.sol\";\nimport \"@openzeppelin/contracts-upgradeable/token/ERC1155/ERC1155Upgradeable.sol\";\nimport \"@openzeppelin/contracts/utils/Strings.sol\";\nimport \"./FastFood.sol\";\nimport \"./CasualFood.sol\";\nimport \"./Character.sol\";\n\ncontract KitchenShop is Initializable, OwnableUpgradeable, PausableUpgradeable, ERC1155Upgradeable {\n  using Strings for uint256;\n\n  struct KitchenData { // Struct to store each kitchen's metadata\n    string name;\n    string png;\n  }\n\n  FastFood fastFood; // Reference to the $FFOOD contract\n  CasualFood casualFood; // Reference to the $CFOOD contract\n  Character character; // Reference to the Character contract\n\n  mapping (uint8 => uint256) public maxTokens;\n  mapping (uint8 => uint256) public minSkill;\n  mapping (uint8 => uint256) public minted;\n  mapping(uint256 => KitchenData) public kitchenData; // Storage of each kitchen's metadata\n\n  function initialize(address _fastFood, address _casualFood, address _character, uint256[] memory _maxTokens, uint8[] memory _minSkill) external initializer {\n    __Ownable_init();\n    __Pausable_init();\n    // TODO similar to __ERC721_init(\"RatAlert Characters\", \"RATCHAR\"); or _setURI(string newuri)?\n\n    fastFood = FastFood(_fastFood);\n    casualFood = CasualFood(_casualFood);\n    character = Character(_character);\n    maxTokens[1] = _maxTokens[0];\n    maxTokens[2] = _maxTokens[1];\n    minSkill[1] = _minSkill[0];\n    minSkill[2] = _minSkill[1];\n    minted[1] = 0;\n    minted[2] = 0;\n  }\n\n  /**\n   * Mints new ERC1155 token(s) of a kitchen\n   * @param amount Number of tokens to mint\n   */\n  function mint(uint8 kitchen, uint8 amount) external payable whenNotPaused {\n    require(tx.origin == _msgSender(), \"EOA only\");\n    require(kitchen > 0 && kitchen <= 2, \"Invalid kitchen\");\n    require(amount > 0 && amount <= 10, \"Invalid mint amount\");\n    require(minted[kitchen] + amount <= maxTokens[kitchen], \"All tokens minted\");\n    require(msg.value == 0, \"Invalid payment type\");\n\n    uint256 totalCost = 0;\n    for (uint i = 0; i < amount; i++) {\n      minted[kitchen] ++;\n      totalCost += mintCost(kitchen, minted[kitchen]);\n    }\n    _mint(_msgSender(), kitchen, amount, \"\");\n    if (totalCost > 0) {\n      if (kitchen == 2) {\n        casualFood.burn(_msgSender(), totalCost);\n      } else {\n        fastFood.burn(_msgSender(), totalCost);\n      }\n    }\n  }\n\n  /**\n   *    1 - 1000: 2000 $FFOOD\n   * 1001 - 2000: 3000 $FFOOD\n   * 2001 - 3000: 4000 $FFOOD\n   * 3001 - 4000: 5000 $FFOOD\n   * 4001 - 5000: 6000 $FFOOD\n   * @param tokenId - The token ID to check\n   * @return The minting cost of the given ID\n   */\n  function mintCost(uint8 kitchen, uint256 tokenId) public view returns (uint256) {\n    if (tokenId <= maxTokens[kitchen] * 1 / 5) return 2000 ether;\n    if (tokenId <= maxTokens[kitchen] * 2 / 5) return 3000 ether;\n    if (tokenId <= maxTokens[kitchen] * 3 / 5) return 4000 ether;\n    if (tokenId <= maxTokens[kitchen] * 4 / 5) return 5000 ether;\n    return 6000 ether;\n  }\n\n  function uri(uint256 tokenId) public view override returns (string memory) {\n    require(tokenId > 0 && tokenId <= 2, \"ERC1155Metadata: URI query for non-existent token\");\n    KitchenData memory kitchen = kitchenData[tokenId - 1];\n\n    string memory metadata = string(abi.encodePacked(\n      '{',\n        '\"name\":\"', kitchen.name, '\",',\n        '\"description\":\"RatAlert, the NFT game that lets you Train2Earn your characters on-chain for higher rewards! https://ratalert.com/\",',\n        '\"external_url\":\"https://ratalert.com/kitchens/', tokenId.toString(), '\",',\n        '\"image\":\"data:image/png;base64,', bytes(kitchen.png), '\"',\n      '}'\n    ));\n\n    return string(abi.encodePacked(\"data:application/json;base64,\", base64(bytes(metadata))));\n  }\n\n  /**\n   * Used by admin to upload the kitchen images\n   * @param imageIndex - The index at which to upload the image\n   * @param kitchen - The base64 encoded PNG for that kitchen\n   */\n  function uploadImage(uint256 imageIndex, KitchenData calldata kitchen) external onlyOwner {\n    kitchenData[imageIndex] = KitchenData(\n      kitchen.name,\n      kitchen.png\n    );\n  }\n\n  /** BASE 64 - Written by Brech Devos */\n  string internal constant TABLE = 'ABCDEFGHIJKLMNOPQRSTUVWXYZabcdefghijklmnopqrstuvwxyz0123456789+/';\n  function base64(bytes memory data) internal pure returns (string memory) {\n    if (data.length == 0) return '';\n    string memory table = TABLE; // load the table into memory\n    uint256 encodedLen = 4 * ((data.length + 2) / 3); // multiply by 4/3 rounded up\n    string memory result = new string(encodedLen + 32); // add some extra buffer at the end required for the writing\n    assembly {\n      mstore(result, encodedLen) // set the actual output length\n      let tablePtr := add(table, 1) // prepare the lookup table\n      let dataPtr := data // input ptr\n      let endPtr := add(dataPtr, mload(data))\n      let resultPtr := add(result, 32) // result ptr, jump over length\n      for {} lt(dataPtr, endPtr) {} // run over the input, 3 bytes at a time\n      {\n        dataPtr := add(dataPtr, 3)\n        let input := mload(dataPtr) // read 3 bytes\n        // write 4 characters\n        mstore(resultPtr, shl(248, mload(add(tablePtr, and(shr(18, input), 0x3F)))))\n        resultPtr := add(resultPtr, 1)\n        mstore(resultPtr, shl(248, mload(add(tablePtr, and(shr(12, input), 0x3F)))))\n        resultPtr := add(resultPtr, 1)\n        mstore(resultPtr, shl(248, mload(add(tablePtr, and(shr( 6, input), 0x3F)))))\n        resultPtr := add(resultPtr, 1)\n        mstore(resultPtr, shl(248, mload(add(tablePtr, and(        input,  0x3F)))))\n        resultPtr := add(resultPtr, 1)\n      }\n      // padding with '='\n      switch mod(mload(data), 3)\n      case 1 { mstore(sub(resultPtr, 2), shl(240, 0x3d3d)) }\n      case 2 { mstore(sub(resultPtr, 1), shl(248, 0x3d)) }\n    }\n    return result;\n  }\n}\n",
  "sourcePath": "/Users/chris/workspace/ratalert/ratalert-contracts/contracts/KitchenShop.sol",
  "compiler": {
    "name": "solc",
    "version": "0.8.10+commit.fc410830.Emscripten.clang"
  },
  "schemaVersion": "3.4.4",
  "updatedAt": "2022-02-18T12:37:15.662Z",
  "networkType": "ethereum",
  "devdoc": {
    "kind": "dev",
    "methods": {
      "balanceOf(address,uint256)": {
        "details": "See {IERC1155-balanceOf}. Requirements: - `account` cannot be the zero address."
      },
      "balanceOfBatch(address[],uint256[])": {
        "details": "See {IERC1155-balanceOfBatch}. Requirements: - `accounts` and `ids` must have the same length."
      },
      "isApprovedForAll(address,address)": {
        "details": "See {IERC1155-isApprovedForAll}."
      },
      "mint(uint8,uint8)": {
        "params": {
          "amount": "Number of tokens to mint"
        }
      },
      "mintCost(uint8,uint256)": {
        "params": {
          "tokenId": "- The token ID to check"
        },
        "returns": {
          "_0": "The minting cost of the given ID"
        }
      },
      "owner()": {
        "details": "Returns the address of the current owner."
      },
      "paused()": {
        "details": "Returns true if the contract is paused, and false otherwise."
      },
      "renounceOwnership()": {
        "details": "Leaves the contract without owner. It will not be possible to call `onlyOwner` functions anymore. Can only be called by the current owner. NOTE: Renouncing ownership will leave the contract without an owner, thereby removing any functionality that is only available to the owner."
      },
      "safeBatchTransferFrom(address,address,uint256[],uint256[],bytes)": {
        "details": "See {IERC1155-safeBatchTransferFrom}."
      },
      "safeTransferFrom(address,address,uint256,uint256,bytes)": {
        "details": "See {IERC1155-safeTransferFrom}."
      },
      "setApprovalForAll(address,bool)": {
        "details": "See {IERC1155-setApprovalForAll}."
      },
      "supportsInterface(bytes4)": {
        "details": "See {IERC165-supportsInterface}."
      },
      "transferOwnership(address)": {
        "details": "Transfers ownership of the contract to a new account (`newOwner`). Can only be called by the current owner."
      },
      "uploadImage(uint256,(string,string))": {
        "params": {
          "imageIndex": "- The index at which to upload the image",
          "kitchen": "- The base64 encoded PNG for that kitchen"
        }
      }
    },
    "version": 1
  },
  "userdoc": {
    "kind": "user",
    "methods": {
      "mint(uint8,uint8)": {
        "notice": "Mints new ERC1155 token(s) of a kitchen"
      },
      "mintCost(uint8,uint256)": {
        "notice": "1 - 1000: 2000 $FFOOD 1001 - 2000: 3000 $FFOOD 2001 - 3000: 4000 $FFOOD 3001 - 4000: 5000 $FFOOD 4001 - 5000: 6000 $FFOOD"
      },
      "uploadImage(uint256,(string,string))": {
        "notice": "Used by admin to upload the kitchen images"
      }
    },
    "version": 1
  }
}