{
  "contractName": "KitchenPack",
  "abi": [
    {
      "anonymous": false,
      "inputs": [
        {
          "indexed": false,
          "internalType": "uint256",
          "name": "tokenId",
          "type": "uint256"
        },
        {
          "indexed": false,
          "internalType": "uint256",
          "name": "earned",
          "type": "uint256"
        },
        {
          "indexed": false,
          "internalType": "bool",
          "name": "unstaked",
          "type": "bool"
        }
      ],
      "name": "ChefClaimed",
      "type": "event"
    },
    {
      "anonymous": false,
      "inputs": [
        {
          "indexed": true,
          "internalType": "address",
          "name": "previousOwner",
          "type": "address"
        },
        {
          "indexed": true,
          "internalType": "address",
          "name": "newOwner",
          "type": "address"
        }
      ],
      "name": "OwnershipTransferred",
      "type": "event"
    },
    {
      "anonymous": false,
      "inputs": [
        {
          "indexed": false,
          "internalType": "address",
          "name": "account",
          "type": "address"
        }
      ],
      "name": "Paused",
      "type": "event"
    },
    {
      "anonymous": false,
      "inputs": [
        {
          "indexed": false,
          "internalType": "uint256",
          "name": "tokenId",
          "type": "uint256"
        },
        {
          "indexed": false,
          "internalType": "uint256",
          "name": "earned",
          "type": "uint256"
        },
        {
          "indexed": false,
          "internalType": "bool",
          "name": "unstaked",
          "type": "bool"
        }
      ],
      "name": "RatClaimed",
      "type": "event"
    },
    {
      "anonymous": false,
      "inputs": [
        {
          "indexed": false,
          "internalType": "uint256",
          "name": "tokenId",
          "type": "uint256"
        },
        {
          "indexed": false,
          "internalType": "address",
          "name": "owner",
          "type": "address"
        },
        {
          "indexed": false,
          "internalType": "uint256",
          "name": "timestamp",
          "type": "uint256"
        }
      ],
      "name": "TokenStaked",
      "type": "event"
    },
    {
      "anonymous": false,
      "inputs": [
        {
          "indexed": false,
          "internalType": "address",
          "name": "account",
          "type": "address"
        }
      ],
      "name": "Unpaused",
      "type": "event"
    },
    {
      "inputs": [],
      "name": "DAILY_FFOOD_RATE",
      "outputs": [
        {
          "internalType": "uint256",
          "name": "",
          "type": "uint256"
        }
      ],
      "stateMutability": "view",
      "type": "function",
      "constant": true
    },
    {
      "inputs": [],
      "name": "DAILY_INSANITY_RATE",
      "outputs": [
        {
          "internalType": "uint8",
          "name": "",
          "type": "uint8"
        }
      ],
      "stateMutability": "view",
      "type": "function",
      "constant": true
    },
    {
      "inputs": [],
      "name": "DAILY_SKILL_RATE",
      "outputs": [
        {
          "internalType": "uint8",
          "name": "",
          "type": "uint8"
        }
      ],
      "stateMutability": "view",
      "type": "function",
      "constant": true
    },
    {
      "inputs": [],
      "name": "FFOOD_CLAIM_TAX_PERCENTAGE",
      "outputs": [
        {
          "internalType": "uint256",
          "name": "",
          "type": "uint256"
        }
      ],
      "stateMutability": "view",
      "type": "function",
      "constant": true
    },
    {
      "inputs": [],
      "name": "FFOOD_MAX_SUPPLY",
      "outputs": [
        {
          "internalType": "uint256",
          "name": "",
          "type": "uint256"
        }
      ],
      "stateMutability": "view",
      "type": "function",
      "constant": true
    },
    {
      "inputs": [],
      "name": "MINIMUM_TO_EXIT",
      "outputs": [
        {
          "internalType": "uint256",
          "name": "",
          "type": "uint256"
        }
      ],
      "stateMutability": "view",
      "type": "function",
      "constant": true
    },
    {
      "inputs": [],
      "name": "fastFoodPerRat",
      "outputs": [
        {
          "internalType": "uint256",
          "name": "",
          "type": "uint256"
        }
      ],
      "stateMutability": "view",
      "type": "function",
      "constant": true
    },
    {
      "inputs": [
        {
          "internalType": "uint256",
          "name": "",
          "type": "uint256"
        }
      ],
      "name": "kitchen",
      "outputs": [
        {
          "internalType": "uint256",
          "name": "tokenId",
          "type": "uint256"
        },
        {
          "internalType": "address",
          "name": "owner",
          "type": "address"
        },
        {
          "internalType": "uint80",
          "name": "timestamp",
          "type": "uint80"
        }
      ],
      "stateMutability": "view",
      "type": "function",
      "constant": true
    },
    {
      "inputs": [],
      "name": "lastClaimTimestamp",
      "outputs": [
        {
          "internalType": "uint256",
          "name": "",
          "type": "uint256"
        }
      ],
      "stateMutability": "view",
      "type": "function",
      "constant": true
    },
    {
      "inputs": [],
      "name": "owner",
      "outputs": [
        {
          "internalType": "address",
          "name": "",
          "type": "address"
        }
      ],
      "stateMutability": "view",
      "type": "function",
      "constant": true
    },
    {
      "inputs": [
        {
          "internalType": "uint256",
          "name": "",
          "type": "uint256"
        }
      ],
      "name": "pack",
      "outputs": [
        {
          "internalType": "uint256",
          "name": "tokenId",
          "type": "uint256"
        },
        {
          "internalType": "address",
          "name": "owner",
          "type": "address"
        },
        {
          "internalType": "uint80",
          "name": "timestamp",
          "type": "uint80"
        }
      ],
      "stateMutability": "view",
      "type": "function",
      "constant": true
    },
    {
      "inputs": [],
      "name": "paused",
      "outputs": [
        {
          "internalType": "bool",
          "name": "",
          "type": "bool"
        }
      ],
      "stateMutability": "view",
      "type": "function",
      "constant": true
    },
    {
      "inputs": [],
      "name": "renounceOwnership",
      "outputs": [],
      "stateMutability": "nonpayable",
      "type": "function"
    },
    {
      "inputs": [],
      "name": "totalChefsStaked",
      "outputs": [
        {
          "internalType": "uint256",
          "name": "",
          "type": "uint256"
        }
      ],
      "stateMutability": "view",
      "type": "function",
      "constant": true
    },
    {
      "inputs": [],
      "name": "totalFastFoodEarned",
      "outputs": [
        {
          "internalType": "uint256",
          "name": "",
          "type": "uint256"
        }
      ],
      "stateMutability": "view",
      "type": "function",
      "constant": true
    },
    {
      "inputs": [],
      "name": "totalRatsStaked",
      "outputs": [
        {
          "internalType": "uint256",
          "name": "",
          "type": "uint256"
        }
      ],
      "stateMutability": "view",
      "type": "function",
      "constant": true
    },
    {
      "inputs": [
        {
          "internalType": "address",
          "name": "newOwner",
          "type": "address"
        }
      ],
      "name": "transferOwnership",
      "outputs": [],
      "stateMutability": "nonpayable",
      "type": "function"
    },
    {
      "inputs": [],
      "name": "unaccountedRewards",
      "outputs": [
        {
          "internalType": "uint256",
          "name": "",
          "type": "uint256"
        }
      ],
      "stateMutability": "view",
      "type": "function",
      "constant": true
    },
    {
      "inputs": [
        {
          "internalType": "address",
          "name": "_chefRat",
          "type": "address"
        },
        {
          "internalType": "address",
          "name": "_fastFood",
          "type": "address"
        }
      ],
      "name": "initialize",
      "outputs": [],
      "stateMutability": "nonpayable",
      "type": "function"
    },
    {
      "inputs": [
        {
          "internalType": "address",
          "name": "account",
          "type": "address"
        },
        {
          "internalType": "uint16[]",
          "name": "tokenIds",
          "type": "uint16[]"
        }
      ],
      "name": "stakeMany",
      "outputs": [],
      "stateMutability": "nonpayable",
      "type": "function"
    },
    {
      "inputs": [
        {
          "internalType": "uint16[]",
          "name": "tokenIds",
          "type": "uint16[]"
        },
        {
          "internalType": "bool",
          "name": "unstake",
          "type": "bool"
        }
      ],
      "name": "claimMany",
      "outputs": [],
      "stateMutability": "nonpayable",
      "type": "function"
    },
    {
      "inputs": [
        {
          "internalType": "uint256",
          "name": "tokenId",
          "type": "uint256"
        }
      ],
      "name": "isChef",
      "outputs": [
        {
          "internalType": "bool",
          "name": "chef",
          "type": "bool"
        }
      ],
      "stateMutability": "pure",
      "type": "function",
      "constant": true
    },
    {
      "inputs": [
        {
          "internalType": "address",
          "name": "",
          "type": "address"
        },
        {
          "internalType": "address",
          "name": "from",
          "type": "address"
        },
        {
          "internalType": "uint256",
          "name": "",
          "type": "uint256"
        },
        {
          "internalType": "bytes",
          "name": "",
          "type": "bytes"
        }
      ],
      "name": "onERC721Received",
      "outputs": [
        {
          "internalType": "bytes4",
          "name": "",
          "type": "bytes4"
        }
      ],
      "stateMutability": "pure",
      "type": "function",
      "constant": true
    }
  ],
  "bytecode": "0x608060405234801561001057600080fd5b50612aa7806100206000396000f3fe608060405234801561001057600080fd5b506004361061014d5760003560e01c80638da5cb5b116100c3578063d6732f9d1161007c578063d6732f9d14610372578063dbdc1f6b14610390578063e1a7c0a1146103ac578063ef9f800f146103ca578063f2666746146103fa578063f2fde38b146104185761014d565b80638da5cb5b146102c0578063a104b8f2146102de578063a7a10290146102fc578063b6640c6014610318578063c0c472c014610336578063c508d1c3146103545761014d565b8063499f801011610115578063499f80101461020c5780635c975abb1461022a578063607af397146102485780636ea4255514610266578063715018a61461029857806377488460146102a25761014d565b8063150b7a0214610152578063221453cf14610182578063333e2de8146101a057806337a386b9146101d2578063485cc955146101f0575b600080fd5b61016c60048036038101906101679190611de9565b610434565b6040516101799190611eac565b60405180910390f35b61018a6104b7565b6040516101979190611ed6565b60405180910390f35b6101ba60048036038101906101b59190611ef1565b6104c7565b6040516101c993929190611f52565b60405180910390f35b6101da610527565b6040516101e79190611ed6565b60405180910390f35b61020a60048036038101906102059190611f89565b61052d565b005b6102146106bd565b6040516102219190611ed6565b60405180910390f35b6102326106c3565b60405161023f9190611fe4565b60405180910390f35b6102506106da565b60405161025d9190611ed6565b60405180910390f35b610280600480360381019061027b9190611ef1565b6106e0565b60405161028f93929190611f52565b60405180910390f35b6102a0610740565b005b6102aa6107c8565b6040516102b79190611ed6565b60405180910390f35b6102c86107ce565b6040516102d59190611fff565b60405180910390f35b6102e66107f8565b6040516102f39190611ed6565b60405180910390f35b6103166004803603810190610311919061209c565b610805565b005b6103206109df565b60405161032d9190612118565b60405180910390f35b61033e6109e4565b60405161034b9190611ed6565b60405180910390f35b61035c6109ea565b6040516103699190612118565b60405180910390f35b61037a6109ef565b6040516103879190611ed6565b60405180910390f35b6103aa60048036038101906103a59190612133565b6109f4565b005b6103b4610e2a565b6040516103c19190611ed6565b60405180910390f35b6103e460048036038101906103df9190611ef1565b610e30565b6040516103f19190611fe4565b60405180910390f35b610402610e3b565b60405161040f9190611ed6565b60405180910390f35b610432600480360381019061042d9190612193565b610e41565b005b60008073ffffffffffffffffffffffffffffffffffffffff168573ffffffffffffffffffffffffffffffffffffffff16146104a4576040517f08c379a000000000000000000000000000000000000000000000000000000000815260040161049b90612243565b60405180910390fd5b63150b7a0260e01b905095945050505050565b6b033b2e3c9fd0803ce800000081565b60996020528060005260406000206000915090508060000154908060010160009054906101000a900473ffffffffffffffffffffffffffffffffffffffff16908060010160149054906101000a900469ffffffffffffffffffff16905083565b61708081565b600060019054906101000a900460ff166105555760008054906101000a900460ff161561055e565b61055d610f39565b5b61059d576040517f08c379a0000000000000000000000000000000000000000000000000000000008152600401610594906122d5565b60405180910390fd5b60008060019054906101000a900460ff1615905080156105ed576001600060016101000a81548160ff02191690831515021790555060016000806101000a81548160ff0219169083151502179055505b6105f5610f4a565b6105fd610fab565b82609760006101000a81548173ffffffffffffffffffffffffffffffffffffffff021916908373ffffffffffffffffffffffffffffffffffffffff16021790555081609860006101000a81548173ffffffffffffffffffffffffffffffffffffffff021916908373ffffffffffffffffffffffffffffffffffffffff1602179055506000609e819055506000609f81905550600060a08190555080156106b85760008060016101000a81548160ff0219169083151502179055505b505050565b609c5481565b6000606560009054906101000a900460ff16905090565b60a05481565b609a6020528060005260406000206000915090508060000154908060010160009054906101000a900473ffffffffffffffffffffffffffffffffffffffff16908060010160149054906101000a900469ffffffffffffffffffff16905083565b61074861100c565b73ffffffffffffffffffffffffffffffffffffffff166107666107ce565b73ffffffffffffffffffffffffffffffffffffffff16146107bc576040517f08c379a00000000000000000000000000000000000000000000000000000000081526004016107b390612341565b60405180910390fd5b6107c66000611014565b565b609d5481565b6000603360009054906101000a900473ffffffffffffffffffffffffffffffffffffffff16905090565b683635c9adc5dea0000081565b61080d6106c3565b1561084d576040517f08c379a0000000000000000000000000000000000000000000000000000000008152600401610844906123ad565b60405180910390fd5b6000805b8484905081101561093257610890858583818110610872576108716123cd565b5b90506020020160208101906108879190612436565b61ffff16610e30565b156108dc576108ca8585838181106108ab576108aa6123cd565b5b90506020020160208101906108c09190612436565b61ffff16846110da565b826108d59190612492565b915061091f565b6109118585838181106108f2576108f16123cd565b5b90506020020160208101906109079190612436565b61ffff1684611549565b8261091c9190612492565b91505b808061092a906124e8565b915050610851565b50600081141561094257506109da565b609860009054906101000a900473ffffffffffffffffffffffffffffffffffffffff1673ffffffffffffffffffffffffffffffffffffffff166340c10f1961098861100c565b836040518363ffffffff1660e01b81526004016109a6929190612531565b600060405180830381600087803b1580156109c057600080fd5b505af11580156109d4573d6000803e3d6000fd5b50505050505b505050565b600481565b609e5481565b600281565b601481565b6109fc61100c565b73ffffffffffffffffffffffffffffffffffffffff168373ffffffffffffffffffffffffffffffffffffffff161480610a895750609760009054906101000a900473ffffffffffffffffffffffffffffffffffffffff1673ffffffffffffffffffffffffffffffffffffffff16610a7161100c565b73ffffffffffffffffffffffffffffffffffffffff16145b610ac8576040517f08c379a0000000000000000000000000000000000000000000000000000000008152600401610abf906125a6565b60405180910390fd5b60005b82829050811015610e2457609760009054906101000a900473ffffffffffffffffffffffffffffffffffffffff1673ffffffffffffffffffffffffffffffffffffffff16610b1761100c565b73ffffffffffffffffffffffffffffffffffffffff1614610d2d57610b3a61100c565b73ffffffffffffffffffffffffffffffffffffffff16609760009054906101000a900473ffffffffffffffffffffffffffffffffffffffff1673ffffffffffffffffffffffffffffffffffffffff16636352211e858585818110610ba157610ba06123cd565b5b9050602002016020810190610bb69190612436565b6040518263ffffffff1660e01b8152600401610bd29190612601565b602060405180830381865afa158015610bef573d6000803e3d6000fd5b505050506040513d601f19601f82011682018060405250810190610c139190612631565b73ffffffffffffffffffffffffffffffffffffffff1614610c69576040517f08c379a0000000000000000000000000000000000000000000000000000000008152600401610c60906126aa565b60405180910390fd5b609760009054906101000a900473ffffffffffffffffffffffffffffffffffffffff1673ffffffffffffffffffffffffffffffffffffffff166323b872dd610caf61100c565b30868686818110610cc357610cc26123cd565b5b9050602002016020810190610cd89190612436565b6040518463ffffffff1660e01b8152600401610cf6939291906126ca565b600060405180830381600087803b158015610d1057600080fd5b505af1158015610d24573d6000803e3d6000fd5b50505050610d67565b6000838383818110610d4257610d416123cd565b5b9050602002016020810190610d579190612436565b61ffff161415610d6657610e11565b5b610d9b838383818110610d7d57610d7c6123cd565b5b9050602002016020810190610d929190612436565b61ffff16610e30565b15610dda57610dd584848484818110610db757610db66123cd565b5b9050602002016020810190610dcc9190612436565b61ffff16611606565b610e10565b610e0f84848484818110610df157610df06123cd565b5b9050602002016020810190610e069190612436565b61ffff16611780565b5b5b8080610e1c906124e8565b915050610acb565b50505050565b609f5481565b600060019050919050565b609b5481565b610e4961100c565b73ffffffffffffffffffffffffffffffffffffffff16610e676107ce565b73ffffffffffffffffffffffffffffffffffffffff1614610ebd576040517f08c379a0000000000000000000000000000000000000000000000000000000008152600401610eb490612341565b60405180910390fd5b600073ffffffffffffffffffffffffffffffffffffffff168173ffffffffffffffffffffffffffffffffffffffff161415610f2d576040517f08c379a0000000000000000000000000000000000000000000000000000000008152600401610f2490612773565b60405180910390fd5b610f3681611014565b50565b6000610f44306118fa565b15905090565b600060019054906101000a900460ff16610f99576040517f08c379a0000000000000000000000000000000000000000000000000000000008152600401610f9090612805565b60405180910390fd5b610fa161190d565b610fa961195e565b565b600060019054906101000a900460ff16610ffa576040517f08c379a0000000000000000000000000000000000000000000000000000000008152600401610ff190612805565b60405180910390fd5b61100261190d565b61100a6119bf565b565b600033905090565b6000603360009054906101000a900473ffffffffffffffffffffffffffffffffffffffff16905081603360006101000a81548173ffffffffffffffffffffffffffffffffffffffff021916908373ffffffffffffffffffffffffffffffffffffffff1602179055508173ffffffffffffffffffffffffffffffffffffffff168173ffffffffffffffffffffffffffffffffffffffff167f8be0079c531659141344cd1fd0a4f28419497f9722a3daafe3b4186f6b6457e060405160405180910390a35050565b60008060996000858152602001908152602001600020604051806060016040529081600082015481526020016001820160009054906101000a900473ffffffffffffffffffffffffffffffffffffffff1673ffffffffffffffffffffffffffffffffffffffff1673ffffffffffffffffffffffffffffffffffffffff1681526020016001820160149054906101000a900469ffffffffffffffffffff1669ffffffffffffffffffff1669ffffffffffffffffffff1681525050905061119d61100c565b73ffffffffffffffffffffffffffffffffffffffff16816020015173ffffffffffffffffffffffffffffffffffffffff161461120e576040517f08c379a0000000000000000000000000000000000000000000000000000000008152600401611205906126aa565b60405180910390fd5b62015180683635c9adc5dea00000826040015169ffffffffffffffffffff16426112389190612825565b6112429190612859565b61124c91906128e2565b91506b033b2e3c9fd0803ce800000082609d546112699190612492565b111561128c57609d546b033b2e3c9fd0803ce80000006112899190612825565b91505b60008211156112fe574260a08190555081609d60008282546112ae9190612492565b925050819055506112d660646014846112c79190612859565b6112d191906128e2565b611a2b565b6064601460646112e69190612825565b836112f19190612859565b6112fb91906128e2565b91505b61130784611a93565b821561142457609760009054906101000a900473ffffffffffffffffffffffffffffffffffffffff1673ffffffffffffffffffffffffffffffffffffffff1663b88d4fde3061135461100c565b876040518463ffffffff1660e01b81526004016113739392919061294a565b600060405180830381600087803b15801561138d57600080fd5b505af11580156113a1573d6000803e3d6000fd5b50505050609960008581526020019081526020016000206000808201600090556001820160006101000a81549073ffffffffffffffffffffffffffffffffffffffff02191690556001820160146101000a81549069ffffffffffffffffffff02191690555050609b600081548092919061141a90612994565b9190505550611507565b60405180606001604052808561ffff16815260200161144161100c565b73ffffffffffffffffffffffffffffffffffffffff1681526020014269ffffffffffffffffffff16815250609960008681526020019081526020016000206000820151816000015560208201518160010160006101000a81548173ffffffffffffffffffffffffffffffffffffffff021916908373ffffffffffffffffffffffffffffffffffffffff16021790555060408201518160010160146101000a81548169ffffffffffffffffffff021916908369ffffffffffffffffffff1602179055509050505b7fce9b0abd3810aeab696eddab45a4cbebbaa63fd80b9f31caaf538bd076fb279384838560405161153a939291906129be565b60405180910390a15092915050565b6000609a60008481526020019081526020016000206000808201600090556001820160006101000a81549073ffffffffffffffffffffffffffffffffffffffff02191690556001820160146101000a81549069ffffffffffffffffffff02191690555050609c60008154809291906115c090612994565b91905055507f939f40cd88d28c1155cabb182936e96cbe28fa632dc98c0e7a07a772f03981ca8382846040516115f8939291906129be565b60405180910390a192915050565b61160e6106c3565b1561164e576040517f08c379a0000000000000000000000000000000000000000000000000000000008152600401611645906123ad565b60405180910390fd5b60405180606001604052808261ffff1681526020018373ffffffffffffffffffffffffffffffffffffffff1681526020014269ffffffffffffffffffff16815250609960008381526020019081526020016000206000820151816000015560208201518160010160006101000a81548173ffffffffffffffffffffffffffffffffffffffff021916908373ffffffffffffffffffffffffffffffffffffffff16021790555060408201518160010160146101000a81548169ffffffffffffffffffff021916908369ffffffffffffffffffff160217905550905050609b600081548092919061173c906124e8565b91905055507f8af1bb49fb16c7835975aa59449ba4328dd54737dfb2ae9fa6c5eca71fda51f9818342604051611774939291906129f5565b60405180910390a15050565b6117886106c3565b156117c8576040517f08c379a00000000000000000000000000000000000000000000000000000000081526004016117bf906123ad565b60405180910390fd5b60405180606001604052808261ffff1681526020018373ffffffffffffffffffffffffffffffffffffffff1681526020014269ffffffffffffffffffff16815250609a60008381526020019081526020016000206000820151816000015560208201518160010160006101000a81548173ffffffffffffffffffffffffffffffffffffffff021916908373ffffffffffffffffffffffffffffffffffffffff16021790555060408201518160010160146101000a81548169ffffffffffffffffffff021916908369ffffffffffffffffffff160217905550905050609c60008154809291906118b6906124e8565b91905055507f8af1bb49fb16c7835975aa59449ba4328dd54737dfb2ae9fa6c5eca71fda51f98183426040516118ee939291906129f5565b60405180910390a15050565b600080823b905060008111915050919050565b600060019054906101000a900460ff1661195c576040517f08c379a000000000000000000000000000000000000000000000000000000000815260040161195390612805565b60405180910390fd5b565b600060019054906101000a900460ff166119ad576040517f08c379a00000000000000000000000000000000000000000000000000000000081526004016119a490612805565b60405180910390fd5b6119bd6119b861100c565b611014565b565b600060019054906101000a900460ff16611a0e576040517f08c379a0000000000000000000000000000000000000000000000000000000008152600401611a0590612805565b60405180910390fd5b6000606560006101000a81548160ff021916908315150217905550565b6000609c541415611a545780609e6000828254611a489190612492565b92505081905550611a90565b609c54609e5482611a659190612492565b611a6f91906128e2565b609f6000828254611a809190612492565b925050819055506000609e819055505b50565b600060996000838152602001908152602001600020604051806060016040529081600082015481526020016001820160009054906101000a900473ffffffffffffffffffffffffffffffffffffffff1673ffffffffffffffffffffffffffffffffffffffff1673ffffffffffffffffffffffffffffffffffffffff1681526020016001820160149054906101000a900469ffffffffffffffffffff1669ffffffffffffffffffff1669ffffffffffffffffffff168152505090506000816040015169ffffffffffffffffffff1642611b6b9190612825565b9050609760009054906101000a900473ffffffffffffffffffffffffffffffffffffffff1673ffffffffffffffffffffffffffffffffffffffff166342a05def84611bb7846004611ca4565b6040518363ffffffff1660e01b8152600401611bd4929190612a48565b600060405180830381600087803b158015611bee57600080fd5b505af1158015611c02573d6000803e3d6000fd5b50505050609760009054906101000a900473ffffffffffffffffffffffffffffffffffffffff1673ffffffffffffffffffffffffffffffffffffffff166310dd5d4484611c50846002611ca4565b6040518363ffffffff1660e01b8152600401611c6d929190612a48565b600060405180830381600087803b158015611c8757600080fd5b505af1158015611c9b573d6000803e3d6000fd5b50505050505050565b600080620151808360ff1685611cba9190612859565b611cc491906128e2565b9050600060648211611cd65781611cd9565b60645b9050809250505092915050565b600080fd5b600080fd5b600073ffffffffffffffffffffffffffffffffffffffff82169050919050565b6000611d1b82611cf0565b9050919050565b611d2b81611d10565b8114611d3657600080fd5b50565b600081359050611d4881611d22565b92915050565b6000819050919050565b611d6181611d4e565b8114611d6c57600080fd5b50565b600081359050611d7e81611d58565b92915050565b600080fd5b600080fd5b600080fd5b60008083601f840112611da957611da8611d84565b5b8235905067ffffffffffffffff811115611dc657611dc5611d89565b5b602083019150836001820283011115611de257611de1611d8e565b5b9250929050565b600080600080600060808688031215611e0557611e04611ce6565b5b6000611e1388828901611d39565b9550506020611e2488828901611d39565b9450506040611e3588828901611d6f565b935050606086013567ffffffffffffffff811115611e5657611e55611ceb565b5b611e6288828901611d93565b92509250509295509295909350565b60007fffffffff0000000000000000000000000000000000000000000000000000000082169050919050565b611ea681611e71565b82525050565b6000602082019050611ec16000830184611e9d565b92915050565b611ed081611d4e565b82525050565b6000602082019050611eeb6000830184611ec7565b92915050565b600060208284031215611f0757611f06611ce6565b5b6000611f1584828501611d6f565b91505092915050565b611f2781611d10565b82525050565b600069ffffffffffffffffffff82169050919050565b611f4c81611f2d565b82525050565b6000606082019050611f676000830186611ec7565b611f746020830185611f1e565b611f816040830184611f43565b949350505050565b60008060408385031215611fa057611f9f611ce6565b5b6000611fae85828601611d39565b9250506020611fbf85828601611d39565b9150509250929050565b60008115159050919050565b611fde81611fc9565b82525050565b6000602082019050611ff96000830184611fd5565b92915050565b60006020820190506120146000830184611f1e565b92915050565b60008083601f8401126120305761202f611d84565b5b8235905067ffffffffffffffff81111561204d5761204c611d89565b5b60208301915083602082028301111561206957612068611d8e565b5b9250929050565b61207981611fc9565b811461208457600080fd5b50565b60008135905061209681612070565b92915050565b6000806000604084860312156120b5576120b4611ce6565b5b600084013567ffffffffffffffff8111156120d3576120d2611ceb565b5b6120df8682870161201a565b935093505060206120f286828701612087565b9150509250925092565b600060ff82169050919050565b612112816120fc565b82525050565b600060208201905061212d6000830184612109565b92915050565b60008060006040848603121561214c5761214b611ce6565b5b600061215a86828701611d39565b935050602084013567ffffffffffffffff81111561217b5761217a611ceb565b5b6121878682870161201a565b92509250509250925092565b6000602082840312156121a9576121a8611ce6565b5b60006121b784828501611d39565b91505092915050565b600082825260208201905092915050565b7f43616e6e6f742073656e6420746f6b656e7320746f204b69746368656e20646960008201527f726563746c790000000000000000000000000000000000000000000000000000602082015250565b600061222d6026836121c0565b9150612238826121d1565b604082019050919050565b6000602082019050818103600083015261225c81612220565b9050919050565b7f496e697469616c697a61626c653a20636f6e747261637420697320616c72656160008201527f647920696e697469616c697a6564000000000000000000000000000000000000602082015250565b60006122bf602e836121c0565b91506122ca82612263565b604082019050919050565b600060208201905081810360008301526122ee816122b2565b9050919050565b7f4f776e61626c653a2063616c6c6572206973206e6f7420746865206f776e6572600082015250565b600061232b6020836121c0565b9150612336826122f5565b602082019050919050565b6000602082019050818103600083015261235a8161231e565b9050919050565b7f5061757361626c653a2070617573656400000000000000000000000000000000600082015250565b60006123976010836121c0565b91506123a282612361565b602082019050919050565b600060208201905081810360008301526123c68161238a565b9050919050565b7f4e487b7100000000000000000000000000000000000000000000000000000000600052603260045260246000fd5b600061ffff82169050919050565b612413816123fc565b811461241e57600080fd5b50565b6000813590506124308161240a565b92915050565b60006020828403121561244c5761244b611ce6565b5b600061245a84828501612421565b91505092915050565b7f4e487b7100000000000000000000000000000000000000000000000000000000600052601160045260246000fd5b600061249d82611d4e565b91506124a883611d4e565b9250827fffffffffffffffffffffffffffffffffffffffffffffffffffffffffffffffff038211156124dd576124dc612463565b5b828201905092915050565b60006124f382611d4e565b91507fffffffffffffffffffffffffffffffffffffffffffffffffffffffffffffffff82141561252657612525612463565b5b600182019050919050565b60006040820190506125466000830185611f1e565b6125536020830184611ec7565b9392505050565b7f446f206e6f74206c6f736520796f757220746f6b656e73000000000000000000600082015250565b60006125906017836121c0565b915061259b8261255a565b602082019050919050565b600060208201905081810360008301526125bf81612583565b9050919050565b6000819050919050565b60006125eb6125e66125e1846123fc565b6125c6565b611d4e565b9050919050565b6125fb816125d0565b82525050565b600060208201905061261660008301846125f2565b92915050565b60008151905061262b81611d22565b92915050565b60006020828403121561264757612646611ce6565b5b60006126558482850161261c565b91505092915050565b7f4e6f7420796f757220746f6b656e000000000000000000000000000000000000600082015250565b6000612694600e836121c0565b915061269f8261265e565b602082019050919050565b600060208201905081810360008301526126c381612687565b9050919050565b60006060820190506126df6000830186611f1e565b6126ec6020830185611f1e565b6126f960408301846125f2565b949350505050565b7f4f776e61626c653a206e6577206f776e657220697320746865207a65726f206160008201527f6464726573730000000000000000000000000000000000000000000000000000602082015250565b600061275d6026836121c0565b915061276882612701565b604082019050919050565b6000602082019050818103600083015261278c81612750565b9050919050565b7f496e697469616c697a61626c653a20636f6e7472616374206973206e6f74206960008201527f6e697469616c697a696e67000000000000000000000000000000000000000000602082015250565b60006127ef602b836121c0565b91506127fa82612793565b604082019050919050565b6000602082019050818103600083015261281e816127e2565b9050919050565b600061283082611d4e565b915061283b83611d4e565b92508282101561284e5761284d612463565b5b828203905092915050565b600061286482611d4e565b915061286f83611d4e565b9250817fffffffffffffffffffffffffffffffffffffffffffffffffffffffffffffffff04831182151516156128a8576128a7612463565b5b828202905092915050565b7f4e487b7100000000000000000000000000000000000000000000000000000000600052601260045260246000fd5b60006128ed82611d4e565b91506128f883611d4e565b925082612908576129076128b3565b5b828204905092915050565b600082825260208201905092915050565b50565b6000612934600083612913565b915061293f82612924565b600082019050919050565b600060808201905061295f6000830186611f1e565b61296c6020830185611f1e565b6129796040830184611ec7565b818103606083015261298a81612927565b9050949350505050565b600061299f82611d4e565b915060008214156129b3576129b2612463565b5b600182039050919050565b60006060820190506129d36000830186611ec7565b6129e06020830185611ec7565b6129ed6040830184611fd5565b949350505050565b6000606082019050612a0a6000830186611ec7565b612a176020830185611f1e565b612a246040830184611ec7565b949350505050565b60008160000b9050919050565b612a4281612a2c565b82525050565b6000604082019050612a5d6000830185611ec7565b612a6a6020830184612a39565b939250505056fea26469706673582212206627f12771427604debcdaecedea1ed21dc37121b445848cf666af3f4881ce0764736f6c634300080a0033",
  "immutableReferences": {},
  "source": "// SPDX-License-Identifier: MIT\n\npragma solidity ^0.8.0;\n\nimport \"@openzeppelin/contracts-upgradeable/proxy/utils/Initializable.sol\";\nimport \"@openzeppelin/contracts-upgradeable/access/OwnableUpgradeable.sol\";\nimport \"@openzeppelin/contracts-upgradeable/security/PausableUpgradeable.sol\";\nimport \"@openzeppelin/contracts-upgradeable/token/ERC721/IERC721ReceiverUpgradeable.sol\";\nimport \"./IKitchenPack.sol\";\nimport \"./IChefRat.sol\";\nimport \"./ChefRat.sol\";\nimport \"./FastFood.sol\";\n\ncontract KitchenPack is IKitchenPack, Initializable, OwnableUpgradeable, PausableUpgradeable, IERC721ReceiverUpgradeable {\n  struct Stake { // Store for a stake's token, owner, and earning values\n    uint256 tokenId;\n    address owner;\n    uint80 timestamp;\n  }\n\n  event TokenStaked(uint256 tokenId, address owner, uint256 timestamp);\n  event ChefClaimed(uint256 tokenId, uint256 earned, bool unstaked);\n  event RatClaimed(uint256 tokenId, uint256 earned, bool unstaked);\n\n  ChefRat chefRat; // Reference to the ChefRat NFT contract\n  FastFood fastFood; // Reference to the $FFOOD contract\n\n  mapping(uint256 => Stake) public kitchen; // Maps tokenId to stake\n  mapping(uint256 => Stake) public pack; // Maps tokenId to stake\n\n  uint256 public constant FFOOD_CLAIM_TAX_PERCENTAGE = 20; // Rats steal x% of all $FFOOD claimed\n  uint256 public constant MINIMUM_TO_EXIT = 8 hours; // Cannot unstake before EOB\n  uint256 public constant FFOOD_MAX_SUPPLY = 1000000000 ether; // There will only ever be x $FFOOD earned through staking\n  uint256 public constant DAILY_FFOOD_RATE = 1000 ether; // Chefs earn x $FFOOD per day\n  uint8 public constant DAILY_INSANITY_RATE = 4;\n  uint8 public constant DAILY_SKILL_RATE = 2;\n\n  uint256 public totalChefsStaked; // Number of Chefs staked in the Kitchen\n  uint256 public totalRatsStaked; // Number of Rats staked in the Pack\n  uint256 public totalFastFoodEarned; // Amount of $FFOOD earned so far\n  uint256 public unaccountedRewards; // Any rewards distributed when no Rats are staked\n  uint256 public fastFoodPerRat; // Amount of $FFOOD due for each alpha point staked\n  uint256 public lastClaimTimestamp; // The last time $FFOOD was claimed\n\n  function initialize(address _chefRat, address _fastFood) external initializer {\n    __Ownable_init();\n    __Pausable_init();\n\n    chefRat = ChefRat(_chefRat);\n    fastFood = FastFood(_fastFood);\n    unaccountedRewards = 0;\n    fastFoodPerRat = 0;\n    lastClaimTimestamp = 0;\n  }\n\n  /**\n   * Adds Chefs to Kitchen & Rats to Pack\n   * @param account - The address of the staker\n   * @param tokenIds - The IDs of the Chefs & Rats to stake\n   */\n  function stakeMany(address account, uint16[] calldata tokenIds) external {\n    require(account == _msgSender() || _msgSender() == address(chefRat), \"Do not lose your tokens\");\n    for (uint i = 0; i < tokenIds.length; i++) {\n      if (_msgSender() != address(chefRat)) { // Not necessary if it's a mint & stake\n        require(chefRat.ownerOf(tokenIds[i]) == _msgSender(), \"Not your token\");\n        chefRat.transferFrom(_msgSender(), address(this), tokenIds[i]);\n      } else if (tokenIds[i] == 0) {\n        continue; // There may be gaps in the array for stolen tokens\n      }\n\n      if (isChef(tokenIds[i])) {\n        _stakeChefToKitchen(account, tokenIds[i]);\n      } else {\n        _stakeRatToPack(account, tokenIds[i]);\n      }\n    }\n  }\n\n  /**\n   * Adds a single Chef to the Kitchen\n   * @param account - The address of the staker\n   * @param tokenId - The ID of the Chef to add to the Kitchen\n   */\n  function _stakeChefToKitchen(address account, uint256 tokenId) internal whenNotPaused {\n    kitchen[tokenId] = Stake({\n      tokenId: uint16(tokenId),\n      owner: account,\n      timestamp: uint80(block.timestamp)\n    });\n    totalChefsStaked ++;\n    emit TokenStaked(tokenId, account, block.timestamp);\n  }\n\n  /**\n   * Adds a single Rat to the Pack\n   * @param account - The address of the staker\n   * @param tokenId - The ID of the Rat to add to the Pack\n   */\n  function _stakeRatToPack(address account, uint256 tokenId) internal whenNotPaused {\n    pack[tokenId] = Stake({\n      tokenId: uint16(tokenId),\n      owner: account,\n      timestamp: uint80(block.timestamp)\n    });\n    totalRatsStaked ++;\n    emit TokenStaked(tokenId, account, block.timestamp);\n  }\n\n  /**\n   * Claim $FFOOD earnings and optionally unstake tokens from the Kitchen / Pack\n   * @param tokenIds - The IDs of the tokens to claim earnings from\n   * @param unstake - Whether or not to unstake ALL of the tokens listed in tokenIds\n   */\n  function claimMany(uint16[] calldata tokenIds, bool unstake) external whenNotPaused {\n    uint256 owed = 0;\n    for (uint i = 0; i < tokenIds.length; i++) {\n      if (isChef(tokenIds[i]))\n        owed += _claimChefFromKitchen(tokenIds[i], unstake);\n      else\n        owed += _claimRatFromPack(tokenIds[i], unstake);\n    }\n    if (owed == 0) return;\n    fastFood.mint(_msgSender(), owed);\n  }\n\n  /**\n   * Claim $FFOOD earnings for a single Chef and optionally unstake him\n   * If not unstaking, pay a 20% tax to the staked Rats\n   * If unstaking, there's a 50% chance all $FFOOD is stolen\n   * @param tokenId - The ID of the Chef to claim earnings from\n   * @param unstake - Whether or not to unstake the Chef\n   * @return owed - The amount of $FFOOD earned\n   */\n  function _claimChefFromKitchen(uint256 tokenId, bool unstake) internal returns (uint256 owed) {\n    Stake memory stake = kitchen[tokenId];\n    require(stake.owner == _msgSender(), \"Not your token\");\n//    require(!(unstake && block.timestamp - stake.timestamp < MINIMUM_TO_EXIT), \"Cannot leave before EOB\");\n\n    owed = (block.timestamp - stake.timestamp) * DAILY_FFOOD_RATE / 1 days;\n    if (totalFastFoodEarned + owed > FFOOD_MAX_SUPPLY) {\n      owed = FFOOD_MAX_SUPPLY - totalFastFoodEarned;\n    }\n\n    if (owed > 0) {\n      lastClaimTimestamp = block.timestamp;\n      totalFastFoodEarned += owed;\n      _carelesslyLeaveToRats(owed * FFOOD_CLAIM_TAX_PERCENTAGE / 100); // Percentage stolen by staked Rats\n      owed = owed * (100 - FFOOD_CLAIM_TAX_PERCENTAGE) / 100; // Remainder goes to Chef owner\n    }\n\n    updateCharacter(tokenId);\n\n    if (unstake) {\n      chefRat.safeTransferFrom(address(this), _msgSender(), tokenId, \"\"); // Send Chef back to owner\n      delete kitchen[tokenId];\n      totalChefsStaked --;\n    } else {\n      kitchen[tokenId] = Stake({ // Reset stake\n        tokenId: uint16(tokenId),\n        owner: _msgSender(),\n        timestamp: uint80(block.timestamp)\n      });\n    }\n    emit ChefClaimed(tokenId, owed, unstake);\n  }\n\n  function updateCharacter(uint256 tokenId) internal {\n    Stake memory stake = kitchen[tokenId];\n    uint256 diff = block.timestamp - stake.timestamp;\n    chefRat.updateInsanity(tokenId, getCharacterIncrement(diff, DAILY_INSANITY_RATE));\n    chefRat.updateSkill(tokenId, getCharacterIncrement(diff, DAILY_SKILL_RATE));\n  }\n\n  function getCharacterIncrement(uint256 diff, uint8 factor) internal pure returns(int8) {\n    uint256 owed = diff * factor / 1 days;\n    uint8 increment = owed > 100 ? 100 : uint8(owed);\n    return int8(increment);\n  }\n\n  /**\n   * Claim $FFOOD earnings for a single Rat and optionally unstake it\n   * Rats steal $FFOOD proportional to their skill level\n   * @param tokenId - The ID of the Rat to claim earnings from\n   * @param unstake - Whether or not to unstake the Rat\n   * @return owed - The amount of $FFOOD earned\n   */\n  function _claimRatFromPack(uint256 tokenId, bool unstake) internal returns (uint256 owed) {\n    delete pack[tokenId];\n    totalRatsStaked --;\n    // TODO Implement $FFOOD distribution\n    emit RatClaimed(tokenId, owed, unstake);\n  }\n\n  /**\n   * Checks if the token is a Chef\n   * @param tokenId - The ID of the token to check\n   * @return chef - Whether or not the token is a Chef\n   */\n  function isChef(uint256 tokenId) public pure returns (bool chef) {\n    tokenId;\n    chef = true; // TODO Implement with (chef, , , , , , , , , ) = chefRat.tokenTraits(tokenId);\n  }\n\n  /**\n   * Add $FFOOD to claimable pot for the Pack\n   * @param amount - $FFOOD to add to the pot\n   */\n  function _carelesslyLeaveToRats(uint256 amount) internal {\n    if (totalRatsStaked == 0) {\n      unaccountedRewards += amount; // Keep track for Rats staked in the future\n      return;\n    }\n    // Makes sure to include any unaccounted $FFOOD\n    fastFoodPerRat += (amount + unaccountedRewards) / totalRatsStaked;\n    unaccountedRewards = 0;\n  }\n\n  function onERC721Received(address, address from, uint256, bytes calldata) external pure override returns (bytes4) {\n    require(from == address(0x0), \"Cannot send tokens to Kitchen directly\");\n    return IERC721ReceiverUpgradeable.onERC721Received.selector;\n  }\n\n  /**\n   * Generates a pseudorandom number\n   * @param seed - A value to ensure different outcomes for different sources in the same block\n   * @return A pseudorandom value\n   */\n  function random(uint256 seed) internal view returns (uint256) {\n    return uint256(keccak256(abi.encodePacked(\n      tx.origin,\n      blockhash(block.number - 1),\n      block.timestamp,\n      seed\n    )));\n  }\n}\n",
  "sourcePath": "/Users/chris/workspace/chainmatters/ratalert/contracts/KitchenPack.sol",
  "compiler": {
    "name": "solc",
    "version": "0.8.10+commit.fc410830.Emscripten.clang"
  },
  "schemaVersion": "3.4.4",
  "updatedAt": "2022-01-04T17:31:28.206Z",
  "networkType": "ethereum",
  "devdoc": {
    "kind": "dev",
    "methods": {
      "claimMany(uint16[],bool)": {
        "params": {
          "tokenIds": "- The IDs of the tokens to claim earnings from",
          "unstake": "- Whether or not to unstake ALL of the tokens listed in tokenIds"
        }
      },
      "isChef(uint256)": {
        "params": {
          "tokenId": "- The ID of the token to check"
        },
        "returns": {
          "chef": "- Whether or not the token is a Chef"
        }
      },
      "owner()": {
        "details": "Returns the address of the current owner."
      },
      "paused()": {
        "details": "Returns true if the contract is paused, and false otherwise."
      },
      "renounceOwnership()": {
        "details": "Leaves the contract without owner. It will not be possible to call `onlyOwner` functions anymore. Can only be called by the current owner. NOTE: Renouncing ownership will leave the contract without an owner, thereby removing any functionality that is only available to the owner."
      },
      "stakeMany(address,uint16[])": {
        "params": {
          "account": "- The address of the staker",
          "tokenIds": "- The IDs of the Chefs & Rats to stake"
        }
      },
      "transferOwnership(address)": {
        "details": "Transfers ownership of the contract to a new account (`newOwner`). Can only be called by the current owner."
      }
    },
    "version": 1
  },
  "userdoc": {
    "kind": "user",
    "methods": {
      "claimMany(uint16[],bool)": {
        "notice": "Claim $FFOOD earnings and optionally unstake tokens from the Kitchen / Pack"
      },
      "isChef(uint256)": {
        "notice": "Checks if the token is a Chef"
      },
      "stakeMany(address,uint16[])": {
        "notice": "Adds Chefs to Kitchen & Rats to Pack"
      }
    },
    "version": 1
  }
}