{
  "contractName": "KitchenPack",
  "abi": [
    {
      "anonymous": false,
      "inputs": [
        {
          "indexed": false,
          "internalType": "uint256",
          "name": "tokenId",
          "type": "uint256"
        },
        {
          "indexed": false,
          "internalType": "uint256",
          "name": "earned",
          "type": "uint256"
        },
        {
          "indexed": false,
          "internalType": "bool",
          "name": "unstaked",
          "type": "bool"
        },
        {
          "indexed": false,
          "internalType": "uint8",
          "name": "skill",
          "type": "uint8"
        },
        {
          "indexed": false,
          "internalType": "uint8",
          "name": "insanity",
          "type": "uint8"
        },
        {
          "indexed": false,
          "internalType": "string",
          "name": "eventName",
          "type": "string"
        }
      ],
      "name": "ChefClaimed",
      "type": "event"
    },
    {
      "anonymous": false,
      "inputs": [
        {
          "indexed": true,
          "internalType": "address",
          "name": "previousOwner",
          "type": "address"
        },
        {
          "indexed": true,
          "internalType": "address",
          "name": "newOwner",
          "type": "address"
        }
      ],
      "name": "OwnershipTransferred",
      "type": "event"
    },
    {
      "anonymous": false,
      "inputs": [
        {
          "indexed": false,
          "internalType": "address",
          "name": "account",
          "type": "address"
        }
      ],
      "name": "Paused",
      "type": "event"
    },
    {
      "anonymous": false,
      "inputs": [
        {
          "indexed": false,
          "internalType": "uint256",
          "name": "tokenId",
          "type": "uint256"
        },
        {
          "indexed": false,
          "internalType": "uint256",
          "name": "earned",
          "type": "uint256"
        },
        {
          "indexed": false,
          "internalType": "bool",
          "name": "unstaked",
          "type": "bool"
        },
        {
          "indexed": false,
          "internalType": "uint8",
          "name": "intelligence",
          "type": "uint8"
        },
        {
          "indexed": false,
          "internalType": "uint8",
          "name": "fatness",
          "type": "uint8"
        },
        {
          "indexed": false,
          "internalType": "string",
          "name": "eventName",
          "type": "string"
        }
      ],
      "name": "RatClaimed",
      "type": "event"
    },
    {
      "anonymous": false,
      "inputs": [
        {
          "indexed": false,
          "internalType": "uint256",
          "name": "tokenId",
          "type": "uint256"
        },
        {
          "indexed": false,
          "internalType": "address",
          "name": "owner",
          "type": "address"
        },
        {
          "indexed": false,
          "internalType": "uint256",
          "name": "value",
          "type": "uint256"
        }
      ],
      "name": "TokenStaked",
      "type": "event"
    },
    {
      "anonymous": false,
      "inputs": [
        {
          "indexed": false,
          "internalType": "address",
          "name": "account",
          "type": "address"
        }
      ],
      "name": "Unpaused",
      "type": "event"
    },
    {
      "inputs": [],
      "name": "DAILY_FATNESS_RATE",
      "outputs": [
        {
          "internalType": "uint8",
          "name": "",
          "type": "uint8"
        }
      ],
      "stateMutability": "view",
      "type": "function",
      "constant": true
    },
    {
      "inputs": [],
      "name": "DAILY_FFOOD_RATE",
      "outputs": [
        {
          "internalType": "uint256",
          "name": "",
          "type": "uint256"
        }
      ],
      "stateMutability": "view",
      "type": "function",
      "constant": true
    },
    {
      "inputs": [],
      "name": "DAILY_INSANITY_RATE",
      "outputs": [
        {
          "internalType": "uint8",
          "name": "",
          "type": "uint8"
        }
      ],
      "stateMutability": "view",
      "type": "function",
      "constant": true
    },
    {
      "inputs": [],
      "name": "DAILY_INTELLIGENCE_RATE",
      "outputs": [
        {
          "internalType": "uint8",
          "name": "",
          "type": "uint8"
        }
      ],
      "stateMutability": "view",
      "type": "function",
      "constant": true
    },
    {
      "inputs": [],
      "name": "DAILY_SKILL_RATE",
      "outputs": [
        {
          "internalType": "uint8",
          "name": "",
          "type": "uint8"
        }
      ],
      "stateMutability": "view",
      "type": "function",
      "constant": true
    },
    {
      "inputs": [],
      "name": "FFOOD_CLAIM_TAX_PERCENTAGE",
      "outputs": [
        {
          "internalType": "uint256",
          "name": "",
          "type": "uint256"
        }
      ],
      "stateMutability": "view",
      "type": "function",
      "constant": true
    },
    {
      "inputs": [],
      "name": "FFOOD_MAX_SUPPLY",
      "outputs": [
        {
          "internalType": "uint256",
          "name": "",
          "type": "uint256"
        }
      ],
      "stateMutability": "view",
      "type": "function",
      "constant": true
    },
    {
      "inputs": [],
      "name": "MINIMUM_TO_EXIT",
      "outputs": [
        {
          "internalType": "uint256",
          "name": "",
          "type": "uint256"
        }
      ],
      "stateMutability": "view",
      "type": "function",
      "constant": true
    },
    {
      "inputs": [],
      "name": "accrualPeriod",
      "outputs": [
        {
          "internalType": "uint256",
          "name": "",
          "type": "uint256"
        }
      ],
      "stateMutability": "view",
      "type": "function",
      "constant": true
    },
    {
      "inputs": [],
      "name": "fastFoodPerRat",
      "outputs": [
        {
          "internalType": "uint256",
          "name": "",
          "type": "uint256"
        }
      ],
      "stateMutability": "view",
      "type": "function",
      "constant": true
    },
    {
      "inputs": [
        {
          "internalType": "uint256",
          "name": "",
          "type": "uint256"
        }
      ],
      "name": "kitchen",
      "outputs": [
        {
          "internalType": "uint256",
          "name": "tokenId",
          "type": "uint256"
        },
        {
          "internalType": "address",
          "name": "owner",
          "type": "address"
        },
        {
          "internalType": "uint80",
          "name": "value",
          "type": "uint80"
        },
        {
          "internalType": "uint80",
          "name": "timestamp",
          "type": "uint80"
        }
      ],
      "stateMutability": "view",
      "type": "function",
      "constant": true
    },
    {
      "inputs": [],
      "name": "lastClaimTimestamp",
      "outputs": [
        {
          "internalType": "uint256",
          "name": "",
          "type": "uint256"
        }
      ],
      "stateMutability": "view",
      "type": "function",
      "constant": true
    },
    {
      "inputs": [],
      "name": "owner",
      "outputs": [
        {
          "internalType": "address",
          "name": "",
          "type": "address"
        }
      ],
      "stateMutability": "view",
      "type": "function",
      "constant": true
    },
    {
      "inputs": [
        {
          "internalType": "uint256",
          "name": "",
          "type": "uint256"
        }
      ],
      "name": "pack",
      "outputs": [
        {
          "internalType": "uint256",
          "name": "tokenId",
          "type": "uint256"
        },
        {
          "internalType": "address",
          "name": "owner",
          "type": "address"
        },
        {
          "internalType": "uint80",
          "name": "value",
          "type": "uint80"
        },
        {
          "internalType": "uint80",
          "name": "timestamp",
          "type": "uint80"
        }
      ],
      "stateMutability": "view",
      "type": "function",
      "constant": true
    },
    {
      "inputs": [],
      "name": "paused",
      "outputs": [
        {
          "internalType": "bool",
          "name": "",
          "type": "bool"
        }
      ],
      "stateMutability": "view",
      "type": "function",
      "constant": true
    },
    {
      "inputs": [],
      "name": "renounceOwnership",
      "outputs": [],
      "stateMutability": "nonpayable",
      "type": "function"
    },
    {
      "inputs": [],
      "name": "totalChefsStaked",
      "outputs": [
        {
          "internalType": "uint256",
          "name": "",
          "type": "uint256"
        }
      ],
      "stateMutability": "view",
      "type": "function",
      "constant": true
    },
    {
      "inputs": [],
      "name": "totalFastFoodEarned",
      "outputs": [
        {
          "internalType": "uint256",
          "name": "",
          "type": "uint256"
        }
      ],
      "stateMutability": "view",
      "type": "function",
      "constant": true
    },
    {
      "inputs": [],
      "name": "totalRatsStaked",
      "outputs": [
        {
          "internalType": "uint256",
          "name": "",
          "type": "uint256"
        }
      ],
      "stateMutability": "view",
      "type": "function",
      "constant": true
    },
    {
      "inputs": [
        {
          "internalType": "address",
          "name": "newOwner",
          "type": "address"
        }
      ],
      "name": "transferOwnership",
      "outputs": [],
      "stateMutability": "nonpayable",
      "type": "function"
    },
    {
      "inputs": [],
      "name": "unaccountedRewards",
      "outputs": [
        {
          "internalType": "uint256",
          "name": "",
          "type": "uint256"
        }
      ],
      "stateMutability": "view",
      "type": "function",
      "constant": true
    },
    {
      "inputs": [
        {
          "internalType": "address",
          "name": "_chefRat",
          "type": "address"
        },
        {
          "internalType": "address",
          "name": "_fastFood",
          "type": "address"
        },
        {
          "internalType": "uint256",
          "name": "_accrualPeriod",
          "type": "uint256"
        }
      ],
      "name": "initialize",
      "outputs": [],
      "stateMutability": "nonpayable",
      "type": "function"
    },
    {
      "inputs": [
        {
          "internalType": "address",
          "name": "account",
          "type": "address"
        },
        {
          "internalType": "uint16[]",
          "name": "tokenIds",
          "type": "uint16[]"
        }
      ],
      "name": "stakeMany",
      "outputs": [],
      "stateMutability": "nonpayable",
      "type": "function"
    },
    {
      "inputs": [
        {
          "internalType": "uint16[]",
          "name": "tokenIds",
          "type": "uint16[]"
        },
        {
          "internalType": "bool",
          "name": "unstake",
          "type": "bool"
        }
      ],
      "name": "claimMany",
      "outputs": [],
      "stateMutability": "nonpayable",
      "type": "function"
    },
    {
      "inputs": [
        {
          "internalType": "uint256",
          "name": "tokenId",
          "type": "uint256"
        }
      ],
      "name": "isChef",
      "outputs": [
        {
          "internalType": "bool",
          "name": "chef",
          "type": "bool"
        }
      ],
      "stateMutability": "view",
      "type": "function",
      "constant": true
    },
    {
      "inputs": [
        {
          "internalType": "address",
          "name": "",
          "type": "address"
        },
        {
          "internalType": "address",
          "name": "from",
          "type": "address"
        },
        {
          "internalType": "uint256",
          "name": "",
          "type": "uint256"
        },
        {
          "internalType": "bytes",
          "name": "",
          "type": "bytes"
        }
      ],
      "name": "onERC721Received",
      "outputs": [
        {
          "internalType": "bytes4",
          "name": "",
          "type": "bytes4"
        }
      ],
      "stateMutability": "pure",
      "type": "function",
      "constant": true
    }
  ],
  "bytecode": "0x608060405234801561001057600080fd5b506135e3806100206000396000f3fe608060405234801561001057600080fd5b506004361061018e5760003560e01c8063a104b8f2116100de578063d6732f9d11610097578063ef9f800f11610071578063ef9f800f14610449578063f266674614610479578063f2fde38b14610497578063f6664155146104b35761018e565b8063d6732f9d146103f1578063dbdc1f6b1461040f578063e1a7c0a11461042b5761018e565b8063a104b8f21461033f578063a7a102901461035d578063b6640c6014610379578063b9ace90a14610397578063c0c472c0146103b5578063c508d1c3146103d35761018e565b80635c975abb1161014b578063715018a611610125578063715018a6146102db57806377488460146102e55780638da5cb5b146103035780639618d74a146103215761018e565b80635c975abb1461026c578063607af3971461028a5780636ea42555146102a85761018e565b8063150b7a02146101935780631794bb3c146101c3578063221453cf146101df578063333e2de8146101fd57806337a386b914610230578063499f80101461024e575b600080fd5b6101ad60048036038101906101a8919061258d565b6104d1565b6040516101ba9190612650565b60405180910390f35b6101dd60048036038101906101d8919061266b565b610554565b005b6101e76106ec565b6040516101f491906126cd565b60405180910390f35b610217600480360381019061021291906126e8565b6106fc565b6040516102279493929190612749565b60405180910390f35b610238610778565b60405161024591906126cd565b60405180910390f35b61025661077e565b60405161026391906126cd565b60405180910390f35b610274610784565b60405161028191906127a9565b60405180910390f35b61029261079b565b60405161029f91906126cd565b60405180910390f35b6102c260048036038101906102bd91906126e8565b6107a1565b6040516102d29493929190612749565b60405180910390f35b6102e361081d565b005b6102ed6108a5565b6040516102fa91906126cd565b60405180910390f35b61030b6108ab565b60405161031891906127c4565b60405180910390f35b6103296108d5565b60405161033691906127fb565b60405180910390f35b6103476108da565b60405161035491906126cd565b60405180910390f35b61037760048036038101906103729190612898565b6108e7565b005b610381610ac1565b60405161038e91906127fb565b60405180910390f35b61039f610ac6565b6040516103ac91906127fb565b60405180910390f35b6103bd610acb565b6040516103ca91906126cd565b60405180910390f35b6103db610ad1565b6040516103e891906127fb565b60405180910390f35b6103f9610ad6565b60405161040691906126cd565b60405180910390f35b610429600480360381019061042491906128f8565b610adb565b005b610433610f11565b60405161044091906126cd565b60405180910390f35b610463600480360381019061045e91906126e8565b610f17565b60405161047091906127a9565b60405180910390f35b610481610fec565b60405161048e91906126cd565b60405180910390f35b6104b160048036038101906104ac9190612958565b610ff2565b005b6104bb6110ea565b6040516104c891906126cd565b60405180910390f35b60008073ffffffffffffffffffffffffffffffffffffffff168573ffffffffffffffffffffffffffffffffffffffff1614610541576040517f08c379a000000000000000000000000000000000000000000000000000000000815260040161053890612a08565b60405180910390fd5b63150b7a0260e01b905095945050505050565b600060019054906101000a900460ff1661057c5760008054906101000a900460ff1615610585565b6105846110f0565b5b6105c4576040517f08c379a00000000000000000000000000000000000000000000000000000000081526004016105bb90612a9a565b60405180910390fd5b60008060019054906101000a900460ff161590508015610614576001600060016101000a81548160ff02191690831515021790555060016000806101000a81548160ff0219169083151502179055505b61061c611101565b610624611162565b83609760006101000a81548173ffffffffffffffffffffffffffffffffffffffff021916908373ffffffffffffffffffffffffffffffffffffffff16021790555082609860006101000a81548173ffffffffffffffffffffffffffffffffffffffff021916908373ffffffffffffffffffffffffffffffffffffffff1602179055506000609d819055506000609e81905550600060a0819055508160a18190555080156106e65760008060016101000a81548160ff0219169083151502179055505b50505050565b6b033b2e3c9fd0803ce800000081565b60996020528060005260406000206000915090508060000154908060010160009054906101000a900473ffffffffffffffffffffffffffffffffffffffff16908060010160149054906101000a900469ffffffffffffffffffff16908060020160009054906101000a900469ffffffffffffffffffff16905084565b61708081565b609c5481565b6000606560009054906101000a900460ff16905090565b60a05481565b609a6020528060005260406000206000915090508060000154908060010160009054906101000a900473ffffffffffffffffffffffffffffffffffffffff16908060010160149054906101000a900469ffffffffffffffffffff16908060020160009054906101000a900469ffffffffffffffffffff16905084565b6108256111c3565b73ffffffffffffffffffffffffffffffffffffffff166108436108ab565b73ffffffffffffffffffffffffffffffffffffffff1614610899576040517f08c379a000000000000000000000000000000000000000000000000000000000815260040161089090612b06565b60405180910390fd5b6108a360006111cb565b565b609f5481565b6000603360009054906101000a900473ffffffffffffffffffffffffffffffffffffffff16905090565b600281565b683635c9adc5dea0000081565b6108ef610784565b1561092f576040517f08c379a000000000000000000000000000000000000000000000000000000000815260040161092690612b72565b60405180910390fd5b6000805b84849050811015610a145761097285858381811061095457610953612b92565b5b90506020020160208101906109699190612bfb565b61ffff16610f17565b156109be576109ac85858381811061098d5761098c612b92565b5b90506020020160208101906109a29190612bfb565b61ffff1684611291565b826109b79190612c57565b9150610a01565b6109f38585838181106109d4576109d3612b92565b5b90506020020160208101906109e99190612bfb565b61ffff16846117ad565b826109fe9190612c57565b91505b8080610a0c90612cad565b915050610933565b506000811415610a245750610abc565b609860009054906101000a900473ffffffffffffffffffffffffffffffffffffffff1673ffffffffffffffffffffffffffffffffffffffff166340c10f19610a6a6111c3565b836040518363ffffffff1660e01b8152600401610a88929190612cf6565b600060405180830381600087803b158015610aa257600080fd5b505af1158015610ab6573d6000803e3d6000fd5b50505050505b505050565b600481565b600881565b609d5481565b600281565b601481565b610ae36111c3565b73ffffffffffffffffffffffffffffffffffffffff168373ffffffffffffffffffffffffffffffffffffffff161480610b705750609760009054906101000a900473ffffffffffffffffffffffffffffffffffffffff1673ffffffffffffffffffffffffffffffffffffffff16610b586111c3565b73ffffffffffffffffffffffffffffffffffffffff16145b610baf576040517f08c379a0000000000000000000000000000000000000000000000000000000008152600401610ba690612d6b565b60405180910390fd5b60005b82829050811015610f0b57609760009054906101000a900473ffffffffffffffffffffffffffffffffffffffff1673ffffffffffffffffffffffffffffffffffffffff16610bfe6111c3565b73ffffffffffffffffffffffffffffffffffffffff1614610e1457610c216111c3565b73ffffffffffffffffffffffffffffffffffffffff16609760009054906101000a900473ffffffffffffffffffffffffffffffffffffffff1673ffffffffffffffffffffffffffffffffffffffff16636352211e858585818110610c8857610c87612b92565b5b9050602002016020810190610c9d9190612bfb565b6040518263ffffffff1660e01b8152600401610cb99190612dc6565b602060405180830381865afa158015610cd6573d6000803e3d6000fd5b505050506040513d601f19601f82011682018060405250810190610cfa9190612df6565b73ffffffffffffffffffffffffffffffffffffffff1614610d50576040517f08c379a0000000000000000000000000000000000000000000000000000000008152600401610d4790612e6f565b60405180910390fd5b609760009054906101000a900473ffffffffffffffffffffffffffffffffffffffff1673ffffffffffffffffffffffffffffffffffffffff166323b872dd610d966111c3565b30868686818110610daa57610da9612b92565b5b9050602002016020810190610dbf9190612bfb565b6040518463ffffffff1660e01b8152600401610ddd93929190612e8f565b600060405180830381600087803b158015610df757600080fd5b505af1158015610e0b573d6000803e3d6000fd5b50505050610e4e565b6000838383818110610e2957610e28612b92565b5b9050602002016020810190610e3e9190612bfb565b61ffff161415610e4d57610ef8565b5b610e82838383818110610e6457610e63612b92565b5b9050602002016020810190610e799190612bfb565b61ffff16610f17565b15610ec157610ebc84848484818110610e9e57610e9d612b92565b5b9050602002016020810190610eb39190612bfb565b61ffff16611c08565b610ef7565b610ef684848484818110610ed857610ed7612b92565b5b9050602002016020810190610eed9190612bfb565b61ffff16611dc7565b5b5b8080610f0390612cad565b915050610bb2565b50505050565b609e5481565b6000609760009054906101000a900473ffffffffffffffffffffffffffffffffffffffff1673ffffffffffffffffffffffffffffffffffffffff1663e05c57bf836040518263ffffffff1660e01b8152600401610f7491906126cd565b61014060405180830381865afa158015610f92573d6000803e3d6000fd5b505050506040513d601f19601f82011682018060405250810190610fb69190612f07565b90919293949596975090919293949596509091929394955090919293945090919293509091925090915090505080915050919050565b609b5481565b610ffa6111c3565b73ffffffffffffffffffffffffffffffffffffffff166110186108ab565b73ffffffffffffffffffffffffffffffffffffffff161461106e576040517f08c379a000000000000000000000000000000000000000000000000000000000815260040161106590612b06565b60405180910390fd5b600073ffffffffffffffffffffffffffffffffffffffff168173ffffffffffffffffffffffffffffffffffffffff1614156110de576040517f08c379a00000000000000000000000000000000000000000000000000000000081526004016110d590613058565b60405180910390fd5b6110e7816111cb565b50565b60a15481565b60006110fb30611f8a565b15905090565b600060019054906101000a900460ff16611150576040517f08c379a0000000000000000000000000000000000000000000000000000000008152600401611147906130ea565b60405180910390fd5b611158611f9d565b611160611fee565b565b600060019054906101000a900460ff166111b1576040517f08c379a00000000000000000000000000000000000000000000000000000000081526004016111a8906130ea565b60405180910390fd5b6111b9611f9d565b6111c161204f565b565b600033905090565b6000603360009054906101000a900473ffffffffffffffffffffffffffffffffffffffff16905081603360006101000a81548173ffffffffffffffffffffffffffffffffffffffff021916908373ffffffffffffffffffffffffffffffffffffffff1602179055508173ffffffffffffffffffffffffffffffffffffffff168173ffffffffffffffffffffffffffffffffffffffff167f8be0079c531659141344cd1fd0a4f28419497f9722a3daafe3b4186f6b6457e060405160405180910390a35050565b60008060996000858152602001908152602001600020604051806080016040529081600082015481526020016001820160009054906101000a900473ffffffffffffffffffffffffffffffffffffffff1673ffffffffffffffffffffffffffffffffffffffff1673ffffffffffffffffffffffffffffffffffffffff1681526020016001820160149054906101000a900469ffffffffffffffffffff1669ffffffffffffffffffff1669ffffffffffffffffffff1681526020016002820160009054906101000a900469ffffffffffffffffffff1669ffffffffffffffffffff1669ffffffffffffffffffff1681525050905061138c6111c3565b73ffffffffffffffffffffffffffffffffffffffff16816020015173ffffffffffffffffffffffffffffffffffffffff16146113fd576040517f08c379a00000000000000000000000000000000000000000000000000000000081526004016113f490612e6f565b60405180910390fd5b60a154683635c9adc5dea00000826040015169ffffffffffffffffffff1642611426919061310a565b611430919061313e565b61143a91906131c7565b91506b033b2e3c9fd0803ce800000082609f546114579190612c57565b111561147a57609f546b033b2e3c9fd0803ce8000000611477919061310a565b91505b60008211156114ec574260a08190555081609f600082825461149c9190612c57565b925050819055506114c460646014846114b5919061313e565b6114bf91906131c7565b6120bb565b6064601460646114d4919061310a565b836114df919061313e565b6114e991906131c7565b91505b60008060006114fa87612123565b925092509250851561163a57609760009054906101000a900473ffffffffffffffffffffffffffffffffffffffff1673ffffffffffffffffffffffffffffffffffffffff1663b88d4fde3061154d6111c3565b8a6040518463ffffffff1660e01b815260040161156c9392919061322f565b600060405180830381600087803b15801561158657600080fd5b505af115801561159a573d6000803e3d6000fd5b50505050609960008881526020019081526020016000206000808201600090556001820160006101000a81549073ffffffffffffffffffffffffffffffffffffffff02191690556001820160146101000a81549069ffffffffffffffffffff02191690556002820160006101000a81549069ffffffffffffffffffff02191690555050609b600081548092919061163090613279565b9190505550611762565b60405180608001604052808861ffff1681526020016116576111c3565b73ffffffffffffffffffffffffffffffffffffffff1681526020014269ffffffffffffffffffff1681526020014269ffffffffffffffffffff16815250609960008981526020019081526020016000206000820151816000015560208201518160010160006101000a81548173ffffffffffffffffffffffffffffffffffffffff021916908373ffffffffffffffffffffffffffffffffffffffff16021790555060408201518160010160146101000a81548169ffffffffffffffffffff021916908369ffffffffffffffffffff16021790555060608201518160020160006101000a81548169ffffffffffffffffffff021916908369ffffffffffffffffffff1602179055509050505b7fac040b5fbe4491aa9bf072a41d2c8fa810931ea62bb6a7d47d608c6d05424c4287868886868660405161179b9695949392919061332b565b60405180910390a15050505092915050565b600080609a6000858152602001908152602001600020604051806080016040529081600082015481526020016001820160009054906101000a900473ffffffffffffffffffffffffffffffffffffffff1673ffffffffffffffffffffffffffffffffffffffff1673ffffffffffffffffffffffffffffffffffffffff1681526020016001820160149054906101000a900469ffffffffffffffffffff1669ffffffffffffffffffff1669ffffffffffffffffffff1681526020016002820160009054906101000a900469ffffffffffffffffffff1669ffffffffffffffffffff1669ffffffffffffffffffff168152505090506118a86111c3565b73ffffffffffffffffffffffffffffffffffffffff16816020015173ffffffffffffffffffffffffffffffffffffffff1614611919576040517f08c379a000000000000000000000000000000000000000000000000000000000815260040161191090612e6f565b60405180910390fd5b806040015169ffffffffffffffffffff16609e54611937919061310a565b6001611943919061313e565b9150600080600061195387612123565b9250925092508515611a9357609760009054906101000a900473ffffffffffffffffffffffffffffffffffffffff1673ffffffffffffffffffffffffffffffffffffffff1663b88d4fde306119a66111c3565b8a6040518463ffffffff1660e01b81526004016119c59392919061322f565b600060405180830381600087803b1580156119df57600080fd5b505af11580156119f3573d6000803e3d6000fd5b50505050609a60008881526020019081526020016000206000808201600090556001820160006101000a81549073ffffffffffffffffffffffffffffffffffffffff02191690556001820160146101000a81549069ffffffffffffffffffff02191690556002820160006101000a81549069ffffffffffffffffffff02191690555050609c6000815480929190611a8990613279565b9190505550611bbd565b60405180608001604052808861ffff168152602001611ab06111c3565b73ffffffffffffffffffffffffffffffffffffffff168152602001609e5469ffffffffffffffffffff1681526020014269ffffffffffffffffffff16815250609a60008981526020019081526020016000206000820151816000015560208201518160010160006101000a81548173ffffffffffffffffffffffffffffffffffffffff021916908373ffffffffffffffffffffffffffffffffffffffff16021790555060408201518160010160146101000a81548169ffffffffffffffffffff021916908369ffffffffffffffffffff16021790555060608201518160020160006101000a81548169ffffffffffffffffffff021916908369ffffffffffffffffffff1602179055509050505b7f6e949c62565860afb9dd6295e998a1c40005fe9560aedf8d596717681cfc7a1f878688868686604051611bf69695949392919061332b565b60405180910390a15050505092915050565b611c10610784565b15611c50576040517f08c379a0000000000000000000000000000000000000000000000000000000008152600401611c4790612b72565b60405180910390fd5b60405180608001604052808261ffff1681526020018373ffffffffffffffffffffffffffffffffffffffff1681526020014269ffffffffffffffffffff1681526020014269ffffffffffffffffffff16815250609960008381526020019081526020016000206000820151816000015560208201518160010160006101000a81548173ffffffffffffffffffffffffffffffffffffffff021916908373ffffffffffffffffffffffffffffffffffffffff16021790555060408201518160010160146101000a81548169ffffffffffffffffffff021916908369ffffffffffffffffffff16021790555060608201518160020160006101000a81548169ffffffffffffffffffff021916908369ffffffffffffffffffff160217905550905050609b6000815480929190611d8390612cad565b91905055507f8af1bb49fb16c7835975aa59449ba4328dd54737dfb2ae9fa6c5eca71fda51f9818342604051611dbb93929190613393565b60405180910390a15050565b611dcf610784565b15611e0f576040517f08c379a0000000000000000000000000000000000000000000000000000000008152600401611e0690612b72565b60405180910390fd5b60405180608001604052808261ffff1681526020018373ffffffffffffffffffffffffffffffffffffffff168152602001609e5469ffffffffffffffffffff1681526020014269ffffffffffffffffffff16815250609a60008381526020019081526020016000206000820151816000015560208201518160010160006101000a81548173ffffffffffffffffffffffffffffffffffffffff021916908373ffffffffffffffffffffffffffffffffffffffff16021790555060408201518160010160146101000a81548169ffffffffffffffffffff021916908369ffffffffffffffffffff16021790555060608201518160020160006101000a81548169ffffffffffffffffffff021916908369ffffffffffffffffffff160217905550905050609c6000815480929190611f4490612cad565b91905055507f8af1bb49fb16c7835975aa59449ba4328dd54737dfb2ae9fa6c5eca71fda51f98183609e54604051611f7e93929190613393565b60405180910390a15050565b600080823b905060008111915050919050565b600060019054906101000a900460ff16611fec576040517f08c379a0000000000000000000000000000000000000000000000000000000008152600401611fe3906130ea565b60405180910390fd5b565b600060019054906101000a900460ff1661203d576040517f08c379a0000000000000000000000000000000000000000000000000000000008152600401612034906130ea565b60405180910390fd5b61204d6120486111c3565b6111cb565b565b600060019054906101000a900460ff1661209e576040517f08c379a0000000000000000000000000000000000000000000000000000000008152600401612095906130ea565b60405180910390fd5b6000606560006101000a81548160ff021916908315150217905550565b6000609c5414156120e45780609d60008282546120d89190612c57565b92505081905550612120565b609c54609d54826120f59190612c57565b6120ff91906131c7565b609e60008282546121109190612c57565b925050819055506000609d819055505b50565b6000806060600060996000868152602001908152602001600020604051806080016040529081600082015481526020016001820160009054906101000a900473ffffffffffffffffffffffffffffffffffffffff1673ffffffffffffffffffffffffffffffffffffffff1673ffffffffffffffffffffffffffffffffffffffff1681526020016001820160149054906101000a900469ffffffffffffffffffff1669ffffffffffffffffffff1669ffffffffffffffffffff1681526020016002820160009054906101000a900469ffffffffffffffffffff1669ffffffffffffffffffff1669ffffffffffffffffffff168152505090506000609a6000878152602001908152602001600020604051806080016040529081600082015481526020016001820160009054906101000a900473ffffffffffffffffffffffffffffffffffffffff1673ffffffffffffffffffffffffffffffffffffffff1673ffffffffffffffffffffffffffffffffffffffff1681526020016001820160149054906101000a900469ffffffffffffffffffff1669ffffffffffffffffffff1669ffffffffffffffffffff1681526020016002820160009054906101000a900469ffffffffffffffffffff1669ffffffffffffffffffff1669ffffffffffffffffffff16815250509050600061231787610f17565b61232557816060015161232b565b82606001515b69ffffffffffffffffffff1642612342919061310a565b9050609760009054906101000a900473ffffffffffffffffffffffffffffffffffffffff1673ffffffffffffffffffffffffffffffffffffffff1663d8ffcfcb886123a3846123908c610f17565b61239b57600261239e565b60025b61243f565b6123c3856123b08d610f17565b6123bb5760086123be565b60045b61243f565b6040518463ffffffff1660e01b81526004016123e1939291906133e6565b6000604051808303816000875af1158015612400573d6000803e3d6000fd5b505050506040513d6000823e3d601f19601f82011682018060405250810190612429919061353e565b8096508197508298505050505050509193909250565b60008060a1548360ff1685612454919061313e565b61245e91906131c7565b90506000606482116124705781612473565b60645b9050809250505092915050565b6000604051905090565b600080fd5b600080fd5b600073ffffffffffffffffffffffffffffffffffffffff82169050919050565b60006124bf82612494565b9050919050565b6124cf816124b4565b81146124da57600080fd5b50565b6000813590506124ec816124c6565b92915050565b6000819050919050565b612505816124f2565b811461251057600080fd5b50565b600081359050612522816124fc565b92915050565b600080fd5b600080fd5b600080fd5b60008083601f84011261254d5761254c612528565b5b8235905067ffffffffffffffff81111561256a5761256961252d565b5b60208301915083600182028301111561258657612585612532565b5b9250929050565b6000806000806000608086880312156125a9576125a861248a565b5b60006125b7888289016124dd565b95505060206125c8888289016124dd565b94505060406125d988828901612513565b935050606086013567ffffffffffffffff8111156125fa576125f961248f565b5b61260688828901612537565b92509250509295509295909350565b60007fffffffff0000000000000000000000000000000000000000000000000000000082169050919050565b61264a81612615565b82525050565b60006020820190506126656000830184612641565b92915050565b6000806000606084860312156126845761268361248a565b5b6000612692868287016124dd565b93505060206126a3868287016124dd565b92505060406126b486828701612513565b9150509250925092565b6126c7816124f2565b82525050565b60006020820190506126e260008301846126be565b92915050565b6000602082840312156126fe576126fd61248a565b5b600061270c84828501612513565b91505092915050565b61271e816124b4565b82525050565b600069ffffffffffffffffffff82169050919050565b61274381612724565b82525050565b600060808201905061275e60008301876126be565b61276b6020830186612715565b612778604083018561273a565b612785606083018461273a565b95945050505050565b60008115159050919050565b6127a38161278e565b82525050565b60006020820190506127be600083018461279a565b92915050565b60006020820190506127d96000830184612715565b92915050565b600060ff82169050919050565b6127f5816127df565b82525050565b600060208201905061281060008301846127ec565b92915050565b60008083601f84011261282c5761282b612528565b5b8235905067ffffffffffffffff8111156128495761284861252d565b5b60208301915083602082028301111561286557612864612532565b5b9250929050565b6128758161278e565b811461288057600080fd5b50565b6000813590506128928161286c565b92915050565b6000806000604084860312156128b1576128b061248a565b5b600084013567ffffffffffffffff8111156128cf576128ce61248f565b5b6128db86828701612816565b935093505060206128ee86828701612883565b9150509250925092565b6000806000604084860312156129115761291061248a565b5b600061291f868287016124dd565b935050602084013567ffffffffffffffff8111156129405761293f61248f565b5b61294c86828701612816565b92509250509250925092565b60006020828403121561296e5761296d61248a565b5b600061297c848285016124dd565b91505092915050565b600082825260208201905092915050565b7f43616e6e6f742073656e6420746f6b656e7320746f204b69746368656e20646960008201527f726563746c790000000000000000000000000000000000000000000000000000602082015250565b60006129f2602683612985565b91506129fd82612996565b604082019050919050565b60006020820190508181036000830152612a21816129e5565b9050919050565b7f496e697469616c697a61626c653a20636f6e747261637420697320616c72656160008201527f647920696e697469616c697a6564000000000000000000000000000000000000602082015250565b6000612a84602e83612985565b9150612a8f82612a28565b604082019050919050565b60006020820190508181036000830152612ab381612a77565b9050919050565b7f4f776e61626c653a2063616c6c6572206973206e6f7420746865206f776e6572600082015250565b6000612af0602083612985565b9150612afb82612aba565b602082019050919050565b60006020820190508181036000830152612b1f81612ae3565b9050919050565b7f5061757361626c653a2070617573656400000000000000000000000000000000600082015250565b6000612b5c601083612985565b9150612b6782612b26565b602082019050919050565b60006020820190508181036000830152612b8b81612b4f565b9050919050565b7f4e487b7100000000000000000000000000000000000000000000000000000000600052603260045260246000fd5b600061ffff82169050919050565b612bd881612bc1565b8114612be357600080fd5b50565b600081359050612bf581612bcf565b92915050565b600060208284031215612c1157612c1061248a565b5b6000612c1f84828501612be6565b91505092915050565b7f4e487b7100000000000000000000000000000000000000000000000000000000600052601160045260246000fd5b6000612c62826124f2565b9150612c6d836124f2565b9250827fffffffffffffffffffffffffffffffffffffffffffffffffffffffffffffffff03821115612ca257612ca1612c28565b5b828201905092915050565b6000612cb8826124f2565b91507fffffffffffffffffffffffffffffffffffffffffffffffffffffffffffffffff821415612ceb57612cea612c28565b5b600182019050919050565b6000604082019050612d0b6000830185612715565b612d1860208301846126be565b9392505050565b7f446f206e6f74206c6f736520796f757220746f6b656e73000000000000000000600082015250565b6000612d55601783612985565b9150612d6082612d1f565b602082019050919050565b60006020820190508181036000830152612d8481612d48565b9050919050565b6000819050919050565b6000612db0612dab612da684612bc1565b612d8b565b6124f2565b9050919050565b612dc081612d95565b82525050565b6000602082019050612ddb6000830184612db7565b92915050565b600081519050612df0816124c6565b92915050565b600060208284031215612e0c57612e0b61248a565b5b6000612e1a84828501612de1565b91505092915050565b7f4e6f7420796f757220746f6b656e000000000000000000000000000000000000600082015250565b6000612e59600e83612985565b9150612e6482612e23565b602082019050919050565b60006020820190508181036000830152612e8881612e4c565b9050919050565b6000606082019050612ea46000830186612715565b612eb16020830185612715565b612ebe6040830184612db7565b949350505050565b600081519050612ed58161286c565b92915050565b612ee4816127df565b8114612eef57600080fd5b50565b600081519050612f0181612edb565b92915050565b6000806000806000806000806000806101408b8d031215612f2b57612f2a61248a565b5b6000612f398d828e01612ec6565b9a50506020612f4a8d828e01612ef2565b9950506040612f5b8d828e01612ef2565b9850506060612f6c8d828e01612ef2565b9750506080612f7d8d828e01612ef2565b96505060a0612f8e8d828e01612ef2565b95505060c0612f9f8d828e01612ef2565b94505060e0612fb08d828e01612ef2565b935050610100612fc28d828e01612ef2565b925050610120612fd48d828e01612ef2565b9150509295989b9194979a5092959850565b7f4f776e61626c653a206e6577206f776e657220697320746865207a65726f206160008201527f6464726573730000000000000000000000000000000000000000000000000000602082015250565b6000613042602683612985565b915061304d82612fe6565b604082019050919050565b6000602082019050818103600083015261307181613035565b9050919050565b7f496e697469616c697a61626c653a20636f6e7472616374206973206e6f74206960008201527f6e697469616c697a696e67000000000000000000000000000000000000000000602082015250565b60006130d4602b83612985565b91506130df82613078565b604082019050919050565b60006020820190508181036000830152613103816130c7565b9050919050565b6000613115826124f2565b9150613120836124f2565b92508282101561313357613132612c28565b5b828203905092915050565b6000613149826124f2565b9150613154836124f2565b9250817fffffffffffffffffffffffffffffffffffffffffffffffffffffffffffffffff048311821515161561318d5761318c612c28565b5b828202905092915050565b7f4e487b7100000000000000000000000000000000000000000000000000000000600052601260045260246000fd5b60006131d2826124f2565b91506131dd836124f2565b9250826131ed576131ec613198565b5b828204905092915050565b600082825260208201905092915050565b50565b60006132196000836131f8565b915061322482613209565b600082019050919050565b60006080820190506132446000830186612715565b6132516020830185612715565b61325e60408301846126be565b818103606083015261326f8161320c565b9050949350505050565b6000613284826124f2565b9150600082141561329857613297612c28565b5b600182039050919050565b600081519050919050565b60005b838110156132cc5780820151818401526020810190506132b1565b838111156132db576000848401525b50505050565b6000601f19601f8301169050919050565b60006132fd826132a3565b6133078185612985565b93506133178185602086016132ae565b613320816132e1565b840191505092915050565b600060c08201905061334060008301896126be565b61334d60208301886126be565b61335a604083018761279a565b61336760608301866127ec565b61337460808301856127ec565b81810360a083015261338681846132f2565b9050979650505050505050565b60006060820190506133a860008301866126be565b6133b56020830185612715565b6133c260408301846126be565b949350505050565b60008160000b9050919050565b6133e0816133ca565b82525050565b60006060820190506133fb60008301866126be565b61340860208301856133d7565b61341560408301846133d7565b949350505050565b600080fd5b7f4e487b7100000000000000000000000000000000000000000000000000000000600052604160045260246000fd5b61345a826132e1565b810181811067ffffffffffffffff8211171561347957613478613422565b5b80604052505050565b600061348c612480565b90506134988282613451565b919050565b600067ffffffffffffffff8211156134b8576134b7613422565b5b6134c1826132e1565b9050602081019050919050565b60006134e16134dc8461349d565b613482565b9050828152602081018484840111156134fd576134fc61341d565b5b6135088482856132ae565b509392505050565b600082601f83011261352557613524612528565b5b81516135358482602086016134ce565b91505092915050565b6000806000606084860312156135575761355661248a565b5b600061356586828701612ef2565b935050602061357686828701612ef2565b925050604084015167ffffffffffffffff8111156135975761359661248f565b5b6135a386828701613510565b915050925092509256fea2646970667358221220e893883477b3fee98b214b8d6ed653504455fac525034ad6b2d18c4b9d55257d64736f6c634300080a0033",
  "immutableReferences": {},
  "source": "// SPDX-License-Identifier: MIT\n\npragma solidity ^0.8.0;\n\nimport \"@openzeppelin/contracts-upgradeable/proxy/utils/Initializable.sol\";\nimport \"@openzeppelin/contracts-upgradeable/access/OwnableUpgradeable.sol\";\nimport \"@openzeppelin/contracts-upgradeable/security/PausableUpgradeable.sol\";\nimport \"@openzeppelin/contracts-upgradeable/token/ERC721/IERC721ReceiverUpgradeable.sol\";\nimport \"./IKitchenPack.sol\";\nimport \"./IChefRat.sol\";\nimport \"./ChefRat.sol\";\nimport \"./FastFood.sol\";\n\ncontract KitchenPack is IKitchenPack, Initializable, OwnableUpgradeable, PausableUpgradeable, IERC721ReceiverUpgradeable {\n  struct Stake { // Store for a stake's token, owner, and earning values\n    uint256 tokenId;\n    address owner;\n    uint80 value;\n    uint80 timestamp;\n  }\n\n  event TokenStaked(uint256 tokenId, address owner, uint256 value);\n  event ChefClaimed(uint256 tokenId, uint256 earned, bool unstaked, uint8 skill, uint8 insanity, string eventName);\n  event RatClaimed(uint256 tokenId, uint256 earned, bool unstaked, uint8 intelligence, uint8 fatness, string eventName);\n\n  ChefRat chefRat; // Reference to the ChefRat NFT contract\n  FastFood fastFood; // Reference to the $FFOOD contract\n\n  mapping(uint256 => Stake) public kitchen; // Maps tokenId to stake\n  mapping(uint256 => Stake) public pack; // Maps tokenId to stake\n\n  uint256 public constant FFOOD_CLAIM_TAX_PERCENTAGE = 20; // Rats steal x% of all $FFOOD claimed\n  uint256 public constant MINIMUM_TO_EXIT = 8 hours; // Cannot unstake before EOB\n  uint256 public constant FFOOD_MAX_SUPPLY = 1000000000 ether; // There will only ever be x $FFOOD earned through staking\n  uint256 public constant DAILY_FFOOD_RATE = 1000 ether; // Chefs earn x $FFOOD per day\n  uint8 public constant DAILY_SKILL_RATE = 2;\n  uint8 public constant DAILY_INSANITY_RATE = 4;\n  uint8 public constant DAILY_INTELLIGENCE_RATE = 2;\n  uint8 public constant DAILY_FATNESS_RATE = 8;\n\n  uint256 public totalChefsStaked; // Number of Chefs staked in the Kitchen\n  uint256 public totalRatsStaked; // Number of Rats staked in the Pack\n  uint256 public unaccountedRewards; // any rewards distributed when no wolves are staked\n  uint256 public fastFoodPerRat; // amount of $WOOL due for each alpha point staked\n  uint256 public totalFastFoodEarned; // Amount of $FFOOD earned so far\n  uint256 public lastClaimTimestamp; // The last time $FFOOD was claimed\n  uint256 public accrualPeriod; // The period over which $FFOOD & levels are accrued\n\n  function initialize(address _chefRat, address _fastFood, uint256 _accrualPeriod) external initializer {\n    __Ownable_init();\n    __Pausable_init();\n\n    chefRat = ChefRat(_chefRat);\n    fastFood = FastFood(_fastFood);\n    unaccountedRewards = 0;\n    fastFoodPerRat = 0;\n    lastClaimTimestamp = 0;\n    accrualPeriod = _accrualPeriod;\n  }\n\n  /**\n   * Adds Chefs to Kitchen & Rats to Pack\n   * @param account - The address of the staker\n   * @param tokenIds - The IDs of the Chefs & Rats to stake\n   */\n  function stakeMany(address account, uint16[] calldata tokenIds) external {\n    require(account == _msgSender() || _msgSender() == address(chefRat), \"Do not lose your tokens\");\n    for (uint i = 0; i < tokenIds.length; i++) {\n      if (_msgSender() != address(chefRat)) { // Not necessary if it's a mint & stake\n        require(chefRat.ownerOf(tokenIds[i]) == _msgSender(), \"Not your token\");\n        chefRat.transferFrom(_msgSender(), address(this), tokenIds[i]);\n      } else if (tokenIds[i] == 0) {\n        continue; // There may be gaps in the array for stolen tokens\n      }\n\n      if (isChef(tokenIds[i])) {\n        _stakeChefToKitchen(account, tokenIds[i]);\n      } else {\n        _stakeRatToPack(account, tokenIds[i]);\n      }\n    }\n  }\n\n  /**\n   * Adds a single Chef to the Kitchen\n   * @param account - The address of the staker\n   * @param tokenId - The ID of the Chef to add to the Kitchen\n   */\n  function _stakeChefToKitchen(address account, uint256 tokenId) internal whenNotPaused {\n    kitchen[tokenId] = Stake({\n      tokenId: uint16(tokenId),\n      owner: account,\n      value: uint80(block.timestamp),\n      timestamp: uint80(block.timestamp)\n    });\n    totalChefsStaked ++;\n    emit TokenStaked(tokenId, account, block.timestamp);\n  }\n\n  /**\n   * Adds a single Rat to the Pack\n   * @param account - The address of the staker\n   * @param tokenId - The ID of the Rat to add to the Pack\n   */\n  function _stakeRatToPack(address account, uint256 tokenId) internal whenNotPaused {\n    pack[tokenId] = Stake({\n      tokenId: uint16(tokenId),\n      owner: account,\n      value: uint80(fastFoodPerRat),\n      timestamp: uint80(block.timestamp)\n    });\n    totalRatsStaked ++;\n    emit TokenStaked(tokenId, account, fastFoodPerRat);\n  }\n\n  /**\n   * Claim $FFOOD earnings and optionally unstake tokens from the Kitchen / Pack\n   * @param tokenIds - The IDs of the tokens to claim earnings from\n   * @param unstake - Whether or not to unstake ALL of the tokens listed in tokenIds\n   */\n  function claimMany(uint16[] calldata tokenIds, bool unstake) external whenNotPaused {\n    uint256 owed = 0;\n    for (uint i = 0; i < tokenIds.length; i++) {\n      if (isChef(tokenIds[i]))\n        owed += _claimChefFromKitchen(tokenIds[i], unstake);\n      else\n        owed += _claimRatFromPack(tokenIds[i], unstake);\n    }\n    if (owed == 0) return;\n    fastFood.mint(_msgSender(), owed);\n  }\n\n  /**\n   * Claim $FFOOD earnings for a single Chef and optionally unstake him\n   * If not unstaking, pay a 20% tax to the staked Rats\n   * If unstaking, there's a 50% chance all $FFOOD is stolen\n   * @param tokenId - The ID of the Chef to claim earnings from\n   * @param unstake - Whether or not to unstake the Chef\n   * @return owed - The amount of $FFOOD earned\n   */\n  function _claimChefFromKitchen(uint256 tokenId, bool unstake) internal returns (uint256 owed) {\n    Stake memory stake = kitchen[tokenId];\n    require(stake.owner == _msgSender(), \"Not your token\");\n//    require(!(unstake && block.timestamp - stake.value < MINIMUM_TO_EXIT), \"Cannot leave before EOB\");\n\n    owed = (block.timestamp - stake.value) * DAILY_FFOOD_RATE / accrualPeriod;\n    if (totalFastFoodEarned + owed > FFOOD_MAX_SUPPLY) {\n      owed = FFOOD_MAX_SUPPLY - totalFastFoodEarned;\n    }\n\n    if (owed > 0) {\n      lastClaimTimestamp = block.timestamp;\n      totalFastFoodEarned += owed;\n      _carelesslyLeaveToRats(owed * FFOOD_CLAIM_TAX_PERCENTAGE / 100); // percentage tax to staked wolves\n      owed = owed * (100 - FFOOD_CLAIM_TAX_PERCENTAGE) / 100; // Remainder goes to Chef owner\n    }\n\n    (uint8 efficiency, uint8 tolerance, string memory eventName) = updateCharacter(tokenId);\n\n    if (unstake) {\n      chefRat.safeTransferFrom(address(this), _msgSender(), tokenId, \"\"); // Send Chef back to owner\n      delete kitchen[tokenId];\n      totalChefsStaked --;\n    } else {\n      kitchen[tokenId] = Stake({ // Reset stake\n        tokenId: uint16(tokenId),\n        owner: _msgSender(),\n        value: uint80(block.timestamp),\n        timestamp: uint80(block.timestamp)\n      });\n    }\n    emit ChefClaimed(tokenId, owed, unstake, efficiency, tolerance, eventName);\n  }\n\n  function updateCharacter(uint256 tokenId) internal returns(uint8 efficiency, uint8 tolerance, string memory eventName) {\n    Stake memory k = kitchen[tokenId];\n    Stake memory p = pack[tokenId];\n    uint256 diff = block.timestamp - (isChef(tokenId) ? k.timestamp : p.timestamp);\n\n    (efficiency, tolerance, eventName) = chefRat.updateCharacter(\n      tokenId,\n      getCharacterIncrement(diff, isChef(tokenId) ? DAILY_SKILL_RATE : DAILY_INTELLIGENCE_RATE),\n      getCharacterIncrement(diff, isChef(tokenId) ? DAILY_INSANITY_RATE : DAILY_FATNESS_RATE)\n    );\n  }\n\n  function getCharacterIncrement(uint256 diff, uint8 factor) internal view returns(int8) {\n    uint256 owed = diff * factor / accrualPeriod;\n    uint8 increment = owed > 100 ? 100 : uint8(owed);\n    return int8(increment);\n  }\n\n  /**\n   * Claim $FFOOD earnings for a single Rat and optionally unstake it\n   * Rats steal $FFOOD proportional to their efficiency level\n   * @param tokenId - The ID of the Rat to claim earnings from\n   * @param unstake - Whether or not to unstake the Rat\n   * @return owed - The amount of $FFOOD earned\n   */\n  function _claimRatFromPack(uint256 tokenId, bool unstake) internal returns (uint256 owed) {\n    Stake memory stake = pack[tokenId];\n    require(stake.owner == _msgSender(), \"Not your token\");\n//    require(!(unstake && block.timestamp - stake.value < MINIMUM_TO_EXIT), \"Cannot leave your pack starving so early\");\n\n    owed = (1) * (fastFoodPerRat - stake.value); // Calculate individual share\n    (uint8 efficiency, uint8 tolerance, string memory eventName) = updateCharacter(tokenId);\n\n    if (unstake) {\n      chefRat.safeTransferFrom(address(this), _msgSender(), tokenId, \"\"); // Send Rat back to owner\n      delete pack[tokenId];\n      totalRatsStaked --;\n    } else {\n      pack[tokenId] = Stake({ // Reset stake\n        tokenId: uint16(tokenId),\n        owner: _msgSender(),\n        value: uint80(fastFoodPerRat),\n        timestamp: uint80(block.timestamp)\n      });\n    }\n    emit RatClaimed(tokenId, owed, unstake, efficiency, tolerance, eventName);\n  }\n\n  /**\n   * Checks if the token is a Chef\n   * @param tokenId - The ID of the token to check\n   * @return chef - Whether or not the token is a Chef\n   */\n  function isChef(uint256 tokenId) public view returns (bool chef) {\n    (chef, , , , , , , , ,) = chefRat.tokenTraits(tokenId);\n  }\n\n  /**\n   * Add $FFOOD to claimable pot for the Pack\n   * @param amount - $FFOOD to add to the pot\n   */\n  function _carelesslyLeaveToRats(uint256 amount) internal {\n    if (totalRatsStaked == 0) { // if there's no staked wolves\n      unaccountedRewards += amount; // keep track of $WOOL due to wolves\n      return;\n    }\n    // makes sure to include any unaccounted $FFOOD\n    fastFoodPerRat += (amount + unaccountedRewards) / totalRatsStaked;\n    unaccountedRewards = 0;\n  }\n\n  function onERC721Received(address, address from, uint256, bytes calldata) external pure override returns (bytes4) {\n    require(from == address(0x0), \"Cannot send tokens to Kitchen directly\");\n    return IERC721ReceiverUpgradeable.onERC721Received.selector;\n  }\n\n  /**\n   * Generates a pseudorandom number\n   * @param seed - A value to ensure different outcomes for different sources in the same block\n   * @return A pseudorandom value\n   */\n  function random(uint256 seed) internal view returns (uint256) {\n    return uint256(keccak256(abi.encodePacked(\n      tx.origin,\n      blockhash(block.number - 1),\n      block.timestamp,\n      seed\n    )));\n  }\n}\n",
  "sourcePath": "/Users/chris/workspace/ratalert/ratalert-contracts/contracts/KitchenPack.sol",
  "compiler": {
    "name": "solc",
    "version": "0.8.10+commit.fc410830.Emscripten.clang"
  },
  "schemaVersion": "3.4.4",
  "updatedAt": "2022-02-03T10:31:43.035Z",
  "networkType": "ethereum",
  "devdoc": {
    "kind": "dev",
    "methods": {
      "claimMany(uint16[],bool)": {
        "params": {
          "tokenIds": "- The IDs of the tokens to claim earnings from",
          "unstake": "- Whether or not to unstake ALL of the tokens listed in tokenIds"
        }
      },
      "isChef(uint256)": {
        "params": {
          "tokenId": "- The ID of the token to check"
        },
        "returns": {
          "chef": "- Whether or not the token is a Chef"
        }
      },
      "owner()": {
        "details": "Returns the address of the current owner."
      },
      "paused()": {
        "details": "Returns true if the contract is paused, and false otherwise."
      },
      "renounceOwnership()": {
        "details": "Leaves the contract without owner. It will not be possible to call `onlyOwner` functions anymore. Can only be called by the current owner. NOTE: Renouncing ownership will leave the contract without an owner, thereby removing any functionality that is only available to the owner."
      },
      "stakeMany(address,uint16[])": {
        "params": {
          "account": "- The address of the staker",
          "tokenIds": "- The IDs of the Chefs & Rats to stake"
        }
      },
      "transferOwnership(address)": {
        "details": "Transfers ownership of the contract to a new account (`newOwner`). Can only be called by the current owner."
      }
    },
    "version": 1
  },
  "userdoc": {
    "kind": "user",
    "methods": {
      "claimMany(uint16[],bool)": {
        "notice": "Claim $FFOOD earnings and optionally unstake tokens from the Kitchen / Pack"
      },
      "isChef(uint256)": {
        "notice": "Checks if the token is a Chef"
      },
      "stakeMany(address,uint16[])": {
        "notice": "Adds Chefs to Kitchen & Rats to Pack"
      }
    },
    "version": 1
  }
}