{
  "contractName": "KitchenPack",
  "abi": [
    {
      "anonymous": false,
      "inputs": [
        {
          "indexed": false,
          "internalType": "uint256",
          "name": "tokenId",
          "type": "uint256"
        },
        {
          "indexed": false,
          "internalType": "uint256",
          "name": "earned",
          "type": "uint256"
        },
        {
          "indexed": false,
          "internalType": "bool",
          "name": "unstaked",
          "type": "bool"
        },
        {
          "indexed": false,
          "internalType": "uint8",
          "name": "skill",
          "type": "uint8"
        },
        {
          "indexed": false,
          "internalType": "uint8",
          "name": "insanity",
          "type": "uint8"
        },
        {
          "indexed": false,
          "internalType": "string",
          "name": "eventName",
          "type": "string"
        }
      ],
      "name": "ChefClaimed",
      "type": "event"
    },
    {
      "anonymous": false,
      "inputs": [
        {
          "indexed": true,
          "internalType": "address",
          "name": "previousOwner",
          "type": "address"
        },
        {
          "indexed": true,
          "internalType": "address",
          "name": "newOwner",
          "type": "address"
        }
      ],
      "name": "OwnershipTransferred",
      "type": "event"
    },
    {
      "anonymous": false,
      "inputs": [
        {
          "indexed": false,
          "internalType": "address",
          "name": "account",
          "type": "address"
        }
      ],
      "name": "Paused",
      "type": "event"
    },
    {
      "anonymous": false,
      "inputs": [
        {
          "indexed": false,
          "internalType": "uint256",
          "name": "tokenId",
          "type": "uint256"
        },
        {
          "indexed": false,
          "internalType": "uint256",
          "name": "earned",
          "type": "uint256"
        },
        {
          "indexed": false,
          "internalType": "bool",
          "name": "unstaked",
          "type": "bool"
        },
        {
          "indexed": false,
          "internalType": "uint8",
          "name": "intelligence",
          "type": "uint8"
        },
        {
          "indexed": false,
          "internalType": "uint8",
          "name": "fatness",
          "type": "uint8"
        },
        {
          "indexed": false,
          "internalType": "string",
          "name": "eventName",
          "type": "string"
        }
      ],
      "name": "RatClaimed",
      "type": "event"
    },
    {
      "anonymous": false,
      "inputs": [
        {
          "indexed": false,
          "internalType": "uint256",
          "name": "tokenId",
          "type": "uint256"
        },
        {
          "indexed": false,
          "internalType": "address",
          "name": "owner",
          "type": "address"
        },
        {
          "indexed": false,
          "internalType": "uint256",
          "name": "value",
          "type": "uint256"
        }
      ],
      "name": "TokenStaked",
      "type": "event"
    },
    {
      "anonymous": false,
      "inputs": [
        {
          "indexed": false,
          "internalType": "address",
          "name": "account",
          "type": "address"
        }
      ],
      "name": "Unpaused",
      "type": "event"
    },
    {
      "inputs": [],
      "name": "DAILY_FATNESS_RATE",
      "outputs": [
        {
          "internalType": "uint8",
          "name": "",
          "type": "uint8"
        }
      ],
      "stateMutability": "view",
      "type": "function"
    },
    {
      "inputs": [],
      "name": "DAILY_FFOOD_RATE",
      "outputs": [
        {
          "internalType": "uint256",
          "name": "",
          "type": "uint256"
        }
      ],
      "stateMutability": "view",
      "type": "function"
    },
    {
      "inputs": [],
      "name": "DAILY_INSANITY_RATE",
      "outputs": [
        {
          "internalType": "uint8",
          "name": "",
          "type": "uint8"
        }
      ],
      "stateMutability": "view",
      "type": "function"
    },
    {
      "inputs": [],
      "name": "DAILY_INTELLIGENCE_RATE",
      "outputs": [
        {
          "internalType": "uint8",
          "name": "",
          "type": "uint8"
        }
      ],
      "stateMutability": "view",
      "type": "function"
    },
    {
      "inputs": [],
      "name": "DAILY_SKILL_RATE",
      "outputs": [
        {
          "internalType": "uint8",
          "name": "",
          "type": "uint8"
        }
      ],
      "stateMutability": "view",
      "type": "function"
    },
    {
      "inputs": [],
      "name": "FFOOD_CLAIM_TAX_PERCENTAGE",
      "outputs": [
        {
          "internalType": "uint256",
          "name": "",
          "type": "uint256"
        }
      ],
      "stateMutability": "view",
      "type": "function"
    },
    {
      "inputs": [],
      "name": "FFOOD_MAX_SUPPLY",
      "outputs": [
        {
          "internalType": "uint256",
          "name": "",
          "type": "uint256"
        }
      ],
      "stateMutability": "view",
      "type": "function"
    },
    {
      "inputs": [],
      "name": "MINIMUM_TO_EXIT",
      "outputs": [
        {
          "internalType": "uint256",
          "name": "",
          "type": "uint256"
        }
      ],
      "stateMutability": "view",
      "type": "function"
    },
    {
      "inputs": [],
      "name": "accrualPeriod",
      "outputs": [
        {
          "internalType": "uint256",
          "name": "",
          "type": "uint256"
        }
      ],
      "stateMutability": "view",
      "type": "function"
    },
    {
      "inputs": [],
      "name": "fastFoodPerRat",
      "outputs": [
        {
          "internalType": "uint256",
          "name": "",
          "type": "uint256"
        }
      ],
      "stateMutability": "view",
      "type": "function"
    },
    {
      "inputs": [
        {
          "internalType": "uint256",
          "name": "",
          "type": "uint256"
        }
      ],
      "name": "kitchen",
      "outputs": [
        {
          "internalType": "uint256",
          "name": "tokenId",
          "type": "uint256"
        },
        {
          "internalType": "address",
          "name": "owner",
          "type": "address"
        },
        {
          "internalType": "uint80",
          "name": "value",
          "type": "uint80"
        },
        {
          "internalType": "uint80",
          "name": "timestamp",
          "type": "uint80"
        }
      ],
      "stateMutability": "view",
      "type": "function"
    },
    {
      "inputs": [],
      "name": "lastClaimTimestamp",
      "outputs": [
        {
          "internalType": "uint256",
          "name": "",
          "type": "uint256"
        }
      ],
      "stateMutability": "view",
      "type": "function"
    },
    {
      "inputs": [],
      "name": "owner",
      "outputs": [
        {
          "internalType": "address",
          "name": "",
          "type": "address"
        }
      ],
      "stateMutability": "view",
      "type": "function"
    },
    {
      "inputs": [
        {
          "internalType": "uint256",
          "name": "",
          "type": "uint256"
        }
      ],
      "name": "pack",
      "outputs": [
        {
          "internalType": "uint256",
          "name": "tokenId",
          "type": "uint256"
        },
        {
          "internalType": "address",
          "name": "owner",
          "type": "address"
        },
        {
          "internalType": "uint80",
          "name": "value",
          "type": "uint80"
        },
        {
          "internalType": "uint80",
          "name": "timestamp",
          "type": "uint80"
        }
      ],
      "stateMutability": "view",
      "type": "function"
    },
    {
      "inputs": [],
      "name": "paused",
      "outputs": [
        {
          "internalType": "bool",
          "name": "",
          "type": "bool"
        }
      ],
      "stateMutability": "view",
      "type": "function"
    },
    {
      "inputs": [],
      "name": "renounceOwnership",
      "outputs": [],
      "stateMutability": "nonpayable",
      "type": "function"
    },
    {
      "inputs": [],
      "name": "totalChefsStaked",
      "outputs": [
        {
          "internalType": "uint256",
          "name": "",
          "type": "uint256"
        }
      ],
      "stateMutability": "view",
      "type": "function"
    },
    {
      "inputs": [],
      "name": "totalFastFoodEarned",
      "outputs": [
        {
          "internalType": "uint256",
          "name": "",
          "type": "uint256"
        }
      ],
      "stateMutability": "view",
      "type": "function"
    },
    {
      "inputs": [],
      "name": "totalRatsStaked",
      "outputs": [
        {
          "internalType": "uint256",
          "name": "",
          "type": "uint256"
        }
      ],
      "stateMutability": "view",
      "type": "function"
    },
    {
      "inputs": [
        {
          "internalType": "address",
          "name": "newOwner",
          "type": "address"
        }
      ],
      "name": "transferOwnership",
      "outputs": [],
      "stateMutability": "nonpayable",
      "type": "function"
    },
    {
      "inputs": [],
      "name": "unaccountedRewards",
      "outputs": [
        {
          "internalType": "uint256",
          "name": "",
          "type": "uint256"
        }
      ],
      "stateMutability": "view",
      "type": "function"
    },
    {
      "inputs": [
        {
          "internalType": "address",
          "name": "_chefRat",
          "type": "address"
        },
        {
          "internalType": "address",
          "name": "_fastFood",
          "type": "address"
        },
        {
          "internalType": "uint256",
          "name": "_accrualPeriod",
          "type": "uint256"
        }
      ],
      "name": "initialize",
      "outputs": [],
      "stateMutability": "nonpayable",
      "type": "function"
    },
    {
      "inputs": [
        {
          "internalType": "address",
          "name": "account",
          "type": "address"
        },
        {
          "internalType": "uint16[]",
          "name": "tokenIds",
          "type": "uint16[]"
        }
      ],
      "name": "stakeMany",
      "outputs": [],
      "stateMutability": "nonpayable",
      "type": "function"
    },
    {
      "inputs": [
        {
          "internalType": "uint16[]",
          "name": "tokenIds",
          "type": "uint16[]"
        },
        {
          "internalType": "bool",
          "name": "unstake",
          "type": "bool"
        }
      ],
      "name": "claimMany",
      "outputs": [],
      "stateMutability": "nonpayable",
      "type": "function"
    },
    {
      "inputs": [
        {
          "internalType": "uint256",
          "name": "tokenId",
          "type": "uint256"
        }
      ],
      "name": "isChef",
      "outputs": [
        {
          "internalType": "bool",
          "name": "chef",
          "type": "bool"
        }
      ],
      "stateMutability": "view",
      "type": "function"
    },
    {
      "inputs": [
        {
          "internalType": "address",
          "name": "",
          "type": "address"
        },
        {
          "internalType": "address",
          "name": "from",
          "type": "address"
        },
        {
          "internalType": "uint256",
          "name": "",
          "type": "uint256"
        },
        {
          "internalType": "bytes",
          "name": "",
          "type": "bytes"
        }
      ],
      "name": "onERC721Received",
      "outputs": [
        {
          "internalType": "bytes4",
          "name": "",
          "type": "bytes4"
        }
      ],
      "stateMutability": "pure",
      "type": "function"
    }
  ],
  "bytecode": "0x608060405234801561001057600080fd5b50613777806100206000396000f3fe608060405234801561001057600080fd5b506004361061018e5760003560e01c8063a104b8f2116100de578063d6732f9d11610097578063ef9f800f11610071578063ef9f800f14610449578063f266674614610479578063f2fde38b14610497578063f6664155146104b35761018e565b8063d6732f9d146103f1578063dbdc1f6b1461040f578063e1a7c0a11461042b5761018e565b8063a104b8f21461033f578063a7a102901461035d578063b6640c6014610379578063b9ace90a14610397578063c0c472c0146103b5578063c508d1c3146103d35761018e565b80635c975abb1161014b578063715018a611610125578063715018a6146102db57806377488460146102e55780638da5cb5b146103035780639618d74a146103215761018e565b80635c975abb1461026c578063607af3971461028a5780636ea42555146102a85761018e565b8063150b7a02146101935780631794bb3c146101c3578063221453cf146101df578063333e2de8146101fd57806337a386b914610230578063499f80101461024e575b600080fd5b6101ad60048036038101906101a8919061267e565b6104d1565b6040516101ba9190612741565b60405180910390f35b6101dd60048036038101906101d8919061275c565b610554565b005b6101e76106ec565b6040516101f491906127be565b60405180910390f35b610217600480360381019061021291906127d9565b6106fc565b604051610227949392919061283a565b60405180910390f35b610238610778565b60405161024591906127be565b60405180910390f35b61025661077e565b60405161026391906127be565b60405180910390f35b610274610784565b604051610281919061289a565b60405180910390f35b61029261079b565b60405161029f91906127be565b60405180910390f35b6102c260048036038101906102bd91906127d9565b6107a1565b6040516102d2949392919061283a565b60405180910390f35b6102e361081d565b005b6102ed6108a5565b6040516102fa91906127be565b60405180910390f35b61030b6108ab565b60405161031891906128b5565b60405180910390f35b6103296108d5565b60405161033691906128ec565b60405180910390f35b6103476108da565b60405161035491906127be565b60405180910390f35b61037760048036038101906103729190612989565b6108e7565b005b610381610ac1565b60405161038e91906128ec565b60405180910390f35b61039f610ac6565b6040516103ac91906128ec565b60405180910390f35b6103bd610acb565b6040516103ca91906127be565b60405180910390f35b6103db610ad1565b6040516103e891906128ec565b60405180910390f35b6103f9610ad6565b60405161040691906127be565b60405180910390f35b610429600480360381019061042491906129e9565b610adb565b005b610433610f11565b60405161044091906127be565b60405180910390f35b610463600480360381019061045e91906127d9565b610f17565b604051610470919061289a565b60405180910390f35b610481610fec565b60405161048e91906127be565b60405180910390f35b6104b160048036038101906104ac9190612a49565b610ff2565b005b6104bb6110ea565b6040516104c891906127be565b60405180910390f35b60008073ffffffffffffffffffffffffffffffffffffffff168573ffffffffffffffffffffffffffffffffffffffff1614610541576040517f08c379a000000000000000000000000000000000000000000000000000000000815260040161053890612af9565b60405180910390fd5b63150b7a0260e01b905095945050505050565b600060019054906101000a900460ff1661057c5760008054906101000a900460ff1615610585565b6105846110f0565b5b6105c4576040517f08c379a00000000000000000000000000000000000000000000000000000000081526004016105bb90612b8b565b60405180910390fd5b60008060019054906101000a900460ff161590508015610614576001600060016101000a81548160ff02191690831515021790555060016000806101000a81548160ff0219169083151502179055505b61061c611101565b610624611162565b83609760006101000a81548173ffffffffffffffffffffffffffffffffffffffff021916908373ffffffffffffffffffffffffffffffffffffffff16021790555082609860006101000a81548173ffffffffffffffffffffffffffffffffffffffff021916908373ffffffffffffffffffffffffffffffffffffffff1602179055506000609d819055506000609e81905550600060a0819055508160a18190555080156106e65760008060016101000a81548160ff0219169083151502179055505b50505050565b6b033b2e3c9fd0803ce800000081565b60996020528060005260406000206000915090508060000154908060010160009054906101000a900473ffffffffffffffffffffffffffffffffffffffff16908060010160149054906101000a900469ffffffffffffffffffff16908060020160009054906101000a900469ffffffffffffffffffff16905084565b61708081565b609c5481565b6000606560009054906101000a900460ff16905090565b60a05481565b609a6020528060005260406000206000915090508060000154908060010160009054906101000a900473ffffffffffffffffffffffffffffffffffffffff16908060010160149054906101000a900469ffffffffffffffffffff16908060020160009054906101000a900469ffffffffffffffffffff16905084565b6108256111c3565b73ffffffffffffffffffffffffffffffffffffffff166108436108ab565b73ffffffffffffffffffffffffffffffffffffffff1614610899576040517f08c379a000000000000000000000000000000000000000000000000000000000815260040161089090612bf7565b60405180910390fd5b6108a360006111cb565b565b609f5481565b6000603360009054906101000a900473ffffffffffffffffffffffffffffffffffffffff16905090565b600281565b683635c9adc5dea0000081565b6108ef610784565b1561092f576040517f08c379a000000000000000000000000000000000000000000000000000000000815260040161092690612c63565b60405180910390fd5b6000805b84849050811015610a145761097285858381811061095457610953612c83565b5b90506020020160208101906109699190612cec565b61ffff16610f17565b156109be576109ac85858381811061098d5761098c612c83565b5b90506020020160208101906109a29190612cec565b61ffff1684611291565b826109b79190612d48565b9150610a01565b6109f38585838181106109d4576109d3612c83565b5b90506020020160208101906109e99190612cec565b61ffff168461189e565b826109fe9190612d48565b91505b8080610a0c90612d9e565b915050610933565b506000811415610a245750610abc565b609860009054906101000a900473ffffffffffffffffffffffffffffffffffffffff1673ffffffffffffffffffffffffffffffffffffffff166340c10f19610a6a6111c3565b836040518363ffffffff1660e01b8152600401610a88929190612de7565b600060405180830381600087803b158015610aa257600080fd5b505af1158015610ab6573d6000803e3d6000fd5b50505050505b505050565b600481565b600881565b609d5481565b600281565b601481565b610ae36111c3565b73ffffffffffffffffffffffffffffffffffffffff168373ffffffffffffffffffffffffffffffffffffffff161480610b705750609760009054906101000a900473ffffffffffffffffffffffffffffffffffffffff1673ffffffffffffffffffffffffffffffffffffffff16610b586111c3565b73ffffffffffffffffffffffffffffffffffffffff16145b610baf576040517f08c379a0000000000000000000000000000000000000000000000000000000008152600401610ba690612e5c565b60405180910390fd5b60005b82829050811015610f0b57609760009054906101000a900473ffffffffffffffffffffffffffffffffffffffff1673ffffffffffffffffffffffffffffffffffffffff16610bfe6111c3565b73ffffffffffffffffffffffffffffffffffffffff1614610e1457610c216111c3565b73ffffffffffffffffffffffffffffffffffffffff16609760009054906101000a900473ffffffffffffffffffffffffffffffffffffffff1673ffffffffffffffffffffffffffffffffffffffff16636352211e858585818110610c8857610c87612c83565b5b9050602002016020810190610c9d9190612cec565b6040518263ffffffff1660e01b8152600401610cb99190612eb7565b602060405180830381865afa158015610cd6573d6000803e3d6000fd5b505050506040513d601f19601f82011682018060405250810190610cfa9190612ee7565b73ffffffffffffffffffffffffffffffffffffffff1614610d50576040517f08c379a0000000000000000000000000000000000000000000000000000000008152600401610d4790612f60565b60405180910390fd5b609760009054906101000a900473ffffffffffffffffffffffffffffffffffffffff1673ffffffffffffffffffffffffffffffffffffffff166323b872dd610d966111c3565b30868686818110610daa57610da9612c83565b5b9050602002016020810190610dbf9190612cec565b6040518463ffffffff1660e01b8152600401610ddd93929190612f80565b600060405180830381600087803b158015610df757600080fd5b505af1158015610e0b573d6000803e3d6000fd5b50505050610e4e565b6000838383818110610e2957610e28612c83565b5b9050602002016020810190610e3e9190612cec565b61ffff161415610e4d57610ef8565b5b610e82838383818110610e6457610e63612c83565b5b9050602002016020810190610e799190612cec565b61ffff16610f17565b15610ec157610ebc84848484818110610e9e57610e9d612c83565b5b9050602002016020810190610eb39190612cec565b61ffff16611cf9565b610ef7565b610ef684848484818110610ed857610ed7612c83565b5b9050602002016020810190610eed9190612cec565b61ffff16611eb8565b5b5b8080610f0390612d9e565b915050610bb2565b50505050565b609e5481565b6000609760009054906101000a900473ffffffffffffffffffffffffffffffffffffffff1673ffffffffffffffffffffffffffffffffffffffff1663e05c57bf836040518263ffffffff1660e01b8152600401610f7491906127be565b61014060405180830381865afa158015610f92573d6000803e3d6000fd5b505050506040513d601f19601f82011682018060405250810190610fb69190612ff8565b90919293949596975090919293949596509091929394955090919293945090919293509091925090915090505080915050919050565b609b5481565b610ffa6111c3565b73ffffffffffffffffffffffffffffffffffffffff166110186108ab565b73ffffffffffffffffffffffffffffffffffffffff161461106e576040517f08c379a000000000000000000000000000000000000000000000000000000000815260040161106590612bf7565b60405180910390fd5b600073ffffffffffffffffffffffffffffffffffffffff168173ffffffffffffffffffffffffffffffffffffffff1614156110de576040517f08c379a00000000000000000000000000000000000000000000000000000000081526004016110d590613149565b60405180910390fd5b6110e7816111cb565b50565b60a15481565b60006110fb3061207b565b15905090565b600060019054906101000a900460ff16611150576040517f08c379a0000000000000000000000000000000000000000000000000000000008152600401611147906131db565b60405180910390fd5b61115861208e565b6111606120df565b565b600060019054906101000a900460ff166111b1576040517f08c379a00000000000000000000000000000000000000000000000000000000081526004016111a8906131db565b60405180910390fd5b6111b961208e565b6111c1612140565b565b600033905090565b6000603360009054906101000a900473ffffffffffffffffffffffffffffffffffffffff16905081603360006101000a81548173ffffffffffffffffffffffffffffffffffffffff021916908373ffffffffffffffffffffffffffffffffffffffff1602179055508173ffffffffffffffffffffffffffffffffffffffff168173ffffffffffffffffffffffffffffffffffffffff167f8be0079c531659141344cd1fd0a4f28419497f9722a3daafe3b4186f6b6457e060405160405180910390a35050565b60008060996000858152602001908152602001600020604051806080016040529081600082015481526020016001820160009054906101000a900473ffffffffffffffffffffffffffffffffffffffff1673ffffffffffffffffffffffffffffffffffffffff1673ffffffffffffffffffffffffffffffffffffffff1681526020016001820160149054906101000a900469ffffffffffffffffffff1669ffffffffffffffffffff1669ffffffffffffffffffff1681526020016002820160009054906101000a900469ffffffffffffffffffff1669ffffffffffffffffffff1669ffffffffffffffffffff1681525050905061138c6111c3565b73ffffffffffffffffffffffffffffffffffffffff16816020015173ffffffffffffffffffffffffffffffffffffffff16146113fd576040517f08c379a00000000000000000000000000000000000000000000000000000000081526004016113f490612f60565b60405180910390fd5b6000609760009054906101000a900473ffffffffffffffffffffffffffffffffffffffff1673ffffffffffffffffffffffffffffffffffffffff1663e05c57bf866040518263ffffffff1660e01b815260040161145a91906127be565b61014060405180830381865afa158015611478573d6000803e3d6000fd5b505050506040513d601f19601f8201168201806040525081019061149c9190612ff8565b509850505050505050505060a154683635c9adc5dea00000836040015169ffffffffffffffffffff16426114d091906131fb565b6114da919061322f565b6114e491906132b8565b9250600060648060af846114f891906132e9565b6115029190613324565b61150c9190613355565b905060648160ff168561151f919061322f565b61152991906132b8565b93506b033b2e3c9fd0803ce800000084609f546115469190612d48565b111561156957609f546b033b2e3c9fd0803ce800000061156691906131fb565b93505b60008411156115db574260a08190555083609f600082825461158b9190612d48565b925050819055506115b360646014866115a4919061322f565b6115ae91906132b8565b6121ac565b6064601460646115c391906131fb565b856115ce919061322f565b6115d891906132b8565b93505b60008060006115e989612214565b925092509250871561172957609760009054906101000a900473ffffffffffffffffffffffffffffffffffffffff1673ffffffffffffffffffffffffffffffffffffffff1663b88d4fde3061163c6111c3565b8c6040518463ffffffff1660e01b815260040161165b939291906133c3565b600060405180830381600087803b15801561167557600080fd5b505af1158015611689573d6000803e3d6000fd5b50505050609960008a81526020019081526020016000206000808201600090556001820160006101000a81549073ffffffffffffffffffffffffffffffffffffffff02191690556001820160146101000a81549069ffffffffffffffffffff02191690556002820160006101000a81549069ffffffffffffffffffff02191690555050609b600081548092919061171f9061340d565b9190505550611851565b60405180608001604052808a61ffff1681526020016117466111c3565b73ffffffffffffffffffffffffffffffffffffffff1681526020014269ffffffffffffffffffff1681526020014269ffffffffffffffffffff16815250609960008b81526020019081526020016000206000820151816000015560208201518160010160006101000a81548173ffffffffffffffffffffffffffffffffffffffff021916908373ffffffffffffffffffffffffffffffffffffffff16021790555060408201518160010160146101000a81548169ffffffffffffffffffff021916908369ffffffffffffffffffff16021790555060608201518160020160006101000a81548169ffffffffffffffffffff021916908369ffffffffffffffffffff1602179055509050505b7fac040b5fbe4491aa9bf072a41d2c8fa810931ea62bb6a7d47d608c6d05424c4289888a86868660405161188a969594939291906134bf565b60405180910390a150505050505092915050565b600080609a6000858152602001908152602001600020604051806080016040529081600082015481526020016001820160009054906101000a900473ffffffffffffffffffffffffffffffffffffffff1673ffffffffffffffffffffffffffffffffffffffff1673ffffffffffffffffffffffffffffffffffffffff1681526020016001820160149054906101000a900469ffffffffffffffffffff1669ffffffffffffffffffff1669ffffffffffffffffffff1681526020016002820160009054906101000a900469ffffffffffffffffffff1669ffffffffffffffffffff1669ffffffffffffffffffff168152505090506119996111c3565b73ffffffffffffffffffffffffffffffffffffffff16816020015173ffffffffffffffffffffffffffffffffffffffff1614611a0a576040517f08c379a0000000000000000000000000000000000000000000000000000000008152600401611a0190612f60565b60405180910390fd5b806040015169ffffffffffffffffffff16609e54611a2891906131fb565b6001611a34919061322f565b91506000806000611a4487612214565b9250925092508515611b8457609760009054906101000a900473ffffffffffffffffffffffffffffffffffffffff1673ffffffffffffffffffffffffffffffffffffffff1663b88d4fde30611a976111c3565b8a6040518463ffffffff1660e01b8152600401611ab6939291906133c3565b600060405180830381600087803b158015611ad057600080fd5b505af1158015611ae4573d6000803e3d6000fd5b50505050609a60008881526020019081526020016000206000808201600090556001820160006101000a81549073ffffffffffffffffffffffffffffffffffffffff02191690556001820160146101000a81549069ffffffffffffffffffff02191690556002820160006101000a81549069ffffffffffffffffffff02191690555050609c6000815480929190611b7a9061340d565b9190505550611cae565b60405180608001604052808861ffff168152602001611ba16111c3565b73ffffffffffffffffffffffffffffffffffffffff168152602001609e5469ffffffffffffffffffff1681526020014269ffffffffffffffffffff16815250609a60008981526020019081526020016000206000820151816000015560208201518160010160006101000a81548173ffffffffffffffffffffffffffffffffffffffff021916908373ffffffffffffffffffffffffffffffffffffffff16021790555060408201518160010160146101000a81548169ffffffffffffffffffff021916908369ffffffffffffffffffff16021790555060608201518160020160006101000a81548169ffffffffffffffffffff021916908369ffffffffffffffffffff1602179055509050505b7f6e949c62565860afb9dd6295e998a1c40005fe9560aedf8d596717681cfc7a1f878688868686604051611ce7969594939291906134bf565b60405180910390a15050505092915050565b611d01610784565b15611d41576040517f08c379a0000000000000000000000000000000000000000000000000000000008152600401611d3890612c63565b60405180910390fd5b60405180608001604052808261ffff1681526020018373ffffffffffffffffffffffffffffffffffffffff1681526020014269ffffffffffffffffffff1681526020014269ffffffffffffffffffff16815250609960008381526020019081526020016000206000820151816000015560208201518160010160006101000a81548173ffffffffffffffffffffffffffffffffffffffff021916908373ffffffffffffffffffffffffffffffffffffffff16021790555060408201518160010160146101000a81548169ffffffffffffffffffff021916908369ffffffffffffffffffff16021790555060608201518160020160006101000a81548169ffffffffffffffffffff021916908369ffffffffffffffffffff160217905550905050609b6000815480929190611e7490612d9e565b91905055507f8af1bb49fb16c7835975aa59449ba4328dd54737dfb2ae9fa6c5eca71fda51f9818342604051611eac93929190613527565b60405180910390a15050565b611ec0610784565b15611f00576040517f08c379a0000000000000000000000000000000000000000000000000000000008152600401611ef790612c63565b60405180910390fd5b60405180608001604052808261ffff1681526020018373ffffffffffffffffffffffffffffffffffffffff168152602001609e5469ffffffffffffffffffff1681526020014269ffffffffffffffffffff16815250609a60008381526020019081526020016000206000820151816000015560208201518160010160006101000a81548173ffffffffffffffffffffffffffffffffffffffff021916908373ffffffffffffffffffffffffffffffffffffffff16021790555060408201518160010160146101000a81548169ffffffffffffffffffff021916908369ffffffffffffffffffff16021790555060608201518160020160006101000a81548169ffffffffffffffffffff021916908369ffffffffffffffffffff160217905550905050609c600081548092919061203590612d9e565b91905055507f8af1bb49fb16c7835975aa59449ba4328dd54737dfb2ae9fa6c5eca71fda51f98183609e5460405161206f93929190613527565b60405180910390a15050565b600080823b905060008111915050919050565b600060019054906101000a900460ff166120dd576040517f08c379a00000000000000000000000000000000000000000000000000000000081526004016120d4906131db565b60405180910390fd5b565b600060019054906101000a900460ff1661212e576040517f08c379a0000000000000000000000000000000000000000000000000000000008152600401612125906131db565b60405180910390fd5b61213e6121396111c3565b6111cb565b565b600060019054906101000a900460ff1661218f576040517f08c379a0000000000000000000000000000000000000000000000000000000008152600401612186906131db565b60405180910390fd5b6000606560006101000a81548160ff021916908315150217905550565b6000609c5414156121d55780609d60008282546121c99190612d48565b92505081905550612211565b609c54609d54826121e69190612d48565b6121f091906132b8565b609e60008282546122019190612d48565b925050819055506000609d819055505b50565b6000806060600060996000868152602001908152602001600020604051806080016040529081600082015481526020016001820160009054906101000a900473ffffffffffffffffffffffffffffffffffffffff1673ffffffffffffffffffffffffffffffffffffffff1673ffffffffffffffffffffffffffffffffffffffff1681526020016001820160149054906101000a900469ffffffffffffffffffff1669ffffffffffffffffffff1669ffffffffffffffffffff1681526020016002820160009054906101000a900469ffffffffffffffffffff1669ffffffffffffffffffff1669ffffffffffffffffffff168152505090506000609a6000878152602001908152602001600020604051806080016040529081600082015481526020016001820160009054906101000a900473ffffffffffffffffffffffffffffffffffffffff1673ffffffffffffffffffffffffffffffffffffffff1673ffffffffffffffffffffffffffffffffffffffff1681526020016001820160149054906101000a900469ffffffffffffffffffff1669ffffffffffffffffffff1669ffffffffffffffffffff1681526020016002820160009054906101000a900469ffffffffffffffffffff1669ffffffffffffffffffff1669ffffffffffffffffffff16815250509050600061240887610f17565b61241657816060015161241c565b82606001515b69ffffffffffffffffffff164261243391906131fb565b9050609760009054906101000a900473ffffffffffffffffffffffffffffffffffffffff1673ffffffffffffffffffffffffffffffffffffffff1663d8ffcfcb88612494846124818c610f17565b61248c57600261248f565b60025b612530565b6124b4856124a18d610f17565b6124ac5760086124af565b60045b612530565b6040518463ffffffff1660e01b81526004016124d29392919061357a565b6000604051808303816000875af11580156124f1573d6000803e3d6000fd5b505050506040513d6000823e3d601f19601f8201168201806040525081019061251a91906136d2565b8096508197508298505050505050509193909250565b60008060a1548360ff1685612545919061322f565b61254f91906132b8565b90506000606482116125615781612564565b60645b9050809250505092915050565b6000604051905090565b600080fd5b600080fd5b600073ffffffffffffffffffffffffffffffffffffffff82169050919050565b60006125b082612585565b9050919050565b6125c0816125a5565b81146125cb57600080fd5b50565b6000813590506125dd816125b7565b92915050565b6000819050919050565b6125f6816125e3565b811461260157600080fd5b50565b600081359050612613816125ed565b92915050565b600080fd5b600080fd5b600080fd5b60008083601f84011261263e5761263d612619565b5b8235905067ffffffffffffffff81111561265b5761265a61261e565b5b60208301915083600182028301111561267757612676612623565b5b9250929050565b60008060008060006080868803121561269a5761269961257b565b5b60006126a8888289016125ce565b95505060206126b9888289016125ce565b94505060406126ca88828901612604565b935050606086013567ffffffffffffffff8111156126eb576126ea612580565b5b6126f788828901612628565b92509250509295509295909350565b60007fffffffff0000000000000000000000000000000000000000000000000000000082169050919050565b61273b81612706565b82525050565b60006020820190506127566000830184612732565b92915050565b6000806000606084860312156127755761277461257b565b5b6000612783868287016125ce565b9350506020612794868287016125ce565b92505060406127a586828701612604565b9150509250925092565b6127b8816125e3565b82525050565b60006020820190506127d360008301846127af565b92915050565b6000602082840312156127ef576127ee61257b565b5b60006127fd84828501612604565b91505092915050565b61280f816125a5565b82525050565b600069ffffffffffffffffffff82169050919050565b61283481612815565b82525050565b600060808201905061284f60008301876127af565b61285c6020830186612806565b612869604083018561282b565b612876606083018461282b565b95945050505050565b60008115159050919050565b6128948161287f565b82525050565b60006020820190506128af600083018461288b565b92915050565b60006020820190506128ca6000830184612806565b92915050565b600060ff82169050919050565b6128e6816128d0565b82525050565b600060208201905061290160008301846128dd565b92915050565b60008083601f84011261291d5761291c612619565b5b8235905067ffffffffffffffff81111561293a5761293961261e565b5b60208301915083602082028301111561295657612955612623565b5b9250929050565b6129668161287f565b811461297157600080fd5b50565b6000813590506129838161295d565b92915050565b6000806000604084860312156129a2576129a161257b565b5b600084013567ffffffffffffffff8111156129c0576129bf612580565b5b6129cc86828701612907565b935093505060206129df86828701612974565b9150509250925092565b600080600060408486031215612a0257612a0161257b565b5b6000612a10868287016125ce565b935050602084013567ffffffffffffffff811115612a3157612a30612580565b5b612a3d86828701612907565b92509250509250925092565b600060208284031215612a5f57612a5e61257b565b5b6000612a6d848285016125ce565b91505092915050565b600082825260208201905092915050565b7f43616e6e6f742073656e6420746f6b656e7320746f204b69746368656e20646960008201527f726563746c790000000000000000000000000000000000000000000000000000602082015250565b6000612ae3602683612a76565b9150612aee82612a87565b604082019050919050565b60006020820190508181036000830152612b1281612ad6565b9050919050565b7f496e697469616c697a61626c653a20636f6e747261637420697320616c72656160008201527f647920696e697469616c697a6564000000000000000000000000000000000000602082015250565b6000612b75602e83612a76565b9150612b8082612b19565b604082019050919050565b60006020820190508181036000830152612ba481612b68565b9050919050565b7f4f776e61626c653a2063616c6c6572206973206e6f7420746865206f776e6572600082015250565b6000612be1602083612a76565b9150612bec82612bab565b602082019050919050565b60006020820190508181036000830152612c1081612bd4565b9050919050565b7f5061757361626c653a2070617573656400000000000000000000000000000000600082015250565b6000612c4d601083612a76565b9150612c5882612c17565b602082019050919050565b60006020820190508181036000830152612c7c81612c40565b9050919050565b7f4e487b7100000000000000000000000000000000000000000000000000000000600052603260045260246000fd5b600061ffff82169050919050565b612cc981612cb2565b8114612cd457600080fd5b50565b600081359050612ce681612cc0565b92915050565b600060208284031215612d0257612d0161257b565b5b6000612d1084828501612cd7565b91505092915050565b7f4e487b7100000000000000000000000000000000000000000000000000000000600052601160045260246000fd5b6000612d53826125e3565b9150612d5e836125e3565b9250827fffffffffffffffffffffffffffffffffffffffffffffffffffffffffffffffff03821115612d9357612d92612d19565b5b828201905092915050565b6000612da9826125e3565b91507fffffffffffffffffffffffffffffffffffffffffffffffffffffffffffffffff821415612ddc57612ddb612d19565b5b600182019050919050565b6000604082019050612dfc6000830185612806565b612e0960208301846127af565b9392505050565b7f446f206e6f74206c6f736520796f757220746f6b656e73000000000000000000600082015250565b6000612e46601783612a76565b9150612e5182612e10565b602082019050919050565b60006020820190508181036000830152612e7581612e39565b9050919050565b6000819050919050565b6000612ea1612e9c612e9784612cb2565b612e7c565b6125e3565b9050919050565b612eb181612e86565b82525050565b6000602082019050612ecc6000830184612ea8565b92915050565b600081519050612ee1816125b7565b92915050565b600060208284031215612efd57612efc61257b565b5b6000612f0b84828501612ed2565b91505092915050565b7f4e6f7420796f757220746f6b656e000000000000000000000000000000000000600082015250565b6000612f4a600e83612a76565b9150612f5582612f14565b602082019050919050565b60006020820190508181036000830152612f7981612f3d565b9050919050565b6000606082019050612f956000830186612806565b612fa26020830185612806565b612faf6040830184612ea8565b949350505050565b600081519050612fc68161295d565b92915050565b612fd5816128d0565b8114612fe057600080fd5b50565b600081519050612ff281612fcc565b92915050565b6000806000806000806000806000806101408b8d03121561301c5761301b61257b565b5b600061302a8d828e01612fb7565b9a5050602061303b8d828e01612fe3565b995050604061304c8d828e01612fe3565b985050606061305d8d828e01612fe3565b975050608061306e8d828e01612fe3565b96505060a061307f8d828e01612fe3565b95505060c06130908d828e01612fe3565b94505060e06130a18d828e01612fe3565b9350506101006130b38d828e01612fe3565b9250506101206130c58d828e01612fe3565b9150509295989b9194979a5092959850565b7f4f776e61626c653a206e6577206f776e657220697320746865207a65726f206160008201527f6464726573730000000000000000000000000000000000000000000000000000602082015250565b6000613133602683612a76565b915061313e826130d7565b604082019050919050565b6000602082019050818103600083015261316281613126565b9050919050565b7f496e697469616c697a61626c653a20636f6e7472616374206973206e6f74206960008201527f6e697469616c697a696e67000000000000000000000000000000000000000000602082015250565b60006131c5602b83612a76565b91506131d082613169565b604082019050919050565b600060208201905081810360008301526131f4816131b8565b9050919050565b6000613206826125e3565b9150613211836125e3565b92508282101561322457613223612d19565b5b828203905092915050565b600061323a826125e3565b9150613245836125e3565b9250817fffffffffffffffffffffffffffffffffffffffffffffffffffffffffffffffff048311821515161561327e5761327d612d19565b5b828202905092915050565b7f4e487b7100000000000000000000000000000000000000000000000000000000600052601260045260246000fd5b60006132c3826125e3565b91506132ce836125e3565b9250826132de576132dd613289565b5b828204905092915050565b60006132f4826128d0565b91506132ff836128d0565b92508160ff048311821515161561331957613318612d19565b5b828202905092915050565b600061332f826128d0565b915061333a836128d0565b92508261334a57613349613289565b5b828204905092915050565b6000613360826128d0565b915061336b836128d0565b92508260ff0382111561338157613380612d19565b5b828201905092915050565b600082825260208201905092915050565b50565b60006133ad60008361338c565b91506133b88261339d565b600082019050919050565b60006080820190506133d86000830186612806565b6133e56020830185612806565b6133f260408301846127af565b8181036060830152613403816133a0565b9050949350505050565b6000613418826125e3565b9150600082141561342c5761342b612d19565b5b600182039050919050565b600081519050919050565b60005b83811015613460578082015181840152602081019050613445565b8381111561346f576000848401525b50505050565b6000601f19601f8301169050919050565b600061349182613437565b61349b8185612a76565b93506134ab818560208601613442565b6134b481613475565b840191505092915050565b600060c0820190506134d460008301896127af565b6134e160208301886127af565b6134ee604083018761288b565b6134fb60608301866128dd565b61350860808301856128dd565b81810360a083015261351a8184613486565b9050979650505050505050565b600060608201905061353c60008301866127af565b6135496020830185612806565b61355660408301846127af565b949350505050565b60008160000b9050919050565b6135748161355e565b82525050565b600060608201905061358f60008301866127af565b61359c602083018561356b565b6135a9604083018461356b565b949350505050565b600080fd5b7f4e487b7100000000000000000000000000000000000000000000000000000000600052604160045260246000fd5b6135ee82613475565b810181811067ffffffffffffffff8211171561360d5761360c6135b6565b5b80604052505050565b6000613620612571565b905061362c82826135e5565b919050565b600067ffffffffffffffff82111561364c5761364b6135b6565b5b61365582613475565b9050602081019050919050565b600061367561367084613631565b613616565b905082815260208101848484011115613691576136906135b1565b5b61369c848285613442565b509392505050565b600082601f8301126136b9576136b8612619565b5b81516136c9848260208601613662565b91505092915050565b6000806000606084860312156136eb576136ea61257b565b5b60006136f986828701612fe3565b935050602061370a86828701612fe3565b925050604084015167ffffffffffffffff81111561372b5761372a612580565b5b613737868287016136a4565b915050925092509256fea2646970667358221220bab3ebed5ca076cf517f035dbbd3672a7b43f3e0e7fb22985f91260e69bd4be864736f6c634300080a0033",
  "immutableReferences": {},
  "source": "// SPDX-License-Identifier: MIT\n\npragma solidity ^0.8.0;\n\nimport \"@openzeppelin/contracts-upgradeable/proxy/utils/Initializable.sol\";\nimport \"@openzeppelin/contracts-upgradeable/access/OwnableUpgradeable.sol\";\nimport \"@openzeppelin/contracts-upgradeable/security/PausableUpgradeable.sol\";\nimport \"@openzeppelin/contracts-upgradeable/token/ERC721/IERC721ReceiverUpgradeable.sol\";\nimport \"./IKitchenPack.sol\";\nimport \"./IChefRat.sol\";\nimport \"./ChefRat.sol\";\nimport \"./FastFood.sol\";\n\ncontract KitchenPack is IKitchenPack, Initializable, OwnableUpgradeable, PausableUpgradeable, IERC721ReceiverUpgradeable {\n  struct Stake { // Store for a stake's token, owner, and earning values\n    uint256 tokenId;\n    address owner;\n    uint80 value;\n    uint80 timestamp;\n  }\n\n  event TokenStaked(uint256 tokenId, address owner, uint256 value);\n  event ChefClaimed(uint256 tokenId, uint256 earned, bool unstaked, uint8 skill, uint8 insanity, string eventName);\n  event RatClaimed(uint256 tokenId, uint256 earned, bool unstaked, uint8 intelligence, uint8 fatness, string eventName);\n\n  ChefRat chefRat; // Reference to the ChefRat NFT contract\n  FastFood fastFood; // Reference to the $FFOOD contract\n\n  mapping(uint256 => Stake) public kitchen; // Maps tokenId to stake\n  mapping(uint256 => Stake) public pack; // Maps tokenId to stake\n\n  uint256 public constant FFOOD_CLAIM_TAX_PERCENTAGE = 20; // Rats steal x% of all $FFOOD claimed\n  uint256 public constant MINIMUM_TO_EXIT = 8 hours; // Cannot unstake before EOB\n  uint256 public constant FFOOD_MAX_SUPPLY = 1000000000 ether; // There will only ever be x $FFOOD earned through staking\n  uint256 public constant DAILY_FFOOD_RATE = 1000 ether; // Chefs earn x $FFOOD per day\n  uint8 public constant DAILY_SKILL_RATE = 2;\n  uint8 public constant DAILY_INSANITY_RATE = 4;\n  uint8 public constant DAILY_INTELLIGENCE_RATE = 2;\n  uint8 public constant DAILY_FATNESS_RATE = 8;\n\n  uint256 public totalChefsStaked; // Number of Chefs staked in the Kitchen\n  uint256 public totalRatsStaked; // Number of Rats staked in the Pack\n  uint256 public unaccountedRewards; // any rewards distributed when no wolves are staked\n  uint256 public fastFoodPerRat; // amount of $WOOL due for each alpha point staked\n  uint256 public totalFastFoodEarned; // Amount of $FFOOD earned so far\n  uint256 public lastClaimTimestamp; // The last time $FFOOD was claimed\n  uint256 public accrualPeriod; // The period over which $FFOOD & levels are accrued\n\n  function initialize(address _chefRat, address _fastFood, uint256 _accrualPeriod) external initializer {\n    __Ownable_init();\n    __Pausable_init();\n\n    chefRat = ChefRat(_chefRat);\n    fastFood = FastFood(_fastFood);\n    unaccountedRewards = 0;\n    fastFoodPerRat = 0;\n    lastClaimTimestamp = 0;\n    accrualPeriod = _accrualPeriod;\n  }\n\n  /**\n   * Adds Chefs to Kitchen & Rats to Pack\n   * @param account - The address of the staker\n   * @param tokenIds - The IDs of the Chefs & Rats to stake\n   */\n  function stakeMany(address account, uint16[] calldata tokenIds) external {\n    require(account == _msgSender() || _msgSender() == address(chefRat), \"Do not lose your tokens\");\n    for (uint i = 0; i < tokenIds.length; i++) {\n      if (_msgSender() != address(chefRat)) { // Not necessary if it's a mint & stake\n        require(chefRat.ownerOf(tokenIds[i]) == _msgSender(), \"Not your token\");\n        chefRat.transferFrom(_msgSender(), address(this), tokenIds[i]);\n      } else if (tokenIds[i] == 0) {\n        continue; // There may be gaps in the array for stolen tokens\n      }\n\n      if (isChef(tokenIds[i])) {\n        _stakeChefToKitchen(account, tokenIds[i]);\n      } else {\n        _stakeRatToPack(account, tokenIds[i]);\n      }\n    }\n  }\n\n  /**\n   * Adds a single Chef to the Kitchen\n   * @param account - The address of the staker\n   * @param tokenId - The ID of the Chef to add to the Kitchen\n   */\n  function _stakeChefToKitchen(address account, uint256 tokenId) internal whenNotPaused {\n    kitchen[tokenId] = Stake({\n      tokenId: uint16(tokenId),\n      owner: account,\n      value: uint80(block.timestamp),\n      timestamp: uint80(block.timestamp)\n    });\n    totalChefsStaked ++;\n    emit TokenStaked(tokenId, account, block.timestamp);\n  }\n\n  /**\n   * Adds a single Rat to the Pack\n   * @param account - The address of the staker\n   * @param tokenId - The ID of the Rat to add to the Pack\n   */\n  function _stakeRatToPack(address account, uint256 tokenId) internal whenNotPaused {\n    pack[tokenId] = Stake({\n      tokenId: uint16(tokenId),\n      owner: account,\n      value: uint80(fastFoodPerRat),\n      timestamp: uint80(block.timestamp)\n    });\n    totalRatsStaked ++;\n    emit TokenStaked(tokenId, account, fastFoodPerRat);\n  }\n\n  /**\n   * Claim $FFOOD earnings and optionally unstake tokens from the Kitchen / Pack\n   * @param tokenIds - The IDs of the tokens to claim earnings from\n   * @param unstake - Whether or not to unstake ALL of the tokens listed in tokenIds\n   */\n  function claimMany(uint16[] calldata tokenIds, bool unstake) external whenNotPaused {\n    uint256 owed = 0;\n    for (uint i = 0; i < tokenIds.length; i++) {\n      if (isChef(tokenIds[i]))\n        owed += _claimChefFromKitchen(tokenIds[i], unstake);\n      else\n        owed += _claimRatFromPack(tokenIds[i], unstake);\n    }\n    if (owed == 0) return;\n    fastFood.mint(_msgSender(), owed);\n  }\n\n  /**\n   * Claim $FFOOD earnings for a single Chef and optionally unstake him\n   * If not unstaking, pay a 20% tax to the staked Rats\n   * If unstaking, there's a 50% chance all $FFOOD is stolen\n   * @param tokenId - The ID of the Chef to claim earnings from\n   * @param unstake - Whether or not to unstake the Chef\n   * @return owed - The amount of $FFOOD earned\n   */\n  function _claimChefFromKitchen(uint256 tokenId, bool unstake) internal returns (uint256 owed) {\n    Stake memory stake = kitchen[tokenId];\n    require(stake.owner == _msgSender(), \"Not your token\");\n//    require(!(unstake && block.timestamp - stake.value < MINIMUM_TO_EXIT), \"Cannot leave before EOB\");\n\n    (, , , , , , , , uint8 efficiency,) = chefRat.tokenTraits(tokenId);\n    owed = (block.timestamp - stake.value) * DAILY_FFOOD_RATE / accrualPeriod;\n    uint8 factor = (efficiency * 175 / 100) + 100;\n    owed = owed * factor / 100;\n    if (totalFastFoodEarned + owed > FFOOD_MAX_SUPPLY) {\n      owed = FFOOD_MAX_SUPPLY - totalFastFoodEarned;\n    }\n\n    if (owed > 0) {\n      lastClaimTimestamp = block.timestamp;\n      totalFastFoodEarned += owed;\n      _carelesslyLeaveToRats(owed * FFOOD_CLAIM_TAX_PERCENTAGE / 100); // percentage tax to staked wolves\n      owed = owed * (100 - FFOOD_CLAIM_TAX_PERCENTAGE) / 100; // Remainder goes to Chef owner\n    }\n\n    (uint8 newEfficiency, uint8 newTolerance, string memory eventName) = updateCharacter(tokenId);\n\n    if (unstake) {\n      chefRat.safeTransferFrom(address(this), _msgSender(), tokenId, \"\"); // Send Chef back to owner\n      delete kitchen[tokenId];\n      totalChefsStaked --;\n    } else {\n      kitchen[tokenId] = Stake({ // Reset stake\n        tokenId: uint16(tokenId),\n        owner: _msgSender(),\n        value: uint80(block.timestamp),\n        timestamp: uint80(block.timestamp)\n      });\n    }\n    emit ChefClaimed(tokenId, owed, unstake, newEfficiency, newTolerance, eventName);\n  }\n\n  function updateCharacter(uint256 tokenId) internal returns(uint8 efficiency, uint8 tolerance, string memory eventName) {\n    Stake memory k = kitchen[tokenId];\n    Stake memory p = pack[tokenId];\n    uint256 diff = block.timestamp - (isChef(tokenId) ? k.timestamp : p.timestamp);\n\n    (efficiency, tolerance, eventName) = chefRat.updateCharacter(\n      tokenId,\n      getCharacterIncrement(diff, isChef(tokenId) ? DAILY_SKILL_RATE : DAILY_INTELLIGENCE_RATE),\n      getCharacterIncrement(diff, isChef(tokenId) ? DAILY_INSANITY_RATE : DAILY_FATNESS_RATE)\n    );\n  }\n\n  function getCharacterIncrement(uint256 diff, uint8 factor) internal view returns(int8) {\n    uint256 owed = diff * factor / accrualPeriod;\n    uint8 increment = owed > 100 ? 100 : uint8(owed);\n    return int8(increment);\n  }\n\n  /**\n   * Claim $FFOOD earnings for a single Rat and optionally unstake it\n   * Rats steal $FFOOD proportional to their efficiency level\n   * @param tokenId - The ID of the Rat to claim earnings from\n   * @param unstake - Whether or not to unstake the Rat\n   * @return owed - The amount of $FFOOD earned\n   */\n  function _claimRatFromPack(uint256 tokenId, bool unstake) internal returns (uint256 owed) {\n    Stake memory stake = pack[tokenId];\n    require(stake.owner == _msgSender(), \"Not your token\");\n//    require(!(unstake && block.timestamp - stake.value < MINIMUM_TO_EXIT), \"Cannot leave your pack starving so early\");\n\n    owed = (1) * (fastFoodPerRat - stake.value); // Calculate individual share\n    (uint8 efficiency, uint8 tolerance, string memory eventName) = updateCharacter(tokenId);\n\n    if (unstake) {\n      chefRat.safeTransferFrom(address(this), _msgSender(), tokenId, \"\"); // Send Rat back to owner\n      delete pack[tokenId];\n      totalRatsStaked --;\n    } else {\n      pack[tokenId] = Stake({ // Reset stake\n        tokenId: uint16(tokenId),\n        owner: _msgSender(),\n        value: uint80(fastFoodPerRat),\n        timestamp: uint80(block.timestamp)\n      });\n    }\n    emit RatClaimed(tokenId, owed, unstake, efficiency, tolerance, eventName);\n  }\n\n  /**\n   * Checks if the token is a Chef\n   * @param tokenId - The ID of the token to check\n   * @return chef - Whether or not the token is a Chef\n   */\n  function isChef(uint256 tokenId) public view returns (bool chef) {\n    (chef, , , , , , , , ,) = chefRat.tokenTraits(tokenId);\n  }\n\n  /**\n   * Add $FFOOD to claimable pot for the Pack\n   * @param amount - $FFOOD to add to the pot\n   */\n  function _carelesslyLeaveToRats(uint256 amount) internal {\n    if (totalRatsStaked == 0) { // if there's no staked wolves\n      unaccountedRewards += amount; // keep track of $WOOL due to wolves\n      return;\n    }\n    // makes sure to include any unaccounted $FFOOD\n    fastFoodPerRat += (amount + unaccountedRewards) / totalRatsStaked;\n    unaccountedRewards = 0;\n  }\n\n  function onERC721Received(address, address from, uint256, bytes calldata) external pure override returns (bytes4) {\n    require(from == address(0x0), \"Cannot send tokens to Kitchen directly\");\n    return IERC721ReceiverUpgradeable.onERC721Received.selector;\n  }\n\n  /**\n   * Generates a pseudorandom number\n   * @param seed - A value to ensure different outcomes for different sources in the same block\n   * @return A pseudorandom value\n   */\n  function random(uint256 seed) internal view returns (uint256) {\n    return uint256(keccak256(abi.encodePacked(\n      tx.origin,\n      blockhash(block.number - 1),\n      block.timestamp,\n      seed\n    )));\n  }\n}\n",
  "sourcePath": "/Users/chris/workspace/ratalert/ratalert-contracts/contracts/KitchenPack.sol",
  "compiler": {
    "name": "solc",
    "version": "0.8.10+commit.fc410830.Emscripten.clang"
  },
  "schemaVersion": "3.4.4",
  "updatedAt": "2022-02-03T11:02:01.262Z",
  "devdoc": {
    "kind": "dev",
    "methods": {
      "claimMany(uint16[],bool)": {
        "params": {
          "tokenIds": "- The IDs of the tokens to claim earnings from",
          "unstake": "- Whether or not to unstake ALL of the tokens listed in tokenIds"
        }
      },
      "isChef(uint256)": {
        "params": {
          "tokenId": "- The ID of the token to check"
        },
        "returns": {
          "chef": "- Whether or not the token is a Chef"
        }
      },
      "owner()": {
        "details": "Returns the address of the current owner."
      },
      "paused()": {
        "details": "Returns true if the contract is paused, and false otherwise."
      },
      "renounceOwnership()": {
        "details": "Leaves the contract without owner. It will not be possible to call `onlyOwner` functions anymore. Can only be called by the current owner. NOTE: Renouncing ownership will leave the contract without an owner, thereby removing any functionality that is only available to the owner."
      },
      "stakeMany(address,uint16[])": {
        "params": {
          "account": "- The address of the staker",
          "tokenIds": "- The IDs of the Chefs & Rats to stake"
        }
      },
      "transferOwnership(address)": {
        "details": "Transfers ownership of the contract to a new account (`newOwner`). Can only be called by the current owner."
      }
    },
    "version": 1
  },
  "userdoc": {
    "kind": "user",
    "methods": {
      "claimMany(uint16[],bool)": {
        "notice": "Claim $FFOOD earnings and optionally unstake tokens from the Kitchen / Pack"
      },
      "isChef(uint256)": {
        "notice": "Checks if the token is a Chef"
      },
      "stakeMany(address,uint16[])": {
        "notice": "Adds Chefs to Kitchen & Rats to Pack"
      }
    },
    "version": 1
  }
}