{
  "contractName": "LeStake",
  "abi": [
    {
      "anonymous": false,
      "inputs": [
        {
          "indexed": false,
          "internalType": "uint256",
          "name": "tokenId",
          "type": "uint256"
        },
        {
          "indexed": false,
          "internalType": "uint256",
          "name": "earned",
          "type": "uint256"
        },
        {
          "indexed": false,
          "internalType": "bool",
          "name": "unstaked",
          "type": "bool"
        },
        {
          "indexed": false,
          "internalType": "uint8",
          "name": "skill",
          "type": "uint8"
        },
        {
          "indexed": false,
          "internalType": "uint8",
          "name": "freak",
          "type": "uint8"
        },
        {
          "indexed": false,
          "internalType": "string",
          "name": "eventName",
          "type": "string"
        },
        {
          "indexed": false,
          "internalType": "uint256",
          "name": "foodTokensPerRat",
          "type": "uint256"
        }
      ],
      "name": "ChefClaimed",
      "type": "event"
    },
    {
      "anonymous": false,
      "inputs": [
        {
          "indexed": true,
          "internalType": "address",
          "name": "previousOwner",
          "type": "address"
        },
        {
          "indexed": true,
          "internalType": "address",
          "name": "newOwner",
          "type": "address"
        }
      ],
      "name": "OwnershipTransferred",
      "type": "event"
    },
    {
      "anonymous": false,
      "inputs": [
        {
          "indexed": false,
          "internalType": "address",
          "name": "account",
          "type": "address"
        }
      ],
      "name": "Paused",
      "type": "event"
    },
    {
      "anonymous": false,
      "inputs": [
        {
          "indexed": false,
          "internalType": "uint256",
          "name": "tokenId",
          "type": "uint256"
        },
        {
          "indexed": false,
          "internalType": "uint256",
          "name": "earned",
          "type": "uint256"
        },
        {
          "indexed": false,
          "internalType": "bool",
          "name": "unstaked",
          "type": "bool"
        },
        {
          "indexed": false,
          "internalType": "uint8",
          "name": "intelligence",
          "type": "uint8"
        },
        {
          "indexed": false,
          "internalType": "uint8",
          "name": "bodyMass",
          "type": "uint8"
        },
        {
          "indexed": false,
          "internalType": "string",
          "name": "eventName",
          "type": "string"
        },
        {
          "indexed": false,
          "internalType": "uint256",
          "name": "foodTokensPerRat",
          "type": "uint256"
        }
      ],
      "name": "RatClaimed",
      "type": "event"
    },
    {
      "anonymous": false,
      "inputs": [
        {
          "indexed": false,
          "internalType": "uint256",
          "name": "tokenId",
          "type": "uint256"
        },
        {
          "indexed": false,
          "internalType": "address",
          "name": "owner",
          "type": "address"
        },
        {
          "indexed": false,
          "internalType": "uint256",
          "name": "value",
          "type": "uint256"
        }
      ],
      "name": "TokenStaked",
      "type": "event"
    },
    {
      "anonymous": false,
      "inputs": [
        {
          "indexed": false,
          "internalType": "address",
          "name": "account",
          "type": "address"
        }
      ],
      "name": "Unpaused",
      "type": "event"
    },
    {
      "inputs": [
        {
          "internalType": "uint256",
          "name": "",
          "type": "uint256"
        }
      ],
      "name": "chefs",
      "outputs": [
        {
          "internalType": "uint256",
          "name": "tokenId",
          "type": "uint256"
        },
        {
          "internalType": "address",
          "name": "owner",
          "type": "address"
        },
        {
          "internalType": "uint80",
          "name": "value",
          "type": "uint80"
        },
        {
          "internalType": "uint80",
          "name": "timestamp",
          "type": "uint80"
        }
      ],
      "stateMutability": "view",
      "type": "function",
      "constant": true
    },
    {
      "inputs": [
        {
          "internalType": "uint16[]",
          "name": "tokenIds",
          "type": "uint16[]"
        },
        {
          "internalType": "bool",
          "name": "unstake",
          "type": "bool"
        }
      ],
      "name": "claimMany",
      "outputs": [],
      "stateMutability": "payable",
      "type": "function",
      "payable": true
    },
    {
      "inputs": [],
      "name": "foodTokensPerRat",
      "outputs": [
        {
          "internalType": "uint256",
          "name": "",
          "type": "uint256"
        }
      ],
      "stateMutability": "view",
      "type": "function",
      "constant": true
    },
    {
      "inputs": [
        {
          "components": [
            {
              "internalType": "bytes32",
              "name": "requestId",
              "type": "bytes32"
            },
            {
              "internalType": "address",
              "name": "venue",
              "type": "address"
            },
            {
              "internalType": "address",
              "name": "sender",
              "type": "address"
            },
            {
              "internalType": "uint16[]",
              "name": "tokenIds",
              "type": "uint16[]"
            },
            {
              "internalType": "bool",
              "name": "unstake",
              "type": "bool"
            }
          ],
          "internalType": "struct IClaim.VRFStruct",
          "name": "v",
          "type": "tuple"
        },
        {
          "internalType": "uint256",
          "name": "randomness",
          "type": "uint256"
        }
      ],
      "name": "fulfillClaimMany",
      "outputs": [],
      "stateMutability": "nonpayable",
      "type": "function"
    },
    {
      "inputs": [
        {
          "internalType": "address",
          "name": "account",
          "type": "address"
        }
      ],
      "name": "getChefsStaked",
      "outputs": [
        {
          "internalType": "uint256",
          "name": "",
          "type": "uint256"
        }
      ],
      "stateMutability": "view",
      "type": "function",
      "constant": true
    },
    {
      "inputs": [],
      "name": "lastClaimTimestamp",
      "outputs": [
        {
          "internalType": "uint256",
          "name": "",
          "type": "uint256"
        }
      ],
      "stateMutability": "view",
      "type": "function",
      "constant": true
    },
    {
      "inputs": [
        {
          "internalType": "address",
          "name": "",
          "type": "address"
        },
        {
          "internalType": "address",
          "name": "from",
          "type": "address"
        },
        {
          "internalType": "uint256",
          "name": "",
          "type": "uint256"
        },
        {
          "internalType": "bytes",
          "name": "",
          "type": "bytes"
        }
      ],
      "name": "onERC721Received",
      "outputs": [
        {
          "internalType": "bytes4",
          "name": "",
          "type": "bytes4"
        }
      ],
      "stateMutability": "pure",
      "type": "function",
      "constant": true
    },
    {
      "inputs": [],
      "name": "owner",
      "outputs": [
        {
          "internalType": "address",
          "name": "",
          "type": "address"
        }
      ],
      "stateMutability": "view",
      "type": "function",
      "constant": true
    },
    {
      "inputs": [],
      "name": "pause",
      "outputs": [],
      "stateMutability": "nonpayable",
      "type": "function"
    },
    {
      "inputs": [],
      "name": "paused",
      "outputs": [
        {
          "internalType": "bool",
          "name": "",
          "type": "bool"
        }
      ],
      "stateMutability": "view",
      "type": "function",
      "constant": true
    },
    {
      "inputs": [
        {
          "internalType": "uint256",
          "name": "",
          "type": "uint256"
        }
      ],
      "name": "rats",
      "outputs": [
        {
          "internalType": "uint256",
          "name": "tokenId",
          "type": "uint256"
        },
        {
          "internalType": "address",
          "name": "owner",
          "type": "address"
        },
        {
          "internalType": "uint80",
          "name": "value",
          "type": "uint80"
        },
        {
          "internalType": "uint80",
          "name": "timestamp",
          "type": "uint80"
        }
      ],
      "stateMutability": "view",
      "type": "function",
      "constant": true
    },
    {
      "inputs": [],
      "name": "renounceOwnership",
      "outputs": [],
      "stateMutability": "nonpayable",
      "type": "function"
    },
    {
      "inputs": [
        {
          "internalType": "address",
          "name": "_dao",
          "type": "address"
        }
      ],
      "name": "setDao",
      "outputs": [],
      "stateMutability": "nonpayable",
      "type": "function"
    },
    {
      "inputs": [
        {
          "internalType": "address",
          "name": "account",
          "type": "address"
        },
        {
          "internalType": "uint16[]",
          "name": "tokenIds",
          "type": "uint16[]"
        }
      ],
      "name": "stakeMany",
      "outputs": [],
      "stateMutability": "nonpayable",
      "type": "function"
    },
    {
      "inputs": [
        {
          "internalType": "address",
          "name": "",
          "type": "address"
        },
        {
          "internalType": "uint256",
          "name": "",
          "type": "uint256"
        }
      ],
      "name": "stakers",
      "outputs": [
        {
          "internalType": "uint256",
          "name": "",
          "type": "uint256"
        }
      ],
      "stateMutability": "view",
      "type": "function",
      "constant": true
    },
    {
      "inputs": [],
      "name": "totalChefsStaked",
      "outputs": [
        {
          "internalType": "uint256",
          "name": "",
          "type": "uint256"
        }
      ],
      "stateMutability": "view",
      "type": "function",
      "constant": true
    },
    {
      "inputs": [],
      "name": "totalFoodTokensEarned",
      "outputs": [
        {
          "internalType": "uint256",
          "name": "",
          "type": "uint256"
        }
      ],
      "stateMutability": "view",
      "type": "function",
      "constant": true
    },
    {
      "inputs": [],
      "name": "totalRatsStaked",
      "outputs": [
        {
          "internalType": "uint256",
          "name": "",
          "type": "uint256"
        }
      ],
      "stateMutability": "view",
      "type": "function",
      "constant": true
    },
    {
      "inputs": [
        {
          "internalType": "address",
          "name": "newOwner",
          "type": "address"
        }
      ],
      "name": "transferOwnership",
      "outputs": [],
      "stateMutability": "nonpayable",
      "type": "function"
    },
    {
      "inputs": [],
      "name": "unaccountedRewards",
      "outputs": [
        {
          "internalType": "uint256",
          "name": "",
          "type": "uint256"
        }
      ],
      "stateMutability": "view",
      "type": "function",
      "constant": true
    },
    {
      "inputs": [],
      "name": "unpause",
      "outputs": [],
      "stateMutability": "nonpayable",
      "type": "function"
    },
    {
      "inputs": [],
      "name": "withdrawPayments",
      "outputs": [],
      "stateMutability": "nonpayable",
      "type": "function"
    },
    {
      "inputs": [
        {
          "internalType": "address",
          "name": "_character",
          "type": "address"
        },
        {
          "internalType": "address",
          "name": "_claim",
          "type": "address"
        },
        {
          "internalType": "uint256",
          "name": "_accrualPeriod",
          "type": "uint256"
        }
      ],
      "name": "initialize",
      "outputs": [],
      "stateMutability": "nonpayable",
      "type": "function"
    },
    {
      "inputs": [],
      "name": "initialize",
      "outputs": [],
      "stateMutability": "nonpayable",
      "type": "function"
    },
    {
      "inputs": [
        {
          "internalType": "address",
          "name": "_character",
          "type": "address"
        },
        {
          "internalType": "address",
          "name": "_claim",
          "type": "address"
        },
        {
          "internalType": "address",
          "name": "_foodToken",
          "type": "address"
        },
        {
          "internalType": "address",
          "name": "_kitchenUsage",
          "type": "address"
        }
      ],
      "name": "initialize",
      "outputs": [],
      "stateMutability": "nonpayable",
      "type": "function"
    },
    {
      "inputs": [
        {
          "internalType": "uint256",
          "name": "_foodTokenMaxSupply",
          "type": "uint256"
        },
        {
          "internalType": "uint256[]",
          "name": "_earningSettings",
          "type": "uint256[]"
        },
        {
          "internalType": "int8[]",
          "name": "_propertyIncrements",
          "type": "int8[]"
        },
        {
          "internalType": "uint8",
          "name": "_minEfficiency",
          "type": "uint8"
        },
        {
          "internalType": "uint8",
          "name": "_chefEfficiencyMultiplier",
          "type": "uint8"
        },
        {
          "internalType": "int256",
          "name": "_ratEfficiencyMultiplier",
          "type": "int256"
        },
        {
          "internalType": "int256",
          "name": "_ratEfficiencyOffset",
          "type": "int256"
        },
        {
          "internalType": "uint8",
          "name": "_maxClaimsPerTx",
          "type": "uint8"
        },
        {
          "internalType": "uint256",
          "name": "_claimFee",
          "type": "uint256"
        }
      ],
      "name": "configure",
      "outputs": [],
      "stateMutability": "nonpayable",
      "type": "function"
    }
  ],
  "bytecode": "0x608060405234801561001057600080fd5b50615fa580620000216000396000f3fe6080604052600436106101815760003560e01c8063715018a6116100d1578063c0c472c01161008a578063dbdc1f6b11610064578063dbdc1f6b1461051d578063f266674614610546578063f2fde38b14610571578063f8c8765e1461059a57610181565b8063c0c472c01461048a578063c8b6cbf7146104b5578063d8dda92e146104f257610181565b8063715018a6146103d55780638129fc1c146103ec5780638456cb59146104035780638da5cb5b1461041a578063922a180214610445578063a7a102901461046e57610181565b8063499f80101161013e5780635c975abb116101185780635c975abb1461033f578063607af3971461036a5780636103d70b146103955780636637b882146103ac57610181565b8063499f8010146102975780634c4913ec146102c25780634d1c61af146102ff57610181565b8063119096bc14610186578063150b7a02146101af5780631794bb3c146101ec5780632535a77f1461021557806335ec066e146102405780633f4ba83a14610280575b600080fd5b34801561019257600080fd5b506101ad60048036038101906101a891906142db565b6105c3565b005b3480156101bb57600080fd5b506101d660048036038101906101d19190614496565b610849565b6040516101e39190614559565b60405180910390f35b3480156101f857600080fd5b50610213600480360381019061020e9190614574565b6108cc565b005b34801561022157600080fd5b5061022a610ac8565b60405161023791906145d6565b60405180910390f35b34801561024c57600080fd5b50610267600480360381019061026291906145f1565b610ace565b6040516102779493929190614652565b60405180910390f35b34801561028c57600080fd5b50610295610b4a565b005b3480156102a357600080fd5b506102ac610b5c565b6040516102b991906145d6565b60405180910390f35b3480156102ce57600080fd5b506102e960048036038101906102e49190614697565b610b62565b6040516102f691906145d6565b60405180910390f35b34801561030b57600080fd5b50610326600480360381019061032191906145f1565b610bae565b6040516103369493929190614652565b60405180910390f35b34801561034b57600080fd5b50610354610c2a565b60405161036191906146df565b60405180910390f35b34801561037657600080fd5b5061037f610c41565b60405161038c91906145d6565b60405180910390f35b3480156103a157600080fd5b506103aa610c47565b005b3480156103b857600080fd5b506103d360048036038101906103ce9190614697565b610cba565b005b3480156103e157600080fd5b506103ea610d7a565b005b3480156103f857600080fd5b50610401610e02565b005b34801561040f57600080fd5b50610418610ef6565b005b34801561042657600080fd5b5061042f610f08565b60405161043c91906146fa565b60405180910390f35b34801561045157600080fd5b5061046c60048036038101906104679190614926565b610f32565b005b610488600480360381019061048391906149d8565b611519565b005b34801561049657600080fd5b5061049f6119df565b6040516104ac91906145d6565b60405180910390f35b3480156104c157600080fd5b506104dc60048036038101906104d79190614a38565b6119e5565b6040516104e991906145d6565b60405180910390f35b3480156104fe57600080fd5b50610507611a16565b60405161051491906145d6565b60405180910390f35b34801561052957600080fd5b50610544600480360381019061053f9190614a78565b611a1c565b005b34801561055257600080fd5b5061055b61209b565b60405161056891906145d6565b60405180910390f35b34801561057d57600080fd5b5061059860048036038101906105939190614697565b6120a1565b005b3480156105a657600080fd5b506105c160048036038101906105bc9190614ad8565b612199565b005b6105cb6123c9565b73ffffffffffffffffffffffffffffffffffffffff166105e9610f08565b73ffffffffffffffffffffffffffffffffffffffff161461063f576040517f08c379a000000000000000000000000000000000000000000000000000000000815260040161063690614b9c565b60405180910390fd5b670de0b6b3a7640000896106539190614beb565b60a681905550670de0b6b3a76400008860008151811061067657610675614c45565b5b60200260200101516106889190614beb565b60a781905550876001815181106106a2576106a1614c45565b5b602002602001015160a881905550876002815181106106c4576106c3614c45565b5b602002602001015160a181905550876003815181106106e6576106e5614c45565b5b602002602001015160a2819055508660008151811061070857610707614c45565b5b6020026020010151609e60006101000a81548160ff021916908360000b60ff1602179055508660018151811061074157610740614c45565b5b6020026020010151609e60016101000a81548160ff021916908360000b60ff1602179055508660028151811061077a57610779614c45565b5b6020026020010151609e60026101000a81548160ff021916908360000b60ff160217905550866003815181106107b3576107b2614c45565b5b6020026020010151609e60036101000a81548160ff021916908360000b60ff1602179055508560af60156101000a81548160ff021916908360ff1602179055508460ac60006101000a81548160ff021916908360ff1602179055508360ad819055508260ae819055508160a460006101000a81548160ff021916908360ff1602179055508060a581905550505050505050505050565b60008073ffffffffffffffffffffffffffffffffffffffff168573ffffffffffffffffffffffffffffffffffffffff16146108b9576040517f08c379a00000000000000000000000000000000000000000000000000000000081526004016108b090614ce6565b60405180910390fd5b63150b7a0260e01b905095945050505050565b600060019054906101000a900460ff166108f45760008054906101000a900460ff16156108fd565b6108fc6123d1565b5b61093c576040517f08c379a000000000000000000000000000000000000000000000000000000000815260040161093390614d78565b60405180910390fd5b60008060019054906101000a900460ff16159050801561098c576001600060016101000a81548160ff02191690831515021790555060016000806101000a81548160ff0219169083151502179055505b6109946123e2565b61099c61243b565b83609860006101000a81548173ffffffffffffffffffffffffffffffffffffffff021916908373ffffffffffffffffffffffffffffffffffffffff16021790555082609960006101000a81548173ffffffffffffffffffffffffffffffffffffffff021916908373ffffffffffffffffffffffffffffffffffffffff1602179055508160a2819055506000609e60006101000a81548160ff021916908360000b60ff1602179055506000609e60016101000a81548160ff021916908360000b60ff1602179055506000609e60026101000a81548160ff021916908360000b60ff1602179055506000609e60036101000a81548160ff021916908360000b60ff1602179055508015610ac25760008060016101000a81548160ff0219169083151502179055505b50505050565b60a35481565b609b6020528060005260406000206000915090508060000154908060010160009054906101000a900473ffffffffffffffffffffffffffffffffffffffff16908060010160149054906101000a900469ffffffffffffffffffff16908060020160009054906101000a900469ffffffffffffffffffff16905084565b610b52612494565b610b5a612526565b565b60a05481565b6000609c60008373ffffffffffffffffffffffffffffffffffffffff1673ffffffffffffffffffffffffffffffffffffffff168152602001908152602001600020805490509050919050565b609a6020528060005260406000206000915090508060000154908060010160009054906101000a900473ffffffffffffffffffffffffffffffffffffffff16908060010160149054906101000a900469ffffffffffffffffffff16908060020160009054906101000a900469ffffffffffffffffffff16905084565b6000603360009054906101000a900460ff16905090565b60ab5481565b610c4f612494565b609760009054906101000a900473ffffffffffffffffffffffffffffffffffffffff1673ffffffffffffffffffffffffffffffffffffffff166108fc479081150290604051600060405180830381858888f19350505050158015610cb7573d6000803e3d6000fd5b50565b610cc26123c9565b73ffffffffffffffffffffffffffffffffffffffff16610ce0610f08565b73ffffffffffffffffffffffffffffffffffffffff1614610d36576040517f08c379a0000000000000000000000000000000000000000000000000000000008152600401610d2d90614b9c565b60405180910390fd5b80609760006101000a81548173ffffffffffffffffffffffffffffffffffffffff021916908373ffffffffffffffffffffffffffffffffffffffff16021790555050565b610d826123c9565b73ffffffffffffffffffffffffffffffffffffffff16610da0610f08565b73ffffffffffffffffffffffffffffffffffffffff1614610df6576040517f08c379a0000000000000000000000000000000000000000000000000000000008152600401610ded90614b9c565b60405180910390fd5b610e0060006125c8565b565b600060019054906101000a900460ff16610e2a5760008054906101000a900460ff1615610e33565b610e326123d1565b5b610e72576040517f08c379a0000000000000000000000000000000000000000000000000000000008152600401610e6990614d78565b60405180910390fd5b60008060019054906101000a900460ff161590508015610ec2576001600060016101000a81548160ff02191690831515021790555060016000806101000a81548160ff0219169083151502179055505b610eca6123e2565b610ed261243b565b8015610ef35760008060016101000a81548160ff0219169083151502179055505b50565b610efe612494565b610f0661268e565b565b6000606560009054906101000a900473ffffffffffffffffffffffffffffffffffffffff16905090565b610f3a610c2a565b15610f7a576040517f08c379a0000000000000000000000000000000000000000000000000000000008152600401610f7190614de4565b60405180910390fd5b609960009054906101000a900473ffffffffffffffffffffffffffffffffffffffff1673ffffffffffffffffffffffffffffffffffffffff163373ffffffffffffffffffffffffffffffffffffffff161461100a576040517f08c379a000000000000000000000000000000000000000000000000000000000815260040161100190614e50565b60405180910390fd5b6000609d6000846000015181526020019081526020016000208054905011611067576040517f08c379a000000000000000000000000000000000000000000000000000000000815260040161105e90614ebc565b60405180910390fd5b6000609d6000846000015181526020019081526020016000208054806020026020016040519081016040528092919081815260200182805480156110f257602002820191906000526020600020906000905b82829054906101000a900461ffff1661ffff16815260200190600201906020826001010492830192600103820291508084116110b95790505b50505050509050609d600084600001518152602001908152602001600020600061111c9190613eda565b6000805b82518110156114fa576000848260405160200161113e929190614edc565b6040516020818303038152906040528051906020012060001c905061118084838151811061116f5761116e614c45565b5b602002602001015161ffff16612731565b156114a45760005b609c6000886040015173ffffffffffffffffffffffffffffffffffffffff1673ffffffffffffffffffffffffffffffffffffffff168152602001908152602001600020805490508110156113ed578483815181106111e9576111e8614c45565b5b602002602001015161ffff16609c6000896040015173ffffffffffffffffffffffffffffffffffffffff1673ffffffffffffffffffffffffffffffffffffffff168152602001908152602001600020828154811061124a57611249614c45565b5b906000526020600020015414156113da57609c6000886040015173ffffffffffffffffffffffffffffffffffffffff1673ffffffffffffffffffffffffffffffffffffffff1681526020019081526020016000206001609c60008a6040015173ffffffffffffffffffffffffffffffffffffffff1673ffffffffffffffffffffffffffffffffffffffff168152602001908152602001600020805490506112f19190614f05565b8154811061130257611301614c45565b5b9060005260206000200154609c6000896040015173ffffffffffffffffffffffffffffffffffffffff1673ffffffffffffffffffffffffffffffffffffffff168152602001908152602001600020828154811061136257611361614c45565b5b9060005260206000200181905550609c6000886040015173ffffffffffffffffffffffffffffffffffffffff1673ffffffffffffffffffffffffffffffffffffffff1681526020019081526020016000208054806113c3576113c2614f39565b5b600190038181906000526020600020016000905590555b80806113e590614f68565b915050611188565b5060006114448760400151609c60008a6040015173ffffffffffffffffffffffffffffffffffffffff1673ffffffffffffffffffffffffffffffffffffffff16815260200190815260200160002080549050612810565b9050600281141561145d5761145c87604001516128c9565b5b61149185848151811061147357611472614c45565b5b602002602001015161ffff168860400151896080015160008661296d565b8461149c9190614fb1565b9350506114e6565b6114d88483815181106114ba576114b9614c45565b5b602002602001015161ffff1687604001518860800151600085612db7565b836114e39190614fb1565b92505b5080806114f290614f68565b915050611120565b50600081111561151357611512846040015182613203565b5b50505050565b611521610c2a565b15611561576040517f08c379a000000000000000000000000000000000000000000000000000000000815260040161155890614de4565b60405180910390fd5b6115696123c9565b73ffffffffffffffffffffffffffffffffffffffff163273ffffffffffffffffffffffffffffffffffffffff16146115d6576040517f08c379a00000000000000000000000000000000000000000000000000000000081526004016115cd90615053565b60405180910390fd5b60a460009054906101000a900460ff1660ff1683839050111561162e576040517f08c379a0000000000000000000000000000000000000000000000000000000008152600401611625906150bf565b60405180910390fd5b60a5543414611672576040517f08c379a00000000000000000000000000000000000000000000000000000000081526004016116699061512b565b60405180910390fd5b60005b838390508110156119065760006116b685858481811061169857611697614c45565b5b90506020020160208101906116ad919061514b565b61ffff16612731565b6116fd57609b60008686858181106116d1576116d0614c45565b5b90506020020160208101906116e6919061514b565b61ffff16815260200190815260200160002061173c565b609a600086868581811061171457611713614c45565b5b9050602002016020810190611729919061514b565b61ffff1681526020019081526020016000205b604051806080016040529081600082015481526020016001820160009054906101000a900473ffffffffffffffffffffffffffffffffffffffff1673ffffffffffffffffffffffffffffffffffffffff1673ffffffffffffffffffffffffffffffffffffffff1681526020016001820160149054906101000a900469ffffffffffffffffffff1669ffffffffffffffffffff1669ffffffffffffffffffff1681526020016002820160009054906101000a900469ffffffffffffffffffff1669ffffffffffffffffffff1669ffffffffffffffffffff168152505090506118216123c9565b73ffffffffffffffffffffffffffffffffffffffff16816020015173ffffffffffffffffffffffffffffffffffffffff1614611892576040517f08c379a0000000000000000000000000000000000000000000000000000000008152600401611889906151c4565b60405180910390fd5b60a154816060015169ffffffffffffffffffff16426118b19190614f05565b10156118f2576040517f08c379a00000000000000000000000000000000000000000000000000000000081526004016118e990615230565b60405180910390fd5b5080806118fe90614f68565b915050611675565b506000609960009054906101000a900473ffffffffffffffffffffffffffffffffffffffff1673ffffffffffffffffffffffffffffffffffffffff16635bdf263c61194f6123c9565b8686866040518563ffffffff1660e01b81526004016119719493929190615313565b6020604051808303816000875af1158015611990573d6000803e3d6000fd5b505050506040513d601f19601f820116820180604052508101906119b49190615368565b90508383609d600084815260200190815260200160002091906119d8929190613f02565b5050505050565b60a95481565b609c6020528160005260406000208181548110611a0157600080fd5b90600052602060002001600091509150505481565b60aa5481565b611a246123c9565b73ffffffffffffffffffffffffffffffffffffffff163273ffffffffffffffffffffffffffffffffffffffff16148015611a905750611a616123c9565b73ffffffffffffffffffffffffffffffffffffffff168373ffffffffffffffffffffffffffffffffffffffff16145b80611aef5750609860009054906101000a900473ffffffffffffffffffffffffffffffffffffffff1673ffffffffffffffffffffffffffffffffffffffff16611ad76123c9565b73ffffffffffffffffffffffffffffffffffffffff16145b611b2e576040517f08c379a0000000000000000000000000000000000000000000000000000000008152600401611b2590615053565b60405180910390fd5b60005b82829050811015612095576000838383818110611b5157611b50614c45565b5b9050602002016020810190611b66919061514b565b61ffff161415611b7557612082565b609860009054906101000a900473ffffffffffffffffffffffffffffffffffffffff1673ffffffffffffffffffffffffffffffffffffffff16611bb66123c9565b73ffffffffffffffffffffffffffffffffffffffff1614611d0957611bd96123c9565b73ffffffffffffffffffffffffffffffffffffffff16609860009054906101000a900473ffffffffffffffffffffffffffffffffffffffff1673ffffffffffffffffffffffffffffffffffffffff16636352211e858585818110611c4057611c3f614c45565b5b9050602002016020810190611c55919061514b565b6040518263ffffffff1660e01b8152600401611c7191906153d0565b602060405180830381865afa158015611c8e573d6000803e3d6000fd5b505050506040513d601f19601f82011682018060405250810190611cb29190615400565b73ffffffffffffffffffffffffffffffffffffffff1614611d08576040517f08c379a0000000000000000000000000000000000000000000000000000000008152600401611cff906151c4565b60405180910390fd5b5b611d3d838383818110611d1f57611d1e614c45565b5b9050602002016020810190611d34919061514b565b61ffff16613296565b611d7c576040517f08c379a0000000000000000000000000000000000000000000000000000000008152600401611d7390615479565b60405180910390fd5b611db0838383818110611d9257611d91614c45565b5b9050602002016020810190611da7919061514b565b61ffff16612731565b15611f2f57609c60008573ffffffffffffffffffffffffffffffffffffffff1673ffffffffffffffffffffffffffffffffffffffff168152602001908152602001600020838383818110611e0757611e06614c45565b5b9050602002016020810190611e1c919061514b565b908060018154018082558091505060019003906000526020600020016000909161ffff169091909150556000611e9b611e536123c9565b609c60008873ffffffffffffffffffffffffffffffffffffffff1673ffffffffffffffffffffffffffffffffffffffff16815260200190815260200160002080549050612810565b90506000811215611ee1576040517f08c379a0000000000000000000000000000000000000000000000000000000008152600401611ed8906154e5565b60405180910390fd5b6000811415611ef457611ef3856132c6565b5b611f2985858585818110611f0b57611f0a614c45565b5b9050602002016020810190611f20919061514b565b61ffff1661336a565b50611f65565b611f6484848484818110611f4657611f45614c45565b5b9050602002016020810190611f5b919061514b565b61ffff16613529565b5b609860009054906101000a900473ffffffffffffffffffffffffffffffffffffffff1673ffffffffffffffffffffffffffffffffffffffff16611fa66123c9565b73ffffffffffffffffffffffffffffffffffffffff161461208157609860009054906101000a900473ffffffffffffffffffffffffffffffffffffffff1673ffffffffffffffffffffffffffffffffffffffff166323b872dd6120076123c9565b3086868681811061201b5761201a614c45565b5b9050602002016020810190612030919061514b565b6040518463ffffffff1660e01b815260040161204e93929190615505565b600060405180830381600087803b15801561206857600080fd5b505af115801561207c573d6000803e3d6000fd5b505050505b5b808061208d90614f68565b915050611b31565b50505050565b609f5481565b6120a96123c9565b73ffffffffffffffffffffffffffffffffffffffff166120c7610f08565b73ffffffffffffffffffffffffffffffffffffffff161461211d576040517f08c379a000000000000000000000000000000000000000000000000000000000815260040161211490614b9c565b60405180910390fd5b600073ffffffffffffffffffffffffffffffffffffffff168173ffffffffffffffffffffffffffffffffffffffff16141561218d576040517f08c379a0000000000000000000000000000000000000000000000000000000008152600401612184906155ae565b60405180910390fd5b612196816125c8565b50565b600060019054906101000a900460ff166121c15760008054906101000a900460ff16156121ca565b6121c96123d1565b5b612209576040517f08c379a000000000000000000000000000000000000000000000000000000000815260040161220090614d78565b60405180910390fd5b60008060019054906101000a900460ff161590508015612259576001600060016101000a81548160ff02191690831515021790555060016000806101000a81548160ff0219169083151502179055505b6122616123e2565b61226961243b565b600060a981905550600060a381905550600060ab81905550600260af60146101000a81548160ff021916908360ff16021790555084609860006101000a81548173ffffffffffffffffffffffffffffffffffffffff021916908373ffffffffffffffffffffffffffffffffffffffff16021790555083609960006101000a81548173ffffffffffffffffffffffffffffffffffffffff021916908373ffffffffffffffffffffffffffffffffffffffff1602179055508260b060006101000a81548173ffffffffffffffffffffffffffffffffffffffff021916908373ffffffffffffffffffffffffffffffffffffffff1602179055508160af60006101000a81548173ffffffffffffffffffffffffffffffffffffffff021916908373ffffffffffffffffffffffffffffffffffffffff16021790555080156123c25760008060016101000a81548160ff0219169083151502179055505b5050505050565b600033905090565b60006123dc306136ec565b15905090565b600060019054906101000a900460ff16612431576040517f08c379a000000000000000000000000000000000000000000000000000000000815260040161242890615640565b60405180910390fd5b61243961370f565b565b600060019054906101000a900460ff1661248a576040517f08c379a000000000000000000000000000000000000000000000000000000000815260040161248190615640565b60405180910390fd5b612492613770565b565b609760009054906101000a900473ffffffffffffffffffffffffffffffffffffffff1673ffffffffffffffffffffffffffffffffffffffff163373ffffffffffffffffffffffffffffffffffffffff1614612524576040517f08c379a000000000000000000000000000000000000000000000000000000000815260040161251b906156ac565b60405180910390fd5b565b61252e610c2a565b61256d576040517f08c379a000000000000000000000000000000000000000000000000000000000815260040161256490615718565b60405180910390fd5b6000603360006101000a81548160ff0219169083151502179055507f5db9ee0a495bf2e6ff9c91a7834c1ba4fdd244a5e8aa4e537bd38aeae4b073aa6125b16123c9565b6040516125be91906146fa565b60405180910390a1565b6000606560009054906101000a900473ffffffffffffffffffffffffffffffffffffffff16905081606560006101000a81548173ffffffffffffffffffffffffffffffffffffffff021916908373ffffffffffffffffffffffffffffffffffffffff1602179055508173ffffffffffffffffffffffffffffffffffffffff168173ffffffffffffffffffffffffffffffffffffffff167f8be0079c531659141344cd1fd0a4f28419497f9722a3daafe3b4186f6b6457e060405160405180910390a35050565b612696610c2a565b156126d6576040517f08c379a00000000000000000000000000000000000000000000000000000000081526004016126cd90614de4565b60405180910390fd5b6001603360006101000a81548160ff0219169083151502179055507f62e78cea01bee320cd4e420270b5ea74000d11b0c9f74754ebdbfc544b05a25861271a6123c9565b60405161272791906146fa565b60405180910390a1565b6000609860009054906101000a900473ffffffffffffffffffffffffffffffffffffffff1673ffffffffffffffffffffffffffffffffffffffff1663e05c57bf836040518263ffffffff1660e01b815260040161278e91906145d6565b61016060405180830381865afa1580156127ac573d6000803e3d6000fd5b505050506040513d601f19601f820116820180604052508101906127d09190615777565b9091929394959697985090919293949596975090919293949596509091929394955090919293945090919293509091925090915090505080915050919050565b600060af60009054906101000a900473ffffffffffffffffffffffffffffffffffffffff1673ffffffffffffffffffffffffffffffffffffffff16634a54cc468460af60149054906101000a900460ff16856040518463ffffffff1660e01b81526004016128809392919061587a565b602060405180830381865afa15801561289d573d6000803e3d6000fd5b505050506040513d601f19601f820116820180604052508101906128c191906158c6565b905092915050565b60af60009054906101000a900473ffffffffffffffffffffffffffffffffffffffff1673ffffffffffffffffffffffffffffffffffffffff16639abcb22e8260af60149054906101000a900460ff1660016040518463ffffffff1660e01b81526004016129389392919061592e565b600060405180830381600087803b15801561295257600080fd5b505af1158015612966573d6000803e3d6000fd5b5050505050565b600080609a6000888152602001908152602001600020604051806080016040529081600082015481526020016001820160009054906101000a900473ffffffffffffffffffffffffffffffffffffffff1673ffffffffffffffffffffffffffffffffffffffff1673ffffffffffffffffffffffffffffffffffffffff1681526020016001820160149054906101000a900469ffffffffffffffffffff1669ffffffffffffffffffff1669ffffffffffffffffffff1681526020016002820160009054906101000a900469ffffffffffffffffffff1669ffffffffffffffffffff1669ffffffffffffffffffff168152505090508573ffffffffffffffffffffffffffffffffffffffff16816020015173ffffffffffffffffffffffffffffffffffffffff1614612ad2576040517f08c379a0000000000000000000000000000000000000000000000000000000008152600401612ac9906151c4565b60405180910390fd5b83612ae557612ae0816137dc565b612ae8565b60005b91506000806000612af98a87613940565b925092509250612b088a613296565b612b1157600197505b8715612c4457609a60008b81526020019081526020016000206000808201600090556001820160006101000a81549073ffffffffffffffffffffffffffffffffffffffff02191690556001820160146101000a81549069ffffffffffffffffffff02191690556002820160006101000a81549069ffffffffffffffffffff02191690555050609f6000815480929190612ba990615965565b9190505550609860009054906101000a900473ffffffffffffffffffffffffffffffffffffffff1673ffffffffffffffffffffffffffffffffffffffff1663b88d4fde308b8d6040518463ffffffff1660e01b8152600401612c0d939291906159c6565b600060405180830381600087803b158015612c2757600080fd5b505af1158015612c3b573d6000803e3d6000fd5b50505050612d65565b60405180608001604052808b61ffff1681526020018a73ffffffffffffffffffffffffffffffffffffffff1681526020014269ffffffffffffffffffff1681526020014269ffffffffffffffffffff16815250609a60008c81526020019081526020016000206000820151816000015560208201518160010160006101000a81548173ffffffffffffffffffffffffffffffffffffffff021916908373ffffffffffffffffffffffffffffffffffffffff16021790555060408201518160010160146101000a81548169ffffffffffffffffffff021916908369ffffffffffffffffffff16021790555060608201518160020160006101000a81548169ffffffffffffffffffff021916908369ffffffffffffffffffff1602179055509050505b7f9b394c66bc4fdb2f56f5842a796076e6552d6f15eaacb6e63e3c53b474d872e98a868a86868660a354604051612da29796959493929190615a87565b60405180910390a15050505095945050505050565b600080609b6000888152602001908152602001600020604051806080016040529081600082015481526020016001820160009054906101000a900473ffffffffffffffffffffffffffffffffffffffff1673ffffffffffffffffffffffffffffffffffffffff1673ffffffffffffffffffffffffffffffffffffffff1681526020016001820160149054906101000a900469ffffffffffffffffffff1669ffffffffffffffffffff1669ffffffffffffffffffff1681526020016002820160009054906101000a900469ffffffffffffffffffff1669ffffffffffffffffffff1669ffffffffffffffffffff168152505090508573ffffffffffffffffffffffffffffffffffffffff16816020015173ffffffffffffffffffffffffffffffffffffffff1614612f1c576040517f08c379a0000000000000000000000000000000000000000000000000000000008152600401612f13906151c4565b60405180910390fd5b83612f2f57612f2a81613bae565b612f32565b60005b91506000806000612f438a87613940565b925092509250612f528a613296565b612f5b57600197505b871561308e57609b60008b81526020019081526020016000206000808201600090556001820160006101000a81549073ffffffffffffffffffffffffffffffffffffffff02191690556001820160146101000a81549069ffffffffffffffffffff02191690556002820160006101000a81549069ffffffffffffffffffff0219169055505060a06000815480929190612ff390615965565b9190505550609860009054906101000a900473ffffffffffffffffffffffffffffffffffffffff1673ffffffffffffffffffffffffffffffffffffffff1663b88d4fde308b8d6040518463ffffffff1660e01b8152600401613057939291906159c6565b600060405180830381600087803b15801561307157600080fd5b505af1158015613085573d6000803e3d6000fd5b505050506131b1565b60405180608001604052808b61ffff1681526020018a73ffffffffffffffffffffffffffffffffffffffff16815260200160a35469ffffffffffffffffffff1681526020014269ffffffffffffffffffff16815250609b60008c81526020019081526020016000206000820151816000015560208201518160010160006101000a81548173ffffffffffffffffffffffffffffffffffffffff021916908373ffffffffffffffffffffffffffffffffffffffff16021790555060408201518160010160146101000a81548169ffffffffffffffffffff021916908369ffffffffffffffffffff16021790555060608201518160020160006101000a81548169ffffffffffffffffffff021916908369ffffffffffffffffffff1602179055509050505b7f9be2cb7a62ca4aefdc81da57f848805cc67c86675da32b5a7be58bb615ba4f328a868a86868660a3546040516131ee9796959493929190615a87565b60405180910390a15050505095945050505050565b60b060009054906101000a900473ffffffffffffffffffffffffffffffffffffffff1673ffffffffffffffffffffffffffffffffffffffff166340c10f1983836040518363ffffffff1660e01b8152600401613260929190615afd565b600060405180830381600087803b15801561327a57600080fd5b505af115801561328e573d6000803e3d6000fd5b505050505050565b6000806132a283613cc2565b50905060af60159054906101000a900460ff1660ff168160ff161015915050919050565b60af60009054906101000a900473ffffffffffffffffffffffffffffffffffffffff1673ffffffffffffffffffffffffffffffffffffffff16637befa74f8260af60149054906101000a900460ff1660016040518463ffffffff1660e01b81526004016133359392919061592e565b600060405180830381600087803b15801561334f57600080fd5b505af1158015613363573d6000803e3d6000fd5b5050505050565b613372610c2a565b156133b2576040517f08c379a00000000000000000000000000000000000000000000000000000000081526004016133a990614de4565b60405180910390fd5b60405180608001604052808261ffff1681526020018373ffffffffffffffffffffffffffffffffffffffff1681526020014269ffffffffffffffffffff1681526020014269ffffffffffffffffffff16815250609a60008381526020019081526020016000206000820151816000015560208201518160010160006101000a81548173ffffffffffffffffffffffffffffffffffffffff021916908373ffffffffffffffffffffffffffffffffffffffff16021790555060408201518160010160146101000a81548169ffffffffffffffffffff021916908369ffffffffffffffffffff16021790555060608201518160020160006101000a81548169ffffffffffffffffffff021916908369ffffffffffffffffffff160217905550905050609f60008154809291906134e590614f68565b91905055507f8af1bb49fb16c7835975aa59449ba4328dd54737dfb2ae9fa6c5eca71fda51f981834260405161351d93929190615b26565b60405180910390a15050565b613531610c2a565b15613571576040517f08c379a000000000000000000000000000000000000000000000000000000000815260040161356890614de4565b60405180910390fd5b60405180608001604052808261ffff1681526020018373ffffffffffffffffffffffffffffffffffffffff16815260200160a35469ffffffffffffffffffff1681526020014269ffffffffffffffffffff16815250609b60008381526020019081526020016000206000820151816000015560208201518160010160006101000a81548173ffffffffffffffffffffffffffffffffffffffff021916908373ffffffffffffffffffffffffffffffffffffffff16021790555060408201518160010160146101000a81548169ffffffffffffffffffff021916908369ffffffffffffffffffff16021790555060608201518160020160006101000a81548169ffffffffffffffffffff021916908369ffffffffffffffffffff16021790555090505060a060008154809291906136a690614f68565b91905055507f8af1bb49fb16c7835975aa59449ba4328dd54737dfb2ae9fa6c5eca71fda51f9818360a3546040516136e093929190615b26565b60405180910390a15050565b6000808273ffffffffffffffffffffffffffffffffffffffff163b119050919050565b600060019054906101000a900460ff1661375e576040517f08c379a000000000000000000000000000000000000000000000000000000000815260040161375590615640565b60405180910390fd5b61376e6137696123c9565b6125c8565b565b600060019054906101000a900460ff166137bf576040517f08c379a00000000000000000000000000000000000000000000000000000000081526004016137b690615640565b60405180910390fd5b6000603360006101000a81548160ff021916908315150217905550565b6000806137ec8360000151613cc2565b5090506000836040015169ffffffffffffffffffff164261380d9190614f05565b905060a25481111561381f5760a25490505b600060a2548260a7546138329190614beb565b61383c9190615b8c565b90506000600a60ac60009054906101000a900460ff1660ff168560ff166138639190614beb565b61386d9190614beb565b620186a061387b9190614fb1565b9050620186a0818361388d9190614beb565b6138979190615b8c565b945060a6548560aa546138aa9190614fb1565b11156138c35760aa5460a6546138c09190614f05565b94505b6000851115613937574260ab819055506138f5606460a854876138e69190614beb565b6138f09190615b8c565b613dac565b606460a85460646139069190614f05565b866139119190614beb565b61391b9190615b8c565b94508460aa600082825461392f9190614fb1565b925050819055505b50505050919050565b6000806060600080609860009054906101000a900473ffffffffffffffffffffffffffffffffffffffff1673ffffffffffffffffffffffffffffffffffffffff1663e05c57bf886040518263ffffffff1660e01b81526004016139a391906145d6565b61016060405180830381865afa1580156139c1573d6000803e3d6000fd5b505050506040513d601f19601f820116820180604052508101906139e59190615777565b9a505050505050505050509150600082613a2b57609b600089815260200190815260200160002060020160009054906101000a900469ffffffffffffffffffff16613a59565b609a600089815260200190815260200160002060020160009054906101000a900469ffffffffffffffffffff165b69ffffffffffffffffffff1642613a709190614f05565b9050609860009054906101000a900473ffffffffffffffffffffffffffffffffffffffff1673ffffffffffffffffffffffffffffffffffffffff166363dbfc7789613ae686613ace57609e60029054906101000a900460000b613adf565b609e60009054906101000a900460000b5b8587613e14565b613b1c87613b0357609e60039054906101000a900460000b613b14565b609e60019054906101000a900460000b5b866000613e14565b613b24613ed1565b613b2f576000613b31565b8b5b6040518563ffffffff1660e01b8152600401613b509493929190615bcc565b6000604051808303816000875af1158015613b6f573d6000803e3d6000fd5b505050506040513d6000823e3d601f19601f82011682018060405250810190613b989190615cb7565b8096508197508298505050505050509250925092565b600080613bbe8360000151613cc2565b9150506000836040015169ffffffffffffffffffff1660a354613be19190614f05565b905060006103e860ae54613bf59190615d26565b60646103e860ad5460328760ff161115613c1b57866064613c169190615e3d565b613c1d565b865b60000b613c2a9190615d26565b613c349190615d26565b613c3e9190615e71565b613c489190615edb565b9050620186a08183613c5a9190614beb565b613c649190615b8c565b935060a6548460aa54613c779190614fb1565b1115613c905760aa5460a654613c8d9190614f05565b93505b6000841115613cba574260ab819055508360aa6000828254613cb29190614fb1565b925050819055505b505050919050565b600080609860009054906101000a900473ffffffffffffffffffffffffffffffffffffffff1673ffffffffffffffffffffffffffffffffffffffff1663e05c57bf846040518263ffffffff1660e01b8152600401613d2091906145d6565b61016060405180830381865afa158015613d3e573d6000803e3d6000fd5b505050506040513d601f19601f82011682018060405250810190613d629190615777565b909192939495969798995090919293949596979850909192939495969750909192939495965090919293949550909192939450909192935090919250508092508193505050915091565b600060a0541415613dd5578060a96000828254613dc99190614fb1565b92505081905550613e11565b60a05460a95482613de69190614fb1565b613df09190615b8c565b60a36000828254613e019190614fb1565b92505081905550600060a9819055505b50565b600060a254831115613e265760a25492505b600060a2548560000b85613e3a9190615d26565b613e449190615e71565b905060a2548410613e61578260000b81613e5e9190615edb565b90505b6064811315613e74576064915050613eca565b7fffffffffffffffffffffffffffffffffffffffffffffffffffffffffffffff9c811215613ec5577fffffffffffffffffffffffffffffffffffffffffffffffffffffffffffffff9c915050613eca565b809150505b9392505050565b60006001905090565b50805460008255600f016010900490600052602060002090810190613eff9190613fb0565b50565b82805482825590600052602060002090600f01601090048101928215613f9f5791602002820160005b83821115613f6f57833561ffff1683826101000a81548161ffff021916908361ffff1602179055509260200192600201602081600101049283019260010302613f2b565b8015613f9d5782816101000a81549061ffff0219169055600201602081600101049283019260010302613f6f565b505b509050613fac9190613fb0565b5090565b5b80821115613fc9576000816000905550600101613fb1565b5090565b6000604051905090565b600080fd5b600080fd5b6000819050919050565b613ff481613fe1565b8114613fff57600080fd5b50565b60008135905061401181613feb565b92915050565b600080fd5b6000601f19601f8301169050919050565b7f4e487b7100000000000000000000000000000000000000000000000000000000600052604160045260246000fd5b6140658261401c565b810181811067ffffffffffffffff821117156140845761408361402d565b5b80604052505050565b6000614097613fcd565b90506140a3828261405c565b919050565b600067ffffffffffffffff8211156140c3576140c261402d565b5b602082029050602081019050919050565b600080fd5b60006140ec6140e7846140a8565b61408d565b9050808382526020820190506020840283018581111561410f5761410e6140d4565b5b835b8181101561413857806141248882614002565b845260208401935050602081019050614111565b5050509392505050565b600082601f83011261415757614156614017565b5b81356141678482602086016140d9565b91505092915050565b600067ffffffffffffffff82111561418b5761418a61402d565b5b602082029050602081019050919050565b60008160000b9050919050565b6141b28161419c565b81146141bd57600080fd5b50565b6000813590506141cf816141a9565b92915050565b60006141e86141e384614170565b61408d565b9050808382526020820190506020840283018581111561420b5761420a6140d4565b5b835b81811015614234578061422088826141c0565b84526020840193505060208101905061420d565b5050509392505050565b600082601f83011261425357614252614017565b5b81356142638482602086016141d5565b91505092915050565b600060ff82169050919050565b6142828161426c565b811461428d57600080fd5b50565b60008135905061429f81614279565b92915050565b6000819050919050565b6142b8816142a5565b81146142c357600080fd5b50565b6000813590506142d5816142af565b92915050565b60008060008060008060008060006101208a8c0312156142fe576142fd613fd7565b5b600061430c8c828d01614002565b99505060208a013567ffffffffffffffff81111561432d5761432c613fdc565b5b6143398c828d01614142565b98505060408a013567ffffffffffffffff81111561435a57614359613fdc565b5b6143668c828d0161423e565b97505060606143778c828d01614290565b96505060806143888c828d01614290565b95505060a06143998c828d016142c6565b94505060c06143aa8c828d016142c6565b93505060e06143bb8c828d01614290565b9250506101006143cd8c828d01614002565b9150509295985092959850929598565b600073ffffffffffffffffffffffffffffffffffffffff82169050919050565b6000614408826143dd565b9050919050565b614418816143fd565b811461442357600080fd5b50565b6000813590506144358161440f565b92915050565b600080fd5b60008083601f84011261445657614455614017565b5b8235905067ffffffffffffffff8111156144735761447261443b565b5b60208301915083600182028301111561448f5761448e6140d4565b5b9250929050565b6000806000806000608086880312156144b2576144b1613fd7565b5b60006144c088828901614426565b95505060206144d188828901614426565b94505060406144e288828901614002565b935050606086013567ffffffffffffffff81111561450357614502613fdc565b5b61450f88828901614440565b92509250509295509295909350565b60007fffffffff0000000000000000000000000000000000000000000000000000000082169050919050565b6145538161451e565b82525050565b600060208201905061456e600083018461454a565b92915050565b60008060006060848603121561458d5761458c613fd7565b5b600061459b86828701614426565b93505060206145ac86828701614426565b92505060406145bd86828701614002565b9150509250925092565b6145d081613fe1565b82525050565b60006020820190506145eb60008301846145c7565b92915050565b60006020828403121561460757614606613fd7565b5b600061461584828501614002565b91505092915050565b614627816143fd565b82525050565b600069ffffffffffffffffffff82169050919050565b61464c8161462d565b82525050565b600060808201905061466760008301876145c7565b614674602083018661461e565b6146816040830185614643565b61468e6060830184614643565b95945050505050565b6000602082840312156146ad576146ac613fd7565b5b60006146bb84828501614426565b91505092915050565b60008115159050919050565b6146d9816146c4565b82525050565b60006020820190506146f460008301846146d0565b92915050565b600060208201905061470f600083018461461e565b92915050565b600080fd5b600080fd5b6000819050919050565b6147328161471f565b811461473d57600080fd5b50565b60008135905061474f81614729565b92915050565b600067ffffffffffffffff8211156147705761476f61402d565b5b602082029050602081019050919050565b600061ffff82169050919050565b61479881614781565b81146147a357600080fd5b50565b6000813590506147b58161478f565b92915050565b60006147ce6147c984614755565b61408d565b905080838252602082019050602084028301858111156147f1576147f06140d4565b5b835b8181101561481a578061480688826147a6565b8452602084019350506020810190506147f3565b5050509392505050565b600082601f83011261483957614838614017565b5b81356148498482602086016147bb565b91505092915050565b61485b816146c4565b811461486657600080fd5b50565b60008135905061487881614852565b92915050565b600060a0828403121561489457614893614715565b5b61489e60a061408d565b905060006148ae84828501614740565b60008301525060206148c284828501614426565b60208301525060406148d684828501614426565b604083015250606082013567ffffffffffffffff8111156148fa576148f961471a565b5b61490684828501614824565b606083015250608061491a84828501614869565b60808301525092915050565b6000806040838503121561493d5761493c613fd7565b5b600083013567ffffffffffffffff81111561495b5761495a613fdc565b5b6149678582860161487e565b925050602061497885828601614002565b9150509250929050565b60008083601f84011261499857614997614017565b5b8235905067ffffffffffffffff8111156149b5576149b461443b565b5b6020830191508360208202830111156149d1576149d06140d4565b5b9250929050565b6000806000604084860312156149f1576149f0613fd7565b5b600084013567ffffffffffffffff811115614a0f57614a0e613fdc565b5b614a1b86828701614982565b93509350506020614a2e86828701614869565b9150509250925092565b60008060408385031215614a4f57614a4e613fd7565b5b6000614a5d85828601614426565b9250506020614a6e85828601614002565b9150509250929050565b600080600060408486031215614a9157614a90613fd7565b5b6000614a9f86828701614426565b935050602084013567ffffffffffffffff811115614ac057614abf613fdc565b5b614acc86828701614982565b92509250509250925092565b60008060008060808587031215614af257614af1613fd7565b5b6000614b0087828801614426565b9450506020614b1187828801614426565b9350506040614b2287828801614426565b9250506060614b3387828801614426565b91505092959194509250565b600082825260208201905092915050565b7f4f776e61626c653a2063616c6c6572206973206e6f7420746865206f776e6572600082015250565b6000614b86602083614b3f565b9150614b9182614b50565b602082019050919050565b60006020820190508181036000830152614bb581614b79565b9050919050565b7f4e487b7100000000000000000000000000000000000000000000000000000000600052601160045260246000fd5b6000614bf682613fe1565b9150614c0183613fe1565b9250817fffffffffffffffffffffffffffffffffffffffffffffffffffffffffffffffff0483118215151615614c3a57614c39614bbc565b5b828202905092915050565b7f4e487b7100000000000000000000000000000000000000000000000000000000600052603260045260246000fd5b7f43616e6e6f742073656e6420746f6b656e7320746f2056656e7565206469726560008201527f63746c7900000000000000000000000000000000000000000000000000000000602082015250565b6000614cd0602483614b3f565b9150614cdb82614c74565b604082019050919050565b60006020820190508181036000830152614cff81614cc3565b9050919050565b7f496e697469616c697a61626c653a20636f6e747261637420697320616c72656160008201527f647920696e697469616c697a6564000000000000000000000000000000000000602082015250565b6000614d62602e83614b3f565b9150614d6d82614d06565b604082019050919050565b60006020820190508181036000830152614d9181614d55565b9050919050565b7f5061757361626c653a2070617573656400000000000000000000000000000000600082015250565b6000614dce601083614b3f565b9150614dd982614d98565b602082019050919050565b60006020820190508181036000830152614dfd81614dc1565b9050919050565b7f4f6e6c7920436c61696d2063616e2066756c66696c6c00000000000000000000600082015250565b6000614e3a601683614b3f565b9150614e4582614e04565b602082019050919050565b60006020820190508181036000830152614e6981614e2d565b9050919050565b7f436c61696d2072657175657374206e6f7420666f756e64000000000000000000600082015250565b6000614ea6601783614b3f565b9150614eb182614e70565b602082019050919050565b60006020820190508181036000830152614ed581614e99565b9050919050565b6000604082019050614ef160008301856145c7565b614efe60208301846145c7565b9392505050565b6000614f1082613fe1565b9150614f1b83613fe1565b925082821015614f2e57614f2d614bbc565b5b828203905092915050565b7f4e487b7100000000000000000000000000000000000000000000000000000000600052603160045260246000fd5b6000614f7382613fe1565b91507fffffffffffffffffffffffffffffffffffffffffffffffffffffffffffffffff821415614fa657614fa5614bbc565b5b600182019050919050565b6000614fbc82613fe1565b9150614fc783613fe1565b9250827fffffffffffffffffffffffffffffffffffffffffffffffffffffffffffffffff03821115614ffc57614ffb614bbc565b5b828201905092915050565b7f454f41206f6e6c79000000000000000000000000000000000000000000000000600082015250565b600061503d600883614b3f565b915061504882615007565b602082019050919050565b6000602082019050818103600083015261506c81615030565b9050919050565b7f496e76616c696420636c61696d20616d6f756e74000000000000000000000000600082015250565b60006150a9601483614b3f565b91506150b482615073565b602082019050919050565b600060208201905081810360008301526150d88161509c565b9050919050565b7f496e76616c696420636c61696d20666565000000000000000000000000000000600082015250565b6000615115601183614b3f565b9150615120826150df565b602082019050919050565b6000602082019050818103600083015261514481615108565b9050919050565b60006020828403121561516157615160613fd7565b5b600061516f848285016147a6565b91505092915050565b7f4e6f7420796f757220746f6b656e000000000000000000000000000000000000600082015250565b60006151ae600e83614b3f565b91506151b982615178565b602082019050919050565b600060208201905081810360008301526151dd816151a1565b9050919050565b7f43616e6e6f7420636c61696d206265666f726520454f42000000000000000000600082015250565b600061521a601783614b3f565b9150615225826151e4565b602082019050919050565b600060208201905081810360008301526152498161520d565b9050919050565b600082825260208201905092915050565b6000819050919050565b61527481614781565b82525050565b6000615286838361526b565b60208301905092915050565b60006152a160208401846147a6565b905092915050565b6000602082019050919050565b60006152c28385615250565b93506152cd82615261565b8060005b85811015615306576152e38284615292565b6152ed888261527a565b97506152f8836152a9565b9250506001810190506152d1565b5085925050509392505050565b6000606082019050615328600083018761461e565b818103602083015261533b8185876152b6565b905061534a60408301846146d0565b95945050505050565b60008151905061536281614729565b92915050565b60006020828403121561537e5761537d613fd7565b5b600061538c84828501615353565b91505092915050565b6000819050919050565b60006153ba6153b56153b084614781565b615395565b613fe1565b9050919050565b6153ca8161539f565b82525050565b60006020820190506153e560008301846153c1565b92915050565b6000815190506153fa8161440f565b92915050565b60006020828403121561541657615415613fd7565b5b6000615424848285016153eb565b91505092915050565b7f4e6f7420656c696769626c650000000000000000000000000000000000000000600082015250565b6000615463600c83614b3f565b915061546e8261542d565b602082019050919050565b6000602082019050818103600083015261549281615456565b9050919050565b7f4b69746368656e20737061636520726571756972656400000000000000000000600082015250565b60006154cf601683614b3f565b91506154da82615499565b602082019050919050565b600060208201905081810360008301526154fe816154c2565b9050919050565b600060608201905061551a600083018661461e565b615527602083018561461e565b61553460408301846153c1565b949350505050565b7f4f776e61626c653a206e6577206f776e657220697320746865207a65726f206160008201527f6464726573730000000000000000000000000000000000000000000000000000602082015250565b6000615598602683614b3f565b91506155a38261553c565b604082019050919050565b600060208201905081810360008301526155c78161558b565b9050919050565b7f496e697469616c697a61626c653a20636f6e7472616374206973206e6f74206960008201527f6e697469616c697a696e67000000000000000000000000000000000000000000602082015250565b600061562a602b83614b3f565b9150615635826155ce565b604082019050919050565b600060208201905081810360008301526156598161561d565b9050919050565b7f4f6e6c792044414f2063616e2065786563757465000000000000000000000000600082015250565b6000615696601483614b3f565b91506156a182615660565b602082019050919050565b600060208201905081810360008301526156c581615689565b9050919050565b7f5061757361626c653a206e6f7420706175736564000000000000000000000000600082015250565b6000615702601483614b3f565b915061570d826156cc565b602082019050919050565b60006020820190508181036000830152615731816156f5565b9050919050565b60008151905061574781614852565b92915050565b60008151905061575c81614279565b92915050565b600081519050615771816141a9565b92915050565b60008060008060008060008060008060006101608c8e03121561579d5761579c613fd7565b5b60006157ab8e828f01615738565b9b505060206157bc8e828f0161574d565b9a505060406157cd8e828f0161574d565b99505060606157de8e828f0161574d565b98505060806157ef8e828f0161574d565b97505060a06158008e828f0161574d565b96505060c06158118e828f0161574d565b95505060e06158228e828f0161574d565b9450506101006158348e828f0161574d565b9350506101206158468e828f0161574d565b9250506101406158588e828f01615762565b9150509295989b509295989b9093969950565b6158748161426c565b82525050565b600060608201905061588f600083018661461e565b61589c602083018561586b565b6158a960408301846145c7565b949350505050565b6000815190506158c0816142af565b92915050565b6000602082840312156158dc576158db613fd7565b5b60006158ea848285016158b1565b91505092915050565b6000819050919050565b600061591861591361590e846158f3565b615395565b613fe1565b9050919050565b615928816158fd565b82525050565b6000606082019050615943600083018661461e565b615950602083018561586b565b61595d604083018461591f565b949350505050565b600061597082613fe1565b9150600082141561598457615983614bbc565b5b600182039050919050565b600082825260208201905092915050565b50565b60006159b060008361598f565b91506159bb826159a0565b600082019050919050565b60006080820190506159db600083018661461e565b6159e8602083018561461e565b6159f560408301846145c7565b8181036060830152615a06816159a3565b9050949350505050565b600081519050919050565b60005b83811015615a39578082015181840152602081019050615a1e565b83811115615a48576000848401525b50505050565b6000615a5982615a10565b615a638185614b3f565b9350615a73818560208601615a1b565b615a7c8161401c565b840191505092915050565b600060e082019050615a9c600083018a6145c7565b615aa960208301896145c7565b615ab660408301886146d0565b615ac3606083018761586b565b615ad0608083018661586b565b81810360a0830152615ae28185615a4e565b9050615af160c08301846145c7565b98975050505050505050565b6000604082019050615b12600083018561461e565b615b1f60208301846145c7565b9392505050565b6000606082019050615b3b60008301866145c7565b615b48602083018561461e565b615b5560408301846145c7565b949350505050565b7f4e487b7100000000000000000000000000000000000000000000000000000000600052601260045260246000fd5b6000615b9782613fe1565b9150615ba283613fe1565b925082615bb257615bb1615b5d565b5b828204905092915050565b615bc68161419c565b82525050565b6000608082019050615be160008301876145c7565b615bee6020830186615bbd565b615bfb6040830185615bbd565b615c0860608301846145c7565b95945050505050565b600080fd5b600067ffffffffffffffff821115615c3157615c3061402d565b5b615c3a8261401c565b9050602081019050919050565b6000615c5a615c5584615c16565b61408d565b905082815260208101848484011115615c7657615c75615c11565b5b615c81848285615a1b565b509392505050565b600082601f830112615c9e57615c9d614017565b5b8151615cae848260208601615c47565b91505092915050565b600080600060608486031215615cd057615ccf613fd7565b5b6000615cde8682870161574d565b9350506020615cef8682870161574d565b925050604084015167ffffffffffffffff811115615d1057615d0f613fdc565b5b615d1c86828701615c89565b9150509250925092565b6000615d31826142a5565b9150615d3c836142a5565b9250827f7fffffffffffffffffffffffffffffffffffffffffffffffffffffffffffffff0482116000841360008413161615615d7b57615d7a614bbc565b5b817f80000000000000000000000000000000000000000000000000000000000000000583126000841260008413161615615db857615db7614bbc565b5b827f80000000000000000000000000000000000000000000000000000000000000000582126000841360008412161615615df557615df4614bbc565b5b827f7fffffffffffffffffffffffffffffffffffffffffffffffffffffffffffffff0582126000841260008412161615615e3257615e31614bbc565b5b828202905092915050565b6000615e488261426c565b9150615e538361426c565b925082821015615e6657615e65614bbc565b5b828203905092915050565b6000615e7c826142a5565b9150615e87836142a5565b925082615e9757615e96615b5d565b5b600160000383147f800000000000000000000000000000000000000000000000000000000000000083141615615ed057615ecf614bbc565b5b828205905092915050565b6000615ee6826142a5565b9150615ef1836142a5565b9250817f7fffffffffffffffffffffffffffffffffffffffffffffffffffffffffffffff03831360008312151615615f2c57615f2b614bbc565b5b817f8000000000000000000000000000000000000000000000000000000000000000038312600083121615615f6457615f63614bbc565b5b82820190509291505056fea2646970667358221220f90408c05e3a07508ad3ce2066c8b37da691e665bd1285775ff614f3d3edb02864736f6c634300080a0033",
  "immutableReferences": {},
  "source": "// SPDX-License-Identifier: MIT\n\npragma solidity ^0.8.0;\n\nimport \"./EntrepreneurKitchen.sol\";\nimport \"./GourmetFood.sol\";\nimport \"./IKitchenUsage.sol\";\n\ncontract LeStake is EntrepreneurKitchen {\n  GourmetFood foodToken; // Reference to the $GFOOD contract\n\n  function initialize(\n    address _character,\n    address _claim,\n    address _foodToken,\n    address _kitchenUsage\n  ) external initializer {\n    __Ownable_init();\n    __Pausable_init();\n\n    unaccountedRewards = 0;\n    foodTokensPerRat = 0;\n    lastClaimTimestamp = 0;\n    kitchenId = 2;\n\n    character = Character(_character);\n    claim = IClaim(_claim);\n    foodToken = GourmetFood(_foodToken);\n    kitchenUsage = IKitchenUsage(_kitchenUsage);\n  }\n\n  /**\n   * Allows DAO to update game parameters\n   */\n  function configure(\n    uint256 _foodTokenMaxSupply,\n    uint256[] memory _earningSettings, // dailyChefEarnings, ratTheftPercentage, vestingPeriod, accrualPeriod\n    int8[] memory _propertyIncrements, // dailySkillRate, dailyFreakRate, dailyIntelligenceRate, dailyBodyMassRate\n    uint8 _minEfficiency,\n    uint8 _chefEfficiencyMultiplier,\n    int256 _ratEfficiencyMultiplier,\n    int256 _ratEfficiencyOffset,\n    uint8 _maxClaimsPerTx,\n    uint256 _claimFee\n  ) external onlyOwner {\n    foodTokenMaxSupply = _foodTokenMaxSupply * 1 ether;\n    dailyChefEarnings = _earningSettings[0] * 1 ether;\n    ratTheftPercentage = _earningSettings[1];\n    vestingPeriod = _earningSettings[2];\n    accrualPeriod = _earningSettings[3];\n    dailySkillRate = _propertyIncrements[0];\n    dailyFreakRate = _propertyIncrements[1];\n    dailyIntelligenceRate = _propertyIncrements[2];\n    dailyBodyMassRate = _propertyIncrements[3];\n    minEfficiency = _minEfficiency;\n    chefEfficiencyMultiplier = _chefEfficiencyMultiplier;\n    ratEfficiencyMultiplier = _ratEfficiencyMultiplier;\n    ratEfficiencyOffset = _ratEfficiencyOffset;\n    maxClaimsPerTx = _maxClaimsPerTx;\n    claimFee = _claimFee;\n  }\n\n  /**\n   * Mints the given amount of food tokens in the user's account\n   * @param sender - User wallet address\n   * @param amount - Amount of food tokens to mint\n   */\n  function _mintFoodToken(address sender, uint256 amount) internal override {\n    foodToken.mint(sender, amount);\n  }\n}\n",
  "sourcePath": "/Users/chris/workspace/ratalert/ratalert-contracts/contracts/LeStake.sol",
  "compiler": {
    "name": "solc",
    "version": "0.8.10+commit.fc410830.Emscripten.clang"
  },
  "schemaVersion": "3.4.7",
  "updatedAt": "2022-05-25T15:21:24.428Z",
  "networkType": "ethereum",
  "devdoc": {
    "kind": "dev",
    "methods": {
      "claimMany(uint16[],bool)": {
        "params": {
          "tokenIds": "- The IDs of the tokens in question",
          "unstake": "- Whether or not to unstake the given tokens"
        }
      },
      "fulfillClaimMany((bytes32,address,address,uint16[],bool),uint256)": {
        "params": {
          "randomness": "- Random value created by VRF",
          "v": "- VRF struct for the corresponding request"
        }
      },
      "getChefsStaked(address)": {
        "params": {
          "account": "- User wallet address"
        },
        "returns": {
          "_0": "Number of chefs in staking"
        }
      },
      "owner()": {
        "details": "Returns the address of the current owner."
      },
      "paused()": {
        "details": "Returns true if the contract is paused, and false otherwise."
      },
      "renounceOwnership()": {
        "details": "Leaves the contract without owner. It will not be possible to call `onlyOwner` functions anymore. Can only be called by the current owner. NOTE: Renouncing ownership will leave the contract without an owner, thereby removing any functionality that is only available to the owner."
      },
      "stakeMany(address,uint16[])": {
        "params": {
          "account": "- User wallet address",
          "tokenIds": "- The IDs of the Chefs & Rats to stake"
        }
      },
      "transferOwnership(address)": {
        "details": "Transfers ownership of the contract to a new account (`newOwner`). Can only be called by the current owner."
      }
    },
    "version": 1
  },
  "userdoc": {
    "kind": "user",
    "methods": {
      "claimMany(uint16[],bool)": {
        "notice": "ChainLink VRF request: Claims food token earnings, level-ups and optionally unstake characters"
      },
      "configure(uint256,uint256[],int8[],uint8,uint8,int256,int256,uint8,uint256)": {
        "notice": "Allows DAO to update game parameters"
      },
      "fulfillClaimMany((bytes32,address,address,uint16[],bool),uint256)": {
        "notice": "Callback for claimMany(), called by Claim.fulfillRandomness()"
      },
      "getChefsStaked(address)": {
        "notice": "Get the amount of chefs the given account has in staking"
      },
      "onERC721Received(address,address,uint256,bytes)": {
        "notice": "IERC721ReceiverUpgradeable interface: We do not accept tokens sent directly"
      },
      "stakeMany(address,uint16[])": {
        "notice": "Adds Characters to staking"
      },
      "withdrawPayments()": {
        "notice": "Allows DAO to withdraw funds"
      }
    },
    "version": 1
  }
}