{
  "contractName": "LeStake",
  "abi": [
    {
      "anonymous": false,
      "inputs": [
        {
          "indexed": false,
          "internalType": "uint256",
          "name": "tokenId",
          "type": "uint256"
        },
        {
          "indexed": false,
          "internalType": "uint256",
          "name": "earned",
          "type": "uint256"
        },
        {
          "indexed": false,
          "internalType": "bool",
          "name": "unstaked",
          "type": "bool"
        },
        {
          "indexed": false,
          "internalType": "uint8",
          "name": "skill",
          "type": "uint8"
        },
        {
          "indexed": false,
          "internalType": "uint8",
          "name": "insanity",
          "type": "uint8"
        },
        {
          "indexed": false,
          "internalType": "string",
          "name": "eventName",
          "type": "string"
        },
        {
          "indexed": false,
          "internalType": "uint256",
          "name": "foodTokensPerRat",
          "type": "uint256"
        }
      ],
      "name": "ChefClaimed",
      "type": "event"
    },
    {
      "anonymous": false,
      "inputs": [
        {
          "indexed": true,
          "internalType": "address",
          "name": "previousOwner",
          "type": "address"
        },
        {
          "indexed": true,
          "internalType": "address",
          "name": "newOwner",
          "type": "address"
        }
      ],
      "name": "OwnershipTransferred",
      "type": "event"
    },
    {
      "anonymous": false,
      "inputs": [
        {
          "indexed": false,
          "internalType": "address",
          "name": "account",
          "type": "address"
        }
      ],
      "name": "Paused",
      "type": "event"
    },
    {
      "anonymous": false,
      "inputs": [
        {
          "indexed": false,
          "internalType": "uint256",
          "name": "tokenId",
          "type": "uint256"
        },
        {
          "indexed": false,
          "internalType": "uint256",
          "name": "earned",
          "type": "uint256"
        },
        {
          "indexed": false,
          "internalType": "bool",
          "name": "unstaked",
          "type": "bool"
        },
        {
          "indexed": false,
          "internalType": "uint8",
          "name": "intelligence",
          "type": "uint8"
        },
        {
          "indexed": false,
          "internalType": "uint8",
          "name": "fatness",
          "type": "uint8"
        },
        {
          "indexed": false,
          "internalType": "string",
          "name": "eventName",
          "type": "string"
        }
      ],
      "name": "RatClaimed",
      "type": "event"
    },
    {
      "anonymous": false,
      "inputs": [
        {
          "indexed": false,
          "internalType": "uint256",
          "name": "tokenId",
          "type": "uint256"
        },
        {
          "indexed": false,
          "internalType": "address",
          "name": "owner",
          "type": "address"
        },
        {
          "indexed": false,
          "internalType": "uint256",
          "name": "value",
          "type": "uint256"
        }
      ],
      "name": "TokenStaked",
      "type": "event"
    },
    {
      "anonymous": false,
      "inputs": [
        {
          "indexed": false,
          "internalType": "address",
          "name": "account",
          "type": "address"
        }
      ],
      "name": "Unpaused",
      "type": "event"
    },
    {
      "inputs": [],
      "name": "accrualPeriod",
      "outputs": [
        {
          "internalType": "uint256",
          "name": "",
          "type": "uint256"
        }
      ],
      "stateMutability": "view",
      "type": "function",
      "constant": true
    },
    {
      "inputs": [],
      "name": "charactersPerKitchen",
      "outputs": [
        {
          "internalType": "uint8",
          "name": "",
          "type": "uint8"
        }
      ],
      "stateMutability": "view",
      "type": "function",
      "constant": true
    },
    {
      "inputs": [],
      "name": "chefEfficiencyMultiplier",
      "outputs": [
        {
          "internalType": "uint8",
          "name": "",
          "type": "uint8"
        }
      ],
      "stateMutability": "view",
      "type": "function",
      "constant": true
    },
    {
      "inputs": [
        {
          "internalType": "uint256",
          "name": "",
          "type": "uint256"
        }
      ],
      "name": "chefs",
      "outputs": [
        {
          "internalType": "uint256",
          "name": "tokenId",
          "type": "uint256"
        },
        {
          "internalType": "address",
          "name": "owner",
          "type": "address"
        },
        {
          "internalType": "uint80",
          "name": "value",
          "type": "uint80"
        },
        {
          "internalType": "uint80",
          "name": "timestamp",
          "type": "uint80"
        }
      ],
      "stateMutability": "view",
      "type": "function",
      "constant": true
    },
    {
      "inputs": [],
      "name": "claim",
      "outputs": [
        {
          "internalType": "contract IClaim",
          "name": "",
          "type": "address"
        }
      ],
      "stateMutability": "view",
      "type": "function",
      "constant": true
    },
    {
      "inputs": [
        {
          "internalType": "uint16[]",
          "name": "tokenIds",
          "type": "uint16[]"
        },
        {
          "internalType": "bool",
          "name": "unstake",
          "type": "bool"
        }
      ],
      "name": "claimMany",
      "outputs": [],
      "stateMutability": "nonpayable",
      "type": "function"
    },
    {
      "inputs": [
        {
          "internalType": "bytes32",
          "name": "",
          "type": "bytes32"
        },
        {
          "internalType": "uint256",
          "name": "",
          "type": "uint256"
        }
      ],
      "name": "claimRequests",
      "outputs": [
        {
          "internalType": "uint16",
          "name": "",
          "type": "uint16"
        }
      ],
      "stateMutability": "view",
      "type": "function",
      "constant": true
    },
    {
      "inputs": [],
      "name": "dailyChefEarnings",
      "outputs": [
        {
          "internalType": "uint256",
          "name": "",
          "type": "uint256"
        }
      ],
      "stateMutability": "view",
      "type": "function",
      "constant": true
    },
    {
      "inputs": [],
      "name": "dailyFatnessRate",
      "outputs": [
        {
          "internalType": "int8",
          "name": "",
          "type": "int8"
        }
      ],
      "stateMutability": "view",
      "type": "function",
      "constant": true
    },
    {
      "inputs": [],
      "name": "dailyInsanityRate",
      "outputs": [
        {
          "internalType": "int8",
          "name": "",
          "type": "int8"
        }
      ],
      "stateMutability": "view",
      "type": "function",
      "constant": true
    },
    {
      "inputs": [],
      "name": "dailyIntelligenceRate",
      "outputs": [
        {
          "internalType": "int8",
          "name": "",
          "type": "int8"
        }
      ],
      "stateMutability": "view",
      "type": "function",
      "constant": true
    },
    {
      "inputs": [],
      "name": "dailySkillRate",
      "outputs": [
        {
          "internalType": "int8",
          "name": "",
          "type": "int8"
        }
      ],
      "stateMutability": "view",
      "type": "function",
      "constant": true
    },
    {
      "inputs": [],
      "name": "foodTokenMaxSupply",
      "outputs": [
        {
          "internalType": "uint256",
          "name": "",
          "type": "uint256"
        }
      ],
      "stateMutability": "view",
      "type": "function",
      "constant": true
    },
    {
      "inputs": [],
      "name": "foodTokensPerRat",
      "outputs": [
        {
          "internalType": "uint256",
          "name": "",
          "type": "uint256"
        }
      ],
      "stateMutability": "view",
      "type": "function",
      "constant": true
    },
    {
      "inputs": [
        {
          "components": [
            {
              "internalType": "bytes32",
              "name": "requestId",
              "type": "bytes32"
            },
            {
              "internalType": "address",
              "name": "venue",
              "type": "address"
            },
            {
              "internalType": "address",
              "name": "sender",
              "type": "address"
            },
            {
              "internalType": "uint16[]",
              "name": "tokenIds",
              "type": "uint16[]"
            },
            {
              "internalType": "bool",
              "name": "unstake",
              "type": "bool"
            }
          ],
          "internalType": "struct IClaim.VRFStruct",
          "name": "v",
          "type": "tuple"
        },
        {
          "internalType": "uint256",
          "name": "randomVal",
          "type": "uint256"
        }
      ],
      "name": "fulfillClaimMany",
      "outputs": [],
      "stateMutability": "nonpayable",
      "type": "function"
    },
    {
      "inputs": [
        {
          "internalType": "uint256",
          "name": "tokenId",
          "type": "uint256"
        }
      ],
      "name": "getProperties",
      "outputs": [
        {
          "internalType": "uint8",
          "name": "efficiency",
          "type": "uint8"
        },
        {
          "internalType": "uint8",
          "name": "tolerance",
          "type": "uint8"
        }
      ],
      "stateMutability": "view",
      "type": "function",
      "constant": true
    },
    {
      "inputs": [
        {
          "internalType": "uint256",
          "name": "tokenId",
          "type": "uint256"
        }
      ],
      "name": "isChef",
      "outputs": [
        {
          "internalType": "bool",
          "name": "chef",
          "type": "bool"
        }
      ],
      "stateMutability": "view",
      "type": "function",
      "constant": true
    },
    {
      "inputs": [],
      "name": "kitchenId",
      "outputs": [
        {
          "internalType": "uint8",
          "name": "",
          "type": "uint8"
        }
      ],
      "stateMutability": "view",
      "type": "function",
      "constant": true
    },
    {
      "inputs": [],
      "name": "lastClaimTimestamp",
      "outputs": [
        {
          "internalType": "uint256",
          "name": "",
          "type": "uint256"
        }
      ],
      "stateMutability": "view",
      "type": "function",
      "constant": true
    },
    {
      "inputs": [],
      "name": "minEfficiency",
      "outputs": [
        {
          "internalType": "uint8",
          "name": "",
          "type": "uint8"
        }
      ],
      "stateMutability": "view",
      "type": "function",
      "constant": true
    },
    {
      "inputs": [
        {
          "internalType": "address",
          "name": "",
          "type": "address"
        },
        {
          "internalType": "address",
          "name": "from",
          "type": "address"
        },
        {
          "internalType": "uint256",
          "name": "",
          "type": "uint256"
        },
        {
          "internalType": "bytes",
          "name": "",
          "type": "bytes"
        }
      ],
      "name": "onERC721Received",
      "outputs": [
        {
          "internalType": "bytes4",
          "name": "",
          "type": "bytes4"
        }
      ],
      "stateMutability": "pure",
      "type": "function",
      "constant": true
    },
    {
      "inputs": [],
      "name": "owner",
      "outputs": [
        {
          "internalType": "address",
          "name": "",
          "type": "address"
        }
      ],
      "stateMutability": "view",
      "type": "function",
      "constant": true
    },
    {
      "inputs": [],
      "name": "pause",
      "outputs": [],
      "stateMutability": "nonpayable",
      "type": "function"
    },
    {
      "inputs": [],
      "name": "paused",
      "outputs": [
        {
          "internalType": "bool",
          "name": "",
          "type": "bool"
        }
      ],
      "stateMutability": "view",
      "type": "function",
      "constant": true
    },
    {
      "inputs": [],
      "name": "ratEfficiencyMultiplier",
      "outputs": [
        {
          "internalType": "int256",
          "name": "",
          "type": "int256"
        }
      ],
      "stateMutability": "view",
      "type": "function",
      "constant": true
    },
    {
      "inputs": [],
      "name": "ratEfficiencyOffset",
      "outputs": [
        {
          "internalType": "int256",
          "name": "",
          "type": "int256"
        }
      ],
      "stateMutability": "view",
      "type": "function",
      "constant": true
    },
    {
      "inputs": [],
      "name": "ratTheftPercentage",
      "outputs": [
        {
          "internalType": "uint256",
          "name": "",
          "type": "uint256"
        }
      ],
      "stateMutability": "view",
      "type": "function",
      "constant": true
    },
    {
      "inputs": [
        {
          "internalType": "uint256",
          "name": "",
          "type": "uint256"
        }
      ],
      "name": "rats",
      "outputs": [
        {
          "internalType": "uint256",
          "name": "tokenId",
          "type": "uint256"
        },
        {
          "internalType": "address",
          "name": "owner",
          "type": "address"
        },
        {
          "internalType": "uint80",
          "name": "value",
          "type": "uint80"
        },
        {
          "internalType": "uint80",
          "name": "timestamp",
          "type": "uint80"
        }
      ],
      "stateMutability": "view",
      "type": "function",
      "constant": true
    },
    {
      "inputs": [],
      "name": "renounceOwnership",
      "outputs": [],
      "stateMutability": "nonpayable",
      "type": "function"
    },
    {
      "inputs": [
        {
          "internalType": "address",
          "name": "account",
          "type": "address"
        },
        {
          "internalType": "uint16[]",
          "name": "tokenIds",
          "type": "uint16[]"
        }
      ],
      "name": "stakeMany",
      "outputs": [],
      "stateMutability": "nonpayable",
      "type": "function"
    },
    {
      "inputs": [
        {
          "internalType": "address",
          "name": "",
          "type": "address"
        },
        {
          "internalType": "uint256",
          "name": "",
          "type": "uint256"
        }
      ],
      "name": "stakers",
      "outputs": [
        {
          "internalType": "uint256",
          "name": "",
          "type": "uint256"
        }
      ],
      "stateMutability": "view",
      "type": "function",
      "constant": true
    },
    {
      "inputs": [],
      "name": "totalChefsStaked",
      "outputs": [
        {
          "internalType": "uint256",
          "name": "",
          "type": "uint256"
        }
      ],
      "stateMutability": "view",
      "type": "function",
      "constant": true
    },
    {
      "inputs": [],
      "name": "totalFoodTokensEarned",
      "outputs": [
        {
          "internalType": "uint256",
          "name": "",
          "type": "uint256"
        }
      ],
      "stateMutability": "view",
      "type": "function",
      "constant": true
    },
    {
      "inputs": [],
      "name": "totalRatsStaked",
      "outputs": [
        {
          "internalType": "uint256",
          "name": "",
          "type": "uint256"
        }
      ],
      "stateMutability": "view",
      "type": "function",
      "constant": true
    },
    {
      "inputs": [
        {
          "internalType": "address",
          "name": "newOwner",
          "type": "address"
        }
      ],
      "name": "transferOwnership",
      "outputs": [],
      "stateMutability": "nonpayable",
      "type": "function"
    },
    {
      "inputs": [],
      "name": "unaccountedRewards",
      "outputs": [
        {
          "internalType": "uint256",
          "name": "",
          "type": "uint256"
        }
      ],
      "stateMutability": "view",
      "type": "function",
      "constant": true
    },
    {
      "inputs": [],
      "name": "unpause",
      "outputs": [],
      "stateMutability": "nonpayable",
      "type": "function"
    },
    {
      "inputs": [],
      "name": "vestingPeriod",
      "outputs": [
        {
          "internalType": "uint256",
          "name": "",
          "type": "uint256"
        }
      ],
      "stateMutability": "view",
      "type": "function",
      "constant": true
    },
    {
      "inputs": [
        {
          "internalType": "address",
          "name": "_character",
          "type": "address"
        },
        {
          "internalType": "address",
          "name": "_claim",
          "type": "address"
        },
        {
          "internalType": "uint256",
          "name": "_accrualPeriod",
          "type": "uint256"
        }
      ],
      "name": "initialize",
      "outputs": [],
      "stateMutability": "nonpayable",
      "type": "function"
    },
    {
      "inputs": [],
      "name": "initialize",
      "outputs": [],
      "stateMutability": "nonpayable",
      "type": "function"
    },
    {
      "inputs": [
        {
          "internalType": "address",
          "name": "_character",
          "type": "address"
        },
        {
          "internalType": "address",
          "name": "_claim",
          "type": "address"
        },
        {
          "internalType": "address",
          "name": "_foodToken",
          "type": "address"
        },
        {
          "internalType": "address",
          "name": "_kitchenShop",
          "type": "address"
        }
      ],
      "name": "initialize",
      "outputs": [],
      "stateMutability": "nonpayable",
      "type": "function"
    },
    {
      "inputs": [
        {
          "internalType": "uint256",
          "name": "_foodTokenMaxSupply",
          "type": "uint256"
        },
        {
          "internalType": "uint256[]",
          "name": "_earningSettings",
          "type": "uint256[]"
        },
        {
          "internalType": "int8[]",
          "name": "_propertyIncrements",
          "type": "int8[]"
        },
        {
          "internalType": "uint8",
          "name": "_minEfficiency",
          "type": "uint8"
        },
        {
          "internalType": "uint8",
          "name": "_charactersPerKitchen",
          "type": "uint8"
        },
        {
          "internalType": "uint8",
          "name": "_chefEfficiencyMultiplier",
          "type": "uint8"
        },
        {
          "internalType": "int256",
          "name": "_ratEfficiencyMultiplier",
          "type": "int256"
        },
        {
          "internalType": "int256",
          "name": "_ratEfficiencyOffset",
          "type": "int256"
        }
      ],
      "name": "configure",
      "outputs": [],
      "stateMutability": "nonpayable",
      "type": "function"
    }
  ],
  "bytecode": "0x608060405234801561001057600080fd5b50615de280620000216000396000f3fe608060405234801561001057600080fd5b506004361061025e5760003560e01c80638456cb5911610146578063c8b6cbf7116100c3578063ef9f800f11610087578063ef9f800f146106b6578063f03a1b78146106e6578063f266674614610702578063f2fde38b14610720578063f66641551461073c578063f8c8765e1461075a5761025e565b8063c8b6cbf714610610578063cba88af814610640578063d7178ac61461065e578063d8dda92e1461067c578063dbdc1f6b1461069a5761025e565b80639786e4d41161010a5780639786e4d41461057c578063a262c0ad1461059a578063a7a10290146105b8578063bdb62941146105d4578063c0c472c0146105f25761025e565b80638456cb59146104fc5780638da5cb5b1461050657806391ba3f3f14610524578063922a1802146105425780639317f7f81461055e5761025e565b806335ec066e116101df578063525e915b116101a3578063525e915b1461045e5780635c975abb1461048e578063607af397146104ac578063715018a6146104ca5780637313ee5a146104d45780638129fc1c146104f25761025e565b806335ec066e146103b25780633f4ba83a146103e5578063499f8010146103ef5780634d1c61af1461040d5780634e71d92d146104405761025e565b80631b4d47a1116102265780631b4d47a1146103095780631b8ca217146103275780632535a77f146103585780632d79320b146103765780632e2ce28b146103945761025e565b8063051d1d491461026357806310d53df114610281578063138e6ad51461029f578063150b7a02146102bd5780631794bb3c146102ed575b600080fd5b61026b610776565b6040516102789190613e55565b60405180910390f35b610289610789565b6040516102969190613e8c565b60405180910390f35b6102a761079c565b6040516102b49190613ec0565b60405180910390f35b6102d760048036038101906102d29190613fe8565b6107a2565b6040516102e491906140ab565b60405180910390f35b610307600480360381019061030291906140c6565b610825565b005b610311610a21565b60405161031e9190614128565b60405180910390f35b610341600480360381019061033c9190614143565b610a27565b60405161034f929190614170565b60405180910390f35b610360610b08565b60405161036d9190614128565b60405180910390f35b61037e610b0e565b60405161038b9190613e55565b60405180910390f35b61039c610b21565b6040516103a99190614128565b60405180910390f35b6103cc60048036038101906103c79190614143565b610b27565b6040516103dc94939291906141cd565b60405180910390f35b6103ed610ba3565b005b6103f7610c29565b6040516104049190614128565b60405180910390f35b61042760048036038101906104229190614143565b610c2f565b60405161043794939291906141cd565b60405180910390f35b610448610cab565b6040516104559190614271565b60405180910390f35b610478600480360381019061047391906142c2565b610cd1565b604051610485919061431f565b60405180910390f35b610496610d18565b6040516104a39190614355565b60405180910390f35b6104b4610d2f565b6040516104c19190614128565b60405180910390f35b6104d2610d35565b005b6104dc610dbd565b6040516104e99190614128565b60405180910390f35b6104fa610dc3565b005b610504610eb7565b005b61050e610f3d565b60405161051b9190614370565b60405180910390f35b61052c610f67565b6040516105399190614128565b60405180910390f35b61055c600480360381019061055791906145e4565b610f6d565b005b6105666114d9565b6040516105739190613e55565b60405180910390f35b6105846114ec565b6040516105919190613e55565b60405180910390f35b6105a26114ff565b6040516105af9190613e8c565b60405180910390f35b6105d260048036038101906105cd9190614696565b611512565b005b6105dc6118c7565b6040516105e99190613e8c565b60405180910390f35b6105fa6118da565b6040516106079190614128565b60405180910390f35b61062a600480360381019061062591906146f6565b6118e0565b6040516106379190614128565b60405180910390f35b610648611911565b6040516106559190613e8c565b60405180910390f35b610666611924565b6040516106739190613ec0565b60405180910390f35b61068461192a565b6040516106919190614128565b60405180910390f35b6106b460048036038101906106af9190614736565b611930565b005b6106d060048036038101906106cb9190614143565b611ebd565b6040516106dd9190614355565b60405180910390f35b61070060048036038101906106fb91906149a0565b611f92565b005b61070a612210565b6040516107179190614128565b60405180910390f35b61073a60048036038101906107359190614a8e565b612216565b005b61074461230e565b6040516107519190614128565b60405180910390f35b610774600480360381019061076f9190614abb565b612314565b005b60ac60169054906101000a900460ff1681565b609d60009054906101000a900460000b81565b60aa5481565b60008073ffffffffffffffffffffffffffffffffffffffff168573ffffffffffffffffffffffffffffffffffffffff1614610812576040517f08c379a000000000000000000000000000000000000000000000000000000000815260040161080990614ba5565b60405180910390fd5b63150b7a0260e01b905095945050505050565b600060019054906101000a900460ff1661084d5760008054906101000a900460ff1615610856565b610855612544565b5b610895576040517f08c379a000000000000000000000000000000000000000000000000000000000815260040161088c90614c37565b60405180910390fd5b60008060019054906101000a900460ff1615905080156108e5576001600060016101000a81548160ff02191690831515021790555060016000806101000a81548160ff0219169083151502179055505b6108ed612555565b6108f56125b6565b83609760006101000a81548173ffffffffffffffffffffffffffffffffffffffff021916908373ffffffffffffffffffffffffffffffffffffffff16021790555082609860006101000a81548173ffffffffffffffffffffffffffffffffffffffff021916908373ffffffffffffffffffffffffffffffffffffffff1602179055508160a0819055506000609d60006101000a81548160ff021916908360000b60ff1602179055506000609d60016101000a81548160ff021916908360000b60ff1602179055506000609d60026101000a81548160ff021916908360000b60ff1602179055506000609d60036101000a81548160ff021916908360000b60ff1602179055508015610a1b5760008060016101000a81548160ff0219169083151502179055505b50505050565b60a35481565b600080609760009054906101000a900473ffffffffffffffffffffffffffffffffffffffff1673ffffffffffffffffffffffffffffffffffffffff1663e05c57bf846040518263ffffffff1660e01b8152600401610a859190614128565b61014060405180830381865afa158015610aa3573d6000803e3d6000fd5b505050506040513d601f19601f82011682018060405250810190610ac79190614c81565b909192939495969798509091929394959697509091929394959650909192939495509091929394509091929350909192509091508092508193505050915091565b60a15481565b60a960009054906101000a900460ff1681565b60a55481565b609a6020528060005260406000206000915090508060000154908060010160009054906101000a900473ffffffffffffffffffffffffffffffffffffffff16908060010160149054906101000a900469ffffffffffffffffffff16908060020160009054906101000a900469ffffffffffffffffffff16905084565b610bab612617565b73ffffffffffffffffffffffffffffffffffffffff16610bc9610f3d565b73ffffffffffffffffffffffffffffffffffffffff1614610c1f576040517f08c379a0000000000000000000000000000000000000000000000000000000008152600401610c1690614dac565b60405180910390fd5b610c2761261f565b565b609f5481565b60996020528060005260406000206000915090508060000154908060010160009054906101000a900473ffffffffffffffffffffffffffffffffffffffff16908060010160149054906101000a900469ffffffffffffffffffff16908060020160009054906101000a900469ffffffffffffffffffff16905084565b609860009054906101000a900473ffffffffffffffffffffffffffffffffffffffff1681565b609c6020528160005260406000208181548110610ced57600080fd5b9060005260206000209060109182820401919006600202915091509054906101000a900461ffff1681565b6000606560009054906101000a900460ff16905090565b60a85481565b610d3d612617565b73ffffffffffffffffffffffffffffffffffffffff16610d5b610f3d565b73ffffffffffffffffffffffffffffffffffffffff1614610db1576040517f08c379a0000000000000000000000000000000000000000000000000000000008152600401610da890614dac565b60405180910390fd5b610dbb60006126c1565b565b60a25481565b600060019054906101000a900460ff16610deb5760008054906101000a900460ff1615610df4565b610df3612544565b5b610e33576040517f08c379a0000000000000000000000000000000000000000000000000000000008152600401610e2a90614c37565b60405180910390fd5b60008060019054906101000a900460ff161590508015610e83576001600060016101000a81548160ff02191690831515021790555060016000806101000a81548160ff0219169083151502179055505b610e8b612555565b610e936125b6565b8015610eb45760008060016101000a81548160ff0219169083151502179055505b50565b610ebf612617565b73ffffffffffffffffffffffffffffffffffffffff16610edd610f3d565b73ffffffffffffffffffffffffffffffffffffffff1614610f33576040517f08c379a0000000000000000000000000000000000000000000000000000000008152600401610f2a90614dac565b60405180910390fd5b610f3b612787565b565b6000603360009054906101000a900473ffffffffffffffffffffffffffffffffffffffff16905090565b60a45481565b610f75610d18565b15610fb5576040517f08c379a0000000000000000000000000000000000000000000000000000000008152600401610fac90614e18565b60405180910390fd5b609860009054906101000a900473ffffffffffffffffffffffffffffffffffffffff1673ffffffffffffffffffffffffffffffffffffffff163373ffffffffffffffffffffffffffffffffffffffff1614611045576040517f08c379a000000000000000000000000000000000000000000000000000000000815260040161103c90614e84565b60405180910390fd5b6000609c60008460000151815260200190815260200160002080549050116110a2576040517f08c379a000000000000000000000000000000000000000000000000000000000815260040161109990614ef0565b60405180910390fd5b6000609c60008460000151815260200190815260200160002080548060200260200160405190810160405280929190818152602001828054801561112d57602002820191906000526020600020906000905b82829054906101000a900461ffff1661ffff16815260200190600201906020826001010492830192600103820291508084116110f45790505b50505050509050609c60008460000151815260200190815260200160002060006111579190613d46565b6000805b82518110156114ba5760006111758660400151600061282a565b905061119e84838151811061118d5761118c614f10565b5b602002602001015161ffff16611ebd565b156111f2576111e08483815181106111b9576111b8614f10565b5b602002602001015161ffff1687604001518315806111d8575088608001515b841589612952565b836111eb9190614f6e565b925061123d565b61122f84838151811061120857611207614f10565b5b602002602001015161ffff168760400151831580611227575088608001515b841589612dfc565b8361123a9190614f6e565b92505b60005b609b6000886040015173ffffffffffffffffffffffffffffffffffffffff1673ffffffffffffffffffffffffffffffffffffffff168152602001908152602001600020805490508110156114a5578483815181106112a1576112a0614f10565b5b602002602001015161ffff16609b6000896040015173ffffffffffffffffffffffffffffffffffffffff1673ffffffffffffffffffffffffffffffffffffffff168152602001908152602001600020828154811061130257611301614f10565b5b9060005260206000200154141561149257609b6000886040015173ffffffffffffffffffffffffffffffffffffffff1673ffffffffffffffffffffffffffffffffffffffff1681526020019081526020016000206001609b60008a6040015173ffffffffffffffffffffffffffffffffffffffff1673ffffffffffffffffffffffffffffffffffffffff168152602001908152602001600020805490506113a99190614fc4565b815481106113ba576113b9614f10565b5b9060005260206000200154609b6000896040015173ffffffffffffffffffffffffffffffffffffffff1673ffffffffffffffffffffffffffffffffffffffff168152602001908152602001600020828154811061141a57611419614f10565b5b9060005260206000200181905550609b6000886040015173ffffffffffffffffffffffffffffffffffffffff1673ffffffffffffffffffffffffffffffffffffffff16815260200190815260200160002080548061147b5761147a614ff8565b5b600190038181906000526020600020016000905590555b808061149d90615027565b915050611240565b505080806114b290615027565b91505061115b565b5060008111156114d3576114d28460400151826132a9565b5b50505050565b60ac60149054906101000a900460ff1681565b60ac60159054906101000a900460ff1681565b609d60029054906101000a900460000b81565b61151a610d18565b1561155a576040517f08c379a000000000000000000000000000000000000000000000000000000000815260040161155190614e18565b60405180910390fd5b60005b838390508110156117ee57600061159e8585848181106115805761157f614f10565b5b90506020020160208101906115959190615070565b61ffff16611ebd565b6115e557609a60008686858181106115b9576115b8614f10565b5b90506020020160208101906115ce9190615070565b61ffff168152602001908152602001600020611624565b609960008686858181106115fc576115fb614f10565b5b90506020020160208101906116119190615070565b61ffff1681526020019081526020016000205b604051806080016040529081600082015481526020016001820160009054906101000a900473ffffffffffffffffffffffffffffffffffffffff1673ffffffffffffffffffffffffffffffffffffffff1673ffffffffffffffffffffffffffffffffffffffff1681526020016001820160149054906101000a900469ffffffffffffffffffff1669ffffffffffffffffffff1669ffffffffffffffffffff1681526020016002820160009054906101000a900469ffffffffffffffffffff1669ffffffffffffffffffff1669ffffffffffffffffffff16815250509050611709612617565b73ffffffffffffffffffffffffffffffffffffffff16816020015173ffffffffffffffffffffffffffffffffffffffff161461177a576040517f08c379a0000000000000000000000000000000000000000000000000000000008152600401611771906150e9565b60405180910390fd5b60a254816060015169ffffffffffffffffffff16426117999190614fc4565b10156117da576040517f08c379a00000000000000000000000000000000000000000000000000000000081526004016117d190615155565b60405180910390fd5b5080806117e690615027565b91505061155d565b506000609860009054906101000a900473ffffffffffffffffffffffffffffffffffffffff1673ffffffffffffffffffffffffffffffffffffffff16635bdf263c611837612617565b8686866040518563ffffffff1660e01b81526004016118599493929190615238565b6020604051808303816000875af1158015611878573d6000803e3d6000fd5b505050506040513d601f19601f8201168201806040525081019061189c919061528d565b90508383609c600084815260200190815260200160002091906118c0929190613d6e565b5050505050565b609d60019054906101000a900460000b81565b60a65481565b609b60205281600052604060002081815481106118fc57600080fd5b90600052602060002001600091509150505481565b609d60039054906101000a900460000b81565b60ab5481565b60a75481565b611938612617565b73ffffffffffffffffffffffffffffffffffffffff168373ffffffffffffffffffffffffffffffffffffffff1614806119c55750609760009054906101000a900473ffffffffffffffffffffffffffffffffffffffff1673ffffffffffffffffffffffffffffffffffffffff166119ad612617565b73ffffffffffffffffffffffffffffffffffffffff16145b611a04576040517f08c379a00000000000000000000000000000000000000000000000000000000081526004016119fb90615306565b60405180910390fd5b611a18611a0f612617565b8383905061282a565b611a57576040517f08c379a0000000000000000000000000000000000000000000000000000000008152600401611a4e90615372565b60405180910390fd5b60005b82829050811015611eb757609760009054906101000a900473ffffffffffffffffffffffffffffffffffffffff1673ffffffffffffffffffffffffffffffffffffffff16611aa6612617565b73ffffffffffffffffffffffffffffffffffffffff1614611cbc57611ac9612617565b73ffffffffffffffffffffffffffffffffffffffff16609760009054906101000a900473ffffffffffffffffffffffffffffffffffffffff1673ffffffffffffffffffffffffffffffffffffffff16636352211e858585818110611b3057611b2f614f10565b5b9050602002016020810190611b459190615070565b6040518263ffffffff1660e01b8152600401611b6191906153c3565b602060405180830381865afa158015611b7e573d6000803e3d6000fd5b505050506040513d601f19601f82011682018060405250810190611ba291906153f3565b73ffffffffffffffffffffffffffffffffffffffff1614611bf8576040517f08c379a0000000000000000000000000000000000000000000000000000000008152600401611bef906150e9565b60405180910390fd5b609760009054906101000a900473ffffffffffffffffffffffffffffffffffffffff1673ffffffffffffffffffffffffffffffffffffffff166323b872dd611c3e612617565b30868686818110611c5257611c51614f10565b5b9050602002016020810190611c679190615070565b6040518463ffffffff1660e01b8152600401611c8593929190615420565b600060405180830381600087803b158015611c9f57600080fd5b505af1158015611cb3573d6000803e3d6000fd5b50505050611cf6565b6000838383818110611cd157611cd0614f10565b5b9050602002016020810190611ce69190615070565b61ffff161415611cf557611ea4565b5b611d2a838383818110611d0c57611d0b614f10565b5b9050602002016020810190611d219190615070565b61ffff1661333c565b611d69576040517f08c379a0000000000000000000000000000000000000000000000000000000008152600401611d60906154a3565b60405180910390fd5b611d9d838383818110611d7f57611d7e614f10565b5b9050602002016020810190611d949190615070565b61ffff16611ebd565b15611ddc57611dd784848484818110611db957611db8614f10565b5b9050602002016020810190611dce9190615070565b61ffff1661336c565b611e12565b611e1184848484818110611df357611df2614f10565b5b9050602002016020810190611e089190615070565b61ffff1661352b565b5b609b60008573ffffffffffffffffffffffffffffffffffffffff1673ffffffffffffffffffffffffffffffffffffffff168152602001908152602001600020838383818110611e6457611e63614f10565b5b9050602002016020810190611e799190615070565b908060018154018082558091505060019003906000526020600020016000909161ffff169091909150555b8080611eaf90615027565b915050611a5a565b50505050565b6000609760009054906101000a900473ffffffffffffffffffffffffffffffffffffffff1673ffffffffffffffffffffffffffffffffffffffff1663e05c57bf836040518263ffffffff1660e01b8152600401611f1a9190614128565b61014060405180830381865afa158015611f38573d6000803e3d6000fd5b505050506040513d601f19601f82011682018060405250810190611f5c9190614c81565b90919293949596975090919293949596509091929394955090919293945090919293509091925090915090505080915050919050565b611f9a612617565b73ffffffffffffffffffffffffffffffffffffffff16611fb8610f3d565b73ffffffffffffffffffffffffffffffffffffffff161461200e576040517f08c379a000000000000000000000000000000000000000000000000000000000815260040161200590614dac565b60405180910390fd5b670de0b6b3a76400008861202291906154c3565b60a381905550670de0b6b3a76400008760008151811061204557612044614f10565b5b602002602001015161205791906154c3565b60a4819055508660018151811061207157612070614f10565b5b602002602001015160a5819055508660028151811061209357612092614f10565b5b602002602001015160a281905550866003815181106120b5576120b4614f10565b5b602002602001015160a081905550856000815181106120d7576120d6614f10565b5b6020026020010151609d60006101000a81548160ff021916908360000b60ff160217905550856001815181106121105761210f614f10565b5b6020026020010151609d60016101000a81548160ff021916908360000b60ff1602179055508560028151811061214957612148614f10565b5b6020026020010151609d60026101000a81548160ff021916908360000b60ff1602179055508560038151811061218257612181614f10565b5b6020026020010151609d60036101000a81548160ff021916908360000b60ff1602179055508460ac60166101000a81548160ff021916908360ff1602179055508360ac60156101000a81548160ff021916908360ff1602179055508260a960006101000a81548160ff021916908360ff1602179055508160aa819055508060ab819055505050505050505050565b609e5481565b61221e612617565b73ffffffffffffffffffffffffffffffffffffffff1661223c610f3d565b73ffffffffffffffffffffffffffffffffffffffff1614612292576040517f08c379a000000000000000000000000000000000000000000000000000000000815260040161228990614dac565b60405180910390fd5b600073ffffffffffffffffffffffffffffffffffffffff168173ffffffffffffffffffffffffffffffffffffffff161415612302576040517f08c379a00000000000000000000000000000000000000000000000000000000081526004016122f99061558f565b60405180910390fd5b61230b816126c1565b50565b60a05481565b600060019054906101000a900460ff1661233c5760008054906101000a900460ff1615612345565b612344612544565b5b612384576040517f08c379a000000000000000000000000000000000000000000000000000000000815260040161237b90614c37565b60405180910390fd5b60008060019054906101000a900460ff1615905080156123d4576001600060016101000a81548160ff02191690831515021790555060016000806101000a81548160ff0219169083151502179055505b6123dc612555565b6123e46125b6565b600060a681905550600060a181905550600060a881905550600260ac60146101000a81548160ff021916908360ff16021790555084609760006101000a81548173ffffffffffffffffffffffffffffffffffffffff021916908373ffffffffffffffffffffffffffffffffffffffff16021790555083609860006101000a81548173ffffffffffffffffffffffffffffffffffffffff021916908373ffffffffffffffffffffffffffffffffffffffff1602179055508260ad60006101000a81548173ffffffffffffffffffffffffffffffffffffffff021916908373ffffffffffffffffffffffffffffffffffffffff1602179055508160ac60006101000a81548173ffffffffffffffffffffffffffffffffffffffff021916908373ffffffffffffffffffffffffffffffffffffffff160217905550801561253d5760008060016101000a81548160ff0219169083151502179055505b5050505050565b600061254f306136f3565b15905090565b600060019054906101000a900460ff166125a4576040517f08c379a000000000000000000000000000000000000000000000000000000000815260040161259b90615621565b60405180910390fd5b6125ac613706565b6125b4613757565b565b600060019054906101000a900460ff16612605576040517f08c379a00000000000000000000000000000000000000000000000000000000081526004016125fc90615621565b60405180910390fd5b61260d613706565b6126156137b8565b565b600033905090565b612627610d18565b612666576040517f08c379a000000000000000000000000000000000000000000000000000000000815260040161265d9061568d565b60405180910390fd5b6000606560006101000a81548160ff0219169083151502179055507f5db9ee0a495bf2e6ff9c91a7834c1ba4fdd244a5e8aa4e537bd38aeae4b073aa6126aa612617565b6040516126b79190614370565b60405180910390a1565b6000603360009054906101000a900473ffffffffffffffffffffffffffffffffffffffff16905081603360006101000a81548173ffffffffffffffffffffffffffffffffffffffff021916908373ffffffffffffffffffffffffffffffffffffffff1602179055508173ffffffffffffffffffffffffffffffffffffffff168173ffffffffffffffffffffffffffffffffffffffff167f8be0079c531659141344cd1fd0a4f28419497f9722a3daafe3b4186f6b6457e060405160405180910390a35050565b61278f610d18565b156127cf576040517f08c379a00000000000000000000000000000000000000000000000000000000081526004016127c690614e18565b60405180910390fd5b6001606560006101000a81548160ff0219169083151502179055507f62e78cea01bee320cd4e420270b5ea74000d11b0c9f74754ebdbfc544b05a258612813612617565b6040516128209190614370565b60405180910390a1565b60008060ac60009054906101000a900473ffffffffffffffffffffffffffffffffffffffff1673ffffffffffffffffffffffffffffffffffffffff1662fdd58e8560ac60149054906101000a900460ff166040518363ffffffff1660e01b81526004016128989291906156de565b602060405180830381865afa1580156128b5573d6000803e3d6000fd5b505050506040513d601f19601f820116820180604052508101906128d9919061571c565b905082609b60008673ffffffffffffffffffffffffffffffffffffffff1673ffffffffffffffffffffffffffffffffffffffff168152602001908152602001600020805490506129299190614f6e565b60ac60159054906101000a900460ff1660ff168261294791906154c3565b101591505092915050565b60008060996000888152602001908152602001600020604051806080016040529081600082015481526020016001820160009054906101000a900473ffffffffffffffffffffffffffffffffffffffff1673ffffffffffffffffffffffffffffffffffffffff1673ffffffffffffffffffffffffffffffffffffffff1681526020016001820160149054906101000a900469ffffffffffffffffffff1669ffffffffffffffffffff1669ffffffffffffffffffff1681526020016002820160009054906101000a900469ffffffffffffffffffff1669ffffffffffffffffffff1669ffffffffffffffffffff168152505090508573ffffffffffffffffffffffffffffffffffffffff16816020015173ffffffffffffffffffffffffffffffffffffffff1614612ab7576040517f08c379a0000000000000000000000000000000000000000000000000000000008152600401612aae906150e9565b60405180910390fd5b60a254816060015169ffffffffffffffffffff1642612ad69190614fc4565b1015612b17576040517f08c379a0000000000000000000000000000000000000000000000000000000008152600401612b0e90615155565b60405180910390fd5b83612b2a57612b2581613824565b612b2d565b60005b91506000806000612b3e8a87613972565b925092509250612b4d8a61333c565b612b5657600197505b8715612c8957609760009054906101000a900473ffffffffffffffffffffffffffffffffffffffff1673ffffffffffffffffffffffffffffffffffffffff1663b88d4fde308b8d6040518463ffffffff1660e01b8152600401612bbb93929190615780565b600060405180830381600087803b158015612bd557600080fd5b505af1158015612be9573d6000803e3d6000fd5b50505050609960008b81526020019081526020016000206000808201600090556001820160006101000a81549073ffffffffffffffffffffffffffffffffffffffff02191690556001820160146101000a81549069ffffffffffffffffffff02191690556002820160006101000a81549069ffffffffffffffffffff02191690555050609e6000815480929190612c7f906157ca565b9190505550612daa565b60405180608001604052808b61ffff1681526020018a73ffffffffffffffffffffffffffffffffffffffff1681526020014269ffffffffffffffffffff1681526020014269ffffffffffffffffffff16815250609960008c81526020019081526020016000206000820151816000015560208201518160010160006101000a81548173ffffffffffffffffffffffffffffffffffffffff021916908373ffffffffffffffffffffffffffffffffffffffff16021790555060408201518160010160146101000a81548169ffffffffffffffffffff021916908369ffffffffffffffffffff16021790555060608201518160020160006101000a81548169ffffffffffffffffffff021916908369ffffffffffffffffffff1602179055509050505b7f9b394c66bc4fdb2f56f5842a796076e6552d6f15eaacb6e63e3c53b474d872e98a868a86868660a154604051612de7979695949392919061586b565b60405180910390a15050505095945050505050565b600080609a6000888152602001908152602001600020604051806080016040529081600082015481526020016001820160009054906101000a900473ffffffffffffffffffffffffffffffffffffffff1673ffffffffffffffffffffffffffffffffffffffff1673ffffffffffffffffffffffffffffffffffffffff1681526020016001820160149054906101000a900469ffffffffffffffffffff1669ffffffffffffffffffff1669ffffffffffffffffffff1681526020016002820160009054906101000a900469ffffffffffffffffffff1669ffffffffffffffffffff1669ffffffffffffffffffff168152505090508573ffffffffffffffffffffffffffffffffffffffff16816020015173ffffffffffffffffffffffffffffffffffffffff1614612f61576040517f08c379a0000000000000000000000000000000000000000000000000000000008152600401612f58906150e9565b60405180910390fd5b60a254816060015169ffffffffffffffffffff1642612f809190614fc4565b1015612fc1576040517f08c379a0000000000000000000000000000000000000000000000000000000008152600401612fb890615155565b60405180910390fd5b83612fd457612fcf81613b30565b612fd7565b60005b91506000806000612fe88a87613972565b925092509250612ff78a61333c565b61300057600197505b871561313357609760009054906101000a900473ffffffffffffffffffffffffffffffffffffffff1673ffffffffffffffffffffffffffffffffffffffff1663b88d4fde308b8d6040518463ffffffff1660e01b815260040161306593929190615780565b600060405180830381600087803b15801561307f57600080fd5b505af1158015613093573d6000803e3d6000fd5b50505050609a60008b81526020019081526020016000206000808201600090556001820160006101000a81549073ffffffffffffffffffffffffffffffffffffffff02191690556001820160146101000a81549069ffffffffffffffffffff02191690556002820160006101000a81549069ffffffffffffffffffff02191690555050609f6000815480929190613129906157ca565b919050555061325b565b60405180608001604052808b61ffff1681526020018a73ffffffffffffffffffffffffffffffffffffffff16815260200161316c613c44565b69ffffffffffffffffffff1681526020014269ffffffffffffffffffff16815250609a60008c81526020019081526020016000206000820151816000015560208201518160010160006101000a81548173ffffffffffffffffffffffffffffffffffffffff021916908373ffffffffffffffffffffffffffffffffffffffff16021790555060408201518160010160146101000a81548169ffffffffffffffffffff021916908369ffffffffffffffffffff16021790555060608201518160020160006101000a81548169ffffffffffffffffffff021916908369ffffffffffffffffffff1602179055509050505b7f6e949c62565860afb9dd6295e998a1c40005fe9560aedf8d596717681cfc7a1f8a868a868686604051613294969594939291906158e1565b60405180910390a15050505095945050505050565b60ad60009054906101000a900473ffffffffffffffffffffffffffffffffffffffff1673ffffffffffffffffffffffffffffffffffffffff166340c10f1983836040518363ffffffff1660e01b8152600401613306929190615949565b600060405180830381600087803b15801561332057600080fd5b505af1158015613334573d6000803e3d6000fd5b505050505050565b60008061334883610a27565b50905060ac60169054906101000a900460ff1660ff168160ff161015915050919050565b613374610d18565b156133b4576040517f08c379a00000000000000000000000000000000000000000000000000000000081526004016133ab90614e18565b60405180910390fd5b60405180608001604052808261ffff1681526020018373ffffffffffffffffffffffffffffffffffffffff1681526020014269ffffffffffffffffffff1681526020014269ffffffffffffffffffff16815250609960008381526020019081526020016000206000820151816000015560208201518160010160006101000a81548173ffffffffffffffffffffffffffffffffffffffff021916908373ffffffffffffffffffffffffffffffffffffffff16021790555060408201518160010160146101000a81548169ffffffffffffffffffff021916908369ffffffffffffffffffff16021790555060608201518160020160006101000a81548169ffffffffffffffffffff021916908369ffffffffffffffffffff160217905550905050609e60008154809291906134e790615027565b91905055507f8af1bb49fb16c7835975aa59449ba4328dd54737dfb2ae9fa6c5eca71fda51f981834260405161351f93929190615972565b60405180910390a15050565b613533610d18565b15613573576040517f08c379a000000000000000000000000000000000000000000000000000000000815260040161356a90614e18565b60405180910390fd5b60405180608001604052808261ffff1681526020018373ffffffffffffffffffffffffffffffffffffffff1681526020016135ac613c44565b69ffffffffffffffffffff1681526020014269ffffffffffffffffffff16815250609a60008381526020019081526020016000206000820151816000015560208201518160010160006101000a81548173ffffffffffffffffffffffffffffffffffffffff021916908373ffffffffffffffffffffffffffffffffffffffff16021790555060408201518160010160146101000a81548169ffffffffffffffffffff021916908369ffffffffffffffffffff16021790555060608201518160020160006101000a81548169ffffffffffffffffffff021916908369ffffffffffffffffffff160217905550905050609f60008154809291906136ad90615027565b91905055507f8af1bb49fb16c7835975aa59449ba4328dd54737dfb2ae9fa6c5eca71fda51f9818360a1546040516136e793929190615972565b60405180910390a15050565b600080823b905060008111915050919050565b600060019054906101000a900460ff16613755576040517f08c379a000000000000000000000000000000000000000000000000000000000815260040161374c90615621565b60405180910390fd5b565b600060019054906101000a900460ff166137a6576040517f08c379a000000000000000000000000000000000000000000000000000000000815260040161379d90615621565b60405180910390fd5b6137b66137b1612617565b6126c1565b565b600060019054906101000a900460ff16613807576040517f08c379a00000000000000000000000000000000000000000000000000000000081526004016137fe90615621565b60405180910390fd5b6000606560006101000a81548160ff021916908315150217905550565b6000806138348360000151610a27565b509050600060a054846040015169ffffffffffffffffffff16426138589190614fc4565b60a45461386591906154c3565b61386f91906159d8565b90506000600a60a960009054906101000a900460ff1660ff168460ff1661389691906154c3565b6138a091906154c3565b620186a06138ae9190614f6e565b9050620186a081836138c091906154c3565b6138ca91906159d8565b935060a3548460a7546138dd9190614f6e565b11156138f65760a75460a3546138f39190614fc4565b93505b600084111561396a574260a881905550613928606460a5548661391991906154c3565b61392391906159d8565b613c4e565b606460a55460646139399190614fc4565b8561394491906154c3565b61394e91906159d8565b93508360a760008282546139629190614f6e565b925050819055505b505050919050565b6000806060600061398286611ebd565b6139b857609a600087815260200190815260200160002060020160009054906101000a900469ffffffffffffffffffff166139e6565b6099600087815260200190815260200160002060020160009054906101000a900469ffffffffffffffffffff165b69ffffffffffffffffffff16426139fd9190614fc4565b90506000613a0a87611ebd565b9050609760009054906101000a900473ffffffffffffffffffffffffffffffffffffffff1673ffffffffffffffffffffffffffffffffffffffff166363dbfc7788613a7f84613a6857609d60029054906101000a900460000b613a79565b609d60009054906101000a900460000b5b86613cb6565b613ab385613a9c57609d60039054906101000a900460000b613aad565b609d60019054906101000a900460000b5b87613cb6565b8a6040518563ffffffff1660e01b8152600401613ad39493929190615a09565b6000604051808303816000875af1158015613af2573d6000803e3d6000fd5b505050506040513d6000823e3d601f19601f82011682018060405250810190613b1b9190615af4565b80955081965082975050505050509250925092565b600080613b408360000151610a27565b9150506000836040015169ffffffffffffffffffff1660a154613b639190614fc4565b905060006103e860ab54613b779190615b63565b60646103e860aa5460328760ff161115613b9d57866064613b989190615c7a565b613b9f565b865b60000b613bac9190615b63565b613bb69190615b63565b613bc09190615cae565b613bca9190615d18565b9050620186a08183613bdc91906154c3565b613be691906159d8565b935060a3548460a754613bf99190614f6e565b1115613c125760a75460a354613c0f9190614fc4565b93505b6000841115613c3c574260a8819055508360a76000828254613c349190614f6e565b925050819055505b505050919050565b600060a154905090565b6000609f541415613c77578060a66000828254613c6b9190614f6e565b92505081905550613cb3565b609f5460a65482613c889190614f6e565b613c9291906159d8565b60a16000828254613ca39190614f6e565b92505081905550600060a6819055505b50565b60008060a0548460000b84613ccb9190615b63565b613cd59190615cae565b90506064811315613cea576064915050613d40565b7fffffffffffffffffffffffffffffffffffffffffffffffffffffffffffffff9c811215613d3b577fffffffffffffffffffffffffffffffffffffffffffffffffffffffffffffff9c915050613d40565b809150505b92915050565b50805460008255600f016010900490600052602060002090810190613d6b9190613e1c565b50565b82805482825590600052602060002090600f01601090048101928215613e0b5791602002820160005b83821115613ddb57833561ffff1683826101000a81548161ffff021916908361ffff1602179055509260200192600201602081600101049283019260010302613d97565b8015613e095782816101000a81549061ffff0219169055600201602081600101049283019260010302613ddb565b505b509050613e189190613e1c565b5090565b5b80821115613e35576000816000905550600101613e1d565b5090565b600060ff82169050919050565b613e4f81613e39565b82525050565b6000602082019050613e6a6000830184613e46565b92915050565b60008160000b9050919050565b613e8681613e70565b82525050565b6000602082019050613ea16000830184613e7d565b92915050565b6000819050919050565b613eba81613ea7565b82525050565b6000602082019050613ed56000830184613eb1565b92915050565b6000604051905090565b600080fd5b600080fd5b600073ffffffffffffffffffffffffffffffffffffffff82169050919050565b6000613f1a82613eef565b9050919050565b613f2a81613f0f565b8114613f3557600080fd5b50565b600081359050613f4781613f21565b92915050565b6000819050919050565b613f6081613f4d565b8114613f6b57600080fd5b50565b600081359050613f7d81613f57565b92915050565b600080fd5b600080fd5b600080fd5b60008083601f840112613fa857613fa7613f83565b5b8235905067ffffffffffffffff811115613fc557613fc4613f88565b5b602083019150836001820283011115613fe157613fe0613f8d565b5b9250929050565b60008060008060006080868803121561400457614003613ee5565b5b600061401288828901613f38565b955050602061402388828901613f38565b945050604061403488828901613f6e565b935050606086013567ffffffffffffffff81111561405557614054613eea565b5b61406188828901613f92565b92509250509295509295909350565b60007fffffffff0000000000000000000000000000000000000000000000000000000082169050919050565b6140a581614070565b82525050565b60006020820190506140c0600083018461409c565b92915050565b6000806000606084860312156140df576140de613ee5565b5b60006140ed86828701613f38565b93505060206140fe86828701613f38565b925050604061410f86828701613f6e565b9150509250925092565b61412281613f4d565b82525050565b600060208201905061413d6000830184614119565b92915050565b60006020828403121561415957614158613ee5565b5b600061416784828501613f6e565b91505092915050565b60006040820190506141856000830185613e46565b6141926020830184613e46565b9392505050565b6141a281613f0f565b82525050565b600069ffffffffffffffffffff82169050919050565b6141c7816141a8565b82525050565b60006080820190506141e26000830187614119565b6141ef6020830186614199565b6141fc60408301856141be565b61420960608301846141be565b95945050505050565b6000819050919050565b600061423761423261422d84613eef565b614212565b613eef565b9050919050565b60006142498261421c565b9050919050565b600061425b8261423e565b9050919050565b61426b81614250565b82525050565b60006020820190506142866000830184614262565b92915050565b6000819050919050565b61429f8161428c565b81146142aa57600080fd5b50565b6000813590506142bc81614296565b92915050565b600080604083850312156142d9576142d8613ee5565b5b60006142e7858286016142ad565b92505060206142f885828601613f6e565b9150509250929050565b600061ffff82169050919050565b61431981614302565b82525050565b60006020820190506143346000830184614310565b92915050565b60008115159050919050565b61434f8161433a565b82525050565b600060208201905061436a6000830184614346565b92915050565b60006020820190506143856000830184614199565b92915050565b600080fd5b6000601f19601f8301169050919050565b7f4e487b7100000000000000000000000000000000000000000000000000000000600052604160045260246000fd5b6143d982614390565b810181811067ffffffffffffffff821117156143f8576143f76143a1565b5b80604052505050565b600061440b613edb565b905061441782826143d0565b919050565b600080fd5b600067ffffffffffffffff82111561443c5761443b6143a1565b5b602082029050602081019050919050565b61445681614302565b811461446157600080fd5b50565b6000813590506144738161444d565b92915050565b600061448c61448784614421565b614401565b905080838252602082019050602084028301858111156144af576144ae613f8d565b5b835b818110156144d857806144c48882614464565b8452602084019350506020810190506144b1565b5050509392505050565b600082601f8301126144f7576144f6613f83565b5b8135614507848260208601614479565b91505092915050565b6145198161433a565b811461452457600080fd5b50565b60008135905061453681614510565b92915050565b600060a082840312156145525761455161438b565b5b61455c60a0614401565b9050600061456c848285016142ad565b600083015250602061458084828501613f38565b602083015250604061459484828501613f38565b604083015250606082013567ffffffffffffffff8111156145b8576145b761441c565b5b6145c4848285016144e2565b60608301525060806145d884828501614527565b60808301525092915050565b600080604083850312156145fb576145fa613ee5565b5b600083013567ffffffffffffffff81111561461957614618613eea565b5b6146258582860161453c565b925050602061463685828601613f6e565b9150509250929050565b60008083601f84011261465657614655613f83565b5b8235905067ffffffffffffffff81111561467357614672613f88565b5b60208301915083602082028301111561468f5761468e613f8d565b5b9250929050565b6000806000604084860312156146af576146ae613ee5565b5b600084013567ffffffffffffffff8111156146cd576146cc613eea565b5b6146d986828701614640565b935093505060206146ec86828701614527565b9150509250925092565b6000806040838503121561470d5761470c613ee5565b5b600061471b85828601613f38565b925050602061472c85828601613f6e565b9150509250929050565b60008060006040848603121561474f5761474e613ee5565b5b600061475d86828701613f38565b935050602084013567ffffffffffffffff81111561477e5761477d613eea565b5b61478a86828701614640565b92509250509250925092565b600067ffffffffffffffff8211156147b1576147b06143a1565b5b602082029050602081019050919050565b60006147d56147d084614796565b614401565b905080838252602082019050602084028301858111156147f8576147f7613f8d565b5b835b81811015614821578061480d8882613f6e565b8452602084019350506020810190506147fa565b5050509392505050565b600082601f8301126148405761483f613f83565b5b81356148508482602086016147c2565b91505092915050565b600067ffffffffffffffff821115614874576148736143a1565b5b602082029050602081019050919050565b61488e81613e70565b811461489957600080fd5b50565b6000813590506148ab81614885565b92915050565b60006148c46148bf84614859565b614401565b905080838252602082019050602084028301858111156148e7576148e6613f8d565b5b835b8181101561491057806148fc888261489c565b8452602084019350506020810190506148e9565b5050509392505050565b600082601f83011261492f5761492e613f83565b5b813561493f8482602086016148b1565b91505092915050565b61495181613e39565b811461495c57600080fd5b50565b60008135905061496e81614948565b92915050565b61497d81613ea7565b811461498857600080fd5b50565b60008135905061499a81614974565b92915050565b600080600080600080600080610100898b0312156149c1576149c0613ee5565b5b60006149cf8b828c01613f6e565b985050602089013567ffffffffffffffff8111156149f0576149ef613eea565b5b6149fc8b828c0161482b565b975050604089013567ffffffffffffffff811115614a1d57614a1c613eea565b5b614a298b828c0161491a565b9650506060614a3a8b828c0161495f565b9550506080614a4b8b828c0161495f565b94505060a0614a5c8b828c0161495f565b93505060c0614a6d8b828c0161498b565b92505060e0614a7e8b828c0161498b565b9150509295985092959890939650565b600060208284031215614aa457614aa3613ee5565b5b6000614ab284828501613f38565b91505092915050565b60008060008060808587031215614ad557614ad4613ee5565b5b6000614ae387828801613f38565b9450506020614af487828801613f38565b9350506040614b0587828801613f38565b9250506060614b1687828801613f38565b91505092959194509250565b600082825260208201905092915050565b7f43616e6e6f742073656e6420746f6b656e7320746f2056656e7565206469726560008201527f63746c7900000000000000000000000000000000000000000000000000000000602082015250565b6000614b8f602483614b22565b9150614b9a82614b33565b604082019050919050565b60006020820190508181036000830152614bbe81614b82565b9050919050565b7f496e697469616c697a61626c653a20636f6e747261637420697320616c72656160008201527f647920696e697469616c697a6564000000000000000000000000000000000000602082015250565b6000614c21602e83614b22565b9150614c2c82614bc5565b604082019050919050565b60006020820190508181036000830152614c5081614c14565b9050919050565b600081519050614c6681614510565b92915050565b600081519050614c7b81614948565b92915050565b6000806000806000806000806000806101408b8d031215614ca557614ca4613ee5565b5b6000614cb38d828e01614c57565b9a50506020614cc48d828e01614c6c565b9950506040614cd58d828e01614c6c565b9850506060614ce68d828e01614c6c565b9750506080614cf78d828e01614c6c565b96505060a0614d088d828e01614c6c565b95505060c0614d198d828e01614c6c565b94505060e0614d2a8d828e01614c6c565b935050610100614d3c8d828e01614c6c565b925050610120614d4e8d828e01614c6c565b9150509295989b9194979a5092959850565b7f4f776e61626c653a2063616c6c6572206973206e6f7420746865206f776e6572600082015250565b6000614d96602083614b22565b9150614da182614d60565b602082019050919050565b60006020820190508181036000830152614dc581614d89565b9050919050565b7f5061757361626c653a2070617573656400000000000000000000000000000000600082015250565b6000614e02601083614b22565b9150614e0d82614dcc565b602082019050919050565b60006020820190508181036000830152614e3181614df5565b9050919050565b7f4f6e6c7920436c61696d2063616e2066756c66696c6c00000000000000000000600082015250565b6000614e6e601683614b22565b9150614e7982614e38565b602082019050919050565b60006020820190508181036000830152614e9d81614e61565b9050919050565b7f436c61696d2072657175657374206e6f7420666f756e64000000000000000000600082015250565b6000614eda601783614b22565b9150614ee582614ea4565b602082019050919050565b60006020820190508181036000830152614f0981614ecd565b9050919050565b7f4e487b7100000000000000000000000000000000000000000000000000000000600052603260045260246000fd5b7f4e487b7100000000000000000000000000000000000000000000000000000000600052601160045260246000fd5b6000614f7982613f4d565b9150614f8483613f4d565b9250827fffffffffffffffffffffffffffffffffffffffffffffffffffffffffffffffff03821115614fb957614fb8614f3f565b5b828201905092915050565b6000614fcf82613f4d565b9150614fda83613f4d565b925082821015614fed57614fec614f3f565b5b828203905092915050565b7f4e487b7100000000000000000000000000000000000000000000000000000000600052603160045260246000fd5b600061503282613f4d565b91507fffffffffffffffffffffffffffffffffffffffffffffffffffffffffffffffff82141561506557615064614f3f565b5b600182019050919050565b60006020828403121561508657615085613ee5565b5b600061509484828501614464565b91505092915050565b7f4e6f7420796f757220746f6b656e000000000000000000000000000000000000600082015250565b60006150d3600e83614b22565b91506150de8261509d565b602082019050919050565b60006020820190508181036000830152615102816150c6565b9050919050565b7f43616e6e6f7420636c61696d206265666f726520454f42000000000000000000600082015250565b600061513f601783614b22565b915061514a82615109565b602082019050919050565b6000602082019050818103600083015261516e81615132565b9050919050565b600082825260208201905092915050565b6000819050919050565b61519981614302565b82525050565b60006151ab8383615190565b60208301905092915050565b60006151c66020840184614464565b905092915050565b6000602082019050919050565b60006151e78385615175565b93506151f282615186565b8060005b8581101561522b5761520882846151b7565b615212888261519f565b975061521d836151ce565b9250506001810190506151f6565b5085925050509392505050565b600060608201905061524d6000830187614199565b81810360208301526152608185876151db565b905061526f6040830184614346565b95945050505050565b60008151905061528781614296565b92915050565b6000602082840312156152a3576152a2613ee5565b5b60006152b184828501615278565b91505092915050565b7f446f206e6f74206c6f736520796f757220746f6b656e73000000000000000000600082015250565b60006152f0601783614b22565b91506152fb826152ba565b602082019050919050565b6000602082019050818103600083015261531f816152e3565b9050919050565b7f4b69746368656e20737061636520726571756972656400000000000000000000600082015250565b600061535c601683614b22565b915061536782615326565b602082019050919050565b6000602082019050818103600083015261538b8161534f565b9050919050565b60006153ad6153a86153a384614302565b614212565b613f4d565b9050919050565b6153bd81615392565b82525050565b60006020820190506153d860008301846153b4565b92915050565b6000815190506153ed81613f21565b92915050565b60006020828403121561540957615408613ee5565b5b6000615417848285016153de565b91505092915050565b60006060820190506154356000830186614199565b6154426020830185614199565b61544f60408301846153b4565b949350505050565b7f4e6f7420656c696769626c650000000000000000000000000000000000000000600082015250565b600061548d600c83614b22565b915061549882615457565b602082019050919050565b600060208201905081810360008301526154bc81615480565b9050919050565b60006154ce82613f4d565b91506154d983613f4d565b9250817fffffffffffffffffffffffffffffffffffffffffffffffffffffffffffffffff048311821515161561551257615511614f3f565b5b828202905092915050565b7f4f776e61626c653a206e6577206f776e657220697320746865207a65726f206160008201527f6464726573730000000000000000000000000000000000000000000000000000602082015250565b6000615579602683614b22565b91506155848261551d565b604082019050919050565b600060208201905081810360008301526155a88161556c565b9050919050565b7f496e697469616c697a61626c653a20636f6e7472616374206973206e6f74206960008201527f6e697469616c697a696e67000000000000000000000000000000000000000000602082015250565b600061560b602b83614b22565b9150615616826155af565b604082019050919050565b6000602082019050818103600083015261563a816155fe565b9050919050565b7f5061757361626c653a206e6f7420706175736564000000000000000000000000600082015250565b6000615677601483614b22565b915061568282615641565b602082019050919050565b600060208201905081810360008301526156a68161566a565b9050919050565b60006156c86156c36156be84613e39565b614212565b613f4d565b9050919050565b6156d8816156ad565b82525050565b60006040820190506156f36000830185614199565b61570060208301846156cf565b9392505050565b60008151905061571681613f57565b92915050565b60006020828403121561573257615731613ee5565b5b600061574084828501615707565b91505092915050565b600082825260208201905092915050565b50565b600061576a600083615749565b91506157758261575a565b600082019050919050565b60006080820190506157956000830186614199565b6157a26020830185614199565b6157af6040830184614119565b81810360608301526157c08161575d565b9050949350505050565b60006157d582613f4d565b915060008214156157e9576157e8614f3f565b5b600182039050919050565b600081519050919050565b60005b8381101561581d578082015181840152602081019050615802565b8381111561582c576000848401525b50505050565b600061583d826157f4565b6158478185614b22565b93506158578185602086016157ff565b61586081614390565b840191505092915050565b600060e082019050615880600083018a614119565b61588d6020830189614119565b61589a6040830188614346565b6158a76060830187613e46565b6158b46080830186613e46565b81810360a08301526158c68185615832565b90506158d560c0830184614119565b98975050505050505050565b600060c0820190506158f66000830189614119565b6159036020830188614119565b6159106040830187614346565b61591d6060830186613e46565b61592a6080830185613e46565b81810360a083015261593c8184615832565b9050979650505050505050565b600060408201905061595e6000830185614199565b61596b6020830184614119565b9392505050565b60006060820190506159876000830186614119565b6159946020830185614199565b6159a16040830184614119565b949350505050565b7f4e487b7100000000000000000000000000000000000000000000000000000000600052601260045260246000fd5b60006159e382613f4d565b91506159ee83613f4d565b9250826159fe576159fd6159a9565b5b828204905092915050565b6000608082019050615a1e6000830187614119565b615a2b6020830186613e7d565b615a386040830185613e7d565b615a456060830184614119565b95945050505050565b600080fd5b600067ffffffffffffffff821115615a6e57615a6d6143a1565b5b615a7782614390565b9050602081019050919050565b6000615a97615a9284615a53565b614401565b905082815260208101848484011115615ab357615ab2615a4e565b5b615abe8482856157ff565b509392505050565b600082601f830112615adb57615ada613f83565b5b8151615aeb848260208601615a84565b91505092915050565b600080600060608486031215615b0d57615b0c613ee5565b5b6000615b1b86828701614c6c565b9350506020615b2c86828701614c6c565b925050604084015167ffffffffffffffff811115615b4d57615b4c613eea565b5b615b5986828701615ac6565b9150509250925092565b6000615b6e82613ea7565b9150615b7983613ea7565b9250827f7fffffffffffffffffffffffffffffffffffffffffffffffffffffffffffffff0482116000841360008413161615615bb857615bb7614f3f565b5b817f80000000000000000000000000000000000000000000000000000000000000000583126000841260008413161615615bf557615bf4614f3f565b5b827f80000000000000000000000000000000000000000000000000000000000000000582126000841360008412161615615c3257615c31614f3f565b5b827f7fffffffffffffffffffffffffffffffffffffffffffffffffffffffffffffff0582126000841260008412161615615c6f57615c6e614f3f565b5b828202905092915050565b6000615c8582613e39565b9150615c9083613e39565b925082821015615ca357615ca2614f3f565b5b828203905092915050565b6000615cb982613ea7565b9150615cc483613ea7565b925082615cd457615cd36159a9565b5b600160000383147f800000000000000000000000000000000000000000000000000000000000000083141615615d0d57615d0c614f3f565b5b828205905092915050565b6000615d2382613ea7565b9150615d2e83613ea7565b9250817f7fffffffffffffffffffffffffffffffffffffffffffffffffffffffffffffff03831360008312151615615d6957615d68614f3f565b5b817f8000000000000000000000000000000000000000000000000000000000000000038312600083121615615da157615da0614f3f565b5b82820190509291505056fea2646970667358221220c8d9a96ff8f8b751db897392d363f0ff70bd1f8d493e90c37ad4e7f1df02b7ec64736f6c634300080a0033",
  "immutableReferences": {},
  "source": "// SPDX-License-Identifier: MIT\n\npragma solidity ^0.8.0;\n\nimport \"./EntrepreneurKitchen.sol\";\nimport \"./GourmetFood.sol\";\nimport \"./KitchenShop.sol\";\n\ncontract LeStake is EntrepreneurKitchen {\n  GourmetFood foodToken; // Reference to the $GFOOD contract\n\n  function initialize(\n    address _character,\n    address _claim,\n    address _foodToken,\n    address _kitchenShop\n//    uint256 _foodTokenMaxSupply,\n//    uint256[] memory _earningSettings, // dailyChefEarnings, ratTheftPercentage, vestingPeriod, accrualPeriod\n//    int8[] memory _propertyIncrements, // dailySkillRate, dailyInsanityRate, dailyIntelligenceRate, dailyFatnessRate\n//    uint8 _minEfficiency,\n//    uint8 _charactersPerKitchen,\n//    uint8 _chefEfficiencyMultiplier,\n//    int256 _ratEfficiencyMultiplier,\n//    int256 _ratEfficiencyOffset\n  ) external initializer {\n    __Ownable_init();\n    __Pausable_init();\n\n    unaccountedRewards = 0;\n    foodTokensPerRat = 0;\n    lastClaimTimestamp = 0;\n    kitchenId = 2;\n\n    character = Character(_character);\n    claim = IClaim(_claim);\n    foodToken = GourmetFood(_foodToken);\n    kitchenShop = KitchenShop(_kitchenShop);\n  }\n\n  /**\n   * Allows DAO to update game parameters\n   */\n  function configure(\n    uint256 _foodTokenMaxSupply,\n    uint256[] memory _earningSettings, // dailyChefEarnings, ratTheftPercentage, vestingPeriod, accrualPeriod\n    int8[] memory _propertyIncrements, // dailySkillRate, dailyInsanityRate, dailyIntelligenceRate, dailyFatnessRate\n    uint8 _minEfficiency,\n    uint8 _charactersPerKitchen,\n    uint8 _chefEfficiencyMultiplier,\n    int256 _ratEfficiencyMultiplier,\n    int256 _ratEfficiencyOffset\n  ) external onlyOwner {\n    foodTokenMaxSupply = _foodTokenMaxSupply * 1 ether;\n    dailyChefEarnings = _earningSettings[0] * 1 ether;\n    ratTheftPercentage = _earningSettings[1];\n    vestingPeriod = _earningSettings[2];\n    accrualPeriod = _earningSettings[3];\n    dailySkillRate = _propertyIncrements[0];\n    dailyInsanityRate = _propertyIncrements[1];\n    dailyIntelligenceRate = _propertyIncrements[2];\n    dailyFatnessRate = _propertyIncrements[3];\n    minEfficiency = _minEfficiency;\n    charactersPerKitchen = _charactersPerKitchen;\n    chefEfficiencyMultiplier = _chefEfficiencyMultiplier;\n    ratEfficiencyMultiplier = _ratEfficiencyMultiplier;\n    ratEfficiencyOffset = _ratEfficiencyOffset;\n  }\n\n  /**\n   * Mints the given amount of food tokens in the user's account\n   * @param sender - User wallet address\n   * @param amount - Amount of food tokens to mint\n   */\n  function _mintFoodToken(address sender, uint256 amount) internal override {\n    foodToken.mint(sender, amount);\n  }\n}\n",
  "sourcePath": "/Users/chris/workspace/ratalert/ratalert-contracts/contracts/LeStake.sol",
  "compiler": {
    "name": "solc",
    "version": "0.8.10+commit.fc410830.Emscripten.clang"
  },
  "schemaVersion": "3.4.5",
  "updatedAt": "2022-03-14T18:23:02.862Z",
  "networkType": "ethereum",
  "devdoc": {
    "kind": "dev",
    "methods": {
      "claimMany(uint16[],bool)": {
        "params": {
          "tokenIds": "- The IDs of the tokens in question",
          "unstake": "- Whether or not to unstake the given tokens"
        }
      },
      "fulfillClaimMany((bytes32,address,address,uint16[],bool),uint256)": {
        "params": {
          "randomVal": "- List of random values created by VRF",
          "v": "- VRF struct for the corresponding request"
        }
      },
      "getProperties(uint256)": {
        "params": {
          "tokenId": "- The ID of the token to check"
        },
        "returns": {
          "efficiency": "& tolerance values"
        }
      },
      "isChef(uint256)": {
        "params": {
          "tokenId": "- The ID of the token to check"
        },
        "returns": {
          "chef": "- Whether or not the token is a Chef"
        }
      },
      "owner()": {
        "details": "Returns the address of the current owner."
      },
      "paused()": {
        "details": "Returns true if the contract is paused, and false otherwise."
      },
      "renounceOwnership()": {
        "details": "Leaves the contract without owner. It will not be possible to call `onlyOwner` functions anymore. Can only be called by the current owner. NOTE: Renouncing ownership will leave the contract without an owner, thereby removing any functionality that is only available to the owner."
      },
      "stakeMany(address,uint16[])": {
        "params": {
          "account": "- The address of the staker",
          "tokenIds": "- The IDs of the Chefs & Rats to stake"
        }
      },
      "transferOwnership(address)": {
        "details": "Transfers ownership of the contract to a new account (`newOwner`). Can only be called by the current owner."
      }
    },
    "version": 1
  },
  "userdoc": {
    "kind": "user",
    "methods": {
      "claimMany(uint16[],bool)": {
        "notice": "ChainLink VRF request: Claims food token earnings, level-ups and optionally unstake characters"
      },
      "configure(uint256,uint256[],int8[],uint8,uint8,uint8,int256,int256)": {
        "notice": "Allows DAO to update game parameters"
      },
      "fulfillClaimMany((bytes32,address,address,uint16[],bool),uint256)": {
        "notice": "ChainLink VRF callback for claimMany()"
      },
      "getProperties(uint256)": {
        "notice": "Get the character's properties"
      },
      "isChef(uint256)": {
        "notice": "Checks if the token is a Chef"
      },
      "stakeMany(address,uint16[])": {
        "notice": "Adds Chefs & Rats"
      }
    },
    "version": 1
  }
}