{
  "contractName": "LeStake",
  "abi": [
    {
      "anonymous": false,
      "inputs": [
        {
          "indexed": false,
          "internalType": "uint256",
          "name": "tokenId",
          "type": "uint256"
        },
        {
          "indexed": false,
          "internalType": "uint256",
          "name": "earned",
          "type": "uint256"
        },
        {
          "indexed": false,
          "internalType": "bool",
          "name": "unstaked",
          "type": "bool"
        },
        {
          "indexed": false,
          "internalType": "uint8",
          "name": "skill",
          "type": "uint8"
        },
        {
          "indexed": false,
          "internalType": "uint8",
          "name": "insanity",
          "type": "uint8"
        },
        {
          "indexed": false,
          "internalType": "string",
          "name": "eventName",
          "type": "string"
        },
        {
          "indexed": false,
          "internalType": "uint256",
          "name": "foodTokensPerRat",
          "type": "uint256"
        }
      ],
      "name": "ChefClaimed",
      "type": "event"
    },
    {
      "anonymous": false,
      "inputs": [
        {
          "indexed": true,
          "internalType": "address",
          "name": "previousOwner",
          "type": "address"
        },
        {
          "indexed": true,
          "internalType": "address",
          "name": "newOwner",
          "type": "address"
        }
      ],
      "name": "OwnershipTransferred",
      "type": "event"
    },
    {
      "anonymous": false,
      "inputs": [
        {
          "indexed": false,
          "internalType": "address",
          "name": "account",
          "type": "address"
        }
      ],
      "name": "Paused",
      "type": "event"
    },
    {
      "anonymous": false,
      "inputs": [
        {
          "indexed": false,
          "internalType": "uint256",
          "name": "tokenId",
          "type": "uint256"
        },
        {
          "indexed": false,
          "internalType": "uint256",
          "name": "earned",
          "type": "uint256"
        },
        {
          "indexed": false,
          "internalType": "bool",
          "name": "unstaked",
          "type": "bool"
        },
        {
          "indexed": false,
          "internalType": "uint8",
          "name": "intelligence",
          "type": "uint8"
        },
        {
          "indexed": false,
          "internalType": "uint8",
          "name": "fatness",
          "type": "uint8"
        },
        {
          "indexed": false,
          "internalType": "string",
          "name": "eventName",
          "type": "string"
        }
      ],
      "name": "RatClaimed",
      "type": "event"
    },
    {
      "anonymous": false,
      "inputs": [
        {
          "indexed": false,
          "internalType": "uint256",
          "name": "tokenId",
          "type": "uint256"
        },
        {
          "indexed": false,
          "internalType": "address",
          "name": "owner",
          "type": "address"
        },
        {
          "indexed": false,
          "internalType": "uint256",
          "name": "value",
          "type": "uint256"
        }
      ],
      "name": "TokenStaked",
      "type": "event"
    },
    {
      "anonymous": false,
      "inputs": [
        {
          "indexed": false,
          "internalType": "address",
          "name": "account",
          "type": "address"
        }
      ],
      "name": "Unpaused",
      "type": "event"
    },
    {
      "inputs": [],
      "name": "accrualPeriod",
      "outputs": [
        {
          "internalType": "uint256",
          "name": "",
          "type": "uint256"
        }
      ],
      "stateMutability": "view",
      "type": "function",
      "constant": true
    },
    {
      "inputs": [],
      "name": "charactersPerKitchen",
      "outputs": [
        {
          "internalType": "uint8",
          "name": "",
          "type": "uint8"
        }
      ],
      "stateMutability": "view",
      "type": "function",
      "constant": true
    },
    {
      "inputs": [],
      "name": "chefEfficiencyMultiplier",
      "outputs": [
        {
          "internalType": "uint8",
          "name": "",
          "type": "uint8"
        }
      ],
      "stateMutability": "view",
      "type": "function",
      "constant": true
    },
    {
      "inputs": [
        {
          "internalType": "uint256",
          "name": "",
          "type": "uint256"
        }
      ],
      "name": "chefs",
      "outputs": [
        {
          "internalType": "uint256",
          "name": "tokenId",
          "type": "uint256"
        },
        {
          "internalType": "address",
          "name": "owner",
          "type": "address"
        },
        {
          "internalType": "uint80",
          "name": "value",
          "type": "uint80"
        },
        {
          "internalType": "uint80",
          "name": "timestamp",
          "type": "uint80"
        }
      ],
      "stateMutability": "view",
      "type": "function",
      "constant": true
    },
    {
      "inputs": [],
      "name": "claim",
      "outputs": [
        {
          "internalType": "contract IClaim",
          "name": "",
          "type": "address"
        }
      ],
      "stateMutability": "view",
      "type": "function",
      "constant": true
    },
    {
      "inputs": [
        {
          "internalType": "uint16[]",
          "name": "tokenIds",
          "type": "uint16[]"
        },
        {
          "internalType": "bool",
          "name": "unstake",
          "type": "bool"
        }
      ],
      "name": "claimMany",
      "outputs": [],
      "stateMutability": "nonpayable",
      "type": "function"
    },
    {
      "inputs": [
        {
          "internalType": "bytes32",
          "name": "",
          "type": "bytes32"
        },
        {
          "internalType": "uint256",
          "name": "",
          "type": "uint256"
        }
      ],
      "name": "claimRequests",
      "outputs": [
        {
          "internalType": "uint16",
          "name": "",
          "type": "uint16"
        }
      ],
      "stateMutability": "view",
      "type": "function",
      "constant": true
    },
    {
      "inputs": [],
      "name": "dailyChefEarnings",
      "outputs": [
        {
          "internalType": "uint256",
          "name": "",
          "type": "uint256"
        }
      ],
      "stateMutability": "view",
      "type": "function",
      "constant": true
    },
    {
      "inputs": [],
      "name": "dailyFatnessRate",
      "outputs": [
        {
          "internalType": "int8",
          "name": "",
          "type": "int8"
        }
      ],
      "stateMutability": "view",
      "type": "function",
      "constant": true
    },
    {
      "inputs": [],
      "name": "dailyInsanityRate",
      "outputs": [
        {
          "internalType": "int8",
          "name": "",
          "type": "int8"
        }
      ],
      "stateMutability": "view",
      "type": "function",
      "constant": true
    },
    {
      "inputs": [],
      "name": "dailyIntelligenceRate",
      "outputs": [
        {
          "internalType": "int8",
          "name": "",
          "type": "int8"
        }
      ],
      "stateMutability": "view",
      "type": "function",
      "constant": true
    },
    {
      "inputs": [],
      "name": "dailySkillRate",
      "outputs": [
        {
          "internalType": "int8",
          "name": "",
          "type": "int8"
        }
      ],
      "stateMutability": "view",
      "type": "function",
      "constant": true
    },
    {
      "inputs": [],
      "name": "foodTokenMaxSupply",
      "outputs": [
        {
          "internalType": "uint256",
          "name": "",
          "type": "uint256"
        }
      ],
      "stateMutability": "view",
      "type": "function",
      "constant": true
    },
    {
      "inputs": [],
      "name": "foodTokensPerRat",
      "outputs": [
        {
          "internalType": "uint256",
          "name": "",
          "type": "uint256"
        }
      ],
      "stateMutability": "view",
      "type": "function",
      "constant": true
    },
    {
      "inputs": [
        {
          "components": [
            {
              "internalType": "bytes32",
              "name": "requestId",
              "type": "bytes32"
            },
            {
              "internalType": "address",
              "name": "venue",
              "type": "address"
            },
            {
              "internalType": "address",
              "name": "sender",
              "type": "address"
            },
            {
              "internalType": "uint16[]",
              "name": "tokenIds",
              "type": "uint16[]"
            },
            {
              "internalType": "bool",
              "name": "unstake",
              "type": "bool"
            }
          ],
          "internalType": "struct IClaim.VRFStruct",
          "name": "v",
          "type": "tuple"
        },
        {
          "internalType": "uint256",
          "name": "randomVal",
          "type": "uint256"
        }
      ],
      "name": "fulfillClaimMany",
      "outputs": [],
      "stateMutability": "nonpayable",
      "type": "function"
    },
    {
      "inputs": [
        {
          "internalType": "uint256",
          "name": "tokenId",
          "type": "uint256"
        }
      ],
      "name": "getProperties",
      "outputs": [
        {
          "internalType": "uint8",
          "name": "efficiency",
          "type": "uint8"
        },
        {
          "internalType": "uint8",
          "name": "tolerance",
          "type": "uint8"
        }
      ],
      "stateMutability": "view",
      "type": "function",
      "constant": true
    },
    {
      "inputs": [
        {
          "internalType": "uint256",
          "name": "tokenId",
          "type": "uint256"
        }
      ],
      "name": "isChef",
      "outputs": [
        {
          "internalType": "bool",
          "name": "chef",
          "type": "bool"
        }
      ],
      "stateMutability": "view",
      "type": "function",
      "constant": true
    },
    {
      "inputs": [],
      "name": "kitchenId",
      "outputs": [
        {
          "internalType": "uint8",
          "name": "",
          "type": "uint8"
        }
      ],
      "stateMutability": "view",
      "type": "function",
      "constant": true
    },
    {
      "inputs": [],
      "name": "lastClaimTimestamp",
      "outputs": [
        {
          "internalType": "uint256",
          "name": "",
          "type": "uint256"
        }
      ],
      "stateMutability": "view",
      "type": "function",
      "constant": true
    },
    {
      "inputs": [],
      "name": "minEfficiency",
      "outputs": [
        {
          "internalType": "uint8",
          "name": "",
          "type": "uint8"
        }
      ],
      "stateMutability": "view",
      "type": "function",
      "constant": true
    },
    {
      "inputs": [
        {
          "internalType": "address",
          "name": "",
          "type": "address"
        },
        {
          "internalType": "address",
          "name": "from",
          "type": "address"
        },
        {
          "internalType": "uint256",
          "name": "",
          "type": "uint256"
        },
        {
          "internalType": "bytes",
          "name": "",
          "type": "bytes"
        }
      ],
      "name": "onERC721Received",
      "outputs": [
        {
          "internalType": "bytes4",
          "name": "",
          "type": "bytes4"
        }
      ],
      "stateMutability": "pure",
      "type": "function",
      "constant": true
    },
    {
      "inputs": [],
      "name": "owner",
      "outputs": [
        {
          "internalType": "address",
          "name": "",
          "type": "address"
        }
      ],
      "stateMutability": "view",
      "type": "function",
      "constant": true
    },
    {
      "inputs": [],
      "name": "paused",
      "outputs": [
        {
          "internalType": "bool",
          "name": "",
          "type": "bool"
        }
      ],
      "stateMutability": "view",
      "type": "function",
      "constant": true
    },
    {
      "inputs": [],
      "name": "ratEfficiencyMultiplier",
      "outputs": [
        {
          "internalType": "int256",
          "name": "",
          "type": "int256"
        }
      ],
      "stateMutability": "view",
      "type": "function",
      "constant": true
    },
    {
      "inputs": [],
      "name": "ratEfficiencyOffset",
      "outputs": [
        {
          "internalType": "int256",
          "name": "",
          "type": "int256"
        }
      ],
      "stateMutability": "view",
      "type": "function",
      "constant": true
    },
    {
      "inputs": [],
      "name": "ratTheftPercentage",
      "outputs": [
        {
          "internalType": "uint256",
          "name": "",
          "type": "uint256"
        }
      ],
      "stateMutability": "view",
      "type": "function",
      "constant": true
    },
    {
      "inputs": [
        {
          "internalType": "uint256",
          "name": "",
          "type": "uint256"
        }
      ],
      "name": "rats",
      "outputs": [
        {
          "internalType": "uint256",
          "name": "tokenId",
          "type": "uint256"
        },
        {
          "internalType": "address",
          "name": "owner",
          "type": "address"
        },
        {
          "internalType": "uint80",
          "name": "value",
          "type": "uint80"
        },
        {
          "internalType": "uint80",
          "name": "timestamp",
          "type": "uint80"
        }
      ],
      "stateMutability": "view",
      "type": "function",
      "constant": true
    },
    {
      "inputs": [],
      "name": "renounceOwnership",
      "outputs": [],
      "stateMutability": "nonpayable",
      "type": "function"
    },
    {
      "inputs": [
        {
          "internalType": "address",
          "name": "account",
          "type": "address"
        },
        {
          "internalType": "uint16[]",
          "name": "tokenIds",
          "type": "uint16[]"
        }
      ],
      "name": "stakeMany",
      "outputs": [],
      "stateMutability": "nonpayable",
      "type": "function"
    },
    {
      "inputs": [
        {
          "internalType": "address",
          "name": "",
          "type": "address"
        },
        {
          "internalType": "uint256",
          "name": "",
          "type": "uint256"
        }
      ],
      "name": "stakers",
      "outputs": [
        {
          "internalType": "uint256",
          "name": "",
          "type": "uint256"
        }
      ],
      "stateMutability": "view",
      "type": "function",
      "constant": true
    },
    {
      "inputs": [],
      "name": "totalChefsStaked",
      "outputs": [
        {
          "internalType": "uint256",
          "name": "",
          "type": "uint256"
        }
      ],
      "stateMutability": "view",
      "type": "function",
      "constant": true
    },
    {
      "inputs": [],
      "name": "totalFoodTokensEarned",
      "outputs": [
        {
          "internalType": "uint256",
          "name": "",
          "type": "uint256"
        }
      ],
      "stateMutability": "view",
      "type": "function",
      "constant": true
    },
    {
      "inputs": [],
      "name": "totalRatsStaked",
      "outputs": [
        {
          "internalType": "uint256",
          "name": "",
          "type": "uint256"
        }
      ],
      "stateMutability": "view",
      "type": "function",
      "constant": true
    },
    {
      "inputs": [
        {
          "internalType": "address",
          "name": "newOwner",
          "type": "address"
        }
      ],
      "name": "transferOwnership",
      "outputs": [],
      "stateMutability": "nonpayable",
      "type": "function"
    },
    {
      "inputs": [],
      "name": "unaccountedRewards",
      "outputs": [
        {
          "internalType": "uint256",
          "name": "",
          "type": "uint256"
        }
      ],
      "stateMutability": "view",
      "type": "function",
      "constant": true
    },
    {
      "inputs": [],
      "name": "vestingPeriod",
      "outputs": [
        {
          "internalType": "uint256",
          "name": "",
          "type": "uint256"
        }
      ],
      "stateMutability": "view",
      "type": "function",
      "constant": true
    },
    {
      "inputs": [
        {
          "internalType": "address[]",
          "name": "_addresses",
          "type": "address[]"
        },
        {
          "internalType": "uint256",
          "name": "_accrualPeriod",
          "type": "uint256"
        }
      ],
      "name": "initialize",
      "outputs": [],
      "stateMutability": "nonpayable",
      "type": "function"
    },
    {
      "inputs": [],
      "name": "initialize",
      "outputs": [],
      "stateMutability": "nonpayable",
      "type": "function"
    },
    {
      "inputs": [
        {
          "internalType": "address[]",
          "name": "_addresses",
          "type": "address[]"
        },
        {
          "internalType": "uint256",
          "name": "_foodTokenMaxSupply",
          "type": "uint256"
        },
        {
          "internalType": "uint256[]",
          "name": "_earningSettings",
          "type": "uint256[]"
        },
        {
          "internalType": "int8[]",
          "name": "_propertyIncrements",
          "type": "int8[]"
        },
        {
          "internalType": "uint8",
          "name": "_minEfficiency",
          "type": "uint8"
        },
        {
          "internalType": "uint8",
          "name": "_charactersPerKitchen",
          "type": "uint8"
        },
        {
          "internalType": "uint8",
          "name": "_chefEfficiencyMultiplier",
          "type": "uint8"
        },
        {
          "internalType": "int256",
          "name": "_ratEfficiencyMultiplier",
          "type": "int256"
        },
        {
          "internalType": "int256",
          "name": "_ratEfficiencyOffset",
          "type": "int256"
        }
      ],
      "name": "initialize",
      "outputs": [],
      "stateMutability": "nonpayable",
      "type": "function"
    }
  ],
  "bytecode": "0x608060405234801561001057600080fd5b50615b8980620000216000396000f3fe608060405234801561001057600080fd5b506004361061023d5760003560e01c80638129fc1c1161013b578063c8b6cbf7116100b8578063dbdc1f6b1161007c578063dbdc1f6b14610681578063ef9f800f1461069d578063f2666746146106cd578063f2fde38b146106eb578063f6664155146107075761023d565b8063c8b6cbf7146105db578063ca7eba5d1461060b578063cba88af814610627578063d7178ac614610645578063d8dda92e146106635761023d565b80639786e4d4116100ff5780639786e4d414610547578063a262c0ad14610565578063a7a1029014610583578063bdb629411461059f578063c0c472c0146105bd5761023d565b80638129fc1c146104c75780638da5cb5b146104d157806391ba3f3f146104ef578063922a18021461050d5780639317f7f8146105295761023d565b806335ec066e116101c95780635c975abb1161018d5780635c975abb14610447578063607af3971461046557806360b5bb3f14610483578063715018a61461049f5780637313ee5a146104a95761023d565b806335ec066e14610375578063499f8010146103a85780634d1c61af146103c65780634e71d92d146103f9578063525e915b146104175761023d565b80631b4d47a1116102105780631b4d47a1146102cc5780631b8ca217146102ea5780632535a77f1461031b5780632d79320b146103395780632e2ce28b146103575761023d565b8063051d1d491461024257806310d53df114610260578063138e6ad51461027e578063150b7a021461029c575b600080fd5b61024a610725565b6040516102579190613bd3565b60405180910390f35b610268610738565b6040516102759190613c0a565b60405180910390f35b61028661074b565b6040516102939190613c3e565b60405180910390f35b6102b660048036038101906102b19190613d66565b610751565b6040516102c39190613e29565b60405180910390f35b6102d46107d4565b6040516102e19190613e53565b60405180910390f35b61030460048036038101906102ff9190613e6e565b6107da565b604051610312929190613e9b565b60405180910390f35b6103236108bb565b6040516103309190613e53565b60405180910390f35b6103416108c1565b60405161034e9190613bd3565b60405180910390f35b61035f6108d4565b60405161036c9190613e53565b60405180910390f35b61038f600480360381019061038a9190613e6e565b6108da565b60405161039f9493929190613ef8565b60405180910390f35b6103b0610956565b6040516103bd9190613e53565b60405180910390f35b6103e060048036038101906103db9190613e6e565b61095c565b6040516103f09493929190613ef8565b60405180910390f35b6104016109d8565b60405161040e9190613f9c565b60405180910390f35b610431600480360381019061042c9190613fed565b6109fe565b60405161043e919061404a565b60405180910390f35b61044f610a45565b60405161045c9190614080565b60405180910390f35b61046d610a5c565b60405161047a9190613e53565b60405180910390f35b61049d600480360381019061049891906141ea565b610a62565b005b6104a7610c93565b005b6104b1610d1b565b6040516104be9190613e53565b60405180910390f35b6104cf610d21565b005b6104d9610e15565b6040516104e69190614246565b60405180910390f35b6104f7610e3f565b6040516105049190613e53565b60405180910390f35b6105276004803603810190610522919061442e565b610e45565b005b6105316113b1565b60405161053e9190613bd3565b60405180910390f35b61054f6113c4565b60405161055c9190613bd3565b60405180910390f35b61056d6113d7565b60405161057a9190613c0a565b60405180910390f35b61059d600480360381019061059891906144e0565b6113ea565b005b6105a761179f565b6040516105b49190613c0a565b60405180910390f35b6105c56117b2565b6040516105d29190613e53565b60405180910390f35b6105f560048036038101906105f09190614540565b6117b8565b6040516106029190613e53565b60405180910390f35b6106256004803603810190610620919061478a565b6117e9565b005b61062f611c82565b60405161063c9190613c0a565b60405180910390f35b61064d611c95565b60405161065a9190613c3e565b60405180910390f35b61066b611c9b565b6040516106789190613e53565b60405180910390f35b61069b600480360381019061069691906148a8565b611ca1565b005b6106b760048036038101906106b29190613e6e565b61222e565b6040516106c49190614080565b60405180910390f35b6106d5612303565b6040516106e29190613e53565b60405180910390f35b61070560048036038101906107009190614908565b612309565b005b61070f612401565b60405161071c9190613e53565b60405180910390f35b60ac60169054906101000a900460ff1681565b609d60009054906101000a900460000b81565b60aa5481565b60008073ffffffffffffffffffffffffffffffffffffffff168573ffffffffffffffffffffffffffffffffffffffff16146107c1576040517f08c379a00000000000000000000000000000000000000000000000000000000081526004016107b8906149b8565b60405180910390fd5b63150b7a0260e01b905095945050505050565b60a35481565b600080609760009054906101000a900473ffffffffffffffffffffffffffffffffffffffff1673ffffffffffffffffffffffffffffffffffffffff1663e05c57bf846040518263ffffffff1660e01b81526004016108389190613e53565b61014060405180830381865afa158015610856573d6000803e3d6000fd5b505050506040513d601f19601f8201168201806040525081019061087a9190614a02565b909192939495969798509091929394959697509091929394959650909192939495509091929394509091929350909192509091508092508193505050915091565b60a15481565b60a960009054906101000a900460ff1681565b60a55481565b609a6020528060005260406000206000915090508060000154908060010160009054906101000a900473ffffffffffffffffffffffffffffffffffffffff16908060010160149054906101000a900469ffffffffffffffffffff16908060020160009054906101000a900469ffffffffffffffffffff16905084565b609f5481565b60996020528060005260406000206000915090508060000154908060010160009054906101000a900473ffffffffffffffffffffffffffffffffffffffff16908060010160149054906101000a900469ffffffffffffffffffff16908060020160009054906101000a900469ffffffffffffffffffff16905084565b609860009054906101000a900473ffffffffffffffffffffffffffffffffffffffff1681565b609c6020528160005260406000208181548110610a1a57600080fd5b9060005260206000209060109182820401919006600202915091509054906101000a900461ffff1681565b6000606560009054906101000a900460ff16905090565b60a85481565b600060019054906101000a900460ff16610a8a5760008054906101000a900460ff1615610a93565b610a92612407565b5b610ad2576040517f08c379a0000000000000000000000000000000000000000000000000000000008152600401610ac990614b53565b60405180910390fd5b60008060019054906101000a900460ff161590508015610b22576001600060016101000a81548160ff02191690831515021790555060016000806101000a81548160ff0219169083151502179055505b610b2a612418565b610b32612479565b82600081518110610b4657610b45614b73565b5b6020026020010151609760006101000a81548173ffffffffffffffffffffffffffffffffffffffff021916908373ffffffffffffffffffffffffffffffffffffffff16021790555082600181518110610ba257610ba1614b73565b5b6020026020010151609860006101000a81548173ffffffffffffffffffffffffffffffffffffffff021916908373ffffffffffffffffffffffffffffffffffffffff1602179055508160a0819055506000609d60006101000a81548160ff021916908360000b60ff1602179055506000609d60016101000a81548160ff021916908360000b60ff1602179055506000609d60026101000a81548160ff021916908360000b60ff1602179055506000609d60036101000a81548160ff021916908360000b60ff1602179055508015610c8e5760008060016101000a81548160ff0219169083151502179055505b505050565b610c9b6124da565b73ffffffffffffffffffffffffffffffffffffffff16610cb9610e15565b73ffffffffffffffffffffffffffffffffffffffff1614610d0f576040517f08c379a0000000000000000000000000000000000000000000000000000000008152600401610d0690614bee565b60405180910390fd5b610d1960006124e2565b565b60a25481565b600060019054906101000a900460ff16610d495760008054906101000a900460ff1615610d52565b610d51612407565b5b610d91576040517f08c379a0000000000000000000000000000000000000000000000000000000008152600401610d8890614b53565b60405180910390fd5b60008060019054906101000a900460ff161590508015610de1576001600060016101000a81548160ff02191690831515021790555060016000806101000a81548160ff0219169083151502179055505b610de9612418565b610df1612479565b8015610e125760008060016101000a81548160ff0219169083151502179055505b50565b6000603360009054906101000a900473ffffffffffffffffffffffffffffffffffffffff16905090565b60a45481565b610e4d610a45565b15610e8d576040517f08c379a0000000000000000000000000000000000000000000000000000000008152600401610e8490614c5a565b60405180910390fd5b609860009054906101000a900473ffffffffffffffffffffffffffffffffffffffff1673ffffffffffffffffffffffffffffffffffffffff163373ffffffffffffffffffffffffffffffffffffffff1614610f1d576040517f08c379a0000000000000000000000000000000000000000000000000000000008152600401610f1490614cc6565b60405180910390fd5b6000609c6000846000015181526020019081526020016000208054905011610f7a576040517f08c379a0000000000000000000000000000000000000000000000000000000008152600401610f7190614d32565b60405180910390fd5b6000609c60008460000151815260200190815260200160002080548060200260200160405190810160405280929190818152602001828054801561100557602002820191906000526020600020906000905b82829054906101000a900461ffff1661ffff1681526020019060020190602082600101049283019260010382029150808411610fcc5790505b50505050509050609c600084600001518152602001908152602001600020600061102f9190613ac4565b6000805b825181101561139257600061104d866040015160006125a8565b905061107684838151811061106557611064614b73565b5b602002602001015161ffff1661222e565b156110ca576110b884838151811061109157611090614b73565b5b602002602001015161ffff1687604001518315806110b0575088608001515b8415896126d0565b836110c39190614d81565b9250611115565b6111078483815181106110e0576110df614b73565b5b602002602001015161ffff1687604001518315806110ff575088608001515b841589612b7a565b836111129190614d81565b92505b60005b609b6000886040015173ffffffffffffffffffffffffffffffffffffffff1673ffffffffffffffffffffffffffffffffffffffff1681526020019081526020016000208054905081101561137d5784838151811061117957611178614b73565b5b602002602001015161ffff16609b6000896040015173ffffffffffffffffffffffffffffffffffffffff1673ffffffffffffffffffffffffffffffffffffffff16815260200190815260200160002082815481106111da576111d9614b73565b5b9060005260206000200154141561136a57609b6000886040015173ffffffffffffffffffffffffffffffffffffffff1673ffffffffffffffffffffffffffffffffffffffff1681526020019081526020016000206001609b60008a6040015173ffffffffffffffffffffffffffffffffffffffff1673ffffffffffffffffffffffffffffffffffffffff168152602001908152602001600020805490506112819190614dd7565b8154811061129257611291614b73565b5b9060005260206000200154609b6000896040015173ffffffffffffffffffffffffffffffffffffffff1673ffffffffffffffffffffffffffffffffffffffff16815260200190815260200160002082815481106112f2576112f1614b73565b5b9060005260206000200181905550609b6000886040015173ffffffffffffffffffffffffffffffffffffffff1673ffffffffffffffffffffffffffffffffffffffff16815260200190815260200160002080548061135357611352614e0b565b5b600190038181906000526020600020016000905590555b808061137590614e3a565b915050611118565b5050808061138a90614e3a565b915050611033565b5060008111156113ab576113aa846040015182613027565b5b50505050565b60ac60149054906101000a900460ff1681565b60ac60159054906101000a900460ff1681565b609d60029054906101000a900460000b81565b6113f2610a45565b15611432576040517f08c379a000000000000000000000000000000000000000000000000000000000815260040161142990614c5a565b60405180910390fd5b60005b838390508110156116c657600061147685858481811061145857611457614b73565b5b905060200201602081019061146d9190614e83565b61ffff1661222e565b6114bd57609a600086868581811061149157611490614b73565b5b90506020020160208101906114a69190614e83565b61ffff1681526020019081526020016000206114fc565b609960008686858181106114d4576114d3614b73565b5b90506020020160208101906114e99190614e83565b61ffff1681526020019081526020016000205b604051806080016040529081600082015481526020016001820160009054906101000a900473ffffffffffffffffffffffffffffffffffffffff1673ffffffffffffffffffffffffffffffffffffffff1673ffffffffffffffffffffffffffffffffffffffff1681526020016001820160149054906101000a900469ffffffffffffffffffff1669ffffffffffffffffffff1669ffffffffffffffffffff1681526020016002820160009054906101000a900469ffffffffffffffffffff1669ffffffffffffffffffff1669ffffffffffffffffffff168152505090506115e16124da565b73ffffffffffffffffffffffffffffffffffffffff16816020015173ffffffffffffffffffffffffffffffffffffffff1614611652576040517f08c379a000000000000000000000000000000000000000000000000000000000815260040161164990614efc565b60405180910390fd5b60a254816060015169ffffffffffffffffffff16426116719190614dd7565b10156116b2576040517f08c379a00000000000000000000000000000000000000000000000000000000081526004016116a990614f68565b60405180910390fd5b5080806116be90614e3a565b915050611435565b506000609860009054906101000a900473ffffffffffffffffffffffffffffffffffffffff1673ffffffffffffffffffffffffffffffffffffffff16635bdf263c61170f6124da565b8686866040518563ffffffff1660e01b8152600401611731949392919061504b565b6020604051808303816000875af1158015611750573d6000803e3d6000fd5b505050506040513d601f19601f8201168201806040525081019061177491906150a0565b90508383609c60008481526020019081526020016000209190611798929190613aec565b5050505050565b609d60019054906101000a900460000b81565b60a65481565b609b60205281600052604060002081815481106117d457600080fd5b90600052602060002001600091509150505481565b600060019054906101000a900460ff166118115760008054906101000a900460ff161561181a565b611819612407565b5b611859576040517f08c379a000000000000000000000000000000000000000000000000000000000815260040161185090614b53565b60405180910390fd5b60008060019054906101000a900460ff1615905080156118a9576001600060016101000a81548160ff02191690831515021790555060016000806101000a81548160ff0219169083151502179055505b6118b1612418565b6118b9612479565b600060a681905550600060a181905550600060a881905550600260ac60146101000a81548160ff021916908360ff1602179055508960008151811061190157611900614b73565b5b6020026020010151609760006101000a81548173ffffffffffffffffffffffffffffffffffffffff021916908373ffffffffffffffffffffffffffffffffffffffff1602179055508960018151811061195d5761195c614b73565b5b6020026020010151609860006101000a81548173ffffffffffffffffffffffffffffffffffffffff021916908373ffffffffffffffffffffffffffffffffffffffff160217905550896002815181106119b9576119b8614b73565b5b602002602001015160ad60006101000a81548173ffffffffffffffffffffffffffffffffffffffff021916908373ffffffffffffffffffffffffffffffffffffffff16021790555089600381518110611a1557611a14614b73565b5b602002602001015160ac60006101000a81548173ffffffffffffffffffffffffffffffffffffffff021916908373ffffffffffffffffffffffffffffffffffffffff160217905550670de0b6b3a764000089611a7191906150cd565b60a381905550670de0b6b3a764000088600081518110611a9457611a93614b73565b5b6020026020010151611aa691906150cd565b60a48190555087600181518110611ac057611abf614b73565b5b602002602001015160a58190555087600281518110611ae257611ae1614b73565b5b602002602001015160a28190555087600381518110611b0457611b03614b73565b5b602002602001015160a08190555086600081518110611b2657611b25614b73565b5b6020026020010151609d60006101000a81548160ff021916908360000b60ff16021790555086600181518110611b5f57611b5e614b73565b5b6020026020010151609d60016101000a81548160ff021916908360000b60ff16021790555086600281518110611b9857611b97614b73565b5b6020026020010151609d60026101000a81548160ff021916908360000b60ff16021790555086600381518110611bd157611bd0614b73565b5b6020026020010151609d60036101000a81548160ff021916908360000b60ff1602179055508560ac60166101000a81548160ff021916908360ff1602179055508460ac60156101000a81548160ff021916908360ff1602179055508360a960006101000a81548160ff021916908360ff1602179055508260aa819055508160ab819055508015611c765760008060016101000a81548160ff0219169083151502179055505b50505050505050505050565b609d60039054906101000a900460000b81565b60ab5481565b60a75481565b611ca96124da565b73ffffffffffffffffffffffffffffffffffffffff168373ffffffffffffffffffffffffffffffffffffffff161480611d365750609760009054906101000a900473ffffffffffffffffffffffffffffffffffffffff1673ffffffffffffffffffffffffffffffffffffffff16611d1e6124da565b73ffffffffffffffffffffffffffffffffffffffff16145b611d75576040517f08c379a0000000000000000000000000000000000000000000000000000000008152600401611d6c90615173565b60405180910390fd5b611d89611d806124da565b838390506125a8565b611dc8576040517f08c379a0000000000000000000000000000000000000000000000000000000008152600401611dbf906151df565b60405180910390fd5b60005b8282905081101561222857609760009054906101000a900473ffffffffffffffffffffffffffffffffffffffff1673ffffffffffffffffffffffffffffffffffffffff16611e176124da565b73ffffffffffffffffffffffffffffffffffffffff161461202d57611e3a6124da565b73ffffffffffffffffffffffffffffffffffffffff16609760009054906101000a900473ffffffffffffffffffffffffffffffffffffffff1673ffffffffffffffffffffffffffffffffffffffff16636352211e858585818110611ea157611ea0614b73565b5b9050602002016020810190611eb69190614e83565b6040518263ffffffff1660e01b8152600401611ed29190615230565b602060405180830381865afa158015611eef573d6000803e3d6000fd5b505050506040513d601f19601f82011682018060405250810190611f139190615260565b73ffffffffffffffffffffffffffffffffffffffff1614611f69576040517f08c379a0000000000000000000000000000000000000000000000000000000008152600401611f6090614efc565b60405180910390fd5b609760009054906101000a900473ffffffffffffffffffffffffffffffffffffffff1673ffffffffffffffffffffffffffffffffffffffff166323b872dd611faf6124da565b30868686818110611fc357611fc2614b73565b5b9050602002016020810190611fd89190614e83565b6040518463ffffffff1660e01b8152600401611ff69392919061528d565b600060405180830381600087803b15801561201057600080fd5b505af1158015612024573d6000803e3d6000fd5b50505050612067565b600083838381811061204257612041614b73565b5b90506020020160208101906120579190614e83565b61ffff16141561206657612215565b5b61209b83838381811061207d5761207c614b73565b5b90506020020160208101906120929190614e83565b61ffff166130ba565b6120da576040517f08c379a00000000000000000000000000000000000000000000000000000000081526004016120d190615310565b60405180910390fd5b61210e8383838181106120f0576120ef614b73565b5b90506020020160208101906121059190614e83565b61ffff1661222e565b1561214d576121488484848481811061212a57612129614b73565b5b905060200201602081019061213f9190614e83565b61ffff166130ea565b612183565b6121828484848481811061216457612163614b73565b5b90506020020160208101906121799190614e83565b61ffff166132a9565b5b609b60008573ffffffffffffffffffffffffffffffffffffffff1673ffffffffffffffffffffffffffffffffffffffff1681526020019081526020016000208383838181106121d5576121d4614b73565b5b90506020020160208101906121ea9190614e83565b908060018154018082558091505060019003906000526020600020016000909161ffff169091909150555b808061222090614e3a565b915050611dcb565b50505050565b6000609760009054906101000a900473ffffffffffffffffffffffffffffffffffffffff1673ffffffffffffffffffffffffffffffffffffffff1663e05c57bf836040518263ffffffff1660e01b815260040161228b9190613e53565b61014060405180830381865afa1580156122a9573d6000803e3d6000fd5b505050506040513d601f19601f820116820180604052508101906122cd9190614a02565b90919293949596975090919293949596509091929394955090919293945090919293509091925090915090505080915050919050565b609e5481565b6123116124da565b73ffffffffffffffffffffffffffffffffffffffff1661232f610e15565b73ffffffffffffffffffffffffffffffffffffffff1614612385576040517f08c379a000000000000000000000000000000000000000000000000000000000815260040161237c90614bee565b60405180910390fd5b600073ffffffffffffffffffffffffffffffffffffffff168173ffffffffffffffffffffffffffffffffffffffff1614156123f5576040517f08c379a00000000000000000000000000000000000000000000000000000000081526004016123ec906153a2565b60405180910390fd5b6123fe816124e2565b50565b60a05481565b600061241230613471565b15905090565b600060019054906101000a900460ff16612467576040517f08c379a000000000000000000000000000000000000000000000000000000000815260040161245e90615434565b60405180910390fd5b61246f613484565b6124776134d5565b565b600060019054906101000a900460ff166124c8576040517f08c379a00000000000000000000000000000000000000000000000000000000081526004016124bf90615434565b60405180910390fd5b6124d0613484565b6124d8613536565b565b600033905090565b6000603360009054906101000a900473ffffffffffffffffffffffffffffffffffffffff16905081603360006101000a81548173ffffffffffffffffffffffffffffffffffffffff021916908373ffffffffffffffffffffffffffffffffffffffff1602179055508173ffffffffffffffffffffffffffffffffffffffff168173ffffffffffffffffffffffffffffffffffffffff167f8be0079c531659141344cd1fd0a4f28419497f9722a3daafe3b4186f6b6457e060405160405180910390a35050565b60008060ac60009054906101000a900473ffffffffffffffffffffffffffffffffffffffff1673ffffffffffffffffffffffffffffffffffffffff1662fdd58e8560ac60149054906101000a900460ff166040518363ffffffff1660e01b8152600401612616929190615485565b602060405180830381865afa158015612633573d6000803e3d6000fd5b505050506040513d601f19601f8201168201806040525081019061265791906154c3565b905082609b60008673ffffffffffffffffffffffffffffffffffffffff1673ffffffffffffffffffffffffffffffffffffffff168152602001908152602001600020805490506126a79190614d81565b60ac60159054906101000a900460ff1660ff16826126c591906150cd565b101591505092915050565b60008060996000888152602001908152602001600020604051806080016040529081600082015481526020016001820160009054906101000a900473ffffffffffffffffffffffffffffffffffffffff1673ffffffffffffffffffffffffffffffffffffffff1673ffffffffffffffffffffffffffffffffffffffff1681526020016001820160149054906101000a900469ffffffffffffffffffff1669ffffffffffffffffffff1669ffffffffffffffffffff1681526020016002820160009054906101000a900469ffffffffffffffffffff1669ffffffffffffffffffff1669ffffffffffffffffffff168152505090508573ffffffffffffffffffffffffffffffffffffffff16816020015173ffffffffffffffffffffffffffffffffffffffff1614612835576040517f08c379a000000000000000000000000000000000000000000000000000000000815260040161282c90614efc565b60405180910390fd5b60a254816060015169ffffffffffffffffffff16426128549190614dd7565b1015612895576040517f08c379a000000000000000000000000000000000000000000000000000000000815260040161288c90614f68565b60405180910390fd5b836128a8576128a3816135a2565b6128ab565b60005b915060008060006128bc8a876136f0565b9250925092506128cb8a6130ba565b6128d457600197505b8715612a0757609760009054906101000a900473ffffffffffffffffffffffffffffffffffffffff1673ffffffffffffffffffffffffffffffffffffffff1663b88d4fde308b8d6040518463ffffffff1660e01b815260040161293993929190615527565b600060405180830381600087803b15801561295357600080fd5b505af1158015612967573d6000803e3d6000fd5b50505050609960008b81526020019081526020016000206000808201600090556001820160006101000a81549073ffffffffffffffffffffffffffffffffffffffff02191690556001820160146101000a81549069ffffffffffffffffffff02191690556002820160006101000a81549069ffffffffffffffffffff02191690555050609e60008154809291906129fd90615571565b9190505550612b28565b60405180608001604052808b61ffff1681526020018a73ffffffffffffffffffffffffffffffffffffffff1681526020014269ffffffffffffffffffff1681526020014269ffffffffffffffffffff16815250609960008c81526020019081526020016000206000820151816000015560208201518160010160006101000a81548173ffffffffffffffffffffffffffffffffffffffff021916908373ffffffffffffffffffffffffffffffffffffffff16021790555060408201518160010160146101000a81548169ffffffffffffffffffff021916908369ffffffffffffffffffff16021790555060608201518160020160006101000a81548169ffffffffffffffffffff021916908369ffffffffffffffffffff1602179055509050505b7f9b394c66bc4fdb2f56f5842a796076e6552d6f15eaacb6e63e3c53b474d872e98a868a86868660a154604051612b659796959493929190615612565b60405180910390a15050505095945050505050565b600080609a6000888152602001908152602001600020604051806080016040529081600082015481526020016001820160009054906101000a900473ffffffffffffffffffffffffffffffffffffffff1673ffffffffffffffffffffffffffffffffffffffff1673ffffffffffffffffffffffffffffffffffffffff1681526020016001820160149054906101000a900469ffffffffffffffffffff1669ffffffffffffffffffff1669ffffffffffffffffffff1681526020016002820160009054906101000a900469ffffffffffffffffffff1669ffffffffffffffffffff1669ffffffffffffffffffff168152505090508573ffffffffffffffffffffffffffffffffffffffff16816020015173ffffffffffffffffffffffffffffffffffffffff1614612cdf576040517f08c379a0000000000000000000000000000000000000000000000000000000008152600401612cd690614efc565b60405180910390fd5b60a254816060015169ffffffffffffffffffff1642612cfe9190614dd7565b1015612d3f576040517f08c379a0000000000000000000000000000000000000000000000000000000008152600401612d3690614f68565b60405180910390fd5b83612d5257612d4d816138ae565b612d55565b60005b91506000806000612d668a876136f0565b925092509250612d758a6130ba565b612d7e57600197505b8715612eb157609760009054906101000a900473ffffffffffffffffffffffffffffffffffffffff1673ffffffffffffffffffffffffffffffffffffffff1663b88d4fde308b8d6040518463ffffffff1660e01b8152600401612de393929190615527565b600060405180830381600087803b158015612dfd57600080fd5b505af1158015612e11573d6000803e3d6000fd5b50505050609a60008b81526020019081526020016000206000808201600090556001820160006101000a81549073ffffffffffffffffffffffffffffffffffffffff02191690556001820160146101000a81549069ffffffffffffffffffff02191690556002820160006101000a81549069ffffffffffffffffffff02191690555050609f6000815480929190612ea790615571565b9190505550612fd9565b60405180608001604052808b61ffff1681526020018a73ffffffffffffffffffffffffffffffffffffffff168152602001612eea6139c2565b69ffffffffffffffffffff1681526020014269ffffffffffffffffffff16815250609a60008c81526020019081526020016000206000820151816000015560208201518160010160006101000a81548173ffffffffffffffffffffffffffffffffffffffff021916908373ffffffffffffffffffffffffffffffffffffffff16021790555060408201518160010160146101000a81548169ffffffffffffffffffff021916908369ffffffffffffffffffff16021790555060608201518160020160006101000a81548169ffffffffffffffffffff021916908369ffffffffffffffffffff1602179055509050505b7f6e949c62565860afb9dd6295e998a1c40005fe9560aedf8d596717681cfc7a1f8a868a86868660405161301296959493929190615688565b60405180910390a15050505095945050505050565b60ad60009054906101000a900473ffffffffffffffffffffffffffffffffffffffff1673ffffffffffffffffffffffffffffffffffffffff166340c10f1983836040518363ffffffff1660e01b81526004016130849291906156f0565b600060405180830381600087803b15801561309e57600080fd5b505af11580156130b2573d6000803e3d6000fd5b505050505050565b6000806130c6836107da565b50905060ac60169054906101000a900460ff1660ff168160ff161015915050919050565b6130f2610a45565b15613132576040517f08c379a000000000000000000000000000000000000000000000000000000000815260040161312990614c5a565b60405180910390fd5b60405180608001604052808261ffff1681526020018373ffffffffffffffffffffffffffffffffffffffff1681526020014269ffffffffffffffffffff1681526020014269ffffffffffffffffffff16815250609960008381526020019081526020016000206000820151816000015560208201518160010160006101000a81548173ffffffffffffffffffffffffffffffffffffffff021916908373ffffffffffffffffffffffffffffffffffffffff16021790555060408201518160010160146101000a81548169ffffffffffffffffffff021916908369ffffffffffffffffffff16021790555060608201518160020160006101000a81548169ffffffffffffffffffff021916908369ffffffffffffffffffff160217905550905050609e600081548092919061326590614e3a565b91905055507f8af1bb49fb16c7835975aa59449ba4328dd54737dfb2ae9fa6c5eca71fda51f981834260405161329d93929190615719565b60405180910390a15050565b6132b1610a45565b156132f1576040517f08c379a00000000000000000000000000000000000000000000000000000000081526004016132e890614c5a565b60405180910390fd5b60405180608001604052808261ffff1681526020018373ffffffffffffffffffffffffffffffffffffffff16815260200161332a6139c2565b69ffffffffffffffffffff1681526020014269ffffffffffffffffffff16815250609a60008381526020019081526020016000206000820151816000015560208201518160010160006101000a81548173ffffffffffffffffffffffffffffffffffffffff021916908373ffffffffffffffffffffffffffffffffffffffff16021790555060408201518160010160146101000a81548169ffffffffffffffffffff021916908369ffffffffffffffffffff16021790555060608201518160020160006101000a81548169ffffffffffffffffffff021916908369ffffffffffffffffffff160217905550905050609f600081548092919061342b90614e3a565b91905055507f8af1bb49fb16c7835975aa59449ba4328dd54737dfb2ae9fa6c5eca71fda51f9818360a15460405161346593929190615719565b60405180910390a15050565b600080823b905060008111915050919050565b600060019054906101000a900460ff166134d3576040517f08c379a00000000000000000000000000000000000000000000000000000000081526004016134ca90615434565b60405180910390fd5b565b600060019054906101000a900460ff16613524576040517f08c379a000000000000000000000000000000000000000000000000000000000815260040161351b90615434565b60405180910390fd5b61353461352f6124da565b6124e2565b565b600060019054906101000a900460ff16613585576040517f08c379a000000000000000000000000000000000000000000000000000000000815260040161357c90615434565b60405180910390fd5b6000606560006101000a81548160ff021916908315150217905550565b6000806135b283600001516107da565b509050600060a054846040015169ffffffffffffffffffff16426135d69190614dd7565b60a4546135e391906150cd565b6135ed919061577f565b90506000600a60a960009054906101000a900460ff1660ff168460ff1661361491906150cd565b61361e91906150cd565b620186a061362c9190614d81565b9050620186a0818361363e91906150cd565b613648919061577f565b935060a3548460a75461365b9190614d81565b11156136745760a75460a3546136719190614dd7565b93505b60008411156136e8574260a8819055506136a6606460a5548661369791906150cd565b6136a1919061577f565b6139cc565b606460a55460646136b79190614dd7565b856136c291906150cd565b6136cc919061577f565b93508360a760008282546136e09190614d81565b925050819055505b505050919050565b600080606060006137008661222e565b61373657609a600087815260200190815260200160002060020160009054906101000a900469ffffffffffffffffffff16613764565b6099600087815260200190815260200160002060020160009054906101000a900469ffffffffffffffffffff165b69ffffffffffffffffffff164261377b9190614dd7565b905060006137888761222e565b9050609760009054906101000a900473ffffffffffffffffffffffffffffffffffffffff1673ffffffffffffffffffffffffffffffffffffffff166363dbfc77886137fd846137e657609d60029054906101000a900460000b6137f7565b609d60009054906101000a900460000b5b86613a34565b6138318561381a57609d60039054906101000a900460000b61382b565b609d60019054906101000a900460000b5b87613a34565b8a6040518563ffffffff1660e01b815260040161385194939291906157b0565b6000604051808303816000875af1158015613870573d6000803e3d6000fd5b505050506040513d6000823e3d601f19601f82011682018060405250810190613899919061589b565b80955081965082975050505050509250925092565b6000806138be83600001516107da565b9150506000836040015169ffffffffffffffffffff1660a1546138e19190614dd7565b905060006103e860ab546138f5919061590a565b60646103e860aa5460328760ff16111561391b578660646139169190615a21565b61391d565b865b60000b61392a919061590a565b613934919061590a565b61393e9190615a55565b6139489190615abf565b9050620186a0818361395a91906150cd565b613964919061577f565b935060a3548460a7546139779190614d81565b11156139905760a75460a35461398d9190614dd7565b93505b60008411156139ba574260a8819055508360a760008282546139b29190614d81565b925050819055505b505050919050565b600060a154905090565b6000609f5414156139f5578060a660008282546139e99190614d81565b92505081905550613a31565b609f5460a65482613a069190614d81565b613a10919061577f565b60a16000828254613a219190614d81565b92505081905550600060a6819055505b50565b60008060a0548460000b84613a49919061590a565b613a539190615a55565b90506064811315613a68576064915050613abe565b7fffffffffffffffffffffffffffffffffffffffffffffffffffffffffffffff9c811215613ab9577fffffffffffffffffffffffffffffffffffffffffffffffffffffffffffffff9c915050613abe565b809150505b92915050565b50805460008255600f016010900490600052602060002090810190613ae99190613b9a565b50565b82805482825590600052602060002090600f01601090048101928215613b895791602002820160005b83821115613b5957833561ffff1683826101000a81548161ffff021916908361ffff1602179055509260200192600201602081600101049283019260010302613b15565b8015613b875782816101000a81549061ffff0219169055600201602081600101049283019260010302613b59565b505b509050613b969190613b9a565b5090565b5b80821115613bb3576000816000905550600101613b9b565b5090565b600060ff82169050919050565b613bcd81613bb7565b82525050565b6000602082019050613be86000830184613bc4565b92915050565b60008160000b9050919050565b613c0481613bee565b82525050565b6000602082019050613c1f6000830184613bfb565b92915050565b6000819050919050565b613c3881613c25565b82525050565b6000602082019050613c536000830184613c2f565b92915050565b6000604051905090565b600080fd5b600080fd5b600073ffffffffffffffffffffffffffffffffffffffff82169050919050565b6000613c9882613c6d565b9050919050565b613ca881613c8d565b8114613cb357600080fd5b50565b600081359050613cc581613c9f565b92915050565b6000819050919050565b613cde81613ccb565b8114613ce957600080fd5b50565b600081359050613cfb81613cd5565b92915050565b600080fd5b600080fd5b600080fd5b60008083601f840112613d2657613d25613d01565b5b8235905067ffffffffffffffff811115613d4357613d42613d06565b5b602083019150836001820283011115613d5f57613d5e613d0b565b5b9250929050565b600080600080600060808688031215613d8257613d81613c63565b5b6000613d9088828901613cb6565b9550506020613da188828901613cb6565b9450506040613db288828901613cec565b935050606086013567ffffffffffffffff811115613dd357613dd2613c68565b5b613ddf88828901613d10565b92509250509295509295909350565b60007fffffffff0000000000000000000000000000000000000000000000000000000082169050919050565b613e2381613dee565b82525050565b6000602082019050613e3e6000830184613e1a565b92915050565b613e4d81613ccb565b82525050565b6000602082019050613e686000830184613e44565b92915050565b600060208284031215613e8457613e83613c63565b5b6000613e9284828501613cec565b91505092915050565b6000604082019050613eb06000830185613bc4565b613ebd6020830184613bc4565b9392505050565b613ecd81613c8d565b82525050565b600069ffffffffffffffffffff82169050919050565b613ef281613ed3565b82525050565b6000608082019050613f0d6000830187613e44565b613f1a6020830186613ec4565b613f276040830185613ee9565b613f346060830184613ee9565b95945050505050565b6000819050919050565b6000613f62613f5d613f5884613c6d565b613f3d565b613c6d565b9050919050565b6000613f7482613f47565b9050919050565b6000613f8682613f69565b9050919050565b613f9681613f7b565b82525050565b6000602082019050613fb16000830184613f8d565b92915050565b6000819050919050565b613fca81613fb7565b8114613fd557600080fd5b50565b600081359050613fe781613fc1565b92915050565b6000806040838503121561400457614003613c63565b5b600061401285828601613fd8565b925050602061402385828601613cec565b9150509250929050565b600061ffff82169050919050565b6140448161402d565b82525050565b600060208201905061405f600083018461403b565b92915050565b60008115159050919050565b61407a81614065565b82525050565b60006020820190506140956000830184614071565b92915050565b6000601f19601f8301169050919050565b7f4e487b7100000000000000000000000000000000000000000000000000000000600052604160045260246000fd5b6140e48261409b565b810181811067ffffffffffffffff82111715614103576141026140ac565b5b80604052505050565b6000614116613c59565b905061412282826140db565b919050565b600067ffffffffffffffff821115614142576141416140ac565b5b602082029050602081019050919050565b600061416661416184614127565b61410c565b9050808382526020820190506020840283018581111561418957614188613d0b565b5b835b818110156141b2578061419e8882613cb6565b84526020840193505060208101905061418b565b5050509392505050565b600082601f8301126141d1576141d0613d01565b5b81356141e1848260208601614153565b91505092915050565b6000806040838503121561420157614200613c63565b5b600083013567ffffffffffffffff81111561421f5761421e613c68565b5b61422b858286016141bc565b925050602061423c85828601613cec565b9150509250929050565b600060208201905061425b6000830184613ec4565b92915050565b600080fd5b600080fd5b600067ffffffffffffffff821115614286576142856140ac565b5b602082029050602081019050919050565b6142a08161402d565b81146142ab57600080fd5b50565b6000813590506142bd81614297565b92915050565b60006142d66142d18461426b565b61410c565b905080838252602082019050602084028301858111156142f9576142f8613d0b565b5b835b81811015614322578061430e88826142ae565b8452602084019350506020810190506142fb565b5050509392505050565b600082601f83011261434157614340613d01565b5b81356143518482602086016142c3565b91505092915050565b61436381614065565b811461436e57600080fd5b50565b6000813590506143808161435a565b92915050565b600060a0828403121561439c5761439b614261565b5b6143a660a061410c565b905060006143b684828501613fd8565b60008301525060206143ca84828501613cb6565b60208301525060406143de84828501613cb6565b604083015250606082013567ffffffffffffffff81111561440257614401614266565b5b61440e8482850161432c565b606083015250608061442284828501614371565b60808301525092915050565b6000806040838503121561444557614444613c63565b5b600083013567ffffffffffffffff81111561446357614462613c68565b5b61446f85828601614386565b925050602061448085828601613cec565b9150509250929050565b60008083601f8401126144a05761449f613d01565b5b8235905067ffffffffffffffff8111156144bd576144bc613d06565b5b6020830191508360208202830111156144d9576144d8613d0b565b5b9250929050565b6000806000604084860312156144f9576144f8613c63565b5b600084013567ffffffffffffffff81111561451757614516613c68565b5b6145238682870161448a565b9350935050602061453686828701614371565b9150509250925092565b6000806040838503121561455757614556613c63565b5b600061456585828601613cb6565b925050602061457685828601613cec565b9150509250929050565b600067ffffffffffffffff82111561459b5761459a6140ac565b5b602082029050602081019050919050565b60006145bf6145ba84614580565b61410c565b905080838252602082019050602084028301858111156145e2576145e1613d0b565b5b835b8181101561460b57806145f78882613cec565b8452602084019350506020810190506145e4565b5050509392505050565b600082601f83011261462a57614629613d01565b5b813561463a8482602086016145ac565b91505092915050565b600067ffffffffffffffff82111561465e5761465d6140ac565b5b602082029050602081019050919050565b61467881613bee565b811461468357600080fd5b50565b6000813590506146958161466f565b92915050565b60006146ae6146a984614643565b61410c565b905080838252602082019050602084028301858111156146d1576146d0613d0b565b5b835b818110156146fa57806146e68882614686565b8452602084019350506020810190506146d3565b5050509392505050565b600082601f83011261471957614718613d01565b5b813561472984826020860161469b565b91505092915050565b61473b81613bb7565b811461474657600080fd5b50565b60008135905061475881614732565b92915050565b61476781613c25565b811461477257600080fd5b50565b6000813590506147848161475e565b92915050565b60008060008060008060008060006101208a8c0312156147ad576147ac613c63565b5b60008a013567ffffffffffffffff8111156147cb576147ca613c68565b5b6147d78c828d016141bc565b99505060206147e88c828d01613cec565b98505060408a013567ffffffffffffffff81111561480957614808613c68565b5b6148158c828d01614615565b97505060608a013567ffffffffffffffff81111561483657614835613c68565b5b6148428c828d01614704565b96505060806148538c828d01614749565b95505060a06148648c828d01614749565b94505060c06148758c828d01614749565b93505060e06148868c828d01614775565b9250506101006148988c828d01614775565b9150509295985092959850929598565b6000806000604084860312156148c1576148c0613c63565b5b60006148cf86828701613cb6565b935050602084013567ffffffffffffffff8111156148f0576148ef613c68565b5b6148fc8682870161448a565b92509250509250925092565b60006020828403121561491e5761491d613c63565b5b600061492c84828501613cb6565b91505092915050565b600082825260208201905092915050565b7f43616e6e6f742073656e6420746f6b656e7320746f2056656e7565206469726560008201527f63746c7900000000000000000000000000000000000000000000000000000000602082015250565b60006149a2602483614935565b91506149ad82614946565b604082019050919050565b600060208201905081810360008301526149d181614995565b9050919050565b6000815190506149e78161435a565b92915050565b6000815190506149fc81614732565b92915050565b6000806000806000806000806000806101408b8d031215614a2657614a25613c63565b5b6000614a348d828e016149d8565b9a50506020614a458d828e016149ed565b9950506040614a568d828e016149ed565b9850506060614a678d828e016149ed565b9750506080614a788d828e016149ed565b96505060a0614a898d828e016149ed565b95505060c0614a9a8d828e016149ed565b94505060e0614aab8d828e016149ed565b935050610100614abd8d828e016149ed565b925050610120614acf8d828e016149ed565b9150509295989b9194979a5092959850565b7f496e697469616c697a61626c653a20636f6e747261637420697320616c72656160008201527f647920696e697469616c697a6564000000000000000000000000000000000000602082015250565b6000614b3d602e83614935565b9150614b4882614ae1565b604082019050919050565b60006020820190508181036000830152614b6c81614b30565b9050919050565b7f4e487b7100000000000000000000000000000000000000000000000000000000600052603260045260246000fd5b7f4f776e61626c653a2063616c6c6572206973206e6f7420746865206f776e6572600082015250565b6000614bd8602083614935565b9150614be382614ba2565b602082019050919050565b60006020820190508181036000830152614c0781614bcb565b9050919050565b7f5061757361626c653a2070617573656400000000000000000000000000000000600082015250565b6000614c44601083614935565b9150614c4f82614c0e565b602082019050919050565b60006020820190508181036000830152614c7381614c37565b9050919050565b7f4f6e6c7920436c61696d2063616e2066756c66696c6c00000000000000000000600082015250565b6000614cb0601683614935565b9150614cbb82614c7a565b602082019050919050565b60006020820190508181036000830152614cdf81614ca3565b9050919050565b7f436c61696d2072657175657374206e6f7420666f756e64000000000000000000600082015250565b6000614d1c601783614935565b9150614d2782614ce6565b602082019050919050565b60006020820190508181036000830152614d4b81614d0f565b9050919050565b7f4e487b7100000000000000000000000000000000000000000000000000000000600052601160045260246000fd5b6000614d8c82613ccb565b9150614d9783613ccb565b9250827fffffffffffffffffffffffffffffffffffffffffffffffffffffffffffffffff03821115614dcc57614dcb614d52565b5b828201905092915050565b6000614de282613ccb565b9150614ded83613ccb565b925082821015614e0057614dff614d52565b5b828203905092915050565b7f4e487b7100000000000000000000000000000000000000000000000000000000600052603160045260246000fd5b6000614e4582613ccb565b91507fffffffffffffffffffffffffffffffffffffffffffffffffffffffffffffffff821415614e7857614e77614d52565b5b600182019050919050565b600060208284031215614e9957614e98613c63565b5b6000614ea7848285016142ae565b91505092915050565b7f4e6f7420796f757220746f6b656e000000000000000000000000000000000000600082015250565b6000614ee6600e83614935565b9150614ef182614eb0565b602082019050919050565b60006020820190508181036000830152614f1581614ed9565b9050919050565b7f43616e6e6f7420636c61696d206265666f726520454f42000000000000000000600082015250565b6000614f52601783614935565b9150614f5d82614f1c565b602082019050919050565b60006020820190508181036000830152614f8181614f45565b9050919050565b600082825260208201905092915050565b6000819050919050565b614fac8161402d565b82525050565b6000614fbe8383614fa3565b60208301905092915050565b6000614fd960208401846142ae565b905092915050565b6000602082019050919050565b6000614ffa8385614f88565b935061500582614f99565b8060005b8581101561503e5761501b8284614fca565b6150258882614fb2565b975061503083614fe1565b925050600181019050615009565b5085925050509392505050565b60006060820190506150606000830187613ec4565b8181036020830152615073818587614fee565b90506150826040830184614071565b95945050505050565b60008151905061509a81613fc1565b92915050565b6000602082840312156150b6576150b5613c63565b5b60006150c48482850161508b565b91505092915050565b60006150d882613ccb565b91506150e383613ccb565b9250817fffffffffffffffffffffffffffffffffffffffffffffffffffffffffffffffff048311821515161561511c5761511b614d52565b5b828202905092915050565b7f446f206e6f74206c6f736520796f757220746f6b656e73000000000000000000600082015250565b600061515d601783614935565b915061516882615127565b602082019050919050565b6000602082019050818103600083015261518c81615150565b9050919050565b7f4b69746368656e20737061636520726571756972656400000000000000000000600082015250565b60006151c9601683614935565b91506151d482615193565b602082019050919050565b600060208201905081810360008301526151f8816151bc565b9050919050565b600061521a6152156152108461402d565b613f3d565b613ccb565b9050919050565b61522a816151ff565b82525050565b60006020820190506152456000830184615221565b92915050565b60008151905061525a81613c9f565b92915050565b60006020828403121561527657615275613c63565b5b60006152848482850161524b565b91505092915050565b60006060820190506152a26000830186613ec4565b6152af6020830185613ec4565b6152bc6040830184615221565b949350505050565b7f4e6f7420656c696769626c650000000000000000000000000000000000000000600082015250565b60006152fa600c83614935565b9150615305826152c4565b602082019050919050565b60006020820190508181036000830152615329816152ed565b9050919050565b7f4f776e61626c653a206e6577206f776e657220697320746865207a65726f206160008201527f6464726573730000000000000000000000000000000000000000000000000000602082015250565b600061538c602683614935565b915061539782615330565b604082019050919050565b600060208201905081810360008301526153bb8161537f565b9050919050565b7f496e697469616c697a61626c653a20636f6e7472616374206973206e6f74206960008201527f6e697469616c697a696e67000000000000000000000000000000000000000000602082015250565b600061541e602b83614935565b9150615429826153c2565b604082019050919050565b6000602082019050818103600083015261544d81615411565b9050919050565b600061546f61546a61546584613bb7565b613f3d565b613ccb565b9050919050565b61547f81615454565b82525050565b600060408201905061549a6000830185613ec4565b6154a76020830184615476565b9392505050565b6000815190506154bd81613cd5565b92915050565b6000602082840312156154d9576154d8613c63565b5b60006154e7848285016154ae565b91505092915050565b600082825260208201905092915050565b50565b60006155116000836154f0565b915061551c82615501565b600082019050919050565b600060808201905061553c6000830186613ec4565b6155496020830185613ec4565b6155566040830184613e44565b818103606083015261556781615504565b9050949350505050565b600061557c82613ccb565b915060008214156155905761558f614d52565b5b600182039050919050565b600081519050919050565b60005b838110156155c45780820151818401526020810190506155a9565b838111156155d3576000848401525b50505050565b60006155e48261559b565b6155ee8185614935565b93506155fe8185602086016155a6565b6156078161409b565b840191505092915050565b600060e082019050615627600083018a613e44565b6156346020830189613e44565b6156416040830188614071565b61564e6060830187613bc4565b61565b6080830186613bc4565b81810360a083015261566d81856155d9565b905061567c60c0830184613e44565b98975050505050505050565b600060c08201905061569d6000830189613e44565b6156aa6020830188613e44565b6156b76040830187614071565b6156c46060830186613bc4565b6156d16080830185613bc4565b81810360a08301526156e381846155d9565b9050979650505050505050565b60006040820190506157056000830185613ec4565b6157126020830184613e44565b9392505050565b600060608201905061572e6000830186613e44565b61573b6020830185613ec4565b6157486040830184613e44565b949350505050565b7f4e487b7100000000000000000000000000000000000000000000000000000000600052601260045260246000fd5b600061578a82613ccb565b915061579583613ccb565b9250826157a5576157a4615750565b5b828204905092915050565b60006080820190506157c56000830187613e44565b6157d26020830186613bfb565b6157df6040830185613bfb565b6157ec6060830184613e44565b95945050505050565b600080fd5b600067ffffffffffffffff821115615815576158146140ac565b5b61581e8261409b565b9050602081019050919050565b600061583e615839846157fa565b61410c565b90508281526020810184848401111561585a576158596157f5565b5b6158658482856155a6565b509392505050565b600082601f83011261588257615881613d01565b5b815161589284826020860161582b565b91505092915050565b6000806000606084860312156158b4576158b3613c63565b5b60006158c2868287016149ed565b93505060206158d3868287016149ed565b925050604084015167ffffffffffffffff8111156158f4576158f3613c68565b5b6159008682870161586d565b9150509250925092565b600061591582613c25565b915061592083613c25565b9250827f7fffffffffffffffffffffffffffffffffffffffffffffffffffffffffffffff048211600084136000841316161561595f5761595e614d52565b5b817f8000000000000000000000000000000000000000000000000000000000000000058312600084126000841316161561599c5761599b614d52565b5b827f800000000000000000000000000000000000000000000000000000000000000005821260008413600084121616156159d9576159d8614d52565b5b827f7fffffffffffffffffffffffffffffffffffffffffffffffffffffffffffffff0582126000841260008412161615615a1657615a15614d52565b5b828202905092915050565b6000615a2c82613bb7565b9150615a3783613bb7565b925082821015615a4a57615a49614d52565b5b828203905092915050565b6000615a6082613c25565b9150615a6b83613c25565b925082615a7b57615a7a615750565b5b600160000383147f800000000000000000000000000000000000000000000000000000000000000083141615615ab457615ab3614d52565b5b828205905092915050565b6000615aca82613c25565b9150615ad583613c25565b9250817f7fffffffffffffffffffffffffffffffffffffffffffffffffffffffffffffff03831360008312151615615b1057615b0f614d52565b5b817f8000000000000000000000000000000000000000000000000000000000000000038312600083121615615b4857615b47614d52565b5b82820190509291505056fea26469706673582212209a5ca7b82554fdbe843978d01b4f465a27d92479c4165f974721efea9a946f1b64736f6c634300080a0033",
  "immutableReferences": {},
  "source": "// SPDX-License-Identifier: MIT\n\npragma solidity ^0.8.0;\n\nimport \"./EntrepreneurKitchen.sol\";\nimport \"./GourmetFood.sol\";\nimport \"./KitchenShop.sol\";\n\ncontract LeStake is EntrepreneurKitchen {\n  GourmetFood foodToken; // Reference to the $GFOOD contract\n\n  function initialize(\n    address[] memory _addresses, // character, claim, foodToken, kitchenShop\n    uint256 _foodTokenMaxSupply,\n    uint256[] memory _earningSettings, // dailyChefEarnings, ratTheftPercentage, vestingPeriod, accrualPeriod\n    int8[] memory _propertyIncrements, // dailySkillRate, dailyInsanityRate, dailyIntelligenceRate, dailyFatnessRate\n    uint8 _minEfficiency,\n    uint8 _charactersPerKitchen,\n    uint8 _chefEfficiencyMultiplier,\n    int256 _ratEfficiencyMultiplier,\n    int256 _ratEfficiencyOffset\n  ) external initializer {\n    __Ownable_init();\n    __Pausable_init();\n\n    unaccountedRewards = 0;\n    foodTokensPerRat = 0;\n    lastClaimTimestamp = 0;\n    kitchenId = 2;\n\n    character = Character(_addresses[0]);\n    claim = IClaim(_addresses[1]);\n    foodToken = GourmetFood(_addresses[2]);\n    kitchenShop = KitchenShop(_addresses[3]);\n    foodTokenMaxSupply = _foodTokenMaxSupply * 1 ether;\n    dailyChefEarnings = _earningSettings[0] * 1 ether;\n    ratTheftPercentage = _earningSettings[1];\n    vestingPeriod = _earningSettings[2];\n    accrualPeriod = _earningSettings[3];\n    dailySkillRate = _propertyIncrements[0];\n    dailyInsanityRate = _propertyIncrements[1];\n    dailyIntelligenceRate = _propertyIncrements[2];\n    dailyFatnessRate = _propertyIncrements[3];\n    minEfficiency = _minEfficiency;\n    charactersPerKitchen = _charactersPerKitchen;\n    chefEfficiencyMultiplier = _chefEfficiencyMultiplier;\n    ratEfficiencyMultiplier = _ratEfficiencyMultiplier;\n    ratEfficiencyOffset = _ratEfficiencyOffset;\n  }\n\n  /**\n   * Mints the given amount of food tokens in the user's account\n   * @param sender - User wallet address\n   * @param amount - Amount of food tokens to mint\n   */\n  function _mintFoodToken(address sender, uint256 amount) internal override {\n    foodToken.mint(sender, amount);\n  }\n}\n",
  "sourcePath": "/Users/chris/workspace/ratalert/ratalert-contracts/contracts/LeStake.sol",
  "compiler": {
    "name": "solc",
    "version": "0.8.10+commit.fc410830.Emscripten.clang"
  },
  "schemaVersion": "3.4.5",
  "updatedAt": "2022-03-12T10:31:31.789Z",
  "networkType": "ethereum",
  "devdoc": {
    "kind": "dev",
    "methods": {
      "claimMany(uint16[],bool)": {
        "params": {
          "tokenIds": "- The IDs of the tokens in question",
          "unstake": "- Whether or not to unstake the given tokens"
        }
      },
      "fulfillClaimMany((bytes32,address,address,uint16[],bool),uint256)": {
        "params": {
          "randomVal": "- List of random values created by VRF",
          "v": "- VRF struct for the corresponding request"
        }
      },
      "getProperties(uint256)": {
        "params": {
          "tokenId": "- The ID of the token to check"
        },
        "returns": {
          "efficiency": "& tolerance values"
        }
      },
      "isChef(uint256)": {
        "params": {
          "tokenId": "- The ID of the token to check"
        },
        "returns": {
          "chef": "- Whether or not the token is a Chef"
        }
      },
      "owner()": {
        "details": "Returns the address of the current owner."
      },
      "paused()": {
        "details": "Returns true if the contract is paused, and false otherwise."
      },
      "renounceOwnership()": {
        "details": "Leaves the contract without owner. It will not be possible to call `onlyOwner` functions anymore. Can only be called by the current owner. NOTE: Renouncing ownership will leave the contract without an owner, thereby removing any functionality that is only available to the owner."
      },
      "stakeMany(address,uint16[])": {
        "params": {
          "account": "- The address of the staker",
          "tokenIds": "- The IDs of the Chefs & Rats to stake"
        }
      },
      "transferOwnership(address)": {
        "details": "Transfers ownership of the contract to a new account (`newOwner`). Can only be called by the current owner."
      }
    },
    "version": 1
  },
  "userdoc": {
    "kind": "user",
    "methods": {
      "claimMany(uint16[],bool)": {
        "notice": "ChainLink VRF request: Claims food token earnings, level-ups and optionally unstake characters"
      },
      "fulfillClaimMany((bytes32,address,address,uint16[],bool),uint256)": {
        "notice": "ChainLink VRF callback for claimMany()"
      },
      "getProperties(uint256)": {
        "notice": "Get the character's properties"
      },
      "isChef(uint256)": {
        "notice": "Checks if the token is a Chef"
      },
      "stakeMany(address,uint16[])": {
        "notice": "Adds Chefs & Rats"
      }
    },
    "version": 1
  }
}