{
  "contractName": "LeStake",
  "abi": [
    {
      "anonymous": false,
      "inputs": [
        {
          "indexed": false,
          "internalType": "uint256",
          "name": "tokenId",
          "type": "uint256"
        },
        {
          "indexed": false,
          "internalType": "uint256",
          "name": "earned",
          "type": "uint256"
        },
        {
          "indexed": false,
          "internalType": "bool",
          "name": "unstaked",
          "type": "bool"
        },
        {
          "indexed": false,
          "internalType": "uint8",
          "name": "skill",
          "type": "uint8"
        },
        {
          "indexed": false,
          "internalType": "uint8",
          "name": "freak",
          "type": "uint8"
        },
        {
          "indexed": false,
          "internalType": "string",
          "name": "eventName",
          "type": "string"
        },
        {
          "indexed": false,
          "internalType": "uint256",
          "name": "foodTokensPerRat",
          "type": "uint256"
        }
      ],
      "name": "ChefClaimed",
      "type": "event"
    },
    {
      "anonymous": false,
      "inputs": [
        {
          "indexed": true,
          "internalType": "address",
          "name": "previousOwner",
          "type": "address"
        },
        {
          "indexed": true,
          "internalType": "address",
          "name": "newOwner",
          "type": "address"
        }
      ],
      "name": "OwnershipTransferred",
      "type": "event"
    },
    {
      "anonymous": false,
      "inputs": [
        {
          "indexed": false,
          "internalType": "address",
          "name": "account",
          "type": "address"
        }
      ],
      "name": "Paused",
      "type": "event"
    },
    {
      "anonymous": false,
      "inputs": [
        {
          "indexed": false,
          "internalType": "uint256",
          "name": "tokenId",
          "type": "uint256"
        },
        {
          "indexed": false,
          "internalType": "uint256",
          "name": "earned",
          "type": "uint256"
        },
        {
          "indexed": false,
          "internalType": "bool",
          "name": "unstaked",
          "type": "bool"
        },
        {
          "indexed": false,
          "internalType": "uint8",
          "name": "intelligence",
          "type": "uint8"
        },
        {
          "indexed": false,
          "internalType": "uint8",
          "name": "bodyMass",
          "type": "uint8"
        },
        {
          "indexed": false,
          "internalType": "string",
          "name": "eventName",
          "type": "string"
        },
        {
          "indexed": false,
          "internalType": "uint256",
          "name": "foodTokensPerRat",
          "type": "uint256"
        }
      ],
      "name": "RatClaimed",
      "type": "event"
    },
    {
      "anonymous": false,
      "inputs": [
        {
          "indexed": false,
          "internalType": "uint256",
          "name": "tokenId",
          "type": "uint256"
        },
        {
          "indexed": false,
          "internalType": "address",
          "name": "owner",
          "type": "address"
        },
        {
          "indexed": false,
          "internalType": "uint256",
          "name": "value",
          "type": "uint256"
        }
      ],
      "name": "TokenStaked",
      "type": "event"
    },
    {
      "anonymous": false,
      "inputs": [
        {
          "indexed": false,
          "internalType": "address",
          "name": "account",
          "type": "address"
        }
      ],
      "name": "Unpaused",
      "type": "event"
    },
    {
      "inputs": [],
      "name": "accrualPeriod",
      "outputs": [
        {
          "internalType": "uint256",
          "name": "",
          "type": "uint256"
        }
      ],
      "stateMutability": "view",
      "type": "function",
      "constant": true
    },
    {
      "inputs": [],
      "name": "chefEfficiencyMultiplier",
      "outputs": [
        {
          "internalType": "uint8",
          "name": "",
          "type": "uint8"
        }
      ],
      "stateMutability": "view",
      "type": "function",
      "constant": true
    },
    {
      "inputs": [
        {
          "internalType": "uint256",
          "name": "",
          "type": "uint256"
        }
      ],
      "name": "chefs",
      "outputs": [
        {
          "internalType": "uint256",
          "name": "tokenId",
          "type": "uint256"
        },
        {
          "internalType": "address",
          "name": "owner",
          "type": "address"
        },
        {
          "internalType": "uint80",
          "name": "value",
          "type": "uint80"
        },
        {
          "internalType": "uint80",
          "name": "timestamp",
          "type": "uint80"
        }
      ],
      "stateMutability": "view",
      "type": "function",
      "constant": true
    },
    {
      "inputs": [],
      "name": "chefsPerKitchen",
      "outputs": [
        {
          "internalType": "uint8",
          "name": "",
          "type": "uint8"
        }
      ],
      "stateMutability": "view",
      "type": "function",
      "constant": true
    },
    {
      "inputs": [],
      "name": "claim",
      "outputs": [
        {
          "internalType": "contract IClaim",
          "name": "",
          "type": "address"
        }
      ],
      "stateMutability": "view",
      "type": "function",
      "constant": true
    },
    {
      "inputs": [
        {
          "internalType": "uint16[]",
          "name": "tokenIds",
          "type": "uint16[]"
        },
        {
          "internalType": "bool",
          "name": "unstake",
          "type": "bool"
        }
      ],
      "name": "claimMany",
      "outputs": [],
      "stateMutability": "nonpayable",
      "type": "function"
    },
    {
      "inputs": [
        {
          "internalType": "bytes32",
          "name": "",
          "type": "bytes32"
        },
        {
          "internalType": "uint256",
          "name": "",
          "type": "uint256"
        }
      ],
      "name": "claimRequests",
      "outputs": [
        {
          "internalType": "uint16",
          "name": "",
          "type": "uint16"
        }
      ],
      "stateMutability": "view",
      "type": "function",
      "constant": true
    },
    {
      "inputs": [],
      "name": "dailyBodyMassRate",
      "outputs": [
        {
          "internalType": "int8",
          "name": "",
          "type": "int8"
        }
      ],
      "stateMutability": "view",
      "type": "function",
      "constant": true
    },
    {
      "inputs": [],
      "name": "dailyChefEarnings",
      "outputs": [
        {
          "internalType": "uint256",
          "name": "",
          "type": "uint256"
        }
      ],
      "stateMutability": "view",
      "type": "function",
      "constant": true
    },
    {
      "inputs": [],
      "name": "dailyFreakRate",
      "outputs": [
        {
          "internalType": "int8",
          "name": "",
          "type": "int8"
        }
      ],
      "stateMutability": "view",
      "type": "function",
      "constant": true
    },
    {
      "inputs": [],
      "name": "dailyIntelligenceRate",
      "outputs": [
        {
          "internalType": "int8",
          "name": "",
          "type": "int8"
        }
      ],
      "stateMutability": "view",
      "type": "function",
      "constant": true
    },
    {
      "inputs": [],
      "name": "dailySkillRate",
      "outputs": [
        {
          "internalType": "int8",
          "name": "",
          "type": "int8"
        }
      ],
      "stateMutability": "view",
      "type": "function",
      "constant": true
    },
    {
      "inputs": [],
      "name": "foodTokenMaxSupply",
      "outputs": [
        {
          "internalType": "uint256",
          "name": "",
          "type": "uint256"
        }
      ],
      "stateMutability": "view",
      "type": "function",
      "constant": true
    },
    {
      "inputs": [],
      "name": "foodTokensPerRat",
      "outputs": [
        {
          "internalType": "uint256",
          "name": "",
          "type": "uint256"
        }
      ],
      "stateMutability": "view",
      "type": "function",
      "constant": true
    },
    {
      "inputs": [
        {
          "components": [
            {
              "internalType": "bytes32",
              "name": "requestId",
              "type": "bytes32"
            },
            {
              "internalType": "address",
              "name": "venue",
              "type": "address"
            },
            {
              "internalType": "address",
              "name": "sender",
              "type": "address"
            },
            {
              "internalType": "uint16[]",
              "name": "tokenIds",
              "type": "uint16[]"
            },
            {
              "internalType": "bool",
              "name": "unstake",
              "type": "bool"
            }
          ],
          "internalType": "struct IClaim.VRFStruct",
          "name": "v",
          "type": "tuple"
        },
        {
          "internalType": "uint256",
          "name": "randomness",
          "type": "uint256"
        }
      ],
      "name": "fulfillClaimMany",
      "outputs": [],
      "stateMutability": "nonpayable",
      "type": "function"
    },
    {
      "inputs": [
        {
          "internalType": "uint256",
          "name": "tokenId",
          "type": "uint256"
        }
      ],
      "name": "getProperties",
      "outputs": [
        {
          "internalType": "uint8",
          "name": "efficiency",
          "type": "uint8"
        },
        {
          "internalType": "uint8",
          "name": "tolerance",
          "type": "uint8"
        }
      ],
      "stateMutability": "view",
      "type": "function",
      "constant": true
    },
    {
      "inputs": [
        {
          "internalType": "uint256",
          "name": "tokenId",
          "type": "uint256"
        }
      ],
      "name": "isChef",
      "outputs": [
        {
          "internalType": "bool",
          "name": "chef",
          "type": "bool"
        }
      ],
      "stateMutability": "view",
      "type": "function",
      "constant": true
    },
    {
      "inputs": [],
      "name": "kitchenId",
      "outputs": [
        {
          "internalType": "uint8",
          "name": "",
          "type": "uint8"
        }
      ],
      "stateMutability": "view",
      "type": "function",
      "constant": true
    },
    {
      "inputs": [],
      "name": "lastClaimTimestamp",
      "outputs": [
        {
          "internalType": "uint256",
          "name": "",
          "type": "uint256"
        }
      ],
      "stateMutability": "view",
      "type": "function",
      "constant": true
    },
    {
      "inputs": [],
      "name": "minEfficiency",
      "outputs": [
        {
          "internalType": "uint8",
          "name": "",
          "type": "uint8"
        }
      ],
      "stateMutability": "view",
      "type": "function",
      "constant": true
    },
    {
      "inputs": [
        {
          "internalType": "address",
          "name": "",
          "type": "address"
        },
        {
          "internalType": "address",
          "name": "from",
          "type": "address"
        },
        {
          "internalType": "uint256",
          "name": "",
          "type": "uint256"
        },
        {
          "internalType": "bytes",
          "name": "",
          "type": "bytes"
        }
      ],
      "name": "onERC721Received",
      "outputs": [
        {
          "internalType": "bytes4",
          "name": "",
          "type": "bytes4"
        }
      ],
      "stateMutability": "pure",
      "type": "function",
      "constant": true
    },
    {
      "inputs": [],
      "name": "owner",
      "outputs": [
        {
          "internalType": "address",
          "name": "",
          "type": "address"
        }
      ],
      "stateMutability": "view",
      "type": "function",
      "constant": true
    },
    {
      "inputs": [],
      "name": "pause",
      "outputs": [],
      "stateMutability": "nonpayable",
      "type": "function"
    },
    {
      "inputs": [],
      "name": "paused",
      "outputs": [
        {
          "internalType": "bool",
          "name": "",
          "type": "bool"
        }
      ],
      "stateMutability": "view",
      "type": "function",
      "constant": true
    },
    {
      "inputs": [],
      "name": "ratEfficiencyMultiplier",
      "outputs": [
        {
          "internalType": "int256",
          "name": "",
          "type": "int256"
        }
      ],
      "stateMutability": "view",
      "type": "function",
      "constant": true
    },
    {
      "inputs": [],
      "name": "ratEfficiencyOffset",
      "outputs": [
        {
          "internalType": "int256",
          "name": "",
          "type": "int256"
        }
      ],
      "stateMutability": "view",
      "type": "function",
      "constant": true
    },
    {
      "inputs": [],
      "name": "ratTheftPercentage",
      "outputs": [
        {
          "internalType": "uint256",
          "name": "",
          "type": "uint256"
        }
      ],
      "stateMutability": "view",
      "type": "function",
      "constant": true
    },
    {
      "inputs": [
        {
          "internalType": "uint256",
          "name": "",
          "type": "uint256"
        }
      ],
      "name": "rats",
      "outputs": [
        {
          "internalType": "uint256",
          "name": "tokenId",
          "type": "uint256"
        },
        {
          "internalType": "address",
          "name": "owner",
          "type": "address"
        },
        {
          "internalType": "uint80",
          "name": "value",
          "type": "uint80"
        },
        {
          "internalType": "uint80",
          "name": "timestamp",
          "type": "uint80"
        }
      ],
      "stateMutability": "view",
      "type": "function",
      "constant": true
    },
    {
      "inputs": [],
      "name": "renounceOwnership",
      "outputs": [],
      "stateMutability": "nonpayable",
      "type": "function"
    },
    {
      "inputs": [
        {
          "internalType": "address",
          "name": "account",
          "type": "address"
        },
        {
          "internalType": "uint16[]",
          "name": "tokenIds",
          "type": "uint16[]"
        }
      ],
      "name": "stakeMany",
      "outputs": [],
      "stateMutability": "nonpayable",
      "type": "function"
    },
    {
      "inputs": [
        {
          "internalType": "address",
          "name": "",
          "type": "address"
        },
        {
          "internalType": "uint256",
          "name": "",
          "type": "uint256"
        }
      ],
      "name": "stakers",
      "outputs": [
        {
          "internalType": "uint256",
          "name": "",
          "type": "uint256"
        }
      ],
      "stateMutability": "view",
      "type": "function",
      "constant": true
    },
    {
      "inputs": [],
      "name": "totalChefsStaked",
      "outputs": [
        {
          "internalType": "uint256",
          "name": "",
          "type": "uint256"
        }
      ],
      "stateMutability": "view",
      "type": "function",
      "constant": true
    },
    {
      "inputs": [],
      "name": "totalFoodTokensEarned",
      "outputs": [
        {
          "internalType": "uint256",
          "name": "",
          "type": "uint256"
        }
      ],
      "stateMutability": "view",
      "type": "function",
      "constant": true
    },
    {
      "inputs": [],
      "name": "totalRatsStaked",
      "outputs": [
        {
          "internalType": "uint256",
          "name": "",
          "type": "uint256"
        }
      ],
      "stateMutability": "view",
      "type": "function",
      "constant": true
    },
    {
      "inputs": [
        {
          "internalType": "address",
          "name": "newOwner",
          "type": "address"
        }
      ],
      "name": "transferOwnership",
      "outputs": [],
      "stateMutability": "nonpayable",
      "type": "function"
    },
    {
      "inputs": [],
      "name": "unaccountedRewards",
      "outputs": [
        {
          "internalType": "uint256",
          "name": "",
          "type": "uint256"
        }
      ],
      "stateMutability": "view",
      "type": "function",
      "constant": true
    },
    {
      "inputs": [],
      "name": "unpause",
      "outputs": [],
      "stateMutability": "nonpayable",
      "type": "function"
    },
    {
      "inputs": [],
      "name": "vestingPeriod",
      "outputs": [
        {
          "internalType": "uint256",
          "name": "",
          "type": "uint256"
        }
      ],
      "stateMutability": "view",
      "type": "function",
      "constant": true
    },
    {
      "inputs": [
        {
          "internalType": "address",
          "name": "_character",
          "type": "address"
        },
        {
          "internalType": "address",
          "name": "_claim",
          "type": "address"
        },
        {
          "internalType": "uint256",
          "name": "_accrualPeriod",
          "type": "uint256"
        }
      ],
      "name": "initialize",
      "outputs": [],
      "stateMutability": "nonpayable",
      "type": "function"
    },
    {
      "inputs": [],
      "name": "initialize",
      "outputs": [],
      "stateMutability": "nonpayable",
      "type": "function"
    },
    {
      "inputs": [
        {
          "internalType": "address",
          "name": "_character",
          "type": "address"
        },
        {
          "internalType": "address",
          "name": "_claim",
          "type": "address"
        },
        {
          "internalType": "address",
          "name": "_foodToken",
          "type": "address"
        },
        {
          "internalType": "address",
          "name": "_kitchenShop",
          "type": "address"
        }
      ],
      "name": "initialize",
      "outputs": [],
      "stateMutability": "nonpayable",
      "type": "function"
    },
    {
      "inputs": [
        {
          "internalType": "uint256",
          "name": "_foodTokenMaxSupply",
          "type": "uint256"
        },
        {
          "internalType": "uint256[]",
          "name": "_earningSettings",
          "type": "uint256[]"
        },
        {
          "internalType": "int8[]",
          "name": "_propertyIncrements",
          "type": "int8[]"
        },
        {
          "internalType": "uint8",
          "name": "_minEfficiency",
          "type": "uint8"
        },
        {
          "internalType": "uint8",
          "name": "_chefsPerKitchen",
          "type": "uint8"
        },
        {
          "internalType": "uint8",
          "name": "_chefEfficiencyMultiplier",
          "type": "uint8"
        },
        {
          "internalType": "int256",
          "name": "_ratEfficiencyMultiplier",
          "type": "int256"
        },
        {
          "internalType": "int256",
          "name": "_ratEfficiencyOffset",
          "type": "int256"
        },
        {
          "internalType": "uint8",
          "name": "_maxClaimsPerTx",
          "type": "uint8"
        }
      ],
      "name": "configure",
      "outputs": [],
      "stateMutability": "nonpayable",
      "type": "function"
    }
  ],
  "bytecode": "0x608060405234801561001057600080fd5b50615f1d80620000216000396000f3fe608060405234801561001057600080fd5b506004361061025e5760003560e01c80637313ee5a11610146578063c0c472c0116100c3578063dbdc1f6b11610087578063dbdc1f6b146106b6578063ef9f800f146106d2578063f266674614610702578063f2fde38b14610720578063f66641551461073c578063f8c8765e1461075a5761025e565b8063c0c472c014610610578063c8b6cbf71461062e578063c9f2ec1d1461065e578063d7178ac61461067a578063d8dda92e146106985761025e565b8063922a18021161010a578063922a18021461057e5780639317f7f81461059a57806399fd1ddf146105b8578063a262c0ad146105d6578063a7a10290146105f45761025e565b80637313ee5a146105105780638129fc1c1461052e5780638456cb59146105385780638da5cb5b1461054257806391ba3f3f146105605761025e565b80632e2ce28b116101df5780634d1c61af116101a35780634d1c61af146104495780634e71d92d1461047c578063525e915b1461049a5780635c975abb146104ca578063607af397146104e8578063715018a6146105065761025e565b80632e2ce28b146103b2578063351c67c1146103d057806335ec066e146103ee5780633f4ba83a14610421578063499f80101461042b5761025e565b80631b4d47a1116102265780631b4d47a1146103095780631b8ca217146103275780631e828add146103585780632535a77f146103765780632d79320b146103945761025e565b8063051d1d491461026357806310d53df114610281578063138e6ad51461029f578063150b7a02146102bd5780631794bb3c146102ed575b600080fd5b61026b610776565b6040516102789190613f25565b60405180910390f35b610289610789565b6040516102969190613f5c565b60405180910390f35b6102a761079c565b6040516102b49190613f90565b60405180910390f35b6102d760048036038101906102d291906140b8565b6107a2565b6040516102e4919061417b565b60405180910390f35b61030760048036038101906103029190614196565b610825565b005b610311610a21565b60405161031e91906141f8565b60405180910390f35b610341600480360381019061033c9190614213565b610a27565b60405161034f929190614240565b60405180910390f35b610360610b11565b60405161036d9190613f5c565b60405180910390f35b61037e610b24565b60405161038b91906141f8565b60405180910390f35b61039c610b2a565b6040516103a99190613f25565b60405180910390f35b6103ba610b3d565b6040516103c791906141f8565b60405180910390f35b6103d8610b43565b6040516103e59190613f5c565b60405180910390f35b61040860048036038101906104039190614213565b610b56565b604051610418949392919061429d565b60405180910390f35b610429610bd2565b005b610433610c58565b60405161044091906141f8565b60405180910390f35b610463600480360381019061045e9190614213565b610c5e565b604051610473949392919061429d565b60405180910390f35b610484610cda565b6040516104919190614341565b60405180910390f35b6104b460048036038101906104af9190614392565b610d00565b6040516104c191906143ef565b60405180910390f35b6104d2610d47565b6040516104df9190614425565b60405180910390f35b6104f0610d5e565b6040516104fd91906141f8565b60405180910390f35b61050e610d64565b005b610518610dec565b60405161052591906141f8565b60405180910390f35b610536610df2565b005b610540610ee6565b005b61054a610f6c565b6040516105579190614440565b60405180910390f35b610568610f96565b60405161057591906141f8565b60405180910390f35b610598600480360381019061059391906146b4565b610f9c565b005b6105a2611530565b6040516105af9190613f25565b60405180910390f35b6105c0611543565b6040516105cd9190613f25565b60405180910390f35b6105de611556565b6040516105eb9190613f5c565b60405180910390f35b61060e60048036038101906106099190614766565b611569565b005b610618611976565b60405161062591906141f8565b60405180910390f35b610648600480360381019061064391906147c6565b61197c565b60405161065591906141f8565b60405180910390f35b61067860048036038101906106739190614a10565b6119ad565b005b610682611c47565b60405161068f9190613f90565b60405180910390f35b6106a0611c4d565b6040516106ad91906141f8565b60405180910390f35b6106d060048036038101906106cb9190614b12565b611c53565b005b6106ec60048036038101906106e79190614213565b6121de565b6040516106f99190614425565b60405180910390f35b61070a6122bd565b60405161071791906141f8565b60405180910390f35b61073a60048036038101906107359190614b72565b6122c3565b005b6107446123bb565b60405161075191906141f8565b60405180910390f35b610774600480360381019061076f9190614b9f565b6123c1565b005b60ad60169054906101000a900460ff1681565b609d60009054906101000a900460000b81565b60ab5481565b60008073ffffffffffffffffffffffffffffffffffffffff168573ffffffffffffffffffffffffffffffffffffffff1614610812576040517f08c379a000000000000000000000000000000000000000000000000000000000815260040161080990614c89565b60405180910390fd5b63150b7a0260e01b905095945050505050565b600060019054906101000a900460ff1661084d5760008054906101000a900460ff1615610856565b6108556125f1565b5b610895576040517f08c379a000000000000000000000000000000000000000000000000000000000815260040161088c90614d1b565b60405180910390fd5b60008060019054906101000a900460ff1615905080156108e5576001600060016101000a81548160ff02191690831515021790555060016000806101000a81548160ff0219169083151502179055505b6108ed612602565b6108f5612663565b83609760006101000a81548173ffffffffffffffffffffffffffffffffffffffff021916908373ffffffffffffffffffffffffffffffffffffffff16021790555082609860006101000a81548173ffffffffffffffffffffffffffffffffffffffff021916908373ffffffffffffffffffffffffffffffffffffffff1602179055508160a0819055506000609d60006101000a81548160ff021916908360000b60ff1602179055506000609d60016101000a81548160ff021916908360000b60ff1602179055506000609d60026101000a81548160ff021916908360000b60ff1602179055506000609d60036101000a81548160ff021916908360000b60ff1602179055508015610a1b5760008060016101000a81548160ff0219169083151502179055505b50505050565b60a45481565b600080609760009054906101000a900473ffffffffffffffffffffffffffffffffffffffff1673ffffffffffffffffffffffffffffffffffffffff1663e05c57bf846040518263ffffffff1660e01b8152600401610a8591906141f8565b61016060405180830381865afa158015610aa3573d6000803e3d6000fd5b505050506040513d601f19601f82011682018060405250810190610ac79190614d7a565b909192939495969798995090919293949596979850909192939495969750909192939495965090919293949550909192939450909192935090919250508092508193505050915091565b609d60019054906101000a900460000b81565b60a15481565b60aa60009054906101000a900460ff1681565b60a65481565b609d60039054906101000a900460000b81565b609a6020528060005260406000206000915090508060000154908060010160009054906101000a900473ffffffffffffffffffffffffffffffffffffffff16908060010160149054906101000a900469ffffffffffffffffffff16908060020160009054906101000a900469ffffffffffffffffffff16905084565b610bda6126c4565b73ffffffffffffffffffffffffffffffffffffffff16610bf8610f6c565b73ffffffffffffffffffffffffffffffffffffffff1614610c4e576040517f08c379a0000000000000000000000000000000000000000000000000000000008152600401610c4590614eba565b60405180910390fd5b610c566126cc565b565b609f5481565b60996020528060005260406000206000915090508060000154908060010160009054906101000a900473ffffffffffffffffffffffffffffffffffffffff16908060010160149054906101000a900469ffffffffffffffffffff16908060020160009054906101000a900469ffffffffffffffffffff16905084565b609860009054906101000a900473ffffffffffffffffffffffffffffffffffffffff1681565b609c6020528160005260406000208181548110610d1c57600080fd5b9060005260206000209060109182820401919006600202915091509054906101000a900461ffff1681565b6000606560009054906101000a900460ff16905090565b60a95481565b610d6c6126c4565b73ffffffffffffffffffffffffffffffffffffffff16610d8a610f6c565b73ffffffffffffffffffffffffffffffffffffffff1614610de0576040517f08c379a0000000000000000000000000000000000000000000000000000000008152600401610dd790614eba565b60405180910390fd5b610dea600061276e565b565b60a25481565b600060019054906101000a900460ff16610e1a5760008054906101000a900460ff1615610e23565b610e226125f1565b5b610e62576040517f08c379a0000000000000000000000000000000000000000000000000000000008152600401610e5990614d1b565b60405180910390fd5b60008060019054906101000a900460ff161590508015610eb2576001600060016101000a81548160ff02191690831515021790555060016000806101000a81548160ff0219169083151502179055505b610eba612602565b610ec2612663565b8015610ee35760008060016101000a81548160ff0219169083151502179055505b50565b610eee6126c4565b73ffffffffffffffffffffffffffffffffffffffff16610f0c610f6c565b73ffffffffffffffffffffffffffffffffffffffff1614610f62576040517f08c379a0000000000000000000000000000000000000000000000000000000008152600401610f5990614eba565b60405180910390fd5b610f6a612834565b565b6000603360009054906101000a900473ffffffffffffffffffffffffffffffffffffffff16905090565b60a55481565b610fa4610d47565b15610fe4576040517f08c379a0000000000000000000000000000000000000000000000000000000008152600401610fdb90614f26565b60405180910390fd5b609860009054906101000a900473ffffffffffffffffffffffffffffffffffffffff1673ffffffffffffffffffffffffffffffffffffffff163373ffffffffffffffffffffffffffffffffffffffff1614611074576040517f08c379a000000000000000000000000000000000000000000000000000000000815260040161106b90614f92565b60405180910390fd5b6000609c60008460000151815260200190815260200160002080549050116110d1576040517f08c379a00000000000000000000000000000000000000000000000000000000081526004016110c890614ffe565b60405180910390fd5b6000609c60008460000151815260200190815260200160002080548060200260200160405190810160405280929190818152602001828054801561115c57602002820191906000526020600020906000905b82829054906101000a900461ffff1661ffff16815260200190600201906020826001010492830192600103820291508084116111235790505b50505050509050609c60008460000151815260200190815260200160002060006111869190613e16565b6000805b825181101561151157600084826040516020016111a892919061501e565b6040516020818303038152906040528051906020012060001c905060006111d4876040015160006128d7565b90506111fd8584815181106111ec576111eb615047565b5b602002602001015161ffff166121de565b156112515761123f85848151811061121857611217615047565b5b602002602001015161ffff168860400151831580611237575089608001515b8415866129ff565b8461124a91906150a5565b9350611293565b61128585848151811061126757611266615047565b5b602002602001015161ffff1688604001518960800151841586612e49565b8461129091906150a5565b93505b60005b609b6000896040015173ffffffffffffffffffffffffffffffffffffffff1673ffffffffffffffffffffffffffffffffffffffff168152602001908152602001600020805490508110156114fb578584815181106112f7576112f6615047565b5b602002602001015161ffff16609b60008a6040015173ffffffffffffffffffffffffffffffffffffffff1673ffffffffffffffffffffffffffffffffffffffff168152602001908152602001600020828154811061135857611357615047565b5b906000526020600020015414156114e857609b6000896040015173ffffffffffffffffffffffffffffffffffffffff1673ffffffffffffffffffffffffffffffffffffffff1681526020019081526020016000206001609b60008b6040015173ffffffffffffffffffffffffffffffffffffffff1673ffffffffffffffffffffffffffffffffffffffff168152602001908152602001600020805490506113ff91906150fb565b815481106114105761140f615047565b5b9060005260206000200154609b60008a6040015173ffffffffffffffffffffffffffffffffffffffff1673ffffffffffffffffffffffffffffffffffffffff16815260200190815260200160002082815481106114705761146f615047565b5b9060005260206000200181905550609b6000896040015173ffffffffffffffffffffffffffffffffffffffff1673ffffffffffffffffffffffffffffffffffffffff1681526020019081526020016000208054806114d1576114d061512f565b5b600190038181906000526020600020016000905590555b80806114f39061515e565b915050611296565b50505080806115099061515e565b91505061118a565b50600081111561152a5761152984604001518261329a565b5b50505050565b60ad60149054906101000a900460ff1681565b60ad60159054906101000a900460ff1681565b609d60029054906101000a900460000b81565b611571610d47565b156115b1576040517f08c379a00000000000000000000000000000000000000000000000000000000081526004016115a890614f26565b60405180910390fd5b60a360009054906101000a900460ff1660ff16838390501115611609576040517f08c379a0000000000000000000000000000000000000000000000000000000008152600401611600906151f3565b60405180910390fd5b60005b8383905081101561189d57600061164d85858481811061162f5761162e615047565b5b90506020020160208101906116449190615213565b61ffff166121de565b61169457609a600086868581811061166857611667615047565b5b905060200201602081019061167d9190615213565b61ffff1681526020019081526020016000206116d3565b609960008686858181106116ab576116aa615047565b5b90506020020160208101906116c09190615213565b61ffff1681526020019081526020016000205b604051806080016040529081600082015481526020016001820160009054906101000a900473ffffffffffffffffffffffffffffffffffffffff1673ffffffffffffffffffffffffffffffffffffffff1673ffffffffffffffffffffffffffffffffffffffff1681526020016001820160149054906101000a900469ffffffffffffffffffff1669ffffffffffffffffffff1669ffffffffffffffffffff1681526020016002820160009054906101000a900469ffffffffffffffffffff1669ffffffffffffffffffff1669ffffffffffffffffffff168152505090506117b86126c4565b73ffffffffffffffffffffffffffffffffffffffff16816020015173ffffffffffffffffffffffffffffffffffffffff1614611829576040517f08c379a00000000000000000000000000000000000000000000000000000000081526004016118209061528c565b60405180910390fd5b60a254816060015169ffffffffffffffffffff164261184891906150fb565b1015611889576040517f08c379a0000000000000000000000000000000000000000000000000000000008152600401611880906152f8565b60405180910390fd5b5080806118959061515e565b91505061160c565b506000609860009054906101000a900473ffffffffffffffffffffffffffffffffffffffff1673ffffffffffffffffffffffffffffffffffffffff16635bdf263c6118e66126c4565b8686866040518563ffffffff1660e01b815260040161190894939291906153db565b6020604051808303816000875af1158015611927573d6000803e3d6000fd5b505050506040513d601f19601f8201168201806040525081019061194b9190615430565b90508383609c6000848152602001908152602001600020919061196f929190613e3e565b5050505050565b60a75481565b609b602052816000526040600020818154811061199857600080fd5b90600052602060002001600091509150505481565b6119b56126c4565b73ffffffffffffffffffffffffffffffffffffffff166119d3610f6c565b73ffffffffffffffffffffffffffffffffffffffff1614611a29576040517f08c379a0000000000000000000000000000000000000000000000000000000008152600401611a2090614eba565b60405180910390fd5b670de0b6b3a764000089611a3d919061545d565b60a481905550670de0b6b3a764000088600081518110611a6057611a5f615047565b5b6020026020010151611a72919061545d565b60a58190555087600181518110611a8c57611a8b615047565b5b602002602001015160a68190555087600281518110611aae57611aad615047565b5b602002602001015160a28190555087600381518110611ad057611acf615047565b5b602002602001015160a08190555086600081518110611af257611af1615047565b5b6020026020010151609d60006101000a81548160ff021916908360000b60ff16021790555086600181518110611b2b57611b2a615047565b5b6020026020010151609d60016101000a81548160ff021916908360000b60ff16021790555086600281518110611b6457611b63615047565b5b6020026020010151609d60026101000a81548160ff021916908360000b60ff16021790555086600381518110611b9d57611b9c615047565b5b6020026020010151609d60036101000a81548160ff021916908360000b60ff1602179055508560ad60166101000a81548160ff021916908360ff1602179055508460ad60156101000a81548160ff021916908360ff1602179055508360aa60006101000a81548160ff021916908360ff1602179055508260ab819055508160ac819055508060a360006101000a81548160ff021916908360ff160217905550505050505050505050565b60ac5481565b60a85481565b611c5b6126c4565b73ffffffffffffffffffffffffffffffffffffffff168373ffffffffffffffffffffffffffffffffffffffff161480611ce85750609760009054906101000a900473ffffffffffffffffffffffffffffffffffffffff1673ffffffffffffffffffffffffffffffffffffffff16611cd06126c4565b73ffffffffffffffffffffffffffffffffffffffff16145b611d27576040517f08c379a0000000000000000000000000000000000000000000000000000000008152600401611d1e90615503565b60405180910390fd5b60005b828290508110156121d857609760009054906101000a900473ffffffffffffffffffffffffffffffffffffffff1673ffffffffffffffffffffffffffffffffffffffff16611d766126c4565b73ffffffffffffffffffffffffffffffffffffffff1614611f8c57611d996126c4565b73ffffffffffffffffffffffffffffffffffffffff16609760009054906101000a900473ffffffffffffffffffffffffffffffffffffffff1673ffffffffffffffffffffffffffffffffffffffff16636352211e858585818110611e0057611dff615047565b5b9050602002016020810190611e159190615213565b6040518263ffffffff1660e01b8152600401611e319190615554565b602060405180830381865afa158015611e4e573d6000803e3d6000fd5b505050506040513d601f19601f82011682018060405250810190611e729190615584565b73ffffffffffffffffffffffffffffffffffffffff1614611ec8576040517f08c379a0000000000000000000000000000000000000000000000000000000008152600401611ebf9061528c565b60405180910390fd5b609760009054906101000a900473ffffffffffffffffffffffffffffffffffffffff1673ffffffffffffffffffffffffffffffffffffffff166323b872dd611f0e6126c4565b30868686818110611f2257611f21615047565b5b9050602002016020810190611f379190615213565b6040518463ffffffff1660e01b8152600401611f55939291906155b1565b600060405180830381600087803b158015611f6f57600080fd5b505af1158015611f83573d6000803e3d6000fd5b50505050611fc6565b6000838383818110611fa157611fa0615047565b5b9050602002016020810190611fb69190615213565b61ffff161415611fc5576121c5565b5b611ffa838383818110611fdc57611fdb615047565b5b9050602002016020810190611ff19190615213565b61ffff1661332d565b612039576040517f08c379a000000000000000000000000000000000000000000000000000000000815260040161203090615634565b60405180910390fd5b61206d83838381811061204f5761204e615047565b5b90506020020160208101906120649190615213565b61ffff166121de565b1561218e576120a78484848481811061208957612088615047565b5b905060200201602081019061209e9190615213565b61ffff1661335d565b6120b96120b26126c4565b60016128d7565b6120f8576040517f08c379a00000000000000000000000000000000000000000000000000000000081526004016120ef906156a0565b60405180910390fd5b609b60008573ffffffffffffffffffffffffffffffffffffffff1673ffffffffffffffffffffffffffffffffffffffff16815260200190815260200160002083838381811061214a57612149615047565b5b905060200201602081019061215f9190615213565b908060018154018082558091505060019003906000526020600020016000909161ffff169091909150556121c4565b6121c3848484848181106121a5576121a4615047565b5b90506020020160208101906121ba9190615213565b61ffff1661351c565b5b5b80806121d09061515e565b915050611d2a565b50505050565b6000609760009054906101000a900473ffffffffffffffffffffffffffffffffffffffff1673ffffffffffffffffffffffffffffffffffffffff1663e05c57bf836040518263ffffffff1660e01b815260040161223b91906141f8565b61016060405180830381865afa158015612259573d6000803e3d6000fd5b505050506040513d601f19601f8201168201806040525081019061227d9190614d7a565b9091929394959697985090919293949596975090919293949596509091929394955090919293945090919293509091925090915090505080915050919050565b609e5481565b6122cb6126c4565b73ffffffffffffffffffffffffffffffffffffffff166122e9610f6c565b73ffffffffffffffffffffffffffffffffffffffff161461233f576040517f08c379a000000000000000000000000000000000000000000000000000000000815260040161233690614eba565b60405180910390fd5b600073ffffffffffffffffffffffffffffffffffffffff168173ffffffffffffffffffffffffffffffffffffffff1614156123af576040517f08c379a00000000000000000000000000000000000000000000000000000000081526004016123a690615732565b60405180910390fd5b6123b88161276e565b50565b60a05481565b600060019054906101000a900460ff166123e95760008054906101000a900460ff16156123f2565b6123f16125f1565b5b612431576040517f08c379a000000000000000000000000000000000000000000000000000000000815260040161242890614d1b565b60405180910390fd5b60008060019054906101000a900460ff161590508015612481576001600060016101000a81548160ff02191690831515021790555060016000806101000a81548160ff0219169083151502179055505b612489612602565b612491612663565b600060a781905550600060a181905550600060a981905550600260ad60146101000a81548160ff021916908360ff16021790555084609760006101000a81548173ffffffffffffffffffffffffffffffffffffffff021916908373ffffffffffffffffffffffffffffffffffffffff16021790555083609860006101000a81548173ffffffffffffffffffffffffffffffffffffffff021916908373ffffffffffffffffffffffffffffffffffffffff1602179055508260ae60006101000a81548173ffffffffffffffffffffffffffffffffffffffff021916908373ffffffffffffffffffffffffffffffffffffffff1602179055508160ad60006101000a81548173ffffffffffffffffffffffffffffffffffffffff021916908373ffffffffffffffffffffffffffffffffffffffff16021790555080156125ea5760008060016101000a81548160ff0219169083151502179055505b5050505050565b60006125fc306136e4565b15905090565b600060019054906101000a900460ff16612651576040517f08c379a0000000000000000000000000000000000000000000000000000000008152600401612648906157c4565b60405180910390fd5b6126596136f7565b612661613748565b565b600060019054906101000a900460ff166126b2576040517f08c379a00000000000000000000000000000000000000000000000000000000081526004016126a9906157c4565b60405180910390fd5b6126ba6136f7565b6126c26137a9565b565b600033905090565b6126d4610d47565b612713576040517f08c379a000000000000000000000000000000000000000000000000000000000815260040161270a90615830565b60405180910390fd5b6000606560006101000a81548160ff0219169083151502179055507f5db9ee0a495bf2e6ff9c91a7834c1ba4fdd244a5e8aa4e537bd38aeae4b073aa6127576126c4565b6040516127649190614440565b60405180910390a1565b6000603360009054906101000a900473ffffffffffffffffffffffffffffffffffffffff16905081603360006101000a81548173ffffffffffffffffffffffffffffffffffffffff021916908373ffffffffffffffffffffffffffffffffffffffff1602179055508173ffffffffffffffffffffffffffffffffffffffff168173ffffffffffffffffffffffffffffffffffffffff167f8be0079c531659141344cd1fd0a4f28419497f9722a3daafe3b4186f6b6457e060405160405180910390a35050565b61283c610d47565b1561287c576040517f08c379a000000000000000000000000000000000000000000000000000000000815260040161287390614f26565b60405180910390fd5b6001606560006101000a81548160ff0219169083151502179055507f62e78cea01bee320cd4e420270b5ea74000d11b0c9f74754ebdbfc544b05a2586128c06126c4565b6040516128cd9190614440565b60405180910390a1565b60008060ad60009054906101000a900473ffffffffffffffffffffffffffffffffffffffff1673ffffffffffffffffffffffffffffffffffffffff1662fdd58e8560ad60149054906101000a900460ff166040518363ffffffff1660e01b8152600401612945929190615881565b602060405180830381865afa158015612962573d6000803e3d6000fd5b505050506040513d601f19601f8201168201806040525081019061298691906158bf565b905082609b60008673ffffffffffffffffffffffffffffffffffffffff1673ffffffffffffffffffffffffffffffffffffffff168152602001908152602001600020805490506129d691906150a5565b60ad60159054906101000a900460ff1660ff16826129f4919061545d565b101591505092915050565b60008060996000888152602001908152602001600020604051806080016040529081600082015481526020016001820160009054906101000a900473ffffffffffffffffffffffffffffffffffffffff1673ffffffffffffffffffffffffffffffffffffffff1673ffffffffffffffffffffffffffffffffffffffff1681526020016001820160149054906101000a900469ffffffffffffffffffff1669ffffffffffffffffffff1669ffffffffffffffffffff1681526020016002820160009054906101000a900469ffffffffffffffffffff1669ffffffffffffffffffff1669ffffffffffffffffffff168152505090508573ffffffffffffffffffffffffffffffffffffffff16816020015173ffffffffffffffffffffffffffffffffffffffff1614612b64576040517f08c379a0000000000000000000000000000000000000000000000000000000008152600401612b5b9061528c565b60405180910390fd5b83612b7757612b7281613815565b612b7a565b60005b91506000806000612b8b8a87613979565b925092509250612b9a8a61332d565b612ba357600197505b8715612cd657609760009054906101000a900473ffffffffffffffffffffffffffffffffffffffff1673ffffffffffffffffffffffffffffffffffffffff1663b88d4fde308b8d6040518463ffffffff1660e01b8152600401612c0893929190615923565b600060405180830381600087803b158015612c2257600080fd5b505af1158015612c36573d6000803e3d6000fd5b50505050609960008b81526020019081526020016000206000808201600090556001820160006101000a81549073ffffffffffffffffffffffffffffffffffffffff02191690556001820160146101000a81549069ffffffffffffffffffff02191690556002820160006101000a81549069ffffffffffffffffffff02191690555050609e6000815480929190612ccc9061596d565b9190505550612df7565b60405180608001604052808b61ffff1681526020018a73ffffffffffffffffffffffffffffffffffffffff1681526020014269ffffffffffffffffffff1681526020014269ffffffffffffffffffff16815250609960008c81526020019081526020016000206000820151816000015560208201518160010160006101000a81548173ffffffffffffffffffffffffffffffffffffffff021916908373ffffffffffffffffffffffffffffffffffffffff16021790555060408201518160010160146101000a81548169ffffffffffffffffffff021916908369ffffffffffffffffffff16021790555060608201518160020160006101000a81548169ffffffffffffffffffff021916908369ffffffffffffffffffff1602179055509050505b7f9b394c66bc4fdb2f56f5842a796076e6552d6f15eaacb6e63e3c53b474d872e98a868a86868660a154604051612e349796959493929190615a0e565b60405180910390a15050505095945050505050565b600080609a6000888152602001908152602001600020604051806080016040529081600082015481526020016001820160009054906101000a900473ffffffffffffffffffffffffffffffffffffffff1673ffffffffffffffffffffffffffffffffffffffff1673ffffffffffffffffffffffffffffffffffffffff1681526020016001820160149054906101000a900469ffffffffffffffffffff1669ffffffffffffffffffff1669ffffffffffffffffffff1681526020016002820160009054906101000a900469ffffffffffffffffffff1669ffffffffffffffffffff1669ffffffffffffffffffff168152505090508573ffffffffffffffffffffffffffffffffffffffff16816020015173ffffffffffffffffffffffffffffffffffffffff1614612fae576040517f08c379a0000000000000000000000000000000000000000000000000000000008152600401612fa59061528c565b60405180910390fd5b83612fc157612fbc81613bd3565b612fc4565b60005b91506000806000612fd58a87613979565b925092509250612fe48a61332d565b612fed57600197505b871561312057609760009054906101000a900473ffffffffffffffffffffffffffffffffffffffff1673ffffffffffffffffffffffffffffffffffffffff1663b88d4fde308b8d6040518463ffffffff1660e01b815260040161305293929190615923565b600060405180830381600087803b15801561306c57600080fd5b505af1158015613080573d6000803e3d6000fd5b50505050609a60008b81526020019081526020016000206000808201600090556001820160006101000a81549073ffffffffffffffffffffffffffffffffffffffff02191690556001820160146101000a81549069ffffffffffffffffffff02191690556002820160006101000a81549069ffffffffffffffffffff02191690555050609f60008154809291906131169061596d565b9190505550613248565b60405180608001604052808b61ffff1681526020018a73ffffffffffffffffffffffffffffffffffffffff168152602001613159613ce7565b69ffffffffffffffffffff1681526020014269ffffffffffffffffffff16815250609a60008c81526020019081526020016000206000820151816000015560208201518160010160006101000a81548173ffffffffffffffffffffffffffffffffffffffff021916908373ffffffffffffffffffffffffffffffffffffffff16021790555060408201518160010160146101000a81548169ffffffffffffffffffff021916908369ffffffffffffffffffff16021790555060608201518160020160006101000a81548169ffffffffffffffffffff021916908369ffffffffffffffffffff1602179055509050505b7f9be2cb7a62ca4aefdc81da57f848805cc67c86675da32b5a7be58bb615ba4f328a868a86868660a1546040516132859796959493929190615a0e565b60405180910390a15050505095945050505050565b60ae60009054906101000a900473ffffffffffffffffffffffffffffffffffffffff1673ffffffffffffffffffffffffffffffffffffffff166340c10f1983836040518363ffffffff1660e01b81526004016132f7929190615a84565b600060405180830381600087803b15801561331157600080fd5b505af1158015613325573d6000803e3d6000fd5b505050505050565b60008061333983610a27565b50905060ad60169054906101000a900460ff1660ff168160ff161015915050919050565b613365610d47565b156133a5576040517f08c379a000000000000000000000000000000000000000000000000000000000815260040161339c90614f26565b60405180910390fd5b60405180608001604052808261ffff1681526020018373ffffffffffffffffffffffffffffffffffffffff1681526020014269ffffffffffffffffffff1681526020014269ffffffffffffffffffff16815250609960008381526020019081526020016000206000820151816000015560208201518160010160006101000a81548173ffffffffffffffffffffffffffffffffffffffff021916908373ffffffffffffffffffffffffffffffffffffffff16021790555060408201518160010160146101000a81548169ffffffffffffffffffff021916908369ffffffffffffffffffff16021790555060608201518160020160006101000a81548169ffffffffffffffffffff021916908369ffffffffffffffffffff160217905550905050609e60008154809291906134d89061515e565b91905055507f8af1bb49fb16c7835975aa59449ba4328dd54737dfb2ae9fa6c5eca71fda51f981834260405161351093929190615aad565b60405180910390a15050565b613524610d47565b15613564576040517f08c379a000000000000000000000000000000000000000000000000000000000815260040161355b90614f26565b60405180910390fd5b60405180608001604052808261ffff1681526020018373ffffffffffffffffffffffffffffffffffffffff16815260200161359d613ce7565b69ffffffffffffffffffff1681526020014269ffffffffffffffffffff16815250609a60008381526020019081526020016000206000820151816000015560208201518160010160006101000a81548173ffffffffffffffffffffffffffffffffffffffff021916908373ffffffffffffffffffffffffffffffffffffffff16021790555060408201518160010160146101000a81548169ffffffffffffffffffff021916908369ffffffffffffffffffff16021790555060608201518160020160006101000a81548169ffffffffffffffffffff021916908369ffffffffffffffffffff160217905550905050609f600081548092919061369e9061515e565b91905055507f8af1bb49fb16c7835975aa59449ba4328dd54737dfb2ae9fa6c5eca71fda51f9818360a1546040516136d893929190615aad565b60405180910390a15050565b600080823b905060008111915050919050565b600060019054906101000a900460ff16613746576040517f08c379a000000000000000000000000000000000000000000000000000000000815260040161373d906157c4565b60405180910390fd5b565b600060019054906101000a900460ff16613797576040517f08c379a000000000000000000000000000000000000000000000000000000000815260040161378e906157c4565b60405180910390fd5b6137a76137a26126c4565b61276e565b565b600060019054906101000a900460ff166137f8576040517f08c379a00000000000000000000000000000000000000000000000000000000081526004016137ef906157c4565b60405180910390fd5b6000606560006101000a81548160ff021916908315150217905550565b6000806138258360000151610a27565b5090506000836040015169ffffffffffffffffffff164261384691906150fb565b905060a0548111156138585760a05490505b600060a0548260a55461386b919061545d565b6138759190615b13565b90506000600a60aa60009054906101000a900460ff1660ff168560ff1661389c919061545d565b6138a6919061545d565b620186a06138b491906150a5565b9050620186a081836138c6919061545d565b6138d09190615b13565b945060a4548560a8546138e391906150a5565b11156138fc5760a85460a4546138f991906150fb565b94505b6000851115613970574260a98190555061392e606460a6548761391f919061545d565b6139299190615b13565b613cf1565b606460a654606461393f91906150fb565b8661394a919061545d565b6139549190615b13565b94508460a8600082825461396891906150a5565b925050819055505b50505050919050565b6000806060600080609760009054906101000a900473ffffffffffffffffffffffffffffffffffffffff1673ffffffffffffffffffffffffffffffffffffffff1663e05c57bf886040518263ffffffff1660e01b81526004016139dc91906141f8565b61016060405180830381865afa1580156139fa573d6000803e3d6000fd5b505050506040513d601f19601f82011682018060405250810190613a1e9190614d7a565b9a505050505050505050509150600082613a6457609a600089815260200190815260200160002060020160009054906101000a900469ffffffffffffffffffff16613a92565b6099600089815260200190815260200160002060020160009054906101000a900469ffffffffffffffffffff165b69ffffffffffffffffffff1642613aa991906150fb565b9050609760009054906101000a900473ffffffffffffffffffffffffffffffffffffffff1673ffffffffffffffffffffffffffffffffffffffff166363dbfc7789613b1f86613b0757609d60029054906101000a900460000b613b18565b609d60009054906101000a900460000b5b8587613d59565b613b5587613b3c57609d60039054906101000a900460000b613b4d565b609d60019054906101000a900460000b5b866000613d59565b8b6040518563ffffffff1660e01b8152600401613b759493929190615b44565b6000604051808303816000875af1158015613b94573d6000803e3d6000fd5b505050506040513d6000823e3d601f19601f82011682018060405250810190613bbd9190615c2f565b8096508197508298505050505050509250925092565b600080613be38360000151610a27565b9150506000836040015169ffffffffffffffffffff1660a154613c0691906150fb565b905060006103e860ac54613c1a9190615c9e565b60646103e860ab5460328760ff161115613c4057866064613c3b9190615db5565b613c42565b865b60000b613c4f9190615c9e565b613c599190615c9e565b613c639190615de9565b613c6d9190615e53565b9050620186a08183613c7f919061545d565b613c899190615b13565b935060a4548460a854613c9c91906150a5565b1115613cb55760a85460a454613cb291906150fb565b93505b6000841115613cdf574260a9819055508360a86000828254613cd791906150a5565b925050819055505b505050919050565b600060a154905090565b6000609f541415613d1a578060a76000828254613d0e91906150a5565b92505081905550613d56565b609f5460a75482613d2b91906150a5565b613d359190615b13565b60a16000828254613d4691906150a5565b92505081905550600060a7819055505b50565b600060a054831115613d6b5760a05492505b600060a0548560000b85613d7f9190615c9e565b613d899190615de9565b905060a0548410613da6578260000b81613da39190615e53565b90505b6064811315613db9576064915050613e0f565b7fffffffffffffffffffffffffffffffffffffffffffffffffffffffffffffff9c811215613e0a577fffffffffffffffffffffffffffffffffffffffffffffffffffffffffffffff9c915050613e0f565b809150505b9392505050565b50805460008255600f016010900490600052602060002090810190613e3b9190613eec565b50565b82805482825590600052602060002090600f01601090048101928215613edb5791602002820160005b83821115613eab57833561ffff1683826101000a81548161ffff021916908361ffff1602179055509260200192600201602081600101049283019260010302613e67565b8015613ed95782816101000a81549061ffff0219169055600201602081600101049283019260010302613eab565b505b509050613ee89190613eec565b5090565b5b80821115613f05576000816000905550600101613eed565b5090565b600060ff82169050919050565b613f1f81613f09565b82525050565b6000602082019050613f3a6000830184613f16565b92915050565b60008160000b9050919050565b613f5681613f40565b82525050565b6000602082019050613f716000830184613f4d565b92915050565b6000819050919050565b613f8a81613f77565b82525050565b6000602082019050613fa56000830184613f81565b92915050565b6000604051905090565b600080fd5b600080fd5b600073ffffffffffffffffffffffffffffffffffffffff82169050919050565b6000613fea82613fbf565b9050919050565b613ffa81613fdf565b811461400557600080fd5b50565b60008135905061401781613ff1565b92915050565b6000819050919050565b6140308161401d565b811461403b57600080fd5b50565b60008135905061404d81614027565b92915050565b600080fd5b600080fd5b600080fd5b60008083601f84011261407857614077614053565b5b8235905067ffffffffffffffff81111561409557614094614058565b5b6020830191508360018202830111156140b1576140b061405d565b5b9250929050565b6000806000806000608086880312156140d4576140d3613fb5565b5b60006140e288828901614008565b95505060206140f388828901614008565b94505060406141048882890161403e565b935050606086013567ffffffffffffffff81111561412557614124613fba565b5b61413188828901614062565b92509250509295509295909350565b60007fffffffff0000000000000000000000000000000000000000000000000000000082169050919050565b61417581614140565b82525050565b6000602082019050614190600083018461416c565b92915050565b6000806000606084860312156141af576141ae613fb5565b5b60006141bd86828701614008565b93505060206141ce86828701614008565b92505060406141df8682870161403e565b9150509250925092565b6141f28161401d565b82525050565b600060208201905061420d60008301846141e9565b92915050565b60006020828403121561422957614228613fb5565b5b60006142378482850161403e565b91505092915050565b60006040820190506142556000830185613f16565b6142626020830184613f16565b9392505050565b61427281613fdf565b82525050565b600069ffffffffffffffffffff82169050919050565b61429781614278565b82525050565b60006080820190506142b260008301876141e9565b6142bf6020830186614269565b6142cc604083018561428e565b6142d9606083018461428e565b95945050505050565b6000819050919050565b60006143076143026142fd84613fbf565b6142e2565b613fbf565b9050919050565b6000614319826142ec565b9050919050565b600061432b8261430e565b9050919050565b61433b81614320565b82525050565b60006020820190506143566000830184614332565b92915050565b6000819050919050565b61436f8161435c565b811461437a57600080fd5b50565b60008135905061438c81614366565b92915050565b600080604083850312156143a9576143a8613fb5565b5b60006143b78582860161437d565b92505060206143c88582860161403e565b9150509250929050565b600061ffff82169050919050565b6143e9816143d2565b82525050565b600060208201905061440460008301846143e0565b92915050565b60008115159050919050565b61441f8161440a565b82525050565b600060208201905061443a6000830184614416565b92915050565b60006020820190506144556000830184614269565b92915050565b600080fd5b6000601f19601f8301169050919050565b7f4e487b7100000000000000000000000000000000000000000000000000000000600052604160045260246000fd5b6144a982614460565b810181811067ffffffffffffffff821117156144c8576144c7614471565b5b80604052505050565b60006144db613fab565b90506144e782826144a0565b919050565b600080fd5b600067ffffffffffffffff82111561450c5761450b614471565b5b602082029050602081019050919050565b614526816143d2565b811461453157600080fd5b50565b6000813590506145438161451d565b92915050565b600061455c614557846144f1565b6144d1565b9050808382526020820190506020840283018581111561457f5761457e61405d565b5b835b818110156145a857806145948882614534565b845260208401935050602081019050614581565b5050509392505050565b600082601f8301126145c7576145c6614053565b5b81356145d7848260208601614549565b91505092915050565b6145e98161440a565b81146145f457600080fd5b50565b600081359050614606816145e0565b92915050565b600060a082840312156146225761462161445b565b5b61462c60a06144d1565b9050600061463c8482850161437d565b600083015250602061465084828501614008565b602083015250604061466484828501614008565b604083015250606082013567ffffffffffffffff811115614688576146876144ec565b5b614694848285016145b2565b60608301525060806146a8848285016145f7565b60808301525092915050565b600080604083850312156146cb576146ca613fb5565b5b600083013567ffffffffffffffff8111156146e9576146e8613fba565b5b6146f58582860161460c565b92505060206147068582860161403e565b9150509250929050565b60008083601f84011261472657614725614053565b5b8235905067ffffffffffffffff81111561474357614742614058565b5b60208301915083602082028301111561475f5761475e61405d565b5b9250929050565b60008060006040848603121561477f5761477e613fb5565b5b600084013567ffffffffffffffff81111561479d5761479c613fba565b5b6147a986828701614710565b935093505060206147bc868287016145f7565b9150509250925092565b600080604083850312156147dd576147dc613fb5565b5b60006147eb85828601614008565b92505060206147fc8582860161403e565b9150509250929050565b600067ffffffffffffffff82111561482157614820614471565b5b602082029050602081019050919050565b600061484561484084614806565b6144d1565b905080838252602082019050602084028301858111156148685761486761405d565b5b835b81811015614891578061487d888261403e565b84526020840193505060208101905061486a565b5050509392505050565b600082601f8301126148b0576148af614053565b5b81356148c0848260208601614832565b91505092915050565b600067ffffffffffffffff8211156148e4576148e3614471565b5b602082029050602081019050919050565b6148fe81613f40565b811461490957600080fd5b50565b60008135905061491b816148f5565b92915050565b600061493461492f846148c9565b6144d1565b905080838252602082019050602084028301858111156149575761495661405d565b5b835b81811015614980578061496c888261490c565b845260208401935050602081019050614959565b5050509392505050565b600082601f83011261499f5761499e614053565b5b81356149af848260208601614921565b91505092915050565b6149c181613f09565b81146149cc57600080fd5b50565b6000813590506149de816149b8565b92915050565b6149ed81613f77565b81146149f857600080fd5b50565b600081359050614a0a816149e4565b92915050565b60008060008060008060008060006101208a8c031215614a3357614a32613fb5565b5b6000614a418c828d0161403e565b99505060208a013567ffffffffffffffff811115614a6257614a61613fba565b5b614a6e8c828d0161489b565b98505060408a013567ffffffffffffffff811115614a8f57614a8e613fba565b5b614a9b8c828d0161498a565b9750506060614aac8c828d016149cf565b9650506080614abd8c828d016149cf565b95505060a0614ace8c828d016149cf565b94505060c0614adf8c828d016149fb565b93505060e0614af08c828d016149fb565b925050610100614b028c828d016149cf565b9150509295985092959850929598565b600080600060408486031215614b2b57614b2a613fb5565b5b6000614b3986828701614008565b935050602084013567ffffffffffffffff811115614b5a57614b59613fba565b5b614b6686828701614710565b92509250509250925092565b600060208284031215614b8857614b87613fb5565b5b6000614b9684828501614008565b91505092915050565b60008060008060808587031215614bb957614bb8613fb5565b5b6000614bc787828801614008565b9450506020614bd887828801614008565b9350506040614be987828801614008565b9250506060614bfa87828801614008565b91505092959194509250565b600082825260208201905092915050565b7f43616e6e6f742073656e6420746f6b656e7320746f2056656e7565206469726560008201527f63746c7900000000000000000000000000000000000000000000000000000000602082015250565b6000614c73602483614c06565b9150614c7e82614c17565b604082019050919050565b60006020820190508181036000830152614ca281614c66565b9050919050565b7f496e697469616c697a61626c653a20636f6e747261637420697320616c72656160008201527f647920696e697469616c697a6564000000000000000000000000000000000000602082015250565b6000614d05602e83614c06565b9150614d1082614ca9565b604082019050919050565b60006020820190508181036000830152614d3481614cf8565b9050919050565b600081519050614d4a816145e0565b92915050565b600081519050614d5f816149b8565b92915050565b600081519050614d74816148f5565b92915050565b60008060008060008060008060008060006101608c8e031215614da057614d9f613fb5565b5b6000614dae8e828f01614d3b565b9b50506020614dbf8e828f01614d50565b9a50506040614dd08e828f01614d50565b9950506060614de18e828f01614d50565b9850506080614df28e828f01614d50565b97505060a0614e038e828f01614d50565b96505060c0614e148e828f01614d50565b95505060e0614e258e828f01614d50565b945050610100614e378e828f01614d50565b935050610120614e498e828f01614d50565b925050610140614e5b8e828f01614d65565b9150509295989b509295989b9093969950565b7f4f776e61626c653a2063616c6c6572206973206e6f7420746865206f776e6572600082015250565b6000614ea4602083614c06565b9150614eaf82614e6e565b602082019050919050565b60006020820190508181036000830152614ed381614e97565b9050919050565b7f5061757361626c653a2070617573656400000000000000000000000000000000600082015250565b6000614f10601083614c06565b9150614f1b82614eda565b602082019050919050565b60006020820190508181036000830152614f3f81614f03565b9050919050565b7f4f6e6c7920436c61696d2063616e2066756c66696c6c00000000000000000000600082015250565b6000614f7c601683614c06565b9150614f8782614f46565b602082019050919050565b60006020820190508181036000830152614fab81614f6f565b9050919050565b7f436c61696d2072657175657374206e6f7420666f756e64000000000000000000600082015250565b6000614fe8601783614c06565b9150614ff382614fb2565b602082019050919050565b6000602082019050818103600083015261501781614fdb565b9050919050565b600060408201905061503360008301856141e9565b61504060208301846141e9565b9392505050565b7f4e487b7100000000000000000000000000000000000000000000000000000000600052603260045260246000fd5b7f4e487b7100000000000000000000000000000000000000000000000000000000600052601160045260246000fd5b60006150b08261401d565b91506150bb8361401d565b9250827fffffffffffffffffffffffffffffffffffffffffffffffffffffffffffffffff038211156150f0576150ef615076565b5b828201905092915050565b60006151068261401d565b91506151118361401d565b92508282101561512457615123615076565b5b828203905092915050565b7f4e487b7100000000000000000000000000000000000000000000000000000000600052603160045260246000fd5b60006151698261401d565b91507fffffffffffffffffffffffffffffffffffffffffffffffffffffffffffffffff82141561519c5761519b615076565b5b600182019050919050565b7f496e76616c696420636c61696d20616d6f756e74000000000000000000000000600082015250565b60006151dd601483614c06565b91506151e8826151a7565b602082019050919050565b6000602082019050818103600083015261520c816151d0565b9050919050565b60006020828403121561522957615228613fb5565b5b600061523784828501614534565b91505092915050565b7f4e6f7420796f757220746f6b656e000000000000000000000000000000000000600082015250565b6000615276600e83614c06565b915061528182615240565b602082019050919050565b600060208201905081810360008301526152a581615269565b9050919050565b7f43616e6e6f7420636c61696d206265666f726520454f42000000000000000000600082015250565b60006152e2601783614c06565b91506152ed826152ac565b602082019050919050565b60006020820190508181036000830152615311816152d5565b9050919050565b600082825260208201905092915050565b6000819050919050565b61533c816143d2565b82525050565b600061534e8383615333565b60208301905092915050565b60006153696020840184614534565b905092915050565b6000602082019050919050565b600061538a8385615318565b935061539582615329565b8060005b858110156153ce576153ab828461535a565b6153b58882615342565b97506153c083615371565b925050600181019050615399565b5085925050509392505050565b60006060820190506153f06000830187614269565b818103602083015261540381858761537e565b90506154126040830184614416565b95945050505050565b60008151905061542a81614366565b92915050565b60006020828403121561544657615445613fb5565b5b60006154548482850161541b565b91505092915050565b60006154688261401d565b91506154738361401d565b9250817fffffffffffffffffffffffffffffffffffffffffffffffffffffffffffffffff04831182151516156154ac576154ab615076565b5b828202905092915050565b7f446f206e6f74206c6f736520796f757220746f6b656e73000000000000000000600082015250565b60006154ed601783614c06565b91506154f8826154b7565b602082019050919050565b6000602082019050818103600083015261551c816154e0565b9050919050565b600061553e615539615534846143d2565b6142e2565b61401d565b9050919050565b61554e81615523565b82525050565b60006020820190506155696000830184615545565b92915050565b60008151905061557e81613ff1565b92915050565b60006020828403121561559a57615599613fb5565b5b60006155a88482850161556f565b91505092915050565b60006060820190506155c66000830186614269565b6155d36020830185614269565b6155e06040830184615545565b949350505050565b7f4e6f7420656c696769626c650000000000000000000000000000000000000000600082015250565b600061561e600c83614c06565b9150615629826155e8565b602082019050919050565b6000602082019050818103600083015261564d81615611565b9050919050565b7f4b69746368656e20737061636520726571756972656400000000000000000000600082015250565b600061568a601683614c06565b915061569582615654565b602082019050919050565b600060208201905081810360008301526156b98161567d565b9050919050565b7f4f776e61626c653a206e6577206f776e657220697320746865207a65726f206160008201527f6464726573730000000000000000000000000000000000000000000000000000602082015250565b600061571c602683614c06565b9150615727826156c0565b604082019050919050565b6000602082019050818103600083015261574b8161570f565b9050919050565b7f496e697469616c697a61626c653a20636f6e7472616374206973206e6f74206960008201527f6e697469616c697a696e67000000000000000000000000000000000000000000602082015250565b60006157ae602b83614c06565b91506157b982615752565b604082019050919050565b600060208201905081810360008301526157dd816157a1565b9050919050565b7f5061757361626c653a206e6f7420706175736564000000000000000000000000600082015250565b600061581a601483614c06565b9150615825826157e4565b602082019050919050565b600060208201905081810360008301526158498161580d565b9050919050565b600061586b61586661586184613f09565b6142e2565b61401d565b9050919050565b61587b81615850565b82525050565b60006040820190506158966000830185614269565b6158a36020830184615872565b9392505050565b6000815190506158b981614027565b92915050565b6000602082840312156158d5576158d4613fb5565b5b60006158e3848285016158aa565b91505092915050565b600082825260208201905092915050565b50565b600061590d6000836158ec565b9150615918826158fd565b600082019050919050565b60006080820190506159386000830186614269565b6159456020830185614269565b61595260408301846141e9565b818103606083015261596381615900565b9050949350505050565b60006159788261401d565b9150600082141561598c5761598b615076565b5b600182039050919050565b600081519050919050565b60005b838110156159c05780820151818401526020810190506159a5565b838111156159cf576000848401525b50505050565b60006159e082615997565b6159ea8185614c06565b93506159fa8185602086016159a2565b615a0381614460565b840191505092915050565b600060e082019050615a23600083018a6141e9565b615a3060208301896141e9565b615a3d6040830188614416565b615a4a6060830187613f16565b615a576080830186613f16565b81810360a0830152615a6981856159d5565b9050615a7860c08301846141e9565b98975050505050505050565b6000604082019050615a996000830185614269565b615aa660208301846141e9565b9392505050565b6000606082019050615ac260008301866141e9565b615acf6020830185614269565b615adc60408301846141e9565b949350505050565b7f4e487b7100000000000000000000000000000000000000000000000000000000600052601260045260246000fd5b6000615b1e8261401d565b9150615b298361401d565b925082615b3957615b38615ae4565b5b828204905092915050565b6000608082019050615b5960008301876141e9565b615b666020830186613f4d565b615b736040830185613f4d565b615b8060608301846141e9565b95945050505050565b600080fd5b600067ffffffffffffffff821115615ba957615ba8614471565b5b615bb282614460565b9050602081019050919050565b6000615bd2615bcd84615b8e565b6144d1565b905082815260208101848484011115615bee57615bed615b89565b5b615bf98482856159a2565b509392505050565b600082601f830112615c1657615c15614053565b5b8151615c26848260208601615bbf565b91505092915050565b600080600060608486031215615c4857615c47613fb5565b5b6000615c5686828701614d50565b9350506020615c6786828701614d50565b925050604084015167ffffffffffffffff811115615c8857615c87613fba565b5b615c9486828701615c01565b9150509250925092565b6000615ca982613f77565b9150615cb483613f77565b9250827f7fffffffffffffffffffffffffffffffffffffffffffffffffffffffffffffff0482116000841360008413161615615cf357615cf2615076565b5b817f80000000000000000000000000000000000000000000000000000000000000000583126000841260008413161615615d3057615d2f615076565b5b827f80000000000000000000000000000000000000000000000000000000000000000582126000841360008412161615615d6d57615d6c615076565b5b827f7fffffffffffffffffffffffffffffffffffffffffffffffffffffffffffffff0582126000841260008412161615615daa57615da9615076565b5b828202905092915050565b6000615dc082613f09565b9150615dcb83613f09565b925082821015615dde57615ddd615076565b5b828203905092915050565b6000615df482613f77565b9150615dff83613f77565b925082615e0f57615e0e615ae4565b5b600160000383147f800000000000000000000000000000000000000000000000000000000000000083141615615e4857615e47615076565b5b828205905092915050565b6000615e5e82613f77565b9150615e6983613f77565b9250817f7fffffffffffffffffffffffffffffffffffffffffffffffffffffffffffffff03831360008312151615615ea457615ea3615076565b5b817f8000000000000000000000000000000000000000000000000000000000000000038312600083121615615edc57615edb615076565b5b82820190509291505056fea26469706673582212205ff4729da2175ab8367221ccc93f41bcbe7cc550e4ddbeecb0d20cbc360580fb64736f6c634300080a0033",
  "immutableReferences": {},
  "source": "// SPDX-License-Identifier: MIT\n\npragma solidity ^0.8.0;\n\nimport \"./EntrepreneurKitchen.sol\";\nimport \"./GourmetFood.sol\";\nimport \"./KitchenShop.sol\";\n\ncontract LeStake is EntrepreneurKitchen {\n  GourmetFood foodToken; // Reference to the $GFOOD contract\n\n  function initialize(\n    address _character,\n    address _claim,\n    address _foodToken,\n    address _kitchenShop\n  ) external initializer {\n    __Ownable_init();\n    __Pausable_init();\n\n    unaccountedRewards = 0;\n    foodTokensPerRat = 0;\n    lastClaimTimestamp = 0;\n    kitchenId = 2;\n\n    character = Character(_character);\n    claim = IClaim(_claim);\n    foodToken = GourmetFood(_foodToken);\n    kitchenShop = KitchenShop(_kitchenShop);\n  }\n\n  /**\n   * Allows DAO to update game parameters\n   */\n  function configure(\n    uint256 _foodTokenMaxSupply,\n    uint256[] memory _earningSettings, // dailyChefEarnings, ratTheftPercentage, vestingPeriod, accrualPeriod\n    int8[] memory _propertyIncrements, // dailySkillRate, dailyFreakRate, dailyIntelligenceRate, dailyBodyMassRate\n    uint8 _minEfficiency,\n    uint8 _chefsPerKitchen,\n    uint8 _chefEfficiencyMultiplier,\n    int256 _ratEfficiencyMultiplier,\n    int256 _ratEfficiencyOffset,\n    uint8 _maxClaimsPerTx\n  ) external onlyOwner {\n    foodTokenMaxSupply = _foodTokenMaxSupply * 1 ether;\n    dailyChefEarnings = _earningSettings[0] * 1 ether;\n    ratTheftPercentage = _earningSettings[1];\n    vestingPeriod = _earningSettings[2];\n    accrualPeriod = _earningSettings[3];\n    dailySkillRate = _propertyIncrements[0];\n    dailyFreakRate = _propertyIncrements[1];\n    dailyIntelligenceRate = _propertyIncrements[2];\n    dailyBodyMassRate = _propertyIncrements[3];\n    minEfficiency = _minEfficiency;\n    chefsPerKitchen = _chefsPerKitchen;\n    chefEfficiencyMultiplier = _chefEfficiencyMultiplier;\n    ratEfficiencyMultiplier = _ratEfficiencyMultiplier;\n    ratEfficiencyOffset = _ratEfficiencyOffset;\n    maxClaimsPerTx = _maxClaimsPerTx;\n  }\n\n  /**\n   * Mints the given amount of food tokens in the user's account\n   * @param sender - User wallet address\n   * @param amount - Amount of food tokens to mint\n   */\n  function _mintFoodToken(address sender, uint256 amount) internal override {\n    foodToken.mint(sender, amount);\n  }\n}\n",
  "sourcePath": "/Users/chris/workspace/ratalert/ratalert-contracts/contracts/LeStake.sol",
  "compiler": {
    "name": "solc",
    "version": "0.8.10+commit.fc410830.Emscripten.clang"
  },
  "schemaVersion": "3.4.6",
  "updatedAt": "2022-03-29T21:46:41.970Z",
  "networkType": "ethereum",
  "devdoc": {
    "kind": "dev",
    "methods": {
      "claimMany(uint16[],bool)": {
        "params": {
          "tokenIds": "- The IDs of the tokens in question",
          "unstake": "- Whether or not to unstake the given tokens"
        }
      },
      "fulfillClaimMany((bytes32,address,address,uint16[],bool),uint256)": {
        "params": {
          "randomness": "- Random value created by VRF",
          "v": "- VRF struct for the corresponding request"
        }
      },
      "getProperties(uint256)": {
        "params": {
          "tokenId": "- The ID of the token to check"
        },
        "returns": {
          "efficiency": "& tolerance values"
        }
      },
      "isChef(uint256)": {
        "params": {
          "tokenId": "- The ID of the token to check"
        },
        "returns": {
          "chef": "- Whether or not the token is a Chef"
        }
      },
      "owner()": {
        "details": "Returns the address of the current owner."
      },
      "paused()": {
        "details": "Returns true if the contract is paused, and false otherwise."
      },
      "renounceOwnership()": {
        "details": "Leaves the contract without owner. It will not be possible to call `onlyOwner` functions anymore. Can only be called by the current owner. NOTE: Renouncing ownership will leave the contract without an owner, thereby removing any functionality that is only available to the owner."
      },
      "stakeMany(address,uint16[])": {
        "params": {
          "account": "- The address of the staker",
          "tokenIds": "- The IDs of the Chefs & Rats to stake"
        }
      },
      "transferOwnership(address)": {
        "details": "Transfers ownership of the contract to a new account (`newOwner`). Can only be called by the current owner."
      }
    },
    "version": 1
  },
  "userdoc": {
    "kind": "user",
    "methods": {
      "claimMany(uint16[],bool)": {
        "notice": "ChainLink VRF request: Claims food token earnings, level-ups and optionally unstake characters"
      },
      "configure(uint256,uint256[],int8[],uint8,uint8,uint8,int256,int256,uint8)": {
        "notice": "Allows DAO to update game parameters"
      },
      "fulfillClaimMany((bytes32,address,address,uint16[],bool),uint256)": {
        "notice": "Callback for claimMany(), called by Claim.fulfillRandomness()"
      },
      "getProperties(uint256)": {
        "notice": "Get the character's properties"
      },
      "isChef(uint256)": {
        "notice": "Checks if the token is a Chef"
      },
      "stakeMany(address,uint16[])": {
        "notice": "Adds Characters to staking"
      }
    },
    "version": 1
  }
}