{
  "contractName": "LeStake",
  "abi": [
    {
      "anonymous": false,
      "inputs": [
        {
          "indexed": false,
          "internalType": "uint256",
          "name": "tokenId",
          "type": "uint256"
        },
        {
          "indexed": false,
          "internalType": "uint256",
          "name": "earned",
          "type": "uint256"
        },
        {
          "indexed": false,
          "internalType": "bool",
          "name": "unstaked",
          "type": "bool"
        },
        {
          "indexed": false,
          "internalType": "uint8",
          "name": "skill",
          "type": "uint8"
        },
        {
          "indexed": false,
          "internalType": "uint8",
          "name": "insanity",
          "type": "uint8"
        },
        {
          "indexed": false,
          "internalType": "string",
          "name": "eventName",
          "type": "string"
        },
        {
          "indexed": false,
          "internalType": "uint256",
          "name": "foodTokensPerRat",
          "type": "uint256"
        }
      ],
      "name": "ChefClaimed",
      "type": "event"
    },
    {
      "anonymous": false,
      "inputs": [
        {
          "indexed": true,
          "internalType": "address",
          "name": "previousOwner",
          "type": "address"
        },
        {
          "indexed": true,
          "internalType": "address",
          "name": "newOwner",
          "type": "address"
        }
      ],
      "name": "OwnershipTransferred",
      "type": "event"
    },
    {
      "anonymous": false,
      "inputs": [
        {
          "indexed": false,
          "internalType": "address",
          "name": "account",
          "type": "address"
        }
      ],
      "name": "Paused",
      "type": "event"
    },
    {
      "anonymous": false,
      "inputs": [
        {
          "indexed": false,
          "internalType": "uint256",
          "name": "tokenId",
          "type": "uint256"
        },
        {
          "indexed": false,
          "internalType": "uint256",
          "name": "earned",
          "type": "uint256"
        },
        {
          "indexed": false,
          "internalType": "bool",
          "name": "unstaked",
          "type": "bool"
        },
        {
          "indexed": false,
          "internalType": "uint8",
          "name": "intelligence",
          "type": "uint8"
        },
        {
          "indexed": false,
          "internalType": "uint8",
          "name": "fatness",
          "type": "uint8"
        },
        {
          "indexed": false,
          "internalType": "string",
          "name": "eventName",
          "type": "string"
        }
      ],
      "name": "RatClaimed",
      "type": "event"
    },
    {
      "anonymous": false,
      "inputs": [
        {
          "indexed": false,
          "internalType": "uint256",
          "name": "tokenId",
          "type": "uint256"
        },
        {
          "indexed": false,
          "internalType": "address",
          "name": "owner",
          "type": "address"
        },
        {
          "indexed": false,
          "internalType": "uint256",
          "name": "value",
          "type": "uint256"
        }
      ],
      "name": "TokenStaked",
      "type": "event"
    },
    {
      "anonymous": false,
      "inputs": [
        {
          "indexed": false,
          "internalType": "address",
          "name": "account",
          "type": "address"
        }
      ],
      "name": "Unpaused",
      "type": "event"
    },
    {
      "inputs": [],
      "name": "accrualPeriod",
      "outputs": [
        {
          "internalType": "uint256",
          "name": "",
          "type": "uint256"
        }
      ],
      "stateMutability": "view",
      "type": "function",
      "constant": true
    },
    {
      "inputs": [],
      "name": "chefEfficiencyMultiplier",
      "outputs": [
        {
          "internalType": "uint8",
          "name": "",
          "type": "uint8"
        }
      ],
      "stateMutability": "view",
      "type": "function",
      "constant": true
    },
    {
      "inputs": [
        {
          "internalType": "uint256",
          "name": "",
          "type": "uint256"
        }
      ],
      "name": "chefs",
      "outputs": [
        {
          "internalType": "uint256",
          "name": "tokenId",
          "type": "uint256"
        },
        {
          "internalType": "address",
          "name": "owner",
          "type": "address"
        },
        {
          "internalType": "uint80",
          "name": "value",
          "type": "uint80"
        },
        {
          "internalType": "uint80",
          "name": "timestamp",
          "type": "uint80"
        }
      ],
      "stateMutability": "view",
      "type": "function",
      "constant": true
    },
    {
      "inputs": [],
      "name": "chefsPerKitchen",
      "outputs": [
        {
          "internalType": "uint8",
          "name": "",
          "type": "uint8"
        }
      ],
      "stateMutability": "view",
      "type": "function",
      "constant": true
    },
    {
      "inputs": [],
      "name": "claim",
      "outputs": [
        {
          "internalType": "contract IClaim",
          "name": "",
          "type": "address"
        }
      ],
      "stateMutability": "view",
      "type": "function",
      "constant": true
    },
    {
      "inputs": [
        {
          "internalType": "uint16[]",
          "name": "tokenIds",
          "type": "uint16[]"
        },
        {
          "internalType": "bool",
          "name": "unstake",
          "type": "bool"
        }
      ],
      "name": "claimMany",
      "outputs": [],
      "stateMutability": "nonpayable",
      "type": "function"
    },
    {
      "inputs": [
        {
          "internalType": "bytes32",
          "name": "",
          "type": "bytes32"
        },
        {
          "internalType": "uint256",
          "name": "",
          "type": "uint256"
        }
      ],
      "name": "claimRequests",
      "outputs": [
        {
          "internalType": "uint16",
          "name": "",
          "type": "uint16"
        }
      ],
      "stateMutability": "view",
      "type": "function",
      "constant": true
    },
    {
      "inputs": [],
      "name": "dailyChefEarnings",
      "outputs": [
        {
          "internalType": "uint256",
          "name": "",
          "type": "uint256"
        }
      ],
      "stateMutability": "view",
      "type": "function",
      "constant": true
    },
    {
      "inputs": [],
      "name": "dailyFatnessRate",
      "outputs": [
        {
          "internalType": "int8",
          "name": "",
          "type": "int8"
        }
      ],
      "stateMutability": "view",
      "type": "function",
      "constant": true
    },
    {
      "inputs": [],
      "name": "dailyInsanityRate",
      "outputs": [
        {
          "internalType": "int8",
          "name": "",
          "type": "int8"
        }
      ],
      "stateMutability": "view",
      "type": "function",
      "constant": true
    },
    {
      "inputs": [],
      "name": "dailyIntelligenceRate",
      "outputs": [
        {
          "internalType": "int8",
          "name": "",
          "type": "int8"
        }
      ],
      "stateMutability": "view",
      "type": "function",
      "constant": true
    },
    {
      "inputs": [],
      "name": "dailySkillRate",
      "outputs": [
        {
          "internalType": "int8",
          "name": "",
          "type": "int8"
        }
      ],
      "stateMutability": "view",
      "type": "function",
      "constant": true
    },
    {
      "inputs": [],
      "name": "foodTokenMaxSupply",
      "outputs": [
        {
          "internalType": "uint256",
          "name": "",
          "type": "uint256"
        }
      ],
      "stateMutability": "view",
      "type": "function",
      "constant": true
    },
    {
      "inputs": [],
      "name": "foodTokensPerRat",
      "outputs": [
        {
          "internalType": "uint256",
          "name": "",
          "type": "uint256"
        }
      ],
      "stateMutability": "view",
      "type": "function",
      "constant": true
    },
    {
      "inputs": [
        {
          "components": [
            {
              "internalType": "bytes32",
              "name": "requestId",
              "type": "bytes32"
            },
            {
              "internalType": "address",
              "name": "venue",
              "type": "address"
            },
            {
              "internalType": "address",
              "name": "sender",
              "type": "address"
            },
            {
              "internalType": "uint16[]",
              "name": "tokenIds",
              "type": "uint16[]"
            },
            {
              "internalType": "bool",
              "name": "unstake",
              "type": "bool"
            }
          ],
          "internalType": "struct IClaim.VRFStruct",
          "name": "v",
          "type": "tuple"
        },
        {
          "internalType": "uint256",
          "name": "randomness",
          "type": "uint256"
        }
      ],
      "name": "fulfillClaimMany",
      "outputs": [],
      "stateMutability": "nonpayable",
      "type": "function"
    },
    {
      "inputs": [
        {
          "internalType": "uint256",
          "name": "tokenId",
          "type": "uint256"
        }
      ],
      "name": "getProperties",
      "outputs": [
        {
          "internalType": "uint8",
          "name": "efficiency",
          "type": "uint8"
        },
        {
          "internalType": "uint8",
          "name": "tolerance",
          "type": "uint8"
        }
      ],
      "stateMutability": "view",
      "type": "function",
      "constant": true
    },
    {
      "inputs": [
        {
          "internalType": "uint256",
          "name": "tokenId",
          "type": "uint256"
        }
      ],
      "name": "isChef",
      "outputs": [
        {
          "internalType": "bool",
          "name": "chef",
          "type": "bool"
        }
      ],
      "stateMutability": "view",
      "type": "function",
      "constant": true
    },
    {
      "inputs": [],
      "name": "kitchenId",
      "outputs": [
        {
          "internalType": "uint8",
          "name": "",
          "type": "uint8"
        }
      ],
      "stateMutability": "view",
      "type": "function",
      "constant": true
    },
    {
      "inputs": [],
      "name": "lastClaimTimestamp",
      "outputs": [
        {
          "internalType": "uint256",
          "name": "",
          "type": "uint256"
        }
      ],
      "stateMutability": "view",
      "type": "function",
      "constant": true
    },
    {
      "inputs": [],
      "name": "minEfficiency",
      "outputs": [
        {
          "internalType": "uint8",
          "name": "",
          "type": "uint8"
        }
      ],
      "stateMutability": "view",
      "type": "function",
      "constant": true
    },
    {
      "inputs": [
        {
          "internalType": "address",
          "name": "",
          "type": "address"
        },
        {
          "internalType": "address",
          "name": "from",
          "type": "address"
        },
        {
          "internalType": "uint256",
          "name": "",
          "type": "uint256"
        },
        {
          "internalType": "bytes",
          "name": "",
          "type": "bytes"
        }
      ],
      "name": "onERC721Received",
      "outputs": [
        {
          "internalType": "bytes4",
          "name": "",
          "type": "bytes4"
        }
      ],
      "stateMutability": "pure",
      "type": "function",
      "constant": true
    },
    {
      "inputs": [],
      "name": "owner",
      "outputs": [
        {
          "internalType": "address",
          "name": "",
          "type": "address"
        }
      ],
      "stateMutability": "view",
      "type": "function",
      "constant": true
    },
    {
      "inputs": [],
      "name": "pause",
      "outputs": [],
      "stateMutability": "nonpayable",
      "type": "function"
    },
    {
      "inputs": [],
      "name": "paused",
      "outputs": [
        {
          "internalType": "bool",
          "name": "",
          "type": "bool"
        }
      ],
      "stateMutability": "view",
      "type": "function",
      "constant": true
    },
    {
      "inputs": [],
      "name": "ratEfficiencyMultiplier",
      "outputs": [
        {
          "internalType": "int256",
          "name": "",
          "type": "int256"
        }
      ],
      "stateMutability": "view",
      "type": "function",
      "constant": true
    },
    {
      "inputs": [],
      "name": "ratEfficiencyOffset",
      "outputs": [
        {
          "internalType": "int256",
          "name": "",
          "type": "int256"
        }
      ],
      "stateMutability": "view",
      "type": "function",
      "constant": true
    },
    {
      "inputs": [],
      "name": "ratTheftPercentage",
      "outputs": [
        {
          "internalType": "uint256",
          "name": "",
          "type": "uint256"
        }
      ],
      "stateMutability": "view",
      "type": "function",
      "constant": true
    },
    {
      "inputs": [
        {
          "internalType": "uint256",
          "name": "",
          "type": "uint256"
        }
      ],
      "name": "rats",
      "outputs": [
        {
          "internalType": "uint256",
          "name": "tokenId",
          "type": "uint256"
        },
        {
          "internalType": "address",
          "name": "owner",
          "type": "address"
        },
        {
          "internalType": "uint80",
          "name": "value",
          "type": "uint80"
        },
        {
          "internalType": "uint80",
          "name": "timestamp",
          "type": "uint80"
        }
      ],
      "stateMutability": "view",
      "type": "function",
      "constant": true
    },
    {
      "inputs": [],
      "name": "renounceOwnership",
      "outputs": [],
      "stateMutability": "nonpayable",
      "type": "function"
    },
    {
      "inputs": [
        {
          "internalType": "address",
          "name": "account",
          "type": "address"
        },
        {
          "internalType": "uint16[]",
          "name": "tokenIds",
          "type": "uint16[]"
        }
      ],
      "name": "stakeMany",
      "outputs": [],
      "stateMutability": "nonpayable",
      "type": "function"
    },
    {
      "inputs": [
        {
          "internalType": "address",
          "name": "",
          "type": "address"
        },
        {
          "internalType": "uint256",
          "name": "",
          "type": "uint256"
        }
      ],
      "name": "stakers",
      "outputs": [
        {
          "internalType": "uint256",
          "name": "",
          "type": "uint256"
        }
      ],
      "stateMutability": "view",
      "type": "function",
      "constant": true
    },
    {
      "inputs": [],
      "name": "totalChefsStaked",
      "outputs": [
        {
          "internalType": "uint256",
          "name": "",
          "type": "uint256"
        }
      ],
      "stateMutability": "view",
      "type": "function",
      "constant": true
    },
    {
      "inputs": [],
      "name": "totalFoodTokensEarned",
      "outputs": [
        {
          "internalType": "uint256",
          "name": "",
          "type": "uint256"
        }
      ],
      "stateMutability": "view",
      "type": "function",
      "constant": true
    },
    {
      "inputs": [],
      "name": "totalRatsStaked",
      "outputs": [
        {
          "internalType": "uint256",
          "name": "",
          "type": "uint256"
        }
      ],
      "stateMutability": "view",
      "type": "function",
      "constant": true
    },
    {
      "inputs": [
        {
          "internalType": "address",
          "name": "newOwner",
          "type": "address"
        }
      ],
      "name": "transferOwnership",
      "outputs": [],
      "stateMutability": "nonpayable",
      "type": "function"
    },
    {
      "inputs": [],
      "name": "unaccountedRewards",
      "outputs": [
        {
          "internalType": "uint256",
          "name": "",
          "type": "uint256"
        }
      ],
      "stateMutability": "view",
      "type": "function",
      "constant": true
    },
    {
      "inputs": [],
      "name": "unpause",
      "outputs": [],
      "stateMutability": "nonpayable",
      "type": "function"
    },
    {
      "inputs": [],
      "name": "vestingPeriod",
      "outputs": [
        {
          "internalType": "uint256",
          "name": "",
          "type": "uint256"
        }
      ],
      "stateMutability": "view",
      "type": "function",
      "constant": true
    },
    {
      "inputs": [
        {
          "internalType": "address",
          "name": "_character",
          "type": "address"
        },
        {
          "internalType": "address",
          "name": "_claim",
          "type": "address"
        },
        {
          "internalType": "uint256",
          "name": "_accrualPeriod",
          "type": "uint256"
        }
      ],
      "name": "initialize",
      "outputs": [],
      "stateMutability": "nonpayable",
      "type": "function"
    },
    {
      "inputs": [],
      "name": "initialize",
      "outputs": [],
      "stateMutability": "nonpayable",
      "type": "function"
    },
    {
      "inputs": [
        {
          "internalType": "address",
          "name": "_character",
          "type": "address"
        },
        {
          "internalType": "address",
          "name": "_claim",
          "type": "address"
        },
        {
          "internalType": "address",
          "name": "_foodToken",
          "type": "address"
        },
        {
          "internalType": "address",
          "name": "_kitchenShop",
          "type": "address"
        }
      ],
      "name": "initialize",
      "outputs": [],
      "stateMutability": "nonpayable",
      "type": "function"
    },
    {
      "inputs": [
        {
          "internalType": "uint256",
          "name": "_foodTokenMaxSupply",
          "type": "uint256"
        },
        {
          "internalType": "uint256[]",
          "name": "_earningSettings",
          "type": "uint256[]"
        },
        {
          "internalType": "int8[]",
          "name": "_propertyIncrements",
          "type": "int8[]"
        },
        {
          "internalType": "uint8",
          "name": "_minEfficiency",
          "type": "uint8"
        },
        {
          "internalType": "uint8",
          "name": "_chefsPerKitchen",
          "type": "uint8"
        },
        {
          "internalType": "uint8",
          "name": "_chefEfficiencyMultiplier",
          "type": "uint8"
        },
        {
          "internalType": "int256",
          "name": "_ratEfficiencyMultiplier",
          "type": "int256"
        },
        {
          "internalType": "int256",
          "name": "_ratEfficiencyOffset",
          "type": "int256"
        },
        {
          "internalType": "uint8",
          "name": "_maxClaimsPerTx",
          "type": "uint8"
        }
      ],
      "name": "configure",
      "outputs": [],
      "stateMutability": "nonpayable",
      "type": "function"
    }
  ],
  "bytecode": "0x608060405234801561001057600080fd5b50615f8180620000216000396000f3fe608060405234801561001057600080fd5b506004361061025e5760003560e01c80638456cb5911610146578063c8b6cbf7116100c3578063dbdc1f6b11610087578063dbdc1f6b146106b6578063ef9f800f146106d2578063f266674614610702578063f2fde38b14610720578063f66641551461073c578063f8c8765e1461075a5761025e565b8063c8b6cbf714610610578063c9f2ec1d14610640578063cba88af81461065c578063d7178ac61461067a578063d8dda92e146106985761025e565b806399fd1ddf1161010a57806399fd1ddf1461057c578063a262c0ad1461059a578063a7a10290146105b8578063bdb62941146105d4578063c0c472c0146105f25761025e565b80638456cb59146104fc5780638da5cb5b1461050657806391ba3f3f14610524578063922a1802146105425780639317f7f81461055e5761025e565b806335ec066e116101df578063525e915b116101a3578063525e915b1461045e5780635c975abb1461048e578063607af397146104ac578063715018a6146104ca5780637313ee5a146104d45780638129fc1c146104f25761025e565b806335ec066e146103b25780633f4ba83a146103e5578063499f8010146103ef5780634d1c61af1461040d5780634e71d92d146104405761025e565b80631b4d47a1116102265780631b4d47a1146103095780631b8ca217146103275780632535a77f146103585780632d79320b146103765780632e2ce28b146103945761025e565b8063051d1d491461026357806310d53df114610281578063138e6ad51461029f578063150b7a02146102bd5780631794bb3c146102ed575b600080fd5b61026b610776565b6040516102789190613f21565b60405180910390f35b610289610789565b6040516102969190613f58565b60405180910390f35b6102a761079c565b6040516102b49190613f8c565b60405180910390f35b6102d760048036038101906102d291906140b4565b6107a2565b6040516102e49190614177565b60405180910390f35b61030760048036038101906103029190614192565b610825565b005b610311610a21565b60405161031e91906141f4565b60405180910390f35b610341600480360381019061033c919061420f565b610a27565b60405161034f92919061423c565b60405180910390f35b610360610b11565b60405161036d91906141f4565b60405180910390f35b61037e610b17565b60405161038b9190613f21565b60405180910390f35b61039c610b2a565b6040516103a991906141f4565b60405180910390f35b6103cc60048036038101906103c7919061420f565b610b30565b6040516103dc9493929190614299565b60405180910390f35b6103ed610bac565b005b6103f7610c32565b60405161040491906141f4565b60405180910390f35b6104276004803603810190610422919061420f565b610c38565b6040516104379493929190614299565b60405180910390f35b610448610cb4565b604051610455919061433d565b60405180910390f35b6104786004803603810190610473919061438e565b610cda565b60405161048591906143eb565b60405180910390f35b610496610d21565b6040516104a39190614421565b60405180910390f35b6104b4610d38565b6040516104c191906141f4565b60405180910390f35b6104d2610d3e565b005b6104dc610dc6565b6040516104e991906141f4565b60405180910390f35b6104fa610dcc565b005b610504610ec0565b005b61050e610f46565b60405161051b919061443c565b60405180910390f35b61052c610f70565b60405161053991906141f4565b60405180910390f35b61055c600480360381019061055791906146b0565b610f76565b005b61056661150a565b6040516105739190613f21565b60405180910390f35b61058461151d565b6040516105919190613f21565b60405180910390f35b6105a2611530565b6040516105af9190613f58565b60405180910390f35b6105d260048036038101906105cd9190614762565b611543565b005b6105dc611950565b6040516105e99190613f58565b60405180910390f35b6105fa611963565b60405161060791906141f4565b60405180910390f35b61062a600480360381019061062591906147c2565b611969565b60405161063791906141f4565b60405180910390f35b61065a60048036038101906106559190614a0c565b61199a565b005b610664611c34565b6040516106719190613f58565b60405180910390f35b610682611c47565b60405161068f9190613f8c565b60405180910390f35b6106a0611c4d565b6040516106ad91906141f4565b60405180910390f35b6106d060048036038101906106cb9190614b0e565b611c53565b005b6106ec60048036038101906106e7919061420f565b6121de565b6040516106f99190614421565b60405180910390f35b61070a6122bd565b60405161071791906141f4565b60405180910390f35b61073a60048036038101906107359190614b6e565b6122c3565b005b6107446123bb565b60405161075191906141f4565b60405180910390f35b610774600480360381019061076f9190614b9b565b6123c1565b005b60ad60169054906101000a900460ff1681565b609d60009054906101000a900460000b81565b60ab5481565b60008073ffffffffffffffffffffffffffffffffffffffff168573ffffffffffffffffffffffffffffffffffffffff1614610812576040517f08c379a000000000000000000000000000000000000000000000000000000000815260040161080990614c85565b60405180910390fd5b63150b7a0260e01b905095945050505050565b600060019054906101000a900460ff1661084d5760008054906101000a900460ff1615610856565b6108556125f1565b5b610895576040517f08c379a000000000000000000000000000000000000000000000000000000000815260040161088c90614d17565b60405180910390fd5b60008060019054906101000a900460ff1615905080156108e5576001600060016101000a81548160ff02191690831515021790555060016000806101000a81548160ff0219169083151502179055505b6108ed612602565b6108f5612663565b83609760006101000a81548173ffffffffffffffffffffffffffffffffffffffff021916908373ffffffffffffffffffffffffffffffffffffffff16021790555082609860006101000a81548173ffffffffffffffffffffffffffffffffffffffff021916908373ffffffffffffffffffffffffffffffffffffffff1602179055508160a0819055506000609d60006101000a81548160ff021916908360000b60ff1602179055506000609d60016101000a81548160ff021916908360000b60ff1602179055506000609d60026101000a81548160ff021916908360000b60ff1602179055506000609d60036101000a81548160ff021916908360000b60ff1602179055508015610a1b5760008060016101000a81548160ff0219169083151502179055505b50505050565b60a45481565b600080609760009054906101000a900473ffffffffffffffffffffffffffffffffffffffff1673ffffffffffffffffffffffffffffffffffffffff1663e05c57bf846040518263ffffffff1660e01b8152600401610a8591906141f4565b61016060405180830381865afa158015610aa3573d6000803e3d6000fd5b505050506040513d601f19601f82011682018060405250810190610ac79190614d76565b909192939495969798995090919293949596979850909192939495969750909192939495965090919293949550909192939450909192935090919250508092508193505050915091565b60a15481565b60aa60009054906101000a900460ff1681565b60a65481565b609a6020528060005260406000206000915090508060000154908060010160009054906101000a900473ffffffffffffffffffffffffffffffffffffffff16908060010160149054906101000a900469ffffffffffffffffffff16908060020160009054906101000a900469ffffffffffffffffffff16905084565b610bb46126c4565b73ffffffffffffffffffffffffffffffffffffffff16610bd2610f46565b73ffffffffffffffffffffffffffffffffffffffff1614610c28576040517f08c379a0000000000000000000000000000000000000000000000000000000008152600401610c1f90614eb6565b60405180910390fd5b610c306126cc565b565b609f5481565b60996020528060005260406000206000915090508060000154908060010160009054906101000a900473ffffffffffffffffffffffffffffffffffffffff16908060010160149054906101000a900469ffffffffffffffffffff16908060020160009054906101000a900469ffffffffffffffffffff16905084565b609860009054906101000a900473ffffffffffffffffffffffffffffffffffffffff1681565b609c6020528160005260406000208181548110610cf657600080fd5b9060005260206000209060109182820401919006600202915091509054906101000a900461ffff1681565b6000606560009054906101000a900460ff16905090565b60a95481565b610d466126c4565b73ffffffffffffffffffffffffffffffffffffffff16610d64610f46565b73ffffffffffffffffffffffffffffffffffffffff1614610dba576040517f08c379a0000000000000000000000000000000000000000000000000000000008152600401610db190614eb6565b60405180910390fd5b610dc4600061276e565b565b60a25481565b600060019054906101000a900460ff16610df45760008054906101000a900460ff1615610dfd565b610dfc6125f1565b5b610e3c576040517f08c379a0000000000000000000000000000000000000000000000000000000008152600401610e3390614d17565b60405180910390fd5b60008060019054906101000a900460ff161590508015610e8c576001600060016101000a81548160ff02191690831515021790555060016000806101000a81548160ff0219169083151502179055505b610e94612602565b610e9c612663565b8015610ebd5760008060016101000a81548160ff0219169083151502179055505b50565b610ec86126c4565b73ffffffffffffffffffffffffffffffffffffffff16610ee6610f46565b73ffffffffffffffffffffffffffffffffffffffff1614610f3c576040517f08c379a0000000000000000000000000000000000000000000000000000000008152600401610f3390614eb6565b60405180910390fd5b610f44612834565b565b6000603360009054906101000a900473ffffffffffffffffffffffffffffffffffffffff16905090565b60a55481565b610f7e610d21565b15610fbe576040517f08c379a0000000000000000000000000000000000000000000000000000000008152600401610fb590614f22565b60405180910390fd5b609860009054906101000a900473ffffffffffffffffffffffffffffffffffffffff1673ffffffffffffffffffffffffffffffffffffffff163373ffffffffffffffffffffffffffffffffffffffff161461104e576040517f08c379a000000000000000000000000000000000000000000000000000000000815260040161104590614f8e565b60405180910390fd5b6000609c60008460000151815260200190815260200160002080549050116110ab576040517f08c379a00000000000000000000000000000000000000000000000000000000081526004016110a290614ffa565b60405180910390fd5b6000609c60008460000151815260200190815260200160002080548060200260200160405190810160405280929190818152602001828054801561113657602002820191906000526020600020906000905b82829054906101000a900461ffff1661ffff16815260200190600201906020826001010492830192600103820291508084116110fd5790505b50505050509050609c60008460000151815260200190815260200160002060006111609190613e12565b6000805b82518110156114eb576000848260405160200161118292919061501a565b6040516020818303038152906040528051906020012060001c905060006111ae876040015160006128d7565b90506111d78584815181106111c6576111c5615043565b5b602002602001015161ffff166121de565b1561122b576112198584815181106111f2576111f1615043565b5b602002602001015161ffff168860400151831580611211575089608001515b8415866129ff565b8461122491906150a1565b935061126d565b61125f85848151811061124157611240615043565b5b602002602001015161ffff1688604001518960800151841586612e49565b8461126a91906150a1565b93505b60005b609b6000896040015173ffffffffffffffffffffffffffffffffffffffff1673ffffffffffffffffffffffffffffffffffffffff168152602001908152602001600020805490508110156114d5578584815181106112d1576112d0615043565b5b602002602001015161ffff16609b60008a6040015173ffffffffffffffffffffffffffffffffffffffff1673ffffffffffffffffffffffffffffffffffffffff168152602001908152602001600020828154811061133257611331615043565b5b906000526020600020015414156114c257609b6000896040015173ffffffffffffffffffffffffffffffffffffffff1673ffffffffffffffffffffffffffffffffffffffff1681526020019081526020016000206001609b60008b6040015173ffffffffffffffffffffffffffffffffffffffff1673ffffffffffffffffffffffffffffffffffffffff168152602001908152602001600020805490506113d991906150f7565b815481106113ea576113e9615043565b5b9060005260206000200154609b60008a6040015173ffffffffffffffffffffffffffffffffffffffff1673ffffffffffffffffffffffffffffffffffffffff168152602001908152602001600020828154811061144a57611449615043565b5b9060005260206000200181905550609b6000896040015173ffffffffffffffffffffffffffffffffffffffff1673ffffffffffffffffffffffffffffffffffffffff1681526020019081526020016000208054806114ab576114aa61512b565b5b600190038181906000526020600020016000905590555b80806114cd9061515a565b915050611270565b50505080806114e39061515a565b915050611164565b50600081111561150457611503846040015182613296565b5b50505050565b60ad60149054906101000a900460ff1681565b60ad60159054906101000a900460ff1681565b609d60029054906101000a900460000b81565b61154b610d21565b1561158b576040517f08c379a000000000000000000000000000000000000000000000000000000000815260040161158290614f22565b60405180910390fd5b60a360009054906101000a900460ff1660ff168383905011156115e3576040517f08c379a00000000000000000000000000000000000000000000000000000000081526004016115da906151ef565b60405180910390fd5b60005b8383905081101561187757600061162785858481811061160957611608615043565b5b905060200201602081019061161e919061520f565b61ffff166121de565b61166e57609a600086868581811061164257611641615043565b5b9050602002016020810190611657919061520f565b61ffff1681526020019081526020016000206116ad565b6099600086868581811061168557611684615043565b5b905060200201602081019061169a919061520f565b61ffff1681526020019081526020016000205b604051806080016040529081600082015481526020016001820160009054906101000a900473ffffffffffffffffffffffffffffffffffffffff1673ffffffffffffffffffffffffffffffffffffffff1673ffffffffffffffffffffffffffffffffffffffff1681526020016001820160149054906101000a900469ffffffffffffffffffff1669ffffffffffffffffffff1669ffffffffffffffffffff1681526020016002820160009054906101000a900469ffffffffffffffffffff1669ffffffffffffffffffff1669ffffffffffffffffffff168152505090506117926126c4565b73ffffffffffffffffffffffffffffffffffffffff16816020015173ffffffffffffffffffffffffffffffffffffffff1614611803576040517f08c379a00000000000000000000000000000000000000000000000000000000081526004016117fa90615288565b60405180910390fd5b60a254816060015169ffffffffffffffffffff164261182291906150f7565b1015611863576040517f08c379a000000000000000000000000000000000000000000000000000000000815260040161185a906152f4565b60405180910390fd5b50808061186f9061515a565b9150506115e6565b506000609860009054906101000a900473ffffffffffffffffffffffffffffffffffffffff1673ffffffffffffffffffffffffffffffffffffffff16635bdf263c6118c06126c4565b8686866040518563ffffffff1660e01b81526004016118e294939291906153d7565b6020604051808303816000875af1158015611901573d6000803e3d6000fd5b505050506040513d601f19601f82011682018060405250810190611925919061542c565b90508383609c60008481526020019081526020016000209190611949929190613e3a565b5050505050565b609d60019054906101000a900460000b81565b60a75481565b609b602052816000526040600020818154811061198557600080fd5b90600052602060002001600091509150505481565b6119a26126c4565b73ffffffffffffffffffffffffffffffffffffffff166119c0610f46565b73ffffffffffffffffffffffffffffffffffffffff1614611a16576040517f08c379a0000000000000000000000000000000000000000000000000000000008152600401611a0d90614eb6565b60405180910390fd5b670de0b6b3a764000089611a2a9190615459565b60a481905550670de0b6b3a764000088600081518110611a4d57611a4c615043565b5b6020026020010151611a5f9190615459565b60a58190555087600181518110611a7957611a78615043565b5b602002602001015160a68190555087600281518110611a9b57611a9a615043565b5b602002602001015160a28190555087600381518110611abd57611abc615043565b5b602002602001015160a08190555086600081518110611adf57611ade615043565b5b6020026020010151609d60006101000a81548160ff021916908360000b60ff16021790555086600181518110611b1857611b17615043565b5b6020026020010151609d60016101000a81548160ff021916908360000b60ff16021790555086600281518110611b5157611b50615043565b5b6020026020010151609d60026101000a81548160ff021916908360000b60ff16021790555086600381518110611b8a57611b89615043565b5b6020026020010151609d60036101000a81548160ff021916908360000b60ff1602179055508560ad60166101000a81548160ff021916908360ff1602179055508460ad60156101000a81548160ff021916908360ff1602179055508360aa60006101000a81548160ff021916908360ff1602179055508260ab819055508160ac819055508060a360006101000a81548160ff021916908360ff160217905550505050505050505050565b609d60039054906101000a900460000b81565b60ac5481565b60a85481565b611c5b6126c4565b73ffffffffffffffffffffffffffffffffffffffff168373ffffffffffffffffffffffffffffffffffffffff161480611ce85750609760009054906101000a900473ffffffffffffffffffffffffffffffffffffffff1673ffffffffffffffffffffffffffffffffffffffff16611cd06126c4565b73ffffffffffffffffffffffffffffffffffffffff16145b611d27576040517f08c379a0000000000000000000000000000000000000000000000000000000008152600401611d1e906154ff565b60405180910390fd5b60005b828290508110156121d857609760009054906101000a900473ffffffffffffffffffffffffffffffffffffffff1673ffffffffffffffffffffffffffffffffffffffff16611d766126c4565b73ffffffffffffffffffffffffffffffffffffffff1614611f8c57611d996126c4565b73ffffffffffffffffffffffffffffffffffffffff16609760009054906101000a900473ffffffffffffffffffffffffffffffffffffffff1673ffffffffffffffffffffffffffffffffffffffff16636352211e858585818110611e0057611dff615043565b5b9050602002016020810190611e15919061520f565b6040518263ffffffff1660e01b8152600401611e319190615550565b602060405180830381865afa158015611e4e573d6000803e3d6000fd5b505050506040513d601f19601f82011682018060405250810190611e729190615580565b73ffffffffffffffffffffffffffffffffffffffff1614611ec8576040517f08c379a0000000000000000000000000000000000000000000000000000000008152600401611ebf90615288565b60405180910390fd5b609760009054906101000a900473ffffffffffffffffffffffffffffffffffffffff1673ffffffffffffffffffffffffffffffffffffffff166323b872dd611f0e6126c4565b30868686818110611f2257611f21615043565b5b9050602002016020810190611f37919061520f565b6040518463ffffffff1660e01b8152600401611f55939291906155ad565b600060405180830381600087803b158015611f6f57600080fd5b505af1158015611f83573d6000803e3d6000fd5b50505050611fc6565b6000838383818110611fa157611fa0615043565b5b9050602002016020810190611fb6919061520f565b61ffff161415611fc5576121c5565b5b611ffa838383818110611fdc57611fdb615043565b5b9050602002016020810190611ff1919061520f565b61ffff16613329565b612039576040517f08c379a000000000000000000000000000000000000000000000000000000000815260040161203090615630565b60405180910390fd5b61206d83838381811061204f5761204e615043565b5b9050602002016020810190612064919061520f565b61ffff166121de565b1561218e576120a78484848481811061208957612088615043565b5b905060200201602081019061209e919061520f565b61ffff16613359565b6120b96120b26126c4565b60016128d7565b6120f8576040517f08c379a00000000000000000000000000000000000000000000000000000000081526004016120ef9061569c565b60405180910390fd5b609b60008573ffffffffffffffffffffffffffffffffffffffff1673ffffffffffffffffffffffffffffffffffffffff16815260200190815260200160002083838381811061214a57612149615043565b5b905060200201602081019061215f919061520f565b908060018154018082558091505060019003906000526020600020016000909161ffff169091909150556121c4565b6121c3848484848181106121a5576121a4615043565b5b90506020020160208101906121ba919061520f565b61ffff16613518565b5b5b80806121d09061515a565b915050611d2a565b50505050565b6000609760009054906101000a900473ffffffffffffffffffffffffffffffffffffffff1673ffffffffffffffffffffffffffffffffffffffff1663e05c57bf836040518263ffffffff1660e01b815260040161223b91906141f4565b61016060405180830381865afa158015612259573d6000803e3d6000fd5b505050506040513d601f19601f8201168201806040525081019061227d9190614d76565b9091929394959697985090919293949596975090919293949596509091929394955090919293945090919293509091925090915090505080915050919050565b609e5481565b6122cb6126c4565b73ffffffffffffffffffffffffffffffffffffffff166122e9610f46565b73ffffffffffffffffffffffffffffffffffffffff161461233f576040517f08c379a000000000000000000000000000000000000000000000000000000000815260040161233690614eb6565b60405180910390fd5b600073ffffffffffffffffffffffffffffffffffffffff168173ffffffffffffffffffffffffffffffffffffffff1614156123af576040517f08c379a00000000000000000000000000000000000000000000000000000000081526004016123a69061572e565b60405180910390fd5b6123b88161276e565b50565b60a05481565b600060019054906101000a900460ff166123e95760008054906101000a900460ff16156123f2565b6123f16125f1565b5b612431576040517f08c379a000000000000000000000000000000000000000000000000000000000815260040161242890614d17565b60405180910390fd5b60008060019054906101000a900460ff161590508015612481576001600060016101000a81548160ff02191690831515021790555060016000806101000a81548160ff0219169083151502179055505b612489612602565b612491612663565b600060a781905550600060a181905550600060a981905550600260ad60146101000a81548160ff021916908360ff16021790555084609760006101000a81548173ffffffffffffffffffffffffffffffffffffffff021916908373ffffffffffffffffffffffffffffffffffffffff16021790555083609860006101000a81548173ffffffffffffffffffffffffffffffffffffffff021916908373ffffffffffffffffffffffffffffffffffffffff1602179055508260ae60006101000a81548173ffffffffffffffffffffffffffffffffffffffff021916908373ffffffffffffffffffffffffffffffffffffffff1602179055508160ad60006101000a81548173ffffffffffffffffffffffffffffffffffffffff021916908373ffffffffffffffffffffffffffffffffffffffff16021790555080156125ea5760008060016101000a81548160ff0219169083151502179055505b5050505050565b60006125fc306136e0565b15905090565b600060019054906101000a900460ff16612651576040517f08c379a0000000000000000000000000000000000000000000000000000000008152600401612648906157c0565b60405180910390fd5b6126596136f3565b612661613744565b565b600060019054906101000a900460ff166126b2576040517f08c379a00000000000000000000000000000000000000000000000000000000081526004016126a9906157c0565b60405180910390fd5b6126ba6136f3565b6126c26137a5565b565b600033905090565b6126d4610d21565b612713576040517f08c379a000000000000000000000000000000000000000000000000000000000815260040161270a9061582c565b60405180910390fd5b6000606560006101000a81548160ff0219169083151502179055507f5db9ee0a495bf2e6ff9c91a7834c1ba4fdd244a5e8aa4e537bd38aeae4b073aa6127576126c4565b604051612764919061443c565b60405180910390a1565b6000603360009054906101000a900473ffffffffffffffffffffffffffffffffffffffff16905081603360006101000a81548173ffffffffffffffffffffffffffffffffffffffff021916908373ffffffffffffffffffffffffffffffffffffffff1602179055508173ffffffffffffffffffffffffffffffffffffffff168173ffffffffffffffffffffffffffffffffffffffff167f8be0079c531659141344cd1fd0a4f28419497f9722a3daafe3b4186f6b6457e060405160405180910390a35050565b61283c610d21565b1561287c576040517f08c379a000000000000000000000000000000000000000000000000000000000815260040161287390614f22565b60405180910390fd5b6001606560006101000a81548160ff0219169083151502179055507f62e78cea01bee320cd4e420270b5ea74000d11b0c9f74754ebdbfc544b05a2586128c06126c4565b6040516128cd919061443c565b60405180910390a1565b60008060ad60009054906101000a900473ffffffffffffffffffffffffffffffffffffffff1673ffffffffffffffffffffffffffffffffffffffff1662fdd58e8560ad60149054906101000a900460ff166040518363ffffffff1660e01b815260040161294592919061587d565b602060405180830381865afa158015612962573d6000803e3d6000fd5b505050506040513d601f19601f8201168201806040525081019061298691906158bb565b905082609b60008673ffffffffffffffffffffffffffffffffffffffff1673ffffffffffffffffffffffffffffffffffffffff168152602001908152602001600020805490506129d691906150a1565b60ad60159054906101000a900460ff1660ff16826129f49190615459565b101591505092915050565b60008060996000888152602001908152602001600020604051806080016040529081600082015481526020016001820160009054906101000a900473ffffffffffffffffffffffffffffffffffffffff1673ffffffffffffffffffffffffffffffffffffffff1673ffffffffffffffffffffffffffffffffffffffff1681526020016001820160149054906101000a900469ffffffffffffffffffff1669ffffffffffffffffffff1669ffffffffffffffffffff1681526020016002820160009054906101000a900469ffffffffffffffffffff1669ffffffffffffffffffff1669ffffffffffffffffffff168152505090508573ffffffffffffffffffffffffffffffffffffffff16816020015173ffffffffffffffffffffffffffffffffffffffff1614612b64576040517f08c379a0000000000000000000000000000000000000000000000000000000008152600401612b5b90615288565b60405180910390fd5b83612b7757612b7281613811565b612b7a565b60005b91506000806000612b8b8a87613975565b925092509250612b9a8a613329565b612ba357600197505b8715612cd657609760009054906101000a900473ffffffffffffffffffffffffffffffffffffffff1673ffffffffffffffffffffffffffffffffffffffff1663b88d4fde308b8d6040518463ffffffff1660e01b8152600401612c089392919061591f565b600060405180830381600087803b158015612c2257600080fd5b505af1158015612c36573d6000803e3d6000fd5b50505050609960008b81526020019081526020016000206000808201600090556001820160006101000a81549073ffffffffffffffffffffffffffffffffffffffff02191690556001820160146101000a81549069ffffffffffffffffffff02191690556002820160006101000a81549069ffffffffffffffffffff02191690555050609e6000815480929190612ccc90615969565b9190505550612df7565b60405180608001604052808b61ffff1681526020018a73ffffffffffffffffffffffffffffffffffffffff1681526020014269ffffffffffffffffffff1681526020014269ffffffffffffffffffff16815250609960008c81526020019081526020016000206000820151816000015560208201518160010160006101000a81548173ffffffffffffffffffffffffffffffffffffffff021916908373ffffffffffffffffffffffffffffffffffffffff16021790555060408201518160010160146101000a81548169ffffffffffffffffffff021916908369ffffffffffffffffffff16021790555060608201518160020160006101000a81548169ffffffffffffffffffff021916908369ffffffffffffffffffff1602179055509050505b7f9b394c66bc4fdb2f56f5842a796076e6552d6f15eaacb6e63e3c53b474d872e98a868a86868660a154604051612e349796959493929190615a0a565b60405180910390a15050505095945050505050565b600080609a6000888152602001908152602001600020604051806080016040529081600082015481526020016001820160009054906101000a900473ffffffffffffffffffffffffffffffffffffffff1673ffffffffffffffffffffffffffffffffffffffff1673ffffffffffffffffffffffffffffffffffffffff1681526020016001820160149054906101000a900469ffffffffffffffffffff1669ffffffffffffffffffff1669ffffffffffffffffffff1681526020016002820160009054906101000a900469ffffffffffffffffffff1669ffffffffffffffffffff1669ffffffffffffffffffff168152505090508573ffffffffffffffffffffffffffffffffffffffff16816020015173ffffffffffffffffffffffffffffffffffffffff1614612fae576040517f08c379a0000000000000000000000000000000000000000000000000000000008152600401612fa590615288565b60405180910390fd5b83612fc157612fbc81613bcf565b612fc4565b60005b91506000806000612fd58a87613975565b925092509250612fe48a613329565b612fed57600197505b871561312057609760009054906101000a900473ffffffffffffffffffffffffffffffffffffffff1673ffffffffffffffffffffffffffffffffffffffff1663b88d4fde308b8d6040518463ffffffff1660e01b81526004016130529392919061591f565b600060405180830381600087803b15801561306c57600080fd5b505af1158015613080573d6000803e3d6000fd5b50505050609a60008b81526020019081526020016000206000808201600090556001820160006101000a81549073ffffffffffffffffffffffffffffffffffffffff02191690556001820160146101000a81549069ffffffffffffffffffff02191690556002820160006101000a81549069ffffffffffffffffffff02191690555050609f600081548092919061311690615969565b9190505550613248565b60405180608001604052808b61ffff1681526020018a73ffffffffffffffffffffffffffffffffffffffff168152602001613159613ce3565b69ffffffffffffffffffff1681526020014269ffffffffffffffffffff16815250609a60008c81526020019081526020016000206000820151816000015560208201518160010160006101000a81548173ffffffffffffffffffffffffffffffffffffffff021916908373ffffffffffffffffffffffffffffffffffffffff16021790555060408201518160010160146101000a81548169ffffffffffffffffffff021916908369ffffffffffffffffffff16021790555060608201518160020160006101000a81548169ffffffffffffffffffff021916908369ffffffffffffffffffff1602179055509050505b7f6e949c62565860afb9dd6295e998a1c40005fe9560aedf8d596717681cfc7a1f8a868a86868660405161328196959493929190615a80565b60405180910390a15050505095945050505050565b60ae60009054906101000a900473ffffffffffffffffffffffffffffffffffffffff1673ffffffffffffffffffffffffffffffffffffffff166340c10f1983836040518363ffffffff1660e01b81526004016132f3929190615ae8565b600060405180830381600087803b15801561330d57600080fd5b505af1158015613321573d6000803e3d6000fd5b505050505050565b60008061333583610a27565b50905060ad60169054906101000a900460ff1660ff168160ff161015915050919050565b613361610d21565b156133a1576040517f08c379a000000000000000000000000000000000000000000000000000000000815260040161339890614f22565b60405180910390fd5b60405180608001604052808261ffff1681526020018373ffffffffffffffffffffffffffffffffffffffff1681526020014269ffffffffffffffffffff1681526020014269ffffffffffffffffffff16815250609960008381526020019081526020016000206000820151816000015560208201518160010160006101000a81548173ffffffffffffffffffffffffffffffffffffffff021916908373ffffffffffffffffffffffffffffffffffffffff16021790555060408201518160010160146101000a81548169ffffffffffffffffffff021916908369ffffffffffffffffffff16021790555060608201518160020160006101000a81548169ffffffffffffffffffff021916908369ffffffffffffffffffff160217905550905050609e60008154809291906134d49061515a565b91905055507f8af1bb49fb16c7835975aa59449ba4328dd54737dfb2ae9fa6c5eca71fda51f981834260405161350c93929190615b11565b60405180910390a15050565b613520610d21565b15613560576040517f08c379a000000000000000000000000000000000000000000000000000000000815260040161355790614f22565b60405180910390fd5b60405180608001604052808261ffff1681526020018373ffffffffffffffffffffffffffffffffffffffff168152602001613599613ce3565b69ffffffffffffffffffff1681526020014269ffffffffffffffffffff16815250609a60008381526020019081526020016000206000820151816000015560208201518160010160006101000a81548173ffffffffffffffffffffffffffffffffffffffff021916908373ffffffffffffffffffffffffffffffffffffffff16021790555060408201518160010160146101000a81548169ffffffffffffffffffff021916908369ffffffffffffffffffff16021790555060608201518160020160006101000a81548169ffffffffffffffffffff021916908369ffffffffffffffffffff160217905550905050609f600081548092919061369a9061515a565b91905055507f8af1bb49fb16c7835975aa59449ba4328dd54737dfb2ae9fa6c5eca71fda51f9818360a1546040516136d493929190615b11565b60405180910390a15050565b600080823b905060008111915050919050565b600060019054906101000a900460ff16613742576040517f08c379a0000000000000000000000000000000000000000000000000000000008152600401613739906157c0565b60405180910390fd5b565b600060019054906101000a900460ff16613793576040517f08c379a000000000000000000000000000000000000000000000000000000000815260040161378a906157c0565b60405180910390fd5b6137a361379e6126c4565b61276e565b565b600060019054906101000a900460ff166137f4576040517f08c379a00000000000000000000000000000000000000000000000000000000081526004016137eb906157c0565b60405180910390fd5b6000606560006101000a81548160ff021916908315150217905550565b6000806138218360000151610a27565b5090506000836040015169ffffffffffffffffffff164261384291906150f7565b905060a0548111156138545760a05490505b600060a0548260a5546138679190615459565b6138719190615b77565b90506000600a60aa60009054906101000a900460ff1660ff168560ff166138989190615459565b6138a29190615459565b620186a06138b091906150a1565b9050620186a081836138c29190615459565b6138cc9190615b77565b945060a4548560a8546138df91906150a1565b11156138f85760a85460a4546138f591906150f7565b94505b600085111561396c574260a98190555061392a606460a6548761391b9190615459565b6139259190615b77565b613ced565b606460a654606461393b91906150f7565b866139469190615459565b6139509190615b77565b94508460a8600082825461396491906150a1565b925050819055505b50505050919050565b6000806060600080609760009054906101000a900473ffffffffffffffffffffffffffffffffffffffff1673ffffffffffffffffffffffffffffffffffffffff1663e05c57bf886040518263ffffffff1660e01b81526004016139d891906141f4565b61016060405180830381865afa1580156139f6573d6000803e3d6000fd5b505050506040513d601f19601f82011682018060405250810190613a1a9190614d76565b9a505050505050505050509150600082613a6057609a600089815260200190815260200160002060020160009054906101000a900469ffffffffffffffffffff16613a8e565b6099600089815260200190815260200160002060020160009054906101000a900469ffffffffffffffffffff165b69ffffffffffffffffffff1642613aa591906150f7565b9050609760009054906101000a900473ffffffffffffffffffffffffffffffffffffffff1673ffffffffffffffffffffffffffffffffffffffff166363dbfc7789613b1b86613b0357609d60029054906101000a900460000b613b14565b609d60009054906101000a900460000b5b8587613d55565b613b5187613b3857609d60039054906101000a900460000b613b49565b609d60019054906101000a900460000b5b866000613d55565b8b6040518563ffffffff1660e01b8152600401613b719493929190615ba8565b6000604051808303816000875af1158015613b90573d6000803e3d6000fd5b505050506040513d6000823e3d601f19601f82011682018060405250810190613bb99190615c93565b8096508197508298505050505050509250925092565b600080613bdf8360000151610a27565b9150506000836040015169ffffffffffffffffffff1660a154613c0291906150f7565b905060006103e860ac54613c169190615d02565b60646103e860ab5460328760ff161115613c3c57866064613c379190615e19565b613c3e565b865b60000b613c4b9190615d02565b613c559190615d02565b613c5f9190615e4d565b613c699190615eb7565b9050620186a08183613c7b9190615459565b613c859190615b77565b935060a4548460a854613c9891906150a1565b1115613cb15760a85460a454613cae91906150f7565b93505b6000841115613cdb574260a9819055508360a86000828254613cd391906150a1565b925050819055505b505050919050565b600060a154905090565b6000609f541415613d16578060a76000828254613d0a91906150a1565b92505081905550613d52565b609f5460a75482613d2791906150a1565b613d319190615b77565b60a16000828254613d4291906150a1565b92505081905550600060a7819055505b50565b600060a054831115613d675760a05492505b600060a0548560000b85613d7b9190615d02565b613d859190615e4d565b905060a0548410613da2578260000b81613d9f9190615eb7565b90505b6064811315613db5576064915050613e0b565b7fffffffffffffffffffffffffffffffffffffffffffffffffffffffffffffff9c811215613e06577fffffffffffffffffffffffffffffffffffffffffffffffffffffffffffffff9c915050613e0b565b809150505b9392505050565b50805460008255600f016010900490600052602060002090810190613e379190613ee8565b50565b82805482825590600052602060002090600f01601090048101928215613ed75791602002820160005b83821115613ea757833561ffff1683826101000a81548161ffff021916908361ffff1602179055509260200192600201602081600101049283019260010302613e63565b8015613ed55782816101000a81549061ffff0219169055600201602081600101049283019260010302613ea7565b505b509050613ee49190613ee8565b5090565b5b80821115613f01576000816000905550600101613ee9565b5090565b600060ff82169050919050565b613f1b81613f05565b82525050565b6000602082019050613f366000830184613f12565b92915050565b60008160000b9050919050565b613f5281613f3c565b82525050565b6000602082019050613f6d6000830184613f49565b92915050565b6000819050919050565b613f8681613f73565b82525050565b6000602082019050613fa16000830184613f7d565b92915050565b6000604051905090565b600080fd5b600080fd5b600073ffffffffffffffffffffffffffffffffffffffff82169050919050565b6000613fe682613fbb565b9050919050565b613ff681613fdb565b811461400157600080fd5b50565b60008135905061401381613fed565b92915050565b6000819050919050565b61402c81614019565b811461403757600080fd5b50565b60008135905061404981614023565b92915050565b600080fd5b600080fd5b600080fd5b60008083601f8401126140745761407361404f565b5b8235905067ffffffffffffffff81111561409157614090614054565b5b6020830191508360018202830111156140ad576140ac614059565b5b9250929050565b6000806000806000608086880312156140d0576140cf613fb1565b5b60006140de88828901614004565b95505060206140ef88828901614004565b94505060406141008882890161403a565b935050606086013567ffffffffffffffff81111561412157614120613fb6565b5b61412d8882890161405e565b92509250509295509295909350565b60007fffffffff0000000000000000000000000000000000000000000000000000000082169050919050565b6141718161413c565b82525050565b600060208201905061418c6000830184614168565b92915050565b6000806000606084860312156141ab576141aa613fb1565b5b60006141b986828701614004565b93505060206141ca86828701614004565b92505060406141db8682870161403a565b9150509250925092565b6141ee81614019565b82525050565b600060208201905061420960008301846141e5565b92915050565b60006020828403121561422557614224613fb1565b5b60006142338482850161403a565b91505092915050565b60006040820190506142516000830185613f12565b61425e6020830184613f12565b9392505050565b61426e81613fdb565b82525050565b600069ffffffffffffffffffff82169050919050565b61429381614274565b82525050565b60006080820190506142ae60008301876141e5565b6142bb6020830186614265565b6142c8604083018561428a565b6142d5606083018461428a565b95945050505050565b6000819050919050565b60006143036142fe6142f984613fbb565b6142de565b613fbb565b9050919050565b6000614315826142e8565b9050919050565b60006143278261430a565b9050919050565b6143378161431c565b82525050565b6000602082019050614352600083018461432e565b92915050565b6000819050919050565b61436b81614358565b811461437657600080fd5b50565b60008135905061438881614362565b92915050565b600080604083850312156143a5576143a4613fb1565b5b60006143b385828601614379565b92505060206143c48582860161403a565b9150509250929050565b600061ffff82169050919050565b6143e5816143ce565b82525050565b600060208201905061440060008301846143dc565b92915050565b60008115159050919050565b61441b81614406565b82525050565b60006020820190506144366000830184614412565b92915050565b60006020820190506144516000830184614265565b92915050565b600080fd5b6000601f19601f8301169050919050565b7f4e487b7100000000000000000000000000000000000000000000000000000000600052604160045260246000fd5b6144a58261445c565b810181811067ffffffffffffffff821117156144c4576144c361446d565b5b80604052505050565b60006144d7613fa7565b90506144e3828261449c565b919050565b600080fd5b600067ffffffffffffffff8211156145085761450761446d565b5b602082029050602081019050919050565b614522816143ce565b811461452d57600080fd5b50565b60008135905061453f81614519565b92915050565b6000614558614553846144ed565b6144cd565b9050808382526020820190506020840283018581111561457b5761457a614059565b5b835b818110156145a457806145908882614530565b84526020840193505060208101905061457d565b5050509392505050565b600082601f8301126145c3576145c261404f565b5b81356145d3848260208601614545565b91505092915050565b6145e581614406565b81146145f057600080fd5b50565b600081359050614602816145dc565b92915050565b600060a0828403121561461e5761461d614457565b5b61462860a06144cd565b9050600061463884828501614379565b600083015250602061464c84828501614004565b602083015250604061466084828501614004565b604083015250606082013567ffffffffffffffff811115614684576146836144e8565b5b614690848285016145ae565b60608301525060806146a4848285016145f3565b60808301525092915050565b600080604083850312156146c7576146c6613fb1565b5b600083013567ffffffffffffffff8111156146e5576146e4613fb6565b5b6146f185828601614608565b92505060206147028582860161403a565b9150509250929050565b60008083601f8401126147225761472161404f565b5b8235905067ffffffffffffffff81111561473f5761473e614054565b5b60208301915083602082028301111561475b5761475a614059565b5b9250929050565b60008060006040848603121561477b5761477a613fb1565b5b600084013567ffffffffffffffff81111561479957614798613fb6565b5b6147a58682870161470c565b935093505060206147b8868287016145f3565b9150509250925092565b600080604083850312156147d9576147d8613fb1565b5b60006147e785828601614004565b92505060206147f88582860161403a565b9150509250929050565b600067ffffffffffffffff82111561481d5761481c61446d565b5b602082029050602081019050919050565b600061484161483c84614802565b6144cd565b9050808382526020820190506020840283018581111561486457614863614059565b5b835b8181101561488d5780614879888261403a565b845260208401935050602081019050614866565b5050509392505050565b600082601f8301126148ac576148ab61404f565b5b81356148bc84826020860161482e565b91505092915050565b600067ffffffffffffffff8211156148e0576148df61446d565b5b602082029050602081019050919050565b6148fa81613f3c565b811461490557600080fd5b50565b600081359050614917816148f1565b92915050565b600061493061492b846148c5565b6144cd565b9050808382526020820190506020840283018581111561495357614952614059565b5b835b8181101561497c57806149688882614908565b845260208401935050602081019050614955565b5050509392505050565b600082601f83011261499b5761499a61404f565b5b81356149ab84826020860161491d565b91505092915050565b6149bd81613f05565b81146149c857600080fd5b50565b6000813590506149da816149b4565b92915050565b6149e981613f73565b81146149f457600080fd5b50565b600081359050614a06816149e0565b92915050565b60008060008060008060008060006101208a8c031215614a2f57614a2e613fb1565b5b6000614a3d8c828d0161403a565b99505060208a013567ffffffffffffffff811115614a5e57614a5d613fb6565b5b614a6a8c828d01614897565b98505060408a013567ffffffffffffffff811115614a8b57614a8a613fb6565b5b614a978c828d01614986565b9750506060614aa88c828d016149cb565b9650506080614ab98c828d016149cb565b95505060a0614aca8c828d016149cb565b94505060c0614adb8c828d016149f7565b93505060e0614aec8c828d016149f7565b925050610100614afe8c828d016149cb565b9150509295985092959850929598565b600080600060408486031215614b2757614b26613fb1565b5b6000614b3586828701614004565b935050602084013567ffffffffffffffff811115614b5657614b55613fb6565b5b614b628682870161470c565b92509250509250925092565b600060208284031215614b8457614b83613fb1565b5b6000614b9284828501614004565b91505092915050565b60008060008060808587031215614bb557614bb4613fb1565b5b6000614bc387828801614004565b9450506020614bd487828801614004565b9350506040614be587828801614004565b9250506060614bf687828801614004565b91505092959194509250565b600082825260208201905092915050565b7f43616e6e6f742073656e6420746f6b656e7320746f2056656e7565206469726560008201527f63746c7900000000000000000000000000000000000000000000000000000000602082015250565b6000614c6f602483614c02565b9150614c7a82614c13565b604082019050919050565b60006020820190508181036000830152614c9e81614c62565b9050919050565b7f496e697469616c697a61626c653a20636f6e747261637420697320616c72656160008201527f647920696e697469616c697a6564000000000000000000000000000000000000602082015250565b6000614d01602e83614c02565b9150614d0c82614ca5565b604082019050919050565b60006020820190508181036000830152614d3081614cf4565b9050919050565b600081519050614d46816145dc565b92915050565b600081519050614d5b816149b4565b92915050565b600081519050614d70816148f1565b92915050565b60008060008060008060008060008060006101608c8e031215614d9c57614d9b613fb1565b5b6000614daa8e828f01614d37565b9b50506020614dbb8e828f01614d4c565b9a50506040614dcc8e828f01614d4c565b9950506060614ddd8e828f01614d4c565b9850506080614dee8e828f01614d4c565b97505060a0614dff8e828f01614d4c565b96505060c0614e108e828f01614d4c565b95505060e0614e218e828f01614d4c565b945050610100614e338e828f01614d4c565b935050610120614e458e828f01614d4c565b925050610140614e578e828f01614d61565b9150509295989b509295989b9093969950565b7f4f776e61626c653a2063616c6c6572206973206e6f7420746865206f776e6572600082015250565b6000614ea0602083614c02565b9150614eab82614e6a565b602082019050919050565b60006020820190508181036000830152614ecf81614e93565b9050919050565b7f5061757361626c653a2070617573656400000000000000000000000000000000600082015250565b6000614f0c601083614c02565b9150614f1782614ed6565b602082019050919050565b60006020820190508181036000830152614f3b81614eff565b9050919050565b7f4f6e6c7920436c61696d2063616e2066756c66696c6c00000000000000000000600082015250565b6000614f78601683614c02565b9150614f8382614f42565b602082019050919050565b60006020820190508181036000830152614fa781614f6b565b9050919050565b7f436c61696d2072657175657374206e6f7420666f756e64000000000000000000600082015250565b6000614fe4601783614c02565b9150614fef82614fae565b602082019050919050565b6000602082019050818103600083015261501381614fd7565b9050919050565b600060408201905061502f60008301856141e5565b61503c60208301846141e5565b9392505050565b7f4e487b7100000000000000000000000000000000000000000000000000000000600052603260045260246000fd5b7f4e487b7100000000000000000000000000000000000000000000000000000000600052601160045260246000fd5b60006150ac82614019565b91506150b783614019565b9250827fffffffffffffffffffffffffffffffffffffffffffffffffffffffffffffffff038211156150ec576150eb615072565b5b828201905092915050565b600061510282614019565b915061510d83614019565b9250828210156151205761511f615072565b5b828203905092915050565b7f4e487b7100000000000000000000000000000000000000000000000000000000600052603160045260246000fd5b600061516582614019565b91507fffffffffffffffffffffffffffffffffffffffffffffffffffffffffffffffff82141561519857615197615072565b5b600182019050919050565b7f496e76616c696420636c61696d20616d6f756e74000000000000000000000000600082015250565b60006151d9601483614c02565b91506151e4826151a3565b602082019050919050565b60006020820190508181036000830152615208816151cc565b9050919050565b60006020828403121561522557615224613fb1565b5b600061523384828501614530565b91505092915050565b7f4e6f7420796f757220746f6b656e000000000000000000000000000000000000600082015250565b6000615272600e83614c02565b915061527d8261523c565b602082019050919050565b600060208201905081810360008301526152a181615265565b9050919050565b7f43616e6e6f7420636c61696d206265666f726520454f42000000000000000000600082015250565b60006152de601783614c02565b91506152e9826152a8565b602082019050919050565b6000602082019050818103600083015261530d816152d1565b9050919050565b600082825260208201905092915050565b6000819050919050565b615338816143ce565b82525050565b600061534a838361532f565b60208301905092915050565b60006153656020840184614530565b905092915050565b6000602082019050919050565b60006153868385615314565b935061539182615325565b8060005b858110156153ca576153a78284615356565b6153b1888261533e565b97506153bc8361536d565b925050600181019050615395565b5085925050509392505050565b60006060820190506153ec6000830187614265565b81810360208301526153ff81858761537a565b905061540e6040830184614412565b95945050505050565b60008151905061542681614362565b92915050565b60006020828403121561544257615441613fb1565b5b600061545084828501615417565b91505092915050565b600061546482614019565b915061546f83614019565b9250817fffffffffffffffffffffffffffffffffffffffffffffffffffffffffffffffff04831182151516156154a8576154a7615072565b5b828202905092915050565b7f446f206e6f74206c6f736520796f757220746f6b656e73000000000000000000600082015250565b60006154e9601783614c02565b91506154f4826154b3565b602082019050919050565b60006020820190508181036000830152615518816154dc565b9050919050565b600061553a615535615530846143ce565b6142de565b614019565b9050919050565b61554a8161551f565b82525050565b60006020820190506155656000830184615541565b92915050565b60008151905061557a81613fed565b92915050565b60006020828403121561559657615595613fb1565b5b60006155a48482850161556b565b91505092915050565b60006060820190506155c26000830186614265565b6155cf6020830185614265565b6155dc6040830184615541565b949350505050565b7f4e6f7420656c696769626c650000000000000000000000000000000000000000600082015250565b600061561a600c83614c02565b9150615625826155e4565b602082019050919050565b600060208201905081810360008301526156498161560d565b9050919050565b7f4b69746368656e20737061636520726571756972656400000000000000000000600082015250565b6000615686601683614c02565b915061569182615650565b602082019050919050565b600060208201905081810360008301526156b581615679565b9050919050565b7f4f776e61626c653a206e6577206f776e657220697320746865207a65726f206160008201527f6464726573730000000000000000000000000000000000000000000000000000602082015250565b6000615718602683614c02565b9150615723826156bc565b604082019050919050565b600060208201905081810360008301526157478161570b565b9050919050565b7f496e697469616c697a61626c653a20636f6e7472616374206973206e6f74206960008201527f6e697469616c697a696e67000000000000000000000000000000000000000000602082015250565b60006157aa602b83614c02565b91506157b58261574e565b604082019050919050565b600060208201905081810360008301526157d98161579d565b9050919050565b7f5061757361626c653a206e6f7420706175736564000000000000000000000000600082015250565b6000615816601483614c02565b9150615821826157e0565b602082019050919050565b6000602082019050818103600083015261584581615809565b9050919050565b600061586761586261585d84613f05565b6142de565b614019565b9050919050565b6158778161584c565b82525050565b60006040820190506158926000830185614265565b61589f602083018461586e565b9392505050565b6000815190506158b581614023565b92915050565b6000602082840312156158d1576158d0613fb1565b5b60006158df848285016158a6565b91505092915050565b600082825260208201905092915050565b50565b60006159096000836158e8565b9150615914826158f9565b600082019050919050565b60006080820190506159346000830186614265565b6159416020830185614265565b61594e60408301846141e5565b818103606083015261595f816158fc565b9050949350505050565b600061597482614019565b9150600082141561598857615987615072565b5b600182039050919050565b600081519050919050565b60005b838110156159bc5780820151818401526020810190506159a1565b838111156159cb576000848401525b50505050565b60006159dc82615993565b6159e68185614c02565b93506159f681856020860161599e565b6159ff8161445c565b840191505092915050565b600060e082019050615a1f600083018a6141e5565b615a2c60208301896141e5565b615a396040830188614412565b615a466060830187613f12565b615a536080830186613f12565b81810360a0830152615a6581856159d1565b9050615a7460c08301846141e5565b98975050505050505050565b600060c082019050615a9560008301896141e5565b615aa260208301886141e5565b615aaf6040830187614412565b615abc6060830186613f12565b615ac96080830185613f12565b81810360a0830152615adb81846159d1565b9050979650505050505050565b6000604082019050615afd6000830185614265565b615b0a60208301846141e5565b9392505050565b6000606082019050615b2660008301866141e5565b615b336020830185614265565b615b4060408301846141e5565b949350505050565b7f4e487b7100000000000000000000000000000000000000000000000000000000600052601260045260246000fd5b6000615b8282614019565b9150615b8d83614019565b925082615b9d57615b9c615b48565b5b828204905092915050565b6000608082019050615bbd60008301876141e5565b615bca6020830186613f49565b615bd76040830185613f49565b615be460608301846141e5565b95945050505050565b600080fd5b600067ffffffffffffffff821115615c0d57615c0c61446d565b5b615c168261445c565b9050602081019050919050565b6000615c36615c3184615bf2565b6144cd565b905082815260208101848484011115615c5257615c51615bed565b5b615c5d84828561599e565b509392505050565b600082601f830112615c7a57615c7961404f565b5b8151615c8a848260208601615c23565b91505092915050565b600080600060608486031215615cac57615cab613fb1565b5b6000615cba86828701614d4c565b9350506020615ccb86828701614d4c565b925050604084015167ffffffffffffffff811115615cec57615ceb613fb6565b5b615cf886828701615c65565b9150509250925092565b6000615d0d82613f73565b9150615d1883613f73565b9250827f7fffffffffffffffffffffffffffffffffffffffffffffffffffffffffffffff0482116000841360008413161615615d5757615d56615072565b5b817f80000000000000000000000000000000000000000000000000000000000000000583126000841260008413161615615d9457615d93615072565b5b827f80000000000000000000000000000000000000000000000000000000000000000582126000841360008412161615615dd157615dd0615072565b5b827f7fffffffffffffffffffffffffffffffffffffffffffffffffffffffffffffff0582126000841260008412161615615e0e57615e0d615072565b5b828202905092915050565b6000615e2482613f05565b9150615e2f83613f05565b925082821015615e4257615e41615072565b5b828203905092915050565b6000615e5882613f73565b9150615e6383613f73565b925082615e7357615e72615b48565b5b600160000383147f800000000000000000000000000000000000000000000000000000000000000083141615615eac57615eab615072565b5b828205905092915050565b6000615ec282613f73565b9150615ecd83613f73565b9250817f7fffffffffffffffffffffffffffffffffffffffffffffffffffffffffffffff03831360008312151615615f0857615f07615072565b5b817f8000000000000000000000000000000000000000000000000000000000000000038312600083121615615f4057615f3f615072565b5b82820190509291505056fea2646970667358221220312d575c3f02dfc0fa60795ea95f69fc1c0f3ca14b7637de4260e1b1bfde543f64736f6c634300080a0033",
  "immutableReferences": {},
  "source": "// SPDX-License-Identifier: MIT\n\npragma solidity ^0.8.0;\n\nimport \"./EntrepreneurKitchen.sol\";\nimport \"./GourmetFood.sol\";\nimport \"./KitchenShop.sol\";\n\ncontract LeStake is EntrepreneurKitchen {\n  GourmetFood foodToken; // Reference to the $GFOOD contract\n\n  function initialize(\n    address _character,\n    address _claim,\n    address _foodToken,\n    address _kitchenShop\n  ) external initializer {\n    __Ownable_init();\n    __Pausable_init();\n\n    unaccountedRewards = 0;\n    foodTokensPerRat = 0;\n    lastClaimTimestamp = 0;\n    kitchenId = 2;\n\n    character = Character(_character);\n    claim = IClaim(_claim);\n    foodToken = GourmetFood(_foodToken);\n    kitchenShop = KitchenShop(_kitchenShop);\n  }\n\n  /**\n   * Allows DAO to update game parameters\n   */\n  function configure(\n    uint256 _foodTokenMaxSupply,\n    uint256[] memory _earningSettings, // dailyChefEarnings, ratTheftPercentage, vestingPeriod, accrualPeriod\n    int8[] memory _propertyIncrements, // dailySkillRate, dailyInsanityRate, dailyIntelligenceRate, dailyFatnessRate\n    uint8 _minEfficiency,\n    uint8 _chefsPerKitchen,\n    uint8 _chefEfficiencyMultiplier,\n    int256 _ratEfficiencyMultiplier,\n    int256 _ratEfficiencyOffset,\n    uint8 _maxClaimsPerTx\n  ) external onlyOwner {\n    foodTokenMaxSupply = _foodTokenMaxSupply * 1 ether;\n    dailyChefEarnings = _earningSettings[0] * 1 ether;\n    ratTheftPercentage = _earningSettings[1];\n    vestingPeriod = _earningSettings[2];\n    accrualPeriod = _earningSettings[3];\n    dailySkillRate = _propertyIncrements[0];\n    dailyInsanityRate = _propertyIncrements[1];\n    dailyIntelligenceRate = _propertyIncrements[2];\n    dailyFatnessRate = _propertyIncrements[3];\n    minEfficiency = _minEfficiency;\n    chefsPerKitchen = _chefsPerKitchen;\n    chefEfficiencyMultiplier = _chefEfficiencyMultiplier;\n    ratEfficiencyMultiplier = _ratEfficiencyMultiplier;\n    ratEfficiencyOffset = _ratEfficiencyOffset;\n    maxClaimsPerTx = _maxClaimsPerTx;\n  }\n\n  /**\n   * Mints the given amount of food tokens in the user's account\n   * @param sender - User wallet address\n   * @param amount - Amount of food tokens to mint\n   */\n  function _mintFoodToken(address sender, uint256 amount) internal override {\n    foodToken.mint(sender, amount);\n  }\n}\n",
  "sourcePath": "/Users/chris/workspace/ratalert/ratalert-contracts/contracts/LeStake.sol",
  "compiler": {
    "name": "solc",
    "version": "0.8.10+commit.fc410830.Emscripten.clang"
  },
  "schemaVersion": "3.4.6",
  "updatedAt": "2022-03-20T17:25:40.486Z",
  "networkType": "ethereum",
  "devdoc": {
    "kind": "dev",
    "methods": {
      "claimMany(uint16[],bool)": {
        "params": {
          "tokenIds": "- The IDs of the tokens in question",
          "unstake": "- Whether or not to unstake the given tokens"
        }
      },
      "fulfillClaimMany((bytes32,address,address,uint16[],bool),uint256)": {
        "params": {
          "randomness": "- Random value created by VRF",
          "v": "- VRF struct for the corresponding request"
        }
      },
      "getProperties(uint256)": {
        "params": {
          "tokenId": "- The ID of the token to check"
        },
        "returns": {
          "efficiency": "& tolerance values"
        }
      },
      "isChef(uint256)": {
        "params": {
          "tokenId": "- The ID of the token to check"
        },
        "returns": {
          "chef": "- Whether or not the token is a Chef"
        }
      },
      "owner()": {
        "details": "Returns the address of the current owner."
      },
      "paused()": {
        "details": "Returns true if the contract is paused, and false otherwise."
      },
      "renounceOwnership()": {
        "details": "Leaves the contract without owner. It will not be possible to call `onlyOwner` functions anymore. Can only be called by the current owner. NOTE: Renouncing ownership will leave the contract without an owner, thereby removing any functionality that is only available to the owner."
      },
      "stakeMany(address,uint16[])": {
        "params": {
          "account": "- The address of the staker",
          "tokenIds": "- The IDs of the Chefs & Rats to stake"
        }
      },
      "transferOwnership(address)": {
        "details": "Transfers ownership of the contract to a new account (`newOwner`). Can only be called by the current owner."
      }
    },
    "version": 1
  },
  "userdoc": {
    "kind": "user",
    "methods": {
      "claimMany(uint16[],bool)": {
        "notice": "ChainLink VRF request: Claims food token earnings, level-ups and optionally unstake characters"
      },
      "configure(uint256,uint256[],int8[],uint8,uint8,uint8,int256,int256,uint8)": {
        "notice": "Allows DAO to update game parameters"
      },
      "fulfillClaimMany((bytes32,address,address,uint16[],bool),uint256)": {
        "notice": "Callback for claimMany(), called by Claim.fulfillRandomness()"
      },
      "getProperties(uint256)": {
        "notice": "Get the character's properties"
      },
      "isChef(uint256)": {
        "notice": "Checks if the token is a Chef"
      },
      "stakeMany(address,uint16[])": {
        "notice": "Adds Chefs & Rats"
      }
    },
    "version": 1
  }
}