{
  "contractName": "LinkTokenMock",
  "abi": [
    {
      "inputs": [],
      "stateMutability": "nonpayable",
      "type": "constructor"
    },
    {
      "anonymous": false,
      "inputs": [
        {
          "indexed": true,
          "internalType": "address",
          "name": "owner",
          "type": "address"
        },
        {
          "indexed": true,
          "internalType": "address",
          "name": "spender",
          "type": "address"
        },
        {
          "indexed": false,
          "internalType": "uint256",
          "name": "value",
          "type": "uint256"
        }
      ],
      "name": "Approval",
      "type": "event"
    },
    {
      "anonymous": false,
      "inputs": [
        {
          "indexed": true,
          "internalType": "address",
          "name": "from",
          "type": "address"
        },
        {
          "indexed": true,
          "internalType": "address",
          "name": "to",
          "type": "address"
        },
        {
          "indexed": false,
          "internalType": "uint256",
          "name": "value",
          "type": "uint256"
        }
      ],
      "name": "Transfer",
      "type": "event"
    },
    {
      "inputs": [
        {
          "internalType": "address",
          "name": "owner",
          "type": "address"
        },
        {
          "internalType": "address",
          "name": "spender",
          "type": "address"
        }
      ],
      "name": "allowance",
      "outputs": [
        {
          "internalType": "uint256",
          "name": "",
          "type": "uint256"
        }
      ],
      "stateMutability": "view",
      "type": "function",
      "constant": true
    },
    {
      "inputs": [
        {
          "internalType": "address",
          "name": "spender",
          "type": "address"
        },
        {
          "internalType": "uint256",
          "name": "amount",
          "type": "uint256"
        }
      ],
      "name": "approve",
      "outputs": [
        {
          "internalType": "bool",
          "name": "",
          "type": "bool"
        }
      ],
      "stateMutability": "nonpayable",
      "type": "function"
    },
    {
      "inputs": [
        {
          "internalType": "address",
          "name": "account",
          "type": "address"
        }
      ],
      "name": "balanceOf",
      "outputs": [
        {
          "internalType": "uint256",
          "name": "",
          "type": "uint256"
        }
      ],
      "stateMutability": "view",
      "type": "function",
      "constant": true
    },
    {
      "inputs": [],
      "name": "decimals",
      "outputs": [
        {
          "internalType": "uint8",
          "name": "",
          "type": "uint8"
        }
      ],
      "stateMutability": "view",
      "type": "function",
      "constant": true
    },
    {
      "inputs": [
        {
          "internalType": "address",
          "name": "spender",
          "type": "address"
        },
        {
          "internalType": "uint256",
          "name": "subtractedValue",
          "type": "uint256"
        }
      ],
      "name": "decreaseAllowance",
      "outputs": [
        {
          "internalType": "bool",
          "name": "",
          "type": "bool"
        }
      ],
      "stateMutability": "nonpayable",
      "type": "function"
    },
    {
      "inputs": [
        {
          "internalType": "address",
          "name": "spender",
          "type": "address"
        },
        {
          "internalType": "uint256",
          "name": "addedValue",
          "type": "uint256"
        }
      ],
      "name": "increaseAllowance",
      "outputs": [
        {
          "internalType": "bool",
          "name": "",
          "type": "bool"
        }
      ],
      "stateMutability": "nonpayable",
      "type": "function"
    },
    {
      "inputs": [],
      "name": "name",
      "outputs": [
        {
          "internalType": "string",
          "name": "",
          "type": "string"
        }
      ],
      "stateMutability": "view",
      "type": "function",
      "constant": true
    },
    {
      "inputs": [],
      "name": "symbol",
      "outputs": [
        {
          "internalType": "string",
          "name": "",
          "type": "string"
        }
      ],
      "stateMutability": "view",
      "type": "function",
      "constant": true
    },
    {
      "inputs": [],
      "name": "totalSupply",
      "outputs": [
        {
          "internalType": "uint256",
          "name": "",
          "type": "uint256"
        }
      ],
      "stateMutability": "view",
      "type": "function",
      "constant": true
    },
    {
      "inputs": [
        {
          "internalType": "address",
          "name": "to",
          "type": "address"
        },
        {
          "internalType": "uint256",
          "name": "amount",
          "type": "uint256"
        }
      ],
      "name": "transfer",
      "outputs": [
        {
          "internalType": "bool",
          "name": "",
          "type": "bool"
        }
      ],
      "stateMutability": "nonpayable",
      "type": "function"
    },
    {
      "inputs": [
        {
          "internalType": "address",
          "name": "from",
          "type": "address"
        },
        {
          "internalType": "address",
          "name": "to",
          "type": "address"
        },
        {
          "internalType": "uint256",
          "name": "amount",
          "type": "uint256"
        }
      ],
      "name": "transferFrom",
      "outputs": [
        {
          "internalType": "bool",
          "name": "",
          "type": "bool"
        }
      ],
      "stateMutability": "nonpayable",
      "type": "function"
    },
    {
      "inputs": [
        {
          "internalType": "address",
          "name": "to",
          "type": "address"
        },
        {
          "internalType": "uint256",
          "name": "amount",
          "type": "uint256"
        }
      ],
      "name": "mint",
      "outputs": [],
      "stateMutability": "nonpayable",
      "type": "function"
    },
    {
      "inputs": [
        {
          "internalType": "address",
          "name": "_to",
          "type": "address"
        },
        {
          "internalType": "uint256",
          "name": "_value",
          "type": "uint256"
        },
        {
          "internalType": "bytes",
          "name": "",
          "type": "bytes"
        }
      ],
      "name": "transferAndCall",
      "outputs": [
        {
          "internalType": "bool",
          "name": "success",
          "type": "bool"
        }
      ],
      "stateMutability": "nonpayable",
      "type": "function"
    }
  ],
  "bytecode": "0x60806040523480156200001157600080fd5b506040518060400160405280600f81526020017f436861696e4c696e6b20546f6b656e00000000000000000000000000000000008152506040518060400160405280600481526020017f4c494e4b00000000000000000000000000000000000000000000000000000000815250816003908051906020019062000096929190620000b8565b508060049080519060200190620000af929190620000b8565b505050620001cd565b828054620000c69062000197565b90600052602060002090601f016020900481019282620000ea576000855562000136565b82601f106200010557805160ff191683800117855562000136565b8280016001018555821562000136579182015b828111156200013557825182559160200191906001019062000118565b5b50905062000145919062000149565b5090565b5b80821115620001645760008160009055506001016200014a565b5090565b7f4e487b7100000000000000000000000000000000000000000000000000000000600052602260045260246000fd5b60006002820490506001821680620001b057607f821691505b60208210811415620001c757620001c662000168565b5b50919050565b61176280620001dd6000396000f3fe608060405234801561001057600080fd5b50600436106100cf5760003560e01c80634000aea01161008c57806395d89b411161006657806395d89b411461023a578063a457c2d714610258578063a9059cbb14610288578063dd62ed3e146102b8576100cf565b80634000aea0146101be57806340c10f19146101ee57806370a082311461020a576100cf565b806306fdde03146100d4578063095ea7b3146100f257806318160ddd1461012257806323b872dd14610140578063313ce56714610170578063395093511461018e575b600080fd5b6100dc6102e8565b6040516100e99190610dfd565b60405180910390f35b61010c60048036038101906101079190610ec7565b61037a565b6040516101199190610f22565b60405180910390f35b61012a61039d565b6040516101379190610f4c565b60405180910390f35b61015a60048036038101906101559190610f67565b6103a7565b6040516101679190610f22565b60405180910390f35b6101786103d6565b6040516101859190610fd6565b60405180910390f35b6101a860048036038101906101a39190610ec7565b6103df565b6040516101b59190610f22565b60405180910390f35b6101d860048036038101906101d39190611126565b610489565b6040516101e59190610f22565b60405180910390f35b61020860048036038101906102039190610ec7565b61049e565b005b610224600480360381019061021f9190611195565b6104ac565b6040516102319190610f4c565b60405180910390f35b6102426104f4565b60405161024f9190610dfd565b60405180910390f35b610272600480360381019061026d9190610ec7565b610586565b60405161027f9190610f22565b60405180910390f35b6102a2600480360381019061029d9190610ec7565b610670565b6040516102af9190610f22565b60405180910390f35b6102d260048036038101906102cd91906111c2565b610693565b6040516102df9190610f4c565b60405180910390f35b6060600380546102f790611231565b80601f016020809104026020016040519081016040528092919081815260200182805461032390611231565b80156103705780601f1061034557610100808354040283529160200191610370565b820191906000526020600020905b81548152906001019060200180831161035357829003601f168201915b5050505050905090565b60008061038561071a565b9050610392818585610722565b600191505092915050565b6000600254905090565b6000806103b261071a565b90506103bf8582856108ed565b6103ca858585610979565b60019150509392505050565b60006012905090565b6000806103ea61071a565b905061047e818585600160008673ffffffffffffffffffffffffffffffffffffffff1673ffffffffffffffffffffffffffffffffffffffff16815260200190815260200160002060008973ffffffffffffffffffffffffffffffffffffffff1673ffffffffffffffffffffffffffffffffffffffff168152602001908152602001600020546104799190611292565b610722565b600191505092915050565b60006104958484610670565b90509392505050565b6104a88282610bfa565b5050565b60008060008373ffffffffffffffffffffffffffffffffffffffff1673ffffffffffffffffffffffffffffffffffffffff168152602001908152602001600020549050919050565b60606004805461050390611231565b80601f016020809104026020016040519081016040528092919081815260200182805461052f90611231565b801561057c5780601f106105515761010080835404028352916020019161057c565b820191906000526020600020905b81548152906001019060200180831161055f57829003601f168201915b5050505050905090565b60008061059161071a565b90506000600160008373ffffffffffffffffffffffffffffffffffffffff1673ffffffffffffffffffffffffffffffffffffffff16815260200190815260200160002060008673ffffffffffffffffffffffffffffffffffffffff1673ffffffffffffffffffffffffffffffffffffffff16815260200190815260200160002054905083811015610657576040517f08c379a000000000000000000000000000000000000000000000000000000000815260040161064e9061135a565b60405180910390fd5b6106648286868403610722565b60019250505092915050565b60008061067b61071a565b9050610688818585610979565b600191505092915050565b6000600160008473ffffffffffffffffffffffffffffffffffffffff1673ffffffffffffffffffffffffffffffffffffffff16815260200190815260200160002060008373ffffffffffffffffffffffffffffffffffffffff1673ffffffffffffffffffffffffffffffffffffffff16815260200190815260200160002054905092915050565b600033905090565b600073ffffffffffffffffffffffffffffffffffffffff168373ffffffffffffffffffffffffffffffffffffffff161415610792576040517f08c379a0000000000000000000000000000000000000000000000000000000008152600401610789906113ec565b60405180910390fd5b600073ffffffffffffffffffffffffffffffffffffffff168273ffffffffffffffffffffffffffffffffffffffff161415610802576040517f08c379a00000000000000000000000000000000000000000000000000000000081526004016107f99061147e565b60405180910390fd5b80600160008573ffffffffffffffffffffffffffffffffffffffff1673ffffffffffffffffffffffffffffffffffffffff16815260200190815260200160002060008473ffffffffffffffffffffffffffffffffffffffff1673ffffffffffffffffffffffffffffffffffffffff168152602001908152602001600020819055508173ffffffffffffffffffffffffffffffffffffffff168373ffffffffffffffffffffffffffffffffffffffff167f8c5be1e5ebec7d5bd14f71427d1e84f3dd0314c0f7b2291e5b200ac8c7c3b925836040516108e09190610f4c565b60405180910390a3505050565b60006108f98484610693565b90507fffffffffffffffffffffffffffffffffffffffffffffffffffffffffffffffff81146109735781811015610965576040517f08c379a000000000000000000000000000000000000000000000000000000000815260040161095c906114ea565b60405180910390fd5b6109728484848403610722565b5b50505050565b600073ffffffffffffffffffffffffffffffffffffffff168373ffffffffffffffffffffffffffffffffffffffff1614156109e9576040517f08c379a00000000000000000000000000000000000000000000000000000000081526004016109e09061157c565b60405180910390fd5b600073ffffffffffffffffffffffffffffffffffffffff168273ffffffffffffffffffffffffffffffffffffffff161415610a59576040517f08c379a0000000000000000000000000000000000000000000000000000000008152600401610a509061160e565b60405180910390fd5b610a64838383610d5a565b60008060008573ffffffffffffffffffffffffffffffffffffffff1673ffffffffffffffffffffffffffffffffffffffff16815260200190815260200160002054905081811015610aea576040517f08c379a0000000000000000000000000000000000000000000000000000000008152600401610ae1906116a0565b60405180910390fd5b8181036000808673ffffffffffffffffffffffffffffffffffffffff1673ffffffffffffffffffffffffffffffffffffffff16815260200190815260200160002081905550816000808573ffffffffffffffffffffffffffffffffffffffff1673ffffffffffffffffffffffffffffffffffffffff1681526020019081526020016000206000828254610b7d9190611292565b925050819055508273ffffffffffffffffffffffffffffffffffffffff168473ffffffffffffffffffffffffffffffffffffffff167fddf252ad1be2c89b69c2b068fc378daa952ba7f163c4a11628f55a4df523b3ef84604051610be19190610f4c565b60405180910390a3610bf4848484610d5f565b50505050565b600073ffffffffffffffffffffffffffffffffffffffff168273ffffffffffffffffffffffffffffffffffffffff161415610c6a576040517f08c379a0000000000000000000000000000000000000000000000000000000008152600401610c619061170c565b60405180910390fd5b610c7660008383610d5a565b8060026000828254610c889190611292565b92505081905550806000808473ffffffffffffffffffffffffffffffffffffffff1673ffffffffffffffffffffffffffffffffffffffff1681526020019081526020016000206000828254610cdd9190611292565b925050819055508173ffffffffffffffffffffffffffffffffffffffff16600073ffffffffffffffffffffffffffffffffffffffff167fddf252ad1be2c89b69c2b068fc378daa952ba7f163c4a11628f55a4df523b3ef83604051610d429190610f4c565b60405180910390a3610d5660008383610d5f565b5050565b505050565b505050565b600081519050919050565b600082825260208201905092915050565b60005b83811015610d9e578082015181840152602081019050610d83565b83811115610dad576000848401525b50505050565b6000601f19601f8301169050919050565b6000610dcf82610d64565b610dd98185610d6f565b9350610de9818560208601610d80565b610df281610db3565b840191505092915050565b60006020820190508181036000830152610e178184610dc4565b905092915050565b6000604051905090565b600080fd5b600080fd5b600073ffffffffffffffffffffffffffffffffffffffff82169050919050565b6000610e5e82610e33565b9050919050565b610e6e81610e53565b8114610e7957600080fd5b50565b600081359050610e8b81610e65565b92915050565b6000819050919050565b610ea481610e91565b8114610eaf57600080fd5b50565b600081359050610ec181610e9b565b92915050565b60008060408385031215610ede57610edd610e29565b5b6000610eec85828601610e7c565b9250506020610efd85828601610eb2565b9150509250929050565b60008115159050919050565b610f1c81610f07565b82525050565b6000602082019050610f376000830184610f13565b92915050565b610f4681610e91565b82525050565b6000602082019050610f616000830184610f3d565b92915050565b600080600060608486031215610f8057610f7f610e29565b5b6000610f8e86828701610e7c565b9350506020610f9f86828701610e7c565b9250506040610fb086828701610eb2565b9150509250925092565b600060ff82169050919050565b610fd081610fba565b82525050565b6000602082019050610feb6000830184610fc7565b92915050565b600080fd5b600080fd5b7f4e487b7100000000000000000000000000000000000000000000000000000000600052604160045260246000fd5b61103382610db3565b810181811067ffffffffffffffff8211171561105257611051610ffb565b5b80604052505050565b6000611065610e1f565b9050611071828261102a565b919050565b600067ffffffffffffffff82111561109157611090610ffb565b5b61109a82610db3565b9050602081019050919050565b82818337600083830152505050565b60006110c96110c484611076565b61105b565b9050828152602081018484840111156110e5576110e4610ff6565b5b6110f08482856110a7565b509392505050565b600082601f83011261110d5761110c610ff1565b5b813561111d8482602086016110b6565b91505092915050565b60008060006060848603121561113f5761113e610e29565b5b600061114d86828701610e7c565b935050602061115e86828701610eb2565b925050604084013567ffffffffffffffff81111561117f5761117e610e2e565b5b61118b868287016110f8565b9150509250925092565b6000602082840312156111ab576111aa610e29565b5b60006111b984828501610e7c565b91505092915050565b600080604083850312156111d9576111d8610e29565b5b60006111e785828601610e7c565b92505060206111f885828601610e7c565b9150509250929050565b7f4e487b7100000000000000000000000000000000000000000000000000000000600052602260045260246000fd5b6000600282049050600182168061124957607f821691505b6020821081141561125d5761125c611202565b5b50919050565b7f4e487b7100000000000000000000000000000000000000000000000000000000600052601160045260246000fd5b600061129d82610e91565b91506112a883610e91565b9250827fffffffffffffffffffffffffffffffffffffffffffffffffffffffffffffffff038211156112dd576112dc611263565b5b828201905092915050565b7f45524332303a2064656372656173656420616c6c6f77616e63652062656c6f7760008201527f207a65726f000000000000000000000000000000000000000000000000000000602082015250565b6000611344602583610d6f565b915061134f826112e8565b604082019050919050565b6000602082019050818103600083015261137381611337565b9050919050565b7f45524332303a20617070726f76652066726f6d20746865207a65726f2061646460008201527f7265737300000000000000000000000000000000000000000000000000000000602082015250565b60006113d6602483610d6f565b91506113e18261137a565b604082019050919050565b60006020820190508181036000830152611405816113c9565b9050919050565b7f45524332303a20617070726f766520746f20746865207a65726f20616464726560008201527f7373000000000000000000000000000000000000000000000000000000000000602082015250565b6000611468602283610d6f565b91506114738261140c565b604082019050919050565b600060208201905081810360008301526114978161145b565b9050919050565b7f45524332303a20696e73756666696369656e7420616c6c6f77616e6365000000600082015250565b60006114d4601d83610d6f565b91506114df8261149e565b602082019050919050565b60006020820190508181036000830152611503816114c7565b9050919050565b7f45524332303a207472616e736665722066726f6d20746865207a65726f20616460008201527f6472657373000000000000000000000000000000000000000000000000000000602082015250565b6000611566602583610d6f565b91506115718261150a565b604082019050919050565b6000602082019050818103600083015261159581611559565b9050919050565b7f45524332303a207472616e7366657220746f20746865207a65726f206164647260008201527f6573730000000000000000000000000000000000000000000000000000000000602082015250565b60006115f8602383610d6f565b91506116038261159c565b604082019050919050565b60006020820190508181036000830152611627816115eb565b9050919050565b7f45524332303a207472616e7366657220616d6f756e742065786365656473206260008201527f616c616e63650000000000000000000000000000000000000000000000000000602082015250565b600061168a602683610d6f565b91506116958261162e565b604082019050919050565b600060208201905081810360008301526116b98161167d565b9050919050565b7f45524332303a206d696e7420746f20746865207a65726f206164647265737300600082015250565b60006116f6601f83610d6f565b9150611701826116c0565b602082019050919050565b60006020820190508181036000830152611725816116e9565b905091905056fea2646970667358221220b7c6e53cea6e29e6e89b3186e2e016a13432af66d32207246755f866f29df37164736f6c634300080a0033",
  "immutableReferences": {},
  "source": "// SPDX-License-Identifier: MIT\npragma solidity ^0.8.0;\n\nimport \"@openzeppelin/contracts/token/ERC20/ERC20.sol\";\n\ncontract LinkTokenMock is ERC20 {\n  constructor() ERC20(\"ChainLink Token\", \"LINK\") {}\n\n  function mint(address to, uint256 amount) external {\n    _mint(to, amount);\n  }\n\n  function transferAndCall(address _to, uint _value, bytes memory) public returns (bool success) {\n    return transfer(_to, _value);\n  }\n}\n",
  "sourcePath": "/Users/chris/workspace/ratalert/ratalert-contracts/contracts/LinkTokenMock.sol",
  "compiler": {
    "name": "solc",
    "version": "0.8.10+commit.fc410830.Emscripten.clang"
  },
  "schemaVersion": "3.4.7",
  "updatedAt": "2022-04-28T12:38:16.903Z",
  "networkType": "ethereum",
  "devdoc": {
    "kind": "dev",
    "methods": {
      "allowance(address,address)": {
        "details": "See {IERC20-allowance}."
      },
      "approve(address,uint256)": {
        "details": "See {IERC20-approve}. NOTE: If `amount` is the maximum `uint256`, the allowance is not updated on `transferFrom`. This is semantically equivalent to an infinite approval. Requirements: - `spender` cannot be the zero address."
      },
      "balanceOf(address)": {
        "details": "See {IERC20-balanceOf}."
      },
      "decimals()": {
        "details": "Returns the number of decimals used to get its user representation. For example, if `decimals` equals `2`, a balance of `505` tokens should be displayed to a user as `5.05` (`505 / 10 ** 2`). Tokens usually opt for a value of 18, imitating the relationship between Ether and Wei. This is the value {ERC20} uses, unless this function is overridden; NOTE: This information is only used for _display_ purposes: it in no way affects any of the arithmetic of the contract, including {IERC20-balanceOf} and {IERC20-transfer}."
      },
      "decreaseAllowance(address,uint256)": {
        "details": "Atomically decreases the allowance granted to `spender` by the caller. This is an alternative to {approve} that can be used as a mitigation for problems described in {IERC20-approve}. Emits an {Approval} event indicating the updated allowance. Requirements: - `spender` cannot be the zero address. - `spender` must have allowance for the caller of at least `subtractedValue`."
      },
      "increaseAllowance(address,uint256)": {
        "details": "Atomically increases the allowance granted to `spender` by the caller. This is an alternative to {approve} that can be used as a mitigation for problems described in {IERC20-approve}. Emits an {Approval} event indicating the updated allowance. Requirements: - `spender` cannot be the zero address."
      },
      "name()": {
        "details": "Returns the name of the token."
      },
      "symbol()": {
        "details": "Returns the symbol of the token, usually a shorter version of the name."
      },
      "totalSupply()": {
        "details": "See {IERC20-totalSupply}."
      },
      "transfer(address,uint256)": {
        "details": "See {IERC20-transfer}. Requirements: - `to` cannot be the zero address. - the caller must have a balance of at least `amount`."
      },
      "transferFrom(address,address,uint256)": {
        "details": "See {IERC20-transferFrom}. Emits an {Approval} event indicating the updated allowance. This is not required by the EIP. See the note at the beginning of {ERC20}. NOTE: Does not update the allowance if the current allowance is the maximum `uint256`. Requirements: - `from` and `to` cannot be the zero address. - `from` must have a balance of at least `amount`. - the caller must have allowance for ``from``'s tokens of at least `amount`."
      }
    },
    "version": 1
  },
  "userdoc": {
    "kind": "user",
    "methods": {},
    "version": 1
  }
}