{
  "contractName": "LinkTokenMock",
  "abi": [
    {
      "inputs": [],
      "stateMutability": "nonpayable",
      "type": "constructor"
    },
    {
      "anonymous": false,
      "inputs": [
        {
          "indexed": true,
          "internalType": "address",
          "name": "owner",
          "type": "address"
        },
        {
          "indexed": true,
          "internalType": "address",
          "name": "spender",
          "type": "address"
        },
        {
          "indexed": false,
          "internalType": "uint256",
          "name": "value",
          "type": "uint256"
        }
      ],
      "name": "Approval",
      "type": "event"
    },
    {
      "anonymous": false,
      "inputs": [
        {
          "indexed": true,
          "internalType": "address",
          "name": "from",
          "type": "address"
        },
        {
          "indexed": true,
          "internalType": "address",
          "name": "to",
          "type": "address"
        },
        {
          "indexed": false,
          "internalType": "uint256",
          "name": "value",
          "type": "uint256"
        }
      ],
      "name": "Transfer",
      "type": "event"
    },
    {
      "inputs": [
        {
          "internalType": "address",
          "name": "owner",
          "type": "address"
        },
        {
          "internalType": "address",
          "name": "spender",
          "type": "address"
        }
      ],
      "name": "allowance",
      "outputs": [
        {
          "internalType": "uint256",
          "name": "",
          "type": "uint256"
        }
      ],
      "stateMutability": "view",
      "type": "function"
    },
    {
      "inputs": [
        {
          "internalType": "address",
          "name": "spender",
          "type": "address"
        },
        {
          "internalType": "uint256",
          "name": "amount",
          "type": "uint256"
        }
      ],
      "name": "approve",
      "outputs": [
        {
          "internalType": "bool",
          "name": "",
          "type": "bool"
        }
      ],
      "stateMutability": "nonpayable",
      "type": "function"
    },
    {
      "inputs": [
        {
          "internalType": "address",
          "name": "account",
          "type": "address"
        }
      ],
      "name": "balanceOf",
      "outputs": [
        {
          "internalType": "uint256",
          "name": "",
          "type": "uint256"
        }
      ],
      "stateMutability": "view",
      "type": "function"
    },
    {
      "inputs": [],
      "name": "decimals",
      "outputs": [
        {
          "internalType": "uint8",
          "name": "",
          "type": "uint8"
        }
      ],
      "stateMutability": "view",
      "type": "function"
    },
    {
      "inputs": [
        {
          "internalType": "address",
          "name": "spender",
          "type": "address"
        },
        {
          "internalType": "uint256",
          "name": "subtractedValue",
          "type": "uint256"
        }
      ],
      "name": "decreaseAllowance",
      "outputs": [
        {
          "internalType": "bool",
          "name": "",
          "type": "bool"
        }
      ],
      "stateMutability": "nonpayable",
      "type": "function"
    },
    {
      "inputs": [
        {
          "internalType": "address",
          "name": "spender",
          "type": "address"
        },
        {
          "internalType": "uint256",
          "name": "addedValue",
          "type": "uint256"
        }
      ],
      "name": "increaseAllowance",
      "outputs": [
        {
          "internalType": "bool",
          "name": "",
          "type": "bool"
        }
      ],
      "stateMutability": "nonpayable",
      "type": "function"
    },
    {
      "inputs": [],
      "name": "name",
      "outputs": [
        {
          "internalType": "string",
          "name": "",
          "type": "string"
        }
      ],
      "stateMutability": "view",
      "type": "function"
    },
    {
      "inputs": [],
      "name": "symbol",
      "outputs": [
        {
          "internalType": "string",
          "name": "",
          "type": "string"
        }
      ],
      "stateMutability": "view",
      "type": "function"
    },
    {
      "inputs": [],
      "name": "totalSupply",
      "outputs": [
        {
          "internalType": "uint256",
          "name": "",
          "type": "uint256"
        }
      ],
      "stateMutability": "view",
      "type": "function"
    },
    {
      "inputs": [
        {
          "internalType": "address",
          "name": "recipient",
          "type": "address"
        },
        {
          "internalType": "uint256",
          "name": "amount",
          "type": "uint256"
        }
      ],
      "name": "transfer",
      "outputs": [
        {
          "internalType": "bool",
          "name": "",
          "type": "bool"
        }
      ],
      "stateMutability": "nonpayable",
      "type": "function"
    },
    {
      "inputs": [
        {
          "internalType": "address",
          "name": "sender",
          "type": "address"
        },
        {
          "internalType": "address",
          "name": "recipient",
          "type": "address"
        },
        {
          "internalType": "uint256",
          "name": "amount",
          "type": "uint256"
        }
      ],
      "name": "transferFrom",
      "outputs": [
        {
          "internalType": "bool",
          "name": "",
          "type": "bool"
        }
      ],
      "stateMutability": "nonpayable",
      "type": "function"
    },
    {
      "inputs": [
        {
          "internalType": "address",
          "name": "to",
          "type": "address"
        },
        {
          "internalType": "uint256",
          "name": "amount",
          "type": "uint256"
        }
      ],
      "name": "mint",
      "outputs": [],
      "stateMutability": "nonpayable",
      "type": "function"
    },
    {
      "inputs": [
        {
          "internalType": "address",
          "name": "_to",
          "type": "address"
        },
        {
          "internalType": "uint256",
          "name": "_value",
          "type": "uint256"
        },
        {
          "internalType": "bytes",
          "name": "",
          "type": "bytes"
        }
      ],
      "name": "transferAndCall",
      "outputs": [
        {
          "internalType": "bool",
          "name": "success",
          "type": "bool"
        }
      ],
      "stateMutability": "nonpayable",
      "type": "function"
    }
  ],
  "bytecode": "0x60806040523480156200001157600080fd5b506040518060400160405280600f81526020017f436861696e4c696e6b20546f6b656e00000000000000000000000000000000008152506040518060400160405280600481526020017f4c494e4b00000000000000000000000000000000000000000000000000000000815250816003908051906020019062000096929190620000b8565b508060049080519060200190620000af929190620000b8565b505050620001cd565b828054620000c69062000197565b90600052602060002090601f016020900481019282620000ea576000855562000136565b82601f106200010557805160ff191683800117855562000136565b8280016001018555821562000136579182015b828111156200013557825182559160200191906001019062000118565b5b50905062000145919062000149565b5090565b5b80821115620001645760008160009055506001016200014a565b5090565b7f4e487b7100000000000000000000000000000000000000000000000000000000600052602260045260246000fd5b60006002820490506001821680620001b057607f821691505b60208210811415620001c757620001c662000168565b5b50919050565b6117be80620001dd6000396000f3fe608060405234801561001057600080fd5b50600436106100cf5760003560e01c80634000aea01161008c57806395d89b411161006657806395d89b411461023a578063a457c2d714610258578063a9059cbb14610288578063dd62ed3e146102b8576100cf565b80634000aea0146101be57806340c10f19146101ee57806370a082311461020a576100cf565b806306fdde03146100d4578063095ea7b3146100f257806318160ddd1461012257806323b872dd14610140578063313ce56714610170578063395093511461018e575b600080fd5b6100dc6102e8565b6040516100e99190610e33565b60405180910390f35b61010c60048036038101906101079190610efd565b61037a565b6040516101199190610f58565b60405180910390f35b61012a610398565b6040516101379190610f82565b60405180910390f35b61015a60048036038101906101559190610f9d565b6103a2565b6040516101679190610f58565b60405180910390f35b61017861049a565b604051610185919061100c565b60405180910390f35b6101a860048036038101906101a39190610efd565b6104a3565b6040516101b59190610f58565b60405180910390f35b6101d860048036038101906101d3919061115c565b61054f565b6040516101e59190610f58565b60405180910390f35b61020860048036038101906102039190610efd565b610564565b005b610224600480360381019061021f91906111cb565b610572565b6040516102319190610f82565b60405180910390f35b6102426105ba565b60405161024f9190610e33565b60405180910390f35b610272600480360381019061026d9190610efd565b61064c565b60405161027f9190610f58565b60405180910390f35b6102a2600480360381019061029d9190610efd565b610737565b6040516102af9190610f58565b60405180910390f35b6102d260048036038101906102cd91906111f8565b610755565b6040516102df9190610f82565b60405180910390f35b6060600380546102f790611267565b80601f016020809104026020016040519081016040528092919081815260200182805461032390611267565b80156103705780601f1061034557610100808354040283529160200191610370565b820191906000526020600020905b81548152906001019060200180831161035357829003601f168201915b5050505050905090565b600061038e6103876107dc565b84846107e4565b6001905092915050565b6000600254905090565b60006103af8484846109af565b6000600160008673ffffffffffffffffffffffffffffffffffffffff1673ffffffffffffffffffffffffffffffffffffffff16815260200190815260200160002060006103fa6107dc565b73ffffffffffffffffffffffffffffffffffffffff1673ffffffffffffffffffffffffffffffffffffffff1681526020019081526020016000205490508281101561047a576040517f08c379a00000000000000000000000000000000000000000000000000000000081526004016104719061130b565b60405180910390fd5b61048e856104866107dc565b8584036107e4565b60019150509392505050565b60006012905090565b60006105456104b06107dc565b8484600160006104be6107dc565b73ffffffffffffffffffffffffffffffffffffffff1673ffffffffffffffffffffffffffffffffffffffff16815260200190815260200160002060008873ffffffffffffffffffffffffffffffffffffffff1673ffffffffffffffffffffffffffffffffffffffff16815260200190815260200160002054610540919061135a565b6107e4565b6001905092915050565b600061055b8484610737565b90509392505050565b61056e8282610c30565b5050565b60008060008373ffffffffffffffffffffffffffffffffffffffff1673ffffffffffffffffffffffffffffffffffffffff168152602001908152602001600020549050919050565b6060600480546105c990611267565b80601f01602080910402602001604051908101604052809291908181526020018280546105f590611267565b80156106425780601f1061061757610100808354040283529160200191610642565b820191906000526020600020905b81548152906001019060200180831161062557829003601f168201915b5050505050905090565b6000806001600061065b6107dc565b73ffffffffffffffffffffffffffffffffffffffff1673ffffffffffffffffffffffffffffffffffffffff16815260200190815260200160002060008573ffffffffffffffffffffffffffffffffffffffff1673ffffffffffffffffffffffffffffffffffffffff16815260200190815260200160002054905082811015610718576040517f08c379a000000000000000000000000000000000000000000000000000000000815260040161070f90611422565b60405180910390fd5b61072c6107236107dc565b858584036107e4565b600191505092915050565b600061074b6107446107dc565b84846109af565b6001905092915050565b6000600160008473ffffffffffffffffffffffffffffffffffffffff1673ffffffffffffffffffffffffffffffffffffffff16815260200190815260200160002060008373ffffffffffffffffffffffffffffffffffffffff1673ffffffffffffffffffffffffffffffffffffffff16815260200190815260200160002054905092915050565b600033905090565b600073ffffffffffffffffffffffffffffffffffffffff168373ffffffffffffffffffffffffffffffffffffffff161415610854576040517f08c379a000000000000000000000000000000000000000000000000000000000815260040161084b906114b4565b60405180910390fd5b600073ffffffffffffffffffffffffffffffffffffffff168273ffffffffffffffffffffffffffffffffffffffff1614156108c4576040517f08c379a00000000000000000000000000000000000000000000000000000000081526004016108bb90611546565b60405180910390fd5b80600160008573ffffffffffffffffffffffffffffffffffffffff1673ffffffffffffffffffffffffffffffffffffffff16815260200190815260200160002060008473ffffffffffffffffffffffffffffffffffffffff1673ffffffffffffffffffffffffffffffffffffffff168152602001908152602001600020819055508173ffffffffffffffffffffffffffffffffffffffff168373ffffffffffffffffffffffffffffffffffffffff167f8c5be1e5ebec7d5bd14f71427d1e84f3dd0314c0f7b2291e5b200ac8c7c3b925836040516109a29190610f82565b60405180910390a3505050565b600073ffffffffffffffffffffffffffffffffffffffff168373ffffffffffffffffffffffffffffffffffffffff161415610a1f576040517f08c379a0000000000000000000000000000000000000000000000000000000008152600401610a16906115d8565b60405180910390fd5b600073ffffffffffffffffffffffffffffffffffffffff168273ffffffffffffffffffffffffffffffffffffffff161415610a8f576040517f08c379a0000000000000000000000000000000000000000000000000000000008152600401610a869061166a565b60405180910390fd5b610a9a838383610d90565b60008060008573ffffffffffffffffffffffffffffffffffffffff1673ffffffffffffffffffffffffffffffffffffffff16815260200190815260200160002054905081811015610b20576040517f08c379a0000000000000000000000000000000000000000000000000000000008152600401610b17906116fc565b60405180910390fd5b8181036000808673ffffffffffffffffffffffffffffffffffffffff1673ffffffffffffffffffffffffffffffffffffffff16815260200190815260200160002081905550816000808573ffffffffffffffffffffffffffffffffffffffff1673ffffffffffffffffffffffffffffffffffffffff1681526020019081526020016000206000828254610bb3919061135a565b925050819055508273ffffffffffffffffffffffffffffffffffffffff168473ffffffffffffffffffffffffffffffffffffffff167fddf252ad1be2c89b69c2b068fc378daa952ba7f163c4a11628f55a4df523b3ef84604051610c179190610f82565b60405180910390a3610c2a848484610d95565b50505050565b600073ffffffffffffffffffffffffffffffffffffffff168273ffffffffffffffffffffffffffffffffffffffff161415610ca0576040517f08c379a0000000000000000000000000000000000000000000000000000000008152600401610c9790611768565b60405180910390fd5b610cac60008383610d90565b8060026000828254610cbe919061135a565b92505081905550806000808473ffffffffffffffffffffffffffffffffffffffff1673ffffffffffffffffffffffffffffffffffffffff1681526020019081526020016000206000828254610d13919061135a565b925050819055508173ffffffffffffffffffffffffffffffffffffffff16600073ffffffffffffffffffffffffffffffffffffffff167fddf252ad1be2c89b69c2b068fc378daa952ba7f163c4a11628f55a4df523b3ef83604051610d789190610f82565b60405180910390a3610d8c60008383610d95565b5050565b505050565b505050565b600081519050919050565b600082825260208201905092915050565b60005b83811015610dd4578082015181840152602081019050610db9565b83811115610de3576000848401525b50505050565b6000601f19601f8301169050919050565b6000610e0582610d9a565b610e0f8185610da5565b9350610e1f818560208601610db6565b610e2881610de9565b840191505092915050565b60006020820190508181036000830152610e4d8184610dfa565b905092915050565b6000604051905090565b600080fd5b600080fd5b600073ffffffffffffffffffffffffffffffffffffffff82169050919050565b6000610e9482610e69565b9050919050565b610ea481610e89565b8114610eaf57600080fd5b50565b600081359050610ec181610e9b565b92915050565b6000819050919050565b610eda81610ec7565b8114610ee557600080fd5b50565b600081359050610ef781610ed1565b92915050565b60008060408385031215610f1457610f13610e5f565b5b6000610f2285828601610eb2565b9250506020610f3385828601610ee8565b9150509250929050565b60008115159050919050565b610f5281610f3d565b82525050565b6000602082019050610f6d6000830184610f49565b92915050565b610f7c81610ec7565b82525050565b6000602082019050610f976000830184610f73565b92915050565b600080600060608486031215610fb657610fb5610e5f565b5b6000610fc486828701610eb2565b9350506020610fd586828701610eb2565b9250506040610fe686828701610ee8565b9150509250925092565b600060ff82169050919050565b61100681610ff0565b82525050565b60006020820190506110216000830184610ffd565b92915050565b600080fd5b600080fd5b7f4e487b7100000000000000000000000000000000000000000000000000000000600052604160045260246000fd5b61106982610de9565b810181811067ffffffffffffffff8211171561108857611087611031565b5b80604052505050565b600061109b610e55565b90506110a78282611060565b919050565b600067ffffffffffffffff8211156110c7576110c6611031565b5b6110d082610de9565b9050602081019050919050565b82818337600083830152505050565b60006110ff6110fa846110ac565b611091565b90508281526020810184848401111561111b5761111a61102c565b5b6111268482856110dd565b509392505050565b600082601f83011261114357611142611027565b5b81356111538482602086016110ec565b91505092915050565b60008060006060848603121561117557611174610e5f565b5b600061118386828701610eb2565b935050602061119486828701610ee8565b925050604084013567ffffffffffffffff8111156111b5576111b4610e64565b5b6111c18682870161112e565b9150509250925092565b6000602082840312156111e1576111e0610e5f565b5b60006111ef84828501610eb2565b91505092915050565b6000806040838503121561120f5761120e610e5f565b5b600061121d85828601610eb2565b925050602061122e85828601610eb2565b9150509250929050565b7f4e487b7100000000000000000000000000000000000000000000000000000000600052602260045260246000fd5b6000600282049050600182168061127f57607f821691505b6020821081141561129357611292611238565b5b50919050565b7f45524332303a207472616e7366657220616d6f756e742065786365656473206160008201527f6c6c6f77616e6365000000000000000000000000000000000000000000000000602082015250565b60006112f5602883610da5565b915061130082611299565b604082019050919050565b60006020820190508181036000830152611324816112e8565b9050919050565b7f4e487b7100000000000000000000000000000000000000000000000000000000600052601160045260246000fd5b600061136582610ec7565b915061137083610ec7565b9250827fffffffffffffffffffffffffffffffffffffffffffffffffffffffffffffffff038211156113a5576113a461132b565b5b828201905092915050565b7f45524332303a2064656372656173656420616c6c6f77616e63652062656c6f7760008201527f207a65726f000000000000000000000000000000000000000000000000000000602082015250565b600061140c602583610da5565b9150611417826113b0565b604082019050919050565b6000602082019050818103600083015261143b816113ff565b9050919050565b7f45524332303a20617070726f76652066726f6d20746865207a65726f2061646460008201527f7265737300000000000000000000000000000000000000000000000000000000602082015250565b600061149e602483610da5565b91506114a982611442565b604082019050919050565b600060208201905081810360008301526114cd81611491565b9050919050565b7f45524332303a20617070726f766520746f20746865207a65726f20616464726560008201527f7373000000000000000000000000000000000000000000000000000000000000602082015250565b6000611530602283610da5565b915061153b826114d4565b604082019050919050565b6000602082019050818103600083015261155f81611523565b9050919050565b7f45524332303a207472616e736665722066726f6d20746865207a65726f20616460008201527f6472657373000000000000000000000000000000000000000000000000000000602082015250565b60006115c2602583610da5565b91506115cd82611566565b604082019050919050565b600060208201905081810360008301526115f1816115b5565b9050919050565b7f45524332303a207472616e7366657220746f20746865207a65726f206164647260008201527f6573730000000000000000000000000000000000000000000000000000000000602082015250565b6000611654602383610da5565b915061165f826115f8565b604082019050919050565b6000602082019050818103600083015261168381611647565b9050919050565b7f45524332303a207472616e7366657220616d6f756e742065786365656473206260008201527f616c616e63650000000000000000000000000000000000000000000000000000602082015250565b60006116e6602683610da5565b91506116f18261168a565b604082019050919050565b60006020820190508181036000830152611715816116d9565b9050919050565b7f45524332303a206d696e7420746f20746865207a65726f206164647265737300600082015250565b6000611752601f83610da5565b915061175d8261171c565b602082019050919050565b6000602082019050818103600083015261178181611745565b905091905056fea26469706673582212202e1f3df28e434b187fbde6bd5e36f7cd135cb996a0930dd1dbfd6cbb381d5a6564736f6c634300080a0033",
  "immutableReferences": {},
  "source": "// SPDX-License-Identifier: MIT\npragma solidity ^0.8.0;\n\nimport \"@openzeppelin/contracts/token/ERC20/ERC20.sol\";\n\ncontract LinkTokenMock is ERC20 {\n  constructor() ERC20(\"ChainLink Token\", \"LINK\") {}\n\n  function mint(address to, uint256 amount) external {\n    _mint(to, amount);\n  }\n\n  function transferAndCall(address _to, uint _value, bytes memory) public returns (bool success) {\n    return transfer(_to, _value);\n  }\n}\n",
  "sourcePath": "/Users/chris/workspace/ratalert/ratalert-contracts/contracts/LinkTokenMock.sol",
  "compiler": {
    "name": "solc",
    "version": "0.8.10+commit.fc410830.Emscripten.clang"
  },
  "schemaVersion": "3.4.5",
  "updatedAt": "2022-03-02T16:13:07.862Z",
  "devdoc": {
    "kind": "dev",
    "methods": {
      "allowance(address,address)": {
        "details": "See {IERC20-allowance}."
      },
      "approve(address,uint256)": {
        "details": "See {IERC20-approve}. Requirements: - `spender` cannot be the zero address."
      },
      "balanceOf(address)": {
        "details": "See {IERC20-balanceOf}."
      },
      "decimals()": {
        "details": "Returns the number of decimals used to get its user representation. For example, if `decimals` equals `2`, a balance of `505` tokens should be displayed to a user as `5.05` (`505 / 10 ** 2`). Tokens usually opt for a value of 18, imitating the relationship between Ether and Wei. This is the value {ERC20} uses, unless this function is overridden; NOTE: This information is only used for _display_ purposes: it in no way affects any of the arithmetic of the contract, including {IERC20-balanceOf} and {IERC20-transfer}."
      },
      "decreaseAllowance(address,uint256)": {
        "details": "Atomically decreases the allowance granted to `spender` by the caller. This is an alternative to {approve} that can be used as a mitigation for problems described in {IERC20-approve}. Emits an {Approval} event indicating the updated allowance. Requirements: - `spender` cannot be the zero address. - `spender` must have allowance for the caller of at least `subtractedValue`."
      },
      "increaseAllowance(address,uint256)": {
        "details": "Atomically increases the allowance granted to `spender` by the caller. This is an alternative to {approve} that can be used as a mitigation for problems described in {IERC20-approve}. Emits an {Approval} event indicating the updated allowance. Requirements: - `spender` cannot be the zero address."
      },
      "name()": {
        "details": "Returns the name of the token."
      },
      "symbol()": {
        "details": "Returns the symbol of the token, usually a shorter version of the name."
      },
      "totalSupply()": {
        "details": "See {IERC20-totalSupply}."
      },
      "transfer(address,uint256)": {
        "details": "See {IERC20-transfer}. Requirements: - `recipient` cannot be the zero address. - the caller must have a balance of at least `amount`."
      },
      "transferFrom(address,address,uint256)": {
        "details": "See {IERC20-transferFrom}. Emits an {Approval} event indicating the updated allowance. This is not required by the EIP. See the note at the beginning of {ERC20}. Requirements: - `sender` and `recipient` cannot be the zero address. - `sender` must have a balance of at least `amount`. - the caller must have allowance for ``sender``'s tokens of at least `amount`."
      }
    },
    "version": 1
  },
  "userdoc": {
    "kind": "user",
    "methods": {},
    "version": 1
  }
}