{
  "contractName": "McStake",
  "abi": [
    {
      "anonymous": false,
      "inputs": [
        {
          "indexed": false,
          "internalType": "uint256",
          "name": "tokenId",
          "type": "uint256"
        },
        {
          "indexed": false,
          "internalType": "uint256",
          "name": "earned",
          "type": "uint256"
        },
        {
          "indexed": false,
          "internalType": "bool",
          "name": "unstaked",
          "type": "bool"
        },
        {
          "indexed": false,
          "internalType": "uint8",
          "name": "skill",
          "type": "uint8"
        },
        {
          "indexed": false,
          "internalType": "uint8",
          "name": "insanity",
          "type": "uint8"
        },
        {
          "indexed": false,
          "internalType": "string",
          "name": "eventName",
          "type": "string"
        },
        {
          "indexed": false,
          "internalType": "uint256",
          "name": "foodTokensPerRat",
          "type": "uint256"
        }
      ],
      "name": "ChefClaimed",
      "type": "event"
    },
    {
      "anonymous": false,
      "inputs": [
        {
          "indexed": true,
          "internalType": "address",
          "name": "previousOwner",
          "type": "address"
        },
        {
          "indexed": true,
          "internalType": "address",
          "name": "newOwner",
          "type": "address"
        }
      ],
      "name": "OwnershipTransferred",
      "type": "event"
    },
    {
      "anonymous": false,
      "inputs": [
        {
          "indexed": false,
          "internalType": "address",
          "name": "account",
          "type": "address"
        }
      ],
      "name": "Paused",
      "type": "event"
    },
    {
      "anonymous": false,
      "inputs": [
        {
          "indexed": false,
          "internalType": "uint256",
          "name": "tokenId",
          "type": "uint256"
        },
        {
          "indexed": false,
          "internalType": "uint256",
          "name": "earned",
          "type": "uint256"
        },
        {
          "indexed": false,
          "internalType": "bool",
          "name": "unstaked",
          "type": "bool"
        },
        {
          "indexed": false,
          "internalType": "uint8",
          "name": "intelligence",
          "type": "uint8"
        },
        {
          "indexed": false,
          "internalType": "uint8",
          "name": "fatness",
          "type": "uint8"
        },
        {
          "indexed": false,
          "internalType": "string",
          "name": "eventName",
          "type": "string"
        }
      ],
      "name": "RatClaimed",
      "type": "event"
    },
    {
      "anonymous": false,
      "inputs": [
        {
          "indexed": false,
          "internalType": "uint256",
          "name": "tokenId",
          "type": "uint256"
        },
        {
          "indexed": false,
          "internalType": "address",
          "name": "owner",
          "type": "address"
        },
        {
          "indexed": false,
          "internalType": "uint256",
          "name": "value",
          "type": "uint256"
        }
      ],
      "name": "TokenStaked",
      "type": "event"
    },
    {
      "anonymous": false,
      "inputs": [
        {
          "indexed": false,
          "internalType": "address",
          "name": "account",
          "type": "address"
        }
      ],
      "name": "Unpaused",
      "type": "event"
    },
    {
      "inputs": [],
      "name": "accrualPeriod",
      "outputs": [
        {
          "internalType": "uint256",
          "name": "",
          "type": "uint256"
        }
      ],
      "stateMutability": "view",
      "type": "function",
      "constant": true
    },
    {
      "inputs": [],
      "name": "chefEfficiencyMultiplier",
      "outputs": [
        {
          "internalType": "uint8",
          "name": "",
          "type": "uint8"
        }
      ],
      "stateMutability": "view",
      "type": "function",
      "constant": true
    },
    {
      "inputs": [
        {
          "internalType": "uint256",
          "name": "",
          "type": "uint256"
        }
      ],
      "name": "chefs",
      "outputs": [
        {
          "internalType": "uint256",
          "name": "tokenId",
          "type": "uint256"
        },
        {
          "internalType": "address",
          "name": "owner",
          "type": "address"
        },
        {
          "internalType": "uint80",
          "name": "value",
          "type": "uint80"
        },
        {
          "internalType": "uint80",
          "name": "timestamp",
          "type": "uint80"
        }
      ],
      "stateMutability": "view",
      "type": "function",
      "constant": true
    },
    {
      "inputs": [],
      "name": "claim",
      "outputs": [
        {
          "internalType": "contract IClaim",
          "name": "",
          "type": "address"
        }
      ],
      "stateMutability": "view",
      "type": "function",
      "constant": true
    },
    {
      "inputs": [
        {
          "internalType": "uint16[]",
          "name": "tokenIds",
          "type": "uint16[]"
        },
        {
          "internalType": "bool",
          "name": "unstake",
          "type": "bool"
        }
      ],
      "name": "claimMany",
      "outputs": [],
      "stateMutability": "nonpayable",
      "type": "function"
    },
    {
      "inputs": [
        {
          "internalType": "bytes32",
          "name": "",
          "type": "bytes32"
        },
        {
          "internalType": "uint256",
          "name": "",
          "type": "uint256"
        }
      ],
      "name": "claimRequests",
      "outputs": [
        {
          "internalType": "uint16",
          "name": "",
          "type": "uint16"
        }
      ],
      "stateMutability": "view",
      "type": "function",
      "constant": true
    },
    {
      "inputs": [],
      "name": "dailyChefEarnings",
      "outputs": [
        {
          "internalType": "uint256",
          "name": "",
          "type": "uint256"
        }
      ],
      "stateMutability": "view",
      "type": "function",
      "constant": true
    },
    {
      "inputs": [],
      "name": "dailyFatnessRate",
      "outputs": [
        {
          "internalType": "int8",
          "name": "",
          "type": "int8"
        }
      ],
      "stateMutability": "view",
      "type": "function",
      "constant": true
    },
    {
      "inputs": [],
      "name": "dailyInsanityRate",
      "outputs": [
        {
          "internalType": "int8",
          "name": "",
          "type": "int8"
        }
      ],
      "stateMutability": "view",
      "type": "function",
      "constant": true
    },
    {
      "inputs": [],
      "name": "dailyIntelligenceRate",
      "outputs": [
        {
          "internalType": "int8",
          "name": "",
          "type": "int8"
        }
      ],
      "stateMutability": "view",
      "type": "function",
      "constant": true
    },
    {
      "inputs": [],
      "name": "dailySkillRate",
      "outputs": [
        {
          "internalType": "int8",
          "name": "",
          "type": "int8"
        }
      ],
      "stateMutability": "view",
      "type": "function",
      "constant": true
    },
    {
      "inputs": [],
      "name": "foodTokenMaxSupply",
      "outputs": [
        {
          "internalType": "uint256",
          "name": "",
          "type": "uint256"
        }
      ],
      "stateMutability": "view",
      "type": "function",
      "constant": true
    },
    {
      "inputs": [],
      "name": "foodTokensPerRat",
      "outputs": [
        {
          "internalType": "uint256",
          "name": "",
          "type": "uint256"
        }
      ],
      "stateMutability": "view",
      "type": "function",
      "constant": true
    },
    {
      "inputs": [
        {
          "components": [
            {
              "internalType": "bytes32",
              "name": "requestId",
              "type": "bytes32"
            },
            {
              "internalType": "address",
              "name": "venue",
              "type": "address"
            },
            {
              "internalType": "address",
              "name": "sender",
              "type": "address"
            },
            {
              "internalType": "uint16[]",
              "name": "tokenIds",
              "type": "uint16[]"
            },
            {
              "internalType": "bool",
              "name": "unstake",
              "type": "bool"
            }
          ],
          "internalType": "struct IClaim.VRFStruct",
          "name": "v",
          "type": "tuple"
        },
        {
          "internalType": "uint256",
          "name": "randomVal",
          "type": "uint256"
        }
      ],
      "name": "fulfillClaimMany",
      "outputs": [],
      "stateMutability": "nonpayable",
      "type": "function"
    },
    {
      "inputs": [
        {
          "internalType": "uint256",
          "name": "tokenId",
          "type": "uint256"
        }
      ],
      "name": "getProperties",
      "outputs": [
        {
          "internalType": "uint8",
          "name": "efficiency",
          "type": "uint8"
        },
        {
          "internalType": "uint8",
          "name": "tolerance",
          "type": "uint8"
        }
      ],
      "stateMutability": "view",
      "type": "function",
      "constant": true
    },
    {
      "inputs": [
        {
          "internalType": "uint256",
          "name": "tokenId",
          "type": "uint256"
        }
      ],
      "name": "isChef",
      "outputs": [
        {
          "internalType": "bool",
          "name": "chef",
          "type": "bool"
        }
      ],
      "stateMutability": "view",
      "type": "function",
      "constant": true
    },
    {
      "inputs": [],
      "name": "lastClaimTimestamp",
      "outputs": [
        {
          "internalType": "uint256",
          "name": "",
          "type": "uint256"
        }
      ],
      "stateMutability": "view",
      "type": "function",
      "constant": true
    },
    {
      "inputs": [
        {
          "internalType": "address",
          "name": "",
          "type": "address"
        },
        {
          "internalType": "address",
          "name": "from",
          "type": "address"
        },
        {
          "internalType": "uint256",
          "name": "",
          "type": "uint256"
        },
        {
          "internalType": "bytes",
          "name": "",
          "type": "bytes"
        }
      ],
      "name": "onERC721Received",
      "outputs": [
        {
          "internalType": "bytes4",
          "name": "",
          "type": "bytes4"
        }
      ],
      "stateMutability": "pure",
      "type": "function",
      "constant": true
    },
    {
      "inputs": [],
      "name": "owner",
      "outputs": [
        {
          "internalType": "address",
          "name": "",
          "type": "address"
        }
      ],
      "stateMutability": "view",
      "type": "function",
      "constant": true
    },
    {
      "inputs": [],
      "name": "pause",
      "outputs": [],
      "stateMutability": "nonpayable",
      "type": "function"
    },
    {
      "inputs": [],
      "name": "paused",
      "outputs": [
        {
          "internalType": "bool",
          "name": "",
          "type": "bool"
        }
      ],
      "stateMutability": "view",
      "type": "function",
      "constant": true
    },
    {
      "inputs": [],
      "name": "ratEfficiencyMultiplier",
      "outputs": [
        {
          "internalType": "int256",
          "name": "",
          "type": "int256"
        }
      ],
      "stateMutability": "view",
      "type": "function",
      "constant": true
    },
    {
      "inputs": [],
      "name": "ratEfficiencyOffset",
      "outputs": [
        {
          "internalType": "int256",
          "name": "",
          "type": "int256"
        }
      ],
      "stateMutability": "view",
      "type": "function",
      "constant": true
    },
    {
      "inputs": [],
      "name": "ratTheftPercentage",
      "outputs": [
        {
          "internalType": "uint256",
          "name": "",
          "type": "uint256"
        }
      ],
      "stateMutability": "view",
      "type": "function",
      "constant": true
    },
    {
      "inputs": [
        {
          "internalType": "uint256",
          "name": "",
          "type": "uint256"
        }
      ],
      "name": "rats",
      "outputs": [
        {
          "internalType": "uint256",
          "name": "tokenId",
          "type": "uint256"
        },
        {
          "internalType": "address",
          "name": "owner",
          "type": "address"
        },
        {
          "internalType": "uint80",
          "name": "value",
          "type": "uint80"
        },
        {
          "internalType": "uint80",
          "name": "timestamp",
          "type": "uint80"
        }
      ],
      "stateMutability": "view",
      "type": "function",
      "constant": true
    },
    {
      "inputs": [],
      "name": "renounceOwnership",
      "outputs": [],
      "stateMutability": "nonpayable",
      "type": "function"
    },
    {
      "inputs": [
        {
          "internalType": "address",
          "name": "account",
          "type": "address"
        },
        {
          "internalType": "uint16[]",
          "name": "tokenIds",
          "type": "uint16[]"
        }
      ],
      "name": "stakeMany",
      "outputs": [],
      "stateMutability": "nonpayable",
      "type": "function"
    },
    {
      "inputs": [
        {
          "internalType": "address",
          "name": "",
          "type": "address"
        },
        {
          "internalType": "uint256",
          "name": "",
          "type": "uint256"
        }
      ],
      "name": "stakers",
      "outputs": [
        {
          "internalType": "uint256",
          "name": "",
          "type": "uint256"
        }
      ],
      "stateMutability": "view",
      "type": "function",
      "constant": true
    },
    {
      "inputs": [],
      "name": "totalChefsStaked",
      "outputs": [
        {
          "internalType": "uint256",
          "name": "",
          "type": "uint256"
        }
      ],
      "stateMutability": "view",
      "type": "function",
      "constant": true
    },
    {
      "inputs": [],
      "name": "totalFoodTokensEarned",
      "outputs": [
        {
          "internalType": "uint256",
          "name": "",
          "type": "uint256"
        }
      ],
      "stateMutability": "view",
      "type": "function",
      "constant": true
    },
    {
      "inputs": [],
      "name": "totalRatsStaked",
      "outputs": [
        {
          "internalType": "uint256",
          "name": "",
          "type": "uint256"
        }
      ],
      "stateMutability": "view",
      "type": "function",
      "constant": true
    },
    {
      "inputs": [
        {
          "internalType": "address",
          "name": "newOwner",
          "type": "address"
        }
      ],
      "name": "transferOwnership",
      "outputs": [],
      "stateMutability": "nonpayable",
      "type": "function"
    },
    {
      "inputs": [],
      "name": "unaccountedRewards",
      "outputs": [
        {
          "internalType": "uint256",
          "name": "",
          "type": "uint256"
        }
      ],
      "stateMutability": "view",
      "type": "function",
      "constant": true
    },
    {
      "inputs": [],
      "name": "unpause",
      "outputs": [],
      "stateMutability": "nonpayable",
      "type": "function"
    },
    {
      "inputs": [],
      "name": "vestingPeriod",
      "outputs": [
        {
          "internalType": "uint256",
          "name": "",
          "type": "uint256"
        }
      ],
      "stateMutability": "view",
      "type": "function",
      "constant": true
    },
    {
      "inputs": [
        {
          "internalType": "address",
          "name": "_character",
          "type": "address"
        },
        {
          "internalType": "address",
          "name": "_claim",
          "type": "address"
        },
        {
          "internalType": "uint256",
          "name": "_accrualPeriod",
          "type": "uint256"
        }
      ],
      "name": "initialize",
      "outputs": [],
      "stateMutability": "nonpayable",
      "type": "function"
    },
    {
      "inputs": [],
      "name": "initialize",
      "outputs": [],
      "stateMutability": "nonpayable",
      "type": "function"
    },
    {
      "inputs": [
        {
          "internalType": "address",
          "name": "_character",
          "type": "address"
        },
        {
          "internalType": "address",
          "name": "_claim",
          "type": "address"
        },
        {
          "internalType": "address",
          "name": "_foodToken",
          "type": "address"
        }
      ],
      "name": "initialize",
      "outputs": [],
      "stateMutability": "nonpayable",
      "type": "function"
    },
    {
      "inputs": [
        {
          "internalType": "uint256",
          "name": "_foodTokenMaxSupply",
          "type": "uint256"
        },
        {
          "internalType": "uint256[]",
          "name": "_earningSettings",
          "type": "uint256[]"
        },
        {
          "internalType": "int8[]",
          "name": "_propertyIncrements",
          "type": "int8[]"
        },
        {
          "internalType": "uint8",
          "name": "_chefEfficiencyMultiplier",
          "type": "uint8"
        },
        {
          "internalType": "int256",
          "name": "_ratEfficiencyMultiplier",
          "type": "int256"
        },
        {
          "internalType": "int256",
          "name": "_ratEfficiencyOffset",
          "type": "int256"
        }
      ],
      "name": "configure",
      "outputs": [],
      "stateMutability": "nonpayable",
      "type": "function"
    }
  ],
  "bytecode": "0x608060405234801561001057600080fd5b50615a7e80620000216000396000f3fe608060405234801561001057600080fd5b506004361061023d5760003560e01c80638129fc1c1161013b578063c8b6cbf7116100b8578063dbdc1f6b1161007c578063dbdc1f6b14610657578063ef9f800f14610673578063f2666746146106a3578063f2fde38b146106c1578063f6664155146106dd5761023d565b8063c8b6cbf7146105b1578063cba88af8146105e1578063cfff7d16146105ff578063d7178ac61461061b578063d8dda92e146106395761023d565b8063a262c0ad116100ff578063a262c0ad1461051f578063a7a102901461053d578063bdb6294114610559578063c0c472c014610577578063c0c53b8b146105955761023d565b80638129fc1c146104b35780638456cb59146104bd5780638da5cb5b146104c757806391ba3f3f146104e5578063922a1802146105035761023d565b806335ec066e116101c9578063525e915b1161018d578063525e915b1461041f5780635c975abb1461044f578063607af3971461046d578063715018a61461048b5780637313ee5a146104955761023d565b806335ec066e146103735780633f4ba83a146103a6578063499f8010146103b05780634d1c61af146103ce5780634e71d92d146104015761023d565b80631b4d47a1116102105780631b4d47a1146102ca5780631b8ca217146102e85780632535a77f146103195780632d79320b146103375780632e2ce28b146103555761023d565b806310d53df114610242578063138e6ad514610260578063150b7a021461027e5780631794bb3c146102ae575b600080fd5b61024a6106fb565b6040516102579190613bca565b60405180910390f35b61026861070e565b6040516102759190613bfe565b60405180910390f35b61029860048036038101906102939190613d26565b610714565b6040516102a59190613de9565b60405180910390f35b6102c860048036038101906102c39190613e04565b610797565b005b6102d2610993565b6040516102df9190613e66565b60405180910390f35b61030260048036038101906102fd9190613e81565b610999565b604051610310929190613eca565b60405180910390f35b610321610a7a565b60405161032e9190613e66565b60405180910390f35b61033f610a80565b60405161034c9190613ef3565b60405180910390f35b61035d610a93565b60405161036a9190613e66565b60405180910390f35b61038d60048036038101906103889190613e81565b610a99565b60405161039d9493929190613f42565b60405180910390f35b6103ae610b15565b005b6103b8610b9b565b6040516103c59190613e66565b60405180910390f35b6103e860048036038101906103e39190613e81565b610ba1565b6040516103f89493929190613f42565b60405180910390f35b610409610c1d565b6040516104169190613fe6565b60405180910390f35b61043960048036038101906104349190614037565b610c43565b6040516104469190614094565b60405180910390f35b610457610c8a565b60405161046491906140ca565b60405180910390f35b610475610ca1565b6040516104829190613e66565b60405180910390f35b610493610ca7565b005b61049d610d2f565b6040516104aa9190613e66565b60405180910390f35b6104bb610d35565b005b6104c5610e29565b005b6104cf610eaf565b6040516104dc91906140e5565b60405180910390f35b6104ed610ed9565b6040516104fa9190613e66565b60405180910390f35b61051d60048036038101906105189190614359565b610edf565b005b61052761144b565b6040516105349190613bca565b60405180910390f35b6105576004803603810190610552919061440b565b61145e565b005b610561611813565b60405161056e9190613bca565b60405180910390f35b61057f611826565b60405161058c9190613e66565b60405180910390f35b6105af60048036038101906105aa919061446b565b61182c565b005b6105cb60048036038101906105c691906144be565b6119fe565b6040516105d89190613e66565b60405180910390f35b6105e9611a2f565b6040516105f69190613bca565b60405180910390f35b61061960048036038101906106149190614708565b611a42565b005b610623611c88565b6040516106309190613bfe565b60405180910390f35b610641611c8e565b60405161064e9190613e66565b60405180910390f35b610671600480360381019061066c91906147cd565b611c94565b005b61068d60048036038101906106889190613e81565b612221565b60405161069a91906140ca565b60405180910390f35b6106ab6122f6565b6040516106b89190613e66565b60405180910390f35b6106db60048036038101906106d6919061482d565b6122fc565b005b6106e56123f4565b6040516106f29190613e66565b60405180910390f35b609d60009054906101000a900460000b81565b60aa5481565b60008073ffffffffffffffffffffffffffffffffffffffff168573ffffffffffffffffffffffffffffffffffffffff1614610784576040517f08c379a000000000000000000000000000000000000000000000000000000000815260040161077b906148dd565b60405180910390fd5b63150b7a0260e01b905095945050505050565b600060019054906101000a900460ff166107bf5760008054906101000a900460ff16156107c8565b6107c76123fa565b5b610807576040517f08c379a00000000000000000000000000000000000000000000000000000000081526004016107fe9061496f565b60405180910390fd5b60008060019054906101000a900460ff161590508015610857576001600060016101000a81548160ff02191690831515021790555060016000806101000a81548160ff0219169083151502179055505b61085f61240b565b61086761246c565b83609760006101000a81548173ffffffffffffffffffffffffffffffffffffffff021916908373ffffffffffffffffffffffffffffffffffffffff16021790555082609860006101000a81548173ffffffffffffffffffffffffffffffffffffffff021916908373ffffffffffffffffffffffffffffffffffffffff1602179055508160a0819055506000609d60006101000a81548160ff021916908360000b60ff1602179055506000609d60016101000a81548160ff021916908360000b60ff1602179055506000609d60026101000a81548160ff021916908360000b60ff1602179055506000609d60036101000a81548160ff021916908360000b60ff160217905550801561098d5760008060016101000a81548160ff0219169083151502179055505b50505050565b60a35481565b600080609760009054906101000a900473ffffffffffffffffffffffffffffffffffffffff1673ffffffffffffffffffffffffffffffffffffffff1663e05c57bf846040518263ffffffff1660e01b81526004016109f79190613e66565b61014060405180830381865afa158015610a15573d6000803e3d6000fd5b505050506040513d601f19601f82011682018060405250810190610a3991906149b9565b909192939495969798509091929394959697509091929394959650909192939495509091929394509091929350909192509091508092508193505050915091565b60a15481565b60a960009054906101000a900460ff1681565b60a55481565b609a6020528060005260406000206000915090508060000154908060010160009054906101000a900473ffffffffffffffffffffffffffffffffffffffff16908060010160149054906101000a900469ffffffffffffffffffff16908060020160009054906101000a900469ffffffffffffffffffff16905084565b610b1d6124cd565b73ffffffffffffffffffffffffffffffffffffffff16610b3b610eaf565b73ffffffffffffffffffffffffffffffffffffffff1614610b91576040517f08c379a0000000000000000000000000000000000000000000000000000000008152600401610b8890614ae4565b60405180910390fd5b610b996124d5565b565b609f5481565b60996020528060005260406000206000915090508060000154908060010160009054906101000a900473ffffffffffffffffffffffffffffffffffffffff16908060010160149054906101000a900469ffffffffffffffffffff16908060020160009054906101000a900469ffffffffffffffffffff16905084565b609860009054906101000a900473ffffffffffffffffffffffffffffffffffffffff1681565b609c6020528160005260406000208181548110610c5f57600080fd5b9060005260206000209060109182820401919006600202915091509054906101000a900461ffff1681565b6000606560009054906101000a900460ff16905090565b60a85481565b610caf6124cd565b73ffffffffffffffffffffffffffffffffffffffff16610ccd610eaf565b73ffffffffffffffffffffffffffffffffffffffff1614610d23576040517f08c379a0000000000000000000000000000000000000000000000000000000008152600401610d1a90614ae4565b60405180910390fd5b610d2d6000612577565b565b60a25481565b600060019054906101000a900460ff16610d5d5760008054906101000a900460ff1615610d66565b610d656123fa565b5b610da5576040517f08c379a0000000000000000000000000000000000000000000000000000000008152600401610d9c9061496f565b60405180910390fd5b60008060019054906101000a900460ff161590508015610df5576001600060016101000a81548160ff02191690831515021790555060016000806101000a81548160ff0219169083151502179055505b610dfd61240b565b610e0561246c565b8015610e265760008060016101000a81548160ff0219169083151502179055505b50565b610e316124cd565b73ffffffffffffffffffffffffffffffffffffffff16610e4f610eaf565b73ffffffffffffffffffffffffffffffffffffffff1614610ea5576040517f08c379a0000000000000000000000000000000000000000000000000000000008152600401610e9c90614ae4565b60405180910390fd5b610ead61263d565b565b6000603360009054906101000a900473ffffffffffffffffffffffffffffffffffffffff16905090565b60a45481565b610ee7610c8a565b15610f27576040517f08c379a0000000000000000000000000000000000000000000000000000000008152600401610f1e90614b50565b60405180910390fd5b609860009054906101000a900473ffffffffffffffffffffffffffffffffffffffff1673ffffffffffffffffffffffffffffffffffffffff163373ffffffffffffffffffffffffffffffffffffffff1614610fb7576040517f08c379a0000000000000000000000000000000000000000000000000000000008152600401610fae90614bbc565b60405180910390fd5b6000609c6000846000015181526020019081526020016000208054905011611014576040517f08c379a000000000000000000000000000000000000000000000000000000000815260040161100b90614c28565b60405180910390fd5b6000609c60008460000151815260200190815260200160002080548060200260200160405190810160405280929190818152602001828054801561109f57602002820191906000526020600020906000905b82829054906101000a900461ffff1661ffff16815260200190600201906020826001010492830192600103820291508084116110665790505b50505050509050609c60008460000151815260200190815260200160002060006110c99190613abb565b6000805b825181101561142c5760006110e7866040015160006126e0565b90506111108483815181106110ff576110fe614c48565b5b602002602001015161ffff16612221565b156111645761115284838151811061112b5761112a614c48565b5b602002602001015161ffff16876040015183158061114a575088608001515b8415896126ec565b8361115d9190614ca6565b92506111af565b6111a184838151811061117a57611179614c48565b5b602002602001015161ffff168760400151831580611199575088608001515b841589612b96565b836111ac9190614ca6565b92505b60005b609b6000886040015173ffffffffffffffffffffffffffffffffffffffff1673ffffffffffffffffffffffffffffffffffffffff168152602001908152602001600020805490508110156114175784838151811061121357611212614c48565b5b602002602001015161ffff16609b6000896040015173ffffffffffffffffffffffffffffffffffffffff1673ffffffffffffffffffffffffffffffffffffffff168152602001908152602001600020828154811061127457611273614c48565b5b9060005260206000200154141561140457609b6000886040015173ffffffffffffffffffffffffffffffffffffffff1673ffffffffffffffffffffffffffffffffffffffff1681526020019081526020016000206001609b60008a6040015173ffffffffffffffffffffffffffffffffffffffff1673ffffffffffffffffffffffffffffffffffffffff1681526020019081526020016000208054905061131b9190614cfc565b8154811061132c5761132b614c48565b5b9060005260206000200154609b6000896040015173ffffffffffffffffffffffffffffffffffffffff1673ffffffffffffffffffffffffffffffffffffffff168152602001908152602001600020828154811061138c5761138b614c48565b5b9060005260206000200181905550609b6000886040015173ffffffffffffffffffffffffffffffffffffffff1673ffffffffffffffffffffffffffffffffffffffff1681526020019081526020016000208054806113ed576113ec614d30565b5b600190038181906000526020600020016000905590555b808061140f90614d5f565b9150506111b2565b5050808061142490614d5f565b9150506110cd565b50600081111561144557611444846040015182613043565b5b50505050565b609d60029054906101000a900460000b81565b611466610c8a565b156114a6576040517f08c379a000000000000000000000000000000000000000000000000000000000815260040161149d90614b50565b60405180910390fd5b60005b8383905081101561173a5760006114ea8585848181106114cc576114cb614c48565b5b90506020020160208101906114e19190614da8565b61ffff16612221565b61153157609a600086868581811061150557611504614c48565b5b905060200201602081019061151a9190614da8565b61ffff168152602001908152602001600020611570565b6099600086868581811061154857611547614c48565b5b905060200201602081019061155d9190614da8565b61ffff1681526020019081526020016000205b604051806080016040529081600082015481526020016001820160009054906101000a900473ffffffffffffffffffffffffffffffffffffffff1673ffffffffffffffffffffffffffffffffffffffff1673ffffffffffffffffffffffffffffffffffffffff1681526020016001820160149054906101000a900469ffffffffffffffffffff1669ffffffffffffffffffff1669ffffffffffffffffffff1681526020016002820160009054906101000a900469ffffffffffffffffffff1669ffffffffffffffffffff1669ffffffffffffffffffff168152505090506116556124cd565b73ffffffffffffffffffffffffffffffffffffffff16816020015173ffffffffffffffffffffffffffffffffffffffff16146116c6576040517f08c379a00000000000000000000000000000000000000000000000000000000081526004016116bd90614e21565b60405180910390fd5b60a254816060015169ffffffffffffffffffff16426116e59190614cfc565b1015611726576040517f08c379a000000000000000000000000000000000000000000000000000000000815260040161171d90614e8d565b60405180910390fd5b50808061173290614d5f565b9150506114a9565b506000609860009054906101000a900473ffffffffffffffffffffffffffffffffffffffff1673ffffffffffffffffffffffffffffffffffffffff16635bdf263c6117836124cd565b8686866040518563ffffffff1660e01b81526004016117a59493929190614f70565b6020604051808303816000875af11580156117c4573d6000803e3d6000fd5b505050506040513d601f19601f820116820180604052508101906117e89190614fc5565b90508383609c6000848152602001908152602001600020919061180c929190613ae3565b5050505050565b609d60019054906101000a900460000b81565b60a65481565b600060019054906101000a900460ff166118545760008054906101000a900460ff161561185d565b61185c6123fa565b5b61189c576040517f08c379a00000000000000000000000000000000000000000000000000000000081526004016118939061496f565b60405180910390fd5b60008060019054906101000a900460ff1615905080156118ec576001600060016101000a81548160ff02191690831515021790555060016000806101000a81548160ff0219169083151502179055505b6118f461240b565b6118fc61246c565b600060a681905550600060a181905550600060a88190555083609760006101000a81548173ffffffffffffffffffffffffffffffffffffffff021916908373ffffffffffffffffffffffffffffffffffffffff16021790555082609860006101000a81548173ffffffffffffffffffffffffffffffffffffffff021916908373ffffffffffffffffffffffffffffffffffffffff1602179055508160ac60006101000a81548173ffffffffffffffffffffffffffffffffffffffff021916908373ffffffffffffffffffffffffffffffffffffffff16021790555080156119f85760008060016101000a81548160ff0219169083151502179055505b50505050565b609b6020528160005260406000208181548110611a1a57600080fd5b90600052602060002001600091509150505481565b609d60039054906101000a900460000b81565b611a4a6124cd565b73ffffffffffffffffffffffffffffffffffffffff16611a68610eaf565b73ffffffffffffffffffffffffffffffffffffffff1614611abe576040517f08c379a0000000000000000000000000000000000000000000000000000000008152600401611ab590614ae4565b60405180910390fd5b670de0b6b3a764000086611ad29190614ff2565b60a381905550670de0b6b3a764000085600081518110611af557611af4614c48565b5b6020026020010151611b079190614ff2565b60a48190555084600181518110611b2157611b20614c48565b5b602002602001015160a58190555084600281518110611b4357611b42614c48565b5b602002602001015160a28190555084600381518110611b6557611b64614c48565b5b602002602001015160a08190555083600081518110611b8757611b86614c48565b5b6020026020010151609d60006101000a81548160ff021916908360000b60ff16021790555083600181518110611bc057611bbf614c48565b5b6020026020010151609d60016101000a81548160ff021916908360000b60ff16021790555083600281518110611bf957611bf8614c48565b5b6020026020010151609d60026101000a81548160ff021916908360000b60ff16021790555083600381518110611c3257611c31614c48565b5b6020026020010151609d60036101000a81548160ff021916908360000b60ff1602179055508260a960006101000a81548160ff021916908360ff1602179055508160aa819055508060ab81905550505050505050565b60ab5481565b60a75481565b611c9c6124cd565b73ffffffffffffffffffffffffffffffffffffffff168373ffffffffffffffffffffffffffffffffffffffff161480611d295750609760009054906101000a900473ffffffffffffffffffffffffffffffffffffffff1673ffffffffffffffffffffffffffffffffffffffff16611d116124cd565b73ffffffffffffffffffffffffffffffffffffffff16145b611d68576040517f08c379a0000000000000000000000000000000000000000000000000000000008152600401611d5f90615098565b60405180910390fd5b611d7c611d736124cd565b838390506126e0565b611dbb576040517f08c379a0000000000000000000000000000000000000000000000000000000008152600401611db290615104565b60405180910390fd5b60005b8282905081101561221b57609760009054906101000a900473ffffffffffffffffffffffffffffffffffffffff1673ffffffffffffffffffffffffffffffffffffffff16611e0a6124cd565b73ffffffffffffffffffffffffffffffffffffffff161461202057611e2d6124cd565b73ffffffffffffffffffffffffffffffffffffffff16609760009054906101000a900473ffffffffffffffffffffffffffffffffffffffff1673ffffffffffffffffffffffffffffffffffffffff16636352211e858585818110611e9457611e93614c48565b5b9050602002016020810190611ea99190614da8565b6040518263ffffffff1660e01b8152600401611ec59190615155565b602060405180830381865afa158015611ee2573d6000803e3d6000fd5b505050506040513d601f19601f82011682018060405250810190611f069190615185565b73ffffffffffffffffffffffffffffffffffffffff1614611f5c576040517f08c379a0000000000000000000000000000000000000000000000000000000008152600401611f5390614e21565b60405180910390fd5b609760009054906101000a900473ffffffffffffffffffffffffffffffffffffffff1673ffffffffffffffffffffffffffffffffffffffff166323b872dd611fa26124cd565b30868686818110611fb657611fb5614c48565b5b9050602002016020810190611fcb9190614da8565b6040518463ffffffff1660e01b8152600401611fe9939291906151b2565b600060405180830381600087803b15801561200357600080fd5b505af1158015612017573d6000803e3d6000fd5b5050505061205a565b600083838381811061203557612034614c48565b5b905060200201602081019061204a9190614da8565b61ffff16141561205957612208565b5b61208e8383838181106120705761206f614c48565b5b90506020020160208101906120859190614da8565b61ffff166130d6565b6120cd576040517f08c379a00000000000000000000000000000000000000000000000000000000081526004016120c490615235565b60405180910390fd5b6121018383838181106120e3576120e2614c48565b5b90506020020160208101906120f89190614da8565b61ffff16612221565b156121405761213b8484848481811061211d5761211c614c48565b5b90506020020160208101906121329190614da8565b61ffff166130e1565b612176565b6121758484848481811061215757612156614c48565b5b905060200201602081019061216c9190614da8565b61ffff166132a0565b5b609b60008573ffffffffffffffffffffffffffffffffffffffff1673ffffffffffffffffffffffffffffffffffffffff1681526020019081526020016000208383838181106121c8576121c7614c48565b5b90506020020160208101906121dd9190614da8565b908060018154018082558091505060019003906000526020600020016000909161ffff169091909150555b808061221390614d5f565b915050611dbe565b50505050565b6000609760009054906101000a900473ffffffffffffffffffffffffffffffffffffffff1673ffffffffffffffffffffffffffffffffffffffff1663e05c57bf836040518263ffffffff1660e01b815260040161227e9190613e66565b61014060405180830381865afa15801561229c573d6000803e3d6000fd5b505050506040513d601f19601f820116820180604052508101906122c091906149b9565b90919293949596975090919293949596509091929394955090919293945090919293509091925090915090505080915050919050565b609e5481565b6123046124cd565b73ffffffffffffffffffffffffffffffffffffffff16612322610eaf565b73ffffffffffffffffffffffffffffffffffffffff1614612378576040517f08c379a000000000000000000000000000000000000000000000000000000000815260040161236f90614ae4565b60405180910390fd5b600073ffffffffffffffffffffffffffffffffffffffff168173ffffffffffffffffffffffffffffffffffffffff1614156123e8576040517f08c379a00000000000000000000000000000000000000000000000000000000081526004016123df906152c7565b60405180910390fd5b6123f181612577565b50565b60a05481565b600061240530613468565b15905090565b600060019054906101000a900460ff1661245a576040517f08c379a000000000000000000000000000000000000000000000000000000000815260040161245190615359565b60405180910390fd5b61246261347b565b61246a6134cc565b565b600060019054906101000a900460ff166124bb576040517f08c379a00000000000000000000000000000000000000000000000000000000081526004016124b290615359565b60405180910390fd5b6124c361347b565b6124cb61352d565b565b600033905090565b6124dd610c8a565b61251c576040517f08c379a0000000000000000000000000000000000000000000000000000000008152600401612513906153c5565b60405180910390fd5b6000606560006101000a81548160ff0219169083151502179055507f5db9ee0a495bf2e6ff9c91a7834c1ba4fdd244a5e8aa4e537bd38aeae4b073aa6125606124cd565b60405161256d91906140e5565b60405180910390a1565b6000603360009054906101000a900473ffffffffffffffffffffffffffffffffffffffff16905081603360006101000a81548173ffffffffffffffffffffffffffffffffffffffff021916908373ffffffffffffffffffffffffffffffffffffffff1602179055508173ffffffffffffffffffffffffffffffffffffffff168173ffffffffffffffffffffffffffffffffffffffff167f8be0079c531659141344cd1fd0a4f28419497f9722a3daafe3b4186f6b6457e060405160405180910390a35050565b612645610c8a565b15612685576040517f08c379a000000000000000000000000000000000000000000000000000000000815260040161267c90614b50565b60405180910390fd5b6001606560006101000a81548160ff0219169083151502179055507f62e78cea01bee320cd4e420270b5ea74000d11b0c9f74754ebdbfc544b05a2586126c96124cd565b6040516126d691906140e5565b60405180910390a1565b60006001905092915050565b60008060996000888152602001908152602001600020604051806080016040529081600082015481526020016001820160009054906101000a900473ffffffffffffffffffffffffffffffffffffffff1673ffffffffffffffffffffffffffffffffffffffff1673ffffffffffffffffffffffffffffffffffffffff1681526020016001820160149054906101000a900469ffffffffffffffffffff1669ffffffffffffffffffff1669ffffffffffffffffffff1681526020016002820160009054906101000a900469ffffffffffffffffffff1669ffffffffffffffffffff1669ffffffffffffffffffff168152505090508573ffffffffffffffffffffffffffffffffffffffff16816020015173ffffffffffffffffffffffffffffffffffffffff1614612851576040517f08c379a000000000000000000000000000000000000000000000000000000000815260040161284890614e21565b60405180910390fd5b60a254816060015169ffffffffffffffffffff16426128709190614cfc565b10156128b1576040517f08c379a00000000000000000000000000000000000000000000000000000000081526004016128a890614e8d565b60405180910390fd5b836128c4576128bf81613599565b6128c7565b60005b915060008060006128d88a876136e7565b9250925092506128e78a6130d6565b6128f057600197505b8715612a2357609760009054906101000a900473ffffffffffffffffffffffffffffffffffffffff1673ffffffffffffffffffffffffffffffffffffffff1663b88d4fde308b8d6040518463ffffffff1660e01b81526004016129559392919061541c565b600060405180830381600087803b15801561296f57600080fd5b505af1158015612983573d6000803e3d6000fd5b50505050609960008b81526020019081526020016000206000808201600090556001820160006101000a81549073ffffffffffffffffffffffffffffffffffffffff02191690556001820160146101000a81549069ffffffffffffffffffff02191690556002820160006101000a81549069ffffffffffffffffffff02191690555050609e6000815480929190612a1990615466565b9190505550612b44565b60405180608001604052808b61ffff1681526020018a73ffffffffffffffffffffffffffffffffffffffff1681526020014269ffffffffffffffffffff1681526020014269ffffffffffffffffffff16815250609960008c81526020019081526020016000206000820151816000015560208201518160010160006101000a81548173ffffffffffffffffffffffffffffffffffffffff021916908373ffffffffffffffffffffffffffffffffffffffff16021790555060408201518160010160146101000a81548169ffffffffffffffffffff021916908369ffffffffffffffffffff16021790555060608201518160020160006101000a81548169ffffffffffffffffffff021916908369ffffffffffffffffffff1602179055509050505b7f9b394c66bc4fdb2f56f5842a796076e6552d6f15eaacb6e63e3c53b474d872e98a868a86868660a154604051612b819796959493929190615507565b60405180910390a15050505095945050505050565b600080609a6000888152602001908152602001600020604051806080016040529081600082015481526020016001820160009054906101000a900473ffffffffffffffffffffffffffffffffffffffff1673ffffffffffffffffffffffffffffffffffffffff1673ffffffffffffffffffffffffffffffffffffffff1681526020016001820160149054906101000a900469ffffffffffffffffffff1669ffffffffffffffffffff1669ffffffffffffffffffff1681526020016002820160009054906101000a900469ffffffffffffffffffff1669ffffffffffffffffffff1669ffffffffffffffffffff168152505090508573ffffffffffffffffffffffffffffffffffffffff16816020015173ffffffffffffffffffffffffffffffffffffffff1614612cfb576040517f08c379a0000000000000000000000000000000000000000000000000000000008152600401612cf290614e21565b60405180910390fd5b60a254816060015169ffffffffffffffffffff1642612d1a9190614cfc565b1015612d5b576040517f08c379a0000000000000000000000000000000000000000000000000000000008152600401612d5290614e8d565b60405180910390fd5b83612d6e57612d69816138a5565b612d71565b60005b91506000806000612d828a876136e7565b925092509250612d918a6130d6565b612d9a57600197505b8715612ecd57609760009054906101000a900473ffffffffffffffffffffffffffffffffffffffff1673ffffffffffffffffffffffffffffffffffffffff1663b88d4fde308b8d6040518463ffffffff1660e01b8152600401612dff9392919061541c565b600060405180830381600087803b158015612e1957600080fd5b505af1158015612e2d573d6000803e3d6000fd5b50505050609a60008b81526020019081526020016000206000808201600090556001820160006101000a81549073ffffffffffffffffffffffffffffffffffffffff02191690556001820160146101000a81549069ffffffffffffffffffff02191690556002820160006101000a81549069ffffffffffffffffffff02191690555050609f6000815480929190612ec390615466565b9190505550612ff5565b60405180608001604052808b61ffff1681526020018a73ffffffffffffffffffffffffffffffffffffffff168152602001612f066139b9565b69ffffffffffffffffffff1681526020014269ffffffffffffffffffff16815250609a60008c81526020019081526020016000206000820151816000015560208201518160010160006101000a81548173ffffffffffffffffffffffffffffffffffffffff021916908373ffffffffffffffffffffffffffffffffffffffff16021790555060408201518160010160146101000a81548169ffffffffffffffffffff021916908369ffffffffffffffffffff16021790555060608201518160020160006101000a81548169ffffffffffffffffffff021916908369ffffffffffffffffffff1602179055509050505b7f6e949c62565860afb9dd6295e998a1c40005fe9560aedf8d596717681cfc7a1f8a868a86868660405161302e9695949392919061557d565b60405180910390a15050505095945050505050565b60ac60009054906101000a900473ffffffffffffffffffffffffffffffffffffffff1673ffffffffffffffffffffffffffffffffffffffff166340c10f1983836040518363ffffffff1660e01b81526004016130a09291906155e5565b600060405180830381600087803b1580156130ba57600080fd5b505af11580156130ce573d6000803e3d6000fd5b505050505050565b600060019050919050565b6130e9610c8a565b15613129576040517f08c379a000000000000000000000000000000000000000000000000000000000815260040161312090614b50565b60405180910390fd5b60405180608001604052808261ffff1681526020018373ffffffffffffffffffffffffffffffffffffffff1681526020014269ffffffffffffffffffff1681526020014269ffffffffffffffffffff16815250609960008381526020019081526020016000206000820151816000015560208201518160010160006101000a81548173ffffffffffffffffffffffffffffffffffffffff021916908373ffffffffffffffffffffffffffffffffffffffff16021790555060408201518160010160146101000a81548169ffffffffffffffffffff021916908369ffffffffffffffffffff16021790555060608201518160020160006101000a81548169ffffffffffffffffffff021916908369ffffffffffffffffffff160217905550905050609e600081548092919061325c90614d5f565b91905055507f8af1bb49fb16c7835975aa59449ba4328dd54737dfb2ae9fa6c5eca71fda51f98183426040516132949392919061560e565b60405180910390a15050565b6132a8610c8a565b156132e8576040517f08c379a00000000000000000000000000000000000000000000000000000000081526004016132df90614b50565b60405180910390fd5b60405180608001604052808261ffff1681526020018373ffffffffffffffffffffffffffffffffffffffff1681526020016133216139b9565b69ffffffffffffffffffff1681526020014269ffffffffffffffffffff16815250609a60008381526020019081526020016000206000820151816000015560208201518160010160006101000a81548173ffffffffffffffffffffffffffffffffffffffff021916908373ffffffffffffffffffffffffffffffffffffffff16021790555060408201518160010160146101000a81548169ffffffffffffffffffff021916908369ffffffffffffffffffff16021790555060608201518160020160006101000a81548169ffffffffffffffffffff021916908369ffffffffffffffffffff160217905550905050609f600081548092919061342290614d5f565b91905055507f8af1bb49fb16c7835975aa59449ba4328dd54737dfb2ae9fa6c5eca71fda51f9818360a15460405161345c9392919061560e565b60405180910390a15050565b600080823b905060008111915050919050565b600060019054906101000a900460ff166134ca576040517f08c379a00000000000000000000000000000000000000000000000000000000081526004016134c190615359565b60405180910390fd5b565b600060019054906101000a900460ff1661351b576040517f08c379a000000000000000000000000000000000000000000000000000000000815260040161351290615359565b60405180910390fd5b61352b6135266124cd565b612577565b565b600060019054906101000a900460ff1661357c576040517f08c379a000000000000000000000000000000000000000000000000000000000815260040161357390615359565b60405180910390fd5b6000606560006101000a81548160ff021916908315150217905550565b6000806135a98360000151610999565b509050600060a054846040015169ffffffffffffffffffff16426135cd9190614cfc565b60a4546135da9190614ff2565b6135e49190615674565b90506000600a60a960009054906101000a900460ff1660ff168460ff1661360b9190614ff2565b6136159190614ff2565b620186a06136239190614ca6565b9050620186a081836136359190614ff2565b61363f9190615674565b935060a3548460a7546136529190614ca6565b111561366b5760a75460a3546136689190614cfc565b93505b60008411156136df574260a88190555061369d606460a5548661368e9190614ff2565b6136989190615674565b6139c3565b606460a55460646136ae9190614cfc565b856136b99190614ff2565b6136c39190615674565b93508360a760008282546136d79190614ca6565b925050819055505b505050919050565b600080606060006136f786612221565b61372d57609a600087815260200190815260200160002060020160009054906101000a900469ffffffffffffffffffff1661375b565b6099600087815260200190815260200160002060020160009054906101000a900469ffffffffffffffffffff165b69ffffffffffffffffffff16426137729190614cfc565b9050600061377f87612221565b9050609760009054906101000a900473ffffffffffffffffffffffffffffffffffffffff1673ffffffffffffffffffffffffffffffffffffffff166363dbfc77886137f4846137dd57609d60029054906101000a900460000b6137ee565b609d60009054906101000a900460000b5b86613a2b565b6138288561381157609d60039054906101000a900460000b613822565b609d60019054906101000a900460000b5b87613a2b565b8a6040518563ffffffff1660e01b815260040161384894939291906156a5565b6000604051808303816000875af1158015613867573d6000803e3d6000fd5b505050506040513d6000823e3d601f19601f820116820180604052508101906138909190615790565b80955081965082975050505050509250925092565b6000806138b58360000151610999565b9150506000836040015169ffffffffffffffffffff1660a1546138d89190614cfc565b905060006103e860ab546138ec91906157ff565b60646103e860aa5460328760ff1611156139125786606461390d9190615916565b613914565b865b60000b61392191906157ff565b61392b91906157ff565b613935919061594a565b61393f91906159b4565b9050620186a081836139519190614ff2565b61395b9190615674565b935060a3548460a75461396e9190614ca6565b11156139875760a75460a3546139849190614cfc565b93505b60008411156139b1574260a8819055508360a760008282546139a99190614ca6565b925050819055505b505050919050565b600060a154905090565b6000609f5414156139ec578060a660008282546139e09190614ca6565b92505081905550613a28565b609f5460a654826139fd9190614ca6565b613a079190615674565b60a16000828254613a189190614ca6565b92505081905550600060a6819055505b50565b60008060a0548460000b84613a4091906157ff565b613a4a919061594a565b90506064811315613a5f576064915050613ab5565b7fffffffffffffffffffffffffffffffffffffffffffffffffffffffffffffff9c811215613ab0577fffffffffffffffffffffffffffffffffffffffffffffffffffffffffffffff9c915050613ab5565b809150505b92915050565b50805460008255600f016010900490600052602060002090810190613ae09190613b91565b50565b82805482825590600052602060002090600f01601090048101928215613b805791602002820160005b83821115613b5057833561ffff1683826101000a81548161ffff021916908361ffff1602179055509260200192600201602081600101049283019260010302613b0c565b8015613b7e5782816101000a81549061ffff0219169055600201602081600101049283019260010302613b50565b505b509050613b8d9190613b91565b5090565b5b80821115613baa576000816000905550600101613b92565b5090565b60008160000b9050919050565b613bc481613bae565b82525050565b6000602082019050613bdf6000830184613bbb565b92915050565b6000819050919050565b613bf881613be5565b82525050565b6000602082019050613c136000830184613bef565b92915050565b6000604051905090565b600080fd5b600080fd5b600073ffffffffffffffffffffffffffffffffffffffff82169050919050565b6000613c5882613c2d565b9050919050565b613c6881613c4d565b8114613c7357600080fd5b50565b600081359050613c8581613c5f565b92915050565b6000819050919050565b613c9e81613c8b565b8114613ca957600080fd5b50565b600081359050613cbb81613c95565b92915050565b600080fd5b600080fd5b600080fd5b60008083601f840112613ce657613ce5613cc1565b5b8235905067ffffffffffffffff811115613d0357613d02613cc6565b5b602083019150836001820283011115613d1f57613d1e613ccb565b5b9250929050565b600080600080600060808688031215613d4257613d41613c23565b5b6000613d5088828901613c76565b9550506020613d6188828901613c76565b9450506040613d7288828901613cac565b935050606086013567ffffffffffffffff811115613d9357613d92613c28565b5b613d9f88828901613cd0565b92509250509295509295909350565b60007fffffffff0000000000000000000000000000000000000000000000000000000082169050919050565b613de381613dae565b82525050565b6000602082019050613dfe6000830184613dda565b92915050565b600080600060608486031215613e1d57613e1c613c23565b5b6000613e2b86828701613c76565b9350506020613e3c86828701613c76565b9250506040613e4d86828701613cac565b9150509250925092565b613e6081613c8b565b82525050565b6000602082019050613e7b6000830184613e57565b92915050565b600060208284031215613e9757613e96613c23565b5b6000613ea584828501613cac565b91505092915050565b600060ff82169050919050565b613ec481613eae565b82525050565b6000604082019050613edf6000830185613ebb565b613eec6020830184613ebb565b9392505050565b6000602082019050613f086000830184613ebb565b92915050565b613f1781613c4d565b82525050565b600069ffffffffffffffffffff82169050919050565b613f3c81613f1d565b82525050565b6000608082019050613f576000830187613e57565b613f646020830186613f0e565b613f716040830185613f33565b613f7e6060830184613f33565b95945050505050565b6000819050919050565b6000613fac613fa7613fa284613c2d565b613f87565b613c2d565b9050919050565b6000613fbe82613f91565b9050919050565b6000613fd082613fb3565b9050919050565b613fe081613fc5565b82525050565b6000602082019050613ffb6000830184613fd7565b92915050565b6000819050919050565b61401481614001565b811461401f57600080fd5b50565b6000813590506140318161400b565b92915050565b6000806040838503121561404e5761404d613c23565b5b600061405c85828601614022565b925050602061406d85828601613cac565b9150509250929050565b600061ffff82169050919050565b61408e81614077565b82525050565b60006020820190506140a96000830184614085565b92915050565b60008115159050919050565b6140c4816140af565b82525050565b60006020820190506140df60008301846140bb565b92915050565b60006020820190506140fa6000830184613f0e565b92915050565b600080fd5b6000601f19601f8301169050919050565b7f4e487b7100000000000000000000000000000000000000000000000000000000600052604160045260246000fd5b61414e82614105565b810181811067ffffffffffffffff8211171561416d5761416c614116565b5b80604052505050565b6000614180613c19565b905061418c8282614145565b919050565b600080fd5b600067ffffffffffffffff8211156141b1576141b0614116565b5b602082029050602081019050919050565b6141cb81614077565b81146141d657600080fd5b50565b6000813590506141e8816141c2565b92915050565b60006142016141fc84614196565b614176565b9050808382526020820190506020840283018581111561422457614223613ccb565b5b835b8181101561424d578061423988826141d9565b845260208401935050602081019050614226565b5050509392505050565b600082601f83011261426c5761426b613cc1565b5b813561427c8482602086016141ee565b91505092915050565b61428e816140af565b811461429957600080fd5b50565b6000813590506142ab81614285565b92915050565b600060a082840312156142c7576142c6614100565b5b6142d160a0614176565b905060006142e184828501614022565b60008301525060206142f584828501613c76565b602083015250604061430984828501613c76565b604083015250606082013567ffffffffffffffff81111561432d5761432c614191565b5b61433984828501614257565b606083015250608061434d8482850161429c565b60808301525092915050565b600080604083850312156143705761436f613c23565b5b600083013567ffffffffffffffff81111561438e5761438d613c28565b5b61439a858286016142b1565b92505060206143ab85828601613cac565b9150509250929050565b60008083601f8401126143cb576143ca613cc1565b5b8235905067ffffffffffffffff8111156143e8576143e7613cc6565b5b60208301915083602082028301111561440457614403613ccb565b5b9250929050565b60008060006040848603121561442457614423613c23565b5b600084013567ffffffffffffffff81111561444257614441613c28565b5b61444e868287016143b5565b935093505060206144618682870161429c565b9150509250925092565b60008060006060848603121561448457614483613c23565b5b600061449286828701613c76565b93505060206144a386828701613c76565b92505060406144b486828701613c76565b9150509250925092565b600080604083850312156144d5576144d4613c23565b5b60006144e385828601613c76565b92505060206144f485828601613cac565b9150509250929050565b600067ffffffffffffffff82111561451957614518614116565b5b602082029050602081019050919050565b600061453d614538846144fe565b614176565b905080838252602082019050602084028301858111156145605761455f613ccb565b5b835b8181101561458957806145758882613cac565b845260208401935050602081019050614562565b5050509392505050565b600082601f8301126145a8576145a7613cc1565b5b81356145b884826020860161452a565b91505092915050565b600067ffffffffffffffff8211156145dc576145db614116565b5b602082029050602081019050919050565b6145f681613bae565b811461460157600080fd5b50565b600081359050614613816145ed565b92915050565b600061462c614627846145c1565b614176565b9050808382526020820190506020840283018581111561464f5761464e613ccb565b5b835b8181101561467857806146648882614604565b845260208401935050602081019050614651565b5050509392505050565b600082601f83011261469757614696613cc1565b5b81356146a7848260208601614619565b91505092915050565b6146b981613eae565b81146146c457600080fd5b50565b6000813590506146d6816146b0565b92915050565b6146e581613be5565b81146146f057600080fd5b50565b600081359050614702816146dc565b92915050565b60008060008060008060c0878903121561472557614724613c23565b5b600061473389828a01613cac565b965050602087013567ffffffffffffffff81111561475457614753613c28565b5b61476089828a01614593565b955050604087013567ffffffffffffffff81111561478157614780613c28565b5b61478d89828a01614682565b945050606061479e89828a016146c7565b93505060806147af89828a016146f3565b92505060a06147c089828a016146f3565b9150509295509295509295565b6000806000604084860312156147e6576147e5613c23565b5b60006147f486828701613c76565b935050602084013567ffffffffffffffff81111561481557614814613c28565b5b614821868287016143b5565b92509250509250925092565b60006020828403121561484357614842613c23565b5b600061485184828501613c76565b91505092915050565b600082825260208201905092915050565b7f43616e6e6f742073656e6420746f6b656e7320746f2056656e7565206469726560008201527f63746c7900000000000000000000000000000000000000000000000000000000602082015250565b60006148c760248361485a565b91506148d28261486b565b604082019050919050565b600060208201905081810360008301526148f6816148ba565b9050919050565b7f496e697469616c697a61626c653a20636f6e747261637420697320616c72656160008201527f647920696e697469616c697a6564000000000000000000000000000000000000602082015250565b6000614959602e8361485a565b9150614964826148fd565b604082019050919050565b600060208201905081810360008301526149888161494c565b9050919050565b60008151905061499e81614285565b92915050565b6000815190506149b3816146b0565b92915050565b6000806000806000806000806000806101408b8d0312156149dd576149dc613c23565b5b60006149eb8d828e0161498f565b9a505060206149fc8d828e016149a4565b9950506040614a0d8d828e016149a4565b9850506060614a1e8d828e016149a4565b9750506080614a2f8d828e016149a4565b96505060a0614a408d828e016149a4565b95505060c0614a518d828e016149a4565b94505060e0614a628d828e016149a4565b935050610100614a748d828e016149a4565b925050610120614a868d828e016149a4565b9150509295989b9194979a5092959850565b7f4f776e61626c653a2063616c6c6572206973206e6f7420746865206f776e6572600082015250565b6000614ace60208361485a565b9150614ad982614a98565b602082019050919050565b60006020820190508181036000830152614afd81614ac1565b9050919050565b7f5061757361626c653a2070617573656400000000000000000000000000000000600082015250565b6000614b3a60108361485a565b9150614b4582614b04565b602082019050919050565b60006020820190508181036000830152614b6981614b2d565b9050919050565b7f4f6e6c7920436c61696d2063616e2066756c66696c6c00000000000000000000600082015250565b6000614ba660168361485a565b9150614bb182614b70565b602082019050919050565b60006020820190508181036000830152614bd581614b99565b9050919050565b7f436c61696d2072657175657374206e6f7420666f756e64000000000000000000600082015250565b6000614c1260178361485a565b9150614c1d82614bdc565b602082019050919050565b60006020820190508181036000830152614c4181614c05565b9050919050565b7f4e487b7100000000000000000000000000000000000000000000000000000000600052603260045260246000fd5b7f4e487b7100000000000000000000000000000000000000000000000000000000600052601160045260246000fd5b6000614cb182613c8b565b9150614cbc83613c8b565b9250827fffffffffffffffffffffffffffffffffffffffffffffffffffffffffffffffff03821115614cf157614cf0614c77565b5b828201905092915050565b6000614d0782613c8b565b9150614d1283613c8b565b925082821015614d2557614d24614c77565b5b828203905092915050565b7f4e487b7100000000000000000000000000000000000000000000000000000000600052603160045260246000fd5b6000614d6a82613c8b565b91507fffffffffffffffffffffffffffffffffffffffffffffffffffffffffffffffff821415614d9d57614d9c614c77565b5b600182019050919050565b600060208284031215614dbe57614dbd613c23565b5b6000614dcc848285016141d9565b91505092915050565b7f4e6f7420796f757220746f6b656e000000000000000000000000000000000000600082015250565b6000614e0b600e8361485a565b9150614e1682614dd5565b602082019050919050565b60006020820190508181036000830152614e3a81614dfe565b9050919050565b7f43616e6e6f7420636c61696d206265666f726520454f42000000000000000000600082015250565b6000614e7760178361485a565b9150614e8282614e41565b602082019050919050565b60006020820190508181036000830152614ea681614e6a565b9050919050565b600082825260208201905092915050565b6000819050919050565b614ed181614077565b82525050565b6000614ee38383614ec8565b60208301905092915050565b6000614efe60208401846141d9565b905092915050565b6000602082019050919050565b6000614f1f8385614ead565b9350614f2a82614ebe565b8060005b85811015614f6357614f408284614eef565b614f4a8882614ed7565b9750614f5583614f06565b925050600181019050614f2e565b5085925050509392505050565b6000606082019050614f856000830187613f0e565b8181036020830152614f98818587614f13565b9050614fa760408301846140bb565b95945050505050565b600081519050614fbf8161400b565b92915050565b600060208284031215614fdb57614fda613c23565b5b6000614fe984828501614fb0565b91505092915050565b6000614ffd82613c8b565b915061500883613c8b565b9250817fffffffffffffffffffffffffffffffffffffffffffffffffffffffffffffffff048311821515161561504157615040614c77565b5b828202905092915050565b7f446f206e6f74206c6f736520796f757220746f6b656e73000000000000000000600082015250565b600061508260178361485a565b915061508d8261504c565b602082019050919050565b600060208201905081810360008301526150b181615075565b9050919050565b7f4b69746368656e20737061636520726571756972656400000000000000000000600082015250565b60006150ee60168361485a565b91506150f9826150b8565b602082019050919050565b6000602082019050818103600083015261511d816150e1565b9050919050565b600061513f61513a61513584614077565b613f87565b613c8b565b9050919050565b61514f81615124565b82525050565b600060208201905061516a6000830184615146565b92915050565b60008151905061517f81613c5f565b92915050565b60006020828403121561519b5761519a613c23565b5b60006151a984828501615170565b91505092915050565b60006060820190506151c76000830186613f0e565b6151d46020830185613f0e565b6151e16040830184615146565b949350505050565b7f4e6f7420656c696769626c650000000000000000000000000000000000000000600082015250565b600061521f600c8361485a565b915061522a826151e9565b602082019050919050565b6000602082019050818103600083015261524e81615212565b9050919050565b7f4f776e61626c653a206e6577206f776e657220697320746865207a65726f206160008201527f6464726573730000000000000000000000000000000000000000000000000000602082015250565b60006152b160268361485a565b91506152bc82615255565b604082019050919050565b600060208201905081810360008301526152e0816152a4565b9050919050565b7f496e697469616c697a61626c653a20636f6e7472616374206973206e6f74206960008201527f6e697469616c697a696e67000000000000000000000000000000000000000000602082015250565b6000615343602b8361485a565b915061534e826152e7565b604082019050919050565b6000602082019050818103600083015261537281615336565b9050919050565b7f5061757361626c653a206e6f7420706175736564000000000000000000000000600082015250565b60006153af60148361485a565b91506153ba82615379565b602082019050919050565b600060208201905081810360008301526153de816153a2565b9050919050565b600082825260208201905092915050565b50565b60006154066000836153e5565b9150615411826153f6565b600082019050919050565b60006080820190506154316000830186613f0e565b61543e6020830185613f0e565b61544b6040830184613e57565b818103606083015261545c816153f9565b9050949350505050565b600061547182613c8b565b9150600082141561548557615484614c77565b5b600182039050919050565b600081519050919050565b60005b838110156154b957808201518184015260208101905061549e565b838111156154c8576000848401525b50505050565b60006154d982615490565b6154e3818561485a565b93506154f381856020860161549b565b6154fc81614105565b840191505092915050565b600060e08201905061551c600083018a613e57565b6155296020830189613e57565b61553660408301886140bb565b6155436060830187613ebb565b6155506080830186613ebb565b81810360a083015261556281856154ce565b905061557160c0830184613e57565b98975050505050505050565b600060c0820190506155926000830189613e57565b61559f6020830188613e57565b6155ac60408301876140bb565b6155b96060830186613ebb565b6155c66080830185613ebb565b81810360a08301526155d881846154ce565b9050979650505050505050565b60006040820190506155fa6000830185613f0e565b6156076020830184613e57565b9392505050565b60006060820190506156236000830186613e57565b6156306020830185613f0e565b61563d6040830184613e57565b949350505050565b7f4e487b7100000000000000000000000000000000000000000000000000000000600052601260045260246000fd5b600061567f82613c8b565b915061568a83613c8b565b92508261569a57615699615645565b5b828204905092915050565b60006080820190506156ba6000830187613e57565b6156c76020830186613bbb565b6156d46040830185613bbb565b6156e16060830184613e57565b95945050505050565b600080fd5b600067ffffffffffffffff82111561570a57615709614116565b5b61571382614105565b9050602081019050919050565b600061573361572e846156ef565b614176565b90508281526020810184848401111561574f5761574e6156ea565b5b61575a84828561549b565b509392505050565b600082601f83011261577757615776613cc1565b5b8151615787848260208601615720565b91505092915050565b6000806000606084860312156157a9576157a8613c23565b5b60006157b7868287016149a4565b93505060206157c8868287016149a4565b925050604084015167ffffffffffffffff8111156157e9576157e8613c28565b5b6157f586828701615762565b9150509250925092565b600061580a82613be5565b915061581583613be5565b9250827f7fffffffffffffffffffffffffffffffffffffffffffffffffffffffffffffff048211600084136000841316161561585457615853614c77565b5b817f8000000000000000000000000000000000000000000000000000000000000000058312600084126000841316161561589157615890614c77565b5b827f800000000000000000000000000000000000000000000000000000000000000005821260008413600084121616156158ce576158cd614c77565b5b827f7fffffffffffffffffffffffffffffffffffffffffffffffffffffffffffffff058212600084126000841216161561590b5761590a614c77565b5b828202905092915050565b600061592182613eae565b915061592c83613eae565b92508282101561593f5761593e614c77565b5b828203905092915050565b600061595582613be5565b915061596083613be5565b9250826159705761596f615645565b5b600160000383147f8000000000000000000000000000000000000000000000000000000000000000831416156159a9576159a8614c77565b5b828205905092915050565b60006159bf82613be5565b91506159ca83613be5565b9250817f7fffffffffffffffffffffffffffffffffffffffffffffffffffffffffffffff03831360008312151615615a0557615a04614c77565b5b817f8000000000000000000000000000000000000000000000000000000000000000038312600083121615615a3d57615a3c614c77565b5b82820190509291505056fea2646970667358221220cd25c2174e7832bd658fd17a9c68f6df4c9fb638363fc0c696d58bdded6ff22a64736f6c634300080a0033",
  "immutableReferences": {},
  "source": "// SPDX-License-Identifier: MIT\n\npragma solidity ^0.8.0;\n\nimport \"./Kitchen.sol\";\nimport \"./FastFood.sol\";\n\ncontract McStake is Kitchen {\n  FastFood foodToken; // Reference to the $FFOOD contract\n\n  function initialize(\n    address _character,\n    address _claim,\n    address _foodToken\n  ) external initializer {\n    __Ownable_init();\n    __Pausable_init();\n\n    unaccountedRewards = 0;\n    foodTokensPerRat = 0;\n    lastClaimTimestamp = 0;\n\n    character = Character(_character);\n    claim = IClaim(_claim);\n    foodToken = FastFood(_foodToken);\n  }\n\n  /**\n   * Allows DAO to update game parameters\n   */\n  function configure(\n    uint256 _foodTokenMaxSupply,\n    uint256[] memory _earningSettings, // dailyChefEarnings, ratTheftPercentage, vestingPeriod, accrualPeriod\n    int8[] memory _propertyIncrements, // dailySkillRate, dailyInsanityRate, dailyIntelligenceRate, dailyFatnessRate\n    uint8 _chefEfficiencyMultiplier,\n    int256 _ratEfficiencyMultiplier,\n    int256 _ratEfficiencyOffset\n  ) external onlyOwner {\n    foodTokenMaxSupply = _foodTokenMaxSupply * 1 ether;\n    dailyChefEarnings = _earningSettings[0] * 1 ether;\n    ratTheftPercentage = _earningSettings[1];\n    vestingPeriod = _earningSettings[2];\n    accrualPeriod = _earningSettings[3];\n    dailySkillRate = _propertyIncrements[0];\n    dailyInsanityRate = _propertyIncrements[1];\n    dailyIntelligenceRate = _propertyIncrements[2];\n    dailyFatnessRate = _propertyIncrements[3];\n    chefEfficiencyMultiplier = _chefEfficiencyMultiplier;\n    ratEfficiencyMultiplier = _ratEfficiencyMultiplier;\n    ratEfficiencyOffset = _ratEfficiencyOffset;\n  }\n\n  /**\n   * Mints the given amount of food tokens in the user's account\n   * @param sender - User wallet address\n   * @param amount - Amount of food tokens to mint\n   */\n  function _mintFoodToken(address sender, uint256 amount) internal override {\n    foodToken.mint(sender, amount);\n  }\n}\n",
  "sourcePath": "/Users/chris/workspace/ratalert/ratalert-contracts/contracts/McStake.sol",
  "compiler": {
    "name": "solc",
    "version": "0.8.10+commit.fc410830.Emscripten.clang"
  },
  "schemaVersion": "3.4.5",
  "updatedAt": "2022-03-14T18:23:02.841Z",
  "networkType": "ethereum",
  "devdoc": {
    "kind": "dev",
    "methods": {
      "claimMany(uint16[],bool)": {
        "params": {
          "tokenIds": "- The IDs of the tokens in question",
          "unstake": "- Whether or not to unstake the given tokens"
        }
      },
      "fulfillClaimMany((bytes32,address,address,uint16[],bool),uint256)": {
        "params": {
          "randomVal": "- List of random values created by VRF",
          "v": "- VRF struct for the corresponding request"
        }
      },
      "getProperties(uint256)": {
        "params": {
          "tokenId": "- The ID of the token to check"
        },
        "returns": {
          "efficiency": "& tolerance values"
        }
      },
      "isChef(uint256)": {
        "params": {
          "tokenId": "- The ID of the token to check"
        },
        "returns": {
          "chef": "- Whether or not the token is a Chef"
        }
      },
      "owner()": {
        "details": "Returns the address of the current owner."
      },
      "paused()": {
        "details": "Returns true if the contract is paused, and false otherwise."
      },
      "renounceOwnership()": {
        "details": "Leaves the contract without owner. It will not be possible to call `onlyOwner` functions anymore. Can only be called by the current owner. NOTE: Renouncing ownership will leave the contract without an owner, thereby removing any functionality that is only available to the owner."
      },
      "stakeMany(address,uint16[])": {
        "params": {
          "account": "- The address of the staker",
          "tokenIds": "- The IDs of the Chefs & Rats to stake"
        }
      },
      "transferOwnership(address)": {
        "details": "Transfers ownership of the contract to a new account (`newOwner`). Can only be called by the current owner."
      }
    },
    "version": 1
  },
  "userdoc": {
    "kind": "user",
    "methods": {
      "claimMany(uint16[],bool)": {
        "notice": "ChainLink VRF request: Claims food token earnings, level-ups and optionally unstake characters"
      },
      "configure(uint256,uint256[],int8[],uint8,int256,int256)": {
        "notice": "Allows DAO to update game parameters"
      },
      "fulfillClaimMany((bytes32,address,address,uint16[],bool),uint256)": {
        "notice": "ChainLink VRF callback for claimMany()"
      },
      "getProperties(uint256)": {
        "notice": "Get the character's properties"
      },
      "isChef(uint256)": {
        "notice": "Checks if the token is a Chef"
      },
      "stakeMany(address,uint16[])": {
        "notice": "Adds Chefs & Rats"
      }
    },
    "version": 1
  }
}