{
  "contractName": "McStake",
  "abi": [
    {
      "anonymous": false,
      "inputs": [
        {
          "indexed": false,
          "internalType": "uint256",
          "name": "tokenId",
          "type": "uint256"
        },
        {
          "indexed": false,
          "internalType": "uint256",
          "name": "earned",
          "type": "uint256"
        },
        {
          "indexed": false,
          "internalType": "bool",
          "name": "unstaked",
          "type": "bool"
        },
        {
          "indexed": false,
          "internalType": "uint8",
          "name": "skill",
          "type": "uint8"
        },
        {
          "indexed": false,
          "internalType": "uint8",
          "name": "insanity",
          "type": "uint8"
        },
        {
          "indexed": false,
          "internalType": "string",
          "name": "eventName",
          "type": "string"
        },
        {
          "indexed": false,
          "internalType": "uint256",
          "name": "foodTokensPerRat",
          "type": "uint256"
        }
      ],
      "name": "ChefClaimed",
      "type": "event"
    },
    {
      "anonymous": false,
      "inputs": [
        {
          "indexed": true,
          "internalType": "address",
          "name": "previousOwner",
          "type": "address"
        },
        {
          "indexed": true,
          "internalType": "address",
          "name": "newOwner",
          "type": "address"
        }
      ],
      "name": "OwnershipTransferred",
      "type": "event"
    },
    {
      "anonymous": false,
      "inputs": [
        {
          "indexed": false,
          "internalType": "address",
          "name": "account",
          "type": "address"
        }
      ],
      "name": "Paused",
      "type": "event"
    },
    {
      "anonymous": false,
      "inputs": [
        {
          "indexed": false,
          "internalType": "uint256",
          "name": "tokenId",
          "type": "uint256"
        },
        {
          "indexed": false,
          "internalType": "uint256",
          "name": "earned",
          "type": "uint256"
        },
        {
          "indexed": false,
          "internalType": "bool",
          "name": "unstaked",
          "type": "bool"
        },
        {
          "indexed": false,
          "internalType": "uint8",
          "name": "intelligence",
          "type": "uint8"
        },
        {
          "indexed": false,
          "internalType": "uint8",
          "name": "fatness",
          "type": "uint8"
        },
        {
          "indexed": false,
          "internalType": "string",
          "name": "eventName",
          "type": "string"
        }
      ],
      "name": "RatClaimed",
      "type": "event"
    },
    {
      "anonymous": false,
      "inputs": [
        {
          "indexed": false,
          "internalType": "uint256",
          "name": "tokenId",
          "type": "uint256"
        },
        {
          "indexed": false,
          "internalType": "address",
          "name": "owner",
          "type": "address"
        },
        {
          "indexed": false,
          "internalType": "uint256",
          "name": "value",
          "type": "uint256"
        }
      ],
      "name": "TokenStaked",
      "type": "event"
    },
    {
      "anonymous": false,
      "inputs": [
        {
          "indexed": false,
          "internalType": "address",
          "name": "account",
          "type": "address"
        }
      ],
      "name": "Unpaused",
      "type": "event"
    },
    {
      "inputs": [],
      "name": "accrualPeriod",
      "outputs": [
        {
          "internalType": "uint256",
          "name": "",
          "type": "uint256"
        }
      ],
      "stateMutability": "view",
      "type": "function",
      "constant": true
    },
    {
      "inputs": [],
      "name": "chefEfficiencyMultiplier",
      "outputs": [
        {
          "internalType": "uint8",
          "name": "",
          "type": "uint8"
        }
      ],
      "stateMutability": "view",
      "type": "function",
      "constant": true
    },
    {
      "inputs": [
        {
          "internalType": "uint256",
          "name": "",
          "type": "uint256"
        }
      ],
      "name": "chefs",
      "outputs": [
        {
          "internalType": "uint256",
          "name": "tokenId",
          "type": "uint256"
        },
        {
          "internalType": "address",
          "name": "owner",
          "type": "address"
        },
        {
          "internalType": "uint80",
          "name": "value",
          "type": "uint80"
        },
        {
          "internalType": "uint80",
          "name": "timestamp",
          "type": "uint80"
        }
      ],
      "stateMutability": "view",
      "type": "function",
      "constant": true
    },
    {
      "inputs": [],
      "name": "claim",
      "outputs": [
        {
          "internalType": "contract IClaim",
          "name": "",
          "type": "address"
        }
      ],
      "stateMutability": "view",
      "type": "function",
      "constant": true
    },
    {
      "inputs": [
        {
          "internalType": "uint16[]",
          "name": "tokenIds",
          "type": "uint16[]"
        },
        {
          "internalType": "bool",
          "name": "unstake",
          "type": "bool"
        }
      ],
      "name": "claimMany",
      "outputs": [],
      "stateMutability": "nonpayable",
      "type": "function"
    },
    {
      "inputs": [
        {
          "internalType": "bytes32",
          "name": "",
          "type": "bytes32"
        },
        {
          "internalType": "uint256",
          "name": "",
          "type": "uint256"
        }
      ],
      "name": "claimRequests",
      "outputs": [
        {
          "internalType": "uint16",
          "name": "",
          "type": "uint16"
        }
      ],
      "stateMutability": "view",
      "type": "function",
      "constant": true
    },
    {
      "inputs": [],
      "name": "dailyChefEarnings",
      "outputs": [
        {
          "internalType": "uint256",
          "name": "",
          "type": "uint256"
        }
      ],
      "stateMutability": "view",
      "type": "function",
      "constant": true
    },
    {
      "inputs": [],
      "name": "dailyFatnessRate",
      "outputs": [
        {
          "internalType": "int8",
          "name": "",
          "type": "int8"
        }
      ],
      "stateMutability": "view",
      "type": "function",
      "constant": true
    },
    {
      "inputs": [],
      "name": "dailyInsanityRate",
      "outputs": [
        {
          "internalType": "int8",
          "name": "",
          "type": "int8"
        }
      ],
      "stateMutability": "view",
      "type": "function",
      "constant": true
    },
    {
      "inputs": [],
      "name": "dailyIntelligenceRate",
      "outputs": [
        {
          "internalType": "int8",
          "name": "",
          "type": "int8"
        }
      ],
      "stateMutability": "view",
      "type": "function",
      "constant": true
    },
    {
      "inputs": [],
      "name": "dailySkillRate",
      "outputs": [
        {
          "internalType": "int8",
          "name": "",
          "type": "int8"
        }
      ],
      "stateMutability": "view",
      "type": "function",
      "constant": true
    },
    {
      "inputs": [],
      "name": "foodTokenMaxSupply",
      "outputs": [
        {
          "internalType": "uint256",
          "name": "",
          "type": "uint256"
        }
      ],
      "stateMutability": "view",
      "type": "function",
      "constant": true
    },
    {
      "inputs": [],
      "name": "foodTokensPerRat",
      "outputs": [
        {
          "internalType": "uint256",
          "name": "",
          "type": "uint256"
        }
      ],
      "stateMutability": "view",
      "type": "function",
      "constant": true
    },
    {
      "inputs": [
        {
          "components": [
            {
              "internalType": "bytes32",
              "name": "requestId",
              "type": "bytes32"
            },
            {
              "internalType": "address",
              "name": "venue",
              "type": "address"
            },
            {
              "internalType": "address",
              "name": "sender",
              "type": "address"
            },
            {
              "internalType": "uint16[]",
              "name": "tokenIds",
              "type": "uint16[]"
            },
            {
              "internalType": "bool",
              "name": "unstake",
              "type": "bool"
            }
          ],
          "internalType": "struct IClaim.VRFStruct",
          "name": "v",
          "type": "tuple"
        },
        {
          "internalType": "uint256",
          "name": "randomness",
          "type": "uint256"
        }
      ],
      "name": "fulfillClaimMany",
      "outputs": [],
      "stateMutability": "nonpayable",
      "type": "function"
    },
    {
      "inputs": [
        {
          "internalType": "uint256",
          "name": "tokenId",
          "type": "uint256"
        }
      ],
      "name": "getProperties",
      "outputs": [
        {
          "internalType": "uint8",
          "name": "efficiency",
          "type": "uint8"
        },
        {
          "internalType": "uint8",
          "name": "tolerance",
          "type": "uint8"
        }
      ],
      "stateMutability": "view",
      "type": "function",
      "constant": true
    },
    {
      "inputs": [
        {
          "internalType": "uint256",
          "name": "tokenId",
          "type": "uint256"
        }
      ],
      "name": "isChef",
      "outputs": [
        {
          "internalType": "bool",
          "name": "chef",
          "type": "bool"
        }
      ],
      "stateMutability": "view",
      "type": "function",
      "constant": true
    },
    {
      "inputs": [],
      "name": "lastClaimTimestamp",
      "outputs": [
        {
          "internalType": "uint256",
          "name": "",
          "type": "uint256"
        }
      ],
      "stateMutability": "view",
      "type": "function",
      "constant": true
    },
    {
      "inputs": [
        {
          "internalType": "address",
          "name": "",
          "type": "address"
        },
        {
          "internalType": "address",
          "name": "from",
          "type": "address"
        },
        {
          "internalType": "uint256",
          "name": "",
          "type": "uint256"
        },
        {
          "internalType": "bytes",
          "name": "",
          "type": "bytes"
        }
      ],
      "name": "onERC721Received",
      "outputs": [
        {
          "internalType": "bytes4",
          "name": "",
          "type": "bytes4"
        }
      ],
      "stateMutability": "pure",
      "type": "function",
      "constant": true
    },
    {
      "inputs": [],
      "name": "owner",
      "outputs": [
        {
          "internalType": "address",
          "name": "",
          "type": "address"
        }
      ],
      "stateMutability": "view",
      "type": "function",
      "constant": true
    },
    {
      "inputs": [],
      "name": "pause",
      "outputs": [],
      "stateMutability": "nonpayable",
      "type": "function"
    },
    {
      "inputs": [],
      "name": "paused",
      "outputs": [
        {
          "internalType": "bool",
          "name": "",
          "type": "bool"
        }
      ],
      "stateMutability": "view",
      "type": "function",
      "constant": true
    },
    {
      "inputs": [],
      "name": "ratEfficiencyMultiplier",
      "outputs": [
        {
          "internalType": "int256",
          "name": "",
          "type": "int256"
        }
      ],
      "stateMutability": "view",
      "type": "function",
      "constant": true
    },
    {
      "inputs": [],
      "name": "ratEfficiencyOffset",
      "outputs": [
        {
          "internalType": "int256",
          "name": "",
          "type": "int256"
        }
      ],
      "stateMutability": "view",
      "type": "function",
      "constant": true
    },
    {
      "inputs": [],
      "name": "ratTheftPercentage",
      "outputs": [
        {
          "internalType": "uint256",
          "name": "",
          "type": "uint256"
        }
      ],
      "stateMutability": "view",
      "type": "function",
      "constant": true
    },
    {
      "inputs": [
        {
          "internalType": "uint256",
          "name": "",
          "type": "uint256"
        }
      ],
      "name": "rats",
      "outputs": [
        {
          "internalType": "uint256",
          "name": "tokenId",
          "type": "uint256"
        },
        {
          "internalType": "address",
          "name": "owner",
          "type": "address"
        },
        {
          "internalType": "uint80",
          "name": "value",
          "type": "uint80"
        },
        {
          "internalType": "uint80",
          "name": "timestamp",
          "type": "uint80"
        }
      ],
      "stateMutability": "view",
      "type": "function",
      "constant": true
    },
    {
      "inputs": [],
      "name": "renounceOwnership",
      "outputs": [],
      "stateMutability": "nonpayable",
      "type": "function"
    },
    {
      "inputs": [
        {
          "internalType": "address",
          "name": "account",
          "type": "address"
        },
        {
          "internalType": "uint16[]",
          "name": "tokenIds",
          "type": "uint16[]"
        }
      ],
      "name": "stakeMany",
      "outputs": [],
      "stateMutability": "nonpayable",
      "type": "function"
    },
    {
      "inputs": [
        {
          "internalType": "address",
          "name": "",
          "type": "address"
        },
        {
          "internalType": "uint256",
          "name": "",
          "type": "uint256"
        }
      ],
      "name": "stakers",
      "outputs": [
        {
          "internalType": "uint256",
          "name": "",
          "type": "uint256"
        }
      ],
      "stateMutability": "view",
      "type": "function",
      "constant": true
    },
    {
      "inputs": [],
      "name": "totalChefsStaked",
      "outputs": [
        {
          "internalType": "uint256",
          "name": "",
          "type": "uint256"
        }
      ],
      "stateMutability": "view",
      "type": "function",
      "constant": true
    },
    {
      "inputs": [],
      "name": "totalFoodTokensEarned",
      "outputs": [
        {
          "internalType": "uint256",
          "name": "",
          "type": "uint256"
        }
      ],
      "stateMutability": "view",
      "type": "function",
      "constant": true
    },
    {
      "inputs": [],
      "name": "totalRatsStaked",
      "outputs": [
        {
          "internalType": "uint256",
          "name": "",
          "type": "uint256"
        }
      ],
      "stateMutability": "view",
      "type": "function",
      "constant": true
    },
    {
      "inputs": [
        {
          "internalType": "address",
          "name": "newOwner",
          "type": "address"
        }
      ],
      "name": "transferOwnership",
      "outputs": [],
      "stateMutability": "nonpayable",
      "type": "function"
    },
    {
      "inputs": [],
      "name": "unaccountedRewards",
      "outputs": [
        {
          "internalType": "uint256",
          "name": "",
          "type": "uint256"
        }
      ],
      "stateMutability": "view",
      "type": "function",
      "constant": true
    },
    {
      "inputs": [],
      "name": "unpause",
      "outputs": [],
      "stateMutability": "nonpayable",
      "type": "function"
    },
    {
      "inputs": [],
      "name": "vestingPeriod",
      "outputs": [
        {
          "internalType": "uint256",
          "name": "",
          "type": "uint256"
        }
      ],
      "stateMutability": "view",
      "type": "function",
      "constant": true
    },
    {
      "inputs": [
        {
          "internalType": "address",
          "name": "_character",
          "type": "address"
        },
        {
          "internalType": "address",
          "name": "_claim",
          "type": "address"
        },
        {
          "internalType": "uint256",
          "name": "_accrualPeriod",
          "type": "uint256"
        }
      ],
      "name": "initialize",
      "outputs": [],
      "stateMutability": "nonpayable",
      "type": "function"
    },
    {
      "inputs": [],
      "name": "initialize",
      "outputs": [],
      "stateMutability": "nonpayable",
      "type": "function"
    },
    {
      "inputs": [
        {
          "internalType": "address",
          "name": "_character",
          "type": "address"
        },
        {
          "internalType": "address",
          "name": "_claim",
          "type": "address"
        },
        {
          "internalType": "address",
          "name": "_foodToken",
          "type": "address"
        }
      ],
      "name": "initialize",
      "outputs": [],
      "stateMutability": "nonpayable",
      "type": "function"
    },
    {
      "inputs": [
        {
          "internalType": "uint256",
          "name": "_foodTokenMaxSupply",
          "type": "uint256"
        },
        {
          "internalType": "uint256[]",
          "name": "_earningSettings",
          "type": "uint256[]"
        },
        {
          "internalType": "int8[]",
          "name": "_propertyIncrements",
          "type": "int8[]"
        },
        {
          "internalType": "uint8",
          "name": "_chefEfficiencyMultiplier",
          "type": "uint8"
        },
        {
          "internalType": "int256",
          "name": "_ratEfficiencyMultiplier",
          "type": "int256"
        },
        {
          "internalType": "int256",
          "name": "_ratEfficiencyOffset",
          "type": "int256"
        },
        {
          "internalType": "uint8",
          "name": "_maxClaimsPerTx",
          "type": "uint8"
        }
      ],
      "name": "configure",
      "outputs": [],
      "stateMutability": "nonpayable",
      "type": "function"
    }
  ],
  "bytecode": "0x608060405234801561001057600080fd5b50615c1e80620000216000396000f3fe608060405234801561001057600080fd5b506004361061023d5760003560e01c80637313ee5a1161013b578063c0c53b8b116100b8578063dbdc1f6b1161007c578063dbdc1f6b14610657578063ef9f800f14610673578063f2666746146106a3578063f2fde38b146106c1578063f6664155146106dd5761023d565b8063c0c53b8b146105b1578063c8b6cbf7146105cd578063cba88af8146105fd578063d7178ac61461061b578063d8dda92e146106395761023d565b8063922a1802116100ff578063922a18021461051f578063a262c0ad1461053b578063a7a1029014610559578063bdb6294114610575578063c0c472c0146105935761023d565b80637313ee5a146104b15780638129fc1c146104cf5780638456cb59146104d95780638da5cb5b146104e357806391ba3f3f146105015761023d565b806335ec066e116101c9578063525e915b1161018d578063525e915b1461041f5780635c975abb1461044f578063607af3971461046d5780636b0620cc1461048b578063715018a6146104a75761023d565b806335ec066e146103735780633f4ba83a146103a6578063499f8010146103b05780634d1c61af146103ce5780634e71d92d146104015761023d565b80631b4d47a1116102105780631b4d47a1146102ca5780631b8ca217146102e85780632535a77f146103195780632d79320b146103375780632e2ce28b146103555761023d565b806310d53df114610242578063138e6ad514610260578063150b7a021461027e5780631794bb3c146102ae575b600080fd5b61024a6106fb565b6040516102579190613c96565b60405180910390f35b61026861070e565b6040516102759190613cca565b60405180910390f35b61029860048036038101906102939190613df2565b610714565b6040516102a59190613eb5565b60405180910390f35b6102c860048036038101906102c39190613ed0565b610797565b005b6102d2610993565b6040516102df9190613f32565b60405180910390f35b61030260048036038101906102fd9190613f4d565b610999565b604051610310929190613f96565b60405180910390f35b610321610a83565b60405161032e9190613f32565b60405180910390f35b61033f610a89565b60405161034c9190613fbf565b60405180910390f35b61035d610a9c565b60405161036a9190613f32565b60405180910390f35b61038d60048036038101906103889190613f4d565b610aa2565b60405161039d949392919061400e565b60405180910390f35b6103ae610b1e565b005b6103b8610ba4565b6040516103c59190613f32565b60405180910390f35b6103e860048036038101906103e39190613f4d565b610baa565b6040516103f8949392919061400e565b60405180910390f35b610409610c26565b60405161041691906140b2565b60405180910390f35b61043960048036038101906104349190614103565b610c4c565b6040516104469190614160565b60405180910390f35b610457610c93565b6040516104649190614196565b60405180910390f35b610475610caa565b6040516104829190613f32565b60405180910390f35b6104a560048036038101906104a09190614447565b610cb0565b005b6104af610f12565b005b6104b9610f9a565b6040516104c69190613f32565b60405180910390f35b6104d7610fa0565b005b6104e1611094565b005b6104eb61111a565b6040516104f89190614521565b60405180910390f35b610509611144565b6040516105169190613f32565b60405180910390f35b61053960048036038101906105349190614709565b61114a565b005b6105436116de565b6040516105509190613c96565b60405180910390f35b610573600480360381019061056e91906147bb565b6116f1565b005b61057d611afe565b60405161058a9190613c96565b60405180910390f35b61059b611b11565b6040516105a89190613f32565b60405180910390f35b6105cb60048036038101906105c6919061481b565b611b17565b005b6105e760048036038101906105e2919061486e565b611ce9565b6040516105f49190613f32565b60405180910390f35b610605611d1a565b6040516106129190613c96565b60405180910390f35b610623611d2d565b6040516106309190613cca565b60405180910390f35b610641611d33565b60405161064e9190613f32565b60405180910390f35b610671600480360381019061066c91906148ae565b611d39565b005b61068d60048036038101906106889190613f4d565b6122c4565b60405161069a9190614196565b60405180910390f35b6106ab6123a3565b6040516106b89190613f32565b60405180910390f35b6106db60048036038101906106d6919061490e565b6123a9565b005b6106e56124a1565b6040516106f29190613f32565b60405180910390f35b609d60009054906101000a900460000b81565b60ab5481565b60008073ffffffffffffffffffffffffffffffffffffffff168573ffffffffffffffffffffffffffffffffffffffff1614610784576040517f08c379a000000000000000000000000000000000000000000000000000000000815260040161077b906149be565b60405180910390fd5b63150b7a0260e01b905095945050505050565b600060019054906101000a900460ff166107bf5760008054906101000a900460ff16156107c8565b6107c76124a7565b5b610807576040517f08c379a00000000000000000000000000000000000000000000000000000000081526004016107fe90614a50565b60405180910390fd5b60008060019054906101000a900460ff161590508015610857576001600060016101000a81548160ff02191690831515021790555060016000806101000a81548160ff0219169083151502179055505b61085f6124b8565b610867612519565b83609760006101000a81548173ffffffffffffffffffffffffffffffffffffffff021916908373ffffffffffffffffffffffffffffffffffffffff16021790555082609860006101000a81548173ffffffffffffffffffffffffffffffffffffffff021916908373ffffffffffffffffffffffffffffffffffffffff1602179055508160a0819055506000609d60006101000a81548160ff021916908360000b60ff1602179055506000609d60016101000a81548160ff021916908360000b60ff1602179055506000609d60026101000a81548160ff021916908360000b60ff1602179055506000609d60036101000a81548160ff021916908360000b60ff160217905550801561098d5760008060016101000a81548160ff0219169083151502179055505b50505050565b60a45481565b600080609760009054906101000a900473ffffffffffffffffffffffffffffffffffffffff1673ffffffffffffffffffffffffffffffffffffffff1663e05c57bf846040518263ffffffff1660e01b81526004016109f79190613f32565b61016060405180830381865afa158015610a15573d6000803e3d6000fd5b505050506040513d601f19601f82011682018060405250810190610a399190614aaf565b909192939495969798995090919293949596979850909192939495969750909192939495965090919293949550909192939450909192935090919250508092508193505050915091565b60a15481565b60aa60009054906101000a900460ff1681565b60a65481565b609a6020528060005260406000206000915090508060000154908060010160009054906101000a900473ffffffffffffffffffffffffffffffffffffffff16908060010160149054906101000a900469ffffffffffffffffffff16908060020160009054906101000a900469ffffffffffffffffffff16905084565b610b2661257a565b73ffffffffffffffffffffffffffffffffffffffff16610b4461111a565b73ffffffffffffffffffffffffffffffffffffffff1614610b9a576040517f08c379a0000000000000000000000000000000000000000000000000000000008152600401610b9190614bef565b60405180910390fd5b610ba2612582565b565b609f5481565b60996020528060005260406000206000915090508060000154908060010160009054906101000a900473ffffffffffffffffffffffffffffffffffffffff16908060010160149054906101000a900469ffffffffffffffffffff16908060020160009054906101000a900469ffffffffffffffffffff16905084565b609860009054906101000a900473ffffffffffffffffffffffffffffffffffffffff1681565b609c6020528160005260406000208181548110610c6857600080fd5b9060005260206000209060109182820401919006600202915091509054906101000a900461ffff1681565b6000606560009054906101000a900460ff16905090565b60a95481565b610cb861257a565b73ffffffffffffffffffffffffffffffffffffffff16610cd661111a565b73ffffffffffffffffffffffffffffffffffffffff1614610d2c576040517f08c379a0000000000000000000000000000000000000000000000000000000008152600401610d2390614bef565b60405180910390fd5b670de0b6b3a764000087610d409190614c3e565b60a481905550670de0b6b3a764000086600081518110610d6357610d62614c98565b5b6020026020010151610d759190614c3e565b60a58190555085600181518110610d8f57610d8e614c98565b5b602002602001015160a68190555085600281518110610db157610db0614c98565b5b602002602001015160a28190555085600381518110610dd357610dd2614c98565b5b602002602001015160a08190555084600081518110610df557610df4614c98565b5b6020026020010151609d60006101000a81548160ff021916908360000b60ff16021790555084600181518110610e2e57610e2d614c98565b5b6020026020010151609d60016101000a81548160ff021916908360000b60ff16021790555084600281518110610e6757610e66614c98565b5b6020026020010151609d60026101000a81548160ff021916908360000b60ff16021790555084600381518110610ea057610e9f614c98565b5b6020026020010151609d60036101000a81548160ff021916908360000b60ff1602179055508360aa60006101000a81548160ff021916908360ff1602179055508260ab819055508160ac819055508060a360006101000a81548160ff021916908360ff16021790555050505050505050565b610f1a61257a565b73ffffffffffffffffffffffffffffffffffffffff16610f3861111a565b73ffffffffffffffffffffffffffffffffffffffff1614610f8e576040517f08c379a0000000000000000000000000000000000000000000000000000000008152600401610f8590614bef565b60405180910390fd5b610f986000612624565b565b60a25481565b600060019054906101000a900460ff16610fc85760008054906101000a900460ff1615610fd1565b610fd06124a7565b5b611010576040517f08c379a000000000000000000000000000000000000000000000000000000000815260040161100790614a50565b60405180910390fd5b60008060019054906101000a900460ff161590508015611060576001600060016101000a81548160ff02191690831515021790555060016000806101000a81548160ff0219169083151502179055505b6110686124b8565b611070612519565b80156110915760008060016101000a81548160ff0219169083151502179055505b50565b61109c61257a565b73ffffffffffffffffffffffffffffffffffffffff166110ba61111a565b73ffffffffffffffffffffffffffffffffffffffff1614611110576040517f08c379a000000000000000000000000000000000000000000000000000000000815260040161110790614bef565b60405180910390fd5b6111186126ea565b565b6000603360009054906101000a900473ffffffffffffffffffffffffffffffffffffffff16905090565b60a55481565b611152610c93565b15611192576040517f08c379a000000000000000000000000000000000000000000000000000000000815260040161118990614d13565b60405180910390fd5b609860009054906101000a900473ffffffffffffffffffffffffffffffffffffffff1673ffffffffffffffffffffffffffffffffffffffff163373ffffffffffffffffffffffffffffffffffffffff1614611222576040517f08c379a000000000000000000000000000000000000000000000000000000000815260040161121990614d7f565b60405180910390fd5b6000609c600084600001518152602001908152602001600020805490501161127f576040517f08c379a000000000000000000000000000000000000000000000000000000000815260040161127690614deb565b60405180910390fd5b6000609c60008460000151815260200190815260200160002080548060200260200160405190810160405280929190818152602001828054801561130a57602002820191906000526020600020906000905b82829054906101000a900461ffff1661ffff16815260200190600201906020826001010492830192600103820291508084116112d15790505b50505050509050609c60008460000151815260200190815260200160002060006113349190613b87565b6000805b82518110156116bf5760008482604051602001611356929190614e0b565b6040516020818303038152906040528051906020012060001c905060006113828760400151600061278d565b90506113ab85848151811061139a57611399614c98565b5b602002602001015161ffff166122c4565b156113ff576113ed8584815181106113c6576113c5614c98565b5b602002602001015161ffff1688604001518315806113e5575089608001515b841586612799565b846113f89190614e34565b9350611441565b61143385848151811061141557611414614c98565b5b602002602001015161ffff1688604001518960800151841586612be3565b8461143e9190614e34565b93505b60005b609b6000896040015173ffffffffffffffffffffffffffffffffffffffff1673ffffffffffffffffffffffffffffffffffffffff168152602001908152602001600020805490508110156116a9578584815181106114a5576114a4614c98565b5b602002602001015161ffff16609b60008a6040015173ffffffffffffffffffffffffffffffffffffffff1673ffffffffffffffffffffffffffffffffffffffff168152602001908152602001600020828154811061150657611505614c98565b5b9060005260206000200154141561169657609b6000896040015173ffffffffffffffffffffffffffffffffffffffff1673ffffffffffffffffffffffffffffffffffffffff1681526020019081526020016000206001609b60008b6040015173ffffffffffffffffffffffffffffffffffffffff1673ffffffffffffffffffffffffffffffffffffffff168152602001908152602001600020805490506115ad9190614e8a565b815481106115be576115bd614c98565b5b9060005260206000200154609b60008a6040015173ffffffffffffffffffffffffffffffffffffffff1673ffffffffffffffffffffffffffffffffffffffff168152602001908152602001600020828154811061161e5761161d614c98565b5b9060005260206000200181905550609b6000896040015173ffffffffffffffffffffffffffffffffffffffff1673ffffffffffffffffffffffffffffffffffffffff16815260200190815260200160002080548061167f5761167e614ebe565b5b600190038181906000526020600020016000905590555b80806116a190614eed565b915050611444565b50505080806116b790614eed565b915050611338565b5060008111156116d8576116d7846040015182613030565b5b50505050565b609d60029054906101000a900460000b81565b6116f9610c93565b15611739576040517f08c379a000000000000000000000000000000000000000000000000000000000815260040161173090614d13565b60405180910390fd5b60a360009054906101000a900460ff1660ff16838390501115611791576040517f08c379a000000000000000000000000000000000000000000000000000000000815260040161178890614f82565b60405180910390fd5b60005b83839050811015611a255760006117d58585848181106117b7576117b6614c98565b5b90506020020160208101906117cc9190614fa2565b61ffff166122c4565b61181c57609a60008686858181106117f0576117ef614c98565b5b90506020020160208101906118059190614fa2565b61ffff16815260200190815260200160002061185b565b6099600086868581811061183357611832614c98565b5b90506020020160208101906118489190614fa2565b61ffff1681526020019081526020016000205b604051806080016040529081600082015481526020016001820160009054906101000a900473ffffffffffffffffffffffffffffffffffffffff1673ffffffffffffffffffffffffffffffffffffffff1673ffffffffffffffffffffffffffffffffffffffff1681526020016001820160149054906101000a900469ffffffffffffffffffff1669ffffffffffffffffffff1669ffffffffffffffffffff1681526020016002820160009054906101000a900469ffffffffffffffffffff1669ffffffffffffffffffff1669ffffffffffffffffffff1681525050905061194061257a565b73ffffffffffffffffffffffffffffffffffffffff16816020015173ffffffffffffffffffffffffffffffffffffffff16146119b1576040517f08c379a00000000000000000000000000000000000000000000000000000000081526004016119a89061501b565b60405180910390fd5b60a254816060015169ffffffffffffffffffff16426119d09190614e8a565b1015611a11576040517f08c379a0000000000000000000000000000000000000000000000000000000008152600401611a0890615087565b60405180910390fd5b508080611a1d90614eed565b915050611794565b506000609860009054906101000a900473ffffffffffffffffffffffffffffffffffffffff1673ffffffffffffffffffffffffffffffffffffffff16635bdf263c611a6e61257a565b8686866040518563ffffffff1660e01b8152600401611a90949392919061516a565b6020604051808303816000875af1158015611aaf573d6000803e3d6000fd5b505050506040513d601f19601f82011682018060405250810190611ad391906151bf565b90508383609c60008481526020019081526020016000209190611af7929190613baf565b5050505050565b609d60019054906101000a900460000b81565b60a75481565b600060019054906101000a900460ff16611b3f5760008054906101000a900460ff1615611b48565b611b476124a7565b5b611b87576040517f08c379a0000000000000000000000000000000000000000000000000000000008152600401611b7e90614a50565b60405180910390fd5b60008060019054906101000a900460ff161590508015611bd7576001600060016101000a81548160ff02191690831515021790555060016000806101000a81548160ff0219169083151502179055505b611bdf6124b8565b611be7612519565b600060a781905550600060a181905550600060a98190555083609760006101000a81548173ffffffffffffffffffffffffffffffffffffffff021916908373ffffffffffffffffffffffffffffffffffffffff16021790555082609860006101000a81548173ffffffffffffffffffffffffffffffffffffffff021916908373ffffffffffffffffffffffffffffffffffffffff1602179055508160ad60006101000a81548173ffffffffffffffffffffffffffffffffffffffff021916908373ffffffffffffffffffffffffffffffffffffffff1602179055508015611ce35760008060016101000a81548160ff0219169083151502179055505b50505050565b609b6020528160005260406000208181548110611d0557600080fd5b90600052602060002001600091509150505481565b609d60039054906101000a900460000b81565b60ac5481565b60a85481565b611d4161257a565b73ffffffffffffffffffffffffffffffffffffffff168373ffffffffffffffffffffffffffffffffffffffff161480611dce5750609760009054906101000a900473ffffffffffffffffffffffffffffffffffffffff1673ffffffffffffffffffffffffffffffffffffffff16611db661257a565b73ffffffffffffffffffffffffffffffffffffffff16145b611e0d576040517f08c379a0000000000000000000000000000000000000000000000000000000008152600401611e0490615238565b60405180910390fd5b60005b828290508110156122be57609760009054906101000a900473ffffffffffffffffffffffffffffffffffffffff1673ffffffffffffffffffffffffffffffffffffffff16611e5c61257a565b73ffffffffffffffffffffffffffffffffffffffff161461207257611e7f61257a565b73ffffffffffffffffffffffffffffffffffffffff16609760009054906101000a900473ffffffffffffffffffffffffffffffffffffffff1673ffffffffffffffffffffffffffffffffffffffff16636352211e858585818110611ee657611ee5614c98565b5b9050602002016020810190611efb9190614fa2565b6040518263ffffffff1660e01b8152600401611f179190615289565b602060405180830381865afa158015611f34573d6000803e3d6000fd5b505050506040513d601f19601f82011682018060405250810190611f5891906152b9565b73ffffffffffffffffffffffffffffffffffffffff1614611fae576040517f08c379a0000000000000000000000000000000000000000000000000000000008152600401611fa59061501b565b60405180910390fd5b609760009054906101000a900473ffffffffffffffffffffffffffffffffffffffff1673ffffffffffffffffffffffffffffffffffffffff166323b872dd611ff461257a565b3086868681811061200857612007614c98565b5b905060200201602081019061201d9190614fa2565b6040518463ffffffff1660e01b815260040161203b939291906152e6565b600060405180830381600087803b15801561205557600080fd5b505af1158015612069573d6000803e3d6000fd5b505050506120ac565b600083838381811061208757612086614c98565b5b905060200201602081019061209c9190614fa2565b61ffff1614156120ab576122ab565b5b6120e08383838181106120c2576120c1614c98565b5b90506020020160208101906120d79190614fa2565b61ffff166130c3565b61211f576040517f08c379a000000000000000000000000000000000000000000000000000000000815260040161211690615369565b60405180910390fd5b61215383838381811061213557612134614c98565b5b905060200201602081019061214a9190614fa2565b61ffff166122c4565b156122745761218d8484848481811061216f5761216e614c98565b5b90506020020160208101906121849190614fa2565b61ffff166130ce565b61219f61219861257a565b600161278d565b6121de576040517f08c379a00000000000000000000000000000000000000000000000000000000081526004016121d5906153d5565b60405180910390fd5b609b60008573ffffffffffffffffffffffffffffffffffffffff1673ffffffffffffffffffffffffffffffffffffffff1681526020019081526020016000208383838181106122305761222f614c98565b5b90506020020160208101906122459190614fa2565b908060018154018082558091505060019003906000526020600020016000909161ffff169091909150556122aa565b6122a98484848481811061228b5761228a614c98565b5b90506020020160208101906122a09190614fa2565b61ffff1661328d565b5b5b80806122b690614eed565b915050611e10565b50505050565b6000609760009054906101000a900473ffffffffffffffffffffffffffffffffffffffff1673ffffffffffffffffffffffffffffffffffffffff1663e05c57bf836040518263ffffffff1660e01b81526004016123219190613f32565b61016060405180830381865afa15801561233f573d6000803e3d6000fd5b505050506040513d601f19601f820116820180604052508101906123639190614aaf565b9091929394959697985090919293949596975090919293949596509091929394955090919293945090919293509091925090915090505080915050919050565b609e5481565b6123b161257a565b73ffffffffffffffffffffffffffffffffffffffff166123cf61111a565b73ffffffffffffffffffffffffffffffffffffffff1614612425576040517f08c379a000000000000000000000000000000000000000000000000000000000815260040161241c90614bef565b60405180910390fd5b600073ffffffffffffffffffffffffffffffffffffffff168173ffffffffffffffffffffffffffffffffffffffff161415612495576040517f08c379a000000000000000000000000000000000000000000000000000000000815260040161248c90615467565b60405180910390fd5b61249e81612624565b50565b60a05481565b60006124b230613455565b15905090565b600060019054906101000a900460ff16612507576040517f08c379a00000000000000000000000000000000000000000000000000000000081526004016124fe906154f9565b60405180910390fd5b61250f613468565b6125176134b9565b565b600060019054906101000a900460ff16612568576040517f08c379a000000000000000000000000000000000000000000000000000000000815260040161255f906154f9565b60405180910390fd5b612570613468565b61257861351a565b565b600033905090565b61258a610c93565b6125c9576040517f08c379a00000000000000000000000000000000000000000000000000000000081526004016125c090615565565b60405180910390fd5b6000606560006101000a81548160ff0219169083151502179055507f5db9ee0a495bf2e6ff9c91a7834c1ba4fdd244a5e8aa4e537bd38aeae4b073aa61260d61257a565b60405161261a9190614521565b60405180910390a1565b6000603360009054906101000a900473ffffffffffffffffffffffffffffffffffffffff16905081603360006101000a81548173ffffffffffffffffffffffffffffffffffffffff021916908373ffffffffffffffffffffffffffffffffffffffff1602179055508173ffffffffffffffffffffffffffffffffffffffff168173ffffffffffffffffffffffffffffffffffffffff167f8be0079c531659141344cd1fd0a4f28419497f9722a3daafe3b4186f6b6457e060405160405180910390a35050565b6126f2610c93565b15612732576040517f08c379a000000000000000000000000000000000000000000000000000000000815260040161272990614d13565b60405180910390fd5b6001606560006101000a81548160ff0219169083151502179055507f62e78cea01bee320cd4e420270b5ea74000d11b0c9f74754ebdbfc544b05a25861277661257a565b6040516127839190614521565b60405180910390a1565b60006001905092915050565b60008060996000888152602001908152602001600020604051806080016040529081600082015481526020016001820160009054906101000a900473ffffffffffffffffffffffffffffffffffffffff1673ffffffffffffffffffffffffffffffffffffffff1673ffffffffffffffffffffffffffffffffffffffff1681526020016001820160149054906101000a900469ffffffffffffffffffff1669ffffffffffffffffffff1669ffffffffffffffffffff1681526020016002820160009054906101000a900469ffffffffffffffffffff1669ffffffffffffffffffff1669ffffffffffffffffffff168152505090508573ffffffffffffffffffffffffffffffffffffffff16816020015173ffffffffffffffffffffffffffffffffffffffff16146128fe576040517f08c379a00000000000000000000000000000000000000000000000000000000081526004016128f59061501b565b60405180910390fd5b836129115761290c81613586565b612914565b60005b915060008060006129258a876136ea565b9250925092506129348a6130c3565b61293d57600197505b8715612a7057609760009054906101000a900473ffffffffffffffffffffffffffffffffffffffff1673ffffffffffffffffffffffffffffffffffffffff1663b88d4fde308b8d6040518463ffffffff1660e01b81526004016129a2939291906155bc565b600060405180830381600087803b1580156129bc57600080fd5b505af11580156129d0573d6000803e3d6000fd5b50505050609960008b81526020019081526020016000206000808201600090556001820160006101000a81549073ffffffffffffffffffffffffffffffffffffffff02191690556001820160146101000a81549069ffffffffffffffffffff02191690556002820160006101000a81549069ffffffffffffffffffff02191690555050609e6000815480929190612a6690615606565b9190505550612b91565b60405180608001604052808b61ffff1681526020018a73ffffffffffffffffffffffffffffffffffffffff1681526020014269ffffffffffffffffffff1681526020014269ffffffffffffffffffff16815250609960008c81526020019081526020016000206000820151816000015560208201518160010160006101000a81548173ffffffffffffffffffffffffffffffffffffffff021916908373ffffffffffffffffffffffffffffffffffffffff16021790555060408201518160010160146101000a81548169ffffffffffffffffffff021916908369ffffffffffffffffffff16021790555060608201518160020160006101000a81548169ffffffffffffffffffff021916908369ffffffffffffffffffff1602179055509050505b7f9b394c66bc4fdb2f56f5842a796076e6552d6f15eaacb6e63e3c53b474d872e98a868a86868660a154604051612bce97969594939291906156a7565b60405180910390a15050505095945050505050565b600080609a6000888152602001908152602001600020604051806080016040529081600082015481526020016001820160009054906101000a900473ffffffffffffffffffffffffffffffffffffffff1673ffffffffffffffffffffffffffffffffffffffff1673ffffffffffffffffffffffffffffffffffffffff1681526020016001820160149054906101000a900469ffffffffffffffffffff1669ffffffffffffffffffff1669ffffffffffffffffffff1681526020016002820160009054906101000a900469ffffffffffffffffffff1669ffffffffffffffffffff1669ffffffffffffffffffff168152505090508573ffffffffffffffffffffffffffffffffffffffff16816020015173ffffffffffffffffffffffffffffffffffffffff1614612d48576040517f08c379a0000000000000000000000000000000000000000000000000000000008152600401612d3f9061501b565b60405180910390fd5b83612d5b57612d5681613944565b612d5e565b60005b91506000806000612d6f8a876136ea565b925092509250612d7e8a6130c3565b612d8757600197505b8715612eba57609760009054906101000a900473ffffffffffffffffffffffffffffffffffffffff1673ffffffffffffffffffffffffffffffffffffffff1663b88d4fde308b8d6040518463ffffffff1660e01b8152600401612dec939291906155bc565b600060405180830381600087803b158015612e0657600080fd5b505af1158015612e1a573d6000803e3d6000fd5b50505050609a60008b81526020019081526020016000206000808201600090556001820160006101000a81549073ffffffffffffffffffffffffffffffffffffffff02191690556001820160146101000a81549069ffffffffffffffffffff02191690556002820160006101000a81549069ffffffffffffffffffff02191690555050609f6000815480929190612eb090615606565b9190505550612fe2565b60405180608001604052808b61ffff1681526020018a73ffffffffffffffffffffffffffffffffffffffff168152602001612ef3613a58565b69ffffffffffffffffffff1681526020014269ffffffffffffffffffff16815250609a60008c81526020019081526020016000206000820151816000015560208201518160010160006101000a81548173ffffffffffffffffffffffffffffffffffffffff021916908373ffffffffffffffffffffffffffffffffffffffff16021790555060408201518160010160146101000a81548169ffffffffffffffffffff021916908369ffffffffffffffffffff16021790555060608201518160020160006101000a81548169ffffffffffffffffffff021916908369ffffffffffffffffffff1602179055509050505b7f6e949c62565860afb9dd6295e998a1c40005fe9560aedf8d596717681cfc7a1f8a868a86868660405161301b9695949392919061571d565b60405180910390a15050505095945050505050565b60ad60009054906101000a900473ffffffffffffffffffffffffffffffffffffffff1673ffffffffffffffffffffffffffffffffffffffff166340c10f1983836040518363ffffffff1660e01b815260040161308d929190615785565b600060405180830381600087803b1580156130a757600080fd5b505af11580156130bb573d6000803e3d6000fd5b505050505050565b600060019050919050565b6130d6610c93565b15613116576040517f08c379a000000000000000000000000000000000000000000000000000000000815260040161310d90614d13565b60405180910390fd5b60405180608001604052808261ffff1681526020018373ffffffffffffffffffffffffffffffffffffffff1681526020014269ffffffffffffffffffff1681526020014269ffffffffffffffffffff16815250609960008381526020019081526020016000206000820151816000015560208201518160010160006101000a81548173ffffffffffffffffffffffffffffffffffffffff021916908373ffffffffffffffffffffffffffffffffffffffff16021790555060408201518160010160146101000a81548169ffffffffffffffffffff021916908369ffffffffffffffffffff16021790555060608201518160020160006101000a81548169ffffffffffffffffffff021916908369ffffffffffffffffffff160217905550905050609e600081548092919061324990614eed565b91905055507f8af1bb49fb16c7835975aa59449ba4328dd54737dfb2ae9fa6c5eca71fda51f9818342604051613281939291906157ae565b60405180910390a15050565b613295610c93565b156132d5576040517f08c379a00000000000000000000000000000000000000000000000000000000081526004016132cc90614d13565b60405180910390fd5b60405180608001604052808261ffff1681526020018373ffffffffffffffffffffffffffffffffffffffff16815260200161330e613a58565b69ffffffffffffffffffff1681526020014269ffffffffffffffffffff16815250609a60008381526020019081526020016000206000820151816000015560208201518160010160006101000a81548173ffffffffffffffffffffffffffffffffffffffff021916908373ffffffffffffffffffffffffffffffffffffffff16021790555060408201518160010160146101000a81548169ffffffffffffffffffff021916908369ffffffffffffffffffff16021790555060608201518160020160006101000a81548169ffffffffffffffffffff021916908369ffffffffffffffffffff160217905550905050609f600081548092919061340f90614eed565b91905055507f8af1bb49fb16c7835975aa59449ba4328dd54737dfb2ae9fa6c5eca71fda51f9818360a154604051613449939291906157ae565b60405180910390a15050565b600080823b905060008111915050919050565b600060019054906101000a900460ff166134b7576040517f08c379a00000000000000000000000000000000000000000000000000000000081526004016134ae906154f9565b60405180910390fd5b565b600060019054906101000a900460ff16613508576040517f08c379a00000000000000000000000000000000000000000000000000000000081526004016134ff906154f9565b60405180910390fd5b61351861351361257a565b612624565b565b600060019054906101000a900460ff16613569576040517f08c379a0000000000000000000000000000000000000000000000000000000008152600401613560906154f9565b60405180910390fd5b6000606560006101000a81548160ff021916908315150217905550565b6000806135968360000151610999565b5090506000836040015169ffffffffffffffffffff16426135b79190614e8a565b905060a0548111156135c95760a05490505b600060a0548260a5546135dc9190614c3e565b6135e69190615814565b90506000600a60aa60009054906101000a900460ff1660ff168560ff1661360d9190614c3e565b6136179190614c3e565b620186a06136259190614e34565b9050620186a081836136379190614c3e565b6136419190615814565b945060a4548560a8546136549190614e34565b111561366d5760a85460a45461366a9190614e8a565b94505b60008511156136e1574260a98190555061369f606460a654876136909190614c3e565b61369a9190615814565b613a62565b606460a65460646136b09190614e8a565b866136bb9190614c3e565b6136c59190615814565b94508460a860008282546136d99190614e34565b925050819055505b50505050919050565b6000806060600080609760009054906101000a900473ffffffffffffffffffffffffffffffffffffffff1673ffffffffffffffffffffffffffffffffffffffff1663e05c57bf886040518263ffffffff1660e01b815260040161374d9190613f32565b61016060405180830381865afa15801561376b573d6000803e3d6000fd5b505050506040513d601f19601f8201168201806040525081019061378f9190614aaf565b9a5050505050505050505091506000826137d557609a600089815260200190815260200160002060020160009054906101000a900469ffffffffffffffffffff16613803565b6099600089815260200190815260200160002060020160009054906101000a900469ffffffffffffffffffff165b69ffffffffffffffffffff164261381a9190614e8a565b9050609760009054906101000a900473ffffffffffffffffffffffffffffffffffffffff1673ffffffffffffffffffffffffffffffffffffffff166363dbfc77896138908661387857609d60029054906101000a900460000b613889565b609d60009054906101000a900460000b5b8587613aca565b6138c6876138ad57609d60039054906101000a900460000b6138be565b609d60019054906101000a900460000b5b866000613aca565b8b6040518563ffffffff1660e01b81526004016138e69493929190615845565b6000604051808303816000875af1158015613905573d6000803e3d6000fd5b505050506040513d6000823e3d601f19601f8201168201806040525081019061392e9190615930565b8096508197508298505050505050509250925092565b6000806139548360000151610999565b9150506000836040015169ffffffffffffffffffff1660a1546139779190614e8a565b905060006103e860ac5461398b919061599f565b60646103e860ab5460328760ff1611156139b1578660646139ac9190615ab6565b6139b3565b865b60000b6139c0919061599f565b6139ca919061599f565b6139d49190615aea565b6139de9190615b54565b9050620186a081836139f09190614c3e565b6139fa9190615814565b935060a4548460a854613a0d9190614e34565b1115613a265760a85460a454613a239190614e8a565b93505b6000841115613a50574260a9819055508360a86000828254613a489190614e34565b925050819055505b505050919050565b600060a154905090565b6000609f541415613a8b578060a76000828254613a7f9190614e34565b92505081905550613ac7565b609f5460a75482613a9c9190614e34565b613aa69190615814565b60a16000828254613ab79190614e34565b92505081905550600060a7819055505b50565b600060a054831115613adc5760a05492505b600060a0548560000b85613af0919061599f565b613afa9190615aea565b905060a0548410613b17578260000b81613b149190615b54565b90505b6064811315613b2a576064915050613b80565b7fffffffffffffffffffffffffffffffffffffffffffffffffffffffffffffff9c811215613b7b577fffffffffffffffffffffffffffffffffffffffffffffffffffffffffffffff9c915050613b80565b809150505b9392505050565b50805460008255600f016010900490600052602060002090810190613bac9190613c5d565b50565b82805482825590600052602060002090600f01601090048101928215613c4c5791602002820160005b83821115613c1c57833561ffff1683826101000a81548161ffff021916908361ffff1602179055509260200192600201602081600101049283019260010302613bd8565b8015613c4a5782816101000a81549061ffff0219169055600201602081600101049283019260010302613c1c565b505b509050613c599190613c5d565b5090565b5b80821115613c76576000816000905550600101613c5e565b5090565b60008160000b9050919050565b613c9081613c7a565b82525050565b6000602082019050613cab6000830184613c87565b92915050565b6000819050919050565b613cc481613cb1565b82525050565b6000602082019050613cdf6000830184613cbb565b92915050565b6000604051905090565b600080fd5b600080fd5b600073ffffffffffffffffffffffffffffffffffffffff82169050919050565b6000613d2482613cf9565b9050919050565b613d3481613d19565b8114613d3f57600080fd5b50565b600081359050613d5181613d2b565b92915050565b6000819050919050565b613d6a81613d57565b8114613d7557600080fd5b50565b600081359050613d8781613d61565b92915050565b600080fd5b600080fd5b600080fd5b60008083601f840112613db257613db1613d8d565b5b8235905067ffffffffffffffff811115613dcf57613dce613d92565b5b602083019150836001820283011115613deb57613dea613d97565b5b9250929050565b600080600080600060808688031215613e0e57613e0d613cef565b5b6000613e1c88828901613d42565b9550506020613e2d88828901613d42565b9450506040613e3e88828901613d78565b935050606086013567ffffffffffffffff811115613e5f57613e5e613cf4565b5b613e6b88828901613d9c565b92509250509295509295909350565b60007fffffffff0000000000000000000000000000000000000000000000000000000082169050919050565b613eaf81613e7a565b82525050565b6000602082019050613eca6000830184613ea6565b92915050565b600080600060608486031215613ee957613ee8613cef565b5b6000613ef786828701613d42565b9350506020613f0886828701613d42565b9250506040613f1986828701613d78565b9150509250925092565b613f2c81613d57565b82525050565b6000602082019050613f476000830184613f23565b92915050565b600060208284031215613f6357613f62613cef565b5b6000613f7184828501613d78565b91505092915050565b600060ff82169050919050565b613f9081613f7a565b82525050565b6000604082019050613fab6000830185613f87565b613fb86020830184613f87565b9392505050565b6000602082019050613fd46000830184613f87565b92915050565b613fe381613d19565b82525050565b600069ffffffffffffffffffff82169050919050565b61400881613fe9565b82525050565b60006080820190506140236000830187613f23565b6140306020830186613fda565b61403d6040830185613fff565b61404a6060830184613fff565b95945050505050565b6000819050919050565b600061407861407361406e84613cf9565b614053565b613cf9565b9050919050565b600061408a8261405d565b9050919050565b600061409c8261407f565b9050919050565b6140ac81614091565b82525050565b60006020820190506140c760008301846140a3565b92915050565b6000819050919050565b6140e0816140cd565b81146140eb57600080fd5b50565b6000813590506140fd816140d7565b92915050565b6000806040838503121561411a57614119613cef565b5b6000614128858286016140ee565b925050602061413985828601613d78565b9150509250929050565b600061ffff82169050919050565b61415a81614143565b82525050565b60006020820190506141756000830184614151565b92915050565b60008115159050919050565b6141908161417b565b82525050565b60006020820190506141ab6000830184614187565b92915050565b6000601f19601f8301169050919050565b7f4e487b7100000000000000000000000000000000000000000000000000000000600052604160045260246000fd5b6141fa826141b1565b810181811067ffffffffffffffff82111715614219576142186141c2565b5b80604052505050565b600061422c613ce5565b905061423882826141f1565b919050565b600067ffffffffffffffff821115614258576142576141c2565b5b602082029050602081019050919050565b600061427c6142778461423d565b614222565b9050808382526020820190506020840283018581111561429f5761429e613d97565b5b835b818110156142c857806142b48882613d78565b8452602084019350506020810190506142a1565b5050509392505050565b600082601f8301126142e7576142e6613d8d565b5b81356142f7848260208601614269565b91505092915050565b600067ffffffffffffffff82111561431b5761431a6141c2565b5b602082029050602081019050919050565b61433581613c7a565b811461434057600080fd5b50565b6000813590506143528161432c565b92915050565b600061436b61436684614300565b614222565b9050808382526020820190506020840283018581111561438e5761438d613d97565b5b835b818110156143b757806143a38882614343565b845260208401935050602081019050614390565b5050509392505050565b600082601f8301126143d6576143d5613d8d565b5b81356143e6848260208601614358565b91505092915050565b6143f881613f7a565b811461440357600080fd5b50565b600081359050614415816143ef565b92915050565b61442481613cb1565b811461442f57600080fd5b50565b6000813590506144418161441b565b92915050565b600080600080600080600060e0888a03121561446657614465613cef565b5b60006144748a828b01613d78565b975050602088013567ffffffffffffffff81111561449557614494613cf4565b5b6144a18a828b016142d2565b965050604088013567ffffffffffffffff8111156144c2576144c1613cf4565b5b6144ce8a828b016143c1565b95505060606144df8a828b01614406565b94505060806144f08a828b01614432565b93505060a06145018a828b01614432565b92505060c06145128a828b01614406565b91505092959891949750929550565b60006020820190506145366000830184613fda565b92915050565b600080fd5b600080fd5b600067ffffffffffffffff821115614561576145606141c2565b5b602082029050602081019050919050565b61457b81614143565b811461458657600080fd5b50565b60008135905061459881614572565b92915050565b60006145b16145ac84614546565b614222565b905080838252602082019050602084028301858111156145d4576145d3613d97565b5b835b818110156145fd57806145e98882614589565b8452602084019350506020810190506145d6565b5050509392505050565b600082601f83011261461c5761461b613d8d565b5b813561462c84826020860161459e565b91505092915050565b61463e8161417b565b811461464957600080fd5b50565b60008135905061465b81614635565b92915050565b600060a082840312156146775761467661453c565b5b61468160a0614222565b90506000614691848285016140ee565b60008301525060206146a584828501613d42565b60208301525060406146b984828501613d42565b604083015250606082013567ffffffffffffffff8111156146dd576146dc614541565b5b6146e984828501614607565b60608301525060806146fd8482850161464c565b60808301525092915050565b600080604083850312156147205761471f613cef565b5b600083013567ffffffffffffffff81111561473e5761473d613cf4565b5b61474a85828601614661565b925050602061475b85828601613d78565b9150509250929050565b60008083601f84011261477b5761477a613d8d565b5b8235905067ffffffffffffffff81111561479857614797613d92565b5b6020830191508360208202830111156147b4576147b3613d97565b5b9250929050565b6000806000604084860312156147d4576147d3613cef565b5b600084013567ffffffffffffffff8111156147f2576147f1613cf4565b5b6147fe86828701614765565b935093505060206148118682870161464c565b9150509250925092565b60008060006060848603121561483457614833613cef565b5b600061484286828701613d42565b935050602061485386828701613d42565b925050604061486486828701613d42565b9150509250925092565b6000806040838503121561488557614884613cef565b5b600061489385828601613d42565b92505060206148a485828601613d78565b9150509250929050565b6000806000604084860312156148c7576148c6613cef565b5b60006148d586828701613d42565b935050602084013567ffffffffffffffff8111156148f6576148f5613cf4565b5b61490286828701614765565b92509250509250925092565b60006020828403121561492457614923613cef565b5b600061493284828501613d42565b91505092915050565b600082825260208201905092915050565b7f43616e6e6f742073656e6420746f6b656e7320746f2056656e7565206469726560008201527f63746c7900000000000000000000000000000000000000000000000000000000602082015250565b60006149a860248361493b565b91506149b38261494c565b604082019050919050565b600060208201905081810360008301526149d78161499b565b9050919050565b7f496e697469616c697a61626c653a20636f6e747261637420697320616c72656160008201527f647920696e697469616c697a6564000000000000000000000000000000000000602082015250565b6000614a3a602e8361493b565b9150614a45826149de565b604082019050919050565b60006020820190508181036000830152614a6981614a2d565b9050919050565b600081519050614a7f81614635565b92915050565b600081519050614a94816143ef565b92915050565b600081519050614aa98161432c565b92915050565b60008060008060008060008060008060006101608c8e031215614ad557614ad4613cef565b5b6000614ae38e828f01614a70565b9b50506020614af48e828f01614a85565b9a50506040614b058e828f01614a85565b9950506060614b168e828f01614a85565b9850506080614b278e828f01614a85565b97505060a0614b388e828f01614a85565b96505060c0614b498e828f01614a85565b95505060e0614b5a8e828f01614a85565b945050610100614b6c8e828f01614a85565b935050610120614b7e8e828f01614a85565b925050610140614b908e828f01614a9a565b9150509295989b509295989b9093969950565b7f4f776e61626c653a2063616c6c6572206973206e6f7420746865206f776e6572600082015250565b6000614bd960208361493b565b9150614be482614ba3565b602082019050919050565b60006020820190508181036000830152614c0881614bcc565b9050919050565b7f4e487b7100000000000000000000000000000000000000000000000000000000600052601160045260246000fd5b6000614c4982613d57565b9150614c5483613d57565b9250817fffffffffffffffffffffffffffffffffffffffffffffffffffffffffffffffff0483118215151615614c8d57614c8c614c0f565b5b828202905092915050565b7f4e487b7100000000000000000000000000000000000000000000000000000000600052603260045260246000fd5b7f5061757361626c653a2070617573656400000000000000000000000000000000600082015250565b6000614cfd60108361493b565b9150614d0882614cc7565b602082019050919050565b60006020820190508181036000830152614d2c81614cf0565b9050919050565b7f4f6e6c7920436c61696d2063616e2066756c66696c6c00000000000000000000600082015250565b6000614d6960168361493b565b9150614d7482614d33565b602082019050919050565b60006020820190508181036000830152614d9881614d5c565b9050919050565b7f436c61696d2072657175657374206e6f7420666f756e64000000000000000000600082015250565b6000614dd560178361493b565b9150614de082614d9f565b602082019050919050565b60006020820190508181036000830152614e0481614dc8565b9050919050565b6000604082019050614e206000830185613f23565b614e2d6020830184613f23565b9392505050565b6000614e3f82613d57565b9150614e4a83613d57565b9250827fffffffffffffffffffffffffffffffffffffffffffffffffffffffffffffffff03821115614e7f57614e7e614c0f565b5b828201905092915050565b6000614e9582613d57565b9150614ea083613d57565b925082821015614eb357614eb2614c0f565b5b828203905092915050565b7f4e487b7100000000000000000000000000000000000000000000000000000000600052603160045260246000fd5b6000614ef882613d57565b91507fffffffffffffffffffffffffffffffffffffffffffffffffffffffffffffffff821415614f2b57614f2a614c0f565b5b600182019050919050565b7f496e76616c696420636c61696d20616d6f756e74000000000000000000000000600082015250565b6000614f6c60148361493b565b9150614f7782614f36565b602082019050919050565b60006020820190508181036000830152614f9b81614f5f565b9050919050565b600060208284031215614fb857614fb7613cef565b5b6000614fc684828501614589565b91505092915050565b7f4e6f7420796f757220746f6b656e000000000000000000000000000000000000600082015250565b6000615005600e8361493b565b915061501082614fcf565b602082019050919050565b6000602082019050818103600083015261503481614ff8565b9050919050565b7f43616e6e6f7420636c61696d206265666f726520454f42000000000000000000600082015250565b600061507160178361493b565b915061507c8261503b565b602082019050919050565b600060208201905081810360008301526150a081615064565b9050919050565b600082825260208201905092915050565b6000819050919050565b6150cb81614143565b82525050565b60006150dd83836150c2565b60208301905092915050565b60006150f86020840184614589565b905092915050565b6000602082019050919050565b600061511983856150a7565b9350615124826150b8565b8060005b8581101561515d5761513a82846150e9565b61514488826150d1565b975061514f83615100565b925050600181019050615128565b5085925050509392505050565b600060608201905061517f6000830187613fda565b818103602083015261519281858761510d565b90506151a16040830184614187565b95945050505050565b6000815190506151b9816140d7565b92915050565b6000602082840312156151d5576151d4613cef565b5b60006151e3848285016151aa565b91505092915050565b7f446f206e6f74206c6f736520796f757220746f6b656e73000000000000000000600082015250565b600061522260178361493b565b915061522d826151ec565b602082019050919050565b6000602082019050818103600083015261525181615215565b9050919050565b600061527361526e61526984614143565b614053565b613d57565b9050919050565b61528381615258565b82525050565b600060208201905061529e600083018461527a565b92915050565b6000815190506152b381613d2b565b92915050565b6000602082840312156152cf576152ce613cef565b5b60006152dd848285016152a4565b91505092915050565b60006060820190506152fb6000830186613fda565b6153086020830185613fda565b615315604083018461527a565b949350505050565b7f4e6f7420656c696769626c650000000000000000000000000000000000000000600082015250565b6000615353600c8361493b565b915061535e8261531d565b602082019050919050565b6000602082019050818103600083015261538281615346565b9050919050565b7f4b69746368656e20737061636520726571756972656400000000000000000000600082015250565b60006153bf60168361493b565b91506153ca82615389565b602082019050919050565b600060208201905081810360008301526153ee816153b2565b9050919050565b7f4f776e61626c653a206e6577206f776e657220697320746865207a65726f206160008201527f6464726573730000000000000000000000000000000000000000000000000000602082015250565b600061545160268361493b565b915061545c826153f5565b604082019050919050565b6000602082019050818103600083015261548081615444565b9050919050565b7f496e697469616c697a61626c653a20636f6e7472616374206973206e6f74206960008201527f6e697469616c697a696e67000000000000000000000000000000000000000000602082015250565b60006154e3602b8361493b565b91506154ee82615487565b604082019050919050565b60006020820190508181036000830152615512816154d6565b9050919050565b7f5061757361626c653a206e6f7420706175736564000000000000000000000000600082015250565b600061554f60148361493b565b915061555a82615519565b602082019050919050565b6000602082019050818103600083015261557e81615542565b9050919050565b600082825260208201905092915050565b50565b60006155a6600083615585565b91506155b182615596565b600082019050919050565b60006080820190506155d16000830186613fda565b6155de6020830185613fda565b6155eb6040830184613f23565b81810360608301526155fc81615599565b9050949350505050565b600061561182613d57565b9150600082141561562557615624614c0f565b5b600182039050919050565b600081519050919050565b60005b8381101561565957808201518184015260208101905061563e565b83811115615668576000848401525b50505050565b600061567982615630565b615683818561493b565b935061569381856020860161563b565b61569c816141b1565b840191505092915050565b600060e0820190506156bc600083018a613f23565b6156c96020830189613f23565b6156d66040830188614187565b6156e36060830187613f87565b6156f06080830186613f87565b81810360a0830152615702818561566e565b905061571160c0830184613f23565b98975050505050505050565b600060c0820190506157326000830189613f23565b61573f6020830188613f23565b61574c6040830187614187565b6157596060830186613f87565b6157666080830185613f87565b81810360a0830152615778818461566e565b9050979650505050505050565b600060408201905061579a6000830185613fda565b6157a76020830184613f23565b9392505050565b60006060820190506157c36000830186613f23565b6157d06020830185613fda565b6157dd6040830184613f23565b949350505050565b7f4e487b7100000000000000000000000000000000000000000000000000000000600052601260045260246000fd5b600061581f82613d57565b915061582a83613d57565b92508261583a576158396157e5565b5b828204905092915050565b600060808201905061585a6000830187613f23565b6158676020830186613c87565b6158746040830185613c87565b6158816060830184613f23565b95945050505050565b600080fd5b600067ffffffffffffffff8211156158aa576158a96141c2565b5b6158b3826141b1565b9050602081019050919050565b60006158d36158ce8461588f565b614222565b9050828152602081018484840111156158ef576158ee61588a565b5b6158fa84828561563b565b509392505050565b600082601f83011261591757615916613d8d565b5b81516159278482602086016158c0565b91505092915050565b60008060006060848603121561594957615948613cef565b5b600061595786828701614a85565b935050602061596886828701614a85565b925050604084015167ffffffffffffffff81111561598957615988613cf4565b5b61599586828701615902565b9150509250925092565b60006159aa82613cb1565b91506159b583613cb1565b9250827f7fffffffffffffffffffffffffffffffffffffffffffffffffffffffffffffff04821160008413600084131616156159f4576159f3614c0f565b5b817f80000000000000000000000000000000000000000000000000000000000000000583126000841260008413161615615a3157615a30614c0f565b5b827f80000000000000000000000000000000000000000000000000000000000000000582126000841360008412161615615a6e57615a6d614c0f565b5b827f7fffffffffffffffffffffffffffffffffffffffffffffffffffffffffffffff0582126000841260008412161615615aab57615aaa614c0f565b5b828202905092915050565b6000615ac182613f7a565b9150615acc83613f7a565b925082821015615adf57615ade614c0f565b5b828203905092915050565b6000615af582613cb1565b9150615b0083613cb1565b925082615b1057615b0f6157e5565b5b600160000383147f800000000000000000000000000000000000000000000000000000000000000083141615615b4957615b48614c0f565b5b828205905092915050565b6000615b5f82613cb1565b9150615b6a83613cb1565b9250817f7fffffffffffffffffffffffffffffffffffffffffffffffffffffffffffffff03831360008312151615615ba557615ba4614c0f565b5b817f8000000000000000000000000000000000000000000000000000000000000000038312600083121615615bdd57615bdc614c0f565b5b82820190509291505056fea26469706673582212208b0fb5c1f9e1460c7d8bc23e98619090a6569972b7340e05c3826ba0232009bb64736f6c634300080a0033",
  "immutableReferences": {},
  "source": "// SPDX-License-Identifier: MIT\n\npragma solidity ^0.8.0;\n\nimport \"./Kitchen.sol\";\nimport \"./FastFood.sol\";\n\ncontract McStake is Kitchen {\n  FastFood foodToken; // Reference to the $FFOOD contract\n\n  function initialize(\n    address _character,\n    address _claim,\n    address _foodToken\n  ) external initializer {\n    __Ownable_init();\n    __Pausable_init();\n\n    unaccountedRewards = 0;\n    foodTokensPerRat = 0;\n    lastClaimTimestamp = 0;\n\n    character = Character(_character);\n    claim = IClaim(_claim);\n    foodToken = FastFood(_foodToken);\n  }\n\n  /**\n   * Allows DAO to update game parameters\n   */\n  function configure(\n    uint256 _foodTokenMaxSupply,\n    uint256[] memory _earningSettings, // dailyChefEarnings, ratTheftPercentage, vestingPeriod, accrualPeriod\n    int8[] memory _propertyIncrements, // dailySkillRate, dailyInsanityRate, dailyIntelligenceRate, dailyFatnessRate\n    uint8 _chefEfficiencyMultiplier,\n    int256 _ratEfficiencyMultiplier,\n    int256 _ratEfficiencyOffset,\n    uint8 _maxClaimsPerTx\n  ) external onlyOwner {\n    foodTokenMaxSupply = _foodTokenMaxSupply * 1 ether;\n    dailyChefEarnings = _earningSettings[0] * 1 ether;\n    ratTheftPercentage = _earningSettings[1];\n    vestingPeriod = _earningSettings[2];\n    accrualPeriod = _earningSettings[3];\n    dailySkillRate = _propertyIncrements[0];\n    dailyInsanityRate = _propertyIncrements[1];\n    dailyIntelligenceRate = _propertyIncrements[2];\n    dailyFatnessRate = _propertyIncrements[3];\n    chefEfficiencyMultiplier = _chefEfficiencyMultiplier;\n    ratEfficiencyMultiplier = _ratEfficiencyMultiplier;\n    ratEfficiencyOffset = _ratEfficiencyOffset;\n    maxClaimsPerTx = _maxClaimsPerTx;\n  }\n\n  /**\n   * Mints the given amount of food tokens in the user's account\n   * @param sender - User wallet address\n   * @param amount - Amount of food tokens to mint\n   */\n  function _mintFoodToken(address sender, uint256 amount) internal override {\n    foodToken.mint(sender, amount);\n  }\n}\n",
  "sourcePath": "/Users/chris/workspace/ratalert/ratalert-contracts/contracts/McStake.sol",
  "compiler": {
    "name": "solc",
    "version": "0.8.10+commit.fc410830.Emscripten.clang"
  },
  "schemaVersion": "3.4.6",
  "updatedAt": "2022-03-20T17:25:40.442Z",
  "networkType": "ethereum",
  "devdoc": {
    "kind": "dev",
    "methods": {
      "claimMany(uint16[],bool)": {
        "params": {
          "tokenIds": "- The IDs of the tokens in question",
          "unstake": "- Whether or not to unstake the given tokens"
        }
      },
      "fulfillClaimMany((bytes32,address,address,uint16[],bool),uint256)": {
        "params": {
          "randomness": "- Random value created by VRF",
          "v": "- VRF struct for the corresponding request"
        }
      },
      "getProperties(uint256)": {
        "params": {
          "tokenId": "- The ID of the token to check"
        },
        "returns": {
          "efficiency": "& tolerance values"
        }
      },
      "isChef(uint256)": {
        "params": {
          "tokenId": "- The ID of the token to check"
        },
        "returns": {
          "chef": "- Whether or not the token is a Chef"
        }
      },
      "owner()": {
        "details": "Returns the address of the current owner."
      },
      "paused()": {
        "details": "Returns true if the contract is paused, and false otherwise."
      },
      "renounceOwnership()": {
        "details": "Leaves the contract without owner. It will not be possible to call `onlyOwner` functions anymore. Can only be called by the current owner. NOTE: Renouncing ownership will leave the contract without an owner, thereby removing any functionality that is only available to the owner."
      },
      "stakeMany(address,uint16[])": {
        "params": {
          "account": "- The address of the staker",
          "tokenIds": "- The IDs of the Chefs & Rats to stake"
        }
      },
      "transferOwnership(address)": {
        "details": "Transfers ownership of the contract to a new account (`newOwner`). Can only be called by the current owner."
      }
    },
    "version": 1
  },
  "userdoc": {
    "kind": "user",
    "methods": {
      "claimMany(uint16[],bool)": {
        "notice": "ChainLink VRF request: Claims food token earnings, level-ups and optionally unstake characters"
      },
      "configure(uint256,uint256[],int8[],uint8,int256,int256,uint8)": {
        "notice": "Allows DAO to update game parameters"
      },
      "fulfillClaimMany((bytes32,address,address,uint16[],bool),uint256)": {
        "notice": "Callback for claimMany(), called by Claim.fulfillRandomness()"
      },
      "getProperties(uint256)": {
        "notice": "Get the character's properties"
      },
      "isChef(uint256)": {
        "notice": "Checks if the token is a Chef"
      },
      "stakeMany(address,uint16[])": {
        "notice": "Adds Chefs & Rats"
      }
    },
    "version": 1
  }
}