{
  "contractName": "McStake",
  "abi": [
    {
      "anonymous": false,
      "inputs": [
        {
          "indexed": false,
          "internalType": "uint256",
          "name": "tokenId",
          "type": "uint256"
        },
        {
          "indexed": false,
          "internalType": "uint256",
          "name": "earned",
          "type": "uint256"
        },
        {
          "indexed": false,
          "internalType": "bool",
          "name": "unstaked",
          "type": "bool"
        },
        {
          "indexed": false,
          "internalType": "uint8",
          "name": "skill",
          "type": "uint8"
        },
        {
          "indexed": false,
          "internalType": "uint8",
          "name": "insanity",
          "type": "uint8"
        },
        {
          "indexed": false,
          "internalType": "string",
          "name": "eventName",
          "type": "string"
        },
        {
          "indexed": false,
          "internalType": "uint256",
          "name": "foodTokensPerRat",
          "type": "uint256"
        }
      ],
      "name": "ChefClaimed",
      "type": "event"
    },
    {
      "anonymous": false,
      "inputs": [
        {
          "indexed": true,
          "internalType": "address",
          "name": "previousOwner",
          "type": "address"
        },
        {
          "indexed": true,
          "internalType": "address",
          "name": "newOwner",
          "type": "address"
        }
      ],
      "name": "OwnershipTransferred",
      "type": "event"
    },
    {
      "anonymous": false,
      "inputs": [
        {
          "indexed": false,
          "internalType": "address",
          "name": "account",
          "type": "address"
        }
      ],
      "name": "Paused",
      "type": "event"
    },
    {
      "anonymous": false,
      "inputs": [
        {
          "indexed": false,
          "internalType": "uint256",
          "name": "tokenId",
          "type": "uint256"
        },
        {
          "indexed": false,
          "internalType": "uint256",
          "name": "earned",
          "type": "uint256"
        },
        {
          "indexed": false,
          "internalType": "bool",
          "name": "unstaked",
          "type": "bool"
        },
        {
          "indexed": false,
          "internalType": "uint8",
          "name": "intelligence",
          "type": "uint8"
        },
        {
          "indexed": false,
          "internalType": "uint8",
          "name": "fatness",
          "type": "uint8"
        },
        {
          "indexed": false,
          "internalType": "string",
          "name": "eventName",
          "type": "string"
        }
      ],
      "name": "RatClaimed",
      "type": "event"
    },
    {
      "anonymous": false,
      "inputs": [
        {
          "indexed": false,
          "internalType": "uint256",
          "name": "tokenId",
          "type": "uint256"
        },
        {
          "indexed": false,
          "internalType": "address",
          "name": "owner",
          "type": "address"
        },
        {
          "indexed": false,
          "internalType": "uint256",
          "name": "value",
          "type": "uint256"
        }
      ],
      "name": "TokenStaked",
      "type": "event"
    },
    {
      "anonymous": false,
      "inputs": [
        {
          "indexed": false,
          "internalType": "address",
          "name": "account",
          "type": "address"
        }
      ],
      "name": "Unpaused",
      "type": "event"
    },
    {
      "inputs": [],
      "name": "accrualPeriod",
      "outputs": [
        {
          "internalType": "uint256",
          "name": "",
          "type": "uint256"
        }
      ],
      "stateMutability": "view",
      "type": "function",
      "constant": true
    },
    {
      "inputs": [],
      "name": "chefEfficiencyMultiplier",
      "outputs": [
        {
          "internalType": "uint8",
          "name": "",
          "type": "uint8"
        }
      ],
      "stateMutability": "view",
      "type": "function",
      "constant": true
    },
    {
      "inputs": [
        {
          "internalType": "uint256",
          "name": "",
          "type": "uint256"
        }
      ],
      "name": "chefs",
      "outputs": [
        {
          "internalType": "uint256",
          "name": "tokenId",
          "type": "uint256"
        },
        {
          "internalType": "address",
          "name": "owner",
          "type": "address"
        },
        {
          "internalType": "uint80",
          "name": "value",
          "type": "uint80"
        },
        {
          "internalType": "uint80",
          "name": "timestamp",
          "type": "uint80"
        }
      ],
      "stateMutability": "view",
      "type": "function",
      "constant": true
    },
    {
      "inputs": [],
      "name": "claim",
      "outputs": [
        {
          "internalType": "contract IClaim",
          "name": "",
          "type": "address"
        }
      ],
      "stateMutability": "view",
      "type": "function",
      "constant": true
    },
    {
      "inputs": [
        {
          "internalType": "uint16[]",
          "name": "tokenIds",
          "type": "uint16[]"
        },
        {
          "internalType": "bool",
          "name": "unstake",
          "type": "bool"
        }
      ],
      "name": "claimMany",
      "outputs": [],
      "stateMutability": "nonpayable",
      "type": "function"
    },
    {
      "inputs": [
        {
          "internalType": "bytes32",
          "name": "",
          "type": "bytes32"
        },
        {
          "internalType": "uint256",
          "name": "",
          "type": "uint256"
        }
      ],
      "name": "claimRequests",
      "outputs": [
        {
          "internalType": "uint16",
          "name": "",
          "type": "uint16"
        }
      ],
      "stateMutability": "view",
      "type": "function",
      "constant": true
    },
    {
      "inputs": [],
      "name": "dailyChefEarnings",
      "outputs": [
        {
          "internalType": "uint256",
          "name": "",
          "type": "uint256"
        }
      ],
      "stateMutability": "view",
      "type": "function",
      "constant": true
    },
    {
      "inputs": [],
      "name": "dailyFatnessRate",
      "outputs": [
        {
          "internalType": "int8",
          "name": "",
          "type": "int8"
        }
      ],
      "stateMutability": "view",
      "type": "function",
      "constant": true
    },
    {
      "inputs": [],
      "name": "dailyInsanityRate",
      "outputs": [
        {
          "internalType": "int8",
          "name": "",
          "type": "int8"
        }
      ],
      "stateMutability": "view",
      "type": "function",
      "constant": true
    },
    {
      "inputs": [],
      "name": "dailyIntelligenceRate",
      "outputs": [
        {
          "internalType": "int8",
          "name": "",
          "type": "int8"
        }
      ],
      "stateMutability": "view",
      "type": "function",
      "constant": true
    },
    {
      "inputs": [],
      "name": "dailySkillRate",
      "outputs": [
        {
          "internalType": "int8",
          "name": "",
          "type": "int8"
        }
      ],
      "stateMutability": "view",
      "type": "function",
      "constant": true
    },
    {
      "inputs": [],
      "name": "foodTokenMaxSupply",
      "outputs": [
        {
          "internalType": "uint256",
          "name": "",
          "type": "uint256"
        }
      ],
      "stateMutability": "view",
      "type": "function",
      "constant": true
    },
    {
      "inputs": [],
      "name": "foodTokensPerRat",
      "outputs": [
        {
          "internalType": "uint256",
          "name": "",
          "type": "uint256"
        }
      ],
      "stateMutability": "view",
      "type": "function",
      "constant": true
    },
    {
      "inputs": [
        {
          "components": [
            {
              "internalType": "bytes32",
              "name": "requestId",
              "type": "bytes32"
            },
            {
              "internalType": "address",
              "name": "venue",
              "type": "address"
            },
            {
              "internalType": "address",
              "name": "sender",
              "type": "address"
            },
            {
              "internalType": "uint16[]",
              "name": "tokenIds",
              "type": "uint16[]"
            },
            {
              "internalType": "bool",
              "name": "unstake",
              "type": "bool"
            }
          ],
          "internalType": "struct IClaim.VRFStruct",
          "name": "v",
          "type": "tuple"
        },
        {
          "internalType": "uint256",
          "name": "randomVal",
          "type": "uint256"
        }
      ],
      "name": "fulfillClaimMany",
      "outputs": [],
      "stateMutability": "nonpayable",
      "type": "function"
    },
    {
      "inputs": [
        {
          "internalType": "uint256",
          "name": "tokenId",
          "type": "uint256"
        }
      ],
      "name": "getProperties",
      "outputs": [
        {
          "internalType": "uint8",
          "name": "efficiency",
          "type": "uint8"
        },
        {
          "internalType": "uint8",
          "name": "tolerance",
          "type": "uint8"
        }
      ],
      "stateMutability": "view",
      "type": "function",
      "constant": true
    },
    {
      "inputs": [
        {
          "internalType": "uint256",
          "name": "tokenId",
          "type": "uint256"
        }
      ],
      "name": "isChef",
      "outputs": [
        {
          "internalType": "bool",
          "name": "chef",
          "type": "bool"
        }
      ],
      "stateMutability": "view",
      "type": "function",
      "constant": true
    },
    {
      "inputs": [],
      "name": "lastClaimTimestamp",
      "outputs": [
        {
          "internalType": "uint256",
          "name": "",
          "type": "uint256"
        }
      ],
      "stateMutability": "view",
      "type": "function",
      "constant": true
    },
    {
      "inputs": [
        {
          "internalType": "address",
          "name": "",
          "type": "address"
        },
        {
          "internalType": "address",
          "name": "from",
          "type": "address"
        },
        {
          "internalType": "uint256",
          "name": "",
          "type": "uint256"
        },
        {
          "internalType": "bytes",
          "name": "",
          "type": "bytes"
        }
      ],
      "name": "onERC721Received",
      "outputs": [
        {
          "internalType": "bytes4",
          "name": "",
          "type": "bytes4"
        }
      ],
      "stateMutability": "pure",
      "type": "function",
      "constant": true
    },
    {
      "inputs": [],
      "name": "owner",
      "outputs": [
        {
          "internalType": "address",
          "name": "",
          "type": "address"
        }
      ],
      "stateMutability": "view",
      "type": "function",
      "constant": true
    },
    {
      "inputs": [],
      "name": "paused",
      "outputs": [
        {
          "internalType": "bool",
          "name": "",
          "type": "bool"
        }
      ],
      "stateMutability": "view",
      "type": "function",
      "constant": true
    },
    {
      "inputs": [],
      "name": "ratEfficiencyMultiplier",
      "outputs": [
        {
          "internalType": "int256",
          "name": "",
          "type": "int256"
        }
      ],
      "stateMutability": "view",
      "type": "function",
      "constant": true
    },
    {
      "inputs": [],
      "name": "ratEfficiencyOffset",
      "outputs": [
        {
          "internalType": "int256",
          "name": "",
          "type": "int256"
        }
      ],
      "stateMutability": "view",
      "type": "function",
      "constant": true
    },
    {
      "inputs": [],
      "name": "ratTheftPercentage",
      "outputs": [
        {
          "internalType": "uint256",
          "name": "",
          "type": "uint256"
        }
      ],
      "stateMutability": "view",
      "type": "function",
      "constant": true
    },
    {
      "inputs": [
        {
          "internalType": "uint256",
          "name": "",
          "type": "uint256"
        }
      ],
      "name": "rats",
      "outputs": [
        {
          "internalType": "uint256",
          "name": "tokenId",
          "type": "uint256"
        },
        {
          "internalType": "address",
          "name": "owner",
          "type": "address"
        },
        {
          "internalType": "uint80",
          "name": "value",
          "type": "uint80"
        },
        {
          "internalType": "uint80",
          "name": "timestamp",
          "type": "uint80"
        }
      ],
      "stateMutability": "view",
      "type": "function",
      "constant": true
    },
    {
      "inputs": [],
      "name": "renounceOwnership",
      "outputs": [],
      "stateMutability": "nonpayable",
      "type": "function"
    },
    {
      "inputs": [
        {
          "internalType": "address",
          "name": "account",
          "type": "address"
        },
        {
          "internalType": "uint16[]",
          "name": "tokenIds",
          "type": "uint16[]"
        }
      ],
      "name": "stakeMany",
      "outputs": [],
      "stateMutability": "nonpayable",
      "type": "function"
    },
    {
      "inputs": [
        {
          "internalType": "address",
          "name": "",
          "type": "address"
        },
        {
          "internalType": "uint256",
          "name": "",
          "type": "uint256"
        }
      ],
      "name": "stakers",
      "outputs": [
        {
          "internalType": "uint256",
          "name": "",
          "type": "uint256"
        }
      ],
      "stateMutability": "view",
      "type": "function",
      "constant": true
    },
    {
      "inputs": [],
      "name": "totalChefsStaked",
      "outputs": [
        {
          "internalType": "uint256",
          "name": "",
          "type": "uint256"
        }
      ],
      "stateMutability": "view",
      "type": "function",
      "constant": true
    },
    {
      "inputs": [],
      "name": "totalFoodTokensEarned",
      "outputs": [
        {
          "internalType": "uint256",
          "name": "",
          "type": "uint256"
        }
      ],
      "stateMutability": "view",
      "type": "function",
      "constant": true
    },
    {
      "inputs": [],
      "name": "totalRatsStaked",
      "outputs": [
        {
          "internalType": "uint256",
          "name": "",
          "type": "uint256"
        }
      ],
      "stateMutability": "view",
      "type": "function",
      "constant": true
    },
    {
      "inputs": [
        {
          "internalType": "address",
          "name": "newOwner",
          "type": "address"
        }
      ],
      "name": "transferOwnership",
      "outputs": [],
      "stateMutability": "nonpayable",
      "type": "function"
    },
    {
      "inputs": [],
      "name": "unaccountedRewards",
      "outputs": [
        {
          "internalType": "uint256",
          "name": "",
          "type": "uint256"
        }
      ],
      "stateMutability": "view",
      "type": "function",
      "constant": true
    },
    {
      "inputs": [],
      "name": "vestingPeriod",
      "outputs": [
        {
          "internalType": "uint256",
          "name": "",
          "type": "uint256"
        }
      ],
      "stateMutability": "view",
      "type": "function",
      "constant": true
    },
    {
      "inputs": [
        {
          "internalType": "address[]",
          "name": "_addresses",
          "type": "address[]"
        },
        {
          "internalType": "uint256",
          "name": "_foodTokenMaxSupply",
          "type": "uint256"
        },
        {
          "internalType": "uint256[]",
          "name": "_earningSettings",
          "type": "uint256[]"
        },
        {
          "internalType": "int8[]",
          "name": "_propertyIncrements",
          "type": "int8[]"
        },
        {
          "internalType": "uint8",
          "name": "_chefEfficiencyMultiplier",
          "type": "uint8"
        },
        {
          "internalType": "int256",
          "name": "_ratEfficiencyMultiplier",
          "type": "int256"
        },
        {
          "internalType": "int256",
          "name": "_ratEfficiencyOffset",
          "type": "int256"
        }
      ],
      "name": "initialize",
      "outputs": [],
      "stateMutability": "nonpayable",
      "type": "function"
    },
    {
      "inputs": [
        {
          "internalType": "address[]",
          "name": "_addresses",
          "type": "address[]"
        },
        {
          "internalType": "uint256",
          "name": "_accrualPeriod",
          "type": "uint256"
        }
      ],
      "name": "initialize",
      "outputs": [],
      "stateMutability": "nonpayable",
      "type": "function"
    },
    {
      "inputs": [],
      "name": "initialize",
      "outputs": [],
      "stateMutability": "nonpayable",
      "type": "function"
    }
  ],
  "bytecode": "0x608060405234801561001057600080fd5b5061582080620000216000396000f3fe608060405234801561001057600080fd5b506004361061021c5760003560e01c80637313ee5a11610125578063c8b6cbf7116100ad578063dbdc1f6b1161007c578063dbdc1f6b14610606578063ef9f800f14610622578063f266674614610652578063f2fde38b14610670578063f66641551461068c5761021c565b8063c8b6cbf71461057c578063cba88af8146105ac578063d7178ac6146105ca578063d8dda92e146105e85761021c565b8063922a1802116100f4578063922a1802146104ea578063a262c0ad14610506578063a7a1029014610524578063bdb6294114610540578063c0c472c01461055e5761021c565b80637313ee5a146104865780638129fc1c146104a45780638da5cb5b146104ae57806391ba3f3f146104cc5761021c565b806335ec066e116101a8578063525e915b11610177578063525e915b146103f45780635c975abb14610424578063607af3971461044257806360b5bb3f14610460578063715018a61461047c5761021c565b806335ec066e14610352578063499f8010146103855780634d1c61af146103a35780634e71d92d146103d65761021c565b80631b4d47a1116101ef5780631b4d47a1146102a95780631b8ca217146102c75780632535a77f146102f85780632d79320b146103165780632e2ce28b146103345761021c565b8063087c3e381461022157806310d53df11461023d578063138e6ad51461025b578063150b7a0214610279575b600080fd5b61023b60048036038101906102369190613d41565b6106aa565b005b610245610a93565b6040516102529190613e46565b60405180910390f35b610263610aa6565b6040516102709190613e70565b60405180910390f35b610293600480360381019061028e9190613ee6565b610aac565b6040516102a09190613fa9565b60405180910390f35b6102b1610b2f565b6040516102be9190613fd3565b60405180910390f35b6102e160048036038101906102dc9190613fee565b610b35565b6040516102ef92919061402a565b60405180910390f35b610300610c16565b60405161030d9190613fd3565b60405180910390f35b61031e610c1c565b60405161032b9190614053565b60405180910390f35b61033c610c2f565b6040516103499190613fd3565b60405180910390f35b61036c60048036038101906103679190613fee565b610c35565b60405161037c94939291906140a2565b60405180910390f35b61038d610cb1565b60405161039a9190613fd3565b60405180910390f35b6103bd60048036038101906103b89190613fee565b610cb7565b6040516103cd94939291906140a2565b60405180910390f35b6103de610d33565b6040516103eb9190614146565b60405180910390f35b61040e60048036038101906104099190614197565b610d59565b60405161041b91906141f4565b60405180910390f35b61042c610da0565b604051610439919061422a565b60405180910390f35b61044a610db7565b6040516104579190613fd3565b60405180910390f35b61047a60048036038101906104759190614245565b610dbd565b005b610484610fee565b005b61048e611076565b60405161049b9190613fd3565b60405180910390f35b6104ac61107c565b005b6104b6611170565b6040516104c391906142a1565b60405180910390f35b6104d461119a565b6040516104e19190613fd3565b60405180910390f35b61050460048036038101906104ff9190614489565b6111a0565b005b61050e61170c565b60405161051b9190613e46565b60405180910390f35b61053e6004803603810190610539919061453b565b61171f565b005b610548611ad4565b6040516105559190613e46565b60405180910390f35b610566611ae7565b6040516105739190613fd3565b60405180910390f35b6105966004803603810190610591919061459b565b611aed565b6040516105a39190613fd3565b60405180910390f35b6105b4611b1e565b6040516105c19190613e46565b60405180910390f35b6105d2611b31565b6040516105df9190613e70565b60405180910390f35b6105f0611b37565b6040516105fd9190613fd3565b60405180910390f35b610620600480360381019061061b91906145db565b611b3d565b005b61063c60048036038101906106379190613fee565b6120ca565b604051610649919061422a565b60405180910390f35b61065a61219f565b6040516106679190613fd3565b60405180910390f35b61068a6004803603810190610685919061463b565b6121a5565b005b61069461229d565b6040516106a19190613fd3565b60405180910390f35b600060019054906101000a900460ff166106d25760008054906101000a900460ff16156106db565b6106da6122a3565b5b61071a576040517f08c379a0000000000000000000000000000000000000000000000000000000008152600401610711906146eb565b60405180910390fd5b60008060019054906101000a900460ff16159050801561076a576001600060016101000a81548160ff02191690831515021790555060016000806101000a81548160ff0219169083151502179055505b6107726122b4565b61077a612315565b600060a681905550600060a181905550600060a881905550876000815181106107a6576107a561470b565b5b6020026020010151609760006101000a81548173ffffffffffffffffffffffffffffffffffffffff021916908373ffffffffffffffffffffffffffffffffffffffff160217905550876001815181106108025761080161470b565b5b6020026020010151609860006101000a81548173ffffffffffffffffffffffffffffffffffffffff021916908373ffffffffffffffffffffffffffffffffffffffff1602179055508760028151811061085e5761085d61470b565b5b602002602001015160ac60006101000a81548173ffffffffffffffffffffffffffffffffffffffff021916908373ffffffffffffffffffffffffffffffffffffffff160217905550670de0b6b3a7640000876108ba9190614769565b60a381905550670de0b6b3a7640000866000815181106108dd576108dc61470b565b5b60200260200101516108ef9190614769565b60a481905550856001815181106109095761090861470b565b5b602002602001015160a5819055508560028151811061092b5761092a61470b565b5b602002602001015160a2819055508560038151811061094d5761094c61470b565b5b602002602001015160a0819055508460008151811061096f5761096e61470b565b5b6020026020010151609d60006101000a81548160ff021916908360000b60ff160217905550846001815181106109a8576109a761470b565b5b6020026020010151609d60016101000a81548160ff021916908360000b60ff160217905550846002815181106109e1576109e061470b565b5b6020026020010151609d60026101000a81548160ff021916908360000b60ff16021790555084600381518110610a1a57610a1961470b565b5b6020026020010151609d60036101000a81548160ff021916908360000b60ff1602179055508360a960006101000a81548160ff021916908360ff1602179055508260aa819055508160ab819055508015610a895760008060016101000a81548160ff0219169083151502179055505b5050505050505050565b609d60009054906101000a900460000b81565b60aa5481565b60008073ffffffffffffffffffffffffffffffffffffffff168573ffffffffffffffffffffffffffffffffffffffff1614610b1c576040517f08c379a0000000000000000000000000000000000000000000000000000000008152600401610b1390614835565b60405180910390fd5b63150b7a0260e01b905095945050505050565b60a35481565b600080609760009054906101000a900473ffffffffffffffffffffffffffffffffffffffff1673ffffffffffffffffffffffffffffffffffffffff1663e05c57bf846040518263ffffffff1660e01b8152600401610b939190613fd3565b61014060405180830381865afa158015610bb1573d6000803e3d6000fd5b505050506040513d601f19601f82011682018060405250810190610bd5919061487f565b909192939495969798509091929394959697509091929394959650909192939495509091929394509091929350909192509091508092508193505050915091565b60a15481565b60a960009054906101000a900460ff1681565b60a55481565b609a6020528060005260406000206000915090508060000154908060010160009054906101000a900473ffffffffffffffffffffffffffffffffffffffff16908060010160149054906101000a900469ffffffffffffffffffff16908060020160009054906101000a900469ffffffffffffffffffff16905084565b609f5481565b60996020528060005260406000206000915090508060000154908060010160009054906101000a900473ffffffffffffffffffffffffffffffffffffffff16908060010160149054906101000a900469ffffffffffffffffffff16908060020160009054906101000a900469ffffffffffffffffffff16905084565b609860009054906101000a900473ffffffffffffffffffffffffffffffffffffffff1681565b609c6020528160005260406000208181548110610d7557600080fd5b9060005260206000209060109182820401919006600202915091509054906101000a900461ffff1681565b6000606560009054906101000a900460ff16905090565b60a85481565b600060019054906101000a900460ff16610de55760008054906101000a900460ff1615610dee565b610ded6122a3565b5b610e2d576040517f08c379a0000000000000000000000000000000000000000000000000000000008152600401610e24906146eb565b60405180910390fd5b60008060019054906101000a900460ff161590508015610e7d576001600060016101000a81548160ff02191690831515021790555060016000806101000a81548160ff0219169083151502179055505b610e856122b4565b610e8d612315565b82600081518110610ea157610ea061470b565b5b6020026020010151609760006101000a81548173ffffffffffffffffffffffffffffffffffffffff021916908373ffffffffffffffffffffffffffffffffffffffff16021790555082600181518110610efd57610efc61470b565b5b6020026020010151609860006101000a81548173ffffffffffffffffffffffffffffffffffffffff021916908373ffffffffffffffffffffffffffffffffffffffff1602179055508160a0819055506000609d60006101000a81548160ff021916908360000b60ff1602179055506000609d60016101000a81548160ff021916908360000b60ff1602179055506000609d60026101000a81548160ff021916908360000b60ff1602179055506000609d60036101000a81548160ff021916908360000b60ff1602179055508015610fe95760008060016101000a81548160ff0219169083151502179055505b505050565b610ff6612376565b73ffffffffffffffffffffffffffffffffffffffff16611014611170565b73ffffffffffffffffffffffffffffffffffffffff161461106a576040517f08c379a0000000000000000000000000000000000000000000000000000000008152600401611061906149aa565b60405180910390fd5b611074600061237e565b565b60a25481565b600060019054906101000a900460ff166110a45760008054906101000a900460ff16156110ad565b6110ac6122a3565b5b6110ec576040517f08c379a00000000000000000000000000000000000000000000000000000000081526004016110e3906146eb565b60405180910390fd5b60008060019054906101000a900460ff16159050801561113c576001600060016101000a81548160ff02191690831515021790555060016000806101000a81548160ff0219169083151502179055505b6111446122b4565b61114c612315565b801561116d5760008060016101000a81548160ff0219169083151502179055505b50565b6000603360009054906101000a900473ffffffffffffffffffffffffffffffffffffffff16905090565b60a45481565b6111a8610da0565b156111e8576040517f08c379a00000000000000000000000000000000000000000000000000000000081526004016111df90614a16565b60405180910390fd5b609860009054906101000a900473ffffffffffffffffffffffffffffffffffffffff1673ffffffffffffffffffffffffffffffffffffffff163373ffffffffffffffffffffffffffffffffffffffff1614611278576040517f08c379a000000000000000000000000000000000000000000000000000000000815260040161126f90614a82565b60405180910390fd5b6000609c60008460000151815260200190815260200160002080549050116112d5576040517f08c379a00000000000000000000000000000000000000000000000000000000081526004016112cc90614aee565b60405180910390fd5b6000609c60008460000151815260200190815260200160002080548060200260200160405190810160405280929190818152602001828054801561136057602002820191906000526020600020906000905b82829054906101000a900461ffff1661ffff16815260200190600201906020826001010492830192600103820291508084116113275790505b50505050509050609c600084600001518152602001908152602001600020600061138a919061381f565b6000805b82518110156116ed5760006113a886604001516000612444565b90506113d18483815181106113c0576113bf61470b565b5b602002602001015161ffff166120ca565b15611425576114138483815181106113ec576113eb61470b565b5b602002602001015161ffff16876040015183158061140b575088608001515b841589612450565b8361141e9190614b0e565b9250611470565b61146284838151811061143b5761143a61470b565b5b602002602001015161ffff16876040015183158061145a575088608001515b8415896128fa565b8361146d9190614b0e565b92505b60005b609b6000886040015173ffffffffffffffffffffffffffffffffffffffff1673ffffffffffffffffffffffffffffffffffffffff168152602001908152602001600020805490508110156116d8578483815181106114d4576114d361470b565b5b602002602001015161ffff16609b6000896040015173ffffffffffffffffffffffffffffffffffffffff1673ffffffffffffffffffffffffffffffffffffffff16815260200190815260200160002082815481106115355761153461470b565b5b906000526020600020015414156116c557609b6000886040015173ffffffffffffffffffffffffffffffffffffffff1673ffffffffffffffffffffffffffffffffffffffff1681526020019081526020016000206001609b60008a6040015173ffffffffffffffffffffffffffffffffffffffff1673ffffffffffffffffffffffffffffffffffffffff168152602001908152602001600020805490506115dc9190614b64565b815481106115ed576115ec61470b565b5b9060005260206000200154609b6000896040015173ffffffffffffffffffffffffffffffffffffffff1673ffffffffffffffffffffffffffffffffffffffff168152602001908152602001600020828154811061164d5761164c61470b565b5b9060005260206000200181905550609b6000886040015173ffffffffffffffffffffffffffffffffffffffff1673ffffffffffffffffffffffffffffffffffffffff1681526020019081526020016000208054806116ae576116ad614b98565b5b600190038181906000526020600020016000905590555b80806116d090614bc7565b915050611473565b505080806116e590614bc7565b91505061138e565b50600081111561170657611705846040015182612da7565b5b50505050565b609d60029054906101000a900460000b81565b611727610da0565b15611767576040517f08c379a000000000000000000000000000000000000000000000000000000000815260040161175e90614a16565b60405180910390fd5b60005b838390508110156119fb5760006117ab85858481811061178d5761178c61470b565b5b90506020020160208101906117a29190614c10565b61ffff166120ca565b6117f257609a60008686858181106117c6576117c561470b565b5b90506020020160208101906117db9190614c10565b61ffff168152602001908152602001600020611831565b609960008686858181106118095761180861470b565b5b905060200201602081019061181e9190614c10565b61ffff1681526020019081526020016000205b604051806080016040529081600082015481526020016001820160009054906101000a900473ffffffffffffffffffffffffffffffffffffffff1673ffffffffffffffffffffffffffffffffffffffff1673ffffffffffffffffffffffffffffffffffffffff1681526020016001820160149054906101000a900469ffffffffffffffffffff1669ffffffffffffffffffff1669ffffffffffffffffffff1681526020016002820160009054906101000a900469ffffffffffffffffffff1669ffffffffffffffffffff1669ffffffffffffffffffff16815250509050611916612376565b73ffffffffffffffffffffffffffffffffffffffff16816020015173ffffffffffffffffffffffffffffffffffffffff1614611987576040517f08c379a000000000000000000000000000000000000000000000000000000000815260040161197e90614c89565b60405180910390fd5b60a254816060015169ffffffffffffffffffff16426119a69190614b64565b10156119e7576040517f08c379a00000000000000000000000000000000000000000000000000000000081526004016119de90614cf5565b60405180910390fd5b5080806119f390614bc7565b91505061176a565b506000609860009054906101000a900473ffffffffffffffffffffffffffffffffffffffff1673ffffffffffffffffffffffffffffffffffffffff16635bdf263c611a44612376565b8686866040518563ffffffff1660e01b8152600401611a669493929190614dd8565b6020604051808303816000875af1158015611a85573d6000803e3d6000fd5b505050506040513d601f19601f82011682018060405250810190611aa99190614e2d565b90508383609c60008481526020019081526020016000209190611acd929190613847565b5050505050565b609d60019054906101000a900460000b81565b60a65481565b609b6020528160005260406000208181548110611b0957600080fd5b90600052602060002001600091509150505481565b609d60039054906101000a900460000b81565b60ab5481565b60a75481565b611b45612376565b73ffffffffffffffffffffffffffffffffffffffff168373ffffffffffffffffffffffffffffffffffffffff161480611bd25750609760009054906101000a900473ffffffffffffffffffffffffffffffffffffffff1673ffffffffffffffffffffffffffffffffffffffff16611bba612376565b73ffffffffffffffffffffffffffffffffffffffff16145b611c11576040517f08c379a0000000000000000000000000000000000000000000000000000000008152600401611c0890614ea6565b60405180910390fd5b611c25611c1c612376565b83839050612444565b611c64576040517f08c379a0000000000000000000000000000000000000000000000000000000008152600401611c5b90614f12565b60405180910390fd5b60005b828290508110156120c457609760009054906101000a900473ffffffffffffffffffffffffffffffffffffffff1673ffffffffffffffffffffffffffffffffffffffff16611cb3612376565b73ffffffffffffffffffffffffffffffffffffffff1614611ec957611cd6612376565b73ffffffffffffffffffffffffffffffffffffffff16609760009054906101000a900473ffffffffffffffffffffffffffffffffffffffff1673ffffffffffffffffffffffffffffffffffffffff16636352211e858585818110611d3d57611d3c61470b565b5b9050602002016020810190611d529190614c10565b6040518263ffffffff1660e01b8152600401611d6e9190614f63565b602060405180830381865afa158015611d8b573d6000803e3d6000fd5b505050506040513d601f19601f82011682018060405250810190611daf9190614f93565b73ffffffffffffffffffffffffffffffffffffffff1614611e05576040517f08c379a0000000000000000000000000000000000000000000000000000000008152600401611dfc90614c89565b60405180910390fd5b609760009054906101000a900473ffffffffffffffffffffffffffffffffffffffff1673ffffffffffffffffffffffffffffffffffffffff166323b872dd611e4b612376565b30868686818110611e5f57611e5e61470b565b5b9050602002016020810190611e749190614c10565b6040518463ffffffff1660e01b8152600401611e9293929190614fc0565b600060405180830381600087803b158015611eac57600080fd5b505af1158015611ec0573d6000803e3d6000fd5b50505050611f03565b6000838383818110611ede57611edd61470b565b5b9050602002016020810190611ef39190614c10565b61ffff161415611f02576120b1565b5b611f37838383818110611f1957611f1861470b565b5b9050602002016020810190611f2e9190614c10565b61ffff16612e3a565b611f76576040517f08c379a0000000000000000000000000000000000000000000000000000000008152600401611f6d90615043565b60405180910390fd5b611faa838383818110611f8c57611f8b61470b565b5b9050602002016020810190611fa19190614c10565b61ffff166120ca565b15611fe957611fe484848484818110611fc657611fc561470b565b5b9050602002016020810190611fdb9190614c10565b61ffff16612e45565b61201f565b61201e8484848481811061200057611fff61470b565b5b90506020020160208101906120159190614c10565b61ffff16613004565b5b609b60008573ffffffffffffffffffffffffffffffffffffffff1673ffffffffffffffffffffffffffffffffffffffff1681526020019081526020016000208383838181106120715761207061470b565b5b90506020020160208101906120869190614c10565b908060018154018082558091505060019003906000526020600020016000909161ffff169091909150555b80806120bc90614bc7565b915050611c67565b50505050565b6000609760009054906101000a900473ffffffffffffffffffffffffffffffffffffffff1673ffffffffffffffffffffffffffffffffffffffff1663e05c57bf836040518263ffffffff1660e01b81526004016121279190613fd3565b61014060405180830381865afa158015612145573d6000803e3d6000fd5b505050506040513d601f19601f82011682018060405250810190612169919061487f565b90919293949596975090919293949596509091929394955090919293945090919293509091925090915090505080915050919050565b609e5481565b6121ad612376565b73ffffffffffffffffffffffffffffffffffffffff166121cb611170565b73ffffffffffffffffffffffffffffffffffffffff1614612221576040517f08c379a0000000000000000000000000000000000000000000000000000000008152600401612218906149aa565b60405180910390fd5b600073ffffffffffffffffffffffffffffffffffffffff168173ffffffffffffffffffffffffffffffffffffffff161415612291576040517f08c379a0000000000000000000000000000000000000000000000000000000008152600401612288906150d5565b60405180910390fd5b61229a8161237e565b50565b60a05481565b60006122ae306131cc565b15905090565b600060019054906101000a900460ff16612303576040517f08c379a00000000000000000000000000000000000000000000000000000000081526004016122fa90615167565b60405180910390fd5b61230b6131df565b612313613230565b565b600060019054906101000a900460ff16612364576040517f08c379a000000000000000000000000000000000000000000000000000000000815260040161235b90615167565b60405180910390fd5b61236c6131df565b612374613291565b565b600033905090565b6000603360009054906101000a900473ffffffffffffffffffffffffffffffffffffffff16905081603360006101000a81548173ffffffffffffffffffffffffffffffffffffffff021916908373ffffffffffffffffffffffffffffffffffffffff1602179055508173ffffffffffffffffffffffffffffffffffffffff168173ffffffffffffffffffffffffffffffffffffffff167f8be0079c531659141344cd1fd0a4f28419497f9722a3daafe3b4186f6b6457e060405160405180910390a35050565b60006001905092915050565b60008060996000888152602001908152602001600020604051806080016040529081600082015481526020016001820160009054906101000a900473ffffffffffffffffffffffffffffffffffffffff1673ffffffffffffffffffffffffffffffffffffffff1673ffffffffffffffffffffffffffffffffffffffff1681526020016001820160149054906101000a900469ffffffffffffffffffff1669ffffffffffffffffffff1669ffffffffffffffffffff1681526020016002820160009054906101000a900469ffffffffffffffffffff1669ffffffffffffffffffff1669ffffffffffffffffffff168152505090508573ffffffffffffffffffffffffffffffffffffffff16816020015173ffffffffffffffffffffffffffffffffffffffff16146125b5576040517f08c379a00000000000000000000000000000000000000000000000000000000081526004016125ac90614c89565b60405180910390fd5b60a254816060015169ffffffffffffffffffff16426125d49190614b64565b1015612615576040517f08c379a000000000000000000000000000000000000000000000000000000000815260040161260c90614cf5565b60405180910390fd5b8361262857612623816132fd565b61262b565b60005b9150600080600061263c8a8761344b565b92509250925061264b8a612e3a565b61265457600197505b871561278757609760009054906101000a900473ffffffffffffffffffffffffffffffffffffffff1673ffffffffffffffffffffffffffffffffffffffff1663b88d4fde308b8d6040518463ffffffff1660e01b81526004016126b9939291906151be565b600060405180830381600087803b1580156126d357600080fd5b505af11580156126e7573d6000803e3d6000fd5b50505050609960008b81526020019081526020016000206000808201600090556001820160006101000a81549073ffffffffffffffffffffffffffffffffffffffff02191690556001820160146101000a81549069ffffffffffffffffffff02191690556002820160006101000a81549069ffffffffffffffffffff02191690555050609e600081548092919061277d90615208565b91905055506128a8565b60405180608001604052808b61ffff1681526020018a73ffffffffffffffffffffffffffffffffffffffff1681526020014269ffffffffffffffffffff1681526020014269ffffffffffffffffffff16815250609960008c81526020019081526020016000206000820151816000015560208201518160010160006101000a81548173ffffffffffffffffffffffffffffffffffffffff021916908373ffffffffffffffffffffffffffffffffffffffff16021790555060408201518160010160146101000a81548169ffffffffffffffffffff021916908369ffffffffffffffffffff16021790555060608201518160020160006101000a81548169ffffffffffffffffffff021916908369ffffffffffffffffffff1602179055509050505b7f9b394c66bc4fdb2f56f5842a796076e6552d6f15eaacb6e63e3c53b474d872e98a868a86868660a1546040516128e597969594939291906152a9565b60405180910390a15050505095945050505050565b600080609a6000888152602001908152602001600020604051806080016040529081600082015481526020016001820160009054906101000a900473ffffffffffffffffffffffffffffffffffffffff1673ffffffffffffffffffffffffffffffffffffffff1673ffffffffffffffffffffffffffffffffffffffff1681526020016001820160149054906101000a900469ffffffffffffffffffff1669ffffffffffffffffffff1669ffffffffffffffffffff1681526020016002820160009054906101000a900469ffffffffffffffffffff1669ffffffffffffffffffff1669ffffffffffffffffffff168152505090508573ffffffffffffffffffffffffffffffffffffffff16816020015173ffffffffffffffffffffffffffffffffffffffff1614612a5f576040517f08c379a0000000000000000000000000000000000000000000000000000000008152600401612a5690614c89565b60405180910390fd5b60a254816060015169ffffffffffffffffffff1642612a7e9190614b64565b1015612abf576040517f08c379a0000000000000000000000000000000000000000000000000000000008152600401612ab690614cf5565b60405180910390fd5b83612ad257612acd81613609565b612ad5565b60005b91506000806000612ae68a8761344b565b925092509250612af58a612e3a565b612afe57600197505b8715612c3157609760009054906101000a900473ffffffffffffffffffffffffffffffffffffffff1673ffffffffffffffffffffffffffffffffffffffff1663b88d4fde308b8d6040518463ffffffff1660e01b8152600401612b63939291906151be565b600060405180830381600087803b158015612b7d57600080fd5b505af1158015612b91573d6000803e3d6000fd5b50505050609a60008b81526020019081526020016000206000808201600090556001820160006101000a81549073ffffffffffffffffffffffffffffffffffffffff02191690556001820160146101000a81549069ffffffffffffffffffff02191690556002820160006101000a81549069ffffffffffffffffffff02191690555050609f6000815480929190612c2790615208565b9190505550612d59565b60405180608001604052808b61ffff1681526020018a73ffffffffffffffffffffffffffffffffffffffff168152602001612c6a61371d565b69ffffffffffffffffffff1681526020014269ffffffffffffffffffff16815250609a60008c81526020019081526020016000206000820151816000015560208201518160010160006101000a81548173ffffffffffffffffffffffffffffffffffffffff021916908373ffffffffffffffffffffffffffffffffffffffff16021790555060408201518160010160146101000a81548169ffffffffffffffffffff021916908369ffffffffffffffffffff16021790555060608201518160020160006101000a81548169ffffffffffffffffffff021916908369ffffffffffffffffffff1602179055509050505b7f6e949c62565860afb9dd6295e998a1c40005fe9560aedf8d596717681cfc7a1f8a868a868686604051612d929695949392919061531f565b60405180910390a15050505095945050505050565b60ac60009054906101000a900473ffffffffffffffffffffffffffffffffffffffff1673ffffffffffffffffffffffffffffffffffffffff166340c10f1983836040518363ffffffff1660e01b8152600401612e04929190615387565b600060405180830381600087803b158015612e1e57600080fd5b505af1158015612e32573d6000803e3d6000fd5b505050505050565b600060019050919050565b612e4d610da0565b15612e8d576040517f08c379a0000000000000000000000000000000000000000000000000000000008152600401612e8490614a16565b60405180910390fd5b60405180608001604052808261ffff1681526020018373ffffffffffffffffffffffffffffffffffffffff1681526020014269ffffffffffffffffffff1681526020014269ffffffffffffffffffff16815250609960008381526020019081526020016000206000820151816000015560208201518160010160006101000a81548173ffffffffffffffffffffffffffffffffffffffff021916908373ffffffffffffffffffffffffffffffffffffffff16021790555060408201518160010160146101000a81548169ffffffffffffffffffff021916908369ffffffffffffffffffff16021790555060608201518160020160006101000a81548169ffffffffffffffffffff021916908369ffffffffffffffffffff160217905550905050609e6000815480929190612fc090614bc7565b91905055507f8af1bb49fb16c7835975aa59449ba4328dd54737dfb2ae9fa6c5eca71fda51f9818342604051612ff8939291906153b0565b60405180910390a15050565b61300c610da0565b1561304c576040517f08c379a000000000000000000000000000000000000000000000000000000000815260040161304390614a16565b60405180910390fd5b60405180608001604052808261ffff1681526020018373ffffffffffffffffffffffffffffffffffffffff16815260200161308561371d565b69ffffffffffffffffffff1681526020014269ffffffffffffffffffff16815250609a60008381526020019081526020016000206000820151816000015560208201518160010160006101000a81548173ffffffffffffffffffffffffffffffffffffffff021916908373ffffffffffffffffffffffffffffffffffffffff16021790555060408201518160010160146101000a81548169ffffffffffffffffffff021916908369ffffffffffffffffffff16021790555060608201518160020160006101000a81548169ffffffffffffffffffff021916908369ffffffffffffffffffff160217905550905050609f600081548092919061318690614bc7565b91905055507f8af1bb49fb16c7835975aa59449ba4328dd54737dfb2ae9fa6c5eca71fda51f9818360a1546040516131c0939291906153b0565b60405180910390a15050565b600080823b905060008111915050919050565b600060019054906101000a900460ff1661322e576040517f08c379a000000000000000000000000000000000000000000000000000000000815260040161322590615167565b60405180910390fd5b565b600060019054906101000a900460ff1661327f576040517f08c379a000000000000000000000000000000000000000000000000000000000815260040161327690615167565b60405180910390fd5b61328f61328a612376565b61237e565b565b600060019054906101000a900460ff166132e0576040517f08c379a00000000000000000000000000000000000000000000000000000000081526004016132d790615167565b60405180910390fd5b6000606560006101000a81548160ff021916908315150217905550565b60008061330d8360000151610b35565b509050600060a054846040015169ffffffffffffffffffff16426133319190614b64565b60a45461333e9190614769565b6133489190615416565b90506000600a60a960009054906101000a900460ff1660ff168460ff1661336f9190614769565b6133799190614769565b620186a06133879190614b0e565b9050620186a081836133999190614769565b6133a39190615416565b935060a3548460a7546133b69190614b0e565b11156133cf5760a75460a3546133cc9190614b64565b93505b6000841115613443574260a881905550613401606460a554866133f29190614769565b6133fc9190615416565b613727565b606460a55460646134129190614b64565b8561341d9190614769565b6134279190615416565b93508360a7600082825461343b9190614b0e565b925050819055505b505050919050565b6000806060600061345b866120ca565b61349157609a600087815260200190815260200160002060020160009054906101000a900469ffffffffffffffffffff166134bf565b6099600087815260200190815260200160002060020160009054906101000a900469ffffffffffffffffffff165b69ffffffffffffffffffff16426134d69190614b64565b905060006134e3876120ca565b9050609760009054906101000a900473ffffffffffffffffffffffffffffffffffffffff1673ffffffffffffffffffffffffffffffffffffffff166363dbfc77886135588461354157609d60029054906101000a900460000b613552565b609d60009054906101000a900460000b5b8661378f565b61358c8561357557609d60039054906101000a900460000b613586565b609d60019054906101000a900460000b5b8761378f565b8a6040518563ffffffff1660e01b81526004016135ac9493929190615447565b6000604051808303816000875af11580156135cb573d6000803e3d6000fd5b505050506040513d6000823e3d601f19601f820116820180604052508101906135f49190615532565b80955081965082975050505050509250925092565b6000806136198360000151610b35565b9150506000836040015169ffffffffffffffffffff1660a15461363c9190614b64565b905060006103e860ab5461365091906155a1565b60646103e860aa5460328760ff1611156136765786606461367191906156b8565b613678565b865b60000b61368591906155a1565b61368f91906155a1565b61369991906156ec565b6136a39190615756565b9050620186a081836136b59190614769565b6136bf9190615416565b935060a3548460a7546136d29190614b0e565b11156136eb5760a75460a3546136e89190614b64565b93505b6000841115613715574260a8819055508360a7600082825461370d9190614b0e565b925050819055505b505050919050565b600060a154905090565b6000609f541415613750578060a660008282546137449190614b0e565b9250508190555061378c565b609f5460a654826137619190614b0e565b61376b9190615416565b60a1600082825461377c9190614b0e565b92505081905550600060a6819055505b50565b60008060a0548460000b846137a491906155a1565b6137ae91906156ec565b905060648113156137c3576064915050613819565b7fffffffffffffffffffffffffffffffffffffffffffffffffffffffffffffff9c811215613814577fffffffffffffffffffffffffffffffffffffffffffffffffffffffffffffff9c915050613819565b809150505b92915050565b50805460008255600f01601090049060005260206000209081019061384491906138f5565b50565b82805482825590600052602060002090600f016010900481019282156138e45791602002820160005b838211156138b457833561ffff1683826101000a81548161ffff021916908361ffff1602179055509260200192600201602081600101049283019260010302613870565b80156138e25782816101000a81549061ffff02191690556002016020816001010492830192600103026138b4565b505b5090506138f191906138f5565b5090565b5b8082111561390e5760008160009055506001016138f6565b5090565b6000604051905090565b600080fd5b600080fd5b600080fd5b6000601f19601f8301169050919050565b7f4e487b7100000000000000000000000000000000000000000000000000000000600052604160045260246000fd5b6139748261392b565b810181811067ffffffffffffffff821117156139935761399261393c565b5b80604052505050565b60006139a6613912565b90506139b2828261396b565b919050565b600067ffffffffffffffff8211156139d2576139d161393c565b5b602082029050602081019050919050565b600080fd5b600073ffffffffffffffffffffffffffffffffffffffff82169050919050565b6000613a13826139e8565b9050919050565b613a2381613a08565b8114613a2e57600080fd5b50565b600081359050613a4081613a1a565b92915050565b6000613a59613a54846139b7565b61399c565b90508083825260208201905060208402830185811115613a7c57613a7b6139e3565b5b835b81811015613aa55780613a918882613a31565b845260208401935050602081019050613a7e565b5050509392505050565b600082601f830112613ac457613ac3613926565b5b8135613ad4848260208601613a46565b91505092915050565b6000819050919050565b613af081613add565b8114613afb57600080fd5b50565b600081359050613b0d81613ae7565b92915050565b600067ffffffffffffffff821115613b2e57613b2d61393c565b5b602082029050602081019050919050565b6000613b52613b4d84613b13565b61399c565b90508083825260208201905060208402830185811115613b7557613b746139e3565b5b835b81811015613b9e5780613b8a8882613afe565b845260208401935050602081019050613b77565b5050509392505050565b600082601f830112613bbd57613bbc613926565b5b8135613bcd848260208601613b3f565b91505092915050565b600067ffffffffffffffff821115613bf157613bf061393c565b5b602082029050602081019050919050565b60008160000b9050919050565b613c1881613c02565b8114613c2357600080fd5b50565b600081359050613c3581613c0f565b92915050565b6000613c4e613c4984613bd6565b61399c565b90508083825260208201905060208402830185811115613c7157613c706139e3565b5b835b81811015613c9a5780613c868882613c26565b845260208401935050602081019050613c73565b5050509392505050565b600082601f830112613cb957613cb8613926565b5b8135613cc9848260208601613c3b565b91505092915050565b600060ff82169050919050565b613ce881613cd2565b8114613cf357600080fd5b50565b600081359050613d0581613cdf565b92915050565b6000819050919050565b613d1e81613d0b565b8114613d2957600080fd5b50565b600081359050613d3b81613d15565b92915050565b600080600080600080600060e0888a031215613d6057613d5f61391c565b5b600088013567ffffffffffffffff811115613d7e57613d7d613921565b5b613d8a8a828b01613aaf565b9750506020613d9b8a828b01613afe565b965050604088013567ffffffffffffffff811115613dbc57613dbb613921565b5b613dc88a828b01613ba8565b955050606088013567ffffffffffffffff811115613de957613de8613921565b5b613df58a828b01613ca4565b9450506080613e068a828b01613cf6565b93505060a0613e178a828b01613d2c565b92505060c0613e288a828b01613d2c565b91505092959891949750929550565b613e4081613c02565b82525050565b6000602082019050613e5b6000830184613e37565b92915050565b613e6a81613d0b565b82525050565b6000602082019050613e856000830184613e61565b92915050565b600080fd5b60008083601f840112613ea657613ea5613926565b5b8235905067ffffffffffffffff811115613ec357613ec2613e8b565b5b602083019150836001820283011115613edf57613ede6139e3565b5b9250929050565b600080600080600060808688031215613f0257613f0161391c565b5b6000613f1088828901613a31565b9550506020613f2188828901613a31565b9450506040613f3288828901613afe565b935050606086013567ffffffffffffffff811115613f5357613f52613921565b5b613f5f88828901613e90565b92509250509295509295909350565b60007fffffffff0000000000000000000000000000000000000000000000000000000082169050919050565b613fa381613f6e565b82525050565b6000602082019050613fbe6000830184613f9a565b92915050565b613fcd81613add565b82525050565b6000602082019050613fe86000830184613fc4565b92915050565b6000602082840312156140045761400361391c565b5b600061401284828501613afe565b91505092915050565b61402481613cd2565b82525050565b600060408201905061403f600083018561401b565b61404c602083018461401b565b9392505050565b6000602082019050614068600083018461401b565b92915050565b61407781613a08565b82525050565b600069ffffffffffffffffffff82169050919050565b61409c8161407d565b82525050565b60006080820190506140b76000830187613fc4565b6140c4602083018661406e565b6140d16040830185614093565b6140de6060830184614093565b95945050505050565b6000819050919050565b600061410c614107614102846139e8565b6140e7565b6139e8565b9050919050565b600061411e826140f1565b9050919050565b600061413082614113565b9050919050565b61414081614125565b82525050565b600060208201905061415b6000830184614137565b92915050565b6000819050919050565b61417481614161565b811461417f57600080fd5b50565b6000813590506141918161416b565b92915050565b600080604083850312156141ae576141ad61391c565b5b60006141bc85828601614182565b92505060206141cd85828601613afe565b9150509250929050565b600061ffff82169050919050565b6141ee816141d7565b82525050565b600060208201905061420960008301846141e5565b92915050565b60008115159050919050565b6142248161420f565b82525050565b600060208201905061423f600083018461421b565b92915050565b6000806040838503121561425c5761425b61391c565b5b600083013567ffffffffffffffff81111561427a57614279613921565b5b61428685828601613aaf565b925050602061429785828601613afe565b9150509250929050565b60006020820190506142b6600083018461406e565b92915050565b600080fd5b600080fd5b600067ffffffffffffffff8211156142e1576142e061393c565b5b602082029050602081019050919050565b6142fb816141d7565b811461430657600080fd5b50565b600081359050614318816142f2565b92915050565b600061433161432c846142c6565b61399c565b90508083825260208201905060208402830185811115614354576143536139e3565b5b835b8181101561437d57806143698882614309565b845260208401935050602081019050614356565b5050509392505050565b600082601f83011261439c5761439b613926565b5b81356143ac84826020860161431e565b91505092915050565b6143be8161420f565b81146143c957600080fd5b50565b6000813590506143db816143b5565b92915050565b600060a082840312156143f7576143f66142bc565b5b61440160a061399c565b9050600061441184828501614182565b600083015250602061442584828501613a31565b602083015250604061443984828501613a31565b604083015250606082013567ffffffffffffffff81111561445d5761445c6142c1565b5b61446984828501614387565b606083015250608061447d848285016143cc565b60808301525092915050565b600080604083850312156144a05761449f61391c565b5b600083013567ffffffffffffffff8111156144be576144bd613921565b5b6144ca858286016143e1565b92505060206144db85828601613afe565b9150509250929050565b60008083601f8401126144fb576144fa613926565b5b8235905067ffffffffffffffff81111561451857614517613e8b565b5b602083019150836020820283011115614534576145336139e3565b5b9250929050565b6000806000604084860312156145545761455361391c565b5b600084013567ffffffffffffffff81111561457257614571613921565b5b61457e868287016144e5565b93509350506020614591868287016143cc565b9150509250925092565b600080604083850312156145b2576145b161391c565b5b60006145c085828601613a31565b92505060206145d185828601613afe565b9150509250929050565b6000806000604084860312156145f4576145f361391c565b5b600061460286828701613a31565b935050602084013567ffffffffffffffff81111561462357614622613921565b5b61462f868287016144e5565b92509250509250925092565b6000602082840312156146515761465061391c565b5b600061465f84828501613a31565b91505092915050565b600082825260208201905092915050565b7f496e697469616c697a61626c653a20636f6e747261637420697320616c72656160008201527f647920696e697469616c697a6564000000000000000000000000000000000000602082015250565b60006146d5602e83614668565b91506146e082614679565b604082019050919050565b60006020820190508181036000830152614704816146c8565b9050919050565b7f4e487b7100000000000000000000000000000000000000000000000000000000600052603260045260246000fd5b7f4e487b7100000000000000000000000000000000000000000000000000000000600052601160045260246000fd5b600061477482613add565b915061477f83613add565b9250817fffffffffffffffffffffffffffffffffffffffffffffffffffffffffffffffff04831182151516156147b8576147b761473a565b5b828202905092915050565b7f43616e6e6f742073656e6420746f6b656e7320746f2056656e7565206469726560008201527f63746c7900000000000000000000000000000000000000000000000000000000602082015250565b600061481f602483614668565b915061482a826147c3565b604082019050919050565b6000602082019050818103600083015261484e81614812565b9050919050565b600081519050614864816143b5565b92915050565b60008151905061487981613cdf565b92915050565b6000806000806000806000806000806101408b8d0312156148a3576148a261391c565b5b60006148b18d828e01614855565b9a505060206148c28d828e0161486a565b99505060406148d38d828e0161486a565b98505060606148e48d828e0161486a565b97505060806148f58d828e0161486a565b96505060a06149068d828e0161486a565b95505060c06149178d828e0161486a565b94505060e06149288d828e0161486a565b93505061010061493a8d828e0161486a565b92505061012061494c8d828e0161486a565b9150509295989b9194979a5092959850565b7f4f776e61626c653a2063616c6c6572206973206e6f7420746865206f776e6572600082015250565b6000614994602083614668565b915061499f8261495e565b602082019050919050565b600060208201905081810360008301526149c381614987565b9050919050565b7f5061757361626c653a2070617573656400000000000000000000000000000000600082015250565b6000614a00601083614668565b9150614a0b826149ca565b602082019050919050565b60006020820190508181036000830152614a2f816149f3565b9050919050565b7f4f6e6c7920436c61696d2063616e2066756c66696c6c00000000000000000000600082015250565b6000614a6c601683614668565b9150614a7782614a36565b602082019050919050565b60006020820190508181036000830152614a9b81614a5f565b9050919050565b7f436c61696d2072657175657374206e6f7420666f756e64000000000000000000600082015250565b6000614ad8601783614668565b9150614ae382614aa2565b602082019050919050565b60006020820190508181036000830152614b0781614acb565b9050919050565b6000614b1982613add565b9150614b2483613add565b9250827fffffffffffffffffffffffffffffffffffffffffffffffffffffffffffffffff03821115614b5957614b5861473a565b5b828201905092915050565b6000614b6f82613add565b9150614b7a83613add565b925082821015614b8d57614b8c61473a565b5b828203905092915050565b7f4e487b7100000000000000000000000000000000000000000000000000000000600052603160045260246000fd5b6000614bd282613add565b91507fffffffffffffffffffffffffffffffffffffffffffffffffffffffffffffffff821415614c0557614c0461473a565b5b600182019050919050565b600060208284031215614c2657614c2561391c565b5b6000614c3484828501614309565b91505092915050565b7f4e6f7420796f757220746f6b656e000000000000000000000000000000000000600082015250565b6000614c73600e83614668565b9150614c7e82614c3d565b602082019050919050565b60006020820190508181036000830152614ca281614c66565b9050919050565b7f43616e6e6f7420636c61696d206265666f726520454f42000000000000000000600082015250565b6000614cdf601783614668565b9150614cea82614ca9565b602082019050919050565b60006020820190508181036000830152614d0e81614cd2565b9050919050565b600082825260208201905092915050565b6000819050919050565b614d39816141d7565b82525050565b6000614d4b8383614d30565b60208301905092915050565b6000614d666020840184614309565b905092915050565b6000602082019050919050565b6000614d878385614d15565b9350614d9282614d26565b8060005b85811015614dcb57614da88284614d57565b614db28882614d3f565b9750614dbd83614d6e565b925050600181019050614d96565b5085925050509392505050565b6000606082019050614ded600083018761406e565b8181036020830152614e00818587614d7b565b9050614e0f604083018461421b565b95945050505050565b600081519050614e278161416b565b92915050565b600060208284031215614e4357614e4261391c565b5b6000614e5184828501614e18565b91505092915050565b7f446f206e6f74206c6f736520796f757220746f6b656e73000000000000000000600082015250565b6000614e90601783614668565b9150614e9b82614e5a565b602082019050919050565b60006020820190508181036000830152614ebf81614e83565b9050919050565b7f4b69746368656e20737061636520726571756972656400000000000000000000600082015250565b6000614efc601683614668565b9150614f0782614ec6565b602082019050919050565b60006020820190508181036000830152614f2b81614eef565b9050919050565b6000614f4d614f48614f43846141d7565b6140e7565b613add565b9050919050565b614f5d81614f32565b82525050565b6000602082019050614f786000830184614f54565b92915050565b600081519050614f8d81613a1a565b92915050565b600060208284031215614fa957614fa861391c565b5b6000614fb784828501614f7e565b91505092915050565b6000606082019050614fd5600083018661406e565b614fe2602083018561406e565b614fef6040830184614f54565b949350505050565b7f4e6f7420656c696769626c650000000000000000000000000000000000000000600082015250565b600061502d600c83614668565b915061503882614ff7565b602082019050919050565b6000602082019050818103600083015261505c81615020565b9050919050565b7f4f776e61626c653a206e6577206f776e657220697320746865207a65726f206160008201527f6464726573730000000000000000000000000000000000000000000000000000602082015250565b60006150bf602683614668565b91506150ca82615063565b604082019050919050565b600060208201905081810360008301526150ee816150b2565b9050919050565b7f496e697469616c697a61626c653a20636f6e7472616374206973206e6f74206960008201527f6e697469616c697a696e67000000000000000000000000000000000000000000602082015250565b6000615151602b83614668565b915061515c826150f5565b604082019050919050565b6000602082019050818103600083015261518081615144565b9050919050565b600082825260208201905092915050565b50565b60006151a8600083615187565b91506151b382615198565b600082019050919050565b60006080820190506151d3600083018661406e565b6151e0602083018561406e565b6151ed6040830184613fc4565b81810360608301526151fe8161519b565b9050949350505050565b600061521382613add565b915060008214156152275761522661473a565b5b600182039050919050565b600081519050919050565b60005b8381101561525b578082015181840152602081019050615240565b8381111561526a576000848401525b50505050565b600061527b82615232565b6152858185614668565b935061529581856020860161523d565b61529e8161392b565b840191505092915050565b600060e0820190506152be600083018a613fc4565b6152cb6020830189613fc4565b6152d8604083018861421b565b6152e5606083018761401b565b6152f2608083018661401b565b81810360a08301526153048185615270565b905061531360c0830184613fc4565b98975050505050505050565b600060c0820190506153346000830189613fc4565b6153416020830188613fc4565b61534e604083018761421b565b61535b606083018661401b565b615368608083018561401b565b81810360a083015261537a8184615270565b9050979650505050505050565b600060408201905061539c600083018561406e565b6153a96020830184613fc4565b9392505050565b60006060820190506153c56000830186613fc4565b6153d2602083018561406e565b6153df6040830184613fc4565b949350505050565b7f4e487b7100000000000000000000000000000000000000000000000000000000600052601260045260246000fd5b600061542182613add565b915061542c83613add565b92508261543c5761543b6153e7565b5b828204905092915050565b600060808201905061545c6000830187613fc4565b6154696020830186613e37565b6154766040830185613e37565b6154836060830184613fc4565b95945050505050565b600080fd5b600067ffffffffffffffff8211156154ac576154ab61393c565b5b6154b58261392b565b9050602081019050919050565b60006154d56154d084615491565b61399c565b9050828152602081018484840111156154f1576154f061548c565b5b6154fc84828561523d565b509392505050565b600082601f83011261551957615518613926565b5b81516155298482602086016154c2565b91505092915050565b60008060006060848603121561554b5761554a61391c565b5b60006155598682870161486a565b935050602061556a8682870161486a565b925050604084015167ffffffffffffffff81111561558b5761558a613921565b5b61559786828701615504565b9150509250925092565b60006155ac82613d0b565b91506155b783613d0b565b9250827f7fffffffffffffffffffffffffffffffffffffffffffffffffffffffffffffff04821160008413600084131616156155f6576155f561473a565b5b817f800000000000000000000000000000000000000000000000000000000000000005831260008412600084131616156156335761563261473a565b5b827f800000000000000000000000000000000000000000000000000000000000000005821260008413600084121616156156705761566f61473a565b5b827f7fffffffffffffffffffffffffffffffffffffffffffffffffffffffffffffff05821260008412600084121616156156ad576156ac61473a565b5b828202905092915050565b60006156c382613cd2565b91506156ce83613cd2565b9250828210156156e1576156e061473a565b5b828203905092915050565b60006156f782613d0b565b915061570283613d0b565b925082615712576157116153e7565b5b600160000383147f80000000000000000000000000000000000000000000000000000000000000008314161561574b5761574a61473a565b5b828205905092915050565b600061576182613d0b565b915061576c83613d0b565b9250817f7fffffffffffffffffffffffffffffffffffffffffffffffffffffffffffffff038313600083121516156157a7576157a661473a565b5b817f80000000000000000000000000000000000000000000000000000000000000000383126000831216156157df576157de61473a565b5b82820190509291505056fea26469706673582212200a2fd8f49339f9a7e0d79adaf1a563232d086ab3c1b2ebe42e95e3f6476dcc9b64736f6c634300080a0033",
  "immutableReferences": {},
  "source": "// SPDX-License-Identifier: MIT\n\npragma solidity ^0.8.0;\n\nimport \"./Kitchen.sol\";\nimport \"./FastFood.sol\";\n\ncontract McStake is Kitchen {\n  FastFood foodToken; // Reference to the $FFOOD contract\n\n  function initialize(\n    address[] memory _addresses, // character, claim, foodToken\n    uint256 _foodTokenMaxSupply,\n    uint256[] memory _earningSettings, // dailyChefEarnings, ratTheftPercentage, vestingPeriod, accrualPeriod\n    int8[] memory _propertyIncrements, // dailySkillRate, dailyInsanityRate, dailyIntelligenceRate, dailyFatnessRate\n    uint8 _chefEfficiencyMultiplier,\n    int256 _ratEfficiencyMultiplier,\n    int256 _ratEfficiencyOffset\n  ) external initializer {\n    __Ownable_init();\n    __Pausable_init();\n\n    unaccountedRewards = 0;\n    foodTokensPerRat = 0;\n    lastClaimTimestamp = 0;\n\n    character = Character(_addresses[0]);\n    claim = IClaim(_addresses[1]);\n    foodToken = FastFood(_addresses[2]);\n    foodTokenMaxSupply = _foodTokenMaxSupply * 1 ether;\n    dailyChefEarnings = _earningSettings[0] * 1 ether;\n    ratTheftPercentage = _earningSettings[1];\n    vestingPeriod = _earningSettings[2];\n    accrualPeriod = _earningSettings[3];\n    dailySkillRate = _propertyIncrements[0];\n    dailyInsanityRate = _propertyIncrements[1];\n    dailyIntelligenceRate = _propertyIncrements[2];\n    dailyFatnessRate = _propertyIncrements[3];\n    chefEfficiencyMultiplier = _chefEfficiencyMultiplier;\n    ratEfficiencyMultiplier = _ratEfficiencyMultiplier;\n    ratEfficiencyOffset = _ratEfficiencyOffset;\n  }\n\n  /**\n   * Mints the given amount of food tokens in the user's account\n   * @param sender - User wallet address\n   * @param amount - Amount of food tokens to mint\n   */\n  function _mintFoodToken(address sender, uint256 amount) internal override {\n    foodToken.mint(sender, amount);\n  }\n}\n",
  "sourcePath": "/Users/chris/workspace/ratalert/ratalert-contracts/contracts/McStake.sol",
  "compiler": {
    "name": "solc",
    "version": "0.8.10+commit.fc410830.Emscripten.clang"
  },
  "schemaVersion": "3.4.5",
  "updatedAt": "2022-03-11T07:53:03.205Z",
  "networkType": "ethereum",
  "devdoc": {
    "kind": "dev",
    "methods": {
      "claimMany(uint16[],bool)": {
        "params": {
          "tokenIds": "- The IDs of the tokens in question",
          "unstake": "- Whether or not to unstake the given tokens"
        }
      },
      "fulfillClaimMany((bytes32,address,address,uint16[],bool),uint256)": {
        "params": {
          "randomVal": "- List of random values created by VRF",
          "v": "- VRF struct for the corresponding request"
        }
      },
      "getProperties(uint256)": {
        "params": {
          "tokenId": "- The ID of the token to check"
        },
        "returns": {
          "efficiency": "& tolerance values"
        }
      },
      "isChef(uint256)": {
        "params": {
          "tokenId": "- The ID of the token to check"
        },
        "returns": {
          "chef": "- Whether or not the token is a Chef"
        }
      },
      "owner()": {
        "details": "Returns the address of the current owner."
      },
      "paused()": {
        "details": "Returns true if the contract is paused, and false otherwise."
      },
      "renounceOwnership()": {
        "details": "Leaves the contract without owner. It will not be possible to call `onlyOwner` functions anymore. Can only be called by the current owner. NOTE: Renouncing ownership will leave the contract without an owner, thereby removing any functionality that is only available to the owner."
      },
      "stakeMany(address,uint16[])": {
        "params": {
          "account": "- The address of the staker",
          "tokenIds": "- The IDs of the Chefs & Rats to stake"
        }
      },
      "transferOwnership(address)": {
        "details": "Transfers ownership of the contract to a new account (`newOwner`). Can only be called by the current owner."
      }
    },
    "version": 1
  },
  "userdoc": {
    "kind": "user",
    "methods": {
      "claimMany(uint16[],bool)": {
        "notice": "ChainLink VRF request: Claims food token earnings, level-ups and optionally unstake characters"
      },
      "fulfillClaimMany((bytes32,address,address,uint16[],bool),uint256)": {
        "notice": "ChainLink VRF callback for claimMany()"
      },
      "getProperties(uint256)": {
        "notice": "Get the character's properties"
      },
      "isChef(uint256)": {
        "notice": "Checks if the token is a Chef"
      },
      "stakeMany(address,uint16[])": {
        "notice": "Adds Chefs & Rats"
      }
    },
    "version": 1
  }
}