{
  "contractName": "McStake",
  "abi": [
    {
      "anonymous": false,
      "inputs": [
        {
          "indexed": false,
          "internalType": "uint256",
          "name": "tokenId",
          "type": "uint256"
        },
        {
          "indexed": false,
          "internalType": "uint256",
          "name": "earned",
          "type": "uint256"
        },
        {
          "indexed": false,
          "internalType": "bool",
          "name": "unstaked",
          "type": "bool"
        },
        {
          "indexed": false,
          "internalType": "uint8",
          "name": "skill",
          "type": "uint8"
        },
        {
          "indexed": false,
          "internalType": "uint8",
          "name": "insanity",
          "type": "uint8"
        },
        {
          "indexed": false,
          "internalType": "string",
          "name": "eventName",
          "type": "string"
        },
        {
          "indexed": false,
          "internalType": "uint256",
          "name": "foodTokensPerRat",
          "type": "uint256"
        }
      ],
      "name": "ChefClaimed",
      "type": "event"
    },
    {
      "anonymous": false,
      "inputs": [
        {
          "indexed": true,
          "internalType": "address",
          "name": "previousOwner",
          "type": "address"
        },
        {
          "indexed": true,
          "internalType": "address",
          "name": "newOwner",
          "type": "address"
        }
      ],
      "name": "OwnershipTransferred",
      "type": "event"
    },
    {
      "anonymous": false,
      "inputs": [
        {
          "indexed": false,
          "internalType": "address",
          "name": "account",
          "type": "address"
        }
      ],
      "name": "Paused",
      "type": "event"
    },
    {
      "anonymous": false,
      "inputs": [
        {
          "indexed": false,
          "internalType": "uint256",
          "name": "tokenId",
          "type": "uint256"
        },
        {
          "indexed": false,
          "internalType": "uint256",
          "name": "earned",
          "type": "uint256"
        },
        {
          "indexed": false,
          "internalType": "bool",
          "name": "unstaked",
          "type": "bool"
        },
        {
          "indexed": false,
          "internalType": "uint8",
          "name": "intelligence",
          "type": "uint8"
        },
        {
          "indexed": false,
          "internalType": "uint8",
          "name": "fatness",
          "type": "uint8"
        },
        {
          "indexed": false,
          "internalType": "string",
          "name": "eventName",
          "type": "string"
        }
      ],
      "name": "RatClaimed",
      "type": "event"
    },
    {
      "anonymous": false,
      "inputs": [
        {
          "indexed": false,
          "internalType": "uint256",
          "name": "tokenId",
          "type": "uint256"
        },
        {
          "indexed": false,
          "internalType": "address",
          "name": "owner",
          "type": "address"
        },
        {
          "indexed": false,
          "internalType": "uint256",
          "name": "value",
          "type": "uint256"
        }
      ],
      "name": "TokenStaked",
      "type": "event"
    },
    {
      "anonymous": false,
      "inputs": [
        {
          "indexed": false,
          "internalType": "address",
          "name": "account",
          "type": "address"
        }
      ],
      "name": "Unpaused",
      "type": "event"
    },
    {
      "inputs": [],
      "name": "accrualPeriod",
      "outputs": [
        {
          "internalType": "uint256",
          "name": "",
          "type": "uint256"
        }
      ],
      "stateMutability": "view",
      "type": "function",
      "constant": true
    },
    {
      "inputs": [],
      "name": "chefEfficiencyMultiplier",
      "outputs": [
        {
          "internalType": "uint8",
          "name": "",
          "type": "uint8"
        }
      ],
      "stateMutability": "view",
      "type": "function",
      "constant": true
    },
    {
      "inputs": [
        {
          "internalType": "uint256",
          "name": "",
          "type": "uint256"
        }
      ],
      "name": "chefs",
      "outputs": [
        {
          "internalType": "uint256",
          "name": "tokenId",
          "type": "uint256"
        },
        {
          "internalType": "address",
          "name": "owner",
          "type": "address"
        },
        {
          "internalType": "uint80",
          "name": "value",
          "type": "uint80"
        },
        {
          "internalType": "uint80",
          "name": "timestamp",
          "type": "uint80"
        }
      ],
      "stateMutability": "view",
      "type": "function",
      "constant": true
    },
    {
      "inputs": [],
      "name": "claim",
      "outputs": [
        {
          "internalType": "contract IClaim",
          "name": "",
          "type": "address"
        }
      ],
      "stateMutability": "view",
      "type": "function",
      "constant": true
    },
    {
      "inputs": [
        {
          "internalType": "uint16[]",
          "name": "tokenIds",
          "type": "uint16[]"
        },
        {
          "internalType": "bool",
          "name": "unstake",
          "type": "bool"
        }
      ],
      "name": "claimMany",
      "outputs": [],
      "stateMutability": "nonpayable",
      "type": "function"
    },
    {
      "inputs": [
        {
          "internalType": "bytes32",
          "name": "",
          "type": "bytes32"
        },
        {
          "internalType": "uint256",
          "name": "",
          "type": "uint256"
        }
      ],
      "name": "claimRequests",
      "outputs": [
        {
          "internalType": "uint16",
          "name": "",
          "type": "uint16"
        }
      ],
      "stateMutability": "view",
      "type": "function",
      "constant": true
    },
    {
      "inputs": [],
      "name": "dailyChefEarnings",
      "outputs": [
        {
          "internalType": "uint256",
          "name": "",
          "type": "uint256"
        }
      ],
      "stateMutability": "view",
      "type": "function",
      "constant": true
    },
    {
      "inputs": [],
      "name": "dailyFatnessRate",
      "outputs": [
        {
          "internalType": "int8",
          "name": "",
          "type": "int8"
        }
      ],
      "stateMutability": "view",
      "type": "function",
      "constant": true
    },
    {
      "inputs": [],
      "name": "dailyInsanityRate",
      "outputs": [
        {
          "internalType": "int8",
          "name": "",
          "type": "int8"
        }
      ],
      "stateMutability": "view",
      "type": "function",
      "constant": true
    },
    {
      "inputs": [],
      "name": "dailyIntelligenceRate",
      "outputs": [
        {
          "internalType": "int8",
          "name": "",
          "type": "int8"
        }
      ],
      "stateMutability": "view",
      "type": "function",
      "constant": true
    },
    {
      "inputs": [],
      "name": "dailySkillRate",
      "outputs": [
        {
          "internalType": "int8",
          "name": "",
          "type": "int8"
        }
      ],
      "stateMutability": "view",
      "type": "function",
      "constant": true
    },
    {
      "inputs": [],
      "name": "foodTokenMaxSupply",
      "outputs": [
        {
          "internalType": "uint256",
          "name": "",
          "type": "uint256"
        }
      ],
      "stateMutability": "view",
      "type": "function",
      "constant": true
    },
    {
      "inputs": [],
      "name": "foodTokensPerRat",
      "outputs": [
        {
          "internalType": "uint256",
          "name": "",
          "type": "uint256"
        }
      ],
      "stateMutability": "view",
      "type": "function",
      "constant": true
    },
    {
      "inputs": [
        {
          "components": [
            {
              "internalType": "bytes32",
              "name": "requestId",
              "type": "bytes32"
            },
            {
              "internalType": "address",
              "name": "venue",
              "type": "address"
            },
            {
              "internalType": "address",
              "name": "sender",
              "type": "address"
            },
            {
              "internalType": "uint16[]",
              "name": "tokenIds",
              "type": "uint16[]"
            },
            {
              "internalType": "bool",
              "name": "unstake",
              "type": "bool"
            }
          ],
          "internalType": "struct IClaim.VRFStruct",
          "name": "v",
          "type": "tuple"
        },
        {
          "internalType": "uint256",
          "name": "randomVal",
          "type": "uint256"
        }
      ],
      "name": "fulfillClaimMany",
      "outputs": [],
      "stateMutability": "nonpayable",
      "type": "function"
    },
    {
      "inputs": [
        {
          "internalType": "uint256",
          "name": "tokenId",
          "type": "uint256"
        }
      ],
      "name": "getProperties",
      "outputs": [
        {
          "internalType": "uint8",
          "name": "efficiency",
          "type": "uint8"
        },
        {
          "internalType": "uint8",
          "name": "tolerance",
          "type": "uint8"
        }
      ],
      "stateMutability": "view",
      "type": "function",
      "constant": true
    },
    {
      "inputs": [
        {
          "internalType": "uint256",
          "name": "tokenId",
          "type": "uint256"
        }
      ],
      "name": "isChef",
      "outputs": [
        {
          "internalType": "bool",
          "name": "chef",
          "type": "bool"
        }
      ],
      "stateMutability": "view",
      "type": "function",
      "constant": true
    },
    {
      "inputs": [],
      "name": "lastClaimTimestamp",
      "outputs": [
        {
          "internalType": "uint256",
          "name": "",
          "type": "uint256"
        }
      ],
      "stateMutability": "view",
      "type": "function",
      "constant": true
    },
    {
      "inputs": [],
      "name": "maxClaimsPerTx",
      "outputs": [
        {
          "internalType": "uint8",
          "name": "",
          "type": "uint8"
        }
      ],
      "stateMutability": "view",
      "type": "function",
      "constant": true
    },
    {
      "inputs": [
        {
          "internalType": "address",
          "name": "",
          "type": "address"
        },
        {
          "internalType": "address",
          "name": "from",
          "type": "address"
        },
        {
          "internalType": "uint256",
          "name": "",
          "type": "uint256"
        },
        {
          "internalType": "bytes",
          "name": "",
          "type": "bytes"
        }
      ],
      "name": "onERC721Received",
      "outputs": [
        {
          "internalType": "bytes4",
          "name": "",
          "type": "bytes4"
        }
      ],
      "stateMutability": "pure",
      "type": "function",
      "constant": true
    },
    {
      "inputs": [],
      "name": "owner",
      "outputs": [
        {
          "internalType": "address",
          "name": "",
          "type": "address"
        }
      ],
      "stateMutability": "view",
      "type": "function",
      "constant": true
    },
    {
      "inputs": [],
      "name": "pause",
      "outputs": [],
      "stateMutability": "nonpayable",
      "type": "function"
    },
    {
      "inputs": [],
      "name": "paused",
      "outputs": [
        {
          "internalType": "bool",
          "name": "",
          "type": "bool"
        }
      ],
      "stateMutability": "view",
      "type": "function",
      "constant": true
    },
    {
      "inputs": [],
      "name": "ratEfficiencyMultiplier",
      "outputs": [
        {
          "internalType": "int256",
          "name": "",
          "type": "int256"
        }
      ],
      "stateMutability": "view",
      "type": "function",
      "constant": true
    },
    {
      "inputs": [],
      "name": "ratEfficiencyOffset",
      "outputs": [
        {
          "internalType": "int256",
          "name": "",
          "type": "int256"
        }
      ],
      "stateMutability": "view",
      "type": "function",
      "constant": true
    },
    {
      "inputs": [],
      "name": "ratTheftPercentage",
      "outputs": [
        {
          "internalType": "uint256",
          "name": "",
          "type": "uint256"
        }
      ],
      "stateMutability": "view",
      "type": "function",
      "constant": true
    },
    {
      "inputs": [
        {
          "internalType": "uint256",
          "name": "",
          "type": "uint256"
        }
      ],
      "name": "rats",
      "outputs": [
        {
          "internalType": "uint256",
          "name": "tokenId",
          "type": "uint256"
        },
        {
          "internalType": "address",
          "name": "owner",
          "type": "address"
        },
        {
          "internalType": "uint80",
          "name": "value",
          "type": "uint80"
        },
        {
          "internalType": "uint80",
          "name": "timestamp",
          "type": "uint80"
        }
      ],
      "stateMutability": "view",
      "type": "function",
      "constant": true
    },
    {
      "inputs": [],
      "name": "renounceOwnership",
      "outputs": [],
      "stateMutability": "nonpayable",
      "type": "function"
    },
    {
      "inputs": [
        {
          "internalType": "address",
          "name": "account",
          "type": "address"
        },
        {
          "internalType": "uint16[]",
          "name": "tokenIds",
          "type": "uint16[]"
        }
      ],
      "name": "stakeMany",
      "outputs": [],
      "stateMutability": "nonpayable",
      "type": "function"
    },
    {
      "inputs": [
        {
          "internalType": "address",
          "name": "",
          "type": "address"
        },
        {
          "internalType": "uint256",
          "name": "",
          "type": "uint256"
        }
      ],
      "name": "stakers",
      "outputs": [
        {
          "internalType": "uint256",
          "name": "",
          "type": "uint256"
        }
      ],
      "stateMutability": "view",
      "type": "function",
      "constant": true
    },
    {
      "inputs": [],
      "name": "totalChefsStaked",
      "outputs": [
        {
          "internalType": "uint256",
          "name": "",
          "type": "uint256"
        }
      ],
      "stateMutability": "view",
      "type": "function",
      "constant": true
    },
    {
      "inputs": [],
      "name": "totalFoodTokensEarned",
      "outputs": [
        {
          "internalType": "uint256",
          "name": "",
          "type": "uint256"
        }
      ],
      "stateMutability": "view",
      "type": "function",
      "constant": true
    },
    {
      "inputs": [],
      "name": "totalRatsStaked",
      "outputs": [
        {
          "internalType": "uint256",
          "name": "",
          "type": "uint256"
        }
      ],
      "stateMutability": "view",
      "type": "function",
      "constant": true
    },
    {
      "inputs": [
        {
          "internalType": "address",
          "name": "newOwner",
          "type": "address"
        }
      ],
      "name": "transferOwnership",
      "outputs": [],
      "stateMutability": "nonpayable",
      "type": "function"
    },
    {
      "inputs": [],
      "name": "unaccountedRewards",
      "outputs": [
        {
          "internalType": "uint256",
          "name": "",
          "type": "uint256"
        }
      ],
      "stateMutability": "view",
      "type": "function",
      "constant": true
    },
    {
      "inputs": [],
      "name": "unpause",
      "outputs": [],
      "stateMutability": "nonpayable",
      "type": "function"
    },
    {
      "inputs": [],
      "name": "vestingPeriod",
      "outputs": [
        {
          "internalType": "uint256",
          "name": "",
          "type": "uint256"
        }
      ],
      "stateMutability": "view",
      "type": "function",
      "constant": true
    },
    {
      "inputs": [
        {
          "internalType": "address",
          "name": "_character",
          "type": "address"
        },
        {
          "internalType": "address",
          "name": "_claim",
          "type": "address"
        },
        {
          "internalType": "uint256",
          "name": "_accrualPeriod",
          "type": "uint256"
        }
      ],
      "name": "initialize",
      "outputs": [],
      "stateMutability": "nonpayable",
      "type": "function"
    },
    {
      "inputs": [],
      "name": "initialize",
      "outputs": [],
      "stateMutability": "nonpayable",
      "type": "function"
    },
    {
      "inputs": [
        {
          "internalType": "address",
          "name": "_character",
          "type": "address"
        },
        {
          "internalType": "address",
          "name": "_claim",
          "type": "address"
        },
        {
          "internalType": "address",
          "name": "_foodToken",
          "type": "address"
        }
      ],
      "name": "initialize",
      "outputs": [],
      "stateMutability": "nonpayable",
      "type": "function"
    },
    {
      "inputs": [
        {
          "internalType": "uint256",
          "name": "_foodTokenMaxSupply",
          "type": "uint256"
        },
        {
          "internalType": "uint256[]",
          "name": "_earningSettings",
          "type": "uint256[]"
        },
        {
          "internalType": "int8[]",
          "name": "_propertyIncrements",
          "type": "int8[]"
        },
        {
          "internalType": "uint8",
          "name": "_chefEfficiencyMultiplier",
          "type": "uint8"
        },
        {
          "internalType": "int256",
          "name": "_ratEfficiencyMultiplier",
          "type": "int256"
        },
        {
          "internalType": "int256",
          "name": "_ratEfficiencyOffset",
          "type": "int256"
        },
        {
          "internalType": "uint8",
          "name": "_maxClaimsPerTx",
          "type": "uint8"
        }
      ],
      "name": "configure",
      "outputs": [],
      "stateMutability": "nonpayable",
      "type": "function"
    }
  ],
  "bytecode": "0x608060405234801561001057600080fd5b50615baf80620000216000396000f3fe608060405234801561001057600080fd5b50600436106102485760003560e01c80637313ee5a1161013b578063c0c53b8b116100b8578063dbdc1f6b1161007c578063dbdc1f6b14610680578063ef9f800f1461069c578063f2666746146106cc578063f2fde38b146106ea578063f66641551461070657610248565b8063c0c53b8b146105da578063c8b6cbf7146105f6578063cba88af814610626578063d7178ac614610644578063d8dda92e1461066257610248565b8063922a1802116100ff578063922a180214610548578063a262c0ad14610564578063a7a1029014610582578063bdb629411461059e578063c0c472c0146105bc57610248565b80637313ee5a146104da5780638129fc1c146104f85780638456cb59146105025780638da5cb5b1461050c57806391ba3f3f1461052a57610248565b80633f4ba83a116101c95780635c975abb1161018d5780635c975abb1461045a5780635f537db114610478578063607af397146104965780636b0620cc146104b4578063715018a6146104d057610248565b80633f4ba83a146103b1578063499f8010146103bb5780634d1c61af146103d95780634e71d92d1461040c578063525e915b1461042a57610248565b80631b8ca217116102105780631b8ca217146102f35780632535a77f146103245780632d79320b146103425780632e2ce28b1461036057806335ec066e1461037e57610248565b806310d53df11461024d578063138e6ad51461026b578063150b7a02146102895780631794bb3c146102b95780631b4d47a1146102d5575b600080fd5b610255610724565b6040516102629190613c7a565b60405180910390f35b610273610737565b6040516102809190613cae565b60405180910390f35b6102a3600480360381019061029e9190613dd6565b61073d565b6040516102b09190613e99565b60405180910390f35b6102d360048036038101906102ce9190613eb4565b6107c0565b005b6102dd6109bc565b6040516102ea9190613f16565b60405180910390f35b61030d60048036038101906103089190613f31565b6109c2565b60405161031b929190613f7a565b60405180910390f35b61032c610aa3565b6040516103399190613f16565b60405180910390f35b61034a610aa9565b6040516103579190613fa3565b60405180910390f35b610368610abc565b6040516103759190613f16565b60405180910390f35b61039860048036038101906103939190613f31565b610ac2565b6040516103a89493929190613ff2565b60405180910390f35b6103b9610b3e565b005b6103c3610bc4565b6040516103d09190613f16565b60405180910390f35b6103f360048036038101906103ee9190613f31565b610bca565b6040516104039493929190613ff2565b60405180910390f35b610414610c46565b6040516104219190614096565b60405180910390f35b610444600480360381019061043f91906140e7565b610c6c565b6040516104519190614144565b60405180910390f35b610462610cb3565b60405161046f919061417a565b60405180910390f35b610480610cca565b60405161048d9190613fa3565b60405180910390f35b61049e610cdd565b6040516104ab9190613f16565b60405180910390f35b6104ce60048036038101906104c9919061442b565b610ce3565b005b6104d8610f45565b005b6104e2610fcd565b6040516104ef9190613f16565b60405180910390f35b610500610fd3565b005b61050a6110c7565b005b61051461114d565b6040516105219190614505565b60405180910390f35b610532611177565b60405161053f9190613f16565b60405180910390f35b610562600480360381019061055d91906146ed565b61117d565b005b61056c6116e9565b6040516105799190613c7a565b60405180910390f35b61059c6004803603810190610597919061479f565b6116fc565b005b6105a6611b09565b6040516105b39190613c7a565b60405180910390f35b6105c4611b1c565b6040516105d19190613f16565b60405180910390f35b6105f460048036038101906105ef91906147ff565b611b22565b005b610610600480360381019061060b9190614852565b611cf4565b60405161061d9190613f16565b60405180910390f35b61062e611d25565b60405161063b9190613c7a565b60405180910390f35b61064c611d38565b6040516106599190613cae565b60405180910390f35b61066a611d3e565b6040516106779190613f16565b60405180910390f35b61069a60048036038101906106959190614892565b611d44565b005b6106b660048036038101906106b19190613f31565b6122d1565b6040516106c3919061417a565b60405180910390f35b6106d46123a6565b6040516106e19190613f16565b60405180910390f35b61070460048036038101906106ff91906148f2565b6123ac565b005b61070e6124a4565b60405161071b9190613f16565b60405180910390f35b609d60009054906101000a900460000b81565b60ab5481565b60008073ffffffffffffffffffffffffffffffffffffffff168573ffffffffffffffffffffffffffffffffffffffff16146107ad576040517f08c379a00000000000000000000000000000000000000000000000000000000081526004016107a4906149a2565b60405180910390fd5b63150b7a0260e01b905095945050505050565b600060019054906101000a900460ff166107e85760008054906101000a900460ff16156107f1565b6107f06124aa565b5b610830576040517f08c379a000000000000000000000000000000000000000000000000000000000815260040161082790614a34565b60405180910390fd5b60008060019054906101000a900460ff161590508015610880576001600060016101000a81548160ff02191690831515021790555060016000806101000a81548160ff0219169083151502179055505b6108886124bb565b61089061251c565b83609760006101000a81548173ffffffffffffffffffffffffffffffffffffffff021916908373ffffffffffffffffffffffffffffffffffffffff16021790555082609860006101000a81548173ffffffffffffffffffffffffffffffffffffffff021916908373ffffffffffffffffffffffffffffffffffffffff1602179055508160a0819055506000609d60006101000a81548160ff021916908360000b60ff1602179055506000609d60016101000a81548160ff021916908360000b60ff1602179055506000609d60026101000a81548160ff021916908360000b60ff1602179055506000609d60036101000a81548160ff021916908360000b60ff16021790555080156109b65760008060016101000a81548160ff0219169083151502179055505b50505050565b60a45481565b600080609760009054906101000a900473ffffffffffffffffffffffffffffffffffffffff1673ffffffffffffffffffffffffffffffffffffffff1663e05c57bf846040518263ffffffff1660e01b8152600401610a209190613f16565b61014060405180830381865afa158015610a3e573d6000803e3d6000fd5b505050506040513d601f19601f82011682018060405250810190610a629190614a7e565b909192939495969798509091929394959697509091929394959650909192939495509091929394509091929350909192509091508092508193505050915091565b60a15481565b60aa60009054906101000a900460ff1681565b60a65481565b609a6020528060005260406000206000915090508060000154908060010160009054906101000a900473ffffffffffffffffffffffffffffffffffffffff16908060010160149054906101000a900469ffffffffffffffffffff16908060020160009054906101000a900469ffffffffffffffffffff16905084565b610b4661257d565b73ffffffffffffffffffffffffffffffffffffffff16610b6461114d565b73ffffffffffffffffffffffffffffffffffffffff1614610bba576040517f08c379a0000000000000000000000000000000000000000000000000000000008152600401610bb190614ba9565b60405180910390fd5b610bc2612585565b565b609f5481565b60996020528060005260406000206000915090508060000154908060010160009054906101000a900473ffffffffffffffffffffffffffffffffffffffff16908060010160149054906101000a900469ffffffffffffffffffff16908060020160009054906101000a900469ffffffffffffffffffff16905084565b609860009054906101000a900473ffffffffffffffffffffffffffffffffffffffff1681565b609c6020528160005260406000208181548110610c8857600080fd5b9060005260206000209060109182820401919006600202915091509054906101000a900461ffff1681565b6000606560009054906101000a900460ff16905090565b60a360009054906101000a900460ff1681565b60a95481565b610ceb61257d565b73ffffffffffffffffffffffffffffffffffffffff16610d0961114d565b73ffffffffffffffffffffffffffffffffffffffff1614610d5f576040517f08c379a0000000000000000000000000000000000000000000000000000000008152600401610d5690614ba9565b60405180910390fd5b670de0b6b3a764000087610d739190614bf8565b60a481905550670de0b6b3a764000086600081518110610d9657610d95614c52565b5b6020026020010151610da89190614bf8565b60a58190555085600181518110610dc257610dc1614c52565b5b602002602001015160a68190555085600281518110610de457610de3614c52565b5b602002602001015160a28190555085600381518110610e0657610e05614c52565b5b602002602001015160a08190555084600081518110610e2857610e27614c52565b5b6020026020010151609d60006101000a81548160ff021916908360000b60ff16021790555084600181518110610e6157610e60614c52565b5b6020026020010151609d60016101000a81548160ff021916908360000b60ff16021790555084600281518110610e9a57610e99614c52565b5b6020026020010151609d60026101000a81548160ff021916908360000b60ff16021790555084600381518110610ed357610ed2614c52565b5b6020026020010151609d60036101000a81548160ff021916908360000b60ff1602179055508360aa60006101000a81548160ff021916908360ff1602179055508260ab819055508160ac819055508060a360006101000a81548160ff021916908360ff16021790555050505050505050565b610f4d61257d565b73ffffffffffffffffffffffffffffffffffffffff16610f6b61114d565b73ffffffffffffffffffffffffffffffffffffffff1614610fc1576040517f08c379a0000000000000000000000000000000000000000000000000000000008152600401610fb890614ba9565b60405180910390fd5b610fcb6000612627565b565b60a25481565b600060019054906101000a900460ff16610ffb5760008054906101000a900460ff1615611004565b6110036124aa565b5b611043576040517f08c379a000000000000000000000000000000000000000000000000000000000815260040161103a90614a34565b60405180910390fd5b60008060019054906101000a900460ff161590508015611093576001600060016101000a81548160ff02191690831515021790555060016000806101000a81548160ff0219169083151502179055505b61109b6124bb565b6110a361251c565b80156110c45760008060016101000a81548160ff0219169083151502179055505b50565b6110cf61257d565b73ffffffffffffffffffffffffffffffffffffffff166110ed61114d565b73ffffffffffffffffffffffffffffffffffffffff1614611143576040517f08c379a000000000000000000000000000000000000000000000000000000000815260040161113a90614ba9565b60405180910390fd5b61114b6126ed565b565b6000603360009054906101000a900473ffffffffffffffffffffffffffffffffffffffff16905090565b60a55481565b611185610cb3565b156111c5576040517f08c379a00000000000000000000000000000000000000000000000000000000081526004016111bc90614ccd565b60405180910390fd5b609860009054906101000a900473ffffffffffffffffffffffffffffffffffffffff1673ffffffffffffffffffffffffffffffffffffffff163373ffffffffffffffffffffffffffffffffffffffff1614611255576040517f08c379a000000000000000000000000000000000000000000000000000000000815260040161124c90614d39565b60405180910390fd5b6000609c60008460000151815260200190815260200160002080549050116112b2576040517f08c379a00000000000000000000000000000000000000000000000000000000081526004016112a990614da5565b60405180910390fd5b6000609c60008460000151815260200190815260200160002080548060200260200160405190810160405280929190818152602001828054801561133d57602002820191906000526020600020906000905b82829054906101000a900461ffff1661ffff16815260200190600201906020826001010492830192600103820291508084116113045790505b50505050509050609c60008460000151815260200190815260200160002060006113679190613b6b565b6000805b82518110156116ca57600061138586604001516000612790565b90506113ae84838151811061139d5761139c614c52565b5b602002602001015161ffff166122d1565b15611402576113f08483815181106113c9576113c8614c52565b5b602002602001015161ffff1687604001518315806113e8575088608001515b84158961279c565b836113fb9190614dc5565b925061144d565b61143f84838151811061141857611417614c52565b5b602002602001015161ffff168760400151831580611437575088608001515b841589612c46565b8361144a9190614dc5565b92505b60005b609b6000886040015173ffffffffffffffffffffffffffffffffffffffff1673ffffffffffffffffffffffffffffffffffffffff168152602001908152602001600020805490508110156116b5578483815181106114b1576114b0614c52565b5b602002602001015161ffff16609b6000896040015173ffffffffffffffffffffffffffffffffffffffff1673ffffffffffffffffffffffffffffffffffffffff168152602001908152602001600020828154811061151257611511614c52565b5b906000526020600020015414156116a257609b6000886040015173ffffffffffffffffffffffffffffffffffffffff1673ffffffffffffffffffffffffffffffffffffffff1681526020019081526020016000206001609b60008a6040015173ffffffffffffffffffffffffffffffffffffffff1673ffffffffffffffffffffffffffffffffffffffff168152602001908152602001600020805490506115b99190614e1b565b815481106115ca576115c9614c52565b5b9060005260206000200154609b6000896040015173ffffffffffffffffffffffffffffffffffffffff1673ffffffffffffffffffffffffffffffffffffffff168152602001908152602001600020828154811061162a57611629614c52565b5b9060005260206000200181905550609b6000886040015173ffffffffffffffffffffffffffffffffffffffff1673ffffffffffffffffffffffffffffffffffffffff16815260200190815260200160002080548061168b5761168a614e4f565b5b600190038181906000526020600020016000905590555b80806116ad90614e7e565b915050611450565b505080806116c290614e7e565b91505061136b565b5060008111156116e3576116e28460400151826130f3565b5b50505050565b609d60029054906101000a900460000b81565b611704610cb3565b15611744576040517f08c379a000000000000000000000000000000000000000000000000000000000815260040161173b90614ccd565b60405180910390fd5b60a360009054906101000a900460ff1660ff1683839050111561179c576040517f08c379a000000000000000000000000000000000000000000000000000000000815260040161179390614f13565b60405180910390fd5b60005b83839050811015611a305760006117e08585848181106117c2576117c1614c52565b5b90506020020160208101906117d79190614f33565b61ffff166122d1565b61182757609a60008686858181106117fb576117fa614c52565b5b90506020020160208101906118109190614f33565b61ffff168152602001908152602001600020611866565b6099600086868581811061183e5761183d614c52565b5b90506020020160208101906118539190614f33565b61ffff1681526020019081526020016000205b604051806080016040529081600082015481526020016001820160009054906101000a900473ffffffffffffffffffffffffffffffffffffffff1673ffffffffffffffffffffffffffffffffffffffff1673ffffffffffffffffffffffffffffffffffffffff1681526020016001820160149054906101000a900469ffffffffffffffffffff1669ffffffffffffffffffff1669ffffffffffffffffffff1681526020016002820160009054906101000a900469ffffffffffffffffffff1669ffffffffffffffffffff1669ffffffffffffffffffff1681525050905061194b61257d565b73ffffffffffffffffffffffffffffffffffffffff16816020015173ffffffffffffffffffffffffffffffffffffffff16146119bc576040517f08c379a00000000000000000000000000000000000000000000000000000000081526004016119b390614fac565b60405180910390fd5b60a254816060015169ffffffffffffffffffff16426119db9190614e1b565b1015611a1c576040517f08c379a0000000000000000000000000000000000000000000000000000000008152600401611a1390615018565b60405180910390fd5b508080611a2890614e7e565b91505061179f565b506000609860009054906101000a900473ffffffffffffffffffffffffffffffffffffffff1673ffffffffffffffffffffffffffffffffffffffff16635bdf263c611a7961257d565b8686866040518563ffffffff1660e01b8152600401611a9b94939291906150fb565b6020604051808303816000875af1158015611aba573d6000803e3d6000fd5b505050506040513d601f19601f82011682018060405250810190611ade9190615150565b90508383609c60008481526020019081526020016000209190611b02929190613b93565b5050505050565b609d60019054906101000a900460000b81565b60a75481565b600060019054906101000a900460ff16611b4a5760008054906101000a900460ff1615611b53565b611b526124aa565b5b611b92576040517f08c379a0000000000000000000000000000000000000000000000000000000008152600401611b8990614a34565b60405180910390fd5b60008060019054906101000a900460ff161590508015611be2576001600060016101000a81548160ff02191690831515021790555060016000806101000a81548160ff0219169083151502179055505b611bea6124bb565b611bf261251c565b600060a781905550600060a181905550600060a98190555083609760006101000a81548173ffffffffffffffffffffffffffffffffffffffff021916908373ffffffffffffffffffffffffffffffffffffffff16021790555082609860006101000a81548173ffffffffffffffffffffffffffffffffffffffff021916908373ffffffffffffffffffffffffffffffffffffffff1602179055508160ad60006101000a81548173ffffffffffffffffffffffffffffffffffffffff021916908373ffffffffffffffffffffffffffffffffffffffff1602179055508015611cee5760008060016101000a81548160ff0219169083151502179055505b50505050565b609b6020528160005260406000208181548110611d1057600080fd5b90600052602060002001600091509150505481565b609d60039054906101000a900460000b81565b60ac5481565b60a85481565b611d4c61257d565b73ffffffffffffffffffffffffffffffffffffffff168373ffffffffffffffffffffffffffffffffffffffff161480611dd95750609760009054906101000a900473ffffffffffffffffffffffffffffffffffffffff1673ffffffffffffffffffffffffffffffffffffffff16611dc161257d565b73ffffffffffffffffffffffffffffffffffffffff16145b611e18576040517f08c379a0000000000000000000000000000000000000000000000000000000008152600401611e0f906151c9565b60405180910390fd5b611e2c611e2361257d565b83839050612790565b611e6b576040517f08c379a0000000000000000000000000000000000000000000000000000000008152600401611e6290615235565b60405180910390fd5b60005b828290508110156122cb57609760009054906101000a900473ffffffffffffffffffffffffffffffffffffffff1673ffffffffffffffffffffffffffffffffffffffff16611eba61257d565b73ffffffffffffffffffffffffffffffffffffffff16146120d057611edd61257d565b73ffffffffffffffffffffffffffffffffffffffff16609760009054906101000a900473ffffffffffffffffffffffffffffffffffffffff1673ffffffffffffffffffffffffffffffffffffffff16636352211e858585818110611f4457611f43614c52565b5b9050602002016020810190611f599190614f33565b6040518263ffffffff1660e01b8152600401611f759190615286565b602060405180830381865afa158015611f92573d6000803e3d6000fd5b505050506040513d601f19601f82011682018060405250810190611fb691906152b6565b73ffffffffffffffffffffffffffffffffffffffff161461200c576040517f08c379a000000000000000000000000000000000000000000000000000000000815260040161200390614fac565b60405180910390fd5b609760009054906101000a900473ffffffffffffffffffffffffffffffffffffffff1673ffffffffffffffffffffffffffffffffffffffff166323b872dd61205261257d565b3086868681811061206657612065614c52565b5b905060200201602081019061207b9190614f33565b6040518463ffffffff1660e01b8152600401612099939291906152e3565b600060405180830381600087803b1580156120b357600080fd5b505af11580156120c7573d6000803e3d6000fd5b5050505061210a565b60008383838181106120e5576120e4614c52565b5b90506020020160208101906120fa9190614f33565b61ffff161415612109576122b8565b5b61213e8383838181106121205761211f614c52565b5b90506020020160208101906121359190614f33565b61ffff16613186565b61217d576040517f08c379a000000000000000000000000000000000000000000000000000000000815260040161217490615366565b60405180910390fd5b6121b183838381811061219357612192614c52565b5b90506020020160208101906121a89190614f33565b61ffff166122d1565b156121f0576121eb848484848181106121cd576121cc614c52565b5b90506020020160208101906121e29190614f33565b61ffff16613191565b612226565b6122258484848481811061220757612206614c52565b5b905060200201602081019061221c9190614f33565b61ffff16613350565b5b609b60008573ffffffffffffffffffffffffffffffffffffffff1673ffffffffffffffffffffffffffffffffffffffff16815260200190815260200160002083838381811061227857612277614c52565b5b905060200201602081019061228d9190614f33565b908060018154018082558091505060019003906000526020600020016000909161ffff169091909150555b80806122c390614e7e565b915050611e6e565b50505050565b6000609760009054906101000a900473ffffffffffffffffffffffffffffffffffffffff1673ffffffffffffffffffffffffffffffffffffffff1663e05c57bf836040518263ffffffff1660e01b815260040161232e9190613f16565b61014060405180830381865afa15801561234c573d6000803e3d6000fd5b505050506040513d601f19601f820116820180604052508101906123709190614a7e565b90919293949596975090919293949596509091929394955090919293945090919293509091925090915090505080915050919050565b609e5481565b6123b461257d565b73ffffffffffffffffffffffffffffffffffffffff166123d261114d565b73ffffffffffffffffffffffffffffffffffffffff1614612428576040517f08c379a000000000000000000000000000000000000000000000000000000000815260040161241f90614ba9565b60405180910390fd5b600073ffffffffffffffffffffffffffffffffffffffff168173ffffffffffffffffffffffffffffffffffffffff161415612498576040517f08c379a000000000000000000000000000000000000000000000000000000000815260040161248f906153f8565b60405180910390fd5b6124a181612627565b50565b60a05481565b60006124b530613518565b15905090565b600060019054906101000a900460ff1661250a576040517f08c379a00000000000000000000000000000000000000000000000000000000081526004016125019061548a565b60405180910390fd5b61251261352b565b61251a61357c565b565b600060019054906101000a900460ff1661256b576040517f08c379a00000000000000000000000000000000000000000000000000000000081526004016125629061548a565b60405180910390fd5b61257361352b565b61257b6135dd565b565b600033905090565b61258d610cb3565b6125cc576040517f08c379a00000000000000000000000000000000000000000000000000000000081526004016125c3906154f6565b60405180910390fd5b6000606560006101000a81548160ff0219169083151502179055507f5db9ee0a495bf2e6ff9c91a7834c1ba4fdd244a5e8aa4e537bd38aeae4b073aa61261061257d565b60405161261d9190614505565b60405180910390a1565b6000603360009054906101000a900473ffffffffffffffffffffffffffffffffffffffff16905081603360006101000a81548173ffffffffffffffffffffffffffffffffffffffff021916908373ffffffffffffffffffffffffffffffffffffffff1602179055508173ffffffffffffffffffffffffffffffffffffffff168173ffffffffffffffffffffffffffffffffffffffff167f8be0079c531659141344cd1fd0a4f28419497f9722a3daafe3b4186f6b6457e060405160405180910390a35050565b6126f5610cb3565b15612735576040517f08c379a000000000000000000000000000000000000000000000000000000000815260040161272c90614ccd565b60405180910390fd5b6001606560006101000a81548160ff0219169083151502179055507f62e78cea01bee320cd4e420270b5ea74000d11b0c9f74754ebdbfc544b05a25861277961257d565b6040516127869190614505565b60405180910390a1565b60006001905092915050565b60008060996000888152602001908152602001600020604051806080016040529081600082015481526020016001820160009054906101000a900473ffffffffffffffffffffffffffffffffffffffff1673ffffffffffffffffffffffffffffffffffffffff1673ffffffffffffffffffffffffffffffffffffffff1681526020016001820160149054906101000a900469ffffffffffffffffffff1669ffffffffffffffffffff1669ffffffffffffffffffff1681526020016002820160009054906101000a900469ffffffffffffffffffff1669ffffffffffffffffffff1669ffffffffffffffffffff168152505090508573ffffffffffffffffffffffffffffffffffffffff16816020015173ffffffffffffffffffffffffffffffffffffffff1614612901576040517f08c379a00000000000000000000000000000000000000000000000000000000081526004016128f890614fac565b60405180910390fd5b60a254816060015169ffffffffffffffffffff16426129209190614e1b565b1015612961576040517f08c379a000000000000000000000000000000000000000000000000000000000815260040161295890615018565b60405180910390fd5b836129745761296f81613649565b612977565b60005b915060008060006129888a87613797565b9250925092506129978a613186565b6129a057600197505b8715612ad357609760009054906101000a900473ffffffffffffffffffffffffffffffffffffffff1673ffffffffffffffffffffffffffffffffffffffff1663b88d4fde308b8d6040518463ffffffff1660e01b8152600401612a059392919061554d565b600060405180830381600087803b158015612a1f57600080fd5b505af1158015612a33573d6000803e3d6000fd5b50505050609960008b81526020019081526020016000206000808201600090556001820160006101000a81549073ffffffffffffffffffffffffffffffffffffffff02191690556001820160146101000a81549069ffffffffffffffffffff02191690556002820160006101000a81549069ffffffffffffffffffff02191690555050609e6000815480929190612ac990615597565b9190505550612bf4565b60405180608001604052808b61ffff1681526020018a73ffffffffffffffffffffffffffffffffffffffff1681526020014269ffffffffffffffffffff1681526020014269ffffffffffffffffffff16815250609960008c81526020019081526020016000206000820151816000015560208201518160010160006101000a81548173ffffffffffffffffffffffffffffffffffffffff021916908373ffffffffffffffffffffffffffffffffffffffff16021790555060408201518160010160146101000a81548169ffffffffffffffffffff021916908369ffffffffffffffffffff16021790555060608201518160020160006101000a81548169ffffffffffffffffffff021916908369ffffffffffffffffffff1602179055509050505b7f9b394c66bc4fdb2f56f5842a796076e6552d6f15eaacb6e63e3c53b474d872e98a868a86868660a154604051612c319796959493929190615638565b60405180910390a15050505095945050505050565b600080609a6000888152602001908152602001600020604051806080016040529081600082015481526020016001820160009054906101000a900473ffffffffffffffffffffffffffffffffffffffff1673ffffffffffffffffffffffffffffffffffffffff1673ffffffffffffffffffffffffffffffffffffffff1681526020016001820160149054906101000a900469ffffffffffffffffffff1669ffffffffffffffffffff1669ffffffffffffffffffff1681526020016002820160009054906101000a900469ffffffffffffffffffff1669ffffffffffffffffffff1669ffffffffffffffffffff168152505090508573ffffffffffffffffffffffffffffffffffffffff16816020015173ffffffffffffffffffffffffffffffffffffffff1614612dab576040517f08c379a0000000000000000000000000000000000000000000000000000000008152600401612da290614fac565b60405180910390fd5b60a254816060015169ffffffffffffffffffff1642612dca9190614e1b565b1015612e0b576040517f08c379a0000000000000000000000000000000000000000000000000000000008152600401612e0290615018565b60405180910390fd5b83612e1e57612e1981613955565b612e21565b60005b91506000806000612e328a87613797565b925092509250612e418a613186565b612e4a57600197505b8715612f7d57609760009054906101000a900473ffffffffffffffffffffffffffffffffffffffff1673ffffffffffffffffffffffffffffffffffffffff1663b88d4fde308b8d6040518463ffffffff1660e01b8152600401612eaf9392919061554d565b600060405180830381600087803b158015612ec957600080fd5b505af1158015612edd573d6000803e3d6000fd5b50505050609a60008b81526020019081526020016000206000808201600090556001820160006101000a81549073ffffffffffffffffffffffffffffffffffffffff02191690556001820160146101000a81549069ffffffffffffffffffff02191690556002820160006101000a81549069ffffffffffffffffffff02191690555050609f6000815480929190612f7390615597565b91905055506130a5565b60405180608001604052808b61ffff1681526020018a73ffffffffffffffffffffffffffffffffffffffff168152602001612fb6613a69565b69ffffffffffffffffffff1681526020014269ffffffffffffffffffff16815250609a60008c81526020019081526020016000206000820151816000015560208201518160010160006101000a81548173ffffffffffffffffffffffffffffffffffffffff021916908373ffffffffffffffffffffffffffffffffffffffff16021790555060408201518160010160146101000a81548169ffffffffffffffffffff021916908369ffffffffffffffffffff16021790555060608201518160020160006101000a81548169ffffffffffffffffffff021916908369ffffffffffffffffffff1602179055509050505b7f6e949c62565860afb9dd6295e998a1c40005fe9560aedf8d596717681cfc7a1f8a868a8686866040516130de969594939291906156ae565b60405180910390a15050505095945050505050565b60ad60009054906101000a900473ffffffffffffffffffffffffffffffffffffffff1673ffffffffffffffffffffffffffffffffffffffff166340c10f1983836040518363ffffffff1660e01b8152600401613150929190615716565b600060405180830381600087803b15801561316a57600080fd5b505af115801561317e573d6000803e3d6000fd5b505050505050565b600060019050919050565b613199610cb3565b156131d9576040517f08c379a00000000000000000000000000000000000000000000000000000000081526004016131d090614ccd565b60405180910390fd5b60405180608001604052808261ffff1681526020018373ffffffffffffffffffffffffffffffffffffffff1681526020014269ffffffffffffffffffff1681526020014269ffffffffffffffffffff16815250609960008381526020019081526020016000206000820151816000015560208201518160010160006101000a81548173ffffffffffffffffffffffffffffffffffffffff021916908373ffffffffffffffffffffffffffffffffffffffff16021790555060408201518160010160146101000a81548169ffffffffffffffffffff021916908369ffffffffffffffffffff16021790555060608201518160020160006101000a81548169ffffffffffffffffffff021916908369ffffffffffffffffffff160217905550905050609e600081548092919061330c90614e7e565b91905055507f8af1bb49fb16c7835975aa59449ba4328dd54737dfb2ae9fa6c5eca71fda51f98183426040516133449392919061573f565b60405180910390a15050565b613358610cb3565b15613398576040517f08c379a000000000000000000000000000000000000000000000000000000000815260040161338f90614ccd565b60405180910390fd5b60405180608001604052808261ffff1681526020018373ffffffffffffffffffffffffffffffffffffffff1681526020016133d1613a69565b69ffffffffffffffffffff1681526020014269ffffffffffffffffffff16815250609a60008381526020019081526020016000206000820151816000015560208201518160010160006101000a81548173ffffffffffffffffffffffffffffffffffffffff021916908373ffffffffffffffffffffffffffffffffffffffff16021790555060408201518160010160146101000a81548169ffffffffffffffffffff021916908369ffffffffffffffffffff16021790555060608201518160020160006101000a81548169ffffffffffffffffffff021916908369ffffffffffffffffffff160217905550905050609f60008154809291906134d290614e7e565b91905055507f8af1bb49fb16c7835975aa59449ba4328dd54737dfb2ae9fa6c5eca71fda51f9818360a15460405161350c9392919061573f565b60405180910390a15050565b600080823b905060008111915050919050565b600060019054906101000a900460ff1661357a576040517f08c379a00000000000000000000000000000000000000000000000000000000081526004016135719061548a565b60405180910390fd5b565b600060019054906101000a900460ff166135cb576040517f08c379a00000000000000000000000000000000000000000000000000000000081526004016135c29061548a565b60405180910390fd5b6135db6135d661257d565b612627565b565b600060019054906101000a900460ff1661362c576040517f08c379a00000000000000000000000000000000000000000000000000000000081526004016136239061548a565b60405180910390fd5b6000606560006101000a81548160ff021916908315150217905550565b60008061365983600001516109c2565b509050600060a054846040015169ffffffffffffffffffff164261367d9190614e1b565b60a55461368a9190614bf8565b61369491906157a5565b90506000600a60aa60009054906101000a900460ff1660ff168460ff166136bb9190614bf8565b6136c59190614bf8565b620186a06136d39190614dc5565b9050620186a081836136e59190614bf8565b6136ef91906157a5565b935060a4548460a8546137029190614dc5565b111561371b5760a85460a4546137189190614e1b565b93505b600084111561378f574260a98190555061374d606460a6548661373e9190614bf8565b61374891906157a5565b613a73565b606460a654606461375e9190614e1b565b856137699190614bf8565b61377391906157a5565b93508360a860008282546137879190614dc5565b925050819055505b505050919050565b600080606060006137a7866122d1565b6137dd57609a600087815260200190815260200160002060020160009054906101000a900469ffffffffffffffffffff1661380b565b6099600087815260200190815260200160002060020160009054906101000a900469ffffffffffffffffffff165b69ffffffffffffffffffff16426138229190614e1b565b9050600061382f876122d1565b9050609760009054906101000a900473ffffffffffffffffffffffffffffffffffffffff1673ffffffffffffffffffffffffffffffffffffffff166363dbfc77886138a48461388d57609d60029054906101000a900460000b61389e565b609d60009054906101000a900460000b5b86613adb565b6138d8856138c157609d60039054906101000a900460000b6138d2565b609d60019054906101000a900460000b5b87613adb565b8a6040518563ffffffff1660e01b81526004016138f894939291906157d6565b6000604051808303816000875af1158015613917573d6000803e3d6000fd5b505050506040513d6000823e3d601f19601f8201168201806040525081019061394091906158c1565b80955081965082975050505050509250925092565b60008061396583600001516109c2565b9150506000836040015169ffffffffffffffffffff1660a1546139889190614e1b565b905060006103e860ac5461399c9190615930565b60646103e860ab5460328760ff1611156139c2578660646139bd9190615a47565b6139c4565b865b60000b6139d19190615930565b6139db9190615930565b6139e59190615a7b565b6139ef9190615ae5565b9050620186a08183613a019190614bf8565b613a0b91906157a5565b935060a4548460a854613a1e9190614dc5565b1115613a375760a85460a454613a349190614e1b565b93505b6000841115613a61574260a9819055508360a86000828254613a599190614dc5565b925050819055505b505050919050565b600060a154905090565b6000609f541415613a9c578060a76000828254613a909190614dc5565b92505081905550613ad8565b609f5460a75482613aad9190614dc5565b613ab791906157a5565b60a16000828254613ac89190614dc5565b92505081905550600060a7819055505b50565b60008060a0548460000b84613af09190615930565b613afa9190615a7b565b90506064811315613b0f576064915050613b65565b7fffffffffffffffffffffffffffffffffffffffffffffffffffffffffffffff9c811215613b60577fffffffffffffffffffffffffffffffffffffffffffffffffffffffffffffff9c915050613b65565b809150505b92915050565b50805460008255600f016010900490600052602060002090810190613b909190613c41565b50565b82805482825590600052602060002090600f01601090048101928215613c305791602002820160005b83821115613c0057833561ffff1683826101000a81548161ffff021916908361ffff1602179055509260200192600201602081600101049283019260010302613bbc565b8015613c2e5782816101000a81549061ffff0219169055600201602081600101049283019260010302613c00565b505b509050613c3d9190613c41565b5090565b5b80821115613c5a576000816000905550600101613c42565b5090565b60008160000b9050919050565b613c7481613c5e565b82525050565b6000602082019050613c8f6000830184613c6b565b92915050565b6000819050919050565b613ca881613c95565b82525050565b6000602082019050613cc36000830184613c9f565b92915050565b6000604051905090565b600080fd5b600080fd5b600073ffffffffffffffffffffffffffffffffffffffff82169050919050565b6000613d0882613cdd565b9050919050565b613d1881613cfd565b8114613d2357600080fd5b50565b600081359050613d3581613d0f565b92915050565b6000819050919050565b613d4e81613d3b565b8114613d5957600080fd5b50565b600081359050613d6b81613d45565b92915050565b600080fd5b600080fd5b600080fd5b60008083601f840112613d9657613d95613d71565b5b8235905067ffffffffffffffff811115613db357613db2613d76565b5b602083019150836001820283011115613dcf57613dce613d7b565b5b9250929050565b600080600080600060808688031215613df257613df1613cd3565b5b6000613e0088828901613d26565b9550506020613e1188828901613d26565b9450506040613e2288828901613d5c565b935050606086013567ffffffffffffffff811115613e4357613e42613cd8565b5b613e4f88828901613d80565b92509250509295509295909350565b60007fffffffff0000000000000000000000000000000000000000000000000000000082169050919050565b613e9381613e5e565b82525050565b6000602082019050613eae6000830184613e8a565b92915050565b600080600060608486031215613ecd57613ecc613cd3565b5b6000613edb86828701613d26565b9350506020613eec86828701613d26565b9250506040613efd86828701613d5c565b9150509250925092565b613f1081613d3b565b82525050565b6000602082019050613f2b6000830184613f07565b92915050565b600060208284031215613f4757613f46613cd3565b5b6000613f5584828501613d5c565b91505092915050565b600060ff82169050919050565b613f7481613f5e565b82525050565b6000604082019050613f8f6000830185613f6b565b613f9c6020830184613f6b565b9392505050565b6000602082019050613fb86000830184613f6b565b92915050565b613fc781613cfd565b82525050565b600069ffffffffffffffffffff82169050919050565b613fec81613fcd565b82525050565b60006080820190506140076000830187613f07565b6140146020830186613fbe565b6140216040830185613fe3565b61402e6060830184613fe3565b95945050505050565b6000819050919050565b600061405c61405761405284613cdd565b614037565b613cdd565b9050919050565b600061406e82614041565b9050919050565b600061408082614063565b9050919050565b61409081614075565b82525050565b60006020820190506140ab6000830184614087565b92915050565b6000819050919050565b6140c4816140b1565b81146140cf57600080fd5b50565b6000813590506140e1816140bb565b92915050565b600080604083850312156140fe576140fd613cd3565b5b600061410c858286016140d2565b925050602061411d85828601613d5c565b9150509250929050565b600061ffff82169050919050565b61413e81614127565b82525050565b60006020820190506141596000830184614135565b92915050565b60008115159050919050565b6141748161415f565b82525050565b600060208201905061418f600083018461416b565b92915050565b6000601f19601f8301169050919050565b7f4e487b7100000000000000000000000000000000000000000000000000000000600052604160045260246000fd5b6141de82614195565b810181811067ffffffffffffffff821117156141fd576141fc6141a6565b5b80604052505050565b6000614210613cc9565b905061421c82826141d5565b919050565b600067ffffffffffffffff82111561423c5761423b6141a6565b5b602082029050602081019050919050565b600061426061425b84614221565b614206565b9050808382526020820190506020840283018581111561428357614282613d7b565b5b835b818110156142ac57806142988882613d5c565b845260208401935050602081019050614285565b5050509392505050565b600082601f8301126142cb576142ca613d71565b5b81356142db84826020860161424d565b91505092915050565b600067ffffffffffffffff8211156142ff576142fe6141a6565b5b602082029050602081019050919050565b61431981613c5e565b811461432457600080fd5b50565b60008135905061433681614310565b92915050565b600061434f61434a846142e4565b614206565b9050808382526020820190506020840283018581111561437257614371613d7b565b5b835b8181101561439b57806143878882614327565b845260208401935050602081019050614374565b5050509392505050565b600082601f8301126143ba576143b9613d71565b5b81356143ca84826020860161433c565b91505092915050565b6143dc81613f5e565b81146143e757600080fd5b50565b6000813590506143f9816143d3565b92915050565b61440881613c95565b811461441357600080fd5b50565b600081359050614425816143ff565b92915050565b600080600080600080600060e0888a03121561444a57614449613cd3565b5b60006144588a828b01613d5c565b975050602088013567ffffffffffffffff81111561447957614478613cd8565b5b6144858a828b016142b6565b965050604088013567ffffffffffffffff8111156144a6576144a5613cd8565b5b6144b28a828b016143a5565b95505060606144c38a828b016143ea565b94505060806144d48a828b01614416565b93505060a06144e58a828b01614416565b92505060c06144f68a828b016143ea565b91505092959891949750929550565b600060208201905061451a6000830184613fbe565b92915050565b600080fd5b600080fd5b600067ffffffffffffffff821115614545576145446141a6565b5b602082029050602081019050919050565b61455f81614127565b811461456a57600080fd5b50565b60008135905061457c81614556565b92915050565b60006145956145908461452a565b614206565b905080838252602082019050602084028301858111156145b8576145b7613d7b565b5b835b818110156145e157806145cd888261456d565b8452602084019350506020810190506145ba565b5050509392505050565b600082601f830112614600576145ff613d71565b5b8135614610848260208601614582565b91505092915050565b6146228161415f565b811461462d57600080fd5b50565b60008135905061463f81614619565b92915050565b600060a0828403121561465b5761465a614520565b5b61466560a0614206565b90506000614675848285016140d2565b600083015250602061468984828501613d26565b602083015250604061469d84828501613d26565b604083015250606082013567ffffffffffffffff8111156146c1576146c0614525565b5b6146cd848285016145eb565b60608301525060806146e184828501614630565b60808301525092915050565b6000806040838503121561470457614703613cd3565b5b600083013567ffffffffffffffff81111561472257614721613cd8565b5b61472e85828601614645565b925050602061473f85828601613d5c565b9150509250929050565b60008083601f84011261475f5761475e613d71565b5b8235905067ffffffffffffffff81111561477c5761477b613d76565b5b60208301915083602082028301111561479857614797613d7b565b5b9250929050565b6000806000604084860312156147b8576147b7613cd3565b5b600084013567ffffffffffffffff8111156147d6576147d5613cd8565b5b6147e286828701614749565b935093505060206147f586828701614630565b9150509250925092565b60008060006060848603121561481857614817613cd3565b5b600061482686828701613d26565b935050602061483786828701613d26565b925050604061484886828701613d26565b9150509250925092565b6000806040838503121561486957614868613cd3565b5b600061487785828601613d26565b925050602061488885828601613d5c565b9150509250929050565b6000806000604084860312156148ab576148aa613cd3565b5b60006148b986828701613d26565b935050602084013567ffffffffffffffff8111156148da576148d9613cd8565b5b6148e686828701614749565b92509250509250925092565b60006020828403121561490857614907613cd3565b5b600061491684828501613d26565b91505092915050565b600082825260208201905092915050565b7f43616e6e6f742073656e6420746f6b656e7320746f2056656e7565206469726560008201527f63746c7900000000000000000000000000000000000000000000000000000000602082015250565b600061498c60248361491f565b915061499782614930565b604082019050919050565b600060208201905081810360008301526149bb8161497f565b9050919050565b7f496e697469616c697a61626c653a20636f6e747261637420697320616c72656160008201527f647920696e697469616c697a6564000000000000000000000000000000000000602082015250565b6000614a1e602e8361491f565b9150614a29826149c2565b604082019050919050565b60006020820190508181036000830152614a4d81614a11565b9050919050565b600081519050614a6381614619565b92915050565b600081519050614a78816143d3565b92915050565b6000806000806000806000806000806101408b8d031215614aa257614aa1613cd3565b5b6000614ab08d828e01614a54565b9a50506020614ac18d828e01614a69565b9950506040614ad28d828e01614a69565b9850506060614ae38d828e01614a69565b9750506080614af48d828e01614a69565b96505060a0614b058d828e01614a69565b95505060c0614b168d828e01614a69565b94505060e0614b278d828e01614a69565b935050610100614b398d828e01614a69565b925050610120614b4b8d828e01614a69565b9150509295989b9194979a5092959850565b7f4f776e61626c653a2063616c6c6572206973206e6f7420746865206f776e6572600082015250565b6000614b9360208361491f565b9150614b9e82614b5d565b602082019050919050565b60006020820190508181036000830152614bc281614b86565b9050919050565b7f4e487b7100000000000000000000000000000000000000000000000000000000600052601160045260246000fd5b6000614c0382613d3b565b9150614c0e83613d3b565b9250817fffffffffffffffffffffffffffffffffffffffffffffffffffffffffffffffff0483118215151615614c4757614c46614bc9565b5b828202905092915050565b7f4e487b7100000000000000000000000000000000000000000000000000000000600052603260045260246000fd5b7f5061757361626c653a2070617573656400000000000000000000000000000000600082015250565b6000614cb760108361491f565b9150614cc282614c81565b602082019050919050565b60006020820190508181036000830152614ce681614caa565b9050919050565b7f4f6e6c7920436c61696d2063616e2066756c66696c6c00000000000000000000600082015250565b6000614d2360168361491f565b9150614d2e82614ced565b602082019050919050565b60006020820190508181036000830152614d5281614d16565b9050919050565b7f436c61696d2072657175657374206e6f7420666f756e64000000000000000000600082015250565b6000614d8f60178361491f565b9150614d9a82614d59565b602082019050919050565b60006020820190508181036000830152614dbe81614d82565b9050919050565b6000614dd082613d3b565b9150614ddb83613d3b565b9250827fffffffffffffffffffffffffffffffffffffffffffffffffffffffffffffffff03821115614e1057614e0f614bc9565b5b828201905092915050565b6000614e2682613d3b565b9150614e3183613d3b565b925082821015614e4457614e43614bc9565b5b828203905092915050565b7f4e487b7100000000000000000000000000000000000000000000000000000000600052603160045260246000fd5b6000614e8982613d3b565b91507fffffffffffffffffffffffffffffffffffffffffffffffffffffffffffffffff821415614ebc57614ebb614bc9565b5b600182019050919050565b7f496e76616c696420636c61696d20616d6f756e74000000000000000000000000600082015250565b6000614efd60148361491f565b9150614f0882614ec7565b602082019050919050565b60006020820190508181036000830152614f2c81614ef0565b9050919050565b600060208284031215614f4957614f48613cd3565b5b6000614f578482850161456d565b91505092915050565b7f4e6f7420796f757220746f6b656e000000000000000000000000000000000000600082015250565b6000614f96600e8361491f565b9150614fa182614f60565b602082019050919050565b60006020820190508181036000830152614fc581614f89565b9050919050565b7f43616e6e6f7420636c61696d206265666f726520454f42000000000000000000600082015250565b600061500260178361491f565b915061500d82614fcc565b602082019050919050565b6000602082019050818103600083015261503181614ff5565b9050919050565b600082825260208201905092915050565b6000819050919050565b61505c81614127565b82525050565b600061506e8383615053565b60208301905092915050565b6000615089602084018461456d565b905092915050565b6000602082019050919050565b60006150aa8385615038565b93506150b582615049565b8060005b858110156150ee576150cb828461507a565b6150d58882615062565b97506150e083615091565b9250506001810190506150b9565b5085925050509392505050565b60006060820190506151106000830187613fbe565b818103602083015261512381858761509e565b9050615132604083018461416b565b95945050505050565b60008151905061514a816140bb565b92915050565b60006020828403121561516657615165613cd3565b5b60006151748482850161513b565b91505092915050565b7f446f206e6f74206c6f736520796f757220746f6b656e73000000000000000000600082015250565b60006151b360178361491f565b91506151be8261517d565b602082019050919050565b600060208201905081810360008301526151e2816151a6565b9050919050565b7f4b69746368656e20737061636520726571756972656400000000000000000000600082015250565b600061521f60168361491f565b915061522a826151e9565b602082019050919050565b6000602082019050818103600083015261524e81615212565b9050919050565b600061527061526b61526684614127565b614037565b613d3b565b9050919050565b61528081615255565b82525050565b600060208201905061529b6000830184615277565b92915050565b6000815190506152b081613d0f565b92915050565b6000602082840312156152cc576152cb613cd3565b5b60006152da848285016152a1565b91505092915050565b60006060820190506152f86000830186613fbe565b6153056020830185613fbe565b6153126040830184615277565b949350505050565b7f4e6f7420656c696769626c650000000000000000000000000000000000000000600082015250565b6000615350600c8361491f565b915061535b8261531a565b602082019050919050565b6000602082019050818103600083015261537f81615343565b9050919050565b7f4f776e61626c653a206e6577206f776e657220697320746865207a65726f206160008201527f6464726573730000000000000000000000000000000000000000000000000000602082015250565b60006153e260268361491f565b91506153ed82615386565b604082019050919050565b60006020820190508181036000830152615411816153d5565b9050919050565b7f496e697469616c697a61626c653a20636f6e7472616374206973206e6f74206960008201527f6e697469616c697a696e67000000000000000000000000000000000000000000602082015250565b6000615474602b8361491f565b915061547f82615418565b604082019050919050565b600060208201905081810360008301526154a381615467565b9050919050565b7f5061757361626c653a206e6f7420706175736564000000000000000000000000600082015250565b60006154e060148361491f565b91506154eb826154aa565b602082019050919050565b6000602082019050818103600083015261550f816154d3565b9050919050565b600082825260208201905092915050565b50565b6000615537600083615516565b915061554282615527565b600082019050919050565b60006080820190506155626000830186613fbe565b61556f6020830185613fbe565b61557c6040830184613f07565b818103606083015261558d8161552a565b9050949350505050565b60006155a282613d3b565b915060008214156155b6576155b5614bc9565b5b600182039050919050565b600081519050919050565b60005b838110156155ea5780820151818401526020810190506155cf565b838111156155f9576000848401525b50505050565b600061560a826155c1565b615614818561491f565b93506156248185602086016155cc565b61562d81614195565b840191505092915050565b600060e08201905061564d600083018a613f07565b61565a6020830189613f07565b615667604083018861416b565b6156746060830187613f6b565b6156816080830186613f6b565b81810360a083015261569381856155ff565b90506156a260c0830184613f07565b98975050505050505050565b600060c0820190506156c36000830189613f07565b6156d06020830188613f07565b6156dd604083018761416b565b6156ea6060830186613f6b565b6156f76080830185613f6b565b81810360a083015261570981846155ff565b9050979650505050505050565b600060408201905061572b6000830185613fbe565b6157386020830184613f07565b9392505050565b60006060820190506157546000830186613f07565b6157616020830185613fbe565b61576e6040830184613f07565b949350505050565b7f4e487b7100000000000000000000000000000000000000000000000000000000600052601260045260246000fd5b60006157b082613d3b565b91506157bb83613d3b565b9250826157cb576157ca615776565b5b828204905092915050565b60006080820190506157eb6000830187613f07565b6157f86020830186613c6b565b6158056040830185613c6b565b6158126060830184613f07565b95945050505050565b600080fd5b600067ffffffffffffffff82111561583b5761583a6141a6565b5b61584482614195565b9050602081019050919050565b600061586461585f84615820565b614206565b9050828152602081018484840111156158805761587f61581b565b5b61588b8482856155cc565b509392505050565b600082601f8301126158a8576158a7613d71565b5b81516158b8848260208601615851565b91505092915050565b6000806000606084860312156158da576158d9613cd3565b5b60006158e886828701614a69565b93505060206158f986828701614a69565b925050604084015167ffffffffffffffff81111561591a57615919613cd8565b5b61592686828701615893565b9150509250925092565b600061593b82613c95565b915061594683613c95565b9250827f7fffffffffffffffffffffffffffffffffffffffffffffffffffffffffffffff048211600084136000841316161561598557615984614bc9565b5b817f800000000000000000000000000000000000000000000000000000000000000005831260008412600084131616156159c2576159c1614bc9565b5b827f800000000000000000000000000000000000000000000000000000000000000005821260008413600084121616156159ff576159fe614bc9565b5b827f7fffffffffffffffffffffffffffffffffffffffffffffffffffffffffffffff0582126000841260008412161615615a3c57615a3b614bc9565b5b828202905092915050565b6000615a5282613f5e565b9150615a5d83613f5e565b925082821015615a7057615a6f614bc9565b5b828203905092915050565b6000615a8682613c95565b9150615a9183613c95565b925082615aa157615aa0615776565b5b600160000383147f800000000000000000000000000000000000000000000000000000000000000083141615615ada57615ad9614bc9565b5b828205905092915050565b6000615af082613c95565b9150615afb83613c95565b9250817f7fffffffffffffffffffffffffffffffffffffffffffffffffffffffffffffff03831360008312151615615b3657615b35614bc9565b5b817f8000000000000000000000000000000000000000000000000000000000000000038312600083121615615b6e57615b6d614bc9565b5b82820190509291505056fea26469706673582212203a29fc989aa196ada5269e5cf489dee163e8a45c54387914494bfae8f0f61a5264736f6c634300080a0033",
  "immutableReferences": {},
  "source": "// SPDX-License-Identifier: MIT\n\npragma solidity ^0.8.0;\n\nimport \"./Kitchen.sol\";\nimport \"./FastFood.sol\";\n\ncontract McStake is Kitchen {\n  FastFood foodToken; // Reference to the $FFOOD contract\n\n  function initialize(\n    address _character,\n    address _claim,\n    address _foodToken\n  ) external initializer {\n    __Ownable_init();\n    __Pausable_init();\n\n    unaccountedRewards = 0;\n    foodTokensPerRat = 0;\n    lastClaimTimestamp = 0;\n\n    character = Character(_character);\n    claim = IClaim(_claim);\n    foodToken = FastFood(_foodToken);\n  }\n\n  /**\n   * Allows DAO to update game parameters\n   */\n  function configure(\n    uint256 _foodTokenMaxSupply,\n    uint256[] memory _earningSettings, // dailyChefEarnings, ratTheftPercentage, vestingPeriod, accrualPeriod\n    int8[] memory _propertyIncrements, // dailySkillRate, dailyInsanityRate, dailyIntelligenceRate, dailyFatnessRate\n    uint8 _chefEfficiencyMultiplier,\n    int256 _ratEfficiencyMultiplier,\n    int256 _ratEfficiencyOffset,\n    uint8 _maxClaimsPerTx\n  ) external onlyOwner {\n    foodTokenMaxSupply = _foodTokenMaxSupply * 1 ether;\n    dailyChefEarnings = _earningSettings[0] * 1 ether;\n    ratTheftPercentage = _earningSettings[1];\n    vestingPeriod = _earningSettings[2];\n    accrualPeriod = _earningSettings[3];\n    dailySkillRate = _propertyIncrements[0];\n    dailyInsanityRate = _propertyIncrements[1];\n    dailyIntelligenceRate = _propertyIncrements[2];\n    dailyFatnessRate = _propertyIncrements[3];\n    chefEfficiencyMultiplier = _chefEfficiencyMultiplier;\n    ratEfficiencyMultiplier = _ratEfficiencyMultiplier;\n    ratEfficiencyOffset = _ratEfficiencyOffset;\n    maxClaimsPerTx = _maxClaimsPerTx;\n  }\n\n  /**\n   * Mints the given amount of food tokens in the user's account\n   * @param sender - User wallet address\n   * @param amount - Amount of food tokens to mint\n   */\n  function _mintFoodToken(address sender, uint256 amount) internal override {\n    foodToken.mint(sender, amount);\n  }\n}\n",
  "sourcePath": "/Users/chris/workspace/ratalert/ratalert-contracts/contracts/McStake.sol",
  "compiler": {
    "name": "solc",
    "version": "0.8.10+commit.fc410830.Emscripten.clang"
  },
  "schemaVersion": "3.4.5",
  "updatedAt": "2022-03-16T22:37:18.178Z",
  "networkType": "ethereum",
  "devdoc": {
    "kind": "dev",
    "methods": {
      "claimMany(uint16[],bool)": {
        "params": {
          "tokenIds": "- The IDs of the tokens in question",
          "unstake": "- Whether or not to unstake the given tokens"
        }
      },
      "fulfillClaimMany((bytes32,address,address,uint16[],bool),uint256)": {
        "params": {
          "randomVal": "- List of random values created by VRF",
          "v": "- VRF struct for the corresponding request"
        }
      },
      "getProperties(uint256)": {
        "params": {
          "tokenId": "- The ID of the token to check"
        },
        "returns": {
          "efficiency": "& tolerance values"
        }
      },
      "isChef(uint256)": {
        "params": {
          "tokenId": "- The ID of the token to check"
        },
        "returns": {
          "chef": "- Whether or not the token is a Chef"
        }
      },
      "owner()": {
        "details": "Returns the address of the current owner."
      },
      "paused()": {
        "details": "Returns true if the contract is paused, and false otherwise."
      },
      "renounceOwnership()": {
        "details": "Leaves the contract without owner. It will not be possible to call `onlyOwner` functions anymore. Can only be called by the current owner. NOTE: Renouncing ownership will leave the contract without an owner, thereby removing any functionality that is only available to the owner."
      },
      "stakeMany(address,uint16[])": {
        "params": {
          "account": "- The address of the staker",
          "tokenIds": "- The IDs of the Chefs & Rats to stake"
        }
      },
      "transferOwnership(address)": {
        "details": "Transfers ownership of the contract to a new account (`newOwner`). Can only be called by the current owner."
      }
    },
    "version": 1
  },
  "userdoc": {
    "kind": "user",
    "methods": {
      "claimMany(uint16[],bool)": {
        "notice": "ChainLink VRF request: Claims food token earnings, level-ups and optionally unstake characters"
      },
      "configure(uint256,uint256[],int8[],uint8,int256,int256,uint8)": {
        "notice": "Allows DAO to update game parameters"
      },
      "fulfillClaimMany((bytes32,address,address,uint16[],bool),uint256)": {
        "notice": "ChainLink VRF callback for claimMany()"
      },
      "getProperties(uint256)": {
        "notice": "Get the character's properties"
      },
      "isChef(uint256)": {
        "notice": "Checks if the token is a Chef"
      },
      "stakeMany(address,uint16[])": {
        "notice": "Adds Chefs & Rats"
      }
    },
    "version": 1
  }
}