{
  "contractName": "McStake",
  "abi": [
    {
      "anonymous": false,
      "inputs": [
        {
          "indexed": false,
          "internalType": "uint256",
          "name": "tokenId",
          "type": "uint256"
        },
        {
          "indexed": false,
          "internalType": "uint256",
          "name": "earned",
          "type": "uint256"
        },
        {
          "indexed": false,
          "internalType": "bool",
          "name": "unstaked",
          "type": "bool"
        },
        {
          "indexed": false,
          "internalType": "uint8",
          "name": "skill",
          "type": "uint8"
        },
        {
          "indexed": false,
          "internalType": "uint8",
          "name": "insanity",
          "type": "uint8"
        },
        {
          "indexed": false,
          "internalType": "string",
          "name": "eventName",
          "type": "string"
        },
        {
          "indexed": false,
          "internalType": "uint256",
          "name": "foodTokensPerRat",
          "type": "uint256"
        }
      ],
      "name": "ChefClaimed",
      "type": "event"
    },
    {
      "anonymous": false,
      "inputs": [
        {
          "indexed": true,
          "internalType": "address",
          "name": "previousOwner",
          "type": "address"
        },
        {
          "indexed": true,
          "internalType": "address",
          "name": "newOwner",
          "type": "address"
        }
      ],
      "name": "OwnershipTransferred",
      "type": "event"
    },
    {
      "anonymous": false,
      "inputs": [
        {
          "indexed": false,
          "internalType": "address",
          "name": "account",
          "type": "address"
        }
      ],
      "name": "Paused",
      "type": "event"
    },
    {
      "anonymous": false,
      "inputs": [
        {
          "indexed": false,
          "internalType": "uint256",
          "name": "tokenId",
          "type": "uint256"
        },
        {
          "indexed": false,
          "internalType": "uint256",
          "name": "earned",
          "type": "uint256"
        },
        {
          "indexed": false,
          "internalType": "bool",
          "name": "unstaked",
          "type": "bool"
        },
        {
          "indexed": false,
          "internalType": "uint8",
          "name": "intelligence",
          "type": "uint8"
        },
        {
          "indexed": false,
          "internalType": "uint8",
          "name": "fatness",
          "type": "uint8"
        },
        {
          "indexed": false,
          "internalType": "string",
          "name": "eventName",
          "type": "string"
        }
      ],
      "name": "RatClaimed",
      "type": "event"
    },
    {
      "anonymous": false,
      "inputs": [
        {
          "indexed": false,
          "internalType": "uint256",
          "name": "tokenId",
          "type": "uint256"
        },
        {
          "indexed": false,
          "internalType": "address",
          "name": "owner",
          "type": "address"
        },
        {
          "indexed": false,
          "internalType": "uint256",
          "name": "value",
          "type": "uint256"
        }
      ],
      "name": "TokenStaked",
      "type": "event"
    },
    {
      "anonymous": false,
      "inputs": [
        {
          "indexed": false,
          "internalType": "address",
          "name": "account",
          "type": "address"
        }
      ],
      "name": "Unpaused",
      "type": "event"
    },
    {
      "inputs": [],
      "name": "accrualPeriod",
      "outputs": [
        {
          "internalType": "uint256",
          "name": "",
          "type": "uint256"
        }
      ],
      "stateMutability": "view",
      "type": "function",
      "constant": true
    },
    {
      "inputs": [],
      "name": "chefEfficiencyMultiplier",
      "outputs": [
        {
          "internalType": "uint8",
          "name": "",
          "type": "uint8"
        }
      ],
      "stateMutability": "view",
      "type": "function",
      "constant": true
    },
    {
      "inputs": [
        {
          "internalType": "uint256",
          "name": "",
          "type": "uint256"
        }
      ],
      "name": "chefs",
      "outputs": [
        {
          "internalType": "uint256",
          "name": "tokenId",
          "type": "uint256"
        },
        {
          "internalType": "address",
          "name": "owner",
          "type": "address"
        },
        {
          "internalType": "uint80",
          "name": "value",
          "type": "uint80"
        },
        {
          "internalType": "uint80",
          "name": "timestamp",
          "type": "uint80"
        }
      ],
      "stateMutability": "view",
      "type": "function",
      "constant": true
    },
    {
      "inputs": [
        {
          "internalType": "uint16[]",
          "name": "tokenIds",
          "type": "uint16[]"
        },
        {
          "internalType": "bool",
          "name": "unstake",
          "type": "bool"
        }
      ],
      "name": "claimMany",
      "outputs": [],
      "stateMutability": "nonpayable",
      "type": "function"
    },
    {
      "inputs": [],
      "name": "dailyChefEarnings",
      "outputs": [
        {
          "internalType": "uint256",
          "name": "",
          "type": "uint256"
        }
      ],
      "stateMutability": "view",
      "type": "function",
      "constant": true
    },
    {
      "inputs": [],
      "name": "dailyFatnessRate",
      "outputs": [
        {
          "internalType": "int8",
          "name": "",
          "type": "int8"
        }
      ],
      "stateMutability": "view",
      "type": "function",
      "constant": true
    },
    {
      "inputs": [],
      "name": "dailyInsanityRate",
      "outputs": [
        {
          "internalType": "int8",
          "name": "",
          "type": "int8"
        }
      ],
      "stateMutability": "view",
      "type": "function",
      "constant": true
    },
    {
      "inputs": [],
      "name": "dailyIntelligenceRate",
      "outputs": [
        {
          "internalType": "int8",
          "name": "",
          "type": "int8"
        }
      ],
      "stateMutability": "view",
      "type": "function",
      "constant": true
    },
    {
      "inputs": [],
      "name": "dailySkillRate",
      "outputs": [
        {
          "internalType": "int8",
          "name": "",
          "type": "int8"
        }
      ],
      "stateMutability": "view",
      "type": "function",
      "constant": true
    },
    {
      "inputs": [],
      "name": "foodTokenMaxSupply",
      "outputs": [
        {
          "internalType": "uint256",
          "name": "",
          "type": "uint256"
        }
      ],
      "stateMutability": "view",
      "type": "function",
      "constant": true
    },
    {
      "inputs": [],
      "name": "foodTokensPerRat",
      "outputs": [
        {
          "internalType": "uint256",
          "name": "",
          "type": "uint256"
        }
      ],
      "stateMutability": "view",
      "type": "function",
      "constant": true
    },
    {
      "inputs": [
        {
          "internalType": "uint256",
          "name": "tokenId",
          "type": "uint256"
        }
      ],
      "name": "getProperties",
      "outputs": [
        {
          "internalType": "uint8",
          "name": "efficiency",
          "type": "uint8"
        },
        {
          "internalType": "uint8",
          "name": "tolerance",
          "type": "uint8"
        }
      ],
      "stateMutability": "view",
      "type": "function",
      "constant": true
    },
    {
      "inputs": [
        {
          "internalType": "uint256",
          "name": "tokenId",
          "type": "uint256"
        }
      ],
      "name": "isChef",
      "outputs": [
        {
          "internalType": "bool",
          "name": "chef",
          "type": "bool"
        }
      ],
      "stateMutability": "view",
      "type": "function",
      "constant": true
    },
    {
      "inputs": [],
      "name": "lastClaimTimestamp",
      "outputs": [
        {
          "internalType": "uint256",
          "name": "",
          "type": "uint256"
        }
      ],
      "stateMutability": "view",
      "type": "function",
      "constant": true
    },
    {
      "inputs": [
        {
          "internalType": "address",
          "name": "",
          "type": "address"
        },
        {
          "internalType": "address",
          "name": "from",
          "type": "address"
        },
        {
          "internalType": "uint256",
          "name": "",
          "type": "uint256"
        },
        {
          "internalType": "bytes",
          "name": "",
          "type": "bytes"
        }
      ],
      "name": "onERC721Received",
      "outputs": [
        {
          "internalType": "bytes4",
          "name": "",
          "type": "bytes4"
        }
      ],
      "stateMutability": "pure",
      "type": "function",
      "constant": true
    },
    {
      "inputs": [],
      "name": "owner",
      "outputs": [
        {
          "internalType": "address",
          "name": "",
          "type": "address"
        }
      ],
      "stateMutability": "view",
      "type": "function",
      "constant": true
    },
    {
      "inputs": [],
      "name": "paused",
      "outputs": [
        {
          "internalType": "bool",
          "name": "",
          "type": "bool"
        }
      ],
      "stateMutability": "view",
      "type": "function",
      "constant": true
    },
    {
      "inputs": [],
      "name": "ratEfficiencyMultiplier",
      "outputs": [
        {
          "internalType": "int256",
          "name": "",
          "type": "int256"
        }
      ],
      "stateMutability": "view",
      "type": "function",
      "constant": true
    },
    {
      "inputs": [],
      "name": "ratEfficiencyOffset",
      "outputs": [
        {
          "internalType": "int256",
          "name": "",
          "type": "int256"
        }
      ],
      "stateMutability": "view",
      "type": "function",
      "constant": true
    },
    {
      "inputs": [],
      "name": "ratTheftPercentage",
      "outputs": [
        {
          "internalType": "uint256",
          "name": "",
          "type": "uint256"
        }
      ],
      "stateMutability": "view",
      "type": "function",
      "constant": true
    },
    {
      "inputs": [
        {
          "internalType": "uint256",
          "name": "",
          "type": "uint256"
        }
      ],
      "name": "rats",
      "outputs": [
        {
          "internalType": "uint256",
          "name": "tokenId",
          "type": "uint256"
        },
        {
          "internalType": "address",
          "name": "owner",
          "type": "address"
        },
        {
          "internalType": "uint80",
          "name": "value",
          "type": "uint80"
        },
        {
          "internalType": "uint80",
          "name": "timestamp",
          "type": "uint80"
        }
      ],
      "stateMutability": "view",
      "type": "function",
      "constant": true
    },
    {
      "inputs": [],
      "name": "renounceOwnership",
      "outputs": [],
      "stateMutability": "nonpayable",
      "type": "function"
    },
    {
      "inputs": [
        {
          "internalType": "address",
          "name": "account",
          "type": "address"
        },
        {
          "internalType": "uint16[]",
          "name": "tokenIds",
          "type": "uint16[]"
        }
      ],
      "name": "stakeMany",
      "outputs": [],
      "stateMutability": "nonpayable",
      "type": "function"
    },
    {
      "inputs": [
        {
          "internalType": "address",
          "name": "",
          "type": "address"
        },
        {
          "internalType": "uint256",
          "name": "",
          "type": "uint256"
        }
      ],
      "name": "stakers",
      "outputs": [
        {
          "internalType": "uint256",
          "name": "",
          "type": "uint256"
        }
      ],
      "stateMutability": "view",
      "type": "function",
      "constant": true
    },
    {
      "inputs": [],
      "name": "totalChefsStaked",
      "outputs": [
        {
          "internalType": "uint256",
          "name": "",
          "type": "uint256"
        }
      ],
      "stateMutability": "view",
      "type": "function",
      "constant": true
    },
    {
      "inputs": [],
      "name": "totalFoodTokensEarned",
      "outputs": [
        {
          "internalType": "uint256",
          "name": "",
          "type": "uint256"
        }
      ],
      "stateMutability": "view",
      "type": "function",
      "constant": true
    },
    {
      "inputs": [],
      "name": "totalRatsStaked",
      "outputs": [
        {
          "internalType": "uint256",
          "name": "",
          "type": "uint256"
        }
      ],
      "stateMutability": "view",
      "type": "function",
      "constant": true
    },
    {
      "inputs": [
        {
          "internalType": "address",
          "name": "newOwner",
          "type": "address"
        }
      ],
      "name": "transferOwnership",
      "outputs": [],
      "stateMutability": "nonpayable",
      "type": "function"
    },
    {
      "inputs": [],
      "name": "unaccountedRewards",
      "outputs": [
        {
          "internalType": "uint256",
          "name": "",
          "type": "uint256"
        }
      ],
      "stateMutability": "view",
      "type": "function",
      "constant": true
    },
    {
      "inputs": [],
      "name": "vestingPeriod",
      "outputs": [
        {
          "internalType": "uint256",
          "name": "",
          "type": "uint256"
        }
      ],
      "stateMutability": "view",
      "type": "function",
      "constant": true
    },
    {
      "inputs": [
        {
          "internalType": "address",
          "name": "_character",
          "type": "address"
        },
        {
          "internalType": "address",
          "name": "_foodToken",
          "type": "address"
        },
        {
          "internalType": "uint256",
          "name": "_foodTokenMaxSupply",
          "type": "uint256"
        },
        {
          "internalType": "uint256[]",
          "name": "_earningSettings",
          "type": "uint256[]"
        },
        {
          "internalType": "int8[]",
          "name": "_propertyIncrements",
          "type": "int8[]"
        },
        {
          "internalType": "uint8",
          "name": "_chefEfficiencyMultiplier",
          "type": "uint8"
        },
        {
          "internalType": "int256",
          "name": "_ratEfficiencyMultiplier",
          "type": "int256"
        },
        {
          "internalType": "int256",
          "name": "_ratEfficiencyOffset",
          "type": "int256"
        }
      ],
      "name": "initialize",
      "outputs": [],
      "stateMutability": "nonpayable",
      "type": "function"
    },
    {
      "inputs": [],
      "name": "initialize",
      "outputs": [],
      "stateMutability": "nonpayable",
      "type": "function"
    },
    {
      "inputs": [
        {
          "internalType": "address",
          "name": "_character",
          "type": "address"
        },
        {
          "internalType": "uint256",
          "name": "_accrualPeriod",
          "type": "uint256"
        }
      ],
      "name": "initialize",
      "outputs": [],
      "stateMutability": "nonpayable",
      "type": "function"
    }
  ],
  "bytecode": "0x608060405234801561001057600080fd5b50614b77806100206000396000f3fe608060405234801561001057600080fd5b50600436106101fb5760003560e01c80638129fc1c1161011a578063cba88af8116100ad578063dbdc1f6b1161007c578063dbdc1f6b1461057b578063ef9f800f14610597578063f2666746146105c7578063f2fde38b146105e5578063f666415514610601576101fb565b8063cba88af814610505578063cd6dc68714610523578063d7178ac61461053f578063d8dda92e1461055d576101fb565b8063a7a10290116100e9578063a7a102901461047d578063bdb6294114610499578063c0c472c0146104b7578063c8b6cbf7146104d5576101fb565b80638129fc1c146104195780638da5cb5b1461042357806391ba3f3f14610441578063a262c0ad1461045f576101fb565b806335ec066e116101925780635c975abb116101615780635c975abb146103b5578063607af397146103d3578063715018a6146103f15780637313ee5a146103fb576101fb565b806335ec066e14610315578063499f8010146103485780634d1c61af146103665780635899991214610399576101fb565b80631b8ca217116101ce5780631b8ca2171461028a5780632535a77f146102bb5780632d79320b146102d95780632e2ce28b146102f7576101fb565b806310d53df114610200578063138e6ad51461021e578063150b7a021461023c5780631b4d47a11461026c575b600080fd5b61020861061f565b60405161021591906132b8565b60405180910390f35b610226610632565b60405161023391906132ec565b60405180910390f35b61025660048036038101906102519190613414565b610638565b60405161026391906134d7565b60405180910390f35b6102746106bb565b6040516102819190613501565b60405180910390f35b6102a4600480360381019061029f919061351c565b6106c1565b6040516102b2929190613565565b60405180910390f35b6102c36107a2565b6040516102d09190613501565b60405180910390f35b6102e16107a8565b6040516102ee919061358e565b60405180910390f35b6102ff6107bb565b60405161030c9190613501565b60405180910390f35b61032f600480360381019061032a919061351c565b6107c1565b60405161033f94939291906135dd565b60405180910390f35b61035061083d565b60405161035d9190613501565b60405180910390f35b610380600480360381019061037b919061351c565b610843565b60405161039094939291906135dd565b60405180910390f35b6103b360048036038101906103ae91906138b8565b6108bf565b005b6103bd610c17565b6040516103ca91906139c1565b60405180910390f35b6103db610c2e565b6040516103e89190613501565b60405180910390f35b6103f9610c34565b005b610403610cbc565b6040516104109190613501565b60405180910390f35b610421610cc2565b005b61042b610db6565b60405161043891906139dc565b60405180910390f35b610449610de0565b6040516104569190613501565b60405180910390f35b610467610de6565b60405161047491906132b8565b60405180910390f35b61049760048036038101906104929190613a79565b610df9565b005b6104a16111d0565b6040516104ae91906132b8565b60405180910390f35b6104bf6111e3565b6040516104cc9190613501565b60405180910390f35b6104ef60048036038101906104ea9190613ad9565b6111e9565b6040516104fc9190613501565b60405180910390f35b61050d61121a565b60405161051a91906132b8565b60405180910390f35b61053d60048036038101906105389190613ad9565b61122d565b005b6105476113e7565b60405161055491906132ec565b60405180910390f35b6105656113ed565b6040516105729190613501565b60405180910390f35b61059560048036038101906105909190613b19565b6113f3565b005b6105b160048036038101906105ac919061351c565b611978565b6040516105be91906139c1565b60405180910390f35b6105cf611a4d565b6040516105dc9190613501565b60405180910390f35b6105ff60048036038101906105fa9190613b79565b611a53565b005b610609611b4b565b6040516106169190613501565b60405180910390f35b609b60009054906101000a900460000b81565b60a85481565b60008073ffffffffffffffffffffffffffffffffffffffff168573ffffffffffffffffffffffffffffffffffffffff16146106a8576040517f08c379a000000000000000000000000000000000000000000000000000000000815260040161069f90613c29565b60405180910390fd5b63150b7a0260e01b905095945050505050565b60a15481565b600080609760009054906101000a900473ffffffffffffffffffffffffffffffffffffffff1673ffffffffffffffffffffffffffffffffffffffff1663e05c57bf846040518263ffffffff1660e01b815260040161071f9190613501565b61014060405180830381865afa15801561073d573d6000803e3d6000fd5b505050506040513d601f19601f820116820180604052508101906107619190613c73565b909192939495969798509091929394959697509091929394959650909192939495509091929394509091929350909192509091508092508193505050915091565b609f5481565b60a760009054906101000a900460ff1681565b60a35481565b60996020528060005260406000206000915090508060000154908060010160009054906101000a900473ffffffffffffffffffffffffffffffffffffffff16908060010160149054906101000a900469ffffffffffffffffffff16908060020160009054906101000a900469ffffffffffffffffffff16905084565b609d5481565b60986020528060005260406000206000915090508060000154908060010160009054906101000a900473ffffffffffffffffffffffffffffffffffffffff16908060010160149054906101000a900469ffffffffffffffffffff16908060020160009054906101000a900469ffffffffffffffffffff16905084565b600060019054906101000a900460ff166108e75760008054906101000a900460ff16156108f0565b6108ef611b51565b5b61092f576040517f08c379a000000000000000000000000000000000000000000000000000000000815260040161092690613dc4565b60405180910390fd5b60008060019054906101000a900460ff16159050801561097f576001600060016101000a81548160ff02191690831515021790555060016000806101000a81548160ff0219169083151502179055505b610987611b62565b61098f611bc3565b600060a4819055506000609f81905550600060a68190555088609760006101000a81548173ffffffffffffffffffffffffffffffffffffffff021916908373ffffffffffffffffffffffffffffffffffffffff1602179055508760aa60006101000a81548173ffffffffffffffffffffffffffffffffffffffff021916908373ffffffffffffffffffffffffffffffffffffffff160217905550670de0b6b3a764000087610a3d9190613e13565b60a181905550670de0b6b3a764000086600081518110610a6057610a5f613e6d565b5b6020026020010151610a729190613e13565b60a28190555085600181518110610a8c57610a8b613e6d565b5b602002602001015160a38190555085600281518110610aae57610aad613e6d565b5b602002602001015160a08190555085600381518110610ad057610acf613e6d565b5b6020026020010151609e8190555084600081518110610af257610af1613e6d565b5b6020026020010151609b60006101000a81548160ff021916908360000b60ff16021790555084600181518110610b2b57610b2a613e6d565b5b6020026020010151609b60016101000a81548160ff021916908360000b60ff16021790555084600281518110610b6457610b63613e6d565b5b6020026020010151609b60026101000a81548160ff021916908360000b60ff16021790555084600381518110610b9d57610b9c613e6d565b5b6020026020010151609b60036101000a81548160ff021916908360000b60ff1602179055508360a760006101000a81548160ff021916908360ff1602179055508260a8819055508160a9819055508015610c0c5760008060016101000a81548160ff0219169083151502179055505b505050505050505050565b6000606560009054906101000a900460ff16905090565b60a65481565b610c3c611c24565b73ffffffffffffffffffffffffffffffffffffffff16610c5a610db6565b73ffffffffffffffffffffffffffffffffffffffff1614610cb0576040517f08c379a0000000000000000000000000000000000000000000000000000000008152600401610ca790613ee8565b60405180910390fd5b610cba6000611c2c565b565b60a05481565b600060019054906101000a900460ff16610cea5760008054906101000a900460ff1615610cf3565b610cf2611b51565b5b610d32576040517f08c379a0000000000000000000000000000000000000000000000000000000008152600401610d2990613dc4565b60405180910390fd5b60008060019054906101000a900460ff161590508015610d82576001600060016101000a81548160ff02191690831515021790555060016000806101000a81548160ff0219169083151502179055505b610d8a611b62565b610d92611bc3565b8015610db35760008060016101000a81548160ff0219169083151502179055505b50565b6000603360009054906101000a900473ffffffffffffffffffffffffffffffffffffffff16905090565b60a25481565b609b60029054906101000a900460000b81565b610e01610c17565b15610e41576040517f08c379a0000000000000000000000000000000000000000000000000000000008152600401610e3890613f54565b60405180910390fd5b6000610e4b611c24565b90506000805b858590508110156111b5576000610e686000611cf2565b9050610e9e878784818110610e8057610e7f613e6d565b5b9050602002016020810190610e959190613fae565b61ffff16611978565b15610ef557610ee3878784818110610eb957610eb8613e6d565b5b9050602002016020810190610ece9190613fae565b61ffff16821580610edc5750865b8315611cfd565b83610eee9190613fdb565b9250610f43565b610f35878784818110610f0b57610f0a613e6d565b5b9050602002016020810190610f209190613fae565b61ffff16821580610f2e5750865b83156121c2565b83610f409190613fdb565b92505b60005b609a60008673ffffffffffffffffffffffffffffffffffffffff1673ffffffffffffffffffffffffffffffffffffffff168152602001908152602001600020805490508110156111a057878784818110610fa357610fa2613e6d565b5b9050602002016020810190610fb89190613fae565b61ffff16609a60008773ffffffffffffffffffffffffffffffffffffffff1673ffffffffffffffffffffffffffffffffffffffff168152602001908152602001600020828154811061100d5761100c613e6d565b5b9060005260206000200154141561118d57609a60008673ffffffffffffffffffffffffffffffffffffffff1673ffffffffffffffffffffffffffffffffffffffff1681526020019081526020016000206001609a60008873ffffffffffffffffffffffffffffffffffffffff1673ffffffffffffffffffffffffffffffffffffffff168152602001908152602001600020805490506110ac9190614031565b815481106110bd576110bc613e6d565b5b9060005260206000200154609a60008773ffffffffffffffffffffffffffffffffffffffff1673ffffffffffffffffffffffffffffffffffffffff168152602001908152602001600020828154811061111957611118613e6d565b5b9060005260206000200181905550609a60008673ffffffffffffffffffffffffffffffffffffffff1673ffffffffffffffffffffffffffffffffffffffff16815260200190815260200160002080548061117657611175614065565b5b600190038181906000526020600020016000905590555b808061119890614094565b915050610f46565b505080806111ad90614094565b915050610e51565b5060008111156111c9576111c88161268a565b5b5050505050565b609b60019054906101000a900460000b81565b60a45481565b609a602052816000526040600020818154811061120557600080fd5b90600052602060002001600091509150505481565b609b60039054906101000a900460000b81565b600060019054906101000a900460ff166112555760008054906101000a900460ff161561125e565b61125d611b51565b5b61129d576040517f08c379a000000000000000000000000000000000000000000000000000000000815260040161129490613dc4565b60405180910390fd5b60008060019054906101000a900460ff1615905080156112ed576001600060016101000a81548160ff02191690831515021790555060016000806101000a81548160ff0219169083151502179055505b6112f5611b62565b6112fd611bc3565b82609760006101000a81548173ffffffffffffffffffffffffffffffffffffffff021916908373ffffffffffffffffffffffffffffffffffffffff16021790555081609e819055506000609b60006101000a81548160ff021916908360000b60ff1602179055506000609b60016101000a81548160ff021916908360000b60ff1602179055506000609b60026101000a81548160ff021916908360000b60ff1602179055506000609b60036101000a81548160ff021916908360000b60ff16021790555080156113e25760008060016101000a81548160ff0219169083151502179055505b505050565b60a95481565b60a55481565b6113fb611c24565b73ffffffffffffffffffffffffffffffffffffffff168373ffffffffffffffffffffffffffffffffffffffff1614806114885750609760009054906101000a900473ffffffffffffffffffffffffffffffffffffffff1673ffffffffffffffffffffffffffffffffffffffff16611470611c24565b73ffffffffffffffffffffffffffffffffffffffff16145b6114c7576040517f08c379a00000000000000000000000000000000000000000000000000000000081526004016114be90614129565b60405180910390fd5b6114d382829050611cf2565b611512576040517f08c379a000000000000000000000000000000000000000000000000000000000815260040161150990614195565b60405180910390fd5b60005b8282905081101561197257609760009054906101000a900473ffffffffffffffffffffffffffffffffffffffff1673ffffffffffffffffffffffffffffffffffffffff16611561611c24565b73ffffffffffffffffffffffffffffffffffffffff161461177757611584611c24565b73ffffffffffffffffffffffffffffffffffffffff16609760009054906101000a900473ffffffffffffffffffffffffffffffffffffffff1673ffffffffffffffffffffffffffffffffffffffff16636352211e8585858181106115eb576115ea613e6d565b5b90506020020160208101906116009190613fae565b6040518263ffffffff1660e01b815260040161161c91906141f0565b602060405180830381865afa158015611639573d6000803e3d6000fd5b505050506040513d601f19601f8201168201806040525081019061165d9190614220565b73ffffffffffffffffffffffffffffffffffffffff16146116b3576040517f08c379a00000000000000000000000000000000000000000000000000000000081526004016116aa90614299565b60405180910390fd5b609760009054906101000a900473ffffffffffffffffffffffffffffffffffffffff1673ffffffffffffffffffffffffffffffffffffffff166323b872dd6116f9611c24565b3086868681811061170d5761170c613e6d565b5b90506020020160208101906117229190613fae565b6040518463ffffffff1660e01b8152600401611740939291906142b9565b600060405180830381600087803b15801561175a57600080fd5b505af115801561176e573d6000803e3d6000fd5b505050506117b1565b600083838381811061178c5761178b613e6d565b5b90506020020160208101906117a19190613fae565b61ffff1614156117b05761195f565b5b6117e58383838181106117c7576117c6613e6d565b5b90506020020160208101906117dc9190613fae565b61ffff16612723565b611824576040517f08c379a000000000000000000000000000000000000000000000000000000000815260040161181b9061433c565b60405180910390fd5b61185883838381811061183a57611839613e6d565b5b905060200201602081019061184f9190613fae565b61ffff16611978565b15611897576118928484848481811061187457611873613e6d565b5b90506020020160208101906118899190613fae565b61ffff1661272e565b6118cd565b6118cc848484848181106118ae576118ad613e6d565b5b90506020020160208101906118c39190613fae565b61ffff166128ed565b5b609a60008573ffffffffffffffffffffffffffffffffffffffff1673ffffffffffffffffffffffffffffffffffffffff16815260200190815260200160002083838381811061191f5761191e613e6d565b5b90506020020160208101906119349190613fae565b908060018154018082558091505060019003906000526020600020016000909161ffff169091909150555b808061196a90614094565b915050611515565b50505050565b6000609760009054906101000a900473ffffffffffffffffffffffffffffffffffffffff1673ffffffffffffffffffffffffffffffffffffffff1663e05c57bf836040518263ffffffff1660e01b81526004016119d59190613501565b61014060405180830381865afa1580156119f3573d6000803e3d6000fd5b505050506040513d601f19601f82011682018060405250810190611a179190613c73565b90919293949596975090919293949596509091929394955090919293945090919293509091925090915090505080915050919050565b609c5481565b611a5b611c24565b73ffffffffffffffffffffffffffffffffffffffff16611a79610db6565b73ffffffffffffffffffffffffffffffffffffffff1614611acf576040517f08c379a0000000000000000000000000000000000000000000000000000000008152600401611ac690613ee8565b60405180910390fd5b600073ffffffffffffffffffffffffffffffffffffffff168173ffffffffffffffffffffffffffffffffffffffff161415611b3f576040517f08c379a0000000000000000000000000000000000000000000000000000000008152600401611b36906143ce565b60405180910390fd5b611b4881611c2c565b50565b609e5481565b6000611b5c30612ab5565b15905090565b600060019054906101000a900460ff16611bb1576040517f08c379a0000000000000000000000000000000000000000000000000000000008152600401611ba890614460565b60405180910390fd5b611bb9612ac8565b611bc1612b19565b565b600060019054906101000a900460ff16611c12576040517f08c379a0000000000000000000000000000000000000000000000000000000008152600401611c0990614460565b60405180910390fd5b611c1a612ac8565b611c22612b7a565b565b600033905090565b6000603360009054906101000a900473ffffffffffffffffffffffffffffffffffffffff16905081603360006101000a81548173ffffffffffffffffffffffffffffffffffffffff021916908373ffffffffffffffffffffffffffffffffffffffff1602179055508173ffffffffffffffffffffffffffffffffffffffff168173ffffffffffffffffffffffffffffffffffffffff167f8be0079c531659141344cd1fd0a4f28419497f9722a3daafe3b4186f6b6457e060405160405180910390a35050565b600060019050919050565b60008060986000868152602001908152602001600020604051806080016040529081600082015481526020016001820160009054906101000a900473ffffffffffffffffffffffffffffffffffffffff1673ffffffffffffffffffffffffffffffffffffffff1673ffffffffffffffffffffffffffffffffffffffff1681526020016001820160149054906101000a900469ffffffffffffffffffff1669ffffffffffffffffffff1669ffffffffffffffffffff1681526020016002820160009054906101000a900469ffffffffffffffffffff1669ffffffffffffffffffff1669ffffffffffffffffffff16815250509050611df8611c24565b73ffffffffffffffffffffffffffffffffffffffff16816020015173ffffffffffffffffffffffffffffffffffffffff1614611e69576040517f08c379a0000000000000000000000000000000000000000000000000000000008152600401611e6090614299565b60405180910390fd5b838015611e92575060a054816060015169ffffffffffffffffffff1642611e909190614031565b105b15611ed2576040517f08c379a0000000000000000000000000000000000000000000000000000000008152600401611ec9906144cc565b60405180910390fd5b82611ee557611ee081612be6565b611ee8565b60005b91506000806000611ef888612d34565b925092509250611f0788612723565b611f1057600196505b861561204a57609760009054906101000a900473ffffffffffffffffffffffffffffffffffffffff1673ffffffffffffffffffffffffffffffffffffffff1663b88d4fde30611f5d611c24565b8b6040518463ffffffff1660e01b8152600401611f7c93929190614523565b600060405180830381600087803b158015611f9657600080fd5b505af1158015611faa573d6000803e3d6000fd5b50505050609860008981526020019081526020016000206000808201600090556001820160006101000a81549073ffffffffffffffffffffffffffffffffffffffff02191690556001820160146101000a81549069ffffffffffffffffffff02191690556002820160006101000a81549069ffffffffffffffffffff02191690555050609c60008154809291906120409061456d565b9190505550612172565b60405180608001604052808961ffff168152602001612067611c24565b73ffffffffffffffffffffffffffffffffffffffff1681526020014269ffffffffffffffffffff1681526020014269ffffffffffffffffffff16815250609860008a81526020019081526020016000206000820151816000015560208201518160010160006101000a81548173ffffffffffffffffffffffffffffffffffffffff021916908373ffffffffffffffffffffffffffffffffffffffff16021790555060408201518160010160146101000a81548169ffffffffffffffffffff021916908369ffffffffffffffffffff16021790555060608201518160020160006101000a81548169ffffffffffffffffffff021916908369ffffffffffffffffffff1602179055509050505b7f9b394c66bc4fdb2f56f5842a796076e6552d6f15eaacb6e63e3c53b474d872e9888689868686609f546040516121af979695949392919061460e565b60405180910390a1505050509392505050565b60008060996000868152602001908152602001600020604051806080016040529081600082015481526020016001820160009054906101000a900473ffffffffffffffffffffffffffffffffffffffff1673ffffffffffffffffffffffffffffffffffffffff1673ffffffffffffffffffffffffffffffffffffffff1681526020016001820160149054906101000a900469ffffffffffffffffffff1669ffffffffffffffffffff1669ffffffffffffffffffff1681526020016002820160009054906101000a900469ffffffffffffffffffff1669ffffffffffffffffffff1669ffffffffffffffffffff168152505090506122bd611c24565b73ffffffffffffffffffffffffffffffffffffffff16816020015173ffffffffffffffffffffffffffffffffffffffff161461232e576040517f08c379a000000000000000000000000000000000000000000000000000000000815260040161232590614299565b60405180910390fd5b838015612357575060a054816060015169ffffffffffffffffffff16426123559190614031565b105b15612397576040517f08c379a000000000000000000000000000000000000000000000000000000000815260040161238e906144cc565b60405180910390fd5b826123aa576123a581613086565b6123ad565b60005b915060008060006123bd88612d34565b9250925092506123cc88612723565b6123d557600196505b861561250f57609760009054906101000a900473ffffffffffffffffffffffffffffffffffffffff1673ffffffffffffffffffffffffffffffffffffffff1663b88d4fde30612422611c24565b8b6040518463ffffffff1660e01b815260040161244193929190614523565b600060405180830381600087803b15801561245b57600080fd5b505af115801561246f573d6000803e3d6000fd5b50505050609960008981526020019081526020016000206000808201600090556001820160006101000a81549073ffffffffffffffffffffffffffffffffffffffff02191690556001820160146101000a81549069ffffffffffffffffffff02191690556002820160006101000a81549069ffffffffffffffffffff02191690555050609d60008154809291906125059061456d565b919050555061263e565b60405180608001604052808961ffff16815260200161252c611c24565b73ffffffffffffffffffffffffffffffffffffffff16815260200161254f61319a565b69ffffffffffffffffffff1681526020014269ffffffffffffffffffff16815250609960008a81526020019081526020016000206000820151816000015560208201518160010160006101000a81548173ffffffffffffffffffffffffffffffffffffffff021916908373ffffffffffffffffffffffffffffffffffffffff16021790555060408201518160010160146101000a81548169ffffffffffffffffffff021916908369ffffffffffffffffffff16021790555060608201518160020160006101000a81548169ffffffffffffffffffff021916908369ffffffffffffffffffff1602179055509050505b7f6e949c62565860afb9dd6295e998a1c40005fe9560aedf8d596717681cfc7a1f88868986868660405161267796959493929190614684565b60405180910390a1505050509392505050565b60aa60009054906101000a900473ffffffffffffffffffffffffffffffffffffffff1673ffffffffffffffffffffffffffffffffffffffff166340c10f196126d0611c24565b836040518363ffffffff1660e01b81526004016126ee9291906146ec565b600060405180830381600087803b15801561270857600080fd5b505af115801561271c573d6000803e3d6000fd5b5050505050565b600060019050919050565b612736610c17565b15612776576040517f08c379a000000000000000000000000000000000000000000000000000000000815260040161276d90613f54565b60405180910390fd5b60405180608001604052808261ffff1681526020018373ffffffffffffffffffffffffffffffffffffffff1681526020014269ffffffffffffffffffff1681526020014269ffffffffffffffffffff16815250609860008381526020019081526020016000206000820151816000015560208201518160010160006101000a81548173ffffffffffffffffffffffffffffffffffffffff021916908373ffffffffffffffffffffffffffffffffffffffff16021790555060408201518160010160146101000a81548169ffffffffffffffffffff021916908369ffffffffffffffffffff16021790555060608201518160020160006101000a81548169ffffffffffffffffffff021916908369ffffffffffffffffffff160217905550905050609c60008154809291906128a990614094565b91905055507f8af1bb49fb16c7835975aa59449ba4328dd54737dfb2ae9fa6c5eca71fda51f98183426040516128e193929190614715565b60405180910390a15050565b6128f5610c17565b15612935576040517f08c379a000000000000000000000000000000000000000000000000000000000815260040161292c90613f54565b60405180910390fd5b60405180608001604052808261ffff1681526020018373ffffffffffffffffffffffffffffffffffffffff16815260200161296e61319a565b69ffffffffffffffffffff1681526020014269ffffffffffffffffffff16815250609960008381526020019081526020016000206000820151816000015560208201518160010160006101000a81548173ffffffffffffffffffffffffffffffffffffffff021916908373ffffffffffffffffffffffffffffffffffffffff16021790555060408201518160010160146101000a81548169ffffffffffffffffffff021916908369ffffffffffffffffffff16021790555060608201518160020160006101000a81548169ffffffffffffffffffff021916908369ffffffffffffffffffff160217905550905050609d6000815480929190612a6f90614094565b91905055507f8af1bb49fb16c7835975aa59449ba4328dd54737dfb2ae9fa6c5eca71fda51f98183609f54604051612aa993929190614715565b60405180910390a15050565b600080823b905060008111915050919050565b600060019054906101000a900460ff16612b17576040517f08c379a0000000000000000000000000000000000000000000000000000000008152600401612b0e90614460565b60405180910390fd5b565b600060019054906101000a900460ff16612b68576040517f08c379a0000000000000000000000000000000000000000000000000000000008152600401612b5f90614460565b60405180910390fd5b612b78612b73611c24565b611c2c565b565b600060019054906101000a900460ff16612bc9576040517f08c379a0000000000000000000000000000000000000000000000000000000008152600401612bc090614460565b60405180910390fd5b6000606560006101000a81548160ff021916908315150217905550565b600080612bf683600001516106c1565b5090506000609e5460a254856040015169ffffffffffffffffffff1642612c1d9190614031565b612c279190613e13565b612c31919061477b565b90506000600a60a760009054906101000a900460ff1660ff168460ff16612c589190613e13565b612c629190613e13565b620186a0612c709190613fdb565b9050620186a08183612c829190613e13565b612c8c919061477b565b935060a1548460a554612c9f9190613fdb565b1115612cb85760a55460a154612cb59190614031565b93505b6000841115612d2c574260a681905550612cea606460a35486612cdb9190613e13565b612ce5919061477b565b6131a4565b606460a3546064612cfb9190614031565b85612d069190613e13565b612d10919061477b565b93508360a56000828254612d249190613fdb565b925050819055505b505050919050565b6000806060600060986000868152602001908152602001600020604051806080016040529081600082015481526020016001820160009054906101000a900473ffffffffffffffffffffffffffffffffffffffff1673ffffffffffffffffffffffffffffffffffffffff1673ffffffffffffffffffffffffffffffffffffffff1681526020016001820160149054906101000a900469ffffffffffffffffffff1669ffffffffffffffffffff1669ffffffffffffffffffff1681526020016002820160009054906101000a900469ffffffffffffffffffff1669ffffffffffffffffffff1669ffffffffffffffffffff16815250509050600060996000878152602001908152602001600020604051806080016040529081600082015481526020016001820160009054906101000a900473ffffffffffffffffffffffffffffffffffffffff1673ffffffffffffffffffffffffffffffffffffffff1673ffffffffffffffffffffffffffffffffffffffff1681526020016001820160149054906101000a900469ffffffffffffffffffff1669ffffffffffffffffffff1669ffffffffffffffffffff1681526020016002820160009054906101000a900469ffffffffffffffffffff1669ffffffffffffffffffff1669ffffffffffffffffffff168152505090506000612f2887611978565b612f36578160600151612f3c565b82606001515b69ffffffffffffffffffff1642612f539190614031565b90506000612f6088611978565b9050609760009054906101000a900473ffffffffffffffffffffffffffffffffffffffff1673ffffffffffffffffffffffffffffffffffffffff1663d8ffcfcb89612fd584612fbe57609b60029054906101000a900460000b612fcf565b609b60009054906101000a900460000b5b8661320c565b61300985612ff257609b60039054906101000a900460000b613003565b609b60019054906101000a900460000b5b8761320c565b6040518463ffffffff1660e01b8152600401613027939291906147ac565b6000604051808303816000875af1158015613046573d6000803e3d6000fd5b505050506040513d6000823e3d601f19601f8201168201806040525081019061306f9190614889565b809750819850829950505050505050509193909250565b60008061309683600001516106c1565b9150506000836040015169ffffffffffffffffffff16609f546130b99190614031565b905060006103e860a9546130cd91906148f8565b60646103e860a85460328760ff1611156130f3578660646130ee9190614a0f565b6130f5565b865b60000b61310291906148f8565b61310c91906148f8565b6131169190614a43565b6131209190614aad565b9050620186a081836131329190613e13565b61313c919061477b565b935060a1548460a55461314f9190613fdb565b11156131685760a55460a1546131659190614031565b93505b6000841115613192574260a6819055508360a5600082825461318a9190613fdb565b925050819055505b505050919050565b6000609f54905090565b6000609d5414156131cd578060a460008282546131c19190613fdb565b92505081905550613209565b609d5460a454826131de9190613fdb565b6131e8919061477b565b609f60008282546131f99190613fdb565b92505081905550600060a4819055505b50565b600080609e548460000b8461322191906148f8565b61322b9190614a43565b90506064811315613240576064915050613296565b7fffffffffffffffffffffffffffffffffffffffffffffffffffffffffffffff9c811215613291577fffffffffffffffffffffffffffffffffffffffffffffffffffffffffffffff9c915050613296565b809150505b92915050565b60008160000b9050919050565b6132b28161329c565b82525050565b60006020820190506132cd60008301846132a9565b92915050565b6000819050919050565b6132e6816132d3565b82525050565b600060208201905061330160008301846132dd565b92915050565b6000604051905090565b600080fd5b600080fd5b600073ffffffffffffffffffffffffffffffffffffffff82169050919050565b60006133468261331b565b9050919050565b6133568161333b565b811461336157600080fd5b50565b6000813590506133738161334d565b92915050565b6000819050919050565b61338c81613379565b811461339757600080fd5b50565b6000813590506133a981613383565b92915050565b600080fd5b600080fd5b600080fd5b60008083601f8401126133d4576133d36133af565b5b8235905067ffffffffffffffff8111156133f1576133f06133b4565b5b60208301915083600182028301111561340d5761340c6133b9565b5b9250929050565b6000806000806000608086880312156134305761342f613311565b5b600061343e88828901613364565b955050602061344f88828901613364565b94505060406134608882890161339a565b935050606086013567ffffffffffffffff81111561348157613480613316565b5b61348d888289016133be565b92509250509295509295909350565b60007fffffffff0000000000000000000000000000000000000000000000000000000082169050919050565b6134d18161349c565b82525050565b60006020820190506134ec60008301846134c8565b92915050565b6134fb81613379565b82525050565b600060208201905061351660008301846134f2565b92915050565b60006020828403121561353257613531613311565b5b60006135408482850161339a565b91505092915050565b600060ff82169050919050565b61355f81613549565b82525050565b600060408201905061357a6000830185613556565b6135876020830184613556565b9392505050565b60006020820190506135a36000830184613556565b92915050565b6135b28161333b565b82525050565b600069ffffffffffffffffffff82169050919050565b6135d7816135b8565b82525050565b60006080820190506135f260008301876134f2565b6135ff60208301866135a9565b61360c60408301856135ce565b61361960608301846135ce565b95945050505050565b6000601f19601f8301169050919050565b7f4e487b7100000000000000000000000000000000000000000000000000000000600052604160045260246000fd5b61366b82613622565b810181811067ffffffffffffffff8211171561368a57613689613633565b5b80604052505050565b600061369d613307565b90506136a98282613662565b919050565b600067ffffffffffffffff8211156136c9576136c8613633565b5b602082029050602081019050919050565b60006136ed6136e8846136ae565b613693565b905080838252602082019050602084028301858111156137105761370f6133b9565b5b835b818110156137395780613725888261339a565b845260208401935050602081019050613712565b5050509392505050565b600082601f830112613758576137576133af565b5b81356137688482602086016136da565b91505092915050565b600067ffffffffffffffff82111561378c5761378b613633565b5b602082029050602081019050919050565b6137a68161329c565b81146137b157600080fd5b50565b6000813590506137c38161379d565b92915050565b60006137dc6137d784613771565b613693565b905080838252602082019050602084028301858111156137ff576137fe6133b9565b5b835b81811015613828578061381488826137b4565b845260208401935050602081019050613801565b5050509392505050565b600082601f830112613847576138466133af565b5b81356138578482602086016137c9565b91505092915050565b61386981613549565b811461387457600080fd5b50565b60008135905061388681613860565b92915050565b613895816132d3565b81146138a057600080fd5b50565b6000813590506138b28161388c565b92915050565b600080600080600080600080610100898b0312156138d9576138d8613311565b5b60006138e78b828c01613364565b98505060206138f88b828c01613364565b97505060406139098b828c0161339a565b965050606089013567ffffffffffffffff81111561392a57613929613316565b5b6139368b828c01613743565b955050608089013567ffffffffffffffff81111561395757613956613316565b5b6139638b828c01613832565b94505060a06139748b828c01613877565b93505060c06139858b828c016138a3565b92505060e06139968b828c016138a3565b9150509295985092959890939650565b60008115159050919050565b6139bb816139a6565b82525050565b60006020820190506139d660008301846139b2565b92915050565b60006020820190506139f160008301846135a9565b92915050565b60008083601f840112613a0d57613a0c6133af565b5b8235905067ffffffffffffffff811115613a2a57613a296133b4565b5b602083019150836020820283011115613a4657613a456133b9565b5b9250929050565b613a56816139a6565b8114613a6157600080fd5b50565b600081359050613a7381613a4d565b92915050565b600080600060408486031215613a9257613a91613311565b5b600084013567ffffffffffffffff811115613ab057613aaf613316565b5b613abc868287016139f7565b93509350506020613acf86828701613a64565b9150509250925092565b60008060408385031215613af057613aef613311565b5b6000613afe85828601613364565b9250506020613b0f8582860161339a565b9150509250929050565b600080600060408486031215613b3257613b31613311565b5b6000613b4086828701613364565b935050602084013567ffffffffffffffff811115613b6157613b60613316565b5b613b6d868287016139f7565b92509250509250925092565b600060208284031215613b8f57613b8e613311565b5b6000613b9d84828501613364565b91505092915050565b600082825260208201905092915050565b7f43616e6e6f742073656e6420746f6b656e7320746f2056656e7565206469726560008201527f63746c7900000000000000000000000000000000000000000000000000000000602082015250565b6000613c13602483613ba6565b9150613c1e82613bb7565b604082019050919050565b60006020820190508181036000830152613c4281613c06565b9050919050565b600081519050613c5881613a4d565b92915050565b600081519050613c6d81613860565b92915050565b6000806000806000806000806000806101408b8d031215613c9757613c96613311565b5b6000613ca58d828e01613c49565b9a50506020613cb68d828e01613c5e565b9950506040613cc78d828e01613c5e565b9850506060613cd88d828e01613c5e565b9750506080613ce98d828e01613c5e565b96505060a0613cfa8d828e01613c5e565b95505060c0613d0b8d828e01613c5e565b94505060e0613d1c8d828e01613c5e565b935050610100613d2e8d828e01613c5e565b925050610120613d408d828e01613c5e565b9150509295989b9194979a5092959850565b7f496e697469616c697a61626c653a20636f6e747261637420697320616c72656160008201527f647920696e697469616c697a6564000000000000000000000000000000000000602082015250565b6000613dae602e83613ba6565b9150613db982613d52565b604082019050919050565b60006020820190508181036000830152613ddd81613da1565b9050919050565b7f4e487b7100000000000000000000000000000000000000000000000000000000600052601160045260246000fd5b6000613e1e82613379565b9150613e2983613379565b9250817fffffffffffffffffffffffffffffffffffffffffffffffffffffffffffffffff0483118215151615613e6257613e61613de4565b5b828202905092915050565b7f4e487b7100000000000000000000000000000000000000000000000000000000600052603260045260246000fd5b7f4f776e61626c653a2063616c6c6572206973206e6f7420746865206f776e6572600082015250565b6000613ed2602083613ba6565b9150613edd82613e9c565b602082019050919050565b60006020820190508181036000830152613f0181613ec5565b9050919050565b7f5061757361626c653a2070617573656400000000000000000000000000000000600082015250565b6000613f3e601083613ba6565b9150613f4982613f08565b602082019050919050565b60006020820190508181036000830152613f6d81613f31565b9050919050565b600061ffff82169050919050565b613f8b81613f74565b8114613f9657600080fd5b50565b600081359050613fa881613f82565b92915050565b600060208284031215613fc457613fc3613311565b5b6000613fd284828501613f99565b91505092915050565b6000613fe682613379565b9150613ff183613379565b9250827fffffffffffffffffffffffffffffffffffffffffffffffffffffffffffffffff0382111561402657614025613de4565b5b828201905092915050565b600061403c82613379565b915061404783613379565b92508282101561405a57614059613de4565b5b828203905092915050565b7f4e487b7100000000000000000000000000000000000000000000000000000000600052603160045260246000fd5b600061409f82613379565b91507fffffffffffffffffffffffffffffffffffffffffffffffffffffffffffffffff8214156140d2576140d1613de4565b5b600182019050919050565b7f446f206e6f74206c6f736520796f757220746f6b656e73000000000000000000600082015250565b6000614113601783613ba6565b915061411e826140dd565b602082019050919050565b6000602082019050818103600083015261414281614106565b9050919050565b7f4b69746368656e20737061636520726571756972656400000000000000000000600082015250565b600061417f601683613ba6565b915061418a82614149565b602082019050919050565b600060208201905081810360008301526141ae81614172565b9050919050565b6000819050919050565b60006141da6141d56141d084613f74565b6141b5565b613379565b9050919050565b6141ea816141bf565b82525050565b600060208201905061420560008301846141e1565b92915050565b60008151905061421a8161334d565b92915050565b60006020828403121561423657614235613311565b5b60006142448482850161420b565b91505092915050565b7f4e6f7420796f757220746f6b656e000000000000000000000000000000000000600082015250565b6000614283600e83613ba6565b915061428e8261424d565b602082019050919050565b600060208201905081810360008301526142b281614276565b9050919050565b60006060820190506142ce60008301866135a9565b6142db60208301856135a9565b6142e860408301846141e1565b949350505050565b7f4e6f7420656c696769626c650000000000000000000000000000000000000000600082015250565b6000614326600c83613ba6565b9150614331826142f0565b602082019050919050565b6000602082019050818103600083015261435581614319565b9050919050565b7f4f776e61626c653a206e6577206f776e657220697320746865207a65726f206160008201527f6464726573730000000000000000000000000000000000000000000000000000602082015250565b60006143b8602683613ba6565b91506143c38261435c565b604082019050919050565b600060208201905081810360008301526143e7816143ab565b9050919050565b7f496e697469616c697a61626c653a20636f6e7472616374206973206e6f74206960008201527f6e697469616c697a696e67000000000000000000000000000000000000000000602082015250565b600061444a602b83613ba6565b9150614455826143ee565b604082019050919050565b600060208201905081810360008301526144798161443d565b9050919050565b7f43616e6e6f74206c65617665206265666f726520454f42000000000000000000600082015250565b60006144b6601783613ba6565b91506144c182614480565b602082019050919050565b600060208201905081810360008301526144e5816144a9565b9050919050565b600082825260208201905092915050565b50565b600061450d6000836144ec565b9150614518826144fd565b600082019050919050565b600060808201905061453860008301866135a9565b61454560208301856135a9565b61455260408301846134f2565b818103606083015261456381614500565b9050949350505050565b600061457882613379565b9150600082141561458c5761458b613de4565b5b600182039050919050565b600081519050919050565b60005b838110156145c05780820151818401526020810190506145a5565b838111156145cf576000848401525b50505050565b60006145e082614597565b6145ea8185613ba6565b93506145fa8185602086016145a2565b61460381613622565b840191505092915050565b600060e082019050614623600083018a6134f2565b61463060208301896134f2565b61463d60408301886139b2565b61464a6060830187613556565b6146576080830186613556565b81810360a083015261466981856145d5565b905061467860c08301846134f2565b98975050505050505050565b600060c08201905061469960008301896134f2565b6146a660208301886134f2565b6146b360408301876139b2565b6146c06060830186613556565b6146cd6080830185613556565b81810360a08301526146df81846145d5565b9050979650505050505050565b600060408201905061470160008301856135a9565b61470e60208301846134f2565b9392505050565b600060608201905061472a60008301866134f2565b61473760208301856135a9565b61474460408301846134f2565b949350505050565b7f4e487b7100000000000000000000000000000000000000000000000000000000600052601260045260246000fd5b600061478682613379565b915061479183613379565b9250826147a1576147a061474c565b5b828204905092915050565b60006060820190506147c160008301866134f2565b6147ce60208301856132a9565b6147db60408301846132a9565b949350505050565b600080fd5b600067ffffffffffffffff82111561480357614802613633565b5b61480c82613622565b9050602081019050919050565b600061482c614827846147e8565b613693565b905082815260208101848484011115614848576148476147e3565b5b6148538482856145a2565b509392505050565b600082601f8301126148705761486f6133af565b5b8151614880848260208601614819565b91505092915050565b6000806000606084860312156148a2576148a1613311565b5b60006148b086828701613c5e565b93505060206148c186828701613c5e565b925050604084015167ffffffffffffffff8111156148e2576148e1613316565b5b6148ee8682870161485b565b9150509250925092565b6000614903826132d3565b915061490e836132d3565b9250827f7fffffffffffffffffffffffffffffffffffffffffffffffffffffffffffffff048211600084136000841316161561494d5761494c613de4565b5b817f8000000000000000000000000000000000000000000000000000000000000000058312600084126000841316161561498a57614989613de4565b5b827f800000000000000000000000000000000000000000000000000000000000000005821260008413600084121616156149c7576149c6613de4565b5b827f7fffffffffffffffffffffffffffffffffffffffffffffffffffffffffffffff0582126000841260008412161615614a0457614a03613de4565b5b828202905092915050565b6000614a1a82613549565b9150614a2583613549565b925082821015614a3857614a37613de4565b5b828203905092915050565b6000614a4e826132d3565b9150614a59836132d3565b925082614a6957614a6861474c565b5b600160000383147f800000000000000000000000000000000000000000000000000000000000000083141615614aa257614aa1613de4565b5b828205905092915050565b6000614ab8826132d3565b9150614ac3836132d3565b9250817f7fffffffffffffffffffffffffffffffffffffffffffffffffffffffffffffff03831360008312151615614afe57614afd613de4565b5b817f8000000000000000000000000000000000000000000000000000000000000000038312600083121615614b3657614b35613de4565b5b82820190509291505056fea2646970667358221220dbbfa231ee1249c3120c91dcf6cf2a0b1785c9c2b78fda4a1f3ac07262e3148d64736f6c634300080a0033",
  "immutableReferences": {},
  "source": "// SPDX-License-Identifier: MIT\n\npragma solidity ^0.8.0;\n\nimport \"./Kitchen.sol\";\nimport \"./FastFood.sol\";\n\ncontract McStake is Kitchen {\n  FastFood foodToken; // Reference to the $FFOOD contract\n\n  function initialize(\n    address _character,\n    address _foodToken,\n    uint256 _foodTokenMaxSupply,\n    uint256[] memory _earningSettings, // dailyChefEarnings, ratTheftPercentage, vestingPeriod, accrualPeriod\n    int8[] memory _propertyIncrements, // dailySkillRate, dailyInsanityRate, dailyIntelligenceRate, dailyFatnessRate\n    uint8 _chefEfficiencyMultiplier,\n    int256 _ratEfficiencyMultiplier,\n    int256 _ratEfficiencyOffset\n  ) external initializer {\n    __Ownable_init();\n    __Pausable_init();\n\n    unaccountedRewards = 0;\n    foodTokensPerRat = 0;\n    lastClaimTimestamp = 0;\n\n    character = Character(_character);\n    foodToken = FastFood(_foodToken);\n    foodTokenMaxSupply = _foodTokenMaxSupply * 1 ether;\n    dailyChefEarnings = _earningSettings[0] * 1 ether;\n    ratTheftPercentage = _earningSettings[1];\n    vestingPeriod = _earningSettings[2];\n    accrualPeriod = _earningSettings[3];\n    dailySkillRate = _propertyIncrements[0];\n    dailyInsanityRate = _propertyIncrements[1];\n    dailyIntelligenceRate = _propertyIncrements[2];\n    dailyFatnessRate = _propertyIncrements[3];\n    chefEfficiencyMultiplier = _chefEfficiencyMultiplier;\n    ratEfficiencyMultiplier = _ratEfficiencyMultiplier;\n    ratEfficiencyOffset = _ratEfficiencyOffset;\n  }\n\n  /**\n   * Mints the given amount of food tokens in the user's account\n   * @param amount - Amount of food tokens to mint\n   */\n  function _mintFoodToken(uint256 amount) internal override {\n    foodToken.mint(_msgSender(), amount);\n  }\n}\n",
  "sourcePath": "/Users/chris/workspace/ratalert/ratalert-contracts/contracts/McStake.sol",
  "compiler": {
    "name": "solc",
    "version": "0.8.10+commit.fc410830.Emscripten.clang"
  },
  "schemaVersion": "3.4.4",
  "updatedAt": "2022-02-18T12:35:14.765Z",
  "networkType": "ethereum",
  "devdoc": {
    "kind": "dev",
    "methods": {
      "claimMany(uint16[],bool)": {
        "params": {
          "tokenIds": "- The IDs of the tokens in question",
          "unstake": "- Whether or not to unstake the given tokens"
        }
      },
      "getProperties(uint256)": {
        "params": {
          "tokenId": "- The ID of the token to check"
        },
        "returns": {
          "efficiency": "& tolerance values"
        }
      },
      "isChef(uint256)": {
        "params": {
          "tokenId": "- The ID of the token to check"
        },
        "returns": {
          "chef": "- Whether or not the token is a Chef"
        }
      },
      "owner()": {
        "details": "Returns the address of the current owner."
      },
      "paused()": {
        "details": "Returns true if the contract is paused, and false otherwise."
      },
      "renounceOwnership()": {
        "details": "Leaves the contract without owner. It will not be possible to call `onlyOwner` functions anymore. Can only be called by the current owner. NOTE: Renouncing ownership will leave the contract without an owner, thereby removing any functionality that is only available to the owner."
      },
      "stakeMany(address,uint16[])": {
        "params": {
          "account": "- The address of the staker",
          "tokenIds": "- The IDs of the Chefs & Rats to stake"
        }
      },
      "transferOwnership(address)": {
        "details": "Transfers ownership of the contract to a new account (`newOwner`). Can only be called by the current owner."
      }
    },
    "version": 1
  },
  "userdoc": {
    "kind": "user",
    "methods": {
      "claimMany(uint16[],bool)": {
        "notice": "Claim food token earnings, level-ups and optionally unstake characters"
      },
      "getProperties(uint256)": {
        "notice": "Get the character's properties"
      },
      "isChef(uint256)": {
        "notice": "Checks if the token is a Chef"
      },
      "stakeMany(address,uint16[])": {
        "notice": "Adds Chefs & Rats"
      }
    },
    "version": 1
  }
}