{
  "contractName": "McStake",
  "abi": [
    {
      "anonymous": false,
      "inputs": [
        {
          "indexed": false,
          "internalType": "uint256",
          "name": "tokenId",
          "type": "uint256"
        },
        {
          "indexed": false,
          "internalType": "uint256",
          "name": "earned",
          "type": "uint256"
        },
        {
          "indexed": false,
          "internalType": "bool",
          "name": "unstaked",
          "type": "bool"
        },
        {
          "indexed": false,
          "internalType": "uint8",
          "name": "skill",
          "type": "uint8"
        },
        {
          "indexed": false,
          "internalType": "uint8",
          "name": "insanity",
          "type": "uint8"
        },
        {
          "indexed": false,
          "internalType": "string",
          "name": "eventName",
          "type": "string"
        },
        {
          "indexed": false,
          "internalType": "uint256",
          "name": "foodTokensPerRat",
          "type": "uint256"
        }
      ],
      "name": "ChefClaimed",
      "type": "event"
    },
    {
      "anonymous": false,
      "inputs": [
        {
          "indexed": true,
          "internalType": "address",
          "name": "previousOwner",
          "type": "address"
        },
        {
          "indexed": true,
          "internalType": "address",
          "name": "newOwner",
          "type": "address"
        }
      ],
      "name": "OwnershipTransferred",
      "type": "event"
    },
    {
      "anonymous": false,
      "inputs": [
        {
          "indexed": false,
          "internalType": "address",
          "name": "account",
          "type": "address"
        }
      ],
      "name": "Paused",
      "type": "event"
    },
    {
      "anonymous": false,
      "inputs": [
        {
          "indexed": false,
          "internalType": "uint256",
          "name": "tokenId",
          "type": "uint256"
        },
        {
          "indexed": false,
          "internalType": "uint256",
          "name": "earned",
          "type": "uint256"
        },
        {
          "indexed": false,
          "internalType": "bool",
          "name": "unstaked",
          "type": "bool"
        },
        {
          "indexed": false,
          "internalType": "uint8",
          "name": "intelligence",
          "type": "uint8"
        },
        {
          "indexed": false,
          "internalType": "uint8",
          "name": "fatness",
          "type": "uint8"
        },
        {
          "indexed": false,
          "internalType": "string",
          "name": "eventName",
          "type": "string"
        }
      ],
      "name": "RatClaimed",
      "type": "event"
    },
    {
      "anonymous": false,
      "inputs": [
        {
          "indexed": false,
          "internalType": "uint256",
          "name": "tokenId",
          "type": "uint256"
        },
        {
          "indexed": false,
          "internalType": "address",
          "name": "owner",
          "type": "address"
        },
        {
          "indexed": false,
          "internalType": "uint256",
          "name": "value",
          "type": "uint256"
        }
      ],
      "name": "TokenStaked",
      "type": "event"
    },
    {
      "anonymous": false,
      "inputs": [
        {
          "indexed": false,
          "internalType": "address",
          "name": "account",
          "type": "address"
        }
      ],
      "name": "Unpaused",
      "type": "event"
    },
    {
      "inputs": [],
      "name": "accrualPeriod",
      "outputs": [
        {
          "internalType": "uint256",
          "name": "",
          "type": "uint256"
        }
      ],
      "stateMutability": "view",
      "type": "function",
      "constant": true
    },
    {
      "inputs": [],
      "name": "chefEfficiencyMultiplier",
      "outputs": [
        {
          "internalType": "uint8",
          "name": "",
          "type": "uint8"
        }
      ],
      "stateMutability": "view",
      "type": "function",
      "constant": true
    },
    {
      "inputs": [
        {
          "internalType": "uint256",
          "name": "",
          "type": "uint256"
        }
      ],
      "name": "chefs",
      "outputs": [
        {
          "internalType": "uint256",
          "name": "tokenId",
          "type": "uint256"
        },
        {
          "internalType": "address",
          "name": "owner",
          "type": "address"
        },
        {
          "internalType": "uint80",
          "name": "value",
          "type": "uint80"
        },
        {
          "internalType": "uint80",
          "name": "timestamp",
          "type": "uint80"
        }
      ],
      "stateMutability": "view",
      "type": "function",
      "constant": true
    },
    {
      "inputs": [],
      "name": "claim",
      "outputs": [
        {
          "internalType": "contract IClaim",
          "name": "",
          "type": "address"
        }
      ],
      "stateMutability": "view",
      "type": "function",
      "constant": true
    },
    {
      "inputs": [
        {
          "internalType": "uint16[]",
          "name": "tokenIds",
          "type": "uint16[]"
        },
        {
          "internalType": "bool",
          "name": "unstake",
          "type": "bool"
        }
      ],
      "name": "claimMany",
      "outputs": [],
      "stateMutability": "nonpayable",
      "type": "function"
    },
    {
      "inputs": [
        {
          "internalType": "bytes32",
          "name": "",
          "type": "bytes32"
        },
        {
          "internalType": "uint256",
          "name": "",
          "type": "uint256"
        }
      ],
      "name": "claimRequests",
      "outputs": [
        {
          "internalType": "uint16",
          "name": "",
          "type": "uint16"
        }
      ],
      "stateMutability": "view",
      "type": "function",
      "constant": true
    },
    {
      "inputs": [],
      "name": "dailyChefEarnings",
      "outputs": [
        {
          "internalType": "uint256",
          "name": "",
          "type": "uint256"
        }
      ],
      "stateMutability": "view",
      "type": "function",
      "constant": true
    },
    {
      "inputs": [],
      "name": "dailyFatnessRate",
      "outputs": [
        {
          "internalType": "int8",
          "name": "",
          "type": "int8"
        }
      ],
      "stateMutability": "view",
      "type": "function",
      "constant": true
    },
    {
      "inputs": [],
      "name": "dailyInsanityRate",
      "outputs": [
        {
          "internalType": "int8",
          "name": "",
          "type": "int8"
        }
      ],
      "stateMutability": "view",
      "type": "function",
      "constant": true
    },
    {
      "inputs": [],
      "name": "dailyIntelligenceRate",
      "outputs": [
        {
          "internalType": "int8",
          "name": "",
          "type": "int8"
        }
      ],
      "stateMutability": "view",
      "type": "function",
      "constant": true
    },
    {
      "inputs": [],
      "name": "dailySkillRate",
      "outputs": [
        {
          "internalType": "int8",
          "name": "",
          "type": "int8"
        }
      ],
      "stateMutability": "view",
      "type": "function",
      "constant": true
    },
    {
      "inputs": [],
      "name": "foodTokenMaxSupply",
      "outputs": [
        {
          "internalType": "uint256",
          "name": "",
          "type": "uint256"
        }
      ],
      "stateMutability": "view",
      "type": "function",
      "constant": true
    },
    {
      "inputs": [],
      "name": "foodTokensPerRat",
      "outputs": [
        {
          "internalType": "uint256",
          "name": "",
          "type": "uint256"
        }
      ],
      "stateMutability": "view",
      "type": "function",
      "constant": true
    },
    {
      "inputs": [
        {
          "components": [
            {
              "internalType": "bytes32",
              "name": "requestId",
              "type": "bytes32"
            },
            {
              "internalType": "address",
              "name": "venue",
              "type": "address"
            },
            {
              "internalType": "address",
              "name": "sender",
              "type": "address"
            },
            {
              "internalType": "uint16[]",
              "name": "tokenIds",
              "type": "uint16[]"
            },
            {
              "internalType": "bool",
              "name": "unstake",
              "type": "bool"
            }
          ],
          "internalType": "struct IClaim.VRFStruct",
          "name": "v",
          "type": "tuple"
        },
        {
          "internalType": "uint256",
          "name": "randomVal",
          "type": "uint256"
        }
      ],
      "name": "fulfillClaimMany",
      "outputs": [],
      "stateMutability": "nonpayable",
      "type": "function"
    },
    {
      "inputs": [
        {
          "internalType": "uint256",
          "name": "tokenId",
          "type": "uint256"
        }
      ],
      "name": "getProperties",
      "outputs": [
        {
          "internalType": "uint8",
          "name": "efficiency",
          "type": "uint8"
        },
        {
          "internalType": "uint8",
          "name": "tolerance",
          "type": "uint8"
        }
      ],
      "stateMutability": "view",
      "type": "function",
      "constant": true
    },
    {
      "inputs": [
        {
          "internalType": "uint256",
          "name": "tokenId",
          "type": "uint256"
        }
      ],
      "name": "isChef",
      "outputs": [
        {
          "internalType": "bool",
          "name": "chef",
          "type": "bool"
        }
      ],
      "stateMutability": "view",
      "type": "function",
      "constant": true
    },
    {
      "inputs": [],
      "name": "lastClaimTimestamp",
      "outputs": [
        {
          "internalType": "uint256",
          "name": "",
          "type": "uint256"
        }
      ],
      "stateMutability": "view",
      "type": "function",
      "constant": true
    },
    {
      "inputs": [
        {
          "internalType": "address",
          "name": "",
          "type": "address"
        },
        {
          "internalType": "address",
          "name": "from",
          "type": "address"
        },
        {
          "internalType": "uint256",
          "name": "",
          "type": "uint256"
        },
        {
          "internalType": "bytes",
          "name": "",
          "type": "bytes"
        }
      ],
      "name": "onERC721Received",
      "outputs": [
        {
          "internalType": "bytes4",
          "name": "",
          "type": "bytes4"
        }
      ],
      "stateMutability": "pure",
      "type": "function",
      "constant": true
    },
    {
      "inputs": [],
      "name": "owner",
      "outputs": [
        {
          "internalType": "address",
          "name": "",
          "type": "address"
        }
      ],
      "stateMutability": "view",
      "type": "function",
      "constant": true
    },
    {
      "inputs": [],
      "name": "pause",
      "outputs": [],
      "stateMutability": "nonpayable",
      "type": "function"
    },
    {
      "inputs": [],
      "name": "paused",
      "outputs": [
        {
          "internalType": "bool",
          "name": "",
          "type": "bool"
        }
      ],
      "stateMutability": "view",
      "type": "function",
      "constant": true
    },
    {
      "inputs": [],
      "name": "ratEfficiencyMultiplier",
      "outputs": [
        {
          "internalType": "int256",
          "name": "",
          "type": "int256"
        }
      ],
      "stateMutability": "view",
      "type": "function",
      "constant": true
    },
    {
      "inputs": [],
      "name": "ratEfficiencyOffset",
      "outputs": [
        {
          "internalType": "int256",
          "name": "",
          "type": "int256"
        }
      ],
      "stateMutability": "view",
      "type": "function",
      "constant": true
    },
    {
      "inputs": [],
      "name": "ratTheftPercentage",
      "outputs": [
        {
          "internalType": "uint256",
          "name": "",
          "type": "uint256"
        }
      ],
      "stateMutability": "view",
      "type": "function",
      "constant": true
    },
    {
      "inputs": [
        {
          "internalType": "uint256",
          "name": "",
          "type": "uint256"
        }
      ],
      "name": "rats",
      "outputs": [
        {
          "internalType": "uint256",
          "name": "tokenId",
          "type": "uint256"
        },
        {
          "internalType": "address",
          "name": "owner",
          "type": "address"
        },
        {
          "internalType": "uint80",
          "name": "value",
          "type": "uint80"
        },
        {
          "internalType": "uint80",
          "name": "timestamp",
          "type": "uint80"
        }
      ],
      "stateMutability": "view",
      "type": "function",
      "constant": true
    },
    {
      "inputs": [],
      "name": "renounceOwnership",
      "outputs": [],
      "stateMutability": "nonpayable",
      "type": "function"
    },
    {
      "inputs": [
        {
          "internalType": "address",
          "name": "account",
          "type": "address"
        },
        {
          "internalType": "uint16[]",
          "name": "tokenIds",
          "type": "uint16[]"
        }
      ],
      "name": "stakeMany",
      "outputs": [],
      "stateMutability": "nonpayable",
      "type": "function"
    },
    {
      "inputs": [
        {
          "internalType": "address",
          "name": "",
          "type": "address"
        },
        {
          "internalType": "uint256",
          "name": "",
          "type": "uint256"
        }
      ],
      "name": "stakers",
      "outputs": [
        {
          "internalType": "uint256",
          "name": "",
          "type": "uint256"
        }
      ],
      "stateMutability": "view",
      "type": "function",
      "constant": true
    },
    {
      "inputs": [],
      "name": "totalChefsStaked",
      "outputs": [
        {
          "internalType": "uint256",
          "name": "",
          "type": "uint256"
        }
      ],
      "stateMutability": "view",
      "type": "function",
      "constant": true
    },
    {
      "inputs": [],
      "name": "totalFoodTokensEarned",
      "outputs": [
        {
          "internalType": "uint256",
          "name": "",
          "type": "uint256"
        }
      ],
      "stateMutability": "view",
      "type": "function",
      "constant": true
    },
    {
      "inputs": [],
      "name": "totalRatsStaked",
      "outputs": [
        {
          "internalType": "uint256",
          "name": "",
          "type": "uint256"
        }
      ],
      "stateMutability": "view",
      "type": "function",
      "constant": true
    },
    {
      "inputs": [
        {
          "internalType": "address",
          "name": "newOwner",
          "type": "address"
        }
      ],
      "name": "transferOwnership",
      "outputs": [],
      "stateMutability": "nonpayable",
      "type": "function"
    },
    {
      "inputs": [],
      "name": "unaccountedRewards",
      "outputs": [
        {
          "internalType": "uint256",
          "name": "",
          "type": "uint256"
        }
      ],
      "stateMutability": "view",
      "type": "function",
      "constant": true
    },
    {
      "inputs": [],
      "name": "unpause",
      "outputs": [],
      "stateMutability": "nonpayable",
      "type": "function"
    },
    {
      "inputs": [],
      "name": "vestingPeriod",
      "outputs": [
        {
          "internalType": "uint256",
          "name": "",
          "type": "uint256"
        }
      ],
      "stateMutability": "view",
      "type": "function",
      "constant": true
    },
    {
      "inputs": [
        {
          "internalType": "address[]",
          "name": "_addresses",
          "type": "address[]"
        },
        {
          "internalType": "uint256",
          "name": "_foodTokenMaxSupply",
          "type": "uint256"
        },
        {
          "internalType": "uint256[]",
          "name": "_earningSettings",
          "type": "uint256[]"
        },
        {
          "internalType": "int8[]",
          "name": "_propertyIncrements",
          "type": "int8[]"
        },
        {
          "internalType": "uint8",
          "name": "_chefEfficiencyMultiplier",
          "type": "uint8"
        },
        {
          "internalType": "int256",
          "name": "_ratEfficiencyMultiplier",
          "type": "int256"
        },
        {
          "internalType": "int256",
          "name": "_ratEfficiencyOffset",
          "type": "int256"
        }
      ],
      "name": "initialize",
      "outputs": [],
      "stateMutability": "nonpayable",
      "type": "function"
    },
    {
      "inputs": [
        {
          "internalType": "address[]",
          "name": "_addresses",
          "type": "address[]"
        },
        {
          "internalType": "uint256",
          "name": "_accrualPeriod",
          "type": "uint256"
        }
      ],
      "name": "initialize",
      "outputs": [],
      "stateMutability": "nonpayable",
      "type": "function"
    },
    {
      "inputs": [],
      "name": "initialize",
      "outputs": [],
      "stateMutability": "nonpayable",
      "type": "function"
    }
  ],
  "bytecode": "0x608060405234801561001057600080fd5b50615b0780620000216000396000f3fe608060405234801561001057600080fd5b50600436106102325760003560e01c80637313ee5a11610130578063c0c472c0116100b8578063dbdc1f6b1161007c578063dbdc1f6b14610630578063ef9f800f1461064c578063f26667461461067c578063f2fde38b1461069a578063f6664155146106b657610232565b8063c0c472c014610588578063c8b6cbf7146105a6578063cba88af8146105d6578063d7178ac6146105f4578063d8dda92e1461061257610232565b806391ba3f3f116100ff57806391ba3f3f146104f6578063922a180214610514578063a262c0ad14610530578063a7a102901461054e578063bdb629411461056a57610232565b80637313ee5a146104a65780638129fc1c146104c45780638456cb59146104ce5780638da5cb5b146104d857610232565b806335ec066e116101be578063525e915b11610182578063525e915b146104145780635c975abb14610444578063607af3971461046257806360b5bb3f14610480578063715018a61461049c57610232565b806335ec066e146103685780633f4ba83a1461039b578063499f8010146103a55780634d1c61af146103c35780634e71d92d146103f657610232565b80631b4d47a1116102055780631b4d47a1146102bf5780631b8ca217146102dd5780632535a77f1461030e5780632d79320b1461032c5780632e2ce28b1461034a57610232565b8063087c3e381461023757806310d53df114610253578063138e6ad514610271578063150b7a021461028f575b600080fd5b610251600480360381019061024c9190613fbc565b6106d4565b005b61025b610abd565b60405161026891906140c1565b60405180910390f35b610279610ad0565b60405161028691906140eb565b60405180910390f35b6102a960048036038101906102a49190614161565b610ad6565b6040516102b69190614224565b60405180910390f35b6102c7610b59565b6040516102d4919061424e565b60405180910390f35b6102f760048036038101906102f29190614269565b610b5f565b6040516103059291906142a5565b60405180910390f35b610316610c40565b604051610323919061424e565b60405180910390f35b610334610c46565b60405161034191906142ce565b60405180910390f35b610352610c59565b60405161035f919061424e565b60405180910390f35b610382600480360381019061037d9190614269565b610c5f565b604051610392949392919061431d565b60405180910390f35b6103a3610cdb565b005b6103ad610d61565b6040516103ba919061424e565b60405180910390f35b6103dd60048036038101906103d89190614269565b610d67565b6040516103ed949392919061431d565b60405180910390f35b6103fe610de3565b60405161040b91906143c1565b60405180910390f35b61042e60048036038101906104299190614412565b610e09565b60405161043b919061446f565b60405180910390f35b61044c610e50565b60405161045991906144a5565b60405180910390f35b61046a610e67565b604051610477919061424e565b60405180910390f35b61049a600480360381019061049591906144c0565b610e6d565b005b6104a461109e565b005b6104ae611126565b6040516104bb919061424e565b60405180910390f35b6104cc61112c565b005b6104d6611220565b005b6104e06112a6565b6040516104ed919061451c565b60405180910390f35b6104fe6112d0565b60405161050b919061424e565b60405180910390f35b61052e60048036038101906105299190614704565b6112d6565b005b610538611842565b60405161054591906140c1565b60405180910390f35b610568600480360381019061056391906147b6565b611855565b005b610572611c0a565b60405161057f91906140c1565b60405180910390f35b610590611c1d565b60405161059d919061424e565b60405180910390f35b6105c060048036038101906105bb9190614816565b611c23565b6040516105cd919061424e565b60405180910390f35b6105de611c54565b6040516105eb91906140c1565b60405180910390f35b6105fc611c67565b60405161060991906140eb565b60405180910390f35b61061a611c6d565b604051610627919061424e565b60405180910390f35b61064a60048036038101906106459190614856565b611c73565b005b61066660048036038101906106619190614269565b612200565b60405161067391906144a5565b60405180910390f35b6106846122d5565b604051610691919061424e565b60405180910390f35b6106b460048036038101906106af91906148b6565b6122db565b005b6106be6123d3565b6040516106cb919061424e565b60405180910390f35b600060019054906101000a900460ff166106fc5760008054906101000a900460ff1615610705565b6107046123d9565b5b610744576040517f08c379a000000000000000000000000000000000000000000000000000000000815260040161073b90614966565b60405180910390fd5b60008060019054906101000a900460ff161590508015610794576001600060016101000a81548160ff02191690831515021790555060016000806101000a81548160ff0219169083151502179055505b61079c6123ea565b6107a461244b565b600060a681905550600060a181905550600060a881905550876000815181106107d0576107cf614986565b5b6020026020010151609760006101000a81548173ffffffffffffffffffffffffffffffffffffffff021916908373ffffffffffffffffffffffffffffffffffffffff1602179055508760018151811061082c5761082b614986565b5b6020026020010151609860006101000a81548173ffffffffffffffffffffffffffffffffffffffff021916908373ffffffffffffffffffffffffffffffffffffffff1602179055508760028151811061088857610887614986565b5b602002602001015160ac60006101000a81548173ffffffffffffffffffffffffffffffffffffffff021916908373ffffffffffffffffffffffffffffffffffffffff160217905550670de0b6b3a7640000876108e491906149e4565b60a381905550670de0b6b3a76400008660008151811061090757610906614986565b5b602002602001015161091991906149e4565b60a4819055508560018151811061093357610932614986565b5b602002602001015160a5819055508560028151811061095557610954614986565b5b602002602001015160a2819055508560038151811061097757610976614986565b5b602002602001015160a0819055508460008151811061099957610998614986565b5b6020026020010151609d60006101000a81548160ff021916908360000b60ff160217905550846001815181106109d2576109d1614986565b5b6020026020010151609d60016101000a81548160ff021916908360000b60ff16021790555084600281518110610a0b57610a0a614986565b5b6020026020010151609d60026101000a81548160ff021916908360000b60ff16021790555084600381518110610a4457610a43614986565b5b6020026020010151609d60036101000a81548160ff021916908360000b60ff1602179055508360a960006101000a81548160ff021916908360ff1602179055508260aa819055508160ab819055508015610ab35760008060016101000a81548160ff0219169083151502179055505b5050505050505050565b609d60009054906101000a900460000b81565b60aa5481565b60008073ffffffffffffffffffffffffffffffffffffffff168573ffffffffffffffffffffffffffffffffffffffff1614610b46576040517f08c379a0000000000000000000000000000000000000000000000000000000008152600401610b3d90614ab0565b60405180910390fd5b63150b7a0260e01b905095945050505050565b60a35481565b600080609760009054906101000a900473ffffffffffffffffffffffffffffffffffffffff1673ffffffffffffffffffffffffffffffffffffffff1663e05c57bf846040518263ffffffff1660e01b8152600401610bbd919061424e565b61014060405180830381865afa158015610bdb573d6000803e3d6000fd5b505050506040513d601f19601f82011682018060405250810190610bff9190614afa565b909192939495969798509091929394959697509091929394959650909192939495509091929394509091929350909192509091508092508193505050915091565b60a15481565b60a960009054906101000a900460ff1681565b60a55481565b609a6020528060005260406000206000915090508060000154908060010160009054906101000a900473ffffffffffffffffffffffffffffffffffffffff16908060010160149054906101000a900469ffffffffffffffffffff16908060020160009054906101000a900469ffffffffffffffffffff16905084565b610ce36124ac565b73ffffffffffffffffffffffffffffffffffffffff16610d016112a6565b73ffffffffffffffffffffffffffffffffffffffff1614610d57576040517f08c379a0000000000000000000000000000000000000000000000000000000008152600401610d4e90614c25565b60405180910390fd5b610d5f6124b4565b565b609f5481565b60996020528060005260406000206000915090508060000154908060010160009054906101000a900473ffffffffffffffffffffffffffffffffffffffff16908060010160149054906101000a900469ffffffffffffffffffff16908060020160009054906101000a900469ffffffffffffffffffff16905084565b609860009054906101000a900473ffffffffffffffffffffffffffffffffffffffff1681565b609c6020528160005260406000208181548110610e2557600080fd5b9060005260206000209060109182820401919006600202915091509054906101000a900461ffff1681565b6000606560009054906101000a900460ff16905090565b60a85481565b600060019054906101000a900460ff16610e955760008054906101000a900460ff1615610e9e565b610e9d6123d9565b5b610edd576040517f08c379a0000000000000000000000000000000000000000000000000000000008152600401610ed490614966565b60405180910390fd5b60008060019054906101000a900460ff161590508015610f2d576001600060016101000a81548160ff02191690831515021790555060016000806101000a81548160ff0219169083151502179055505b610f356123ea565b610f3d61244b565b82600081518110610f5157610f50614986565b5b6020026020010151609760006101000a81548173ffffffffffffffffffffffffffffffffffffffff021916908373ffffffffffffffffffffffffffffffffffffffff16021790555082600181518110610fad57610fac614986565b5b6020026020010151609860006101000a81548173ffffffffffffffffffffffffffffffffffffffff021916908373ffffffffffffffffffffffffffffffffffffffff1602179055508160a0819055506000609d60006101000a81548160ff021916908360000b60ff1602179055506000609d60016101000a81548160ff021916908360000b60ff1602179055506000609d60026101000a81548160ff021916908360000b60ff1602179055506000609d60036101000a81548160ff021916908360000b60ff16021790555080156110995760008060016101000a81548160ff0219169083151502179055505b505050565b6110a66124ac565b73ffffffffffffffffffffffffffffffffffffffff166110c46112a6565b73ffffffffffffffffffffffffffffffffffffffff161461111a576040517f08c379a000000000000000000000000000000000000000000000000000000000815260040161111190614c25565b60405180910390fd5b6111246000612556565b565b60a25481565b600060019054906101000a900460ff166111545760008054906101000a900460ff161561115d565b61115c6123d9565b5b61119c576040517f08c379a000000000000000000000000000000000000000000000000000000000815260040161119390614966565b60405180910390fd5b60008060019054906101000a900460ff1615905080156111ec576001600060016101000a81548160ff02191690831515021790555060016000806101000a81548160ff0219169083151502179055505b6111f46123ea565b6111fc61244b565b801561121d5760008060016101000a81548160ff0219169083151502179055505b50565b6112286124ac565b73ffffffffffffffffffffffffffffffffffffffff166112466112a6565b73ffffffffffffffffffffffffffffffffffffffff161461129c576040517f08c379a000000000000000000000000000000000000000000000000000000000815260040161129390614c25565b60405180910390fd5b6112a461261c565b565b6000603360009054906101000a900473ffffffffffffffffffffffffffffffffffffffff16905090565b60a45481565b6112de610e50565b1561131e576040517f08c379a000000000000000000000000000000000000000000000000000000000815260040161131590614c91565b60405180910390fd5b609860009054906101000a900473ffffffffffffffffffffffffffffffffffffffff1673ffffffffffffffffffffffffffffffffffffffff163373ffffffffffffffffffffffffffffffffffffffff16146113ae576040517f08c379a00000000000000000000000000000000000000000000000000000000081526004016113a590614cfd565b60405180910390fd5b6000609c600084600001518152602001908152602001600020805490501161140b576040517f08c379a000000000000000000000000000000000000000000000000000000000815260040161140290614d69565b60405180910390fd5b6000609c60008460000151815260200190815260200160002080548060200260200160405190810160405280929190818152602001828054801561149657602002820191906000526020600020906000905b82829054906101000a900461ffff1661ffff168152602001906002019060208260010104928301926001038202915080841161145d5790505b50505050509050609c60008460000151815260200190815260200160002060006114c09190613a9a565b6000805b82518110156118235760006114de866040015160006126bf565b90506115078483815181106114f6576114f5614986565b5b602002602001015161ffff16612200565b1561155b5761154984838151811061152257611521614986565b5b602002602001015161ffff168760400151831580611541575088608001515b8415896126cb565b836115549190614d89565b92506115a6565b61159884838151811061157157611570614986565b5b602002602001015161ffff168760400151831580611590575088608001515b841589612b75565b836115a39190614d89565b92505b60005b609b6000886040015173ffffffffffffffffffffffffffffffffffffffff1673ffffffffffffffffffffffffffffffffffffffff1681526020019081526020016000208054905081101561180e5784838151811061160a57611609614986565b5b602002602001015161ffff16609b6000896040015173ffffffffffffffffffffffffffffffffffffffff1673ffffffffffffffffffffffffffffffffffffffff168152602001908152602001600020828154811061166b5761166a614986565b5b906000526020600020015414156117fb57609b6000886040015173ffffffffffffffffffffffffffffffffffffffff1673ffffffffffffffffffffffffffffffffffffffff1681526020019081526020016000206001609b60008a6040015173ffffffffffffffffffffffffffffffffffffffff1673ffffffffffffffffffffffffffffffffffffffff168152602001908152602001600020805490506117129190614ddf565b8154811061172357611722614986565b5b9060005260206000200154609b6000896040015173ffffffffffffffffffffffffffffffffffffffff1673ffffffffffffffffffffffffffffffffffffffff168152602001908152602001600020828154811061178357611782614986565b5b9060005260206000200181905550609b6000886040015173ffffffffffffffffffffffffffffffffffffffff1673ffffffffffffffffffffffffffffffffffffffff1681526020019081526020016000208054806117e4576117e3614e13565b5b600190038181906000526020600020016000905590555b808061180690614e42565b9150506115a9565b5050808061181b90614e42565b9150506114c4565b50600081111561183c5761183b846040015182613022565b5b50505050565b609d60029054906101000a900460000b81565b61185d610e50565b1561189d576040517f08c379a000000000000000000000000000000000000000000000000000000000815260040161189490614c91565b60405180910390fd5b60005b83839050811015611b315760006118e18585848181106118c3576118c2614986565b5b90506020020160208101906118d89190614e8b565b61ffff16612200565b61192857609a60008686858181106118fc576118fb614986565b5b90506020020160208101906119119190614e8b565b61ffff168152602001908152602001600020611967565b6099600086868581811061193f5761193e614986565b5b90506020020160208101906119549190614e8b565b61ffff1681526020019081526020016000205b604051806080016040529081600082015481526020016001820160009054906101000a900473ffffffffffffffffffffffffffffffffffffffff1673ffffffffffffffffffffffffffffffffffffffff1673ffffffffffffffffffffffffffffffffffffffff1681526020016001820160149054906101000a900469ffffffffffffffffffff1669ffffffffffffffffffff1669ffffffffffffffffffff1681526020016002820160009054906101000a900469ffffffffffffffffffff1669ffffffffffffffffffff1669ffffffffffffffffffff16815250509050611a4c6124ac565b73ffffffffffffffffffffffffffffffffffffffff16816020015173ffffffffffffffffffffffffffffffffffffffff1614611abd576040517f08c379a0000000000000000000000000000000000000000000000000000000008152600401611ab490614f04565b60405180910390fd5b60a254816060015169ffffffffffffffffffff1642611adc9190614ddf565b1015611b1d576040517f08c379a0000000000000000000000000000000000000000000000000000000008152600401611b1490614f70565b60405180910390fd5b508080611b2990614e42565b9150506118a0565b506000609860009054906101000a900473ffffffffffffffffffffffffffffffffffffffff1673ffffffffffffffffffffffffffffffffffffffff16635bdf263c611b7a6124ac565b8686866040518563ffffffff1660e01b8152600401611b9c9493929190615053565b6020604051808303816000875af1158015611bbb573d6000803e3d6000fd5b505050506040513d601f19601f82011682018060405250810190611bdf91906150a8565b90508383609c60008481526020019081526020016000209190611c03929190613ac2565b5050505050565b609d60019054906101000a900460000b81565b60a65481565b609b6020528160005260406000208181548110611c3f57600080fd5b90600052602060002001600091509150505481565b609d60039054906101000a900460000b81565b60ab5481565b60a75481565b611c7b6124ac565b73ffffffffffffffffffffffffffffffffffffffff168373ffffffffffffffffffffffffffffffffffffffff161480611d085750609760009054906101000a900473ffffffffffffffffffffffffffffffffffffffff1673ffffffffffffffffffffffffffffffffffffffff16611cf06124ac565b73ffffffffffffffffffffffffffffffffffffffff16145b611d47576040517f08c379a0000000000000000000000000000000000000000000000000000000008152600401611d3e90615121565b60405180910390fd5b611d5b611d526124ac565b838390506126bf565b611d9a576040517f08c379a0000000000000000000000000000000000000000000000000000000008152600401611d919061518d565b60405180910390fd5b60005b828290508110156121fa57609760009054906101000a900473ffffffffffffffffffffffffffffffffffffffff1673ffffffffffffffffffffffffffffffffffffffff16611de96124ac565b73ffffffffffffffffffffffffffffffffffffffff1614611fff57611e0c6124ac565b73ffffffffffffffffffffffffffffffffffffffff16609760009054906101000a900473ffffffffffffffffffffffffffffffffffffffff1673ffffffffffffffffffffffffffffffffffffffff16636352211e858585818110611e7357611e72614986565b5b9050602002016020810190611e889190614e8b565b6040518263ffffffff1660e01b8152600401611ea491906151de565b602060405180830381865afa158015611ec1573d6000803e3d6000fd5b505050506040513d601f19601f82011682018060405250810190611ee5919061520e565b73ffffffffffffffffffffffffffffffffffffffff1614611f3b576040517f08c379a0000000000000000000000000000000000000000000000000000000008152600401611f3290614f04565b60405180910390fd5b609760009054906101000a900473ffffffffffffffffffffffffffffffffffffffff1673ffffffffffffffffffffffffffffffffffffffff166323b872dd611f816124ac565b30868686818110611f9557611f94614986565b5b9050602002016020810190611faa9190614e8b565b6040518463ffffffff1660e01b8152600401611fc89392919061523b565b600060405180830381600087803b158015611fe257600080fd5b505af1158015611ff6573d6000803e3d6000fd5b50505050612039565b600083838381811061201457612013614986565b5b90506020020160208101906120299190614e8b565b61ffff161415612038576121e7565b5b61206d83838381811061204f5761204e614986565b5b90506020020160208101906120649190614e8b565b61ffff166130b5565b6120ac576040517f08c379a00000000000000000000000000000000000000000000000000000000081526004016120a3906152be565b60405180910390fd5b6120e08383838181106120c2576120c1614986565b5b90506020020160208101906120d79190614e8b565b61ffff16612200565b1561211f5761211a848484848181106120fc576120fb614986565b5b90506020020160208101906121119190614e8b565b61ffff166130c0565b612155565b6121548484848481811061213657612135614986565b5b905060200201602081019061214b9190614e8b565b61ffff1661327f565b5b609b60008573ffffffffffffffffffffffffffffffffffffffff1673ffffffffffffffffffffffffffffffffffffffff1681526020019081526020016000208383838181106121a7576121a6614986565b5b90506020020160208101906121bc9190614e8b565b908060018154018082558091505060019003906000526020600020016000909161ffff169091909150555b80806121f290614e42565b915050611d9d565b50505050565b6000609760009054906101000a900473ffffffffffffffffffffffffffffffffffffffff1673ffffffffffffffffffffffffffffffffffffffff1663e05c57bf836040518263ffffffff1660e01b815260040161225d919061424e565b61014060405180830381865afa15801561227b573d6000803e3d6000fd5b505050506040513d601f19601f8201168201806040525081019061229f9190614afa565b90919293949596975090919293949596509091929394955090919293945090919293509091925090915090505080915050919050565b609e5481565b6122e36124ac565b73ffffffffffffffffffffffffffffffffffffffff166123016112a6565b73ffffffffffffffffffffffffffffffffffffffff1614612357576040517f08c379a000000000000000000000000000000000000000000000000000000000815260040161234e90614c25565b60405180910390fd5b600073ffffffffffffffffffffffffffffffffffffffff168173ffffffffffffffffffffffffffffffffffffffff1614156123c7576040517f08c379a00000000000000000000000000000000000000000000000000000000081526004016123be90615350565b60405180910390fd5b6123d081612556565b50565b60a05481565b60006123e430613447565b15905090565b600060019054906101000a900460ff16612439576040517f08c379a0000000000000000000000000000000000000000000000000000000008152600401612430906153e2565b60405180910390fd5b61244161345a565b6124496134ab565b565b600060019054906101000a900460ff1661249a576040517f08c379a0000000000000000000000000000000000000000000000000000000008152600401612491906153e2565b60405180910390fd5b6124a261345a565b6124aa61350c565b565b600033905090565b6124bc610e50565b6124fb576040517f08c379a00000000000000000000000000000000000000000000000000000000081526004016124f29061544e565b60405180910390fd5b6000606560006101000a81548160ff0219169083151502179055507f5db9ee0a495bf2e6ff9c91a7834c1ba4fdd244a5e8aa4e537bd38aeae4b073aa61253f6124ac565b60405161254c919061451c565b60405180910390a1565b6000603360009054906101000a900473ffffffffffffffffffffffffffffffffffffffff16905081603360006101000a81548173ffffffffffffffffffffffffffffffffffffffff021916908373ffffffffffffffffffffffffffffffffffffffff1602179055508173ffffffffffffffffffffffffffffffffffffffff168173ffffffffffffffffffffffffffffffffffffffff167f8be0079c531659141344cd1fd0a4f28419497f9722a3daafe3b4186f6b6457e060405160405180910390a35050565b612624610e50565b15612664576040517f08c379a000000000000000000000000000000000000000000000000000000000815260040161265b90614c91565b60405180910390fd5b6001606560006101000a81548160ff0219169083151502179055507f62e78cea01bee320cd4e420270b5ea74000d11b0c9f74754ebdbfc544b05a2586126a86124ac565b6040516126b5919061451c565b60405180910390a1565b60006001905092915050565b60008060996000888152602001908152602001600020604051806080016040529081600082015481526020016001820160009054906101000a900473ffffffffffffffffffffffffffffffffffffffff1673ffffffffffffffffffffffffffffffffffffffff1673ffffffffffffffffffffffffffffffffffffffff1681526020016001820160149054906101000a900469ffffffffffffffffffff1669ffffffffffffffffffff1669ffffffffffffffffffff1681526020016002820160009054906101000a900469ffffffffffffffffffff1669ffffffffffffffffffff1669ffffffffffffffffffff168152505090508573ffffffffffffffffffffffffffffffffffffffff16816020015173ffffffffffffffffffffffffffffffffffffffff1614612830576040517f08c379a000000000000000000000000000000000000000000000000000000000815260040161282790614f04565b60405180910390fd5b60a254816060015169ffffffffffffffffffff164261284f9190614ddf565b1015612890576040517f08c379a000000000000000000000000000000000000000000000000000000000815260040161288790614f70565b60405180910390fd5b836128a35761289e81613578565b6128a6565b60005b915060008060006128b78a876136c6565b9250925092506128c68a6130b5565b6128cf57600197505b8715612a0257609760009054906101000a900473ffffffffffffffffffffffffffffffffffffffff1673ffffffffffffffffffffffffffffffffffffffff1663b88d4fde308b8d6040518463ffffffff1660e01b8152600401612934939291906154a5565b600060405180830381600087803b15801561294e57600080fd5b505af1158015612962573d6000803e3d6000fd5b50505050609960008b81526020019081526020016000206000808201600090556001820160006101000a81549073ffffffffffffffffffffffffffffffffffffffff02191690556001820160146101000a81549069ffffffffffffffffffff02191690556002820160006101000a81549069ffffffffffffffffffff02191690555050609e60008154809291906129f8906154ef565b9190505550612b23565b60405180608001604052808b61ffff1681526020018a73ffffffffffffffffffffffffffffffffffffffff1681526020014269ffffffffffffffffffff1681526020014269ffffffffffffffffffff16815250609960008c81526020019081526020016000206000820151816000015560208201518160010160006101000a81548173ffffffffffffffffffffffffffffffffffffffff021916908373ffffffffffffffffffffffffffffffffffffffff16021790555060408201518160010160146101000a81548169ffffffffffffffffffff021916908369ffffffffffffffffffff16021790555060608201518160020160006101000a81548169ffffffffffffffffffff021916908369ffffffffffffffffffff1602179055509050505b7f9b394c66bc4fdb2f56f5842a796076e6552d6f15eaacb6e63e3c53b474d872e98a868a86868660a154604051612b609796959493929190615590565b60405180910390a15050505095945050505050565b600080609a6000888152602001908152602001600020604051806080016040529081600082015481526020016001820160009054906101000a900473ffffffffffffffffffffffffffffffffffffffff1673ffffffffffffffffffffffffffffffffffffffff1673ffffffffffffffffffffffffffffffffffffffff1681526020016001820160149054906101000a900469ffffffffffffffffffff1669ffffffffffffffffffff1669ffffffffffffffffffff1681526020016002820160009054906101000a900469ffffffffffffffffffff1669ffffffffffffffffffff1669ffffffffffffffffffff168152505090508573ffffffffffffffffffffffffffffffffffffffff16816020015173ffffffffffffffffffffffffffffffffffffffff1614612cda576040517f08c379a0000000000000000000000000000000000000000000000000000000008152600401612cd190614f04565b60405180910390fd5b60a254816060015169ffffffffffffffffffff1642612cf99190614ddf565b1015612d3a576040517f08c379a0000000000000000000000000000000000000000000000000000000008152600401612d3190614f70565b60405180910390fd5b83612d4d57612d4881613884565b612d50565b60005b91506000806000612d618a876136c6565b925092509250612d708a6130b5565b612d7957600197505b8715612eac57609760009054906101000a900473ffffffffffffffffffffffffffffffffffffffff1673ffffffffffffffffffffffffffffffffffffffff1663b88d4fde308b8d6040518463ffffffff1660e01b8152600401612dde939291906154a5565b600060405180830381600087803b158015612df857600080fd5b505af1158015612e0c573d6000803e3d6000fd5b50505050609a60008b81526020019081526020016000206000808201600090556001820160006101000a81549073ffffffffffffffffffffffffffffffffffffffff02191690556001820160146101000a81549069ffffffffffffffffffff02191690556002820160006101000a81549069ffffffffffffffffffff02191690555050609f6000815480929190612ea2906154ef565b9190505550612fd4565b60405180608001604052808b61ffff1681526020018a73ffffffffffffffffffffffffffffffffffffffff168152602001612ee5613998565b69ffffffffffffffffffff1681526020014269ffffffffffffffffffff16815250609a60008c81526020019081526020016000206000820151816000015560208201518160010160006101000a81548173ffffffffffffffffffffffffffffffffffffffff021916908373ffffffffffffffffffffffffffffffffffffffff16021790555060408201518160010160146101000a81548169ffffffffffffffffffff021916908369ffffffffffffffffffff16021790555060608201518160020160006101000a81548169ffffffffffffffffffff021916908369ffffffffffffffffffff1602179055509050505b7f6e949c62565860afb9dd6295e998a1c40005fe9560aedf8d596717681cfc7a1f8a868a86868660405161300d96959493929190615606565b60405180910390a15050505095945050505050565b60ac60009054906101000a900473ffffffffffffffffffffffffffffffffffffffff1673ffffffffffffffffffffffffffffffffffffffff166340c10f1983836040518363ffffffff1660e01b815260040161307f92919061566e565b600060405180830381600087803b15801561309957600080fd5b505af11580156130ad573d6000803e3d6000fd5b505050505050565b600060019050919050565b6130c8610e50565b15613108576040517f08c379a00000000000000000000000000000000000000000000000000000000081526004016130ff90614c91565b60405180910390fd5b60405180608001604052808261ffff1681526020018373ffffffffffffffffffffffffffffffffffffffff1681526020014269ffffffffffffffffffff1681526020014269ffffffffffffffffffff16815250609960008381526020019081526020016000206000820151816000015560208201518160010160006101000a81548173ffffffffffffffffffffffffffffffffffffffff021916908373ffffffffffffffffffffffffffffffffffffffff16021790555060408201518160010160146101000a81548169ffffffffffffffffffff021916908369ffffffffffffffffffff16021790555060608201518160020160006101000a81548169ffffffffffffffffffff021916908369ffffffffffffffffffff160217905550905050609e600081548092919061323b90614e42565b91905055507f8af1bb49fb16c7835975aa59449ba4328dd54737dfb2ae9fa6c5eca71fda51f981834260405161327393929190615697565b60405180910390a15050565b613287610e50565b156132c7576040517f08c379a00000000000000000000000000000000000000000000000000000000081526004016132be90614c91565b60405180910390fd5b60405180608001604052808261ffff1681526020018373ffffffffffffffffffffffffffffffffffffffff168152602001613300613998565b69ffffffffffffffffffff1681526020014269ffffffffffffffffffff16815250609a60008381526020019081526020016000206000820151816000015560208201518160010160006101000a81548173ffffffffffffffffffffffffffffffffffffffff021916908373ffffffffffffffffffffffffffffffffffffffff16021790555060408201518160010160146101000a81548169ffffffffffffffffffff021916908369ffffffffffffffffffff16021790555060608201518160020160006101000a81548169ffffffffffffffffffff021916908369ffffffffffffffffffff160217905550905050609f600081548092919061340190614e42565b91905055507f8af1bb49fb16c7835975aa59449ba4328dd54737dfb2ae9fa6c5eca71fda51f9818360a15460405161343b93929190615697565b60405180910390a15050565b600080823b905060008111915050919050565b600060019054906101000a900460ff166134a9576040517f08c379a00000000000000000000000000000000000000000000000000000000081526004016134a0906153e2565b60405180910390fd5b565b600060019054906101000a900460ff166134fa576040517f08c379a00000000000000000000000000000000000000000000000000000000081526004016134f1906153e2565b60405180910390fd5b61350a6135056124ac565b612556565b565b600060019054906101000a900460ff1661355b576040517f08c379a0000000000000000000000000000000000000000000000000000000008152600401613552906153e2565b60405180910390fd5b6000606560006101000a81548160ff021916908315150217905550565b6000806135888360000151610b5f565b509050600060a054846040015169ffffffffffffffffffff16426135ac9190614ddf565b60a4546135b991906149e4565b6135c391906156fd565b90506000600a60a960009054906101000a900460ff1660ff168460ff166135ea91906149e4565b6135f491906149e4565b620186a06136029190614d89565b9050620186a0818361361491906149e4565b61361e91906156fd565b935060a3548460a7546136319190614d89565b111561364a5760a75460a3546136479190614ddf565b93505b60008411156136be574260a88190555061367c606460a5548661366d91906149e4565b61367791906156fd565b6139a2565b606460a554606461368d9190614ddf565b8561369891906149e4565b6136a291906156fd565b93508360a760008282546136b69190614d89565b925050819055505b505050919050565b600080606060006136d686612200565b61370c57609a600087815260200190815260200160002060020160009054906101000a900469ffffffffffffffffffff1661373a565b6099600087815260200190815260200160002060020160009054906101000a900469ffffffffffffffffffff165b69ffffffffffffffffffff16426137519190614ddf565b9050600061375e87612200565b9050609760009054906101000a900473ffffffffffffffffffffffffffffffffffffffff1673ffffffffffffffffffffffffffffffffffffffff166363dbfc77886137d3846137bc57609d60029054906101000a900460000b6137cd565b609d60009054906101000a900460000b5b86613a0a565b613807856137f057609d60039054906101000a900460000b613801565b609d60019054906101000a900460000b5b87613a0a565b8a6040518563ffffffff1660e01b8152600401613827949392919061572e565b6000604051808303816000875af1158015613846573d6000803e3d6000fd5b505050506040513d6000823e3d601f19601f8201168201806040525081019061386f9190615819565b80955081965082975050505050509250925092565b6000806138948360000151610b5f565b9150506000836040015169ffffffffffffffffffff1660a1546138b79190614ddf565b905060006103e860ab546138cb9190615888565b60646103e860aa5460328760ff1611156138f1578660646138ec919061599f565b6138f3565b865b60000b6139009190615888565b61390a9190615888565b61391491906159d3565b61391e9190615a3d565b9050620186a0818361393091906149e4565b61393a91906156fd565b935060a3548460a75461394d9190614d89565b11156139665760a75460a3546139639190614ddf565b93505b6000841115613990574260a8819055508360a760008282546139889190614d89565b925050819055505b505050919050565b600060a154905090565b6000609f5414156139cb578060a660008282546139bf9190614d89565b92505081905550613a07565b609f5460a654826139dc9190614d89565b6139e691906156fd565b60a160008282546139f79190614d89565b92505081905550600060a6819055505b50565b60008060a0548460000b84613a1f9190615888565b613a2991906159d3565b90506064811315613a3e576064915050613a94565b7fffffffffffffffffffffffffffffffffffffffffffffffffffffffffffffff9c811215613a8f577fffffffffffffffffffffffffffffffffffffffffffffffffffffffffffffff9c915050613a94565b809150505b92915050565b50805460008255600f016010900490600052602060002090810190613abf9190613b70565b50565b82805482825590600052602060002090600f01601090048101928215613b5f5791602002820160005b83821115613b2f57833561ffff1683826101000a81548161ffff021916908361ffff1602179055509260200192600201602081600101049283019260010302613aeb565b8015613b5d5782816101000a81549061ffff0219169055600201602081600101049283019260010302613b2f565b505b509050613b6c9190613b70565b5090565b5b80821115613b89576000816000905550600101613b71565b5090565b6000604051905090565b600080fd5b600080fd5b600080fd5b6000601f19601f8301169050919050565b7f4e487b7100000000000000000000000000000000000000000000000000000000600052604160045260246000fd5b613bef82613ba6565b810181811067ffffffffffffffff82111715613c0e57613c0d613bb7565b5b80604052505050565b6000613c21613b8d565b9050613c2d8282613be6565b919050565b600067ffffffffffffffff821115613c4d57613c4c613bb7565b5b602082029050602081019050919050565b600080fd5b600073ffffffffffffffffffffffffffffffffffffffff82169050919050565b6000613c8e82613c63565b9050919050565b613c9e81613c83565b8114613ca957600080fd5b50565b600081359050613cbb81613c95565b92915050565b6000613cd4613ccf84613c32565b613c17565b90508083825260208201905060208402830185811115613cf757613cf6613c5e565b5b835b81811015613d205780613d0c8882613cac565b845260208401935050602081019050613cf9565b5050509392505050565b600082601f830112613d3f57613d3e613ba1565b5b8135613d4f848260208601613cc1565b91505092915050565b6000819050919050565b613d6b81613d58565b8114613d7657600080fd5b50565b600081359050613d8881613d62565b92915050565b600067ffffffffffffffff821115613da957613da8613bb7565b5b602082029050602081019050919050565b6000613dcd613dc884613d8e565b613c17565b90508083825260208201905060208402830185811115613df057613def613c5e565b5b835b81811015613e195780613e058882613d79565b845260208401935050602081019050613df2565b5050509392505050565b600082601f830112613e3857613e37613ba1565b5b8135613e48848260208601613dba565b91505092915050565b600067ffffffffffffffff821115613e6c57613e6b613bb7565b5b602082029050602081019050919050565b60008160000b9050919050565b613e9381613e7d565b8114613e9e57600080fd5b50565b600081359050613eb081613e8a565b92915050565b6000613ec9613ec484613e51565b613c17565b90508083825260208201905060208402830185811115613eec57613eeb613c5e565b5b835b81811015613f155780613f018882613ea1565b845260208401935050602081019050613eee565b5050509392505050565b600082601f830112613f3457613f33613ba1565b5b8135613f44848260208601613eb6565b91505092915050565b600060ff82169050919050565b613f6381613f4d565b8114613f6e57600080fd5b50565b600081359050613f8081613f5a565b92915050565b6000819050919050565b613f9981613f86565b8114613fa457600080fd5b50565b600081359050613fb681613f90565b92915050565b600080600080600080600060e0888a031215613fdb57613fda613b97565b5b600088013567ffffffffffffffff811115613ff957613ff8613b9c565b5b6140058a828b01613d2a565b97505060206140168a828b01613d79565b965050604088013567ffffffffffffffff81111561403757614036613b9c565b5b6140438a828b01613e23565b955050606088013567ffffffffffffffff81111561406457614063613b9c565b5b6140708a828b01613f1f565b94505060806140818a828b01613f71565b93505060a06140928a828b01613fa7565b92505060c06140a38a828b01613fa7565b91505092959891949750929550565b6140bb81613e7d565b82525050565b60006020820190506140d660008301846140b2565b92915050565b6140e581613f86565b82525050565b600060208201905061410060008301846140dc565b92915050565b600080fd5b60008083601f84011261412157614120613ba1565b5b8235905067ffffffffffffffff81111561413e5761413d614106565b5b60208301915083600182028301111561415a57614159613c5e565b5b9250929050565b60008060008060006080868803121561417d5761417c613b97565b5b600061418b88828901613cac565b955050602061419c88828901613cac565b94505060406141ad88828901613d79565b935050606086013567ffffffffffffffff8111156141ce576141cd613b9c565b5b6141da8882890161410b565b92509250509295509295909350565b60007fffffffff0000000000000000000000000000000000000000000000000000000082169050919050565b61421e816141e9565b82525050565b60006020820190506142396000830184614215565b92915050565b61424881613d58565b82525050565b6000602082019050614263600083018461423f565b92915050565b60006020828403121561427f5761427e613b97565b5b600061428d84828501613d79565b91505092915050565b61429f81613f4d565b82525050565b60006040820190506142ba6000830185614296565b6142c76020830184614296565b9392505050565b60006020820190506142e36000830184614296565b92915050565b6142f281613c83565b82525050565b600069ffffffffffffffffffff82169050919050565b614317816142f8565b82525050565b6000608082019050614332600083018761423f565b61433f60208301866142e9565b61434c604083018561430e565b614359606083018461430e565b95945050505050565b6000819050919050565b600061438761438261437d84613c63565b614362565b613c63565b9050919050565b60006143998261436c565b9050919050565b60006143ab8261438e565b9050919050565b6143bb816143a0565b82525050565b60006020820190506143d660008301846143b2565b92915050565b6000819050919050565b6143ef816143dc565b81146143fa57600080fd5b50565b60008135905061440c816143e6565b92915050565b6000806040838503121561442957614428613b97565b5b6000614437858286016143fd565b925050602061444885828601613d79565b9150509250929050565b600061ffff82169050919050565b61446981614452565b82525050565b60006020820190506144846000830184614460565b92915050565b60008115159050919050565b61449f8161448a565b82525050565b60006020820190506144ba6000830184614496565b92915050565b600080604083850312156144d7576144d6613b97565b5b600083013567ffffffffffffffff8111156144f5576144f4613b9c565b5b61450185828601613d2a565b925050602061451285828601613d79565b9150509250929050565b600060208201905061453160008301846142e9565b92915050565b600080fd5b600080fd5b600067ffffffffffffffff82111561455c5761455b613bb7565b5b602082029050602081019050919050565b61457681614452565b811461458157600080fd5b50565b6000813590506145938161456d565b92915050565b60006145ac6145a784614541565b613c17565b905080838252602082019050602084028301858111156145cf576145ce613c5e565b5b835b818110156145f857806145e48882614584565b8452602084019350506020810190506145d1565b5050509392505050565b600082601f83011261461757614616613ba1565b5b8135614627848260208601614599565b91505092915050565b6146398161448a565b811461464457600080fd5b50565b60008135905061465681614630565b92915050565b600060a0828403121561467257614671614537565b5b61467c60a0613c17565b9050600061468c848285016143fd565b60008301525060206146a084828501613cac565b60208301525060406146b484828501613cac565b604083015250606082013567ffffffffffffffff8111156146d8576146d761453c565b5b6146e484828501614602565b60608301525060806146f884828501614647565b60808301525092915050565b6000806040838503121561471b5761471a613b97565b5b600083013567ffffffffffffffff81111561473957614738613b9c565b5b6147458582860161465c565b925050602061475685828601613d79565b9150509250929050565b60008083601f84011261477657614775613ba1565b5b8235905067ffffffffffffffff81111561479357614792614106565b5b6020830191508360208202830111156147af576147ae613c5e565b5b9250929050565b6000806000604084860312156147cf576147ce613b97565b5b600084013567ffffffffffffffff8111156147ed576147ec613b9c565b5b6147f986828701614760565b9350935050602061480c86828701614647565b9150509250925092565b6000806040838503121561482d5761482c613b97565b5b600061483b85828601613cac565b925050602061484c85828601613d79565b9150509250929050565b60008060006040848603121561486f5761486e613b97565b5b600061487d86828701613cac565b935050602084013567ffffffffffffffff81111561489e5761489d613b9c565b5b6148aa86828701614760565b92509250509250925092565b6000602082840312156148cc576148cb613b97565b5b60006148da84828501613cac565b91505092915050565b600082825260208201905092915050565b7f496e697469616c697a61626c653a20636f6e747261637420697320616c72656160008201527f647920696e697469616c697a6564000000000000000000000000000000000000602082015250565b6000614950602e836148e3565b915061495b826148f4565b604082019050919050565b6000602082019050818103600083015261497f81614943565b9050919050565b7f4e487b7100000000000000000000000000000000000000000000000000000000600052603260045260246000fd5b7f4e487b7100000000000000000000000000000000000000000000000000000000600052601160045260246000fd5b60006149ef82613d58565b91506149fa83613d58565b9250817fffffffffffffffffffffffffffffffffffffffffffffffffffffffffffffffff0483118215151615614a3357614a326149b5565b5b828202905092915050565b7f43616e6e6f742073656e6420746f6b656e7320746f2056656e7565206469726560008201527f63746c7900000000000000000000000000000000000000000000000000000000602082015250565b6000614a9a6024836148e3565b9150614aa582614a3e565b604082019050919050565b60006020820190508181036000830152614ac981614a8d565b9050919050565b600081519050614adf81614630565b92915050565b600081519050614af481613f5a565b92915050565b6000806000806000806000806000806101408b8d031215614b1e57614b1d613b97565b5b6000614b2c8d828e01614ad0565b9a50506020614b3d8d828e01614ae5565b9950506040614b4e8d828e01614ae5565b9850506060614b5f8d828e01614ae5565b9750506080614b708d828e01614ae5565b96505060a0614b818d828e01614ae5565b95505060c0614b928d828e01614ae5565b94505060e0614ba38d828e01614ae5565b935050610100614bb58d828e01614ae5565b925050610120614bc78d828e01614ae5565b9150509295989b9194979a5092959850565b7f4f776e61626c653a2063616c6c6572206973206e6f7420746865206f776e6572600082015250565b6000614c0f6020836148e3565b9150614c1a82614bd9565b602082019050919050565b60006020820190508181036000830152614c3e81614c02565b9050919050565b7f5061757361626c653a2070617573656400000000000000000000000000000000600082015250565b6000614c7b6010836148e3565b9150614c8682614c45565b602082019050919050565b60006020820190508181036000830152614caa81614c6e565b9050919050565b7f4f6e6c7920436c61696d2063616e2066756c66696c6c00000000000000000000600082015250565b6000614ce76016836148e3565b9150614cf282614cb1565b602082019050919050565b60006020820190508181036000830152614d1681614cda565b9050919050565b7f436c61696d2072657175657374206e6f7420666f756e64000000000000000000600082015250565b6000614d536017836148e3565b9150614d5e82614d1d565b602082019050919050565b60006020820190508181036000830152614d8281614d46565b9050919050565b6000614d9482613d58565b9150614d9f83613d58565b9250827fffffffffffffffffffffffffffffffffffffffffffffffffffffffffffffffff03821115614dd457614dd36149b5565b5b828201905092915050565b6000614dea82613d58565b9150614df583613d58565b925082821015614e0857614e076149b5565b5b828203905092915050565b7f4e487b7100000000000000000000000000000000000000000000000000000000600052603160045260246000fd5b6000614e4d82613d58565b91507fffffffffffffffffffffffffffffffffffffffffffffffffffffffffffffffff821415614e8057614e7f6149b5565b5b600182019050919050565b600060208284031215614ea157614ea0613b97565b5b6000614eaf84828501614584565b91505092915050565b7f4e6f7420796f757220746f6b656e000000000000000000000000000000000000600082015250565b6000614eee600e836148e3565b9150614ef982614eb8565b602082019050919050565b60006020820190508181036000830152614f1d81614ee1565b9050919050565b7f43616e6e6f7420636c61696d206265666f726520454f42000000000000000000600082015250565b6000614f5a6017836148e3565b9150614f6582614f24565b602082019050919050565b60006020820190508181036000830152614f8981614f4d565b9050919050565b600082825260208201905092915050565b6000819050919050565b614fb481614452565b82525050565b6000614fc68383614fab565b60208301905092915050565b6000614fe16020840184614584565b905092915050565b6000602082019050919050565b60006150028385614f90565b935061500d82614fa1565b8060005b85811015615046576150238284614fd2565b61502d8882614fba565b975061503883614fe9565b925050600181019050615011565b5085925050509392505050565b600060608201905061506860008301876142e9565b818103602083015261507b818587614ff6565b905061508a6040830184614496565b95945050505050565b6000815190506150a2816143e6565b92915050565b6000602082840312156150be576150bd613b97565b5b60006150cc84828501615093565b91505092915050565b7f446f206e6f74206c6f736520796f757220746f6b656e73000000000000000000600082015250565b600061510b6017836148e3565b9150615116826150d5565b602082019050919050565b6000602082019050818103600083015261513a816150fe565b9050919050565b7f4b69746368656e20737061636520726571756972656400000000000000000000600082015250565b60006151776016836148e3565b915061518282615141565b602082019050919050565b600060208201905081810360008301526151a68161516a565b9050919050565b60006151c86151c36151be84614452565b614362565b613d58565b9050919050565b6151d8816151ad565b82525050565b60006020820190506151f360008301846151cf565b92915050565b60008151905061520881613c95565b92915050565b60006020828403121561522457615223613b97565b5b6000615232848285016151f9565b91505092915050565b600060608201905061525060008301866142e9565b61525d60208301856142e9565b61526a60408301846151cf565b949350505050565b7f4e6f7420656c696769626c650000000000000000000000000000000000000000600082015250565b60006152a8600c836148e3565b91506152b382615272565b602082019050919050565b600060208201905081810360008301526152d78161529b565b9050919050565b7f4f776e61626c653a206e6577206f776e657220697320746865207a65726f206160008201527f6464726573730000000000000000000000000000000000000000000000000000602082015250565b600061533a6026836148e3565b9150615345826152de565b604082019050919050565b600060208201905081810360008301526153698161532d565b9050919050565b7f496e697469616c697a61626c653a20636f6e7472616374206973206e6f74206960008201527f6e697469616c697a696e67000000000000000000000000000000000000000000602082015250565b60006153cc602b836148e3565b91506153d782615370565b604082019050919050565b600060208201905081810360008301526153fb816153bf565b9050919050565b7f5061757361626c653a206e6f7420706175736564000000000000000000000000600082015250565b60006154386014836148e3565b915061544382615402565b602082019050919050565b600060208201905081810360008301526154678161542b565b9050919050565b600082825260208201905092915050565b50565b600061548f60008361546e565b915061549a8261547f565b600082019050919050565b60006080820190506154ba60008301866142e9565b6154c760208301856142e9565b6154d4604083018461423f565b81810360608301526154e581615482565b9050949350505050565b60006154fa82613d58565b9150600082141561550e5761550d6149b5565b5b600182039050919050565b600081519050919050565b60005b83811015615542578082015181840152602081019050615527565b83811115615551576000848401525b50505050565b600061556282615519565b61556c81856148e3565b935061557c818560208601615524565b61558581613ba6565b840191505092915050565b600060e0820190506155a5600083018a61423f565b6155b2602083018961423f565b6155bf6040830188614496565b6155cc6060830187614296565b6155d96080830186614296565b81810360a08301526155eb8185615557565b90506155fa60c083018461423f565b98975050505050505050565b600060c08201905061561b600083018961423f565b615628602083018861423f565b6156356040830187614496565b6156426060830186614296565b61564f6080830185614296565b81810360a08301526156618184615557565b9050979650505050505050565b600060408201905061568360008301856142e9565b615690602083018461423f565b9392505050565b60006060820190506156ac600083018661423f565b6156b960208301856142e9565b6156c6604083018461423f565b949350505050565b7f4e487b7100000000000000000000000000000000000000000000000000000000600052601260045260246000fd5b600061570882613d58565b915061571383613d58565b925082615723576157226156ce565b5b828204905092915050565b6000608082019050615743600083018761423f565b61575060208301866140b2565b61575d60408301856140b2565b61576a606083018461423f565b95945050505050565b600080fd5b600067ffffffffffffffff82111561579357615792613bb7565b5b61579c82613ba6565b9050602081019050919050565b60006157bc6157b784615778565b613c17565b9050828152602081018484840111156157d8576157d7615773565b5b6157e3848285615524565b509392505050565b600082601f830112615800576157ff613ba1565b5b81516158108482602086016157a9565b91505092915050565b60008060006060848603121561583257615831613b97565b5b600061584086828701614ae5565b935050602061585186828701614ae5565b925050604084015167ffffffffffffffff81111561587257615871613b9c565b5b61587e868287016157eb565b9150509250925092565b600061589382613f86565b915061589e83613f86565b9250827f7fffffffffffffffffffffffffffffffffffffffffffffffffffffffffffffff04821160008413600084131616156158dd576158dc6149b5565b5b817f8000000000000000000000000000000000000000000000000000000000000000058312600084126000841316161561591a576159196149b5565b5b827f80000000000000000000000000000000000000000000000000000000000000000582126000841360008412161615615957576159566149b5565b5b827f7fffffffffffffffffffffffffffffffffffffffffffffffffffffffffffffff0582126000841260008412161615615994576159936149b5565b5b828202905092915050565b60006159aa82613f4d565b91506159b583613f4d565b9250828210156159c8576159c76149b5565b5b828203905092915050565b60006159de82613f86565b91506159e983613f86565b9250826159f9576159f86156ce565b5b600160000383147f800000000000000000000000000000000000000000000000000000000000000083141615615a3257615a316149b5565b5b828205905092915050565b6000615a4882613f86565b9150615a5383613f86565b9250817f7fffffffffffffffffffffffffffffffffffffffffffffffffffffffffffffff03831360008312151615615a8e57615a8d6149b5565b5b817f8000000000000000000000000000000000000000000000000000000000000000038312600083121615615ac657615ac56149b5565b5b82820190509291505056fea26469706673582212204652920f10f9b6d4e430f1e9a8b4e317836c2fe64d50dcf2ed56841f0bf5210f64736f6c634300080a0033",
  "immutableReferences": {},
  "source": "// SPDX-License-Identifier: MIT\n\npragma solidity ^0.8.0;\n\nimport \"./Kitchen.sol\";\nimport \"./FastFood.sol\";\n\ncontract McStake is Kitchen {\n  FastFood foodToken; // Reference to the $FFOOD contract\n\n  function initialize(\n    address[] memory _addresses, // character, claim, foodToken\n    uint256 _foodTokenMaxSupply,\n    uint256[] memory _earningSettings, // dailyChefEarnings, ratTheftPercentage, vestingPeriod, accrualPeriod\n    int8[] memory _propertyIncrements, // dailySkillRate, dailyInsanityRate, dailyIntelligenceRate, dailyFatnessRate\n    uint8 _chefEfficiencyMultiplier,\n    int256 _ratEfficiencyMultiplier,\n    int256 _ratEfficiencyOffset\n  ) external initializer {\n    __Ownable_init();\n    __Pausable_init();\n\n    unaccountedRewards = 0;\n    foodTokensPerRat = 0;\n    lastClaimTimestamp = 0;\n\n    character = Character(_addresses[0]);\n    claim = IClaim(_addresses[1]);\n    foodToken = FastFood(_addresses[2]);\n    foodTokenMaxSupply = _foodTokenMaxSupply * 1 ether;\n    dailyChefEarnings = _earningSettings[0] * 1 ether;\n    ratTheftPercentage = _earningSettings[1];\n    vestingPeriod = _earningSettings[2];\n    accrualPeriod = _earningSettings[3];\n    dailySkillRate = _propertyIncrements[0];\n    dailyInsanityRate = _propertyIncrements[1];\n    dailyIntelligenceRate = _propertyIncrements[2];\n    dailyFatnessRate = _propertyIncrements[3];\n    chefEfficiencyMultiplier = _chefEfficiencyMultiplier;\n    ratEfficiencyMultiplier = _ratEfficiencyMultiplier;\n    ratEfficiencyOffset = _ratEfficiencyOffset;\n  }\n\n  /**\n   * Mints the given amount of food tokens in the user's account\n   * @param sender - User wallet address\n   * @param amount - Amount of food tokens to mint\n   */\n  function _mintFoodToken(address sender, uint256 amount) internal override {\n    foodToken.mint(sender, amount);\n  }\n}\n",
  "sourcePath": "/Users/chris/workspace/ratalert/ratalert-contracts/contracts/McStake.sol",
  "compiler": {
    "name": "solc",
    "version": "0.8.10+commit.fc410830.Emscripten.clang"
  },
  "schemaVersion": "3.4.5",
  "updatedAt": "2022-03-13T08:25:23.984Z",
  "networkType": "ethereum",
  "devdoc": {
    "kind": "dev",
    "methods": {
      "claimMany(uint16[],bool)": {
        "params": {
          "tokenIds": "- The IDs of the tokens in question",
          "unstake": "- Whether or not to unstake the given tokens"
        }
      },
      "fulfillClaimMany((bytes32,address,address,uint16[],bool),uint256)": {
        "params": {
          "randomVal": "- List of random values created by VRF",
          "v": "- VRF struct for the corresponding request"
        }
      },
      "getProperties(uint256)": {
        "params": {
          "tokenId": "- The ID of the token to check"
        },
        "returns": {
          "efficiency": "& tolerance values"
        }
      },
      "isChef(uint256)": {
        "params": {
          "tokenId": "- The ID of the token to check"
        },
        "returns": {
          "chef": "- Whether or not the token is a Chef"
        }
      },
      "owner()": {
        "details": "Returns the address of the current owner."
      },
      "paused()": {
        "details": "Returns true if the contract is paused, and false otherwise."
      },
      "renounceOwnership()": {
        "details": "Leaves the contract without owner. It will not be possible to call `onlyOwner` functions anymore. Can only be called by the current owner. NOTE: Renouncing ownership will leave the contract without an owner, thereby removing any functionality that is only available to the owner."
      },
      "stakeMany(address,uint16[])": {
        "params": {
          "account": "- The address of the staker",
          "tokenIds": "- The IDs of the Chefs & Rats to stake"
        }
      },
      "transferOwnership(address)": {
        "details": "Transfers ownership of the contract to a new account (`newOwner`). Can only be called by the current owner."
      }
    },
    "version": 1
  },
  "userdoc": {
    "kind": "user",
    "methods": {
      "claimMany(uint16[],bool)": {
        "notice": "ChainLink VRF request: Claims food token earnings, level-ups and optionally unstake characters"
      },
      "fulfillClaimMany((bytes32,address,address,uint16[],bool),uint256)": {
        "notice": "ChainLink VRF callback for claimMany()"
      },
      "getProperties(uint256)": {
        "notice": "Get the character's properties"
      },
      "isChef(uint256)": {
        "notice": "Checks if the token is a Chef"
      },
      "stakeMany(address,uint16[])": {
        "notice": "Adds Chefs & Rats"
      }
    },
    "version": 1
  }
}