{
  "contractName": "McStake",
  "abi": [
    {
      "anonymous": false,
      "inputs": [
        {
          "indexed": false,
          "internalType": "uint256",
          "name": "tokenId",
          "type": "uint256"
        },
        {
          "indexed": false,
          "internalType": "uint256",
          "name": "earned",
          "type": "uint256"
        },
        {
          "indexed": false,
          "internalType": "bool",
          "name": "unstaked",
          "type": "bool"
        },
        {
          "indexed": false,
          "internalType": "uint8",
          "name": "skill",
          "type": "uint8"
        },
        {
          "indexed": false,
          "internalType": "uint8",
          "name": "freak",
          "type": "uint8"
        },
        {
          "indexed": false,
          "internalType": "string",
          "name": "eventName",
          "type": "string"
        },
        {
          "indexed": false,
          "internalType": "uint256",
          "name": "foodTokensPerRat",
          "type": "uint256"
        }
      ],
      "name": "ChefClaimed",
      "type": "event"
    },
    {
      "anonymous": false,
      "inputs": [
        {
          "indexed": true,
          "internalType": "address",
          "name": "previousOwner",
          "type": "address"
        },
        {
          "indexed": true,
          "internalType": "address",
          "name": "newOwner",
          "type": "address"
        }
      ],
      "name": "OwnershipTransferred",
      "type": "event"
    },
    {
      "anonymous": false,
      "inputs": [
        {
          "indexed": false,
          "internalType": "address",
          "name": "account",
          "type": "address"
        }
      ],
      "name": "Paused",
      "type": "event"
    },
    {
      "anonymous": false,
      "inputs": [
        {
          "indexed": false,
          "internalType": "uint256",
          "name": "tokenId",
          "type": "uint256"
        },
        {
          "indexed": false,
          "internalType": "uint256",
          "name": "earned",
          "type": "uint256"
        },
        {
          "indexed": false,
          "internalType": "bool",
          "name": "unstaked",
          "type": "bool"
        },
        {
          "indexed": false,
          "internalType": "uint8",
          "name": "intelligence",
          "type": "uint8"
        },
        {
          "indexed": false,
          "internalType": "uint8",
          "name": "bodyMass",
          "type": "uint8"
        },
        {
          "indexed": false,
          "internalType": "string",
          "name": "eventName",
          "type": "string"
        },
        {
          "indexed": false,
          "internalType": "uint256",
          "name": "foodTokensPerRat",
          "type": "uint256"
        }
      ],
      "name": "RatClaimed",
      "type": "event"
    },
    {
      "anonymous": false,
      "inputs": [
        {
          "indexed": false,
          "internalType": "uint256",
          "name": "tokenId",
          "type": "uint256"
        },
        {
          "indexed": false,
          "internalType": "address",
          "name": "owner",
          "type": "address"
        },
        {
          "indexed": false,
          "internalType": "uint256",
          "name": "value",
          "type": "uint256"
        }
      ],
      "name": "TokenStaked",
      "type": "event"
    },
    {
      "anonymous": false,
      "inputs": [
        {
          "indexed": false,
          "internalType": "address",
          "name": "account",
          "type": "address"
        }
      ],
      "name": "Unpaused",
      "type": "event"
    },
    {
      "inputs": [
        {
          "internalType": "uint256",
          "name": "",
          "type": "uint256"
        }
      ],
      "name": "chefs",
      "outputs": [
        {
          "internalType": "uint256",
          "name": "tokenId",
          "type": "uint256"
        },
        {
          "internalType": "address",
          "name": "owner",
          "type": "address"
        },
        {
          "internalType": "uint80",
          "name": "value",
          "type": "uint80"
        },
        {
          "internalType": "uint80",
          "name": "timestamp",
          "type": "uint80"
        }
      ],
      "stateMutability": "view",
      "type": "function",
      "constant": true
    },
    {
      "inputs": [
        {
          "internalType": "uint16[]",
          "name": "tokenIds",
          "type": "uint16[]"
        },
        {
          "internalType": "bool",
          "name": "unstake",
          "type": "bool"
        }
      ],
      "name": "claimMany",
      "outputs": [],
      "stateMutability": "payable",
      "type": "function",
      "payable": true
    },
    {
      "inputs": [],
      "name": "foodTokensPerRat",
      "outputs": [
        {
          "internalType": "uint256",
          "name": "",
          "type": "uint256"
        }
      ],
      "stateMutability": "view",
      "type": "function",
      "constant": true
    },
    {
      "inputs": [
        {
          "components": [
            {
              "internalType": "bytes32",
              "name": "requestId",
              "type": "bytes32"
            },
            {
              "internalType": "address",
              "name": "venue",
              "type": "address"
            },
            {
              "internalType": "address",
              "name": "sender",
              "type": "address"
            },
            {
              "internalType": "uint16[]",
              "name": "tokenIds",
              "type": "uint16[]"
            },
            {
              "internalType": "bool",
              "name": "unstake",
              "type": "bool"
            }
          ],
          "internalType": "struct IClaim.VRFStruct",
          "name": "v",
          "type": "tuple"
        },
        {
          "internalType": "uint256",
          "name": "randomness",
          "type": "uint256"
        }
      ],
      "name": "fulfillClaimMany",
      "outputs": [],
      "stateMutability": "nonpayable",
      "type": "function"
    },
    {
      "inputs": [
        {
          "internalType": "address",
          "name": "account",
          "type": "address"
        }
      ],
      "name": "getChefsStaked",
      "outputs": [
        {
          "internalType": "uint256",
          "name": "",
          "type": "uint256"
        }
      ],
      "stateMutability": "view",
      "type": "function",
      "constant": true
    },
    {
      "inputs": [],
      "name": "lastClaimTimestamp",
      "outputs": [
        {
          "internalType": "uint256",
          "name": "",
          "type": "uint256"
        }
      ],
      "stateMutability": "view",
      "type": "function",
      "constant": true
    },
    {
      "inputs": [
        {
          "internalType": "address",
          "name": "",
          "type": "address"
        },
        {
          "internalType": "address",
          "name": "from",
          "type": "address"
        },
        {
          "internalType": "uint256",
          "name": "",
          "type": "uint256"
        },
        {
          "internalType": "bytes",
          "name": "",
          "type": "bytes"
        }
      ],
      "name": "onERC721Received",
      "outputs": [
        {
          "internalType": "bytes4",
          "name": "",
          "type": "bytes4"
        }
      ],
      "stateMutability": "pure",
      "type": "function",
      "constant": true
    },
    {
      "inputs": [],
      "name": "owner",
      "outputs": [
        {
          "internalType": "address",
          "name": "",
          "type": "address"
        }
      ],
      "stateMutability": "view",
      "type": "function",
      "constant": true
    },
    {
      "inputs": [],
      "name": "pause",
      "outputs": [],
      "stateMutability": "nonpayable",
      "type": "function"
    },
    {
      "inputs": [],
      "name": "paused",
      "outputs": [
        {
          "internalType": "bool",
          "name": "",
          "type": "bool"
        }
      ],
      "stateMutability": "view",
      "type": "function",
      "constant": true
    },
    {
      "inputs": [
        {
          "internalType": "uint256",
          "name": "",
          "type": "uint256"
        }
      ],
      "name": "rats",
      "outputs": [
        {
          "internalType": "uint256",
          "name": "tokenId",
          "type": "uint256"
        },
        {
          "internalType": "address",
          "name": "owner",
          "type": "address"
        },
        {
          "internalType": "uint80",
          "name": "value",
          "type": "uint80"
        },
        {
          "internalType": "uint80",
          "name": "timestamp",
          "type": "uint80"
        }
      ],
      "stateMutability": "view",
      "type": "function",
      "constant": true
    },
    {
      "inputs": [],
      "name": "renounceOwnership",
      "outputs": [],
      "stateMutability": "nonpayable",
      "type": "function"
    },
    {
      "inputs": [
        {
          "internalType": "address",
          "name": "_dao",
          "type": "address"
        }
      ],
      "name": "setDao",
      "outputs": [],
      "stateMutability": "nonpayable",
      "type": "function"
    },
    {
      "inputs": [
        {
          "internalType": "address",
          "name": "account",
          "type": "address"
        },
        {
          "internalType": "uint16[]",
          "name": "tokenIds",
          "type": "uint16[]"
        }
      ],
      "name": "stakeMany",
      "outputs": [],
      "stateMutability": "nonpayable",
      "type": "function"
    },
    {
      "inputs": [
        {
          "internalType": "address",
          "name": "",
          "type": "address"
        },
        {
          "internalType": "uint256",
          "name": "",
          "type": "uint256"
        }
      ],
      "name": "stakers",
      "outputs": [
        {
          "internalType": "uint256",
          "name": "",
          "type": "uint256"
        }
      ],
      "stateMutability": "view",
      "type": "function",
      "constant": true
    },
    {
      "inputs": [],
      "name": "totalChefsStaked",
      "outputs": [
        {
          "internalType": "uint256",
          "name": "",
          "type": "uint256"
        }
      ],
      "stateMutability": "view",
      "type": "function",
      "constant": true
    },
    {
      "inputs": [],
      "name": "totalFoodTokensEarned",
      "outputs": [
        {
          "internalType": "uint256",
          "name": "",
          "type": "uint256"
        }
      ],
      "stateMutability": "view",
      "type": "function",
      "constant": true
    },
    {
      "inputs": [],
      "name": "totalRatsStaked",
      "outputs": [
        {
          "internalType": "uint256",
          "name": "",
          "type": "uint256"
        }
      ],
      "stateMutability": "view",
      "type": "function",
      "constant": true
    },
    {
      "inputs": [
        {
          "internalType": "address",
          "name": "newOwner",
          "type": "address"
        }
      ],
      "name": "transferOwnership",
      "outputs": [],
      "stateMutability": "nonpayable",
      "type": "function"
    },
    {
      "inputs": [],
      "name": "unaccountedRewards",
      "outputs": [
        {
          "internalType": "uint256",
          "name": "",
          "type": "uint256"
        }
      ],
      "stateMutability": "view",
      "type": "function",
      "constant": true
    },
    {
      "inputs": [],
      "name": "unpause",
      "outputs": [],
      "stateMutability": "nonpayable",
      "type": "function"
    },
    {
      "inputs": [],
      "name": "withdrawPayments",
      "outputs": [],
      "stateMutability": "nonpayable",
      "type": "function"
    },
    {
      "inputs": [
        {
          "internalType": "address",
          "name": "_character",
          "type": "address"
        },
        {
          "internalType": "address",
          "name": "_claim",
          "type": "address"
        },
        {
          "internalType": "uint256",
          "name": "_accrualPeriod",
          "type": "uint256"
        }
      ],
      "name": "initialize",
      "outputs": [],
      "stateMutability": "nonpayable",
      "type": "function"
    },
    {
      "inputs": [],
      "name": "initialize",
      "outputs": [],
      "stateMutability": "nonpayable",
      "type": "function"
    },
    {
      "inputs": [
        {
          "internalType": "address",
          "name": "_character",
          "type": "address"
        },
        {
          "internalType": "address",
          "name": "_claim",
          "type": "address"
        },
        {
          "internalType": "address",
          "name": "_foodToken",
          "type": "address"
        }
      ],
      "name": "initialize",
      "outputs": [],
      "stateMutability": "nonpayable",
      "type": "function"
    },
    {
      "inputs": [
        {
          "internalType": "uint256",
          "name": "_foodTokenMaxSupply",
          "type": "uint256"
        },
        {
          "internalType": "uint256[]",
          "name": "_earningSettings",
          "type": "uint256[]"
        },
        {
          "internalType": "int8[]",
          "name": "_propertyIncrements",
          "type": "int8[]"
        },
        {
          "internalType": "uint8",
          "name": "_chefEfficiencyMultiplier",
          "type": "uint8"
        },
        {
          "internalType": "int256",
          "name": "_ratEfficiencyMultiplier",
          "type": "int256"
        },
        {
          "internalType": "int256",
          "name": "_ratEfficiencyOffset",
          "type": "int256"
        },
        {
          "internalType": "uint8",
          "name": "_maxClaimsPerTx",
          "type": "uint8"
        },
        {
          "internalType": "uint256",
          "name": "_claimFee",
          "type": "uint256"
        }
      ],
      "name": "configure",
      "outputs": [],
      "stateMutability": "nonpayable",
      "type": "function"
    }
  ],
  "bytecode": "0x608060405234801561001057600080fd5b50615bde80620000216000396000f3fe6080604052600436106101815760003560e01c8063715018a6116100d1578063c0c472c01161008a578063d8dda92e11610064578063d8dda92e1461051b578063dbdc1f6b14610546578063f26667461461056f578063f2fde38b1461059a57610181565b8063c0c472c01461048a578063c0c53b8b146104b5578063c8b6cbf7146104de57610181565b8063715018a6146103d55780638129fc1c146103ec5780638456cb59146104035780638da5cb5b1461041a578063922a180214610445578063a7a102901461046e57610181565b8063499f80101161013e5780635c975abb116101185780635c975abb1461033f578063607af3971461036a5780636103d70b146103955780636637b882146103ac57610181565b8063499f8010146102975780634c4913ec146102c25780634d1c61af146102ff57610181565b8063150b7a02146101865780631794bb3c146101c35780632535a77f146101ec5780632d4954fc1461021757806335ec066e146102405780633f4ba83a14610280575b600080fd5b34801561019257600080fd5b506101ad60048036038101906101a89190613e26565b6105c3565b6040516101ba9190613ee9565b60405180910390f35b3480156101cf57600080fd5b506101ea60048036038101906101e59190613f04565b610646565b005b3480156101f857600080fd5b50610201610842565b60405161020e9190613f66565b60405180910390f35b34801561022357600080fd5b5061023e6004803603810190610239919061423b565b610848565b005b34801561024c57600080fd5b5061026760048036038101906102629190614329565b610a8c565b604051610277949392919061438a565b60405180910390f35b34801561028c57600080fd5b50610295610b08565b005b3480156102a357600080fd5b506102ac610b1a565b6040516102b99190613f66565b60405180910390f35b3480156102ce57600080fd5b506102e960048036038101906102e491906143cf565b610b20565b6040516102f69190613f66565b60405180910390f35b34801561030b57600080fd5b5061032660048036038101906103219190614329565b610b6c565b604051610336949392919061438a565b60405180910390f35b34801561034b57600080fd5b50610354610be8565b6040516103619190614417565b60405180910390f35b34801561037657600080fd5b5061037f610bff565b60405161038c9190613f66565b60405180910390f35b3480156103a157600080fd5b506103aa610c05565b005b3480156103b857600080fd5b506103d360048036038101906103ce91906143cf565b610c78565b005b3480156103e157600080fd5b506103ea610d38565b005b3480156103f857600080fd5b50610401610dc0565b005b34801561040f57600080fd5b50610418610eb4565b005b34801561042657600080fd5b5061042f610ec6565b60405161043c9190614432565b60405180910390f35b34801561045157600080fd5b5061046c6004803603810190610467919061465e565b610ef0565b005b61048860048036038101906104839190614710565b6114d7565b005b34801561049657600080fd5b5061049f61199d565b6040516104ac9190613f66565b60405180910390f35b3480156104c157600080fd5b506104dc60048036038101906104d79190614770565b6119a3565b005b3480156104ea57600080fd5b50610505600480360381019061050091906147c3565b611b75565b6040516105129190613f66565b60405180910390f35b34801561052757600080fd5b50610530611ba6565b60405161053d9190613f66565b60405180910390f35b34801561055257600080fd5b5061056d60048036038101906105689190614803565b611bac565b005b34801561057b57600080fd5b5061058461222b565b6040516105919190613f66565b60405180910390f35b3480156105a657600080fd5b506105c160048036038101906105bc91906143cf565b612231565b005b60008073ffffffffffffffffffffffffffffffffffffffff168573ffffffffffffffffffffffffffffffffffffffff1614610633576040517f08c379a000000000000000000000000000000000000000000000000000000000815260040161062a906148e6565b60405180910390fd5b63150b7a0260e01b905095945050505050565b600060019054906101000a900460ff1661066e5760008054906101000a900460ff1615610677565b610676612329565b5b6106b6576040517f08c379a00000000000000000000000000000000000000000000000000000000081526004016106ad90614978565b60405180910390fd5b60008060019054906101000a900460ff161590508015610706576001600060016101000a81548160ff02191690831515021790555060016000806101000a81548160ff0219169083151502179055505b61070e61233a565b610716612393565b83609860006101000a81548173ffffffffffffffffffffffffffffffffffffffff021916908373ffffffffffffffffffffffffffffffffffffffff16021790555082609960006101000a81548173ffffffffffffffffffffffffffffffffffffffff021916908373ffffffffffffffffffffffffffffffffffffffff1602179055508160a2819055506000609e60006101000a81548160ff021916908360000b60ff1602179055506000609e60016101000a81548160ff021916908360000b60ff1602179055506000609e60026101000a81548160ff021916908360000b60ff1602179055506000609e60036101000a81548160ff021916908360000b60ff160217905550801561083c5760008060016101000a81548160ff0219169083151502179055505b50505050565b60a35481565b6108506123ec565b73ffffffffffffffffffffffffffffffffffffffff1661086e610ec6565b73ffffffffffffffffffffffffffffffffffffffff16146108c4576040517f08c379a00000000000000000000000000000000000000000000000000000000081526004016108bb906149e4565b60405180910390fd5b8760a681905550866000815181106108df576108de614a04565b5b602002602001015160a7819055508660018151811061090157610900614a04565b5b602002602001015160a8819055508660028151811061092357610922614a04565b5b602002602001015160a1819055508660038151811061094557610944614a04565b5b602002602001015160a2819055508560008151811061096757610966614a04565b5b6020026020010151609e60006101000a81548160ff021916908360000b60ff160217905550856001815181106109a05761099f614a04565b5b6020026020010151609e60016101000a81548160ff021916908360000b60ff160217905550856002815181106109d9576109d8614a04565b5b6020026020010151609e60026101000a81548160ff021916908360000b60ff16021790555085600381518110610a1257610a11614a04565b5b6020026020010151609e60036101000a81548160ff021916908360000b60ff1602179055508460ac60006101000a81548160ff021916908360ff1602179055508360ad819055508260ae819055508160a460006101000a81548160ff021916908360ff1602179055508060a5819055505050505050505050565b609b6020528060005260406000206000915090508060000154908060010160009054906101000a900473ffffffffffffffffffffffffffffffffffffffff16908060010160149054906101000a900469ffffffffffffffffffff16908060020160009054906101000a900469ffffffffffffffffffff16905084565b610b106123f4565b610b18612486565b565b60a05481565b6000609c60008373ffffffffffffffffffffffffffffffffffffffff1673ffffffffffffffffffffffffffffffffffffffff168152602001908152602001600020805490509050919050565b609a6020528060005260406000206000915090508060000154908060010160009054906101000a900473ffffffffffffffffffffffffffffffffffffffff16908060010160149054906101000a900469ffffffffffffffffffff16908060020160009054906101000a900469ffffffffffffffffffff16905084565b6000603360009054906101000a900460ff16905090565b60ab5481565b610c0d6123f4565b609760009054906101000a900473ffffffffffffffffffffffffffffffffffffffff1673ffffffffffffffffffffffffffffffffffffffff166108fc479081150290604051600060405180830381858888f19350505050158015610c75573d6000803e3d6000fd5b50565b610c806123ec565b73ffffffffffffffffffffffffffffffffffffffff16610c9e610ec6565b73ffffffffffffffffffffffffffffffffffffffff1614610cf4576040517f08c379a0000000000000000000000000000000000000000000000000000000008152600401610ceb906149e4565b60405180910390fd5b80609760006101000a81548173ffffffffffffffffffffffffffffffffffffffff021916908373ffffffffffffffffffffffffffffffffffffffff16021790555050565b610d406123ec565b73ffffffffffffffffffffffffffffffffffffffff16610d5e610ec6565b73ffffffffffffffffffffffffffffffffffffffff1614610db4576040517f08c379a0000000000000000000000000000000000000000000000000000000008152600401610dab906149e4565b60405180910390fd5b610dbe6000612528565b565b600060019054906101000a900460ff16610de85760008054906101000a900460ff1615610df1565b610df0612329565b5b610e30576040517f08c379a0000000000000000000000000000000000000000000000000000000008152600401610e2790614978565b60405180910390fd5b60008060019054906101000a900460ff161590508015610e80576001600060016101000a81548160ff02191690831515021790555060016000806101000a81548160ff0219169083151502179055505b610e8861233a565b610e90612393565b8015610eb15760008060016101000a81548160ff0219169083151502179055505b50565b610ebc6123f4565b610ec46125ee565b565b6000606560009054906101000a900473ffffffffffffffffffffffffffffffffffffffff16905090565b610ef8610be8565b15610f38576040517f08c379a0000000000000000000000000000000000000000000000000000000008152600401610f2f90614a7f565b60405180910390fd5b609960009054906101000a900473ffffffffffffffffffffffffffffffffffffffff1673ffffffffffffffffffffffffffffffffffffffff163373ffffffffffffffffffffffffffffffffffffffff1614610fc8576040517f08c379a0000000000000000000000000000000000000000000000000000000008152600401610fbf90614aeb565b60405180910390fd5b6000609d6000846000015181526020019081526020016000208054905011611025576040517f08c379a000000000000000000000000000000000000000000000000000000000815260040161101c90614b57565b60405180910390fd5b6000609d6000846000015181526020019081526020016000208054806020026020016040519081016040528092919081815260200182805480156110b057602002820191906000526020600020906000905b82829054906101000a900461ffff1661ffff16815260200190600201906020826001010492830192600103820291508084116110775790505b50505050509050609d60008460000151815260200190815260200160002060006110da9190613c26565b6000805b82518110156114b857600084826040516020016110fc929190614b77565b6040516020818303038152906040528051906020012060001c905061113e84838151811061112d5761112c614a04565b5b602002602001015161ffff16612691565b156114625760005b609c6000886040015173ffffffffffffffffffffffffffffffffffffffff1673ffffffffffffffffffffffffffffffffffffffff168152602001908152602001600020805490508110156113ab578483815181106111a7576111a6614a04565b5b602002602001015161ffff16609c6000896040015173ffffffffffffffffffffffffffffffffffffffff1673ffffffffffffffffffffffffffffffffffffffff168152602001908152602001600020828154811061120857611207614a04565b5b9060005260206000200154141561139857609c6000886040015173ffffffffffffffffffffffffffffffffffffffff1673ffffffffffffffffffffffffffffffffffffffff1681526020019081526020016000206001609c60008a6040015173ffffffffffffffffffffffffffffffffffffffff1673ffffffffffffffffffffffffffffffffffffffff168152602001908152602001600020805490506112af9190614bcf565b815481106112c0576112bf614a04565b5b9060005260206000200154609c6000896040015173ffffffffffffffffffffffffffffffffffffffff1673ffffffffffffffffffffffffffffffffffffffff16815260200190815260200160002082815481106113205761131f614a04565b5b9060005260206000200181905550609c6000886040015173ffffffffffffffffffffffffffffffffffffffff1673ffffffffffffffffffffffffffffffffffffffff16815260200190815260200160002080548061138157611380614c03565b5b600190038181906000526020600020016000905590555b80806113a390614c32565b915050611146565b5060006114028760400151609c60008a6040015173ffffffffffffffffffffffffffffffffffffffff1673ffffffffffffffffffffffffffffffffffffffff16815260200190815260200160002080549050612770565b9050600281141561141b5761141a876040015161277c565b5b61144f85848151811061143157611430614a04565b5b602002602001015161ffff168860400151896080015160008661277f565b8461145a9190614c7b565b9350506114a4565b61149684838151811061147857611477614a04565b5b602002602001015161ffff1687604001518860800151600085612bc9565b836114a19190614c7b565b92505b5080806114b090614c32565b9150506110de565b5060008111156114d1576114d0846040015182613015565b5b50505050565b6114df610be8565b1561151f576040517f08c379a000000000000000000000000000000000000000000000000000000000815260040161151690614a7f565b60405180910390fd5b6115276123ec565b73ffffffffffffffffffffffffffffffffffffffff163273ffffffffffffffffffffffffffffffffffffffff1614611594576040517f08c379a000000000000000000000000000000000000000000000000000000000815260040161158b90614d1d565b60405180910390fd5b60a460009054906101000a900460ff1660ff168383905011156115ec576040517f08c379a00000000000000000000000000000000000000000000000000000000081526004016115e390614d89565b60405180910390fd5b60a5543414611630576040517f08c379a000000000000000000000000000000000000000000000000000000000815260040161162790614df5565b60405180910390fd5b60005b838390508110156118c457600061167485858481811061165657611655614a04565b5b905060200201602081019061166b9190614e15565b61ffff16612691565b6116bb57609b600086868581811061168f5761168e614a04565b5b90506020020160208101906116a49190614e15565b61ffff1681526020019081526020016000206116fa565b609a60008686858181106116d2576116d1614a04565b5b90506020020160208101906116e79190614e15565b61ffff1681526020019081526020016000205b604051806080016040529081600082015481526020016001820160009054906101000a900473ffffffffffffffffffffffffffffffffffffffff1673ffffffffffffffffffffffffffffffffffffffff1673ffffffffffffffffffffffffffffffffffffffff1681526020016001820160149054906101000a900469ffffffffffffffffffff1669ffffffffffffffffffff1669ffffffffffffffffffff1681526020016002820160009054906101000a900469ffffffffffffffffffff1669ffffffffffffffffffff1669ffffffffffffffffffff168152505090506117df6123ec565b73ffffffffffffffffffffffffffffffffffffffff16816020015173ffffffffffffffffffffffffffffffffffffffff1614611850576040517f08c379a000000000000000000000000000000000000000000000000000000000815260040161184790614e8e565b60405180910390fd5b60a154816060015169ffffffffffffffffffff164261186f9190614bcf565b10156118b0576040517f08c379a00000000000000000000000000000000000000000000000000000000081526004016118a790614efa565b60405180910390fd5b5080806118bc90614c32565b915050611633565b506000609960009054906101000a900473ffffffffffffffffffffffffffffffffffffffff1673ffffffffffffffffffffffffffffffffffffffff16635bdf263c61190d6123ec565b8686866040518563ffffffff1660e01b815260040161192f9493929190614fdd565b6020604051808303816000875af115801561194e573d6000803e3d6000fd5b505050506040513d601f19601f820116820180604052508101906119729190615032565b90508383609d60008481526020019081526020016000209190611996929190613c4e565b5050505050565b60a95481565b600060019054906101000a900460ff166119cb5760008054906101000a900460ff16156119d4565b6119d3612329565b5b611a13576040517f08c379a0000000000000000000000000000000000000000000000000000000008152600401611a0a90614978565b60405180910390fd5b60008060019054906101000a900460ff161590508015611a63576001600060016101000a81548160ff02191690831515021790555060016000806101000a81548160ff0219169083151502179055505b611a6b61233a565b611a73612393565b600060a981905550600060a381905550600060ab8190555083609860006101000a81548173ffffffffffffffffffffffffffffffffffffffff021916908373ffffffffffffffffffffffffffffffffffffffff16021790555082609960006101000a81548173ffffffffffffffffffffffffffffffffffffffff021916908373ffffffffffffffffffffffffffffffffffffffff1602179055508160af60006101000a81548173ffffffffffffffffffffffffffffffffffffffff021916908373ffffffffffffffffffffffffffffffffffffffff1602179055508015611b6f5760008060016101000a81548160ff0219169083151502179055505b50505050565b609c6020528160005260406000208181548110611b9157600080fd5b90600052602060002001600091509150505481565b60aa5481565b611bb46123ec565b73ffffffffffffffffffffffffffffffffffffffff163273ffffffffffffffffffffffffffffffffffffffff16148015611c205750611bf16123ec565b73ffffffffffffffffffffffffffffffffffffffff168373ffffffffffffffffffffffffffffffffffffffff16145b80611c7f5750609860009054906101000a900473ffffffffffffffffffffffffffffffffffffffff1673ffffffffffffffffffffffffffffffffffffffff16611c676123ec565b73ffffffffffffffffffffffffffffffffffffffff16145b611cbe576040517f08c379a0000000000000000000000000000000000000000000000000000000008152600401611cb590614d1d565b60405180910390fd5b60005b82829050811015612225576000838383818110611ce157611ce0614a04565b5b9050602002016020810190611cf69190614e15565b61ffff161415611d0557612212565b609860009054906101000a900473ffffffffffffffffffffffffffffffffffffffff1673ffffffffffffffffffffffffffffffffffffffff16611d466123ec565b73ffffffffffffffffffffffffffffffffffffffff1614611e9957611d696123ec565b73ffffffffffffffffffffffffffffffffffffffff16609860009054906101000a900473ffffffffffffffffffffffffffffffffffffffff1673ffffffffffffffffffffffffffffffffffffffff16636352211e858585818110611dd057611dcf614a04565b5b9050602002016020810190611de59190614e15565b6040518263ffffffff1660e01b8152600401611e01919061509a565b602060405180830381865afa158015611e1e573d6000803e3d6000fd5b505050506040513d601f19601f82011682018060405250810190611e4291906150ca565b73ffffffffffffffffffffffffffffffffffffffff1614611e98576040517f08c379a0000000000000000000000000000000000000000000000000000000008152600401611e8f90614e8e565b60405180910390fd5b5b611ecd838383818110611eaf57611eae614a04565b5b9050602002016020810190611ec49190614e15565b61ffff166130a8565b611f0c576040517f08c379a0000000000000000000000000000000000000000000000000000000008152600401611f0390615143565b60405180910390fd5b611f40838383818110611f2257611f21614a04565b5b9050602002016020810190611f379190614e15565b61ffff16612691565b156120bf57609c60008573ffffffffffffffffffffffffffffffffffffffff1673ffffffffffffffffffffffffffffffffffffffff168152602001908152602001600020838383818110611f9757611f96614a04565b5b9050602002016020810190611fac9190614e15565b908060018154018082558091505060019003906000526020600020016000909161ffff16909190915055600061202b611fe36123ec565b609c60008873ffffffffffffffffffffffffffffffffffffffff1673ffffffffffffffffffffffffffffffffffffffff16815260200190815260200160002080549050612770565b90506000811215612071576040517f08c379a0000000000000000000000000000000000000000000000000000000008152600401612068906151af565b60405180910390fd5b600081141561208457612083856130b3565b5b6120b98585858581811061209b5761209a614a04565b5b90506020020160208101906120b09190614e15565b61ffff166130b6565b506120f5565b6120f4848484848181106120d6576120d5614a04565b5b90506020020160208101906120eb9190614e15565b61ffff16613275565b5b609860009054906101000a900473ffffffffffffffffffffffffffffffffffffffff1673ffffffffffffffffffffffffffffffffffffffff166121366123ec565b73ffffffffffffffffffffffffffffffffffffffff161461221157609860009054906101000a900473ffffffffffffffffffffffffffffffffffffffff1673ffffffffffffffffffffffffffffffffffffffff166323b872dd6121976123ec565b308686868181106121ab576121aa614a04565b5b90506020020160208101906121c09190614e15565b6040518463ffffffff1660e01b81526004016121de939291906151cf565b600060405180830381600087803b1580156121f857600080fd5b505af115801561220c573d6000803e3d6000fd5b505050505b5b808061221d90614c32565b915050611cc1565b50505050565b609f5481565b6122396123ec565b73ffffffffffffffffffffffffffffffffffffffff16612257610ec6565b73ffffffffffffffffffffffffffffffffffffffff16146122ad576040517f08c379a00000000000000000000000000000000000000000000000000000000081526004016122a4906149e4565b60405180910390fd5b600073ffffffffffffffffffffffffffffffffffffffff168173ffffffffffffffffffffffffffffffffffffffff16141561231d576040517f08c379a000000000000000000000000000000000000000000000000000000000815260040161231490615278565b60405180910390fd5b61232681612528565b50565b600061233430613438565b15905090565b600060019054906101000a900460ff16612389576040517f08c379a00000000000000000000000000000000000000000000000000000000081526004016123809061530a565b60405180910390fd5b61239161345b565b565b600060019054906101000a900460ff166123e2576040517f08c379a00000000000000000000000000000000000000000000000000000000081526004016123d99061530a565b60405180910390fd5b6123ea6134bc565b565b600033905090565b609760009054906101000a900473ffffffffffffffffffffffffffffffffffffffff1673ffffffffffffffffffffffffffffffffffffffff163373ffffffffffffffffffffffffffffffffffffffff1614612484576040517f08c379a000000000000000000000000000000000000000000000000000000000815260040161247b90615376565b60405180910390fd5b565b61248e610be8565b6124cd576040517f08c379a00000000000000000000000000000000000000000000000000000000081526004016124c4906153e2565b60405180910390fd5b6000603360006101000a81548160ff0219169083151502179055507f5db9ee0a495bf2e6ff9c91a7834c1ba4fdd244a5e8aa4e537bd38aeae4b073aa6125116123ec565b60405161251e9190614432565b60405180910390a1565b6000606560009054906101000a900473ffffffffffffffffffffffffffffffffffffffff16905081606560006101000a81548173ffffffffffffffffffffffffffffffffffffffff021916908373ffffffffffffffffffffffffffffffffffffffff1602179055508173ffffffffffffffffffffffffffffffffffffffff168173ffffffffffffffffffffffffffffffffffffffff167f8be0079c531659141344cd1fd0a4f28419497f9722a3daafe3b4186f6b6457e060405160405180910390a35050565b6125f6610be8565b15612636576040517f08c379a000000000000000000000000000000000000000000000000000000000815260040161262d90614a7f565b60405180910390fd5b6001603360006101000a81548160ff0219169083151502179055507f62e78cea01bee320cd4e420270b5ea74000d11b0c9f74754ebdbfc544b05a25861267a6123ec565b6040516126879190614432565b60405180910390a1565b6000609860009054906101000a900473ffffffffffffffffffffffffffffffffffffffff1673ffffffffffffffffffffffffffffffffffffffff1663e05c57bf836040518263ffffffff1660e01b81526004016126ee9190613f66565b61016060405180830381865afa15801561270c573d6000803e3d6000fd5b505050506040513d601f19601f820116820180604052508101906127309190615441565b9091929394959697985090919293949596975090919293949596509091929394955090919293945090919293509091925090915090505080915050919050565b60006002905092915050565b50565b600080609a6000888152602001908152602001600020604051806080016040529081600082015481526020016001820160009054906101000a900473ffffffffffffffffffffffffffffffffffffffff1673ffffffffffffffffffffffffffffffffffffffff1673ffffffffffffffffffffffffffffffffffffffff1681526020016001820160149054906101000a900469ffffffffffffffffffff1669ffffffffffffffffffff1669ffffffffffffffffffff1681526020016002820160009054906101000a900469ffffffffffffffffffff1669ffffffffffffffffffff1669ffffffffffffffffffff168152505090508573ffffffffffffffffffffffffffffffffffffffff16816020015173ffffffffffffffffffffffffffffffffffffffff16146128e4576040517f08c379a00000000000000000000000000000000000000000000000000000000081526004016128db90614e8e565b60405180910390fd5b836128f7576128f281613528565b6128fa565b60005b9150600080600061290b8a8761368c565b92509250925061291a8a6130a8565b61292357600197505b8715612a5657609a60008b81526020019081526020016000206000808201600090556001820160006101000a81549073ffffffffffffffffffffffffffffffffffffffff02191690556001820160146101000a81549069ffffffffffffffffffff02191690556002820160006101000a81549069ffffffffffffffffffff02191690555050609f60008154809291906129bb90615535565b9190505550609860009054906101000a900473ffffffffffffffffffffffffffffffffffffffff1673ffffffffffffffffffffffffffffffffffffffff1663b88d4fde308b8d6040518463ffffffff1660e01b8152600401612a1f93929190615596565b600060405180830381600087803b158015612a3957600080fd5b505af1158015612a4d573d6000803e3d6000fd5b50505050612b77565b60405180608001604052808b61ffff1681526020018a73ffffffffffffffffffffffffffffffffffffffff1681526020014269ffffffffffffffffffff1681526020014269ffffffffffffffffffff16815250609a60008c81526020019081526020016000206000820151816000015560208201518160010160006101000a81548173ffffffffffffffffffffffffffffffffffffffff021916908373ffffffffffffffffffffffffffffffffffffffff16021790555060408201518160010160146101000a81548169ffffffffffffffffffff021916908369ffffffffffffffffffff16021790555060608201518160020160006101000a81548169ffffffffffffffffffff021916908369ffffffffffffffffffff1602179055509050505b7f9b394c66bc4fdb2f56f5842a796076e6552d6f15eaacb6e63e3c53b474d872e98a868a86868660a354604051612bb49796959493929190615666565b60405180910390a15050505095945050505050565b600080609b6000888152602001908152602001600020604051806080016040529081600082015481526020016001820160009054906101000a900473ffffffffffffffffffffffffffffffffffffffff1673ffffffffffffffffffffffffffffffffffffffff1673ffffffffffffffffffffffffffffffffffffffff1681526020016001820160149054906101000a900469ffffffffffffffffffff1669ffffffffffffffffffff1669ffffffffffffffffffff1681526020016002820160009054906101000a900469ffffffffffffffffffff1669ffffffffffffffffffff1669ffffffffffffffffffff168152505090508573ffffffffffffffffffffffffffffffffffffffff16816020015173ffffffffffffffffffffffffffffffffffffffff1614612d2e576040517f08c379a0000000000000000000000000000000000000000000000000000000008152600401612d2590614e8e565b60405180910390fd5b83612d4157612d3c816138fa565b612d44565b60005b91506000806000612d558a8761368c565b925092509250612d648a6130a8565b612d6d57600197505b8715612ea057609b60008b81526020019081526020016000206000808201600090556001820160006101000a81549073ffffffffffffffffffffffffffffffffffffffff02191690556001820160146101000a81549069ffffffffffffffffffff02191690556002820160006101000a81549069ffffffffffffffffffff0219169055505060a06000815480929190612e0590615535565b9190505550609860009054906101000a900473ffffffffffffffffffffffffffffffffffffffff1673ffffffffffffffffffffffffffffffffffffffff1663b88d4fde308b8d6040518463ffffffff1660e01b8152600401612e6993929190615596565b600060405180830381600087803b158015612e8357600080fd5b505af1158015612e97573d6000803e3d6000fd5b50505050612fc3565b60405180608001604052808b61ffff1681526020018a73ffffffffffffffffffffffffffffffffffffffff16815260200160a35469ffffffffffffffffffff1681526020014269ffffffffffffffffffff16815250609b60008c81526020019081526020016000206000820151816000015560208201518160010160006101000a81548173ffffffffffffffffffffffffffffffffffffffff021916908373ffffffffffffffffffffffffffffffffffffffff16021790555060408201518160010160146101000a81548169ffffffffffffffffffff021916908369ffffffffffffffffffff16021790555060608201518160020160006101000a81548169ffffffffffffffffffff021916908369ffffffffffffffffffff1602179055509050505b7f9be2cb7a62ca4aefdc81da57f848805cc67c86675da32b5a7be58bb615ba4f328a868a86868660a3546040516130009796959493929190615666565b60405180910390a15050505095945050505050565b60af60009054906101000a900473ffffffffffffffffffffffffffffffffffffffff1673ffffffffffffffffffffffffffffffffffffffff166340c10f1983836040518363ffffffff1660e01b81526004016130729291906156dc565b600060405180830381600087803b15801561308c57600080fd5b505af11580156130a0573d6000803e3d6000fd5b505050505050565b600060019050919050565b50565b6130be610be8565b156130fe576040517f08c379a00000000000000000000000000000000000000000000000000000000081526004016130f590614a7f565b60405180910390fd5b60405180608001604052808261ffff1681526020018373ffffffffffffffffffffffffffffffffffffffff1681526020014269ffffffffffffffffffff1681526020014269ffffffffffffffffffff16815250609a60008381526020019081526020016000206000820151816000015560208201518160010160006101000a81548173ffffffffffffffffffffffffffffffffffffffff021916908373ffffffffffffffffffffffffffffffffffffffff16021790555060408201518160010160146101000a81548169ffffffffffffffffffff021916908369ffffffffffffffffffff16021790555060608201518160020160006101000a81548169ffffffffffffffffffff021916908369ffffffffffffffffffff160217905550905050609f600081548092919061323190614c32565b91905055507f8af1bb49fb16c7835975aa59449ba4328dd54737dfb2ae9fa6c5eca71fda51f981834260405161326993929190615705565b60405180910390a15050565b61327d610be8565b156132bd576040517f08c379a00000000000000000000000000000000000000000000000000000000081526004016132b490614a7f565b60405180910390fd5b60405180608001604052808261ffff1681526020018373ffffffffffffffffffffffffffffffffffffffff16815260200160a35469ffffffffffffffffffff1681526020014269ffffffffffffffffffff16815250609b60008381526020019081526020016000206000820151816000015560208201518160010160006101000a81548173ffffffffffffffffffffffffffffffffffffffff021916908373ffffffffffffffffffffffffffffffffffffffff16021790555060408201518160010160146101000a81548169ffffffffffffffffffff021916908369ffffffffffffffffffff16021790555060608201518160020160006101000a81548169ffffffffffffffffffff021916908369ffffffffffffffffffff16021790555090505060a060008154809291906133f290614c32565b91905055507f8af1bb49fb16c7835975aa59449ba4328dd54737dfb2ae9fa6c5eca71fda51f9818360a35460405161342c93929190615705565b60405180910390a15050565b6000808273ffffffffffffffffffffffffffffffffffffffff163b119050919050565b600060019054906101000a900460ff166134aa576040517f08c379a00000000000000000000000000000000000000000000000000000000081526004016134a19061530a565b60405180910390fd5b6134ba6134b56123ec565b612528565b565b600060019054906101000a900460ff1661350b576040517f08c379a00000000000000000000000000000000000000000000000000000000081526004016135029061530a565b60405180910390fd5b6000603360006101000a81548160ff021916908315150217905550565b6000806135388360000151613a0e565b5090506000836040015169ffffffffffffffffffff16426135599190614bcf565b905060a25481111561356b5760a25490505b600060a2548260a75461357e919061573c565b61358891906157c5565b90506000600a60ac60009054906101000a900460ff1660ff168560ff166135af919061573c565b6135b9919061573c565b620186a06135c79190614c7b565b9050620186a081836135d9919061573c565b6135e391906157c5565b945060a6548560aa546135f69190614c7b565b111561360f5760aa5460a65461360c9190614bcf565b94505b6000851115613683574260ab81905550613641606460a85487613632919061573c565b61363c91906157c5565b613af8565b606460a85460646136529190614bcf565b8661365d919061573c565b61366791906157c5565b94508460aa600082825461367b9190614c7b565b925050819055505b50505050919050565b6000806060600080609860009054906101000a900473ffffffffffffffffffffffffffffffffffffffff1673ffffffffffffffffffffffffffffffffffffffff1663e05c57bf886040518263ffffffff1660e01b81526004016136ef9190613f66565b61016060405180830381865afa15801561370d573d6000803e3d6000fd5b505050506040513d601f19601f820116820180604052508101906137319190615441565b9a50505050505050505050915060008261377757609b600089815260200190815260200160002060020160009054906101000a900469ffffffffffffffffffff166137a5565b609a600089815260200190815260200160002060020160009054906101000a900469ffffffffffffffffffff165b69ffffffffffffffffffff16426137bc9190614bcf565b9050609860009054906101000a900473ffffffffffffffffffffffffffffffffffffffff1673ffffffffffffffffffffffffffffffffffffffff166363dbfc77896138328661381a57609e60029054906101000a900460000b61382b565b609e60009054906101000a900460000b5b8587613b60565b6138688761384f57609e60039054906101000a900460000b613860565b609e60019054906101000a900460000b5b866000613b60565b613870613c1d565b61387b57600061387d565b8b5b6040518563ffffffff1660e01b815260040161389c9493929190615805565b6000604051808303816000875af11580156138bb573d6000803e3d6000fd5b505050506040513d6000823e3d601f19601f820116820180604052508101906138e491906158f0565b8096508197508298505050505050509250925092565b60008061390a8360000151613a0e565b9150506000836040015169ffffffffffffffffffff1660a35461392d9190614bcf565b905060006103e860ae54613941919061595f565b60646103e860ad5460328760ff161115613967578660646139629190615a76565b613969565b865b60000b613976919061595f565b613980919061595f565b61398a9190615aaa565b6139949190615b14565b9050620186a081836139a6919061573c565b6139b091906157c5565b935060a6548460aa546139c39190614c7b565b11156139dc5760aa5460a6546139d99190614bcf565b93505b6000841115613a06574260ab819055508360aa60008282546139fe9190614c7b565b925050819055505b505050919050565b600080609860009054906101000a900473ffffffffffffffffffffffffffffffffffffffff1673ffffffffffffffffffffffffffffffffffffffff1663e05c57bf846040518263ffffffff1660e01b8152600401613a6c9190613f66565b61016060405180830381865afa158015613a8a573d6000803e3d6000fd5b505050506040513d601f19601f82011682018060405250810190613aae9190615441565b909192939495969798995090919293949596979850909192939495969750909192939495965090919293949550909192939450909192935090919250508092508193505050915091565b600060a0541415613b21578060a96000828254613b159190614c7b565b92505081905550613b5d565b60a05460a95482613b329190614c7b565b613b3c91906157c5565b60a36000828254613b4d9190614c7b565b92505081905550600060a9819055505b50565b600060a254831115613b725760a25492505b600060a2548560000b85613b86919061595f565b613b909190615aaa565b905060a2548410613bad578260000b81613baa9190615b14565b90505b6064811315613bc0576064915050613c16565b7fffffffffffffffffffffffffffffffffffffffffffffffffffffffffffffff9c811215613c11577fffffffffffffffffffffffffffffffffffffffffffffffffffffffffffffff9c915050613c16565b809150505b9392505050565b60006001905090565b50805460008255600f016010900490600052602060002090810190613c4b9190613cfc565b50565b82805482825590600052602060002090600f01601090048101928215613ceb5791602002820160005b83821115613cbb57833561ffff1683826101000a81548161ffff021916908361ffff1602179055509260200192600201602081600101049283019260010302613c77565b8015613ce95782816101000a81549061ffff0219169055600201602081600101049283019260010302613cbb565b505b509050613cf89190613cfc565b5090565b5b80821115613d15576000816000905550600101613cfd565b5090565b6000604051905090565b600080fd5b600080fd5b600073ffffffffffffffffffffffffffffffffffffffff82169050919050565b6000613d5882613d2d565b9050919050565b613d6881613d4d565b8114613d7357600080fd5b50565b600081359050613d8581613d5f565b92915050565b6000819050919050565b613d9e81613d8b565b8114613da957600080fd5b50565b600081359050613dbb81613d95565b92915050565b600080fd5b600080fd5b600080fd5b60008083601f840112613de657613de5613dc1565b5b8235905067ffffffffffffffff811115613e0357613e02613dc6565b5b602083019150836001820283011115613e1f57613e1e613dcb565b5b9250929050565b600080600080600060808688031215613e4257613e41613d23565b5b6000613e5088828901613d76565b9550506020613e6188828901613d76565b9450506040613e7288828901613dac565b935050606086013567ffffffffffffffff811115613e9357613e92613d28565b5b613e9f88828901613dd0565b92509250509295509295909350565b60007fffffffff0000000000000000000000000000000000000000000000000000000082169050919050565b613ee381613eae565b82525050565b6000602082019050613efe6000830184613eda565b92915050565b600080600060608486031215613f1d57613f1c613d23565b5b6000613f2b86828701613d76565b9350506020613f3c86828701613d76565b9250506040613f4d86828701613dac565b9150509250925092565b613f6081613d8b565b82525050565b6000602082019050613f7b6000830184613f57565b92915050565b6000601f19601f8301169050919050565b7f4e487b7100000000000000000000000000000000000000000000000000000000600052604160045260246000fd5b613fca82613f81565b810181811067ffffffffffffffff82111715613fe957613fe8613f92565b5b80604052505050565b6000613ffc613d19565b90506140088282613fc1565b919050565b600067ffffffffffffffff82111561402857614027613f92565b5b602082029050602081019050919050565b600061404c6140478461400d565b613ff2565b9050808382526020820190506020840283018581111561406f5761406e613dcb565b5b835b8181101561409857806140848882613dac565b845260208401935050602081019050614071565b5050509392505050565b600082601f8301126140b7576140b6613dc1565b5b81356140c7848260208601614039565b91505092915050565b600067ffffffffffffffff8211156140eb576140ea613f92565b5b602082029050602081019050919050565b60008160000b9050919050565b614112816140fc565b811461411d57600080fd5b50565b60008135905061412f81614109565b92915050565b6000614148614143846140d0565b613ff2565b9050808382526020820190506020840283018581111561416b5761416a613dcb565b5b835b8181101561419457806141808882614120565b84526020840193505060208101905061416d565b5050509392505050565b600082601f8301126141b3576141b2613dc1565b5b81356141c3848260208601614135565b91505092915050565b600060ff82169050919050565b6141e2816141cc565b81146141ed57600080fd5b50565b6000813590506141ff816141d9565b92915050565b6000819050919050565b61421881614205565b811461422357600080fd5b50565b6000813590506142358161420f565b92915050565b600080600080600080600080610100898b03121561425c5761425b613d23565b5b600061426a8b828c01613dac565b985050602089013567ffffffffffffffff81111561428b5761428a613d28565b5b6142978b828c016140a2565b975050604089013567ffffffffffffffff8111156142b8576142b7613d28565b5b6142c48b828c0161419e565b96505060606142d58b828c016141f0565b95505060806142e68b828c01614226565b94505060a06142f78b828c01614226565b93505060c06143088b828c016141f0565b92505060e06143198b828c01613dac565b9150509295985092959890939650565b60006020828403121561433f5761433e613d23565b5b600061434d84828501613dac565b91505092915050565b61435f81613d4d565b82525050565b600069ffffffffffffffffffff82169050919050565b61438481614365565b82525050565b600060808201905061439f6000830187613f57565b6143ac6020830186614356565b6143b9604083018561437b565b6143c6606083018461437b565b95945050505050565b6000602082840312156143e5576143e4613d23565b5b60006143f384828501613d76565b91505092915050565b60008115159050919050565b614411816143fc565b82525050565b600060208201905061442c6000830184614408565b92915050565b60006020820190506144476000830184614356565b92915050565b600080fd5b600080fd5b6000819050919050565b61446a81614457565b811461447557600080fd5b50565b60008135905061448781614461565b92915050565b600067ffffffffffffffff8211156144a8576144a7613f92565b5b602082029050602081019050919050565b600061ffff82169050919050565b6144d0816144b9565b81146144db57600080fd5b50565b6000813590506144ed816144c7565b92915050565b60006145066145018461448d565b613ff2565b9050808382526020820190506020840283018581111561452957614528613dcb565b5b835b81811015614552578061453e88826144de565b84526020840193505060208101905061452b565b5050509392505050565b600082601f83011261457157614570613dc1565b5b81356145818482602086016144f3565b91505092915050565b614593816143fc565b811461459e57600080fd5b50565b6000813590506145b08161458a565b92915050565b600060a082840312156145cc576145cb61444d565b5b6145d660a0613ff2565b905060006145e684828501614478565b60008301525060206145fa84828501613d76565b602083015250604061460e84828501613d76565b604083015250606082013567ffffffffffffffff81111561463257614631614452565b5b61463e8482850161455c565b6060830152506080614652848285016145a1565b60808301525092915050565b6000806040838503121561467557614674613d23565b5b600083013567ffffffffffffffff81111561469357614692613d28565b5b61469f858286016145b6565b92505060206146b085828601613dac565b9150509250929050565b60008083601f8401126146d0576146cf613dc1565b5b8235905067ffffffffffffffff8111156146ed576146ec613dc6565b5b60208301915083602082028301111561470957614708613dcb565b5b9250929050565b60008060006040848603121561472957614728613d23565b5b600084013567ffffffffffffffff81111561474757614746613d28565b5b614753868287016146ba565b93509350506020614766868287016145a1565b9150509250925092565b60008060006060848603121561478957614788613d23565b5b600061479786828701613d76565b93505060206147a886828701613d76565b92505060406147b986828701613d76565b9150509250925092565b600080604083850312156147da576147d9613d23565b5b60006147e885828601613d76565b92505060206147f985828601613dac565b9150509250929050565b60008060006040848603121561481c5761481b613d23565b5b600061482a86828701613d76565b935050602084013567ffffffffffffffff81111561484b5761484a613d28565b5b614857868287016146ba565b92509250509250925092565b600082825260208201905092915050565b7f43616e6e6f742073656e6420746f6b656e7320746f2056656e7565206469726560008201527f63746c7900000000000000000000000000000000000000000000000000000000602082015250565b60006148d0602483614863565b91506148db82614874565b604082019050919050565b600060208201905081810360008301526148ff816148c3565b9050919050565b7f496e697469616c697a61626c653a20636f6e747261637420697320616c72656160008201527f647920696e697469616c697a6564000000000000000000000000000000000000602082015250565b6000614962602e83614863565b915061496d82614906565b604082019050919050565b6000602082019050818103600083015261499181614955565b9050919050565b7f4f776e61626c653a2063616c6c6572206973206e6f7420746865206f776e6572600082015250565b60006149ce602083614863565b91506149d982614998565b602082019050919050565b600060208201905081810360008301526149fd816149c1565b9050919050565b7f4e487b7100000000000000000000000000000000000000000000000000000000600052603260045260246000fd5b7f5061757361626c653a2070617573656400000000000000000000000000000000600082015250565b6000614a69601083614863565b9150614a7482614a33565b602082019050919050565b60006020820190508181036000830152614a9881614a5c565b9050919050565b7f4f6e6c7920436c61696d2063616e2066756c66696c6c00000000000000000000600082015250565b6000614ad5601683614863565b9150614ae082614a9f565b602082019050919050565b60006020820190508181036000830152614b0481614ac8565b9050919050565b7f436c61696d2072657175657374206e6f7420666f756e64000000000000000000600082015250565b6000614b41601783614863565b9150614b4c82614b0b565b602082019050919050565b60006020820190508181036000830152614b7081614b34565b9050919050565b6000604082019050614b8c6000830185613f57565b614b996020830184613f57565b9392505050565b7f4e487b7100000000000000000000000000000000000000000000000000000000600052601160045260246000fd5b6000614bda82613d8b565b9150614be583613d8b565b925082821015614bf857614bf7614ba0565b5b828203905092915050565b7f4e487b7100000000000000000000000000000000000000000000000000000000600052603160045260246000fd5b6000614c3d82613d8b565b91507fffffffffffffffffffffffffffffffffffffffffffffffffffffffffffffffff821415614c7057614c6f614ba0565b5b600182019050919050565b6000614c8682613d8b565b9150614c9183613d8b565b9250827fffffffffffffffffffffffffffffffffffffffffffffffffffffffffffffffff03821115614cc657614cc5614ba0565b5b828201905092915050565b7f454f41206f6e6c79000000000000000000000000000000000000000000000000600082015250565b6000614d07600883614863565b9150614d1282614cd1565b602082019050919050565b60006020820190508181036000830152614d3681614cfa565b9050919050565b7f496e76616c696420636c61696d20616d6f756e74000000000000000000000000600082015250565b6000614d73601483614863565b9150614d7e82614d3d565b602082019050919050565b60006020820190508181036000830152614da281614d66565b9050919050565b7f496e76616c696420636c61696d20666565000000000000000000000000000000600082015250565b6000614ddf601183614863565b9150614dea82614da9565b602082019050919050565b60006020820190508181036000830152614e0e81614dd2565b9050919050565b600060208284031215614e2b57614e2a613d23565b5b6000614e39848285016144de565b91505092915050565b7f4e6f7420796f757220746f6b656e000000000000000000000000000000000000600082015250565b6000614e78600e83614863565b9150614e8382614e42565b602082019050919050565b60006020820190508181036000830152614ea781614e6b565b9050919050565b7f43616e6e6f7420636c61696d206265666f726520454f42000000000000000000600082015250565b6000614ee4601783614863565b9150614eef82614eae565b602082019050919050565b60006020820190508181036000830152614f1381614ed7565b9050919050565b600082825260208201905092915050565b6000819050919050565b614f3e816144b9565b82525050565b6000614f508383614f35565b60208301905092915050565b6000614f6b60208401846144de565b905092915050565b6000602082019050919050565b6000614f8c8385614f1a565b9350614f9782614f2b565b8060005b85811015614fd057614fad8284614f5c565b614fb78882614f44565b9750614fc283614f73565b925050600181019050614f9b565b5085925050509392505050565b6000606082019050614ff26000830187614356565b8181036020830152615005818587614f80565b90506150146040830184614408565b95945050505050565b60008151905061502c81614461565b92915050565b60006020828403121561504857615047613d23565b5b60006150568482850161501d565b91505092915050565b6000819050919050565b600061508461507f61507a846144b9565b61505f565b613d8b565b9050919050565b61509481615069565b82525050565b60006020820190506150af600083018461508b565b92915050565b6000815190506150c481613d5f565b92915050565b6000602082840312156150e0576150df613d23565b5b60006150ee848285016150b5565b91505092915050565b7f4e6f7420656c696769626c650000000000000000000000000000000000000000600082015250565b600061512d600c83614863565b9150615138826150f7565b602082019050919050565b6000602082019050818103600083015261515c81615120565b9050919050565b7f4b69746368656e20737061636520726571756972656400000000000000000000600082015250565b6000615199601683614863565b91506151a482615163565b602082019050919050565b600060208201905081810360008301526151c88161518c565b9050919050565b60006060820190506151e46000830186614356565b6151f16020830185614356565b6151fe604083018461508b565b949350505050565b7f4f776e61626c653a206e6577206f776e657220697320746865207a65726f206160008201527f6464726573730000000000000000000000000000000000000000000000000000602082015250565b6000615262602683614863565b915061526d82615206565b604082019050919050565b6000602082019050818103600083015261529181615255565b9050919050565b7f496e697469616c697a61626c653a20636f6e7472616374206973206e6f74206960008201527f6e697469616c697a696e67000000000000000000000000000000000000000000602082015250565b60006152f4602b83614863565b91506152ff82615298565b604082019050919050565b60006020820190508181036000830152615323816152e7565b9050919050565b7f4f6e6c792044414f2063616e2065786563757465000000000000000000000000600082015250565b6000615360601483614863565b915061536b8261532a565b602082019050919050565b6000602082019050818103600083015261538f81615353565b9050919050565b7f5061757361626c653a206e6f7420706175736564000000000000000000000000600082015250565b60006153cc601483614863565b91506153d782615396565b602082019050919050565b600060208201905081810360008301526153fb816153bf565b9050919050565b6000815190506154118161458a565b92915050565b600081519050615426816141d9565b92915050565b60008151905061543b81614109565b92915050565b60008060008060008060008060008060006101608c8e03121561546757615466613d23565b5b60006154758e828f01615402565b9b505060206154868e828f01615417565b9a505060406154978e828f01615417565b99505060606154a88e828f01615417565b98505060806154b98e828f01615417565b97505060a06154ca8e828f01615417565b96505060c06154db8e828f01615417565b95505060e06154ec8e828f01615417565b9450506101006154fe8e828f01615417565b9350506101206155108e828f01615417565b9250506101406155228e828f0161542c565b9150509295989b509295989b9093969950565b600061554082613d8b565b9150600082141561555457615553614ba0565b5b600182039050919050565b600082825260208201905092915050565b50565b600061558060008361555f565b915061558b82615570565b600082019050919050565b60006080820190506155ab6000830186614356565b6155b86020830185614356565b6155c56040830184613f57565b81810360608301526155d681615573565b9050949350505050565b6155e9816141cc565b82525050565b600081519050919050565b60005b838110156156185780820151818401526020810190506155fd565b83811115615627576000848401525b50505050565b6000615638826155ef565b6156428185614863565b93506156528185602086016155fa565b61565b81613f81565b840191505092915050565b600060e08201905061567b600083018a613f57565b6156886020830189613f57565b6156956040830188614408565b6156a260608301876155e0565b6156af60808301866155e0565b81810360a08301526156c1818561562d565b90506156d060c0830184613f57565b98975050505050505050565b60006040820190506156f16000830185614356565b6156fe6020830184613f57565b9392505050565b600060608201905061571a6000830186613f57565b6157276020830185614356565b6157346040830184613f57565b949350505050565b600061574782613d8b565b915061575283613d8b565b9250817fffffffffffffffffffffffffffffffffffffffffffffffffffffffffffffffff048311821515161561578b5761578a614ba0565b5b828202905092915050565b7f4e487b7100000000000000000000000000000000000000000000000000000000600052601260045260246000fd5b60006157d082613d8b565b91506157db83613d8b565b9250826157eb576157ea615796565b5b828204905092915050565b6157ff816140fc565b82525050565b600060808201905061581a6000830187613f57565b61582760208301866157f6565b61583460408301856157f6565b6158416060830184613f57565b95945050505050565b600080fd5b600067ffffffffffffffff82111561586a57615869613f92565b5b61587382613f81565b9050602081019050919050565b600061589361588e8461584f565b613ff2565b9050828152602081018484840111156158af576158ae61584a565b5b6158ba8482856155fa565b509392505050565b600082601f8301126158d7576158d6613dc1565b5b81516158e7848260208601615880565b91505092915050565b60008060006060848603121561590957615908613d23565b5b600061591786828701615417565b935050602061592886828701615417565b925050604084015167ffffffffffffffff81111561594957615948613d28565b5b615955868287016158c2565b9150509250925092565b600061596a82614205565b915061597583614205565b9250827f7fffffffffffffffffffffffffffffffffffffffffffffffffffffffffffffff04821160008413600084131616156159b4576159b3614ba0565b5b817f800000000000000000000000000000000000000000000000000000000000000005831260008412600084131616156159f1576159f0614ba0565b5b827f80000000000000000000000000000000000000000000000000000000000000000582126000841360008412161615615a2e57615a2d614ba0565b5b827f7fffffffffffffffffffffffffffffffffffffffffffffffffffffffffffffff0582126000841260008412161615615a6b57615a6a614ba0565b5b828202905092915050565b6000615a81826141cc565b9150615a8c836141cc565b925082821015615a9f57615a9e614ba0565b5b828203905092915050565b6000615ab582614205565b9150615ac083614205565b925082615ad057615acf615796565b5b600160000383147f800000000000000000000000000000000000000000000000000000000000000083141615615b0957615b08614ba0565b5b828205905092915050565b6000615b1f82614205565b9150615b2a83614205565b9250817f7fffffffffffffffffffffffffffffffffffffffffffffffffffffffffffffff03831360008312151615615b6557615b64614ba0565b5b817f8000000000000000000000000000000000000000000000000000000000000000038312600083121615615b9d57615b9c614ba0565b5b82820190509291505056fea2646970667358221220a48d705c6d557876f7b0b1363fb951fa3a92f46923837c57a69f2281afee35cf64736f6c634300080a0033",
  "immutableReferences": {},
  "source": "// SPDX-License-Identifier: MIT\n\npragma solidity ^0.8.0;\n\nimport \"./Kitchen.sol\";\nimport \"./FastFood.sol\";\n\ncontract McStake is Kitchen {\n  FastFood foodToken; // Reference to the $FFOOD contract\n\n  function initialize(\n    address _character,\n    address _claim,\n    address _foodToken\n  ) external initializer {\n    __Ownable_init();\n    __Pausable_init();\n\n    unaccountedRewards = 0;\n    foodTokensPerRat = 0;\n    lastClaimTimestamp = 0;\n\n    character = Character(_character);\n    claim = IClaim(_claim);\n    foodToken = FastFood(_foodToken);\n  }\n\n  /**\n   * Allows DAO to update game parameters\n   */\n  function configure(\n    uint256 _foodTokenMaxSupply,\n    uint256[] memory _earningSettings, // dailyChefEarnings, ratTheftPercentage, vestingPeriod, accrualPeriod\n    int8[] memory _propertyIncrements, // dailySkillRate, dailyFreakRate, dailyIntelligenceRate, dailyBodyMassRate\n    uint8 _chefEfficiencyMultiplier,\n    int256 _ratEfficiencyMultiplier,\n    int256 _ratEfficiencyOffset,\n    uint8 _maxClaimsPerTx,\n    uint256 _claimFee\n  ) external onlyOwner {\n    foodTokenMaxSupply = _foodTokenMaxSupply;\n    dailyChefEarnings = _earningSettings[0];\n    ratTheftPercentage = _earningSettings[1];\n    vestingPeriod = _earningSettings[2];\n    accrualPeriod = _earningSettings[3];\n    dailySkillRate = _propertyIncrements[0];\n    dailyFreakRate = _propertyIncrements[1];\n    dailyIntelligenceRate = _propertyIncrements[2];\n    dailyBodyMassRate = _propertyIncrements[3];\n    chefEfficiencyMultiplier = _chefEfficiencyMultiplier;\n    ratEfficiencyMultiplier = _ratEfficiencyMultiplier;\n    ratEfficiencyOffset = _ratEfficiencyOffset;\n    maxClaimsPerTx = _maxClaimsPerTx;\n    claimFee = _claimFee;\n  }\n\n  /**\n   * Mints the given amount of food tokens in the user's account\n   * @param sender - User wallet address\n   * @param amount - Amount of food tokens to mint\n   */\n  function _mintFoodToken(address sender, uint256 amount) internal override {\n    foodToken.mint(sender, amount);\n  }\n}\n",
  "sourcePath": "/Users/chris/workspace/ratalert/ratalert-contracts/contracts/McStake.sol",
  "compiler": {
    "name": "solc",
    "version": "0.8.10+commit.fc410830.Emscripten.clang"
  },
  "schemaVersion": "3.4.7",
  "updatedAt": "2022-05-11T09:13:32.013Z",
  "networkType": "ethereum",
  "devdoc": {
    "kind": "dev",
    "methods": {
      "claimMany(uint16[],bool)": {
        "params": {
          "tokenIds": "- The IDs of the tokens in question",
          "unstake": "- Whether or not to unstake the given tokens"
        }
      },
      "fulfillClaimMany((bytes32,address,address,uint16[],bool),uint256)": {
        "params": {
          "randomness": "- Random value created by VRF",
          "v": "- VRF struct for the corresponding request"
        }
      },
      "getChefsStaked(address)": {
        "params": {
          "account": "- User wallet address"
        },
        "returns": {
          "_0": "Number of chefs in staking"
        }
      },
      "owner()": {
        "details": "Returns the address of the current owner."
      },
      "paused()": {
        "details": "Returns true if the contract is paused, and false otherwise."
      },
      "renounceOwnership()": {
        "details": "Leaves the contract without owner. It will not be possible to call `onlyOwner` functions anymore. Can only be called by the current owner. NOTE: Renouncing ownership will leave the contract without an owner, thereby removing any functionality that is only available to the owner."
      },
      "stakeMany(address,uint16[])": {
        "params": {
          "account": "- User wallet address",
          "tokenIds": "- The IDs of the Chefs & Rats to stake"
        }
      },
      "transferOwnership(address)": {
        "details": "Transfers ownership of the contract to a new account (`newOwner`). Can only be called by the current owner."
      }
    },
    "version": 1
  },
  "userdoc": {
    "kind": "user",
    "methods": {
      "claimMany(uint16[],bool)": {
        "notice": "ChainLink VRF request: Claims food token earnings, level-ups and optionally unstake characters"
      },
      "configure(uint256,uint256[],int8[],uint8,int256,int256,uint8,uint256)": {
        "notice": "Allows DAO to update game parameters"
      },
      "fulfillClaimMany((bytes32,address,address,uint16[],bool),uint256)": {
        "notice": "Callback for claimMany(), called by Claim.fulfillRandomness()"
      },
      "getChefsStaked(address)": {
        "notice": "Get the amount of chefs the given account has in staking"
      },
      "onERC721Received(address,address,uint256,bytes)": {
        "notice": "IERC721ReceiverUpgradeable interface: We do not accept tokens sent directly"
      },
      "stakeMany(address,uint16[])": {
        "notice": "Adds Characters to staking"
      },
      "withdrawPayments()": {
        "notice": "Allows DAO to withdraw funds"
      }
    },
    "version": 1
  }
}