{
  "contractName": "McStake",
  "abi": [
    {
      "anonymous": false,
      "inputs": [
        {
          "indexed": false,
          "internalType": "uint256",
          "name": "tokenId",
          "type": "uint256"
        },
        {
          "indexed": false,
          "internalType": "uint256",
          "name": "earned",
          "type": "uint256"
        },
        {
          "indexed": false,
          "internalType": "bool",
          "name": "unstaked",
          "type": "bool"
        },
        {
          "indexed": false,
          "internalType": "uint8",
          "name": "skill",
          "type": "uint8"
        },
        {
          "indexed": false,
          "internalType": "uint8",
          "name": "freak",
          "type": "uint8"
        },
        {
          "indexed": false,
          "internalType": "string",
          "name": "eventName",
          "type": "string"
        },
        {
          "indexed": false,
          "internalType": "uint256",
          "name": "foodTokensPerRat",
          "type": "uint256"
        }
      ],
      "name": "ChefClaimed",
      "type": "event"
    },
    {
      "anonymous": false,
      "inputs": [
        {
          "indexed": true,
          "internalType": "address",
          "name": "previousOwner",
          "type": "address"
        },
        {
          "indexed": true,
          "internalType": "address",
          "name": "newOwner",
          "type": "address"
        }
      ],
      "name": "OwnershipTransferred",
      "type": "event"
    },
    {
      "anonymous": false,
      "inputs": [
        {
          "indexed": false,
          "internalType": "address",
          "name": "account",
          "type": "address"
        }
      ],
      "name": "Paused",
      "type": "event"
    },
    {
      "anonymous": false,
      "inputs": [
        {
          "indexed": false,
          "internalType": "uint256",
          "name": "tokenId",
          "type": "uint256"
        },
        {
          "indexed": false,
          "internalType": "uint256",
          "name": "earned",
          "type": "uint256"
        },
        {
          "indexed": false,
          "internalType": "bool",
          "name": "unstaked",
          "type": "bool"
        },
        {
          "indexed": false,
          "internalType": "uint8",
          "name": "intelligence",
          "type": "uint8"
        },
        {
          "indexed": false,
          "internalType": "uint8",
          "name": "bodyMass",
          "type": "uint8"
        },
        {
          "indexed": false,
          "internalType": "string",
          "name": "eventName",
          "type": "string"
        },
        {
          "indexed": false,
          "internalType": "uint256",
          "name": "foodTokensPerRat",
          "type": "uint256"
        }
      ],
      "name": "RatClaimed",
      "type": "event"
    },
    {
      "anonymous": false,
      "inputs": [
        {
          "indexed": false,
          "internalType": "uint256",
          "name": "tokenId",
          "type": "uint256"
        },
        {
          "indexed": false,
          "internalType": "address",
          "name": "owner",
          "type": "address"
        },
        {
          "indexed": false,
          "internalType": "uint256",
          "name": "value",
          "type": "uint256"
        }
      ],
      "name": "TokenStaked",
      "type": "event"
    },
    {
      "anonymous": false,
      "inputs": [
        {
          "indexed": false,
          "internalType": "address",
          "name": "account",
          "type": "address"
        }
      ],
      "name": "Unpaused",
      "type": "event"
    },
    {
      "inputs": [],
      "name": "accrualPeriod",
      "outputs": [
        {
          "internalType": "uint256",
          "name": "",
          "type": "uint256"
        }
      ],
      "stateMutability": "view",
      "type": "function",
      "constant": true
    },
    {
      "inputs": [],
      "name": "chefEfficiencyMultiplier",
      "outputs": [
        {
          "internalType": "uint8",
          "name": "",
          "type": "uint8"
        }
      ],
      "stateMutability": "view",
      "type": "function",
      "constant": true
    },
    {
      "inputs": [
        {
          "internalType": "uint256",
          "name": "",
          "type": "uint256"
        }
      ],
      "name": "chefs",
      "outputs": [
        {
          "internalType": "uint256",
          "name": "tokenId",
          "type": "uint256"
        },
        {
          "internalType": "address",
          "name": "owner",
          "type": "address"
        },
        {
          "internalType": "uint80",
          "name": "value",
          "type": "uint80"
        },
        {
          "internalType": "uint80",
          "name": "timestamp",
          "type": "uint80"
        }
      ],
      "stateMutability": "view",
      "type": "function",
      "constant": true
    },
    {
      "inputs": [],
      "name": "claim",
      "outputs": [
        {
          "internalType": "contract IClaim",
          "name": "",
          "type": "address"
        }
      ],
      "stateMutability": "view",
      "type": "function",
      "constant": true
    },
    {
      "inputs": [
        {
          "internalType": "uint16[]",
          "name": "tokenIds",
          "type": "uint16[]"
        },
        {
          "internalType": "bool",
          "name": "unstake",
          "type": "bool"
        }
      ],
      "name": "claimMany",
      "outputs": [],
      "stateMutability": "nonpayable",
      "type": "function"
    },
    {
      "inputs": [
        {
          "internalType": "bytes32",
          "name": "",
          "type": "bytes32"
        },
        {
          "internalType": "uint256",
          "name": "",
          "type": "uint256"
        }
      ],
      "name": "claimRequests",
      "outputs": [
        {
          "internalType": "uint16",
          "name": "",
          "type": "uint16"
        }
      ],
      "stateMutability": "view",
      "type": "function",
      "constant": true
    },
    {
      "inputs": [],
      "name": "dailyBodyMassRate",
      "outputs": [
        {
          "internalType": "int8",
          "name": "",
          "type": "int8"
        }
      ],
      "stateMutability": "view",
      "type": "function",
      "constant": true
    },
    {
      "inputs": [],
      "name": "dailyChefEarnings",
      "outputs": [
        {
          "internalType": "uint256",
          "name": "",
          "type": "uint256"
        }
      ],
      "stateMutability": "view",
      "type": "function",
      "constant": true
    },
    {
      "inputs": [],
      "name": "dailyFreakRate",
      "outputs": [
        {
          "internalType": "int8",
          "name": "",
          "type": "int8"
        }
      ],
      "stateMutability": "view",
      "type": "function",
      "constant": true
    },
    {
      "inputs": [],
      "name": "dailyIntelligenceRate",
      "outputs": [
        {
          "internalType": "int8",
          "name": "",
          "type": "int8"
        }
      ],
      "stateMutability": "view",
      "type": "function",
      "constant": true
    },
    {
      "inputs": [],
      "name": "dailySkillRate",
      "outputs": [
        {
          "internalType": "int8",
          "name": "",
          "type": "int8"
        }
      ],
      "stateMutability": "view",
      "type": "function",
      "constant": true
    },
    {
      "inputs": [],
      "name": "foodTokenMaxSupply",
      "outputs": [
        {
          "internalType": "uint256",
          "name": "",
          "type": "uint256"
        }
      ],
      "stateMutability": "view",
      "type": "function",
      "constant": true
    },
    {
      "inputs": [],
      "name": "foodTokensPerRat",
      "outputs": [
        {
          "internalType": "uint256",
          "name": "",
          "type": "uint256"
        }
      ],
      "stateMutability": "view",
      "type": "function",
      "constant": true
    },
    {
      "inputs": [
        {
          "components": [
            {
              "internalType": "bytes32",
              "name": "requestId",
              "type": "bytes32"
            },
            {
              "internalType": "address",
              "name": "venue",
              "type": "address"
            },
            {
              "internalType": "address",
              "name": "sender",
              "type": "address"
            },
            {
              "internalType": "uint16[]",
              "name": "tokenIds",
              "type": "uint16[]"
            },
            {
              "internalType": "bool",
              "name": "unstake",
              "type": "bool"
            }
          ],
          "internalType": "struct IClaim.VRFStruct",
          "name": "v",
          "type": "tuple"
        },
        {
          "internalType": "uint256",
          "name": "randomness",
          "type": "uint256"
        }
      ],
      "name": "fulfillClaimMany",
      "outputs": [],
      "stateMutability": "nonpayable",
      "type": "function"
    },
    {
      "inputs": [
        {
          "internalType": "uint256",
          "name": "tokenId",
          "type": "uint256"
        }
      ],
      "name": "getProperties",
      "outputs": [
        {
          "internalType": "uint8",
          "name": "efficiency",
          "type": "uint8"
        },
        {
          "internalType": "uint8",
          "name": "tolerance",
          "type": "uint8"
        }
      ],
      "stateMutability": "view",
      "type": "function",
      "constant": true
    },
    {
      "inputs": [
        {
          "internalType": "uint256",
          "name": "tokenId",
          "type": "uint256"
        }
      ],
      "name": "isChef",
      "outputs": [
        {
          "internalType": "bool",
          "name": "chef",
          "type": "bool"
        }
      ],
      "stateMutability": "view",
      "type": "function",
      "constant": true
    },
    {
      "inputs": [],
      "name": "lastClaimTimestamp",
      "outputs": [
        {
          "internalType": "uint256",
          "name": "",
          "type": "uint256"
        }
      ],
      "stateMutability": "view",
      "type": "function",
      "constant": true
    },
    {
      "inputs": [
        {
          "internalType": "address",
          "name": "",
          "type": "address"
        },
        {
          "internalType": "address",
          "name": "from",
          "type": "address"
        },
        {
          "internalType": "uint256",
          "name": "",
          "type": "uint256"
        },
        {
          "internalType": "bytes",
          "name": "",
          "type": "bytes"
        }
      ],
      "name": "onERC721Received",
      "outputs": [
        {
          "internalType": "bytes4",
          "name": "",
          "type": "bytes4"
        }
      ],
      "stateMutability": "pure",
      "type": "function",
      "constant": true
    },
    {
      "inputs": [],
      "name": "owner",
      "outputs": [
        {
          "internalType": "address",
          "name": "",
          "type": "address"
        }
      ],
      "stateMutability": "view",
      "type": "function",
      "constant": true
    },
    {
      "inputs": [],
      "name": "pause",
      "outputs": [],
      "stateMutability": "nonpayable",
      "type": "function"
    },
    {
      "inputs": [],
      "name": "paused",
      "outputs": [
        {
          "internalType": "bool",
          "name": "",
          "type": "bool"
        }
      ],
      "stateMutability": "view",
      "type": "function",
      "constant": true
    },
    {
      "inputs": [],
      "name": "ratEfficiencyMultiplier",
      "outputs": [
        {
          "internalType": "int256",
          "name": "",
          "type": "int256"
        }
      ],
      "stateMutability": "view",
      "type": "function",
      "constant": true
    },
    {
      "inputs": [],
      "name": "ratEfficiencyOffset",
      "outputs": [
        {
          "internalType": "int256",
          "name": "",
          "type": "int256"
        }
      ],
      "stateMutability": "view",
      "type": "function",
      "constant": true
    },
    {
      "inputs": [],
      "name": "ratTheftPercentage",
      "outputs": [
        {
          "internalType": "uint256",
          "name": "",
          "type": "uint256"
        }
      ],
      "stateMutability": "view",
      "type": "function",
      "constant": true
    },
    {
      "inputs": [
        {
          "internalType": "uint256",
          "name": "",
          "type": "uint256"
        }
      ],
      "name": "rats",
      "outputs": [
        {
          "internalType": "uint256",
          "name": "tokenId",
          "type": "uint256"
        },
        {
          "internalType": "address",
          "name": "owner",
          "type": "address"
        },
        {
          "internalType": "uint80",
          "name": "value",
          "type": "uint80"
        },
        {
          "internalType": "uint80",
          "name": "timestamp",
          "type": "uint80"
        }
      ],
      "stateMutability": "view",
      "type": "function",
      "constant": true
    },
    {
      "inputs": [],
      "name": "renounceOwnership",
      "outputs": [],
      "stateMutability": "nonpayable",
      "type": "function"
    },
    {
      "inputs": [
        {
          "internalType": "address",
          "name": "account",
          "type": "address"
        },
        {
          "internalType": "uint16[]",
          "name": "tokenIds",
          "type": "uint16[]"
        }
      ],
      "name": "stakeMany",
      "outputs": [],
      "stateMutability": "nonpayable",
      "type": "function"
    },
    {
      "inputs": [
        {
          "internalType": "address",
          "name": "",
          "type": "address"
        },
        {
          "internalType": "uint256",
          "name": "",
          "type": "uint256"
        }
      ],
      "name": "stakers",
      "outputs": [
        {
          "internalType": "uint256",
          "name": "",
          "type": "uint256"
        }
      ],
      "stateMutability": "view",
      "type": "function",
      "constant": true
    },
    {
      "inputs": [],
      "name": "totalChefsStaked",
      "outputs": [
        {
          "internalType": "uint256",
          "name": "",
          "type": "uint256"
        }
      ],
      "stateMutability": "view",
      "type": "function",
      "constant": true
    },
    {
      "inputs": [],
      "name": "totalFoodTokensEarned",
      "outputs": [
        {
          "internalType": "uint256",
          "name": "",
          "type": "uint256"
        }
      ],
      "stateMutability": "view",
      "type": "function",
      "constant": true
    },
    {
      "inputs": [],
      "name": "totalRatsStaked",
      "outputs": [
        {
          "internalType": "uint256",
          "name": "",
          "type": "uint256"
        }
      ],
      "stateMutability": "view",
      "type": "function",
      "constant": true
    },
    {
      "inputs": [
        {
          "internalType": "address",
          "name": "newOwner",
          "type": "address"
        }
      ],
      "name": "transferOwnership",
      "outputs": [],
      "stateMutability": "nonpayable",
      "type": "function"
    },
    {
      "inputs": [],
      "name": "unaccountedRewards",
      "outputs": [
        {
          "internalType": "uint256",
          "name": "",
          "type": "uint256"
        }
      ],
      "stateMutability": "view",
      "type": "function",
      "constant": true
    },
    {
      "inputs": [],
      "name": "unpause",
      "outputs": [],
      "stateMutability": "nonpayable",
      "type": "function"
    },
    {
      "inputs": [],
      "name": "vestingPeriod",
      "outputs": [
        {
          "internalType": "uint256",
          "name": "",
          "type": "uint256"
        }
      ],
      "stateMutability": "view",
      "type": "function",
      "constant": true
    },
    {
      "inputs": [
        {
          "internalType": "address",
          "name": "_character",
          "type": "address"
        },
        {
          "internalType": "address",
          "name": "_claim",
          "type": "address"
        },
        {
          "internalType": "uint256",
          "name": "_accrualPeriod",
          "type": "uint256"
        }
      ],
      "name": "initialize",
      "outputs": [],
      "stateMutability": "nonpayable",
      "type": "function"
    },
    {
      "inputs": [],
      "name": "initialize",
      "outputs": [],
      "stateMutability": "nonpayable",
      "type": "function"
    },
    {
      "inputs": [
        {
          "internalType": "address",
          "name": "_character",
          "type": "address"
        },
        {
          "internalType": "address",
          "name": "_claim",
          "type": "address"
        },
        {
          "internalType": "address",
          "name": "_foodToken",
          "type": "address"
        }
      ],
      "name": "initialize",
      "outputs": [],
      "stateMutability": "nonpayable",
      "type": "function"
    },
    {
      "inputs": [
        {
          "internalType": "uint256",
          "name": "_foodTokenMaxSupply",
          "type": "uint256"
        },
        {
          "internalType": "uint256[]",
          "name": "_earningSettings",
          "type": "uint256[]"
        },
        {
          "internalType": "int8[]",
          "name": "_propertyIncrements",
          "type": "int8[]"
        },
        {
          "internalType": "uint8",
          "name": "_chefEfficiencyMultiplier",
          "type": "uint8"
        },
        {
          "internalType": "int256",
          "name": "_ratEfficiencyMultiplier",
          "type": "int256"
        },
        {
          "internalType": "int256",
          "name": "_ratEfficiencyOffset",
          "type": "int256"
        },
        {
          "internalType": "uint8",
          "name": "_maxClaimsPerTx",
          "type": "uint8"
        }
      ],
      "name": "configure",
      "outputs": [],
      "stateMutability": "nonpayable",
      "type": "function"
    }
  ],
  "bytecode": "0x608060405234801561001057600080fd5b50615bba80620000216000396000f3fe608060405234801561001057600080fd5b506004361061023d5760003560e01c80636b0620cc1161013b578063c0c472c0116100b8578063dbdc1f6b1161007c578063dbdc1f6b14610657578063ef9f800f14610673578063f2666746146106a3578063f2fde38b146106c1578063f6664155146106dd5761023d565b8063c0c472c0146105b1578063c0c53b8b146105cf578063c8b6cbf7146105eb578063d7178ac61461061b578063d8dda92e146106395761023d565b80638da5cb5b116100ff5780638da5cb5b1461051f57806391ba3f3f1461053d578063922a18021461055b578063a262c0ad14610577578063a7a10290146105955761023d565b80636b0620cc146104c7578063715018a6146104e35780637313ee5a146104ed5780638129fc1c1461050b5780638456cb59146105155761023d565b80632e2ce28b116101c95780634d1c61af1161018d5780634d1c61af1461040a5780634e71d92d1461043d578063525e915b1461045b5780635c975abb1461048b578063607af397146104a95761023d565b80632e2ce28b14610373578063351c67c11461039157806335ec066e146103af5780633f4ba83a146103e2578063499f8010146103ec5761023d565b80631b4d47a1116102105780631b4d47a1146102ca5780631b8ca217146102e85780631e828add146103195780632535a77f146103375780632d79320b146103555761023d565b806310d53df114610242578063138e6ad514610260578063150b7a021461027e5780631794bb3c146102ae575b600080fd5b61024a6106fb565b6040516102579190613c9a565b60405180910390f35b61026861070e565b6040516102759190613cce565b60405180910390f35b61029860048036038101906102939190613df6565b610714565b6040516102a59190613eb9565b60405180910390f35b6102c860048036038101906102c39190613ed4565b610797565b005b6102d2610993565b6040516102df9190613f36565b60405180910390f35b61030260048036038101906102fd9190613f51565b610999565b604051610310929190613f9a565b60405180910390f35b610321610a83565b60405161032e9190613c9a565b60405180910390f35b61033f610a96565b60405161034c9190613f36565b60405180910390f35b61035d610a9c565b60405161036a9190613fc3565b60405180910390f35b61037b610aaf565b6040516103889190613f36565b60405180910390f35b610399610ab5565b6040516103a69190613c9a565b60405180910390f35b6103c960048036038101906103c49190613f51565b610ac8565b6040516103d99493929190614012565b60405180910390f35b6103ea610b44565b005b6103f4610bca565b6040516104019190613f36565b60405180910390f35b610424600480360381019061041f9190613f51565b610bd0565b6040516104349493929190614012565b60405180910390f35b610445610c4c565b60405161045291906140b6565b60405180910390f35b61047560048036038101906104709190614107565b610c72565b6040516104829190614164565b60405180910390f35b610493610cb9565b6040516104a0919061419a565b60405180910390f35b6104b1610cd0565b6040516104be9190613f36565b60405180910390f35b6104e160048036038101906104dc919061444b565b610cd6565b005b6104eb610f38565b005b6104f5610fc0565b6040516105029190613f36565b60405180910390f35b610513610fc6565b005b61051d6110ba565b005b610527611140565b6040516105349190614525565b60405180910390f35b61054561116a565b6040516105529190613f36565b60405180910390f35b6105756004803603810190610570919061470d565b611170565b005b61057f611704565b60405161058c9190613c9a565b60405180910390f35b6105af60048036038101906105aa91906147bf565b611717565b005b6105b9611b24565b6040516105c69190613f36565b60405180910390f35b6105e960048036038101906105e4919061481f565b611b2a565b005b61060560048036038101906106009190614872565b611cfc565b6040516106129190613f36565b60405180910390f35b610623611d2d565b6040516106309190613cce565b60405180910390f35b610641611d33565b60405161064e9190613f36565b60405180910390f35b610671600480360381019061066c91906148b2565b611d39565b005b61068d60048036038101906106889190613f51565b6122c4565b60405161069a919061419a565b60405180910390f35b6106ab6123a3565b6040516106b89190613f36565b60405180910390f35b6106db60048036038101906106d69190614912565b6123a9565b005b6106e56124a1565b6040516106f29190613f36565b60405180910390f35b609d60009054906101000a900460000b81565b60ab5481565b60008073ffffffffffffffffffffffffffffffffffffffff168573ffffffffffffffffffffffffffffffffffffffff1614610784576040517f08c379a000000000000000000000000000000000000000000000000000000000815260040161077b906149c2565b60405180910390fd5b63150b7a0260e01b905095945050505050565b600060019054906101000a900460ff166107bf5760008054906101000a900460ff16156107c8565b6107c76124a7565b5b610807576040517f08c379a00000000000000000000000000000000000000000000000000000000081526004016107fe90614a54565b60405180910390fd5b60008060019054906101000a900460ff161590508015610857576001600060016101000a81548160ff02191690831515021790555060016000806101000a81548160ff0219169083151502179055505b61085f6124b8565b610867612519565b83609760006101000a81548173ffffffffffffffffffffffffffffffffffffffff021916908373ffffffffffffffffffffffffffffffffffffffff16021790555082609860006101000a81548173ffffffffffffffffffffffffffffffffffffffff021916908373ffffffffffffffffffffffffffffffffffffffff1602179055508160a0819055506000609d60006101000a81548160ff021916908360000b60ff1602179055506000609d60016101000a81548160ff021916908360000b60ff1602179055506000609d60026101000a81548160ff021916908360000b60ff1602179055506000609d60036101000a81548160ff021916908360000b60ff160217905550801561098d5760008060016101000a81548160ff0219169083151502179055505b50505050565b60a45481565b600080609760009054906101000a900473ffffffffffffffffffffffffffffffffffffffff1673ffffffffffffffffffffffffffffffffffffffff1663e05c57bf846040518263ffffffff1660e01b81526004016109f79190613f36565b61016060405180830381865afa158015610a15573d6000803e3d6000fd5b505050506040513d601f19601f82011682018060405250810190610a399190614ab3565b909192939495969798995090919293949596979850909192939495969750909192939495965090919293949550909192939450909192935090919250508092508193505050915091565b609d60019054906101000a900460000b81565b60a15481565b60aa60009054906101000a900460ff1681565b60a65481565b609d60039054906101000a900460000b81565b609a6020528060005260406000206000915090508060000154908060010160009054906101000a900473ffffffffffffffffffffffffffffffffffffffff16908060010160149054906101000a900469ffffffffffffffffffff16908060020160009054906101000a900469ffffffffffffffffffff16905084565b610b4c61257a565b73ffffffffffffffffffffffffffffffffffffffff16610b6a611140565b73ffffffffffffffffffffffffffffffffffffffff1614610bc0576040517f08c379a0000000000000000000000000000000000000000000000000000000008152600401610bb790614bf3565b60405180910390fd5b610bc8612582565b565b609f5481565b60996020528060005260406000206000915090508060000154908060010160009054906101000a900473ffffffffffffffffffffffffffffffffffffffff16908060010160149054906101000a900469ffffffffffffffffffff16908060020160009054906101000a900469ffffffffffffffffffff16905084565b609860009054906101000a900473ffffffffffffffffffffffffffffffffffffffff1681565b609c6020528160005260406000208181548110610c8e57600080fd5b9060005260206000209060109182820401919006600202915091509054906101000a900461ffff1681565b6000606560009054906101000a900460ff16905090565b60a95481565b610cde61257a565b73ffffffffffffffffffffffffffffffffffffffff16610cfc611140565b73ffffffffffffffffffffffffffffffffffffffff1614610d52576040517f08c379a0000000000000000000000000000000000000000000000000000000008152600401610d4990614bf3565b60405180910390fd5b670de0b6b3a764000087610d669190614c42565b60a481905550670de0b6b3a764000086600081518110610d8957610d88614c9c565b5b6020026020010151610d9b9190614c42565b60a58190555085600181518110610db557610db4614c9c565b5b602002602001015160a68190555085600281518110610dd757610dd6614c9c565b5b602002602001015160a28190555085600381518110610df957610df8614c9c565b5b602002602001015160a08190555084600081518110610e1b57610e1a614c9c565b5b6020026020010151609d60006101000a81548160ff021916908360000b60ff16021790555084600181518110610e5457610e53614c9c565b5b6020026020010151609d60016101000a81548160ff021916908360000b60ff16021790555084600281518110610e8d57610e8c614c9c565b5b6020026020010151609d60026101000a81548160ff021916908360000b60ff16021790555084600381518110610ec657610ec5614c9c565b5b6020026020010151609d60036101000a81548160ff021916908360000b60ff1602179055508360aa60006101000a81548160ff021916908360ff1602179055508260ab819055508160ac819055508060a360006101000a81548160ff021916908360ff16021790555050505050505050565b610f4061257a565b73ffffffffffffffffffffffffffffffffffffffff16610f5e611140565b73ffffffffffffffffffffffffffffffffffffffff1614610fb4576040517f08c379a0000000000000000000000000000000000000000000000000000000008152600401610fab90614bf3565b60405180910390fd5b610fbe6000612624565b565b60a25481565b600060019054906101000a900460ff16610fee5760008054906101000a900460ff1615610ff7565b610ff66124a7565b5b611036576040517f08c379a000000000000000000000000000000000000000000000000000000000815260040161102d90614a54565b60405180910390fd5b60008060019054906101000a900460ff161590508015611086576001600060016101000a81548160ff02191690831515021790555060016000806101000a81548160ff0219169083151502179055505b61108e6124b8565b611096612519565b80156110b75760008060016101000a81548160ff0219169083151502179055505b50565b6110c261257a565b73ffffffffffffffffffffffffffffffffffffffff166110e0611140565b73ffffffffffffffffffffffffffffffffffffffff1614611136576040517f08c379a000000000000000000000000000000000000000000000000000000000815260040161112d90614bf3565b60405180910390fd5b61113e6126ea565b565b6000603360009054906101000a900473ffffffffffffffffffffffffffffffffffffffff16905090565b60a55481565b611178610cb9565b156111b8576040517f08c379a00000000000000000000000000000000000000000000000000000000081526004016111af90614d17565b60405180910390fd5b609860009054906101000a900473ffffffffffffffffffffffffffffffffffffffff1673ffffffffffffffffffffffffffffffffffffffff163373ffffffffffffffffffffffffffffffffffffffff1614611248576040517f08c379a000000000000000000000000000000000000000000000000000000000815260040161123f90614d83565b60405180910390fd5b6000609c60008460000151815260200190815260200160002080549050116112a5576040517f08c379a000000000000000000000000000000000000000000000000000000000815260040161129c90614def565b60405180910390fd5b6000609c60008460000151815260200190815260200160002080548060200260200160405190810160405280929190818152602001828054801561133057602002820191906000526020600020906000905b82829054906101000a900461ffff1661ffff16815260200190600201906020826001010492830192600103820291508084116112f75790505b50505050509050609c600084600001518152602001908152602001600020600061135a9190613b8b565b6000805b82518110156116e5576000848260405160200161137c929190614e0f565b6040516020818303038152906040528051906020012060001c905060006113a88760400151600061278d565b90506113d18584815181106113c0576113bf614c9c565b5b602002602001015161ffff166122c4565b15611425576114138584815181106113ec576113eb614c9c565b5b602002602001015161ffff16886040015183158061140b575089608001515b841586612799565b8461141e9190614e38565b9350611467565b61145985848151811061143b5761143a614c9c565b5b602002602001015161ffff1688604001518960800151841586612be3565b846114649190614e38565b93505b60005b609b6000896040015173ffffffffffffffffffffffffffffffffffffffff1673ffffffffffffffffffffffffffffffffffffffff168152602001908152602001600020805490508110156116cf578584815181106114cb576114ca614c9c565b5b602002602001015161ffff16609b60008a6040015173ffffffffffffffffffffffffffffffffffffffff1673ffffffffffffffffffffffffffffffffffffffff168152602001908152602001600020828154811061152c5761152b614c9c565b5b906000526020600020015414156116bc57609b6000896040015173ffffffffffffffffffffffffffffffffffffffff1673ffffffffffffffffffffffffffffffffffffffff1681526020019081526020016000206001609b60008b6040015173ffffffffffffffffffffffffffffffffffffffff1673ffffffffffffffffffffffffffffffffffffffff168152602001908152602001600020805490506115d39190614e8e565b815481106115e4576115e3614c9c565b5b9060005260206000200154609b60008a6040015173ffffffffffffffffffffffffffffffffffffffff1673ffffffffffffffffffffffffffffffffffffffff168152602001908152602001600020828154811061164457611643614c9c565b5b9060005260206000200181905550609b6000896040015173ffffffffffffffffffffffffffffffffffffffff1673ffffffffffffffffffffffffffffffffffffffff1681526020019081526020016000208054806116a5576116a4614ec2565b5b600190038181906000526020600020016000905590555b80806116c790614ef1565b91505061146a565b50505080806116dd90614ef1565b91505061135e565b5060008111156116fe576116fd846040015182613034565b5b50505050565b609d60029054906101000a900460000b81565b61171f610cb9565b1561175f576040517f08c379a000000000000000000000000000000000000000000000000000000000815260040161175690614d17565b60405180910390fd5b60a360009054906101000a900460ff1660ff168383905011156117b7576040517f08c379a00000000000000000000000000000000000000000000000000000000081526004016117ae90614f86565b60405180910390fd5b60005b83839050811015611a4b5760006117fb8585848181106117dd576117dc614c9c565b5b90506020020160208101906117f29190614fa6565b61ffff166122c4565b61184257609a600086868581811061181657611815614c9c565b5b905060200201602081019061182b9190614fa6565b61ffff168152602001908152602001600020611881565b6099600086868581811061185957611858614c9c565b5b905060200201602081019061186e9190614fa6565b61ffff1681526020019081526020016000205b604051806080016040529081600082015481526020016001820160009054906101000a900473ffffffffffffffffffffffffffffffffffffffff1673ffffffffffffffffffffffffffffffffffffffff1673ffffffffffffffffffffffffffffffffffffffff1681526020016001820160149054906101000a900469ffffffffffffffffffff1669ffffffffffffffffffff1669ffffffffffffffffffff1681526020016002820160009054906101000a900469ffffffffffffffffffff1669ffffffffffffffffffff1669ffffffffffffffffffff1681525050905061196661257a565b73ffffffffffffffffffffffffffffffffffffffff16816020015173ffffffffffffffffffffffffffffffffffffffff16146119d7576040517f08c379a00000000000000000000000000000000000000000000000000000000081526004016119ce9061501f565b60405180910390fd5b60a254816060015169ffffffffffffffffffff16426119f69190614e8e565b1015611a37576040517f08c379a0000000000000000000000000000000000000000000000000000000008152600401611a2e9061508b565b60405180910390fd5b508080611a4390614ef1565b9150506117ba565b506000609860009054906101000a900473ffffffffffffffffffffffffffffffffffffffff1673ffffffffffffffffffffffffffffffffffffffff16635bdf263c611a9461257a565b8686866040518563ffffffff1660e01b8152600401611ab6949392919061516e565b6020604051808303816000875af1158015611ad5573d6000803e3d6000fd5b505050506040513d601f19601f82011682018060405250810190611af991906151c3565b90508383609c60008481526020019081526020016000209190611b1d929190613bb3565b5050505050565b60a75481565b600060019054906101000a900460ff16611b525760008054906101000a900460ff1615611b5b565b611b5a6124a7565b5b611b9a576040517f08c379a0000000000000000000000000000000000000000000000000000000008152600401611b9190614a54565b60405180910390fd5b60008060019054906101000a900460ff161590508015611bea576001600060016101000a81548160ff02191690831515021790555060016000806101000a81548160ff0219169083151502179055505b611bf26124b8565b611bfa612519565b600060a781905550600060a181905550600060a98190555083609760006101000a81548173ffffffffffffffffffffffffffffffffffffffff021916908373ffffffffffffffffffffffffffffffffffffffff16021790555082609860006101000a81548173ffffffffffffffffffffffffffffffffffffffff021916908373ffffffffffffffffffffffffffffffffffffffff1602179055508160ad60006101000a81548173ffffffffffffffffffffffffffffffffffffffff021916908373ffffffffffffffffffffffffffffffffffffffff1602179055508015611cf65760008060016101000a81548160ff0219169083151502179055505b50505050565b609b6020528160005260406000208181548110611d1857600080fd5b90600052602060002001600091509150505481565b60ac5481565b60a85481565b611d4161257a565b73ffffffffffffffffffffffffffffffffffffffff168373ffffffffffffffffffffffffffffffffffffffff161480611dce5750609760009054906101000a900473ffffffffffffffffffffffffffffffffffffffff1673ffffffffffffffffffffffffffffffffffffffff16611db661257a565b73ffffffffffffffffffffffffffffffffffffffff16145b611e0d576040517f08c379a0000000000000000000000000000000000000000000000000000000008152600401611e049061523c565b60405180910390fd5b60005b828290508110156122be57609760009054906101000a900473ffffffffffffffffffffffffffffffffffffffff1673ffffffffffffffffffffffffffffffffffffffff16611e5c61257a565b73ffffffffffffffffffffffffffffffffffffffff161461207257611e7f61257a565b73ffffffffffffffffffffffffffffffffffffffff16609760009054906101000a900473ffffffffffffffffffffffffffffffffffffffff1673ffffffffffffffffffffffffffffffffffffffff16636352211e858585818110611ee657611ee5614c9c565b5b9050602002016020810190611efb9190614fa6565b6040518263ffffffff1660e01b8152600401611f17919061528d565b602060405180830381865afa158015611f34573d6000803e3d6000fd5b505050506040513d601f19601f82011682018060405250810190611f5891906152bd565b73ffffffffffffffffffffffffffffffffffffffff1614611fae576040517f08c379a0000000000000000000000000000000000000000000000000000000008152600401611fa59061501f565b60405180910390fd5b609760009054906101000a900473ffffffffffffffffffffffffffffffffffffffff1673ffffffffffffffffffffffffffffffffffffffff166323b872dd611ff461257a565b3086868681811061200857612007614c9c565b5b905060200201602081019061201d9190614fa6565b6040518463ffffffff1660e01b815260040161203b939291906152ea565b600060405180830381600087803b15801561205557600080fd5b505af1158015612069573d6000803e3d6000fd5b505050506120ac565b600083838381811061208757612086614c9c565b5b905060200201602081019061209c9190614fa6565b61ffff1614156120ab576122ab565b5b6120e08383838181106120c2576120c1614c9c565b5b90506020020160208101906120d79190614fa6565b61ffff166130c7565b61211f576040517f08c379a00000000000000000000000000000000000000000000000000000000081526004016121169061536d565b60405180910390fd5b61215383838381811061213557612134614c9c565b5b905060200201602081019061214a9190614fa6565b61ffff166122c4565b156122745761218d8484848481811061216f5761216e614c9c565b5b90506020020160208101906121849190614fa6565b61ffff166130d2565b61219f61219861257a565b600161278d565b6121de576040517f08c379a00000000000000000000000000000000000000000000000000000000081526004016121d5906153d9565b60405180910390fd5b609b60008573ffffffffffffffffffffffffffffffffffffffff1673ffffffffffffffffffffffffffffffffffffffff1681526020019081526020016000208383838181106122305761222f614c9c565b5b90506020020160208101906122459190614fa6565b908060018154018082558091505060019003906000526020600020016000909161ffff169091909150556122aa565b6122a98484848481811061228b5761228a614c9c565b5b90506020020160208101906122a09190614fa6565b61ffff16613291565b5b5b80806122b690614ef1565b915050611e10565b50505050565b6000609760009054906101000a900473ffffffffffffffffffffffffffffffffffffffff1673ffffffffffffffffffffffffffffffffffffffff1663e05c57bf836040518263ffffffff1660e01b81526004016123219190613f36565b61016060405180830381865afa15801561233f573d6000803e3d6000fd5b505050506040513d601f19601f820116820180604052508101906123639190614ab3565b9091929394959697985090919293949596975090919293949596509091929394955090919293945090919293509091925090915090505080915050919050565b609e5481565b6123b161257a565b73ffffffffffffffffffffffffffffffffffffffff166123cf611140565b73ffffffffffffffffffffffffffffffffffffffff1614612425576040517f08c379a000000000000000000000000000000000000000000000000000000000815260040161241c90614bf3565b60405180910390fd5b600073ffffffffffffffffffffffffffffffffffffffff168173ffffffffffffffffffffffffffffffffffffffff161415612495576040517f08c379a000000000000000000000000000000000000000000000000000000000815260040161248c9061546b565b60405180910390fd5b61249e81612624565b50565b60a05481565b60006124b230613459565b15905090565b600060019054906101000a900460ff16612507576040517f08c379a00000000000000000000000000000000000000000000000000000000081526004016124fe906154fd565b60405180910390fd5b61250f61346c565b6125176134bd565b565b600060019054906101000a900460ff16612568576040517f08c379a000000000000000000000000000000000000000000000000000000000815260040161255f906154fd565b60405180910390fd5b61257061346c565b61257861351e565b565b600033905090565b61258a610cb9565b6125c9576040517f08c379a00000000000000000000000000000000000000000000000000000000081526004016125c090615569565b60405180910390fd5b6000606560006101000a81548160ff0219169083151502179055507f5db9ee0a495bf2e6ff9c91a7834c1ba4fdd244a5e8aa4e537bd38aeae4b073aa61260d61257a565b60405161261a9190614525565b60405180910390a1565b6000603360009054906101000a900473ffffffffffffffffffffffffffffffffffffffff16905081603360006101000a81548173ffffffffffffffffffffffffffffffffffffffff021916908373ffffffffffffffffffffffffffffffffffffffff1602179055508173ffffffffffffffffffffffffffffffffffffffff168173ffffffffffffffffffffffffffffffffffffffff167f8be0079c531659141344cd1fd0a4f28419497f9722a3daafe3b4186f6b6457e060405160405180910390a35050565b6126f2610cb9565b15612732576040517f08c379a000000000000000000000000000000000000000000000000000000000815260040161272990614d17565b60405180910390fd5b6001606560006101000a81548160ff0219169083151502179055507f62e78cea01bee320cd4e420270b5ea74000d11b0c9f74754ebdbfc544b05a25861277661257a565b6040516127839190614525565b60405180910390a1565b60006001905092915050565b60008060996000888152602001908152602001600020604051806080016040529081600082015481526020016001820160009054906101000a900473ffffffffffffffffffffffffffffffffffffffff1673ffffffffffffffffffffffffffffffffffffffff1673ffffffffffffffffffffffffffffffffffffffff1681526020016001820160149054906101000a900469ffffffffffffffffffff1669ffffffffffffffffffff1669ffffffffffffffffffff1681526020016002820160009054906101000a900469ffffffffffffffffffff1669ffffffffffffffffffff1669ffffffffffffffffffff168152505090508573ffffffffffffffffffffffffffffffffffffffff16816020015173ffffffffffffffffffffffffffffffffffffffff16146128fe576040517f08c379a00000000000000000000000000000000000000000000000000000000081526004016128f59061501f565b60405180910390fd5b836129115761290c8161358a565b612914565b60005b915060008060006129258a876136ee565b9250925092506129348a6130c7565b61293d57600197505b8715612a7057609760009054906101000a900473ffffffffffffffffffffffffffffffffffffffff1673ffffffffffffffffffffffffffffffffffffffff1663b88d4fde308b8d6040518463ffffffff1660e01b81526004016129a2939291906155c0565b600060405180830381600087803b1580156129bc57600080fd5b505af11580156129d0573d6000803e3d6000fd5b50505050609960008b81526020019081526020016000206000808201600090556001820160006101000a81549073ffffffffffffffffffffffffffffffffffffffff02191690556001820160146101000a81549069ffffffffffffffffffff02191690556002820160006101000a81549069ffffffffffffffffffff02191690555050609e6000815480929190612a669061560a565b9190505550612b91565b60405180608001604052808b61ffff1681526020018a73ffffffffffffffffffffffffffffffffffffffff1681526020014269ffffffffffffffffffff1681526020014269ffffffffffffffffffff16815250609960008c81526020019081526020016000206000820151816000015560208201518160010160006101000a81548173ffffffffffffffffffffffffffffffffffffffff021916908373ffffffffffffffffffffffffffffffffffffffff16021790555060408201518160010160146101000a81548169ffffffffffffffffffff021916908369ffffffffffffffffffff16021790555060608201518160020160006101000a81548169ffffffffffffffffffff021916908369ffffffffffffffffffff1602179055509050505b7f9b394c66bc4fdb2f56f5842a796076e6552d6f15eaacb6e63e3c53b474d872e98a868a86868660a154604051612bce97969594939291906156ab565b60405180910390a15050505095945050505050565b600080609a6000888152602001908152602001600020604051806080016040529081600082015481526020016001820160009054906101000a900473ffffffffffffffffffffffffffffffffffffffff1673ffffffffffffffffffffffffffffffffffffffff1673ffffffffffffffffffffffffffffffffffffffff1681526020016001820160149054906101000a900469ffffffffffffffffffff1669ffffffffffffffffffff1669ffffffffffffffffffff1681526020016002820160009054906101000a900469ffffffffffffffffffff1669ffffffffffffffffffff1669ffffffffffffffffffff168152505090508573ffffffffffffffffffffffffffffffffffffffff16816020015173ffffffffffffffffffffffffffffffffffffffff1614612d48576040517f08c379a0000000000000000000000000000000000000000000000000000000008152600401612d3f9061501f565b60405180910390fd5b83612d5b57612d5681613948565b612d5e565b60005b91506000806000612d6f8a876136ee565b925092509250612d7e8a6130c7565b612d8757600197505b8715612eba57609760009054906101000a900473ffffffffffffffffffffffffffffffffffffffff1673ffffffffffffffffffffffffffffffffffffffff1663b88d4fde308b8d6040518463ffffffff1660e01b8152600401612dec939291906155c0565b600060405180830381600087803b158015612e0657600080fd5b505af1158015612e1a573d6000803e3d6000fd5b50505050609a60008b81526020019081526020016000206000808201600090556001820160006101000a81549073ffffffffffffffffffffffffffffffffffffffff02191690556001820160146101000a81549069ffffffffffffffffffff02191690556002820160006101000a81549069ffffffffffffffffffff02191690555050609f6000815480929190612eb09061560a565b9190505550612fe2565b60405180608001604052808b61ffff1681526020018a73ffffffffffffffffffffffffffffffffffffffff168152602001612ef3613a5c565b69ffffffffffffffffffff1681526020014269ffffffffffffffffffff16815250609a60008c81526020019081526020016000206000820151816000015560208201518160010160006101000a81548173ffffffffffffffffffffffffffffffffffffffff021916908373ffffffffffffffffffffffffffffffffffffffff16021790555060408201518160010160146101000a81548169ffffffffffffffffffff021916908369ffffffffffffffffffff16021790555060608201518160020160006101000a81548169ffffffffffffffffffff021916908369ffffffffffffffffffff1602179055509050505b7f9be2cb7a62ca4aefdc81da57f848805cc67c86675da32b5a7be58bb615ba4f328a868a86868660a15460405161301f97969594939291906156ab565b60405180910390a15050505095945050505050565b60ad60009054906101000a900473ffffffffffffffffffffffffffffffffffffffff1673ffffffffffffffffffffffffffffffffffffffff166340c10f1983836040518363ffffffff1660e01b8152600401613091929190615721565b600060405180830381600087803b1580156130ab57600080fd5b505af11580156130bf573d6000803e3d6000fd5b505050505050565b600060019050919050565b6130da610cb9565b1561311a576040517f08c379a000000000000000000000000000000000000000000000000000000000815260040161311190614d17565b60405180910390fd5b60405180608001604052808261ffff1681526020018373ffffffffffffffffffffffffffffffffffffffff1681526020014269ffffffffffffffffffff1681526020014269ffffffffffffffffffff16815250609960008381526020019081526020016000206000820151816000015560208201518160010160006101000a81548173ffffffffffffffffffffffffffffffffffffffff021916908373ffffffffffffffffffffffffffffffffffffffff16021790555060408201518160010160146101000a81548169ffffffffffffffffffff021916908369ffffffffffffffffffff16021790555060608201518160020160006101000a81548169ffffffffffffffffffff021916908369ffffffffffffffffffff160217905550905050609e600081548092919061324d90614ef1565b91905055507f8af1bb49fb16c7835975aa59449ba4328dd54737dfb2ae9fa6c5eca71fda51f98183426040516132859392919061574a565b60405180910390a15050565b613299610cb9565b156132d9576040517f08c379a00000000000000000000000000000000000000000000000000000000081526004016132d090614d17565b60405180910390fd5b60405180608001604052808261ffff1681526020018373ffffffffffffffffffffffffffffffffffffffff168152602001613312613a5c565b69ffffffffffffffffffff1681526020014269ffffffffffffffffffff16815250609a60008381526020019081526020016000206000820151816000015560208201518160010160006101000a81548173ffffffffffffffffffffffffffffffffffffffff021916908373ffffffffffffffffffffffffffffffffffffffff16021790555060408201518160010160146101000a81548169ffffffffffffffffffff021916908369ffffffffffffffffffff16021790555060608201518160020160006101000a81548169ffffffffffffffffffff021916908369ffffffffffffffffffff160217905550905050609f600081548092919061341390614ef1565b91905055507f8af1bb49fb16c7835975aa59449ba4328dd54737dfb2ae9fa6c5eca71fda51f9818360a15460405161344d9392919061574a565b60405180910390a15050565b600080823b905060008111915050919050565b600060019054906101000a900460ff166134bb576040517f08c379a00000000000000000000000000000000000000000000000000000000081526004016134b2906154fd565b60405180910390fd5b565b600060019054906101000a900460ff1661350c576040517f08c379a0000000000000000000000000000000000000000000000000000000008152600401613503906154fd565b60405180910390fd5b61351c61351761257a565b612624565b565b600060019054906101000a900460ff1661356d576040517f08c379a0000000000000000000000000000000000000000000000000000000008152600401613564906154fd565b60405180910390fd5b6000606560006101000a81548160ff021916908315150217905550565b60008061359a8360000151610999565b5090506000836040015169ffffffffffffffffffff16426135bb9190614e8e565b905060a0548111156135cd5760a05490505b600060a0548260a5546135e09190614c42565b6135ea91906157b0565b90506000600a60aa60009054906101000a900460ff1660ff168560ff166136119190614c42565b61361b9190614c42565b620186a06136299190614e38565b9050620186a0818361363b9190614c42565b61364591906157b0565b945060a4548560a8546136589190614e38565b11156136715760a85460a45461366e9190614e8e565b94505b60008511156136e5574260a9819055506136a3606460a654876136949190614c42565b61369e91906157b0565b613a66565b606460a65460646136b49190614e8e565b866136bf9190614c42565b6136c991906157b0565b94508460a860008282546136dd9190614e38565b925050819055505b50505050919050565b6000806060600080609760009054906101000a900473ffffffffffffffffffffffffffffffffffffffff1673ffffffffffffffffffffffffffffffffffffffff1663e05c57bf886040518263ffffffff1660e01b81526004016137519190613f36565b61016060405180830381865afa15801561376f573d6000803e3d6000fd5b505050506040513d601f19601f820116820180604052508101906137939190614ab3565b9a5050505050505050505091506000826137d957609a600089815260200190815260200160002060020160009054906101000a900469ffffffffffffffffffff16613807565b6099600089815260200190815260200160002060020160009054906101000a900469ffffffffffffffffffff165b69ffffffffffffffffffff164261381e9190614e8e565b9050609760009054906101000a900473ffffffffffffffffffffffffffffffffffffffff1673ffffffffffffffffffffffffffffffffffffffff166363dbfc77896138948661387c57609d60029054906101000a900460000b61388d565b609d60009054906101000a900460000b5b8587613ace565b6138ca876138b157609d60039054906101000a900460000b6138c2565b609d60019054906101000a900460000b5b866000613ace565b8b6040518563ffffffff1660e01b81526004016138ea94939291906157e1565b6000604051808303816000875af1158015613909573d6000803e3d6000fd5b505050506040513d6000823e3d601f19601f8201168201806040525081019061393291906158cc565b8096508197508298505050505050509250925092565b6000806139588360000151610999565b9150506000836040015169ffffffffffffffffffff1660a15461397b9190614e8e565b905060006103e860ac5461398f919061593b565b60646103e860ab5460328760ff1611156139b5578660646139b09190615a52565b6139b7565b865b60000b6139c4919061593b565b6139ce919061593b565b6139d89190615a86565b6139e29190615af0565b9050620186a081836139f49190614c42565b6139fe91906157b0565b935060a4548460a854613a119190614e38565b1115613a2a5760a85460a454613a279190614e8e565b93505b6000841115613a54574260a9819055508360a86000828254613a4c9190614e38565b925050819055505b505050919050565b600060a154905090565b6000609f541415613a8f578060a76000828254613a839190614e38565b92505081905550613acb565b609f5460a75482613aa09190614e38565b613aaa91906157b0565b60a16000828254613abb9190614e38565b92505081905550600060a7819055505b50565b600060a054831115613ae05760a05492505b600060a0548560000b85613af4919061593b565b613afe9190615a86565b905060a0548410613b1b578260000b81613b189190615af0565b90505b6064811315613b2e576064915050613b84565b7fffffffffffffffffffffffffffffffffffffffffffffffffffffffffffffff9c811215613b7f577fffffffffffffffffffffffffffffffffffffffffffffffffffffffffffffff9c915050613b84565b809150505b9392505050565b50805460008255600f016010900490600052602060002090810190613bb09190613c61565b50565b82805482825590600052602060002090600f01601090048101928215613c505791602002820160005b83821115613c2057833561ffff1683826101000a81548161ffff021916908361ffff1602179055509260200192600201602081600101049283019260010302613bdc565b8015613c4e5782816101000a81549061ffff0219169055600201602081600101049283019260010302613c20565b505b509050613c5d9190613c61565b5090565b5b80821115613c7a576000816000905550600101613c62565b5090565b60008160000b9050919050565b613c9481613c7e565b82525050565b6000602082019050613caf6000830184613c8b565b92915050565b6000819050919050565b613cc881613cb5565b82525050565b6000602082019050613ce36000830184613cbf565b92915050565b6000604051905090565b600080fd5b600080fd5b600073ffffffffffffffffffffffffffffffffffffffff82169050919050565b6000613d2882613cfd565b9050919050565b613d3881613d1d565b8114613d4357600080fd5b50565b600081359050613d5581613d2f565b92915050565b6000819050919050565b613d6e81613d5b565b8114613d7957600080fd5b50565b600081359050613d8b81613d65565b92915050565b600080fd5b600080fd5b600080fd5b60008083601f840112613db657613db5613d91565b5b8235905067ffffffffffffffff811115613dd357613dd2613d96565b5b602083019150836001820283011115613def57613dee613d9b565b5b9250929050565b600080600080600060808688031215613e1257613e11613cf3565b5b6000613e2088828901613d46565b9550506020613e3188828901613d46565b9450506040613e4288828901613d7c565b935050606086013567ffffffffffffffff811115613e6357613e62613cf8565b5b613e6f88828901613da0565b92509250509295509295909350565b60007fffffffff0000000000000000000000000000000000000000000000000000000082169050919050565b613eb381613e7e565b82525050565b6000602082019050613ece6000830184613eaa565b92915050565b600080600060608486031215613eed57613eec613cf3565b5b6000613efb86828701613d46565b9350506020613f0c86828701613d46565b9250506040613f1d86828701613d7c565b9150509250925092565b613f3081613d5b565b82525050565b6000602082019050613f4b6000830184613f27565b92915050565b600060208284031215613f6757613f66613cf3565b5b6000613f7584828501613d7c565b91505092915050565b600060ff82169050919050565b613f9481613f7e565b82525050565b6000604082019050613faf6000830185613f8b565b613fbc6020830184613f8b565b9392505050565b6000602082019050613fd86000830184613f8b565b92915050565b613fe781613d1d565b82525050565b600069ffffffffffffffffffff82169050919050565b61400c81613fed565b82525050565b60006080820190506140276000830187613f27565b6140346020830186613fde565b6140416040830185614003565b61404e6060830184614003565b95945050505050565b6000819050919050565b600061407c61407761407284613cfd565b614057565b613cfd565b9050919050565b600061408e82614061565b9050919050565b60006140a082614083565b9050919050565b6140b081614095565b82525050565b60006020820190506140cb60008301846140a7565b92915050565b6000819050919050565b6140e4816140d1565b81146140ef57600080fd5b50565b600081359050614101816140db565b92915050565b6000806040838503121561411e5761411d613cf3565b5b600061412c858286016140f2565b925050602061413d85828601613d7c565b9150509250929050565b600061ffff82169050919050565b61415e81614147565b82525050565b60006020820190506141796000830184614155565b92915050565b60008115159050919050565b6141948161417f565b82525050565b60006020820190506141af600083018461418b565b92915050565b6000601f19601f8301169050919050565b7f4e487b7100000000000000000000000000000000000000000000000000000000600052604160045260246000fd5b6141fe826141b5565b810181811067ffffffffffffffff8211171561421d5761421c6141c6565b5b80604052505050565b6000614230613ce9565b905061423c82826141f5565b919050565b600067ffffffffffffffff82111561425c5761425b6141c6565b5b602082029050602081019050919050565b600061428061427b84614241565b614226565b905080838252602082019050602084028301858111156142a3576142a2613d9b565b5b835b818110156142cc57806142b88882613d7c565b8452602084019350506020810190506142a5565b5050509392505050565b600082601f8301126142eb576142ea613d91565b5b81356142fb84826020860161426d565b91505092915050565b600067ffffffffffffffff82111561431f5761431e6141c6565b5b602082029050602081019050919050565b61433981613c7e565b811461434457600080fd5b50565b60008135905061435681614330565b92915050565b600061436f61436a84614304565b614226565b9050808382526020820190506020840283018581111561439257614391613d9b565b5b835b818110156143bb57806143a78882614347565b845260208401935050602081019050614394565b5050509392505050565b600082601f8301126143da576143d9613d91565b5b81356143ea84826020860161435c565b91505092915050565b6143fc81613f7e565b811461440757600080fd5b50565b600081359050614419816143f3565b92915050565b61442881613cb5565b811461443357600080fd5b50565b6000813590506144458161441f565b92915050565b600080600080600080600060e0888a03121561446a57614469613cf3565b5b60006144788a828b01613d7c565b975050602088013567ffffffffffffffff81111561449957614498613cf8565b5b6144a58a828b016142d6565b965050604088013567ffffffffffffffff8111156144c6576144c5613cf8565b5b6144d28a828b016143c5565b95505060606144e38a828b0161440a565b94505060806144f48a828b01614436565b93505060a06145058a828b01614436565b92505060c06145168a828b0161440a565b91505092959891949750929550565b600060208201905061453a6000830184613fde565b92915050565b600080fd5b600080fd5b600067ffffffffffffffff821115614565576145646141c6565b5b602082029050602081019050919050565b61457f81614147565b811461458a57600080fd5b50565b60008135905061459c81614576565b92915050565b60006145b56145b08461454a565b614226565b905080838252602082019050602084028301858111156145d8576145d7613d9b565b5b835b8181101561460157806145ed888261458d565b8452602084019350506020810190506145da565b5050509392505050565b600082601f8301126146205761461f613d91565b5b81356146308482602086016145a2565b91505092915050565b6146428161417f565b811461464d57600080fd5b50565b60008135905061465f81614639565b92915050565b600060a0828403121561467b5761467a614540565b5b61468560a0614226565b90506000614695848285016140f2565b60008301525060206146a984828501613d46565b60208301525060406146bd84828501613d46565b604083015250606082013567ffffffffffffffff8111156146e1576146e0614545565b5b6146ed8482850161460b565b606083015250608061470184828501614650565b60808301525092915050565b6000806040838503121561472457614723613cf3565b5b600083013567ffffffffffffffff81111561474257614741613cf8565b5b61474e85828601614665565b925050602061475f85828601613d7c565b9150509250929050565b60008083601f84011261477f5761477e613d91565b5b8235905067ffffffffffffffff81111561479c5761479b613d96565b5b6020830191508360208202830111156147b8576147b7613d9b565b5b9250929050565b6000806000604084860312156147d8576147d7613cf3565b5b600084013567ffffffffffffffff8111156147f6576147f5613cf8565b5b61480286828701614769565b9350935050602061481586828701614650565b9150509250925092565b60008060006060848603121561483857614837613cf3565b5b600061484686828701613d46565b935050602061485786828701613d46565b925050604061486886828701613d46565b9150509250925092565b6000806040838503121561488957614888613cf3565b5b600061489785828601613d46565b92505060206148a885828601613d7c565b9150509250929050565b6000806000604084860312156148cb576148ca613cf3565b5b60006148d986828701613d46565b935050602084013567ffffffffffffffff8111156148fa576148f9613cf8565b5b61490686828701614769565b92509250509250925092565b60006020828403121561492857614927613cf3565b5b600061493684828501613d46565b91505092915050565b600082825260208201905092915050565b7f43616e6e6f742073656e6420746f6b656e7320746f2056656e7565206469726560008201527f63746c7900000000000000000000000000000000000000000000000000000000602082015250565b60006149ac60248361493f565b91506149b782614950565b604082019050919050565b600060208201905081810360008301526149db8161499f565b9050919050565b7f496e697469616c697a61626c653a20636f6e747261637420697320616c72656160008201527f647920696e697469616c697a6564000000000000000000000000000000000000602082015250565b6000614a3e602e8361493f565b9150614a49826149e2565b604082019050919050565b60006020820190508181036000830152614a6d81614a31565b9050919050565b600081519050614a8381614639565b92915050565b600081519050614a98816143f3565b92915050565b600081519050614aad81614330565b92915050565b60008060008060008060008060008060006101608c8e031215614ad957614ad8613cf3565b5b6000614ae78e828f01614a74565b9b50506020614af88e828f01614a89565b9a50506040614b098e828f01614a89565b9950506060614b1a8e828f01614a89565b9850506080614b2b8e828f01614a89565b97505060a0614b3c8e828f01614a89565b96505060c0614b4d8e828f01614a89565b95505060e0614b5e8e828f01614a89565b945050610100614b708e828f01614a89565b935050610120614b828e828f01614a89565b925050610140614b948e828f01614a9e565b9150509295989b509295989b9093969950565b7f4f776e61626c653a2063616c6c6572206973206e6f7420746865206f776e6572600082015250565b6000614bdd60208361493f565b9150614be882614ba7565b602082019050919050565b60006020820190508181036000830152614c0c81614bd0565b9050919050565b7f4e487b7100000000000000000000000000000000000000000000000000000000600052601160045260246000fd5b6000614c4d82613d5b565b9150614c5883613d5b565b9250817fffffffffffffffffffffffffffffffffffffffffffffffffffffffffffffffff0483118215151615614c9157614c90614c13565b5b828202905092915050565b7f4e487b7100000000000000000000000000000000000000000000000000000000600052603260045260246000fd5b7f5061757361626c653a2070617573656400000000000000000000000000000000600082015250565b6000614d0160108361493f565b9150614d0c82614ccb565b602082019050919050565b60006020820190508181036000830152614d3081614cf4565b9050919050565b7f4f6e6c7920436c61696d2063616e2066756c66696c6c00000000000000000000600082015250565b6000614d6d60168361493f565b9150614d7882614d37565b602082019050919050565b60006020820190508181036000830152614d9c81614d60565b9050919050565b7f436c61696d2072657175657374206e6f7420666f756e64000000000000000000600082015250565b6000614dd960178361493f565b9150614de482614da3565b602082019050919050565b60006020820190508181036000830152614e0881614dcc565b9050919050565b6000604082019050614e246000830185613f27565b614e316020830184613f27565b9392505050565b6000614e4382613d5b565b9150614e4e83613d5b565b9250827fffffffffffffffffffffffffffffffffffffffffffffffffffffffffffffffff03821115614e8357614e82614c13565b5b828201905092915050565b6000614e9982613d5b565b9150614ea483613d5b565b925082821015614eb757614eb6614c13565b5b828203905092915050565b7f4e487b7100000000000000000000000000000000000000000000000000000000600052603160045260246000fd5b6000614efc82613d5b565b91507fffffffffffffffffffffffffffffffffffffffffffffffffffffffffffffffff821415614f2f57614f2e614c13565b5b600182019050919050565b7f496e76616c696420636c61696d20616d6f756e74000000000000000000000000600082015250565b6000614f7060148361493f565b9150614f7b82614f3a565b602082019050919050565b60006020820190508181036000830152614f9f81614f63565b9050919050565b600060208284031215614fbc57614fbb613cf3565b5b6000614fca8482850161458d565b91505092915050565b7f4e6f7420796f757220746f6b656e000000000000000000000000000000000000600082015250565b6000615009600e8361493f565b915061501482614fd3565b602082019050919050565b6000602082019050818103600083015261503881614ffc565b9050919050565b7f43616e6e6f7420636c61696d206265666f726520454f42000000000000000000600082015250565b600061507560178361493f565b91506150808261503f565b602082019050919050565b600060208201905081810360008301526150a481615068565b9050919050565b600082825260208201905092915050565b6000819050919050565b6150cf81614147565b82525050565b60006150e183836150c6565b60208301905092915050565b60006150fc602084018461458d565b905092915050565b6000602082019050919050565b600061511d83856150ab565b9350615128826150bc565b8060005b858110156151615761513e82846150ed565b61514888826150d5565b975061515383615104565b92505060018101905061512c565b5085925050509392505050565b60006060820190506151836000830187613fde565b8181036020830152615196818587615111565b90506151a5604083018461418b565b95945050505050565b6000815190506151bd816140db565b92915050565b6000602082840312156151d9576151d8613cf3565b5b60006151e7848285016151ae565b91505092915050565b7f446f206e6f74206c6f736520796f757220746f6b656e73000000000000000000600082015250565b600061522660178361493f565b9150615231826151f0565b602082019050919050565b6000602082019050818103600083015261525581615219565b9050919050565b600061527761527261526d84614147565b614057565b613d5b565b9050919050565b6152878161525c565b82525050565b60006020820190506152a2600083018461527e565b92915050565b6000815190506152b781613d2f565b92915050565b6000602082840312156152d3576152d2613cf3565b5b60006152e1848285016152a8565b91505092915050565b60006060820190506152ff6000830186613fde565b61530c6020830185613fde565b615319604083018461527e565b949350505050565b7f4e6f7420656c696769626c650000000000000000000000000000000000000000600082015250565b6000615357600c8361493f565b915061536282615321565b602082019050919050565b600060208201905081810360008301526153868161534a565b9050919050565b7f4b69746368656e20737061636520726571756972656400000000000000000000600082015250565b60006153c360168361493f565b91506153ce8261538d565b602082019050919050565b600060208201905081810360008301526153f2816153b6565b9050919050565b7f4f776e61626c653a206e6577206f776e657220697320746865207a65726f206160008201527f6464726573730000000000000000000000000000000000000000000000000000602082015250565b600061545560268361493f565b9150615460826153f9565b604082019050919050565b6000602082019050818103600083015261548481615448565b9050919050565b7f496e697469616c697a61626c653a20636f6e7472616374206973206e6f74206960008201527f6e697469616c697a696e67000000000000000000000000000000000000000000602082015250565b60006154e7602b8361493f565b91506154f28261548b565b604082019050919050565b60006020820190508181036000830152615516816154da565b9050919050565b7f5061757361626c653a206e6f7420706175736564000000000000000000000000600082015250565b600061555360148361493f565b915061555e8261551d565b602082019050919050565b6000602082019050818103600083015261558281615546565b9050919050565b600082825260208201905092915050565b50565b60006155aa600083615589565b91506155b58261559a565b600082019050919050565b60006080820190506155d56000830186613fde565b6155e26020830185613fde565b6155ef6040830184613f27565b81810360608301526156008161559d565b9050949350505050565b600061561582613d5b565b9150600082141561562957615628614c13565b5b600182039050919050565b600081519050919050565b60005b8381101561565d578082015181840152602081019050615642565b8381111561566c576000848401525b50505050565b600061567d82615634565b615687818561493f565b935061569781856020860161563f565b6156a0816141b5565b840191505092915050565b600060e0820190506156c0600083018a613f27565b6156cd6020830189613f27565b6156da604083018861418b565b6156e76060830187613f8b565b6156f46080830186613f8b565b81810360a08301526157068185615672565b905061571560c0830184613f27565b98975050505050505050565b60006040820190506157366000830185613fde565b6157436020830184613f27565b9392505050565b600060608201905061575f6000830186613f27565b61576c6020830185613fde565b6157796040830184613f27565b949350505050565b7f4e487b7100000000000000000000000000000000000000000000000000000000600052601260045260246000fd5b60006157bb82613d5b565b91506157c683613d5b565b9250826157d6576157d5615781565b5b828204905092915050565b60006080820190506157f66000830187613f27565b6158036020830186613c8b565b6158106040830185613c8b565b61581d6060830184613f27565b95945050505050565b600080fd5b600067ffffffffffffffff821115615846576158456141c6565b5b61584f826141b5565b9050602081019050919050565b600061586f61586a8461582b565b614226565b90508281526020810184848401111561588b5761588a615826565b5b61589684828561563f565b509392505050565b600082601f8301126158b3576158b2613d91565b5b81516158c384826020860161585c565b91505092915050565b6000806000606084860312156158e5576158e4613cf3565b5b60006158f386828701614a89565b935050602061590486828701614a89565b925050604084015167ffffffffffffffff81111561592557615924613cf8565b5b6159318682870161589e565b9150509250925092565b600061594682613cb5565b915061595183613cb5565b9250827f7fffffffffffffffffffffffffffffffffffffffffffffffffffffffffffffff04821160008413600084131616156159905761598f614c13565b5b817f800000000000000000000000000000000000000000000000000000000000000005831260008412600084131616156159cd576159cc614c13565b5b827f80000000000000000000000000000000000000000000000000000000000000000582126000841360008412161615615a0a57615a09614c13565b5b827f7fffffffffffffffffffffffffffffffffffffffffffffffffffffffffffffff0582126000841260008412161615615a4757615a46614c13565b5b828202905092915050565b6000615a5d82613f7e565b9150615a6883613f7e565b925082821015615a7b57615a7a614c13565b5b828203905092915050565b6000615a9182613cb5565b9150615a9c83613cb5565b925082615aac57615aab615781565b5b600160000383147f800000000000000000000000000000000000000000000000000000000000000083141615615ae557615ae4614c13565b5b828205905092915050565b6000615afb82613cb5565b9150615b0683613cb5565b9250817f7fffffffffffffffffffffffffffffffffffffffffffffffffffffffffffffff03831360008312151615615b4157615b40614c13565b5b817f8000000000000000000000000000000000000000000000000000000000000000038312600083121615615b7957615b78614c13565b5b82820190509291505056fea26469706673582212202c0e46afbd9ce06aa19ceb0edcf8840058e0cbfcf895a0eda5ab943632cc0ea564736f6c634300080a0033",
  "immutableReferences": {},
  "source": "// SPDX-License-Identifier: MIT\n\npragma solidity ^0.8.0;\n\nimport \"./Kitchen.sol\";\nimport \"./FastFood.sol\";\n\ncontract McStake is Kitchen {\n  FastFood foodToken; // Reference to the $FFOOD contract\n\n  function initialize(\n    address _character,\n    address _claim,\n    address _foodToken\n  ) external initializer {\n    __Ownable_init();\n    __Pausable_init();\n\n    unaccountedRewards = 0;\n    foodTokensPerRat = 0;\n    lastClaimTimestamp = 0;\n\n    character = Character(_character);\n    claim = IClaim(_claim);\n    foodToken = FastFood(_foodToken);\n  }\n\n  /**\n   * Allows DAO to update game parameters\n   */\n  function configure(\n    uint256 _foodTokenMaxSupply,\n    uint256[] memory _earningSettings, // dailyChefEarnings, ratTheftPercentage, vestingPeriod, accrualPeriod\n    int8[] memory _propertyIncrements, // dailySkillRate, dailyFreakRate, dailyIntelligenceRate, dailyBodyMassRate\n    uint8 _chefEfficiencyMultiplier,\n    int256 _ratEfficiencyMultiplier,\n    int256 _ratEfficiencyOffset,\n    uint8 _maxClaimsPerTx\n  ) external onlyOwner {\n    foodTokenMaxSupply = _foodTokenMaxSupply * 1 ether;\n    dailyChefEarnings = _earningSettings[0] * 1 ether;\n    ratTheftPercentage = _earningSettings[1];\n    vestingPeriod = _earningSettings[2];\n    accrualPeriod = _earningSettings[3];\n    dailySkillRate = _propertyIncrements[0];\n    dailyFreakRate = _propertyIncrements[1];\n    dailyIntelligenceRate = _propertyIncrements[2];\n    dailyBodyMassRate = _propertyIncrements[3];\n    chefEfficiencyMultiplier = _chefEfficiencyMultiplier;\n    ratEfficiencyMultiplier = _ratEfficiencyMultiplier;\n    ratEfficiencyOffset = _ratEfficiencyOffset;\n    maxClaimsPerTx = _maxClaimsPerTx;\n  }\n\n  /**\n   * Mints the given amount of food tokens in the user's account\n   * @param sender - User wallet address\n   * @param amount - Amount of food tokens to mint\n   */\n  function _mintFoodToken(address sender, uint256 amount) internal override {\n    foodToken.mint(sender, amount);\n  }\n}\n",
  "sourcePath": "/Users/chris/workspace/ratalert/ratalert-contracts/contracts/McStake.sol",
  "compiler": {
    "name": "solc",
    "version": "0.8.10+commit.fc410830.Emscripten.clang"
  },
  "schemaVersion": "3.4.6",
  "updatedAt": "2022-03-29T21:46:41.952Z",
  "networkType": "ethereum",
  "devdoc": {
    "kind": "dev",
    "methods": {
      "claimMany(uint16[],bool)": {
        "params": {
          "tokenIds": "- The IDs of the tokens in question",
          "unstake": "- Whether or not to unstake the given tokens"
        }
      },
      "fulfillClaimMany((bytes32,address,address,uint16[],bool),uint256)": {
        "params": {
          "randomness": "- Random value created by VRF",
          "v": "- VRF struct for the corresponding request"
        }
      },
      "getProperties(uint256)": {
        "params": {
          "tokenId": "- The ID of the token to check"
        },
        "returns": {
          "efficiency": "& tolerance values"
        }
      },
      "isChef(uint256)": {
        "params": {
          "tokenId": "- The ID of the token to check"
        },
        "returns": {
          "chef": "- Whether or not the token is a Chef"
        }
      },
      "owner()": {
        "details": "Returns the address of the current owner."
      },
      "paused()": {
        "details": "Returns true if the contract is paused, and false otherwise."
      },
      "renounceOwnership()": {
        "details": "Leaves the contract without owner. It will not be possible to call `onlyOwner` functions anymore. Can only be called by the current owner. NOTE: Renouncing ownership will leave the contract without an owner, thereby removing any functionality that is only available to the owner."
      },
      "stakeMany(address,uint16[])": {
        "params": {
          "account": "- The address of the staker",
          "tokenIds": "- The IDs of the Chefs & Rats to stake"
        }
      },
      "transferOwnership(address)": {
        "details": "Transfers ownership of the contract to a new account (`newOwner`). Can only be called by the current owner."
      }
    },
    "version": 1
  },
  "userdoc": {
    "kind": "user",
    "methods": {
      "claimMany(uint16[],bool)": {
        "notice": "ChainLink VRF request: Claims food token earnings, level-ups and optionally unstake characters"
      },
      "configure(uint256,uint256[],int8[],uint8,int256,int256,uint8)": {
        "notice": "Allows DAO to update game parameters"
      },
      "fulfillClaimMany((bytes32,address,address,uint16[],bool),uint256)": {
        "notice": "Callback for claimMany(), called by Claim.fulfillRandomness()"
      },
      "getProperties(uint256)": {
        "notice": "Get the character's properties"
      },
      "isChef(uint256)": {
        "notice": "Checks if the token is a Chef"
      },
      "stakeMany(address,uint16[])": {
        "notice": "Adds Characters to staking"
      }
    },
    "version": 1
  }
}