{
  "contractName": "McStake",
  "abi": [
    {
      "anonymous": false,
      "inputs": [
        {
          "indexed": false,
          "internalType": "uint256",
          "name": "tokenId",
          "type": "uint256"
        },
        {
          "indexed": false,
          "internalType": "uint256",
          "name": "earned",
          "type": "uint256"
        },
        {
          "indexed": false,
          "internalType": "bool",
          "name": "unstaked",
          "type": "bool"
        },
        {
          "indexed": false,
          "internalType": "uint8",
          "name": "skill",
          "type": "uint8"
        },
        {
          "indexed": false,
          "internalType": "uint8",
          "name": "freak",
          "type": "uint8"
        },
        {
          "indexed": false,
          "internalType": "string",
          "name": "eventName",
          "type": "string"
        },
        {
          "indexed": false,
          "internalType": "uint256",
          "name": "foodTokensPerRat",
          "type": "uint256"
        }
      ],
      "name": "ChefClaimed",
      "type": "event"
    },
    {
      "anonymous": false,
      "inputs": [
        {
          "indexed": true,
          "internalType": "address",
          "name": "previousOwner",
          "type": "address"
        },
        {
          "indexed": true,
          "internalType": "address",
          "name": "newOwner",
          "type": "address"
        }
      ],
      "name": "OwnershipTransferred",
      "type": "event"
    },
    {
      "anonymous": false,
      "inputs": [
        {
          "indexed": false,
          "internalType": "address",
          "name": "account",
          "type": "address"
        }
      ],
      "name": "Paused",
      "type": "event"
    },
    {
      "anonymous": false,
      "inputs": [
        {
          "indexed": false,
          "internalType": "uint256",
          "name": "tokenId",
          "type": "uint256"
        },
        {
          "indexed": false,
          "internalType": "uint256",
          "name": "earned",
          "type": "uint256"
        },
        {
          "indexed": false,
          "internalType": "bool",
          "name": "unstaked",
          "type": "bool"
        },
        {
          "indexed": false,
          "internalType": "uint8",
          "name": "intelligence",
          "type": "uint8"
        },
        {
          "indexed": false,
          "internalType": "uint8",
          "name": "bodyMass",
          "type": "uint8"
        },
        {
          "indexed": false,
          "internalType": "string",
          "name": "eventName",
          "type": "string"
        },
        {
          "indexed": false,
          "internalType": "uint256",
          "name": "foodTokensPerRat",
          "type": "uint256"
        }
      ],
      "name": "RatClaimed",
      "type": "event"
    },
    {
      "anonymous": false,
      "inputs": [
        {
          "indexed": false,
          "internalType": "uint256",
          "name": "tokenId",
          "type": "uint256"
        },
        {
          "indexed": false,
          "internalType": "address",
          "name": "owner",
          "type": "address"
        },
        {
          "indexed": false,
          "internalType": "uint256",
          "name": "value",
          "type": "uint256"
        }
      ],
      "name": "TokenStaked",
      "type": "event"
    },
    {
      "anonymous": false,
      "inputs": [
        {
          "indexed": false,
          "internalType": "address",
          "name": "account",
          "type": "address"
        }
      ],
      "name": "Unpaused",
      "type": "event"
    },
    {
      "inputs": [
        {
          "internalType": "uint256",
          "name": "",
          "type": "uint256"
        }
      ],
      "name": "chefs",
      "outputs": [
        {
          "internalType": "uint256",
          "name": "tokenId",
          "type": "uint256"
        },
        {
          "internalType": "address",
          "name": "owner",
          "type": "address"
        },
        {
          "internalType": "uint80",
          "name": "value",
          "type": "uint80"
        },
        {
          "internalType": "uint80",
          "name": "timestamp",
          "type": "uint80"
        }
      ],
      "stateMutability": "view",
      "type": "function"
    },
    {
      "inputs": [
        {
          "internalType": "uint16[]",
          "name": "tokenIds",
          "type": "uint16[]"
        },
        {
          "internalType": "bool",
          "name": "unstake",
          "type": "bool"
        }
      ],
      "name": "claimMany",
      "outputs": [],
      "stateMutability": "payable",
      "type": "function"
    },
    {
      "inputs": [],
      "name": "foodTokensPerRat",
      "outputs": [
        {
          "internalType": "uint256",
          "name": "",
          "type": "uint256"
        }
      ],
      "stateMutability": "view",
      "type": "function"
    },
    {
      "inputs": [
        {
          "components": [
            {
              "internalType": "bytes32",
              "name": "requestId",
              "type": "bytes32"
            },
            {
              "internalType": "address",
              "name": "venue",
              "type": "address"
            },
            {
              "internalType": "address",
              "name": "sender",
              "type": "address"
            },
            {
              "internalType": "uint16[]",
              "name": "tokenIds",
              "type": "uint16[]"
            },
            {
              "internalType": "bool",
              "name": "unstake",
              "type": "bool"
            }
          ],
          "internalType": "struct IClaim.VRFStruct",
          "name": "v",
          "type": "tuple"
        },
        {
          "internalType": "uint256",
          "name": "randomness",
          "type": "uint256"
        }
      ],
      "name": "fulfillClaimMany",
      "outputs": [],
      "stateMutability": "nonpayable",
      "type": "function"
    },
    {
      "inputs": [
        {
          "internalType": "address",
          "name": "account",
          "type": "address"
        }
      ],
      "name": "getChefsStaked",
      "outputs": [
        {
          "internalType": "uint256",
          "name": "",
          "type": "uint256"
        }
      ],
      "stateMutability": "view",
      "type": "function"
    },
    {
      "inputs": [],
      "name": "lastClaimTimestamp",
      "outputs": [
        {
          "internalType": "uint256",
          "name": "",
          "type": "uint256"
        }
      ],
      "stateMutability": "view",
      "type": "function"
    },
    {
      "inputs": [
        {
          "internalType": "address",
          "name": "",
          "type": "address"
        },
        {
          "internalType": "address",
          "name": "from",
          "type": "address"
        },
        {
          "internalType": "uint256",
          "name": "",
          "type": "uint256"
        },
        {
          "internalType": "bytes",
          "name": "",
          "type": "bytes"
        }
      ],
      "name": "onERC721Received",
      "outputs": [
        {
          "internalType": "bytes4",
          "name": "",
          "type": "bytes4"
        }
      ],
      "stateMutability": "pure",
      "type": "function"
    },
    {
      "inputs": [],
      "name": "owner",
      "outputs": [
        {
          "internalType": "address",
          "name": "",
          "type": "address"
        }
      ],
      "stateMutability": "view",
      "type": "function"
    },
    {
      "inputs": [],
      "name": "pause",
      "outputs": [],
      "stateMutability": "nonpayable",
      "type": "function"
    },
    {
      "inputs": [],
      "name": "paused",
      "outputs": [
        {
          "internalType": "bool",
          "name": "",
          "type": "bool"
        }
      ],
      "stateMutability": "view",
      "type": "function"
    },
    {
      "inputs": [
        {
          "internalType": "uint256",
          "name": "",
          "type": "uint256"
        }
      ],
      "name": "rats",
      "outputs": [
        {
          "internalType": "uint256",
          "name": "tokenId",
          "type": "uint256"
        },
        {
          "internalType": "address",
          "name": "owner",
          "type": "address"
        },
        {
          "internalType": "uint80",
          "name": "value",
          "type": "uint80"
        },
        {
          "internalType": "uint80",
          "name": "timestamp",
          "type": "uint80"
        }
      ],
      "stateMutability": "view",
      "type": "function"
    },
    {
      "inputs": [],
      "name": "renounceOwnership",
      "outputs": [],
      "stateMutability": "nonpayable",
      "type": "function"
    },
    {
      "inputs": [
        {
          "internalType": "address",
          "name": "_dao",
          "type": "address"
        }
      ],
      "name": "setDao",
      "outputs": [],
      "stateMutability": "nonpayable",
      "type": "function"
    },
    {
      "inputs": [
        {
          "internalType": "address",
          "name": "account",
          "type": "address"
        },
        {
          "internalType": "uint16[]",
          "name": "tokenIds",
          "type": "uint16[]"
        }
      ],
      "name": "stakeMany",
      "outputs": [],
      "stateMutability": "nonpayable",
      "type": "function"
    },
    {
      "inputs": [
        {
          "internalType": "address",
          "name": "",
          "type": "address"
        },
        {
          "internalType": "uint256",
          "name": "",
          "type": "uint256"
        }
      ],
      "name": "stakers",
      "outputs": [
        {
          "internalType": "uint256",
          "name": "",
          "type": "uint256"
        }
      ],
      "stateMutability": "view",
      "type": "function"
    },
    {
      "inputs": [],
      "name": "totalChefsStaked",
      "outputs": [
        {
          "internalType": "uint256",
          "name": "",
          "type": "uint256"
        }
      ],
      "stateMutability": "view",
      "type": "function"
    },
    {
      "inputs": [],
      "name": "totalFoodTokensEarned",
      "outputs": [
        {
          "internalType": "uint256",
          "name": "",
          "type": "uint256"
        }
      ],
      "stateMutability": "view",
      "type": "function"
    },
    {
      "inputs": [],
      "name": "totalRatsStaked",
      "outputs": [
        {
          "internalType": "uint256",
          "name": "",
          "type": "uint256"
        }
      ],
      "stateMutability": "view",
      "type": "function"
    },
    {
      "inputs": [
        {
          "internalType": "address",
          "name": "newOwner",
          "type": "address"
        }
      ],
      "name": "transferOwnership",
      "outputs": [],
      "stateMutability": "nonpayable",
      "type": "function"
    },
    {
      "inputs": [],
      "name": "unaccountedRewards",
      "outputs": [
        {
          "internalType": "uint256",
          "name": "",
          "type": "uint256"
        }
      ],
      "stateMutability": "view",
      "type": "function"
    },
    {
      "inputs": [],
      "name": "unpause",
      "outputs": [],
      "stateMutability": "nonpayable",
      "type": "function"
    },
    {
      "inputs": [],
      "name": "withdrawPayments",
      "outputs": [],
      "stateMutability": "nonpayable",
      "type": "function"
    },
    {
      "inputs": [
        {
          "internalType": "address",
          "name": "_character",
          "type": "address"
        },
        {
          "internalType": "address",
          "name": "_claim",
          "type": "address"
        },
        {
          "internalType": "uint256",
          "name": "_accrualPeriod",
          "type": "uint256"
        }
      ],
      "name": "initialize",
      "outputs": [],
      "stateMutability": "nonpayable",
      "type": "function"
    },
    {
      "inputs": [],
      "name": "initialize",
      "outputs": [],
      "stateMutability": "nonpayable",
      "type": "function"
    },
    {
      "inputs": [
        {
          "internalType": "address",
          "name": "_character",
          "type": "address"
        },
        {
          "internalType": "address",
          "name": "_claim",
          "type": "address"
        },
        {
          "internalType": "address",
          "name": "_foodToken",
          "type": "address"
        }
      ],
      "name": "initialize",
      "outputs": [],
      "stateMutability": "nonpayable",
      "type": "function"
    },
    {
      "inputs": [
        {
          "internalType": "uint256",
          "name": "_foodTokenMaxSupply",
          "type": "uint256"
        },
        {
          "internalType": "uint256[]",
          "name": "_earningSettings",
          "type": "uint256[]"
        },
        {
          "internalType": "int8[]",
          "name": "_propertyIncrements",
          "type": "int8[]"
        },
        {
          "internalType": "uint8",
          "name": "_chefEfficiencyMultiplier",
          "type": "uint8"
        },
        {
          "internalType": "int256",
          "name": "_ratEfficiencyMultiplier",
          "type": "int256"
        },
        {
          "internalType": "int256",
          "name": "_ratEfficiencyOffset",
          "type": "int256"
        },
        {
          "internalType": "uint8",
          "name": "_maxClaimsPerTx",
          "type": "uint8"
        },
        {
          "internalType": "uint256",
          "name": "_claimFee",
          "type": "uint256"
        }
      ],
      "name": "configure",
      "outputs": [],
      "stateMutability": "nonpayable",
      "type": "function"
    }
  ],
  "bytecode": "0x608060405234801561001057600080fd5b50615c0480620000216000396000f3fe6080604052600436106101815760003560e01c8063715018a6116100d1578063c0c472c01161008a578063d8dda92e11610064578063d8dda92e1461051b578063dbdc1f6b14610546578063f26667461461056f578063f2fde38b1461059a57610181565b8063c0c472c01461048a578063c0c53b8b146104b5578063c8b6cbf7146104de57610181565b8063715018a6146103d55780638129fc1c146103ec5780638456cb59146104035780638da5cb5b1461041a578063922a180214610445578063a7a102901461046e57610181565b8063499f80101161013e5780635c975abb116101185780635c975abb1461033f578063607af3971461036a5780636103d70b146103955780636637b882146103ac57610181565b8063499f8010146102975780634c4913ec146102c25780634d1c61af146102ff57610181565b8063150b7a02146101865780631794bb3c146101c35780632535a77f146101ec5780632d4954fc1461021757806335ec066e146102405780633f4ba83a14610280575b600080fd5b34801561019257600080fd5b506101ad60048036038101906101a89190613e4c565b6105c3565b6040516101ba9190613f0f565b60405180910390f35b3480156101cf57600080fd5b506101ea60048036038101906101e59190613f2a565b610646565b005b3480156101f857600080fd5b50610201610842565b60405161020e9190613f8c565b60405180910390f35b34801561022357600080fd5b5061023e60048036038101906102399190614261565b610848565b005b34801561024c57600080fd5b506102676004803603810190610262919061434f565b610ab2565b60405161027794939291906143b0565b60405180910390f35b34801561028c57600080fd5b50610295610b2e565b005b3480156102a357600080fd5b506102ac610b40565b6040516102b99190613f8c565b60405180910390f35b3480156102ce57600080fd5b506102e960048036038101906102e491906143f5565b610b46565b6040516102f69190613f8c565b60405180910390f35b34801561030b57600080fd5b506103266004803603810190610321919061434f565b610b92565b60405161033694939291906143b0565b60405180910390f35b34801561034b57600080fd5b50610354610c0e565b604051610361919061443d565b60405180910390f35b34801561037657600080fd5b5061037f610c25565b60405161038c9190613f8c565b60405180910390f35b3480156103a157600080fd5b506103aa610c2b565b005b3480156103b857600080fd5b506103d360048036038101906103ce91906143f5565b610c9e565b005b3480156103e157600080fd5b506103ea610d5e565b005b3480156103f857600080fd5b50610401610de6565b005b34801561040f57600080fd5b50610418610eda565b005b34801561042657600080fd5b5061042f610eec565b60405161043c9190614458565b60405180910390f35b34801561045157600080fd5b5061046c60048036038101906104679190614684565b610f16565b005b61048860048036038101906104839190614736565b6114fd565b005b34801561049657600080fd5b5061049f6119c3565b6040516104ac9190613f8c565b60405180910390f35b3480156104c157600080fd5b506104dc60048036038101906104d79190614796565b6119c9565b005b3480156104ea57600080fd5b50610505600480360381019061050091906147e9565b611b9b565b6040516105129190613f8c565b60405180910390f35b34801561052757600080fd5b50610530611bcc565b60405161053d9190613f8c565b60405180910390f35b34801561055257600080fd5b5061056d60048036038101906105689190614829565b611bd2565b005b34801561057b57600080fd5b50610584612251565b6040516105919190613f8c565b60405180910390f35b3480156105a657600080fd5b506105c160048036038101906105bc91906143f5565b612257565b005b60008073ffffffffffffffffffffffffffffffffffffffff168573ffffffffffffffffffffffffffffffffffffffff1614610633576040517f08c379a000000000000000000000000000000000000000000000000000000000815260040161062a9061490c565b60405180910390fd5b63150b7a0260e01b905095945050505050565b600060019054906101000a900460ff1661066e5760008054906101000a900460ff1615610677565b61067661234f565b5b6106b6576040517f08c379a00000000000000000000000000000000000000000000000000000000081526004016106ad9061499e565b60405180910390fd5b60008060019054906101000a900460ff161590508015610706576001600060016101000a81548160ff02191690831515021790555060016000806101000a81548160ff0219169083151502179055505b61070e612360565b6107166123b9565b83609860006101000a81548173ffffffffffffffffffffffffffffffffffffffff021916908373ffffffffffffffffffffffffffffffffffffffff16021790555082609960006101000a81548173ffffffffffffffffffffffffffffffffffffffff021916908373ffffffffffffffffffffffffffffffffffffffff1602179055508160a2819055506000609e60006101000a81548160ff021916908360000b60ff1602179055506000609e60016101000a81548160ff021916908360000b60ff1602179055506000609e60026101000a81548160ff021916908360000b60ff1602179055506000609e60036101000a81548160ff021916908360000b60ff160217905550801561083c5760008060016101000a81548160ff0219169083151502179055505b50505050565b60a35481565b610850612412565b73ffffffffffffffffffffffffffffffffffffffff1661086e610eec565b73ffffffffffffffffffffffffffffffffffffffff16146108c4576040517f08c379a00000000000000000000000000000000000000000000000000000000081526004016108bb90614a0a565b60405180910390fd5b670de0b6b3a7640000886108d89190614a59565b60a681905550670de0b6b3a7640000876000815181106108fb576108fa614ab3565b5b602002602001015161090d9190614a59565b60a7819055508660018151811061092757610926614ab3565b5b602002602001015160a8819055508660028151811061094957610948614ab3565b5b602002602001015160a1819055508660038151811061096b5761096a614ab3565b5b602002602001015160a2819055508560008151811061098d5761098c614ab3565b5b6020026020010151609e60006101000a81548160ff021916908360000b60ff160217905550856001815181106109c6576109c5614ab3565b5b6020026020010151609e60016101000a81548160ff021916908360000b60ff160217905550856002815181106109ff576109fe614ab3565b5b6020026020010151609e60026101000a81548160ff021916908360000b60ff16021790555085600381518110610a3857610a37614ab3565b5b6020026020010151609e60036101000a81548160ff021916908360000b60ff1602179055508460ac60006101000a81548160ff021916908360ff1602179055508360ad819055508260ae819055508160a460006101000a81548160ff021916908360ff1602179055508060a5819055505050505050505050565b609b6020528060005260406000206000915090508060000154908060010160009054906101000a900473ffffffffffffffffffffffffffffffffffffffff16908060010160149054906101000a900469ffffffffffffffffffff16908060020160009054906101000a900469ffffffffffffffffffff16905084565b610b3661241a565b610b3e6124ac565b565b60a05481565b6000609c60008373ffffffffffffffffffffffffffffffffffffffff1673ffffffffffffffffffffffffffffffffffffffff168152602001908152602001600020805490509050919050565b609a6020528060005260406000206000915090508060000154908060010160009054906101000a900473ffffffffffffffffffffffffffffffffffffffff16908060010160149054906101000a900469ffffffffffffffffffff16908060020160009054906101000a900469ffffffffffffffffffff16905084565b6000603360009054906101000a900460ff16905090565b60ab5481565b610c3361241a565b609760009054906101000a900473ffffffffffffffffffffffffffffffffffffffff1673ffffffffffffffffffffffffffffffffffffffff166108fc479081150290604051600060405180830381858888f19350505050158015610c9b573d6000803e3d6000fd5b50565b610ca6612412565b73ffffffffffffffffffffffffffffffffffffffff16610cc4610eec565b73ffffffffffffffffffffffffffffffffffffffff1614610d1a576040517f08c379a0000000000000000000000000000000000000000000000000000000008152600401610d1190614a0a565b60405180910390fd5b80609760006101000a81548173ffffffffffffffffffffffffffffffffffffffff021916908373ffffffffffffffffffffffffffffffffffffffff16021790555050565b610d66612412565b73ffffffffffffffffffffffffffffffffffffffff16610d84610eec565b73ffffffffffffffffffffffffffffffffffffffff1614610dda576040517f08c379a0000000000000000000000000000000000000000000000000000000008152600401610dd190614a0a565b60405180910390fd5b610de4600061254e565b565b600060019054906101000a900460ff16610e0e5760008054906101000a900460ff1615610e17565b610e1661234f565b5b610e56576040517f08c379a0000000000000000000000000000000000000000000000000000000008152600401610e4d9061499e565b60405180910390fd5b60008060019054906101000a900460ff161590508015610ea6576001600060016101000a81548160ff02191690831515021790555060016000806101000a81548160ff0219169083151502179055505b610eae612360565b610eb66123b9565b8015610ed75760008060016101000a81548160ff0219169083151502179055505b50565b610ee261241a565b610eea612614565b565b6000606560009054906101000a900473ffffffffffffffffffffffffffffffffffffffff16905090565b610f1e610c0e565b15610f5e576040517f08c379a0000000000000000000000000000000000000000000000000000000008152600401610f5590614b2e565b60405180910390fd5b609960009054906101000a900473ffffffffffffffffffffffffffffffffffffffff1673ffffffffffffffffffffffffffffffffffffffff163373ffffffffffffffffffffffffffffffffffffffff1614610fee576040517f08c379a0000000000000000000000000000000000000000000000000000000008152600401610fe590614b9a565b60405180910390fd5b6000609d600084600001518152602001908152602001600020805490501161104b576040517f08c379a000000000000000000000000000000000000000000000000000000000815260040161104290614c06565b60405180910390fd5b6000609d6000846000015181526020019081526020016000208054806020026020016040519081016040528092919081815260200182805480156110d657602002820191906000526020600020906000905b82829054906101000a900461ffff1661ffff168152602001906002019060208260010104928301926001038202915080841161109d5790505b50505050509050609d60008460000151815260200190815260200160002060006111009190613c4c565b6000805b82518110156114de5760008482604051602001611122929190614c26565b6040516020818303038152906040528051906020012060001c905061116484838151811061115357611152614ab3565b5b602002602001015161ffff166126b7565b156114885760005b609c6000886040015173ffffffffffffffffffffffffffffffffffffffff1673ffffffffffffffffffffffffffffffffffffffff168152602001908152602001600020805490508110156113d1578483815181106111cd576111cc614ab3565b5b602002602001015161ffff16609c6000896040015173ffffffffffffffffffffffffffffffffffffffff1673ffffffffffffffffffffffffffffffffffffffff168152602001908152602001600020828154811061122e5761122d614ab3565b5b906000526020600020015414156113be57609c6000886040015173ffffffffffffffffffffffffffffffffffffffff1673ffffffffffffffffffffffffffffffffffffffff1681526020019081526020016000206001609c60008a6040015173ffffffffffffffffffffffffffffffffffffffff1673ffffffffffffffffffffffffffffffffffffffff168152602001908152602001600020805490506112d59190614c4f565b815481106112e6576112e5614ab3565b5b9060005260206000200154609c6000896040015173ffffffffffffffffffffffffffffffffffffffff1673ffffffffffffffffffffffffffffffffffffffff168152602001908152602001600020828154811061134657611345614ab3565b5b9060005260206000200181905550609c6000886040015173ffffffffffffffffffffffffffffffffffffffff1673ffffffffffffffffffffffffffffffffffffffff1681526020019081526020016000208054806113a7576113a6614c83565b5b600190038181906000526020600020016000905590555b80806113c990614cb2565b91505061116c565b5060006114288760400151609c60008a6040015173ffffffffffffffffffffffffffffffffffffffff1673ffffffffffffffffffffffffffffffffffffffff16815260200190815260200160002080549050612796565b905060028114156114415761144087604001516127a2565b5b61147585848151811061145757611456614ab3565b5b602002602001015161ffff16886040015189608001516000866127a5565b846114809190614cfb565b9350506114ca565b6114bc84838151811061149e5761149d614ab3565b5b602002602001015161ffff1687604001518860800151600085612bef565b836114c79190614cfb565b92505b5080806114d690614cb2565b915050611104565b5060008111156114f7576114f684604001518261303b565b5b50505050565b611505610c0e565b15611545576040517f08c379a000000000000000000000000000000000000000000000000000000000815260040161153c90614b2e565b60405180910390fd5b61154d612412565b73ffffffffffffffffffffffffffffffffffffffff163273ffffffffffffffffffffffffffffffffffffffff16146115ba576040517f08c379a00000000000000000000000000000000000000000000000000000000081526004016115b190614d9d565b60405180910390fd5b60a460009054906101000a900460ff1660ff16838390501115611612576040517f08c379a000000000000000000000000000000000000000000000000000000000815260040161160990614e09565b60405180910390fd5b60a5543414611656576040517f08c379a000000000000000000000000000000000000000000000000000000000815260040161164d90614e75565b60405180910390fd5b60005b838390508110156118ea57600061169a85858481811061167c5761167b614ab3565b5b90506020020160208101906116919190614e95565b61ffff166126b7565b6116e157609b60008686858181106116b5576116b4614ab3565b5b90506020020160208101906116ca9190614e95565b61ffff168152602001908152602001600020611720565b609a60008686858181106116f8576116f7614ab3565b5b905060200201602081019061170d9190614e95565b61ffff1681526020019081526020016000205b604051806080016040529081600082015481526020016001820160009054906101000a900473ffffffffffffffffffffffffffffffffffffffff1673ffffffffffffffffffffffffffffffffffffffff1673ffffffffffffffffffffffffffffffffffffffff1681526020016001820160149054906101000a900469ffffffffffffffffffff1669ffffffffffffffffffff1669ffffffffffffffffffff1681526020016002820160009054906101000a900469ffffffffffffffffffff1669ffffffffffffffffffff1669ffffffffffffffffffff16815250509050611805612412565b73ffffffffffffffffffffffffffffffffffffffff16816020015173ffffffffffffffffffffffffffffffffffffffff1614611876576040517f08c379a000000000000000000000000000000000000000000000000000000000815260040161186d90614f0e565b60405180910390fd5b60a154816060015169ffffffffffffffffffff16426118959190614c4f565b10156118d6576040517f08c379a00000000000000000000000000000000000000000000000000000000081526004016118cd90614f7a565b60405180910390fd5b5080806118e290614cb2565b915050611659565b506000609960009054906101000a900473ffffffffffffffffffffffffffffffffffffffff1673ffffffffffffffffffffffffffffffffffffffff16635bdf263c611933612412565b8686866040518563ffffffff1660e01b8152600401611955949392919061505d565b6020604051808303816000875af1158015611974573d6000803e3d6000fd5b505050506040513d601f19601f8201168201806040525081019061199891906150b2565b90508383609d600084815260200190815260200160002091906119bc929190613c74565b5050505050565b60a95481565b600060019054906101000a900460ff166119f15760008054906101000a900460ff16156119fa565b6119f961234f565b5b611a39576040517f08c379a0000000000000000000000000000000000000000000000000000000008152600401611a309061499e565b60405180910390fd5b60008060019054906101000a900460ff161590508015611a89576001600060016101000a81548160ff02191690831515021790555060016000806101000a81548160ff0219169083151502179055505b611a91612360565b611a996123b9565b600060a981905550600060a381905550600060ab8190555083609860006101000a81548173ffffffffffffffffffffffffffffffffffffffff021916908373ffffffffffffffffffffffffffffffffffffffff16021790555082609960006101000a81548173ffffffffffffffffffffffffffffffffffffffff021916908373ffffffffffffffffffffffffffffffffffffffff1602179055508160af60006101000a81548173ffffffffffffffffffffffffffffffffffffffff021916908373ffffffffffffffffffffffffffffffffffffffff1602179055508015611b955760008060016101000a81548160ff0219169083151502179055505b50505050565b609c6020528160005260406000208181548110611bb757600080fd5b90600052602060002001600091509150505481565b60aa5481565b611bda612412565b73ffffffffffffffffffffffffffffffffffffffff163273ffffffffffffffffffffffffffffffffffffffff16148015611c465750611c17612412565b73ffffffffffffffffffffffffffffffffffffffff168373ffffffffffffffffffffffffffffffffffffffff16145b80611ca55750609860009054906101000a900473ffffffffffffffffffffffffffffffffffffffff1673ffffffffffffffffffffffffffffffffffffffff16611c8d612412565b73ffffffffffffffffffffffffffffffffffffffff16145b611ce4576040517f08c379a0000000000000000000000000000000000000000000000000000000008152600401611cdb90614d9d565b60405180910390fd5b60005b8282905081101561224b576000838383818110611d0757611d06614ab3565b5b9050602002016020810190611d1c9190614e95565b61ffff161415611d2b57612238565b609860009054906101000a900473ffffffffffffffffffffffffffffffffffffffff1673ffffffffffffffffffffffffffffffffffffffff16611d6c612412565b73ffffffffffffffffffffffffffffffffffffffff1614611ebf57611d8f612412565b73ffffffffffffffffffffffffffffffffffffffff16609860009054906101000a900473ffffffffffffffffffffffffffffffffffffffff1673ffffffffffffffffffffffffffffffffffffffff16636352211e858585818110611df657611df5614ab3565b5b9050602002016020810190611e0b9190614e95565b6040518263ffffffff1660e01b8152600401611e27919061511a565b602060405180830381865afa158015611e44573d6000803e3d6000fd5b505050506040513d601f19601f82011682018060405250810190611e68919061514a565b73ffffffffffffffffffffffffffffffffffffffff1614611ebe576040517f08c379a0000000000000000000000000000000000000000000000000000000008152600401611eb590614f0e565b60405180910390fd5b5b611ef3838383818110611ed557611ed4614ab3565b5b9050602002016020810190611eea9190614e95565b61ffff166130ce565b611f32576040517f08c379a0000000000000000000000000000000000000000000000000000000008152600401611f29906151c3565b60405180910390fd5b611f66838383818110611f4857611f47614ab3565b5b9050602002016020810190611f5d9190614e95565b61ffff166126b7565b156120e557609c60008573ffffffffffffffffffffffffffffffffffffffff1673ffffffffffffffffffffffffffffffffffffffff168152602001908152602001600020838383818110611fbd57611fbc614ab3565b5b9050602002016020810190611fd29190614e95565b908060018154018082558091505060019003906000526020600020016000909161ffff169091909150556000612051612009612412565b609c60008873ffffffffffffffffffffffffffffffffffffffff1673ffffffffffffffffffffffffffffffffffffffff16815260200190815260200160002080549050612796565b90506000811215612097576040517f08c379a000000000000000000000000000000000000000000000000000000000815260040161208e9061522f565b60405180910390fd5b60008114156120aa576120a9856130d9565b5b6120df858585858181106120c1576120c0614ab3565b5b90506020020160208101906120d69190614e95565b61ffff166130dc565b5061211b565b61211a848484848181106120fc576120fb614ab3565b5b90506020020160208101906121119190614e95565b61ffff1661329b565b5b609860009054906101000a900473ffffffffffffffffffffffffffffffffffffffff1673ffffffffffffffffffffffffffffffffffffffff1661215c612412565b73ffffffffffffffffffffffffffffffffffffffff161461223757609860009054906101000a900473ffffffffffffffffffffffffffffffffffffffff1673ffffffffffffffffffffffffffffffffffffffff166323b872dd6121bd612412565b308686868181106121d1576121d0614ab3565b5b90506020020160208101906121e69190614e95565b6040518463ffffffff1660e01b81526004016122049392919061524f565b600060405180830381600087803b15801561221e57600080fd5b505af1158015612232573d6000803e3d6000fd5b505050505b5b808061224390614cb2565b915050611ce7565b50505050565b609f5481565b61225f612412565b73ffffffffffffffffffffffffffffffffffffffff1661227d610eec565b73ffffffffffffffffffffffffffffffffffffffff16146122d3576040517f08c379a00000000000000000000000000000000000000000000000000000000081526004016122ca90614a0a565b60405180910390fd5b600073ffffffffffffffffffffffffffffffffffffffff168173ffffffffffffffffffffffffffffffffffffffff161415612343576040517f08c379a000000000000000000000000000000000000000000000000000000000815260040161233a906152f8565b60405180910390fd5b61234c8161254e565b50565b600061235a3061345e565b15905090565b600060019054906101000a900460ff166123af576040517f08c379a00000000000000000000000000000000000000000000000000000000081526004016123a69061538a565b60405180910390fd5b6123b7613481565b565b600060019054906101000a900460ff16612408576040517f08c379a00000000000000000000000000000000000000000000000000000000081526004016123ff9061538a565b60405180910390fd5b6124106134e2565b565b600033905090565b609760009054906101000a900473ffffffffffffffffffffffffffffffffffffffff1673ffffffffffffffffffffffffffffffffffffffff163373ffffffffffffffffffffffffffffffffffffffff16146124aa576040517f08c379a00000000000000000000000000000000000000000000000000000000081526004016124a1906153f6565b60405180910390fd5b565b6124b4610c0e565b6124f3576040517f08c379a00000000000000000000000000000000000000000000000000000000081526004016124ea90615462565b60405180910390fd5b6000603360006101000a81548160ff0219169083151502179055507f5db9ee0a495bf2e6ff9c91a7834c1ba4fdd244a5e8aa4e537bd38aeae4b073aa612537612412565b6040516125449190614458565b60405180910390a1565b6000606560009054906101000a900473ffffffffffffffffffffffffffffffffffffffff16905081606560006101000a81548173ffffffffffffffffffffffffffffffffffffffff021916908373ffffffffffffffffffffffffffffffffffffffff1602179055508173ffffffffffffffffffffffffffffffffffffffff168173ffffffffffffffffffffffffffffffffffffffff167f8be0079c531659141344cd1fd0a4f28419497f9722a3daafe3b4186f6b6457e060405160405180910390a35050565b61261c610c0e565b1561265c576040517f08c379a000000000000000000000000000000000000000000000000000000000815260040161265390614b2e565b60405180910390fd5b6001603360006101000a81548160ff0219169083151502179055507f62e78cea01bee320cd4e420270b5ea74000d11b0c9f74754ebdbfc544b05a2586126a0612412565b6040516126ad9190614458565b60405180910390a1565b6000609860009054906101000a900473ffffffffffffffffffffffffffffffffffffffff1673ffffffffffffffffffffffffffffffffffffffff1663e05c57bf836040518263ffffffff1660e01b81526004016127149190613f8c565b61016060405180830381865afa158015612732573d6000803e3d6000fd5b505050506040513d601f19601f8201168201806040525081019061275691906154c1565b9091929394959697985090919293949596975090919293949596509091929394955090919293945090919293509091925090915090505080915050919050565b60006002905092915050565b50565b600080609a6000888152602001908152602001600020604051806080016040529081600082015481526020016001820160009054906101000a900473ffffffffffffffffffffffffffffffffffffffff1673ffffffffffffffffffffffffffffffffffffffff1673ffffffffffffffffffffffffffffffffffffffff1681526020016001820160149054906101000a900469ffffffffffffffffffff1669ffffffffffffffffffff1669ffffffffffffffffffff1681526020016002820160009054906101000a900469ffffffffffffffffffff1669ffffffffffffffffffff1669ffffffffffffffffffff168152505090508573ffffffffffffffffffffffffffffffffffffffff16816020015173ffffffffffffffffffffffffffffffffffffffff161461290a576040517f08c379a000000000000000000000000000000000000000000000000000000000815260040161290190614f0e565b60405180910390fd5b8361291d576129188161354e565b612920565b60005b915060008060006129318a876136b2565b9250925092506129408a6130ce565b61294957600197505b8715612a7c57609a60008b81526020019081526020016000206000808201600090556001820160006101000a81549073ffffffffffffffffffffffffffffffffffffffff02191690556001820160146101000a81549069ffffffffffffffffffff02191690556002820160006101000a81549069ffffffffffffffffffff02191690555050609f60008154809291906129e1906155b5565b9190505550609860009054906101000a900473ffffffffffffffffffffffffffffffffffffffff1673ffffffffffffffffffffffffffffffffffffffff1663b88d4fde308b8d6040518463ffffffff1660e01b8152600401612a4593929190615616565b600060405180830381600087803b158015612a5f57600080fd5b505af1158015612a73573d6000803e3d6000fd5b50505050612b9d565b60405180608001604052808b61ffff1681526020018a73ffffffffffffffffffffffffffffffffffffffff1681526020014269ffffffffffffffffffff1681526020014269ffffffffffffffffffff16815250609a60008c81526020019081526020016000206000820151816000015560208201518160010160006101000a81548173ffffffffffffffffffffffffffffffffffffffff021916908373ffffffffffffffffffffffffffffffffffffffff16021790555060408201518160010160146101000a81548169ffffffffffffffffffff021916908369ffffffffffffffffffff16021790555060608201518160020160006101000a81548169ffffffffffffffffffff021916908369ffffffffffffffffffff1602179055509050505b7f9b394c66bc4fdb2f56f5842a796076e6552d6f15eaacb6e63e3c53b474d872e98a868a86868660a354604051612bda97969594939291906156e6565b60405180910390a15050505095945050505050565b600080609b6000888152602001908152602001600020604051806080016040529081600082015481526020016001820160009054906101000a900473ffffffffffffffffffffffffffffffffffffffff1673ffffffffffffffffffffffffffffffffffffffff1673ffffffffffffffffffffffffffffffffffffffff1681526020016001820160149054906101000a900469ffffffffffffffffffff1669ffffffffffffffffffff1669ffffffffffffffffffff1681526020016002820160009054906101000a900469ffffffffffffffffffff1669ffffffffffffffffffff1669ffffffffffffffffffff168152505090508573ffffffffffffffffffffffffffffffffffffffff16816020015173ffffffffffffffffffffffffffffffffffffffff1614612d54576040517f08c379a0000000000000000000000000000000000000000000000000000000008152600401612d4b90614f0e565b60405180910390fd5b83612d6757612d6281613920565b612d6a565b60005b91506000806000612d7b8a876136b2565b925092509250612d8a8a6130ce565b612d9357600197505b8715612ec657609b60008b81526020019081526020016000206000808201600090556001820160006101000a81549073ffffffffffffffffffffffffffffffffffffffff02191690556001820160146101000a81549069ffffffffffffffffffff02191690556002820160006101000a81549069ffffffffffffffffffff0219169055505060a06000815480929190612e2b906155b5565b9190505550609860009054906101000a900473ffffffffffffffffffffffffffffffffffffffff1673ffffffffffffffffffffffffffffffffffffffff1663b88d4fde308b8d6040518463ffffffff1660e01b8152600401612e8f93929190615616565b600060405180830381600087803b158015612ea957600080fd5b505af1158015612ebd573d6000803e3d6000fd5b50505050612fe9565b60405180608001604052808b61ffff1681526020018a73ffffffffffffffffffffffffffffffffffffffff16815260200160a35469ffffffffffffffffffff1681526020014269ffffffffffffffffffff16815250609b60008c81526020019081526020016000206000820151816000015560208201518160010160006101000a81548173ffffffffffffffffffffffffffffffffffffffff021916908373ffffffffffffffffffffffffffffffffffffffff16021790555060408201518160010160146101000a81548169ffffffffffffffffffff021916908369ffffffffffffffffffff16021790555060608201518160020160006101000a81548169ffffffffffffffffffff021916908369ffffffffffffffffffff1602179055509050505b7f9be2cb7a62ca4aefdc81da57f848805cc67c86675da32b5a7be58bb615ba4f328a868a86868660a35460405161302697969594939291906156e6565b60405180910390a15050505095945050505050565b60af60009054906101000a900473ffffffffffffffffffffffffffffffffffffffff1673ffffffffffffffffffffffffffffffffffffffff166340c10f1983836040518363ffffffff1660e01b815260040161309892919061575c565b600060405180830381600087803b1580156130b257600080fd5b505af11580156130c6573d6000803e3d6000fd5b505050505050565b600060019050919050565b50565b6130e4610c0e565b15613124576040517f08c379a000000000000000000000000000000000000000000000000000000000815260040161311b90614b2e565b60405180910390fd5b60405180608001604052808261ffff1681526020018373ffffffffffffffffffffffffffffffffffffffff1681526020014269ffffffffffffffffffff1681526020014269ffffffffffffffffffff16815250609a60008381526020019081526020016000206000820151816000015560208201518160010160006101000a81548173ffffffffffffffffffffffffffffffffffffffff021916908373ffffffffffffffffffffffffffffffffffffffff16021790555060408201518160010160146101000a81548169ffffffffffffffffffff021916908369ffffffffffffffffffff16021790555060608201518160020160006101000a81548169ffffffffffffffffffff021916908369ffffffffffffffffffff160217905550905050609f600081548092919061325790614cb2565b91905055507f8af1bb49fb16c7835975aa59449ba4328dd54737dfb2ae9fa6c5eca71fda51f981834260405161328f93929190615785565b60405180910390a15050565b6132a3610c0e565b156132e3576040517f08c379a00000000000000000000000000000000000000000000000000000000081526004016132da90614b2e565b60405180910390fd5b60405180608001604052808261ffff1681526020018373ffffffffffffffffffffffffffffffffffffffff16815260200160a35469ffffffffffffffffffff1681526020014269ffffffffffffffffffff16815250609b60008381526020019081526020016000206000820151816000015560208201518160010160006101000a81548173ffffffffffffffffffffffffffffffffffffffff021916908373ffffffffffffffffffffffffffffffffffffffff16021790555060408201518160010160146101000a81548169ffffffffffffffffffff021916908369ffffffffffffffffffff16021790555060608201518160020160006101000a81548169ffffffffffffffffffff021916908369ffffffffffffffffffff16021790555090505060a0600081548092919061341890614cb2565b91905055507f8af1bb49fb16c7835975aa59449ba4328dd54737dfb2ae9fa6c5eca71fda51f9818360a35460405161345293929190615785565b60405180910390a15050565b6000808273ffffffffffffffffffffffffffffffffffffffff163b119050919050565b600060019054906101000a900460ff166134d0576040517f08c379a00000000000000000000000000000000000000000000000000000000081526004016134c79061538a565b60405180910390fd5b6134e06134db612412565b61254e565b565b600060019054906101000a900460ff16613531576040517f08c379a00000000000000000000000000000000000000000000000000000000081526004016135289061538a565b60405180910390fd5b6000603360006101000a81548160ff021916908315150217905550565b60008061355e8360000151613a34565b5090506000836040015169ffffffffffffffffffff164261357f9190614c4f565b905060a2548111156135915760a25490505b600060a2548260a7546135a49190614a59565b6135ae91906157eb565b90506000600a60ac60009054906101000a900460ff1660ff168560ff166135d59190614a59565b6135df9190614a59565b620186a06135ed9190614cfb565b9050620186a081836135ff9190614a59565b61360991906157eb565b945060a6548560aa5461361c9190614cfb565b11156136355760aa5460a6546136329190614c4f565b94505b60008511156136a9574260ab81905550613667606460a854876136589190614a59565b61366291906157eb565b613b1e565b606460a85460646136789190614c4f565b866136839190614a59565b61368d91906157eb565b94508460aa60008282546136a19190614cfb565b925050819055505b50505050919050565b6000806060600080609860009054906101000a900473ffffffffffffffffffffffffffffffffffffffff1673ffffffffffffffffffffffffffffffffffffffff1663e05c57bf886040518263ffffffff1660e01b81526004016137159190613f8c565b61016060405180830381865afa158015613733573d6000803e3d6000fd5b505050506040513d601f19601f8201168201806040525081019061375791906154c1565b9a50505050505050505050915060008261379d57609b600089815260200190815260200160002060020160009054906101000a900469ffffffffffffffffffff166137cb565b609a600089815260200190815260200160002060020160009054906101000a900469ffffffffffffffffffff165b69ffffffffffffffffffff16426137e29190614c4f565b9050609860009054906101000a900473ffffffffffffffffffffffffffffffffffffffff1673ffffffffffffffffffffffffffffffffffffffff166363dbfc77896138588661384057609e60029054906101000a900460000b613851565b609e60009054906101000a900460000b5b8587613b86565b61388e8761387557609e60039054906101000a900460000b613886565b609e60019054906101000a900460000b5b866000613b86565b613896613c43565b6138a15760006138a3565b8b5b6040518563ffffffff1660e01b81526004016138c2949392919061582b565b6000604051808303816000875af11580156138e1573d6000803e3d6000fd5b505050506040513d6000823e3d601f19601f8201168201806040525081019061390a9190615916565b8096508197508298505050505050509250925092565b6000806139308360000151613a34565b9150506000836040015169ffffffffffffffffffff1660a3546139539190614c4f565b905060006103e860ae546139679190615985565b60646103e860ad5460328760ff16111561398d578660646139889190615a9c565b61398f565b865b60000b61399c9190615985565b6139a69190615985565b6139b09190615ad0565b6139ba9190615b3a565b9050620186a081836139cc9190614a59565b6139d691906157eb565b935060a6548460aa546139e99190614cfb565b1115613a025760aa5460a6546139ff9190614c4f565b93505b6000841115613a2c574260ab819055508360aa6000828254613a249190614cfb565b925050819055505b505050919050565b600080609860009054906101000a900473ffffffffffffffffffffffffffffffffffffffff1673ffffffffffffffffffffffffffffffffffffffff1663e05c57bf846040518263ffffffff1660e01b8152600401613a929190613f8c565b61016060405180830381865afa158015613ab0573d6000803e3d6000fd5b505050506040513d601f19601f82011682018060405250810190613ad491906154c1565b909192939495969798995090919293949596979850909192939495969750909192939495965090919293949550909192939450909192935090919250508092508193505050915091565b600060a0541415613b47578060a96000828254613b3b9190614cfb565b92505081905550613b83565b60a05460a95482613b589190614cfb565b613b6291906157eb565b60a36000828254613b739190614cfb565b92505081905550600060a9819055505b50565b600060a254831115613b985760a25492505b600060a2548560000b85613bac9190615985565b613bb69190615ad0565b905060a2548410613bd3578260000b81613bd09190615b3a565b90505b6064811315613be6576064915050613c3c565b7fffffffffffffffffffffffffffffffffffffffffffffffffffffffffffffff9c811215613c37577fffffffffffffffffffffffffffffffffffffffffffffffffffffffffffffff9c915050613c3c565b809150505b9392505050565b60006001905090565b50805460008255600f016010900490600052602060002090810190613c719190613d22565b50565b82805482825590600052602060002090600f01601090048101928215613d115791602002820160005b83821115613ce157833561ffff1683826101000a81548161ffff021916908361ffff1602179055509260200192600201602081600101049283019260010302613c9d565b8015613d0f5782816101000a81549061ffff0219169055600201602081600101049283019260010302613ce1565b505b509050613d1e9190613d22565b5090565b5b80821115613d3b576000816000905550600101613d23565b5090565b6000604051905090565b600080fd5b600080fd5b600073ffffffffffffffffffffffffffffffffffffffff82169050919050565b6000613d7e82613d53565b9050919050565b613d8e81613d73565b8114613d9957600080fd5b50565b600081359050613dab81613d85565b92915050565b6000819050919050565b613dc481613db1565b8114613dcf57600080fd5b50565b600081359050613de181613dbb565b92915050565b600080fd5b600080fd5b600080fd5b60008083601f840112613e0c57613e0b613de7565b5b8235905067ffffffffffffffff811115613e2957613e28613dec565b5b602083019150836001820283011115613e4557613e44613df1565b5b9250929050565b600080600080600060808688031215613e6857613e67613d49565b5b6000613e7688828901613d9c565b9550506020613e8788828901613d9c565b9450506040613e9888828901613dd2565b935050606086013567ffffffffffffffff811115613eb957613eb8613d4e565b5b613ec588828901613df6565b92509250509295509295909350565b60007fffffffff0000000000000000000000000000000000000000000000000000000082169050919050565b613f0981613ed4565b82525050565b6000602082019050613f246000830184613f00565b92915050565b600080600060608486031215613f4357613f42613d49565b5b6000613f5186828701613d9c565b9350506020613f6286828701613d9c565b9250506040613f7386828701613dd2565b9150509250925092565b613f8681613db1565b82525050565b6000602082019050613fa16000830184613f7d565b92915050565b6000601f19601f8301169050919050565b7f4e487b7100000000000000000000000000000000000000000000000000000000600052604160045260246000fd5b613ff082613fa7565b810181811067ffffffffffffffff8211171561400f5761400e613fb8565b5b80604052505050565b6000614022613d3f565b905061402e8282613fe7565b919050565b600067ffffffffffffffff82111561404e5761404d613fb8565b5b602082029050602081019050919050565b600061407261406d84614033565b614018565b9050808382526020820190506020840283018581111561409557614094613df1565b5b835b818110156140be57806140aa8882613dd2565b845260208401935050602081019050614097565b5050509392505050565b600082601f8301126140dd576140dc613de7565b5b81356140ed84826020860161405f565b91505092915050565b600067ffffffffffffffff82111561411157614110613fb8565b5b602082029050602081019050919050565b60008160000b9050919050565b61413881614122565b811461414357600080fd5b50565b6000813590506141558161412f565b92915050565b600061416e614169846140f6565b614018565b9050808382526020820190506020840283018581111561419157614190613df1565b5b835b818110156141ba57806141a68882614146565b845260208401935050602081019050614193565b5050509392505050565b600082601f8301126141d9576141d8613de7565b5b81356141e984826020860161415b565b91505092915050565b600060ff82169050919050565b614208816141f2565b811461421357600080fd5b50565b600081359050614225816141ff565b92915050565b6000819050919050565b61423e8161422b565b811461424957600080fd5b50565b60008135905061425b81614235565b92915050565b600080600080600080600080610100898b03121561428257614281613d49565b5b60006142908b828c01613dd2565b985050602089013567ffffffffffffffff8111156142b1576142b0613d4e565b5b6142bd8b828c016140c8565b975050604089013567ffffffffffffffff8111156142de576142dd613d4e565b5b6142ea8b828c016141c4565b96505060606142fb8b828c01614216565b955050608061430c8b828c0161424c565b94505060a061431d8b828c0161424c565b93505060c061432e8b828c01614216565b92505060e061433f8b828c01613dd2565b9150509295985092959890939650565b60006020828403121561436557614364613d49565b5b600061437384828501613dd2565b91505092915050565b61438581613d73565b82525050565b600069ffffffffffffffffffff82169050919050565b6143aa8161438b565b82525050565b60006080820190506143c56000830187613f7d565b6143d2602083018661437c565b6143df60408301856143a1565b6143ec60608301846143a1565b95945050505050565b60006020828403121561440b5761440a613d49565b5b600061441984828501613d9c565b91505092915050565b60008115159050919050565b61443781614422565b82525050565b6000602082019050614452600083018461442e565b92915050565b600060208201905061446d600083018461437c565b92915050565b600080fd5b600080fd5b6000819050919050565b6144908161447d565b811461449b57600080fd5b50565b6000813590506144ad81614487565b92915050565b600067ffffffffffffffff8211156144ce576144cd613fb8565b5b602082029050602081019050919050565b600061ffff82169050919050565b6144f6816144df565b811461450157600080fd5b50565b600081359050614513816144ed565b92915050565b600061452c614527846144b3565b614018565b9050808382526020820190506020840283018581111561454f5761454e613df1565b5b835b8181101561457857806145648882614504565b845260208401935050602081019050614551565b5050509392505050565b600082601f83011261459757614596613de7565b5b81356145a7848260208601614519565b91505092915050565b6145b981614422565b81146145c457600080fd5b50565b6000813590506145d6816145b0565b92915050565b600060a082840312156145f2576145f1614473565b5b6145fc60a0614018565b9050600061460c8482850161449e565b600083015250602061462084828501613d9c565b602083015250604061463484828501613d9c565b604083015250606082013567ffffffffffffffff81111561465857614657614478565b5b61466484828501614582565b6060830152506080614678848285016145c7565b60808301525092915050565b6000806040838503121561469b5761469a613d49565b5b600083013567ffffffffffffffff8111156146b9576146b8613d4e565b5b6146c5858286016145dc565b92505060206146d685828601613dd2565b9150509250929050565b60008083601f8401126146f6576146f5613de7565b5b8235905067ffffffffffffffff81111561471357614712613dec565b5b60208301915083602082028301111561472f5761472e613df1565b5b9250929050565b60008060006040848603121561474f5761474e613d49565b5b600084013567ffffffffffffffff81111561476d5761476c613d4e565b5b614779868287016146e0565b9350935050602061478c868287016145c7565b9150509250925092565b6000806000606084860312156147af576147ae613d49565b5b60006147bd86828701613d9c565b93505060206147ce86828701613d9c565b92505060406147df86828701613d9c565b9150509250925092565b60008060408385031215614800576147ff613d49565b5b600061480e85828601613d9c565b925050602061481f85828601613dd2565b9150509250929050565b60008060006040848603121561484257614841613d49565b5b600061485086828701613d9c565b935050602084013567ffffffffffffffff81111561487157614870613d4e565b5b61487d868287016146e0565b92509250509250925092565b600082825260208201905092915050565b7f43616e6e6f742073656e6420746f6b656e7320746f2056656e7565206469726560008201527f63746c7900000000000000000000000000000000000000000000000000000000602082015250565b60006148f6602483614889565b91506149018261489a565b604082019050919050565b60006020820190508181036000830152614925816148e9565b9050919050565b7f496e697469616c697a61626c653a20636f6e747261637420697320616c72656160008201527f647920696e697469616c697a6564000000000000000000000000000000000000602082015250565b6000614988602e83614889565b91506149938261492c565b604082019050919050565b600060208201905081810360008301526149b78161497b565b9050919050565b7f4f776e61626c653a2063616c6c6572206973206e6f7420746865206f776e6572600082015250565b60006149f4602083614889565b91506149ff826149be565b602082019050919050565b60006020820190508181036000830152614a23816149e7565b9050919050565b7f4e487b7100000000000000000000000000000000000000000000000000000000600052601160045260246000fd5b6000614a6482613db1565b9150614a6f83613db1565b9250817fffffffffffffffffffffffffffffffffffffffffffffffffffffffffffffffff0483118215151615614aa857614aa7614a2a565b5b828202905092915050565b7f4e487b7100000000000000000000000000000000000000000000000000000000600052603260045260246000fd5b7f5061757361626c653a2070617573656400000000000000000000000000000000600082015250565b6000614b18601083614889565b9150614b2382614ae2565b602082019050919050565b60006020820190508181036000830152614b4781614b0b565b9050919050565b7f4f6e6c7920436c61696d2063616e2066756c66696c6c00000000000000000000600082015250565b6000614b84601683614889565b9150614b8f82614b4e565b602082019050919050565b60006020820190508181036000830152614bb381614b77565b9050919050565b7f436c61696d2072657175657374206e6f7420666f756e64000000000000000000600082015250565b6000614bf0601783614889565b9150614bfb82614bba565b602082019050919050565b60006020820190508181036000830152614c1f81614be3565b9050919050565b6000604082019050614c3b6000830185613f7d565b614c486020830184613f7d565b9392505050565b6000614c5a82613db1565b9150614c6583613db1565b925082821015614c7857614c77614a2a565b5b828203905092915050565b7f4e487b7100000000000000000000000000000000000000000000000000000000600052603160045260246000fd5b6000614cbd82613db1565b91507fffffffffffffffffffffffffffffffffffffffffffffffffffffffffffffffff821415614cf057614cef614a2a565b5b600182019050919050565b6000614d0682613db1565b9150614d1183613db1565b9250827fffffffffffffffffffffffffffffffffffffffffffffffffffffffffffffffff03821115614d4657614d45614a2a565b5b828201905092915050565b7f454f41206f6e6c79000000000000000000000000000000000000000000000000600082015250565b6000614d87600883614889565b9150614d9282614d51565b602082019050919050565b60006020820190508181036000830152614db681614d7a565b9050919050565b7f496e76616c696420636c61696d20616d6f756e74000000000000000000000000600082015250565b6000614df3601483614889565b9150614dfe82614dbd565b602082019050919050565b60006020820190508181036000830152614e2281614de6565b9050919050565b7f496e76616c696420636c61696d20666565000000000000000000000000000000600082015250565b6000614e5f601183614889565b9150614e6a82614e29565b602082019050919050565b60006020820190508181036000830152614e8e81614e52565b9050919050565b600060208284031215614eab57614eaa613d49565b5b6000614eb984828501614504565b91505092915050565b7f4e6f7420796f757220746f6b656e000000000000000000000000000000000000600082015250565b6000614ef8600e83614889565b9150614f0382614ec2565b602082019050919050565b60006020820190508181036000830152614f2781614eeb565b9050919050565b7f43616e6e6f7420636c61696d206265666f726520454f42000000000000000000600082015250565b6000614f64601783614889565b9150614f6f82614f2e565b602082019050919050565b60006020820190508181036000830152614f9381614f57565b9050919050565b600082825260208201905092915050565b6000819050919050565b614fbe816144df565b82525050565b6000614fd08383614fb5565b60208301905092915050565b6000614feb6020840184614504565b905092915050565b6000602082019050919050565b600061500c8385614f9a565b935061501782614fab565b8060005b858110156150505761502d8284614fdc565b6150378882614fc4565b975061504283614ff3565b92505060018101905061501b565b5085925050509392505050565b6000606082019050615072600083018761437c565b8181036020830152615085818587615000565b9050615094604083018461442e565b95945050505050565b6000815190506150ac81614487565b92915050565b6000602082840312156150c8576150c7613d49565b5b60006150d68482850161509d565b91505092915050565b6000819050919050565b60006151046150ff6150fa846144df565b6150df565b613db1565b9050919050565b615114816150e9565b82525050565b600060208201905061512f600083018461510b565b92915050565b60008151905061514481613d85565b92915050565b6000602082840312156151605761515f613d49565b5b600061516e84828501615135565b91505092915050565b7f4e6f7420656c696769626c650000000000000000000000000000000000000000600082015250565b60006151ad600c83614889565b91506151b882615177565b602082019050919050565b600060208201905081810360008301526151dc816151a0565b9050919050565b7f4b69746368656e20737061636520726571756972656400000000000000000000600082015250565b6000615219601683614889565b9150615224826151e3565b602082019050919050565b600060208201905081810360008301526152488161520c565b9050919050565b6000606082019050615264600083018661437c565b615271602083018561437c565b61527e604083018461510b565b949350505050565b7f4f776e61626c653a206e6577206f776e657220697320746865207a65726f206160008201527f6464726573730000000000000000000000000000000000000000000000000000602082015250565b60006152e2602683614889565b91506152ed82615286565b604082019050919050565b60006020820190508181036000830152615311816152d5565b9050919050565b7f496e697469616c697a61626c653a20636f6e7472616374206973206e6f74206960008201527f6e697469616c697a696e67000000000000000000000000000000000000000000602082015250565b6000615374602b83614889565b915061537f82615318565b604082019050919050565b600060208201905081810360008301526153a381615367565b9050919050565b7f4f6e6c792044414f2063616e2065786563757465000000000000000000000000600082015250565b60006153e0601483614889565b91506153eb826153aa565b602082019050919050565b6000602082019050818103600083015261540f816153d3565b9050919050565b7f5061757361626c653a206e6f7420706175736564000000000000000000000000600082015250565b600061544c601483614889565b915061545782615416565b602082019050919050565b6000602082019050818103600083015261547b8161543f565b9050919050565b600081519050615491816145b0565b92915050565b6000815190506154a6816141ff565b92915050565b6000815190506154bb8161412f565b92915050565b60008060008060008060008060008060006101608c8e0312156154e7576154e6613d49565b5b60006154f58e828f01615482565b9b505060206155068e828f01615497565b9a505060406155178e828f01615497565b99505060606155288e828f01615497565b98505060806155398e828f01615497565b97505060a061554a8e828f01615497565b96505060c061555b8e828f01615497565b95505060e061556c8e828f01615497565b94505061010061557e8e828f01615497565b9350506101206155908e828f01615497565b9250506101406155a28e828f016154ac565b9150509295989b509295989b9093969950565b60006155c082613db1565b915060008214156155d4576155d3614a2a565b5b600182039050919050565b600082825260208201905092915050565b50565b60006156006000836155df565b915061560b826155f0565b600082019050919050565b600060808201905061562b600083018661437c565b615638602083018561437c565b6156456040830184613f7d565b8181036060830152615656816155f3565b9050949350505050565b615669816141f2565b82525050565b600081519050919050565b60005b8381101561569857808201518184015260208101905061567d565b838111156156a7576000848401525b50505050565b60006156b88261566f565b6156c28185614889565b93506156d281856020860161567a565b6156db81613fa7565b840191505092915050565b600060e0820190506156fb600083018a613f7d565b6157086020830189613f7d565b615715604083018861442e565b6157226060830187615660565b61572f6080830186615660565b81810360a083015261574181856156ad565b905061575060c0830184613f7d565b98975050505050505050565b6000604082019050615771600083018561437c565b61577e6020830184613f7d565b9392505050565b600060608201905061579a6000830186613f7d565b6157a7602083018561437c565b6157b46040830184613f7d565b949350505050565b7f4e487b7100000000000000000000000000000000000000000000000000000000600052601260045260246000fd5b60006157f682613db1565b915061580183613db1565b925082615811576158106157bc565b5b828204905092915050565b61582581614122565b82525050565b60006080820190506158406000830187613f7d565b61584d602083018661581c565b61585a604083018561581c565b6158676060830184613f7d565b95945050505050565b600080fd5b600067ffffffffffffffff8211156158905761588f613fb8565b5b61589982613fa7565b9050602081019050919050565b60006158b96158b484615875565b614018565b9050828152602081018484840111156158d5576158d4615870565b5b6158e084828561567a565b509392505050565b600082601f8301126158fd576158fc613de7565b5b815161590d8482602086016158a6565b91505092915050565b60008060006060848603121561592f5761592e613d49565b5b600061593d86828701615497565b935050602061594e86828701615497565b925050604084015167ffffffffffffffff81111561596f5761596e613d4e565b5b61597b868287016158e8565b9150509250925092565b60006159908261422b565b915061599b8361422b565b9250827f7fffffffffffffffffffffffffffffffffffffffffffffffffffffffffffffff04821160008413600084131616156159da576159d9614a2a565b5b817f80000000000000000000000000000000000000000000000000000000000000000583126000841260008413161615615a1757615a16614a2a565b5b827f80000000000000000000000000000000000000000000000000000000000000000582126000841360008412161615615a5457615a53614a2a565b5b827f7fffffffffffffffffffffffffffffffffffffffffffffffffffffffffffffff0582126000841260008412161615615a9157615a90614a2a565b5b828202905092915050565b6000615aa7826141f2565b9150615ab2836141f2565b925082821015615ac557615ac4614a2a565b5b828203905092915050565b6000615adb8261422b565b9150615ae68361422b565b925082615af657615af56157bc565b5b600160000383147f800000000000000000000000000000000000000000000000000000000000000083141615615b2f57615b2e614a2a565b5b828205905092915050565b6000615b458261422b565b9150615b508361422b565b9250817f7fffffffffffffffffffffffffffffffffffffffffffffffffffffffffffffff03831360008312151615615b8b57615b8a614a2a565b5b817f8000000000000000000000000000000000000000000000000000000000000000038312600083121615615bc357615bc2614a2a565b5b82820190509291505056fea2646970667358221220fec4e9ba8f7f98df15ffedbd173fa6b24188559f265079c7427f8ec8204a28bd64736f6c634300080a0033",
  "immutableReferences": {},
  "source": "// SPDX-License-Identifier: MIT\n\npragma solidity ^0.8.0;\n\nimport \"./Kitchen.sol\";\nimport \"./FastFood.sol\";\n\ncontract McStake is Kitchen {\n  FastFood foodToken; // Reference to the $FFOOD contract\n\n  function initialize(\n    address _character,\n    address _claim,\n    address _foodToken\n  ) external initializer {\n    __Ownable_init();\n    __Pausable_init();\n\n    unaccountedRewards = 0;\n    foodTokensPerRat = 0;\n    lastClaimTimestamp = 0;\n\n    character = Character(_character);\n    claim = IClaim(_claim);\n    foodToken = FastFood(_foodToken);\n  }\n\n  /**\n   * Allows DAO to update game parameters\n   */\n  function configure(\n    uint256 _foodTokenMaxSupply,\n    uint256[] memory _earningSettings, // dailyChefEarnings, ratTheftPercentage, vestingPeriod, accrualPeriod\n    int8[] memory _propertyIncrements, // dailySkillRate, dailyFreakRate, dailyIntelligenceRate, dailyBodyMassRate\n    uint8 _chefEfficiencyMultiplier,\n    int256 _ratEfficiencyMultiplier,\n    int256 _ratEfficiencyOffset,\n    uint8 _maxClaimsPerTx,\n    uint256 _claimFee\n  ) external onlyOwner {\n    foodTokenMaxSupply = _foodTokenMaxSupply * 1 ether;\n    dailyChefEarnings = _earningSettings[0] * 1 ether;\n    ratTheftPercentage = _earningSettings[1];\n    vestingPeriod = _earningSettings[2];\n    accrualPeriod = _earningSettings[3];\n    dailySkillRate = _propertyIncrements[0];\n    dailyFreakRate = _propertyIncrements[1];\n    dailyIntelligenceRate = _propertyIncrements[2];\n    dailyBodyMassRate = _propertyIncrements[3];\n    chefEfficiencyMultiplier = _chefEfficiencyMultiplier;\n    ratEfficiencyMultiplier = _ratEfficiencyMultiplier;\n    ratEfficiencyOffset = _ratEfficiencyOffset;\n    maxClaimsPerTx = _maxClaimsPerTx;\n    claimFee = _claimFee;\n  }\n\n  /**\n   * Mints the given amount of food tokens in the user's account\n   * @param sender - User wallet address\n   * @param amount - Amount of food tokens to mint\n   */\n  function _mintFoodToken(address sender, uint256 amount) internal override {\n    foodToken.mint(sender, amount);\n  }\n}\n",
  "sourcePath": "/Users/chris/workspace/ratalert/ratalert-contracts/contracts/McStake.sol",
  "compiler": {
    "name": "solc",
    "version": "0.8.10+commit.fc410830.Emscripten.clang"
  },
  "schemaVersion": "3.4.7",
  "updatedAt": "2022-08-07T04:51:44.550Z",
  "devdoc": {
    "kind": "dev",
    "methods": {
      "claimMany(uint16[],bool)": {
        "params": {
          "tokenIds": "- The IDs of the tokens in question",
          "unstake": "- Whether or not to unstake the given tokens"
        }
      },
      "fulfillClaimMany((bytes32,address,address,uint16[],bool),uint256)": {
        "params": {
          "randomness": "- Random value created by VRF",
          "v": "- VRF struct for the corresponding request"
        }
      },
      "getChefsStaked(address)": {
        "params": {
          "account": "- User wallet address"
        },
        "returns": {
          "_0": "Number of chefs in staking"
        }
      },
      "owner()": {
        "details": "Returns the address of the current owner."
      },
      "paused()": {
        "details": "Returns true if the contract is paused, and false otherwise."
      },
      "renounceOwnership()": {
        "details": "Leaves the contract without owner. It will not be possible to call `onlyOwner` functions anymore. Can only be called by the current owner. NOTE: Renouncing ownership will leave the contract without an owner, thereby removing any functionality that is only available to the owner."
      },
      "stakeMany(address,uint16[])": {
        "params": {
          "account": "- User wallet address",
          "tokenIds": "- The IDs of the Chefs & Rats to stake"
        }
      },
      "transferOwnership(address)": {
        "details": "Transfers ownership of the contract to a new account (`newOwner`). Can only be called by the current owner."
      }
    },
    "version": 1
  },
  "userdoc": {
    "kind": "user",
    "methods": {
      "claimMany(uint16[],bool)": {
        "notice": "ChainLink VRF request: Claims food token earnings, level-ups and optionally unstake characters"
      },
      "configure(uint256,uint256[],int8[],uint8,int256,int256,uint8,uint256)": {
        "notice": "Allows DAO to update game parameters"
      },
      "fulfillClaimMany((bytes32,address,address,uint16[],bool),uint256)": {
        "notice": "Callback for claimMany(), called by Claim.fulfillRandomness()"
      },
      "getChefsStaked(address)": {
        "notice": "Get the amount of chefs the given account has in staking"
      },
      "onERC721Received(address,address,uint256,bytes)": {
        "notice": "IERC721ReceiverUpgradeable interface: We do not accept tokens sent directly"
      },
      "stakeMany(address,uint16[])": {
        "notice": "Adds Characters to staking"
      },
      "withdrawPayments()": {
        "notice": "Allows DAO to withdraw funds"
      }
    },
    "version": 1
  }
}