{
  "contractName": "Mint",
  "abi": [
    {
      "anonymous": false,
      "inputs": [
        {
          "indexed": true,
          "internalType": "address",
          "name": "previousOwner",
          "type": "address"
        },
        {
          "indexed": true,
          "internalType": "address",
          "name": "newOwner",
          "type": "address"
        }
      ],
      "name": "OwnershipTransferred",
      "type": "event"
    },
    {
      "anonymous": false,
      "inputs": [
        {
          "indexed": false,
          "internalType": "bytes32",
          "name": "requestId",
          "type": "bytes32"
        },
        {
          "indexed": false,
          "internalType": "address",
          "name": "sender",
          "type": "address"
        }
      ],
      "name": "RandomNumberRequested",
      "type": "event"
    },
    {
      "anonymous": false,
      "inputs": [
        {
          "indexed": true,
          "internalType": "address",
          "name": "from",
          "type": "address"
        },
        {
          "indexed": true,
          "internalType": "address",
          "name": "to",
          "type": "address"
        },
        {
          "indexed": true,
          "internalType": "uint256",
          "name": "tokenId",
          "type": "uint256"
        }
      ],
      "name": "Transfer",
      "type": "event"
    },
    {
      "inputs": [
        {
          "internalType": "uint256",
          "name": "",
          "type": "uint256"
        }
      ],
      "name": "existingCombinations",
      "outputs": [
        {
          "internalType": "bytes32",
          "name": "",
          "type": "bytes32"
        }
      ],
      "stateMutability": "view",
      "type": "function",
      "constant": true
    },
    {
      "inputs": [],
      "name": "owner",
      "outputs": [
        {
          "internalType": "address",
          "name": "",
          "type": "address"
        }
      ],
      "stateMutability": "view",
      "type": "function",
      "constant": true
    },
    {
      "inputs": [
        {
          "internalType": "uint256",
          "name": "",
          "type": "uint256"
        },
        {
          "internalType": "uint256",
          "name": "",
          "type": "uint256"
        }
      ],
      "name": "rarities",
      "outputs": [
        {
          "internalType": "uint8",
          "name": "",
          "type": "uint8"
        }
      ],
      "stateMutability": "view",
      "type": "function",
      "constant": true
    },
    {
      "inputs": [
        {
          "internalType": "bytes32",
          "name": "requestId",
          "type": "bytes32"
        },
        {
          "internalType": "uint256",
          "name": "randomness",
          "type": "uint256"
        }
      ],
      "name": "rawFulfillRandomness",
      "outputs": [],
      "stateMutability": "nonpayable",
      "type": "function"
    },
    {
      "inputs": [],
      "name": "renounceOwnership",
      "outputs": [],
      "stateMutability": "nonpayable",
      "type": "function"
    },
    {
      "inputs": [
        {
          "internalType": "address",
          "name": "newOwner",
          "type": "address"
        }
      ],
      "name": "transferOwnership",
      "outputs": [],
      "stateMutability": "nonpayable",
      "type": "function"
    },
    {
      "inputs": [
        {
          "internalType": "bytes32",
          "name": "",
          "type": "bytes32"
        }
      ],
      "name": "vrfRequests",
      "outputs": [
        {
          "internalType": "bytes32",
          "name": "requestId",
          "type": "bytes32"
        },
        {
          "internalType": "address",
          "name": "sender",
          "type": "address"
        },
        {
          "internalType": "uint8",
          "name": "amount",
          "type": "uint8"
        },
        {
          "internalType": "bool",
          "name": "stake",
          "type": "bool"
        }
      ],
      "stateMutability": "view",
      "type": "function",
      "constant": true
    },
    {
      "inputs": [
        {
          "internalType": "uint256",
          "name": "amount",
          "type": "uint256"
        }
      ],
      "name": "withdrawLink",
      "outputs": [
        {
          "internalType": "bool",
          "name": "success",
          "type": "bool"
        }
      ],
      "stateMutability": "nonpayable",
      "type": "function"
    },
    {
      "inputs": [
        {
          "internalType": "address",
          "name": "_vrfCoordinator",
          "type": "address"
        },
        {
          "internalType": "address",
          "name": "_link",
          "type": "address"
        },
        {
          "internalType": "bytes32",
          "name": "_keyHash",
          "type": "bytes32"
        },
        {
          "internalType": "uint256",
          "name": "_fee",
          "type": "uint256"
        }
      ],
      "name": "initialize",
      "outputs": [],
      "stateMutability": "nonpayable",
      "type": "function"
    },
    {
      "inputs": [
        {
          "internalType": "address",
          "name": "_vrfCoordinator",
          "type": "address"
        },
        {
          "internalType": "address",
          "name": "_link",
          "type": "address"
        }
      ],
      "name": "initialize",
      "outputs": [],
      "stateMutability": "nonpayable",
      "type": "function"
    },
    {
      "inputs": [
        {
          "internalType": "address",
          "name": "_vrfCoordinator",
          "type": "address"
        },
        {
          "internalType": "address",
          "name": "_link",
          "type": "address"
        },
        {
          "internalType": "bytes32",
          "name": "_keyHash",
          "type": "bytes32"
        },
        {
          "internalType": "uint256",
          "name": "_fee",
          "type": "uint256"
        }
      ],
      "name": "setVrfParams",
      "outputs": [],
      "stateMutability": "nonpayable",
      "type": "function"
    },
    {
      "inputs": [
        {
          "internalType": "address",
          "name": "sender",
          "type": "address"
        },
        {
          "internalType": "uint8",
          "name": "amount",
          "type": "uint8"
        },
        {
          "internalType": "bool",
          "name": "stake",
          "type": "bool"
        }
      ],
      "name": "requestRandomNumber",
      "outputs": [
        {
          "internalType": "bytes32",
          "name": "requestId",
          "type": "bytes32"
        }
      ],
      "stateMutability": "nonpayable",
      "type": "function"
    },
    {
      "inputs": [
        {
          "internalType": "address",
          "name": "_character",
          "type": "address"
        }
      ],
      "name": "setCharacter",
      "outputs": [],
      "stateMutability": "nonpayable",
      "type": "function"
    },
    {
      "inputs": [
        {
          "internalType": "address",
          "name": "controller",
          "type": "address"
        }
      ],
      "name": "getController",
      "outputs": [
        {
          "internalType": "bool",
          "name": "",
          "type": "bool"
        }
      ],
      "stateMutability": "view",
      "type": "function",
      "constant": true
    },
    {
      "inputs": [
        {
          "internalType": "address",
          "name": "controller",
          "type": "address"
        }
      ],
      "name": "addController",
      "outputs": [],
      "stateMutability": "nonpayable",
      "type": "function"
    },
    {
      "inputs": [
        {
          "internalType": "address",
          "name": "controller",
          "type": "address"
        }
      ],
      "name": "removeController",
      "outputs": [],
      "stateMutability": "nonpayable",
      "type": "function"
    }
  ],
  "bytecode": "0x608060405234801561001057600080fd5b5061339e806100206000396000f3fe608060405234801561001057600080fd5b50600436106101005760003560e01c80638da5cb5b11610097578063de864bf911610066578063de864bf914610295578063dec04e5f146102c5578063f2fde38b146102f8578063f6a74ed71461031457610100565b80638da5cb5b1461020f57806394985ddd1461022d578063a1b8f37414610249578063a7fc7a071461027957610100565b8063485cc955116100d3578063485cc95514610189578063715018a6146101a55780637a8042bd146101af57806388c662aa146101df57610100565b8063204efe1714610105578063277a23891461012157806333df4b2c1461013d5780633d6b06cc1461016d575b600080fd5b61011f600480360381019061011a91906121d2565b610330565b005b61013b6004803603810190610136919061226b565b6103f0565b005b610157600480360381019061015291906122d2565b6109b4565b604051610164919061232e565b60405180910390f35b6101876004803603810190610182919061226b565b6109fa565b005b6101a3600480360381019061019e9190612349565b610b0c565b005b6101ad610c74565b005b6101c960048036038101906101c49190612389565b610cfc565b6040516101d691906123d1565b60405180910390f35b6101f960048036038101906101f491906121d2565b610e28565b60405161020691906123d1565b60405180910390f35b610217610efa565b60405161022491906123fb565b60405180910390f35b61024760048036038101906102429190612416565b610f24565b005b610263600480360381019061025e9190612389565b610fc2565b6040516102709190612465565b60405180910390f35b610293600480360381019061028e91906121d2565b610fda565b005b6102af60048036038101906102aa91906124d8565b6110b1565b6040516102bc9190612465565b60405180910390f35b6102df60048036038101906102da919061252b565b611367565b6040516102ef9493929190612558565b60405180910390f35b610312600480360381019061030d91906121d2565b6113d1565b005b61032e600480360381019061032991906121d2565b6114c9565b005b6103386115a0565b73ffffffffffffffffffffffffffffffffffffffff16610356610efa565b73ffffffffffffffffffffffffffffffffffffffff16146103ac576040517f08c379a00000000000000000000000000000000000000000000000000000000081526004016103a3906125fa565b60405180910390fd5b80607c60006101000a81548173ffffffffffffffffffffffffffffffffffffffff021916908373ffffffffffffffffffffffffffffffffffffffff16021790555050565b600060019054906101000a900460ff166104185760008054906101000a900460ff1615610421565b6104206115a8565b5b610460576040517f08c379a00000000000000000000000000000000000000000000000000000000081526004016104579061268c565b60405180910390fd5b60008060019054906101000a900460ff1615905080156104b0576001600060016101000a81548160ff02191690831515021790555060016000806101000a81548160ff0219169083151502179055505b6104b86115b9565b84606660006101000a81548173ffffffffffffffffffffffffffffffffffffffff021916908373ffffffffffffffffffffffffffffffffffffffff16021790555083606560006101000a81548173ffffffffffffffffffffffffffffffffffffffff021916908373ffffffffffffffffffffffffffffffffffffffff16021790555082607d8190555081607e819055506040518060c0016040528060ff8016815260200160df60ff16815260200160bf60ff168152602001609f60ff168152602001607f60ff168152602001605f60ff1681525060686002601281106105a1576105a06126ac565b5b019060066105b0929190611f94565b5060405180610100016040528060ff8016815260200160df60ff16815260200160bf60ff168152602001609f60ff168152602001607f60ff168152602001605f60ff168152602001603f60ff168152602001601f60ff16815250606860036012811061061f5761061e6126ac565b5b0190600861062e92919061203b565b506040518060c0016040528060ff8016815260200160df60ff16815260200160bf60ff168152602001609f60ff168152602001607f60ff168152602001605f60ff168152506068600460128110610688576106876126ac565b5b01906006610697929190611f94565b506040518060c0016040528060ff8016815260200160cf60ff168152602001609f60ff168152602001606f60ff168152602001603f60ff168152602001600f60ff1681525060686005601281106106f1576106f06126ac565b5b01906006610700929190611f94565b506040518060c0016040528060ff8016815260200160df60ff16815260200160bf60ff168152602001609f60ff168152602001607f60ff168152602001605f60ff16815250606860066012811061075a576107596126ac565b5b01906006610769929190611f94565b506040518060c0016040528060ff8016815260200160df60ff16815260200160bf60ff168152602001609f60ff168152602001607f60ff168152602001605f60ff168152506068600c601281106107c3576107c26126ac565b5b019060066107d2929190611f94565b5060405180610100016040528060ff8016815260200160df60ff16815260200160bf60ff168152602001609f60ff168152602001607f60ff168152602001605f60ff168152602001603f60ff168152602001601f60ff168152506068600d60128110610841576108406126ac565b5b0190600861085092919061203b565b506040518060c0016040528060ff8016815260200160df60ff16815260200160bf60ff168152602001609f60ff168152602001607f60ff168152602001605f60ff168152506068600e601281106108aa576108a96126ac565b5b019060066108b9929190611f94565b506040518060c0016040528060ff8016815260200160cf60ff168152602001609f60ff168152602001606f60ff168152602001603f60ff168152602001600f60ff168152506068600f60128110610913576109126126ac565b5b01906006610922929190611f94565b506040518060c0016040528060ff8016815260200160df60ff16815260200160bf60ff168152602001609f60ff168152602001607f60ff168152602001605f60ff16815250606860106012811061097c5761097b6126ac565b5b0190600661098b929190611f94565b5080156109ad5760008060016101000a81548160ff0219169083151502179055505b5050505050565b606882601281106109c457600080fd5b0181815481106109d357600080fd5b9060005260206000209060209182820401919006915091509054906101000a900460ff1681565b610a026115a0565b73ffffffffffffffffffffffffffffffffffffffff16610a20610efa565b73ffffffffffffffffffffffffffffffffffffffff1614610a76576040517f08c379a0000000000000000000000000000000000000000000000000000000008152600401610a6d906125fa565b60405180910390fd5b83606660006101000a81548173ffffffffffffffffffffffffffffffffffffffff021916908373ffffffffffffffffffffffffffffffffffffffff16021790555082606560006101000a81548173ffffffffffffffffffffffffffffffffffffffff021916908373ffffffffffffffffffffffffffffffffffffffff16021790555081607d8190555080607e8190555050505050565b600060019054906101000a900460ff16610b345760008054906101000a900460ff1615610b3d565b610b3c6115a8565b5b610b7c576040517f08c379a0000000000000000000000000000000000000000000000000000000008152600401610b739061268c565b60405180910390fd5b60008060019054906101000a900460ff161590508015610bcc576001600060016101000a81548160ff02191690831515021790555060016000806101000a81548160ff0219169083151502179055505b82606660006101000a81548173ffffffffffffffffffffffffffffffffffffffff021916908373ffffffffffffffffffffffffffffffffffffffff16021790555081606560006101000a81548173ffffffffffffffffffffffffffffffffffffffff021916908373ffffffffffffffffffffffffffffffffffffffff1602179055508015610c6f5760008060016101000a81548160ff0219169083151502179055505b505050565b610c7c6115a0565b73ffffffffffffffffffffffffffffffffffffffff16610c9a610efa565b73ffffffffffffffffffffffffffffffffffffffff1614610cf0576040517f08c379a0000000000000000000000000000000000000000000000000000000008152600401610ce7906125fa565b60405180910390fd5b610cfa600061161a565b565b6000610d066115a0565b73ffffffffffffffffffffffffffffffffffffffff16610d24610efa565b73ffffffffffffffffffffffffffffffffffffffff1614610d7a576040517f08c379a0000000000000000000000000000000000000000000000000000000008152600401610d71906125fa565b60405180910390fd5b606560009054906101000a900473ffffffffffffffffffffffffffffffffffffffff1673ffffffffffffffffffffffffffffffffffffffff1663a9059cbb610dc06115a0565b846040518363ffffffff1660e01b8152600401610dde9291906126ea565b6020604051808303816000875af1158015610dfd573d6000803e3d6000fd5b505050506040513d601f19601f82011682018060405250810190610e219190612728565b9050919050565b6000610e326115a0565b73ffffffffffffffffffffffffffffffffffffffff16610e50610efa565b73ffffffffffffffffffffffffffffffffffffffff1614610ea6576040517f08c379a0000000000000000000000000000000000000000000000000000000008152600401610e9d906125fa565b60405180910390fd5b607b60008373ffffffffffffffffffffffffffffffffffffffff1673ffffffffffffffffffffffffffffffffffffffff16815260200190815260200160002060009054906101000a900460ff169050919050565b6000603360009054906101000a900473ffffffffffffffffffffffffffffffffffffffff16905090565b606660009054906101000a900473ffffffffffffffffffffffffffffffffffffffff1673ffffffffffffffffffffffffffffffffffffffff163373ffffffffffffffffffffffffffffffffffffffff1614610fb4576040517f08c379a0000000000000000000000000000000000000000000000000000000008152600401610fab906127a1565b60405180910390fd5b610fbe82826116e0565b5050565b607a6020528060005260406000206000915090505481565b610fe26115a0565b73ffffffffffffffffffffffffffffffffffffffff16611000610efa565b73ffffffffffffffffffffffffffffffffffffffff1614611056576040517f08c379a000000000000000000000000000000000000000000000000000000000815260040161104d906125fa565b60405180910390fd5b6001607b60008373ffffffffffffffffffffffffffffffffffffffff1673ffffffffffffffffffffffffffffffffffffffff16815260200190815260200160002060006101000a81548160ff02191690831515021790555050565b6000607b60006110bf6115a0565b73ffffffffffffffffffffffffffffffffffffffff1673ffffffffffffffffffffffffffffffffffffffff16815260200190815260200160002060009054906101000a900460ff16611146576040517f08c379a000000000000000000000000000000000000000000000000000000000815260040161113d90612833565b60405180910390fd5b607e54606560009054906101000a900473ffffffffffffffffffffffffffffffffffffffff1673ffffffffffffffffffffffffffffffffffffffff166370a08231306040518263ffffffff1660e01b81526004016111a491906123fb565b602060405180830381865afa1580156111c1573d6000803e3d6000fd5b505050506040513d601f19601f820116820180604052508101906111e59190612868565b1015611226576040517f08c379a000000000000000000000000000000000000000000000000000000000815260040161121d906128e1565b60405180910390fd5b611234607d54607e546119e2565b9050600060405180608001604052808381526020018673ffffffffffffffffffffffffffffffffffffffff1681526020018560ff168152602001841515815250905080607f60008481526020019081526020016000206000820151816000015560208201518160010160006101000a81548173ffffffffffffffffffffffffffffffffffffffff021916908373ffffffffffffffffffffffffffffffffffffffff16021790555060408201518160010160146101000a81548160ff021916908360ff16021790555060608201518160010160156101000a81548160ff0219169083151502179055509050507fa604c1d75d1d5480c3a226f3b59c2be444c037ab3cbc22c688fa02ddcaedd135826113496115a0565b604051611357929190612901565b60405180910390a1509392505050565b607f6020528060005260406000206000915090508060000154908060010160009054906101000a900473ffffffffffffffffffffffffffffffffffffffff16908060010160149054906101000a900460ff16908060010160159054906101000a900460ff16905084565b6113d96115a0565b73ffffffffffffffffffffffffffffffffffffffff166113f7610efa565b73ffffffffffffffffffffffffffffffffffffffff161461144d576040517f08c379a0000000000000000000000000000000000000000000000000000000008152600401611444906125fa565b60405180910390fd5b600073ffffffffffffffffffffffffffffffffffffffff168173ffffffffffffffffffffffffffffffffffffffff1614156114bd576040517f08c379a00000000000000000000000000000000000000000000000000000000081526004016114b49061299c565b60405180910390fd5b6114c68161161a565b50565b6114d16115a0565b73ffffffffffffffffffffffffffffffffffffffff166114ef610efa565b73ffffffffffffffffffffffffffffffffffffffff1614611545576040517f08c379a000000000000000000000000000000000000000000000000000000000815260040161153c906125fa565b60405180910390fd5b6000607b60008373ffffffffffffffffffffffffffffffffffffffff1673ffffffffffffffffffffffffffffffffffffffff16815260200190815260200160002060006101000a81548160ff02191690831515021790555050565b600033905090565b60006115b330611b39565b15905090565b600060019054906101000a900460ff16611608576040517f08c379a00000000000000000000000000000000000000000000000000000000081526004016115ff90612a2e565b60405180910390fd5b611610611b4c565b611618611b9d565b565b6000603360009054906101000a900473ffffffffffffffffffffffffffffffffffffffff16905081603360006101000a81548173ffffffffffffffffffffffffffffffffffffffff021916908373ffffffffffffffffffffffffffffffffffffffff1602179055508173ffffffffffffffffffffffffffffffffffffffff168173ffffffffffffffffffffffffffffffffffffffff167f8be0079c531659141344cd1fd0a4f28419497f9722a3daafe3b4186f6b6457e060405160405180910390a35050565b6000801b607f600084815260200190815260200160002060000154141561173c576040517f08c379a000000000000000000000000000000000000000000000000000000000815260040161173390612a9a565b60405180910390fd5b6000607f6000848152602001908152602001600020604051806080016040529081600082015481526020016001820160009054906101000a900473ffffffffffffffffffffffffffffffffffffffff1673ffffffffffffffffffffffffffffffffffffffff1673ffffffffffffffffffffffffffffffffffffffff1681526020016001820160149054906101000a900460ff1660ff1660ff1681526020016001820160159054906101000a900460ff16151515158152505090506000816040015160ff1667ffffffffffffffff81111561181957611818612aba565b5b60405190808252806020026020018201604052801561185257816020015b61183f6120e2565b8152602001906001900390816118375790505b50905060005b826040015160ff168110156118cd5761189c85858360405160200161187e929190612ae9565b6040516020818303038152906040528051906020012060001c611bfe565b8282815181106118af576118ae6126ac565b5b602002602001018190525080806118c590612b41565b915050611858565b50607c60009054906101000a900473ffffffffffffffffffffffffffffffffffffffff1673ffffffffffffffffffffffffffffffffffffffff16634a43d1d3607f6000878152602001908152602001600020836040518363ffffffff1660e01b815260040161193d929190612e8a565b600060405180830381600087803b15801561195757600080fd5b505af115801561196b573d6000803e3d6000fd5b50505050607f60008581526020019081526020016000206000808201600090556001820160006101000a81549073ffffffffffffffffffffffffffffffffffffffff02191690556001820160146101000a81549060ff02191690556001820160156101000a81549060ff0219169055505050505050565b6000606560009054906101000a900473ffffffffffffffffffffffffffffffffffffffff1673ffffffffffffffffffffffffffffffffffffffff16634000aea0606660009054906101000a900473ffffffffffffffffffffffffffffffffffffffff1684866000604051602001611a5a929190612eba565b6040516020818303038152906040526040518463ffffffff1660e01b8152600401611a8793929190612f7c565b6020604051808303816000875af1158015611aa6573d6000803e3d6000fd5b505050506040513d601f19601f82011682018060405250810190611aca9190612728565b506000611aed846000306067600089815260200190815260200160002054611ca3565b905060016067600086815260200190815260200160002054611b0f9190612fba565b6067600086815260200190815260200160002081905550611b308482611cdf565b91505092915050565b600080823b905060008111915050919050565b600060019054906101000a900460ff16611b9b576040517f08c379a0000000000000000000000000000000000000000000000000000000008152600401611b9290612a2e565b60405180910390fd5b565b600060019054906101000a900460ff16611bec576040517f08c379a0000000000000000000000000000000000000000000000000000000008152600401611be390612a2e565b60405180910390fd5b611bfc611bf76115a0565b61161a565b565b611c066120e2565b611c0f82611d12565b90506000611c1c82611e6b565b90506000801b607a6000838152602001908152602001600020541415611c5a5783607a60008381526020019081526020016000208190555050611c9d565b611c9984600185611c6b9190613010565b604051602001611c7b9190613065565b6040516020818303038152906040528051906020012060001c611bfe565b9150505b92915050565b600084848484604051602001611cbc9493929190613080565b6040516020818303038152906040528051906020012060001c9050949350505050565b60008282604051602001611cf49291906130e6565b60405160208183030381529060405280519060200120905092915050565b611d1a6120e2565b6000600a61ffff8416611d2d9190613141565b1415816000019015159081151581525050806000015115611dd957611d53826002611ece565b816020019060ff16908160ff1681525050611d6f826003611ece565b816040019060ff16908160ff1681525050611d8b826004611ece565b816080019060ff16908160ff1681525050611da7826005611ece565b8160a0019060ff16908160ff1681525050611dc3826006611ece565b8160c0019060ff16908160ff1681525050611e66565b611de482600c611ece565b816020019060ff16908160ff1681525050611e0082600d611ece565b816040019060ff16908160ff1681525050611e1c82600e611ece565b816060019060ff16908160ff1681525050611e3882600f611ece565b8160a0019060ff16908160ff1681525050611e54826010611ece565b8160e0019060ff16908160ff16815250505b919050565b6000816000015182602001518360400151846060015185608001518660a001518760c001518860e00151604051602001611eac9897969594939291906131d1565b604051602081830303815290604052611ec490613295565b60001c9050919050565b60006010600a83611edf91906132fc565b611ee9919061332d565b60ff1683901c9250600060688360ff1660128110611f0a57611f096126ac565b5b018054905084611f1a91906132fc565b9050600060ff8516905060688460ff1660128110611f3b57611f3a6126ac565b5b018260ff1681548110611f5157611f506126ac565b5b90600052602060002090602091828204019190069054906101000a900460ff1660ff168160ff1611611f87578192505050611f8e565b6000925050505b92915050565b82805482825590600052602060002090601f0160209004810192821561202a5791602002820160005b83821115611ffb57835183826101000a81548160ff021916908360ff1602179055509260200192600101602081600001049283019260010302611fbd565b80156120285782816101000a81549060ff0219169055600101602081600001049283019260010302611ffb565b505b5090506120379190612152565b5090565b82805482825590600052602060002090601f016020900481019282156120d15791602002820160005b838211156120a257835183826101000a81548160ff021916908360ff1602179055509260200192600101602081600001049283019260010302612064565b80156120cf5782816101000a81549060ff02191690556001016020816000010492830192600103026120a2565b505b5090506120de9190612152565b5090565b604051806101400160405280600015158152602001600060ff168152602001600060ff168152602001600060ff168152602001600060ff168152602001600060ff168152602001600060ff168152602001600060ff168152602001600060ff168152602001600060ff1681525090565b5b8082111561216b576000816000905550600101612153565b5090565b600080fd5b600073ffffffffffffffffffffffffffffffffffffffff82169050919050565b600061219f82612174565b9050919050565b6121af81612194565b81146121ba57600080fd5b50565b6000813590506121cc816121a6565b92915050565b6000602082840312156121e8576121e761216f565b5b60006121f6848285016121bd565b91505092915050565b6000819050919050565b612212816121ff565b811461221d57600080fd5b50565b60008135905061222f81612209565b92915050565b6000819050919050565b61224881612235565b811461225357600080fd5b50565b6000813590506122658161223f565b92915050565b600080600080608085870312156122855761228461216f565b5b6000612293878288016121bd565b94505060206122a4878288016121bd565b93505060406122b587828801612220565b92505060606122c687828801612256565b91505092959194509250565b600080604083850312156122e9576122e861216f565b5b60006122f785828601612256565b925050602061230885828601612256565b9150509250929050565b600060ff82169050919050565b61232881612312565b82525050565b6000602082019050612343600083018461231f565b92915050565b600080604083850312156123605761235f61216f565b5b600061236e858286016121bd565b925050602061237f858286016121bd565b9150509250929050565b60006020828403121561239f5761239e61216f565b5b60006123ad84828501612256565b91505092915050565b60008115159050919050565b6123cb816123b6565b82525050565b60006020820190506123e660008301846123c2565b92915050565b6123f581612194565b82525050565b600060208201905061241060008301846123ec565b92915050565b6000806040838503121561242d5761242c61216f565b5b600061243b85828601612220565b925050602061244c85828601612256565b9150509250929050565b61245f816121ff565b82525050565b600060208201905061247a6000830184612456565b92915050565b61248981612312565b811461249457600080fd5b50565b6000813590506124a681612480565b92915050565b6124b5816123b6565b81146124c057600080fd5b50565b6000813590506124d2816124ac565b92915050565b6000806000606084860312156124f1576124f061216f565b5b60006124ff868287016121bd565b935050602061251086828701612497565b9250506040612521868287016124c3565b9150509250925092565b6000602082840312156125415761254061216f565b5b600061254f84828501612220565b91505092915050565b600060808201905061256d6000830187612456565b61257a60208301866123ec565b612587604083018561231f565b61259460608301846123c2565b95945050505050565b600082825260208201905092915050565b7f4f776e61626c653a2063616c6c6572206973206e6f7420746865206f776e6572600082015250565b60006125e460208361259d565b91506125ef826125ae565b602082019050919050565b60006020820190508181036000830152612613816125d7565b9050919050565b7f496e697469616c697a61626c653a20636f6e747261637420697320616c72656160008201527f647920696e697469616c697a6564000000000000000000000000000000000000602082015250565b6000612676602e8361259d565b91506126818261261a565b604082019050919050565b600060208201905081810360008301526126a581612669565b9050919050565b7f4e487b7100000000000000000000000000000000000000000000000000000000600052603260045260246000fd5b6126e481612235565b82525050565b60006040820190506126ff60008301856123ec565b61270c60208301846126db565b9392505050565b600081519050612722816124ac565b92915050565b60006020828403121561273e5761273d61216f565b5b600061274c84828501612713565b91505092915050565b7f4f6e6c7920565246436f6f7264696e61746f722063616e2066756c66696c6c00600082015250565b600061278b601f8361259d565b915061279682612755565b602082019050919050565b600060208201905081810360008301526127ba8161277e565b9050919050565b7f4f6e6c7920636f6e74726f6c6c6572732063616e20726571756573742072616e60008201527f646f6d6e65737300000000000000000000000000000000000000000000000000602082015250565b600061281d60278361259d565b9150612828826127c1565b604082019050919050565b6000602082019050818103600083015261284c81612810565b9050919050565b6000815190506128628161223f565b92915050565b60006020828403121561287e5761287d61216f565b5b600061288c84828501612853565b91505092915050565b7f496e73756666696369656e74204c494e4b000000000000000000000000000000600082015250565b60006128cb60118361259d565b91506128d682612895565b602082019050919050565b600060208201905081810360008301526128fa816128be565b9050919050565b60006040820190506129166000830185612456565b61292360208301846123ec565b9392505050565b7f4f776e61626c653a206e6577206f776e657220697320746865207a65726f206160008201527f6464726573730000000000000000000000000000000000000000000000000000602082015250565b600061298660268361259d565b91506129918261292a565b604082019050919050565b600060208201905081810360008301526129b581612979565b9050919050565b7f496e697469616c697a61626c653a20636f6e7472616374206973206e6f74206960008201527f6e697469616c697a696e67000000000000000000000000000000000000000000602082015250565b6000612a18602b8361259d565b9150612a23826129bc565b604082019050919050565b60006020820190508181036000830152612a4781612a0b565b9050919050565b7f5652462072657175657374204944206e6f7420666f756e640000000000000000600082015250565b6000612a8460188361259d565b9150612a8f82612a4e565b602082019050919050565b60006020820190508181036000830152612ab381612a77565b9050919050565b7f4e487b7100000000000000000000000000000000000000000000000000000000600052604160045260246000fd5b6000604082019050612afe60008301856126db565b612b0b60208301846126db565b9392505050565b7f4e487b7100000000000000000000000000000000000000000000000000000000600052601160045260246000fd5b6000612b4c82612235565b91507fffffffffffffffffffffffffffffffffffffffffffffffffffffffffffffffff821415612b7f57612b7e612b12565b5b600182019050919050565b60008160001c9050919050565b6000819050919050565b6000612bb4612baf83612b8a565b612b97565b9050919050565b612bc4816121ff565b82525050565b600073ffffffffffffffffffffffffffffffffffffffff82169050919050565b6000612bfd612bf883612b8a565b612bca565b9050919050565b612c0d81612194565b82525050565b60008160a01c9050919050565b600060ff82169050919050565b6000612c40612c3b83612c13565b612c20565b9050919050565b612c5081612312565b82525050565b60008160a81c9050919050565b600060ff82169050919050565b6000612c83612c7e83612c56565b612c63565b9050919050565b612c93816123b6565b82525050565b608082016000808301549050612cae81612ba1565b612cbb6000860182612bbb565b5060018301549050612ccc81612bea565b612cd96020860182612c04565b50612ce381612c2d565b612cf06040860182612c47565b50612cfa81612c70565b612d076060860182612c8a565b5050505050565b600081519050919050565b600082825260208201905092915050565b6000819050602082019050919050565b61014082016000820151612d516000850182612c8a565b506020820151612d646020850182612c47565b506040820151612d776040850182612c47565b506060820151612d8a6060850182612c47565b506080820151612d9d6080850182612c47565b5060a0820151612db060a0850182612c47565b5060c0820151612dc360c0850182612c47565b5060e0820151612dd660e0850182612c47565b50610100820151612deb610100850182612c47565b50610120820151612e00610120850182612c47565b50505050565b6000612e128383612d3a565b6101408301905092915050565b6000602082019050919050565b6000612e3782612d0e565b612e418185612d19565b9350612e4c83612d2a565b8060005b83811015612e7d578151612e648882612e06565b9750612e6f83612e1f565b925050600181019050612e50565b5085935050505092915050565b600060a082019050612e9f6000830185612c99565b8181036080830152612eb18184612e2c565b90509392505050565b6000604082019050612ecf6000830185612456565b612edc60208301846126db565b9392505050565b600081519050919050565b600082825260208201905092915050565b60005b83811015612f1d578082015181840152602081019050612f02565b83811115612f2c576000848401525b50505050565b6000601f19601f8301169050919050565b6000612f4e82612ee3565b612f588185612eee565b9350612f68818560208601612eff565b612f7181612f32565b840191505092915050565b6000606082019050612f9160008301866123ec565b612f9e60208301856126db565b8181036040830152612fb08184612f43565b9050949350505050565b6000612fc582612235565b9150612fd083612235565b9250827fffffffffffffffffffffffffffffffffffffffffffffffffffffffffffffffff0382111561300557613004612b12565b5b828201905092915050565b600061301b82612235565b915061302683612235565b92508282101561303957613038612b12565b5b828203905092915050565b6000819050919050565b61305f61305a82612235565b613044565b82525050565b6000613071828461304e565b60208201915081905092915050565b60006080820190506130956000830187612456565b6130a260208301866126db565b6130af60408301856123ec565b6130bc60608301846126db565b95945050505050565b6000819050919050565b6130e06130db826121ff565b6130c5565b82525050565b60006130f282856130cf565b602082019150613102828461304e565b6020820191508190509392505050565b7f4e487b7100000000000000000000000000000000000000000000000000000000600052601260045260246000fd5b600061314c82612235565b915061315783612235565b92508261316757613166613112565b5b828206905092915050565b60008160f81b9050919050565b600061318a82613172565b9050919050565b600061319c8261317f565b9050919050565b6131b46131af826123b6565b613191565b82525050565b6131cb6131c682612312565b61317f565b82525050565b60006131dd828b6131a3565b6001820191506131ed828a6131ba565b6001820191506131fd82896131ba565b60018201915061320d82886131ba565b60018201915061321d82876131ba565b60018201915061322d82866131ba565b60018201915061323d82856131ba565b60018201915061324d82846131ba565b6001820191508190509998505050505050505050565b6000819050602082019050919050565b600061327f82516121ff565b80915050919050565b600082821b905092915050565b60006132a082612ee3565b826132aa84613263565b90506132b581613273565b925060208210156132f5576132f07fffffffffffffffffffffffffffffffffffffffffffffffffffffffffffffffff83602003600802613288565b831692505b5050919050565b600061330782612312565b915061331283612312565b92508261332257613321613112565b5b828206905092915050565b600061333882612312565b915061334383612312565b92508160ff048311821515161561335d5761335c612b12565b5b82820290509291505056fea2646970667358221220b83031998c93c55799af9c861de5d6a31e55461b6ed6ed1e5fc4579289fa8fc264736f6c634300080a0033",
  "immutableReferences": {},
  "source": "// SPDX-License-Identifier: MIT\n\npragma solidity ^0.8.0;\n\nimport \"@openzeppelin/contracts-upgradeable/proxy/utils/Initializable.sol\";\nimport \"@openzeppelin/contracts-upgradeable/access/OwnableUpgradeable.sol\";\nimport \"./VRFConsumer.sol\";\nimport \"./IMint.sol\";\nimport \"./ICharacter.sol\";\n\ncontract Mint is Initializable, OwnableUpgradeable, IMint, VRFConsumer {\n  uint8[][18] public rarities; // List of probabilities for each trait type, 0 - 9 are associated with Chefs, 10 - 18 are associated with Rats\n  mapping(uint256 => bytes32) public existingCombinations; // Mapping from hashed(tokenTrait) to the tokenId it's associated with, used to ensure there are no duplicates\n  mapping(address => bool) controllers; // Mapping from an address to whether or not it can mint / burn\n\n  ICharacter character; // Reference to the Character\n  bytes32 internal keyHash;\n  uint256 internal fee;\n  mapping(bytes32 => VRFStruct) public vrfRequests; // Mapping from tokenId to a struct containing the token's traits\n\n  event RandomNumberRequested(\n    bytes32 requestId,\n    address sender\n  );\n\n  function initialize(\n    address _vrfCoordinator,\n    address _link,\n    bytes32 _keyHash,\n    uint256 _fee\n  ) external initializer {\n    __Ownable_init();\n\n    vrfCoordinator = _vrfCoordinator;\n    link = LinkTokenInterface(_link);\n    keyHash = _keyHash;\n    fee = _fee;\n\n    // Chefs\n    rarities[2] = [255, 223, 191, 159, 127, 95]; // hat\n    rarities[3] = [255, 223, 191, 159, 127, 95, 63, 31]; // eyes\n    rarities[4] = [255, 223, 191, 159, 127, 95]; // mouth\n    rarities[5] = [255, 207, 159, 111, 63, 15]; // neck\n    rarities[6] = [255, 223, 191, 159, 127, 95]; // hand\n    // Rats\n    rarities[12] = [255, 223, 191, 159, 127, 95]; // hat\n    rarities[13] = [255, 223, 191, 159, 127, 95, 63, 31]; // eyes\n    rarities[14] = [255, 223, 191, 159, 127, 95]; // piercing\n    rarities[15] = [255, 207, 159, 111, 63, 15]; // neck\n    rarities[16] = [255, 223, 191, 159, 127, 95]; // tail\n  }\n\n  /**\n   * Set ChainLink VRF params\n   */\n  function setVrfParams(\n    address _vrfCoordinator,\n    address _link,\n    bytes32 _keyHash,\n    uint256 _fee\n  ) external onlyOwner {\n    vrfCoordinator = _vrfCoordinator;\n    link = LinkTokenInterface(_link);\n    keyHash = _keyHash;\n    fee = _fee;\n  }\n\n  function requestRandomNumber(address sender, uint8 amount, bool stake) external returns (bytes32 requestId) {\n    require(controllers[_msgSender()], \"Only controllers can request randomness\");\n    require(link.balanceOf(address(this)) >= fee, \"Insufficient LINK\");\n    requestId = requestRandomness(keyHash, fee);\n    VRFStruct memory v = VRFStruct({ requestId: requestId, sender: sender, amount: amount, stake: stake });\n    vrfRequests[requestId] = v;\n    emit RandomNumberRequested(\n      requestId,\n      _msgSender()\n    );\n  }\n\n  function fulfillRandomness(bytes32 requestId, uint256 randomness) internal override {\n    require(vrfRequests[requestId].requestId != 0, \"VRF request ID not found\");\n    VRFStruct memory v = vrfRequests[requestId];\n    ICharacter.CharacterStruct[] memory tokens = new ICharacter.CharacterStruct[](v.amount);\n\n    for (uint i = 0; i < v.amount; i++) {\n      tokens[i] = generate(requestId, uint256(keccak256(abi.encode(randomness, i))));\n    }\n\n    character.fulfillMint(vrfRequests[requestId], tokens);\n    delete vrfRequests[requestId];\n  }\n\n  /**\n   * Generates traits for a specific token, checking to make sure it's unique\n   * @param requestId - A VRF request ID\n   * @param seed - A VRF seed\n   * @return t - A struct of traits for the given token ID\n   */\n  function generate(bytes32 requestId, uint256 seed) internal returns (ICharacter.CharacterStruct memory t) {\n    t = selectTraits(seed);\n    uint256 hash = structToHash(t);\n    if (existingCombinations[hash] == 0) {\n      existingCombinations[hash] = requestId;\n      return t;\n    }\n    return generate(requestId, uint256(keccak256(abi.encodePacked(seed - 1))));\n  }\n\n  /**\n   * Selects the species and all of its traits based on the seed value\n   * @param seed - A pseudorandom 256 bit number to derive traits from\n   * @return t -  A struct of randomly selected traits\n   */\n  function selectTraits(uint256 seed) internal view returns (ICharacter.CharacterStruct memory t) {\n    t.isChef = (seed & 0xFFFF) % 10 != 0;\n    if (t.isChef) {\n      t.hat = selectTrait(seed, 2);\n      t.eyes = selectTrait(seed, 3);\n      t.mouth = selectTrait(seed, 4);\n      t.neck = selectTrait(seed, 5);\n      t.hand = selectTrait(seed, 6);\n    } else {\n      t.hat = selectTrait(seed, 12);\n      t.eyes = selectTrait(seed, 13);\n      t.piercing = selectTrait(seed, 14);\n      t.neck = selectTrait(seed, 15);\n      t.tail = selectTrait(seed, 16);\n    }\n    return t;\n  }\n\n  /**\n   * Uses A.J. Walker's Alias algorithm for O(1) rarity table lookup\n   * ensuring O(1) instead of O(n) reduces mint cost by more than 50%\n   * probability & alias tables are generated off-chain beforehand\n   * @param seed - Portion of the 256 bit seed to remove trait correlation\n   * @param traitIndex - The trait index to select a trait for\n   * @return The ID of the randomly selected trait\n   */\n  function selectTrait(uint256 seed, uint8 traitIndex) internal view returns (uint8) {\n    seed = seed >>= (traitIndex % 10 * 16);\n    uint8 trait = uint8(seed) % uint8(rarities[traitIndex].length); // Selected trait index\n    uint8 rand = uint8(seed & 0xFFFF >> 8); // Random integer from 0 to 255\n    if (rand <= rarities[traitIndex][trait]) return trait;\n    return 0;\n  }\n\n  /**\n   * Converts a struct to a 256 bit hash to check for uniqueness\n   * @param s - The struct to pack into a hash\n   * @return The 256 bit hash of the struct\n   */\n  function structToHash(ICharacter.CharacterStruct memory s) internal pure returns (uint256) {\n    return uint256(bytes32(\n      abi.encodePacked(\n        s.isChef,\n        s.hat,\n        s.eyes,\n        s.piercing,\n        s.mouth,\n        s.neck,\n        s.hand,\n        s.tail\n      )\n    ));\n  }\n\n  /**\n   * Set the character address\n   * @param _character - The address of the Character\n   */\n  function setCharacter(address _character) external onlyOwner {\n    character = ICharacter(_character);\n  }\n\n  /**\n   * Gets controller status by address\n   * @param controller the address to check\n   */\n  function getController(address controller) external view onlyOwner returns (bool) {\n    return controllers[controller];\n  }\n\n  /**\n   * Enables an address to mint / burn\n   * @param controller the address to enable\n   */\n  function addController(address controller) external onlyOwner {\n    controllers[controller] = true;\n  }\n\n  /**\n   * Disables an address from minting / burning\n   * @param controller the address to disable\n   */\n  function removeController(address controller) external onlyOwner {\n    controllers[controller] = false;\n  }\n}\n",
  "sourcePath": "/Users/chris/workspace/ratalert/ratalert-contracts/contracts/Mint.sol",
  "compiler": {
    "name": "solc",
    "version": "0.8.10+commit.fc410830.Emscripten.clang"
  },
  "schemaVersion": "3.4.5",
  "updatedAt": "2022-03-11T07:53:03.136Z",
  "networkType": "ethereum",
  "devdoc": {
    "kind": "dev",
    "methods": {
      "addController(address)": {
        "params": {
          "controller": "the address to enable"
        }
      },
      "getController(address)": {
        "params": {
          "controller": "the address to check"
        }
      },
      "initialize(address,address)": {
        "params": {
          "_vrfCoordinator": "- Address of VRFCoordinator contract"
        }
      },
      "owner()": {
        "details": "Returns the address of the current owner."
      },
      "removeController(address)": {
        "params": {
          "controller": "the address to disable"
        }
      },
      "renounceOwnership()": {
        "details": "Leaves the contract without owner. It will not be possible to call `onlyOwner` functions anymore. Can only be called by the current owner. NOTE: Renouncing ownership will leave the contract without an owner, thereby removing any functionality that is only available to the owner."
      },
      "setCharacter(address)": {
        "params": {
          "_character": "- The address of the Character"
        }
      },
      "transferOwnership(address)": {
        "details": "Transfers ownership of the contract to a new account (`newOwner`). Can only be called by the current owner."
      }
    },
    "version": 1
  },
  "userdoc": {
    "kind": "user",
    "methods": {
      "addController(address)": {
        "notice": "Enables an address to mint / burn"
      },
      "getController(address)": {
        "notice": "Gets controller status by address"
      },
      "removeController(address)": {
        "notice": "Disables an address from minting / burning"
      },
      "setCharacter(address)": {
        "notice": "Set the character address"
      },
      "setVrfParams(address,address,bytes32,uint256)": {
        "notice": "Set ChainLink VRF params"
      }
    },
    "version": 1
  }
}