{
  "contractName": "Mint",
  "abi": [
    {
      "anonymous": false,
      "inputs": [
        {
          "indexed": true,
          "internalType": "address",
          "name": "previousOwner",
          "type": "address"
        },
        {
          "indexed": true,
          "internalType": "address",
          "name": "newOwner",
          "type": "address"
        }
      ],
      "name": "OwnershipTransferred",
      "type": "event"
    },
    {
      "anonymous": false,
      "inputs": [
        {
          "indexed": false,
          "internalType": "bytes32",
          "name": "requestId",
          "type": "bytes32"
        },
        {
          "indexed": false,
          "internalType": "address",
          "name": "sender",
          "type": "address"
        }
      ],
      "name": "RandomNumberRequested",
      "type": "event"
    },
    {
      "anonymous": false,
      "inputs": [
        {
          "indexed": true,
          "internalType": "address",
          "name": "from",
          "type": "address"
        },
        {
          "indexed": true,
          "internalType": "address",
          "name": "to",
          "type": "address"
        },
        {
          "indexed": true,
          "internalType": "uint256",
          "name": "tokenId",
          "type": "uint256"
        }
      ],
      "name": "Transfer",
      "type": "event"
    },
    {
      "inputs": [
        {
          "internalType": "uint256",
          "name": "",
          "type": "uint256"
        }
      ],
      "name": "existingCombinations",
      "outputs": [
        {
          "internalType": "bytes32",
          "name": "",
          "type": "bytes32"
        }
      ],
      "stateMutability": "view",
      "type": "function",
      "constant": true
    },
    {
      "inputs": [],
      "name": "owner",
      "outputs": [
        {
          "internalType": "address",
          "name": "",
          "type": "address"
        }
      ],
      "stateMutability": "view",
      "type": "function",
      "constant": true
    },
    {
      "inputs": [
        {
          "internalType": "uint256",
          "name": "",
          "type": "uint256"
        },
        {
          "internalType": "uint256",
          "name": "",
          "type": "uint256"
        }
      ],
      "name": "rarities",
      "outputs": [
        {
          "internalType": "uint8",
          "name": "",
          "type": "uint8"
        }
      ],
      "stateMutability": "view",
      "type": "function",
      "constant": true
    },
    {
      "inputs": [
        {
          "internalType": "bytes32",
          "name": "requestId",
          "type": "bytes32"
        },
        {
          "internalType": "uint256",
          "name": "randomness",
          "type": "uint256"
        }
      ],
      "name": "rawFulfillRandomness",
      "outputs": [],
      "stateMutability": "nonpayable",
      "type": "function"
    },
    {
      "inputs": [],
      "name": "renounceOwnership",
      "outputs": [],
      "stateMutability": "nonpayable",
      "type": "function"
    },
    {
      "inputs": [
        {
          "internalType": "address",
          "name": "newOwner",
          "type": "address"
        }
      ],
      "name": "transferOwnership",
      "outputs": [],
      "stateMutability": "nonpayable",
      "type": "function"
    },
    {
      "inputs": [
        {
          "internalType": "bytes32",
          "name": "",
          "type": "bytes32"
        }
      ],
      "name": "vrfRequests",
      "outputs": [
        {
          "internalType": "bytes32",
          "name": "requestId",
          "type": "bytes32"
        },
        {
          "internalType": "address",
          "name": "sender",
          "type": "address"
        },
        {
          "internalType": "uint8",
          "name": "amount",
          "type": "uint8"
        },
        {
          "internalType": "bool",
          "name": "stake",
          "type": "bool"
        }
      ],
      "stateMutability": "view",
      "type": "function",
      "constant": true
    },
    {
      "inputs": [
        {
          "internalType": "uint256",
          "name": "amount",
          "type": "uint256"
        }
      ],
      "name": "withdrawLink",
      "outputs": [
        {
          "internalType": "bool",
          "name": "success",
          "type": "bool"
        }
      ],
      "stateMutability": "nonpayable",
      "type": "function"
    },
    {
      "inputs": [
        {
          "internalType": "address",
          "name": "_vrfCoordinator",
          "type": "address"
        },
        {
          "internalType": "address",
          "name": "_link",
          "type": "address"
        },
        {
          "internalType": "bytes32",
          "name": "_keyHash",
          "type": "bytes32"
        },
        {
          "internalType": "uint256",
          "name": "_fee",
          "type": "uint256"
        }
      ],
      "name": "initialize",
      "outputs": [],
      "stateMutability": "nonpayable",
      "type": "function"
    },
    {
      "inputs": [
        {
          "internalType": "address",
          "name": "_vrfCoordinator",
          "type": "address"
        },
        {
          "internalType": "address",
          "name": "_link",
          "type": "address"
        }
      ],
      "name": "initialize",
      "outputs": [],
      "stateMutability": "nonpayable",
      "type": "function"
    },
    {
      "inputs": [
        {
          "internalType": "address",
          "name": "_vrfCoordinator",
          "type": "address"
        },
        {
          "internalType": "address",
          "name": "_link",
          "type": "address"
        },
        {
          "internalType": "bytes32",
          "name": "_keyHash",
          "type": "bytes32"
        },
        {
          "internalType": "uint256",
          "name": "_fee",
          "type": "uint256"
        }
      ],
      "name": "setVrfParams",
      "outputs": [],
      "stateMutability": "nonpayable",
      "type": "function"
    },
    {
      "inputs": [
        {
          "internalType": "address",
          "name": "sender",
          "type": "address"
        },
        {
          "internalType": "uint8",
          "name": "amount",
          "type": "uint8"
        },
        {
          "internalType": "bool",
          "name": "stake",
          "type": "bool"
        }
      ],
      "name": "requestRandomNumber",
      "outputs": [
        {
          "internalType": "bytes32",
          "name": "requestId",
          "type": "bytes32"
        }
      ],
      "stateMutability": "nonpayable",
      "type": "function"
    },
    {
      "inputs": [
        {
          "internalType": "address",
          "name": "_character",
          "type": "address"
        }
      ],
      "name": "setCharacter",
      "outputs": [],
      "stateMutability": "nonpayable",
      "type": "function"
    },
    {
      "inputs": [
        {
          "internalType": "address",
          "name": "controller",
          "type": "address"
        }
      ],
      "name": "getController",
      "outputs": [
        {
          "internalType": "bool",
          "name": "",
          "type": "bool"
        }
      ],
      "stateMutability": "view",
      "type": "function",
      "constant": true
    },
    {
      "inputs": [
        {
          "internalType": "address",
          "name": "controller",
          "type": "address"
        }
      ],
      "name": "addController",
      "outputs": [],
      "stateMutability": "nonpayable",
      "type": "function"
    },
    {
      "inputs": [
        {
          "internalType": "address",
          "name": "controller",
          "type": "address"
        }
      ],
      "name": "removeController",
      "outputs": [],
      "stateMutability": "nonpayable",
      "type": "function"
    }
  ],
  "bytecode": "0x608060405234801561001057600080fd5b50613269806100206000396000f3fe608060405234801561001057600080fd5b50600436106101005760003560e01c80638da5cb5b11610097578063de864bf911610066578063de864bf914610295578063dec04e5f146102c5578063f2fde38b146102f8578063f6a74ed71461031457610100565b80638da5cb5b1461020f57806394985ddd1461022d578063a1b8f37414610249578063a7fc7a071461027957610100565b8063485cc955116100d3578063485cc95514610189578063715018a6146101a55780637a8042bd146101af57806388c662aa146101df57610100565b8063204efe1714610105578063277a23891461012157806333df4b2c1461013d5780633d6b06cc1461016d575b600080fd5b61011f600480360381019061011a9190612109565b610330565b005b61013b600480360381019061013691906121a2565b6103f0565b005b61015760048036038101906101529190612209565b6109b4565b6040516101649190612265565b60405180910390f35b610187600480360381019061018291906121a2565b6109fa565b005b6101a3600480360381019061019e9190612280565b610b0c565b005b6101ad610c74565b005b6101c960048036038101906101c491906122c0565b610cfc565b6040516101d69190612308565b60405180910390f35b6101f960048036038101906101f49190612109565b610e28565b6040516102069190612308565b60405180910390f35b610217610efa565b6040516102249190612332565b60405180910390f35b6102476004803603810190610242919061234d565b610f24565b005b610263600480360381019061025e91906122c0565b610fc2565b604051610270919061239c565b60405180910390f35b610293600480360381019061028e9190612109565b610fda565b005b6102af60048036038101906102aa919061240f565b6110b1565b6040516102bc919061239c565b60405180910390f35b6102df60048036038101906102da9190612462565b611367565b6040516102ef949392919061248f565b60405180910390f35b610312600480360381019061030d9190612109565b6113d1565b005b61032e60048036038101906103299190612109565b6114c9565b005b6103386115a0565b73ffffffffffffffffffffffffffffffffffffffff16610356610efa565b73ffffffffffffffffffffffffffffffffffffffff16146103ac576040517f08c379a00000000000000000000000000000000000000000000000000000000081526004016103a390612531565b60405180910390fd5b80607c60006101000a81548173ffffffffffffffffffffffffffffffffffffffff021916908373ffffffffffffffffffffffffffffffffffffffff16021790555050565b600060019054906101000a900460ff166104185760008054906101000a900460ff1615610421565b6104206115a8565b5b610460576040517f08c379a0000000000000000000000000000000000000000000000000000000008152600401610457906125c3565b60405180910390fd5b60008060019054906101000a900460ff1615905080156104b0576001600060016101000a81548160ff02191690831515021790555060016000806101000a81548160ff0219169083151502179055505b6104b86115b9565b84606660006101000a81548173ffffffffffffffffffffffffffffffffffffffff021916908373ffffffffffffffffffffffffffffffffffffffff16021790555083606560006101000a81548173ffffffffffffffffffffffffffffffffffffffff021916908373ffffffffffffffffffffffffffffffffffffffff16021790555082607d8190555081607e819055506040518060c0016040528060ff8016815260200160df60ff16815260200160bf60ff168152602001609f60ff168152602001607f60ff168152602001605f60ff1681525060686002601281106105a1576105a06125e3565b5b019060066105b0929190611ecb565b5060405180610100016040528060ff8016815260200160df60ff16815260200160bf60ff168152602001609f60ff168152602001607f60ff168152602001605f60ff168152602001603f60ff168152602001601f60ff16815250606860036012811061061f5761061e6125e3565b5b0190600861062e929190611f72565b506040518060c0016040528060ff8016815260200160df60ff16815260200160bf60ff168152602001609f60ff168152602001607f60ff168152602001605f60ff168152506068600460128110610688576106876125e3565b5b01906006610697929190611ecb565b506040518060c0016040528060ff8016815260200160cf60ff168152602001609f60ff168152602001606f60ff168152602001603f60ff168152602001600f60ff1681525060686005601281106106f1576106f06125e3565b5b01906006610700929190611ecb565b506040518060c0016040528060ff8016815260200160df60ff16815260200160bf60ff168152602001609f60ff168152602001607f60ff168152602001605f60ff16815250606860066012811061075a576107596125e3565b5b01906006610769929190611ecb565b506040518060c0016040528060ff8016815260200160df60ff16815260200160bf60ff168152602001609f60ff168152602001607f60ff168152602001605f60ff168152506068600c601281106107c3576107c26125e3565b5b019060066107d2929190611ecb565b5060405180610100016040528060ff8016815260200160df60ff16815260200160bf60ff168152602001609f60ff168152602001607f60ff168152602001605f60ff168152602001603f60ff168152602001601f60ff168152506068600d60128110610841576108406125e3565b5b01906008610850929190611f72565b506040518060c0016040528060ff8016815260200160df60ff16815260200160bf60ff168152602001609f60ff168152602001607f60ff168152602001605f60ff168152506068600e601281106108aa576108a96125e3565b5b019060066108b9929190611ecb565b506040518060c0016040528060ff8016815260200160cf60ff168152602001609f60ff168152602001606f60ff168152602001603f60ff168152602001600f60ff168152506068600f60128110610913576109126125e3565b5b01906006610922929190611ecb565b506040518060c0016040528060ff8016815260200160df60ff16815260200160bf60ff168152602001609f60ff168152602001607f60ff168152602001605f60ff16815250606860106012811061097c5761097b6125e3565b5b0190600661098b929190611ecb565b5080156109ad5760008060016101000a81548160ff0219169083151502179055505b5050505050565b606882601281106109c457600080fd5b0181815481106109d357600080fd5b9060005260206000209060209182820401919006915091509054906101000a900460ff1681565b610a026115a0565b73ffffffffffffffffffffffffffffffffffffffff16610a20610efa565b73ffffffffffffffffffffffffffffffffffffffff1614610a76576040517f08c379a0000000000000000000000000000000000000000000000000000000008152600401610a6d90612531565b60405180910390fd5b83606660006101000a81548173ffffffffffffffffffffffffffffffffffffffff021916908373ffffffffffffffffffffffffffffffffffffffff16021790555082606560006101000a81548173ffffffffffffffffffffffffffffffffffffffff021916908373ffffffffffffffffffffffffffffffffffffffff16021790555081607d8190555080607e8190555050505050565b600060019054906101000a900460ff16610b345760008054906101000a900460ff1615610b3d565b610b3c6115a8565b5b610b7c576040517f08c379a0000000000000000000000000000000000000000000000000000000008152600401610b73906125c3565b60405180910390fd5b60008060019054906101000a900460ff161590508015610bcc576001600060016101000a81548160ff02191690831515021790555060016000806101000a81548160ff0219169083151502179055505b82606660006101000a81548173ffffffffffffffffffffffffffffffffffffffff021916908373ffffffffffffffffffffffffffffffffffffffff16021790555081606560006101000a81548173ffffffffffffffffffffffffffffffffffffffff021916908373ffffffffffffffffffffffffffffffffffffffff1602179055508015610c6f5760008060016101000a81548160ff0219169083151502179055505b505050565b610c7c6115a0565b73ffffffffffffffffffffffffffffffffffffffff16610c9a610efa565b73ffffffffffffffffffffffffffffffffffffffff1614610cf0576040517f08c379a0000000000000000000000000000000000000000000000000000000008152600401610ce790612531565b60405180910390fd5b610cfa600061161a565b565b6000610d066115a0565b73ffffffffffffffffffffffffffffffffffffffff16610d24610efa565b73ffffffffffffffffffffffffffffffffffffffff1614610d7a576040517f08c379a0000000000000000000000000000000000000000000000000000000008152600401610d7190612531565b60405180910390fd5b606560009054906101000a900473ffffffffffffffffffffffffffffffffffffffff1673ffffffffffffffffffffffffffffffffffffffff1663a9059cbb610dc06115a0565b846040518363ffffffff1660e01b8152600401610dde929190612621565b6020604051808303816000875af1158015610dfd573d6000803e3d6000fd5b505050506040513d601f19601f82011682018060405250810190610e21919061265f565b9050919050565b6000610e326115a0565b73ffffffffffffffffffffffffffffffffffffffff16610e50610efa565b73ffffffffffffffffffffffffffffffffffffffff1614610ea6576040517f08c379a0000000000000000000000000000000000000000000000000000000008152600401610e9d90612531565b60405180910390fd5b607b60008373ffffffffffffffffffffffffffffffffffffffff1673ffffffffffffffffffffffffffffffffffffffff16815260200190815260200160002060009054906101000a900460ff169050919050565b6000603360009054906101000a900473ffffffffffffffffffffffffffffffffffffffff16905090565b606660009054906101000a900473ffffffffffffffffffffffffffffffffffffffff1673ffffffffffffffffffffffffffffffffffffffff163373ffffffffffffffffffffffffffffffffffffffff1614610fb4576040517f08c379a0000000000000000000000000000000000000000000000000000000008152600401610fab906126d8565b60405180910390fd5b610fbe82826116e0565b5050565b607a6020528060005260406000206000915090505481565b610fe26115a0565b73ffffffffffffffffffffffffffffffffffffffff16611000610efa565b73ffffffffffffffffffffffffffffffffffffffff1614611056576040517f08c379a000000000000000000000000000000000000000000000000000000000815260040161104d90612531565b60405180910390fd5b6001607b60008373ffffffffffffffffffffffffffffffffffffffff1673ffffffffffffffffffffffffffffffffffffffff16815260200190815260200160002060006101000a81548160ff02191690831515021790555050565b6000607b60006110bf6115a0565b73ffffffffffffffffffffffffffffffffffffffff1673ffffffffffffffffffffffffffffffffffffffff16815260200190815260200160002060009054906101000a900460ff16611146576040517f08c379a000000000000000000000000000000000000000000000000000000000815260040161113d9061276a565b60405180910390fd5b607e54606560009054906101000a900473ffffffffffffffffffffffffffffffffffffffff1673ffffffffffffffffffffffffffffffffffffffff166370a08231306040518263ffffffff1660e01b81526004016111a49190612332565b602060405180830381865afa1580156111c1573d6000803e3d6000fd5b505050506040513d601f19601f820116820180604052508101906111e5919061279f565b1015611226576040517f08c379a000000000000000000000000000000000000000000000000000000000815260040161121d90612818565b60405180910390fd5b611234607d54607e54611919565b9050600060405180608001604052808381526020018673ffffffffffffffffffffffffffffffffffffffff1681526020018560ff168152602001841515815250905080607f60008481526020019081526020016000206000820151816000015560208201518160010160006101000a81548173ffffffffffffffffffffffffffffffffffffffff021916908373ffffffffffffffffffffffffffffffffffffffff16021790555060408201518160010160146101000a81548160ff021916908360ff16021790555060608201518160010160156101000a81548160ff0219169083151502179055509050507fa604c1d75d1d5480c3a226f3b59c2be444c037ab3cbc22c688fa02ddcaedd135826113496115a0565b604051611357929190612838565b60405180910390a1509392505050565b607f6020528060005260406000206000915090508060000154908060010160009054906101000a900473ffffffffffffffffffffffffffffffffffffffff16908060010160149054906101000a900460ff16908060010160159054906101000a900460ff16905084565b6113d96115a0565b73ffffffffffffffffffffffffffffffffffffffff166113f7610efa565b73ffffffffffffffffffffffffffffffffffffffff161461144d576040517f08c379a000000000000000000000000000000000000000000000000000000000815260040161144490612531565b60405180910390fd5b600073ffffffffffffffffffffffffffffffffffffffff168173ffffffffffffffffffffffffffffffffffffffff1614156114bd576040517f08c379a00000000000000000000000000000000000000000000000000000000081526004016114b4906128d3565b60405180910390fd5b6114c68161161a565b50565b6114d16115a0565b73ffffffffffffffffffffffffffffffffffffffff166114ef610efa565b73ffffffffffffffffffffffffffffffffffffffff1614611545576040517f08c379a000000000000000000000000000000000000000000000000000000000815260040161153c90612531565b60405180910390fd5b6000607b60008373ffffffffffffffffffffffffffffffffffffffff1673ffffffffffffffffffffffffffffffffffffffff16815260200190815260200160002060006101000a81548160ff02191690831515021790555050565b600033905090565b60006115b330611a70565b15905090565b600060019054906101000a900460ff16611608576040517f08c379a00000000000000000000000000000000000000000000000000000000081526004016115ff90612965565b60405180910390fd5b611610611a83565b611618611ad4565b565b6000603360009054906101000a900473ffffffffffffffffffffffffffffffffffffffff16905081603360006101000a81548173ffffffffffffffffffffffffffffffffffffffff021916908373ffffffffffffffffffffffffffffffffffffffff1602179055508173ffffffffffffffffffffffffffffffffffffffff168173ffffffffffffffffffffffffffffffffffffffff167f8be0079c531659141344cd1fd0a4f28419497f9722a3daafe3b4186f6b6457e060405160405180910390a35050565b6000607f6000848152602001908152602001600020604051806080016040529081600082015481526020016001820160009054906101000a900473ffffffffffffffffffffffffffffffffffffffff1673ffffffffffffffffffffffffffffffffffffffff1673ffffffffffffffffffffffffffffffffffffffff1681526020016001820160149054906101000a900460ff1660ff1660ff1681526020016001820160159054906101000a900460ff16151515158152505090506000816040015160ff1667ffffffffffffffff8111156117bd576117bc612985565b5b6040519080825280602002602001820160405280156117f657816020015b6117e3612019565b8152602001906001900390816117db5790505b50905060005b826040015160ff16811015611871576118408585836040516020016118229291906129b4565b6040516020818303038152906040528051906020012060001c611b35565b828281518110611853576118526125e3565b5b6020026020010181905250808061186990612a0c565b9150506117fc565b50607c60009054906101000a900473ffffffffffffffffffffffffffffffffffffffff1673ffffffffffffffffffffffffffffffffffffffff16634a43d1d3607f6000878152602001908152602001600020836040518363ffffffff1660e01b81526004016118e1929190612d55565b600060405180830381600087803b1580156118fb57600080fd5b505af115801561190f573d6000803e3d6000fd5b5050505050505050565b6000606560009054906101000a900473ffffffffffffffffffffffffffffffffffffffff1673ffffffffffffffffffffffffffffffffffffffff16634000aea0606660009054906101000a900473ffffffffffffffffffffffffffffffffffffffff1684866000604051602001611991929190612d85565b6040516020818303038152906040526040518463ffffffff1660e01b81526004016119be93929190612e47565b6020604051808303816000875af11580156119dd573d6000803e3d6000fd5b505050506040513d601f19601f82011682018060405250810190611a01919061265f565b506000611a24846000306067600089815260200190815260200160002054611bda565b905060016067600086815260200190815260200160002054611a469190612e85565b6067600086815260200190815260200160002081905550611a678482611c16565b91505092915050565b600080823b905060008111915050919050565b600060019054906101000a900460ff16611ad2576040517f08c379a0000000000000000000000000000000000000000000000000000000008152600401611ac990612965565b60405180910390fd5b565b600060019054906101000a900460ff16611b23576040517f08c379a0000000000000000000000000000000000000000000000000000000008152600401611b1a90612965565b60405180910390fd5b611b33611b2e6115a0565b61161a565b565b611b3d612019565b611b4682611c49565b90506000611b5382611da2565b90506000801b607a6000838152602001908152602001600020541415611b915783607a60008381526020019081526020016000208190555050611bd4565b611bd084600185611ba29190612edb565b604051602001611bb29190612f30565b6040516020818303038152906040528051906020012060001c611b35565b9150505b92915050565b600084848484604051602001611bf39493929190612f4b565b6040516020818303038152906040528051906020012060001c9050949350505050565b60008282604051602001611c2b929190612fb1565b60405160208183030381529060405280519060200120905092915050565b611c51612019565b6000600a61ffff8416611c64919061300c565b1415816000019015159081151581525050806000015115611d1057611c8a826002611e05565b816020019060ff16908160ff1681525050611ca6826003611e05565b816040019060ff16908160ff1681525050611cc2826004611e05565b816080019060ff16908160ff1681525050611cde826005611e05565b8160a0019060ff16908160ff1681525050611cfa826006611e05565b8160c0019060ff16908160ff1681525050611d9d565b611d1b82600c611e05565b816020019060ff16908160ff1681525050611d3782600d611e05565b816040019060ff16908160ff1681525050611d5382600e611e05565b816060019060ff16908160ff1681525050611d6f82600f611e05565b8160a0019060ff16908160ff1681525050611d8b826010611e05565b8160e0019060ff16908160ff16815250505b919050565b6000816000015182602001518360400151846060015185608001518660a001518760c001518860e00151604051602001611de398979695949392919061309c565b604051602081830303815290604052611dfb90613160565b60001c9050919050565b60006010600a83611e1691906131c7565b611e2091906131f8565b60ff1683901c9250600060688360ff1660128110611e4157611e406125e3565b5b018054905084611e5191906131c7565b9050600060ff8516905060688460ff1660128110611e7257611e716125e3565b5b018260ff1681548110611e8857611e876125e3565b5b90600052602060002090602091828204019190069054906101000a900460ff1660ff168160ff1611611ebe578192505050611ec5565b6000925050505b92915050565b82805482825590600052602060002090601f01602090048101928215611f615791602002820160005b83821115611f3257835183826101000a81548160ff021916908360ff1602179055509260200192600101602081600001049283019260010302611ef4565b8015611f5f5782816101000a81549060ff0219169055600101602081600001049283019260010302611f32565b505b509050611f6e9190612089565b5090565b82805482825590600052602060002090601f016020900481019282156120085791602002820160005b83821115611fd957835183826101000a81548160ff021916908360ff1602179055509260200192600101602081600001049283019260010302611f9b565b80156120065782816101000a81549060ff0219169055600101602081600001049283019260010302611fd9565b505b5090506120159190612089565b5090565b604051806101400160405280600015158152602001600060ff168152602001600060ff168152602001600060ff168152602001600060ff168152602001600060ff168152602001600060ff168152602001600060ff168152602001600060ff168152602001600060ff1681525090565b5b808211156120a257600081600090555060010161208a565b5090565b600080fd5b600073ffffffffffffffffffffffffffffffffffffffff82169050919050565b60006120d6826120ab565b9050919050565b6120e6816120cb565b81146120f157600080fd5b50565b600081359050612103816120dd565b92915050565b60006020828403121561211f5761211e6120a6565b5b600061212d848285016120f4565b91505092915050565b6000819050919050565b61214981612136565b811461215457600080fd5b50565b60008135905061216681612140565b92915050565b6000819050919050565b61217f8161216c565b811461218a57600080fd5b50565b60008135905061219c81612176565b92915050565b600080600080608085870312156121bc576121bb6120a6565b5b60006121ca878288016120f4565b94505060206121db878288016120f4565b93505060406121ec87828801612157565b92505060606121fd8782880161218d565b91505092959194509250565b600080604083850312156122205761221f6120a6565b5b600061222e8582860161218d565b925050602061223f8582860161218d565b9150509250929050565b600060ff82169050919050565b61225f81612249565b82525050565b600060208201905061227a6000830184612256565b92915050565b60008060408385031215612297576122966120a6565b5b60006122a5858286016120f4565b92505060206122b6858286016120f4565b9150509250929050565b6000602082840312156122d6576122d56120a6565b5b60006122e48482850161218d565b91505092915050565b60008115159050919050565b612302816122ed565b82525050565b600060208201905061231d60008301846122f9565b92915050565b61232c816120cb565b82525050565b60006020820190506123476000830184612323565b92915050565b60008060408385031215612364576123636120a6565b5b600061237285828601612157565b92505060206123838582860161218d565b9150509250929050565b61239681612136565b82525050565b60006020820190506123b1600083018461238d565b92915050565b6123c081612249565b81146123cb57600080fd5b50565b6000813590506123dd816123b7565b92915050565b6123ec816122ed565b81146123f757600080fd5b50565b600081359050612409816123e3565b92915050565b600080600060608486031215612428576124276120a6565b5b6000612436868287016120f4565b9350506020612447868287016123ce565b9250506040612458868287016123fa565b9150509250925092565b600060208284031215612478576124776120a6565b5b600061248684828501612157565b91505092915050565b60006080820190506124a4600083018761238d565b6124b16020830186612323565b6124be6040830185612256565b6124cb60608301846122f9565b95945050505050565b600082825260208201905092915050565b7f4f776e61626c653a2063616c6c6572206973206e6f7420746865206f776e6572600082015250565b600061251b6020836124d4565b9150612526826124e5565b602082019050919050565b6000602082019050818103600083015261254a8161250e565b9050919050565b7f496e697469616c697a61626c653a20636f6e747261637420697320616c72656160008201527f647920696e697469616c697a6564000000000000000000000000000000000000602082015250565b60006125ad602e836124d4565b91506125b882612551565b604082019050919050565b600060208201905081810360008301526125dc816125a0565b9050919050565b7f4e487b7100000000000000000000000000000000000000000000000000000000600052603260045260246000fd5b61261b8161216c565b82525050565b60006040820190506126366000830185612323565b6126436020830184612612565b9392505050565b600081519050612659816123e3565b92915050565b600060208284031215612675576126746120a6565b5b60006126838482850161264a565b91505092915050565b7f4f6e6c7920565246436f6f7264696e61746f722063616e2066756c66696c6c00600082015250565b60006126c2601f836124d4565b91506126cd8261268c565b602082019050919050565b600060208201905081810360008301526126f1816126b5565b9050919050565b7f4f6e6c7920636f6e74726f6c6c6572732063616e20726571756573742072616e60008201527f646f6d6e65737300000000000000000000000000000000000000000000000000602082015250565b60006127546027836124d4565b915061275f826126f8565b604082019050919050565b6000602082019050818103600083015261278381612747565b9050919050565b60008151905061279981612176565b92915050565b6000602082840312156127b5576127b46120a6565b5b60006127c38482850161278a565b91505092915050565b7f496e73756666696369656e74204c494e4b000000000000000000000000000000600082015250565b60006128026011836124d4565b915061280d826127cc565b602082019050919050565b60006020820190508181036000830152612831816127f5565b9050919050565b600060408201905061284d600083018561238d565b61285a6020830184612323565b9392505050565b7f4f776e61626c653a206e6577206f776e657220697320746865207a65726f206160008201527f6464726573730000000000000000000000000000000000000000000000000000602082015250565b60006128bd6026836124d4565b91506128c882612861565b604082019050919050565b600060208201905081810360008301526128ec816128b0565b9050919050565b7f496e697469616c697a61626c653a20636f6e7472616374206973206e6f74206960008201527f6e697469616c697a696e67000000000000000000000000000000000000000000602082015250565b600061294f602b836124d4565b915061295a826128f3565b604082019050919050565b6000602082019050818103600083015261297e81612942565b9050919050565b7f4e487b7100000000000000000000000000000000000000000000000000000000600052604160045260246000fd5b60006040820190506129c96000830185612612565b6129d66020830184612612565b9392505050565b7f4e487b7100000000000000000000000000000000000000000000000000000000600052601160045260246000fd5b6000612a178261216c565b91507fffffffffffffffffffffffffffffffffffffffffffffffffffffffffffffffff821415612a4a57612a496129dd565b5b600182019050919050565b60008160001c9050919050565b6000819050919050565b6000612a7f612a7a83612a55565b612a62565b9050919050565b612a8f81612136565b82525050565b600073ffffffffffffffffffffffffffffffffffffffff82169050919050565b6000612ac8612ac383612a55565b612a95565b9050919050565b612ad8816120cb565b82525050565b60008160a01c9050919050565b600060ff82169050919050565b6000612b0b612b0683612ade565b612aeb565b9050919050565b612b1b81612249565b82525050565b60008160a81c9050919050565b600060ff82169050919050565b6000612b4e612b4983612b21565b612b2e565b9050919050565b612b5e816122ed565b82525050565b608082016000808301549050612b7981612a6c565b612b866000860182612a86565b5060018301549050612b9781612ab5565b612ba46020860182612acf565b50612bae81612af8565b612bbb6040860182612b12565b50612bc581612b3b565b612bd26060860182612b55565b5050505050565b600081519050919050565b600082825260208201905092915050565b6000819050602082019050919050565b61014082016000820151612c1c6000850182612b55565b506020820151612c2f6020850182612b12565b506040820151612c426040850182612b12565b506060820151612c556060850182612b12565b506080820151612c686080850182612b12565b5060a0820151612c7b60a0850182612b12565b5060c0820151612c8e60c0850182612b12565b5060e0820151612ca160e0850182612b12565b50610100820151612cb6610100850182612b12565b50610120820151612ccb610120850182612b12565b50505050565b6000612cdd8383612c05565b6101408301905092915050565b6000602082019050919050565b6000612d0282612bd9565b612d0c8185612be4565b9350612d1783612bf5565b8060005b83811015612d48578151612d2f8882612cd1565b9750612d3a83612cea565b925050600181019050612d1b565b5085935050505092915050565b600060a082019050612d6a6000830185612b64565b8181036080830152612d7c8184612cf7565b90509392505050565b6000604082019050612d9a600083018561238d565b612da76020830184612612565b9392505050565b600081519050919050565b600082825260208201905092915050565b60005b83811015612de8578082015181840152602081019050612dcd565b83811115612df7576000848401525b50505050565b6000601f19601f8301169050919050565b6000612e1982612dae565b612e238185612db9565b9350612e33818560208601612dca565b612e3c81612dfd565b840191505092915050565b6000606082019050612e5c6000830186612323565b612e696020830185612612565b8181036040830152612e7b8184612e0e565b9050949350505050565b6000612e908261216c565b9150612e9b8361216c565b9250827fffffffffffffffffffffffffffffffffffffffffffffffffffffffffffffffff03821115612ed057612ecf6129dd565b5b828201905092915050565b6000612ee68261216c565b9150612ef18361216c565b925082821015612f0457612f036129dd565b5b828203905092915050565b6000819050919050565b612f2a612f258261216c565b612f0f565b82525050565b6000612f3c8284612f19565b60208201915081905092915050565b6000608082019050612f60600083018761238d565b612f6d6020830186612612565b612f7a6040830185612323565b612f876060830184612612565b95945050505050565b6000819050919050565b612fab612fa682612136565b612f90565b82525050565b6000612fbd8285612f9a565b602082019150612fcd8284612f19565b6020820191508190509392505050565b7f4e487b7100000000000000000000000000000000000000000000000000000000600052601260045260246000fd5b60006130178261216c565b91506130228361216c565b92508261303257613031612fdd565b5b828206905092915050565b60008160f81b9050919050565b60006130558261303d565b9050919050565b60006130678261304a565b9050919050565b61307f61307a826122ed565b61305c565b82525050565b61309661309182612249565b61304a565b82525050565b60006130a8828b61306e565b6001820191506130b8828a613085565b6001820191506130c88289613085565b6001820191506130d88288613085565b6001820191506130e88287613085565b6001820191506130f88286613085565b6001820191506131088285613085565b6001820191506131188284613085565b6001820191508190509998505050505050505050565b6000819050602082019050919050565b600061314a8251612136565b80915050919050565b600082821b905092915050565b600061316b82612dae565b826131758461312e565b90506131808161313e565b925060208210156131c0576131bb7fffffffffffffffffffffffffffffffffffffffffffffffffffffffffffffffff83602003600802613153565b831692505b5050919050565b60006131d282612249565b91506131dd83612249565b9250826131ed576131ec612fdd565b5b828206905092915050565b600061320382612249565b915061320e83612249565b92508160ff0483118215151615613228576132276129dd565b5b82820290509291505056fea2646970667358221220c47b7e1561103289778f482dcf8aecf92c3957385578cff59bad18ddfece361264736f6c634300080a0033",
  "immutableReferences": {},
  "source": "// SPDX-License-Identifier: MIT\n\npragma solidity ^0.8.0;\n\nimport \"@openzeppelin/contracts-upgradeable/proxy/utils/Initializable.sol\";\nimport \"@openzeppelin/contracts-upgradeable/access/OwnableUpgradeable.sol\";\nimport \"./VRFConsumer.sol\";\nimport \"./IMint.sol\";\nimport \"./ICharacter.sol\";\n\ncontract Mint is Initializable, OwnableUpgradeable, IMint, VRFConsumer {\n  uint8[][18] public rarities; // List of probabilities for each trait type, 0 - 9 are associated with Chefs, 10 - 18 are associated with Rats\n  mapping(uint256 => bytes32) public existingCombinations; // Mapping from hashed(tokenTrait) to the tokenId it's associated with, used to ensure there are no duplicates\n  mapping(address => bool) controllers; // Mapping from an address to whether or not it can mint / burn\n\n  ICharacter character; // Reference to the Character\n  bytes32 internal keyHash;\n  uint256 internal fee;\n  mapping(bytes32 => VRFStruct) public vrfRequests; // Mapping from tokenId to a struct containing the token's traits\n\n  event RandomNumberRequested(\n    bytes32 requestId,\n    address sender\n  );\n\n  function initialize(\n    address _vrfCoordinator,\n    address _link,\n    bytes32 _keyHash,\n    uint256 _fee\n  ) external initializer {\n    __Ownable_init();\n\n    vrfCoordinator = _vrfCoordinator;\n    link = LinkTokenInterface(_link);\n    keyHash = _keyHash;\n    fee = _fee;\n\n    // Chefs\n    rarities[2] = [255, 223, 191, 159, 127, 95]; // hat\n    rarities[3] = [255, 223, 191, 159, 127, 95, 63, 31]; // eyes\n    rarities[4] = [255, 223, 191, 159, 127, 95]; // mouth\n    rarities[5] = [255, 207, 159, 111, 63, 15]; // neck\n    rarities[6] = [255, 223, 191, 159, 127, 95]; // hand\n    // Rats\n    rarities[12] = [255, 223, 191, 159, 127, 95]; // hat\n    rarities[13] = [255, 223, 191, 159, 127, 95, 63, 31]; // eyes\n    rarities[14] = [255, 223, 191, 159, 127, 95]; // piercing\n    rarities[15] = [255, 207, 159, 111, 63, 15]; // neck\n    rarities[16] = [255, 223, 191, 159, 127, 95]; // tail\n  }\n\n  /**\n   * Set ChainLink VRF params\n   */\n  function setVrfParams(\n    address _vrfCoordinator,\n    address _link,\n    bytes32 _keyHash,\n    uint256 _fee\n  ) external onlyOwner {\n    vrfCoordinator = _vrfCoordinator;\n    link = LinkTokenInterface(_link);\n    keyHash = _keyHash;\n    fee = _fee;\n  }\n\n  function requestRandomNumber(address sender, uint8 amount, bool stake) external returns (bytes32 requestId) {\n    require(controllers[_msgSender()], \"Only controllers can request randomness\");\n    require(link.balanceOf(address(this)) >= fee, \"Insufficient LINK\");\n    requestId = requestRandomness(keyHash, fee);\n    VRFStruct memory v = VRFStruct({ requestId: requestId, sender: sender, amount: amount, stake: stake });\n    vrfRequests[requestId] = v;\n    emit RandomNumberRequested(\n      requestId,\n      _msgSender()\n    );\n  }\n\n  function fulfillRandomness(bytes32 requestId, uint256 randomness) internal override {\n    VRFStruct memory v = vrfRequests[requestId];\n    ICharacter.CharacterStruct[] memory tokens = new ICharacter.CharacterStruct[](v.amount);\n\n    for (uint i = 0; i < v.amount; i++) {\n      tokens[i] = generate(requestId, uint256(keccak256(abi.encode(randomness, i))));\n    }\n\n    character.fulfillMint(vrfRequests[requestId], tokens);\n  }\n\n  /**\n   * Generates traits for a specific token, checking to make sure it's unique\n   * @param requestId - A VRF request ID\n   * @param seed - A VRF seed\n   * @return t - A struct of traits for the given token ID\n   */\n  function generate(bytes32 requestId, uint256 seed) internal returns (ICharacter.CharacterStruct memory t) {\n    t = selectTraits(seed);\n    uint256 hash = structToHash(t);\n    if (existingCombinations[hash] == 0) {\n      existingCombinations[hash] = requestId;\n      return t;\n    }\n    return generate(requestId, uint256(keccak256(abi.encodePacked(seed - 1))));\n  }\n\n  /**\n   * Selects the species and all of its traits based on the seed value\n   * @param seed - A pseudorandom 256 bit number to derive traits from\n   * @return t -  A struct of randomly selected traits\n   */\n  function selectTraits(uint256 seed) internal view returns (ICharacter.CharacterStruct memory t) {\n    t.isChef = (seed & 0xFFFF) % 10 != 0;\n    if (t.isChef) {\n      t.hat = selectTrait(seed, 2);\n      t.eyes = selectTrait(seed, 3);\n      t.mouth = selectTrait(seed, 4);\n      t.neck = selectTrait(seed, 5);\n      t.hand = selectTrait(seed, 6);\n    } else {\n      t.hat = selectTrait(seed, 12);\n      t.eyes = selectTrait(seed, 13);\n      t.piercing = selectTrait(seed, 14);\n      t.neck = selectTrait(seed, 15);\n      t.tail = selectTrait(seed, 16);\n    }\n    return t;\n  }\n\n  /**\n   * Uses A.J. Walker's Alias algorithm for O(1) rarity table lookup\n   * ensuring O(1) instead of O(n) reduces mint cost by more than 50%\n   * probability & alias tables are generated off-chain beforehand\n   * @param seed - Portion of the 256 bit seed to remove trait correlation\n   * @param traitIndex - The trait index to select a trait for\n   * @return The ID of the randomly selected trait\n   */\n  function selectTrait(uint256 seed, uint8 traitIndex) internal view returns (uint8) {\n    seed = seed >>= (traitIndex % 10 * 16);\n    uint8 trait = uint8(seed) % uint8(rarities[traitIndex].length); // Selected trait index\n    uint8 rand = uint8(seed & 0xFFFF >> 8); // Random integer from 0 to 255\n    if (rand <= rarities[traitIndex][trait]) return trait;\n    return 0;\n  }\n\n  /**\n   * Converts a struct to a 256 bit hash to check for uniqueness\n   * @param s - The struct to pack into a hash\n   * @return The 256 bit hash of the struct\n   */\n  function structToHash(ICharacter.CharacterStruct memory s) internal pure returns (uint256) {\n    return uint256(bytes32(\n      abi.encodePacked(\n        s.isChef,\n        s.hat,\n        s.eyes,\n        s.piercing,\n        s.mouth,\n        s.neck,\n        s.hand,\n        s.tail\n      )\n    ));\n  }\n\n  /**\n   * Set the character address\n   * @param _character - The address of the Character\n   */\n  function setCharacter(address _character) external onlyOwner {\n    character = ICharacter(_character);\n  }\n\n  /**\n   * Gets controller status by address\n   * @param controller the address to check\n   */\n  function getController(address controller) external view onlyOwner returns (bool) {\n    return controllers[controller];\n  }\n\n  /**\n   * Enables an address to mint / burn\n   * @param controller the address to enable\n   */\n  function addController(address controller) external onlyOwner {\n    controllers[controller] = true;\n  }\n\n  /**\n   * Disables an address from minting / burning\n   * @param controller the address to disable\n   */\n  function removeController(address controller) external onlyOwner {\n    controllers[controller] = false;\n  }\n}\n",
  "sourcePath": "/Users/chris/workspace/ratalert/ratalert-contracts/contracts/Mint.sol",
  "compiler": {
    "name": "solc",
    "version": "0.8.10+commit.fc410830.Emscripten.clang"
  },
  "schemaVersion": "3.4.5",
  "updatedAt": "2022-03-02T16:22:59.572Z",
  "networkType": "ethereum",
  "devdoc": {
    "kind": "dev",
    "methods": {
      "addController(address)": {
        "params": {
          "controller": "the address to enable"
        }
      },
      "getController(address)": {
        "params": {
          "controller": "the address to check"
        }
      },
      "initialize(address,address)": {
        "params": {
          "_vrfCoordinator": "- Address of VRFCoordinator contract"
        }
      },
      "owner()": {
        "details": "Returns the address of the current owner."
      },
      "removeController(address)": {
        "params": {
          "controller": "the address to disable"
        }
      },
      "renounceOwnership()": {
        "details": "Leaves the contract without owner. It will not be possible to call `onlyOwner` functions anymore. Can only be called by the current owner. NOTE: Renouncing ownership will leave the contract without an owner, thereby removing any functionality that is only available to the owner."
      },
      "setCharacter(address)": {
        "params": {
          "_character": "- The address of the Character"
        }
      },
      "transferOwnership(address)": {
        "details": "Transfers ownership of the contract to a new account (`newOwner`). Can only be called by the current owner."
      }
    },
    "version": 1
  },
  "userdoc": {
    "kind": "user",
    "methods": {
      "addController(address)": {
        "notice": "Enables an address to mint / burn"
      },
      "getController(address)": {
        "notice": "Gets controller status by address"
      },
      "removeController(address)": {
        "notice": "Disables an address from minting / burning"
      },
      "setCharacter(address)": {
        "notice": "Set the character address"
      },
      "setVrfParams(address,address,bytes32,uint256)": {
        "notice": "Set ChainLink VRF params"
      }
    },
    "version": 1
  }
}