{
  "contractName": "Mint",
  "abi": [
    {
      "anonymous": false,
      "inputs": [
        {
          "indexed": true,
          "internalType": "address",
          "name": "previousOwner",
          "type": "address"
        },
        {
          "indexed": true,
          "internalType": "address",
          "name": "newOwner",
          "type": "address"
        }
      ],
      "name": "OwnershipTransferred",
      "type": "event"
    },
    {
      "anonymous": false,
      "inputs": [
        {
          "indexed": false,
          "internalType": "bytes32",
          "name": "requestId",
          "type": "bytes32"
        },
        {
          "indexed": false,
          "internalType": "address",
          "name": "sender",
          "type": "address"
        }
      ],
      "name": "RandomNumberRequested",
      "type": "event"
    },
    {
      "anonymous": false,
      "inputs": [
        {
          "indexed": true,
          "internalType": "address",
          "name": "from",
          "type": "address"
        },
        {
          "indexed": true,
          "internalType": "address",
          "name": "to",
          "type": "address"
        },
        {
          "indexed": true,
          "internalType": "uint256",
          "name": "tokenId",
          "type": "uint256"
        }
      ],
      "name": "Transfer",
      "type": "event"
    },
    {
      "inputs": [
        {
          "internalType": "address",
          "name": "_controller",
          "type": "address"
        }
      ],
      "name": "addController",
      "outputs": [],
      "stateMutability": "nonpayable",
      "type": "function"
    },
    {
      "inputs": [
        {
          "internalType": "address",
          "name": "_controller",
          "type": "address"
        }
      ],
      "name": "controller",
      "outputs": [
        {
          "internalType": "bool",
          "name": "",
          "type": "bool"
        }
      ],
      "stateMutability": "view",
      "type": "function",
      "constant": true
    },
    {
      "inputs": [
        {
          "internalType": "uint256",
          "name": "",
          "type": "uint256"
        }
      ],
      "name": "existingCombinations",
      "outputs": [
        {
          "internalType": "bytes32",
          "name": "",
          "type": "bytes32"
        }
      ],
      "stateMutability": "view",
      "type": "function",
      "constant": true
    },
    {
      "inputs": [],
      "name": "owner",
      "outputs": [
        {
          "internalType": "address",
          "name": "",
          "type": "address"
        }
      ],
      "stateMutability": "view",
      "type": "function",
      "constant": true
    },
    {
      "inputs": [
        {
          "internalType": "uint256",
          "name": "",
          "type": "uint256"
        },
        {
          "internalType": "uint256",
          "name": "",
          "type": "uint256"
        }
      ],
      "name": "rarities",
      "outputs": [
        {
          "internalType": "uint8",
          "name": "",
          "type": "uint8"
        }
      ],
      "stateMutability": "view",
      "type": "function",
      "constant": true
    },
    {
      "inputs": [
        {
          "internalType": "bytes32",
          "name": "requestId",
          "type": "bytes32"
        },
        {
          "internalType": "uint256",
          "name": "randomness",
          "type": "uint256"
        }
      ],
      "name": "rawFulfillRandomness",
      "outputs": [],
      "stateMutability": "nonpayable",
      "type": "function"
    },
    {
      "inputs": [
        {
          "internalType": "address",
          "name": "_controller",
          "type": "address"
        }
      ],
      "name": "removeController",
      "outputs": [],
      "stateMutability": "nonpayable",
      "type": "function"
    },
    {
      "inputs": [],
      "name": "renounceOwnership",
      "outputs": [],
      "stateMutability": "nonpayable",
      "type": "function"
    },
    {
      "inputs": [
        {
          "internalType": "address",
          "name": "newOwner",
          "type": "address"
        }
      ],
      "name": "transferOwnership",
      "outputs": [],
      "stateMutability": "nonpayable",
      "type": "function"
    },
    {
      "inputs": [
        {
          "internalType": "bytes32",
          "name": "",
          "type": "bytes32"
        }
      ],
      "name": "vrfRequests",
      "outputs": [
        {
          "internalType": "bytes32",
          "name": "requestId",
          "type": "bytes32"
        },
        {
          "internalType": "address",
          "name": "sender",
          "type": "address"
        },
        {
          "internalType": "uint8",
          "name": "amount",
          "type": "uint8"
        },
        {
          "internalType": "bool",
          "name": "stake",
          "type": "bool"
        }
      ],
      "stateMutability": "view",
      "type": "function",
      "constant": true
    },
    {
      "inputs": [
        {
          "internalType": "uint256",
          "name": "amount",
          "type": "uint256"
        }
      ],
      "name": "withdrawLink",
      "outputs": [
        {
          "internalType": "bool",
          "name": "success",
          "type": "bool"
        }
      ],
      "stateMutability": "nonpayable",
      "type": "function"
    },
    {
      "inputs": [
        {
          "internalType": "address",
          "name": "_vrfCoordinator",
          "type": "address"
        },
        {
          "internalType": "address",
          "name": "_link",
          "type": "address"
        },
        {
          "internalType": "bytes32",
          "name": "_keyHash",
          "type": "bytes32"
        },
        {
          "internalType": "uint256",
          "name": "_fee",
          "type": "uint256"
        }
      ],
      "name": "initialize",
      "outputs": [],
      "stateMutability": "nonpayable",
      "type": "function"
    },
    {
      "inputs": [
        {
          "internalType": "address",
          "name": "_vrfCoordinator",
          "type": "address"
        },
        {
          "internalType": "address",
          "name": "_link",
          "type": "address"
        }
      ],
      "name": "initialize",
      "outputs": [],
      "stateMutability": "nonpayable",
      "type": "function"
    },
    {
      "inputs": [
        {
          "internalType": "address",
          "name": "_vrfCoordinator",
          "type": "address"
        },
        {
          "internalType": "address",
          "name": "_link",
          "type": "address"
        },
        {
          "internalType": "bytes32",
          "name": "_keyHash",
          "type": "bytes32"
        },
        {
          "internalType": "uint256",
          "name": "_fee",
          "type": "uint256"
        }
      ],
      "name": "setVrfParams",
      "outputs": [],
      "stateMutability": "nonpayable",
      "type": "function"
    },
    {
      "inputs": [
        {
          "internalType": "address",
          "name": "sender",
          "type": "address"
        },
        {
          "internalType": "uint8",
          "name": "amount",
          "type": "uint8"
        },
        {
          "internalType": "bool",
          "name": "stake",
          "type": "bool"
        }
      ],
      "name": "requestRandomNumber",
      "outputs": [
        {
          "internalType": "bytes32",
          "name": "requestId",
          "type": "bytes32"
        }
      ],
      "stateMutability": "nonpayable",
      "type": "function"
    },
    {
      "inputs": [
        {
          "internalType": "address",
          "name": "_character",
          "type": "address"
        }
      ],
      "name": "setCharacter",
      "outputs": [],
      "stateMutability": "nonpayable",
      "type": "function"
    }
  ],
  "bytecode": "0x608060405234801561001057600080fd5b50613371806100206000396000f3fe608060405234801561001057600080fd5b50600436106101005760003560e01c806394985ddd11610097578063de864bf911610066578063de864bf914610295578063dec04e5f146102c5578063f2fde38b146102f8578063f6a74ed71461031457610100565b806394985ddd146101fd578063a1b8f37414610219578063a7fc7a0714610249578063c13aa7b51461026557610100565b8063485cc955116100d3578063485cc95514610189578063715018a6146101a55780637a8042bd146101af5780638da5cb5b146101df57610100565b8063204efe1714610105578063277a23891461012157806333df4b2c1461013d5780633d6b06cc1461016d575b600080fd5b61011f600480360381019061011a91906121cb565b610330565b005b61013b60048036038101906101369190612264565b6103f0565b005b610157600480360381019061015291906122cb565b6109b4565b6040516101649190612327565b60405180910390f35b61018760048036038101906101829190612264565b6109fa565b005b6101a3600480360381019061019e9190612342565b610b0c565b005b6101ad610c74565b005b6101c960048036038101906101c49190612382565b610cfc565b6040516101d691906123ca565b60405180910390f35b6101e7610e28565b6040516101f491906123f4565b60405180910390f35b6102176004803603810190610212919061240f565b610e52565b005b610233600480360381019061022e9190612382565b610ef0565b604051610240919061245e565b60405180910390f35b610263600480360381019061025e91906121cb565b610f08565b005b61027f600480360381019061027a91906121cb565b610fdf565b60405161028c91906123ca565b60405180910390f35b6102af60048036038101906102aa91906124d1565b6110b1565b6040516102bc919061245e565b60405180910390f35b6102df60048036038101906102da9190612524565b611360565b6040516102ef9493929190612551565b60405180910390f35b610312600480360381019061030d91906121cb565b6113ca565b005b61032e600480360381019061032991906121cb565b6114c2565b005b610338611599565b73ffffffffffffffffffffffffffffffffffffffff16610356610e28565b73ffffffffffffffffffffffffffffffffffffffff16146103ac576040517f08c379a00000000000000000000000000000000000000000000000000000000081526004016103a3906125f3565b60405180910390fd5b80607c60006101000a81548173ffffffffffffffffffffffffffffffffffffffff021916908373ffffffffffffffffffffffffffffffffffffffff16021790555050565b600060019054906101000a900460ff166104185760008054906101000a900460ff1615610421565b6104206115a1565b5b610460576040517f08c379a000000000000000000000000000000000000000000000000000000000815260040161045790612685565b60405180910390fd5b60008060019054906101000a900460ff1615905080156104b0576001600060016101000a81548160ff02191690831515021790555060016000806101000a81548160ff0219169083151502179055505b6104b86115b2565b84606660006101000a81548173ffffffffffffffffffffffffffffffffffffffff021916908373ffffffffffffffffffffffffffffffffffffffff16021790555083606560006101000a81548173ffffffffffffffffffffffffffffffffffffffff021916908373ffffffffffffffffffffffffffffffffffffffff16021790555082607d8190555081607e819055506040518060c0016040528060ff8016815260200160df60ff16815260200160bf60ff168152602001609f60ff168152602001607f60ff168152602001605f60ff1681525060696002601281106105a1576105a06126a5565b5b019060066105b0929190611f8d565b5060405180610100016040528060ff8016815260200160df60ff16815260200160bf60ff168152602001609f60ff168152602001607f60ff168152602001605f60ff168152602001603f60ff168152602001601f60ff16815250606960036012811061061f5761061e6126a5565b5b0190600861062e929190612034565b506040518060c0016040528060ff8016815260200160df60ff16815260200160bf60ff168152602001609f60ff168152602001607f60ff168152602001605f60ff168152506069600460128110610688576106876126a5565b5b01906006610697929190611f8d565b506040518060c0016040528060ff8016815260200160cf60ff168152602001609f60ff168152602001606f60ff168152602001603f60ff168152602001600f60ff1681525060696005601281106106f1576106f06126a5565b5b01906006610700929190611f8d565b506040518060c0016040528060ff8016815260200160df60ff16815260200160bf60ff168152602001609f60ff168152602001607f60ff168152602001605f60ff16815250606960066012811061075a576107596126a5565b5b01906006610769929190611f8d565b506040518060c0016040528060ff8016815260200160df60ff16815260200160bf60ff168152602001609f60ff168152602001607f60ff168152602001605f60ff168152506069600c601281106107c3576107c26126a5565b5b019060066107d2929190611f8d565b5060405180610100016040528060ff8016815260200160df60ff16815260200160bf60ff168152602001609f60ff168152602001607f60ff168152602001605f60ff168152602001603f60ff168152602001601f60ff168152506069600d60128110610841576108406126a5565b5b01906008610850929190612034565b506040518060c0016040528060ff8016815260200160df60ff16815260200160bf60ff168152602001609f60ff168152602001607f60ff168152602001605f60ff168152506069600e601281106108aa576108a96126a5565b5b019060066108b9929190611f8d565b506040518060c0016040528060ff8016815260200160cf60ff168152602001609f60ff168152602001606f60ff168152602001603f60ff168152602001600f60ff168152506069600f60128110610913576109126126a5565b5b01906006610922929190611f8d565b506040518060c0016040528060ff8016815260200160df60ff16815260200160bf60ff168152602001609f60ff168152602001607f60ff168152602001605f60ff16815250606960106012811061097c5761097b6126a5565b5b0190600661098b929190611f8d565b5080156109ad5760008060016101000a81548160ff0219169083151502179055505b5050505050565b606982601281106109c457600080fd5b0181815481106109d357600080fd5b9060005260206000209060209182820401919006915091509054906101000a900460ff1681565b610a02611599565b73ffffffffffffffffffffffffffffffffffffffff16610a20610e28565b73ffffffffffffffffffffffffffffffffffffffff1614610a76576040517f08c379a0000000000000000000000000000000000000000000000000000000008152600401610a6d906125f3565b60405180910390fd5b83606660006101000a81548173ffffffffffffffffffffffffffffffffffffffff021916908373ffffffffffffffffffffffffffffffffffffffff16021790555082606560006101000a81548173ffffffffffffffffffffffffffffffffffffffff021916908373ffffffffffffffffffffffffffffffffffffffff16021790555081607d8190555080607e8190555050505050565b600060019054906101000a900460ff16610b345760008054906101000a900460ff1615610b3d565b610b3c6115a1565b5b610b7c576040517f08c379a0000000000000000000000000000000000000000000000000000000008152600401610b7390612685565b60405180910390fd5b60008060019054906101000a900460ff161590508015610bcc576001600060016101000a81548160ff02191690831515021790555060016000806101000a81548160ff0219169083151502179055505b82606660006101000a81548173ffffffffffffffffffffffffffffffffffffffff021916908373ffffffffffffffffffffffffffffffffffffffff16021790555081606560006101000a81548173ffffffffffffffffffffffffffffffffffffffff021916908373ffffffffffffffffffffffffffffffffffffffff1602179055508015610c6f5760008060016101000a81548160ff0219169083151502179055505b505050565b610c7c611599565b73ffffffffffffffffffffffffffffffffffffffff16610c9a610e28565b73ffffffffffffffffffffffffffffffffffffffff1614610cf0576040517f08c379a0000000000000000000000000000000000000000000000000000000008152600401610ce7906125f3565b60405180910390fd5b610cfa6000611613565b565b6000610d06611599565b73ffffffffffffffffffffffffffffffffffffffff16610d24610e28565b73ffffffffffffffffffffffffffffffffffffffff1614610d7a576040517f08c379a0000000000000000000000000000000000000000000000000000000008152600401610d71906125f3565b60405180910390fd5b606560009054906101000a900473ffffffffffffffffffffffffffffffffffffffff1673ffffffffffffffffffffffffffffffffffffffff1663a9059cbb610dc0611599565b846040518363ffffffff1660e01b8152600401610dde9291906126e3565b6020604051808303816000875af1158015610dfd573d6000803e3d6000fd5b505050506040513d601f19601f82011682018060405250810190610e219190612721565b9050919050565b6000603360009054906101000a900473ffffffffffffffffffffffffffffffffffffffff16905090565b606660009054906101000a900473ffffffffffffffffffffffffffffffffffffffff1673ffffffffffffffffffffffffffffffffffffffff163373ffffffffffffffffffffffffffffffffffffffff1614610ee2576040517f08c379a0000000000000000000000000000000000000000000000000000000008152600401610ed99061279a565b60405180910390fd5b610eec82826116d9565b5050565b607b6020528060005260406000206000915090505481565b610f10611599565b73ffffffffffffffffffffffffffffffffffffffff16610f2e610e28565b73ffffffffffffffffffffffffffffffffffffffff1614610f84576040517f08c379a0000000000000000000000000000000000000000000000000000000008152600401610f7b906125f3565b60405180910390fd5b6001606860008373ffffffffffffffffffffffffffffffffffffffff1673ffffffffffffffffffffffffffffffffffffffff16815260200190815260200160002060006101000a81548160ff02191690831515021790555050565b6000610fe9611599565b73ffffffffffffffffffffffffffffffffffffffff16611007610e28565b73ffffffffffffffffffffffffffffffffffffffff161461105d576040517f08c379a0000000000000000000000000000000000000000000000000000000008152600401611054906125f3565b60405180910390fd5b606860008373ffffffffffffffffffffffffffffffffffffffff1673ffffffffffffffffffffffffffffffffffffffff16815260200190815260200160002060009054906101000a900460ff169050919050565b6000606860003373ffffffffffffffffffffffffffffffffffffffff1673ffffffffffffffffffffffffffffffffffffffff16815260200190815260200160002060009054906101000a900460ff1661113f576040517f08c379a000000000000000000000000000000000000000000000000000000000815260040161113690612806565b60405180910390fd5b607e54606560009054906101000a900473ffffffffffffffffffffffffffffffffffffffff1673ffffffffffffffffffffffffffffffffffffffff166370a08231306040518263ffffffff1660e01b815260040161119d91906123f4565b602060405180830381865afa1580156111ba573d6000803e3d6000fd5b505050506040513d601f19601f820116820180604052508101906111de919061283b565b101561121f576040517f08c379a0000000000000000000000000000000000000000000000000000000008152600401611216906128b4565b60405180910390fd5b61122d607d54607e546119db565b9050600060405180608001604052808381526020018673ffffffffffffffffffffffffffffffffffffffff1681526020018560ff168152602001841515815250905080607f60008481526020019081526020016000206000820151816000015560208201518160010160006101000a81548173ffffffffffffffffffffffffffffffffffffffff021916908373ffffffffffffffffffffffffffffffffffffffff16021790555060408201518160010160146101000a81548160ff021916908360ff16021790555060608201518160010160156101000a81548160ff0219169083151502179055509050507fa604c1d75d1d5480c3a226f3b59c2be444c037ab3cbc22c688fa02ddcaedd13582611342611599565b6040516113509291906128d4565b60405180910390a1509392505050565b607f6020528060005260406000206000915090508060000154908060010160009054906101000a900473ffffffffffffffffffffffffffffffffffffffff16908060010160149054906101000a900460ff16908060010160159054906101000a900460ff16905084565b6113d2611599565b73ffffffffffffffffffffffffffffffffffffffff166113f0610e28565b73ffffffffffffffffffffffffffffffffffffffff1614611446576040517f08c379a000000000000000000000000000000000000000000000000000000000815260040161143d906125f3565b60405180910390fd5b600073ffffffffffffffffffffffffffffffffffffffff168173ffffffffffffffffffffffffffffffffffffffff1614156114b6576040517f08c379a00000000000000000000000000000000000000000000000000000000081526004016114ad9061296f565b60405180910390fd5b6114bf81611613565b50565b6114ca611599565b73ffffffffffffffffffffffffffffffffffffffff166114e8610e28565b73ffffffffffffffffffffffffffffffffffffffff161461153e576040517f08c379a0000000000000000000000000000000000000000000000000000000008152600401611535906125f3565b60405180910390fd5b6000606860008373ffffffffffffffffffffffffffffffffffffffff1673ffffffffffffffffffffffffffffffffffffffff16815260200190815260200160002060006101000a81548160ff02191690831515021790555050565b600033905090565b60006115ac30611b32565b15905090565b600060019054906101000a900460ff16611601576040517f08c379a00000000000000000000000000000000000000000000000000000000081526004016115f890612a01565b60405180910390fd5b611609611b45565b611611611b96565b565b6000603360009054906101000a900473ffffffffffffffffffffffffffffffffffffffff16905081603360006101000a81548173ffffffffffffffffffffffffffffffffffffffff021916908373ffffffffffffffffffffffffffffffffffffffff1602179055508173ffffffffffffffffffffffffffffffffffffffff168173ffffffffffffffffffffffffffffffffffffffff167f8be0079c531659141344cd1fd0a4f28419497f9722a3daafe3b4186f6b6457e060405160405180910390a35050565b6000801b607f6000848152602001908152602001600020600001541415611735576040517f08c379a000000000000000000000000000000000000000000000000000000000815260040161172c90612a6d565b60405180910390fd5b6000607f6000848152602001908152602001600020604051806080016040529081600082015481526020016001820160009054906101000a900473ffffffffffffffffffffffffffffffffffffffff1673ffffffffffffffffffffffffffffffffffffffff1673ffffffffffffffffffffffffffffffffffffffff1681526020016001820160149054906101000a900460ff1660ff1660ff1681526020016001820160159054906101000a900460ff16151515158152505090506000816040015160ff1667ffffffffffffffff81111561181257611811612a8d565b5b60405190808252806020026020018201604052801561184b57816020015b6118386120db565b8152602001906001900390816118305790505b50905060005b826040015160ff168110156118c657611895858583604051602001611877929190612abc565b6040516020818303038152906040528051906020012060001c611bf7565b8282815181106118a8576118a76126a5565b5b602002602001018190525080806118be90612b14565b915050611851565b50607c60009054906101000a900473ffffffffffffffffffffffffffffffffffffffff1673ffffffffffffffffffffffffffffffffffffffff16634a43d1d3607f6000878152602001908152602001600020836040518363ffffffff1660e01b8152600401611936929190612e5d565b600060405180830381600087803b15801561195057600080fd5b505af1158015611964573d6000803e3d6000fd5b50505050607f60008581526020019081526020016000206000808201600090556001820160006101000a81549073ffffffffffffffffffffffffffffffffffffffff02191690556001820160146101000a81549060ff02191690556001820160156101000a81549060ff0219169055505050505050565b6000606560009054906101000a900473ffffffffffffffffffffffffffffffffffffffff1673ffffffffffffffffffffffffffffffffffffffff16634000aea0606660009054906101000a900473ffffffffffffffffffffffffffffffffffffffff1684866000604051602001611a53929190612e8d565b6040516020818303038152906040526040518463ffffffff1660e01b8152600401611a8093929190612f4f565b6020604051808303816000875af1158015611a9f573d6000803e3d6000fd5b505050506040513d601f19601f82011682018060405250810190611ac39190612721565b506000611ae6846000306067600089815260200190815260200160002054611c9c565b905060016067600086815260200190815260200160002054611b089190612f8d565b6067600086815260200190815260200160002081905550611b298482611cd8565b91505092915050565b600080823b905060008111915050919050565b600060019054906101000a900460ff16611b94576040517f08c379a0000000000000000000000000000000000000000000000000000000008152600401611b8b90612a01565b60405180910390fd5b565b600060019054906101000a900460ff16611be5576040517f08c379a0000000000000000000000000000000000000000000000000000000008152600401611bdc90612a01565b60405180910390fd5b611bf5611bf0611599565b611613565b565b611bff6120db565b611c0882611d0b565b90506000611c1582611e64565b90506000801b607b6000838152602001908152602001600020541415611c535783607b60008381526020019081526020016000208190555050611c96565b611c9284600185611c649190612fe3565b604051602001611c749190613038565b6040516020818303038152906040528051906020012060001c611bf7565b9150505b92915050565b600084848484604051602001611cb59493929190613053565b6040516020818303038152906040528051906020012060001c9050949350505050565b60008282604051602001611ced9291906130b9565b60405160208183030381529060405280519060200120905092915050565b611d136120db565b6000600a61ffff8416611d269190613114565b1415816000019015159081151581525050806000015115611dd257611d4c826002611ec7565b816020019060ff16908160ff1681525050611d68826003611ec7565b816040019060ff16908160ff1681525050611d84826004611ec7565b816080019060ff16908160ff1681525050611da0826005611ec7565b8160a0019060ff16908160ff1681525050611dbc826006611ec7565b8160c0019060ff16908160ff1681525050611e5f565b611ddd82600c611ec7565b816020019060ff16908160ff1681525050611df982600d611ec7565b816040019060ff16908160ff1681525050611e1582600e611ec7565b816060019060ff16908160ff1681525050611e3182600f611ec7565b8160a0019060ff16908160ff1681525050611e4d826010611ec7565b8160e0019060ff16908160ff16815250505b919050565b6000816000015182602001518360400151846060015185608001518660a001518760c001518860e00151604051602001611ea59897969594939291906131a4565b604051602081830303815290604052611ebd90613268565b60001c9050919050565b60006010600a83611ed891906132cf565b611ee29190613300565b60ff1683901c9250600060698360ff1660128110611f0357611f026126a5565b5b018054905084611f1391906132cf565b9050600060ff8516905060698460ff1660128110611f3457611f336126a5565b5b018260ff1681548110611f4a57611f496126a5565b5b90600052602060002090602091828204019190069054906101000a900460ff1660ff168160ff1611611f80578192505050611f87565b6000925050505b92915050565b82805482825590600052602060002090601f016020900481019282156120235791602002820160005b83821115611ff457835183826101000a81548160ff021916908360ff1602179055509260200192600101602081600001049283019260010302611fb6565b80156120215782816101000a81549060ff0219169055600101602081600001049283019260010302611ff4565b505b509050612030919061214b565b5090565b82805482825590600052602060002090601f016020900481019282156120ca5791602002820160005b8382111561209b57835183826101000a81548160ff021916908360ff160217905550926020019260010160208160000104928301926001030261205d565b80156120c85782816101000a81549060ff021916905560010160208160000104928301926001030261209b565b505b5090506120d7919061214b565b5090565b604051806101400160405280600015158152602001600060ff168152602001600060ff168152602001600060ff168152602001600060ff168152602001600060ff168152602001600060ff168152602001600060ff168152602001600060ff168152602001600060ff1681525090565b5b8082111561216457600081600090555060010161214c565b5090565b600080fd5b600073ffffffffffffffffffffffffffffffffffffffff82169050919050565b60006121988261216d565b9050919050565b6121a88161218d565b81146121b357600080fd5b50565b6000813590506121c58161219f565b92915050565b6000602082840312156121e1576121e0612168565b5b60006121ef848285016121b6565b91505092915050565b6000819050919050565b61220b816121f8565b811461221657600080fd5b50565b60008135905061222881612202565b92915050565b6000819050919050565b6122418161222e565b811461224c57600080fd5b50565b60008135905061225e81612238565b92915050565b6000806000806080858703121561227e5761227d612168565b5b600061228c878288016121b6565b945050602061229d878288016121b6565b93505060406122ae87828801612219565b92505060606122bf8782880161224f565b91505092959194509250565b600080604083850312156122e2576122e1612168565b5b60006122f08582860161224f565b92505060206123018582860161224f565b9150509250929050565b600060ff82169050919050565b6123218161230b565b82525050565b600060208201905061233c6000830184612318565b92915050565b6000806040838503121561235957612358612168565b5b6000612367858286016121b6565b9250506020612378858286016121b6565b9150509250929050565b60006020828403121561239857612397612168565b5b60006123a68482850161224f565b91505092915050565b60008115159050919050565b6123c4816123af565b82525050565b60006020820190506123df60008301846123bb565b92915050565b6123ee8161218d565b82525050565b600060208201905061240960008301846123e5565b92915050565b6000806040838503121561242657612425612168565b5b600061243485828601612219565b92505060206124458582860161224f565b9150509250929050565b612458816121f8565b82525050565b6000602082019050612473600083018461244f565b92915050565b6124828161230b565b811461248d57600080fd5b50565b60008135905061249f81612479565b92915050565b6124ae816123af565b81146124b957600080fd5b50565b6000813590506124cb816124a5565b92915050565b6000806000606084860312156124ea576124e9612168565b5b60006124f8868287016121b6565b935050602061250986828701612490565b925050604061251a868287016124bc565b9150509250925092565b60006020828403121561253a57612539612168565b5b600061254884828501612219565b91505092915050565b6000608082019050612566600083018761244f565b61257360208301866123e5565b6125806040830185612318565b61258d60608301846123bb565b95945050505050565b600082825260208201905092915050565b7f4f776e61626c653a2063616c6c6572206973206e6f7420746865206f776e6572600082015250565b60006125dd602083612596565b91506125e8826125a7565b602082019050919050565b6000602082019050818103600083015261260c816125d0565b9050919050565b7f496e697469616c697a61626c653a20636f6e747261637420697320616c72656160008201527f647920696e697469616c697a6564000000000000000000000000000000000000602082015250565b600061266f602e83612596565b915061267a82612613565b604082019050919050565b6000602082019050818103600083015261269e81612662565b9050919050565b7f4e487b7100000000000000000000000000000000000000000000000000000000600052603260045260246000fd5b6126dd8161222e565b82525050565b60006040820190506126f860008301856123e5565b61270560208301846126d4565b9392505050565b60008151905061271b816124a5565b92915050565b60006020828403121561273757612736612168565b5b60006127458482850161270c565b91505092915050565b7f4f6e6c7920565246436f6f7264696e61746f722063616e2066756c66696c6c00600082015250565b6000612784601f83612596565b915061278f8261274e565b602082019050919050565b600060208201905081810360008301526127b381612777565b9050919050565b7f4f6e6c7920636f6e74726f6c6c6572732063616e206578656375746500000000600082015250565b60006127f0601c83612596565b91506127fb826127ba565b602082019050919050565b6000602082019050818103600083015261281f816127e3565b9050919050565b60008151905061283581612238565b92915050565b60006020828403121561285157612850612168565b5b600061285f84828501612826565b91505092915050565b7f496e73756666696369656e74204c494e4b000000000000000000000000000000600082015250565b600061289e601183612596565b91506128a982612868565b602082019050919050565b600060208201905081810360008301526128cd81612891565b9050919050565b60006040820190506128e9600083018561244f565b6128f660208301846123e5565b9392505050565b7f4f776e61626c653a206e6577206f776e657220697320746865207a65726f206160008201527f6464726573730000000000000000000000000000000000000000000000000000602082015250565b6000612959602683612596565b9150612964826128fd565b604082019050919050565b600060208201905081810360008301526129888161294c565b9050919050565b7f496e697469616c697a61626c653a20636f6e7472616374206973206e6f74206960008201527f6e697469616c697a696e67000000000000000000000000000000000000000000602082015250565b60006129eb602b83612596565b91506129f68261298f565b604082019050919050565b60006020820190508181036000830152612a1a816129de565b9050919050565b7f5652462072657175657374204944206e6f7420666f756e640000000000000000600082015250565b6000612a57601883612596565b9150612a6282612a21565b602082019050919050565b60006020820190508181036000830152612a8681612a4a565b9050919050565b7f4e487b7100000000000000000000000000000000000000000000000000000000600052604160045260246000fd5b6000604082019050612ad160008301856126d4565b612ade60208301846126d4565b9392505050565b7f4e487b7100000000000000000000000000000000000000000000000000000000600052601160045260246000fd5b6000612b1f8261222e565b91507fffffffffffffffffffffffffffffffffffffffffffffffffffffffffffffffff821415612b5257612b51612ae5565b5b600182019050919050565b60008160001c9050919050565b6000819050919050565b6000612b87612b8283612b5d565b612b6a565b9050919050565b612b97816121f8565b82525050565b600073ffffffffffffffffffffffffffffffffffffffff82169050919050565b6000612bd0612bcb83612b5d565b612b9d565b9050919050565b612be08161218d565b82525050565b60008160a01c9050919050565b600060ff82169050919050565b6000612c13612c0e83612be6565b612bf3565b9050919050565b612c238161230b565b82525050565b60008160a81c9050919050565b600060ff82169050919050565b6000612c56612c5183612c29565b612c36565b9050919050565b612c66816123af565b82525050565b608082016000808301549050612c8181612b74565b612c8e6000860182612b8e565b5060018301549050612c9f81612bbd565b612cac6020860182612bd7565b50612cb681612c00565b612cc36040860182612c1a565b50612ccd81612c43565b612cda6060860182612c5d565b5050505050565b600081519050919050565b600082825260208201905092915050565b6000819050602082019050919050565b61014082016000820151612d246000850182612c5d565b506020820151612d376020850182612c1a565b506040820151612d4a6040850182612c1a565b506060820151612d5d6060850182612c1a565b506080820151612d706080850182612c1a565b5060a0820151612d8360a0850182612c1a565b5060c0820151612d9660c0850182612c1a565b5060e0820151612da960e0850182612c1a565b50610100820151612dbe610100850182612c1a565b50610120820151612dd3610120850182612c1a565b50505050565b6000612de58383612d0d565b6101408301905092915050565b6000602082019050919050565b6000612e0a82612ce1565b612e148185612cec565b9350612e1f83612cfd565b8060005b83811015612e50578151612e378882612dd9565b9750612e4283612df2565b925050600181019050612e23565b5085935050505092915050565b600060a082019050612e726000830185612c6c565b8181036080830152612e848184612dff565b90509392505050565b6000604082019050612ea2600083018561244f565b612eaf60208301846126d4565b9392505050565b600081519050919050565b600082825260208201905092915050565b60005b83811015612ef0578082015181840152602081019050612ed5565b83811115612eff576000848401525b50505050565b6000601f19601f8301169050919050565b6000612f2182612eb6565b612f2b8185612ec1565b9350612f3b818560208601612ed2565b612f4481612f05565b840191505092915050565b6000606082019050612f6460008301866123e5565b612f7160208301856126d4565b8181036040830152612f838184612f16565b9050949350505050565b6000612f988261222e565b9150612fa38361222e565b9250827fffffffffffffffffffffffffffffffffffffffffffffffffffffffffffffffff03821115612fd857612fd7612ae5565b5b828201905092915050565b6000612fee8261222e565b9150612ff98361222e565b92508282101561300c5761300b612ae5565b5b828203905092915050565b6000819050919050565b61303261302d8261222e565b613017565b82525050565b60006130448284613021565b60208201915081905092915050565b6000608082019050613068600083018761244f565b61307560208301866126d4565b61308260408301856123e5565b61308f60608301846126d4565b95945050505050565b6000819050919050565b6130b36130ae826121f8565b613098565b82525050565b60006130c582856130a2565b6020820191506130d58284613021565b6020820191508190509392505050565b7f4e487b7100000000000000000000000000000000000000000000000000000000600052601260045260246000fd5b600061311f8261222e565b915061312a8361222e565b92508261313a576131396130e5565b5b828206905092915050565b60008160f81b9050919050565b600061315d82613145565b9050919050565b600061316f82613152565b9050919050565b613187613182826123af565b613164565b82525050565b61319e6131998261230b565b613152565b82525050565b60006131b0828b613176565b6001820191506131c0828a61318d565b6001820191506131d0828961318d565b6001820191506131e0828861318d565b6001820191506131f0828761318d565b600182019150613200828661318d565b600182019150613210828561318d565b600182019150613220828461318d565b6001820191508190509998505050505050505050565b6000819050602082019050919050565b600061325282516121f8565b80915050919050565b600082821b905092915050565b600061327382612eb6565b8261327d84613236565b905061328881613246565b925060208210156132c8576132c37fffffffffffffffffffffffffffffffffffffffffffffffffffffffffffffffff8360200360080261325b565b831692505b5050919050565b60006132da8261230b565b91506132e58361230b565b9250826132f5576132f46130e5565b5b828206905092915050565b600061330b8261230b565b91506133168361230b565b92508160ff04831182151516156133305761332f612ae5565b5b82820290509291505056fea26469706673582212200460446f5b0214ba0e2ccf0c0eb54f1d58edcaf75e01673ddf181374a3fe963a64736f6c634300080a0033",
  "immutableReferences": {},
  "source": "// SPDX-License-Identifier: MIT\n\npragma solidity ^0.8.0;\n\nimport \"@openzeppelin/contracts-upgradeable/proxy/utils/Initializable.sol\";\nimport \"./ControllableUpgradeable.sol\";\nimport \"./VRFConsumer.sol\";\nimport \"./IMint.sol\";\nimport \"./ICharacter.sol\";\n\ncontract Mint is Initializable, OwnableUpgradeable, IMint, VRFConsumer, ControllableUpgradeable {\n  uint8[][18] public rarities; // List of probabilities for each trait type, 0 - 9 are associated with Chefs, 10 - 18 are associated with Rats\n  mapping(uint256 => bytes32) public existingCombinations; // Mapping from hashed(tokenTrait) to the tokenId it's associated with, used to ensure there are no duplicates\n\n  ICharacter character; // Reference to the Character\n  bytes32 internal keyHash;\n  uint256 internal fee;\n  mapping(bytes32 => VRFStruct) public vrfRequests; // Mapping from tokenId to a struct containing the token's traits\n\n  event RandomNumberRequested(\n    bytes32 requestId,\n    address sender\n  );\n\n  function initialize(\n    address _vrfCoordinator,\n    address _link,\n    bytes32 _keyHash,\n    uint256 _fee\n  ) external initializer {\n    __Ownable_init();\n\n    vrfCoordinator = _vrfCoordinator;\n    link = LinkTokenInterface(_link);\n    keyHash = _keyHash;\n    fee = _fee;\n\n    // Chefs\n    rarities[2] = [255, 223, 191, 159, 127, 95]; // hat\n    rarities[3] = [255, 223, 191, 159, 127, 95, 63, 31]; // eyes\n    rarities[4] = [255, 223, 191, 159, 127, 95]; // mouth\n    rarities[5] = [255, 207, 159, 111, 63, 15]; // neck\n    rarities[6] = [255, 223, 191, 159, 127, 95]; // hand\n    // Rats\n    rarities[12] = [255, 223, 191, 159, 127, 95]; // hat\n    rarities[13] = [255, 223, 191, 159, 127, 95, 63, 31]; // eyes\n    rarities[14] = [255, 223, 191, 159, 127, 95]; // piercing\n    rarities[15] = [255, 207, 159, 111, 63, 15]; // neck\n    rarities[16] = [255, 223, 191, 159, 127, 95]; // tail\n  }\n\n  /**\n   * Set ChainLink VRF params\n   */\n  function setVrfParams(\n    address _vrfCoordinator,\n    address _link,\n    bytes32 _keyHash,\n    uint256 _fee\n  ) external onlyOwner {\n    vrfCoordinator = _vrfCoordinator;\n    link = LinkTokenInterface(_link);\n    keyHash = _keyHash;\n    fee = _fee;\n  }\n\n  function requestRandomNumber(address sender, uint8 amount, bool stake) external onlyController returns (bytes32 requestId) {\n    require(link.balanceOf(address(this)) >= fee, \"Insufficient LINK\");\n    requestId = requestRandomness(keyHash, fee);\n    VRFStruct memory v = VRFStruct({ requestId: requestId, sender: sender, amount: amount, stake: stake });\n    vrfRequests[requestId] = v;\n    emit RandomNumberRequested(\n      requestId,\n      _msgSender()\n    );\n  }\n\n  function fulfillRandomness(bytes32 requestId, uint256 randomness) internal override {\n    require(vrfRequests[requestId].requestId != 0, \"VRF request ID not found\");\n    VRFStruct memory v = vrfRequests[requestId];\n    ICharacter.CharacterStruct[] memory tokens = new ICharacter.CharacterStruct[](v.amount);\n\n    for (uint i = 0; i < v.amount; i++) {\n      tokens[i] = generate(requestId, uint256(keccak256(abi.encode(randomness, i))));\n    }\n\n    character.fulfillMint(vrfRequests[requestId], tokens);\n    delete vrfRequests[requestId];\n  }\n\n  /**\n   * Generates traits for a specific token, checking to make sure it's unique\n   * @param requestId - A VRF request ID\n   * @param seed - A VRF seed\n   * @return t - A struct of traits for the given token ID\n   */\n  function generate(bytes32 requestId, uint256 seed) internal returns (ICharacter.CharacterStruct memory t) {\n    t = selectTraits(seed);\n    uint256 hash = structToHash(t);\n    if (existingCombinations[hash] == 0) {\n      existingCombinations[hash] = requestId;\n      return t;\n    }\n    return generate(requestId, uint256(keccak256(abi.encodePacked(seed - 1))));\n  }\n\n  /**\n   * Selects the species and all of its traits based on the seed value\n   * @param seed - A pseudorandom 256 bit number to derive traits from\n   * @return t -  A struct of randomly selected traits\n   */\n  function selectTraits(uint256 seed) internal view returns (ICharacter.CharacterStruct memory t) {\n    t.isChef = (seed & 0xFFFF) % 10 != 0;\n    if (t.isChef) {\n      t.hat = selectTrait(seed, 2);\n      t.eyes = selectTrait(seed, 3);\n      t.mouth = selectTrait(seed, 4);\n      t.neck = selectTrait(seed, 5);\n      t.hand = selectTrait(seed, 6);\n    } else {\n      t.hat = selectTrait(seed, 12);\n      t.eyes = selectTrait(seed, 13);\n      t.piercing = selectTrait(seed, 14);\n      t.neck = selectTrait(seed, 15);\n      t.tail = selectTrait(seed, 16);\n    }\n    return t;\n  }\n\n  /**\n   * Uses A.J. Walker's Alias algorithm for O(1) rarity table lookup\n   * ensuring O(1) instead of O(n) reduces mint cost by more than 50%\n   * probability & alias tables are generated off-chain beforehand\n   * @param seed - Portion of the 256 bit seed to remove trait correlation\n   * @param traitIndex - The trait index to select a trait for\n   * @return The ID of the randomly selected trait\n   */\n  function selectTrait(uint256 seed, uint8 traitIndex) internal view returns (uint8) {\n    seed = seed >>= (traitIndex % 10 * 16);\n    uint8 trait = uint8(seed) % uint8(rarities[traitIndex].length); // Selected trait index\n    uint8 rand = uint8(seed & 0xFFFF >> 8); // Random integer from 0 to 255\n    if (rand <= rarities[traitIndex][trait]) return trait;\n    return 0;\n  }\n\n  /**\n   * Converts a struct to a 256 bit hash to check for uniqueness\n   * @param s - The struct to pack into a hash\n   * @return The 256 bit hash of the struct\n   */\n  function structToHash(ICharacter.CharacterStruct memory s) internal pure returns (uint256) {\n    return uint256(bytes32(\n      abi.encodePacked(\n        s.isChef,\n        s.hat,\n        s.eyes,\n        s.piercing,\n        s.mouth,\n        s.neck,\n        s.hand,\n        s.tail\n      )\n    ));\n  }\n\n  /**\n   * Set the character address\n   * @param _character - The address of the Character\n   */\n  function setCharacter(address _character) external onlyOwner {\n    character = ICharacter(_character);\n  }\n}\n",
  "sourcePath": "/Users/chris/workspace/ratalert/ratalert-contracts/contracts/Mint.sol",
  "compiler": {
    "name": "solc",
    "version": "0.8.10+commit.fc410830.Emscripten.clang"
  },
  "schemaVersion": "3.4.5",
  "updatedAt": "2022-03-12T10:31:31.692Z",
  "networkType": "ethereum",
  "devdoc": {
    "kind": "dev",
    "methods": {
      "addController(address)": {
        "params": {
          "_controller": "- The address to enable"
        }
      },
      "controller(address)": {
        "params": {
          "_controller": "- The address to check"
        }
      },
      "initialize(address,address)": {
        "params": {
          "_vrfCoordinator": "- Address of VRFCoordinator contract"
        }
      },
      "owner()": {
        "details": "Returns the address of the current owner."
      },
      "removeController(address)": {
        "params": {
          "_controller": "- The address to disable"
        }
      },
      "renounceOwnership()": {
        "details": "Leaves the contract without owner. It will not be possible to call `onlyOwner` functions anymore. Can only be called by the current owner. NOTE: Renouncing ownership will leave the contract without an owner, thereby removing any functionality that is only available to the owner."
      },
      "setCharacter(address)": {
        "params": {
          "_character": "- The address of the Character"
        }
      },
      "transferOwnership(address)": {
        "details": "Transfers ownership of the contract to a new account (`newOwner`). Can only be called by the current owner."
      }
    },
    "version": 1
  },
  "userdoc": {
    "kind": "user",
    "methods": {
      "addController(address)": {
        "notice": "Enables an address to mint / burn"
      },
      "controller(address)": {
        "notice": "Gets controller status by address"
      },
      "removeController(address)": {
        "notice": "Disables an address from minting / burning"
      },
      "setCharacter(address)": {
        "notice": "Set the character address"
      },
      "setVrfParams(address,address,bytes32,uint256)": {
        "notice": "Set ChainLink VRF params"
      }
    },
    "version": 1
  }
}