{
  "contractName": "Mint",
  "abi": [
    {
      "inputs": [
        {
          "internalType": "address",
          "name": "have",
          "type": "address"
        },
        {
          "internalType": "address",
          "name": "want",
          "type": "address"
        }
      ],
      "name": "OnlyCoordinatorCanFulfill",
      "type": "error"
    },
    {
      "anonymous": false,
      "inputs": [
        {
          "indexed": true,
          "internalType": "address",
          "name": "previousOwner",
          "type": "address"
        },
        {
          "indexed": true,
          "internalType": "address",
          "name": "newOwner",
          "type": "address"
        }
      ],
      "name": "OwnershipTransferred",
      "type": "event"
    },
    {
      "anonymous": false,
      "inputs": [
        {
          "indexed": true,
          "internalType": "address",
          "name": "from",
          "type": "address"
        },
        {
          "indexed": true,
          "internalType": "address",
          "name": "to",
          "type": "address"
        },
        {
          "indexed": true,
          "internalType": "uint256",
          "name": "tokenId",
          "type": "uint256"
        }
      ],
      "name": "Transfer",
      "type": "event"
    },
    {
      "inputs": [
        {
          "internalType": "uint256",
          "name": "",
          "type": "uint256"
        }
      ],
      "name": "existingCombinations",
      "outputs": [
        {
          "internalType": "uint256",
          "name": "",
          "type": "uint256"
        }
      ],
      "stateMutability": "view",
      "type": "function",
      "constant": true
    },
    {
      "inputs": [],
      "name": "owner",
      "outputs": [
        {
          "internalType": "address",
          "name": "",
          "type": "address"
        }
      ],
      "stateMutability": "view",
      "type": "function",
      "constant": true
    },
    {
      "inputs": [
        {
          "internalType": "uint256",
          "name": "",
          "type": "uint256"
        },
        {
          "internalType": "uint256",
          "name": "",
          "type": "uint256"
        }
      ],
      "name": "rarities",
      "outputs": [
        {
          "internalType": "uint8",
          "name": "",
          "type": "uint8"
        }
      ],
      "stateMutability": "view",
      "type": "function",
      "constant": true
    },
    {
      "inputs": [
        {
          "internalType": "uint256",
          "name": "requestId",
          "type": "uint256"
        },
        {
          "internalType": "uint256[]",
          "name": "randomWords",
          "type": "uint256[]"
        }
      ],
      "name": "rawFulfillRandomWords",
      "outputs": [],
      "stateMutability": "nonpayable",
      "type": "function"
    },
    {
      "inputs": [],
      "name": "renounceOwnership",
      "outputs": [],
      "stateMutability": "nonpayable",
      "type": "function"
    },
    {
      "inputs": [
        {
          "internalType": "address",
          "name": "newOwner",
          "type": "address"
        }
      ],
      "name": "transferOwnership",
      "outputs": [],
      "stateMutability": "nonpayable",
      "type": "function"
    },
    {
      "inputs": [],
      "name": "vrfCoordinator",
      "outputs": [
        {
          "internalType": "address",
          "name": "",
          "type": "address"
        }
      ],
      "stateMutability": "view",
      "type": "function",
      "constant": true
    },
    {
      "inputs": [
        {
          "internalType": "uint256",
          "name": "",
          "type": "uint256"
        }
      ],
      "name": "vrfRequests",
      "outputs": [
        {
          "internalType": "uint256",
          "name": "requestId",
          "type": "uint256"
        },
        {
          "internalType": "address",
          "name": "sender",
          "type": "address"
        },
        {
          "internalType": "uint8",
          "name": "amount",
          "type": "uint8"
        },
        {
          "internalType": "bool",
          "name": "stake",
          "type": "bool"
        }
      ],
      "stateMutability": "view",
      "type": "function",
      "constant": true
    },
    {
      "inputs": [
        {
          "internalType": "address",
          "name": "_vrfCoordinator",
          "type": "address"
        },
        {
          "internalType": "address",
          "name": "_link",
          "type": "address"
        },
        {
          "internalType": "bytes32",
          "name": "_keyHash",
          "type": "bytes32"
        },
        {
          "internalType": "uint64",
          "name": "_subscriptionId",
          "type": "uint64"
        },
        {
          "internalType": "uint16",
          "name": "_minConfirmations",
          "type": "uint16"
        },
        {
          "internalType": "uint32",
          "name": "_callbackGasLimit",
          "type": "uint32"
        }
      ],
      "name": "initialize",
      "outputs": [],
      "stateMutability": "nonpayable",
      "type": "function"
    },
    {
      "inputs": [
        {
          "internalType": "address",
          "name": "_vrfCoordinator",
          "type": "address"
        }
      ],
      "name": "initialize",
      "outputs": [],
      "stateMutability": "nonpayable",
      "type": "function"
    },
    {
      "inputs": [
        {
          "internalType": "address",
          "name": "sender",
          "type": "address"
        },
        {
          "internalType": "uint8",
          "name": "amount",
          "type": "uint8"
        },
        {
          "internalType": "bool",
          "name": "stake",
          "type": "bool"
        }
      ],
      "name": "requestRandomness",
      "outputs": [
        {
          "internalType": "uint256",
          "name": "requestId",
          "type": "uint256"
        }
      ],
      "stateMutability": "nonpayable",
      "type": "function"
    },
    {
      "inputs": [
        {
          "internalType": "address",
          "name": "_character",
          "type": "address"
        }
      ],
      "name": "setCharacter",
      "outputs": [],
      "stateMutability": "nonpayable",
      "type": "function"
    },
    {
      "inputs": [
        {
          "internalType": "address",
          "name": "_vrfCoordinator",
          "type": "address"
        },
        {
          "internalType": "address",
          "name": "_link",
          "type": "address"
        },
        {
          "internalType": "bytes32",
          "name": "_keyHash",
          "type": "bytes32"
        },
        {
          "internalType": "uint64",
          "name": "_subscriptionId",
          "type": "uint64"
        },
        {
          "internalType": "uint16",
          "name": "_minConfirmations",
          "type": "uint16"
        },
        {
          "internalType": "uint32",
          "name": "_callbackGasLimit",
          "type": "uint32"
        }
      ],
      "name": "setVrfParams",
      "outputs": [],
      "stateMutability": "nonpayable",
      "type": "function"
    },
    {
      "inputs": [
        {
          "internalType": "address",
          "name": "controller",
          "type": "address"
        }
      ],
      "name": "getController",
      "outputs": [
        {
          "internalType": "bool",
          "name": "",
          "type": "bool"
        }
      ],
      "stateMutability": "view",
      "type": "function",
      "constant": true
    },
    {
      "inputs": [
        {
          "internalType": "address",
          "name": "controller",
          "type": "address"
        }
      ],
      "name": "addController",
      "outputs": [],
      "stateMutability": "nonpayable",
      "type": "function"
    },
    {
      "inputs": [
        {
          "internalType": "address",
          "name": "controller",
          "type": "address"
        }
      ],
      "name": "removeController",
      "outputs": [],
      "stateMutability": "nonpayable",
      "type": "function"
    }
  ],
  "bytecode": "0x608060405234801561001057600080fd5b50612ec3806100206000396000f3fe608060405234801561001057600080fd5b50600436106101005760003560e01c80638da5cb5b11610097578063c4d66de811610066578063c4d66de81461029a578063d4c82c60146102b6578063f2fde38b146102e6578063f6a74ed71461030257610100565b80638da5cb5b14610212578063a1b8f37414610230578063a3e56fa814610260578063a7fc7a071461027e57610100565b806333df4b2c116100d357806333df4b2c1461018c5780635a9135da146101bc578063715018a6146101d857806388c662aa146101e257610100565b806303e91c1d146101055780631a1d9252146101215780631fe543e314610154578063204efe1714610170575b600080fd5b61011f600480360381019061011a9190611f28565b61031e565b005b61013b60048036038101906101369190611feb565b610985565b60405161014b949392919061206d565b60405180910390f35b61016e6004803603810190610169919061220b565b6109ef565b005b61018a60048036038101906101859190612267565b610ab3565b005b6101a660048036038101906101a19190612294565b610b73565b6040516101b391906122d4565b60405180910390f35b6101d660048036038101906101d19190611f28565b610bb9565b005b6101e0610d6e565b005b6101fc60048036038101906101f79190612267565b610df6565b60405161020991906122ef565b60405180910390f35b61021a610ec8565b604051610227919061230a565b60405180910390f35b61024a60048036038101906102459190611feb565b610ef2565b6040516102579190612325565b60405180910390f35b610268610f0a565b604051610275919061230a565b60405180910390f35b61029860048036038101906102939190612267565b610f30565b005b6102b460048036038101906102af9190612267565b611007565b005b6102d060048036038101906102cb9190612398565b61112d565b6040516102dd9190612325565b60405180910390f35b61030060048036038101906102fb9190612267565b611395565b005b61031c60048036038101906103179190612267565b61148d565b005b600060019054906101000a900460ff166103465760008054906101000a900460ff161561034f565b61034e611564565b5b61038e576040517f08c379a00000000000000000000000000000000000000000000000000000000081526004016103859061246e565b60405180910390fd5b60008060019054906101000a900460ff1615905080156103de576001600060016101000a81548160ff02191690831515021790555060016000806101000a81548160ff0219169083151502179055505b6103e6611575565b86606560006101000a81548173ffffffffffffffffffffffffffffffffffffffff021916908373ffffffffffffffffffffffffffffffffffffffff16021790555086607d60006101000a81548173ffffffffffffffffffffffffffffffffffffffff021916908373ffffffffffffffffffffffffffffffffffffffff16021790555085607e60006101000a81548173ffffffffffffffffffffffffffffffffffffffff021916908373ffffffffffffffffffffffffffffffffffffffff16021790555084607b8190555083607c60006101000a81548167ffffffffffffffff021916908367ffffffffffffffff16021790555082607c60086101000a81548161ffff021916908361ffff16021790555081607c600a6101000a81548163ffffffff021916908363ffffffff1602179055506040518060c0016040528060ff8016815260200160df60ff16815260200160bf60ff168152602001609f60ff168152602001607f60ff168152602001605f60ff1681525060666002601281106105705761056f61248e565b5b0190600661057f929190611bef565b5060405180610100016040528060ff8016815260200160df60ff16815260200160bf60ff168152602001609f60ff168152602001607f60ff168152602001605f60ff168152602001603f60ff168152602001601f60ff1681525060666003601281106105ee576105ed61248e565b5b019060086105fd929190611c96565b506040518060c0016040528060ff8016815260200160df60ff16815260200160bf60ff168152602001609f60ff168152602001607f60ff168152602001605f60ff1681525060666004601281106106575761065661248e565b5b01906006610666929190611bef565b506040518060c0016040528060ff8016815260200160cf60ff168152602001609f60ff168152602001606f60ff168152602001603f60ff168152602001600f60ff1681525060666005601281106106c0576106bf61248e565b5b019060066106cf929190611bef565b506040518060c0016040528060ff8016815260200160df60ff16815260200160bf60ff168152602001609f60ff168152602001607f60ff168152602001605f60ff1681525060666006601281106107295761072861248e565b5b01906006610738929190611bef565b506040518060c0016040528060ff8016815260200160df60ff16815260200160bf60ff168152602001609f60ff168152602001607f60ff168152602001605f60ff168152506066600c601281106107925761079161248e565b5b019060066107a1929190611bef565b5060405180610100016040528060ff8016815260200160df60ff16815260200160bf60ff168152602001609f60ff168152602001607f60ff168152602001605f60ff168152602001603f60ff168152602001601f60ff168152506066600d601281106108105761080f61248e565b5b0190600861081f929190611c96565b506040518060c0016040528060ff8016815260200160df60ff16815260200160bf60ff168152602001609f60ff168152602001607f60ff168152602001605f60ff168152506066600e601281106108795761087861248e565b5b01906006610888929190611bef565b506040518060c0016040528060ff8016815260200160cf60ff168152602001609f60ff168152602001606f60ff168152602001603f60ff168152602001600f60ff168152506066600f601281106108e2576108e161248e565b5b019060066108f1929190611bef565b506040518060c0016040528060ff8016815260200160df60ff16815260200160bf60ff168152602001609f60ff168152602001607f60ff168152602001605f60ff16815250606660106012811061094b5761094a61248e565b5b0190600661095a929190611bef565b50801561097c5760008060016101000a81548160ff0219169083151502179055505b50505050505050565b607f6020528060005260406000206000915090508060000154908060010160009054906101000a900473ffffffffffffffffffffffffffffffffffffffff16908060010160149054906101000a900460ff16908060010160159054906101000a900460ff16905084565b606560009054906101000a900473ffffffffffffffffffffffffffffffffffffffff1673ffffffffffffffffffffffffffffffffffffffff163373ffffffffffffffffffffffffffffffffffffffff1614610aa55733606560009054906101000a900473ffffffffffffffffffffffffffffffffffffffff166040517f1cf993f4000000000000000000000000000000000000000000000000000000008152600401610a9c9291906124bd565b60405180910390fd5b610aaf82826115d6565b5050565b610abb611737565b73ffffffffffffffffffffffffffffffffffffffff16610ad9610ec8565b73ffffffffffffffffffffffffffffffffffffffff1614610b2f576040517f08c379a0000000000000000000000000000000000000000000000000000000008152600401610b2690612532565b60405180910390fd5b80607a60006101000a81548173ffffffffffffffffffffffffffffffffffffffff021916908373ffffffffffffffffffffffffffffffffffffffff16021790555050565b60668260128110610b8357600080fd5b018181548110610b9257600080fd5b9060005260206000209060209182820401919006915091509054906101000a900460ff1681565b610bc1611737565b73ffffffffffffffffffffffffffffffffffffffff16610bdf610ec8565b73ffffffffffffffffffffffffffffffffffffffff1614610c35576040517f08c379a0000000000000000000000000000000000000000000000000000000008152600401610c2c90612532565b60405180910390fd5b85606560006101000a81548173ffffffffffffffffffffffffffffffffffffffff021916908373ffffffffffffffffffffffffffffffffffffffff16021790555085607d60006101000a81548173ffffffffffffffffffffffffffffffffffffffff021916908373ffffffffffffffffffffffffffffffffffffffff16021790555084607e60006101000a81548173ffffffffffffffffffffffffffffffffffffffff021916908373ffffffffffffffffffffffffffffffffffffffff16021790555083607b8190555082607c60006101000a81548167ffffffffffffffff021916908367ffffffffffffffff16021790555081607c60086101000a81548161ffff021916908361ffff16021790555080607c600a6101000a81548163ffffffff021916908363ffffffff160217905550505050505050565b610d76611737565b73ffffffffffffffffffffffffffffffffffffffff16610d94610ec8565b73ffffffffffffffffffffffffffffffffffffffff1614610dea576040517f08c379a0000000000000000000000000000000000000000000000000000000008152600401610de190612532565b60405180910390fd5b610df4600061173f565b565b6000610e00611737565b73ffffffffffffffffffffffffffffffffffffffff16610e1e610ec8565b73ffffffffffffffffffffffffffffffffffffffff1614610e74576040517f08c379a0000000000000000000000000000000000000000000000000000000008152600401610e6b90612532565b60405180910390fd5b607960008373ffffffffffffffffffffffffffffffffffffffff1673ffffffffffffffffffffffffffffffffffffffff16815260200190815260200160002060009054906101000a900460ff169050919050565b6000603360009054906101000a900473ffffffffffffffffffffffffffffffffffffffff16905090565b60786020528060005260406000206000915090505481565b606560009054906101000a900473ffffffffffffffffffffffffffffffffffffffff1681565b610f38611737565b73ffffffffffffffffffffffffffffffffffffffff16610f56610ec8565b73ffffffffffffffffffffffffffffffffffffffff1614610fac576040517f08c379a0000000000000000000000000000000000000000000000000000000008152600401610fa390612532565b60405180910390fd5b6001607960008373ffffffffffffffffffffffffffffffffffffffff1673ffffffffffffffffffffffffffffffffffffffff16815260200190815260200160002060006101000a81548160ff02191690831515021790555050565b600060019054906101000a900460ff1661102f5760008054906101000a900460ff1615611038565b611037611564565b5b611077576040517f08c379a000000000000000000000000000000000000000000000000000000000815260040161106e9061246e565b60405180910390fd5b60008060019054906101000a900460ff1615905080156110c7576001600060016101000a81548160ff02191690831515021790555060016000806101000a81548160ff0219169083151502179055505b81606560006101000a81548173ffffffffffffffffffffffffffffffffffffffff021916908373ffffffffffffffffffffffffffffffffffffffff16021790555080156111295760008060016101000a81548160ff0219169083151502179055505b5050565b60006079600061113b611737565b73ffffffffffffffffffffffffffffffffffffffff1673ffffffffffffffffffffffffffffffffffffffff16815260200190815260200160002060009054906101000a900460ff166111c2576040517f08c379a00000000000000000000000000000000000000000000000000000000081526004016111b9906125c4565b60405180910390fd5b607d60009054906101000a900473ffffffffffffffffffffffffffffffffffffffff1673ffffffffffffffffffffffffffffffffffffffff16635d3b1d30607b54607c60009054906101000a900467ffffffffffffffff16607c60089054906101000a900461ffff16607c600a9054906101000a900463ffffffff16886040518663ffffffff1660e01b815260040161125f95949392919061265b565b6020604051808303816000875af115801561127e573d6000803e3d6000fd5b505050506040513d601f19601f820116820180604052508101906112a291906126c3565b9050600060405180608001604052808381526020018673ffffffffffffffffffffffffffffffffffffffff1681526020018560ff168152602001841515815250905080607f60008481526020019081526020016000206000820151816000015560208201518160010160006101000a81548173ffffffffffffffffffffffffffffffffffffffff021916908373ffffffffffffffffffffffffffffffffffffffff16021790555060408201518160010160146101000a81548160ff021916908360ff16021790555060608201518160010160156101000a81548160ff021916908315150217905550905050509392505050565b61139d611737565b73ffffffffffffffffffffffffffffffffffffffff166113bb610ec8565b73ffffffffffffffffffffffffffffffffffffffff1614611411576040517f08c379a000000000000000000000000000000000000000000000000000000000815260040161140890612532565b60405180910390fd5b600073ffffffffffffffffffffffffffffffffffffffff168173ffffffffffffffffffffffffffffffffffffffff161415611481576040517f08c379a000000000000000000000000000000000000000000000000000000000815260040161147890612762565b60405180910390fd5b61148a8161173f565b50565b611495611737565b73ffffffffffffffffffffffffffffffffffffffff166114b3610ec8565b73ffffffffffffffffffffffffffffffffffffffff1614611509576040517f08c379a000000000000000000000000000000000000000000000000000000000815260040161150090612532565b60405180910390fd5b6000607960008373ffffffffffffffffffffffffffffffffffffffff1673ffffffffffffffffffffffffffffffffffffffff16815260200190815260200160002060006101000a81548160ff02191690831515021790555050565b600061156f30611805565b15905090565b600060019054906101000a900460ff166115c4576040517f08c379a00000000000000000000000000000000000000000000000000000000081526004016115bb906127f4565b60405180910390fd5b6115cc611818565b6115d4611869565b565b6000815167ffffffffffffffff8111156115f3576115f26120c8565b5b60405190808252806020026020018201604052801561162c57816020015b611619611d3d565b8152602001906001900390816116115790505b50905060005b82518110156116905761165f848483815181106116525761165161248e565b5b60200260200101516118ca565b8282815181106116725761167161248e565b5b6020026020010181905250808061168890612843565b915050611632565b50607a60009054906101000a900473ffffffffffffffffffffffffffffffffffffffff1673ffffffffffffffffffffffffffffffffffffffff16634988fcd9607f6000868152602001908152602001600020836040518363ffffffff1660e01b8152600401611700929190612b8c565b600060405180830381600087803b15801561171a57600080fd5b505af115801561172e573d6000803e3d6000fd5b50505050505050565b600033905090565b6000603360009054906101000a900473ffffffffffffffffffffffffffffffffffffffff16905081603360006101000a81548173ffffffffffffffffffffffffffffffffffffffff021916908373ffffffffffffffffffffffffffffffffffffffff1602179055508173ffffffffffffffffffffffffffffffffffffffff168173ffffffffffffffffffffffffffffffffffffffff167f8be0079c531659141344cd1fd0a4f28419497f9722a3daafe3b4186f6b6457e060405160405180910390a35050565b600080823b905060008111915050919050565b600060019054906101000a900460ff16611867576040517f08c379a000000000000000000000000000000000000000000000000000000000815260040161185e906127f4565b60405180910390fd5b565b600060019054906101000a900460ff166118b8576040517f08c379a00000000000000000000000000000000000000000000000000000000081526004016118af906127f4565b60405180910390fd5b6118c86118c3611737565b61173f565b565b6118d2611d3d565b6118db8261196d565b905060006118e882611ac6565b90506000607860008381526020019081526020016000205414156119245783607860008381526020019081526020016000208190555050611967565b611963846001856119359190612bbc565b6040516020016119459190612c11565b6040516020818303038152906040528051906020012060001c6118ca565b9150505b92915050565b611975611d3d565b6000600a61ffff84166119889190612c5b565b1415816000019015159081151581525050806000015115611a34576119ae826002611b29565b816020019060ff16908160ff16815250506119ca826003611b29565b816040019060ff16908160ff16815250506119e6826004611b29565b816080019060ff16908160ff1681525050611a02826005611b29565b8160a0019060ff16908160ff1681525050611a1e826006611b29565b8160c0019060ff16908160ff1681525050611ac1565b611a3f82600c611b29565b816020019060ff16908160ff1681525050611a5b82600d611b29565b816040019060ff16908160ff1681525050611a7782600e611b29565b816060019060ff16908160ff1681525050611a9382600f611b29565b8160a0019060ff16908160ff1681525050611aaf826010611b29565b8160e0019060ff16908160ff16815250505b919050565b6000816000015182602001518360400151846060015185608001518660a001518760c001518860e00151604051602001611b07989796959493929190612ceb565b604051602081830303815290604052611b1f90612dba565b60001c9050919050565b60006010600a83611b3a9190612e21565b611b449190612e52565b60ff1683901c9250600060668360ff1660128110611b6557611b6461248e565b5b018054905084611b759190612e21565b9050600060ff8516905060668460ff1660128110611b9657611b9561248e565b5b018260ff1681548110611bac57611bab61248e565b5b90600052602060002090602091828204019190069054906101000a900460ff1660ff168160ff1611611be2578192505050611be9565b6000925050505b92915050565b82805482825590600052602060002090601f01602090048101928215611c855791602002820160005b83821115611c5657835183826101000a81548160ff021916908360ff1602179055509260200192600101602081600001049283019260010302611c18565b8015611c835782816101000a81549060ff0219169055600101602081600001049283019260010302611c56565b505b509050611c929190611dad565b5090565b82805482825590600052602060002090601f01602090048101928215611d2c5791602002820160005b83821115611cfd57835183826101000a81548160ff021916908360ff1602179055509260200192600101602081600001049283019260010302611cbf565b8015611d2a5782816101000a81549060ff0219169055600101602081600001049283019260010302611cfd565b505b509050611d399190611dad565b5090565b604051806101400160405280600015158152602001600060ff168152602001600060ff168152602001600060ff168152602001600060ff168152602001600060ff168152602001600060ff168152602001600060ff168152602001600060ff168152602001600060ff1681525090565b5b80821115611dc6576000816000905550600101611dae565b5090565b6000604051905090565b600080fd5b600080fd5b600073ffffffffffffffffffffffffffffffffffffffff82169050919050565b6000611e0982611dde565b9050919050565b611e1981611dfe565b8114611e2457600080fd5b50565b600081359050611e3681611e10565b92915050565b6000819050919050565b611e4f81611e3c565b8114611e5a57600080fd5b50565b600081359050611e6c81611e46565b92915050565b600067ffffffffffffffff82169050919050565b611e8f81611e72565b8114611e9a57600080fd5b50565b600081359050611eac81611e86565b92915050565b600061ffff82169050919050565b611ec981611eb2565b8114611ed457600080fd5b50565b600081359050611ee681611ec0565b92915050565b600063ffffffff82169050919050565b611f0581611eec565b8114611f1057600080fd5b50565b600081359050611f2281611efc565b92915050565b60008060008060008060c08789031215611f4557611f44611dd4565b5b6000611f5389828a01611e27565b9650506020611f6489828a01611e27565b9550506040611f7589828a01611e5d565b9450506060611f8689828a01611e9d565b9350506080611f9789828a01611ed7565b92505060a0611fa889828a01611f13565b9150509295509295509295565b6000819050919050565b611fc881611fb5565b8114611fd357600080fd5b50565b600081359050611fe581611fbf565b92915050565b60006020828403121561200157612000611dd4565b5b600061200f84828501611fd6565b91505092915050565b61202181611fb5565b82525050565b61203081611dfe565b82525050565b600060ff82169050919050565b61204c81612036565b82525050565b60008115159050919050565b61206781612052565b82525050565b60006080820190506120826000830187612018565b61208f6020830186612027565b61209c6040830185612043565b6120a9606083018461205e565b95945050505050565b600080fd5b6000601f19601f8301169050919050565b7f4e487b7100000000000000000000000000000000000000000000000000000000600052604160045260246000fd5b612100826120b7565b810181811067ffffffffffffffff8211171561211f5761211e6120c8565b5b80604052505050565b6000612132611dca565b905061213e82826120f7565b919050565b600067ffffffffffffffff82111561215e5761215d6120c8565b5b602082029050602081019050919050565b600080fd5b600061218761218284612143565b612128565b905080838252602082019050602084028301858111156121aa576121a961216f565b5b835b818110156121d357806121bf8882611fd6565b8452602084019350506020810190506121ac565b5050509392505050565b600082601f8301126121f2576121f16120b2565b5b8135612202848260208601612174565b91505092915050565b6000806040838503121561222257612221611dd4565b5b600061223085828601611fd6565b925050602083013567ffffffffffffffff81111561225157612250611dd9565b5b61225d858286016121dd565b9150509250929050565b60006020828403121561227d5761227c611dd4565b5b600061228b84828501611e27565b91505092915050565b600080604083850312156122ab576122aa611dd4565b5b60006122b985828601611fd6565b92505060206122ca85828601611fd6565b9150509250929050565b60006020820190506122e96000830184612043565b92915050565b6000602082019050612304600083018461205e565b92915050565b600060208201905061231f6000830184612027565b92915050565b600060208201905061233a6000830184612018565b92915050565b61234981612036565b811461235457600080fd5b50565b60008135905061236681612340565b92915050565b61237581612052565b811461238057600080fd5b50565b6000813590506123928161236c565b92915050565b6000806000606084860312156123b1576123b0611dd4565b5b60006123bf86828701611e27565b93505060206123d086828701612357565b92505060406123e186828701612383565b9150509250925092565b600082825260208201905092915050565b7f496e697469616c697a61626c653a20636f6e747261637420697320616c72656160008201527f647920696e697469616c697a6564000000000000000000000000000000000000602082015250565b6000612458602e836123eb565b9150612463826123fc565b604082019050919050565b600060208201905081810360008301526124878161244b565b9050919050565b7f4e487b7100000000000000000000000000000000000000000000000000000000600052603260045260246000fd5b60006040820190506124d26000830185612027565b6124df6020830184612027565b9392505050565b7f4f776e61626c653a2063616c6c6572206973206e6f7420746865206f776e6572600082015250565b600061251c6020836123eb565b9150612527826124e6565b602082019050919050565b6000602082019050818103600083015261254b8161250f565b9050919050565b7f4f6e6c7920636f6e74726f6c6c6572732063616e20726571756573742072616e60008201527f646f6d6e65737300000000000000000000000000000000000000000000000000602082015250565b60006125ae6027836123eb565b91506125b982612552565b604082019050919050565b600060208201905081810360008301526125dd816125a1565b9050919050565b6125ed81611e3c565b82525050565b6125fc81611e72565b82525050565b61260b81611eb2565b82525050565b61261a81611eec565b82525050565b6000819050919050565b600061264561264061263b84612036565b612620565b611eec565b9050919050565b6126558161262a565b82525050565b600060a08201905061267060008301886125e4565b61267d60208301876125f3565b61268a6040830186612602565b6126976060830185612611565b6126a4608083018461264c565b9695505050505050565b6000815190506126bd81611fbf565b92915050565b6000602082840312156126d9576126d8611dd4565b5b60006126e7848285016126ae565b91505092915050565b7f4f776e61626c653a206e6577206f776e657220697320746865207a65726f206160008201527f6464726573730000000000000000000000000000000000000000000000000000602082015250565b600061274c6026836123eb565b9150612757826126f0565b604082019050919050565b6000602082019050818103600083015261277b8161273f565b9050919050565b7f496e697469616c697a61626c653a20636f6e7472616374206973206e6f74206960008201527f6e697469616c697a696e67000000000000000000000000000000000000000000602082015250565b60006127de602b836123eb565b91506127e982612782565b604082019050919050565b6000602082019050818103600083015261280d816127d1565b9050919050565b7f4e487b7100000000000000000000000000000000000000000000000000000000600052601160045260246000fd5b600061284e82611fb5565b91507fffffffffffffffffffffffffffffffffffffffffffffffffffffffffffffffff82141561288157612880612814565b5b600182019050919050565b60008160001c9050919050565b6000819050919050565b60006128b66128b18361288c565b612899565b9050919050565b6128c681611fb5565b82525050565b600073ffffffffffffffffffffffffffffffffffffffff82169050919050565b60006128ff6128fa8361288c565b6128cc565b9050919050565b61290f81611dfe565b82525050565b60008160a01c9050919050565b600060ff82169050919050565b600061294261293d83612915565b612922565b9050919050565b61295281612036565b82525050565b60008160a81c9050919050565b600060ff82169050919050565b600061298561298083612958565b612965565b9050919050565b61299581612052565b82525050565b6080820160008083015490506129b0816128a3565b6129bd60008601826128bd565b50600183015490506129ce816128ec565b6129db6020860182612906565b506129e58161292f565b6129f26040860182612949565b506129fc81612972565b612a09606086018261298c565b5050505050565b600081519050919050565b600082825260208201905092915050565b6000819050602082019050919050565b61014082016000820151612a53600085018261298c565b506020820151612a666020850182612949565b506040820151612a796040850182612949565b506060820151612a8c6060850182612949565b506080820151612a9f6080850182612949565b5060a0820151612ab260a0850182612949565b5060c0820151612ac560c0850182612949565b5060e0820151612ad860e0850182612949565b50610100820151612aed610100850182612949565b50610120820151612b02610120850182612949565b50505050565b6000612b148383612a3c565b6101408301905092915050565b6000602082019050919050565b6000612b3982612a10565b612b438185612a1b565b9350612b4e83612a2c565b8060005b83811015612b7f578151612b668882612b08565b9750612b7183612b21565b925050600181019050612b52565b5085935050505092915050565b600060a082019050612ba1600083018561299b565b8181036080830152612bb38184612b2e565b90509392505050565b6000612bc782611fb5565b9150612bd283611fb5565b925082821015612be557612be4612814565b5b828203905092915050565b6000819050919050565b612c0b612c0682611fb5565b612bf0565b82525050565b6000612c1d8284612bfa565b60208201915081905092915050565b7f4e487b7100000000000000000000000000000000000000000000000000000000600052601260045260246000fd5b6000612c6682611fb5565b9150612c7183611fb5565b925082612c8157612c80612c2c565b5b828206905092915050565b60008160f81b9050919050565b6000612ca482612c8c565b9050919050565b6000612cb682612c99565b9050919050565b612cce612cc982612052565b612cab565b82525050565b612ce5612ce082612036565b612c99565b82525050565b6000612cf7828b612cbd565b600182019150612d07828a612cd4565b600182019150612d178289612cd4565b600182019150612d278288612cd4565b600182019150612d378287612cd4565b600182019150612d478286612cd4565b600182019150612d578285612cd4565b600182019150612d678284612cd4565b6001820191508190509998505050505050505050565b600081519050919050565b6000819050602082019050919050565b6000612da48251611e3c565b80915050919050565b600082821b905092915050565b6000612dc582612d7d565b82612dcf84612d88565b9050612dda81612d98565b92506020821015612e1a57612e157fffffffffffffffffffffffffffffffffffffffffffffffffffffffffffffffff83602003600802612dad565b831692505b5050919050565b6000612e2c82612036565b9150612e3783612036565b925082612e4757612e46612c2c565b5b828206905092915050565b6000612e5d82612036565b9150612e6883612036565b92508160ff0483118215151615612e8257612e81612814565b5b82820290509291505056fea2646970667358221220450e7303f7f2a6350071a25e8c1067ebe26d98ddb81a2b9fd1e6717672891f8664736f6c634300080a0033",
  "immutableReferences": {},
  "source": "// SPDX-License-Identifier: MIT\n\npragma solidity ^0.8.0;\n\nimport \"@openzeppelin/contracts-upgradeable/proxy/utils/Initializable.sol\";\nimport \"@openzeppelin/contracts-upgradeable/access/OwnableUpgradeable.sol\";\nimport \"@openzeppelin/contracts-upgradeable/token/ERC721/ERC721Upgradeable.sol\";\nimport \"@chainlink/contracts/src/v0.8/interfaces/LinkTokenInterface.sol\";\nimport \"@chainlink/contracts/src/v0.8/interfaces/VRFCoordinatorV2Interface.sol\";\nimport \"./VRFConsumer.sol\";\nimport \"./IMint.sol\";\nimport \"./ICharacter.sol\";\n\ncontract Mint is Initializable, OwnableUpgradeable, IMint, VRFConsumer {\n  uint8[][18] public rarities; // List of probabilities for each trait type, 0 - 9 are associated with Chefs, 10 - 18 are associated with Rats\n  mapping(uint256 => uint256) public existingCombinations; // Mapping from hashed(tokenTrait) to the tokenId it's associated with, used to ensure there are no duplicates\n  mapping(address => bool) controllers; // Mapping from an address to whether or not it can mint / burn\n\n  ICharacter character; // Reference to the Character\n  bytes32 keyHash; // Key Hash gas lane\n  uint64 subscriptionId; // Your subscription ID\n  uint16 minConfirmations; // The default is 3, but you can set this higher\n  uint32 callbackGasLimit; // A word costs abount 20,000 gas\n  VRFCoordinatorV2Interface coordinator; // Coordinator interface\n  LinkTokenInterface link; // Reference to $LINK Token contract\n  mapping(uint256 => VRFStruct) public vrfRequests; // Mapping from tokenId to a struct containing the token's traits\n\n  function initialize(\n    address _vrfCoordinator,\n    address _link,\n    bytes32 _keyHash,\n    uint64 _subscriptionId,\n    uint16 _minConfirmations,\n    uint32 _callbackGasLimit\n  ) external initializer {\n    __Ownable_init();\n\n    vrfCoordinator = _vrfCoordinator;\n    coordinator = VRFCoordinatorV2Interface(_vrfCoordinator);\n    link = LinkTokenInterface(_link);\n    keyHash = _keyHash;\n    subscriptionId = _subscriptionId;\n    minConfirmations = _minConfirmations;\n    callbackGasLimit = _callbackGasLimit;\n\n    // Chefs\n    rarities[2] = [255, 223, 191, 159, 127, 95]; // hat\n    rarities[3] = [255, 223, 191, 159, 127, 95, 63, 31]; // eyes\n    rarities[4] = [255, 223, 191, 159, 127, 95]; // mouth\n    rarities[5] = [255, 207, 159, 111, 63, 15]; // neck\n    rarities[6] = [255, 223, 191, 159, 127, 95]; // hand\n    // Rats\n    rarities[12] = [255, 223, 191, 159, 127, 95]; // hat\n    rarities[13] = [255, 223, 191, 159, 127, 95, 63, 31]; // eyes\n    rarities[14] = [255, 223, 191, 159, 127, 95]; // piercing\n    rarities[15] = [255, 207, 159, 111, 63, 15]; // neck\n    rarities[16] = [255, 223, 191, 159, 127, 95]; // tail\n  }\n\n  function requestRandomness(address sender, uint8 amount, bool stake) external returns (uint256 requestId) {\n    require(controllers[_msgSender()], \"Only controllers can request randomness\");\n    requestId = coordinator.requestRandomWords(keyHash, subscriptionId, minConfirmations, callbackGasLimit, amount);\n    VRFStruct memory v = VRFStruct({ requestId: requestId, sender: sender, amount: amount, stake: stake });\n    vrfRequests[requestId] = v;\n  }\n\n  function fulfillRandomWords(uint256 requestId, uint256[] memory randomWords) internal override {\n    ICharacter.CharacterStruct[] memory tokens = new ICharacter.CharacterStruct[](randomWords.length);\n\n    for (uint i = 0; i < randomWords.length; i++) {\n      tokens[i] = generate(requestId, randomWords[i]);\n    }\n\n    character.fulfillMint(vrfRequests[requestId], tokens);\n  }\n\n  /**\n   * Generates traits for a specific token, checking to make sure it's unique\n   * @param requestId - A VRF request ID\n   * @param seed - A VRF seed\n   * @return t - A struct of traits for the given token ID\n   */\n  function generate(uint256 requestId, uint256 seed) internal returns (ICharacter.CharacterStruct memory t) {\n    t = selectTraits(seed);\n    uint256 hash = structToHash(t);\n    if (existingCombinations[hash] == 0) {\n      existingCombinations[hash] = requestId;\n      return t;\n    }\n    return generate(requestId, uint256(keccak256(abi.encodePacked(seed - 1))));\n  }\n\n  /**\n   * Selects the species and all of its traits based on the seed value\n   * @param seed - A pseudorandom 256 bit number to derive traits from\n   * @return t -  A struct of randomly selected traits\n   */\n  function selectTraits(uint256 seed) internal view returns (ICharacter.CharacterStruct memory t) {\n    t.isChef = (seed & 0xFFFF) % 10 != 0;\n    if (t.isChef) {\n      t.hat = selectTrait(seed, 2);\n      t.eyes = selectTrait(seed, 3);\n      t.mouth = selectTrait(seed, 4);\n      t.neck = selectTrait(seed, 5);\n      t.hand = selectTrait(seed, 6);\n    } else {\n      t.hat = selectTrait(seed, 12);\n      t.eyes = selectTrait(seed, 13);\n      t.piercing = selectTrait(seed, 14);\n      t.neck = selectTrait(seed, 15);\n      t.tail = selectTrait(seed, 16);\n    }\n    return t;\n  }\n\n  /**\n   * Uses A.J. Walker's Alias algorithm for O(1) rarity table lookup\n   * ensuring O(1) instead of O(n) reduces mint cost by more than 50%\n   * probability & alias tables are generated off-chain beforehand\n   * @param seed - Portion of the 256 bit seed to remove trait correlation\n   * @param traitIndex - The trait index to select a trait for\n   * @return The ID of the randomly selected trait\n   */\n  function selectTrait(uint256 seed, uint8 traitIndex) internal view returns (uint8) {\n    seed = seed >>= (traitIndex % 10 * 16);\n    uint8 trait = uint8(seed) % uint8(rarities[traitIndex].length); // Selected trait index\n    uint8 rand = uint8(seed & 0xFFFF >> 8); // Random integer from 0 to 255\n    if (rand <= rarities[traitIndex][trait]) return trait;\n    return 0;\n  }\n\n  /**\n   * Converts a struct to a 256 bit hash to check for uniqueness\n   * @param s - The struct to pack into a hash\n   * @return The 256 bit hash of the struct\n   */\n  function structToHash(ICharacter.CharacterStruct memory s) internal pure returns (uint256) {\n    return uint256(bytes32(\n      abi.encodePacked(\n        s.isChef,\n        s.hat,\n        s.eyes,\n        s.piercing,\n        s.mouth,\n        s.neck,\n        s.hand,\n        s.tail\n      )\n    ));\n  }\n\n  /**\n   * Set the character address\n   * @param _character - The address of the Character\n   */\n  function setCharacter(address _character) external onlyOwner {\n    character = ICharacter(_character);\n  }\n\n  /**\n   * Set ChainLink VRF params\n   */\n  function setVrfParams(\n    address _vrfCoordinator,\n    address _link,\n    bytes32 _keyHash,\n    uint64 _subscriptionId,\n    uint16 _minConfirmations,\n    uint32 _callbackGasLimit\n  ) external onlyOwner {\n    vrfCoordinator = _vrfCoordinator;\n    coordinator = VRFCoordinatorV2Interface(_vrfCoordinator);\n    link = LinkTokenInterface(_link);\n    keyHash = _keyHash;\n    subscriptionId = _subscriptionId;\n    minConfirmations = _minConfirmations;\n    callbackGasLimit = _callbackGasLimit;\n  }\n\n  /**\n   * Gets controller status by address\n   * @param controller the address to check\n   */\n  function getController(address controller) external view onlyOwner returns (bool) {\n    return controllers[controller];\n  }\n\n  /**\n   * Enables an address to mint / burn\n   * @param controller the address to enable\n   */\n  function addController(address controller) external onlyOwner {\n    controllers[controller] = true;\n  }\n\n  /**\n   * Disables an address from minting / burning\n   * @param controller the address to disable\n   */\n  function removeController(address controller) external onlyOwner {\n    controllers[controller] = false;\n  }\n}\n",
  "sourcePath": "/Users/chris/workspace/ratalert/ratalert-contracts/contracts/Mint.sol",
  "compiler": {
    "name": "solc",
    "version": "0.8.10+commit.fc410830.Emscripten.clang"
  },
  "schemaVersion": "3.4.5",
  "updatedAt": "2022-02-28T14:42:23.129Z",
  "networkType": "ethereum",
  "devdoc": {
    "kind": "dev",
    "methods": {
      "addController(address)": {
        "params": {
          "controller": "the address to enable"
        }
      },
      "getController(address)": {
        "params": {
          "controller": "the address to check"
        }
      },
      "initialize(address)": {
        "params": {
          "_vrfCoordinator": "- Address of VRFCoordinator contract"
        }
      },
      "owner()": {
        "details": "Returns the address of the current owner."
      },
      "rawFulfillRandomWords(uint256,uint256[])": {
        "params": {
          "randomWords": "the VRF output expanded to the requested number of words",
          "requestId": "The Id initially returned by requestRandomness"
        }
      },
      "removeController(address)": {
        "params": {
          "controller": "the address to disable"
        }
      },
      "renounceOwnership()": {
        "details": "Leaves the contract without owner. It will not be possible to call `onlyOwner` functions anymore. Can only be called by the current owner. NOTE: Renouncing ownership will leave the contract without an owner, thereby removing any functionality that is only available to the owner."
      },
      "setCharacter(address)": {
        "params": {
          "_character": "- The address of the Character"
        }
      },
      "transferOwnership(address)": {
        "details": "Transfers ownership of the contract to a new account (`newOwner`). Can only be called by the current owner."
      }
    },
    "version": 1
  },
  "userdoc": {
    "kind": "user",
    "methods": {
      "addController(address)": {
        "notice": "Enables an address to mint / burn"
      },
      "getController(address)": {
        "notice": "Gets controller status by address"
      },
      "removeController(address)": {
        "notice": "Disables an address from minting / burning"
      },
      "setCharacter(address)": {
        "notice": "Set the character address"
      },
      "setVrfParams(address,address,bytes32,uint64,uint16,uint32)": {
        "notice": "Set ChainLink VRF params"
      }
    },
    "version": 1
  }
}