{
  "contractName": "Mint",
  "abi": [
    {
      "anonymous": false,
      "inputs": [
        {
          "indexed": true,
          "internalType": "address",
          "name": "previousOwner",
          "type": "address"
        },
        {
          "indexed": true,
          "internalType": "address",
          "name": "newOwner",
          "type": "address"
        }
      ],
      "name": "OwnershipTransferred",
      "type": "event"
    },
    {
      "anonymous": false,
      "inputs": [
        {
          "indexed": false,
          "internalType": "bytes32",
          "name": "requestId",
          "type": "bytes32"
        },
        {
          "indexed": false,
          "internalType": "address",
          "name": "sender",
          "type": "address"
        }
      ],
      "name": "RandomNumberFulfilled",
      "type": "event"
    },
    {
      "anonymous": false,
      "inputs": [
        {
          "indexed": false,
          "internalType": "bytes32",
          "name": "requestId",
          "type": "bytes32"
        },
        {
          "indexed": false,
          "internalType": "address",
          "name": "sender",
          "type": "address"
        }
      ],
      "name": "RandomNumberRequested",
      "type": "event"
    },
    {
      "anonymous": false,
      "inputs": [
        {
          "indexed": true,
          "internalType": "address",
          "name": "from",
          "type": "address"
        },
        {
          "indexed": true,
          "internalType": "address",
          "name": "to",
          "type": "address"
        },
        {
          "indexed": true,
          "internalType": "uint256",
          "name": "tokenId",
          "type": "uint256"
        }
      ],
      "name": "Transfer",
      "type": "event"
    },
    {
      "inputs": [
        {
          "internalType": "address[]",
          "name": "_controllers",
          "type": "address[]"
        }
      ],
      "name": "addController",
      "outputs": [],
      "stateMutability": "nonpayable",
      "type": "function"
    },
    {
      "inputs": [
        {
          "internalType": "address",
          "name": "_controller",
          "type": "address"
        }
      ],
      "name": "controller",
      "outputs": [
        {
          "internalType": "bool",
          "name": "",
          "type": "bool"
        }
      ],
      "stateMutability": "view",
      "type": "function",
      "constant": true
    },
    {
      "inputs": [
        {
          "internalType": "uint256",
          "name": "",
          "type": "uint256"
        }
      ],
      "name": "existingCombinations",
      "outputs": [
        {
          "internalType": "bytes32",
          "name": "",
          "type": "bytes32"
        }
      ],
      "stateMutability": "view",
      "type": "function",
      "constant": true
    },
    {
      "inputs": [],
      "name": "owner",
      "outputs": [
        {
          "internalType": "address",
          "name": "",
          "type": "address"
        }
      ],
      "stateMutability": "view",
      "type": "function",
      "constant": true
    },
    {
      "inputs": [
        {
          "internalType": "uint256",
          "name": "",
          "type": "uint256"
        },
        {
          "internalType": "uint256",
          "name": "",
          "type": "uint256"
        }
      ],
      "name": "rarities",
      "outputs": [
        {
          "internalType": "uint8",
          "name": "",
          "type": "uint8"
        }
      ],
      "stateMutability": "view",
      "type": "function",
      "constant": true
    },
    {
      "inputs": [
        {
          "internalType": "bytes32",
          "name": "requestId",
          "type": "bytes32"
        },
        {
          "internalType": "uint256",
          "name": "randomness",
          "type": "uint256"
        }
      ],
      "name": "rawFulfillRandomness",
      "outputs": [],
      "stateMutability": "nonpayable",
      "type": "function"
    },
    {
      "inputs": [
        {
          "internalType": "address[]",
          "name": "_controllers",
          "type": "address[]"
        }
      ],
      "name": "removeController",
      "outputs": [],
      "stateMutability": "nonpayable",
      "type": "function"
    },
    {
      "inputs": [],
      "name": "renounceOwnership",
      "outputs": [],
      "stateMutability": "nonpayable",
      "type": "function"
    },
    {
      "inputs": [
        {
          "internalType": "address",
          "name": "newOwner",
          "type": "address"
        }
      ],
      "name": "transferOwnership",
      "outputs": [],
      "stateMutability": "nonpayable",
      "type": "function"
    },
    {
      "inputs": [
        {
          "internalType": "bytes32",
          "name": "",
          "type": "bytes32"
        }
      ],
      "name": "vrfRequests",
      "outputs": [
        {
          "internalType": "bytes32",
          "name": "requestId",
          "type": "bytes32"
        },
        {
          "internalType": "address",
          "name": "sender",
          "type": "address"
        },
        {
          "internalType": "uint8",
          "name": "amount",
          "type": "uint8"
        },
        {
          "internalType": "bool",
          "name": "stake",
          "type": "bool"
        },
        {
          "internalType": "int8",
          "name": "boost",
          "type": "int8"
        }
      ],
      "stateMutability": "view",
      "type": "function",
      "constant": true
    },
    {
      "inputs": [
        {
          "internalType": "uint256",
          "name": "amount",
          "type": "uint256"
        }
      ],
      "name": "withdrawLink",
      "outputs": [
        {
          "internalType": "bool",
          "name": "success",
          "type": "bool"
        }
      ],
      "stateMutability": "nonpayable",
      "type": "function"
    },
    {
      "inputs": [
        {
          "internalType": "address",
          "name": "_vrfCoordinator",
          "type": "address"
        },
        {
          "internalType": "address",
          "name": "_link",
          "type": "address"
        },
        {
          "internalType": "bytes32",
          "name": "_keyHash",
          "type": "bytes32"
        },
        {
          "internalType": "uint256",
          "name": "_fee",
          "type": "uint256"
        }
      ],
      "name": "initialize",
      "outputs": [],
      "stateMutability": "nonpayable",
      "type": "function"
    },
    {
      "inputs": [
        {
          "internalType": "address",
          "name": "_vrfCoordinator",
          "type": "address"
        },
        {
          "internalType": "address",
          "name": "_link",
          "type": "address"
        }
      ],
      "name": "initialize",
      "outputs": [],
      "stateMutability": "nonpayable",
      "type": "function"
    },
    {
      "inputs": [
        {
          "internalType": "address",
          "name": "_vrfCoordinator",
          "type": "address"
        },
        {
          "internalType": "address",
          "name": "_link",
          "type": "address"
        },
        {
          "internalType": "bytes32",
          "name": "_keyHash",
          "type": "bytes32"
        },
        {
          "internalType": "uint256",
          "name": "_fee",
          "type": "uint256"
        }
      ],
      "name": "setVrfParams",
      "outputs": [],
      "stateMutability": "nonpayable",
      "type": "function"
    },
    {
      "inputs": [
        {
          "internalType": "address",
          "name": "sender",
          "type": "address"
        },
        {
          "internalType": "uint8",
          "name": "amount",
          "type": "uint8"
        },
        {
          "internalType": "bool",
          "name": "stake",
          "type": "bool"
        },
        {
          "internalType": "int8",
          "name": "boost",
          "type": "int8"
        }
      ],
      "name": "requestRandomNumber",
      "outputs": [
        {
          "internalType": "bytes32",
          "name": "requestId",
          "type": "bytes32"
        }
      ],
      "stateMutability": "nonpayable",
      "type": "function"
    },
    {
      "inputs": [
        {
          "internalType": "bytes32",
          "name": "requestId",
          "type": "bytes32"
        }
      ],
      "name": "getVrfRequest",
      "outputs": [
        {
          "components": [
            {
              "internalType": "bytes32",
              "name": "requestId",
              "type": "bytes32"
            },
            {
              "internalType": "address",
              "name": "sender",
              "type": "address"
            },
            {
              "internalType": "uint8",
              "name": "amount",
              "type": "uint8"
            },
            {
              "internalType": "bool",
              "name": "stake",
              "type": "bool"
            },
            {
              "internalType": "int8",
              "name": "boost",
              "type": "int8"
            }
          ],
          "internalType": "struct IMint.VRFStruct",
          "name": "",
          "type": "tuple"
        }
      ],
      "stateMutability": "view",
      "type": "function",
      "constant": true
    },
    {
      "inputs": [
        {
          "internalType": "address",
          "name": "_character",
          "type": "address"
        }
      ],
      "name": "setCharacter",
      "outputs": [],
      "stateMutability": "nonpayable",
      "type": "function"
    }
  ],
  "bytecode": "0x608060405234801561001057600080fd5b5061374a806100206000396000f3fe608060405234801561001057600080fd5b506004361061010b5760003560e01c80638da5cb5b116100a2578063a83a720211610071578063a83a7202146102a0578063c13aa7b5146102bc578063dec04e5f146102ec578063e8ff04a114610320578063f2fde38b146103505761010b565b80638da5cb5b1461021a57806392c405b61461023857806394985ddd14610254578063a1b8f374146102705761010b565b8063485cc955116100de578063485cc95514610194578063715018a6146101b05780637a8042bd146101ba5780637f10b5ab146101ea5761010b565b8063204efe1714610110578063277a23891461012c57806333df4b2c146101485780633d6b06cc14610178575b600080fd5b61012a60048036038101906101259190612479565b61036c565b005b61014660048036038101906101419190612512565b61042c565b005b610162600480360381019061015d9190612579565b6109f0565b60405161016f91906125d5565b60405180910390f35b610192600480360381019061018d9190612512565b610a36565b005b6101ae60048036038101906101a991906125f0565b610b48565b005b6101b8610cb0565b005b6101d460048036038101906101cf9190612630565b610d38565b6040516101e19190612678565b60405180910390f35b61020460048036038101906101ff9190612693565b610e64565b6040516102119190612780565b60405180910390f35b610222610f46565b60405161022f91906127aa565b60405180910390f35b610252600480360381019061024d919061291e565b610f70565b005b61026e60048036038101906102699190612967565b611081565b005b61028a60048036038101906102859190612630565b61111f565b60405161029791906129b6565b60405180910390f35b6102ba60048036038101906102b5919061291e565b611137565b005b6102d660048036038101906102d19190612479565b611248565b6040516102e39190612678565b60405180910390f35b61030660048036038101906103019190612693565b61131a565b6040516103179594939291906129e0565b60405180910390f35b61033a60048036038101906103359190612ab7565b611397565b60405161034791906129b6565b60405180910390f35b61036a60048036038101906103659190612479565b61166d565b005b610374611765565b73ffffffffffffffffffffffffffffffffffffffff16610392610f46565b73ffffffffffffffffffffffffffffffffffffffff16146103e8576040517f08c379a00000000000000000000000000000000000000000000000000000000081526004016103df90612b7b565b60405180910390fd5b80607c60006101000a81548173ffffffffffffffffffffffffffffffffffffffff021916908373ffffffffffffffffffffffffffffffffffffffff16021790555050565b600060019054906101000a900460ff166104545760008054906101000a900460ff161561045d565b61045c61176d565b5b61049c576040517f08c379a000000000000000000000000000000000000000000000000000000000815260040161049390612c0d565b60405180910390fd5b60008060019054906101000a900460ff1615905080156104ec576001600060016101000a81548160ff02191690831515021790555060016000806101000a81548160ff0219169083151502179055505b6104f461177e565b84606660006101000a81548173ffffffffffffffffffffffffffffffffffffffff021916908373ffffffffffffffffffffffffffffffffffffffff16021790555083606560006101000a81548173ffffffffffffffffffffffffffffffffffffffff021916908373ffffffffffffffffffffffffffffffffffffffff16021790555082607d8190555081607e819055506040518060c0016040528060ff8016815260200160df60ff16815260200160bf60ff168152602001609f60ff168152602001607f60ff168152602001605f60ff1681525060696002601281106105dd576105dc612c2d565b5b019060066105ec9291906121d4565b5060405180610100016040528060ff8016815260200160df60ff16815260200160bf60ff168152602001609f60ff168152602001607f60ff168152602001605f60ff168152602001603f60ff168152602001601f60ff16815250606960036012811061065b5761065a612c2d565b5b0190600861066a92919061227b565b506040518060c0016040528060ff8016815260200160df60ff16815260200160bf60ff168152602001609f60ff168152602001607f60ff168152602001605f60ff1681525060696004601281106106c4576106c3612c2d565b5b019060066106d39291906121d4565b506040518060c0016040528060ff8016815260200160cf60ff168152602001609f60ff168152602001606f60ff168152602001603f60ff168152602001600f60ff16815250606960056012811061072d5761072c612c2d565b5b0190600661073c9291906121d4565b506040518060c0016040528060ff8016815260200160df60ff16815260200160bf60ff168152602001609f60ff168152602001607f60ff168152602001605f60ff16815250606960066012811061079657610795612c2d565b5b019060066107a59291906121d4565b506040518060c0016040528060ff8016815260200160df60ff16815260200160bf60ff168152602001609f60ff168152602001607f60ff168152602001605f60ff168152506069600c601281106107ff576107fe612c2d565b5b0190600661080e9291906121d4565b5060405180610100016040528060ff8016815260200160df60ff16815260200160bf60ff168152602001609f60ff168152602001607f60ff168152602001605f60ff168152602001603f60ff168152602001601f60ff168152506069600d6012811061087d5761087c612c2d565b5b0190600861088c92919061227b565b506040518060c0016040528060ff8016815260200160df60ff16815260200160bf60ff168152602001609f60ff168152602001607f60ff168152602001605f60ff168152506069600e601281106108e6576108e5612c2d565b5b019060066108f59291906121d4565b506040518060c0016040528060ff8016815260200160cf60ff168152602001609f60ff168152602001606f60ff168152602001603f60ff168152602001600f60ff168152506069600f6012811061094f5761094e612c2d565b5b0190600661095e9291906121d4565b506040518060c0016040528060ff8016815260200160df60ff16815260200160bf60ff168152602001609f60ff168152602001607f60ff168152602001605f60ff1681525060696010601281106109b8576109b7612c2d565b5b019060066109c79291906121d4565b5080156109e95760008060016101000a81548160ff0219169083151502179055505b5050505050565b60698260128110610a0057600080fd5b018181548110610a0f57600080fd5b9060005260206000209060209182820401919006915091509054906101000a900460ff1681565b610a3e611765565b73ffffffffffffffffffffffffffffffffffffffff16610a5c610f46565b73ffffffffffffffffffffffffffffffffffffffff1614610ab2576040517f08c379a0000000000000000000000000000000000000000000000000000000008152600401610aa990612b7b565b60405180910390fd5b83606660006101000a81548173ffffffffffffffffffffffffffffffffffffffff021916908373ffffffffffffffffffffffffffffffffffffffff16021790555082606560006101000a81548173ffffffffffffffffffffffffffffffffffffffff021916908373ffffffffffffffffffffffffffffffffffffffff16021790555081607d8190555080607e8190555050505050565b600060019054906101000a900460ff16610b705760008054906101000a900460ff1615610b79565b610b7861176d565b5b610bb8576040517f08c379a0000000000000000000000000000000000000000000000000000000008152600401610baf90612c0d565b60405180910390fd5b60008060019054906101000a900460ff161590508015610c08576001600060016101000a81548160ff02191690831515021790555060016000806101000a81548160ff0219169083151502179055505b82606660006101000a81548173ffffffffffffffffffffffffffffffffffffffff021916908373ffffffffffffffffffffffffffffffffffffffff16021790555081606560006101000a81548173ffffffffffffffffffffffffffffffffffffffff021916908373ffffffffffffffffffffffffffffffffffffffff1602179055508015610cab5760008060016101000a81548160ff0219169083151502179055505b505050565b610cb8611765565b73ffffffffffffffffffffffffffffffffffffffff16610cd6610f46565b73ffffffffffffffffffffffffffffffffffffffff1614610d2c576040517f08c379a0000000000000000000000000000000000000000000000000000000008152600401610d2390612b7b565b60405180910390fd5b610d3660006117df565b565b6000610d42611765565b73ffffffffffffffffffffffffffffffffffffffff16610d60610f46565b73ffffffffffffffffffffffffffffffffffffffff1614610db6576040517f08c379a0000000000000000000000000000000000000000000000000000000008152600401610dad90612b7b565b60405180910390fd5b606560009054906101000a900473ffffffffffffffffffffffffffffffffffffffff1673ffffffffffffffffffffffffffffffffffffffff1663a9059cbb610dfc611765565b846040518363ffffffff1660e01b8152600401610e1a929190612c6b565b6020604051808303816000875af1158015610e39573d6000803e3d6000fd5b505050506040513d601f19601f82011682018060405250810190610e5d9190612ca9565b9050919050565b610e6c612322565b607f60008381526020019081526020016000206040518060a0016040529081600082015481526020016001820160009054906101000a900473ffffffffffffffffffffffffffffffffffffffff1673ffffffffffffffffffffffffffffffffffffffff1673ffffffffffffffffffffffffffffffffffffffff1681526020016001820160149054906101000a900460ff1660ff1660ff1681526020016001820160159054906101000a900460ff161515151581526020016001820160169054906101000a900460000b60000b60000b815250509050919050565b6000603360009054906101000a900473ffffffffffffffffffffffffffffffffffffffff16905090565b610f78611765565b73ffffffffffffffffffffffffffffffffffffffff16610f96610f46565b73ffffffffffffffffffffffffffffffffffffffff1614610fec576040517f08c379a0000000000000000000000000000000000000000000000000000000008152600401610fe390612b7b565b60405180910390fd5b60005b815181101561107d5760006068600084848151811061101157611010612c2d565b5b602002602001015173ffffffffffffffffffffffffffffffffffffffff1673ffffffffffffffffffffffffffffffffffffffff16815260200190815260200160002060006101000a81548160ff021916908315150217905550808061107590612d05565b915050610fef565b5050565b606660009054906101000a900473ffffffffffffffffffffffffffffffffffffffff1673ffffffffffffffffffffffffffffffffffffffff163373ffffffffffffffffffffffffffffffffffffffff1614611111576040517f08c379a000000000000000000000000000000000000000000000000000000000815260040161110890612d9a565b60405180910390fd5b61111b82826118a5565b5050565b607b6020528060005260406000206000915090505481565b61113f611765565b73ffffffffffffffffffffffffffffffffffffffff1661115d610f46565b73ffffffffffffffffffffffffffffffffffffffff16146111b3576040517f08c379a00000000000000000000000000000000000000000000000000000000081526004016111aa90612b7b565b60405180910390fd5b60005b8151811015611244576001606860008484815181106111d8576111d7612c2d565b5b602002602001015173ffffffffffffffffffffffffffffffffffffffff1673ffffffffffffffffffffffffffffffffffffffff16815260200190815260200160002060006101000a81548160ff021916908315150217905550808061123c90612d05565b9150506111b6565b5050565b6000611252611765565b73ffffffffffffffffffffffffffffffffffffffff16611270610f46565b73ffffffffffffffffffffffffffffffffffffffff16146112c6576040517f08c379a00000000000000000000000000000000000000000000000000000000081526004016112bd90612b7b565b60405180910390fd5b606860008373ffffffffffffffffffffffffffffffffffffffff1673ffffffffffffffffffffffffffffffffffffffff16815260200190815260200160002060009054906101000a900460ff169050919050565b607f6020528060005260406000206000915090508060000154908060010160009054906101000a900473ffffffffffffffffffffffffffffffffffffffff16908060010160149054906101000a900460ff16908060010160159054906101000a900460ff16908060010160169054906101000a900460000b905085565b6000606860003373ffffffffffffffffffffffffffffffffffffffff1673ffffffffffffffffffffffffffffffffffffffff16815260200190815260200160002060009054906101000a900460ff16611425576040517f08c379a000000000000000000000000000000000000000000000000000000000815260040161141c90612e06565b60405180910390fd5b607e54606560009054906101000a900473ffffffffffffffffffffffffffffffffffffffff1673ffffffffffffffffffffffffffffffffffffffff166370a08231306040518263ffffffff1660e01b815260040161148391906127aa565b602060405180830381865afa1580156114a0573d6000803e3d6000fd5b505050506040513d601f19601f820116820180604052508101906114c49190612e3b565b1015611505576040517f08c379a00000000000000000000000000000000000000000000000000000000081526004016114fc90612eb4565b60405180910390fd5b611513607d54607e54611c22565b905060006040518060a001604052808381526020018773ffffffffffffffffffffffffffffffffffffffff1681526020018660ff16815260200185151581526020018460000b815250905080607f60008481526020019081526020016000206000820151816000015560208201518160010160006101000a81548173ffffffffffffffffffffffffffffffffffffffff021916908373ffffffffffffffffffffffffffffffffffffffff16021790555060408201518160010160146101000a81548160ff021916908360ff16021790555060608201518160010160156101000a81548160ff02191690831515021790555060808201518160010160166101000a81548160ff021916908360000b60ff1602179055509050507fa604c1d75d1d5480c3a226f3b59c2be444c037ab3cbc22c688fa02ddcaedd135828760405161165c929190612ed4565b60405180910390a150949350505050565b611675611765565b73ffffffffffffffffffffffffffffffffffffffff16611693610f46565b73ffffffffffffffffffffffffffffffffffffffff16146116e9576040517f08c379a00000000000000000000000000000000000000000000000000000000081526004016116e090612b7b565b60405180910390fd5b600073ffffffffffffffffffffffffffffffffffffffff168173ffffffffffffffffffffffffffffffffffffffff161415611759576040517f08c379a000000000000000000000000000000000000000000000000000000000815260040161175090612f6f565b60405180910390fd5b611762816117df565b50565b600033905090565b600061177830611d79565b15905090565b600060019054906101000a900460ff166117cd576040517f08c379a00000000000000000000000000000000000000000000000000000000081526004016117c490613001565b60405180910390fd5b6117d5611d8c565b6117dd611ddd565b565b6000603360009054906101000a900473ffffffffffffffffffffffffffffffffffffffff16905081603360006101000a81548173ffffffffffffffffffffffffffffffffffffffff021916908373ffffffffffffffffffffffffffffffffffffffff1602179055508173ffffffffffffffffffffffffffffffffffffffff168173ffffffffffffffffffffffffffffffffffffffff167f8be0079c531659141344cd1fd0a4f28419497f9722a3daafe3b4186f6b6457e060405160405180910390a35050565b6000607f60008481526020019081526020016000206040518060a0016040529081600082015481526020016001820160009054906101000a900473ffffffffffffffffffffffffffffffffffffffff1673ffffffffffffffffffffffffffffffffffffffff1673ffffffffffffffffffffffffffffffffffffffff1681526020016001820160149054906101000a900460ff1660ff1660ff1681526020016001820160159054906101000a900460ff161515151581526020016001820160169054906101000a900460000b60000b60000b8152505090506000801b816000015114156119c6576040517f08c379a00000000000000000000000000000000000000000000000000000000081526004016119bd9061306d565b60405180910390fd5b6000816040015160ff1667ffffffffffffffff8111156119e9576119e86127db565b5b604051908082528060200260200182016040528015611a2257816020015b611a0f612371565b815260200190600190039081611a075790505b50905060005b826040015160ff16811015611ace57611a6c858583604051602001611a4e92919061308d565b6040516020818303038152906040528051906020012060001c611e3e565b828281518110611a7f57611a7e612c2d565b5b60200260200101819052508260800151828281518110611aa257611aa1612c2d565b5b6020026020010151610140019060000b908160000b815250508080611ac690612d05565b915050611a28565b50607c60009054906101000a900473ffffffffffffffffffffffffffffffffffffffff1673ffffffffffffffffffffffffffffffffffffffff166344936bce85836040518363ffffffff1660e01b8152600401611b2c929190613247565b600060405180830381600087803b158015611b4657600080fd5b505af1158015611b5a573d6000803e3d6000fd5b50505050607f60008581526020019081526020016000206000808201600090556001820160006101000a81549073ffffffffffffffffffffffffffffffffffffffff02191690556001820160146101000a81549060ff02191690556001820160156101000a81549060ff02191690556001820160166101000a81549060ff021916905550507f697b04c8163be56dde69d35841ac4e03926065129a0340b2ef2199336f903971848360200151604051611c14929190612ed4565b60405180910390a150505050565b6000606560009054906101000a900473ffffffffffffffffffffffffffffffffffffffff1673ffffffffffffffffffffffffffffffffffffffff16634000aea0606660009054906101000a900473ffffffffffffffffffffffffffffffffffffffff1684866000604051602001611c9a929190613277565b6040516020818303038152906040526040518463ffffffff1660e01b8152600401611cc793929190613328565b6020604051808303816000875af1158015611ce6573d6000803e3d6000fd5b505050506040513d601f19601f82011682018060405250810190611d0a9190612ca9565b506000611d2d846000306067600089815260200190815260200160002054611ee3565b905060016067600086815260200190815260200160002054611d4f9190613366565b6067600086815260200190815260200160002081905550611d708482611f1f565b91505092915050565b600080823b905060008111915050919050565b600060019054906101000a900460ff16611ddb576040517f08c379a0000000000000000000000000000000000000000000000000000000008152600401611dd290613001565b60405180910390fd5b565b600060019054906101000a900460ff16611e2c576040517f08c379a0000000000000000000000000000000000000000000000000000000008152600401611e2390613001565b60405180910390fd5b611e3c611e37611765565b6117df565b565b611e46612371565b611e4f82611f52565b90506000611e5c826120ab565b90506000801b607b6000838152602001908152602001600020541415611e9a5783607b60008381526020019081526020016000208190555050611edd565b611ed984600185611eab91906133bc565b604051602001611ebb9190613411565b6040516020818303038152906040528051906020012060001c611e3e565b9150505b92915050565b600084848484604051602001611efc949392919061342c565b6040516020818303038152906040528051906020012060001c9050949350505050565b60008282604051602001611f34929190613492565b60405160208183030381529060405280519060200120905092915050565b611f5a612371565b6000600a61ffff8416611f6d91906134ed565b141581600001901515908115158152505080600001511561201957611f9382600261210e565b816020019060ff16908160ff1681525050611faf82600361210e565b816040019060ff16908160ff1681525050611fcb82600461210e565b816080019060ff16908160ff1681525050611fe782600561210e565b8160a0019060ff16908160ff168152505061200382600661210e565b8160c0019060ff16908160ff16815250506120a6565b61202482600c61210e565b816020019060ff16908160ff168152505061204082600d61210e565b816040019060ff16908160ff168152505061205c82600e61210e565b816060019060ff16908160ff168152505061207882600f61210e565b8160a0019060ff16908160ff168152505061209482601061210e565b8160e0019060ff16908160ff16815250505b919050565b6000816000015182602001518360400151846060015185608001518660a001518760c001518860e001516040516020016120ec98979695949392919061357d565b60405160208183030381529060405261210490613641565b60001c9050919050565b60006010600a8361211f91906136a8565b61212991906136d9565b60ff1683901c9250600060698360ff166012811061214a57612149612c2d565b5b01805490508461215a91906136a8565b9050600060ff8516905060698460ff166012811061217b5761217a612c2d565b5b018260ff168154811061219157612190612c2d565b5b90600052602060002090602091828204019190069054906101000a900460ff1660ff168160ff16116121c75781925050506121ce565b6000925050505b92915050565b82805482825590600052602060002090601f0160209004810192821561226a5791602002820160005b8382111561223b57835183826101000a81548160ff021916908360ff16021790555092602001926001016020816000010492830192600103026121fd565b80156122685782816101000a81549060ff021916905560010160208160000104928301926001030261223b565b505b50905061227791906123ea565b5090565b82805482825590600052602060002090601f016020900481019282156123115791602002820160005b838211156122e257835183826101000a81548160ff021916908360ff16021790555092602001926001016020816000010492830192600103026122a4565b801561230f5782816101000a81549060ff02191690556001016020816000010492830192600103026122e2565b505b50905061231e91906123ea565b5090565b6040518060a0016040528060008019168152602001600073ffffffffffffffffffffffffffffffffffffffff168152602001600060ff1681526020016000151581526020016000800b81525090565b604051806101600160405280600015158152602001600060ff168152602001600060ff168152602001600060ff168152602001600060ff168152602001600060ff168152602001600060ff168152602001600060ff168152602001600060ff168152602001600060ff1681526020016000800b81525090565b5b808211156124035760008160009055506001016123eb565b5090565b6000604051905090565b600080fd5b600080fd5b600073ffffffffffffffffffffffffffffffffffffffff82169050919050565b60006124468261241b565b9050919050565b6124568161243b565b811461246157600080fd5b50565b6000813590506124738161244d565b92915050565b60006020828403121561248f5761248e612411565b5b600061249d84828501612464565b91505092915050565b6000819050919050565b6124b9816124a6565b81146124c457600080fd5b50565b6000813590506124d6816124b0565b92915050565b6000819050919050565b6124ef816124dc565b81146124fa57600080fd5b50565b60008135905061250c816124e6565b92915050565b6000806000806080858703121561252c5761252b612411565b5b600061253a87828801612464565b945050602061254b87828801612464565b935050604061255c878288016124c7565b925050606061256d878288016124fd565b91505092959194509250565b600080604083850312156125905761258f612411565b5b600061259e858286016124fd565b92505060206125af858286016124fd565b9150509250929050565b600060ff82169050919050565b6125cf816125b9565b82525050565b60006020820190506125ea60008301846125c6565b92915050565b6000806040838503121561260757612606612411565b5b600061261585828601612464565b925050602061262685828601612464565b9150509250929050565b60006020828403121561264657612645612411565b5b6000612654848285016124fd565b91505092915050565b60008115159050919050565b6126728161265d565b82525050565b600060208201905061268d6000830184612669565b92915050565b6000602082840312156126a9576126a8612411565b5b60006126b7848285016124c7565b91505092915050565b6126c9816124a6565b82525050565b6126d88161243b565b82525050565b6126e7816125b9565b82525050565b6126f68161265d565b82525050565b60008160000b9050919050565b612712816126fc565b82525050565b60a08201600082015161272e60008501826126c0565b50602082015161274160208501826126cf565b50604082015161275460408501826126de565b50606082015161276760608501826126ed565b50608082015161277a6080850182612709565b50505050565b600060a0820190506127956000830184612718565b92915050565b6127a48161243b565b82525050565b60006020820190506127bf600083018461279b565b92915050565b600080fd5b6000601f19601f8301169050919050565b7f4e487b7100000000000000000000000000000000000000000000000000000000600052604160045260246000fd5b612813826127ca565b810181811067ffffffffffffffff82111715612832576128316127db565b5b80604052505050565b6000612845612407565b9050612851828261280a565b919050565b600067ffffffffffffffff821115612871576128706127db565b5b602082029050602081019050919050565b600080fd5b600061289a61289584612856565b61283b565b905080838252602082019050602084028301858111156128bd576128bc612882565b5b835b818110156128e657806128d28882612464565b8452602084019350506020810190506128bf565b5050509392505050565b600082601f830112612905576129046127c5565b5b8135612915848260208601612887565b91505092915050565b60006020828403121561293457612933612411565b5b600082013567ffffffffffffffff81111561295257612951612416565b5b61295e848285016128f0565b91505092915050565b6000806040838503121561297e5761297d612411565b5b600061298c858286016124c7565b925050602061299d858286016124fd565b9150509250929050565b6129b0816124a6565b82525050565b60006020820190506129cb60008301846129a7565b92915050565b6129da816126fc565b82525050565b600060a0820190506129f560008301886129a7565b612a02602083018761279b565b612a0f60408301866125c6565b612a1c6060830185612669565b612a2960808301846129d1565b9695505050505050565b612a3c816125b9565b8114612a4757600080fd5b50565b600081359050612a5981612a33565b92915050565b612a688161265d565b8114612a7357600080fd5b50565b600081359050612a8581612a5f565b92915050565b612a94816126fc565b8114612a9f57600080fd5b50565b600081359050612ab181612a8b565b92915050565b60008060008060808587031215612ad157612ad0612411565b5b6000612adf87828801612464565b9450506020612af087828801612a4a565b9350506040612b0187828801612a76565b9250506060612b1287828801612aa2565b91505092959194509250565b600082825260208201905092915050565b7f4f776e61626c653a2063616c6c6572206973206e6f7420746865206f776e6572600082015250565b6000612b65602083612b1e565b9150612b7082612b2f565b602082019050919050565b60006020820190508181036000830152612b9481612b58565b9050919050565b7f496e697469616c697a61626c653a20636f6e747261637420697320616c72656160008201527f647920696e697469616c697a6564000000000000000000000000000000000000602082015250565b6000612bf7602e83612b1e565b9150612c0282612b9b565b604082019050919050565b60006020820190508181036000830152612c2681612bea565b9050919050565b7f4e487b7100000000000000000000000000000000000000000000000000000000600052603260045260246000fd5b612c65816124dc565b82525050565b6000604082019050612c80600083018561279b565b612c8d6020830184612c5c565b9392505050565b600081519050612ca381612a5f565b92915050565b600060208284031215612cbf57612cbe612411565b5b6000612ccd84828501612c94565b91505092915050565b7f4e487b7100000000000000000000000000000000000000000000000000000000600052601160045260246000fd5b6000612d10826124dc565b91507fffffffffffffffffffffffffffffffffffffffffffffffffffffffffffffffff821415612d4357612d42612cd6565b5b600182019050919050565b7f4f6e6c7920565246436f6f7264696e61746f722063616e2066756c66696c6c00600082015250565b6000612d84601f83612b1e565b9150612d8f82612d4e565b602082019050919050565b60006020820190508181036000830152612db381612d77565b9050919050565b7f4f6e6c7920636f6e74726f6c6c6572732063616e206578656375746500000000600082015250565b6000612df0601c83612b1e565b9150612dfb82612dba565b602082019050919050565b60006020820190508181036000830152612e1f81612de3565b9050919050565b600081519050612e35816124e6565b92915050565b600060208284031215612e5157612e50612411565b5b6000612e5f84828501612e26565b91505092915050565b7f496e73756666696369656e74204c494e4b000000000000000000000000000000600082015250565b6000612e9e601183612b1e565b9150612ea982612e68565b602082019050919050565b60006020820190508181036000830152612ecd81612e91565b9050919050565b6000604082019050612ee960008301856129a7565b612ef6602083018461279b565b9392505050565b7f4f776e61626c653a206e6577206f776e657220697320746865207a65726f206160008201527f6464726573730000000000000000000000000000000000000000000000000000602082015250565b6000612f59602683612b1e565b9150612f6482612efd565b604082019050919050565b60006020820190508181036000830152612f8881612f4c565b9050919050565b7f496e697469616c697a61626c653a20636f6e7472616374206973206e6f74206960008201527f6e697469616c697a696e67000000000000000000000000000000000000000000602082015250565b6000612feb602b83612b1e565b9150612ff682612f8f565b604082019050919050565b6000602082019050818103600083015261301a81612fde565b9050919050565b7f5652462072657175657374204944206e6f7420666f756e640000000000000000600082015250565b6000613057601883612b1e565b915061306282613021565b602082019050919050565b600060208201905081810360008301526130868161304a565b9050919050565b60006040820190506130a26000830185612c5c565b6130af6020830184612c5c565b9392505050565b600081519050919050565b600082825260208201905092915050565b6000819050602082019050919050565b610160820160008201516130f960008501826126ed565b50602082015161310c60208501826126de565b50604082015161311f60408501826126de565b50606082015161313260608501826126de565b50608082015161314560808501826126de565b5060a082015161315860a08501826126de565b5060c082015161316b60c08501826126de565b5060e082015161317e60e08501826126de565b506101008201516131936101008501826126de565b506101208201516131a86101208501826126de565b506101408201516131bd610140850182612709565b50505050565b60006131cf83836130e2565b6101608301905092915050565b6000602082019050919050565b60006131f4826130b6565b6131fe81856130c1565b9350613209836130d2565b8060005b8381101561323a57815161322188826131c3565b975061322c836131dc565b92505060018101905061320d565b5085935050505092915050565b600060408201905061325c60008301856129a7565b818103602083015261326e81846131e9565b90509392505050565b600060408201905061328c60008301856129a7565b6132996020830184612c5c565b9392505050565b600081519050919050565b600082825260208201905092915050565b60005b838110156132da5780820151818401526020810190506132bf565b838111156132e9576000848401525b50505050565b60006132fa826132a0565b61330481856132ab565b93506133148185602086016132bc565b61331d816127ca565b840191505092915050565b600060608201905061333d600083018661279b565b61334a6020830185612c5c565b818103604083015261335c81846132ef565b9050949350505050565b6000613371826124dc565b915061337c836124dc565b9250827fffffffffffffffffffffffffffffffffffffffffffffffffffffffffffffffff038211156133b1576133b0612cd6565b5b828201905092915050565b60006133c7826124dc565b91506133d2836124dc565b9250828210156133e5576133e4612cd6565b5b828203905092915050565b6000819050919050565b61340b613406826124dc565b6133f0565b82525050565b600061341d82846133fa565b60208201915081905092915050565b600060808201905061344160008301876129a7565b61344e6020830186612c5c565b61345b604083018561279b565b6134686060830184612c5c565b95945050505050565b6000819050919050565b61348c613487826124a6565b613471565b82525050565b600061349e828561347b565b6020820191506134ae82846133fa565b6020820191508190509392505050565b7f4e487b7100000000000000000000000000000000000000000000000000000000600052601260045260246000fd5b60006134f8826124dc565b9150613503836124dc565b925082613513576135126134be565b5b828206905092915050565b60008160f81b9050919050565b60006135368261351e565b9050919050565b60006135488261352b565b9050919050565b61356061355b8261265d565b61353d565b82525050565b613577613572826125b9565b61352b565b82525050565b6000613589828b61354f565b600182019150613599828a613566565b6001820191506135a98289613566565b6001820191506135b98288613566565b6001820191506135c98287613566565b6001820191506135d98286613566565b6001820191506135e98285613566565b6001820191506135f98284613566565b6001820191508190509998505050505050505050565b6000819050602082019050919050565b600061362b82516124a6565b80915050919050565b600082821b905092915050565b600061364c826132a0565b826136568461360f565b90506136618161361f565b925060208210156136a15761369c7fffffffffffffffffffffffffffffffffffffffffffffffffffffffffffffffff83602003600802613634565b831692505b5050919050565b60006136b3826125b9565b91506136be836125b9565b9250826136ce576136cd6134be565b5b828206905092915050565b60006136e4826125b9565b91506136ef836125b9565b92508160ff048311821515161561370957613708612cd6565b5b82820290509291505056fea2646970667358221220bc305b660ff05bf28068fae0c02ff2300e233723874dbafec9f7382dddec1f1164736f6c634300080a0033",
  "immutableReferences": {},
  "source": "// SPDX-License-Identifier: MIT\n\npragma solidity ^0.8.0;\n\nimport \"@openzeppelin/contracts-upgradeable/proxy/utils/Initializable.sol\";\nimport \"./ControllableUpgradeable.sol\";\nimport \"./VRFConsumer.sol\";\nimport \"./IMint.sol\";\nimport \"./ICharacter.sol\";\n\ncontract Mint is Initializable, OwnableUpgradeable, IMint, VRFConsumer, ControllableUpgradeable {\n  uint8[][18] public rarities; // List of probabilities for each trait type, 0 - 9 are associated with Chefs, 10 - 18 are associated with Rats\n  mapping(uint256 => bytes32) public existingCombinations; // Mapping from hashed(tokenTrait) to the tokenId it's associated with, used to ensure there are no duplicates\n\n  ICharacter character; // Reference to the Character\n  bytes32 internal keyHash;\n  uint256 internal fee;\n  mapping(bytes32 => VRFStruct) public vrfRequests; // Mapping from tokenId to a struct containing the token's traits\n\n  event RandomNumberRequested(\n    bytes32 requestId,\n    address sender\n  );\n  event RandomNumberFulfilled(\n    bytes32 requestId,\n    address sender\n  );\n\n  function initialize(\n    address _vrfCoordinator,\n    address _link,\n    bytes32 _keyHash,\n    uint256 _fee\n  ) external initializer {\n    __Ownable_init();\n\n    vrfCoordinator = _vrfCoordinator;\n    link = LinkTokenInterface(_link);\n    keyHash = _keyHash;\n    fee = _fee;\n\n    // Chefs\n    rarities[2] = [255, 223, 191, 159, 127, 95]; // hat\n    rarities[3] = [255, 223, 191, 159, 127, 95, 63, 31]; // eyes\n    rarities[4] = [255, 223, 191, 159, 127, 95]; // mouth\n    rarities[5] = [255, 207, 159, 111, 63, 15]; // neck\n    rarities[6] = [255, 223, 191, 159, 127, 95]; // hand\n    // Rats\n    rarities[12] = [255, 223, 191, 159, 127, 95]; // hat\n    rarities[13] = [255, 223, 191, 159, 127, 95, 63, 31]; // eyes\n    rarities[14] = [255, 223, 191, 159, 127, 95]; // piercing\n    rarities[15] = [255, 207, 159, 111, 63, 15]; // neck\n    rarities[16] = [255, 223, 191, 159, 127, 95]; // tail\n  }\n\n  /**\n   * Set ChainLink VRF params\n   */\n  function setVrfParams(\n    address _vrfCoordinator,\n    address _link,\n    bytes32 _keyHash,\n    uint256 _fee\n  ) external onlyOwner {\n    vrfCoordinator = _vrfCoordinator;\n    link = LinkTokenInterface(_link);\n    keyHash = _keyHash;\n    fee = _fee;\n  }\n\n  function requestRandomNumber(address sender, uint8 amount, bool stake, int8 boost) external onlyController returns (bytes32 requestId) {\n    require(link.balanceOf(address(this)) >= fee, \"Insufficient LINK\");\n    requestId = requestRandomness(keyHash, fee);\n    VRFStruct memory v = VRFStruct({ requestId: requestId, sender: sender, amount: amount, stake: stake, boost: boost });\n    vrfRequests[requestId] = v;\n    emit RandomNumberRequested(requestId, sender);\n  }\n\n  /**\n   * ChainLink VRF callback for requestRandomNumber()\n   * @param requestId - VRF request ID\n   * @param randomness - Random value created by VRF\n   */\n  function fulfillRandomness(bytes32 requestId, uint256 randomness) internal override {\n    VRFStruct memory v = vrfRequests[requestId];\n    require(v.requestId != 0, \"VRF request ID not found\");\n    ICharacter.CharacterStruct[] memory tokens = new ICharacter.CharacterStruct[](v.amount);\n\n    for (uint i = 0; i < v.amount; i++) {\n      tokens[i] = generate(requestId, uint256(keccak256(abi.encode(randomness, i))));\n      tokens[i].boost = v.boost;\n    }\n\n    character.fulfillMint(requestId, tokens);\n    delete vrfRequests[requestId];\n    emit RandomNumberFulfilled(requestId, v.sender);\n  }\n\n  function getVrfRequest(bytes32 requestId) external view returns(VRFStruct memory) {\n    return vrfRequests[requestId];\n  }\n\n  /**\n   * Generates traits for a specific token, checking to make sure it's unique\n   * @param requestId - A VRF request ID\n   * @param seed - A VRF seed\n   * @return t - A struct of traits for the given token ID\n   */\n  function generate(bytes32 requestId, uint256 seed) internal returns (ICharacter.CharacterStruct memory t) {\n    t = selectTraits(seed);\n    uint256 hash = structToHash(t);\n    if (existingCombinations[hash] == 0) {\n      existingCombinations[hash] = requestId;\n      return t;\n    }\n    return generate(requestId, uint256(keccak256(abi.encodePacked(seed - 1))));\n  }\n\n  /**\n   * Selects the species and all of its traits based on the seed value\n   * @param seed - A pseudorandom 256 bit number to derive traits from\n   * @return t -  A struct of randomly selected traits\n   */\n  function selectTraits(uint256 seed) internal view returns (ICharacter.CharacterStruct memory t) {\n    t.isChef = (seed & 0xFFFF) % 10 != 0;\n    if (t.isChef) {\n      t.hat = selectTrait(seed, 2);\n      t.eyes = selectTrait(seed, 3);\n      t.mouth = selectTrait(seed, 4);\n      t.neck = selectTrait(seed, 5);\n      t.hand = selectTrait(seed, 6);\n    } else {\n      t.hat = selectTrait(seed, 12);\n      t.eyes = selectTrait(seed, 13);\n      t.piercing = selectTrait(seed, 14);\n      t.neck = selectTrait(seed, 15);\n      t.tail = selectTrait(seed, 16);\n    }\n    return t;\n  }\n\n  /**\n   * Uses A.J. Walker's Alias algorithm for O(1) rarity table lookup\n   * ensuring O(1) instead of O(n) reduces mint cost by more than 50%\n   * probability & alias tables are generated off-chain beforehand\n   * @param seed - Portion of the 256 bit seed to remove trait correlation\n   * @param traitIndex - The trait index to select a trait for\n   * @return The ID of the randomly selected trait\n   */\n  function selectTrait(uint256 seed, uint8 traitIndex) internal view returns (uint8) {\n    seed = seed >>= (traitIndex % 10 * 16);\n    uint8 trait = uint8(seed) % uint8(rarities[traitIndex].length); // Selected trait index\n    uint8 rand = uint8(seed & 0xFFFF >> 8); // Random integer from 0 to 255\n    if (rand <= rarities[traitIndex][trait]) return trait;\n    return 0;\n  }\n\n  /**\n   * Converts a struct to a 256 bit hash to check for uniqueness\n   * @param s - The struct to pack into a hash\n   * @return The 256 bit hash of the struct\n   */\n  function structToHash(ICharacter.CharacterStruct memory s) internal pure returns (uint256) {\n    return uint256(bytes32(\n      abi.encodePacked(\n        s.isChef,\n        s.hat,\n        s.eyes,\n        s.piercing,\n        s.mouth,\n        s.neck,\n        s.hand,\n        s.tail\n      )\n    ));\n  }\n\n  /**\n   * Set the character address\n   * @param _character - The address of the Character\n   */\n  function setCharacter(address _character) external onlyOwner {\n    character = ICharacter(_character);\n  }\n}\n",
  "sourcePath": "/Users/chris/workspace/ratalert/ratalert-contracts/contracts/Mint.sol",
  "compiler": {
    "name": "solc",
    "version": "0.8.10+commit.fc410830.Emscripten.clang"
  },
  "schemaVersion": "3.4.6",
  "updatedAt": "2022-03-21T14:32:23.758Z",
  "networkType": "ethereum",
  "devdoc": {
    "kind": "dev",
    "methods": {
      "addController(address[])": {
        "params": {
          "_controllers": "- The addresses to enable"
        }
      },
      "controller(address)": {
        "params": {
          "_controller": "- The address to check"
        }
      },
      "initialize(address,address)": {
        "params": {
          "_vrfCoordinator": "- Address of VRFCoordinator contract"
        }
      },
      "owner()": {
        "details": "Returns the address of the current owner."
      },
      "removeController(address[])": {
        "params": {
          "_controllers": "- The addresses to disable"
        }
      },
      "renounceOwnership()": {
        "details": "Leaves the contract without owner. It will not be possible to call `onlyOwner` functions anymore. Can only be called by the current owner. NOTE: Renouncing ownership will leave the contract without an owner, thereby removing any functionality that is only available to the owner."
      },
      "setCharacter(address)": {
        "params": {
          "_character": "- The address of the Character"
        }
      },
      "transferOwnership(address)": {
        "details": "Transfers ownership of the contract to a new account (`newOwner`). Can only be called by the current owner."
      }
    },
    "version": 1
  },
  "userdoc": {
    "kind": "user",
    "methods": {
      "addController(address[])": {
        "notice": "Enables multiple addresses to execute"
      },
      "controller(address)": {
        "notice": "Gets controller status by address"
      },
      "removeController(address[])": {
        "notice": "Prevents multiple addresses from executing"
      },
      "setCharacter(address)": {
        "notice": "Set the character address"
      },
      "setVrfParams(address,address,bytes32,uint256)": {
        "notice": "Set ChainLink VRF params"
      }
    },
    "version": 1
  }
}