{
  "contractName": "Mint",
  "abi": [
    {
      "anonymous": false,
      "inputs": [
        {
          "indexed": true,
          "internalType": "address",
          "name": "previousOwner",
          "type": "address"
        },
        {
          "indexed": true,
          "internalType": "address",
          "name": "newOwner",
          "type": "address"
        }
      ],
      "name": "OwnershipTransferred",
      "type": "event"
    },
    {
      "anonymous": false,
      "inputs": [
        {
          "indexed": false,
          "internalType": "bytes32",
          "name": "requestId",
          "type": "bytes32"
        },
        {
          "indexed": false,
          "internalType": "address",
          "name": "sender",
          "type": "address"
        }
      ],
      "name": "RandomNumberFulfilled",
      "type": "event"
    },
    {
      "anonymous": false,
      "inputs": [
        {
          "indexed": false,
          "internalType": "bytes32",
          "name": "requestId",
          "type": "bytes32"
        },
        {
          "indexed": false,
          "internalType": "address",
          "name": "sender",
          "type": "address"
        }
      ],
      "name": "RandomNumberRequested",
      "type": "event"
    },
    {
      "anonymous": false,
      "inputs": [
        {
          "indexed": true,
          "internalType": "address",
          "name": "from",
          "type": "address"
        },
        {
          "indexed": true,
          "internalType": "address",
          "name": "to",
          "type": "address"
        },
        {
          "indexed": true,
          "internalType": "uint256",
          "name": "tokenId",
          "type": "uint256"
        }
      ],
      "name": "Transfer",
      "type": "event"
    },
    {
      "inputs": [
        {
          "internalType": "address[]",
          "name": "_controllers",
          "type": "address[]"
        }
      ],
      "name": "addController",
      "outputs": [],
      "stateMutability": "nonpayable",
      "type": "function"
    },
    {
      "inputs": [
        {
          "internalType": "address",
          "name": "_controller",
          "type": "address"
        }
      ],
      "name": "controller",
      "outputs": [
        {
          "internalType": "bool",
          "name": "",
          "type": "bool"
        }
      ],
      "stateMutability": "view",
      "type": "function"
    },
    {
      "inputs": [
        {
          "internalType": "uint256",
          "name": "",
          "type": "uint256"
        }
      ],
      "name": "existingCombinations",
      "outputs": [
        {
          "internalType": "bytes32",
          "name": "",
          "type": "bytes32"
        }
      ],
      "stateMutability": "view",
      "type": "function"
    },
    {
      "inputs": [],
      "name": "owner",
      "outputs": [
        {
          "internalType": "address",
          "name": "",
          "type": "address"
        }
      ],
      "stateMutability": "view",
      "type": "function"
    },
    {
      "inputs": [
        {
          "internalType": "uint256",
          "name": "",
          "type": "uint256"
        },
        {
          "internalType": "uint256",
          "name": "",
          "type": "uint256"
        }
      ],
      "name": "rarities",
      "outputs": [
        {
          "internalType": "uint8",
          "name": "",
          "type": "uint8"
        }
      ],
      "stateMutability": "view",
      "type": "function"
    },
    {
      "inputs": [
        {
          "internalType": "bytes32",
          "name": "requestId",
          "type": "bytes32"
        },
        {
          "internalType": "uint256",
          "name": "randomness",
          "type": "uint256"
        }
      ],
      "name": "rawFulfillRandomness",
      "outputs": [],
      "stateMutability": "nonpayable",
      "type": "function"
    },
    {
      "inputs": [
        {
          "internalType": "address[]",
          "name": "_controllers",
          "type": "address[]"
        }
      ],
      "name": "removeController",
      "outputs": [],
      "stateMutability": "nonpayable",
      "type": "function"
    },
    {
      "inputs": [],
      "name": "renounceOwnership",
      "outputs": [],
      "stateMutability": "nonpayable",
      "type": "function"
    },
    {
      "inputs": [
        {
          "internalType": "address",
          "name": "_dao",
          "type": "address"
        }
      ],
      "name": "setDao",
      "outputs": [],
      "stateMutability": "nonpayable",
      "type": "function"
    },
    {
      "inputs": [
        {
          "internalType": "address",
          "name": "newOwner",
          "type": "address"
        }
      ],
      "name": "transferOwnership",
      "outputs": [],
      "stateMutability": "nonpayable",
      "type": "function"
    },
    {
      "inputs": [
        {
          "internalType": "bytes32",
          "name": "",
          "type": "bytes32"
        }
      ],
      "name": "vrfRequests",
      "outputs": [
        {
          "internalType": "bytes32",
          "name": "requestId",
          "type": "bytes32"
        },
        {
          "internalType": "address",
          "name": "sender",
          "type": "address"
        },
        {
          "internalType": "uint8",
          "name": "amount",
          "type": "uint8"
        },
        {
          "internalType": "bool",
          "name": "stake",
          "type": "bool"
        },
        {
          "internalType": "int8",
          "name": "boost",
          "type": "int8"
        }
      ],
      "stateMutability": "view",
      "type": "function"
    },
    {
      "inputs": [
        {
          "internalType": "uint256",
          "name": "amount",
          "type": "uint256"
        }
      ],
      "name": "withdrawLink",
      "outputs": [
        {
          "internalType": "bool",
          "name": "success",
          "type": "bool"
        }
      ],
      "stateMutability": "nonpayable",
      "type": "function"
    },
    {
      "inputs": [
        {
          "internalType": "address",
          "name": "_vrfCoordinator",
          "type": "address"
        },
        {
          "internalType": "address",
          "name": "_link",
          "type": "address"
        },
        {
          "internalType": "bytes32",
          "name": "_keyHash",
          "type": "bytes32"
        },
        {
          "internalType": "uint256",
          "name": "_fee",
          "type": "uint256"
        }
      ],
      "name": "initialize",
      "outputs": [],
      "stateMutability": "nonpayable",
      "type": "function"
    },
    {
      "inputs": [
        {
          "internalType": "address",
          "name": "_vrfCoordinator",
          "type": "address"
        },
        {
          "internalType": "address",
          "name": "_link",
          "type": "address"
        }
      ],
      "name": "initialize",
      "outputs": [],
      "stateMutability": "nonpayable",
      "type": "function"
    },
    {
      "inputs": [
        {
          "internalType": "address",
          "name": "_vrfCoordinator",
          "type": "address"
        },
        {
          "internalType": "address",
          "name": "_link",
          "type": "address"
        },
        {
          "internalType": "bytes32",
          "name": "_keyHash",
          "type": "bytes32"
        },
        {
          "internalType": "uint256",
          "name": "_fee",
          "type": "uint256"
        }
      ],
      "name": "setVrfParams",
      "outputs": [],
      "stateMutability": "nonpayable",
      "type": "function"
    },
    {
      "inputs": [
        {
          "internalType": "address",
          "name": "sender",
          "type": "address"
        },
        {
          "internalType": "uint8",
          "name": "amount",
          "type": "uint8"
        },
        {
          "internalType": "bool",
          "name": "stake",
          "type": "bool"
        },
        {
          "internalType": "int8",
          "name": "boost",
          "type": "int8"
        }
      ],
      "name": "requestRandomNumber",
      "outputs": [
        {
          "internalType": "bytes32",
          "name": "requestId",
          "type": "bytes32"
        }
      ],
      "stateMutability": "nonpayable",
      "type": "function"
    },
    {
      "inputs": [
        {
          "internalType": "bytes32",
          "name": "requestId",
          "type": "bytes32"
        }
      ],
      "name": "getVrfRequest",
      "outputs": [
        {
          "components": [
            {
              "internalType": "bytes32",
              "name": "requestId",
              "type": "bytes32"
            },
            {
              "internalType": "address",
              "name": "sender",
              "type": "address"
            },
            {
              "internalType": "uint8",
              "name": "amount",
              "type": "uint8"
            },
            {
              "internalType": "bool",
              "name": "stake",
              "type": "bool"
            },
            {
              "internalType": "int8",
              "name": "boost",
              "type": "int8"
            }
          ],
          "internalType": "struct IMint.VRFStruct",
          "name": "",
          "type": "tuple"
        }
      ],
      "stateMutability": "view",
      "type": "function"
    },
    {
      "inputs": [
        {
          "internalType": "address",
          "name": "_character",
          "type": "address"
        }
      ],
      "name": "setCharacter",
      "outputs": [],
      "stateMutability": "nonpayable",
      "type": "function"
    }
  ],
  "bytecode": "0x608060405234801561001057600080fd5b5061387a806100206000396000f3fe608060405234801561001057600080fd5b50600436106101165760003560e01c80638da5cb5b116100a2578063a83a720211610071578063a83a7202146102c7578063c13aa7b5146102e3578063dec04e5f14610313578063e8ff04a114610347578063f2fde38b1461037757610116565b80638da5cb5b1461024157806392c405b61461025f57806394985ddd1461027b578063a1b8f3741461029757610116565b8063485cc955116100e9578063485cc9551461019f5780636637b882146101bb578063715018a6146101d75780637a8042bd146101e15780637f10b5ab1461021157610116565b8063204efe171461011b578063277a23891461013757806333df4b2c146101535780633d6b06cc14610183575b600080fd5b610135600480360381019061013091906124de565b610393565b005b610151600480360381019061014c9190612577565b610453565b005b61016d600480360381019061016891906125de565b610a17565b60405161017a919061263a565b60405180910390f35b61019d60048036038101906101989190612577565b610a5d565b005b6101b960048036038101906101b49190612655565b610b6f565b005b6101d560048036038101906101d091906124de565b610cd7565b005b6101df610d97565b005b6101fb60048036038101906101f69190612695565b610e1f565b60405161020891906126dd565b60405180910390f35b61022b600480360381019061022691906126f8565b610ef2565b60405161023891906127e5565b60405180910390f35b610249610fd4565b604051610256919061280f565b60405180910390f35b61027960048036038101906102749190612983565b610ffe565b005b610295600480360381019061029091906129cc565b61110f565b005b6102b160048036038101906102ac9190612695565b6111ad565b6040516102be9190612a1b565b60405180910390f35b6102e160048036038101906102dc9190612983565b6111c5565b005b6102fd60048036038101906102f891906124de565b6112d6565b60405161030a91906126dd565b60405180910390f35b61032d600480360381019061032891906126f8565b61132c565b60405161033e959493929190612a45565b60405180910390f35b610361600480360381019061035c9190612b1c565b6113a9565b60405161036e9190612a1b565b60405180910390f35b610391600480360381019061038c91906124de565b6115fb565b005b61039b6116f3565b73ffffffffffffffffffffffffffffffffffffffff166103b9610fd4565b73ffffffffffffffffffffffffffffffffffffffff161461040f576040517f08c379a000000000000000000000000000000000000000000000000000000000815260040161040690612be0565b60405180910390fd5b80607d60006101000a81548173ffffffffffffffffffffffffffffffffffffffff021916908373ffffffffffffffffffffffffffffffffffffffff16021790555050565b600060019054906101000a900460ff1661047b5760008054906101000a900460ff1615610484565b6104836116fb565b5b6104c3576040517f08c379a00000000000000000000000000000000000000000000000000000000081526004016104ba90612c72565b60405180910390fd5b60008060019054906101000a900460ff161590508015610513576001600060016101000a81548160ff02191690831515021790555060016000806101000a81548160ff0219169083151502179055505b61051b61170c565b84606760006101000a81548173ffffffffffffffffffffffffffffffffffffffff021916908373ffffffffffffffffffffffffffffffffffffffff16021790555083606660006101000a81548173ffffffffffffffffffffffffffffffffffffffff021916908373ffffffffffffffffffffffffffffffffffffffff16021790555082607e8190555081607f819055506040518060c0016040528060ff8016815260200160df60ff16815260200160bf60ff168152602001609f60ff168152602001607f60ff168152602001605f60ff16815250606a60026012811061060457610603612c92565b5b01906006610613929190612239565b5060405180610100016040528060ff8016815260200160df60ff16815260200160bf60ff168152602001609f60ff168152602001607f60ff168152602001605f60ff168152602001603f60ff168152602001601f60ff16815250606a60036012811061068257610681612c92565b5b019060086106919291906122e0565b506040518060c0016040528060ff8016815260200160df60ff16815260200160bf60ff168152602001609f60ff168152602001607f60ff168152602001605f60ff16815250606a6004601281106106eb576106ea612c92565b5b019060066106fa929190612239565b506040518060c0016040528060ff8016815260200160cf60ff168152602001609f60ff168152602001606f60ff168152602001603f60ff168152602001600f60ff16815250606a60056012811061075457610753612c92565b5b01906006610763929190612239565b506040518060c0016040528060ff8016815260200160df60ff16815260200160bf60ff168152602001609f60ff168152602001607f60ff168152602001605f60ff16815250606a6006601281106107bd576107bc612c92565b5b019060066107cc929190612239565b506040518060c0016040528060ff8016815260200160df60ff16815260200160bf60ff168152602001609f60ff168152602001607f60ff168152602001605f60ff16815250606a600c6012811061082657610825612c92565b5b01906006610835929190612239565b5060405180610100016040528060ff8016815260200160df60ff16815260200160bf60ff168152602001609f60ff168152602001607f60ff168152602001605f60ff168152602001603f60ff168152602001601f60ff16815250606a600d601281106108a4576108a3612c92565b5b019060086108b39291906122e0565b506040518060c0016040528060ff8016815260200160df60ff16815260200160bf60ff168152602001609f60ff168152602001607f60ff168152602001605f60ff16815250606a600e6012811061090d5761090c612c92565b5b0190600661091c929190612239565b506040518060c0016040528060ff8016815260200160cf60ff168152602001609f60ff168152602001606f60ff168152602001603f60ff168152602001600f60ff16815250606a600f6012811061097657610975612c92565b5b01906006610985929190612239565b506040518060c0016040528060ff8016815260200160df60ff16815260200160bf60ff168152602001609f60ff168152602001607f60ff168152602001605f60ff16815250606a6010601281106109df576109de612c92565b5b019060066109ee929190612239565b508015610a105760008060016101000a81548160ff0219169083151502179055505b5050505050565b606a8260128110610a2757600080fd5b018181548110610a3657600080fd5b9060005260206000209060209182820401919006915091509054906101000a900460ff1681565b610a656116f3565b73ffffffffffffffffffffffffffffffffffffffff16610a83610fd4565b73ffffffffffffffffffffffffffffffffffffffff1614610ad9576040517f08c379a0000000000000000000000000000000000000000000000000000000008152600401610ad090612be0565b60405180910390fd5b83606760006101000a81548173ffffffffffffffffffffffffffffffffffffffff021916908373ffffffffffffffffffffffffffffffffffffffff16021790555082606660006101000a81548173ffffffffffffffffffffffffffffffffffffffff021916908373ffffffffffffffffffffffffffffffffffffffff16021790555081607e8190555080607f8190555050505050565b600060019054906101000a900460ff16610b975760008054906101000a900460ff1615610ba0565b610b9f6116fb565b5b610bdf576040517f08c379a0000000000000000000000000000000000000000000000000000000008152600401610bd690612c72565b60405180910390fd5b60008060019054906101000a900460ff161590508015610c2f576001600060016101000a81548160ff02191690831515021790555060016000806101000a81548160ff0219169083151502179055505b82606760006101000a81548173ffffffffffffffffffffffffffffffffffffffff021916908373ffffffffffffffffffffffffffffffffffffffff16021790555081606660006101000a81548173ffffffffffffffffffffffffffffffffffffffff021916908373ffffffffffffffffffffffffffffffffffffffff1602179055508015610cd25760008060016101000a81548160ff0219169083151502179055505b505050565b610cdf6116f3565b73ffffffffffffffffffffffffffffffffffffffff16610cfd610fd4565b73ffffffffffffffffffffffffffffffffffffffff1614610d53576040517f08c379a0000000000000000000000000000000000000000000000000000000008152600401610d4a90612be0565b60405180910390fd5b80606560006101000a81548173ffffffffffffffffffffffffffffffffffffffff021916908373ffffffffffffffffffffffffffffffffffffffff16021790555050565b610d9f6116f3565b73ffffffffffffffffffffffffffffffffffffffff16610dbd610fd4565b73ffffffffffffffffffffffffffffffffffffffff1614610e13576040517f08c379a0000000000000000000000000000000000000000000000000000000008152600401610e0a90612be0565b60405180910390fd5b610e1d6000611765565b565b6000610e2961182b565b606660009054906101000a900473ffffffffffffffffffffffffffffffffffffffff1673ffffffffffffffffffffffffffffffffffffffff1663a9059cbb606560009054906101000a900473ffffffffffffffffffffffffffffffffffffffff16846040518363ffffffff1660e01b8152600401610ea8929190612d2f565b6020604051808303816000875af1158015610ec7573d6000803e3d6000fd5b505050506040513d601f19601f82011682018060405250810190610eeb9190612d6d565b9050919050565b610efa612387565b608060008381526020019081526020016000206040518060a0016040529081600082015481526020016001820160009054906101000a900473ffffffffffffffffffffffffffffffffffffffff1673ffffffffffffffffffffffffffffffffffffffff1673ffffffffffffffffffffffffffffffffffffffff1681526020016001820160149054906101000a900460ff1660ff1660ff1681526020016001820160159054906101000a900460ff161515151581526020016001820160169054906101000a900460000b60000b60000b815250509050919050565b6000603360009054906101000a900473ffffffffffffffffffffffffffffffffffffffff16905090565b6110066116f3565b73ffffffffffffffffffffffffffffffffffffffff16611024610fd4565b73ffffffffffffffffffffffffffffffffffffffff161461107a576040517f08c379a000000000000000000000000000000000000000000000000000000000815260040161107190612be0565b60405180910390fd5b60005b815181101561110b5760006069600084848151811061109f5761109e612c92565b5b602002602001015173ffffffffffffffffffffffffffffffffffffffff1673ffffffffffffffffffffffffffffffffffffffff16815260200190815260200160002060006101000a81548160ff021916908315150217905550808061110390612dc9565b91505061107d565b5050565b606760009054906101000a900473ffffffffffffffffffffffffffffffffffffffff1673ffffffffffffffffffffffffffffffffffffffff163373ffffffffffffffffffffffffffffffffffffffff161461119f576040517f08c379a000000000000000000000000000000000000000000000000000000000815260040161119690612e5e565b60405180910390fd5b6111a982826118bd565b5050565b607c6020528060005260406000206000915090505481565b6111cd6116f3565b73ffffffffffffffffffffffffffffffffffffffff166111eb610fd4565b73ffffffffffffffffffffffffffffffffffffffff1614611241576040517f08c379a000000000000000000000000000000000000000000000000000000000815260040161123890612be0565b60405180910390fd5b60005b81518110156112d25760016069600084848151811061126657611265612c92565b5b602002602001015173ffffffffffffffffffffffffffffffffffffffff1673ffffffffffffffffffffffffffffffffffffffff16815260200190815260200160002060006101000a81548160ff02191690831515021790555080806112ca90612dc9565b915050611244565b5050565b6000606960008373ffffffffffffffffffffffffffffffffffffffff1673ffffffffffffffffffffffffffffffffffffffff16815260200190815260200160002060009054906101000a900460ff169050919050565b60806020528060005260406000206000915090508060000154908060010160009054906101000a900473ffffffffffffffffffffffffffffffffffffffff16908060010160149054906101000a900460ff16908060010160159054906101000a900460ff16908060010160169054906101000a900460000b905085565b60006113b3611c3a565b607f54606660009054906101000a900473ffffffffffffffffffffffffffffffffffffffff1673ffffffffffffffffffffffffffffffffffffffff166370a08231306040518263ffffffff1660e01b8152600401611411919061280f565b602060405180830381865afa15801561142e573d6000803e3d6000fd5b505050506040513d601f19601f820116820180604052508101906114529190612e93565b1015611493576040517f08c379a000000000000000000000000000000000000000000000000000000000815260040161148a90612f0c565b60405180910390fd5b6114a1607e54607f54611cc8565b905060006040518060a001604052808381526020018773ffffffffffffffffffffffffffffffffffffffff1681526020018660ff16815260200185151581526020018460000b815250905080608060008481526020019081526020016000206000820151816000015560208201518160010160006101000a81548173ffffffffffffffffffffffffffffffffffffffff021916908373ffffffffffffffffffffffffffffffffffffffff16021790555060408201518160010160146101000a81548160ff021916908360ff16021790555060608201518160010160156101000a81548160ff02191690831515021790555060808201518160010160166101000a81548160ff021916908360000b60ff1602179055509050507fa604c1d75d1d5480c3a226f3b59c2be444c037ab3cbc22c688fa02ddcaedd13582876040516115ea929190612f2c565b60405180910390a150949350505050565b6116036116f3565b73ffffffffffffffffffffffffffffffffffffffff16611621610fd4565b73ffffffffffffffffffffffffffffffffffffffff1614611677576040517f08c379a000000000000000000000000000000000000000000000000000000000815260040161166e90612be0565b60405180910390fd5b600073ffffffffffffffffffffffffffffffffffffffff168173ffffffffffffffffffffffffffffffffffffffff1614156116e7576040517f08c379a00000000000000000000000000000000000000000000000000000000081526004016116de90612fc7565b60405180910390fd5b6116f081611765565b50565b600033905090565b600061170630611e1f565b15905090565b600060019054906101000a900460ff1661175b576040517f08c379a000000000000000000000000000000000000000000000000000000000815260040161175290613059565b60405180910390fd5b611763611e42565b565b6000603360009054906101000a900473ffffffffffffffffffffffffffffffffffffffff16905081603360006101000a81548173ffffffffffffffffffffffffffffffffffffffff021916908373ffffffffffffffffffffffffffffffffffffffff1602179055508173ffffffffffffffffffffffffffffffffffffffff168173ffffffffffffffffffffffffffffffffffffffff167f8be0079c531659141344cd1fd0a4f28419497f9722a3daafe3b4186f6b6457e060405160405180910390a35050565b606560009054906101000a900473ffffffffffffffffffffffffffffffffffffffff1673ffffffffffffffffffffffffffffffffffffffff163373ffffffffffffffffffffffffffffffffffffffff16146118bb576040517f08c379a00000000000000000000000000000000000000000000000000000000081526004016118b2906130c5565b60405180910390fd5b565b6000608060008481526020019081526020016000206040518060a0016040529081600082015481526020016001820160009054906101000a900473ffffffffffffffffffffffffffffffffffffffff1673ffffffffffffffffffffffffffffffffffffffff1673ffffffffffffffffffffffffffffffffffffffff1681526020016001820160149054906101000a900460ff1660ff1660ff1681526020016001820160159054906101000a900460ff161515151581526020016001820160169054906101000a900460000b60000b60000b8152505090506000801b816000015114156119de576040517f08c379a00000000000000000000000000000000000000000000000000000000081526004016119d590613131565b60405180910390fd5b6000816040015160ff1667ffffffffffffffff811115611a0157611a00612840565b5b604051908082528060200260200182016040528015611a3a57816020015b611a276123d6565b815260200190600190039081611a1f5790505b50905060005b826040015160ff16811015611ae657611a84858583604051602001611a66929190613151565b6040516020818303038152906040528051906020012060001c611ea3565b828281518110611a9757611a96612c92565b5b60200260200101819052508260800151828281518110611aba57611ab9612c92565b5b6020026020010151610140019060000b908160000b815250508080611ade90612dc9565b915050611a40565b50608060008581526020019081526020016000206000808201600090556001820160006101000a81549073ffffffffffffffffffffffffffffffffffffffff02191690556001820160146101000a81549060ff02191690556001820160156101000a81549060ff02191690556001820160166101000a81549060ff02191690555050607d60009054906101000a900473ffffffffffffffffffffffffffffffffffffffff1673ffffffffffffffffffffffffffffffffffffffff16636931a2ba83836040518363ffffffff1660e01b8152600401611bc592919061330b565b600060405180830381600087803b158015611bdf57600080fd5b505af1158015611bf3573d6000803e3d6000fd5b505050507f697b04c8163be56dde69d35841ac4e03926065129a0340b2ef2199336f903971848360200151604051611c2c929190612f2c565b60405180910390a150505050565b606960003373ffffffffffffffffffffffffffffffffffffffff1673ffffffffffffffffffffffffffffffffffffffff16815260200190815260200160002060009054906101000a900460ff16611cc6576040517f08c379a0000000000000000000000000000000000000000000000000000000008152600401611cbd90613387565b60405180910390fd5b565b6000606660009054906101000a900473ffffffffffffffffffffffffffffffffffffffff1673ffffffffffffffffffffffffffffffffffffffff16634000aea0606760009054906101000a900473ffffffffffffffffffffffffffffffffffffffff1684866000604051602001611d409291906133a7565b6040516020818303038152906040526040518463ffffffff1660e01b8152600401611d6d93929190613458565b6020604051808303816000875af1158015611d8c573d6000803e3d6000fd5b505050506040513d601f19601f82011682018060405250810190611db09190612d6d565b506000611dd3846000306068600089815260200190815260200160002054611f48565b905060016068600086815260200190815260200160002054611df59190613496565b6068600086815260200190815260200160002081905550611e168482611f84565b91505092915050565b6000808273ffffffffffffffffffffffffffffffffffffffff163b119050919050565b600060019054906101000a900460ff16611e91576040517f08c379a0000000000000000000000000000000000000000000000000000000008152600401611e8890613059565b60405180910390fd5b611ea1611e9c6116f3565b611765565b565b611eab6123d6565b611eb482611fb7565b90506000611ec182612110565b90506000801b607c6000838152602001908152602001600020541415611eff5783607c60008381526020019081526020016000208190555050611f42565b611f3e84600185611f1091906134ec565b604051602001611f209190613541565b6040516020818303038152906040528051906020012060001c611ea3565b9150505b92915050565b600084848484604051602001611f61949392919061355c565b6040516020818303038152906040528051906020012060001c9050949350505050565b60008282604051602001611f999291906135c2565b60405160208183030381529060405280519060200120905092915050565b611fbf6123d6565b6000600a61ffff8416611fd2919061361d565b141581600001901515908115158152505080600001511561207e57611ff8826002612173565b816020019060ff16908160ff1681525050612014826003612173565b816040019060ff16908160ff1681525050612030826004612173565b816080019060ff16908160ff168152505061204c826005612173565b8160a0019060ff16908160ff1681525050612068826006612173565b8160c0019060ff16908160ff168152505061210b565b61208982600c612173565b816020019060ff16908160ff16815250506120a582600d612173565b816040019060ff16908160ff16815250506120c182600e612173565b816060019060ff16908160ff16815250506120dd82600f612173565b8160a0019060ff16908160ff16815250506120f9826010612173565b8160e0019060ff16908160ff16815250505b919050565b6000816000015182602001518360400151846060015185608001518660a001518760c001518860e001516040516020016121519897969594939291906136ad565b60405160208183030381529060405261216990613771565b60001c9050919050565b60006010600a8361218491906137d8565b61218e9190613809565b60ff1683901c92506000606a8360ff16601281106121af576121ae612c92565b5b0180549050846121bf91906137d8565b9050600060ff85169050606a8460ff16601281106121e0576121df612c92565b5b018260ff16815481106121f6576121f5612c92565b5b90600052602060002090602091828204019190069054906101000a900460ff1660ff168160ff161161222c578192505050612233565b6000925050505b92915050565b82805482825590600052602060002090601f016020900481019282156122cf5791602002820160005b838211156122a057835183826101000a81548160ff021916908360ff1602179055509260200192600101602081600001049283019260010302612262565b80156122cd5782816101000a81549060ff02191690556001016020816000010492830192600103026122a0565b505b5090506122dc919061244f565b5090565b82805482825590600052602060002090601f016020900481019282156123765791602002820160005b8382111561234757835183826101000a81548160ff021916908360ff1602179055509260200192600101602081600001049283019260010302612309565b80156123745782816101000a81549060ff0219169055600101602081600001049283019260010302612347565b505b509050612383919061244f565b5090565b6040518060a0016040528060008019168152602001600073ffffffffffffffffffffffffffffffffffffffff168152602001600060ff1681526020016000151581526020016000800b81525090565b604051806101600160405280600015158152602001600060ff168152602001600060ff168152602001600060ff168152602001600060ff168152602001600060ff168152602001600060ff168152602001600060ff168152602001600060ff168152602001600060ff1681526020016000800b81525090565b5b80821115612468576000816000905550600101612450565b5090565b6000604051905090565b600080fd5b600080fd5b600073ffffffffffffffffffffffffffffffffffffffff82169050919050565b60006124ab82612480565b9050919050565b6124bb816124a0565b81146124c657600080fd5b50565b6000813590506124d8816124b2565b92915050565b6000602082840312156124f4576124f3612476565b5b6000612502848285016124c9565b91505092915050565b6000819050919050565b61251e8161250b565b811461252957600080fd5b50565b60008135905061253b81612515565b92915050565b6000819050919050565b61255481612541565b811461255f57600080fd5b50565b6000813590506125718161254b565b92915050565b6000806000806080858703121561259157612590612476565b5b600061259f878288016124c9565b94505060206125b0878288016124c9565b93505060406125c18782880161252c565b92505060606125d287828801612562565b91505092959194509250565b600080604083850312156125f5576125f4612476565b5b600061260385828601612562565b925050602061261485828601612562565b9150509250929050565b600060ff82169050919050565b6126348161261e565b82525050565b600060208201905061264f600083018461262b565b92915050565b6000806040838503121561266c5761266b612476565b5b600061267a858286016124c9565b925050602061268b858286016124c9565b9150509250929050565b6000602082840312156126ab576126aa612476565b5b60006126b984828501612562565b91505092915050565b60008115159050919050565b6126d7816126c2565b82525050565b60006020820190506126f260008301846126ce565b92915050565b60006020828403121561270e5761270d612476565b5b600061271c8482850161252c565b91505092915050565b61272e8161250b565b82525050565b61273d816124a0565b82525050565b61274c8161261e565b82525050565b61275b816126c2565b82525050565b60008160000b9050919050565b61277781612761565b82525050565b60a0820160008201516127936000850182612725565b5060208201516127a66020850182612734565b5060408201516127b96040850182612743565b5060608201516127cc6060850182612752565b5060808201516127df608085018261276e565b50505050565b600060a0820190506127fa600083018461277d565b92915050565b612809816124a0565b82525050565b60006020820190506128246000830184612800565b92915050565b600080fd5b6000601f19601f8301169050919050565b7f4e487b7100000000000000000000000000000000000000000000000000000000600052604160045260246000fd5b6128788261282f565b810181811067ffffffffffffffff8211171561289757612896612840565b5b80604052505050565b60006128aa61246c565b90506128b6828261286f565b919050565b600067ffffffffffffffff8211156128d6576128d5612840565b5b602082029050602081019050919050565b600080fd5b60006128ff6128fa846128bb565b6128a0565b90508083825260208201905060208402830185811115612922576129216128e7565b5b835b8181101561294b578061293788826124c9565b845260208401935050602081019050612924565b5050509392505050565b600082601f83011261296a5761296961282a565b5b813561297a8482602086016128ec565b91505092915050565b60006020828403121561299957612998612476565b5b600082013567ffffffffffffffff8111156129b7576129b661247b565b5b6129c384828501612955565b91505092915050565b600080604083850312156129e3576129e2612476565b5b60006129f18582860161252c565b9250506020612a0285828601612562565b9150509250929050565b612a158161250b565b82525050565b6000602082019050612a306000830184612a0c565b92915050565b612a3f81612761565b82525050565b600060a082019050612a5a6000830188612a0c565b612a676020830187612800565b612a74604083018661262b565b612a8160608301856126ce565b612a8e6080830184612a36565b9695505050505050565b612aa18161261e565b8114612aac57600080fd5b50565b600081359050612abe81612a98565b92915050565b612acd816126c2565b8114612ad857600080fd5b50565b600081359050612aea81612ac4565b92915050565b612af981612761565b8114612b0457600080fd5b50565b600081359050612b1681612af0565b92915050565b60008060008060808587031215612b3657612b35612476565b5b6000612b44878288016124c9565b9450506020612b5587828801612aaf565b9350506040612b6687828801612adb565b9250506060612b7787828801612b07565b91505092959194509250565b600082825260208201905092915050565b7f4f776e61626c653a2063616c6c6572206973206e6f7420746865206f776e6572600082015250565b6000612bca602083612b83565b9150612bd582612b94565b602082019050919050565b60006020820190508181036000830152612bf981612bbd565b9050919050565b7f496e697469616c697a61626c653a20636f6e747261637420697320616c72656160008201527f647920696e697469616c697a6564000000000000000000000000000000000000602082015250565b6000612c5c602e83612b83565b9150612c6782612c00565b604082019050919050565b60006020820190508181036000830152612c8b81612c4f565b9050919050565b7f4e487b7100000000000000000000000000000000000000000000000000000000600052603260045260246000fd5b6000819050919050565b6000612ce6612ce1612cdc84612480565b612cc1565b612480565b9050919050565b6000612cf882612ccb565b9050919050565b6000612d0a82612ced565b9050919050565b612d1a81612cff565b82525050565b612d2981612541565b82525050565b6000604082019050612d446000830185612d11565b612d516020830184612d20565b9392505050565b600081519050612d6781612ac4565b92915050565b600060208284031215612d8357612d82612476565b5b6000612d9184828501612d58565b91505092915050565b7f4e487b7100000000000000000000000000000000000000000000000000000000600052601160045260246000fd5b6000612dd482612541565b91507fffffffffffffffffffffffffffffffffffffffffffffffffffffffffffffffff821415612e0757612e06612d9a565b5b600182019050919050565b7f4f6e6c7920565246436f6f7264696e61746f722063616e2066756c66696c6c00600082015250565b6000612e48601f83612b83565b9150612e5382612e12565b602082019050919050565b60006020820190508181036000830152612e7781612e3b565b9050919050565b600081519050612e8d8161254b565b92915050565b600060208284031215612ea957612ea8612476565b5b6000612eb784828501612e7e565b91505092915050565b7f496e73756666696369656e74204c494e4b000000000000000000000000000000600082015250565b6000612ef6601183612b83565b9150612f0182612ec0565b602082019050919050565b60006020820190508181036000830152612f2581612ee9565b9050919050565b6000604082019050612f416000830185612a0c565b612f4e6020830184612800565b9392505050565b7f4f776e61626c653a206e6577206f776e657220697320746865207a65726f206160008201527f6464726573730000000000000000000000000000000000000000000000000000602082015250565b6000612fb1602683612b83565b9150612fbc82612f55565b604082019050919050565b60006020820190508181036000830152612fe081612fa4565b9050919050565b7f496e697469616c697a61626c653a20636f6e7472616374206973206e6f74206960008201527f6e697469616c697a696e67000000000000000000000000000000000000000000602082015250565b6000613043602b83612b83565b915061304e82612fe7565b604082019050919050565b6000602082019050818103600083015261307281613036565b9050919050565b7f4f6e6c792044414f2063616e2065786563757465000000000000000000000000600082015250565b60006130af601483612b83565b91506130ba82613079565b602082019050919050565b600060208201905081810360008301526130de816130a2565b9050919050565b7f5652462072657175657374204944206e6f7420666f756e640000000000000000600082015250565b600061311b601883612b83565b9150613126826130e5565b602082019050919050565b6000602082019050818103600083015261314a8161310e565b9050919050565b60006040820190506131666000830185612d20565b6131736020830184612d20565b9392505050565b600081519050919050565b600082825260208201905092915050565b6000819050602082019050919050565b610160820160008201516131bd6000850182612752565b5060208201516131d06020850182612743565b5060408201516131e36040850182612743565b5060608201516131f66060850182612743565b5060808201516132096080850182612743565b5060a082015161321c60a0850182612743565b5060c082015161322f60c0850182612743565b5060e082015161324260e0850182612743565b50610100820151613257610100850182612743565b5061012082015161326c610120850182612743565b5061014082015161328161014085018261276e565b50505050565b600061329383836131a6565b6101608301905092915050565b6000602082019050919050565b60006132b88261317a565b6132c28185613185565b93506132cd83613196565b8060005b838110156132fe5781516132e58882613287565b97506132f0836132a0565b9250506001810190506132d1565b5085935050505092915050565b600060c082019050613320600083018561277d565b81810360a083015261333281846132ad565b90509392505050565b7f4f6e6c7920636f6e74726f6c6c6572732063616e206578656375746500000000600082015250565b6000613371601c83612b83565b915061337c8261333b565b602082019050919050565b600060208201905081810360008301526133a081613364565b9050919050565b60006040820190506133bc6000830185612a0c565b6133c96020830184612d20565b9392505050565b600081519050919050565b600082825260208201905092915050565b60005b8381101561340a5780820151818401526020810190506133ef565b83811115613419576000848401525b50505050565b600061342a826133d0565b61343481856133db565b93506134448185602086016133ec565b61344d8161282f565b840191505092915050565b600060608201905061346d6000830186612800565b61347a6020830185612d20565b818103604083015261348c818461341f565b9050949350505050565b60006134a182612541565b91506134ac83612541565b9250827fffffffffffffffffffffffffffffffffffffffffffffffffffffffffffffffff038211156134e1576134e0612d9a565b5b828201905092915050565b60006134f782612541565b915061350283612541565b92508282101561351557613514612d9a565b5b828203905092915050565b6000819050919050565b61353b61353682612541565b613520565b82525050565b600061354d828461352a565b60208201915081905092915050565b60006080820190506135716000830187612a0c565b61357e6020830186612d20565b61358b6040830185612800565b6135986060830184612d20565b95945050505050565b6000819050919050565b6135bc6135b78261250b565b6135a1565b82525050565b60006135ce82856135ab565b6020820191506135de828461352a565b6020820191508190509392505050565b7f4e487b7100000000000000000000000000000000000000000000000000000000600052601260045260246000fd5b600061362882612541565b915061363383612541565b925082613643576136426135ee565b5b828206905092915050565b60008160f81b9050919050565b60006136668261364e565b9050919050565b60006136788261365b565b9050919050565b61369061368b826126c2565b61366d565b82525050565b6136a76136a28261261e565b61365b565b82525050565b60006136b9828b61367f565b6001820191506136c9828a613696565b6001820191506136d98289613696565b6001820191506136e98288613696565b6001820191506136f98287613696565b6001820191506137098286613696565b6001820191506137198285613696565b6001820191506137298284613696565b6001820191508190509998505050505050505050565b6000819050602082019050919050565b600061375b825161250b565b80915050919050565b600082821b905092915050565b600061377c826133d0565b826137868461373f565b90506137918161374f565b925060208210156137d1576137cc7fffffffffffffffffffffffffffffffffffffffffffffffffffffffffffffffff83602003600802613764565b831692505b5050919050565b60006137e38261261e565b91506137ee8361261e565b9250826137fe576137fd6135ee565b5b828206905092915050565b60006138148261261e565b915061381f8361261e565b92508160ff048311821515161561383957613838612d9a565b5b82820290509291505056fea264697066735822122067a2268b511cd05c0ee916714d0c107c59277a262b970e9f34501505c6d474e964736f6c634300080a0033",
  "immutableReferences": {},
  "source": "// SPDX-License-Identifier: MIT\n\npragma solidity ^0.8.0;\n\nimport \"@openzeppelin/contracts-upgradeable/proxy/utils/Initializable.sol\";\nimport \"./ControllableUpgradeable.sol\";\nimport \"./VRFConsumer.sol\";\nimport \"./IMint.sol\";\nimport \"./ICharacter.sol\";\n\ncontract Mint is Initializable, OwnableUpgradeable, IMint, VRFConsumer, ControllableUpgradeable {\n  uint8[][18] public rarities; // List of probabilities for each trait type, 0 - 9 are associated with Chefs, 10 - 18 are associated with Rats\n  mapping(uint256 => bytes32) public existingCombinations; // Mapping from hashed(tokenTrait) to the tokenId it's associated with, used to ensure there are no duplicates\n\n  ICharacter character; // Reference to the Character\n  bytes32 internal keyHash;\n  uint256 internal fee;\n  mapping(bytes32 => VRFStruct) public vrfRequests; // Mapping from tokenId to a struct containing the token's traits\n\n  event RandomNumberRequested(\n    bytes32 requestId,\n    address sender\n  );\n  event RandomNumberFulfilled(\n    bytes32 requestId,\n    address sender\n  );\n\n  function initialize(\n    address _vrfCoordinator,\n    address _link,\n    bytes32 _keyHash,\n    uint256 _fee\n  ) external initializer {\n    __Ownable_init();\n\n    vrfCoordinator = _vrfCoordinator;\n    link = LinkTokenInterface(_link);\n    keyHash = _keyHash;\n    fee = _fee;\n\n    // Chefs\n    rarities[2] = [255, 223, 191, 159, 127, 95]; // hat\n    rarities[3] = [255, 223, 191, 159, 127, 95, 63, 31]; // eyes\n    rarities[4] = [255, 223, 191, 159, 127, 95]; // mouth\n    rarities[5] = [255, 207, 159, 111, 63, 15]; // neck\n    rarities[6] = [255, 223, 191, 159, 127, 95]; // hand\n    // Rats\n    rarities[12] = [255, 223, 191, 159, 127, 95]; // hat\n    rarities[13] = [255, 223, 191, 159, 127, 95, 63, 31]; // eyes\n    rarities[14] = [255, 223, 191, 159, 127, 95]; // piercing\n    rarities[15] = [255, 207, 159, 111, 63, 15]; // neck\n    rarities[16] = [255, 223, 191, 159, 127, 95]; // tail\n  }\n\n  /**\n   * Set ChainLink VRF params\n   * @param _vrfCoordinator - ChainLink's VRF coordinator contract address\n   * @param _link - ChinLink token contract address\n   * @param _keyHash - ChainLink env specific VRF key hash\n   * @param _fee - VRF env specific gas fee\n   */\n  function setVrfParams(address _vrfCoordinator, address _link, bytes32 _keyHash, uint256 _fee) external onlyOwner {\n    vrfCoordinator = _vrfCoordinator;\n    link = LinkTokenInterface(_link);\n    keyHash = _keyHash;\n    fee = _fee;\n  }\n\n  /**\n   * Requests a random number from ChainLink VRF and stores the request until it's fulfilled, called by Character.mint().\n   * @param sender - User wallet address\n   * @param amount - Amount of tokens to mint\n   * @param stake - Whether to right away stake those Characters\n   * @return requestId - VRF request ID\n   */\n  function requestRandomNumber(address sender, uint8 amount, bool stake, int8 boost) external onlyController returns (bytes32 requestId) {\n    require(link.balanceOf(address(this)) >= fee, \"Insufficient LINK\");\n    requestId = requestRandomness(keyHash, fee);\n    VRFStruct memory v = VRFStruct({ requestId: requestId, sender: sender, amount: amount, stake: stake, boost: boost });\n    vrfRequests[requestId] = v;\n    emit RandomNumberRequested(requestId, sender);\n  }\n\n  /**\n   * ChainLink VRF callback for requestRandomNumber()\n   * @param requestId - VRF request ID\n   * @param randomness - Random value created by VRF\n   */\n  function fulfillRandomness(bytes32 requestId, uint256 randomness) internal override {\n    VRFStruct memory v = vrfRequests[requestId];\n    require(v.requestId != 0, \"VRF request ID not found\");\n    ICharacter.CharacterStruct[] memory tokens = new ICharacter.CharacterStruct[](v.amount);\n\n    for (uint i = 0; i < v.amount; i++) {\n      tokens[i] = generate(requestId, uint256(keccak256(abi.encode(randomness, i))));\n      tokens[i].boost = v.boost;\n    }\n\n    delete vrfRequests[requestId];\n    character.fulfillMint(v, tokens);\n    emit RandomNumberFulfilled(requestId, v.sender);\n  }\n\n  /**\n   * Getter for the given VRF request\n   * @param requestId - ChainLink VRF request ID\n   * @return A struct of the VRF request\n   */\n  function getVrfRequest(bytes32 requestId) external view returns(VRFStruct memory) {\n    return vrfRequests[requestId];\n  }\n\n  /**\n   * Generates traits for a specific token, checking to make sure it's unique\n   * @param requestId - A VRF request ID\n   * @param seed - A VRF seed\n   * @return t - A struct of traits for the given token ID\n   */\n  function generate(bytes32 requestId, uint256 seed) internal returns (ICharacter.CharacterStruct memory t) {\n    t = selectTraits(seed);\n    uint256 hash = structToHash(t);\n    if (existingCombinations[hash] == 0) {\n      existingCombinations[hash] = requestId;\n      return t;\n    }\n    return generate(requestId, uint256(keccak256(abi.encodePacked(seed - 1))));\n  }\n\n  /**\n   * Selects the species and all of its traits based on the seed value\n   * @param seed - A pseudorandom 256 bit number to derive traits from\n   * @return t -  A struct of randomly selected traits\n   */\n  function selectTraits(uint256 seed) internal view returns (ICharacter.CharacterStruct memory t) {\n    t.isChef = (seed & 0xFFFF) % 10 != 0;\n    if (t.isChef) {\n      t.hat = selectTrait(seed, 2);\n      t.eyes = selectTrait(seed, 3);\n      t.mouth = selectTrait(seed, 4);\n      t.neck = selectTrait(seed, 5);\n      t.hand = selectTrait(seed, 6);\n    } else {\n      t.hat = selectTrait(seed, 12);\n      t.eyes = selectTrait(seed, 13);\n      t.piercing = selectTrait(seed, 14);\n      t.neck = selectTrait(seed, 15);\n      t.tail = selectTrait(seed, 16);\n    }\n    return t;\n  }\n\n  /**\n   * Uses A.J. Walker's Alias algorithm for O(1) rarity table lookup\n   * ensuring O(1) instead of O(n) reduces mint cost by more than 50%\n   * probability & alias tables are generated off-chain beforehand\n   * @param seed - Portion of the 256 bit seed to remove trait correlation\n   * @param traitIndex - The trait index to select a trait for\n   * @return The ID of the randomly selected trait\n   */\n  function selectTrait(uint256 seed, uint8 traitIndex) internal view returns (uint8) {\n    seed = seed >>= (traitIndex % 10 * 16);\n    uint8 trait = uint8(seed) % uint8(rarities[traitIndex].length); // Selected trait index\n    uint8 rand = uint8(seed & 0xFFFF >> 8); // Random integer from 0 to 255\n    if (rand <= rarities[traitIndex][trait]) return trait;\n    return 0;\n  }\n\n  /**\n   * Converts a struct to a 256 bit hash to check for uniqueness\n   * @param s - The struct to pack into a hash\n   * @return The 256 bit hash of the struct\n   */\n  function structToHash(ICharacter.CharacterStruct memory s) internal pure returns (uint256) {\n    return uint256(bytes32(\n      abi.encodePacked(\n        s.isChef,\n        s.hat,\n        s.eyes,\n        s.piercing,\n        s.mouth,\n        s.neck,\n        s.hand,\n        s.tail\n      )\n    ));\n  }\n\n  /**\n   * Set the character address\n   * @param _character - The address of the Character\n   */\n  function setCharacter(address _character) external onlyOwner {\n    character = ICharacter(_character);\n  }\n}\n",
  "sourcePath": "/Users/chris/workspace/ratalert/ratalert-contracts/contracts/Mint.sol",
  "compiler": {
    "name": "solc",
    "version": "0.8.10+commit.fc410830.Emscripten.clang"
  },
  "schemaVersion": "3.4.7",
  "updatedAt": "2022-07-04T20:25:38.654Z",
  "devdoc": {
    "kind": "dev",
    "methods": {
      "addController(address[])": {
        "params": {
          "_controllers": "- The addresses to enable"
        }
      },
      "controller(address)": {
        "params": {
          "_controller": "- The address to check"
        }
      },
      "getVrfRequest(bytes32)": {
        "params": {
          "requestId": "- ChainLink VRF request ID"
        },
        "returns": {
          "_0": "A struct of the VRF request"
        }
      },
      "initialize(address,address)": {
        "params": {
          "_vrfCoordinator": "- Address of VRFCoordinator contract"
        }
      },
      "owner()": {
        "details": "Returns the address of the current owner."
      },
      "rawFulfillRandomness(bytes32,uint256)": {
        "params": {
          "randomness": "- The VRF output",
          "requestId": "- Unique ID for this request"
        }
      },
      "removeController(address[])": {
        "params": {
          "_controllers": "- The addresses to disable"
        }
      },
      "renounceOwnership()": {
        "details": "Leaves the contract without owner. It will not be possible to call `onlyOwner` functions anymore. Can only be called by the current owner. NOTE: Renouncing ownership will leave the contract without an owner, thereby removing any functionality that is only available to the owner."
      },
      "requestRandomNumber(address,uint8,bool,int8)": {
        "params": {
          "amount": "- Amount of tokens to mint",
          "sender": "- User wallet address",
          "stake": "- Whether to right away stake those Characters"
        },
        "returns": {
          "requestId": "- VRF request ID"
        }
      },
      "setCharacter(address)": {
        "params": {
          "_character": "- The address of the Character"
        }
      },
      "setVrfParams(address,address,bytes32,uint256)": {
        "params": {
          "_fee": "- VRF env specific gas fee",
          "_keyHash": "- ChainLink env specific VRF key hash",
          "_link": "- ChinLink token contract address",
          "_vrfCoordinator": "- ChainLink's VRF coordinator contract address"
        }
      },
      "transferOwnership(address)": {
        "details": "Transfers ownership of the contract to a new account (`newOwner`). Can only be called by the current owner."
      },
      "withdrawLink(uint256)": {
        "params": {
          "amount": "- Amount of LINK to send"
        },
        "returns": {
          "success": "- Whether the transaction succeeded"
        }
      }
    },
    "version": 1
  },
  "userdoc": {
    "kind": "user",
    "methods": {
      "addController(address[])": {
        "notice": "Enables multiple addresses to execute"
      },
      "controller(address)": {
        "notice": "Gets controller status by address"
      },
      "getVrfRequest(bytes32)": {
        "notice": "Getter for the given VRF request"
      },
      "rawFulfillRandomness(bytes32,uint256)": {
        "notice": "Callback function used by ChainLink"
      },
      "removeController(address[])": {
        "notice": "Prevents multiple addresses from executing"
      },
      "requestRandomNumber(address,uint8,bool,int8)": {
        "notice": "Requests a random number from ChainLink VRF and stores the request until it's fulfilled, called by Character.mint()."
      },
      "setCharacter(address)": {
        "notice": "Set the character address"
      },
      "setVrfParams(address,address,bytes32,uint256)": {
        "notice": "Set ChainLink VRF params"
      },
      "withdrawLink(uint256)": {
        "notice": "Sends the given LINK amount back to the owner"
      }
    },
    "version": 1
  }
}