{
  "contractName": "Mint",
  "abi": [
    {
      "anonymous": false,
      "inputs": [
        {
          "indexed": true,
          "internalType": "address",
          "name": "previousOwner",
          "type": "address"
        },
        {
          "indexed": true,
          "internalType": "address",
          "name": "newOwner",
          "type": "address"
        }
      ],
      "name": "OwnershipTransferred",
      "type": "event"
    },
    {
      "anonymous": false,
      "inputs": [
        {
          "indexed": false,
          "internalType": "bytes32",
          "name": "requestId",
          "type": "bytes32"
        },
        {
          "indexed": false,
          "internalType": "address",
          "name": "sender",
          "type": "address"
        }
      ],
      "name": "RandomNumberFulfilled",
      "type": "event"
    },
    {
      "anonymous": false,
      "inputs": [
        {
          "indexed": false,
          "internalType": "bytes32",
          "name": "requestId",
          "type": "bytes32"
        },
        {
          "indexed": false,
          "internalType": "address",
          "name": "sender",
          "type": "address"
        }
      ],
      "name": "RandomNumberRequested",
      "type": "event"
    },
    {
      "anonymous": false,
      "inputs": [
        {
          "indexed": true,
          "internalType": "address",
          "name": "from",
          "type": "address"
        },
        {
          "indexed": true,
          "internalType": "address",
          "name": "to",
          "type": "address"
        },
        {
          "indexed": true,
          "internalType": "uint256",
          "name": "tokenId",
          "type": "uint256"
        }
      ],
      "name": "Transfer",
      "type": "event"
    },
    {
      "inputs": [
        {
          "internalType": "address[]",
          "name": "_controllers",
          "type": "address[]"
        }
      ],
      "name": "addController",
      "outputs": [],
      "stateMutability": "nonpayable",
      "type": "function"
    },
    {
      "inputs": [
        {
          "internalType": "address",
          "name": "_controller",
          "type": "address"
        }
      ],
      "name": "controller",
      "outputs": [
        {
          "internalType": "bool",
          "name": "",
          "type": "bool"
        }
      ],
      "stateMutability": "view",
      "type": "function",
      "constant": true
    },
    {
      "inputs": [
        {
          "internalType": "uint256",
          "name": "",
          "type": "uint256"
        }
      ],
      "name": "existingCombinations",
      "outputs": [
        {
          "internalType": "bytes32",
          "name": "",
          "type": "bytes32"
        }
      ],
      "stateMutability": "view",
      "type": "function",
      "constant": true
    },
    {
      "inputs": [],
      "name": "owner",
      "outputs": [
        {
          "internalType": "address",
          "name": "",
          "type": "address"
        }
      ],
      "stateMutability": "view",
      "type": "function",
      "constant": true
    },
    {
      "inputs": [
        {
          "internalType": "uint256",
          "name": "",
          "type": "uint256"
        },
        {
          "internalType": "uint256",
          "name": "",
          "type": "uint256"
        }
      ],
      "name": "rarities",
      "outputs": [
        {
          "internalType": "uint8",
          "name": "",
          "type": "uint8"
        }
      ],
      "stateMutability": "view",
      "type": "function",
      "constant": true
    },
    {
      "inputs": [
        {
          "internalType": "bytes32",
          "name": "requestId",
          "type": "bytes32"
        },
        {
          "internalType": "uint256",
          "name": "randomness",
          "type": "uint256"
        }
      ],
      "name": "rawFulfillRandomness",
      "outputs": [],
      "stateMutability": "nonpayable",
      "type": "function"
    },
    {
      "inputs": [
        {
          "internalType": "address[]",
          "name": "_controllers",
          "type": "address[]"
        }
      ],
      "name": "removeController",
      "outputs": [],
      "stateMutability": "nonpayable",
      "type": "function"
    },
    {
      "inputs": [],
      "name": "renounceOwnership",
      "outputs": [],
      "stateMutability": "nonpayable",
      "type": "function"
    },
    {
      "inputs": [
        {
          "internalType": "address",
          "name": "_dao",
          "type": "address"
        }
      ],
      "name": "setDao",
      "outputs": [],
      "stateMutability": "nonpayable",
      "type": "function"
    },
    {
      "inputs": [
        {
          "internalType": "address",
          "name": "newOwner",
          "type": "address"
        }
      ],
      "name": "transferOwnership",
      "outputs": [],
      "stateMutability": "nonpayable",
      "type": "function"
    },
    {
      "inputs": [
        {
          "internalType": "bytes32",
          "name": "",
          "type": "bytes32"
        }
      ],
      "name": "vrfRequests",
      "outputs": [
        {
          "internalType": "bytes32",
          "name": "requestId",
          "type": "bytes32"
        },
        {
          "internalType": "address",
          "name": "sender",
          "type": "address"
        },
        {
          "internalType": "uint8",
          "name": "amount",
          "type": "uint8"
        },
        {
          "internalType": "bool",
          "name": "stake",
          "type": "bool"
        },
        {
          "internalType": "int8",
          "name": "boost",
          "type": "int8"
        }
      ],
      "stateMutability": "view",
      "type": "function",
      "constant": true
    },
    {
      "inputs": [
        {
          "internalType": "uint256",
          "name": "amount",
          "type": "uint256"
        }
      ],
      "name": "withdrawLink",
      "outputs": [
        {
          "internalType": "bool",
          "name": "success",
          "type": "bool"
        }
      ],
      "stateMutability": "nonpayable",
      "type": "function"
    },
    {
      "inputs": [
        {
          "internalType": "address",
          "name": "_vrfCoordinator",
          "type": "address"
        },
        {
          "internalType": "address",
          "name": "_link",
          "type": "address"
        },
        {
          "internalType": "bytes32",
          "name": "_keyHash",
          "type": "bytes32"
        },
        {
          "internalType": "uint256",
          "name": "_fee",
          "type": "uint256"
        }
      ],
      "name": "initialize",
      "outputs": [],
      "stateMutability": "nonpayable",
      "type": "function"
    },
    {
      "inputs": [
        {
          "internalType": "address",
          "name": "_vrfCoordinator",
          "type": "address"
        },
        {
          "internalType": "address",
          "name": "_link",
          "type": "address"
        }
      ],
      "name": "initialize",
      "outputs": [],
      "stateMutability": "nonpayable",
      "type": "function"
    },
    {
      "inputs": [
        {
          "internalType": "address",
          "name": "_vrfCoordinator",
          "type": "address"
        },
        {
          "internalType": "address",
          "name": "_link",
          "type": "address"
        },
        {
          "internalType": "bytes32",
          "name": "_keyHash",
          "type": "bytes32"
        },
        {
          "internalType": "uint256",
          "name": "_fee",
          "type": "uint256"
        }
      ],
      "name": "setVrfParams",
      "outputs": [],
      "stateMutability": "nonpayable",
      "type": "function"
    },
    {
      "inputs": [
        {
          "internalType": "address",
          "name": "sender",
          "type": "address"
        },
        {
          "internalType": "uint8",
          "name": "amount",
          "type": "uint8"
        },
        {
          "internalType": "bool",
          "name": "stake",
          "type": "bool"
        },
        {
          "internalType": "int8",
          "name": "boost",
          "type": "int8"
        }
      ],
      "name": "requestRandomNumber",
      "outputs": [
        {
          "internalType": "bytes32",
          "name": "requestId",
          "type": "bytes32"
        }
      ],
      "stateMutability": "nonpayable",
      "type": "function"
    },
    {
      "inputs": [
        {
          "internalType": "bytes32",
          "name": "requestId",
          "type": "bytes32"
        }
      ],
      "name": "getVrfRequest",
      "outputs": [
        {
          "components": [
            {
              "internalType": "bytes32",
              "name": "requestId",
              "type": "bytes32"
            },
            {
              "internalType": "address",
              "name": "sender",
              "type": "address"
            },
            {
              "internalType": "uint8",
              "name": "amount",
              "type": "uint8"
            },
            {
              "internalType": "bool",
              "name": "stake",
              "type": "bool"
            },
            {
              "internalType": "int8",
              "name": "boost",
              "type": "int8"
            }
          ],
          "internalType": "struct IMint.VRFStruct",
          "name": "",
          "type": "tuple"
        }
      ],
      "stateMutability": "view",
      "type": "function",
      "constant": true
    },
    {
      "inputs": [
        {
          "internalType": "address",
          "name": "_character",
          "type": "address"
        }
      ],
      "name": "setCharacter",
      "outputs": [],
      "stateMutability": "nonpayable",
      "type": "function"
    }
  ],
  "bytecode": "0x608060405234801561001057600080fd5b506137f9806100206000396000f3fe608060405234801561001057600080fd5b50600436106101165760003560e01c80638da5cb5b116100a2578063a83a720211610071578063a83a7202146102c7578063c13aa7b5146102e3578063dec04e5f14610313578063e8ff04a114610347578063f2fde38b1461037757610116565b80638da5cb5b1461024157806392c405b61461025f57806394985ddd1461027b578063a1b8f3741461029757610116565b8063485cc955116100e9578063485cc9551461019f5780636637b882146101bb578063715018a6146101d75780637a8042bd146101e15780637f10b5ab1461021157610116565b8063204efe171461011b578063277a23891461013757806333df4b2c146101535780633d6b06cc14610183575b600080fd5b610135600480360381019061013091906124bc565b610393565b005b610151600480360381019061014c9190612555565b610453565b005b61016d600480360381019061016891906125bc565b610a17565b60405161017a9190612618565b60405180910390f35b61019d60048036038101906101989190612555565b610a5d565b005b6101b960048036038101906101b49190612633565b610b6f565b005b6101d560048036038101906101d091906124bc565b610cd7565b005b6101df610d97565b005b6101fb60048036038101906101f69190612673565b610e1f565b60405161020891906126bb565b60405180910390f35b61022b600480360381019061022691906126d6565b610ed0565b60405161023891906127c3565b60405180910390f35b610249610fb2565b60405161025691906127ed565b60405180910390f35b61027960048036038101906102749190612961565b610fdc565b005b610295600480360381019061029091906129aa565b6110ed565b005b6102b160048036038101906102ac9190612673565b61118b565b6040516102be91906129f9565b60405180910390f35b6102e160048036038101906102dc9190612961565b6111a3565b005b6102fd60048036038101906102f891906124bc565b6112b4565b60405161030a91906126bb565b60405180910390f35b61032d600480360381019061032891906126d6565b61130a565b60405161033e959493929190612a23565b60405180910390f35b610361600480360381019061035c9190612afa565b611387565b60405161036e91906129f9565b60405180910390f35b610391600480360381019061038c91906124bc565b6115d9565b005b61039b6116d1565b73ffffffffffffffffffffffffffffffffffffffff166103b9610fb2565b73ffffffffffffffffffffffffffffffffffffffff161461040f576040517f08c379a000000000000000000000000000000000000000000000000000000000815260040161040690612bbe565b60405180910390fd5b80607d60006101000a81548173ffffffffffffffffffffffffffffffffffffffff021916908373ffffffffffffffffffffffffffffffffffffffff16021790555050565b600060019054906101000a900460ff1661047b5760008054906101000a900460ff1615610484565b6104836116d9565b5b6104c3576040517f08c379a00000000000000000000000000000000000000000000000000000000081526004016104ba90612c50565b60405180910390fd5b60008060019054906101000a900460ff161590508015610513576001600060016101000a81548160ff02191690831515021790555060016000806101000a81548160ff0219169083151502179055505b61051b6116ea565b84606760006101000a81548173ffffffffffffffffffffffffffffffffffffffff021916908373ffffffffffffffffffffffffffffffffffffffff16021790555083606660006101000a81548173ffffffffffffffffffffffffffffffffffffffff021916908373ffffffffffffffffffffffffffffffffffffffff16021790555082607e8190555081607f819055506040518060c0016040528060ff8016815260200160df60ff16815260200160bf60ff168152602001609f60ff168152602001607f60ff168152602001605f60ff16815250606a60026012811061060457610603612c70565b5b01906006610613929190612217565b5060405180610100016040528060ff8016815260200160df60ff16815260200160bf60ff168152602001609f60ff168152602001607f60ff168152602001605f60ff168152602001603f60ff168152602001601f60ff16815250606a60036012811061068257610681612c70565b5b019060086106919291906122be565b506040518060c0016040528060ff8016815260200160df60ff16815260200160bf60ff168152602001609f60ff168152602001607f60ff168152602001605f60ff16815250606a6004601281106106eb576106ea612c70565b5b019060066106fa929190612217565b506040518060c0016040528060ff8016815260200160cf60ff168152602001609f60ff168152602001606f60ff168152602001603f60ff168152602001600f60ff16815250606a60056012811061075457610753612c70565b5b01906006610763929190612217565b506040518060c0016040528060ff8016815260200160df60ff16815260200160bf60ff168152602001609f60ff168152602001607f60ff168152602001605f60ff16815250606a6006601281106107bd576107bc612c70565b5b019060066107cc929190612217565b506040518060c0016040528060ff8016815260200160df60ff16815260200160bf60ff168152602001609f60ff168152602001607f60ff168152602001605f60ff16815250606a600c6012811061082657610825612c70565b5b01906006610835929190612217565b5060405180610100016040528060ff8016815260200160df60ff16815260200160bf60ff168152602001609f60ff168152602001607f60ff168152602001605f60ff168152602001603f60ff168152602001601f60ff16815250606a600d601281106108a4576108a3612c70565b5b019060086108b39291906122be565b506040518060c0016040528060ff8016815260200160df60ff16815260200160bf60ff168152602001609f60ff168152602001607f60ff168152602001605f60ff16815250606a600e6012811061090d5761090c612c70565b5b0190600661091c929190612217565b506040518060c0016040528060ff8016815260200160cf60ff168152602001609f60ff168152602001606f60ff168152602001603f60ff168152602001600f60ff16815250606a600f6012811061097657610975612c70565b5b01906006610985929190612217565b506040518060c0016040528060ff8016815260200160df60ff16815260200160bf60ff168152602001609f60ff168152602001607f60ff168152602001605f60ff16815250606a6010601281106109df576109de612c70565b5b019060066109ee929190612217565b508015610a105760008060016101000a81548160ff0219169083151502179055505b5050505050565b606a8260128110610a2757600080fd5b018181548110610a3657600080fd5b9060005260206000209060209182820401919006915091509054906101000a900460ff1681565b610a656116d1565b73ffffffffffffffffffffffffffffffffffffffff16610a83610fb2565b73ffffffffffffffffffffffffffffffffffffffff1614610ad9576040517f08c379a0000000000000000000000000000000000000000000000000000000008152600401610ad090612bbe565b60405180910390fd5b83606760006101000a81548173ffffffffffffffffffffffffffffffffffffffff021916908373ffffffffffffffffffffffffffffffffffffffff16021790555082606660006101000a81548173ffffffffffffffffffffffffffffffffffffffff021916908373ffffffffffffffffffffffffffffffffffffffff16021790555081607e8190555080607f8190555050505050565b600060019054906101000a900460ff16610b975760008054906101000a900460ff1615610ba0565b610b9f6116d9565b5b610bdf576040517f08c379a0000000000000000000000000000000000000000000000000000000008152600401610bd690612c50565b60405180910390fd5b60008060019054906101000a900460ff161590508015610c2f576001600060016101000a81548160ff02191690831515021790555060016000806101000a81548160ff0219169083151502179055505b82606760006101000a81548173ffffffffffffffffffffffffffffffffffffffff021916908373ffffffffffffffffffffffffffffffffffffffff16021790555081606660006101000a81548173ffffffffffffffffffffffffffffffffffffffff021916908373ffffffffffffffffffffffffffffffffffffffff1602179055508015610cd25760008060016101000a81548160ff0219169083151502179055505b505050565b610cdf6116d1565b73ffffffffffffffffffffffffffffffffffffffff16610cfd610fb2565b73ffffffffffffffffffffffffffffffffffffffff1614610d53576040517f08c379a0000000000000000000000000000000000000000000000000000000008152600401610d4a90612bbe565b60405180910390fd5b80606560006101000a81548173ffffffffffffffffffffffffffffffffffffffff021916908373ffffffffffffffffffffffffffffffffffffffff16021790555050565b610d9f6116d1565b73ffffffffffffffffffffffffffffffffffffffff16610dbd610fb2565b73ffffffffffffffffffffffffffffffffffffffff1614610e13576040517f08c379a0000000000000000000000000000000000000000000000000000000008152600401610e0a90612bbe565b60405180910390fd5b610e1d6000611743565b565b6000610e29611809565b606660009054906101000a900473ffffffffffffffffffffffffffffffffffffffff1673ffffffffffffffffffffffffffffffffffffffff1663a9059cbb32846040518363ffffffff1660e01b8152600401610e86929190612cae565b6020604051808303816000875af1158015610ea5573d6000803e3d6000fd5b505050506040513d601f19601f82011682018060405250810190610ec99190612cec565b9050919050565b610ed8612365565b608060008381526020019081526020016000206040518060a0016040529081600082015481526020016001820160009054906101000a900473ffffffffffffffffffffffffffffffffffffffff1673ffffffffffffffffffffffffffffffffffffffff1673ffffffffffffffffffffffffffffffffffffffff1681526020016001820160149054906101000a900460ff1660ff1660ff1681526020016001820160159054906101000a900460ff161515151581526020016001820160169054906101000a900460000b60000b60000b815250509050919050565b6000603360009054906101000a900473ffffffffffffffffffffffffffffffffffffffff16905090565b610fe46116d1565b73ffffffffffffffffffffffffffffffffffffffff16611002610fb2565b73ffffffffffffffffffffffffffffffffffffffff1614611058576040517f08c379a000000000000000000000000000000000000000000000000000000000815260040161104f90612bbe565b60405180910390fd5b60005b81518110156110e95760006069600084848151811061107d5761107c612c70565b5b602002602001015173ffffffffffffffffffffffffffffffffffffffff1673ffffffffffffffffffffffffffffffffffffffff16815260200190815260200160002060006101000a81548160ff02191690831515021790555080806110e190612d48565b91505061105b565b5050565b606760009054906101000a900473ffffffffffffffffffffffffffffffffffffffff1673ffffffffffffffffffffffffffffffffffffffff163373ffffffffffffffffffffffffffffffffffffffff161461117d576040517f08c379a000000000000000000000000000000000000000000000000000000000815260040161117490612ddd565b60405180910390fd5b611187828261189b565b5050565b607c6020528060005260406000206000915090505481565b6111ab6116d1565b73ffffffffffffffffffffffffffffffffffffffff166111c9610fb2565b73ffffffffffffffffffffffffffffffffffffffff161461121f576040517f08c379a000000000000000000000000000000000000000000000000000000000815260040161121690612bbe565b60405180910390fd5b60005b81518110156112b05760016069600084848151811061124457611243612c70565b5b602002602001015173ffffffffffffffffffffffffffffffffffffffff1673ffffffffffffffffffffffffffffffffffffffff16815260200190815260200160002060006101000a81548160ff02191690831515021790555080806112a890612d48565b915050611222565b5050565b6000606960008373ffffffffffffffffffffffffffffffffffffffff1673ffffffffffffffffffffffffffffffffffffffff16815260200190815260200160002060009054906101000a900460ff169050919050565b60806020528060005260406000206000915090508060000154908060010160009054906101000a900473ffffffffffffffffffffffffffffffffffffffff16908060010160149054906101000a900460ff16908060010160159054906101000a900460ff16908060010160169054906101000a900460000b905085565b6000611391611c18565b607f54606660009054906101000a900473ffffffffffffffffffffffffffffffffffffffff1673ffffffffffffffffffffffffffffffffffffffff166370a08231306040518263ffffffff1660e01b81526004016113ef91906127ed565b602060405180830381865afa15801561140c573d6000803e3d6000fd5b505050506040513d601f19601f820116820180604052508101906114309190612e12565b1015611471576040517f08c379a000000000000000000000000000000000000000000000000000000000815260040161146890612e8b565b60405180910390fd5b61147f607e54607f54611ca6565b905060006040518060a001604052808381526020018773ffffffffffffffffffffffffffffffffffffffff1681526020018660ff16815260200185151581526020018460000b815250905080608060008481526020019081526020016000206000820151816000015560208201518160010160006101000a81548173ffffffffffffffffffffffffffffffffffffffff021916908373ffffffffffffffffffffffffffffffffffffffff16021790555060408201518160010160146101000a81548160ff021916908360ff16021790555060608201518160010160156101000a81548160ff02191690831515021790555060808201518160010160166101000a81548160ff021916908360000b60ff1602179055509050507fa604c1d75d1d5480c3a226f3b59c2be444c037ab3cbc22c688fa02ddcaedd13582876040516115c8929190612eab565b60405180910390a150949350505050565b6115e16116d1565b73ffffffffffffffffffffffffffffffffffffffff166115ff610fb2565b73ffffffffffffffffffffffffffffffffffffffff1614611655576040517f08c379a000000000000000000000000000000000000000000000000000000000815260040161164c90612bbe565b60405180910390fd5b600073ffffffffffffffffffffffffffffffffffffffff168173ffffffffffffffffffffffffffffffffffffffff1614156116c5576040517f08c379a00000000000000000000000000000000000000000000000000000000081526004016116bc90612f46565b60405180910390fd5b6116ce81611743565b50565b600033905090565b60006116e430611dfd565b15905090565b600060019054906101000a900460ff16611739576040517f08c379a000000000000000000000000000000000000000000000000000000000815260040161173090612fd8565b60405180910390fd5b611741611e20565b565b6000603360009054906101000a900473ffffffffffffffffffffffffffffffffffffffff16905081603360006101000a81548173ffffffffffffffffffffffffffffffffffffffff021916908373ffffffffffffffffffffffffffffffffffffffff1602179055508173ffffffffffffffffffffffffffffffffffffffff168173ffffffffffffffffffffffffffffffffffffffff167f8be0079c531659141344cd1fd0a4f28419497f9722a3daafe3b4186f6b6457e060405160405180910390a35050565b606560009054906101000a900473ffffffffffffffffffffffffffffffffffffffff1673ffffffffffffffffffffffffffffffffffffffff163373ffffffffffffffffffffffffffffffffffffffff1614611899576040517f08c379a000000000000000000000000000000000000000000000000000000000815260040161189090613044565b60405180910390fd5b565b6000608060008481526020019081526020016000206040518060a0016040529081600082015481526020016001820160009054906101000a900473ffffffffffffffffffffffffffffffffffffffff1673ffffffffffffffffffffffffffffffffffffffff1673ffffffffffffffffffffffffffffffffffffffff1681526020016001820160149054906101000a900460ff1660ff1660ff1681526020016001820160159054906101000a900460ff161515151581526020016001820160169054906101000a900460000b60000b60000b8152505090506000801b816000015114156119bc576040517f08c379a00000000000000000000000000000000000000000000000000000000081526004016119b3906130b0565b60405180910390fd5b6000816040015160ff1667ffffffffffffffff8111156119df576119de61281e565b5b604051908082528060200260200182016040528015611a1857816020015b611a056123b4565b8152602001906001900390816119fd5790505b50905060005b826040015160ff16811015611ac457611a62858583604051602001611a449291906130d0565b6040516020818303038152906040528051906020012060001c611e81565b828281518110611a7557611a74612c70565b5b60200260200101819052508260800151828281518110611a9857611a97612c70565b5b6020026020010151610140019060000b908160000b815250508080611abc90612d48565b915050611a1e565b50608060008581526020019081526020016000206000808201600090556001820160006101000a81549073ffffffffffffffffffffffffffffffffffffffff02191690556001820160146101000a81549060ff02191690556001820160156101000a81549060ff02191690556001820160166101000a81549060ff02191690555050607d60009054906101000a900473ffffffffffffffffffffffffffffffffffffffff1673ffffffffffffffffffffffffffffffffffffffff16636931a2ba83836040518363ffffffff1660e01b8152600401611ba392919061328a565b600060405180830381600087803b158015611bbd57600080fd5b505af1158015611bd1573d6000803e3d6000fd5b505050507f697b04c8163be56dde69d35841ac4e03926065129a0340b2ef2199336f903971848360200151604051611c0a929190612eab565b60405180910390a150505050565b606960003373ffffffffffffffffffffffffffffffffffffffff1673ffffffffffffffffffffffffffffffffffffffff16815260200190815260200160002060009054906101000a900460ff16611ca4576040517f08c379a0000000000000000000000000000000000000000000000000000000008152600401611c9b90613306565b60405180910390fd5b565b6000606660009054906101000a900473ffffffffffffffffffffffffffffffffffffffff1673ffffffffffffffffffffffffffffffffffffffff16634000aea0606760009054906101000a900473ffffffffffffffffffffffffffffffffffffffff1684866000604051602001611d1e929190613326565b6040516020818303038152906040526040518463ffffffff1660e01b8152600401611d4b939291906133d7565b6020604051808303816000875af1158015611d6a573d6000803e3d6000fd5b505050506040513d601f19601f82011682018060405250810190611d8e9190612cec565b506000611db1846000306068600089815260200190815260200160002054611f26565b905060016068600086815260200190815260200160002054611dd39190613415565b6068600086815260200190815260200160002081905550611df48482611f62565b91505092915050565b6000808273ffffffffffffffffffffffffffffffffffffffff163b119050919050565b600060019054906101000a900460ff16611e6f576040517f08c379a0000000000000000000000000000000000000000000000000000000008152600401611e6690612fd8565b60405180910390fd5b611e7f611e7a6116d1565b611743565b565b611e896123b4565b611e9282611f95565b90506000611e9f826120ee565b90506000801b607c6000838152602001908152602001600020541415611edd5783607c60008381526020019081526020016000208190555050611f20565b611f1c84600185611eee919061346b565b604051602001611efe91906134c0565b6040516020818303038152906040528051906020012060001c611e81565b9150505b92915050565b600084848484604051602001611f3f94939291906134db565b6040516020818303038152906040528051906020012060001c9050949350505050565b60008282604051602001611f77929190613541565b60405160208183030381529060405280519060200120905092915050565b611f9d6123b4565b6000600a61ffff8416611fb0919061359c565b141581600001901515908115158152505080600001511561205c57611fd6826002612151565b816020019060ff16908160ff1681525050611ff2826003612151565b816040019060ff16908160ff168152505061200e826004612151565b816080019060ff16908160ff168152505061202a826005612151565b8160a0019060ff16908160ff1681525050612046826006612151565b8160c0019060ff16908160ff16815250506120e9565b61206782600c612151565b816020019060ff16908160ff168152505061208382600d612151565b816040019060ff16908160ff168152505061209f82600e612151565b816060019060ff16908160ff16815250506120bb82600f612151565b8160a0019060ff16908160ff16815250506120d7826010612151565b8160e0019060ff16908160ff16815250505b919050565b6000816000015182602001518360400151846060015185608001518660a001518760c001518860e0015160405160200161212f98979695949392919061362c565b604051602081830303815290604052612147906136f0565b60001c9050919050565b60006010600a836121629190613757565b61216c9190613788565b60ff1683901c92506000606a8360ff166012811061218d5761218c612c70565b5b01805490508461219d9190613757565b9050600060ff85169050606a8460ff16601281106121be576121bd612c70565b5b018260ff16815481106121d4576121d3612c70565b5b90600052602060002090602091828204019190069054906101000a900460ff1660ff168160ff161161220a578192505050612211565b6000925050505b92915050565b82805482825590600052602060002090601f016020900481019282156122ad5791602002820160005b8382111561227e57835183826101000a81548160ff021916908360ff1602179055509260200192600101602081600001049283019260010302612240565b80156122ab5782816101000a81549060ff021916905560010160208160000104928301926001030261227e565b505b5090506122ba919061242d565b5090565b82805482825590600052602060002090601f016020900481019282156123545791602002820160005b8382111561232557835183826101000a81548160ff021916908360ff16021790555092602001926001016020816000010492830192600103026122e7565b80156123525782816101000a81549060ff0219169055600101602081600001049283019260010302612325565b505b509050612361919061242d565b5090565b6040518060a0016040528060008019168152602001600073ffffffffffffffffffffffffffffffffffffffff168152602001600060ff1681526020016000151581526020016000800b81525090565b604051806101600160405280600015158152602001600060ff168152602001600060ff168152602001600060ff168152602001600060ff168152602001600060ff168152602001600060ff168152602001600060ff168152602001600060ff168152602001600060ff1681526020016000800b81525090565b5b8082111561244657600081600090555060010161242e565b5090565b6000604051905090565b600080fd5b600080fd5b600073ffffffffffffffffffffffffffffffffffffffff82169050919050565b60006124898261245e565b9050919050565b6124998161247e565b81146124a457600080fd5b50565b6000813590506124b681612490565b92915050565b6000602082840312156124d2576124d1612454565b5b60006124e0848285016124a7565b91505092915050565b6000819050919050565b6124fc816124e9565b811461250757600080fd5b50565b600081359050612519816124f3565b92915050565b6000819050919050565b6125328161251f565b811461253d57600080fd5b50565b60008135905061254f81612529565b92915050565b6000806000806080858703121561256f5761256e612454565b5b600061257d878288016124a7565b945050602061258e878288016124a7565b935050604061259f8782880161250a565b92505060606125b087828801612540565b91505092959194509250565b600080604083850312156125d3576125d2612454565b5b60006125e185828601612540565b92505060206125f285828601612540565b9150509250929050565b600060ff82169050919050565b612612816125fc565b82525050565b600060208201905061262d6000830184612609565b92915050565b6000806040838503121561264a57612649612454565b5b6000612658858286016124a7565b9250506020612669858286016124a7565b9150509250929050565b60006020828403121561268957612688612454565b5b600061269784828501612540565b91505092915050565b60008115159050919050565b6126b5816126a0565b82525050565b60006020820190506126d060008301846126ac565b92915050565b6000602082840312156126ec576126eb612454565b5b60006126fa8482850161250a565b91505092915050565b61270c816124e9565b82525050565b61271b8161247e565b82525050565b61272a816125fc565b82525050565b612739816126a0565b82525050565b60008160000b9050919050565b6127558161273f565b82525050565b60a0820160008201516127716000850182612703565b5060208201516127846020850182612712565b5060408201516127976040850182612721565b5060608201516127aa6060850182612730565b5060808201516127bd608085018261274c565b50505050565b600060a0820190506127d8600083018461275b565b92915050565b6127e78161247e565b82525050565b600060208201905061280260008301846127de565b92915050565b600080fd5b6000601f19601f8301169050919050565b7f4e487b7100000000000000000000000000000000000000000000000000000000600052604160045260246000fd5b6128568261280d565b810181811067ffffffffffffffff821117156128755761287461281e565b5b80604052505050565b600061288861244a565b9050612894828261284d565b919050565b600067ffffffffffffffff8211156128b4576128b361281e565b5b602082029050602081019050919050565b600080fd5b60006128dd6128d884612899565b61287e565b90508083825260208201905060208402830185811115612900576128ff6128c5565b5b835b81811015612929578061291588826124a7565b845260208401935050602081019050612902565b5050509392505050565b600082601f83011261294857612947612808565b5b81356129588482602086016128ca565b91505092915050565b60006020828403121561297757612976612454565b5b600082013567ffffffffffffffff81111561299557612994612459565b5b6129a184828501612933565b91505092915050565b600080604083850312156129c1576129c0612454565b5b60006129cf8582860161250a565b92505060206129e085828601612540565b9150509250929050565b6129f3816124e9565b82525050565b6000602082019050612a0e60008301846129ea565b92915050565b612a1d8161273f565b82525050565b600060a082019050612a3860008301886129ea565b612a4560208301876127de565b612a526040830186612609565b612a5f60608301856126ac565b612a6c6080830184612a14565b9695505050505050565b612a7f816125fc565b8114612a8a57600080fd5b50565b600081359050612a9c81612a76565b92915050565b612aab816126a0565b8114612ab657600080fd5b50565b600081359050612ac881612aa2565b92915050565b612ad78161273f565b8114612ae257600080fd5b50565b600081359050612af481612ace565b92915050565b60008060008060808587031215612b1457612b13612454565b5b6000612b22878288016124a7565b9450506020612b3387828801612a8d565b9350506040612b4487828801612ab9565b9250506060612b5587828801612ae5565b91505092959194509250565b600082825260208201905092915050565b7f4f776e61626c653a2063616c6c6572206973206e6f7420746865206f776e6572600082015250565b6000612ba8602083612b61565b9150612bb382612b72565b602082019050919050565b60006020820190508181036000830152612bd781612b9b565b9050919050565b7f496e697469616c697a61626c653a20636f6e747261637420697320616c72656160008201527f647920696e697469616c697a6564000000000000000000000000000000000000602082015250565b6000612c3a602e83612b61565b9150612c4582612bde565b604082019050919050565b60006020820190508181036000830152612c6981612c2d565b9050919050565b7f4e487b7100000000000000000000000000000000000000000000000000000000600052603260045260246000fd5b612ca88161251f565b82525050565b6000604082019050612cc360008301856127de565b612cd06020830184612c9f565b9392505050565b600081519050612ce681612aa2565b92915050565b600060208284031215612d0257612d01612454565b5b6000612d1084828501612cd7565b91505092915050565b7f4e487b7100000000000000000000000000000000000000000000000000000000600052601160045260246000fd5b6000612d538261251f565b91507fffffffffffffffffffffffffffffffffffffffffffffffffffffffffffffffff821415612d8657612d85612d19565b5b600182019050919050565b7f4f6e6c7920565246436f6f7264696e61746f722063616e2066756c66696c6c00600082015250565b6000612dc7601f83612b61565b9150612dd282612d91565b602082019050919050565b60006020820190508181036000830152612df681612dba565b9050919050565b600081519050612e0c81612529565b92915050565b600060208284031215612e2857612e27612454565b5b6000612e3684828501612dfd565b91505092915050565b7f496e73756666696369656e74204c494e4b000000000000000000000000000000600082015250565b6000612e75601183612b61565b9150612e8082612e3f565b602082019050919050565b60006020820190508181036000830152612ea481612e68565b9050919050565b6000604082019050612ec060008301856129ea565b612ecd60208301846127de565b9392505050565b7f4f776e61626c653a206e6577206f776e657220697320746865207a65726f206160008201527f6464726573730000000000000000000000000000000000000000000000000000602082015250565b6000612f30602683612b61565b9150612f3b82612ed4565b604082019050919050565b60006020820190508181036000830152612f5f81612f23565b9050919050565b7f496e697469616c697a61626c653a20636f6e7472616374206973206e6f74206960008201527f6e697469616c697a696e67000000000000000000000000000000000000000000602082015250565b6000612fc2602b83612b61565b9150612fcd82612f66565b604082019050919050565b60006020820190508181036000830152612ff181612fb5565b9050919050565b7f4f6e6c792044414f2063616e2065786563757465000000000000000000000000600082015250565b600061302e601483612b61565b915061303982612ff8565b602082019050919050565b6000602082019050818103600083015261305d81613021565b9050919050565b7f5652462072657175657374204944206e6f7420666f756e640000000000000000600082015250565b600061309a601883612b61565b91506130a582613064565b602082019050919050565b600060208201905081810360008301526130c98161308d565b9050919050565b60006040820190506130e56000830185612c9f565b6130f26020830184612c9f565b9392505050565b600081519050919050565b600082825260208201905092915050565b6000819050602082019050919050565b6101608201600082015161313c6000850182612730565b50602082015161314f6020850182612721565b5060408201516131626040850182612721565b5060608201516131756060850182612721565b5060808201516131886080850182612721565b5060a082015161319b60a0850182612721565b5060c08201516131ae60c0850182612721565b5060e08201516131c160e0850182612721565b506101008201516131d6610100850182612721565b506101208201516131eb610120850182612721565b5061014082015161320061014085018261274c565b50505050565b60006132128383613125565b6101608301905092915050565b6000602082019050919050565b6000613237826130f9565b6132418185613104565b935061324c83613115565b8060005b8381101561327d5781516132648882613206565b975061326f8361321f565b925050600181019050613250565b5085935050505092915050565b600060c08201905061329f600083018561275b565b81810360a08301526132b1818461322c565b90509392505050565b7f4f6e6c7920636f6e74726f6c6c6572732063616e206578656375746500000000600082015250565b60006132f0601c83612b61565b91506132fb826132ba565b602082019050919050565b6000602082019050818103600083015261331f816132e3565b9050919050565b600060408201905061333b60008301856129ea565b6133486020830184612c9f565b9392505050565b600081519050919050565b600082825260208201905092915050565b60005b8381101561338957808201518184015260208101905061336e565b83811115613398576000848401525b50505050565b60006133a98261334f565b6133b3818561335a565b93506133c381856020860161336b565b6133cc8161280d565b840191505092915050565b60006060820190506133ec60008301866127de565b6133f96020830185612c9f565b818103604083015261340b818461339e565b9050949350505050565b60006134208261251f565b915061342b8361251f565b9250827fffffffffffffffffffffffffffffffffffffffffffffffffffffffffffffffff038211156134605761345f612d19565b5b828201905092915050565b60006134768261251f565b91506134818361251f565b92508282101561349457613493612d19565b5b828203905092915050565b6000819050919050565b6134ba6134b58261251f565b61349f565b82525050565b60006134cc82846134a9565b60208201915081905092915050565b60006080820190506134f060008301876129ea565b6134fd6020830186612c9f565b61350a60408301856127de565b6135176060830184612c9f565b95945050505050565b6000819050919050565b61353b613536826124e9565b613520565b82525050565b600061354d828561352a565b60208201915061355d82846134a9565b6020820191508190509392505050565b7f4e487b7100000000000000000000000000000000000000000000000000000000600052601260045260246000fd5b60006135a78261251f565b91506135b28361251f565b9250826135c2576135c161356d565b5b828206905092915050565b60008160f81b9050919050565b60006135e5826135cd565b9050919050565b60006135f7826135da565b9050919050565b61360f61360a826126a0565b6135ec565b82525050565b613626613621826125fc565b6135da565b82525050565b6000613638828b6135fe565b600182019150613648828a613615565b6001820191506136588289613615565b6001820191506136688288613615565b6001820191506136788287613615565b6001820191506136888286613615565b6001820191506136988285613615565b6001820191506136a88284613615565b6001820191508190509998505050505050505050565b6000819050602082019050919050565b60006136da82516124e9565b80915050919050565b600082821b905092915050565b60006136fb8261334f565b82613705846136be565b9050613710816136ce565b925060208210156137505761374b7fffffffffffffffffffffffffffffffffffffffffffffffffffffffffffffffff836020036008026136e3565b831692505b5050919050565b6000613762826125fc565b915061376d836125fc565b92508261377d5761377c61356d565b5b828206905092915050565b6000613793826125fc565b915061379e836125fc565b92508160ff04831182151516156137b8576137b7612d19565b5b82820290509291505056fea264697066735822122011107e34e325d39942800482fcddb71dc5e5e5f1d1c98bacb6d101c2d79a829264736f6c634300080a0033",
  "immutableReferences": {},
  "source": "// SPDX-License-Identifier: MIT\n\npragma solidity ^0.8.0;\n\nimport \"@openzeppelin/contracts-upgradeable/proxy/utils/Initializable.sol\";\nimport \"./ControllableUpgradeable.sol\";\nimport \"./VRFConsumer.sol\";\nimport \"./IMint.sol\";\nimport \"./ICharacter.sol\";\n\ncontract Mint is Initializable, OwnableUpgradeable, IMint, VRFConsumer, ControllableUpgradeable {\n  uint8[][18] public rarities; // List of probabilities for each trait type, 0 - 9 are associated with Chefs, 10 - 18 are associated with Rats\n  mapping(uint256 => bytes32) public existingCombinations; // Mapping from hashed(tokenTrait) to the tokenId it's associated with, used to ensure there are no duplicates\n\n  ICharacter character; // Reference to the Character\n  bytes32 internal keyHash;\n  uint256 internal fee;\n  mapping(bytes32 => VRFStruct) public vrfRequests; // Mapping from tokenId to a struct containing the token's traits\n\n  event RandomNumberRequested(\n    bytes32 requestId,\n    address sender\n  );\n  event RandomNumberFulfilled(\n    bytes32 requestId,\n    address sender\n  );\n\n  function initialize(\n    address _vrfCoordinator,\n    address _link,\n    bytes32 _keyHash,\n    uint256 _fee\n  ) external initializer {\n    __Ownable_init();\n\n    vrfCoordinator = _vrfCoordinator;\n    link = LinkTokenInterface(_link);\n    keyHash = _keyHash;\n    fee = _fee;\n\n    // Chefs\n    rarities[2] = [255, 223, 191, 159, 127, 95]; // hat\n    rarities[3] = [255, 223, 191, 159, 127, 95, 63, 31]; // eyes\n    rarities[4] = [255, 223, 191, 159, 127, 95]; // mouth\n    rarities[5] = [255, 207, 159, 111, 63, 15]; // neck\n    rarities[6] = [255, 223, 191, 159, 127, 95]; // hand\n    // Rats\n    rarities[12] = [255, 223, 191, 159, 127, 95]; // hat\n    rarities[13] = [255, 223, 191, 159, 127, 95, 63, 31]; // eyes\n    rarities[14] = [255, 223, 191, 159, 127, 95]; // piercing\n    rarities[15] = [255, 207, 159, 111, 63, 15]; // neck\n    rarities[16] = [255, 223, 191, 159, 127, 95]; // tail\n  }\n\n  /**\n   * Set ChainLink VRF params\n   * @param _vrfCoordinator - ChainLink's VRF coordinator contract address\n   * @param _link - ChinLink token contract address\n   * @param _keyHash - ChainLink env specific VRF key hash\n   * @param _fee - VRF env specific gas fee\n   */\n  function setVrfParams(address _vrfCoordinator, address _link, bytes32 _keyHash, uint256 _fee) external onlyOwner {\n    vrfCoordinator = _vrfCoordinator;\n    link = LinkTokenInterface(_link);\n    keyHash = _keyHash;\n    fee = _fee;\n  }\n\n  /**\n   * Requests a random number from ChainLink VRF and stores the request until it's fulfilled, called by Character.mint().\n   * @param sender - User wallet address\n   * @param amount - Amount of tokens to mint\n   * @param stake - Whether to right away stake those Characters\n   * @return requestId - VRF request ID\n   */\n  function requestRandomNumber(address sender, uint8 amount, bool stake, int8 boost) external onlyController returns (bytes32 requestId) {\n    require(link.balanceOf(address(this)) >= fee, \"Insufficient LINK\");\n    requestId = requestRandomness(keyHash, fee);\n    VRFStruct memory v = VRFStruct({ requestId: requestId, sender: sender, amount: amount, stake: stake, boost: boost });\n    vrfRequests[requestId] = v;\n    emit RandomNumberRequested(requestId, sender);\n  }\n\n  /**\n   * ChainLink VRF callback for requestRandomNumber()\n   * @param requestId - VRF request ID\n   * @param randomness - Random value created by VRF\n   */\n  function fulfillRandomness(bytes32 requestId, uint256 randomness) internal override {\n    VRFStruct memory v = vrfRequests[requestId];\n    require(v.requestId != 0, \"VRF request ID not found\");\n    ICharacter.CharacterStruct[] memory tokens = new ICharacter.CharacterStruct[](v.amount);\n\n    for (uint i = 0; i < v.amount; i++) {\n      tokens[i] = generate(requestId, uint256(keccak256(abi.encode(randomness, i))));\n      tokens[i].boost = v.boost;\n    }\n\n    delete vrfRequests[requestId];\n    character.fulfillMint(v, tokens);\n    emit RandomNumberFulfilled(requestId, v.sender);\n  }\n\n  /**\n   * Getter for the given VRF request\n   * @param requestId - ChainLink VRF request ID\n   * @return A struct of the VRF request\n   */\n  function getVrfRequest(bytes32 requestId) external view returns(VRFStruct memory) {\n    return vrfRequests[requestId];\n  }\n\n  /**\n   * Generates traits for a specific token, checking to make sure it's unique\n   * @param requestId - A VRF request ID\n   * @param seed - A VRF seed\n   * @return t - A struct of traits for the given token ID\n   */\n  function generate(bytes32 requestId, uint256 seed) internal returns (ICharacter.CharacterStruct memory t) {\n    t = selectTraits(seed);\n    uint256 hash = structToHash(t);\n    if (existingCombinations[hash] == 0) {\n      existingCombinations[hash] = requestId;\n      return t;\n    }\n    return generate(requestId, uint256(keccak256(abi.encodePacked(seed - 1))));\n  }\n\n  /**\n   * Selects the species and all of its traits based on the seed value\n   * @param seed - A pseudorandom 256 bit number to derive traits from\n   * @return t -  A struct of randomly selected traits\n   */\n  function selectTraits(uint256 seed) internal view returns (ICharacter.CharacterStruct memory t) {\n    t.isChef = (seed & 0xFFFF) % 10 != 0;\n    if (t.isChef) {\n      t.hat = selectTrait(seed, 2);\n      t.eyes = selectTrait(seed, 3);\n      t.mouth = selectTrait(seed, 4);\n      t.neck = selectTrait(seed, 5);\n      t.hand = selectTrait(seed, 6);\n    } else {\n      t.hat = selectTrait(seed, 12);\n      t.eyes = selectTrait(seed, 13);\n      t.piercing = selectTrait(seed, 14);\n      t.neck = selectTrait(seed, 15);\n      t.tail = selectTrait(seed, 16);\n    }\n    return t;\n  }\n\n  /**\n   * Uses A.J. Walker's Alias algorithm for O(1) rarity table lookup\n   * ensuring O(1) instead of O(n) reduces mint cost by more than 50%\n   * probability & alias tables are generated off-chain beforehand\n   * @param seed - Portion of the 256 bit seed to remove trait correlation\n   * @param traitIndex - The trait index to select a trait for\n   * @return The ID of the randomly selected trait\n   */\n  function selectTrait(uint256 seed, uint8 traitIndex) internal view returns (uint8) {\n    seed = seed >>= (traitIndex % 10 * 16);\n    uint8 trait = uint8(seed) % uint8(rarities[traitIndex].length); // Selected trait index\n    uint8 rand = uint8(seed & 0xFFFF >> 8); // Random integer from 0 to 255\n    if (rand <= rarities[traitIndex][trait]) return trait;\n    return 0;\n  }\n\n  /**\n   * Converts a struct to a 256 bit hash to check for uniqueness\n   * @param s - The struct to pack into a hash\n   * @return The 256 bit hash of the struct\n   */\n  function structToHash(ICharacter.CharacterStruct memory s) internal pure returns (uint256) {\n    return uint256(bytes32(\n      abi.encodePacked(\n        s.isChef,\n        s.hat,\n        s.eyes,\n        s.piercing,\n        s.mouth,\n        s.neck,\n        s.hand,\n        s.tail\n      )\n    ));\n  }\n\n  /**\n   * Set the character address\n   * @param _character - The address of the Character\n   */\n  function setCharacter(address _character) external onlyOwner {\n    character = ICharacter(_character);\n  }\n}\n",
  "sourcePath": "/Users/chris/workspace/ratalert/ratalert-contracts/contracts/Mint.sol",
  "compiler": {
    "name": "solc",
    "version": "0.8.10+commit.fc410830.Emscripten.clang"
  },
  "schemaVersion": "3.4.7",
  "updatedAt": "2022-04-28T12:54:44.860Z",
  "networkType": "ethereum",
  "devdoc": {
    "kind": "dev",
    "methods": {
      "addController(address[])": {
        "params": {
          "_controllers": "- The addresses to enable"
        }
      },
      "controller(address)": {
        "params": {
          "_controller": "- The address to check"
        }
      },
      "getVrfRequest(bytes32)": {
        "params": {
          "requestId": "- ChainLink VRF request ID"
        },
        "returns": {
          "_0": "A struct of the VRF request"
        }
      },
      "initialize(address,address)": {
        "params": {
          "_vrfCoordinator": "- Address of VRFCoordinator contract"
        }
      },
      "owner()": {
        "details": "Returns the address of the current owner."
      },
      "rawFulfillRandomness(bytes32,uint256)": {
        "params": {
          "randomness": "- The VRF output",
          "requestId": "- Unique ID for this request"
        }
      },
      "removeController(address[])": {
        "params": {
          "_controllers": "- The addresses to disable"
        }
      },
      "renounceOwnership()": {
        "details": "Leaves the contract without owner. It will not be possible to call `onlyOwner` functions anymore. Can only be called by the current owner. NOTE: Renouncing ownership will leave the contract without an owner, thereby removing any functionality that is only available to the owner."
      },
      "requestRandomNumber(address,uint8,bool,int8)": {
        "params": {
          "amount": "- Amount of tokens to mint",
          "sender": "- User wallet address",
          "stake": "- Whether to right away stake those Characters"
        },
        "returns": {
          "requestId": "- VRF request ID"
        }
      },
      "setCharacter(address)": {
        "params": {
          "_character": "- The address of the Character"
        }
      },
      "setVrfParams(address,address,bytes32,uint256)": {
        "params": {
          "_fee": "- VRF env specific gas fee",
          "_keyHash": "- ChainLink env specific VRF key hash",
          "_link": "- ChinLink token contract address",
          "_vrfCoordinator": "- ChainLink's VRF coordinator contract address"
        }
      },
      "transferOwnership(address)": {
        "details": "Transfers ownership of the contract to a new account (`newOwner`). Can only be called by the current owner."
      },
      "withdrawLink(uint256)": {
        "params": {
          "amount": "- Amount of LINK to send"
        },
        "returns": {
          "success": "- Whether the transaction succeeded"
        }
      }
    },
    "version": 1
  },
  "userdoc": {
    "kind": "user",
    "methods": {
      "addController(address[])": {
        "notice": "Enables multiple addresses to execute"
      },
      "controller(address)": {
        "notice": "Gets controller status by address"
      },
      "getVrfRequest(bytes32)": {
        "notice": "Getter for the given VRF request"
      },
      "rawFulfillRandomness(bytes32,uint256)": {
        "notice": "Callback function used by ChainLink"
      },
      "removeController(address[])": {
        "notice": "Prevents multiple addresses from executing"
      },
      "requestRandomNumber(address,uint8,bool,int8)": {
        "notice": "Requests a random number from ChainLink VRF and stores the request until it's fulfilled, called by Character.mint()."
      },
      "setCharacter(address)": {
        "notice": "Set the character address"
      },
      "setVrfParams(address,address,bytes32,uint256)": {
        "notice": "Set ChainLink VRF params"
      },
      "withdrawLink(uint256)": {
        "notice": "Sends the given LINK amount back to the owner"
      }
    },
    "version": 1
  }
}