{
  "contractName": "Mint",
  "abi": [
    {
      "anonymous": false,
      "inputs": [
        {
          "indexed": true,
          "internalType": "address",
          "name": "previousOwner",
          "type": "address"
        },
        {
          "indexed": true,
          "internalType": "address",
          "name": "newOwner",
          "type": "address"
        }
      ],
      "name": "OwnershipTransferred",
      "type": "event"
    },
    {
      "anonymous": false,
      "inputs": [
        {
          "indexed": false,
          "internalType": "bytes32",
          "name": "requestId",
          "type": "bytes32"
        },
        {
          "indexed": false,
          "internalType": "address",
          "name": "sender",
          "type": "address"
        }
      ],
      "name": "RandomNumberFulfilled",
      "type": "event"
    },
    {
      "anonymous": false,
      "inputs": [
        {
          "indexed": false,
          "internalType": "bytes32",
          "name": "requestId",
          "type": "bytes32"
        },
        {
          "indexed": false,
          "internalType": "address",
          "name": "sender",
          "type": "address"
        }
      ],
      "name": "RandomNumberRequested",
      "type": "event"
    },
    {
      "anonymous": false,
      "inputs": [
        {
          "indexed": true,
          "internalType": "address",
          "name": "from",
          "type": "address"
        },
        {
          "indexed": true,
          "internalType": "address",
          "name": "to",
          "type": "address"
        },
        {
          "indexed": true,
          "internalType": "uint256",
          "name": "tokenId",
          "type": "uint256"
        }
      ],
      "name": "Transfer",
      "type": "event"
    },
    {
      "inputs": [
        {
          "internalType": "address",
          "name": "_controller",
          "type": "address"
        }
      ],
      "name": "addController",
      "outputs": [],
      "stateMutability": "nonpayable",
      "type": "function"
    },
    {
      "inputs": [
        {
          "internalType": "address",
          "name": "_controller",
          "type": "address"
        }
      ],
      "name": "controller",
      "outputs": [
        {
          "internalType": "bool",
          "name": "",
          "type": "bool"
        }
      ],
      "stateMutability": "view",
      "type": "function",
      "constant": true
    },
    {
      "inputs": [
        {
          "internalType": "uint256",
          "name": "",
          "type": "uint256"
        }
      ],
      "name": "existingCombinations",
      "outputs": [
        {
          "internalType": "bytes32",
          "name": "",
          "type": "bytes32"
        }
      ],
      "stateMutability": "view",
      "type": "function",
      "constant": true
    },
    {
      "inputs": [],
      "name": "owner",
      "outputs": [
        {
          "internalType": "address",
          "name": "",
          "type": "address"
        }
      ],
      "stateMutability": "view",
      "type": "function",
      "constant": true
    },
    {
      "inputs": [
        {
          "internalType": "uint256",
          "name": "",
          "type": "uint256"
        },
        {
          "internalType": "uint256",
          "name": "",
          "type": "uint256"
        }
      ],
      "name": "rarities",
      "outputs": [
        {
          "internalType": "uint8",
          "name": "",
          "type": "uint8"
        }
      ],
      "stateMutability": "view",
      "type": "function",
      "constant": true
    },
    {
      "inputs": [
        {
          "internalType": "bytes32",
          "name": "requestId",
          "type": "bytes32"
        },
        {
          "internalType": "uint256",
          "name": "randomness",
          "type": "uint256"
        }
      ],
      "name": "rawFulfillRandomness",
      "outputs": [],
      "stateMutability": "nonpayable",
      "type": "function"
    },
    {
      "inputs": [
        {
          "internalType": "address",
          "name": "_controller",
          "type": "address"
        }
      ],
      "name": "removeController",
      "outputs": [],
      "stateMutability": "nonpayable",
      "type": "function"
    },
    {
      "inputs": [],
      "name": "renounceOwnership",
      "outputs": [],
      "stateMutability": "nonpayable",
      "type": "function"
    },
    {
      "inputs": [
        {
          "internalType": "address",
          "name": "newOwner",
          "type": "address"
        }
      ],
      "name": "transferOwnership",
      "outputs": [],
      "stateMutability": "nonpayable",
      "type": "function"
    },
    {
      "inputs": [
        {
          "internalType": "bytes32",
          "name": "",
          "type": "bytes32"
        }
      ],
      "name": "vrfRequests",
      "outputs": [
        {
          "internalType": "bytes32",
          "name": "requestId",
          "type": "bytes32"
        },
        {
          "internalType": "address",
          "name": "sender",
          "type": "address"
        },
        {
          "internalType": "uint8",
          "name": "amount",
          "type": "uint8"
        },
        {
          "internalType": "bool",
          "name": "stake",
          "type": "bool"
        }
      ],
      "stateMutability": "view",
      "type": "function",
      "constant": true
    },
    {
      "inputs": [
        {
          "internalType": "uint256",
          "name": "amount",
          "type": "uint256"
        }
      ],
      "name": "withdrawLink",
      "outputs": [
        {
          "internalType": "bool",
          "name": "success",
          "type": "bool"
        }
      ],
      "stateMutability": "nonpayable",
      "type": "function"
    },
    {
      "inputs": [
        {
          "internalType": "address",
          "name": "_vrfCoordinator",
          "type": "address"
        },
        {
          "internalType": "address",
          "name": "_link",
          "type": "address"
        },
        {
          "internalType": "bytes32",
          "name": "_keyHash",
          "type": "bytes32"
        },
        {
          "internalType": "uint256",
          "name": "_fee",
          "type": "uint256"
        }
      ],
      "name": "initialize",
      "outputs": [],
      "stateMutability": "nonpayable",
      "type": "function"
    },
    {
      "inputs": [
        {
          "internalType": "address",
          "name": "_vrfCoordinator",
          "type": "address"
        },
        {
          "internalType": "address",
          "name": "_link",
          "type": "address"
        }
      ],
      "name": "initialize",
      "outputs": [],
      "stateMutability": "nonpayable",
      "type": "function"
    },
    {
      "inputs": [
        {
          "internalType": "address",
          "name": "_vrfCoordinator",
          "type": "address"
        },
        {
          "internalType": "address",
          "name": "_link",
          "type": "address"
        },
        {
          "internalType": "bytes32",
          "name": "_keyHash",
          "type": "bytes32"
        },
        {
          "internalType": "uint256",
          "name": "_fee",
          "type": "uint256"
        }
      ],
      "name": "setVrfParams",
      "outputs": [],
      "stateMutability": "nonpayable",
      "type": "function"
    },
    {
      "inputs": [
        {
          "internalType": "address",
          "name": "sender",
          "type": "address"
        },
        {
          "internalType": "uint8",
          "name": "amount",
          "type": "uint8"
        },
        {
          "internalType": "bool",
          "name": "stake",
          "type": "bool"
        }
      ],
      "name": "requestRandomNumber",
      "outputs": [
        {
          "internalType": "bytes32",
          "name": "requestId",
          "type": "bytes32"
        }
      ],
      "stateMutability": "nonpayable",
      "type": "function"
    },
    {
      "inputs": [
        {
          "internalType": "address",
          "name": "_character",
          "type": "address"
        }
      ],
      "name": "setCharacter",
      "outputs": [],
      "stateMutability": "nonpayable",
      "type": "function"
    }
  ],
  "bytecode": "0x608060405234801561001057600080fd5b50613395806100206000396000f3fe608060405234801561001057600080fd5b50600436106101005760003560e01c806394985ddd11610097578063de864bf911610066578063de864bf914610295578063dec04e5f146102c5578063f2fde38b146102f8578063f6a74ed71461031457610100565b806394985ddd146101fd578063a1b8f37414610219578063a7fc7a0714610249578063c13aa7b51461026557610100565b8063485cc955116100d3578063485cc95514610189578063715018a6146101a55780637a8042bd146101af5780638da5cb5b146101df57610100565b8063204efe1714610105578063277a23891461012157806333df4b2c1461013d5780633d6b06cc1461016d575b600080fd5b61011f600480360381019061011a91906121ef565b610330565b005b61013b60048036038101906101369190612288565b6103f0565b005b610157600480360381019061015291906122ef565b6109b4565b604051610164919061234b565b60405180910390f35b61018760048036038101906101829190612288565b6109fa565b005b6101a3600480360381019061019e9190612366565b610b0c565b005b6101ad610c74565b005b6101c960048036038101906101c491906123a6565b610cfc565b6040516101d691906123ee565b60405180910390f35b6101e7610e28565b6040516101f49190612418565b60405180910390f35b61021760048036038101906102129190612433565b610e52565b005b610233600480360381019061022e91906123a6565b610ef0565b6040516102409190612482565b60405180910390f35b610263600480360381019061025e91906121ef565b610f08565b005b61027f600480360381019061027a91906121ef565b610fdf565b60405161028c91906123ee565b60405180910390f35b6102af60048036038101906102aa91906124f5565b6110b1565b6040516102bc9190612482565b60405180910390f35b6102df60048036038101906102da9190612548565b611359565b6040516102ef9493929190612575565b60405180910390f35b610312600480360381019061030d91906121ef565b6113c3565b005b61032e600480360381019061032991906121ef565b6114bb565b005b610338611592565b73ffffffffffffffffffffffffffffffffffffffff16610356610e28565b73ffffffffffffffffffffffffffffffffffffffff16146103ac576040517f08c379a00000000000000000000000000000000000000000000000000000000081526004016103a390612617565b60405180910390fd5b80607c60006101000a81548173ffffffffffffffffffffffffffffffffffffffff021916908373ffffffffffffffffffffffffffffffffffffffff16021790555050565b600060019054906101000a900460ff166104185760008054906101000a900460ff1615610421565b61042061159a565b5b610460576040517f08c379a0000000000000000000000000000000000000000000000000000000008152600401610457906126a9565b60405180910390fd5b60008060019054906101000a900460ff1615905080156104b0576001600060016101000a81548160ff02191690831515021790555060016000806101000a81548160ff0219169083151502179055505b6104b86115ab565b84606660006101000a81548173ffffffffffffffffffffffffffffffffffffffff021916908373ffffffffffffffffffffffffffffffffffffffff16021790555083606560006101000a81548173ffffffffffffffffffffffffffffffffffffffff021916908373ffffffffffffffffffffffffffffffffffffffff16021790555082607d8190555081607e819055506040518060c0016040528060ff8016815260200160df60ff16815260200160bf60ff168152602001609f60ff168152602001607f60ff168152602001605f60ff1681525060696002601281106105a1576105a06126c9565b5b019060066105b0929190611fb1565b5060405180610100016040528060ff8016815260200160df60ff16815260200160bf60ff168152602001609f60ff168152602001607f60ff168152602001605f60ff168152602001603f60ff168152602001601f60ff16815250606960036012811061061f5761061e6126c9565b5b0190600861062e929190612058565b506040518060c0016040528060ff8016815260200160df60ff16815260200160bf60ff168152602001609f60ff168152602001607f60ff168152602001605f60ff168152506069600460128110610688576106876126c9565b5b01906006610697929190611fb1565b506040518060c0016040528060ff8016815260200160cf60ff168152602001609f60ff168152602001606f60ff168152602001603f60ff168152602001600f60ff1681525060696005601281106106f1576106f06126c9565b5b01906006610700929190611fb1565b506040518060c0016040528060ff8016815260200160df60ff16815260200160bf60ff168152602001609f60ff168152602001607f60ff168152602001605f60ff16815250606960066012811061075a576107596126c9565b5b01906006610769929190611fb1565b506040518060c0016040528060ff8016815260200160df60ff16815260200160bf60ff168152602001609f60ff168152602001607f60ff168152602001605f60ff168152506069600c601281106107c3576107c26126c9565b5b019060066107d2929190611fb1565b5060405180610100016040528060ff8016815260200160df60ff16815260200160bf60ff168152602001609f60ff168152602001607f60ff168152602001605f60ff168152602001603f60ff168152602001601f60ff168152506069600d60128110610841576108406126c9565b5b01906008610850929190612058565b506040518060c0016040528060ff8016815260200160df60ff16815260200160bf60ff168152602001609f60ff168152602001607f60ff168152602001605f60ff168152506069600e601281106108aa576108a96126c9565b5b019060066108b9929190611fb1565b506040518060c0016040528060ff8016815260200160cf60ff168152602001609f60ff168152602001606f60ff168152602001603f60ff168152602001600f60ff168152506069600f60128110610913576109126126c9565b5b01906006610922929190611fb1565b506040518060c0016040528060ff8016815260200160df60ff16815260200160bf60ff168152602001609f60ff168152602001607f60ff168152602001605f60ff16815250606960106012811061097c5761097b6126c9565b5b0190600661098b929190611fb1565b5080156109ad5760008060016101000a81548160ff0219169083151502179055505b5050505050565b606982601281106109c457600080fd5b0181815481106109d357600080fd5b9060005260206000209060209182820401919006915091509054906101000a900460ff1681565b610a02611592565b73ffffffffffffffffffffffffffffffffffffffff16610a20610e28565b73ffffffffffffffffffffffffffffffffffffffff1614610a76576040517f08c379a0000000000000000000000000000000000000000000000000000000008152600401610a6d90612617565b60405180910390fd5b83606660006101000a81548173ffffffffffffffffffffffffffffffffffffffff021916908373ffffffffffffffffffffffffffffffffffffffff16021790555082606560006101000a81548173ffffffffffffffffffffffffffffffffffffffff021916908373ffffffffffffffffffffffffffffffffffffffff16021790555081607d8190555080607e8190555050505050565b600060019054906101000a900460ff16610b345760008054906101000a900460ff1615610b3d565b610b3c61159a565b5b610b7c576040517f08c379a0000000000000000000000000000000000000000000000000000000008152600401610b73906126a9565b60405180910390fd5b60008060019054906101000a900460ff161590508015610bcc576001600060016101000a81548160ff02191690831515021790555060016000806101000a81548160ff0219169083151502179055505b82606660006101000a81548173ffffffffffffffffffffffffffffffffffffffff021916908373ffffffffffffffffffffffffffffffffffffffff16021790555081606560006101000a81548173ffffffffffffffffffffffffffffffffffffffff021916908373ffffffffffffffffffffffffffffffffffffffff1602179055508015610c6f5760008060016101000a81548160ff0219169083151502179055505b505050565b610c7c611592565b73ffffffffffffffffffffffffffffffffffffffff16610c9a610e28565b73ffffffffffffffffffffffffffffffffffffffff1614610cf0576040517f08c379a0000000000000000000000000000000000000000000000000000000008152600401610ce790612617565b60405180910390fd5b610cfa600061160c565b565b6000610d06611592565b73ffffffffffffffffffffffffffffffffffffffff16610d24610e28565b73ffffffffffffffffffffffffffffffffffffffff1614610d7a576040517f08c379a0000000000000000000000000000000000000000000000000000000008152600401610d7190612617565b60405180910390fd5b606560009054906101000a900473ffffffffffffffffffffffffffffffffffffffff1673ffffffffffffffffffffffffffffffffffffffff1663a9059cbb610dc0611592565b846040518363ffffffff1660e01b8152600401610dde929190612707565b6020604051808303816000875af1158015610dfd573d6000803e3d6000fd5b505050506040513d601f19601f82011682018060405250810190610e219190612745565b9050919050565b6000603360009054906101000a900473ffffffffffffffffffffffffffffffffffffffff16905090565b606660009054906101000a900473ffffffffffffffffffffffffffffffffffffffff1673ffffffffffffffffffffffffffffffffffffffff163373ffffffffffffffffffffffffffffffffffffffff1614610ee2576040517f08c379a0000000000000000000000000000000000000000000000000000000008152600401610ed9906127be565b60405180910390fd5b610eec82826116d2565b5050565b607b6020528060005260406000206000915090505481565b610f10611592565b73ffffffffffffffffffffffffffffffffffffffff16610f2e610e28565b73ffffffffffffffffffffffffffffffffffffffff1614610f84576040517f08c379a0000000000000000000000000000000000000000000000000000000008152600401610f7b90612617565b60405180910390fd5b6001606860008373ffffffffffffffffffffffffffffffffffffffff1673ffffffffffffffffffffffffffffffffffffffff16815260200190815260200160002060006101000a81548160ff02191690831515021790555050565b6000610fe9611592565b73ffffffffffffffffffffffffffffffffffffffff16611007610e28565b73ffffffffffffffffffffffffffffffffffffffff161461105d576040517f08c379a000000000000000000000000000000000000000000000000000000000815260040161105490612617565b60405180910390fd5b606860008373ffffffffffffffffffffffffffffffffffffffff1673ffffffffffffffffffffffffffffffffffffffff16815260200190815260200160002060009054906101000a900460ff169050919050565b6000606860003373ffffffffffffffffffffffffffffffffffffffff1673ffffffffffffffffffffffffffffffffffffffff16815260200190815260200160002060009054906101000a900460ff1661113f576040517f08c379a00000000000000000000000000000000000000000000000000000000081526004016111369061282a565b60405180910390fd5b607e54606560009054906101000a900473ffffffffffffffffffffffffffffffffffffffff1673ffffffffffffffffffffffffffffffffffffffff166370a08231306040518263ffffffff1660e01b815260040161119d9190612418565b602060405180830381865afa1580156111ba573d6000803e3d6000fd5b505050506040513d601f19601f820116820180604052508101906111de919061285f565b101561121f576040517f08c379a0000000000000000000000000000000000000000000000000000000008152600401611216906128d8565b60405180910390fd5b61122d607d54607e546119ff565b9050600060405180608001604052808381526020018673ffffffffffffffffffffffffffffffffffffffff1681526020018560ff168152602001841515815250905080607f60008481526020019081526020016000206000820151816000015560208201518160010160006101000a81548173ffffffffffffffffffffffffffffffffffffffff021916908373ffffffffffffffffffffffffffffffffffffffff16021790555060408201518160010160146101000a81548160ff021916908360ff16021790555060608201518160010160156101000a81548160ff0219169083151502179055509050507fa604c1d75d1d5480c3a226f3b59c2be444c037ab3cbc22c688fa02ddcaedd13582866040516113499291906128f8565b60405180910390a1509392505050565b607f6020528060005260406000206000915090508060000154908060010160009054906101000a900473ffffffffffffffffffffffffffffffffffffffff16908060010160149054906101000a900460ff16908060010160159054906101000a900460ff16905084565b6113cb611592565b73ffffffffffffffffffffffffffffffffffffffff166113e9610e28565b73ffffffffffffffffffffffffffffffffffffffff161461143f576040517f08c379a000000000000000000000000000000000000000000000000000000000815260040161143690612617565b60405180910390fd5b600073ffffffffffffffffffffffffffffffffffffffff168173ffffffffffffffffffffffffffffffffffffffff1614156114af576040517f08c379a00000000000000000000000000000000000000000000000000000000081526004016114a690612993565b60405180910390fd5b6114b88161160c565b50565b6114c3611592565b73ffffffffffffffffffffffffffffffffffffffff166114e1610e28565b73ffffffffffffffffffffffffffffffffffffffff1614611537576040517f08c379a000000000000000000000000000000000000000000000000000000000815260040161152e90612617565b60405180910390fd5b6000606860008373ffffffffffffffffffffffffffffffffffffffff1673ffffffffffffffffffffffffffffffffffffffff16815260200190815260200160002060006101000a81548160ff02191690831515021790555050565b600033905090565b60006115a530611b56565b15905090565b600060019054906101000a900460ff166115fa576040517f08c379a00000000000000000000000000000000000000000000000000000000081526004016115f190612a25565b60405180910390fd5b611602611b69565b61160a611bba565b565b6000603360009054906101000a900473ffffffffffffffffffffffffffffffffffffffff16905081603360006101000a81548173ffffffffffffffffffffffffffffffffffffffff021916908373ffffffffffffffffffffffffffffffffffffffff1602179055508173ffffffffffffffffffffffffffffffffffffffff168173ffffffffffffffffffffffffffffffffffffffff167f8be0079c531659141344cd1fd0a4f28419497f9722a3daafe3b4186f6b6457e060405160405180910390a35050565b6000607f6000848152602001908152602001600020604051806080016040529081600082015481526020016001820160009054906101000a900473ffffffffffffffffffffffffffffffffffffffff1673ffffffffffffffffffffffffffffffffffffffff1673ffffffffffffffffffffffffffffffffffffffff1681526020016001820160149054906101000a900460ff1660ff1660ff1681526020016001820160159054906101000a900460ff16151515158152505090506000801b816000015114156117d6576040517f08c379a00000000000000000000000000000000000000000000000000000000081526004016117cd90612a91565b60405180910390fd5b6000816040015160ff1667ffffffffffffffff8111156117f9576117f8612ab1565b5b60405190808252806020026020018201604052801561183257816020015b61181f6120ff565b8152602001906001900390816118175790505b50905060005b826040015160ff168110156118ad5761187c85858360405160200161185e929190612ae0565b6040516020818303038152906040528051906020012060001c611c1b565b82828151811061188f5761188e6126c9565b5b602002602001018190525080806118a590612b38565b915050611838565b50607c60009054906101000a900473ffffffffffffffffffffffffffffffffffffffff1673ffffffffffffffffffffffffffffffffffffffff16634a43d1d3607f6000878152602001908152602001600020836040518363ffffffff1660e01b815260040161191d929190612e81565b600060405180830381600087803b15801561193757600080fd5b505af115801561194b573d6000803e3d6000fd5b50505050607f60008581526020019081526020016000206000808201600090556001820160006101000a81549073ffffffffffffffffffffffffffffffffffffffff02191690556001820160146101000a81549060ff02191690556001820160156101000a81549060ff021916905550507f697b04c8163be56dde69d35841ac4e03926065129a0340b2ef2199336f9039718483602001516040516119f19291906128f8565b60405180910390a150505050565b6000606560009054906101000a900473ffffffffffffffffffffffffffffffffffffffff1673ffffffffffffffffffffffffffffffffffffffff16634000aea0606660009054906101000a900473ffffffffffffffffffffffffffffffffffffffff1684866000604051602001611a77929190612eb1565b6040516020818303038152906040526040518463ffffffff1660e01b8152600401611aa493929190612f73565b6020604051808303816000875af1158015611ac3573d6000803e3d6000fd5b505050506040513d601f19601f82011682018060405250810190611ae79190612745565b506000611b0a846000306067600089815260200190815260200160002054611cc0565b905060016067600086815260200190815260200160002054611b2c9190612fb1565b6067600086815260200190815260200160002081905550611b4d8482611cfc565b91505092915050565b600080823b905060008111915050919050565b600060019054906101000a900460ff16611bb8576040517f08c379a0000000000000000000000000000000000000000000000000000000008152600401611baf90612a25565b60405180910390fd5b565b600060019054906101000a900460ff16611c09576040517f08c379a0000000000000000000000000000000000000000000000000000000008152600401611c0090612a25565b60405180910390fd5b611c19611c14611592565b61160c565b565b611c236120ff565b611c2c82611d2f565b90506000611c3982611e88565b90506000801b607b6000838152602001908152602001600020541415611c775783607b60008381526020019081526020016000208190555050611cba565b611cb684600185611c889190613007565b604051602001611c98919061305c565b6040516020818303038152906040528051906020012060001c611c1b565b9150505b92915050565b600084848484604051602001611cd99493929190613077565b6040516020818303038152906040528051906020012060001c9050949350505050565b60008282604051602001611d119291906130dd565b60405160208183030381529060405280519060200120905092915050565b611d376120ff565b6000600a61ffff8416611d4a9190613138565b1415816000019015159081151581525050806000015115611df657611d70826002611eeb565b816020019060ff16908160ff1681525050611d8c826003611eeb565b816040019060ff16908160ff1681525050611da8826004611eeb565b816080019060ff16908160ff1681525050611dc4826005611eeb565b8160a0019060ff16908160ff1681525050611de0826006611eeb565b8160c0019060ff16908160ff1681525050611e83565b611e0182600c611eeb565b816020019060ff16908160ff1681525050611e1d82600d611eeb565b816040019060ff16908160ff1681525050611e3982600e611eeb565b816060019060ff16908160ff1681525050611e5582600f611eeb565b8160a0019060ff16908160ff1681525050611e71826010611eeb565b8160e0019060ff16908160ff16815250505b919050565b6000816000015182602001518360400151846060015185608001518660a001518760c001518860e00151604051602001611ec99897969594939291906131c8565b604051602081830303815290604052611ee19061328c565b60001c9050919050565b60006010600a83611efc91906132f3565b611f069190613324565b60ff1683901c9250600060698360ff1660128110611f2757611f266126c9565b5b018054905084611f3791906132f3565b9050600060ff8516905060698460ff1660128110611f5857611f576126c9565b5b018260ff1681548110611f6e57611f6d6126c9565b5b90600052602060002090602091828204019190069054906101000a900460ff1660ff168160ff1611611fa4578192505050611fab565b6000925050505b92915050565b82805482825590600052602060002090601f016020900481019282156120475791602002820160005b8382111561201857835183826101000a81548160ff021916908360ff1602179055509260200192600101602081600001049283019260010302611fda565b80156120455782816101000a81549060ff0219169055600101602081600001049283019260010302612018565b505b509050612054919061216f565b5090565b82805482825590600052602060002090601f016020900481019282156120ee5791602002820160005b838211156120bf57835183826101000a81548160ff021916908360ff1602179055509260200192600101602081600001049283019260010302612081565b80156120ec5782816101000a81549060ff02191690556001016020816000010492830192600103026120bf565b505b5090506120fb919061216f565b5090565b604051806101400160405280600015158152602001600060ff168152602001600060ff168152602001600060ff168152602001600060ff168152602001600060ff168152602001600060ff168152602001600060ff168152602001600060ff168152602001600060ff1681525090565b5b80821115612188576000816000905550600101612170565b5090565b600080fd5b600073ffffffffffffffffffffffffffffffffffffffff82169050919050565b60006121bc82612191565b9050919050565b6121cc816121b1565b81146121d757600080fd5b50565b6000813590506121e9816121c3565b92915050565b6000602082840312156122055761220461218c565b5b6000612213848285016121da565b91505092915050565b6000819050919050565b61222f8161221c565b811461223a57600080fd5b50565b60008135905061224c81612226565b92915050565b6000819050919050565b61226581612252565b811461227057600080fd5b50565b6000813590506122828161225c565b92915050565b600080600080608085870312156122a2576122a161218c565b5b60006122b0878288016121da565b94505060206122c1878288016121da565b93505060406122d28782880161223d565b92505060606122e387828801612273565b91505092959194509250565b600080604083850312156123065761230561218c565b5b600061231485828601612273565b925050602061232585828601612273565b9150509250929050565b600060ff82169050919050565b6123458161232f565b82525050565b6000602082019050612360600083018461233c565b92915050565b6000806040838503121561237d5761237c61218c565b5b600061238b858286016121da565b925050602061239c858286016121da565b9150509250929050565b6000602082840312156123bc576123bb61218c565b5b60006123ca84828501612273565b91505092915050565b60008115159050919050565b6123e8816123d3565b82525050565b600060208201905061240360008301846123df565b92915050565b612412816121b1565b82525050565b600060208201905061242d6000830184612409565b92915050565b6000806040838503121561244a5761244961218c565b5b60006124588582860161223d565b925050602061246985828601612273565b9150509250929050565b61247c8161221c565b82525050565b60006020820190506124976000830184612473565b92915050565b6124a68161232f565b81146124b157600080fd5b50565b6000813590506124c38161249d565b92915050565b6124d2816123d3565b81146124dd57600080fd5b50565b6000813590506124ef816124c9565b92915050565b60008060006060848603121561250e5761250d61218c565b5b600061251c868287016121da565b935050602061252d868287016124b4565b925050604061253e868287016124e0565b9150509250925092565b60006020828403121561255e5761255d61218c565b5b600061256c8482850161223d565b91505092915050565b600060808201905061258a6000830187612473565b6125976020830186612409565b6125a4604083018561233c565b6125b160608301846123df565b95945050505050565b600082825260208201905092915050565b7f4f776e61626c653a2063616c6c6572206973206e6f7420746865206f776e6572600082015250565b60006126016020836125ba565b915061260c826125cb565b602082019050919050565b60006020820190508181036000830152612630816125f4565b9050919050565b7f496e697469616c697a61626c653a20636f6e747261637420697320616c72656160008201527f647920696e697469616c697a6564000000000000000000000000000000000000602082015250565b6000612693602e836125ba565b915061269e82612637565b604082019050919050565b600060208201905081810360008301526126c281612686565b9050919050565b7f4e487b7100000000000000000000000000000000000000000000000000000000600052603260045260246000fd5b61270181612252565b82525050565b600060408201905061271c6000830185612409565b61272960208301846126f8565b9392505050565b60008151905061273f816124c9565b92915050565b60006020828403121561275b5761275a61218c565b5b600061276984828501612730565b91505092915050565b7f4f6e6c7920565246436f6f7264696e61746f722063616e2066756c66696c6c00600082015250565b60006127a8601f836125ba565b91506127b382612772565b602082019050919050565b600060208201905081810360008301526127d78161279b565b9050919050565b7f4f6e6c7920636f6e74726f6c6c6572732063616e206578656375746500000000600082015250565b6000612814601c836125ba565b915061281f826127de565b602082019050919050565b6000602082019050818103600083015261284381612807565b9050919050565b6000815190506128598161225c565b92915050565b6000602082840312156128755761287461218c565b5b60006128838482850161284a565b91505092915050565b7f496e73756666696369656e74204c494e4b000000000000000000000000000000600082015250565b60006128c26011836125ba565b91506128cd8261288c565b602082019050919050565b600060208201905081810360008301526128f1816128b5565b9050919050565b600060408201905061290d6000830185612473565b61291a6020830184612409565b9392505050565b7f4f776e61626c653a206e6577206f776e657220697320746865207a65726f206160008201527f6464726573730000000000000000000000000000000000000000000000000000602082015250565b600061297d6026836125ba565b915061298882612921565b604082019050919050565b600060208201905081810360008301526129ac81612970565b9050919050565b7f496e697469616c697a61626c653a20636f6e7472616374206973206e6f74206960008201527f6e697469616c697a696e67000000000000000000000000000000000000000000602082015250565b6000612a0f602b836125ba565b9150612a1a826129b3565b604082019050919050565b60006020820190508181036000830152612a3e81612a02565b9050919050565b7f5652462072657175657374204944206e6f7420666f756e640000000000000000600082015250565b6000612a7b6018836125ba565b9150612a8682612a45565b602082019050919050565b60006020820190508181036000830152612aaa81612a6e565b9050919050565b7f4e487b7100000000000000000000000000000000000000000000000000000000600052604160045260246000fd5b6000604082019050612af560008301856126f8565b612b0260208301846126f8565b9392505050565b7f4e487b7100000000000000000000000000000000000000000000000000000000600052601160045260246000fd5b6000612b4382612252565b91507fffffffffffffffffffffffffffffffffffffffffffffffffffffffffffffffff821415612b7657612b75612b09565b5b600182019050919050565b60008160001c9050919050565b6000819050919050565b6000612bab612ba683612b81565b612b8e565b9050919050565b612bbb8161221c565b82525050565b600073ffffffffffffffffffffffffffffffffffffffff82169050919050565b6000612bf4612bef83612b81565b612bc1565b9050919050565b612c04816121b1565b82525050565b60008160a01c9050919050565b600060ff82169050919050565b6000612c37612c3283612c0a565b612c17565b9050919050565b612c478161232f565b82525050565b60008160a81c9050919050565b600060ff82169050919050565b6000612c7a612c7583612c4d565b612c5a565b9050919050565b612c8a816123d3565b82525050565b608082016000808301549050612ca581612b98565b612cb26000860182612bb2565b5060018301549050612cc381612be1565b612cd06020860182612bfb565b50612cda81612c24565b612ce76040860182612c3e565b50612cf181612c67565b612cfe6060860182612c81565b5050505050565b600081519050919050565b600082825260208201905092915050565b6000819050602082019050919050565b61014082016000820151612d486000850182612c81565b506020820151612d5b6020850182612c3e565b506040820151612d6e6040850182612c3e565b506060820151612d816060850182612c3e565b506080820151612d946080850182612c3e565b5060a0820151612da760a0850182612c3e565b5060c0820151612dba60c0850182612c3e565b5060e0820151612dcd60e0850182612c3e565b50610100820151612de2610100850182612c3e565b50610120820151612df7610120850182612c3e565b50505050565b6000612e098383612d31565b6101408301905092915050565b6000602082019050919050565b6000612e2e82612d05565b612e388185612d10565b9350612e4383612d21565b8060005b83811015612e74578151612e5b8882612dfd565b9750612e6683612e16565b925050600181019050612e47565b5085935050505092915050565b600060a082019050612e966000830185612c90565b8181036080830152612ea88184612e23565b90509392505050565b6000604082019050612ec66000830185612473565b612ed360208301846126f8565b9392505050565b600081519050919050565b600082825260208201905092915050565b60005b83811015612f14578082015181840152602081019050612ef9565b83811115612f23576000848401525b50505050565b6000601f19601f8301169050919050565b6000612f4582612eda565b612f4f8185612ee5565b9350612f5f818560208601612ef6565b612f6881612f29565b840191505092915050565b6000606082019050612f886000830186612409565b612f9560208301856126f8565b8181036040830152612fa78184612f3a565b9050949350505050565b6000612fbc82612252565b9150612fc783612252565b9250827fffffffffffffffffffffffffffffffffffffffffffffffffffffffffffffffff03821115612ffc57612ffb612b09565b5b828201905092915050565b600061301282612252565b915061301d83612252565b9250828210156130305761302f612b09565b5b828203905092915050565b6000819050919050565b61305661305182612252565b61303b565b82525050565b60006130688284613045565b60208201915081905092915050565b600060808201905061308c6000830187612473565b61309960208301866126f8565b6130a66040830185612409565b6130b360608301846126f8565b95945050505050565b6000819050919050565b6130d76130d28261221c565b6130bc565b82525050565b60006130e982856130c6565b6020820191506130f98284613045565b6020820191508190509392505050565b7f4e487b7100000000000000000000000000000000000000000000000000000000600052601260045260246000fd5b600061314382612252565b915061314e83612252565b92508261315e5761315d613109565b5b828206905092915050565b60008160f81b9050919050565b600061318182613169565b9050919050565b600061319382613176565b9050919050565b6131ab6131a6826123d3565b613188565b82525050565b6131c26131bd8261232f565b613176565b82525050565b60006131d4828b61319a565b6001820191506131e4828a6131b1565b6001820191506131f482896131b1565b60018201915061320482886131b1565b60018201915061321482876131b1565b60018201915061322482866131b1565b60018201915061323482856131b1565b60018201915061324482846131b1565b6001820191508190509998505050505050505050565b6000819050602082019050919050565b6000613276825161221c565b80915050919050565b600082821b905092915050565b600061329782612eda565b826132a18461325a565b90506132ac8161326a565b925060208210156132ec576132e77fffffffffffffffffffffffffffffffffffffffffffffffffffffffffffffffff8360200360080261327f565b831692505b5050919050565b60006132fe8261232f565b91506133098361232f565b92508261331957613318613109565b5b828206905092915050565b600061332f8261232f565b915061333a8361232f565b92508160ff048311821515161561335457613353612b09565b5b82820290509291505056fea264697066735822122016503977ff2ab9f45f0409e715597f01f649ff682ecccffec71a1cdec3d563b564736f6c634300080a0033",
  "immutableReferences": {},
  "source": "// SPDX-License-Identifier: MIT\n\npragma solidity ^0.8.0;\n\nimport \"@openzeppelin/contracts-upgradeable/proxy/utils/Initializable.sol\";\nimport \"./ControllableUpgradeable.sol\";\nimport \"./VRFConsumer.sol\";\nimport \"./IMint.sol\";\nimport \"./ICharacter.sol\";\n\ncontract Mint is Initializable, OwnableUpgradeable, IMint, VRFConsumer, ControllableUpgradeable {\n  uint8[][18] public rarities; // List of probabilities for each trait type, 0 - 9 are associated with Chefs, 10 - 18 are associated with Rats\n  mapping(uint256 => bytes32) public existingCombinations; // Mapping from hashed(tokenTrait) to the tokenId it's associated with, used to ensure there are no duplicates\n\n  ICharacter character; // Reference to the Character\n  bytes32 internal keyHash;\n  uint256 internal fee;\n  mapping(bytes32 => VRFStruct) public vrfRequests; // Mapping from tokenId to a struct containing the token's traits\n\n  event RandomNumberRequested(\n    bytes32 requestId,\n    address sender\n  );\n  event RandomNumberFulfilled(\n    bytes32 requestId,\n    address sender\n  );\n\n  function initialize(\n    address _vrfCoordinator,\n    address _link,\n    bytes32 _keyHash,\n    uint256 _fee\n  ) external initializer {\n    __Ownable_init();\n\n    vrfCoordinator = _vrfCoordinator;\n    link = LinkTokenInterface(_link);\n    keyHash = _keyHash;\n    fee = _fee;\n\n    // Chefs\n    rarities[2] = [255, 223, 191, 159, 127, 95]; // hat\n    rarities[3] = [255, 223, 191, 159, 127, 95, 63, 31]; // eyes\n    rarities[4] = [255, 223, 191, 159, 127, 95]; // mouth\n    rarities[5] = [255, 207, 159, 111, 63, 15]; // neck\n    rarities[6] = [255, 223, 191, 159, 127, 95]; // hand\n    // Rats\n    rarities[12] = [255, 223, 191, 159, 127, 95]; // hat\n    rarities[13] = [255, 223, 191, 159, 127, 95, 63, 31]; // eyes\n    rarities[14] = [255, 223, 191, 159, 127, 95]; // piercing\n    rarities[15] = [255, 207, 159, 111, 63, 15]; // neck\n    rarities[16] = [255, 223, 191, 159, 127, 95]; // tail\n  }\n\n  /**\n   * Set ChainLink VRF params\n   */\n  function setVrfParams(\n    address _vrfCoordinator,\n    address _link,\n    bytes32 _keyHash,\n    uint256 _fee\n  ) external onlyOwner {\n    vrfCoordinator = _vrfCoordinator;\n    link = LinkTokenInterface(_link);\n    keyHash = _keyHash;\n    fee = _fee;\n  }\n\n  function requestRandomNumber(address sender, uint8 amount, bool stake) external onlyController returns (bytes32 requestId) {\n    require(link.balanceOf(address(this)) >= fee, \"Insufficient LINK\");\n    requestId = requestRandomness(keyHash, fee);\n    VRFStruct memory v = VRFStruct({ requestId: requestId, sender: sender, amount: amount, stake: stake });\n    vrfRequests[requestId] = v;\n    emit RandomNumberRequested(requestId, sender);\n  }\n\n  function fulfillRandomness(bytes32 requestId, uint256 randomness) internal override {\n    VRFStruct memory v = vrfRequests[requestId];\n    require(v.requestId != 0, \"VRF request ID not found\");\n    ICharacter.CharacterStruct[] memory tokens = new ICharacter.CharacterStruct[](v.amount);\n\n    for (uint i = 0; i < v.amount; i++) {\n      tokens[i] = generate(requestId, uint256(keccak256(abi.encode(randomness, i))));\n    }\n\n    character.fulfillMint(vrfRequests[requestId], tokens);\n    delete vrfRequests[requestId];\n    emit RandomNumberFulfilled(requestId, v.sender);\n  }\n\n  /**\n   * Generates traits for a specific token, checking to make sure it's unique\n   * @param requestId - A VRF request ID\n   * @param seed - A VRF seed\n   * @return t - A struct of traits for the given token ID\n   */\n  function generate(bytes32 requestId, uint256 seed) internal returns (ICharacter.CharacterStruct memory t) {\n    t = selectTraits(seed);\n    uint256 hash = structToHash(t);\n    if (existingCombinations[hash] == 0) {\n      existingCombinations[hash] = requestId;\n      return t;\n    }\n    return generate(requestId, uint256(keccak256(abi.encodePacked(seed - 1))));\n  }\n\n  /**\n   * Selects the species and all of its traits based on the seed value\n   * @param seed - A pseudorandom 256 bit number to derive traits from\n   * @return t -  A struct of randomly selected traits\n   */\n  function selectTraits(uint256 seed) internal view returns (ICharacter.CharacterStruct memory t) {\n    t.isChef = (seed & 0xFFFF) % 10 != 0;\n    if (t.isChef) {\n      t.hat = selectTrait(seed, 2);\n      t.eyes = selectTrait(seed, 3);\n      t.mouth = selectTrait(seed, 4);\n      t.neck = selectTrait(seed, 5);\n      t.hand = selectTrait(seed, 6);\n    } else {\n      t.hat = selectTrait(seed, 12);\n      t.eyes = selectTrait(seed, 13);\n      t.piercing = selectTrait(seed, 14);\n      t.neck = selectTrait(seed, 15);\n      t.tail = selectTrait(seed, 16);\n    }\n    return t;\n  }\n\n  /**\n   * Uses A.J. Walker's Alias algorithm for O(1) rarity table lookup\n   * ensuring O(1) instead of O(n) reduces mint cost by more than 50%\n   * probability & alias tables are generated off-chain beforehand\n   * @param seed - Portion of the 256 bit seed to remove trait correlation\n   * @param traitIndex - The trait index to select a trait for\n   * @return The ID of the randomly selected trait\n   */\n  function selectTrait(uint256 seed, uint8 traitIndex) internal view returns (uint8) {\n    seed = seed >>= (traitIndex % 10 * 16);\n    uint8 trait = uint8(seed) % uint8(rarities[traitIndex].length); // Selected trait index\n    uint8 rand = uint8(seed & 0xFFFF >> 8); // Random integer from 0 to 255\n    if (rand <= rarities[traitIndex][trait]) return trait;\n    return 0;\n  }\n\n  /**\n   * Converts a struct to a 256 bit hash to check for uniqueness\n   * @param s - The struct to pack into a hash\n   * @return The 256 bit hash of the struct\n   */\n  function structToHash(ICharacter.CharacterStruct memory s) internal pure returns (uint256) {\n    return uint256(bytes32(\n      abi.encodePacked(\n        s.isChef,\n        s.hat,\n        s.eyes,\n        s.piercing,\n        s.mouth,\n        s.neck,\n        s.hand,\n        s.tail\n      )\n    ));\n  }\n\n  /**\n   * Set the character address\n   * @param _character - The address of the Character\n   */\n  function setCharacter(address _character) external onlyOwner {\n    character = ICharacter(_character);\n  }\n}\n",
  "sourcePath": "/Users/chris/workspace/ratalert/ratalert-contracts/contracts/Mint.sol",
  "compiler": {
    "name": "solc",
    "version": "0.8.10+commit.fc410830.Emscripten.clang"
  },
  "schemaVersion": "3.4.5",
  "updatedAt": "2022-03-16T22:38:27.632Z",
  "networkType": "ethereum",
  "devdoc": {
    "kind": "dev",
    "methods": {
      "addController(address)": {
        "params": {
          "_controller": "- The address to enable"
        }
      },
      "controller(address)": {
        "params": {
          "_controller": "- The address to check"
        }
      },
      "initialize(address,address)": {
        "params": {
          "_vrfCoordinator": "- Address of VRFCoordinator contract"
        }
      },
      "owner()": {
        "details": "Returns the address of the current owner."
      },
      "removeController(address)": {
        "params": {
          "_controller": "- The address to disable"
        }
      },
      "renounceOwnership()": {
        "details": "Leaves the contract without owner. It will not be possible to call `onlyOwner` functions anymore. Can only be called by the current owner. NOTE: Renouncing ownership will leave the contract without an owner, thereby removing any functionality that is only available to the owner."
      },
      "setCharacter(address)": {
        "params": {
          "_character": "- The address of the Character"
        }
      },
      "transferOwnership(address)": {
        "details": "Transfers ownership of the contract to a new account (`newOwner`). Can only be called by the current owner."
      }
    },
    "version": 1
  },
  "userdoc": {
    "kind": "user",
    "methods": {
      "addController(address)": {
        "notice": "Enables an address to mint / burn"
      },
      "controller(address)": {
        "notice": "Gets controller status by address"
      },
      "removeController(address)": {
        "notice": "Disables an address from minting / burning"
      },
      "setCharacter(address)": {
        "notice": "Set the character address"
      },
      "setVrfParams(address,address,bytes32,uint256)": {
        "notice": "Set ChainLink VRF params"
      }
    },
    "version": 1
  }
}