{
  "contractName": "Paywall",
  "abi": [
    {
      "anonymous": false,
      "inputs": [
        {
          "indexed": true,
          "internalType": "address",
          "name": "previousOwner",
          "type": "address"
        },
        {
          "indexed": true,
          "internalType": "address",
          "name": "newOwner",
          "type": "address"
        }
      ],
      "name": "OwnershipTransferred",
      "type": "event"
    },
    {
      "anonymous": false,
      "inputs": [
        {
          "indexed": false,
          "internalType": "address",
          "name": "account",
          "type": "address"
        },
        {
          "indexed": false,
          "internalType": "uint8",
          "name": "amount",
          "type": "uint8"
        }
      ],
      "name": "UpdateFreeMints",
      "type": "event"
    },
    {
      "anonymous": false,
      "inputs": [
        {
          "indexed": false,
          "internalType": "address",
          "name": "account",
          "type": "address"
        },
        {
          "indexed": false,
          "internalType": "uint8",
          "name": "amount",
          "type": "uint8"
        }
      ],
      "name": "UpdateWhitelist",
      "type": "event"
    },
    {
      "inputs": [
        {
          "internalType": "address",
          "name": "_controller",
          "type": "address"
        }
      ],
      "name": "addController",
      "outputs": [],
      "stateMutability": "nonpayable",
      "type": "function"
    },
    {
      "inputs": [
        {
          "internalType": "address",
          "name": "_controller",
          "type": "address"
        }
      ],
      "name": "controller",
      "outputs": [
        {
          "internalType": "bool",
          "name": "",
          "type": "bool"
        }
      ],
      "stateMutability": "view",
      "type": "function",
      "constant": true
    },
    {
      "inputs": [
        {
          "internalType": "address",
          "name": "",
          "type": "address"
        }
      ],
      "name": "freeMints",
      "outputs": [
        {
          "internalType": "uint8",
          "name": "",
          "type": "uint8"
        }
      ],
      "stateMutability": "view",
      "type": "function",
      "constant": true
    },
    {
      "inputs": [],
      "name": "gen1PriceTier0",
      "outputs": [
        {
          "internalType": "uint256",
          "name": "",
          "type": "uint256"
        }
      ],
      "stateMutability": "view",
      "type": "function",
      "constant": true
    },
    {
      "inputs": [],
      "name": "gen1PriceTier1",
      "outputs": [
        {
          "internalType": "uint256",
          "name": "",
          "type": "uint256"
        }
      ],
      "stateMutability": "view",
      "type": "function",
      "constant": true
    },
    {
      "inputs": [],
      "name": "gen1PriceTier2",
      "outputs": [
        {
          "internalType": "uint256",
          "name": "",
          "type": "uint256"
        }
      ],
      "stateMutability": "view",
      "type": "function",
      "constant": true
    },
    {
      "inputs": [],
      "name": "gen1PriceTier3",
      "outputs": [
        {
          "internalType": "uint256",
          "name": "",
          "type": "uint256"
        }
      ],
      "stateMutability": "view",
      "type": "function",
      "constant": true
    },
    {
      "inputs": [],
      "name": "maxMintsPerTx",
      "outputs": [
        {
          "internalType": "uint8",
          "name": "",
          "type": "uint8"
        }
      ],
      "stateMutability": "view",
      "type": "function",
      "constant": true
    },
    {
      "inputs": [],
      "name": "mintPrice",
      "outputs": [
        {
          "internalType": "uint256",
          "name": "",
          "type": "uint256"
        }
      ],
      "stateMutability": "view",
      "type": "function",
      "constant": true
    },
    {
      "inputs": [],
      "name": "onlyWhitelist",
      "outputs": [
        {
          "internalType": "bool",
          "name": "",
          "type": "bool"
        }
      ],
      "stateMutability": "view",
      "type": "function",
      "constant": true
    },
    {
      "inputs": [],
      "name": "owner",
      "outputs": [
        {
          "internalType": "address",
          "name": "",
          "type": "address"
        }
      ],
      "stateMutability": "view",
      "type": "function",
      "constant": true
    },
    {
      "inputs": [
        {
          "internalType": "address",
          "name": "_controller",
          "type": "address"
        }
      ],
      "name": "removeController",
      "outputs": [],
      "stateMutability": "nonpayable",
      "type": "function"
    },
    {
      "inputs": [],
      "name": "renounceOwnership",
      "outputs": [],
      "stateMutability": "nonpayable",
      "type": "function"
    },
    {
      "inputs": [
        {
          "internalType": "address",
          "name": "newOwner",
          "type": "address"
        }
      ],
      "name": "transferOwnership",
      "outputs": [],
      "stateMutability": "nonpayable",
      "type": "function"
    },
    {
      "inputs": [
        {
          "internalType": "address",
          "name": "",
          "type": "address"
        }
      ],
      "name": "whitelist",
      "outputs": [
        {
          "internalType": "uint8",
          "name": "",
          "type": "uint8"
        }
      ],
      "stateMutability": "view",
      "type": "function",
      "constant": true
    },
    {
      "inputs": [
        {
          "internalType": "address",
          "name": "_fastFood",
          "type": "address"
        }
      ],
      "name": "initialize",
      "outputs": [],
      "stateMutability": "nonpayable",
      "type": "function"
    },
    {
      "inputs": [
        {
          "internalType": "uint256",
          "name": "_mintPrice",
          "type": "uint256"
        },
        {
          "internalType": "uint8",
          "name": "_maxMintsPerTx",
          "type": "uint8"
        },
        {
          "internalType": "uint256[]",
          "name": "_gen1Prices",
          "type": "uint256[]"
        }
      ],
      "name": "configure",
      "outputs": [],
      "stateMutability": "nonpayable",
      "type": "function"
    },
    {
      "inputs": [
        {
          "internalType": "bool",
          "name": "_enable",
          "type": "bool"
        }
      ],
      "name": "toggleWhitelist",
      "outputs": [],
      "stateMutability": "nonpayable",
      "type": "function"
    },
    {
      "inputs": [
        {
          "internalType": "address[]",
          "name": "addresses",
          "type": "address[]"
        }
      ],
      "name": "addToWhitelist",
      "outputs": [],
      "stateMutability": "nonpayable",
      "type": "function"
    },
    {
      "inputs": [
        {
          "internalType": "address[]",
          "name": "addresses",
          "type": "address[]"
        }
      ],
      "name": "removeFromWhitelist",
      "outputs": [],
      "stateMutability": "nonpayable",
      "type": "function"
    },
    {
      "inputs": [
        {
          "internalType": "address[]",
          "name": "addresses",
          "type": "address[]"
        }
      ],
      "name": "addToFreeMints",
      "outputs": [],
      "stateMutability": "nonpayable",
      "type": "function"
    },
    {
      "inputs": [
        {
          "internalType": "address[]",
          "name": "addresses",
          "type": "address[]"
        }
      ],
      "name": "removeFromFreeMints",
      "outputs": [],
      "stateMutability": "nonpayable",
      "type": "function"
    },
    {
      "inputs": [
        {
          "internalType": "address",
          "name": "sender",
          "type": "address"
        },
        {
          "internalType": "uint8",
          "name": "amount",
          "type": "uint8"
        },
        {
          "internalType": "uint256",
          "name": "msgValue",
          "type": "uint256"
        },
        {
          "internalType": "uint16",
          "name": "minted",
          "type": "uint16"
        },
        {
          "internalType": "uint256",
          "name": "maxTokens",
          "type": "uint256"
        },
        {
          "internalType": "uint256",
          "name": "gen0Tokens",
          "type": "uint256"
        }
      ],
      "name": "handle",
      "outputs": [],
      "stateMutability": "nonpayable",
      "type": "function"
    },
    {
      "inputs": [
        {
          "internalType": "uint256",
          "name": "tokenId",
          "type": "uint256"
        },
        {
          "internalType": "uint256",
          "name": "maxTokens",
          "type": "uint256"
        },
        {
          "internalType": "uint256",
          "name": "gen0Tokens",
          "type": "uint256"
        }
      ],
      "name": "mintCost",
      "outputs": [
        {
          "internalType": "uint256",
          "name": "",
          "type": "uint256"
        }
      ],
      "stateMutability": "view",
      "type": "function",
      "constant": true
    }
  ],
  "bytecode": "0x608060405234801561001057600080fd5b50612d63806100206000396000f3fe608060405234801561001057600080fd5b50600436106101585760003560e01c80638da5cb5b116100c3578063c13aa7b51161007c578063c13aa7b51461038d578063c3a7cc5a146103bd578063c4d66de8146103d9578063dc30158b146103f5578063f2fde38b14610413578063f6a74ed71461042f57610158565b80638da5cb5b146102cb5780639b19251a146102e9578063a4e5733014610319578063a7fc7a0714610337578063a88e099614610353578063abc26c601461037157610158565b80636817c76c116101155780636817c76c1461020b5780636d41d4fb14610229578063715018a6146102595780637a92e551146102635780637f6497831461029357806380e3f1ad146102af57610158565b806303f7d3881461015d578063286d4fa01461017b57806328ca26cd1461019757806350fcfd39146101b5578063548db174146101d15780636502672c146101ed575b600080fd5b61016561044b565b6040516101729190611f1e565b60405180910390f35b6101956004803603810190610190919061210b565b610451565b005b61019f61057c565b6040516101ac9190611f1e565b60405180910390f35b6101cf60048036038101906101ca919061229b565b610582565b005b6101eb60048036038101906101e6919061229b565b6107d7565b005b6101f5610a2c565b6040516102029190611f1e565b60405180910390f35b610213610a32565b6040516102209190611f1e565b60405180910390f35b610243600480360381019061023e91906122e4565b610a38565b6040516102509190612320565b60405180910390f35b610261610a58565b005b61027d6004803603810190610278919061233b565b610ae0565b60405161028a9190611f1e565b60405180910390f35b6102ad60048036038101906102a8919061229b565b610b7a565b005b6102c960048036038101906102c491906123c6565b610dcf565b005b6102d3610e68565b6040516102e09190612402565b60405180910390f35b61030360048036038101906102fe91906122e4565b610e92565b6040516103109190612320565b60405180910390f35b610321610eb2565b60405161032e9190611f1e565b60405180910390f35b610351600480360381019061034c91906122e4565b610eb8565b005b61035b610f8f565b604051610368919061242c565b60405180910390f35b61038b60048036038101906103869190612481565b610fa2565b005b6103a760048036038101906103a291906122e4565b6116ae565b6040516103b4919061242c565b60405180910390f35b6103d760048036038101906103d2919061229b565b611780565b005b6103f360048036038101906103ee91906122e4565b6119d5565b005b6103fd611b1e565b60405161040a9190612320565b60405180910390f35b61042d600480360381019061042891906122e4565b611b31565b005b610449600480360381019061044491906122e4565b611c29565b005b606b5481565b610459611d00565b73ffffffffffffffffffffffffffffffffffffffff16610477610e68565b73ffffffffffffffffffffffffffffffffffffffff16146104cd576040517f08c379a00000000000000000000000000000000000000000000000000000000081526004016104c49061256b565b60405180910390fd5b8260668190555081606760006101000a81548160ff021916908360ff160217905550806000815181106105035761050261258b565b5b6020026020010151606881905550806001815181106105255761052461258b565b5b6020026020010151606981905550806002815181106105475761054661258b565b5b6020026020010151606a81905550806003815181106105695761056861258b565b5b6020026020010151606b81905550505050565b60695481565b61058a611d00565b73ffffffffffffffffffffffffffffffffffffffff166105a8610e68565b73ffffffffffffffffffffffffffffffffffffffff16146105fe576040517f08c379a00000000000000000000000000000000000000000000000000000000081526004016105f59061256b565b60405180910390fd5b60005b81518110156107d3576000606d60008484815181106106235761062261258b565b5b602002602001015173ffffffffffffffffffffffffffffffffffffffff1673ffffffffffffffffffffffffffffffffffffffff16815260200190815260200160002060009054906101000a900460ff16905060648160ff1610610687576064610695565b60018161069491906125e9565b5b606d60008585815181106106ac576106ab61258b565b5b602002602001015173ffffffffffffffffffffffffffffffffffffffff1673ffffffffffffffffffffffffffffffffffffffff16815260200190815260200160002060006101000a81548160ff021916908360ff1602179055507fea925f43ecd5282ea8fb307fee3f67644aaa3d20f1894d6a433db3e5d325564783838151811061073a5761073961258b565b5b6020026020010151606d60008686815181106107595761075861258b565b5b602002602001015173ffffffffffffffffffffffffffffffffffffffff1673ffffffffffffffffffffffffffffffffffffffff16815260200190815260200160002060009054906101000a900460ff166040516107b7929190612620565b60405180910390a15080806107cb90612649565b915050610601565b5050565b6107df611d00565b73ffffffffffffffffffffffffffffffffffffffff166107fd610e68565b73ffffffffffffffffffffffffffffffffffffffff1614610853576040517f08c379a000000000000000000000000000000000000000000000000000000000815260040161084a9061256b565b60405180910390fd5b60005b8151811015610a28576000606c60008484815181106108785761087761258b565b5b602002602001015173ffffffffffffffffffffffffffffffffffffffff1673ffffffffffffffffffffffffffffffffffffffff16815260200190815260200160002060009054906101000a900460ff16905060018160ff16116108dc5760006108ea565b6001816108e99190612692565b5b606c60008585815181106109015761090061258b565b5b602002602001015173ffffffffffffffffffffffffffffffffffffffff1673ffffffffffffffffffffffffffffffffffffffff16815260200190815260200160002060006101000a81548160ff021916908360ff1602179055507fcdc5caa840688c7b2fdfb48b53223f1187b9ec9a1d99d69043af921a8a3d969283838151811061098f5761098e61258b565b5b6020026020010151606c60008686815181106109ae576109ad61258b565b5b602002602001015173ffffffffffffffffffffffffffffffffffffffff1673ffffffffffffffffffffffffffffffffffffffff16815260200190815260200160002060009054906101000a900460ff16604051610a0c929190612620565b60405180910390a1508080610a2090612649565b915050610856565b5050565b60685481565b60665481565b606d6020528060005260406000206000915054906101000a900460ff1681565b610a60611d00565b73ffffffffffffffffffffffffffffffffffffffff16610a7e610e68565b73ffffffffffffffffffffffffffffffffffffffff1614610ad4576040517f08c379a0000000000000000000000000000000000000000000000000000000008152600401610acb9061256b565b60405180910390fd5b610ade6000611d08565b565b6000818411610af25760009050610b73565b6005600284610b0191906126c6565b610b0b919061274f565b8411610b1b576068549050610b73565b6005600384610b2a91906126c6565b610b34919061274f565b8411610b44576069549050610b73565b6005600484610b5391906126c6565b610b5d919061274f565b8411610b6d57606a549050610b73565b606b5490505b9392505050565b610b82611d00565b73ffffffffffffffffffffffffffffffffffffffff16610ba0610e68565b73ffffffffffffffffffffffffffffffffffffffff1614610bf6576040517f08c379a0000000000000000000000000000000000000000000000000000000008152600401610bed9061256b565b60405180910390fd5b60005b8151811015610dcb576000606c6000848481518110610c1b57610c1a61258b565b5b602002602001015173ffffffffffffffffffffffffffffffffffffffff1673ffffffffffffffffffffffffffffffffffffffff16815260200190815260200160002060009054906101000a900460ff16905060648160ff1610610c7f576064610c8d565b600181610c8c91906125e9565b5b606c6000858581518110610ca457610ca361258b565b5b602002602001015173ffffffffffffffffffffffffffffffffffffffff1673ffffffffffffffffffffffffffffffffffffffff16815260200190815260200160002060006101000a81548160ff021916908360ff1602179055507fcdc5caa840688c7b2fdfb48b53223f1187b9ec9a1d99d69043af921a8a3d9692838381518110610d3257610d3161258b565b5b6020026020010151606c6000868681518110610d5157610d5061258b565b5b602002602001015173ffffffffffffffffffffffffffffffffffffffff1673ffffffffffffffffffffffffffffffffffffffff16815260200190815260200160002060009054906101000a900460ff16604051610daf929190612620565b60405180910390a1508080610dc390612649565b915050610bf9565b5050565b610dd7611d00565b73ffffffffffffffffffffffffffffffffffffffff16610df5610e68565b73ffffffffffffffffffffffffffffffffffffffff1614610e4b576040517f08c379a0000000000000000000000000000000000000000000000000000000008152600401610e429061256b565b60405180910390fd5b80606e60006101000a81548160ff02191690831515021790555050565b6000603360009054906101000a900473ffffffffffffffffffffffffffffffffffffffff16905090565b606c6020528060005260406000206000915054906101000a900460ff1681565b606a5481565b610ec0611d00565b73ffffffffffffffffffffffffffffffffffffffff16610ede610e68565b73ffffffffffffffffffffffffffffffffffffffff1614610f34576040517f08c379a0000000000000000000000000000000000000000000000000000000008152600401610f2b9061256b565b60405180910390fd5b6001606560008373ffffffffffffffffffffffffffffffffffffffff1673ffffffffffffffffffffffffffffffffffffffff16815260200190815260200160002060006101000a81548160ff02191690831515021790555050565b606e60009054906101000a900460ff1681565b606560003373ffffffffffffffffffffffffffffffffffffffff1673ffffffffffffffffffffffffffffffffffffffff16815260200190815260200160002060009054906101000a900460ff1661102e576040517f08c379a0000000000000000000000000000000000000000000000000000000008152600401611025906127cc565b60405180910390fd5b60008560ff161180156110565750606760009054906101000a900460ff1660ff168560ff1611155b611095576040517f08c379a000000000000000000000000000000000000000000000000000000000815260040161108c90612838565b60405180910390fd5b818560ff16846110a59190612858565b61ffff1611156110ea576040517f08c379a00000000000000000000000000000000000000000000000000000000081526004016110e1906128dc565b60405180910390fd5b60006066549050606e60009054906101000a900460ff16156111f9578560ff16606d60008973ffffffffffffffffffffffffffffffffffffffff1673ffffffffffffffffffffffffffffffffffffffff16815260200190815260200160002060009054906101000a900460ff1660ff161015806111b957508560ff16606c60008973ffffffffffffffffffffffffffffffffffffffff1673ffffffffffffffffffffffffffffffffffffffff16815260200190815260200160002060009054906101000a900460ff1660ff1610155b6111f8576040517f08c379a00000000000000000000000000000000000000000000000000000000081526004016111ef90612948565b60405180910390fd5b5b8560ff16606d60008973ffffffffffffffffffffffffffffffffffffffff1673ffffffffffffffffffffffffffffffffffffffff16815260200190815260200160002060009054906101000a900460ff1660ff16106113535785606d60008973ffffffffffffffffffffffffffffffffffffffff1673ffffffffffffffffffffffffffffffffffffffff16815260200190815260200160002060008282829054906101000a900460ff166112ad9190612692565b92506101000a81548160ff021916908360ff1602179055507fea925f43ecd5282ea8fb307fee3f67644aaa3d20f1894d6a433db3e5d325564787606d60008a73ffffffffffffffffffffffffffffffffffffffff1673ffffffffffffffffffffffffffffffffffffffff16815260200190815260200160002060009054906101000a900460ff16604051611342929190612620565b60405180910390a1600090506114c3565b8560ff16606c60008973ffffffffffffffffffffffffffffffffffffffff1673ffffffffffffffffffffffffffffffffffffffff16815260200190815260200160002060009054906101000a900460ff1660ff16106114c25785606c60008973ffffffffffffffffffffffffffffffffffffffff1673ffffffffffffffffffffffffffffffffffffffff16815260200190815260200160002060008282829054906101000a900460ff166114079190612692565b92506101000a81548160ff021916908360ff1602179055507fcdc5caa840688c7b2fdfb48b53223f1187b9ec9a1d99d69043af921a8a3d969287606c60008a73ffffffffffffffffffffffffffffffffffffffff1673ffffffffffffffffffffffffffffffffffffffff16815260200190815260200160002060009054906101000a900460ff1660405161149c929190612620565b60405180910390a16064605a6066546114b591906126c6565b6114bf919061274f565b90505b5b6000828561ffff16101561157b57828760ff16866114e19190612858565b61ffff161115611526576040517f08c379a000000000000000000000000000000000000000000000000000000000815260040161151d906129da565b60405180910390fd5b85828860ff1661153691906126c6565b14611576576040517f08c379a000000000000000000000000000000000000000000000000000000000815260040161156d90612a46565b60405180910390fd5b61160b565b600086146115be576040517f08c379a00000000000000000000000000000000000000000000000000000000081526004016115b590612ad8565b60405180910390fd5b6000600190505b8760ff168111611609576115e9818761ffff166115e29190612af8565b8686610ae0565b826115f49190612af8565b9150808061160190612649565b9150506115c5565b505b60008111156116a457606e60019054906101000a900473ffffffffffffffffffffffffffffffffffffffff1673ffffffffffffffffffffffffffffffffffffffff16639dc29fac89836040518363ffffffff1660e01b8152600401611671929190612b4e565b600060405180830381600087803b15801561168b57600080fd5b505af115801561169f573d6000803e3d6000fd5b505050505b5050505050505050565b60006116b8611d00565b73ffffffffffffffffffffffffffffffffffffffff166116d6610e68565b73ffffffffffffffffffffffffffffffffffffffff161461172c576040517f08c379a00000000000000000000000000000000000000000000000000000000081526004016117239061256b565b60405180910390fd5b606560008373ffffffffffffffffffffffffffffffffffffffff1673ffffffffffffffffffffffffffffffffffffffff16815260200190815260200160002060009054906101000a900460ff169050919050565b611788611d00565b73ffffffffffffffffffffffffffffffffffffffff166117a6610e68565b73ffffffffffffffffffffffffffffffffffffffff16146117fc576040517f08c379a00000000000000000000000000000000000000000000000000000000081526004016117f39061256b565b60405180910390fd5b60005b81518110156119d1576000606d60008484815181106118215761182061258b565b5b602002602001015173ffffffffffffffffffffffffffffffffffffffff1673ffffffffffffffffffffffffffffffffffffffff16815260200190815260200160002060009054906101000a900460ff16905060018160ff1611611885576000611893565b6001816118929190612692565b5b606d60008585815181106118aa576118a961258b565b5b602002602001015173ffffffffffffffffffffffffffffffffffffffff1673ffffffffffffffffffffffffffffffffffffffff16815260200190815260200160002060006101000a81548160ff021916908360ff1602179055507fea925f43ecd5282ea8fb307fee3f67644aaa3d20f1894d6a433db3e5d32556478383815181106119385761193761258b565b5b6020026020010151606d60008686815181106119575761195661258b565b5b602002602001015173ffffffffffffffffffffffffffffffffffffffff1673ffffffffffffffffffffffffffffffffffffffff16815260200190815260200160002060009054906101000a900460ff166040516119b5929190612620565b60405180910390a15080806119c990612649565b9150506117ff565b5050565b600060019054906101000a900460ff166119fd5760008054906101000a900460ff1615611a06565b611a05611dce565b5b611a45576040517f08c379a0000000000000000000000000000000000000000000000000000000008152600401611a3c90612be9565b60405180910390fd5b60008060019054906101000a900460ff161590508015611a95576001600060016101000a81548160ff02191690831515021790555060016000806101000a81548160ff0219169083151502179055505b611a9d611ddf565b81606e60016101000a81548173ffffffffffffffffffffffffffffffffffffffff021916908373ffffffffffffffffffffffffffffffffffffffff1602179055506000606e60006101000a81548160ff0219169083151502179055508015611b1a5760008060016101000a81548160ff0219169083151502179055505b5050565b606760009054906101000a900460ff1681565b611b39611d00565b73ffffffffffffffffffffffffffffffffffffffff16611b57610e68565b73ffffffffffffffffffffffffffffffffffffffff1614611bad576040517f08c379a0000000000000000000000000000000000000000000000000000000008152600401611ba49061256b565b60405180910390fd5b600073ffffffffffffffffffffffffffffffffffffffff168173ffffffffffffffffffffffffffffffffffffffff161415611c1d576040517f08c379a0000000000000000000000000000000000000000000000000000000008152600401611c1490612c7b565b60405180910390fd5b611c2681611d08565b50565b611c31611d00565b73ffffffffffffffffffffffffffffffffffffffff16611c4f610e68565b73ffffffffffffffffffffffffffffffffffffffff1614611ca5576040517f08c379a0000000000000000000000000000000000000000000000000000000008152600401611c9c9061256b565b60405180910390fd5b6000606560008373ffffffffffffffffffffffffffffffffffffffff1673ffffffffffffffffffffffffffffffffffffffff16815260200190815260200160002060006101000a81548160ff02191690831515021790555050565b600033905090565b6000603360009054906101000a900473ffffffffffffffffffffffffffffffffffffffff16905081603360006101000a81548173ffffffffffffffffffffffffffffffffffffffff021916908373ffffffffffffffffffffffffffffffffffffffff1602179055508173ffffffffffffffffffffffffffffffffffffffff168173ffffffffffffffffffffffffffffffffffffffff167f8be0079c531659141344cd1fd0a4f28419497f9722a3daafe3b4186f6b6457e060405160405180910390a35050565b6000611dd930611e40565b15905090565b600060019054906101000a900460ff16611e2e576040517f08c379a0000000000000000000000000000000000000000000000000000000008152600401611e2590612d0d565b60405180910390fd5b611e36611e53565b611e3e611ea4565b565b600080823b905060008111915050919050565b600060019054906101000a900460ff16611ea2576040517f08c379a0000000000000000000000000000000000000000000000000000000008152600401611e9990612d0d565b60405180910390fd5b565b600060019054906101000a900460ff16611ef3576040517f08c379a0000000000000000000000000000000000000000000000000000000008152600401611eea90612d0d565b60405180910390fd5b611f03611efe611d00565b611d08565b565b6000819050919050565b611f1881611f05565b82525050565b6000602082019050611f336000830184611f0f565b92915050565b6000604051905090565b600080fd5b600080fd5b611f5681611f05565b8114611f6157600080fd5b50565b600081359050611f7381611f4d565b92915050565b600060ff82169050919050565b611f8f81611f79565b8114611f9a57600080fd5b50565b600081359050611fac81611f86565b92915050565b600080fd5b6000601f19601f8301169050919050565b7f4e487b7100000000000000000000000000000000000000000000000000000000600052604160045260246000fd5b61200082611fb7565b810181811067ffffffffffffffff8211171561201f5761201e611fc8565b5b80604052505050565b6000612032611f39565b905061203e8282611ff7565b919050565b600067ffffffffffffffff82111561205e5761205d611fc8565b5b602082029050602081019050919050565b600080fd5b600061208761208284612043565b612028565b905080838252602082019050602084028301858111156120aa576120a961206f565b5b835b818110156120d357806120bf8882611f64565b8452602084019350506020810190506120ac565b5050509392505050565b600082601f8301126120f2576120f1611fb2565b5b8135612102848260208601612074565b91505092915050565b60008060006060848603121561212457612123611f43565b5b600061213286828701611f64565b935050602061214386828701611f9d565b925050604084013567ffffffffffffffff81111561216457612163611f48565b5b612170868287016120dd565b9150509250925092565b600067ffffffffffffffff82111561219557612194611fc8565b5b602082029050602081019050919050565b600073ffffffffffffffffffffffffffffffffffffffff82169050919050565b60006121d1826121a6565b9050919050565b6121e1816121c6565b81146121ec57600080fd5b50565b6000813590506121fe816121d8565b92915050565b60006122176122128461217a565b612028565b9050808382526020820190506020840283018581111561223a5761223961206f565b5b835b81811015612263578061224f88826121ef565b84526020840193505060208101905061223c565b5050509392505050565b600082601f83011261228257612281611fb2565b5b8135612292848260208601612204565b91505092915050565b6000602082840312156122b1576122b0611f43565b5b600082013567ffffffffffffffff8111156122cf576122ce611f48565b5b6122db8482850161226d565b91505092915050565b6000602082840312156122fa576122f9611f43565b5b6000612308848285016121ef565b91505092915050565b61231a81611f79565b82525050565b60006020820190506123356000830184612311565b92915050565b60008060006060848603121561235457612353611f43565b5b600061236286828701611f64565b935050602061237386828701611f64565b925050604061238486828701611f64565b9150509250925092565b60008115159050919050565b6123a38161238e565b81146123ae57600080fd5b50565b6000813590506123c08161239a565b92915050565b6000602082840312156123dc576123db611f43565b5b60006123ea848285016123b1565b91505092915050565b6123fc816121c6565b82525050565b600060208201905061241760008301846123f3565b92915050565b6124268161238e565b82525050565b6000602082019050612441600083018461241d565b92915050565b600061ffff82169050919050565b61245e81612447565b811461246957600080fd5b50565b60008135905061247b81612455565b92915050565b60008060008060008060c0878903121561249e5761249d611f43565b5b60006124ac89828a016121ef565b96505060206124bd89828a01611f9d565b95505060406124ce89828a01611f64565b94505060606124df89828a0161246c565b93505060806124f089828a01611f64565b92505060a061250189828a01611f64565b9150509295509295509295565b600082825260208201905092915050565b7f4f776e61626c653a2063616c6c6572206973206e6f7420746865206f776e6572600082015250565b600061255560208361250e565b91506125608261251f565b602082019050919050565b6000602082019050818103600083015261258481612548565b9050919050565b7f4e487b7100000000000000000000000000000000000000000000000000000000600052603260045260246000fd5b7f4e487b7100000000000000000000000000000000000000000000000000000000600052601160045260246000fd5b60006125f482611f79565b91506125ff83611f79565b92508260ff03821115612615576126146125ba565b5b828201905092915050565b600060408201905061263560008301856123f3565b6126426020830184612311565b9392505050565b600061265482611f05565b91507fffffffffffffffffffffffffffffffffffffffffffffffffffffffffffffffff821415612687576126866125ba565b5b600182019050919050565b600061269d82611f79565b91506126a883611f79565b9250828210156126bb576126ba6125ba565b5b828203905092915050565b60006126d182611f05565b91506126dc83611f05565b9250817fffffffffffffffffffffffffffffffffffffffffffffffffffffffffffffffff0483118215151615612715576127146125ba565b5b828202905092915050565b7f4e487b7100000000000000000000000000000000000000000000000000000000600052601260045260246000fd5b600061275a82611f05565b915061276583611f05565b92508261277557612774612720565b5b828204905092915050565b7f4f6e6c7920636f6e74726f6c6c6572732063616e206578656375746500000000600082015250565b60006127b6601c8361250e565b91506127c182612780565b602082019050919050565b600060208201905081810360008301526127e5816127a9565b9050919050565b7f496e76616c6964206d696e7420616d6f756e7400000000000000000000000000600082015250565b600061282260138361250e565b915061282d826127ec565b602082019050919050565b6000602082019050818103600083015261285181612815565b9050919050565b600061286382612447565b915061286e83612447565b92508261ffff03821115612885576128846125ba565b5b828201905092915050565b7f416c6c20746f6b656e73206d696e746564000000000000000000000000000000600082015250565b60006128c660118361250e565b91506128d182612890565b602082019050919050565b600060208201905081810360008301526128f5816128b9565b9050919050565b7f4e6f742077686974656c69737465640000000000000000000000000000000000600082015250565b6000612932600f8361250e565b915061293d826128fc565b602082019050919050565b6000602082019050818103600083015261296181612925565b9050919050565b7f4e6f7420656e6f7567682047656e203020746f6b656e73206c6566742c20726560008201527f6475636520616d6f756e74000000000000000000000000000000000000000000602082015250565b60006129c4602b8361250e565b91506129cf82612968565b604082019050919050565b600060208201905081810360008301526129f3816129b7565b9050919050565b7f496e76616c6964207061796d656e7420616d6f756e7400000000000000000000600082015250565b6000612a3060168361250e565b9150612a3b826129fa565b602082019050919050565b60006020820190508181036000830152612a5f81612a23565b9050919050565b7f496e76616c6964207061796d656e7420747970652c20616363657074696e672060008201527f666f6f6420746f6b656e73206f6e6c7900000000000000000000000000000000602082015250565b6000612ac260308361250e565b9150612acd82612a66565b604082019050919050565b60006020820190508181036000830152612af181612ab5565b9050919050565b6000612b0382611f05565b9150612b0e83611f05565b9250827fffffffffffffffffffffffffffffffffffffffffffffffffffffffffffffffff03821115612b4357612b426125ba565b5b828201905092915050565b6000604082019050612b6360008301856123f3565b612b706020830184611f0f565b9392505050565b7f496e697469616c697a61626c653a20636f6e747261637420697320616c72656160008201527f647920696e697469616c697a6564000000000000000000000000000000000000602082015250565b6000612bd3602e8361250e565b9150612bde82612b77565b604082019050919050565b60006020820190508181036000830152612c0281612bc6565b9050919050565b7f4f776e61626c653a206e6577206f776e657220697320746865207a65726f206160008201527f6464726573730000000000000000000000000000000000000000000000000000602082015250565b6000612c6560268361250e565b9150612c7082612c09565b604082019050919050565b60006020820190508181036000830152612c9481612c58565b9050919050565b7f496e697469616c697a61626c653a20636f6e7472616374206973206e6f74206960008201527f6e697469616c697a696e67000000000000000000000000000000000000000000602082015250565b6000612cf7602b8361250e565b9150612d0282612c9b565b604082019050919050565b60006020820190508181036000830152612d2681612cea565b905091905056fea2646970667358221220152aafc2e2eed3c7e8d91ef5be6ebc35efd203eb74c24948958ebbc132f9088f64736f6c634300080a0033",
  "immutableReferences": {},
  "source": "// SPDX-License-Identifier: MIT\n\npragma solidity ^0.8.0;\n\nimport \"@openzeppelin/contracts-upgradeable/proxy/utils/Initializable.sol\";\nimport \"./ControllableUpgradeable.sol\";\nimport \"./FastFood.sol\";\n\ncontract Paywall is Initializable, OwnableUpgradeable, ControllableUpgradeable {\n  uint256 public mintPrice;\n  uint8 public maxMintsPerTx; // Maximum number of tokens that can be minted in a single tx\n  uint256 public gen1PriceTier0;\n  uint256 public gen1PriceTier1;\n  uint256 public gen1PriceTier2;\n  uint256 public gen1PriceTier3;\n  mapping(address => uint8) public whitelist; // Mapping from address to a number of remaining whitelist spots\n  mapping(address => uint8) public freeMints; // Mapping from address to a number of remaining free mint spots\n  bool public onlyWhitelist; // Whether minting is only open for whitelisted addresses\n\n  FastFood fastFood; // Reference to the $FFOOD contract\n\n  event UpdateWhitelist(address account, uint8 amount);\n  event UpdateFreeMints(address account, uint8 amount);\n\n  function initialize(address _fastFood) external initializer {\n    __Ownable_init();\n\n    fastFood = FastFood(_fastFood);\n    onlyWhitelist = false;\n  }\n\n  /**\n   * Allows DAO to update game parameters\n   */\n  function configure(uint256 _mintPrice, uint8 _maxMintsPerTx, uint256[] memory _gen1Prices) external onlyOwner {\n    mintPrice = _mintPrice;\n    maxMintsPerTx = _maxMintsPerTx;\n    gen1PriceTier0 = _gen1Prices[0];\n    gen1PriceTier1 = _gen1Prices[1];\n    gen1PriceTier2 = _gen1Prices[2];\n    gen1PriceTier3 = _gen1Prices[3];\n  }\n\n  /**\n   * Toggles the whitelist on and off\n   * @param _enable - true enables it\n   */\n  function toggleWhitelist(bool _enable) external onlyOwner {\n    onlyWhitelist = _enable;\n  }\n\n  /**\n   * Adds a list of addresses to the whitelist\n   * @param addresses - An array of addresses to add\n   */\n  function addToWhitelist(address[] memory addresses) external onlyOwner {\n    for (uint i = 0; i < addresses.length; i++) {\n      uint8 amount = whitelist[addresses[i]];\n      whitelist[addresses[i]] = amount < 100 ? amount + 1 : 100;\n      emit UpdateWhitelist(addresses[i], whitelist[addresses[i]]);\n    }\n  }\n\n  /**\n   * Remove a list of addresses from the whitelist\n   * @param addresses - An array of addresses to remove\n   */\n  function removeFromWhitelist(address[] memory addresses) external onlyOwner {\n    for (uint i = 0; i < addresses.length; i++) {\n      uint8 amount = whitelist[addresses[i]];\n      whitelist[addresses[i]] = amount > 1 ? amount - 1 : 0;\n      emit UpdateWhitelist(addresses[i], whitelist[addresses[i]]);\n    }\n  }\n\n  /**\n   * Adds a list of addresses to the free mints\n   * @param addresses - An array of addresses to add\n   */\n  function addToFreeMints(address[] memory addresses) external onlyOwner {\n    for (uint i = 0; i < addresses.length; i++) {\n      uint8 amount = freeMints[addresses[i]];\n      freeMints[addresses[i]] = amount < 100 ? amount + 1 : 100;\n      emit UpdateFreeMints(addresses[i], freeMints[addresses[i]]);\n    }\n  }\n\n  /**\n   * Remove a list of addresses from the free mints\n   * @param addresses - An array of addresses to remove\n   */\n  function removeFromFreeMints(address[] memory addresses) external onlyOwner {\n    for (uint i = 0; i < addresses.length; i++) {\n      uint8 amount = freeMints[addresses[i]];\n      freeMints[addresses[i]] = amount > 1 ? amount - 1 : 0;\n      emit UpdateFreeMints(addresses[i], freeMints[addresses[i]]);\n    }\n  }\n\n  /**\n   * ChainLink VRF request: Mints a new ERC721 token: 90% chefs, 10% rats\n   * The first 20% are free to claim, the remaining cost $FFOOD\n   * @param sender - User wallet address\n   * @param amount - Number of tokens to mint\n   * @param msgValue - Value sent with the transaction\n   * @param minted - Number of total tokens minted\n   * @param maxTokens - Max number of tokens that can be minted\n   * @param gen0Tokens - Number of tokens that can be claimed for free\n   */\n  function handle(address sender, uint8 amount, uint256 msgValue, uint16 minted, uint256 maxTokens, uint256 gen0Tokens) external onlyController {\n    require(amount > 0 && amount <= maxMintsPerTx, \"Invalid mint amount\");\n    require(minted + amount <= maxTokens, \"All tokens minted\");\n    uint256 txMintPrice = mintPrice;\n    if (onlyWhitelist) {\n      require(freeMints[sender] >= amount || whitelist[sender] >= amount, \"Not whitelisted\");\n    }\n    if (freeMints[sender] >= amount) {\n      freeMints[sender] -= amount;\n      emit UpdateFreeMints(sender, freeMints[sender]);\n      txMintPrice = 0;\n    } else if (whitelist[sender] >= amount) {\n      whitelist[sender] -= amount;\n      emit UpdateWhitelist(sender, whitelist[sender]);\n      txMintPrice = mintPrice * 90 / 100;\n    }\n    uint256 totalCost = 0;\n    if (minted < gen0Tokens) {\n      require(minted + amount <= gen0Tokens, \"Not enough Gen 0 tokens left, reduce amount\");\n      require(amount * txMintPrice == msgValue, \"Invalid payment amount\");\n    } else {\n      require(msgValue == 0, \"Invalid payment type, accepting food tokens only\");\n      for (uint i = 1; i <= amount; i++) {\n        totalCost += mintCost(minted + i, maxTokens, gen0Tokens);\n      }\n    }\n    if (totalCost > 0) fastFood.burn(sender, totalCost);\n  }\n\n  /**\n   *     1 - 10000: cost ETH\n   * 10001 - 20000: 1000 $FFOOD\n   * 20001 - 30000: 1500 $FFOOD\n   * 30001 - 40000: 2000 $FFOOD\n   * 40001 - 50000: 3000 $FFOOD\n   * @param tokenId - The token ID to check\n   * @return The minting cost of the given ID\n   */\n  function mintCost(uint256 tokenId, uint256 maxTokens, uint256 gen0Tokens) public view returns (uint256) {\n    if (tokenId <= gen0Tokens) return 0;\n    if (tokenId <= maxTokens * 2 / 5) return gen1PriceTier0;\n    if (tokenId <= maxTokens * 3 / 5) return gen1PriceTier1;\n    if (tokenId <= maxTokens * 4 / 5) return gen1PriceTier2;\n    return gen1PriceTier3;\n  }\n}\n",
  "sourcePath": "/Users/chris/workspace/ratalert/ratalert-contracts/contracts/Paywall.sol",
  "compiler": {
    "name": "solc",
    "version": "0.8.10+commit.fc410830.Emscripten.clang"
  },
  "schemaVersion": "3.4.5",
  "updatedAt": "2022-03-16T22:39:02.700Z",
  "networkType": "ethereum",
  "devdoc": {
    "kind": "dev",
    "methods": {
      "addController(address)": {
        "params": {
          "_controller": "- The address to enable"
        }
      },
      "addToFreeMints(address[])": {
        "params": {
          "addresses": "- An array of addresses to add"
        }
      },
      "addToWhitelist(address[])": {
        "params": {
          "addresses": "- An array of addresses to add"
        }
      },
      "controller(address)": {
        "params": {
          "_controller": "- The address to check"
        }
      },
      "handle(address,uint8,uint256,uint16,uint256,uint256)": {
        "params": {
          "amount": "- Number of tokens to mint",
          "gen0Tokens": "- Number of tokens that can be claimed for free",
          "maxTokens": "- Max number of tokens that can be minted",
          "minted": "- Number of total tokens minted",
          "msgValue": "- Value sent with the transaction",
          "sender": "- User wallet address"
        }
      },
      "mintCost(uint256,uint256,uint256)": {
        "params": {
          "tokenId": "- The token ID to check"
        },
        "returns": {
          "_0": "The minting cost of the given ID"
        }
      },
      "owner()": {
        "details": "Returns the address of the current owner."
      },
      "removeController(address)": {
        "params": {
          "_controller": "- The address to disable"
        }
      },
      "removeFromFreeMints(address[])": {
        "params": {
          "addresses": "- An array of addresses to remove"
        }
      },
      "removeFromWhitelist(address[])": {
        "params": {
          "addresses": "- An array of addresses to remove"
        }
      },
      "renounceOwnership()": {
        "details": "Leaves the contract without owner. It will not be possible to call `onlyOwner` functions anymore. Can only be called by the current owner. NOTE: Renouncing ownership will leave the contract without an owner, thereby removing any functionality that is only available to the owner."
      },
      "toggleWhitelist(bool)": {
        "params": {
          "_enable": "- true enables it"
        }
      },
      "transferOwnership(address)": {
        "details": "Transfers ownership of the contract to a new account (`newOwner`). Can only be called by the current owner."
      }
    },
    "version": 1
  },
  "userdoc": {
    "kind": "user",
    "methods": {
      "addController(address)": {
        "notice": "Enables an address to mint / burn"
      },
      "addToFreeMints(address[])": {
        "notice": "Adds a list of addresses to the free mints"
      },
      "addToWhitelist(address[])": {
        "notice": "Adds a list of addresses to the whitelist"
      },
      "configure(uint256,uint8,uint256[])": {
        "notice": "Allows DAO to update game parameters"
      },
      "controller(address)": {
        "notice": "Gets controller status by address"
      },
      "handle(address,uint8,uint256,uint16,uint256,uint256)": {
        "notice": "ChainLink VRF request: Mints a new ERC721 token: 90% chefs, 10% rats The first 20% are free to claim, the remaining cost $FFOOD"
      },
      "mintCost(uint256,uint256,uint256)": {
        "notice": "1 - 10000: cost ETH 10001 - 20000: 1000 $FFOOD 20001 - 30000: 1500 $FFOOD 30001 - 40000: 2000 $FFOOD 40001 - 50000: 3000 $FFOOD"
      },
      "removeController(address)": {
        "notice": "Disables an address from minting / burning"
      },
      "removeFromFreeMints(address[])": {
        "notice": "Remove a list of addresses from the free mints"
      },
      "removeFromWhitelist(address[])": {
        "notice": "Remove a list of addresses from the whitelist"
      },
      "toggleWhitelist(bool)": {
        "notice": "Toggles the whitelist on and off"
      }
    },
    "version": 1
  }
}