{
  "contractName": "PaywallV2",
  "abi": [
    {
      "anonymous": false,
      "inputs": [
        {
          "indexed": true,
          "internalType": "address",
          "name": "previousOwner",
          "type": "address"
        },
        {
          "indexed": true,
          "internalType": "address",
          "name": "newOwner",
          "type": "address"
        }
      ],
      "name": "OwnershipTransferred",
      "type": "event"
    },
    {
      "anonymous": false,
      "inputs": [
        {
          "indexed": false,
          "internalType": "address",
          "name": "account",
          "type": "address"
        },
        {
          "indexed": false,
          "internalType": "uint8",
          "name": "amount",
          "type": "uint8"
        }
      ],
      "name": "UpdateFreeMints",
      "type": "event"
    },
    {
      "anonymous": false,
      "inputs": [
        {
          "indexed": false,
          "internalType": "address",
          "name": "account",
          "type": "address"
        },
        {
          "indexed": false,
          "internalType": "uint8",
          "name": "amount",
          "type": "uint8"
        }
      ],
      "name": "UpdateWhitelist",
      "type": "event"
    },
    {
      "inputs": [
        {
          "internalType": "address[]",
          "name": "_controllers",
          "type": "address[]"
        }
      ],
      "name": "addController",
      "outputs": [],
      "stateMutability": "nonpayable",
      "type": "function"
    },
    {
      "inputs": [
        {
          "internalType": "address",
          "name": "_controller",
          "type": "address"
        }
      ],
      "name": "controller",
      "outputs": [
        {
          "internalType": "bool",
          "name": "",
          "type": "bool"
        }
      ],
      "stateMutability": "view",
      "type": "function"
    },
    {
      "inputs": [
        {
          "internalType": "address",
          "name": "",
          "type": "address"
        }
      ],
      "name": "freeMints",
      "outputs": [
        {
          "internalType": "uint8",
          "name": "",
          "type": "uint8"
        }
      ],
      "stateMutability": "view",
      "type": "function"
    },
    {
      "inputs": [],
      "name": "gen1PriceTier0",
      "outputs": [
        {
          "internalType": "uint256",
          "name": "",
          "type": "uint256"
        }
      ],
      "stateMutability": "view",
      "type": "function"
    },
    {
      "inputs": [],
      "name": "gen1PriceTier1",
      "outputs": [
        {
          "internalType": "uint256",
          "name": "",
          "type": "uint256"
        }
      ],
      "stateMutability": "view",
      "type": "function"
    },
    {
      "inputs": [],
      "name": "gen1PriceTier2",
      "outputs": [
        {
          "internalType": "uint256",
          "name": "",
          "type": "uint256"
        }
      ],
      "stateMutability": "view",
      "type": "function"
    },
    {
      "inputs": [],
      "name": "gen1PriceTier3",
      "outputs": [
        {
          "internalType": "uint256",
          "name": "",
          "type": "uint256"
        }
      ],
      "stateMutability": "view",
      "type": "function"
    },
    {
      "inputs": [],
      "name": "maxMintsPerTx",
      "outputs": [
        {
          "internalType": "uint8",
          "name": "",
          "type": "uint8"
        }
      ],
      "stateMutability": "view",
      "type": "function"
    },
    {
      "inputs": [],
      "name": "mintPrice",
      "outputs": [
        {
          "internalType": "uint256",
          "name": "",
          "type": "uint256"
        }
      ],
      "stateMutability": "view",
      "type": "function"
    },
    {
      "inputs": [],
      "name": "onlyWhitelist",
      "outputs": [
        {
          "internalType": "bool",
          "name": "",
          "type": "bool"
        }
      ],
      "stateMutability": "view",
      "type": "function"
    },
    {
      "inputs": [],
      "name": "owner",
      "outputs": [
        {
          "internalType": "address",
          "name": "",
          "type": "address"
        }
      ],
      "stateMutability": "view",
      "type": "function"
    },
    {
      "inputs": [
        {
          "internalType": "address[]",
          "name": "_controllers",
          "type": "address[]"
        }
      ],
      "name": "removeController",
      "outputs": [],
      "stateMutability": "nonpayable",
      "type": "function"
    },
    {
      "inputs": [],
      "name": "renounceOwnership",
      "outputs": [],
      "stateMutability": "nonpayable",
      "type": "function"
    },
    {
      "inputs": [
        {
          "internalType": "address",
          "name": "_dao",
          "type": "address"
        }
      ],
      "name": "setDao",
      "outputs": [],
      "stateMutability": "nonpayable",
      "type": "function"
    },
    {
      "inputs": [
        {
          "internalType": "address",
          "name": "newOwner",
          "type": "address"
        }
      ],
      "name": "transferOwnership",
      "outputs": [],
      "stateMutability": "nonpayable",
      "type": "function"
    },
    {
      "inputs": [
        {
          "internalType": "address",
          "name": "",
          "type": "address"
        }
      ],
      "name": "whitelist",
      "outputs": [
        {
          "internalType": "uint8",
          "name": "",
          "type": "uint8"
        }
      ],
      "stateMutability": "view",
      "type": "function"
    },
    {
      "inputs": [],
      "name": "whitelistBoost",
      "outputs": [
        {
          "internalType": "int8",
          "name": "",
          "type": "int8"
        }
      ],
      "stateMutability": "view",
      "type": "function"
    },
    {
      "inputs": [
        {
          "internalType": "address",
          "name": "_fastFood",
          "type": "address"
        }
      ],
      "name": "initialize",
      "outputs": [],
      "stateMutability": "nonpayable",
      "type": "function"
    },
    {
      "inputs": [
        {
          "internalType": "uint256",
          "name": "_mintPrice",
          "type": "uint256"
        },
        {
          "internalType": "int8",
          "name": "_whitelistBoost",
          "type": "int8"
        },
        {
          "internalType": "uint8",
          "name": "_maxMintsPerTx",
          "type": "uint8"
        },
        {
          "internalType": "uint256[]",
          "name": "_gen1Prices",
          "type": "uint256[]"
        }
      ],
      "name": "configure",
      "outputs": [],
      "stateMutability": "nonpayable",
      "type": "function"
    },
    {
      "inputs": [
        {
          "internalType": "bool",
          "name": "_enable",
          "type": "bool"
        }
      ],
      "name": "toggleWhitelist",
      "outputs": [],
      "stateMutability": "nonpayable",
      "type": "function"
    },
    {
      "inputs": [
        {
          "internalType": "address[]",
          "name": "addresses",
          "type": "address[]"
        }
      ],
      "name": "addToWhitelist",
      "outputs": [],
      "stateMutability": "nonpayable",
      "type": "function"
    },
    {
      "inputs": [
        {
          "internalType": "address[]",
          "name": "addresses",
          "type": "address[]"
        }
      ],
      "name": "removeFromWhitelist",
      "outputs": [],
      "stateMutability": "nonpayable",
      "type": "function"
    },
    {
      "inputs": [
        {
          "internalType": "address[]",
          "name": "addresses",
          "type": "address[]"
        }
      ],
      "name": "addToFreeMints",
      "outputs": [],
      "stateMutability": "nonpayable",
      "type": "function"
    },
    {
      "inputs": [
        {
          "internalType": "address[]",
          "name": "addresses",
          "type": "address[]"
        }
      ],
      "name": "removeFromFreeMints",
      "outputs": [],
      "stateMutability": "nonpayable",
      "type": "function"
    },
    {
      "inputs": [
        {
          "internalType": "address",
          "name": "sender",
          "type": "address"
        },
        {
          "internalType": "uint8",
          "name": "amount",
          "type": "uint8"
        },
        {
          "internalType": "uint256",
          "name": "msgValue",
          "type": "uint256"
        },
        {
          "internalType": "uint16",
          "name": "minted",
          "type": "uint16"
        },
        {
          "internalType": "uint256",
          "name": "maxTokens",
          "type": "uint256"
        },
        {
          "internalType": "uint256",
          "name": "gen0Tokens",
          "type": "uint256"
        }
      ],
      "name": "handle",
      "outputs": [
        {
          "internalType": "int8",
          "name": "boost",
          "type": "int8"
        }
      ],
      "stateMutability": "nonpayable",
      "type": "function"
    },
    {
      "inputs": [
        {
          "internalType": "uint256",
          "name": "tokenId",
          "type": "uint256"
        },
        {
          "internalType": "uint256",
          "name": "maxTokens",
          "type": "uint256"
        },
        {
          "internalType": "uint256",
          "name": "gen0Tokens",
          "type": "uint256"
        }
      ],
      "name": "mintCost",
      "outputs": [
        {
          "internalType": "uint256",
          "name": "",
          "type": "uint256"
        }
      ],
      "stateMutability": "view",
      "type": "function"
    }
  ],
  "bytecode": "0x608060405234801561001057600080fd5b50613096806100206000396000f3fe608060405234801561001057600080fd5b506004361061018e5760003560e01c806380e3f1ad116100de578063a88e099611610097578063c3a7cc5a11610071578063c3a7cc5a1461045d578063c4d66de814610479578063dc30158b14610495578063f2fde38b146104b35761018e565b8063a88e0996146103df578063abc26c60146103fd578063c13aa7b51461042d5761018e565b806380e3f1ad1461031f5780638da5cb5b1461033b57806392c405b6146103595780639b19251a14610375578063a4e57330146103a5578063a83a7202146103c35761018e565b80636502672c1161014b5780636d41d4fb116101255780636d41d4fb14610299578063715018a6146102c95780637a92e551146102d35780637f649783146103035761018e565b80636502672c146102415780636637b8821461025f5780636817c76c1461027b5761018e565b806303f7d3881461019357806328ca26cd146101b1578063499009a4146101cf5780634d3e873c146101ed57806350fcfd3914610209578063548db17414610225575b600080fd5b61019b6104cf565b6040516101a891906120c1565b60405180910390f35b6101b96104d5565b6040516101c691906120c1565b60405180910390f35b6101d76104db565b6040516101e491906120f8565b60405180910390f35b61020760048036038101906102029190612311565b6104ee565b005b610223600480360381019061021e91906124b5565b610638565b005b61023f600480360381019061023a91906124b5565b610819565b005b6102496109fa565b60405161025691906120c1565b60405180910390f35b610279600480360381019061027491906124fe565b610a00565b005b610283610ac0565b60405161029091906120c1565b60405180910390f35b6102b360048036038101906102ae91906124fe565b610ac6565b6040516102c0919061253a565b60405180910390f35b6102d1610ae6565b005b6102ed60048036038101906102e89190612555565b610b6e565b6040516102fa91906120c1565b60405180910390f35b61031d600480360381019061031891906124b5565b610c4a565b005b610339600480360381019061033491906125e0565b610e2b565b005b610343610e50565b604051610350919061261c565b60405180910390f35b610373600480360381019061036e91906124b5565b610e7a565b005b61038f600480360381019061038a91906124fe565b610f8b565b60405161039c919061253a565b60405180910390f35b6103ad610fab565b6040516103ba91906120c1565b60405180910390f35b6103dd60048036038101906103d891906124b5565b610fb1565b005b6103e76110c2565b6040516103f49190612646565b60405180910390f35b6104176004803603810190610412919061269b565b6110d5565b60405161042491906120f8565b60405180910390f35b610447600480360381019061044291906124fe565b611941565b6040516104549190612646565b60405180910390f35b610477600480360381019061047291906124b5565b611997565b005b610493600480360381019061048e91906124fe565b611b78565b005b61049d611cc1565b6040516104aa919061253a565b60405180910390f35b6104cd60048036038101906104c891906124fe565b611cd4565b005b606c5481565b606a5481565b606860009054906101000a900460000b81565b6104f6611dcc565b73ffffffffffffffffffffffffffffffffffffffff16610514610e50565b73ffffffffffffffffffffffffffffffffffffffff161461056a576040517f08c379a000000000000000000000000000000000000000000000000000000000815260040161056190612785565b60405180910390fd5b8360678190555082606860006101000a81548160ff021916908360000b60ff16021790555081606860016101000a81548160ff021916908360ff160217905550806000815181106105be576105bd6127a5565b5b6020026020010151606981905550806001815181106105e0576105df6127a5565b5b6020026020010151606a8190555080600281518110610602576106016127a5565b5b6020026020010151606b8190555080600381518110610624576106236127a5565b5b6020026020010151606c8190555050505050565b610640611dd4565b60005b8151811015610815576000606e6000848481518110610665576106646127a5565b5b602002602001015173ffffffffffffffffffffffffffffffffffffffff1673ffffffffffffffffffffffffffffffffffffffff16815260200190815260200160002060009054906101000a900460ff16905060648160ff16106106c95760646106d7565b6001816106d69190612803565b5b606e60008585815181106106ee576106ed6127a5565b5b602002602001015173ffffffffffffffffffffffffffffffffffffffff1673ffffffffffffffffffffffffffffffffffffffff16815260200190815260200160002060006101000a81548160ff021916908360ff1602179055507fea925f43ecd5282ea8fb307fee3f67644aaa3d20f1894d6a433db3e5d325564783838151811061077c5761077b6127a5565b5b6020026020010151606e600086868151811061079b5761079a6127a5565b5b602002602001015173ffffffffffffffffffffffffffffffffffffffff1673ffffffffffffffffffffffffffffffffffffffff16815260200190815260200160002060009054906101000a900460ff166040516107f992919061283a565b60405180910390a150808061080d90612863565b915050610643565b5050565b610821611dd4565b60005b81518110156109f6576000606d6000848481518110610846576108456127a5565b5b602002602001015173ffffffffffffffffffffffffffffffffffffffff1673ffffffffffffffffffffffffffffffffffffffff16815260200190815260200160002060009054906101000a900460ff16905060018160ff16116108aa5760006108b8565b6001816108b791906128ac565b5b606d60008585815181106108cf576108ce6127a5565b5b602002602001015173ffffffffffffffffffffffffffffffffffffffff1673ffffffffffffffffffffffffffffffffffffffff16815260200190815260200160002060006101000a81548160ff021916908360ff1602179055507fcdc5caa840688c7b2fdfb48b53223f1187b9ec9a1d99d69043af921a8a3d969283838151811061095d5761095c6127a5565b5b6020026020010151606d600086868151811061097c5761097b6127a5565b5b602002602001015173ffffffffffffffffffffffffffffffffffffffff1673ffffffffffffffffffffffffffffffffffffffff16815260200190815260200160002060009054906101000a900460ff166040516109da92919061283a565b60405180910390a15080806109ee90612863565b915050610824565b5050565b60695481565b610a08611dcc565b73ffffffffffffffffffffffffffffffffffffffff16610a26610e50565b73ffffffffffffffffffffffffffffffffffffffff1614610a7c576040517f08c379a0000000000000000000000000000000000000000000000000000000008152600401610a7390612785565b60405180910390fd5b80606660006101000a81548173ffffffffffffffffffffffffffffffffffffffff021916908373ffffffffffffffffffffffffffffffffffffffff16021790555050565b60675481565b606e6020528060005260406000206000915054906101000a900460ff1681565b610aee611dcc565b73ffffffffffffffffffffffffffffffffffffffff16610b0c610e50565b73ffffffffffffffffffffffffffffffffffffffff1614610b62576040517f08c379a0000000000000000000000000000000000000000000000000000000008152600401610b5990612785565b60405180910390fd5b610b6c6000611e66565b565b6000818411610b805760009050610c43565b81600460018486610b9191906128e0565b610b9b9190612914565b610ba5919061299d565b610baf91906129ce565b8411610bbf576069549050610c43565b81600460028486610bd091906128e0565b610bda9190612914565b610be4919061299d565b610bee91906129ce565b8411610bfe57606a549050610c43565b81600460038486610c0f91906128e0565b610c199190612914565b610c23919061299d565b610c2d91906129ce565b8411610c3d57606b549050610c43565b606c5490505b9392505050565b610c52611dd4565b60005b8151811015610e27576000606d6000848481518110610c7757610c766127a5565b5b602002602001015173ffffffffffffffffffffffffffffffffffffffff1673ffffffffffffffffffffffffffffffffffffffff16815260200190815260200160002060009054906101000a900460ff16905060648160ff1610610cdb576064610ce9565b600181610ce89190612803565b5b606d6000858581518110610d0057610cff6127a5565b5b602002602001015173ffffffffffffffffffffffffffffffffffffffff1673ffffffffffffffffffffffffffffffffffffffff16815260200190815260200160002060006101000a81548160ff021916908360ff1602179055507fcdc5caa840688c7b2fdfb48b53223f1187b9ec9a1d99d69043af921a8a3d9692838381518110610d8e57610d8d6127a5565b5b6020026020010151606d6000868681518110610dad57610dac6127a5565b5b602002602001015173ffffffffffffffffffffffffffffffffffffffff1673ffffffffffffffffffffffffffffffffffffffff16815260200190815260200160002060009054906101000a900460ff16604051610e0b92919061283a565b60405180910390a1508080610e1f90612863565b915050610c55565b5050565b610e33611dd4565b80606f60006101000a81548160ff02191690831515021790555050565b6000603360009054906101000a900473ffffffffffffffffffffffffffffffffffffffff16905090565b610e82611dcc565b73ffffffffffffffffffffffffffffffffffffffff16610ea0610e50565b73ffffffffffffffffffffffffffffffffffffffff1614610ef6576040517f08c379a0000000000000000000000000000000000000000000000000000000008152600401610eed90612785565b60405180910390fd5b60005b8151811015610f8757600060656000848481518110610f1b57610f1a6127a5565b5b602002602001015173ffffffffffffffffffffffffffffffffffffffff1673ffffffffffffffffffffffffffffffffffffffff16815260200190815260200160002060006101000a81548160ff0219169083151502179055508080610f7f90612863565b915050610ef9565b5050565b606d6020528060005260406000206000915054906101000a900460ff1681565b606b5481565b610fb9611dcc565b73ffffffffffffffffffffffffffffffffffffffff16610fd7610e50565b73ffffffffffffffffffffffffffffffffffffffff161461102d576040517f08c379a000000000000000000000000000000000000000000000000000000000815260040161102490612785565b60405180910390fd5b60005b81518110156110be57600160656000848481518110611052576110516127a5565b5b602002602001015173ffffffffffffffffffffffffffffffffffffffff1673ffffffffffffffffffffffffffffffffffffffff16815260200190815260200160002060006101000a81548160ff02191690831515021790555080806110b690612863565b915050611030565b5050565b606f60009054906101000a900460ff1681565b60006110df611f2c565b60008660ff161180156111075750606860019054906101000a900460ff1660ff168660ff1611155b611146576040517f08c379a000000000000000000000000000000000000000000000000000000000815260040161113d90612a70565b60405180910390fd5b828660ff16856111569190612a90565b61ffff16111561119b576040517f08c379a000000000000000000000000000000000000000000000000000000000815260040161119290612b14565b60405180910390fd5b6000905060006067549050606f60009054906101000a900460ff16156112ae578660ff16606e60008a73ffffffffffffffffffffffffffffffffffffffff1673ffffffffffffffffffffffffffffffffffffffff16815260200190815260200160002060009054906101000a900460ff1660ff1610158061126e57508660ff16606d60008a73ffffffffffffffffffffffffffffffffffffffff1673ffffffffffffffffffffffffffffffffffffffff16815260200190815260200160002060009054906101000a900460ff1660ff1610155b6112ad576040517f08c379a00000000000000000000000000000000000000000000000000000000081526004016112a490612b80565b60405180910390fd5b5b6000838661ffff16101561164257838860ff16876112cc9190612a90565b61ffff161115611311576040517f08c379a000000000000000000000000000000000000000000000000000000000815260040161130890612c12565b60405180910390fd5b8760ff16606e60008b73ffffffffffffffffffffffffffffffffffffffff1673ffffffffffffffffffffffffffffffffffffffff16815260200190815260200160002060009054906101000a900460ff1660ff161061146b5787606e60008b73ffffffffffffffffffffffffffffffffffffffff1673ffffffffffffffffffffffffffffffffffffffff16815260200190815260200160002060008282829054906101000a900460ff166113c591906128ac565b92506101000a81548160ff021916908360ff1602179055507fea925f43ecd5282ea8fb307fee3f67644aaa3d20f1894d6a433db3e5d325564789606e60008c73ffffffffffffffffffffffffffffffffffffffff1673ffffffffffffffffffffffffffffffffffffffff16815260200190815260200160002060009054906101000a900460ff1660405161145a92919061283a565b60405180910390a1600091506115ed565b8760ff16606d60008b73ffffffffffffffffffffffffffffffffffffffff1673ffffffffffffffffffffffffffffffffffffffff16815260200190815260200160002060009054906101000a900460ff1660ff16106115ec5787606d60008b73ffffffffffffffffffffffffffffffffffffffff1673ffffffffffffffffffffffffffffffffffffffff16815260200190815260200160002060008282829054906101000a900460ff1661151f91906128ac565b92506101000a81548160ff021916908360ff1602179055507fcdc5caa840688c7b2fdfb48b53223f1187b9ec9a1d99d69043af921a8a3d969289606d60008c73ffffffffffffffffffffffffffffffffffffffff1673ffffffffffffffffffffffffffffffffffffffff16815260200190815260200160002060009054906101000a900460ff166040516115b492919061283a565b60405180910390a16064605a6067546115cd9190612914565b6115d7919061299d565b9150606860009054906101000a900460000b92505b5b86828960ff166115fd9190612914565b1461163d576040517f08c379a000000000000000000000000000000000000000000000000000000000815260040161163490612c7e565b60405180910390fd5b61189c565b60008714611685576040517f08c379a000000000000000000000000000000000000000000000000000000000815260040161167c90612d10565b60405180910390fd5b8760ff16606e60008b73ffffffffffffffffffffffffffffffffffffffff1673ffffffffffffffffffffffffffffffffffffffff16815260200190815260200160002060009054906101000a900460ff1660ff16106117db5787606e60008b73ffffffffffffffffffffffffffffffffffffffff1673ffffffffffffffffffffffffffffffffffffffff16815260200190815260200160002060008282829054906101000a900460ff1661173991906128ac565b92506101000a81548160ff021916908360ff1602179055507fea925f43ecd5282ea8fb307fee3f67644aaa3d20f1894d6a433db3e5d325564789606e60008c73ffffffffffffffffffffffffffffffffffffffff1673ffffffffffffffffffffffffffffffffffffffff16815260200190815260200160002060009054906101000a900460ff166040516117ce92919061283a565b60405180910390a161189b565b6000600190505b8860ff168111611899573073ffffffffffffffffffffffffffffffffffffffff16637a92e551828961ffff1661181891906129ce565b88886040518463ffffffff1660e01b815260040161183893929190612d30565b602060405180830381865afa158015611855573d6000803e3d6000fd5b505050506040513d601f19601f820116820180604052508101906118799190612d7c565b8261188491906129ce565b9150808061189190612863565b9150506117e2565b505b5b600081111561193557606f60019054906101000a900473ffffffffffffffffffffffffffffffffffffffff1673ffffffffffffffffffffffffffffffffffffffff16639dc29fac8a836040518363ffffffff1660e01b8152600401611902929190612da9565b600060405180830381600087803b15801561191c57600080fd5b505af1158015611930573d6000803e3d6000fd5b505050505b50509695505050505050565b6000606560008373ffffffffffffffffffffffffffffffffffffffff1673ffffffffffffffffffffffffffffffffffffffff16815260200190815260200160002060009054906101000a900460ff169050919050565b61199f611dd4565b60005b8151811015611b74576000606e60008484815181106119c4576119c36127a5565b5b602002602001015173ffffffffffffffffffffffffffffffffffffffff1673ffffffffffffffffffffffffffffffffffffffff16815260200190815260200160002060009054906101000a900460ff16905060018160ff1611611a28576000611a36565b600181611a3591906128ac565b5b606e6000858581518110611a4d57611a4c6127a5565b5b602002602001015173ffffffffffffffffffffffffffffffffffffffff1673ffffffffffffffffffffffffffffffffffffffff16815260200190815260200160002060006101000a81548160ff021916908360ff1602179055507fea925f43ecd5282ea8fb307fee3f67644aaa3d20f1894d6a433db3e5d3255647838381518110611adb57611ada6127a5565b5b6020026020010151606e6000868681518110611afa57611af96127a5565b5b602002602001015173ffffffffffffffffffffffffffffffffffffffff1673ffffffffffffffffffffffffffffffffffffffff16815260200190815260200160002060009054906101000a900460ff16604051611b5892919061283a565b60405180910390a1508080611b6c90612863565b9150506119a2565b5050565b600060019054906101000a900460ff16611ba05760008054906101000a900460ff1615611ba9565b611ba8611fba565b5b611be8576040517f08c379a0000000000000000000000000000000000000000000000000000000008152600401611bdf90612e44565b60405180910390fd5b60008060019054906101000a900460ff161590508015611c38576001600060016101000a81548160ff02191690831515021790555060016000806101000a81548160ff0219169083151502179055505b611c40611fcb565b81606f60016101000a81548173ffffffffffffffffffffffffffffffffffffffff021916908373ffffffffffffffffffffffffffffffffffffffff1602179055506000606f60006101000a81548160ff0219169083151502179055508015611cbd5760008060016101000a81548160ff0219169083151502179055505b5050565b606860019054906101000a900460ff1681565b611cdc611dcc565b73ffffffffffffffffffffffffffffffffffffffff16611cfa610e50565b73ffffffffffffffffffffffffffffffffffffffff1614611d50576040517f08c379a0000000000000000000000000000000000000000000000000000000008152600401611d4790612785565b60405180910390fd5b600073ffffffffffffffffffffffffffffffffffffffff168173ffffffffffffffffffffffffffffffffffffffff161415611dc0576040517f08c379a0000000000000000000000000000000000000000000000000000000008152600401611db790612ed6565b60405180910390fd5b611dc981611e66565b50565b600033905090565b606660009054906101000a900473ffffffffffffffffffffffffffffffffffffffff1673ffffffffffffffffffffffffffffffffffffffff163373ffffffffffffffffffffffffffffffffffffffff1614611e64576040517f08c379a0000000000000000000000000000000000000000000000000000000008152600401611e5b90612f42565b60405180910390fd5b565b6000603360009054906101000a900473ffffffffffffffffffffffffffffffffffffffff16905081603360006101000a81548173ffffffffffffffffffffffffffffffffffffffff021916908373ffffffffffffffffffffffffffffffffffffffff1602179055508173ffffffffffffffffffffffffffffffffffffffff168173ffffffffffffffffffffffffffffffffffffffff167f8be0079c531659141344cd1fd0a4f28419497f9722a3daafe3b4186f6b6457e060405160405180910390a35050565b606560003373ffffffffffffffffffffffffffffffffffffffff1673ffffffffffffffffffffffffffffffffffffffff16815260200190815260200160002060009054906101000a900460ff16611fb8576040517f08c379a0000000000000000000000000000000000000000000000000000000008152600401611faf90612fae565b60405180910390fd5b565b6000611fc530612024565b15905090565b600060019054906101000a900460ff1661201a576040517f08c379a000000000000000000000000000000000000000000000000000000000815260040161201190613040565b60405180910390fd5b612022612047565b565b6000808273ffffffffffffffffffffffffffffffffffffffff163b119050919050565b600060019054906101000a900460ff16612096576040517f08c379a000000000000000000000000000000000000000000000000000000000815260040161208d90613040565b60405180910390fd5b6120a66120a1611dcc565b611e66565b565b6000819050919050565b6120bb816120a8565b82525050565b60006020820190506120d660008301846120b2565b92915050565b60008160000b9050919050565b6120f2816120dc565b82525050565b600060208201905061210d60008301846120e9565b92915050565b6000604051905090565b600080fd5b600080fd5b612130816120a8565b811461213b57600080fd5b50565b60008135905061214d81612127565b92915050565b61215c816120dc565b811461216757600080fd5b50565b60008135905061217981612153565b92915050565b600060ff82169050919050565b6121958161217f565b81146121a057600080fd5b50565b6000813590506121b28161218c565b92915050565b600080fd5b6000601f19601f8301169050919050565b7f4e487b7100000000000000000000000000000000000000000000000000000000600052604160045260246000fd5b612206826121bd565b810181811067ffffffffffffffff82111715612225576122246121ce565b5b80604052505050565b6000612238612113565b905061224482826121fd565b919050565b600067ffffffffffffffff821115612264576122636121ce565b5b602082029050602081019050919050565b600080fd5b600061228d61228884612249565b61222e565b905080838252602082019050602084028301858111156122b0576122af612275565b5b835b818110156122d957806122c5888261213e565b8452602084019350506020810190506122b2565b5050509392505050565b600082601f8301126122f8576122f76121b8565b5b813561230884826020860161227a565b91505092915050565b6000806000806080858703121561232b5761232a61211d565b5b60006123398782880161213e565b945050602061234a8782880161216a565b935050604061235b878288016121a3565b925050606085013567ffffffffffffffff81111561237c5761237b612122565b5b612388878288016122e3565b91505092959194509250565b600067ffffffffffffffff8211156123af576123ae6121ce565b5b602082029050602081019050919050565b600073ffffffffffffffffffffffffffffffffffffffff82169050919050565b60006123eb826123c0565b9050919050565b6123fb816123e0565b811461240657600080fd5b50565b600081359050612418816123f2565b92915050565b600061243161242c84612394565b61222e565b9050808382526020820190506020840283018581111561245457612453612275565b5b835b8181101561247d57806124698882612409565b845260208401935050602081019050612456565b5050509392505050565b600082601f83011261249c5761249b6121b8565b5b81356124ac84826020860161241e565b91505092915050565b6000602082840312156124cb576124ca61211d565b5b600082013567ffffffffffffffff8111156124e9576124e8612122565b5b6124f584828501612487565b91505092915050565b6000602082840312156125145761251361211d565b5b600061252284828501612409565b91505092915050565b6125348161217f565b82525050565b600060208201905061254f600083018461252b565b92915050565b60008060006060848603121561256e5761256d61211d565b5b600061257c8682870161213e565b935050602061258d8682870161213e565b925050604061259e8682870161213e565b9150509250925092565b60008115159050919050565b6125bd816125a8565b81146125c857600080fd5b50565b6000813590506125da816125b4565b92915050565b6000602082840312156125f6576125f561211d565b5b6000612604848285016125cb565b91505092915050565b612616816123e0565b82525050565b6000602082019050612631600083018461260d565b92915050565b612640816125a8565b82525050565b600060208201905061265b6000830184612637565b92915050565b600061ffff82169050919050565b61267881612661565b811461268357600080fd5b50565b6000813590506126958161266f565b92915050565b60008060008060008060c087890312156126b8576126b761211d565b5b60006126c689828a01612409565b96505060206126d789828a016121a3565b95505060406126e889828a0161213e565b94505060606126f989828a01612686565b935050608061270a89828a0161213e565b92505060a061271b89828a0161213e565b9150509295509295509295565b600082825260208201905092915050565b7f4f776e61626c653a2063616c6c6572206973206e6f7420746865206f776e6572600082015250565b600061276f602083612728565b915061277a82612739565b602082019050919050565b6000602082019050818103600083015261279e81612762565b9050919050565b7f4e487b7100000000000000000000000000000000000000000000000000000000600052603260045260246000fd5b7f4e487b7100000000000000000000000000000000000000000000000000000000600052601160045260246000fd5b600061280e8261217f565b91506128198361217f565b92508260ff0382111561282f5761282e6127d4565b5b828201905092915050565b600060408201905061284f600083018561260d565b61285c602083018461252b565b9392505050565b600061286e826120a8565b91507fffffffffffffffffffffffffffffffffffffffffffffffffffffffffffffffff8214156128a1576128a06127d4565b5b600182019050919050565b60006128b78261217f565b91506128c28361217f565b9250828210156128d5576128d46127d4565b5b828203905092915050565b60006128eb826120a8565b91506128f6836120a8565b925082821015612909576129086127d4565b5b828203905092915050565b600061291f826120a8565b915061292a836120a8565b9250817fffffffffffffffffffffffffffffffffffffffffffffffffffffffffffffffff0483118215151615612963576129626127d4565b5b828202905092915050565b7f4e487b7100000000000000000000000000000000000000000000000000000000600052601260045260246000fd5b60006129a8826120a8565b91506129b3836120a8565b9250826129c3576129c261296e565b5b828204905092915050565b60006129d9826120a8565b91506129e4836120a8565b9250827fffffffffffffffffffffffffffffffffffffffffffffffffffffffffffffffff03821115612a1957612a186127d4565b5b828201905092915050565b7f496e76616c6964206d696e7420616d6f756e7400000000000000000000000000600082015250565b6000612a5a601383612728565b9150612a6582612a24565b602082019050919050565b60006020820190508181036000830152612a8981612a4d565b9050919050565b6000612a9b82612661565b9150612aa683612661565b92508261ffff03821115612abd57612abc6127d4565b5b828201905092915050565b7f416c6c20746f6b656e73206d696e746564000000000000000000000000000000600082015250565b6000612afe601183612728565b9150612b0982612ac8565b602082019050919050565b60006020820190508181036000830152612b2d81612af1565b9050919050565b7f4e6f742077686974656c69737465640000000000000000000000000000000000600082015250565b6000612b6a600f83612728565b9150612b7582612b34565b602082019050919050565b60006020820190508181036000830152612b9981612b5d565b9050919050565b7f4e6f7420656e6f7567682047656e203020746f6b656e73206c6566742c20726560008201527f6475636520616d6f756e74000000000000000000000000000000000000000000602082015250565b6000612bfc602b83612728565b9150612c0782612ba0565b604082019050919050565b60006020820190508181036000830152612c2b81612bef565b9050919050565b7f496e76616c6964207061796d656e7420616d6f756e7400000000000000000000600082015250565b6000612c68601683612728565b9150612c7382612c32565b602082019050919050565b60006020820190508181036000830152612c9781612c5b565b9050919050565b7f496e76616c6964207061796d656e7420747970652c20616363657074696e672060008201527f666f6f6420746f6b656e73206f6e6c7900000000000000000000000000000000602082015250565b6000612cfa603083612728565b9150612d0582612c9e565b604082019050919050565b60006020820190508181036000830152612d2981612ced565b9050919050565b6000606082019050612d4560008301866120b2565b612d5260208301856120b2565b612d5f60408301846120b2565b949350505050565b600081519050612d7681612127565b92915050565b600060208284031215612d9257612d9161211d565b5b6000612da084828501612d67565b91505092915050565b6000604082019050612dbe600083018561260d565b612dcb60208301846120b2565b9392505050565b7f496e697469616c697a61626c653a20636f6e747261637420697320616c72656160008201527f647920696e697469616c697a6564000000000000000000000000000000000000602082015250565b6000612e2e602e83612728565b9150612e3982612dd2565b604082019050919050565b60006020820190508181036000830152612e5d81612e21565b9050919050565b7f4f776e61626c653a206e6577206f776e657220697320746865207a65726f206160008201527f6464726573730000000000000000000000000000000000000000000000000000602082015250565b6000612ec0602683612728565b9150612ecb82612e64565b604082019050919050565b60006020820190508181036000830152612eef81612eb3565b9050919050565b7f4f6e6c792044414f2063616e2065786563757465000000000000000000000000600082015250565b6000612f2c601483612728565b9150612f3782612ef6565b602082019050919050565b60006020820190508181036000830152612f5b81612f1f565b9050919050565b7f4f6e6c7920636f6e74726f6c6c6572732063616e206578656375746500000000600082015250565b6000612f98601c83612728565b9150612fa382612f62565b602082019050919050565b60006020820190508181036000830152612fc781612f8b565b9050919050565b7f496e697469616c697a61626c653a20636f6e7472616374206973206e6f74206960008201527f6e697469616c697a696e67000000000000000000000000000000000000000000602082015250565b600061302a602b83612728565b915061303582612fce565b604082019050919050565b600060208201905081810360008301526130598161301d565b905091905056fea26469706673582212208618a228cd1480ef0329faa828a10d687330a5eb4d70473c8754f254687787de64736f6c634300080a0033",
  "immutableReferences": {},
  "source": "// SPDX-License-Identifier: MIT\n\npragma solidity ^0.8.0;\n\nimport \"@openzeppelin/contracts-upgradeable/proxy/utils/Initializable.sol\";\nimport \"./ControllableUpgradeable.sol\";\nimport \"./FastFood.sol\";\nimport \"./DOWable.sol\";\n\ncontract PaywallV2 is Initializable, OwnableUpgradeable, ControllableUpgradeable, DOWable {\n  uint256 public mintPrice;\n  int8 public whitelistBoost;\n  uint8 public maxMintsPerTx; // Maximum number of tokens that can be minted in a single tx\n  uint256 public gen1PriceTier0;\n  uint256 public gen1PriceTier1;\n  uint256 public gen1PriceTier2;\n  uint256 public gen1PriceTier3;\n  mapping(address => uint8) public whitelist; // Mapping from address to a number of remaining whitelist spots\n  mapping(address => uint8) public freeMints; // Mapping from address to a number of remaining free mint spots\n  bool public onlyWhitelist; // Whether minting is only open for whitelisted addresses\n\n  FastFood fastFood; // Reference to the $FFOOD contract\n\n  event UpdateWhitelist(address account, uint8 amount);\n  event UpdateFreeMints(address account, uint8 amount);\n\n  function initialize(address _fastFood) external initializer {\n    __Ownable_init();\n\n    fastFood = FastFood(_fastFood);\n    onlyWhitelist = false;\n  }\n\n  /**\n   * Allows DAO to update game parameters\n   */\n  function configure(uint256 _mintPrice, int8 _whitelistBoost, uint8 _maxMintsPerTx, uint256[] memory _gen1Prices) external onlyOwner {\n    mintPrice = _mintPrice;\n    whitelistBoost = _whitelistBoost;\n    maxMintsPerTx = _maxMintsPerTx;\n    gen1PriceTier0 = _gen1Prices[0];\n    gen1PriceTier1 = _gen1Prices[1];\n    gen1PriceTier2 = _gen1Prices[2];\n    gen1PriceTier3 = _gen1Prices[3];\n  }\n\n  /**\n   * Toggles the whitelist on and off\n   * @param _enable - true enables it\n   */\n  function toggleWhitelist(bool _enable) external onlyDao {\n    onlyWhitelist = _enable;\n  }\n\n  /**\n   * Adds a list of addresses to the whitelist\n   * @param addresses - An array of addresses to add\n   */\n  function addToWhitelist(address[] memory addresses) external onlyDao {\n    for (uint i = 0; i < addresses.length; i++) {\n      uint8 amount = whitelist[addresses[i]];\n      whitelist[addresses[i]] = amount < 100 ? amount + 1 : 100;\n      emit UpdateWhitelist(addresses[i], whitelist[addresses[i]]);\n    }\n  }\n\n  /**\n   * Removes a list of addresses from the whitelist\n   * @param addresses - An array of addresses to remove\n   */\n  function removeFromWhitelist(address[] memory addresses) external onlyDao {\n    for (uint i = 0; i < addresses.length; i++) {\n      uint8 amount = whitelist[addresses[i]];\n      whitelist[addresses[i]] = amount > 1 ? amount - 1 : 0;\n      emit UpdateWhitelist(addresses[i], whitelist[addresses[i]]);\n    }\n  }\n\n  /**\n   * Adds a list of addresses to the free mints\n   * @param addresses - An array of addresses to add\n   */\n  function addToFreeMints(address[] memory addresses) external onlyDao {\n    for (uint i = 0; i < addresses.length; i++) {\n      uint8 amount = freeMints[addresses[i]];\n      freeMints[addresses[i]] = amount < 100 ? amount + 1 : 100;\n      emit UpdateFreeMints(addresses[i], freeMints[addresses[i]]);\n    }\n  }\n\n  /**\n   * Removes a list of addresses from the free mints\n   * @param addresses - An array of addresses to remove\n   */\n  function removeFromFreeMints(address[] memory addresses) external onlyDao {\n    for (uint i = 0; i < addresses.length; i++) {\n      uint8 amount = freeMints[addresses[i]];\n      freeMints[addresses[i]] = amount > 1 ? amount - 1 : 0;\n      emit UpdateFreeMints(addresses[i], freeMints[addresses[i]]);\n    }\n  }\n\n  /**\n   * ChainLink VRF request: Mints a new ERC721 token: 90% chefs, 10% rats\n   * The first 20% are free to claim, the remaining cost $FFOOD\n   * @param sender - User wallet address\n   * @param amount - Number of tokens to mint\n   * @param msgValue - Value sent with the transaction\n   * @param minted - Number of total tokens minted\n   * @param maxTokens - Max number of tokens that can be minted\n   * @param gen0Tokens - Number of tokens that can be claimed for free\n   * @return boost - Boost percentage if the token was minted using a whitelist spot\n   */\n  function handle(address sender, uint8 amount, uint256 msgValue, uint16 minted, uint256 maxTokens, uint256 gen0Tokens) external onlyController returns (int8 boost) {\n    require(amount > 0 && amount <= maxMintsPerTx, \"Invalid mint amount\");\n    require(minted + amount <= maxTokens, \"All tokens minted\");\n    boost = 0;\n    uint256 txMintPrice = mintPrice;\n    if (onlyWhitelist) {\n      require(freeMints[sender] >= amount || whitelist[sender] >= amount, \"Not whitelisted\");\n    }\n    uint256 totalCost = 0;\n    if (minted < gen0Tokens) {\n      require(minted + amount <= gen0Tokens, \"Not enough Gen 0 tokens left, reduce amount\");\n      if (freeMints[sender] >= amount) {\n        freeMints[sender] -= amount;\n        emit UpdateFreeMints(sender, freeMints[sender]);\n        txMintPrice = 0;\n      } else if (whitelist[sender] >= amount) {\n        whitelist[sender] -= amount;\n        emit UpdateWhitelist(sender, whitelist[sender]);\n        txMintPrice = mintPrice * 90 / 100;\n        boost = whitelistBoost;\n      }\n      require(amount * txMintPrice == msgValue, \"Invalid payment amount\");\n    } else {\n      require(msgValue == 0, \"Invalid payment type, accepting food tokens only\");\n      if (freeMints[sender] >= amount) {\n        freeMints[sender] -= amount;\n        emit UpdateFreeMints(sender, freeMints[sender]);\n      } else {\n        for (uint i = 1; i <= amount; i++) {\n          totalCost += this.mintCost(minted + i, maxTokens, gen0Tokens);\n        }\n      }\n    }\n    if (totalCost > 0) fastFood.burn(sender, totalCost);\n  }\n\n  /**\n   * Returns the latest mint price for the given token using 5 price breaks\n   * @param tokenId - The token ID to check\n   * @param maxTokens - The total supply of tokens\n   * @param gen0Tokens - The supply of Gen0 tokens\n   * @return The minting cost of the given ID\n   */\n  function mintCost(uint256 tokenId, uint256 maxTokens, uint256 gen0Tokens) external view returns (uint256) {\n    if (tokenId <= gen0Tokens) return 0;\n    if (tokenId <= (maxTokens - gen0Tokens) * 1 / 4 + gen0Tokens) return gen1PriceTier0;\n    if (tokenId <= (maxTokens - gen0Tokens) * 2 / 4 + gen0Tokens) return gen1PriceTier1;\n    if (tokenId <= (maxTokens - gen0Tokens) * 3 / 4 + gen0Tokens) return gen1PriceTier2;\n    return gen1PriceTier3;\n  }\n}\n",
  "sourcePath": "/Users/chris/workspace/ratalert/ratalert-contracts/contracts/PaywallV2.sol",
  "compiler": {
    "name": "solc",
    "version": "0.8.10+commit.fc410830.Emscripten.clang"
  },
  "schemaVersion": "3.4.7",
  "updatedAt": "2022-06-28T17:29:23.243Z",
  "devdoc": {
    "kind": "dev",
    "methods": {
      "addController(address[])": {
        "params": {
          "_controllers": "- The addresses to enable"
        }
      },
      "addToFreeMints(address[])": {
        "params": {
          "addresses": "- An array of addresses to add"
        }
      },
      "addToWhitelist(address[])": {
        "params": {
          "addresses": "- An array of addresses to add"
        }
      },
      "controller(address)": {
        "params": {
          "_controller": "- The address to check"
        }
      },
      "handle(address,uint8,uint256,uint16,uint256,uint256)": {
        "params": {
          "amount": "- Number of tokens to mint",
          "gen0Tokens": "- Number of tokens that can be claimed for free",
          "maxTokens": "- Max number of tokens that can be minted",
          "minted": "- Number of total tokens minted",
          "msgValue": "- Value sent with the transaction",
          "sender": "- User wallet address"
        },
        "returns": {
          "boost": "- Boost percentage if the token was minted using a whitelist spot"
        }
      },
      "mintCost(uint256,uint256,uint256)": {
        "params": {
          "gen0Tokens": "- The supply of Gen0 tokens",
          "maxTokens": "- The total supply of tokens",
          "tokenId": "- The token ID to check"
        },
        "returns": {
          "_0": "The minting cost of the given ID"
        }
      },
      "owner()": {
        "details": "Returns the address of the current owner."
      },
      "removeController(address[])": {
        "params": {
          "_controllers": "- The addresses to disable"
        }
      },
      "removeFromFreeMints(address[])": {
        "params": {
          "addresses": "- An array of addresses to remove"
        }
      },
      "removeFromWhitelist(address[])": {
        "params": {
          "addresses": "- An array of addresses to remove"
        }
      },
      "renounceOwnership()": {
        "details": "Leaves the contract without owner. It will not be possible to call `onlyOwner` functions anymore. Can only be called by the current owner. NOTE: Renouncing ownership will leave the contract without an owner, thereby removing any functionality that is only available to the owner."
      },
      "toggleWhitelist(bool)": {
        "params": {
          "_enable": "- true enables it"
        }
      },
      "transferOwnership(address)": {
        "details": "Transfers ownership of the contract to a new account (`newOwner`). Can only be called by the current owner."
      }
    },
    "version": 1
  },
  "userdoc": {
    "kind": "user",
    "methods": {
      "addController(address[])": {
        "notice": "Enables multiple addresses to execute"
      },
      "addToFreeMints(address[])": {
        "notice": "Adds a list of addresses to the free mints"
      },
      "addToWhitelist(address[])": {
        "notice": "Adds a list of addresses to the whitelist"
      },
      "configure(uint256,int8,uint8,uint256[])": {
        "notice": "Allows DAO to update game parameters"
      },
      "controller(address)": {
        "notice": "Gets controller status by address"
      },
      "handle(address,uint8,uint256,uint16,uint256,uint256)": {
        "notice": "ChainLink VRF request: Mints a new ERC721 token: 90% chefs, 10% rats The first 20% are free to claim, the remaining cost $FFOOD"
      },
      "mintCost(uint256,uint256,uint256)": {
        "notice": "Returns the latest mint price for the given token using 5 price breaks"
      },
      "removeController(address[])": {
        "notice": "Prevents multiple addresses from executing"
      },
      "removeFromFreeMints(address[])": {
        "notice": "Removes a list of addresses from the free mints"
      },
      "removeFromWhitelist(address[])": {
        "notice": "Removes a list of addresses from the whitelist"
      },
      "toggleWhitelist(bool)": {
        "notice": "Toggles the whitelist on and off"
      }
    },
    "version": 1
  }
}