{
  "contractName": "Paywall",
  "abi": [
    {
      "anonymous": false,
      "inputs": [
        {
          "indexed": true,
          "internalType": "address",
          "name": "previousOwner",
          "type": "address"
        },
        {
          "indexed": true,
          "internalType": "address",
          "name": "newOwner",
          "type": "address"
        }
      ],
      "name": "OwnershipTransferred",
      "type": "event"
    },
    {
      "anonymous": false,
      "inputs": [
        {
          "indexed": false,
          "internalType": "address",
          "name": "account",
          "type": "address"
        }
      ],
      "name": "Paused",
      "type": "event"
    },
    {
      "anonymous": false,
      "inputs": [
        {
          "indexed": false,
          "internalType": "address",
          "name": "account",
          "type": "address"
        }
      ],
      "name": "Unpaused",
      "type": "event"
    },
    {
      "inputs": [
        {
          "internalType": "address",
          "name": "_controller",
          "type": "address"
        }
      ],
      "name": "addController",
      "outputs": [],
      "stateMutability": "nonpayable",
      "type": "function"
    },
    {
      "inputs": [
        {
          "internalType": "address",
          "name": "_controller",
          "type": "address"
        }
      ],
      "name": "controller",
      "outputs": [
        {
          "internalType": "bool",
          "name": "",
          "type": "bool"
        }
      ],
      "stateMutability": "view",
      "type": "function",
      "constant": true
    },
    {
      "inputs": [
        {
          "internalType": "address",
          "name": "",
          "type": "address"
        }
      ],
      "name": "freeMints",
      "outputs": [
        {
          "internalType": "uint8",
          "name": "",
          "type": "uint8"
        }
      ],
      "stateMutability": "view",
      "type": "function",
      "constant": true
    },
    {
      "inputs": [],
      "name": "mintPrice",
      "outputs": [
        {
          "internalType": "uint256",
          "name": "",
          "type": "uint256"
        }
      ],
      "stateMutability": "view",
      "type": "function",
      "constant": true
    },
    {
      "inputs": [],
      "name": "onlyWhitelist",
      "outputs": [
        {
          "internalType": "bool",
          "name": "",
          "type": "bool"
        }
      ],
      "stateMutability": "view",
      "type": "function",
      "constant": true
    },
    {
      "inputs": [],
      "name": "owner",
      "outputs": [
        {
          "internalType": "address",
          "name": "",
          "type": "address"
        }
      ],
      "stateMutability": "view",
      "type": "function",
      "constant": true
    },
    {
      "inputs": [],
      "name": "paused",
      "outputs": [
        {
          "internalType": "bool",
          "name": "",
          "type": "bool"
        }
      ],
      "stateMutability": "view",
      "type": "function",
      "constant": true
    },
    {
      "inputs": [
        {
          "internalType": "address",
          "name": "_controller",
          "type": "address"
        }
      ],
      "name": "removeController",
      "outputs": [],
      "stateMutability": "nonpayable",
      "type": "function"
    },
    {
      "inputs": [],
      "name": "renounceOwnership",
      "outputs": [],
      "stateMutability": "nonpayable",
      "type": "function"
    },
    {
      "inputs": [
        {
          "internalType": "address",
          "name": "newOwner",
          "type": "address"
        }
      ],
      "name": "transferOwnership",
      "outputs": [],
      "stateMutability": "nonpayable",
      "type": "function"
    },
    {
      "inputs": [
        {
          "internalType": "address",
          "name": "",
          "type": "address"
        }
      ],
      "name": "whitelist",
      "outputs": [
        {
          "internalType": "uint8",
          "name": "",
          "type": "uint8"
        }
      ],
      "stateMutability": "view",
      "type": "function",
      "constant": true
    },
    {
      "inputs": [
        {
          "internalType": "address",
          "name": "_fastFood",
          "type": "address"
        },
        {
          "internalType": "uint256",
          "name": "_mintPrice",
          "type": "uint256"
        },
        {
          "internalType": "bool",
          "name": "_onlyWhitelist",
          "type": "bool"
        }
      ],
      "name": "initialize",
      "outputs": [],
      "stateMutability": "nonpayable",
      "type": "function"
    },
    {
      "inputs": [
        {
          "internalType": "bool",
          "name": "_enable",
          "type": "bool"
        }
      ],
      "name": "toggleWhitelist",
      "outputs": [],
      "stateMutability": "nonpayable",
      "type": "function"
    },
    {
      "inputs": [
        {
          "internalType": "address[]",
          "name": "addresses",
          "type": "address[]"
        }
      ],
      "name": "addToWhitelist",
      "outputs": [],
      "stateMutability": "nonpayable",
      "type": "function"
    },
    {
      "inputs": [
        {
          "internalType": "address[]",
          "name": "addresses",
          "type": "address[]"
        }
      ],
      "name": "removeFromWhitelist",
      "outputs": [],
      "stateMutability": "nonpayable",
      "type": "function"
    },
    {
      "inputs": [
        {
          "internalType": "address[]",
          "name": "addresses",
          "type": "address[]"
        }
      ],
      "name": "addToFreeMints",
      "outputs": [],
      "stateMutability": "nonpayable",
      "type": "function"
    },
    {
      "inputs": [
        {
          "internalType": "address[]",
          "name": "addresses",
          "type": "address[]"
        }
      ],
      "name": "removeFromFreeMints",
      "outputs": [],
      "stateMutability": "nonpayable",
      "type": "function"
    },
    {
      "inputs": [
        {
          "internalType": "address",
          "name": "sender",
          "type": "address"
        },
        {
          "internalType": "uint8",
          "name": "amount",
          "type": "uint8"
        },
        {
          "internalType": "uint256",
          "name": "msgValue",
          "type": "uint256"
        },
        {
          "internalType": "uint16",
          "name": "minted",
          "type": "uint16"
        },
        {
          "internalType": "uint256",
          "name": "maxTokens",
          "type": "uint256"
        },
        {
          "internalType": "uint256",
          "name": "gen0Tokens",
          "type": "uint256"
        }
      ],
      "name": "handle",
      "outputs": [],
      "stateMutability": "nonpayable",
      "type": "function"
    },
    {
      "inputs": [
        {
          "internalType": "uint256",
          "name": "tokenId",
          "type": "uint256"
        },
        {
          "internalType": "uint256",
          "name": "maxTokens",
          "type": "uint256"
        },
        {
          "internalType": "uint256",
          "name": "gen0Tokens",
          "type": "uint256"
        }
      ],
      "name": "mintCost",
      "outputs": [
        {
          "internalType": "uint256",
          "name": "",
          "type": "uint256"
        }
      ],
      "stateMutability": "pure",
      "type": "function",
      "constant": true
    }
  ],
  "bytecode": "0x608060405234801561001057600080fd5b5061274b806100206000396000f3fe608060405234801561001057600080fd5b50600436106101215760003560e01c806380e3f1ad116100ad578063abc26c6011610071578063abc26c60146102e0578063c13aa7b5146102fc578063c3a7cc5a1461032c578063f2fde38b14610348578063f6a74ed71461036457610121565b806380e3f1ad1461023c5780638da5cb5b146102585780639b19251a14610276578063a7fc7a07146102a6578063a88e0996146102c257610121565b80636817c76c116100f45780636817c76c146101985780636d41d4fb146101b6578063715018a6146101e65780637a92e551146101f05780637f6497831461022057610121565b806330da53c21461012657806350fcfd3914610142578063548db1741461015e5780635c975abb1461017a575b600080fd5b610140600480360381019061013b9190611ad5565b610380565b005b61015c60048036038101906101579190611c81565b6104d9565b005b61017860048036038101906101739190611c81565b610675565b005b610182610811565b60405161018f9190611cd9565b60405180910390f35b6101a0610828565b6040516101ad9190611d03565b60405180910390f35b6101d060048036038101906101cb9190611d1e565b61082e565b6040516101dd9190611d67565b60405180910390f35b6101ee61084e565b005b61020a60048036038101906102059190611d82565b6108d6565b6040516102179190611d03565b60405180910390f35b61023a60048036038101906102359190611c81565b61098c565b005b61025660048036038101906102519190611dd5565b610b28565b005b610260610bc1565b60405161026d9190611e11565b60405180910390f35b610290600480360381019061028b9190611d1e565b610beb565b60405161029d9190611d67565b60405180910390f35b6102c060048036038101906102bb9190611d1e565b610c0b565b005b6102ca610ce2565b6040516102d79190611cd9565b60405180910390f35b6102fa60048036038101906102f59190611e92565b610cf5565b005b61031660048036038101906103119190611d1e565b6112e6565b6040516103239190611cd9565b60405180910390f35b61034660048036038101906103419190611c81565b6113b8565b005b610362600480360381019061035d9190611d1e565b611554565b005b61037e60048036038101906103799190611d1e565b61164c565b005b600060019054906101000a900460ff166103a85760008054906101000a900460ff16156103b1565b6103b0611723565b5b6103f0576040517f08c379a00000000000000000000000000000000000000000000000000000000081526004016103e790611fa2565b60405180910390fd5b60008060019054906101000a900460ff161590508015610440576001600060016101000a81548160ff02191690831515021790555060016000806101000a81548160ff0219169083151502179055505b610448611734565b610450611795565b83609b60016101000a81548173ffffffffffffffffffffffffffffffffffffffff021916908373ffffffffffffffffffffffffffffffffffffffff1602179055508260988190555081609b60006101000a81548160ff02191690831515021790555080156104d35760008060016101000a81548160ff0219169083151502179055505b50505050565b6104e16117f6565b73ffffffffffffffffffffffffffffffffffffffff166104ff610bc1565b73ffffffffffffffffffffffffffffffffffffffff1614610555576040517f08c379a000000000000000000000000000000000000000000000000000000000815260040161054c9061200e565b60405180910390fd5b60005b8151811015610671576000609a600084848151811061057a5761057961202e565b5b602002602001015173ffffffffffffffffffffffffffffffffffffffff1673ffffffffffffffffffffffffffffffffffffffff16815260200190815260200160002060009054906101000a900460ff16905060648160ff16106105de5760646105ec565b6001816105eb919061208c565b5b609a60008585815181106106035761060261202e565b5b602002602001015173ffffffffffffffffffffffffffffffffffffffff1673ffffffffffffffffffffffffffffffffffffffff16815260200190815260200160002060006101000a81548160ff021916908360ff160217905550508080610669906120c3565b915050610558565b5050565b61067d6117f6565b73ffffffffffffffffffffffffffffffffffffffff1661069b610bc1565b73ffffffffffffffffffffffffffffffffffffffff16146106f1576040517f08c379a00000000000000000000000000000000000000000000000000000000081526004016106e89061200e565b60405180910390fd5b60005b815181101561080d576000609960008484815181106107165761071561202e565b5b602002602001015173ffffffffffffffffffffffffffffffffffffffff1673ffffffffffffffffffffffffffffffffffffffff16815260200190815260200160002060009054906101000a900460ff16905060018160ff161161077a576000610788565b600181610787919061210c565b5b6099600085858151811061079f5761079e61202e565b5b602002602001015173ffffffffffffffffffffffffffffffffffffffff1673ffffffffffffffffffffffffffffffffffffffff16815260200190815260200160002060006101000a81548160ff021916908360ff160217905550508080610805906120c3565b9150506106f4565b5050565b6000606560009054906101000a900460ff16905090565b60985481565b609a6020528060005260406000206000915054906101000a900460ff1681565b6108566117f6565b73ffffffffffffffffffffffffffffffffffffffff16610874610bc1565b73ffffffffffffffffffffffffffffffffffffffff16146108ca576040517f08c379a00000000000000000000000000000000000000000000000000000000081526004016108c19061200e565b60405180910390fd5b6108d460006117fe565b565b60008184116108e85760009050610985565b60056002846108f79190612140565b61090191906121c9565b841161091857683635c9adc5dea000009050610985565b60056003846109279190612140565b61093191906121c9565b841161094857685150ae84a8cdf000009050610985565b60056004846109579190612140565b61096191906121c9565b841161097857686c6b935b8bbd4000009050610985565b68a2a15d09519be0000090505b9392505050565b6109946117f6565b73ffffffffffffffffffffffffffffffffffffffff166109b2610bc1565b73ffffffffffffffffffffffffffffffffffffffff1614610a08576040517f08c379a00000000000000000000000000000000000000000000000000000000081526004016109ff9061200e565b60405180910390fd5b60005b8151811015610b2457600060996000848481518110610a2d57610a2c61202e565b5b602002602001015173ffffffffffffffffffffffffffffffffffffffff1673ffffffffffffffffffffffffffffffffffffffff16815260200190815260200160002060009054906101000a900460ff16905060648160ff1610610a91576064610a9f565b600181610a9e919061208c565b5b60996000858581518110610ab657610ab561202e565b5b602002602001015173ffffffffffffffffffffffffffffffffffffffff1673ffffffffffffffffffffffffffffffffffffffff16815260200190815260200160002060006101000a81548160ff021916908360ff160217905550508080610b1c906120c3565b915050610a0b565b5050565b610b306117f6565b73ffffffffffffffffffffffffffffffffffffffff16610b4e610bc1565b73ffffffffffffffffffffffffffffffffffffffff1614610ba4576040517f08c379a0000000000000000000000000000000000000000000000000000000008152600401610b9b9061200e565b60405180910390fd5b80609b60006101000a81548160ff02191690831515021790555050565b6000603360009054906101000a900473ffffffffffffffffffffffffffffffffffffffff16905090565b60996020528060005260406000206000915054906101000a900460ff1681565b610c136117f6565b73ffffffffffffffffffffffffffffffffffffffff16610c31610bc1565b73ffffffffffffffffffffffffffffffffffffffff1614610c87576040517f08c379a0000000000000000000000000000000000000000000000000000000008152600401610c7e9061200e565b60405180910390fd5b6001609760008373ffffffffffffffffffffffffffffffffffffffff1673ffffffffffffffffffffffffffffffffffffffff16815260200190815260200160002060006101000a81548160ff02191690831515021790555050565b609b60009054906101000a900460ff1681565b609760003373ffffffffffffffffffffffffffffffffffffffff1673ffffffffffffffffffffffffffffffffffffffff16815260200190815260200160002060009054906101000a900460ff16610d81576040517f08c379a0000000000000000000000000000000000000000000000000000000008152600401610d7890612246565b60405180910390fd5b60008560ff16118015610d985750600a8560ff1611155b610dd7576040517f08c379a0000000000000000000000000000000000000000000000000000000008152600401610dce906122b2565b60405180910390fd5b818560ff1684610de791906122d2565b61ffff161115610e2c576040517f08c379a0000000000000000000000000000000000000000000000000000000008152600401610e2390612356565b60405180910390fd5b60006098549050609b60009054906101000a900460ff1615610f3b578560ff16609a60008973ffffffffffffffffffffffffffffffffffffffff1673ffffffffffffffffffffffffffffffffffffffff16815260200190815260200160002060009054906101000a900460ff1660ff16101580610efb57508560ff16609960008973ffffffffffffffffffffffffffffffffffffffff1673ffffffffffffffffffffffffffffffffffffffff16815260200190815260200160002060009054906101000a900460ff1660ff1610155b610f3a576040517f08c379a0000000000000000000000000000000000000000000000000000000008152600401610f31906123c2565b60405180910390fd5b5b8560ff16609a60008973ffffffffffffffffffffffffffffffffffffffff1673ffffffffffffffffffffffffffffffffffffffff16815260200190815260200160002060009054906101000a900460ff1660ff16106110105785609a60008973ffffffffffffffffffffffffffffffffffffffff1673ffffffffffffffffffffffffffffffffffffffff16815260200190815260200160002060008282829054906101000a900460ff16610fef919061210c565b92506101000a81548160ff021916908360ff160217905550600090506110fb565b8560ff16609960008973ffffffffffffffffffffffffffffffffffffffff1673ffffffffffffffffffffffffffffffffffffffff16815260200190815260200160002060009054906101000a900460ff1660ff16106110fa5785609960008973ffffffffffffffffffffffffffffffffffffffff1673ffffffffffffffffffffffffffffffffffffffff16815260200190815260200160002060008282829054906101000a900460ff166110c4919061210c565b92506101000a81548160ff021916908360ff1602179055506064605a6098546110ed9190612140565b6110f791906121c9565b90505b5b6000828561ffff1610156111b357828760ff168661111991906122d2565b61ffff16111561115e576040517f08c379a000000000000000000000000000000000000000000000000000000000815260040161115590612454565b60405180910390fd5b85828860ff1661116e9190612140565b146111ae576040517f08c379a00000000000000000000000000000000000000000000000000000000081526004016111a5906124c0565b60405180910390fd5b611243565b600086146111f6576040517f08c379a00000000000000000000000000000000000000000000000000000000081526004016111ed90612552565b60405180910390fd5b6000600190505b8760ff16811161124157611221818761ffff1661121a9190612572565b86866108d6565b8261122c9190612572565b91508080611239906120c3565b9150506111fd565b505b60008111156112dc57609b60019054906101000a900473ffffffffffffffffffffffffffffffffffffffff1673ffffffffffffffffffffffffffffffffffffffff16639dc29fac89836040518363ffffffff1660e01b81526004016112a99291906125c8565b600060405180830381600087803b1580156112c357600080fd5b505af11580156112d7573d6000803e3d6000fd5b505050505b5050505050505050565b60006112f06117f6565b73ffffffffffffffffffffffffffffffffffffffff1661130e610bc1565b73ffffffffffffffffffffffffffffffffffffffff1614611364576040517f08c379a000000000000000000000000000000000000000000000000000000000815260040161135b9061200e565b60405180910390fd5b609760008373ffffffffffffffffffffffffffffffffffffffff1673ffffffffffffffffffffffffffffffffffffffff16815260200190815260200160002060009054906101000a900460ff169050919050565b6113c06117f6565b73ffffffffffffffffffffffffffffffffffffffff166113de610bc1565b73ffffffffffffffffffffffffffffffffffffffff1614611434576040517f08c379a000000000000000000000000000000000000000000000000000000000815260040161142b9061200e565b60405180910390fd5b60005b8151811015611550576000609a60008484815181106114595761145861202e565b5b602002602001015173ffffffffffffffffffffffffffffffffffffffff1673ffffffffffffffffffffffffffffffffffffffff16815260200190815260200160002060009054906101000a900460ff16905060018160ff16116114bd5760006114cb565b6001816114ca919061210c565b5b609a60008585815181106114e2576114e161202e565b5b602002602001015173ffffffffffffffffffffffffffffffffffffffff1673ffffffffffffffffffffffffffffffffffffffff16815260200190815260200160002060006101000a81548160ff021916908360ff160217905550508080611548906120c3565b915050611437565b5050565b61155c6117f6565b73ffffffffffffffffffffffffffffffffffffffff1661157a610bc1565b73ffffffffffffffffffffffffffffffffffffffff16146115d0576040517f08c379a00000000000000000000000000000000000000000000000000000000081526004016115c79061200e565b60405180910390fd5b600073ffffffffffffffffffffffffffffffffffffffff168173ffffffffffffffffffffffffffffffffffffffff161415611640576040517f08c379a000000000000000000000000000000000000000000000000000000000815260040161163790612663565b60405180910390fd5b611649816117fe565b50565b6116546117f6565b73ffffffffffffffffffffffffffffffffffffffff16611672610bc1565b73ffffffffffffffffffffffffffffffffffffffff16146116c8576040517f08c379a00000000000000000000000000000000000000000000000000000000081526004016116bf9061200e565b60405180910390fd5b6000609760008373ffffffffffffffffffffffffffffffffffffffff1673ffffffffffffffffffffffffffffffffffffffff16815260200190815260200160002060006101000a81548160ff02191690831515021790555050565b600061172e306118c4565b15905090565b600060019054906101000a900460ff16611783576040517f08c379a000000000000000000000000000000000000000000000000000000000815260040161177a906126f5565b60405180910390fd5b61178b6118d7565b611793611928565b565b600060019054906101000a900460ff166117e4576040517f08c379a00000000000000000000000000000000000000000000000000000000081526004016117db906126f5565b60405180910390fd5b6117ec6118d7565b6117f4611989565b565b600033905090565b6000603360009054906101000a900473ffffffffffffffffffffffffffffffffffffffff16905081603360006101000a81548173ffffffffffffffffffffffffffffffffffffffff021916908373ffffffffffffffffffffffffffffffffffffffff1602179055508173ffffffffffffffffffffffffffffffffffffffff168173ffffffffffffffffffffffffffffffffffffffff167f8be0079c531659141344cd1fd0a4f28419497f9722a3daafe3b4186f6b6457e060405160405180910390a35050565b600080823b905060008111915050919050565b600060019054906101000a900460ff16611926576040517f08c379a000000000000000000000000000000000000000000000000000000000815260040161191d906126f5565b60405180910390fd5b565b600060019054906101000a900460ff16611977576040517f08c379a000000000000000000000000000000000000000000000000000000000815260040161196e906126f5565b60405180910390fd5b6119876119826117f6565b6117fe565b565b600060019054906101000a900460ff166119d8576040517f08c379a00000000000000000000000000000000000000000000000000000000081526004016119cf906126f5565b60405180910390fd5b6000606560006101000a81548160ff021916908315150217905550565b6000604051905090565b600080fd5b600080fd5b600073ffffffffffffffffffffffffffffffffffffffff82169050919050565b6000611a3482611a09565b9050919050565b611a4481611a29565b8114611a4f57600080fd5b50565b600081359050611a6181611a3b565b92915050565b6000819050919050565b611a7a81611a67565b8114611a8557600080fd5b50565b600081359050611a9781611a71565b92915050565b60008115159050919050565b611ab281611a9d565b8114611abd57600080fd5b50565b600081359050611acf81611aa9565b92915050565b600080600060608486031215611aee57611aed6119ff565b5b6000611afc86828701611a52565b9350506020611b0d86828701611a88565b9250506040611b1e86828701611ac0565b9150509250925092565b600080fd5b6000601f19601f8301169050919050565b7f4e487b7100000000000000000000000000000000000000000000000000000000600052604160045260246000fd5b611b7682611b2d565b810181811067ffffffffffffffff82111715611b9557611b94611b3e565b5b80604052505050565b6000611ba86119f5565b9050611bb48282611b6d565b919050565b600067ffffffffffffffff821115611bd457611bd3611b3e565b5b602082029050602081019050919050565b600080fd5b6000611bfd611bf884611bb9565b611b9e565b90508083825260208201905060208402830185811115611c2057611c1f611be5565b5b835b81811015611c495780611c358882611a52565b845260208401935050602081019050611c22565b5050509392505050565b600082601f830112611c6857611c67611b28565b5b8135611c78848260208601611bea565b91505092915050565b600060208284031215611c9757611c966119ff565b5b600082013567ffffffffffffffff811115611cb557611cb4611a04565b5b611cc184828501611c53565b91505092915050565b611cd381611a9d565b82525050565b6000602082019050611cee6000830184611cca565b92915050565b611cfd81611a67565b82525050565b6000602082019050611d186000830184611cf4565b92915050565b600060208284031215611d3457611d336119ff565b5b6000611d4284828501611a52565b91505092915050565b600060ff82169050919050565b611d6181611d4b565b82525050565b6000602082019050611d7c6000830184611d58565b92915050565b600080600060608486031215611d9b57611d9a6119ff565b5b6000611da986828701611a88565b9350506020611dba86828701611a88565b9250506040611dcb86828701611a88565b9150509250925092565b600060208284031215611deb57611dea6119ff565b5b6000611df984828501611ac0565b91505092915050565b611e0b81611a29565b82525050565b6000602082019050611e266000830184611e02565b92915050565b611e3581611d4b565b8114611e4057600080fd5b50565b600081359050611e5281611e2c565b92915050565b600061ffff82169050919050565b611e6f81611e58565b8114611e7a57600080fd5b50565b600081359050611e8c81611e66565b92915050565b60008060008060008060c08789031215611eaf57611eae6119ff565b5b6000611ebd89828a01611a52565b9650506020611ece89828a01611e43565b9550506040611edf89828a01611a88565b9450506060611ef089828a01611e7d565b9350506080611f0189828a01611a88565b92505060a0611f1289828a01611a88565b9150509295509295509295565b600082825260208201905092915050565b7f496e697469616c697a61626c653a20636f6e747261637420697320616c72656160008201527f647920696e697469616c697a6564000000000000000000000000000000000000602082015250565b6000611f8c602e83611f1f565b9150611f9782611f30565b604082019050919050565b60006020820190508181036000830152611fbb81611f7f565b9050919050565b7f4f776e61626c653a2063616c6c6572206973206e6f7420746865206f776e6572600082015250565b6000611ff8602083611f1f565b915061200382611fc2565b602082019050919050565b6000602082019050818103600083015261202781611feb565b9050919050565b7f4e487b7100000000000000000000000000000000000000000000000000000000600052603260045260246000fd5b7f4e487b7100000000000000000000000000000000000000000000000000000000600052601160045260246000fd5b600061209782611d4b565b91506120a283611d4b565b92508260ff038211156120b8576120b761205d565b5b828201905092915050565b60006120ce82611a67565b91507fffffffffffffffffffffffffffffffffffffffffffffffffffffffffffffffff8214156121015761210061205d565b5b600182019050919050565b600061211782611d4b565b915061212283611d4b565b9250828210156121355761213461205d565b5b828203905092915050565b600061214b82611a67565b915061215683611a67565b9250817fffffffffffffffffffffffffffffffffffffffffffffffffffffffffffffffff048311821515161561218f5761218e61205d565b5b828202905092915050565b7f4e487b7100000000000000000000000000000000000000000000000000000000600052601260045260246000fd5b60006121d482611a67565b91506121df83611a67565b9250826121ef576121ee61219a565b5b828204905092915050565b7f4f6e6c7920636f6e74726f6c6c6572732063616e206578656375746500000000600082015250565b6000612230601c83611f1f565b915061223b826121fa565b602082019050919050565b6000602082019050818103600083015261225f81612223565b9050919050565b7f496e76616c6964206d696e7420616d6f756e7400000000000000000000000000600082015250565b600061229c601383611f1f565b91506122a782612266565b602082019050919050565b600060208201905081810360008301526122cb8161228f565b9050919050565b60006122dd82611e58565b91506122e883611e58565b92508261ffff038211156122ff576122fe61205d565b5b828201905092915050565b7f416c6c20746f6b656e73206d696e746564000000000000000000000000000000600082015250565b6000612340601183611f1f565b915061234b8261230a565b602082019050919050565b6000602082019050818103600083015261236f81612333565b9050919050565b7f4e6f742077686974656c69737465640000000000000000000000000000000000600082015250565b60006123ac600f83611f1f565b91506123b782612376565b602082019050919050565b600060208201905081810360008301526123db8161239f565b9050919050565b7f4e6f7420656e6f7567682047656e203020746f6b656e73206c6566742c20726560008201527f6475636520616d6f756e74000000000000000000000000000000000000000000602082015250565b600061243e602b83611f1f565b9150612449826123e2565b604082019050919050565b6000602082019050818103600083015261246d81612431565b9050919050565b7f496e76616c6964207061796d656e7420616d6f756e7400000000000000000000600082015250565b60006124aa601683611f1f565b91506124b582612474565b602082019050919050565b600060208201905081810360008301526124d98161249d565b9050919050565b7f496e76616c6964207061796d656e7420747970652c20616363657074696e672060008201527f666f6f6420746f6b656e73206f6e6c7900000000000000000000000000000000602082015250565b600061253c603083611f1f565b9150612547826124e0565b604082019050919050565b6000602082019050818103600083015261256b8161252f565b9050919050565b600061257d82611a67565b915061258883611a67565b9250827fffffffffffffffffffffffffffffffffffffffffffffffffffffffffffffffff038211156125bd576125bc61205d565b5b828201905092915050565b60006040820190506125dd6000830185611e02565b6125ea6020830184611cf4565b9392505050565b7f4f776e61626c653a206e6577206f776e657220697320746865207a65726f206160008201527f6464726573730000000000000000000000000000000000000000000000000000602082015250565b600061264d602683611f1f565b9150612658826125f1565b604082019050919050565b6000602082019050818103600083015261267c81612640565b9050919050565b7f496e697469616c697a61626c653a20636f6e7472616374206973206e6f74206960008201527f6e697469616c697a696e67000000000000000000000000000000000000000000602082015250565b60006126df602b83611f1f565b91506126ea82612683565b604082019050919050565b6000602082019050818103600083015261270e816126d2565b905091905056fea2646970667358221220dc8d7fada5bbe2df6ea682e5a9dd588e9e48f5ff3da0fdb5efb4953ce7f650ad64736f6c634300080a0033",
  "immutableReferences": {},
  "source": "// SPDX-License-Identifier: MIT\n\npragma solidity ^0.8.0;\n\nimport \"@openzeppelin/contracts-upgradeable/proxy/utils/Initializable.sol\";\nimport \"@openzeppelin/contracts-upgradeable/security/PausableUpgradeable.sol\";\nimport \"./ControllableUpgradeable.sol\";\nimport \"./FastFood.sol\";\n\ncontract Paywall is Initializable, OwnableUpgradeable, PausableUpgradeable, ControllableUpgradeable {\n  uint256 public mintPrice;\n  mapping(address => uint8) public whitelist; // Mapping from address to a number of remaining whitelist spots\n  mapping(address => uint8) public freeMints; // Mapping from address to a number of remaining free mint spots\n  bool public onlyWhitelist; // Whether minting is only open for whitelisted addresses\n\n  FastFood fastFood; // Reference to the $FFOOD contract\n\n  function initialize(address _fastFood, uint256 _mintPrice, bool _onlyWhitelist) external initializer {\n    __Ownable_init();\n    __Pausable_init();\n\n    fastFood = FastFood(_fastFood);\n    mintPrice = _mintPrice;\n    onlyWhitelist = _onlyWhitelist;\n  }\n\n  /**\n   * Toggles the whitelist on and off\n   * @param _enable - true enables it\n   */\n  function toggleWhitelist(bool _enable) external onlyOwner {\n    onlyWhitelist = _enable;\n  }\n\n  /**\n   * Adds a list of addresses to the whitelist\n   * @param addresses - An array of addresses to add\n   */\n  function addToWhitelist(address[] memory addresses) external onlyOwner {\n    for (uint i = 0; i < addresses.length; i++) {\n      uint8 amount = whitelist[addresses[i]];\n      whitelist[addresses[i]] = amount < 100 ? amount + 1 : 100;\n    }\n  }\n\n  /**\n   * Remove a list of addresses from the whitelist\n   * @param addresses - An array of addresses to remove\n   */\n  function removeFromWhitelist(address[] memory addresses) external onlyOwner {\n    for (uint i = 0; i < addresses.length; i++) {\n      uint8 amount = whitelist[addresses[i]];\n      whitelist[addresses[i]] = amount > 1 ? amount - 1 : 0;\n    }\n  }\n\n  /**\n   * Adds a list of addresses to the free mints\n   * @param addresses - An array of addresses to add\n   */\n  function addToFreeMints(address[] memory addresses) external onlyOwner {\n    for (uint i = 0; i < addresses.length; i++) {\n      uint8 amount = freeMints[addresses[i]];\n      freeMints[addresses[i]] = amount < 100 ? amount + 1 : 100;\n    }\n  }\n\n  /**\n   * Remove a list of addresses from the free mints\n   * @param addresses - An array of addresses to remove\n   */\n  function removeFromFreeMints(address[] memory addresses) external onlyOwner {\n    for (uint i = 0; i < addresses.length; i++) {\n      uint8 amount = freeMints[addresses[i]];\n      freeMints[addresses[i]] = amount > 1 ? amount - 1 : 0;\n    }\n  }\n\n  /**\n   * ChainLink VRF request: Mints a new ERC721 token: 90% chefs, 10% rats\n   * The first 20% are free to claim, the remaining cost $FFOOD\n   * @param sender - User wallet address\n   * @param amount - Number of tokens to mint\n   * @param msgValue - Value sent with the transaction\n   * @param minted - Number of total tokens minted\n   * @param maxTokens - Max number of tokens that can be minted\n   * @param gen0Tokens - Number of tokens that can be claimed for free\n   */\n  function handle(address sender, uint8 amount, uint256 msgValue, uint16 minted, uint256 maxTokens, uint256 gen0Tokens) external onlyController {\n    require(amount > 0 && amount <= 10, \"Invalid mint amount\");\n    require(minted + amount <= maxTokens, \"All tokens minted\");\n    uint256 txMintPrice = mintPrice;\n    if (onlyWhitelist) {\n      require(freeMints[sender] >= amount || whitelist[sender] >= amount, \"Not whitelisted\");\n    }\n    if (freeMints[sender] >= amount) {\n      freeMints[sender] -= amount;\n      txMintPrice = 0;\n    } else if (whitelist[sender] >= amount) {\n      whitelist[sender] -= amount;\n      txMintPrice = mintPrice * 90 / 100;\n    }\n    uint256 totalCost = 0;\n    if (minted < gen0Tokens) {\n      require(minted + amount <= gen0Tokens, \"Not enough Gen 0 tokens left, reduce amount\");\n      require(amount * txMintPrice == msgValue, \"Invalid payment amount\");\n    } else {\n      require(msgValue == 0, \"Invalid payment type, accepting food tokens only\");\n      for (uint i = 1; i <= amount; i++) {\n        totalCost += mintCost(minted + i, maxTokens, gen0Tokens);\n      }\n    }\n    if (totalCost > 0) fastFood.burn(sender, totalCost);\n  }\n\n  /**\n   *     1 - 10000: cost ETH\n   * 10001 - 20000: 1000 $FFOOD\n   * 20001 - 30000: 1500 $FFOOD\n   * 30001 - 40000: 2000 $FFOOD\n   * 40001 - 50000: 3000 $FFOOD\n   * @param tokenId - The token ID to check\n   * @return The minting cost of the given ID\n   */\n  function mintCost(uint256 tokenId, uint256 maxTokens, uint256 gen0Tokens) public pure returns (uint256) {\n    if (tokenId <= gen0Tokens) return 0;\n    if (tokenId <= maxTokens * 2 / 5) return 1000 ether;\n    if (tokenId <= maxTokens * 3 / 5) return 1500 ether;\n    if (tokenId <= maxTokens * 4 / 5) return 2000 ether;\n    return 3000 ether;\n  }\n}\n",
  "sourcePath": "/Users/chris/workspace/ratalert/ratalert-contracts/contracts/Paywall.sol",
  "compiler": {
    "name": "solc",
    "version": "0.8.10+commit.fc410830.Emscripten.clang"
  },
  "schemaVersion": "3.4.5",
  "updatedAt": "2022-03-12T10:32:46.520Z",
  "networkType": "ethereum",
  "devdoc": {
    "kind": "dev",
    "methods": {
      "addController(address)": {
        "params": {
          "_controller": "- The address to enable"
        }
      },
      "addToFreeMints(address[])": {
        "params": {
          "addresses": "- An array of addresses to add"
        }
      },
      "addToWhitelist(address[])": {
        "params": {
          "addresses": "- An array of addresses to add"
        }
      },
      "controller(address)": {
        "params": {
          "_controller": "- The address to check"
        }
      },
      "handle(address,uint8,uint256,uint16,uint256,uint256)": {
        "params": {
          "amount": "- Number of tokens to mint",
          "gen0Tokens": "- Number of tokens that can be claimed for free",
          "maxTokens": "- Max number of tokens that can be minted",
          "minted": "- Number of total tokens minted",
          "msgValue": "- Value sent with the transaction",
          "sender": "- User wallet address"
        }
      },
      "mintCost(uint256,uint256,uint256)": {
        "params": {
          "tokenId": "- The token ID to check"
        },
        "returns": {
          "_0": "The minting cost of the given ID"
        }
      },
      "owner()": {
        "details": "Returns the address of the current owner."
      },
      "paused()": {
        "details": "Returns true if the contract is paused, and false otherwise."
      },
      "removeController(address)": {
        "params": {
          "_controller": "- The address to disable"
        }
      },
      "removeFromFreeMints(address[])": {
        "params": {
          "addresses": "- An array of addresses to remove"
        }
      },
      "removeFromWhitelist(address[])": {
        "params": {
          "addresses": "- An array of addresses to remove"
        }
      },
      "renounceOwnership()": {
        "details": "Leaves the contract without owner. It will not be possible to call `onlyOwner` functions anymore. Can only be called by the current owner. NOTE: Renouncing ownership will leave the contract without an owner, thereby removing any functionality that is only available to the owner."
      },
      "toggleWhitelist(bool)": {
        "params": {
          "_enable": "- true enables it"
        }
      },
      "transferOwnership(address)": {
        "details": "Transfers ownership of the contract to a new account (`newOwner`). Can only be called by the current owner."
      }
    },
    "version": 1
  },
  "userdoc": {
    "kind": "user",
    "methods": {
      "addController(address)": {
        "notice": "Enables an address to mint / burn"
      },
      "addToFreeMints(address[])": {
        "notice": "Adds a list of addresses to the free mints"
      },
      "addToWhitelist(address[])": {
        "notice": "Adds a list of addresses to the whitelist"
      },
      "controller(address)": {
        "notice": "Gets controller status by address"
      },
      "handle(address,uint8,uint256,uint16,uint256,uint256)": {
        "notice": "ChainLink VRF request: Mints a new ERC721 token: 90% chefs, 10% rats The first 20% are free to claim, the remaining cost $FFOOD"
      },
      "mintCost(uint256,uint256,uint256)": {
        "notice": "1 - 10000: cost ETH 10001 - 20000: 1000 $FFOOD 20001 - 30000: 1500 $FFOOD 30001 - 40000: 2000 $FFOOD 40001 - 50000: 3000 $FFOOD"
      },
      "removeController(address)": {
        "notice": "Disables an address from minting / burning"
      },
      "removeFromFreeMints(address[])": {
        "notice": "Remove a list of addresses from the free mints"
      },
      "removeFromWhitelist(address[])": {
        "notice": "Remove a list of addresses from the whitelist"
      },
      "toggleWhitelist(bool)": {
        "notice": "Toggles the whitelist on and off"
      }
    },
    "version": 1
  }
}