{
  "contractName": "Paywall",
  "abi": [
    {
      "anonymous": false,
      "inputs": [
        {
          "indexed": true,
          "internalType": "address",
          "name": "previousOwner",
          "type": "address"
        },
        {
          "indexed": true,
          "internalType": "address",
          "name": "newOwner",
          "type": "address"
        }
      ],
      "name": "OwnershipTransferred",
      "type": "event"
    },
    {
      "anonymous": false,
      "inputs": [
        {
          "indexed": false,
          "internalType": "address",
          "name": "account",
          "type": "address"
        },
        {
          "indexed": false,
          "internalType": "uint8",
          "name": "amount",
          "type": "uint8"
        }
      ],
      "name": "UpdateFreeMints",
      "type": "event"
    },
    {
      "anonymous": false,
      "inputs": [
        {
          "indexed": false,
          "internalType": "address",
          "name": "account",
          "type": "address"
        },
        {
          "indexed": false,
          "internalType": "uint8",
          "name": "amount",
          "type": "uint8"
        }
      ],
      "name": "UpdateWhitelist",
      "type": "event"
    },
    {
      "inputs": [
        {
          "internalType": "address",
          "name": "_controller",
          "type": "address"
        }
      ],
      "name": "addController",
      "outputs": [],
      "stateMutability": "nonpayable",
      "type": "function"
    },
    {
      "inputs": [
        {
          "internalType": "address",
          "name": "_controller",
          "type": "address"
        }
      ],
      "name": "controller",
      "outputs": [
        {
          "internalType": "bool",
          "name": "",
          "type": "bool"
        }
      ],
      "stateMutability": "view",
      "type": "function",
      "constant": true
    },
    {
      "inputs": [
        {
          "internalType": "address",
          "name": "",
          "type": "address"
        }
      ],
      "name": "freeMints",
      "outputs": [
        {
          "internalType": "uint8",
          "name": "",
          "type": "uint8"
        }
      ],
      "stateMutability": "view",
      "type": "function",
      "constant": true
    },
    {
      "inputs": [],
      "name": "mintPrice",
      "outputs": [
        {
          "internalType": "uint256",
          "name": "",
          "type": "uint256"
        }
      ],
      "stateMutability": "view",
      "type": "function",
      "constant": true
    },
    {
      "inputs": [],
      "name": "onlyWhitelist",
      "outputs": [
        {
          "internalType": "bool",
          "name": "",
          "type": "bool"
        }
      ],
      "stateMutability": "view",
      "type": "function",
      "constant": true
    },
    {
      "inputs": [],
      "name": "owner",
      "outputs": [
        {
          "internalType": "address",
          "name": "",
          "type": "address"
        }
      ],
      "stateMutability": "view",
      "type": "function",
      "constant": true
    },
    {
      "inputs": [
        {
          "internalType": "address",
          "name": "_controller",
          "type": "address"
        }
      ],
      "name": "removeController",
      "outputs": [],
      "stateMutability": "nonpayable",
      "type": "function"
    },
    {
      "inputs": [],
      "name": "renounceOwnership",
      "outputs": [],
      "stateMutability": "nonpayable",
      "type": "function"
    },
    {
      "inputs": [
        {
          "internalType": "address",
          "name": "newOwner",
          "type": "address"
        }
      ],
      "name": "transferOwnership",
      "outputs": [],
      "stateMutability": "nonpayable",
      "type": "function"
    },
    {
      "inputs": [
        {
          "internalType": "address",
          "name": "",
          "type": "address"
        }
      ],
      "name": "whitelist",
      "outputs": [
        {
          "internalType": "uint8",
          "name": "",
          "type": "uint8"
        }
      ],
      "stateMutability": "view",
      "type": "function",
      "constant": true
    },
    {
      "inputs": [
        {
          "internalType": "address",
          "name": "_fastFood",
          "type": "address"
        },
        {
          "internalType": "uint256",
          "name": "_mintPrice",
          "type": "uint256"
        },
        {
          "internalType": "bool",
          "name": "_onlyWhitelist",
          "type": "bool"
        }
      ],
      "name": "initialize",
      "outputs": [],
      "stateMutability": "nonpayable",
      "type": "function"
    },
    {
      "inputs": [
        {
          "internalType": "bool",
          "name": "_enable",
          "type": "bool"
        }
      ],
      "name": "toggleWhitelist",
      "outputs": [],
      "stateMutability": "nonpayable",
      "type": "function"
    },
    {
      "inputs": [
        {
          "internalType": "address[]",
          "name": "addresses",
          "type": "address[]"
        }
      ],
      "name": "addToWhitelist",
      "outputs": [],
      "stateMutability": "nonpayable",
      "type": "function"
    },
    {
      "inputs": [
        {
          "internalType": "address[]",
          "name": "addresses",
          "type": "address[]"
        }
      ],
      "name": "removeFromWhitelist",
      "outputs": [],
      "stateMutability": "nonpayable",
      "type": "function"
    },
    {
      "inputs": [
        {
          "internalType": "address[]",
          "name": "addresses",
          "type": "address[]"
        }
      ],
      "name": "addToFreeMints",
      "outputs": [],
      "stateMutability": "nonpayable",
      "type": "function"
    },
    {
      "inputs": [
        {
          "internalType": "address[]",
          "name": "addresses",
          "type": "address[]"
        }
      ],
      "name": "removeFromFreeMints",
      "outputs": [],
      "stateMutability": "nonpayable",
      "type": "function"
    },
    {
      "inputs": [
        {
          "internalType": "address",
          "name": "sender",
          "type": "address"
        },
        {
          "internalType": "uint8",
          "name": "amount",
          "type": "uint8"
        },
        {
          "internalType": "uint256",
          "name": "msgValue",
          "type": "uint256"
        },
        {
          "internalType": "uint16",
          "name": "minted",
          "type": "uint16"
        },
        {
          "internalType": "uint256",
          "name": "maxTokens",
          "type": "uint256"
        },
        {
          "internalType": "uint256",
          "name": "gen0Tokens",
          "type": "uint256"
        }
      ],
      "name": "handle",
      "outputs": [],
      "stateMutability": "nonpayable",
      "type": "function"
    },
    {
      "inputs": [
        {
          "internalType": "uint256",
          "name": "tokenId",
          "type": "uint256"
        },
        {
          "internalType": "uint256",
          "name": "maxTokens",
          "type": "uint256"
        },
        {
          "internalType": "uint256",
          "name": "gen0Tokens",
          "type": "uint256"
        }
      ],
      "name": "mintCost",
      "outputs": [
        {
          "internalType": "uint256",
          "name": "",
          "type": "uint256"
        }
      ],
      "stateMutability": "pure",
      "type": "function",
      "constant": true
    }
  ],
  "bytecode": "0x608060405234801561001057600080fd5b50612a4d806100206000396000f3fe608060405234801561001057600080fd5b50600436106101165760003560e01c80638da5cb5b116100a2578063abc26c6011610071578063abc26c60146102b7578063c13aa7b5146102d3578063c3a7cc5a14610303578063f2fde38b1461031f578063f6a74ed71461033b57610116565b80638da5cb5b1461022f5780639b19251a1461024d578063a7fc7a071461027d578063a88e09961461029957610116565b80636d41d4fb116100e95780636d41d4fb1461018d578063715018a6146101bd5780637a92e551146101c75780637f649783146101f757806380e3f1ad1461021357610116565b806330da53c21461011b57806350fcfd3914610137578063548db174146101535780636817c76c1461016f575b600080fd5b61013560048036038101906101309190611dae565b610357565b005b610151600480360381019061014c9190611f5a565b6104a8565b005b61016d60048036038101906101689190611f5a565b6106fd565b005b610177610952565b6040516101849190611fb2565b60405180910390f35b6101a760048036038101906101a29190611fcd565b610958565b6040516101b49190612016565b60405180910390f35b6101c5610978565b005b6101e160048036038101906101dc9190612031565b610a00565b6040516101ee9190611fb2565b60405180910390f35b610211600480360381019061020c9190611f5a565b610ab6565b005b61022d60048036038101906102289190612084565b610d0b565b005b610237610da4565b60405161024491906120c0565b60405180910390f35b61026760048036038101906102629190611fcd565b610dce565b6040516102749190612016565b60405180910390f35b61029760048036038101906102929190611fcd565b610dee565b005b6102a1610ec5565b6040516102ae91906120ea565b60405180910390f35b6102d160048036038101906102cc919061216b565b610ed8565b005b6102ed60048036038101906102e89190611fcd565b6115d3565b6040516102fa91906120ea565b60405180910390f35b61031d60048036038101906103189190611f5a565b6116a5565b005b61033960048036038101906103349190611fcd565b6118fa565b005b61035560048036038101906103509190611fcd565b6119f2565b005b600060019054906101000a900460ff1661037f5760008054906101000a900460ff1615610388565b610387611ac9565b5b6103c7576040517f08c379a00000000000000000000000000000000000000000000000000000000081526004016103be9061227b565b60405180910390fd5b60008060019054906101000a900460ff161590508015610417576001600060016101000a81548160ff02191690831515021790555060016000806101000a81548160ff0219169083151502179055505b61041f611ada565b83606960016101000a81548173ffffffffffffffffffffffffffffffffffffffff021916908373ffffffffffffffffffffffffffffffffffffffff1602179055508260668190555081606960006101000a81548160ff02191690831515021790555080156104a25760008060016101000a81548160ff0219169083151502179055505b50505050565b6104b0611b3b565b73ffffffffffffffffffffffffffffffffffffffff166104ce610da4565b73ffffffffffffffffffffffffffffffffffffffff1614610524576040517f08c379a000000000000000000000000000000000000000000000000000000000815260040161051b906122e7565b60405180910390fd5b60005b81518110156106f95760006068600084848151811061054957610548612307565b5b602002602001015173ffffffffffffffffffffffffffffffffffffffff1673ffffffffffffffffffffffffffffffffffffffff16815260200190815260200160002060009054906101000a900460ff16905060648160ff16106105ad5760646105bb565b6001816105ba9190612365565b5b606860008585815181106105d2576105d1612307565b5b602002602001015173ffffffffffffffffffffffffffffffffffffffff1673ffffffffffffffffffffffffffffffffffffffff16815260200190815260200160002060006101000a81548160ff021916908360ff1602179055507fea925f43ecd5282ea8fb307fee3f67644aaa3d20f1894d6a433db3e5d32556478383815181106106605761065f612307565b5b60200260200101516068600086868151811061067f5761067e612307565b5b602002602001015173ffffffffffffffffffffffffffffffffffffffff1673ffffffffffffffffffffffffffffffffffffffff16815260200190815260200160002060009054906101000a900460ff166040516106dd92919061239c565b60405180910390a15080806106f1906123c5565b915050610527565b5050565b610705611b3b565b73ffffffffffffffffffffffffffffffffffffffff16610723610da4565b73ffffffffffffffffffffffffffffffffffffffff1614610779576040517f08c379a0000000000000000000000000000000000000000000000000000000008152600401610770906122e7565b60405180910390fd5b60005b815181101561094e5760006067600084848151811061079e5761079d612307565b5b602002602001015173ffffffffffffffffffffffffffffffffffffffff1673ffffffffffffffffffffffffffffffffffffffff16815260200190815260200160002060009054906101000a900460ff16905060018160ff1611610802576000610810565b60018161080f919061240e565b5b6067600085858151811061082757610826612307565b5b602002602001015173ffffffffffffffffffffffffffffffffffffffff1673ffffffffffffffffffffffffffffffffffffffff16815260200190815260200160002060006101000a81548160ff021916908360ff1602179055507fcdc5caa840688c7b2fdfb48b53223f1187b9ec9a1d99d69043af921a8a3d96928383815181106108b5576108b4612307565b5b6020026020010151606760008686815181106108d4576108d3612307565b5b602002602001015173ffffffffffffffffffffffffffffffffffffffff1673ffffffffffffffffffffffffffffffffffffffff16815260200190815260200160002060009054906101000a900460ff1660405161093292919061239c565b60405180910390a1508080610946906123c5565b91505061077c565b5050565b60665481565b60686020528060005260406000206000915054906101000a900460ff1681565b610980611b3b565b73ffffffffffffffffffffffffffffffffffffffff1661099e610da4565b73ffffffffffffffffffffffffffffffffffffffff16146109f4576040517f08c379a00000000000000000000000000000000000000000000000000000000081526004016109eb906122e7565b60405180910390fd5b6109fe6000611b43565b565b6000818411610a125760009050610aaf565b6005600284610a219190612442565b610a2b91906124cb565b8411610a4257683635c9adc5dea000009050610aaf565b6005600384610a519190612442565b610a5b91906124cb565b8411610a7257685150ae84a8cdf000009050610aaf565b6005600484610a819190612442565b610a8b91906124cb565b8411610aa257686c6b935b8bbd4000009050610aaf565b68a2a15d09519be0000090505b9392505050565b610abe611b3b565b73ffffffffffffffffffffffffffffffffffffffff16610adc610da4565b73ffffffffffffffffffffffffffffffffffffffff1614610b32576040517f08c379a0000000000000000000000000000000000000000000000000000000008152600401610b29906122e7565b60405180910390fd5b60005b8151811015610d0757600060676000848481518110610b5757610b56612307565b5b602002602001015173ffffffffffffffffffffffffffffffffffffffff1673ffffffffffffffffffffffffffffffffffffffff16815260200190815260200160002060009054906101000a900460ff16905060648160ff1610610bbb576064610bc9565b600181610bc89190612365565b5b60676000858581518110610be057610bdf612307565b5b602002602001015173ffffffffffffffffffffffffffffffffffffffff1673ffffffffffffffffffffffffffffffffffffffff16815260200190815260200160002060006101000a81548160ff021916908360ff1602179055507fcdc5caa840688c7b2fdfb48b53223f1187b9ec9a1d99d69043af921a8a3d9692838381518110610c6e57610c6d612307565b5b602002602001015160676000868681518110610c8d57610c8c612307565b5b602002602001015173ffffffffffffffffffffffffffffffffffffffff1673ffffffffffffffffffffffffffffffffffffffff16815260200190815260200160002060009054906101000a900460ff16604051610ceb92919061239c565b60405180910390a1508080610cff906123c5565b915050610b35565b5050565b610d13611b3b565b73ffffffffffffffffffffffffffffffffffffffff16610d31610da4565b73ffffffffffffffffffffffffffffffffffffffff1614610d87576040517f08c379a0000000000000000000000000000000000000000000000000000000008152600401610d7e906122e7565b60405180910390fd5b80606960006101000a81548160ff02191690831515021790555050565b6000603360009054906101000a900473ffffffffffffffffffffffffffffffffffffffff16905090565b60676020528060005260406000206000915054906101000a900460ff1681565b610df6611b3b565b73ffffffffffffffffffffffffffffffffffffffff16610e14610da4565b73ffffffffffffffffffffffffffffffffffffffff1614610e6a576040517f08c379a0000000000000000000000000000000000000000000000000000000008152600401610e61906122e7565b60405180910390fd5b6001606560008373ffffffffffffffffffffffffffffffffffffffff1673ffffffffffffffffffffffffffffffffffffffff16815260200190815260200160002060006101000a81548160ff02191690831515021790555050565b606960009054906101000a900460ff1681565b606560003373ffffffffffffffffffffffffffffffffffffffff1673ffffffffffffffffffffffffffffffffffffffff16815260200190815260200160002060009054906101000a900460ff16610f64576040517f08c379a0000000000000000000000000000000000000000000000000000000008152600401610f5b90612548565b60405180910390fd5b60008560ff16118015610f7b5750600a8560ff1611155b610fba576040517f08c379a0000000000000000000000000000000000000000000000000000000008152600401610fb1906125b4565b60405180910390fd5b818560ff1684610fca91906125d4565b61ffff16111561100f576040517f08c379a000000000000000000000000000000000000000000000000000000000815260040161100690612658565b60405180910390fd5b60006066549050606960009054906101000a900460ff161561111e578560ff16606860008973ffffffffffffffffffffffffffffffffffffffff1673ffffffffffffffffffffffffffffffffffffffff16815260200190815260200160002060009054906101000a900460ff1660ff161015806110de57508560ff16606760008973ffffffffffffffffffffffffffffffffffffffff1673ffffffffffffffffffffffffffffffffffffffff16815260200190815260200160002060009054906101000a900460ff1660ff1610155b61111d576040517f08c379a0000000000000000000000000000000000000000000000000000000008152600401611114906126c4565b60405180910390fd5b5b8560ff16606860008973ffffffffffffffffffffffffffffffffffffffff1673ffffffffffffffffffffffffffffffffffffffff16815260200190815260200160002060009054906101000a900460ff1660ff16106112785785606860008973ffffffffffffffffffffffffffffffffffffffff1673ffffffffffffffffffffffffffffffffffffffff16815260200190815260200160002060008282829054906101000a900460ff166111d2919061240e565b92506101000a81548160ff021916908360ff1602179055507fea925f43ecd5282ea8fb307fee3f67644aaa3d20f1894d6a433db3e5d325564787606860008a73ffffffffffffffffffffffffffffffffffffffff1673ffffffffffffffffffffffffffffffffffffffff16815260200190815260200160002060009054906101000a900460ff1660405161126792919061239c565b60405180910390a1600090506113e8565b8560ff16606760008973ffffffffffffffffffffffffffffffffffffffff1673ffffffffffffffffffffffffffffffffffffffff16815260200190815260200160002060009054906101000a900460ff1660ff16106113e75785606760008973ffffffffffffffffffffffffffffffffffffffff1673ffffffffffffffffffffffffffffffffffffffff16815260200190815260200160002060008282829054906101000a900460ff1661132c919061240e565b92506101000a81548160ff021916908360ff1602179055507fcdc5caa840688c7b2fdfb48b53223f1187b9ec9a1d99d69043af921a8a3d969287606760008a73ffffffffffffffffffffffffffffffffffffffff1673ffffffffffffffffffffffffffffffffffffffff16815260200190815260200160002060009054906101000a900460ff166040516113c192919061239c565b60405180910390a16064605a6066546113da9190612442565b6113e491906124cb565b90505b5b6000828561ffff1610156114a057828760ff168661140691906125d4565b61ffff16111561144b576040517f08c379a000000000000000000000000000000000000000000000000000000000815260040161144290612756565b60405180910390fd5b85828860ff1661145b9190612442565b1461149b576040517f08c379a0000000000000000000000000000000000000000000000000000000008152600401611492906127c2565b60405180910390fd5b611530565b600086146114e3576040517f08c379a00000000000000000000000000000000000000000000000000000000081526004016114da90612854565b60405180910390fd5b6000600190505b8760ff16811161152e5761150e818761ffff166115079190612874565b8686610a00565b826115199190612874565b91508080611526906123c5565b9150506114ea565b505b60008111156115c957606960019054906101000a900473ffffffffffffffffffffffffffffffffffffffff1673ffffffffffffffffffffffffffffffffffffffff16639dc29fac89836040518363ffffffff1660e01b81526004016115969291906128ca565b600060405180830381600087803b1580156115b057600080fd5b505af11580156115c4573d6000803e3d6000fd5b505050505b5050505050505050565b60006115dd611b3b565b73ffffffffffffffffffffffffffffffffffffffff166115fb610da4565b73ffffffffffffffffffffffffffffffffffffffff1614611651576040517f08c379a0000000000000000000000000000000000000000000000000000000008152600401611648906122e7565b60405180910390fd5b606560008373ffffffffffffffffffffffffffffffffffffffff1673ffffffffffffffffffffffffffffffffffffffff16815260200190815260200160002060009054906101000a900460ff169050919050565b6116ad611b3b565b73ffffffffffffffffffffffffffffffffffffffff166116cb610da4565b73ffffffffffffffffffffffffffffffffffffffff1614611721576040517f08c379a0000000000000000000000000000000000000000000000000000000008152600401611718906122e7565b60405180910390fd5b60005b81518110156118f65760006068600084848151811061174657611745612307565b5b602002602001015173ffffffffffffffffffffffffffffffffffffffff1673ffffffffffffffffffffffffffffffffffffffff16815260200190815260200160002060009054906101000a900460ff16905060018160ff16116117aa5760006117b8565b6001816117b7919061240e565b5b606860008585815181106117cf576117ce612307565b5b602002602001015173ffffffffffffffffffffffffffffffffffffffff1673ffffffffffffffffffffffffffffffffffffffff16815260200190815260200160002060006101000a81548160ff021916908360ff1602179055507fea925f43ecd5282ea8fb307fee3f67644aaa3d20f1894d6a433db3e5d325564783838151811061185d5761185c612307565b5b60200260200101516068600086868151811061187c5761187b612307565b5b602002602001015173ffffffffffffffffffffffffffffffffffffffff1673ffffffffffffffffffffffffffffffffffffffff16815260200190815260200160002060009054906101000a900460ff166040516118da92919061239c565b60405180910390a15080806118ee906123c5565b915050611724565b5050565b611902611b3b565b73ffffffffffffffffffffffffffffffffffffffff16611920610da4565b73ffffffffffffffffffffffffffffffffffffffff1614611976576040517f08c379a000000000000000000000000000000000000000000000000000000000815260040161196d906122e7565b60405180910390fd5b600073ffffffffffffffffffffffffffffffffffffffff168173ffffffffffffffffffffffffffffffffffffffff1614156119e6576040517f08c379a00000000000000000000000000000000000000000000000000000000081526004016119dd90612965565b60405180910390fd5b6119ef81611b43565b50565b6119fa611b3b565b73ffffffffffffffffffffffffffffffffffffffff16611a18610da4565b73ffffffffffffffffffffffffffffffffffffffff1614611a6e576040517f08c379a0000000000000000000000000000000000000000000000000000000008152600401611a65906122e7565b60405180910390fd5b6000606560008373ffffffffffffffffffffffffffffffffffffffff1673ffffffffffffffffffffffffffffffffffffffff16815260200190815260200160002060006101000a81548160ff02191690831515021790555050565b6000611ad430611c09565b15905090565b600060019054906101000a900460ff16611b29576040517f08c379a0000000000000000000000000000000000000000000000000000000008152600401611b20906129f7565b60405180910390fd5b611b31611c1c565b611b39611c6d565b565b600033905090565b6000603360009054906101000a900473ffffffffffffffffffffffffffffffffffffffff16905081603360006101000a81548173ffffffffffffffffffffffffffffffffffffffff021916908373ffffffffffffffffffffffffffffffffffffffff1602179055508173ffffffffffffffffffffffffffffffffffffffff168173ffffffffffffffffffffffffffffffffffffffff167f8be0079c531659141344cd1fd0a4f28419497f9722a3daafe3b4186f6b6457e060405160405180910390a35050565b600080823b905060008111915050919050565b600060019054906101000a900460ff16611c6b576040517f08c379a0000000000000000000000000000000000000000000000000000000008152600401611c62906129f7565b60405180910390fd5b565b600060019054906101000a900460ff16611cbc576040517f08c379a0000000000000000000000000000000000000000000000000000000008152600401611cb3906129f7565b60405180910390fd5b611ccc611cc7611b3b565b611b43565b565b6000604051905090565b600080fd5b600080fd5b600073ffffffffffffffffffffffffffffffffffffffff82169050919050565b6000611d0d82611ce2565b9050919050565b611d1d81611d02565b8114611d2857600080fd5b50565b600081359050611d3a81611d14565b92915050565b6000819050919050565b611d5381611d40565b8114611d5e57600080fd5b50565b600081359050611d7081611d4a565b92915050565b60008115159050919050565b611d8b81611d76565b8114611d9657600080fd5b50565b600081359050611da881611d82565b92915050565b600080600060608486031215611dc757611dc6611cd8565b5b6000611dd586828701611d2b565b9350506020611de686828701611d61565b9250506040611df786828701611d99565b9150509250925092565b600080fd5b6000601f19601f8301169050919050565b7f4e487b7100000000000000000000000000000000000000000000000000000000600052604160045260246000fd5b611e4f82611e06565b810181811067ffffffffffffffff82111715611e6e57611e6d611e17565b5b80604052505050565b6000611e81611cce565b9050611e8d8282611e46565b919050565b600067ffffffffffffffff821115611ead57611eac611e17565b5b602082029050602081019050919050565b600080fd5b6000611ed6611ed184611e92565b611e77565b90508083825260208201905060208402830185811115611ef957611ef8611ebe565b5b835b81811015611f225780611f0e8882611d2b565b845260208401935050602081019050611efb565b5050509392505050565b600082601f830112611f4157611f40611e01565b5b8135611f51848260208601611ec3565b91505092915050565b600060208284031215611f7057611f6f611cd8565b5b600082013567ffffffffffffffff811115611f8e57611f8d611cdd565b5b611f9a84828501611f2c565b91505092915050565b611fac81611d40565b82525050565b6000602082019050611fc76000830184611fa3565b92915050565b600060208284031215611fe357611fe2611cd8565b5b6000611ff184828501611d2b565b91505092915050565b600060ff82169050919050565b61201081611ffa565b82525050565b600060208201905061202b6000830184612007565b92915050565b60008060006060848603121561204a57612049611cd8565b5b600061205886828701611d61565b935050602061206986828701611d61565b925050604061207a86828701611d61565b9150509250925092565b60006020828403121561209a57612099611cd8565b5b60006120a884828501611d99565b91505092915050565b6120ba81611d02565b82525050565b60006020820190506120d560008301846120b1565b92915050565b6120e481611d76565b82525050565b60006020820190506120ff60008301846120db565b92915050565b61210e81611ffa565b811461211957600080fd5b50565b60008135905061212b81612105565b92915050565b600061ffff82169050919050565b61214881612131565b811461215357600080fd5b50565b6000813590506121658161213f565b92915050565b60008060008060008060c0878903121561218857612187611cd8565b5b600061219689828a01611d2b565b96505060206121a789828a0161211c565b95505060406121b889828a01611d61565b94505060606121c989828a01612156565b93505060806121da89828a01611d61565b92505060a06121eb89828a01611d61565b9150509295509295509295565b600082825260208201905092915050565b7f496e697469616c697a61626c653a20636f6e747261637420697320616c72656160008201527f647920696e697469616c697a6564000000000000000000000000000000000000602082015250565b6000612265602e836121f8565b915061227082612209565b604082019050919050565b6000602082019050818103600083015261229481612258565b9050919050565b7f4f776e61626c653a2063616c6c6572206973206e6f7420746865206f776e6572600082015250565b60006122d16020836121f8565b91506122dc8261229b565b602082019050919050565b60006020820190508181036000830152612300816122c4565b9050919050565b7f4e487b7100000000000000000000000000000000000000000000000000000000600052603260045260246000fd5b7f4e487b7100000000000000000000000000000000000000000000000000000000600052601160045260246000fd5b600061237082611ffa565b915061237b83611ffa565b92508260ff0382111561239157612390612336565b5b828201905092915050565b60006040820190506123b160008301856120b1565b6123be6020830184612007565b9392505050565b60006123d082611d40565b91507fffffffffffffffffffffffffffffffffffffffffffffffffffffffffffffffff82141561240357612402612336565b5b600182019050919050565b600061241982611ffa565b915061242483611ffa565b92508282101561243757612436612336565b5b828203905092915050565b600061244d82611d40565b915061245883611d40565b9250817fffffffffffffffffffffffffffffffffffffffffffffffffffffffffffffffff048311821515161561249157612490612336565b5b828202905092915050565b7f4e487b7100000000000000000000000000000000000000000000000000000000600052601260045260246000fd5b60006124d682611d40565b91506124e183611d40565b9250826124f1576124f061249c565b5b828204905092915050565b7f4f6e6c7920636f6e74726f6c6c6572732063616e206578656375746500000000600082015250565b6000612532601c836121f8565b915061253d826124fc565b602082019050919050565b6000602082019050818103600083015261256181612525565b9050919050565b7f496e76616c6964206d696e7420616d6f756e7400000000000000000000000000600082015250565b600061259e6013836121f8565b91506125a982612568565b602082019050919050565b600060208201905081810360008301526125cd81612591565b9050919050565b60006125df82612131565b91506125ea83612131565b92508261ffff0382111561260157612600612336565b5b828201905092915050565b7f416c6c20746f6b656e73206d696e746564000000000000000000000000000000600082015250565b60006126426011836121f8565b915061264d8261260c565b602082019050919050565b6000602082019050818103600083015261267181612635565b9050919050565b7f4e6f742077686974656c69737465640000000000000000000000000000000000600082015250565b60006126ae600f836121f8565b91506126b982612678565b602082019050919050565b600060208201905081810360008301526126dd816126a1565b9050919050565b7f4e6f7420656e6f7567682047656e203020746f6b656e73206c6566742c20726560008201527f6475636520616d6f756e74000000000000000000000000000000000000000000602082015250565b6000612740602b836121f8565b915061274b826126e4565b604082019050919050565b6000602082019050818103600083015261276f81612733565b9050919050565b7f496e76616c6964207061796d656e7420616d6f756e7400000000000000000000600082015250565b60006127ac6016836121f8565b91506127b782612776565b602082019050919050565b600060208201905081810360008301526127db8161279f565b9050919050565b7f496e76616c6964207061796d656e7420747970652c20616363657074696e672060008201527f666f6f6420746f6b656e73206f6e6c7900000000000000000000000000000000602082015250565b600061283e6030836121f8565b9150612849826127e2565b604082019050919050565b6000602082019050818103600083015261286d81612831565b9050919050565b600061287f82611d40565b915061288a83611d40565b9250827fffffffffffffffffffffffffffffffffffffffffffffffffffffffffffffffff038211156128bf576128be612336565b5b828201905092915050565b60006040820190506128df60008301856120b1565b6128ec6020830184611fa3565b9392505050565b7f4f776e61626c653a206e6577206f776e657220697320746865207a65726f206160008201527f6464726573730000000000000000000000000000000000000000000000000000602082015250565b600061294f6026836121f8565b915061295a826128f3565b604082019050919050565b6000602082019050818103600083015261297e81612942565b9050919050565b7f496e697469616c697a61626c653a20636f6e7472616374206973206e6f74206960008201527f6e697469616c697a696e67000000000000000000000000000000000000000000602082015250565b60006129e1602b836121f8565b91506129ec82612985565b604082019050919050565b60006020820190508181036000830152612a10816129d4565b905091905056fea264697066735822122053fd03ab6c85defd420c8fd3381a5800f4495ab25a9e612eeb7e4eeb911d1f2064736f6c634300080a0033",
  "immutableReferences": {},
  "source": "// SPDX-License-Identifier: MIT\n\npragma solidity ^0.8.0;\n\nimport \"@openzeppelin/contracts-upgradeable/proxy/utils/Initializable.sol\";\nimport \"./ControllableUpgradeable.sol\";\nimport \"./FastFood.sol\";\n\ncontract Paywall is Initializable, OwnableUpgradeable, ControllableUpgradeable {\n  uint256 public mintPrice;\n  mapping(address => uint8) public whitelist; // Mapping from address to a number of remaining whitelist spots\n  mapping(address => uint8) public freeMints; // Mapping from address to a number of remaining free mint spots\n  bool public onlyWhitelist; // Whether minting is only open for whitelisted addresses\n\n  FastFood fastFood; // Reference to the $FFOOD contract\n\n  event UpdateWhitelist(address account, uint8 amount);\n  event UpdateFreeMints(address account, uint8 amount);\n\n  function initialize(address _fastFood, uint256 _mintPrice, bool _onlyWhitelist) external initializer {\n    __Ownable_init();\n\n    fastFood = FastFood(_fastFood);\n    mintPrice = _mintPrice;\n    onlyWhitelist = _onlyWhitelist;\n  }\n\n  /**\n   * Toggles the whitelist on and off\n   * @param _enable - true enables it\n   */\n  function toggleWhitelist(bool _enable) external onlyOwner {\n    onlyWhitelist = _enable;\n  }\n\n  /**\n   * Adds a list of addresses to the whitelist\n   * @param addresses - An array of addresses to add\n   */\n  function addToWhitelist(address[] memory addresses) external onlyOwner {\n    for (uint i = 0; i < addresses.length; i++) {\n      uint8 amount = whitelist[addresses[i]];\n      whitelist[addresses[i]] = amount < 100 ? amount + 1 : 100;\n      emit UpdateWhitelist(addresses[i], whitelist[addresses[i]]);\n    }\n  }\n\n  /**\n   * Remove a list of addresses from the whitelist\n   * @param addresses - An array of addresses to remove\n   */\n  function removeFromWhitelist(address[] memory addresses) external onlyOwner {\n    for (uint i = 0; i < addresses.length; i++) {\n      uint8 amount = whitelist[addresses[i]];\n      whitelist[addresses[i]] = amount > 1 ? amount - 1 : 0;\n      emit UpdateWhitelist(addresses[i], whitelist[addresses[i]]);\n    }\n  }\n\n  /**\n   * Adds a list of addresses to the free mints\n   * @param addresses - An array of addresses to add\n   */\n  function addToFreeMints(address[] memory addresses) external onlyOwner {\n    for (uint i = 0; i < addresses.length; i++) {\n      uint8 amount = freeMints[addresses[i]];\n      freeMints[addresses[i]] = amount < 100 ? amount + 1 : 100;\n      emit UpdateFreeMints(addresses[i], freeMints[addresses[i]]);\n    }\n  }\n\n  /**\n   * Remove a list of addresses from the free mints\n   * @param addresses - An array of addresses to remove\n   */\n  function removeFromFreeMints(address[] memory addresses) external onlyOwner {\n    for (uint i = 0; i < addresses.length; i++) {\n      uint8 amount = freeMints[addresses[i]];\n      freeMints[addresses[i]] = amount > 1 ? amount - 1 : 0;\n      emit UpdateFreeMints(addresses[i], freeMints[addresses[i]]);\n    }\n  }\n\n  /**\n   * ChainLink VRF request: Mints a new ERC721 token: 90% chefs, 10% rats\n   * The first 20% are free to claim, the remaining cost $FFOOD\n   * @param sender - User wallet address\n   * @param amount - Number of tokens to mint\n   * @param msgValue - Value sent with the transaction\n   * @param minted - Number of total tokens minted\n   * @param maxTokens - Max number of tokens that can be minted\n   * @param gen0Tokens - Number of tokens that can be claimed for free\n   */\n  function handle(address sender, uint8 amount, uint256 msgValue, uint16 minted, uint256 maxTokens, uint256 gen0Tokens) external onlyController {\n    require(amount > 0 && amount <= 10, \"Invalid mint amount\");\n    require(minted + amount <= maxTokens, \"All tokens minted\");\n    uint256 txMintPrice = mintPrice;\n    if (onlyWhitelist) {\n      require(freeMints[sender] >= amount || whitelist[sender] >= amount, \"Not whitelisted\");\n    }\n    if (freeMints[sender] >= amount) {\n      freeMints[sender] -= amount;\n      emit UpdateFreeMints(sender, freeMints[sender]);\n      txMintPrice = 0;\n    } else if (whitelist[sender] >= amount) {\n      whitelist[sender] -= amount;\n      emit UpdateWhitelist(sender, whitelist[sender]);\n      txMintPrice = mintPrice * 90 / 100;\n    }\n    uint256 totalCost = 0;\n    if (minted < gen0Tokens) {\n      require(minted + amount <= gen0Tokens, \"Not enough Gen 0 tokens left, reduce amount\");\n      require(amount * txMintPrice == msgValue, \"Invalid payment amount\");\n    } else {\n      require(msgValue == 0, \"Invalid payment type, accepting food tokens only\");\n      for (uint i = 1; i <= amount; i++) {\n        totalCost += mintCost(minted + i, maxTokens, gen0Tokens);\n      }\n    }\n    if (totalCost > 0) fastFood.burn(sender, totalCost);\n  }\n\n  /**\n   *     1 - 10000: cost ETH\n   * 10001 - 20000: 1000 $FFOOD\n   * 20001 - 30000: 1500 $FFOOD\n   * 30001 - 40000: 2000 $FFOOD\n   * 40001 - 50000: 3000 $FFOOD\n   * @param tokenId - The token ID to check\n   * @return The minting cost of the given ID\n   */\n  function mintCost(uint256 tokenId, uint256 maxTokens, uint256 gen0Tokens) public pure returns (uint256) {\n    if (tokenId <= gen0Tokens) return 0;\n    if (tokenId <= maxTokens * 2 / 5) return 1000 ether;\n    if (tokenId <= maxTokens * 3 / 5) return 1500 ether;\n    if (tokenId <= maxTokens * 4 / 5) return 2000 ether;\n    return 3000 ether;\n  }\n}\n",
  "sourcePath": "/Users/chris/workspace/ratalert/ratalert-contracts/contracts/Paywall.sol",
  "compiler": {
    "name": "solc",
    "version": "0.8.10+commit.fc410830.Emscripten.clang"
  },
  "schemaVersion": "3.4.5",
  "updatedAt": "2022-03-14T13:41:16.445Z",
  "networkType": "ethereum",
  "devdoc": {
    "kind": "dev",
    "methods": {
      "addController(address)": {
        "params": {
          "_controller": "- The address to enable"
        }
      },
      "addToFreeMints(address[])": {
        "params": {
          "addresses": "- An array of addresses to add"
        }
      },
      "addToWhitelist(address[])": {
        "params": {
          "addresses": "- An array of addresses to add"
        }
      },
      "controller(address)": {
        "params": {
          "_controller": "- The address to check"
        }
      },
      "handle(address,uint8,uint256,uint16,uint256,uint256)": {
        "params": {
          "amount": "- Number of tokens to mint",
          "gen0Tokens": "- Number of tokens that can be claimed for free",
          "maxTokens": "- Max number of tokens that can be minted",
          "minted": "- Number of total tokens minted",
          "msgValue": "- Value sent with the transaction",
          "sender": "- User wallet address"
        }
      },
      "mintCost(uint256,uint256,uint256)": {
        "params": {
          "tokenId": "- The token ID to check"
        },
        "returns": {
          "_0": "The minting cost of the given ID"
        }
      },
      "owner()": {
        "details": "Returns the address of the current owner."
      },
      "removeController(address)": {
        "params": {
          "_controller": "- The address to disable"
        }
      },
      "removeFromFreeMints(address[])": {
        "params": {
          "addresses": "- An array of addresses to remove"
        }
      },
      "removeFromWhitelist(address[])": {
        "params": {
          "addresses": "- An array of addresses to remove"
        }
      },
      "renounceOwnership()": {
        "details": "Leaves the contract without owner. It will not be possible to call `onlyOwner` functions anymore. Can only be called by the current owner. NOTE: Renouncing ownership will leave the contract without an owner, thereby removing any functionality that is only available to the owner."
      },
      "toggleWhitelist(bool)": {
        "params": {
          "_enable": "- true enables it"
        }
      },
      "transferOwnership(address)": {
        "details": "Transfers ownership of the contract to a new account (`newOwner`). Can only be called by the current owner."
      }
    },
    "version": 1
  },
  "userdoc": {
    "kind": "user",
    "methods": {
      "addController(address)": {
        "notice": "Enables an address to mint / burn"
      },
      "addToFreeMints(address[])": {
        "notice": "Adds a list of addresses to the free mints"
      },
      "addToWhitelist(address[])": {
        "notice": "Adds a list of addresses to the whitelist"
      },
      "controller(address)": {
        "notice": "Gets controller status by address"
      },
      "handle(address,uint8,uint256,uint16,uint256,uint256)": {
        "notice": "ChainLink VRF request: Mints a new ERC721 token: 90% chefs, 10% rats The first 20% are free to claim, the remaining cost $FFOOD"
      },
      "mintCost(uint256,uint256,uint256)": {
        "notice": "1 - 10000: cost ETH 10001 - 20000: 1000 $FFOOD 20001 - 30000: 1500 $FFOOD 30001 - 40000: 2000 $FFOOD 40001 - 50000: 3000 $FFOOD"
      },
      "removeController(address)": {
        "notice": "Disables an address from minting / burning"
      },
      "removeFromFreeMints(address[])": {
        "notice": "Remove a list of addresses from the free mints"
      },
      "removeFromWhitelist(address[])": {
        "notice": "Remove a list of addresses from the whitelist"
      },
      "toggleWhitelist(bool)": {
        "notice": "Toggles the whitelist on and off"
      }
    },
    "version": 1
  }
}