{
  "contractName": "Paywall",
  "abi": [
    {
      "anonymous": false,
      "inputs": [
        {
          "indexed": true,
          "internalType": "address",
          "name": "previousOwner",
          "type": "address"
        },
        {
          "indexed": true,
          "internalType": "address",
          "name": "newOwner",
          "type": "address"
        }
      ],
      "name": "OwnershipTransferred",
      "type": "event"
    },
    {
      "anonymous": false,
      "inputs": [
        {
          "indexed": false,
          "internalType": "address",
          "name": "account",
          "type": "address"
        },
        {
          "indexed": false,
          "internalType": "uint8",
          "name": "amount",
          "type": "uint8"
        }
      ],
      "name": "UpdateFreeMints",
      "type": "event"
    },
    {
      "anonymous": false,
      "inputs": [
        {
          "indexed": false,
          "internalType": "address",
          "name": "account",
          "type": "address"
        },
        {
          "indexed": false,
          "internalType": "uint8",
          "name": "amount",
          "type": "uint8"
        }
      ],
      "name": "UpdateWhitelist",
      "type": "event"
    },
    {
      "inputs": [
        {
          "internalType": "address[]",
          "name": "_controllers",
          "type": "address[]"
        }
      ],
      "name": "addController",
      "outputs": [],
      "stateMutability": "nonpayable",
      "type": "function"
    },
    {
      "inputs": [
        {
          "internalType": "address",
          "name": "_controller",
          "type": "address"
        }
      ],
      "name": "controller",
      "outputs": [
        {
          "internalType": "bool",
          "name": "",
          "type": "bool"
        }
      ],
      "stateMutability": "view",
      "type": "function",
      "constant": true
    },
    {
      "inputs": [
        {
          "internalType": "address",
          "name": "",
          "type": "address"
        }
      ],
      "name": "freeMints",
      "outputs": [
        {
          "internalType": "uint8",
          "name": "",
          "type": "uint8"
        }
      ],
      "stateMutability": "view",
      "type": "function",
      "constant": true
    },
    {
      "inputs": [],
      "name": "gen1PriceTier0",
      "outputs": [
        {
          "internalType": "uint256",
          "name": "",
          "type": "uint256"
        }
      ],
      "stateMutability": "view",
      "type": "function",
      "constant": true
    },
    {
      "inputs": [],
      "name": "gen1PriceTier1",
      "outputs": [
        {
          "internalType": "uint256",
          "name": "",
          "type": "uint256"
        }
      ],
      "stateMutability": "view",
      "type": "function",
      "constant": true
    },
    {
      "inputs": [],
      "name": "gen1PriceTier2",
      "outputs": [
        {
          "internalType": "uint256",
          "name": "",
          "type": "uint256"
        }
      ],
      "stateMutability": "view",
      "type": "function",
      "constant": true
    },
    {
      "inputs": [],
      "name": "gen1PriceTier3",
      "outputs": [
        {
          "internalType": "uint256",
          "name": "",
          "type": "uint256"
        }
      ],
      "stateMutability": "view",
      "type": "function",
      "constant": true
    },
    {
      "inputs": [],
      "name": "maxMintsPerTx",
      "outputs": [
        {
          "internalType": "uint8",
          "name": "",
          "type": "uint8"
        }
      ],
      "stateMutability": "view",
      "type": "function",
      "constant": true
    },
    {
      "inputs": [],
      "name": "mintPrice",
      "outputs": [
        {
          "internalType": "uint256",
          "name": "",
          "type": "uint256"
        }
      ],
      "stateMutability": "view",
      "type": "function",
      "constant": true
    },
    {
      "inputs": [],
      "name": "onlyWhitelist",
      "outputs": [
        {
          "internalType": "bool",
          "name": "",
          "type": "bool"
        }
      ],
      "stateMutability": "view",
      "type": "function",
      "constant": true
    },
    {
      "inputs": [],
      "name": "owner",
      "outputs": [
        {
          "internalType": "address",
          "name": "",
          "type": "address"
        }
      ],
      "stateMutability": "view",
      "type": "function",
      "constant": true
    },
    {
      "inputs": [
        {
          "internalType": "address[]",
          "name": "_controllers",
          "type": "address[]"
        }
      ],
      "name": "removeController",
      "outputs": [],
      "stateMutability": "nonpayable",
      "type": "function"
    },
    {
      "inputs": [],
      "name": "renounceOwnership",
      "outputs": [],
      "stateMutability": "nonpayable",
      "type": "function"
    },
    {
      "inputs": [
        {
          "internalType": "address",
          "name": "newOwner",
          "type": "address"
        }
      ],
      "name": "transferOwnership",
      "outputs": [],
      "stateMutability": "nonpayable",
      "type": "function"
    },
    {
      "inputs": [
        {
          "internalType": "address",
          "name": "",
          "type": "address"
        }
      ],
      "name": "whitelist",
      "outputs": [
        {
          "internalType": "uint8",
          "name": "",
          "type": "uint8"
        }
      ],
      "stateMutability": "view",
      "type": "function",
      "constant": true
    },
    {
      "inputs": [],
      "name": "whitelistBoost",
      "outputs": [
        {
          "internalType": "int8",
          "name": "",
          "type": "int8"
        }
      ],
      "stateMutability": "view",
      "type": "function",
      "constant": true
    },
    {
      "inputs": [
        {
          "internalType": "address",
          "name": "_fastFood",
          "type": "address"
        }
      ],
      "name": "initialize",
      "outputs": [],
      "stateMutability": "nonpayable",
      "type": "function"
    },
    {
      "inputs": [
        {
          "internalType": "uint256",
          "name": "_mintPrice",
          "type": "uint256"
        },
        {
          "internalType": "int8",
          "name": "_whitelistBoost",
          "type": "int8"
        },
        {
          "internalType": "uint8",
          "name": "_maxMintsPerTx",
          "type": "uint8"
        },
        {
          "internalType": "uint256[]",
          "name": "_gen1Prices",
          "type": "uint256[]"
        }
      ],
      "name": "configure",
      "outputs": [],
      "stateMutability": "nonpayable",
      "type": "function"
    },
    {
      "inputs": [
        {
          "internalType": "bool",
          "name": "_enable",
          "type": "bool"
        }
      ],
      "name": "toggleWhitelist",
      "outputs": [],
      "stateMutability": "nonpayable",
      "type": "function"
    },
    {
      "inputs": [
        {
          "internalType": "address[]",
          "name": "addresses",
          "type": "address[]"
        }
      ],
      "name": "addToWhitelist",
      "outputs": [],
      "stateMutability": "nonpayable",
      "type": "function"
    },
    {
      "inputs": [
        {
          "internalType": "address[]",
          "name": "addresses",
          "type": "address[]"
        }
      ],
      "name": "removeFromWhitelist",
      "outputs": [],
      "stateMutability": "nonpayable",
      "type": "function"
    },
    {
      "inputs": [
        {
          "internalType": "address[]",
          "name": "addresses",
          "type": "address[]"
        }
      ],
      "name": "addToFreeMints",
      "outputs": [],
      "stateMutability": "nonpayable",
      "type": "function"
    },
    {
      "inputs": [
        {
          "internalType": "address[]",
          "name": "addresses",
          "type": "address[]"
        }
      ],
      "name": "removeFromFreeMints",
      "outputs": [],
      "stateMutability": "nonpayable",
      "type": "function"
    },
    {
      "inputs": [
        {
          "internalType": "address",
          "name": "sender",
          "type": "address"
        },
        {
          "internalType": "uint8",
          "name": "amount",
          "type": "uint8"
        },
        {
          "internalType": "uint256",
          "name": "msgValue",
          "type": "uint256"
        },
        {
          "internalType": "uint16",
          "name": "minted",
          "type": "uint16"
        },
        {
          "internalType": "uint256",
          "name": "maxTokens",
          "type": "uint256"
        },
        {
          "internalType": "uint256",
          "name": "gen0Tokens",
          "type": "uint256"
        }
      ],
      "name": "handle",
      "outputs": [
        {
          "internalType": "int8",
          "name": "boost",
          "type": "int8"
        }
      ],
      "stateMutability": "nonpayable",
      "type": "function"
    },
    {
      "inputs": [
        {
          "internalType": "uint256",
          "name": "tokenId",
          "type": "uint256"
        },
        {
          "internalType": "uint256",
          "name": "maxTokens",
          "type": "uint256"
        },
        {
          "internalType": "uint256",
          "name": "gen0Tokens",
          "type": "uint256"
        }
      ],
      "name": "mintCost",
      "outputs": [
        {
          "internalType": "uint256",
          "name": "",
          "type": "uint256"
        }
      ],
      "stateMutability": "view",
      "type": "function",
      "constant": true
    }
  ],
  "bytecode": "0x608060405234801561001057600080fd5b50612ee7806100206000396000f3fe608060405234801561001057600080fd5b50600436106101735760003560e01c806380e3f1ad116100de578063a88e099611610097578063c3a7cc5a11610071578063c3a7cc5a14610426578063c4d66de814610442578063dc30158b1461045e578063f2fde38b1461047c57610173565b8063a88e0996146103a8578063abc26c60146103c6578063c13aa7b5146103f657610173565b806380e3f1ad146102e85780638da5cb5b1461030457806392c405b6146103225780639b19251a1461033e578063a4e573301461036e578063a83a72021461038c57610173565b80636502672c116101305780636502672c146102265780636817c76c146102445780636d41d4fb14610262578063715018a6146102925780637a92e5511461029c5780637f649783146102cc57610173565b806303f7d3881461017857806328ca26cd14610196578063499009a4146101b45780634d3e873c146101d257806350fcfd39146101ee578063548db1741461020a575b600080fd5b610180610498565b60405161018d919061202b565b60405180910390f35b61019e61049e565b6040516101ab919061202b565b60405180910390f35b6101bc6104a4565b6040516101c99190612062565b60405180910390f35b6101ec60048036038101906101e7919061227b565b6104b7565b005b6102086004803603810190610203919061241f565b610601565b005b610224600480360381019061021f919061241f565b610856565b005b61022e610aab565b60405161023b919061202b565b60405180910390f35b61024c610ab1565b604051610259919061202b565b60405180910390f35b61027c60048036038101906102779190612468565b610ab7565b60405161028991906124a4565b60405180910390f35b61029a610ad7565b005b6102b660048036038101906102b191906124bf565b610b5f565b6040516102c3919061202b565b60405180910390f35b6102e660048036038101906102e1919061241f565b610bf9565b005b61030260048036038101906102fd919061254a565b610e4e565b005b61030c610ee7565b6040516103199190612586565b60405180910390f35b61033c6004803603810190610337919061241f565b610f11565b005b61035860048036038101906103539190612468565b611022565b60405161036591906124a4565b60405180910390f35b610376611042565b604051610383919061202b565b60405180910390f35b6103a660048036038101906103a1919061241f565b611048565b005b6103b0611159565b6040516103bd91906125b0565b60405180910390f35b6103e060048036038101906103db9190612605565b61116c565b6040516103ed9190612062565b60405180910390f35b610410600480360381019061040b9190612468565b611892565b60405161041d91906125b0565b60405180910390f35b610440600480360381019061043b919061241f565b611964565b005b61045c60048036038101906104579190612468565b611bb9565b005b610466611d02565b60405161047391906124a4565b60405180910390f35b61049660048036038101906104919190612468565b611d15565b005b606b5481565b60695481565b606760009054906101000a900460000b81565b6104bf611e0d565b73ffffffffffffffffffffffffffffffffffffffff166104dd610ee7565b73ffffffffffffffffffffffffffffffffffffffff1614610533576040517f08c379a000000000000000000000000000000000000000000000000000000000815260040161052a906126ef565b60405180910390fd5b8360668190555082606760006101000a81548160ff021916908360000b60ff16021790555081606760016101000a81548160ff021916908360ff160217905550806000815181106105875761058661270f565b5b6020026020010151606881905550806001815181106105a9576105a861270f565b5b6020026020010151606981905550806002815181106105cb576105ca61270f565b5b6020026020010151606a81905550806003815181106105ed576105ec61270f565b5b6020026020010151606b8190555050505050565b610609611e0d565b73ffffffffffffffffffffffffffffffffffffffff16610627610ee7565b73ffffffffffffffffffffffffffffffffffffffff161461067d576040517f08c379a0000000000000000000000000000000000000000000000000000000008152600401610674906126ef565b60405180910390fd5b60005b8151811015610852576000606d60008484815181106106a2576106a161270f565b5b602002602001015173ffffffffffffffffffffffffffffffffffffffff1673ffffffffffffffffffffffffffffffffffffffff16815260200190815260200160002060009054906101000a900460ff16905060648160ff1610610706576064610714565b600181610713919061276d565b5b606d600085858151811061072b5761072a61270f565b5b602002602001015173ffffffffffffffffffffffffffffffffffffffff1673ffffffffffffffffffffffffffffffffffffffff16815260200190815260200160002060006101000a81548160ff021916908360ff1602179055507fea925f43ecd5282ea8fb307fee3f67644aaa3d20f1894d6a433db3e5d32556478383815181106107b9576107b861270f565b5b6020026020010151606d60008686815181106107d8576107d761270f565b5b602002602001015173ffffffffffffffffffffffffffffffffffffffff1673ffffffffffffffffffffffffffffffffffffffff16815260200190815260200160002060009054906101000a900460ff166040516108369291906127a4565b60405180910390a150808061084a906127cd565b915050610680565b5050565b61085e611e0d565b73ffffffffffffffffffffffffffffffffffffffff1661087c610ee7565b73ffffffffffffffffffffffffffffffffffffffff16146108d2576040517f08c379a00000000000000000000000000000000000000000000000000000000081526004016108c9906126ef565b60405180910390fd5b60005b8151811015610aa7576000606c60008484815181106108f7576108f661270f565b5b602002602001015173ffffffffffffffffffffffffffffffffffffffff1673ffffffffffffffffffffffffffffffffffffffff16815260200190815260200160002060009054906101000a900460ff16905060018160ff161161095b576000610969565b6001816109689190612816565b5b606c60008585815181106109805761097f61270f565b5b602002602001015173ffffffffffffffffffffffffffffffffffffffff1673ffffffffffffffffffffffffffffffffffffffff16815260200190815260200160002060006101000a81548160ff021916908360ff1602179055507fcdc5caa840688c7b2fdfb48b53223f1187b9ec9a1d99d69043af921a8a3d9692838381518110610a0e57610a0d61270f565b5b6020026020010151606c6000868681518110610a2d57610a2c61270f565b5b602002602001015173ffffffffffffffffffffffffffffffffffffffff1673ffffffffffffffffffffffffffffffffffffffff16815260200190815260200160002060009054906101000a900460ff16604051610a8b9291906127a4565b60405180910390a1508080610a9f906127cd565b9150506108d5565b5050565b60685481565b60665481565b606d6020528060005260406000206000915054906101000a900460ff1681565b610adf611e0d565b73ffffffffffffffffffffffffffffffffffffffff16610afd610ee7565b73ffffffffffffffffffffffffffffffffffffffff1614610b53576040517f08c379a0000000000000000000000000000000000000000000000000000000008152600401610b4a906126ef565b60405180910390fd5b610b5d6000611e15565b565b6000818411610b715760009050610bf2565b6005600284610b80919061284a565b610b8a91906128d3565b8411610b9a576068549050610bf2565b6005600384610ba9919061284a565b610bb391906128d3565b8411610bc3576069549050610bf2565b6005600484610bd2919061284a565b610bdc91906128d3565b8411610bec57606a549050610bf2565b606b5490505b9392505050565b610c01611e0d565b73ffffffffffffffffffffffffffffffffffffffff16610c1f610ee7565b73ffffffffffffffffffffffffffffffffffffffff1614610c75576040517f08c379a0000000000000000000000000000000000000000000000000000000008152600401610c6c906126ef565b60405180910390fd5b60005b8151811015610e4a576000606c6000848481518110610c9a57610c9961270f565b5b602002602001015173ffffffffffffffffffffffffffffffffffffffff1673ffffffffffffffffffffffffffffffffffffffff16815260200190815260200160002060009054906101000a900460ff16905060648160ff1610610cfe576064610d0c565b600181610d0b919061276d565b5b606c6000858581518110610d2357610d2261270f565b5b602002602001015173ffffffffffffffffffffffffffffffffffffffff1673ffffffffffffffffffffffffffffffffffffffff16815260200190815260200160002060006101000a81548160ff021916908360ff1602179055507fcdc5caa840688c7b2fdfb48b53223f1187b9ec9a1d99d69043af921a8a3d9692838381518110610db157610db061270f565b5b6020026020010151606c6000868681518110610dd057610dcf61270f565b5b602002602001015173ffffffffffffffffffffffffffffffffffffffff1673ffffffffffffffffffffffffffffffffffffffff16815260200190815260200160002060009054906101000a900460ff16604051610e2e9291906127a4565b60405180910390a1508080610e42906127cd565b915050610c78565b5050565b610e56611e0d565b73ffffffffffffffffffffffffffffffffffffffff16610e74610ee7565b73ffffffffffffffffffffffffffffffffffffffff1614610eca576040517f08c379a0000000000000000000000000000000000000000000000000000000008152600401610ec1906126ef565b60405180910390fd5b80606e60006101000a81548160ff02191690831515021790555050565b6000603360009054906101000a900473ffffffffffffffffffffffffffffffffffffffff16905090565b610f19611e0d565b73ffffffffffffffffffffffffffffffffffffffff16610f37610ee7565b73ffffffffffffffffffffffffffffffffffffffff1614610f8d576040517f08c379a0000000000000000000000000000000000000000000000000000000008152600401610f84906126ef565b60405180910390fd5b60005b815181101561101e57600060656000848481518110610fb257610fb161270f565b5b602002602001015173ffffffffffffffffffffffffffffffffffffffff1673ffffffffffffffffffffffffffffffffffffffff16815260200190815260200160002060006101000a81548160ff0219169083151502179055508080611016906127cd565b915050610f90565b5050565b606c6020528060005260406000206000915054906101000a900460ff1681565b606a5481565b611050611e0d565b73ffffffffffffffffffffffffffffffffffffffff1661106e610ee7565b73ffffffffffffffffffffffffffffffffffffffff16146110c4576040517f08c379a00000000000000000000000000000000000000000000000000000000081526004016110bb906126ef565b60405180910390fd5b60005b8151811015611155576001606560008484815181106110e9576110e861270f565b5b602002602001015173ffffffffffffffffffffffffffffffffffffffff1673ffffffffffffffffffffffffffffffffffffffff16815260200190815260200160002060006101000a81548160ff021916908315150217905550808061114d906127cd565b9150506110c7565b5050565b606e60009054906101000a900460ff1681565b6000606560003373ffffffffffffffffffffffffffffffffffffffff1673ffffffffffffffffffffffffffffffffffffffff16815260200190815260200160002060009054906101000a900460ff166111fa576040517f08c379a00000000000000000000000000000000000000000000000000000000081526004016111f190612950565b60405180910390fd5b60008660ff161180156112225750606760019054906101000a900460ff1660ff168660ff1611155b611261576040517f08c379a0000000000000000000000000000000000000000000000000000000008152600401611258906129bc565b60405180910390fd5b828660ff168561127191906129dc565b61ffff1611156112b6576040517f08c379a00000000000000000000000000000000000000000000000000000000081526004016112ad90612a60565b60405180910390fd5b6000905060006066549050606e60009054906101000a900460ff16156113c9578660ff16606d60008a73ffffffffffffffffffffffffffffffffffffffff1673ffffffffffffffffffffffffffffffffffffffff16815260200190815260200160002060009054906101000a900460ff1660ff1610158061138957508660ff16606c60008a73ffffffffffffffffffffffffffffffffffffffff1673ffffffffffffffffffffffffffffffffffffffff16815260200190815260200160002060009054906101000a900460ff1660ff1610155b6113c8576040517f08c379a00000000000000000000000000000000000000000000000000000000081526004016113bf90612acc565b60405180910390fd5b5b8660ff16606d60008a73ffffffffffffffffffffffffffffffffffffffff1673ffffffffffffffffffffffffffffffffffffffff16815260200190815260200160002060009054906101000a900460ff1660ff16106115235786606d60008a73ffffffffffffffffffffffffffffffffffffffff1673ffffffffffffffffffffffffffffffffffffffff16815260200190815260200160002060008282829054906101000a900460ff1661147d9190612816565b92506101000a81548160ff021916908360ff1602179055507fea925f43ecd5282ea8fb307fee3f67644aaa3d20f1894d6a433db3e5d325564788606d60008b73ffffffffffffffffffffffffffffffffffffffff1673ffffffffffffffffffffffffffffffffffffffff16815260200190815260200160002060009054906101000a900460ff166040516115129291906127a4565b60405180910390a1600090506116a5565b8660ff16606c60008a73ffffffffffffffffffffffffffffffffffffffff1673ffffffffffffffffffffffffffffffffffffffff16815260200190815260200160002060009054906101000a900460ff1660ff16106116a45786606c60008a73ffffffffffffffffffffffffffffffffffffffff1673ffffffffffffffffffffffffffffffffffffffff16815260200190815260200160002060008282829054906101000a900460ff166115d79190612816565b92506101000a81548160ff021916908360ff1602179055507fcdc5caa840688c7b2fdfb48b53223f1187b9ec9a1d99d69043af921a8a3d969288606c60008b73ffffffffffffffffffffffffffffffffffffffff1673ffffffffffffffffffffffffffffffffffffffff16815260200190815260200160002060009054906101000a900460ff1660405161166c9291906127a4565b60405180910390a16064605a606654611685919061284a565b61168f91906128d3565b9050606760009054906101000a900460000b91505b5b6000838661ffff16101561175d57838860ff16876116c391906129dc565b61ffff161115611708576040517f08c379a00000000000000000000000000000000000000000000000000000000081526004016116ff90612b5e565b60405180910390fd5b86828960ff16611718919061284a565b14611758576040517f08c379a000000000000000000000000000000000000000000000000000000000815260040161174f90612bca565b60405180910390fd5b6117ed565b600087146117a0576040517f08c379a000000000000000000000000000000000000000000000000000000000815260040161179790612c5c565b60405180910390fd5b6000600190505b8860ff1681116117eb576117cb818861ffff166117c49190612c7c565b8787610b5f565b826117d69190612c7c565b915080806117e3906127cd565b9150506117a7565b505b600081111561188657606e60019054906101000a900473ffffffffffffffffffffffffffffffffffffffff1673ffffffffffffffffffffffffffffffffffffffff16639dc29fac8a836040518363ffffffff1660e01b8152600401611853929190612cd2565b600060405180830381600087803b15801561186d57600080fd5b505af1158015611881573d6000803e3d6000fd5b505050505b50509695505050505050565b600061189c611e0d565b73ffffffffffffffffffffffffffffffffffffffff166118ba610ee7565b73ffffffffffffffffffffffffffffffffffffffff1614611910576040517f08c379a0000000000000000000000000000000000000000000000000000000008152600401611907906126ef565b60405180910390fd5b606560008373ffffffffffffffffffffffffffffffffffffffff1673ffffffffffffffffffffffffffffffffffffffff16815260200190815260200160002060009054906101000a900460ff169050919050565b61196c611e0d565b73ffffffffffffffffffffffffffffffffffffffff1661198a610ee7565b73ffffffffffffffffffffffffffffffffffffffff16146119e0576040517f08c379a00000000000000000000000000000000000000000000000000000000081526004016119d7906126ef565b60405180910390fd5b60005b8151811015611bb5576000606d6000848481518110611a0557611a0461270f565b5b602002602001015173ffffffffffffffffffffffffffffffffffffffff1673ffffffffffffffffffffffffffffffffffffffff16815260200190815260200160002060009054906101000a900460ff16905060018160ff1611611a69576000611a77565b600181611a769190612816565b5b606d6000858581518110611a8e57611a8d61270f565b5b602002602001015173ffffffffffffffffffffffffffffffffffffffff1673ffffffffffffffffffffffffffffffffffffffff16815260200190815260200160002060006101000a81548160ff021916908360ff1602179055507fea925f43ecd5282ea8fb307fee3f67644aaa3d20f1894d6a433db3e5d3255647838381518110611b1c57611b1b61270f565b5b6020026020010151606d6000868681518110611b3b57611b3a61270f565b5b602002602001015173ffffffffffffffffffffffffffffffffffffffff1673ffffffffffffffffffffffffffffffffffffffff16815260200190815260200160002060009054906101000a900460ff16604051611b999291906127a4565b60405180910390a1508080611bad906127cd565b9150506119e3565b5050565b600060019054906101000a900460ff16611be15760008054906101000a900460ff1615611bea565b611be9611edb565b5b611c29576040517f08c379a0000000000000000000000000000000000000000000000000000000008152600401611c2090612d6d565b60405180910390fd5b60008060019054906101000a900460ff161590508015611c79576001600060016101000a81548160ff02191690831515021790555060016000806101000a81548160ff0219169083151502179055505b611c81611eec565b81606e60016101000a81548173ffffffffffffffffffffffffffffffffffffffff021916908373ffffffffffffffffffffffffffffffffffffffff1602179055506000606e60006101000a81548160ff0219169083151502179055508015611cfe5760008060016101000a81548160ff0219169083151502179055505b5050565b606760019054906101000a900460ff1681565b611d1d611e0d565b73ffffffffffffffffffffffffffffffffffffffff16611d3b610ee7565b73ffffffffffffffffffffffffffffffffffffffff1614611d91576040517f08c379a0000000000000000000000000000000000000000000000000000000008152600401611d88906126ef565b60405180910390fd5b600073ffffffffffffffffffffffffffffffffffffffff168173ffffffffffffffffffffffffffffffffffffffff161415611e01576040517f08c379a0000000000000000000000000000000000000000000000000000000008152600401611df890612dff565b60405180910390fd5b611e0a81611e15565b50565b600033905090565b6000603360009054906101000a900473ffffffffffffffffffffffffffffffffffffffff16905081603360006101000a81548173ffffffffffffffffffffffffffffffffffffffff021916908373ffffffffffffffffffffffffffffffffffffffff1602179055508173ffffffffffffffffffffffffffffffffffffffff168173ffffffffffffffffffffffffffffffffffffffff167f8be0079c531659141344cd1fd0a4f28419497f9722a3daafe3b4186f6b6457e060405160405180910390a35050565b6000611ee630611f4d565b15905090565b600060019054906101000a900460ff16611f3b576040517f08c379a0000000000000000000000000000000000000000000000000000000008152600401611f3290612e91565b60405180910390fd5b611f43611f60565b611f4b611fb1565b565b600080823b905060008111915050919050565b600060019054906101000a900460ff16611faf576040517f08c379a0000000000000000000000000000000000000000000000000000000008152600401611fa690612e91565b60405180910390fd5b565b600060019054906101000a900460ff16612000576040517f08c379a0000000000000000000000000000000000000000000000000000000008152600401611ff790612e91565b60405180910390fd5b61201061200b611e0d565b611e15565b565b6000819050919050565b61202581612012565b82525050565b6000602082019050612040600083018461201c565b92915050565b60008160000b9050919050565b61205c81612046565b82525050565b60006020820190506120776000830184612053565b92915050565b6000604051905090565b600080fd5b600080fd5b61209a81612012565b81146120a557600080fd5b50565b6000813590506120b781612091565b92915050565b6120c681612046565b81146120d157600080fd5b50565b6000813590506120e3816120bd565b92915050565b600060ff82169050919050565b6120ff816120e9565b811461210a57600080fd5b50565b60008135905061211c816120f6565b92915050565b600080fd5b6000601f19601f8301169050919050565b7f4e487b7100000000000000000000000000000000000000000000000000000000600052604160045260246000fd5b61217082612127565b810181811067ffffffffffffffff8211171561218f5761218e612138565b5b80604052505050565b60006121a261207d565b90506121ae8282612167565b919050565b600067ffffffffffffffff8211156121ce576121cd612138565b5b602082029050602081019050919050565b600080fd5b60006121f76121f2846121b3565b612198565b9050808382526020820190506020840283018581111561221a576122196121df565b5b835b81811015612243578061222f88826120a8565b84526020840193505060208101905061221c565b5050509392505050565b600082601f83011261226257612261612122565b5b81356122728482602086016121e4565b91505092915050565b6000806000806080858703121561229557612294612087565b5b60006122a3878288016120a8565b94505060206122b4878288016120d4565b93505060406122c58782880161210d565b925050606085013567ffffffffffffffff8111156122e6576122e561208c565b5b6122f28782880161224d565b91505092959194509250565b600067ffffffffffffffff82111561231957612318612138565b5b602082029050602081019050919050565b600073ffffffffffffffffffffffffffffffffffffffff82169050919050565b60006123558261232a565b9050919050565b6123658161234a565b811461237057600080fd5b50565b6000813590506123828161235c565b92915050565b600061239b612396846122fe565b612198565b905080838252602082019050602084028301858111156123be576123bd6121df565b5b835b818110156123e757806123d38882612373565b8452602084019350506020810190506123c0565b5050509392505050565b600082601f83011261240657612405612122565b5b8135612416848260208601612388565b91505092915050565b60006020828403121561243557612434612087565b5b600082013567ffffffffffffffff8111156124535761245261208c565b5b61245f848285016123f1565b91505092915050565b60006020828403121561247e5761247d612087565b5b600061248c84828501612373565b91505092915050565b61249e816120e9565b82525050565b60006020820190506124b96000830184612495565b92915050565b6000806000606084860312156124d8576124d7612087565b5b60006124e6868287016120a8565b93505060206124f7868287016120a8565b9250506040612508868287016120a8565b9150509250925092565b60008115159050919050565b61252781612512565b811461253257600080fd5b50565b6000813590506125448161251e565b92915050565b6000602082840312156125605761255f612087565b5b600061256e84828501612535565b91505092915050565b6125808161234a565b82525050565b600060208201905061259b6000830184612577565b92915050565b6125aa81612512565b82525050565b60006020820190506125c560008301846125a1565b92915050565b600061ffff82169050919050565b6125e2816125cb565b81146125ed57600080fd5b50565b6000813590506125ff816125d9565b92915050565b60008060008060008060c0878903121561262257612621612087565b5b600061263089828a01612373565b965050602061264189828a0161210d565b955050604061265289828a016120a8565b945050606061266389828a016125f0565b935050608061267489828a016120a8565b92505060a061268589828a016120a8565b9150509295509295509295565b600082825260208201905092915050565b7f4f776e61626c653a2063616c6c6572206973206e6f7420746865206f776e6572600082015250565b60006126d9602083612692565b91506126e4826126a3565b602082019050919050565b60006020820190508181036000830152612708816126cc565b9050919050565b7f4e487b7100000000000000000000000000000000000000000000000000000000600052603260045260246000fd5b7f4e487b7100000000000000000000000000000000000000000000000000000000600052601160045260246000fd5b6000612778826120e9565b9150612783836120e9565b92508260ff038211156127995761279861273e565b5b828201905092915050565b60006040820190506127b96000830185612577565b6127c66020830184612495565b9392505050565b60006127d882612012565b91507fffffffffffffffffffffffffffffffffffffffffffffffffffffffffffffffff82141561280b5761280a61273e565b5b600182019050919050565b6000612821826120e9565b915061282c836120e9565b92508282101561283f5761283e61273e565b5b828203905092915050565b600061285582612012565b915061286083612012565b9250817fffffffffffffffffffffffffffffffffffffffffffffffffffffffffffffffff04831182151516156128995761289861273e565b5b828202905092915050565b7f4e487b7100000000000000000000000000000000000000000000000000000000600052601260045260246000fd5b60006128de82612012565b91506128e983612012565b9250826128f9576128f86128a4565b5b828204905092915050565b7f4f6e6c7920636f6e74726f6c6c6572732063616e206578656375746500000000600082015250565b600061293a601c83612692565b915061294582612904565b602082019050919050565b600060208201905081810360008301526129698161292d565b9050919050565b7f496e76616c6964206d696e7420616d6f756e7400000000000000000000000000600082015250565b60006129a6601383612692565b91506129b182612970565b602082019050919050565b600060208201905081810360008301526129d581612999565b9050919050565b60006129e7826125cb565b91506129f2836125cb565b92508261ffff03821115612a0957612a0861273e565b5b828201905092915050565b7f416c6c20746f6b656e73206d696e746564000000000000000000000000000000600082015250565b6000612a4a601183612692565b9150612a5582612a14565b602082019050919050565b60006020820190508181036000830152612a7981612a3d565b9050919050565b7f4e6f742077686974656c69737465640000000000000000000000000000000000600082015250565b6000612ab6600f83612692565b9150612ac182612a80565b602082019050919050565b60006020820190508181036000830152612ae581612aa9565b9050919050565b7f4e6f7420656e6f7567682047656e203020746f6b656e73206c6566742c20726560008201527f6475636520616d6f756e74000000000000000000000000000000000000000000602082015250565b6000612b48602b83612692565b9150612b5382612aec565b604082019050919050565b60006020820190508181036000830152612b7781612b3b565b9050919050565b7f496e76616c6964207061796d656e7420616d6f756e7400000000000000000000600082015250565b6000612bb4601683612692565b9150612bbf82612b7e565b602082019050919050565b60006020820190508181036000830152612be381612ba7565b9050919050565b7f496e76616c6964207061796d656e7420747970652c20616363657074696e672060008201527f666f6f6420746f6b656e73206f6e6c7900000000000000000000000000000000602082015250565b6000612c46603083612692565b9150612c5182612bea565b604082019050919050565b60006020820190508181036000830152612c7581612c39565b9050919050565b6000612c8782612012565b9150612c9283612012565b9250827fffffffffffffffffffffffffffffffffffffffffffffffffffffffffffffffff03821115612cc757612cc661273e565b5b828201905092915050565b6000604082019050612ce76000830185612577565b612cf4602083018461201c565b9392505050565b7f496e697469616c697a61626c653a20636f6e747261637420697320616c72656160008201527f647920696e697469616c697a6564000000000000000000000000000000000000602082015250565b6000612d57602e83612692565b9150612d6282612cfb565b604082019050919050565b60006020820190508181036000830152612d8681612d4a565b9050919050565b7f4f776e61626c653a206e6577206f776e657220697320746865207a65726f206160008201527f6464726573730000000000000000000000000000000000000000000000000000602082015250565b6000612de9602683612692565b9150612df482612d8d565b604082019050919050565b60006020820190508181036000830152612e1881612ddc565b9050919050565b7f496e697469616c697a61626c653a20636f6e7472616374206973206e6f74206960008201527f6e697469616c697a696e67000000000000000000000000000000000000000000602082015250565b6000612e7b602b83612692565b9150612e8682612e1f565b604082019050919050565b60006020820190508181036000830152612eaa81612e6e565b905091905056fea2646970667358221220e336ce053119f03ed3ef488f48d199cab651bee80348bc3899ca44be9deeb4c364736f6c634300080a0033",
  "immutableReferences": {},
  "source": "// SPDX-License-Identifier: MIT\n\npragma solidity ^0.8.0;\n\nimport \"@openzeppelin/contracts-upgradeable/proxy/utils/Initializable.sol\";\nimport \"./ControllableUpgradeable.sol\";\nimport \"./FastFood.sol\";\n\ncontract Paywall is Initializable, OwnableUpgradeable, ControllableUpgradeable {\n  uint256 public mintPrice;\n  int8 public whitelistBoost;\n  uint8 public maxMintsPerTx; // Maximum number of tokens that can be minted in a single tx\n  uint256 public gen1PriceTier0;\n  uint256 public gen1PriceTier1;\n  uint256 public gen1PriceTier2;\n  uint256 public gen1PriceTier3;\n  mapping(address => uint8) public whitelist; // Mapping from address to a number of remaining whitelist spots\n  mapping(address => uint8) public freeMints; // Mapping from address to a number of remaining free mint spots\n  bool public onlyWhitelist; // Whether minting is only open for whitelisted addresses\n\n  FastFood fastFood; // Reference to the $FFOOD contract\n\n  event UpdateWhitelist(address account, uint8 amount);\n  event UpdateFreeMints(address account, uint8 amount);\n\n  function initialize(address _fastFood) external initializer {\n    __Ownable_init();\n\n    fastFood = FastFood(_fastFood);\n    onlyWhitelist = false;\n  }\n\n  /**\n   * Allows DAO to update game parameters\n   */\n  function configure(uint256 _mintPrice, int8 _whitelistBoost, uint8 _maxMintsPerTx, uint256[] memory _gen1Prices) external onlyOwner {\n    mintPrice = _mintPrice;\n    whitelistBoost = _whitelistBoost;\n    maxMintsPerTx = _maxMintsPerTx;\n    gen1PriceTier0 = _gen1Prices[0];\n    gen1PriceTier1 = _gen1Prices[1];\n    gen1PriceTier2 = _gen1Prices[2];\n    gen1PriceTier3 = _gen1Prices[3];\n  }\n\n  /**\n   * Toggles the whitelist on and off\n   * @param _enable - true enables it\n   */\n  function toggleWhitelist(bool _enable) external onlyOwner {\n    onlyWhitelist = _enable;\n  }\n\n  /**\n   * Adds a list of addresses to the whitelist\n   * @param addresses - An array of addresses to add\n   */\n  function addToWhitelist(address[] memory addresses) external onlyOwner {\n    for (uint i = 0; i < addresses.length; i++) {\n      uint8 amount = whitelist[addresses[i]];\n      whitelist[addresses[i]] = amount < 100 ? amount + 1 : 100;\n      emit UpdateWhitelist(addresses[i], whitelist[addresses[i]]);\n    }\n  }\n\n  /**\n   * Removes a list of addresses from the whitelist\n   * @param addresses - An array of addresses to remove\n   */\n  function removeFromWhitelist(address[] memory addresses) external onlyOwner {\n    for (uint i = 0; i < addresses.length; i++) {\n      uint8 amount = whitelist[addresses[i]];\n      whitelist[addresses[i]] = amount > 1 ? amount - 1 : 0;\n      emit UpdateWhitelist(addresses[i], whitelist[addresses[i]]);\n    }\n  }\n\n  /**\n   * Adds a list of addresses to the free mints\n   * @param addresses - An array of addresses to add\n   */\n  function addToFreeMints(address[] memory addresses) external onlyOwner {\n    for (uint i = 0; i < addresses.length; i++) {\n      uint8 amount = freeMints[addresses[i]];\n      freeMints[addresses[i]] = amount < 100 ? amount + 1 : 100;\n      emit UpdateFreeMints(addresses[i], freeMints[addresses[i]]);\n    }\n  }\n\n  /**\n   * Removes a list of addresses from the free mints\n   * @param addresses - An array of addresses to remove\n   */\n  function removeFromFreeMints(address[] memory addresses) external onlyOwner {\n    for (uint i = 0; i < addresses.length; i++) {\n      uint8 amount = freeMints[addresses[i]];\n      freeMints[addresses[i]] = amount > 1 ? amount - 1 : 0;\n      emit UpdateFreeMints(addresses[i], freeMints[addresses[i]]);\n    }\n  }\n\n  /**\n   * ChainLink VRF request: Mints a new ERC721 token: 90% chefs, 10% rats\n   * The first 20% are free to claim, the remaining cost $FFOOD\n   * @param sender - User wallet address\n   * @param amount - Number of tokens to mint\n   * @param msgValue - Value sent with the transaction\n   * @param minted - Number of total tokens minted\n   * @param maxTokens - Max number of tokens that can be minted\n   * @param gen0Tokens - Number of tokens that can be claimed for free\n   * @return boost - Boost percentage if the token was minted using a whitelist spot\n   */\n  function handle(address sender, uint8 amount, uint256 msgValue, uint16 minted, uint256 maxTokens, uint256 gen0Tokens) external onlyController returns (int8 boost) {\n    require(amount > 0 && amount <= maxMintsPerTx, \"Invalid mint amount\");\n    require(minted + amount <= maxTokens, \"All tokens minted\");\n    boost = 0;\n    uint256 txMintPrice = mintPrice;\n    if (onlyWhitelist) {\n      require(freeMints[sender] >= amount || whitelist[sender] >= amount, \"Not whitelisted\");\n    }\n    if (freeMints[sender] >= amount) {\n      freeMints[sender] -= amount;\n      emit UpdateFreeMints(sender, freeMints[sender]);\n      txMintPrice = 0;\n    } else if (whitelist[sender] >= amount) {\n      whitelist[sender] -= amount;\n      emit UpdateWhitelist(sender, whitelist[sender]);\n      txMintPrice = mintPrice * 90 / 100;\n      boost = whitelistBoost;\n    }\n    uint256 totalCost = 0;\n    if (minted < gen0Tokens) {\n      require(minted + amount <= gen0Tokens, \"Not enough Gen 0 tokens left, reduce amount\");\n      require(amount * txMintPrice == msgValue, \"Invalid payment amount\");\n    } else {\n      require(msgValue == 0, \"Invalid payment type, accepting food tokens only\");\n      for (uint i = 1; i <= amount; i++) {\n        totalCost += mintCost(minted + i, maxTokens, gen0Tokens);\n      }\n    }\n    if (totalCost > 0) fastFood.burn(sender, totalCost);\n  }\n\n  /**\n   * Returns the latest mint price for the given token using 5 price breaks\n   * @param tokenId - The token ID to check\n   * @param maxTokens - The total supply of tokens\n   * @param gen0Tokens - The supply of Gen0 tokens\n   * @return The minting cost of the given ID\n   */\n  function mintCost(uint256 tokenId, uint256 maxTokens, uint256 gen0Tokens) public view returns (uint256) {\n    if (tokenId <= gen0Tokens) return 0;\n    if (tokenId <= maxTokens * 2 / 5) return gen1PriceTier0;\n    if (tokenId <= maxTokens * 3 / 5) return gen1PriceTier1;\n    if (tokenId <= maxTokens * 4 / 5) return gen1PriceTier2;\n    return gen1PriceTier3;\n  }\n}\n",
  "sourcePath": "/Users/chris/workspace/ratalert/ratalert-contracts/contracts/Paywall.sol",
  "compiler": {
    "name": "solc",
    "version": "0.8.10+commit.fc410830.Emscripten.clang"
  },
  "schemaVersion": "3.4.6",
  "updatedAt": "2022-03-30T12:21:51.172Z",
  "networkType": "ethereum",
  "devdoc": {
    "kind": "dev",
    "methods": {
      "addController(address[])": {
        "params": {
          "_controllers": "- The addresses to enable"
        }
      },
      "addToFreeMints(address[])": {
        "params": {
          "addresses": "- An array of addresses to add"
        }
      },
      "addToWhitelist(address[])": {
        "params": {
          "addresses": "- An array of addresses to add"
        }
      },
      "controller(address)": {
        "params": {
          "_controller": "- The address to check"
        }
      },
      "handle(address,uint8,uint256,uint16,uint256,uint256)": {
        "params": {
          "amount": "- Number of tokens to mint",
          "gen0Tokens": "- Number of tokens that can be claimed for free",
          "maxTokens": "- Max number of tokens that can be minted",
          "minted": "- Number of total tokens minted",
          "msgValue": "- Value sent with the transaction",
          "sender": "- User wallet address"
        },
        "returns": {
          "boost": "- Boost percentage if the token was minted using a whitelist spot"
        }
      },
      "mintCost(uint256,uint256,uint256)": {
        "params": {
          "gen0Tokens": "- The supply of Gen0 tokens",
          "maxTokens": "- The total supply of tokens",
          "tokenId": "- The token ID to check"
        },
        "returns": {
          "_0": "The minting cost of the given ID"
        }
      },
      "owner()": {
        "details": "Returns the address of the current owner."
      },
      "removeController(address[])": {
        "params": {
          "_controllers": "- The addresses to disable"
        }
      },
      "removeFromFreeMints(address[])": {
        "params": {
          "addresses": "- An array of addresses to remove"
        }
      },
      "removeFromWhitelist(address[])": {
        "params": {
          "addresses": "- An array of addresses to remove"
        }
      },
      "renounceOwnership()": {
        "details": "Leaves the contract without owner. It will not be possible to call `onlyOwner` functions anymore. Can only be called by the current owner. NOTE: Renouncing ownership will leave the contract without an owner, thereby removing any functionality that is only available to the owner."
      },
      "toggleWhitelist(bool)": {
        "params": {
          "_enable": "- true enables it"
        }
      },
      "transferOwnership(address)": {
        "details": "Transfers ownership of the contract to a new account (`newOwner`). Can only be called by the current owner."
      }
    },
    "version": 1
  },
  "userdoc": {
    "kind": "user",
    "methods": {
      "addController(address[])": {
        "notice": "Enables multiple addresses to execute"
      },
      "addToFreeMints(address[])": {
        "notice": "Adds a list of addresses to the free mints"
      },
      "addToWhitelist(address[])": {
        "notice": "Adds a list of addresses to the whitelist"
      },
      "configure(uint256,int8,uint8,uint256[])": {
        "notice": "Allows DAO to update game parameters"
      },
      "controller(address)": {
        "notice": "Gets controller status by address"
      },
      "handle(address,uint8,uint256,uint16,uint256,uint256)": {
        "notice": "ChainLink VRF request: Mints a new ERC721 token: 90% chefs, 10% rats The first 20% are free to claim, the remaining cost $FFOOD"
      },
      "mintCost(uint256,uint256,uint256)": {
        "notice": "Returns the latest mint price for the given token using 5 price breaks"
      },
      "removeController(address[])": {
        "notice": "Prevents multiple addresses from executing"
      },
      "removeFromFreeMints(address[])": {
        "notice": "Removes a list of addresses from the free mints"
      },
      "removeFromWhitelist(address[])": {
        "notice": "Removes a list of addresses from the whitelist"
      },
      "toggleWhitelist(bool)": {
        "notice": "Toggles the whitelist on and off"
      }
    },
    "version": 1
  }
}