{
  "contractName": "Paywall",
  "abi": [
    {
      "anonymous": false,
      "inputs": [
        {
          "indexed": true,
          "internalType": "address",
          "name": "previousOwner",
          "type": "address"
        },
        {
          "indexed": true,
          "internalType": "address",
          "name": "newOwner",
          "type": "address"
        }
      ],
      "name": "OwnershipTransferred",
      "type": "event"
    },
    {
      "anonymous": false,
      "inputs": [
        {
          "indexed": false,
          "internalType": "address",
          "name": "account",
          "type": "address"
        },
        {
          "indexed": false,
          "internalType": "uint8",
          "name": "amount",
          "type": "uint8"
        }
      ],
      "name": "UpdateFreeMints",
      "type": "event"
    },
    {
      "anonymous": false,
      "inputs": [
        {
          "indexed": false,
          "internalType": "address",
          "name": "account",
          "type": "address"
        },
        {
          "indexed": false,
          "internalType": "uint8",
          "name": "amount",
          "type": "uint8"
        }
      ],
      "name": "UpdateWhitelist",
      "type": "event"
    },
    {
      "inputs": [
        {
          "internalType": "address[]",
          "name": "_controllers",
          "type": "address[]"
        }
      ],
      "name": "addController",
      "outputs": [],
      "stateMutability": "nonpayable",
      "type": "function"
    },
    {
      "inputs": [
        {
          "internalType": "address",
          "name": "_controller",
          "type": "address"
        }
      ],
      "name": "controller",
      "outputs": [
        {
          "internalType": "bool",
          "name": "",
          "type": "bool"
        }
      ],
      "stateMutability": "view",
      "type": "function",
      "constant": true
    },
    {
      "inputs": [
        {
          "internalType": "address",
          "name": "",
          "type": "address"
        }
      ],
      "name": "freeMints",
      "outputs": [
        {
          "internalType": "uint8",
          "name": "",
          "type": "uint8"
        }
      ],
      "stateMutability": "view",
      "type": "function",
      "constant": true
    },
    {
      "inputs": [],
      "name": "gen1PriceTier0",
      "outputs": [
        {
          "internalType": "uint256",
          "name": "",
          "type": "uint256"
        }
      ],
      "stateMutability": "view",
      "type": "function",
      "constant": true
    },
    {
      "inputs": [],
      "name": "gen1PriceTier1",
      "outputs": [
        {
          "internalType": "uint256",
          "name": "",
          "type": "uint256"
        }
      ],
      "stateMutability": "view",
      "type": "function",
      "constant": true
    },
    {
      "inputs": [],
      "name": "gen1PriceTier2",
      "outputs": [
        {
          "internalType": "uint256",
          "name": "",
          "type": "uint256"
        }
      ],
      "stateMutability": "view",
      "type": "function",
      "constant": true
    },
    {
      "inputs": [],
      "name": "gen1PriceTier3",
      "outputs": [
        {
          "internalType": "uint256",
          "name": "",
          "type": "uint256"
        }
      ],
      "stateMutability": "view",
      "type": "function",
      "constant": true
    },
    {
      "inputs": [],
      "name": "maxMintsPerTx",
      "outputs": [
        {
          "internalType": "uint8",
          "name": "",
          "type": "uint8"
        }
      ],
      "stateMutability": "view",
      "type": "function",
      "constant": true
    },
    {
      "inputs": [],
      "name": "mintPrice",
      "outputs": [
        {
          "internalType": "uint256",
          "name": "",
          "type": "uint256"
        }
      ],
      "stateMutability": "view",
      "type": "function",
      "constant": true
    },
    {
      "inputs": [],
      "name": "onlyWhitelist",
      "outputs": [
        {
          "internalType": "bool",
          "name": "",
          "type": "bool"
        }
      ],
      "stateMutability": "view",
      "type": "function",
      "constant": true
    },
    {
      "inputs": [],
      "name": "owner",
      "outputs": [
        {
          "internalType": "address",
          "name": "",
          "type": "address"
        }
      ],
      "stateMutability": "view",
      "type": "function",
      "constant": true
    },
    {
      "inputs": [
        {
          "internalType": "address[]",
          "name": "_controllers",
          "type": "address[]"
        }
      ],
      "name": "removeController",
      "outputs": [],
      "stateMutability": "nonpayable",
      "type": "function"
    },
    {
      "inputs": [],
      "name": "renounceOwnership",
      "outputs": [],
      "stateMutability": "nonpayable",
      "type": "function"
    },
    {
      "inputs": [
        {
          "internalType": "address",
          "name": "newOwner",
          "type": "address"
        }
      ],
      "name": "transferOwnership",
      "outputs": [],
      "stateMutability": "nonpayable",
      "type": "function"
    },
    {
      "inputs": [
        {
          "internalType": "address",
          "name": "",
          "type": "address"
        }
      ],
      "name": "whitelist",
      "outputs": [
        {
          "internalType": "uint8",
          "name": "",
          "type": "uint8"
        }
      ],
      "stateMutability": "view",
      "type": "function",
      "constant": true
    },
    {
      "inputs": [],
      "name": "whitelistBoost",
      "outputs": [
        {
          "internalType": "int8",
          "name": "",
          "type": "int8"
        }
      ],
      "stateMutability": "view",
      "type": "function",
      "constant": true
    },
    {
      "inputs": [
        {
          "internalType": "address",
          "name": "_fastFood",
          "type": "address"
        }
      ],
      "name": "initialize",
      "outputs": [],
      "stateMutability": "nonpayable",
      "type": "function"
    },
    {
      "inputs": [
        {
          "internalType": "uint256",
          "name": "_mintPrice",
          "type": "uint256"
        },
        {
          "internalType": "int8",
          "name": "_whitelistBoost",
          "type": "int8"
        },
        {
          "internalType": "uint8",
          "name": "_maxMintsPerTx",
          "type": "uint8"
        },
        {
          "internalType": "uint256[]",
          "name": "_gen1Prices",
          "type": "uint256[]"
        }
      ],
      "name": "configure",
      "outputs": [],
      "stateMutability": "nonpayable",
      "type": "function"
    },
    {
      "inputs": [
        {
          "internalType": "bool",
          "name": "_enable",
          "type": "bool"
        }
      ],
      "name": "toggleWhitelist",
      "outputs": [],
      "stateMutability": "nonpayable",
      "type": "function"
    },
    {
      "inputs": [
        {
          "internalType": "address[]",
          "name": "addresses",
          "type": "address[]"
        }
      ],
      "name": "addToWhitelist",
      "outputs": [],
      "stateMutability": "nonpayable",
      "type": "function"
    },
    {
      "inputs": [
        {
          "internalType": "address[]",
          "name": "addresses",
          "type": "address[]"
        }
      ],
      "name": "removeFromWhitelist",
      "outputs": [],
      "stateMutability": "nonpayable",
      "type": "function"
    },
    {
      "inputs": [
        {
          "internalType": "address[]",
          "name": "addresses",
          "type": "address[]"
        }
      ],
      "name": "addToFreeMints",
      "outputs": [],
      "stateMutability": "nonpayable",
      "type": "function"
    },
    {
      "inputs": [
        {
          "internalType": "address[]",
          "name": "addresses",
          "type": "address[]"
        }
      ],
      "name": "removeFromFreeMints",
      "outputs": [],
      "stateMutability": "nonpayable",
      "type": "function"
    },
    {
      "inputs": [
        {
          "internalType": "address",
          "name": "sender",
          "type": "address"
        },
        {
          "internalType": "uint8",
          "name": "amount",
          "type": "uint8"
        },
        {
          "internalType": "uint256",
          "name": "msgValue",
          "type": "uint256"
        },
        {
          "internalType": "uint16",
          "name": "minted",
          "type": "uint16"
        },
        {
          "internalType": "uint256",
          "name": "maxTokens",
          "type": "uint256"
        },
        {
          "internalType": "uint256",
          "name": "gen0Tokens",
          "type": "uint256"
        }
      ],
      "name": "handle",
      "outputs": [
        {
          "internalType": "int8",
          "name": "boost",
          "type": "int8"
        }
      ],
      "stateMutability": "nonpayable",
      "type": "function"
    },
    {
      "inputs": [
        {
          "internalType": "uint256",
          "name": "tokenId",
          "type": "uint256"
        },
        {
          "internalType": "uint256",
          "name": "maxTokens",
          "type": "uint256"
        },
        {
          "internalType": "uint256",
          "name": "gen0Tokens",
          "type": "uint256"
        }
      ],
      "name": "mintCost",
      "outputs": [
        {
          "internalType": "uint256",
          "name": "",
          "type": "uint256"
        }
      ],
      "stateMutability": "view",
      "type": "function",
      "constant": true
    }
  ],
  "bytecode": "0x608060405234801561001057600080fd5b50612f8e806100206000396000f3fe608060405234801561001057600080fd5b50600436106101735760003560e01c806380e3f1ad116100de578063a88e099611610097578063c3a7cc5a11610071578063c3a7cc5a14610426578063c4d66de814610442578063dc30158b1461045e578063f2fde38b1461047c57610173565b8063a88e0996146103a8578063abc26c60146103c6578063c13aa7b5146103f657610173565b806380e3f1ad146102e85780638da5cb5b1461030457806392c405b6146103225780639b19251a1461033e578063a4e573301461036e578063a83a72021461038c57610173565b80636502672c116101305780636502672c146102265780636817c76c146102445780636d41d4fb14610262578063715018a6146102925780637a92e5511461029c5780637f649783146102cc57610173565b806303f7d3881461017857806328ca26cd14610196578063499009a4146101b45780634d3e873c146101d257806350fcfd39146101ee578063548db1741461020a575b600080fd5b610180610498565b60405161018d9190612025565b60405180910390f35b61019e61049e565b6040516101ab9190612025565b60405180910390f35b6101bc6104a4565b6040516101c9919061205c565b60405180910390f35b6101ec60048036038101906101e79190612275565b6104b7565b005b61020860048036038101906102039190612419565b610601565b005b610224600480360381019061021f9190612419565b610856565b005b61022e610aab565b60405161023b9190612025565b60405180910390f35b61024c610ab1565b6040516102599190612025565b60405180910390f35b61027c60048036038101906102779190612462565b610ab7565b604051610289919061249e565b60405180910390f35b61029a610ad7565b005b6102b660048036038101906102b191906124b9565b610b5f565b6040516102c39190612025565b60405180910390f35b6102e660048036038101906102e19190612419565b610c3b565b005b61030260048036038101906102fd9190612544565b610e90565b005b61030c610f29565b6040516103199190612580565b60405180910390f35b61033c60048036038101906103379190612419565b610f53565b005b61035860048036038101906103539190612462565b611064565b604051610365919061249e565b60405180910390f35b610376611084565b6040516103839190612025565b60405180910390f35b6103a660048036038101906103a19190612419565b61108a565b005b6103b061119b565b6040516103bd91906125aa565b60405180910390f35b6103e060048036038101906103db91906125ff565b6111ae565b6040516103ed919061205c565b60405180910390f35b610410600480360381019061040b9190612462565b6118c3565b60405161041d91906125aa565b60405180910390f35b610440600480360381019061043b9190612419565b611919565b005b61045c60048036038101906104579190612462565b611b6e565b005b610466611cb7565b604051610473919061249e565b60405180910390f35b61049660048036038101906104919190612462565b611cca565b005b606b5481565b60695481565b606760009054906101000a900460000b81565b6104bf611dc2565b73ffffffffffffffffffffffffffffffffffffffff166104dd610f29565b73ffffffffffffffffffffffffffffffffffffffff1614610533576040517f08c379a000000000000000000000000000000000000000000000000000000000815260040161052a906126e9565b60405180910390fd5b8360668190555082606760006101000a81548160ff021916908360000b60ff16021790555081606760016101000a81548160ff021916908360ff1602179055508060008151811061058757610586612709565b5b6020026020010151606881905550806001815181106105a9576105a8612709565b5b6020026020010151606981905550806002815181106105cb576105ca612709565b5b6020026020010151606a81905550806003815181106105ed576105ec612709565b5b6020026020010151606b8190555050505050565b610609611dc2565b73ffffffffffffffffffffffffffffffffffffffff16610627610f29565b73ffffffffffffffffffffffffffffffffffffffff161461067d576040517f08c379a0000000000000000000000000000000000000000000000000000000008152600401610674906126e9565b60405180910390fd5b60005b8151811015610852576000606d60008484815181106106a2576106a1612709565b5b602002602001015173ffffffffffffffffffffffffffffffffffffffff1673ffffffffffffffffffffffffffffffffffffffff16815260200190815260200160002060009054906101000a900460ff16905060648160ff1610610706576064610714565b6001816107139190612767565b5b606d600085858151811061072b5761072a612709565b5b602002602001015173ffffffffffffffffffffffffffffffffffffffff1673ffffffffffffffffffffffffffffffffffffffff16815260200190815260200160002060006101000a81548160ff021916908360ff1602179055507fea925f43ecd5282ea8fb307fee3f67644aaa3d20f1894d6a433db3e5d32556478383815181106107b9576107b8612709565b5b6020026020010151606d60008686815181106107d8576107d7612709565b5b602002602001015173ffffffffffffffffffffffffffffffffffffffff1673ffffffffffffffffffffffffffffffffffffffff16815260200190815260200160002060009054906101000a900460ff1660405161083692919061279e565b60405180910390a150808061084a906127c7565b915050610680565b5050565b61085e611dc2565b73ffffffffffffffffffffffffffffffffffffffff1661087c610f29565b73ffffffffffffffffffffffffffffffffffffffff16146108d2576040517f08c379a00000000000000000000000000000000000000000000000000000000081526004016108c9906126e9565b60405180910390fd5b60005b8151811015610aa7576000606c60008484815181106108f7576108f6612709565b5b602002602001015173ffffffffffffffffffffffffffffffffffffffff1673ffffffffffffffffffffffffffffffffffffffff16815260200190815260200160002060009054906101000a900460ff16905060018160ff161161095b576000610969565b6001816109689190612810565b5b606c60008585815181106109805761097f612709565b5b602002602001015173ffffffffffffffffffffffffffffffffffffffff1673ffffffffffffffffffffffffffffffffffffffff16815260200190815260200160002060006101000a81548160ff021916908360ff1602179055507fcdc5caa840688c7b2fdfb48b53223f1187b9ec9a1d99d69043af921a8a3d9692838381518110610a0e57610a0d612709565b5b6020026020010151606c6000868681518110610a2d57610a2c612709565b5b602002602001015173ffffffffffffffffffffffffffffffffffffffff1673ffffffffffffffffffffffffffffffffffffffff16815260200190815260200160002060009054906101000a900460ff16604051610a8b92919061279e565b60405180910390a1508080610a9f906127c7565b9150506108d5565b5050565b60685481565b60665481565b606d6020528060005260406000206000915054906101000a900460ff1681565b610adf611dc2565b73ffffffffffffffffffffffffffffffffffffffff16610afd610f29565b73ffffffffffffffffffffffffffffffffffffffff1614610b53576040517f08c379a0000000000000000000000000000000000000000000000000000000008152600401610b4a906126e9565b60405180910390fd5b610b5d6000611dca565b565b6000818411610b715760009050610c34565b81600460018486610b829190612844565b610b8c9190612878565b610b969190612901565b610ba09190612932565b8411610bb0576068549050610c34565b81600460028486610bc19190612844565b610bcb9190612878565b610bd59190612901565b610bdf9190612932565b8411610bef576069549050610c34565b81600460038486610c009190612844565b610c0a9190612878565b610c149190612901565b610c1e9190612932565b8411610c2e57606a549050610c34565b606b5490505b9392505050565b610c43611dc2565b73ffffffffffffffffffffffffffffffffffffffff16610c61610f29565b73ffffffffffffffffffffffffffffffffffffffff1614610cb7576040517f08c379a0000000000000000000000000000000000000000000000000000000008152600401610cae906126e9565b60405180910390fd5b60005b8151811015610e8c576000606c6000848481518110610cdc57610cdb612709565b5b602002602001015173ffffffffffffffffffffffffffffffffffffffff1673ffffffffffffffffffffffffffffffffffffffff16815260200190815260200160002060009054906101000a900460ff16905060648160ff1610610d40576064610d4e565b600181610d4d9190612767565b5b606c6000858581518110610d6557610d64612709565b5b602002602001015173ffffffffffffffffffffffffffffffffffffffff1673ffffffffffffffffffffffffffffffffffffffff16815260200190815260200160002060006101000a81548160ff021916908360ff1602179055507fcdc5caa840688c7b2fdfb48b53223f1187b9ec9a1d99d69043af921a8a3d9692838381518110610df357610df2612709565b5b6020026020010151606c6000868681518110610e1257610e11612709565b5b602002602001015173ffffffffffffffffffffffffffffffffffffffff1673ffffffffffffffffffffffffffffffffffffffff16815260200190815260200160002060009054906101000a900460ff16604051610e7092919061279e565b60405180910390a1508080610e84906127c7565b915050610cba565b5050565b610e98611dc2565b73ffffffffffffffffffffffffffffffffffffffff16610eb6610f29565b73ffffffffffffffffffffffffffffffffffffffff1614610f0c576040517f08c379a0000000000000000000000000000000000000000000000000000000008152600401610f03906126e9565b60405180910390fd5b80606e60006101000a81548160ff02191690831515021790555050565b6000603360009054906101000a900473ffffffffffffffffffffffffffffffffffffffff16905090565b610f5b611dc2565b73ffffffffffffffffffffffffffffffffffffffff16610f79610f29565b73ffffffffffffffffffffffffffffffffffffffff1614610fcf576040517f08c379a0000000000000000000000000000000000000000000000000000000008152600401610fc6906126e9565b60405180910390fd5b60005b815181101561106057600060656000848481518110610ff457610ff3612709565b5b602002602001015173ffffffffffffffffffffffffffffffffffffffff1673ffffffffffffffffffffffffffffffffffffffff16815260200190815260200160002060006101000a81548160ff0219169083151502179055508080611058906127c7565b915050610fd2565b5050565b606c6020528060005260406000206000915054906101000a900460ff1681565b606a5481565b611092611dc2565b73ffffffffffffffffffffffffffffffffffffffff166110b0610f29565b73ffffffffffffffffffffffffffffffffffffffff1614611106576040517f08c379a00000000000000000000000000000000000000000000000000000000081526004016110fd906126e9565b60405180910390fd5b60005b81518110156111975760016065600084848151811061112b5761112a612709565b5b602002602001015173ffffffffffffffffffffffffffffffffffffffff1673ffffffffffffffffffffffffffffffffffffffff16815260200190815260200160002060006101000a81548160ff021916908315150217905550808061118f906127c7565b915050611109565b5050565b606e60009054906101000a900460ff1681565b60006111b8611e90565b60008660ff161180156111e05750606760019054906101000a900460ff1660ff168660ff1611155b61121f576040517f08c379a0000000000000000000000000000000000000000000000000000000008152600401611216906129d4565b60405180910390fd5b828660ff168561122f91906129f4565b61ffff161115611274576040517f08c379a000000000000000000000000000000000000000000000000000000000815260040161126b90612a78565b60405180910390fd5b6000905060006066549050606e60009054906101000a900460ff1615611387578660ff16606d60008a73ffffffffffffffffffffffffffffffffffffffff1673ffffffffffffffffffffffffffffffffffffffff16815260200190815260200160002060009054906101000a900460ff1660ff1610158061134757508660ff16606c60008a73ffffffffffffffffffffffffffffffffffffffff1673ffffffffffffffffffffffffffffffffffffffff16815260200190815260200160002060009054906101000a900460ff1660ff1610155b611386576040517f08c379a000000000000000000000000000000000000000000000000000000000815260040161137d90612ae4565b60405180910390fd5b5b8660ff16606d60008a73ffffffffffffffffffffffffffffffffffffffff1673ffffffffffffffffffffffffffffffffffffffff16815260200190815260200160002060009054906101000a900460ff1660ff16106114e15786606d60008a73ffffffffffffffffffffffffffffffffffffffff1673ffffffffffffffffffffffffffffffffffffffff16815260200190815260200160002060008282829054906101000a900460ff1661143b9190612810565b92506101000a81548160ff021916908360ff1602179055507fea925f43ecd5282ea8fb307fee3f67644aaa3d20f1894d6a433db3e5d325564788606d60008b73ffffffffffffffffffffffffffffffffffffffff1673ffffffffffffffffffffffffffffffffffffffff16815260200190815260200160002060009054906101000a900460ff166040516114d092919061279e565b60405180910390a160009050611663565b8660ff16606c60008a73ffffffffffffffffffffffffffffffffffffffff1673ffffffffffffffffffffffffffffffffffffffff16815260200190815260200160002060009054906101000a900460ff1660ff16106116625786606c60008a73ffffffffffffffffffffffffffffffffffffffff1673ffffffffffffffffffffffffffffffffffffffff16815260200190815260200160002060008282829054906101000a900460ff166115959190612810565b92506101000a81548160ff021916908360ff1602179055507fcdc5caa840688c7b2fdfb48b53223f1187b9ec9a1d99d69043af921a8a3d969288606c60008b73ffffffffffffffffffffffffffffffffffffffff1673ffffffffffffffffffffffffffffffffffffffff16815260200190815260200160002060009054906101000a900460ff1660405161162a92919061279e565b60405180910390a16064605a6066546116439190612878565b61164d9190612901565b9050606760009054906101000a900460000b91505b5b6000838661ffff16101561171b57838860ff168761168191906129f4565b61ffff1611156116c6576040517f08c379a00000000000000000000000000000000000000000000000000000000081526004016116bd90612b76565b60405180910390fd5b86828960ff166116d69190612878565b14611716576040517f08c379a000000000000000000000000000000000000000000000000000000000815260040161170d90612be2565b60405180910390fd5b61181e565b6000871461175e576040517f08c379a000000000000000000000000000000000000000000000000000000000815260040161175590612c74565b60405180910390fd5b6000600190505b8860ff16811161181c573073ffffffffffffffffffffffffffffffffffffffff16637a92e551828961ffff1661179b9190612932565b88886040518463ffffffff1660e01b81526004016117bb93929190612c94565b602060405180830381865afa1580156117d8573d6000803e3d6000fd5b505050506040513d601f19601f820116820180604052508101906117fc9190612ce0565b826118079190612932565b91508080611814906127c7565b915050611765565b505b60008111156118b757606e60019054906101000a900473ffffffffffffffffffffffffffffffffffffffff1673ffffffffffffffffffffffffffffffffffffffff16639dc29fac8a836040518363ffffffff1660e01b8152600401611884929190612d0d565b600060405180830381600087803b15801561189e57600080fd5b505af11580156118b2573d6000803e3d6000fd5b505050505b50509695505050505050565b6000606560008373ffffffffffffffffffffffffffffffffffffffff1673ffffffffffffffffffffffffffffffffffffffff16815260200190815260200160002060009054906101000a900460ff169050919050565b611921611dc2565b73ffffffffffffffffffffffffffffffffffffffff1661193f610f29565b73ffffffffffffffffffffffffffffffffffffffff1614611995576040517f08c379a000000000000000000000000000000000000000000000000000000000815260040161198c906126e9565b60405180910390fd5b60005b8151811015611b6a576000606d60008484815181106119ba576119b9612709565b5b602002602001015173ffffffffffffffffffffffffffffffffffffffff1673ffffffffffffffffffffffffffffffffffffffff16815260200190815260200160002060009054906101000a900460ff16905060018160ff1611611a1e576000611a2c565b600181611a2b9190612810565b5b606d6000858581518110611a4357611a42612709565b5b602002602001015173ffffffffffffffffffffffffffffffffffffffff1673ffffffffffffffffffffffffffffffffffffffff16815260200190815260200160002060006101000a81548160ff021916908360ff1602179055507fea925f43ecd5282ea8fb307fee3f67644aaa3d20f1894d6a433db3e5d3255647838381518110611ad157611ad0612709565b5b6020026020010151606d6000868681518110611af057611aef612709565b5b602002602001015173ffffffffffffffffffffffffffffffffffffffff1673ffffffffffffffffffffffffffffffffffffffff16815260200190815260200160002060009054906101000a900460ff16604051611b4e92919061279e565b60405180910390a1508080611b62906127c7565b915050611998565b5050565b600060019054906101000a900460ff16611b965760008054906101000a900460ff1615611b9f565b611b9e611f1e565b5b611bde576040517f08c379a0000000000000000000000000000000000000000000000000000000008152600401611bd590612da8565b60405180910390fd5b60008060019054906101000a900460ff161590508015611c2e576001600060016101000a81548160ff02191690831515021790555060016000806101000a81548160ff0219169083151502179055505b611c36611f2f565b81606e60016101000a81548173ffffffffffffffffffffffffffffffffffffffff021916908373ffffffffffffffffffffffffffffffffffffffff1602179055506000606e60006101000a81548160ff0219169083151502179055508015611cb35760008060016101000a81548160ff0219169083151502179055505b5050565b606760019054906101000a900460ff1681565b611cd2611dc2565b73ffffffffffffffffffffffffffffffffffffffff16611cf0610f29565b73ffffffffffffffffffffffffffffffffffffffff1614611d46576040517f08c379a0000000000000000000000000000000000000000000000000000000008152600401611d3d906126e9565b60405180910390fd5b600073ffffffffffffffffffffffffffffffffffffffff168173ffffffffffffffffffffffffffffffffffffffff161415611db6576040517f08c379a0000000000000000000000000000000000000000000000000000000008152600401611dad90612e3a565b60405180910390fd5b611dbf81611dca565b50565b600033905090565b6000603360009054906101000a900473ffffffffffffffffffffffffffffffffffffffff16905081603360006101000a81548173ffffffffffffffffffffffffffffffffffffffff021916908373ffffffffffffffffffffffffffffffffffffffff1602179055508173ffffffffffffffffffffffffffffffffffffffff168173ffffffffffffffffffffffffffffffffffffffff167f8be0079c531659141344cd1fd0a4f28419497f9722a3daafe3b4186f6b6457e060405160405180910390a35050565b606560003373ffffffffffffffffffffffffffffffffffffffff1673ffffffffffffffffffffffffffffffffffffffff16815260200190815260200160002060009054906101000a900460ff16611f1c576040517f08c379a0000000000000000000000000000000000000000000000000000000008152600401611f1390612ea6565b60405180910390fd5b565b6000611f2930611f88565b15905090565b600060019054906101000a900460ff16611f7e576040517f08c379a0000000000000000000000000000000000000000000000000000000008152600401611f7590612f38565b60405180910390fd5b611f86611fab565b565b6000808273ffffffffffffffffffffffffffffffffffffffff163b119050919050565b600060019054906101000a900460ff16611ffa576040517f08c379a0000000000000000000000000000000000000000000000000000000008152600401611ff190612f38565b60405180910390fd5b61200a612005611dc2565b611dca565b565b6000819050919050565b61201f8161200c565b82525050565b600060208201905061203a6000830184612016565b92915050565b60008160000b9050919050565b61205681612040565b82525050565b6000602082019050612071600083018461204d565b92915050565b6000604051905090565b600080fd5b600080fd5b6120948161200c565b811461209f57600080fd5b50565b6000813590506120b18161208b565b92915050565b6120c081612040565b81146120cb57600080fd5b50565b6000813590506120dd816120b7565b92915050565b600060ff82169050919050565b6120f9816120e3565b811461210457600080fd5b50565b600081359050612116816120f0565b92915050565b600080fd5b6000601f19601f8301169050919050565b7f4e487b7100000000000000000000000000000000000000000000000000000000600052604160045260246000fd5b61216a82612121565b810181811067ffffffffffffffff8211171561218957612188612132565b5b80604052505050565b600061219c612077565b90506121a88282612161565b919050565b600067ffffffffffffffff8211156121c8576121c7612132565b5b602082029050602081019050919050565b600080fd5b60006121f16121ec846121ad565b612192565b90508083825260208201905060208402830185811115612214576122136121d9565b5b835b8181101561223d578061222988826120a2565b845260208401935050602081019050612216565b5050509392505050565b600082601f83011261225c5761225b61211c565b5b813561226c8482602086016121de565b91505092915050565b6000806000806080858703121561228f5761228e612081565b5b600061229d878288016120a2565b94505060206122ae878288016120ce565b93505060406122bf87828801612107565b925050606085013567ffffffffffffffff8111156122e0576122df612086565b5b6122ec87828801612247565b91505092959194509250565b600067ffffffffffffffff82111561231357612312612132565b5b602082029050602081019050919050565b600073ffffffffffffffffffffffffffffffffffffffff82169050919050565b600061234f82612324565b9050919050565b61235f81612344565b811461236a57600080fd5b50565b60008135905061237c81612356565b92915050565b6000612395612390846122f8565b612192565b905080838252602082019050602084028301858111156123b8576123b76121d9565b5b835b818110156123e157806123cd888261236d565b8452602084019350506020810190506123ba565b5050509392505050565b600082601f830112612400576123ff61211c565b5b8135612410848260208601612382565b91505092915050565b60006020828403121561242f5761242e612081565b5b600082013567ffffffffffffffff81111561244d5761244c612086565b5b612459848285016123eb565b91505092915050565b60006020828403121561247857612477612081565b5b60006124868482850161236d565b91505092915050565b612498816120e3565b82525050565b60006020820190506124b3600083018461248f565b92915050565b6000806000606084860312156124d2576124d1612081565b5b60006124e0868287016120a2565b93505060206124f1868287016120a2565b9250506040612502868287016120a2565b9150509250925092565b60008115159050919050565b6125218161250c565b811461252c57600080fd5b50565b60008135905061253e81612518565b92915050565b60006020828403121561255a57612559612081565b5b60006125688482850161252f565b91505092915050565b61257a81612344565b82525050565b60006020820190506125956000830184612571565b92915050565b6125a48161250c565b82525050565b60006020820190506125bf600083018461259b565b92915050565b600061ffff82169050919050565b6125dc816125c5565b81146125e757600080fd5b50565b6000813590506125f9816125d3565b92915050565b60008060008060008060c0878903121561261c5761261b612081565b5b600061262a89828a0161236d565b965050602061263b89828a01612107565b955050604061264c89828a016120a2565b945050606061265d89828a016125ea565b935050608061266e89828a016120a2565b92505060a061267f89828a016120a2565b9150509295509295509295565b600082825260208201905092915050565b7f4f776e61626c653a2063616c6c6572206973206e6f7420746865206f776e6572600082015250565b60006126d360208361268c565b91506126de8261269d565b602082019050919050565b60006020820190508181036000830152612702816126c6565b9050919050565b7f4e487b7100000000000000000000000000000000000000000000000000000000600052603260045260246000fd5b7f4e487b7100000000000000000000000000000000000000000000000000000000600052601160045260246000fd5b6000612772826120e3565b915061277d836120e3565b92508260ff0382111561279357612792612738565b5b828201905092915050565b60006040820190506127b36000830185612571565b6127c0602083018461248f565b9392505050565b60006127d28261200c565b91507fffffffffffffffffffffffffffffffffffffffffffffffffffffffffffffffff82141561280557612804612738565b5b600182019050919050565b600061281b826120e3565b9150612826836120e3565b92508282101561283957612838612738565b5b828203905092915050565b600061284f8261200c565b915061285a8361200c565b92508282101561286d5761286c612738565b5b828203905092915050565b60006128838261200c565b915061288e8361200c565b9250817fffffffffffffffffffffffffffffffffffffffffffffffffffffffffffffffff04831182151516156128c7576128c6612738565b5b828202905092915050565b7f4e487b7100000000000000000000000000000000000000000000000000000000600052601260045260246000fd5b600061290c8261200c565b91506129178361200c565b925082612927576129266128d2565b5b828204905092915050565b600061293d8261200c565b91506129488361200c565b9250827fffffffffffffffffffffffffffffffffffffffffffffffffffffffffffffffff0382111561297d5761297c612738565b5b828201905092915050565b7f496e76616c6964206d696e7420616d6f756e7400000000000000000000000000600082015250565b60006129be60138361268c565b91506129c982612988565b602082019050919050565b600060208201905081810360008301526129ed816129b1565b9050919050565b60006129ff826125c5565b9150612a0a836125c5565b92508261ffff03821115612a2157612a20612738565b5b828201905092915050565b7f416c6c20746f6b656e73206d696e746564000000000000000000000000000000600082015250565b6000612a6260118361268c565b9150612a6d82612a2c565b602082019050919050565b60006020820190508181036000830152612a9181612a55565b9050919050565b7f4e6f742077686974656c69737465640000000000000000000000000000000000600082015250565b6000612ace600f8361268c565b9150612ad982612a98565b602082019050919050565b60006020820190508181036000830152612afd81612ac1565b9050919050565b7f4e6f7420656e6f7567682047656e203020746f6b656e73206c6566742c20726560008201527f6475636520616d6f756e74000000000000000000000000000000000000000000602082015250565b6000612b60602b8361268c565b9150612b6b82612b04565b604082019050919050565b60006020820190508181036000830152612b8f81612b53565b9050919050565b7f496e76616c6964207061796d656e7420616d6f756e7400000000000000000000600082015250565b6000612bcc60168361268c565b9150612bd782612b96565b602082019050919050565b60006020820190508181036000830152612bfb81612bbf565b9050919050565b7f496e76616c6964207061796d656e7420747970652c20616363657074696e672060008201527f666f6f6420746f6b656e73206f6e6c7900000000000000000000000000000000602082015250565b6000612c5e60308361268c565b9150612c6982612c02565b604082019050919050565b60006020820190508181036000830152612c8d81612c51565b9050919050565b6000606082019050612ca96000830186612016565b612cb66020830185612016565b612cc36040830184612016565b949350505050565b600081519050612cda8161208b565b92915050565b600060208284031215612cf657612cf5612081565b5b6000612d0484828501612ccb565b91505092915050565b6000604082019050612d226000830185612571565b612d2f6020830184612016565b9392505050565b7f496e697469616c697a61626c653a20636f6e747261637420697320616c72656160008201527f647920696e697469616c697a6564000000000000000000000000000000000000602082015250565b6000612d92602e8361268c565b9150612d9d82612d36565b604082019050919050565b60006020820190508181036000830152612dc181612d85565b9050919050565b7f4f776e61626c653a206e6577206f776e657220697320746865207a65726f206160008201527f6464726573730000000000000000000000000000000000000000000000000000602082015250565b6000612e2460268361268c565b9150612e2f82612dc8565b604082019050919050565b60006020820190508181036000830152612e5381612e17565b9050919050565b7f4f6e6c7920636f6e74726f6c6c6572732063616e206578656375746500000000600082015250565b6000612e90601c8361268c565b9150612e9b82612e5a565b602082019050919050565b60006020820190508181036000830152612ebf81612e83565b9050919050565b7f496e697469616c697a61626c653a20636f6e7472616374206973206e6f74206960008201527f6e697469616c697a696e67000000000000000000000000000000000000000000602082015250565b6000612f22602b8361268c565b9150612f2d82612ec6565b604082019050919050565b60006020820190508181036000830152612f5181612f15565b905091905056fea2646970667358221220120461705f1eefa8201fb7f94308634b78e058a9a8273ad4c4446fff78f000d864736f6c634300080a0033",
  "immutableReferences": {},
  "source": "// SPDX-License-Identifier: MIT\n\npragma solidity ^0.8.0;\n\nimport \"@openzeppelin/contracts-upgradeable/proxy/utils/Initializable.sol\";\nimport \"./ControllableUpgradeable.sol\";\nimport \"./FastFood.sol\";\n\ncontract Paywall is Initializable, OwnableUpgradeable, ControllableUpgradeable {\n  uint256 public mintPrice;\n  int8 public whitelistBoost;\n  uint8 public maxMintsPerTx; // Maximum number of tokens that can be minted in a single tx\n  uint256 public gen1PriceTier0;\n  uint256 public gen1PriceTier1;\n  uint256 public gen1PriceTier2;\n  uint256 public gen1PriceTier3;\n  mapping(address => uint8) public whitelist; // Mapping from address to a number of remaining whitelist spots\n  mapping(address => uint8) public freeMints; // Mapping from address to a number of remaining free mint spots\n  bool public onlyWhitelist; // Whether minting is only open for whitelisted addresses\n\n  FastFood fastFood; // Reference to the $FFOOD contract\n\n  event UpdateWhitelist(address account, uint8 amount);\n  event UpdateFreeMints(address account, uint8 amount);\n\n  function initialize(address _fastFood) external initializer {\n    __Ownable_init();\n\n    fastFood = FastFood(_fastFood);\n    onlyWhitelist = false;\n  }\n\n  /**\n   * Allows DAO to update game parameters\n   */\n  function configure(uint256 _mintPrice, int8 _whitelistBoost, uint8 _maxMintsPerTx, uint256[] memory _gen1Prices) external onlyOwner {\n    mintPrice = _mintPrice;\n    whitelistBoost = _whitelistBoost;\n    maxMintsPerTx = _maxMintsPerTx;\n    gen1PriceTier0 = _gen1Prices[0];\n    gen1PriceTier1 = _gen1Prices[1];\n    gen1PriceTier2 = _gen1Prices[2];\n    gen1PriceTier3 = _gen1Prices[3];\n  }\n\n  /**\n   * Toggles the whitelist on and off\n   * @param _enable - true enables it\n   */\n  function toggleWhitelist(bool _enable) external onlyOwner {\n    onlyWhitelist = _enable;\n  }\n\n  /**\n   * Adds a list of addresses to the whitelist\n   * @param addresses - An array of addresses to add\n   */\n  function addToWhitelist(address[] memory addresses) external onlyOwner {\n    for (uint i = 0; i < addresses.length; i++) {\n      uint8 amount = whitelist[addresses[i]];\n      whitelist[addresses[i]] = amount < 100 ? amount + 1 : 100;\n      emit UpdateWhitelist(addresses[i], whitelist[addresses[i]]);\n    }\n  }\n\n  /**\n   * Removes a list of addresses from the whitelist\n   * @param addresses - An array of addresses to remove\n   */\n  function removeFromWhitelist(address[] memory addresses) external onlyOwner {\n    for (uint i = 0; i < addresses.length; i++) {\n      uint8 amount = whitelist[addresses[i]];\n      whitelist[addresses[i]] = amount > 1 ? amount - 1 : 0;\n      emit UpdateWhitelist(addresses[i], whitelist[addresses[i]]);\n    }\n  }\n\n  /**\n   * Adds a list of addresses to the free mints\n   * @param addresses - An array of addresses to add\n   */\n  function addToFreeMints(address[] memory addresses) external onlyOwner {\n    for (uint i = 0; i < addresses.length; i++) {\n      uint8 amount = freeMints[addresses[i]];\n      freeMints[addresses[i]] = amount < 100 ? amount + 1 : 100;\n      emit UpdateFreeMints(addresses[i], freeMints[addresses[i]]);\n    }\n  }\n\n  /**\n   * Removes a list of addresses from the free mints\n   * @param addresses - An array of addresses to remove\n   */\n  function removeFromFreeMints(address[] memory addresses) external onlyOwner {\n    for (uint i = 0; i < addresses.length; i++) {\n      uint8 amount = freeMints[addresses[i]];\n      freeMints[addresses[i]] = amount > 1 ? amount - 1 : 0;\n      emit UpdateFreeMints(addresses[i], freeMints[addresses[i]]);\n    }\n  }\n\n  /**\n   * ChainLink VRF request: Mints a new ERC721 token: 90% chefs, 10% rats\n   * The first 20% are free to claim, the remaining cost $FFOOD\n   * @param sender - User wallet address\n   * @param amount - Number of tokens to mint\n   * @param msgValue - Value sent with the transaction\n   * @param minted - Number of total tokens minted\n   * @param maxTokens - Max number of tokens that can be minted\n   * @param gen0Tokens - Number of tokens that can be claimed for free\n   * @return boost - Boost percentage if the token was minted using a whitelist spot\n   */\n  function handle(address sender, uint8 amount, uint256 msgValue, uint16 minted, uint256 maxTokens, uint256 gen0Tokens) external onlyController returns (int8 boost) {\n    require(amount > 0 && amount <= maxMintsPerTx, \"Invalid mint amount\");\n    require(minted + amount <= maxTokens, \"All tokens minted\");\n    boost = 0;\n    uint256 txMintPrice = mintPrice;\n    if (onlyWhitelist) {\n      require(freeMints[sender] >= amount || whitelist[sender] >= amount, \"Not whitelisted\");\n    }\n    if (freeMints[sender] >= amount) {\n      freeMints[sender] -= amount;\n      emit UpdateFreeMints(sender, freeMints[sender]);\n      txMintPrice = 0;\n    } else if (whitelist[sender] >= amount) {\n      whitelist[sender] -= amount;\n      emit UpdateWhitelist(sender, whitelist[sender]);\n      txMintPrice = mintPrice * 90 / 100;\n      boost = whitelistBoost;\n    }\n    uint256 totalCost = 0;\n    if (minted < gen0Tokens) {\n      require(minted + amount <= gen0Tokens, \"Not enough Gen 0 tokens left, reduce amount\");\n      require(amount * txMintPrice == msgValue, \"Invalid payment amount\");\n    } else {\n      require(msgValue == 0, \"Invalid payment type, accepting food tokens only\");\n      for (uint i = 1; i <= amount; i++) {\n        totalCost += this.mintCost(minted + i, maxTokens, gen0Tokens);\n      }\n    }\n    if (totalCost > 0) fastFood.burn(sender, totalCost);\n  }\n\n  /**\n   * Returns the latest mint price for the given token using 5 price breaks\n   * @param tokenId - The token ID to check\n   * @param maxTokens - The total supply of tokens\n   * @param gen0Tokens - The supply of Gen0 tokens\n   * @return The minting cost of the given ID\n   */\n  function mintCost(uint256 tokenId, uint256 maxTokens, uint256 gen0Tokens) external view returns (uint256) {\n    if (tokenId <= gen0Tokens) return 0;\n    if (tokenId <= (maxTokens - gen0Tokens) * 1 / 4 + gen0Tokens) return gen1PriceTier0;\n    if (tokenId <= (maxTokens - gen0Tokens) * 2 / 4 + gen0Tokens) return gen1PriceTier1;\n    if (tokenId <= (maxTokens - gen0Tokens) * 3 / 4 + gen0Tokens) return gen1PriceTier2;\n    return gen1PriceTier3;\n  }\n}\n",
  "sourcePath": "/Users/chris/workspace/ratalert/ratalert-contracts/contracts/Paywall.sol",
  "compiler": {
    "name": "solc",
    "version": "0.8.10+commit.fc410830.Emscripten.clang"
  },
  "schemaVersion": "3.4.7",
  "updatedAt": "2022-04-28T12:54:44.867Z",
  "networkType": "ethereum",
  "devdoc": {
    "kind": "dev",
    "methods": {
      "addController(address[])": {
        "params": {
          "_controllers": "- The addresses to enable"
        }
      },
      "addToFreeMints(address[])": {
        "params": {
          "addresses": "- An array of addresses to add"
        }
      },
      "addToWhitelist(address[])": {
        "params": {
          "addresses": "- An array of addresses to add"
        }
      },
      "controller(address)": {
        "params": {
          "_controller": "- The address to check"
        }
      },
      "handle(address,uint8,uint256,uint16,uint256,uint256)": {
        "params": {
          "amount": "- Number of tokens to mint",
          "gen0Tokens": "- Number of tokens that can be claimed for free",
          "maxTokens": "- Max number of tokens that can be minted",
          "minted": "- Number of total tokens minted",
          "msgValue": "- Value sent with the transaction",
          "sender": "- User wallet address"
        },
        "returns": {
          "boost": "- Boost percentage if the token was minted using a whitelist spot"
        }
      },
      "mintCost(uint256,uint256,uint256)": {
        "params": {
          "gen0Tokens": "- The supply of Gen0 tokens",
          "maxTokens": "- The total supply of tokens",
          "tokenId": "- The token ID to check"
        },
        "returns": {
          "_0": "The minting cost of the given ID"
        }
      },
      "owner()": {
        "details": "Returns the address of the current owner."
      },
      "removeController(address[])": {
        "params": {
          "_controllers": "- The addresses to disable"
        }
      },
      "removeFromFreeMints(address[])": {
        "params": {
          "addresses": "- An array of addresses to remove"
        }
      },
      "removeFromWhitelist(address[])": {
        "params": {
          "addresses": "- An array of addresses to remove"
        }
      },
      "renounceOwnership()": {
        "details": "Leaves the contract without owner. It will not be possible to call `onlyOwner` functions anymore. Can only be called by the current owner. NOTE: Renouncing ownership will leave the contract without an owner, thereby removing any functionality that is only available to the owner."
      },
      "toggleWhitelist(bool)": {
        "params": {
          "_enable": "- true enables it"
        }
      },
      "transferOwnership(address)": {
        "details": "Transfers ownership of the contract to a new account (`newOwner`). Can only be called by the current owner."
      }
    },
    "version": 1
  },
  "userdoc": {
    "kind": "user",
    "methods": {
      "addController(address[])": {
        "notice": "Enables multiple addresses to execute"
      },
      "addToFreeMints(address[])": {
        "notice": "Adds a list of addresses to the free mints"
      },
      "addToWhitelist(address[])": {
        "notice": "Adds a list of addresses to the whitelist"
      },
      "configure(uint256,int8,uint8,uint256[])": {
        "notice": "Allows DAO to update game parameters"
      },
      "controller(address)": {
        "notice": "Gets controller status by address"
      },
      "handle(address,uint8,uint256,uint16,uint256,uint256)": {
        "notice": "ChainLink VRF request: Mints a new ERC721 token: 90% chefs, 10% rats The first 20% are free to claim, the remaining cost $FFOOD"
      },
      "mintCost(uint256,uint256,uint256)": {
        "notice": "Returns the latest mint price for the given token using 5 price breaks"
      },
      "removeController(address[])": {
        "notice": "Prevents multiple addresses from executing"
      },
      "removeFromFreeMints(address[])": {
        "notice": "Removes a list of addresses from the free mints"
      },
      "removeFromWhitelist(address[])": {
        "notice": "Removes a list of addresses from the whitelist"
      },
      "toggleWhitelist(bool)": {
        "notice": "Toggles the whitelist on and off"
      }
    },
    "version": 1
  }
}