{
  "contractName": "Paywall",
  "abi": [
    {
      "anonymous": false,
      "inputs": [
        {
          "indexed": true,
          "internalType": "address",
          "name": "previousOwner",
          "type": "address"
        },
        {
          "indexed": true,
          "internalType": "address",
          "name": "newOwner",
          "type": "address"
        }
      ],
      "name": "OwnershipTransferred",
      "type": "event"
    },
    {
      "anonymous": false,
      "inputs": [
        {
          "indexed": false,
          "internalType": "address",
          "name": "account",
          "type": "address"
        },
        {
          "indexed": false,
          "internalType": "uint8",
          "name": "amount",
          "type": "uint8"
        }
      ],
      "name": "UpdateFreeMints",
      "type": "event"
    },
    {
      "anonymous": false,
      "inputs": [
        {
          "indexed": false,
          "internalType": "address",
          "name": "account",
          "type": "address"
        },
        {
          "indexed": false,
          "internalType": "uint8",
          "name": "amount",
          "type": "uint8"
        }
      ],
      "name": "UpdateWhitelist",
      "type": "event"
    },
    {
      "inputs": [
        {
          "internalType": "address[]",
          "name": "_controllers",
          "type": "address[]"
        }
      ],
      "name": "addController",
      "outputs": [],
      "stateMutability": "nonpayable",
      "type": "function"
    },
    {
      "inputs": [
        {
          "internalType": "address",
          "name": "_controller",
          "type": "address"
        }
      ],
      "name": "controller",
      "outputs": [
        {
          "internalType": "bool",
          "name": "",
          "type": "bool"
        }
      ],
      "stateMutability": "view",
      "type": "function"
    },
    {
      "inputs": [
        {
          "internalType": "address",
          "name": "",
          "type": "address"
        }
      ],
      "name": "freeMints",
      "outputs": [
        {
          "internalType": "uint8",
          "name": "",
          "type": "uint8"
        }
      ],
      "stateMutability": "view",
      "type": "function"
    },
    {
      "inputs": [],
      "name": "gen1PriceTier0",
      "outputs": [
        {
          "internalType": "uint256",
          "name": "",
          "type": "uint256"
        }
      ],
      "stateMutability": "view",
      "type": "function"
    },
    {
      "inputs": [],
      "name": "gen1PriceTier1",
      "outputs": [
        {
          "internalType": "uint256",
          "name": "",
          "type": "uint256"
        }
      ],
      "stateMutability": "view",
      "type": "function"
    },
    {
      "inputs": [],
      "name": "gen1PriceTier2",
      "outputs": [
        {
          "internalType": "uint256",
          "name": "",
          "type": "uint256"
        }
      ],
      "stateMutability": "view",
      "type": "function"
    },
    {
      "inputs": [],
      "name": "gen1PriceTier3",
      "outputs": [
        {
          "internalType": "uint256",
          "name": "",
          "type": "uint256"
        }
      ],
      "stateMutability": "view",
      "type": "function"
    },
    {
      "inputs": [],
      "name": "maxMintsPerTx",
      "outputs": [
        {
          "internalType": "uint8",
          "name": "",
          "type": "uint8"
        }
      ],
      "stateMutability": "view",
      "type": "function"
    },
    {
      "inputs": [],
      "name": "mintPrice",
      "outputs": [
        {
          "internalType": "uint256",
          "name": "",
          "type": "uint256"
        }
      ],
      "stateMutability": "view",
      "type": "function"
    },
    {
      "inputs": [],
      "name": "onlyWhitelist",
      "outputs": [
        {
          "internalType": "bool",
          "name": "",
          "type": "bool"
        }
      ],
      "stateMutability": "view",
      "type": "function"
    },
    {
      "inputs": [],
      "name": "owner",
      "outputs": [
        {
          "internalType": "address",
          "name": "",
          "type": "address"
        }
      ],
      "stateMutability": "view",
      "type": "function"
    },
    {
      "inputs": [
        {
          "internalType": "address[]",
          "name": "_controllers",
          "type": "address[]"
        }
      ],
      "name": "removeController",
      "outputs": [],
      "stateMutability": "nonpayable",
      "type": "function"
    },
    {
      "inputs": [],
      "name": "renounceOwnership",
      "outputs": [],
      "stateMutability": "nonpayable",
      "type": "function"
    },
    {
      "inputs": [
        {
          "internalType": "address",
          "name": "_dao",
          "type": "address"
        }
      ],
      "name": "setDao",
      "outputs": [],
      "stateMutability": "nonpayable",
      "type": "function"
    },
    {
      "inputs": [
        {
          "internalType": "address",
          "name": "newOwner",
          "type": "address"
        }
      ],
      "name": "transferOwnership",
      "outputs": [],
      "stateMutability": "nonpayable",
      "type": "function"
    },
    {
      "inputs": [
        {
          "internalType": "address",
          "name": "",
          "type": "address"
        }
      ],
      "name": "whitelist",
      "outputs": [
        {
          "internalType": "uint8",
          "name": "",
          "type": "uint8"
        }
      ],
      "stateMutability": "view",
      "type": "function"
    },
    {
      "inputs": [],
      "name": "whitelistBoost",
      "outputs": [
        {
          "internalType": "int8",
          "name": "",
          "type": "int8"
        }
      ],
      "stateMutability": "view",
      "type": "function"
    },
    {
      "inputs": [
        {
          "internalType": "address",
          "name": "_fastFood",
          "type": "address"
        }
      ],
      "name": "initialize",
      "outputs": [],
      "stateMutability": "nonpayable",
      "type": "function"
    },
    {
      "inputs": [
        {
          "internalType": "uint256",
          "name": "_mintPrice",
          "type": "uint256"
        },
        {
          "internalType": "int8",
          "name": "_whitelistBoost",
          "type": "int8"
        },
        {
          "internalType": "uint8",
          "name": "_maxMintsPerTx",
          "type": "uint8"
        },
        {
          "internalType": "uint256[]",
          "name": "_gen1Prices",
          "type": "uint256[]"
        }
      ],
      "name": "configure",
      "outputs": [],
      "stateMutability": "nonpayable",
      "type": "function"
    },
    {
      "inputs": [
        {
          "internalType": "bool",
          "name": "_enable",
          "type": "bool"
        }
      ],
      "name": "toggleWhitelist",
      "outputs": [],
      "stateMutability": "nonpayable",
      "type": "function"
    },
    {
      "inputs": [
        {
          "internalType": "address[]",
          "name": "addresses",
          "type": "address[]"
        }
      ],
      "name": "addToWhitelist",
      "outputs": [],
      "stateMutability": "nonpayable",
      "type": "function"
    },
    {
      "inputs": [
        {
          "internalType": "address[]",
          "name": "addresses",
          "type": "address[]"
        }
      ],
      "name": "removeFromWhitelist",
      "outputs": [],
      "stateMutability": "nonpayable",
      "type": "function"
    },
    {
      "inputs": [
        {
          "internalType": "address[]",
          "name": "addresses",
          "type": "address[]"
        }
      ],
      "name": "addToFreeMints",
      "outputs": [],
      "stateMutability": "nonpayable",
      "type": "function"
    },
    {
      "inputs": [
        {
          "internalType": "address[]",
          "name": "addresses",
          "type": "address[]"
        }
      ],
      "name": "removeFromFreeMints",
      "outputs": [],
      "stateMutability": "nonpayable",
      "type": "function"
    },
    {
      "inputs": [
        {
          "internalType": "address",
          "name": "sender",
          "type": "address"
        },
        {
          "internalType": "uint8",
          "name": "amount",
          "type": "uint8"
        },
        {
          "internalType": "uint256",
          "name": "msgValue",
          "type": "uint256"
        },
        {
          "internalType": "uint16",
          "name": "minted",
          "type": "uint16"
        },
        {
          "internalType": "uint256",
          "name": "maxTokens",
          "type": "uint256"
        },
        {
          "internalType": "uint256",
          "name": "gen0Tokens",
          "type": "uint256"
        }
      ],
      "name": "handle",
      "outputs": [
        {
          "internalType": "int8",
          "name": "boost",
          "type": "int8"
        }
      ],
      "stateMutability": "nonpayable",
      "type": "function"
    },
    {
      "inputs": [
        {
          "internalType": "uint256",
          "name": "tokenId",
          "type": "uint256"
        },
        {
          "internalType": "uint256",
          "name": "maxTokens",
          "type": "uint256"
        },
        {
          "internalType": "uint256",
          "name": "gen0Tokens",
          "type": "uint256"
        }
      ],
      "name": "mintCost",
      "outputs": [
        {
          "internalType": "uint256",
          "name": "",
          "type": "uint256"
        }
      ],
      "stateMutability": "view",
      "type": "function"
    }
  ],
  "bytecode": "0x608060405234801561001057600080fd5b50612f3f806100206000396000f3fe608060405234801561001057600080fd5b506004361061018e5760003560e01c806380e3f1ad116100de578063a88e099611610097578063c3a7cc5a11610071578063c3a7cc5a1461045d578063c4d66de814610479578063dc30158b14610495578063f2fde38b146104b35761018e565b8063a88e0996146103df578063abc26c60146103fd578063c13aa7b51461042d5761018e565b806380e3f1ad1461031f5780638da5cb5b1461033b57806392c405b6146103595780639b19251a14610375578063a4e57330146103a5578063a83a7202146103c35761018e565b80636502672c1161014b5780636d41d4fb116101255780636d41d4fb14610299578063715018a6146102c95780637a92e551146102d35780637f649783146103035761018e565b80636502672c146102415780636637b8821461025f5780636817c76c1461027b5761018e565b806303f7d3881461019357806328ca26cd146101b1578063499009a4146101cf5780634d3e873c146101ed57806350fcfd3914610209578063548db17414610225575b600080fd5b61019b6104cf565b6040516101a89190611f6a565b60405180910390f35b6101b96104d5565b6040516101c69190611f6a565b60405180910390f35b6101d76104db565b6040516101e49190611fa1565b60405180910390f35b610207600480360381019061020291906121ba565b6104ee565b005b610223600480360381019061021e919061235e565b610638565b005b61023f600480360381019061023a919061235e565b610819565b005b6102496109fa565b6040516102569190611f6a565b60405180910390f35b610279600480360381019061027491906123a7565b610a00565b005b610283610ac0565b6040516102909190611f6a565b60405180910390f35b6102b360048036038101906102ae91906123a7565b610ac6565b6040516102c091906123e3565b60405180910390f35b6102d1610ae6565b005b6102ed60048036038101906102e891906123fe565b610b6e565b6040516102fa9190611f6a565b60405180910390f35b61031d6004803603810190610318919061235e565b610c4a565b005b61033960048036038101906103349190612489565b610e2b565b005b610343610e50565b60405161035091906124c5565b60405180910390f35b610373600480360381019061036e919061235e565b610e7a565b005b61038f600480360381019061038a91906123a7565b610f8b565b60405161039c91906123e3565b60405180910390f35b6103ad610fab565b6040516103ba9190611f6a565b60405180910390f35b6103dd60048036038101906103d8919061235e565b610fb1565b005b6103e76110c2565b6040516103f491906124ef565b60405180910390f35b61041760048036038101906104129190612544565b6110d5565b6040516104249190611fa1565b60405180910390f35b610447600480360381019061044291906123a7565b6117ea565b60405161045491906124ef565b60405180910390f35b6104776004803603810190610472919061235e565b611840565b005b610493600480360381019061048e91906123a7565b611a21565b005b61049d611b6a565b6040516104aa91906123e3565b60405180910390f35b6104cd60048036038101906104c891906123a7565b611b7d565b005b606c5481565b606a5481565b606860009054906101000a900460000b81565b6104f6611c75565b73ffffffffffffffffffffffffffffffffffffffff16610514610e50565b73ffffffffffffffffffffffffffffffffffffffff161461056a576040517f08c379a00000000000000000000000000000000000000000000000000000000081526004016105619061262e565b60405180910390fd5b8360678190555082606860006101000a81548160ff021916908360000b60ff16021790555081606860016101000a81548160ff021916908360ff160217905550806000815181106105be576105bd61264e565b5b6020026020010151606981905550806001815181106105e0576105df61264e565b5b6020026020010151606a81905550806002815181106106025761060161264e565b5b6020026020010151606b81905550806003815181106106245761062361264e565b5b6020026020010151606c8190555050505050565b610640611c7d565b60005b8151811015610815576000606e60008484815181106106655761066461264e565b5b602002602001015173ffffffffffffffffffffffffffffffffffffffff1673ffffffffffffffffffffffffffffffffffffffff16815260200190815260200160002060009054906101000a900460ff16905060648160ff16106106c95760646106d7565b6001816106d691906126ac565b5b606e60008585815181106106ee576106ed61264e565b5b602002602001015173ffffffffffffffffffffffffffffffffffffffff1673ffffffffffffffffffffffffffffffffffffffff16815260200190815260200160002060006101000a81548160ff021916908360ff1602179055507fea925f43ecd5282ea8fb307fee3f67644aaa3d20f1894d6a433db3e5d325564783838151811061077c5761077b61264e565b5b6020026020010151606e600086868151811061079b5761079a61264e565b5b602002602001015173ffffffffffffffffffffffffffffffffffffffff1673ffffffffffffffffffffffffffffffffffffffff16815260200190815260200160002060009054906101000a900460ff166040516107f99291906126e3565b60405180910390a150808061080d9061270c565b915050610643565b5050565b610821611c7d565b60005b81518110156109f6576000606d60008484815181106108465761084561264e565b5b602002602001015173ffffffffffffffffffffffffffffffffffffffff1673ffffffffffffffffffffffffffffffffffffffff16815260200190815260200160002060009054906101000a900460ff16905060018160ff16116108aa5760006108b8565b6001816108b79190612755565b5b606d60008585815181106108cf576108ce61264e565b5b602002602001015173ffffffffffffffffffffffffffffffffffffffff1673ffffffffffffffffffffffffffffffffffffffff16815260200190815260200160002060006101000a81548160ff021916908360ff1602179055507fcdc5caa840688c7b2fdfb48b53223f1187b9ec9a1d99d69043af921a8a3d969283838151811061095d5761095c61264e565b5b6020026020010151606d600086868151811061097c5761097b61264e565b5b602002602001015173ffffffffffffffffffffffffffffffffffffffff1673ffffffffffffffffffffffffffffffffffffffff16815260200190815260200160002060009054906101000a900460ff166040516109da9291906126e3565b60405180910390a15080806109ee9061270c565b915050610824565b5050565b60695481565b610a08611c75565b73ffffffffffffffffffffffffffffffffffffffff16610a26610e50565b73ffffffffffffffffffffffffffffffffffffffff1614610a7c576040517f08c379a0000000000000000000000000000000000000000000000000000000008152600401610a739061262e565b60405180910390fd5b80606660006101000a81548173ffffffffffffffffffffffffffffffffffffffff021916908373ffffffffffffffffffffffffffffffffffffffff16021790555050565b60675481565b606e6020528060005260406000206000915054906101000a900460ff1681565b610aee611c75565b73ffffffffffffffffffffffffffffffffffffffff16610b0c610e50565b73ffffffffffffffffffffffffffffffffffffffff1614610b62576040517f08c379a0000000000000000000000000000000000000000000000000000000008152600401610b599061262e565b60405180910390fd5b610b6c6000611d0f565b565b6000818411610b805760009050610c43565b81600460018486610b919190612789565b610b9b91906127bd565b610ba59190612846565b610baf9190612877565b8411610bbf576069549050610c43565b81600460028486610bd09190612789565b610bda91906127bd565b610be49190612846565b610bee9190612877565b8411610bfe57606a549050610c43565b81600460038486610c0f9190612789565b610c1991906127bd565b610c239190612846565b610c2d9190612877565b8411610c3d57606b549050610c43565b606c5490505b9392505050565b610c52611c7d565b60005b8151811015610e27576000606d6000848481518110610c7757610c7661264e565b5b602002602001015173ffffffffffffffffffffffffffffffffffffffff1673ffffffffffffffffffffffffffffffffffffffff16815260200190815260200160002060009054906101000a900460ff16905060648160ff1610610cdb576064610ce9565b600181610ce891906126ac565b5b606d6000858581518110610d0057610cff61264e565b5b602002602001015173ffffffffffffffffffffffffffffffffffffffff1673ffffffffffffffffffffffffffffffffffffffff16815260200190815260200160002060006101000a81548160ff021916908360ff1602179055507fcdc5caa840688c7b2fdfb48b53223f1187b9ec9a1d99d69043af921a8a3d9692838381518110610d8e57610d8d61264e565b5b6020026020010151606d6000868681518110610dad57610dac61264e565b5b602002602001015173ffffffffffffffffffffffffffffffffffffffff1673ffffffffffffffffffffffffffffffffffffffff16815260200190815260200160002060009054906101000a900460ff16604051610e0b9291906126e3565b60405180910390a1508080610e1f9061270c565b915050610c55565b5050565b610e33611c7d565b80606f60006101000a81548160ff02191690831515021790555050565b6000603360009054906101000a900473ffffffffffffffffffffffffffffffffffffffff16905090565b610e82611c75565b73ffffffffffffffffffffffffffffffffffffffff16610ea0610e50565b73ffffffffffffffffffffffffffffffffffffffff1614610ef6576040517f08c379a0000000000000000000000000000000000000000000000000000000008152600401610eed9061262e565b60405180910390fd5b60005b8151811015610f8757600060656000848481518110610f1b57610f1a61264e565b5b602002602001015173ffffffffffffffffffffffffffffffffffffffff1673ffffffffffffffffffffffffffffffffffffffff16815260200190815260200160002060006101000a81548160ff0219169083151502179055508080610f7f9061270c565b915050610ef9565b5050565b606d6020528060005260406000206000915054906101000a900460ff1681565b606b5481565b610fb9611c75565b73ffffffffffffffffffffffffffffffffffffffff16610fd7610e50565b73ffffffffffffffffffffffffffffffffffffffff161461102d576040517f08c379a00000000000000000000000000000000000000000000000000000000081526004016110249061262e565b60405180910390fd5b60005b81518110156110be576001606560008484815181106110525761105161264e565b5b602002602001015173ffffffffffffffffffffffffffffffffffffffff1673ffffffffffffffffffffffffffffffffffffffff16815260200190815260200160002060006101000a81548160ff02191690831515021790555080806110b69061270c565b915050611030565b5050565b606f60009054906101000a900460ff1681565b60006110df611dd5565b60008660ff161180156111075750606860019054906101000a900460ff1660ff168660ff1611155b611146576040517f08c379a000000000000000000000000000000000000000000000000000000000815260040161113d90612919565b60405180910390fd5b828660ff16856111569190612939565b61ffff16111561119b576040517f08c379a0000000000000000000000000000000000000000000000000000000008152600401611192906129bd565b60405180910390fd5b6000905060006067549050606f60009054906101000a900460ff16156112ae578660ff16606e60008a73ffffffffffffffffffffffffffffffffffffffff1673ffffffffffffffffffffffffffffffffffffffff16815260200190815260200160002060009054906101000a900460ff1660ff1610158061126e57508660ff16606d60008a73ffffffffffffffffffffffffffffffffffffffff1673ffffffffffffffffffffffffffffffffffffffff16815260200190815260200160002060009054906101000a900460ff1660ff1610155b6112ad576040517f08c379a00000000000000000000000000000000000000000000000000000000081526004016112a490612a29565b60405180910390fd5b5b8660ff16606e60008a73ffffffffffffffffffffffffffffffffffffffff1673ffffffffffffffffffffffffffffffffffffffff16815260200190815260200160002060009054906101000a900460ff1660ff16106114085786606e60008a73ffffffffffffffffffffffffffffffffffffffff1673ffffffffffffffffffffffffffffffffffffffff16815260200190815260200160002060008282829054906101000a900460ff166113629190612755565b92506101000a81548160ff021916908360ff1602179055507fea925f43ecd5282ea8fb307fee3f67644aaa3d20f1894d6a433db3e5d325564788606e60008b73ffffffffffffffffffffffffffffffffffffffff1673ffffffffffffffffffffffffffffffffffffffff16815260200190815260200160002060009054906101000a900460ff166040516113f79291906126e3565b60405180910390a16000905061158a565b8660ff16606d60008a73ffffffffffffffffffffffffffffffffffffffff1673ffffffffffffffffffffffffffffffffffffffff16815260200190815260200160002060009054906101000a900460ff1660ff16106115895786606d60008a73ffffffffffffffffffffffffffffffffffffffff1673ffffffffffffffffffffffffffffffffffffffff16815260200190815260200160002060008282829054906101000a900460ff166114bc9190612755565b92506101000a81548160ff021916908360ff1602179055507fcdc5caa840688c7b2fdfb48b53223f1187b9ec9a1d99d69043af921a8a3d969288606d60008b73ffffffffffffffffffffffffffffffffffffffff1673ffffffffffffffffffffffffffffffffffffffff16815260200190815260200160002060009054906101000a900460ff166040516115519291906126e3565b60405180910390a16064605a60675461156a91906127bd565b6115749190612846565b9050606860009054906101000a900460000b91505b5b6000838661ffff16101561164257838860ff16876115a89190612939565b61ffff1611156115ed576040517f08c379a00000000000000000000000000000000000000000000000000000000081526004016115e490612abb565b60405180910390fd5b86828960ff166115fd91906127bd565b1461163d576040517f08c379a000000000000000000000000000000000000000000000000000000000815260040161163490612b27565b60405180910390fd5b611745565b60008714611685576040517f08c379a000000000000000000000000000000000000000000000000000000000815260040161167c90612bb9565b60405180910390fd5b6000600190505b8860ff168111611743573073ffffffffffffffffffffffffffffffffffffffff16637a92e551828961ffff166116c29190612877565b88886040518463ffffffff1660e01b81526004016116e293929190612bd9565b602060405180830381865afa1580156116ff573d6000803e3d6000fd5b505050506040513d601f19601f820116820180604052508101906117239190612c25565b8261172e9190612877565b9150808061173b9061270c565b91505061168c565b505b60008111156117de57606f60019054906101000a900473ffffffffffffffffffffffffffffffffffffffff1673ffffffffffffffffffffffffffffffffffffffff16639dc29fac8a836040518363ffffffff1660e01b81526004016117ab929190612c52565b600060405180830381600087803b1580156117c557600080fd5b505af11580156117d9573d6000803e3d6000fd5b505050505b50509695505050505050565b6000606560008373ffffffffffffffffffffffffffffffffffffffff1673ffffffffffffffffffffffffffffffffffffffff16815260200190815260200160002060009054906101000a900460ff169050919050565b611848611c7d565b60005b8151811015611a1d576000606e600084848151811061186d5761186c61264e565b5b602002602001015173ffffffffffffffffffffffffffffffffffffffff1673ffffffffffffffffffffffffffffffffffffffff16815260200190815260200160002060009054906101000a900460ff16905060018160ff16116118d15760006118df565b6001816118de9190612755565b5b606e60008585815181106118f6576118f561264e565b5b602002602001015173ffffffffffffffffffffffffffffffffffffffff1673ffffffffffffffffffffffffffffffffffffffff16815260200190815260200160002060006101000a81548160ff021916908360ff1602179055507fea925f43ecd5282ea8fb307fee3f67644aaa3d20f1894d6a433db3e5d32556478383815181106119845761198361264e565b5b6020026020010151606e60008686815181106119a3576119a261264e565b5b602002602001015173ffffffffffffffffffffffffffffffffffffffff1673ffffffffffffffffffffffffffffffffffffffff16815260200190815260200160002060009054906101000a900460ff16604051611a019291906126e3565b60405180910390a1508080611a159061270c565b91505061184b565b5050565b600060019054906101000a900460ff16611a495760008054906101000a900460ff1615611a52565b611a51611e63565b5b611a91576040517f08c379a0000000000000000000000000000000000000000000000000000000008152600401611a8890612ced565b60405180910390fd5b60008060019054906101000a900460ff161590508015611ae1576001600060016101000a81548160ff02191690831515021790555060016000806101000a81548160ff0219169083151502179055505b611ae9611e74565b81606f60016101000a81548173ffffffffffffffffffffffffffffffffffffffff021916908373ffffffffffffffffffffffffffffffffffffffff1602179055506000606f60006101000a81548160ff0219169083151502179055508015611b665760008060016101000a81548160ff0219169083151502179055505b5050565b606860019054906101000a900460ff1681565b611b85611c75565b73ffffffffffffffffffffffffffffffffffffffff16611ba3610e50565b73ffffffffffffffffffffffffffffffffffffffff1614611bf9576040517f08c379a0000000000000000000000000000000000000000000000000000000008152600401611bf09061262e565b60405180910390fd5b600073ffffffffffffffffffffffffffffffffffffffff168173ffffffffffffffffffffffffffffffffffffffff161415611c69576040517f08c379a0000000000000000000000000000000000000000000000000000000008152600401611c6090612d7f565b60405180910390fd5b611c7281611d0f565b50565b600033905090565b606660009054906101000a900473ffffffffffffffffffffffffffffffffffffffff1673ffffffffffffffffffffffffffffffffffffffff163373ffffffffffffffffffffffffffffffffffffffff1614611d0d576040517f08c379a0000000000000000000000000000000000000000000000000000000008152600401611d0490612deb565b60405180910390fd5b565b6000603360009054906101000a900473ffffffffffffffffffffffffffffffffffffffff16905081603360006101000a81548173ffffffffffffffffffffffffffffffffffffffff021916908373ffffffffffffffffffffffffffffffffffffffff1602179055508173ffffffffffffffffffffffffffffffffffffffff168173ffffffffffffffffffffffffffffffffffffffff167f8be0079c531659141344cd1fd0a4f28419497f9722a3daafe3b4186f6b6457e060405160405180910390a35050565b606560003373ffffffffffffffffffffffffffffffffffffffff1673ffffffffffffffffffffffffffffffffffffffff16815260200190815260200160002060009054906101000a900460ff16611e61576040517f08c379a0000000000000000000000000000000000000000000000000000000008152600401611e5890612e57565b60405180910390fd5b565b6000611e6e30611ecd565b15905090565b600060019054906101000a900460ff16611ec3576040517f08c379a0000000000000000000000000000000000000000000000000000000008152600401611eba90612ee9565b60405180910390fd5b611ecb611ef0565b565b6000808273ffffffffffffffffffffffffffffffffffffffff163b119050919050565b600060019054906101000a900460ff16611f3f576040517f08c379a0000000000000000000000000000000000000000000000000000000008152600401611f3690612ee9565b60405180910390fd5b611f4f611f4a611c75565b611d0f565b565b6000819050919050565b611f6481611f51565b82525050565b6000602082019050611f7f6000830184611f5b565b92915050565b60008160000b9050919050565b611f9b81611f85565b82525050565b6000602082019050611fb66000830184611f92565b92915050565b6000604051905090565b600080fd5b600080fd5b611fd981611f51565b8114611fe457600080fd5b50565b600081359050611ff681611fd0565b92915050565b61200581611f85565b811461201057600080fd5b50565b60008135905061202281611ffc565b92915050565b600060ff82169050919050565b61203e81612028565b811461204957600080fd5b50565b60008135905061205b81612035565b92915050565b600080fd5b6000601f19601f8301169050919050565b7f4e487b7100000000000000000000000000000000000000000000000000000000600052604160045260246000fd5b6120af82612066565b810181811067ffffffffffffffff821117156120ce576120cd612077565b5b80604052505050565b60006120e1611fbc565b90506120ed82826120a6565b919050565b600067ffffffffffffffff82111561210d5761210c612077565b5b602082029050602081019050919050565b600080fd5b6000612136612131846120f2565b6120d7565b905080838252602082019050602084028301858111156121595761215861211e565b5b835b81811015612182578061216e8882611fe7565b84526020840193505060208101905061215b565b5050509392505050565b600082601f8301126121a1576121a0612061565b5b81356121b1848260208601612123565b91505092915050565b600080600080608085870312156121d4576121d3611fc6565b5b60006121e287828801611fe7565b94505060206121f387828801612013565b93505060406122048782880161204c565b925050606085013567ffffffffffffffff81111561222557612224611fcb565b5b6122318782880161218c565b91505092959194509250565b600067ffffffffffffffff82111561225857612257612077565b5b602082029050602081019050919050565b600073ffffffffffffffffffffffffffffffffffffffff82169050919050565b600061229482612269565b9050919050565b6122a481612289565b81146122af57600080fd5b50565b6000813590506122c18161229b565b92915050565b60006122da6122d58461223d565b6120d7565b905080838252602082019050602084028301858111156122fd576122fc61211e565b5b835b81811015612326578061231288826122b2565b8452602084019350506020810190506122ff565b5050509392505050565b600082601f83011261234557612344612061565b5b81356123558482602086016122c7565b91505092915050565b60006020828403121561237457612373611fc6565b5b600082013567ffffffffffffffff81111561239257612391611fcb565b5b61239e84828501612330565b91505092915050565b6000602082840312156123bd576123bc611fc6565b5b60006123cb848285016122b2565b91505092915050565b6123dd81612028565b82525050565b60006020820190506123f860008301846123d4565b92915050565b60008060006060848603121561241757612416611fc6565b5b600061242586828701611fe7565b935050602061243686828701611fe7565b925050604061244786828701611fe7565b9150509250925092565b60008115159050919050565b61246681612451565b811461247157600080fd5b50565b6000813590506124838161245d565b92915050565b60006020828403121561249f5761249e611fc6565b5b60006124ad84828501612474565b91505092915050565b6124bf81612289565b82525050565b60006020820190506124da60008301846124b6565b92915050565b6124e981612451565b82525050565b600060208201905061250460008301846124e0565b92915050565b600061ffff82169050919050565b6125218161250a565b811461252c57600080fd5b50565b60008135905061253e81612518565b92915050565b60008060008060008060c0878903121561256157612560611fc6565b5b600061256f89828a016122b2565b965050602061258089828a0161204c565b955050604061259189828a01611fe7565b94505060606125a289828a0161252f565b93505060806125b389828a01611fe7565b92505060a06125c489828a01611fe7565b9150509295509295509295565b600082825260208201905092915050565b7f4f776e61626c653a2063616c6c6572206973206e6f7420746865206f776e6572600082015250565b60006126186020836125d1565b9150612623826125e2565b602082019050919050565b600060208201905081810360008301526126478161260b565b9050919050565b7f4e487b7100000000000000000000000000000000000000000000000000000000600052603260045260246000fd5b7f4e487b7100000000000000000000000000000000000000000000000000000000600052601160045260246000fd5b60006126b782612028565b91506126c283612028565b92508260ff038211156126d8576126d761267d565b5b828201905092915050565b60006040820190506126f860008301856124b6565b61270560208301846123d4565b9392505050565b600061271782611f51565b91507fffffffffffffffffffffffffffffffffffffffffffffffffffffffffffffffff82141561274a5761274961267d565b5b600182019050919050565b600061276082612028565b915061276b83612028565b92508282101561277e5761277d61267d565b5b828203905092915050565b600061279482611f51565b915061279f83611f51565b9250828210156127b2576127b161267d565b5b828203905092915050565b60006127c882611f51565b91506127d383611f51565b9250817fffffffffffffffffffffffffffffffffffffffffffffffffffffffffffffffff048311821515161561280c5761280b61267d565b5b828202905092915050565b7f4e487b7100000000000000000000000000000000000000000000000000000000600052601260045260246000fd5b600061285182611f51565b915061285c83611f51565b92508261286c5761286b612817565b5b828204905092915050565b600061288282611f51565b915061288d83611f51565b9250827fffffffffffffffffffffffffffffffffffffffffffffffffffffffffffffffff038211156128c2576128c161267d565b5b828201905092915050565b7f496e76616c6964206d696e7420616d6f756e7400000000000000000000000000600082015250565b60006129036013836125d1565b915061290e826128cd565b602082019050919050565b60006020820190508181036000830152612932816128f6565b9050919050565b60006129448261250a565b915061294f8361250a565b92508261ffff038211156129665761296561267d565b5b828201905092915050565b7f416c6c20746f6b656e73206d696e746564000000000000000000000000000000600082015250565b60006129a76011836125d1565b91506129b282612971565b602082019050919050565b600060208201905081810360008301526129d68161299a565b9050919050565b7f4e6f742077686974656c69737465640000000000000000000000000000000000600082015250565b6000612a13600f836125d1565b9150612a1e826129dd565b602082019050919050565b60006020820190508181036000830152612a4281612a06565b9050919050565b7f4e6f7420656e6f7567682047656e203020746f6b656e73206c6566742c20726560008201527f6475636520616d6f756e74000000000000000000000000000000000000000000602082015250565b6000612aa5602b836125d1565b9150612ab082612a49565b604082019050919050565b60006020820190508181036000830152612ad481612a98565b9050919050565b7f496e76616c6964207061796d656e7420616d6f756e7400000000000000000000600082015250565b6000612b116016836125d1565b9150612b1c82612adb565b602082019050919050565b60006020820190508181036000830152612b4081612b04565b9050919050565b7f496e76616c6964207061796d656e7420747970652c20616363657074696e672060008201527f666f6f6420746f6b656e73206f6e6c7900000000000000000000000000000000602082015250565b6000612ba36030836125d1565b9150612bae82612b47565b604082019050919050565b60006020820190508181036000830152612bd281612b96565b9050919050565b6000606082019050612bee6000830186611f5b565b612bfb6020830185611f5b565b612c086040830184611f5b565b949350505050565b600081519050612c1f81611fd0565b92915050565b600060208284031215612c3b57612c3a611fc6565b5b6000612c4984828501612c10565b91505092915050565b6000604082019050612c6760008301856124b6565b612c746020830184611f5b565b9392505050565b7f496e697469616c697a61626c653a20636f6e747261637420697320616c72656160008201527f647920696e697469616c697a6564000000000000000000000000000000000000602082015250565b6000612cd7602e836125d1565b9150612ce282612c7b565b604082019050919050565b60006020820190508181036000830152612d0681612cca565b9050919050565b7f4f776e61626c653a206e6577206f776e657220697320746865207a65726f206160008201527f6464726573730000000000000000000000000000000000000000000000000000602082015250565b6000612d696026836125d1565b9150612d7482612d0d565b604082019050919050565b60006020820190508181036000830152612d9881612d5c565b9050919050565b7f4f6e6c792044414f2063616e2065786563757465000000000000000000000000600082015250565b6000612dd56014836125d1565b9150612de082612d9f565b602082019050919050565b60006020820190508181036000830152612e0481612dc8565b9050919050565b7f4f6e6c7920636f6e74726f6c6c6572732063616e206578656375746500000000600082015250565b6000612e41601c836125d1565b9150612e4c82612e0b565b602082019050919050565b60006020820190508181036000830152612e7081612e34565b9050919050565b7f496e697469616c697a61626c653a20636f6e7472616374206973206e6f74206960008201527f6e697469616c697a696e67000000000000000000000000000000000000000000602082015250565b6000612ed3602b836125d1565b9150612ede82612e77565b604082019050919050565b60006020820190508181036000830152612f0281612ec6565b905091905056fea2646970667358221220c255a0e4b22ec95e9c89d8ad68f73a3a4f9220196b9d3252c2512eb496b3456d64736f6c634300080a0033",
  "immutableReferences": {},
  "source": "// SPDX-License-Identifier: MIT\n\npragma solidity ^0.8.0;\n\nimport \"@openzeppelin/contracts-upgradeable/proxy/utils/Initializable.sol\";\nimport \"./ControllableUpgradeable.sol\";\nimport \"./FastFood.sol\";\nimport \"./DOWable.sol\";\n\ncontract Paywall is Initializable, OwnableUpgradeable, ControllableUpgradeable, DOWable {\n  uint256 public mintPrice;\n  int8 public whitelistBoost;\n  uint8 public maxMintsPerTx; // Maximum number of tokens that can be minted in a single tx\n  uint256 public gen1PriceTier0;\n  uint256 public gen1PriceTier1;\n  uint256 public gen1PriceTier2;\n  uint256 public gen1PriceTier3;\n  mapping(address => uint8) public whitelist; // Mapping from address to a number of remaining whitelist spots\n  mapping(address => uint8) public freeMints; // Mapping from address to a number of remaining free mint spots\n  bool public onlyWhitelist; // Whether minting is only open for whitelisted addresses\n\n  FastFood fastFood; // Reference to the $FFOOD contract\n\n  event UpdateWhitelist(address account, uint8 amount);\n  event UpdateFreeMints(address account, uint8 amount);\n\n  function initialize(address _fastFood) external initializer {\n    __Ownable_init();\n\n    fastFood = FastFood(_fastFood);\n    onlyWhitelist = false;\n  }\n\n  /**\n   * Allows DAO to update game parameters\n   */\n  function configure(uint256 _mintPrice, int8 _whitelistBoost, uint8 _maxMintsPerTx, uint256[] memory _gen1Prices) external onlyOwner {\n    mintPrice = _mintPrice;\n    whitelistBoost = _whitelistBoost;\n    maxMintsPerTx = _maxMintsPerTx;\n    gen1PriceTier0 = _gen1Prices[0];\n    gen1PriceTier1 = _gen1Prices[1];\n    gen1PriceTier2 = _gen1Prices[2];\n    gen1PriceTier3 = _gen1Prices[3];\n  }\n\n  /**\n   * Toggles the whitelist on and off\n   * @param _enable - true enables it\n   */\n  function toggleWhitelist(bool _enable) external onlyDao {\n    onlyWhitelist = _enable;\n  }\n\n  /**\n   * Adds a list of addresses to the whitelist\n   * @param addresses - An array of addresses to add\n   */\n  function addToWhitelist(address[] memory addresses) external onlyDao {\n    for (uint i = 0; i < addresses.length; i++) {\n      uint8 amount = whitelist[addresses[i]];\n      whitelist[addresses[i]] = amount < 100 ? amount + 1 : 100;\n      emit UpdateWhitelist(addresses[i], whitelist[addresses[i]]);\n    }\n  }\n\n  /**\n   * Removes a list of addresses from the whitelist\n   * @param addresses - An array of addresses to remove\n   */\n  function removeFromWhitelist(address[] memory addresses) external onlyDao {\n    for (uint i = 0; i < addresses.length; i++) {\n      uint8 amount = whitelist[addresses[i]];\n      whitelist[addresses[i]] = amount > 1 ? amount - 1 : 0;\n      emit UpdateWhitelist(addresses[i], whitelist[addresses[i]]);\n    }\n  }\n\n  /**\n   * Adds a list of addresses to the free mints\n   * @param addresses - An array of addresses to add\n   */\n  function addToFreeMints(address[] memory addresses) external onlyDao {\n    for (uint i = 0; i < addresses.length; i++) {\n      uint8 amount = freeMints[addresses[i]];\n      freeMints[addresses[i]] = amount < 100 ? amount + 1 : 100;\n      emit UpdateFreeMints(addresses[i], freeMints[addresses[i]]);\n    }\n  }\n\n  /**\n   * Removes a list of addresses from the free mints\n   * @param addresses - An array of addresses to remove\n   */\n  function removeFromFreeMints(address[] memory addresses) external onlyDao {\n    for (uint i = 0; i < addresses.length; i++) {\n      uint8 amount = freeMints[addresses[i]];\n      freeMints[addresses[i]] = amount > 1 ? amount - 1 : 0;\n      emit UpdateFreeMints(addresses[i], freeMints[addresses[i]]);\n    }\n  }\n\n  /**\n   * ChainLink VRF request: Mints a new ERC721 token: 90% chefs, 10% rats\n   * The first 20% are free to claim, the remaining cost $FFOOD\n   * @param sender - User wallet address\n   * @param amount - Number of tokens to mint\n   * @param msgValue - Value sent with the transaction\n   * @param minted - Number of total tokens minted\n   * @param maxTokens - Max number of tokens that can be minted\n   * @param gen0Tokens - Number of tokens that can be claimed for free\n   * @return boost - Boost percentage if the token was minted using a whitelist spot\n   */\n  function handle(address sender, uint8 amount, uint256 msgValue, uint16 minted, uint256 maxTokens, uint256 gen0Tokens) external onlyController returns (int8 boost) {\n    require(amount > 0 && amount <= maxMintsPerTx, \"Invalid mint amount\");\n    require(minted + amount <= maxTokens, \"All tokens minted\");\n    boost = 0;\n    uint256 txMintPrice = mintPrice;\n    if (onlyWhitelist) {\n      require(freeMints[sender] >= amount || whitelist[sender] >= amount, \"Not whitelisted\");\n    }\n    if (freeMints[sender] >= amount) {\n      freeMints[sender] -= amount;\n      emit UpdateFreeMints(sender, freeMints[sender]);\n      txMintPrice = 0;\n    } else if (whitelist[sender] >= amount) {\n      whitelist[sender] -= amount;\n      emit UpdateWhitelist(sender, whitelist[sender]);\n      txMintPrice = mintPrice * 90 / 100;\n      boost = whitelistBoost;\n    }\n    uint256 totalCost = 0;\n    if (minted < gen0Tokens) {\n      require(minted + amount <= gen0Tokens, \"Not enough Gen 0 tokens left, reduce amount\");\n      require(amount * txMintPrice == msgValue, \"Invalid payment amount\");\n    } else {\n      require(msgValue == 0, \"Invalid payment type, accepting food tokens only\");\n      for (uint i = 1; i <= amount; i++) {\n        totalCost += this.mintCost(minted + i, maxTokens, gen0Tokens);\n      }\n    }\n    if (totalCost > 0) fastFood.burn(sender, totalCost);\n  }\n\n  /**\n   * Returns the latest mint price for the given token using 5 price breaks\n   * @param tokenId - The token ID to check\n   * @param maxTokens - The total supply of tokens\n   * @param gen0Tokens - The supply of Gen0 tokens\n   * @return The minting cost of the given ID\n   */\n  function mintCost(uint256 tokenId, uint256 maxTokens, uint256 gen0Tokens) external view returns (uint256) {\n    if (tokenId <= gen0Tokens) return 0;\n    if (tokenId <= (maxTokens - gen0Tokens) * 1 / 4 + gen0Tokens) return gen1PriceTier0;\n    if (tokenId <= (maxTokens - gen0Tokens) * 2 / 4 + gen0Tokens) return gen1PriceTier1;\n    if (tokenId <= (maxTokens - gen0Tokens) * 3 / 4 + gen0Tokens) return gen1PriceTier2;\n    return gen1PriceTier3;\n  }\n}\n",
  "sourcePath": "/Users/chris/workspace/ratalert/ratalert-contracts/contracts/Paywall.sol",
  "compiler": {
    "name": "solc",
    "version": "0.8.10+commit.fc410830.Emscripten.clang"
  },
  "schemaVersion": "3.4.7",
  "updatedAt": "2022-06-03T20:27:41.042Z",
  "devdoc": {
    "kind": "dev",
    "methods": {
      "addController(address[])": {
        "params": {
          "_controllers": "- The addresses to enable"
        }
      },
      "addToFreeMints(address[])": {
        "params": {
          "addresses": "- An array of addresses to add"
        }
      },
      "addToWhitelist(address[])": {
        "params": {
          "addresses": "- An array of addresses to add"
        }
      },
      "controller(address)": {
        "params": {
          "_controller": "- The address to check"
        }
      },
      "handle(address,uint8,uint256,uint16,uint256,uint256)": {
        "params": {
          "amount": "- Number of tokens to mint",
          "gen0Tokens": "- Number of tokens that can be claimed for free",
          "maxTokens": "- Max number of tokens that can be minted",
          "minted": "- Number of total tokens minted",
          "msgValue": "- Value sent with the transaction",
          "sender": "- User wallet address"
        },
        "returns": {
          "boost": "- Boost percentage if the token was minted using a whitelist spot"
        }
      },
      "mintCost(uint256,uint256,uint256)": {
        "params": {
          "gen0Tokens": "- The supply of Gen0 tokens",
          "maxTokens": "- The total supply of tokens",
          "tokenId": "- The token ID to check"
        },
        "returns": {
          "_0": "The minting cost of the given ID"
        }
      },
      "owner()": {
        "details": "Returns the address of the current owner."
      },
      "removeController(address[])": {
        "params": {
          "_controllers": "- The addresses to disable"
        }
      },
      "removeFromFreeMints(address[])": {
        "params": {
          "addresses": "- An array of addresses to remove"
        }
      },
      "removeFromWhitelist(address[])": {
        "params": {
          "addresses": "- An array of addresses to remove"
        }
      },
      "renounceOwnership()": {
        "details": "Leaves the contract without owner. It will not be possible to call `onlyOwner` functions anymore. Can only be called by the current owner. NOTE: Renouncing ownership will leave the contract without an owner, thereby removing any functionality that is only available to the owner."
      },
      "toggleWhitelist(bool)": {
        "params": {
          "_enable": "- true enables it"
        }
      },
      "transferOwnership(address)": {
        "details": "Transfers ownership of the contract to a new account (`newOwner`). Can only be called by the current owner."
      }
    },
    "version": 1
  },
  "userdoc": {
    "kind": "user",
    "methods": {
      "addController(address[])": {
        "notice": "Enables multiple addresses to execute"
      },
      "addToFreeMints(address[])": {
        "notice": "Adds a list of addresses to the free mints"
      },
      "addToWhitelist(address[])": {
        "notice": "Adds a list of addresses to the whitelist"
      },
      "configure(uint256,int8,uint8,uint256[])": {
        "notice": "Allows DAO to update game parameters"
      },
      "controller(address)": {
        "notice": "Gets controller status by address"
      },
      "handle(address,uint8,uint256,uint16,uint256,uint256)": {
        "notice": "ChainLink VRF request: Mints a new ERC721 token: 90% chefs, 10% rats The first 20% are free to claim, the remaining cost $FFOOD"
      },
      "mintCost(uint256,uint256,uint256)": {
        "notice": "Returns the latest mint price for the given token using 5 price breaks"
      },
      "removeController(address[])": {
        "notice": "Prevents multiple addresses from executing"
      },
      "removeFromFreeMints(address[])": {
        "notice": "Removes a list of addresses from the free mints"
      },
      "removeFromWhitelist(address[])": {
        "notice": "Removes a list of addresses from the whitelist"
      },
      "toggleWhitelist(bool)": {
        "notice": "Toggles the whitelist on and off"
      }
    },
    "version": 1
  }
}