{
  "contractName": "Paywall",
  "abi": [
    {
      "anonymous": false,
      "inputs": [
        {
          "indexed": true,
          "internalType": "address",
          "name": "previousOwner",
          "type": "address"
        },
        {
          "indexed": true,
          "internalType": "address",
          "name": "newOwner",
          "type": "address"
        }
      ],
      "name": "OwnershipTransferred",
      "type": "event"
    },
    {
      "anonymous": false,
      "inputs": [
        {
          "indexed": false,
          "internalType": "address",
          "name": "account",
          "type": "address"
        },
        {
          "indexed": false,
          "internalType": "uint8",
          "name": "amount",
          "type": "uint8"
        }
      ],
      "name": "UpdateFreeMints",
      "type": "event"
    },
    {
      "anonymous": false,
      "inputs": [
        {
          "indexed": false,
          "internalType": "address",
          "name": "account",
          "type": "address"
        },
        {
          "indexed": false,
          "internalType": "uint8",
          "name": "amount",
          "type": "uint8"
        }
      ],
      "name": "UpdateWhitelist",
      "type": "event"
    },
    {
      "inputs": [
        {
          "internalType": "address",
          "name": "_controller",
          "type": "address"
        }
      ],
      "name": "addController",
      "outputs": [],
      "stateMutability": "nonpayable",
      "type": "function"
    },
    {
      "inputs": [
        {
          "internalType": "address",
          "name": "_controller",
          "type": "address"
        }
      ],
      "name": "controller",
      "outputs": [
        {
          "internalType": "bool",
          "name": "",
          "type": "bool"
        }
      ],
      "stateMutability": "view",
      "type": "function",
      "constant": true
    },
    {
      "inputs": [
        {
          "internalType": "address",
          "name": "",
          "type": "address"
        }
      ],
      "name": "freeMints",
      "outputs": [
        {
          "internalType": "uint8",
          "name": "",
          "type": "uint8"
        }
      ],
      "stateMutability": "view",
      "type": "function",
      "constant": true
    },
    {
      "inputs": [],
      "name": "gen1PriceTier0",
      "outputs": [
        {
          "internalType": "uint256",
          "name": "",
          "type": "uint256"
        }
      ],
      "stateMutability": "view",
      "type": "function",
      "constant": true
    },
    {
      "inputs": [],
      "name": "gen1PriceTier1",
      "outputs": [
        {
          "internalType": "uint256",
          "name": "",
          "type": "uint256"
        }
      ],
      "stateMutability": "view",
      "type": "function",
      "constant": true
    },
    {
      "inputs": [],
      "name": "gen1PriceTier2",
      "outputs": [
        {
          "internalType": "uint256",
          "name": "",
          "type": "uint256"
        }
      ],
      "stateMutability": "view",
      "type": "function",
      "constant": true
    },
    {
      "inputs": [],
      "name": "gen1PriceTier3",
      "outputs": [
        {
          "internalType": "uint256",
          "name": "",
          "type": "uint256"
        }
      ],
      "stateMutability": "view",
      "type": "function",
      "constant": true
    },
    {
      "inputs": [],
      "name": "mintPrice",
      "outputs": [
        {
          "internalType": "uint256",
          "name": "",
          "type": "uint256"
        }
      ],
      "stateMutability": "view",
      "type": "function",
      "constant": true
    },
    {
      "inputs": [],
      "name": "onlyWhitelist",
      "outputs": [
        {
          "internalType": "bool",
          "name": "",
          "type": "bool"
        }
      ],
      "stateMutability": "view",
      "type": "function",
      "constant": true
    },
    {
      "inputs": [],
      "name": "owner",
      "outputs": [
        {
          "internalType": "address",
          "name": "",
          "type": "address"
        }
      ],
      "stateMutability": "view",
      "type": "function",
      "constant": true
    },
    {
      "inputs": [
        {
          "internalType": "address",
          "name": "_controller",
          "type": "address"
        }
      ],
      "name": "removeController",
      "outputs": [],
      "stateMutability": "nonpayable",
      "type": "function"
    },
    {
      "inputs": [],
      "name": "renounceOwnership",
      "outputs": [],
      "stateMutability": "nonpayable",
      "type": "function"
    },
    {
      "inputs": [
        {
          "internalType": "address",
          "name": "newOwner",
          "type": "address"
        }
      ],
      "name": "transferOwnership",
      "outputs": [],
      "stateMutability": "nonpayable",
      "type": "function"
    },
    {
      "inputs": [
        {
          "internalType": "address",
          "name": "",
          "type": "address"
        }
      ],
      "name": "whitelist",
      "outputs": [
        {
          "internalType": "uint8",
          "name": "",
          "type": "uint8"
        }
      ],
      "stateMutability": "view",
      "type": "function",
      "constant": true
    },
    {
      "inputs": [
        {
          "internalType": "address",
          "name": "_fastFood",
          "type": "address"
        }
      ],
      "name": "initialize",
      "outputs": [],
      "stateMutability": "nonpayable",
      "type": "function"
    },
    {
      "inputs": [
        {
          "internalType": "uint256",
          "name": "_mintPrice",
          "type": "uint256"
        },
        {
          "internalType": "uint256[]",
          "name": "_gen1Prices",
          "type": "uint256[]"
        }
      ],
      "name": "configure",
      "outputs": [],
      "stateMutability": "nonpayable",
      "type": "function"
    },
    {
      "inputs": [
        {
          "internalType": "bool",
          "name": "_enable",
          "type": "bool"
        }
      ],
      "name": "toggleWhitelist",
      "outputs": [],
      "stateMutability": "nonpayable",
      "type": "function"
    },
    {
      "inputs": [
        {
          "internalType": "address[]",
          "name": "addresses",
          "type": "address[]"
        }
      ],
      "name": "addToWhitelist",
      "outputs": [],
      "stateMutability": "nonpayable",
      "type": "function"
    },
    {
      "inputs": [
        {
          "internalType": "address[]",
          "name": "addresses",
          "type": "address[]"
        }
      ],
      "name": "removeFromWhitelist",
      "outputs": [],
      "stateMutability": "nonpayable",
      "type": "function"
    },
    {
      "inputs": [
        {
          "internalType": "address[]",
          "name": "addresses",
          "type": "address[]"
        }
      ],
      "name": "addToFreeMints",
      "outputs": [],
      "stateMutability": "nonpayable",
      "type": "function"
    },
    {
      "inputs": [
        {
          "internalType": "address[]",
          "name": "addresses",
          "type": "address[]"
        }
      ],
      "name": "removeFromFreeMints",
      "outputs": [],
      "stateMutability": "nonpayable",
      "type": "function"
    },
    {
      "inputs": [
        {
          "internalType": "address",
          "name": "sender",
          "type": "address"
        },
        {
          "internalType": "uint8",
          "name": "amount",
          "type": "uint8"
        },
        {
          "internalType": "uint256",
          "name": "msgValue",
          "type": "uint256"
        },
        {
          "internalType": "uint16",
          "name": "minted",
          "type": "uint16"
        },
        {
          "internalType": "uint256",
          "name": "maxTokens",
          "type": "uint256"
        },
        {
          "internalType": "uint256",
          "name": "gen0Tokens",
          "type": "uint256"
        }
      ],
      "name": "handle",
      "outputs": [],
      "stateMutability": "nonpayable",
      "type": "function"
    },
    {
      "inputs": [
        {
          "internalType": "uint256",
          "name": "tokenId",
          "type": "uint256"
        },
        {
          "internalType": "uint256",
          "name": "maxTokens",
          "type": "uint256"
        },
        {
          "internalType": "uint256",
          "name": "gen0Tokens",
          "type": "uint256"
        }
      ],
      "name": "mintCost",
      "outputs": [
        {
          "internalType": "uint256",
          "name": "",
          "type": "uint256"
        }
      ],
      "stateMutability": "view",
      "type": "function",
      "constant": true
    }
  ],
  "bytecode": "0x608060405234801561001057600080fd5b50612ce7806100206000396000f3fe608060405234801561001057600080fd5b506004361061014d5760003560e01c80638da5cb5b116100c3578063ad2479fc1161007c578063ad2479fc14610366578063c13aa7b514610382578063c3a7cc5a146103b2578063c4d66de8146103ce578063f2fde38b146103ea578063f6a74ed7146104065761014d565b80638da5cb5b146102a45780639b19251a146102c2578063a4e57330146102f2578063a7fc7a0714610310578063a88e09961461032c578063abc26c601461034a5761014d565b80636817c76c116101155780636817c76c146101e45780636d41d4fb14610202578063715018a6146102325780637a92e5511461023c5780637f6497831461026c57806380e3f1ad146102885761014d565b806303f7d3881461015257806328ca26cd1461017057806350fcfd391461018e578063548db174146101aa5780636502672c146101c6575b600080fd5b61015a610422565b6040516101679190611eb5565b60405180910390f35b610178610428565b6040516101859190611eb5565b60405180910390f35b6101a860048036038101906101a3919061209b565b61042e565b005b6101c460048036038101906101bf919061209b565b610683565b005b6101ce6108d8565b6040516101db9190611eb5565b60405180910390f35b6101ec6108de565b6040516101f99190611eb5565b60405180910390f35b61021c600480360381019061021791906120e4565b6108e4565b604051610229919061212d565b60405180910390f35b61023a610904565b005b61025660048036038101906102519190612174565b61098c565b6040516102639190611eb5565b60405180910390f35b6102866004803603810190610281919061209b565b610a26565b005b6102a2600480360381019061029d91906121ff565b610c7b565b005b6102ac610d14565b6040516102b9919061223b565b60405180910390f35b6102dc60048036038101906102d791906120e4565b610d3e565b6040516102e9919061212d565b60405180910390f35b6102fa610d5e565b6040516103079190611eb5565b60405180910390f35b61032a600480360381019061032591906120e4565b610d64565b005b610334610e3b565b6040516103419190612265565b60405180910390f35b610364600480360381019061035f91906122e6565b610e4e565b005b610380600480360381019061037b9190612436565b611549565b005b61039c600480360381019061039791906120e4565b611658565b6040516103a99190612265565b60405180910390f35b6103cc60048036038101906103c7919061209b565b61172a565b005b6103e860048036038101906103e391906120e4565b61197f565b005b61040460048036038101906103ff91906120e4565b611ac8565b005b610420600480360381019061041b91906120e4565b611bc0565b005b606a5481565b60685481565b610436611c97565b73ffffffffffffffffffffffffffffffffffffffff16610454610d14565b73ffffffffffffffffffffffffffffffffffffffff16146104aa576040517f08c379a00000000000000000000000000000000000000000000000000000000081526004016104a1906124ef565b60405180910390fd5b60005b815181101561067f576000606c60008484815181106104cf576104ce61250f565b5b602002602001015173ffffffffffffffffffffffffffffffffffffffff1673ffffffffffffffffffffffffffffffffffffffff16815260200190815260200160002060009054906101000a900460ff16905060648160ff1610610533576064610541565b600181610540919061256d565b5b606c60008585815181106105585761055761250f565b5b602002602001015173ffffffffffffffffffffffffffffffffffffffff1673ffffffffffffffffffffffffffffffffffffffff16815260200190815260200160002060006101000a81548160ff021916908360ff1602179055507fea925f43ecd5282ea8fb307fee3f67644aaa3d20f1894d6a433db3e5d32556478383815181106105e6576105e561250f565b5b6020026020010151606c60008686815181106106055761060461250f565b5b602002602001015173ffffffffffffffffffffffffffffffffffffffff1673ffffffffffffffffffffffffffffffffffffffff16815260200190815260200160002060009054906101000a900460ff166040516106639291906125a4565b60405180910390a1508080610677906125cd565b9150506104ad565b5050565b61068b611c97565b73ffffffffffffffffffffffffffffffffffffffff166106a9610d14565b73ffffffffffffffffffffffffffffffffffffffff16146106ff576040517f08c379a00000000000000000000000000000000000000000000000000000000081526004016106f6906124ef565b60405180910390fd5b60005b81518110156108d4576000606b60008484815181106107245761072361250f565b5b602002602001015173ffffffffffffffffffffffffffffffffffffffff1673ffffffffffffffffffffffffffffffffffffffff16815260200190815260200160002060009054906101000a900460ff16905060018160ff1611610788576000610796565b6001816107959190612616565b5b606b60008585815181106107ad576107ac61250f565b5b602002602001015173ffffffffffffffffffffffffffffffffffffffff1673ffffffffffffffffffffffffffffffffffffffff16815260200190815260200160002060006101000a81548160ff021916908360ff1602179055507fcdc5caa840688c7b2fdfb48b53223f1187b9ec9a1d99d69043af921a8a3d969283838151811061083b5761083a61250f565b5b6020026020010151606b600086868151811061085a5761085961250f565b5b602002602001015173ffffffffffffffffffffffffffffffffffffffff1673ffffffffffffffffffffffffffffffffffffffff16815260200190815260200160002060009054906101000a900460ff166040516108b89291906125a4565b60405180910390a15080806108cc906125cd565b915050610702565b5050565b60675481565b60665481565b606c6020528060005260406000206000915054906101000a900460ff1681565b61090c611c97565b73ffffffffffffffffffffffffffffffffffffffff1661092a610d14565b73ffffffffffffffffffffffffffffffffffffffff1614610980576040517f08c379a0000000000000000000000000000000000000000000000000000000008152600401610977906124ef565b60405180910390fd5b61098a6000611c9f565b565b600081841161099e5760009050610a1f565b60056002846109ad919061264a565b6109b791906126d3565b84116109c7576067549050610a1f565b60056003846109d6919061264a565b6109e091906126d3565b84116109f0576068549050610a1f565b60056004846109ff919061264a565b610a0991906126d3565b8411610a19576069549050610a1f565b606a5490505b9392505050565b610a2e611c97565b73ffffffffffffffffffffffffffffffffffffffff16610a4c610d14565b73ffffffffffffffffffffffffffffffffffffffff1614610aa2576040517f08c379a0000000000000000000000000000000000000000000000000000000008152600401610a99906124ef565b60405180910390fd5b60005b8151811015610c77576000606b6000848481518110610ac757610ac661250f565b5b602002602001015173ffffffffffffffffffffffffffffffffffffffff1673ffffffffffffffffffffffffffffffffffffffff16815260200190815260200160002060009054906101000a900460ff16905060648160ff1610610b2b576064610b39565b600181610b38919061256d565b5b606b6000858581518110610b5057610b4f61250f565b5b602002602001015173ffffffffffffffffffffffffffffffffffffffff1673ffffffffffffffffffffffffffffffffffffffff16815260200190815260200160002060006101000a81548160ff021916908360ff1602179055507fcdc5caa840688c7b2fdfb48b53223f1187b9ec9a1d99d69043af921a8a3d9692838381518110610bde57610bdd61250f565b5b6020026020010151606b6000868681518110610bfd57610bfc61250f565b5b602002602001015173ffffffffffffffffffffffffffffffffffffffff1673ffffffffffffffffffffffffffffffffffffffff16815260200190815260200160002060009054906101000a900460ff16604051610c5b9291906125a4565b60405180910390a1508080610c6f906125cd565b915050610aa5565b5050565b610c83611c97565b73ffffffffffffffffffffffffffffffffffffffff16610ca1610d14565b73ffffffffffffffffffffffffffffffffffffffff1614610cf7576040517f08c379a0000000000000000000000000000000000000000000000000000000008152600401610cee906124ef565b60405180910390fd5b80606d60006101000a81548160ff02191690831515021790555050565b6000603360009054906101000a900473ffffffffffffffffffffffffffffffffffffffff16905090565b606b6020528060005260406000206000915054906101000a900460ff1681565b60695481565b610d6c611c97565b73ffffffffffffffffffffffffffffffffffffffff16610d8a610d14565b73ffffffffffffffffffffffffffffffffffffffff1614610de0576040517f08c379a0000000000000000000000000000000000000000000000000000000008152600401610dd7906124ef565b60405180910390fd5b6001606560008373ffffffffffffffffffffffffffffffffffffffff1673ffffffffffffffffffffffffffffffffffffffff16815260200190815260200160002060006101000a81548160ff02191690831515021790555050565b606d60009054906101000a900460ff1681565b606560003373ffffffffffffffffffffffffffffffffffffffff1673ffffffffffffffffffffffffffffffffffffffff16815260200190815260200160002060009054906101000a900460ff16610eda576040517f08c379a0000000000000000000000000000000000000000000000000000000008152600401610ed190612750565b60405180910390fd5b60008560ff16118015610ef15750600a8560ff1611155b610f30576040517f08c379a0000000000000000000000000000000000000000000000000000000008152600401610f27906127bc565b60405180910390fd5b818560ff1684610f4091906127dc565b61ffff161115610f85576040517f08c379a0000000000000000000000000000000000000000000000000000000008152600401610f7c90612860565b60405180910390fd5b60006066549050606d60009054906101000a900460ff1615611094578560ff16606c60008973ffffffffffffffffffffffffffffffffffffffff1673ffffffffffffffffffffffffffffffffffffffff16815260200190815260200160002060009054906101000a900460ff1660ff1610158061105457508560ff16606b60008973ffffffffffffffffffffffffffffffffffffffff1673ffffffffffffffffffffffffffffffffffffffff16815260200190815260200160002060009054906101000a900460ff1660ff1610155b611093576040517f08c379a000000000000000000000000000000000000000000000000000000000815260040161108a906128cc565b60405180910390fd5b5b8560ff16606c60008973ffffffffffffffffffffffffffffffffffffffff1673ffffffffffffffffffffffffffffffffffffffff16815260200190815260200160002060009054906101000a900460ff1660ff16106111ee5785606c60008973ffffffffffffffffffffffffffffffffffffffff1673ffffffffffffffffffffffffffffffffffffffff16815260200190815260200160002060008282829054906101000a900460ff166111489190612616565b92506101000a81548160ff021916908360ff1602179055507fea925f43ecd5282ea8fb307fee3f67644aaa3d20f1894d6a433db3e5d325564787606c60008a73ffffffffffffffffffffffffffffffffffffffff1673ffffffffffffffffffffffffffffffffffffffff16815260200190815260200160002060009054906101000a900460ff166040516111dd9291906125a4565b60405180910390a16000905061135e565b8560ff16606b60008973ffffffffffffffffffffffffffffffffffffffff1673ffffffffffffffffffffffffffffffffffffffff16815260200190815260200160002060009054906101000a900460ff1660ff161061135d5785606b60008973ffffffffffffffffffffffffffffffffffffffff1673ffffffffffffffffffffffffffffffffffffffff16815260200190815260200160002060008282829054906101000a900460ff166112a29190612616565b92506101000a81548160ff021916908360ff1602179055507fcdc5caa840688c7b2fdfb48b53223f1187b9ec9a1d99d69043af921a8a3d969287606b60008a73ffffffffffffffffffffffffffffffffffffffff1673ffffffffffffffffffffffffffffffffffffffff16815260200190815260200160002060009054906101000a900460ff166040516113379291906125a4565b60405180910390a16064605a606654611350919061264a565b61135a91906126d3565b90505b5b6000828561ffff16101561141657828760ff168661137c91906127dc565b61ffff1611156113c1576040517f08c379a00000000000000000000000000000000000000000000000000000000081526004016113b89061295e565b60405180910390fd5b85828860ff166113d1919061264a565b14611411576040517f08c379a0000000000000000000000000000000000000000000000000000000008152600401611408906129ca565b60405180910390fd5b6114a6565b60008614611459576040517f08c379a000000000000000000000000000000000000000000000000000000000815260040161145090612a5c565b60405180910390fd5b6000600190505b8760ff1681116114a457611484818761ffff1661147d9190612a7c565b868661098c565b8261148f9190612a7c565b9150808061149c906125cd565b915050611460565b505b600081111561153f57606d60019054906101000a900473ffffffffffffffffffffffffffffffffffffffff1673ffffffffffffffffffffffffffffffffffffffff16639dc29fac89836040518363ffffffff1660e01b815260040161150c929190612ad2565b600060405180830381600087803b15801561152657600080fd5b505af115801561153a573d6000803e3d6000fd5b505050505b5050505050505050565b611551611c97565b73ffffffffffffffffffffffffffffffffffffffff1661156f610d14565b73ffffffffffffffffffffffffffffffffffffffff16146115c5576040517f08c379a00000000000000000000000000000000000000000000000000000000081526004016115bc906124ef565b60405180910390fd5b81606681905550806000815181106115e0576115df61250f565b5b6020026020010151606781905550806001815181106116025761160161250f565b5b6020026020010151606881905550806002815181106116245761162361250f565b5b6020026020010151606981905550806003815181106116465761164561250f565b5b6020026020010151606a819055505050565b6000611662611c97565b73ffffffffffffffffffffffffffffffffffffffff16611680610d14565b73ffffffffffffffffffffffffffffffffffffffff16146116d6576040517f08c379a00000000000000000000000000000000000000000000000000000000081526004016116cd906124ef565b60405180910390fd5b606560008373ffffffffffffffffffffffffffffffffffffffff1673ffffffffffffffffffffffffffffffffffffffff16815260200190815260200160002060009054906101000a900460ff169050919050565b611732611c97565b73ffffffffffffffffffffffffffffffffffffffff16611750610d14565b73ffffffffffffffffffffffffffffffffffffffff16146117a6576040517f08c379a000000000000000000000000000000000000000000000000000000000815260040161179d906124ef565b60405180910390fd5b60005b815181101561197b576000606c60008484815181106117cb576117ca61250f565b5b602002602001015173ffffffffffffffffffffffffffffffffffffffff1673ffffffffffffffffffffffffffffffffffffffff16815260200190815260200160002060009054906101000a900460ff16905060018160ff161161182f57600061183d565b60018161183c9190612616565b5b606c60008585815181106118545761185361250f565b5b602002602001015173ffffffffffffffffffffffffffffffffffffffff1673ffffffffffffffffffffffffffffffffffffffff16815260200190815260200160002060006101000a81548160ff021916908360ff1602179055507fea925f43ecd5282ea8fb307fee3f67644aaa3d20f1894d6a433db3e5d32556478383815181106118e2576118e161250f565b5b6020026020010151606c60008686815181106119015761190061250f565b5b602002602001015173ffffffffffffffffffffffffffffffffffffffff1673ffffffffffffffffffffffffffffffffffffffff16815260200190815260200160002060009054906101000a900460ff1660405161195f9291906125a4565b60405180910390a1508080611973906125cd565b9150506117a9565b5050565b600060019054906101000a900460ff166119a75760008054906101000a900460ff16156119b0565b6119af611d65565b5b6119ef576040517f08c379a00000000000000000000000000000000000000000000000000000000081526004016119e690612b6d565b60405180910390fd5b60008060019054906101000a900460ff161590508015611a3f576001600060016101000a81548160ff02191690831515021790555060016000806101000a81548160ff0219169083151502179055505b611a47611d76565b81606d60016101000a81548173ffffffffffffffffffffffffffffffffffffffff021916908373ffffffffffffffffffffffffffffffffffffffff1602179055506000606d60006101000a81548160ff0219169083151502179055508015611ac45760008060016101000a81548160ff0219169083151502179055505b5050565b611ad0611c97565b73ffffffffffffffffffffffffffffffffffffffff16611aee610d14565b73ffffffffffffffffffffffffffffffffffffffff1614611b44576040517f08c379a0000000000000000000000000000000000000000000000000000000008152600401611b3b906124ef565b60405180910390fd5b600073ffffffffffffffffffffffffffffffffffffffff168173ffffffffffffffffffffffffffffffffffffffff161415611bb4576040517f08c379a0000000000000000000000000000000000000000000000000000000008152600401611bab90612bff565b60405180910390fd5b611bbd81611c9f565b50565b611bc8611c97565b73ffffffffffffffffffffffffffffffffffffffff16611be6610d14565b73ffffffffffffffffffffffffffffffffffffffff1614611c3c576040517f08c379a0000000000000000000000000000000000000000000000000000000008152600401611c33906124ef565b60405180910390fd5b6000606560008373ffffffffffffffffffffffffffffffffffffffff1673ffffffffffffffffffffffffffffffffffffffff16815260200190815260200160002060006101000a81548160ff02191690831515021790555050565b600033905090565b6000603360009054906101000a900473ffffffffffffffffffffffffffffffffffffffff16905081603360006101000a81548173ffffffffffffffffffffffffffffffffffffffff021916908373ffffffffffffffffffffffffffffffffffffffff1602179055508173ffffffffffffffffffffffffffffffffffffffff168173ffffffffffffffffffffffffffffffffffffffff167f8be0079c531659141344cd1fd0a4f28419497f9722a3daafe3b4186f6b6457e060405160405180910390a35050565b6000611d7030611dd7565b15905090565b600060019054906101000a900460ff16611dc5576040517f08c379a0000000000000000000000000000000000000000000000000000000008152600401611dbc90612c91565b60405180910390fd5b611dcd611dea565b611dd5611e3b565b565b600080823b905060008111915050919050565b600060019054906101000a900460ff16611e39576040517f08c379a0000000000000000000000000000000000000000000000000000000008152600401611e3090612c91565b60405180910390fd5b565b600060019054906101000a900460ff16611e8a576040517f08c379a0000000000000000000000000000000000000000000000000000000008152600401611e8190612c91565b60405180910390fd5b611e9a611e95611c97565b611c9f565b565b6000819050919050565b611eaf81611e9c565b82525050565b6000602082019050611eca6000830184611ea6565b92915050565b6000604051905090565b600080fd5b600080fd5b600080fd5b6000601f19601f8301169050919050565b7f4e487b7100000000000000000000000000000000000000000000000000000000600052604160045260246000fd5b611f3282611ee9565b810181811067ffffffffffffffff82111715611f5157611f50611efa565b5b80604052505050565b6000611f64611ed0565b9050611f708282611f29565b919050565b600067ffffffffffffffff821115611f9057611f8f611efa565b5b602082029050602081019050919050565b600080fd5b600073ffffffffffffffffffffffffffffffffffffffff82169050919050565b6000611fd182611fa6565b9050919050565b611fe181611fc6565b8114611fec57600080fd5b50565b600081359050611ffe81611fd8565b92915050565b600061201761201284611f75565b611f5a565b9050808382526020820190506020840283018581111561203a57612039611fa1565b5b835b81811015612063578061204f8882611fef565b84526020840193505060208101905061203c565b5050509392505050565b600082601f83011261208257612081611ee4565b5b8135612092848260208601612004565b91505092915050565b6000602082840312156120b1576120b0611eda565b5b600082013567ffffffffffffffff8111156120cf576120ce611edf565b5b6120db8482850161206d565b91505092915050565b6000602082840312156120fa576120f9611eda565b5b600061210884828501611fef565b91505092915050565b600060ff82169050919050565b61212781612111565b82525050565b6000602082019050612142600083018461211e565b92915050565b61215181611e9c565b811461215c57600080fd5b50565b60008135905061216e81612148565b92915050565b60008060006060848603121561218d5761218c611eda565b5b600061219b8682870161215f565b93505060206121ac8682870161215f565b92505060406121bd8682870161215f565b9150509250925092565b60008115159050919050565b6121dc816121c7565b81146121e757600080fd5b50565b6000813590506121f9816121d3565b92915050565b60006020828403121561221557612214611eda565b5b6000612223848285016121ea565b91505092915050565b61223581611fc6565b82525050565b6000602082019050612250600083018461222c565b92915050565b61225f816121c7565b82525050565b600060208201905061227a6000830184612256565b92915050565b61228981612111565b811461229457600080fd5b50565b6000813590506122a681612280565b92915050565b600061ffff82169050919050565b6122c3816122ac565b81146122ce57600080fd5b50565b6000813590506122e0816122ba565b92915050565b60008060008060008060c0878903121561230357612302611eda565b5b600061231189828a01611fef565b965050602061232289828a01612297565b955050604061233389828a0161215f565b945050606061234489828a016122d1565b935050608061235589828a0161215f565b92505060a061236689828a0161215f565b9150509295509295509295565b600067ffffffffffffffff82111561238e5761238d611efa565b5b602082029050602081019050919050565b60006123b26123ad84612373565b611f5a565b905080838252602082019050602084028301858111156123d5576123d4611fa1565b5b835b818110156123fe57806123ea888261215f565b8452602084019350506020810190506123d7565b5050509392505050565b600082601f83011261241d5761241c611ee4565b5b813561242d84826020860161239f565b91505092915050565b6000806040838503121561244d5761244c611eda565b5b600061245b8582860161215f565b925050602083013567ffffffffffffffff81111561247c5761247b611edf565b5b61248885828601612408565b9150509250929050565b600082825260208201905092915050565b7f4f776e61626c653a2063616c6c6572206973206e6f7420746865206f776e6572600082015250565b60006124d9602083612492565b91506124e4826124a3565b602082019050919050565b60006020820190508181036000830152612508816124cc565b9050919050565b7f4e487b7100000000000000000000000000000000000000000000000000000000600052603260045260246000fd5b7f4e487b7100000000000000000000000000000000000000000000000000000000600052601160045260246000fd5b600061257882612111565b915061258383612111565b92508260ff038211156125995761259861253e565b5b828201905092915050565b60006040820190506125b9600083018561222c565b6125c6602083018461211e565b9392505050565b60006125d882611e9c565b91507fffffffffffffffffffffffffffffffffffffffffffffffffffffffffffffffff82141561260b5761260a61253e565b5b600182019050919050565b600061262182612111565b915061262c83612111565b92508282101561263f5761263e61253e565b5b828203905092915050565b600061265582611e9c565b915061266083611e9c565b9250817fffffffffffffffffffffffffffffffffffffffffffffffffffffffffffffffff04831182151516156126995761269861253e565b5b828202905092915050565b7f4e487b7100000000000000000000000000000000000000000000000000000000600052601260045260246000fd5b60006126de82611e9c565b91506126e983611e9c565b9250826126f9576126f86126a4565b5b828204905092915050565b7f4f6e6c7920636f6e74726f6c6c6572732063616e206578656375746500000000600082015250565b600061273a601c83612492565b915061274582612704565b602082019050919050565b600060208201905081810360008301526127698161272d565b9050919050565b7f496e76616c6964206d696e7420616d6f756e7400000000000000000000000000600082015250565b60006127a6601383612492565b91506127b182612770565b602082019050919050565b600060208201905081810360008301526127d581612799565b9050919050565b60006127e7826122ac565b91506127f2836122ac565b92508261ffff038211156128095761280861253e565b5b828201905092915050565b7f416c6c20746f6b656e73206d696e746564000000000000000000000000000000600082015250565b600061284a601183612492565b915061285582612814565b602082019050919050565b600060208201905081810360008301526128798161283d565b9050919050565b7f4e6f742077686974656c69737465640000000000000000000000000000000000600082015250565b60006128b6600f83612492565b91506128c182612880565b602082019050919050565b600060208201905081810360008301526128e5816128a9565b9050919050565b7f4e6f7420656e6f7567682047656e203020746f6b656e73206c6566742c20726560008201527f6475636520616d6f756e74000000000000000000000000000000000000000000602082015250565b6000612948602b83612492565b9150612953826128ec565b604082019050919050565b600060208201905081810360008301526129778161293b565b9050919050565b7f496e76616c6964207061796d656e7420616d6f756e7400000000000000000000600082015250565b60006129b4601683612492565b91506129bf8261297e565b602082019050919050565b600060208201905081810360008301526129e3816129a7565b9050919050565b7f496e76616c6964207061796d656e7420747970652c20616363657074696e672060008201527f666f6f6420746f6b656e73206f6e6c7900000000000000000000000000000000602082015250565b6000612a46603083612492565b9150612a51826129ea565b604082019050919050565b60006020820190508181036000830152612a7581612a39565b9050919050565b6000612a8782611e9c565b9150612a9283611e9c565b9250827fffffffffffffffffffffffffffffffffffffffffffffffffffffffffffffffff03821115612ac757612ac661253e565b5b828201905092915050565b6000604082019050612ae7600083018561222c565b612af46020830184611ea6565b9392505050565b7f496e697469616c697a61626c653a20636f6e747261637420697320616c72656160008201527f647920696e697469616c697a6564000000000000000000000000000000000000602082015250565b6000612b57602e83612492565b9150612b6282612afb565b604082019050919050565b60006020820190508181036000830152612b8681612b4a565b9050919050565b7f4f776e61626c653a206e6577206f776e657220697320746865207a65726f206160008201527f6464726573730000000000000000000000000000000000000000000000000000602082015250565b6000612be9602683612492565b9150612bf482612b8d565b604082019050919050565b60006020820190508181036000830152612c1881612bdc565b9050919050565b7f496e697469616c697a61626c653a20636f6e7472616374206973206e6f74206960008201527f6e697469616c697a696e67000000000000000000000000000000000000000000602082015250565b6000612c7b602b83612492565b9150612c8682612c1f565b604082019050919050565b60006020820190508181036000830152612caa81612c6e565b905091905056fea2646970667358221220441b1261732195a27af10e9611abf667dd4cb72be533a52450a8c1bf67a1807064736f6c634300080a0033",
  "immutableReferences": {},
  "source": "// SPDX-License-Identifier: MIT\n\npragma solidity ^0.8.0;\n\nimport \"@openzeppelin/contracts-upgradeable/proxy/utils/Initializable.sol\";\nimport \"./ControllableUpgradeable.sol\";\nimport \"./FastFood.sol\";\n\ncontract Paywall is Initializable, OwnableUpgradeable, ControllableUpgradeable {\n  uint256 public mintPrice;\n  uint256 public gen1PriceTier0;\n  uint256 public gen1PriceTier1;\n  uint256 public gen1PriceTier2;\n  uint256 public gen1PriceTier3;\n  mapping(address => uint8) public whitelist; // Mapping from address to a number of remaining whitelist spots\n  mapping(address => uint8) public freeMints; // Mapping from address to a number of remaining free mint spots\n  bool public onlyWhitelist; // Whether minting is only open for whitelisted addresses\n\n  FastFood fastFood; // Reference to the $FFOOD contract\n\n  event UpdateWhitelist(address account, uint8 amount);\n  event UpdateFreeMints(address account, uint8 amount);\n\n  function initialize(address _fastFood) external initializer {\n    __Ownable_init();\n\n    fastFood = FastFood(_fastFood);\n    onlyWhitelist = false;\n  }\n\n  /**\n   * Allows DAO to update game parameters\n   */\n  function configure(uint256 _mintPrice, uint256[] memory _gen1Prices) external onlyOwner {\n    mintPrice = _mintPrice;\n    gen1PriceTier0 = _gen1Prices[0];\n    gen1PriceTier1 = _gen1Prices[1];\n    gen1PriceTier2 = _gen1Prices[2];\n    gen1PriceTier3 = _gen1Prices[3];\n  }\n\n  /**\n   * Toggles the whitelist on and off\n   * @param _enable - true enables it\n   */\n  function toggleWhitelist(bool _enable) external onlyOwner {\n    onlyWhitelist = _enable;\n  }\n\n  /**\n   * Adds a list of addresses to the whitelist\n   * @param addresses - An array of addresses to add\n   */\n  function addToWhitelist(address[] memory addresses) external onlyOwner {\n    for (uint i = 0; i < addresses.length; i++) {\n      uint8 amount = whitelist[addresses[i]];\n      whitelist[addresses[i]] = amount < 100 ? amount + 1 : 100;\n      emit UpdateWhitelist(addresses[i], whitelist[addresses[i]]);\n    }\n  }\n\n  /**\n   * Remove a list of addresses from the whitelist\n   * @param addresses - An array of addresses to remove\n   */\n  function removeFromWhitelist(address[] memory addresses) external onlyOwner {\n    for (uint i = 0; i < addresses.length; i++) {\n      uint8 amount = whitelist[addresses[i]];\n      whitelist[addresses[i]] = amount > 1 ? amount - 1 : 0;\n      emit UpdateWhitelist(addresses[i], whitelist[addresses[i]]);\n    }\n  }\n\n  /**\n   * Adds a list of addresses to the free mints\n   * @param addresses - An array of addresses to add\n   */\n  function addToFreeMints(address[] memory addresses) external onlyOwner {\n    for (uint i = 0; i < addresses.length; i++) {\n      uint8 amount = freeMints[addresses[i]];\n      freeMints[addresses[i]] = amount < 100 ? amount + 1 : 100;\n      emit UpdateFreeMints(addresses[i], freeMints[addresses[i]]);\n    }\n  }\n\n  /**\n   * Remove a list of addresses from the free mints\n   * @param addresses - An array of addresses to remove\n   */\n  function removeFromFreeMints(address[] memory addresses) external onlyOwner {\n    for (uint i = 0; i < addresses.length; i++) {\n      uint8 amount = freeMints[addresses[i]];\n      freeMints[addresses[i]] = amount > 1 ? amount - 1 : 0;\n      emit UpdateFreeMints(addresses[i], freeMints[addresses[i]]);\n    }\n  }\n\n  /**\n   * ChainLink VRF request: Mints a new ERC721 token: 90% chefs, 10% rats\n   * The first 20% are free to claim, the remaining cost $FFOOD\n   * @param sender - User wallet address\n   * @param amount - Number of tokens to mint\n   * @param msgValue - Value sent with the transaction\n   * @param minted - Number of total tokens minted\n   * @param maxTokens - Max number of tokens that can be minted\n   * @param gen0Tokens - Number of tokens that can be claimed for free\n   */\n  function handle(address sender, uint8 amount, uint256 msgValue, uint16 minted, uint256 maxTokens, uint256 gen0Tokens) external onlyController {\n    require(amount > 0 && amount <= 10, \"Invalid mint amount\");\n    require(minted + amount <= maxTokens, \"All tokens minted\");\n    uint256 txMintPrice = mintPrice;\n    if (onlyWhitelist) {\n      require(freeMints[sender] >= amount || whitelist[sender] >= amount, \"Not whitelisted\");\n    }\n    if (freeMints[sender] >= amount) {\n      freeMints[sender] -= amount;\n      emit UpdateFreeMints(sender, freeMints[sender]);\n      txMintPrice = 0;\n    } else if (whitelist[sender] >= amount) {\n      whitelist[sender] -= amount;\n      emit UpdateWhitelist(sender, whitelist[sender]);\n      txMintPrice = mintPrice * 90 / 100;\n    }\n    uint256 totalCost = 0;\n    if (minted < gen0Tokens) {\n      require(minted + amount <= gen0Tokens, \"Not enough Gen 0 tokens left, reduce amount\");\n      require(amount * txMintPrice == msgValue, \"Invalid payment amount\");\n    } else {\n      require(msgValue == 0, \"Invalid payment type, accepting food tokens only\");\n      for (uint i = 1; i <= amount; i++) {\n        totalCost += mintCost(minted + i, maxTokens, gen0Tokens);\n      }\n    }\n    if (totalCost > 0) fastFood.burn(sender, totalCost);\n  }\n\n  /**\n   *     1 - 10000: cost ETH\n   * 10001 - 20000: 1000 $FFOOD\n   * 20001 - 30000: 1500 $FFOOD\n   * 30001 - 40000: 2000 $FFOOD\n   * 40001 - 50000: 3000 $FFOOD\n   * @param tokenId - The token ID to check\n   * @return The minting cost of the given ID\n   */\n  function mintCost(uint256 tokenId, uint256 maxTokens, uint256 gen0Tokens) public view returns (uint256) {\n    if (tokenId <= gen0Tokens) return 0;\n    if (tokenId <= maxTokens * 2 / 5) return gen1PriceTier0;\n    if (tokenId <= maxTokens * 3 / 5) return gen1PriceTier1;\n    if (tokenId <= maxTokens * 4 / 5) return gen1PriceTier2;\n    return gen1PriceTier3;\n  }\n}\n",
  "sourcePath": "/Users/chris/workspace/ratalert/ratalert-contracts/contracts/Paywall.sol",
  "compiler": {
    "name": "solc",
    "version": "0.8.10+commit.fc410830.Emscripten.clang"
  },
  "schemaVersion": "3.4.5",
  "updatedAt": "2022-03-14T18:24:47.570Z",
  "networkType": "ethereum",
  "devdoc": {
    "kind": "dev",
    "methods": {
      "addController(address)": {
        "params": {
          "_controller": "- The address to enable"
        }
      },
      "addToFreeMints(address[])": {
        "params": {
          "addresses": "- An array of addresses to add"
        }
      },
      "addToWhitelist(address[])": {
        "params": {
          "addresses": "- An array of addresses to add"
        }
      },
      "controller(address)": {
        "params": {
          "_controller": "- The address to check"
        }
      },
      "handle(address,uint8,uint256,uint16,uint256,uint256)": {
        "params": {
          "amount": "- Number of tokens to mint",
          "gen0Tokens": "- Number of tokens that can be claimed for free",
          "maxTokens": "- Max number of tokens that can be minted",
          "minted": "- Number of total tokens minted",
          "msgValue": "- Value sent with the transaction",
          "sender": "- User wallet address"
        }
      },
      "mintCost(uint256,uint256,uint256)": {
        "params": {
          "tokenId": "- The token ID to check"
        },
        "returns": {
          "_0": "The minting cost of the given ID"
        }
      },
      "owner()": {
        "details": "Returns the address of the current owner."
      },
      "removeController(address)": {
        "params": {
          "_controller": "- The address to disable"
        }
      },
      "removeFromFreeMints(address[])": {
        "params": {
          "addresses": "- An array of addresses to remove"
        }
      },
      "removeFromWhitelist(address[])": {
        "params": {
          "addresses": "- An array of addresses to remove"
        }
      },
      "renounceOwnership()": {
        "details": "Leaves the contract without owner. It will not be possible to call `onlyOwner` functions anymore. Can only be called by the current owner. NOTE: Renouncing ownership will leave the contract without an owner, thereby removing any functionality that is only available to the owner."
      },
      "toggleWhitelist(bool)": {
        "params": {
          "_enable": "- true enables it"
        }
      },
      "transferOwnership(address)": {
        "details": "Transfers ownership of the contract to a new account (`newOwner`). Can only be called by the current owner."
      }
    },
    "version": 1
  },
  "userdoc": {
    "kind": "user",
    "methods": {
      "addController(address)": {
        "notice": "Enables an address to mint / burn"
      },
      "addToFreeMints(address[])": {
        "notice": "Adds a list of addresses to the free mints"
      },
      "addToWhitelist(address[])": {
        "notice": "Adds a list of addresses to the whitelist"
      },
      "configure(uint256,uint256[])": {
        "notice": "Allows DAO to update game parameters"
      },
      "controller(address)": {
        "notice": "Gets controller status by address"
      },
      "handle(address,uint8,uint256,uint16,uint256,uint256)": {
        "notice": "ChainLink VRF request: Mints a new ERC721 token: 90% chefs, 10% rats The first 20% are free to claim, the remaining cost $FFOOD"
      },
      "mintCost(uint256,uint256,uint256)": {
        "notice": "1 - 10000: cost ETH 10001 - 20000: 1000 $FFOOD 20001 - 30000: 1500 $FFOOD 30001 - 40000: 2000 $FFOOD 40001 - 50000: 3000 $FFOOD"
      },
      "removeController(address)": {
        "notice": "Disables an address from minting / burning"
      },
      "removeFromFreeMints(address[])": {
        "notice": "Remove a list of addresses from the free mints"
      },
      "removeFromWhitelist(address[])": {
        "notice": "Remove a list of addresses from the whitelist"
      },
      "toggleWhitelist(bool)": {
        "notice": "Toggles the whitelist on and off"
      }
    },
    "version": 1
  }
}