{
  "contractName": "Properties",
  "abi": [
    {
      "anonymous": false,
      "inputs": [
        {
          "indexed": true,
          "internalType": "address",
          "name": "previousOwner",
          "type": "address"
        },
        {
          "indexed": true,
          "internalType": "address",
          "name": "newOwner",
          "type": "address"
        }
      ],
      "name": "OwnershipTransferred",
      "type": "event"
    },
    {
      "inputs": [],
      "name": "disasterEfficiencyLossChef",
      "outputs": [
        {
          "internalType": "uint8",
          "name": "",
          "type": "uint8"
        }
      ],
      "stateMutability": "view",
      "type": "function",
      "constant": true
    },
    {
      "inputs": [],
      "name": "disasterEfficiencyLossRat",
      "outputs": [
        {
          "internalType": "uint8",
          "name": "",
          "type": "uint8"
        }
      ],
      "stateMutability": "view",
      "type": "function",
      "constant": true
    },
    {
      "inputs": [],
      "name": "disasterEfficiencyMinimumChef",
      "outputs": [
        {
          "internalType": "int8",
          "name": "",
          "type": "int8"
        }
      ],
      "stateMutability": "view",
      "type": "function",
      "constant": true
    },
    {
      "inputs": [],
      "name": "disasterEfficiencyMinimumRat",
      "outputs": [
        {
          "internalType": "int8",
          "name": "",
          "type": "int8"
        }
      ],
      "stateMutability": "view",
      "type": "function",
      "constant": true
    },
    {
      "inputs": [],
      "name": "disasterToleranceLossChef",
      "outputs": [
        {
          "internalType": "uint8",
          "name": "",
          "type": "uint8"
        }
      ],
      "stateMutability": "view",
      "type": "function",
      "constant": true
    },
    {
      "inputs": [],
      "name": "disasterToleranceLossRat",
      "outputs": [
        {
          "internalType": "uint8",
          "name": "",
          "type": "uint8"
        }
      ],
      "stateMutability": "view",
      "type": "function",
      "constant": true
    },
    {
      "inputs": [],
      "name": "mishapEfficiencyLossChef",
      "outputs": [
        {
          "internalType": "uint8",
          "name": "",
          "type": "uint8"
        }
      ],
      "stateMutability": "view",
      "type": "function",
      "constant": true
    },
    {
      "inputs": [],
      "name": "mishapEfficiencyLossRat",
      "outputs": [
        {
          "internalType": "uint8",
          "name": "",
          "type": "uint8"
        }
      ],
      "stateMutability": "view",
      "type": "function",
      "constant": true
    },
    {
      "inputs": [],
      "name": "mishapEfficiencyMinimumChef",
      "outputs": [
        {
          "internalType": "int8",
          "name": "",
          "type": "int8"
        }
      ],
      "stateMutability": "view",
      "type": "function",
      "constant": true
    },
    {
      "inputs": [],
      "name": "mishapEfficiencyMinimumRat",
      "outputs": [
        {
          "internalType": "int8",
          "name": "",
          "type": "int8"
        }
      ],
      "stateMutability": "view",
      "type": "function",
      "constant": true
    },
    {
      "inputs": [],
      "name": "mishapToleranceLossChef",
      "outputs": [
        {
          "internalType": "uint8",
          "name": "",
          "type": "uint8"
        }
      ],
      "stateMutability": "view",
      "type": "function",
      "constant": true
    },
    {
      "inputs": [],
      "name": "mishapToleranceLossRat",
      "outputs": [
        {
          "internalType": "uint8",
          "name": "",
          "type": "uint8"
        }
      ],
      "stateMutability": "view",
      "type": "function",
      "constant": true
    },
    {
      "inputs": [],
      "name": "owner",
      "outputs": [
        {
          "internalType": "address",
          "name": "",
          "type": "address"
        }
      ],
      "stateMutability": "view",
      "type": "function",
      "constant": true
    },
    {
      "inputs": [],
      "name": "renounceOwnership",
      "outputs": [],
      "stateMutability": "nonpayable",
      "type": "function"
    },
    {
      "inputs": [
        {
          "internalType": "address",
          "name": "newOwner",
          "type": "address"
        }
      ],
      "name": "transferOwnership",
      "outputs": [],
      "stateMutability": "nonpayable",
      "type": "function"
    },
    {
      "inputs": [
        {
          "internalType": "uint8[]",
          "name": "_disasterParams",
          "type": "uint8[]"
        },
        {
          "internalType": "uint8[]",
          "name": "_mishapParams",
          "type": "uint8[]"
        }
      ],
      "name": "initialize",
      "outputs": [],
      "stateMutability": "nonpayable",
      "type": "function"
    },
    {
      "inputs": [
        {
          "internalType": "bool",
          "name": "isChef",
          "type": "bool"
        },
        {
          "internalType": "uint8",
          "name": "currentEfficiency",
          "type": "uint8"
        },
        {
          "internalType": "uint8",
          "name": "currentTolerance",
          "type": "uint8"
        },
        {
          "internalType": "int8",
          "name": "efficiencyIncrement",
          "type": "int8"
        },
        {
          "internalType": "int8",
          "name": "toleranceIncrement",
          "type": "int8"
        },
        {
          "internalType": "uint256",
          "name": "randomVal",
          "type": "uint256"
        }
      ],
      "name": "getEventUpdates",
      "outputs": [
        {
          "internalType": "uint8",
          "name": "efficiencyValue",
          "type": "uint8"
        },
        {
          "internalType": "uint8",
          "name": "toleranceValue",
          "type": "uint8"
        },
        {
          "internalType": "string",
          "name": "eventName",
          "type": "string"
        }
      ],
      "stateMutability": "view",
      "type": "function",
      "constant": true
    }
  ],
  "bytecode": "0x608060405234801561001057600080fd5b50611a4d806100206000396000f3fe608060405234801561001057600080fd5b506004361061010b5760003560e01c8063704431c6116100a25780639891b413116100715780639891b41314610276578063b8be345914610294578063c065f695146102b2578063ec5ce126146102d0578063f2fde38b146102ee5761010b565b8063704431c614610212578063715018a6146102305780638da5cb5b1461023a57806392990198146102585761010b565b80633337e587116100de5780633337e587146101865780634718e308146101a45780634ffa59f7146101d65780635e264726146101f45761010b565b806308e4eee514610110578063112a23931461012c578063126076681461014a578063217c606f14610168575b600080fd5b61012a600480360381019061012591906110db565b61030a565b005b61013461068c565b6040516101419190611162565b60405180910390f35b61015261069f565b60405161015f9190611162565b60405180910390f35b6101706106b2565b60405161017d9190611199565b60405180910390f35b61018e6106c5565b60405161019b9190611162565b60405180910390f35b6101be60048036038101906101b9919061124e565b6106d8565b6040516101cd93929190611363565b60405180910390f35b6101de610854565b6040516101eb9190611162565b60405180910390f35b6101fc610867565b6040516102099190611162565b60405180910390f35b61021a61087a565b6040516102279190611199565b60405180910390f35b61023861088d565b005b610242610915565b60405161024f91906113e2565b60405180910390f35b61026061093f565b60405161026d9190611199565b60405180910390f35b61027e610952565b60405161028b9190611162565b60405180910390f35b61029c610965565b6040516102a99190611162565b60405180910390f35b6102ba610978565b6040516102c79190611199565b60405180910390f35b6102d861098b565b6040516102e59190611162565b60405180910390f35b61030860048036038101906103039190611429565b61099e565b005b600060019054906101000a900460ff166103325760008054906101000a900460ff161561033b565b61033a610a96565b5b61037a576040517f08c379a0000000000000000000000000000000000000000000000000000000008152600401610371906114c8565b60405180910390fd5b60008060019054906101000a900460ff1615905080156103ca576001600060016101000a81548160ff02191690831515021790555060016000806101000a81548160ff0219169083151502179055505b6103d2610aa7565b826000815181106103e6576103e56114e8565b5b6020026020010151606560006101000a81548160ff021916908360000b60ff1602179055508260018151811061041f5761041e6114e8565b5b6020026020010151606560016101000a81548160ff021916908360000b60ff16021790555082600281518110610458576104576114e8565b5b6020026020010151606560026101000a81548160ff021916908360ff1602179055508260038151811061048e5761048d6114e8565b5b6020026020010151606560036101000a81548160ff021916908360ff160217905550826004815181106104c4576104c36114e8565b5b6020026020010151606560046101000a81548160ff021916908360ff160217905550826005815181106104fa576104f96114e8565b5b6020026020010151606560056101000a81548160ff021916908360ff160217905550816000815181106105305761052f6114e8565b5b6020026020010151606560066101000a81548160ff021916908360000b60ff16021790555081600181518110610569576105686114e8565b5b6020026020010151606560076101000a81548160ff021916908360000b60ff160217905550816002815181106105a2576105a16114e8565b5b6020026020010151606560086101000a81548160ff021916908360ff160217905550816003815181106105d8576105d76114e8565b5b6020026020010151606560096101000a81548160ff021916908360ff1602179055508160048151811061060e5761060d6114e8565b5b60200260200101516065600a6101000a81548160ff021916908360ff16021790555081600581518110610644576106436114e8565b5b60200260200101516065600b6101000a81548160ff021916908360ff16021790555080156106875760008060016101000a81548160ff0219169083151502179055505b505050565b606560049054906101000a900460ff1681565b606560089054906101000a900460ff1681565b606560019054906101000a900460000b81565b6065600a9054906101000a900460ff1681565b60008060606040518060200160405280600081525090506106fa898986610b08565b1561078d57610707610bbc565b80935081945050508861074f576040518060400160405280600381526020017f6361740000000000000000000000000000000000000000000000000000000000815250610786565b6040518060400160405280600781526020017f6275726e6f7574000000000000000000000000000000000000000000000000008152505b9050610848565b610798898986610bca565b1561082e576107a8898989610c72565b8093508194505050886107f0576040518060400160405280600781526020017f7261745472617000000000000000000000000000000000000000000000000000815250610827565b6040518060400160405280600d81526020017f666f6f64496e73706563746f72000000000000000000000000000000000000008152505b9050610847565b6108388887610d29565b92506108448786610d29565b91505b5b96509650969350505050565b606560099054906101000a900460ff1681565b6065600b9054906101000a900460ff1681565b606560079054906101000a900460000b81565b610895610da2565b73ffffffffffffffffffffffffffffffffffffffff166108b3610915565b73ffffffffffffffffffffffffffffffffffffffff1614610909576040517f08c379a000000000000000000000000000000000000000000000000000000000815260040161090090611563565b60405180910390fd5b6109136000610daa565b565b6000603360009054906101000a900473ffffffffffffffffffffffffffffffffffffffff16905090565b606560009054906101000a900460000b81565b606560059054906101000a900460ff1681565b606560029054906101000a900460ff1681565b606560069054906101000a900460000b81565b606560039054906101000a900460ff1681565b6109a6610da2565b73ffffffffffffffffffffffffffffffffffffffff166109c4610915565b73ffffffffffffffffffffffffffffffffffffffff1614610a1a576040517f08c379a0000000000000000000000000000000000000000000000000000000008152600401610a1190611563565b60405180910390fd5b600073ffffffffffffffffffffffffffffffffffffffff168173ffffffffffffffffffffffffffffffffffffffff161415610a8a576040517f08c379a0000000000000000000000000000000000000000000000000000000008152600401610a81906115f5565b60405180910390fd5b610a9381610daa565b50565b6000610aa130610e70565b15905090565b600060019054906101000a900460ff16610af6576040517f08c379a0000000000000000000000000000000000000000000000000000000008152600401610aed90611687565b60405180910390fd5b610afe610e83565b610b06610ed4565b565b600083610b2457606560019054906101000a900460000b610b35565b606560009054906101000a900460000b5b60000b8360000b13610b4a5760009050610bb5565b60006014600a7ffffffffffffffffffffffffffffffffffffffffffffffffffffffffffffffffc606487610b7e91906116d6565b610b88919061177a565b610b9291906117e4565b610b9c91906118bd565b90508060ff166103e884610bb09190611932565b109150505b9392505050565b600080600080915091509091565b600083610be657606560079054906101000a900460000b610bf7565b606560069054906101000a900460000b5b60000b8360000b13610c0c5760009050610c6b565b600060147fffffffffffffffffffffffffffffffffffffffffffffffffffffffffffffffff606486610c3e91906116d6565b610c4891906117e4565b610c5291906118bd565b90508060ff166103e884610c669190611932565b109150505b9392505050565b600080600085610c9157606560099054906101000a900460ff16610ca2565b606560089054906101000a900460ff165b9050600086610cc0576065600b9054906101000a900460ff16610cd1565b6065600a9054906101000a900460ff165b90508560ff168260ff1611610cf1578186610cec9190611963565b610cf4565b60005b95508460ff168160ff1611610d14578085610d0f9190611963565b610d17565b60005b94508585935093505050935093915050565b6000808260000b12610d665760648383610d439190611997565b60ff1611610d5c578183610d579190611997565b610d5f565b60645b9050610d9c565b8260ff1682610d74906119ce565b60ff1611610d965781610d86906119ce565b83610d919190611963565b610d99565b60005b90505b92915050565b600033905090565b6000603360009054906101000a900473ffffffffffffffffffffffffffffffffffffffff16905081603360006101000a81548173ffffffffffffffffffffffffffffffffffffffff021916908373ffffffffffffffffffffffffffffffffffffffff1602179055508173ffffffffffffffffffffffffffffffffffffffff168173ffffffffffffffffffffffffffffffffffffffff167f8be0079c531659141344cd1fd0a4f28419497f9722a3daafe3b4186f6b6457e060405160405180910390a35050565b600080823b905060008111915050919050565b600060019054906101000a900460ff16610ed2576040517f08c379a0000000000000000000000000000000000000000000000000000000008152600401610ec990611687565b60405180910390fd5b565b600060019054906101000a900460ff16610f23576040517f08c379a0000000000000000000000000000000000000000000000000000000008152600401610f1a90611687565b60405180910390fd5b610f33610f2e610da2565b610daa565b565b6000604051905090565b600080fd5b600080fd5b600080fd5b6000601f19601f8301169050919050565b7f4e487b7100000000000000000000000000000000000000000000000000000000600052604160045260246000fd5b610f9782610f4e565b810181811067ffffffffffffffff82111715610fb657610fb5610f5f565b5b80604052505050565b6000610fc9610f35565b9050610fd58282610f8e565b919050565b600067ffffffffffffffff821115610ff557610ff4610f5f565b5b602082029050602081019050919050565b600080fd5b600060ff82169050919050565b6110218161100b565b811461102c57600080fd5b50565b60008135905061103e81611018565b92915050565b600061105761105284610fda565b610fbf565b9050808382526020820190506020840283018581111561107a57611079611006565b5b835b818110156110a3578061108f888261102f565b84526020840193505060208101905061107c565b5050509392505050565b600082601f8301126110c2576110c1610f49565b5b81356110d2848260208601611044565b91505092915050565b600080604083850312156110f2576110f1610f3f565b5b600083013567ffffffffffffffff8111156111105761110f610f44565b5b61111c858286016110ad565b925050602083013567ffffffffffffffff81111561113d5761113c610f44565b5b611149858286016110ad565b9150509250929050565b61115c8161100b565b82525050565b60006020820190506111776000830184611153565b92915050565b60008160000b9050919050565b6111938161117d565b82525050565b60006020820190506111ae600083018461118a565b92915050565b60008115159050919050565b6111c9816111b4565b81146111d457600080fd5b50565b6000813590506111e6816111c0565b92915050565b6111f58161117d565b811461120057600080fd5b50565b600081359050611212816111ec565b92915050565b6000819050919050565b61122b81611218565b811461123657600080fd5b50565b60008135905061124881611222565b92915050565b60008060008060008060c0878903121561126b5761126a610f3f565b5b600061127989828a016111d7565b965050602061128a89828a0161102f565b955050604061129b89828a0161102f565b94505060606112ac89828a01611203565b93505060806112bd89828a01611203565b92505060a06112ce89828a01611239565b9150509295509295509295565b600081519050919050565b600082825260208201905092915050565b60005b838110156113155780820151818401526020810190506112fa565b83811115611324576000848401525b50505050565b6000611335826112db565b61133f81856112e6565b935061134f8185602086016112f7565b61135881610f4e565b840191505092915050565b60006060820190506113786000830186611153565b6113856020830185611153565b8181036040830152611397818461132a565b9050949350505050565b600073ffffffffffffffffffffffffffffffffffffffff82169050919050565b60006113cc826113a1565b9050919050565b6113dc816113c1565b82525050565b60006020820190506113f760008301846113d3565b92915050565b611406816113c1565b811461141157600080fd5b50565b600081359050611423816113fd565b92915050565b60006020828403121561143f5761143e610f3f565b5b600061144d84828501611414565b91505092915050565b7f496e697469616c697a61626c653a20636f6e747261637420697320616c72656160008201527f647920696e697469616c697a6564000000000000000000000000000000000000602082015250565b60006114b2602e836112e6565b91506114bd82611456565b604082019050919050565b600060208201905081810360008301526114e1816114a5565b9050919050565b7f4e487b7100000000000000000000000000000000000000000000000000000000600052603260045260246000fd5b7f4f776e61626c653a2063616c6c6572206973206e6f7420746865206f776e6572600082015250565b600061154d6020836112e6565b915061155882611517565b602082019050919050565b6000602082019050818103600083015261157c81611540565b9050919050565b7f4f776e61626c653a206e6577206f776e657220697320746865207a65726f206160008201527f6464726573730000000000000000000000000000000000000000000000000000602082015250565b60006115df6026836112e6565b91506115ea82611583565b604082019050919050565b6000602082019050818103600083015261160e816115d2565b9050919050565b7f496e697469616c697a61626c653a20636f6e7472616374206973206e6f74206960008201527f6e697469616c697a696e67000000000000000000000000000000000000000000602082015250565b6000611671602b836112e6565b915061167c82611615565b604082019050919050565b600060208201905081810360008301526116a081611664565b9050919050565b7f4e487b7100000000000000000000000000000000000000000000000000000000600052601160045260246000fd5b60006116e18261117d565b91506116ec8361117d565b9250827fffffffffffffffffffffffffffffffffffffffffffffffffffffffffffffff8001821260008412151615611727576117266116a7565b5b82607f0182136000841216156117405761173f6116a7565b5b828203905092915050565b7f4e487b7100000000000000000000000000000000000000000000000000000000600052601260045260246000fd5b60006117858261117d565b91506117908361117d565b9250826117a05761179f61174b565b5b600160000383147fffffffffffffffffffffffffffffffffffffffffffffffffffffffffffffff80831416156117d9576117d86116a7565b5b828205905092915050565b60006117ef8261117d565b91506117fa8361117d565b925082607f048211600084136000841316161561181a576118196116a7565b5b817fffffffffffffffffffffffffffffffffffffffffffffffffffffffffffffff800583126000841260008413161615611857576118566116a7565b5b827fffffffffffffffffffffffffffffffffffffffffffffffffffffffffffffff800582126000841360008412161615611894576118936116a7565b5b82607f05821260008412600084121616156118b2576118b16116a7565b5b828202905092915050565b60006118c88261117d565b91506118d38361117d565b925081607f038313600083121516156118ef576118ee6116a7565b5b817fffffffffffffffffffffffffffffffffffffffffffffffffffffffffffffff80038312600083121615611927576119266116a7565b5b828201905092915050565b600061193d82611218565b915061194883611218565b9250826119585761195761174b565b5b828206905092915050565b600061196e8261100b565b91506119798361100b565b92508282101561198c5761198b6116a7565b5b828203905092915050565b60006119a28261100b565b91506119ad8361100b565b92508260ff038211156119c3576119c26116a7565b5b828201905092915050565b60006119d98261117d565b91507fffffffffffffffffffffffffffffffffffffffffffffffffffffffffffffff80821415611a0c57611a0b6116a7565b5b81600003905091905056fea2646970667358221220bb226d23e5e41fbd8d07ba23ebc835cd6da4fc85435cd9154efe4e8807ef5bb964736f6c634300080a0033",
  "immutableReferences": {},
  "source": "// SPDX-License-Identifier: MIT\n\npragma solidity ^0.8.0;\n\nimport \"@openzeppelin/contracts-upgradeable/proxy/utils/Initializable.sol\";\nimport \"@openzeppelin/contracts-upgradeable/access/OwnableUpgradeable.sol\";\nimport \"@openzeppelin/contracts-upgradeable/token/ERC721/ERC721Upgradeable.sol\";\n\ncontract Properties is Initializable, OwnableUpgradeable {\n  int8 public disasterEfficiencyMinimumChef; // Minimum skill percentage for chefs during a burnout event\n  int8 public disasterEfficiencyMinimumRat; // Minimum intelligence percentage for rats during a burnout event\n  uint8 public disasterEfficiencyLossChef; // Skill percentage loss for chefs during a burnout event\n  uint8 public disasterEfficiencyLossRat; // Intelligence percentage loss for rats during a cat event\n  uint8 public disasterToleranceLossChef; // Insanity percentage loss for chefs during a burnout event\n  uint8 public disasterToleranceLossRat; // Fatness percentage loss for rats during a cat event\n\n  int8 public mishapEfficiencyMinimumChef; // Minimum skill percentage for chefs during a foot inspector event\n  int8 public mishapEfficiencyMinimumRat; // Minimum intelligence percentage for rats during a rat trap event\n  uint8 public mishapEfficiencyLossChef; // Skill percentage loss for chefs during a food inspector event\n  uint8 public mishapEfficiencyLossRat; // Intelligence percentage loss for rats during a rat trap event\n  uint8 public mishapToleranceLossChef; // Insanity percentage loss for chefs during a food inspector event\n  uint8 public mishapToleranceLossRat; // Fatness percentage loss for rats during a rat trap event\n\n  function initialize(uint8[] memory _disasterParams, uint8[] memory _mishapParams) external initializer {\n    __Ownable_init();\n\n    disasterEfficiencyMinimumChef = int8(_disasterParams[0]);\n    disasterEfficiencyMinimumRat = int8(_disasterParams[1]);\n    disasterEfficiencyLossChef = _disasterParams[2];\n    disasterEfficiencyLossRat = _disasterParams[3];\n    disasterToleranceLossChef = _disasterParams[4];\n    disasterToleranceLossRat = _disasterParams[5];\n\n    mishapEfficiencyMinimumChef = int8(_mishapParams[0]);\n    mishapEfficiencyMinimumRat = int8(_mishapParams[1]);\n    mishapEfficiencyLossChef = _mishapParams[2];\n    mishapEfficiencyLossRat = _mishapParams[3];\n    mishapToleranceLossChef = _mishapParams[4];\n    mishapToleranceLossRat = _mishapParams[5];\n  }\n\n  /**\n   * Does a burnout / cat event occur?\n   * @param isChef - Whether it's a Chef or not\n   * @param efficiency - The character's current value\n   * @param randomVal - A ChainLink VRF random number\n   * @return true if event occurred\n   */\n  function _doesDisasterOccur(bool isChef, int8 efficiency, uint256 randomVal) internal view returns(bool) {\n    if (efficiency <= (isChef ? disasterEfficiencyMinimumChef : disasterEfficiencyMinimumRat)) {\n      return false;\n    }\n    uint8 likelihood = uint8(((efficiency - 100) / -4 * 10) + 20);\n    return randomVal % 1000 < likelihood;\n  }\n\n  /**\n   * Does a food inspector / rat trap event occur?\n   * @param isChef - Whether it's a Chef or not\n   * @param efficiency - The character's current value\n   * @param randomVal - A ChainLink VRF random number\n   * @return true if event occurred\n   */\n  function _doesMishapOccur(bool isChef, int8 efficiency, uint256 randomVal) internal view returns(bool) {\n    if (efficiency <= (isChef ? mishapEfficiencyMinimumChef : mishapEfficiencyMinimumRat)) {\n      return false;\n    }\n    uint8 likelihood = uint8(((efficiency - 100) * -1) + 20);\n    return randomVal % 1000 < likelihood;\n  }\n\n  function _resolveDisaster() internal pure returns(uint8, uint8) {\n    return (0, 0);\n  }\n\n  function _resolveMishap(bool isChef, uint8 efficiencyValue, uint8 toleranceValue) internal view returns(uint8, uint8) {\n    uint8 efficiencyLoss = isChef ? mishapEfficiencyLossChef : mishapEfficiencyLossRat;\n    uint8 toleranceLoss = isChef ? mishapToleranceLossChef : mishapToleranceLossRat;\n    efficiencyValue = (efficiencyLoss > efficiencyValue) ? 0 : efficiencyValue - efficiencyLoss;\n    toleranceValue = (toleranceLoss > toleranceValue) ? 0 : toleranceValue - toleranceLoss;\n    return (efficiencyValue, toleranceValue);\n  }\n\n  function _getUpdatedValue(uint8 old, int8 increment) internal pure returns(uint8) {\n    if (increment >= 0) {\n      return (uint8(increment) + old > 100) ? 100 : old + uint8(increment);\n    } else {\n      return (uint8(-increment) > old) ? 0 : old - uint8(-increment);\n    }\n  }\n\n  function getEventUpdates(bool isChef, uint8 currentEfficiency, uint8 currentTolerance, int8 efficiencyIncrement, int8 toleranceIncrement, uint256 randomVal) public view returns(uint8 efficiencyValue, uint8 toleranceValue, string memory eventName) {\n    eventName = \"\";\n    if (_doesDisasterOccur(isChef, int8(currentEfficiency), randomVal)) {\n      (efficiencyValue, toleranceValue) = _resolveDisaster();\n      eventName = isChef ? \"burnout\" : \"cat\";\n    } else if (_doesMishapOccur(isChef, int8(currentEfficiency), randomVal)) {\n      (efficiencyValue, toleranceValue) = _resolveMishap(isChef, currentEfficiency, currentTolerance);\n      eventName = isChef ? \"foodInspector\" : \"ratTrap\";\n    } else {\n      efficiencyValue = _getUpdatedValue(currentEfficiency, efficiencyIncrement);\n      toleranceValue = _getUpdatedValue(currentTolerance, toleranceIncrement);\n    }\n  }\n}\n",
  "sourcePath": "/Users/chris/workspace/ratalert/ratalert-contracts/contracts/Properties.sol",
  "compiler": {
    "name": "solc",
    "version": "0.8.10+commit.fc410830.Emscripten.clang"
  },
  "schemaVersion": "3.4.5",
  "updatedAt": "2022-03-12T10:31:31.726Z",
  "networkType": "ethereum",
  "devdoc": {
    "kind": "dev",
    "methods": {
      "owner()": {
        "details": "Returns the address of the current owner."
      },
      "renounceOwnership()": {
        "details": "Leaves the contract without owner. It will not be possible to call `onlyOwner` functions anymore. Can only be called by the current owner. NOTE: Renouncing ownership will leave the contract without an owner, thereby removing any functionality that is only available to the owner."
      },
      "transferOwnership(address)": {
        "details": "Transfers ownership of the contract to a new account (`newOwner`). Can only be called by the current owner."
      }
    },
    "version": 1
  },
  "userdoc": {
    "kind": "user",
    "methods": {},
    "version": 1
  }
}