{
  "contractName": "Properties",
  "abi": [
    {
      "anonymous": false,
      "inputs": [
        {
          "indexed": true,
          "internalType": "address",
          "name": "previousOwner",
          "type": "address"
        },
        {
          "indexed": true,
          "internalType": "address",
          "name": "newOwner",
          "type": "address"
        }
      ],
      "name": "OwnershipTransferred",
      "type": "event"
    },
    {
      "inputs": [],
      "name": "disasterEfficiencyLossChef",
      "outputs": [
        {
          "internalType": "uint8",
          "name": "",
          "type": "uint8"
        }
      ],
      "stateMutability": "view",
      "type": "function"
    },
    {
      "inputs": [],
      "name": "disasterEfficiencyLossRat",
      "outputs": [
        {
          "internalType": "uint8",
          "name": "",
          "type": "uint8"
        }
      ],
      "stateMutability": "view",
      "type": "function"
    },
    {
      "inputs": [],
      "name": "disasterLikelihoodDividerChef",
      "outputs": [
        {
          "internalType": "int16",
          "name": "",
          "type": "int16"
        }
      ],
      "stateMutability": "view",
      "type": "function"
    },
    {
      "inputs": [],
      "name": "disasterLikelihoodDividerRat",
      "outputs": [
        {
          "internalType": "int16",
          "name": "",
          "type": "int16"
        }
      ],
      "stateMutability": "view",
      "type": "function"
    },
    {
      "inputs": [],
      "name": "disasterLikelihoodMultiplierChef",
      "outputs": [
        {
          "internalType": "int16",
          "name": "",
          "type": "int16"
        }
      ],
      "stateMutability": "view",
      "type": "function"
    },
    {
      "inputs": [],
      "name": "disasterLikelihoodMultiplierRat",
      "outputs": [
        {
          "internalType": "int16",
          "name": "",
          "type": "int16"
        }
      ],
      "stateMutability": "view",
      "type": "function"
    },
    {
      "inputs": [],
      "name": "disasterLikelihoodOffsetChef",
      "outputs": [
        {
          "internalType": "int16",
          "name": "",
          "type": "int16"
        }
      ],
      "stateMutability": "view",
      "type": "function"
    },
    {
      "inputs": [],
      "name": "disasterLikelihoodOffsetRat",
      "outputs": [
        {
          "internalType": "int16",
          "name": "",
          "type": "int16"
        }
      ],
      "stateMutability": "view",
      "type": "function"
    },
    {
      "inputs": [],
      "name": "disasterToleranceLossChef",
      "outputs": [
        {
          "internalType": "uint8",
          "name": "",
          "type": "uint8"
        }
      ],
      "stateMutability": "view",
      "type": "function"
    },
    {
      "inputs": [],
      "name": "disasterToleranceLossRat",
      "outputs": [
        {
          "internalType": "uint8",
          "name": "",
          "type": "uint8"
        }
      ],
      "stateMutability": "view",
      "type": "function"
    },
    {
      "inputs": [],
      "name": "disasterToleranceMinimumChef",
      "outputs": [
        {
          "internalType": "int8",
          "name": "",
          "type": "int8"
        }
      ],
      "stateMutability": "view",
      "type": "function"
    },
    {
      "inputs": [],
      "name": "disasterToleranceMinimumRat",
      "outputs": [
        {
          "internalType": "int8",
          "name": "",
          "type": "int8"
        }
      ],
      "stateMutability": "view",
      "type": "function"
    },
    {
      "inputs": [],
      "name": "mishapEfficiencyLossChef",
      "outputs": [
        {
          "internalType": "uint8",
          "name": "",
          "type": "uint8"
        }
      ],
      "stateMutability": "view",
      "type": "function"
    },
    {
      "inputs": [],
      "name": "mishapEfficiencyLossRat",
      "outputs": [
        {
          "internalType": "uint8",
          "name": "",
          "type": "uint8"
        }
      ],
      "stateMutability": "view",
      "type": "function"
    },
    {
      "inputs": [],
      "name": "mishapEfficiencyMinimumChef",
      "outputs": [
        {
          "internalType": "int8",
          "name": "",
          "type": "int8"
        }
      ],
      "stateMutability": "view",
      "type": "function"
    },
    {
      "inputs": [],
      "name": "mishapEfficiencyMinimumRat",
      "outputs": [
        {
          "internalType": "int8",
          "name": "",
          "type": "int8"
        }
      ],
      "stateMutability": "view",
      "type": "function"
    },
    {
      "inputs": [],
      "name": "mishapLikelihoodDividerChef",
      "outputs": [
        {
          "internalType": "int16",
          "name": "",
          "type": "int16"
        }
      ],
      "stateMutability": "view",
      "type": "function"
    },
    {
      "inputs": [],
      "name": "mishapLikelihoodDividerRat",
      "outputs": [
        {
          "internalType": "int16",
          "name": "",
          "type": "int16"
        }
      ],
      "stateMutability": "view",
      "type": "function"
    },
    {
      "inputs": [],
      "name": "mishapLikelihoodMultiplierChef",
      "outputs": [
        {
          "internalType": "int16",
          "name": "",
          "type": "int16"
        }
      ],
      "stateMutability": "view",
      "type": "function"
    },
    {
      "inputs": [],
      "name": "mishapLikelihoodMultiplierRat",
      "outputs": [
        {
          "internalType": "int16",
          "name": "",
          "type": "int16"
        }
      ],
      "stateMutability": "view",
      "type": "function"
    },
    {
      "inputs": [],
      "name": "mishapLikelihoodOffsetChef",
      "outputs": [
        {
          "internalType": "int16",
          "name": "",
          "type": "int16"
        }
      ],
      "stateMutability": "view",
      "type": "function"
    },
    {
      "inputs": [],
      "name": "mishapLikelihoodOffsetRat",
      "outputs": [
        {
          "internalType": "int16",
          "name": "",
          "type": "int16"
        }
      ],
      "stateMutability": "view",
      "type": "function"
    },
    {
      "inputs": [],
      "name": "mishapToleranceLossChef",
      "outputs": [
        {
          "internalType": "uint8",
          "name": "",
          "type": "uint8"
        }
      ],
      "stateMutability": "view",
      "type": "function"
    },
    {
      "inputs": [],
      "name": "mishapToleranceLossRat",
      "outputs": [
        {
          "internalType": "uint8",
          "name": "",
          "type": "uint8"
        }
      ],
      "stateMutability": "view",
      "type": "function"
    },
    {
      "inputs": [],
      "name": "owner",
      "outputs": [
        {
          "internalType": "address",
          "name": "",
          "type": "address"
        }
      ],
      "stateMutability": "view",
      "type": "function"
    },
    {
      "inputs": [],
      "name": "renounceOwnership",
      "outputs": [],
      "stateMutability": "nonpayable",
      "type": "function"
    },
    {
      "inputs": [
        {
          "internalType": "address",
          "name": "newOwner",
          "type": "address"
        }
      ],
      "name": "transferOwnership",
      "outputs": [],
      "stateMutability": "nonpayable",
      "type": "function"
    },
    {
      "inputs": [],
      "name": "initialize",
      "outputs": [],
      "stateMutability": "nonpayable",
      "type": "function"
    },
    {
      "inputs": [
        {
          "internalType": "uint8[]",
          "name": "_disasterParams",
          "type": "uint8[]"
        },
        {
          "internalType": "uint8[]",
          "name": "_mishapParams",
          "type": "uint8[]"
        },
        {
          "internalType": "int16[]",
          "name": "_likelihoodParams",
          "type": "int16[]"
        }
      ],
      "name": "configure",
      "outputs": [],
      "stateMutability": "nonpayable",
      "type": "function"
    },
    {
      "inputs": [
        {
          "internalType": "bool",
          "name": "isChef",
          "type": "bool"
        },
        {
          "internalType": "uint8",
          "name": "currentEfficiency",
          "type": "uint8"
        },
        {
          "internalType": "uint8",
          "name": "currentTolerance",
          "type": "uint8"
        },
        {
          "internalType": "int8",
          "name": "efficiencyIncrement",
          "type": "int8"
        },
        {
          "internalType": "int8",
          "name": "toleranceIncrement",
          "type": "int8"
        },
        {
          "internalType": "uint256",
          "name": "randomVal",
          "type": "uint256"
        }
      ],
      "name": "getEventUpdates",
      "outputs": [
        {
          "internalType": "uint8",
          "name": "efficiencyValue",
          "type": "uint8"
        },
        {
          "internalType": "uint8",
          "name": "toleranceValue",
          "type": "uint8"
        },
        {
          "internalType": "string",
          "name": "eventName",
          "type": "string"
        }
      ],
      "stateMutability": "view",
      "type": "function"
    }
  ],
  "bytecode": "0x608060405234801561001057600080fd5b506122d8806100206000396000f3fe608060405234801561001057600080fd5b50600436106101da5760003560e01c80637a9d108f11610104578063c065f695116100a2578063ec43f3e011610071578063ec43f3e0146104d7578063ec5ce126146104f5578063efb8f5fe14610513578063f2fde38b1461052f576101da565b8063c065f6951461045f578063c8a9cfff1461047d578063d889decb1461049b578063ea2c7b40146104b9576101da565b80639891b413116100de5780639891b413146103e7578063acf1dc0314610405578063afc1518314610423578063b8be345914610441576101da565b80637a9d108f146103a15780638129fc1c146103bf5780638da5cb5b146103c9576101da565b80634718e3081161017c5780636a21215f1161014b5780636a21215f1461033d578063704431c61461035b578063715018a6146103795780637a55d38d14610383576101da565b80634718e308146102b157806347a4b69f146102e35780634ffa59f7146103015780635e2647261461031f576101da565b806326c134c9116101b857806326c134c914610239578063273622cb146102575780632df8f0f6146102755780633337e58714610293576101da565b8063112a2393146101df57806312607668146101fd5780631ad154571461021b575b600080fd5b6101e761054b565b6040516101f49190611684565b60405180910390f35b61020561055e565b6040516102129190611684565b60405180910390f35b610223610571565b60405161023091906116bb565b60405180910390f35b610241610584565b60405161024e91906116f2565b60405180910390f35b61025f610597565b60405161026c91906116bb565b60405180910390f35b61027d6105aa565b60405161028a91906116bb565b60405180910390f35b61029b6105bd565b6040516102a89190611684565b60405180910390f35b6102cb60048036038101906102c691906117e7565b6105d0565b6040516102da9392919061190d565b60405180910390f35b6102eb61074d565b6040516102f891906116bb565b60405180910390f35b610309610760565b6040516103169190611684565b60405180910390f35b610327610773565b6040516103349190611684565b60405180910390f35b610345610786565b60405161035291906116bb565b60405180910390f35b610363610799565b60405161037091906116f2565b60405180910390f35b6103816107ac565b005b61038b610834565b60405161039891906116bb565b60405180910390f35b6103a9610847565b6040516103b691906116bb565b60405180910390f35b6103c761085a565b005b6103d1610946565b6040516103de919061198c565b60405180910390f35b6103ef610970565b6040516103fc9190611684565b60405180910390f35b61040d610983565b60405161041a91906116f2565b60405180910390f35b61042b610996565b60405161043891906116bb565b60405180910390f35b6104496109a9565b6040516104569190611684565b60405180910390f35b6104676109bc565b60405161047491906116f2565b60405180910390f35b6104856109cf565b60405161049291906116bb565b60405180910390f35b6104a36109e2565b6040516104b091906116bb565b60405180910390f35b6104c16109f5565b6040516104ce91906116bb565b60405180910390f35b6104df610a08565b6040516104ec91906116bb565b60405180910390f35b6104fd610a1b565b60405161050a9190611684565b60405180910390f35b61052d60048036038101906105289190611bde565b610a2e565b005b61054960048036038101906105449190611cb1565b611007565b005b606560049054906101000a900460ff1681565b606560089054906101000a900460ff1681565b6065601c9054906101000a900460010b81565b606560009054906101000a900460000b81565b606560169054906101000a900460010b81565b606560109054906101000a900460010b81565b6065600a9054906101000a900460ff1681565b60008060606040518060200160405280600081525090506105f3898989876110ff565b1561068657610600611237565b809350819450505088610648576040518060400160405280600381526020017f636174000000000000000000000000000000000000000000000000000000000081525061067f565b6040518060400160405280600781526020017f6275726e6f7574000000000000000000000000000000000000000000000000008152505b9050610741565b610691898986611245565b15610727576106a189898961137c565b8093508194505050886106e9576040518060400160405280600781526020017f7261745472617000000000000000000000000000000000000000000000000000815250610720565b6040518060400160405280600d81526020017f666f6f64496e73706563746f72000000000000000000000000000000000000008152505b9050610740565b6107318887611433565b925061073d8786611433565b91505b5b96509650969350505050565b6065600c9054906101000a900460010b81565b606560099054906101000a900460ff1681565b6065600b9054906101000a900460ff1681565b6065601a9054906101000a900460010b81565b606560079054906101000a900460000b81565b6107b46114ac565b73ffffffffffffffffffffffffffffffffffffffff166107d2610946565b73ffffffffffffffffffffffffffffffffffffffff1614610828576040517f08c379a000000000000000000000000000000000000000000000000000000000815260040161081f90611d2a565b60405180910390fd5b61083260006114b4565b565b606560189054906101000a900460010b81565b606660009054906101000a900460010b81565b600060019054906101000a900460ff166108825760008054906101000a900460ff161561088b565b61088a61157a565b5b6108ca576040517f08c379a00000000000000000000000000000000000000000000000000000000081526004016108c190611dbc565b60405180910390fd5b60008060019054906101000a900460ff16159050801561091a576001600060016101000a81548160ff02191690831515021790555060016000806101000a81548160ff0219169083151502179055505b61092261158b565b80156109435760008060016101000a81548160ff0219169083151502179055505b50565b6000603360009054906101000a900473ffffffffffffffffffffffffffffffffffffffff16905090565b606560059054906101000a900460ff1681565b606560019054906101000a900460000b81565b606660029054906101000a900460010b81565b606560029054906101000a900460ff1681565b606560069054906101000a900460000b81565b6065600e9054906101000a900460010b81565b606560149054906101000a900460010b81565b606560129054906101000a900460010b81565b6065601e9054906101000a900460010b81565b606560039054906101000a900460ff1681565b610a366114ac565b73ffffffffffffffffffffffffffffffffffffffff16610a54610946565b73ffffffffffffffffffffffffffffffffffffffff1614610aaa576040517f08c379a0000000000000000000000000000000000000000000000000000000008152600401610aa190611d2a565b60405180910390fd5b82600081518110610abe57610abd611ddc565b5b6020026020010151606560006101000a81548160ff021916908360000b60ff16021790555082600181518110610af757610af6611ddc565b5b6020026020010151606560016101000a81548160ff021916908360000b60ff16021790555082600281518110610b3057610b2f611ddc565b5b6020026020010151606560026101000a81548160ff021916908360ff16021790555082600381518110610b6657610b65611ddc565b5b6020026020010151606560036101000a81548160ff021916908360ff16021790555082600481518110610b9c57610b9b611ddc565b5b6020026020010151606560046101000a81548160ff021916908360ff16021790555082600581518110610bd257610bd1611ddc565b5b6020026020010151606560056101000a81548160ff021916908360ff16021790555081600081518110610c0857610c07611ddc565b5b6020026020010151606560066101000a81548160ff021916908360000b60ff16021790555081600181518110610c4157610c40611ddc565b5b6020026020010151606560076101000a81548160ff021916908360000b60ff16021790555081600281518110610c7a57610c79611ddc565b5b6020026020010151606560086101000a81548160ff021916908360ff16021790555081600381518110610cb057610caf611ddc565b5b6020026020010151606560096101000a81548160ff021916908360ff16021790555081600481518110610ce657610ce5611ddc565b5b60200260200101516065600a6101000a81548160ff021916908360ff16021790555081600581518110610d1c57610d1b611ddc565b5b60200260200101516065600b6101000a81548160ff021916908360ff16021790555080600081518110610d5257610d51611ddc565b5b60200260200101516065600c6101000a81548161ffff021916908360010b61ffff16021790555080600181518110610d8d57610d8c611ddc565b5b60200260200101516065600e6101000a81548161ffff021916908360010b61ffff16021790555080600281518110610dc857610dc7611ddc565b5b6020026020010151606560106101000a81548161ffff021916908360010b61ffff16021790555080600381518110610e0357610e02611ddc565b5b6020026020010151606560126101000a81548161ffff021916908360010b61ffff16021790555080600481518110610e3e57610e3d611ddc565b5b6020026020010151606560146101000a81548161ffff021916908360010b61ffff16021790555080600581518110610e7957610e78611ddc565b5b6020026020010151606560166101000a81548161ffff021916908360010b61ffff16021790555080600681518110610eb457610eb3611ddc565b5b6020026020010151606560186101000a81548161ffff021916908360010b61ffff16021790555080600781518110610eef57610eee611ddc565b5b60200260200101516065601a6101000a81548161ffff021916908360010b61ffff16021790555080600881518110610f2a57610f29611ddc565b5b60200260200101516065601c6101000a81548161ffff021916908360010b61ffff16021790555080600981518110610f6557610f64611ddc565b5b60200260200101516065601e6101000a81548161ffff021916908360010b61ffff16021790555080600a81518110610fa057610f9f611ddc565b5b6020026020010151606660006101000a81548161ffff021916908360010b61ffff16021790555080600b81518110610fdb57610fda611ddc565b5b6020026020010151606660026101000a81548161ffff021916908360010b61ffff160217905550505050565b61100f6114ac565b73ffffffffffffffffffffffffffffffffffffffff1661102d610946565b73ffffffffffffffffffffffffffffffffffffffff1614611083576040517f08c379a000000000000000000000000000000000000000000000000000000000815260040161107a90611d2a565b60405180910390fd5b600073ffffffffffffffffffffffffffffffffffffffff168173ffffffffffffffffffffffffffffffffffffffff1614156110f3576040517f08c379a00000000000000000000000000000000000000000000000000000000081526004016110ea90611e7d565b60405180910390fd5b6110fc816114b4565b50565b600080821415611112576000905061122f565b8461112c57606560019054906101000a900460000b61113d565b606560009054906101000a900460000b5b60000b8360000b13611152576000905061122f565b60008561116e57606560129054906101000a900460010b61117f565b6065600c9054906101000a900460010b5b905060008661119d57606560149054906101000a900460010b6111ae565b6065600e9054906101000a900460010b5b90506000876111cc57606560169054906101000a900460010b6111dd565b606560109054906101000a900460010b5b9050600081838560648b6111f19190611ecc565b60000b6111fe9190611f70565b6112089190611fda565b61121291906120b5565b90508061ffff166103e887611227919061212b565b109450505050505b949350505050565b600080600080915091509091565b6000808214156112585760009050611375565b8361127257606560079054906101000a900460000b611283565b606560069054906101000a900460000b5b60000b8360000b136112985760009050611375565b6000846112b4576065601e9054906101000a900460010b6112c5565b606560189054906101000a900460010b5b90506000856112e357606660009054906101000a900460010b6112f4565b6065601a9054906101000a900460010b5b905060008661131257606660029054906101000a900460010b611323565b6065601c9054906101000a900460010b5b9050600081838560648a6113379190611ecc565b60000b6113449190611f70565b61134e9190611fda565b61135891906120b5565b90508061ffff166103e88761136d919061212b565b109450505050505b9392505050565b60008060008561139b57606560099054906101000a900460ff166113ac565b606560089054906101000a900460ff165b90506000866113ca576065600b9054906101000a900460ff166113db565b6065600a9054906101000a900460ff165b90508560ff168260ff16116113fb5781866113f6919061215c565b6113fe565b60005b95508460ff168160ff161161141e578085611419919061215c565b611421565b60005b94508585935093505050935093915050565b6000808260000b12611470576064838361144d9190612190565b60ff16116114665781836114619190612190565b611469565b60645b90506114a6565b8260ff168261147e906121c7565b60ff16116114a05781611490906121c7565b8361149b919061215c565b6114a3565b60005b90505b92915050565b600033905090565b6000603360009054906101000a900473ffffffffffffffffffffffffffffffffffffffff16905081603360006101000a81548173ffffffffffffffffffffffffffffffffffffffff021916908373ffffffffffffffffffffffffffffffffffffffff1602179055508173ffffffffffffffffffffffffffffffffffffffff168173ffffffffffffffffffffffffffffffffffffffff167f8be0079c531659141344cd1fd0a4f28419497f9722a3daafe3b4186f6b6457e060405160405180910390a35050565b6000611585306115e4565b15905090565b600060019054906101000a900460ff166115da576040517f08c379a00000000000000000000000000000000000000000000000000000000081526004016115d190612282565b60405180910390fd5b6115e2611607565b565b6000808273ffffffffffffffffffffffffffffffffffffffff163b119050919050565b600060019054906101000a900460ff16611656576040517f08c379a000000000000000000000000000000000000000000000000000000000815260040161164d90612282565b60405180910390fd5b6116666116616114ac565b6114b4565b565b600060ff82169050919050565b61167e81611668565b82525050565b60006020820190506116996000830184611675565b92915050565b60008160010b9050919050565b6116b58161169f565b82525050565b60006020820190506116d060008301846116ac565b92915050565b60008160000b9050919050565b6116ec816116d6565b82525050565b600060208201905061170760008301846116e3565b92915050565b6000604051905090565b600080fd5b600080fd5b60008115159050919050565b61173681611721565b811461174157600080fd5b50565b6000813590506117538161172d565b92915050565b61176281611668565b811461176d57600080fd5b50565b60008135905061177f81611759565b92915050565b61178e816116d6565b811461179957600080fd5b50565b6000813590506117ab81611785565b92915050565b6000819050919050565b6117c4816117b1565b81146117cf57600080fd5b50565b6000813590506117e1816117bb565b92915050565b60008060008060008060c0878903121561180457611803611717565b5b600061181289828a01611744565b965050602061182389828a01611770565b955050604061183489828a01611770565b945050606061184589828a0161179c565b935050608061185689828a0161179c565b92505060a061186789828a016117d2565b9150509295509295509295565b600081519050919050565b600082825260208201905092915050565b60005b838110156118ae578082015181840152602081019050611893565b838111156118bd576000848401525b50505050565b6000601f19601f8301169050919050565b60006118df82611874565b6118e9818561187f565b93506118f9818560208601611890565b611902816118c3565b840191505092915050565b60006060820190506119226000830186611675565b61192f6020830185611675565b818103604083015261194181846118d4565b9050949350505050565b600073ffffffffffffffffffffffffffffffffffffffff82169050919050565b60006119768261194b565b9050919050565b6119868161196b565b82525050565b60006020820190506119a1600083018461197d565b92915050565b600080fd5b7f4e487b7100000000000000000000000000000000000000000000000000000000600052604160045260246000fd5b6119e4826118c3565b810181811067ffffffffffffffff82111715611a0357611a026119ac565b5b80604052505050565b6000611a1661170d565b9050611a2282826119db565b919050565b600067ffffffffffffffff821115611a4257611a416119ac565b5b602082029050602081019050919050565b600080fd5b6000611a6b611a6684611a27565b611a0c565b90508083825260208201905060208402830185811115611a8e57611a8d611a53565b5b835b81811015611ab75780611aa38882611770565b845260208401935050602081019050611a90565b5050509392505050565b600082601f830112611ad657611ad56119a7565b5b8135611ae6848260208601611a58565b91505092915050565b600067ffffffffffffffff821115611b0a57611b096119ac565b5b602082029050602081019050919050565b611b248161169f565b8114611b2f57600080fd5b50565b600081359050611b4181611b1b565b92915050565b6000611b5a611b5584611aef565b611a0c565b90508083825260208201905060208402830185811115611b7d57611b7c611a53565b5b835b81811015611ba65780611b928882611b32565b845260208401935050602081019050611b7f565b5050509392505050565b600082601f830112611bc557611bc46119a7565b5b8135611bd5848260208601611b47565b91505092915050565b600080600060608486031215611bf757611bf6611717565b5b600084013567ffffffffffffffff811115611c1557611c1461171c565b5b611c2186828701611ac1565b935050602084013567ffffffffffffffff811115611c4257611c4161171c565b5b611c4e86828701611ac1565b925050604084013567ffffffffffffffff811115611c6f57611c6e61171c565b5b611c7b86828701611bb0565b9150509250925092565b611c8e8161196b565b8114611c9957600080fd5b50565b600081359050611cab81611c85565b92915050565b600060208284031215611cc757611cc6611717565b5b6000611cd584828501611c9c565b91505092915050565b7f4f776e61626c653a2063616c6c6572206973206e6f7420746865206f776e6572600082015250565b6000611d1460208361187f565b9150611d1f82611cde565b602082019050919050565b60006020820190508181036000830152611d4381611d07565b9050919050565b7f496e697469616c697a61626c653a20636f6e747261637420697320616c72656160008201527f647920696e697469616c697a6564000000000000000000000000000000000000602082015250565b6000611da6602e8361187f565b9150611db182611d4a565b604082019050919050565b60006020820190508181036000830152611dd581611d99565b9050919050565b7f4e487b7100000000000000000000000000000000000000000000000000000000600052603260045260246000fd5b7f4f776e61626c653a206e6577206f776e657220697320746865207a65726f206160008201527f6464726573730000000000000000000000000000000000000000000000000000602082015250565b6000611e6760268361187f565b9150611e7282611e0b565b604082019050919050565b60006020820190508181036000830152611e9681611e5a565b9050919050565b7f4e487b7100000000000000000000000000000000000000000000000000000000600052601160045260246000fd5b6000611ed7826116d6565b9150611ee2836116d6565b9250827fffffffffffffffffffffffffffffffffffffffffffffffffffffffffffffff8001821260008412151615611f1d57611f1c611e9d565b5b82607f018213600084121615611f3657611f35611e9d565b5b828203905092915050565b7f4e487b7100000000000000000000000000000000000000000000000000000000600052601260045260246000fd5b6000611f7b8261169f565b9150611f868361169f565b925082611f9657611f95611f41565b5b600160000383147fffffffffffffffffffffffffffffffffffffffffffffffffffffffffffff800083141615611fcf57611fce611e9d565b5b828205905092915050565b6000611fe58261169f565b9150611ff08361169f565b925082617fff048211600084136000841316161561201157612010611e9d565b5b817fffffffffffffffffffffffffffffffffffffffffffffffffffffffffffff8000058312600084126000841316161561204e5761204d611e9d565b5b827fffffffffffffffffffffffffffffffffffffffffffffffffffffffffffff8000058212600084136000841216161561208b5761208a611e9d565b5b82617fff05821260008412600084121616156120aa576120a9611e9d565b5b828202905092915050565b60006120c08261169f565b91506120cb8361169f565b925081617fff038313600083121516156120e8576120e7611e9d565b5b817fffffffffffffffffffffffffffffffffffffffffffffffffffffffffffff80000383126000831216156121205761211f611e9d565b5b828201905092915050565b6000612136826117b1565b9150612141836117b1565b92508261215157612150611f41565b5b828206905092915050565b600061216782611668565b915061217283611668565b92508282101561218557612184611e9d565b5b828203905092915050565b600061219b82611668565b91506121a683611668565b92508260ff038211156121bc576121bb611e9d565b5b828201905092915050565b60006121d2826116d6565b91507fffffffffffffffffffffffffffffffffffffffffffffffffffffffffffffff8082141561220557612204611e9d565b5b816000039050919050565b7f496e697469616c697a61626c653a20636f6e7472616374206973206e6f74206960008201527f6e697469616c697a696e67000000000000000000000000000000000000000000602082015250565b600061226c602b8361187f565b915061227782612210565b604082019050919050565b6000602082019050818103600083015261229b8161225f565b905091905056fea2646970667358221220ebc879aa7bbb038944413d6f08458d76dfd2758f27203927d296e390cfdcd26064736f6c634300080a0033",
  "immutableReferences": {},
  "source": "// SPDX-License-Identifier: MIT\n\npragma solidity ^0.8.0;\n\nimport \"@openzeppelin/contracts-upgradeable/proxy/utils/Initializable.sol\";\nimport \"@openzeppelin/contracts-upgradeable/access/OwnableUpgradeable.sol\";\nimport \"@openzeppelin/contracts-upgradeable/token/ERC721/ERC721Upgradeable.sol\";\n\ncontract Properties is Initializable, OwnableUpgradeable {\n  int8 public disasterToleranceMinimumChef; // Minimum skill percentage for chefs during a burnout event\n  int8 public disasterToleranceMinimumRat; // Minimum intelligence percentage for rats during a burnout event\n  uint8 public disasterEfficiencyLossChef; // Skill percentage loss for chefs during a burnout event\n  uint8 public disasterEfficiencyLossRat; // Intelligence percentage loss for rats during a cat event\n  uint8 public disasterToleranceLossChef; // Freak percentage loss for chefs during a burnout event\n  uint8 public disasterToleranceLossRat; // BodyMass percentage loss for rats during a cat event\n\n  int8 public mishapEfficiencyMinimumChef; // Minimum skill percentage for chefs during a foot inspector event\n  int8 public mishapEfficiencyMinimumRat; // Minimum intelligence percentage for rats during a rat trap event\n  uint8 public mishapEfficiencyLossChef; // Skill percentage loss for chefs during a food inspector event\n  uint8 public mishapEfficiencyLossRat; // Intelligence percentage loss for rats during a rat trap event\n  uint8 public mishapToleranceLossChef; // Freak percentage loss for chefs during a food inspector event\n  uint8 public mishapToleranceLossRat; // BodyMass percentage loss for rats during a rat trap event\n\n  int16 public disasterLikelihoodDividerChef; // Divider used for chefs in the disaster likelihood calculation\n  int16 public disasterLikelihoodMultiplierChef; // Multiplier used for chefs in the disaster likelihood calculation\n  int16 public disasterLikelihoodOffsetChef; // Offset used for chefs in the disaster likelihood calculation\n  int16 public disasterLikelihoodDividerRat; // Divider used for rats in the disaster likelihood calculation\n  int16 public disasterLikelihoodMultiplierRat; // Multiplier used for rats in the disaster likelihood calculation\n  int16 public disasterLikelihoodOffsetRat; // Offset used for rats in the disaster likelihood calculation\n  int16 public mishapLikelihoodDividerChef; // Divider used for chefs in the mishap likelihood calculation\n  int16 public mishapLikelihoodMultiplierChef; // Multiplier used for chefs in the mishap likelihood calculation\n  int16 public mishapLikelihoodOffsetChef; // Offset used for chefs in the mishap likelihood calculation\n  int16 public mishapLikelihoodDividerRat; // Divider used for rats in the mishap likelihood calculation\n  int16 public mishapLikelihoodMultiplierRat; // Multiplier used for rats in the mishap likelihood calculation\n  int16 public mishapLikelihoodOffsetRat; // Offset used for rats in the mishap likelihood calculation\n\n  function initialize() external initializer {\n    __Ownable_init();\n  }\n\n  /**\n   * Allows DAO to update game parameters\n   */\n  function configure(uint8[] memory _disasterParams, uint8[] memory _mishapParams, int16[] memory _likelihoodParams) external onlyOwner {\n    disasterToleranceMinimumChef = int8(_disasterParams[0]);\n    disasterToleranceMinimumRat = int8(_disasterParams[1]);\n    disasterEfficiencyLossChef = _disasterParams[2];\n    disasterEfficiencyLossRat = _disasterParams[3];\n    disasterToleranceLossChef = _disasterParams[4];\n    disasterToleranceLossRat = _disasterParams[5];\n\n    mishapEfficiencyMinimumChef = int8(_mishapParams[0]);\n    mishapEfficiencyMinimumRat = int8(_mishapParams[1]);\n    mishapEfficiencyLossChef = _mishapParams[2];\n    mishapEfficiencyLossRat = _mishapParams[3];\n    mishapToleranceLossChef = _mishapParams[4];\n    mishapToleranceLossRat = _mishapParams[5];\n\n    disasterLikelihoodDividerChef = _likelihoodParams[0];\n    disasterLikelihoodMultiplierChef = _likelihoodParams[1];\n    disasterLikelihoodOffsetChef = _likelihoodParams[2];\n    disasterLikelihoodDividerRat = _likelihoodParams[3];\n    disasterLikelihoodMultiplierRat = _likelihoodParams[4];\n    disasterLikelihoodOffsetRat = _likelihoodParams[5];\n    mishapLikelihoodDividerChef = _likelihoodParams[6];\n    mishapLikelihoodMultiplierChef = _likelihoodParams[7];\n    mishapLikelihoodOffsetChef = _likelihoodParams[8];\n    mishapLikelihoodDividerRat = _likelihoodParams[9];\n    mishapLikelihoodMultiplierRat = _likelihoodParams[10];\n    mishapLikelihoodOffsetRat = _likelihoodParams[11];\n  }\n\n  /**\n   * Does a burnout / cat event occur?\n   * @param isChef - Whether it's a Chef or not\n   * @param efficiency - The character's current value\n   * @param randomVal - A ChainLink VRF random number\n   * @return Whether an event occurred\n   */\n  function _doesDisasterOccur(bool isChef, int8 efficiency, int8 tolerance, uint256 randomVal) internal view returns(bool) {\n    if (randomVal == 0) return false;\n    if (tolerance <= (isChef ? disasterToleranceMinimumChef : disasterToleranceMinimumRat)) return false;\n    int16 divider = isChef ? disasterLikelihoodDividerChef : disasterLikelihoodDividerRat;\n    int16 multiplier = isChef ? disasterLikelihoodMultiplierChef : disasterLikelihoodMultiplierRat;\n    int16 offset = isChef ? disasterLikelihoodOffsetChef : disasterLikelihoodOffsetRat;\n    uint16 likelihood = uint16(((efficiency - 100) / divider * multiplier) + offset);\n    return randomVal % 1000 < likelihood;\n  }\n\n  /**\n   * Does a food inspector / rat trap event occur?\n   * @param isChef - Whether it's a Chef or not\n   * @param efficiency - The character's current value\n   * @param randomVal - A ChainLink VRF random number\n   * @return Whether an event occurred\n   */\n  function _doesMishapOccur(bool isChef, int8 efficiency, uint256 randomVal) internal view returns(bool) {\n    if (randomVal == 0) return false;\n    if (efficiency <= (isChef ? mishapEfficiencyMinimumChef : mishapEfficiencyMinimumRat)) return false;\n    int16 divider = isChef ? mishapLikelihoodDividerChef : mishapLikelihoodDividerRat;\n    int16 multiplier = isChef ? mishapLikelihoodMultiplierChef : mishapLikelihoodMultiplierRat;\n    int16 offset = isChef ? mishapLikelihoodOffsetChef : mishapLikelihoodOffsetRat;\n    uint16 likelihood = uint16(((efficiency - 100) / divider * multiplier) + offset);\n    return randomVal % 1000 < likelihood;\n  }\n\n  /**\n   * Returns the efficiency & tolerance values after a disaster event occurred\n   * @return New efficiency value\n   * @return New tolerance value\n   */\n  function _resolveDisaster() internal pure returns(uint8, uint8) {\n    return (0, 0);\n  }\n\n  /**\n   * Returns the efficiency & tolerance values after a mishap event occurred\n   * @param isChef - Whether this is a chef\n   * @param efficiencyValue - Current efficiency value\n   * @param toleranceValue - Current tolerance value\n   * @return New efficiency value\n   * @return New tolerance value\n   */\n  function _resolveMishap(bool isChef, uint8 efficiencyValue, uint8 toleranceValue) internal view returns(uint8, uint8) {\n    uint8 efficiencyLoss = isChef ? mishapEfficiencyLossChef : mishapEfficiencyLossRat;\n    uint8 toleranceLoss = isChef ? mishapToleranceLossChef : mishapToleranceLossRat;\n    efficiencyValue = (efficiencyLoss > efficiencyValue) ? 0 : efficiencyValue - efficiencyLoss;\n    toleranceValue = (toleranceLoss > toleranceValue) ? 0 : toleranceValue - toleranceLoss;\n    return (efficiencyValue, toleranceValue);\n  }\n\n  /**\n   * Adds/subtracts the given increment to/from the old value within a 0 - 100 range\n   * @param old - Current value\n   * @param increment - Value to add/subtract\n   * @return New value\n   */\n  function _getUpdatedValue(uint8 old, int8 increment) internal pure returns(uint8) {\n    if (increment >= 0) {\n      return (uint8(increment) + old > 100) ? 100 : old + uint8(increment);\n    } else {\n      return (uint8(-increment) > old) ? 0 : old - uint8(-increment);\n    }\n  }\n\n  /**\n   * Event & level dispatcher, checks if events are triggered and returns new levels accordingly\n   * @param isChef - Whether it's a Chef or not\n   * @param currentEfficiency - The character's current efficiency value\n   * @param currentTolerance - The character's current tolerance value\n   * @param efficiencyIncrement - Value to add/subtract to/from efficiency\n   * @param toleranceIncrement - Value to add/subtract to/from tolerance\n   * @param randomVal - A ChainLink VRF random number\n   * @return efficiencyValue - New efficiency value\n   * @return toleranceValue - New tolerance value\n   * @return eventName - String containing the event or empty string if none occurred\n   */\n  function getEventUpdates(bool isChef, uint8 currentEfficiency, uint8 currentTolerance, int8 efficiencyIncrement, int8 toleranceIncrement, uint256 randomVal) external view returns(uint8 efficiencyValue, uint8 toleranceValue, string memory eventName) {\n    eventName = \"\";\n    if (_doesDisasterOccur(isChef, int8(currentEfficiency), int8(currentTolerance), randomVal)) {\n      (efficiencyValue, toleranceValue) = _resolveDisaster();\n      eventName = isChef ? \"burnout\" : \"cat\";\n    } else if (_doesMishapOccur(isChef, int8(currentEfficiency), randomVal)) {\n      (efficiencyValue, toleranceValue) = _resolveMishap(isChef, currentEfficiency, currentTolerance);\n      eventName = isChef ? \"foodInspector\" : \"ratTrap\";\n    } else {\n      efficiencyValue = _getUpdatedValue(currentEfficiency, efficiencyIncrement);\n      toleranceValue = _getUpdatedValue(currentTolerance, toleranceIncrement);\n    }\n  }\n}\n",
  "sourcePath": "/Users/chris/workspace/ratalert/ratalert-contracts/contracts/Properties.sol",
  "compiler": {
    "name": "solc",
    "version": "0.8.10+commit.fc410830.Emscripten.clang"
  },
  "schemaVersion": "3.4.7",
  "updatedAt": "2022-06-03T20:27:41.050Z",
  "devdoc": {
    "kind": "dev",
    "methods": {
      "getEventUpdates(bool,uint8,uint8,int8,int8,uint256)": {
        "params": {
          "currentEfficiency": "- The character's current efficiency value",
          "currentTolerance": "- The character's current tolerance value",
          "efficiencyIncrement": "- Value to add/subtract to/from efficiency",
          "isChef": "- Whether it's a Chef or not",
          "randomVal": "- A ChainLink VRF random number",
          "toleranceIncrement": "- Value to add/subtract to/from tolerance"
        },
        "returns": {
          "efficiencyValue": "- New efficiency value",
          "eventName": "- String containing the event or empty string if none occurred",
          "toleranceValue": "- New tolerance value"
        }
      },
      "owner()": {
        "details": "Returns the address of the current owner."
      },
      "renounceOwnership()": {
        "details": "Leaves the contract without owner. It will not be possible to call `onlyOwner` functions anymore. Can only be called by the current owner. NOTE: Renouncing ownership will leave the contract without an owner, thereby removing any functionality that is only available to the owner."
      },
      "transferOwnership(address)": {
        "details": "Transfers ownership of the contract to a new account (`newOwner`). Can only be called by the current owner."
      }
    },
    "version": 1
  },
  "userdoc": {
    "kind": "user",
    "methods": {
      "configure(uint8[],uint8[],int16[])": {
        "notice": "Allows DAO to update game parameters"
      },
      "getEventUpdates(bool,uint8,uint8,int8,int8,uint256)": {
        "notice": "Event & level dispatcher, checks if events are triggered and returns new levels accordingly"
      }
    },
    "version": 1
  }
}