{
  "contractName": "Properties",
  "abi": [
    {
      "anonymous": false,
      "inputs": [
        {
          "indexed": true,
          "internalType": "address",
          "name": "previousOwner",
          "type": "address"
        },
        {
          "indexed": true,
          "internalType": "address",
          "name": "newOwner",
          "type": "address"
        }
      ],
      "name": "OwnershipTransferred",
      "type": "event"
    },
    {
      "inputs": [],
      "name": "disasterEfficiencyLossChef",
      "outputs": [
        {
          "internalType": "uint8",
          "name": "",
          "type": "uint8"
        }
      ],
      "stateMutability": "view",
      "type": "function",
      "constant": true
    },
    {
      "inputs": [],
      "name": "disasterEfficiencyLossRat",
      "outputs": [
        {
          "internalType": "uint8",
          "name": "",
          "type": "uint8"
        }
      ],
      "stateMutability": "view",
      "type": "function",
      "constant": true
    },
    {
      "inputs": [],
      "name": "disasterEfficiencyMinimumChef",
      "outputs": [
        {
          "internalType": "int8",
          "name": "",
          "type": "int8"
        }
      ],
      "stateMutability": "view",
      "type": "function",
      "constant": true
    },
    {
      "inputs": [],
      "name": "disasterEfficiencyMinimumRat",
      "outputs": [
        {
          "internalType": "int8",
          "name": "",
          "type": "int8"
        }
      ],
      "stateMutability": "view",
      "type": "function",
      "constant": true
    },
    {
      "inputs": [],
      "name": "disasterToleranceLossChef",
      "outputs": [
        {
          "internalType": "uint8",
          "name": "",
          "type": "uint8"
        }
      ],
      "stateMutability": "view",
      "type": "function",
      "constant": true
    },
    {
      "inputs": [],
      "name": "disasterToleranceLossRat",
      "outputs": [
        {
          "internalType": "uint8",
          "name": "",
          "type": "uint8"
        }
      ],
      "stateMutability": "view",
      "type": "function",
      "constant": true
    },
    {
      "inputs": [],
      "name": "mishapEfficiencyLossChef",
      "outputs": [
        {
          "internalType": "uint8",
          "name": "",
          "type": "uint8"
        }
      ],
      "stateMutability": "view",
      "type": "function",
      "constant": true
    },
    {
      "inputs": [],
      "name": "mishapEfficiencyLossRat",
      "outputs": [
        {
          "internalType": "uint8",
          "name": "",
          "type": "uint8"
        }
      ],
      "stateMutability": "view",
      "type": "function",
      "constant": true
    },
    {
      "inputs": [],
      "name": "mishapEfficiencyMinimumChef",
      "outputs": [
        {
          "internalType": "int8",
          "name": "",
          "type": "int8"
        }
      ],
      "stateMutability": "view",
      "type": "function",
      "constant": true
    },
    {
      "inputs": [],
      "name": "mishapEfficiencyMinimumRat",
      "outputs": [
        {
          "internalType": "int8",
          "name": "",
          "type": "int8"
        }
      ],
      "stateMutability": "view",
      "type": "function",
      "constant": true
    },
    {
      "inputs": [],
      "name": "mishapToleranceLossChef",
      "outputs": [
        {
          "internalType": "uint8",
          "name": "",
          "type": "uint8"
        }
      ],
      "stateMutability": "view",
      "type": "function",
      "constant": true
    },
    {
      "inputs": [],
      "name": "mishapToleranceLossRat",
      "outputs": [
        {
          "internalType": "uint8",
          "name": "",
          "type": "uint8"
        }
      ],
      "stateMutability": "view",
      "type": "function",
      "constant": true
    },
    {
      "inputs": [],
      "name": "owner",
      "outputs": [
        {
          "internalType": "address",
          "name": "",
          "type": "address"
        }
      ],
      "stateMutability": "view",
      "type": "function",
      "constant": true
    },
    {
      "inputs": [],
      "name": "renounceOwnership",
      "outputs": [],
      "stateMutability": "nonpayable",
      "type": "function"
    },
    {
      "inputs": [
        {
          "internalType": "address",
          "name": "newOwner",
          "type": "address"
        }
      ],
      "name": "transferOwnership",
      "outputs": [],
      "stateMutability": "nonpayable",
      "type": "function"
    },
    {
      "inputs": [],
      "name": "initialize",
      "outputs": [],
      "stateMutability": "nonpayable",
      "type": "function"
    },
    {
      "inputs": [
        {
          "internalType": "uint8[]",
          "name": "_disasterParams",
          "type": "uint8[]"
        },
        {
          "internalType": "uint8[]",
          "name": "_mishapParams",
          "type": "uint8[]"
        }
      ],
      "name": "configure",
      "outputs": [],
      "stateMutability": "nonpayable",
      "type": "function"
    },
    {
      "inputs": [
        {
          "internalType": "bool",
          "name": "isChef",
          "type": "bool"
        },
        {
          "internalType": "uint8",
          "name": "currentEfficiency",
          "type": "uint8"
        },
        {
          "internalType": "uint8",
          "name": "currentTolerance",
          "type": "uint8"
        },
        {
          "internalType": "int8",
          "name": "efficiencyIncrement",
          "type": "int8"
        },
        {
          "internalType": "int8",
          "name": "toleranceIncrement",
          "type": "int8"
        },
        {
          "internalType": "uint256",
          "name": "randomVal",
          "type": "uint256"
        }
      ],
      "name": "getEventUpdates",
      "outputs": [
        {
          "internalType": "uint8",
          "name": "efficiencyValue",
          "type": "uint8"
        },
        {
          "internalType": "uint8",
          "name": "toleranceValue",
          "type": "uint8"
        },
        {
          "internalType": "string",
          "name": "eventName",
          "type": "string"
        }
      ],
      "stateMutability": "view",
      "type": "function",
      "constant": true
    }
  ],
  "bytecode": "0x608060405234801561001057600080fd5b50611ae0806100206000396000f3fe608060405234801561001057600080fd5b50600436106101165760003560e01c80638129fc1c116100a25780639891b413116100715780639891b4131461028b578063b8be3459146102a9578063c065f695146102c7578063ec5ce126146102e5578063f2fde38b1461030357610116565b80638129fc1c146102295780638da5cb5b146102335780639299019814610251578063958384001461026f57610116565b80634718e308116100e95780634718e308146101935780634ffa59f7146101c55780635e264726146101e3578063704431c614610201578063715018a61461021f57610116565b8063112a23931461011b5780631260766814610139578063217c606f146101575780633337e58714610175575b600080fd5b61012361031f565b6040516101309190610fe4565b60405180910390f35b610141610332565b60405161014e9190610fe4565b60405180910390f35b61015f610345565b60405161016c919061101b565b60405180910390f35b61017d610358565b60405161018a9190610fe4565b60405180910390f35b6101ad60048036038101906101a89190611110565b61036b565b6040516101bc93929190611236565b60405180910390f35b6101cd6104e7565b6040516101da9190610fe4565b60405180910390f35b6101eb6104fa565b6040516101f89190610fe4565b60405180910390f35b61020961050d565b604051610216919061101b565b60405180910390f35b610227610520565b005b6102316105a8565b005b61023b610694565b60405161024891906112b5565b60405180910390f35b6102596106be565b604051610266919061101b565b60405180910390f35b61028960048036038101906102849190611418565b6106d1565b005b6102936109e5565b6040516102a09190610fe4565b60405180910390f35b6102b16109f8565b6040516102be9190610fe4565b60405180910390f35b6102cf610a0b565b6040516102dc919061101b565b60405180910390f35b6102ed610a1e565b6040516102fa9190610fe4565b60405180910390f35b61031d600480360381019061031891906114bc565b610a31565b005b606560049054906101000a900460ff1681565b606560089054906101000a900460ff1681565b606560019054906101000a900460000b81565b6065600a9054906101000a900460ff1681565b600080606060405180602001604052806000815250905061038d898986610b29565b156104205761039a610bdd565b8093508194505050886103e2576040518060400160405280600381526020017f6361740000000000000000000000000000000000000000000000000000000000815250610419565b6040518060400160405280600781526020017f6275726e6f7574000000000000000000000000000000000000000000000000008152505b90506104db565b61042b898986610beb565b156104c15761043b898989610c93565b809350819450505088610483576040518060400160405280600781526020017f72617454726170000000000000000000000000000000000000000000000000008152506104ba565b6040518060400160405280600d81526020017f666f6f64496e73706563746f72000000000000000000000000000000000000008152505b90506104da565b6104cb8887610d4a565b92506104d78786610d4a565b91505b5b96509650969350505050565b606560099054906101000a900460ff1681565b6065600b9054906101000a900460ff1681565b606560079054906101000a900460000b81565b610528610dc3565b73ffffffffffffffffffffffffffffffffffffffff16610546610694565b73ffffffffffffffffffffffffffffffffffffffff161461059c576040517f08c379a000000000000000000000000000000000000000000000000000000000815260040161059390611535565b60405180910390fd5b6105a66000610dcb565b565b600060019054906101000a900460ff166105d05760008054906101000a900460ff16156105d9565b6105d8610e91565b5b610618576040517f08c379a000000000000000000000000000000000000000000000000000000000815260040161060f906115c7565b60405180910390fd5b60008060019054906101000a900460ff161590508015610668576001600060016101000a81548160ff02191690831515021790555060016000806101000a81548160ff0219169083151502179055505b610670610ea2565b80156106915760008060016101000a81548160ff0219169083151502179055505b50565b6000603360009054906101000a900473ffffffffffffffffffffffffffffffffffffffff16905090565b606560009054906101000a900460000b81565b6106d9610dc3565b73ffffffffffffffffffffffffffffffffffffffff166106f7610694565b73ffffffffffffffffffffffffffffffffffffffff161461074d576040517f08c379a000000000000000000000000000000000000000000000000000000000815260040161074490611535565b60405180910390fd5b81600081518110610761576107606115e7565b5b6020026020010151606560006101000a81548160ff021916908360000b60ff1602179055508160018151811061079a576107996115e7565b5b6020026020010151606560016101000a81548160ff021916908360000b60ff160217905550816002815181106107d3576107d26115e7565b5b6020026020010151606560026101000a81548160ff021916908360ff16021790555081600381518110610809576108086115e7565b5b6020026020010151606560036101000a81548160ff021916908360ff1602179055508160048151811061083f5761083e6115e7565b5b6020026020010151606560046101000a81548160ff021916908360ff16021790555081600581518110610875576108746115e7565b5b6020026020010151606560056101000a81548160ff021916908360ff160217905550806000815181106108ab576108aa6115e7565b5b6020026020010151606560066101000a81548160ff021916908360000b60ff160217905550806001815181106108e4576108e36115e7565b5b6020026020010151606560076101000a81548160ff021916908360000b60ff1602179055508060028151811061091d5761091c6115e7565b5b6020026020010151606560086101000a81548160ff021916908360ff16021790555080600381518110610953576109526115e7565b5b6020026020010151606560096101000a81548160ff021916908360ff16021790555080600481518110610989576109886115e7565b5b60200260200101516065600a6101000a81548160ff021916908360ff160217905550806005815181106109bf576109be6115e7565b5b60200260200101516065600b6101000a81548160ff021916908360ff1602179055505050565b606560059054906101000a900460ff1681565b606560029054906101000a900460ff1681565b606560069054906101000a900460000b81565b606560039054906101000a900460ff1681565b610a39610dc3565b73ffffffffffffffffffffffffffffffffffffffff16610a57610694565b73ffffffffffffffffffffffffffffffffffffffff1614610aad576040517f08c379a0000000000000000000000000000000000000000000000000000000008152600401610aa490611535565b60405180910390fd5b600073ffffffffffffffffffffffffffffffffffffffff168173ffffffffffffffffffffffffffffffffffffffff161415610b1d576040517f08c379a0000000000000000000000000000000000000000000000000000000008152600401610b1490611688565b60405180910390fd5b610b2681610dcb565b50565b600083610b4557606560019054906101000a900460000b610b56565b606560009054906101000a900460000b5b60000b8360000b13610b6b5760009050610bd6565b60006014600a7ffffffffffffffffffffffffffffffffffffffffffffffffffffffffffffffffc606487610b9f91906116d7565b610ba9919061177b565b610bb391906117e5565b610bbd91906118be565b90508060ff166103e884610bd19190611933565b109150505b9392505050565b600080600080915091509091565b600083610c0757606560079054906101000a900460000b610c18565b606560069054906101000a900460000b5b60000b8360000b13610c2d5760009050610c8c565b600060147fffffffffffffffffffffffffffffffffffffffffffffffffffffffffffffffff606486610c5f91906116d7565b610c6991906117e5565b610c7391906118be565b90508060ff166103e884610c879190611933565b109150505b9392505050565b600080600085610cb257606560099054906101000a900460ff16610cc3565b606560089054906101000a900460ff165b9050600086610ce1576065600b9054906101000a900460ff16610cf2565b6065600a9054906101000a900460ff165b90508560ff168260ff1611610d12578186610d0d9190611964565b610d15565b60005b95508460ff168160ff1611610d35578085610d309190611964565b610d38565b60005b94508585935093505050935093915050565b6000808260000b12610d875760648383610d649190611998565b60ff1611610d7d578183610d789190611998565b610d80565b60645b9050610dbd565b8260ff1682610d95906119cf565b60ff1611610db75781610da7906119cf565b83610db29190611964565b610dba565b60005b90505b92915050565b600033905090565b6000603360009054906101000a900473ffffffffffffffffffffffffffffffffffffffff16905081603360006101000a81548173ffffffffffffffffffffffffffffffffffffffff021916908373ffffffffffffffffffffffffffffffffffffffff1602179055508173ffffffffffffffffffffffffffffffffffffffff168173ffffffffffffffffffffffffffffffffffffffff167f8be0079c531659141344cd1fd0a4f28419497f9722a3daafe3b4186f6b6457e060405160405180910390a35050565b6000610e9c30610f03565b15905090565b600060019054906101000a900460ff16610ef1576040517f08c379a0000000000000000000000000000000000000000000000000000000008152600401610ee890611a8a565b60405180910390fd5b610ef9610f16565b610f01610f67565b565b600080823b905060008111915050919050565b600060019054906101000a900460ff16610f65576040517f08c379a0000000000000000000000000000000000000000000000000000000008152600401610f5c90611a8a565b60405180910390fd5b565b600060019054906101000a900460ff16610fb6576040517f08c379a0000000000000000000000000000000000000000000000000000000008152600401610fad90611a8a565b60405180910390fd5b610fc6610fc1610dc3565b610dcb565b565b600060ff82169050919050565b610fde81610fc8565b82525050565b6000602082019050610ff96000830184610fd5565b92915050565b60008160000b9050919050565b61101581610fff565b82525050565b6000602082019050611030600083018461100c565b92915050565b6000604051905090565b600080fd5b600080fd5b60008115159050919050565b61105f8161104a565b811461106a57600080fd5b50565b60008135905061107c81611056565b92915050565b61108b81610fc8565b811461109657600080fd5b50565b6000813590506110a881611082565b92915050565b6110b781610fff565b81146110c257600080fd5b50565b6000813590506110d4816110ae565b92915050565b6000819050919050565b6110ed816110da565b81146110f857600080fd5b50565b60008135905061110a816110e4565b92915050565b60008060008060008060c0878903121561112d5761112c611040565b5b600061113b89828a0161106d565b965050602061114c89828a01611099565b955050604061115d89828a01611099565b945050606061116e89828a016110c5565b935050608061117f89828a016110c5565b92505060a061119089828a016110fb565b9150509295509295509295565b600081519050919050565b600082825260208201905092915050565b60005b838110156111d75780820151818401526020810190506111bc565b838111156111e6576000848401525b50505050565b6000601f19601f8301169050919050565b60006112088261119d565b61121281856111a8565b93506112228185602086016111b9565b61122b816111ec565b840191505092915050565b600060608201905061124b6000830186610fd5565b6112586020830185610fd5565b818103604083015261126a81846111fd565b9050949350505050565b600073ffffffffffffffffffffffffffffffffffffffff82169050919050565b600061129f82611274565b9050919050565b6112af81611294565b82525050565b60006020820190506112ca60008301846112a6565b92915050565b600080fd5b7f4e487b7100000000000000000000000000000000000000000000000000000000600052604160045260246000fd5b61130d826111ec565b810181811067ffffffffffffffff8211171561132c5761132b6112d5565b5b80604052505050565b600061133f611036565b905061134b8282611304565b919050565b600067ffffffffffffffff82111561136b5761136a6112d5565b5b602082029050602081019050919050565b600080fd5b600061139461138f84611350565b611335565b905080838252602082019050602084028301858111156113b7576113b661137c565b5b835b818110156113e057806113cc8882611099565b8452602084019350506020810190506113b9565b5050509392505050565b600082601f8301126113ff576113fe6112d0565b5b813561140f848260208601611381565b91505092915050565b6000806040838503121561142f5761142e611040565b5b600083013567ffffffffffffffff81111561144d5761144c611045565b5b611459858286016113ea565b925050602083013567ffffffffffffffff81111561147a57611479611045565b5b611486858286016113ea565b9150509250929050565b61149981611294565b81146114a457600080fd5b50565b6000813590506114b681611490565b92915050565b6000602082840312156114d2576114d1611040565b5b60006114e0848285016114a7565b91505092915050565b7f4f776e61626c653a2063616c6c6572206973206e6f7420746865206f776e6572600082015250565b600061151f6020836111a8565b915061152a826114e9565b602082019050919050565b6000602082019050818103600083015261154e81611512565b9050919050565b7f496e697469616c697a61626c653a20636f6e747261637420697320616c72656160008201527f647920696e697469616c697a6564000000000000000000000000000000000000602082015250565b60006115b1602e836111a8565b91506115bc82611555565b604082019050919050565b600060208201905081810360008301526115e0816115a4565b9050919050565b7f4e487b7100000000000000000000000000000000000000000000000000000000600052603260045260246000fd5b7f4f776e61626c653a206e6577206f776e657220697320746865207a65726f206160008201527f6464726573730000000000000000000000000000000000000000000000000000602082015250565b60006116726026836111a8565b915061167d82611616565b604082019050919050565b600060208201905081810360008301526116a181611665565b9050919050565b7f4e487b7100000000000000000000000000000000000000000000000000000000600052601160045260246000fd5b60006116e282610fff565b91506116ed83610fff565b9250827fffffffffffffffffffffffffffffffffffffffffffffffffffffffffffffff8001821260008412151615611728576117276116a8565b5b82607f018213600084121615611741576117406116a8565b5b828203905092915050565b7f4e487b7100000000000000000000000000000000000000000000000000000000600052601260045260246000fd5b600061178682610fff565b915061179183610fff565b9250826117a1576117a061174c565b5b600160000383147fffffffffffffffffffffffffffffffffffffffffffffffffffffffffffffff80831416156117da576117d96116a8565b5b828205905092915050565b60006117f082610fff565b91506117fb83610fff565b925082607f048211600084136000841316161561181b5761181a6116a8565b5b817fffffffffffffffffffffffffffffffffffffffffffffffffffffffffffffff800583126000841260008413161615611858576118576116a8565b5b827fffffffffffffffffffffffffffffffffffffffffffffffffffffffffffffff800582126000841360008412161615611895576118946116a8565b5b82607f05821260008412600084121616156118b3576118b26116a8565b5b828202905092915050565b60006118c982610fff565b91506118d483610fff565b925081607f038313600083121516156118f0576118ef6116a8565b5b817fffffffffffffffffffffffffffffffffffffffffffffffffffffffffffffff80038312600083121615611928576119276116a8565b5b828201905092915050565b600061193e826110da565b9150611949836110da565b9250826119595761195861174c565b5b828206905092915050565b600061196f82610fc8565b915061197a83610fc8565b92508282101561198d5761198c6116a8565b5b828203905092915050565b60006119a382610fc8565b91506119ae83610fc8565b92508260ff038211156119c4576119c36116a8565b5b828201905092915050565b60006119da82610fff565b91507fffffffffffffffffffffffffffffffffffffffffffffffffffffffffffffff80821415611a0d57611a0c6116a8565b5b816000039050919050565b7f496e697469616c697a61626c653a20636f6e7472616374206973206e6f74206960008201527f6e697469616c697a696e67000000000000000000000000000000000000000000602082015250565b6000611a74602b836111a8565b9150611a7f82611a18565b604082019050919050565b60006020820190508181036000830152611aa381611a67565b905091905056fea2646970667358221220c39d78cb93bfead3164f22e5eb3910619632932345b43d06817ebc969dfca2f464736f6c634300080a0033",
  "immutableReferences": {},
  "source": "// SPDX-License-Identifier: MIT\n\npragma solidity ^0.8.0;\n\nimport \"@openzeppelin/contracts-upgradeable/proxy/utils/Initializable.sol\";\nimport \"@openzeppelin/contracts-upgradeable/access/OwnableUpgradeable.sol\";\nimport \"@openzeppelin/contracts-upgradeable/token/ERC721/ERC721Upgradeable.sol\";\n\ncontract Properties is Initializable, OwnableUpgradeable {\n  int8 public disasterEfficiencyMinimumChef; // Minimum skill percentage for chefs during a burnout event\n  int8 public disasterEfficiencyMinimumRat; // Minimum intelligence percentage for rats during a burnout event\n  uint8 public disasterEfficiencyLossChef; // Skill percentage loss for chefs during a burnout event\n  uint8 public disasterEfficiencyLossRat; // Intelligence percentage loss for rats during a cat event\n  uint8 public disasterToleranceLossChef; // Freak percentage loss for chefs during a burnout event\n  uint8 public disasterToleranceLossRat; // BodyMass percentage loss for rats during a cat event\n\n  int8 public mishapEfficiencyMinimumChef; // Minimum skill percentage for chefs during a foot inspector event\n  int8 public mishapEfficiencyMinimumRat; // Minimum intelligence percentage for rats during a rat trap event\n  uint8 public mishapEfficiencyLossChef; // Skill percentage loss for chefs during a food inspector event\n  uint8 public mishapEfficiencyLossRat; // Intelligence percentage loss for rats during a rat trap event\n  uint8 public mishapToleranceLossChef; // Freak percentage loss for chefs during a food inspector event\n  uint8 public mishapToleranceLossRat; // BodyMass percentage loss for rats during a rat trap event\n\n  function initialize() external initializer {\n    __Ownable_init();\n  }\n\n  /**\n   * Allows DAO to update game parameters\n   */\n  function configure(uint8[] memory _disasterParams, uint8[] memory _mishapParams) external onlyOwner {\n    disasterEfficiencyMinimumChef = int8(_disasterParams[0]);\n    disasterEfficiencyMinimumRat = int8(_disasterParams[1]);\n    disasterEfficiencyLossChef = _disasterParams[2];\n    disasterEfficiencyLossRat = _disasterParams[3];\n    disasterToleranceLossChef = _disasterParams[4];\n    disasterToleranceLossRat = _disasterParams[5];\n\n    mishapEfficiencyMinimumChef = int8(_mishapParams[0]);\n    mishapEfficiencyMinimumRat = int8(_mishapParams[1]);\n    mishapEfficiencyLossChef = _mishapParams[2];\n    mishapEfficiencyLossRat = _mishapParams[3];\n    mishapToleranceLossChef = _mishapParams[4];\n    mishapToleranceLossRat = _mishapParams[5];\n  }\n\n  /**\n   * Does a burnout / cat event occur?\n   * @param isChef - Whether it's a Chef or not\n   * @param efficiency - The character's current value\n   * @param randomVal - A ChainLink VRF random number\n   * @return Whether an event occurred\n   */\n  function _doesDisasterOccur(bool isChef, int8 efficiency, uint256 randomVal) internal view returns(bool) {\n    if (efficiency <= (isChef ? disasterEfficiencyMinimumChef : disasterEfficiencyMinimumRat)) {\n      return false;\n    }\n    uint8 likelihood = uint8(((efficiency - 100) / -4 * 10) + 20);\n    return randomVal % 1000 < likelihood;\n  }\n\n  /**\n   * Does a food inspector / rat trap event occur?\n   * @param isChef - Whether it's a Chef or not\n   * @param efficiency - The character's current value\n   * @param randomVal - A ChainLink VRF random number\n   * @return Whether an event occurred\n   */\n  function _doesMishapOccur(bool isChef, int8 efficiency, uint256 randomVal) internal view returns(bool) {\n    if (efficiency <= (isChef ? mishapEfficiencyMinimumChef : mishapEfficiencyMinimumRat)) {\n      return false;\n    }\n    uint8 likelihood = uint8(((efficiency - 100) * -1) + 20);\n    return randomVal % 1000 < likelihood;\n  }\n\n  /**\n   * Returns the efficiency & tolerance values after a disaster event occurred\n   * @return New efficiency value\n   * @return New tolerance value\n   */\n  function _resolveDisaster() internal pure returns(uint8, uint8) {\n    return (0, 0);\n  }\n\n  /**\n   * Returns the efficiency & tolerance values after a mishap event occurred\n   * @param isChef - Whether this is a chef\n   * @param efficiencyValue - Current efficiency value\n   * @param toleranceValue - Current tolerance value\n   * @return New efficiency value\n   * @return New tolerance value\n   */\n  function _resolveMishap(bool isChef, uint8 efficiencyValue, uint8 toleranceValue) internal view returns(uint8, uint8) {\n    uint8 efficiencyLoss = isChef ? mishapEfficiencyLossChef : mishapEfficiencyLossRat;\n    uint8 toleranceLoss = isChef ? mishapToleranceLossChef : mishapToleranceLossRat;\n    efficiencyValue = (efficiencyLoss > efficiencyValue) ? 0 : efficiencyValue - efficiencyLoss;\n    toleranceValue = (toleranceLoss > toleranceValue) ? 0 : toleranceValue - toleranceLoss;\n    return (efficiencyValue, toleranceValue);\n  }\n\n  /**\n   * Adds/subtracts the given increment to/from the old value within a 0 - 100 range\n   * @param old - Current value\n   * @param increment - Value to add/subtract\n   * @return New value\n   */\n  function _getUpdatedValue(uint8 old, int8 increment) internal pure returns(uint8) {\n    if (increment >= 0) {\n      return (uint8(increment) + old > 100) ? 100 : old + uint8(increment);\n    } else {\n      return (uint8(-increment) > old) ? 0 : old - uint8(-increment);\n    }\n  }\n\n  /**\n   * Event & level dispatcher, checks if events are triggered and returns new levels accordingly\n   * @param isChef - Whether it's a Chef or not\n   * @param currentEfficiency - The character's current efficiency value\n   * @param currentTolerance - The character's current tolerance value\n   * @param efficiencyIncrement - Value to add/subtract to/from efficiency\n   * @param toleranceIncrement - Value to add/subtract to/from tolerance\n   * @param randomVal - A ChainLink VRF random number\n   * @return efficiencyValue - New efficiency value\n   * @return toleranceValue - New tolerance value\n   * @return eventName - String containing the event or empty string if none occurred\n   */\n  function getEventUpdates(bool isChef, uint8 currentEfficiency, uint8 currentTolerance, int8 efficiencyIncrement, int8 toleranceIncrement, uint256 randomVal) public view returns(uint8 efficiencyValue, uint8 toleranceValue, string memory eventName) {\n    eventName = \"\";\n    if (_doesDisasterOccur(isChef, int8(currentEfficiency), randomVal)) {\n      (efficiencyValue, toleranceValue) = _resolveDisaster();\n      eventName = isChef ? \"burnout\" : \"cat\";\n    } else if (_doesMishapOccur(isChef, int8(currentEfficiency), randomVal)) {\n      (efficiencyValue, toleranceValue) = _resolveMishap(isChef, currentEfficiency, currentTolerance);\n      eventName = isChef ? \"foodInspector\" : \"ratTrap\";\n    } else {\n      efficiencyValue = _getUpdatedValue(currentEfficiency, efficiencyIncrement);\n      toleranceValue = _getUpdatedValue(currentTolerance, toleranceIncrement);\n    }\n  }\n}\n",
  "sourcePath": "/Users/chris/workspace/ratalert/ratalert-contracts/contracts/Properties.sol",
  "compiler": {
    "name": "solc",
    "version": "0.8.10+commit.fc410830.Emscripten.clang"
  },
  "schemaVersion": "3.4.6",
  "updatedAt": "2022-03-29T21:46:41.913Z",
  "networkType": "ethereum",
  "devdoc": {
    "kind": "dev",
    "methods": {
      "getEventUpdates(bool,uint8,uint8,int8,int8,uint256)": {
        "params": {
          "currentEfficiency": "- The character's current efficiency value",
          "currentTolerance": "- The character's current tolerance value",
          "efficiencyIncrement": "- Value to add/subtract to/from efficiency",
          "isChef": "- Whether it's a Chef or not",
          "randomVal": "- A ChainLink VRF random number",
          "toleranceIncrement": "- Value to add/subtract to/from tolerance"
        },
        "returns": {
          "efficiencyValue": "- New efficiency value",
          "eventName": "- String containing the event or empty string if none occurred",
          "toleranceValue": "- New tolerance value"
        }
      },
      "owner()": {
        "details": "Returns the address of the current owner."
      },
      "renounceOwnership()": {
        "details": "Leaves the contract without owner. It will not be possible to call `onlyOwner` functions anymore. Can only be called by the current owner. NOTE: Renouncing ownership will leave the contract without an owner, thereby removing any functionality that is only available to the owner."
      },
      "transferOwnership(address)": {
        "details": "Transfers ownership of the contract to a new account (`newOwner`). Can only be called by the current owner."
      }
    },
    "version": 1
  },
  "userdoc": {
    "kind": "user",
    "methods": {
      "configure(uint8[],uint8[])": {
        "notice": "Allows DAO to update game parameters"
      },
      "getEventUpdates(bool,uint8,uint8,int8,int8,uint256)": {
        "notice": "Event & level dispatcher, checks if events are triggered and returns new levels accordingly"
      }
    },
    "version": 1
  }
}