{
  "contractName": "Properties",
  "abi": [
    {
      "anonymous": false,
      "inputs": [
        {
          "indexed": true,
          "internalType": "address",
          "name": "previousOwner",
          "type": "address"
        },
        {
          "indexed": true,
          "internalType": "address",
          "name": "newOwner",
          "type": "address"
        }
      ],
      "name": "OwnershipTransferred",
      "type": "event"
    },
    {
      "inputs": [],
      "name": "disasterEfficiencyLossChef",
      "outputs": [
        {
          "internalType": "uint8",
          "name": "",
          "type": "uint8"
        }
      ],
      "stateMutability": "view",
      "type": "function",
      "constant": true
    },
    {
      "inputs": [],
      "name": "disasterEfficiencyLossRat",
      "outputs": [
        {
          "internalType": "uint8",
          "name": "",
          "type": "uint8"
        }
      ],
      "stateMutability": "view",
      "type": "function",
      "constant": true
    },
    {
      "inputs": [],
      "name": "disasterEfficiencyMinimumChef",
      "outputs": [
        {
          "internalType": "int8",
          "name": "",
          "type": "int8"
        }
      ],
      "stateMutability": "view",
      "type": "function",
      "constant": true
    },
    {
      "inputs": [],
      "name": "disasterEfficiencyMinimumRat",
      "outputs": [
        {
          "internalType": "int8",
          "name": "",
          "type": "int8"
        }
      ],
      "stateMutability": "view",
      "type": "function",
      "constant": true
    },
    {
      "inputs": [],
      "name": "disasterToleranceLossChef",
      "outputs": [
        {
          "internalType": "uint8",
          "name": "",
          "type": "uint8"
        }
      ],
      "stateMutability": "view",
      "type": "function",
      "constant": true
    },
    {
      "inputs": [],
      "name": "disasterToleranceLossRat",
      "outputs": [
        {
          "internalType": "uint8",
          "name": "",
          "type": "uint8"
        }
      ],
      "stateMutability": "view",
      "type": "function",
      "constant": true
    },
    {
      "inputs": [],
      "name": "mishapEfficiencyLossChef",
      "outputs": [
        {
          "internalType": "uint8",
          "name": "",
          "type": "uint8"
        }
      ],
      "stateMutability": "view",
      "type": "function",
      "constant": true
    },
    {
      "inputs": [],
      "name": "mishapEfficiencyLossRat",
      "outputs": [
        {
          "internalType": "uint8",
          "name": "",
          "type": "uint8"
        }
      ],
      "stateMutability": "view",
      "type": "function",
      "constant": true
    },
    {
      "inputs": [],
      "name": "mishapEfficiencyMinimumChef",
      "outputs": [
        {
          "internalType": "int8",
          "name": "",
          "type": "int8"
        }
      ],
      "stateMutability": "view",
      "type": "function",
      "constant": true
    },
    {
      "inputs": [],
      "name": "mishapEfficiencyMinimumRat",
      "outputs": [
        {
          "internalType": "int8",
          "name": "",
          "type": "int8"
        }
      ],
      "stateMutability": "view",
      "type": "function",
      "constant": true
    },
    {
      "inputs": [],
      "name": "mishapToleranceLossChef",
      "outputs": [
        {
          "internalType": "uint8",
          "name": "",
          "type": "uint8"
        }
      ],
      "stateMutability": "view",
      "type": "function",
      "constant": true
    },
    {
      "inputs": [],
      "name": "mishapToleranceLossRat",
      "outputs": [
        {
          "internalType": "uint8",
          "name": "",
          "type": "uint8"
        }
      ],
      "stateMutability": "view",
      "type": "function",
      "constant": true
    },
    {
      "inputs": [],
      "name": "owner",
      "outputs": [
        {
          "internalType": "address",
          "name": "",
          "type": "address"
        }
      ],
      "stateMutability": "view",
      "type": "function",
      "constant": true
    },
    {
      "inputs": [],
      "name": "renounceOwnership",
      "outputs": [],
      "stateMutability": "nonpayable",
      "type": "function"
    },
    {
      "inputs": [
        {
          "internalType": "address",
          "name": "newOwner",
          "type": "address"
        }
      ],
      "name": "transferOwnership",
      "outputs": [],
      "stateMutability": "nonpayable",
      "type": "function"
    },
    {
      "inputs": [
        {
          "internalType": "uint8[]",
          "name": "_disasterParams",
          "type": "uint8[]"
        },
        {
          "internalType": "uint8[]",
          "name": "_mishapParams",
          "type": "uint8[]"
        }
      ],
      "name": "initialize",
      "outputs": [],
      "stateMutability": "nonpayable",
      "type": "function"
    },
    {
      "inputs": [
        {
          "internalType": "bool",
          "name": "isChef",
          "type": "bool"
        },
        {
          "internalType": "uint8",
          "name": "currentEfficiency",
          "type": "uint8"
        },
        {
          "internalType": "uint8",
          "name": "currentTolerance",
          "type": "uint8"
        },
        {
          "internalType": "int8",
          "name": "efficiencyIncrement",
          "type": "int8"
        },
        {
          "internalType": "int8",
          "name": "toleranceIncrement",
          "type": "int8"
        }
      ],
      "name": "getEventUpdates",
      "outputs": [
        {
          "internalType": "uint8",
          "name": "efficiencyValue",
          "type": "uint8"
        },
        {
          "internalType": "uint8",
          "name": "toleranceValue",
          "type": "uint8"
        },
        {
          "internalType": "string",
          "name": "eventName",
          "type": "string"
        }
      ],
      "stateMutability": "view",
      "type": "function",
      "constant": true
    }
  ],
  "bytecode": "0x608060405234801561001057600080fd5b50611b7c806100206000396000f3fe608060405234801561001057600080fd5b506004361061010b5760003560e01c8063715018a6116100a2578063b8be345911610071578063b8be345914610262578063c065f69514610280578063e90bd2571461029e578063ec5ce126146102d0578063f2fde38b146102ee5761010b565b8063715018a6146101fe5780638da5cb5b1461020857806392990198146102265780639891b413146102445761010b565b80633337e587116100de5780633337e587146101865780634ffa59f7146101a45780635e264726146101c2578063704431c6146101e05761010b565b806308e4eee514610110578063112a23931461012c578063126076681461014a578063217c606f14610168575b600080fd5b61012a60048036038101906101259190611132565b61030a565b005b61013461068c565b60405161014191906111b9565b60405180910390f35b61015261069f565b60405161015f91906111b9565b60405180910390f35b6101706106b2565b60405161017d91906111f0565b60405180910390f35b61018e6106c5565b60405161019b91906111b9565b60405180910390f35b6101ac6106d8565b6040516101b991906111b9565b60405180910390f35b6101ca6106eb565b6040516101d791906111b9565b60405180910390f35b6101e86106fe565b6040516101f591906111f0565b60405180910390f35b610206610711565b005b610210610799565b60405161021d919061124c565b60405180910390f35b61022e6107c3565b60405161023b91906111f0565b60405180910390f35b61024c6107d6565b60405161025991906111b9565b60405180910390f35b61026a6107e9565b60405161027791906111b9565b60405180910390f35b6102886107fc565b60405161029591906111f0565b60405180910390f35b6102b860048036038101906102b391906112cb565b61080f565b6040516102c7939291906113ce565b60405180910390f35b6102d8610988565b6040516102e591906111b9565b60405180910390f35b61030860048036038101906103039190611438565b61099b565b005b600060019054906101000a900460ff166103325760008054906101000a900460ff161561033b565b61033a610a93565b5b61037a576040517f08c379a0000000000000000000000000000000000000000000000000000000008152600401610371906114d7565b60405180910390fd5b60008060019054906101000a900460ff1615905080156103ca576001600060016101000a81548160ff02191690831515021790555060016000806101000a81548160ff0219169083151502179055505b6103d2610aa4565b826000815181106103e6576103e56114f7565b5b6020026020010151606560006101000a81548160ff021916908360000b60ff1602179055508260018151811061041f5761041e6114f7565b5b6020026020010151606560016101000a81548160ff021916908360000b60ff16021790555082600281518110610458576104576114f7565b5b6020026020010151606560026101000a81548160ff021916908360ff1602179055508260038151811061048e5761048d6114f7565b5b6020026020010151606560036101000a81548160ff021916908360ff160217905550826004815181106104c4576104c36114f7565b5b6020026020010151606560046101000a81548160ff021916908360ff160217905550826005815181106104fa576104f96114f7565b5b6020026020010151606560056101000a81548160ff021916908360ff160217905550816000815181106105305761052f6114f7565b5b6020026020010151606560066101000a81548160ff021916908360000b60ff16021790555081600181518110610569576105686114f7565b5b6020026020010151606560076101000a81548160ff021916908360000b60ff160217905550816002815181106105a2576105a16114f7565b5b6020026020010151606560086101000a81548160ff021916908360ff160217905550816003815181106105d8576105d76114f7565b5b6020026020010151606560096101000a81548160ff021916908360ff1602179055508160048151811061060e5761060d6114f7565b5b60200260200101516065600a6101000a81548160ff021916908360ff16021790555081600581518110610644576106436114f7565b5b60200260200101516065600b6101000a81548160ff021916908360ff16021790555080156106875760008060016101000a81548160ff0219169083151502179055505b505050565b606560049054906101000a900460ff1681565b606560089054906101000a900460ff1681565b606560019054906101000a900460000b81565b6065600a9054906101000a900460ff1681565b606560099054906101000a900460ff1681565b6065600b9054906101000a900460ff1681565b606560079054906101000a900460000b81565b610719610b05565b73ffffffffffffffffffffffffffffffffffffffff16610737610799565b73ffffffffffffffffffffffffffffffffffffffff161461078d576040517f08c379a000000000000000000000000000000000000000000000000000000000815260040161078490611572565b60405180910390fd5b6107976000610b0d565b565b6000603360009054906101000a900473ffffffffffffffffffffffffffffffffffffffff16905090565b606560009054906101000a900460000b81565b606560059054906101000a900460ff1681565b606560029054906101000a900460ff1681565b606560069054906101000a900460000b81565b60008060606040518060200160405280600081525090506108308888610bd3565b156108c35761083d610c91565b809350819450505087610885576040518060400160405280600381526020017f63617400000000000000000000000000000000000000000000000000000000008152506108bc565b6040518060400160405280600781526020017f6275726e6f7574000000000000000000000000000000000000000000000000008152505b905061097d565b6108cd8888610c9f565b15610963576108dd888888610d51565b809350819450505087610925576040518060400160405280600781526020017f726174547261700000000000000000000000000000000000000000000000000081525061095c565b6040518060400160405280600d81526020017f666f6f64496e73706563746f72000000000000000000000000000000000000008152505b905061097c565b61096d8786610e08565b92506109798685610e08565b91505b5b955095509592505050565b606560039054906101000a900460ff1681565b6109a3610b05565b73ffffffffffffffffffffffffffffffffffffffff166109c1610799565b73ffffffffffffffffffffffffffffffffffffffff1614610a17576040517f08c379a0000000000000000000000000000000000000000000000000000000008152600401610a0e90611572565b60405180910390fd5b600073ffffffffffffffffffffffffffffffffffffffff168173ffffffffffffffffffffffffffffffffffffffff161415610a87576040517f08c379a0000000000000000000000000000000000000000000000000000000008152600401610a7e90611604565b60405180910390fd5b610a9081610b0d565b50565b6000610a9e30610e81565b15905090565b600060019054906101000a900460ff16610af3576040517f08c379a0000000000000000000000000000000000000000000000000000000008152600401610aea90611696565b60405180910390fd5b610afb610e94565b610b03610ee5565b565b600033905090565b6000603360009054906101000a900473ffffffffffffffffffffffffffffffffffffffff16905081603360006101000a81548173ffffffffffffffffffffffffffffffffffffffff021916908373ffffffffffffffffffffffffffffffffffffffff1602179055508173ffffffffffffffffffffffffffffffffffffffff168173ffffffffffffffffffffffffffffffffffffffff167f8be0079c531659141344cd1fd0a4f28419497f9722a3daafe3b4186f6b6457e060405160405180910390a35050565b600082610bef57606560019054906101000a900460000b610c00565b606560009054906101000a900460000b5b60000b8260000b13610c155760009050610c8b565b60006014600a7ffffffffffffffffffffffffffffffffffffffffffffffffffffffffffffffffc606486610c4991906116e5565b610c539190611789565b610c5d91906117f3565b610c6791906118cc565b90508060ff166103e8610c7c8560ff16610f46565b610c86919061194b565b109150505b92915050565b600080600080915091509091565b600082610cbb57606560079054906101000a900460000b610ccc565b606560069054906101000a900460000b5b60000b8260000b13610ce15760009050610d4b565b600060147fffffffffffffffffffffffffffffffffffffffffffffffffffffffffffffffff606485610d1391906116e5565b610d1d91906117f3565b610d2791906118cc565b90508060ff166103e8610d3c8560ff16610f46565b610d46919061194b565b109150505b92915050565b600080600085610d7057606560099054906101000a900460ff16610d81565b606560089054906101000a900460ff165b9050600086610d9f576065600b9054906101000a900460ff16610db0565b6065600a9054906101000a900460ff165b90508560ff168260ff1611610dd0578186610dcb919061197c565b610dd3565b60005b95508460ff168160ff1611610df3578085610dee919061197c565b610df6565b60005b94508585935093505050935093915050565b6000808260000b12610e455760648383610e2291906119b0565b60ff1611610e3b578183610e3691906119b0565b610e3e565b60645b9050610e7b565b8260ff1682610e53906119e7565b60ff1611610e755781610e65906119e7565b83610e70919061197c565b610e78565b60005b90505b92915050565b600080823b905060008111915050919050565b600060019054906101000a900460ff16610ee3576040517f08c379a0000000000000000000000000000000000000000000000000000000008152600401610eda90611696565b60405180910390fd5b565b600060019054906101000a900460ff16610f34576040517f08c379a0000000000000000000000000000000000000000000000000000000008152600401610f2b90611696565b60405180910390fd5b610f44610f3f610b05565b610b0d565b565b600032600143610f569190611a30565b404284604051602001610f6c9493929190611af8565b6040516020818303038152906040528051906020012060001c9050919050565b6000604051905090565b600080fd5b600080fd5b600080fd5b6000601f19601f8301169050919050565b7f4e487b7100000000000000000000000000000000000000000000000000000000600052604160045260246000fd5b610fee82610fa5565b810181811067ffffffffffffffff8211171561100d5761100c610fb6565b5b80604052505050565b6000611020610f8c565b905061102c8282610fe5565b919050565b600067ffffffffffffffff82111561104c5761104b610fb6565b5b602082029050602081019050919050565b600080fd5b600060ff82169050919050565b61107881611062565b811461108357600080fd5b50565b6000813590506110958161106f565b92915050565b60006110ae6110a984611031565b611016565b905080838252602082019050602084028301858111156110d1576110d061105d565b5b835b818110156110fa57806110e68882611086565b8452602084019350506020810190506110d3565b5050509392505050565b600082601f83011261111957611118610fa0565b5b813561112984826020860161109b565b91505092915050565b6000806040838503121561114957611148610f96565b5b600083013567ffffffffffffffff81111561116757611166610f9b565b5b61117385828601611104565b925050602083013567ffffffffffffffff81111561119457611193610f9b565b5b6111a085828601611104565b9150509250929050565b6111b381611062565b82525050565b60006020820190506111ce60008301846111aa565b92915050565b60008160000b9050919050565b6111ea816111d4565b82525050565b600060208201905061120560008301846111e1565b92915050565b600073ffffffffffffffffffffffffffffffffffffffff82169050919050565b60006112368261120b565b9050919050565b6112468161122b565b82525050565b6000602082019050611261600083018461123d565b92915050565b60008115159050919050565b61127c81611267565b811461128757600080fd5b50565b60008135905061129981611273565b92915050565b6112a8816111d4565b81146112b357600080fd5b50565b6000813590506112c58161129f565b92915050565b600080600080600060a086880312156112e7576112e6610f96565b5b60006112f58882890161128a565b955050602061130688828901611086565b945050604061131788828901611086565b9350506060611328888289016112b6565b9250506080611339888289016112b6565b9150509295509295909350565b600081519050919050565b600082825260208201905092915050565b60005b83811015611380578082015181840152602081019050611365565b8381111561138f576000848401525b50505050565b60006113a082611346565b6113aa8185611351565b93506113ba818560208601611362565b6113c381610fa5565b840191505092915050565b60006060820190506113e360008301866111aa565b6113f060208301856111aa565b81810360408301526114028184611395565b9050949350505050565b6114158161122b565b811461142057600080fd5b50565b6000813590506114328161140c565b92915050565b60006020828403121561144e5761144d610f96565b5b600061145c84828501611423565b91505092915050565b7f496e697469616c697a61626c653a20636f6e747261637420697320616c72656160008201527f647920696e697469616c697a6564000000000000000000000000000000000000602082015250565b60006114c1602e83611351565b91506114cc82611465565b604082019050919050565b600060208201905081810360008301526114f0816114b4565b9050919050565b7f4e487b7100000000000000000000000000000000000000000000000000000000600052603260045260246000fd5b7f4f776e61626c653a2063616c6c6572206973206e6f7420746865206f776e6572600082015250565b600061155c602083611351565b915061156782611526565b602082019050919050565b6000602082019050818103600083015261158b8161154f565b9050919050565b7f4f776e61626c653a206e6577206f776e657220697320746865207a65726f206160008201527f6464726573730000000000000000000000000000000000000000000000000000602082015250565b60006115ee602683611351565b91506115f982611592565b604082019050919050565b6000602082019050818103600083015261161d816115e1565b9050919050565b7f496e697469616c697a61626c653a20636f6e7472616374206973206e6f74206960008201527f6e697469616c697a696e67000000000000000000000000000000000000000000602082015250565b6000611680602b83611351565b915061168b82611624565b604082019050919050565b600060208201905081810360008301526116af81611673565b9050919050565b7f4e487b7100000000000000000000000000000000000000000000000000000000600052601160045260246000fd5b60006116f0826111d4565b91506116fb836111d4565b9250827fffffffffffffffffffffffffffffffffffffffffffffffffffffffffffffff8001821260008412151615611736576117356116b6565b5b82607f01821360008412161561174f5761174e6116b6565b5b828203905092915050565b7f4e487b7100000000000000000000000000000000000000000000000000000000600052601260045260246000fd5b6000611794826111d4565b915061179f836111d4565b9250826117af576117ae61175a565b5b600160000383147fffffffffffffffffffffffffffffffffffffffffffffffffffffffffffffff80831416156117e8576117e76116b6565b5b828205905092915050565b60006117fe826111d4565b9150611809836111d4565b925082607f0482116000841360008413161615611829576118286116b6565b5b817fffffffffffffffffffffffffffffffffffffffffffffffffffffffffffffff800583126000841260008413161615611866576118656116b6565b5b827fffffffffffffffffffffffffffffffffffffffffffffffffffffffffffffff8005821260008413600084121616156118a3576118a26116b6565b5b82607f05821260008412600084121616156118c1576118c06116b6565b5b828202905092915050565b60006118d7826111d4565b91506118e2836111d4565b925081607f038313600083121516156118fe576118fd6116b6565b5b817fffffffffffffffffffffffffffffffffffffffffffffffffffffffffffffff80038312600083121615611936576119356116b6565b5b828201905092915050565b6000819050919050565b600061195682611941565b915061196183611941565b9250826119715761197061175a565b5b828206905092915050565b600061198782611062565b915061199283611062565b9250828210156119a5576119a46116b6565b5b828203905092915050565b60006119bb82611062565b91506119c683611062565b92508260ff038211156119dc576119db6116b6565b5b828201905092915050565b60006119f2826111d4565b91507fffffffffffffffffffffffffffffffffffffffffffffffffffffffffffffff80821415611a2557611a246116b6565b5b816000039050919050565b6000611a3b82611941565b9150611a4683611941565b925082821015611a5957611a586116b6565b5b828203905092915050565b60008160601b9050919050565b6000611a7c82611a64565b9050919050565b6000611a8e82611a71565b9050919050565b611aa6611aa18261122b565b611a83565b82525050565b6000819050919050565b6000819050919050565b611ad1611acc82611aac565b611ab6565b82525050565b6000819050919050565b611af2611aed82611941565b611ad7565b82525050565b6000611b048287611a95565b601482019150611b148286611ac0565b602082019150611b248285611ae1565b602082019150611b348284611ae1565b6020820191508190509594505050505056fea26469706673582212200f93da5654ba39efbef62ca3dccbe1eeb83dd0148c54fdc8657238452071407664736f6c634300080a0033",
  "immutableReferences": {},
  "source": "// SPDX-License-Identifier: MIT\n\npragma solidity ^0.8.0;\n\nimport \"@openzeppelin/contracts-upgradeable/proxy/utils/Initializable.sol\";\nimport \"@openzeppelin/contracts-upgradeable/access/OwnableUpgradeable.sol\";\nimport \"@openzeppelin/contracts-upgradeable/token/ERC721/ERC721Upgradeable.sol\";\n\ncontract Properties is Initializable, OwnableUpgradeable {\n  int8 public disasterEfficiencyMinimumChef; // Minimum skill percentage for chefs during a burnout event\n  int8 public disasterEfficiencyMinimumRat; // Minimum intelligence percentage for rats during a burnout event\n  uint8 public disasterEfficiencyLossChef; // Skill percentage loss for chefs during a burnout event\n  uint8 public disasterEfficiencyLossRat; // Intelligence percentage loss for rats during a cat event\n  uint8 public disasterToleranceLossChef; // Insanity percentage loss for chefs during a burnout event\n  uint8 public disasterToleranceLossRat; // Fatness percentage loss for rats during a cat event\n\n  int8 public mishapEfficiencyMinimumChef; // Minimum skill percentage for chefs during a foot inspector event\n  int8 public mishapEfficiencyMinimumRat; // Minimum intelligence percentage for rats during a rat trap event\n  uint8 public mishapEfficiencyLossChef; // Skill percentage loss for chefs during a food inspector event\n  uint8 public mishapEfficiencyLossRat; // Intelligence percentage loss for rats during a rat trap event\n  uint8 public mishapToleranceLossChef; // Insanity percentage loss for chefs during a food inspector event\n  uint8 public mishapToleranceLossRat; // Fatness percentage loss for rats during a rat trap event\n\n  function initialize(uint8[] memory _disasterParams, uint8[] memory _mishapParams) external initializer {\n    __Ownable_init();\n\n    disasterEfficiencyMinimumChef = int8(_disasterParams[0]);\n    disasterEfficiencyMinimumRat = int8(_disasterParams[1]);\n    disasterEfficiencyLossChef = _disasterParams[2];\n    disasterEfficiencyLossRat = _disasterParams[3];\n    disasterToleranceLossChef = _disasterParams[4];\n    disasterToleranceLossRat = _disasterParams[5];\n\n    mishapEfficiencyMinimumChef = int8(_mishapParams[0]);\n    mishapEfficiencyMinimumRat = int8(_mishapParams[1]);\n    mishapEfficiencyLossChef = _mishapParams[2];\n    mishapEfficiencyLossRat = _mishapParams[3];\n    mishapToleranceLossChef = _mishapParams[4];\n    mishapToleranceLossRat = _mishapParams[5];\n  }\n\n  /**\n   * Does a burnout / cat event occur?\n   * @param efficiency - The character's current value\n   * @return true if event occurred\n   */\n  function _doesDisasterOccur(bool isChef, int8 efficiency) internal view returns(bool) {\n    if (efficiency <= (isChef ? disasterEfficiencyMinimumChef : disasterEfficiencyMinimumRat)) {\n      return false;\n    }\n    uint8 likelihood = uint8(((efficiency - 100) / -4 * 10) + 20);\n    return random(uint8(efficiency)) % 1000 < likelihood;\n  }\n\n  /**\n   * Does a food inspector / rat trap event occur?\n   * @param efficiency - The character's current value\n   * @return true if event occurred\n   */\n  function _doesMishapOccur(bool isChef, int8 efficiency) internal view returns(bool) {\n    if (efficiency <= (isChef ? mishapEfficiencyMinimumChef : mishapEfficiencyMinimumRat)) {\n      return false;\n    }\n    uint8 likelihood = uint8(((efficiency - 100) * -1) + 20);\n    return random(uint8(efficiency)) % 1000 < likelihood;\n  }\n\n  function _resolveDisaster() internal pure returns(uint8, uint8) {\n    return (0, 0);\n  }\n\n  function _resolveMishap(bool isChef, uint8 efficiencyValue, uint8 toleranceValue) internal view returns(uint8, uint8) {\n    uint8 efficiencyLoss = isChef ? mishapEfficiencyLossChef : mishapEfficiencyLossRat;\n    uint8 toleranceLoss = isChef ? mishapToleranceLossChef : mishapToleranceLossRat;\n    efficiencyValue = (efficiencyLoss > efficiencyValue) ? 0 : efficiencyValue - efficiencyLoss;\n    toleranceValue = (toleranceLoss > toleranceValue) ? 0 : toleranceValue - toleranceLoss;\n    return (efficiencyValue, toleranceValue);\n  }\n\n  function _getUpdatedValue(uint8 old, int8 increment) internal pure returns(uint8) {\n    if (increment >= 0) {\n      return (uint8(increment) + old > 100) ? 100 : old + uint8(increment);\n    } else {\n      return (uint8(-increment) > old) ? 0 : old - uint8(-increment);\n    }\n  }\n\n  function getEventUpdates(bool isChef, uint8 currentEfficiency, uint8 currentTolerance, int8 efficiencyIncrement, int8 toleranceIncrement) public view returns(uint8 efficiencyValue, uint8 toleranceValue, string memory eventName) {\n    eventName = \"\";\n    if (_doesDisasterOccur(isChef, int8(currentEfficiency))) {\n      (efficiencyValue, toleranceValue) = _resolveDisaster();\n      eventName = isChef ? \"burnout\" : \"cat\";\n    } else if (_doesMishapOccur(isChef, int8(currentEfficiency))) {\n      (efficiencyValue, toleranceValue) = _resolveMishap(isChef, currentEfficiency, currentTolerance);\n      eventName = isChef ? \"foodInspector\" : \"ratTrap\";\n    } else {\n      efficiencyValue = _getUpdatedValue(currentEfficiency, efficiencyIncrement);\n      toleranceValue = _getUpdatedValue(currentTolerance, toleranceIncrement);\n    }\n  }\n\n  /**\n   * Generates a pseudorandom number\n   * @param seed - A value to ensure different outcomes for different sources in the same block\n   * @return A pseudorandom value\n   */\n  function random(uint256 seed) internal view returns (uint256) {\n    return uint256(keccak256(abi.encodePacked(\n        tx.origin,\n        blockhash(block.number - 1),\n        block.timestamp,\n        seed\n      )));\n  }\n}\n",
  "sourcePath": "/Users/chris/workspace/ratalert/ratalert-contracts/contracts/Properties.sol",
  "compiler": {
    "name": "solc",
    "version": "0.8.10+commit.fc410830.Emscripten.clang"
  },
  "schemaVersion": "3.4.5",
  "updatedAt": "2022-02-28T14:42:23.164Z",
  "networkType": "ethereum",
  "devdoc": {
    "kind": "dev",
    "methods": {
      "owner()": {
        "details": "Returns the address of the current owner."
      },
      "renounceOwnership()": {
        "details": "Leaves the contract without owner. It will not be possible to call `onlyOwner` functions anymore. Can only be called by the current owner. NOTE: Renouncing ownership will leave the contract without an owner, thereby removing any functionality that is only available to the owner."
      },
      "transferOwnership(address)": {
        "details": "Transfers ownership of the contract to a new account (`newOwner`). Can only be called by the current owner."
      }
    },
    "version": 1
  },
  "userdoc": {
    "kind": "user",
    "methods": {},
    "version": 1
  }
}