{
  "contractName": "PropertiesV2",
  "abi": [
    {
      "anonymous": false,
      "inputs": [
        {
          "indexed": true,
          "internalType": "address",
          "name": "previousOwner",
          "type": "address"
        },
        {
          "indexed": true,
          "internalType": "address",
          "name": "newOwner",
          "type": "address"
        }
      ],
      "name": "OwnershipTransferred",
      "type": "event"
    },
    {
      "inputs": [],
      "name": "disasterEfficiencyLossChef",
      "outputs": [
        {
          "internalType": "uint8",
          "name": "",
          "type": "uint8"
        }
      ],
      "stateMutability": "view",
      "type": "function",
      "constant": true
    },
    {
      "inputs": [],
      "name": "disasterEfficiencyLossRat",
      "outputs": [
        {
          "internalType": "uint8",
          "name": "",
          "type": "uint8"
        }
      ],
      "stateMutability": "view",
      "type": "function",
      "constant": true
    },
    {
      "inputs": [],
      "name": "disasterEfficiencyMinimumChef",
      "outputs": [
        {
          "internalType": "int8",
          "name": "",
          "type": "int8"
        }
      ],
      "stateMutability": "view",
      "type": "function",
      "constant": true
    },
    {
      "inputs": [],
      "name": "disasterEfficiencyMinimumRat",
      "outputs": [
        {
          "internalType": "int8",
          "name": "",
          "type": "int8"
        }
      ],
      "stateMutability": "view",
      "type": "function",
      "constant": true
    },
    {
      "inputs": [],
      "name": "disasterToleranceLossChef",
      "outputs": [
        {
          "internalType": "uint8",
          "name": "",
          "type": "uint8"
        }
      ],
      "stateMutability": "view",
      "type": "function",
      "constant": true
    },
    {
      "inputs": [],
      "name": "disasterToleranceLossRat",
      "outputs": [
        {
          "internalType": "uint8",
          "name": "",
          "type": "uint8"
        }
      ],
      "stateMutability": "view",
      "type": "function",
      "constant": true
    },
    {
      "inputs": [],
      "name": "mishapEfficiencyLossChef",
      "outputs": [
        {
          "internalType": "uint8",
          "name": "",
          "type": "uint8"
        }
      ],
      "stateMutability": "view",
      "type": "function",
      "constant": true
    },
    {
      "inputs": [],
      "name": "mishapEfficiencyLossRat",
      "outputs": [
        {
          "internalType": "uint8",
          "name": "",
          "type": "uint8"
        }
      ],
      "stateMutability": "view",
      "type": "function",
      "constant": true
    },
    {
      "inputs": [],
      "name": "mishapEfficiencyMinimumChef",
      "outputs": [
        {
          "internalType": "int8",
          "name": "",
          "type": "int8"
        }
      ],
      "stateMutability": "view",
      "type": "function",
      "constant": true
    },
    {
      "inputs": [],
      "name": "mishapEfficiencyMinimumRat",
      "outputs": [
        {
          "internalType": "int8",
          "name": "",
          "type": "int8"
        }
      ],
      "stateMutability": "view",
      "type": "function",
      "constant": true
    },
    {
      "inputs": [],
      "name": "mishapToleranceLossChef",
      "outputs": [
        {
          "internalType": "uint8",
          "name": "",
          "type": "uint8"
        }
      ],
      "stateMutability": "view",
      "type": "function",
      "constant": true
    },
    {
      "inputs": [],
      "name": "mishapToleranceLossRat",
      "outputs": [
        {
          "internalType": "uint8",
          "name": "",
          "type": "uint8"
        }
      ],
      "stateMutability": "view",
      "type": "function",
      "constant": true
    },
    {
      "inputs": [],
      "name": "owner",
      "outputs": [
        {
          "internalType": "address",
          "name": "",
          "type": "address"
        }
      ],
      "stateMutability": "view",
      "type": "function",
      "constant": true
    },
    {
      "inputs": [],
      "name": "renounceOwnership",
      "outputs": [],
      "stateMutability": "nonpayable",
      "type": "function"
    },
    {
      "inputs": [
        {
          "internalType": "address",
          "name": "newOwner",
          "type": "address"
        }
      ],
      "name": "transferOwnership",
      "outputs": [],
      "stateMutability": "nonpayable",
      "type": "function"
    },
    {
      "inputs": [],
      "name": "initialize",
      "outputs": [],
      "stateMutability": "nonpayable",
      "type": "function"
    },
    {
      "inputs": [
        {
          "internalType": "uint8[]",
          "name": "_disasterParams",
          "type": "uint8[]"
        },
        {
          "internalType": "uint8[]",
          "name": "_mishapParams",
          "type": "uint8[]"
        }
      ],
      "name": "configure",
      "outputs": [],
      "stateMutability": "nonpayable",
      "type": "function"
    },
    {
      "inputs": [
        {
          "internalType": "bool",
          "name": "isChef",
          "type": "bool"
        },
        {
          "internalType": "uint8",
          "name": "currentEfficiency",
          "type": "uint8"
        },
        {
          "internalType": "uint8",
          "name": "currentTolerance",
          "type": "uint8"
        },
        {
          "internalType": "int8",
          "name": "efficiencyIncrement",
          "type": "int8"
        },
        {
          "internalType": "int8",
          "name": "toleranceIncrement",
          "type": "int8"
        },
        {
          "internalType": "uint256",
          "name": "randomVal",
          "type": "uint256"
        }
      ],
      "name": "getEventUpdates",
      "outputs": [
        {
          "internalType": "uint8",
          "name": "efficiencyValue",
          "type": "uint8"
        },
        {
          "internalType": "uint8",
          "name": "toleranceValue",
          "type": "uint8"
        },
        {
          "internalType": "string",
          "name": "eventName",
          "type": "string"
        }
      ],
      "stateMutability": "view",
      "type": "function",
      "constant": true
    }
  ],
  "bytecode": "0x608060405234801561001057600080fd5b50611b02806100206000396000f3fe608060405234801561001057600080fd5b50600436106101165760003560e01c80638129fc1c116100a25780639891b413116100715780639891b4131461028b578063b8be3459146102a9578063c065f695146102c7578063ec5ce126146102e5578063f2fde38b1461030357610116565b80638129fc1c146102295780638da5cb5b146102335780639299019814610251578063958384001461026f57610116565b80634718e308116100e95780634718e308146101935780634ffa59f7146101c55780635e264726146101e3578063704431c614610201578063715018a61461021f57610116565b8063112a23931461011b5780631260766814610139578063217c606f146101575780633337e58714610175575b600080fd5b61012361031f565b6040516101309190611006565b60405180910390f35b610141610332565b60405161014e9190611006565b60405180910390f35b61015f610345565b60405161016c919061103d565b60405180910390f35b61017d610358565b60405161018a9190611006565b60405180910390f35b6101ad60048036038101906101a89190611132565b61036b565b6040516101bc93929190611258565b60405180910390f35b6101cd6104e7565b6040516101da9190611006565b60405180910390f35b6101eb6104fa565b6040516101f89190611006565b60405180910390f35b61020961050d565b604051610216919061103d565b60405180910390f35b610227610520565b005b6102316105a8565b005b61023b610694565b60405161024891906112d7565b60405180910390f35b6102596106be565b604051610266919061103d565b60405180910390f35b6102896004803603810190610284919061143a565b6106d1565b005b6102936109e5565b6040516102a09190611006565b60405180910390f35b6102b16109f8565b6040516102be9190611006565b60405180910390f35b6102cf610a0b565b6040516102dc919061103d565b60405180910390f35b6102ed610a1e565b6040516102fa9190611006565b60405180910390f35b61031d600480360381019061031891906114de565b610a31565b005b606560049054906101000a900460ff1681565b606560089054906101000a900460ff1681565b606560019054906101000a900460000b81565b6065600a9054906101000a900460ff1681565b600080606060405180602001604052806000815250905061038d898986610b29565b156104205761039a610bee565b8093508194505050886103e2576040518060400160405280600381526020017f6361740000000000000000000000000000000000000000000000000000000000815250610419565b6040518060400160405280600781526020017f6275726e6f7574000000000000000000000000000000000000000000000000008152505b90506104db565b61042b898986610bfc565b156104c15761043b898989610cb5565b809350819450505088610483576040518060400160405280600781526020017f72617454726170000000000000000000000000000000000000000000000000008152506104ba565b6040518060400160405280600d81526020017f666f6f64496e73706563746f72000000000000000000000000000000000000008152505b90506104da565b6104cb8887610d6c565b92506104d78786610d6c565b91505b5b96509650969350505050565b606560099054906101000a900460ff1681565b6065600b9054906101000a900460ff1681565b606560079054906101000a900460000b81565b610528610de5565b73ffffffffffffffffffffffffffffffffffffffff16610546610694565b73ffffffffffffffffffffffffffffffffffffffff161461059c576040517f08c379a000000000000000000000000000000000000000000000000000000000815260040161059390611557565b60405180910390fd5b6105a66000610ded565b565b600060019054906101000a900460ff166105d05760008054906101000a900460ff16156105d9565b6105d8610eb3565b5b610618576040517f08c379a000000000000000000000000000000000000000000000000000000000815260040161060f906115e9565b60405180910390fd5b60008060019054906101000a900460ff161590508015610668576001600060016101000a81548160ff02191690831515021790555060016000806101000a81548160ff0219169083151502179055505b610670610ec4565b80156106915760008060016101000a81548160ff0219169083151502179055505b50565b6000603360009054906101000a900473ffffffffffffffffffffffffffffffffffffffff16905090565b606560009054906101000a900460000b81565b6106d9610de5565b73ffffffffffffffffffffffffffffffffffffffff166106f7610694565b73ffffffffffffffffffffffffffffffffffffffff161461074d576040517f08c379a000000000000000000000000000000000000000000000000000000000815260040161074490611557565b60405180910390fd5b8160008151811061076157610760611609565b5b6020026020010151606560006101000a81548160ff021916908360000b60ff1602179055508160018151811061079a57610799611609565b5b6020026020010151606560016101000a81548160ff021916908360000b60ff160217905550816002815181106107d3576107d2611609565b5b6020026020010151606560026101000a81548160ff021916908360ff1602179055508160038151811061080957610808611609565b5b6020026020010151606560036101000a81548160ff021916908360ff1602179055508160048151811061083f5761083e611609565b5b6020026020010151606560046101000a81548160ff021916908360ff1602179055508160058151811061087557610874611609565b5b6020026020010151606560056101000a81548160ff021916908360ff160217905550806000815181106108ab576108aa611609565b5b6020026020010151606560066101000a81548160ff021916908360000b60ff160217905550806001815181106108e4576108e3611609565b5b6020026020010151606560076101000a81548160ff021916908360000b60ff1602179055508060028151811061091d5761091c611609565b5b6020026020010151606560086101000a81548160ff021916908360ff1602179055508060038151811061095357610952611609565b5b6020026020010151606560096101000a81548160ff021916908360ff1602179055508060048151811061098957610988611609565b5b60200260200101516065600a6101000a81548160ff021916908360ff160217905550806005815181106109bf576109be611609565b5b60200260200101516065600b6101000a81548160ff021916908360ff1602179055505050565b606560059054906101000a900460ff1681565b606560029054906101000a900460ff1681565b606560069054906101000a900460000b81565b606560039054906101000a900460ff1681565b610a39610de5565b73ffffffffffffffffffffffffffffffffffffffff16610a57610694565b73ffffffffffffffffffffffffffffffffffffffff1614610aad576040517f08c379a0000000000000000000000000000000000000000000000000000000008152600401610aa490611557565b60405180910390fd5b600073ffffffffffffffffffffffffffffffffffffffff168173ffffffffffffffffffffffffffffffffffffffff161415610b1d576040517f08c379a0000000000000000000000000000000000000000000000000000000008152600401610b14906116aa565b60405180910390fd5b610b2681610ded565b50565b600080821415610b3c5760009050610be7565b83610b5657606560019054906101000a900460000b610b67565b606560009054906101000a900460000b5b60000b8360000b13610b7c5760009050610be7565b60006014600a7ffffffffffffffffffffffffffffffffffffffffffffffffffffffffffffffffc606487610bb091906116f9565b610bba919061179d565b610bc49190611807565b610bce91906118e0565b90508060ff166103e884610be29190611955565b109150505b9392505050565b600080600080915091509091565b600080821415610c0f5760009050610cae565b83610c2957606560079054906101000a900460000b610c3a565b606560069054906101000a900460000b5b60000b8360000b13610c4f5760009050610cae565b600060147fffffffffffffffffffffffffffffffffffffffffffffffffffffffffffffffff606486610c8191906116f9565b610c8b9190611807565b610c9591906118e0565b90508060ff166103e884610ca99190611955565b109150505b9392505050565b600080600085610cd457606560099054906101000a900460ff16610ce5565b606560089054906101000a900460ff165b9050600086610d03576065600b9054906101000a900460ff16610d14565b6065600a9054906101000a900460ff165b90508560ff168260ff1611610d34578186610d2f9190611986565b610d37565b60005b95508460ff168160ff1611610d57578085610d529190611986565b610d5a565b60005b94508585935093505050935093915050565b6000808260000b12610da95760648383610d8691906119ba565b60ff1611610d9f578183610d9a91906119ba565b610da2565b60645b9050610ddf565b8260ff1682610db7906119f1565b60ff1611610dd95781610dc9906119f1565b83610dd49190611986565b610ddc565b60005b90505b92915050565b600033905090565b6000603360009054906101000a900473ffffffffffffffffffffffffffffffffffffffff16905081603360006101000a81548173ffffffffffffffffffffffffffffffffffffffff021916908373ffffffffffffffffffffffffffffffffffffffff1602179055508173ffffffffffffffffffffffffffffffffffffffff168173ffffffffffffffffffffffffffffffffffffffff167f8be0079c531659141344cd1fd0a4f28419497f9722a3daafe3b4186f6b6457e060405160405180910390a35050565b6000610ebe30610f25565b15905090565b600060019054906101000a900460ff16610f13576040517f08c379a0000000000000000000000000000000000000000000000000000000008152600401610f0a90611aac565b60405180910390fd5b610f1b610f38565b610f23610f89565b565b600080823b905060008111915050919050565b600060019054906101000a900460ff16610f87576040517f08c379a0000000000000000000000000000000000000000000000000000000008152600401610f7e90611aac565b60405180910390fd5b565b600060019054906101000a900460ff16610fd8576040517f08c379a0000000000000000000000000000000000000000000000000000000008152600401610fcf90611aac565b60405180910390fd5b610fe8610fe3610de5565b610ded565b565b600060ff82169050919050565b61100081610fea565b82525050565b600060208201905061101b6000830184610ff7565b92915050565b60008160000b9050919050565b61103781611021565b82525050565b6000602082019050611052600083018461102e565b92915050565b6000604051905090565b600080fd5b600080fd5b60008115159050919050565b6110818161106c565b811461108c57600080fd5b50565b60008135905061109e81611078565b92915050565b6110ad81610fea565b81146110b857600080fd5b50565b6000813590506110ca816110a4565b92915050565b6110d981611021565b81146110e457600080fd5b50565b6000813590506110f6816110d0565b92915050565b6000819050919050565b61110f816110fc565b811461111a57600080fd5b50565b60008135905061112c81611106565b92915050565b60008060008060008060c0878903121561114f5761114e611062565b5b600061115d89828a0161108f565b965050602061116e89828a016110bb565b955050604061117f89828a016110bb565b945050606061119089828a016110e7565b93505060806111a189828a016110e7565b92505060a06111b289828a0161111d565b9150509295509295509295565b600081519050919050565b600082825260208201905092915050565b60005b838110156111f95780820151818401526020810190506111de565b83811115611208576000848401525b50505050565b6000601f19601f8301169050919050565b600061122a826111bf565b61123481856111ca565b93506112448185602086016111db565b61124d8161120e565b840191505092915050565b600060608201905061126d6000830186610ff7565b61127a6020830185610ff7565b818103604083015261128c818461121f565b9050949350505050565b600073ffffffffffffffffffffffffffffffffffffffff82169050919050565b60006112c182611296565b9050919050565b6112d1816112b6565b82525050565b60006020820190506112ec60008301846112c8565b92915050565b600080fd5b7f4e487b7100000000000000000000000000000000000000000000000000000000600052604160045260246000fd5b61132f8261120e565b810181811067ffffffffffffffff8211171561134e5761134d6112f7565b5b80604052505050565b6000611361611058565b905061136d8282611326565b919050565b600067ffffffffffffffff82111561138d5761138c6112f7565b5b602082029050602081019050919050565b600080fd5b60006113b66113b184611372565b611357565b905080838252602082019050602084028301858111156113d9576113d861139e565b5b835b8181101561140257806113ee88826110bb565b8452602084019350506020810190506113db565b5050509392505050565b600082601f830112611421576114206112f2565b5b81356114318482602086016113a3565b91505092915050565b6000806040838503121561145157611450611062565b5b600083013567ffffffffffffffff81111561146f5761146e611067565b5b61147b8582860161140c565b925050602083013567ffffffffffffffff81111561149c5761149b611067565b5b6114a88582860161140c565b9150509250929050565b6114bb816112b6565b81146114c657600080fd5b50565b6000813590506114d8816114b2565b92915050565b6000602082840312156114f4576114f3611062565b5b6000611502848285016114c9565b91505092915050565b7f4f776e61626c653a2063616c6c6572206973206e6f7420746865206f776e6572600082015250565b60006115416020836111ca565b915061154c8261150b565b602082019050919050565b6000602082019050818103600083015261157081611534565b9050919050565b7f496e697469616c697a61626c653a20636f6e747261637420697320616c72656160008201527f647920696e697469616c697a6564000000000000000000000000000000000000602082015250565b60006115d3602e836111ca565b91506115de82611577565b604082019050919050565b60006020820190508181036000830152611602816115c6565b9050919050565b7f4e487b7100000000000000000000000000000000000000000000000000000000600052603260045260246000fd5b7f4f776e61626c653a206e6577206f776e657220697320746865207a65726f206160008201527f6464726573730000000000000000000000000000000000000000000000000000602082015250565b60006116946026836111ca565b915061169f82611638565b604082019050919050565b600060208201905081810360008301526116c381611687565b9050919050565b7f4e487b7100000000000000000000000000000000000000000000000000000000600052601160045260246000fd5b600061170482611021565b915061170f83611021565b9250827fffffffffffffffffffffffffffffffffffffffffffffffffffffffffffffff800182126000841215161561174a576117496116ca565b5b82607f018213600084121615611763576117626116ca565b5b828203905092915050565b7f4e487b7100000000000000000000000000000000000000000000000000000000600052601260045260246000fd5b60006117a882611021565b91506117b383611021565b9250826117c3576117c261176e565b5b600160000383147fffffffffffffffffffffffffffffffffffffffffffffffffffffffffffffff80831416156117fc576117fb6116ca565b5b828205905092915050565b600061181282611021565b915061181d83611021565b925082607f048211600084136000841316161561183d5761183c6116ca565b5b817fffffffffffffffffffffffffffffffffffffffffffffffffffffffffffffff80058312600084126000841316161561187a576118796116ca565b5b827fffffffffffffffffffffffffffffffffffffffffffffffffffffffffffffff8005821260008413600084121616156118b7576118b66116ca565b5b82607f05821260008412600084121616156118d5576118d46116ca565b5b828202905092915050565b60006118eb82611021565b91506118f683611021565b925081607f03831360008312151615611912576119116116ca565b5b817fffffffffffffffffffffffffffffffffffffffffffffffffffffffffffffff8003831260008312161561194a576119496116ca565b5b828201905092915050565b6000611960826110fc565b915061196b836110fc565b92508261197b5761197a61176e565b5b828206905092915050565b600061199182610fea565b915061199c83610fea565b9250828210156119af576119ae6116ca565b5b828203905092915050565b60006119c582610fea565b91506119d083610fea565b92508260ff038211156119e6576119e56116ca565b5b828201905092915050565b60006119fc82611021565b91507fffffffffffffffffffffffffffffffffffffffffffffffffffffffffffffff80821415611a2f57611a2e6116ca565b5b816000039050919050565b7f496e697469616c697a61626c653a20636f6e7472616374206973206e6f74206960008201527f6e697469616c697a696e67000000000000000000000000000000000000000000602082015250565b6000611a96602b836111ca565b9150611aa182611a3a565b604082019050919050565b60006020820190508181036000830152611ac581611a89565b905091905056fea2646970667358221220de299f9d8b1ce41959002d7d0958655a312274befa60c88e0ed91663d4b0de8f64736f6c634300080a0033",
  "immutableReferences": {},
  "source": "// SPDX-License-Identifier: MIT\n\npragma solidity ^0.8.0;\n\nimport \"@openzeppelin/contracts-upgradeable/proxy/utils/Initializable.sol\";\nimport \"@openzeppelin/contracts-upgradeable/access/OwnableUpgradeable.sol\";\nimport \"@openzeppelin/contracts-upgradeable/token/ERC721/ERC721Upgradeable.sol\";\n\ncontract PropertiesV2 is Initializable, OwnableUpgradeable {\n  int8 public disasterEfficiencyMinimumChef; // Minimum skill percentage for chefs during a burnout event\n  int8 public disasterEfficiencyMinimumRat; // Minimum intelligence percentage for rats during a burnout event\n  uint8 public disasterEfficiencyLossChef; // Skill percentage loss for chefs during a burnout event\n  uint8 public disasterEfficiencyLossRat; // Intelligence percentage loss for rats during a cat event\n  uint8 public disasterToleranceLossChef; // Freak percentage loss for chefs during a burnout event\n  uint8 public disasterToleranceLossRat; // BodyMass percentage loss for rats during a cat event\n\n  int8 public mishapEfficiencyMinimumChef; // Minimum skill percentage for chefs during a foot inspector event\n  int8 public mishapEfficiencyMinimumRat; // Minimum intelligence percentage for rats during a rat trap event\n  uint8 public mishapEfficiencyLossChef; // Skill percentage loss for chefs during a food inspector event\n  uint8 public mishapEfficiencyLossRat; // Intelligence percentage loss for rats during a rat trap event\n  uint8 public mishapToleranceLossChef; // Freak percentage loss for chefs during a food inspector event\n  uint8 public mishapToleranceLossRat; // BodyMass percentage loss for rats during a rat trap event\n\n  function initialize() external initializer {\n    __Ownable_init();\n  }\n\n  /**\n   * Allows DAO to update game parameters\n   */\n  function configure(uint8[] memory _disasterParams, uint8[] memory _mishapParams) external onlyOwner {\n    disasterEfficiencyMinimumChef = int8(_disasterParams[0]);\n    disasterEfficiencyMinimumRat = int8(_disasterParams[1]);\n    disasterEfficiencyLossChef = _disasterParams[2];\n    disasterEfficiencyLossRat = _disasterParams[3];\n    disasterToleranceLossChef = _disasterParams[4];\n    disasterToleranceLossRat = _disasterParams[5];\n\n    mishapEfficiencyMinimumChef = int8(_mishapParams[0]);\n    mishapEfficiencyMinimumRat = int8(_mishapParams[1]);\n    mishapEfficiencyLossChef = _mishapParams[2];\n    mishapEfficiencyLossRat = _mishapParams[3];\n    mishapToleranceLossChef = _mishapParams[4];\n    mishapToleranceLossRat = _mishapParams[5];\n  }\n\n  /**\n   * Does a burnout / cat event occur?\n   * @param isChef - Whether it's a Chef or not\n   * @param efficiency - The character's current value\n   * @param randomVal - A ChainLink VRF random number\n   * @return Whether an event occurred\n   */\n  function _doesDisasterOccur(bool isChef, int8 efficiency, uint256 randomVal) internal view returns(bool) {\n    if (randomVal == 0) return false;\n    if (efficiency <= (isChef ? disasterEfficiencyMinimumChef : disasterEfficiencyMinimumRat)) return false;\n    uint8 likelihood = uint8(((efficiency - 100) / -4 * 10) + 20);\n    return randomVal % 1000 < likelihood;\n  }\n\n  /**\n   * Does a food inspector / rat trap event occur?\n   * @param isChef - Whether it's a Chef or not\n   * @param efficiency - The character's current value\n   * @param randomVal - A ChainLink VRF random number\n   * @return Whether an event occurred\n   */\n  function _doesMishapOccur(bool isChef, int8 efficiency, uint256 randomVal) internal view returns(bool) {\n    if (randomVal == 0) return false;\n    if (efficiency <= (isChef ? mishapEfficiencyMinimumChef : mishapEfficiencyMinimumRat)) return false;\n    uint8 likelihood = uint8(((efficiency - 100) * -1) + 20);\n    return randomVal % 1000 < likelihood;\n  }\n\n  /**\n   * Returns the efficiency & tolerance values after a disaster event occurred\n   * @return New efficiency value\n   * @return New tolerance value\n   */\n  function _resolveDisaster() internal pure returns(uint8, uint8) {\n    return (0, 0);\n  }\n\n  /**\n   * Returns the efficiency & tolerance values after a mishap event occurred\n   * @param isChef - Whether this is a chef\n   * @param efficiencyValue - Current efficiency value\n   * @param toleranceValue - Current tolerance value\n   * @return New efficiency value\n   * @return New tolerance value\n   */\n  function _resolveMishap(bool isChef, uint8 efficiencyValue, uint8 toleranceValue) internal view returns(uint8, uint8) {\n    uint8 efficiencyLoss = isChef ? mishapEfficiencyLossChef : mishapEfficiencyLossRat;\n    uint8 toleranceLoss = isChef ? mishapToleranceLossChef : mishapToleranceLossRat;\n    efficiencyValue = (efficiencyLoss > efficiencyValue) ? 0 : efficiencyValue - efficiencyLoss;\n    toleranceValue = (toleranceLoss > toleranceValue) ? 0 : toleranceValue - toleranceLoss;\n    return (efficiencyValue, toleranceValue);\n  }\n\n  /**\n   * Adds/subtracts the given increment to/from the old value within a 0 - 100 range\n   * @param old - Current value\n   * @param increment - Value to add/subtract\n   * @return New value\n   */\n  function _getUpdatedValue(uint8 old, int8 increment) internal pure returns(uint8) {\n    if (increment >= 0) {\n      return (uint8(increment) + old > 100) ? 100 : old + uint8(increment);\n    } else {\n      return (uint8(-increment) > old) ? 0 : old - uint8(-increment);\n    }\n  }\n\n  /**\n   * Event & level dispatcher, checks if events are triggered and returns new levels accordingly\n   * @param isChef - Whether it's a Chef or not\n   * @param currentEfficiency - The character's current efficiency value\n   * @param currentTolerance - The character's current tolerance value\n   * @param efficiencyIncrement - Value to add/subtract to/from efficiency\n   * @param toleranceIncrement - Value to add/subtract to/from tolerance\n   * @param randomVal - A ChainLink VRF random number\n   * @return efficiencyValue - New efficiency value\n   * @return toleranceValue - New tolerance value\n   * @return eventName - String containing the event or empty string if none occurred\n   */\n  function getEventUpdates(bool isChef, uint8 currentEfficiency, uint8 currentTolerance, int8 efficiencyIncrement, int8 toleranceIncrement, uint256 randomVal) public view returns(uint8 efficiencyValue, uint8 toleranceValue, string memory eventName) {\n    eventName = \"\";\n    if (_doesDisasterOccur(isChef, int8(currentEfficiency), randomVal)) {\n      (efficiencyValue, toleranceValue) = _resolveDisaster();\n      eventName = isChef ? \"burnout\" : \"cat\";\n    } else if (_doesMishapOccur(isChef, int8(currentEfficiency), randomVal)) {\n      (efficiencyValue, toleranceValue) = _resolveMishap(isChef, currentEfficiency, currentTolerance);\n      eventName = isChef ? \"foodInspector\" : \"ratTrap\";\n    } else {\n      efficiencyValue = _getUpdatedValue(currentEfficiency, efficiencyIncrement);\n      toleranceValue = _getUpdatedValue(currentTolerance, toleranceIncrement);\n    }\n  }\n}\n",
  "sourcePath": "/Users/chris/workspace/ratalert/ratalert-contracts/contracts/PropertiesV2.sol",
  "compiler": {
    "name": "solc",
    "version": "0.8.10+commit.fc410830.Emscripten.clang"
  },
  "schemaVersion": "3.4.6",
  "updatedAt": "2022-03-30T12:22:55.259Z",
  "networkType": "ethereum",
  "devdoc": {
    "kind": "dev",
    "methods": {
      "getEventUpdates(bool,uint8,uint8,int8,int8,uint256)": {
        "params": {
          "currentEfficiency": "- The character's current efficiency value",
          "currentTolerance": "- The character's current tolerance value",
          "efficiencyIncrement": "- Value to add/subtract to/from efficiency",
          "isChef": "- Whether it's a Chef or not",
          "randomVal": "- A ChainLink VRF random number",
          "toleranceIncrement": "- Value to add/subtract to/from tolerance"
        },
        "returns": {
          "efficiencyValue": "- New efficiency value",
          "eventName": "- String containing the event or empty string if none occurred",
          "toleranceValue": "- New tolerance value"
        }
      },
      "owner()": {
        "details": "Returns the address of the current owner."
      },
      "renounceOwnership()": {
        "details": "Leaves the contract without owner. It will not be possible to call `onlyOwner` functions anymore. Can only be called by the current owner. NOTE: Renouncing ownership will leave the contract without an owner, thereby removing any functionality that is only available to the owner."
      },
      "transferOwnership(address)": {
        "details": "Transfers ownership of the contract to a new account (`newOwner`). Can only be called by the current owner."
      }
    },
    "version": 1
  },
  "userdoc": {
    "kind": "user",
    "methods": {
      "configure(uint8[],uint8[])": {
        "notice": "Allows DAO to update game parameters"
      },
      "getEventUpdates(bool,uint8,uint8,int8,int8,uint256)": {
        "notice": "Event & level dispatcher, checks if events are triggered and returns new levels accordingly"
      }
    },
    "version": 1
  }
}