{
  "contractName": "TheStakehouse",
  "abi": [
    {
      "anonymous": false,
      "inputs": [
        {
          "indexed": false,
          "internalType": "uint256",
          "name": "tokenId",
          "type": "uint256"
        },
        {
          "indexed": false,
          "internalType": "uint256",
          "name": "earned",
          "type": "uint256"
        },
        {
          "indexed": false,
          "internalType": "bool",
          "name": "unstaked",
          "type": "bool"
        },
        {
          "indexed": false,
          "internalType": "uint8",
          "name": "skill",
          "type": "uint8"
        },
        {
          "indexed": false,
          "internalType": "uint8",
          "name": "insanity",
          "type": "uint8"
        },
        {
          "indexed": false,
          "internalType": "string",
          "name": "eventName",
          "type": "string"
        },
        {
          "indexed": false,
          "internalType": "uint256",
          "name": "foodTokensPerRat",
          "type": "uint256"
        }
      ],
      "name": "ChefClaimed",
      "type": "event"
    },
    {
      "anonymous": false,
      "inputs": [
        {
          "indexed": true,
          "internalType": "address",
          "name": "previousOwner",
          "type": "address"
        },
        {
          "indexed": true,
          "internalType": "address",
          "name": "newOwner",
          "type": "address"
        }
      ],
      "name": "OwnershipTransferred",
      "type": "event"
    },
    {
      "anonymous": false,
      "inputs": [
        {
          "indexed": false,
          "internalType": "address",
          "name": "account",
          "type": "address"
        }
      ],
      "name": "Paused",
      "type": "event"
    },
    {
      "anonymous": false,
      "inputs": [
        {
          "indexed": false,
          "internalType": "uint256",
          "name": "tokenId",
          "type": "uint256"
        },
        {
          "indexed": false,
          "internalType": "uint256",
          "name": "earned",
          "type": "uint256"
        },
        {
          "indexed": false,
          "internalType": "bool",
          "name": "unstaked",
          "type": "bool"
        },
        {
          "indexed": false,
          "internalType": "uint8",
          "name": "intelligence",
          "type": "uint8"
        },
        {
          "indexed": false,
          "internalType": "uint8",
          "name": "fatness",
          "type": "uint8"
        },
        {
          "indexed": false,
          "internalType": "string",
          "name": "eventName",
          "type": "string"
        }
      ],
      "name": "RatClaimed",
      "type": "event"
    },
    {
      "anonymous": false,
      "inputs": [
        {
          "indexed": false,
          "internalType": "uint256",
          "name": "tokenId",
          "type": "uint256"
        },
        {
          "indexed": false,
          "internalType": "address",
          "name": "owner",
          "type": "address"
        },
        {
          "indexed": false,
          "internalType": "uint256",
          "name": "value",
          "type": "uint256"
        }
      ],
      "name": "TokenStaked",
      "type": "event"
    },
    {
      "anonymous": false,
      "inputs": [
        {
          "indexed": false,
          "internalType": "address",
          "name": "account",
          "type": "address"
        }
      ],
      "name": "Unpaused",
      "type": "event"
    },
    {
      "inputs": [],
      "name": "accrualPeriod",
      "outputs": [
        {
          "internalType": "uint256",
          "name": "",
          "type": "uint256"
        }
      ],
      "stateMutability": "view",
      "type": "function",
      "constant": true
    },
    {
      "inputs": [],
      "name": "charactersPerKitchen",
      "outputs": [
        {
          "internalType": "uint8",
          "name": "",
          "type": "uint8"
        }
      ],
      "stateMutability": "view",
      "type": "function",
      "constant": true
    },
    {
      "inputs": [],
      "name": "chefEfficiencyMultiplier",
      "outputs": [
        {
          "internalType": "uint8",
          "name": "",
          "type": "uint8"
        }
      ],
      "stateMutability": "view",
      "type": "function",
      "constant": true
    },
    {
      "inputs": [
        {
          "internalType": "uint256",
          "name": "",
          "type": "uint256"
        }
      ],
      "name": "chefs",
      "outputs": [
        {
          "internalType": "uint256",
          "name": "tokenId",
          "type": "uint256"
        },
        {
          "internalType": "address",
          "name": "owner",
          "type": "address"
        },
        {
          "internalType": "uint80",
          "name": "value",
          "type": "uint80"
        },
        {
          "internalType": "uint80",
          "name": "timestamp",
          "type": "uint80"
        }
      ],
      "stateMutability": "view",
      "type": "function",
      "constant": true
    },
    {
      "inputs": [],
      "name": "claim",
      "outputs": [
        {
          "internalType": "contract IClaim",
          "name": "",
          "type": "address"
        }
      ],
      "stateMutability": "view",
      "type": "function",
      "constant": true
    },
    {
      "inputs": [
        {
          "internalType": "uint16[]",
          "name": "tokenIds",
          "type": "uint16[]"
        },
        {
          "internalType": "bool",
          "name": "unstake",
          "type": "bool"
        }
      ],
      "name": "claimMany",
      "outputs": [],
      "stateMutability": "nonpayable",
      "type": "function"
    },
    {
      "inputs": [
        {
          "internalType": "bytes32",
          "name": "",
          "type": "bytes32"
        },
        {
          "internalType": "uint256",
          "name": "",
          "type": "uint256"
        }
      ],
      "name": "claimRequests",
      "outputs": [
        {
          "internalType": "uint16",
          "name": "",
          "type": "uint16"
        }
      ],
      "stateMutability": "view",
      "type": "function",
      "constant": true
    },
    {
      "inputs": [],
      "name": "dailyChefEarnings",
      "outputs": [
        {
          "internalType": "uint256",
          "name": "",
          "type": "uint256"
        }
      ],
      "stateMutability": "view",
      "type": "function",
      "constant": true
    },
    {
      "inputs": [],
      "name": "dailyFatnessRate",
      "outputs": [
        {
          "internalType": "int8",
          "name": "",
          "type": "int8"
        }
      ],
      "stateMutability": "view",
      "type": "function",
      "constant": true
    },
    {
      "inputs": [],
      "name": "dailyInsanityRate",
      "outputs": [
        {
          "internalType": "int8",
          "name": "",
          "type": "int8"
        }
      ],
      "stateMutability": "view",
      "type": "function",
      "constant": true
    },
    {
      "inputs": [],
      "name": "dailyIntelligenceRate",
      "outputs": [
        {
          "internalType": "int8",
          "name": "",
          "type": "int8"
        }
      ],
      "stateMutability": "view",
      "type": "function",
      "constant": true
    },
    {
      "inputs": [],
      "name": "dailySkillRate",
      "outputs": [
        {
          "internalType": "int8",
          "name": "",
          "type": "int8"
        }
      ],
      "stateMutability": "view",
      "type": "function",
      "constant": true
    },
    {
      "inputs": [],
      "name": "foodTokenMaxSupply",
      "outputs": [
        {
          "internalType": "uint256",
          "name": "",
          "type": "uint256"
        }
      ],
      "stateMutability": "view",
      "type": "function",
      "constant": true
    },
    {
      "inputs": [],
      "name": "foodTokensPerRat",
      "outputs": [
        {
          "internalType": "uint256",
          "name": "",
          "type": "uint256"
        }
      ],
      "stateMutability": "view",
      "type": "function",
      "constant": true
    },
    {
      "inputs": [
        {
          "components": [
            {
              "internalType": "bytes32",
              "name": "requestId",
              "type": "bytes32"
            },
            {
              "internalType": "address",
              "name": "venue",
              "type": "address"
            },
            {
              "internalType": "address",
              "name": "sender",
              "type": "address"
            },
            {
              "internalType": "uint16[]",
              "name": "tokenIds",
              "type": "uint16[]"
            },
            {
              "internalType": "bool",
              "name": "unstake",
              "type": "bool"
            }
          ],
          "internalType": "struct IClaim.VRFStruct",
          "name": "v",
          "type": "tuple"
        },
        {
          "internalType": "uint256",
          "name": "randomVal",
          "type": "uint256"
        }
      ],
      "name": "fulfillClaimMany",
      "outputs": [],
      "stateMutability": "nonpayable",
      "type": "function"
    },
    {
      "inputs": [
        {
          "internalType": "uint256",
          "name": "tokenId",
          "type": "uint256"
        }
      ],
      "name": "getProperties",
      "outputs": [
        {
          "internalType": "uint8",
          "name": "efficiency",
          "type": "uint8"
        },
        {
          "internalType": "uint8",
          "name": "tolerance",
          "type": "uint8"
        }
      ],
      "stateMutability": "view",
      "type": "function",
      "constant": true
    },
    {
      "inputs": [
        {
          "internalType": "uint256",
          "name": "tokenId",
          "type": "uint256"
        }
      ],
      "name": "isChef",
      "outputs": [
        {
          "internalType": "bool",
          "name": "chef",
          "type": "bool"
        }
      ],
      "stateMutability": "view",
      "type": "function",
      "constant": true
    },
    {
      "inputs": [],
      "name": "kitchenId",
      "outputs": [
        {
          "internalType": "uint8",
          "name": "",
          "type": "uint8"
        }
      ],
      "stateMutability": "view",
      "type": "function",
      "constant": true
    },
    {
      "inputs": [],
      "name": "lastClaimTimestamp",
      "outputs": [
        {
          "internalType": "uint256",
          "name": "",
          "type": "uint256"
        }
      ],
      "stateMutability": "view",
      "type": "function",
      "constant": true
    },
    {
      "inputs": [],
      "name": "maxClaimsPerTx",
      "outputs": [
        {
          "internalType": "uint8",
          "name": "",
          "type": "uint8"
        }
      ],
      "stateMutability": "view",
      "type": "function",
      "constant": true
    },
    {
      "inputs": [],
      "name": "minEfficiency",
      "outputs": [
        {
          "internalType": "uint8",
          "name": "",
          "type": "uint8"
        }
      ],
      "stateMutability": "view",
      "type": "function",
      "constant": true
    },
    {
      "inputs": [
        {
          "internalType": "address",
          "name": "",
          "type": "address"
        },
        {
          "internalType": "address",
          "name": "from",
          "type": "address"
        },
        {
          "internalType": "uint256",
          "name": "",
          "type": "uint256"
        },
        {
          "internalType": "bytes",
          "name": "",
          "type": "bytes"
        }
      ],
      "name": "onERC721Received",
      "outputs": [
        {
          "internalType": "bytes4",
          "name": "",
          "type": "bytes4"
        }
      ],
      "stateMutability": "pure",
      "type": "function",
      "constant": true
    },
    {
      "inputs": [],
      "name": "owner",
      "outputs": [
        {
          "internalType": "address",
          "name": "",
          "type": "address"
        }
      ],
      "stateMutability": "view",
      "type": "function",
      "constant": true
    },
    {
      "inputs": [],
      "name": "pause",
      "outputs": [],
      "stateMutability": "nonpayable",
      "type": "function"
    },
    {
      "inputs": [],
      "name": "paused",
      "outputs": [
        {
          "internalType": "bool",
          "name": "",
          "type": "bool"
        }
      ],
      "stateMutability": "view",
      "type": "function",
      "constant": true
    },
    {
      "inputs": [],
      "name": "ratEfficiencyMultiplier",
      "outputs": [
        {
          "internalType": "int256",
          "name": "",
          "type": "int256"
        }
      ],
      "stateMutability": "view",
      "type": "function",
      "constant": true
    },
    {
      "inputs": [],
      "name": "ratEfficiencyOffset",
      "outputs": [
        {
          "internalType": "int256",
          "name": "",
          "type": "int256"
        }
      ],
      "stateMutability": "view",
      "type": "function",
      "constant": true
    },
    {
      "inputs": [],
      "name": "ratTheftPercentage",
      "outputs": [
        {
          "internalType": "uint256",
          "name": "",
          "type": "uint256"
        }
      ],
      "stateMutability": "view",
      "type": "function",
      "constant": true
    },
    {
      "inputs": [
        {
          "internalType": "uint256",
          "name": "",
          "type": "uint256"
        }
      ],
      "name": "rats",
      "outputs": [
        {
          "internalType": "uint256",
          "name": "tokenId",
          "type": "uint256"
        },
        {
          "internalType": "address",
          "name": "owner",
          "type": "address"
        },
        {
          "internalType": "uint80",
          "name": "value",
          "type": "uint80"
        },
        {
          "internalType": "uint80",
          "name": "timestamp",
          "type": "uint80"
        }
      ],
      "stateMutability": "view",
      "type": "function",
      "constant": true
    },
    {
      "inputs": [],
      "name": "renounceOwnership",
      "outputs": [],
      "stateMutability": "nonpayable",
      "type": "function"
    },
    {
      "inputs": [
        {
          "internalType": "address",
          "name": "account",
          "type": "address"
        },
        {
          "internalType": "uint16[]",
          "name": "tokenIds",
          "type": "uint16[]"
        }
      ],
      "name": "stakeMany",
      "outputs": [],
      "stateMutability": "nonpayable",
      "type": "function"
    },
    {
      "inputs": [
        {
          "internalType": "address",
          "name": "",
          "type": "address"
        },
        {
          "internalType": "uint256",
          "name": "",
          "type": "uint256"
        }
      ],
      "name": "stakers",
      "outputs": [
        {
          "internalType": "uint256",
          "name": "",
          "type": "uint256"
        }
      ],
      "stateMutability": "view",
      "type": "function",
      "constant": true
    },
    {
      "inputs": [],
      "name": "totalChefsStaked",
      "outputs": [
        {
          "internalType": "uint256",
          "name": "",
          "type": "uint256"
        }
      ],
      "stateMutability": "view",
      "type": "function",
      "constant": true
    },
    {
      "inputs": [],
      "name": "totalFoodTokensEarned",
      "outputs": [
        {
          "internalType": "uint256",
          "name": "",
          "type": "uint256"
        }
      ],
      "stateMutability": "view",
      "type": "function",
      "constant": true
    },
    {
      "inputs": [],
      "name": "totalRatsStaked",
      "outputs": [
        {
          "internalType": "uint256",
          "name": "",
          "type": "uint256"
        }
      ],
      "stateMutability": "view",
      "type": "function",
      "constant": true
    },
    {
      "inputs": [
        {
          "internalType": "address",
          "name": "newOwner",
          "type": "address"
        }
      ],
      "name": "transferOwnership",
      "outputs": [],
      "stateMutability": "nonpayable",
      "type": "function"
    },
    {
      "inputs": [],
      "name": "unaccountedRewards",
      "outputs": [
        {
          "internalType": "uint256",
          "name": "",
          "type": "uint256"
        }
      ],
      "stateMutability": "view",
      "type": "function",
      "constant": true
    },
    {
      "inputs": [],
      "name": "unpause",
      "outputs": [],
      "stateMutability": "nonpayable",
      "type": "function"
    },
    {
      "inputs": [],
      "name": "vestingPeriod",
      "outputs": [
        {
          "internalType": "uint256",
          "name": "",
          "type": "uint256"
        }
      ],
      "stateMutability": "view",
      "type": "function",
      "constant": true
    },
    {
      "inputs": [
        {
          "internalType": "address",
          "name": "_character",
          "type": "address"
        },
        {
          "internalType": "address",
          "name": "_claim",
          "type": "address"
        },
        {
          "internalType": "uint256",
          "name": "_accrualPeriod",
          "type": "uint256"
        }
      ],
      "name": "initialize",
      "outputs": [],
      "stateMutability": "nonpayable",
      "type": "function"
    },
    {
      "inputs": [],
      "name": "initialize",
      "outputs": [],
      "stateMutability": "nonpayable",
      "type": "function"
    },
    {
      "inputs": [
        {
          "internalType": "address",
          "name": "_character",
          "type": "address"
        },
        {
          "internalType": "address",
          "name": "_claim",
          "type": "address"
        },
        {
          "internalType": "address",
          "name": "_foodToken",
          "type": "address"
        },
        {
          "internalType": "address",
          "name": "_kitchenShop",
          "type": "address"
        }
      ],
      "name": "initialize",
      "outputs": [],
      "stateMutability": "nonpayable",
      "type": "function"
    },
    {
      "inputs": [
        {
          "internalType": "uint256",
          "name": "_foodTokenMaxSupply",
          "type": "uint256"
        },
        {
          "internalType": "uint256[]",
          "name": "_earningSettings",
          "type": "uint256[]"
        },
        {
          "internalType": "int8[]",
          "name": "_propertyIncrements",
          "type": "int8[]"
        },
        {
          "internalType": "uint8",
          "name": "_minEfficiency",
          "type": "uint8"
        },
        {
          "internalType": "uint8",
          "name": "_charactersPerKitchen",
          "type": "uint8"
        },
        {
          "internalType": "uint8",
          "name": "_chefEfficiencyMultiplier",
          "type": "uint8"
        },
        {
          "internalType": "int256",
          "name": "_ratEfficiencyMultiplier",
          "type": "int256"
        },
        {
          "internalType": "int256",
          "name": "_ratEfficiencyOffset",
          "type": "int256"
        },
        {
          "internalType": "uint8",
          "name": "_maxClaimsPerTx",
          "type": "uint8"
        }
      ],
      "name": "configure",
      "outputs": [],
      "stateMutability": "nonpayable",
      "type": "function"
    }
  ],
  "bytecode": "0x608060405234801561001057600080fd5b50615f1280620000216000396000f3fe608060405234801561001057600080fd5b50600436106102695760003560e01c80638129fc1c11610151578063c8b6cbf7116100c3578063dbdc1f6b11610087578063dbdc1f6b146106df578063ef9f800f146106fb578063f26667461461072b578063f2fde38b14610749578063f666415514610765578063f8c8765e1461078357610269565b8063c8b6cbf714610639578063c9f2ec1d14610669578063cba88af814610685578063d7178ac6146106a3578063d8dda92e146106c157610269565b80639317f7f8116101155780639317f7f8146105875780639786e4d4146105a5578063a262c0ad146105c3578063a7a10290146105e1578063bdb62941146105fd578063c0c472c01461061b57610269565b80638129fc1c1461051b5780638456cb59146105255780638da5cb5b1461052f57806391ba3f3f1461054d578063922a18021461056b57610269565b806335ec066e116101ea578063525e915b116101ae578063525e915b146104695780635c975abb146104995780635f537db1146104b7578063607af397146104d5578063715018a6146104f35780637313ee5a146104fd57610269565b806335ec066e146103bd5780633f4ba83a146103f0578063499f8010146103fa5780634d1c61af146104185780634e71d92d1461044b57610269565b80631b4d47a1116102315780631b4d47a1146103145780631b8ca217146103325780632535a77f146103635780632d79320b146103815780632e2ce28b1461039f57610269565b8063051d1d491461026e57806310d53df11461028c578063138e6ad5146102aa578063150b7a02146102c85780631794bb3c146102f8575b600080fd5b61027661079f565b6040516102839190613f05565b60405180910390f35b6102946107b2565b6040516102a19190613f3c565b60405180910390f35b6102b26107c5565b6040516102bf9190613f70565b60405180910390f35b6102e260048036038101906102dd9190614098565b6107cb565b6040516102ef919061415b565b60405180910390f35b610312600480360381019061030d9190614176565b61084e565b005b61031c610a4a565b60405161032991906141d8565b60405180910390f35b61034c600480360381019061034791906141f3565b610a50565b60405161035a929190614220565b60405180910390f35b61036b610b31565b60405161037891906141d8565b60405180910390f35b610389610b37565b6040516103969190613f05565b60405180910390f35b6103a7610b4a565b6040516103b491906141d8565b60405180910390f35b6103d760048036038101906103d291906141f3565b610b50565b6040516103e7949392919061427d565b60405180910390f35b6103f8610bcc565b005b610402610c52565b60405161040f91906141d8565b60405180910390f35b610432600480360381019061042d91906141f3565b610c58565b604051610442949392919061427d565b60405180910390f35b610453610cd4565b6040516104609190614321565b60405180910390f35b610483600480360381019061047e9190614372565b610cfa565b60405161049091906143cf565b60405180910390f35b6104a1610d41565b6040516104ae9190614405565b60405180910390f35b6104bf610d58565b6040516104cc9190613f05565b60405180910390f35b6104dd610d6b565b6040516104ea91906141d8565b60405180910390f35b6104fb610d71565b005b610505610df9565b60405161051291906141d8565b60405180910390f35b610523610dff565b005b61052d610ef3565b005b610537610f79565b6040516105449190614420565b60405180910390f35b610555610fa3565b60405161056291906141d8565b60405180910390f35b61058560048036038101906105809190614694565b610fa9565b005b61058f611515565b60405161059c9190613f05565b60405180910390f35b6105ad611528565b6040516105ba9190613f05565b60405180910390f35b6105cb61153b565b6040516105d89190613f3c565b60405180910390f35b6105fb60048036038101906105f69190614746565b61154e565b005b61060561195b565b6040516106129190613f3c565b60405180910390f35b61062361196e565b60405161063091906141d8565b60405180910390f35b610653600480360381019061064e91906147a6565b611974565b60405161066091906141d8565b60405180910390f35b610683600480360381019061067e91906149f0565b6119a5565b005b61068d611c3f565b60405161069a9190613f3c565b60405180910390f35b6106ab611c52565b6040516106b89190613f70565b60405180910390f35b6106c9611c58565b6040516106d691906141d8565b60405180910390f35b6106f960048036038101906106f49190614af2565b611c5e565b005b610715600480360381019061071091906141f3565b6121eb565b6040516107229190614405565b60405180910390f35b6107336122c0565b60405161074091906141d8565b60405180910390f35b610763600480360381019061075e9190614b52565b6122c6565b005b61076d6123be565b60405161077a91906141d8565b60405180910390f35b61079d60048036038101906107989190614b7f565b6123c4565b005b60ad60169054906101000a900460ff1681565b609d60009054906101000a900460000b81565b60ab5481565b60008073ffffffffffffffffffffffffffffffffffffffff168573ffffffffffffffffffffffffffffffffffffffff161461083b576040517f08c379a000000000000000000000000000000000000000000000000000000000815260040161083290614c69565b60405180910390fd5b63150b7a0260e01b905095945050505050565b600060019054906101000a900460ff166108765760008054906101000a900460ff161561087f565b61087e6125f4565b5b6108be576040517f08c379a00000000000000000000000000000000000000000000000000000000081526004016108b590614cfb565b60405180910390fd5b60008060019054906101000a900460ff16159050801561090e576001600060016101000a81548160ff02191690831515021790555060016000806101000a81548160ff0219169083151502179055505b610916612605565b61091e612666565b83609760006101000a81548173ffffffffffffffffffffffffffffffffffffffff021916908373ffffffffffffffffffffffffffffffffffffffff16021790555082609860006101000a81548173ffffffffffffffffffffffffffffffffffffffff021916908373ffffffffffffffffffffffffffffffffffffffff1602179055508160a0819055506000609d60006101000a81548160ff021916908360000b60ff1602179055506000609d60016101000a81548160ff021916908360000b60ff1602179055506000609d60026101000a81548160ff021916908360000b60ff1602179055506000609d60036101000a81548160ff021916908360000b60ff1602179055508015610a445760008060016101000a81548160ff0219169083151502179055505b50505050565b60a45481565b600080609760009054906101000a900473ffffffffffffffffffffffffffffffffffffffff1673ffffffffffffffffffffffffffffffffffffffff1663e05c57bf846040518263ffffffff1660e01b8152600401610aae91906141d8565b61014060405180830381865afa158015610acc573d6000803e3d6000fd5b505050506040513d601f19601f82011682018060405250810190610af09190614d45565b909192939495969798509091929394959697509091929394959650909192939495509091929394509091929350909192509091508092508193505050915091565b60a15481565b60aa60009054906101000a900460ff1681565b60a65481565b609a6020528060005260406000206000915090508060000154908060010160009054906101000a900473ffffffffffffffffffffffffffffffffffffffff16908060010160149054906101000a900469ffffffffffffffffffff16908060020160009054906101000a900469ffffffffffffffffffff16905084565b610bd46126c7565b73ffffffffffffffffffffffffffffffffffffffff16610bf2610f79565b73ffffffffffffffffffffffffffffffffffffffff1614610c48576040517f08c379a0000000000000000000000000000000000000000000000000000000008152600401610c3f90614e70565b60405180910390fd5b610c506126cf565b565b609f5481565b60996020528060005260406000206000915090508060000154908060010160009054906101000a900473ffffffffffffffffffffffffffffffffffffffff16908060010160149054906101000a900469ffffffffffffffffffff16908060020160009054906101000a900469ffffffffffffffffffff16905084565b609860009054906101000a900473ffffffffffffffffffffffffffffffffffffffff1681565b609c6020528160005260406000208181548110610d1657600080fd5b9060005260206000209060109182820401919006600202915091509054906101000a900461ffff1681565b6000606560009054906101000a900460ff16905090565b60a360009054906101000a900460ff1681565b60a95481565b610d796126c7565b73ffffffffffffffffffffffffffffffffffffffff16610d97610f79565b73ffffffffffffffffffffffffffffffffffffffff1614610ded576040517f08c379a0000000000000000000000000000000000000000000000000000000008152600401610de490614e70565b60405180910390fd5b610df76000612771565b565b60a25481565b600060019054906101000a900460ff16610e275760008054906101000a900460ff1615610e30565b610e2f6125f4565b5b610e6f576040517f08c379a0000000000000000000000000000000000000000000000000000000008152600401610e6690614cfb565b60405180910390fd5b60008060019054906101000a900460ff161590508015610ebf576001600060016101000a81548160ff02191690831515021790555060016000806101000a81548160ff0219169083151502179055505b610ec7612605565b610ecf612666565b8015610ef05760008060016101000a81548160ff0219169083151502179055505b50565b610efb6126c7565b73ffffffffffffffffffffffffffffffffffffffff16610f19610f79565b73ffffffffffffffffffffffffffffffffffffffff1614610f6f576040517f08c379a0000000000000000000000000000000000000000000000000000000008152600401610f6690614e70565b60405180910390fd5b610f77612837565b565b6000603360009054906101000a900473ffffffffffffffffffffffffffffffffffffffff16905090565b60a55481565b610fb1610d41565b15610ff1576040517f08c379a0000000000000000000000000000000000000000000000000000000008152600401610fe890614edc565b60405180910390fd5b609860009054906101000a900473ffffffffffffffffffffffffffffffffffffffff1673ffffffffffffffffffffffffffffffffffffffff163373ffffffffffffffffffffffffffffffffffffffff1614611081576040517f08c379a000000000000000000000000000000000000000000000000000000000815260040161107890614f48565b60405180910390fd5b6000609c60008460000151815260200190815260200160002080549050116110de576040517f08c379a00000000000000000000000000000000000000000000000000000000081526004016110d590614fb4565b60405180910390fd5b6000609c60008460000151815260200190815260200160002080548060200260200160405190810160405280929190818152602001828054801561116957602002820191906000526020600020906000905b82829054906101000a900461ffff1661ffff16815260200190600201906020826001010492830192600103820291508084116111305790505b50505050509050609c60008460000151815260200190815260200160002060006111939190613df6565b6000805b82518110156114f65760006111b1866040015160006128da565b90506111da8483815181106111c9576111c8614fd4565b5b602002602001015161ffff166121eb565b1561122e5761121c8483815181106111f5576111f4614fd4565b5b602002602001015161ffff168760400151831580611214575088608001515b841589612a02565b836112279190615032565b9250611279565b61126b84838151811061124457611243614fd4565b5b602002602001015161ffff168760400151831580611263575088608001515b841589612eac565b836112769190615032565b92505b60005b609b6000886040015173ffffffffffffffffffffffffffffffffffffffff1673ffffffffffffffffffffffffffffffffffffffff168152602001908152602001600020805490508110156114e1578483815181106112dd576112dc614fd4565b5b602002602001015161ffff16609b6000896040015173ffffffffffffffffffffffffffffffffffffffff1673ffffffffffffffffffffffffffffffffffffffff168152602001908152602001600020828154811061133e5761133d614fd4565b5b906000526020600020015414156114ce57609b6000886040015173ffffffffffffffffffffffffffffffffffffffff1673ffffffffffffffffffffffffffffffffffffffff1681526020019081526020016000206001609b60008a6040015173ffffffffffffffffffffffffffffffffffffffff1673ffffffffffffffffffffffffffffffffffffffff168152602001908152602001600020805490506113e59190615088565b815481106113f6576113f5614fd4565b5b9060005260206000200154609b6000896040015173ffffffffffffffffffffffffffffffffffffffff1673ffffffffffffffffffffffffffffffffffffffff168152602001908152602001600020828154811061145657611455614fd4565b5b9060005260206000200181905550609b6000886040015173ffffffffffffffffffffffffffffffffffffffff1673ffffffffffffffffffffffffffffffffffffffff1681526020019081526020016000208054806114b7576114b66150bc565b5b600190038181906000526020600020016000905590555b80806114d9906150eb565b91505061127c565b505080806114ee906150eb565b915050611197565b50600081111561150f5761150e846040015182613359565b5b50505050565b60ad60149054906101000a900460ff1681565b60ad60159054906101000a900460ff1681565b609d60029054906101000a900460000b81565b611556610d41565b15611596576040517f08c379a000000000000000000000000000000000000000000000000000000000815260040161158d90614edc565b60405180910390fd5b60a360009054906101000a900460ff1660ff168383905011156115ee576040517f08c379a00000000000000000000000000000000000000000000000000000000081526004016115e590615180565b60405180910390fd5b60005b8383905081101561188257600061163285858481811061161457611613614fd4565b5b905060200201602081019061162991906151a0565b61ffff166121eb565b61167957609a600086868581811061164d5761164c614fd4565b5b905060200201602081019061166291906151a0565b61ffff1681526020019081526020016000206116b8565b609960008686858181106116905761168f614fd4565b5b90506020020160208101906116a591906151a0565b61ffff1681526020019081526020016000205b604051806080016040529081600082015481526020016001820160009054906101000a900473ffffffffffffffffffffffffffffffffffffffff1673ffffffffffffffffffffffffffffffffffffffff1673ffffffffffffffffffffffffffffffffffffffff1681526020016001820160149054906101000a900469ffffffffffffffffffff1669ffffffffffffffffffff1669ffffffffffffffffffff1681526020016002820160009054906101000a900469ffffffffffffffffffff1669ffffffffffffffffffff1669ffffffffffffffffffff1681525050905061179d6126c7565b73ffffffffffffffffffffffffffffffffffffffff16816020015173ffffffffffffffffffffffffffffffffffffffff161461180e576040517f08c379a000000000000000000000000000000000000000000000000000000000815260040161180590615219565b60405180910390fd5b60a254816060015169ffffffffffffffffffff164261182d9190615088565b101561186e576040517f08c379a000000000000000000000000000000000000000000000000000000000815260040161186590615285565b60405180910390fd5b50808061187a906150eb565b9150506115f1565b506000609860009054906101000a900473ffffffffffffffffffffffffffffffffffffffff1673ffffffffffffffffffffffffffffffffffffffff16635bdf263c6118cb6126c7565b8686866040518563ffffffff1660e01b81526004016118ed9493929190615368565b6020604051808303816000875af115801561190c573d6000803e3d6000fd5b505050506040513d601f19601f8201168201806040525081019061193091906153bd565b90508383609c60008481526020019081526020016000209190611954929190613e1e565b5050505050565b609d60019054906101000a900460000b81565b60a75481565b609b602052816000526040600020818154811061199057600080fd5b90600052602060002001600091509150505481565b6119ad6126c7565b73ffffffffffffffffffffffffffffffffffffffff166119cb610f79565b73ffffffffffffffffffffffffffffffffffffffff1614611a21576040517f08c379a0000000000000000000000000000000000000000000000000000000008152600401611a1890614e70565b60405180910390fd5b670de0b6b3a764000089611a3591906153ea565b60a481905550670de0b6b3a764000088600081518110611a5857611a57614fd4565b5b6020026020010151611a6a91906153ea565b60a58190555087600181518110611a8457611a83614fd4565b5b602002602001015160a68190555087600281518110611aa657611aa5614fd4565b5b602002602001015160a28190555087600381518110611ac857611ac7614fd4565b5b602002602001015160a08190555086600081518110611aea57611ae9614fd4565b5b6020026020010151609d60006101000a81548160ff021916908360000b60ff16021790555086600181518110611b2357611b22614fd4565b5b6020026020010151609d60016101000a81548160ff021916908360000b60ff16021790555086600281518110611b5c57611b5b614fd4565b5b6020026020010151609d60026101000a81548160ff021916908360000b60ff16021790555086600381518110611b9557611b94614fd4565b5b6020026020010151609d60036101000a81548160ff021916908360000b60ff1602179055508560ad60166101000a81548160ff021916908360ff1602179055508460ad60156101000a81548160ff021916908360ff1602179055508360aa60006101000a81548160ff021916908360ff1602179055508260ab819055508160ac819055508060a360006101000a81548160ff021916908360ff160217905550505050505050505050565b609d60039054906101000a900460000b81565b60ac5481565b60a85481565b611c666126c7565b73ffffffffffffffffffffffffffffffffffffffff168373ffffffffffffffffffffffffffffffffffffffff161480611cf35750609760009054906101000a900473ffffffffffffffffffffffffffffffffffffffff1673ffffffffffffffffffffffffffffffffffffffff16611cdb6126c7565b73ffffffffffffffffffffffffffffffffffffffff16145b611d32576040517f08c379a0000000000000000000000000000000000000000000000000000000008152600401611d2990615490565b60405180910390fd5b611d46611d3d6126c7565b838390506128da565b611d85576040517f08c379a0000000000000000000000000000000000000000000000000000000008152600401611d7c906154fc565b60405180910390fd5b60005b828290508110156121e557609760009054906101000a900473ffffffffffffffffffffffffffffffffffffffff1673ffffffffffffffffffffffffffffffffffffffff16611dd46126c7565b73ffffffffffffffffffffffffffffffffffffffff1614611fea57611df76126c7565b73ffffffffffffffffffffffffffffffffffffffff16609760009054906101000a900473ffffffffffffffffffffffffffffffffffffffff1673ffffffffffffffffffffffffffffffffffffffff16636352211e858585818110611e5e57611e5d614fd4565b5b9050602002016020810190611e7391906151a0565b6040518263ffffffff1660e01b8152600401611e8f919061554d565b602060405180830381865afa158015611eac573d6000803e3d6000fd5b505050506040513d601f19601f82011682018060405250810190611ed0919061557d565b73ffffffffffffffffffffffffffffffffffffffff1614611f26576040517f08c379a0000000000000000000000000000000000000000000000000000000008152600401611f1d90615219565b60405180910390fd5b609760009054906101000a900473ffffffffffffffffffffffffffffffffffffffff1673ffffffffffffffffffffffffffffffffffffffff166323b872dd611f6c6126c7565b30868686818110611f8057611f7f614fd4565b5b9050602002016020810190611f9591906151a0565b6040518463ffffffff1660e01b8152600401611fb3939291906155aa565b600060405180830381600087803b158015611fcd57600080fd5b505af1158015611fe1573d6000803e3d6000fd5b50505050612024565b6000838383818110611fff57611ffe614fd4565b5b905060200201602081019061201491906151a0565b61ffff161415612023576121d2565b5b61205883838381811061203a57612039614fd4565b5b905060200201602081019061204f91906151a0565b61ffff166133ec565b612097576040517f08c379a000000000000000000000000000000000000000000000000000000000815260040161208e9061562d565b60405180910390fd5b6120cb8383838181106120ad576120ac614fd4565b5b90506020020160208101906120c291906151a0565b61ffff166121eb565b1561210a57612105848484848181106120e7576120e6614fd4565b5b90506020020160208101906120fc91906151a0565b61ffff1661341c565b612140565b61213f8484848481811061212157612120614fd4565b5b905060200201602081019061213691906151a0565b61ffff166135db565b5b609b60008573ffffffffffffffffffffffffffffffffffffffff1673ffffffffffffffffffffffffffffffffffffffff16815260200190815260200160002083838381811061219257612191614fd4565b5b90506020020160208101906121a791906151a0565b908060018154018082558091505060019003906000526020600020016000909161ffff169091909150555b80806121dd906150eb565b915050611d88565b50505050565b6000609760009054906101000a900473ffffffffffffffffffffffffffffffffffffffff1673ffffffffffffffffffffffffffffffffffffffff1663e05c57bf836040518263ffffffff1660e01b815260040161224891906141d8565b61014060405180830381865afa158015612266573d6000803e3d6000fd5b505050506040513d601f19601f8201168201806040525081019061228a9190614d45565b90919293949596975090919293949596509091929394955090919293945090919293509091925090915090505080915050919050565b609e5481565b6122ce6126c7565b73ffffffffffffffffffffffffffffffffffffffff166122ec610f79565b73ffffffffffffffffffffffffffffffffffffffff1614612342576040517f08c379a000000000000000000000000000000000000000000000000000000000815260040161233990614e70565b60405180910390fd5b600073ffffffffffffffffffffffffffffffffffffffff168173ffffffffffffffffffffffffffffffffffffffff1614156123b2576040517f08c379a00000000000000000000000000000000000000000000000000000000081526004016123a9906156bf565b60405180910390fd5b6123bb81612771565b50565b60a05481565b600060019054906101000a900460ff166123ec5760008054906101000a900460ff16156123f5565b6123f46125f4565b5b612434576040517f08c379a000000000000000000000000000000000000000000000000000000000815260040161242b90614cfb565b60405180910390fd5b60008060019054906101000a900460ff161590508015612484576001600060016101000a81548160ff02191690831515021790555060016000806101000a81548160ff0219169083151502179055505b61248c612605565b612494612666565b600060a781905550600060a181905550600060a981905550600160ad60146101000a81548160ff021916908360ff16021790555084609760006101000a81548173ffffffffffffffffffffffffffffffffffffffff021916908373ffffffffffffffffffffffffffffffffffffffff16021790555083609860006101000a81548173ffffffffffffffffffffffffffffffffffffffff021916908373ffffffffffffffffffffffffffffffffffffffff1602179055508260ae60006101000a81548173ffffffffffffffffffffffffffffffffffffffff021916908373ffffffffffffffffffffffffffffffffffffffff1602179055508160ad60006101000a81548173ffffffffffffffffffffffffffffffffffffffff021916908373ffffffffffffffffffffffffffffffffffffffff16021790555080156125ed5760008060016101000a81548160ff0219169083151502179055505b5050505050565b60006125ff306137a3565b15905090565b600060019054906101000a900460ff16612654576040517f08c379a000000000000000000000000000000000000000000000000000000000815260040161264b90615751565b60405180910390fd5b61265c6137b6565b612664613807565b565b600060019054906101000a900460ff166126b5576040517f08c379a00000000000000000000000000000000000000000000000000000000081526004016126ac90615751565b60405180910390fd5b6126bd6137b6565b6126c5613868565b565b600033905090565b6126d7610d41565b612716576040517f08c379a000000000000000000000000000000000000000000000000000000000815260040161270d906157bd565b60405180910390fd5b6000606560006101000a81548160ff0219169083151502179055507f5db9ee0a495bf2e6ff9c91a7834c1ba4fdd244a5e8aa4e537bd38aeae4b073aa61275a6126c7565b6040516127679190614420565b60405180910390a1565b6000603360009054906101000a900473ffffffffffffffffffffffffffffffffffffffff16905081603360006101000a81548173ffffffffffffffffffffffffffffffffffffffff021916908373ffffffffffffffffffffffffffffffffffffffff1602179055508173ffffffffffffffffffffffffffffffffffffffff168173ffffffffffffffffffffffffffffffffffffffff167f8be0079c531659141344cd1fd0a4f28419497f9722a3daafe3b4186f6b6457e060405160405180910390a35050565b61283f610d41565b1561287f576040517f08c379a000000000000000000000000000000000000000000000000000000000815260040161287690614edc565b60405180910390fd5b6001606560006101000a81548160ff0219169083151502179055507f62e78cea01bee320cd4e420270b5ea74000d11b0c9f74754ebdbfc544b05a2586128c36126c7565b6040516128d09190614420565b60405180910390a1565b60008060ad60009054906101000a900473ffffffffffffffffffffffffffffffffffffffff1673ffffffffffffffffffffffffffffffffffffffff1662fdd58e8560ad60149054906101000a900460ff166040518363ffffffff1660e01b815260040161294892919061580e565b602060405180830381865afa158015612965573d6000803e3d6000fd5b505050506040513d601f19601f82011682018060405250810190612989919061584c565b905082609b60008673ffffffffffffffffffffffffffffffffffffffff1673ffffffffffffffffffffffffffffffffffffffff168152602001908152602001600020805490506129d99190615032565b60ad60159054906101000a900460ff1660ff16826129f791906153ea565b101591505092915050565b60008060996000888152602001908152602001600020604051806080016040529081600082015481526020016001820160009054906101000a900473ffffffffffffffffffffffffffffffffffffffff1673ffffffffffffffffffffffffffffffffffffffff1673ffffffffffffffffffffffffffffffffffffffff1681526020016001820160149054906101000a900469ffffffffffffffffffff1669ffffffffffffffffffff1669ffffffffffffffffffff1681526020016002820160009054906101000a900469ffffffffffffffffffff1669ffffffffffffffffffff1669ffffffffffffffffffff168152505090508573ffffffffffffffffffffffffffffffffffffffff16816020015173ffffffffffffffffffffffffffffffffffffffff1614612b67576040517f08c379a0000000000000000000000000000000000000000000000000000000008152600401612b5e90615219565b60405180910390fd5b60a254816060015169ffffffffffffffffffff1642612b869190615088565b1015612bc7576040517f08c379a0000000000000000000000000000000000000000000000000000000008152600401612bbe90615285565b60405180910390fd5b83612bda57612bd5816138d4565b612bdd565b60005b91506000806000612bee8a87613a22565b925092509250612bfd8a6133ec565b612c0657600197505b8715612d3957609760009054906101000a900473ffffffffffffffffffffffffffffffffffffffff1673ffffffffffffffffffffffffffffffffffffffff1663b88d4fde308b8d6040518463ffffffff1660e01b8152600401612c6b939291906158b0565b600060405180830381600087803b158015612c8557600080fd5b505af1158015612c99573d6000803e3d6000fd5b50505050609960008b81526020019081526020016000206000808201600090556001820160006101000a81549073ffffffffffffffffffffffffffffffffffffffff02191690556001820160146101000a81549069ffffffffffffffffffff02191690556002820160006101000a81549069ffffffffffffffffffff02191690555050609e6000815480929190612d2f906158fa565b9190505550612e5a565b60405180608001604052808b61ffff1681526020018a73ffffffffffffffffffffffffffffffffffffffff1681526020014269ffffffffffffffffffff1681526020014269ffffffffffffffffffff16815250609960008c81526020019081526020016000206000820151816000015560208201518160010160006101000a81548173ffffffffffffffffffffffffffffffffffffffff021916908373ffffffffffffffffffffffffffffffffffffffff16021790555060408201518160010160146101000a81548169ffffffffffffffffffff021916908369ffffffffffffffffffff16021790555060608201518160020160006101000a81548169ffffffffffffffffffff021916908369ffffffffffffffffffff1602179055509050505b7f9b394c66bc4fdb2f56f5842a796076e6552d6f15eaacb6e63e3c53b474d872e98a868a86868660a154604051612e97979695949392919061599b565b60405180910390a15050505095945050505050565b600080609a6000888152602001908152602001600020604051806080016040529081600082015481526020016001820160009054906101000a900473ffffffffffffffffffffffffffffffffffffffff1673ffffffffffffffffffffffffffffffffffffffff1673ffffffffffffffffffffffffffffffffffffffff1681526020016001820160149054906101000a900469ffffffffffffffffffff1669ffffffffffffffffffff1669ffffffffffffffffffff1681526020016002820160009054906101000a900469ffffffffffffffffffff1669ffffffffffffffffffff1669ffffffffffffffffffff168152505090508573ffffffffffffffffffffffffffffffffffffffff16816020015173ffffffffffffffffffffffffffffffffffffffff1614613011576040517f08c379a000000000000000000000000000000000000000000000000000000000815260040161300890615219565b60405180910390fd5b60a254816060015169ffffffffffffffffffff16426130309190615088565b1015613071576040517f08c379a000000000000000000000000000000000000000000000000000000000815260040161306890615285565b60405180910390fd5b836130845761307f81613be0565b613087565b60005b915060008060006130988a87613a22565b9250925092506130a78a6133ec565b6130b057600197505b87156131e357609760009054906101000a900473ffffffffffffffffffffffffffffffffffffffff1673ffffffffffffffffffffffffffffffffffffffff1663b88d4fde308b8d6040518463ffffffff1660e01b8152600401613115939291906158b0565b600060405180830381600087803b15801561312f57600080fd5b505af1158015613143573d6000803e3d6000fd5b50505050609a60008b81526020019081526020016000206000808201600090556001820160006101000a81549073ffffffffffffffffffffffffffffffffffffffff02191690556001820160146101000a81549069ffffffffffffffffffff02191690556002820160006101000a81549069ffffffffffffffffffff02191690555050609f60008154809291906131d9906158fa565b919050555061330b565b60405180608001604052808b61ffff1681526020018a73ffffffffffffffffffffffffffffffffffffffff16815260200161321c613cf4565b69ffffffffffffffffffff1681526020014269ffffffffffffffffffff16815250609a60008c81526020019081526020016000206000820151816000015560208201518160010160006101000a81548173ffffffffffffffffffffffffffffffffffffffff021916908373ffffffffffffffffffffffffffffffffffffffff16021790555060408201518160010160146101000a81548169ffffffffffffffffffff021916908369ffffffffffffffffffff16021790555060608201518160020160006101000a81548169ffffffffffffffffffff021916908369ffffffffffffffffffff1602179055509050505b7f6e949c62565860afb9dd6295e998a1c40005fe9560aedf8d596717681cfc7a1f8a868a86868660405161334496959493929190615a11565b60405180910390a15050505095945050505050565b60ae60009054906101000a900473ffffffffffffffffffffffffffffffffffffffff1673ffffffffffffffffffffffffffffffffffffffff166340c10f1983836040518363ffffffff1660e01b81526004016133b6929190615a79565b600060405180830381600087803b1580156133d057600080fd5b505af11580156133e4573d6000803e3d6000fd5b505050505050565b6000806133f883610a50565b50905060ad60169054906101000a900460ff1660ff168160ff161015915050919050565b613424610d41565b15613464576040517f08c379a000000000000000000000000000000000000000000000000000000000815260040161345b90614edc565b60405180910390fd5b60405180608001604052808261ffff1681526020018373ffffffffffffffffffffffffffffffffffffffff1681526020014269ffffffffffffffffffff1681526020014269ffffffffffffffffffff16815250609960008381526020019081526020016000206000820151816000015560208201518160010160006101000a81548173ffffffffffffffffffffffffffffffffffffffff021916908373ffffffffffffffffffffffffffffffffffffffff16021790555060408201518160010160146101000a81548169ffffffffffffffffffff021916908369ffffffffffffffffffff16021790555060608201518160020160006101000a81548169ffffffffffffffffffff021916908369ffffffffffffffffffff160217905550905050609e6000815480929190613597906150eb565b91905055507f8af1bb49fb16c7835975aa59449ba4328dd54737dfb2ae9fa6c5eca71fda51f98183426040516135cf93929190615aa2565b60405180910390a15050565b6135e3610d41565b15613623576040517f08c379a000000000000000000000000000000000000000000000000000000000815260040161361a90614edc565b60405180910390fd5b60405180608001604052808261ffff1681526020018373ffffffffffffffffffffffffffffffffffffffff16815260200161365c613cf4565b69ffffffffffffffffffff1681526020014269ffffffffffffffffffff16815250609a60008381526020019081526020016000206000820151816000015560208201518160010160006101000a81548173ffffffffffffffffffffffffffffffffffffffff021916908373ffffffffffffffffffffffffffffffffffffffff16021790555060408201518160010160146101000a81548169ffffffffffffffffffff021916908369ffffffffffffffffffff16021790555060608201518160020160006101000a81548169ffffffffffffffffffff021916908369ffffffffffffffffffff160217905550905050609f600081548092919061375d906150eb565b91905055507f8af1bb49fb16c7835975aa59449ba4328dd54737dfb2ae9fa6c5eca71fda51f9818360a15460405161379793929190615aa2565b60405180910390a15050565b600080823b905060008111915050919050565b600060019054906101000a900460ff16613805576040517f08c379a00000000000000000000000000000000000000000000000000000000081526004016137fc90615751565b60405180910390fd5b565b600060019054906101000a900460ff16613856576040517f08c379a000000000000000000000000000000000000000000000000000000000815260040161384d90615751565b60405180910390fd5b6138666138616126c7565b612771565b565b600060019054906101000a900460ff166138b7576040517f08c379a00000000000000000000000000000000000000000000000000000000081526004016138ae90615751565b60405180910390fd5b6000606560006101000a81548160ff021916908315150217905550565b6000806138e48360000151610a50565b509050600060a054846040015169ffffffffffffffffffff16426139089190615088565b60a55461391591906153ea565b61391f9190615b08565b90506000600a60aa60009054906101000a900460ff1660ff168460ff1661394691906153ea565b61395091906153ea565b620186a061395e9190615032565b9050620186a0818361397091906153ea565b61397a9190615b08565b935060a4548460a85461398d9190615032565b11156139a65760a85460a4546139a39190615088565b93505b6000841115613a1a574260a9819055506139d8606460a654866139c991906153ea565b6139d39190615b08565b613cfe565b606460a65460646139e99190615088565b856139f491906153ea565b6139fe9190615b08565b93508360a86000828254613a129190615032565b925050819055505b505050919050565b60008060606000613a32866121eb565b613a6857609a600087815260200190815260200160002060020160009054906101000a900469ffffffffffffffffffff16613a96565b6099600087815260200190815260200160002060020160009054906101000a900469ffffffffffffffffffff165b69ffffffffffffffffffff1642613aad9190615088565b90506000613aba876121eb565b9050609760009054906101000a900473ffffffffffffffffffffffffffffffffffffffff1673ffffffffffffffffffffffffffffffffffffffff166363dbfc7788613b2f84613b1857609d60029054906101000a900460000b613b29565b609d60009054906101000a900460000b5b86613d66565b613b6385613b4c57609d60039054906101000a900460000b613b5d565b609d60019054906101000a900460000b5b87613d66565b8a6040518563ffffffff1660e01b8152600401613b839493929190615b39565b6000604051808303816000875af1158015613ba2573d6000803e3d6000fd5b505050506040513d6000823e3d601f19601f82011682018060405250810190613bcb9190615c24565b80955081965082975050505050509250925092565b600080613bf08360000151610a50565b9150506000836040015169ffffffffffffffffffff1660a154613c139190615088565b905060006103e860ac54613c279190615c93565b60646103e860ab5460328760ff161115613c4d57866064613c489190615daa565b613c4f565b865b60000b613c5c9190615c93565b613c669190615c93565b613c709190615dde565b613c7a9190615e48565b9050620186a08183613c8c91906153ea565b613c969190615b08565b935060a4548460a854613ca99190615032565b1115613cc25760a85460a454613cbf9190615088565b93505b6000841115613cec574260a9819055508360a86000828254613ce49190615032565b925050819055505b505050919050565b600060a154905090565b6000609f541415613d27578060a76000828254613d1b9190615032565b92505081905550613d63565b609f5460a75482613d389190615032565b613d429190615b08565b60a16000828254613d539190615032565b92505081905550600060a7819055505b50565b60008060a0548460000b84613d7b9190615c93565b613d859190615dde565b90506064811315613d9a576064915050613df0565b7fffffffffffffffffffffffffffffffffffffffffffffffffffffffffffffff9c811215613deb577fffffffffffffffffffffffffffffffffffffffffffffffffffffffffffffff9c915050613df0565b809150505b92915050565b50805460008255600f016010900490600052602060002090810190613e1b9190613ecc565b50565b82805482825590600052602060002090600f01601090048101928215613ebb5791602002820160005b83821115613e8b57833561ffff1683826101000a81548161ffff021916908361ffff1602179055509260200192600201602081600101049283019260010302613e47565b8015613eb95782816101000a81549061ffff0219169055600201602081600101049283019260010302613e8b565b505b509050613ec89190613ecc565b5090565b5b80821115613ee5576000816000905550600101613ecd565b5090565b600060ff82169050919050565b613eff81613ee9565b82525050565b6000602082019050613f1a6000830184613ef6565b92915050565b60008160000b9050919050565b613f3681613f20565b82525050565b6000602082019050613f516000830184613f2d565b92915050565b6000819050919050565b613f6a81613f57565b82525050565b6000602082019050613f856000830184613f61565b92915050565b6000604051905090565b600080fd5b600080fd5b600073ffffffffffffffffffffffffffffffffffffffff82169050919050565b6000613fca82613f9f565b9050919050565b613fda81613fbf565b8114613fe557600080fd5b50565b600081359050613ff781613fd1565b92915050565b6000819050919050565b61401081613ffd565b811461401b57600080fd5b50565b60008135905061402d81614007565b92915050565b600080fd5b600080fd5b600080fd5b60008083601f84011261405857614057614033565b5b8235905067ffffffffffffffff81111561407557614074614038565b5b6020830191508360018202830111156140915761409061403d565b5b9250929050565b6000806000806000608086880312156140b4576140b3613f95565b5b60006140c288828901613fe8565b95505060206140d388828901613fe8565b94505060406140e48882890161401e565b935050606086013567ffffffffffffffff81111561410557614104613f9a565b5b61411188828901614042565b92509250509295509295909350565b60007fffffffff0000000000000000000000000000000000000000000000000000000082169050919050565b61415581614120565b82525050565b6000602082019050614170600083018461414c565b92915050565b60008060006060848603121561418f5761418e613f95565b5b600061419d86828701613fe8565b93505060206141ae86828701613fe8565b92505060406141bf8682870161401e565b9150509250925092565b6141d281613ffd565b82525050565b60006020820190506141ed60008301846141c9565b92915050565b60006020828403121561420957614208613f95565b5b60006142178482850161401e565b91505092915050565b60006040820190506142356000830185613ef6565b6142426020830184613ef6565b9392505050565b61425281613fbf565b82525050565b600069ffffffffffffffffffff82169050919050565b61427781614258565b82525050565b600060808201905061429260008301876141c9565b61429f6020830186614249565b6142ac604083018561426e565b6142b9606083018461426e565b95945050505050565b6000819050919050565b60006142e76142e26142dd84613f9f565b6142c2565b613f9f565b9050919050565b60006142f9826142cc565b9050919050565b600061430b826142ee565b9050919050565b61431b81614300565b82525050565b60006020820190506143366000830184614312565b92915050565b6000819050919050565b61434f8161433c565b811461435a57600080fd5b50565b60008135905061436c81614346565b92915050565b6000806040838503121561438957614388613f95565b5b60006143978582860161435d565b92505060206143a88582860161401e565b9150509250929050565b600061ffff82169050919050565b6143c9816143b2565b82525050565b60006020820190506143e460008301846143c0565b92915050565b60008115159050919050565b6143ff816143ea565b82525050565b600060208201905061441a60008301846143f6565b92915050565b60006020820190506144356000830184614249565b92915050565b600080fd5b6000601f19601f8301169050919050565b7f4e487b7100000000000000000000000000000000000000000000000000000000600052604160045260246000fd5b61448982614440565b810181811067ffffffffffffffff821117156144a8576144a7614451565b5b80604052505050565b60006144bb613f8b565b90506144c78282614480565b919050565b600080fd5b600067ffffffffffffffff8211156144ec576144eb614451565b5b602082029050602081019050919050565b614506816143b2565b811461451157600080fd5b50565b600081359050614523816144fd565b92915050565b600061453c614537846144d1565b6144b1565b9050808382526020820190506020840283018581111561455f5761455e61403d565b5b835b8181101561458857806145748882614514565b845260208401935050602081019050614561565b5050509392505050565b600082601f8301126145a7576145a6614033565b5b81356145b7848260208601614529565b91505092915050565b6145c9816143ea565b81146145d457600080fd5b50565b6000813590506145e6816145c0565b92915050565b600060a082840312156146025761460161443b565b5b61460c60a06144b1565b9050600061461c8482850161435d565b600083015250602061463084828501613fe8565b602083015250604061464484828501613fe8565b604083015250606082013567ffffffffffffffff811115614668576146676144cc565b5b61467484828501614592565b6060830152506080614688848285016145d7565b60808301525092915050565b600080604083850312156146ab576146aa613f95565b5b600083013567ffffffffffffffff8111156146c9576146c8613f9a565b5b6146d5858286016145ec565b92505060206146e68582860161401e565b9150509250929050565b60008083601f84011261470657614705614033565b5b8235905067ffffffffffffffff81111561472357614722614038565b5b60208301915083602082028301111561473f5761473e61403d565b5b9250929050565b60008060006040848603121561475f5761475e613f95565b5b600084013567ffffffffffffffff81111561477d5761477c613f9a565b5b614789868287016146f0565b9350935050602061479c868287016145d7565b9150509250925092565b600080604083850312156147bd576147bc613f95565b5b60006147cb85828601613fe8565b92505060206147dc8582860161401e565b9150509250929050565b600067ffffffffffffffff82111561480157614800614451565b5b602082029050602081019050919050565b6000614825614820846147e6565b6144b1565b905080838252602082019050602084028301858111156148485761484761403d565b5b835b81811015614871578061485d888261401e565b84526020840193505060208101905061484a565b5050509392505050565b600082601f8301126148905761488f614033565b5b81356148a0848260208601614812565b91505092915050565b600067ffffffffffffffff8211156148c4576148c3614451565b5b602082029050602081019050919050565b6148de81613f20565b81146148e957600080fd5b50565b6000813590506148fb816148d5565b92915050565b600061491461490f846148a9565b6144b1565b905080838252602082019050602084028301858111156149375761493661403d565b5b835b81811015614960578061494c88826148ec565b845260208401935050602081019050614939565b5050509392505050565b600082601f83011261497f5761497e614033565b5b813561498f848260208601614901565b91505092915050565b6149a181613ee9565b81146149ac57600080fd5b50565b6000813590506149be81614998565b92915050565b6149cd81613f57565b81146149d857600080fd5b50565b6000813590506149ea816149c4565b92915050565b60008060008060008060008060006101208a8c031215614a1357614a12613f95565b5b6000614a218c828d0161401e565b99505060208a013567ffffffffffffffff811115614a4257614a41613f9a565b5b614a4e8c828d0161487b565b98505060408a013567ffffffffffffffff811115614a6f57614a6e613f9a565b5b614a7b8c828d0161496a565b9750506060614a8c8c828d016149af565b9650506080614a9d8c828d016149af565b95505060a0614aae8c828d016149af565b94505060c0614abf8c828d016149db565b93505060e0614ad08c828d016149db565b925050610100614ae28c828d016149af565b9150509295985092959850929598565b600080600060408486031215614b0b57614b0a613f95565b5b6000614b1986828701613fe8565b935050602084013567ffffffffffffffff811115614b3a57614b39613f9a565b5b614b46868287016146f0565b92509250509250925092565b600060208284031215614b6857614b67613f95565b5b6000614b7684828501613fe8565b91505092915050565b60008060008060808587031215614b9957614b98613f95565b5b6000614ba787828801613fe8565b9450506020614bb887828801613fe8565b9350506040614bc987828801613fe8565b9250506060614bda87828801613fe8565b91505092959194509250565b600082825260208201905092915050565b7f43616e6e6f742073656e6420746f6b656e7320746f2056656e7565206469726560008201527f63746c7900000000000000000000000000000000000000000000000000000000602082015250565b6000614c53602483614be6565b9150614c5e82614bf7565b604082019050919050565b60006020820190508181036000830152614c8281614c46565b9050919050565b7f496e697469616c697a61626c653a20636f6e747261637420697320616c72656160008201527f647920696e697469616c697a6564000000000000000000000000000000000000602082015250565b6000614ce5602e83614be6565b9150614cf082614c89565b604082019050919050565b60006020820190508181036000830152614d1481614cd8565b9050919050565b600081519050614d2a816145c0565b92915050565b600081519050614d3f81614998565b92915050565b6000806000806000806000806000806101408b8d031215614d6957614d68613f95565b5b6000614d778d828e01614d1b565b9a50506020614d888d828e01614d30565b9950506040614d998d828e01614d30565b9850506060614daa8d828e01614d30565b9750506080614dbb8d828e01614d30565b96505060a0614dcc8d828e01614d30565b95505060c0614ddd8d828e01614d30565b94505060e0614dee8d828e01614d30565b935050610100614e008d828e01614d30565b925050610120614e128d828e01614d30565b9150509295989b9194979a5092959850565b7f4f776e61626c653a2063616c6c6572206973206e6f7420746865206f776e6572600082015250565b6000614e5a602083614be6565b9150614e6582614e24565b602082019050919050565b60006020820190508181036000830152614e8981614e4d565b9050919050565b7f5061757361626c653a2070617573656400000000000000000000000000000000600082015250565b6000614ec6601083614be6565b9150614ed182614e90565b602082019050919050565b60006020820190508181036000830152614ef581614eb9565b9050919050565b7f4f6e6c7920436c61696d2063616e2066756c66696c6c00000000000000000000600082015250565b6000614f32601683614be6565b9150614f3d82614efc565b602082019050919050565b60006020820190508181036000830152614f6181614f25565b9050919050565b7f436c61696d2072657175657374206e6f7420666f756e64000000000000000000600082015250565b6000614f9e601783614be6565b9150614fa982614f68565b602082019050919050565b60006020820190508181036000830152614fcd81614f91565b9050919050565b7f4e487b7100000000000000000000000000000000000000000000000000000000600052603260045260246000fd5b7f4e487b7100000000000000000000000000000000000000000000000000000000600052601160045260246000fd5b600061503d82613ffd565b915061504883613ffd565b9250827fffffffffffffffffffffffffffffffffffffffffffffffffffffffffffffffff0382111561507d5761507c615003565b5b828201905092915050565b600061509382613ffd565b915061509e83613ffd565b9250828210156150b1576150b0615003565b5b828203905092915050565b7f4e487b7100000000000000000000000000000000000000000000000000000000600052603160045260246000fd5b60006150f682613ffd565b91507fffffffffffffffffffffffffffffffffffffffffffffffffffffffffffffffff82141561512957615128615003565b5b600182019050919050565b7f496e76616c696420636c61696d20616d6f756e74000000000000000000000000600082015250565b600061516a601483614be6565b915061517582615134565b602082019050919050565b600060208201905081810360008301526151998161515d565b9050919050565b6000602082840312156151b6576151b5613f95565b5b60006151c484828501614514565b91505092915050565b7f4e6f7420796f757220746f6b656e000000000000000000000000000000000000600082015250565b6000615203600e83614be6565b915061520e826151cd565b602082019050919050565b60006020820190508181036000830152615232816151f6565b9050919050565b7f43616e6e6f7420636c61696d206265666f726520454f42000000000000000000600082015250565b600061526f601783614be6565b915061527a82615239565b602082019050919050565b6000602082019050818103600083015261529e81615262565b9050919050565b600082825260208201905092915050565b6000819050919050565b6152c9816143b2565b82525050565b60006152db83836152c0565b60208301905092915050565b60006152f66020840184614514565b905092915050565b6000602082019050919050565b600061531783856152a5565b9350615322826152b6565b8060005b8581101561535b5761533882846152e7565b61534288826152cf565b975061534d836152fe565b925050600181019050615326565b5085925050509392505050565b600060608201905061537d6000830187614249565b818103602083015261539081858761530b565b905061539f60408301846143f6565b95945050505050565b6000815190506153b781614346565b92915050565b6000602082840312156153d3576153d2613f95565b5b60006153e1848285016153a8565b91505092915050565b60006153f582613ffd565b915061540083613ffd565b9250817fffffffffffffffffffffffffffffffffffffffffffffffffffffffffffffffff048311821515161561543957615438615003565b5b828202905092915050565b7f446f206e6f74206c6f736520796f757220746f6b656e73000000000000000000600082015250565b600061547a601783614be6565b915061548582615444565b602082019050919050565b600060208201905081810360008301526154a98161546d565b9050919050565b7f4b69746368656e20737061636520726571756972656400000000000000000000600082015250565b60006154e6601683614be6565b91506154f1826154b0565b602082019050919050565b60006020820190508181036000830152615515816154d9565b9050919050565b600061553761553261552d846143b2565b6142c2565b613ffd565b9050919050565b6155478161551c565b82525050565b6000602082019050615562600083018461553e565b92915050565b60008151905061557781613fd1565b92915050565b60006020828403121561559357615592613f95565b5b60006155a184828501615568565b91505092915050565b60006060820190506155bf6000830186614249565b6155cc6020830185614249565b6155d9604083018461553e565b949350505050565b7f4e6f7420656c696769626c650000000000000000000000000000000000000000600082015250565b6000615617600c83614be6565b9150615622826155e1565b602082019050919050565b600060208201905081810360008301526156468161560a565b9050919050565b7f4f776e61626c653a206e6577206f776e657220697320746865207a65726f206160008201527f6464726573730000000000000000000000000000000000000000000000000000602082015250565b60006156a9602683614be6565b91506156b48261564d565b604082019050919050565b600060208201905081810360008301526156d88161569c565b9050919050565b7f496e697469616c697a61626c653a20636f6e7472616374206973206e6f74206960008201527f6e697469616c697a696e67000000000000000000000000000000000000000000602082015250565b600061573b602b83614be6565b9150615746826156df565b604082019050919050565b6000602082019050818103600083015261576a8161572e565b9050919050565b7f5061757361626c653a206e6f7420706175736564000000000000000000000000600082015250565b60006157a7601483614be6565b91506157b282615771565b602082019050919050565b600060208201905081810360008301526157d68161579a565b9050919050565b60006157f86157f36157ee84613ee9565b6142c2565b613ffd565b9050919050565b615808816157dd565b82525050565b60006040820190506158236000830185614249565b61583060208301846157ff565b9392505050565b60008151905061584681614007565b92915050565b60006020828403121561586257615861613f95565b5b600061587084828501615837565b91505092915050565b600082825260208201905092915050565b50565b600061589a600083615879565b91506158a58261588a565b600082019050919050565b60006080820190506158c56000830186614249565b6158d26020830185614249565b6158df60408301846141c9565b81810360608301526158f08161588d565b9050949350505050565b600061590582613ffd565b9150600082141561591957615918615003565b5b600182039050919050565b600081519050919050565b60005b8381101561594d578082015181840152602081019050615932565b8381111561595c576000848401525b50505050565b600061596d82615924565b6159778185614be6565b935061598781856020860161592f565b61599081614440565b840191505092915050565b600060e0820190506159b0600083018a6141c9565b6159bd60208301896141c9565b6159ca60408301886143f6565b6159d76060830187613ef6565b6159e46080830186613ef6565b81810360a08301526159f68185615962565b9050615a0560c08301846141c9565b98975050505050505050565b600060c082019050615a2660008301896141c9565b615a3360208301886141c9565b615a4060408301876143f6565b615a4d6060830186613ef6565b615a5a6080830185613ef6565b81810360a0830152615a6c8184615962565b9050979650505050505050565b6000604082019050615a8e6000830185614249565b615a9b60208301846141c9565b9392505050565b6000606082019050615ab760008301866141c9565b615ac46020830185614249565b615ad160408301846141c9565b949350505050565b7f4e487b7100000000000000000000000000000000000000000000000000000000600052601260045260246000fd5b6000615b1382613ffd565b9150615b1e83613ffd565b925082615b2e57615b2d615ad9565b5b828204905092915050565b6000608082019050615b4e60008301876141c9565b615b5b6020830186613f2d565b615b686040830185613f2d565b615b7560608301846141c9565b95945050505050565b600080fd5b600067ffffffffffffffff821115615b9e57615b9d614451565b5b615ba782614440565b9050602081019050919050565b6000615bc7615bc284615b83565b6144b1565b905082815260208101848484011115615be357615be2615b7e565b5b615bee84828561592f565b509392505050565b600082601f830112615c0b57615c0a614033565b5b8151615c1b848260208601615bb4565b91505092915050565b600080600060608486031215615c3d57615c3c613f95565b5b6000615c4b86828701614d30565b9350506020615c5c86828701614d30565b925050604084015167ffffffffffffffff811115615c7d57615c7c613f9a565b5b615c8986828701615bf6565b9150509250925092565b6000615c9e82613f57565b9150615ca983613f57565b9250827f7fffffffffffffffffffffffffffffffffffffffffffffffffffffffffffffff0482116000841360008413161615615ce857615ce7615003565b5b817f80000000000000000000000000000000000000000000000000000000000000000583126000841260008413161615615d2557615d24615003565b5b827f80000000000000000000000000000000000000000000000000000000000000000582126000841360008412161615615d6257615d61615003565b5b827f7fffffffffffffffffffffffffffffffffffffffffffffffffffffffffffffff0582126000841260008412161615615d9f57615d9e615003565b5b828202905092915050565b6000615db582613ee9565b9150615dc083613ee9565b925082821015615dd357615dd2615003565b5b828203905092915050565b6000615de982613f57565b9150615df483613f57565b925082615e0457615e03615ad9565b5b600160000383147f800000000000000000000000000000000000000000000000000000000000000083141615615e3d57615e3c615003565b5b828205905092915050565b6000615e5382613f57565b9150615e5e83613f57565b9250817f7fffffffffffffffffffffffffffffffffffffffffffffffffffffffffffffff03831360008312151615615e9957615e98615003565b5b817f8000000000000000000000000000000000000000000000000000000000000000038312600083121615615ed157615ed0615003565b5b82820190509291505056fea264697066735822122008c5b9ad682774ab76082b4b31414f13b30fde687634782a783a3da5b1a8579064736f6c634300080a0033",
  "immutableReferences": {},
  "source": "// SPDX-License-Identifier: MIT\n\npragma solidity ^0.8.0;\n\nimport \"./EntrepreneurKitchen.sol\";\nimport \"./CasualFood.sol\";\nimport \"./KitchenShop.sol\";\n\ncontract TheStakehouse is EntrepreneurKitchen {\n  CasualFood foodToken; // Reference to the $CFOOD contract\n\n  function initialize(\n    address _character,\n    address _claim,\n    address _foodToken,\n    address _kitchenShop\n  ) external initializer {\n    __Ownable_init();\n    __Pausable_init();\n\n    unaccountedRewards = 0;\n    foodTokensPerRat = 0;\n    lastClaimTimestamp = 0;\n    kitchenId = 1;\n\n    character = Character(_character);\n    claim = IClaim(_claim);\n    foodToken = CasualFood(_foodToken);\n    kitchenShop = KitchenShop(_kitchenShop);\n  }\n\n  /**\n   * Allows DAO to update game parameters\n   */\n  function configure(\n    uint256 _foodTokenMaxSupply,\n    uint256[] memory _earningSettings, // dailyChefEarnings, ratTheftPercentage, vestingPeriod, accrualPeriod\n    int8[] memory _propertyIncrements, // dailySkillRate, dailyInsanityRate, dailyIntelligenceRate, dailyFatnessRate\n    uint8 _minEfficiency,\n    uint8 _charactersPerKitchen,\n    uint8 _chefEfficiencyMultiplier,\n    int256 _ratEfficiencyMultiplier,\n    int256 _ratEfficiencyOffset,\n    uint8 _maxClaimsPerTx\n  ) external onlyOwner {\n    foodTokenMaxSupply = _foodTokenMaxSupply * 1 ether;\n    dailyChefEarnings = _earningSettings[0] * 1 ether;\n    ratTheftPercentage = _earningSettings[1];\n    vestingPeriod = _earningSettings[2];\n    accrualPeriod = _earningSettings[3];\n    dailySkillRate = _propertyIncrements[0];\n    dailyInsanityRate = _propertyIncrements[1];\n    dailyIntelligenceRate = _propertyIncrements[2];\n    dailyFatnessRate = _propertyIncrements[3];\n    minEfficiency = _minEfficiency;\n    charactersPerKitchen = _charactersPerKitchen;\n    chefEfficiencyMultiplier = _chefEfficiencyMultiplier;\n    ratEfficiencyMultiplier = _ratEfficiencyMultiplier;\n    ratEfficiencyOffset = _ratEfficiencyOffset;\n    maxClaimsPerTx = _maxClaimsPerTx;\n  }\n\n  /**\n   * Mints the given amount of food tokens in the user's account\n   * @param sender - User wallet address\n   * @param amount - Amount of food tokens to mint\n   */\n  function _mintFoodToken(address sender, uint256 amount) internal override {\n    foodToken.mint(sender, amount);\n  }\n}\n",
  "sourcePath": "/Users/chris/workspace/ratalert/ratalert-contracts/contracts/TheStakehouse.sol",
  "compiler": {
    "name": "solc",
    "version": "0.8.10+commit.fc410830.Emscripten.clang"
  },
  "schemaVersion": "3.4.5",
  "updatedAt": "2022-03-16T22:37:18.187Z",
  "networkType": "ethereum",
  "devdoc": {
    "kind": "dev",
    "methods": {
      "claimMany(uint16[],bool)": {
        "params": {
          "tokenIds": "- The IDs of the tokens in question",
          "unstake": "- Whether or not to unstake the given tokens"
        }
      },
      "fulfillClaimMany((bytes32,address,address,uint16[],bool),uint256)": {
        "params": {
          "randomVal": "- List of random values created by VRF",
          "v": "- VRF struct for the corresponding request"
        }
      },
      "getProperties(uint256)": {
        "params": {
          "tokenId": "- The ID of the token to check"
        },
        "returns": {
          "efficiency": "& tolerance values"
        }
      },
      "isChef(uint256)": {
        "params": {
          "tokenId": "- The ID of the token to check"
        },
        "returns": {
          "chef": "- Whether or not the token is a Chef"
        }
      },
      "owner()": {
        "details": "Returns the address of the current owner."
      },
      "paused()": {
        "details": "Returns true if the contract is paused, and false otherwise."
      },
      "renounceOwnership()": {
        "details": "Leaves the contract without owner. It will not be possible to call `onlyOwner` functions anymore. Can only be called by the current owner. NOTE: Renouncing ownership will leave the contract without an owner, thereby removing any functionality that is only available to the owner."
      },
      "stakeMany(address,uint16[])": {
        "params": {
          "account": "- The address of the staker",
          "tokenIds": "- The IDs of the Chefs & Rats to stake"
        }
      },
      "transferOwnership(address)": {
        "details": "Transfers ownership of the contract to a new account (`newOwner`). Can only be called by the current owner."
      }
    },
    "version": 1
  },
  "userdoc": {
    "kind": "user",
    "methods": {
      "claimMany(uint16[],bool)": {
        "notice": "ChainLink VRF request: Claims food token earnings, level-ups and optionally unstake characters"
      },
      "configure(uint256,uint256[],int8[],uint8,uint8,uint8,int256,int256,uint8)": {
        "notice": "Allows DAO to update game parameters"
      },
      "fulfillClaimMany((bytes32,address,address,uint16[],bool),uint256)": {
        "notice": "ChainLink VRF callback for claimMany()"
      },
      "getProperties(uint256)": {
        "notice": "Get the character's properties"
      },
      "isChef(uint256)": {
        "notice": "Checks if the token is a Chef"
      },
      "stakeMany(address,uint16[])": {
        "notice": "Adds Chefs & Rats"
      }
    },
    "version": 1
  }
}