{
  "contractName": "TheStakehouse",
  "abi": [
    {
      "anonymous": false,
      "inputs": [
        {
          "indexed": false,
          "internalType": "uint256",
          "name": "tokenId",
          "type": "uint256"
        },
        {
          "indexed": false,
          "internalType": "uint256",
          "name": "earned",
          "type": "uint256"
        },
        {
          "indexed": false,
          "internalType": "bool",
          "name": "unstaked",
          "type": "bool"
        },
        {
          "indexed": false,
          "internalType": "uint8",
          "name": "skill",
          "type": "uint8"
        },
        {
          "indexed": false,
          "internalType": "uint8",
          "name": "insanity",
          "type": "uint8"
        },
        {
          "indexed": false,
          "internalType": "string",
          "name": "eventName",
          "type": "string"
        },
        {
          "indexed": false,
          "internalType": "uint256",
          "name": "foodTokensPerRat",
          "type": "uint256"
        }
      ],
      "name": "ChefClaimed",
      "type": "event"
    },
    {
      "anonymous": false,
      "inputs": [
        {
          "indexed": true,
          "internalType": "address",
          "name": "previousOwner",
          "type": "address"
        },
        {
          "indexed": true,
          "internalType": "address",
          "name": "newOwner",
          "type": "address"
        }
      ],
      "name": "OwnershipTransferred",
      "type": "event"
    },
    {
      "anonymous": false,
      "inputs": [
        {
          "indexed": false,
          "internalType": "address",
          "name": "account",
          "type": "address"
        }
      ],
      "name": "Paused",
      "type": "event"
    },
    {
      "anonymous": false,
      "inputs": [
        {
          "indexed": false,
          "internalType": "uint256",
          "name": "tokenId",
          "type": "uint256"
        },
        {
          "indexed": false,
          "internalType": "uint256",
          "name": "earned",
          "type": "uint256"
        },
        {
          "indexed": false,
          "internalType": "bool",
          "name": "unstaked",
          "type": "bool"
        },
        {
          "indexed": false,
          "internalType": "uint8",
          "name": "intelligence",
          "type": "uint8"
        },
        {
          "indexed": false,
          "internalType": "uint8",
          "name": "fatness",
          "type": "uint8"
        },
        {
          "indexed": false,
          "internalType": "string",
          "name": "eventName",
          "type": "string"
        }
      ],
      "name": "RatClaimed",
      "type": "event"
    },
    {
      "anonymous": false,
      "inputs": [
        {
          "indexed": false,
          "internalType": "uint256",
          "name": "tokenId",
          "type": "uint256"
        },
        {
          "indexed": false,
          "internalType": "address",
          "name": "owner",
          "type": "address"
        },
        {
          "indexed": false,
          "internalType": "uint256",
          "name": "value",
          "type": "uint256"
        }
      ],
      "name": "TokenStaked",
      "type": "event"
    },
    {
      "anonymous": false,
      "inputs": [
        {
          "indexed": false,
          "internalType": "address",
          "name": "account",
          "type": "address"
        }
      ],
      "name": "Unpaused",
      "type": "event"
    },
    {
      "inputs": [],
      "name": "accrualPeriod",
      "outputs": [
        {
          "internalType": "uint256",
          "name": "",
          "type": "uint256"
        }
      ],
      "stateMutability": "view",
      "type": "function",
      "constant": true
    },
    {
      "inputs": [],
      "name": "chefEfficiencyMultiplier",
      "outputs": [
        {
          "internalType": "uint8",
          "name": "",
          "type": "uint8"
        }
      ],
      "stateMutability": "view",
      "type": "function",
      "constant": true
    },
    {
      "inputs": [
        {
          "internalType": "uint256",
          "name": "",
          "type": "uint256"
        }
      ],
      "name": "chefs",
      "outputs": [
        {
          "internalType": "uint256",
          "name": "tokenId",
          "type": "uint256"
        },
        {
          "internalType": "address",
          "name": "owner",
          "type": "address"
        },
        {
          "internalType": "uint80",
          "name": "value",
          "type": "uint80"
        },
        {
          "internalType": "uint80",
          "name": "timestamp",
          "type": "uint80"
        }
      ],
      "stateMutability": "view",
      "type": "function",
      "constant": true
    },
    {
      "inputs": [
        {
          "internalType": "uint16[]",
          "name": "tokenIds",
          "type": "uint16[]"
        },
        {
          "internalType": "bool",
          "name": "unstake",
          "type": "bool"
        }
      ],
      "name": "claimMany",
      "outputs": [],
      "stateMutability": "nonpayable",
      "type": "function"
    },
    {
      "inputs": [],
      "name": "dailyChefEarnings",
      "outputs": [
        {
          "internalType": "uint256",
          "name": "",
          "type": "uint256"
        }
      ],
      "stateMutability": "view",
      "type": "function",
      "constant": true
    },
    {
      "inputs": [],
      "name": "dailyFatnessRate",
      "outputs": [
        {
          "internalType": "int8",
          "name": "",
          "type": "int8"
        }
      ],
      "stateMutability": "view",
      "type": "function",
      "constant": true
    },
    {
      "inputs": [],
      "name": "dailyInsanityRate",
      "outputs": [
        {
          "internalType": "int8",
          "name": "",
          "type": "int8"
        }
      ],
      "stateMutability": "view",
      "type": "function",
      "constant": true
    },
    {
      "inputs": [],
      "name": "dailyIntelligenceRate",
      "outputs": [
        {
          "internalType": "int8",
          "name": "",
          "type": "int8"
        }
      ],
      "stateMutability": "view",
      "type": "function",
      "constant": true
    },
    {
      "inputs": [],
      "name": "dailySkillRate",
      "outputs": [
        {
          "internalType": "int8",
          "name": "",
          "type": "int8"
        }
      ],
      "stateMutability": "view",
      "type": "function",
      "constant": true
    },
    {
      "inputs": [],
      "name": "foodTokenMaxSupply",
      "outputs": [
        {
          "internalType": "uint256",
          "name": "",
          "type": "uint256"
        }
      ],
      "stateMutability": "view",
      "type": "function",
      "constant": true
    },
    {
      "inputs": [],
      "name": "foodTokensPerRat",
      "outputs": [
        {
          "internalType": "uint256",
          "name": "",
          "type": "uint256"
        }
      ],
      "stateMutability": "view",
      "type": "function",
      "constant": true
    },
    {
      "inputs": [
        {
          "internalType": "uint256",
          "name": "tokenId",
          "type": "uint256"
        }
      ],
      "name": "getProperties",
      "outputs": [
        {
          "internalType": "uint8",
          "name": "efficiency",
          "type": "uint8"
        },
        {
          "internalType": "uint8",
          "name": "tolerance",
          "type": "uint8"
        }
      ],
      "stateMutability": "view",
      "type": "function",
      "constant": true
    },
    {
      "inputs": [
        {
          "internalType": "uint256",
          "name": "tokenId",
          "type": "uint256"
        }
      ],
      "name": "isChef",
      "outputs": [
        {
          "internalType": "bool",
          "name": "chef",
          "type": "bool"
        }
      ],
      "stateMutability": "view",
      "type": "function",
      "constant": true
    },
    {
      "inputs": [],
      "name": "lastClaimTimestamp",
      "outputs": [
        {
          "internalType": "uint256",
          "name": "",
          "type": "uint256"
        }
      ],
      "stateMutability": "view",
      "type": "function",
      "constant": true
    },
    {
      "inputs": [
        {
          "internalType": "address",
          "name": "",
          "type": "address"
        },
        {
          "internalType": "address",
          "name": "from",
          "type": "address"
        },
        {
          "internalType": "uint256",
          "name": "",
          "type": "uint256"
        },
        {
          "internalType": "bytes",
          "name": "",
          "type": "bytes"
        }
      ],
      "name": "onERC721Received",
      "outputs": [
        {
          "internalType": "bytes4",
          "name": "",
          "type": "bytes4"
        }
      ],
      "stateMutability": "pure",
      "type": "function",
      "constant": true
    },
    {
      "inputs": [],
      "name": "owner",
      "outputs": [
        {
          "internalType": "address",
          "name": "",
          "type": "address"
        }
      ],
      "stateMutability": "view",
      "type": "function",
      "constant": true
    },
    {
      "inputs": [],
      "name": "paused",
      "outputs": [
        {
          "internalType": "bool",
          "name": "",
          "type": "bool"
        }
      ],
      "stateMutability": "view",
      "type": "function",
      "constant": true
    },
    {
      "inputs": [],
      "name": "ratEfficiencyMultiplier",
      "outputs": [
        {
          "internalType": "int256",
          "name": "",
          "type": "int256"
        }
      ],
      "stateMutability": "view",
      "type": "function",
      "constant": true
    },
    {
      "inputs": [],
      "name": "ratEfficiencyOffset",
      "outputs": [
        {
          "internalType": "int256",
          "name": "",
          "type": "int256"
        }
      ],
      "stateMutability": "view",
      "type": "function",
      "constant": true
    },
    {
      "inputs": [],
      "name": "ratTheftPercentage",
      "outputs": [
        {
          "internalType": "uint256",
          "name": "",
          "type": "uint256"
        }
      ],
      "stateMutability": "view",
      "type": "function",
      "constant": true
    },
    {
      "inputs": [
        {
          "internalType": "uint256",
          "name": "",
          "type": "uint256"
        }
      ],
      "name": "rats",
      "outputs": [
        {
          "internalType": "uint256",
          "name": "tokenId",
          "type": "uint256"
        },
        {
          "internalType": "address",
          "name": "owner",
          "type": "address"
        },
        {
          "internalType": "uint80",
          "name": "value",
          "type": "uint80"
        },
        {
          "internalType": "uint80",
          "name": "timestamp",
          "type": "uint80"
        }
      ],
      "stateMutability": "view",
      "type": "function",
      "constant": true
    },
    {
      "inputs": [],
      "name": "renounceOwnership",
      "outputs": [],
      "stateMutability": "nonpayable",
      "type": "function"
    },
    {
      "inputs": [
        {
          "internalType": "address",
          "name": "account",
          "type": "address"
        },
        {
          "internalType": "uint16[]",
          "name": "tokenIds",
          "type": "uint16[]"
        }
      ],
      "name": "stakeMany",
      "outputs": [],
      "stateMutability": "nonpayable",
      "type": "function"
    },
    {
      "inputs": [],
      "name": "totalChefsStaked",
      "outputs": [
        {
          "internalType": "uint256",
          "name": "",
          "type": "uint256"
        }
      ],
      "stateMutability": "view",
      "type": "function",
      "constant": true
    },
    {
      "inputs": [],
      "name": "totalFoodTokensEarned",
      "outputs": [
        {
          "internalType": "uint256",
          "name": "",
          "type": "uint256"
        }
      ],
      "stateMutability": "view",
      "type": "function",
      "constant": true
    },
    {
      "inputs": [],
      "name": "totalRatsStaked",
      "outputs": [
        {
          "internalType": "uint256",
          "name": "",
          "type": "uint256"
        }
      ],
      "stateMutability": "view",
      "type": "function",
      "constant": true
    },
    {
      "inputs": [
        {
          "internalType": "address",
          "name": "newOwner",
          "type": "address"
        }
      ],
      "name": "transferOwnership",
      "outputs": [],
      "stateMutability": "nonpayable",
      "type": "function"
    },
    {
      "inputs": [],
      "name": "unaccountedRewards",
      "outputs": [
        {
          "internalType": "uint256",
          "name": "",
          "type": "uint256"
        }
      ],
      "stateMutability": "view",
      "type": "function",
      "constant": true
    },
    {
      "inputs": [],
      "name": "vestingPeriod",
      "outputs": [
        {
          "internalType": "uint256",
          "name": "",
          "type": "uint256"
        }
      ],
      "stateMutability": "view",
      "type": "function",
      "constant": true
    },
    {
      "inputs": [
        {
          "internalType": "address",
          "name": "_character",
          "type": "address"
        },
        {
          "internalType": "address",
          "name": "_foodToken",
          "type": "address"
        },
        {
          "internalType": "uint256",
          "name": "_foodTokenMaxSupply",
          "type": "uint256"
        },
        {
          "internalType": "uint256[]",
          "name": "_earningSettings",
          "type": "uint256[]"
        },
        {
          "internalType": "int8[]",
          "name": "_propertyIncrements",
          "type": "int8[]"
        },
        {
          "internalType": "uint8",
          "name": "_chefEfficiencyMultiplier",
          "type": "uint8"
        },
        {
          "internalType": "int256",
          "name": "_ratEfficiencyMultiplier",
          "type": "int256"
        },
        {
          "internalType": "int256",
          "name": "_ratEfficiencyOffset",
          "type": "int256"
        }
      ],
      "name": "initialize",
      "outputs": [],
      "stateMutability": "nonpayable",
      "type": "function"
    },
    {
      "inputs": [],
      "name": "initialize",
      "outputs": [],
      "stateMutability": "nonpayable",
      "type": "function"
    },
    {
      "inputs": [
        {
          "internalType": "address",
          "name": "_character",
          "type": "address"
        },
        {
          "internalType": "uint256",
          "name": "_accrualPeriod",
          "type": "uint256"
        }
      ],
      "name": "initialize",
      "outputs": [],
      "stateMutability": "nonpayable",
      "type": "function"
    }
  ],
  "bytecode": "0x608060405234801561001057600080fd5b506145cf806100206000396000f3fe608060405234801561001057600080fd5b50600436106101f05760003560e01c80638129fc1c1161010f578063cd6dc687116100a2578063ef9f800f11610071578063ef9f800f1461055c578063f26667461461058c578063f2fde38b146105aa578063f6664155146105c6576101f0565b8063cd6dc687146104e8578063d7178ac614610504578063d8dda92e14610522578063dbdc1f6b14610540576101f0565b8063a7a10290116100de578063a7a1029014610472578063bdb629411461048e578063c0c472c0146104ac578063cba88af8146104ca576101f0565b80638129fc1c1461040e5780638da5cb5b1461041857806391ba3f3f14610436578063a262c0ad14610454576101f0565b806335ec066e116101875780635c975abb116101565780635c975abb146103aa578063607af397146103c8578063715018a6146103e65780637313ee5a146103f0576101f0565b806335ec066e1461030a578063499f80101461033d5780634d1c61af1461035b578063589999121461038e576101f0565b80631b8ca217116101c35780631b8ca2171461027f5780632535a77f146102b05780632d79320b146102ce5780632e2ce28b146102ec576101f0565b806310d53df1146101f5578063138e6ad514610213578063150b7a02146102315780631b4d47a114610261575b600080fd5b6101fd6105e4565b60405161020a9190612e17565b60405180910390f35b61021b6105f7565b6040516102289190612e4b565b60405180910390f35b61024b60048036038101906102469190612f73565b6105fd565b6040516102589190613036565b60405180910390f35b610269610680565b6040516102769190613060565b60405180910390f35b6102996004803603810190610294919061307b565b610686565b6040516102a79291906130c4565b60405180910390f35b6102b8610767565b6040516102c59190613060565b60405180910390f35b6102d661076d565b6040516102e391906130ed565b60405180910390f35b6102f4610780565b6040516103019190613060565b60405180910390f35b610324600480360381019061031f919061307b565b610786565b604051610334949392919061313c565b60405180910390f35b610345610802565b6040516103529190613060565b60405180910390f35b6103756004803603810190610370919061307b565b610808565b604051610385949392919061313c565b60405180910390f35b6103a860048036038101906103a39190613417565b610884565b005b6103b2610bdc565b6040516103bf9190613520565b60405180910390f35b6103d0610bf3565b6040516103dd9190613060565b60405180910390f35b6103ee610bf9565b005b6103f8610c81565b6040516104059190613060565b60405180910390f35b610416610c87565b005b610420610d7b565b60405161042d919061353b565b60405180910390f35b61043e610da5565b60405161044b9190613060565b60405180910390f35b61045c610dab565b6040516104699190612e17565b60405180910390f35b61048c600480360381019061048791906135d8565b610dbe565b005b610496610f05565b6040516104a39190612e17565b60405180910390f35b6104b4610f18565b6040516104c19190613060565b60405180910390f35b6104d2610f1e565b6040516104df9190612e17565b60405180910390f35b61050260048036038101906104fd9190613638565b610f31565b005b61050c6110eb565b6040516105199190612e4b565b60405180910390f35b61052a6110f1565b6040516105379190613060565b60405180910390f35b61055a60048036038101906105559190613678565b6110f7565b005b6105766004803603810190610571919061307b565b61152d565b6040516105839190613520565b60405180910390f35b610594611602565b6040516105a19190613060565b60405180910390f35b6105c460048036038101906105bf91906136d8565b611608565b005b6105ce611700565b6040516105db9190613060565b60405180910390f35b609a60009054906101000a900460000b81565b60a75481565b60008073ffffffffffffffffffffffffffffffffffffffff168573ffffffffffffffffffffffffffffffffffffffff161461066d576040517f08c379a000000000000000000000000000000000000000000000000000000000815260040161066490613788565b60405180910390fd5b63150b7a0260e01b905095945050505050565b60a05481565b600080609760009054906101000a900473ffffffffffffffffffffffffffffffffffffffff1673ffffffffffffffffffffffffffffffffffffffff1663e05c57bf846040518263ffffffff1660e01b81526004016106e49190613060565b61014060405180830381865afa158015610702573d6000803e3d6000fd5b505050506040513d601f19601f8201168201806040525081019061072691906137d2565b909192939495969798509091929394959697509091929394959650909192939495509091929394509091929350909192509091508092508193505050915091565b609e5481565b60a660009054906101000a900460ff1681565b60a25481565b60996020528060005260406000206000915090508060000154908060010160009054906101000a900473ffffffffffffffffffffffffffffffffffffffff16908060010160149054906101000a900469ffffffffffffffffffff16908060020160009054906101000a900469ffffffffffffffffffff16905084565b609c5481565b60986020528060005260406000206000915090508060000154908060010160009054906101000a900473ffffffffffffffffffffffffffffffffffffffff16908060010160149054906101000a900469ffffffffffffffffffff16908060020160009054906101000a900469ffffffffffffffffffff16905084565b600060019054906101000a900460ff166108ac5760008054906101000a900460ff16156108b5565b6108b4611706565b5b6108f4576040517f08c379a00000000000000000000000000000000000000000000000000000000081526004016108eb90613923565b60405180910390fd5b60008060019054906101000a900460ff161590508015610944576001600060016101000a81548160ff02191690831515021790555060016000806101000a81548160ff0219169083151502179055505b61094c611717565b610954611778565b600060a3819055506000609e81905550600060a58190555088609760006101000a81548173ffffffffffffffffffffffffffffffffffffffff021916908373ffffffffffffffffffffffffffffffffffffffff1602179055508760a960006101000a81548173ffffffffffffffffffffffffffffffffffffffff021916908373ffffffffffffffffffffffffffffffffffffffff160217905550670de0b6b3a764000087610a029190613972565b60a081905550670de0b6b3a764000086600081518110610a2557610a246139cc565b5b6020026020010151610a379190613972565b60a18190555085600181518110610a5157610a506139cc565b5b602002602001015160a28190555085600281518110610a7357610a726139cc565b5b6020026020010151609f8190555085600381518110610a9557610a946139cc565b5b6020026020010151609d8190555084600081518110610ab757610ab66139cc565b5b6020026020010151609a60006101000a81548160ff021916908360000b60ff16021790555084600181518110610af057610aef6139cc565b5b6020026020010151609a60016101000a81548160ff021916908360000b60ff16021790555084600281518110610b2957610b286139cc565b5b6020026020010151609a60026101000a81548160ff021916908360000b60ff16021790555084600381518110610b6257610b616139cc565b5b6020026020010151609a60036101000a81548160ff021916908360000b60ff1602179055508360a660006101000a81548160ff021916908360ff1602179055508260a7819055508160a8819055508015610bd15760008060016101000a81548160ff0219169083151502179055505b505050505050505050565b6000606560009054906101000a900460ff16905090565b60a55481565b610c016117d9565b73ffffffffffffffffffffffffffffffffffffffff16610c1f610d7b565b73ffffffffffffffffffffffffffffffffffffffff1614610c75576040517f08c379a0000000000000000000000000000000000000000000000000000000008152600401610c6c90613a47565b60405180910390fd5b610c7f60006117e1565b565b609f5481565b600060019054906101000a900460ff16610caf5760008054906101000a900460ff1615610cb8565b610cb7611706565b5b610cf7576040517f08c379a0000000000000000000000000000000000000000000000000000000008152600401610cee90613923565b60405180910390fd5b60008060019054906101000a900460ff161590508015610d47576001600060016101000a81548160ff02191690831515021790555060016000806101000a81548160ff0219169083151502179055505b610d4f611717565b610d57611778565b8015610d785760008060016101000a81548160ff0219169083151502179055505b50565b6000603360009054906101000a900473ffffffffffffffffffffffffffffffffffffffff16905090565b60a15481565b609a60029054906101000a900460000b81565b610dc6610bdc565b15610e06576040517f08c379a0000000000000000000000000000000000000000000000000000000008152600401610dfd90613ab3565b60405180910390fd5b6000805b84849050811015610eeb57610e49858583818110610e2b57610e2a6139cc565b5b9050602002016020810190610e409190613b0d565b61ffff1661152d565b15610e9557610e83858583818110610e6457610e636139cc565b5b9050602002016020810190610e799190613b0d565b61ffff16846118a7565b82610e8e9190613b3a565b9150610ed8565b610eca858583818110610eab57610eaa6139cc565b5b9050602002016020810190610ec09190613b0d565b61ffff1684611d4c565b82610ed59190613b3a565b91505b8080610ee390613b90565b915050610e0a565b506000811115610eff57610efe816121f4565b5b50505050565b609a60019054906101000a900460000b81565b60a35481565b609a60039054906101000a900460000b81565b600060019054906101000a900460ff16610f595760008054906101000a900460ff1615610f62565b610f61611706565b5b610fa1576040517f08c379a0000000000000000000000000000000000000000000000000000000008152600401610f9890613923565b60405180910390fd5b60008060019054906101000a900460ff161590508015610ff1576001600060016101000a81548160ff02191690831515021790555060016000806101000a81548160ff0219169083151502179055505b610ff9611717565b611001611778565b82609760006101000a81548173ffffffffffffffffffffffffffffffffffffffff021916908373ffffffffffffffffffffffffffffffffffffffff16021790555081609d819055506000609a60006101000a81548160ff021916908360000b60ff1602179055506000609a60016101000a81548160ff021916908360000b60ff1602179055506000609a60026101000a81548160ff021916908360000b60ff1602179055506000609a60036101000a81548160ff021916908360000b60ff16021790555080156110e65760008060016101000a81548160ff0219169083151502179055505b505050565b60a85481565b60a45481565b6110ff6117d9565b73ffffffffffffffffffffffffffffffffffffffff168373ffffffffffffffffffffffffffffffffffffffff16148061118c5750609760009054906101000a900473ffffffffffffffffffffffffffffffffffffffff1673ffffffffffffffffffffffffffffffffffffffff166111746117d9565b73ffffffffffffffffffffffffffffffffffffffff16145b6111cb576040517f08c379a00000000000000000000000000000000000000000000000000000000081526004016111c290613c25565b60405180910390fd5b60005b8282905081101561152757609760009054906101000a900473ffffffffffffffffffffffffffffffffffffffff1673ffffffffffffffffffffffffffffffffffffffff1661121a6117d9565b73ffffffffffffffffffffffffffffffffffffffff16146114305761123d6117d9565b73ffffffffffffffffffffffffffffffffffffffff16609760009054906101000a900473ffffffffffffffffffffffffffffffffffffffff1673ffffffffffffffffffffffffffffffffffffffff16636352211e8585858181106112a4576112a36139cc565b5b90506020020160208101906112b99190613b0d565b6040518263ffffffff1660e01b81526004016112d59190613c80565b602060405180830381865afa1580156112f2573d6000803e3d6000fd5b505050506040513d601f19601f820116820180604052508101906113169190613cb0565b73ffffffffffffffffffffffffffffffffffffffff161461136c576040517f08c379a000000000000000000000000000000000000000000000000000000000815260040161136390613d29565b60405180910390fd5b609760009054906101000a900473ffffffffffffffffffffffffffffffffffffffff1673ffffffffffffffffffffffffffffffffffffffff166323b872dd6113b26117d9565b308686868181106113c6576113c56139cc565b5b90506020020160208101906113db9190613b0d565b6040518463ffffffff1660e01b81526004016113f993929190613d49565b600060405180830381600087803b15801561141357600080fd5b505af1158015611427573d6000803e3d6000fd5b5050505061146a565b6000838383818110611445576114446139cc565b5b905060200201602081019061145a9190613b0d565b61ffff16141561146957611514565b5b61149e8383838181106114805761147f6139cc565b5b90506020020160208101906114959190613b0d565b61ffff1661152d565b156114dd576114d8848484848181106114ba576114b96139cc565b5b90506020020160208101906114cf9190613b0d565b61ffff1661228d565b611513565b611512848484848181106114f4576114f36139cc565b5b90506020020160208101906115099190613b0d565b61ffff1661244c565b5b5b808061151f90613b90565b9150506111ce565b50505050565b6000609760009054906101000a900473ffffffffffffffffffffffffffffffffffffffff1673ffffffffffffffffffffffffffffffffffffffff1663e05c57bf836040518263ffffffff1660e01b815260040161158a9190613060565b61014060405180830381865afa1580156115a8573d6000803e3d6000fd5b505050506040513d601f19601f820116820180604052508101906115cc91906137d2565b90919293949596975090919293949596509091929394955090919293945090919293509091925090915090505080915050919050565b609b5481565b6116106117d9565b73ffffffffffffffffffffffffffffffffffffffff1661162e610d7b565b73ffffffffffffffffffffffffffffffffffffffff1614611684576040517f08c379a000000000000000000000000000000000000000000000000000000000815260040161167b90613a47565b60405180910390fd5b600073ffffffffffffffffffffffffffffffffffffffff168173ffffffffffffffffffffffffffffffffffffffff1614156116f4576040517f08c379a00000000000000000000000000000000000000000000000000000000081526004016116eb90613df2565b60405180910390fd5b6116fd816117e1565b50565b609d5481565b600061171130612614565b15905090565b600060019054906101000a900460ff16611766576040517f08c379a000000000000000000000000000000000000000000000000000000000815260040161175d90613e84565b60405180910390fd5b61176e612627565b611776612678565b565b600060019054906101000a900460ff166117c7576040517f08c379a00000000000000000000000000000000000000000000000000000000081526004016117be90613e84565b60405180910390fd5b6117cf612627565b6117d76126d9565b565b600033905090565b6000603360009054906101000a900473ffffffffffffffffffffffffffffffffffffffff16905081603360006101000a81548173ffffffffffffffffffffffffffffffffffffffff021916908373ffffffffffffffffffffffffffffffffffffffff1602179055508173ffffffffffffffffffffffffffffffffffffffff168173ffffffffffffffffffffffffffffffffffffffff167f8be0079c531659141344cd1fd0a4f28419497f9722a3daafe3b4186f6b6457e060405160405180910390a35050565b60008060986000858152602001908152602001600020604051806080016040529081600082015481526020016001820160009054906101000a900473ffffffffffffffffffffffffffffffffffffffff1673ffffffffffffffffffffffffffffffffffffffff1673ffffffffffffffffffffffffffffffffffffffff1681526020016001820160149054906101000a900469ffffffffffffffffffff1669ffffffffffffffffffff1669ffffffffffffffffffff1681526020016002820160009054906101000a900469ffffffffffffffffffff1669ffffffffffffffffffff1669ffffffffffffffffffff168152505090506119a26117d9565b73ffffffffffffffffffffffffffffffffffffffff16816020015173ffffffffffffffffffffffffffffffffffffffff1614611a13576040517f08c379a0000000000000000000000000000000000000000000000000000000008152600401611a0a90613d29565b60405180910390fd5b828015611a3c5750609f54816060015169ffffffffffffffffffff1642611a3a9190613ea4565b105b15611a7c576040517f08c379a0000000000000000000000000000000000000000000000000000000008152600401611a7390613f24565b60405180910390fd5b611a8581612745565b91506000806000611a9587612893565b9250925092508515611bd557609760009054906101000a900473ffffffffffffffffffffffffffffffffffffffff1673ffffffffffffffffffffffffffffffffffffffff1663b88d4fde30611ae86117d9565b8a6040518463ffffffff1660e01b8152600401611b0793929190613f7b565b600060405180830381600087803b158015611b2157600080fd5b505af1158015611b35573d6000803e3d6000fd5b50505050609860008881526020019081526020016000206000808201600090556001820160006101000a81549073ffffffffffffffffffffffffffffffffffffffff02191690556001820160146101000a81549069ffffffffffffffffffff02191690556002820160006101000a81549069ffffffffffffffffffff02191690555050609b6000815480929190611bcb90613fc5565b9190505550611cfd565b60405180608001604052808861ffff168152602001611bf26117d9565b73ffffffffffffffffffffffffffffffffffffffff1681526020014269ffffffffffffffffffff1681526020014269ffffffffffffffffffff16815250609860008981526020019081526020016000206000820151816000015560208201518160010160006101000a81548173ffffffffffffffffffffffffffffffffffffffff021916908373ffffffffffffffffffffffffffffffffffffffff16021790555060408201518160010160146101000a81548169ffffffffffffffffffff021916908369ffffffffffffffffffff16021790555060608201518160020160006101000a81548169ffffffffffffffffffff021916908369ffffffffffffffffffff1602179055509050505b7f9b394c66bc4fdb2f56f5842a796076e6552d6f15eaacb6e63e3c53b474d872e9878688868686609e54604051611d3a9796959493929190614066565b60405180910390a15050505092915050565b60008060996000858152602001908152602001600020604051806080016040529081600082015481526020016001820160009054906101000a900473ffffffffffffffffffffffffffffffffffffffff1673ffffffffffffffffffffffffffffffffffffffff1673ffffffffffffffffffffffffffffffffffffffff1681526020016001820160149054906101000a900469ffffffffffffffffffff1669ffffffffffffffffffff1669ffffffffffffffffffff1681526020016002820160009054906101000a900469ffffffffffffffffffff1669ffffffffffffffffffff1669ffffffffffffffffffff16815250509050611e476117d9565b73ffffffffffffffffffffffffffffffffffffffff16816020015173ffffffffffffffffffffffffffffffffffffffff1614611eb8576040517f08c379a0000000000000000000000000000000000000000000000000000000008152600401611eaf90613d29565b60405180910390fd5b828015611ee15750609f54816060015169ffffffffffffffffffff1642611edf9190613ea4565b105b15611f21576040517f08c379a0000000000000000000000000000000000000000000000000000000008152600401611f1890613f24565b60405180910390fd5b611f2a81612be5565b91506000806000611f3a87612893565b925092509250851561207a57609760009054906101000a900473ffffffffffffffffffffffffffffffffffffffff1673ffffffffffffffffffffffffffffffffffffffff1663b88d4fde30611f8d6117d9565b8a6040518463ffffffff1660e01b8152600401611fac93929190613f7b565b600060405180830381600087803b158015611fc657600080fd5b505af1158015611fda573d6000803e3d6000fd5b50505050609960008881526020019081526020016000206000808201600090556001820160006101000a81549073ffffffffffffffffffffffffffffffffffffffff02191690556001820160146101000a81549069ffffffffffffffffffff02191690556002820160006101000a81549069ffffffffffffffffffff02191690555050609c600081548092919061207090613fc5565b91905055506121a9565b60405180608001604052808861ffff1681526020016120976117d9565b73ffffffffffffffffffffffffffffffffffffffff1681526020016120ba612cf9565b69ffffffffffffffffffff1681526020014269ffffffffffffffffffff16815250609960008981526020019081526020016000206000820151816000015560208201518160010160006101000a81548173ffffffffffffffffffffffffffffffffffffffff021916908373ffffffffffffffffffffffffffffffffffffffff16021790555060408201518160010160146101000a81548169ffffffffffffffffffff021916908369ffffffffffffffffffff16021790555060608201518160020160006101000a81548169ffffffffffffffffffff021916908369ffffffffffffffffffff1602179055509050505b7f6e949c62565860afb9dd6295e998a1c40005fe9560aedf8d596717681cfc7a1f8786888686866040516121e2969594939291906140dc565b60405180910390a15050505092915050565b60a960009054906101000a900473ffffffffffffffffffffffffffffffffffffffff1673ffffffffffffffffffffffffffffffffffffffff166340c10f1961223a6117d9565b836040518363ffffffff1660e01b8152600401612258929190614144565b600060405180830381600087803b15801561227257600080fd5b505af1158015612286573d6000803e3d6000fd5b5050505050565b612295610bdc565b156122d5576040517f08c379a00000000000000000000000000000000000000000000000000000000081526004016122cc90613ab3565b60405180910390fd5b60405180608001604052808261ffff1681526020018373ffffffffffffffffffffffffffffffffffffffff1681526020014269ffffffffffffffffffff1681526020014269ffffffffffffffffffff16815250609860008381526020019081526020016000206000820151816000015560208201518160010160006101000a81548173ffffffffffffffffffffffffffffffffffffffff021916908373ffffffffffffffffffffffffffffffffffffffff16021790555060408201518160010160146101000a81548169ffffffffffffffffffff021916908369ffffffffffffffffffff16021790555060608201518160020160006101000a81548169ffffffffffffffffffff021916908369ffffffffffffffffffff160217905550905050609b600081548092919061240890613b90565b91905055507f8af1bb49fb16c7835975aa59449ba4328dd54737dfb2ae9fa6c5eca71fda51f98183426040516124409392919061416d565b60405180910390a15050565b612454610bdc565b15612494576040517f08c379a000000000000000000000000000000000000000000000000000000000815260040161248b90613ab3565b60405180910390fd5b60405180608001604052808261ffff1681526020018373ffffffffffffffffffffffffffffffffffffffff1681526020016124cd612cf9565b69ffffffffffffffffffff1681526020014269ffffffffffffffffffff16815250609960008381526020019081526020016000206000820151816000015560208201518160010160006101000a81548173ffffffffffffffffffffffffffffffffffffffff021916908373ffffffffffffffffffffffffffffffffffffffff16021790555060408201518160010160146101000a81548169ffffffffffffffffffff021916908369ffffffffffffffffffff16021790555060608201518160020160006101000a81548169ffffffffffffffffffff021916908369ffffffffffffffffffff160217905550905050609c60008154809291906125ce90613b90565b91905055507f8af1bb49fb16c7835975aa59449ba4328dd54737dfb2ae9fa6c5eca71fda51f98183609e546040516126089392919061416d565b60405180910390a15050565b600080823b905060008111915050919050565b600060019054906101000a900460ff16612676576040517f08c379a000000000000000000000000000000000000000000000000000000000815260040161266d90613e84565b60405180910390fd5b565b600060019054906101000a900460ff166126c7576040517f08c379a00000000000000000000000000000000000000000000000000000000081526004016126be90613e84565b60405180910390fd5b6126d76126d26117d9565b6117e1565b565b600060019054906101000a900460ff16612728576040517f08c379a000000000000000000000000000000000000000000000000000000000815260040161271f90613e84565b60405180910390fd5b6000606560006101000a81548160ff021916908315150217905550565b6000806127558360000151610686565b5090506000609d5460a154856040015169ffffffffffffffffffff164261277c9190613ea4565b6127869190613972565b61279091906141d3565b90506000600a60a660009054906101000a900460ff1660ff168460ff166127b79190613972565b6127c19190613972565b620186a06127cf9190613b3a565b9050620186a081836127e19190613972565b6127eb91906141d3565b935060a0548460a4546127fe9190613b3a565b11156128175760a45460a0546128149190613ea4565b93505b600084111561288b574260a581905550612849606460a2548661283a9190613972565b61284491906141d3565b612d03565b606460a254606461285a9190613ea4565b856128659190613972565b61286f91906141d3565b93508360a460008282546128839190613b3a565b925050819055505b505050919050565b6000806060600060986000868152602001908152602001600020604051806080016040529081600082015481526020016001820160009054906101000a900473ffffffffffffffffffffffffffffffffffffffff1673ffffffffffffffffffffffffffffffffffffffff1673ffffffffffffffffffffffffffffffffffffffff1681526020016001820160149054906101000a900469ffffffffffffffffffff1669ffffffffffffffffffff1669ffffffffffffffffffff1681526020016002820160009054906101000a900469ffffffffffffffffffff1669ffffffffffffffffffff1669ffffffffffffffffffff16815250509050600060996000878152602001908152602001600020604051806080016040529081600082015481526020016001820160009054906101000a900473ffffffffffffffffffffffffffffffffffffffff1673ffffffffffffffffffffffffffffffffffffffff1673ffffffffffffffffffffffffffffffffffffffff1681526020016001820160149054906101000a900469ffffffffffffffffffff1669ffffffffffffffffffff1669ffffffffffffffffffff1681526020016002820160009054906101000a900469ffffffffffffffffffff1669ffffffffffffffffffff1669ffffffffffffffffffff168152505090506000612a878761152d565b612a95578160600151612a9b565b82606001515b69ffffffffffffffffffff1642612ab29190613ea4565b90506000612abf8861152d565b9050609760009054906101000a900473ffffffffffffffffffffffffffffffffffffffff1673ffffffffffffffffffffffffffffffffffffffff1663d8ffcfcb89612b3484612b1d57609a60029054906101000a900460000b612b2e565b609a60009054906101000a900460000b5b86612d6b565b612b6885612b5157609a60039054906101000a900460000b612b62565b609a60019054906101000a900460000b5b87612d6b565b6040518463ffffffff1660e01b8152600401612b8693929190614204565b6000604051808303816000875af1158015612ba5573d6000803e3d6000fd5b505050506040513d6000823e3d601f19601f82011682018060405250810190612bce91906142e1565b809750819850829950505050505050509193909250565b600080612bf58360000151610686565b9150506000836040015169ffffffffffffffffffff16609e54612c189190613ea4565b905060006103e860a854612c2c9190614350565b60646103e860a75460328760ff161115612c5257866064612c4d9190614467565b612c54565b865b60000b612c619190614350565b612c6b9190614350565b612c75919061449b565b612c7f9190614505565b9050620186a08183612c919190613972565b612c9b91906141d3565b935060a0548460a454612cae9190613b3a565b1115612cc75760a45460a054612cc49190613ea4565b93505b6000841115612cf1574260a5819055508360a46000828254612ce99190613b3a565b925050819055505b505050919050565b6000609e54905090565b6000609c541415612d2c578060a36000828254612d209190613b3a565b92505081905550612d68565b609c5460a35482612d3d9190613b3a565b612d4791906141d3565b609e6000828254612d589190613b3a565b92505081905550600060a3819055505b50565b600080609d548460000b84612d809190614350565b612d8a919061449b565b90506064811315612d9f576064915050612df5565b7fffffffffffffffffffffffffffffffffffffffffffffffffffffffffffffff9c811215612df0577fffffffffffffffffffffffffffffffffffffffffffffffffffffffffffffff9c915050612df5565b809150505b92915050565b60008160000b9050919050565b612e1181612dfb565b82525050565b6000602082019050612e2c6000830184612e08565b92915050565b6000819050919050565b612e4581612e32565b82525050565b6000602082019050612e606000830184612e3c565b92915050565b6000604051905090565b600080fd5b600080fd5b600073ffffffffffffffffffffffffffffffffffffffff82169050919050565b6000612ea582612e7a565b9050919050565b612eb581612e9a565b8114612ec057600080fd5b50565b600081359050612ed281612eac565b92915050565b6000819050919050565b612eeb81612ed8565b8114612ef657600080fd5b50565b600081359050612f0881612ee2565b92915050565b600080fd5b600080fd5b600080fd5b60008083601f840112612f3357612f32612f0e565b5b8235905067ffffffffffffffff811115612f5057612f4f612f13565b5b602083019150836001820283011115612f6c57612f6b612f18565b5b9250929050565b600080600080600060808688031215612f8f57612f8e612e70565b5b6000612f9d88828901612ec3565b9550506020612fae88828901612ec3565b9450506040612fbf88828901612ef9565b935050606086013567ffffffffffffffff811115612fe057612fdf612e75565b5b612fec88828901612f1d565b92509250509295509295909350565b60007fffffffff0000000000000000000000000000000000000000000000000000000082169050919050565b61303081612ffb565b82525050565b600060208201905061304b6000830184613027565b92915050565b61305a81612ed8565b82525050565b60006020820190506130756000830184613051565b92915050565b60006020828403121561309157613090612e70565b5b600061309f84828501612ef9565b91505092915050565b600060ff82169050919050565b6130be816130a8565b82525050565b60006040820190506130d960008301856130b5565b6130e660208301846130b5565b9392505050565b600060208201905061310260008301846130b5565b92915050565b61311181612e9a565b82525050565b600069ffffffffffffffffffff82169050919050565b61313681613117565b82525050565b60006080820190506131516000830187613051565b61315e6020830186613108565b61316b604083018561312d565b613178606083018461312d565b95945050505050565b6000601f19601f8301169050919050565b7f4e487b7100000000000000000000000000000000000000000000000000000000600052604160045260246000fd5b6131ca82613181565b810181811067ffffffffffffffff821117156131e9576131e8613192565b5b80604052505050565b60006131fc612e66565b905061320882826131c1565b919050565b600067ffffffffffffffff82111561322857613227613192565b5b602082029050602081019050919050565b600061324c6132478461320d565b6131f2565b9050808382526020820190506020840283018581111561326f5761326e612f18565b5b835b8181101561329857806132848882612ef9565b845260208401935050602081019050613271565b5050509392505050565b600082601f8301126132b7576132b6612f0e565b5b81356132c7848260208601613239565b91505092915050565b600067ffffffffffffffff8211156132eb576132ea613192565b5b602082029050602081019050919050565b61330581612dfb565b811461331057600080fd5b50565b600081359050613322816132fc565b92915050565b600061333b613336846132d0565b6131f2565b9050808382526020820190506020840283018581111561335e5761335d612f18565b5b835b8181101561338757806133738882613313565b845260208401935050602081019050613360565b5050509392505050565b600082601f8301126133a6576133a5612f0e565b5b81356133b6848260208601613328565b91505092915050565b6133c8816130a8565b81146133d357600080fd5b50565b6000813590506133e5816133bf565b92915050565b6133f481612e32565b81146133ff57600080fd5b50565b600081359050613411816133eb565b92915050565b600080600080600080600080610100898b03121561343857613437612e70565b5b60006134468b828c01612ec3565b98505060206134578b828c01612ec3565b97505060406134688b828c01612ef9565b965050606089013567ffffffffffffffff81111561348957613488612e75565b5b6134958b828c016132a2565b955050608089013567ffffffffffffffff8111156134b6576134b5612e75565b5b6134c28b828c01613391565b94505060a06134d38b828c016133d6565b93505060c06134e48b828c01613402565b92505060e06134f58b828c01613402565b9150509295985092959890939650565b60008115159050919050565b61351a81613505565b82525050565b60006020820190506135356000830184613511565b92915050565b60006020820190506135506000830184613108565b92915050565b60008083601f84011261356c5761356b612f0e565b5b8235905067ffffffffffffffff81111561358957613588612f13565b5b6020830191508360208202830111156135a5576135a4612f18565b5b9250929050565b6135b581613505565b81146135c057600080fd5b50565b6000813590506135d2816135ac565b92915050565b6000806000604084860312156135f1576135f0612e70565b5b600084013567ffffffffffffffff81111561360f5761360e612e75565b5b61361b86828701613556565b9350935050602061362e868287016135c3565b9150509250925092565b6000806040838503121561364f5761364e612e70565b5b600061365d85828601612ec3565b925050602061366e85828601612ef9565b9150509250929050565b60008060006040848603121561369157613690612e70565b5b600061369f86828701612ec3565b935050602084013567ffffffffffffffff8111156136c0576136bf612e75565b5b6136cc86828701613556565b92509250509250925092565b6000602082840312156136ee576136ed612e70565b5b60006136fc84828501612ec3565b91505092915050565b600082825260208201905092915050565b7f43616e6e6f742073656e6420746f6b656e7320746f2056656e7565206469726560008201527f63746c7900000000000000000000000000000000000000000000000000000000602082015250565b6000613772602483613705565b915061377d82613716565b604082019050919050565b600060208201905081810360008301526137a181613765565b9050919050565b6000815190506137b7816135ac565b92915050565b6000815190506137cc816133bf565b92915050565b6000806000806000806000806000806101408b8d0312156137f6576137f5612e70565b5b60006138048d828e016137a8565b9a505060206138158d828e016137bd565b99505060406138268d828e016137bd565b98505060606138378d828e016137bd565b97505060806138488d828e016137bd565b96505060a06138598d828e016137bd565b95505060c061386a8d828e016137bd565b94505060e061387b8d828e016137bd565b93505061010061388d8d828e016137bd565b92505061012061389f8d828e016137bd565b9150509295989b9194979a5092959850565b7f496e697469616c697a61626c653a20636f6e747261637420697320616c72656160008201527f647920696e697469616c697a6564000000000000000000000000000000000000602082015250565b600061390d602e83613705565b9150613918826138b1565b604082019050919050565b6000602082019050818103600083015261393c81613900565b9050919050565b7f4e487b7100000000000000000000000000000000000000000000000000000000600052601160045260246000fd5b600061397d82612ed8565b915061398883612ed8565b9250817fffffffffffffffffffffffffffffffffffffffffffffffffffffffffffffffff04831182151516156139c1576139c0613943565b5b828202905092915050565b7f4e487b7100000000000000000000000000000000000000000000000000000000600052603260045260246000fd5b7f4f776e61626c653a2063616c6c6572206973206e6f7420746865206f776e6572600082015250565b6000613a31602083613705565b9150613a3c826139fb565b602082019050919050565b60006020820190508181036000830152613a6081613a24565b9050919050565b7f5061757361626c653a2070617573656400000000000000000000000000000000600082015250565b6000613a9d601083613705565b9150613aa882613a67565b602082019050919050565b60006020820190508181036000830152613acc81613a90565b9050919050565b600061ffff82169050919050565b613aea81613ad3565b8114613af557600080fd5b50565b600081359050613b0781613ae1565b92915050565b600060208284031215613b2357613b22612e70565b5b6000613b3184828501613af8565b91505092915050565b6000613b4582612ed8565b9150613b5083612ed8565b9250827fffffffffffffffffffffffffffffffffffffffffffffffffffffffffffffffff03821115613b8557613b84613943565b5b828201905092915050565b6000613b9b82612ed8565b91507fffffffffffffffffffffffffffffffffffffffffffffffffffffffffffffffff821415613bce57613bcd613943565b5b600182019050919050565b7f446f206e6f74206c6f736520796f757220746f6b656e73000000000000000000600082015250565b6000613c0f601783613705565b9150613c1a82613bd9565b602082019050919050565b60006020820190508181036000830152613c3e81613c02565b9050919050565b6000819050919050565b6000613c6a613c65613c6084613ad3565b613c45565b612ed8565b9050919050565b613c7a81613c4f565b82525050565b6000602082019050613c956000830184613c71565b92915050565b600081519050613caa81612eac565b92915050565b600060208284031215613cc657613cc5612e70565b5b6000613cd484828501613c9b565b91505092915050565b7f4e6f7420796f757220746f6b656e000000000000000000000000000000000000600082015250565b6000613d13600e83613705565b9150613d1e82613cdd565b602082019050919050565b60006020820190508181036000830152613d4281613d06565b9050919050565b6000606082019050613d5e6000830186613108565b613d6b6020830185613108565b613d786040830184613c71565b949350505050565b7f4f776e61626c653a206e6577206f776e657220697320746865207a65726f206160008201527f6464726573730000000000000000000000000000000000000000000000000000602082015250565b6000613ddc602683613705565b9150613de782613d80565b604082019050919050565b60006020820190508181036000830152613e0b81613dcf565b9050919050565b7f496e697469616c697a61626c653a20636f6e7472616374206973206e6f74206960008201527f6e697469616c697a696e67000000000000000000000000000000000000000000602082015250565b6000613e6e602b83613705565b9150613e7982613e12565b604082019050919050565b60006020820190508181036000830152613e9d81613e61565b9050919050565b6000613eaf82612ed8565b9150613eba83612ed8565b925082821015613ecd57613ecc613943565b5b828203905092915050565b7f43616e6e6f74206c65617665206265666f726520454f42000000000000000000600082015250565b6000613f0e601783613705565b9150613f1982613ed8565b602082019050919050565b60006020820190508181036000830152613f3d81613f01565b9050919050565b600082825260208201905092915050565b50565b6000613f65600083613f44565b9150613f7082613f55565b600082019050919050565b6000608082019050613f906000830186613108565b613f9d6020830185613108565b613faa6040830184613051565b8181036060830152613fbb81613f58565b9050949350505050565b6000613fd082612ed8565b91506000821415613fe457613fe3613943565b5b600182039050919050565b600081519050919050565b60005b83811015614018578082015181840152602081019050613ffd565b83811115614027576000848401525b50505050565b600061403882613fef565b6140428185613705565b9350614052818560208601613ffa565b61405b81613181565b840191505092915050565b600060e08201905061407b600083018a613051565b6140886020830189613051565b6140956040830188613511565b6140a260608301876130b5565b6140af60808301866130b5565b81810360a08301526140c1818561402d565b90506140d060c0830184613051565b98975050505050505050565b600060c0820190506140f16000830189613051565b6140fe6020830188613051565b61410b6040830187613511565b61411860608301866130b5565b61412560808301856130b5565b81810360a0830152614137818461402d565b9050979650505050505050565b60006040820190506141596000830185613108565b6141666020830184613051565b9392505050565b60006060820190506141826000830186613051565b61418f6020830185613108565b61419c6040830184613051565b949350505050565b7f4e487b7100000000000000000000000000000000000000000000000000000000600052601260045260246000fd5b60006141de82612ed8565b91506141e983612ed8565b9250826141f9576141f86141a4565b5b828204905092915050565b60006060820190506142196000830186613051565b6142266020830185612e08565b6142336040830184612e08565b949350505050565b600080fd5b600067ffffffffffffffff82111561425b5761425a613192565b5b61426482613181565b9050602081019050919050565b600061428461427f84614240565b6131f2565b9050828152602081018484840111156142a05761429f61423b565b5b6142ab848285613ffa565b509392505050565b600082601f8301126142c8576142c7612f0e565b5b81516142d8848260208601614271565b91505092915050565b6000806000606084860312156142fa576142f9612e70565b5b6000614308868287016137bd565b9350506020614319868287016137bd565b925050604084015167ffffffffffffffff81111561433a57614339612e75565b5b614346868287016142b3565b9150509250925092565b600061435b82612e32565b915061436683612e32565b9250827f7fffffffffffffffffffffffffffffffffffffffffffffffffffffffffffffff04821160008413600084131616156143a5576143a4613943565b5b817f800000000000000000000000000000000000000000000000000000000000000005831260008412600084131616156143e2576143e1613943565b5b827f8000000000000000000000000000000000000000000000000000000000000000058212600084136000841216161561441f5761441e613943565b5b827f7fffffffffffffffffffffffffffffffffffffffffffffffffffffffffffffff058212600084126000841216161561445c5761445b613943565b5b828202905092915050565b6000614472826130a8565b915061447d836130a8565b9250828210156144905761448f613943565b5b828203905092915050565b60006144a682612e32565b91506144b183612e32565b9250826144c1576144c06141a4565b5b600160000383147f8000000000000000000000000000000000000000000000000000000000000000831416156144fa576144f9613943565b5b828205905092915050565b600061451082612e32565b915061451b83612e32565b9250817f7fffffffffffffffffffffffffffffffffffffffffffffffffffffffffffffff0383136000831215161561455657614555613943565b5b817f800000000000000000000000000000000000000000000000000000000000000003831260008312161561458e5761458d613943565b5b82820190509291505056fea2646970667358221220c6409fbf3289123d1d29feca4b82090389c72f606f1f104f331a2fc08f8bace864736f6c634300080a0033",
  "immutableReferences": {},
  "source": "// SPDX-License-Identifier: MIT\n\npragma solidity ^0.8.0;\n\nimport \"./Kitchen.sol\";\nimport \"./CasualFood.sol\";\n\ncontract TheStakehouse is Kitchen {\n  CasualFood foodToken; // Reference to the $CFOOD contract\n\n  function initialize(\n    address _character,\n    address _foodToken,\n    uint256 _foodTokenMaxSupply,\n    uint256[] memory _earningSettings, // dailyChefEarnings, ratTheftPercentage, vestingPeriod, accrualPeriod\n    int8[] memory _propertyIncrements, // dailySkillRate, dailyInsanityRate, dailyIntelligenceRate, dailyFatnessRate\n    uint8 _chefEfficiencyMultiplier,\n    int256 _ratEfficiencyMultiplier,\n    int256 _ratEfficiencyOffset\n  ) external initializer {\n    __Ownable_init();\n    __Pausable_init();\n\n    unaccountedRewards = 0;\n    foodTokensPerRat = 0;\n    lastClaimTimestamp = 0;\n\n    character = Character(_character);\n    foodToken = CasualFood(_foodToken);\n    foodTokenMaxSupply = _foodTokenMaxSupply * 1 ether;\n    dailyChefEarnings = _earningSettings[0] * 1 ether;\n    ratTheftPercentage = _earningSettings[1];\n    vestingPeriod = _earningSettings[2];\n    accrualPeriod = _earningSettings[3];\n    dailySkillRate = _propertyIncrements[0];\n    dailyInsanityRate = _propertyIncrements[1];\n    dailyIntelligenceRate = _propertyIncrements[2];\n    dailyFatnessRate = _propertyIncrements[3];\n    chefEfficiencyMultiplier = _chefEfficiencyMultiplier;\n    ratEfficiencyMultiplier = _ratEfficiencyMultiplier;\n    ratEfficiencyOffset = _ratEfficiencyOffset;\n  }\n\n  /**\n   * Mints the given amount of food tokens in the user's account\n   * @param amount - Amount of food tokens to mint\n   */\n  function _mintFoodToken(uint256 amount) internal override {\n    foodToken.mint(_msgSender(), amount);\n  }\n}\n",
  "sourcePath": "/Users/chris/workspace/ratalert/ratalert-contracts/contracts/TheStakehouse.sol",
  "compiler": {
    "name": "solc",
    "version": "0.8.10+commit.fc410830.Emscripten.clang"
  },
  "schemaVersion": "3.4.4",
  "updatedAt": "2022-02-09T16:27:26.121Z",
  "networkType": "ethereum",
  "devdoc": {
    "kind": "dev",
    "methods": {
      "claimMany(uint16[],bool)": {
        "params": {
          "tokenIds": "- The IDs of the tokens in question",
          "unstake": "- Whether or not to unstake the given tokens"
        }
      },
      "getProperties(uint256)": {
        "params": {
          "tokenId": "- The ID of the token to check"
        },
        "returns": {
          "efficiency": "& tolerance values"
        }
      },
      "isChef(uint256)": {
        "params": {
          "tokenId": "- The ID of the token to check"
        },
        "returns": {
          "chef": "- Whether or not the token is a Chef"
        }
      },
      "owner()": {
        "details": "Returns the address of the current owner."
      },
      "paused()": {
        "details": "Returns true if the contract is paused, and false otherwise."
      },
      "renounceOwnership()": {
        "details": "Leaves the contract without owner. It will not be possible to call `onlyOwner` functions anymore. Can only be called by the current owner. NOTE: Renouncing ownership will leave the contract without an owner, thereby removing any functionality that is only available to the owner."
      },
      "stakeMany(address,uint16[])": {
        "params": {
          "account": "- The address of the staker",
          "tokenIds": "- The IDs of the Chefs & Rats to stake"
        }
      },
      "transferOwnership(address)": {
        "details": "Transfers ownership of the contract to a new account (`newOwner`). Can only be called by the current owner."
      }
    },
    "version": 1
  },
  "userdoc": {
    "kind": "user",
    "methods": {
      "claimMany(uint16[],bool)": {
        "notice": "Claim food token earnings, level-ups and optionally unstake characters"
      },
      "getProperties(uint256)": {
        "notice": "Get the character's properties"
      },
      "isChef(uint256)": {
        "notice": "Checks if the token is a Chef"
      },
      "stakeMany(address,uint16[])": {
        "notice": "Adds Chefs & Rats"
      }
    },
    "version": 1
  }
}