{
  "contractName": "TheStakehouse",
  "abi": [
    {
      "anonymous": false,
      "inputs": [
        {
          "indexed": false,
          "internalType": "uint256",
          "name": "tokenId",
          "type": "uint256"
        },
        {
          "indexed": false,
          "internalType": "uint256",
          "name": "earned",
          "type": "uint256"
        },
        {
          "indexed": false,
          "internalType": "bool",
          "name": "unstaked",
          "type": "bool"
        },
        {
          "indexed": false,
          "internalType": "uint8",
          "name": "skill",
          "type": "uint8"
        },
        {
          "indexed": false,
          "internalType": "uint8",
          "name": "insanity",
          "type": "uint8"
        },
        {
          "indexed": false,
          "internalType": "string",
          "name": "eventName",
          "type": "string"
        },
        {
          "indexed": false,
          "internalType": "uint256",
          "name": "foodTokensPerRat",
          "type": "uint256"
        }
      ],
      "name": "ChefClaimed",
      "type": "event"
    },
    {
      "anonymous": false,
      "inputs": [
        {
          "indexed": true,
          "internalType": "address",
          "name": "previousOwner",
          "type": "address"
        },
        {
          "indexed": true,
          "internalType": "address",
          "name": "newOwner",
          "type": "address"
        }
      ],
      "name": "OwnershipTransferred",
      "type": "event"
    },
    {
      "anonymous": false,
      "inputs": [
        {
          "indexed": false,
          "internalType": "address",
          "name": "account",
          "type": "address"
        }
      ],
      "name": "Paused",
      "type": "event"
    },
    {
      "anonymous": false,
      "inputs": [
        {
          "indexed": false,
          "internalType": "uint256",
          "name": "tokenId",
          "type": "uint256"
        },
        {
          "indexed": false,
          "internalType": "uint256",
          "name": "earned",
          "type": "uint256"
        },
        {
          "indexed": false,
          "internalType": "bool",
          "name": "unstaked",
          "type": "bool"
        },
        {
          "indexed": false,
          "internalType": "uint8",
          "name": "intelligence",
          "type": "uint8"
        },
        {
          "indexed": false,
          "internalType": "uint8",
          "name": "fatness",
          "type": "uint8"
        },
        {
          "indexed": false,
          "internalType": "string",
          "name": "eventName",
          "type": "string"
        }
      ],
      "name": "RatClaimed",
      "type": "event"
    },
    {
      "anonymous": false,
      "inputs": [
        {
          "indexed": false,
          "internalType": "uint256",
          "name": "tokenId",
          "type": "uint256"
        },
        {
          "indexed": false,
          "internalType": "address",
          "name": "owner",
          "type": "address"
        },
        {
          "indexed": false,
          "internalType": "uint256",
          "name": "value",
          "type": "uint256"
        }
      ],
      "name": "TokenStaked",
      "type": "event"
    },
    {
      "anonymous": false,
      "inputs": [
        {
          "indexed": false,
          "internalType": "address",
          "name": "account",
          "type": "address"
        }
      ],
      "name": "Unpaused",
      "type": "event"
    },
    {
      "inputs": [],
      "name": "accrualPeriod",
      "outputs": [
        {
          "internalType": "uint256",
          "name": "",
          "type": "uint256"
        }
      ],
      "stateMutability": "view",
      "type": "function",
      "constant": true
    },
    {
      "inputs": [],
      "name": "chefEfficiencyMultiplier",
      "outputs": [
        {
          "internalType": "uint8",
          "name": "",
          "type": "uint8"
        }
      ],
      "stateMutability": "view",
      "type": "function",
      "constant": true
    },
    {
      "inputs": [
        {
          "internalType": "uint256",
          "name": "",
          "type": "uint256"
        }
      ],
      "name": "chefs",
      "outputs": [
        {
          "internalType": "uint256",
          "name": "tokenId",
          "type": "uint256"
        },
        {
          "internalType": "address",
          "name": "owner",
          "type": "address"
        },
        {
          "internalType": "uint80",
          "name": "value",
          "type": "uint80"
        },
        {
          "internalType": "uint80",
          "name": "timestamp",
          "type": "uint80"
        }
      ],
      "stateMutability": "view",
      "type": "function",
      "constant": true
    },
    {
      "inputs": [
        {
          "internalType": "uint16[]",
          "name": "tokenIds",
          "type": "uint16[]"
        },
        {
          "internalType": "bool",
          "name": "unstake",
          "type": "bool"
        }
      ],
      "name": "claimMany",
      "outputs": [],
      "stateMutability": "nonpayable",
      "type": "function"
    },
    {
      "inputs": [],
      "name": "dailyChefEarnings",
      "outputs": [
        {
          "internalType": "uint256",
          "name": "",
          "type": "uint256"
        }
      ],
      "stateMutability": "view",
      "type": "function",
      "constant": true
    },
    {
      "inputs": [],
      "name": "dailyFatnessRate",
      "outputs": [
        {
          "internalType": "int8",
          "name": "",
          "type": "int8"
        }
      ],
      "stateMutability": "view",
      "type": "function",
      "constant": true
    },
    {
      "inputs": [],
      "name": "dailyInsanityRate",
      "outputs": [
        {
          "internalType": "int8",
          "name": "",
          "type": "int8"
        }
      ],
      "stateMutability": "view",
      "type": "function",
      "constant": true
    },
    {
      "inputs": [],
      "name": "dailyIntelligenceRate",
      "outputs": [
        {
          "internalType": "int8",
          "name": "",
          "type": "int8"
        }
      ],
      "stateMutability": "view",
      "type": "function",
      "constant": true
    },
    {
      "inputs": [],
      "name": "dailySkillRate",
      "outputs": [
        {
          "internalType": "int8",
          "name": "",
          "type": "int8"
        }
      ],
      "stateMutability": "view",
      "type": "function",
      "constant": true
    },
    {
      "inputs": [],
      "name": "foodTokenMaxSupply",
      "outputs": [
        {
          "internalType": "uint256",
          "name": "",
          "type": "uint256"
        }
      ],
      "stateMutability": "view",
      "type": "function",
      "constant": true
    },
    {
      "inputs": [],
      "name": "foodTokensPerRat",
      "outputs": [
        {
          "internalType": "uint256",
          "name": "",
          "type": "uint256"
        }
      ],
      "stateMutability": "view",
      "type": "function",
      "constant": true
    },
    {
      "inputs": [
        {
          "internalType": "uint256",
          "name": "tokenId",
          "type": "uint256"
        }
      ],
      "name": "getProperties",
      "outputs": [
        {
          "internalType": "uint8",
          "name": "efficiency",
          "type": "uint8"
        },
        {
          "internalType": "uint8",
          "name": "tolerance",
          "type": "uint8"
        }
      ],
      "stateMutability": "view",
      "type": "function",
      "constant": true
    },
    {
      "inputs": [
        {
          "internalType": "uint256",
          "name": "tokenId",
          "type": "uint256"
        }
      ],
      "name": "isChef",
      "outputs": [
        {
          "internalType": "bool",
          "name": "chef",
          "type": "bool"
        }
      ],
      "stateMutability": "view",
      "type": "function",
      "constant": true
    },
    {
      "inputs": [],
      "name": "lastClaimTimestamp",
      "outputs": [
        {
          "internalType": "uint256",
          "name": "",
          "type": "uint256"
        }
      ],
      "stateMutability": "view",
      "type": "function",
      "constant": true
    },
    {
      "inputs": [
        {
          "internalType": "address",
          "name": "",
          "type": "address"
        },
        {
          "internalType": "address",
          "name": "from",
          "type": "address"
        },
        {
          "internalType": "uint256",
          "name": "",
          "type": "uint256"
        },
        {
          "internalType": "bytes",
          "name": "",
          "type": "bytes"
        }
      ],
      "name": "onERC721Received",
      "outputs": [
        {
          "internalType": "bytes4",
          "name": "",
          "type": "bytes4"
        }
      ],
      "stateMutability": "pure",
      "type": "function",
      "constant": true
    },
    {
      "inputs": [],
      "name": "owner",
      "outputs": [
        {
          "internalType": "address",
          "name": "",
          "type": "address"
        }
      ],
      "stateMutability": "view",
      "type": "function",
      "constant": true
    },
    {
      "inputs": [],
      "name": "paused",
      "outputs": [
        {
          "internalType": "bool",
          "name": "",
          "type": "bool"
        }
      ],
      "stateMutability": "view",
      "type": "function",
      "constant": true
    },
    {
      "inputs": [],
      "name": "ratEfficiencyMultiplier",
      "outputs": [
        {
          "internalType": "int256",
          "name": "",
          "type": "int256"
        }
      ],
      "stateMutability": "view",
      "type": "function",
      "constant": true
    },
    {
      "inputs": [],
      "name": "ratEfficiencyOffset",
      "outputs": [
        {
          "internalType": "int256",
          "name": "",
          "type": "int256"
        }
      ],
      "stateMutability": "view",
      "type": "function",
      "constant": true
    },
    {
      "inputs": [],
      "name": "ratTheftPercentage",
      "outputs": [
        {
          "internalType": "uint256",
          "name": "",
          "type": "uint256"
        }
      ],
      "stateMutability": "view",
      "type": "function",
      "constant": true
    },
    {
      "inputs": [
        {
          "internalType": "uint256",
          "name": "",
          "type": "uint256"
        }
      ],
      "name": "rats",
      "outputs": [
        {
          "internalType": "uint256",
          "name": "tokenId",
          "type": "uint256"
        },
        {
          "internalType": "address",
          "name": "owner",
          "type": "address"
        },
        {
          "internalType": "uint80",
          "name": "value",
          "type": "uint80"
        },
        {
          "internalType": "uint80",
          "name": "timestamp",
          "type": "uint80"
        }
      ],
      "stateMutability": "view",
      "type": "function",
      "constant": true
    },
    {
      "inputs": [],
      "name": "renounceOwnership",
      "outputs": [],
      "stateMutability": "nonpayable",
      "type": "function"
    },
    {
      "inputs": [
        {
          "internalType": "address",
          "name": "account",
          "type": "address"
        },
        {
          "internalType": "uint16[]",
          "name": "tokenIds",
          "type": "uint16[]"
        }
      ],
      "name": "stakeMany",
      "outputs": [],
      "stateMutability": "nonpayable",
      "type": "function"
    },
    {
      "inputs": [
        {
          "internalType": "address",
          "name": "",
          "type": "address"
        },
        {
          "internalType": "uint256",
          "name": "",
          "type": "uint256"
        }
      ],
      "name": "stakers",
      "outputs": [
        {
          "internalType": "uint256",
          "name": "",
          "type": "uint256"
        }
      ],
      "stateMutability": "view",
      "type": "function",
      "constant": true
    },
    {
      "inputs": [],
      "name": "totalChefsStaked",
      "outputs": [
        {
          "internalType": "uint256",
          "name": "",
          "type": "uint256"
        }
      ],
      "stateMutability": "view",
      "type": "function",
      "constant": true
    },
    {
      "inputs": [],
      "name": "totalFoodTokensEarned",
      "outputs": [
        {
          "internalType": "uint256",
          "name": "",
          "type": "uint256"
        }
      ],
      "stateMutability": "view",
      "type": "function",
      "constant": true
    },
    {
      "inputs": [],
      "name": "totalRatsStaked",
      "outputs": [
        {
          "internalType": "uint256",
          "name": "",
          "type": "uint256"
        }
      ],
      "stateMutability": "view",
      "type": "function",
      "constant": true
    },
    {
      "inputs": [
        {
          "internalType": "address",
          "name": "newOwner",
          "type": "address"
        }
      ],
      "name": "transferOwnership",
      "outputs": [],
      "stateMutability": "nonpayable",
      "type": "function"
    },
    {
      "inputs": [],
      "name": "unaccountedRewards",
      "outputs": [
        {
          "internalType": "uint256",
          "name": "",
          "type": "uint256"
        }
      ],
      "stateMutability": "view",
      "type": "function",
      "constant": true
    },
    {
      "inputs": [],
      "name": "vestingPeriod",
      "outputs": [
        {
          "internalType": "uint256",
          "name": "",
          "type": "uint256"
        }
      ],
      "stateMutability": "view",
      "type": "function",
      "constant": true
    },
    {
      "inputs": [],
      "name": "initialize",
      "outputs": [],
      "stateMutability": "nonpayable",
      "type": "function"
    },
    {
      "inputs": [
        {
          "internalType": "address",
          "name": "_character",
          "type": "address"
        },
        {
          "internalType": "uint256",
          "name": "_accrualPeriod",
          "type": "uint256"
        }
      ],
      "name": "initialize",
      "outputs": [],
      "stateMutability": "nonpayable",
      "type": "function"
    },
    {
      "inputs": [
        {
          "internalType": "address",
          "name": "_character",
          "type": "address"
        },
        {
          "internalType": "address",
          "name": "_foodToken",
          "type": "address"
        },
        {
          "internalType": "address",
          "name": "_kitchenShop",
          "type": "address"
        },
        {
          "internalType": "uint256",
          "name": "_foodTokenMaxSupply",
          "type": "uint256"
        },
        {
          "internalType": "uint256[]",
          "name": "_earningSettings",
          "type": "uint256[]"
        },
        {
          "internalType": "int8[]",
          "name": "_propertyIncrements",
          "type": "int8[]"
        },
        {
          "internalType": "uint8",
          "name": "_minEfficiency",
          "type": "uint8"
        },
        {
          "internalType": "uint8",
          "name": "_charactersPerKitchen",
          "type": "uint8"
        },
        {
          "internalType": "uint8",
          "name": "_chefEfficiencyMultiplier",
          "type": "uint8"
        },
        {
          "internalType": "int256",
          "name": "_ratEfficiencyMultiplier",
          "type": "int256"
        },
        {
          "internalType": "int256",
          "name": "_ratEfficiencyOffset",
          "type": "int256"
        }
      ],
      "name": "initialize",
      "outputs": [],
      "stateMutability": "nonpayable",
      "type": "function"
    }
  ],
  "bytecode": "0x608060405234801561001057600080fd5b50614e35806100206000396000f3fe608060405234801561001057600080fd5b50600436106101fb5760003560e01c80638da5cb5b1161011a578063cd6dc687116100ad578063e3cb5fbc1161007c578063e3cb5fbc1461057b578063ef9f800f14610597578063f2666746146105c7578063f2fde38b146105e5578063f666415514610601576101fb565b8063cd6dc68714610507578063d7178ac614610523578063d8dda92e14610541578063dbdc1f6b1461055f576101fb565b8063bdb62941116100e9578063bdb629411461047d578063c0c472c01461049b578063c8b6cbf7146104b9578063cba88af8146104e9576101fb565b80638da5cb5b1461040757806391ba3f3f14610425578063a262c0ad14610443578063a7a1029014610461576101fb565b806335ec066e11610192578063607af39711610161578063607af397146103b7578063715018a6146103d55780637313ee5a146103df5780638129fc1c146103fd576101fb565b806335ec066e14610315578063499f8010146103485780634d1c61af146103665780635c975abb14610399576101fb565b80631b8ca217116101ce5780631b8ca2171461028a5780632535a77f146102bb5780632d79320b146102d95780632e2ce28b146102f7576101fb565b806310d53df114610200578063138e6ad51461021e578063150b7a021461023c5780631b4d47a11461026c575b600080fd5b61020861061f565b604051610215919061349c565b60405180910390f35b610226610632565b60405161023391906134d0565b60405180910390f35b610256600480360381019061025191906135f8565b610638565b60405161026391906136bb565b60405180910390f35b6102746106bb565b60405161028191906136e5565b60405180910390f35b6102a4600480360381019061029f9190613700565b6106c1565b6040516102b2929190613749565b60405180910390f35b6102c36107a2565b6040516102d091906136e5565b60405180910390f35b6102e16107a8565b6040516102ee9190613772565b60405180910390f35b6102ff6107bb565b60405161030c91906136e5565b60405180910390f35b61032f600480360381019061032a9190613700565b6107c1565b60405161033f94939291906137c1565b60405180910390f35b61035061083d565b60405161035d91906136e5565b60405180910390f35b610380600480360381019061037b9190613700565b610843565b60405161039094939291906137c1565b60405180910390f35b6103a16108bf565b6040516103ae9190613821565b60405180910390f35b6103bf6108d6565b6040516103cc91906136e5565b60405180910390f35b6103dd6108dc565b005b6103e7610964565b6040516103f491906136e5565b60405180910390f35b61040561096a565b005b61040f610a5e565b60405161041c919061383c565b60405180910390f35b61042d610a88565b60405161043a91906136e5565b60405180910390f35b61044b610a8e565b604051610458919061349c565b60405180910390f35b61047b600480360381019061047691906138d9565b610aa1565b005b610485610e78565b604051610492919061349c565b60405180910390f35b6104a3610e8b565b6040516104b091906136e5565b60405180910390f35b6104d360048036038101906104ce9190613939565b610e91565b6040516104e091906136e5565b60405180910390f35b6104f1610ec2565b6040516104fe919061349c565b60405180910390f35b610521600480360381019061051c9190613939565b610ed5565b005b61052b61108f565b60405161053891906134d0565b60405180910390f35b610549611095565b60405161055691906136e5565b60405180910390f35b61057960048036038101906105749190613979565b61109b565b005b61059560048036038101906105909190613c6f565b611620565b005b6105b160048036038101906105ac9190613700565b611a0e565b6040516105be9190613821565b60405180910390f35b6105cf611ae3565b6040516105dc91906136e5565b60405180910390f35b6105ff60048036038101906105fa9190613d9b565b611ae9565b005b610609611be1565b60405161061691906136e5565b60405180910390f35b609b60009054906101000a900460000b81565b60a85481565b60008073ffffffffffffffffffffffffffffffffffffffff168573ffffffffffffffffffffffffffffffffffffffff16146106a8576040517f08c379a000000000000000000000000000000000000000000000000000000000815260040161069f90613e4b565b60405180910390fd5b63150b7a0260e01b905095945050505050565b60a15481565b600080609760009054906101000a900473ffffffffffffffffffffffffffffffffffffffff1673ffffffffffffffffffffffffffffffffffffffff1663e05c57bf846040518263ffffffff1660e01b815260040161071f91906136e5565b61014060405180830381865afa15801561073d573d6000803e3d6000fd5b505050506040513d601f19601f820116820180604052508101906107619190613e95565b909192939495969798509091929394959697509091929394959650909192939495509091929394509091929350909192509091508092508193505050915091565b609f5481565b60a760009054906101000a900460ff1681565b60a35481565b60996020528060005260406000206000915090508060000154908060010160009054906101000a900473ffffffffffffffffffffffffffffffffffffffff16908060010160149054906101000a900469ffffffffffffffffffff16908060020160009054906101000a900469ffffffffffffffffffff16905084565b609d5481565b60986020528060005260406000206000915090508060000154908060010160009054906101000a900473ffffffffffffffffffffffffffffffffffffffff16908060010160149054906101000a900469ffffffffffffffffffff16908060020160009054906101000a900469ffffffffffffffffffff16905084565b6000606560009054906101000a900460ff16905090565b60a65481565b6108e4611be7565b73ffffffffffffffffffffffffffffffffffffffff16610902610a5e565b73ffffffffffffffffffffffffffffffffffffffff1614610958576040517f08c379a000000000000000000000000000000000000000000000000000000000815260040161094f90613fc0565b60405180910390fd5b6109626000611bef565b565b60a05481565b600060019054906101000a900460ff166109925760008054906101000a900460ff161561099b565b61099a611cb5565b5b6109da576040517f08c379a00000000000000000000000000000000000000000000000000000000081526004016109d190614052565b60405180910390fd5b60008060019054906101000a900460ff161590508015610a2a576001600060016101000a81548160ff02191690831515021790555060016000806101000a81548160ff0219169083151502179055505b610a32611cc6565b610a3a611d27565b8015610a5b5760008060016101000a81548160ff0219169083151502179055505b50565b6000603360009054906101000a900473ffffffffffffffffffffffffffffffffffffffff16905090565b60a25481565b609b60029054906101000a900460000b81565b610aa96108bf565b15610ae9576040517f08c379a0000000000000000000000000000000000000000000000000000000008152600401610ae0906140be565b60405180910390fd5b6000610af3611be7565b90506000805b85859050811015610e5d576000610b106000611d88565b9050610b46878784818110610b2857610b276140de565b5b9050602002016020810190610b3d9190614147565b61ffff16611a0e565b15610b9d57610b8b878784818110610b6157610b606140de565b5b9050602002016020810190610b769190614147565b61ffff16821580610b845750865b8315611ebc565b83610b9691906141a3565b9250610beb565b610bdd878784818110610bb357610bb26140de565b5b9050602002016020810190610bc89190614147565b61ffff16821580610bd65750865b8315612381565b83610be891906141a3565b92505b60005b609a60008673ffffffffffffffffffffffffffffffffffffffff1673ffffffffffffffffffffffffffffffffffffffff16815260200190815260200160002080549050811015610e4857878784818110610c4b57610c4a6140de565b5b9050602002016020810190610c609190614147565b61ffff16609a60008773ffffffffffffffffffffffffffffffffffffffff1673ffffffffffffffffffffffffffffffffffffffff1681526020019081526020016000208281548110610cb557610cb46140de565b5b90600052602060002001541415610e3557609a60008673ffffffffffffffffffffffffffffffffffffffff1673ffffffffffffffffffffffffffffffffffffffff1681526020019081526020016000206001609a60008873ffffffffffffffffffffffffffffffffffffffff1673ffffffffffffffffffffffffffffffffffffffff16815260200190815260200160002080549050610d5491906141f9565b81548110610d6557610d646140de565b5b9060005260206000200154609a60008773ffffffffffffffffffffffffffffffffffffffff1673ffffffffffffffffffffffffffffffffffffffff1681526020019081526020016000208281548110610dc157610dc06140de565b5b9060005260206000200181905550609a60008673ffffffffffffffffffffffffffffffffffffffff1673ffffffffffffffffffffffffffffffffffffffff168152602001908152602001600020805480610e1e57610e1d61422d565b5b600190038181906000526020600020016000905590555b8080610e409061425c565b915050610bee565b50508080610e559061425c565b915050610af9565b506000811115610e7157610e7081612849565b5b5050505050565b609b60019054906101000a900460000b81565b60a45481565b609a6020528160005260406000208181548110610ead57600080fd5b90600052602060002001600091509150505481565b609b60039054906101000a900460000b81565b600060019054906101000a900460ff16610efd5760008054906101000a900460ff1615610f06565b610f05611cb5565b5b610f45576040517f08c379a0000000000000000000000000000000000000000000000000000000008152600401610f3c90614052565b60405180910390fd5b60008060019054906101000a900460ff161590508015610f95576001600060016101000a81548160ff02191690831515021790555060016000806101000a81548160ff0219169083151502179055505b610f9d611cc6565b610fa5611d27565b82609760006101000a81548173ffffffffffffffffffffffffffffffffffffffff021916908373ffffffffffffffffffffffffffffffffffffffff16021790555081609e819055506000609b60006101000a81548160ff021916908360000b60ff1602179055506000609b60016101000a81548160ff021916908360000b60ff1602179055506000609b60026101000a81548160ff021916908360000b60ff1602179055506000609b60036101000a81548160ff021916908360000b60ff160217905550801561108a5760008060016101000a81548160ff0219169083151502179055505b505050565b60a95481565b60a55481565b6110a3611be7565b73ffffffffffffffffffffffffffffffffffffffff168373ffffffffffffffffffffffffffffffffffffffff1614806111305750609760009054906101000a900473ffffffffffffffffffffffffffffffffffffffff1673ffffffffffffffffffffffffffffffffffffffff16611118611be7565b73ffffffffffffffffffffffffffffffffffffffff16145b61116f576040517f08c379a0000000000000000000000000000000000000000000000000000000008152600401611166906142f1565b60405180910390fd5b61117b82829050611d88565b6111ba576040517f08c379a00000000000000000000000000000000000000000000000000000000081526004016111b19061435d565b60405180910390fd5b60005b8282905081101561161a57609760009054906101000a900473ffffffffffffffffffffffffffffffffffffffff1673ffffffffffffffffffffffffffffffffffffffff16611209611be7565b73ffffffffffffffffffffffffffffffffffffffff161461141f5761122c611be7565b73ffffffffffffffffffffffffffffffffffffffff16609760009054906101000a900473ffffffffffffffffffffffffffffffffffffffff1673ffffffffffffffffffffffffffffffffffffffff16636352211e858585818110611293576112926140de565b5b90506020020160208101906112a89190614147565b6040518263ffffffff1660e01b81526004016112c491906143b8565b602060405180830381865afa1580156112e1573d6000803e3d6000fd5b505050506040513d601f19601f8201168201806040525081019061130591906143e8565b73ffffffffffffffffffffffffffffffffffffffff161461135b576040517f08c379a000000000000000000000000000000000000000000000000000000000815260040161135290614461565b60405180910390fd5b609760009054906101000a900473ffffffffffffffffffffffffffffffffffffffff1673ffffffffffffffffffffffffffffffffffffffff166323b872dd6113a1611be7565b308686868181106113b5576113b46140de565b5b90506020020160208101906113ca9190614147565b6040518463ffffffff1660e01b81526004016113e893929190614481565b600060405180830381600087803b15801561140257600080fd5b505af1158015611416573d6000803e3d6000fd5b50505050611459565b6000838383818110611434576114336140de565b5b90506020020160208101906114499190614147565b61ffff16141561145857611607565b5b61148d83838381811061146f5761146e6140de565b5b90506020020160208101906114849190614147565b61ffff166128e2565b6114cc576040517f08c379a00000000000000000000000000000000000000000000000000000000081526004016114c390614504565b60405180910390fd5b6115008383838181106114e2576114e16140de565b5b90506020020160208101906114f79190614147565b61ffff16611a0e565b1561153f5761153a8484848481811061151c5761151b6140de565b5b90506020020160208101906115319190614147565b61ffff16612912565b611575565b61157484848484818110611556576115556140de565b5b905060200201602081019061156b9190614147565b61ffff16612ad1565b5b609a60008573ffffffffffffffffffffffffffffffffffffffff1673ffffffffffffffffffffffffffffffffffffffff1681526020019081526020016000208383838181106115c7576115c66140de565b5b90506020020160208101906115dc9190614147565b908060018154018082558091505060019003906000526020600020016000909161ffff169091909150555b80806116129061425c565b9150506111bd565b50505050565b600060019054906101000a900460ff166116485760008054906101000a900460ff1615611651565b611650611cb5565b5b611690576040517f08c379a000000000000000000000000000000000000000000000000000000000815260040161168790614052565b60405180910390fd5b60008060019054906101000a900460ff1615905080156116e0576001600060016101000a81548160ff02191690831515021790555060016000806101000a81548160ff0219169083151502179055505b6116e8611cc6565b6116f0611d27565b600060a4819055506000609f81905550600060a681905550600160aa60146101000a81548160ff021916908360ff1602179055508b609760006101000a81548173ffffffffffffffffffffffffffffffffffffffff021916908373ffffffffffffffffffffffffffffffffffffffff1602179055508a60ab60006101000a81548173ffffffffffffffffffffffffffffffffffffffff021916908373ffffffffffffffffffffffffffffffffffffffff1602179055508960aa60006101000a81548173ffffffffffffffffffffffffffffffffffffffff021916908373ffffffffffffffffffffffffffffffffffffffff160217905550670de0b6b3a7640000896117fb9190614524565b60a181905550670de0b6b3a76400008860008151811061181e5761181d6140de565b5b60200260200101516118309190614524565b60a2819055508760018151811061184a576118496140de565b5b602002602001015160a3819055508760028151811061186c5761186b6140de565b5b602002602001015160a0819055508760038151811061188e5761188d6140de565b5b6020026020010151609e81905550866000815181106118b0576118af6140de565b5b6020026020010151609b60006101000a81548160ff021916908360000b60ff160217905550866001815181106118e9576118e86140de565b5b6020026020010151609b60016101000a81548160ff021916908360000b60ff16021790555086600281518110611922576119216140de565b5b6020026020010151609b60026101000a81548160ff021916908360000b60ff1602179055508660038151811061195b5761195a6140de565b5b6020026020010151609b60036101000a81548160ff021916908360000b60ff1602179055508560aa60166101000a81548160ff021916908360ff1602179055508460aa60156101000a81548160ff021916908360ff1602179055508360a760006101000a81548160ff021916908360ff1602179055508260a8819055508160a9819055508015611a005760008060016101000a81548160ff0219169083151502179055505b505050505050505050505050565b6000609760009054906101000a900473ffffffffffffffffffffffffffffffffffffffff1673ffffffffffffffffffffffffffffffffffffffff1663e05c57bf836040518263ffffffff1660e01b8152600401611a6b91906136e5565b61014060405180830381865afa158015611a89573d6000803e3d6000fd5b505050506040513d601f19601f82011682018060405250810190611aad9190613e95565b90919293949596975090919293949596509091929394955090919293945090919293509091925090915090505080915050919050565b609c5481565b611af1611be7565b73ffffffffffffffffffffffffffffffffffffffff16611b0f610a5e565b73ffffffffffffffffffffffffffffffffffffffff1614611b65576040517f08c379a0000000000000000000000000000000000000000000000000000000008152600401611b5c90613fc0565b60405180910390fd5b600073ffffffffffffffffffffffffffffffffffffffff168173ffffffffffffffffffffffffffffffffffffffff161415611bd5576040517f08c379a0000000000000000000000000000000000000000000000000000000008152600401611bcc906145f0565b60405180910390fd5b611bde81611bef565b50565b609e5481565b600033905090565b6000603360009054906101000a900473ffffffffffffffffffffffffffffffffffffffff16905081603360006101000a81548173ffffffffffffffffffffffffffffffffffffffff021916908373ffffffffffffffffffffffffffffffffffffffff1602179055508173ffffffffffffffffffffffffffffffffffffffff168173ffffffffffffffffffffffffffffffffffffffff167f8be0079c531659141344cd1fd0a4f28419497f9722a3daafe3b4186f6b6457e060405160405180910390a35050565b6000611cc030612c99565b15905090565b600060019054906101000a900460ff16611d15576040517f08c379a0000000000000000000000000000000000000000000000000000000008152600401611d0c90614682565b60405180910390fd5b611d1d612cac565b611d25612cfd565b565b600060019054906101000a900460ff16611d76576040517f08c379a0000000000000000000000000000000000000000000000000000000008152600401611d6d90614682565b60405180910390fd5b611d7e612cac565b611d86612d5e565b565b600080611d93611be7565b9050600060aa60009054906101000a900473ffffffffffffffffffffffffffffffffffffffff1673ffffffffffffffffffffffffffffffffffffffff1662fdd58e8360aa60149054906101000a900460ff166040518363ffffffff1660e01b8152600401611e029291906146d3565b602060405180830381865afa158015611e1f573d6000803e3d6000fd5b505050506040513d601f19601f82011682018060405250810190611e439190614711565b905083609a60008473ffffffffffffffffffffffffffffffffffffffff1673ffffffffffffffffffffffffffffffffffffffff16815260200190815260200160002080549050611e9391906141a3565b60aa60159054906101000a900460ff1660ff1682611eb19190614524565b101592505050919050565b60008060986000868152602001908152602001600020604051806080016040529081600082015481526020016001820160009054906101000a900473ffffffffffffffffffffffffffffffffffffffff1673ffffffffffffffffffffffffffffffffffffffff1673ffffffffffffffffffffffffffffffffffffffff1681526020016001820160149054906101000a900469ffffffffffffffffffff1669ffffffffffffffffffff1669ffffffffffffffffffff1681526020016002820160009054906101000a900469ffffffffffffffffffff1669ffffffffffffffffffff1669ffffffffffffffffffff16815250509050611fb7611be7565b73ffffffffffffffffffffffffffffffffffffffff16816020015173ffffffffffffffffffffffffffffffffffffffff1614612028576040517f08c379a000000000000000000000000000000000000000000000000000000000815260040161201f90614461565b60405180910390fd5b838015612051575060a054816060015169ffffffffffffffffffff164261204f91906141f9565b105b15612091576040517f08c379a00000000000000000000000000000000000000000000000000000000081526004016120889061478a565b60405180910390fd5b826120a45761209f81612dca565b6120a7565b60005b915060008060006120b788612f18565b9250925092506120c6886128e2565b6120cf57600196505b861561220957609760009054906101000a900473ffffffffffffffffffffffffffffffffffffffff1673ffffffffffffffffffffffffffffffffffffffff1663b88d4fde3061211c611be7565b8b6040518463ffffffff1660e01b815260040161213b939291906147e1565b600060405180830381600087803b15801561215557600080fd5b505af1158015612169573d6000803e3d6000fd5b50505050609860008981526020019081526020016000206000808201600090556001820160006101000a81549073ffffffffffffffffffffffffffffffffffffffff02191690556001820160146101000a81549069ffffffffffffffffffff02191690556002820160006101000a81549069ffffffffffffffffffff02191690555050609c60008154809291906121ff9061482b565b9190505550612331565b60405180608001604052808961ffff168152602001612226611be7565b73ffffffffffffffffffffffffffffffffffffffff1681526020014269ffffffffffffffffffff1681526020014269ffffffffffffffffffff16815250609860008a81526020019081526020016000206000820151816000015560208201518160010160006101000a81548173ffffffffffffffffffffffffffffffffffffffff021916908373ffffffffffffffffffffffffffffffffffffffff16021790555060408201518160010160146101000a81548169ffffffffffffffffffff021916908369ffffffffffffffffffff16021790555060608201518160020160006101000a81548169ffffffffffffffffffff021916908369ffffffffffffffffffff1602179055509050505b7f9b394c66bc4fdb2f56f5842a796076e6552d6f15eaacb6e63e3c53b474d872e9888689868686609f5460405161236e97969594939291906148cc565b60405180910390a1505050509392505050565b60008060996000868152602001908152602001600020604051806080016040529081600082015481526020016001820160009054906101000a900473ffffffffffffffffffffffffffffffffffffffff1673ffffffffffffffffffffffffffffffffffffffff1673ffffffffffffffffffffffffffffffffffffffff1681526020016001820160149054906101000a900469ffffffffffffffffffff1669ffffffffffffffffffff1669ffffffffffffffffffff1681526020016002820160009054906101000a900469ffffffffffffffffffff1669ffffffffffffffffffff1669ffffffffffffffffffff1681525050905061247c611be7565b73ffffffffffffffffffffffffffffffffffffffff16816020015173ffffffffffffffffffffffffffffffffffffffff16146124ed576040517f08c379a00000000000000000000000000000000000000000000000000000000081526004016124e490614461565b60405180910390fd5b838015612516575060a054816060015169ffffffffffffffffffff164261251491906141f9565b105b15612556576040517f08c379a000000000000000000000000000000000000000000000000000000000815260040161254d9061478a565b60405180910390fd5b82612569576125648161326a565b61256c565b60005b9150600080600061257c88612f18565b92509250925061258b886128e2565b61259457600196505b86156126ce57609760009054906101000a900473ffffffffffffffffffffffffffffffffffffffff1673ffffffffffffffffffffffffffffffffffffffff1663b88d4fde306125e1611be7565b8b6040518463ffffffff1660e01b8152600401612600939291906147e1565b600060405180830381600087803b15801561261a57600080fd5b505af115801561262e573d6000803e3d6000fd5b50505050609960008981526020019081526020016000206000808201600090556001820160006101000a81549073ffffffffffffffffffffffffffffffffffffffff02191690556001820160146101000a81549069ffffffffffffffffffff02191690556002820160006101000a81549069ffffffffffffffffffff02191690555050609d60008154809291906126c49061482b565b91905055506127fd565b60405180608001604052808961ffff1681526020016126eb611be7565b73ffffffffffffffffffffffffffffffffffffffff16815260200161270e61337e565b69ffffffffffffffffffff1681526020014269ffffffffffffffffffff16815250609960008a81526020019081526020016000206000820151816000015560208201518160010160006101000a81548173ffffffffffffffffffffffffffffffffffffffff021916908373ffffffffffffffffffffffffffffffffffffffff16021790555060408201518160010160146101000a81548169ffffffffffffffffffff021916908369ffffffffffffffffffff16021790555060608201518160020160006101000a81548169ffffffffffffffffffff021916908369ffffffffffffffffffff1602179055509050505b7f6e949c62565860afb9dd6295e998a1c40005fe9560aedf8d596717681cfc7a1f88868986868660405161283696959493929190614942565b60405180910390a1505050509392505050565b60ab60009054906101000a900473ffffffffffffffffffffffffffffffffffffffff1673ffffffffffffffffffffffffffffffffffffffff166340c10f1961288f611be7565b836040518363ffffffff1660e01b81526004016128ad9291906149aa565b600060405180830381600087803b1580156128c757600080fd5b505af11580156128db573d6000803e3d6000fd5b5050505050565b6000806128ee836106c1565b50905060aa60169054906101000a900460ff1660ff168160ff161015915050919050565b61291a6108bf565b1561295a576040517f08c379a0000000000000000000000000000000000000000000000000000000008152600401612951906140be565b60405180910390fd5b60405180608001604052808261ffff1681526020018373ffffffffffffffffffffffffffffffffffffffff1681526020014269ffffffffffffffffffff1681526020014269ffffffffffffffffffff16815250609860008381526020019081526020016000206000820151816000015560208201518160010160006101000a81548173ffffffffffffffffffffffffffffffffffffffff021916908373ffffffffffffffffffffffffffffffffffffffff16021790555060408201518160010160146101000a81548169ffffffffffffffffffff021916908369ffffffffffffffffffff16021790555060608201518160020160006101000a81548169ffffffffffffffffffff021916908369ffffffffffffffffffff160217905550905050609c6000815480929190612a8d9061425c565b91905055507f8af1bb49fb16c7835975aa59449ba4328dd54737dfb2ae9fa6c5eca71fda51f9818342604051612ac5939291906149d3565b60405180910390a15050565b612ad96108bf565b15612b19576040517f08c379a0000000000000000000000000000000000000000000000000000000008152600401612b10906140be565b60405180910390fd5b60405180608001604052808261ffff1681526020018373ffffffffffffffffffffffffffffffffffffffff168152602001612b5261337e565b69ffffffffffffffffffff1681526020014269ffffffffffffffffffff16815250609960008381526020019081526020016000206000820151816000015560208201518160010160006101000a81548173ffffffffffffffffffffffffffffffffffffffff021916908373ffffffffffffffffffffffffffffffffffffffff16021790555060408201518160010160146101000a81548169ffffffffffffffffffff021916908369ffffffffffffffffffff16021790555060608201518160020160006101000a81548169ffffffffffffffffffff021916908369ffffffffffffffffffff160217905550905050609d6000815480929190612c539061425c565b91905055507f8af1bb49fb16c7835975aa59449ba4328dd54737dfb2ae9fa6c5eca71fda51f98183609f54604051612c8d939291906149d3565b60405180910390a15050565b600080823b905060008111915050919050565b600060019054906101000a900460ff16612cfb576040517f08c379a0000000000000000000000000000000000000000000000000000000008152600401612cf290614682565b60405180910390fd5b565b600060019054906101000a900460ff16612d4c576040517f08c379a0000000000000000000000000000000000000000000000000000000008152600401612d4390614682565b60405180910390fd5b612d5c612d57611be7565b611bef565b565b600060019054906101000a900460ff16612dad576040517f08c379a0000000000000000000000000000000000000000000000000000000008152600401612da490614682565b60405180910390fd5b6000606560006101000a81548160ff021916908315150217905550565b600080612dda83600001516106c1565b5090506000609e5460a254856040015169ffffffffffffffffffff1642612e0191906141f9565b612e0b9190614524565b612e159190614a39565b90506000600a60a760009054906101000a900460ff1660ff168460ff16612e3c9190614524565b612e469190614524565b620186a0612e5491906141a3565b9050620186a08183612e669190614524565b612e709190614a39565b935060a1548460a554612e8391906141a3565b1115612e9c5760a55460a154612e9991906141f9565b93505b6000841115612f10574260a681905550612ece606460a35486612ebf9190614524565b612ec99190614a39565b613388565b606460a3546064612edf91906141f9565b85612eea9190614524565b612ef49190614a39565b93508360a56000828254612f0891906141a3565b925050819055505b505050919050565b6000806060600060986000868152602001908152602001600020604051806080016040529081600082015481526020016001820160009054906101000a900473ffffffffffffffffffffffffffffffffffffffff1673ffffffffffffffffffffffffffffffffffffffff1673ffffffffffffffffffffffffffffffffffffffff1681526020016001820160149054906101000a900469ffffffffffffffffffff1669ffffffffffffffffffff1669ffffffffffffffffffff1681526020016002820160009054906101000a900469ffffffffffffffffffff1669ffffffffffffffffffff1669ffffffffffffffffffff16815250509050600060996000878152602001908152602001600020604051806080016040529081600082015481526020016001820160009054906101000a900473ffffffffffffffffffffffffffffffffffffffff1673ffffffffffffffffffffffffffffffffffffffff1673ffffffffffffffffffffffffffffffffffffffff1681526020016001820160149054906101000a900469ffffffffffffffffffff1669ffffffffffffffffffff1669ffffffffffffffffffff1681526020016002820160009054906101000a900469ffffffffffffffffffff1669ffffffffffffffffffff1669ffffffffffffffffffff16815250509050600061310c87611a0e565b61311a578160600151613120565b82606001515b69ffffffffffffffffffff164261313791906141f9565b9050600061314488611a0e565b9050609760009054906101000a900473ffffffffffffffffffffffffffffffffffffffff1673ffffffffffffffffffffffffffffffffffffffff1663d8ffcfcb896131b9846131a257609b60029054906101000a900460000b6131b3565b609b60009054906101000a900460000b5b866133f0565b6131ed856131d657609b60039054906101000a900460000b6131e7565b609b60019054906101000a900460000b5b876133f0565b6040518463ffffffff1660e01b815260040161320b93929190614a6a565b6000604051808303816000875af115801561322a573d6000803e3d6000fd5b505050506040513d6000823e3d601f19601f820116820180604052508101906132539190614b47565b809750819850829950505050505050509193909250565b60008061327a83600001516106c1565b9150506000836040015169ffffffffffffffffffff16609f5461329d91906141f9565b905060006103e860a9546132b19190614bb6565b60646103e860a85460328760ff1611156132d7578660646132d29190614ccd565b6132d9565b865b60000b6132e69190614bb6565b6132f09190614bb6565b6132fa9190614d01565b6133049190614d6b565b9050620186a081836133169190614524565b6133209190614a39565b935060a1548460a55461333391906141a3565b111561334c5760a55460a15461334991906141f9565b93505b6000841115613376574260a6819055508360a5600082825461336e91906141a3565b925050819055505b505050919050565b6000609f54905090565b6000609d5414156133b1578060a460008282546133a591906141a3565b925050819055506133ed565b609d5460a454826133c291906141a3565b6133cc9190614a39565b609f60008282546133dd91906141a3565b92505081905550600060a4819055505b50565b600080609e548460000b846134059190614bb6565b61340f9190614d01565b9050606481131561342457606491505061347a565b7fffffffffffffffffffffffffffffffffffffffffffffffffffffffffffffff9c811215613475577fffffffffffffffffffffffffffffffffffffffffffffffffffffffffffffff9c91505061347a565b809150505b92915050565b60008160000b9050919050565b61349681613480565b82525050565b60006020820190506134b1600083018461348d565b92915050565b6000819050919050565b6134ca816134b7565b82525050565b60006020820190506134e560008301846134c1565b92915050565b6000604051905090565b600080fd5b600080fd5b600073ffffffffffffffffffffffffffffffffffffffff82169050919050565b600061352a826134ff565b9050919050565b61353a8161351f565b811461354557600080fd5b50565b60008135905061355781613531565b92915050565b6000819050919050565b6135708161355d565b811461357b57600080fd5b50565b60008135905061358d81613567565b92915050565b600080fd5b600080fd5b600080fd5b60008083601f8401126135b8576135b7613593565b5b8235905067ffffffffffffffff8111156135d5576135d4613598565b5b6020830191508360018202830111156135f1576135f061359d565b5b9250929050565b600080600080600060808688031215613614576136136134f5565b5b600061362288828901613548565b955050602061363388828901613548565b94505060406136448882890161357e565b935050606086013567ffffffffffffffff811115613665576136646134fa565b5b613671888289016135a2565b92509250509295509295909350565b60007fffffffff0000000000000000000000000000000000000000000000000000000082169050919050565b6136b581613680565b82525050565b60006020820190506136d060008301846136ac565b92915050565b6136df8161355d565b82525050565b60006020820190506136fa60008301846136d6565b92915050565b600060208284031215613716576137156134f5565b5b60006137248482850161357e565b91505092915050565b600060ff82169050919050565b6137438161372d565b82525050565b600060408201905061375e600083018561373a565b61376b602083018461373a565b9392505050565b6000602082019050613787600083018461373a565b92915050565b6137968161351f565b82525050565b600069ffffffffffffffffffff82169050919050565b6137bb8161379c565b82525050565b60006080820190506137d660008301876136d6565b6137e3602083018661378d565b6137f060408301856137b2565b6137fd60608301846137b2565b95945050505050565b60008115159050919050565b61381b81613806565b82525050565b60006020820190506138366000830184613812565b92915050565b6000602082019050613851600083018461378d565b92915050565b60008083601f84011261386d5761386c613593565b5b8235905067ffffffffffffffff81111561388a57613889613598565b5b6020830191508360208202830111156138a6576138a561359d565b5b9250929050565b6138b681613806565b81146138c157600080fd5b50565b6000813590506138d3816138ad565b92915050565b6000806000604084860312156138f2576138f16134f5565b5b600084013567ffffffffffffffff8111156139105761390f6134fa565b5b61391c86828701613857565b9350935050602061392f868287016138c4565b9150509250925092565b600080604083850312156139505761394f6134f5565b5b600061395e85828601613548565b925050602061396f8582860161357e565b9150509250929050565b600080600060408486031215613992576139916134f5565b5b60006139a086828701613548565b935050602084013567ffffffffffffffff8111156139c1576139c06134fa565b5b6139cd86828701613857565b92509250509250925092565b6000601f19601f8301169050919050565b7f4e487b7100000000000000000000000000000000000000000000000000000000600052604160045260246000fd5b613a22826139d9565b810181811067ffffffffffffffff82111715613a4157613a406139ea565b5b80604052505050565b6000613a546134eb565b9050613a608282613a19565b919050565b600067ffffffffffffffff821115613a8057613a7f6139ea565b5b602082029050602081019050919050565b6000613aa4613a9f84613a65565b613a4a565b90508083825260208201905060208402830185811115613ac757613ac661359d565b5b835b81811015613af05780613adc888261357e565b845260208401935050602081019050613ac9565b5050509392505050565b600082601f830112613b0f57613b0e613593565b5b8135613b1f848260208601613a91565b91505092915050565b600067ffffffffffffffff821115613b4357613b426139ea565b5b602082029050602081019050919050565b613b5d81613480565b8114613b6857600080fd5b50565b600081359050613b7a81613b54565b92915050565b6000613b93613b8e84613b28565b613a4a565b90508083825260208201905060208402830185811115613bb657613bb561359d565b5b835b81811015613bdf5780613bcb8882613b6b565b845260208401935050602081019050613bb8565b5050509392505050565b600082601f830112613bfe57613bfd613593565b5b8135613c0e848260208601613b80565b91505092915050565b613c208161372d565b8114613c2b57600080fd5b50565b600081359050613c3d81613c17565b92915050565b613c4c816134b7565b8114613c5757600080fd5b50565b600081359050613c6981613c43565b92915050565b60008060008060008060008060008060006101608c8e031215613c9557613c946134f5565b5b6000613ca38e828f01613548565b9b50506020613cb48e828f01613548565b9a50506040613cc58e828f01613548565b9950506060613cd68e828f0161357e565b98505060808c013567ffffffffffffffff811115613cf757613cf66134fa565b5b613d038e828f01613afa565b97505060a08c013567ffffffffffffffff811115613d2457613d236134fa565b5b613d308e828f01613be9565b96505060c0613d418e828f01613c2e565b95505060e0613d528e828f01613c2e565b945050610100613d648e828f01613c2e565b935050610120613d768e828f01613c5a565b925050610140613d888e828f01613c5a565b9150509295989b509295989b9093969950565b600060208284031215613db157613db06134f5565b5b6000613dbf84828501613548565b91505092915050565b600082825260208201905092915050565b7f43616e6e6f742073656e6420746f6b656e7320746f2056656e7565206469726560008201527f63746c7900000000000000000000000000000000000000000000000000000000602082015250565b6000613e35602483613dc8565b9150613e4082613dd9565b604082019050919050565b60006020820190508181036000830152613e6481613e28565b9050919050565b600081519050613e7a816138ad565b92915050565b600081519050613e8f81613c17565b92915050565b6000806000806000806000806000806101408b8d031215613eb957613eb86134f5565b5b6000613ec78d828e01613e6b565b9a50506020613ed88d828e01613e80565b9950506040613ee98d828e01613e80565b9850506060613efa8d828e01613e80565b9750506080613f0b8d828e01613e80565b96505060a0613f1c8d828e01613e80565b95505060c0613f2d8d828e01613e80565b94505060e0613f3e8d828e01613e80565b935050610100613f508d828e01613e80565b925050610120613f628d828e01613e80565b9150509295989b9194979a5092959850565b7f4f776e61626c653a2063616c6c6572206973206e6f7420746865206f776e6572600082015250565b6000613faa602083613dc8565b9150613fb582613f74565b602082019050919050565b60006020820190508181036000830152613fd981613f9d565b9050919050565b7f496e697469616c697a61626c653a20636f6e747261637420697320616c72656160008201527f647920696e697469616c697a6564000000000000000000000000000000000000602082015250565b600061403c602e83613dc8565b915061404782613fe0565b604082019050919050565b6000602082019050818103600083015261406b8161402f565b9050919050565b7f5061757361626c653a2070617573656400000000000000000000000000000000600082015250565b60006140a8601083613dc8565b91506140b382614072565b602082019050919050565b600060208201905081810360008301526140d78161409b565b9050919050565b7f4e487b7100000000000000000000000000000000000000000000000000000000600052603260045260246000fd5b600061ffff82169050919050565b6141248161410d565b811461412f57600080fd5b50565b6000813590506141418161411b565b92915050565b60006020828403121561415d5761415c6134f5565b5b600061416b84828501614132565b91505092915050565b7f4e487b7100000000000000000000000000000000000000000000000000000000600052601160045260246000fd5b60006141ae8261355d565b91506141b98361355d565b9250827fffffffffffffffffffffffffffffffffffffffffffffffffffffffffffffffff038211156141ee576141ed614174565b5b828201905092915050565b60006142048261355d565b915061420f8361355d565b92508282101561422257614221614174565b5b828203905092915050565b7f4e487b7100000000000000000000000000000000000000000000000000000000600052603160045260246000fd5b60006142678261355d565b91507fffffffffffffffffffffffffffffffffffffffffffffffffffffffffffffffff82141561429a57614299614174565b5b600182019050919050565b7f446f206e6f74206c6f736520796f757220746f6b656e73000000000000000000600082015250565b60006142db601783613dc8565b91506142e6826142a5565b602082019050919050565b6000602082019050818103600083015261430a816142ce565b9050919050565b7f4b69746368656e20737061636520726571756972656400000000000000000000600082015250565b6000614347601683613dc8565b915061435282614311565b602082019050919050565b600060208201905081810360008301526143768161433a565b9050919050565b6000819050919050565b60006143a261439d6143988461410d565b61437d565b61355d565b9050919050565b6143b281614387565b82525050565b60006020820190506143cd60008301846143a9565b92915050565b6000815190506143e281613531565b92915050565b6000602082840312156143fe576143fd6134f5565b5b600061440c848285016143d3565b91505092915050565b7f4e6f7420796f757220746f6b656e000000000000000000000000000000000000600082015250565b600061444b600e83613dc8565b915061445682614415565b602082019050919050565b6000602082019050818103600083015261447a8161443e565b9050919050565b6000606082019050614496600083018661378d565b6144a3602083018561378d565b6144b060408301846143a9565b949350505050565b7f4e6f7420656c696769626c650000000000000000000000000000000000000000600082015250565b60006144ee600c83613dc8565b91506144f9826144b8565b602082019050919050565b6000602082019050818103600083015261451d816144e1565b9050919050565b600061452f8261355d565b915061453a8361355d565b9250817fffffffffffffffffffffffffffffffffffffffffffffffffffffffffffffffff048311821515161561457357614572614174565b5b828202905092915050565b7f4f776e61626c653a206e6577206f776e657220697320746865207a65726f206160008201527f6464726573730000000000000000000000000000000000000000000000000000602082015250565b60006145da602683613dc8565b91506145e58261457e565b604082019050919050565b60006020820190508181036000830152614609816145cd565b9050919050565b7f496e697469616c697a61626c653a20636f6e7472616374206973206e6f74206960008201527f6e697469616c697a696e67000000000000000000000000000000000000000000602082015250565b600061466c602b83613dc8565b915061467782614610565b604082019050919050565b6000602082019050818103600083015261469b8161465f565b9050919050565b60006146bd6146b86146b38461372d565b61437d565b61355d565b9050919050565b6146cd816146a2565b82525050565b60006040820190506146e8600083018561378d565b6146f560208301846146c4565b9392505050565b60008151905061470b81613567565b92915050565b600060208284031215614727576147266134f5565b5b6000614735848285016146fc565b91505092915050565b7f43616e6e6f74206c65617665206265666f726520454f42000000000000000000600082015250565b6000614774601783613dc8565b915061477f8261473e565b602082019050919050565b600060208201905081810360008301526147a381614767565b9050919050565b600082825260208201905092915050565b50565b60006147cb6000836147aa565b91506147d6826147bb565b600082019050919050565b60006080820190506147f6600083018661378d565b614803602083018561378d565b61481060408301846136d6565b8181036060830152614821816147be565b9050949350505050565b60006148368261355d565b9150600082141561484a57614849614174565b5b600182039050919050565b600081519050919050565b60005b8381101561487e578082015181840152602081019050614863565b8381111561488d576000848401525b50505050565b600061489e82614855565b6148a88185613dc8565b93506148b8818560208601614860565b6148c1816139d9565b840191505092915050565b600060e0820190506148e1600083018a6136d6565b6148ee60208301896136d6565b6148fb6040830188613812565b614908606083018761373a565b614915608083018661373a565b81810360a08301526149278185614893565b905061493660c08301846136d6565b98975050505050505050565b600060c08201905061495760008301896136d6565b61496460208301886136d6565b6149716040830187613812565b61497e606083018661373a565b61498b608083018561373a565b81810360a083015261499d8184614893565b9050979650505050505050565b60006040820190506149bf600083018561378d565b6149cc60208301846136d6565b9392505050565b60006060820190506149e860008301866136d6565b6149f5602083018561378d565b614a0260408301846136d6565b949350505050565b7f4e487b7100000000000000000000000000000000000000000000000000000000600052601260045260246000fd5b6000614a448261355d565b9150614a4f8361355d565b925082614a5f57614a5e614a0a565b5b828204905092915050565b6000606082019050614a7f60008301866136d6565b614a8c602083018561348d565b614a99604083018461348d565b949350505050565b600080fd5b600067ffffffffffffffff821115614ac157614ac06139ea565b5b614aca826139d9565b9050602081019050919050565b6000614aea614ae584614aa6565b613a4a565b905082815260208101848484011115614b0657614b05614aa1565b5b614b11848285614860565b509392505050565b600082601f830112614b2e57614b2d613593565b5b8151614b3e848260208601614ad7565b91505092915050565b600080600060608486031215614b6057614b5f6134f5565b5b6000614b6e86828701613e80565b9350506020614b7f86828701613e80565b925050604084015167ffffffffffffffff811115614ba057614b9f6134fa565b5b614bac86828701614b19565b9150509250925092565b6000614bc1826134b7565b9150614bcc836134b7565b9250827f7fffffffffffffffffffffffffffffffffffffffffffffffffffffffffffffff0482116000841360008413161615614c0b57614c0a614174565b5b817f80000000000000000000000000000000000000000000000000000000000000000583126000841260008413161615614c4857614c47614174565b5b827f80000000000000000000000000000000000000000000000000000000000000000582126000841360008412161615614c8557614c84614174565b5b827f7fffffffffffffffffffffffffffffffffffffffffffffffffffffffffffffff0582126000841260008412161615614cc257614cc1614174565b5b828202905092915050565b6000614cd88261372d565b9150614ce38361372d565b925082821015614cf657614cf5614174565b5b828203905092915050565b6000614d0c826134b7565b9150614d17836134b7565b925082614d2757614d26614a0a565b5b600160000383147f800000000000000000000000000000000000000000000000000000000000000083141615614d6057614d5f614174565b5b828205905092915050565b6000614d76826134b7565b9150614d81836134b7565b9250817f7fffffffffffffffffffffffffffffffffffffffffffffffffffffffffffffff03831360008312151615614dbc57614dbb614174565b5b817f8000000000000000000000000000000000000000000000000000000000000000038312600083121615614df457614df3614174565b5b82820190509291505056fea26469706673582212203c6e85ec489cc6ffd9e055bcf81c5cd8a6a3206020cd72decf28e6d38149bd2a64736f6c634300080a0033",
  "immutableReferences": {},
  "source": "// SPDX-License-Identifier: MIT\n\npragma solidity ^0.8.0;\n\nimport \"./EntrepreneurKitchen.sol\";\nimport \"./CasualFood.sol\";\nimport \"./KitchenShop.sol\";\n\ncontract TheStakehouse is EntrepreneurKitchen {\n  CasualFood foodToken; // Reference to the $CFOOD contract\n\n  function initialize(\n    address _character,\n    address _foodToken,\n    address _kitchenShop,\n    uint256 _foodTokenMaxSupply,\n    uint256[] memory _earningSettings, // dailyChefEarnings, ratTheftPercentage, vestingPeriod, accrualPeriod\n    int8[] memory _propertyIncrements, // dailySkillRate, dailyInsanityRate, dailyIntelligenceRate, dailyFatnessRate\n    uint8 _minEfficiency,\n    uint8 _charactersPerKitchen,\n    uint8 _chefEfficiencyMultiplier,\n    int256 _ratEfficiencyMultiplier,\n    int256 _ratEfficiencyOffset\n  ) external initializer {\n    __Ownable_init();\n    __Pausable_init();\n\n    unaccountedRewards = 0;\n    foodTokensPerRat = 0;\n    lastClaimTimestamp = 0;\n    kitchenId = 1;\n\n    character = Character(_character);\n    foodToken = CasualFood(_foodToken);\n    kitchenShop = KitchenShop(_kitchenShop);\n    foodTokenMaxSupply = _foodTokenMaxSupply * 1 ether;\n    dailyChefEarnings = _earningSettings[0] * 1 ether;\n    ratTheftPercentage = _earningSettings[1];\n    vestingPeriod = _earningSettings[2];\n    accrualPeriod = _earningSettings[3];\n    dailySkillRate = _propertyIncrements[0];\n    dailyInsanityRate = _propertyIncrements[1];\n    dailyIntelligenceRate = _propertyIncrements[2];\n    dailyFatnessRate = _propertyIncrements[3];\n    minEfficiency = _minEfficiency;\n    charactersPerKitchen = _charactersPerKitchen;\n    chefEfficiencyMultiplier = _chefEfficiencyMultiplier;\n    ratEfficiencyMultiplier = _ratEfficiencyMultiplier;\n    ratEfficiencyOffset = _ratEfficiencyOffset;\n  }\n\n  /**\n   * Mints the given amount of food tokens in the user's account\n   * @param amount - Amount of food tokens to mint\n   */\n  function _mintFoodToken(uint256 amount) internal override {\n    foodToken.mint(_msgSender(), amount);\n  }\n}\n",
  "sourcePath": "/Users/chris/workspace/ratalert/ratalert-contracts/contracts/TheStakehouse.sol",
  "compiler": {
    "name": "solc",
    "version": "0.8.10+commit.fc410830.Emscripten.clang"
  },
  "schemaVersion": "3.4.5",
  "updatedAt": "2022-02-28T14:42:23.216Z",
  "networkType": "ethereum",
  "devdoc": {
    "kind": "dev",
    "methods": {
      "claimMany(uint16[],bool)": {
        "params": {
          "tokenIds": "- The IDs of the tokens in question",
          "unstake": "- Whether or not to unstake the given tokens"
        }
      },
      "getProperties(uint256)": {
        "params": {
          "tokenId": "- The ID of the token to check"
        },
        "returns": {
          "efficiency": "& tolerance values"
        }
      },
      "isChef(uint256)": {
        "params": {
          "tokenId": "- The ID of the token to check"
        },
        "returns": {
          "chef": "- Whether or not the token is a Chef"
        }
      },
      "owner()": {
        "details": "Returns the address of the current owner."
      },
      "paused()": {
        "details": "Returns true if the contract is paused, and false otherwise."
      },
      "renounceOwnership()": {
        "details": "Leaves the contract without owner. It will not be possible to call `onlyOwner` functions anymore. Can only be called by the current owner. NOTE: Renouncing ownership will leave the contract without an owner, thereby removing any functionality that is only available to the owner."
      },
      "stakeMany(address,uint16[])": {
        "params": {
          "account": "- The address of the staker",
          "tokenIds": "- The IDs of the Chefs & Rats to stake"
        }
      },
      "transferOwnership(address)": {
        "details": "Transfers ownership of the contract to a new account (`newOwner`). Can only be called by the current owner."
      }
    },
    "version": 1
  },
  "userdoc": {
    "kind": "user",
    "methods": {
      "claimMany(uint16[],bool)": {
        "notice": "Claim food token earnings, level-ups and optionally unstake characters"
      },
      "getProperties(uint256)": {
        "notice": "Get the character's properties"
      },
      "isChef(uint256)": {
        "notice": "Checks if the token is a Chef"
      },
      "stakeMany(address,uint16[])": {
        "notice": "Adds Chefs & Rats"
      }
    },
    "version": 1
  }
}