{
  "contractName": "TheStakehouse",
  "abi": [
    {
      "anonymous": false,
      "inputs": [
        {
          "indexed": false,
          "internalType": "uint256",
          "name": "tokenId",
          "type": "uint256"
        },
        {
          "indexed": false,
          "internalType": "uint256",
          "name": "earned",
          "type": "uint256"
        },
        {
          "indexed": false,
          "internalType": "bool",
          "name": "unstaked",
          "type": "bool"
        },
        {
          "indexed": false,
          "internalType": "uint8",
          "name": "skill",
          "type": "uint8"
        },
        {
          "indexed": false,
          "internalType": "uint8",
          "name": "freak",
          "type": "uint8"
        },
        {
          "indexed": false,
          "internalType": "string",
          "name": "eventName",
          "type": "string"
        },
        {
          "indexed": false,
          "internalType": "uint256",
          "name": "foodTokensPerRat",
          "type": "uint256"
        }
      ],
      "name": "ChefClaimed",
      "type": "event"
    },
    {
      "anonymous": false,
      "inputs": [
        {
          "indexed": true,
          "internalType": "address",
          "name": "previousOwner",
          "type": "address"
        },
        {
          "indexed": true,
          "internalType": "address",
          "name": "newOwner",
          "type": "address"
        }
      ],
      "name": "OwnershipTransferred",
      "type": "event"
    },
    {
      "anonymous": false,
      "inputs": [
        {
          "indexed": false,
          "internalType": "address",
          "name": "account",
          "type": "address"
        }
      ],
      "name": "Paused",
      "type": "event"
    },
    {
      "anonymous": false,
      "inputs": [
        {
          "indexed": false,
          "internalType": "uint256",
          "name": "tokenId",
          "type": "uint256"
        },
        {
          "indexed": false,
          "internalType": "uint256",
          "name": "earned",
          "type": "uint256"
        },
        {
          "indexed": false,
          "internalType": "bool",
          "name": "unstaked",
          "type": "bool"
        },
        {
          "indexed": false,
          "internalType": "uint8",
          "name": "intelligence",
          "type": "uint8"
        },
        {
          "indexed": false,
          "internalType": "uint8",
          "name": "bodyMass",
          "type": "uint8"
        },
        {
          "indexed": false,
          "internalType": "string",
          "name": "eventName",
          "type": "string"
        },
        {
          "indexed": false,
          "internalType": "uint256",
          "name": "foodTokensPerRat",
          "type": "uint256"
        }
      ],
      "name": "RatClaimed",
      "type": "event"
    },
    {
      "anonymous": false,
      "inputs": [
        {
          "indexed": false,
          "internalType": "uint256",
          "name": "tokenId",
          "type": "uint256"
        },
        {
          "indexed": false,
          "internalType": "address",
          "name": "owner",
          "type": "address"
        },
        {
          "indexed": false,
          "internalType": "uint256",
          "name": "value",
          "type": "uint256"
        }
      ],
      "name": "TokenStaked",
      "type": "event"
    },
    {
      "anonymous": false,
      "inputs": [
        {
          "indexed": false,
          "internalType": "address",
          "name": "account",
          "type": "address"
        }
      ],
      "name": "Unpaused",
      "type": "event"
    },
    {
      "inputs": [
        {
          "internalType": "uint256",
          "name": "",
          "type": "uint256"
        }
      ],
      "name": "chefs",
      "outputs": [
        {
          "internalType": "uint256",
          "name": "tokenId",
          "type": "uint256"
        },
        {
          "internalType": "address",
          "name": "owner",
          "type": "address"
        },
        {
          "internalType": "uint80",
          "name": "value",
          "type": "uint80"
        },
        {
          "internalType": "uint80",
          "name": "timestamp",
          "type": "uint80"
        }
      ],
      "stateMutability": "view",
      "type": "function",
      "constant": true
    },
    {
      "inputs": [
        {
          "internalType": "uint16[]",
          "name": "tokenIds",
          "type": "uint16[]"
        },
        {
          "internalType": "bool",
          "name": "unstake",
          "type": "bool"
        }
      ],
      "name": "claimMany",
      "outputs": [],
      "stateMutability": "payable",
      "type": "function",
      "payable": true
    },
    {
      "inputs": [],
      "name": "foodTokensPerRat",
      "outputs": [
        {
          "internalType": "uint256",
          "name": "",
          "type": "uint256"
        }
      ],
      "stateMutability": "view",
      "type": "function",
      "constant": true
    },
    {
      "inputs": [
        {
          "components": [
            {
              "internalType": "bytes32",
              "name": "requestId",
              "type": "bytes32"
            },
            {
              "internalType": "address",
              "name": "venue",
              "type": "address"
            },
            {
              "internalType": "address",
              "name": "sender",
              "type": "address"
            },
            {
              "internalType": "uint16[]",
              "name": "tokenIds",
              "type": "uint16[]"
            },
            {
              "internalType": "bool",
              "name": "unstake",
              "type": "bool"
            }
          ],
          "internalType": "struct IClaim.VRFStruct",
          "name": "v",
          "type": "tuple"
        },
        {
          "internalType": "uint256",
          "name": "randomness",
          "type": "uint256"
        }
      ],
      "name": "fulfillClaimMany",
      "outputs": [],
      "stateMutability": "nonpayable",
      "type": "function"
    },
    {
      "inputs": [
        {
          "internalType": "address",
          "name": "account",
          "type": "address"
        }
      ],
      "name": "getChefsStaked",
      "outputs": [
        {
          "internalType": "uint256",
          "name": "",
          "type": "uint256"
        }
      ],
      "stateMutability": "view",
      "type": "function",
      "constant": true
    },
    {
      "inputs": [],
      "name": "lastClaimTimestamp",
      "outputs": [
        {
          "internalType": "uint256",
          "name": "",
          "type": "uint256"
        }
      ],
      "stateMutability": "view",
      "type": "function",
      "constant": true
    },
    {
      "inputs": [
        {
          "internalType": "address",
          "name": "",
          "type": "address"
        },
        {
          "internalType": "address",
          "name": "from",
          "type": "address"
        },
        {
          "internalType": "uint256",
          "name": "",
          "type": "uint256"
        },
        {
          "internalType": "bytes",
          "name": "",
          "type": "bytes"
        }
      ],
      "name": "onERC721Received",
      "outputs": [
        {
          "internalType": "bytes4",
          "name": "",
          "type": "bytes4"
        }
      ],
      "stateMutability": "pure",
      "type": "function",
      "constant": true
    },
    {
      "inputs": [],
      "name": "owner",
      "outputs": [
        {
          "internalType": "address",
          "name": "",
          "type": "address"
        }
      ],
      "stateMutability": "view",
      "type": "function",
      "constant": true
    },
    {
      "inputs": [],
      "name": "pause",
      "outputs": [],
      "stateMutability": "nonpayable",
      "type": "function"
    },
    {
      "inputs": [],
      "name": "paused",
      "outputs": [
        {
          "internalType": "bool",
          "name": "",
          "type": "bool"
        }
      ],
      "stateMutability": "view",
      "type": "function",
      "constant": true
    },
    {
      "inputs": [
        {
          "internalType": "uint256",
          "name": "",
          "type": "uint256"
        }
      ],
      "name": "rats",
      "outputs": [
        {
          "internalType": "uint256",
          "name": "tokenId",
          "type": "uint256"
        },
        {
          "internalType": "address",
          "name": "owner",
          "type": "address"
        },
        {
          "internalType": "uint80",
          "name": "value",
          "type": "uint80"
        },
        {
          "internalType": "uint80",
          "name": "timestamp",
          "type": "uint80"
        }
      ],
      "stateMutability": "view",
      "type": "function",
      "constant": true
    },
    {
      "inputs": [],
      "name": "renounceOwnership",
      "outputs": [],
      "stateMutability": "nonpayable",
      "type": "function"
    },
    {
      "inputs": [
        {
          "internalType": "address",
          "name": "_dao",
          "type": "address"
        }
      ],
      "name": "setDao",
      "outputs": [],
      "stateMutability": "nonpayable",
      "type": "function"
    },
    {
      "inputs": [
        {
          "internalType": "address",
          "name": "account",
          "type": "address"
        },
        {
          "internalType": "uint16[]",
          "name": "tokenIds",
          "type": "uint16[]"
        }
      ],
      "name": "stakeMany",
      "outputs": [],
      "stateMutability": "nonpayable",
      "type": "function"
    },
    {
      "inputs": [
        {
          "internalType": "address",
          "name": "",
          "type": "address"
        },
        {
          "internalType": "uint256",
          "name": "",
          "type": "uint256"
        }
      ],
      "name": "stakers",
      "outputs": [
        {
          "internalType": "uint256",
          "name": "",
          "type": "uint256"
        }
      ],
      "stateMutability": "view",
      "type": "function",
      "constant": true
    },
    {
      "inputs": [],
      "name": "totalChefsStaked",
      "outputs": [
        {
          "internalType": "uint256",
          "name": "",
          "type": "uint256"
        }
      ],
      "stateMutability": "view",
      "type": "function",
      "constant": true
    },
    {
      "inputs": [],
      "name": "totalFoodTokensEarned",
      "outputs": [
        {
          "internalType": "uint256",
          "name": "",
          "type": "uint256"
        }
      ],
      "stateMutability": "view",
      "type": "function",
      "constant": true
    },
    {
      "inputs": [],
      "name": "totalRatsStaked",
      "outputs": [
        {
          "internalType": "uint256",
          "name": "",
          "type": "uint256"
        }
      ],
      "stateMutability": "view",
      "type": "function",
      "constant": true
    },
    {
      "inputs": [
        {
          "internalType": "address",
          "name": "newOwner",
          "type": "address"
        }
      ],
      "name": "transferOwnership",
      "outputs": [],
      "stateMutability": "nonpayable",
      "type": "function"
    },
    {
      "inputs": [],
      "name": "unaccountedRewards",
      "outputs": [
        {
          "internalType": "uint256",
          "name": "",
          "type": "uint256"
        }
      ],
      "stateMutability": "view",
      "type": "function",
      "constant": true
    },
    {
      "inputs": [],
      "name": "unpause",
      "outputs": [],
      "stateMutability": "nonpayable",
      "type": "function"
    },
    {
      "inputs": [],
      "name": "withdrawPayments",
      "outputs": [],
      "stateMutability": "nonpayable",
      "type": "function"
    },
    {
      "inputs": [
        {
          "internalType": "address",
          "name": "_character",
          "type": "address"
        },
        {
          "internalType": "address",
          "name": "_claim",
          "type": "address"
        },
        {
          "internalType": "uint256",
          "name": "_accrualPeriod",
          "type": "uint256"
        }
      ],
      "name": "initialize",
      "outputs": [],
      "stateMutability": "nonpayable",
      "type": "function"
    },
    {
      "inputs": [],
      "name": "initialize",
      "outputs": [],
      "stateMutability": "nonpayable",
      "type": "function"
    },
    {
      "inputs": [
        {
          "internalType": "address",
          "name": "_character",
          "type": "address"
        },
        {
          "internalType": "address",
          "name": "_claim",
          "type": "address"
        },
        {
          "internalType": "address",
          "name": "_foodToken",
          "type": "address"
        },
        {
          "internalType": "address",
          "name": "_kitchenUsage",
          "type": "address"
        }
      ],
      "name": "initialize",
      "outputs": [],
      "stateMutability": "nonpayable",
      "type": "function"
    },
    {
      "inputs": [
        {
          "internalType": "uint256",
          "name": "_foodTokenMaxSupply",
          "type": "uint256"
        },
        {
          "internalType": "uint256[]",
          "name": "_earningSettings",
          "type": "uint256[]"
        },
        {
          "internalType": "int8[]",
          "name": "_propertyIncrements",
          "type": "int8[]"
        },
        {
          "internalType": "uint8",
          "name": "_minEfficiency",
          "type": "uint8"
        },
        {
          "internalType": "uint8",
          "name": "_chefEfficiencyMultiplier",
          "type": "uint8"
        },
        {
          "internalType": "int256",
          "name": "_ratEfficiencyMultiplier",
          "type": "int256"
        },
        {
          "internalType": "int256",
          "name": "_ratEfficiencyOffset",
          "type": "int256"
        },
        {
          "internalType": "uint8",
          "name": "_maxClaimsPerTx",
          "type": "uint8"
        },
        {
          "internalType": "uint256",
          "name": "_claimFee",
          "type": "uint256"
        }
      ],
      "name": "configure",
      "outputs": [],
      "stateMutability": "nonpayable",
      "type": "function"
    }
  ],
  "bytecode": "0x608060405234801561001057600080fd5b50615f7f80620000216000396000f3fe6080604052600436106101815760003560e01c8063715018a6116100d1578063c0c472c01161008a578063dbdc1f6b11610064578063dbdc1f6b1461051d578063f266674614610546578063f2fde38b14610571578063f8c8765e1461059a57610181565b8063c0c472c01461048a578063c8b6cbf7146104b5578063d8dda92e146104f257610181565b8063715018a6146103d55780638129fc1c146103ec5780638456cb59146104035780638da5cb5b1461041a578063922a180214610445578063a7a102901461046e57610181565b8063499f80101161013e5780635c975abb116101185780635c975abb1461033f578063607af3971461036a5780636103d70b146103955780636637b882146103ac57610181565b8063499f8010146102975780634c4913ec146102c25780634d1c61af146102ff57610181565b8063119096bc14610186578063150b7a02146101af5780631794bb3c146101ec5780632535a77f1461021557806335ec066e146102405780633f4ba83a14610280575b600080fd5b34801561019257600080fd5b506101ad60048036038101906101a891906142b5565b6105c3565b005b3480156101bb57600080fd5b506101d660048036038101906101d19190614470565b610823565b6040516101e39190614533565b60405180910390f35b3480156101f857600080fd5b50610213600480360381019061020e919061454e565b6108a6565b005b34801561022157600080fd5b5061022a610aa2565b60405161023791906145b0565b60405180910390f35b34801561024c57600080fd5b50610267600480360381019061026291906145cb565b610aa8565b604051610277949392919061462c565b60405180910390f35b34801561028c57600080fd5b50610295610b24565b005b3480156102a357600080fd5b506102ac610b36565b6040516102b991906145b0565b60405180910390f35b3480156102ce57600080fd5b506102e960048036038101906102e49190614671565b610b3c565b6040516102f691906145b0565b60405180910390f35b34801561030b57600080fd5b50610326600480360381019061032191906145cb565b610b88565b604051610336949392919061462c565b60405180910390f35b34801561034b57600080fd5b50610354610c04565b60405161036191906146b9565b60405180910390f35b34801561037657600080fd5b5061037f610c1b565b60405161038c91906145b0565b60405180910390f35b3480156103a157600080fd5b506103aa610c21565b005b3480156103b857600080fd5b506103d360048036038101906103ce9190614671565b610c94565b005b3480156103e157600080fd5b506103ea610d54565b005b3480156103f857600080fd5b50610401610ddc565b005b34801561040f57600080fd5b50610418610ed0565b005b34801561042657600080fd5b5061042f610ee2565b60405161043c91906146d4565b60405180910390f35b34801561045157600080fd5b5061046c60048036038101906104679190614900565b610f0c565b005b610488600480360381019061048391906149b2565b6114f3565b005b34801561049657600080fd5b5061049f6119b9565b6040516104ac91906145b0565b60405180910390f35b3480156104c157600080fd5b506104dc60048036038101906104d79190614a12565b6119bf565b6040516104e991906145b0565b60405180910390f35b3480156104fe57600080fd5b506105076119f0565b60405161051491906145b0565b60405180910390f35b34801561052957600080fd5b50610544600480360381019061053f9190614a52565b6119f6565b005b34801561055257600080fd5b5061055b612075565b60405161056891906145b0565b60405180910390f35b34801561057d57600080fd5b5061059860048036038101906105939190614671565b61207b565b005b3480156105a657600080fd5b506105c160048036038101906105bc9190614ab2565b612173565b005b6105cb6123a3565b73ffffffffffffffffffffffffffffffffffffffff166105e9610ee2565b73ffffffffffffffffffffffffffffffffffffffff161461063f576040517f08c379a000000000000000000000000000000000000000000000000000000000815260040161063690614b76565b60405180910390fd5b8860a6819055508760008151811061065a57610659614b96565b5b602002602001015160a7819055508760018151811061067c5761067b614b96565b5b602002602001015160a8819055508760028151811061069e5761069d614b96565b5b602002602001015160a181905550876003815181106106c0576106bf614b96565b5b602002602001015160a281905550866000815181106106e2576106e1614b96565b5b6020026020010151609e60006101000a81548160ff021916908360000b60ff1602179055508660018151811061071b5761071a614b96565b5b6020026020010151609e60016101000a81548160ff021916908360000b60ff1602179055508660028151811061075457610753614b96565b5b6020026020010151609e60026101000a81548160ff021916908360000b60ff1602179055508660038151811061078d5761078c614b96565b5b6020026020010151609e60036101000a81548160ff021916908360000b60ff1602179055508560af60156101000a81548160ff021916908360ff1602179055508460ac60006101000a81548160ff021916908360ff1602179055508360ad819055508260ae819055508160a460006101000a81548160ff021916908360ff1602179055508060a581905550505050505050505050565b60008073ffffffffffffffffffffffffffffffffffffffff168573ffffffffffffffffffffffffffffffffffffffff1614610893576040517f08c379a000000000000000000000000000000000000000000000000000000000815260040161088a90614c37565b60405180910390fd5b63150b7a0260e01b905095945050505050565b600060019054906101000a900460ff166108ce5760008054906101000a900460ff16156108d7565b6108d66123ab565b5b610916576040517f08c379a000000000000000000000000000000000000000000000000000000000815260040161090d90614cc9565b60405180910390fd5b60008060019054906101000a900460ff161590508015610966576001600060016101000a81548160ff02191690831515021790555060016000806101000a81548160ff0219169083151502179055505b61096e6123bc565b610976612415565b83609860006101000a81548173ffffffffffffffffffffffffffffffffffffffff021916908373ffffffffffffffffffffffffffffffffffffffff16021790555082609960006101000a81548173ffffffffffffffffffffffffffffffffffffffff021916908373ffffffffffffffffffffffffffffffffffffffff1602179055508160a2819055506000609e60006101000a81548160ff021916908360000b60ff1602179055506000609e60016101000a81548160ff021916908360000b60ff1602179055506000609e60026101000a81548160ff021916908360000b60ff1602179055506000609e60036101000a81548160ff021916908360000b60ff1602179055508015610a9c5760008060016101000a81548160ff0219169083151502179055505b50505050565b60a35481565b609b6020528060005260406000206000915090508060000154908060010160009054906101000a900473ffffffffffffffffffffffffffffffffffffffff16908060010160149054906101000a900469ffffffffffffffffffff16908060020160009054906101000a900469ffffffffffffffffffff16905084565b610b2c61246e565b610b34612500565b565b60a05481565b6000609c60008373ffffffffffffffffffffffffffffffffffffffff1673ffffffffffffffffffffffffffffffffffffffff168152602001908152602001600020805490509050919050565b609a6020528060005260406000206000915090508060000154908060010160009054906101000a900473ffffffffffffffffffffffffffffffffffffffff16908060010160149054906101000a900469ffffffffffffffffffff16908060020160009054906101000a900469ffffffffffffffffffff16905084565b6000603360009054906101000a900460ff16905090565b60ab5481565b610c2961246e565b609760009054906101000a900473ffffffffffffffffffffffffffffffffffffffff1673ffffffffffffffffffffffffffffffffffffffff166108fc479081150290604051600060405180830381858888f19350505050158015610c91573d6000803e3d6000fd5b50565b610c9c6123a3565b73ffffffffffffffffffffffffffffffffffffffff16610cba610ee2565b73ffffffffffffffffffffffffffffffffffffffff1614610d10576040517f08c379a0000000000000000000000000000000000000000000000000000000008152600401610d0790614b76565b60405180910390fd5b80609760006101000a81548173ffffffffffffffffffffffffffffffffffffffff021916908373ffffffffffffffffffffffffffffffffffffffff16021790555050565b610d5c6123a3565b73ffffffffffffffffffffffffffffffffffffffff16610d7a610ee2565b73ffffffffffffffffffffffffffffffffffffffff1614610dd0576040517f08c379a0000000000000000000000000000000000000000000000000000000008152600401610dc790614b76565b60405180910390fd5b610dda60006125a2565b565b600060019054906101000a900460ff16610e045760008054906101000a900460ff1615610e0d565b610e0c6123ab565b5b610e4c576040517f08c379a0000000000000000000000000000000000000000000000000000000008152600401610e4390614cc9565b60405180910390fd5b60008060019054906101000a900460ff161590508015610e9c576001600060016101000a81548160ff02191690831515021790555060016000806101000a81548160ff0219169083151502179055505b610ea46123bc565b610eac612415565b8015610ecd5760008060016101000a81548160ff0219169083151502179055505b50565b610ed861246e565b610ee0612668565b565b6000606560009054906101000a900473ffffffffffffffffffffffffffffffffffffffff16905090565b610f14610c04565b15610f54576040517f08c379a0000000000000000000000000000000000000000000000000000000008152600401610f4b90614d35565b60405180910390fd5b609960009054906101000a900473ffffffffffffffffffffffffffffffffffffffff1673ffffffffffffffffffffffffffffffffffffffff163373ffffffffffffffffffffffffffffffffffffffff1614610fe4576040517f08c379a0000000000000000000000000000000000000000000000000000000008152600401610fdb90614da1565b60405180910390fd5b6000609d6000846000015181526020019081526020016000208054905011611041576040517f08c379a000000000000000000000000000000000000000000000000000000000815260040161103890614e0d565b60405180910390fd5b6000609d6000846000015181526020019081526020016000208054806020026020016040519081016040528092919081815260200182805480156110cc57602002820191906000526020600020906000905b82829054906101000a900461ffff1661ffff16815260200190600201906020826001010492830192600103820291508084116110935790505b50505050509050609d60008460000151815260200190815260200160002060006110f69190613eb4565b6000805b82518110156114d45760008482604051602001611118929190614e2d565b6040516020818303038152906040528051906020012060001c905061115a84838151811061114957611148614b96565b5b602002602001015161ffff1661270b565b1561147e5760005b609c6000886040015173ffffffffffffffffffffffffffffffffffffffff1673ffffffffffffffffffffffffffffffffffffffff168152602001908152602001600020805490508110156113c7578483815181106111c3576111c2614b96565b5b602002602001015161ffff16609c6000896040015173ffffffffffffffffffffffffffffffffffffffff1673ffffffffffffffffffffffffffffffffffffffff168152602001908152602001600020828154811061122457611223614b96565b5b906000526020600020015414156113b457609c6000886040015173ffffffffffffffffffffffffffffffffffffffff1673ffffffffffffffffffffffffffffffffffffffff1681526020019081526020016000206001609c60008a6040015173ffffffffffffffffffffffffffffffffffffffff1673ffffffffffffffffffffffffffffffffffffffff168152602001908152602001600020805490506112cb9190614e85565b815481106112dc576112db614b96565b5b9060005260206000200154609c6000896040015173ffffffffffffffffffffffffffffffffffffffff1673ffffffffffffffffffffffffffffffffffffffff168152602001908152602001600020828154811061133c5761133b614b96565b5b9060005260206000200181905550609c6000886040015173ffffffffffffffffffffffffffffffffffffffff1673ffffffffffffffffffffffffffffffffffffffff16815260200190815260200160002080548061139d5761139c614eb9565b5b600190038181906000526020600020016000905590555b80806113bf90614ee8565b915050611162565b50600061141e8760400151609c60008a6040015173ffffffffffffffffffffffffffffffffffffffff1673ffffffffffffffffffffffffffffffffffffffff168152602001908152602001600020805490506127ea565b905060028114156114375761143687604001516128a3565b5b61146b85848151811061144d5761144c614b96565b5b602002602001015161ffff1688604001518960800151600086612947565b846114769190614f31565b9350506114c0565b6114b284838151811061149457611493614b96565b5b602002602001015161ffff1687604001518860800151600085612d91565b836114bd9190614f31565b92505b5080806114cc90614ee8565b9150506110fa565b5060008111156114ed576114ec8460400151826131dd565b5b50505050565b6114fb610c04565b1561153b576040517f08c379a000000000000000000000000000000000000000000000000000000000815260040161153290614d35565b60405180910390fd5b6115436123a3565b73ffffffffffffffffffffffffffffffffffffffff163273ffffffffffffffffffffffffffffffffffffffff16146115b0576040517f08c379a00000000000000000000000000000000000000000000000000000000081526004016115a790614fd3565b60405180910390fd5b60a460009054906101000a900460ff1660ff16838390501115611608576040517f08c379a00000000000000000000000000000000000000000000000000000000081526004016115ff9061503f565b60405180910390fd5b60a554341461164c576040517f08c379a0000000000000000000000000000000000000000000000000000000008152600401611643906150ab565b60405180910390fd5b60005b838390508110156118e057600061169085858481811061167257611671614b96565b5b905060200201602081019061168791906150cb565b61ffff1661270b565b6116d757609b60008686858181106116ab576116aa614b96565b5b90506020020160208101906116c091906150cb565b61ffff168152602001908152602001600020611716565b609a60008686858181106116ee576116ed614b96565b5b905060200201602081019061170391906150cb565b61ffff1681526020019081526020016000205b604051806080016040529081600082015481526020016001820160009054906101000a900473ffffffffffffffffffffffffffffffffffffffff1673ffffffffffffffffffffffffffffffffffffffff1673ffffffffffffffffffffffffffffffffffffffff1681526020016001820160149054906101000a900469ffffffffffffffffffff1669ffffffffffffffffffff1669ffffffffffffffffffff1681526020016002820160009054906101000a900469ffffffffffffffffffff1669ffffffffffffffffffff1669ffffffffffffffffffff168152505090506117fb6123a3565b73ffffffffffffffffffffffffffffffffffffffff16816020015173ffffffffffffffffffffffffffffffffffffffff161461186c576040517f08c379a000000000000000000000000000000000000000000000000000000000815260040161186390615144565b60405180910390fd5b60a154816060015169ffffffffffffffffffff164261188b9190614e85565b10156118cc576040517f08c379a00000000000000000000000000000000000000000000000000000000081526004016118c3906151b0565b60405180910390fd5b5080806118d890614ee8565b91505061164f565b506000609960009054906101000a900473ffffffffffffffffffffffffffffffffffffffff1673ffffffffffffffffffffffffffffffffffffffff16635bdf263c6119296123a3565b8686866040518563ffffffff1660e01b815260040161194b9493929190615293565b6020604051808303816000875af115801561196a573d6000803e3d6000fd5b505050506040513d601f19601f8201168201806040525081019061198e91906152e8565b90508383609d600084815260200190815260200160002091906119b2929190613edc565b5050505050565b60a95481565b609c60205281600052604060002081815481106119db57600080fd5b90600052602060002001600091509150505481565b60aa5481565b6119fe6123a3565b73ffffffffffffffffffffffffffffffffffffffff163273ffffffffffffffffffffffffffffffffffffffff16148015611a6a5750611a3b6123a3565b73ffffffffffffffffffffffffffffffffffffffff168373ffffffffffffffffffffffffffffffffffffffff16145b80611ac95750609860009054906101000a900473ffffffffffffffffffffffffffffffffffffffff1673ffffffffffffffffffffffffffffffffffffffff16611ab16123a3565b73ffffffffffffffffffffffffffffffffffffffff16145b611b08576040517f08c379a0000000000000000000000000000000000000000000000000000000008152600401611aff90614fd3565b60405180910390fd5b60005b8282905081101561206f576000838383818110611b2b57611b2a614b96565b5b9050602002016020810190611b4091906150cb565b61ffff161415611b4f5761205c565b609860009054906101000a900473ffffffffffffffffffffffffffffffffffffffff1673ffffffffffffffffffffffffffffffffffffffff16611b906123a3565b73ffffffffffffffffffffffffffffffffffffffff1614611ce357611bb36123a3565b73ffffffffffffffffffffffffffffffffffffffff16609860009054906101000a900473ffffffffffffffffffffffffffffffffffffffff1673ffffffffffffffffffffffffffffffffffffffff16636352211e858585818110611c1a57611c19614b96565b5b9050602002016020810190611c2f91906150cb565b6040518263ffffffff1660e01b8152600401611c4b9190615350565b602060405180830381865afa158015611c68573d6000803e3d6000fd5b505050506040513d601f19601f82011682018060405250810190611c8c9190615380565b73ffffffffffffffffffffffffffffffffffffffff1614611ce2576040517f08c379a0000000000000000000000000000000000000000000000000000000008152600401611cd990615144565b60405180910390fd5b5b611d17838383818110611cf957611cf8614b96565b5b9050602002016020810190611d0e91906150cb565b61ffff16613270565b611d56576040517f08c379a0000000000000000000000000000000000000000000000000000000008152600401611d4d906153f9565b60405180910390fd5b611d8a838383818110611d6c57611d6b614b96565b5b9050602002016020810190611d8191906150cb565b61ffff1661270b565b15611f0957609c60008573ffffffffffffffffffffffffffffffffffffffff1673ffffffffffffffffffffffffffffffffffffffff168152602001908152602001600020838383818110611de157611de0614b96565b5b9050602002016020810190611df691906150cb565b908060018154018082558091505060019003906000526020600020016000909161ffff169091909150556000611e75611e2d6123a3565b609c60008873ffffffffffffffffffffffffffffffffffffffff1673ffffffffffffffffffffffffffffffffffffffff168152602001908152602001600020805490506127ea565b90506000811215611ebb576040517f08c379a0000000000000000000000000000000000000000000000000000000008152600401611eb290615465565b60405180910390fd5b6000811415611ece57611ecd856132a0565b5b611f0385858585818110611ee557611ee4614b96565b5b9050602002016020810190611efa91906150cb565b61ffff16613344565b50611f3f565b611f3e84848484818110611f2057611f1f614b96565b5b9050602002016020810190611f3591906150cb565b61ffff16613503565b5b609860009054906101000a900473ffffffffffffffffffffffffffffffffffffffff1673ffffffffffffffffffffffffffffffffffffffff16611f806123a3565b73ffffffffffffffffffffffffffffffffffffffff161461205b57609860009054906101000a900473ffffffffffffffffffffffffffffffffffffffff1673ffffffffffffffffffffffffffffffffffffffff166323b872dd611fe16123a3565b30868686818110611ff557611ff4614b96565b5b905060200201602081019061200a91906150cb565b6040518463ffffffff1660e01b815260040161202893929190615485565b600060405180830381600087803b15801561204257600080fd5b505af1158015612056573d6000803e3d6000fd5b505050505b5b808061206790614ee8565b915050611b0b565b50505050565b609f5481565b6120836123a3565b73ffffffffffffffffffffffffffffffffffffffff166120a1610ee2565b73ffffffffffffffffffffffffffffffffffffffff16146120f7576040517f08c379a00000000000000000000000000000000000000000000000000000000081526004016120ee90614b76565b60405180910390fd5b600073ffffffffffffffffffffffffffffffffffffffff168173ffffffffffffffffffffffffffffffffffffffff161415612167576040517f08c379a000000000000000000000000000000000000000000000000000000000815260040161215e9061552e565b60405180910390fd5b612170816125a2565b50565b600060019054906101000a900460ff1661219b5760008054906101000a900460ff16156121a4565b6121a36123ab565b5b6121e3576040517f08c379a00000000000000000000000000000000000000000000000000000000081526004016121da90614cc9565b60405180910390fd5b60008060019054906101000a900460ff161590508015612233576001600060016101000a81548160ff02191690831515021790555060016000806101000a81548160ff0219169083151502179055505b61223b6123bc565b612243612415565b600060a981905550600060a381905550600060ab81905550600160af60146101000a81548160ff021916908360ff16021790555084609860006101000a81548173ffffffffffffffffffffffffffffffffffffffff021916908373ffffffffffffffffffffffffffffffffffffffff16021790555083609960006101000a81548173ffffffffffffffffffffffffffffffffffffffff021916908373ffffffffffffffffffffffffffffffffffffffff1602179055508260b060006101000a81548173ffffffffffffffffffffffffffffffffffffffff021916908373ffffffffffffffffffffffffffffffffffffffff1602179055508160af60006101000a81548173ffffffffffffffffffffffffffffffffffffffff021916908373ffffffffffffffffffffffffffffffffffffffff160217905550801561239c5760008060016101000a81548160ff0219169083151502179055505b5050505050565b600033905090565b60006123b6306136c6565b15905090565b600060019054906101000a900460ff1661240b576040517f08c379a0000000000000000000000000000000000000000000000000000000008152600401612402906155c0565b60405180910390fd5b6124136136e9565b565b600060019054906101000a900460ff16612464576040517f08c379a000000000000000000000000000000000000000000000000000000000815260040161245b906155c0565b60405180910390fd5b61246c61374a565b565b609760009054906101000a900473ffffffffffffffffffffffffffffffffffffffff1673ffffffffffffffffffffffffffffffffffffffff163373ffffffffffffffffffffffffffffffffffffffff16146124fe576040517f08c379a00000000000000000000000000000000000000000000000000000000081526004016124f59061562c565b60405180910390fd5b565b612508610c04565b612547576040517f08c379a000000000000000000000000000000000000000000000000000000000815260040161253e90615698565b60405180910390fd5b6000603360006101000a81548160ff0219169083151502179055507f5db9ee0a495bf2e6ff9c91a7834c1ba4fdd244a5e8aa4e537bd38aeae4b073aa61258b6123a3565b60405161259891906146d4565b60405180910390a1565b6000606560009054906101000a900473ffffffffffffffffffffffffffffffffffffffff16905081606560006101000a81548173ffffffffffffffffffffffffffffffffffffffff021916908373ffffffffffffffffffffffffffffffffffffffff1602179055508173ffffffffffffffffffffffffffffffffffffffff168173ffffffffffffffffffffffffffffffffffffffff167f8be0079c531659141344cd1fd0a4f28419497f9722a3daafe3b4186f6b6457e060405160405180910390a35050565b612670610c04565b156126b0576040517f08c379a00000000000000000000000000000000000000000000000000000000081526004016126a790614d35565b60405180910390fd5b6001603360006101000a81548160ff0219169083151502179055507f62e78cea01bee320cd4e420270b5ea74000d11b0c9f74754ebdbfc544b05a2586126f46123a3565b60405161270191906146d4565b60405180910390a1565b6000609860009054906101000a900473ffffffffffffffffffffffffffffffffffffffff1673ffffffffffffffffffffffffffffffffffffffff1663e05c57bf836040518263ffffffff1660e01b815260040161276891906145b0565b61016060405180830381865afa158015612786573d6000803e3d6000fd5b505050506040513d601f19601f820116820180604052508101906127aa91906156f7565b9091929394959697985090919293949596975090919293949596509091929394955090919293945090919293509091925090915090505080915050919050565b600060af60009054906101000a900473ffffffffffffffffffffffffffffffffffffffff1673ffffffffffffffffffffffffffffffffffffffff16634a54cc468460af60149054906101000a900460ff16856040518463ffffffff1660e01b815260040161285a939291906157fa565b602060405180830381865afa158015612877573d6000803e3d6000fd5b505050506040513d601f19601f8201168201806040525081019061289b9190615846565b905092915050565b60af60009054906101000a900473ffffffffffffffffffffffffffffffffffffffff1673ffffffffffffffffffffffffffffffffffffffff16639abcb22e8260af60149054906101000a900460ff1660016040518463ffffffff1660e01b8152600401612912939291906158ae565b600060405180830381600087803b15801561292c57600080fd5b505af1158015612940573d6000803e3d6000fd5b5050505050565b600080609a6000888152602001908152602001600020604051806080016040529081600082015481526020016001820160009054906101000a900473ffffffffffffffffffffffffffffffffffffffff1673ffffffffffffffffffffffffffffffffffffffff1673ffffffffffffffffffffffffffffffffffffffff1681526020016001820160149054906101000a900469ffffffffffffffffffff1669ffffffffffffffffffff1669ffffffffffffffffffff1681526020016002820160009054906101000a900469ffffffffffffffffffff1669ffffffffffffffffffff1669ffffffffffffffffffff168152505090508573ffffffffffffffffffffffffffffffffffffffff16816020015173ffffffffffffffffffffffffffffffffffffffff1614612aac576040517f08c379a0000000000000000000000000000000000000000000000000000000008152600401612aa390615144565b60405180910390fd5b83612abf57612aba816137b6565b612ac2565b60005b91506000806000612ad38a8761391a565b925092509250612ae28a613270565b612aeb57600197505b8715612c1e57609a60008b81526020019081526020016000206000808201600090556001820160006101000a81549073ffffffffffffffffffffffffffffffffffffffff02191690556001820160146101000a81549069ffffffffffffffffffff02191690556002820160006101000a81549069ffffffffffffffffffff02191690555050609f6000815480929190612b83906158e5565b9190505550609860009054906101000a900473ffffffffffffffffffffffffffffffffffffffff1673ffffffffffffffffffffffffffffffffffffffff1663b88d4fde308b8d6040518463ffffffff1660e01b8152600401612be793929190615946565b600060405180830381600087803b158015612c0157600080fd5b505af1158015612c15573d6000803e3d6000fd5b50505050612d3f565b60405180608001604052808b61ffff1681526020018a73ffffffffffffffffffffffffffffffffffffffff1681526020014269ffffffffffffffffffff1681526020014269ffffffffffffffffffff16815250609a60008c81526020019081526020016000206000820151816000015560208201518160010160006101000a81548173ffffffffffffffffffffffffffffffffffffffff021916908373ffffffffffffffffffffffffffffffffffffffff16021790555060408201518160010160146101000a81548169ffffffffffffffffffff021916908369ffffffffffffffffffff16021790555060608201518160020160006101000a81548169ffffffffffffffffffff021916908369ffffffffffffffffffff1602179055509050505b7f9b394c66bc4fdb2f56f5842a796076e6552d6f15eaacb6e63e3c53b474d872e98a868a86868660a354604051612d7c9796959493929190615a07565b60405180910390a15050505095945050505050565b600080609b6000888152602001908152602001600020604051806080016040529081600082015481526020016001820160009054906101000a900473ffffffffffffffffffffffffffffffffffffffff1673ffffffffffffffffffffffffffffffffffffffff1673ffffffffffffffffffffffffffffffffffffffff1681526020016001820160149054906101000a900469ffffffffffffffffffff1669ffffffffffffffffffff1669ffffffffffffffffffff1681526020016002820160009054906101000a900469ffffffffffffffffffff1669ffffffffffffffffffff1669ffffffffffffffffffff168152505090508573ffffffffffffffffffffffffffffffffffffffff16816020015173ffffffffffffffffffffffffffffffffffffffff1614612ef6576040517f08c379a0000000000000000000000000000000000000000000000000000000008152600401612eed90615144565b60405180910390fd5b83612f0957612f0481613b88565b612f0c565b60005b91506000806000612f1d8a8761391a565b925092509250612f2c8a613270565b612f3557600197505b871561306857609b60008b81526020019081526020016000206000808201600090556001820160006101000a81549073ffffffffffffffffffffffffffffffffffffffff02191690556001820160146101000a81549069ffffffffffffffffffff02191690556002820160006101000a81549069ffffffffffffffffffff0219169055505060a06000815480929190612fcd906158e5565b9190505550609860009054906101000a900473ffffffffffffffffffffffffffffffffffffffff1673ffffffffffffffffffffffffffffffffffffffff1663b88d4fde308b8d6040518463ffffffff1660e01b815260040161303193929190615946565b600060405180830381600087803b15801561304b57600080fd5b505af115801561305f573d6000803e3d6000fd5b5050505061318b565b60405180608001604052808b61ffff1681526020018a73ffffffffffffffffffffffffffffffffffffffff16815260200160a35469ffffffffffffffffffff1681526020014269ffffffffffffffffffff16815250609b60008c81526020019081526020016000206000820151816000015560208201518160010160006101000a81548173ffffffffffffffffffffffffffffffffffffffff021916908373ffffffffffffffffffffffffffffffffffffffff16021790555060408201518160010160146101000a81548169ffffffffffffffffffff021916908369ffffffffffffffffffff16021790555060608201518160020160006101000a81548169ffffffffffffffffffff021916908369ffffffffffffffffffff1602179055509050505b7f9be2cb7a62ca4aefdc81da57f848805cc67c86675da32b5a7be58bb615ba4f328a868a86868660a3546040516131c89796959493929190615a07565b60405180910390a15050505095945050505050565b60b060009054906101000a900473ffffffffffffffffffffffffffffffffffffffff1673ffffffffffffffffffffffffffffffffffffffff166340c10f1983836040518363ffffffff1660e01b815260040161323a929190615a7d565b600060405180830381600087803b15801561325457600080fd5b505af1158015613268573d6000803e3d6000fd5b505050505050565b60008061327c83613c9c565b50905060af60159054906101000a900460ff1660ff168160ff161015915050919050565b60af60009054906101000a900473ffffffffffffffffffffffffffffffffffffffff1673ffffffffffffffffffffffffffffffffffffffff16637befa74f8260af60149054906101000a900460ff1660016040518463ffffffff1660e01b815260040161330f939291906158ae565b600060405180830381600087803b15801561332957600080fd5b505af115801561333d573d6000803e3d6000fd5b5050505050565b61334c610c04565b1561338c576040517f08c379a000000000000000000000000000000000000000000000000000000000815260040161338390614d35565b60405180910390fd5b60405180608001604052808261ffff1681526020018373ffffffffffffffffffffffffffffffffffffffff1681526020014269ffffffffffffffffffff1681526020014269ffffffffffffffffffff16815250609a60008381526020019081526020016000206000820151816000015560208201518160010160006101000a81548173ffffffffffffffffffffffffffffffffffffffff021916908373ffffffffffffffffffffffffffffffffffffffff16021790555060408201518160010160146101000a81548169ffffffffffffffffffff021916908369ffffffffffffffffffff16021790555060608201518160020160006101000a81548169ffffffffffffffffffff021916908369ffffffffffffffffffff160217905550905050609f60008154809291906134bf90614ee8565b91905055507f8af1bb49fb16c7835975aa59449ba4328dd54737dfb2ae9fa6c5eca71fda51f98183426040516134f793929190615aa6565b60405180910390a15050565b61350b610c04565b1561354b576040517f08c379a000000000000000000000000000000000000000000000000000000000815260040161354290614d35565b60405180910390fd5b60405180608001604052808261ffff1681526020018373ffffffffffffffffffffffffffffffffffffffff16815260200160a35469ffffffffffffffffffff1681526020014269ffffffffffffffffffff16815250609b60008381526020019081526020016000206000820151816000015560208201518160010160006101000a81548173ffffffffffffffffffffffffffffffffffffffff021916908373ffffffffffffffffffffffffffffffffffffffff16021790555060408201518160010160146101000a81548169ffffffffffffffffffff021916908369ffffffffffffffffffff16021790555060608201518160020160006101000a81548169ffffffffffffffffffff021916908369ffffffffffffffffffff16021790555090505060a0600081548092919061368090614ee8565b91905055507f8af1bb49fb16c7835975aa59449ba4328dd54737dfb2ae9fa6c5eca71fda51f9818360a3546040516136ba93929190615aa6565b60405180910390a15050565b6000808273ffffffffffffffffffffffffffffffffffffffff163b119050919050565b600060019054906101000a900460ff16613738576040517f08c379a000000000000000000000000000000000000000000000000000000000815260040161372f906155c0565b60405180910390fd5b6137486137436123a3565b6125a2565b565b600060019054906101000a900460ff16613799576040517f08c379a0000000000000000000000000000000000000000000000000000000008152600401613790906155c0565b60405180910390fd5b6000603360006101000a81548160ff021916908315150217905550565b6000806137c68360000151613c9c565b5090506000836040015169ffffffffffffffffffff16426137e79190614e85565b905060a2548111156137f95760a25490505b600060a2548260a75461380c9190615add565b6138169190615b66565b90506000600a60ac60009054906101000a900460ff1660ff168560ff1661383d9190615add565b6138479190615add565b620186a06138559190614f31565b9050620186a081836138679190615add565b6138719190615b66565b945060a6548560aa546138849190614f31565b111561389d5760aa5460a65461389a9190614e85565b94505b6000851115613911574260ab819055506138cf606460a854876138c09190615add565b6138ca9190615b66565b613d86565b606460a85460646138e09190614e85565b866138eb9190615add565b6138f59190615b66565b94508460aa60008282546139099190614f31565b925050819055505b50505050919050565b6000806060600080609860009054906101000a900473ffffffffffffffffffffffffffffffffffffffff1673ffffffffffffffffffffffffffffffffffffffff1663e05c57bf886040518263ffffffff1660e01b815260040161397d91906145b0565b61016060405180830381865afa15801561399b573d6000803e3d6000fd5b505050506040513d601f19601f820116820180604052508101906139bf91906156f7565b9a505050505050505050509150600082613a0557609b600089815260200190815260200160002060020160009054906101000a900469ffffffffffffffffffff16613a33565b609a600089815260200190815260200160002060020160009054906101000a900469ffffffffffffffffffff165b69ffffffffffffffffffff1642613a4a9190614e85565b9050609860009054906101000a900473ffffffffffffffffffffffffffffffffffffffff1673ffffffffffffffffffffffffffffffffffffffff166363dbfc7789613ac086613aa857609e60029054906101000a900460000b613ab9565b609e60009054906101000a900460000b5b8587613dee565b613af687613add57609e60039054906101000a900460000b613aee565b609e60019054906101000a900460000b5b866000613dee565b613afe613eab565b613b09576000613b0b565b8b5b6040518563ffffffff1660e01b8152600401613b2a9493929190615ba6565b6000604051808303816000875af1158015613b49573d6000803e3d6000fd5b505050506040513d6000823e3d601f19601f82011682018060405250810190613b729190615c91565b8096508197508298505050505050509250925092565b600080613b988360000151613c9c565b9150506000836040015169ffffffffffffffffffff1660a354613bbb9190614e85565b905060006103e860ae54613bcf9190615d00565b60646103e860ad5460328760ff161115613bf557866064613bf09190615e17565b613bf7565b865b60000b613c049190615d00565b613c0e9190615d00565b613c189190615e4b565b613c229190615eb5565b9050620186a08183613c349190615add565b613c3e9190615b66565b935060a6548460aa54613c519190614f31565b1115613c6a5760aa5460a654613c679190614e85565b93505b6000841115613c94574260ab819055508360aa6000828254613c8c9190614f31565b925050819055505b505050919050565b600080609860009054906101000a900473ffffffffffffffffffffffffffffffffffffffff1673ffffffffffffffffffffffffffffffffffffffff1663e05c57bf846040518263ffffffff1660e01b8152600401613cfa91906145b0565b61016060405180830381865afa158015613d18573d6000803e3d6000fd5b505050506040513d601f19601f82011682018060405250810190613d3c91906156f7565b909192939495969798995090919293949596979850909192939495969750909192939495965090919293949550909192939450909192935090919250508092508193505050915091565b600060a0541415613daf578060a96000828254613da39190614f31565b92505081905550613deb565b60a05460a95482613dc09190614f31565b613dca9190615b66565b60a36000828254613ddb9190614f31565b92505081905550600060a9819055505b50565b600060a254831115613e005760a25492505b600060a2548560000b85613e149190615d00565b613e1e9190615e4b565b905060a2548410613e3b578260000b81613e389190615eb5565b90505b6064811315613e4e576064915050613ea4565b7fffffffffffffffffffffffffffffffffffffffffffffffffffffffffffffff9c811215613e9f577fffffffffffffffffffffffffffffffffffffffffffffffffffffffffffffff9c915050613ea4565b809150505b9392505050565b60006001905090565b50805460008255600f016010900490600052602060002090810190613ed99190613f8a565b50565b82805482825590600052602060002090600f01601090048101928215613f795791602002820160005b83821115613f4957833561ffff1683826101000a81548161ffff021916908361ffff1602179055509260200192600201602081600101049283019260010302613f05565b8015613f775782816101000a81549061ffff0219169055600201602081600101049283019260010302613f49565b505b509050613f869190613f8a565b5090565b5b80821115613fa3576000816000905550600101613f8b565b5090565b6000604051905090565b600080fd5b600080fd5b6000819050919050565b613fce81613fbb565b8114613fd957600080fd5b50565b600081359050613feb81613fc5565b92915050565b600080fd5b6000601f19601f8301169050919050565b7f4e487b7100000000000000000000000000000000000000000000000000000000600052604160045260246000fd5b61403f82613ff6565b810181811067ffffffffffffffff8211171561405e5761405d614007565b5b80604052505050565b6000614071613fa7565b905061407d8282614036565b919050565b600067ffffffffffffffff82111561409d5761409c614007565b5b602082029050602081019050919050565b600080fd5b60006140c66140c184614082565b614067565b905080838252602082019050602084028301858111156140e9576140e86140ae565b5b835b8181101561411257806140fe8882613fdc565b8452602084019350506020810190506140eb565b5050509392505050565b600082601f83011261413157614130613ff1565b5b81356141418482602086016140b3565b91505092915050565b600067ffffffffffffffff82111561416557614164614007565b5b602082029050602081019050919050565b60008160000b9050919050565b61418c81614176565b811461419757600080fd5b50565b6000813590506141a981614183565b92915050565b60006141c26141bd8461414a565b614067565b905080838252602082019050602084028301858111156141e5576141e46140ae565b5b835b8181101561420e57806141fa888261419a565b8452602084019350506020810190506141e7565b5050509392505050565b600082601f83011261422d5761422c613ff1565b5b813561423d8482602086016141af565b91505092915050565b600060ff82169050919050565b61425c81614246565b811461426757600080fd5b50565b60008135905061427981614253565b92915050565b6000819050919050565b6142928161427f565b811461429d57600080fd5b50565b6000813590506142af81614289565b92915050565b60008060008060008060008060006101208a8c0312156142d8576142d7613fb1565b5b60006142e68c828d01613fdc565b99505060208a013567ffffffffffffffff81111561430757614306613fb6565b5b6143138c828d0161411c565b98505060408a013567ffffffffffffffff81111561433457614333613fb6565b5b6143408c828d01614218565b97505060606143518c828d0161426a565b96505060806143628c828d0161426a565b95505060a06143738c828d016142a0565b94505060c06143848c828d016142a0565b93505060e06143958c828d0161426a565b9250506101006143a78c828d01613fdc565b9150509295985092959850929598565b600073ffffffffffffffffffffffffffffffffffffffff82169050919050565b60006143e2826143b7565b9050919050565b6143f2816143d7565b81146143fd57600080fd5b50565b60008135905061440f816143e9565b92915050565b600080fd5b60008083601f8401126144305761442f613ff1565b5b8235905067ffffffffffffffff81111561444d5761444c614415565b5b602083019150836001820283011115614469576144686140ae565b5b9250929050565b60008060008060006080868803121561448c5761448b613fb1565b5b600061449a88828901614400565b95505060206144ab88828901614400565b94505060406144bc88828901613fdc565b935050606086013567ffffffffffffffff8111156144dd576144dc613fb6565b5b6144e98882890161441a565b92509250509295509295909350565b60007fffffffff0000000000000000000000000000000000000000000000000000000082169050919050565b61452d816144f8565b82525050565b60006020820190506145486000830184614524565b92915050565b60008060006060848603121561456757614566613fb1565b5b600061457586828701614400565b935050602061458686828701614400565b925050604061459786828701613fdc565b9150509250925092565b6145aa81613fbb565b82525050565b60006020820190506145c560008301846145a1565b92915050565b6000602082840312156145e1576145e0613fb1565b5b60006145ef84828501613fdc565b91505092915050565b614601816143d7565b82525050565b600069ffffffffffffffffffff82169050919050565b61462681614607565b82525050565b600060808201905061464160008301876145a1565b61464e60208301866145f8565b61465b604083018561461d565b614668606083018461461d565b95945050505050565b60006020828403121561468757614686613fb1565b5b600061469584828501614400565b91505092915050565b60008115159050919050565b6146b38161469e565b82525050565b60006020820190506146ce60008301846146aa565b92915050565b60006020820190506146e960008301846145f8565b92915050565b600080fd5b600080fd5b6000819050919050565b61470c816146f9565b811461471757600080fd5b50565b60008135905061472981614703565b92915050565b600067ffffffffffffffff82111561474a57614749614007565b5b602082029050602081019050919050565b600061ffff82169050919050565b6147728161475b565b811461477d57600080fd5b50565b60008135905061478f81614769565b92915050565b60006147a86147a38461472f565b614067565b905080838252602082019050602084028301858111156147cb576147ca6140ae565b5b835b818110156147f457806147e08882614780565b8452602084019350506020810190506147cd565b5050509392505050565b600082601f83011261481357614812613ff1565b5b8135614823848260208601614795565b91505092915050565b6148358161469e565b811461484057600080fd5b50565b6000813590506148528161482c565b92915050565b600060a0828403121561486e5761486d6146ef565b5b61487860a0614067565b905060006148888482850161471a565b600083015250602061489c84828501614400565b60208301525060406148b084828501614400565b604083015250606082013567ffffffffffffffff8111156148d4576148d36146f4565b5b6148e0848285016147fe565b60608301525060806148f484828501614843565b60808301525092915050565b6000806040838503121561491757614916613fb1565b5b600083013567ffffffffffffffff81111561493557614934613fb6565b5b61494185828601614858565b925050602061495285828601613fdc565b9150509250929050565b60008083601f84011261497257614971613ff1565b5b8235905067ffffffffffffffff81111561498f5761498e614415565b5b6020830191508360208202830111156149ab576149aa6140ae565b5b9250929050565b6000806000604084860312156149cb576149ca613fb1565b5b600084013567ffffffffffffffff8111156149e9576149e8613fb6565b5b6149f58682870161495c565b93509350506020614a0886828701614843565b9150509250925092565b60008060408385031215614a2957614a28613fb1565b5b6000614a3785828601614400565b9250506020614a4885828601613fdc565b9150509250929050565b600080600060408486031215614a6b57614a6a613fb1565b5b6000614a7986828701614400565b935050602084013567ffffffffffffffff811115614a9a57614a99613fb6565b5b614aa68682870161495c565b92509250509250925092565b60008060008060808587031215614acc57614acb613fb1565b5b6000614ada87828801614400565b9450506020614aeb87828801614400565b9350506040614afc87828801614400565b9250506060614b0d87828801614400565b91505092959194509250565b600082825260208201905092915050565b7f4f776e61626c653a2063616c6c6572206973206e6f7420746865206f776e6572600082015250565b6000614b60602083614b19565b9150614b6b82614b2a565b602082019050919050565b60006020820190508181036000830152614b8f81614b53565b9050919050565b7f4e487b7100000000000000000000000000000000000000000000000000000000600052603260045260246000fd5b7f43616e6e6f742073656e6420746f6b656e7320746f2056656e7565206469726560008201527f63746c7900000000000000000000000000000000000000000000000000000000602082015250565b6000614c21602483614b19565b9150614c2c82614bc5565b604082019050919050565b60006020820190508181036000830152614c5081614c14565b9050919050565b7f496e697469616c697a61626c653a20636f6e747261637420697320616c72656160008201527f647920696e697469616c697a6564000000000000000000000000000000000000602082015250565b6000614cb3602e83614b19565b9150614cbe82614c57565b604082019050919050565b60006020820190508181036000830152614ce281614ca6565b9050919050565b7f5061757361626c653a2070617573656400000000000000000000000000000000600082015250565b6000614d1f601083614b19565b9150614d2a82614ce9565b602082019050919050565b60006020820190508181036000830152614d4e81614d12565b9050919050565b7f4f6e6c7920436c61696d2063616e2066756c66696c6c00000000000000000000600082015250565b6000614d8b601683614b19565b9150614d9682614d55565b602082019050919050565b60006020820190508181036000830152614dba81614d7e565b9050919050565b7f436c61696d2072657175657374206e6f7420666f756e64000000000000000000600082015250565b6000614df7601783614b19565b9150614e0282614dc1565b602082019050919050565b60006020820190508181036000830152614e2681614dea565b9050919050565b6000604082019050614e4260008301856145a1565b614e4f60208301846145a1565b9392505050565b7f4e487b7100000000000000000000000000000000000000000000000000000000600052601160045260246000fd5b6000614e9082613fbb565b9150614e9b83613fbb565b925082821015614eae57614ead614e56565b5b828203905092915050565b7f4e487b7100000000000000000000000000000000000000000000000000000000600052603160045260246000fd5b6000614ef382613fbb565b91507fffffffffffffffffffffffffffffffffffffffffffffffffffffffffffffffff821415614f2657614f25614e56565b5b600182019050919050565b6000614f3c82613fbb565b9150614f4783613fbb565b9250827fffffffffffffffffffffffffffffffffffffffffffffffffffffffffffffffff03821115614f7c57614f7b614e56565b5b828201905092915050565b7f454f41206f6e6c79000000000000000000000000000000000000000000000000600082015250565b6000614fbd600883614b19565b9150614fc882614f87565b602082019050919050565b60006020820190508181036000830152614fec81614fb0565b9050919050565b7f496e76616c696420636c61696d20616d6f756e74000000000000000000000000600082015250565b6000615029601483614b19565b915061503482614ff3565b602082019050919050565b600060208201905081810360008301526150588161501c565b9050919050565b7f496e76616c696420636c61696d20666565000000000000000000000000000000600082015250565b6000615095601183614b19565b91506150a08261505f565b602082019050919050565b600060208201905081810360008301526150c481615088565b9050919050565b6000602082840312156150e1576150e0613fb1565b5b60006150ef84828501614780565b91505092915050565b7f4e6f7420796f757220746f6b656e000000000000000000000000000000000000600082015250565b600061512e600e83614b19565b9150615139826150f8565b602082019050919050565b6000602082019050818103600083015261515d81615121565b9050919050565b7f43616e6e6f7420636c61696d206265666f726520454f42000000000000000000600082015250565b600061519a601783614b19565b91506151a582615164565b602082019050919050565b600060208201905081810360008301526151c98161518d565b9050919050565b600082825260208201905092915050565b6000819050919050565b6151f48161475b565b82525050565b600061520683836151eb565b60208301905092915050565b60006152216020840184614780565b905092915050565b6000602082019050919050565b600061524283856151d0565b935061524d826151e1565b8060005b85811015615286576152638284615212565b61526d88826151fa565b975061527883615229565b925050600181019050615251565b5085925050509392505050565b60006060820190506152a860008301876145f8565b81810360208301526152bb818587615236565b90506152ca60408301846146aa565b95945050505050565b6000815190506152e281614703565b92915050565b6000602082840312156152fe576152fd613fb1565b5b600061530c848285016152d3565b91505092915050565b6000819050919050565b600061533a6153356153308461475b565b615315565b613fbb565b9050919050565b61534a8161531f565b82525050565b60006020820190506153656000830184615341565b92915050565b60008151905061537a816143e9565b92915050565b60006020828403121561539657615395613fb1565b5b60006153a48482850161536b565b91505092915050565b7f4e6f7420656c696769626c650000000000000000000000000000000000000000600082015250565b60006153e3600c83614b19565b91506153ee826153ad565b602082019050919050565b60006020820190508181036000830152615412816153d6565b9050919050565b7f4b69746368656e20737061636520726571756972656400000000000000000000600082015250565b600061544f601683614b19565b915061545a82615419565b602082019050919050565b6000602082019050818103600083015261547e81615442565b9050919050565b600060608201905061549a60008301866145f8565b6154a760208301856145f8565b6154b46040830184615341565b949350505050565b7f4f776e61626c653a206e6577206f776e657220697320746865207a65726f206160008201527f6464726573730000000000000000000000000000000000000000000000000000602082015250565b6000615518602683614b19565b9150615523826154bc565b604082019050919050565b600060208201905081810360008301526155478161550b565b9050919050565b7f496e697469616c697a61626c653a20636f6e7472616374206973206e6f74206960008201527f6e697469616c697a696e67000000000000000000000000000000000000000000602082015250565b60006155aa602b83614b19565b91506155b58261554e565b604082019050919050565b600060208201905081810360008301526155d98161559d565b9050919050565b7f4f6e6c792044414f2063616e2065786563757465000000000000000000000000600082015250565b6000615616601483614b19565b9150615621826155e0565b602082019050919050565b6000602082019050818103600083015261564581615609565b9050919050565b7f5061757361626c653a206e6f7420706175736564000000000000000000000000600082015250565b6000615682601483614b19565b915061568d8261564c565b602082019050919050565b600060208201905081810360008301526156b181615675565b9050919050565b6000815190506156c78161482c565b92915050565b6000815190506156dc81614253565b92915050565b6000815190506156f181614183565b92915050565b60008060008060008060008060008060006101608c8e03121561571d5761571c613fb1565b5b600061572b8e828f016156b8565b9b5050602061573c8e828f016156cd565b9a5050604061574d8e828f016156cd565b995050606061575e8e828f016156cd565b985050608061576f8e828f016156cd565b97505060a06157808e828f016156cd565b96505060c06157918e828f016156cd565b95505060e06157a28e828f016156cd565b9450506101006157b48e828f016156cd565b9350506101206157c68e828f016156cd565b9250506101406157d88e828f016156e2565b9150509295989b509295989b9093969950565b6157f481614246565b82525050565b600060608201905061580f60008301866145f8565b61581c60208301856157eb565b61582960408301846145a1565b949350505050565b60008151905061584081614289565b92915050565b60006020828403121561585c5761585b613fb1565b5b600061586a84828501615831565b91505092915050565b6000819050919050565b600061589861589361588e84615873565b615315565b613fbb565b9050919050565b6158a88161587d565b82525050565b60006060820190506158c360008301866145f8565b6158d060208301856157eb565b6158dd604083018461589f565b949350505050565b60006158f082613fbb565b9150600082141561590457615903614e56565b5b600182039050919050565b600082825260208201905092915050565b50565b600061593060008361590f565b915061593b82615920565b600082019050919050565b600060808201905061595b60008301866145f8565b61596860208301856145f8565b61597560408301846145a1565b818103606083015261598681615923565b9050949350505050565b600081519050919050565b60005b838110156159b957808201518184015260208101905061599e565b838111156159c8576000848401525b50505050565b60006159d982615990565b6159e38185614b19565b93506159f381856020860161599b565b6159fc81613ff6565b840191505092915050565b600060e082019050615a1c600083018a6145a1565b615a2960208301896145a1565b615a3660408301886146aa565b615a4360608301876157eb565b615a5060808301866157eb565b81810360a0830152615a6281856159ce565b9050615a7160c08301846145a1565b98975050505050505050565b6000604082019050615a9260008301856145f8565b615a9f60208301846145a1565b9392505050565b6000606082019050615abb60008301866145a1565b615ac860208301856145f8565b615ad560408301846145a1565b949350505050565b6000615ae882613fbb565b9150615af383613fbb565b9250817fffffffffffffffffffffffffffffffffffffffffffffffffffffffffffffffff0483118215151615615b2c57615b2b614e56565b5b828202905092915050565b7f4e487b7100000000000000000000000000000000000000000000000000000000600052601260045260246000fd5b6000615b7182613fbb565b9150615b7c83613fbb565b925082615b8c57615b8b615b37565b5b828204905092915050565b615ba081614176565b82525050565b6000608082019050615bbb60008301876145a1565b615bc86020830186615b97565b615bd56040830185615b97565b615be260608301846145a1565b95945050505050565b600080fd5b600067ffffffffffffffff821115615c0b57615c0a614007565b5b615c1482613ff6565b9050602081019050919050565b6000615c34615c2f84615bf0565b614067565b905082815260208101848484011115615c5057615c4f615beb565b5b615c5b84828561599b565b509392505050565b600082601f830112615c7857615c77613ff1565b5b8151615c88848260208601615c21565b91505092915050565b600080600060608486031215615caa57615ca9613fb1565b5b6000615cb8868287016156cd565b9350506020615cc9868287016156cd565b925050604084015167ffffffffffffffff811115615cea57615ce9613fb6565b5b615cf686828701615c63565b9150509250925092565b6000615d0b8261427f565b9150615d168361427f565b9250827f7fffffffffffffffffffffffffffffffffffffffffffffffffffffffffffffff0482116000841360008413161615615d5557615d54614e56565b5b817f80000000000000000000000000000000000000000000000000000000000000000583126000841260008413161615615d9257615d91614e56565b5b827f80000000000000000000000000000000000000000000000000000000000000000582126000841360008412161615615dcf57615dce614e56565b5b827f7fffffffffffffffffffffffffffffffffffffffffffffffffffffffffffffff0582126000841260008412161615615e0c57615e0b614e56565b5b828202905092915050565b6000615e2282614246565b9150615e2d83614246565b925082821015615e4057615e3f614e56565b5b828203905092915050565b6000615e568261427f565b9150615e618361427f565b925082615e7157615e70615b37565b5b600160000383147f800000000000000000000000000000000000000000000000000000000000000083141615615eaa57615ea9614e56565b5b828205905092915050565b6000615ec08261427f565b9150615ecb8361427f565b9250817f7fffffffffffffffffffffffffffffffffffffffffffffffffffffffffffffff03831360008312151615615f0657615f05614e56565b5b817f8000000000000000000000000000000000000000000000000000000000000000038312600083121615615f3e57615f3d614e56565b5b82820190509291505056fea2646970667358221220b99d431dd4310d0810d428e964738cc0048ae707083dcb9ac6dce09440610a0764736f6c634300080a0033",
  "immutableReferences": {},
  "source": "// SPDX-License-Identifier: MIT\n\npragma solidity ^0.8.0;\n\nimport \"./EntrepreneurKitchen.sol\";\nimport \"./CasualFood.sol\";\nimport \"./IKitchenUsage.sol\";\n\ncontract TheStakehouse is EntrepreneurKitchen {\n  CasualFood foodToken; // Reference to the $CFOOD contract\n\n  function initialize(\n    address _character,\n    address _claim,\n    address _foodToken,\n    address _kitchenUsage\n  ) external initializer {\n    __Ownable_init();\n    __Pausable_init();\n\n    unaccountedRewards = 0;\n    foodTokensPerRat = 0;\n    lastClaimTimestamp = 0;\n    kitchenId = 1;\n\n    character = Character(_character);\n    claim = IClaim(_claim);\n    foodToken = CasualFood(_foodToken);\n    kitchenUsage = IKitchenUsage(_kitchenUsage);\n  }\n\n  /**\n   * Allows DAO to update game parameters\n   */\n  function configure(\n    uint256 _foodTokenMaxSupply,\n    uint256[] memory _earningSettings, // dailyChefEarnings, ratTheftPercentage, vestingPeriod, accrualPeriod\n    int8[] memory _propertyIncrements, // dailySkillRate, dailyFreakRate, dailyIntelligenceRate, dailyBodyMassRate\n    uint8 _minEfficiency,\n    uint8 _chefEfficiencyMultiplier,\n    int256 _ratEfficiencyMultiplier,\n    int256 _ratEfficiencyOffset,\n    uint8 _maxClaimsPerTx,\n    uint256 _claimFee\n  ) external onlyOwner {\n    foodTokenMaxSupply = _foodTokenMaxSupply;\n    dailyChefEarnings = _earningSettings[0];\n    ratTheftPercentage = _earningSettings[1];\n    vestingPeriod = _earningSettings[2];\n    accrualPeriod = _earningSettings[3];\n    dailySkillRate = _propertyIncrements[0];\n    dailyFreakRate = _propertyIncrements[1];\n    dailyIntelligenceRate = _propertyIncrements[2];\n    dailyBodyMassRate = _propertyIncrements[3];\n    minEfficiency = _minEfficiency;\n    chefEfficiencyMultiplier = _chefEfficiencyMultiplier;\n    ratEfficiencyMultiplier = _ratEfficiencyMultiplier;\n    ratEfficiencyOffset = _ratEfficiencyOffset;\n    maxClaimsPerTx = _maxClaimsPerTx;\n    claimFee = _claimFee;\n  }\n\n  /**\n   * Mints the given amount of food tokens in the user's account\n   * @param sender - User wallet address\n   * @param amount - Amount of food tokens to mint\n   */\n  function _mintFoodToken(address sender, uint256 amount) internal override {\n    foodToken.mint(sender, amount);\n  }\n}\n",
  "sourcePath": "/Users/chris/workspace/ratalert/ratalert-contracts/contracts/TheStakehouse.sol",
  "compiler": {
    "name": "solc",
    "version": "0.8.10+commit.fc410830.Emscripten.clang"
  },
  "schemaVersion": "3.4.7",
  "updatedAt": "2022-05-11T09:13:32.040Z",
  "networkType": "ethereum",
  "devdoc": {
    "kind": "dev",
    "methods": {
      "claimMany(uint16[],bool)": {
        "params": {
          "tokenIds": "- The IDs of the tokens in question",
          "unstake": "- Whether or not to unstake the given tokens"
        }
      },
      "fulfillClaimMany((bytes32,address,address,uint16[],bool),uint256)": {
        "params": {
          "randomness": "- Random value created by VRF",
          "v": "- VRF struct for the corresponding request"
        }
      },
      "getChefsStaked(address)": {
        "params": {
          "account": "- User wallet address"
        },
        "returns": {
          "_0": "Number of chefs in staking"
        }
      },
      "owner()": {
        "details": "Returns the address of the current owner."
      },
      "paused()": {
        "details": "Returns true if the contract is paused, and false otherwise."
      },
      "renounceOwnership()": {
        "details": "Leaves the contract without owner. It will not be possible to call `onlyOwner` functions anymore. Can only be called by the current owner. NOTE: Renouncing ownership will leave the contract without an owner, thereby removing any functionality that is only available to the owner."
      },
      "stakeMany(address,uint16[])": {
        "params": {
          "account": "- User wallet address",
          "tokenIds": "- The IDs of the Chefs & Rats to stake"
        }
      },
      "transferOwnership(address)": {
        "details": "Transfers ownership of the contract to a new account (`newOwner`). Can only be called by the current owner."
      }
    },
    "version": 1
  },
  "userdoc": {
    "kind": "user",
    "methods": {
      "claimMany(uint16[],bool)": {
        "notice": "ChainLink VRF request: Claims food token earnings, level-ups and optionally unstake characters"
      },
      "configure(uint256,uint256[],int8[],uint8,uint8,int256,int256,uint8,uint256)": {
        "notice": "Allows DAO to update game parameters"
      },
      "fulfillClaimMany((bytes32,address,address,uint16[],bool),uint256)": {
        "notice": "Callback for claimMany(), called by Claim.fulfillRandomness()"
      },
      "getChefsStaked(address)": {
        "notice": "Get the amount of chefs the given account has in staking"
      },
      "onERC721Received(address,address,uint256,bytes)": {
        "notice": "IERC721ReceiverUpgradeable interface: We do not accept tokens sent directly"
      },
      "stakeMany(address,uint16[])": {
        "notice": "Adds Characters to staking"
      },
      "withdrawPayments()": {
        "notice": "Allows DAO to withdraw funds"
      }
    },
    "version": 1
  }
}