{
  "contractName": "TheStakehouse",
  "abi": [
    {
      "anonymous": false,
      "inputs": [
        {
          "indexed": false,
          "internalType": "uint256",
          "name": "tokenId",
          "type": "uint256"
        },
        {
          "indexed": false,
          "internalType": "uint256",
          "name": "earned",
          "type": "uint256"
        },
        {
          "indexed": false,
          "internalType": "bool",
          "name": "unstaked",
          "type": "bool"
        },
        {
          "indexed": false,
          "internalType": "uint8",
          "name": "skill",
          "type": "uint8"
        },
        {
          "indexed": false,
          "internalType": "uint8",
          "name": "insanity",
          "type": "uint8"
        },
        {
          "indexed": false,
          "internalType": "string",
          "name": "eventName",
          "type": "string"
        },
        {
          "indexed": false,
          "internalType": "uint256",
          "name": "foodTokensPerRat",
          "type": "uint256"
        }
      ],
      "name": "ChefClaimed",
      "type": "event"
    },
    {
      "anonymous": false,
      "inputs": [
        {
          "indexed": true,
          "internalType": "address",
          "name": "previousOwner",
          "type": "address"
        },
        {
          "indexed": true,
          "internalType": "address",
          "name": "newOwner",
          "type": "address"
        }
      ],
      "name": "OwnershipTransferred",
      "type": "event"
    },
    {
      "anonymous": false,
      "inputs": [
        {
          "indexed": false,
          "internalType": "address",
          "name": "account",
          "type": "address"
        }
      ],
      "name": "Paused",
      "type": "event"
    },
    {
      "anonymous": false,
      "inputs": [
        {
          "indexed": false,
          "internalType": "uint256",
          "name": "tokenId",
          "type": "uint256"
        },
        {
          "indexed": false,
          "internalType": "uint256",
          "name": "earned",
          "type": "uint256"
        },
        {
          "indexed": false,
          "internalType": "bool",
          "name": "unstaked",
          "type": "bool"
        },
        {
          "indexed": false,
          "internalType": "uint8",
          "name": "intelligence",
          "type": "uint8"
        },
        {
          "indexed": false,
          "internalType": "uint8",
          "name": "fatness",
          "type": "uint8"
        },
        {
          "indexed": false,
          "internalType": "string",
          "name": "eventName",
          "type": "string"
        }
      ],
      "name": "RatClaimed",
      "type": "event"
    },
    {
      "anonymous": false,
      "inputs": [
        {
          "indexed": false,
          "internalType": "uint256",
          "name": "tokenId",
          "type": "uint256"
        },
        {
          "indexed": false,
          "internalType": "address",
          "name": "owner",
          "type": "address"
        },
        {
          "indexed": false,
          "internalType": "uint256",
          "name": "value",
          "type": "uint256"
        }
      ],
      "name": "TokenStaked",
      "type": "event"
    },
    {
      "anonymous": false,
      "inputs": [
        {
          "indexed": false,
          "internalType": "address",
          "name": "account",
          "type": "address"
        }
      ],
      "name": "Unpaused",
      "type": "event"
    },
    {
      "inputs": [],
      "name": "accrualPeriod",
      "outputs": [
        {
          "internalType": "uint256",
          "name": "",
          "type": "uint256"
        }
      ],
      "stateMutability": "view",
      "type": "function",
      "constant": true
    },
    {
      "inputs": [],
      "name": "charactersPerKitchen",
      "outputs": [
        {
          "internalType": "uint8",
          "name": "",
          "type": "uint8"
        }
      ],
      "stateMutability": "view",
      "type": "function",
      "constant": true
    },
    {
      "inputs": [],
      "name": "chefEfficiencyMultiplier",
      "outputs": [
        {
          "internalType": "uint8",
          "name": "",
          "type": "uint8"
        }
      ],
      "stateMutability": "view",
      "type": "function",
      "constant": true
    },
    {
      "inputs": [
        {
          "internalType": "uint256",
          "name": "",
          "type": "uint256"
        }
      ],
      "name": "chefs",
      "outputs": [
        {
          "internalType": "uint256",
          "name": "tokenId",
          "type": "uint256"
        },
        {
          "internalType": "address",
          "name": "owner",
          "type": "address"
        },
        {
          "internalType": "uint80",
          "name": "value",
          "type": "uint80"
        },
        {
          "internalType": "uint80",
          "name": "timestamp",
          "type": "uint80"
        }
      ],
      "stateMutability": "view",
      "type": "function",
      "constant": true
    },
    {
      "inputs": [],
      "name": "claim",
      "outputs": [
        {
          "internalType": "contract IClaim",
          "name": "",
          "type": "address"
        }
      ],
      "stateMutability": "view",
      "type": "function",
      "constant": true
    },
    {
      "inputs": [
        {
          "internalType": "uint16[]",
          "name": "tokenIds",
          "type": "uint16[]"
        },
        {
          "internalType": "bool",
          "name": "unstake",
          "type": "bool"
        }
      ],
      "name": "claimMany",
      "outputs": [],
      "stateMutability": "nonpayable",
      "type": "function"
    },
    {
      "inputs": [
        {
          "internalType": "bytes32",
          "name": "",
          "type": "bytes32"
        },
        {
          "internalType": "uint256",
          "name": "",
          "type": "uint256"
        }
      ],
      "name": "claimRequests",
      "outputs": [
        {
          "internalType": "uint16",
          "name": "",
          "type": "uint16"
        }
      ],
      "stateMutability": "view",
      "type": "function",
      "constant": true
    },
    {
      "inputs": [],
      "name": "dailyChefEarnings",
      "outputs": [
        {
          "internalType": "uint256",
          "name": "",
          "type": "uint256"
        }
      ],
      "stateMutability": "view",
      "type": "function",
      "constant": true
    },
    {
      "inputs": [],
      "name": "dailyFatnessRate",
      "outputs": [
        {
          "internalType": "int8",
          "name": "",
          "type": "int8"
        }
      ],
      "stateMutability": "view",
      "type": "function",
      "constant": true
    },
    {
      "inputs": [],
      "name": "dailyInsanityRate",
      "outputs": [
        {
          "internalType": "int8",
          "name": "",
          "type": "int8"
        }
      ],
      "stateMutability": "view",
      "type": "function",
      "constant": true
    },
    {
      "inputs": [],
      "name": "dailyIntelligenceRate",
      "outputs": [
        {
          "internalType": "int8",
          "name": "",
          "type": "int8"
        }
      ],
      "stateMutability": "view",
      "type": "function",
      "constant": true
    },
    {
      "inputs": [],
      "name": "dailySkillRate",
      "outputs": [
        {
          "internalType": "int8",
          "name": "",
          "type": "int8"
        }
      ],
      "stateMutability": "view",
      "type": "function",
      "constant": true
    },
    {
      "inputs": [],
      "name": "foodTokenMaxSupply",
      "outputs": [
        {
          "internalType": "uint256",
          "name": "",
          "type": "uint256"
        }
      ],
      "stateMutability": "view",
      "type": "function",
      "constant": true
    },
    {
      "inputs": [],
      "name": "foodTokensPerRat",
      "outputs": [
        {
          "internalType": "uint256",
          "name": "",
          "type": "uint256"
        }
      ],
      "stateMutability": "view",
      "type": "function",
      "constant": true
    },
    {
      "inputs": [
        {
          "components": [
            {
              "internalType": "bytes32",
              "name": "requestId",
              "type": "bytes32"
            },
            {
              "internalType": "address",
              "name": "venue",
              "type": "address"
            },
            {
              "internalType": "address",
              "name": "sender",
              "type": "address"
            },
            {
              "internalType": "uint16[]",
              "name": "tokenIds",
              "type": "uint16[]"
            },
            {
              "internalType": "bool",
              "name": "unstake",
              "type": "bool"
            }
          ],
          "internalType": "struct IClaim.VRFStruct",
          "name": "v",
          "type": "tuple"
        },
        {
          "internalType": "uint256",
          "name": "randomVal",
          "type": "uint256"
        }
      ],
      "name": "fulfillClaimMany",
      "outputs": [],
      "stateMutability": "nonpayable",
      "type": "function"
    },
    {
      "inputs": [
        {
          "internalType": "uint256",
          "name": "tokenId",
          "type": "uint256"
        }
      ],
      "name": "getProperties",
      "outputs": [
        {
          "internalType": "uint8",
          "name": "efficiency",
          "type": "uint8"
        },
        {
          "internalType": "uint8",
          "name": "tolerance",
          "type": "uint8"
        }
      ],
      "stateMutability": "view",
      "type": "function",
      "constant": true
    },
    {
      "inputs": [
        {
          "internalType": "uint256",
          "name": "tokenId",
          "type": "uint256"
        }
      ],
      "name": "isChef",
      "outputs": [
        {
          "internalType": "bool",
          "name": "chef",
          "type": "bool"
        }
      ],
      "stateMutability": "view",
      "type": "function",
      "constant": true
    },
    {
      "inputs": [],
      "name": "kitchenId",
      "outputs": [
        {
          "internalType": "uint8",
          "name": "",
          "type": "uint8"
        }
      ],
      "stateMutability": "view",
      "type": "function",
      "constant": true
    },
    {
      "inputs": [],
      "name": "lastClaimTimestamp",
      "outputs": [
        {
          "internalType": "uint256",
          "name": "",
          "type": "uint256"
        }
      ],
      "stateMutability": "view",
      "type": "function",
      "constant": true
    },
    {
      "inputs": [],
      "name": "minEfficiency",
      "outputs": [
        {
          "internalType": "uint8",
          "name": "",
          "type": "uint8"
        }
      ],
      "stateMutability": "view",
      "type": "function",
      "constant": true
    },
    {
      "inputs": [
        {
          "internalType": "address",
          "name": "",
          "type": "address"
        },
        {
          "internalType": "address",
          "name": "from",
          "type": "address"
        },
        {
          "internalType": "uint256",
          "name": "",
          "type": "uint256"
        },
        {
          "internalType": "bytes",
          "name": "",
          "type": "bytes"
        }
      ],
      "name": "onERC721Received",
      "outputs": [
        {
          "internalType": "bytes4",
          "name": "",
          "type": "bytes4"
        }
      ],
      "stateMutability": "pure",
      "type": "function",
      "constant": true
    },
    {
      "inputs": [],
      "name": "owner",
      "outputs": [
        {
          "internalType": "address",
          "name": "",
          "type": "address"
        }
      ],
      "stateMutability": "view",
      "type": "function",
      "constant": true
    },
    {
      "inputs": [],
      "name": "pause",
      "outputs": [],
      "stateMutability": "nonpayable",
      "type": "function"
    },
    {
      "inputs": [],
      "name": "paused",
      "outputs": [
        {
          "internalType": "bool",
          "name": "",
          "type": "bool"
        }
      ],
      "stateMutability": "view",
      "type": "function",
      "constant": true
    },
    {
      "inputs": [],
      "name": "ratEfficiencyMultiplier",
      "outputs": [
        {
          "internalType": "int256",
          "name": "",
          "type": "int256"
        }
      ],
      "stateMutability": "view",
      "type": "function",
      "constant": true
    },
    {
      "inputs": [],
      "name": "ratEfficiencyOffset",
      "outputs": [
        {
          "internalType": "int256",
          "name": "",
          "type": "int256"
        }
      ],
      "stateMutability": "view",
      "type": "function",
      "constant": true
    },
    {
      "inputs": [],
      "name": "ratTheftPercentage",
      "outputs": [
        {
          "internalType": "uint256",
          "name": "",
          "type": "uint256"
        }
      ],
      "stateMutability": "view",
      "type": "function",
      "constant": true
    },
    {
      "inputs": [
        {
          "internalType": "uint256",
          "name": "",
          "type": "uint256"
        }
      ],
      "name": "rats",
      "outputs": [
        {
          "internalType": "uint256",
          "name": "tokenId",
          "type": "uint256"
        },
        {
          "internalType": "address",
          "name": "owner",
          "type": "address"
        },
        {
          "internalType": "uint80",
          "name": "value",
          "type": "uint80"
        },
        {
          "internalType": "uint80",
          "name": "timestamp",
          "type": "uint80"
        }
      ],
      "stateMutability": "view",
      "type": "function",
      "constant": true
    },
    {
      "inputs": [],
      "name": "renounceOwnership",
      "outputs": [],
      "stateMutability": "nonpayable",
      "type": "function"
    },
    {
      "inputs": [
        {
          "internalType": "address",
          "name": "account",
          "type": "address"
        },
        {
          "internalType": "uint16[]",
          "name": "tokenIds",
          "type": "uint16[]"
        }
      ],
      "name": "stakeMany",
      "outputs": [],
      "stateMutability": "nonpayable",
      "type": "function"
    },
    {
      "inputs": [
        {
          "internalType": "address",
          "name": "",
          "type": "address"
        },
        {
          "internalType": "uint256",
          "name": "",
          "type": "uint256"
        }
      ],
      "name": "stakers",
      "outputs": [
        {
          "internalType": "uint256",
          "name": "",
          "type": "uint256"
        }
      ],
      "stateMutability": "view",
      "type": "function",
      "constant": true
    },
    {
      "inputs": [],
      "name": "totalChefsStaked",
      "outputs": [
        {
          "internalType": "uint256",
          "name": "",
          "type": "uint256"
        }
      ],
      "stateMutability": "view",
      "type": "function",
      "constant": true
    },
    {
      "inputs": [],
      "name": "totalFoodTokensEarned",
      "outputs": [
        {
          "internalType": "uint256",
          "name": "",
          "type": "uint256"
        }
      ],
      "stateMutability": "view",
      "type": "function",
      "constant": true
    },
    {
      "inputs": [],
      "name": "totalRatsStaked",
      "outputs": [
        {
          "internalType": "uint256",
          "name": "",
          "type": "uint256"
        }
      ],
      "stateMutability": "view",
      "type": "function",
      "constant": true
    },
    {
      "inputs": [
        {
          "internalType": "address",
          "name": "newOwner",
          "type": "address"
        }
      ],
      "name": "transferOwnership",
      "outputs": [],
      "stateMutability": "nonpayable",
      "type": "function"
    },
    {
      "inputs": [],
      "name": "unaccountedRewards",
      "outputs": [
        {
          "internalType": "uint256",
          "name": "",
          "type": "uint256"
        }
      ],
      "stateMutability": "view",
      "type": "function",
      "constant": true
    },
    {
      "inputs": [],
      "name": "unpause",
      "outputs": [],
      "stateMutability": "nonpayable",
      "type": "function"
    },
    {
      "inputs": [],
      "name": "vestingPeriod",
      "outputs": [
        {
          "internalType": "uint256",
          "name": "",
          "type": "uint256"
        }
      ],
      "stateMutability": "view",
      "type": "function",
      "constant": true
    },
    {
      "inputs": [
        {
          "internalType": "address[]",
          "name": "_addresses",
          "type": "address[]"
        },
        {
          "internalType": "uint256",
          "name": "_accrualPeriod",
          "type": "uint256"
        }
      ],
      "name": "initialize",
      "outputs": [],
      "stateMutability": "nonpayable",
      "type": "function"
    },
    {
      "inputs": [],
      "name": "initialize",
      "outputs": [],
      "stateMutability": "nonpayable",
      "type": "function"
    },
    {
      "inputs": [
        {
          "internalType": "address[]",
          "name": "_addresses",
          "type": "address[]"
        },
        {
          "internalType": "uint256",
          "name": "_foodTokenMaxSupply",
          "type": "uint256"
        },
        {
          "internalType": "uint256[]",
          "name": "_earningSettings",
          "type": "uint256[]"
        },
        {
          "internalType": "int8[]",
          "name": "_propertyIncrements",
          "type": "int8[]"
        },
        {
          "internalType": "uint8",
          "name": "_minEfficiency",
          "type": "uint8"
        },
        {
          "internalType": "uint8",
          "name": "_charactersPerKitchen",
          "type": "uint8"
        },
        {
          "internalType": "uint8",
          "name": "_chefEfficiencyMultiplier",
          "type": "uint8"
        },
        {
          "internalType": "int256",
          "name": "_ratEfficiencyMultiplier",
          "type": "int256"
        },
        {
          "internalType": "int256",
          "name": "_ratEfficiencyOffset",
          "type": "int256"
        }
      ],
      "name": "initialize",
      "outputs": [],
      "stateMutability": "nonpayable",
      "type": "function"
    }
  ],
  "bytecode": "0x608060405234801561001057600080fd5b50615e7080620000216000396000f3fe608060405234801561001057600080fd5b50600436106102535760003560e01c80638129fc1c11610146578063c0c472c0116100c3578063d8dda92e11610087578063d8dda92e1461068d578063dbdc1f6b146106ab578063ef9f800f146106c7578063f2666746146106f7578063f2fde38b14610715578063f66641551461073157610253565b8063c0c472c0146105e7578063c8b6cbf714610605578063ca7eba5d14610635578063cba88af814610651578063d7178ac61461066f57610253565b80639317f7f81161010a5780639317f7f8146105535780639786e4d414610571578063a262c0ad1461058f578063a7a10290146105ad578063bdb62941146105c957610253565b80638129fc1c146104e75780638456cb59146104f15780638da5cb5b146104fb57806391ba3f3f14610519578063922a18021461053757610253565b80633f4ba83a116101d45780635c975abb116101985780635c975abb14610467578063607af3971461048557806360b5bb3f146104a3578063715018a6146104bf5780637313ee5a146104c957610253565b80633f4ba83a146103be578063499f8010146103c85780634d1c61af146103e65780634e71d92d14610419578063525e915b1461043757610253565b80631b8ca2171161021b5780631b8ca217146103005780632535a77f146103315780632d79320b1461034f5780632e2ce28b1461036d57806335ec066e1461038b57610253565b8063051d1d491461025857806310d53df114610276578063138e6ad514610294578063150b7a02146102b25780631b4d47a1146102e2575b600080fd5b61026061074f565b60405161026d9190613e4e565b60405180910390f35b61027e610762565b60405161028b9190613e85565b60405180910390f35b61029c610775565b6040516102a99190613eb9565b60405180910390f35b6102cc60048036038101906102c79190613fe1565b61077b565b6040516102d991906140a4565b60405180910390f35b6102ea6107fe565b6040516102f791906140ce565b60405180910390f35b61031a600480360381019061031591906140e9565b610804565b604051610328929190614116565b60405180910390f35b6103396108e5565b60405161034691906140ce565b60405180910390f35b6103576108eb565b6040516103649190613e4e565b60405180910390f35b6103756108fe565b60405161038291906140ce565b60405180910390f35b6103a560048036038101906103a091906140e9565b610904565b6040516103b59493929190614173565b60405180910390f35b6103c6610980565b005b6103d0610a06565b6040516103dd91906140ce565b60405180910390f35b61040060048036038101906103fb91906140e9565b610a0c565b6040516104109493929190614173565b60405180910390f35b610421610a88565b60405161042e9190614217565b60405180910390f35b610451600480360381019061044c9190614268565b610aae565b60405161045e91906142c5565b60405180910390f35b61046f610af5565b60405161047c91906142fb565b60405180910390f35b61048d610b0c565b60405161049a91906140ce565b60405180910390f35b6104bd60048036038101906104b89190614465565b610b12565b005b6104c7610d43565b005b6104d1610dcb565b6040516104de91906140ce565b60405180910390f35b6104ef610dd1565b005b6104f9610ec5565b005b610503610f4b565b60405161051091906144c1565b60405180910390f35b610521610f75565b60405161052e91906140ce565b60405180910390f35b610551600480360381019061054c91906146a9565b610f7b565b005b61055b6114e7565b6040516105689190613e4e565b60405180910390f35b6105796114fa565b6040516105869190613e4e565b60405180910390f35b61059761150d565b6040516105a49190613e85565b60405180910390f35b6105c760048036038101906105c2919061475b565b611520565b005b6105d16118d5565b6040516105de9190613e85565b60405180910390f35b6105ef6118e8565b6040516105fc91906140ce565b60405180910390f35b61061f600480360381019061061a91906147bb565b6118ee565b60405161062c91906140ce565b60405180910390f35b61064f600480360381019061064a9190614a05565b61191f565b005b610659611db8565b6040516106669190613e85565b60405180910390f35b610677611dcb565b6040516106849190613eb9565b60405180910390f35b610695611dd1565b6040516106a291906140ce565b60405180910390f35b6106c560048036038101906106c09190614b23565b611dd7565b005b6106e160048036038101906106dc91906140e9565b612364565b6040516106ee91906142fb565b60405180910390f35b6106ff612439565b60405161070c91906140ce565b60405180910390f35b61072f600480360381019061072a9190614b83565b61243f565b005b610739612537565b60405161074691906140ce565b60405180910390f35b60ac60169054906101000a900460ff1681565b609d60009054906101000a900460000b81565b60aa5481565b60008073ffffffffffffffffffffffffffffffffffffffff168573ffffffffffffffffffffffffffffffffffffffff16146107eb576040517f08c379a00000000000000000000000000000000000000000000000000000000081526004016107e290614c33565b60405180910390fd5b63150b7a0260e01b905095945050505050565b60a35481565b600080609760009054906101000a900473ffffffffffffffffffffffffffffffffffffffff1673ffffffffffffffffffffffffffffffffffffffff1663e05c57bf846040518263ffffffff1660e01b815260040161086291906140ce565b61014060405180830381865afa158015610880573d6000803e3d6000fd5b505050506040513d601f19601f820116820180604052508101906108a49190614c7d565b909192939495969798509091929394959697509091929394959650909192939495509091929394509091929350909192509091508092508193505050915091565b60a15481565b60a960009054906101000a900460ff1681565b60a55481565b609a6020528060005260406000206000915090508060000154908060010160009054906101000a900473ffffffffffffffffffffffffffffffffffffffff16908060010160149054906101000a900469ffffffffffffffffffff16908060020160009054906101000a900469ffffffffffffffffffff16905084565b61098861253d565b73ffffffffffffffffffffffffffffffffffffffff166109a6610f4b565b73ffffffffffffffffffffffffffffffffffffffff16146109fc576040517f08c379a00000000000000000000000000000000000000000000000000000000081526004016109f390614da8565b60405180910390fd5b610a04612545565b565b609f5481565b60996020528060005260406000206000915090508060000154908060010160009054906101000a900473ffffffffffffffffffffffffffffffffffffffff16908060010160149054906101000a900469ffffffffffffffffffff16908060020160009054906101000a900469ffffffffffffffffffff16905084565b609860009054906101000a900473ffffffffffffffffffffffffffffffffffffffff1681565b609c6020528160005260406000208181548110610aca57600080fd5b9060005260206000209060109182820401919006600202915091509054906101000a900461ffff1681565b6000606560009054906101000a900460ff16905090565b60a85481565b600060019054906101000a900460ff16610b3a5760008054906101000a900460ff1615610b43565b610b426125e7565b5b610b82576040517f08c379a0000000000000000000000000000000000000000000000000000000008152600401610b7990614e3a565b60405180910390fd5b60008060019054906101000a900460ff161590508015610bd2576001600060016101000a81548160ff02191690831515021790555060016000806101000a81548160ff0219169083151502179055505b610bda6125f8565b610be2612659565b82600081518110610bf657610bf5614e5a565b5b6020026020010151609760006101000a81548173ffffffffffffffffffffffffffffffffffffffff021916908373ffffffffffffffffffffffffffffffffffffffff16021790555082600181518110610c5257610c51614e5a565b5b6020026020010151609860006101000a81548173ffffffffffffffffffffffffffffffffffffffff021916908373ffffffffffffffffffffffffffffffffffffffff1602179055508160a0819055506000609d60006101000a81548160ff021916908360000b60ff1602179055506000609d60016101000a81548160ff021916908360000b60ff1602179055506000609d60026101000a81548160ff021916908360000b60ff1602179055506000609d60036101000a81548160ff021916908360000b60ff1602179055508015610d3e5760008060016101000a81548160ff0219169083151502179055505b505050565b610d4b61253d565b73ffffffffffffffffffffffffffffffffffffffff16610d69610f4b565b73ffffffffffffffffffffffffffffffffffffffff1614610dbf576040517f08c379a0000000000000000000000000000000000000000000000000000000008152600401610db690614da8565b60405180910390fd5b610dc960006126ba565b565b60a25481565b600060019054906101000a900460ff16610df95760008054906101000a900460ff1615610e02565b610e016125e7565b5b610e41576040517f08c379a0000000000000000000000000000000000000000000000000000000008152600401610e3890614e3a565b60405180910390fd5b60008060019054906101000a900460ff161590508015610e91576001600060016101000a81548160ff02191690831515021790555060016000806101000a81548160ff0219169083151502179055505b610e996125f8565b610ea1612659565b8015610ec25760008060016101000a81548160ff0219169083151502179055505b50565b610ecd61253d565b73ffffffffffffffffffffffffffffffffffffffff16610eeb610f4b565b73ffffffffffffffffffffffffffffffffffffffff1614610f41576040517f08c379a0000000000000000000000000000000000000000000000000000000008152600401610f3890614da8565b60405180910390fd5b610f49612780565b565b6000603360009054906101000a900473ffffffffffffffffffffffffffffffffffffffff16905090565b60a45481565b610f83610af5565b15610fc3576040517f08c379a0000000000000000000000000000000000000000000000000000000008152600401610fba90614ed5565b60405180910390fd5b609860009054906101000a900473ffffffffffffffffffffffffffffffffffffffff1673ffffffffffffffffffffffffffffffffffffffff163373ffffffffffffffffffffffffffffffffffffffff1614611053576040517f08c379a000000000000000000000000000000000000000000000000000000000815260040161104a90614f41565b60405180910390fd5b6000609c60008460000151815260200190815260200160002080549050116110b0576040517f08c379a00000000000000000000000000000000000000000000000000000000081526004016110a790614fad565b60405180910390fd5b6000609c60008460000151815260200190815260200160002080548060200260200160405190810160405280929190818152602001828054801561113b57602002820191906000526020600020906000905b82829054906101000a900461ffff1661ffff16815260200190600201906020826001010492830192600103820291508084116111025790505b50505050509050609c60008460000151815260200190815260200160002060006111659190613d3f565b6000805b82518110156114c857600061118386604001516000612823565b90506111ac84838151811061119b5761119a614e5a565b5b602002602001015161ffff16612364565b15611200576111ee8483815181106111c7576111c6614e5a565b5b602002602001015161ffff1687604001518315806111e6575088608001515b84158961294b565b836111f99190614ffc565b925061124b565b61123d84838151811061121657611215614e5a565b5b602002602001015161ffff168760400151831580611235575088608001515b841589612df5565b836112489190614ffc565b92505b60005b609b6000886040015173ffffffffffffffffffffffffffffffffffffffff1673ffffffffffffffffffffffffffffffffffffffff168152602001908152602001600020805490508110156114b3578483815181106112af576112ae614e5a565b5b602002602001015161ffff16609b6000896040015173ffffffffffffffffffffffffffffffffffffffff1673ffffffffffffffffffffffffffffffffffffffff16815260200190815260200160002082815481106113105761130f614e5a565b5b906000526020600020015414156114a057609b6000886040015173ffffffffffffffffffffffffffffffffffffffff1673ffffffffffffffffffffffffffffffffffffffff1681526020019081526020016000206001609b60008a6040015173ffffffffffffffffffffffffffffffffffffffff1673ffffffffffffffffffffffffffffffffffffffff168152602001908152602001600020805490506113b79190615052565b815481106113c8576113c7614e5a565b5b9060005260206000200154609b6000896040015173ffffffffffffffffffffffffffffffffffffffff1673ffffffffffffffffffffffffffffffffffffffff168152602001908152602001600020828154811061142857611427614e5a565b5b9060005260206000200181905550609b6000886040015173ffffffffffffffffffffffffffffffffffffffff1673ffffffffffffffffffffffffffffffffffffffff16815260200190815260200160002080548061148957611488615086565b5b600190038181906000526020600020016000905590555b80806114ab906150b5565b91505061124e565b505080806114c0906150b5565b915050611169565b5060008111156114e1576114e08460400151826132a2565b5b50505050565b60ac60149054906101000a900460ff1681565b60ac60159054906101000a900460ff1681565b609d60029054906101000a900460000b81565b611528610af5565b15611568576040517f08c379a000000000000000000000000000000000000000000000000000000000815260040161155f90614ed5565b60405180910390fd5b60005b838390508110156117fc5760006115ac85858481811061158e5761158d614e5a565b5b90506020020160208101906115a391906150fe565b61ffff16612364565b6115f357609a60008686858181106115c7576115c6614e5a565b5b90506020020160208101906115dc91906150fe565b61ffff168152602001908152602001600020611632565b6099600086868581811061160a57611609614e5a565b5b905060200201602081019061161f91906150fe565b61ffff1681526020019081526020016000205b604051806080016040529081600082015481526020016001820160009054906101000a900473ffffffffffffffffffffffffffffffffffffffff1673ffffffffffffffffffffffffffffffffffffffff1673ffffffffffffffffffffffffffffffffffffffff1681526020016001820160149054906101000a900469ffffffffffffffffffff1669ffffffffffffffffffff1669ffffffffffffffffffff1681526020016002820160009054906101000a900469ffffffffffffffffffff1669ffffffffffffffffffff1669ffffffffffffffffffff1681525050905061171761253d565b73ffffffffffffffffffffffffffffffffffffffff16816020015173ffffffffffffffffffffffffffffffffffffffff1614611788576040517f08c379a000000000000000000000000000000000000000000000000000000000815260040161177f90615177565b60405180910390fd5b60a254816060015169ffffffffffffffffffff16426117a79190615052565b10156117e8576040517f08c379a00000000000000000000000000000000000000000000000000000000081526004016117df906151e3565b60405180910390fd5b5080806117f4906150b5565b91505061156b565b506000609860009054906101000a900473ffffffffffffffffffffffffffffffffffffffff1673ffffffffffffffffffffffffffffffffffffffff16635bdf263c61184561253d565b8686866040518563ffffffff1660e01b815260040161186794939291906152c6565b6020604051808303816000875af1158015611886573d6000803e3d6000fd5b505050506040513d601f19601f820116820180604052508101906118aa919061531b565b90508383609c600084815260200190815260200160002091906118ce929190613d67565b5050505050565b609d60019054906101000a900460000b81565b60a65481565b609b602052816000526040600020818154811061190a57600080fd5b90600052602060002001600091509150505481565b600060019054906101000a900460ff166119475760008054906101000a900460ff1615611950565b61194f6125e7565b5b61198f576040517f08c379a000000000000000000000000000000000000000000000000000000000815260040161198690614e3a565b60405180910390fd5b60008060019054906101000a900460ff1615905080156119df576001600060016101000a81548160ff02191690831515021790555060016000806101000a81548160ff0219169083151502179055505b6119e76125f8565b6119ef612659565b600060a681905550600060a181905550600060a881905550600160ac60146101000a81548160ff021916908360ff16021790555089600081518110611a3757611a36614e5a565b5b6020026020010151609760006101000a81548173ffffffffffffffffffffffffffffffffffffffff021916908373ffffffffffffffffffffffffffffffffffffffff16021790555089600181518110611a9357611a92614e5a565b5b6020026020010151609860006101000a81548173ffffffffffffffffffffffffffffffffffffffff021916908373ffffffffffffffffffffffffffffffffffffffff16021790555089600281518110611aef57611aee614e5a565b5b602002602001015160ad60006101000a81548173ffffffffffffffffffffffffffffffffffffffff021916908373ffffffffffffffffffffffffffffffffffffffff16021790555089600381518110611b4b57611b4a614e5a565b5b602002602001015160ac60006101000a81548173ffffffffffffffffffffffffffffffffffffffff021916908373ffffffffffffffffffffffffffffffffffffffff160217905550670de0b6b3a764000089611ba79190615348565b60a381905550670de0b6b3a764000088600081518110611bca57611bc9614e5a565b5b6020026020010151611bdc9190615348565b60a48190555087600181518110611bf657611bf5614e5a565b5b602002602001015160a58190555087600281518110611c1857611c17614e5a565b5b602002602001015160a28190555087600381518110611c3a57611c39614e5a565b5b602002602001015160a08190555086600081518110611c5c57611c5b614e5a565b5b6020026020010151609d60006101000a81548160ff021916908360000b60ff16021790555086600181518110611c9557611c94614e5a565b5b6020026020010151609d60016101000a81548160ff021916908360000b60ff16021790555086600281518110611cce57611ccd614e5a565b5b6020026020010151609d60026101000a81548160ff021916908360000b60ff16021790555086600381518110611d0757611d06614e5a565b5b6020026020010151609d60036101000a81548160ff021916908360000b60ff1602179055508560ac60166101000a81548160ff021916908360ff1602179055508460ac60156101000a81548160ff021916908360ff1602179055508360a960006101000a81548160ff021916908360ff1602179055508260aa819055508160ab819055508015611dac5760008060016101000a81548160ff0219169083151502179055505b50505050505050505050565b609d60039054906101000a900460000b81565b60ab5481565b60a75481565b611ddf61253d565b73ffffffffffffffffffffffffffffffffffffffff168373ffffffffffffffffffffffffffffffffffffffff161480611e6c5750609760009054906101000a900473ffffffffffffffffffffffffffffffffffffffff1673ffffffffffffffffffffffffffffffffffffffff16611e5461253d565b73ffffffffffffffffffffffffffffffffffffffff16145b611eab576040517f08c379a0000000000000000000000000000000000000000000000000000000008152600401611ea2906153ee565b60405180910390fd5b611ebf611eb661253d565b83839050612823565b611efe576040517f08c379a0000000000000000000000000000000000000000000000000000000008152600401611ef59061545a565b60405180910390fd5b60005b8282905081101561235e57609760009054906101000a900473ffffffffffffffffffffffffffffffffffffffff1673ffffffffffffffffffffffffffffffffffffffff16611f4d61253d565b73ffffffffffffffffffffffffffffffffffffffff161461216357611f7061253d565b73ffffffffffffffffffffffffffffffffffffffff16609760009054906101000a900473ffffffffffffffffffffffffffffffffffffffff1673ffffffffffffffffffffffffffffffffffffffff16636352211e858585818110611fd757611fd6614e5a565b5b9050602002016020810190611fec91906150fe565b6040518263ffffffff1660e01b815260040161200891906154ab565b602060405180830381865afa158015612025573d6000803e3d6000fd5b505050506040513d601f19601f8201168201806040525081019061204991906154db565b73ffffffffffffffffffffffffffffffffffffffff161461209f576040517f08c379a000000000000000000000000000000000000000000000000000000000815260040161209690615177565b60405180910390fd5b609760009054906101000a900473ffffffffffffffffffffffffffffffffffffffff1673ffffffffffffffffffffffffffffffffffffffff166323b872dd6120e561253d565b308686868181106120f9576120f8614e5a565b5b905060200201602081019061210e91906150fe565b6040518463ffffffff1660e01b815260040161212c93929190615508565b600060405180830381600087803b15801561214657600080fd5b505af115801561215a573d6000803e3d6000fd5b5050505061219d565b600083838381811061217857612177614e5a565b5b905060200201602081019061218d91906150fe565b61ffff16141561219c5761234b565b5b6121d18383838181106121b3576121b2614e5a565b5b90506020020160208101906121c891906150fe565b61ffff16613335565b612210576040517f08c379a00000000000000000000000000000000000000000000000000000000081526004016122079061558b565b60405180910390fd5b61224483838381811061222657612225614e5a565b5b905060200201602081019061223b91906150fe565b61ffff16612364565b156122835761227e848484848181106122605761225f614e5a565b5b905060200201602081019061227591906150fe565b61ffff16613365565b6122b9565b6122b88484848481811061229a57612299614e5a565b5b90506020020160208101906122af91906150fe565b61ffff16613524565b5b609b60008573ffffffffffffffffffffffffffffffffffffffff1673ffffffffffffffffffffffffffffffffffffffff16815260200190815260200160002083838381811061230b5761230a614e5a565b5b905060200201602081019061232091906150fe565b908060018154018082558091505060019003906000526020600020016000909161ffff169091909150555b8080612356906150b5565b915050611f01565b50505050565b6000609760009054906101000a900473ffffffffffffffffffffffffffffffffffffffff1673ffffffffffffffffffffffffffffffffffffffff1663e05c57bf836040518263ffffffff1660e01b81526004016123c191906140ce565b61014060405180830381865afa1580156123df573d6000803e3d6000fd5b505050506040513d601f19601f820116820180604052508101906124039190614c7d565b90919293949596975090919293949596509091929394955090919293945090919293509091925090915090505080915050919050565b609e5481565b61244761253d565b73ffffffffffffffffffffffffffffffffffffffff16612465610f4b565b73ffffffffffffffffffffffffffffffffffffffff16146124bb576040517f08c379a00000000000000000000000000000000000000000000000000000000081526004016124b290614da8565b60405180910390fd5b600073ffffffffffffffffffffffffffffffffffffffff168173ffffffffffffffffffffffffffffffffffffffff16141561252b576040517f08c379a00000000000000000000000000000000000000000000000000000000081526004016125229061561d565b60405180910390fd5b612534816126ba565b50565b60a05481565b600033905090565b61254d610af5565b61258c576040517f08c379a000000000000000000000000000000000000000000000000000000000815260040161258390615689565b60405180910390fd5b6000606560006101000a81548160ff0219169083151502179055507f5db9ee0a495bf2e6ff9c91a7834c1ba4fdd244a5e8aa4e537bd38aeae4b073aa6125d061253d565b6040516125dd91906144c1565b60405180910390a1565b60006125f2306136ec565b15905090565b600060019054906101000a900460ff16612647576040517f08c379a000000000000000000000000000000000000000000000000000000000815260040161263e9061571b565b60405180910390fd5b61264f6136ff565b612657613750565b565b600060019054906101000a900460ff166126a8576040517f08c379a000000000000000000000000000000000000000000000000000000000815260040161269f9061571b565b60405180910390fd5b6126b06136ff565b6126b86137b1565b565b6000603360009054906101000a900473ffffffffffffffffffffffffffffffffffffffff16905081603360006101000a81548173ffffffffffffffffffffffffffffffffffffffff021916908373ffffffffffffffffffffffffffffffffffffffff1602179055508173ffffffffffffffffffffffffffffffffffffffff168173ffffffffffffffffffffffffffffffffffffffff167f8be0079c531659141344cd1fd0a4f28419497f9722a3daafe3b4186f6b6457e060405160405180910390a35050565b612788610af5565b156127c8576040517f08c379a00000000000000000000000000000000000000000000000000000000081526004016127bf90614ed5565b60405180910390fd5b6001606560006101000a81548160ff0219169083151502179055507f62e78cea01bee320cd4e420270b5ea74000d11b0c9f74754ebdbfc544b05a25861280c61253d565b60405161281991906144c1565b60405180910390a1565b60008060ac60009054906101000a900473ffffffffffffffffffffffffffffffffffffffff1673ffffffffffffffffffffffffffffffffffffffff1662fdd58e8560ac60149054906101000a900460ff166040518363ffffffff1660e01b815260040161289192919061576c565b602060405180830381865afa1580156128ae573d6000803e3d6000fd5b505050506040513d601f19601f820116820180604052508101906128d291906157aa565b905082609b60008673ffffffffffffffffffffffffffffffffffffffff1673ffffffffffffffffffffffffffffffffffffffff168152602001908152602001600020805490506129229190614ffc565b60ac60159054906101000a900460ff1660ff16826129409190615348565b101591505092915050565b60008060996000888152602001908152602001600020604051806080016040529081600082015481526020016001820160009054906101000a900473ffffffffffffffffffffffffffffffffffffffff1673ffffffffffffffffffffffffffffffffffffffff1673ffffffffffffffffffffffffffffffffffffffff1681526020016001820160149054906101000a900469ffffffffffffffffffff1669ffffffffffffffffffff1669ffffffffffffffffffff1681526020016002820160009054906101000a900469ffffffffffffffffffff1669ffffffffffffffffffff1669ffffffffffffffffffff168152505090508573ffffffffffffffffffffffffffffffffffffffff16816020015173ffffffffffffffffffffffffffffffffffffffff1614612ab0576040517f08c379a0000000000000000000000000000000000000000000000000000000008152600401612aa790615177565b60405180910390fd5b60a254816060015169ffffffffffffffffffff1642612acf9190615052565b1015612b10576040517f08c379a0000000000000000000000000000000000000000000000000000000008152600401612b07906151e3565b60405180910390fd5b83612b2357612b1e8161381d565b612b26565b60005b91506000806000612b378a8761396b565b925092509250612b468a613335565b612b4f57600197505b8715612c8257609760009054906101000a900473ffffffffffffffffffffffffffffffffffffffff1673ffffffffffffffffffffffffffffffffffffffff1663b88d4fde308b8d6040518463ffffffff1660e01b8152600401612bb49392919061580e565b600060405180830381600087803b158015612bce57600080fd5b505af1158015612be2573d6000803e3d6000fd5b50505050609960008b81526020019081526020016000206000808201600090556001820160006101000a81549073ffffffffffffffffffffffffffffffffffffffff02191690556001820160146101000a81549069ffffffffffffffffffff02191690556002820160006101000a81549069ffffffffffffffffffff02191690555050609e6000815480929190612c7890615858565b9190505550612da3565b60405180608001604052808b61ffff1681526020018a73ffffffffffffffffffffffffffffffffffffffff1681526020014269ffffffffffffffffffff1681526020014269ffffffffffffffffffff16815250609960008c81526020019081526020016000206000820151816000015560208201518160010160006101000a81548173ffffffffffffffffffffffffffffffffffffffff021916908373ffffffffffffffffffffffffffffffffffffffff16021790555060408201518160010160146101000a81548169ffffffffffffffffffff021916908369ffffffffffffffffffff16021790555060608201518160020160006101000a81548169ffffffffffffffffffff021916908369ffffffffffffffffffff1602179055509050505b7f9b394c66bc4fdb2f56f5842a796076e6552d6f15eaacb6e63e3c53b474d872e98a868a86868660a154604051612de097969594939291906158f9565b60405180910390a15050505095945050505050565b600080609a6000888152602001908152602001600020604051806080016040529081600082015481526020016001820160009054906101000a900473ffffffffffffffffffffffffffffffffffffffff1673ffffffffffffffffffffffffffffffffffffffff1673ffffffffffffffffffffffffffffffffffffffff1681526020016001820160149054906101000a900469ffffffffffffffffffff1669ffffffffffffffffffff1669ffffffffffffffffffff1681526020016002820160009054906101000a900469ffffffffffffffffffff1669ffffffffffffffffffff1669ffffffffffffffffffff168152505090508573ffffffffffffffffffffffffffffffffffffffff16816020015173ffffffffffffffffffffffffffffffffffffffff1614612f5a576040517f08c379a0000000000000000000000000000000000000000000000000000000008152600401612f5190615177565b60405180910390fd5b60a254816060015169ffffffffffffffffffff1642612f799190615052565b1015612fba576040517f08c379a0000000000000000000000000000000000000000000000000000000008152600401612fb1906151e3565b60405180910390fd5b83612fcd57612fc881613b29565b612fd0565b60005b91506000806000612fe18a8761396b565b925092509250612ff08a613335565b612ff957600197505b871561312c57609760009054906101000a900473ffffffffffffffffffffffffffffffffffffffff1673ffffffffffffffffffffffffffffffffffffffff1663b88d4fde308b8d6040518463ffffffff1660e01b815260040161305e9392919061580e565b600060405180830381600087803b15801561307857600080fd5b505af115801561308c573d6000803e3d6000fd5b50505050609a60008b81526020019081526020016000206000808201600090556001820160006101000a81549073ffffffffffffffffffffffffffffffffffffffff02191690556001820160146101000a81549069ffffffffffffffffffff02191690556002820160006101000a81549069ffffffffffffffffffff02191690555050609f600081548092919061312290615858565b9190505550613254565b60405180608001604052808b61ffff1681526020018a73ffffffffffffffffffffffffffffffffffffffff168152602001613165613c3d565b69ffffffffffffffffffff1681526020014269ffffffffffffffffffff16815250609a60008c81526020019081526020016000206000820151816000015560208201518160010160006101000a81548173ffffffffffffffffffffffffffffffffffffffff021916908373ffffffffffffffffffffffffffffffffffffffff16021790555060408201518160010160146101000a81548169ffffffffffffffffffff021916908369ffffffffffffffffffff16021790555060608201518160020160006101000a81548169ffffffffffffffffffff021916908369ffffffffffffffffffff1602179055509050505b7f6e949c62565860afb9dd6295e998a1c40005fe9560aedf8d596717681cfc7a1f8a868a86868660405161328d9695949392919061596f565b60405180910390a15050505095945050505050565b60ad60009054906101000a900473ffffffffffffffffffffffffffffffffffffffff1673ffffffffffffffffffffffffffffffffffffffff166340c10f1983836040518363ffffffff1660e01b81526004016132ff9291906159d7565b600060405180830381600087803b15801561331957600080fd5b505af115801561332d573d6000803e3d6000fd5b505050505050565b60008061334183610804565b50905060ac60169054906101000a900460ff1660ff168160ff161015915050919050565b61336d610af5565b156133ad576040517f08c379a00000000000000000000000000000000000000000000000000000000081526004016133a490614ed5565b60405180910390fd5b60405180608001604052808261ffff1681526020018373ffffffffffffffffffffffffffffffffffffffff1681526020014269ffffffffffffffffffff1681526020014269ffffffffffffffffffff16815250609960008381526020019081526020016000206000820151816000015560208201518160010160006101000a81548173ffffffffffffffffffffffffffffffffffffffff021916908373ffffffffffffffffffffffffffffffffffffffff16021790555060408201518160010160146101000a81548169ffffffffffffffffffff021916908369ffffffffffffffffffff16021790555060608201518160020160006101000a81548169ffffffffffffffffffff021916908369ffffffffffffffffffff160217905550905050609e60008154809291906134e0906150b5565b91905055507f8af1bb49fb16c7835975aa59449ba4328dd54737dfb2ae9fa6c5eca71fda51f981834260405161351893929190615a00565b60405180910390a15050565b61352c610af5565b1561356c576040517f08c379a000000000000000000000000000000000000000000000000000000000815260040161356390614ed5565b60405180910390fd5b60405180608001604052808261ffff1681526020018373ffffffffffffffffffffffffffffffffffffffff1681526020016135a5613c3d565b69ffffffffffffffffffff1681526020014269ffffffffffffffffffff16815250609a60008381526020019081526020016000206000820151816000015560208201518160010160006101000a81548173ffffffffffffffffffffffffffffffffffffffff021916908373ffffffffffffffffffffffffffffffffffffffff16021790555060408201518160010160146101000a81548169ffffffffffffffffffff021916908369ffffffffffffffffffff16021790555060608201518160020160006101000a81548169ffffffffffffffffffff021916908369ffffffffffffffffffff160217905550905050609f60008154809291906136a6906150b5565b91905055507f8af1bb49fb16c7835975aa59449ba4328dd54737dfb2ae9fa6c5eca71fda51f9818360a1546040516136e093929190615a00565b60405180910390a15050565b600080823b905060008111915050919050565b600060019054906101000a900460ff1661374e576040517f08c379a00000000000000000000000000000000000000000000000000000000081526004016137459061571b565b60405180910390fd5b565b600060019054906101000a900460ff1661379f576040517f08c379a00000000000000000000000000000000000000000000000000000000081526004016137969061571b565b60405180910390fd5b6137af6137aa61253d565b6126ba565b565b600060019054906101000a900460ff16613800576040517f08c379a00000000000000000000000000000000000000000000000000000000081526004016137f79061571b565b60405180910390fd5b6000606560006101000a81548160ff021916908315150217905550565b60008061382d8360000151610804565b509050600060a054846040015169ffffffffffffffffffff16426138519190615052565b60a45461385e9190615348565b6138689190615a66565b90506000600a60a960009054906101000a900460ff1660ff168460ff1661388f9190615348565b6138999190615348565b620186a06138a79190614ffc565b9050620186a081836138b99190615348565b6138c39190615a66565b935060a3548460a7546138d69190614ffc565b11156138ef5760a75460a3546138ec9190615052565b93505b6000841115613963574260a881905550613921606460a554866139129190615348565b61391c9190615a66565b613c47565b606460a55460646139329190615052565b8561393d9190615348565b6139479190615a66565b93508360a7600082825461395b9190614ffc565b925050819055505b505050919050565b6000806060600061397b86612364565b6139b157609a600087815260200190815260200160002060020160009054906101000a900469ffffffffffffffffffff166139df565b6099600087815260200190815260200160002060020160009054906101000a900469ffffffffffffffffffff165b69ffffffffffffffffffff16426139f69190615052565b90506000613a0387612364565b9050609760009054906101000a900473ffffffffffffffffffffffffffffffffffffffff1673ffffffffffffffffffffffffffffffffffffffff166363dbfc7788613a7884613a6157609d60029054906101000a900460000b613a72565b609d60009054906101000a900460000b5b86613caf565b613aac85613a9557609d60039054906101000a900460000b613aa6565b609d60019054906101000a900460000b5b87613caf565b8a6040518563ffffffff1660e01b8152600401613acc9493929190615a97565b6000604051808303816000875af1158015613aeb573d6000803e3d6000fd5b505050506040513d6000823e3d601f19601f82011682018060405250810190613b149190615b82565b80955081965082975050505050509250925092565b600080613b398360000151610804565b9150506000836040015169ffffffffffffffffffff1660a154613b5c9190615052565b905060006103e860ab54613b709190615bf1565b60646103e860aa5460328760ff161115613b9657866064613b919190615d08565b613b98565b865b60000b613ba59190615bf1565b613baf9190615bf1565b613bb99190615d3c565b613bc39190615da6565b9050620186a08183613bd59190615348565b613bdf9190615a66565b935060a3548460a754613bf29190614ffc565b1115613c0b5760a75460a354613c089190615052565b93505b6000841115613c35574260a8819055508360a76000828254613c2d9190614ffc565b925050819055505b505050919050565b600060a154905090565b6000609f541415613c70578060a66000828254613c649190614ffc565b92505081905550613cac565b609f5460a65482613c819190614ffc565b613c8b9190615a66565b60a16000828254613c9c9190614ffc565b92505081905550600060a6819055505b50565b60008060a0548460000b84613cc49190615bf1565b613cce9190615d3c565b90506064811315613ce3576064915050613d39565b7fffffffffffffffffffffffffffffffffffffffffffffffffffffffffffffff9c811215613d34577fffffffffffffffffffffffffffffffffffffffffffffffffffffffffffffff9c915050613d39565b809150505b92915050565b50805460008255600f016010900490600052602060002090810190613d649190613e15565b50565b82805482825590600052602060002090600f01601090048101928215613e045791602002820160005b83821115613dd457833561ffff1683826101000a81548161ffff021916908361ffff1602179055509260200192600201602081600101049283019260010302613d90565b8015613e025782816101000a81549061ffff0219169055600201602081600101049283019260010302613dd4565b505b509050613e119190613e15565b5090565b5b80821115613e2e576000816000905550600101613e16565b5090565b600060ff82169050919050565b613e4881613e32565b82525050565b6000602082019050613e636000830184613e3f565b92915050565b60008160000b9050919050565b613e7f81613e69565b82525050565b6000602082019050613e9a6000830184613e76565b92915050565b6000819050919050565b613eb381613ea0565b82525050565b6000602082019050613ece6000830184613eaa565b92915050565b6000604051905090565b600080fd5b600080fd5b600073ffffffffffffffffffffffffffffffffffffffff82169050919050565b6000613f1382613ee8565b9050919050565b613f2381613f08565b8114613f2e57600080fd5b50565b600081359050613f4081613f1a565b92915050565b6000819050919050565b613f5981613f46565b8114613f6457600080fd5b50565b600081359050613f7681613f50565b92915050565b600080fd5b600080fd5b600080fd5b60008083601f840112613fa157613fa0613f7c565b5b8235905067ffffffffffffffff811115613fbe57613fbd613f81565b5b602083019150836001820283011115613fda57613fd9613f86565b5b9250929050565b600080600080600060808688031215613ffd57613ffc613ede565b5b600061400b88828901613f31565b955050602061401c88828901613f31565b945050604061402d88828901613f67565b935050606086013567ffffffffffffffff81111561404e5761404d613ee3565b5b61405a88828901613f8b565b92509250509295509295909350565b60007fffffffff0000000000000000000000000000000000000000000000000000000082169050919050565b61409e81614069565b82525050565b60006020820190506140b96000830184614095565b92915050565b6140c881613f46565b82525050565b60006020820190506140e360008301846140bf565b92915050565b6000602082840312156140ff576140fe613ede565b5b600061410d84828501613f67565b91505092915050565b600060408201905061412b6000830185613e3f565b6141386020830184613e3f565b9392505050565b61414881613f08565b82525050565b600069ffffffffffffffffffff82169050919050565b61416d8161414e565b82525050565b600060808201905061418860008301876140bf565b614195602083018661413f565b6141a26040830185614164565b6141af6060830184614164565b95945050505050565b6000819050919050565b60006141dd6141d86141d384613ee8565b6141b8565b613ee8565b9050919050565b60006141ef826141c2565b9050919050565b6000614201826141e4565b9050919050565b614211816141f6565b82525050565b600060208201905061422c6000830184614208565b92915050565b6000819050919050565b61424581614232565b811461425057600080fd5b50565b6000813590506142628161423c565b92915050565b6000806040838503121561427f5761427e613ede565b5b600061428d85828601614253565b925050602061429e85828601613f67565b9150509250929050565b600061ffff82169050919050565b6142bf816142a8565b82525050565b60006020820190506142da60008301846142b6565b92915050565b60008115159050919050565b6142f5816142e0565b82525050565b600060208201905061431060008301846142ec565b92915050565b6000601f19601f8301169050919050565b7f4e487b7100000000000000000000000000000000000000000000000000000000600052604160045260246000fd5b61435f82614316565b810181811067ffffffffffffffff8211171561437e5761437d614327565b5b80604052505050565b6000614391613ed4565b905061439d8282614356565b919050565b600067ffffffffffffffff8211156143bd576143bc614327565b5b602082029050602081019050919050565b60006143e16143dc846143a2565b614387565b9050808382526020820190506020840283018581111561440457614403613f86565b5b835b8181101561442d57806144198882613f31565b845260208401935050602081019050614406565b5050509392505050565b600082601f83011261444c5761444b613f7c565b5b813561445c8482602086016143ce565b91505092915050565b6000806040838503121561447c5761447b613ede565b5b600083013567ffffffffffffffff81111561449a57614499613ee3565b5b6144a685828601614437565b92505060206144b785828601613f67565b9150509250929050565b60006020820190506144d6600083018461413f565b92915050565b600080fd5b600080fd5b600067ffffffffffffffff82111561450157614500614327565b5b602082029050602081019050919050565b61451b816142a8565b811461452657600080fd5b50565b60008135905061453881614512565b92915050565b600061455161454c846144e6565b614387565b9050808382526020820190506020840283018581111561457457614573613f86565b5b835b8181101561459d57806145898882614529565b845260208401935050602081019050614576565b5050509392505050565b600082601f8301126145bc576145bb613f7c565b5b81356145cc84826020860161453e565b91505092915050565b6145de816142e0565b81146145e957600080fd5b50565b6000813590506145fb816145d5565b92915050565b600060a08284031215614617576146166144dc565b5b61462160a0614387565b9050600061463184828501614253565b600083015250602061464584828501613f31565b602083015250604061465984828501613f31565b604083015250606082013567ffffffffffffffff81111561467d5761467c6144e1565b5b614689848285016145a7565b606083015250608061469d848285016145ec565b60808301525092915050565b600080604083850312156146c0576146bf613ede565b5b600083013567ffffffffffffffff8111156146de576146dd613ee3565b5b6146ea85828601614601565b92505060206146fb85828601613f67565b9150509250929050565b60008083601f84011261471b5761471a613f7c565b5b8235905067ffffffffffffffff81111561473857614737613f81565b5b60208301915083602082028301111561475457614753613f86565b5b9250929050565b60008060006040848603121561477457614773613ede565b5b600084013567ffffffffffffffff81111561479257614791613ee3565b5b61479e86828701614705565b935093505060206147b1868287016145ec565b9150509250925092565b600080604083850312156147d2576147d1613ede565b5b60006147e085828601613f31565b92505060206147f185828601613f67565b9150509250929050565b600067ffffffffffffffff82111561481657614815614327565b5b602082029050602081019050919050565b600061483a614835846147fb565b614387565b9050808382526020820190506020840283018581111561485d5761485c613f86565b5b835b8181101561488657806148728882613f67565b84526020840193505060208101905061485f565b5050509392505050565b600082601f8301126148a5576148a4613f7c565b5b81356148b5848260208601614827565b91505092915050565b600067ffffffffffffffff8211156148d9576148d8614327565b5b602082029050602081019050919050565b6148f381613e69565b81146148fe57600080fd5b50565b600081359050614910816148ea565b92915050565b6000614929614924846148be565b614387565b9050808382526020820190506020840283018581111561494c5761494b613f86565b5b835b8181101561497557806149618882614901565b84526020840193505060208101905061494e565b5050509392505050565b600082601f83011261499457614993613f7c565b5b81356149a4848260208601614916565b91505092915050565b6149b681613e32565b81146149c157600080fd5b50565b6000813590506149d3816149ad565b92915050565b6149e281613ea0565b81146149ed57600080fd5b50565b6000813590506149ff816149d9565b92915050565b60008060008060008060008060006101208a8c031215614a2857614a27613ede565b5b60008a013567ffffffffffffffff811115614a4657614a45613ee3565b5b614a528c828d01614437565b9950506020614a638c828d01613f67565b98505060408a013567ffffffffffffffff811115614a8457614a83613ee3565b5b614a908c828d01614890565b97505060608a013567ffffffffffffffff811115614ab157614ab0613ee3565b5b614abd8c828d0161497f565b9650506080614ace8c828d016149c4565b95505060a0614adf8c828d016149c4565b94505060c0614af08c828d016149c4565b93505060e0614b018c828d016149f0565b925050610100614b138c828d016149f0565b9150509295985092959850929598565b600080600060408486031215614b3c57614b3b613ede565b5b6000614b4a86828701613f31565b935050602084013567ffffffffffffffff811115614b6b57614b6a613ee3565b5b614b7786828701614705565b92509250509250925092565b600060208284031215614b9957614b98613ede565b5b6000614ba784828501613f31565b91505092915050565b600082825260208201905092915050565b7f43616e6e6f742073656e6420746f6b656e7320746f2056656e7565206469726560008201527f63746c7900000000000000000000000000000000000000000000000000000000602082015250565b6000614c1d602483614bb0565b9150614c2882614bc1565b604082019050919050565b60006020820190508181036000830152614c4c81614c10565b9050919050565b600081519050614c62816145d5565b92915050565b600081519050614c77816149ad565b92915050565b6000806000806000806000806000806101408b8d031215614ca157614ca0613ede565b5b6000614caf8d828e01614c53565b9a50506020614cc08d828e01614c68565b9950506040614cd18d828e01614c68565b9850506060614ce28d828e01614c68565b9750506080614cf38d828e01614c68565b96505060a0614d048d828e01614c68565b95505060c0614d158d828e01614c68565b94505060e0614d268d828e01614c68565b935050610100614d388d828e01614c68565b925050610120614d4a8d828e01614c68565b9150509295989b9194979a5092959850565b7f4f776e61626c653a2063616c6c6572206973206e6f7420746865206f776e6572600082015250565b6000614d92602083614bb0565b9150614d9d82614d5c565b602082019050919050565b60006020820190508181036000830152614dc181614d85565b9050919050565b7f496e697469616c697a61626c653a20636f6e747261637420697320616c72656160008201527f647920696e697469616c697a6564000000000000000000000000000000000000602082015250565b6000614e24602e83614bb0565b9150614e2f82614dc8565b604082019050919050565b60006020820190508181036000830152614e5381614e17565b9050919050565b7f4e487b7100000000000000000000000000000000000000000000000000000000600052603260045260246000fd5b7f5061757361626c653a2070617573656400000000000000000000000000000000600082015250565b6000614ebf601083614bb0565b9150614eca82614e89565b602082019050919050565b60006020820190508181036000830152614eee81614eb2565b9050919050565b7f4f6e6c7920436c61696d2063616e2066756c66696c6c00000000000000000000600082015250565b6000614f2b601683614bb0565b9150614f3682614ef5565b602082019050919050565b60006020820190508181036000830152614f5a81614f1e565b9050919050565b7f436c61696d2072657175657374206e6f7420666f756e64000000000000000000600082015250565b6000614f97601783614bb0565b9150614fa282614f61565b602082019050919050565b60006020820190508181036000830152614fc681614f8a565b9050919050565b7f4e487b7100000000000000000000000000000000000000000000000000000000600052601160045260246000fd5b600061500782613f46565b915061501283613f46565b9250827fffffffffffffffffffffffffffffffffffffffffffffffffffffffffffffffff0382111561504757615046614fcd565b5b828201905092915050565b600061505d82613f46565b915061506883613f46565b92508282101561507b5761507a614fcd565b5b828203905092915050565b7f4e487b7100000000000000000000000000000000000000000000000000000000600052603160045260246000fd5b60006150c082613f46565b91507fffffffffffffffffffffffffffffffffffffffffffffffffffffffffffffffff8214156150f3576150f2614fcd565b5b600182019050919050565b60006020828403121561511457615113613ede565b5b600061512284828501614529565b91505092915050565b7f4e6f7420796f757220746f6b656e000000000000000000000000000000000000600082015250565b6000615161600e83614bb0565b915061516c8261512b565b602082019050919050565b6000602082019050818103600083015261519081615154565b9050919050565b7f43616e6e6f7420636c61696d206265666f726520454f42000000000000000000600082015250565b60006151cd601783614bb0565b91506151d882615197565b602082019050919050565b600060208201905081810360008301526151fc816151c0565b9050919050565b600082825260208201905092915050565b6000819050919050565b615227816142a8565b82525050565b6000615239838361521e565b60208301905092915050565b60006152546020840184614529565b905092915050565b6000602082019050919050565b60006152758385615203565b935061528082615214565b8060005b858110156152b9576152968284615245565b6152a0888261522d565b97506152ab8361525c565b925050600181019050615284565b5085925050509392505050565b60006060820190506152db600083018761413f565b81810360208301526152ee818587615269565b90506152fd60408301846142ec565b95945050505050565b6000815190506153158161423c565b92915050565b60006020828403121561533157615330613ede565b5b600061533f84828501615306565b91505092915050565b600061535382613f46565b915061535e83613f46565b9250817fffffffffffffffffffffffffffffffffffffffffffffffffffffffffffffffff048311821515161561539757615396614fcd565b5b828202905092915050565b7f446f206e6f74206c6f736520796f757220746f6b656e73000000000000000000600082015250565b60006153d8601783614bb0565b91506153e3826153a2565b602082019050919050565b60006020820190508181036000830152615407816153cb565b9050919050565b7f4b69746368656e20737061636520726571756972656400000000000000000000600082015250565b6000615444601683614bb0565b915061544f8261540e565b602082019050919050565b6000602082019050818103600083015261547381615437565b9050919050565b600061549561549061548b846142a8565b6141b8565b613f46565b9050919050565b6154a58161547a565b82525050565b60006020820190506154c0600083018461549c565b92915050565b6000815190506154d581613f1a565b92915050565b6000602082840312156154f1576154f0613ede565b5b60006154ff848285016154c6565b91505092915050565b600060608201905061551d600083018661413f565b61552a602083018561413f565b615537604083018461549c565b949350505050565b7f4e6f7420656c696769626c650000000000000000000000000000000000000000600082015250565b6000615575600c83614bb0565b91506155808261553f565b602082019050919050565b600060208201905081810360008301526155a481615568565b9050919050565b7f4f776e61626c653a206e6577206f776e657220697320746865207a65726f206160008201527f6464726573730000000000000000000000000000000000000000000000000000602082015250565b6000615607602683614bb0565b9150615612826155ab565b604082019050919050565b60006020820190508181036000830152615636816155fa565b9050919050565b7f5061757361626c653a206e6f7420706175736564000000000000000000000000600082015250565b6000615673601483614bb0565b915061567e8261563d565b602082019050919050565b600060208201905081810360008301526156a281615666565b9050919050565b7f496e697469616c697a61626c653a20636f6e7472616374206973206e6f74206960008201527f6e697469616c697a696e67000000000000000000000000000000000000000000602082015250565b6000615705602b83614bb0565b9150615710826156a9565b604082019050919050565b60006020820190508181036000830152615734816156f8565b9050919050565b600061575661575161574c84613e32565b6141b8565b613f46565b9050919050565b6157668161573b565b82525050565b6000604082019050615781600083018561413f565b61578e602083018461575d565b9392505050565b6000815190506157a481613f50565b92915050565b6000602082840312156157c0576157bf613ede565b5b60006157ce84828501615795565b91505092915050565b600082825260208201905092915050565b50565b60006157f86000836157d7565b9150615803826157e8565b600082019050919050565b6000608082019050615823600083018661413f565b615830602083018561413f565b61583d60408301846140bf565b818103606083015261584e816157eb565b9050949350505050565b600061586382613f46565b9150600082141561587757615876614fcd565b5b600182039050919050565b600081519050919050565b60005b838110156158ab578082015181840152602081019050615890565b838111156158ba576000848401525b50505050565b60006158cb82615882565b6158d58185614bb0565b93506158e581856020860161588d565b6158ee81614316565b840191505092915050565b600060e08201905061590e600083018a6140bf565b61591b60208301896140bf565b61592860408301886142ec565b6159356060830187613e3f565b6159426080830186613e3f565b81810360a083015261595481856158c0565b905061596360c08301846140bf565b98975050505050505050565b600060c08201905061598460008301896140bf565b61599160208301886140bf565b61599e60408301876142ec565b6159ab6060830186613e3f565b6159b86080830185613e3f565b81810360a08301526159ca81846158c0565b9050979650505050505050565b60006040820190506159ec600083018561413f565b6159f960208301846140bf565b9392505050565b6000606082019050615a1560008301866140bf565b615a22602083018561413f565b615a2f60408301846140bf565b949350505050565b7f4e487b7100000000000000000000000000000000000000000000000000000000600052601260045260246000fd5b6000615a7182613f46565b9150615a7c83613f46565b925082615a8c57615a8b615a37565b5b828204905092915050565b6000608082019050615aac60008301876140bf565b615ab96020830186613e76565b615ac66040830185613e76565b615ad360608301846140bf565b95945050505050565b600080fd5b600067ffffffffffffffff821115615afc57615afb614327565b5b615b0582614316565b9050602081019050919050565b6000615b25615b2084615ae1565b614387565b905082815260208101848484011115615b4157615b40615adc565b5b615b4c84828561588d565b509392505050565b600082601f830112615b6957615b68613f7c565b5b8151615b79848260208601615b12565b91505092915050565b600080600060608486031215615b9b57615b9a613ede565b5b6000615ba986828701614c68565b9350506020615bba86828701614c68565b925050604084015167ffffffffffffffff811115615bdb57615bda613ee3565b5b615be786828701615b54565b9150509250925092565b6000615bfc82613ea0565b9150615c0783613ea0565b9250827f7fffffffffffffffffffffffffffffffffffffffffffffffffffffffffffffff0482116000841360008413161615615c4657615c45614fcd565b5b817f80000000000000000000000000000000000000000000000000000000000000000583126000841260008413161615615c8357615c82614fcd565b5b827f80000000000000000000000000000000000000000000000000000000000000000582126000841360008412161615615cc057615cbf614fcd565b5b827f7fffffffffffffffffffffffffffffffffffffffffffffffffffffffffffffff0582126000841260008412161615615cfd57615cfc614fcd565b5b828202905092915050565b6000615d1382613e32565b9150615d1e83613e32565b925082821015615d3157615d30614fcd565b5b828203905092915050565b6000615d4782613ea0565b9150615d5283613ea0565b925082615d6257615d61615a37565b5b600160000383147f800000000000000000000000000000000000000000000000000000000000000083141615615d9b57615d9a614fcd565b5b828205905092915050565b6000615db182613ea0565b9150615dbc83613ea0565b9250817f7fffffffffffffffffffffffffffffffffffffffffffffffffffffffffffffff03831360008312151615615df757615df6614fcd565b5b817f8000000000000000000000000000000000000000000000000000000000000000038312600083121615615e2f57615e2e614fcd565b5b82820190509291505056fea2646970667358221220d866fb3d670bb1f56dd68aaa9aba3546241518f49a252377395bc654d211c1d564736f6c634300080a0033",
  "immutableReferences": {},
  "source": "// SPDX-License-Identifier: MIT\n\npragma solidity ^0.8.0;\n\nimport \"./EntrepreneurKitchen.sol\";\nimport \"./CasualFood.sol\";\nimport \"./KitchenShop.sol\";\n\ncontract TheStakehouse is EntrepreneurKitchen {\n  CasualFood foodToken; // Reference to the $CFOOD contract\n\n  function initialize(\n    address[] memory _addresses, // character, claim, foodToken, kitchenShop\n    uint256 _foodTokenMaxSupply,\n    uint256[] memory _earningSettings, // dailyChefEarnings, ratTheftPercentage, vestingPeriod, accrualPeriod\n    int8[] memory _propertyIncrements, // dailySkillRate, dailyInsanityRate, dailyIntelligenceRate, dailyFatnessRate\n    uint8 _minEfficiency,\n    uint8 _charactersPerKitchen,\n    uint8 _chefEfficiencyMultiplier,\n    int256 _ratEfficiencyMultiplier,\n    int256 _ratEfficiencyOffset\n  ) external initializer {\n    __Ownable_init();\n    __Pausable_init();\n\n    unaccountedRewards = 0;\n    foodTokensPerRat = 0;\n    lastClaimTimestamp = 0;\n    kitchenId = 1;\n\n    character = Character(_addresses[0]);\n    claim = IClaim(_addresses[1]);\n    foodToken = CasualFood(_addresses[2]);\n    kitchenShop = KitchenShop(_addresses[3]);\n    foodTokenMaxSupply = _foodTokenMaxSupply * 1 ether;\n    dailyChefEarnings = _earningSettings[0] * 1 ether;\n    ratTheftPercentage = _earningSettings[1];\n    vestingPeriod = _earningSettings[2];\n    accrualPeriod = _earningSettings[3];\n    dailySkillRate = _propertyIncrements[0];\n    dailyInsanityRate = _propertyIncrements[1];\n    dailyIntelligenceRate = _propertyIncrements[2];\n    dailyFatnessRate = _propertyIncrements[3];\n    minEfficiency = _minEfficiency;\n    charactersPerKitchen = _charactersPerKitchen;\n    chefEfficiencyMultiplier = _chefEfficiencyMultiplier;\n    ratEfficiencyMultiplier = _ratEfficiencyMultiplier;\n    ratEfficiencyOffset = _ratEfficiencyOffset;\n  }\n\n  /**\n   * Mints the given amount of food tokens in the user's account\n   * @param sender - User wallet address\n   * @param amount - Amount of food tokens to mint\n   */\n  function _mintFoodToken(address sender, uint256 amount) internal override {\n    foodToken.mint(sender, amount);\n  }\n}\n",
  "sourcePath": "/Users/chris/workspace/ratalert/ratalert-contracts/contracts/TheStakehouse.sol",
  "compiler": {
    "name": "solc",
    "version": "0.8.10+commit.fc410830.Emscripten.clang"
  },
  "schemaVersion": "3.4.5",
  "updatedAt": "2022-03-13T08:25:23.992Z",
  "networkType": "ethereum",
  "devdoc": {
    "kind": "dev",
    "methods": {
      "claimMany(uint16[],bool)": {
        "params": {
          "tokenIds": "- The IDs of the tokens in question",
          "unstake": "- Whether or not to unstake the given tokens"
        }
      },
      "fulfillClaimMany((bytes32,address,address,uint16[],bool),uint256)": {
        "params": {
          "randomVal": "- List of random values created by VRF",
          "v": "- VRF struct for the corresponding request"
        }
      },
      "getProperties(uint256)": {
        "params": {
          "tokenId": "- The ID of the token to check"
        },
        "returns": {
          "efficiency": "& tolerance values"
        }
      },
      "isChef(uint256)": {
        "params": {
          "tokenId": "- The ID of the token to check"
        },
        "returns": {
          "chef": "- Whether or not the token is a Chef"
        }
      },
      "owner()": {
        "details": "Returns the address of the current owner."
      },
      "paused()": {
        "details": "Returns true if the contract is paused, and false otherwise."
      },
      "renounceOwnership()": {
        "details": "Leaves the contract without owner. It will not be possible to call `onlyOwner` functions anymore. Can only be called by the current owner. NOTE: Renouncing ownership will leave the contract without an owner, thereby removing any functionality that is only available to the owner."
      },
      "stakeMany(address,uint16[])": {
        "params": {
          "account": "- The address of the staker",
          "tokenIds": "- The IDs of the Chefs & Rats to stake"
        }
      },
      "transferOwnership(address)": {
        "details": "Transfers ownership of the contract to a new account (`newOwner`). Can only be called by the current owner."
      }
    },
    "version": 1
  },
  "userdoc": {
    "kind": "user",
    "methods": {
      "claimMany(uint16[],bool)": {
        "notice": "ChainLink VRF request: Claims food token earnings, level-ups and optionally unstake characters"
      },
      "fulfillClaimMany((bytes32,address,address,uint16[],bool),uint256)": {
        "notice": "ChainLink VRF callback for claimMany()"
      },
      "getProperties(uint256)": {
        "notice": "Get the character's properties"
      },
      "isChef(uint256)": {
        "notice": "Checks if the token is a Chef"
      },
      "stakeMany(address,uint16[])": {
        "notice": "Adds Chefs & Rats"
      }
    },
    "version": 1
  }
}