{
  "contractName": "TraitsV2",
  "abi": [
    {
      "anonymous": false,
      "inputs": [
        {
          "indexed": true,
          "internalType": "address",
          "name": "previousOwner",
          "type": "address"
        },
        {
          "indexed": true,
          "internalType": "address",
          "name": "newOwner",
          "type": "address"
        }
      ],
      "name": "OwnershipTransferred",
      "type": "event"
    },
    {
      "inputs": [],
      "name": "character",
      "outputs": [
        {
          "internalType": "contract ICharacter",
          "name": "",
          "type": "address"
        }
      ],
      "stateMutability": "view",
      "type": "function",
      "constant": true
    },
    {
      "inputs": [],
      "name": "numHeadAndBodyTraits",
      "outputs": [
        {
          "internalType": "uint16",
          "name": "",
          "type": "uint16"
        }
      ],
      "stateMutability": "view",
      "type": "function",
      "constant": true
    },
    {
      "inputs": [],
      "name": "owner",
      "outputs": [
        {
          "internalType": "address",
          "name": "",
          "type": "address"
        }
      ],
      "stateMutability": "view",
      "type": "function",
      "constant": true
    },
    {
      "inputs": [],
      "name": "renounceOwnership",
      "outputs": [],
      "stateMutability": "nonpayable",
      "type": "function"
    },
    {
      "inputs": [
        {
          "internalType": "uint8",
          "name": "",
          "type": "uint8"
        },
        {
          "internalType": "uint8",
          "name": "",
          "type": "uint8"
        }
      ],
      "name": "traitData",
      "outputs": [
        {
          "internalType": "string",
          "name": "name",
          "type": "string"
        },
        {
          "internalType": "string",
          "name": "png",
          "type": "string"
        }
      ],
      "stateMutability": "view",
      "type": "function",
      "constant": true
    },
    {
      "inputs": [
        {
          "internalType": "address",
          "name": "newOwner",
          "type": "address"
        }
      ],
      "name": "transferOwnership",
      "outputs": [],
      "stateMutability": "nonpayable",
      "type": "function"
    },
    {
      "inputs": [],
      "name": "initialize",
      "outputs": [],
      "stateMutability": "nonpayable",
      "type": "function"
    },
    {
      "inputs": [
        {
          "internalType": "uint256",
          "name": "tokenId",
          "type": "uint256"
        }
      ],
      "name": "tokenURI",
      "outputs": [
        {
          "internalType": "string",
          "name": "",
          "type": "string"
        }
      ],
      "stateMutability": "view",
      "type": "function",
      "constant": true
    },
    {
      "inputs": [
        {
          "internalType": "uint256",
          "name": "tokenId",
          "type": "uint256"
        }
      ],
      "name": "drawSVG",
      "outputs": [
        {
          "internalType": "string",
          "name": "",
          "type": "string"
        }
      ],
      "stateMutability": "view",
      "type": "function",
      "constant": true
    },
    {
      "inputs": [
        {
          "internalType": "uint256",
          "name": "tokenId",
          "type": "uint256"
        }
      ],
      "name": "getAttributes",
      "outputs": [
        {
          "internalType": "string",
          "name": "",
          "type": "string"
        }
      ],
      "stateMutability": "view",
      "type": "function",
      "constant": true
    },
    {
      "inputs": [
        {
          "internalType": "address",
          "name": "_character",
          "type": "address"
        }
      ],
      "name": "setCharacter",
      "outputs": [],
      "stateMutability": "nonpayable",
      "type": "function"
    },
    {
      "inputs": [
        {
          "internalType": "uint8",
          "name": "traitIndex",
          "type": "uint8"
        },
        {
          "components": [
            {
              "internalType": "string",
              "name": "name",
              "type": "string"
            },
            {
              "internalType": "string",
              "name": "png",
              "type": "string"
            }
          ],
          "internalType": "struct TraitsV2.Trait[]",
          "name": "traits",
          "type": "tuple[]"
        }
      ],
      "name": "uploadTraits",
      "outputs": [],
      "stateMutability": "nonpayable",
      "type": "function"
    }
  ],
  "bytecode": "0x608060405234801561001057600080fd5b50615db780620000216000396000f3fe608060405234801561001057600080fd5b50600436106100b45760003560e01c80638129fc1c116100715780638129fc1c1461017b5780638da5cb5b146101855780639bf2ee35146101a3578063b5448957146101d4578063c87b56dd146101f0578063f2fde38b14610220576100b4565b8063204efe17146100b957806334875edc146100d55780634378a6e3146100f35780634d2e03a014610123578063715018a6146101415780637abecb861461014b575b600080fd5b6100d360048036038101906100ce919061429a565b61023c565b005b6100dd6102fc565b6040516100ea91906142e4565b60405180910390f35b61010d60048036038101906101089190614335565b610310565b60405161011a91906143fb565b60405180910390f35b61012b611fcf565b604051610138919061447c565b60405180910390f35b610149611ff5565b005b61016560048036038101906101609190614335565b61207d565b60405161017291906143fb565b60405180910390f35b610183612e58565b005b61018d61332d565b60405161019a91906144a6565b60405180910390f35b6101bd60048036038101906101b891906144fa565b613357565b6040516101cb92919061453a565b60405180910390f35b6101ee60048036038101906101e991906145d6565b613498565b005b61020a60048036038101906102059190614335565b6136f8565b60405161021791906143fb565b60405180910390f35b61023a6004803603810190610235919061429a565b61389a565b005b610244613992565b73ffffffffffffffffffffffffffffffffffffffff1661026261332d565b73ffffffffffffffffffffffffffffffffffffffff16146102b8576040517f08c379a00000000000000000000000000000000000000000000000000000000081526004016102af90614682565b60405180910390fd5b80607760006101000a81548173ffffffffffffffffffffffffffffffffffffffff021916908373ffffffffffffffffffffffffffffffffffffffff16021790555050565b607560009054906101000a900461ffff1681565b60606000607760009054906101000a900473ffffffffffffffffffffffffffffffffffffffff1673ffffffffffffffffffffffffffffffffffffffff166394e56847846040518263ffffffff1660e01b815260040161036f91906146b1565b61016060405180830381865afa15801561038d573d6000803e3d6000fd5b505050506040513d601f19601f820116820180604052508101906103b191906148de565b9050606060008083610140015160000b126103d45782610140015160ff166103eb565b82610140015160ff166101006103ea919061493b565b5b905060008084610140015160000b1290508360000151156111135761057e606560006010811061041e5761041d61496f565b5b01805461042a906149cd565b80601f0160208091040260200160405190810160405280929190818152602001828054610456906149cd565b80156104a35780601f10610478576101008083540402835291602001916104a3565b820191906000526020600020905b81548152906001019060200180831161048657829003601f168201915b50505050506040518060200160405280600081525060766000600360ff1681526020019081526020016000206000886020015160ff1660ff16815260200190815260200160002060000180546104f8906149cd565b80601f0160208091040260200160405190810160405280929190818152602001828054610524906149cd565b80156105715780601f1061054657610100808354040283529160200191610571565b820191906000526020600020905b81548152906001019060200180831161055457829003601f168201915b505050505060008061399a565b6106f660656001601081106105965761059561496f565b5b0180546105a2906149cd565b80601f01602080910402602001604051908101604052809291908181526020018280546105ce906149cd565b801561061b5780601f106105f05761010080835404028352916020019161061b565b820191906000526020600020905b8154815290600101906020018083116105fe57829003601f168201915b50505050506040518060200160405280600081525060766000600260ff1681526020019081526020016000206000896040015160ff1660ff1681526020019081526020016000206000018054610670906149cd565b80601f016020809104026020016040519081016040528092919081815260200182805461069c906149cd565b80156106e95780601f106106be576101008083540402835291602001916106e9565b820191906000526020600020905b8154815290600101906020018083116106cc57829003601f168201915b505050505060008061399a565b61086e606560036010811061070e5761070d61496f565b5b01805461071a906149cd565b80601f0160208091040260200160405190810160405280929190818152602001828054610746906149cd565b80156107935780601f1061076857610100808354040283529160200191610793565b820191906000526020600020905b81548152906001019060200180831161077657829003601f168201915b50505050506040518060200160405280600081525060766000600560ff16815260200190815260200160002060008a6080015160ff1660ff16815260200190815260200160002060000180546107e8906149cd565b80601f0160208091040260200160405190810160405280929190818152602001828054610814906149cd565b80156108615780601f1061083657610100808354040283529160200191610861565b820191906000526020600020905b81548152906001019060200180831161084457829003601f168201915b505050505060008061399a565b6109e660656004601081106108865761088561496f565b5b018054610892906149cd565b80601f01602080910402602001604051908101604052809291908181526020018280546108be906149cd565b801561090b5780601f106108e05761010080835404028352916020019161090b565b820191906000526020600020905b8154815290600101906020018083116108ee57829003601f168201915b50505050506040518060200160405280600081525060766000600460ff16815260200190815260200160002060008b60a0015160ff1660ff1681526020019081526020016000206000018054610960906149cd565b80601f016020809104026020016040519081016040528092919081815260200182805461098c906149cd565b80156109d95780601f106109ae576101008083540402835291602001916109d9565b820191906000526020600020905b8154815290600101906020018083116109bc57829003601f168201915b505050505060008061399a565b610b5e60656005601081106109fe576109fd61496f565b5b018054610a0a906149cd565b80601f0160208091040260200160405190810160405280929190818152602001828054610a36906149cd565b8015610a835780601f10610a5857610100808354040283529160200191610a83565b820191906000526020600020905b815481529060010190602001808311610a6657829003601f168201915b50505050506040518060200160405280600081525060766000600660ff16815260200190815260200160002060008c60c0015160ff1660ff1681526020019081526020016000206000018054610ad8906149cd565b80601f0160208091040260200160405190810160405280929190818152602001828054610b04906149cd565b8015610b515780601f10610b2657610100808354040283529160200191610b51565b820191906000526020600020905b815481529060010190602001808311610b3457829003601f168201915b505050505060008061399a565b610cde6065600760108110610b7657610b7561496f565b5b018054610b82906149cd565b80601f0160208091040260200160405190810160405280929190818152602001828054610bae906149cd565b8015610bfb5780601f10610bd057610100808354040283529160200191610bfb565b820191906000526020600020905b815481529060010190602001808311610bde57829003601f168201915b505050505060405180602001604052806000815250607660008060ff1681526020019081526020016000206000610c368e6101000151613b07565b60ff1660ff1681526020019081526020016000206000018054610c58906149cd565b80601f0160208091040260200160405190810160405280929190818152602001828054610c84906149cd565b8015610cd15780601f10610ca657610100808354040283529160200191610cd1565b820191906000526020600020905b815481529060010190602001808311610cb457829003601f168201915b505050505060008061399a565b610e5f6065600860108110610cf657610cf561496f565b5b018054610d02906149cd565b80601f0160208091040260200160405190810160405280929190818152602001828054610d2e906149cd565b8015610d7b5780601f10610d5057610100808354040283529160200191610d7b565b820191906000526020600020905b815481529060010190602001808311610d5e57829003601f168201915b50505050506040518060200160405280600081525060766000600160ff1681526020019081526020016000206000610db78f6101200151613b07565b60ff1660ff1681526020019081526020016000206000018054610dd9906149cd565b80601f0160208091040260200160405190810160405280929190818152602001828054610e05906149cd565b8015610e525780601f10610e2757610100808354040283529160200191610e52565b820191906000526020600020905b815481529060010190602001808311610e3557829003601f168201915b505050505060008061399a565b610f2b6065600b60108110610e7757610e7661496f565b5b018054610e83906149cd565b80601f0160208091040260200160405190810160405280929190818152602001828054610eaf906149cd565b8015610efc5780601f10610ed157610100808354040283529160200191610efc565b820191906000526020600020905b815481529060010190602001808311610edf57829003601f168201915b505050505060405180602001604052806000815250610f228e610100015160ff16613b8e565b6001600061399a565b610ff76065600c60108110610f4357610f4261496f565b5b018054610f4f906149cd565b80601f0160208091040260200160405190810160405280929190818152602001828054610f7b906149cd565b8015610fc85780601f10610f9d57610100808354040283529160200191610fc8565b820191906000526020600020905b815481529060010190602001808311610fab57829003601f168201915b505050505060405180602001604052806000815250610fee8f610120015160ff16613b8e565b6001600061399a565b6110e46065600f6010811061100f5761100e61496f565b5b01805461101b906149cd565b80601f0160208091040260200160405190810160405280929190818152602001828054611047906149cd565b80156110945780601f1061106957610100808354040283529160200191611094565b820191906000526020600020905b81548152906001019060200180831161107757829003601f168201915b50505050506040518060400160405280601081526020017f626f6f73745f70657263656e74616765000000000000000000000000000000008152506110dc8e61ffff16613b8e565b60018e61399a565b6040516020016110fd9a99989796959493929190614a3b565b6040516020818303038152906040529250611e1d565b61128b606560006010811061112b5761112a61496f565b5b018054611137906149cd565b80601f0160208091040260200160405190810160405280929190818152602001828054611163906149cd565b80156111b05780601f10611185576101008083540402835291602001916111b0565b820191906000526020600020905b81548152906001019060200180831161119357829003601f168201915b50505050506040518060200160405280600081525060766000600f60ff1681526020019081526020016000206000886020015160ff1660ff1681526020019081526020016000206000018054611205906149cd565b80601f0160208091040260200160405190810160405280929190818152602001828054611231906149cd565b801561127e5780601f106112535761010080835404028352916020019161127e565b820191906000526020600020905b81548152906001019060200180831161126157829003601f168201915b505050505060008061399a565b61140360656001601081106112a3576112a261496f565b5b0180546112af906149cd565b80601f01602080910402602001604051908101604052809291908181526020018280546112db906149cd565b80156113285780601f106112fd57610100808354040283529160200191611328565b820191906000526020600020905b81548152906001019060200180831161130b57829003601f168201915b50505050506040518060200160405280600081525060766000600e60ff1681526020019081526020016000206000896040015160ff1660ff168152602001908152602001600020600001805461137d906149cd565b80601f01602080910402602001604051908101604052809291908181526020018280546113a9906149cd565b80156113f65780601f106113cb576101008083540402835291602001916113f6565b820191906000526020600020905b8154815290600101906020018083116113d957829003601f168201915b505050505060008061399a565b61157b606560026010811061141b5761141a61496f565b5b018054611427906149cd565b80601f0160208091040260200160405190810160405280929190818152602001828054611453906149cd565b80156114a05780601f10611475576101008083540402835291602001916114a0565b820191906000526020600020905b81548152906001019060200180831161148357829003601f168201915b50505050506040518060200160405280600081525060766000600d60ff16815260200190815260200160002060008a6060015160ff1660ff16815260200190815260200160002060000180546114f5906149cd565b80601f0160208091040260200160405190810160405280929190818152602001828054611521906149cd565b801561156e5780601f106115435761010080835404028352916020019161156e565b820191906000526020600020905b81548152906001019060200180831161155157829003601f168201915b505050505060008061399a565b6116f360656004601081106115935761159261496f565b5b01805461159f906149cd565b80601f01602080910402602001604051908101604052809291908181526020018280546115cb906149cd565b80156116185780601f106115ed57610100808354040283529160200191611618565b820191906000526020600020905b8154815290600101906020018083116115fb57829003601f168201915b50505050506040518060200160405280600081525060766000601060ff16815260200190815260200160002060008b60a0015160ff1660ff168152602001908152602001600020600001805461166d906149cd565b80601f0160208091040260200160405190810160405280929190818152602001828054611699906149cd565b80156116e65780601f106116bb576101008083540402835291602001916116e6565b820191906000526020600020905b8154815290600101906020018083116116c957829003601f168201915b505050505060008061399a565b61186b606560066010811061170b5761170a61496f565b5b018054611717906149cd565b80601f0160208091040260200160405190810160405280929190818152602001828054611743906149cd565b80156117905780601f1061176557610100808354040283529160200191611790565b820191906000526020600020905b81548152906001019060200180831161177357829003601f168201915b50505050506040518060200160405280600081525060766000600b60ff16815260200190815260200160002060008c60e0015160ff1660ff16815260200190815260200160002060000180546117e5906149cd565b80601f0160208091040260200160405190810160405280929190818152602001828054611811906149cd565b801561185e5780601f106118335761010080835404028352916020019161185e565b820191906000526020600020905b81548152906001019060200180831161184157829003601f168201915b505050505060008061399a565b6119ec60656009601081106118835761188261496f565b5b01805461188f906149cd565b80601f01602080910402602001604051908101604052809291908181526020018280546118bb906149cd565b80156119085780601f106118dd57610100808354040283529160200191611908565b820191906000526020600020905b8154815290600101906020018083116118eb57829003601f168201915b50505050506040518060200160405280600081525060766000600c60ff16815260200190815260200160002060006119448e6101000151613b07565b60ff1660ff1681526020019081526020016000206000018054611966906149cd565b80601f0160208091040260200160405190810160405280929190818152602001828054611992906149cd565b80156119df5780601f106119b4576101008083540402835291602001916119df565b820191906000526020600020905b8154815290600101906020018083116119c257829003601f168201915b505050505060008061399a565b611b6d6065600a60108110611a0457611a0361496f565b5b018054611a10906149cd565b80601f0160208091040260200160405190810160405280929190818152602001828054611a3c906149cd565b8015611a895780601f10611a5e57610100808354040283529160200191611a89565b820191906000526020600020905b815481529060010190602001808311611a6c57829003601f168201915b50505050506040518060200160405280600081525060766000600a60ff1681526020019081526020016000206000611ac58f6101200151613b07565b60ff1660ff1681526020019081526020016000206000018054611ae7906149cd565b80601f0160208091040260200160405190810160405280929190818152602001828054611b13906149cd565b8015611b605780601f10611b3557610100808354040283529160200191611b60565b820191906000526020600020905b815481529060010190602001808311611b4357829003601f168201915b505050505060008061399a565b611c396065600d60108110611b8557611b8461496f565b5b018054611b91906149cd565b80601f0160208091040260200160405190810160405280929190818152602001828054611bbd906149cd565b8015611c0a5780601f10611bdf57610100808354040283529160200191611c0a565b820191906000526020600020905b815481529060010190602001808311611bed57829003601f168201915b505050505060405180602001604052806000815250611c308e610100015160ff16613b8e565b6001600061399a565b611d056065600e60108110611c5157611c5061496f565b5b018054611c5d906149cd565b80601f0160208091040260200160405190810160405280929190818152602001828054611c89906149cd565b8015611cd65780601f10611cab57610100808354040283529160200191611cd6565b820191906000526020600020905b815481529060010190602001808311611cb957829003601f168201915b505050505060405180602001604052806000815250611cfc8f610120015160ff16613b8e565b6001600061399a565b611df26065600f60108110611d1d57611d1c61496f565b5b018054611d29906149cd565b80601f0160208091040260200160405190810160405280929190818152602001828054611d55906149cd565b8015611da25780601f10611d7757610100808354040283529160200191611da2565b820191906000526020600020905b815481529060010190602001808311611d8557829003601f168201915b50505050506040518060400160405280601081526020017f626f6f73745f70657263656e7461676500000000000000000000000000000000815250611dea8e61ffff16613b8e565b60018e61399a565b604051602001611e0b9a99989796959493929190614a3b565b60405160208183030381529060405292505b8360000151611e61576040518060400160405280600581526020017f2252617422000000000000000000000000000000000000000000000000000000815250611e98565b6040518060400160405280600681526020017f22436865662200000000000000000000000000000000000000000000000000008152505b83607760009054906101000a900473ffffffffffffffffffffffffffffffffffffffff1673ffffffffffffffffffffffffffffffffffffffff16637856f9456040518163ffffffff1660e01b8152600401602060405180830381865afa158015611f06573d6000803e3d6000fd5b505050506040513d601f19601f82011682018060405250810190611f2a9190614adc565b881115611f6c576040518060400160405280600781526020017f2247656e20312200000000000000000000000000000000000000000000000000815250611fa3565b6040518060400160405280600781526020017f2247656e203022000000000000000000000000000000000000000000000000008152505b604051602001611fb593929190614cf7565b604051602081830303815290604052945050505050919050565b607760009054906101000a900473ffffffffffffffffffffffffffffffffffffffff1681565b611ffd613992565b73ffffffffffffffffffffffffffffffffffffffff1661201b61332d565b73ffffffffffffffffffffffffffffffffffffffff1614612071576040517f08c379a000000000000000000000000000000000000000000000000000000000815260040161206890614682565b60405180910390fd5b61207b6000613cef565b565b60606000607760009054906101000a900473ffffffffffffffffffffffffffffffffffffffff1673ffffffffffffffffffffffffffffffffffffffff166394e56847846040518263ffffffff1660e01b81526004016120dc91906146b1565b61016060405180830381865afa1580156120fa573d6000803e3d6000fd5b505050506040513d601f19601f8201168201806040525081019061211e91906148de565b90506000816000015161213257600a612135565b60005b90506000612147836101200151613b07565b90506000612159846101000151613b07565b905060006040518061022001604052808360ff1660ff1681526020018460ff1660ff168152602001866040015160ff1660ff168152602001866020015160ff1660ff1681526020018660a0015160ff1660ff168152602001866080015160ff1660ff1681526020018660c0015160ff1660ff168152602001600060ff168152602001600060ff168152602001600060ff1681526020018360ff1660ff1681526020018660e0015160ff1660ff1681526020018460ff1660ff168152602001866060015160ff1660ff168152602001866040015160ff1660ff168152602001866020015160ff1660ff1681526020018660a0015160ff1660ff16815250905060006123f26076600087600061226d9190614d6a565b60ff1660ff1681526020019081526020016000206000848860006122919190614d6a565b60ff16601181106122a5576122a461496f565b5b602002015160ff1660ff1681526020019081526020016000206040518060400160405290816000820180546122d9906149cd565b80601f0160208091040260200160405190810160405280929190818152602001828054612305906149cd565b80156123525780601f1061232757610100808354040283529160200191612352565b820191906000526020600020905b81548152906001019060200180831161233557829003601f168201915b5050505050815260200160018201805461236b906149cd565b80601f0160208091040260200160405190810160405280929190818152602001828054612397906149cd565b80156123e45780601f106123b9576101008083540402835291602001916123e4565b820191906000526020600020905b8154815290600101906020018083116123c757829003601f168201915b505050505081525050613db5565b61258b607660008860016124069190614d6a565b60ff1660ff16815260200190815260200160002060008589600161242a9190614d6a565b60ff166011811061243e5761243d61496f565b5b602002015160ff1660ff168152602001908152602001600020604051806040016040529081600082018054612472906149cd565b80601f016020809104026020016040519081016040528092919081815260200182805461249e906149cd565b80156124eb5780601f106124c0576101008083540402835291602001916124eb565b820191906000526020600020905b8154815290600101906020018083116124ce57829003601f168201915b50505050508152602001600182018054612504906149cd565b80601f0160208091040260200160405190810160405280929190818152602001828054612530906149cd565b801561257d5780601f106125525761010080835404028352916020019161257d565b820191906000526020600020905b81548152906001019060200180831161256057829003601f168201915b505050505081525050613db5565b6127246076600089600261259f9190614d6a565b60ff1660ff1681526020019081526020016000206000868a60026125c39190614d6a565b60ff16601181106125d7576125d661496f565b5b602002015160ff1660ff16815260200190815260200160002060405180604001604052908160008201805461260b906149cd565b80601f0160208091040260200160405190810160405280929190818152602001828054612637906149cd565b80156126845780601f1061265957610100808354040283529160200191612684565b820191906000526020600020905b81548152906001019060200180831161266757829003601f168201915b5050505050815260200160018201805461269d906149cd565b80601f01602080910402602001604051908101604052809291908181526020018280546126c9906149cd565b80156127165780601f106126eb57610100808354040283529160200191612716565b820191906000526020600020905b8154815290600101906020018083116126f957829003601f168201915b505050505081525050613db5565b6128bd607660008a60036127389190614d6a565b60ff1660ff1681526020019081526020016000206000878b600361275c9190614d6a565b60ff16601181106127705761276f61496f565b5b602002015160ff1660ff1681526020019081526020016000206040518060400160405290816000820180546127a4906149cd565b80601f01602080910402602001604051908101604052809291908181526020018280546127d0906149cd565b801561281d5780601f106127f25761010080835404028352916020019161281d565b820191906000526020600020905b81548152906001019060200180831161280057829003601f168201915b50505050508152602001600182018054612836906149cd565b80601f0160208091040260200160405190810160405280929190818152602001828054612862906149cd565b80156128af5780601f10612884576101008083540402835291602001916128af565b820191906000526020600020905b81548152906001019060200180831161289257829003601f168201915b505050505081525050613db5565b612a56607660008b60046128d19190614d6a565b60ff1660ff1681526020019081526020016000206000888c60046128f59190614d6a565b60ff16601181106129095761290861496f565b5b602002015160ff1660ff16815260200190815260200160002060405180604001604052908160008201805461293d906149cd565b80601f0160208091040260200160405190810160405280929190818152602001828054612969906149cd565b80156129b65780601f1061298b576101008083540402835291602001916129b6565b820191906000526020600020905b81548152906001019060200180831161299957829003601f168201915b505050505081526020016001820180546129cf906149cd565b80601f01602080910402602001604051908101604052809291908181526020018280546129fb906149cd565b8015612a485780601f10612a1d57610100808354040283529160200191612a48565b820191906000526020600020905b815481529060010190602001808311612a2b57829003601f168201915b505050505081525050613db5565b612bef607660008c6005612a6a9190614d6a565b60ff1660ff1681526020019081526020016000206000898d6005612a8e9190614d6a565b60ff1660118110612aa257612aa161496f565b5b602002015160ff1660ff168152602001908152602001600020604051806040016040529081600082018054612ad6906149cd565b80601f0160208091040260200160405190810160405280929190818152602001828054612b02906149cd565b8015612b4f5780601f10612b2457610100808354040283529160200191612b4f565b820191906000526020600020905b815481529060010190602001808311612b3257829003601f168201915b50505050508152602001600182018054612b68906149cd565b80601f0160208091040260200160405190810160405280929190818152602001828054612b94906149cd565b8015612be15780601f10612bb657610100808354040283529160200191612be1565b820191906000526020600020905b815481529060010190602001808311612bc457829003601f168201915b505050505081525050613db5565b612d88607660008d6006612c039190614d6a565b60ff1660ff16815260200190815260200160002060008a8e6006612c279190614d6a565b60ff1660118110612c3b57612c3a61496f565b5b602002015160ff1660ff168152602001908152602001600020604051806040016040529081600082018054612c6f906149cd565b80601f0160208091040260200160405190810160405280929190818152602001828054612c9b906149cd565b8015612ce85780601f10612cbd57610100808354040283529160200191612ce8565b820191906000526020600020905b815481529060010190602001808311612ccb57829003601f168201915b50505050508152602001600182018054612d01906149cd565b80601f0160208091040260200160405190810160405280929190818152602001828054612d2d906149cd565b8015612d7a5780601f10612d4f57610100808354040283529160200191612d7a565b820191906000526020600020905b815481529060010190602001808311612d5d57829003601f168201915b505050505081525050613db5565b604051602001612d9e9796959493929190614da1565b60405160208183030381529060405290508560000151612df3576040518060400160405280600381526020017f7261740000000000000000000000000000000000000000000000000000000000815250612e2a565b6040518060400160405280600481526020017f63686566000000000000000000000000000000000000000000000000000000008152505b81604051602001612e3c929190614f82565b6040516020818303038152906040529650505050505050919050565b600060019054906101000a900460ff16612e805760008054906101000a900460ff1615612e89565b612e88613e12565b5b612ec8576040517f08c379a0000000000000000000000000000000000000000000000000000000008152600401612ebf90615039565b60405180910390fd5b60008060019054906101000a900460ff161590508015612f18576001600060016101000a81548160ff02191690831515021790555060016000806101000a81548160ff0219169083151502179055505b612f20613e23565b6007607560006101000a81548161ffff021916908361ffff1602179055506040518061020001604052806040518060400160405280600381526020017f486174000000000000000000000000000000000000000000000000000000000081525081526020016040518060400160405280600481526020017f457965730000000000000000000000000000000000000000000000000000000081525081526020016040518060400160405280600881526020017f5069657263696e6700000000000000000000000000000000000000000000000081525081526020016040518060400160405280600581526020017f4d6f75746800000000000000000000000000000000000000000000000000000081525081526020016040518060400160405280600481526020017f4e65636b0000000000000000000000000000000000000000000000000000000081525081526020016040518060400160405280600481526020017f48616e640000000000000000000000000000000000000000000000000000000081525081526020016040518060400160405280600481526020017f5461696c0000000000000000000000000000000000000000000000000000000081525081526020016040518060400160405280600581526020017f536b696c6c00000000000000000000000000000000000000000000000000000081525081526020016040518060400160405280600581526020017f467265616b00000000000000000000000000000000000000000000000000000081525081526020016040518060400160405280600c81526020017f496e74656c6c6967656e6365000000000000000000000000000000000000000081525081526020016040518060400160405280600981526020017f426f6479206d617373000000000000000000000000000000000000000000000081525081526020016040518060400160405280601081526020017f536b696c6c2070657263656e746167650000000000000000000000000000000081525081526020016040518060400160405280601081526020017f467265616b2070657263656e746167650000000000000000000000000000000081525081526020016040518060400160405280601581526020017f496e74656c6c6967656e63652071756f7469656e74000000000000000000000081525081526020016040518060400160405280601481526020017f426f6479206d6173732070657263656e7461676500000000000000000000000081525081526020016040518060400160405280600581526020017f426f6f737400000000000000000000000000000000000000000000000000000081525081525060659060106133089291906140ce565b50801561332a5760008060016101000a81548160ff0219169083151502179055505b50565b6000603360009054906101000a900473ffffffffffffffffffffffffffffffffffffffff16905090565b607660205281600052604060002060205280600052604060002060009150915050806000018054613387906149cd565b80601f01602080910402602001604051908101604052809291908181526020018280546133b3906149cd565b80156134005780601f106133d557610100808354040283529160200191613400565b820191906000526020600020905b8154815290600101906020018083116133e357829003601f168201915b505050505090806001018054613415906149cd565b80601f0160208091040260200160405190810160405280929190818152602001828054613441906149cd565b801561348e5780601f106134635761010080835404028352916020019161348e565b820191906000526020600020905b81548152906001019060200180831161347157829003601f168201915b5050505050905082565b6134a0613992565b73ffffffffffffffffffffffffffffffffffffffff166134be61332d565b73ffffffffffffffffffffffffffffffffffffffff1614613514576040517f08c379a000000000000000000000000000000000000000000000000000000000815260040161350b90614682565b60405180910390fd5b6000828290501161355a576040517f08c379a0000000000000000000000000000000000000000000000000000000008152600401613551906150a5565b60405180910390fd5b60005b828290508160ff1610156136f257604051806040016040528084848460ff1681811061358c5761358b61496f565b5b905060200281019061359e91906150d4565b80600001906135ad91906150fc565b8080601f016020809104026020016040519081016040528093929190818152602001838380828437600081840152601f19601f82011690508083019250505050505050815260200184848460ff1681811061360b5761360a61496f565b5b905060200281019061361d91906150d4565b806020019061362c91906150fc565b8080601f016020809104026020016040519081016040528093929190818152602001838380828437600081840152601f19601f82011690508083019250505050505050815250607660008660ff1660ff16815260200190815260200160002060008360ff1660ff16815260200190815260200160002060008201518160000190805190602001906136be929190614121565b5060208201518160010190805190602001906136db929190614121565b5090505080806136ea9061515f565b91505061355d565b50505050565b60606000607760009054906101000a900473ffffffffffffffffffffffffffffffffffffffff1673ffffffffffffffffffffffffffffffffffffffff166394e56847846040518263ffffffff1660e01b815260040161375791906146b1565b61016060405180830381865afa158015613775573d6000803e3d6000fd5b505050506040513d601f19601f8201168201806040525081019061379991906148de565b9050600081600001516137e1576040518060400160405280600581526020017f5261742023000000000000000000000000000000000000000000000000000000815250613818565b6040518060400160405280600681526020017f43686566202300000000000000000000000000000000000000000000000000008152505b61382185613b8e565b61382a86613b8e565b61383b6138368861207d565b613e84565b61384488610310565b604051602001613858959493929190615481565b604051602081830303815290604052905061387281613e84565b6040516020016138829190615586565b60405160208183030381529060405292505050919050565b6138a2613992565b73ffffffffffffffffffffffffffffffffffffffff166138c061332d565b73ffffffffffffffffffffffffffffffffffffffff1614613916576040517f08c379a000000000000000000000000000000000000000000000000000000000815260040161390d90614682565b60405180910390fd5b600073ffffffffffffffffffffffffffffffffffffffff168173ffffffffffffffffffffffffffffffffffffffff161415613986576040517f08c379a000000000000000000000000000000000000000000000000000000000815260040161397d9061561a565b60405180910390fd5b61398f81613cef565b50565b600033905090565b6060821580156139ab575060008451145b156139c757604051806020016040528060008152509050613afe565b6000836139f357846040516020016139df9190615686565b604051602081830303815290604052613a20565b826139fe5784613a1f565b84604051602001613a0f91906156ff565b6040516020818303038152906040525b5b9050600080875111613a415760405180602001604052806000815250613a62565b86604051602001613a52919061576d565b6040516020818303038152906040525b9050876000825111613a835760405180602001604052806000815250613a85565b815b86613a9f5760405180602001604052806000815250613ad6565b6040518060400160405280601081526020017f226d61785f76616c7565223a3130302c000000000000000000000000000000008152505b84604051602001613aea9493929190615832565b604051602081830303815290604052925050505b95945050505050565b6000806064607560009054906101000a900461ffff168460ff16613b2b91906158a7565b613b359190615912565b61ffff1690506001607560009054906101000a900461ffff16613b58919061493b565b61ffff168111613b685780613b86565b6001607560009054906101000a900461ffff16613b85919061493b565b5b915050919050565b60606000821415613bd6576040518060400160405280600181526020017f30000000000000000000000000000000000000000000000000000000000000008152509050613cea565b600082905060005b60008214613c08578080613bf190615943565b915050600a82613c01919061598c565b9150613bde565b60008167ffffffffffffffff811115613c2457613c236146d1565b5b6040519080825280601f01601f191660200182016040528015613c565781602001600182028036833780820191505090505b5090505b60008514613ce357600182613c6f91906159bd565b9150600a85613c7e91906159f1565b6030613c8a9190615a22565b60f81b818381518110613ca057613c9f61496f565b5b60200101907effffffffffffffffffffffffffffffffffffffffffffffffffffffffffffff1916908160001a905350600a85613cdc919061598c565b9450613c5a565b8093505050505b919050565b6000603360009054906101000a900473ffffffffffffffffffffffffffffffffffffffff16905081603360006101000a81548173ffffffffffffffffffffffffffffffffffffffff021916908373ffffffffffffffffffffffffffffffffffffffff1602179055508173ffffffffffffffffffffffffffffffffffffffff168173ffffffffffffffffffffffffffffffffffffffff167f8be0079c531659141344cd1fd0a4f28419497f9722a3daafe3b4186f6b6457e060405160405180910390a35050565b606060008260200151511415613de7576040518060a0016040528060808152602001615cc26080913982602001819052505b8160200151604051602001613dfc9190615ba8565b6040516020818303038152906040529050919050565b6000613e1d30614009565b15905090565b600060019054906101000a900460ff16613e72576040517f08c379a0000000000000000000000000000000000000000000000000000000008152600401613e6990615c47565b60405180910390fd5b613e7a61401c565b613e8261406d565b565b6060600082511415613ea757604051806020016040528060008152509050614004565b6000604051806060016040528060408152602001615d426040913990506000600360028551613ed69190615a22565b613ee0919061598c565b6004613eec9190615c67565b90506000602082613efd9190615a22565b67ffffffffffffffff811115613f1657613f156146d1565b5b6040519080825280601f01601f191660200182016040528015613f485781602001600182028036833780820191505090505b509050818152600183018586518101602084015b81831015613fc3576003830192508251603f8160121c1685015160f81b8252600182019150603f81600c1c1685015160f81b8252600182019150603f8160061c1685015160f81b8252600182019150603f811685015160f81b825260018201915050613f5c565b600389510660018114613fdd5760028114613fed57613ff8565b613d3d60f01b6002830352613ff8565b603d60f81b60018303525b50505050508093505050505b919050565b600080823b905060008111915050919050565b600060019054906101000a900460ff1661406b576040517f08c379a000000000000000000000000000000000000000000000000000000000815260040161406290615c47565b60405180910390fd5b565b600060019054906101000a900460ff166140bc576040517f08c379a00000000000000000000000000000000000000000000000000000000081526004016140b390615c47565b60405180910390fd5b6140cc6140c7613992565b613cef565b565b8260108101928215614110579160200282015b8281111561410f5782518290805190602001906140ff929190614121565b50916020019190600101906140e1565b5b50905061411d91906141a7565b5090565b82805461412d906149cd565b90600052602060002090601f01602090048101928261414f5760008555614196565b82601f1061416857805160ff1916838001178555614196565b82800160010185558215614196579182015b8281111561419557825182559160200191906001019061417a565b5b5090506141a391906141cb565b5090565b5b808211156141c757600081816141be91906141e8565b506001016141a8565b5090565b5b808211156141e45760008160009055506001016141cc565b5090565b5080546141f4906149cd565b6000825580601f106142065750614225565b601f01602090049060005260206000209081019061422491906141cb565b5b50565b6000604051905090565b600080fd5b600080fd5b600073ffffffffffffffffffffffffffffffffffffffff82169050919050565b60006142678261423c565b9050919050565b6142778161425c565b811461428257600080fd5b50565b6000813590506142948161426e565b92915050565b6000602082840312156142b0576142af614232565b5b60006142be84828501614285565b91505092915050565b600061ffff82169050919050565b6142de816142c7565b82525050565b60006020820190506142f960008301846142d5565b92915050565b6000819050919050565b614312816142ff565b811461431d57600080fd5b50565b60008135905061432f81614309565b92915050565b60006020828403121561434b5761434a614232565b5b600061435984828501614320565b91505092915050565b600081519050919050565b600082825260208201905092915050565b60005b8381101561439c578082015181840152602081019050614381565b838111156143ab576000848401525b50505050565b6000601f19601f8301169050919050565b60006143cd82614362565b6143d7818561436d565b93506143e781856020860161437e565b6143f0816143b1565b840191505092915050565b6000602082019050818103600083015261441581846143c2565b905092915050565b6000819050919050565b600061444261443d6144388461423c565b61441d565b61423c565b9050919050565b600061445482614427565b9050919050565b600061446682614449565b9050919050565b6144768161445b565b82525050565b6000602082019050614491600083018461446d565b92915050565b6144a08161425c565b82525050565b60006020820190506144bb6000830184614497565b92915050565b600060ff82169050919050565b6144d7816144c1565b81146144e257600080fd5b50565b6000813590506144f4816144ce565b92915050565b6000806040838503121561451157614510614232565b5b600061451f858286016144e5565b9250506020614530858286016144e5565b9150509250929050565b6000604082019050818103600083015261455481856143c2565b9050818103602083015261456881846143c2565b90509392505050565b600080fd5b600080fd5b600080fd5b60008083601f84011261459657614595614571565b5b8235905067ffffffffffffffff8111156145b3576145b2614576565b5b6020830191508360208202830111156145cf576145ce61457b565b5b9250929050565b6000806000604084860312156145ef576145ee614232565b5b60006145fd868287016144e5565b935050602084013567ffffffffffffffff81111561461e5761461d614237565b5b61462a86828701614580565b92509250509250925092565b7f4f776e61626c653a2063616c6c6572206973206e6f7420746865206f776e6572600082015250565b600061466c60208361436d565b915061467782614636565b602082019050919050565b6000602082019050818103600083015261469b8161465f565b9050919050565b6146ab816142ff565b82525050565b60006020820190506146c660008301846146a2565b92915050565b600080fd5b7f4e487b7100000000000000000000000000000000000000000000000000000000600052604160045260246000fd5b614709826143b1565b810181811067ffffffffffffffff82111715614728576147276146d1565b5b80604052505050565b600061473b614228565b90506147478282614700565b919050565b60008115159050919050565b6147618161474c565b811461476c57600080fd5b50565b60008151905061477e81614758565b92915050565b600081519050614793816144ce565b92915050565b60008160000b9050919050565b6147af81614799565b81146147ba57600080fd5b50565b6000815190506147cc816147a6565b92915050565b600061016082840312156147e9576147e86146cc565b5b6147f4610160614731565b905060006148048482850161476f565b600083015250602061481884828501614784565b602083015250604061482c84828501614784565b604083015250606061484084828501614784565b606083015250608061485484828501614784565b60808301525060a061486884828501614784565b60a08301525060c061487c84828501614784565b60c08301525060e061489084828501614784565b60e0830152506101006148a584828501614784565b610100830152506101206148bb84828501614784565b610120830152506101406148d1848285016147bd565b6101408301525092915050565b600061016082840312156148f5576148f4614232565b5b6000614903848285016147d2565b91505092915050565b7f4e487b7100000000000000000000000000000000000000000000000000000000600052601160045260246000fd5b6000614946826142c7565b9150614951836142c7565b9250828210156149645761496361490c565b5b828203905092915050565b7f4e487b7100000000000000000000000000000000000000000000000000000000600052603260045260246000fd5b7f4e487b7100000000000000000000000000000000000000000000000000000000600052602260045260246000fd5b600060028204905060018216806149e557607f821691505b602082108114156149f9576149f861499e565b5b50919050565b600081905092915050565b6000614a1582614362565b614a1f81856149ff565b9350614a2f81856020860161437e565b80840191505092915050565b6000614a47828d614a0a565b9150614a53828c614a0a565b9150614a5f828b614a0a565b9150614a6b828a614a0a565b9150614a778289614a0a565b9150614a838288614a0a565b9150614a8f8287614a0a565b9150614a9b8286614a0a565b9150614aa78285614a0a565b9150614ab38284614a0a565b91508190509b9a5050505050505050505050565b600081519050614ad681614309565b92915050565b600060208284031215614af257614af1614232565b5b6000614b0084828501614ac7565b91505092915050565b7f5b00000000000000000000000000000000000000000000000000000000000000600082015250565b6000614b3f6001836149ff565b9150614b4a82614b09565b600182019050919050565b7f7b2274726169745f74797065223a2254797065222c2276616c7565223a000000600082015250565b6000614b8b601d836149ff565b9150614b9682614b55565b601d82019050919050565b7f7d2c000000000000000000000000000000000000000000000000000000000000600082015250565b6000614bd76002836149ff565b9150614be282614ba1565b600282019050919050565b7f7b2274726169745f74797065223a2247656e65726174696f6e222c2276616c7560008201527f65223a0000000000000000000000000000000000000000000000000000000000602082015250565b6000614c496023836149ff565b9150614c5482614bed565b602382019050919050565b7f7d00000000000000000000000000000000000000000000000000000000000000600082015250565b6000614c956001836149ff565b9150614ca082614c5f565b600182019050919050565b7f5d00000000000000000000000000000000000000000000000000000000000000600082015250565b6000614ce16001836149ff565b9150614cec82614cab565b600182019050919050565b6000614d0282614b32565b9150614d0d82614b7e565b9150614d198286614a0a565b9150614d2482614bca565b9150614d308285614a0a565b9150614d3b82614c3c565b9150614d478284614a0a565b9150614d5282614c88565b9150614d5d82614cd4565b9150819050949350505050565b6000614d75826144c1565b9150614d80836144c1565b92508260ff03821115614d9657614d9561490c565b5b828201905092915050565b6000614dad828a614a0a565b9150614db98289614a0a565b9150614dc58288614a0a565b9150614dd18287614a0a565b9150614ddd8286614a0a565b9150614de98285614a0a565b9150614df58284614a0a565b915081905098975050505050505050565b7f3c7376672069643d220000000000000000000000000000000000000000000000600082015250565b6000614e3c6009836149ff565b9150614e4782614e06565b600982019050919050565b7f222077696474683d223130302522206865696768743d2231303025222076657260008201527f73696f6e3d22312e31222076696577426f783d2230203020313030203130302260208201527f20786d6c6e733d22687474703a2f2f7777772e77332e6f72672f323030302f7360408201527f76672220786d6c6e733a786c696e6b3d22687474703a2f2f7777772e77332e6f60608201527f72672f313939392f786c696e6b223e0000000000000000000000000000000000608082015250565b6000614f20608f836149ff565b9150614f2b82614e52565b608f82019050919050565b7f3c2f7376673e0000000000000000000000000000000000000000000000000000600082015250565b6000614f6c6006836149ff565b9150614f7782614f36565b600682019050919050565b6000614f8d82614e2f565b9150614f998285614a0a565b9150614fa482614f13565b9150614fb08284614a0a565b9150614fbb82614f5f565b91508190509392505050565b7f496e697469616c697a61626c653a20636f6e747261637420697320616c72656160008201527f647920696e697469616c697a6564000000000000000000000000000000000000602082015250565b6000615023602e8361436d565b915061502e82614fc7565b604082019050919050565b6000602082019050818103600083015261505281615016565b9050919050565b7f74726169747320617272617920656d7074790000000000000000000000000000600082015250565b600061508f60128361436d565b915061509a82615059565b602082019050919050565b600060208201905081810360008301526150be81615082565b9050919050565b600080fd5b600080fd5b600080fd5b6000823560016040038336030381126150f0576150ef6150c5565b5b80830191505092915050565b60008083356001602003843603038112615119576151186150c5565b5b80840192508235915067ffffffffffffffff82111561513b5761513a6150ca565b5b602083019250600182023603831315615157576151566150cf565b5b509250929050565b600061516a826144c1565b915060ff82141561517e5761517d61490c565b5b600182019050919050565b7f7b00000000000000000000000000000000000000000000000000000000000000600082015250565b60006151bf6001836149ff565b91506151ca82615189565b600182019050919050565b7f226e616d65223a22000000000000000000000000000000000000000000000000600082015250565b600061520b6008836149ff565b9150615216826151d5565b600882019050919050565b7f222c000000000000000000000000000000000000000000000000000000000000600082015250565b60006152576002836149ff565b915061526282615221565b600282019050919050565b7f226465736372697074696f6e223a22526174416c6572742c20746865204e465460008201527f2067616d652074686174206c65747320796f7520547261696e324561726e207960208201527f6f75722063686172616374657273206f6e2d636861696e20666f72206869676860408201527f65722072657761726473212068747470733a2f2f726174616c6572742e636f6d60608201527f2f222c0000000000000000000000000000000000000000000000000000000000608082015250565b600061533b6083836149ff565b91506153468261526d565b608382019050919050565b7f2265787465726e616c5f75726c223a2268747470733a2f2f726174616c65727460008201527f2e636f6d2f636861726163746572732f00000000000000000000000000000000602082015250565b60006153ad6030836149ff565b91506153b882615351565b603082019050919050565b7f22696d616765223a22646174613a696d6167652f7376672b786d6c3b6261736560008201527f36342c0000000000000000000000000000000000000000000000000000000000602082015250565b600061541f6023836149ff565b915061542a826153c3565b602382019050919050565b7f2261747472696275746573223a00000000000000000000000000000000000000600082015250565b600061546b600d836149ff565b915061547682615435565b600d82019050919050565b600061548c826151b2565b9150615497826151fe565b91506154a38288614a0a565b91506154af8287614a0a565b91506154ba8261524a565b91506154c58261532e565b91506154d0826153a0565b91506154dc8286614a0a565b91506154e78261524a565b91506154f282615412565b91506154fe8285614a0a565b91506155098261524a565b91506155148261545e565b91506155208284614a0a565b915061552b82614c88565b91508190509695505050505050565b7f646174613a6170706c69636174696f6e2f6a736f6e3b6261736536342c000000600082015250565b6000615570601d836149ff565b915061557b8261553a565b601d82019050919050565b600061559182615563565b915061559d8284614a0a565b915081905092915050565b7f4f776e61626c653a206e6577206f776e657220697320746865207a65726f206160008201527f6464726573730000000000000000000000000000000000000000000000000000602082015250565b600061560460268361436d565b915061560f826155a8565b604082019050919050565b60006020820190508181036000830152615633816155f7565b9050919050565b7f2200000000000000000000000000000000000000000000000000000000000000600082015250565b60006156706001836149ff565b915061567b8261563a565b600182019050919050565b600061569182615663565b915061569d8284614a0a565b91506156a882615663565b915081905092915050565b7f2d00000000000000000000000000000000000000000000000000000000000000600082015250565b60006156e96001836149ff565b91506156f4826156b3565b600182019050919050565b600061570a826156dc565b91506157168284614a0a565b915081905092915050565b7f22646973706c61795f74797065223a2200000000000000000000000000000000600082015250565b60006157576010836149ff565b915061576282615721565b601082019050919050565b60006157788261574a565b91506157848284614a0a565b915061578f8261524a565b915081905092915050565b7f2274726169745f74797065223a22000000000000000000000000000000000000600082015250565b60006157d0600e836149ff565b91506157db8261579a565b600e82019050919050565b7f2276616c7565223a000000000000000000000000000000000000000000000000600082015250565b600061581c6008836149ff565b9150615827826157e6565b600882019050919050565b600061583d826151b2565b9150615848826157c3565b91506158548287614a0a565b915061585f8261524a565b915061586b8286614a0a565b91506158778285614a0a565b91506158828261580f565b915061588e8284614a0a565b915061589982614bca565b915081905095945050505050565b60006158b2826142c7565b91506158bd836142c7565b92508161ffff04831182151516156158d8576158d761490c565b5b828202905092915050565b7f4e487b7100000000000000000000000000000000000000000000000000000000600052601260045260246000fd5b600061591d826142c7565b9150615928836142c7565b925082615938576159376158e3565b5b828204905092915050565b600061594e826142ff565b91507fffffffffffffffffffffffffffffffffffffffffffffffffffffffffffffffff8214156159815761598061490c565b5b600182019050919050565b6000615997826142ff565b91506159a2836142ff565b9250826159b2576159b16158e3565b5b828204905092915050565b60006159c8826142ff565b91506159d3836142ff565b9250828210156159e6576159e561490c565b5b828203905092915050565b60006159fc826142ff565b9150615a07836142ff565b925082615a1757615a166158e3565b5b828206905092915050565b6000615a2d826142ff565b9150615a38836142ff565b9250827fffffffffffffffffffffffffffffffffffffffffffffffffffffffffffffffff03821115615a6d57615a6c61490c565b5b828201905092915050565b7f3c696d61676520783d22302220793d2230222077696474683d2231303022206860008201527f65696768743d223130302220696d6167652d72656e646572696e673d2270697860208201527f656c6174656422207072657365727665417370656374526174696f3d22784d6960408201527f64594d69642220786c696e6b3a687265663d22646174613a696d6167652f706e60608201527f673b6261736536342c0000000000000000000000000000000000000000000000608082015250565b6000615b466089836149ff565b9150615b5182615a78565b608982019050919050565b7f222f3e0000000000000000000000000000000000000000000000000000000000600082015250565b6000615b926003836149ff565b9150615b9d82615b5c565b600382019050919050565b6000615bb382615b39565b9150615bbf8284614a0a565b9150615bca82615b85565b915081905092915050565b7f496e697469616c697a61626c653a20636f6e7472616374206973206e6f74206960008201527f6e697469616c697a696e67000000000000000000000000000000000000000000602082015250565b6000615c31602b8361436d565b9150615c3c82615bd5565b604082019050919050565b60006020820190508181036000830152615c6081615c24565b9050919050565b6000615c72826142ff565b9150615c7d836142ff565b9250817fffffffffffffffffffffffffffffffffffffffffffffffffffffffffffffffff0483118215151615615cb657615cb561490c565b5b82820290509291505056fe6956424f5277304b47676f414141414e5355684555674141414145414141414241514d414141416c3231624b414141414131424d564555414141436e656a33614141414141585253546c4d41514f62595a6741414141704a52454655434e646a59414141414149414165496876444d41414141415355564f524b35435949493d4142434445464748494a4b4c4d4e4f505152535455565758595a6162636465666768696a6b6c6d6e6f707172737475767778797a303132333435363738392b2fa2646970667358221220eefdab8339db26c6cf705b34d00c887f9a13afe2bf3e495abb1014c0a031616364736f6c634300080a0033",
  "immutableReferences": {},
  "source": "// SPDX-License-Identifier: MIT\n\npragma solidity ^0.8.0;\n\nimport \"@openzeppelin/contracts-upgradeable/proxy/utils/Initializable.sol\";\nimport \"@openzeppelin/contracts-upgradeable/access/OwnableUpgradeable.sol\";\nimport \"@openzeppelin/contracts-upgradeable/token/ERC721/ERC721Upgradeable.sol\";\nimport \"@openzeppelin/contracts/utils/Strings.sol\";\nimport \"./ITraits.sol\";\nimport \"./ICharacter.sol\";\n\ncontract TraitsV2 is Initializable, OwnableUpgradeable, ITraits {\n  using Strings for uint256;\n\n  struct Trait { // Struct to store each trait's data for metadata and rendering\n    string name;\n    string png;\n  }\n\n  string[16] _traitTypes;\n  uint16 public numHeadAndBodyTraits;\n  mapping(uint8 => mapping(uint8 => Trait)) public traitData; // Storage of each trait's name and base64 SVG data\n\n  ICharacter public character;\n\n  function initialize() external initializer {\n    __Ownable_init();\n\n    numHeadAndBodyTraits = 7;\n    _traitTypes = [ // Mapping from trait type (index) to its name\n      \"Hat\",\n      \"Eyes\",\n      \"Piercing\",\n      \"Mouth\",\n      \"Neck\",\n      \"Hand\",\n      \"Tail\",\n      \"Skill\",\n      \"Freak\",\n      \"Intelligence\",\n      \"Body mass\",\n      \"Skill percentage\",\n      \"Freak percentage\",\n      \"Intelligence quotient\",\n      \"Body mass percentage\",\n      \"Boost\"\n    ];\n  }\n\n  /**\n   * Generates a base64 encoded metadata response without referencing off-chain content\n   * @param tokenId - The ID of the token to generate the metadata for\n   * @return A base64 encoded JSON dictionary of the token's metadata and SVG\n   */\n  function tokenURI(uint256 tokenId) public view override returns (string memory) {\n    ICharacter.CharacterStruct memory s = character.getTokenTraits(tokenId);\n\n    string memory metadata = string(abi.encodePacked(\n      '{',\n      '\"name\":\"', s.isChef ? 'Chef #' : 'Rat #', tokenId.toString(), '\",',\n      '\"description\":\"RatAlert, the NFT game that lets you Train2Earn your characters on-chain for higher rewards! https://ratalert.com/\",',\n      '\"external_url\":\"https://ratalert.com/characters/', tokenId.toString(), '\",',\n      '\"image\":\"data:image/svg+xml;base64,', base64(bytes(drawSVG(tokenId))), '\",',\n      '\"attributes\":', getAttributes(tokenId),\n      '}'\n    ));\n\n    return string(abi.encodePacked(\n      \"data:application/json;base64,\",\n      base64(bytes(metadata))\n    ));\n  }\n\n  /**\n   * Returns the array index to use for rendering the respective head or body by the given value\n   * @param value - skill or tolerance value\n   * @return Array index\n   */\n  function getBodyIndex(uint8 value) internal view returns(uint8) {\n    uint256 val = value * numHeadAndBodyTraits / 100;\n    return val > numHeadAndBodyTraits - 1 ? uint8(numHeadAndBodyTraits - 1) : uint8(val);\n  }\n\n  /**\n   * Generates an entire SVG by composing multiple <image> elements of PNGs\n   * @param tokenId - The ID of the token to generate an SVG for\n   * @return A valid SVG string of the Character\n   */\n  function drawSVG(uint256 tokenId) public view returns (string memory) {\n    ICharacter.CharacterStruct memory s = character.getTokenTraits(tokenId);\n    uint8 shift = s.isChef ? 0 : 10;\n    uint8 head = getBodyIndex(s.tolerance);\n    uint8 body = getBodyIndex(s.efficiency);\n    uint8[17] memory order = [body, head, s.eyes, s.hat, s.neck, s.mouth, s.hand, 0, 0, 0, body, s.tail, head, s.piercing, s.eyes, s.hat, s.neck];\n    string memory svgString = string(abi.encodePacked(\n      drawTrait(traitData[0 + shift][order[0 + shift]]),\n      drawTrait(traitData[1 + shift][order[1 + shift]]),\n      drawTrait(traitData[2 + shift][order[2 + shift]]),\n      drawTrait(traitData[3 + shift][order[3 + shift]]),\n      drawTrait(traitData[4 + shift][order[4 + shift]]),\n      drawTrait(traitData[5 + shift][order[5 + shift]]),\n      drawTrait(traitData[6 + shift][order[6 + shift]])\n    ));\n\n    return string(abi.encodePacked(\n      '<svg id=\"', s.isChef ? 'chef' : 'rat', '\" width=\"100%\" height=\"100%\" version=\"1.1\" viewBox=\"0 0 100 100\" xmlns=\"http://www.w3.org/2000/svg\" xmlns:xlink=\"http://www.w3.org/1999/xlink\">',\n      svgString,\n      \"</svg>\"\n    ));\n  }\n\n  /**\n   * Generates an <image> element using base64 encoded PNGs\n   * @param trait - The trait storing the PNG data\n   * @return The <image> element\n   */\n  function drawTrait(Trait memory trait) internal pure returns (string memory) {\n    if (bytes(trait.png).length == 0) trait.png = 'iVBORw0KGgoAAAANSUhEUgAAAAEAAAABAQMAAAAl21bKAAAAA1BMVEUAAACnej3aAAAAAXRSTlMAQObYZgAAAApJREFUCNdjYAAAAAIAAeIhvDMAAAAASUVORK5CYII=';\n    return string(abi.encodePacked(\n      '<image x=\"0\" y=\"0\" width=\"100\" height=\"100\" image-rendering=\"pixelated\" preserveAspectRatio=\"xMidYMid\" xlink:href=\"data:image/png;base64,',\n      trait.png,\n      '\"/>'\n    ));\n  }\n\n  /**\n   * Generates an array composed of all the individual traits and values\n   * @param tokenId - The ID of the token to compose the metadata for\n   * @return A JSON array of all of the attributes for given token ID\n   */\n  function getAttributes(uint256 tokenId) public view returns (string memory) {\n    ICharacter.CharacterStruct memory s = character.getTokenTraits(tokenId);\n    string memory traits;\n    uint16 boost = s.boost < 0 ? 256 - uint8(s.boost) : uint8(s.boost);\n    bool boostNegative = s.boost < 0;\n    if (s.isChef) {\n      traits = string(abi.encodePacked(\n        getAttribute(_traitTypes[0], \"\", traitData[3][s.hat].name, false, false),\n        getAttribute(_traitTypes[1], \"\", traitData[2][s.eyes].name, false, false),\n        getAttribute(_traitTypes[3], \"\", traitData[5][s.mouth].name, false, false),\n        getAttribute(_traitTypes[4], \"\", traitData[4][s.neck].name, false, false),\n        getAttribute(_traitTypes[5], \"\", traitData[6][s.hand].name, false, false),\n        getAttribute(_traitTypes[7], \"\", traitData[0][getBodyIndex(s.efficiency)].name, false, false),\n        getAttribute(_traitTypes[8], \"\", traitData[1][getBodyIndex(s.tolerance)].name, false, false),\n        getAttribute(_traitTypes[11], \"\", Strings.toString(s.efficiency), true, false),\n        getAttribute(_traitTypes[12], \"\", Strings.toString(s.tolerance), true, false),\n        getAttribute(_traitTypes[15], \"boost_percentage\", Strings.toString(boost), true, boostNegative)\n      ));\n    } else {\n      traits = string(abi.encodePacked(\n        getAttribute(_traitTypes[0], \"\", traitData[15][s.hat].name, false, false),\n        getAttribute(_traitTypes[1], \"\", traitData[14][s.eyes].name, false, false),\n        getAttribute(_traitTypes[2], \"\", traitData[13][s.piercing].name, false, false),\n        getAttribute(_traitTypes[4], \"\", traitData[16][s.neck].name, false, false),\n        getAttribute(_traitTypes[6], \"\", traitData[11][s.tail].name, false, false),\n        getAttribute(_traitTypes[9], \"\", traitData[12][getBodyIndex(s.efficiency)].name, false, false),\n        getAttribute(_traitTypes[10], \"\", traitData[10][getBodyIndex(s.tolerance)].name, false, false),\n        getAttribute(_traitTypes[13], \"\", Strings.toString(s.efficiency), true, false),\n        getAttribute(_traitTypes[14], \"\", Strings.toString(s.tolerance), true, false),\n        getAttribute(_traitTypes[15], \"boost_percentage\", Strings.toString(boost), true, boostNegative)\n      ));\n    }\n    return string(abi.encodePacked(\n      '[',\n        '{\"trait_type\":\"Type\",\"value\":', s.isChef ? '\"Chef\"' : '\"Rat\"', '},',\n        traits,\n        '{\"trait_type\":\"Generation\",\"value\":', tokenId <= character.getGen0Tokens() ? '\"Gen 0\"' : '\"Gen 1\"', '}',\n      ']'\n    ));\n  }\n\n  /**\n   * Generates an attribute for the attributes array in the ERC721 metadata standard\n   * @param traitType - The trait type to reference as the metadata key\n   * @param value - The token's trait associated with the key\n   * @return A JSON dictionary for the single attribute\n   */\n  function getAttribute(string memory traitType, string memory valueType, string memory value, bool isInteger, bool isNegative) internal pure returns (string memory) {\n    if (!isInteger && bytes(value).length == 0) return '';\n    string memory val = isInteger ? (isNegative ? string(abi.encodePacked('-', value)) : value) : string(abi.encodePacked('\"', value, '\"'));\n    string memory displayType = bytes(valueType).length > 0 ? string(abi.encodePacked('\"display_type\":\"', valueType, '\",')) : '';\n    return string(abi.encodePacked(\n      '{',\n        '\"trait_type\":\"', traitType, '\",',\n        bytes(displayType).length > 0 ? displayType : '',\n        isInteger ? '\"max_value\":100,' : '',\n        '\"value\":', val,\n      '},'\n    ));\n  }\n\n  /**\n   * Sets the character interface\n   * @param _character - The character contract address\n   */\n  function setCharacter(address _character) external onlyOwner {\n    character = ICharacter(_character);\n  }\n\n  /**\n   * Used by admin to upload the names and images associated with each trait\n   * @param traitIndex - The trait type to upload the traits for (see traitTypes for a mapping)\n   * @param traits - The names and base64 encoded PNGs for each trait\n   */\n  function uploadTraits(uint8 traitIndex, Trait[] calldata traits) external onlyOwner {\n    require(traits.length > 0, \"traits array empty\");\n    for (uint8 i = 0; i < traits.length; i++) {\n      traitData[traitIndex][i] = Trait(\n        traits[i].name,\n        traits[i].png\n      );\n    }\n  }\n\n  /**\n   * base64 implementation - Written by Brech Devos\n   */\n  string internal constant TABLE = 'ABCDEFGHIJKLMNOPQRSTUVWXYZabcdefghijklmnopqrstuvwxyz0123456789+/';\n  function base64(bytes memory data) internal pure returns (string memory) {\n    if (data.length == 0) return '';\n    string memory table = TABLE; // load the table into memory\n    uint256 encodedLen = 4 * ((data.length + 2) / 3); // multiply by 4/3 rounded up\n    string memory result = new string(encodedLen + 32); // add some extra buffer at the end required for the writing\n    assembly {\n      mstore(result, encodedLen) // set the actual output length\n      let tablePtr := add(table, 1) // prepare the lookup table\n      let dataPtr := data // input ptr\n      let endPtr := add(dataPtr, mload(data))\n      let resultPtr := add(result, 32) // result ptr, jump over length\n      for {} lt(dataPtr, endPtr) {} // run over the input, 3 bytes at a time\n      {\n        dataPtr := add(dataPtr, 3)\n        let input := mload(dataPtr) // read 3 bytes\n        // write 4 characters\n        mstore(resultPtr, shl(248, mload(add(tablePtr, and(shr(18, input), 0x3F)))))\n        resultPtr := add(resultPtr, 1)\n        mstore(resultPtr, shl(248, mload(add(tablePtr, and(shr(12, input), 0x3F)))))\n        resultPtr := add(resultPtr, 1)\n        mstore(resultPtr, shl(248, mload(add(tablePtr, and(shr( 6, input), 0x3F)))))\n        resultPtr := add(resultPtr, 1)\n        mstore(resultPtr, shl(248, mload(add(tablePtr, and(        input,  0x3F)))))\n        resultPtr := add(resultPtr, 1)\n      }\n      // padding with '='\n      switch mod(mload(data), 3)\n      case 1 { mstore(sub(resultPtr, 2), shl(240, 0x3d3d)) }\n      case 2 { mstore(sub(resultPtr, 1), shl(248, 0x3d)) }\n    }\n    return result;\n  }\n}\n",
  "sourcePath": "/Users/chris/workspace/ratalert/ratalert-contracts/contracts/TraitsV2.sol",
  "compiler": {
    "name": "solc",
    "version": "0.8.10+commit.fc410830.Emscripten.clang"
  },
  "schemaVersion": "3.4.6",
  "updatedAt": "2022-03-29T21:48:13.802Z",
  "networkType": "ethereum",
  "devdoc": {
    "kind": "dev",
    "methods": {
      "drawSVG(uint256)": {
        "params": {
          "tokenId": "- The ID of the token to generate an SVG for"
        },
        "returns": {
          "_0": "A valid SVG string of the Character"
        }
      },
      "getAttributes(uint256)": {
        "params": {
          "tokenId": "- The ID of the token to compose the metadata for"
        },
        "returns": {
          "_0": "A JSON array of all of the attributes for given token ID"
        }
      },
      "owner()": {
        "details": "Returns the address of the current owner."
      },
      "renounceOwnership()": {
        "details": "Leaves the contract without owner. It will not be possible to call `onlyOwner` functions anymore. Can only be called by the current owner. NOTE: Renouncing ownership will leave the contract without an owner, thereby removing any functionality that is only available to the owner."
      },
      "setCharacter(address)": {
        "params": {
          "_character": "- The character contract address"
        }
      },
      "tokenURI(uint256)": {
        "params": {
          "tokenId": "- The ID of the token to generate the metadata for"
        },
        "returns": {
          "_0": "A base64 encoded JSON dictionary of the token's metadata and SVG"
        }
      },
      "transferOwnership(address)": {
        "details": "Transfers ownership of the contract to a new account (`newOwner`). Can only be called by the current owner."
      },
      "uploadTraits(uint8,(string,string)[])": {
        "params": {
          "traitIndex": "- The trait type to upload the traits for (see traitTypes for a mapping)",
          "traits": "- The names and base64 encoded PNGs for each trait"
        }
      }
    },
    "version": 1
  },
  "userdoc": {
    "kind": "user",
    "methods": {
      "drawSVG(uint256)": {
        "notice": "Generates an entire SVG by composing multiple <image> elements of PNGs"
      },
      "getAttributes(uint256)": {
        "notice": "Generates an array composed of all the individual traits and values"
      },
      "setCharacter(address)": {
        "notice": "Sets the character interface"
      },
      "tokenURI(uint256)": {
        "notice": "Generates a base64 encoded metadata response without referencing off-chain content"
      },
      "uploadTraits(uint8,(string,string)[])": {
        "notice": "Used by admin to upload the names and images associated with each trait"
      }
    },
    "version": 1
  }
}