{
  "contractName": "Traits",
  "abi": [
    {
      "anonymous": false,
      "inputs": [
        {
          "indexed": true,
          "internalType": "address",
          "name": "previousOwner",
          "type": "address"
        },
        {
          "indexed": true,
          "internalType": "address",
          "name": "newOwner",
          "type": "address"
        }
      ],
      "name": "OwnershipTransferred",
      "type": "event"
    },
    {
      "inputs": [],
      "name": "chefRat",
      "outputs": [
        {
          "internalType": "contract IChefRat",
          "name": "",
          "type": "address"
        }
      ],
      "stateMutability": "view",
      "type": "function",
      "constant": true
    },
    {
      "inputs": [],
      "name": "numHeadAndBodyTraits",
      "outputs": [
        {
          "internalType": "uint16",
          "name": "",
          "type": "uint16"
        }
      ],
      "stateMutability": "view",
      "type": "function",
      "constant": true
    },
    {
      "inputs": [],
      "name": "owner",
      "outputs": [
        {
          "internalType": "address",
          "name": "",
          "type": "address"
        }
      ],
      "stateMutability": "view",
      "type": "function",
      "constant": true
    },
    {
      "inputs": [],
      "name": "renounceOwnership",
      "outputs": [],
      "stateMutability": "nonpayable",
      "type": "function"
    },
    {
      "inputs": [
        {
          "internalType": "uint8",
          "name": "",
          "type": "uint8"
        },
        {
          "internalType": "uint8",
          "name": "",
          "type": "uint8"
        }
      ],
      "name": "traitData",
      "outputs": [
        {
          "internalType": "string",
          "name": "name",
          "type": "string"
        },
        {
          "internalType": "string",
          "name": "png",
          "type": "string"
        }
      ],
      "stateMutability": "view",
      "type": "function",
      "constant": true
    },
    {
      "inputs": [
        {
          "internalType": "address",
          "name": "newOwner",
          "type": "address"
        }
      ],
      "name": "transferOwnership",
      "outputs": [],
      "stateMutability": "nonpayable",
      "type": "function"
    },
    {
      "inputs": [],
      "name": "initialize",
      "outputs": [],
      "stateMutability": "nonpayable",
      "type": "function"
    },
    {
      "inputs": [
        {
          "internalType": "uint256",
          "name": "tokenId",
          "type": "uint256"
        }
      ],
      "name": "tokenURI",
      "outputs": [
        {
          "internalType": "string",
          "name": "",
          "type": "string"
        }
      ],
      "stateMutability": "view",
      "type": "function",
      "constant": true
    },
    {
      "inputs": [
        {
          "internalType": "uint256",
          "name": "tokenId",
          "type": "uint256"
        }
      ],
      "name": "drawSVG",
      "outputs": [
        {
          "internalType": "string",
          "name": "",
          "type": "string"
        }
      ],
      "stateMutability": "view",
      "type": "function",
      "constant": true
    },
    {
      "inputs": [
        {
          "internalType": "uint256",
          "name": "tokenId",
          "type": "uint256"
        }
      ],
      "name": "getAttributes",
      "outputs": [
        {
          "internalType": "string",
          "name": "",
          "type": "string"
        }
      ],
      "stateMutability": "view",
      "type": "function",
      "constant": true
    },
    {
      "inputs": [
        {
          "internalType": "address",
          "name": "_chefRat",
          "type": "address"
        }
      ],
      "name": "setChefRat",
      "outputs": [],
      "stateMutability": "nonpayable",
      "type": "function"
    },
    {
      "inputs": [
        {
          "internalType": "uint8",
          "name": "traitIndex",
          "type": "uint8"
        },
        {
          "components": [
            {
              "internalType": "string",
              "name": "name",
              "type": "string"
            },
            {
              "internalType": "string",
              "name": "png",
              "type": "string"
            }
          ],
          "internalType": "struct Traits.Trait[]",
          "name": "traits",
          "type": "tuple[]"
        }
      ],
      "name": "uploadTraits",
      "outputs": [],
      "stateMutability": "nonpayable",
      "type": "function"
    }
  ],
  "bytecode": "0x608060405234801561001057600080fd5b5061575f80620000216000396000f3fe608060405234801561001057600080fd5b50600436106100b45760003560e01c80638da5cb5b116100715780638da5cb5b146101695780639bf2ee3514610187578063b5448957146101b8578063c87b56dd146101d4578063f13d89c314610204578063f2fde38b14610220576100b4565b806334875edc146100b95780634378a6e3146100d75780636726defd14610107578063715018a6146101255780637abecb861461012f5780638129fc1c1461015f575b600080fd5b6100c161023c565b6040516100ce9190613e3e565b60405180910390f35b6100f160048036038101906100ec9190613ea3565b610250565b6040516100fe9190613f69565b60405180910390f35b61010f611bb4565b60405161011c919061400a565b60405180910390f35b61012d611bda565b005b61014960048036038101906101449190613ea3565b611c62565b6040516101569190613f69565b60405180910390f35b610167612a67565b005b610171612f01565b60405161017e9190614046565b60405180910390f35b6101a1600480360381019061019c919061409a565b612f2b565b6040516101af9291906140da565b60405180910390f35b6101d260048036038101906101cd9190614176565b61306c565b005b6101ee60048036038101906101e99190613ea3565b6132cc565b6040516101fb9190613f69565b60405180910390f35b61021e60048036038101906102199190614202565b613464565b005b61023a60048036038101906102359190614202565b613524565b005b607460009054906101000a900461ffff1681565b60606000607660009054906101000a900473ffffffffffffffffffffffffffffffffffffffff1673ffffffffffffffffffffffffffffffffffffffff166394e56847846040518263ffffffff1660e01b81526004016102af919061423e565b61018060405180830381865afa1580156102cd573d6000803e3d6000fd5b505050506040513d601f19601f820116820180604052508101906102f19190614448565b90506060816000015115610e835761046660656000600f811061031757610316614476565b5b018054610323906144d4565b80601f016020809104026020016040519081016040528092919081815260200182805461034f906144d4565b801561039c5780601f106103715761010080835404028352916020019161039c565b820191906000526020600020905b81548152906001019060200180831161037f57829003601f168201915b505050505060756000600360ff1681526020019081526020016000206000856020015160ff1660ff16815260200190815260200160002060000180546103e1906144d4565b80601f016020809104026020016040519081016040528092919081815260200182805461040d906144d4565b801561045a5780601f1061042f5761010080835404028352916020019161045a565b820191906000526020600020905b81548152906001019060200180831161043d57829003601f168201915b5050505050600061361c565b6105cd60656001600f811061047e5761047d614476565b5b01805461048a906144d4565b80601f01602080910402602001604051908101604052809291908181526020018280546104b6906144d4565b80156105035780601f106104d857610100808354040283529160200191610503565b820191906000526020600020905b8154815290600101906020018083116104e657829003601f168201915b505050505060756000600260ff1681526020019081526020016000206000866040015160ff1660ff1681526020019081526020016000206000018054610548906144d4565b80601f0160208091040260200160405190810160405280929190818152602001828054610574906144d4565b80156105c15780601f10610596576101008083540402835291602001916105c1565b820191906000526020600020905b8154815290600101906020018083116105a457829003601f168201915b5050505050600061361c565b61073460656003600f81106105e5576105e4614476565b5b0180546105f1906144d4565b80601f016020809104026020016040519081016040528092919081815260200182805461061d906144d4565b801561066a5780601f1061063f5761010080835404028352916020019161066a565b820191906000526020600020905b81548152906001019060200180831161064d57829003601f168201915b505050505060756000600560ff1681526020019081526020016000206000876080015160ff1660ff16815260200190815260200160002060000180546106af906144d4565b80601f01602080910402602001604051908101604052809291908181526020018280546106db906144d4565b80156107285780601f106106fd57610100808354040283529160200191610728565b820191906000526020600020905b81548152906001019060200180831161070b57829003601f168201915b5050505050600061361c565b61089b60656004600f811061074c5761074b614476565b5b018054610758906144d4565b80601f0160208091040260200160405190810160405280929190818152602001828054610784906144d4565b80156107d15780601f106107a6576101008083540402835291602001916107d1565b820191906000526020600020905b8154815290600101906020018083116107b457829003601f168201915b505050505060756000600460ff16815260200190815260200160002060008860a0015160ff1660ff1681526020019081526020016000206000018054610816906144d4565b80601f0160208091040260200160405190810160405280929190818152602001828054610842906144d4565b801561088f5780601f106108645761010080835404028352916020019161088f565b820191906000526020600020905b81548152906001019060200180831161087257829003601f168201915b5050505050600061361c565b610a0260656005600f81106108b3576108b2614476565b5b0180546108bf906144d4565b80601f01602080910402602001604051908101604052809291908181526020018280546108eb906144d4565b80156109385780601f1061090d57610100808354040283529160200191610938565b820191906000526020600020905b81548152906001019060200180831161091b57829003601f168201915b505050505060756000600660ff16815260200190815260200160002060008960c0015160ff1660ff168152602001908152602001600020600001805461097d906144d4565b80601f01602080910402602001604051908101604052809291908181526020018280546109a9906144d4565b80156109f65780601f106109cb576101008083540402835291602001916109f6565b820191906000526020600020905b8154815290600101906020018083116109d957829003601f168201915b5050505050600061361c565b610b7160656007600f8110610a1a57610a19614476565b5b018054610a26906144d4565b80601f0160208091040260200160405190810160405280929190818152602001828054610a52906144d4565b8015610a9f5780601f10610a7457610100808354040283529160200191610a9f565b820191906000526020600020905b815481529060010190602001808311610a8257829003601f168201915b5050505050607560008060ff1681526020019081526020016000206000610aca8b61012001516136f8565b60ff1660ff1681526020019081526020016000206000018054610aec906144d4565b80601f0160208091040260200160405190810160405280929190818152602001828054610b18906144d4565b8015610b655780601f10610b3a57610100808354040283529160200191610b65565b820191906000526020600020905b815481529060010190602001808311610b4857829003601f168201915b5050505050600061361c565b610ce160656008600f8110610b8957610b88614476565b5b018054610b95906144d4565b80601f0160208091040260200160405190810160405280929190818152602001828054610bc1906144d4565b8015610c0e5780601f10610be357610100808354040283529160200191610c0e565b820191906000526020600020905b815481529060010190602001808311610bf157829003601f168201915b505050505060756000600160ff1681526020019081526020016000206000610c3a8c61010001516136f8565b60ff1660ff1681526020019081526020016000206000018054610c5c906144d4565b80601f0160208091040260200160405190810160405280929190818152602001828054610c88906144d4565b8015610cd55780601f10610caa57610100808354040283529160200191610cd5565b820191906000526020600020905b815481529060010190602001808311610cb857829003601f168201915b5050505050600061361c565b610d9b6065600b600f8110610cf957610cf8614476565b5b018054610d05906144d4565b80601f0160208091040260200160405190810160405280929190818152602001828054610d31906144d4565b8015610d7e5780601f10610d5357610100808354040283529160200191610d7e565b820191906000526020600020905b815481529060010190602001808311610d6157829003601f168201915b5050505050610d948b610120015160ff1661377f565b600161361c565b610e556065600c600f8110610db357610db2614476565b5b018054610dbf906144d4565b80601f0160208091040260200160405190810160405280929190818152602001828054610deb906144d4565b8015610e385780601f10610e0d57610100808354040283529160200191610e38565b820191906000526020600020905b815481529060010190602001808311610e1b57829003601f168201915b5050505050610e4e8c610100015160ff1661377f565b600161361c565b604051602001610e6d99989796959493929190614542565b6040516020818303038152906040529050611a04565b610fea60656000600f8110610e9b57610e9a614476565b5b018054610ea7906144d4565b80601f0160208091040260200160405190810160405280929190818152602001828054610ed3906144d4565b8015610f205780601f10610ef557610100808354040283529160200191610f20565b820191906000526020600020905b815481529060010190602001808311610f0357829003601f168201915b505050505060756000600f60ff1681526020019081526020016000206000856020015160ff1660ff1681526020019081526020016000206000018054610f65906144d4565b80601f0160208091040260200160405190810160405280929190818152602001828054610f91906144d4565b8015610fde5780601f10610fb357610100808354040283529160200191610fde565b820191906000526020600020905b815481529060010190602001808311610fc157829003601f168201915b5050505050600061361c565b61115160656001600f811061100257611001614476565b5b01805461100e906144d4565b80601f016020809104026020016040519081016040528092919081815260200182805461103a906144d4565b80156110875780601f1061105c57610100808354040283529160200191611087565b820191906000526020600020905b81548152906001019060200180831161106a57829003601f168201915b505050505060756000600e60ff1681526020019081526020016000206000866040015160ff1660ff16815260200190815260200160002060000180546110cc906144d4565b80601f01602080910402602001604051908101604052809291908181526020018280546110f8906144d4565b80156111455780601f1061111a57610100808354040283529160200191611145565b820191906000526020600020905b81548152906001019060200180831161112857829003601f168201915b5050505050600061361c565b6112b860656002600f811061116957611168614476565b5b018054611175906144d4565b80601f01602080910402602001604051908101604052809291908181526020018280546111a1906144d4565b80156111ee5780601f106111c3576101008083540402835291602001916111ee565b820191906000526020600020905b8154815290600101906020018083116111d157829003601f168201915b505050505060756000600d60ff1681526020019081526020016000206000876060015160ff1660ff1681526020019081526020016000206000018054611233906144d4565b80601f016020809104026020016040519081016040528092919081815260200182805461125f906144d4565b80156112ac5780601f10611281576101008083540402835291602001916112ac565b820191906000526020600020905b81548152906001019060200180831161128f57829003601f168201915b5050505050600061361c565b61141f60656004600f81106112d0576112cf614476565b5b0180546112dc906144d4565b80601f0160208091040260200160405190810160405280929190818152602001828054611308906144d4565b80156113555780601f1061132a57610100808354040283529160200191611355565b820191906000526020600020905b81548152906001019060200180831161133857829003601f168201915b505050505060756000601060ff16815260200190815260200160002060008860a0015160ff1660ff168152602001908152602001600020600001805461139a906144d4565b80601f01602080910402602001604051908101604052809291908181526020018280546113c6906144d4565b80156114135780601f106113e857610100808354040283529160200191611413565b820191906000526020600020905b8154815290600101906020018083116113f657829003601f168201915b5050505050600061361c565b61158660656006600f811061143757611436614476565b5b018054611443906144d4565b80601f016020809104026020016040519081016040528092919081815260200182805461146f906144d4565b80156114bc5780601f10611491576101008083540402835291602001916114bc565b820191906000526020600020905b81548152906001019060200180831161149f57829003601f168201915b505050505060756000600b60ff16815260200190815260200160002060008960e0015160ff1660ff1681526020019081526020016000206000018054611501906144d4565b80601f016020809104026020016040519081016040528092919081815260200182805461152d906144d4565b801561157a5780601f1061154f5761010080835404028352916020019161157a565b820191906000526020600020905b81548152906001019060200180831161155d57829003601f168201915b5050505050600061361c565b6116f660656009600f811061159e5761159d614476565b5b0180546115aa906144d4565b80601f01602080910402602001604051908101604052809291908181526020018280546115d6906144d4565b80156116235780601f106115f857610100808354040283529160200191611623565b820191906000526020600020905b81548152906001019060200180831161160657829003601f168201915b505050505060756000600c60ff168152602001908152602001600020600061164f8b61014001516136f8565b60ff1660ff1681526020019081526020016000206000018054611671906144d4565b80601f016020809104026020016040519081016040528092919081815260200182805461169d906144d4565b80156116ea5780601f106116bf576101008083540402835291602001916116ea565b820191906000526020600020905b8154815290600101906020018083116116cd57829003601f168201915b5050505050600061361c565b6118666065600a600f811061170e5761170d614476565b5b01805461171a906144d4565b80601f0160208091040260200160405190810160405280929190818152602001828054611746906144d4565b80156117935780601f1061176857610100808354040283529160200191611793565b820191906000526020600020905b81548152906001019060200180831161177657829003601f168201915b505050505060756000600a60ff16815260200190815260200160002060006117bf8c61016001516136f8565b60ff1660ff16815260200190815260200160002060000180546117e1906144d4565b80601f016020809104026020016040519081016040528092919081815260200182805461180d906144d4565b801561185a5780601f1061182f5761010080835404028352916020019161185a565b820191906000526020600020905b81548152906001019060200180831161183d57829003601f168201915b5050505050600061361c565b6119206065600d600f811061187e5761187d614476565b5b01805461188a906144d4565b80601f01602080910402602001604051908101604052809291908181526020018280546118b6906144d4565b80156119035780601f106118d857610100808354040283529160200191611903565b820191906000526020600020905b8154815290600101906020018083116118e657829003601f168201915b50505050506119198b610140015160ff1661377f565b600161361c565b6119da6065600e600f811061193857611937614476565b5b018054611944906144d4565b80601f0160208091040260200160405190810160405280929190818152602001828054611970906144d4565b80156119bd5780601f10611992576101008083540402835291602001916119bd565b820191906000526020600020905b8154815290600101906020018083116119a057829003601f168201915b50505050506119d38c610160015160ff1661377f565b600161361c565b6040516020016119f299989796959493929190614542565b60405160208183030381529060405290505b8160000151611a48576040518060400160405280600581526020017f2252617422000000000000000000000000000000000000000000000000000000815250611a7f565b6040518060400160405280600681526020017f22436865662200000000000000000000000000000000000000000000000000008152505b81607660009054906101000a900473ffffffffffffffffffffffffffffffffffffffff1673ffffffffffffffffffffffffffffffffffffffff16634018b1f86040518163ffffffff1660e01b8152600401602060405180830381865afa158015611aed573d6000803e3d6000fd5b505050506040513d601f19601f82011682018060405250810190611b1191906145d6565b861115611b53576040518060400160405280600781526020017f2247656e20312200000000000000000000000000000000000000000000000000815250611b8a565b6040518060400160405280600781526020017f2247656e203022000000000000000000000000000000000000000000000000008152505b604051602001611b9c939291906147f1565b60405160208183030381529060405292505050919050565b607660009054906101000a900473ffffffffffffffffffffffffffffffffffffffff1681565b611be26138e0565b73ffffffffffffffffffffffffffffffffffffffff16611c00612f01565b73ffffffffffffffffffffffffffffffffffffffff1614611c56576040517f08c379a0000000000000000000000000000000000000000000000000000000008152600401611c4d906148b0565b60405180910390fd5b611c6060006138e8565b565b60606000607660009054906101000a900473ffffffffffffffffffffffffffffffffffffffff1673ffffffffffffffffffffffffffffffffffffffff166394e56847846040518263ffffffff1660e01b8152600401611cc1919061423e565b61018060405180830381865afa158015611cdf573d6000803e3d6000fd5b505050506040513d601f19601f82011682018060405250810190611d039190614448565b905060008160000151611d1757600a611d1a565b60005b90506000611d418360000151611d3557836101400151611d3c565b8361012001515b6136f8565b90506000611d688460000151611d5c57846101600151611d63565b8461010001515b6136f8565b905060006040518061022001604052808360ff1660ff1681526020018460ff1660ff168152602001866040015160ff1660ff168152602001866020015160ff1660ff1681526020018660a0015160ff1660ff168152602001866080015160ff1660ff1681526020018660c0015160ff1660ff168152602001600060ff168152602001600060ff168152602001600060ff1681526020018360ff1660ff1681526020018660e0015160ff1660ff1681526020018460ff1660ff168152602001866060015160ff1660ff168152602001866040015160ff1660ff168152602001866020015160ff1660ff1681526020018660a0015160ff1660ff168152509050600061200160756000876000611e7c91906148ff565b60ff1660ff168152602001908152602001600020600084886000611ea091906148ff565b60ff1660118110611eb457611eb3614476565b5b602002015160ff1660ff168152602001908152602001600020604051806040016040529081600082018054611ee8906144d4565b80601f0160208091040260200160405190810160405280929190818152602001828054611f14906144d4565b8015611f615780601f10611f3657610100808354040283529160200191611f61565b820191906000526020600020905b815481529060010190602001808311611f4457829003601f168201915b50505050508152602001600182018054611f7a906144d4565b80601f0160208091040260200160405190810160405280929190818152602001828054611fa6906144d4565b8015611ff35780601f10611fc857610100808354040283529160200191611ff3565b820191906000526020600020905b815481529060010190602001808311611fd657829003601f168201915b5050505050815250506139ae565b61219a6075600088600161201591906148ff565b60ff1660ff16815260200190815260200160002060008589600161203991906148ff565b60ff166011811061204d5761204c614476565b5b602002015160ff1660ff168152602001908152602001600020604051806040016040529081600082018054612081906144d4565b80601f01602080910402602001604051908101604052809291908181526020018280546120ad906144d4565b80156120fa5780601f106120cf576101008083540402835291602001916120fa565b820191906000526020600020905b8154815290600101906020018083116120dd57829003601f168201915b50505050508152602001600182018054612113906144d4565b80601f016020809104026020016040519081016040528092919081815260200182805461213f906144d4565b801561218c5780601f106121615761010080835404028352916020019161218c565b820191906000526020600020905b81548152906001019060200180831161216f57829003601f168201915b5050505050815250506139ae565b612333607560008960026121ae91906148ff565b60ff1660ff1681526020019081526020016000206000868a60026121d291906148ff565b60ff16601181106121e6576121e5614476565b5b602002015160ff1660ff16815260200190815260200160002060405180604001604052908160008201805461221a906144d4565b80601f0160208091040260200160405190810160405280929190818152602001828054612246906144d4565b80156122935780601f1061226857610100808354040283529160200191612293565b820191906000526020600020905b81548152906001019060200180831161227657829003601f168201915b505050505081526020016001820180546122ac906144d4565b80601f01602080910402602001604051908101604052809291908181526020018280546122d8906144d4565b80156123255780601f106122fa57610100808354040283529160200191612325565b820191906000526020600020905b81548152906001019060200180831161230857829003601f168201915b5050505050815250506139ae565b6124cc607560008a600361234791906148ff565b60ff1660ff1681526020019081526020016000206000878b600361236b91906148ff565b60ff166011811061237f5761237e614476565b5b602002015160ff1660ff1681526020019081526020016000206040518060400160405290816000820180546123b3906144d4565b80601f01602080910402602001604051908101604052809291908181526020018280546123df906144d4565b801561242c5780601f106124015761010080835404028352916020019161242c565b820191906000526020600020905b81548152906001019060200180831161240f57829003601f168201915b50505050508152602001600182018054612445906144d4565b80601f0160208091040260200160405190810160405280929190818152602001828054612471906144d4565b80156124be5780601f10612493576101008083540402835291602001916124be565b820191906000526020600020905b8154815290600101906020018083116124a157829003601f168201915b5050505050815250506139ae565b612665607560008b60046124e091906148ff565b60ff1660ff1681526020019081526020016000206000888c600461250491906148ff565b60ff166011811061251857612517614476565b5b602002015160ff1660ff16815260200190815260200160002060405180604001604052908160008201805461254c906144d4565b80601f0160208091040260200160405190810160405280929190818152602001828054612578906144d4565b80156125c55780601f1061259a576101008083540402835291602001916125c5565b820191906000526020600020905b8154815290600101906020018083116125a857829003601f168201915b505050505081526020016001820180546125de906144d4565b80601f016020809104026020016040519081016040528092919081815260200182805461260a906144d4565b80156126575780601f1061262c57610100808354040283529160200191612657565b820191906000526020600020905b81548152906001019060200180831161263a57829003601f168201915b5050505050815250506139ae565b6127fe607560008c600561267991906148ff565b60ff1660ff1681526020019081526020016000206000898d600561269d91906148ff565b60ff16601181106126b1576126b0614476565b5b602002015160ff1660ff1681526020019081526020016000206040518060400160405290816000820180546126e5906144d4565b80601f0160208091040260200160405190810160405280929190818152602001828054612711906144d4565b801561275e5780601f106127335761010080835404028352916020019161275e565b820191906000526020600020905b81548152906001019060200180831161274157829003601f168201915b50505050508152602001600182018054612777906144d4565b80601f01602080910402602001604051908101604052809291908181526020018280546127a3906144d4565b80156127f05780601f106127c5576101008083540402835291602001916127f0565b820191906000526020600020905b8154815290600101906020018083116127d357829003601f168201915b5050505050815250506139ae565b612997607560008d600661281291906148ff565b60ff1660ff16815260200190815260200160002060008a8e600661283691906148ff565b60ff166011811061284a57612849614476565b5b602002015160ff1660ff16815260200190815260200160002060405180604001604052908160008201805461287e906144d4565b80601f01602080910402602001604051908101604052809291908181526020018280546128aa906144d4565b80156128f75780601f106128cc576101008083540402835291602001916128f7565b820191906000526020600020905b8154815290600101906020018083116128da57829003601f168201915b50505050508152602001600182018054612910906144d4565b80601f016020809104026020016040519081016040528092919081815260200182805461293c906144d4565b80156129895780601f1061295e57610100808354040283529160200191612989565b820191906000526020600020905b81548152906001019060200180831161296c57829003601f168201915b5050505050815250506139ae565b6040516020016129ad9796959493929190614936565b60405160208183030381529060405290508560000151612a02576040518060400160405280600381526020017f7261740000000000000000000000000000000000000000000000000000000000815250612a39565b6040518060400160405280600481526020017f63686566000000000000000000000000000000000000000000000000000000008152505b81604051602001612a4b929190614b17565b6040516020818303038152906040529650505050505050919050565b600060019054906101000a900460ff16612a8f5760008054906101000a900460ff1615612a98565b612a97613a0b565b5b612ad7576040517f08c379a0000000000000000000000000000000000000000000000000000000008152600401612ace90614bce565b60405180910390fd5b60008060019054906101000a900460ff161590508015612b27576001600060016101000a81548160ff02191690831515021790555060016000806101000a81548160ff0219169083151502179055505b612b2f613a1c565b6007607460006101000a81548161ffff021916908361ffff160217905550604051806101e001604052806040518060400160405280600381526020017f486174000000000000000000000000000000000000000000000000000000000081525081526020016040518060400160405280600481526020017f457965730000000000000000000000000000000000000000000000000000000081525081526020016040518060400160405280600881526020017f5069657263696e6700000000000000000000000000000000000000000000000081525081526020016040518060400160405280600581526020017f4d6f75746800000000000000000000000000000000000000000000000000000081525081526020016040518060400160405280600481526020017f4e65636b0000000000000000000000000000000000000000000000000000000081525081526020016040518060400160405280600481526020017f48616e640000000000000000000000000000000000000000000000000000000081525081526020016040518060400160405280600481526020017f5461696c0000000000000000000000000000000000000000000000000000000081525081526020016040518060400160405280600581526020017f536b696c6c00000000000000000000000000000000000000000000000000000081525081526020016040518060400160405280600881526020017f496e73616e69747900000000000000000000000000000000000000000000000081525081526020016040518060400160405280600c81526020017f496e74656c6c6967656e6365000000000000000000000000000000000000000081525081526020016040518060400160405280600781526020017f4661746e6573730000000000000000000000000000000000000000000000000081525081526020016040518060400160405280601081526020017f536b696c6c2070657263656e746167650000000000000000000000000000000081525081526020016040518060400160405280601381526020017f496e73616e6974792070657263656e746167650000000000000000000000000081525081526020016040518060400160405280601581526020017f496e74656c6c6967656e63652071756f7469656e74000000000000000000000081525081526020016040518060400160405280601281526020017f4661746e6573732070657263656e746167650000000000000000000000000000815250815250606590600f612edc929190613cc7565b508015612efe5760008060016101000a81548160ff0219169083151502179055505b50565b6000603360009054906101000a900473ffffffffffffffffffffffffffffffffffffffff16905090565b607560205281600052604060002060205280600052604060002060009150915050806000018054612f5b906144d4565b80601f0160208091040260200160405190810160405280929190818152602001828054612f87906144d4565b8015612fd45780601f10612fa957610100808354040283529160200191612fd4565b820191906000526020600020905b815481529060010190602001808311612fb757829003601f168201915b505050505090806001018054612fe9906144d4565b80601f0160208091040260200160405190810160405280929190818152602001828054613015906144d4565b80156130625780601f1061303757610100808354040283529160200191613062565b820191906000526020600020905b81548152906001019060200180831161304557829003601f168201915b5050505050905082565b6130746138e0565b73ffffffffffffffffffffffffffffffffffffffff16613092612f01565b73ffffffffffffffffffffffffffffffffffffffff16146130e8576040517f08c379a00000000000000000000000000000000000000000000000000000000081526004016130df906148b0565b60405180910390fd5b6000828290501161312e576040517f08c379a000000000000000000000000000000000000000000000000000000000815260040161312590614c3a565b60405180910390fd5b60005b828290508160ff1610156132c657604051806040016040528084848460ff168181106131605761315f614476565b5b90506020028101906131729190614c69565b80600001906131819190614c91565b8080601f016020809104026020016040519081016040528093929190818152602001838380828437600081840152601f19601f82011690508083019250505050505050815260200184848460ff168181106131df576131de614476565b5b90506020028101906131f19190614c69565b80602001906132009190614c91565b8080601f016020809104026020016040519081016040528093929190818152602001838380828437600081840152601f19601f82011690508083019250505050505050815250607560008660ff1660ff16815260200190815260200160002060008360ff1660ff1681526020019081526020016000206000820151816000019080519060200190613292929190613d1a565b5060208201518160010190805190602001906132af929190613d1a565b5090505080806132be90614cf4565b915050613131565b50505050565b60606000607660009054906101000a900473ffffffffffffffffffffffffffffffffffffffff1673ffffffffffffffffffffffffffffffffffffffff166394e56847846040518263ffffffff1660e01b815260040161332b919061423e565b61018060405180830381865afa158015613349573d6000803e3d6000fd5b505050506040513d601f19601f8201168201806040525081019061336d9190614448565b9050600081600001516133b5576040518060400160405280600581526020017f52617420230000000000000000000000000000000000000000000000000000008152506133ec565b6040518060400160405280600681526020017f43686566202300000000000000000000000000000000000000000000000000008152505b6133f58561377f565b61340661340187611c62565b613a7d565b61340f87610250565b6040516020016134229493929190614f0c565b604051602081830303815290604052905061343c81613a7d565b60405160200161344c9190614fee565b60405160208183030381529060405292505050919050565b61346c6138e0565b73ffffffffffffffffffffffffffffffffffffffff1661348a612f01565b73ffffffffffffffffffffffffffffffffffffffff16146134e0576040517f08c379a00000000000000000000000000000000000000000000000000000000081526004016134d7906148b0565b60405180910390fd5b80607660006101000a81548173ffffffffffffffffffffffffffffffffffffffff021916908373ffffffffffffffffffffffffffffffffffffffff16021790555050565b61352c6138e0565b73ffffffffffffffffffffffffffffffffffffffff1661354a612f01565b73ffffffffffffffffffffffffffffffffffffffff16146135a0576040517f08c379a0000000000000000000000000000000000000000000000000000000008152600401613597906148b0565b60405180910390fd5b600073ffffffffffffffffffffffffffffffffffffffff168173ffffffffffffffffffffffffffffffffffffffff161415613610576040517f08c379a000000000000000000000000000000000000000000000000000000000815260040161360790615082565b60405180910390fd5b613619816138e8565b50565b60608115801561362d575060008351145b15613649576040518060200160405280600081525090506136f1565b600082613675578360405160200161366191906150ee565b604051602081830303815290604052613677565b835b9050848361369457604051806020016040528060008152506136cb565b6040518060400160405280601081526020017f226d61785f76616c7565223a3130302c000000000000000000000000000000008152505b826040516020016136de939291906151b3565b6040516020818303038152906040529150505b9392505050565b6000806064607460009054906101000a900461ffff168460ff1661371c919061521b565b6137269190615286565b61ffff1690506001607460009054906101000a900461ffff1661374991906152b7565b61ffff1681116137595780613777565b6001607460009054906101000a900461ffff1661377691906152b7565b5b915050919050565b606060008214156137c7576040518060400160405280600181526020017f300000000000000000000000000000000000000000000000000000000000000081525090506138db565b600082905060005b600082146137f95780806137e2906152eb565b915050600a826137f29190615334565b91506137cf565b60008167ffffffffffffffff8111156138155761381461425e565b5b6040519080825280601f01601f1916602001820160405280156138475781602001600182028036833780820191505090505b5090505b600085146138d4576001826138609190615365565b9150600a8561386f9190615399565b603061387b91906153ca565b60f81b81838151811061389157613890614476565b5b60200101907effffffffffffffffffffffffffffffffffffffffffffffffffffffffffffff1916908160001a905350600a856138cd9190615334565b945061384b565b8093505050505b919050565b600033905090565b6000603360009054906101000a900473ffffffffffffffffffffffffffffffffffffffff16905081603360006101000a81548173ffffffffffffffffffffffffffffffffffffffff021916908373ffffffffffffffffffffffffffffffffffffffff1602179055508173ffffffffffffffffffffffffffffffffffffffff168173ffffffffffffffffffffffffffffffffffffffff167f8be0079c531659141344cd1fd0a4f28419497f9722a3daafe3b4186f6b6457e060405160405180910390a35050565b6060600082602001515114156139e0576040518060a001604052806080815260200161566a6080913982602001819052505b81602001516040516020016139f59190615550565b6040516020818303038152906040529050919050565b6000613a1630613c02565b15905090565b600060019054906101000a900460ff16613a6b576040517f08c379a0000000000000000000000000000000000000000000000000000000008152600401613a62906155ef565b60405180910390fd5b613a73613c15565b613a7b613c66565b565b6060600082511415613aa057604051806020016040528060008152509050613bfd565b60006040518060600160405280604081526020016156ea6040913990506000600360028551613acf91906153ca565b613ad99190615334565b6004613ae5919061560f565b90506000602082613af691906153ca565b67ffffffffffffffff811115613b0f57613b0e61425e565b5b6040519080825280601f01601f191660200182016040528015613b415781602001600182028036833780820191505090505b509050818152600183018586518101602084015b81831015613bbc576003830192508251603f8160121c1685015160f81b8252600182019150603f81600c1c1685015160f81b8252600182019150603f8160061c1685015160f81b8252600182019150603f811685015160f81b825260018201915050613b55565b600389510660018114613bd65760028114613be657613bf1565b613d3d60f01b6002830352613bf1565b603d60f81b60018303525b50505050508093505050505b919050565b600080823b905060008111915050919050565b600060019054906101000a900460ff16613c64576040517f08c379a0000000000000000000000000000000000000000000000000000000008152600401613c5b906155ef565b60405180910390fd5b565b600060019054906101000a900460ff16613cb5576040517f08c379a0000000000000000000000000000000000000000000000000000000008152600401613cac906155ef565b60405180910390fd5b613cc5613cc06138e0565b6138e8565b565b82600f8101928215613d09579160200282015b82811115613d08578251829080519060200190613cf8929190613d1a565b5091602001919060010190613cda565b5b509050613d169190613da0565b5090565b828054613d26906144d4565b90600052602060002090601f016020900481019282613d485760008555613d8f565b82601f10613d6157805160ff1916838001178555613d8f565b82800160010185558215613d8f579182015b82811115613d8e578251825591602001919060010190613d73565b5b509050613d9c9190613dc4565b5090565b5b80821115613dc05760008181613db79190613de1565b50600101613da1565b5090565b5b80821115613ddd576000816000905550600101613dc5565b5090565b508054613ded906144d4565b6000825580601f10613dff5750613e1e565b601f016020900490600052602060002090810190613e1d9190613dc4565b5b50565b600061ffff82169050919050565b613e3881613e21565b82525050565b6000602082019050613e536000830184613e2f565b92915050565b6000604051905090565b600080fd5b600080fd5b6000819050919050565b613e8081613e6d565b8114613e8b57600080fd5b50565b600081359050613e9d81613e77565b92915050565b600060208284031215613eb957613eb8613e63565b5b6000613ec784828501613e8e565b91505092915050565b600081519050919050565b600082825260208201905092915050565b60005b83811015613f0a578082015181840152602081019050613eef565b83811115613f19576000848401525b50505050565b6000601f19601f8301169050919050565b6000613f3b82613ed0565b613f458185613edb565b9350613f55818560208601613eec565b613f5e81613f1f565b840191505092915050565b60006020820190508181036000830152613f838184613f30565b905092915050565b600073ffffffffffffffffffffffffffffffffffffffff82169050919050565b6000819050919050565b6000613fd0613fcb613fc684613f8b565b613fab565b613f8b565b9050919050565b6000613fe282613fb5565b9050919050565b6000613ff482613fd7565b9050919050565b61400481613fe9565b82525050565b600060208201905061401f6000830184613ffb565b92915050565b600061403082613f8b565b9050919050565b61404081614025565b82525050565b600060208201905061405b6000830184614037565b92915050565b600060ff82169050919050565b61407781614061565b811461408257600080fd5b50565b6000813590506140948161406e565b92915050565b600080604083850312156140b1576140b0613e63565b5b60006140bf85828601614085565b92505060206140d085828601614085565b9150509250929050565b600060408201905081810360008301526140f48185613f30565b905081810360208301526141088184613f30565b90509392505050565b600080fd5b600080fd5b600080fd5b60008083601f84011261413657614135614111565b5b8235905067ffffffffffffffff81111561415357614152614116565b5b60208301915083602082028301111561416f5761416e61411b565b5b9250929050565b60008060006040848603121561418f5761418e613e63565b5b600061419d86828701614085565b935050602084013567ffffffffffffffff8111156141be576141bd613e68565b5b6141ca86828701614120565b92509250509250925092565b6141df81614025565b81146141ea57600080fd5b50565b6000813590506141fc816141d6565b92915050565b60006020828403121561421857614217613e63565b5b6000614226848285016141ed565b91505092915050565b61423881613e6d565b82525050565b6000602082019050614253600083018461422f565b92915050565b600080fd5b7f4e487b7100000000000000000000000000000000000000000000000000000000600052604160045260246000fd5b61429682613f1f565b810181811067ffffffffffffffff821117156142b5576142b461425e565b5b80604052505050565b60006142c8613e59565b90506142d4828261428d565b919050565b60008115159050919050565b6142ee816142d9565b81146142f957600080fd5b50565b60008151905061430b816142e5565b92915050565b6000815190506143208161406e565b92915050565b6000610180828403121561433d5761433c614259565b5b6143486101806142be565b90506000614358848285016142fc565b600083015250602061436c84828501614311565b602083015250604061438084828501614311565b604083015250606061439484828501614311565b60608301525060806143a884828501614311565b60808301525060a06143bc84828501614311565b60a08301525060c06143d084828501614311565b60c08301525060e06143e484828501614311565b60e0830152506101006143f984828501614311565b6101008301525061012061440f84828501614311565b6101208301525061014061442584828501614311565b6101408301525061016061443b84828501614311565b6101608301525092915050565b6000610180828403121561445f5761445e613e63565b5b600061446d84828501614326565b91505092915050565b7f4e487b7100000000000000000000000000000000000000000000000000000000600052603260045260246000fd5b7f4e487b7100000000000000000000000000000000000000000000000000000000600052602260045260246000fd5b600060028204905060018216806144ec57607f821691505b60208210811415614500576144ff6144a5565b5b50919050565b600081905092915050565b600061451c82613ed0565b6145268185614506565b9350614536818560208601613eec565b80840191505092915050565b600061454e828c614511565b915061455a828b614511565b9150614566828a614511565b91506145728289614511565b915061457e8288614511565b915061458a8287614511565b91506145968286614511565b91506145a28285614511565b91506145ae8284614511565b91508190509a9950505050505050505050565b6000815190506145d081613e77565b92915050565b6000602082840312156145ec576145eb613e63565b5b60006145fa848285016145c1565b91505092915050565b7f5b00000000000000000000000000000000000000000000000000000000000000600082015250565b6000614639600183614506565b915061464482614603565b600182019050919050565b7f7b2274726169745f74797065223a2254797065222c2276616c7565223a000000600082015250565b6000614685601d83614506565b91506146908261464f565b601d82019050919050565b7f7d2c000000000000000000000000000000000000000000000000000000000000600082015250565b60006146d1600283614506565b91506146dc8261469b565b600282019050919050565b7f7b2274726169745f74797065223a2247656e65726174696f6e222c2276616c7560008201527f65223a0000000000000000000000000000000000000000000000000000000000602082015250565b6000614743602383614506565b915061474e826146e7565b602382019050919050565b7f7d00000000000000000000000000000000000000000000000000000000000000600082015250565b600061478f600183614506565b915061479a82614759565b600182019050919050565b7f5d00000000000000000000000000000000000000000000000000000000000000600082015250565b60006147db600183614506565b91506147e6826147a5565b600182019050919050565b60006147fc8261462c565b915061480782614678565b91506148138286614511565b915061481e826146c4565b915061482a8285614511565b915061483582614736565b91506148418284614511565b915061484c82614782565b9150614857826147ce565b9150819050949350505050565b7f4f776e61626c653a2063616c6c6572206973206e6f7420746865206f776e6572600082015250565b600061489a602083613edb565b91506148a582614864565b602082019050919050565b600060208201905081810360008301526148c98161488d565b9050919050565b7f4e487b7100000000000000000000000000000000000000000000000000000000600052601160045260246000fd5b600061490a82614061565b915061491583614061565b92508260ff0382111561492b5761492a6148d0565b5b828201905092915050565b6000614942828a614511565b915061494e8289614511565b915061495a8288614511565b91506149668287614511565b91506149728286614511565b915061497e8285614511565b915061498a8284614511565b915081905098975050505050505050565b7f3c7376672069643d220000000000000000000000000000000000000000000000600082015250565b60006149d1600983614506565b91506149dc8261499b565b600982019050919050565b7f222077696474683d223130302522206865696768743d2231303025222076657260008201527f73696f6e3d22312e31222076696577426f783d2230203020313030203130302260208201527f20786d6c6e733d22687474703a2f2f7777772e77332e6f72672f323030302f7360408201527f76672220786d6c6e733a786c696e6b3d22687474703a2f2f7777772e77332e6f60608201527f72672f313939392f786c696e6b223e0000000000000000000000000000000000608082015250565b6000614ab5608f83614506565b9150614ac0826149e7565b608f82019050919050565b7f3c2f7376673e0000000000000000000000000000000000000000000000000000600082015250565b6000614b01600683614506565b9150614b0c82614acb565b600682019050919050565b6000614b22826149c4565b9150614b2e8285614511565b9150614b3982614aa8565b9150614b458284614511565b9150614b5082614af4565b91508190509392505050565b7f496e697469616c697a61626c653a20636f6e747261637420697320616c72656160008201527f647920696e697469616c697a6564000000000000000000000000000000000000602082015250565b6000614bb8602e83613edb565b9150614bc382614b5c565b604082019050919050565b60006020820190508181036000830152614be781614bab565b9050919050565b7f74726169747320617272617920656d7074790000000000000000000000000000600082015250565b6000614c24601283613edb565b9150614c2f82614bee565b602082019050919050565b60006020820190508181036000830152614c5381614c17565b9050919050565b600080fd5b600080fd5b600080fd5b600082356001604003833603038112614c8557614c84614c5a565b5b80830191505092915050565b60008083356001602003843603038112614cae57614cad614c5a565b5b80840192508235915067ffffffffffffffff821115614cd057614ccf614c5f565b5b602083019250600182023603831315614cec57614ceb614c64565b5b509250929050565b6000614cff82614061565b915060ff821415614d1357614d126148d0565b5b600182019050919050565b7f7b00000000000000000000000000000000000000000000000000000000000000600082015250565b6000614d54600183614506565b9150614d5f82614d1e565b600182019050919050565b7f226e616d65223a22000000000000000000000000000000000000000000000000600082015250565b6000614da0600883614506565b9150614dab82614d6a565b600882019050919050565b7f222c000000000000000000000000000000000000000000000000000000000000600082015250565b6000614dec600283614506565b9150614df782614db6565b600282019050919050565b7f226465736372697074696f6e223a22544f444f222c0000000000000000000000600082015250565b6000614e38601583614506565b9150614e4382614e02565b601582019050919050565b7f22696d616765223a22646174613a696d6167652f7376672b786d6c3b6261736560008201527f36342c0000000000000000000000000000000000000000000000000000000000602082015250565b6000614eaa602383614506565b9150614eb582614e4e565b602382019050919050565b7f2261747472696275746573223a00000000000000000000000000000000000000600082015250565b6000614ef6600d83614506565b9150614f0182614ec0565b600d82019050919050565b6000614f1782614d47565b9150614f2282614d93565b9150614f2e8287614511565b9150614f3a8286614511565b9150614f4582614ddf565b9150614f5082614e2b565b9150614f5b82614e9d565b9150614f678285614511565b9150614f7282614ddf565b9150614f7d82614ee9565b9150614f898284614511565b9150614f9482614782565b915081905095945050505050565b7f646174613a6170706c69636174696f6e2f6a736f6e3b6261736536342c000000600082015250565b6000614fd8601d83614506565b9150614fe382614fa2565b601d82019050919050565b6000614ff982614fcb565b91506150058284614511565b915081905092915050565b7f4f776e61626c653a206e6577206f776e657220697320746865207a65726f206160008201527f6464726573730000000000000000000000000000000000000000000000000000602082015250565b600061506c602683613edb565b915061507782615010565b604082019050919050565b6000602082019050818103600083015261509b8161505f565b9050919050565b7f2200000000000000000000000000000000000000000000000000000000000000600082015250565b60006150d8600183614506565b91506150e3826150a2565b600182019050919050565b60006150f9826150cb565b91506151058284614511565b9150615110826150cb565b915081905092915050565b7f2274726169745f74797065223a22000000000000000000000000000000000000600082015250565b6000615151600e83614506565b915061515c8261511b565b600e82019050919050565b7f2276616c7565223a000000000000000000000000000000000000000000000000600082015250565b600061519d600883614506565b91506151a882615167565b600882019050919050565b60006151be82614d47565b91506151c982615144565b91506151d58286614511565b91506151e082614ddf565b91506151ec8285614511565b91506151f782615190565b91506152038284614511565b915061520e826146c4565b9150819050949350505050565b600061522682613e21565b915061523183613e21565b92508161ffff048311821515161561524c5761524b6148d0565b5b828202905092915050565b7f4e487b7100000000000000000000000000000000000000000000000000000000600052601260045260246000fd5b600061529182613e21565b915061529c83613e21565b9250826152ac576152ab615257565b5b828204905092915050565b60006152c282613e21565b91506152cd83613e21565b9250828210156152e0576152df6148d0565b5b828203905092915050565b60006152f682613e6d565b91507fffffffffffffffffffffffffffffffffffffffffffffffffffffffffffffffff821415615329576153286148d0565b5b600182019050919050565b600061533f82613e6d565b915061534a83613e6d565b92508261535a57615359615257565b5b828204905092915050565b600061537082613e6d565b915061537b83613e6d565b92508282101561538e5761538d6148d0565b5b828203905092915050565b60006153a482613e6d565b91506153af83613e6d565b9250826153bf576153be615257565b5b828206905092915050565b60006153d582613e6d565b91506153e083613e6d565b9250827fffffffffffffffffffffffffffffffffffffffffffffffffffffffffffffffff03821115615415576154146148d0565b5b828201905092915050565b7f3c696d61676520783d22302220793d2230222077696474683d2231303022206860008201527f65696768743d223130302220696d6167652d72656e646572696e673d2270697860208201527f656c6174656422207072657365727665417370656374526174696f3d22784d6960408201527f64594d69642220786c696e6b3a687265663d22646174613a696d6167652f706e60608201527f673b6261736536342c0000000000000000000000000000000000000000000000608082015250565b60006154ee608983614506565b91506154f982615420565b608982019050919050565b7f222f3e0000000000000000000000000000000000000000000000000000000000600082015250565b600061553a600383614506565b915061554582615504565b600382019050919050565b600061555b826154e1565b91506155678284614511565b91506155728261552d565b915081905092915050565b7f496e697469616c697a61626c653a20636f6e7472616374206973206e6f74206960008201527f6e697469616c697a696e67000000000000000000000000000000000000000000602082015250565b60006155d9602b83613edb565b91506155e48261557d565b604082019050919050565b60006020820190508181036000830152615608816155cc565b9050919050565b600061561a82613e6d565b915061562583613e6d565b9250817fffffffffffffffffffffffffffffffffffffffffffffffffffffffffffffffff048311821515161561565e5761565d6148d0565b5b82820290509291505056fe6956424f5277304b47676f414141414e5355684555674141414145414141414241514d414141416c3231624b414141414131424d564555414141436e656a33614141414141585253546c4d41514f62595a6741414141704a52454655434e646a59414141414149414165496876444d41414141415355564f524b35435949493d4142434445464748494a4b4c4d4e4f505152535455565758595a6162636465666768696a6b6c6d6e6f707172737475767778797a303132333435363738392b2fa26469706673582212204bd34d93ae53dba23b41c3da6b8e63dd413257725ac38bbed824e1c0354c43ba64736f6c634300080a0033",
  "immutableReferences": {},
  "source": "// SPDX-License-Identifier: MIT\n\npragma solidity ^0.8.0;\n\nimport \"@openzeppelin/contracts-upgradeable/proxy/utils/Initializable.sol\";\nimport \"@openzeppelin/contracts-upgradeable/access/OwnableUpgradeable.sol\";\nimport \"@openzeppelin/contracts-upgradeable/token/ERC721/ERC721Upgradeable.sol\";\nimport \"@openzeppelin/contracts/utils/Strings.sol\";\nimport \"./ITraits.sol\";\nimport \"./IChefRat.sol\";\n\ncontract Traits is Initializable, OwnableUpgradeable, ITraits {\n  using Strings for uint256;\n\n  struct Trait { // Struct to store each trait's data for metadata and rendering\n    string name;\n    string png;\n  }\n\n  string[15] _traitTypes;\n  uint16 public numHeadAndBodyTraits;\n  mapping(uint8 => mapping(uint8 => Trait)) public traitData; // Storage of each trait's name and base64 SVG data\n\n  IChefRat public chefRat;\n\n  function initialize() external initializer {\n    __Ownable_init();\n\n    numHeadAndBodyTraits = 7;\n    _traitTypes = [ // Mapping from trait type (index) to its name\n      \"Hat\",\n      \"Eyes\",\n      \"Piercing\",\n      \"Mouth\",\n      \"Neck\",\n      \"Hand\",\n      \"Tail\",\n      \"Skill\",\n      \"Insanity\",\n      \"Intelligence\",\n      \"Fatness\",\n      \"Skill percentage\",\n      \"Insanity percentage\",\n      \"Intelligence quotient\",\n      \"Fatness percentage\"\n    ];\n  }\n\n  /**\n   * Generates a base64 encoded metadata response without referencing off-chain content\n   * @param tokenId - The ID of the token to generate the metadata for\n   * @return A base64 encoded JSON dictionary of the token's metadata and SVG\n   */\n  function tokenURI(uint256 tokenId) public view override returns (string memory) {\n    IChefRat.ChefRatStruct memory s = chefRat.getTokenTraits(tokenId);\n\n    string memory metadata = string(abi.encodePacked(\n      '{',\n      '\"name\":\"', s.isChef ? 'Chef #' : 'Rat #', tokenId.toString(), '\",',\n      '\"description\":\"TODO\",', // TODO Add description\n      '\"image\":\"data:image/svg+xml;base64,', base64(bytes(drawSVG(tokenId))), '\",',\n      '\"attributes\":', getAttributes(tokenId),\n      '}'\n    ));\n\n    return string(abi.encodePacked(\n      \"data:application/json;base64,\",\n      base64(bytes(metadata))\n    ));\n  }\n\n  function getBodyIndex(uint8 value) internal view returns(uint8) {\n    uint256 val = value * numHeadAndBodyTraits / 100;\n    return val > numHeadAndBodyTraits - 1 ? uint8(numHeadAndBodyTraits - 1) : uint8(val);\n  }\n\n  /**\n   * Generates an entire SVG by composing multiple <image> elements of PNGs\n   * @param tokenId - The ID of the token to generate an SVG for\n   * @return A valid SVG of the Chef / Rat\n   */\n  function drawSVG(uint256 tokenId) public view returns (string memory) {\n    IChefRat.ChefRatStruct memory s = chefRat.getTokenTraits(tokenId);\n    uint8 shift = s.isChef ? 0 : 10;\n    uint8 head = getBodyIndex(s.isChef ? s.skill : s.intelligence);\n    uint8 body = getBodyIndex(s.isChef ? s.insanity : s.fatness);\n    uint8[17] memory order = [body, head, s.eyes, s.hat, s.neck, s.mouth, s.hand, 0, 0, 0, body, s.tail, head, s.piercing, s.eyes, s.hat, s.neck];\n    string memory svgString = string(abi.encodePacked(\n      drawTrait(traitData[0 + shift][order[0 + shift]]),\n      drawTrait(traitData[1 + shift][order[1 + shift]]),\n      drawTrait(traitData[2 + shift][order[2 + shift]]),\n      drawTrait(traitData[3 + shift][order[3 + shift]]),\n      drawTrait(traitData[4 + shift][order[4 + shift]]),\n      drawTrait(traitData[5 + shift][order[5 + shift]]),\n      drawTrait(traitData[6 + shift][order[6 + shift]])\n    ));\n\n    return string(abi.encodePacked(\n      '<svg id=\"', s.isChef ? 'chef' : 'rat', '\" width=\"100%\" height=\"100%\" version=\"1.1\" viewBox=\"0 0 100 100\" xmlns=\"http://www.w3.org/2000/svg\" xmlns:xlink=\"http://www.w3.org/1999/xlink\">',\n      svgString,\n      \"</svg>\"\n    ));\n  }\n\n  /**\n   * Generates an <image> element using base64 encoded PNGs\n   * @param trait - The trait storing the PNG data\n   * @return The <image> element\n   */\n  function drawTrait(Trait memory trait) internal pure returns (string memory) {\n    if (bytes(trait.png).length == 0) trait.png = 'iVBORw0KGgoAAAANSUhEUgAAAAEAAAABAQMAAAAl21bKAAAAA1BMVEUAAACnej3aAAAAAXRSTlMAQObYZgAAAApJREFUCNdjYAAAAAIAAeIhvDMAAAAASUVORK5CYII=';\n    return string(abi.encodePacked(\n      '<image x=\"0\" y=\"0\" width=\"100\" height=\"100\" image-rendering=\"pixelated\" preserveAspectRatio=\"xMidYMid\" xlink:href=\"data:image/png;base64,',\n      trait.png,\n      '\"/>'\n    ));\n  }\n\n  /**\n   * Generates an array composed of all the individual traits and values\n   * @param tokenId - The ID of the token to compose the metadata for\n   * @return A JSON array of all of the attributes for given token ID\n   */\n  function getAttributes(uint256 tokenId) public view returns (string memory) {\n    IChefRat.ChefRatStruct memory s = chefRat.getTokenTraits(tokenId);\n    string memory traits;\n    if (s.isChef) {\n      traits = string(abi.encodePacked(\n        getAttribute(_traitTypes[0], traitData[3][s.hat].name, false),\n        getAttribute(_traitTypes[1], traitData[2][s.eyes].name, false),\n        getAttribute(_traitTypes[3], traitData[5][s.mouth].name, false),\n        getAttribute(_traitTypes[4], traitData[4][s.neck].name, false),\n        getAttribute(_traitTypes[5], traitData[6][s.hand].name, false),\n        getAttribute(_traitTypes[7], traitData[0][getBodyIndex(s.skill)].name, false),\n        getAttribute(_traitTypes[8], traitData[1][getBodyIndex(s.insanity)].name, false),\n        getAttribute(_traitTypes[11], Strings.toString(s.skill), true),\n        getAttribute(_traitTypes[12], Strings.toString(s.insanity), true)\n      ));\n    } else {\n      traits = string(abi.encodePacked(\n        getAttribute(_traitTypes[0], traitData[15][s.hat].name, false),\n        getAttribute(_traitTypes[1], traitData[14][s.eyes].name, false),\n        getAttribute(_traitTypes[2], traitData[13][s.piercing].name, false),\n        getAttribute(_traitTypes[4], traitData[16][s.neck].name, false),\n        getAttribute(_traitTypes[6], traitData[11][s.tail].name, false),\n        getAttribute(_traitTypes[9], traitData[12][getBodyIndex(s.intelligence)].name, false),\n        getAttribute(_traitTypes[10], traitData[10][getBodyIndex(s.fatness)].name, false),\n        getAttribute(_traitTypes[13], Strings.toString(s.intelligence), true),\n        getAttribute(_traitTypes[14], Strings.toString(s.fatness), true)\n      ));\n    }\n    return string(abi.encodePacked(\n      '[',\n        '{\"trait_type\":\"Type\",\"value\":', s.isChef ? '\"Chef\"' : '\"Rat\"', '},',\n        traits,\n        '{\"trait_type\":\"Generation\",\"value\":', tokenId <= chefRat.getPaidTokens() ? '\"Gen 0\"' : '\"Gen 1\"', '}',\n      ']'\n    ));\n  }\n\n  /**\n   * Generates an attribute for the attributes array in the ERC721 metadata standard\n   * @param traitType - The trait type to reference as the metadata key\n   * @param value - The token's trait associated with the key\n   * @return A JSON dictionary for the single attribute\n   */\n  function getAttribute(string memory traitType, string memory value, bool isInteger) internal pure returns (string memory) {\n    if (!isInteger && bytes(value).length == 0) return '';\n    string memory val = isInteger ? value : string(abi.encodePacked('\"', value, '\"'));\n    return string(abi.encodePacked(\n      '{',\n        '\"trait_type\":\"', traitType, '\",',\n        isInteger ? '\"max_value\":100,' : '',\n        '\"value\":', val,\n      '},'\n    ));\n  }\n\n  function setChefRat(address _chefRat) external onlyOwner {\n    chefRat = IChefRat(_chefRat);\n  }\n\n  /**\n   * Used by admin to upload the names and images associated with each trait\n   * @param traitIndex - The trait type to upload the traits for (see traitTypes for a mapping)\n   * @param traits - The names and base64 encoded PNGs for each trait\n   */\n  function uploadTraits(uint8 traitIndex, Trait[] calldata traits) external onlyOwner {\n    require(traits.length > 0, \"traits array empty\");\n    for (uint8 i = 0; i < traits.length; i++) {\n      traitData[traitIndex][i] = Trait(\n        traits[i].name,\n        traits[i].png\n      );\n    }\n  }\n\n  /** BASE 64 - Written by Brech Devos */\n  string internal constant TABLE = 'ABCDEFGHIJKLMNOPQRSTUVWXYZabcdefghijklmnopqrstuvwxyz0123456789+/';\n  function base64(bytes memory data) internal pure returns (string memory) {\n    if (data.length == 0) return '';\n    string memory table = TABLE; // load the table into memory\n    uint256 encodedLen = 4 * ((data.length + 2) / 3); // multiply by 4/3 rounded up\n    string memory result = new string(encodedLen + 32); // add some extra buffer at the end required for the writing\n    assembly {\n      mstore(result, encodedLen) // set the actual output length\n      let tablePtr := add(table, 1) // prepare the lookup table\n      let dataPtr := data // input ptr\n      let endPtr := add(dataPtr, mload(data))\n      let resultPtr := add(result, 32) // result ptr, jump over length\n      for {} lt(dataPtr, endPtr) {} // run over the input, 3 bytes at a time\n      {\n        dataPtr := add(dataPtr, 3)\n        let input := mload(dataPtr) // read 3 bytes\n        // write 4 characters\n        mstore(resultPtr, shl(248, mload(add(tablePtr, and(shr(18, input), 0x3F)))))\n        resultPtr := add(resultPtr, 1)\n        mstore(resultPtr, shl(248, mload(add(tablePtr, and(shr(12, input), 0x3F)))))\n        resultPtr := add(resultPtr, 1)\n        mstore(resultPtr, shl(248, mload(add(tablePtr, and(shr( 6, input), 0x3F)))))\n        resultPtr := add(resultPtr, 1)\n        mstore(resultPtr, shl(248, mload(add(tablePtr, and(        input,  0x3F)))))\n        resultPtr := add(resultPtr, 1)\n      }\n      // padding with '='\n      switch mod(mload(data), 3)\n      case 1 { mstore(sub(resultPtr, 2), shl(240, 0x3d3d)) }\n      case 2 { mstore(sub(resultPtr, 1), shl(248, 0x3d)) }\n    }\n    return result;\n  }\n}\n",
  "sourcePath": "/Users/chris/workspace/chainmatters/ratalert/contracts/Traits.sol",
  "compiler": {
    "name": "solc",
    "version": "0.8.10+commit.fc410830.Emscripten.clang"
  },
  "schemaVersion": "3.4.4",
  "updatedAt": "2022-01-04T17:38:44.303Z",
  "networkType": "ethereum",
  "devdoc": {
    "kind": "dev",
    "methods": {
      "drawSVG(uint256)": {
        "params": {
          "tokenId": "- The ID of the token to generate an SVG for"
        },
        "returns": {
          "_0": "A valid SVG of the Chef / Rat"
        }
      },
      "getAttributes(uint256)": {
        "params": {
          "tokenId": "- The ID of the token to compose the metadata for"
        },
        "returns": {
          "_0": "A JSON array of all of the attributes for given token ID"
        }
      },
      "owner()": {
        "details": "Returns the address of the current owner."
      },
      "renounceOwnership()": {
        "details": "Leaves the contract without owner. It will not be possible to call `onlyOwner` functions anymore. Can only be called by the current owner. NOTE: Renouncing ownership will leave the contract without an owner, thereby removing any functionality that is only available to the owner."
      },
      "tokenURI(uint256)": {
        "params": {
          "tokenId": "- The ID of the token to generate the metadata for"
        },
        "returns": {
          "_0": "A base64 encoded JSON dictionary of the token's metadata and SVG"
        }
      },
      "transferOwnership(address)": {
        "details": "Transfers ownership of the contract to a new account (`newOwner`). Can only be called by the current owner."
      },
      "uploadTraits(uint8,(string,string)[])": {
        "params": {
          "traitIndex": "- The trait type to upload the traits for (see traitTypes for a mapping)",
          "traits": "- The names and base64 encoded PNGs for each trait"
        }
      }
    },
    "version": 1
  },
  "userdoc": {
    "kind": "user",
    "methods": {
      "drawSVG(uint256)": {
        "notice": "Generates an entire SVG by composing multiple <image> elements of PNGs"
      },
      "getAttributes(uint256)": {
        "notice": "Generates an array composed of all the individual traits and values"
      },
      "tokenURI(uint256)": {
        "notice": "Generates a base64 encoded metadata response without referencing off-chain content"
      },
      "uploadTraits(uint8,(string,string)[])": {
        "notice": "Used by admin to upload the names and images associated with each trait"
      }
    },
    "version": 1
  }
}