{
  "contractName": "Traits",
  "abi": [
    {
      "anonymous": false,
      "inputs": [
        {
          "indexed": true,
          "internalType": "address",
          "name": "previousOwner",
          "type": "address"
        },
        {
          "indexed": true,
          "internalType": "address",
          "name": "newOwner",
          "type": "address"
        }
      ],
      "name": "OwnershipTransferred",
      "type": "event"
    },
    {
      "inputs": [],
      "name": "character",
      "outputs": [
        {
          "internalType": "contract ICharacter",
          "name": "",
          "type": "address"
        }
      ],
      "stateMutability": "view",
      "type": "function",
      "constant": true
    },
    {
      "inputs": [],
      "name": "numHeadAndBodyTraits",
      "outputs": [
        {
          "internalType": "uint16",
          "name": "",
          "type": "uint16"
        }
      ],
      "stateMutability": "view",
      "type": "function",
      "constant": true
    },
    {
      "inputs": [],
      "name": "owner",
      "outputs": [
        {
          "internalType": "address",
          "name": "",
          "type": "address"
        }
      ],
      "stateMutability": "view",
      "type": "function",
      "constant": true
    },
    {
      "inputs": [],
      "name": "renounceOwnership",
      "outputs": [],
      "stateMutability": "nonpayable",
      "type": "function"
    },
    {
      "inputs": [
        {
          "internalType": "uint8",
          "name": "",
          "type": "uint8"
        },
        {
          "internalType": "uint8",
          "name": "",
          "type": "uint8"
        }
      ],
      "name": "traitData",
      "outputs": [
        {
          "internalType": "string",
          "name": "name",
          "type": "string"
        },
        {
          "internalType": "string",
          "name": "png",
          "type": "string"
        }
      ],
      "stateMutability": "view",
      "type": "function",
      "constant": true
    },
    {
      "inputs": [
        {
          "internalType": "address",
          "name": "newOwner",
          "type": "address"
        }
      ],
      "name": "transferOwnership",
      "outputs": [],
      "stateMutability": "nonpayable",
      "type": "function"
    },
    {
      "inputs": [],
      "name": "initialize",
      "outputs": [],
      "stateMutability": "nonpayable",
      "type": "function"
    },
    {
      "inputs": [
        {
          "internalType": "uint256",
          "name": "tokenId",
          "type": "uint256"
        }
      ],
      "name": "tokenURI",
      "outputs": [
        {
          "internalType": "string",
          "name": "",
          "type": "string"
        }
      ],
      "stateMutability": "view",
      "type": "function",
      "constant": true
    },
    {
      "inputs": [
        {
          "internalType": "uint256",
          "name": "tokenId",
          "type": "uint256"
        }
      ],
      "name": "drawSVG",
      "outputs": [
        {
          "internalType": "string",
          "name": "",
          "type": "string"
        }
      ],
      "stateMutability": "view",
      "type": "function",
      "constant": true
    },
    {
      "inputs": [
        {
          "internalType": "uint256",
          "name": "tokenId",
          "type": "uint256"
        }
      ],
      "name": "getAttributes",
      "outputs": [
        {
          "internalType": "string",
          "name": "",
          "type": "string"
        }
      ],
      "stateMutability": "view",
      "type": "function",
      "constant": true
    },
    {
      "inputs": [
        {
          "internalType": "address",
          "name": "_character",
          "type": "address"
        }
      ],
      "name": "setCharacter",
      "outputs": [],
      "stateMutability": "nonpayable",
      "type": "function"
    },
    {
      "inputs": [
        {
          "internalType": "uint8",
          "name": "traitIndex",
          "type": "uint8"
        },
        {
          "components": [
            {
              "internalType": "string",
              "name": "name",
              "type": "string"
            },
            {
              "internalType": "string",
              "name": "png",
              "type": "string"
            }
          ],
          "internalType": "struct Traits.Trait[]",
          "name": "traits",
          "type": "tuple[]"
        }
      ],
      "name": "uploadTraits",
      "outputs": [],
      "stateMutability": "nonpayable",
      "type": "function"
    }
  ],
  "bytecode": "0x608060405234801561001057600080fd5b5061570980620000216000396000f3fe608060405234801561001057600080fd5b50600436106100b45760003560e01c80638129fc1c116100715780638129fc1c1461017b5780638da5cb5b146101855780639bf2ee35146101a3578063b5448957146101d4578063c87b56dd146101f0578063f2fde38b14610220576100b4565b8063204efe17146100b957806334875edc146100d55780634378a6e3146100f35780634d2e03a014610123578063715018a6146101415780637abecb861461014b575b600080fd5b6100d360048036038101906100ce9190613e69565b61023c565b005b6100dd6102fc565b6040516100ea9190613eb3565b60405180910390f35b61010d60048036038101906101089190613f04565b610310565b60405161011a9190613fca565b60405180910390f35b61012b611c74565b604051610138919061404b565b60405180910390f35b610149611c9a565b005b61016560048036038101906101609190613f04565b611d22565b6040516101729190613fca565b60405180910390f35b610183612afd565b005b61018d612f97565b60405161019a9190614075565b60405180910390f35b6101bd60048036038101906101b891906140c9565b612fc1565b6040516101cb929190614109565b60405180910390f35b6101ee60048036038101906101e991906141a5565b613102565b005b61020a60048036038101906102059190613f04565b613362565b6040516102179190613fca565b60405180910390f35b61023a60048036038101906102359190613e69565b6134fa565b005b6102446135f2565b73ffffffffffffffffffffffffffffffffffffffff16610262612f97565b73ffffffffffffffffffffffffffffffffffffffff16146102b8576040517f08c379a00000000000000000000000000000000000000000000000000000000081526004016102af90614251565b60405180910390fd5b80607660006101000a81548173ffffffffffffffffffffffffffffffffffffffff021916908373ffffffffffffffffffffffffffffffffffffffff16021790555050565b607460009054906101000a900461ffff1681565b60606000607660009054906101000a900473ffffffffffffffffffffffffffffffffffffffff1673ffffffffffffffffffffffffffffffffffffffff166394e56847846040518263ffffffff1660e01b815260040161036f9190614280565b61014060405180830381865afa15801561038d573d6000803e3d6000fd5b505050506040513d601f19601f820116820180604052508101906103b1919061445e565b90506060816000015115610f435761052660656000600f81106103d7576103d661448c565b5b0180546103e3906144ea565b80601f016020809104026020016040519081016040528092919081815260200182805461040f906144ea565b801561045c5780601f106104315761010080835404028352916020019161045c565b820191906000526020600020905b81548152906001019060200180831161043f57829003601f168201915b505050505060756000600360ff1681526020019081526020016000206000856020015160ff1660ff16815260200190815260200160002060000180546104a1906144ea565b80601f01602080910402602001604051908101604052809291908181526020018280546104cd906144ea565b801561051a5780601f106104ef5761010080835404028352916020019161051a565b820191906000526020600020905b8154815290600101906020018083116104fd57829003601f168201915b505050505060006135fa565b61068d60656001600f811061053e5761053d61448c565b5b01805461054a906144ea565b80601f0160208091040260200160405190810160405280929190818152602001828054610576906144ea565b80156105c35780601f10610598576101008083540402835291602001916105c3565b820191906000526020600020905b8154815290600101906020018083116105a657829003601f168201915b505050505060756000600260ff1681526020019081526020016000206000866040015160ff1660ff1681526020019081526020016000206000018054610608906144ea565b80601f0160208091040260200160405190810160405280929190818152602001828054610634906144ea565b80156106815780601f1061065657610100808354040283529160200191610681565b820191906000526020600020905b81548152906001019060200180831161066457829003601f168201915b505050505060006135fa565b6107f460656003600f81106106a5576106a461448c565b5b0180546106b1906144ea565b80601f01602080910402602001604051908101604052809291908181526020018280546106dd906144ea565b801561072a5780601f106106ff5761010080835404028352916020019161072a565b820191906000526020600020905b81548152906001019060200180831161070d57829003601f168201915b505050505060756000600560ff1681526020019081526020016000206000876080015160ff1660ff168152602001908152602001600020600001805461076f906144ea565b80601f016020809104026020016040519081016040528092919081815260200182805461079b906144ea565b80156107e85780601f106107bd576101008083540402835291602001916107e8565b820191906000526020600020905b8154815290600101906020018083116107cb57829003601f168201915b505050505060006135fa565b61095b60656004600f811061080c5761080b61448c565b5b018054610818906144ea565b80601f0160208091040260200160405190810160405280929190818152602001828054610844906144ea565b80156108915780601f1061086657610100808354040283529160200191610891565b820191906000526020600020905b81548152906001019060200180831161087457829003601f168201915b505050505060756000600460ff16815260200190815260200160002060008860a0015160ff1660ff16815260200190815260200160002060000180546108d6906144ea565b80601f0160208091040260200160405190810160405280929190818152602001828054610902906144ea565b801561094f5780601f106109245761010080835404028352916020019161094f565b820191906000526020600020905b81548152906001019060200180831161093257829003601f168201915b505050505060006135fa565b610ac260656005600f81106109735761097261448c565b5b01805461097f906144ea565b80601f01602080910402602001604051908101604052809291908181526020018280546109ab906144ea565b80156109f85780601f106109cd576101008083540402835291602001916109f8565b820191906000526020600020905b8154815290600101906020018083116109db57829003601f168201915b505050505060756000600660ff16815260200190815260200160002060008960c0015160ff1660ff1681526020019081526020016000206000018054610a3d906144ea565b80601f0160208091040260200160405190810160405280929190818152602001828054610a69906144ea565b8015610ab65780601f10610a8b57610100808354040283529160200191610ab6565b820191906000526020600020905b815481529060010190602001808311610a9957829003601f168201915b505050505060006135fa565b610c3160656007600f8110610ada57610ad961448c565b5b018054610ae6906144ea565b80601f0160208091040260200160405190810160405280929190818152602001828054610b12906144ea565b8015610b5f5780601f10610b3457610100808354040283529160200191610b5f565b820191906000526020600020905b815481529060010190602001808311610b4257829003601f168201915b5050505050607560008060ff1681526020019081526020016000206000610b8a8b61010001516136d6565b60ff1660ff1681526020019081526020016000206000018054610bac906144ea565b80601f0160208091040260200160405190810160405280929190818152602001828054610bd8906144ea565b8015610c255780601f10610bfa57610100808354040283529160200191610c25565b820191906000526020600020905b815481529060010190602001808311610c0857829003601f168201915b505050505060006135fa565b610da160656008600f8110610c4957610c4861448c565b5b018054610c55906144ea565b80601f0160208091040260200160405190810160405280929190818152602001828054610c81906144ea565b8015610cce5780601f10610ca357610100808354040283529160200191610cce565b820191906000526020600020905b815481529060010190602001808311610cb157829003601f168201915b505050505060756000600160ff1681526020019081526020016000206000610cfa8c61012001516136d6565b60ff1660ff1681526020019081526020016000206000018054610d1c906144ea565b80601f0160208091040260200160405190810160405280929190818152602001828054610d48906144ea565b8015610d955780601f10610d6a57610100808354040283529160200191610d95565b820191906000526020600020905b815481529060010190602001808311610d7857829003601f168201915b505050505060006135fa565b610e5b6065600b600f8110610db957610db861448c565b5b018054610dc5906144ea565b80601f0160208091040260200160405190810160405280929190818152602001828054610df1906144ea565b8015610e3e5780601f10610e1357610100808354040283529160200191610e3e565b820191906000526020600020905b815481529060010190602001808311610e2157829003601f168201915b5050505050610e548b610100015160ff1661375d565b60016135fa565b610f156065600c600f8110610e7357610e7261448c565b5b018054610e7f906144ea565b80601f0160208091040260200160405190810160405280929190818152602001828054610eab906144ea565b8015610ef85780601f10610ecd57610100808354040283529160200191610ef8565b820191906000526020600020905b815481529060010190602001808311610edb57829003601f168201915b5050505050610f0e8c610120015160ff1661375d565b60016135fa565b604051602001610f2d99989796959493929190614558565b6040516020818303038152906040529050611ac4565b6110aa60656000600f8110610f5b57610f5a61448c565b5b018054610f67906144ea565b80601f0160208091040260200160405190810160405280929190818152602001828054610f93906144ea565b8015610fe05780601f10610fb557610100808354040283529160200191610fe0565b820191906000526020600020905b815481529060010190602001808311610fc357829003601f168201915b505050505060756000600f60ff1681526020019081526020016000206000856020015160ff1660ff1681526020019081526020016000206000018054611025906144ea565b80601f0160208091040260200160405190810160405280929190818152602001828054611051906144ea565b801561109e5780601f106110735761010080835404028352916020019161109e565b820191906000526020600020905b81548152906001019060200180831161108157829003601f168201915b505050505060006135fa565b61121160656001600f81106110c2576110c161448c565b5b0180546110ce906144ea565b80601f01602080910402602001604051908101604052809291908181526020018280546110fa906144ea565b80156111475780601f1061111c57610100808354040283529160200191611147565b820191906000526020600020905b81548152906001019060200180831161112a57829003601f168201915b505050505060756000600e60ff1681526020019081526020016000206000866040015160ff1660ff168152602001908152602001600020600001805461118c906144ea565b80601f01602080910402602001604051908101604052809291908181526020018280546111b8906144ea565b80156112055780601f106111da57610100808354040283529160200191611205565b820191906000526020600020905b8154815290600101906020018083116111e857829003601f168201915b505050505060006135fa565b61137860656002600f81106112295761122861448c565b5b018054611235906144ea565b80601f0160208091040260200160405190810160405280929190818152602001828054611261906144ea565b80156112ae5780601f10611283576101008083540402835291602001916112ae565b820191906000526020600020905b81548152906001019060200180831161129157829003601f168201915b505050505060756000600d60ff1681526020019081526020016000206000876060015160ff1660ff16815260200190815260200160002060000180546112f3906144ea565b80601f016020809104026020016040519081016040528092919081815260200182805461131f906144ea565b801561136c5780601f106113415761010080835404028352916020019161136c565b820191906000526020600020905b81548152906001019060200180831161134f57829003601f168201915b505050505060006135fa565b6114df60656004600f81106113905761138f61448c565b5b01805461139c906144ea565b80601f01602080910402602001604051908101604052809291908181526020018280546113c8906144ea565b80156114155780601f106113ea57610100808354040283529160200191611415565b820191906000526020600020905b8154815290600101906020018083116113f857829003601f168201915b505050505060756000601060ff16815260200190815260200160002060008860a0015160ff1660ff168152602001908152602001600020600001805461145a906144ea565b80601f0160208091040260200160405190810160405280929190818152602001828054611486906144ea565b80156114d35780601f106114a8576101008083540402835291602001916114d3565b820191906000526020600020905b8154815290600101906020018083116114b657829003601f168201915b505050505060006135fa565b61164660656006600f81106114f7576114f661448c565b5b018054611503906144ea565b80601f016020809104026020016040519081016040528092919081815260200182805461152f906144ea565b801561157c5780601f106115515761010080835404028352916020019161157c565b820191906000526020600020905b81548152906001019060200180831161155f57829003601f168201915b505050505060756000600b60ff16815260200190815260200160002060008960e0015160ff1660ff16815260200190815260200160002060000180546115c1906144ea565b80601f01602080910402602001604051908101604052809291908181526020018280546115ed906144ea565b801561163a5780601f1061160f5761010080835404028352916020019161163a565b820191906000526020600020905b81548152906001019060200180831161161d57829003601f168201915b505050505060006135fa565b6117b660656009600f811061165e5761165d61448c565b5b01805461166a906144ea565b80601f0160208091040260200160405190810160405280929190818152602001828054611696906144ea565b80156116e35780601f106116b8576101008083540402835291602001916116e3565b820191906000526020600020905b8154815290600101906020018083116116c657829003601f168201915b505050505060756000600c60ff168152602001908152602001600020600061170f8b61010001516136d6565b60ff1660ff1681526020019081526020016000206000018054611731906144ea565b80601f016020809104026020016040519081016040528092919081815260200182805461175d906144ea565b80156117aa5780601f1061177f576101008083540402835291602001916117aa565b820191906000526020600020905b81548152906001019060200180831161178d57829003601f168201915b505050505060006135fa565b6119266065600a600f81106117ce576117cd61448c565b5b0180546117da906144ea565b80601f0160208091040260200160405190810160405280929190818152602001828054611806906144ea565b80156118535780601f1061182857610100808354040283529160200191611853565b820191906000526020600020905b81548152906001019060200180831161183657829003601f168201915b505050505060756000600a60ff168152602001908152602001600020600061187f8c61012001516136d6565b60ff1660ff16815260200190815260200160002060000180546118a1906144ea565b80601f01602080910402602001604051908101604052809291908181526020018280546118cd906144ea565b801561191a5780601f106118ef5761010080835404028352916020019161191a565b820191906000526020600020905b8154815290600101906020018083116118fd57829003601f168201915b505050505060006135fa565b6119e06065600d600f811061193e5761193d61448c565b5b01805461194a906144ea565b80601f0160208091040260200160405190810160405280929190818152602001828054611976906144ea565b80156119c35780601f10611998576101008083540402835291602001916119c3565b820191906000526020600020905b8154815290600101906020018083116119a657829003601f168201915b50505050506119d98b610100015160ff1661375d565b60016135fa565b611a9a6065600e600f81106119f8576119f761448c565b5b018054611a04906144ea565b80601f0160208091040260200160405190810160405280929190818152602001828054611a30906144ea565b8015611a7d5780601f10611a5257610100808354040283529160200191611a7d565b820191906000526020600020905b815481529060010190602001808311611a6057829003601f168201915b5050505050611a938c610120015160ff1661375d565b60016135fa565b604051602001611ab299989796959493929190614558565b60405160208183030381529060405290505b8160000151611b08576040518060400160405280600581526020017f2252617422000000000000000000000000000000000000000000000000000000815250611b3f565b6040518060400160405280600681526020017f22436865662200000000000000000000000000000000000000000000000000008152505b81607660009054906101000a900473ffffffffffffffffffffffffffffffffffffffff1673ffffffffffffffffffffffffffffffffffffffff16634018b1f86040518163ffffffff1660e01b8152600401602060405180830381865afa158015611bad573d6000803e3d6000fd5b505050506040513d601f19601f82011682018060405250810190611bd191906145ec565b861115611c13576040518060400160405280600781526020017f2247656e20312200000000000000000000000000000000000000000000000000815250611c4a565b6040518060400160405280600781526020017f2247656e203022000000000000000000000000000000000000000000000000008152505b604051602001611c5c93929190614807565b60405160208183030381529060405292505050919050565b607660009054906101000a900473ffffffffffffffffffffffffffffffffffffffff1681565b611ca26135f2565b73ffffffffffffffffffffffffffffffffffffffff16611cc0612f97565b73ffffffffffffffffffffffffffffffffffffffff1614611d16576040517f08c379a0000000000000000000000000000000000000000000000000000000008152600401611d0d90614251565b60405180910390fd5b611d2060006138be565b565b60606000607660009054906101000a900473ffffffffffffffffffffffffffffffffffffffff1673ffffffffffffffffffffffffffffffffffffffff166394e56847846040518263ffffffff1660e01b8152600401611d819190614280565b61014060405180830381865afa158015611d9f573d6000803e3d6000fd5b505050506040513d601f19601f82011682018060405250810190611dc3919061445e565b905060008160000151611dd757600a611dda565b60005b90506000611dec8361010001516136d6565b90506000611dfe8461012001516136d6565b905060006040518061022001604052808360ff1660ff1681526020018460ff1660ff168152602001866040015160ff1660ff168152602001866020015160ff1660ff1681526020018660a0015160ff1660ff168152602001866080015160ff1660ff1681526020018660c0015160ff1660ff168152602001600060ff168152602001600060ff168152602001600060ff1681526020018360ff1660ff1681526020018660e0015160ff1660ff1681526020018460ff1660ff168152602001866060015160ff1660ff168152602001866040015160ff1660ff168152602001866020015160ff1660ff1681526020018660a0015160ff1660ff168152509050600061209760756000876000611f1291906148a9565b60ff1660ff168152602001908152602001600020600084886000611f3691906148a9565b60ff1660118110611f4a57611f4961448c565b5b602002015160ff1660ff168152602001908152602001600020604051806040016040529081600082018054611f7e906144ea565b80601f0160208091040260200160405190810160405280929190818152602001828054611faa906144ea565b8015611ff75780601f10611fcc57610100808354040283529160200191611ff7565b820191906000526020600020905b815481529060010190602001808311611fda57829003601f168201915b50505050508152602001600182018054612010906144ea565b80601f016020809104026020016040519081016040528092919081815260200182805461203c906144ea565b80156120895780601f1061205e57610100808354040283529160200191612089565b820191906000526020600020905b81548152906001019060200180831161206c57829003601f168201915b505050505081525050613984565b612230607560008860016120ab91906148a9565b60ff1660ff1681526020019081526020016000206000858960016120cf91906148a9565b60ff16601181106120e3576120e261448c565b5b602002015160ff1660ff168152602001908152602001600020604051806040016040529081600082018054612117906144ea565b80601f0160208091040260200160405190810160405280929190818152602001828054612143906144ea565b80156121905780601f1061216557610100808354040283529160200191612190565b820191906000526020600020905b81548152906001019060200180831161217357829003601f168201915b505050505081526020016001820180546121a9906144ea565b80601f01602080910402602001604051908101604052809291908181526020018280546121d5906144ea565b80156122225780601f106121f757610100808354040283529160200191612222565b820191906000526020600020905b81548152906001019060200180831161220557829003601f168201915b505050505081525050613984565b6123c96075600089600261224491906148a9565b60ff1660ff1681526020019081526020016000206000868a600261226891906148a9565b60ff166011811061227c5761227b61448c565b5b602002015160ff1660ff1681526020019081526020016000206040518060400160405290816000820180546122b0906144ea565b80601f01602080910402602001604051908101604052809291908181526020018280546122dc906144ea565b80156123295780601f106122fe57610100808354040283529160200191612329565b820191906000526020600020905b81548152906001019060200180831161230c57829003601f168201915b50505050508152602001600182018054612342906144ea565b80601f016020809104026020016040519081016040528092919081815260200182805461236e906144ea565b80156123bb5780601f10612390576101008083540402835291602001916123bb565b820191906000526020600020905b81548152906001019060200180831161239e57829003601f168201915b505050505081525050613984565b612562607560008a60036123dd91906148a9565b60ff1660ff1681526020019081526020016000206000878b600361240191906148a9565b60ff16601181106124155761241461448c565b5b602002015160ff1660ff168152602001908152602001600020604051806040016040529081600082018054612449906144ea565b80601f0160208091040260200160405190810160405280929190818152602001828054612475906144ea565b80156124c25780601f10612497576101008083540402835291602001916124c2565b820191906000526020600020905b8154815290600101906020018083116124a557829003601f168201915b505050505081526020016001820180546124db906144ea565b80601f0160208091040260200160405190810160405280929190818152602001828054612507906144ea565b80156125545780601f1061252957610100808354040283529160200191612554565b820191906000526020600020905b81548152906001019060200180831161253757829003601f168201915b505050505081525050613984565b6126fb607560008b600461257691906148a9565b60ff1660ff1681526020019081526020016000206000888c600461259a91906148a9565b60ff16601181106125ae576125ad61448c565b5b602002015160ff1660ff1681526020019081526020016000206040518060400160405290816000820180546125e2906144ea565b80601f016020809104026020016040519081016040528092919081815260200182805461260e906144ea565b801561265b5780601f106126305761010080835404028352916020019161265b565b820191906000526020600020905b81548152906001019060200180831161263e57829003601f168201915b50505050508152602001600182018054612674906144ea565b80601f01602080910402602001604051908101604052809291908181526020018280546126a0906144ea565b80156126ed5780601f106126c2576101008083540402835291602001916126ed565b820191906000526020600020905b8154815290600101906020018083116126d057829003601f168201915b505050505081525050613984565b612894607560008c600561270f91906148a9565b60ff1660ff1681526020019081526020016000206000898d600561273391906148a9565b60ff16601181106127475761274661448c565b5b602002015160ff1660ff16815260200190815260200160002060405180604001604052908160008201805461277b906144ea565b80601f01602080910402602001604051908101604052809291908181526020018280546127a7906144ea565b80156127f45780601f106127c9576101008083540402835291602001916127f4565b820191906000526020600020905b8154815290600101906020018083116127d757829003601f168201915b5050505050815260200160018201805461280d906144ea565b80601f0160208091040260200160405190810160405280929190818152602001828054612839906144ea565b80156128865780601f1061285b57610100808354040283529160200191612886565b820191906000526020600020905b81548152906001019060200180831161286957829003601f168201915b505050505081525050613984565b612a2d607560008d60066128a891906148a9565b60ff1660ff16815260200190815260200160002060008a8e60066128cc91906148a9565b60ff16601181106128e0576128df61448c565b5b602002015160ff1660ff168152602001908152602001600020604051806040016040529081600082018054612914906144ea565b80601f0160208091040260200160405190810160405280929190818152602001828054612940906144ea565b801561298d5780601f106129625761010080835404028352916020019161298d565b820191906000526020600020905b81548152906001019060200180831161297057829003601f168201915b505050505081526020016001820180546129a6906144ea565b80601f01602080910402602001604051908101604052809291908181526020018280546129d2906144ea565b8015612a1f5780601f106129f457610100808354040283529160200191612a1f565b820191906000526020600020905b815481529060010190602001808311612a0257829003601f168201915b505050505081525050613984565b604051602001612a4397969594939291906148e0565b60405160208183030381529060405290508560000151612a98576040518060400160405280600381526020017f7261740000000000000000000000000000000000000000000000000000000000815250612acf565b6040518060400160405280600481526020017f63686566000000000000000000000000000000000000000000000000000000008152505b81604051602001612ae1929190614ac1565b6040516020818303038152906040529650505050505050919050565b600060019054906101000a900460ff16612b255760008054906101000a900460ff1615612b2e565b612b2d6139e1565b5b612b6d576040517f08c379a0000000000000000000000000000000000000000000000000000000008152600401612b6490614b78565b60405180910390fd5b60008060019054906101000a900460ff161590508015612bbd576001600060016101000a81548160ff02191690831515021790555060016000806101000a81548160ff0219169083151502179055505b612bc56139f2565b6007607460006101000a81548161ffff021916908361ffff160217905550604051806101e001604052806040518060400160405280600381526020017f486174000000000000000000000000000000000000000000000000000000000081525081526020016040518060400160405280600481526020017f457965730000000000000000000000000000000000000000000000000000000081525081526020016040518060400160405280600881526020017f5069657263696e6700000000000000000000000000000000000000000000000081525081526020016040518060400160405280600581526020017f4d6f75746800000000000000000000000000000000000000000000000000000081525081526020016040518060400160405280600481526020017f4e65636b0000000000000000000000000000000000000000000000000000000081525081526020016040518060400160405280600481526020017f48616e640000000000000000000000000000000000000000000000000000000081525081526020016040518060400160405280600481526020017f5461696c0000000000000000000000000000000000000000000000000000000081525081526020016040518060400160405280600581526020017f536b696c6c00000000000000000000000000000000000000000000000000000081525081526020016040518060400160405280600881526020017f496e73616e69747900000000000000000000000000000000000000000000000081525081526020016040518060400160405280600c81526020017f496e74656c6c6967656e6365000000000000000000000000000000000000000081525081526020016040518060400160405280600781526020017f4661746e6573730000000000000000000000000000000000000000000000000081525081526020016040518060400160405280601081526020017f536b696c6c2070657263656e746167650000000000000000000000000000000081525081526020016040518060400160405280601381526020017f496e73616e6974792070657263656e746167650000000000000000000000000081525081526020016040518060400160405280601581526020017f496e74656c6c6967656e63652071756f7469656e74000000000000000000000081525081526020016040518060400160405280601281526020017f4661746e6573732070657263656e746167650000000000000000000000000000815250815250606590600f612f72929190613c9d565b508015612f945760008060016101000a81548160ff0219169083151502179055505b50565b6000603360009054906101000a900473ffffffffffffffffffffffffffffffffffffffff16905090565b607560205281600052604060002060205280600052604060002060009150915050806000018054612ff1906144ea565b80601f016020809104026020016040519081016040528092919081815260200182805461301d906144ea565b801561306a5780601f1061303f5761010080835404028352916020019161306a565b820191906000526020600020905b81548152906001019060200180831161304d57829003601f168201915b50505050509080600101805461307f906144ea565b80601f01602080910402602001604051908101604052809291908181526020018280546130ab906144ea565b80156130f85780601f106130cd576101008083540402835291602001916130f8565b820191906000526020600020905b8154815290600101906020018083116130db57829003601f168201915b5050505050905082565b61310a6135f2565b73ffffffffffffffffffffffffffffffffffffffff16613128612f97565b73ffffffffffffffffffffffffffffffffffffffff161461317e576040517f08c379a000000000000000000000000000000000000000000000000000000000815260040161317590614251565b60405180910390fd5b600082829050116131c4576040517f08c379a00000000000000000000000000000000000000000000000000000000081526004016131bb90614be4565b60405180910390fd5b60005b828290508160ff16101561335c57604051806040016040528084848460ff168181106131f6576131f561448c565b5b90506020028101906132089190614c13565b80600001906132179190614c3b565b8080601f016020809104026020016040519081016040528093929190818152602001838380828437600081840152601f19601f82011690508083019250505050505050815260200184848460ff168181106132755761327461448c565b5b90506020028101906132879190614c13565b80602001906132969190614c3b565b8080601f016020809104026020016040519081016040528093929190818152602001838380828437600081840152601f19601f82011690508083019250505050505050815250607560008660ff1660ff16815260200190815260200160002060008360ff1660ff1681526020019081526020016000206000820151816000019080519060200190613328929190613cf0565b506020820151816001019080519060200190613345929190613cf0565b50905050808061335490614c9e565b9150506131c7565b50505050565b60606000607660009054906101000a900473ffffffffffffffffffffffffffffffffffffffff1673ffffffffffffffffffffffffffffffffffffffff166394e56847846040518263ffffffff1660e01b81526004016133c19190614280565b61014060405180830381865afa1580156133df573d6000803e3d6000fd5b505050506040513d601f19601f82011682018060405250810190613403919061445e565b90506000816000015161344b576040518060400160405280600581526020017f5261742023000000000000000000000000000000000000000000000000000000815250613482565b6040518060400160405280600681526020017f43686566202300000000000000000000000000000000000000000000000000008152505b61348b8561375d565b61349c61349787611d22565b613a53565b6134a587610310565b6040516020016134b89493929190614eb6565b60405160208183030381529060405290506134d281613a53565b6040516020016134e29190614f98565b60405160208183030381529060405292505050919050565b6135026135f2565b73ffffffffffffffffffffffffffffffffffffffff16613520612f97565b73ffffffffffffffffffffffffffffffffffffffff1614613576576040517f08c379a000000000000000000000000000000000000000000000000000000000815260040161356d90614251565b60405180910390fd5b600073ffffffffffffffffffffffffffffffffffffffff168173ffffffffffffffffffffffffffffffffffffffff1614156135e6576040517f08c379a00000000000000000000000000000000000000000000000000000000081526004016135dd9061502c565b60405180910390fd5b6135ef816138be565b50565b600033905090565b60608115801561360b575060008351145b15613627576040518060200160405280600081525090506136cf565b600082613653578360405160200161363f9190615098565b604051602081830303815290604052613655565b835b9050848361367257604051806020016040528060008152506136a9565b6040518060400160405280601081526020017f226d61785f76616c7565223a3130302c000000000000000000000000000000008152505b826040516020016136bc9392919061515d565b6040516020818303038152906040529150505b9392505050565b6000806064607460009054906101000a900461ffff168460ff166136fa91906151c5565b6137049190615230565b61ffff1690506001607460009054906101000a900461ffff166137279190615261565b61ffff1681116137375780613755565b6001607460009054906101000a900461ffff166137549190615261565b5b915050919050565b606060008214156137a5576040518060400160405280600181526020017f300000000000000000000000000000000000000000000000000000000000000081525090506138b9565b600082905060005b600082146137d75780806137c090615295565b915050600a826137d091906152de565b91506137ad565b60008167ffffffffffffffff8111156137f3576137f26142a0565b5b6040519080825280601f01601f1916602001820160405280156138255781602001600182028036833780820191505090505b5090505b600085146138b25760018261383e919061530f565b9150600a8561384d9190615343565b60306138599190615374565b60f81b81838151811061386f5761386e61448c565b5b60200101907effffffffffffffffffffffffffffffffffffffffffffffffffffffffffffff1916908160001a905350600a856138ab91906152de565b9450613829565b8093505050505b919050565b6000603360009054906101000a900473ffffffffffffffffffffffffffffffffffffffff16905081603360006101000a81548173ffffffffffffffffffffffffffffffffffffffff021916908373ffffffffffffffffffffffffffffffffffffffff1602179055508173ffffffffffffffffffffffffffffffffffffffff168173ffffffffffffffffffffffffffffffffffffffff167f8be0079c531659141344cd1fd0a4f28419497f9722a3daafe3b4186f6b6457e060405160405180910390a35050565b6060600082602001515114156139b6576040518060a00160405280608081526020016156146080913982602001819052505b81602001516040516020016139cb91906154fa565b6040516020818303038152906040529050919050565b60006139ec30613bd8565b15905090565b600060019054906101000a900460ff16613a41576040517f08c379a0000000000000000000000000000000000000000000000000000000008152600401613a3890615599565b60405180910390fd5b613a49613beb565b613a51613c3c565b565b6060600082511415613a7657604051806020016040528060008152509050613bd3565b60006040518060600160405280604081526020016156946040913990506000600360028551613aa59190615374565b613aaf91906152de565b6004613abb91906155b9565b90506000602082613acc9190615374565b67ffffffffffffffff811115613ae557613ae46142a0565b5b6040519080825280601f01601f191660200182016040528015613b175781602001600182028036833780820191505090505b509050818152600183018586518101602084015b81831015613b92576003830192508251603f8160121c1685015160f81b8252600182019150603f81600c1c1685015160f81b8252600182019150603f8160061c1685015160f81b8252600182019150603f811685015160f81b825260018201915050613b2b565b600389510660018114613bac5760028114613bbc57613bc7565b613d3d60f01b6002830352613bc7565b603d60f81b60018303525b50505050508093505050505b919050565b600080823b905060008111915050919050565b600060019054906101000a900460ff16613c3a576040517f08c379a0000000000000000000000000000000000000000000000000000000008152600401613c3190615599565b60405180910390fd5b565b600060019054906101000a900460ff16613c8b576040517f08c379a0000000000000000000000000000000000000000000000000000000008152600401613c8290615599565b60405180910390fd5b613c9b613c966135f2565b6138be565b565b82600f8101928215613cdf579160200282015b82811115613cde578251829080519060200190613cce929190613cf0565b5091602001919060010190613cb0565b5b509050613cec9190613d76565b5090565b828054613cfc906144ea565b90600052602060002090601f016020900481019282613d1e5760008555613d65565b82601f10613d3757805160ff1916838001178555613d65565b82800160010185558215613d65579182015b82811115613d64578251825591602001919060010190613d49565b5b509050613d729190613d9a565b5090565b5b80821115613d965760008181613d8d9190613db7565b50600101613d77565b5090565b5b80821115613db3576000816000905550600101613d9b565b5090565b508054613dc3906144ea565b6000825580601f10613dd55750613df4565b601f016020900490600052602060002090810190613df39190613d9a565b5b50565b6000604051905090565b600080fd5b600080fd5b600073ffffffffffffffffffffffffffffffffffffffff82169050919050565b6000613e3682613e0b565b9050919050565b613e4681613e2b565b8114613e5157600080fd5b50565b600081359050613e6381613e3d565b92915050565b600060208284031215613e7f57613e7e613e01565b5b6000613e8d84828501613e54565b91505092915050565b600061ffff82169050919050565b613ead81613e96565b82525050565b6000602082019050613ec86000830184613ea4565b92915050565b6000819050919050565b613ee181613ece565b8114613eec57600080fd5b50565b600081359050613efe81613ed8565b92915050565b600060208284031215613f1a57613f19613e01565b5b6000613f2884828501613eef565b91505092915050565b600081519050919050565b600082825260208201905092915050565b60005b83811015613f6b578082015181840152602081019050613f50565b83811115613f7a576000848401525b50505050565b6000601f19601f8301169050919050565b6000613f9c82613f31565b613fa68185613f3c565b9350613fb6818560208601613f4d565b613fbf81613f80565b840191505092915050565b60006020820190508181036000830152613fe48184613f91565b905092915050565b6000819050919050565b600061401161400c61400784613e0b565b613fec565b613e0b565b9050919050565b600061402382613ff6565b9050919050565b600061403582614018565b9050919050565b6140458161402a565b82525050565b6000602082019050614060600083018461403c565b92915050565b61406f81613e2b565b82525050565b600060208201905061408a6000830184614066565b92915050565b600060ff82169050919050565b6140a681614090565b81146140b157600080fd5b50565b6000813590506140c38161409d565b92915050565b600080604083850312156140e0576140df613e01565b5b60006140ee858286016140b4565b92505060206140ff858286016140b4565b9150509250929050565b600060408201905081810360008301526141238185613f91565b905081810360208301526141378184613f91565b90509392505050565b600080fd5b600080fd5b600080fd5b60008083601f84011261416557614164614140565b5b8235905067ffffffffffffffff81111561418257614181614145565b5b60208301915083602082028301111561419e5761419d61414a565b5b9250929050565b6000806000604084860312156141be576141bd613e01565b5b60006141cc868287016140b4565b935050602084013567ffffffffffffffff8111156141ed576141ec613e06565b5b6141f98682870161414f565b92509250509250925092565b7f4f776e61626c653a2063616c6c6572206973206e6f7420746865206f776e6572600082015250565b600061423b602083613f3c565b915061424682614205565b602082019050919050565b6000602082019050818103600083015261426a8161422e565b9050919050565b61427a81613ece565b82525050565b60006020820190506142956000830184614271565b92915050565b600080fd5b7f4e487b7100000000000000000000000000000000000000000000000000000000600052604160045260246000fd5b6142d882613f80565b810181811067ffffffffffffffff821117156142f7576142f66142a0565b5b80604052505050565b600061430a613df7565b905061431682826142cf565b919050565b60008115159050919050565b6143308161431b565b811461433b57600080fd5b50565b60008151905061434d81614327565b92915050565b6000815190506143628161409d565b92915050565b6000610140828403121561437f5761437e61429b565b5b61438a610140614300565b9050600061439a8482850161433e565b60008301525060206143ae84828501614353565b60208301525060406143c284828501614353565b60408301525060606143d684828501614353565b60608301525060806143ea84828501614353565b60808301525060a06143fe84828501614353565b60a08301525060c061441284828501614353565b60c08301525060e061442684828501614353565b60e08301525061010061443b84828501614353565b6101008301525061012061445184828501614353565b6101208301525092915050565b6000610140828403121561447557614474613e01565b5b600061448384828501614368565b91505092915050565b7f4e487b7100000000000000000000000000000000000000000000000000000000600052603260045260246000fd5b7f4e487b7100000000000000000000000000000000000000000000000000000000600052602260045260246000fd5b6000600282049050600182168061450257607f821691505b60208210811415614516576145156144bb565b5b50919050565b600081905092915050565b600061453282613f31565b61453c818561451c565b935061454c818560208601613f4d565b80840191505092915050565b6000614564828c614527565b9150614570828b614527565b915061457c828a614527565b91506145888289614527565b91506145948288614527565b91506145a08287614527565b91506145ac8286614527565b91506145b88285614527565b91506145c48284614527565b91508190509a9950505050505050505050565b6000815190506145e681613ed8565b92915050565b60006020828403121561460257614601613e01565b5b6000614610848285016145d7565b91505092915050565b7f5b00000000000000000000000000000000000000000000000000000000000000600082015250565b600061464f60018361451c565b915061465a82614619565b600182019050919050565b7f7b2274726169745f74797065223a2254797065222c2276616c7565223a000000600082015250565b600061469b601d8361451c565b91506146a682614665565b601d82019050919050565b7f7d2c000000000000000000000000000000000000000000000000000000000000600082015250565b60006146e760028361451c565b91506146f2826146b1565b600282019050919050565b7f7b2274726169745f74797065223a2247656e65726174696f6e222c2276616c7560008201527f65223a0000000000000000000000000000000000000000000000000000000000602082015250565b600061475960238361451c565b9150614764826146fd565b602382019050919050565b7f7d00000000000000000000000000000000000000000000000000000000000000600082015250565b60006147a560018361451c565b91506147b08261476f565b600182019050919050565b7f5d00000000000000000000000000000000000000000000000000000000000000600082015250565b60006147f160018361451c565b91506147fc826147bb565b600182019050919050565b600061481282614642565b915061481d8261468e565b91506148298286614527565b9150614834826146da565b91506148408285614527565b915061484b8261474c565b91506148578284614527565b915061486282614798565b915061486d826147e4565b9150819050949350505050565b7f4e487b7100000000000000000000000000000000000000000000000000000000600052601160045260246000fd5b60006148b482614090565b91506148bf83614090565b92508260ff038211156148d5576148d461487a565b5b828201905092915050565b60006148ec828a614527565b91506148f88289614527565b91506149048288614527565b91506149108287614527565b915061491c8286614527565b91506149288285614527565b91506149348284614527565b915081905098975050505050505050565b7f3c7376672069643d220000000000000000000000000000000000000000000000600082015250565b600061497b60098361451c565b915061498682614945565b600982019050919050565b7f222077696474683d223130302522206865696768743d2231303025222076657260008201527f73696f6e3d22312e31222076696577426f783d2230203020313030203130302260208201527f20786d6c6e733d22687474703a2f2f7777772e77332e6f72672f323030302f7360408201527f76672220786d6c6e733a786c696e6b3d22687474703a2f2f7777772e77332e6f60608201527f72672f313939392f786c696e6b223e0000000000000000000000000000000000608082015250565b6000614a5f608f8361451c565b9150614a6a82614991565b608f82019050919050565b7f3c2f7376673e0000000000000000000000000000000000000000000000000000600082015250565b6000614aab60068361451c565b9150614ab682614a75565b600682019050919050565b6000614acc8261496e565b9150614ad88285614527565b9150614ae382614a52565b9150614aef8284614527565b9150614afa82614a9e565b91508190509392505050565b7f496e697469616c697a61626c653a20636f6e747261637420697320616c72656160008201527f647920696e697469616c697a6564000000000000000000000000000000000000602082015250565b6000614b62602e83613f3c565b9150614b6d82614b06565b604082019050919050565b60006020820190508181036000830152614b9181614b55565b9050919050565b7f74726169747320617272617920656d7074790000000000000000000000000000600082015250565b6000614bce601283613f3c565b9150614bd982614b98565b602082019050919050565b60006020820190508181036000830152614bfd81614bc1565b9050919050565b600080fd5b600080fd5b600080fd5b600082356001604003833603038112614c2f57614c2e614c04565b5b80830191505092915050565b60008083356001602003843603038112614c5857614c57614c04565b5b80840192508235915067ffffffffffffffff821115614c7a57614c79614c09565b5b602083019250600182023603831315614c9657614c95614c0e565b5b509250929050565b6000614ca982614090565b915060ff821415614cbd57614cbc61487a565b5b600182019050919050565b7f7b00000000000000000000000000000000000000000000000000000000000000600082015250565b6000614cfe60018361451c565b9150614d0982614cc8565b600182019050919050565b7f226e616d65223a22000000000000000000000000000000000000000000000000600082015250565b6000614d4a60088361451c565b9150614d5582614d14565b600882019050919050565b7f222c000000000000000000000000000000000000000000000000000000000000600082015250565b6000614d9660028361451c565b9150614da182614d60565b600282019050919050565b7f226465736372697074696f6e223a22544f444f222c0000000000000000000000600082015250565b6000614de260158361451c565b9150614ded82614dac565b601582019050919050565b7f22696d616765223a22646174613a696d6167652f7376672b786d6c3b6261736560008201527f36342c0000000000000000000000000000000000000000000000000000000000602082015250565b6000614e5460238361451c565b9150614e5f82614df8565b602382019050919050565b7f2261747472696275746573223a00000000000000000000000000000000000000600082015250565b6000614ea0600d8361451c565b9150614eab82614e6a565b600d82019050919050565b6000614ec182614cf1565b9150614ecc82614d3d565b9150614ed88287614527565b9150614ee48286614527565b9150614eef82614d89565b9150614efa82614dd5565b9150614f0582614e47565b9150614f118285614527565b9150614f1c82614d89565b9150614f2782614e93565b9150614f338284614527565b9150614f3e82614798565b915081905095945050505050565b7f646174613a6170706c69636174696f6e2f6a736f6e3b6261736536342c000000600082015250565b6000614f82601d8361451c565b9150614f8d82614f4c565b601d82019050919050565b6000614fa382614f75565b9150614faf8284614527565b915081905092915050565b7f4f776e61626c653a206e6577206f776e657220697320746865207a65726f206160008201527f6464726573730000000000000000000000000000000000000000000000000000602082015250565b6000615016602683613f3c565b915061502182614fba565b604082019050919050565b6000602082019050818103600083015261504581615009565b9050919050565b7f2200000000000000000000000000000000000000000000000000000000000000600082015250565b600061508260018361451c565b915061508d8261504c565b600182019050919050565b60006150a382615075565b91506150af8284614527565b91506150ba82615075565b915081905092915050565b7f2274726169745f74797065223a22000000000000000000000000000000000000600082015250565b60006150fb600e8361451c565b9150615106826150c5565b600e82019050919050565b7f2276616c7565223a000000000000000000000000000000000000000000000000600082015250565b600061514760088361451c565b915061515282615111565b600882019050919050565b600061516882614cf1565b9150615173826150ee565b915061517f8286614527565b915061518a82614d89565b91506151968285614527565b91506151a18261513a565b91506151ad8284614527565b91506151b8826146da565b9150819050949350505050565b60006151d082613e96565b91506151db83613e96565b92508161ffff04831182151516156151f6576151f561487a565b5b828202905092915050565b7f4e487b7100000000000000000000000000000000000000000000000000000000600052601260045260246000fd5b600061523b82613e96565b915061524683613e96565b92508261525657615255615201565b5b828204905092915050565b600061526c82613e96565b915061527783613e96565b92508282101561528a5761528961487a565b5b828203905092915050565b60006152a082613ece565b91507fffffffffffffffffffffffffffffffffffffffffffffffffffffffffffffffff8214156152d3576152d261487a565b5b600182019050919050565b60006152e982613ece565b91506152f483613ece565b92508261530457615303615201565b5b828204905092915050565b600061531a82613ece565b915061532583613ece565b9250828210156153385761533761487a565b5b828203905092915050565b600061534e82613ece565b915061535983613ece565b92508261536957615368615201565b5b828206905092915050565b600061537f82613ece565b915061538a83613ece565b9250827fffffffffffffffffffffffffffffffffffffffffffffffffffffffffffffffff038211156153bf576153be61487a565b5b828201905092915050565b7f3c696d61676520783d22302220793d2230222077696474683d2231303022206860008201527f65696768743d223130302220696d6167652d72656e646572696e673d2270697860208201527f656c6174656422207072657365727665417370656374526174696f3d22784d6960408201527f64594d69642220786c696e6b3a687265663d22646174613a696d6167652f706e60608201527f673b6261736536342c0000000000000000000000000000000000000000000000608082015250565b600061549860898361451c565b91506154a3826153ca565b608982019050919050565b7f222f3e0000000000000000000000000000000000000000000000000000000000600082015250565b60006154e460038361451c565b91506154ef826154ae565b600382019050919050565b60006155058261548b565b91506155118284614527565b915061551c826154d7565b915081905092915050565b7f496e697469616c697a61626c653a20636f6e7472616374206973206e6f74206960008201527f6e697469616c697a696e67000000000000000000000000000000000000000000602082015250565b6000615583602b83613f3c565b915061558e82615527565b604082019050919050565b600060208201905081810360008301526155b281615576565b9050919050565b60006155c482613ece565b91506155cf83613ece565b9250817fffffffffffffffffffffffffffffffffffffffffffffffffffffffffffffffff04831182151516156156085761560761487a565b5b82820290509291505056fe6956424f5277304b47676f414141414e5355684555674141414145414141414241514d414141416c3231624b414141414131424d564555414141436e656a33614141414141585253546c4d41514f62595a6741414141704a52454655434e646a59414141414149414165496876444d41414141415355564f524b35435949493d4142434445464748494a4b4c4d4e4f505152535455565758595a6162636465666768696a6b6c6d6e6f707172737475767778797a303132333435363738392b2fa2646970667358221220dd23378e4607aae5015fbbda74c665ae099550deafe957a09aa4bf2c646c884864736f6c634300080a0033",
  "immutableReferences": {},
  "source": "// SPDX-License-Identifier: MIT\n\npragma solidity ^0.8.0;\n\nimport \"@openzeppelin/contracts-upgradeable/proxy/utils/Initializable.sol\";\nimport \"@openzeppelin/contracts-upgradeable/access/OwnableUpgradeable.sol\";\nimport \"@openzeppelin/contracts-upgradeable/token/ERC721/ERC721Upgradeable.sol\";\nimport \"@openzeppelin/contracts/utils/Strings.sol\";\nimport \"./ITraits.sol\";\nimport \"./ICharacter.sol\";\n\ncontract Traits is Initializable, OwnableUpgradeable, ITraits {\n  using Strings for uint256;\n\n  struct Trait { // Struct to store each trait's data for metadata and rendering\n    string name;\n    string png;\n  }\n\n  string[15] _traitTypes;\n  uint16 public numHeadAndBodyTraits;\n  mapping(uint8 => mapping(uint8 => Trait)) public traitData; // Storage of each trait's name and base64 SVG data\n\n  ICharacter public character;\n\n  function initialize() external initializer {\n    __Ownable_init();\n\n    numHeadAndBodyTraits = 7;\n    _traitTypes = [ // Mapping from trait type (index) to its name\n      \"Hat\",\n      \"Eyes\",\n      \"Piercing\",\n      \"Mouth\",\n      \"Neck\",\n      \"Hand\",\n      \"Tail\",\n      \"Skill\",\n      \"Insanity\",\n      \"Intelligence\",\n      \"Fatness\",\n      \"Skill percentage\",\n      \"Insanity percentage\",\n      \"Intelligence quotient\",\n      \"Fatness percentage\"\n    ];\n  }\n\n  /**\n   * Generates a base64 encoded metadata response without referencing off-chain content\n   * @param tokenId - The ID of the token to generate the metadata for\n   * @return A base64 encoded JSON dictionary of the token's metadata and SVG\n   */\n  function tokenURI(uint256 tokenId) public view override returns (string memory) {\n    ICharacter.CharacterStruct memory s = character.getTokenTraits(tokenId);\n\n    string memory metadata = string(abi.encodePacked(\n      '{',\n      '\"name\":\"', s.isChef ? 'Chef #' : 'Rat #', tokenId.toString(), '\",',\n      '\"description\":\"TODO\",', // TODO Add description\n      '\"image\":\"data:image/svg+xml;base64,', base64(bytes(drawSVG(tokenId))), '\",',\n      '\"attributes\":', getAttributes(tokenId),\n      '}'\n    ));\n\n    return string(abi.encodePacked(\n      \"data:application/json;base64,\",\n      base64(bytes(metadata))\n    ));\n  }\n\n  function getBodyIndex(uint8 value) internal view returns(uint8) {\n    uint256 val = value * numHeadAndBodyTraits / 100;\n    return val > numHeadAndBodyTraits - 1 ? uint8(numHeadAndBodyTraits - 1) : uint8(val);\n  }\n\n  /**\n   * Generates an entire SVG by composing multiple <image> elements of PNGs\n   * @param tokenId - The ID of the token to generate an SVG for\n   * @return A valid SVG of the Chef / Rat\n   */\n  function drawSVG(uint256 tokenId) public view returns (string memory) {\n    ICharacter.CharacterStruct memory s = character.getTokenTraits(tokenId);\n    uint8 shift = s.isChef ? 0 : 10;\n    uint8 head = getBodyIndex(s.efficiency);\n    uint8 body = getBodyIndex(s.tolerance);\n    uint8[17] memory order = [body, head, s.eyes, s.hat, s.neck, s.mouth, s.hand, 0, 0, 0, body, s.tail, head, s.piercing, s.eyes, s.hat, s.neck];\n    string memory svgString = string(abi.encodePacked(\n      drawTrait(traitData[0 + shift][order[0 + shift]]),\n      drawTrait(traitData[1 + shift][order[1 + shift]]),\n      drawTrait(traitData[2 + shift][order[2 + shift]]),\n      drawTrait(traitData[3 + shift][order[3 + shift]]),\n      drawTrait(traitData[4 + shift][order[4 + shift]]),\n      drawTrait(traitData[5 + shift][order[5 + shift]]),\n      drawTrait(traitData[6 + shift][order[6 + shift]])\n    ));\n\n    return string(abi.encodePacked(\n      '<svg id=\"', s.isChef ? 'chef' : 'rat', '\" width=\"100%\" height=\"100%\" version=\"1.1\" viewBox=\"0 0 100 100\" xmlns=\"http://www.w3.org/2000/svg\" xmlns:xlink=\"http://www.w3.org/1999/xlink\">',\n      svgString,\n      \"</svg>\"\n    ));\n  }\n\n  /**\n   * Generates an <image> element using base64 encoded PNGs\n   * @param trait - The trait storing the PNG data\n   * @return The <image> element\n   */\n  function drawTrait(Trait memory trait) internal pure returns (string memory) {\n    if (bytes(trait.png).length == 0) trait.png = 'iVBORw0KGgoAAAANSUhEUgAAAAEAAAABAQMAAAAl21bKAAAAA1BMVEUAAACnej3aAAAAAXRSTlMAQObYZgAAAApJREFUCNdjYAAAAAIAAeIhvDMAAAAASUVORK5CYII=';\n    return string(abi.encodePacked(\n      '<image x=\"0\" y=\"0\" width=\"100\" height=\"100\" image-rendering=\"pixelated\" preserveAspectRatio=\"xMidYMid\" xlink:href=\"data:image/png;base64,',\n      trait.png,\n      '\"/>'\n    ));\n  }\n\n  /**\n   * Generates an array composed of all the individual traits and values\n   * @param tokenId - The ID of the token to compose the metadata for\n   * @return A JSON array of all of the attributes for given token ID\n   */\n  function getAttributes(uint256 tokenId) public view returns (string memory) {\n    ICharacter.CharacterStruct memory s = character.getTokenTraits(tokenId);\n    string memory traits;\n    if (s.isChef) {\n      traits = string(abi.encodePacked(\n        getAttribute(_traitTypes[0], traitData[3][s.hat].name, false),\n        getAttribute(_traitTypes[1], traitData[2][s.eyes].name, false),\n        getAttribute(_traitTypes[3], traitData[5][s.mouth].name, false),\n        getAttribute(_traitTypes[4], traitData[4][s.neck].name, false),\n        getAttribute(_traitTypes[5], traitData[6][s.hand].name, false),\n        getAttribute(_traitTypes[7], traitData[0][getBodyIndex(s.efficiency)].name, false),\n        getAttribute(_traitTypes[8], traitData[1][getBodyIndex(s.tolerance)].name, false),\n        getAttribute(_traitTypes[11], Strings.toString(s.efficiency), true),\n        getAttribute(_traitTypes[12], Strings.toString(s.tolerance), true)\n      ));\n    } else {\n      traits = string(abi.encodePacked(\n        getAttribute(_traitTypes[0], traitData[15][s.hat].name, false),\n        getAttribute(_traitTypes[1], traitData[14][s.eyes].name, false),\n        getAttribute(_traitTypes[2], traitData[13][s.piercing].name, false),\n        getAttribute(_traitTypes[4], traitData[16][s.neck].name, false),\n        getAttribute(_traitTypes[6], traitData[11][s.tail].name, false),\n        getAttribute(_traitTypes[9], traitData[12][getBodyIndex(s.efficiency)].name, false),\n        getAttribute(_traitTypes[10], traitData[10][getBodyIndex(s.tolerance)].name, false),\n        getAttribute(_traitTypes[13], Strings.toString(s.efficiency), true),\n        getAttribute(_traitTypes[14], Strings.toString(s.tolerance), true)\n      ));\n    }\n    return string(abi.encodePacked(\n      '[',\n        '{\"trait_type\":\"Type\",\"value\":', s.isChef ? '\"Chef\"' : '\"Rat\"', '},',\n        traits,\n        '{\"trait_type\":\"Generation\",\"value\":', tokenId <= character.getPaidTokens() ? '\"Gen 0\"' : '\"Gen 1\"', '}',\n      ']'\n    ));\n  }\n\n  /**\n   * Generates an attribute for the attributes array in the ERC721 metadata standard\n   * @param traitType - The trait type to reference as the metadata key\n   * @param value - The token's trait associated with the key\n   * @return A JSON dictionary for the single attribute\n   */\n  function getAttribute(string memory traitType, string memory value, bool isInteger) internal pure returns (string memory) {\n    if (!isInteger && bytes(value).length == 0) return '';\n    string memory val = isInteger ? value : string(abi.encodePacked('\"', value, '\"'));\n    return string(abi.encodePacked(\n      '{',\n        '\"trait_type\":\"', traitType, '\",',\n        isInteger ? '\"max_value\":100,' : '',\n        '\"value\":', val,\n      '},'\n    ));\n  }\n\n  function setCharacter(address _character) external onlyOwner {\n    character = ICharacter(_character);\n  }\n\n  /**\n   * Used by admin to upload the names and images associated with each trait\n   * @param traitIndex - The trait type to upload the traits for (see traitTypes for a mapping)\n   * @param traits - The names and base64 encoded PNGs for each trait\n   */\n  function uploadTraits(uint8 traitIndex, Trait[] calldata traits) external onlyOwner {\n    require(traits.length > 0, \"traits array empty\");\n    for (uint8 i = 0; i < traits.length; i++) {\n      traitData[traitIndex][i] = Trait(\n        traits[i].name,\n        traits[i].png\n      );\n    }\n  }\n\n  /** BASE 64 - Written by Brech Devos */\n  string internal constant TABLE = 'ABCDEFGHIJKLMNOPQRSTUVWXYZabcdefghijklmnopqrstuvwxyz0123456789+/';\n  function base64(bytes memory data) internal pure returns (string memory) {\n    if (data.length == 0) return '';\n    string memory table = TABLE; // load the table into memory\n    uint256 encodedLen = 4 * ((data.length + 2) / 3); // multiply by 4/3 rounded up\n    string memory result = new string(encodedLen + 32); // add some extra buffer at the end required for the writing\n    assembly {\n      mstore(result, encodedLen) // set the actual output length\n      let tablePtr := add(table, 1) // prepare the lookup table\n      let dataPtr := data // input ptr\n      let endPtr := add(dataPtr, mload(data))\n      let resultPtr := add(result, 32) // result ptr, jump over length\n      for {} lt(dataPtr, endPtr) {} // run over the input, 3 bytes at a time\n      {\n        dataPtr := add(dataPtr, 3)\n        let input := mload(dataPtr) // read 3 bytes\n        // write 4 characters\n        mstore(resultPtr, shl(248, mload(add(tablePtr, and(shr(18, input), 0x3F)))))\n        resultPtr := add(resultPtr, 1)\n        mstore(resultPtr, shl(248, mload(add(tablePtr, and(shr(12, input), 0x3F)))))\n        resultPtr := add(resultPtr, 1)\n        mstore(resultPtr, shl(248, mload(add(tablePtr, and(shr( 6, input), 0x3F)))))\n        resultPtr := add(resultPtr, 1)\n        mstore(resultPtr, shl(248, mload(add(tablePtr, and(        input,  0x3F)))))\n        resultPtr := add(resultPtr, 1)\n      }\n      // padding with '='\n      switch mod(mload(data), 3)\n      case 1 { mstore(sub(resultPtr, 2), shl(240, 0x3d3d)) }\n      case 2 { mstore(sub(resultPtr, 1), shl(248, 0x3d)) }\n    }\n    return result;\n  }\n}\n",
  "sourcePath": "/Users/chris/workspace/ratalert/ratalert-contracts/contracts/Traits.sol",
  "compiler": {
    "name": "solc",
    "version": "0.8.10+commit.fc410830.Emscripten.clang"
  },
  "schemaVersion": "3.4.4",
  "updatedAt": "2022-02-13T08:07:35.735Z",
  "networkType": "ethereum",
  "devdoc": {
    "kind": "dev",
    "methods": {
      "drawSVG(uint256)": {
        "params": {
          "tokenId": "- The ID of the token to generate an SVG for"
        },
        "returns": {
          "_0": "A valid SVG of the Chef / Rat"
        }
      },
      "getAttributes(uint256)": {
        "params": {
          "tokenId": "- The ID of the token to compose the metadata for"
        },
        "returns": {
          "_0": "A JSON array of all of the attributes for given token ID"
        }
      },
      "owner()": {
        "details": "Returns the address of the current owner."
      },
      "renounceOwnership()": {
        "details": "Leaves the contract without owner. It will not be possible to call `onlyOwner` functions anymore. Can only be called by the current owner. NOTE: Renouncing ownership will leave the contract without an owner, thereby removing any functionality that is only available to the owner."
      },
      "tokenURI(uint256)": {
        "params": {
          "tokenId": "- The ID of the token to generate the metadata for"
        },
        "returns": {
          "_0": "A base64 encoded JSON dictionary of the token's metadata and SVG"
        }
      },
      "transferOwnership(address)": {
        "details": "Transfers ownership of the contract to a new account (`newOwner`). Can only be called by the current owner."
      },
      "uploadTraits(uint8,(string,string)[])": {
        "params": {
          "traitIndex": "- The trait type to upload the traits for (see traitTypes for a mapping)",
          "traits": "- The names and base64 encoded PNGs for each trait"
        }
      }
    },
    "version": 1
  },
  "userdoc": {
    "kind": "user",
    "methods": {
      "drawSVG(uint256)": {
        "notice": "Generates an entire SVG by composing multiple <image> elements of PNGs"
      },
      "getAttributes(uint256)": {
        "notice": "Generates an array composed of all the individual traits and values"
      },
      "tokenURI(uint256)": {
        "notice": "Generates a base64 encoded metadata response without referencing off-chain content"
      },
      "uploadTraits(uint8,(string,string)[])": {
        "notice": "Used by admin to upload the names and images associated with each trait"
      }
    },
    "version": 1
  }
}