{
  "contractName": "Traits",
  "abi": [
    {
      "anonymous": false,
      "inputs": [
        {
          "indexed": true,
          "internalType": "address",
          "name": "previousOwner",
          "type": "address"
        },
        {
          "indexed": true,
          "internalType": "address",
          "name": "newOwner",
          "type": "address"
        }
      ],
      "name": "OwnershipTransferred",
      "type": "event"
    },
    {
      "inputs": [],
      "name": "chefRat",
      "outputs": [
        {
          "internalType": "contract IChefRat",
          "name": "",
          "type": "address"
        }
      ],
      "stateMutability": "view",
      "type": "function",
      "constant": true
    },
    {
      "inputs": [],
      "name": "numHeadAndBodyTraits",
      "outputs": [
        {
          "internalType": "uint16",
          "name": "",
          "type": "uint16"
        }
      ],
      "stateMutability": "view",
      "type": "function",
      "constant": true
    },
    {
      "inputs": [],
      "name": "owner",
      "outputs": [
        {
          "internalType": "address",
          "name": "",
          "type": "address"
        }
      ],
      "stateMutability": "view",
      "type": "function",
      "constant": true
    },
    {
      "inputs": [],
      "name": "renounceOwnership",
      "outputs": [],
      "stateMutability": "nonpayable",
      "type": "function"
    },
    {
      "inputs": [
        {
          "internalType": "uint8",
          "name": "",
          "type": "uint8"
        },
        {
          "internalType": "uint8",
          "name": "",
          "type": "uint8"
        }
      ],
      "name": "traitData",
      "outputs": [
        {
          "internalType": "string",
          "name": "name",
          "type": "string"
        },
        {
          "internalType": "string",
          "name": "png",
          "type": "string"
        }
      ],
      "stateMutability": "view",
      "type": "function",
      "constant": true
    },
    {
      "inputs": [
        {
          "internalType": "address",
          "name": "newOwner",
          "type": "address"
        }
      ],
      "name": "transferOwnership",
      "outputs": [],
      "stateMutability": "nonpayable",
      "type": "function"
    },
    {
      "inputs": [],
      "name": "initialize",
      "outputs": [],
      "stateMutability": "nonpayable",
      "type": "function"
    },
    {
      "inputs": [
        {
          "internalType": "uint256",
          "name": "tokenId",
          "type": "uint256"
        }
      ],
      "name": "tokenURI",
      "outputs": [
        {
          "internalType": "string",
          "name": "",
          "type": "string"
        }
      ],
      "stateMutability": "view",
      "type": "function",
      "constant": true
    },
    {
      "inputs": [
        {
          "internalType": "uint256",
          "name": "tokenId",
          "type": "uint256"
        }
      ],
      "name": "drawSVG",
      "outputs": [
        {
          "internalType": "string",
          "name": "",
          "type": "string"
        }
      ],
      "stateMutability": "view",
      "type": "function",
      "constant": true
    },
    {
      "inputs": [
        {
          "internalType": "uint256",
          "name": "tokenId",
          "type": "uint256"
        }
      ],
      "name": "getAttributes",
      "outputs": [
        {
          "internalType": "string",
          "name": "",
          "type": "string"
        }
      ],
      "stateMutability": "view",
      "type": "function",
      "constant": true
    },
    {
      "inputs": [
        {
          "internalType": "address",
          "name": "_chefRat",
          "type": "address"
        }
      ],
      "name": "setChefRat",
      "outputs": [],
      "stateMutability": "nonpayable",
      "type": "function"
    },
    {
      "inputs": [
        {
          "internalType": "uint8",
          "name": "traitIndex",
          "type": "uint8"
        },
        {
          "components": [
            {
              "internalType": "string",
              "name": "name",
              "type": "string"
            },
            {
              "internalType": "string",
              "name": "png",
              "type": "string"
            }
          ],
          "internalType": "struct Traits.Trait[]",
          "name": "traits",
          "type": "tuple[]"
        }
      ],
      "name": "uploadTraits",
      "outputs": [],
      "stateMutability": "nonpayable",
      "type": "function"
    }
  ],
  "bytecode": "0x608060405234801561001057600080fd5b5061570980620000216000396000f3fe608060405234801561001057600080fd5b50600436106100b45760003560e01c80638da5cb5b116100715780638da5cb5b146101695780639bf2ee3514610187578063b5448957146101b8578063c87b56dd146101d4578063f13d89c314610204578063f2fde38b14610220576100b4565b806334875edc146100b95780634378a6e3146100d75780636726defd14610107578063715018a6146101255780637abecb861461012f5780638129fc1c1461015f575b600080fd5b6100c161023c565b6040516100ce9190613e14565b60405180910390f35b6100f160048036038101906100ec9190613e79565b610250565b6040516100fe9190613f3f565b60405180910390f35b61010f611bb4565b60405161011c9190613fe0565b60405180910390f35b61012d611bda565b005b61014960048036038101906101449190613e79565b611c62565b6040516101569190613f3f565b60405180910390f35b610167612a3d565b005b610171612ed7565b60405161017e919061401c565b60405180910390f35b6101a1600480360381019061019c9190614070565b612f01565b6040516101af9291906140b0565b60405180910390f35b6101d260048036038101906101cd919061414c565b613042565b005b6101ee60048036038101906101e99190613e79565b6132a2565b6040516101fb9190613f3f565b60405180910390f35b61021e600480360381019061021991906141d8565b61343a565b005b61023a600480360381019061023591906141d8565b6134fa565b005b607460009054906101000a900461ffff1681565b60606000607660009054906101000a900473ffffffffffffffffffffffffffffffffffffffff1673ffffffffffffffffffffffffffffffffffffffff166394e56847846040518263ffffffff1660e01b81526004016102af9190614214565b61014060405180830381865afa1580156102cd573d6000803e3d6000fd5b505050506040513d601f19601f820116820180604052508101906102f191906143f2565b90506060816000015115610e835761046660656000600f811061031757610316614420565b5b0180546103239061447e565b80601f016020809104026020016040519081016040528092919081815260200182805461034f9061447e565b801561039c5780601f106103715761010080835404028352916020019161039c565b820191906000526020600020905b81548152906001019060200180831161037f57829003601f168201915b505050505060756000600360ff1681526020019081526020016000206000856020015160ff1660ff16815260200190815260200160002060000180546103e19061447e565b80601f016020809104026020016040519081016040528092919081815260200182805461040d9061447e565b801561045a5780601f1061042f5761010080835404028352916020019161045a565b820191906000526020600020905b81548152906001019060200180831161043d57829003601f168201915b505050505060006135f2565b6105cd60656001600f811061047e5761047d614420565b5b01805461048a9061447e565b80601f01602080910402602001604051908101604052809291908181526020018280546104b69061447e565b80156105035780601f106104d857610100808354040283529160200191610503565b820191906000526020600020905b8154815290600101906020018083116104e657829003601f168201915b505050505060756000600260ff1681526020019081526020016000206000866040015160ff1660ff16815260200190815260200160002060000180546105489061447e565b80601f01602080910402602001604051908101604052809291908181526020018280546105749061447e565b80156105c15780601f10610596576101008083540402835291602001916105c1565b820191906000526020600020905b8154815290600101906020018083116105a457829003601f168201915b505050505060006135f2565b61073460656003600f81106105e5576105e4614420565b5b0180546105f19061447e565b80601f016020809104026020016040519081016040528092919081815260200182805461061d9061447e565b801561066a5780601f1061063f5761010080835404028352916020019161066a565b820191906000526020600020905b81548152906001019060200180831161064d57829003601f168201915b505050505060756000600560ff1681526020019081526020016000206000876080015160ff1660ff16815260200190815260200160002060000180546106af9061447e565b80601f01602080910402602001604051908101604052809291908181526020018280546106db9061447e565b80156107285780601f106106fd57610100808354040283529160200191610728565b820191906000526020600020905b81548152906001019060200180831161070b57829003601f168201915b505050505060006135f2565b61089b60656004600f811061074c5761074b614420565b5b0180546107589061447e565b80601f01602080910402602001604051908101604052809291908181526020018280546107849061447e565b80156107d15780601f106107a6576101008083540402835291602001916107d1565b820191906000526020600020905b8154815290600101906020018083116107b457829003601f168201915b505050505060756000600460ff16815260200190815260200160002060008860a0015160ff1660ff16815260200190815260200160002060000180546108169061447e565b80601f01602080910402602001604051908101604052809291908181526020018280546108429061447e565b801561088f5780601f106108645761010080835404028352916020019161088f565b820191906000526020600020905b81548152906001019060200180831161087257829003601f168201915b505050505060006135f2565b610a0260656005600f81106108b3576108b2614420565b5b0180546108bf9061447e565b80601f01602080910402602001604051908101604052809291908181526020018280546108eb9061447e565b80156109385780601f1061090d57610100808354040283529160200191610938565b820191906000526020600020905b81548152906001019060200180831161091b57829003601f168201915b505050505060756000600660ff16815260200190815260200160002060008960c0015160ff1660ff168152602001908152602001600020600001805461097d9061447e565b80601f01602080910402602001604051908101604052809291908181526020018280546109a99061447e565b80156109f65780601f106109cb576101008083540402835291602001916109f6565b820191906000526020600020905b8154815290600101906020018083116109d957829003601f168201915b505050505060006135f2565b610b7160656007600f8110610a1a57610a19614420565b5b018054610a269061447e565b80601f0160208091040260200160405190810160405280929190818152602001828054610a529061447e565b8015610a9f5780601f10610a7457610100808354040283529160200191610a9f565b820191906000526020600020905b815481529060010190602001808311610a8257829003601f168201915b5050505050607560008060ff1681526020019081526020016000206000610aca8b61010001516136ce565b60ff1660ff1681526020019081526020016000206000018054610aec9061447e565b80601f0160208091040260200160405190810160405280929190818152602001828054610b189061447e565b8015610b655780601f10610b3a57610100808354040283529160200191610b65565b820191906000526020600020905b815481529060010190602001808311610b4857829003601f168201915b505050505060006135f2565b610ce160656008600f8110610b8957610b88614420565b5b018054610b959061447e565b80601f0160208091040260200160405190810160405280929190818152602001828054610bc19061447e565b8015610c0e5780601f10610be357610100808354040283529160200191610c0e565b820191906000526020600020905b815481529060010190602001808311610bf157829003601f168201915b505050505060756000600160ff1681526020019081526020016000206000610c3a8c61012001516136ce565b60ff1660ff1681526020019081526020016000206000018054610c5c9061447e565b80601f0160208091040260200160405190810160405280929190818152602001828054610c889061447e565b8015610cd55780601f10610caa57610100808354040283529160200191610cd5565b820191906000526020600020905b815481529060010190602001808311610cb857829003601f168201915b505050505060006135f2565b610d9b6065600b600f8110610cf957610cf8614420565b5b018054610d059061447e565b80601f0160208091040260200160405190810160405280929190818152602001828054610d319061447e565b8015610d7e5780601f10610d5357610100808354040283529160200191610d7e565b820191906000526020600020905b815481529060010190602001808311610d6157829003601f168201915b5050505050610d948b610100015160ff16613755565b60016135f2565b610e556065600c600f8110610db357610db2614420565b5b018054610dbf9061447e565b80601f0160208091040260200160405190810160405280929190818152602001828054610deb9061447e565b8015610e385780601f10610e0d57610100808354040283529160200191610e38565b820191906000526020600020905b815481529060010190602001808311610e1b57829003601f168201915b5050505050610e4e8c610120015160ff16613755565b60016135f2565b604051602001610e6d999897969594939291906144ec565b6040516020818303038152906040529050611a04565b610fea60656000600f8110610e9b57610e9a614420565b5b018054610ea79061447e565b80601f0160208091040260200160405190810160405280929190818152602001828054610ed39061447e565b8015610f205780601f10610ef557610100808354040283529160200191610f20565b820191906000526020600020905b815481529060010190602001808311610f0357829003601f168201915b505050505060756000600f60ff1681526020019081526020016000206000856020015160ff1660ff1681526020019081526020016000206000018054610f659061447e565b80601f0160208091040260200160405190810160405280929190818152602001828054610f919061447e565b8015610fde5780601f10610fb357610100808354040283529160200191610fde565b820191906000526020600020905b815481529060010190602001808311610fc157829003601f168201915b505050505060006135f2565b61115160656001600f811061100257611001614420565b5b01805461100e9061447e565b80601f016020809104026020016040519081016040528092919081815260200182805461103a9061447e565b80156110875780601f1061105c57610100808354040283529160200191611087565b820191906000526020600020905b81548152906001019060200180831161106a57829003601f168201915b505050505060756000600e60ff1681526020019081526020016000206000866040015160ff1660ff16815260200190815260200160002060000180546110cc9061447e565b80601f01602080910402602001604051908101604052809291908181526020018280546110f89061447e565b80156111455780601f1061111a57610100808354040283529160200191611145565b820191906000526020600020905b81548152906001019060200180831161112857829003601f168201915b505050505060006135f2565b6112b860656002600f811061116957611168614420565b5b0180546111759061447e565b80601f01602080910402602001604051908101604052809291908181526020018280546111a19061447e565b80156111ee5780601f106111c3576101008083540402835291602001916111ee565b820191906000526020600020905b8154815290600101906020018083116111d157829003601f168201915b505050505060756000600d60ff1681526020019081526020016000206000876060015160ff1660ff16815260200190815260200160002060000180546112339061447e565b80601f016020809104026020016040519081016040528092919081815260200182805461125f9061447e565b80156112ac5780601f10611281576101008083540402835291602001916112ac565b820191906000526020600020905b81548152906001019060200180831161128f57829003601f168201915b505050505060006135f2565b61141f60656004600f81106112d0576112cf614420565b5b0180546112dc9061447e565b80601f01602080910402602001604051908101604052809291908181526020018280546113089061447e565b80156113555780601f1061132a57610100808354040283529160200191611355565b820191906000526020600020905b81548152906001019060200180831161133857829003601f168201915b505050505060756000601060ff16815260200190815260200160002060008860a0015160ff1660ff168152602001908152602001600020600001805461139a9061447e565b80601f01602080910402602001604051908101604052809291908181526020018280546113c69061447e565b80156114135780601f106113e857610100808354040283529160200191611413565b820191906000526020600020905b8154815290600101906020018083116113f657829003601f168201915b505050505060006135f2565b61158660656006600f811061143757611436614420565b5b0180546114439061447e565b80601f016020809104026020016040519081016040528092919081815260200182805461146f9061447e565b80156114bc5780601f10611491576101008083540402835291602001916114bc565b820191906000526020600020905b81548152906001019060200180831161149f57829003601f168201915b505050505060756000600b60ff16815260200190815260200160002060008960e0015160ff1660ff16815260200190815260200160002060000180546115019061447e565b80601f016020809104026020016040519081016040528092919081815260200182805461152d9061447e565b801561157a5780601f1061154f5761010080835404028352916020019161157a565b820191906000526020600020905b81548152906001019060200180831161155d57829003601f168201915b505050505060006135f2565b6116f660656009600f811061159e5761159d614420565b5b0180546115aa9061447e565b80601f01602080910402602001604051908101604052809291908181526020018280546115d69061447e565b80156116235780601f106115f857610100808354040283529160200191611623565b820191906000526020600020905b81548152906001019060200180831161160657829003601f168201915b505050505060756000600c60ff168152602001908152602001600020600061164f8b61010001516136ce565b60ff1660ff16815260200190815260200160002060000180546116719061447e565b80601f016020809104026020016040519081016040528092919081815260200182805461169d9061447e565b80156116ea5780601f106116bf576101008083540402835291602001916116ea565b820191906000526020600020905b8154815290600101906020018083116116cd57829003601f168201915b505050505060006135f2565b6118666065600a600f811061170e5761170d614420565b5b01805461171a9061447e565b80601f01602080910402602001604051908101604052809291908181526020018280546117469061447e565b80156117935780601f1061176857610100808354040283529160200191611793565b820191906000526020600020905b81548152906001019060200180831161177657829003601f168201915b505050505060756000600a60ff16815260200190815260200160002060006117bf8c61012001516136ce565b60ff1660ff16815260200190815260200160002060000180546117e19061447e565b80601f016020809104026020016040519081016040528092919081815260200182805461180d9061447e565b801561185a5780601f1061182f5761010080835404028352916020019161185a565b820191906000526020600020905b81548152906001019060200180831161183d57829003601f168201915b505050505060006135f2565b6119206065600d600f811061187e5761187d614420565b5b01805461188a9061447e565b80601f01602080910402602001604051908101604052809291908181526020018280546118b69061447e565b80156119035780601f106118d857610100808354040283529160200191611903565b820191906000526020600020905b8154815290600101906020018083116118e657829003601f168201915b50505050506119198b610100015160ff16613755565b60016135f2565b6119da6065600e600f811061193857611937614420565b5b0180546119449061447e565b80601f01602080910402602001604051908101604052809291908181526020018280546119709061447e565b80156119bd5780601f10611992576101008083540402835291602001916119bd565b820191906000526020600020905b8154815290600101906020018083116119a057829003601f168201915b50505050506119d38c610120015160ff16613755565b60016135f2565b6040516020016119f2999897969594939291906144ec565b60405160208183030381529060405290505b8160000151611a48576040518060400160405280600581526020017f2252617422000000000000000000000000000000000000000000000000000000815250611a7f565b6040518060400160405280600681526020017f22436865662200000000000000000000000000000000000000000000000000008152505b81607660009054906101000a900473ffffffffffffffffffffffffffffffffffffffff1673ffffffffffffffffffffffffffffffffffffffff16634018b1f86040518163ffffffff1660e01b8152600401602060405180830381865afa158015611aed573d6000803e3d6000fd5b505050506040513d601f19601f82011682018060405250810190611b119190614580565b861115611b53576040518060400160405280600781526020017f2247656e20312200000000000000000000000000000000000000000000000000815250611b8a565b6040518060400160405280600781526020017f2247656e203022000000000000000000000000000000000000000000000000008152505b604051602001611b9c9392919061479b565b60405160208183030381529060405292505050919050565b607660009054906101000a900473ffffffffffffffffffffffffffffffffffffffff1681565b611be26138b6565b73ffffffffffffffffffffffffffffffffffffffff16611c00612ed7565b73ffffffffffffffffffffffffffffffffffffffff1614611c56576040517f08c379a0000000000000000000000000000000000000000000000000000000008152600401611c4d9061485a565b60405180910390fd5b611c6060006138be565b565b60606000607660009054906101000a900473ffffffffffffffffffffffffffffffffffffffff1673ffffffffffffffffffffffffffffffffffffffff166394e56847846040518263ffffffff1660e01b8152600401611cc19190614214565b61014060405180830381865afa158015611cdf573d6000803e3d6000fd5b505050506040513d601f19601f82011682018060405250810190611d0391906143f2565b905060008160000151611d1757600a611d1a565b60005b90506000611d2c8361010001516136ce565b90506000611d3e8461012001516136ce565b905060006040518061022001604052808360ff1660ff1681526020018460ff1660ff168152602001866040015160ff1660ff168152602001866020015160ff1660ff1681526020018660a0015160ff1660ff168152602001866080015160ff1660ff1681526020018660c0015160ff1660ff168152602001600060ff168152602001600060ff168152602001600060ff1681526020018360ff1660ff1681526020018660e0015160ff1660ff1681526020018460ff1660ff168152602001866060015160ff1660ff168152602001866040015160ff1660ff168152602001866020015160ff1660ff1681526020018660a0015160ff1660ff1681525090506000611fd760756000876000611e5291906148a9565b60ff1660ff168152602001908152602001600020600084886000611e7691906148a9565b60ff1660118110611e8a57611e89614420565b5b602002015160ff1660ff168152602001908152602001600020604051806040016040529081600082018054611ebe9061447e565b80601f0160208091040260200160405190810160405280929190818152602001828054611eea9061447e565b8015611f375780601f10611f0c57610100808354040283529160200191611f37565b820191906000526020600020905b815481529060010190602001808311611f1a57829003601f168201915b50505050508152602001600182018054611f509061447e565b80601f0160208091040260200160405190810160405280929190818152602001828054611f7c9061447e565b8015611fc95780601f10611f9e57610100808354040283529160200191611fc9565b820191906000526020600020905b815481529060010190602001808311611fac57829003601f168201915b505050505081525050613984565b61217060756000886001611feb91906148a9565b60ff1660ff16815260200190815260200160002060008589600161200f91906148a9565b60ff166011811061202357612022614420565b5b602002015160ff1660ff1681526020019081526020016000206040518060400160405290816000820180546120579061447e565b80601f01602080910402602001604051908101604052809291908181526020018280546120839061447e565b80156120d05780601f106120a5576101008083540402835291602001916120d0565b820191906000526020600020905b8154815290600101906020018083116120b357829003601f168201915b505050505081526020016001820180546120e99061447e565b80601f01602080910402602001604051908101604052809291908181526020018280546121159061447e565b80156121625780601f1061213757610100808354040283529160200191612162565b820191906000526020600020905b81548152906001019060200180831161214557829003601f168201915b505050505081525050613984565b6123096075600089600261218491906148a9565b60ff1660ff1681526020019081526020016000206000868a60026121a891906148a9565b60ff16601181106121bc576121bb614420565b5b602002015160ff1660ff1681526020019081526020016000206040518060400160405290816000820180546121f09061447e565b80601f016020809104026020016040519081016040528092919081815260200182805461221c9061447e565b80156122695780601f1061223e57610100808354040283529160200191612269565b820191906000526020600020905b81548152906001019060200180831161224c57829003601f168201915b505050505081526020016001820180546122829061447e565b80601f01602080910402602001604051908101604052809291908181526020018280546122ae9061447e565b80156122fb5780601f106122d0576101008083540402835291602001916122fb565b820191906000526020600020905b8154815290600101906020018083116122de57829003601f168201915b505050505081525050613984565b6124a2607560008a600361231d91906148a9565b60ff1660ff1681526020019081526020016000206000878b600361234191906148a9565b60ff166011811061235557612354614420565b5b602002015160ff1660ff1681526020019081526020016000206040518060400160405290816000820180546123899061447e565b80601f01602080910402602001604051908101604052809291908181526020018280546123b59061447e565b80156124025780601f106123d757610100808354040283529160200191612402565b820191906000526020600020905b8154815290600101906020018083116123e557829003601f168201915b5050505050815260200160018201805461241b9061447e565b80601f01602080910402602001604051908101604052809291908181526020018280546124479061447e565b80156124945780601f1061246957610100808354040283529160200191612494565b820191906000526020600020905b81548152906001019060200180831161247757829003601f168201915b505050505081525050613984565b61263b607560008b60046124b691906148a9565b60ff1660ff1681526020019081526020016000206000888c60046124da91906148a9565b60ff16601181106124ee576124ed614420565b5b602002015160ff1660ff1681526020019081526020016000206040518060400160405290816000820180546125229061447e565b80601f016020809104026020016040519081016040528092919081815260200182805461254e9061447e565b801561259b5780601f106125705761010080835404028352916020019161259b565b820191906000526020600020905b81548152906001019060200180831161257e57829003601f168201915b505050505081526020016001820180546125b49061447e565b80601f01602080910402602001604051908101604052809291908181526020018280546125e09061447e565b801561262d5780601f106126025761010080835404028352916020019161262d565b820191906000526020600020905b81548152906001019060200180831161261057829003601f168201915b505050505081525050613984565b6127d4607560008c600561264f91906148a9565b60ff1660ff1681526020019081526020016000206000898d600561267391906148a9565b60ff166011811061268757612686614420565b5b602002015160ff1660ff1681526020019081526020016000206040518060400160405290816000820180546126bb9061447e565b80601f01602080910402602001604051908101604052809291908181526020018280546126e79061447e565b80156127345780601f1061270957610100808354040283529160200191612734565b820191906000526020600020905b81548152906001019060200180831161271757829003601f168201915b5050505050815260200160018201805461274d9061447e565b80601f01602080910402602001604051908101604052809291908181526020018280546127799061447e565b80156127c65780601f1061279b576101008083540402835291602001916127c6565b820191906000526020600020905b8154815290600101906020018083116127a957829003601f168201915b505050505081525050613984565b61296d607560008d60066127e891906148a9565b60ff1660ff16815260200190815260200160002060008a8e600661280c91906148a9565b60ff16601181106128205761281f614420565b5b602002015160ff1660ff1681526020019081526020016000206040518060400160405290816000820180546128549061447e565b80601f01602080910402602001604051908101604052809291908181526020018280546128809061447e565b80156128cd5780601f106128a2576101008083540402835291602001916128cd565b820191906000526020600020905b8154815290600101906020018083116128b057829003601f168201915b505050505081526020016001820180546128e69061447e565b80601f01602080910402602001604051908101604052809291908181526020018280546129129061447e565b801561295f5780601f106129345761010080835404028352916020019161295f565b820191906000526020600020905b81548152906001019060200180831161294257829003601f168201915b505050505081525050613984565b60405160200161298397969594939291906148e0565b604051602081830303815290604052905085600001516129d8576040518060400160405280600381526020017f7261740000000000000000000000000000000000000000000000000000000000815250612a0f565b6040518060400160405280600481526020017f63686566000000000000000000000000000000000000000000000000000000008152505b81604051602001612a21929190614ac1565b6040516020818303038152906040529650505050505050919050565b600060019054906101000a900460ff16612a655760008054906101000a900460ff1615612a6e565b612a6d6139e1565b5b612aad576040517f08c379a0000000000000000000000000000000000000000000000000000000008152600401612aa490614b78565b60405180910390fd5b60008060019054906101000a900460ff161590508015612afd576001600060016101000a81548160ff02191690831515021790555060016000806101000a81548160ff0219169083151502179055505b612b056139f2565b6007607460006101000a81548161ffff021916908361ffff160217905550604051806101e001604052806040518060400160405280600381526020017f486174000000000000000000000000000000000000000000000000000000000081525081526020016040518060400160405280600481526020017f457965730000000000000000000000000000000000000000000000000000000081525081526020016040518060400160405280600881526020017f5069657263696e6700000000000000000000000000000000000000000000000081525081526020016040518060400160405280600581526020017f4d6f75746800000000000000000000000000000000000000000000000000000081525081526020016040518060400160405280600481526020017f4e65636b0000000000000000000000000000000000000000000000000000000081525081526020016040518060400160405280600481526020017f48616e640000000000000000000000000000000000000000000000000000000081525081526020016040518060400160405280600481526020017f5461696c0000000000000000000000000000000000000000000000000000000081525081526020016040518060400160405280600581526020017f536b696c6c00000000000000000000000000000000000000000000000000000081525081526020016040518060400160405280600881526020017f496e73616e69747900000000000000000000000000000000000000000000000081525081526020016040518060400160405280600c81526020017f496e74656c6c6967656e6365000000000000000000000000000000000000000081525081526020016040518060400160405280600781526020017f4661746e6573730000000000000000000000000000000000000000000000000081525081526020016040518060400160405280601081526020017f536b696c6c2070657263656e746167650000000000000000000000000000000081525081526020016040518060400160405280601381526020017f496e73616e6974792070657263656e746167650000000000000000000000000081525081526020016040518060400160405280601581526020017f496e74656c6c6967656e63652071756f7469656e74000000000000000000000081525081526020016040518060400160405280601281526020017f4661746e6573732070657263656e746167650000000000000000000000000000815250815250606590600f612eb2929190613c9d565b508015612ed45760008060016101000a81548160ff0219169083151502179055505b50565b6000603360009054906101000a900473ffffffffffffffffffffffffffffffffffffffff16905090565b607560205281600052604060002060205280600052604060002060009150915050806000018054612f319061447e565b80601f0160208091040260200160405190810160405280929190818152602001828054612f5d9061447e565b8015612faa5780601f10612f7f57610100808354040283529160200191612faa565b820191906000526020600020905b815481529060010190602001808311612f8d57829003601f168201915b505050505090806001018054612fbf9061447e565b80601f0160208091040260200160405190810160405280929190818152602001828054612feb9061447e565b80156130385780601f1061300d57610100808354040283529160200191613038565b820191906000526020600020905b81548152906001019060200180831161301b57829003601f168201915b5050505050905082565b61304a6138b6565b73ffffffffffffffffffffffffffffffffffffffff16613068612ed7565b73ffffffffffffffffffffffffffffffffffffffff16146130be576040517f08c379a00000000000000000000000000000000000000000000000000000000081526004016130b59061485a565b60405180910390fd5b60008282905011613104576040517f08c379a00000000000000000000000000000000000000000000000000000000081526004016130fb90614be4565b60405180910390fd5b60005b828290508160ff16101561329c57604051806040016040528084848460ff1681811061313657613135614420565b5b90506020028101906131489190614c13565b80600001906131579190614c3b565b8080601f016020809104026020016040519081016040528093929190818152602001838380828437600081840152601f19601f82011690508083019250505050505050815260200184848460ff168181106131b5576131b4614420565b5b90506020028101906131c79190614c13565b80602001906131d69190614c3b565b8080601f016020809104026020016040519081016040528093929190818152602001838380828437600081840152601f19601f82011690508083019250505050505050815250607560008660ff1660ff16815260200190815260200160002060008360ff1660ff1681526020019081526020016000206000820151816000019080519060200190613268929190613cf0565b506020820151816001019080519060200190613285929190613cf0565b50905050808061329490614c9e565b915050613107565b50505050565b60606000607660009054906101000a900473ffffffffffffffffffffffffffffffffffffffff1673ffffffffffffffffffffffffffffffffffffffff166394e56847846040518263ffffffff1660e01b81526004016133019190614214565b61014060405180830381865afa15801561331f573d6000803e3d6000fd5b505050506040513d601f19601f8201168201806040525081019061334391906143f2565b90506000816000015161338b576040518060400160405280600581526020017f52617420230000000000000000000000000000000000000000000000000000008152506133c2565b6040518060400160405280600681526020017f43686566202300000000000000000000000000000000000000000000000000008152505b6133cb85613755565b6133dc6133d787611c62565b613a53565b6133e587610250565b6040516020016133f89493929190614eb6565b604051602081830303815290604052905061341281613a53565b6040516020016134229190614f98565b60405160208183030381529060405292505050919050565b6134426138b6565b73ffffffffffffffffffffffffffffffffffffffff16613460612ed7565b73ffffffffffffffffffffffffffffffffffffffff16146134b6576040517f08c379a00000000000000000000000000000000000000000000000000000000081526004016134ad9061485a565b60405180910390fd5b80607660006101000a81548173ffffffffffffffffffffffffffffffffffffffff021916908373ffffffffffffffffffffffffffffffffffffffff16021790555050565b6135026138b6565b73ffffffffffffffffffffffffffffffffffffffff16613520612ed7565b73ffffffffffffffffffffffffffffffffffffffff1614613576576040517f08c379a000000000000000000000000000000000000000000000000000000000815260040161356d9061485a565b60405180910390fd5b600073ffffffffffffffffffffffffffffffffffffffff168173ffffffffffffffffffffffffffffffffffffffff1614156135e6576040517f08c379a00000000000000000000000000000000000000000000000000000000081526004016135dd9061502c565b60405180910390fd5b6135ef816138be565b50565b606081158015613603575060008351145b1561361f576040518060200160405280600081525090506136c7565b60008261364b57836040516020016136379190615098565b60405160208183030381529060405261364d565b835b9050848361366a57604051806020016040528060008152506136a1565b6040518060400160405280601081526020017f226d61785f76616c7565223a3130302c000000000000000000000000000000008152505b826040516020016136b49392919061515d565b6040516020818303038152906040529150505b9392505050565b6000806064607460009054906101000a900461ffff168460ff166136f291906151c5565b6136fc9190615230565b61ffff1690506001607460009054906101000a900461ffff1661371f9190615261565b61ffff16811161372f578061374d565b6001607460009054906101000a900461ffff1661374c9190615261565b5b915050919050565b6060600082141561379d576040518060400160405280600181526020017f300000000000000000000000000000000000000000000000000000000000000081525090506138b1565b600082905060005b600082146137cf5780806137b890615295565b915050600a826137c891906152de565b91506137a5565b60008167ffffffffffffffff8111156137eb576137ea614234565b5b6040519080825280601f01601f19166020018201604052801561381d5781602001600182028036833780820191505090505b5090505b600085146138aa57600182613836919061530f565b9150600a856138459190615343565b60306138519190615374565b60f81b81838151811061386757613866614420565b5b60200101907effffffffffffffffffffffffffffffffffffffffffffffffffffffffffffff1916908160001a905350600a856138a391906152de565b9450613821565b8093505050505b919050565b600033905090565b6000603360009054906101000a900473ffffffffffffffffffffffffffffffffffffffff16905081603360006101000a81548173ffffffffffffffffffffffffffffffffffffffff021916908373ffffffffffffffffffffffffffffffffffffffff1602179055508173ffffffffffffffffffffffffffffffffffffffff168173ffffffffffffffffffffffffffffffffffffffff167f8be0079c531659141344cd1fd0a4f28419497f9722a3daafe3b4186f6b6457e060405160405180910390a35050565b6060600082602001515114156139b6576040518060a00160405280608081526020016156146080913982602001819052505b81602001516040516020016139cb91906154fa565b6040516020818303038152906040529050919050565b60006139ec30613bd8565b15905090565b600060019054906101000a900460ff16613a41576040517f08c379a0000000000000000000000000000000000000000000000000000000008152600401613a3890615599565b60405180910390fd5b613a49613beb565b613a51613c3c565b565b6060600082511415613a7657604051806020016040528060008152509050613bd3565b60006040518060600160405280604081526020016156946040913990506000600360028551613aa59190615374565b613aaf91906152de565b6004613abb91906155b9565b90506000602082613acc9190615374565b67ffffffffffffffff811115613ae557613ae4614234565b5b6040519080825280601f01601f191660200182016040528015613b175781602001600182028036833780820191505090505b509050818152600183018586518101602084015b81831015613b92576003830192508251603f8160121c1685015160f81b8252600182019150603f81600c1c1685015160f81b8252600182019150603f8160061c1685015160f81b8252600182019150603f811685015160f81b825260018201915050613b2b565b600389510660018114613bac5760028114613bbc57613bc7565b613d3d60f01b6002830352613bc7565b603d60f81b60018303525b50505050508093505050505b919050565b600080823b905060008111915050919050565b600060019054906101000a900460ff16613c3a576040517f08c379a0000000000000000000000000000000000000000000000000000000008152600401613c3190615599565b60405180910390fd5b565b600060019054906101000a900460ff16613c8b576040517f08c379a0000000000000000000000000000000000000000000000000000000008152600401613c8290615599565b60405180910390fd5b613c9b613c966138b6565b6138be565b565b82600f8101928215613cdf579160200282015b82811115613cde578251829080519060200190613cce929190613cf0565b5091602001919060010190613cb0565b5b509050613cec9190613d76565b5090565b828054613cfc9061447e565b90600052602060002090601f016020900481019282613d1e5760008555613d65565b82601f10613d3757805160ff1916838001178555613d65565b82800160010185558215613d65579182015b82811115613d64578251825591602001919060010190613d49565b5b509050613d729190613d9a565b5090565b5b80821115613d965760008181613d8d9190613db7565b50600101613d77565b5090565b5b80821115613db3576000816000905550600101613d9b565b5090565b508054613dc39061447e565b6000825580601f10613dd55750613df4565b601f016020900490600052602060002090810190613df39190613d9a565b5b50565b600061ffff82169050919050565b613e0e81613df7565b82525050565b6000602082019050613e296000830184613e05565b92915050565b6000604051905090565b600080fd5b600080fd5b6000819050919050565b613e5681613e43565b8114613e6157600080fd5b50565b600081359050613e7381613e4d565b92915050565b600060208284031215613e8f57613e8e613e39565b5b6000613e9d84828501613e64565b91505092915050565b600081519050919050565b600082825260208201905092915050565b60005b83811015613ee0578082015181840152602081019050613ec5565b83811115613eef576000848401525b50505050565b6000601f19601f8301169050919050565b6000613f1182613ea6565b613f1b8185613eb1565b9350613f2b818560208601613ec2565b613f3481613ef5565b840191505092915050565b60006020820190508181036000830152613f598184613f06565b905092915050565b600073ffffffffffffffffffffffffffffffffffffffff82169050919050565b6000819050919050565b6000613fa6613fa1613f9c84613f61565b613f81565b613f61565b9050919050565b6000613fb882613f8b565b9050919050565b6000613fca82613fad565b9050919050565b613fda81613fbf565b82525050565b6000602082019050613ff56000830184613fd1565b92915050565b600061400682613f61565b9050919050565b61401681613ffb565b82525050565b6000602082019050614031600083018461400d565b92915050565b600060ff82169050919050565b61404d81614037565b811461405857600080fd5b50565b60008135905061406a81614044565b92915050565b6000806040838503121561408757614086613e39565b5b60006140958582860161405b565b92505060206140a68582860161405b565b9150509250929050565b600060408201905081810360008301526140ca8185613f06565b905081810360208301526140de8184613f06565b90509392505050565b600080fd5b600080fd5b600080fd5b60008083601f84011261410c5761410b6140e7565b5b8235905067ffffffffffffffff811115614129576141286140ec565b5b602083019150836020820283011115614145576141446140f1565b5b9250929050565b60008060006040848603121561416557614164613e39565b5b60006141738682870161405b565b935050602084013567ffffffffffffffff81111561419457614193613e3e565b5b6141a0868287016140f6565b92509250509250925092565b6141b581613ffb565b81146141c057600080fd5b50565b6000813590506141d2816141ac565b92915050565b6000602082840312156141ee576141ed613e39565b5b60006141fc848285016141c3565b91505092915050565b61420e81613e43565b82525050565b60006020820190506142296000830184614205565b92915050565b600080fd5b7f4e487b7100000000000000000000000000000000000000000000000000000000600052604160045260246000fd5b61426c82613ef5565b810181811067ffffffffffffffff8211171561428b5761428a614234565b5b80604052505050565b600061429e613e2f565b90506142aa8282614263565b919050565b60008115159050919050565b6142c4816142af565b81146142cf57600080fd5b50565b6000815190506142e1816142bb565b92915050565b6000815190506142f681614044565b92915050565b600061014082840312156143135761431261422f565b5b61431e610140614294565b9050600061432e848285016142d2565b6000830152506020614342848285016142e7565b6020830152506040614356848285016142e7565b604083015250606061436a848285016142e7565b606083015250608061437e848285016142e7565b60808301525060a0614392848285016142e7565b60a08301525060c06143a6848285016142e7565b60c08301525060e06143ba848285016142e7565b60e0830152506101006143cf848285016142e7565b610100830152506101206143e5848285016142e7565b6101208301525092915050565b6000610140828403121561440957614408613e39565b5b6000614417848285016142fc565b91505092915050565b7f4e487b7100000000000000000000000000000000000000000000000000000000600052603260045260246000fd5b7f4e487b7100000000000000000000000000000000000000000000000000000000600052602260045260246000fd5b6000600282049050600182168061449657607f821691505b602082108114156144aa576144a961444f565b5b50919050565b600081905092915050565b60006144c682613ea6565b6144d081856144b0565b93506144e0818560208601613ec2565b80840191505092915050565b60006144f8828c6144bb565b9150614504828b6144bb565b9150614510828a6144bb565b915061451c82896144bb565b915061452882886144bb565b915061453482876144bb565b915061454082866144bb565b915061454c82856144bb565b915061455882846144bb565b91508190509a9950505050505050505050565b60008151905061457a81613e4d565b92915050565b60006020828403121561459657614595613e39565b5b60006145a48482850161456b565b91505092915050565b7f5b00000000000000000000000000000000000000000000000000000000000000600082015250565b60006145e36001836144b0565b91506145ee826145ad565b600182019050919050565b7f7b2274726169745f74797065223a2254797065222c2276616c7565223a000000600082015250565b600061462f601d836144b0565b915061463a826145f9565b601d82019050919050565b7f7d2c000000000000000000000000000000000000000000000000000000000000600082015250565b600061467b6002836144b0565b915061468682614645565b600282019050919050565b7f7b2274726169745f74797065223a2247656e65726174696f6e222c2276616c7560008201527f65223a0000000000000000000000000000000000000000000000000000000000602082015250565b60006146ed6023836144b0565b91506146f882614691565b602382019050919050565b7f7d00000000000000000000000000000000000000000000000000000000000000600082015250565b60006147396001836144b0565b915061474482614703565b600182019050919050565b7f5d00000000000000000000000000000000000000000000000000000000000000600082015250565b60006147856001836144b0565b91506147908261474f565b600182019050919050565b60006147a6826145d6565b91506147b182614622565b91506147bd82866144bb565b91506147c88261466e565b91506147d482856144bb565b91506147df826146e0565b91506147eb82846144bb565b91506147f68261472c565b915061480182614778565b9150819050949350505050565b7f4f776e61626c653a2063616c6c6572206973206e6f7420746865206f776e6572600082015250565b6000614844602083613eb1565b915061484f8261480e565b602082019050919050565b6000602082019050818103600083015261487381614837565b9050919050565b7f4e487b7100000000000000000000000000000000000000000000000000000000600052601160045260246000fd5b60006148b482614037565b91506148bf83614037565b92508260ff038211156148d5576148d461487a565b5b828201905092915050565b60006148ec828a6144bb565b91506148f882896144bb565b915061490482886144bb565b915061491082876144bb565b915061491c82866144bb565b915061492882856144bb565b915061493482846144bb565b915081905098975050505050505050565b7f3c7376672069643d220000000000000000000000000000000000000000000000600082015250565b600061497b6009836144b0565b915061498682614945565b600982019050919050565b7f222077696474683d223130302522206865696768743d2231303025222076657260008201527f73696f6e3d22312e31222076696577426f783d2230203020313030203130302260208201527f20786d6c6e733d22687474703a2f2f7777772e77332e6f72672f323030302f7360408201527f76672220786d6c6e733a786c696e6b3d22687474703a2f2f7777772e77332e6f60608201527f72672f313939392f786c696e6b223e0000000000000000000000000000000000608082015250565b6000614a5f608f836144b0565b9150614a6a82614991565b608f82019050919050565b7f3c2f7376673e0000000000000000000000000000000000000000000000000000600082015250565b6000614aab6006836144b0565b9150614ab682614a75565b600682019050919050565b6000614acc8261496e565b9150614ad882856144bb565b9150614ae382614a52565b9150614aef82846144bb565b9150614afa82614a9e565b91508190509392505050565b7f496e697469616c697a61626c653a20636f6e747261637420697320616c72656160008201527f647920696e697469616c697a6564000000000000000000000000000000000000602082015250565b6000614b62602e83613eb1565b9150614b6d82614b06565b604082019050919050565b60006020820190508181036000830152614b9181614b55565b9050919050565b7f74726169747320617272617920656d7074790000000000000000000000000000600082015250565b6000614bce601283613eb1565b9150614bd982614b98565b602082019050919050565b60006020820190508181036000830152614bfd81614bc1565b9050919050565b600080fd5b600080fd5b600080fd5b600082356001604003833603038112614c2f57614c2e614c04565b5b80830191505092915050565b60008083356001602003843603038112614c5857614c57614c04565b5b80840192508235915067ffffffffffffffff821115614c7a57614c79614c09565b5b602083019250600182023603831315614c9657614c95614c0e565b5b509250929050565b6000614ca982614037565b915060ff821415614cbd57614cbc61487a565b5b600182019050919050565b7f7b00000000000000000000000000000000000000000000000000000000000000600082015250565b6000614cfe6001836144b0565b9150614d0982614cc8565b600182019050919050565b7f226e616d65223a22000000000000000000000000000000000000000000000000600082015250565b6000614d4a6008836144b0565b9150614d5582614d14565b600882019050919050565b7f222c000000000000000000000000000000000000000000000000000000000000600082015250565b6000614d966002836144b0565b9150614da182614d60565b600282019050919050565b7f226465736372697074696f6e223a22544f444f222c0000000000000000000000600082015250565b6000614de26015836144b0565b9150614ded82614dac565b601582019050919050565b7f22696d616765223a22646174613a696d6167652f7376672b786d6c3b6261736560008201527f36342c0000000000000000000000000000000000000000000000000000000000602082015250565b6000614e546023836144b0565b9150614e5f82614df8565b602382019050919050565b7f2261747472696275746573223a00000000000000000000000000000000000000600082015250565b6000614ea0600d836144b0565b9150614eab82614e6a565b600d82019050919050565b6000614ec182614cf1565b9150614ecc82614d3d565b9150614ed882876144bb565b9150614ee482866144bb565b9150614eef82614d89565b9150614efa82614dd5565b9150614f0582614e47565b9150614f1182856144bb565b9150614f1c82614d89565b9150614f2782614e93565b9150614f3382846144bb565b9150614f3e8261472c565b915081905095945050505050565b7f646174613a6170706c69636174696f6e2f6a736f6e3b6261736536342c000000600082015250565b6000614f82601d836144b0565b9150614f8d82614f4c565b601d82019050919050565b6000614fa382614f75565b9150614faf82846144bb565b915081905092915050565b7f4f776e61626c653a206e6577206f776e657220697320746865207a65726f206160008201527f6464726573730000000000000000000000000000000000000000000000000000602082015250565b6000615016602683613eb1565b915061502182614fba565b604082019050919050565b6000602082019050818103600083015261504581615009565b9050919050565b7f2200000000000000000000000000000000000000000000000000000000000000600082015250565b60006150826001836144b0565b915061508d8261504c565b600182019050919050565b60006150a382615075565b91506150af82846144bb565b91506150ba82615075565b915081905092915050565b7f2274726169745f74797065223a22000000000000000000000000000000000000600082015250565b60006150fb600e836144b0565b9150615106826150c5565b600e82019050919050565b7f2276616c7565223a000000000000000000000000000000000000000000000000600082015250565b60006151476008836144b0565b915061515282615111565b600882019050919050565b600061516882614cf1565b9150615173826150ee565b915061517f82866144bb565b915061518a82614d89565b915061519682856144bb565b91506151a18261513a565b91506151ad82846144bb565b91506151b88261466e565b9150819050949350505050565b60006151d082613df7565b91506151db83613df7565b92508161ffff04831182151516156151f6576151f561487a565b5b828202905092915050565b7f4e487b7100000000000000000000000000000000000000000000000000000000600052601260045260246000fd5b600061523b82613df7565b915061524683613df7565b92508261525657615255615201565b5b828204905092915050565b600061526c82613df7565b915061527783613df7565b92508282101561528a5761528961487a565b5b828203905092915050565b60006152a082613e43565b91507fffffffffffffffffffffffffffffffffffffffffffffffffffffffffffffffff8214156152d3576152d261487a565b5b600182019050919050565b60006152e982613e43565b91506152f483613e43565b92508261530457615303615201565b5b828204905092915050565b600061531a82613e43565b915061532583613e43565b9250828210156153385761533761487a565b5b828203905092915050565b600061534e82613e43565b915061535983613e43565b92508261536957615368615201565b5b828206905092915050565b600061537f82613e43565b915061538a83613e43565b9250827fffffffffffffffffffffffffffffffffffffffffffffffffffffffffffffffff038211156153bf576153be61487a565b5b828201905092915050565b7f3c696d61676520783d22302220793d2230222077696474683d2231303022206860008201527f65696768743d223130302220696d6167652d72656e646572696e673d2270697860208201527f656c6174656422207072657365727665417370656374526174696f3d22784d6960408201527f64594d69642220786c696e6b3a687265663d22646174613a696d6167652f706e60608201527f673b6261736536342c0000000000000000000000000000000000000000000000608082015250565b60006154986089836144b0565b91506154a3826153ca565b608982019050919050565b7f222f3e0000000000000000000000000000000000000000000000000000000000600082015250565b60006154e46003836144b0565b91506154ef826154ae565b600382019050919050565b60006155058261548b565b915061551182846144bb565b915061551c826154d7565b915081905092915050565b7f496e697469616c697a61626c653a20636f6e7472616374206973206e6f74206960008201527f6e697469616c697a696e67000000000000000000000000000000000000000000602082015250565b6000615583602b83613eb1565b915061558e82615527565b604082019050919050565b600060208201905081810360008301526155b281615576565b9050919050565b60006155c482613e43565b91506155cf83613e43565b9250817fffffffffffffffffffffffffffffffffffffffffffffffffffffffffffffffff04831182151516156156085761560761487a565b5b82820290509291505056fe6956424f5277304b47676f414141414e5355684555674141414145414141414241514d414141416c3231624b414141414131424d564555414141436e656a33614141414141585253546c4d41514f62595a6741414141704a52454655434e646a59414141414149414165496876444d41414141415355564f524b35435949493d4142434445464748494a4b4c4d4e4f505152535455565758595a6162636465666768696a6b6c6d6e6f707172737475767778797a303132333435363738392b2fa2646970667358221220c279894775d5b598ca9a39156da8e8155ef9c0d13292e0132cea74cc6c95ea3464736f6c634300080a0033",
  "immutableReferences": {},
  "source": "// SPDX-License-Identifier: MIT\n\npragma solidity ^0.8.0;\n\nimport \"@openzeppelin/contracts-upgradeable/proxy/utils/Initializable.sol\";\nimport \"@openzeppelin/contracts-upgradeable/access/OwnableUpgradeable.sol\";\nimport \"@openzeppelin/contracts-upgradeable/token/ERC721/ERC721Upgradeable.sol\";\nimport \"@openzeppelin/contracts/utils/Strings.sol\";\nimport \"./ITraits.sol\";\nimport \"./IChefRat.sol\";\n\ncontract Traits is Initializable, OwnableUpgradeable, ITraits {\n  using Strings for uint256;\n\n  struct Trait { // Struct to store each trait's data for metadata and rendering\n    string name;\n    string png;\n  }\n\n  string[15] _traitTypes;\n  uint16 public numHeadAndBodyTraits;\n  mapping(uint8 => mapping(uint8 => Trait)) public traitData; // Storage of each trait's name and base64 SVG data\n\n  IChefRat public chefRat;\n\n  function initialize() external initializer {\n    __Ownable_init();\n\n    numHeadAndBodyTraits = 7;\n    _traitTypes = [ // Mapping from trait type (index) to its name\n      \"Hat\",\n      \"Eyes\",\n      \"Piercing\",\n      \"Mouth\",\n      \"Neck\",\n      \"Hand\",\n      \"Tail\",\n      \"Skill\",\n      \"Insanity\",\n      \"Intelligence\",\n      \"Fatness\",\n      \"Skill percentage\",\n      \"Insanity percentage\",\n      \"Intelligence quotient\",\n      \"Fatness percentage\"\n    ];\n  }\n\n  /**\n   * Generates a base64 encoded metadata response without referencing off-chain content\n   * @param tokenId - The ID of the token to generate the metadata for\n   * @return A base64 encoded JSON dictionary of the token's metadata and SVG\n   */\n  function tokenURI(uint256 tokenId) public view override returns (string memory) {\n    IChefRat.ChefRatStruct memory s = chefRat.getTokenTraits(tokenId);\n\n    string memory metadata = string(abi.encodePacked(\n      '{',\n      '\"name\":\"', s.isChef ? 'Chef #' : 'Rat #', tokenId.toString(), '\",',\n      '\"description\":\"TODO\",', // TODO Add description\n      '\"image\":\"data:image/svg+xml;base64,', base64(bytes(drawSVG(tokenId))), '\",',\n      '\"attributes\":', getAttributes(tokenId),\n      '}'\n    ));\n\n    return string(abi.encodePacked(\n      \"data:application/json;base64,\",\n      base64(bytes(metadata))\n    ));\n  }\n\n  function getBodyIndex(uint8 value) internal view returns(uint8) {\n    uint256 val = value * numHeadAndBodyTraits / 100;\n    return val > numHeadAndBodyTraits - 1 ? uint8(numHeadAndBodyTraits - 1) : uint8(val);\n  }\n\n  /**\n   * Generates an entire SVG by composing multiple <image> elements of PNGs\n   * @param tokenId - The ID of the token to generate an SVG for\n   * @return A valid SVG of the Chef / Rat\n   */\n  function drawSVG(uint256 tokenId) public view returns (string memory) {\n    IChefRat.ChefRatStruct memory s = chefRat.getTokenTraits(tokenId);\n    uint8 shift = s.isChef ? 0 : 10;\n    uint8 head = getBodyIndex(s.efficiency);\n    uint8 body = getBodyIndex(s.tolerance);\n    uint8[17] memory order = [body, head, s.eyes, s.hat, s.neck, s.mouth, s.hand, 0, 0, 0, body, s.tail, head, s.piercing, s.eyes, s.hat, s.neck];\n    string memory svgString = string(abi.encodePacked(\n      drawTrait(traitData[0 + shift][order[0 + shift]]),\n      drawTrait(traitData[1 + shift][order[1 + shift]]),\n      drawTrait(traitData[2 + shift][order[2 + shift]]),\n      drawTrait(traitData[3 + shift][order[3 + shift]]),\n      drawTrait(traitData[4 + shift][order[4 + shift]]),\n      drawTrait(traitData[5 + shift][order[5 + shift]]),\n      drawTrait(traitData[6 + shift][order[6 + shift]])\n    ));\n\n    return string(abi.encodePacked(\n      '<svg id=\"', s.isChef ? 'chef' : 'rat', '\" width=\"100%\" height=\"100%\" version=\"1.1\" viewBox=\"0 0 100 100\" xmlns=\"http://www.w3.org/2000/svg\" xmlns:xlink=\"http://www.w3.org/1999/xlink\">',\n      svgString,\n      \"</svg>\"\n    ));\n  }\n\n  /**\n   * Generates an <image> element using base64 encoded PNGs\n   * @param trait - The trait storing the PNG data\n   * @return The <image> element\n   */\n  function drawTrait(Trait memory trait) internal pure returns (string memory) {\n    if (bytes(trait.png).length == 0) trait.png = 'iVBORw0KGgoAAAANSUhEUgAAAAEAAAABAQMAAAAl21bKAAAAA1BMVEUAAACnej3aAAAAAXRSTlMAQObYZgAAAApJREFUCNdjYAAAAAIAAeIhvDMAAAAASUVORK5CYII=';\n    return string(abi.encodePacked(\n      '<image x=\"0\" y=\"0\" width=\"100\" height=\"100\" image-rendering=\"pixelated\" preserveAspectRatio=\"xMidYMid\" xlink:href=\"data:image/png;base64,',\n      trait.png,\n      '\"/>'\n    ));\n  }\n\n  /**\n   * Generates an array composed of all the individual traits and values\n   * @param tokenId - The ID of the token to compose the metadata for\n   * @return A JSON array of all of the attributes for given token ID\n   */\n  function getAttributes(uint256 tokenId) public view returns (string memory) {\n    IChefRat.ChefRatStruct memory s = chefRat.getTokenTraits(tokenId);\n    string memory traits;\n    if (s.isChef) {\n      traits = string(abi.encodePacked(\n        getAttribute(_traitTypes[0], traitData[3][s.hat].name, false),\n        getAttribute(_traitTypes[1], traitData[2][s.eyes].name, false),\n        getAttribute(_traitTypes[3], traitData[5][s.mouth].name, false),\n        getAttribute(_traitTypes[4], traitData[4][s.neck].name, false),\n        getAttribute(_traitTypes[5], traitData[6][s.hand].name, false),\n        getAttribute(_traitTypes[7], traitData[0][getBodyIndex(s.efficiency)].name, false),\n        getAttribute(_traitTypes[8], traitData[1][getBodyIndex(s.tolerance)].name, false),\n        getAttribute(_traitTypes[11], Strings.toString(s.efficiency), true),\n        getAttribute(_traitTypes[12], Strings.toString(s.tolerance), true)\n      ));\n    } else {\n      traits = string(abi.encodePacked(\n        getAttribute(_traitTypes[0], traitData[15][s.hat].name, false),\n        getAttribute(_traitTypes[1], traitData[14][s.eyes].name, false),\n        getAttribute(_traitTypes[2], traitData[13][s.piercing].name, false),\n        getAttribute(_traitTypes[4], traitData[16][s.neck].name, false),\n        getAttribute(_traitTypes[6], traitData[11][s.tail].name, false),\n        getAttribute(_traitTypes[9], traitData[12][getBodyIndex(s.efficiency)].name, false),\n        getAttribute(_traitTypes[10], traitData[10][getBodyIndex(s.tolerance)].name, false),\n        getAttribute(_traitTypes[13], Strings.toString(s.efficiency), true),\n        getAttribute(_traitTypes[14], Strings.toString(s.tolerance), true)\n      ));\n    }\n    return string(abi.encodePacked(\n      '[',\n        '{\"trait_type\":\"Type\",\"value\":', s.isChef ? '\"Chef\"' : '\"Rat\"', '},',\n        traits,\n        '{\"trait_type\":\"Generation\",\"value\":', tokenId <= chefRat.getPaidTokens() ? '\"Gen 0\"' : '\"Gen 1\"', '}',\n      ']'\n    ));\n  }\n\n  /**\n   * Generates an attribute for the attributes array in the ERC721 metadata standard\n   * @param traitType - The trait type to reference as the metadata key\n   * @param value - The token's trait associated with the key\n   * @return A JSON dictionary for the single attribute\n   */\n  function getAttribute(string memory traitType, string memory value, bool isInteger) internal pure returns (string memory) {\n    if (!isInteger && bytes(value).length == 0) return '';\n    string memory val = isInteger ? value : string(abi.encodePacked('\"', value, '\"'));\n    return string(abi.encodePacked(\n      '{',\n        '\"trait_type\":\"', traitType, '\",',\n        isInteger ? '\"max_value\":100,' : '',\n        '\"value\":', val,\n      '},'\n    ));\n  }\n\n  function setChefRat(address _chefRat) external onlyOwner {\n    chefRat = IChefRat(_chefRat);\n  }\n\n  /**\n   * Used by admin to upload the names and images associated with each trait\n   * @param traitIndex - The trait type to upload the traits for (see traitTypes for a mapping)\n   * @param traits - The names and base64 encoded PNGs for each trait\n   */\n  function uploadTraits(uint8 traitIndex, Trait[] calldata traits) external onlyOwner {\n    require(traits.length > 0, \"traits array empty\");\n    for (uint8 i = 0; i < traits.length; i++) {\n      traitData[traitIndex][i] = Trait(\n        traits[i].name,\n        traits[i].png\n      );\n    }\n  }\n\n  /** BASE 64 - Written by Brech Devos */\n  string internal constant TABLE = 'ABCDEFGHIJKLMNOPQRSTUVWXYZabcdefghijklmnopqrstuvwxyz0123456789+/';\n  function base64(bytes memory data) internal pure returns (string memory) {\n    if (data.length == 0) return '';\n    string memory table = TABLE; // load the table into memory\n    uint256 encodedLen = 4 * ((data.length + 2) / 3); // multiply by 4/3 rounded up\n    string memory result = new string(encodedLen + 32); // add some extra buffer at the end required for the writing\n    assembly {\n      mstore(result, encodedLen) // set the actual output length\n      let tablePtr := add(table, 1) // prepare the lookup table\n      let dataPtr := data // input ptr\n      let endPtr := add(dataPtr, mload(data))\n      let resultPtr := add(result, 32) // result ptr, jump over length\n      for {} lt(dataPtr, endPtr) {} // run over the input, 3 bytes at a time\n      {\n        dataPtr := add(dataPtr, 3)\n        let input := mload(dataPtr) // read 3 bytes\n        // write 4 characters\n        mstore(resultPtr, shl(248, mload(add(tablePtr, and(shr(18, input), 0x3F)))))\n        resultPtr := add(resultPtr, 1)\n        mstore(resultPtr, shl(248, mload(add(tablePtr, and(shr(12, input), 0x3F)))))\n        resultPtr := add(resultPtr, 1)\n        mstore(resultPtr, shl(248, mload(add(tablePtr, and(shr( 6, input), 0x3F)))))\n        resultPtr := add(resultPtr, 1)\n        mstore(resultPtr, shl(248, mload(add(tablePtr, and(        input,  0x3F)))))\n        resultPtr := add(resultPtr, 1)\n      }\n      // padding with '='\n      switch mod(mload(data), 3)\n      case 1 { mstore(sub(resultPtr, 2), shl(240, 0x3d3d)) }\n      case 2 { mstore(sub(resultPtr, 1), shl(248, 0x3d)) }\n    }\n    return result;\n  }\n}\n",
  "sourcePath": "/Users/chris/workspace/ratalert/ratalert-contracts/contracts/Traits.sol",
  "compiler": {
    "name": "solc",
    "version": "0.8.10+commit.fc410830.Emscripten.clang"
  },
  "schemaVersion": "3.4.4",
  "updatedAt": "2022-02-03T10:31:44.779Z",
  "networkType": "ethereum",
  "devdoc": {
    "kind": "dev",
    "methods": {
      "drawSVG(uint256)": {
        "params": {
          "tokenId": "- The ID of the token to generate an SVG for"
        },
        "returns": {
          "_0": "A valid SVG of the Chef / Rat"
        }
      },
      "getAttributes(uint256)": {
        "params": {
          "tokenId": "- The ID of the token to compose the metadata for"
        },
        "returns": {
          "_0": "A JSON array of all of the attributes for given token ID"
        }
      },
      "owner()": {
        "details": "Returns the address of the current owner."
      },
      "renounceOwnership()": {
        "details": "Leaves the contract without owner. It will not be possible to call `onlyOwner` functions anymore. Can only be called by the current owner. NOTE: Renouncing ownership will leave the contract without an owner, thereby removing any functionality that is only available to the owner."
      },
      "tokenURI(uint256)": {
        "params": {
          "tokenId": "- The ID of the token to generate the metadata for"
        },
        "returns": {
          "_0": "A base64 encoded JSON dictionary of the token's metadata and SVG"
        }
      },
      "transferOwnership(address)": {
        "details": "Transfers ownership of the contract to a new account (`newOwner`). Can only be called by the current owner."
      },
      "uploadTraits(uint8,(string,string)[])": {
        "params": {
          "traitIndex": "- The trait type to upload the traits for (see traitTypes for a mapping)",
          "traits": "- The names and base64 encoded PNGs for each trait"
        }
      }
    },
    "version": 1
  },
  "userdoc": {
    "kind": "user",
    "methods": {
      "drawSVG(uint256)": {
        "notice": "Generates an entire SVG by composing multiple <image> elements of PNGs"
      },
      "getAttributes(uint256)": {
        "notice": "Generates an array composed of all the individual traits and values"
      },
      "tokenURI(uint256)": {
        "notice": "Generates a base64 encoded metadata response without referencing off-chain content"
      },
      "uploadTraits(uint8,(string,string)[])": {
        "notice": "Used by admin to upload the names and images associated with each trait"
      }
    },
    "version": 1
  }
}