{
  "contractName": "TripleFiveClub",
  "abi": [
    {
      "anonymous": false,
      "inputs": [
        {
          "indexed": false,
          "internalType": "uint256",
          "name": "tokenId",
          "type": "uint256"
        },
        {
          "indexed": false,
          "internalType": "uint256",
          "name": "earned",
          "type": "uint256"
        },
        {
          "indexed": false,
          "internalType": "bool",
          "name": "unstaked",
          "type": "bool"
        },
        {
          "indexed": false,
          "internalType": "uint8",
          "name": "skill",
          "type": "uint8"
        },
        {
          "indexed": false,
          "internalType": "uint8",
          "name": "freak",
          "type": "uint8"
        },
        {
          "indexed": false,
          "internalType": "string",
          "name": "eventName",
          "type": "string"
        },
        {
          "indexed": false,
          "internalType": "uint256",
          "name": "foodTokensPerRat",
          "type": "uint256"
        }
      ],
      "name": "ChefClaimed",
      "type": "event"
    },
    {
      "anonymous": false,
      "inputs": [
        {
          "indexed": true,
          "internalType": "address",
          "name": "previousOwner",
          "type": "address"
        },
        {
          "indexed": true,
          "internalType": "address",
          "name": "newOwner",
          "type": "address"
        }
      ],
      "name": "OwnershipTransferred",
      "type": "event"
    },
    {
      "anonymous": false,
      "inputs": [
        {
          "indexed": false,
          "internalType": "address",
          "name": "account",
          "type": "address"
        }
      ],
      "name": "Paused",
      "type": "event"
    },
    {
      "anonymous": false,
      "inputs": [
        {
          "indexed": false,
          "internalType": "uint256",
          "name": "tokenId",
          "type": "uint256"
        },
        {
          "indexed": false,
          "internalType": "uint256",
          "name": "earned",
          "type": "uint256"
        },
        {
          "indexed": false,
          "internalType": "bool",
          "name": "unstaked",
          "type": "bool"
        },
        {
          "indexed": false,
          "internalType": "uint8",
          "name": "intelligence",
          "type": "uint8"
        },
        {
          "indexed": false,
          "internalType": "uint8",
          "name": "bodyMass",
          "type": "uint8"
        },
        {
          "indexed": false,
          "internalType": "string",
          "name": "eventName",
          "type": "string"
        },
        {
          "indexed": false,
          "internalType": "uint256",
          "name": "foodTokensPerRat",
          "type": "uint256"
        }
      ],
      "name": "RatClaimed",
      "type": "event"
    },
    {
      "anonymous": false,
      "inputs": [
        {
          "indexed": false,
          "internalType": "uint256",
          "name": "value",
          "type": "uint256"
        }
      ],
      "name": "StakedGen1",
      "type": "event"
    },
    {
      "anonymous": false,
      "inputs": [
        {
          "indexed": false,
          "internalType": "uint256",
          "name": "tokenId",
          "type": "uint256"
        },
        {
          "indexed": false,
          "internalType": "address",
          "name": "owner",
          "type": "address"
        },
        {
          "indexed": false,
          "internalType": "uint256",
          "name": "value",
          "type": "uint256"
        }
      ],
      "name": "TokenStaked",
      "type": "event"
    },
    {
      "anonymous": false,
      "inputs": [
        {
          "indexed": false,
          "internalType": "address",
          "name": "account",
          "type": "address"
        }
      ],
      "name": "Unpaused",
      "type": "event"
    },
    {
      "inputs": [
        {
          "internalType": "uint256",
          "name": "",
          "type": "uint256"
        }
      ],
      "name": "chefs",
      "outputs": [
        {
          "internalType": "uint256",
          "name": "tokenId",
          "type": "uint256"
        },
        {
          "internalType": "address",
          "name": "owner",
          "type": "address"
        },
        {
          "internalType": "uint80",
          "name": "value",
          "type": "uint80"
        },
        {
          "internalType": "uint80",
          "name": "timestamp",
          "type": "uint80"
        }
      ],
      "stateMutability": "view",
      "type": "function",
      "constant": true
    },
    {
      "inputs": [
        {
          "internalType": "uint16[]",
          "name": "tokenIds",
          "type": "uint16[]"
        },
        {
          "internalType": "bool",
          "name": "unstake",
          "type": "bool"
        }
      ],
      "name": "claimMany",
      "outputs": [],
      "stateMutability": "payable",
      "type": "function",
      "payable": true
    },
    {
      "inputs": [],
      "name": "foodTokensPerRat",
      "outputs": [
        {
          "internalType": "uint256",
          "name": "",
          "type": "uint256"
        }
      ],
      "stateMutability": "view",
      "type": "function",
      "constant": true
    },
    {
      "inputs": [
        {
          "components": [
            {
              "internalType": "bytes32",
              "name": "requestId",
              "type": "bytes32"
            },
            {
              "internalType": "address",
              "name": "venue",
              "type": "address"
            },
            {
              "internalType": "address",
              "name": "sender",
              "type": "address"
            },
            {
              "internalType": "uint16[]",
              "name": "tokenIds",
              "type": "uint16[]"
            },
            {
              "internalType": "bool",
              "name": "unstake",
              "type": "bool"
            }
          ],
          "internalType": "struct IClaim.VRFStruct",
          "name": "v",
          "type": "tuple"
        },
        {
          "internalType": "uint256",
          "name": "randomness",
          "type": "uint256"
        }
      ],
      "name": "fulfillClaimMany",
      "outputs": [],
      "stateMutability": "nonpayable",
      "type": "function"
    },
    {
      "inputs": [
        {
          "internalType": "address",
          "name": "account",
          "type": "address"
        }
      ],
      "name": "getChefsStaked",
      "outputs": [
        {
          "internalType": "uint256",
          "name": "",
          "type": "uint256"
        }
      ],
      "stateMutability": "view",
      "type": "function",
      "constant": true
    },
    {
      "inputs": [
        {
          "internalType": "address",
          "name": "",
          "type": "address"
        },
        {
          "internalType": "address",
          "name": "from",
          "type": "address"
        },
        {
          "internalType": "uint256",
          "name": "",
          "type": "uint256"
        },
        {
          "internalType": "bytes",
          "name": "",
          "type": "bytes"
        }
      ],
      "name": "onERC721Received",
      "outputs": [
        {
          "internalType": "bytes4",
          "name": "",
          "type": "bytes4"
        }
      ],
      "stateMutability": "pure",
      "type": "function",
      "constant": true
    },
    {
      "inputs": [],
      "name": "owner",
      "outputs": [
        {
          "internalType": "address",
          "name": "",
          "type": "address"
        }
      ],
      "stateMutability": "view",
      "type": "function",
      "constant": true
    },
    {
      "inputs": [],
      "name": "pause",
      "outputs": [],
      "stateMutability": "nonpayable",
      "type": "function"
    },
    {
      "inputs": [],
      "name": "paused",
      "outputs": [
        {
          "internalType": "bool",
          "name": "",
          "type": "bool"
        }
      ],
      "stateMutability": "view",
      "type": "function",
      "constant": true
    },
    {
      "inputs": [
        {
          "internalType": "uint256",
          "name": "",
          "type": "uint256"
        }
      ],
      "name": "rats",
      "outputs": [
        {
          "internalType": "uint256",
          "name": "tokenId",
          "type": "uint256"
        },
        {
          "internalType": "address",
          "name": "owner",
          "type": "address"
        },
        {
          "internalType": "uint80",
          "name": "value",
          "type": "uint80"
        },
        {
          "internalType": "uint80",
          "name": "timestamp",
          "type": "uint80"
        }
      ],
      "stateMutability": "view",
      "type": "function",
      "constant": true
    },
    {
      "inputs": [],
      "name": "renounceOwnership",
      "outputs": [],
      "stateMutability": "nonpayable",
      "type": "function"
    },
    {
      "inputs": [
        {
          "internalType": "address",
          "name": "_dao",
          "type": "address"
        }
      ],
      "name": "setDao",
      "outputs": [],
      "stateMutability": "nonpayable",
      "type": "function"
    },
    {
      "inputs": [
        {
          "internalType": "address",
          "name": "account",
          "type": "address"
        },
        {
          "internalType": "uint16[]",
          "name": "tokenIds",
          "type": "uint16[]"
        }
      ],
      "name": "stakeMany",
      "outputs": [],
      "stateMutability": "nonpayable",
      "type": "function"
    },
    {
      "inputs": [
        {
          "internalType": "uint256",
          "name": "",
          "type": "uint256"
        }
      ],
      "name": "stakedGen1",
      "outputs": [
        {
          "internalType": "uint256",
          "name": "",
          "type": "uint256"
        }
      ],
      "stateMutability": "view",
      "type": "function",
      "constant": true
    },
    {
      "inputs": [
        {
          "internalType": "address",
          "name": "",
          "type": "address"
        },
        {
          "internalType": "uint256",
          "name": "",
          "type": "uint256"
        }
      ],
      "name": "stakers",
      "outputs": [
        {
          "internalType": "uint256",
          "name": "",
          "type": "uint256"
        }
      ],
      "stateMutability": "view",
      "type": "function",
      "constant": true
    },
    {
      "inputs": [],
      "name": "totalChefsStaked",
      "outputs": [
        {
          "internalType": "uint256",
          "name": "",
          "type": "uint256"
        }
      ],
      "stateMutability": "view",
      "type": "function",
      "constant": true
    },
    {
      "inputs": [],
      "name": "totalRatsStaked",
      "outputs": [
        {
          "internalType": "uint256",
          "name": "",
          "type": "uint256"
        }
      ],
      "stateMutability": "view",
      "type": "function",
      "constant": true
    },
    {
      "inputs": [
        {
          "internalType": "address",
          "name": "newOwner",
          "type": "address"
        }
      ],
      "name": "transferOwnership",
      "outputs": [],
      "stateMutability": "nonpayable",
      "type": "function"
    },
    {
      "inputs": [],
      "name": "unpause",
      "outputs": [],
      "stateMutability": "nonpayable",
      "type": "function"
    },
    {
      "inputs": [],
      "name": "withdrawPayments",
      "outputs": [],
      "stateMutability": "nonpayable",
      "type": "function"
    },
    {
      "inputs": [
        {
          "internalType": "address",
          "name": "_character",
          "type": "address"
        },
        {
          "internalType": "address",
          "name": "_claim",
          "type": "address"
        },
        {
          "internalType": "uint256",
          "name": "_accrualPeriod",
          "type": "uint256"
        }
      ],
      "name": "initialize",
      "outputs": [],
      "stateMutability": "nonpayable",
      "type": "function"
    },
    {
      "inputs": [
        {
          "internalType": "address",
          "name": "_character",
          "type": "address"
        },
        {
          "internalType": "address",
          "name": "_claim",
          "type": "address"
        },
        {
          "internalType": "address",
          "name": "_gourmetFood",
          "type": "address"
        }
      ],
      "name": "initialize",
      "outputs": [],
      "stateMutability": "nonpayable",
      "type": "function"
    },
    {
      "inputs": [
        {
          "internalType": "uint256",
          "name": "_vestingPeriod",
          "type": "uint256"
        },
        {
          "internalType": "uint256",
          "name": "_accrualPeriod",
          "type": "uint256"
        },
        {
          "internalType": "int8",
          "name": "_dailyFreakRate",
          "type": "int8"
        },
        {
          "internalType": "int8",
          "name": "_dailyBodyMassRate",
          "type": "int8"
        },
        {
          "internalType": "int8",
          "name": "_boostLevel",
          "type": "int8"
        },
        {
          "internalType": "uint256[]",
          "name": "_entranceFees",
          "type": "uint256[]"
        },
        {
          "internalType": "uint256[]",
          "name": "_weekModulo",
          "type": "uint256[]"
        },
        {
          "internalType": "uint256",
          "name": "_maxConcurrentGen1",
          "type": "uint256"
        },
        {
          "internalType": "uint8",
          "name": "_maxClaimsPerTx",
          "type": "uint8"
        },
        {
          "internalType": "uint256",
          "name": "_claimFee",
          "type": "uint256"
        }
      ],
      "name": "configure",
      "outputs": [],
      "stateMutability": "nonpayable",
      "type": "function"
    },
    {
      "inputs": [
        {
          "internalType": "uint256[]",
          "name": "ids",
          "type": "uint256[]"
        }
      ],
      "name": "multiEject",
      "outputs": [],
      "stateMutability": "nonpayable",
      "type": "function"
    },
    {
      "inputs": [],
      "name": "getStakedGen1",
      "outputs": [
        {
          "internalType": "uint256",
          "name": "",
          "type": "uint256"
        }
      ],
      "stateMutability": "view",
      "type": "function",
      "constant": true
    }
  ],
  "bytecode": "0x608060405234801561001057600080fd5b50615f9480620000216000396000f3fe6080604052600436106101665760003560e01c80638456cb59116100d1578063c0c53b8b1161008a578063dbdc1f6b11610064578063dbdc1f6b146104e7578063f266674614610510578063f2fde38b1461053b578063f52dd0b51461056457610166565b8063c0c53b8b14610458578063c4b7eb7014610481578063c8b6cbf7146104aa57610166565b80638456cb591461037d5780638980e5be146103945780638a82279e146103bd5780638da5cb5b146103e8578063922a180214610413578063a7a102901461043c57610166565b80634c4913ec116101235780634c4913ec1461027e5780634d1c61af146102bb5780635c975abb146102fb5780636103d70b146103265780636637b8821461033d578063715018a61461036657610166565b8063150b7a021461016b5780631794bb3c146101a85780632535a77f146101d157806335ec066e146101fc5780633f4ba83a1461023c578063499f801014610253575b600080fd5b34801561017757600080fd5b50610192600480360381019061018d91906141a4565b6105a1565b60405161019f9190614267565b60405180910390f35b3480156101b457600080fd5b506101cf60048036038101906101ca9190614282565b610624565b005b3480156101dd57600080fd5b506101e6610820565b6040516101f391906142e4565b60405180910390f35b34801561020857600080fd5b50610223600480360381019061021e91906142ff565b610826565b6040516102339493929190614360565b60405180910390f35b34801561024857600080fd5b506102516108a2565b005b34801561025f57600080fd5b506102686108b4565b60405161027591906142e4565b60405180910390f35b34801561028a57600080fd5b506102a560048036038101906102a091906143a5565b6108ba565b6040516102b291906142e4565b60405180910390f35b3480156102c757600080fd5b506102e260048036038101906102dd91906142ff565b610906565b6040516102f29493929190614360565b60405180910390f35b34801561030757600080fd5b50610310610982565b60405161031d91906143ed565b60405180910390f35b34801561033257600080fd5b5061033b610999565b005b34801561034957600080fd5b50610364600480360381019061035f91906143a5565b610a0c565b005b34801561037257600080fd5b5061037b610acc565b005b34801561038957600080fd5b50610392610b54565b005b3480156103a057600080fd5b506103bb60048036038101906103b691906145c9565b610b66565b005b3480156103c957600080fd5b506103d2610d07565b6040516103df91906142e4565b60405180910390f35b3480156103f457600080fd5b506103fd610d14565b60405161040a91906146e0565b60405180910390f35b34801561041f57600080fd5b5061043a6004803603810190610435919061490c565b610d3e565b005b610456600480360381019061045191906149be565b611325565b005b34801561046457600080fd5b5061047f600480360381019061047a9190614a1e565b6117eb565b005b34801561048d57600080fd5b506104a860048036038101906104a39190614a71565b6119a5565b005b3480156104b657600080fd5b506104d160048036038101906104cc9190614aba565b6119bb565b6040516104de91906142e4565b60405180910390f35b3480156104f357600080fd5b5061050e60048036038101906105099190614afa565b6119ec565b005b34801561051c57600080fd5b5061052561206b565b60405161053291906142e4565b60405180910390f35b34801561054757600080fd5b50610562600480360381019061055d91906143a5565b612071565b005b34801561057057600080fd5b5061058b600480360381019061058691906142ff565b612169565b60405161059891906142e4565b60405180910390f35b60008073ffffffffffffffffffffffffffffffffffffffff168573ffffffffffffffffffffffffffffffffffffffff1614610611576040517f08c379a000000000000000000000000000000000000000000000000000000000815260040161060890614bdd565b60405180910390fd5b63150b7a0260e01b905095945050505050565b600060019054906101000a900460ff1661064c5760008054906101000a900460ff1615610655565b61065461218d565b5b610694576040517f08c379a000000000000000000000000000000000000000000000000000000000815260040161068b90614c6f565b60405180910390fd5b60008060019054906101000a900460ff1615905080156106e4576001600060016101000a81548160ff02191690831515021790555060016000806101000a81548160ff0219169083151502179055505b6106ec61219e565b6106f46121f7565b83609860006101000a81548173ffffffffffffffffffffffffffffffffffffffff021916908373ffffffffffffffffffffffffffffffffffffffff16021790555082609960006101000a81548173ffffffffffffffffffffffffffffffffffffffff021916908373ffffffffffffffffffffffffffffffffffffffff1602179055508160a2819055506000609e60006101000a81548160ff021916908360000b60ff1602179055506000609e60016101000a81548160ff021916908360000b60ff1602179055506000609e60026101000a81548160ff021916908360000b60ff1602179055506000609e60036101000a81548160ff021916908360000b60ff160217905550801561081a5760008060016101000a81548160ff0219169083151502179055505b50505050565b60a35481565b609b6020528060005260406000206000915090508060000154908060010160009054906101000a900473ffffffffffffffffffffffffffffffffffffffff16908060010160149054906101000a900469ffffffffffffffffffff16908060020160009054906101000a900469ffffffffffffffffffff16905084565b6108aa612250565b6108b26122e2565b565b60a05481565b6000609c60008373ffffffffffffffffffffffffffffffffffffffff1673ffffffffffffffffffffffffffffffffffffffff168152602001908152602001600020805490509050919050565b609a6020528060005260406000206000915090508060000154908060010160009054906101000a900473ffffffffffffffffffffffffffffffffffffffff16908060010160149054906101000a900469ffffffffffffffffffff16908060020160009054906101000a900469ffffffffffffffffffff16905084565b6000603360009054906101000a900460ff16905090565b6109a1612250565b609760009054906101000a900473ffffffffffffffffffffffffffffffffffffffff1673ffffffffffffffffffffffffffffffffffffffff166108fc479081150290604051600060405180830381858888f19350505050158015610a09573d6000803e3d6000fd5b50565b610a14612384565b73ffffffffffffffffffffffffffffffffffffffff16610a32610d14565b73ffffffffffffffffffffffffffffffffffffffff1614610a88576040517f08c379a0000000000000000000000000000000000000000000000000000000008152600401610a7f90614cdb565b60405180910390fd5b80609760006101000a81548173ffffffffffffffffffffffffffffffffffffffff021916908373ffffffffffffffffffffffffffffffffffffffff16021790555050565b610ad4612384565b73ffffffffffffffffffffffffffffffffffffffff16610af2610d14565b73ffffffffffffffffffffffffffffffffffffffff1614610b48576040517f08c379a0000000000000000000000000000000000000000000000000000000008152600401610b3f90614cdb565b60405180910390fd5b610b52600061238c565b565b610b5c612250565b610b64612452565b565b610b6e612384565b73ffffffffffffffffffffffffffffffffffffffff16610b8c610d14565b73ffffffffffffffffffffffffffffffffffffffff1614610be2576040517f08c379a0000000000000000000000000000000000000000000000000000000008152600401610bd990614cdb565b60405180910390fd5b8960a1819055508860a28190555087609e60016101000a81548160ff021916908360000b60ff16021790555086609e60036101000a81548160ff021916908360000b60ff1602179055508560a760006101000a81548160ff021916908360000b60ff16021790555084600081518110610c5e57610c5d614cfb565b5b602002602001015160a88190555084600181518110610c8057610c7f614cfb565b5b602002602001015160a98190555083600081518110610ca257610ca1614cfb565b5b602002602001015160aa8190555083600181518110610cc457610cc3614cfb565b5b602002602001015160ab819055508260ac819055508160a460006101000a81548160ff021916908360ff1602179055508060a58190555050505050505050505050565b600060a680549050905090565b6000606560009054906101000a900473ffffffffffffffffffffffffffffffffffffffff16905090565b610d46610982565b15610d86576040517f08c379a0000000000000000000000000000000000000000000000000000000008152600401610d7d90614d76565b60405180910390fd5b609960009054906101000a900473ffffffffffffffffffffffffffffffffffffffff1673ffffffffffffffffffffffffffffffffffffffff163373ffffffffffffffffffffffffffffffffffffffff1614610e16576040517f08c379a0000000000000000000000000000000000000000000000000000000008152600401610e0d90614de2565b60405180910390fd5b6000609d6000846000015181526020019081526020016000208054905011610e73576040517f08c379a0000000000000000000000000000000000000000000000000000000008152600401610e6a90614e4e565b60405180910390fd5b6000609d600084600001518152602001908152602001600020805480602002602001604051908101604052809291908181526020018280548015610efe57602002820191906000526020600020906000905b82829054906101000a900461ffff1661ffff1681526020019060020190602082600101049283019260010382029150808411610ec55790505b50505050509050609d6000846000015181526020019081526020016000206000610f289190613fa4565b6000805b82518110156113065760008482604051602001610f4a929190614e6e565b6040516020818303038152906040528051906020012060001c9050610f8c848381518110610f7b57610f7a614cfb565b5b602002602001015161ffff166124f5565b156112b05760005b609c6000886040015173ffffffffffffffffffffffffffffffffffffffff1673ffffffffffffffffffffffffffffffffffffffff168152602001908152602001600020805490508110156111f957848381518110610ff557610ff4614cfb565b5b602002602001015161ffff16609c6000896040015173ffffffffffffffffffffffffffffffffffffffff1673ffffffffffffffffffffffffffffffffffffffff168152602001908152602001600020828154811061105657611055614cfb565b5b906000526020600020015414156111e657609c6000886040015173ffffffffffffffffffffffffffffffffffffffff1673ffffffffffffffffffffffffffffffffffffffff1681526020019081526020016000206001609c60008a6040015173ffffffffffffffffffffffffffffffffffffffff1673ffffffffffffffffffffffffffffffffffffffff168152602001908152602001600020805490506110fd9190614ec6565b8154811061110e5761110d614cfb565b5b9060005260206000200154609c6000896040015173ffffffffffffffffffffffffffffffffffffffff1673ffffffffffffffffffffffffffffffffffffffff168152602001908152602001600020828154811061116e5761116d614cfb565b5b9060005260206000200181905550609c6000886040015173ffffffffffffffffffffffffffffffffffffffff1673ffffffffffffffffffffffffffffffffffffffff1681526020019081526020016000208054806111cf576111ce614efa565b5b600190038181906000526020600020016000905590555b80806111f190614f29565b915050610f94565b5060006112508760400151609c60008a6040015173ffffffffffffffffffffffffffffffffffffffff1673ffffffffffffffffffffffffffffffffffffffff168152602001908152602001600020805490506125d4565b905060028114156112695761126887604001516125e0565b5b61129d85848151811061127f5761127e614cfb565b5b602002602001015161ffff16886040015189608001516000866125e3565b846112a89190614f72565b9350506112f2565b6112e48483815181106112c6576112c5614cfb565b5b602002602001015161ffff1687604001518860800151600085612606565b836112ef9190614f72565b92505b5080806112fe90614f29565b915050610f2c565b50600081111561131f5761131e846040015182612629565b5b50505050565b61132d610982565b1561136d576040517f08c379a000000000000000000000000000000000000000000000000000000000815260040161136490614d76565b60405180910390fd5b611375612384565b73ffffffffffffffffffffffffffffffffffffffff163273ffffffffffffffffffffffffffffffffffffffff16146113e2576040517f08c379a00000000000000000000000000000000000000000000000000000000081526004016113d990615014565b60405180910390fd5b60a460009054906101000a900460ff1660ff1683839050111561143a576040517f08c379a000000000000000000000000000000000000000000000000000000000815260040161143190615080565b60405180910390fd5b60a554341461147e576040517f08c379a0000000000000000000000000000000000000000000000000000000008152600401611475906150ec565b60405180910390fd5b60005b838390508110156117125760006114c28585848181106114a4576114a3614cfb565b5b90506020020160208101906114b9919061510c565b61ffff166124f5565b61150957609b60008686858181106114dd576114dc614cfb565b5b90506020020160208101906114f2919061510c565b61ffff168152602001908152602001600020611548565b609a60008686858181106115205761151f614cfb565b5b9050602002016020810190611535919061510c565b61ffff1681526020019081526020016000205b604051806080016040529081600082015481526020016001820160009054906101000a900473ffffffffffffffffffffffffffffffffffffffff1673ffffffffffffffffffffffffffffffffffffffff1673ffffffffffffffffffffffffffffffffffffffff1681526020016001820160149054906101000a900469ffffffffffffffffffff1669ffffffffffffffffffff1669ffffffffffffffffffff1681526020016002820160009054906101000a900469ffffffffffffffffffff1669ffffffffffffffffffff1669ffffffffffffffffffff1681525050905061162d612384565b73ffffffffffffffffffffffffffffffffffffffff16816020015173ffffffffffffffffffffffffffffffffffffffff161461169e576040517f08c379a000000000000000000000000000000000000000000000000000000000815260040161169590615185565b60405180910390fd5b60a154816060015169ffffffffffffffffffff16426116bd9190614ec6565b10156116fe576040517f08c379a00000000000000000000000000000000000000000000000000000000081526004016116f5906151f1565b60405180910390fd5b50808061170a90614f29565b915050611481565b506000609960009054906101000a900473ffffffffffffffffffffffffffffffffffffffff1673ffffffffffffffffffffffffffffffffffffffff16635bdf263c61175b612384565b8686866040518563ffffffff1660e01b815260040161177d94939291906152d4565b6020604051808303816000875af115801561179c573d6000803e3d6000fd5b505050506040513d601f19601f820116820180604052508101906117c09190615329565b90508383609d600084815260200190815260200160002091906117e4929190613fcc565b5050505050565b600060019054906101000a900460ff166118135760008054906101000a900460ff161561181c565b61181b61218d565b5b61185b576040517f08c379a000000000000000000000000000000000000000000000000000000000815260040161185290614c6f565b60405180910390fd5b60008060019054906101000a900460ff1615905080156118ab576001600060016101000a81548160ff02191690831515021790555060016000806101000a81548160ff0219169083151502179055505b6118b361219e565b6118bb6121f7565b83609860006101000a81548173ffffffffffffffffffffffffffffffffffffffff021916908373ffffffffffffffffffffffffffffffffffffffff16021790555082609960006101000a81548173ffffffffffffffffffffffffffffffffffffffff021916908373ffffffffffffffffffffffffffffffffffffffff1602179055508160ad60006101000a81548173ffffffffffffffffffffffffffffffffffffffff021916908373ffffffffffffffffffffffffffffffffffffffff160217905550801561199f5760008060016101000a81548160ff0219169083151502179055505b50505050565b6119ad612250565b6119b881600161262d565b50565b609c60205281600052604060002081815481106119d757600080fd5b90600052602060002001600091509150505481565b6119f4612384565b73ffffffffffffffffffffffffffffffffffffffff163273ffffffffffffffffffffffffffffffffffffffff16148015611a605750611a31612384565b73ffffffffffffffffffffffffffffffffffffffff168373ffffffffffffffffffffffffffffffffffffffff16145b80611abf5750609860009054906101000a900473ffffffffffffffffffffffffffffffffffffffff1673ffffffffffffffffffffffffffffffffffffffff16611aa7612384565b73ffffffffffffffffffffffffffffffffffffffff16145b611afe576040517f08c379a0000000000000000000000000000000000000000000000000000000008152600401611af590615014565b60405180910390fd5b60005b82829050811015612065576000838383818110611b2157611b20614cfb565b5b9050602002016020810190611b36919061510c565b61ffff161415611b4557612052565b609860009054906101000a900473ffffffffffffffffffffffffffffffffffffffff1673ffffffffffffffffffffffffffffffffffffffff16611b86612384565b73ffffffffffffffffffffffffffffffffffffffff1614611cd957611ba9612384565b73ffffffffffffffffffffffffffffffffffffffff16609860009054906101000a900473ffffffffffffffffffffffffffffffffffffffff1673ffffffffffffffffffffffffffffffffffffffff16636352211e858585818110611c1057611c0f614cfb565b5b9050602002016020810190611c25919061510c565b6040518263ffffffff1660e01b8152600401611c419190615391565b602060405180830381865afa158015611c5e573d6000803e3d6000fd5b505050506040513d601f19601f82011682018060405250810190611c8291906153c1565b73ffffffffffffffffffffffffffffffffffffffff1614611cd8576040517f08c379a0000000000000000000000000000000000000000000000000000000008152600401611ccf90615185565b60405180910390fd5b5b611d0d838383818110611cef57611cee614cfb565b5b9050602002016020810190611d04919061510c565b61ffff16612894565b611d4c576040517f08c379a0000000000000000000000000000000000000000000000000000000008152600401611d439061543a565b60405180910390fd5b611d80838383818110611d6257611d61614cfb565b5b9050602002016020810190611d77919061510c565b61ffff166124f5565b15611eff57609c60008573ffffffffffffffffffffffffffffffffffffffff1673ffffffffffffffffffffffffffffffffffffffff168152602001908152602001600020838383818110611dd757611dd6614cfb565b5b9050602002016020810190611dec919061510c565b908060018154018082558091505060019003906000526020600020016000909161ffff169091909150556000611e6b611e23612384565b609c60008873ffffffffffffffffffffffffffffffffffffffff1673ffffffffffffffffffffffffffffffffffffffff168152602001908152602001600020805490506125d4565b90506000811215611eb1576040517f08c379a0000000000000000000000000000000000000000000000000000000008152600401611ea8906154a6565b60405180910390fd5b6000811415611ec457611ec38561289f565b5b611ef985858585818110611edb57611eda614cfb565b5b9050602002016020810190611ef0919061510c565b61ffff166128a2565b50611f35565b611f3484848484818110611f1657611f15614cfb565b5b9050602002016020810190611f2b919061510c565b61ffff16612901565b5b609860009054906101000a900473ffffffffffffffffffffffffffffffffffffffff1673ffffffffffffffffffffffffffffffffffffffff16611f76612384565b73ffffffffffffffffffffffffffffffffffffffff161461205157609860009054906101000a900473ffffffffffffffffffffffffffffffffffffffff1673ffffffffffffffffffffffffffffffffffffffff166323b872dd611fd7612384565b30868686818110611feb57611fea614cfb565b5b9050602002016020810190612000919061510c565b6040518463ffffffff1660e01b815260040161201e939291906154c6565b600060405180830381600087803b15801561203857600080fd5b505af115801561204c573d6000803e3d6000fd5b505050505b5b808061205d90614f29565b915050611b01565b50505050565b609f5481565b612079612384565b73ffffffffffffffffffffffffffffffffffffffff16612097610d14565b73ffffffffffffffffffffffffffffffffffffffff16146120ed576040517f08c379a00000000000000000000000000000000000000000000000000000000081526004016120e490614cdb565b60405180910390fd5b600073ffffffffffffffffffffffffffffffffffffffff168173ffffffffffffffffffffffffffffffffffffffff16141561215d576040517f08c379a00000000000000000000000000000000000000000000000000000000081526004016121549061556f565b60405180910390fd5b6121668161238c565b50565b60a6818154811061217957600080fd5b906000526020600020016000915090505481565b600061219830612960565b15905090565b600060019054906101000a900460ff166121ed576040517f08c379a00000000000000000000000000000000000000000000000000000000081526004016121e490615601565b60405180910390fd5b6121f5612983565b565b600060019054906101000a900460ff16612246576040517f08c379a000000000000000000000000000000000000000000000000000000000815260040161223d90615601565b60405180910390fd5b61224e6129e4565b565b609760009054906101000a900473ffffffffffffffffffffffffffffffffffffffff1673ffffffffffffffffffffffffffffffffffffffff163373ffffffffffffffffffffffffffffffffffffffff16146122e0576040517f08c379a00000000000000000000000000000000000000000000000000000000081526004016122d79061566d565b60405180910390fd5b565b6122ea610982565b612329576040517f08c379a0000000000000000000000000000000000000000000000000000000008152600401612320906156d9565b60405180910390fd5b6000603360006101000a81548160ff0219169083151502179055507f5db9ee0a495bf2e6ff9c91a7834c1ba4fdd244a5e8aa4e537bd38aeae4b073aa61236d612384565b60405161237a91906146e0565b60405180910390a1565b600033905090565b6000606560009054906101000a900473ffffffffffffffffffffffffffffffffffffffff16905081606560006101000a81548173ffffffffffffffffffffffffffffffffffffffff021916908373ffffffffffffffffffffffffffffffffffffffff1602179055508173ffffffffffffffffffffffffffffffffffffffff168173ffffffffffffffffffffffffffffffffffffffff167f8be0079c531659141344cd1fd0a4f28419497f9722a3daafe3b4186f6b6457e060405160405180910390a35050565b61245a610982565b1561249a576040517f08c379a000000000000000000000000000000000000000000000000000000000815260040161249190614d76565b60405180910390fd5b6001603360006101000a81548160ff0219169083151502179055507f62e78cea01bee320cd4e420270b5ea74000d11b0c9f74754ebdbfc544b05a2586124de612384565b6040516124eb91906146e0565b60405180910390a1565b6000609860009054906101000a900473ffffffffffffffffffffffffffffffffffffffff1673ffffffffffffffffffffffffffffffffffffffff1663e05c57bf836040518263ffffffff1660e01b815260040161255291906142e4565b61016060405180830381865afa158015612570573d6000803e3d6000fd5b505050506040513d601f19601f820116820180604052508101906125949190615738565b9091929394959697985090919293949596975090919293949596509091929394955090919293945090919293509091925090915090505080915050919050565b60006002905092915050565b50565b60006125ee86612a50565b6125fb8686868686612b54565b905095945050505050565b600061261186612a50565b61261e8686868686612f9e565b905095945050505050565b5050565b60005b825181101561288f57600061265e84838151811061265157612650614cfb565b5b60200260200101516124f5565b61269457609b600085848151811061267957612678614cfb565b5b602002602001015181526020019081526020016000206126c2565b609a60008584815181106126ab576126aa614cfb565b5b602002602001015181526020019081526020016000205b604051806080016040529081600082015481526020016001820160009054906101000a900473ffffffffffffffffffffffffffffffffffffffff1673ffffffffffffffffffffffffffffffffffffffff1673ffffffffffffffffffffffffffffffffffffffff1681526020016001820160149054906101000a900469ffffffffffffffffffff1669ffffffffffffffffffff1669ffffffffffffffffffff1681526020016002820160009054906101000a900469ffffffffffffffffffff1669ffffffffffffffffffff1669ffffffffffffffffffff1681525050905060a154816060015169ffffffffffffffffffff16426127be9190614ec6565b1015806127c85750825b1561287b576127f08483815181106127e3576127e2614cfb565b5b60200260200101516124f5565b156128285761282284838151811061280b5761280a614cfb565b5b6020026020010151826020015160016000806125e3565b50612857565b61285584838151811061283e5761283d614cfb565b5b602002602001015182602001516001600080612606565b505b61287a84838151811061286d5761286c614cfb565b5b6020026020010151612a50565b5b50808061288790614f29565b915050612630565b505050565b600060019050919050565b50565b6128aa610982565b156128ea576040517f08c379a00000000000000000000000000000000000000000000000000000000081526004016128e190614d76565b60405180910390fd5b6128f3816133ea565b6128fd82826135f9565b5050565b612909610982565b15612949576040517f08c379a000000000000000000000000000000000000000000000000000000000815260040161294090614d76565b60405180910390fd5b612952816133ea565b61295c82826137b8565b5050565b6000808273ffffffffffffffffffffffffffffffffffffffff163b119050919050565b600060019054906101000a900460ff166129d2576040517f08c379a00000000000000000000000000000000000000000000000000000000081526004016129c990615601565b60405180910390fd5b6129e26129dd612384565b61238c565b565b600060019054906101000a900460ff16612a33576040517f08c379a0000000000000000000000000000000000000000000000000000000008152600401612a2a90615601565b60405180910390fd5b6000603360006101000a81548160ff021916908315150217905550565b60005b60a680549050811015612b14578160a68281548110612a7557612a74614cfb565b5b90600052602060002001541415612b015760a6600160a680549050612a9a9190614ec6565b81548110612aab57612aaa614cfb565b5b906000526020600020015460a68281548110612aca57612ac9614cfb565b5b906000526020600020018190555060a6805480612aea57612ae9614efa565b5b600190038181906000526020600020016000905590555b8080612b0c90614f29565b915050612a53565b507f7d4a6d69eb84044f4d9f547722787c2359e98a01482b3eb1e016cfdeef45830c60a680549050604051612b4991906142e4565b60405180910390a150565b600080609a6000888152602001908152602001600020604051806080016040529081600082015481526020016001820160009054906101000a900473ffffffffffffffffffffffffffffffffffffffff1673ffffffffffffffffffffffffffffffffffffffff1673ffffffffffffffffffffffffffffffffffffffff1681526020016001820160149054906101000a900469ffffffffffffffffffff1669ffffffffffffffffffff1669ffffffffffffffffffff1681526020016002820160009054906101000a900469ffffffffffffffffffff1669ffffffffffffffffffff1669ffffffffffffffffffff168152505090508573ffffffffffffffffffffffffffffffffffffffff16816020015173ffffffffffffffffffffffffffffffffffffffff1614612cb9576040517f08c379a0000000000000000000000000000000000000000000000000000000008152600401612cb090615185565b60405180910390fd5b83612ccc57612cc78161397b565b612ccf565b60005b91506000806000612ce08a87613982565b925092509250612cef8a612894565b612cf857600197505b8715612e2b57609a60008b81526020019081526020016000206000808201600090556001820160006101000a81549073ffffffffffffffffffffffffffffffffffffffff02191690556001820160146101000a81549069ffffffffffffffffffff02191690556002820160006101000a81549069ffffffffffffffffffff02191690555050609f6000815480929190612d909061582c565b9190505550609860009054906101000a900473ffffffffffffffffffffffffffffffffffffffff1673ffffffffffffffffffffffffffffffffffffffff1663b88d4fde308b8d6040518463ffffffff1660e01b8152600401612df49392919061588d565b600060405180830381600087803b158015612e0e57600080fd5b505af1158015612e22573d6000803e3d6000fd5b50505050612f4c565b60405180608001604052808b61ffff1681526020018a73ffffffffffffffffffffffffffffffffffffffff1681526020014269ffffffffffffffffffff1681526020014269ffffffffffffffffffff16815250609a60008c81526020019081526020016000206000820151816000015560208201518160010160006101000a81548173ffffffffffffffffffffffffffffffffffffffff021916908373ffffffffffffffffffffffffffffffffffffffff16021790555060408201518160010160146101000a81548169ffffffffffffffffffff021916908369ffffffffffffffffffff16021790555060608201518160020160006101000a81548169ffffffffffffffffffff021916908369ffffffffffffffffffff1602179055509050505b7f9b394c66bc4fdb2f56f5842a796076e6552d6f15eaacb6e63e3c53b474d872e98a868a86868660a354604051612f89979695949392919061595d565b60405180910390a15050505095945050505050565b600080609b6000888152602001908152602001600020604051806080016040529081600082015481526020016001820160009054906101000a900473ffffffffffffffffffffffffffffffffffffffff1673ffffffffffffffffffffffffffffffffffffffff1673ffffffffffffffffffffffffffffffffffffffff1681526020016001820160149054906101000a900469ffffffffffffffffffff1669ffffffffffffffffffff1669ffffffffffffffffffff1681526020016002820160009054906101000a900469ffffffffffffffffffff1669ffffffffffffffffffff1669ffffffffffffffffffff168152505090508573ffffffffffffffffffffffffffffffffffffffff16816020015173ffffffffffffffffffffffffffffffffffffffff1614613103576040517f08c379a00000000000000000000000000000000000000000000000000000000081526004016130fa90615185565b60405180910390fd5b836131165761311181613ba3565b613119565b60005b9150600080600061312a8a87613982565b9250925092506131398a612894565b61314257600197505b871561327557609b60008b81526020019081526020016000206000808201600090556001820160006101000a81549073ffffffffffffffffffffffffffffffffffffffff02191690556001820160146101000a81549069ffffffffffffffffffff02191690556002820160006101000a81549069ffffffffffffffffffff0219169055505060a060008154809291906131da9061582c565b9190505550609860009054906101000a900473ffffffffffffffffffffffffffffffffffffffff1673ffffffffffffffffffffffffffffffffffffffff1663b88d4fde308b8d6040518463ffffffff1660e01b815260040161323e9392919061588d565b600060405180830381600087803b15801561325857600080fd5b505af115801561326c573d6000803e3d6000fd5b50505050613398565b60405180608001604052808b61ffff1681526020018a73ffffffffffffffffffffffffffffffffffffffff16815260200160a35469ffffffffffffffffffff1681526020014269ffffffffffffffffffff16815250609b60008c81526020019081526020016000206000820151816000015560208201518160010160006101000a81548173ffffffffffffffffffffffffffffffffffffffff021916908373ffffffffffffffffffffffffffffffffffffffff16021790555060408201518160010160146101000a81548169ffffffffffffffffffff021916908369ffffffffffffffffffff16021790555060608201518160020160006101000a81548169ffffffffffffffffffff021916908369ffffffffffffffffffff1602179055509050505b7f9be2cb7a62ca4aefdc81da57f848805cc67c86675da32b5a7be58bb615ba4f328a868a86868660a3546040516133d5979695949392919061595d565b60405180910390a15050505095945050505050565b61344560a680548060200260200160405190810160405280929190818152602001828054801561343957602002820191906000526020600020905b815481526020019060010190808311613425575b5050505050600061262d565b61344e81613baa565b6135485761345a613c47565b613499576040517f08c379a000000000000000000000000000000000000000000000000000000000815260040161349090615a1f565b60405180910390fd5b60ac5460a680549050106134e2576040517f08c379a00000000000000000000000000000000000000000000000000000000081526004016134d990615a8b565b60405180910390fd5b60a68190806001815401808255809150506001900390600052602060002001600090919091909150557f7d4a6d69eb84044f4d9f547722787c2359e98a01482b3eb1e016cfdeef45830c60a68054905060405161353f91906142e4565b60405180910390a15b60ad60009054906101000a900473ffffffffffffffffffffffffffffffffffffffff1673ffffffffffffffffffffffffffffffffffffffff16639dc29fac61358e612384565b61359784613baa565b6135a35760a9546135a7565b60a8545b6040518363ffffffff1660e01b81526004016135c4929190615aab565b600060405180830381600087803b1580156135de57600080fd5b505af11580156135f2573d6000803e3d6000fd5b5050505050565b613601610982565b15613641576040517f08c379a000000000000000000000000000000000000000000000000000000000815260040161363890614d76565b60405180910390fd5b60405180608001604052808261ffff1681526020018373ffffffffffffffffffffffffffffffffffffffff1681526020014269ffffffffffffffffffff1681526020014269ffffffffffffffffffff16815250609a60008381526020019081526020016000206000820151816000015560208201518160010160006101000a81548173ffffffffffffffffffffffffffffffffffffffff021916908373ffffffffffffffffffffffffffffffffffffffff16021790555060408201518160010160146101000a81548169ffffffffffffffffffff021916908369ffffffffffffffffffff16021790555060608201518160020160006101000a81548169ffffffffffffffffffff021916908369ffffffffffffffffffff160217905550905050609f600081548092919061377490614f29565b91905055507f8af1bb49fb16c7835975aa59449ba4328dd54737dfb2ae9fa6c5eca71fda51f98183426040516137ac93929190615ad4565b60405180910390a15050565b6137c0610982565b15613800576040517f08c379a00000000000000000000000000000000000000000000000000000000081526004016137f790614d76565b60405180910390fd5b60405180608001604052808261ffff1681526020018373ffffffffffffffffffffffffffffffffffffffff16815260200160a35469ffffffffffffffffffff1681526020014269ffffffffffffffffffff16815250609b60008381526020019081526020016000206000820151816000015560208201518160010160006101000a81548173ffffffffffffffffffffffffffffffffffffffff021916908373ffffffffffffffffffffffffffffffffffffffff16021790555060408201518160010160146101000a81548169ffffffffffffffffffff021916908369ffffffffffffffffffff16021790555060608201518160020160006101000a81548169ffffffffffffffffffff021916908369ffffffffffffffffffff16021790555090505060a0600081548092919061393590614f29565b91905055507f8af1bb49fb16c7835975aa59449ba4328dd54737dfb2ae9fa6c5eca71fda51f9818360a35460405161396f93929190615ad4565b60405180910390a15050565b6000919050565b60008060606000609860009054906101000a900473ffffffffffffffffffffffffffffffffffffffff1673ffffffffffffffffffffffffffffffffffffffff1663e05c57bf876040518263ffffffff1660e01b81526004016139e491906142e4565b61016060405180830381865afa158015613a02573d6000803e3d6000fd5b505050506040513d601f19601f82011682018060405250810190613a269190615738565b9a5050505050505050505050609860009054906101000a900473ffffffffffffffffffffffffffffffffffffffff1673ffffffffffffffffffffffffffffffffffffffff16637856f9456040518163ffffffff1660e01b8152600401602060405180830381865afa158015613a9f573d6000803e3d6000fd5b505050506040513d601f19601f82011682018060405250810190613ac39190615b20565b8611158015613ae7575060a760009054906101000a900460000b60000b8160000b14155b15613b8b57609860009054906101000a900473ffffffffffffffffffffffffffffffffffffffff1673ffffffffffffffffffffffffffffffffffffffff1663bfec98aa8760a760009054906101000a900460000b6040518363ffffffff1660e01b8152600401613b58929190615b5c565b600060405180830381600087803b158015613b7257600080fd5b505af1158015613b86573d6000803e3d6000fd5b505050505b613b958686613c74565b935093509350509250925092565b6000919050565b6000609860009054906101000a900473ffffffffffffffffffffffffffffffffffffffff1673ffffffffffffffffffffffffffffffffffffffff16637856f9456040518163ffffffff1660e01b8152600401602060405180830381865afa158015613c19573d6000803e3d6000fd5b505050506040513d601f19601f82011682018060405250810190613c3d9190615b20565b8211159050919050565b60008062093a8042613c599190615bb4565b905060aa548110158015613c6e575060ab5481105b91505090565b6000806060600080609860009054906101000a900473ffffffffffffffffffffffffffffffffffffffff1673ffffffffffffffffffffffffffffffffffffffff1663e05c57bf886040518263ffffffff1660e01b8152600401613cd791906142e4565b61016060405180830381865afa158015613cf5573d6000803e3d6000fd5b505050506040513d601f19601f82011682018060405250810190613d199190615738565b9a505050505050505050509150600082613d5f57609b600089815260200190815260200160002060020160009054906101000a900469ffffffffffffffffffff16613d8d565b609a600089815260200190815260200160002060020160009054906101000a900469ffffffffffffffffffff165b69ffffffffffffffffffff1642613da49190614ec6565b9050609860009054906101000a900473ffffffffffffffffffffffffffffffffffffffff1673ffffffffffffffffffffffffffffffffffffffff166363dbfc7789613e1a86613e0257609e60029054906101000a900460000b613e13565b609e60009054906101000a900460000b5b8587613ee2565b613e5087613e3757609e60039054906101000a900460000b613e48565b609e60019054906101000a900460000b5b866000613ee2565b613e58613f9f565b613e63576000613e65565b8b5b6040518563ffffffff1660e01b8152600401613e849493929190615be5565b6000604051808303816000875af1158015613ea3573d6000803e3d6000fd5b505050506040513d6000823e3d601f19601f82011682018060405250810190613ecc9190615cd0565b8096508197508298505050505050509250925092565b600060a254831115613ef45760a25492505b600060a2548560000b85613f089190615d49565b613f129190615e60565b905060a2548410613f2f578260000b81613f2c9190615eca565b90505b6064811315613f42576064915050613f98565b7fffffffffffffffffffffffffffffffffffffffffffffffffffffffffffffff9c811215613f93577fffffffffffffffffffffffffffffffffffffffffffffffffffffffffffffff9c915050613f98565b809150505b9392505050565b600090565b50805460008255600f016010900490600052602060002090810190613fc9919061407a565b50565b82805482825590600052602060002090600f016010900481019282156140695791602002820160005b8382111561403957833561ffff1683826101000a81548161ffff021916908361ffff1602179055509260200192600201602081600101049283019260010302613ff5565b80156140675782816101000a81549061ffff0219169055600201602081600101049283019260010302614039565b505b509050614076919061407a565b5090565b5b8082111561409357600081600090555060010161407b565b5090565b6000604051905090565b600080fd5b600080fd5b600073ffffffffffffffffffffffffffffffffffffffff82169050919050565b60006140d6826140ab565b9050919050565b6140e6816140cb565b81146140f157600080fd5b50565b600081359050614103816140dd565b92915050565b6000819050919050565b61411c81614109565b811461412757600080fd5b50565b60008135905061413981614113565b92915050565b600080fd5b600080fd5b600080fd5b60008083601f8401126141645761416361413f565b5b8235905067ffffffffffffffff81111561418157614180614144565b5b60208301915083600182028301111561419d5761419c614149565b5b9250929050565b6000806000806000608086880312156141c0576141bf6140a1565b5b60006141ce888289016140f4565b95505060206141df888289016140f4565b94505060406141f08882890161412a565b935050606086013567ffffffffffffffff811115614211576142106140a6565b5b61421d8882890161414e565b92509250509295509295909350565b60007fffffffff0000000000000000000000000000000000000000000000000000000082169050919050565b6142618161422c565b82525050565b600060208201905061427c6000830184614258565b92915050565b60008060006060848603121561429b5761429a6140a1565b5b60006142a9868287016140f4565b93505060206142ba868287016140f4565b92505060406142cb8682870161412a565b9150509250925092565b6142de81614109565b82525050565b60006020820190506142f960008301846142d5565b92915050565b600060208284031215614315576143146140a1565b5b60006143238482850161412a565b91505092915050565b614335816140cb565b82525050565b600069ffffffffffffffffffff82169050919050565b61435a8161433b565b82525050565b600060808201905061437560008301876142d5565b614382602083018661432c565b61438f6040830185614351565b61439c6060830184614351565b95945050505050565b6000602082840312156143bb576143ba6140a1565b5b60006143c9848285016140f4565b91505092915050565b60008115159050919050565b6143e7816143d2565b82525050565b600060208201905061440260008301846143de565b92915050565b60008160000b9050919050565b61441e81614408565b811461442957600080fd5b50565b60008135905061443b81614415565b92915050565b6000601f19601f8301169050919050565b7f4e487b7100000000000000000000000000000000000000000000000000000000600052604160045260246000fd5b61448a82614441565b810181811067ffffffffffffffff821117156144a9576144a8614452565b5b80604052505050565b60006144bc614097565b90506144c88282614481565b919050565b600067ffffffffffffffff8211156144e8576144e7614452565b5b602082029050602081019050919050565b600061450c614507846144cd565b6144b2565b9050808382526020820190506020840283018581111561452f5761452e614149565b5b835b818110156145585780614544888261412a565b845260208401935050602081019050614531565b5050509392505050565b600082601f8301126145775761457661413f565b5b81356145878482602086016144f9565b91505092915050565b600060ff82169050919050565b6145a681614590565b81146145b157600080fd5b50565b6000813590506145c38161459d565b92915050565b6000806000806000806000806000806101408b8d0312156145ed576145ec6140a1565b5b60006145fb8d828e0161412a565b9a5050602061460c8d828e0161412a565b995050604061461d8d828e0161442c565b985050606061462e8d828e0161442c565b975050608061463f8d828e0161442c565b96505060a08b013567ffffffffffffffff8111156146605761465f6140a6565b5b61466c8d828e01614562565b95505060c08b013567ffffffffffffffff81111561468d5761468c6140a6565b5b6146998d828e01614562565b94505060e06146aa8d828e0161412a565b9350506101006146bc8d828e016145b4565b9250506101206146ce8d828e0161412a565b9150509295989b9194979a5092959850565b60006020820190506146f5600083018461432c565b92915050565b600080fd5b600080fd5b6000819050919050565b61471881614705565b811461472357600080fd5b50565b6000813590506147358161470f565b92915050565b600067ffffffffffffffff82111561475657614755614452565b5b602082029050602081019050919050565b600061ffff82169050919050565b61477e81614767565b811461478957600080fd5b50565b60008135905061479b81614775565b92915050565b60006147b46147af8461473b565b6144b2565b905080838252602082019050602084028301858111156147d7576147d6614149565b5b835b8181101561480057806147ec888261478c565b8452602084019350506020810190506147d9565b5050509392505050565b600082601f83011261481f5761481e61413f565b5b813561482f8482602086016147a1565b91505092915050565b614841816143d2565b811461484c57600080fd5b50565b60008135905061485e81614838565b92915050565b600060a0828403121561487a576148796146fb565b5b61488460a06144b2565b9050600061489484828501614726565b60008301525060206148a8848285016140f4565b60208301525060406148bc848285016140f4565b604083015250606082013567ffffffffffffffff8111156148e0576148df614700565b5b6148ec8482850161480a565b60608301525060806149008482850161484f565b60808301525092915050565b60008060408385031215614923576149226140a1565b5b600083013567ffffffffffffffff811115614941576149406140a6565b5b61494d85828601614864565b925050602061495e8582860161412a565b9150509250929050565b60008083601f84011261497e5761497d61413f565b5b8235905067ffffffffffffffff81111561499b5761499a614144565b5b6020830191508360208202830111156149b7576149b6614149565b5b9250929050565b6000806000604084860312156149d7576149d66140a1565b5b600084013567ffffffffffffffff8111156149f5576149f46140a6565b5b614a0186828701614968565b93509350506020614a148682870161484f565b9150509250925092565b600080600060608486031215614a3757614a366140a1565b5b6000614a45868287016140f4565b9350506020614a56868287016140f4565b9250506040614a67868287016140f4565b9150509250925092565b600060208284031215614a8757614a866140a1565b5b600082013567ffffffffffffffff811115614aa557614aa46140a6565b5b614ab184828501614562565b91505092915050565b60008060408385031215614ad157614ad06140a1565b5b6000614adf858286016140f4565b9250506020614af08582860161412a565b9150509250929050565b600080600060408486031215614b1357614b126140a1565b5b6000614b21868287016140f4565b935050602084013567ffffffffffffffff811115614b4257614b416140a6565b5b614b4e86828701614968565b92509250509250925092565b600082825260208201905092915050565b7f43616e6e6f742073656e6420746f6b656e7320746f2056656e7565206469726560008201527f63746c7900000000000000000000000000000000000000000000000000000000602082015250565b6000614bc7602483614b5a565b9150614bd282614b6b565b604082019050919050565b60006020820190508181036000830152614bf681614bba565b9050919050565b7f496e697469616c697a61626c653a20636f6e747261637420697320616c72656160008201527f647920696e697469616c697a6564000000000000000000000000000000000000602082015250565b6000614c59602e83614b5a565b9150614c6482614bfd565b604082019050919050565b60006020820190508181036000830152614c8881614c4c565b9050919050565b7f4f776e61626c653a2063616c6c6572206973206e6f7420746865206f776e6572600082015250565b6000614cc5602083614b5a565b9150614cd082614c8f565b602082019050919050565b60006020820190508181036000830152614cf481614cb8565b9050919050565b7f4e487b7100000000000000000000000000000000000000000000000000000000600052603260045260246000fd5b7f5061757361626c653a2070617573656400000000000000000000000000000000600082015250565b6000614d60601083614b5a565b9150614d6b82614d2a565b602082019050919050565b60006020820190508181036000830152614d8f81614d53565b9050919050565b7f4f6e6c7920436c61696d2063616e2066756c66696c6c00000000000000000000600082015250565b6000614dcc601683614b5a565b9150614dd782614d96565b602082019050919050565b60006020820190508181036000830152614dfb81614dbf565b9050919050565b7f436c61696d2072657175657374206e6f7420666f756e64000000000000000000600082015250565b6000614e38601783614b5a565b9150614e4382614e02565b602082019050919050565b60006020820190508181036000830152614e6781614e2b565b9050919050565b6000604082019050614e8360008301856142d5565b614e9060208301846142d5565b9392505050565b7f4e487b7100000000000000000000000000000000000000000000000000000000600052601160045260246000fd5b6000614ed182614109565b9150614edc83614109565b925082821015614eef57614eee614e97565b5b828203905092915050565b7f4e487b7100000000000000000000000000000000000000000000000000000000600052603160045260246000fd5b6000614f3482614109565b91507fffffffffffffffffffffffffffffffffffffffffffffffffffffffffffffffff821415614f6757614f66614e97565b5b600182019050919050565b6000614f7d82614109565b9150614f8883614109565b9250827fffffffffffffffffffffffffffffffffffffffffffffffffffffffffffffffff03821115614fbd57614fbc614e97565b5b828201905092915050565b7f454f41206f6e6c79000000000000000000000000000000000000000000000000600082015250565b6000614ffe600883614b5a565b915061500982614fc8565b602082019050919050565b6000602082019050818103600083015261502d81614ff1565b9050919050565b7f496e76616c696420636c61696d20616d6f756e74000000000000000000000000600082015250565b600061506a601483614b5a565b915061507582615034565b602082019050919050565b600060208201905081810360008301526150998161505d565b9050919050565b7f496e76616c696420636c61696d20666565000000000000000000000000000000600082015250565b60006150d6601183614b5a565b91506150e1826150a0565b602082019050919050565b60006020820190508181036000830152615105816150c9565b9050919050565b600060208284031215615122576151216140a1565b5b60006151308482850161478c565b91505092915050565b7f4e6f7420796f757220746f6b656e000000000000000000000000000000000000600082015250565b600061516f600e83614b5a565b915061517a82615139565b602082019050919050565b6000602082019050818103600083015261519e81615162565b9050919050565b7f43616e6e6f7420636c61696d206265666f726520454f42000000000000000000600082015250565b60006151db601783614b5a565b91506151e6826151a5565b602082019050919050565b6000602082019050818103600083015261520a816151ce565b9050919050565b600082825260208201905092915050565b6000819050919050565b61523581614767565b82525050565b6000615247838361522c565b60208301905092915050565b6000615262602084018461478c565b905092915050565b6000602082019050919050565b60006152838385615211565b935061528e82615222565b8060005b858110156152c7576152a48284615253565b6152ae888261523b565b97506152b98361526a565b925050600181019050615292565b5085925050509392505050565b60006060820190506152e9600083018761432c565b81810360208301526152fc818587615277565b905061530b60408301846143de565b95945050505050565b6000815190506153238161470f565b92915050565b60006020828403121561533f5761533e6140a1565b5b600061534d84828501615314565b91505092915050565b6000819050919050565b600061537b61537661537184614767565b615356565b614109565b9050919050565b61538b81615360565b82525050565b60006020820190506153a66000830184615382565b92915050565b6000815190506153bb816140dd565b92915050565b6000602082840312156153d7576153d66140a1565b5b60006153e5848285016153ac565b91505092915050565b7f4e6f7420656c696769626c650000000000000000000000000000000000000000600082015250565b6000615424600c83614b5a565b915061542f826153ee565b602082019050919050565b6000602082019050818103600083015261545381615417565b9050919050565b7f4b69746368656e20737061636520726571756972656400000000000000000000600082015250565b6000615490601683614b5a565b915061549b8261545a565b602082019050919050565b600060208201905081810360008301526154bf81615483565b9050919050565b60006060820190506154db600083018661432c565b6154e8602083018561432c565b6154f56040830184615382565b949350505050565b7f4f776e61626c653a206e6577206f776e657220697320746865207a65726f206160008201527f6464726573730000000000000000000000000000000000000000000000000000602082015250565b6000615559602683614b5a565b9150615564826154fd565b604082019050919050565b600060208201905081810360008301526155888161554c565b9050919050565b7f496e697469616c697a61626c653a20636f6e7472616374206973206e6f74206960008201527f6e697469616c697a696e67000000000000000000000000000000000000000000602082015250565b60006155eb602b83614b5a565b91506155f68261558f565b604082019050919050565b6000602082019050818103600083015261561a816155de565b9050919050565b7f4f6e6c792044414f2063616e2065786563757465000000000000000000000000600082015250565b6000615657601483614b5a565b915061566282615621565b602082019050919050565b600060208201905081810360008301526156868161564a565b9050919050565b7f5061757361626c653a206e6f7420706175736564000000000000000000000000600082015250565b60006156c3601483614b5a565b91506156ce8261568d565b602082019050919050565b600060208201905081810360008301526156f2816156b6565b9050919050565b60008151905061570881614838565b92915050565b60008151905061571d8161459d565b92915050565b60008151905061573281614415565b92915050565b60008060008060008060008060008060006101608c8e03121561575e5761575d6140a1565b5b600061576c8e828f016156f9565b9b5050602061577d8e828f0161570e565b9a5050604061578e8e828f0161570e565b995050606061579f8e828f0161570e565b98505060806157b08e828f0161570e565b97505060a06157c18e828f0161570e565b96505060c06157d28e828f0161570e565b95505060e06157e38e828f0161570e565b9450506101006157f58e828f0161570e565b9350506101206158078e828f0161570e565b9250506101406158198e828f01615723565b9150509295989b509295989b9093969950565b600061583782614109565b9150600082141561584b5761584a614e97565b5b600182039050919050565b600082825260208201905092915050565b50565b6000615877600083615856565b915061588282615867565b600082019050919050565b60006080820190506158a2600083018661432c565b6158af602083018561432c565b6158bc60408301846142d5565b81810360608301526158cd8161586a565b9050949350505050565b6158e081614590565b82525050565b600081519050919050565b60005b8381101561590f5780820151818401526020810190506158f4565b8381111561591e576000848401525b50505050565b600061592f826158e6565b6159398185614b5a565b93506159498185602086016158f1565b61595281614441565b840191505092915050565b600060e082019050615972600083018a6142d5565b61597f60208301896142d5565b61598c60408301886143de565b61599960608301876158d7565b6159a660808301866158d7565b81810360a08301526159b88185615924565b90506159c760c08301846142d5565b98975050505050505050565b7f47656e30206f6e6c790000000000000000000000000000000000000000000000600082015250565b6000615a09600983614b5a565b9150615a14826159d3565b602082019050919050565b60006020820190508181036000830152615a38816159fc565b9050919050565b7f47656e31206c696d697420726561636865640000000000000000000000000000600082015250565b6000615a75601283614b5a565b9150615a8082615a3f565b602082019050919050565b60006020820190508181036000830152615aa481615a68565b9050919050565b6000604082019050615ac0600083018561432c565b615acd60208301846142d5565b9392505050565b6000606082019050615ae960008301866142d5565b615af6602083018561432c565b615b0360408301846142d5565b949350505050565b600081519050615b1a81614113565b92915050565b600060208284031215615b3657615b356140a1565b5b6000615b4484828501615b0b565b91505092915050565b615b5681614408565b82525050565b6000604082019050615b7160008301856142d5565b615b7e6020830184615b4d565b9392505050565b7f4e487b7100000000000000000000000000000000000000000000000000000000600052601260045260246000fd5b6000615bbf82614109565b9150615bca83614109565b925082615bda57615bd9615b85565b5b828206905092915050565b6000608082019050615bfa60008301876142d5565b615c076020830186615b4d565b615c146040830185615b4d565b615c2160608301846142d5565b95945050505050565b600080fd5b600067ffffffffffffffff821115615c4a57615c49614452565b5b615c5382614441565b9050602081019050919050565b6000615c73615c6e84615c2f565b6144b2565b905082815260208101848484011115615c8f57615c8e615c2a565b5b615c9a8482856158f1565b509392505050565b600082601f830112615cb757615cb661413f565b5b8151615cc7848260208601615c60565b91505092915050565b600080600060608486031215615ce957615ce86140a1565b5b6000615cf78682870161570e565b9350506020615d088682870161570e565b925050604084015167ffffffffffffffff811115615d2957615d286140a6565b5b615d3586828701615ca2565b9150509250925092565b6000819050919050565b6000615d5482615d3f565b9150615d5f83615d3f565b9250827f7fffffffffffffffffffffffffffffffffffffffffffffffffffffffffffffff0482116000841360008413161615615d9e57615d9d614e97565b5b817f80000000000000000000000000000000000000000000000000000000000000000583126000841260008413161615615ddb57615dda614e97565b5b827f80000000000000000000000000000000000000000000000000000000000000000582126000841360008412161615615e1857615e17614e97565b5b827f7fffffffffffffffffffffffffffffffffffffffffffffffffffffffffffffff0582126000841260008412161615615e5557615e54614e97565b5b828202905092915050565b6000615e6b82615d3f565b9150615e7683615d3f565b925082615e8657615e85615b85565b5b600160000383147f800000000000000000000000000000000000000000000000000000000000000083141615615ebf57615ebe614e97565b5b828205905092915050565b6000615ed582615d3f565b9150615ee083615d3f565b9250817f7fffffffffffffffffffffffffffffffffffffffffffffffffffffffffffffff03831360008312151615615f1b57615f1a614e97565b5b817f8000000000000000000000000000000000000000000000000000000000000000038312600083121615615f5357615f52614e97565b5b82820190509291505056fea2646970667358221220903d5917e62358a5dd9ed282de0ba0c6d7d9f8a24cb29d3d69dd59fcf79b606f64736f6c634300080a0033",
  "immutableReferences": {},
  "source": "// SPDX-License-Identifier: MIT\n\npragma solidity ^0.8.0;\n\nimport \"./VenueV2.sol\";\nimport \"./GourmetFood.sol\";\n\ncontract TripleFiveClub is VenueV2 {\n  event StakedGen1(uint256 value);\n\n  uint256[] public stakedGen1; // Maps generation (0 | 1) to array of Character IDs\n  int8 boostLevel;\n  uint256 entranceFeeGen0;\n  uint256 entranceFeeGen1;\n  uint256 weekModuloStart;\n  uint256 weekModuloEnd;\n  uint256 maxConcurrentGen1;\n  GourmetFood gourmetFood; // Reference to the $GFOOD contract\n\n  function initialize(\n    address _character,\n    address _claim,\n    address _gourmetFood\n  ) external initializer {\n    __Ownable_init();\n    __Pausable_init();\n\n    character = CharacterV2(_character);\n    claim = IClaim(_claim);\n    gourmetFood = GourmetFood(_gourmetFood);\n  }\n\n  /**\n   * Allows DAO to update game parameters\n   */\n  function configure(\n    uint256 _vestingPeriod,\n    uint256 _accrualPeriod,\n    int8 _dailyFreakRate,\n    int8 _dailyBodyMassRate,\n    int8 _boostLevel,\n    uint256[] memory _entranceFees,\n    uint256[] memory _weekModulo,\n    uint256 _maxConcurrentGen1,\n    uint8 _maxClaimsPerTx,\n    uint256 _claimFee\n  ) external onlyOwner {\n    vestingPeriod = _vestingPeriod;\n    accrualPeriod = _accrualPeriod;\n    dailyFreakRate = _dailyFreakRate;\n    dailyBodyMassRate = _dailyBodyMassRate;\n    boostLevel = _boostLevel;\n    entranceFeeGen0 = _entranceFees[0];\n    entranceFeeGen1 = _entranceFees[1];\n    weekModuloStart = _weekModulo[0];\n    weekModuloEnd = _weekModulo[1];\n    maxConcurrentGen1 = _maxConcurrentGen1;\n    maxClaimsPerTx = _maxClaimsPerTx;\n    claimFee = _claimFee;\n  }\n\n  /**\n   * Checks if the token is Generation 0\n   * @param tokenId - The ID of the token to check\n   * @return true if it's a Gen0 token\n   */\n  function _isGen0(uint256 tokenId) internal view returns(bool) {\n    return tokenId <= character.getGen0Tokens();\n  }\n\n  /**\n   * Checks if we are within an open door period\n   * @return true during open door periods\n   */\n  function _isOpenForPublic() internal view returns(bool) {\n    uint256 weekModulo = block.timestamp % 604800;\n    return weekModulo >= weekModuloStart && weekModulo < weekModuloEnd; // All UTC period long...\n  }\n\n  /**\n   * Find and remove the token ID from the stakedGen1 array\n   * @param tokenId - The ID of the token\n   */\n  function _removeFromGen1(uint256 tokenId) internal {\n    for (uint i = 0; i < stakedGen1.length; i++) {\n      if (stakedGen1[i] == tokenId) {\n        stakedGen1[i] = stakedGen1[stakedGen1.length - 1];\n        stakedGen1.pop();\n      }\n    }\n    emit StakedGen1(stakedGen1.length);\n  }\n\n  /**\n   * Make room for other Gen1s by ejecting all Gen1 tokens that have reached their vesting period\n   * @param ids - The IDs of the tokens in question\n   * @param overrideVesting - If true, the vesting period is disregarded (used by DAO)\n   *\n   */\n  function _ejectIfVested(uint256[] memory ids, bool overrideVesting) internal {\n    for (uint i = 0; i < ids.length; i++) {\n      Stake memory stake = isChef(ids[i]) ? chefs[ids[i]] : rats[ids[i]];\n      if (block.timestamp - stake.timestamp >= vestingPeriod || overrideVesting) {\n        if (isChef(ids[i])) {\n          _claimChef(ids[i], stake.owner, true, false, 0);\n        } else {\n          _claimRat(ids[i], stake.owner, true, false, 0);\n        }\n        _removeFromGen1(ids[i]);\n      }\n    }\n  }\n\n  /**\n   * DAO function to force-unstake all tokens and send them back to their respective owners\n   * @param ids - The IDs of the tokens to force-unstake\n   */\n  function multiEject(uint256[] memory ids) external onlyDao {\n    _ejectIfVested(ids, true);\n  }\n\n  /**\n   * Return the amount of Gen1 tokens in staking\n   * @return Number of Gen1 tokens staked\n   */\n  function getStakedGen1() external view returns(uint256) {\n    return stakedGen1.length;\n  }\n\n  /**\n   * Handle Gen1 restrictions & entry fee token burn\n   * @param tokenId - The ID of the Character\n   */\n  function _handleGen1(uint256 tokenId) internal {\n    _ejectIfVested(stakedGen1, false);\n    if (!_isGen0(tokenId)) {\n      require(_isOpenForPublic(), \"Gen0 only\");\n      require(stakedGen1.length < maxConcurrentGen1, \"Gen1 limit reached\");\n      stakedGen1.push(tokenId);\n      emit StakedGen1(stakedGen1.length);\n    }\n    gourmetFood.burn(_msgSender(), _isGen0(tokenId) ? entranceFeeGen0 : entranceFeeGen1);\n  }\n\n  /**\n   * Override Venue._stakeChef() to handle Gen1 logic & populate stakedGen1[]\n   */\n  function _stakeChef(address account, uint256 tokenId) internal override whenNotPaused {\n    _handleGen1(tokenId);\n    return super._stakeChef(account, tokenId);\n  }\n\n  /**\n   * Override Venue._stakeRat() to handle Gen1 logic & populate stakedGen1[]\n   */\n  function _stakeRat(address account, uint256 tokenId) internal override whenNotPaused {\n    _handleGen1(tokenId);\n    return super._stakeRat(account, tokenId);\n  }\n\n  /**\n   * Override Venue._claimChef() to clean up stakedGen1[]\n   */\n  function _claimChef(uint256 tokenId, address sender, bool unstake, bool noEarnings, uint256 randomVal) internal override returns (uint256 owed) {\n    _removeFromGen1(tokenId);\n    return super._claimChef(tokenId, sender, unstake, noEarnings, randomVal);\n  }\n\n  /**\n   * Override Venue._claimRat() to clean up stakedGen1[]\n   */\n  function _claimRat(uint256 tokenId, address sender, bool unstake, bool noEarnings, uint256 randomVal) internal override returns (uint256 owed) {\n    _removeFromGen1(tokenId);\n    return super._claimRat(tokenId, sender, unstake, noEarnings, randomVal);\n  }\n\n  /**\n   * Override Venue._updateCharacter() to update the Character's boost level\n   */\n  function _updateCharacter(uint256 tokenId, uint256 randomVal) internal override returns(uint8 efficiency, uint8 tolerance, string memory eventName) {\n    (, , , , , , , , , , int8 boost) = character.tokenTraits(tokenId);\n    if (tokenId <= character.getGen0Tokens() && boost != boostLevel) {\n      character.updateBoost(tokenId, boostLevel);\n    }\n    return super._updateCharacter(tokenId, randomVal);\n  }\n}\n",
  "sourcePath": "/Users/chris/workspace/ratalert/ratalert-contracts/contracts/TripleFiveClub.sol",
  "compiler": {
    "name": "solc",
    "version": "0.8.10+commit.fc410830.Emscripten.clang"
  },
  "schemaVersion": "3.4.7",
  "updatedAt": "2022-06-28T19:38:14.856Z",
  "networkType": "ethereum",
  "devdoc": {
    "kind": "dev",
    "methods": {
      "claimMany(uint16[],bool)": {
        "params": {
          "tokenIds": "- The IDs of the tokens in question",
          "unstake": "- Whether or not to unstake the given tokens"
        }
      },
      "fulfillClaimMany((bytes32,address,address,uint16[],bool),uint256)": {
        "params": {
          "randomness": "- Random value created by VRF",
          "v": "- VRF struct for the corresponding request"
        }
      },
      "getChefsStaked(address)": {
        "params": {
          "account": "- User wallet address"
        },
        "returns": {
          "_0": "Number of chefs in staking"
        }
      },
      "getStakedGen1()": {
        "returns": {
          "_0": "Number of Gen1 tokens staked"
        }
      },
      "multiEject(uint256[])": {
        "params": {
          "ids": "- The IDs of the tokens to force-unstake"
        }
      },
      "owner()": {
        "details": "Returns the address of the current owner."
      },
      "paused()": {
        "details": "Returns true if the contract is paused, and false otherwise."
      },
      "renounceOwnership()": {
        "details": "Leaves the contract without owner. It will not be possible to call `onlyOwner` functions anymore. Can only be called by the current owner. NOTE: Renouncing ownership will leave the contract without an owner, thereby removing any functionality that is only available to the owner."
      },
      "stakeMany(address,uint16[])": {
        "params": {
          "account": "- User wallet address",
          "tokenIds": "- The IDs of the Chefs & Rats to stake"
        }
      },
      "transferOwnership(address)": {
        "details": "Transfers ownership of the contract to a new account (`newOwner`). Can only be called by the current owner."
      }
    },
    "version": 1
  },
  "userdoc": {
    "kind": "user",
    "methods": {
      "claimMany(uint16[],bool)": {
        "notice": "ChainLink VRF request: Claims food token earnings, level-ups and optionally unstake characters"
      },
      "configure(uint256,uint256,int8,int8,int8,uint256[],uint256[],uint256,uint8,uint256)": {
        "notice": "Allows DAO to update game parameters"
      },
      "fulfillClaimMany((bytes32,address,address,uint16[],bool),uint256)": {
        "notice": "Callback for claimMany(), called by Claim.fulfillRandomness()"
      },
      "getChefsStaked(address)": {
        "notice": "Get the amount of chefs the given account has in staking"
      },
      "getStakedGen1()": {
        "notice": "Return the amount of Gen1 tokens in staking"
      },
      "multiEject(uint256[])": {
        "notice": "DAO function to force-unstake all tokens and send them back to their respective owners"
      },
      "onERC721Received(address,address,uint256,bytes)": {
        "notice": "IERC721ReceiverUpgradeable interface: We do not accept tokens sent directly"
      },
      "stakeMany(address,uint16[])": {
        "notice": "Adds Characters to staking"
      },
      "withdrawPayments()": {
        "notice": "Allows DAO to withdraw funds"
      }
    },
    "version": 1
  }
}