{
  "contractName": "TripleFiveClub",
  "abi": [
    {
      "anonymous": false,
      "inputs": [
        {
          "indexed": false,
          "internalType": "uint256",
          "name": "tokenId",
          "type": "uint256"
        },
        {
          "indexed": false,
          "internalType": "uint256",
          "name": "earned",
          "type": "uint256"
        },
        {
          "indexed": false,
          "internalType": "bool",
          "name": "unstaked",
          "type": "bool"
        },
        {
          "indexed": false,
          "internalType": "uint8",
          "name": "skill",
          "type": "uint8"
        },
        {
          "indexed": false,
          "internalType": "uint8",
          "name": "freak",
          "type": "uint8"
        },
        {
          "indexed": false,
          "internalType": "string",
          "name": "eventName",
          "type": "string"
        },
        {
          "indexed": false,
          "internalType": "uint256",
          "name": "foodTokensPerRat",
          "type": "uint256"
        }
      ],
      "name": "ChefClaimed",
      "type": "event"
    },
    {
      "anonymous": false,
      "inputs": [
        {
          "indexed": true,
          "internalType": "address",
          "name": "previousOwner",
          "type": "address"
        },
        {
          "indexed": true,
          "internalType": "address",
          "name": "newOwner",
          "type": "address"
        }
      ],
      "name": "OwnershipTransferred",
      "type": "event"
    },
    {
      "anonymous": false,
      "inputs": [
        {
          "indexed": false,
          "internalType": "address",
          "name": "account",
          "type": "address"
        }
      ],
      "name": "Paused",
      "type": "event"
    },
    {
      "anonymous": false,
      "inputs": [
        {
          "indexed": false,
          "internalType": "uint256",
          "name": "tokenId",
          "type": "uint256"
        },
        {
          "indexed": false,
          "internalType": "uint256",
          "name": "earned",
          "type": "uint256"
        },
        {
          "indexed": false,
          "internalType": "bool",
          "name": "unstaked",
          "type": "bool"
        },
        {
          "indexed": false,
          "internalType": "uint8",
          "name": "intelligence",
          "type": "uint8"
        },
        {
          "indexed": false,
          "internalType": "uint8",
          "name": "bodyMass",
          "type": "uint8"
        },
        {
          "indexed": false,
          "internalType": "string",
          "name": "eventName",
          "type": "string"
        },
        {
          "indexed": false,
          "internalType": "uint256",
          "name": "foodTokensPerRat",
          "type": "uint256"
        }
      ],
      "name": "RatClaimed",
      "type": "event"
    },
    {
      "anonymous": false,
      "inputs": [
        {
          "indexed": false,
          "internalType": "uint256",
          "name": "value",
          "type": "uint256"
        }
      ],
      "name": "StakedGen1",
      "type": "event"
    },
    {
      "anonymous": false,
      "inputs": [
        {
          "indexed": false,
          "internalType": "uint256",
          "name": "tokenId",
          "type": "uint256"
        },
        {
          "indexed": false,
          "internalType": "address",
          "name": "owner",
          "type": "address"
        },
        {
          "indexed": false,
          "internalType": "uint256",
          "name": "value",
          "type": "uint256"
        }
      ],
      "name": "TokenStaked",
      "type": "event"
    },
    {
      "anonymous": false,
      "inputs": [
        {
          "indexed": false,
          "internalType": "address",
          "name": "account",
          "type": "address"
        }
      ],
      "name": "Unpaused",
      "type": "event"
    },
    {
      "inputs": [
        {
          "internalType": "uint256",
          "name": "",
          "type": "uint256"
        }
      ],
      "name": "chefs",
      "outputs": [
        {
          "internalType": "uint256",
          "name": "tokenId",
          "type": "uint256"
        },
        {
          "internalType": "address",
          "name": "owner",
          "type": "address"
        },
        {
          "internalType": "uint80",
          "name": "value",
          "type": "uint80"
        },
        {
          "internalType": "uint80",
          "name": "timestamp",
          "type": "uint80"
        }
      ],
      "stateMutability": "view",
      "type": "function",
      "constant": true
    },
    {
      "inputs": [
        {
          "internalType": "uint16[]",
          "name": "tokenIds",
          "type": "uint16[]"
        },
        {
          "internalType": "bool",
          "name": "unstake",
          "type": "bool"
        }
      ],
      "name": "claimMany",
      "outputs": [],
      "stateMutability": "payable",
      "type": "function",
      "payable": true
    },
    {
      "inputs": [],
      "name": "foodTokensPerRat",
      "outputs": [
        {
          "internalType": "uint256",
          "name": "",
          "type": "uint256"
        }
      ],
      "stateMutability": "view",
      "type": "function",
      "constant": true
    },
    {
      "inputs": [
        {
          "components": [
            {
              "internalType": "bytes32",
              "name": "requestId",
              "type": "bytes32"
            },
            {
              "internalType": "address",
              "name": "venue",
              "type": "address"
            },
            {
              "internalType": "address",
              "name": "sender",
              "type": "address"
            },
            {
              "internalType": "uint16[]",
              "name": "tokenIds",
              "type": "uint16[]"
            },
            {
              "internalType": "bool",
              "name": "unstake",
              "type": "bool"
            }
          ],
          "internalType": "struct IClaim.VRFStruct",
          "name": "v",
          "type": "tuple"
        },
        {
          "internalType": "uint256",
          "name": "randomness",
          "type": "uint256"
        }
      ],
      "name": "fulfillClaimMany",
      "outputs": [],
      "stateMutability": "nonpayable",
      "type": "function"
    },
    {
      "inputs": [
        {
          "internalType": "address",
          "name": "account",
          "type": "address"
        }
      ],
      "name": "getChefsStaked",
      "outputs": [
        {
          "internalType": "uint256",
          "name": "",
          "type": "uint256"
        }
      ],
      "stateMutability": "view",
      "type": "function",
      "constant": true
    },
    {
      "inputs": [
        {
          "internalType": "address",
          "name": "",
          "type": "address"
        },
        {
          "internalType": "address",
          "name": "from",
          "type": "address"
        },
        {
          "internalType": "uint256",
          "name": "",
          "type": "uint256"
        },
        {
          "internalType": "bytes",
          "name": "",
          "type": "bytes"
        }
      ],
      "name": "onERC721Received",
      "outputs": [
        {
          "internalType": "bytes4",
          "name": "",
          "type": "bytes4"
        }
      ],
      "stateMutability": "pure",
      "type": "function",
      "constant": true
    },
    {
      "inputs": [],
      "name": "owner",
      "outputs": [
        {
          "internalType": "address",
          "name": "",
          "type": "address"
        }
      ],
      "stateMutability": "view",
      "type": "function",
      "constant": true
    },
    {
      "inputs": [],
      "name": "pause",
      "outputs": [],
      "stateMutability": "nonpayable",
      "type": "function"
    },
    {
      "inputs": [],
      "name": "paused",
      "outputs": [
        {
          "internalType": "bool",
          "name": "",
          "type": "bool"
        }
      ],
      "stateMutability": "view",
      "type": "function",
      "constant": true
    },
    {
      "inputs": [
        {
          "internalType": "uint256",
          "name": "",
          "type": "uint256"
        }
      ],
      "name": "rats",
      "outputs": [
        {
          "internalType": "uint256",
          "name": "tokenId",
          "type": "uint256"
        },
        {
          "internalType": "address",
          "name": "owner",
          "type": "address"
        },
        {
          "internalType": "uint80",
          "name": "value",
          "type": "uint80"
        },
        {
          "internalType": "uint80",
          "name": "timestamp",
          "type": "uint80"
        }
      ],
      "stateMutability": "view",
      "type": "function",
      "constant": true
    },
    {
      "inputs": [],
      "name": "renounceOwnership",
      "outputs": [],
      "stateMutability": "nonpayable",
      "type": "function"
    },
    {
      "inputs": [
        {
          "internalType": "address",
          "name": "_dao",
          "type": "address"
        }
      ],
      "name": "setDao",
      "outputs": [],
      "stateMutability": "nonpayable",
      "type": "function"
    },
    {
      "inputs": [
        {
          "internalType": "address",
          "name": "account",
          "type": "address"
        },
        {
          "internalType": "uint16[]",
          "name": "tokenIds",
          "type": "uint16[]"
        }
      ],
      "name": "stakeMany",
      "outputs": [],
      "stateMutability": "nonpayable",
      "type": "function"
    },
    {
      "inputs": [
        {
          "internalType": "uint256",
          "name": "",
          "type": "uint256"
        }
      ],
      "name": "stakedGen1",
      "outputs": [
        {
          "internalType": "uint256",
          "name": "",
          "type": "uint256"
        }
      ],
      "stateMutability": "view",
      "type": "function",
      "constant": true
    },
    {
      "inputs": [
        {
          "internalType": "address",
          "name": "",
          "type": "address"
        },
        {
          "internalType": "uint256",
          "name": "",
          "type": "uint256"
        }
      ],
      "name": "stakers",
      "outputs": [
        {
          "internalType": "uint256",
          "name": "",
          "type": "uint256"
        }
      ],
      "stateMutability": "view",
      "type": "function",
      "constant": true
    },
    {
      "inputs": [],
      "name": "totalChefsStaked",
      "outputs": [
        {
          "internalType": "uint256",
          "name": "",
          "type": "uint256"
        }
      ],
      "stateMutability": "view",
      "type": "function",
      "constant": true
    },
    {
      "inputs": [],
      "name": "totalRatsStaked",
      "outputs": [
        {
          "internalType": "uint256",
          "name": "",
          "type": "uint256"
        }
      ],
      "stateMutability": "view",
      "type": "function",
      "constant": true
    },
    {
      "inputs": [
        {
          "internalType": "address",
          "name": "newOwner",
          "type": "address"
        }
      ],
      "name": "transferOwnership",
      "outputs": [],
      "stateMutability": "nonpayable",
      "type": "function"
    },
    {
      "inputs": [],
      "name": "unpause",
      "outputs": [],
      "stateMutability": "nonpayable",
      "type": "function"
    },
    {
      "inputs": [],
      "name": "withdrawPayments",
      "outputs": [],
      "stateMutability": "nonpayable",
      "type": "function"
    },
    {
      "inputs": [
        {
          "internalType": "address",
          "name": "_character",
          "type": "address"
        },
        {
          "internalType": "address",
          "name": "_claim",
          "type": "address"
        },
        {
          "internalType": "uint256",
          "name": "_accrualPeriod",
          "type": "uint256"
        }
      ],
      "name": "initialize",
      "outputs": [],
      "stateMutability": "nonpayable",
      "type": "function"
    },
    {
      "inputs": [
        {
          "internalType": "address",
          "name": "_character",
          "type": "address"
        },
        {
          "internalType": "address",
          "name": "_claim",
          "type": "address"
        },
        {
          "internalType": "address",
          "name": "_gourmetFood",
          "type": "address"
        }
      ],
      "name": "initialize",
      "outputs": [],
      "stateMutability": "nonpayable",
      "type": "function"
    },
    {
      "inputs": [
        {
          "internalType": "uint256",
          "name": "_vestingPeriod",
          "type": "uint256"
        },
        {
          "internalType": "uint256",
          "name": "_accrualPeriod",
          "type": "uint256"
        },
        {
          "internalType": "int8",
          "name": "_dailyFreakRate",
          "type": "int8"
        },
        {
          "internalType": "int8",
          "name": "_dailyBodyMassRate",
          "type": "int8"
        },
        {
          "internalType": "int8",
          "name": "_boostLevel",
          "type": "int8"
        },
        {
          "internalType": "uint256[]",
          "name": "_entranceFees",
          "type": "uint256[]"
        },
        {
          "internalType": "uint256[]",
          "name": "_weekModulo",
          "type": "uint256[]"
        },
        {
          "internalType": "uint256",
          "name": "_maxConcurrentGen1",
          "type": "uint256"
        },
        {
          "internalType": "uint8",
          "name": "_maxClaimsPerTx",
          "type": "uint8"
        },
        {
          "internalType": "uint256",
          "name": "_claimFee",
          "type": "uint256"
        }
      ],
      "name": "configure",
      "outputs": [],
      "stateMutability": "nonpayable",
      "type": "function"
    },
    {
      "inputs": [],
      "name": "isOpenForPublic",
      "outputs": [
        {
          "internalType": "bool",
          "name": "",
          "type": "bool"
        }
      ],
      "stateMutability": "view",
      "type": "function",
      "constant": true
    },
    {
      "inputs": [
        {
          "internalType": "uint256[]",
          "name": "ids",
          "type": "uint256[]"
        }
      ],
      "name": "multiEject",
      "outputs": [],
      "stateMutability": "nonpayable",
      "type": "function"
    },
    {
      "inputs": [],
      "name": "getStakedGen1",
      "outputs": [
        {
          "internalType": "uint256",
          "name": "",
          "type": "uint256"
        }
      ],
      "stateMutability": "view",
      "type": "function",
      "constant": true
    }
  ],
  "bytecode": "0x608060405234801561001057600080fd5b50615fe880620000216000396000f3fe6080604052600436106101815760003560e01c80638456cb59116100d1578063c0c53b8b1161008a578063dbdc1f6b11610064578063dbdc1f6b1461052d578063f266674614610556578063f2fde38b14610581578063f52dd0b5146105aa57610181565b8063c0c53b8b1461049e578063c4b7eb70146104c7578063c8b6cbf7146104f057610181565b80638456cb59146103c35780638980e5be146103da5780638a82279e146104035780638da5cb5b1461042e578063922a180214610459578063a7a102901461048257610181565b80634c4913ec1161013e5780636103d70b116101185780636103d70b146103415780636637b88214610358578063715018a614610381578063727d508a1461039857610181565b80634c4913ec146102995780634d1c61af146102d65780635c975abb1461031657610181565b8063150b7a02146101865780631794bb3c146101c35780632535a77f146101ec57806335ec066e146102175780633f4ba83a14610257578063499f80101461026e575b600080fd5b34801561019257600080fd5b506101ad60048036038101906101a891906141f8565b6105e7565b6040516101ba91906142bb565b60405180910390f35b3480156101cf57600080fd5b506101ea60048036038101906101e591906142d6565b61066a565b005b3480156101f857600080fd5b50610201610866565b60405161020e9190614338565b60405180910390f35b34801561022357600080fd5b5061023e60048036038101906102399190614353565b61086c565b60405161024e94939291906143b4565b60405180910390f35b34801561026357600080fd5b5061026c6108e8565b005b34801561027a57600080fd5b506102836108fa565b6040516102909190614338565b60405180910390f35b3480156102a557600080fd5b506102c060048036038101906102bb91906143f9565b610900565b6040516102cd9190614338565b60405180910390f35b3480156102e257600080fd5b506102fd60048036038101906102f89190614353565b61094c565b60405161030d94939291906143b4565b60405180910390f35b34801561032257600080fd5b5061032b6109c8565b6040516103389190614441565b60405180910390f35b34801561034d57600080fd5b506103566109df565b005b34801561036457600080fd5b5061037f600480360381019061037a91906143f9565b610a52565b005b34801561038d57600080fd5b50610396610b12565b005b3480156103a457600080fd5b506103ad610b9a565b6040516103ba9190614441565b60405180910390f35b3480156103cf57600080fd5b506103d8610bc7565b005b3480156103e657600080fd5b5061040160048036038101906103fc919061461d565b610bd9565b005b34801561040f57600080fd5b50610418610d7a565b6040516104259190614338565b60405180910390f35b34801561043a57600080fd5b50610443610d87565b6040516104509190614734565b60405180910390f35b34801561046557600080fd5b50610480600480360381019061047b9190614960565b610db1565b005b61049c60048036038101906104979190614a12565b611398565b005b3480156104aa57600080fd5b506104c560048036038101906104c09190614a72565b61185e565b005b3480156104d357600080fd5b506104ee60048036038101906104e99190614ac5565b611a18565b005b3480156104fc57600080fd5b5061051760048036038101906105129190614b0e565b611a2e565b6040516105249190614338565b60405180910390f35b34801561053957600080fd5b50610554600480360381019061054f9190614b4e565b611a5f565b005b34801561056257600080fd5b5061056b6120de565b6040516105789190614338565b60405180910390f35b34801561058d57600080fd5b506105a860048036038101906105a391906143f9565b6120e4565b005b3480156105b657600080fd5b506105d160048036038101906105cc9190614353565b6121dc565b6040516105de9190614338565b60405180910390f35b60008073ffffffffffffffffffffffffffffffffffffffff168573ffffffffffffffffffffffffffffffffffffffff1614610657576040517f08c379a000000000000000000000000000000000000000000000000000000000815260040161064e90614c31565b60405180910390fd5b63150b7a0260e01b905095945050505050565b600060019054906101000a900460ff166106925760008054906101000a900460ff161561069b565b61069a612200565b5b6106da576040517f08c379a00000000000000000000000000000000000000000000000000000000081526004016106d190614cc3565b60405180910390fd5b60008060019054906101000a900460ff16159050801561072a576001600060016101000a81548160ff02191690831515021790555060016000806101000a81548160ff0219169083151502179055505b610732612211565b61073a61226a565b83609860006101000a81548173ffffffffffffffffffffffffffffffffffffffff021916908373ffffffffffffffffffffffffffffffffffffffff16021790555082609960006101000a81548173ffffffffffffffffffffffffffffffffffffffff021916908373ffffffffffffffffffffffffffffffffffffffff1602179055508160a2819055506000609e60006101000a81548160ff021916908360000b60ff1602179055506000609e60016101000a81548160ff021916908360000b60ff1602179055506000609e60026101000a81548160ff021916908360000b60ff1602179055506000609e60036101000a81548160ff021916908360000b60ff16021790555080156108605760008060016101000a81548160ff0219169083151502179055505b50505050565b60a35481565b609b6020528060005260406000206000915090508060000154908060010160009054906101000a900473ffffffffffffffffffffffffffffffffffffffff16908060010160149054906101000a900469ffffffffffffffffffff16908060020160009054906101000a900469ffffffffffffffffffff16905084565b6108f06122c3565b6108f8612355565b565b60a05481565b6000609c60008373ffffffffffffffffffffffffffffffffffffffff1673ffffffffffffffffffffffffffffffffffffffff168152602001908152602001600020805490509050919050565b609a6020528060005260406000206000915090508060000154908060010160009054906101000a900473ffffffffffffffffffffffffffffffffffffffff16908060010160149054906101000a900469ffffffffffffffffffff16908060020160009054906101000a900469ffffffffffffffffffff16905084565b6000603360009054906101000a900460ff16905090565b6109e76122c3565b609760009054906101000a900473ffffffffffffffffffffffffffffffffffffffff1673ffffffffffffffffffffffffffffffffffffffff166108fc479081150290604051600060405180830381858888f19350505050158015610a4f573d6000803e3d6000fd5b50565b610a5a6123f7565b73ffffffffffffffffffffffffffffffffffffffff16610a78610d87565b73ffffffffffffffffffffffffffffffffffffffff1614610ace576040517f08c379a0000000000000000000000000000000000000000000000000000000008152600401610ac590614d2f565b60405180910390fd5b80609760006101000a81548173ffffffffffffffffffffffffffffffffffffffff021916908373ffffffffffffffffffffffffffffffffffffffff16021790555050565b610b1a6123f7565b73ffffffffffffffffffffffffffffffffffffffff16610b38610d87565b73ffffffffffffffffffffffffffffffffffffffff1614610b8e576040517f08c379a0000000000000000000000000000000000000000000000000000000008152600401610b8590614d2f565b60405180910390fd5b610b9860006123ff565b565b60008062093a8042610bac9190614d7e565b905060aa548110158015610bc1575060ab5481105b91505090565b610bcf6122c3565b610bd76124c5565b565b610be16123f7565b73ffffffffffffffffffffffffffffffffffffffff16610bff610d87565b73ffffffffffffffffffffffffffffffffffffffff1614610c55576040517f08c379a0000000000000000000000000000000000000000000000000000000008152600401610c4c90614d2f565b60405180910390fd5b8960a1819055508860a28190555087609e60016101000a81548160ff021916908360000b60ff16021790555086609e60036101000a81548160ff021916908360000b60ff1602179055508560a760006101000a81548160ff021916908360000b60ff16021790555084600081518110610cd157610cd0614daf565b5b602002602001015160a88190555084600181518110610cf357610cf2614daf565b5b602002602001015160a98190555083600081518110610d1557610d14614daf565b5b602002602001015160aa8190555083600181518110610d3757610d36614daf565b5b602002602001015160ab819055508260ac819055508160a460006101000a81548160ff021916908360ff1602179055508060a58190555050505050505050505050565b600060a680549050905090565b6000606560009054906101000a900473ffffffffffffffffffffffffffffffffffffffff16905090565b610db96109c8565b15610df9576040517f08c379a0000000000000000000000000000000000000000000000000000000008152600401610df090614e2a565b60405180910390fd5b609960009054906101000a900473ffffffffffffffffffffffffffffffffffffffff1673ffffffffffffffffffffffffffffffffffffffff163373ffffffffffffffffffffffffffffffffffffffff1614610e89576040517f08c379a0000000000000000000000000000000000000000000000000000000008152600401610e8090614e96565b60405180910390fd5b6000609d6000846000015181526020019081526020016000208054905011610ee6576040517f08c379a0000000000000000000000000000000000000000000000000000000008152600401610edd90614f02565b60405180910390fd5b6000609d600084600001518152602001908152602001600020805480602002602001604051908101604052809291908181526020018280548015610f7157602002820191906000526020600020906000905b82829054906101000a900461ffff1661ffff1681526020019060020190602082600101049283019260010382029150808411610f385790505b50505050509050609d6000846000015181526020019081526020016000206000610f9b9190613ff8565b6000805b82518110156113795760008482604051602001610fbd929190614f22565b6040516020818303038152906040528051906020012060001c9050610fff848381518110610fee57610fed614daf565b5b602002602001015161ffff16612568565b156113235760005b609c6000886040015173ffffffffffffffffffffffffffffffffffffffff1673ffffffffffffffffffffffffffffffffffffffff1681526020019081526020016000208054905081101561126c5784838151811061106857611067614daf565b5b602002602001015161ffff16609c6000896040015173ffffffffffffffffffffffffffffffffffffffff1673ffffffffffffffffffffffffffffffffffffffff16815260200190815260200160002082815481106110c9576110c8614daf565b5b9060005260206000200154141561125957609c6000886040015173ffffffffffffffffffffffffffffffffffffffff1673ffffffffffffffffffffffffffffffffffffffff1681526020019081526020016000206001609c60008a6040015173ffffffffffffffffffffffffffffffffffffffff1673ffffffffffffffffffffffffffffffffffffffff168152602001908152602001600020805490506111709190614f7a565b8154811061118157611180614daf565b5b9060005260206000200154609c6000896040015173ffffffffffffffffffffffffffffffffffffffff1673ffffffffffffffffffffffffffffffffffffffff16815260200190815260200160002082815481106111e1576111e0614daf565b5b9060005260206000200181905550609c6000886040015173ffffffffffffffffffffffffffffffffffffffff1673ffffffffffffffffffffffffffffffffffffffff16815260200190815260200160002080548061124257611241614fae565b5b600190038181906000526020600020016000905590555b808061126490614fdd565b915050611007565b5060006112c38760400151609c60008a6040015173ffffffffffffffffffffffffffffffffffffffff1673ffffffffffffffffffffffffffffffffffffffff16815260200190815260200160002080549050612647565b905060028114156112dc576112db8760400151612653565b5b6113108584815181106112f2576112f1614daf565b5b602002602001015161ffff1688604001518960800151600086612656565b8461131b9190615026565b935050611365565b61135784838151811061133957611338614daf565b5b602002602001015161ffff1687604001518860800151600085612679565b836113629190615026565b92505b50808061137190614fdd565b915050610f9f565b5060008111156113925761139184604001518261269c565b5b50505050565b6113a06109c8565b156113e0576040517f08c379a00000000000000000000000000000000000000000000000000000000081526004016113d790614e2a565b60405180910390fd5b6113e86123f7565b73ffffffffffffffffffffffffffffffffffffffff163273ffffffffffffffffffffffffffffffffffffffff1614611455576040517f08c379a000000000000000000000000000000000000000000000000000000000815260040161144c906150c8565b60405180910390fd5b60a460009054906101000a900460ff1660ff168383905011156114ad576040517f08c379a00000000000000000000000000000000000000000000000000000000081526004016114a490615134565b60405180910390fd5b60a55434146114f1576040517f08c379a00000000000000000000000000000000000000000000000000000000081526004016114e8906151a0565b60405180910390fd5b60005b8383905081101561178557600061153585858481811061151757611516614daf565b5b905060200201602081019061152c91906151c0565b61ffff16612568565b61157c57609b60008686858181106115505761154f614daf565b5b905060200201602081019061156591906151c0565b61ffff1681526020019081526020016000206115bb565b609a600086868581811061159357611592614daf565b5b90506020020160208101906115a891906151c0565b61ffff1681526020019081526020016000205b604051806080016040529081600082015481526020016001820160009054906101000a900473ffffffffffffffffffffffffffffffffffffffff1673ffffffffffffffffffffffffffffffffffffffff1673ffffffffffffffffffffffffffffffffffffffff1681526020016001820160149054906101000a900469ffffffffffffffffffff1669ffffffffffffffffffff1669ffffffffffffffffffff1681526020016002820160009054906101000a900469ffffffffffffffffffff1669ffffffffffffffffffff1669ffffffffffffffffffff168152505090506116a06123f7565b73ffffffffffffffffffffffffffffffffffffffff16816020015173ffffffffffffffffffffffffffffffffffffffff1614611711576040517f08c379a000000000000000000000000000000000000000000000000000000000815260040161170890615239565b60405180910390fd5b60a154816060015169ffffffffffffffffffff16426117309190614f7a565b1015611771576040517f08c379a0000000000000000000000000000000000000000000000000000000008152600401611768906152a5565b60405180910390fd5b50808061177d90614fdd565b9150506114f4565b506000609960009054906101000a900473ffffffffffffffffffffffffffffffffffffffff1673ffffffffffffffffffffffffffffffffffffffff16635bdf263c6117ce6123f7565b8686866040518563ffffffff1660e01b81526004016117f09493929190615388565b6020604051808303816000875af115801561180f573d6000803e3d6000fd5b505050506040513d601f19601f8201168201806040525081019061183391906153dd565b90508383609d60008481526020019081526020016000209190611857929190614020565b5050505050565b600060019054906101000a900460ff166118865760008054906101000a900460ff161561188f565b61188e612200565b5b6118ce576040517f08c379a00000000000000000000000000000000000000000000000000000000081526004016118c590614cc3565b60405180910390fd5b60008060019054906101000a900460ff16159050801561191e576001600060016101000a81548160ff02191690831515021790555060016000806101000a81548160ff0219169083151502179055505b611926612211565b61192e61226a565b83609860006101000a81548173ffffffffffffffffffffffffffffffffffffffff021916908373ffffffffffffffffffffffffffffffffffffffff16021790555082609960006101000a81548173ffffffffffffffffffffffffffffffffffffffff021916908373ffffffffffffffffffffffffffffffffffffffff1602179055508160ad60006101000a81548173ffffffffffffffffffffffffffffffffffffffff021916908373ffffffffffffffffffffffffffffffffffffffff1602179055508015611a125760008060016101000a81548160ff0219169083151502179055505b50505050565b611a206122c3565b611a2b8160016126a0565b50565b609c6020528160005260406000208181548110611a4a57600080fd5b90600052602060002001600091509150505481565b611a676123f7565b73ffffffffffffffffffffffffffffffffffffffff163273ffffffffffffffffffffffffffffffffffffffff16148015611ad35750611aa46123f7565b73ffffffffffffffffffffffffffffffffffffffff168373ffffffffffffffffffffffffffffffffffffffff16145b80611b325750609860009054906101000a900473ffffffffffffffffffffffffffffffffffffffff1673ffffffffffffffffffffffffffffffffffffffff16611b1a6123f7565b73ffffffffffffffffffffffffffffffffffffffff16145b611b71576040517f08c379a0000000000000000000000000000000000000000000000000000000008152600401611b68906150c8565b60405180910390fd5b60005b828290508110156120d8576000838383818110611b9457611b93614daf565b5b9050602002016020810190611ba991906151c0565b61ffff161415611bb8576120c5565b609860009054906101000a900473ffffffffffffffffffffffffffffffffffffffff1673ffffffffffffffffffffffffffffffffffffffff16611bf96123f7565b73ffffffffffffffffffffffffffffffffffffffff1614611d4c57611c1c6123f7565b73ffffffffffffffffffffffffffffffffffffffff16609860009054906101000a900473ffffffffffffffffffffffffffffffffffffffff1673ffffffffffffffffffffffffffffffffffffffff16636352211e858585818110611c8357611c82614daf565b5b9050602002016020810190611c9891906151c0565b6040518263ffffffff1660e01b8152600401611cb49190615445565b602060405180830381865afa158015611cd1573d6000803e3d6000fd5b505050506040513d601f19601f82011682018060405250810190611cf59190615475565b73ffffffffffffffffffffffffffffffffffffffff1614611d4b576040517f08c379a0000000000000000000000000000000000000000000000000000000008152600401611d4290615239565b60405180910390fd5b5b611d80838383818110611d6257611d61614daf565b5b9050602002016020810190611d7791906151c0565b61ffff16612907565b611dbf576040517f08c379a0000000000000000000000000000000000000000000000000000000008152600401611db6906154ee565b60405180910390fd5b611df3838383818110611dd557611dd4614daf565b5b9050602002016020810190611dea91906151c0565b61ffff16612568565b15611f7257609c60008573ffffffffffffffffffffffffffffffffffffffff1673ffffffffffffffffffffffffffffffffffffffff168152602001908152602001600020838383818110611e4a57611e49614daf565b5b9050602002016020810190611e5f91906151c0565b908060018154018082558091505060019003906000526020600020016000909161ffff169091909150556000611ede611e966123f7565b609c60008873ffffffffffffffffffffffffffffffffffffffff1673ffffffffffffffffffffffffffffffffffffffff16815260200190815260200160002080549050612647565b90506000811215611f24576040517f08c379a0000000000000000000000000000000000000000000000000000000008152600401611f1b9061555a565b60405180910390fd5b6000811415611f3757611f3685612912565b5b611f6c85858585818110611f4e57611f4d614daf565b5b9050602002016020810190611f6391906151c0565b61ffff16612915565b50611fa8565b611fa784848484818110611f8957611f88614daf565b5b9050602002016020810190611f9e91906151c0565b61ffff16612974565b5b609860009054906101000a900473ffffffffffffffffffffffffffffffffffffffff1673ffffffffffffffffffffffffffffffffffffffff16611fe96123f7565b73ffffffffffffffffffffffffffffffffffffffff16146120c457609860009054906101000a900473ffffffffffffffffffffffffffffffffffffffff1673ffffffffffffffffffffffffffffffffffffffff166323b872dd61204a6123f7565b3086868681811061205e5761205d614daf565b5b905060200201602081019061207391906151c0565b6040518463ffffffff1660e01b81526004016120919392919061557a565b600060405180830381600087803b1580156120ab57600080fd5b505af11580156120bf573d6000803e3d6000fd5b505050505b5b80806120d090614fdd565b915050611b74565b50505050565b609f5481565b6120ec6123f7565b73ffffffffffffffffffffffffffffffffffffffff1661210a610d87565b73ffffffffffffffffffffffffffffffffffffffff1614612160576040517f08c379a000000000000000000000000000000000000000000000000000000000815260040161215790614d2f565b60405180910390fd5b600073ffffffffffffffffffffffffffffffffffffffff168173ffffffffffffffffffffffffffffffffffffffff1614156121d0576040517f08c379a00000000000000000000000000000000000000000000000000000000081526004016121c790615623565b60405180910390fd5b6121d9816123ff565b50565b60a681815481106121ec57600080fd5b906000526020600020016000915090505481565b600061220b306129d3565b15905090565b600060019054906101000a900460ff16612260576040517f08c379a0000000000000000000000000000000000000000000000000000000008152600401612257906156b5565b60405180910390fd5b6122686129f6565b565b600060019054906101000a900460ff166122b9576040517f08c379a00000000000000000000000000000000000000000000000000000000081526004016122b0906156b5565b60405180910390fd5b6122c1612a57565b565b609760009054906101000a900473ffffffffffffffffffffffffffffffffffffffff1673ffffffffffffffffffffffffffffffffffffffff163373ffffffffffffffffffffffffffffffffffffffff1614612353576040517f08c379a000000000000000000000000000000000000000000000000000000000815260040161234a90615721565b60405180910390fd5b565b61235d6109c8565b61239c576040517f08c379a00000000000000000000000000000000000000000000000000000000081526004016123939061578d565b60405180910390fd5b6000603360006101000a81548160ff0219169083151502179055507f5db9ee0a495bf2e6ff9c91a7834c1ba4fdd244a5e8aa4e537bd38aeae4b073aa6123e06123f7565b6040516123ed9190614734565b60405180910390a1565b600033905090565b6000606560009054906101000a900473ffffffffffffffffffffffffffffffffffffffff16905081606560006101000a81548173ffffffffffffffffffffffffffffffffffffffff021916908373ffffffffffffffffffffffffffffffffffffffff1602179055508173ffffffffffffffffffffffffffffffffffffffff168173ffffffffffffffffffffffffffffffffffffffff167f8be0079c531659141344cd1fd0a4f28419497f9722a3daafe3b4186f6b6457e060405160405180910390a35050565b6124cd6109c8565b1561250d576040517f08c379a000000000000000000000000000000000000000000000000000000000815260040161250490614e2a565b60405180910390fd5b6001603360006101000a81548160ff0219169083151502179055507f62e78cea01bee320cd4e420270b5ea74000d11b0c9f74754ebdbfc544b05a2586125516123f7565b60405161255e9190614734565b60405180910390a1565b6000609860009054906101000a900473ffffffffffffffffffffffffffffffffffffffff1673ffffffffffffffffffffffffffffffffffffffff1663e05c57bf836040518263ffffffff1660e01b81526004016125c59190614338565b61016060405180830381865afa1580156125e3573d6000803e3d6000fd5b505050506040513d601f19601f8201168201806040525081019061260791906157ec565b9091929394959697985090919293949596975090919293949596509091929394955090919293945090919293509091925090915090505080915050919050565b60006002905092915050565b50565b600061266186612ac3565b61266e8686868686612bc7565b905095945050505050565b600061268486612ac3565b6126918686868686613011565b905095945050505050565b5050565b60005b82518110156129025760006126d18483815181106126c4576126c3614daf565b5b6020026020010151612568565b61270757609b60008584815181106126ec576126eb614daf565b5b60200260200101518152602001908152602001600020612735565b609a600085848151811061271e5761271d614daf565b5b602002602001015181526020019081526020016000205b604051806080016040529081600082015481526020016001820160009054906101000a900473ffffffffffffffffffffffffffffffffffffffff1673ffffffffffffffffffffffffffffffffffffffff1673ffffffffffffffffffffffffffffffffffffffff1681526020016001820160149054906101000a900469ffffffffffffffffffff1669ffffffffffffffffffff1669ffffffffffffffffffff1681526020016002820160009054906101000a900469ffffffffffffffffffff1669ffffffffffffffffffff1669ffffffffffffffffffff1681525050905060a154816060015169ffffffffffffffffffff16426128319190614f7a565b10158061283b5750825b156128ee5761286384838151811061285657612855614daf565b5b6020026020010151612568565b1561289b5761289584838151811061287e5761287d614daf565b5b602002602001015182602001516001600080612656565b506128ca565b6128c88483815181106128b1576128b0614daf565b5b602002602001015182602001516001600080612679565b505b6128ed8483815181106128e0576128df614daf565b5b6020026020010151612ac3565b5b5080806128fa90614fdd565b9150506126a3565b505050565b600060019050919050565b50565b61291d6109c8565b1561295d576040517f08c379a000000000000000000000000000000000000000000000000000000000815260040161295490614e2a565b60405180910390fd5b6129668161345d565b612970828261366c565b5050565b61297c6109c8565b156129bc576040517f08c379a00000000000000000000000000000000000000000000000000000000081526004016129b390614e2a565b60405180910390fd5b6129c58161345d565b6129cf828261382b565b5050565b6000808273ffffffffffffffffffffffffffffffffffffffff163b119050919050565b600060019054906101000a900460ff16612a45576040517f08c379a0000000000000000000000000000000000000000000000000000000008152600401612a3c906156b5565b60405180910390fd5b612a55612a506123f7565b6123ff565b565b600060019054906101000a900460ff16612aa6576040517f08c379a0000000000000000000000000000000000000000000000000000000008152600401612a9d906156b5565b60405180910390fd5b6000603360006101000a81548160ff021916908315150217905550565b60005b60a680549050811015612b87578160a68281548110612ae857612ae7614daf565b5b90600052602060002001541415612b745760a6600160a680549050612b0d9190614f7a565b81548110612b1e57612b1d614daf565b5b906000526020600020015460a68281548110612b3d57612b3c614daf565b5b906000526020600020018190555060a6805480612b5d57612b5c614fae565b5b600190038181906000526020600020016000905590555b8080612b7f90614fdd565b915050612ac6565b507f7d4a6d69eb84044f4d9f547722787c2359e98a01482b3eb1e016cfdeef45830c60a680549050604051612bbc9190614338565b60405180910390a150565b600080609a6000888152602001908152602001600020604051806080016040529081600082015481526020016001820160009054906101000a900473ffffffffffffffffffffffffffffffffffffffff1673ffffffffffffffffffffffffffffffffffffffff1673ffffffffffffffffffffffffffffffffffffffff1681526020016001820160149054906101000a900469ffffffffffffffffffff1669ffffffffffffffffffff1669ffffffffffffffffffff1681526020016002820160009054906101000a900469ffffffffffffffffffff1669ffffffffffffffffffff1669ffffffffffffffffffff168152505090508573ffffffffffffffffffffffffffffffffffffffff16816020015173ffffffffffffffffffffffffffffffffffffffff1614612d2c576040517f08c379a0000000000000000000000000000000000000000000000000000000008152600401612d2390615239565b60405180910390fd5b83612d3f57612d3a816139ee565b612d42565b60005b91506000806000612d538a876139f5565b925092509250612d628a612907565b612d6b57600197505b8715612e9e57609a60008b81526020019081526020016000206000808201600090556001820160006101000a81549073ffffffffffffffffffffffffffffffffffffffff02191690556001820160146101000a81549069ffffffffffffffffffff02191690556002820160006101000a81549069ffffffffffffffffffff02191690555050609f6000815480929190612e03906158e0565b9190505550609860009054906101000a900473ffffffffffffffffffffffffffffffffffffffff1673ffffffffffffffffffffffffffffffffffffffff1663b88d4fde308b8d6040518463ffffffff1660e01b8152600401612e6793929190615941565b600060405180830381600087803b158015612e8157600080fd5b505af1158015612e95573d6000803e3d6000fd5b50505050612fbf565b60405180608001604052808b61ffff1681526020018a73ffffffffffffffffffffffffffffffffffffffff1681526020014269ffffffffffffffffffff1681526020014269ffffffffffffffffffff16815250609a60008c81526020019081526020016000206000820151816000015560208201518160010160006101000a81548173ffffffffffffffffffffffffffffffffffffffff021916908373ffffffffffffffffffffffffffffffffffffffff16021790555060408201518160010160146101000a81548169ffffffffffffffffffff021916908369ffffffffffffffffffff16021790555060608201518160020160006101000a81548169ffffffffffffffffffff021916908369ffffffffffffffffffff1602179055509050505b7f9b394c66bc4fdb2f56f5842a796076e6552d6f15eaacb6e63e3c53b474d872e98a868a86868660a354604051612ffc9796959493929190615a11565b60405180910390a15050505095945050505050565b600080609b6000888152602001908152602001600020604051806080016040529081600082015481526020016001820160009054906101000a900473ffffffffffffffffffffffffffffffffffffffff1673ffffffffffffffffffffffffffffffffffffffff1673ffffffffffffffffffffffffffffffffffffffff1681526020016001820160149054906101000a900469ffffffffffffffffffff1669ffffffffffffffffffff1669ffffffffffffffffffff1681526020016002820160009054906101000a900469ffffffffffffffffffff1669ffffffffffffffffffff1669ffffffffffffffffffff168152505090508573ffffffffffffffffffffffffffffffffffffffff16816020015173ffffffffffffffffffffffffffffffffffffffff1614613176576040517f08c379a000000000000000000000000000000000000000000000000000000000815260040161316d90615239565b60405180910390fd5b836131895761318481613c16565b61318c565b60005b9150600080600061319d8a876139f5565b9250925092506131ac8a612907565b6131b557600197505b87156132e857609b60008b81526020019081526020016000206000808201600090556001820160006101000a81549073ffffffffffffffffffffffffffffffffffffffff02191690556001820160146101000a81549069ffffffffffffffffffff02191690556002820160006101000a81549069ffffffffffffffffffff0219169055505060a0600081548092919061324d906158e0565b9190505550609860009054906101000a900473ffffffffffffffffffffffffffffffffffffffff1673ffffffffffffffffffffffffffffffffffffffff1663b88d4fde308b8d6040518463ffffffff1660e01b81526004016132b193929190615941565b600060405180830381600087803b1580156132cb57600080fd5b505af11580156132df573d6000803e3d6000fd5b5050505061340b565b60405180608001604052808b61ffff1681526020018a73ffffffffffffffffffffffffffffffffffffffff16815260200160a35469ffffffffffffffffffff1681526020014269ffffffffffffffffffff16815250609b60008c81526020019081526020016000206000820151816000015560208201518160010160006101000a81548173ffffffffffffffffffffffffffffffffffffffff021916908373ffffffffffffffffffffffffffffffffffffffff16021790555060408201518160010160146101000a81548169ffffffffffffffffffff021916908369ffffffffffffffffffff16021790555060608201518160020160006101000a81548169ffffffffffffffffffff021916908369ffffffffffffffffffff1602179055509050505b7f9be2cb7a62ca4aefdc81da57f848805cc67c86675da32b5a7be58bb615ba4f328a868a86868660a3546040516134489796959493929190615a11565b60405180910390a15050505095945050505050565b6134b860a68054806020026020016040519081016040528092919081815260200182805480156134ac57602002820191906000526020600020905b815481526020019060010190808311613498575b505050505060006126a0565b6134c181613c1d565b6135bb576134cd610b9a565b61350c576040517f08c379a000000000000000000000000000000000000000000000000000000000815260040161350390615ad3565b60405180910390fd5b60ac5460a68054905010613555576040517f08c379a000000000000000000000000000000000000000000000000000000000815260040161354c90615b3f565b60405180910390fd5b60a68190806001815401808255809150506001900390600052602060002001600090919091909150557f7d4a6d69eb84044f4d9f547722787c2359e98a01482b3eb1e016cfdeef45830c60a6805490506040516135b29190614338565b60405180910390a15b60ad60009054906101000a900473ffffffffffffffffffffffffffffffffffffffff1673ffffffffffffffffffffffffffffffffffffffff16639dc29fac6136016123f7565b61360a84613c1d565b6136165760a95461361a565b60a8545b6040518363ffffffff1660e01b8152600401613637929190615b5f565b600060405180830381600087803b15801561365157600080fd5b505af1158015613665573d6000803e3d6000fd5b5050505050565b6136746109c8565b156136b4576040517f08c379a00000000000000000000000000000000000000000000000000000000081526004016136ab90614e2a565b60405180910390fd5b60405180608001604052808261ffff1681526020018373ffffffffffffffffffffffffffffffffffffffff1681526020014269ffffffffffffffffffff1681526020014269ffffffffffffffffffff16815250609a60008381526020019081526020016000206000820151816000015560208201518160010160006101000a81548173ffffffffffffffffffffffffffffffffffffffff021916908373ffffffffffffffffffffffffffffffffffffffff16021790555060408201518160010160146101000a81548169ffffffffffffffffffff021916908369ffffffffffffffffffff16021790555060608201518160020160006101000a81548169ffffffffffffffffffff021916908369ffffffffffffffffffff160217905550905050609f60008154809291906137e790614fdd565b91905055507f8af1bb49fb16c7835975aa59449ba4328dd54737dfb2ae9fa6c5eca71fda51f981834260405161381f93929190615b88565b60405180910390a15050565b6138336109c8565b15613873576040517f08c379a000000000000000000000000000000000000000000000000000000000815260040161386a90614e2a565b60405180910390fd5b60405180608001604052808261ffff1681526020018373ffffffffffffffffffffffffffffffffffffffff16815260200160a35469ffffffffffffffffffff1681526020014269ffffffffffffffffffff16815250609b60008381526020019081526020016000206000820151816000015560208201518160010160006101000a81548173ffffffffffffffffffffffffffffffffffffffff021916908373ffffffffffffffffffffffffffffffffffffffff16021790555060408201518160010160146101000a81548169ffffffffffffffffffff021916908369ffffffffffffffffffff16021790555060608201518160020160006101000a81548169ffffffffffffffffffff021916908369ffffffffffffffffffff16021790555090505060a060008154809291906139a890614fdd565b91905055507f8af1bb49fb16c7835975aa59449ba4328dd54737dfb2ae9fa6c5eca71fda51f9818360a3546040516139e293929190615b88565b60405180910390a15050565b6000919050565b60008060606000609860009054906101000a900473ffffffffffffffffffffffffffffffffffffffff1673ffffffffffffffffffffffffffffffffffffffff1663e05c57bf876040518263ffffffff1660e01b8152600401613a579190614338565b61016060405180830381865afa158015613a75573d6000803e3d6000fd5b505050506040513d601f19601f82011682018060405250810190613a9991906157ec565b9a5050505050505050505050609860009054906101000a900473ffffffffffffffffffffffffffffffffffffffff1673ffffffffffffffffffffffffffffffffffffffff16637856f9456040518163ffffffff1660e01b8152600401602060405180830381865afa158015613b12573d6000803e3d6000fd5b505050506040513d601f19601f82011682018060405250810190613b369190615bd4565b8611158015613b5a575060a760009054906101000a900460000b60000b8160000b14155b15613bfe57609860009054906101000a900473ffffffffffffffffffffffffffffffffffffffff1673ffffffffffffffffffffffffffffffffffffffff1663bfec98aa8760a760009054906101000a900460000b6040518363ffffffff1660e01b8152600401613bcb929190615c10565b600060405180830381600087803b158015613be557600080fd5b505af1158015613bf9573d6000803e3d6000fd5b505050505b613c088686613cba565b935093509350509250925092565b6000919050565b6000609860009054906101000a900473ffffffffffffffffffffffffffffffffffffffff1673ffffffffffffffffffffffffffffffffffffffff16637856f9456040518163ffffffff1660e01b8152600401602060405180830381865afa158015613c8c573d6000803e3d6000fd5b505050506040513d601f19601f82011682018060405250810190613cb09190615bd4565b8211159050919050565b6000806060600080609860009054906101000a900473ffffffffffffffffffffffffffffffffffffffff1673ffffffffffffffffffffffffffffffffffffffff1663e05c57bf886040518263ffffffff1660e01b8152600401613d1d9190614338565b61016060405180830381865afa158015613d3b573d6000803e3d6000fd5b505050506040513d601f19601f82011682018060405250810190613d5f91906157ec565b9a505050505050505050509150600082613da557609b600089815260200190815260200160002060020160009054906101000a900469ffffffffffffffffffff16613dd3565b609a600089815260200190815260200160002060020160009054906101000a900469ffffffffffffffffffff165b69ffffffffffffffffffff1642613dea9190614f7a565b9050609860009054906101000a900473ffffffffffffffffffffffffffffffffffffffff1673ffffffffffffffffffffffffffffffffffffffff166363dbfc7789613e6086613e4857609e60029054906101000a900460000b613e59565b609e60009054906101000a900460000b5b8587613f28565b613e9687613e7d57609e60039054906101000a900460000b613e8e565b609e60019054906101000a900460000b5b866000613f28565b613e9e613ff3565b613ea9576000613eab565b8b5b6040518563ffffffff1660e01b8152600401613eca9493929190615c39565b6000604051808303816000875af1158015613ee9573d6000803e3d6000fd5b505050506040513d6000823e3d601f19601f82011682018060405250810190613f129190615d24565b8096508197508298505050505050509250925092565b600060a254831115613f3a5760a25492505b600060a2548560000b85613f4e9190615d9d565b613f589190615eb4565b905060a2548410158015613f6c5750600081135b15613f83578260000b81613f809190615f1e565b90505b6064811315613f96576064915050613fec565b7fffffffffffffffffffffffffffffffffffffffffffffffffffffffffffffff9c811215613fe7577fffffffffffffffffffffffffffffffffffffffffffffffffffffffffffffff9c915050613fec565b809150505b9392505050565b600090565b50805460008255600f01601090049060005260206000209081019061401d91906140ce565b50565b82805482825590600052602060002090600f016010900481019282156140bd5791602002820160005b8382111561408d57833561ffff1683826101000a81548161ffff021916908361ffff1602179055509260200192600201602081600101049283019260010302614049565b80156140bb5782816101000a81549061ffff021916905560020160208160010104928301926001030261408d565b505b5090506140ca91906140ce565b5090565b5b808211156140e75760008160009055506001016140cf565b5090565b6000604051905090565b600080fd5b600080fd5b600073ffffffffffffffffffffffffffffffffffffffff82169050919050565b600061412a826140ff565b9050919050565b61413a8161411f565b811461414557600080fd5b50565b60008135905061415781614131565b92915050565b6000819050919050565b6141708161415d565b811461417b57600080fd5b50565b60008135905061418d81614167565b92915050565b600080fd5b600080fd5b600080fd5b60008083601f8401126141b8576141b7614193565b5b8235905067ffffffffffffffff8111156141d5576141d4614198565b5b6020830191508360018202830111156141f1576141f061419d565b5b9250929050565b600080600080600060808688031215614214576142136140f5565b5b600061422288828901614148565b955050602061423388828901614148565b94505060406142448882890161417e565b935050606086013567ffffffffffffffff811115614265576142646140fa565b5b614271888289016141a2565b92509250509295509295909350565b60007fffffffff0000000000000000000000000000000000000000000000000000000082169050919050565b6142b581614280565b82525050565b60006020820190506142d060008301846142ac565b92915050565b6000806000606084860312156142ef576142ee6140f5565b5b60006142fd86828701614148565b935050602061430e86828701614148565b925050604061431f8682870161417e565b9150509250925092565b6143328161415d565b82525050565b600060208201905061434d6000830184614329565b92915050565b600060208284031215614369576143686140f5565b5b60006143778482850161417e565b91505092915050565b6143898161411f565b82525050565b600069ffffffffffffffffffff82169050919050565b6143ae8161438f565b82525050565b60006080820190506143c96000830187614329565b6143d66020830186614380565b6143e360408301856143a5565b6143f060608301846143a5565b95945050505050565b60006020828403121561440f5761440e6140f5565b5b600061441d84828501614148565b91505092915050565b60008115159050919050565b61443b81614426565b82525050565b60006020820190506144566000830184614432565b92915050565b60008160000b9050919050565b6144728161445c565b811461447d57600080fd5b50565b60008135905061448f81614469565b92915050565b6000601f19601f8301169050919050565b7f4e487b7100000000000000000000000000000000000000000000000000000000600052604160045260246000fd5b6144de82614495565b810181811067ffffffffffffffff821117156144fd576144fc6144a6565b5b80604052505050565b60006145106140eb565b905061451c82826144d5565b919050565b600067ffffffffffffffff82111561453c5761453b6144a6565b5b602082029050602081019050919050565b600061456061455b84614521565b614506565b905080838252602082019050602084028301858111156145835761458261419d565b5b835b818110156145ac5780614598888261417e565b845260208401935050602081019050614585565b5050509392505050565b600082601f8301126145cb576145ca614193565b5b81356145db84826020860161454d565b91505092915050565b600060ff82169050919050565b6145fa816145e4565b811461460557600080fd5b50565b600081359050614617816145f1565b92915050565b6000806000806000806000806000806101408b8d031215614641576146406140f5565b5b600061464f8d828e0161417e565b9a505060206146608d828e0161417e565b99505060406146718d828e01614480565b98505060606146828d828e01614480565b97505060806146938d828e01614480565b96505060a08b013567ffffffffffffffff8111156146b4576146b36140fa565b5b6146c08d828e016145b6565b95505060c08b013567ffffffffffffffff8111156146e1576146e06140fa565b5b6146ed8d828e016145b6565b94505060e06146fe8d828e0161417e565b9350506101006147108d828e01614608565b9250506101206147228d828e0161417e565b9150509295989b9194979a5092959850565b60006020820190506147496000830184614380565b92915050565b600080fd5b600080fd5b6000819050919050565b61476c81614759565b811461477757600080fd5b50565b60008135905061478981614763565b92915050565b600067ffffffffffffffff8211156147aa576147a96144a6565b5b602082029050602081019050919050565b600061ffff82169050919050565b6147d2816147bb565b81146147dd57600080fd5b50565b6000813590506147ef816147c9565b92915050565b60006148086148038461478f565b614506565b9050808382526020820190506020840283018581111561482b5761482a61419d565b5b835b81811015614854578061484088826147e0565b84526020840193505060208101905061482d565b5050509392505050565b600082601f83011261487357614872614193565b5b81356148838482602086016147f5565b91505092915050565b61489581614426565b81146148a057600080fd5b50565b6000813590506148b28161488c565b92915050565b600060a082840312156148ce576148cd61474f565b5b6148d860a0614506565b905060006148e88482850161477a565b60008301525060206148fc84828501614148565b602083015250604061491084828501614148565b604083015250606082013567ffffffffffffffff81111561493457614933614754565b5b6149408482850161485e565b6060830152506080614954848285016148a3565b60808301525092915050565b60008060408385031215614977576149766140f5565b5b600083013567ffffffffffffffff811115614995576149946140fa565b5b6149a1858286016148b8565b92505060206149b28582860161417e565b9150509250929050565b60008083601f8401126149d2576149d1614193565b5b8235905067ffffffffffffffff8111156149ef576149ee614198565b5b602083019150836020820283011115614a0b57614a0a61419d565b5b9250929050565b600080600060408486031215614a2b57614a2a6140f5565b5b600084013567ffffffffffffffff811115614a4957614a486140fa565b5b614a55868287016149bc565b93509350506020614a68868287016148a3565b9150509250925092565b600080600060608486031215614a8b57614a8a6140f5565b5b6000614a9986828701614148565b9350506020614aaa86828701614148565b9250506040614abb86828701614148565b9150509250925092565b600060208284031215614adb57614ada6140f5565b5b600082013567ffffffffffffffff811115614af957614af86140fa565b5b614b05848285016145b6565b91505092915050565b60008060408385031215614b2557614b246140f5565b5b6000614b3385828601614148565b9250506020614b448582860161417e565b9150509250929050565b600080600060408486031215614b6757614b666140f5565b5b6000614b7586828701614148565b935050602084013567ffffffffffffffff811115614b9657614b956140fa565b5b614ba2868287016149bc565b92509250509250925092565b600082825260208201905092915050565b7f43616e6e6f742073656e6420746f6b656e7320746f2056656e7565206469726560008201527f63746c7900000000000000000000000000000000000000000000000000000000602082015250565b6000614c1b602483614bae565b9150614c2682614bbf565b604082019050919050565b60006020820190508181036000830152614c4a81614c0e565b9050919050565b7f496e697469616c697a61626c653a20636f6e747261637420697320616c72656160008201527f647920696e697469616c697a6564000000000000000000000000000000000000602082015250565b6000614cad602e83614bae565b9150614cb882614c51565b604082019050919050565b60006020820190508181036000830152614cdc81614ca0565b9050919050565b7f4f776e61626c653a2063616c6c6572206973206e6f7420746865206f776e6572600082015250565b6000614d19602083614bae565b9150614d2482614ce3565b602082019050919050565b60006020820190508181036000830152614d4881614d0c565b9050919050565b7f4e487b7100000000000000000000000000000000000000000000000000000000600052601260045260246000fd5b6000614d898261415d565b9150614d948361415d565b925082614da457614da3614d4f565b5b828206905092915050565b7f4e487b7100000000000000000000000000000000000000000000000000000000600052603260045260246000fd5b7f5061757361626c653a2070617573656400000000000000000000000000000000600082015250565b6000614e14601083614bae565b9150614e1f82614dde565b602082019050919050565b60006020820190508181036000830152614e4381614e07565b9050919050565b7f4f6e6c7920436c61696d2063616e2066756c66696c6c00000000000000000000600082015250565b6000614e80601683614bae565b9150614e8b82614e4a565b602082019050919050565b60006020820190508181036000830152614eaf81614e73565b9050919050565b7f436c61696d2072657175657374206e6f7420666f756e64000000000000000000600082015250565b6000614eec601783614bae565b9150614ef782614eb6565b602082019050919050565b60006020820190508181036000830152614f1b81614edf565b9050919050565b6000604082019050614f376000830185614329565b614f446020830184614329565b9392505050565b7f4e487b7100000000000000000000000000000000000000000000000000000000600052601160045260246000fd5b6000614f858261415d565b9150614f908361415d565b925082821015614fa357614fa2614f4b565b5b828203905092915050565b7f4e487b7100000000000000000000000000000000000000000000000000000000600052603160045260246000fd5b6000614fe88261415d565b91507fffffffffffffffffffffffffffffffffffffffffffffffffffffffffffffffff82141561501b5761501a614f4b565b5b600182019050919050565b60006150318261415d565b915061503c8361415d565b9250827fffffffffffffffffffffffffffffffffffffffffffffffffffffffffffffffff0382111561507157615070614f4b565b5b828201905092915050565b7f454f41206f6e6c79000000000000000000000000000000000000000000000000600082015250565b60006150b2600883614bae565b91506150bd8261507c565b602082019050919050565b600060208201905081810360008301526150e1816150a5565b9050919050565b7f496e76616c696420636c61696d20616d6f756e74000000000000000000000000600082015250565b600061511e601483614bae565b9150615129826150e8565b602082019050919050565b6000602082019050818103600083015261514d81615111565b9050919050565b7f496e76616c696420636c61696d20666565000000000000000000000000000000600082015250565b600061518a601183614bae565b915061519582615154565b602082019050919050565b600060208201905081810360008301526151b98161517d565b9050919050565b6000602082840312156151d6576151d56140f5565b5b60006151e4848285016147e0565b91505092915050565b7f4e6f7420796f757220746f6b656e000000000000000000000000000000000000600082015250565b6000615223600e83614bae565b915061522e826151ed565b602082019050919050565b6000602082019050818103600083015261525281615216565b9050919050565b7f43616e6e6f7420636c61696d206265666f726520454f42000000000000000000600082015250565b600061528f601783614bae565b915061529a82615259565b602082019050919050565b600060208201905081810360008301526152be81615282565b9050919050565b600082825260208201905092915050565b6000819050919050565b6152e9816147bb565b82525050565b60006152fb83836152e0565b60208301905092915050565b600061531660208401846147e0565b905092915050565b6000602082019050919050565b600061533783856152c5565b9350615342826152d6565b8060005b8581101561537b576153588284615307565b61536288826152ef565b975061536d8361531e565b925050600181019050615346565b5085925050509392505050565b600060608201905061539d6000830187614380565b81810360208301526153b081858761532b565b90506153bf6040830184614432565b95945050505050565b6000815190506153d781614763565b92915050565b6000602082840312156153f3576153f26140f5565b5b6000615401848285016153c8565b91505092915050565b6000819050919050565b600061542f61542a615425846147bb565b61540a565b61415d565b9050919050565b61543f81615414565b82525050565b600060208201905061545a6000830184615436565b92915050565b60008151905061546f81614131565b92915050565b60006020828403121561548b5761548a6140f5565b5b600061549984828501615460565b91505092915050565b7f4e6f7420656c696769626c650000000000000000000000000000000000000000600082015250565b60006154d8600c83614bae565b91506154e3826154a2565b602082019050919050565b60006020820190508181036000830152615507816154cb565b9050919050565b7f4b69746368656e20737061636520726571756972656400000000000000000000600082015250565b6000615544601683614bae565b915061554f8261550e565b602082019050919050565b6000602082019050818103600083015261557381615537565b9050919050565b600060608201905061558f6000830186614380565b61559c6020830185614380565b6155a96040830184615436565b949350505050565b7f4f776e61626c653a206e6577206f776e657220697320746865207a65726f206160008201527f6464726573730000000000000000000000000000000000000000000000000000602082015250565b600061560d602683614bae565b9150615618826155b1565b604082019050919050565b6000602082019050818103600083015261563c81615600565b9050919050565b7f496e697469616c697a61626c653a20636f6e7472616374206973206e6f74206960008201527f6e697469616c697a696e67000000000000000000000000000000000000000000602082015250565b600061569f602b83614bae565b91506156aa82615643565b604082019050919050565b600060208201905081810360008301526156ce81615692565b9050919050565b7f4f6e6c792044414f2063616e2065786563757465000000000000000000000000600082015250565b600061570b601483614bae565b9150615716826156d5565b602082019050919050565b6000602082019050818103600083015261573a816156fe565b9050919050565b7f5061757361626c653a206e6f7420706175736564000000000000000000000000600082015250565b6000615777601483614bae565b915061578282615741565b602082019050919050565b600060208201905081810360008301526157a68161576a565b9050919050565b6000815190506157bc8161488c565b92915050565b6000815190506157d1816145f1565b92915050565b6000815190506157e681614469565b92915050565b60008060008060008060008060008060006101608c8e031215615812576158116140f5565b5b60006158208e828f016157ad565b9b505060206158318e828f016157c2565b9a505060406158428e828f016157c2565b99505060606158538e828f016157c2565b98505060806158648e828f016157c2565b97505060a06158758e828f016157c2565b96505060c06158868e828f016157c2565b95505060e06158978e828f016157c2565b9450506101006158a98e828f016157c2565b9350506101206158bb8e828f016157c2565b9250506101406158cd8e828f016157d7565b9150509295989b509295989b9093969950565b60006158eb8261415d565b915060008214156158ff576158fe614f4b565b5b600182039050919050565b600082825260208201905092915050565b50565b600061592b60008361590a565b91506159368261591b565b600082019050919050565b60006080820190506159566000830186614380565b6159636020830185614380565b6159706040830184614329565b81810360608301526159818161591e565b9050949350505050565b615994816145e4565b82525050565b600081519050919050565b60005b838110156159c35780820151818401526020810190506159a8565b838111156159d2576000848401525b50505050565b60006159e38261599a565b6159ed8185614bae565b93506159fd8185602086016159a5565b615a0681614495565b840191505092915050565b600060e082019050615a26600083018a614329565b615a336020830189614329565b615a406040830188614432565b615a4d606083018761598b565b615a5a608083018661598b565b81810360a0830152615a6c81856159d8565b9050615a7b60c0830184614329565b98975050505050505050565b7f47656e30206f6e6c790000000000000000000000000000000000000000000000600082015250565b6000615abd600983614bae565b9150615ac882615a87565b602082019050919050565b60006020820190508181036000830152615aec81615ab0565b9050919050565b7f47656e31206c696d697420726561636865640000000000000000000000000000600082015250565b6000615b29601283614bae565b9150615b3482615af3565b602082019050919050565b60006020820190508181036000830152615b5881615b1c565b9050919050565b6000604082019050615b746000830185614380565b615b816020830184614329565b9392505050565b6000606082019050615b9d6000830186614329565b615baa6020830185614380565b615bb76040830184614329565b949350505050565b600081519050615bce81614167565b92915050565b600060208284031215615bea57615be96140f5565b5b6000615bf884828501615bbf565b91505092915050565b615c0a8161445c565b82525050565b6000604082019050615c256000830185614329565b615c326020830184615c01565b9392505050565b6000608082019050615c4e6000830187614329565b615c5b6020830186615c01565b615c686040830185615c01565b615c756060830184614329565b95945050505050565b600080fd5b600067ffffffffffffffff821115615c9e57615c9d6144a6565b5b615ca782614495565b9050602081019050919050565b6000615cc7615cc284615c83565b614506565b905082815260208101848484011115615ce357615ce2615c7e565b5b615cee8482856159a5565b509392505050565b600082601f830112615d0b57615d0a614193565b5b8151615d1b848260208601615cb4565b91505092915050565b600080600060608486031215615d3d57615d3c6140f5565b5b6000615d4b868287016157c2565b9350506020615d5c868287016157c2565b925050604084015167ffffffffffffffff811115615d7d57615d7c6140fa565b5b615d8986828701615cf6565b9150509250925092565b6000819050919050565b6000615da882615d93565b9150615db383615d93565b9250827f7fffffffffffffffffffffffffffffffffffffffffffffffffffffffffffffff0482116000841360008413161615615df257615df1614f4b565b5b817f80000000000000000000000000000000000000000000000000000000000000000583126000841260008413161615615e2f57615e2e614f4b565b5b827f80000000000000000000000000000000000000000000000000000000000000000582126000841360008412161615615e6c57615e6b614f4b565b5b827f7fffffffffffffffffffffffffffffffffffffffffffffffffffffffffffffff0582126000841260008412161615615ea957615ea8614f4b565b5b828202905092915050565b6000615ebf82615d93565b9150615eca83615d93565b925082615eda57615ed9614d4f565b5b600160000383147f800000000000000000000000000000000000000000000000000000000000000083141615615f1357615f12614f4b565b5b828205905092915050565b6000615f2982615d93565b9150615f3483615d93565b9250817f7fffffffffffffffffffffffffffffffffffffffffffffffffffffffffffffff03831360008312151615615f6f57615f6e614f4b565b5b817f8000000000000000000000000000000000000000000000000000000000000000038312600083121615615fa757615fa6614f4b565b5b82820190509291505056fea2646970667358221220591ca885204e8302b2e181fd0cc3d702a12b1f70929eb15b14776f96284daf8364736f6c634300080a0033",
  "immutableReferences": {},
  "source": "// SPDX-License-Identifier: MIT\n\npragma solidity ^0.8.0;\n\nimport \"./VenueV2.sol\";\nimport \"./GourmetFood.sol\";\n\ncontract TripleFiveClub is VenueV2 {\n  event StakedGen1(uint256 value);\n\n  uint256[] public stakedGen1; // Maps generation (0 | 1) to array of Character IDs\n  int8 boostLevel;\n  uint256 entranceFeeGen0;\n  uint256 entranceFeeGen1;\n  uint256 weekModuloStart;\n  uint256 weekModuloEnd;\n  uint256 maxConcurrentGen1;\n  GourmetFood gourmetFood; // Reference to the $GFOOD contract\n\n  function initialize(\n    address _character,\n    address _claim,\n    address _gourmetFood\n  ) external initializer {\n    __Ownable_init();\n    __Pausable_init();\n\n    character = CharacterV2(_character);\n    claim = IClaim(_claim);\n    gourmetFood = GourmetFood(_gourmetFood);\n  }\n\n  /**\n   * Allows DAO to update game parameters\n   */\n  function configure(\n    uint256 _vestingPeriod,\n    uint256 _accrualPeriod,\n    int8 _dailyFreakRate,\n    int8 _dailyBodyMassRate,\n    int8 _boostLevel,\n    uint256[] memory _entranceFees,\n    uint256[] memory _weekModulo,\n    uint256 _maxConcurrentGen1,\n    uint8 _maxClaimsPerTx,\n    uint256 _claimFee\n  ) external onlyOwner {\n    vestingPeriod = _vestingPeriod;\n    accrualPeriod = _accrualPeriod;\n    dailyFreakRate = _dailyFreakRate;\n    dailyBodyMassRate = _dailyBodyMassRate;\n    boostLevel = _boostLevel;\n    entranceFeeGen0 = _entranceFees[0];\n    entranceFeeGen1 = _entranceFees[1];\n    weekModuloStart = _weekModulo[0];\n    weekModuloEnd = _weekModulo[1];\n    maxConcurrentGen1 = _maxConcurrentGen1;\n    maxClaimsPerTx = _maxClaimsPerTx;\n    claimFee = _claimFee;\n  }\n\n  /**\n   * Checks if the token is Generation 0\n   * @param tokenId - The ID of the token to check\n   * @return true if it's a Gen0 token\n   */\n  function _isGen0(uint256 tokenId) internal view returns(bool) {\n    return tokenId <= character.getGen0Tokens();\n  }\n\n  /**\n   * Checks if we are within an open door period\n   * @return true during open door periods\n   */\n  function isOpenForPublic() public view returns(bool) {\n    uint256 weekModulo = block.timestamp % 604800;\n    return weekModulo >= weekModuloStart && weekModulo < weekModuloEnd; // All UTC period long...\n  }\n\n  /**\n   * Find and remove the token ID from the stakedGen1 array\n   * @param tokenId - The ID of the token\n   */\n  function _removeFromGen1(uint256 tokenId) internal {\n    for (uint i = 0; i < stakedGen1.length; i++) {\n      if (stakedGen1[i] == tokenId) {\n        stakedGen1[i] = stakedGen1[stakedGen1.length - 1];\n        stakedGen1.pop();\n      }\n    }\n    emit StakedGen1(stakedGen1.length);\n  }\n\n  /**\n   * Make room for other Gen1s by ejecting all Gen1 tokens that have reached their vesting period\n   * @param ids - The IDs of the tokens in question\n   * @param overrideVesting - If true, the vesting period is disregarded (used by DAO)\n   *\n   */\n  function _ejectIfVested(uint256[] memory ids, bool overrideVesting) internal {\n    for (uint i = 0; i < ids.length; i++) {\n      Stake memory stake = isChef(ids[i]) ? chefs[ids[i]] : rats[ids[i]];\n      if (block.timestamp - stake.timestamp >= vestingPeriod || overrideVesting) {\n        if (isChef(ids[i])) {\n          _claimChef(ids[i], stake.owner, true, false, 0);\n        } else {\n          _claimRat(ids[i], stake.owner, true, false, 0);\n        }\n        _removeFromGen1(ids[i]);\n      }\n    }\n  }\n\n  /**\n   * DAO function to force-unstake all tokens and send them back to their respective owners\n   * @param ids - The IDs of the tokens to force-unstake\n   */\n  function multiEject(uint256[] memory ids) external onlyDao {\n    _ejectIfVested(ids, true);\n  }\n\n  /**\n   * Return the amount of Gen1 tokens in staking\n   * @return Number of Gen1 tokens staked\n   */\n  function getStakedGen1() external view returns(uint256) {\n    return stakedGen1.length;\n  }\n\n  /**\n   * Handle Gen1 restrictions & entry fee token burn\n   * @param tokenId - The ID of the Character\n   */\n  function _handleGen1(uint256 tokenId) internal {\n    _ejectIfVested(stakedGen1, false);\n    if (!_isGen0(tokenId)) {\n      require(isOpenForPublic(), \"Gen0 only\");\n      require(stakedGen1.length < maxConcurrentGen1, \"Gen1 limit reached\");\n      stakedGen1.push(tokenId);\n      emit StakedGen1(stakedGen1.length);\n    }\n    gourmetFood.burn(_msgSender(), _isGen0(tokenId) ? entranceFeeGen0 : entranceFeeGen1);\n  }\n\n  /**\n   * Override Venue._stakeChef() to handle Gen1 logic & populate stakedGen1[]\n   */\n  function _stakeChef(address account, uint256 tokenId) internal override whenNotPaused {\n    _handleGen1(tokenId);\n    return super._stakeChef(account, tokenId);\n  }\n\n  /**\n   * Override Venue._stakeRat() to handle Gen1 logic & populate stakedGen1[]\n   */\n  function _stakeRat(address account, uint256 tokenId) internal override whenNotPaused {\n    _handleGen1(tokenId);\n    return super._stakeRat(account, tokenId);\n  }\n\n  /**\n   * Override Venue._claimChef() to clean up stakedGen1[]\n   */\n  function _claimChef(uint256 tokenId, address sender, bool unstake, bool noEarnings, uint256 randomVal) internal override returns (uint256 owed) {\n    _removeFromGen1(tokenId);\n    return super._claimChef(tokenId, sender, unstake, noEarnings, randomVal);\n  }\n\n  /**\n   * Override Venue._claimRat() to clean up stakedGen1[]\n   */\n  function _claimRat(uint256 tokenId, address sender, bool unstake, bool noEarnings, uint256 randomVal) internal override returns (uint256 owed) {\n    _removeFromGen1(tokenId);\n    return super._claimRat(tokenId, sender, unstake, noEarnings, randomVal);\n  }\n\n  /**\n   * Override Venue._updateCharacter() to update the Character's boost level\n   */\n  function _updateCharacter(uint256 tokenId, uint256 randomVal) internal override returns(uint8 efficiency, uint8 tolerance, string memory eventName) {\n    (, , , , , , , , , , int8 boost) = character.tokenTraits(tokenId);\n    if (tokenId <= character.getGen0Tokens() && boost != boostLevel) {\n      character.updateBoost(tokenId, boostLevel);\n    }\n    return super._updateCharacter(tokenId, randomVal);\n  }\n}\n",
  "sourcePath": "/Users/chris/workspace/ratalert/ratalert-contracts/contracts/TripleFiveClub.sol",
  "compiler": {
    "name": "solc",
    "version": "0.8.10+commit.fc410830.Emscripten.clang"
  },
  "schemaVersion": "3.4.7",
  "updatedAt": "2022-07-04T20:46:56.747Z",
  "networkType": "ethereum",
  "devdoc": {
    "kind": "dev",
    "methods": {
      "claimMany(uint16[],bool)": {
        "params": {
          "tokenIds": "- The IDs of the tokens in question",
          "unstake": "- Whether or not to unstake the given tokens"
        }
      },
      "fulfillClaimMany((bytes32,address,address,uint16[],bool),uint256)": {
        "params": {
          "randomness": "- Random value created by VRF",
          "v": "- VRF struct for the corresponding request"
        }
      },
      "getChefsStaked(address)": {
        "params": {
          "account": "- User wallet address"
        },
        "returns": {
          "_0": "Number of chefs in staking"
        }
      },
      "getStakedGen1()": {
        "returns": {
          "_0": "Number of Gen1 tokens staked"
        }
      },
      "isOpenForPublic()": {
        "returns": {
          "_0": "true during open door periods"
        }
      },
      "multiEject(uint256[])": {
        "params": {
          "ids": "- The IDs of the tokens to force-unstake"
        }
      },
      "owner()": {
        "details": "Returns the address of the current owner."
      },
      "paused()": {
        "details": "Returns true if the contract is paused, and false otherwise."
      },
      "renounceOwnership()": {
        "details": "Leaves the contract without owner. It will not be possible to call `onlyOwner` functions anymore. Can only be called by the current owner. NOTE: Renouncing ownership will leave the contract without an owner, thereby removing any functionality that is only available to the owner."
      },
      "stakeMany(address,uint16[])": {
        "params": {
          "account": "- User wallet address",
          "tokenIds": "- The IDs of the Chefs & Rats to stake"
        }
      },
      "transferOwnership(address)": {
        "details": "Transfers ownership of the contract to a new account (`newOwner`). Can only be called by the current owner."
      }
    },
    "version": 1
  },
  "userdoc": {
    "kind": "user",
    "methods": {
      "claimMany(uint16[],bool)": {
        "notice": "ChainLink VRF request: Claims food token earnings, level-ups and optionally unstake characters"
      },
      "configure(uint256,uint256,int8,int8,int8,uint256[],uint256[],uint256,uint8,uint256)": {
        "notice": "Allows DAO to update game parameters"
      },
      "fulfillClaimMany((bytes32,address,address,uint16[],bool),uint256)": {
        "notice": "Callback for claimMany(), called by Claim.fulfillRandomness()"
      },
      "getChefsStaked(address)": {
        "notice": "Get the amount of chefs the given account has in staking"
      },
      "getStakedGen1()": {
        "notice": "Return the amount of Gen1 tokens in staking"
      },
      "isOpenForPublic()": {
        "notice": "Checks if we are within an open door period"
      },
      "multiEject(uint256[])": {
        "notice": "DAO function to force-unstake all tokens and send them back to their respective owners"
      },
      "onERC721Received(address,address,uint256,bytes)": {
        "notice": "IERC721ReceiverUpgradeable interface: We do not accept tokens sent directly"
      },
      "stakeMany(address,uint16[])": {
        "notice": "Adds Characters to staking"
      },
      "withdrawPayments()": {
        "notice": "Allows DAO to withdraw funds"
      }
    },
    "version": 1
  }
}