{
  "contractName": "TripleFiveClub",
  "abi": [
    {
      "anonymous": false,
      "inputs": [
        {
          "indexed": false,
          "internalType": "uint256",
          "name": "tokenId",
          "type": "uint256"
        },
        {
          "indexed": false,
          "internalType": "uint256",
          "name": "earned",
          "type": "uint256"
        },
        {
          "indexed": false,
          "internalType": "bool",
          "name": "unstaked",
          "type": "bool"
        },
        {
          "indexed": false,
          "internalType": "uint8",
          "name": "skill",
          "type": "uint8"
        },
        {
          "indexed": false,
          "internalType": "uint8",
          "name": "freak",
          "type": "uint8"
        },
        {
          "indexed": false,
          "internalType": "string",
          "name": "eventName",
          "type": "string"
        },
        {
          "indexed": false,
          "internalType": "uint256",
          "name": "foodTokensPerRat",
          "type": "uint256"
        }
      ],
      "name": "ChefClaimed",
      "type": "event"
    },
    {
      "anonymous": false,
      "inputs": [
        {
          "indexed": true,
          "internalType": "address",
          "name": "previousOwner",
          "type": "address"
        },
        {
          "indexed": true,
          "internalType": "address",
          "name": "newOwner",
          "type": "address"
        }
      ],
      "name": "OwnershipTransferred",
      "type": "event"
    },
    {
      "anonymous": false,
      "inputs": [
        {
          "indexed": false,
          "internalType": "address",
          "name": "account",
          "type": "address"
        }
      ],
      "name": "Paused",
      "type": "event"
    },
    {
      "anonymous": false,
      "inputs": [
        {
          "indexed": false,
          "internalType": "uint256",
          "name": "tokenId",
          "type": "uint256"
        },
        {
          "indexed": false,
          "internalType": "uint256",
          "name": "earned",
          "type": "uint256"
        },
        {
          "indexed": false,
          "internalType": "bool",
          "name": "unstaked",
          "type": "bool"
        },
        {
          "indexed": false,
          "internalType": "uint8",
          "name": "intelligence",
          "type": "uint8"
        },
        {
          "indexed": false,
          "internalType": "uint8",
          "name": "bodyMass",
          "type": "uint8"
        },
        {
          "indexed": false,
          "internalType": "string",
          "name": "eventName",
          "type": "string"
        },
        {
          "indexed": false,
          "internalType": "uint256",
          "name": "foodTokensPerRat",
          "type": "uint256"
        }
      ],
      "name": "RatClaimed",
      "type": "event"
    },
    {
      "anonymous": false,
      "inputs": [
        {
          "indexed": false,
          "internalType": "uint256",
          "name": "value",
          "type": "uint256"
        }
      ],
      "name": "StakedGen1",
      "type": "event"
    },
    {
      "anonymous": false,
      "inputs": [
        {
          "indexed": false,
          "internalType": "uint256",
          "name": "tokenId",
          "type": "uint256"
        },
        {
          "indexed": false,
          "internalType": "address",
          "name": "owner",
          "type": "address"
        },
        {
          "indexed": false,
          "internalType": "uint256",
          "name": "value",
          "type": "uint256"
        }
      ],
      "name": "TokenStaked",
      "type": "event"
    },
    {
      "anonymous": false,
      "inputs": [
        {
          "indexed": false,
          "internalType": "address",
          "name": "account",
          "type": "address"
        }
      ],
      "name": "Unpaused",
      "type": "event"
    },
    {
      "inputs": [
        {
          "internalType": "uint256",
          "name": "",
          "type": "uint256"
        }
      ],
      "name": "chefs",
      "outputs": [
        {
          "internalType": "uint256",
          "name": "tokenId",
          "type": "uint256"
        },
        {
          "internalType": "address",
          "name": "owner",
          "type": "address"
        },
        {
          "internalType": "uint80",
          "name": "value",
          "type": "uint80"
        },
        {
          "internalType": "uint80",
          "name": "timestamp",
          "type": "uint80"
        }
      ],
      "stateMutability": "view",
      "type": "function",
      "constant": true
    },
    {
      "inputs": [
        {
          "internalType": "uint16[]",
          "name": "tokenIds",
          "type": "uint16[]"
        },
        {
          "internalType": "bool",
          "name": "unstake",
          "type": "bool"
        }
      ],
      "name": "claimMany",
      "outputs": [],
      "stateMutability": "payable",
      "type": "function",
      "payable": true
    },
    {
      "inputs": [],
      "name": "foodTokensPerRat",
      "outputs": [
        {
          "internalType": "uint256",
          "name": "",
          "type": "uint256"
        }
      ],
      "stateMutability": "view",
      "type": "function",
      "constant": true
    },
    {
      "inputs": [
        {
          "components": [
            {
              "internalType": "bytes32",
              "name": "requestId",
              "type": "bytes32"
            },
            {
              "internalType": "address",
              "name": "venue",
              "type": "address"
            },
            {
              "internalType": "address",
              "name": "sender",
              "type": "address"
            },
            {
              "internalType": "uint16[]",
              "name": "tokenIds",
              "type": "uint16[]"
            },
            {
              "internalType": "bool",
              "name": "unstake",
              "type": "bool"
            }
          ],
          "internalType": "struct IClaim.VRFStruct",
          "name": "v",
          "type": "tuple"
        },
        {
          "internalType": "uint256",
          "name": "randomness",
          "type": "uint256"
        }
      ],
      "name": "fulfillClaimMany",
      "outputs": [],
      "stateMutability": "nonpayable",
      "type": "function"
    },
    {
      "inputs": [
        {
          "internalType": "address",
          "name": "account",
          "type": "address"
        }
      ],
      "name": "getChefsStaked",
      "outputs": [
        {
          "internalType": "uint256",
          "name": "",
          "type": "uint256"
        }
      ],
      "stateMutability": "view",
      "type": "function",
      "constant": true
    },
    {
      "inputs": [
        {
          "internalType": "address",
          "name": "",
          "type": "address"
        },
        {
          "internalType": "address",
          "name": "from",
          "type": "address"
        },
        {
          "internalType": "uint256",
          "name": "",
          "type": "uint256"
        },
        {
          "internalType": "bytes",
          "name": "",
          "type": "bytes"
        }
      ],
      "name": "onERC721Received",
      "outputs": [
        {
          "internalType": "bytes4",
          "name": "",
          "type": "bytes4"
        }
      ],
      "stateMutability": "pure",
      "type": "function",
      "constant": true
    },
    {
      "inputs": [],
      "name": "owner",
      "outputs": [
        {
          "internalType": "address",
          "name": "",
          "type": "address"
        }
      ],
      "stateMutability": "view",
      "type": "function",
      "constant": true
    },
    {
      "inputs": [],
      "name": "pause",
      "outputs": [],
      "stateMutability": "nonpayable",
      "type": "function"
    },
    {
      "inputs": [],
      "name": "paused",
      "outputs": [
        {
          "internalType": "bool",
          "name": "",
          "type": "bool"
        }
      ],
      "stateMutability": "view",
      "type": "function",
      "constant": true
    },
    {
      "inputs": [
        {
          "internalType": "uint256",
          "name": "",
          "type": "uint256"
        }
      ],
      "name": "rats",
      "outputs": [
        {
          "internalType": "uint256",
          "name": "tokenId",
          "type": "uint256"
        },
        {
          "internalType": "address",
          "name": "owner",
          "type": "address"
        },
        {
          "internalType": "uint80",
          "name": "value",
          "type": "uint80"
        },
        {
          "internalType": "uint80",
          "name": "timestamp",
          "type": "uint80"
        }
      ],
      "stateMutability": "view",
      "type": "function",
      "constant": true
    },
    {
      "inputs": [],
      "name": "renounceOwnership",
      "outputs": [],
      "stateMutability": "nonpayable",
      "type": "function"
    },
    {
      "inputs": [
        {
          "internalType": "address",
          "name": "_dao",
          "type": "address"
        }
      ],
      "name": "setDao",
      "outputs": [],
      "stateMutability": "nonpayable",
      "type": "function"
    },
    {
      "inputs": [
        {
          "internalType": "address",
          "name": "account",
          "type": "address"
        },
        {
          "internalType": "uint16[]",
          "name": "tokenIds",
          "type": "uint16[]"
        }
      ],
      "name": "stakeMany",
      "outputs": [],
      "stateMutability": "nonpayable",
      "type": "function"
    },
    {
      "inputs": [
        {
          "internalType": "uint256",
          "name": "",
          "type": "uint256"
        }
      ],
      "name": "stakedGen1",
      "outputs": [
        {
          "internalType": "uint256",
          "name": "",
          "type": "uint256"
        }
      ],
      "stateMutability": "view",
      "type": "function",
      "constant": true
    },
    {
      "inputs": [
        {
          "internalType": "address",
          "name": "",
          "type": "address"
        },
        {
          "internalType": "uint256",
          "name": "",
          "type": "uint256"
        }
      ],
      "name": "stakers",
      "outputs": [
        {
          "internalType": "uint256",
          "name": "",
          "type": "uint256"
        }
      ],
      "stateMutability": "view",
      "type": "function",
      "constant": true
    },
    {
      "inputs": [],
      "name": "totalChefsStaked",
      "outputs": [
        {
          "internalType": "uint256",
          "name": "",
          "type": "uint256"
        }
      ],
      "stateMutability": "view",
      "type": "function",
      "constant": true
    },
    {
      "inputs": [],
      "name": "totalRatsStaked",
      "outputs": [
        {
          "internalType": "uint256",
          "name": "",
          "type": "uint256"
        }
      ],
      "stateMutability": "view",
      "type": "function",
      "constant": true
    },
    {
      "inputs": [
        {
          "internalType": "address",
          "name": "newOwner",
          "type": "address"
        }
      ],
      "name": "transferOwnership",
      "outputs": [],
      "stateMutability": "nonpayable",
      "type": "function"
    },
    {
      "inputs": [],
      "name": "unpause",
      "outputs": [],
      "stateMutability": "nonpayable",
      "type": "function"
    },
    {
      "inputs": [],
      "name": "withdrawPayments",
      "outputs": [],
      "stateMutability": "nonpayable",
      "type": "function"
    },
    {
      "inputs": [
        {
          "internalType": "address",
          "name": "_character",
          "type": "address"
        },
        {
          "internalType": "address",
          "name": "_claim",
          "type": "address"
        },
        {
          "internalType": "uint256",
          "name": "_accrualPeriod",
          "type": "uint256"
        }
      ],
      "name": "initialize",
      "outputs": [],
      "stateMutability": "nonpayable",
      "type": "function"
    },
    {
      "inputs": [
        {
          "internalType": "address",
          "name": "_character",
          "type": "address"
        },
        {
          "internalType": "address",
          "name": "_claim",
          "type": "address"
        },
        {
          "internalType": "address",
          "name": "_gourmetFood",
          "type": "address"
        }
      ],
      "name": "initialize",
      "outputs": [],
      "stateMutability": "nonpayable",
      "type": "function"
    },
    {
      "inputs": [
        {
          "internalType": "uint256",
          "name": "_vestingPeriod",
          "type": "uint256"
        },
        {
          "internalType": "uint256",
          "name": "_accrualPeriod",
          "type": "uint256"
        },
        {
          "internalType": "int8",
          "name": "_dailyFreakRate",
          "type": "int8"
        },
        {
          "internalType": "int8",
          "name": "_dailyBodyMassRate",
          "type": "int8"
        },
        {
          "internalType": "int8",
          "name": "_boostLevel",
          "type": "int8"
        },
        {
          "internalType": "uint256",
          "name": "_entranceFeeGen0",
          "type": "uint256"
        },
        {
          "internalType": "uint256",
          "name": "_entranceFeeGen1",
          "type": "uint256"
        },
        {
          "internalType": "uint256",
          "name": "_maxConcurrentGen1",
          "type": "uint256"
        },
        {
          "internalType": "uint8",
          "name": "_maxClaimsPerTx",
          "type": "uint8"
        },
        {
          "internalType": "uint256",
          "name": "_claimFee",
          "type": "uint256"
        }
      ],
      "name": "configure",
      "outputs": [],
      "stateMutability": "nonpayable",
      "type": "function"
    },
    {
      "inputs": [
        {
          "internalType": "uint256[]",
          "name": "ids",
          "type": "uint256[]"
        }
      ],
      "name": "multiEject",
      "outputs": [],
      "stateMutability": "nonpayable",
      "type": "function"
    },
    {
      "inputs": [],
      "name": "getStakedGen1",
      "outputs": [
        {
          "internalType": "uint256",
          "name": "",
          "type": "uint256"
        }
      ],
      "stateMutability": "view",
      "type": "function",
      "constant": true
    }
  ],
  "bytecode": "0x608060405234801561001057600080fd5b50615ee480620000216000396000f3fe6080604052600436106101665760003560e01c80638456cb59116100d1578063c43bcb9c1161008a578063dbdc1f6b11610064578063dbdc1f6b146104e7578063f266674614610510578063f2fde38b1461053b578063f52dd0b51461056457610166565b8063c43bcb9c14610458578063c4b7eb7014610481578063c8b6cbf7146104aa57610166565b80638456cb591461037d5780638a82279e146103945780638da5cb5b146103bf578063922a1802146103ea578063a7a1029014610413578063c0c53b8b1461042f57610166565b80634c4913ec116101235780634c4913ec1461027e5780634d1c61af146102bb5780635c975abb146102fb5780636103d70b146103265780636637b8821461033d578063715018a61461036657610166565b8063150b7a021461016b5780631794bb3c146101a85780632535a77f146101d157806335ec066e146101fc5780633f4ba83a1461023c578063499f801014610253575b600080fd5b34801561017757600080fd5b50610192600480360381019061018d919061412c565b6105a1565b60405161019f91906141ef565b60405180910390f35b3480156101b457600080fd5b506101cf60048036038101906101ca919061420a565b610624565b005b3480156101dd57600080fd5b506101e6610820565b6040516101f3919061426c565b60405180910390f35b34801561020857600080fd5b50610223600480360381019061021e9190614287565b610826565b60405161023394939291906142e8565b60405180910390f35b34801561024857600080fd5b506102516108a2565b005b34801561025f57600080fd5b506102686108b4565b604051610275919061426c565b60405180910390f35b34801561028a57600080fd5b506102a560048036038101906102a0919061432d565b6108ba565b6040516102b2919061426c565b60405180910390f35b3480156102c757600080fd5b506102e260048036038101906102dd9190614287565b610906565b6040516102f294939291906142e8565b60405180910390f35b34801561030757600080fd5b50610310610982565b60405161031d9190614375565b60405180910390f35b34801561033257600080fd5b5061033b610999565b005b34801561034957600080fd5b50610364600480360381019061035f919061432d565b610a0c565b005b34801561037257600080fd5b5061037b610acc565b005b34801561038957600080fd5b50610392610b54565b005b3480156103a057600080fd5b506103a9610b66565b6040516103b6919061426c565b60405180910390f35b3480156103cb57600080fd5b506103d4610b73565b6040516103e19190614390565b60405180910390f35b3480156103f657600080fd5b50610411600480360381019061040c9190614648565b610b9d565b005b61042d600480360381019061042891906146fa565b611184565b005b34801561043b57600080fd5b506104566004803603810190610451919061475a565b61164a565b005b34801561046457600080fd5b5061047f600480360381019061047a919061481f565b611804565b005b34801561048d57600080fd5b506104a860048036038101906104a391906149c1565b61192b565b005b3480156104b657600080fd5b506104d160048036038101906104cc9190614a0a565b611941565b6040516104de919061426c565b60405180910390f35b3480156104f357600080fd5b5061050e60048036038101906105099190614a4a565b611972565b005b34801561051c57600080fd5b50610525611ff1565b604051610532919061426c565b60405180910390f35b34801561054757600080fd5b50610562600480360381019061055d919061432d565b611ff7565b005b34801561057057600080fd5b5061058b60048036038101906105869190614287565b6120ef565b604051610598919061426c565b60405180910390f35b60008073ffffffffffffffffffffffffffffffffffffffff168573ffffffffffffffffffffffffffffffffffffffff1614610611576040517f08c379a000000000000000000000000000000000000000000000000000000000815260040161060890614b2d565b60405180910390fd5b63150b7a0260e01b905095945050505050565b600060019054906101000a900460ff1661064c5760008054906101000a900460ff1615610655565b610654612113565b5b610694576040517f08c379a000000000000000000000000000000000000000000000000000000000815260040161068b90614bbf565b60405180910390fd5b60008060019054906101000a900460ff1615905080156106e4576001600060016101000a81548160ff02191690831515021790555060016000806101000a81548160ff0219169083151502179055505b6106ec612124565b6106f461217d565b83609860006101000a81548173ffffffffffffffffffffffffffffffffffffffff021916908373ffffffffffffffffffffffffffffffffffffffff16021790555082609960006101000a81548173ffffffffffffffffffffffffffffffffffffffff021916908373ffffffffffffffffffffffffffffffffffffffff1602179055508160a2819055506000609e60006101000a81548160ff021916908360000b60ff1602179055506000609e60016101000a81548160ff021916908360000b60ff1602179055506000609e60026101000a81548160ff021916908360000b60ff1602179055506000609e60036101000a81548160ff021916908360000b60ff160217905550801561081a5760008060016101000a81548160ff0219169083151502179055505b50505050565b60a35481565b609b6020528060005260406000206000915090508060000154908060010160009054906101000a900473ffffffffffffffffffffffffffffffffffffffff16908060010160149054906101000a900469ffffffffffffffffffff16908060020160009054906101000a900469ffffffffffffffffffff16905084565b6108aa6121d6565b6108b2612268565b565b60a05481565b6000609c60008373ffffffffffffffffffffffffffffffffffffffff1673ffffffffffffffffffffffffffffffffffffffff168152602001908152602001600020805490509050919050565b609a6020528060005260406000206000915090508060000154908060010160009054906101000a900473ffffffffffffffffffffffffffffffffffffffff16908060010160149054906101000a900469ffffffffffffffffffff16908060020160009054906101000a900469ffffffffffffffffffff16905084565b6000603360009054906101000a900460ff16905090565b6109a16121d6565b609760009054906101000a900473ffffffffffffffffffffffffffffffffffffffff1673ffffffffffffffffffffffffffffffffffffffff166108fc479081150290604051600060405180830381858888f19350505050158015610a09573d6000803e3d6000fd5b50565b610a1461230a565b73ffffffffffffffffffffffffffffffffffffffff16610a32610b73565b73ffffffffffffffffffffffffffffffffffffffff1614610a88576040517f08c379a0000000000000000000000000000000000000000000000000000000008152600401610a7f90614c2b565b60405180910390fd5b80609760006101000a81548173ffffffffffffffffffffffffffffffffffffffff021916908373ffffffffffffffffffffffffffffffffffffffff16021790555050565b610ad461230a565b73ffffffffffffffffffffffffffffffffffffffff16610af2610b73565b73ffffffffffffffffffffffffffffffffffffffff1614610b48576040517f08c379a0000000000000000000000000000000000000000000000000000000008152600401610b3f90614c2b565b60405180910390fd5b610b526000612312565b565b610b5c6121d6565b610b646123d8565b565b600060a680549050905090565b6000606560009054906101000a900473ffffffffffffffffffffffffffffffffffffffff16905090565b610ba5610982565b15610be5576040517f08c379a0000000000000000000000000000000000000000000000000000000008152600401610bdc90614c97565b60405180910390fd5b609960009054906101000a900473ffffffffffffffffffffffffffffffffffffffff1673ffffffffffffffffffffffffffffffffffffffff163373ffffffffffffffffffffffffffffffffffffffff1614610c75576040517f08c379a0000000000000000000000000000000000000000000000000000000008152600401610c6c90614d03565b60405180910390fd5b6000609d6000846000015181526020019081526020016000208054905011610cd2576040517f08c379a0000000000000000000000000000000000000000000000000000000008152600401610cc990614d6f565b60405180910390fd5b6000609d600084600001518152602001908152602001600020805480602002602001604051908101604052809291908181526020018280548015610d5d57602002820191906000526020600020906000905b82829054906101000a900461ffff1661ffff1681526020019060020190602082600101049283019260010382029150808411610d245790505b50505050509050609d6000846000015181526020019081526020016000206000610d879190613f2c565b6000805b82518110156111655760008482604051602001610da9929190614d8f565b6040516020818303038152906040528051906020012060001c9050610deb848381518110610dda57610dd9614db8565b5b602002602001015161ffff1661247b565b1561110f5760005b609c6000886040015173ffffffffffffffffffffffffffffffffffffffff1673ffffffffffffffffffffffffffffffffffffffff1681526020019081526020016000208054905081101561105857848381518110610e5457610e53614db8565b5b602002602001015161ffff16609c6000896040015173ffffffffffffffffffffffffffffffffffffffff1673ffffffffffffffffffffffffffffffffffffffff1681526020019081526020016000208281548110610eb557610eb4614db8565b5b9060005260206000200154141561104557609c6000886040015173ffffffffffffffffffffffffffffffffffffffff1673ffffffffffffffffffffffffffffffffffffffff1681526020019081526020016000206001609c60008a6040015173ffffffffffffffffffffffffffffffffffffffff1673ffffffffffffffffffffffffffffffffffffffff16815260200190815260200160002080549050610f5c9190614e16565b81548110610f6d57610f6c614db8565b5b9060005260206000200154609c6000896040015173ffffffffffffffffffffffffffffffffffffffff1673ffffffffffffffffffffffffffffffffffffffff1681526020019081526020016000208281548110610fcd57610fcc614db8565b5b9060005260206000200181905550609c6000886040015173ffffffffffffffffffffffffffffffffffffffff1673ffffffffffffffffffffffffffffffffffffffff16815260200190815260200160002080548061102e5761102d614e4a565b5b600190038181906000526020600020016000905590555b808061105090614e79565b915050610df3565b5060006110af8760400151609c60008a6040015173ffffffffffffffffffffffffffffffffffffffff1673ffffffffffffffffffffffffffffffffffffffff1681526020019081526020016000208054905061255a565b905060028114156110c8576110c78760400151612566565b5b6110fc8584815181106110de576110dd614db8565b5b602002602001015161ffff1688604001518960800151600086612569565b846111079190614ec2565b935050611151565b61114384838151811061112557611124614db8565b5b602002602001015161ffff168760400151886080015160008561258c565b8361114e9190614ec2565b92505b50808061115d90614e79565b915050610d8b565b50600081111561117e5761117d8460400151826125af565b5b50505050565b61118c610982565b156111cc576040517f08c379a00000000000000000000000000000000000000000000000000000000081526004016111c390614c97565b60405180910390fd5b6111d461230a565b73ffffffffffffffffffffffffffffffffffffffff163273ffffffffffffffffffffffffffffffffffffffff1614611241576040517f08c379a000000000000000000000000000000000000000000000000000000000815260040161123890614f64565b60405180910390fd5b60a460009054906101000a900460ff1660ff16838390501115611299576040517f08c379a000000000000000000000000000000000000000000000000000000000815260040161129090614fd0565b60405180910390fd5b60a55434146112dd576040517f08c379a00000000000000000000000000000000000000000000000000000000081526004016112d49061503c565b60405180910390fd5b60005b8383905081101561157157600061132185858481811061130357611302614db8565b5b9050602002016020810190611318919061505c565b61ffff1661247b565b61136857609b600086868581811061133c5761133b614db8565b5b9050602002016020810190611351919061505c565b61ffff1681526020019081526020016000206113a7565b609a600086868581811061137f5761137e614db8565b5b9050602002016020810190611394919061505c565b61ffff1681526020019081526020016000205b604051806080016040529081600082015481526020016001820160009054906101000a900473ffffffffffffffffffffffffffffffffffffffff1673ffffffffffffffffffffffffffffffffffffffff1673ffffffffffffffffffffffffffffffffffffffff1681526020016001820160149054906101000a900469ffffffffffffffffffff1669ffffffffffffffffffff1669ffffffffffffffffffff1681526020016002820160009054906101000a900469ffffffffffffffffffff1669ffffffffffffffffffff1669ffffffffffffffffffff1681525050905061148c61230a565b73ffffffffffffffffffffffffffffffffffffffff16816020015173ffffffffffffffffffffffffffffffffffffffff16146114fd576040517f08c379a00000000000000000000000000000000000000000000000000000000081526004016114f4906150d5565b60405180910390fd5b60a154816060015169ffffffffffffffffffff164261151c9190614e16565b101561155d576040517f08c379a000000000000000000000000000000000000000000000000000000000815260040161155490615141565b60405180910390fd5b50808061156990614e79565b9150506112e0565b506000609960009054906101000a900473ffffffffffffffffffffffffffffffffffffffff1673ffffffffffffffffffffffffffffffffffffffff16635bdf263c6115ba61230a565b8686866040518563ffffffff1660e01b81526004016115dc9493929190615224565b6020604051808303816000875af11580156115fb573d6000803e3d6000fd5b505050506040513d601f19601f8201168201806040525081019061161f9190615279565b90508383609d60008481526020019081526020016000209190611643929190613f54565b5050505050565b600060019054906101000a900460ff166116725760008054906101000a900460ff161561167b565b61167a612113565b5b6116ba576040517f08c379a00000000000000000000000000000000000000000000000000000000081526004016116b190614bbf565b60405180910390fd5b60008060019054906101000a900460ff16159050801561170a576001600060016101000a81548160ff02191690831515021790555060016000806101000a81548160ff0219169083151502179055505b611712612124565b61171a61217d565b83609860006101000a81548173ffffffffffffffffffffffffffffffffffffffff021916908373ffffffffffffffffffffffffffffffffffffffff16021790555082609960006101000a81548173ffffffffffffffffffffffffffffffffffffffff021916908373ffffffffffffffffffffffffffffffffffffffff1602179055508160ab60006101000a81548173ffffffffffffffffffffffffffffffffffffffff021916908373ffffffffffffffffffffffffffffffffffffffff16021790555080156117fe5760008060016101000a81548160ff0219169083151502179055505b50505050565b61180c61230a565b73ffffffffffffffffffffffffffffffffffffffff1661182a610b73565b73ffffffffffffffffffffffffffffffffffffffff1614611880576040517f08c379a000000000000000000000000000000000000000000000000000000000815260040161187790614c2b565b60405180910390fd5b8960a1819055508860a28190555087609e60016101000a81548160ff021916908360000b60ff16021790555086609e60036101000a81548160ff021916908360000b60ff1602179055508560a760006101000a81548160ff021916908360000b60ff1602179055508460a8819055508360a9819055508260aa819055508160a460006101000a81548160ff021916908360ff1602179055508060a58190555050505050505050505050565b6119336121d6565b61193e8160016125b3565b50565b609c602052816000526040600020818154811061195d57600080fd5b90600052602060002001600091509150505481565b61197a61230a565b73ffffffffffffffffffffffffffffffffffffffff163273ffffffffffffffffffffffffffffffffffffffff161480156119e657506119b761230a565b73ffffffffffffffffffffffffffffffffffffffff168373ffffffffffffffffffffffffffffffffffffffff16145b80611a455750609860009054906101000a900473ffffffffffffffffffffffffffffffffffffffff1673ffffffffffffffffffffffffffffffffffffffff16611a2d61230a565b73ffffffffffffffffffffffffffffffffffffffff16145b611a84576040517f08c379a0000000000000000000000000000000000000000000000000000000008152600401611a7b90614f64565b60405180910390fd5b60005b82829050811015611feb576000838383818110611aa757611aa6614db8565b5b9050602002016020810190611abc919061505c565b61ffff161415611acb57611fd8565b609860009054906101000a900473ffffffffffffffffffffffffffffffffffffffff1673ffffffffffffffffffffffffffffffffffffffff16611b0c61230a565b73ffffffffffffffffffffffffffffffffffffffff1614611c5f57611b2f61230a565b73ffffffffffffffffffffffffffffffffffffffff16609860009054906101000a900473ffffffffffffffffffffffffffffffffffffffff1673ffffffffffffffffffffffffffffffffffffffff16636352211e858585818110611b9657611b95614db8565b5b9050602002016020810190611bab919061505c565b6040518263ffffffff1660e01b8152600401611bc791906152e1565b602060405180830381865afa158015611be4573d6000803e3d6000fd5b505050506040513d601f19601f82011682018060405250810190611c089190615311565b73ffffffffffffffffffffffffffffffffffffffff1614611c5e576040517f08c379a0000000000000000000000000000000000000000000000000000000008152600401611c55906150d5565b60405180910390fd5b5b611c93838383818110611c7557611c74614db8565b5b9050602002016020810190611c8a919061505c565b61ffff1661281a565b611cd2576040517f08c379a0000000000000000000000000000000000000000000000000000000008152600401611cc99061538a565b60405180910390fd5b611d06838383818110611ce857611ce7614db8565b5b9050602002016020810190611cfd919061505c565b61ffff1661247b565b15611e8557609c60008573ffffffffffffffffffffffffffffffffffffffff1673ffffffffffffffffffffffffffffffffffffffff168152602001908152602001600020838383818110611d5d57611d5c614db8565b5b9050602002016020810190611d72919061505c565b908060018154018082558091505060019003906000526020600020016000909161ffff169091909150556000611df1611da961230a565b609c60008873ffffffffffffffffffffffffffffffffffffffff1673ffffffffffffffffffffffffffffffffffffffff1681526020019081526020016000208054905061255a565b90506000811215611e37576040517f08c379a0000000000000000000000000000000000000000000000000000000008152600401611e2e906153f6565b60405180910390fd5b6000811415611e4a57611e4985612825565b5b611e7f85858585818110611e6157611e60614db8565b5b9050602002016020810190611e76919061505c565b61ffff16612828565b50611ebb565b611eba84848484818110611e9c57611e9b614db8565b5b9050602002016020810190611eb1919061505c565b61ffff16612887565b5b609860009054906101000a900473ffffffffffffffffffffffffffffffffffffffff1673ffffffffffffffffffffffffffffffffffffffff16611efc61230a565b73ffffffffffffffffffffffffffffffffffffffff1614611fd757609860009054906101000a900473ffffffffffffffffffffffffffffffffffffffff1673ffffffffffffffffffffffffffffffffffffffff166323b872dd611f5d61230a565b30868686818110611f7157611f70614db8565b5b9050602002016020810190611f86919061505c565b6040518463ffffffff1660e01b8152600401611fa493929190615416565b600060405180830381600087803b158015611fbe57600080fd5b505af1158015611fd2573d6000803e3d6000fd5b505050505b5b8080611fe390614e79565b915050611a87565b50505050565b609f5481565b611fff61230a565b73ffffffffffffffffffffffffffffffffffffffff1661201d610b73565b73ffffffffffffffffffffffffffffffffffffffff1614612073576040517f08c379a000000000000000000000000000000000000000000000000000000000815260040161206a90614c2b565b60405180910390fd5b600073ffffffffffffffffffffffffffffffffffffffff168173ffffffffffffffffffffffffffffffffffffffff1614156120e3576040517f08c379a00000000000000000000000000000000000000000000000000000000081526004016120da906154bf565b60405180910390fd5b6120ec81612312565b50565b60a681815481106120ff57600080fd5b906000526020600020016000915090505481565b600061211e306128e6565b15905090565b600060019054906101000a900460ff16612173576040517f08c379a000000000000000000000000000000000000000000000000000000000815260040161216a90615551565b60405180910390fd5b61217b612909565b565b600060019054906101000a900460ff166121cc576040517f08c379a00000000000000000000000000000000000000000000000000000000081526004016121c390615551565b60405180910390fd5b6121d461296a565b565b609760009054906101000a900473ffffffffffffffffffffffffffffffffffffffff1673ffffffffffffffffffffffffffffffffffffffff163373ffffffffffffffffffffffffffffffffffffffff1614612266576040517f08c379a000000000000000000000000000000000000000000000000000000000815260040161225d906155bd565b60405180910390fd5b565b612270610982565b6122af576040517f08c379a00000000000000000000000000000000000000000000000000000000081526004016122a690615629565b60405180910390fd5b6000603360006101000a81548160ff0219169083151502179055507f5db9ee0a495bf2e6ff9c91a7834c1ba4fdd244a5e8aa4e537bd38aeae4b073aa6122f361230a565b6040516123009190614390565b60405180910390a1565b600033905090565b6000606560009054906101000a900473ffffffffffffffffffffffffffffffffffffffff16905081606560006101000a81548173ffffffffffffffffffffffffffffffffffffffff021916908373ffffffffffffffffffffffffffffffffffffffff1602179055508173ffffffffffffffffffffffffffffffffffffffff168173ffffffffffffffffffffffffffffffffffffffff167f8be0079c531659141344cd1fd0a4f28419497f9722a3daafe3b4186f6b6457e060405160405180910390a35050565b6123e0610982565b15612420576040517f08c379a000000000000000000000000000000000000000000000000000000000815260040161241790614c97565b60405180910390fd5b6001603360006101000a81548160ff0219169083151502179055507f62e78cea01bee320cd4e420270b5ea74000d11b0c9f74754ebdbfc544b05a25861246461230a565b6040516124719190614390565b60405180910390a1565b6000609860009054906101000a900473ffffffffffffffffffffffffffffffffffffffff1673ffffffffffffffffffffffffffffffffffffffff1663e05c57bf836040518263ffffffff1660e01b81526004016124d8919061426c565b61016060405180830381865afa1580156124f6573d6000803e3d6000fd5b505050506040513d601f19601f8201168201806040525081019061251a9190615688565b9091929394959697985090919293949596975090919293949596509091929394955090919293945090919293509091925090915090505080915050919050565b60006002905092915050565b50565b6000612574866129d6565b6125818686868686612ada565b905095945050505050565b6000612597866129d6565b6125a48686868686612f24565b905095945050505050565b5050565b60005b82518110156128155760006125e48483815181106125d7576125d6614db8565b5b602002602001015161247b565b61261a57609b60008584815181106125ff576125fe614db8565b5b60200260200101518152602001908152602001600020612648565b609a600085848151811061263157612630614db8565b5b602002602001015181526020019081526020016000205b604051806080016040529081600082015481526020016001820160009054906101000a900473ffffffffffffffffffffffffffffffffffffffff1673ffffffffffffffffffffffffffffffffffffffff1673ffffffffffffffffffffffffffffffffffffffff1681526020016001820160149054906101000a900469ffffffffffffffffffff1669ffffffffffffffffffff1669ffffffffffffffffffff1681526020016002820160009054906101000a900469ffffffffffffffffffff1669ffffffffffffffffffff1669ffffffffffffffffffff1681525050905060a154816060015169ffffffffffffffffffff16426127449190614e16565b10158061274e5750825b156128015761277684838151811061276957612768614db8565b5b602002602001015161247b565b156127ae576127a884838151811061279157612790614db8565b5b602002602001015182602001516001600080612569565b506127dd565b6127db8483815181106127c4576127c3614db8565b5b60200260200101518260200151600160008061258c565b505b6128008483815181106127f3576127f2614db8565b5b60200260200101516129d6565b5b50808061280d90614e79565b9150506125b6565b505050565b600060019050919050565b50565b612830610982565b15612870576040517f08c379a000000000000000000000000000000000000000000000000000000000815260040161286790614c97565b60405180910390fd5b61287981613370565b612883828261357f565b5050565b61288f610982565b156128cf576040517f08c379a00000000000000000000000000000000000000000000000000000000081526004016128c690614c97565b60405180910390fd5b6128d881613370565b6128e2828261373e565b5050565b6000808273ffffffffffffffffffffffffffffffffffffffff163b119050919050565b600060019054906101000a900460ff16612958576040517f08c379a000000000000000000000000000000000000000000000000000000000815260040161294f90615551565b60405180910390fd5b61296861296361230a565b612312565b565b600060019054906101000a900460ff166129b9576040517f08c379a00000000000000000000000000000000000000000000000000000000081526004016129b090615551565b60405180910390fd5b6000603360006101000a81548160ff021916908315150217905550565b60005b60a680549050811015612a9a578160a682815481106129fb576129fa614db8565b5b90600052602060002001541415612a875760a6600160a680549050612a209190614e16565b81548110612a3157612a30614db8565b5b906000526020600020015460a68281548110612a5057612a4f614db8565b5b906000526020600020018190555060a6805480612a7057612a6f614e4a565b5b600190038181906000526020600020016000905590555b8080612a9290614e79565b9150506129d9565b507f7d4a6d69eb84044f4d9f547722787c2359e98a01482b3eb1e016cfdeef45830c60a680549050604051612acf919061426c565b60405180910390a150565b600080609a6000888152602001908152602001600020604051806080016040529081600082015481526020016001820160009054906101000a900473ffffffffffffffffffffffffffffffffffffffff1673ffffffffffffffffffffffffffffffffffffffff1673ffffffffffffffffffffffffffffffffffffffff1681526020016001820160149054906101000a900469ffffffffffffffffffff1669ffffffffffffffffffff1669ffffffffffffffffffff1681526020016002820160009054906101000a900469ffffffffffffffffffff1669ffffffffffffffffffff1669ffffffffffffffffffff168152505090508573ffffffffffffffffffffffffffffffffffffffff16816020015173ffffffffffffffffffffffffffffffffffffffff1614612c3f576040517f08c379a0000000000000000000000000000000000000000000000000000000008152600401612c36906150d5565b60405180910390fd5b83612c5257612c4d81613901565b612c55565b60005b91506000806000612c668a87613908565b925092509250612c758a61281a565b612c7e57600197505b8715612db157609a60008b81526020019081526020016000206000808201600090556001820160006101000a81549073ffffffffffffffffffffffffffffffffffffffff02191690556001820160146101000a81549069ffffffffffffffffffff02191690556002820160006101000a81549069ffffffffffffffffffff02191690555050609f6000815480929190612d169061577c565b9190505550609860009054906101000a900473ffffffffffffffffffffffffffffffffffffffff1673ffffffffffffffffffffffffffffffffffffffff1663b88d4fde308b8d6040518463ffffffff1660e01b8152600401612d7a939291906157dd565b600060405180830381600087803b158015612d9457600080fd5b505af1158015612da8573d6000803e3d6000fd5b50505050612ed2565b60405180608001604052808b61ffff1681526020018a73ffffffffffffffffffffffffffffffffffffffff1681526020014269ffffffffffffffffffff1681526020014269ffffffffffffffffffff16815250609a60008c81526020019081526020016000206000820151816000015560208201518160010160006101000a81548173ffffffffffffffffffffffffffffffffffffffff021916908373ffffffffffffffffffffffffffffffffffffffff16021790555060408201518160010160146101000a81548169ffffffffffffffffffff021916908369ffffffffffffffffffff16021790555060608201518160020160006101000a81548169ffffffffffffffffffff021916908369ffffffffffffffffffff1602179055509050505b7f9b394c66bc4fdb2f56f5842a796076e6552d6f15eaacb6e63e3c53b474d872e98a868a86868660a354604051612f0f97969594939291906158ad565b60405180910390a15050505095945050505050565b600080609b6000888152602001908152602001600020604051806080016040529081600082015481526020016001820160009054906101000a900473ffffffffffffffffffffffffffffffffffffffff1673ffffffffffffffffffffffffffffffffffffffff1673ffffffffffffffffffffffffffffffffffffffff1681526020016001820160149054906101000a900469ffffffffffffffffffff1669ffffffffffffffffffff1669ffffffffffffffffffff1681526020016002820160009054906101000a900469ffffffffffffffffffff1669ffffffffffffffffffff1669ffffffffffffffffffff168152505090508573ffffffffffffffffffffffffffffffffffffffff16816020015173ffffffffffffffffffffffffffffffffffffffff1614613089576040517f08c379a0000000000000000000000000000000000000000000000000000000008152600401613080906150d5565b60405180910390fd5b8361309c5761309781613b29565b61309f565b60005b915060008060006130b08a87613908565b9250925092506130bf8a61281a565b6130c857600197505b87156131fb57609b60008b81526020019081526020016000206000808201600090556001820160006101000a81549073ffffffffffffffffffffffffffffffffffffffff02191690556001820160146101000a81549069ffffffffffffffffffff02191690556002820160006101000a81549069ffffffffffffffffffff0219169055505060a060008154809291906131609061577c565b9190505550609860009054906101000a900473ffffffffffffffffffffffffffffffffffffffff1673ffffffffffffffffffffffffffffffffffffffff1663b88d4fde308b8d6040518463ffffffff1660e01b81526004016131c4939291906157dd565b600060405180830381600087803b1580156131de57600080fd5b505af11580156131f2573d6000803e3d6000fd5b5050505061331e565b60405180608001604052808b61ffff1681526020018a73ffffffffffffffffffffffffffffffffffffffff16815260200160a35469ffffffffffffffffffff1681526020014269ffffffffffffffffffff16815250609b60008c81526020019081526020016000206000820151816000015560208201518160010160006101000a81548173ffffffffffffffffffffffffffffffffffffffff021916908373ffffffffffffffffffffffffffffffffffffffff16021790555060408201518160010160146101000a81548169ffffffffffffffffffff021916908369ffffffffffffffffffff16021790555060608201518160020160006101000a81548169ffffffffffffffffffff021916908369ffffffffffffffffffff1602179055509050505b7f9be2cb7a62ca4aefdc81da57f848805cc67c86675da32b5a7be58bb615ba4f328a868a86868660a35460405161335b97969594939291906158ad565b60405180910390a15050505095945050505050565b6133cb60a68054806020026020016040519081016040528092919081815260200182805480156133bf57602002820191906000526020600020905b8154815260200190600101908083116133ab575b505050505060006125b3565b6133d481613b30565b6134ce576133e0613bcd565b61341f576040517f08c379a00000000000000000000000000000000000000000000000000000000081526004016134169061596f565b60405180910390fd5b60aa5460a68054905010613468576040517f08c379a000000000000000000000000000000000000000000000000000000000815260040161345f906159db565b60405180910390fd5b60a68190806001815401808255809150506001900390600052602060002001600090919091909150557f7d4a6d69eb84044f4d9f547722787c2359e98a01482b3eb1e016cfdeef45830c60a6805490506040516134c5919061426c565b60405180910390a15b60ab60009054906101000a900473ffffffffffffffffffffffffffffffffffffffff1673ffffffffffffffffffffffffffffffffffffffff16639dc29fac61351461230a565b61351d84613b30565b6135295760a95461352d565b60a8545b6040518363ffffffff1660e01b815260040161354a9291906159fb565b600060405180830381600087803b15801561356457600080fd5b505af1158015613578573d6000803e3d6000fd5b5050505050565b613587610982565b156135c7576040517f08c379a00000000000000000000000000000000000000000000000000000000081526004016135be90614c97565b60405180910390fd5b60405180608001604052808261ffff1681526020018373ffffffffffffffffffffffffffffffffffffffff1681526020014269ffffffffffffffffffff1681526020014269ffffffffffffffffffff16815250609a60008381526020019081526020016000206000820151816000015560208201518160010160006101000a81548173ffffffffffffffffffffffffffffffffffffffff021916908373ffffffffffffffffffffffffffffffffffffffff16021790555060408201518160010160146101000a81548169ffffffffffffffffffff021916908369ffffffffffffffffffff16021790555060608201518160020160006101000a81548169ffffffffffffffffffff021916908369ffffffffffffffffffff160217905550905050609f60008154809291906136fa90614e79565b91905055507f8af1bb49fb16c7835975aa59449ba4328dd54737dfb2ae9fa6c5eca71fda51f981834260405161373293929190615a24565b60405180910390a15050565b613746610982565b15613786576040517f08c379a000000000000000000000000000000000000000000000000000000000815260040161377d90614c97565b60405180910390fd5b60405180608001604052808261ffff1681526020018373ffffffffffffffffffffffffffffffffffffffff16815260200160a35469ffffffffffffffffffff1681526020014269ffffffffffffffffffff16815250609b60008381526020019081526020016000206000820151816000015560208201518160010160006101000a81548173ffffffffffffffffffffffffffffffffffffffff021916908373ffffffffffffffffffffffffffffffffffffffff16021790555060408201518160010160146101000a81548169ffffffffffffffffffff021916908369ffffffffffffffffffff16021790555060608201518160020160006101000a81548169ffffffffffffffffffff021916908369ffffffffffffffffffff16021790555090505060a060008154809291906138bb90614e79565b91905055507f8af1bb49fb16c7835975aa59449ba4328dd54737dfb2ae9fa6c5eca71fda51f9818360a3546040516138f593929190615a24565b60405180910390a15050565b6000919050565b60008060606000609860009054906101000a900473ffffffffffffffffffffffffffffffffffffffff1673ffffffffffffffffffffffffffffffffffffffff1663e05c57bf876040518263ffffffff1660e01b815260040161396a919061426c565b61016060405180830381865afa158015613988573d6000803e3d6000fd5b505050506040513d601f19601f820116820180604052508101906139ac9190615688565b9a5050505050505050505050609860009054906101000a900473ffffffffffffffffffffffffffffffffffffffff1673ffffffffffffffffffffffffffffffffffffffff16637856f9456040518163ffffffff1660e01b8152600401602060405180830381865afa158015613a25573d6000803e3d6000fd5b505050506040513d601f19601f82011682018060405250810190613a499190615a70565b8611158015613a6d575060a760009054906101000a900460000b60000b8160000b14155b15613b1157609860009054906101000a900473ffffffffffffffffffffffffffffffffffffffff1673ffffffffffffffffffffffffffffffffffffffff1663bfec98aa8760a760009054906101000a900460000b6040518363ffffffff1660e01b8152600401613ade929190615aac565b600060405180830381600087803b158015613af857600080fd5b505af1158015613b0c573d6000803e3d6000fd5b505050505b613b1b8686613bfc565b935093509350509250925092565b6000919050565b6000609860009054906101000a900473ffffffffffffffffffffffffffffffffffffffff1673ffffffffffffffffffffffffffffffffffffffff16637856f9456040518163ffffffff1660e01b8152600401602060405180830381865afa158015613b9f573d6000803e3d6000fd5b505050506040513d601f19601f82011682018060405250810190613bc39190615a70565b8211159050919050565b60008062093a8042613bdf9190615b04565b90506203f4808110158015613bf657506205460081105b91505090565b6000806060600080609860009054906101000a900473ffffffffffffffffffffffffffffffffffffffff1673ffffffffffffffffffffffffffffffffffffffff1663e05c57bf886040518263ffffffff1660e01b8152600401613c5f919061426c565b61016060405180830381865afa158015613c7d573d6000803e3d6000fd5b505050506040513d601f19601f82011682018060405250810190613ca19190615688565b9a505050505050505050509150600082613ce757609b600089815260200190815260200160002060020160009054906101000a900469ffffffffffffffffffff16613d15565b609a600089815260200190815260200160002060020160009054906101000a900469ffffffffffffffffffff165b69ffffffffffffffffffff1642613d2c9190614e16565b9050609860009054906101000a900473ffffffffffffffffffffffffffffffffffffffff1673ffffffffffffffffffffffffffffffffffffffff166363dbfc7789613da286613d8a57609e60029054906101000a900460000b613d9b565b609e60009054906101000a900460000b5b8587613e6a565b613dd887613dbf57609e60039054906101000a900460000b613dd0565b609e60019054906101000a900460000b5b866000613e6a565b613de0613f27565b613deb576000613ded565b8b5b6040518563ffffffff1660e01b8152600401613e0c9493929190615b35565b6000604051808303816000875af1158015613e2b573d6000803e3d6000fd5b505050506040513d6000823e3d601f19601f82011682018060405250810190613e549190615c20565b8096508197508298505050505050509250925092565b600060a254831115613e7c5760a25492505b600060a2548560000b85613e909190615c99565b613e9a9190615db0565b905060a2548410613eb7578260000b81613eb49190615e1a565b90505b6064811315613eca576064915050613f20565b7fffffffffffffffffffffffffffffffffffffffffffffffffffffffffffffff9c811215613f1b577fffffffffffffffffffffffffffffffffffffffffffffffffffffffffffffff9c915050613f20565b809150505b9392505050565b600090565b50805460008255600f016010900490600052602060002090810190613f519190614002565b50565b82805482825590600052602060002090600f01601090048101928215613ff15791602002820160005b83821115613fc157833561ffff1683826101000a81548161ffff021916908361ffff1602179055509260200192600201602081600101049283019260010302613f7d565b8015613fef5782816101000a81549061ffff0219169055600201602081600101049283019260010302613fc1565b505b509050613ffe9190614002565b5090565b5b8082111561401b576000816000905550600101614003565b5090565b6000604051905090565b600080fd5b600080fd5b600073ffffffffffffffffffffffffffffffffffffffff82169050919050565b600061405e82614033565b9050919050565b61406e81614053565b811461407957600080fd5b50565b60008135905061408b81614065565b92915050565b6000819050919050565b6140a481614091565b81146140af57600080fd5b50565b6000813590506140c18161409b565b92915050565b600080fd5b600080fd5b600080fd5b60008083601f8401126140ec576140eb6140c7565b5b8235905067ffffffffffffffff811115614109576141086140cc565b5b602083019150836001820283011115614125576141246140d1565b5b9250929050565b60008060008060006080868803121561414857614147614029565b5b60006141568882890161407c565b95505060206141678882890161407c565b9450506040614178888289016140b2565b935050606086013567ffffffffffffffff8111156141995761419861402e565b5b6141a5888289016140d6565b92509250509295509295909350565b60007fffffffff0000000000000000000000000000000000000000000000000000000082169050919050565b6141e9816141b4565b82525050565b600060208201905061420460008301846141e0565b92915050565b60008060006060848603121561422357614222614029565b5b60006142318682870161407c565b93505060206142428682870161407c565b9250506040614253868287016140b2565b9150509250925092565b61426681614091565b82525050565b6000602082019050614281600083018461425d565b92915050565b60006020828403121561429d5761429c614029565b5b60006142ab848285016140b2565b91505092915050565b6142bd81614053565b82525050565b600069ffffffffffffffffffff82169050919050565b6142e2816142c3565b82525050565b60006080820190506142fd600083018761425d565b61430a60208301866142b4565b61431760408301856142d9565b61432460608301846142d9565b95945050505050565b60006020828403121561434357614342614029565b5b60006143518482850161407c565b91505092915050565b60008115159050919050565b61436f8161435a565b82525050565b600060208201905061438a6000830184614366565b92915050565b60006020820190506143a560008301846142b4565b92915050565b600080fd5b6000601f19601f8301169050919050565b7f4e487b7100000000000000000000000000000000000000000000000000000000600052604160045260246000fd5b6143f9826143b0565b810181811067ffffffffffffffff82111715614418576144176143c1565b5b80604052505050565b600061442b61401f565b905061443782826143f0565b919050565b600080fd5b6000819050919050565b61445481614441565b811461445f57600080fd5b50565b6000813590506144718161444b565b92915050565b600067ffffffffffffffff821115614492576144916143c1565b5b602082029050602081019050919050565b600061ffff82169050919050565b6144ba816144a3565b81146144c557600080fd5b50565b6000813590506144d7816144b1565b92915050565b60006144f06144eb84614477565b614421565b90508083825260208201905060208402830185811115614513576145126140d1565b5b835b8181101561453c578061452888826144c8565b845260208401935050602081019050614515565b5050509392505050565b600082601f83011261455b5761455a6140c7565b5b813561456b8482602086016144dd565b91505092915050565b61457d8161435a565b811461458857600080fd5b50565b60008135905061459a81614574565b92915050565b600060a082840312156145b6576145b56143ab565b5b6145c060a0614421565b905060006145d084828501614462565b60008301525060206145e48482850161407c565b60208301525060406145f88482850161407c565b604083015250606082013567ffffffffffffffff81111561461c5761461b61443c565b5b61462884828501614546565b606083015250608061463c8482850161458b565b60808301525092915050565b6000806040838503121561465f5761465e614029565b5b600083013567ffffffffffffffff81111561467d5761467c61402e565b5b614689858286016145a0565b925050602061469a858286016140b2565b9150509250929050565b60008083601f8401126146ba576146b96140c7565b5b8235905067ffffffffffffffff8111156146d7576146d66140cc565b5b6020830191508360208202830111156146f3576146f26140d1565b5b9250929050565b60008060006040848603121561471357614712614029565b5b600084013567ffffffffffffffff8111156147315761473061402e565b5b61473d868287016146a4565b935093505060206147508682870161458b565b9150509250925092565b60008060006060848603121561477357614772614029565b5b60006147818682870161407c565b93505060206147928682870161407c565b92505060406147a38682870161407c565b9150509250925092565b60008160000b9050919050565b6147c3816147ad565b81146147ce57600080fd5b50565b6000813590506147e0816147ba565b92915050565b600060ff82169050919050565b6147fc816147e6565b811461480757600080fd5b50565b600081359050614819816147f3565b92915050565b6000806000806000806000806000806101408b8d03121561484357614842614029565b5b60006148518d828e016140b2565b9a505060206148628d828e016140b2565b99505060406148738d828e016147d1565b98505060606148848d828e016147d1565b97505060806148958d828e016147d1565b96505060a06148a68d828e016140b2565b95505060c06148b78d828e016140b2565b94505060e06148c88d828e016140b2565b9350506101006148da8d828e0161480a565b9250506101206148ec8d828e016140b2565b9150509295989b9194979a5092959850565b600067ffffffffffffffff821115614919576149186143c1565b5b602082029050602081019050919050565b600061493d614938846148fe565b614421565b905080838252602082019050602084028301858111156149605761495f6140d1565b5b835b81811015614989578061497588826140b2565b845260208401935050602081019050614962565b5050509392505050565b600082601f8301126149a8576149a76140c7565b5b81356149b884826020860161492a565b91505092915050565b6000602082840312156149d7576149d6614029565b5b600082013567ffffffffffffffff8111156149f5576149f461402e565b5b614a0184828501614993565b91505092915050565b60008060408385031215614a2157614a20614029565b5b6000614a2f8582860161407c565b9250506020614a40858286016140b2565b9150509250929050565b600080600060408486031215614a6357614a62614029565b5b6000614a718682870161407c565b935050602084013567ffffffffffffffff811115614a9257614a9161402e565b5b614a9e868287016146a4565b92509250509250925092565b600082825260208201905092915050565b7f43616e6e6f742073656e6420746f6b656e7320746f2056656e7565206469726560008201527f63746c7900000000000000000000000000000000000000000000000000000000602082015250565b6000614b17602483614aaa565b9150614b2282614abb565b604082019050919050565b60006020820190508181036000830152614b4681614b0a565b9050919050565b7f496e697469616c697a61626c653a20636f6e747261637420697320616c72656160008201527f647920696e697469616c697a6564000000000000000000000000000000000000602082015250565b6000614ba9602e83614aaa565b9150614bb482614b4d565b604082019050919050565b60006020820190508181036000830152614bd881614b9c565b9050919050565b7f4f776e61626c653a2063616c6c6572206973206e6f7420746865206f776e6572600082015250565b6000614c15602083614aaa565b9150614c2082614bdf565b602082019050919050565b60006020820190508181036000830152614c4481614c08565b9050919050565b7f5061757361626c653a2070617573656400000000000000000000000000000000600082015250565b6000614c81601083614aaa565b9150614c8c82614c4b565b602082019050919050565b60006020820190508181036000830152614cb081614c74565b9050919050565b7f4f6e6c7920436c61696d2063616e2066756c66696c6c00000000000000000000600082015250565b6000614ced601683614aaa565b9150614cf882614cb7565b602082019050919050565b60006020820190508181036000830152614d1c81614ce0565b9050919050565b7f436c61696d2072657175657374206e6f7420666f756e64000000000000000000600082015250565b6000614d59601783614aaa565b9150614d6482614d23565b602082019050919050565b60006020820190508181036000830152614d8881614d4c565b9050919050565b6000604082019050614da4600083018561425d565b614db1602083018461425d565b9392505050565b7f4e487b7100000000000000000000000000000000000000000000000000000000600052603260045260246000fd5b7f4e487b7100000000000000000000000000000000000000000000000000000000600052601160045260246000fd5b6000614e2182614091565b9150614e2c83614091565b925082821015614e3f57614e3e614de7565b5b828203905092915050565b7f4e487b7100000000000000000000000000000000000000000000000000000000600052603160045260246000fd5b6000614e8482614091565b91507fffffffffffffffffffffffffffffffffffffffffffffffffffffffffffffffff821415614eb757614eb6614de7565b5b600182019050919050565b6000614ecd82614091565b9150614ed883614091565b9250827fffffffffffffffffffffffffffffffffffffffffffffffffffffffffffffffff03821115614f0d57614f0c614de7565b5b828201905092915050565b7f454f41206f6e6c79000000000000000000000000000000000000000000000000600082015250565b6000614f4e600883614aaa565b9150614f5982614f18565b602082019050919050565b60006020820190508181036000830152614f7d81614f41565b9050919050565b7f496e76616c696420636c61696d20616d6f756e74000000000000000000000000600082015250565b6000614fba601483614aaa565b9150614fc582614f84565b602082019050919050565b60006020820190508181036000830152614fe981614fad565b9050919050565b7f496e76616c696420636c61696d20666565000000000000000000000000000000600082015250565b6000615026601183614aaa565b915061503182614ff0565b602082019050919050565b6000602082019050818103600083015261505581615019565b9050919050565b60006020828403121561507257615071614029565b5b6000615080848285016144c8565b91505092915050565b7f4e6f7420796f757220746f6b656e000000000000000000000000000000000000600082015250565b60006150bf600e83614aaa565b91506150ca82615089565b602082019050919050565b600060208201905081810360008301526150ee816150b2565b9050919050565b7f43616e6e6f7420636c61696d206265666f726520454f42000000000000000000600082015250565b600061512b601783614aaa565b9150615136826150f5565b602082019050919050565b6000602082019050818103600083015261515a8161511e565b9050919050565b600082825260208201905092915050565b6000819050919050565b615185816144a3565b82525050565b6000615197838361517c565b60208301905092915050565b60006151b260208401846144c8565b905092915050565b6000602082019050919050565b60006151d38385615161565b93506151de82615172565b8060005b85811015615217576151f482846151a3565b6151fe888261518b565b9750615209836151ba565b9250506001810190506151e2565b5085925050509392505050565b600060608201905061523960008301876142b4565b818103602083015261524c8185876151c7565b905061525b6040830184614366565b95945050505050565b6000815190506152738161444b565b92915050565b60006020828403121561528f5761528e614029565b5b600061529d84828501615264565b91505092915050565b6000819050919050565b60006152cb6152c66152c1846144a3565b6152a6565b614091565b9050919050565b6152db816152b0565b82525050565b60006020820190506152f660008301846152d2565b92915050565b60008151905061530b81614065565b92915050565b60006020828403121561532757615326614029565b5b6000615335848285016152fc565b91505092915050565b7f4e6f7420656c696769626c650000000000000000000000000000000000000000600082015250565b6000615374600c83614aaa565b915061537f8261533e565b602082019050919050565b600060208201905081810360008301526153a381615367565b9050919050565b7f4b69746368656e20737061636520726571756972656400000000000000000000600082015250565b60006153e0601683614aaa565b91506153eb826153aa565b602082019050919050565b6000602082019050818103600083015261540f816153d3565b9050919050565b600060608201905061542b60008301866142b4565b61543860208301856142b4565b61544560408301846152d2565b949350505050565b7f4f776e61626c653a206e6577206f776e657220697320746865207a65726f206160008201527f6464726573730000000000000000000000000000000000000000000000000000602082015250565b60006154a9602683614aaa565b91506154b48261544d565b604082019050919050565b600060208201905081810360008301526154d88161549c565b9050919050565b7f496e697469616c697a61626c653a20636f6e7472616374206973206e6f74206960008201527f6e697469616c697a696e67000000000000000000000000000000000000000000602082015250565b600061553b602b83614aaa565b9150615546826154df565b604082019050919050565b6000602082019050818103600083015261556a8161552e565b9050919050565b7f4f6e6c792044414f2063616e2065786563757465000000000000000000000000600082015250565b60006155a7601483614aaa565b91506155b282615571565b602082019050919050565b600060208201905081810360008301526155d68161559a565b9050919050565b7f5061757361626c653a206e6f7420706175736564000000000000000000000000600082015250565b6000615613601483614aaa565b915061561e826155dd565b602082019050919050565b6000602082019050818103600083015261564281615606565b9050919050565b60008151905061565881614574565b92915050565b60008151905061566d816147f3565b92915050565b600081519050615682816147ba565b92915050565b60008060008060008060008060008060006101608c8e0312156156ae576156ad614029565b5b60006156bc8e828f01615649565b9b505060206156cd8e828f0161565e565b9a505060406156de8e828f0161565e565b99505060606156ef8e828f0161565e565b98505060806157008e828f0161565e565b97505060a06157118e828f0161565e565b96505060c06157228e828f0161565e565b95505060e06157338e828f0161565e565b9450506101006157458e828f0161565e565b9350506101206157578e828f0161565e565b9250506101406157698e828f01615673565b9150509295989b509295989b9093969950565b600061578782614091565b9150600082141561579b5761579a614de7565b5b600182039050919050565b600082825260208201905092915050565b50565b60006157c76000836157a6565b91506157d2826157b7565b600082019050919050565b60006080820190506157f260008301866142b4565b6157ff60208301856142b4565b61580c604083018461425d565b818103606083015261581d816157ba565b9050949350505050565b615830816147e6565b82525050565b600081519050919050565b60005b8381101561585f578082015181840152602081019050615844565b8381111561586e576000848401525b50505050565b600061587f82615836565b6158898185614aaa565b9350615899818560208601615841565b6158a2816143b0565b840191505092915050565b600060e0820190506158c2600083018a61425d565b6158cf602083018961425d565b6158dc6040830188614366565b6158e96060830187615827565b6158f66080830186615827565b81810360a08301526159088185615874565b905061591760c083018461425d565b98975050505050505050565b7f47656e30206f6e6c790000000000000000000000000000000000000000000000600082015250565b6000615959600983614aaa565b915061596482615923565b602082019050919050565b600060208201905081810360008301526159888161594c565b9050919050565b7f47656e31206c696d697420726561636865640000000000000000000000000000600082015250565b60006159c5601283614aaa565b91506159d08261598f565b602082019050919050565b600060208201905081810360008301526159f4816159b8565b9050919050565b6000604082019050615a1060008301856142b4565b615a1d602083018461425d565b9392505050565b6000606082019050615a39600083018661425d565b615a4660208301856142b4565b615a53604083018461425d565b949350505050565b600081519050615a6a8161409b565b92915050565b600060208284031215615a8657615a85614029565b5b6000615a9484828501615a5b565b91505092915050565b615aa6816147ad565b82525050565b6000604082019050615ac1600083018561425d565b615ace6020830184615a9d565b9392505050565b7f4e487b7100000000000000000000000000000000000000000000000000000000600052601260045260246000fd5b6000615b0f82614091565b9150615b1a83614091565b925082615b2a57615b29615ad5565b5b828206905092915050565b6000608082019050615b4a600083018761425d565b615b576020830186615a9d565b615b646040830185615a9d565b615b71606083018461425d565b95945050505050565b600080fd5b600067ffffffffffffffff821115615b9a57615b996143c1565b5b615ba3826143b0565b9050602081019050919050565b6000615bc3615bbe84615b7f565b614421565b905082815260208101848484011115615bdf57615bde615b7a565b5b615bea848285615841565b509392505050565b600082601f830112615c0757615c066140c7565b5b8151615c17848260208601615bb0565b91505092915050565b600080600060608486031215615c3957615c38614029565b5b6000615c478682870161565e565b9350506020615c588682870161565e565b925050604084015167ffffffffffffffff811115615c7957615c7861402e565b5b615c8586828701615bf2565b9150509250925092565b6000819050919050565b6000615ca482615c8f565b9150615caf83615c8f565b9250827f7fffffffffffffffffffffffffffffffffffffffffffffffffffffffffffffff0482116000841360008413161615615cee57615ced614de7565b5b817f80000000000000000000000000000000000000000000000000000000000000000583126000841260008413161615615d2b57615d2a614de7565b5b827f80000000000000000000000000000000000000000000000000000000000000000582126000841360008412161615615d6857615d67614de7565b5b827f7fffffffffffffffffffffffffffffffffffffffffffffffffffffffffffffff0582126000841260008412161615615da557615da4614de7565b5b828202905092915050565b6000615dbb82615c8f565b9150615dc683615c8f565b925082615dd657615dd5615ad5565b5b600160000383147f800000000000000000000000000000000000000000000000000000000000000083141615615e0f57615e0e614de7565b5b828205905092915050565b6000615e2582615c8f565b9150615e3083615c8f565b9250817f7fffffffffffffffffffffffffffffffffffffffffffffffffffffffffffffff03831360008312151615615e6b57615e6a614de7565b5b817f8000000000000000000000000000000000000000000000000000000000000000038312600083121615615ea357615ea2614de7565b5b82820190509291505056fea2646970667358221220295ce7567c42b8e04d38a7271d96ccf47746856bcc0bea53f2411e954e636e3264736f6c634300080a0033",
  "immutableReferences": {},
  "source": "// SPDX-License-Identifier: MIT\n\npragma solidity ^0.8.0;\n\nimport \"./VenueV2.sol\";\nimport \"./GourmetFood.sol\";\n\ncontract TripleFiveClub is VenueV2 {\n  event StakedGen1(uint256 value);\n\n  uint256[] public stakedGen1; // Maps generation (0 | 1) to array of Character IDs\n  int8 boostLevel;\n  uint256 entranceFeeGen0;\n  uint256 entranceFeeGen1;\n  uint256 maxConcurrentGen1;\n  GourmetFood gourmetFood; // Reference to the $GFOOD contract\n\n  function initialize(\n    address _character,\n    address _claim,\n    address _gourmetFood\n  ) external initializer {\n    __Ownable_init();\n    __Pausable_init();\n\n    character = CharacterV2(_character);\n    claim = IClaim(_claim);\n    gourmetFood = GourmetFood(_gourmetFood);\n  }\n\n  /**\n   * Allows DAO to update game parameters\n   */\n  function configure(\n    uint256 _vestingPeriod,\n    uint256 _accrualPeriod,\n    int8 _dailyFreakRate,\n    int8 _dailyBodyMassRate,\n    int8 _boostLevel,\n    uint256 _entranceFeeGen0,\n    uint256 _entranceFeeGen1,\n    uint256 _maxConcurrentGen1,\n    uint8 _maxClaimsPerTx,\n    uint256 _claimFee\n  ) external onlyOwner {\n    vestingPeriod = _vestingPeriod;\n    accrualPeriod = _accrualPeriod;\n    dailyFreakRate = _dailyFreakRate;\n    dailyBodyMassRate = _dailyBodyMassRate;\n    boostLevel = _boostLevel;\n    entranceFeeGen0 = _entranceFeeGen0;\n    entranceFeeGen1 = _entranceFeeGen1;\n    maxConcurrentGen1 = _maxConcurrentGen1;\n    maxClaimsPerTx = _maxClaimsPerTx;\n    claimFee = _claimFee;\n  }\n\n  /**\n   * Checks if the token is Generation 0\n   * @param tokenId - The ID of the token to check\n   * @return true if it's a Gen0 token\n   */\n  function _isGen0(uint256 tokenId) internal view returns(bool) {\n    return tokenId <= character.getGen0Tokens();\n  }\n\n  /**\n   * Checks if we are within an open door period\n   * @return true during open door periods\n   */\n  function _isOpenForPublic() internal view returns(bool) {\n    uint256 weekModulo = block.timestamp % 604800;\n    return weekModulo >= 259200 && weekModulo < 345600; // All Sunday long (UTC)\n  }\n\n  /**\n   * Find and remove the token ID from the stakedGen1 array\n   * @param tokenId - The ID of the token\n   */\n  function _removeFromGen1(uint256 tokenId) internal {\n    for (uint i = 0; i < stakedGen1.length; i++) {\n      if (stakedGen1[i] == tokenId) {\n        stakedGen1[i] = stakedGen1[stakedGen1.length - 1];\n        stakedGen1.pop();\n      }\n    }\n    emit StakedGen1(stakedGen1.length);\n  }\n\n  /**\n   * Make room for other Gen1s by ejecting all Gen1 tokens that have reached their vesting period\n   * @param ids - The IDs of the tokens in question\n   * @param overrideVesting - If true, the vesting period is disregarded (used by DAO)\n   *\n   */\n  function _ejectIfVested(uint256[] memory ids, bool overrideVesting) internal {\n    for (uint i = 0; i < ids.length; i++) {\n      Stake memory stake = isChef(ids[i]) ? chefs[ids[i]] : rats[ids[i]];\n      if (block.timestamp - stake.timestamp >= vestingPeriod || overrideVesting) {\n        if (isChef(ids[i])) {\n          _claimChef(ids[i], stake.owner, true, false, 0);\n        } else {\n          _claimRat(ids[i], stake.owner, true, false, 0);\n        }\n        _removeFromGen1(ids[i]);\n      }\n    }\n  }\n\n  /**\n   * DAO function to force-unstake all tokens and send them back to their respective owners\n   * @param ids - The IDs of the tokens to force-unstake\n   */\n  function multiEject(uint256[] memory ids) external onlyDao {\n    _ejectIfVested(ids, true);\n  }\n\n  /**\n   * Return the amount of Gen1 tokens in staking\n   * @return Number of Gen1 tokens staked\n   */\n  function getStakedGen1() external view returns(uint256) {\n    return stakedGen1.length;\n  }\n\n  /**\n   * Handle Gen1 restrictions & entry fee token burn\n   * @param tokenId - The ID of the Character\n   */\n  function _handleGen1(uint256 tokenId) internal {\n    _ejectIfVested(stakedGen1, false);\n    if (!_isGen0(tokenId)) {\n      require(_isOpenForPublic(), \"Gen0 only\");\n      require(stakedGen1.length < maxConcurrentGen1, \"Gen1 limit reached\");\n      stakedGen1.push(tokenId);\n      emit StakedGen1(stakedGen1.length);\n    }\n    gourmetFood.burn(_msgSender(), _isGen0(tokenId) ? entranceFeeGen0 : entranceFeeGen1);\n  }\n\n  /**\n   * Override Venue._stakeChef() to handle Gen1 logic & populate stakedGen1[]\n   */\n  function _stakeChef(address account, uint256 tokenId) internal override whenNotPaused {\n    _handleGen1(tokenId);\n    return super._stakeChef(account, tokenId);\n  }\n\n  /**\n   * Override Venue._stakeRat() to handle Gen1 logic & populate stakedGen1[]\n   */\n  function _stakeRat(address account, uint256 tokenId) internal override whenNotPaused {\n    _handleGen1(tokenId);\n    return super._stakeRat(account, tokenId);\n  }\n\n  /**\n   * Override Venue._claimChef() to clean up stakedGen1[]\n   */\n  function _claimChef(uint256 tokenId, address sender, bool unstake, bool noEarnings, uint256 randomVal) internal override returns (uint256 owed) {\n    _removeFromGen1(tokenId);\n    return super._claimChef(tokenId, sender, unstake, noEarnings, randomVal);\n  }\n\n  /**\n   * Override Venue._claimRat() to clean up stakedGen1[]\n   */\n  function _claimRat(uint256 tokenId, address sender, bool unstake, bool noEarnings, uint256 randomVal) internal override returns (uint256 owed) {\n    _removeFromGen1(tokenId);\n    return super._claimRat(tokenId, sender, unstake, noEarnings, randomVal);\n  }\n\n  /**\n   * Override Venue._updateCharacter() to update the Character's boost level\n   */\n  function _updateCharacter(uint256 tokenId, uint256 randomVal) internal override returns(uint8 efficiency, uint8 tolerance, string memory eventName) {\n    (, , , , , , , , , , int8 boost) = character.tokenTraits(tokenId);\n    if (tokenId <= character.getGen0Tokens() && boost != boostLevel) {\n      character.updateBoost(tokenId, boostLevel);\n    }\n    return super._updateCharacter(tokenId, randomVal);\n  }\n}\n",
  "sourcePath": "/Users/chris/workspace/ratalert/ratalert-contracts/contracts/TripleFiveClub.sol",
  "compiler": {
    "name": "solc",
    "version": "0.8.10+commit.fc410830.Emscripten.clang"
  },
  "schemaVersion": "3.4.7",
  "updatedAt": "2022-06-28T17:29:57.100Z",
  "networkType": "ethereum",
  "devdoc": {
    "kind": "dev",
    "methods": {
      "claimMany(uint16[],bool)": {
        "params": {
          "tokenIds": "- The IDs of the tokens in question",
          "unstake": "- Whether or not to unstake the given tokens"
        }
      },
      "fulfillClaimMany((bytes32,address,address,uint16[],bool),uint256)": {
        "params": {
          "randomness": "- Random value created by VRF",
          "v": "- VRF struct for the corresponding request"
        }
      },
      "getChefsStaked(address)": {
        "params": {
          "account": "- User wallet address"
        },
        "returns": {
          "_0": "Number of chefs in staking"
        }
      },
      "getStakedGen1()": {
        "returns": {
          "_0": "Number of Gen1 tokens staked"
        }
      },
      "multiEject(uint256[])": {
        "params": {
          "ids": "- The IDs of the tokens to force-unstake"
        }
      },
      "owner()": {
        "details": "Returns the address of the current owner."
      },
      "paused()": {
        "details": "Returns true if the contract is paused, and false otherwise."
      },
      "renounceOwnership()": {
        "details": "Leaves the contract without owner. It will not be possible to call `onlyOwner` functions anymore. Can only be called by the current owner. NOTE: Renouncing ownership will leave the contract without an owner, thereby removing any functionality that is only available to the owner."
      },
      "stakeMany(address,uint16[])": {
        "params": {
          "account": "- User wallet address",
          "tokenIds": "- The IDs of the Chefs & Rats to stake"
        }
      },
      "transferOwnership(address)": {
        "details": "Transfers ownership of the contract to a new account (`newOwner`). Can only be called by the current owner."
      }
    },
    "version": 1
  },
  "userdoc": {
    "kind": "user",
    "methods": {
      "claimMany(uint16[],bool)": {
        "notice": "ChainLink VRF request: Claims food token earnings, level-ups and optionally unstake characters"
      },
      "configure(uint256,uint256,int8,int8,int8,uint256,uint256,uint256,uint8,uint256)": {
        "notice": "Allows DAO to update game parameters"
      },
      "fulfillClaimMany((bytes32,address,address,uint16[],bool),uint256)": {
        "notice": "Callback for claimMany(), called by Claim.fulfillRandomness()"
      },
      "getChefsStaked(address)": {
        "notice": "Get the amount of chefs the given account has in staking"
      },
      "getStakedGen1()": {
        "notice": "Return the amount of Gen1 tokens in staking"
      },
      "multiEject(uint256[])": {
        "notice": "DAO function to force-unstake all tokens and send them back to their respective owners"
      },
      "onERC721Received(address,address,uint256,bytes)": {
        "notice": "IERC721ReceiverUpgradeable interface: We do not accept tokens sent directly"
      },
      "stakeMany(address,uint16[])": {
        "notice": "Adds Characters to staking"
      },
      "withdrawPayments()": {
        "notice": "Allows DAO to withdraw funds"
      }
    },
    "version": 1
  }
}