{
  "contractName": "TripleFiveClubV2",
  "abi": [
    {
      "anonymous": false,
      "inputs": [
        {
          "indexed": false,
          "internalType": "uint256",
          "name": "tokenId",
          "type": "uint256"
        },
        {
          "indexed": false,
          "internalType": "uint256",
          "name": "earned",
          "type": "uint256"
        },
        {
          "indexed": false,
          "internalType": "bool",
          "name": "unstaked",
          "type": "bool"
        },
        {
          "indexed": false,
          "internalType": "uint8",
          "name": "skill",
          "type": "uint8"
        },
        {
          "indexed": false,
          "internalType": "uint8",
          "name": "freak",
          "type": "uint8"
        },
        {
          "indexed": false,
          "internalType": "string",
          "name": "eventName",
          "type": "string"
        },
        {
          "indexed": false,
          "internalType": "uint256",
          "name": "foodTokensPerRat",
          "type": "uint256"
        }
      ],
      "name": "ChefClaimed",
      "type": "event"
    },
    {
      "anonymous": false,
      "inputs": [
        {
          "indexed": true,
          "internalType": "address",
          "name": "previousOwner",
          "type": "address"
        },
        {
          "indexed": true,
          "internalType": "address",
          "name": "newOwner",
          "type": "address"
        }
      ],
      "name": "OwnershipTransferred",
      "type": "event"
    },
    {
      "anonymous": false,
      "inputs": [
        {
          "indexed": false,
          "internalType": "address",
          "name": "account",
          "type": "address"
        }
      ],
      "name": "Paused",
      "type": "event"
    },
    {
      "anonymous": false,
      "inputs": [
        {
          "indexed": false,
          "internalType": "uint256",
          "name": "tokenId",
          "type": "uint256"
        },
        {
          "indexed": false,
          "internalType": "uint256",
          "name": "earned",
          "type": "uint256"
        },
        {
          "indexed": false,
          "internalType": "bool",
          "name": "unstaked",
          "type": "bool"
        },
        {
          "indexed": false,
          "internalType": "uint8",
          "name": "intelligence",
          "type": "uint8"
        },
        {
          "indexed": false,
          "internalType": "uint8",
          "name": "bodyMass",
          "type": "uint8"
        },
        {
          "indexed": false,
          "internalType": "string",
          "name": "eventName",
          "type": "string"
        },
        {
          "indexed": false,
          "internalType": "uint256",
          "name": "foodTokensPerRat",
          "type": "uint256"
        }
      ],
      "name": "RatClaimed",
      "type": "event"
    },
    {
      "anonymous": false,
      "inputs": [
        {
          "indexed": false,
          "internalType": "uint256",
          "name": "value",
          "type": "uint256"
        }
      ],
      "name": "StakedGen1",
      "type": "event"
    },
    {
      "anonymous": false,
      "inputs": [
        {
          "indexed": false,
          "internalType": "uint256",
          "name": "tokenId",
          "type": "uint256"
        },
        {
          "indexed": false,
          "internalType": "address",
          "name": "owner",
          "type": "address"
        },
        {
          "indexed": false,
          "internalType": "uint256",
          "name": "value",
          "type": "uint256"
        }
      ],
      "name": "TokenStaked",
      "type": "event"
    },
    {
      "anonymous": false,
      "inputs": [
        {
          "indexed": false,
          "internalType": "address",
          "name": "account",
          "type": "address"
        }
      ],
      "name": "Unpaused",
      "type": "event"
    },
    {
      "inputs": [
        {
          "internalType": "uint256",
          "name": "",
          "type": "uint256"
        }
      ],
      "name": "chefs",
      "outputs": [
        {
          "internalType": "uint256",
          "name": "tokenId",
          "type": "uint256"
        },
        {
          "internalType": "address",
          "name": "owner",
          "type": "address"
        },
        {
          "internalType": "uint80",
          "name": "value",
          "type": "uint80"
        },
        {
          "internalType": "uint80",
          "name": "timestamp",
          "type": "uint80"
        }
      ],
      "stateMutability": "view",
      "type": "function",
      "constant": true
    },
    {
      "inputs": [
        {
          "internalType": "uint16[]",
          "name": "tokenIds",
          "type": "uint16[]"
        },
        {
          "internalType": "bool",
          "name": "unstake",
          "type": "bool"
        }
      ],
      "name": "claimMany",
      "outputs": [],
      "stateMutability": "payable",
      "type": "function",
      "payable": true
    },
    {
      "inputs": [],
      "name": "foodTokensPerRat",
      "outputs": [
        {
          "internalType": "uint256",
          "name": "",
          "type": "uint256"
        }
      ],
      "stateMutability": "view",
      "type": "function",
      "constant": true
    },
    {
      "inputs": [
        {
          "components": [
            {
              "internalType": "bytes32",
              "name": "requestId",
              "type": "bytes32"
            },
            {
              "internalType": "address",
              "name": "venue",
              "type": "address"
            },
            {
              "internalType": "address",
              "name": "sender",
              "type": "address"
            },
            {
              "internalType": "uint16[]",
              "name": "tokenIds",
              "type": "uint16[]"
            },
            {
              "internalType": "bool",
              "name": "unstake",
              "type": "bool"
            }
          ],
          "internalType": "struct IClaim.VRFStruct",
          "name": "v",
          "type": "tuple"
        },
        {
          "internalType": "uint256",
          "name": "randomness",
          "type": "uint256"
        }
      ],
      "name": "fulfillClaimMany",
      "outputs": [],
      "stateMutability": "nonpayable",
      "type": "function"
    },
    {
      "inputs": [
        {
          "internalType": "address",
          "name": "account",
          "type": "address"
        }
      ],
      "name": "getChefsStaked",
      "outputs": [
        {
          "internalType": "uint256",
          "name": "",
          "type": "uint256"
        }
      ],
      "stateMutability": "view",
      "type": "function",
      "constant": true
    },
    {
      "inputs": [
        {
          "internalType": "address",
          "name": "",
          "type": "address"
        },
        {
          "internalType": "address",
          "name": "from",
          "type": "address"
        },
        {
          "internalType": "uint256",
          "name": "",
          "type": "uint256"
        },
        {
          "internalType": "bytes",
          "name": "",
          "type": "bytes"
        }
      ],
      "name": "onERC721Received",
      "outputs": [
        {
          "internalType": "bytes4",
          "name": "",
          "type": "bytes4"
        }
      ],
      "stateMutability": "pure",
      "type": "function",
      "constant": true
    },
    {
      "inputs": [],
      "name": "owner",
      "outputs": [
        {
          "internalType": "address",
          "name": "",
          "type": "address"
        }
      ],
      "stateMutability": "view",
      "type": "function",
      "constant": true
    },
    {
      "inputs": [],
      "name": "pause",
      "outputs": [],
      "stateMutability": "nonpayable",
      "type": "function"
    },
    {
      "inputs": [],
      "name": "paused",
      "outputs": [
        {
          "internalType": "bool",
          "name": "",
          "type": "bool"
        }
      ],
      "stateMutability": "view",
      "type": "function",
      "constant": true
    },
    {
      "inputs": [
        {
          "internalType": "uint256",
          "name": "",
          "type": "uint256"
        }
      ],
      "name": "rats",
      "outputs": [
        {
          "internalType": "uint256",
          "name": "tokenId",
          "type": "uint256"
        },
        {
          "internalType": "address",
          "name": "owner",
          "type": "address"
        },
        {
          "internalType": "uint80",
          "name": "value",
          "type": "uint80"
        },
        {
          "internalType": "uint80",
          "name": "timestamp",
          "type": "uint80"
        }
      ],
      "stateMutability": "view",
      "type": "function",
      "constant": true
    },
    {
      "inputs": [],
      "name": "renounceOwnership",
      "outputs": [],
      "stateMutability": "nonpayable",
      "type": "function"
    },
    {
      "inputs": [
        {
          "internalType": "address",
          "name": "_dao",
          "type": "address"
        }
      ],
      "name": "setDao",
      "outputs": [],
      "stateMutability": "nonpayable",
      "type": "function"
    },
    {
      "inputs": [
        {
          "internalType": "address",
          "name": "account",
          "type": "address"
        },
        {
          "internalType": "uint16[]",
          "name": "tokenIds",
          "type": "uint16[]"
        }
      ],
      "name": "stakeMany",
      "outputs": [],
      "stateMutability": "nonpayable",
      "type": "function"
    },
    {
      "inputs": [
        {
          "internalType": "uint256",
          "name": "",
          "type": "uint256"
        }
      ],
      "name": "stakedGen1",
      "outputs": [
        {
          "internalType": "uint256",
          "name": "",
          "type": "uint256"
        }
      ],
      "stateMutability": "view",
      "type": "function",
      "constant": true
    },
    {
      "inputs": [
        {
          "internalType": "address",
          "name": "",
          "type": "address"
        },
        {
          "internalType": "uint256",
          "name": "",
          "type": "uint256"
        }
      ],
      "name": "stakers",
      "outputs": [
        {
          "internalType": "uint256",
          "name": "",
          "type": "uint256"
        }
      ],
      "stateMutability": "view",
      "type": "function",
      "constant": true
    },
    {
      "inputs": [],
      "name": "totalChefsStaked",
      "outputs": [
        {
          "internalType": "uint256",
          "name": "",
          "type": "uint256"
        }
      ],
      "stateMutability": "view",
      "type": "function",
      "constant": true
    },
    {
      "inputs": [],
      "name": "totalRatsStaked",
      "outputs": [
        {
          "internalType": "uint256",
          "name": "",
          "type": "uint256"
        }
      ],
      "stateMutability": "view",
      "type": "function",
      "constant": true
    },
    {
      "inputs": [
        {
          "internalType": "address",
          "name": "newOwner",
          "type": "address"
        }
      ],
      "name": "transferOwnership",
      "outputs": [],
      "stateMutability": "nonpayable",
      "type": "function"
    },
    {
      "inputs": [],
      "name": "unpause",
      "outputs": [],
      "stateMutability": "nonpayable",
      "type": "function"
    },
    {
      "inputs": [],
      "name": "withdrawPayments",
      "outputs": [],
      "stateMutability": "nonpayable",
      "type": "function"
    },
    {
      "inputs": [
        {
          "internalType": "address",
          "name": "_character",
          "type": "address"
        },
        {
          "internalType": "address",
          "name": "_claim",
          "type": "address"
        },
        {
          "internalType": "uint256",
          "name": "_accrualPeriod",
          "type": "uint256"
        }
      ],
      "name": "initialize",
      "outputs": [],
      "stateMutability": "nonpayable",
      "type": "function"
    },
    {
      "inputs": [
        {
          "internalType": "address",
          "name": "_character",
          "type": "address"
        },
        {
          "internalType": "address",
          "name": "_claim",
          "type": "address"
        },
        {
          "internalType": "address",
          "name": "_gourmetFood",
          "type": "address"
        }
      ],
      "name": "initialize",
      "outputs": [],
      "stateMutability": "nonpayable",
      "type": "function"
    },
    {
      "inputs": [
        {
          "internalType": "uint256",
          "name": "_vestingPeriod",
          "type": "uint256"
        },
        {
          "internalType": "uint256",
          "name": "_accrualPeriod",
          "type": "uint256"
        },
        {
          "internalType": "int8",
          "name": "_dailyFreakRate",
          "type": "int8"
        },
        {
          "internalType": "int8",
          "name": "_dailyBodyMassRate",
          "type": "int8"
        },
        {
          "internalType": "int8",
          "name": "_boostLevel",
          "type": "int8"
        },
        {
          "internalType": "uint256[]",
          "name": "_entranceFees",
          "type": "uint256[]"
        },
        {
          "internalType": "uint256[]",
          "name": "_weekModulo",
          "type": "uint256[]"
        },
        {
          "internalType": "uint256",
          "name": "_maxConcurrentGen1",
          "type": "uint256"
        },
        {
          "internalType": "uint8",
          "name": "_maxClaimsPerTx",
          "type": "uint8"
        },
        {
          "internalType": "uint256",
          "name": "_claimFee",
          "type": "uint256"
        }
      ],
      "name": "configure",
      "outputs": [],
      "stateMutability": "nonpayable",
      "type": "function"
    },
    {
      "inputs": [],
      "name": "isOpenForPublic",
      "outputs": [
        {
          "internalType": "bool",
          "name": "",
          "type": "bool"
        }
      ],
      "stateMutability": "view",
      "type": "function",
      "constant": true
    },
    {
      "inputs": [
        {
          "internalType": "uint256[]",
          "name": "ids",
          "type": "uint256[]"
        }
      ],
      "name": "multiEject",
      "outputs": [],
      "stateMutability": "nonpayable",
      "type": "function"
    },
    {
      "inputs": [],
      "name": "getStakedGen1",
      "outputs": [
        {
          "internalType": "uint256",
          "name": "",
          "type": "uint256"
        }
      ],
      "stateMutability": "view",
      "type": "function",
      "constant": true
    }
  ],
  "bytecode": "0x608060405234801561001057600080fd5b50615feb80620000216000396000f3fe6080604052600436106101815760003560e01c80638456cb59116100d1578063c0c53b8b1161008a578063dbdc1f6b11610064578063dbdc1f6b1461052d578063f266674614610556578063f2fde38b14610581578063f52dd0b5146105aa57610181565b8063c0c53b8b1461049e578063c4b7eb70146104c7578063c8b6cbf7146104f057610181565b80638456cb59146103c35780638980e5be146103da5780638a82279e146104035780638da5cb5b1461042e578063922a180214610459578063a7a102901461048257610181565b80634c4913ec1161013e5780636103d70b116101185780636103d70b146103415780636637b88214610358578063715018a614610381578063727d508a1461039857610181565b80634c4913ec146102995780634d1c61af146102d65780635c975abb1461031657610181565b8063150b7a02146101865780631794bb3c146101c35780632535a77f146101ec57806335ec066e146102175780633f4ba83a14610257578063499f80101461026e575b600080fd5b34801561019257600080fd5b506101ad60048036038101906101a891906141fb565b6105e7565b6040516101ba91906142be565b60405180910390f35b3480156101cf57600080fd5b506101ea60048036038101906101e591906142d9565b61066a565b005b3480156101f857600080fd5b50610201610866565b60405161020e919061433b565b60405180910390f35b34801561022357600080fd5b5061023e60048036038101906102399190614356565b61086c565b60405161024e94939291906143b7565b60405180910390f35b34801561026357600080fd5b5061026c6108e8565b005b34801561027a57600080fd5b506102836108fa565b604051610290919061433b565b60405180910390f35b3480156102a557600080fd5b506102c060048036038101906102bb91906143fc565b610900565b6040516102cd919061433b565b60405180910390f35b3480156102e257600080fd5b506102fd60048036038101906102f89190614356565b61094c565b60405161030d94939291906143b7565b60405180910390f35b34801561032257600080fd5b5061032b6109c8565b6040516103389190614444565b60405180910390f35b34801561034d57600080fd5b506103566109df565b005b34801561036457600080fd5b5061037f600480360381019061037a91906143fc565b610a52565b005b34801561038d57600080fd5b50610396610b12565b005b3480156103a457600080fd5b506103ad610b9a565b6040516103ba9190614444565b60405180910390f35b3480156103cf57600080fd5b506103d8610bc7565b005b3480156103e657600080fd5b5061040160048036038101906103fc9190614620565b610bd9565b005b34801561040f57600080fd5b50610418610d7a565b604051610425919061433b565b60405180910390f35b34801561043a57600080fd5b50610443610d87565b6040516104509190614737565b60405180910390f35b34801561046557600080fd5b50610480600480360381019061047b9190614963565b610db1565b005b61049c60048036038101906104979190614a15565b611398565b005b3480156104aa57600080fd5b506104c560048036038101906104c09190614a75565b61185e565b005b3480156104d357600080fd5b506104ee60048036038101906104e99190614ac8565b611a18565b005b3480156104fc57600080fd5b5061051760048036038101906105129190614b11565b611a2e565b604051610524919061433b565b60405180910390f35b34801561053957600080fd5b50610554600480360381019061054f9190614b51565b611a5f565b005b34801561056257600080fd5b5061056b6120de565b604051610578919061433b565b60405180910390f35b34801561058d57600080fd5b506105a860048036038101906105a391906143fc565b6120e4565b005b3480156105b657600080fd5b506105d160048036038101906105cc9190614356565b6121dc565b6040516105de919061433b565b60405180910390f35b60008073ffffffffffffffffffffffffffffffffffffffff168573ffffffffffffffffffffffffffffffffffffffff1614610657576040517f08c379a000000000000000000000000000000000000000000000000000000000815260040161064e90614c34565b60405180910390fd5b63150b7a0260e01b905095945050505050565b600060019054906101000a900460ff166106925760008054906101000a900460ff161561069b565b61069a612200565b5b6106da576040517f08c379a00000000000000000000000000000000000000000000000000000000081526004016106d190614cc6565b60405180910390fd5b60008060019054906101000a900460ff16159050801561072a576001600060016101000a81548160ff02191690831515021790555060016000806101000a81548160ff0219169083151502179055505b610732612211565b61073a61226a565b83609860006101000a81548173ffffffffffffffffffffffffffffffffffffffff021916908373ffffffffffffffffffffffffffffffffffffffff16021790555082609960006101000a81548173ffffffffffffffffffffffffffffffffffffffff021916908373ffffffffffffffffffffffffffffffffffffffff1602179055508160a2819055506000609e60006101000a81548160ff021916908360000b60ff1602179055506000609e60016101000a81548160ff021916908360000b60ff1602179055506000609e60026101000a81548160ff021916908360000b60ff1602179055506000609e60036101000a81548160ff021916908360000b60ff16021790555080156108605760008060016101000a81548160ff0219169083151502179055505b50505050565b60a35481565b609b6020528060005260406000206000915090508060000154908060010160009054906101000a900473ffffffffffffffffffffffffffffffffffffffff16908060010160149054906101000a900469ffffffffffffffffffff16908060020160009054906101000a900469ffffffffffffffffffff16905084565b6108f06122c3565b6108f8612355565b565b60a05481565b6000609c60008373ffffffffffffffffffffffffffffffffffffffff1673ffffffffffffffffffffffffffffffffffffffff168152602001908152602001600020805490509050919050565b609a6020528060005260406000206000915090508060000154908060010160009054906101000a900473ffffffffffffffffffffffffffffffffffffffff16908060010160149054906101000a900469ffffffffffffffffffff16908060020160009054906101000a900469ffffffffffffffffffff16905084565b6000603360009054906101000a900460ff16905090565b6109e76122c3565b609760009054906101000a900473ffffffffffffffffffffffffffffffffffffffff1673ffffffffffffffffffffffffffffffffffffffff166108fc479081150290604051600060405180830381858888f19350505050158015610a4f573d6000803e3d6000fd5b50565b610a5a6123f7565b73ffffffffffffffffffffffffffffffffffffffff16610a78610d87565b73ffffffffffffffffffffffffffffffffffffffff1614610ace576040517f08c379a0000000000000000000000000000000000000000000000000000000008152600401610ac590614d32565b60405180910390fd5b80609760006101000a81548173ffffffffffffffffffffffffffffffffffffffff021916908373ffffffffffffffffffffffffffffffffffffffff16021790555050565b610b1a6123f7565b73ffffffffffffffffffffffffffffffffffffffff16610b38610d87565b73ffffffffffffffffffffffffffffffffffffffff1614610b8e576040517f08c379a0000000000000000000000000000000000000000000000000000000008152600401610b8590614d32565b60405180910390fd5b610b9860006123ff565b565b60008062093a8042610bac9190614d81565b905060aa548110158015610bc1575060ab5481105b91505090565b610bcf6122c3565b610bd76124c5565b565b610be16123f7565b73ffffffffffffffffffffffffffffffffffffffff16610bff610d87565b73ffffffffffffffffffffffffffffffffffffffff1614610c55576040517f08c379a0000000000000000000000000000000000000000000000000000000008152600401610c4c90614d32565b60405180910390fd5b8960a1819055508860a28190555087609e60016101000a81548160ff021916908360000b60ff16021790555086609e60036101000a81548160ff021916908360000b60ff1602179055508560a760006101000a81548160ff021916908360000b60ff16021790555084600081518110610cd157610cd0614db2565b5b602002602001015160a88190555084600181518110610cf357610cf2614db2565b5b602002602001015160a98190555083600081518110610d1557610d14614db2565b5b602002602001015160aa8190555083600181518110610d3757610d36614db2565b5b602002602001015160ab819055508260ac819055508160a460006101000a81548160ff021916908360ff1602179055508060a58190555050505050505050505050565b600060a680549050905090565b6000606560009054906101000a900473ffffffffffffffffffffffffffffffffffffffff16905090565b610db96109c8565b15610df9576040517f08c379a0000000000000000000000000000000000000000000000000000000008152600401610df090614e2d565b60405180910390fd5b609960009054906101000a900473ffffffffffffffffffffffffffffffffffffffff1673ffffffffffffffffffffffffffffffffffffffff163373ffffffffffffffffffffffffffffffffffffffff1614610e89576040517f08c379a0000000000000000000000000000000000000000000000000000000008152600401610e8090614e99565b60405180910390fd5b6000609d6000846000015181526020019081526020016000208054905011610ee6576040517f08c379a0000000000000000000000000000000000000000000000000000000008152600401610edd90614f05565b60405180910390fd5b6000609d600084600001518152602001908152602001600020805480602002602001604051908101604052809291908181526020018280548015610f7157602002820191906000526020600020906000905b82829054906101000a900461ffff1661ffff1681526020019060020190602082600101049283019260010382029150808411610f385790505b50505050509050609d6000846000015181526020019081526020016000206000610f9b9190613ffb565b6000805b82518110156113795760008482604051602001610fbd929190614f25565b6040516020818303038152906040528051906020012060001c9050610fff848381518110610fee57610fed614db2565b5b602002602001015161ffff16612568565b156113235760005b609c6000886040015173ffffffffffffffffffffffffffffffffffffffff1673ffffffffffffffffffffffffffffffffffffffff1681526020019081526020016000208054905081101561126c5784838151811061106857611067614db2565b5b602002602001015161ffff16609c6000896040015173ffffffffffffffffffffffffffffffffffffffff1673ffffffffffffffffffffffffffffffffffffffff16815260200190815260200160002082815481106110c9576110c8614db2565b5b9060005260206000200154141561125957609c6000886040015173ffffffffffffffffffffffffffffffffffffffff1673ffffffffffffffffffffffffffffffffffffffff1681526020019081526020016000206001609c60008a6040015173ffffffffffffffffffffffffffffffffffffffff1673ffffffffffffffffffffffffffffffffffffffff168152602001908152602001600020805490506111709190614f7d565b8154811061118157611180614db2565b5b9060005260206000200154609c6000896040015173ffffffffffffffffffffffffffffffffffffffff1673ffffffffffffffffffffffffffffffffffffffff16815260200190815260200160002082815481106111e1576111e0614db2565b5b9060005260206000200181905550609c6000886040015173ffffffffffffffffffffffffffffffffffffffff1673ffffffffffffffffffffffffffffffffffffffff16815260200190815260200160002080548061124257611241614fb1565b5b600190038181906000526020600020016000905590555b808061126490614fe0565b915050611007565b5060006112c38760400151609c60008a6040015173ffffffffffffffffffffffffffffffffffffffff1673ffffffffffffffffffffffffffffffffffffffff16815260200190815260200160002080549050612647565b905060028114156112dc576112db8760400151612653565b5b6113108584815181106112f2576112f1614db2565b5b602002602001015161ffff1688604001518960800151600086612656565b8461131b9190615029565b935050611365565b61135784838151811061133957611338614db2565b5b602002602001015161ffff168760400151886080015160008561267c565b836113629190615029565b92505b50808061137190614fe0565b915050610f9f565b506000811115611392576113918460400151826126a2565b5b50505050565b6113a06109c8565b156113e0576040517f08c379a00000000000000000000000000000000000000000000000000000000081526004016113d790614e2d565b60405180910390fd5b6113e86123f7565b73ffffffffffffffffffffffffffffffffffffffff163273ffffffffffffffffffffffffffffffffffffffff1614611455576040517f08c379a000000000000000000000000000000000000000000000000000000000815260040161144c906150cb565b60405180910390fd5b60a460009054906101000a900460ff1660ff168383905011156114ad576040517f08c379a00000000000000000000000000000000000000000000000000000000081526004016114a490615137565b60405180910390fd5b60a55434146114f1576040517f08c379a00000000000000000000000000000000000000000000000000000000081526004016114e8906151a3565b60405180910390fd5b60005b8383905081101561178557600061153585858481811061151757611516614db2565b5b905060200201602081019061152c91906151c3565b61ffff16612568565b61157c57609b60008686858181106115505761154f614db2565b5b905060200201602081019061156591906151c3565b61ffff1681526020019081526020016000206115bb565b609a600086868581811061159357611592614db2565b5b90506020020160208101906115a891906151c3565b61ffff1681526020019081526020016000205b604051806080016040529081600082015481526020016001820160009054906101000a900473ffffffffffffffffffffffffffffffffffffffff1673ffffffffffffffffffffffffffffffffffffffff1673ffffffffffffffffffffffffffffffffffffffff1681526020016001820160149054906101000a900469ffffffffffffffffffff1669ffffffffffffffffffff1669ffffffffffffffffffff1681526020016002820160009054906101000a900469ffffffffffffffffffff1669ffffffffffffffffffff1669ffffffffffffffffffff168152505090506116a06123f7565b73ffffffffffffffffffffffffffffffffffffffff16816020015173ffffffffffffffffffffffffffffffffffffffff1614611711576040517f08c379a00000000000000000000000000000000000000000000000000000000081526004016117089061523c565b60405180910390fd5b60a154816060015169ffffffffffffffffffff16426117309190614f7d565b1015611771576040517f08c379a0000000000000000000000000000000000000000000000000000000008152600401611768906152a8565b60405180910390fd5b50808061177d90614fe0565b9150506114f4565b506000609960009054906101000a900473ffffffffffffffffffffffffffffffffffffffff1673ffffffffffffffffffffffffffffffffffffffff16635bdf263c6117ce6123f7565b8686866040518563ffffffff1660e01b81526004016117f0949392919061538b565b6020604051808303816000875af115801561180f573d6000803e3d6000fd5b505050506040513d601f19601f8201168201806040525081019061183391906153e0565b90508383609d60008481526020019081526020016000209190611857929190614023565b5050505050565b600060019054906101000a900460ff166118865760008054906101000a900460ff161561188f565b61188e612200565b5b6118ce576040517f08c379a00000000000000000000000000000000000000000000000000000000081526004016118c590614cc6565b60405180910390fd5b60008060019054906101000a900460ff16159050801561191e576001600060016101000a81548160ff02191690831515021790555060016000806101000a81548160ff0219169083151502179055505b611926612211565b61192e61226a565b83609860006101000a81548173ffffffffffffffffffffffffffffffffffffffff021916908373ffffffffffffffffffffffffffffffffffffffff16021790555082609960006101000a81548173ffffffffffffffffffffffffffffffffffffffff021916908373ffffffffffffffffffffffffffffffffffffffff1602179055508160ad60006101000a81548173ffffffffffffffffffffffffffffffffffffffff021916908373ffffffffffffffffffffffffffffffffffffffff1602179055508015611a125760008060016101000a81548160ff0219169083151502179055505b50505050565b611a206122c3565b611a2b8160016126a6565b50565b609c6020528160005260406000208181548110611a4a57600080fd5b90600052602060002001600091509150505481565b611a676123f7565b73ffffffffffffffffffffffffffffffffffffffff163273ffffffffffffffffffffffffffffffffffffffff16148015611ad35750611aa46123f7565b73ffffffffffffffffffffffffffffffffffffffff168373ffffffffffffffffffffffffffffffffffffffff16145b80611b325750609860009054906101000a900473ffffffffffffffffffffffffffffffffffffffff1673ffffffffffffffffffffffffffffffffffffffff16611b1a6123f7565b73ffffffffffffffffffffffffffffffffffffffff16145b611b71576040517f08c379a0000000000000000000000000000000000000000000000000000000008152600401611b68906150cb565b60405180910390fd5b60005b828290508110156120d8576000838383818110611b9457611b93614db2565b5b9050602002016020810190611ba991906151c3565b61ffff161415611bb8576120c5565b609860009054906101000a900473ffffffffffffffffffffffffffffffffffffffff1673ffffffffffffffffffffffffffffffffffffffff16611bf96123f7565b73ffffffffffffffffffffffffffffffffffffffff1614611d4c57611c1c6123f7565b73ffffffffffffffffffffffffffffffffffffffff16609860009054906101000a900473ffffffffffffffffffffffffffffffffffffffff1673ffffffffffffffffffffffffffffffffffffffff16636352211e858585818110611c8357611c82614db2565b5b9050602002016020810190611c9891906151c3565b6040518263ffffffff1660e01b8152600401611cb49190615448565b602060405180830381865afa158015611cd1573d6000803e3d6000fd5b505050506040513d601f19601f82011682018060405250810190611cf59190615478565b73ffffffffffffffffffffffffffffffffffffffff1614611d4b576040517f08c379a0000000000000000000000000000000000000000000000000000000008152600401611d429061523c565b60405180910390fd5b5b611d80838383818110611d6257611d61614db2565b5b9050602002016020810190611d7791906151c3565b61ffff166128f3565b611dbf576040517f08c379a0000000000000000000000000000000000000000000000000000000008152600401611db6906154f1565b60405180910390fd5b611df3838383818110611dd557611dd4614db2565b5b9050602002016020810190611dea91906151c3565b61ffff16612568565b15611f7257609c60008573ffffffffffffffffffffffffffffffffffffffff1673ffffffffffffffffffffffffffffffffffffffff168152602001908152602001600020838383818110611e4a57611e49614db2565b5b9050602002016020810190611e5f91906151c3565b908060018154018082558091505060019003906000526020600020016000909161ffff169091909150556000611ede611e966123f7565b609c60008873ffffffffffffffffffffffffffffffffffffffff1673ffffffffffffffffffffffffffffffffffffffff16815260200190815260200160002080549050612647565b90506000811215611f24576040517f08c379a0000000000000000000000000000000000000000000000000000000008152600401611f1b9061555d565b60405180910390fd5b6000811415611f3757611f36856128fe565b5b611f6c85858585818110611f4e57611f4d614db2565b5b9050602002016020810190611f6391906151c3565b61ffff16612901565b50611fa8565b611fa784848484818110611f8957611f88614db2565b5b9050602002016020810190611f9e91906151c3565b61ffff16612960565b5b609860009054906101000a900473ffffffffffffffffffffffffffffffffffffffff1673ffffffffffffffffffffffffffffffffffffffff16611fe96123f7565b73ffffffffffffffffffffffffffffffffffffffff16146120c457609860009054906101000a900473ffffffffffffffffffffffffffffffffffffffff1673ffffffffffffffffffffffffffffffffffffffff166323b872dd61204a6123f7565b3086868681811061205e5761205d614db2565b5b905060200201602081019061207391906151c3565b6040518463ffffffff1660e01b81526004016120919392919061557d565b600060405180830381600087803b1580156120ab57600080fd5b505af11580156120bf573d6000803e3d6000fd5b505050505b5b80806120d090614fe0565b915050611b74565b50505050565b609f5481565b6120ec6123f7565b73ffffffffffffffffffffffffffffffffffffffff1661210a610d87565b73ffffffffffffffffffffffffffffffffffffffff1614612160576040517f08c379a000000000000000000000000000000000000000000000000000000000815260040161215790614d32565b60405180910390fd5b600073ffffffffffffffffffffffffffffffffffffffff168173ffffffffffffffffffffffffffffffffffffffff1614156121d0576040517f08c379a00000000000000000000000000000000000000000000000000000000081526004016121c790615626565b60405180910390fd5b6121d9816123ff565b50565b60a681815481106121ec57600080fd5b906000526020600020016000915090505481565b600061220b306129bf565b15905090565b600060019054906101000a900460ff16612260576040517f08c379a0000000000000000000000000000000000000000000000000000000008152600401612257906156b8565b60405180910390fd5b6122686129e2565b565b600060019054906101000a900460ff166122b9576040517f08c379a00000000000000000000000000000000000000000000000000000000081526004016122b0906156b8565b60405180910390fd5b6122c1612a43565b565b609760009054906101000a900473ffffffffffffffffffffffffffffffffffffffff1673ffffffffffffffffffffffffffffffffffffffff163373ffffffffffffffffffffffffffffffffffffffff1614612353576040517f08c379a000000000000000000000000000000000000000000000000000000000815260040161234a90615724565b60405180910390fd5b565b61235d6109c8565b61239c576040517f08c379a000000000000000000000000000000000000000000000000000000000815260040161239390615790565b60405180910390fd5b6000603360006101000a81548160ff0219169083151502179055507f5db9ee0a495bf2e6ff9c91a7834c1ba4fdd244a5e8aa4e537bd38aeae4b073aa6123e06123f7565b6040516123ed9190614737565b60405180910390a1565b600033905090565b6000606560009054906101000a900473ffffffffffffffffffffffffffffffffffffffff16905081606560006101000a81548173ffffffffffffffffffffffffffffffffffffffff021916908373ffffffffffffffffffffffffffffffffffffffff1602179055508173ffffffffffffffffffffffffffffffffffffffff168173ffffffffffffffffffffffffffffffffffffffff167f8be0079c531659141344cd1fd0a4f28419497f9722a3daafe3b4186f6b6457e060405160405180910390a35050565b6124cd6109c8565b1561250d576040517f08c379a000000000000000000000000000000000000000000000000000000000815260040161250490614e2d565b60405180910390fd5b6001603360006101000a81548160ff0219169083151502179055507f62e78cea01bee320cd4e420270b5ea74000d11b0c9f74754ebdbfc544b05a2586125516123f7565b60405161255e9190614737565b60405180910390a1565b6000609860009054906101000a900473ffffffffffffffffffffffffffffffffffffffff1673ffffffffffffffffffffffffffffffffffffffff1663e05c57bf836040518263ffffffff1660e01b81526004016125c5919061433b565b61016060405180830381865afa1580156125e3573d6000803e3d6000fd5b505050506040513d601f19601f8201168201806040525081019061260791906157ef565b9091929394959697985090919293949596975090919293949596509091929394955090919293945090919293509091925090915090505080915050919050565b60006002905092915050565b50565b60006126628685612aaf565b93506126718686868686612c20565b905095945050505050565b60006126888685612aaf565b9350612697868686868661306a565b905095945050505050565b5050565b60005b82518110156128ee5760006126d88483815181106126ca576126c9614db2565b5b602002602001015184612aaf565b905080806126e35750825b156128da57600061270d858481518110612700576126ff614db2565b5b6020026020010151612568565b61274357609b600086858151811061272857612727614db2565b5b60200260200101518152602001908152602001600020612771565b609a600086858151811061275a57612759614db2565b5b602002602001015181526020019081526020016000205b604051806080016040529081600082015481526020016001820160009054906101000a900473ffffffffffffffffffffffffffffffffffffffff1673ffffffffffffffffffffffffffffffffffffffff1673ffffffffffffffffffffffffffffffffffffffff1681526020016001820160149054906101000a900469ffffffffffffffffffff1669ffffffffffffffffffff1669ffffffffffffffffffff1681526020016002820160009054906101000a900469ffffffffffffffffffff1669ffffffffffffffffffff1669ffffffffffffffffffff1681525050905061287185848151811061286457612863614db2565b5b6020026020010151612568565b156128a9576128a385848151811061288c5761288b614db2565b5b602002602001015182602001516001600080612656565b506128d8565b6128d68584815181106128bf576128be614db2565b5b60200260200101518260200151600160008061267c565b505b505b5080806128e690614fe0565b9150506126a9565b505050565b600060019050919050565b50565b6129096109c8565b15612949576040517f08c379a000000000000000000000000000000000000000000000000000000000815260040161294090614e2d565b60405180910390fd5b612952816134b6565b61295c82826136c3565b5050565b6129686109c8565b156129a8576040517f08c379a000000000000000000000000000000000000000000000000000000000815260040161299f90614e2d565b60405180910390fd5b6129b1816134b6565b6129bb8282613882565b5050565b6000808273ffffffffffffffffffffffffffffffffffffffff163b119050919050565b600060019054906101000a900460ff16612a31576040517f08c379a0000000000000000000000000000000000000000000000000000000008152600401612a28906156b8565b60405180910390fd5b612a41612a3c6123f7565b6123ff565b565b600060019054906101000a900460ff16612a92576040517f08c379a0000000000000000000000000000000000000000000000000000000008152600401612a89906156b8565b60405180910390fd5b6000603360006101000a81548160ff021916908315150217905550565b600080612abb84612568565b612ad757609b6000858152602001908152602001600020612aeb565b609a60008581526020019081526020016000205b604051806080016040529081600082015481526020016001820160009054906101000a900473ffffffffffffffffffffffffffffffffffffffff1673ffffffffffffffffffffffffffffffffffffffff1673ffffffffffffffffffffffffffffffffffffffff1681526020016001820160149054906101000a900469ffffffffffffffffffff1669ffffffffffffffffffff1669ffffffffffffffffffff1681526020016002820160009054906101000a900469ffffffffffffffffffff1669ffffffffffffffffffff1669ffffffffffffffffffff16815250509050612bd184613a45565b158015612c0357508280612c02575060a154816060015169ffffffffffffffffffff1642612bff9190614f7d565b10155b5b15612c165760019250612c1584613ae2565b5b8291505092915050565b600080609a6000888152602001908152602001600020604051806080016040529081600082015481526020016001820160009054906101000a900473ffffffffffffffffffffffffffffffffffffffff1673ffffffffffffffffffffffffffffffffffffffff1673ffffffffffffffffffffffffffffffffffffffff1681526020016001820160149054906101000a900469ffffffffffffffffffff1669ffffffffffffffffffff1669ffffffffffffffffffff1681526020016002820160009054906101000a900469ffffffffffffffffffff1669ffffffffffffffffffff1669ffffffffffffffffffff168152505090508573ffffffffffffffffffffffffffffffffffffffff16816020015173ffffffffffffffffffffffffffffffffffffffff1614612d85576040517f08c379a0000000000000000000000000000000000000000000000000000000008152600401612d7c9061523c565b60405180910390fd5b83612d9857612d9381613be6565b612d9b565b60005b91506000806000612dac8a87613bed565b925092509250612dbb8a6128f3565b612dc457600197505b8715612ef757609a60008b81526020019081526020016000206000808201600090556001820160006101000a81549073ffffffffffffffffffffffffffffffffffffffff02191690556001820160146101000a81549069ffffffffffffffffffff02191690556002820160006101000a81549069ffffffffffffffffffff02191690555050609f6000815480929190612e5c906158e3565b9190505550609860009054906101000a900473ffffffffffffffffffffffffffffffffffffffff1673ffffffffffffffffffffffffffffffffffffffff1663b88d4fde308b8d6040518463ffffffff1660e01b8152600401612ec093929190615944565b600060405180830381600087803b158015612eda57600080fd5b505af1158015612eee573d6000803e3d6000fd5b50505050613018565b60405180608001604052808b61ffff1681526020018a73ffffffffffffffffffffffffffffffffffffffff1681526020014269ffffffffffffffffffff1681526020014269ffffffffffffffffffff16815250609a60008c81526020019081526020016000206000820151816000015560208201518160010160006101000a81548173ffffffffffffffffffffffffffffffffffffffff021916908373ffffffffffffffffffffffffffffffffffffffff16021790555060408201518160010160146101000a81548169ffffffffffffffffffff021916908369ffffffffffffffffffff16021790555060608201518160020160006101000a81548169ffffffffffffffffffff021916908369ffffffffffffffffffff1602179055509050505b7f9b394c66bc4fdb2f56f5842a796076e6552d6f15eaacb6e63e3c53b474d872e98a868a86868660a3546040516130559796959493929190615a14565b60405180910390a15050505095945050505050565b600080609b6000888152602001908152602001600020604051806080016040529081600082015481526020016001820160009054906101000a900473ffffffffffffffffffffffffffffffffffffffff1673ffffffffffffffffffffffffffffffffffffffff1673ffffffffffffffffffffffffffffffffffffffff1681526020016001820160149054906101000a900469ffffffffffffffffffff1669ffffffffffffffffffff1669ffffffffffffffffffff1681526020016002820160009054906101000a900469ffffffffffffffffffff1669ffffffffffffffffffff1669ffffffffffffffffffff168152505090508573ffffffffffffffffffffffffffffffffffffffff16816020015173ffffffffffffffffffffffffffffffffffffffff16146131cf576040517f08c379a00000000000000000000000000000000000000000000000000000000081526004016131c69061523c565b60405180910390fd5b836131e2576131dd81613cb6565b6131e5565b60005b915060008060006131f68a87613bed565b9250925092506132058a6128f3565b61320e57600197505b871561334157609b60008b81526020019081526020016000206000808201600090556001820160006101000a81549073ffffffffffffffffffffffffffffffffffffffff02191690556001820160146101000a81549069ffffffffffffffffffff02191690556002820160006101000a81549069ffffffffffffffffffff0219169055505060a060008154809291906132a6906158e3565b9190505550609860009054906101000a900473ffffffffffffffffffffffffffffffffffffffff1673ffffffffffffffffffffffffffffffffffffffff1663b88d4fde308b8d6040518463ffffffff1660e01b815260040161330a93929190615944565b600060405180830381600087803b15801561332457600080fd5b505af1158015613338573d6000803e3d6000fd5b50505050613464565b60405180608001604052808b61ffff1681526020018a73ffffffffffffffffffffffffffffffffffffffff16815260200160a35469ffffffffffffffffffff1681526020014269ffffffffffffffffffff16815250609b60008c81526020019081526020016000206000820151816000015560208201518160010160006101000a81548173ffffffffffffffffffffffffffffffffffffffff021916908373ffffffffffffffffffffffffffffffffffffffff16021790555060408201518160010160146101000a81548169ffffffffffffffffffff021916908369ffffffffffffffffffff16021790555060608201518160020160006101000a81548169ffffffffffffffffffff021916908369ffffffffffffffffffff1602179055509050505b7f9be2cb7a62ca4aefdc81da57f848805cc67c86675da32b5a7be58bb615ba4f328a868a86868660a3546040516134a19796959493929190615a14565b60405180910390a15050505095945050505050565b61351160a680548060200260200160405190810160405280929190818152602001828054801561350557602002820191906000526020600020905b8154815260200190600101908083116134f1575b505050505060006126a6565b600061351c82613a45565b9050806136195761352b610b9a565b61356a576040517f08c379a000000000000000000000000000000000000000000000000000000000815260040161356190615ad6565b60405180910390fd5b60ac5460a680549050106135b3576040517f08c379a00000000000000000000000000000000000000000000000000000000081526004016135aa90615b42565b60405180910390fd5b60a68290806001815401808255809150506001900390600052602060002001600090919091909150557f7d4a6d69eb84044f4d9f547722787c2359e98a01482b3eb1e016cfdeef45830c60a680549050604051613610919061433b565b60405180910390a15b60ad60009054906101000a900473ffffffffffffffffffffffffffffffffffffffff1673ffffffffffffffffffffffffffffffffffffffff16639dc29fac61365f6123f7565b8361366c5760a954613670565b60a8545b6040518363ffffffff1660e01b815260040161368d929190615b62565b600060405180830381600087803b1580156136a757600080fd5b505af11580156136bb573d6000803e3d6000fd5b505050505050565b6136cb6109c8565b1561370b576040517f08c379a000000000000000000000000000000000000000000000000000000000815260040161370290614e2d565b60405180910390fd5b60405180608001604052808261ffff1681526020018373ffffffffffffffffffffffffffffffffffffffff1681526020014269ffffffffffffffffffff1681526020014269ffffffffffffffffffff16815250609a60008381526020019081526020016000206000820151816000015560208201518160010160006101000a81548173ffffffffffffffffffffffffffffffffffffffff021916908373ffffffffffffffffffffffffffffffffffffffff16021790555060408201518160010160146101000a81548169ffffffffffffffffffff021916908369ffffffffffffffffffff16021790555060608201518160020160006101000a81548169ffffffffffffffffffff021916908369ffffffffffffffffffff160217905550905050609f600081548092919061383e90614fe0565b91905055507f8af1bb49fb16c7835975aa59449ba4328dd54737dfb2ae9fa6c5eca71fda51f981834260405161387693929190615b8b565b60405180910390a15050565b61388a6109c8565b156138ca576040517f08c379a00000000000000000000000000000000000000000000000000000000081526004016138c190614e2d565b60405180910390fd5b60405180608001604052808261ffff1681526020018373ffffffffffffffffffffffffffffffffffffffff16815260200160a35469ffffffffffffffffffff1681526020014269ffffffffffffffffffff16815250609b60008381526020019081526020016000206000820151816000015560208201518160010160006101000a81548173ffffffffffffffffffffffffffffffffffffffff021916908373ffffffffffffffffffffffffffffffffffffffff16021790555060408201518160010160146101000a81548169ffffffffffffffffffff021916908369ffffffffffffffffffff16021790555060608201518160020160006101000a81548169ffffffffffffffffffff021916908369ffffffffffffffffffff16021790555090505060a060008154809291906139ff90614fe0565b91905055507f8af1bb49fb16c7835975aa59449ba4328dd54737dfb2ae9fa6c5eca71fda51f9818360a354604051613a3993929190615b8b565b60405180910390a15050565b6000609860009054906101000a900473ffffffffffffffffffffffffffffffffffffffff1673ffffffffffffffffffffffffffffffffffffffff16637856f9456040518163ffffffff1660e01b8152600401602060405180830381865afa158015613ab4573d6000803e3d6000fd5b505050506040513d601f19601f82011682018060405250810190613ad89190615bd7565b8211159050919050565b60005b60a680549050811015613ba6578160a68281548110613b0757613b06614db2565b5b90600052602060002001541415613b935760a6600160a680549050613b2c9190614f7d565b81548110613b3d57613b3c614db2565b5b906000526020600020015460a68281548110613b5c57613b5b614db2565b5b906000526020600020018190555060a6805480613b7c57613b7b614fb1565b5b600190038181906000526020600020016000905590555b8080613b9e90614fe0565b915050613ae5565b507f7d4a6d69eb84044f4d9f547722787c2359e98a01482b3eb1e016cfdeef45830c60a680549050604051613bdb919061433b565b60405180910390a150565b6000919050565b6000806060613bfb85613a45565b15613c9f57609860009054906101000a900473ffffffffffffffffffffffffffffffffffffffff1673ffffffffffffffffffffffffffffffffffffffff1663bfec98aa8660a760009054906101000a900460000b6040518363ffffffff1660e01b8152600401613c6c929190615c13565b600060405180830381600087803b158015613c8657600080fd5b505af1158015613c9a573d6000803e3d6000fd5b505050505b613ca98585613cbd565b9250925092509250925092565b6000919050565b6000806060600080609860009054906101000a900473ffffffffffffffffffffffffffffffffffffffff1673ffffffffffffffffffffffffffffffffffffffff1663e05c57bf886040518263ffffffff1660e01b8152600401613d20919061433b565b61016060405180830381865afa158015613d3e573d6000803e3d6000fd5b505050506040513d601f19601f82011682018060405250810190613d6291906157ef565b9a505050505050505050509150600082613da857609b600089815260200190815260200160002060020160009054906101000a900469ffffffffffffffffffff16613dd6565b609a600089815260200190815260200160002060020160009054906101000a900469ffffffffffffffffffff165b69ffffffffffffffffffff1642613ded9190614f7d565b9050609860009054906101000a900473ffffffffffffffffffffffffffffffffffffffff1673ffffffffffffffffffffffffffffffffffffffff166363dbfc7789613e6386613e4b57609e60029054906101000a900460000b613e5c565b609e60009054906101000a900460000b5b8587613f2b565b613e9987613e8057609e60039054906101000a900460000b613e91565b609e60019054906101000a900460000b5b866000613f2b565b613ea1613ff6565b613eac576000613eae565b8b5b6040518563ffffffff1660e01b8152600401613ecd9493929190615c3c565b6000604051808303816000875af1158015613eec573d6000803e3d6000fd5b505050506040513d6000823e3d601f19601f82011682018060405250810190613f159190615d27565b8096508197508298505050505050509250925092565b600060a254831115613f3d5760a25492505b600060a2548560000b85613f519190615da0565b613f5b9190615eb7565b905060a2548410158015613f6f5750600081135b15613f86578260000b81613f839190615f21565b90505b6064811315613f99576064915050613fef565b7fffffffffffffffffffffffffffffffffffffffffffffffffffffffffffffff9c811215613fea577fffffffffffffffffffffffffffffffffffffffffffffffffffffffffffffff9c915050613fef565b809150505b9392505050565b600090565b50805460008255600f01601090049060005260206000209081019061402091906140d1565b50565b82805482825590600052602060002090600f016010900481019282156140c05791602002820160005b8382111561409057833561ffff1683826101000a81548161ffff021916908361ffff160217905550926020019260020160208160010104928301926001030261404c565b80156140be5782816101000a81549061ffff0219169055600201602081600101049283019260010302614090565b505b5090506140cd91906140d1565b5090565b5b808211156140ea5760008160009055506001016140d2565b5090565b6000604051905090565b600080fd5b600080fd5b600073ffffffffffffffffffffffffffffffffffffffff82169050919050565b600061412d82614102565b9050919050565b61413d81614122565b811461414857600080fd5b50565b60008135905061415a81614134565b92915050565b6000819050919050565b61417381614160565b811461417e57600080fd5b50565b6000813590506141908161416a565b92915050565b600080fd5b600080fd5b600080fd5b60008083601f8401126141bb576141ba614196565b5b8235905067ffffffffffffffff8111156141d8576141d761419b565b5b6020830191508360018202830111156141f4576141f36141a0565b5b9250929050565b600080600080600060808688031215614217576142166140f8565b5b60006142258882890161414b565b95505060206142368882890161414b565b945050604061424788828901614181565b935050606086013567ffffffffffffffff811115614268576142676140fd565b5b614274888289016141a5565b92509250509295509295909350565b60007fffffffff0000000000000000000000000000000000000000000000000000000082169050919050565b6142b881614283565b82525050565b60006020820190506142d360008301846142af565b92915050565b6000806000606084860312156142f2576142f16140f8565b5b60006143008682870161414b565b93505060206143118682870161414b565b925050604061432286828701614181565b9150509250925092565b61433581614160565b82525050565b6000602082019050614350600083018461432c565b92915050565b60006020828403121561436c5761436b6140f8565b5b600061437a84828501614181565b91505092915050565b61438c81614122565b82525050565b600069ffffffffffffffffffff82169050919050565b6143b181614392565b82525050565b60006080820190506143cc600083018761432c565b6143d96020830186614383565b6143e660408301856143a8565b6143f360608301846143a8565b95945050505050565b600060208284031215614412576144116140f8565b5b60006144208482850161414b565b91505092915050565b60008115159050919050565b61443e81614429565b82525050565b60006020820190506144596000830184614435565b92915050565b60008160000b9050919050565b6144758161445f565b811461448057600080fd5b50565b6000813590506144928161446c565b92915050565b6000601f19601f8301169050919050565b7f4e487b7100000000000000000000000000000000000000000000000000000000600052604160045260246000fd5b6144e182614498565b810181811067ffffffffffffffff82111715614500576144ff6144a9565b5b80604052505050565b60006145136140ee565b905061451f82826144d8565b919050565b600067ffffffffffffffff82111561453f5761453e6144a9565b5b602082029050602081019050919050565b600061456361455e84614524565b614509565b90508083825260208201905060208402830185811115614586576145856141a0565b5b835b818110156145af578061459b8882614181565b845260208401935050602081019050614588565b5050509392505050565b600082601f8301126145ce576145cd614196565b5b81356145de848260208601614550565b91505092915050565b600060ff82169050919050565b6145fd816145e7565b811461460857600080fd5b50565b60008135905061461a816145f4565b92915050565b6000806000806000806000806000806101408b8d031215614644576146436140f8565b5b60006146528d828e01614181565b9a505060206146638d828e01614181565b99505060406146748d828e01614483565b98505060606146858d828e01614483565b97505060806146968d828e01614483565b96505060a08b013567ffffffffffffffff8111156146b7576146b66140fd565b5b6146c38d828e016145b9565b95505060c08b013567ffffffffffffffff8111156146e4576146e36140fd565b5b6146f08d828e016145b9565b94505060e06147018d828e01614181565b9350506101006147138d828e0161460b565b9250506101206147258d828e01614181565b9150509295989b9194979a5092959850565b600060208201905061474c6000830184614383565b92915050565b600080fd5b600080fd5b6000819050919050565b61476f8161475c565b811461477a57600080fd5b50565b60008135905061478c81614766565b92915050565b600067ffffffffffffffff8211156147ad576147ac6144a9565b5b602082029050602081019050919050565b600061ffff82169050919050565b6147d5816147be565b81146147e057600080fd5b50565b6000813590506147f2816147cc565b92915050565b600061480b61480684614792565b614509565b9050808382526020820190506020840283018581111561482e5761482d6141a0565b5b835b81811015614857578061484388826147e3565b845260208401935050602081019050614830565b5050509392505050565b600082601f83011261487657614875614196565b5b81356148868482602086016147f8565b91505092915050565b61489881614429565b81146148a357600080fd5b50565b6000813590506148b58161488f565b92915050565b600060a082840312156148d1576148d0614752565b5b6148db60a0614509565b905060006148eb8482850161477d565b60008301525060206148ff8482850161414b565b60208301525060406149138482850161414b565b604083015250606082013567ffffffffffffffff81111561493757614936614757565b5b61494384828501614861565b6060830152506080614957848285016148a6565b60808301525092915050565b6000806040838503121561497a576149796140f8565b5b600083013567ffffffffffffffff811115614998576149976140fd565b5b6149a4858286016148bb565b92505060206149b585828601614181565b9150509250929050565b60008083601f8401126149d5576149d4614196565b5b8235905067ffffffffffffffff8111156149f2576149f161419b565b5b602083019150836020820283011115614a0e57614a0d6141a0565b5b9250929050565b600080600060408486031215614a2e57614a2d6140f8565b5b600084013567ffffffffffffffff811115614a4c57614a4b6140fd565b5b614a58868287016149bf565b93509350506020614a6b868287016148a6565b9150509250925092565b600080600060608486031215614a8e57614a8d6140f8565b5b6000614a9c8682870161414b565b9350506020614aad8682870161414b565b9250506040614abe8682870161414b565b9150509250925092565b600060208284031215614ade57614add6140f8565b5b600082013567ffffffffffffffff811115614afc57614afb6140fd565b5b614b08848285016145b9565b91505092915050565b60008060408385031215614b2857614b276140f8565b5b6000614b368582860161414b565b9250506020614b4785828601614181565b9150509250929050565b600080600060408486031215614b6a57614b696140f8565b5b6000614b788682870161414b565b935050602084013567ffffffffffffffff811115614b9957614b986140fd565b5b614ba5868287016149bf565b92509250509250925092565b600082825260208201905092915050565b7f43616e6e6f742073656e6420746f6b656e7320746f2056656e7565206469726560008201527f63746c7900000000000000000000000000000000000000000000000000000000602082015250565b6000614c1e602483614bb1565b9150614c2982614bc2565b604082019050919050565b60006020820190508181036000830152614c4d81614c11565b9050919050565b7f496e697469616c697a61626c653a20636f6e747261637420697320616c72656160008201527f647920696e697469616c697a6564000000000000000000000000000000000000602082015250565b6000614cb0602e83614bb1565b9150614cbb82614c54565b604082019050919050565b60006020820190508181036000830152614cdf81614ca3565b9050919050565b7f4f776e61626c653a2063616c6c6572206973206e6f7420746865206f776e6572600082015250565b6000614d1c602083614bb1565b9150614d2782614ce6565b602082019050919050565b60006020820190508181036000830152614d4b81614d0f565b9050919050565b7f4e487b7100000000000000000000000000000000000000000000000000000000600052601260045260246000fd5b6000614d8c82614160565b9150614d9783614160565b925082614da757614da6614d52565b5b828206905092915050565b7f4e487b7100000000000000000000000000000000000000000000000000000000600052603260045260246000fd5b7f5061757361626c653a2070617573656400000000000000000000000000000000600082015250565b6000614e17601083614bb1565b9150614e2282614de1565b602082019050919050565b60006020820190508181036000830152614e4681614e0a565b9050919050565b7f4f6e6c7920436c61696d2063616e2066756c66696c6c00000000000000000000600082015250565b6000614e83601683614bb1565b9150614e8e82614e4d565b602082019050919050565b60006020820190508181036000830152614eb281614e76565b9050919050565b7f436c61696d2072657175657374206e6f7420666f756e64000000000000000000600082015250565b6000614eef601783614bb1565b9150614efa82614eb9565b602082019050919050565b60006020820190508181036000830152614f1e81614ee2565b9050919050565b6000604082019050614f3a600083018561432c565b614f47602083018461432c565b9392505050565b7f4e487b7100000000000000000000000000000000000000000000000000000000600052601160045260246000fd5b6000614f8882614160565b9150614f9383614160565b925082821015614fa657614fa5614f4e565b5b828203905092915050565b7f4e487b7100000000000000000000000000000000000000000000000000000000600052603160045260246000fd5b6000614feb82614160565b91507fffffffffffffffffffffffffffffffffffffffffffffffffffffffffffffffff82141561501e5761501d614f4e565b5b600182019050919050565b600061503482614160565b915061503f83614160565b9250827fffffffffffffffffffffffffffffffffffffffffffffffffffffffffffffffff0382111561507457615073614f4e565b5b828201905092915050565b7f454f41206f6e6c79000000000000000000000000000000000000000000000000600082015250565b60006150b5600883614bb1565b91506150c08261507f565b602082019050919050565b600060208201905081810360008301526150e4816150a8565b9050919050565b7f496e76616c696420636c61696d20616d6f756e74000000000000000000000000600082015250565b6000615121601483614bb1565b915061512c826150eb565b602082019050919050565b6000602082019050818103600083015261515081615114565b9050919050565b7f496e76616c696420636c61696d20666565000000000000000000000000000000600082015250565b600061518d601183614bb1565b915061519882615157565b602082019050919050565b600060208201905081810360008301526151bc81615180565b9050919050565b6000602082840312156151d9576151d86140f8565b5b60006151e7848285016147e3565b91505092915050565b7f4e6f7420796f757220746f6b656e000000000000000000000000000000000000600082015250565b6000615226600e83614bb1565b9150615231826151f0565b602082019050919050565b6000602082019050818103600083015261525581615219565b9050919050565b7f43616e6e6f7420636c61696d206265666f726520454f42000000000000000000600082015250565b6000615292601783614bb1565b915061529d8261525c565b602082019050919050565b600060208201905081810360008301526152c181615285565b9050919050565b600082825260208201905092915050565b6000819050919050565b6152ec816147be565b82525050565b60006152fe83836152e3565b60208301905092915050565b600061531960208401846147e3565b905092915050565b6000602082019050919050565b600061533a83856152c8565b9350615345826152d9565b8060005b8581101561537e5761535b828461530a565b61536588826152f2565b975061537083615321565b925050600181019050615349565b5085925050509392505050565b60006060820190506153a06000830187614383565b81810360208301526153b381858761532e565b90506153c26040830184614435565b95945050505050565b6000815190506153da81614766565b92915050565b6000602082840312156153f6576153f56140f8565b5b6000615404848285016153cb565b91505092915050565b6000819050919050565b600061543261542d615428846147be565b61540d565b614160565b9050919050565b61544281615417565b82525050565b600060208201905061545d6000830184615439565b92915050565b60008151905061547281614134565b92915050565b60006020828403121561548e5761548d6140f8565b5b600061549c84828501615463565b91505092915050565b7f4e6f7420656c696769626c650000000000000000000000000000000000000000600082015250565b60006154db600c83614bb1565b91506154e6826154a5565b602082019050919050565b6000602082019050818103600083015261550a816154ce565b9050919050565b7f4b69746368656e20737061636520726571756972656400000000000000000000600082015250565b6000615547601683614bb1565b915061555282615511565b602082019050919050565b600060208201905081810360008301526155768161553a565b9050919050565b60006060820190506155926000830186614383565b61559f6020830185614383565b6155ac6040830184615439565b949350505050565b7f4f776e61626c653a206e6577206f776e657220697320746865207a65726f206160008201527f6464726573730000000000000000000000000000000000000000000000000000602082015250565b6000615610602683614bb1565b915061561b826155b4565b604082019050919050565b6000602082019050818103600083015261563f81615603565b9050919050565b7f496e697469616c697a61626c653a20636f6e7472616374206973206e6f74206960008201527f6e697469616c697a696e67000000000000000000000000000000000000000000602082015250565b60006156a2602b83614bb1565b91506156ad82615646565b604082019050919050565b600060208201905081810360008301526156d181615695565b9050919050565b7f4f6e6c792044414f2063616e2065786563757465000000000000000000000000600082015250565b600061570e601483614bb1565b9150615719826156d8565b602082019050919050565b6000602082019050818103600083015261573d81615701565b9050919050565b7f5061757361626c653a206e6f7420706175736564000000000000000000000000600082015250565b600061577a601483614bb1565b915061578582615744565b602082019050919050565b600060208201905081810360008301526157a98161576d565b9050919050565b6000815190506157bf8161488f565b92915050565b6000815190506157d4816145f4565b92915050565b6000815190506157e98161446c565b92915050565b60008060008060008060008060008060006101608c8e031215615815576158146140f8565b5b60006158238e828f016157b0565b9b505060206158348e828f016157c5565b9a505060406158458e828f016157c5565b99505060606158568e828f016157c5565b98505060806158678e828f016157c5565b97505060a06158788e828f016157c5565b96505060c06158898e828f016157c5565b95505060e061589a8e828f016157c5565b9450506101006158ac8e828f016157c5565b9350506101206158be8e828f016157c5565b9250506101406158d08e828f016157da565b9150509295989b509295989b9093969950565b60006158ee82614160565b9150600082141561590257615901614f4e565b5b600182039050919050565b600082825260208201905092915050565b50565b600061592e60008361590d565b91506159398261591e565b600082019050919050565b60006080820190506159596000830186614383565b6159666020830185614383565b615973604083018461432c565b818103606083015261598481615921565b9050949350505050565b615997816145e7565b82525050565b600081519050919050565b60005b838110156159c65780820151818401526020810190506159ab565b838111156159d5576000848401525b50505050565b60006159e68261599d565b6159f08185614bb1565b9350615a008185602086016159a8565b615a0981614498565b840191505092915050565b600060e082019050615a29600083018a61432c565b615a36602083018961432c565b615a436040830188614435565b615a50606083018761598e565b615a5d608083018661598e565b81810360a0830152615a6f81856159db565b9050615a7e60c083018461432c565b98975050505050505050565b7f47656e30206f6e6c790000000000000000000000000000000000000000000000600082015250565b6000615ac0600983614bb1565b9150615acb82615a8a565b602082019050919050565b60006020820190508181036000830152615aef81615ab3565b9050919050565b7f47656e31206c696d697420726561636865640000000000000000000000000000600082015250565b6000615b2c601283614bb1565b9150615b3782615af6565b602082019050919050565b60006020820190508181036000830152615b5b81615b1f565b9050919050565b6000604082019050615b776000830185614383565b615b84602083018461432c565b9392505050565b6000606082019050615ba0600083018661432c565b615bad6020830185614383565b615bba604083018461432c565b949350505050565b600081519050615bd18161416a565b92915050565b600060208284031215615bed57615bec6140f8565b5b6000615bfb84828501615bc2565b91505092915050565b615c0d8161445f565b82525050565b6000604082019050615c28600083018561432c565b615c356020830184615c04565b9392505050565b6000608082019050615c51600083018761432c565b615c5e6020830186615c04565b615c6b6040830185615c04565b615c78606083018461432c565b95945050505050565b600080fd5b600067ffffffffffffffff821115615ca157615ca06144a9565b5b615caa82614498565b9050602081019050919050565b6000615cca615cc584615c86565b614509565b905082815260208101848484011115615ce657615ce5615c81565b5b615cf18482856159a8565b509392505050565b600082601f830112615d0e57615d0d614196565b5b8151615d1e848260208601615cb7565b91505092915050565b600080600060608486031215615d4057615d3f6140f8565b5b6000615d4e868287016157c5565b9350506020615d5f868287016157c5565b925050604084015167ffffffffffffffff811115615d8057615d7f6140fd565b5b615d8c86828701615cf9565b9150509250925092565b6000819050919050565b6000615dab82615d96565b9150615db683615d96565b9250827f7fffffffffffffffffffffffffffffffffffffffffffffffffffffffffffffff0482116000841360008413161615615df557615df4614f4e565b5b817f80000000000000000000000000000000000000000000000000000000000000000583126000841260008413161615615e3257615e31614f4e565b5b827f80000000000000000000000000000000000000000000000000000000000000000582126000841360008412161615615e6f57615e6e614f4e565b5b827f7fffffffffffffffffffffffffffffffffffffffffffffffffffffffffffffff0582126000841260008412161615615eac57615eab614f4e565b5b828202905092915050565b6000615ec282615d96565b9150615ecd83615d96565b925082615edd57615edc614d52565b5b600160000383147f800000000000000000000000000000000000000000000000000000000000000083141615615f1657615f15614f4e565b5b828205905092915050565b6000615f2c82615d96565b9150615f3783615d96565b9250817f7fffffffffffffffffffffffffffffffffffffffffffffffffffffffffffffff03831360008312151615615f7257615f71614f4e565b5b817f8000000000000000000000000000000000000000000000000000000000000000038312600083121615615faa57615fa9614f4e565b5b82820190509291505056fea2646970667358221220a575f970ae0cb766ca32fcbde802f9cdaf2b8b26f740becbec9de6bd868b212064736f6c634300080a0033",
  "immutableReferences": {},
  "source": "// SPDX-License-Identifier: MIT\n\npragma solidity ^0.8.0;\n\nimport \"./VenueV2.sol\";\nimport \"./DAOGourmetFood.sol\";\n\ncontract TripleFiveClubV2 is VenueV2 {\n  event StakedGen1(uint256 value);\n\n  uint256[] public stakedGen1; // Maps generation (0 | 1) to array of Character IDs\n  int8 boostLevel;\n  uint256 entranceFeeGen0;\n  uint256 entranceFeeGen1;\n  uint256 weekModuloStart;\n  uint256 weekModuloEnd;\n  uint256 maxConcurrentGen1;\n  DAOGourmetFood gourmetFood; // Reference to the $GFOOD contract\n\n  function initialize(\n    address _character,\n    address _claim,\n    address _gourmetFood\n  ) external initializer {\n    __Ownable_init();\n    __Pausable_init();\n\n    character = CharacterV2(_character);\n    claim = IClaim(_claim);\n    gourmetFood = DAOGourmetFood(_gourmetFood);\n  }\n\n  /**\n   * Allows DAO to update game parameters\n   */\n  function configure(\n    uint256 _vestingPeriod,\n    uint256 _accrualPeriod,\n    int8 _dailyFreakRate,\n    int8 _dailyBodyMassRate,\n    int8 _boostLevel,\n    uint256[] memory _entranceFees,\n    uint256[] memory _weekModulo,\n    uint256 _maxConcurrentGen1,\n    uint8 _maxClaimsPerTx,\n    uint256 _claimFee\n  ) external onlyOwner {\n    vestingPeriod = _vestingPeriod;\n    accrualPeriod = _accrualPeriod;\n    dailyFreakRate = _dailyFreakRate;\n    dailyBodyMassRate = _dailyBodyMassRate;\n    boostLevel = _boostLevel;\n    entranceFeeGen0 = _entranceFees[0];\n    entranceFeeGen1 = _entranceFees[1];\n    weekModuloStart = _weekModulo[0];\n    weekModuloEnd = _weekModulo[1];\n    maxConcurrentGen1 = _maxConcurrentGen1;\n    maxClaimsPerTx = _maxClaimsPerTx;\n    claimFee = _claimFee;\n  }\n\n  /**\n   * Checks if the token is Generation 0\n   * @param tokenId - The ID of the token to check\n   * @return true if it's a Gen0 token\n   */\n  function _isGen0(uint256 tokenId) internal view returns(bool) {\n    return tokenId <= character.getGen0Tokens();\n  }\n\n  /**\n   * Checks if we are within an open door period\n   * @return true during open door periods\n   */\n  function isOpenForPublic() public view returns(bool) {\n    uint256 weekModulo = block.timestamp % 604800;\n    return weekModulo >= weekModuloStart && weekModulo < weekModuloEnd; // All UTC period long...\n  }\n\n  /**\n   * Find and remove the token ID from the stakedGen1 array\n   * @param tokenId - The ID of the token\n   */\n  function _removeFromGen1(uint256 tokenId) internal {\n    for (uint i = 0; i < stakedGen1.length; i++) {\n      if (stakedGen1[i] == tokenId) {\n        stakedGen1[i] = stakedGen1[stakedGen1.length - 1];\n        stakedGen1.pop();\n      }\n    }\n    emit StakedGen1(stakedGen1.length);\n  }\n\n  /**\n   * Eject a particular Gen1 token ID if it has reached its vesting period\n   * @param tokenId - The ID of the token\n   * @param unstake - If true, user intends to unstake or gets force ejected\n   * @return Updated unstake value\n   */\n  function _ejectIfVested(uint256 tokenId, bool unstake) internal returns (bool) {\n    Stake memory stake = isChef(tokenId) ? chefs[tokenId] : rats[tokenId];\n    if (!_isGen0(tokenId) && (unstake || block.timestamp - stake.timestamp >= vestingPeriod)) {\n      unstake = true;\n      _removeFromGen1(tokenId);\n    }\n    return unstake;\n  }\n\n  /**\n   * Make room for other Gen1s by ejecting all Gen1 tokens that have reached their vesting period\n   * @param ids - The IDs of the tokens in question\n   * @param forceEject - If true, the vesting period is disregarded (used by DAO)\n   *\n   */\n  function _ejectMultiIfVested(uint256[] memory ids, bool forceEject) internal {\n    for (uint i = 0; i < ids.length; i++) {\n      bool unstake = _ejectIfVested(ids[i], forceEject);\n      if (unstake || forceEject) {\n        Stake memory stake = isChef(ids[i]) ? chefs[ids[i]] : rats[ids[i]];\n        if (isChef(ids[i])) {\n          _claimChef(ids[i], stake.owner, true, false, 0);\n        } else {\n          _claimRat(ids[i], stake.owner, true, false, 0);\n        }\n      }\n    }\n  }\n\n  /**\n   * DAO function to force-unstake all tokens and send them back to their respective owners\n   * @param ids - The IDs of the tokens to force-unstake\n   */\n  function multiEject(uint256[] memory ids) external onlyDao {\n    _ejectMultiIfVested(ids, true);\n  }\n\n  /**\n   * Return the amount of Gen1 tokens in staking\n   * @return Number of Gen1 tokens staked\n   */\n  function getStakedGen1() external view returns(uint256) {\n    return stakedGen1.length;\n  }\n\n  /**\n   * Handle Gen1 restrictions & entry fee token burn\n   * @param tokenId - The ID of the Character\n   */\n  function _handleGen1(uint256 tokenId) internal {\n    _ejectMultiIfVested(stakedGen1, false);\n    bool gen0 = _isGen0(tokenId);\n    if (!gen0) {\n      require(isOpenForPublic(), \"Gen0 only\");\n      require(stakedGen1.length < maxConcurrentGen1, \"Gen1 limit reached\");\n      stakedGen1.push(tokenId);\n      emit StakedGen1(stakedGen1.length);\n    }\n    gourmetFood.burn(_msgSender(), gen0 ? entranceFeeGen0 : entranceFeeGen1);\n  }\n\n  /**\n   * Override Venue._stakeChef() to handle Gen1 logic & populate stakedGen1[]\n   */\n  function _stakeChef(address account, uint256 tokenId) internal override whenNotPaused {\n    _handleGen1(tokenId);\n    return super._stakeChef(account, tokenId);\n  }\n\n  /**\n   * Override Venue._stakeRat() to handle Gen1 logic & populate stakedGen1[]\n   */\n  function _stakeRat(address account, uint256 tokenId) internal override whenNotPaused {\n    _handleGen1(tokenId);\n    return super._stakeRat(account, tokenId);\n  }\n\n  /**\n   * Override Venue._claimChef() to clean up stakedGen1[]\n   */\n  function _claimChef(uint256 tokenId, address sender, bool unstake, bool noEarnings, uint256 randomVal) internal override returns (uint256 owed) {\n    unstake = _ejectIfVested(tokenId, unstake);\n    return super._claimChef(tokenId, sender, unstake, noEarnings, randomVal);\n  }\n\n  /**\n   * Override Venue._claimRat() to clean up stakedGen1[]\n   */\n  function _claimRat(uint256 tokenId, address sender, bool unstake, bool noEarnings, uint256 randomVal) internal override returns (uint256 owed) {\n    unstake = _ejectIfVested(tokenId, unstake);\n    return super._claimRat(tokenId, sender, unstake, noEarnings, randomVal);\n  }\n\n  /**\n   * Override Venue._updateCharacter() to update the Character's boost level\n   */\n  function _updateCharacter(uint256 tokenId, uint256 randomVal) internal override returns(uint8 efficiency, uint8 tolerance, string memory eventName) {\n    if (_isGen0(tokenId)) {\n      character.updateBoost(tokenId, boostLevel);\n    }\n    return super._updateCharacter(tokenId, randomVal);\n  }\n}\n",
  "sourcePath": "/Users/chris/workspace/ratalert/ratalert-contracts/contracts/TripleFiveClubV2.sol",
  "compiler": {
    "name": "solc",
    "version": "0.8.10+commit.fc410830.Emscripten.clang"
  },
  "schemaVersion": "3.4.7",
  "updatedAt": "2022-08-07T04:52:26.740Z",
  "networkType": "ethereum",
  "devdoc": {
    "kind": "dev",
    "methods": {
      "claimMany(uint16[],bool)": {
        "params": {
          "tokenIds": "- The IDs of the tokens in question",
          "unstake": "- Whether or not to unstake the given tokens"
        }
      },
      "fulfillClaimMany((bytes32,address,address,uint16[],bool),uint256)": {
        "params": {
          "randomness": "- Random value created by VRF",
          "v": "- VRF struct for the corresponding request"
        }
      },
      "getChefsStaked(address)": {
        "params": {
          "account": "- User wallet address"
        },
        "returns": {
          "_0": "Number of chefs in staking"
        }
      },
      "getStakedGen1()": {
        "returns": {
          "_0": "Number of Gen1 tokens staked"
        }
      },
      "isOpenForPublic()": {
        "returns": {
          "_0": "true during open door periods"
        }
      },
      "multiEject(uint256[])": {
        "params": {
          "ids": "- The IDs of the tokens to force-unstake"
        }
      },
      "owner()": {
        "details": "Returns the address of the current owner."
      },
      "paused()": {
        "details": "Returns true if the contract is paused, and false otherwise."
      },
      "renounceOwnership()": {
        "details": "Leaves the contract without owner. It will not be possible to call `onlyOwner` functions anymore. Can only be called by the current owner. NOTE: Renouncing ownership will leave the contract without an owner, thereby removing any functionality that is only available to the owner."
      },
      "stakeMany(address,uint16[])": {
        "params": {
          "account": "- User wallet address",
          "tokenIds": "- The IDs of the Chefs & Rats to stake"
        }
      },
      "transferOwnership(address)": {
        "details": "Transfers ownership of the contract to a new account (`newOwner`). Can only be called by the current owner."
      }
    },
    "version": 1
  },
  "userdoc": {
    "kind": "user",
    "methods": {
      "claimMany(uint16[],bool)": {
        "notice": "ChainLink VRF request: Claims food token earnings, level-ups and optionally unstake characters"
      },
      "configure(uint256,uint256,int8,int8,int8,uint256[],uint256[],uint256,uint8,uint256)": {
        "notice": "Allows DAO to update game parameters"
      },
      "fulfillClaimMany((bytes32,address,address,uint16[],bool),uint256)": {
        "notice": "Callback for claimMany(), called by Claim.fulfillRandomness()"
      },
      "getChefsStaked(address)": {
        "notice": "Get the amount of chefs the given account has in staking"
      },
      "getStakedGen1()": {
        "notice": "Return the amount of Gen1 tokens in staking"
      },
      "isOpenForPublic()": {
        "notice": "Checks if we are within an open door period"
      },
      "multiEject(uint256[])": {
        "notice": "DAO function to force-unstake all tokens and send them back to their respective owners"
      },
      "onERC721Received(address,address,uint256,bytes)": {
        "notice": "IERC721ReceiverUpgradeable interface: We do not accept tokens sent directly"
      },
      "stakeMany(address,uint16[])": {
        "notice": "Adds Characters to staking"
      },
      "withdrawPayments()": {
        "notice": "Allows DAO to withdraw funds"
      }
    },
    "version": 1
  }
}