{
  "contractName": "VRFCoordinatorV2Mock",
  "abi": [
    {
      "inputs": [
        {
          "internalType": "uint96",
          "name": "_baseFee",
          "type": "uint96"
        },
        {
          "internalType": "uint96",
          "name": "_gasPriceLink",
          "type": "uint96"
        }
      ],
      "stateMutability": "nonpayable",
      "type": "constructor"
    },
    {
      "inputs": [],
      "name": "InsufficientBalance",
      "type": "error"
    },
    {
      "inputs": [],
      "name": "InvalidSubscription",
      "type": "error"
    },
    {
      "inputs": [
        {
          "internalType": "address",
          "name": "owner",
          "type": "address"
        }
      ],
      "name": "MustBeSubOwner",
      "type": "error"
    },
    {
      "anonymous": false,
      "inputs": [
        {
          "indexed": true,
          "internalType": "uint256",
          "name": "requestId",
          "type": "uint256"
        },
        {
          "indexed": false,
          "internalType": "uint256",
          "name": "outputSeed",
          "type": "uint256"
        },
        {
          "indexed": false,
          "internalType": "uint96",
          "name": "payment",
          "type": "uint96"
        },
        {
          "indexed": false,
          "internalType": "bool",
          "name": "success",
          "type": "bool"
        }
      ],
      "name": "RandomWordsFulfilled",
      "type": "event"
    },
    {
      "anonymous": false,
      "inputs": [
        {
          "indexed": true,
          "internalType": "bytes32",
          "name": "keyHash",
          "type": "bytes32"
        },
        {
          "indexed": false,
          "internalType": "uint256",
          "name": "requestId",
          "type": "uint256"
        },
        {
          "indexed": false,
          "internalType": "uint256",
          "name": "preSeed",
          "type": "uint256"
        },
        {
          "indexed": true,
          "internalType": "uint64",
          "name": "subId",
          "type": "uint64"
        },
        {
          "indexed": false,
          "internalType": "uint16",
          "name": "minimumRequestConfirmations",
          "type": "uint16"
        },
        {
          "indexed": false,
          "internalType": "uint32",
          "name": "callbackGasLimit",
          "type": "uint32"
        },
        {
          "indexed": false,
          "internalType": "uint32",
          "name": "numWords",
          "type": "uint32"
        },
        {
          "indexed": true,
          "internalType": "address",
          "name": "sender",
          "type": "address"
        }
      ],
      "name": "RandomWordsRequested",
      "type": "event"
    },
    {
      "anonymous": false,
      "inputs": [
        {
          "indexed": true,
          "internalType": "uint64",
          "name": "subId",
          "type": "uint64"
        },
        {
          "indexed": false,
          "internalType": "address",
          "name": "to",
          "type": "address"
        },
        {
          "indexed": false,
          "internalType": "uint256",
          "name": "amount",
          "type": "uint256"
        }
      ],
      "name": "SubscriptionCanceled",
      "type": "event"
    },
    {
      "anonymous": false,
      "inputs": [
        {
          "indexed": true,
          "internalType": "uint64",
          "name": "subId",
          "type": "uint64"
        },
        {
          "indexed": false,
          "internalType": "address",
          "name": "owner",
          "type": "address"
        }
      ],
      "name": "SubscriptionCreated",
      "type": "event"
    },
    {
      "anonymous": false,
      "inputs": [
        {
          "indexed": true,
          "internalType": "uint64",
          "name": "subId",
          "type": "uint64"
        },
        {
          "indexed": false,
          "internalType": "uint256",
          "name": "oldBalance",
          "type": "uint256"
        },
        {
          "indexed": false,
          "internalType": "uint256",
          "name": "newBalance",
          "type": "uint256"
        }
      ],
      "name": "SubscriptionFunded",
      "type": "event"
    },
    {
      "inputs": [],
      "name": "BASE_FEE",
      "outputs": [
        {
          "internalType": "uint96",
          "name": "",
          "type": "uint96"
        }
      ],
      "stateMutability": "view",
      "type": "function"
    },
    {
      "inputs": [],
      "name": "GAS_PRICE_LINK",
      "outputs": [
        {
          "internalType": "uint96",
          "name": "",
          "type": "uint96"
        }
      ],
      "stateMutability": "view",
      "type": "function"
    },
    {
      "inputs": [
        {
          "internalType": "uint256",
          "name": "",
          "type": "uint256"
        }
      ],
      "name": "s_requests",
      "outputs": [
        {
          "internalType": "uint64",
          "name": "subId",
          "type": "uint64"
        },
        {
          "internalType": "uint32",
          "name": "callbackGasLimit",
          "type": "uint32"
        },
        {
          "internalType": "uint32",
          "name": "numWords",
          "type": "uint32"
        }
      ],
      "stateMutability": "view",
      "type": "function"
    },
    {
      "inputs": [
        {
          "internalType": "uint256",
          "name": "_requestId",
          "type": "uint256"
        },
        {
          "internalType": "address",
          "name": "_consumer",
          "type": "address"
        }
      ],
      "name": "fulfillRandomWords",
      "outputs": [],
      "stateMutability": "nonpayable",
      "type": "function"
    },
    {
      "inputs": [
        {
          "internalType": "uint64",
          "name": "_subId",
          "type": "uint64"
        },
        {
          "internalType": "uint96",
          "name": "_amount",
          "type": "uint96"
        }
      ],
      "name": "fundSubscription",
      "outputs": [],
      "stateMutability": "nonpayable",
      "type": "function"
    },
    {
      "inputs": [
        {
          "internalType": "bytes32",
          "name": "_keyHash",
          "type": "bytes32"
        },
        {
          "internalType": "uint64",
          "name": "_subId",
          "type": "uint64"
        },
        {
          "internalType": "uint16",
          "name": "_minimumRequestConfirmations",
          "type": "uint16"
        },
        {
          "internalType": "uint32",
          "name": "_callbackGasLimit",
          "type": "uint32"
        },
        {
          "internalType": "uint32",
          "name": "_numWords",
          "type": "uint32"
        }
      ],
      "name": "requestRandomWords",
      "outputs": [
        {
          "internalType": "uint256",
          "name": "",
          "type": "uint256"
        }
      ],
      "stateMutability": "nonpayable",
      "type": "function"
    },
    {
      "inputs": [],
      "name": "createSubscription",
      "outputs": [
        {
          "internalType": "uint64",
          "name": "_subId",
          "type": "uint64"
        }
      ],
      "stateMutability": "nonpayable",
      "type": "function"
    },
    {
      "inputs": [
        {
          "internalType": "uint64",
          "name": "_subId",
          "type": "uint64"
        }
      ],
      "name": "getSubscription",
      "outputs": [
        {
          "internalType": "uint96",
          "name": "balance",
          "type": "uint96"
        },
        {
          "internalType": "uint64",
          "name": "reqCount",
          "type": "uint64"
        },
        {
          "internalType": "address",
          "name": "owner",
          "type": "address"
        },
        {
          "internalType": "address[]",
          "name": "consumers",
          "type": "address[]"
        }
      ],
      "stateMutability": "view",
      "type": "function"
    },
    {
      "inputs": [
        {
          "internalType": "uint64",
          "name": "_subId",
          "type": "uint64"
        },
        {
          "internalType": "address",
          "name": "_to",
          "type": "address"
        }
      ],
      "name": "cancelSubscription",
      "outputs": [],
      "stateMutability": "nonpayable",
      "type": "function"
    },
    {
      "inputs": [],
      "name": "getRequestConfig",
      "outputs": [
        {
          "internalType": "uint16",
          "name": "",
          "type": "uint16"
        },
        {
          "internalType": "uint32",
          "name": "",
          "type": "uint32"
        },
        {
          "internalType": "bytes32[]",
          "name": "",
          "type": "bytes32[]"
        }
      ],
      "stateMutability": "pure",
      "type": "function"
    },
    {
      "inputs": [
        {
          "internalType": "uint64",
          "name": "",
          "type": "uint64"
        },
        {
          "internalType": "address",
          "name": "",
          "type": "address"
        }
      ],
      "name": "addConsumer",
      "outputs": [],
      "stateMutability": "pure",
      "type": "function"
    },
    {
      "inputs": [
        {
          "internalType": "uint64",
          "name": "",
          "type": "uint64"
        },
        {
          "internalType": "address",
          "name": "",
          "type": "address"
        }
      ],
      "name": "removeConsumer",
      "outputs": [],
      "stateMutability": "pure",
      "type": "function"
    },
    {
      "inputs": [
        {
          "internalType": "uint64",
          "name": "",
          "type": "uint64"
        },
        {
          "internalType": "address",
          "name": "",
          "type": "address"
        }
      ],
      "name": "requestSubscriptionOwnerTransfer",
      "outputs": [],
      "stateMutability": "pure",
      "type": "function"
    },
    {
      "inputs": [
        {
          "internalType": "uint64",
          "name": "",
          "type": "uint64"
        }
      ],
      "name": "acceptSubscriptionOwnerTransfer",
      "outputs": [],
      "stateMutability": "pure",
      "type": "function"
    }
  ],
  "bytecode": "0x60c06040526001805560646002553480156200001a57600080fd5b506040516200214c3803806200214c8339818101604052810190620000409190620000de565b816bffffffffffffffffffffffff166080816bffffffffffffffffffffffff1681525050806bffffffffffffffffffffffff1660a0816bffffffffffffffffffffffff1681525050505062000125565b600080fd5b60006bffffffffffffffffffffffff82169050919050565b620000b88162000095565b8114620000c457600080fd5b50565b600081519050620000d881620000ad565b92915050565b60008060408385031215620000f857620000f762000090565b5b60006200010885828601620000c7565b92505060206200011b85828601620000c7565b9150509250929050565b60805160a051611ff362000159600039600081816108b90152610d8701526000818161035e01526108fe0152611ff36000f3fe608060405234801561001057600080fd5b50600436106100e95760003560e01c80639f87fad71161008c578063a410347f11610066578063a410347f14610238578063a47c769614610256578063afc69b5314610289578063d7ae1d30146102a5576100e9565b80639f87fad7146101cc578063a168fa89146101e8578063a21a23e41461021a576100e9565b80635d3b1d30116100c85780635d3b1d30146101485780637341c10c14610178578063808974ff1461019457806382359740146101b0576100e9565b8062012291146100ee57806304c357cb1461010e5780633d18651e1461012a575b600080fd5b6100f66102c1565b6040516101059392919061143c565b60405180910390f35b6101286004803603810190610123919061151d565b610321565b005b61013261035c565b60405161013f9190611584565b60405180910390f35b610162600480360381019061015d9190611623565b610380565b60405161016f91906116b7565b60405180910390f35b610192600480360381019061018d919061151d565b61059c565b005b6101ae60048036038101906101a991906116fe565b6105d7565b005b6101ca60048036038101906101c5919061173e565b610afc565b005b6101e660048036038101906101e1919061151d565b610b37565b005b61020260048036038101906101fd919061176b565b610b72565b604051610211939291906117a7565b60405180910390f35b610222610bd0565b60405161022f91906117de565b60405180910390f35b610240610d85565b60405161024d9190611584565b60405180910390f35b610270600480360381019061026b919061173e565b610da9565b60405161028094939291906118c6565b60405180910390f35b6102a3600480360381019061029e919061193e565b610f4a565b005b6102bf60048036038101906102ba919061151d565b611115565b005b60008060606003621e8480600067ffffffffffffffff8111156102e7576102e661197e565b5b6040519080825280602002602001820160405280156103155781602001602082028036833780820191505090505b50925092509250909192565b6040517f08c379a000000000000000000000000000000000000000000000000000000000815260040161035390611a0a565b60405180910390fd5b7f000000000000000000000000000000000000000000000000000000000000000081565b60008073ffffffffffffffffffffffffffffffffffffffff16600360008767ffffffffffffffff1667ffffffffffffffff16815260200190815260200160002060000160009054906101000a900473ffffffffffffffffffffffffffffffffffffffff1673ffffffffffffffffffffffffffffffffffffffff161415610432576040517f1f6a65b600000000000000000000000000000000000000000000000000000000815260040160405180910390fd5b60006001600081548092919061044790611a59565b91905055905060006002600081548092919061046290611a59565b91905055905060405180606001604052808867ffffffffffffffff1681526020018663ffffffff1681526020018563ffffffff168152506004600084815260200190815260200160002060008201518160000160006101000a81548167ffffffffffffffff021916908367ffffffffffffffff16021790555060208201518160000160086101000a81548163ffffffff021916908363ffffffff160217905550604082015181600001600c6101000a81548163ffffffff021916908363ffffffff1602179055509050503373ffffffffffffffffffffffffffffffffffffffff168767ffffffffffffffff16897f63373d1c4696214b898952999c9aaec57dac1ee2723cec59bea6888f489a977285858b8b8b604051610586959493929190611aa2565b60405180910390a4819250505095945050505050565b6040517f08c379a00000000000000000000000000000000000000000000000000000000081526004016105ce90611a0a565b60405180910390fd5b60005a905060006004600085815260200190815260200160002060000160009054906101000a900467ffffffffffffffff1667ffffffffffffffff161415610654576040517f08c379a000000000000000000000000000000000000000000000000000000000815260040161064b90611b41565b60405180910390fd5b6000600460008581526020019081526020016000206040518060600160405290816000820160009054906101000a900467ffffffffffffffff1667ffffffffffffffff1667ffffffffffffffff1681526020016000820160089054906101000a900463ffffffff1663ffffffff1663ffffffff16815260200160008201600c9054906101000a900463ffffffff1663ffffffff1663ffffffff168152505090506000816040015163ffffffff1667ffffffffffffffff81111561071a5761071961197e565b5b6040519080825280602002602001820160405280156107485781602001602082028036833780820191505090505b50905060005b826040015163ffffffff168110156107be578581604051602001610773929190611b61565b6040516020818303038152906040528051906020012060001c82828151811061079f5761079e611b8a565b5b60200260200101818152505080806107b690611a59565b91505061074e565b50600080631fe543e360e01b87846040516024016107dd929190611c77565b604051602081830303815290604052907bffffffffffffffffffffffffffffffffffffffffffffffffffffffff19166020820180517bffffffffffffffffffffffffffffffffffffffffffffffffffffffff8381831617835250505050905060008673ffffffffffffffffffffffffffffffffffffffff16856020015163ffffffff168360405161086e9190611d21565b60006040518083038160008787f1925050503d80600081146108ac576040519150601f19603f3d011682016040523d82523d6000602084013e6108b1565b606091505b5050905060007f00000000000000000000000000000000000000000000000000000000000000006bffffffffffffffffffffffff165a886108f29190611d38565b6108fc9190611d6c565b7f00000000000000000000000000000000000000000000000000000000000000006bffffffffffffffffffffffff166109359190611dc6565b9050806bffffffffffffffffffffffff1660036000886000015167ffffffffffffffff1667ffffffffffffffff16815260200190815260200160002060000160149054906101000a90046bffffffffffffffffffffffff166bffffffffffffffffffffffff1610156109d3576040517ff4d678b800000000000000000000000000000000000000000000000000000000815260040160405180910390fd5b8060036000886000015167ffffffffffffffff1667ffffffffffffffff16815260200190815260200160002060000160148282829054906101000a90046bffffffffffffffffffffffff16610a289190611e1c565b92506101000a8154816bffffffffffffffffffffffff02191690836bffffffffffffffffffffffff160217905550600460008a8152602001908152602001600020600080820160006101000a81549067ffffffffffffffff02191690556000820160086101000a81549063ffffffff021916905560008201600c6101000a81549063ffffffff02191690555050887f7dffc5ae5ee4e2e4df1651cf6ad329a73cebdb728f37ea0187b9b17e036756e48a8385604051610ae993929190611e6b565b60405180910390a2505050505050505050565b6040517f08c379a0000000000000000000000000000000000000000000000000000000008152600401610b2e90611a0a565b60405180910390fd5b6040517f08c379a0000000000000000000000000000000000000000000000000000000008152600401610b6990611a0a565b60405180910390fd5b60046020528060005260406000206000915090508060000160009054906101000a900467ffffffffffffffff16908060000160089054906101000a900463ffffffff169080600001600c9054906101000a900463ffffffff16905083565b600080600081819054906101000a900467ffffffffffffffff1680929190610bf790611ea2565b91906101000a81548167ffffffffffffffff021916908367ffffffffffffffff1602179055505060405180604001604052803373ffffffffffffffffffffffffffffffffffffffff16815260200160006bffffffffffffffffffffffff16815250600360008060009054906101000a900467ffffffffffffffff1667ffffffffffffffff1667ffffffffffffffff16815260200190815260200160002060008201518160000160006101000a81548173ffffffffffffffffffffffffffffffffffffffff021916908373ffffffffffffffffffffffffffffffffffffffff16021790555060208201518160000160146101000a8154816bffffffffffffffffffffffff02191690836bffffffffffffffffffffffff16021790555090505060008054906101000a900467ffffffffffffffff1667ffffffffffffffff167f464722b4166576d3dcbba877b999bc35cf911f4eaf434b7eba68fa113951d0bf33604051610d639190611ed3565b60405180910390a260008054906101000a900467ffffffffffffffff16905090565b7f000000000000000000000000000000000000000000000000000000000000000081565b60008060006060600073ffffffffffffffffffffffffffffffffffffffff16600360008767ffffffffffffffff1667ffffffffffffffff16815260200190815260200160002060000160009054906101000a900473ffffffffffffffffffffffffffffffffffffffff1673ffffffffffffffffffffffffffffffffffffffff161415610e61576040517f1f6a65b600000000000000000000000000000000000000000000000000000000815260040160405180910390fd5b600360008667ffffffffffffffff1667ffffffffffffffff16815260200190815260200160002060000160149054906101000a90046bffffffffffffffffffffffff166000600360008867ffffffffffffffff1667ffffffffffffffff16815260200190815260200160002060000160009054906101000a900473ffffffffffffffffffffffffffffffffffffffff16600067ffffffffffffffff811115610f0c57610f0b61197e565b5b604051908082528060200260200182016040528015610f3a5781602001602082028036833780820191505090505b5093509350935093509193509193565b600073ffffffffffffffffffffffffffffffffffffffff16600360008467ffffffffffffffff1667ffffffffffffffff16815260200190815260200160002060000160009054906101000a900473ffffffffffffffffffffffffffffffffffffffff1673ffffffffffffffffffffffffffffffffffffffff161415610ffb576040517f1f6a65b600000000000000000000000000000000000000000000000000000000815260040160405180910390fd5b6000600360008467ffffffffffffffff1667ffffffffffffffff16815260200190815260200160002060000160149054906101000a90046bffffffffffffffffffffffff16905081600360008567ffffffffffffffff1667ffffffffffffffff16815260200190815260200160002060000160148282829054906101000a90046bffffffffffffffffffffffff166110939190611eee565b92506101000a8154816bffffffffffffffffffffffff02191690836bffffffffffffffffffffffff1602179055508267ffffffffffffffff167fd39ec07f4e209f627a4c427971473820dc129761ba28de8906bd56f57101d4f88284846110fa9190611eee565b604051611108929190611f6b565b60405180910390a2505050565b816000600360008367ffffffffffffffff1667ffffffffffffffff16815260200190815260200160002060000160009054906101000a900473ffffffffffffffffffffffffffffffffffffffff169050600073ffffffffffffffffffffffffffffffffffffffff168173ffffffffffffffffffffffffffffffffffffffff1614156111cc576040517f1f6a65b600000000000000000000000000000000000000000000000000000000815260040160405180910390fd5b8073ffffffffffffffffffffffffffffffffffffffff163373ffffffffffffffffffffffffffffffffffffffff161461123c57806040517fd8a3fb520000000000000000000000000000000000000000000000000000000081526004016112339190611ed3565b60405180910390fd5b8367ffffffffffffffff167fe8ed5b475a5b5987aa9165e8731bb78043f39eee32ec5a1169a89e27fcd4981584600360008867ffffffffffffffff1667ffffffffffffffff16815260200190815260200160002060000160149054906101000a90046bffffffffffffffffffffffff166040516112ba929190611f94565b60405180910390a2600360008567ffffffffffffffff1667ffffffffffffffff168152602001908152602001600020600080820160006101000a81549073ffffffffffffffffffffffffffffffffffffffff02191690556000820160146101000a8154906bffffffffffffffffffffffff0219169055505050505050565b600061ffff82169050919050565b61134f81611338565b82525050565b600063ffffffff82169050919050565b61136e81611355565b82525050565b600081519050919050565b600082825260208201905092915050565b6000819050602082019050919050565b6000819050919050565b6113b3816113a0565b82525050565b60006113c583836113aa565b60208301905092915050565b6000602082019050919050565b60006113e982611374565b6113f3818561137f565b93506113fe83611390565b8060005b8381101561142f57815161141688826113b9565b9750611421836113d1565b925050600181019050611402565b5085935050505092915050565b60006060820190506114516000830186611346565b61145e6020830185611365565b818103604083015261147081846113de565b9050949350505050565b600080fd5b600067ffffffffffffffff82169050919050565b61149c8161147f565b81146114a757600080fd5b50565b6000813590506114b981611493565b92915050565b600073ffffffffffffffffffffffffffffffffffffffff82169050919050565b60006114ea826114bf565b9050919050565b6114fa816114df565b811461150557600080fd5b50565b600081359050611517816114f1565b92915050565b600080604083850312156115345761153361147a565b5b6000611542858286016114aa565b925050602061155385828601611508565b9150509250929050565b60006bffffffffffffffffffffffff82169050919050565b61157e8161155d565b82525050565b60006020820190506115996000830184611575565b92915050565b6115a8816113a0565b81146115b357600080fd5b50565b6000813590506115c58161159f565b92915050565b6115d481611338565b81146115df57600080fd5b50565b6000813590506115f1816115cb565b92915050565b61160081611355565b811461160b57600080fd5b50565b60008135905061161d816115f7565b92915050565b600080600080600060a0868803121561163f5761163e61147a565b5b600061164d888289016115b6565b955050602061165e888289016114aa565b945050604061166f888289016115e2565b93505060606116808882890161160e565b92505060806116918882890161160e565b9150509295509295909350565b6000819050919050565b6116b18161169e565b82525050565b60006020820190506116cc60008301846116a8565b92915050565b6116db8161169e565b81146116e657600080fd5b50565b6000813590506116f8816116d2565b92915050565b600080604083850312156117155761171461147a565b5b6000611723858286016116e9565b925050602061173485828601611508565b9150509250929050565b6000602082840312156117545761175361147a565b5b6000611762848285016114aa565b91505092915050565b6000602082840312156117815761178061147a565b5b600061178f848285016116e9565b91505092915050565b6117a18161147f565b82525050565b60006060820190506117bc6000830186611798565b6117c96020830185611365565b6117d66040830184611365565b949350505050565b60006020820190506117f36000830184611798565b92915050565b611802816114df565b82525050565b600081519050919050565b600082825260208201905092915050565b6000819050602082019050919050565b61183d816114df565b82525050565b600061184f8383611834565b60208301905092915050565b6000602082019050919050565b600061187382611808565b61187d8185611813565b935061188883611824565b8060005b838110156118b95781516118a08882611843565b97506118ab8361185b565b92505060018101905061188c565b5085935050505092915050565b60006080820190506118db6000830187611575565b6118e86020830186611798565b6118f560408301856117f9565b81810360608301526119078184611868565b905095945050505050565b61191b8161155d565b811461192657600080fd5b50565b60008135905061193881611912565b92915050565b600080604083850312156119555761195461147a565b5b6000611963858286016114aa565b925050602061197485828601611929565b9150509250929050565b7f4e487b7100000000000000000000000000000000000000000000000000000000600052604160045260246000fd5b600082825260208201905092915050565b7f6e6f7420696d706c656d656e7465640000000000000000000000000000000000600082015250565b60006119f4600f836119ad565b91506119ff826119be565b602082019050919050565b60006020820190508181036000830152611a23816119e7565b9050919050565b7f4e487b7100000000000000000000000000000000000000000000000000000000600052601160045260246000fd5b6000611a648261169e565b91507fffffffffffffffffffffffffffffffffffffffffffffffffffffffffffffffff821415611a9757611a96611a2a565b5b600182019050919050565b600060a082019050611ab760008301886116a8565b611ac460208301876116a8565b611ad16040830186611346565b611ade6060830185611365565b611aeb6080830184611365565b9695505050505050565b7f6e6f6e6578697374656e74207265717565737400000000000000000000000000600082015250565b6000611b2b6013836119ad565b9150611b3682611af5565b602082019050919050565b60006020820190508181036000830152611b5a81611b1e565b9050919050565b6000604082019050611b7660008301856116a8565b611b8360208301846116a8565b9392505050565b7f4e487b7100000000000000000000000000000000000000000000000000000000600052603260045260246000fd5b600081519050919050565b600082825260208201905092915050565b6000819050602082019050919050565b611bee8161169e565b82525050565b6000611c008383611be5565b60208301905092915050565b6000602082019050919050565b6000611c2482611bb9565b611c2e8185611bc4565b9350611c3983611bd5565b8060005b83811015611c6a578151611c518882611bf4565b9750611c5c83611c0c565b925050600181019050611c3d565b5085935050505092915050565b6000604082019050611c8c60008301856116a8565b8181036020830152611c9e8184611c19565b90509392505050565b600081519050919050565b600081905092915050565b60005b83811015611cdb578082015181840152602081019050611cc0565b83811115611cea576000848401525b50505050565b6000611cfb82611ca7565b611d058185611cb2565b9350611d15818560208601611cbd565b80840191505092915050565b6000611d2d8284611cf0565b915081905092915050565b6000611d438261169e565b9150611d4e8361169e565b925082821015611d6157611d60611a2a565b5b828203905092915050565b6000611d778261169e565b9150611d828361169e565b9250817fffffffffffffffffffffffffffffffffffffffffffffffffffffffffffffffff0483118215151615611dbb57611dba611a2a565b5b828202905092915050565b6000611dd18261169e565b9150611ddc8361169e565b9250827fffffffffffffffffffffffffffffffffffffffffffffffffffffffffffffffff03821115611e1157611e10611a2a565b5b828201905092915050565b6000611e278261155d565b9150611e328361155d565b925082821015611e4557611e44611a2a565b5b828203905092915050565b60008115159050919050565b611e6581611e50565b82525050565b6000606082019050611e8060008301866116a8565b611e8d6020830185611575565b611e9a6040830184611e5c565b949350505050565b6000611ead8261147f565b915067ffffffffffffffff821415611ec857611ec7611a2a565b5b600182019050919050565b6000602082019050611ee860008301846117f9565b92915050565b6000611ef98261155d565b9150611f048361155d565b9250826bffffffffffffffffffffffff03821115611f2557611f24611a2a565b5b828201905092915050565b6000819050919050565b6000611f55611f50611f4b8461155d565b611f30565b61169e565b9050919050565b611f6581611f3a565b82525050565b6000604082019050611f806000830185611f5c565b611f8d6020830184611f5c565b9392505050565b6000604082019050611fa960008301856117f9565b611fb66020830184611f5c565b939250505056fea26469706673582212201519c4bd17ecb518bdfa56d74524f544edfe7328f2d70ca9a51a8554c4d3d2bc64736f6c634300080a0033",
  "immutableReferences": {
    "250": [
      {
        "length": 32,
        "start": 862
      },
      {
        "length": 32,
        "start": 2302
      }
    ],
    "252": [
      {
        "length": 32,
        "start": 2233
      },
      {
        "length": 32,
        "start": 3463
      }
    ]
  },
  "source": "// SPDX-License-Identifier: MIT\n// A mock for testing code that relies on VRFCoordinatorV2.\npragma solidity ^0.8.0;\n\nimport \"../interfaces/LinkTokenInterface.sol\";\nimport \"../interfaces/VRFCoordinatorV2Interface.sol\";\nimport \"../VRFConsumerBaseV2.sol\";\n\ncontract VRFCoordinatorV2Mock is VRFCoordinatorV2Interface {\n  uint96 public immutable BASE_FEE;\n  uint96 public immutable GAS_PRICE_LINK;\n\n  error InvalidSubscription();\n  error InsufficientBalance();\n  error MustBeSubOwner(address owner);\n\n  event RandomWordsRequested(\n    bytes32 indexed keyHash,\n    uint256 requestId,\n    uint256 preSeed,\n    uint64 indexed subId,\n    uint16 minimumRequestConfirmations,\n    uint32 callbackGasLimit,\n    uint32 numWords,\n    address indexed sender\n  );\n  event RandomWordsFulfilled(uint256 indexed requestId, uint256 outputSeed, uint96 payment, bool success);\n  event SubscriptionCreated(uint64 indexed subId, address owner);\n  event SubscriptionFunded(uint64 indexed subId, uint256 oldBalance, uint256 newBalance);\n  event SubscriptionCanceled(uint64 indexed subId, address to, uint256 amount);\n\n  uint64 s_currentSubId;\n  uint256 s_nextRequestId = 1;\n  uint256 s_nextPreSeed = 100;\n  struct Subscription {\n    address owner;\n    uint96 balance;\n  }\n  mapping(uint64 => Subscription) s_subscriptions; /* subId */ /* subscription */\n\n  struct Request {\n    uint64 subId;\n    uint32 callbackGasLimit;\n    uint32 numWords;\n  }\n  mapping(uint256 => Request) public s_requests; /* requestId */ /* request */\n\n  constructor(uint96 _baseFee, uint96 _gasPriceLink) {\n    BASE_FEE = _baseFee;\n    GAS_PRICE_LINK = _gasPriceLink;\n  }\n\n  /**\n   * @notice fulfillRandomWords fulfills the given request, sending the random words to the supplied\n   * @notice consumer.\n   *\n   * @dev This mock uses a simplified formula for calculating payment amount and gas usage, and does\n   * @dev not account for all edge cases handled in the real VRF coordinator. When making requests\n   * @dev against the real coordinator a small amount of additional LINK is required.\n   *\n   * @param _requestId the request to fulfill\n   * @param _consumer the VRF randomness consumer to send the result to\n   */\n  function fulfillRandomWords(uint256 _requestId, address _consumer) external {\n    uint256 startGas = gasleft();\n    if (s_requests[_requestId].subId == 0) {\n      revert(\"nonexistent request\");\n    }\n    Request memory req = s_requests[_requestId];\n\n    uint256[] memory words = new uint256[](req.numWords);\n    for (uint256 i = 0; i < req.numWords; i++) {\n      words[i] = uint256(keccak256(abi.encode(_requestId, i)));\n    }\n\n    VRFConsumerBaseV2 v;\n    bytes memory callReq = abi.encodeWithSelector(v.rawFulfillRandomWords.selector, _requestId, words);\n    (bool success, ) = _consumer.call{gas: req.callbackGasLimit}(callReq);\n\n    uint96 payment = uint96(BASE_FEE + ((startGas - gasleft()) * GAS_PRICE_LINK));\n    if (s_subscriptions[req.subId].balance < payment) {\n      revert InsufficientBalance();\n    }\n    s_subscriptions[req.subId].balance -= payment;\n    delete (s_requests[_requestId]);\n    emit RandomWordsFulfilled(_requestId, _requestId, payment, success);\n  }\n\n  /**\n   * @notice fundSubscription allows funding a subscription with an arbitrary amount for testing.\n   *\n   * @param _subId the subscription to fund\n   * @param _amount the amount to fund\n   */\n  function fundSubscription(uint64 _subId, uint96 _amount) public {\n    if (s_subscriptions[_subId].owner == address(0)) {\n      revert InvalidSubscription();\n    }\n    uint96 oldBalance = s_subscriptions[_subId].balance;\n    s_subscriptions[_subId].balance += _amount;\n    emit SubscriptionFunded(_subId, oldBalance, oldBalance + _amount);\n  }\n\n  function requestRandomWords(\n    bytes32 _keyHash,\n    uint64 _subId,\n    uint16 _minimumRequestConfirmations,\n    uint32 _callbackGasLimit,\n    uint32 _numWords\n  ) external override returns (uint256) {\n    if (s_subscriptions[_subId].owner == address(0)) {\n      revert InvalidSubscription();\n    }\n\n    uint256 requestId = s_nextRequestId++;\n    uint256 preSeed = s_nextPreSeed++;\n\n    s_requests[requestId] = Request({subId: _subId, callbackGasLimit: _callbackGasLimit, numWords: _numWords});\n\n    emit RandomWordsRequested(\n      _keyHash,\n      requestId,\n      preSeed,\n      _subId,\n      _minimumRequestConfirmations,\n      _callbackGasLimit,\n      _numWords,\n      msg.sender\n    );\n    return requestId;\n  }\n\n  function createSubscription() external override returns (uint64 _subId) {\n    s_currentSubId++;\n    s_subscriptions[s_currentSubId] = Subscription({owner: msg.sender, balance: 0});\n    emit SubscriptionCreated(s_currentSubId, msg.sender);\n    return s_currentSubId;\n  }\n\n  function getSubscription(uint64 _subId)\n    external\n    view\n    override\n    returns (\n      uint96 balance,\n      uint64 reqCount,\n      address owner,\n      address[] memory consumers\n    )\n  {\n    if (s_subscriptions[_subId].owner == address(0)) {\n      revert InvalidSubscription();\n    }\n    return (s_subscriptions[_subId].balance, 0, s_subscriptions[_subId].owner, new address[](0));\n  }\n\n  function cancelSubscription(uint64 _subId, address _to) external override onlySubOwner(_subId) {\n    emit SubscriptionCanceled(_subId, _to, s_subscriptions[_subId].balance);\n    delete (s_subscriptions[_subId]);\n  }\n\n  modifier onlySubOwner(uint64 _subId) {\n    address owner = s_subscriptions[_subId].owner;\n    if (owner == address(0)) {\n      revert InvalidSubscription();\n    }\n    if (msg.sender != owner) {\n      revert MustBeSubOwner(owner);\n    }\n    _;\n  }\n\n  function getRequestConfig()\n    external\n    pure\n    override\n    returns (\n      uint16,\n      uint32,\n      bytes32[] memory\n    )\n  {\n    return (3, 2000000, new bytes32[](0));\n  }\n\n  function addConsumer(uint64, address) external pure override {\n    revert(\"not implemented\");\n  }\n\n  function removeConsumer(uint64, address) external pure override {\n    revert(\"not implemented\");\n  }\n\n  function requestSubscriptionOwnerTransfer(uint64, address) external pure override {\n    revert(\"not implemented\");\n  }\n\n  function acceptSubscriptionOwnerTransfer(uint64) external pure override {\n    revert(\"not implemented\");\n  }\n}\n",
  "sourcePath": "@chainlink/contracts/src/v0.8/mocks/VRFCoordinatorV2Mock.sol",
  "compiler": {
    "name": "solc",
    "version": "0.8.10+commit.fc410830.Emscripten.clang"
  },
  "schemaVersion": "3.4.5",
  "updatedAt": "2022-02-28T14:32:27.111Z",
  "devdoc": {
    "kind": "dev",
    "methods": {
      "createSubscription()": {
        "details": "You can manage the consumer set dynamically with addConsumer/removeConsumer.Note to fund the subscription, use transferAndCall. For exampleLINKTOKEN.transferAndCall(address(COORDINATOR),amount,abi.encode(subId));",
        "returns": {
          "_subId": "- A unique subscription id."
        }
      },
      "fulfillRandomWords(uint256,address)": {
        "details": "This mock uses a simplified formula for calculating payment amount and gas usage, and doesnot account for all edge cases handled in the real VRF coordinator. When making requestsagainst the real coordinator a small amount of additional LINK is required.",
        "params": {
          "_consumer": "the VRF randomness consumer to send the result to",
          "_requestId": "the request to fulfill"
        }
      },
      "fundSubscription(uint64,uint96)": {
        "params": {
          "_amount": "the amount to fund",
          "_subId": "the subscription to fund"
        }
      },
      "getRequestConfig()": {
        "returns": {
          "_0": "minimumRequestConfirmations global min for request confirmations",
          "_1": "maxGasLimit global max for request gas limit",
          "_2": "s_provingKeyHashes list of registered key hashes"
        }
      }
    },
    "version": 1
  },
  "userdoc": {
    "kind": "user",
    "methods": {
      "createSubscription()": {
        "notice": "Create a VRF subscription."
      },
      "fulfillRandomWords(uint256,address)": {
        "notice": "fulfillRandomWords fulfills the given request, sending the random words to the suppliedconsumer."
      },
      "fundSubscription(uint64,uint96)": {
        "notice": "fundSubscription allows funding a subscription with an arbitrary amount for testing."
      },
      "getRequestConfig()": {
        "notice": "Get configuration relevant for making requests"
      }
    },
    "version": 1
  }
}